{
	"lotto.sol": {
		"ACELotto": {
			"abi": [
				{
					"inputs": [],
					"stateMutability": "nonpayable",
					"type": "constructor"
				},
				{
					"anonymous": false,
					"inputs": [
						{
							"indexed": false,
							"internalType": "address",
							"name": "winner",
							"type": "address"
						},
						{
							"indexed": false,
							"internalType": "uint256",
							"name": "amount",
							"type": "uint256"
						}
					],
					"name": "LotteryWon",
					"type": "event"
				},
				{
					"anonymous": false,
					"inputs": [
						{
							"indexed": true,
							"internalType": "address",
							"name": "previousOwner",
							"type": "address"
						},
						{
							"indexed": true,
							"internalType": "address",
							"name": "newOwner",
							"type": "address"
						}
					],
					"name": "OwnershipTransferred",
					"type": "event"
				},
				{
					"inputs": [],
					"name": "BUSD",
					"outputs": [
						{
							"internalType": "contract IERC20",
							"name": "",
							"type": "address"
						}
					],
					"stateMutability": "view",
					"type": "function"
				},
				{
					"inputs": [],
					"name": "acesToken",
					"outputs": [
						{
							"internalType": "contract IERC20",
							"name": "",
							"type": "address"
						}
					],
					"stateMutability": "view",
					"type": "function"
				},
				{
					"inputs": [],
					"name": "currentJackpot",
					"outputs": [
						{
							"internalType": "uint256",
							"name": "",
							"type": "uint256"
						}
					],
					"stateMutability": "view",
					"type": "function"
				},
				{
					"inputs": [
						{
							"internalType": "address",
							"name": "",
							"type": "address"
						},
						{
							"internalType": "uint256",
							"name": "",
							"type": "uint256"
						}
					],
					"name": "entriesIndex",
					"outputs": [
						{
							"internalType": "uint256",
							"name": "",
							"type": "uint256"
						}
					],
					"stateMutability": "view",
					"type": "function"
				},
				{
					"inputs": [],
					"name": "getUniqueAddresses",
					"outputs": [
						{
							"internalType": "address[]",
							"name": "addresses",
							"type": "address[]"
						},
						{
							"internalType": "uint256[]",
							"name": "entries",
							"type": "uint256[]"
						}
					],
					"stateMutability": "view",
					"type": "function"
				},
				{
					"inputs": [],
					"name": "getUniqueUsers",
					"outputs": [
						{
							"internalType": "uint256",
							"name": "counter",
							"type": "uint256"
						}
					],
					"stateMutability": "view",
					"type": "function"
				},
				{
					"inputs": [
						{
							"internalType": "address",
							"name": "account",
							"type": "address"
						}
					],
					"name": "isActiveAccount",
					"outputs": [
						{
							"internalType": "bool",
							"name": "",
							"type": "bool"
						}
					],
					"stateMutability": "view",
					"type": "function"
				},
				{
					"inputs": [],
					"name": "owner",
					"outputs": [
						{
							"internalType": "address",
							"name": "",
							"type": "address"
						}
					],
					"stateMutability": "view",
					"type": "function"
				},
				{
					"inputs": [
						{
							"internalType": "uint256",
							"name": "seed",
							"type": "uint256"
						}
					],
					"name": "pickWinner",
					"outputs": [
						{
							"internalType": "uint256",
							"name": "winnerNum",
							"type": "uint256"
						},
						{
							"internalType": "address",
							"name": "winnerAddress",
							"type": "address"
						}
					],
					"stateMutability": "view",
					"type": "function"
				},
				{
					"inputs": [
						{
							"internalType": "address",
							"name": "account",
							"type": "address"
						}
					],
					"name": "removeAccount",
					"outputs": [],
					"stateMutability": "nonpayable",
					"type": "function"
				},
				{
					"inputs": [
						{
							"internalType": "address",
							"name": "account",
							"type": "address"
						},
						{
							"internalType": "uint256",
							"name": "amount",
							"type": "uint256"
						}
					],
					"name": "removeEntryFromWallet",
					"outputs": [],
					"stateMutability": "nonpayable",
					"type": "function"
				},
				{
					"inputs": [],
					"name": "renounceOwnership",
					"outputs": [],
					"stateMutability": "nonpayable",
					"type": "function"
				},
				{
					"inputs": [
						{
							"internalType": "uint256",
							"name": "startIndex",
							"type": "uint256"
						},
						{
							"internalType": "uint256",
							"name": "endIndex",
							"type": "uint256"
						}
					],
					"name": "resultLog",
					"outputs": [
						{
							"components": [
								{
									"internalType": "uint256",
									"name": "totalEntries",
									"type": "uint256"
								},
								{
									"internalType": "uint256",
									"name": "winningNumber",
									"type": "uint256"
								},
								{
									"internalType": "uint256",
									"name": "payout",
									"type": "uint256"
								},
								{
									"internalType": "uint256",
									"name": "endTime",
									"type": "uint256"
								},
								{
									"internalType": "address",
									"name": "winningAddress",
									"type": "address"
								}
							],
							"internalType": "struct ACELotto.Results[]",
							"name": "log",
							"type": "tuple[]"
						}
					],
					"stateMutability": "view",
					"type": "function"
				},
				{
					"inputs": [],
					"name": "roundEntries",
					"outputs": [
						{
							"internalType": "uint256",
							"name": "",
							"type": "uint256"
						}
					],
					"stateMutability": "view",
					"type": "function"
				},
				{
					"inputs": [
						{
							"internalType": "uint256",
							"name": "",
							"type": "uint256"
						}
					],
					"name": "roundEntry",
					"outputs": [
						{
							"internalType": "address",
							"name": "",
							"type": "address"
						}
					],
					"stateMutability": "view",
					"type": "function"
				},
				{
					"inputs": [],
					"name": "roundNum",
					"outputs": [
						{
							"internalType": "uint256",
							"name": "",
							"type": "uint256"
						}
					],
					"stateMutability": "view",
					"type": "function"
				},
				{
					"inputs": [
						{
							"internalType": "uint256",
							"name": "",
							"type": "uint256"
						}
					],
					"name": "roundResults",
					"outputs": [
						{
							"internalType": "uint256",
							"name": "totalEntries",
							"type": "uint256"
						},
						{
							"internalType": "uint256",
							"name": "winningNumber",
							"type": "uint256"
						},
						{
							"internalType": "uint256",
							"name": "payout",
							"type": "uint256"
						},
						{
							"internalType": "uint256",
							"name": "endTime",
							"type": "uint256"
						},
						{
							"internalType": "address",
							"name": "winningAddress",
							"type": "address"
						}
					],
					"stateMutability": "view",
					"type": "function"
				},
				{
					"inputs": [],
					"name": "totalPayout",
					"outputs": [
						{
							"internalType": "uint256",
							"name": "",
							"type": "uint256"
						}
					],
					"stateMutability": "view",
					"type": "function"
				},
				{
					"inputs": [
						{
							"internalType": "address",
							"name": "newOwner",
							"type": "address"
						}
					],
					"name": "transferOwnership",
					"outputs": [],
					"stateMutability": "nonpayable",
					"type": "function"
				},
				{
					"inputs": [
						{
							"internalType": "address",
							"name": "account",
							"type": "address"
						},
						{
							"internalType": "uint256",
							"name": "amount",
							"type": "uint256"
						}
					],
					"name": "updateAccount",
					"outputs": [],
					"stateMutability": "nonpayable",
					"type": "function"
				},
				{
					"inputs": [
						{
							"internalType": "uint256",
							"name": "winnerNum",
							"type": "uint256"
						},
						{
							"internalType": "uint256",
							"name": "payout",
							"type": "uint256"
						}
					],
					"name": "updateWinner",
					"outputs": [],
					"stateMutability": "nonpayable",
					"type": "function"
				},
				{
					"inputs": [
						{
							"internalType": "address",
							"name": "account",
							"type": "address"
						}
					],
					"name": "userEntries",
					"outputs": [
						{
							"internalType": "uint256",
							"name": "",
							"type": "uint256"
						}
					],
					"stateMutability": "view",
					"type": "function"
				}
			],
			"devdoc": {
				"kind": "dev",
				"methods": {
					"owner()": {
						"details": "Returns the address of the current owner."
					},
					"renounceOwnership()": {
						"details": "Leaves the contract without owner. It will not be possible to call `onlyOwner` functions anymore. Can only be called by the current owner. NOTE: Renouncing ownership will leave the contract without an owner, thereby removing any functionality that is only available to the owner."
					},
					"transferOwnership(address)": {
						"details": "Transfers ownership of the contract to a new account (`newOwner`). Can only be called by the current owner."
					}
				},
				"version": 1
			},
			"evm": {
				"assembly": "    /* \"lotto.sol\":595:5587  contract ACELotto is Ownable {   \r... */\n  mstore(0x40, 0x80)\n    /* \"lotto.sol\":770:812  0x1702e76a5be119E332805dC7C11Be26f3857c31d */\n  0x1702e76a5be119e332805dc7c11be26f3857c31d\n    /* \"lotto.sol\":737:813  IERC20 public acesToken = IERC20(0x1702e76a5be119E332805dC7C11Be26f3857c31d) */\n  0x04\n  exp(0x0100, 0x00)\n  dup2\n  sload\n  dup2\n  0xffffffffffffffffffffffffffffffffffffffff\n  mul\n  not\n  and\n  swap1\n  dup4\n  0xffffffffffffffffffffffffffffffffffffffff\n  and\n  mul\n  or\n  swap1\n  sstore\n  pop\n    /* \"lotto.sol\":848:890  0xe9e7CEA3DedcA5984780Bafc599bD69ADd087D56 */\n  0xe9e7cea3dedca5984780bafc599bd69add087d56\n    /* \"lotto.sol\":820:891  IERC20 public BUSD = IERC20(0xe9e7CEA3DedcA5984780Bafc599bD69ADd087D56) */\n  0x05\n  exp(0x0100, 0x00)\n  dup2\n  sload\n  dup2\n  0xffffffffffffffffffffffffffffffffffffffff\n  mul\n  not\n  and\n  swap1\n  dup4\n  0xffffffffffffffffffffffffffffffffffffffff\n  and\n  mul\n  or\n  swap1\n  sstore\n  pop\n    /* \"lotto.sol\":1303:1318  constructor(){} */\n  callvalue\n  dup1\n  iszero\n  tag_1\n  jumpi\n  0x00\n  dup1\n  revert\ntag_1:\n  pop\n    /* \"https://github.com/OpenZeppelin/openzeppelin-contracts/blob/master/contracts/access/Ownable.sol\":921:953  _transferOwnership(_msgSender()) */\n  tag_5\n    /* \"https://github.com/OpenZeppelin/openzeppelin-contracts/blob/master/contracts/access/Ownable.sol\":940:952  _msgSender() */\n  tag_6\n    /* \"https://github.com/OpenZeppelin/openzeppelin-contracts/blob/master/contracts/access/Ownable.sol\":940:950  _msgSender */\n  shl(0x20, tag_7)\n    /* \"https://github.com/OpenZeppelin/openzeppelin-contracts/blob/master/contracts/access/Ownable.sol\":940:952  _msgSender() */\n  0x20\n  shr\n  jump\t// in\ntag_6:\n    /* \"https://github.com/OpenZeppelin/openzeppelin-contracts/blob/master/contracts/access/Ownable.sol\":921:939  _transferOwnership */\n  shl(0x20, tag_8)\n    /* \"https://github.com/OpenZeppelin/openzeppelin-contracts/blob/master/contracts/access/Ownable.sol\":921:953  _transferOwnership(_msgSender()) */\n  0x20\n  shr\n  jump\t// in\ntag_5:\n    /* \"lotto.sol\":595:5587  contract ACELotto is Ownable {   \r... */\n  jump(tag_10)\n    /* \"https://github.com/OpenZeppelin/openzeppelin-contracts/blob/master/contracts/utils/Context.sol\":640:736  function _msgSender() internal view virtual returns (address) {... */\ntag_7:\n    /* \"https://github.com/OpenZeppelin/openzeppelin-contracts/blob/master/contracts/utils/Context.sol\":693:700  address */\n  0x00\n    /* \"https://github.com/OpenZeppelin/openzeppelin-contracts/blob/master/contracts/utils/Context.sol\":719:729  msg.sender */\n  caller\n    /* \"https://github.com/OpenZeppelin/openzeppelin-contracts/blob/master/contracts/utils/Context.sol\":712:729  return msg.sender */\n  swap1\n  pop\n    /* \"https://github.com/OpenZeppelin/openzeppelin-contracts/blob/master/contracts/utils/Context.sol\":640:736  function _msgSender() internal view virtual returns (address) {... */\n  swap1\n  jump\t// out\n    /* \"https://github.com/OpenZeppelin/openzeppelin-contracts/blob/master/contracts/access/Ownable.sol\":2270:2457  function _transferOwnership(address newOwner) internal virtual {... */\ntag_8:\n    /* \"https://github.com/OpenZeppelin/openzeppelin-contracts/blob/master/contracts/access/Ownable.sol\":2343:2359  address oldOwner */\n  0x00\n    /* \"https://github.com/OpenZeppelin/openzeppelin-contracts/blob/master/contracts/access/Ownable.sol\":2362:2368  _owner */\n  dup1\n  0x00\n  swap1\n  sload\n  swap1\n  0x0100\n  exp\n  swap1\n  div\n  0xffffffffffffffffffffffffffffffffffffffff\n  and\n    /* \"https://github.com/OpenZeppelin/openzeppelin-contracts/blob/master/contracts/access/Ownable.sol\":2343:2368  address oldOwner = _owner */\n  swap1\n  pop\n    /* \"https://github.com/OpenZeppelin/openzeppelin-contracts/blob/master/contracts/access/Ownable.sol\":2387:2395  newOwner */\n  dup2\n    /* \"https://github.com/OpenZeppelin/openzeppelin-contracts/blob/master/contracts/access/Ownable.sol\":2378:2384  _owner */\n  0x00\n  dup1\n    /* \"https://github.com/OpenZeppelin/openzeppelin-contracts/blob/master/contracts/access/Ownable.sol\":2378:2395  _owner = newOwner */\n  0x0100\n  exp\n  dup2\n  sload\n  dup2\n  0xffffffffffffffffffffffffffffffffffffffff\n  mul\n  not\n  and\n  swap1\n  dup4\n  0xffffffffffffffffffffffffffffffffffffffff\n  and\n  mul\n  or\n  swap1\n  sstore\n  pop\n    /* \"https://github.com/OpenZeppelin/openzeppelin-contracts/blob/master/contracts/access/Ownable.sol\":2441:2449  newOwner */\n  dup2\n    /* \"https://github.com/OpenZeppelin/openzeppelin-contracts/blob/master/contracts/access/Ownable.sol\":2410:2450  OwnershipTransferred(oldOwner, newOwner) */\n  0xffffffffffffffffffffffffffffffffffffffff\n  and\n    /* \"https://github.com/OpenZeppelin/openzeppelin-contracts/blob/master/contracts/access/Ownable.sol\":2431:2439  oldOwner */\n  dup2\n    /* \"https://github.com/OpenZeppelin/openzeppelin-contracts/blob/master/contracts/access/Ownable.sol\":2410:2450  OwnershipTransferred(oldOwner, newOwner) */\n  0xffffffffffffffffffffffffffffffffffffffff\n  and\n  0x8be0079c531659141344cd1fd0a4f28419497f9722a3daafe3b4186f6b6457e0\n  mload(0x40)\n  mload(0x40)\n  dup1\n  swap2\n  sub\n  swap1\n  log3\n    /* \"https://github.com/OpenZeppelin/openzeppelin-contracts/blob/master/contracts/access/Ownable.sol\":2333:2457  {... */\n  pop\n    /* \"https://github.com/OpenZeppelin/openzeppelin-contracts/blob/master/contracts/access/Ownable.sol\":2270:2457  function _transferOwnership(address newOwner) internal virtual {... */\n  pop\n  jump\t// out\n    /* \"lotto.sol\":595:5587  contract ACELotto is Ownable {   \r... */\ntag_10:\n  dataSize(sub_0)\n  dup1\n  dataOffset(sub_0)\n  0x00\n  codecopy\n  0x00\n  return\nstop\n\nsub_0: assembly {\n        /* \"lotto.sol\":595:5587  contract ACELotto is Ownable {   \r... */\n      mstore(0x40, 0x80)\n      callvalue\n      dup1\n      iszero\n      tag_1\n      jumpi\n      0x00\n      dup1\n      revert\n    tag_1:\n      pop\n      jumpi(tag_2, lt(calldatasize, 0x04))\n      shr(0xe0, calldataload(0x00))\n      dup1\n      0x8da5cb5b\n      gt\n      tag_25\n      jumpi\n      dup1\n      0xb657dd65\n      gt\n      tag_26\n      jumpi\n      dup1\n      0xb657dd65\n      eq\n      tag_19\n      jumpi\n      dup1\n      0xbc15cdf0\n      eq\n      tag_20\n      jumpi\n      dup1\n      0xc4740a95\n      eq\n      tag_21\n      jumpi\n      dup1\n      0xf2fde38b\n      eq\n      tag_22\n      jumpi\n      dup1\n      0xf737d21d\n      eq\n      tag_23\n      jumpi\n      dup1\n      0xf9cee0bd\n      eq\n      tag_24\n      jumpi\n      jump(tag_2)\n    tag_26:\n      dup1\n      0x8da5cb5b\n      eq\n      tag_14\n      jumpi\n      dup1\n      0x9b3e4552\n      eq\n      tag_15\n      jumpi\n      dup1\n      0x9f10a990\n      eq\n      tag_16\n      jumpi\n      dup1\n      0xa59460dc\n      eq\n      tag_17\n      jumpi\n      dup1\n      0xac128f4f\n      eq\n      tag_18\n      jumpi\n      jump(tag_2)\n    tag_25:\n      dup1\n      0x454f7b8f\n      gt\n      tag_27\n      jumpi\n      dup1\n      0x454f7b8f\n      eq\n      tag_8\n      jumpi\n      dup1\n      0x484f4ea9\n      eq\n      tag_9\n      jumpi\n      dup1\n      0x5bedc390\n      eq\n      tag_10\n      jumpi\n      dup1\n      0x6fbb5a86\n      eq\n      tag_11\n      jumpi\n      dup1\n      0x715018a6\n      eq\n      tag_12\n      jumpi\n      dup1\n      0x76636d20\n      eq\n      tag_13\n      jumpi\n      jump(tag_2)\n    tag_27:\n      dup1\n      0x0d988270\n      eq\n      tag_3\n      jumpi\n      dup1\n      0x119b22b3\n      eq\n      tag_4\n      jumpi\n      dup1\n      0x158977de\n      eq\n      tag_5\n      jumpi\n      dup1\n      0x3b98bc65\n      eq\n      tag_6\n      jumpi\n      dup1\n      0x443b80a1\n      eq\n      tag_7\n      jumpi\n    tag_2:\n      0x00\n      dup1\n      revert\n        /* \"lotto.sol\":1188:1237  mapping(address => uint256[]) public entriesIndex */\n    tag_3:\n      tag_28\n      0x04\n      dup1\n      calldatasize\n      sub\n      dup2\n      add\n      swap1\n      tag_29\n      swap2\n      swap1\n      tag_30\n      jump\t// in\n    tag_29:\n      tag_31\n      jump\t// in\n    tag_28:\n      mload(0x40)\n      tag_32\n      swap2\n      swap1\n      tag_33\n      jump\t// in\n    tag_32:\n      mload(0x40)\n      dup1\n      swap2\n      sub\n      swap1\n      return\n        /* \"lotto.sol\":668:691  uint256 public roundNum */\n    tag_4:\n      tag_34\n      tag_35\n      jump\t// in\n    tag_34:\n      mload(0x40)\n      tag_36\n      swap2\n      swap1\n      tag_33\n      jump\t// in\n    tag_36:\n      mload(0x40)\n      dup1\n      swap2\n      sub\n      swap1\n      return\n        /* \"lotto.sol\":4268:4548  function getUniqueUsers() public view returns (uint256 counter) {\r... */\n    tag_5:\n      tag_37\n      tag_38\n      jump\t// in\n    tag_37:\n      mload(0x40)\n      tag_39\n      swap2\n      swap1\n      tag_33\n      jump\t// in\n    tag_39:\n      mload(0x40)\n      dup1\n      swap2\n      sub\n      swap1\n      return\n        /* \"lotto.sol\":4556:5159  function getUniqueAddresses() public view returns (address [] memory addresses, uint256 [] memory entries) {\r... */\n    tag_6:\n      tag_40\n      tag_41\n      jump\t// in\n    tag_40:\n      mload(0x40)\n      tag_42\n      swap3\n      swap2\n      swap1\n      tag_43\n      jump\t// in\n    tag_42:\n      mload(0x40)\n      dup1\n      swap2\n      sub\n      swap1\n      return\n        /* \"lotto.sol\":1472:1744  function updateAccount(address account, uint256 amount) external{\r... */\n    tag_7:\n      tag_44\n      0x04\n      dup1\n      calldatasize\n      sub\n      dup2\n      add\n      swap1\n      tag_45\n      swap2\n      swap1\n      tag_30\n      jump\t// in\n    tag_45:\n      tag_46\n      jump\t// in\n    tag_44:\n      stop\n        /* \"lotto.sol\":698:724  uint256 public totalPayout */\n    tag_8:\n      tag_47\n      tag_48\n      jump\t// in\n    tag_47:\n      mload(0x40)\n      tag_49\n      swap2\n      swap1\n      tag_33\n      jump\t// in\n    tag_49:\n      mload(0x40)\n      dup1\n      swap2\n      sub\n      swap1\n      return\n        /* \"lotto.sol\":820:891  IERC20 public BUSD = IERC20(0xe9e7CEA3DedcA5984780Bafc599bD69ADd087D56) */\n    tag_9:\n      tag_50\n      tag_51\n      jump\t// in\n    tag_50:\n      mload(0x40)\n      tag_52\n      swap2\n      swap1\n      tag_53\n      jump\t// in\n    tag_52:\n      mload(0x40)\n      dup1\n      swap2\n      sub\n      swap1\n      return\n        /* \"lotto.sol\":2515:2684  function isActiveAccount(address account) external view returns(bool){\r... */\n    tag_10:\n      tag_54\n      0x04\n      dup1\n      calldatasize\n      sub\n      dup2\n      add\n      swap1\n      tag_55\n      swap2\n      swap1\n      tag_56\n      jump\t// in\n    tag_55:\n      tag_57\n      jump\t// in\n    tag_54:\n      mload(0x40)\n      tag_58\n      swap2\n      swap1\n      tag_59\n      jump\t// in\n    tag_58:\n      mload(0x40)\n      dup1\n      swap2\n      sub\n      swap1\n      return\n        /* \"lotto.sol\":2904:3408  function updateWinner(uint256 winnerNum, uint256 payout) external onlyOwner {      \r... */\n    tag_11:\n      tag_60\n      0x04\n      dup1\n      calldatasize\n      sub\n      dup2\n      add\n      swap1\n      tag_61\n      swap2\n      swap1\n      tag_62\n      jump\t// in\n    tag_61:\n      tag_63\n      jump\t// in\n    tag_60:\n      stop\n        /* \"https://github.com/OpenZeppelin/openzeppelin-contracts/blob/master/contracts/access/Ownable.sol\":1668:1769  function renounceOwnership() public virtual onlyOwner {... */\n    tag_12:\n      tag_64\n      tag_65\n      jump\t// in\n    tag_64:\n      stop\n        /* \"lotto.sol\":634:661  uint256 public roundEntries */\n    tag_13:\n      tag_66\n      tag_67\n      jump\t// in\n    tag_66:\n      mload(0x40)\n      tag_68\n      swap2\n      swap1\n      tag_33\n      jump\t// in\n    tag_68:\n      mload(0x40)\n      dup1\n      swap2\n      sub\n      swap1\n      return\n        /* \"https://github.com/OpenZeppelin/openzeppelin-contracts/blob/master/contracts/access/Ownable.sol\":1036:1121  function owner() public view virtual returns (address) {... */\n    tag_14:\n      tag_69\n      tag_70\n      jump\t// in\n    tag_69:\n      mload(0x40)\n      tag_71\n      swap2\n      swap1\n      tag_72\n      jump\t// in\n    tag_71:\n      mload(0x40)\n      dup1\n      swap2\n      sub\n      swap1\n      return\n        /* \"lotto.sol\":737:813  IERC20 public acesToken = IERC20(0x1702e76a5be119E332805dC7C11Be26f3857c31d) */\n    tag_15:\n      tag_73\n      tag_74\n      jump\t// in\n    tag_73:\n      mload(0x40)\n      tag_75\n      swap2\n      swap1\n      tag_53\n      jump\t// in\n    tag_75:\n      mload(0x40)\n      dup1\n      swap2\n      sub\n      swap1\n      return\n        /* \"lotto.sol\":3540:3662  function userEntries(address account) public view returns (uint256) {\r... */\n    tag_16:\n      tag_76\n      0x04\n      dup1\n      calldatasize\n      sub\n      dup2\n      add\n      swap1\n      tag_77\n      swap2\n      swap1\n      tag_56\n      jump\t// in\n    tag_77:\n      tag_78\n      jump\t// in\n    tag_76:\n      mload(0x40)\n      tag_79\n      swap2\n      swap1\n      tag_33\n      jump\t// in\n    tag_79:\n      mload(0x40)\n      dup1\n      swap2\n      sub\n      swap1\n      return\n        /* \"lotto.sol\":1752:2330  function removeEntryFromWallet(address account, uint256 amount) public {\r... */\n    tag_17:\n      tag_80\n      0x04\n      dup1\n      calldatasize\n      sub\n      dup2\n      add\n      swap1\n      tag_81\n      swap2\n      swap1\n      tag_30\n      jump\t// in\n    tag_81:\n      tag_82\n      jump\t// in\n    tag_80:\n      stop\n        /* \"lotto.sol\":1082:1129  mapping(uint256 => Results) public roundResults */\n    tag_18:\n      tag_83\n      0x04\n      dup1\n      calldatasize\n      sub\n      dup2\n      add\n      swap1\n      tag_84\n      swap2\n      swap1\n      tag_85\n      jump\t// in\n    tag_84:\n      tag_86\n      jump\t// in\n    tag_83:\n      mload(0x40)\n      tag_87\n      swap6\n      swap5\n      swap4\n      swap3\n      swap2\n      swap1\n      tag_88\n      jump\t// in\n    tag_87:\n      mload(0x40)\n      dup1\n      swap2\n      sub\n      swap1\n      return\n        /* \"lotto.sol\":1136:1181  mapping(uint256 => address) public roundEntry */\n    tag_19:\n      tag_89\n      0x04\n      dup1\n      calldatasize\n      sub\n      dup2\n      add\n      swap1\n      tag_90\n      swap2\n      swap1\n      tag_85\n      jump\t// in\n    tag_90:\n      tag_91\n      jump\t// in\n    tag_89:\n      mload(0x40)\n      tag_92\n      swap2\n      swap1\n      tag_72\n      jump\t// in\n    tag_92:\n      mload(0x40)\n      dup1\n      swap2\n      sub\n      swap1\n      return\n        /* \"lotto.sol\":3670:4260  function resultLog(uint256 startIndex, uint256 endIndex) external view returns(Results [] memory log){\r... */\n    tag_20:\n      tag_93\n      0x04\n      dup1\n      calldatasize\n      sub\n      dup2\n      add\n      swap1\n      tag_94\n      swap2\n      swap1\n      tag_62\n      jump\t// in\n    tag_94:\n      tag_95\n      jump\t// in\n    tag_93:\n      mload(0x40)\n      tag_96\n      swap2\n      swap1\n      tag_97\n      jump\t// in\n    tag_96:\n      mload(0x40)\n      dup1\n      swap2\n      sub\n      swap1\n      return\n        /* \"lotto.sol\":2338:2507  function removeAccount(address account) external{\r... */\n    tag_21:\n      tag_98\n      0x04\n      dup1\n      calldatasize\n      sub\n      dup2\n      add\n      swap1\n      tag_99\n      swap2\n      swap1\n      tag_56\n      jump\t// in\n    tag_99:\n      tag_100\n      jump\t// in\n    tag_98:\n      stop\n        /* \"https://github.com/OpenZeppelin/openzeppelin-contracts/blob/master/contracts/access/Ownable.sol\":1918:2116  function transferOwnership(address newOwner) public virtual onlyOwner {... */\n    tag_22:\n      tag_101\n      0x04\n      dup1\n      calldatasize\n      sub\n      dup2\n      add\n      swap1\n      tag_102\n      swap2\n      swap1\n      tag_56\n      jump\t// in\n    tag_102:\n      tag_103\n      jump\t// in\n    tag_101:\n      stop\n        /* \"lotto.sol\":2692:2896  function pickWinner(uint256 seed) external view returns(uint256 winnerNum, address winnerAddress) {\r... */\n    tag_23:\n      tag_104\n      0x04\n      dup1\n      calldatasize\n      sub\n      dup2\n      add\n      swap1\n      tag_105\n      swap2\n      swap1\n      tag_85\n      jump\t// in\n    tag_105:\n      tag_106\n      jump\t// in\n    tag_104:\n      mload(0x40)\n      tag_107\n      swap3\n      swap2\n      swap1\n      tag_108\n      jump\t// in\n    tag_107:\n      mload(0x40)\n      dup1\n      swap2\n      sub\n      swap1\n      return\n        /* \"lotto.sol\":3416:3532  function currentJackpot() public view returns (uint256) {\r... */\n    tag_24:\n      tag_109\n      tag_110\n      jump\t// in\n    tag_109:\n      mload(0x40)\n      tag_111\n      swap2\n      swap1\n      tag_33\n      jump\t// in\n    tag_111:\n      mload(0x40)\n      dup1\n      swap2\n      sub\n      swap1\n      return\n        /* \"lotto.sol\":1188:1237  mapping(address => uint256[]) public entriesIndex */\n    tag_31:\n      mstore(0x20, 0x08)\n      dup2\n      0x00\n      mstore\n      keccak256(0x00, 0x40)\n      dup2\n      dup2\n      sload\n      dup2\n      lt\n      tag_112\n      jumpi\n      0x00\n      dup1\n      revert\n    tag_112:\n      swap1\n      0x00\n      mstore\n      keccak256(0x00, 0x20)\n      add\n      0x00\n      swap2\n      pop\n      swap2\n      pop\n      pop\n      sload\n      dup2\n      jump\t// out\n        /* \"lotto.sol\":668:691  uint256 public roundNum */\n    tag_35:\n      sload(0x02)\n      dup2\n      jump\t// out\n        /* \"lotto.sol\":4268:4548  function getUniqueUsers() public view returns (uint256 counter) {\r... */\n    tag_38:\n        /* \"lotto.sol\":4315:4330  uint256 counter */\n      0x00\n        /* \"lotto.sol\":4365:4374  uint256 i */\n      dup1\n        /* \"lotto.sol\":4361:4541  for(uint256 i; i < roundEntries; i++){\r... */\n    tag_115:\n        /* \"lotto.sol\":4380:4392  roundEntries */\n      sload(0x01)\n        /* \"lotto.sol\":4376:4377  i */\n      dup2\n        /* \"lotto.sol\":4376:4392  i < roundEntries */\n      lt\n        /* \"lotto.sol\":4361:4541  for(uint256 i; i < roundEntries; i++){\r... */\n      iszero\n      tag_116\n      jumpi\n        /* \"lotto.sol\":4413:4425  address user */\n      0x00\n        /* \"lotto.sol\":4428:4438  roundEntry */\n      0x07\n        /* \"lotto.sol\":4428:4441  roundEntry[i] */\n      0x00\n        /* \"lotto.sol\":4439:4440  i */\n      dup4\n        /* \"lotto.sol\":4428:4441  roundEntry[i] */\n      dup2\n      mstore\n      0x20\n      add\n      swap1\n      dup2\n      mstore\n      0x20\n      add\n      0x00\n      keccak256\n      0x00\n      swap1\n      sload\n      swap1\n      0x0100\n      exp\n      swap1\n      div\n      0xffffffffffffffffffffffffffffffffffffffff\n      and\n        /* \"lotto.sol\":4413:4441  address user = roundEntry[i] */\n      swap1\n      pop\n        /* \"lotto.sol\":4464:4476  entriesIndex */\n      0x08\n        /* \"lotto.sol\":4464:4482  entriesIndex[user] */\n      0x00\n        /* \"lotto.sol\":4477:4481  user */\n      dup3\n        /* \"lotto.sol\":4464:4482  entriesIndex[user] */\n      0xffffffffffffffffffffffffffffffffffffffff\n      and\n      0xffffffffffffffffffffffffffffffffffffffff\n      and\n      dup2\n      mstore\n      0x20\n      add\n      swap1\n      dup2\n      mstore\n      0x20\n      add\n      0x00\n      keccak256\n        /* \"lotto.sol\":4483:4484  0 */\n      0x00\n        /* \"lotto.sol\":4464:4485  entriesIndex[user][0] */\n      dup2\n      sload\n      dup2\n      lt\n      tag_118\n      jumpi\n      tag_119\n      tag_120\n      jump\t// in\n    tag_119:\n    tag_118:\n      swap1\n      0x00\n      mstore\n      keccak256(0x00, 0x20)\n      add\n      sload\n        /* \"lotto.sol\":4459:4460  i */\n      dup3\n        /* \"lotto.sol\":4459:4485  i == entriesIndex[user][0] */\n      eq\n        /* \"lotto.sol\":4456:4530  if(i == entriesIndex[user][0]){\r... */\n      iszero\n      tag_122\n      jumpi\n        /* \"lotto.sol\":4505:4514  counter++ */\n      dup3\n      dup1\n      tag_123\n      swap1\n      tag_124\n      jump\t// in\n    tag_123:\n      swap4\n      pop\n      pop\n        /* \"lotto.sol\":4456:4530  if(i == entriesIndex[user][0]){\r... */\n    tag_122:\n        /* \"lotto.sol\":4398:4541  {\r... */\n      pop\n        /* \"lotto.sol\":4394:4397  i++ */\n      dup1\n      dup1\n      tag_125\n      swap1\n      tag_124\n      jump\t// in\n    tag_125:\n      swap2\n      pop\n      pop\n        /* \"lotto.sol\":4361:4541  for(uint256 i; i < roundEntries; i++){\r... */\n      jump(tag_115)\n    tag_116:\n      pop\n        /* \"lotto.sol\":4268:4548  function getUniqueUsers() public view returns (uint256 counter) {\r... */\n      swap1\n      jump\t// out\n        /* \"lotto.sol\":4556:5159  function getUniqueAddresses() public view returns (address [] memory addresses, uint256 [] memory entries) {\r... */\n    tag_41:\n        /* \"lotto.sol\":4607:4634  address [] memory addresses */\n      0x60\n        /* \"lotto.sol\":4636:4661  uint256 [] memory entries */\n      dup1\n        /* \"lotto.sol\":4674:4693  uint256 arrayLength */\n      0x00\n        /* \"lotto.sol\":4696:4712  getUniqueUsers() */\n      tag_127\n        /* \"lotto.sol\":4696:4710  getUniqueUsers */\n      tag_38\n        /* \"lotto.sol\":4696:4712  getUniqueUsers() */\n      jump\t// in\n    tag_127:\n        /* \"lotto.sol\":4674:4712  uint256 arrayLength = getUniqueUsers() */\n      swap1\n      pop\n        /* \"lotto.sol\":4749:4760  arrayLength */\n      dup1\n        /* \"lotto.sol\":4735:4761  new address[](arrayLength) */\n      0xffffffffffffffff\n      dup2\n      gt\n      iszero\n      tag_128\n      jumpi\n      tag_129\n      tag_130\n      jump\t// in\n    tag_129:\n    tag_128:\n      mload(0x40)\n      swap1\n      dup1\n      dup3\n      mstore\n      dup1\n      0x20\n      mul\n      0x20\n      add\n      dup3\n      add\n      0x40\n      mstore\n      dup1\n      iszero\n      tag_131\n      jumpi\n      dup2\n      0x20\n      add\n      0x20\n      dup3\n      mul\n      dup1\n      calldatasize\n      dup4\n      calldatacopy\n      dup1\n      dup3\n      add\n      swap2\n      pop\n      pop\n      swap1\n      pop\n    tag_131:\n      pop\n        /* \"lotto.sol\":4723:4761  addresses = new address[](arrayLength) */\n      swap3\n      pop\n        /* \"lotto.sol\":4796:4807  arrayLength */\n      dup1\n        /* \"lotto.sol\":4782:4808  new uint256[](arrayLength) */\n      0xffffffffffffffff\n      dup2\n      gt\n      iszero\n      tag_132\n      jumpi\n      tag_133\n      tag_130\n      jump\t// in\n    tag_133:\n    tag_132:\n      mload(0x40)\n      swap1\n      dup1\n      dup3\n      mstore\n      dup1\n      0x20\n      mul\n      0x20\n      add\n      dup3\n      add\n      0x40\n      mstore\n      dup1\n      iszero\n      tag_134\n      jumpi\n      dup2\n      0x20\n      add\n      0x20\n      dup3\n      mul\n      dup1\n      calldatasize\n      dup4\n      calldatacopy\n      dup1\n      dup3\n      add\n      swap2\n      pop\n      pop\n      swap1\n      pop\n    tag_134:\n      pop\n        /* \"lotto.sol\":4772:4808  entries = new uint256[](arrayLength) */\n      swap2\n      pop\n        /* \"lotto.sol\":4819:4839  uint256 currentIndex */\n      0x00\n        /* \"lotto.sol\":4854:4863  uint256 i */\n      dup1\n        /* \"lotto.sol\":4850:5152  for(uint256 i; i < roundEntries; i++){\r... */\n    tag_135:\n        /* \"lotto.sol\":4869:4881  roundEntries */\n      sload(0x01)\n        /* \"lotto.sol\":4865:4866  i */\n      dup2\n        /* \"lotto.sol\":4865:4881  i < roundEntries */\n      lt\n        /* \"lotto.sol\":4850:5152  for(uint256 i; i < roundEntries; i++){\r... */\n      iszero\n      tag_136\n      jumpi\n        /* \"lotto.sol\":4902:4914  address user */\n      0x00\n        /* \"lotto.sol\":4917:4927  roundEntry */\n      0x07\n        /* \"lotto.sol\":4917:4930  roundEntry[i] */\n      0x00\n        /* \"lotto.sol\":4928:4929  i */\n      dup4\n        /* \"lotto.sol\":4917:4930  roundEntry[i] */\n      dup2\n      mstore\n      0x20\n      add\n      swap1\n      dup2\n      mstore\n      0x20\n      add\n      0x00\n      keccak256\n      0x00\n      swap1\n      sload\n      swap1\n      0x0100\n      exp\n      swap1\n      div\n      0xffffffffffffffffffffffffffffffffffffffff\n      and\n        /* \"lotto.sol\":4902:4930  address user = roundEntry[i] */\n      swap1\n      pop\n        /* \"lotto.sol\":4953:4965  entriesIndex */\n      0x08\n        /* \"lotto.sol\":4953:4971  entriesIndex[user] */\n      0x00\n        /* \"lotto.sol\":4966:4970  user */\n      dup3\n        /* \"lotto.sol\":4953:4971  entriesIndex[user] */\n      0xffffffffffffffffffffffffffffffffffffffff\n      and\n      0xffffffffffffffffffffffffffffffffffffffff\n      and\n      dup2\n      mstore\n      0x20\n      add\n      swap1\n      dup2\n      mstore\n      0x20\n      add\n      0x00\n      keccak256\n        /* \"lotto.sol\":4972:4973  0 */\n      0x00\n        /* \"lotto.sol\":4953:4974  entriesIndex[user][0] */\n      dup2\n      sload\n      dup2\n      lt\n      tag_138\n      jumpi\n      tag_139\n      tag_120\n      jump\t// in\n    tag_139:\n    tag_138:\n      swap1\n      0x00\n      mstore\n      keccak256(0x00, 0x20)\n      add\n      sload\n        /* \"lotto.sol\":4948:4949  i */\n      dup3\n        /* \"lotto.sol\":4948:4974  i == entriesIndex[user][0] */\n      eq\n        /* \"lotto.sol\":4945:5141  if(i == entriesIndex[user][0]){\r... */\n      iszero\n      tag_141\n      jumpi\n        /* \"lotto.sol\":5020:5024  user */\n      dup1\n        /* \"lotto.sol\":4994:5003  addresses */\n      dup7\n        /* \"lotto.sol\":5004:5016  currentIndex */\n      dup5\n        /* \"lotto.sol\":4994:5017  addresses[currentIndex] */\n      dup2\n      mload\n      dup2\n      lt\n      tag_142\n      jumpi\n      tag_143\n      tag_120\n      jump\t// in\n    tag_143:\n    tag_142:\n      0x20\n      mul\n      0x20\n      add\n      add\n        /* \"lotto.sol\":4994:5024  addresses[currentIndex] = user */\n      swap1\n      0xffffffffffffffffffffffffffffffffffffffff\n      and\n      swap1\n      dup2\n      0xffffffffffffffffffffffffffffffffffffffff\n      and\n      dup2\n      mstore\n      pop\n      pop\n        /* \"lotto.sol\":5067:5079  entriesIndex */\n      0x08\n        /* \"lotto.sol\":5067:5085  entriesIndex[user] */\n      0x00\n        /* \"lotto.sol\":5080:5084  user */\n      dup3\n        /* \"lotto.sol\":5067:5085  entriesIndex[user] */\n      0xffffffffffffffffffffffffffffffffffffffff\n      and\n      0xffffffffffffffffffffffffffffffffffffffff\n      and\n      dup2\n      mstore\n      0x20\n      add\n      swap1\n      dup2\n      mstore\n      0x20\n      add\n      0x00\n      keccak256\n        /* \"lotto.sol\":5067:5092  entriesIndex[user].length */\n      dup1\n      sload\n      swap1\n      pop\n        /* \"lotto.sol\":5043:5050  entries */\n      dup6\n        /* \"lotto.sol\":5051:5063  currentIndex */\n      dup5\n        /* \"lotto.sol\":5043:5064  entries[currentIndex] */\n      dup2\n      mload\n      dup2\n      lt\n      tag_144\n      jumpi\n      tag_145\n      tag_120\n      jump\t// in\n    tag_145:\n    tag_144:\n      0x20\n      mul\n      0x20\n      add\n      add\n        /* \"lotto.sol\":5043:5092  entries[currentIndex] = entriesIndex[user].length */\n      dup2\n      dup2\n      mstore\n      pop\n      pop\n        /* \"lotto.sol\":5111:5125  currentIndex++ */\n      dup3\n      dup1\n      tag_146\n      swap1\n      tag_124\n      jump\t// in\n    tag_146:\n      swap4\n      pop\n      pop\n        /* \"lotto.sol\":4945:5141  if(i == entriesIndex[user][0]){\r... */\n    tag_141:\n        /* \"lotto.sol\":4887:5152  {\r... */\n      pop\n        /* \"lotto.sol\":4883:4886  i++ */\n      dup1\n      dup1\n      tag_147\n      swap1\n      tag_124\n      jump\t// in\n    tag_147:\n      swap2\n      pop\n      pop\n        /* \"lotto.sol\":4850:5152  for(uint256 i; i < roundEntries; i++){\r... */\n      jump(tag_135)\n    tag_136:\n      pop\n        /* \"lotto.sol\":4663:5159  {\r... */\n      pop\n      pop\n        /* \"lotto.sol\":4556:5159  function getUniqueAddresses() public view returns (address [] memory addresses, uint256 [] memory entries) {\r... */\n      swap1\n      swap2\n      jump\t// out\n        /* \"lotto.sol\":1472:1744  function updateAccount(address account, uint256 amount) external{\r... */\n    tag_46:\n        /* \"lotto.sol\":1551:1560  uint256 i */\n      0x00\n        /* \"lotto.sol\":1547:1702  for(uint256 i; i < amount; i++){\r... */\n    tag_149:\n        /* \"lotto.sol\":1566:1572  amount */\n      dup2\n        /* \"lotto.sol\":1562:1563  i */\n      dup2\n        /* \"lotto.sol\":1562:1572  i < amount */\n      lt\n        /* \"lotto.sol\":1547:1702  for(uint256 i; i < amount; i++){\r... */\n      iszero\n      tag_150\n      jumpi\n        /* \"lotto.sol\":1624:1631  account */\n      dup3\n        /* \"lotto.sol\":1593:1603  roundEntry */\n      0x07\n        /* \"lotto.sol\":1593:1621  roundEntry[roundEntries + i] */\n      0x00\n        /* \"lotto.sol\":1619:1620  i */\n      dup4\n        /* \"lotto.sol\":1604:1616  roundEntries */\n      sload(0x01)\n        /* \"lotto.sol\":1604:1620  roundEntries + i */\n      tag_152\n      swap2\n      swap1\n      tag_153\n      jump\t// in\n    tag_152:\n        /* \"lotto.sol\":1593:1621  roundEntry[roundEntries + i] */\n      dup2\n      mstore\n      0x20\n      add\n      swap1\n      dup2\n      mstore\n      0x20\n      add\n      0x00\n      keccak256\n      0x00\n        /* \"lotto.sol\":1593:1631  roundEntry[roundEntries + i] = account */\n      0x0100\n      exp\n      dup2\n      sload\n      dup2\n      0xffffffffffffffffffffffffffffffffffffffff\n      mul\n      not\n      and\n      swap1\n      dup4\n      0xffffffffffffffffffffffffffffffffffffffff\n      and\n      mul\n      or\n      swap1\n      sstore\n      pop\n        /* \"lotto.sol\":1646:1658  entriesIndex */\n      0x08\n        /* \"lotto.sol\":1646:1667  entriesIndex[account] */\n      0x00\n        /* \"lotto.sol\":1659:1666  account */\n      dup5\n        /* \"lotto.sol\":1646:1667  entriesIndex[account] */\n      0xffffffffffffffffffffffffffffffffffffffff\n      and\n      0xffffffffffffffffffffffffffffffffffffffff\n      and\n      dup2\n      mstore\n      0x20\n      add\n      swap1\n      dup2\n      mstore\n      0x20\n      add\n      0x00\n      keccak256\n        /* \"lotto.sol\":1688:1689  i */\n      dup2\n        /* \"lotto.sol\":1673:1685  roundEntries */\n      sload(0x01)\n        /* \"lotto.sol\":1673:1689  roundEntries + i */\n      tag_154\n      swap2\n      swap1\n      tag_153\n      jump\t// in\n    tag_154:\n        /* \"lotto.sol\":1646:1690  entriesIndex[account].push(roundEntries + i) */\n      swap1\n      dup1\n      0x01\n      dup2\n      sload\n      add\n      dup1\n      dup3\n      sstore\n      dup1\n      swap2\n      pop\n      pop\n      0x01\n      swap1\n      sub\n      swap1\n      0x00\n      mstore\n      keccak256(0x00, 0x20)\n      add\n      0x00\n      swap1\n      swap2\n      swap1\n      swap2\n      swap1\n      swap2\n      pop\n      sstore\n        /* \"lotto.sol\":1574:1577  i++ */\n      dup1\n      dup1\n      tag_156\n      swap1\n      tag_124\n      jump\t// in\n    tag_156:\n      swap2\n      pop\n      pop\n        /* \"lotto.sol\":1547:1702  for(uint256 i; i < amount; i++){\r... */\n      jump(tag_149)\n    tag_150:\n      pop\n        /* \"lotto.sol\":1730:1736  amount */\n      dup1\n        /* \"lotto.sol\":1714:1726  roundEntries */\n      0x01\n      0x00\n        /* \"lotto.sol\":1714:1736  roundEntries += amount */\n      dup3\n      dup3\n      sload\n      tag_157\n      swap2\n      swap1\n      tag_153\n      jump\t// in\n    tag_157:\n      swap3\n      pop\n      pop\n      dup2\n      swap1\n      sstore\n      pop\n        /* \"lotto.sol\":1472:1744  function updateAccount(address account, uint256 amount) external{\r... */\n      pop\n      pop\n      jump\t// out\n        /* \"lotto.sol\":698:724  uint256 public totalPayout */\n    tag_48:\n      sload(0x03)\n      dup2\n      jump\t// out\n        /* \"lotto.sol\":820:891  IERC20 public BUSD = IERC20(0xe9e7CEA3DedcA5984780Bafc599bD69ADd087D56) */\n    tag_51:\n      0x05\n      0x00\n      swap1\n      sload\n      swap1\n      0x0100\n      exp\n      swap1\n      div\n      0xffffffffffffffffffffffffffffffffffffffff\n      and\n      dup2\n      jump\t// out\n        /* \"lotto.sol\":2515:2684  function isActiveAccount(address account) external view returns(bool){\r... */\n    tag_57:\n        /* \"lotto.sol\":2579:2583  bool */\n      0x00\n        /* \"lotto.sol\":2595:2617  uint256 currentEntries */\n      dup1\n        /* \"lotto.sol\":2620:2640  userEntries(account) */\n      tag_159\n        /* \"lotto.sol\":2632:2639  account */\n      dup4\n        /* \"lotto.sol\":2620:2631  userEntries */\n      tag_78\n        /* \"lotto.sol\":2620:2640  userEntries(account) */\n      jump\t// in\n    tag_159:\n        /* \"lotto.sol\":2595:2640  uint256 currentEntries = userEntries(account) */\n      swap1\n      pop\n        /* \"lotto.sol\":2675:2676  0 */\n      0x00\n        /* \"lotto.sol\":2658:2672  currentEntries */\n      dup2\n        /* \"lotto.sol\":2658:2676  currentEntries > 0 */\n      gt\n        /* \"lotto.sol\":2651:2676  return currentEntries > 0 */\n      swap2\n      pop\n      pop\n        /* \"lotto.sol\":2515:2684  function isActiveAccount(address account) external view returns(bool){\r... */\n      swap2\n      swap1\n      pop\n      jump\t// out\n        /* \"lotto.sol\":2904:3408  function updateWinner(uint256 winnerNum, uint256 payout) external onlyOwner {      \r... */\n    tag_63:\n        /* \"https://github.com/OpenZeppelin/openzeppelin-contracts/blob/master/contracts/access/Ownable.sol\":1259:1271  _msgSender() */\n      tag_161\n        /* \"https://github.com/OpenZeppelin/openzeppelin-contracts/blob/master/contracts/access/Ownable.sol\":1259:1269  _msgSender */\n      tag_162\n        /* \"https://github.com/OpenZeppelin/openzeppelin-contracts/blob/master/contracts/access/Ownable.sol\":1259:1271  _msgSender() */\n      jump\t// in\n    tag_161:\n        /* \"https://github.com/OpenZeppelin/openzeppelin-contracts/blob/master/contracts/access/Ownable.sol\":1248:1271  owner() == _msgSender() */\n      0xffffffffffffffffffffffffffffffffffffffff\n      and\n        /* \"https://github.com/OpenZeppelin/openzeppelin-contracts/blob/master/contracts/access/Ownable.sol\":1248:1255  owner() */\n      tag_163\n        /* \"https://github.com/OpenZeppelin/openzeppelin-contracts/blob/master/contracts/access/Ownable.sol\":1248:1253  owner */\n      tag_70\n        /* \"https://github.com/OpenZeppelin/openzeppelin-contracts/blob/master/contracts/access/Ownable.sol\":1248:1255  owner() */\n      jump\t// in\n    tag_163:\n        /* \"https://github.com/OpenZeppelin/openzeppelin-contracts/blob/master/contracts/access/Ownable.sol\":1248:1271  owner() == _msgSender() */\n      0xffffffffffffffffffffffffffffffffffffffff\n      and\n      eq\n        /* \"https://github.com/OpenZeppelin/openzeppelin-contracts/blob/master/contracts/access/Ownable.sol\":1240:1308  require(owner() == _msgSender(), \"Ownable: caller is not the owner\") */\n      tag_164\n      jumpi\n      mload(0x40)\n      0x08c379a000000000000000000000000000000000000000000000000000000000\n      dup2\n      mstore\n      0x04\n      add\n      tag_165\n      swap1\n      tag_166\n      jump\t// in\n    tag_165:\n      mload(0x40)\n      dup1\n      swap2\n      sub\n      swap1\n      revert\n    tag_164:\n        /* \"lotto.sol\":2997:3018  address winnerAddress */\n      0x00\n        /* \"lotto.sol\":3021:3031  roundEntry */\n      0x07\n        /* \"lotto.sol\":3021:3042  roundEntry[winnerNum] */\n      0x00\n        /* \"lotto.sol\":3032:3041  winnerNum */\n      dup5\n        /* \"lotto.sol\":3021:3042  roundEntry[winnerNum] */\n      dup2\n      mstore\n      0x20\n      add\n      swap1\n      dup2\n      mstore\n      0x20\n      add\n      0x00\n      keccak256\n      0x00\n      swap1\n      sload\n      swap1\n      0x0100\n      exp\n      swap1\n      div\n      0xffffffffffffffffffffffffffffffffffffffff\n      and\n        /* \"lotto.sol\":2997:3042  address winnerAddress = roundEntry[winnerNum] */\n      swap1\n      pop\n        /* \"lotto.sol\":3080:3294  Results ({\r... */\n      mload(0x40)\n      dup1\n      0xa0\n      add\n      0x40\n      mstore\n      dup1\n        /* \"lotto.sol\":3118:3130  roundEntries */\n      sload(0x01)\n        /* \"lotto.sol\":3080:3294  Results ({\r... */\n      dup2\n      mstore\n      0x20\n      add\n        /* \"lotto.sol\":3160:3169  winnerNum */\n      dup5\n        /* \"lotto.sol\":3080:3294  Results ({\r... */\n      dup2\n      mstore\n      0x20\n      add\n        /* \"lotto.sol\":3192:3198  payout */\n      dup4\n        /* \"lotto.sol\":3080:3294  Results ({\r... */\n      dup2\n      mstore\n      0x20\n      add\n        /* \"lotto.sol\":3222:3237  block.timestamp */\n      timestamp\n        /* \"lotto.sol\":3080:3294  Results ({\r... */\n      dup2\n      mstore\n      0x20\n      add\n        /* \"lotto.sol\":3268:3281  winnerAddress */\n      dup3\n        /* \"lotto.sol\":3080:3294  Results ({\r... */\n      0xffffffffffffffffffffffffffffffffffffffff\n      and\n      dup2\n      mstore\n      pop\n        /* \"lotto.sol\":3055:3067  roundResults */\n      0x06\n        /* \"lotto.sol\":3055:3077  roundResults[roundNum] */\n      0x00\n        /* \"lotto.sol\":3068:3076  roundNum */\n      sload(0x02)\n        /* \"lotto.sol\":3055:3077  roundResults[roundNum] */\n      dup2\n      mstore\n      0x20\n      add\n      swap1\n      dup2\n      mstore\n      0x20\n      add\n      0x00\n      keccak256\n        /* \"lotto.sol\":3055:3294  roundResults[roundNum] = Results ({\r... */\n      0x00\n      dup3\n      add\n      mload\n      dup2\n      0x00\n      add\n      sstore\n      0x20\n      dup3\n      add\n      mload\n      dup2\n      0x01\n      add\n      sstore\n      0x40\n      dup3\n      add\n      mload\n      dup2\n      0x02\n      add\n      sstore\n      0x60\n      dup3\n      add\n      mload\n      dup2\n      0x03\n      add\n      sstore\n      0x80\n      dup3\n      add\n      mload\n      dup2\n      0x04\n      add\n      exp(0x0100, 0x00)\n      dup2\n      sload\n      dup2\n      0xffffffffffffffffffffffffffffffffffffffff\n      mul\n      not\n      and\n      swap1\n      dup4\n      0xffffffffffffffffffffffffffffffffffffffff\n      and\n      mul\n      or\n      swap1\n      sstore\n      pop\n      swap1\n      pop\n      pop\n        /* \"lotto.sol\":3322:3328  payout */\n      dup2\n        /* \"lotto.sol\":3307:3318  totalPayout */\n      0x03\n      0x00\n        /* \"lotto.sol\":3307:3328  totalPayout += payout */\n      dup3\n      dup3\n      sload\n      tag_168\n      swap2\n      swap1\n      tag_153\n      jump\t// in\n    tag_168:\n      swap3\n      pop\n      pop\n      dup2\n      swap1\n      sstore\n      pop\n        /* \"lotto.sol\":3339:3347  roundNum */\n      0x02\n      0x00\n        /* \"lotto.sol\":3339:3349  roundNum++ */\n      dup2\n      sload\n      dup1\n      swap3\n      swap2\n      swap1\n      tag_169\n      swap1\n      tag_124\n      jump\t// in\n    tag_169:\n      swap2\n      swap1\n      pop\n      sstore\n      pop\n        /* \"lotto.sol\":3367:3400  LotteryWon(winnerAddress, payout) */\n      0x2e798dd4337e515c79b64c40e1a93baa1aefbd9180ac7905e02508edd7971e50\n        /* \"lotto.sol\":3378:3391  winnerAddress */\n      dup2\n        /* \"lotto.sol\":3393:3399  payout */\n      dup4\n        /* \"lotto.sol\":3367:3400  LotteryWon(winnerAddress, payout) */\n      mload(0x40)\n      tag_170\n      swap3\n      swap2\n      swap1\n      tag_171\n      jump\t// in\n    tag_170:\n      mload(0x40)\n      dup1\n      swap2\n      sub\n      swap1\n      log1\n        /* \"lotto.sol\":2980:3408  {      \r... */\n      pop\n        /* \"lotto.sol\":2904:3408  function updateWinner(uint256 winnerNum, uint256 payout) external onlyOwner {      \r... */\n      pop\n      pop\n      jump\t// out\n        /* \"https://github.com/OpenZeppelin/openzeppelin-contracts/blob/master/contracts/access/Ownable.sol\":1668:1769  function renounceOwnership() public virtual onlyOwner {... */\n    tag_65:\n        /* \"https://github.com/OpenZeppelin/openzeppelin-contracts/blob/master/contracts/access/Ownable.sol\":1259:1271  _msgSender() */\n      tag_173\n        /* \"https://github.com/OpenZeppelin/openzeppelin-contracts/blob/master/contracts/access/Ownable.sol\":1259:1269  _msgSender */\n      tag_162\n        /* \"https://github.com/OpenZeppelin/openzeppelin-contracts/blob/master/contracts/access/Ownable.sol\":1259:1271  _msgSender() */\n      jump\t// in\n    tag_173:\n        /* \"https://github.com/OpenZeppelin/openzeppelin-contracts/blob/master/contracts/access/Ownable.sol\":1248:1271  owner() == _msgSender() */\n      0xffffffffffffffffffffffffffffffffffffffff\n      and\n        /* \"https://github.com/OpenZeppelin/openzeppelin-contracts/blob/master/contracts/access/Ownable.sol\":1248:1255  owner() */\n      tag_174\n        /* \"https://github.com/OpenZeppelin/openzeppelin-contracts/blob/master/contracts/access/Ownable.sol\":1248:1253  owner */\n      tag_70\n        /* \"https://github.com/OpenZeppelin/openzeppelin-contracts/blob/master/contracts/access/Ownable.sol\":1248:1255  owner() */\n      jump\t// in\n    tag_174:\n        /* \"https://github.com/OpenZeppelin/openzeppelin-contracts/blob/master/contracts/access/Ownable.sol\":1248:1271  owner() == _msgSender() */\n      0xffffffffffffffffffffffffffffffffffffffff\n      and\n      eq\n        /* \"https://github.com/OpenZeppelin/openzeppelin-contracts/blob/master/contracts/access/Ownable.sol\":1240:1308  require(owner() == _msgSender(), \"Ownable: caller is not the owner\") */\n      tag_175\n      jumpi\n      mload(0x40)\n      0x08c379a000000000000000000000000000000000000000000000000000000000\n      dup2\n      mstore\n      0x04\n      add\n      tag_176\n      swap1\n      tag_166\n      jump\t// in\n    tag_176:\n      mload(0x40)\n      dup1\n      swap2\n      sub\n      swap1\n      revert\n    tag_175:\n        /* \"https://github.com/OpenZeppelin/openzeppelin-contracts/blob/master/contracts/access/Ownable.sol\":1732:1762  _transferOwnership(address(0)) */\n      tag_178\n        /* \"https://github.com/OpenZeppelin/openzeppelin-contracts/blob/master/contracts/access/Ownable.sol\":1759:1760  0 */\n      0x00\n        /* \"https://github.com/OpenZeppelin/openzeppelin-contracts/blob/master/contracts/access/Ownable.sol\":1732:1750  _transferOwnership */\n      tag_179\n        /* \"https://github.com/OpenZeppelin/openzeppelin-contracts/blob/master/contracts/access/Ownable.sol\":1732:1762  _transferOwnership(address(0)) */\n      jump\t// in\n    tag_178:\n        /* \"https://github.com/OpenZeppelin/openzeppelin-contracts/blob/master/contracts/access/Ownable.sol\":1668:1769  function renounceOwnership() public virtual onlyOwner {... */\n      jump\t// out\n        /* \"lotto.sol\":634:661  uint256 public roundEntries */\n    tag_67:\n      sload(0x01)\n      dup2\n      jump\t// out\n        /* \"https://github.com/OpenZeppelin/openzeppelin-contracts/blob/master/contracts/access/Ownable.sol\":1036:1121  function owner() public view virtual returns (address) {... */\n    tag_70:\n        /* \"https://github.com/OpenZeppelin/openzeppelin-contracts/blob/master/contracts/access/Ownable.sol\":1082:1089  address */\n      0x00\n        /* \"https://github.com/OpenZeppelin/openzeppelin-contracts/blob/master/contracts/access/Ownable.sol\":1108:1114  _owner */\n      dup1\n      0x00\n      swap1\n      sload\n      swap1\n      0x0100\n      exp\n      swap1\n      div\n      0xffffffffffffffffffffffffffffffffffffffff\n      and\n        /* \"https://github.com/OpenZeppelin/openzeppelin-contracts/blob/master/contracts/access/Ownable.sol\":1101:1114  return _owner */\n      swap1\n      pop\n        /* \"https://github.com/OpenZeppelin/openzeppelin-contracts/blob/master/contracts/access/Ownable.sol\":1036:1121  function owner() public view virtual returns (address) {... */\n      swap1\n      jump\t// out\n        /* \"lotto.sol\":737:813  IERC20 public acesToken = IERC20(0x1702e76a5be119E332805dC7C11Be26f3857c31d) */\n    tag_74:\n      0x04\n      0x00\n      swap1\n      sload\n      swap1\n      0x0100\n      exp\n      swap1\n      div\n      0xffffffffffffffffffffffffffffffffffffffff\n      and\n      dup2\n      jump\t// out\n        /* \"lotto.sol\":3540:3662  function userEntries(address account) public view returns (uint256) {\r... */\n    tag_78:\n        /* \"lotto.sol\":3599:3606  uint256 */\n      0x00\n        /* \"lotto.sol\":3626:3638  entriesIndex */\n      0x08\n        /* \"lotto.sol\":3626:3647  entriesIndex[account] */\n      0x00\n        /* \"lotto.sol\":3639:3646  account */\n      dup4\n        /* \"lotto.sol\":3626:3647  entriesIndex[account] */\n      0xffffffffffffffffffffffffffffffffffffffff\n      and\n      0xffffffffffffffffffffffffffffffffffffffff\n      and\n      dup2\n      mstore\n      0x20\n      add\n      swap1\n      dup2\n      mstore\n      0x20\n      add\n      0x00\n      keccak256\n        /* \"lotto.sol\":3626:3654  entriesIndex[account].length */\n      dup1\n      sload\n      swap1\n      pop\n        /* \"lotto.sol\":3619:3654  return entriesIndex[account].length */\n      swap1\n      pop\n        /* \"lotto.sol\":3540:3662  function userEntries(address account) public view returns (uint256) {\r... */\n      swap2\n      swap1\n      pop\n      jump\t// out\n        /* \"lotto.sol\":1752:2330  function removeEntryFromWallet(address account, uint256 amount) public {\r... */\n    tag_82:\n        /* \"lotto.sol\":1834:1856  uint256 currentEntries */\n      0x00\n        /* \"lotto.sol\":1859:1879  userEntries(account) */\n      tag_183\n        /* \"lotto.sol\":1871:1878  account */\n      dup4\n        /* \"lotto.sol\":1859:1870  userEntries */\n      tag_78\n        /* \"lotto.sol\":1859:1879  userEntries(account) */\n      jump\t// in\n    tag_183:\n        /* \"lotto.sol\":1834:1879  uint256 currentEntries = userEntries(account) */\n      swap1\n      pop\n        /* \"lotto.sol\":1911:1912  0 */\n      0x00\n        /* \"lotto.sol\":1893:1907  currentEntries */\n      dup2\n        /* \"lotto.sol\":1893:1912  currentEntries == 0 */\n      eq\n        /* \"lotto.sol\":1890:2029  if(currentEntries == 0){\r... */\n      iszero\n      tag_184\n      jumpi\n        /* \"lotto.sol\":1928:1935  return; */\n      pop\n      jump(tag_182)\n        /* \"lotto.sol\":1890:2029  if(currentEntries == 0){\r... */\n    tag_184:\n        /* \"lotto.sol\":1964:1978  currentEntries */\n      dup1\n        /* \"lotto.sol\":1955:1961  amount */\n      dup3\n        /* \"lotto.sol\":1955:1978  amount > currentEntries */\n      gt\n        /* \"lotto.sol\":1952:2029  if(amount > currentEntries){\r... */\n      iszero\n      tag_186\n      jumpi\n        /* \"lotto.sol\":2003:2017  currentEntries */\n      dup1\n        /* \"lotto.sol\":1994:2017  amount = currentEntries */\n      swap2\n      pop\n        /* \"lotto.sol\":1952:2029  if(amount > currentEntries){\r... */\n    tag_186:\n        /* \"lotto.sol\":2045:2054  uint256 i */\n      0x00\n        /* \"lotto.sol\":2057:2058  1 */\n      0x01\n        /* \"lotto.sol\":2045:2058  uint256 i = 1 */\n      swap1\n      pop\n        /* \"lotto.sol\":2041:2288  for(uint256 i = 1; i <= amount; i++){\r... */\n    tag_187:\n        /* \"lotto.sol\":2065:2071  amount */\n      dup3\n        /* \"lotto.sol\":2060:2061  i */\n      dup2\n        /* \"lotto.sol\":2060:2071  i <= amount */\n      gt\n        /* \"lotto.sol\":2041:2288  for(uint256 i = 1; i <= amount; i++){\r... */\n      tag_188\n      jumpi\n        /* \"lotto.sol\":2092:2109  uint256 lastIndex */\n      0x00\n        /* \"lotto.sol\":2112:2124  entriesIndex */\n      0x08\n        /* \"lotto.sol\":2112:2133  entriesIndex[account] */\n      0x00\n        /* \"lotto.sol\":2125:2132  account */\n      dup7\n        /* \"lotto.sol\":2112:2133  entriesIndex[account] */\n      0xffffffffffffffffffffffffffffffffffffffff\n      and\n      0xffffffffffffffffffffffffffffffffffffffff\n      and\n      dup2\n      mstore\n      0x20\n      add\n      swap1\n      dup2\n      mstore\n      0x20\n      add\n      0x00\n      keccak256\n        /* \"lotto.sol\":2165:2166  1 */\n      0x01\n        /* \"lotto.sol\":2134:2146  entriesIndex */\n      0x08\n        /* \"lotto.sol\":2134:2155  entriesIndex[account] */\n      0x00\n        /* \"lotto.sol\":2147:2154  account */\n      dup9\n        /* \"lotto.sol\":2134:2155  entriesIndex[account] */\n      0xffffffffffffffffffffffffffffffffffffffff\n      and\n      0xffffffffffffffffffffffffffffffffffffffff\n      and\n      dup2\n      mstore\n      0x20\n      add\n      swap1\n      dup2\n      mstore\n      0x20\n      add\n      0x00\n      keccak256\n        /* \"lotto.sol\":2134:2162  entriesIndex[account].length */\n      dup1\n      sload\n      swap1\n      pop\n        /* \"lotto.sol\":2134:2166  entriesIndex[account].length - 1 */\n      tag_190\n      swap2\n      swap1\n      tag_191\n      jump\t// in\n    tag_190:\n        /* \"lotto.sol\":2112:2167  entriesIndex[account][entriesIndex[account].length - 1] */\n      dup2\n      sload\n      dup2\n      lt\n      tag_192\n      jumpi\n      tag_193\n      tag_120\n      jump\t// in\n    tag_193:\n    tag_192:\n      swap1\n      0x00\n      mstore\n      keccak256(0x00, 0x20)\n      add\n      sload\n        /* \"lotto.sol\":2092:2167  uint256 lastIndex = entriesIndex[account][entriesIndex[account].length - 1] */\n      swap1\n      pop\n        /* \"lotto.sol\":2206:2216  roundEntry */\n      0x07\n        /* \"lotto.sol\":2206:2234  roundEntry[roundEntries - i] */\n      0x00\n        /* \"lotto.sol\":2232:2233  i */\n      dup4\n        /* \"lotto.sol\":2217:2229  roundEntries */\n      sload(0x01)\n        /* \"lotto.sol\":2217:2233  roundEntries - i */\n      tag_195\n      swap2\n      swap1\n      tag_191\n      jump\t// in\n    tag_195:\n        /* \"lotto.sol\":2206:2234  roundEntry[roundEntries - i] */\n      dup2\n      mstore\n      0x20\n      add\n      swap1\n      dup2\n      mstore\n      0x20\n      add\n      0x00\n      keccak256\n      0x00\n      swap1\n      sload\n      swap1\n      0x0100\n      exp\n      swap1\n      div\n      0xffffffffffffffffffffffffffffffffffffffff\n      and\n        /* \"lotto.sol\":2182:2192  roundEntry */\n      0x07\n        /* \"lotto.sol\":2182:2203  roundEntry[lastIndex] */\n      0x00\n        /* \"lotto.sol\":2193:2202  lastIndex */\n      dup4\n        /* \"lotto.sol\":2182:2203  roundEntry[lastIndex] */\n      dup2\n      mstore\n      0x20\n      add\n      swap1\n      dup2\n      mstore\n      0x20\n      add\n      0x00\n      keccak256\n      0x00\n        /* \"lotto.sol\":2182:2234  roundEntry[lastIndex] = roundEntry[roundEntries - i] */\n      0x0100\n      exp\n      dup2\n      sload\n      dup2\n      0xffffffffffffffffffffffffffffffffffffffff\n      mul\n      not\n      and\n      swap1\n      dup4\n      0xffffffffffffffffffffffffffffffffffffffff\n      and\n      mul\n      or\n      swap1\n      sstore\n      pop\n        /* \"lotto.sol\":2249:2261  entriesIndex */\n      0x08\n        /* \"lotto.sol\":2249:2270  entriesIndex[account] */\n      0x00\n        /* \"lotto.sol\":2262:2269  account */\n      dup7\n        /* \"lotto.sol\":2249:2270  entriesIndex[account] */\n      0xffffffffffffffffffffffffffffffffffffffff\n      and\n      0xffffffffffffffffffffffffffffffffffffffff\n      and\n      dup2\n      mstore\n      0x20\n      add\n      swap1\n      dup2\n      mstore\n      0x20\n      add\n      0x00\n      keccak256\n        /* \"lotto.sol\":2249:2276  entriesIndex[account].pop() */\n      dup1\n      sload\n      dup1\n      tag_196\n      jumpi\n      tag_197\n      tag_198\n      jump\t// in\n    tag_197:\n    tag_196:\n      0x01\n      swap1\n      sub\n      dup2\n      dup2\n      swap1\n      0x00\n      mstore\n      keccak256(0x00, 0x20)\n      add\n      0x00\n      swap1\n      sstore\n      swap1\n      sstore\n        /* \"lotto.sol\":2077:2288  {\r... */\n      pop\n        /* \"lotto.sol\":2073:2076  i++ */\n      dup1\n      dup1\n      tag_200\n      swap1\n      tag_124\n      jump\t// in\n    tag_200:\n      swap2\n      pop\n      pop\n        /* \"lotto.sol\":2041:2288  for(uint256 i = 1; i <= amount; i++){\r... */\n      jump(tag_187)\n    tag_188:\n      pop\n        /* \"lotto.sol\":2316:2322  amount */\n      dup2\n        /* \"lotto.sol\":2300:2312  roundEntries */\n      0x01\n      0x00\n        /* \"lotto.sol\":2300:2322  roundEntries -= amount */\n      dup3\n      dup3\n      sload\n      tag_201\n      swap2\n      swap1\n      tag_191\n      jump\t// in\n    tag_201:\n      swap3\n      pop\n      pop\n      dup2\n      swap1\n      sstore\n      pop\n        /* \"lotto.sol\":1823:2330  {\r... */\n      pop\n        /* \"lotto.sol\":1752:2330  function removeEntryFromWallet(address account, uint256 amount) public {\r... */\n    tag_182:\n      pop\n      pop\n      jump\t// out\n        /* \"lotto.sol\":1082:1129  mapping(uint256 => Results) public roundResults */\n    tag_86:\n      mstore(0x20, 0x06)\n      dup1\n      0x00\n      mstore\n      keccak256(0x00, 0x40)\n      0x00\n      swap2\n      pop\n      swap1\n      pop\n      dup1\n      0x00\n      add\n      sload\n      swap1\n      dup1\n      0x01\n      add\n      sload\n      swap1\n      dup1\n      0x02\n      add\n      sload\n      swap1\n      dup1\n      0x03\n      add\n      sload\n      swap1\n      dup1\n      0x04\n      add\n      0x00\n      swap1\n      sload\n      swap1\n      0x0100\n      exp\n      swap1\n      div\n      0xffffffffffffffffffffffffffffffffffffffff\n      and\n      swap1\n      pop\n      dup6\n      jump\t// out\n        /* \"lotto.sol\":1136:1181  mapping(uint256 => address) public roundEntry */\n    tag_91:\n      mstore(0x20, 0x07)\n      dup1\n      0x00\n      mstore\n      keccak256(0x00, 0x40)\n      0x00\n      swap2\n      pop\n      sload\n      swap1\n      0x0100\n      exp\n      swap1\n      div\n      0xffffffffffffffffffffffffffffffffffffffff\n      and\n      dup2\n      jump\t// out\n        /* \"lotto.sol\":3670:4260  function resultLog(uint256 startIndex, uint256 endIndex) external view returns(Results [] memory log){\r... */\n    tag_95:\n        /* \"lotto.sol\":3749:3770  Results [] memory log */\n      0x60\n        /* \"lotto.sol\":3797:3798  0 */\n      0x00\n        /* \"lotto.sol\":3785:3793  roundNum */\n      sload(0x02)\n        /* \"lotto.sol\":3785:3798  roundNum == 0 */\n      eq\n        /* \"lotto.sol\":3782:3855  if(roundNum == 0){\r... */\n      iszero\n      tag_203\n      jumpi\n        /* \"lotto.sol\":3841:3842  0 */\n      0x00\n        /* \"lotto.sol\":3827:3843  new Results[](0) */\n      0xffffffffffffffff\n      dup2\n      gt\n      iszero\n      tag_204\n      jumpi\n      tag_205\n      tag_130\n      jump\t// in\n    tag_205:\n    tag_204:\n      mload(0x40)\n      swap1\n      dup1\n      dup3\n      mstore\n      dup1\n      0x20\n      mul\n      0x20\n      add\n      dup3\n      add\n      0x40\n      mstore\n      dup1\n      iszero\n      tag_206\n      jumpi\n      dup2\n      0x20\n      add\n    tag_207:\n      tag_208\n      tag_209\n      jump\t// in\n    tag_208:\n      dup2\n      mstore\n      0x20\n      add\n      swap1\n      0x01\n      swap1\n      sub\n      swap1\n      dup2\n      tag_207\n      jumpi\n      swap1\n      pop\n    tag_206:\n      pop\n        /* \"lotto.sol\":3821:3843  log = new Results[](0) */\n      swap1\n      pop\n        /* \"lotto.sol\":3814:3843  return log = new Results[](0) */\n      jump(tag_202)\n        /* \"lotto.sol\":3782:3855  if(roundNum == 0){\r... */\n    tag_203:\n        /* \"lotto.sol\":3891:3899  roundNum */\n      sload(0x02)\n        /* \"lotto.sol\":3879:3887  endIndex */\n      dup3\n        /* \"lotto.sol\":3879:3899  endIndex >= roundNum */\n      lt\n        /* \"lotto.sol\":3875:3951  if (endIndex >= roundNum) {\r... */\n      tag_210\n      jumpi\n        /* \"lotto.sol\":3938:3939  1 */\n      0x01\n        /* \"lotto.sol\":3927:3935  roundNum */\n      sload(0x02)\n        /* \"lotto.sol\":3927:3939  roundNum - 1 */\n      tag_211\n      swap2\n      swap1\n      tag_191\n      jump\t// in\n    tag_211:\n        /* \"lotto.sol\":3916:3939  endIndex = roundNum - 1 */\n      swap2\n      pop\n        /* \"lotto.sol\":3875:3951  if (endIndex >= roundNum) {\r... */\n    tag_210:\n        /* \"lotto.sol\":3963:3982  uint256 arrayLength */\n      0x00\n        /* \"lotto.sol\":4009:4010  1 */\n      0x01\n        /* \"lotto.sol\":3996:4006  startIndex */\n      dup5\n        /* \"lotto.sol\":3985:3993  endIndex */\n      dup5\n        /* \"lotto.sol\":3985:4006  endIndex - startIndex */\n      tag_212\n      swap2\n      swap1\n      tag_191\n      jump\t// in\n    tag_212:\n        /* \"lotto.sol\":3985:4010  endIndex - startIndex + 1 */\n      tag_213\n      swap2\n      swap1\n      tag_153\n      jump\t// in\n    tag_213:\n        /* \"lotto.sol\":3963:4010  uint256 arrayLength = endIndex - startIndex + 1 */\n      swap1\n      pop\n        /* \"lotto.sol\":4021:4041  uint256 currentIndex */\n      0x00\n        /* \"lotto.sol\":4072:4083  arrayLength */\n      dup2\n        /* \"lotto.sol\":4058:4084  new Results[](arrayLength) */\n      0xffffffffffffffff\n      dup2\n      gt\n      iszero\n      tag_214\n      jumpi\n      tag_215\n      tag_130\n      jump\t// in\n    tag_215:\n    tag_214:\n      mload(0x40)\n      swap1\n      dup1\n      dup3\n      mstore\n      dup1\n      0x20\n      mul\n      0x20\n      add\n      dup3\n      add\n      0x40\n      mstore\n      dup1\n      iszero\n      tag_216\n      jumpi\n      dup2\n      0x20\n      add\n    tag_217:\n      tag_218\n      tag_209\n      jump\t// in\n    tag_218:\n      dup2\n      mstore\n      0x20\n      add\n      swap1\n      0x01\n      swap1\n      sub\n      swap1\n      dup2\n      tag_217\n      jumpi\n      swap1\n      pop\n    tag_216:\n      pop\n        /* \"lotto.sol\":4052:4084  log = new Results[](arrayLength) */\n      swap3\n      pop\n        /* \"lotto.sol\":4105:4114  uint256 i */\n      0x00\n        /* \"lotto.sol\":4117:4127  startIndex */\n      dup6\n        /* \"lotto.sol\":4105:4127  uint256 i = startIndex */\n      swap1\n      pop\n        /* \"lotto.sol\":4100:4253  for (uint256 i = startIndex; i <= endIndex; i++) {\r... */\n    tag_219:\n        /* \"lotto.sol\":4134:4142  endIndex */\n      dup5\n        /* \"lotto.sol\":4129:4130  i */\n      dup2\n        /* \"lotto.sol\":4129:4142  i <= endIndex */\n      gt\n        /* \"lotto.sol\":4100:4253  for (uint256 i = startIndex; i <= endIndex; i++) {\r... */\n      tag_220\n      jumpi\n        /* \"lotto.sol\":4184:4196  roundResults */\n      0x06\n        /* \"lotto.sol\":4184:4212  roundResults[startIndex + i] */\n      0x00\n        /* \"lotto.sol\":4210:4211  i */\n      dup3\n        /* \"lotto.sol\":4197:4207  startIndex */\n      dup9\n        /* \"lotto.sol\":4197:4211  startIndex + i */\n      tag_222\n      swap2\n      swap1\n      tag_153\n      jump\t// in\n    tag_222:\n        /* \"lotto.sol\":4184:4212  roundResults[startIndex + i] */\n      dup2\n      mstore\n      0x20\n      add\n      swap1\n      dup2\n      mstore\n      0x20\n      add\n      0x00\n      keccak256\n        /* \"lotto.sol\":4164:4212  log[currentIndex] = roundResults[startIndex + i] */\n      mload(0x40)\n      dup1\n      0xa0\n      add\n      0x40\n      mstore\n      swap1\n      dup2\n      0x00\n      dup3\n      add\n      sload\n      dup2\n      mstore\n      0x20\n      add\n      0x01\n      dup3\n      add\n      sload\n      dup2\n      mstore\n      0x20\n      add\n      0x02\n      dup3\n      add\n      sload\n      dup2\n      mstore\n      0x20\n      add\n      0x03\n      dup3\n      add\n      sload\n      dup2\n      mstore\n      0x20\n      add\n      0x04\n      dup3\n      add\n      0x00\n      swap1\n      sload\n      swap1\n      0x0100\n      exp\n      swap1\n      div\n      0xffffffffffffffffffffffffffffffffffffffff\n      and\n      0xffffffffffffffffffffffffffffffffffffffff\n      and\n      0xffffffffffffffffffffffffffffffffffffffff\n      and\n      dup2\n      mstore\n      pop\n      pop\n        /* \"lotto.sol\":4164:4167  log */\n      dup5\n        /* \"lotto.sol\":4168:4180  currentIndex */\n      dup4\n        /* \"lotto.sol\":4164:4181  log[currentIndex] */\n      dup2\n      mload\n      dup2\n      lt\n      tag_223\n      jumpi\n      tag_224\n      tag_120\n      jump\t// in\n    tag_224:\n    tag_223:\n      0x20\n      mul\n      0x20\n      add\n      add\n        /* \"lotto.sol\":4164:4212  log[currentIndex] = roundResults[startIndex + i] */\n      dup2\n      swap1\n      mstore\n      pop\n        /* \"lotto.sol\":4227:4241  currentIndex++ */\n      dup2\n      dup1\n      tag_225\n      swap1\n      tag_124\n      jump\t// in\n    tag_225:\n      swap3\n      pop\n      pop\n        /* \"lotto.sol\":4144:4147  i++ */\n      dup1\n      dup1\n      tag_226\n      swap1\n      tag_124\n      jump\t// in\n    tag_226:\n      swap2\n      pop\n      pop\n        /* \"lotto.sol\":4100:4253  for (uint256 i = startIndex; i <= endIndex; i++) {\r... */\n      jump(tag_219)\n    tag_220:\n      pop\n        /* \"lotto.sol\":3771:4260  {\r... */\n      pop\n      pop\n        /* \"lotto.sol\":3670:4260  function resultLog(uint256 startIndex, uint256 endIndex) external view returns(Results [] memory log){\r... */\n    tag_202:\n      swap3\n      swap2\n      pop\n      pop\n      jump\t// out\n        /* \"lotto.sol\":2338:2507  function removeAccount(address account) external{\r... */\n    tag_100:\n        /* \"lotto.sol\":2397:2419  uint256 currentEntries */\n      0x00\n        /* \"lotto.sol\":2422:2442  userEntries(account) */\n      tag_228\n        /* \"lotto.sol\":2434:2441  account */\n      dup3\n        /* \"lotto.sol\":2422:2433  userEntries */\n      tag_78\n        /* \"lotto.sol\":2422:2442  userEntries(account) */\n      jump\t// in\n    tag_228:\n        /* \"lotto.sol\":2397:2442  uint256 currentEntries = userEntries(account) */\n      swap1\n      pop\n        /* \"lotto.sol\":2453:2499  removeEntryFromWallet(account, currentEntries) */\n      tag_229\n        /* \"lotto.sol\":2475:2482  account */\n      dup3\n        /* \"lotto.sol\":2484:2498  currentEntries */\n      dup3\n        /* \"lotto.sol\":2453:2474  removeEntryFromWallet */\n      tag_82\n        /* \"lotto.sol\":2453:2499  removeEntryFromWallet(account, currentEntries) */\n      jump\t// in\n    tag_229:\n        /* \"lotto.sol\":2386:2507  {\r... */\n      pop\n        /* \"lotto.sol\":2338:2507  function removeAccount(address account) external{\r... */\n      pop\n      jump\t// out\n        /* \"https://github.com/OpenZeppelin/openzeppelin-contracts/blob/master/contracts/access/Ownable.sol\":1918:2116  function transferOwnership(address newOwner) public virtual onlyOwner {... */\n    tag_103:\n        /* \"https://github.com/OpenZeppelin/openzeppelin-contracts/blob/master/contracts/access/Ownable.sol\":1259:1271  _msgSender() */\n      tag_231\n        /* \"https://github.com/OpenZeppelin/openzeppelin-contracts/blob/master/contracts/access/Ownable.sol\":1259:1269  _msgSender */\n      tag_162\n        /* \"https://github.com/OpenZeppelin/openzeppelin-contracts/blob/master/contracts/access/Ownable.sol\":1259:1271  _msgSender() */\n      jump\t// in\n    tag_231:\n        /* \"https://github.com/OpenZeppelin/openzeppelin-contracts/blob/master/contracts/access/Ownable.sol\":1248:1271  owner() == _msgSender() */\n      0xffffffffffffffffffffffffffffffffffffffff\n      and\n        /* \"https://github.com/OpenZeppelin/openzeppelin-contracts/blob/master/contracts/access/Ownable.sol\":1248:1255  owner() */\n      tag_232\n        /* \"https://github.com/OpenZeppelin/openzeppelin-contracts/blob/master/contracts/access/Ownable.sol\":1248:1253  owner */\n      tag_70\n        /* \"https://github.com/OpenZeppelin/openzeppelin-contracts/blob/master/contracts/access/Ownable.sol\":1248:1255  owner() */\n      jump\t// in\n    tag_232:\n        /* \"https://github.com/OpenZeppelin/openzeppelin-contracts/blob/master/contracts/access/Ownable.sol\":1248:1271  owner() == _msgSender() */\n      0xffffffffffffffffffffffffffffffffffffffff\n      and\n      eq\n        /* \"https://github.com/OpenZeppelin/openzeppelin-contracts/blob/master/contracts/access/Ownable.sol\":1240:1308  require(owner() == _msgSender(), \"Ownable: caller is not the owner\") */\n      tag_233\n      jumpi\n      mload(0x40)\n      0x08c379a000000000000000000000000000000000000000000000000000000000\n      dup2\n      mstore\n      0x04\n      add\n      tag_234\n      swap1\n      tag_166\n      jump\t// in\n    tag_234:\n      mload(0x40)\n      dup1\n      swap2\n      sub\n      swap1\n      revert\n    tag_233:\n        /* \"https://github.com/OpenZeppelin/openzeppelin-contracts/blob/master/contracts/access/Ownable.sol\":2026:2027  0 */\n      0x00\n        /* \"https://github.com/OpenZeppelin/openzeppelin-contracts/blob/master/contracts/access/Ownable.sol\":2006:2028  newOwner != address(0) */\n      0xffffffffffffffffffffffffffffffffffffffff\n      and\n        /* \"https://github.com/OpenZeppelin/openzeppelin-contracts/blob/master/contracts/access/Ownable.sol\":2006:2014  newOwner */\n      dup2\n        /* \"https://github.com/OpenZeppelin/openzeppelin-contracts/blob/master/contracts/access/Ownable.sol\":2006:2028  newOwner != address(0) */\n      0xffffffffffffffffffffffffffffffffffffffff\n      and\n      eq\n      iszero\n        /* \"https://github.com/OpenZeppelin/openzeppelin-contracts/blob/master/contracts/access/Ownable.sol\":1998:2071  require(newOwner != address(0), \"Ownable: new owner is the zero address\") */\n      tag_236\n      jumpi\n      mload(0x40)\n      0x08c379a000000000000000000000000000000000000000000000000000000000\n      dup2\n      mstore\n      0x04\n      add\n      tag_237\n      swap1\n      tag_238\n      jump\t// in\n    tag_237:\n      mload(0x40)\n      dup1\n      swap2\n      sub\n      swap1\n      revert\n    tag_236:\n        /* \"https://github.com/OpenZeppelin/openzeppelin-contracts/blob/master/contracts/access/Ownable.sol\":2081:2109  _transferOwnership(newOwner) */\n      tag_239\n        /* \"https://github.com/OpenZeppelin/openzeppelin-contracts/blob/master/contracts/access/Ownable.sol\":2100:2108  newOwner */\n      dup2\n        /* \"https://github.com/OpenZeppelin/openzeppelin-contracts/blob/master/contracts/access/Ownable.sol\":2081:2099  _transferOwnership */\n      tag_179\n        /* \"https://github.com/OpenZeppelin/openzeppelin-contracts/blob/master/contracts/access/Ownable.sol\":2081:2109  _transferOwnership(newOwner) */\n      jump\t// in\n    tag_239:\n        /* \"https://github.com/OpenZeppelin/openzeppelin-contracts/blob/master/contracts/access/Ownable.sol\":1918:2116  function transferOwnership(address newOwner) public virtual onlyOwner {... */\n      pop\n      jump\t// out\n        /* \"lotto.sol\":2692:2896  function pickWinner(uint256 seed) external view returns(uint256 winnerNum, address winnerAddress) {\r... */\n    tag_106:\n        /* \"lotto.sol\":2748:2765  uint256 winnerNum */\n      0x00\n        /* \"lotto.sol\":2767:2788  address winnerAddress */\n      dup1\n        /* \"lotto.sol\":2828:2840  roundEntries */\n      sload(0x01)\n        /* \"lotto.sol\":2813:2825  random(seed) */\n      tag_241\n        /* \"lotto.sol\":2820:2824  seed */\n      dup5\n        /* \"lotto.sol\":2813:2819  random */\n      tag_242\n        /* \"lotto.sol\":2813:2825  random(seed) */\n      jump\t// in\n    tag_241:\n        /* \"lotto.sol\":2813:2840  random(seed) % roundEntries */\n      tag_243\n      swap2\n      swap1\n      tag_244\n      jump\t// in\n    tag_243:\n        /* \"lotto.sol\":2801:2840  winnerNum = random(seed) % roundEntries */\n      swap2\n      pop\n        /* \"lotto.sol\":2867:2877  roundEntry */\n      0x07\n        /* \"lotto.sol\":2867:2888  roundEntry[winnerNum] */\n      0x00\n        /* \"lotto.sol\":2878:2887  winnerNum */\n      dup4\n        /* \"lotto.sol\":2867:2888  roundEntry[winnerNum] */\n      dup2\n      mstore\n      0x20\n      add\n      swap1\n      dup2\n      mstore\n      0x20\n      add\n      0x00\n      keccak256\n      0x00\n      swap1\n      sload\n      swap1\n      0x0100\n      exp\n      swap1\n      div\n      0xffffffffffffffffffffffffffffffffffffffff\n      and\n        /* \"lotto.sol\":2851:2888  winnerAddress = roundEntry[winnerNum] */\n      swap1\n      pop\n        /* \"lotto.sol\":2692:2896  function pickWinner(uint256 seed) external view returns(uint256 winnerNum, address winnerAddress) {\r... */\n      swap2\n      pop\n      swap2\n      jump\t// out\n        /* \"lotto.sol\":3416:3532  function currentJackpot() public view returns (uint256) {\r... */\n    tag_110:\n        /* \"lotto.sol\":3463:3470  uint256 */\n      0x00\n        /* \"lotto.sol\":3490:3499  acesToken */\n      0x04\n      0x00\n      swap1\n      sload\n      swap1\n      0x0100\n      exp\n      swap1\n      div\n      0xffffffffffffffffffffffffffffffffffffffff\n      and\n        /* \"lotto.sol\":3490:3509  acesToken.balanceOf */\n      0xffffffffffffffffffffffffffffffffffffffff\n      and\n      0x70a08231\n        /* \"lotto.sol\":3518:3522  this */\n      address\n        /* \"lotto.sol\":3490:3524  acesToken.balanceOf(address(this)) */\n      mload(0x40)\n      dup3\n      0xffffffff\n      and\n      0xe0\n      shl\n      dup2\n      mstore\n      0x04\n      add\n      tag_246\n      swap2\n      swap1\n      tag_72\n      jump\t// in\n    tag_246:\n      0x20\n      mload(0x40)\n      dup1\n      dup4\n      sub\n      dup2\n      dup7\n      dup1\n      extcodesize\n      iszero\n      dup1\n      iszero\n      tag_247\n      jumpi\n      0x00\n      dup1\n      revert\n    tag_247:\n      pop\n      gas\n      staticcall\n      iszero\n      dup1\n      iszero\n      tag_249\n      jumpi\n      returndatasize\n      0x00\n      dup1\n      returndatacopy\n      revert(0x00, returndatasize)\n    tag_249:\n      pop\n      pop\n      pop\n      pop\n      mload(0x40)\n      returndatasize\n      not(0x1f)\n      0x1f\n      dup3\n      add\n      and\n      dup3\n      add\n      dup1\n      0x40\n      mstore\n      pop\n      dup2\n      add\n      swap1\n      tag_250\n      swap2\n      swap1\n      tag_251\n      jump\t// in\n    tag_250:\n        /* \"lotto.sol\":3483:3524  return acesToken.balanceOf(address(this)) */\n      swap1\n      pop\n        /* \"lotto.sol\":3416:3532  function currentJackpot() public view returns (uint256) {\r... */\n      swap1\n      jump\t// out\n        /* \"https://github.com/OpenZeppelin/openzeppelin-contracts/blob/master/contracts/utils/Context.sol\":640:736  function _msgSender() internal view virtual returns (address) {... */\n    tag_162:\n        /* \"https://github.com/OpenZeppelin/openzeppelin-contracts/blob/master/contracts/utils/Context.sol\":693:700  address */\n      0x00\n        /* \"https://github.com/OpenZeppelin/openzeppelin-contracts/blob/master/contracts/utils/Context.sol\":719:729  msg.sender */\n      caller\n        /* \"https://github.com/OpenZeppelin/openzeppelin-contracts/blob/master/contracts/utils/Context.sol\":712:729  return msg.sender */\n      swap1\n      pop\n        /* \"https://github.com/OpenZeppelin/openzeppelin-contracts/blob/master/contracts/utils/Context.sol\":640:736  function _msgSender() internal view virtual returns (address) {... */\n      swap1\n      jump\t// out\n        /* \"https://github.com/OpenZeppelin/openzeppelin-contracts/blob/master/contracts/access/Ownable.sol\":2270:2457  function _transferOwnership(address newOwner) internal virtual {... */\n    tag_179:\n        /* \"https://github.com/OpenZeppelin/openzeppelin-contracts/blob/master/contracts/access/Ownable.sol\":2343:2359  address oldOwner */\n      0x00\n        /* \"https://github.com/OpenZeppelin/openzeppelin-contracts/blob/master/contracts/access/Ownable.sol\":2362:2368  _owner */\n      dup1\n      0x00\n      swap1\n      sload\n      swap1\n      0x0100\n      exp\n      swap1\n      div\n      0xffffffffffffffffffffffffffffffffffffffff\n      and\n        /* \"https://github.com/OpenZeppelin/openzeppelin-contracts/blob/master/contracts/access/Ownable.sol\":2343:2368  address oldOwner = _owner */\n      swap1\n      pop\n        /* \"https://github.com/OpenZeppelin/openzeppelin-contracts/blob/master/contracts/access/Ownable.sol\":2387:2395  newOwner */\n      dup2\n        /* \"https://github.com/OpenZeppelin/openzeppelin-contracts/blob/master/contracts/access/Ownable.sol\":2378:2384  _owner */\n      0x00\n      dup1\n        /* \"https://github.com/OpenZeppelin/openzeppelin-contracts/blob/master/contracts/access/Ownable.sol\":2378:2395  _owner = newOwner */\n      0x0100\n      exp\n      dup2\n      sload\n      dup2\n      0xffffffffffffffffffffffffffffffffffffffff\n      mul\n      not\n      and\n      swap1\n      dup4\n      0xffffffffffffffffffffffffffffffffffffffff\n      and\n      mul\n      or\n      swap1\n      sstore\n      pop\n        /* \"https://github.com/OpenZeppelin/openzeppelin-contracts/blob/master/contracts/access/Ownable.sol\":2441:2449  newOwner */\n      dup2\n        /* \"https://github.com/OpenZeppelin/openzeppelin-contracts/blob/master/contracts/access/Ownable.sol\":2410:2450  OwnershipTransferred(oldOwner, newOwner) */\n      0xffffffffffffffffffffffffffffffffffffffff\n      and\n        /* \"https://github.com/OpenZeppelin/openzeppelin-contracts/blob/master/contracts/access/Ownable.sol\":2431:2439  oldOwner */\n      dup2\n        /* \"https://github.com/OpenZeppelin/openzeppelin-contracts/blob/master/contracts/access/Ownable.sol\":2410:2450  OwnershipTransferred(oldOwner, newOwner) */\n      0xffffffffffffffffffffffffffffffffffffffff\n      and\n      0x8be0079c531659141344cd1fd0a4f28419497f9722a3daafe3b4186f6b6457e0\n      mload(0x40)\n      mload(0x40)\n      dup1\n      swap2\n      sub\n      swap1\n      log3\n        /* \"https://github.com/OpenZeppelin/openzeppelin-contracts/blob/master/contracts/access/Ownable.sol\":2333:2457  {... */\n      pop\n        /* \"https://github.com/OpenZeppelin/openzeppelin-contracts/blob/master/contracts/access/Ownable.sol\":2270:2457  function _transferOwnership(address newOwner) internal virtual {... */\n      pop\n      jump\t// out\n        /* \"lotto.sol\":5167:5584  function random(uint256 seed) internal view returns (uint256) {\r... */\n    tag_242:\n        /* \"lotto.sol\":5220:5227  uint256 */\n      0x00\n        /* \"lotto.sol\":5361:5365  seed */\n      dup2\n        /* \"lotto.sol\":5392:5407  block.timestamp */\n      timestamp\n        /* \"lotto.sol\":5434:5443  gasleft() */\n      gas\n        /* \"lotto.sol\":5470:5480  msg.sender */\n      caller\n        /* \"lotto.sol\":5507:5519  roundEntries */\n      sload(0x01)\n        /* \"lotto.sol\":5318:5542  abi.encodePacked(\r... */\n      add(0x20, mload(0x40))\n      tag_255\n      swap6\n      swap5\n      swap4\n      swap3\n      swap2\n      swap1\n      tag_256\n      jump\t// in\n    tag_255:\n      mload(0x40)\n      0x20\n      dup2\n      dup4\n      sub\n      sub\n      dup2\n      mstore\n      swap1\n      0x40\n      mstore\n        /* \"lotto.sol\":5286:5561  keccak256(\r... */\n      dup1\n      mload\n      swap1\n      0x20\n      add\n      keccak256\n        /* \"lotto.sol\":5260:5576  uint256(\r... */\n      0x00\n      shr\n        /* \"lotto.sol\":5240:5576  return\r... */\n      swap1\n      pop\n        /* \"lotto.sol\":5167:5584  function random(uint256 seed) internal view returns (uint256) {\r... */\n      swap2\n      swap1\n      pop\n      jump\t// out\n    tag_209:\n      mload(0x40)\n      dup1\n      0xa0\n      add\n      0x40\n      mstore\n      dup1\n      0x00\n      dup2\n      mstore\n      0x20\n      add\n      0x00\n      dup2\n      mstore\n      0x20\n      add\n      0x00\n      dup2\n      mstore\n      0x20\n      add\n      0x00\n      dup2\n      mstore\n      0x20\n      add\n      and(0xffffffffffffffffffffffffffffffffffffffff, 0x00)\n      dup2\n      mstore\n      pop\n      swap1\n      jump\t// out\n        /* \"#utility.yul\":7:146   */\n    tag_258:\n        /* \"#utility.yul\":53:58   */\n      0x00\n        /* \"#utility.yul\":91:97   */\n      dup2\n        /* \"#utility.yul\":78:98   */\n      calldataload\n        /* \"#utility.yul\":69:98   */\n      swap1\n      pop\n        /* \"#utility.yul\":107:140   */\n      tag_260\n        /* \"#utility.yul\":134:139   */\n      dup2\n        /* \"#utility.yul\":107:140   */\n      tag_261\n      jump\t// in\n    tag_260:\n        /* \"#utility.yul\":7:146   */\n      swap3\n      swap2\n      pop\n      pop\n      jump\t// out\n        /* \"#utility.yul\":152:291   */\n    tag_262:\n        /* \"#utility.yul\":198:203   */\n      0x00\n        /* \"#utility.yul\":236:242   */\n      dup2\n        /* \"#utility.yul\":223:243   */\n      calldataload\n        /* \"#utility.yul\":214:243   */\n      swap1\n      pop\n        /* \"#utility.yul\":252:285   */\n      tag_264\n        /* \"#utility.yul\":279:284   */\n      dup2\n        /* \"#utility.yul\":252:285   */\n      tag_265\n      jump\t// in\n    tag_264:\n        /* \"#utility.yul\":152:291   */\n      swap3\n      swap2\n      pop\n      pop\n      jump\t// out\n        /* \"#utility.yul\":297:440   */\n    tag_266:\n        /* \"#utility.yul\":354:359   */\n      0x00\n        /* \"#utility.yul\":385:391   */\n      dup2\n        /* \"#utility.yul\":379:392   */\n      mload\n        /* \"#utility.yul\":370:392   */\n      swap1\n      pop\n        /* \"#utility.yul\":401:434   */\n      tag_268\n        /* \"#utility.yul\":428:433   */\n      dup2\n        /* \"#utility.yul\":401:434   */\n      tag_265\n      jump\t// in\n    tag_268:\n        /* \"#utility.yul\":297:440   */\n      swap3\n      swap2\n      pop\n      pop\n      jump\t// out\n        /* \"#utility.yul\":446:775   */\n    tag_56:\n        /* \"#utility.yul\":505:511   */\n      0x00\n        /* \"#utility.yul\":554:556   */\n      0x20\n        /* \"#utility.yul\":542:551   */\n      dup3\n        /* \"#utility.yul\":533:540   */\n      dup5\n        /* \"#utility.yul\":529:552   */\n      sub\n        /* \"#utility.yul\":525:557   */\n      slt\n        /* \"#utility.yul\":522:641   */\n      iszero\n      tag_270\n      jumpi\n        /* \"#utility.yul\":560:639   */\n      tag_271\n      tag_272\n      jump\t// in\n    tag_271:\n        /* \"#utility.yul\":522:641   */\n    tag_270:\n        /* \"#utility.yul\":680:681   */\n      0x00\n        /* \"#utility.yul\":705:758   */\n      tag_273\n        /* \"#utility.yul\":750:757   */\n      dup5\n        /* \"#utility.yul\":741:747   */\n      dup3\n        /* \"#utility.yul\":730:739   */\n      dup6\n        /* \"#utility.yul\":726:748   */\n      add\n        /* \"#utility.yul\":705:758   */\n      tag_258\n      jump\t// in\n    tag_273:\n        /* \"#utility.yul\":695:758   */\n      swap2\n      pop\n        /* \"#utility.yul\":651:768   */\n      pop\n        /* \"#utility.yul\":446:775   */\n      swap3\n      swap2\n      pop\n      pop\n      jump\t// out\n        /* \"#utility.yul\":781:1255   */\n    tag_30:\n        /* \"#utility.yul\":849:855   */\n      0x00\n        /* \"#utility.yul\":857:863   */\n      dup1\n        /* \"#utility.yul\":906:908   */\n      0x40\n        /* \"#utility.yul\":894:903   */\n      dup4\n        /* \"#utility.yul\":885:892   */\n      dup6\n        /* \"#utility.yul\":881:904   */\n      sub\n        /* \"#utility.yul\":877:909   */\n      slt\n        /* \"#utility.yul\":874:993   */\n      iszero\n      tag_275\n      jumpi\n        /* \"#utility.yul\":912:991   */\n      tag_276\n      tag_272\n      jump\t// in\n    tag_276:\n        /* \"#utility.yul\":874:993   */\n    tag_275:\n        /* \"#utility.yul\":1032:1033   */\n      0x00\n        /* \"#utility.yul\":1057:1110   */\n      tag_277\n        /* \"#utility.yul\":1102:1109   */\n      dup6\n        /* \"#utility.yul\":1093:1099   */\n      dup3\n        /* \"#utility.yul\":1082:1091   */\n      dup7\n        /* \"#utility.yul\":1078:1100   */\n      add\n        /* \"#utility.yul\":1057:1110   */\n      tag_258\n      jump\t// in\n    tag_277:\n        /* \"#utility.yul\":1047:1110   */\n      swap3\n      pop\n        /* \"#utility.yul\":1003:1120   */\n      pop\n        /* \"#utility.yul\":1159:1161   */\n      0x20\n        /* \"#utility.yul\":1185:1238   */\n      tag_278\n        /* \"#utility.yul\":1230:1237   */\n      dup6\n        /* \"#utility.yul\":1221:1227   */\n      dup3\n        /* \"#utility.yul\":1210:1219   */\n      dup7\n        /* \"#utility.yul\":1206:1228   */\n      add\n        /* \"#utility.yul\":1185:1238   */\n      tag_262\n      jump\t// in\n    tag_278:\n        /* \"#utility.yul\":1175:1238   */\n      swap2\n      pop\n        /* \"#utility.yul\":1130:1248   */\n      pop\n        /* \"#utility.yul\":781:1255   */\n      swap3\n      pop\n      swap3\n      swap1\n      pop\n      jump\t// out\n        /* \"#utility.yul\":1261:1590   */\n    tag_85:\n        /* \"#utility.yul\":1320:1326   */\n      0x00\n        /* \"#utility.yul\":1369:1371   */\n      0x20\n        /* \"#utility.yul\":1357:1366   */\n      dup3\n        /* \"#utility.yul\":1348:1355   */\n      dup5\n        /* \"#utility.yul\":1344:1367   */\n      sub\n        /* \"#utility.yul\":1340:1372   */\n      slt\n        /* \"#utility.yul\":1337:1456   */\n      iszero\n      tag_280\n      jumpi\n        /* \"#utility.yul\":1375:1454   */\n      tag_281\n      tag_272\n      jump\t// in\n    tag_281:\n        /* \"#utility.yul\":1337:1456   */\n    tag_280:\n        /* \"#utility.yul\":1495:1496   */\n      0x00\n        /* \"#utility.yul\":1520:1573   */\n      tag_282\n        /* \"#utility.yul\":1565:1572   */\n      dup5\n        /* \"#utility.yul\":1556:1562   */\n      dup3\n        /* \"#utility.yul\":1545:1554   */\n      dup6\n        /* \"#utility.yul\":1541:1563   */\n      add\n        /* \"#utility.yul\":1520:1573   */\n      tag_262\n      jump\t// in\n    tag_282:\n        /* \"#utility.yul\":1510:1573   */\n      swap2\n      pop\n        /* \"#utility.yul\":1466:1583   */\n      pop\n        /* \"#utility.yul\":1261:1590   */\n      swap3\n      swap2\n      pop\n      pop\n      jump\t// out\n        /* \"#utility.yul\":1596:1947   */\n    tag_251:\n        /* \"#utility.yul\":1666:1672   */\n      0x00\n        /* \"#utility.yul\":1715:1717   */\n      0x20\n        /* \"#utility.yul\":1703:1712   */\n      dup3\n        /* \"#utility.yul\":1694:1701   */\n      dup5\n        /* \"#utility.yul\":1690:1713   */\n      sub\n        /* \"#utility.yul\":1686:1718   */\n      slt\n        /* \"#utility.yul\":1683:1802   */\n      iszero\n      tag_284\n      jumpi\n        /* \"#utility.yul\":1721:1800   */\n      tag_285\n      tag_272\n      jump\t// in\n    tag_285:\n        /* \"#utility.yul\":1683:1802   */\n    tag_284:\n        /* \"#utility.yul\":1841:1842   */\n      0x00\n        /* \"#utility.yul\":1866:1930   */\n      tag_286\n        /* \"#utility.yul\":1922:1929   */\n      dup5\n        /* \"#utility.yul\":1913:1919   */\n      dup3\n        /* \"#utility.yul\":1902:1911   */\n      dup6\n        /* \"#utility.yul\":1898:1920   */\n      add\n        /* \"#utility.yul\":1866:1930   */\n      tag_266\n      jump\t// in\n    tag_286:\n        /* \"#utility.yul\":1856:1930   */\n      swap2\n      pop\n        /* \"#utility.yul\":1812:1940   */\n      pop\n        /* \"#utility.yul\":1596:1947   */\n      swap3\n      swap2\n      pop\n      pop\n      jump\t// out\n        /* \"#utility.yul\":1953:2427   */\n    tag_62:\n        /* \"#utility.yul\":2021:2027   */\n      0x00\n        /* \"#utility.yul\":2029:2035   */\n      dup1\n        /* \"#utility.yul\":2078:2080   */\n      0x40\n        /* \"#utility.yul\":2066:2075   */\n      dup4\n        /* \"#utility.yul\":2057:2064   */\n      dup6\n        /* \"#utility.yul\":2053:2076   */\n      sub\n        /* \"#utility.yul\":2049:2081   */\n      slt\n        /* \"#utility.yul\":2046:2165   */\n      iszero\n      tag_288\n      jumpi\n        /* \"#utility.yul\":2084:2163   */\n      tag_289\n      tag_272\n      jump\t// in\n    tag_289:\n        /* \"#utility.yul\":2046:2165   */\n    tag_288:\n        /* \"#utility.yul\":2204:2205   */\n      0x00\n        /* \"#utility.yul\":2229:2282   */\n      tag_290\n        /* \"#utility.yul\":2274:2281   */\n      dup6\n        /* \"#utility.yul\":2265:2271   */\n      dup3\n        /* \"#utility.yul\":2254:2263   */\n      dup7\n        /* \"#utility.yul\":2250:2272   */\n      add\n        /* \"#utility.yul\":2229:2282   */\n      tag_262\n      jump\t// in\n    tag_290:\n        /* \"#utility.yul\":2219:2282   */\n      swap3\n      pop\n        /* \"#utility.yul\":2175:2292   */\n      pop\n        /* \"#utility.yul\":2331:2333   */\n      0x20\n        /* \"#utility.yul\":2357:2410   */\n      tag_291\n        /* \"#utility.yul\":2402:2409   */\n      dup6\n        /* \"#utility.yul\":2393:2399   */\n      dup3\n        /* \"#utility.yul\":2382:2391   */\n      dup7\n        /* \"#utility.yul\":2378:2400   */\n      add\n        /* \"#utility.yul\":2357:2410   */\n      tag_262\n      jump\t// in\n    tag_291:\n        /* \"#utility.yul\":2347:2410   */\n      swap2\n      pop\n        /* \"#utility.yul\":2302:2420   */\n      pop\n        /* \"#utility.yul\":1953:2427   */\n      swap3\n      pop\n      swap3\n      swap1\n      pop\n      jump\t// out\n        /* \"#utility.yul\":2433:2612   */\n    tag_292:\n        /* \"#utility.yul\":2502:2512   */\n      0x00\n        /* \"#utility.yul\":2523:2569   */\n      tag_294\n        /* \"#utility.yul\":2565:2568   */\n      dup4\n        /* \"#utility.yul\":2557:2563   */\n      dup4\n        /* \"#utility.yul\":2523:2569   */\n      tag_295\n      jump\t// in\n    tag_294:\n        /* \"#utility.yul\":2601:2605   */\n      0x20\n        /* \"#utility.yul\":2596:2599   */\n      dup4\n        /* \"#utility.yul\":2592:2606   */\n      add\n        /* \"#utility.yul\":2578:2606   */\n      swap1\n      pop\n        /* \"#utility.yul\":2433:2612   */\n      swap3\n      swap2\n      pop\n      pop\n      jump\t// out\n        /* \"#utility.yul\":2618:2893   */\n    tag_296:\n        /* \"#utility.yul\":2735:2745   */\n      0x00\n        /* \"#utility.yul\":2756:2850   */\n      tag_298\n        /* \"#utility.yul\":2846:2849   */\n      dup4\n        /* \"#utility.yul\":2838:2844   */\n      dup4\n        /* \"#utility.yul\":2756:2850   */\n      tag_299\n      jump\t// in\n    tag_298:\n        /* \"#utility.yul\":2882:2886   */\n      0xa0\n        /* \"#utility.yul\":2877:2880   */\n      dup4\n        /* \"#utility.yul\":2873:2887   */\n      add\n        /* \"#utility.yul\":2859:2887   */\n      swap1\n      pop\n        /* \"#utility.yul\":2618:2893   */\n      swap3\n      swap2\n      pop\n      pop\n      jump\t// out\n        /* \"#utility.yul\":2899:3078   */\n    tag_300:\n        /* \"#utility.yul\":2968:2978   */\n      0x00\n        /* \"#utility.yul\":2989:3035   */\n      tag_302\n        /* \"#utility.yul\":3031:3034   */\n      dup4\n        /* \"#utility.yul\":3023:3029   */\n      dup4\n        /* \"#utility.yul\":2989:3035   */\n      tag_303\n      jump\t// in\n    tag_302:\n        /* \"#utility.yul\":3067:3071   */\n      0x20\n        /* \"#utility.yul\":3062:3065   */\n      dup4\n        /* \"#utility.yul\":3058:3072   */\n      add\n        /* \"#utility.yul\":3044:3072   */\n      swap1\n      pop\n        /* \"#utility.yul\":2899:3078   */\n      swap3\n      swap2\n      pop\n      pop\n      jump\t// out\n        /* \"#utility.yul\":3084:3192   */\n    tag_295:\n        /* \"#utility.yul\":3161:3185   */\n      tag_305\n        /* \"#utility.yul\":3179:3184   */\n      dup2\n        /* \"#utility.yul\":3161:3185   */\n      tag_306\n      jump\t// in\n    tag_305:\n        /* \"#utility.yul\":3156:3159   */\n      dup3\n        /* \"#utility.yul\":3149:3186   */\n      mstore\n        /* \"#utility.yul\":3084:3192   */\n      pop\n      pop\n      jump\t// out\n        /* \"#utility.yul\":3198:3316   */\n    tag_307:\n        /* \"#utility.yul\":3285:3309   */\n      tag_309\n        /* \"#utility.yul\":3303:3308   */\n      dup2\n        /* \"#utility.yul\":3285:3309   */\n      tag_306\n      jump\t// in\n    tag_309:\n        /* \"#utility.yul\":3280:3283   */\n      dup3\n        /* \"#utility.yul\":3273:3310   */\n      mstore\n        /* \"#utility.yul\":3198:3316   */\n      pop\n      pop\n      jump\t// out\n        /* \"#utility.yul\":3322:3479   */\n    tag_310:\n        /* \"#utility.yul\":3427:3472   */\n      tag_312\n        /* \"#utility.yul\":3447:3471   */\n      tag_313\n        /* \"#utility.yul\":3465:3470   */\n      dup3\n        /* \"#utility.yul\":3447:3471   */\n      tag_306\n      jump\t// in\n    tag_313:\n        /* \"#utility.yul\":3427:3472   */\n      tag_314\n      jump\t// in\n    tag_312:\n        /* \"#utility.yul\":3422:3425   */\n      dup3\n        /* \"#utility.yul\":3415:3473   */\n      mstore\n        /* \"#utility.yul\":3322:3479   */\n      pop\n      pop\n      jump\t// out\n        /* \"#utility.yul\":3515:4247   */\n    tag_315:\n        /* \"#utility.yul\":3634:3637   */\n      0x00\n        /* \"#utility.yul\":3663:3717   */\n      tag_317\n        /* \"#utility.yul\":3711:3716   */\n      dup3\n        /* \"#utility.yul\":3663:3717   */\n      tag_318\n      jump\t// in\n    tag_317:\n        /* \"#utility.yul\":3733:3819   */\n      tag_319\n        /* \"#utility.yul\":3812:3818   */\n      dup2\n        /* \"#utility.yul\":3807:3810   */\n      dup6\n        /* \"#utility.yul\":3733:3819   */\n      tag_320\n      jump\t// in\n    tag_319:\n        /* \"#utility.yul\":3726:3819   */\n      swap4\n      pop\n        /* \"#utility.yul\":3843:3899   */\n      tag_321\n        /* \"#utility.yul\":3893:3898   */\n      dup4\n        /* \"#utility.yul\":3843:3899   */\n      tag_322\n      jump\t// in\n    tag_321:\n        /* \"#utility.yul\":3922:3929   */\n      dup1\n        /* \"#utility.yul\":3953:3954   */\n      0x00\n        /* \"#utility.yul\":3938:4222   */\n    tag_323:\n        /* \"#utility.yul\":3963:3969   */\n      dup4\n        /* \"#utility.yul\":3960:3961   */\n      dup2\n        /* \"#utility.yul\":3957:3970   */\n      lt\n        /* \"#utility.yul\":3938:4222   */\n      iszero\n      tag_325\n      jumpi\n        /* \"#utility.yul\":4039:4045   */\n      dup2\n        /* \"#utility.yul\":4033:4046   */\n      mload\n        /* \"#utility.yul\":4066:4129   */\n      tag_326\n        /* \"#utility.yul\":4125:4128   */\n      dup9\n        /* \"#utility.yul\":4110:4123   */\n      dup3\n        /* \"#utility.yul\":4066:4129   */\n      tag_292\n      jump\t// in\n    tag_326:\n        /* \"#utility.yul\":4059:4129   */\n      swap8\n      pop\n        /* \"#utility.yul\":4152:4212   */\n      tag_327\n        /* \"#utility.yul\":4205:4211   */\n      dup4\n        /* \"#utility.yul\":4152:4212   */\n      tag_328\n      jump\t// in\n    tag_327:\n        /* \"#utility.yul\":4142:4212   */\n      swap3\n      pop\n        /* \"#utility.yul\":3998:4222   */\n      pop\n        /* \"#utility.yul\":3985:3986   */\n      0x01\n        /* \"#utility.yul\":3982:3983   */\n      dup2\n        /* \"#utility.yul\":3978:3987   */\n      add\n        /* \"#utility.yul\":3973:3987   */\n      swap1\n      pop\n        /* \"#utility.yul\":3938:4222   */\n      jump(tag_323)\n    tag_325:\n        /* \"#utility.yul\":3942:3956   */\n      pop\n        /* \"#utility.yul\":4238:4241   */\n      dup6\n        /* \"#utility.yul\":4231:4241   */\n      swap4\n      pop\n        /* \"#utility.yul\":3639:4247   */\n      pop\n      pop\n      pop\n        /* \"#utility.yul\":3515:4247   */\n      swap3\n      swap2\n      pop\n      pop\n      jump\t// out\n        /* \"#utility.yul\":4315:5239   */\n    tag_329:\n        /* \"#utility.yul\":4482:4485   */\n      0x00\n        /* \"#utility.yul\":4511:4589   */\n      tag_331\n        /* \"#utility.yul\":4583:4588   */\n      dup3\n        /* \"#utility.yul\":4511:4589   */\n      tag_332\n      jump\t// in\n    tag_331:\n        /* \"#utility.yul\":4605:4715   */\n      tag_333\n        /* \"#utility.yul\":4708:4714   */\n      dup2\n        /* \"#utility.yul\":4703:4706   */\n      dup6\n        /* \"#utility.yul\":4605:4715   */\n      tag_334\n      jump\t// in\n    tag_333:\n        /* \"#utility.yul\":4598:4715   */\n      swap4\n      pop\n        /* \"#utility.yul\":4739:4819   */\n      tag_335\n        /* \"#utility.yul\":4813:4818   */\n      dup4\n        /* \"#utility.yul\":4739:4819   */\n      tag_336\n      jump\t// in\n    tag_335:\n        /* \"#utility.yul\":4842:4849   */\n      dup1\n        /* \"#utility.yul\":4873:4874   */\n      0x00\n        /* \"#utility.yul\":4858:5214   */\n    tag_337:\n        /* \"#utility.yul\":4883:4889   */\n      dup4\n        /* \"#utility.yul\":4880:4881   */\n      dup2\n        /* \"#utility.yul\":4877:4890   */\n      lt\n        /* \"#utility.yul\":4858:5214   */\n      iszero\n      tag_339\n      jumpi\n        /* \"#utility.yul\":4959:4965   */\n      dup2\n        /* \"#utility.yul\":4953:4966   */\n      mload\n        /* \"#utility.yul\":4986:5097   */\n      tag_340\n        /* \"#utility.yul\":5093:5096   */\n      dup9\n        /* \"#utility.yul\":5078:5091   */\n      dup3\n        /* \"#utility.yul\":4986:5097   */\n      tag_296\n      jump\t// in\n    tag_340:\n        /* \"#utility.yul\":4979:5097   */\n      swap8\n      pop\n        /* \"#utility.yul\":5120:5204   */\n      tag_341\n        /* \"#utility.yul\":5197:5203   */\n      dup4\n        /* \"#utility.yul\":5120:5204   */\n      tag_342\n      jump\t// in\n    tag_341:\n        /* \"#utility.yul\":5110:5204   */\n      swap3\n      pop\n        /* \"#utility.yul\":4918:5214   */\n      pop\n        /* \"#utility.yul\":4905:4906   */\n      0x01\n        /* \"#utility.yul\":4902:4903   */\n      dup2\n        /* \"#utility.yul\":4898:4907   */\n      add\n        /* \"#utility.yul\":4893:4907   */\n      swap1\n      pop\n        /* \"#utility.yul\":4858:5214   */\n      jump(tag_337)\n    tag_339:\n        /* \"#utility.yul\":4862:4876   */\n      pop\n        /* \"#utility.yul\":5230:5233   */\n      dup6\n        /* \"#utility.yul\":5223:5233   */\n      swap4\n      pop\n        /* \"#utility.yul\":4487:5239   */\n      pop\n      pop\n      pop\n        /* \"#utility.yul\":4315:5239   */\n      swap3\n      swap2\n      pop\n      pop\n      jump\t// out\n        /* \"#utility.yul\":5275:6007   */\n    tag_343:\n        /* \"#utility.yul\":5394:5397   */\n      0x00\n        /* \"#utility.yul\":5423:5477   */\n      tag_345\n        /* \"#utility.yul\":5471:5476   */\n      dup3\n        /* \"#utility.yul\":5423:5477   */\n      tag_346\n      jump\t// in\n    tag_345:\n        /* \"#utility.yul\":5493:5579   */\n      tag_347\n        /* \"#utility.yul\":5572:5578   */\n      dup2\n        /* \"#utility.yul\":5567:5570   */\n      dup6\n        /* \"#utility.yul\":5493:5579   */\n      tag_348\n      jump\t// in\n    tag_347:\n        /* \"#utility.yul\":5486:5579   */\n      swap4\n      pop\n        /* \"#utility.yul\":5603:5659   */\n      tag_349\n        /* \"#utility.yul\":5653:5658   */\n      dup4\n        /* \"#utility.yul\":5603:5659   */\n      tag_350\n      jump\t// in\n    tag_349:\n        /* \"#utility.yul\":5682:5689   */\n      dup1\n        /* \"#utility.yul\":5713:5714   */\n      0x00\n        /* \"#utility.yul\":5698:5982   */\n    tag_351:\n        /* \"#utility.yul\":5723:5729   */\n      dup4\n        /* \"#utility.yul\":5720:5721   */\n      dup2\n        /* \"#utility.yul\":5717:5730   */\n      lt\n        /* \"#utility.yul\":5698:5982   */\n      iszero\n      tag_353\n      jumpi\n        /* \"#utility.yul\":5799:5805   */\n      dup2\n        /* \"#utility.yul\":5793:5806   */\n      mload\n        /* \"#utility.yul\":5826:5889   */\n      tag_354\n        /* \"#utility.yul\":5885:5888   */\n      dup9\n        /* \"#utility.yul\":5870:5883   */\n      dup3\n        /* \"#utility.yul\":5826:5889   */\n      tag_300\n      jump\t// in\n    tag_354:\n        /* \"#utility.yul\":5819:5889   */\n      swap8\n      pop\n        /* \"#utility.yul\":5912:5972   */\n      tag_355\n        /* \"#utility.yul\":5965:5971   */\n      dup4\n        /* \"#utility.yul\":5912:5972   */\n      tag_356\n      jump\t// in\n    tag_355:\n        /* \"#utility.yul\":5902:5972   */\n      swap3\n      pop\n        /* \"#utility.yul\":5758:5982   */\n      pop\n        /* \"#utility.yul\":5745:5746   */\n      0x01\n        /* \"#utility.yul\":5742:5743   */\n      dup2\n        /* \"#utility.yul\":5738:5747   */\n      add\n        /* \"#utility.yul\":5733:5747   */\n      swap1\n      pop\n        /* \"#utility.yul\":5698:5982   */\n      jump(tag_351)\n    tag_353:\n        /* \"#utility.yul\":5702:5716   */\n      pop\n        /* \"#utility.yul\":5998:6001   */\n      dup6\n        /* \"#utility.yul\":5991:6001   */\n      swap4\n      pop\n        /* \"#utility.yul\":5399:6007   */\n      pop\n      pop\n      pop\n        /* \"#utility.yul\":5275:6007   */\n      swap3\n      swap2\n      pop\n      pop\n      jump\t// out\n        /* \"#utility.yul\":6013:6122   */\n    tag_357:\n        /* \"#utility.yul\":6094:6115   */\n      tag_359\n        /* \"#utility.yul\":6109:6114   */\n      dup2\n        /* \"#utility.yul\":6094:6115   */\n      tag_360\n      jump\t// in\n    tag_359:\n        /* \"#utility.yul\":6089:6092   */\n      dup3\n        /* \"#utility.yul\":6082:6116   */\n      mstore\n        /* \"#utility.yul\":6013:6122   */\n      pop\n      pop\n      jump\t// out\n        /* \"#utility.yul\":6128:6287   */\n    tag_361:\n        /* \"#utility.yul\":6229:6280   */\n      tag_363\n        /* \"#utility.yul\":6274:6279   */\n      dup2\n        /* \"#utility.yul\":6229:6280   */\n      tag_364\n      jump\t// in\n    tag_363:\n        /* \"#utility.yul\":6224:6227   */\n      dup3\n        /* \"#utility.yul\":6217:6281   */\n      mstore\n        /* \"#utility.yul\":6128:6287   */\n      pop\n      pop\n      jump\t// out\n        /* \"#utility.yul\":6293:6659   */\n    tag_365:\n        /* \"#utility.yul\":6435:6438   */\n      0x00\n        /* \"#utility.yul\":6456:6523   */\n      tag_367\n        /* \"#utility.yul\":6520:6522   */\n      0x26\n        /* \"#utility.yul\":6515:6518   */\n      dup4\n        /* \"#utility.yul\":6456:6523   */\n      tag_368\n      jump\t// in\n    tag_367:\n        /* \"#utility.yul\":6449:6523   */\n      swap2\n      pop\n        /* \"#utility.yul\":6532:6625   */\n      tag_369\n        /* \"#utility.yul\":6621:6624   */\n      dup3\n        /* \"#utility.yul\":6532:6625   */\n      tag_370\n      jump\t// in\n    tag_369:\n        /* \"#utility.yul\":6650:6652   */\n      0x40\n        /* \"#utility.yul\":6645:6648   */\n      dup3\n        /* \"#utility.yul\":6641:6653   */\n      add\n        /* \"#utility.yul\":6634:6653   */\n      swap1\n      pop\n        /* \"#utility.yul\":6293:6659   */\n      swap2\n      swap1\n      pop\n      jump\t// out\n        /* \"#utility.yul\":6665:7031   */\n    tag_371:\n        /* \"#utility.yul\":6807:6810   */\n      0x00\n        /* \"#utility.yul\":6828:6895   */\n      tag_373\n        /* \"#utility.yul\":6892:6894   */\n      0x20\n        /* \"#utility.yul\":6887:6890   */\n      dup4\n        /* \"#utility.yul\":6828:6895   */\n      tag_368\n      jump\t// in\n    tag_373:\n        /* \"#utility.yul\":6821:6895   */\n      swap2\n      pop\n        /* \"#utility.yul\":6904:6997   */\n      tag_374\n        /* \"#utility.yul\":6993:6996   */\n      dup3\n        /* \"#utility.yul\":6904:6997   */\n      tag_375\n      jump\t// in\n    tag_374:\n        /* \"#utility.yul\":7022:7024   */\n      0x20\n        /* \"#utility.yul\":7017:7020   */\n      dup3\n        /* \"#utility.yul\":7013:7025   */\n      add\n        /* \"#utility.yul\":7006:7025   */\n      swap1\n      pop\n        /* \"#utility.yul\":6665:7031   */\n      swap2\n      swap1\n      pop\n      jump\t// out\n        /* \"#utility.yul\":7095:8144   */\n    tag_299:\n        /* \"#utility.yul\":7230:7234   */\n      0xa0\n        /* \"#utility.yul\":7225:7228   */\n      dup3\n        /* \"#utility.yul\":7221:7235   */\n      add\n        /* \"#utility.yul\":7325:7329   */\n      0x00\n        /* \"#utility.yul\":7318:7323   */\n      dup3\n        /* \"#utility.yul\":7314:7330   */\n      add\n        /* \"#utility.yul\":7308:7331   */\n      mload\n        /* \"#utility.yul\":7344:7407   */\n      tag_377\n        /* \"#utility.yul\":7401:7405   */\n      0x00\n        /* \"#utility.yul\":7396:7399   */\n      dup6\n        /* \"#utility.yul\":7392:7406   */\n      add\n        /* \"#utility.yul\":7378:7390   */\n      dup3\n        /* \"#utility.yul\":7344:7407   */\n      tag_303\n      jump\t// in\n    tag_377:\n        /* \"#utility.yul\":7245:7417   */\n      pop\n        /* \"#utility.yul\":7508:7512   */\n      0x20\n        /* \"#utility.yul\":7501:7506   */\n      dup3\n        /* \"#utility.yul\":7497:7513   */\n      add\n        /* \"#utility.yul\":7491:7514   */\n      mload\n        /* \"#utility.yul\":7527:7590   */\n      tag_378\n        /* \"#utility.yul\":7584:7588   */\n      0x20\n        /* \"#utility.yul\":7579:7582   */\n      dup6\n        /* \"#utility.yul\":7575:7589   */\n      add\n        /* \"#utility.yul\":7561:7573   */\n      dup3\n        /* \"#utility.yul\":7527:7590   */\n      tag_303\n      jump\t// in\n    tag_378:\n        /* \"#utility.yul\":7427:7600   */\n      pop\n        /* \"#utility.yul\":7684:7688   */\n      0x40\n        /* \"#utility.yul\":7677:7682   */\n      dup3\n        /* \"#utility.yul\":7673:7689   */\n      add\n        /* \"#utility.yul\":7667:7690   */\n      mload\n        /* \"#utility.yul\":7703:7766   */\n      tag_379\n        /* \"#utility.yul\":7760:7764   */\n      0x40\n        /* \"#utility.yul\":7755:7758   */\n      dup6\n        /* \"#utility.yul\":7751:7765   */\n      add\n        /* \"#utility.yul\":7737:7749   */\n      dup3\n        /* \"#utility.yul\":7703:7766   */\n      tag_303\n      jump\t// in\n    tag_379:\n        /* \"#utility.yul\":7610:7776   */\n      pop\n        /* \"#utility.yul\":7861:7865   */\n      0x60\n        /* \"#utility.yul\":7854:7859   */\n      dup3\n        /* \"#utility.yul\":7850:7866   */\n      add\n        /* \"#utility.yul\":7844:7867   */\n      mload\n        /* \"#utility.yul\":7880:7943   */\n      tag_380\n        /* \"#utility.yul\":7937:7941   */\n      0x60\n        /* \"#utility.yul\":7932:7935   */\n      dup6\n        /* \"#utility.yul\":7928:7942   */\n      add\n        /* \"#utility.yul\":7914:7926   */\n      dup3\n        /* \"#utility.yul\":7880:7943   */\n      tag_303\n      jump\t// in\n    tag_380:\n        /* \"#utility.yul\":7786:7953   */\n      pop\n        /* \"#utility.yul\":8045:8049   */\n      0x80\n        /* \"#utility.yul\":8038:8043   */\n      dup3\n        /* \"#utility.yul\":8034:8050   */\n      add\n        /* \"#utility.yul\":8028:8051   */\n      mload\n        /* \"#utility.yul\":8064:8127   */\n      tag_381\n        /* \"#utility.yul\":8121:8125   */\n      0x80\n        /* \"#utility.yul\":8116:8119   */\n      dup6\n        /* \"#utility.yul\":8112:8126   */\n      add\n        /* \"#utility.yul\":8098:8110   */\n      dup3\n        /* \"#utility.yul\":8064:8127   */\n      tag_295\n      jump\t// in\n    tag_381:\n        /* \"#utility.yul\":7963:8137   */\n      pop\n        /* \"#utility.yul\":7199:8144   */\n      pop\n        /* \"#utility.yul\":7095:8144   */\n      pop\n      pop\n      jump\t// out\n        /* \"#utility.yul\":8150:8258   */\n    tag_303:\n        /* \"#utility.yul\":8227:8251   */\n      tag_383\n        /* \"#utility.yul\":8245:8250   */\n      dup2\n        /* \"#utility.yul\":8227:8251   */\n      tag_384\n      jump\t// in\n    tag_383:\n        /* \"#utility.yul\":8222:8225   */\n      dup3\n        /* \"#utility.yul\":8215:8252   */\n      mstore\n        /* \"#utility.yul\":8150:8258   */\n      pop\n      pop\n      jump\t// out\n        /* \"#utility.yul\":8264:8382   */\n    tag_385:\n        /* \"#utility.yul\":8351:8375   */\n      tag_387\n        /* \"#utility.yul\":8369:8374   */\n      dup2\n        /* \"#utility.yul\":8351:8375   */\n      tag_384\n      jump\t// in\n    tag_387:\n        /* \"#utility.yul\":8346:8349   */\n      dup3\n        /* \"#utility.yul\":8339:8376   */\n      mstore\n        /* \"#utility.yul\":8264:8382   */\n      pop\n      pop\n      jump\t// out\n        /* \"#utility.yul\":8388:8545   */\n    tag_388:\n        /* \"#utility.yul\":8493:8538   */\n      tag_390\n        /* \"#utility.yul\":8513:8537   */\n      tag_391\n        /* \"#utility.yul\":8531:8536   */\n      dup3\n        /* \"#utility.yul\":8513:8537   */\n      tag_384\n      jump\t// in\n    tag_391:\n        /* \"#utility.yul\":8493:8538   */\n      tag_392\n      jump\t// in\n    tag_390:\n        /* \"#utility.yul\":8488:8491   */\n      dup3\n        /* \"#utility.yul\":8481:8539   */\n      mstore\n        /* \"#utility.yul\":8388:8545   */\n      pop\n      pop\n      jump\t// out\n        /* \"#utility.yul\":8551:9371   */\n    tag_256:\n        /* \"#utility.yul\":8775:8778   */\n      0x00\n        /* \"#utility.yul\":8790:8865   */\n      tag_394\n        /* \"#utility.yul\":8861:8864   */\n      dup3\n        /* \"#utility.yul\":8852:8858   */\n      dup9\n        /* \"#utility.yul\":8790:8865   */\n      tag_388\n      jump\t// in\n    tag_394:\n        /* \"#utility.yul\":8890:8892   */\n      0x20\n        /* \"#utility.yul\":8885:8888   */\n      dup3\n        /* \"#utility.yul\":8881:8893   */\n      add\n        /* \"#utility.yul\":8874:8893   */\n      swap2\n      pop\n        /* \"#utility.yul\":8903:8978   */\n      tag_395\n        /* \"#utility.yul\":8974:8977   */\n      dup3\n        /* \"#utility.yul\":8965:8971   */\n      dup8\n        /* \"#utility.yul\":8903:8978   */\n      tag_388\n      jump\t// in\n    tag_395:\n        /* \"#utility.yul\":9003:9005   */\n      0x20\n        /* \"#utility.yul\":8998:9001   */\n      dup3\n        /* \"#utility.yul\":8994:9006   */\n      add\n        /* \"#utility.yul\":8987:9006   */\n      swap2\n      pop\n        /* \"#utility.yul\":9016:9091   */\n      tag_396\n        /* \"#utility.yul\":9087:9090   */\n      dup3\n        /* \"#utility.yul\":9078:9084   */\n      dup7\n        /* \"#utility.yul\":9016:9091   */\n      tag_388\n      jump\t// in\n    tag_396:\n        /* \"#utility.yul\":9116:9118   */\n      0x20\n        /* \"#utility.yul\":9111:9114   */\n      dup3\n        /* \"#utility.yul\":9107:9119   */\n      add\n        /* \"#utility.yul\":9100:9119   */\n      swap2\n      pop\n        /* \"#utility.yul\":9129:9204   */\n      tag_397\n        /* \"#utility.yul\":9200:9203   */\n      dup3\n        /* \"#utility.yul\":9191:9197   */\n      dup6\n        /* \"#utility.yul\":9129:9204   */\n      tag_310\n      jump\t// in\n    tag_397:\n        /* \"#utility.yul\":9229:9231   */\n      0x14\n        /* \"#utility.yul\":9224:9227   */\n      dup3\n        /* \"#utility.yul\":9220:9232   */\n      add\n        /* \"#utility.yul\":9213:9232   */\n      swap2\n      pop\n        /* \"#utility.yul\":9242:9317   */\n      tag_398\n        /* \"#utility.yul\":9313:9316   */\n      dup3\n        /* \"#utility.yul\":9304:9310   */\n      dup5\n        /* \"#utility.yul\":9242:9317   */\n      tag_388\n      jump\t// in\n    tag_398:\n        /* \"#utility.yul\":9342:9344   */\n      0x20\n        /* \"#utility.yul\":9337:9340   */\n      dup3\n        /* \"#utility.yul\":9333:9345   */\n      add\n        /* \"#utility.yul\":9326:9345   */\n      swap2\n      pop\n        /* \"#utility.yul\":9362:9365   */\n      dup2\n        /* \"#utility.yul\":9355:9365   */\n      swap1\n      pop\n        /* \"#utility.yul\":8551:9371   */\n      swap7\n      swap6\n      pop\n      pop\n      pop\n      pop\n      pop\n      pop\n      jump\t// out\n        /* \"#utility.yul\":9377:9599   */\n    tag_72:\n        /* \"#utility.yul\":9470:9474   */\n      0x00\n        /* \"#utility.yul\":9508:9510   */\n      0x20\n        /* \"#utility.yul\":9497:9506   */\n      dup3\n        /* \"#utility.yul\":9493:9511   */\n      add\n        /* \"#utility.yul\":9485:9511   */\n      swap1\n      pop\n        /* \"#utility.yul\":9521:9592   */\n      tag_400\n        /* \"#utility.yul\":9589:9590   */\n      0x00\n        /* \"#utility.yul\":9578:9587   */\n      dup4\n        /* \"#utility.yul\":9574:9591   */\n      add\n        /* \"#utility.yul\":9565:9571   */\n      dup5\n        /* \"#utility.yul\":9521:9592   */\n      tag_307\n      jump\t// in\n    tag_400:\n        /* \"#utility.yul\":9377:9599   */\n      swap3\n      swap2\n      pop\n      pop\n      jump\t// out\n        /* \"#utility.yul\":9605:9937   */\n    tag_171:\n        /* \"#utility.yul\":9726:9730   */\n      0x00\n        /* \"#utility.yul\":9764:9766   */\n      0x40\n        /* \"#utility.yul\":9753:9762   */\n      dup3\n        /* \"#utility.yul\":9749:9767   */\n      add\n        /* \"#utility.yul\":9741:9767   */\n      swap1\n      pop\n        /* \"#utility.yul\":9777:9848   */\n      tag_402\n        /* \"#utility.yul\":9845:9846   */\n      0x00\n        /* \"#utility.yul\":9834:9843   */\n      dup4\n        /* \"#utility.yul\":9830:9847   */\n      add\n        /* \"#utility.yul\":9821:9827   */\n      dup6\n        /* \"#utility.yul\":9777:9848   */\n      tag_307\n      jump\t// in\n    tag_402:\n        /* \"#utility.yul\":9858:9930   */\n      tag_403\n        /* \"#utility.yul\":9926:9928   */\n      0x20\n        /* \"#utility.yul\":9915:9924   */\n      dup4\n        /* \"#utility.yul\":9911:9929   */\n      add\n        /* \"#utility.yul\":9902:9908   */\n      dup5\n        /* \"#utility.yul\":9858:9930   */\n      tag_385\n      jump\t// in\n    tag_403:\n        /* \"#utility.yul\":9605:9937   */\n      swap4\n      swap3\n      pop\n      pop\n      pop\n      jump\t// out\n        /* \"#utility.yul\":9943:10577   */\n    tag_43:\n        /* \"#utility.yul\":10164:10168   */\n      0x00\n        /* \"#utility.yul\":10202:10204   */\n      0x40\n        /* \"#utility.yul\":10191:10200   */\n      dup3\n        /* \"#utility.yul\":10187:10205   */\n      add\n        /* \"#utility.yul\":10179:10205   */\n      swap1\n      pop\n        /* \"#utility.yul\":10251:10260   */\n      dup2\n        /* \"#utility.yul\":10245:10249   */\n      dup2\n        /* \"#utility.yul\":10241:10261   */\n      sub\n        /* \"#utility.yul\":10237:10238   */\n      0x00\n        /* \"#utility.yul\":10226:10235   */\n      dup4\n        /* \"#utility.yul\":10222:10239   */\n      add\n        /* \"#utility.yul\":10215:10262   */\n      mstore\n        /* \"#utility.yul\":10279:10387   */\n      tag_405\n        /* \"#utility.yul\":10382:10386   */\n      dup2\n        /* \"#utility.yul\":10373:10379   */\n      dup6\n        /* \"#utility.yul\":10279:10387   */\n      tag_315\n      jump\t// in\n    tag_405:\n        /* \"#utility.yul\":10271:10387   */\n      swap1\n      pop\n        /* \"#utility.yul\":10434:10443   */\n      dup2\n        /* \"#utility.yul\":10428:10432   */\n      dup2\n        /* \"#utility.yul\":10424:10444   */\n      sub\n        /* \"#utility.yul\":10419:10421   */\n      0x20\n        /* \"#utility.yul\":10408:10417   */\n      dup4\n        /* \"#utility.yul\":10404:10422   */\n      add\n        /* \"#utility.yul\":10397:10445   */\n      mstore\n        /* \"#utility.yul\":10462:10570   */\n      tag_406\n        /* \"#utility.yul\":10565:10569   */\n      dup2\n        /* \"#utility.yul\":10556:10562   */\n      dup5\n        /* \"#utility.yul\":10462:10570   */\n      tag_343\n      jump\t// in\n    tag_406:\n        /* \"#utility.yul\":10454:10570   */\n      swap1\n      pop\n        /* \"#utility.yul\":9943:10577   */\n      swap4\n      swap3\n      pop\n      pop\n      pop\n      jump\t// out\n        /* \"#utility.yul\":10583:11052   */\n    tag_97:\n        /* \"#utility.yul\":10774:10778   */\n      0x00\n        /* \"#utility.yul\":10812:10814   */\n      0x20\n        /* \"#utility.yul\":10801:10810   */\n      dup3\n        /* \"#utility.yul\":10797:10815   */\n      add\n        /* \"#utility.yul\":10789:10815   */\n      swap1\n      pop\n        /* \"#utility.yul\":10861:10870   */\n      dup2\n        /* \"#utility.yul\":10855:10859   */\n      dup2\n        /* \"#utility.yul\":10851:10871   */\n      sub\n        /* \"#utility.yul\":10847:10848   */\n      0x00\n        /* \"#utility.yul\":10836:10845   */\n      dup4\n        /* \"#utility.yul\":10832:10849   */\n      add\n        /* \"#utility.yul\":10825:10872   */\n      mstore\n        /* \"#utility.yul\":10889:11045   */\n      tag_408\n        /* \"#utility.yul\":11040:11044   */\n      dup2\n        /* \"#utility.yul\":11031:11037   */\n      dup5\n        /* \"#utility.yul\":10889:11045   */\n      tag_329\n      jump\t// in\n    tag_408:\n        /* \"#utility.yul\":10881:11045   */\n      swap1\n      pop\n        /* \"#utility.yul\":10583:11052   */\n      swap3\n      swap2\n      pop\n      pop\n      jump\t// out\n        /* \"#utility.yul\":11058:11268   */\n    tag_59:\n        /* \"#utility.yul\":11145:11149   */\n      0x00\n        /* \"#utility.yul\":11183:11185   */\n      0x20\n        /* \"#utility.yul\":11172:11181   */\n      dup3\n        /* \"#utility.yul\":11168:11186   */\n      add\n        /* \"#utility.yul\":11160:11186   */\n      swap1\n      pop\n        /* \"#utility.yul\":11196:11261   */\n      tag_410\n        /* \"#utility.yul\":11258:11259   */\n      0x00\n        /* \"#utility.yul\":11247:11256   */\n      dup4\n        /* \"#utility.yul\":11243:11260   */\n      add\n        /* \"#utility.yul\":11234:11240   */\n      dup5\n        /* \"#utility.yul\":11196:11261   */\n      tag_357\n      jump\t// in\n    tag_410:\n        /* \"#utility.yul\":11058:11268   */\n      swap3\n      swap2\n      pop\n      pop\n      jump\t// out\n        /* \"#utility.yul\":11274:11524   */\n    tag_53:\n        /* \"#utility.yul\":11381:11385   */\n      0x00\n        /* \"#utility.yul\":11419:11421   */\n      0x20\n        /* \"#utility.yul\":11408:11417   */\n      dup3\n        /* \"#utility.yul\":11404:11422   */\n      add\n        /* \"#utility.yul\":11396:11422   */\n      swap1\n      pop\n        /* \"#utility.yul\":11432:11517   */\n      tag_412\n        /* \"#utility.yul\":11514:11515   */\n      0x00\n        /* \"#utility.yul\":11503:11512   */\n      dup4\n        /* \"#utility.yul\":11499:11516   */\n      add\n        /* \"#utility.yul\":11490:11496   */\n      dup5\n        /* \"#utility.yul\":11432:11517   */\n      tag_361\n      jump\t// in\n    tag_412:\n        /* \"#utility.yul\":11274:11524   */\n      swap3\n      swap2\n      pop\n      pop\n      jump\t// out\n        /* \"#utility.yul\":11530:11949   */\n    tag_238:\n        /* \"#utility.yul\":11696:11700   */\n      0x00\n        /* \"#utility.yul\":11734:11736   */\n      0x20\n        /* \"#utility.yul\":11723:11732   */\n      dup3\n        /* \"#utility.yul\":11719:11737   */\n      add\n        /* \"#utility.yul\":11711:11737   */\n      swap1\n      pop\n        /* \"#utility.yul\":11783:11792   */\n      dup2\n        /* \"#utility.yul\":11777:11781   */\n      dup2\n        /* \"#utility.yul\":11773:11793   */\n      sub\n        /* \"#utility.yul\":11769:11770   */\n      0x00\n        /* \"#utility.yul\":11758:11767   */\n      dup4\n        /* \"#utility.yul\":11754:11771   */\n      add\n        /* \"#utility.yul\":11747:11794   */\n      mstore\n        /* \"#utility.yul\":11811:11942   */\n      tag_414\n        /* \"#utility.yul\":11937:11941   */\n      dup2\n        /* \"#utility.yul\":11811:11942   */\n      tag_365\n      jump\t// in\n    tag_414:\n        /* \"#utility.yul\":11803:11942   */\n      swap1\n      pop\n        /* \"#utility.yul\":11530:11949   */\n      swap2\n      swap1\n      pop\n      jump\t// out\n        /* \"#utility.yul\":11955:12374   */\n    tag_166:\n        /* \"#utility.yul\":12121:12125   */\n      0x00\n        /* \"#utility.yul\":12159:12161   */\n      0x20\n        /* \"#utility.yul\":12148:12157   */\n      dup3\n        /* \"#utility.yul\":12144:12162   */\n      add\n        /* \"#utility.yul\":12136:12162   */\n      swap1\n      pop\n        /* \"#utility.yul\":12208:12217   */\n      dup2\n        /* \"#utility.yul\":12202:12206   */\n      dup2\n        /* \"#utility.yul\":12198:12218   */\n      sub\n        /* \"#utility.yul\":12194:12195   */\n      0x00\n        /* \"#utility.yul\":12183:12192   */\n      dup4\n        /* \"#utility.yul\":12179:12196   */\n      add\n        /* \"#utility.yul\":12172:12219   */\n      mstore\n        /* \"#utility.yul\":12236:12367   */\n      tag_416\n        /* \"#utility.yul\":12362:12366   */\n      dup2\n        /* \"#utility.yul\":12236:12367   */\n      tag_371\n      jump\t// in\n    tag_416:\n        /* \"#utility.yul\":12228:12367   */\n      swap1\n      pop\n        /* \"#utility.yul\":11955:12374   */\n      swap2\n      swap1\n      pop\n      jump\t// out\n        /* \"#utility.yul\":12380:12602   */\n    tag_33:\n        /* \"#utility.yul\":12473:12477   */\n      0x00\n        /* \"#utility.yul\":12511:12513   */\n      0x20\n        /* \"#utility.yul\":12500:12509   */\n      dup3\n        /* \"#utility.yul\":12496:12514   */\n      add\n        /* \"#utility.yul\":12488:12514   */\n      swap1\n      pop\n        /* \"#utility.yul\":12524:12595   */\n      tag_418\n        /* \"#utility.yul\":12592:12593   */\n      0x00\n        /* \"#utility.yul\":12581:12590   */\n      dup4\n        /* \"#utility.yul\":12577:12594   */\n      add\n        /* \"#utility.yul\":12568:12574   */\n      dup5\n        /* \"#utility.yul\":12524:12595   */\n      tag_385\n      jump\t// in\n    tag_418:\n        /* \"#utility.yul\":12380:12602   */\n      swap3\n      swap2\n      pop\n      pop\n      jump\t// out\n        /* \"#utility.yul\":12608:12940   */\n    tag_108:\n        /* \"#utility.yul\":12729:12733   */\n      0x00\n        /* \"#utility.yul\":12767:12769   */\n      0x40\n        /* \"#utility.yul\":12756:12765   */\n      dup3\n        /* \"#utility.yul\":12752:12770   */\n      add\n        /* \"#utility.yul\":12744:12770   */\n      swap1\n      pop\n        /* \"#utility.yul\":12780:12851   */\n      tag_420\n        /* \"#utility.yul\":12848:12849   */\n      0x00\n        /* \"#utility.yul\":12837:12846   */\n      dup4\n        /* \"#utility.yul\":12833:12850   */\n      add\n        /* \"#utility.yul\":12824:12830   */\n      dup6\n        /* \"#utility.yul\":12780:12851   */\n      tag_385\n      jump\t// in\n    tag_420:\n        /* \"#utility.yul\":12861:12933   */\n      tag_421\n        /* \"#utility.yul\":12929:12931   */\n      0x20\n        /* \"#utility.yul\":12918:12927   */\n      dup4\n        /* \"#utility.yul\":12914:12932   */\n      add\n        /* \"#utility.yul\":12905:12911   */\n      dup5\n        /* \"#utility.yul\":12861:12933   */\n      tag_307\n      jump\t// in\n    tag_421:\n        /* \"#utility.yul\":12608:12940   */\n      swap4\n      swap3\n      pop\n      pop\n      pop\n      jump\t// out\n        /* \"#utility.yul\":12946:13610   */\n    tag_88:\n        /* \"#utility.yul\":13151:13155   */\n      0x00\n        /* \"#utility.yul\":13189:13192   */\n      0xa0\n        /* \"#utility.yul\":13178:13187   */\n      dup3\n        /* \"#utility.yul\":13174:13193   */\n      add\n        /* \"#utility.yul\":13166:13193   */\n      swap1\n      pop\n        /* \"#utility.yul\":13203:13274   */\n      tag_423\n        /* \"#utility.yul\":13271:13272   */\n      0x00\n        /* \"#utility.yul\":13260:13269   */\n      dup4\n        /* \"#utility.yul\":13256:13273   */\n      add\n        /* \"#utility.yul\":13247:13253   */\n      dup9\n        /* \"#utility.yul\":13203:13274   */\n      tag_385\n      jump\t// in\n    tag_423:\n        /* \"#utility.yul\":13284:13356   */\n      tag_424\n        /* \"#utility.yul\":13352:13354   */\n      0x20\n        /* \"#utility.yul\":13341:13350   */\n      dup4\n        /* \"#utility.yul\":13337:13355   */\n      add\n        /* \"#utility.yul\":13328:13334   */\n      dup8\n        /* \"#utility.yul\":13284:13356   */\n      tag_385\n      jump\t// in\n    tag_424:\n        /* \"#utility.yul\":13366:13438   */\n      tag_425\n        /* \"#utility.yul\":13434:13436   */\n      0x40\n        /* \"#utility.yul\":13423:13432   */\n      dup4\n        /* \"#utility.yul\":13419:13437   */\n      add\n        /* \"#utility.yul\":13410:13416   */\n      dup7\n        /* \"#utility.yul\":13366:13438   */\n      tag_385\n      jump\t// in\n    tag_425:\n        /* \"#utility.yul\":13448:13520   */\n      tag_426\n        /* \"#utility.yul\":13516:13518   */\n      0x60\n        /* \"#utility.yul\":13505:13514   */\n      dup4\n        /* \"#utility.yul\":13501:13519   */\n      add\n        /* \"#utility.yul\":13492:13498   */\n      dup6\n        /* \"#utility.yul\":13448:13520   */\n      tag_385\n      jump\t// in\n    tag_426:\n        /* \"#utility.yul\":13530:13603   */\n      tag_427\n        /* \"#utility.yul\":13598:13601   */\n      0x80\n        /* \"#utility.yul\":13587:13596   */\n      dup4\n        /* \"#utility.yul\":13583:13602   */\n      add\n        /* \"#utility.yul\":13574:13580   */\n      dup5\n        /* \"#utility.yul\":13530:13603   */\n      tag_307\n      jump\t// in\n    tag_427:\n        /* \"#utility.yul\":12946:13610   */\n      swap7\n      swap6\n      pop\n      pop\n      pop\n      pop\n      pop\n      pop\n      jump\t// out\n        /* \"#utility.yul\":13697:13829   */\n    tag_322:\n        /* \"#utility.yul\":13764:13768   */\n      0x00\n        /* \"#utility.yul\":13787:13790   */\n      dup2\n        /* \"#utility.yul\":13779:13790   */\n      swap1\n      pop\n        /* \"#utility.yul\":13817:13821   */\n      0x20\n        /* \"#utility.yul\":13812:13815   */\n      dup3\n        /* \"#utility.yul\":13808:13822   */\n      add\n        /* \"#utility.yul\":13800:13822   */\n      swap1\n      pop\n        /* \"#utility.yul\":13697:13829   */\n      swap2\n      swap1\n      pop\n      jump\t// out\n        /* \"#utility.yul\":13835:13991   */\n    tag_336:\n        /* \"#utility.yul\":13926:13930   */\n      0x00\n        /* \"#utility.yul\":13949:13952   */\n      dup2\n        /* \"#utility.yul\":13941:13952   */\n      swap1\n      pop\n        /* \"#utility.yul\":13979:13983   */\n      0x20\n        /* \"#utility.yul\":13974:13977   */\n      dup3\n        /* \"#utility.yul\":13970:13984   */\n      add\n        /* \"#utility.yul\":13962:13984   */\n      swap1\n      pop\n        /* \"#utility.yul\":13835:13991   */\n      swap2\n      swap1\n      pop\n      jump\t// out\n        /* \"#utility.yul\":13997:14129   */\n    tag_350:\n        /* \"#utility.yul\":14064:14068   */\n      0x00\n        /* \"#utility.yul\":14087:14090   */\n      dup2\n        /* \"#utility.yul\":14079:14090   */\n      swap1\n      pop\n        /* \"#utility.yul\":14117:14121   */\n      0x20\n        /* \"#utility.yul\":14112:14115   */\n      dup3\n        /* \"#utility.yul\":14108:14122   */\n      add\n        /* \"#utility.yul\":14100:14122   */\n      swap1\n      pop\n        /* \"#utility.yul\":13997:14129   */\n      swap2\n      swap1\n      pop\n      jump\t// out\n        /* \"#utility.yul\":14135:14249   */\n    tag_318:\n        /* \"#utility.yul\":14202:14208   */\n      0x00\n        /* \"#utility.yul\":14236:14241   */\n      dup2\n        /* \"#utility.yul\":14230:14242   */\n      mload\n        /* \"#utility.yul\":14220:14242   */\n      swap1\n      pop\n        /* \"#utility.yul\":14135:14249   */\n      swap2\n      swap1\n      pop\n      jump\t// out\n        /* \"#utility.yul\":14255:14393   */\n    tag_332:\n        /* \"#utility.yul\":14346:14352   */\n      0x00\n        /* \"#utility.yul\":14380:14385   */\n      dup2\n        /* \"#utility.yul\":14374:14386   */\n      mload\n        /* \"#utility.yul\":14364:14386   */\n      swap1\n      pop\n        /* \"#utility.yul\":14255:14393   */\n      swap2\n      swap1\n      pop\n      jump\t// out\n        /* \"#utility.yul\":14399:14513   */\n    tag_346:\n        /* \"#utility.yul\":14466:14472   */\n      0x00\n        /* \"#utility.yul\":14500:14505   */\n      dup2\n        /* \"#utility.yul\":14494:14506   */\n      mload\n        /* \"#utility.yul\":14484:14506   */\n      swap1\n      pop\n        /* \"#utility.yul\":14399:14513   */\n      swap2\n      swap1\n      pop\n      jump\t// out\n        /* \"#utility.yul\":14519:14632   */\n    tag_328:\n        /* \"#utility.yul\":14589:14593   */\n      0x00\n        /* \"#utility.yul\":14621:14625   */\n      0x20\n        /* \"#utility.yul\":14616:14619   */\n      dup3\n        /* \"#utility.yul\":14612:14626   */\n      add\n        /* \"#utility.yul\":14604:14626   */\n      swap1\n      pop\n        /* \"#utility.yul\":14519:14632   */\n      swap2\n      swap1\n      pop\n      jump\t// out\n        /* \"#utility.yul\":14638:14775   */\n    tag_342:\n        /* \"#utility.yul\":14732:14736   */\n      0x00\n        /* \"#utility.yul\":14764:14768   */\n      0x20\n        /* \"#utility.yul\":14759:14762   */\n      dup3\n        /* \"#utility.yul\":14755:14769   */\n      add\n        /* \"#utility.yul\":14747:14769   */\n      swap1\n      pop\n        /* \"#utility.yul\":14638:14775   */\n      swap2\n      swap1\n      pop\n      jump\t// out\n        /* \"#utility.yul\":14781:14894   */\n    tag_356:\n        /* \"#utility.yul\":14851:14855   */\n      0x00\n        /* \"#utility.yul\":14883:14887   */\n      0x20\n        /* \"#utility.yul\":14878:14881   */\n      dup3\n        /* \"#utility.yul\":14874:14888   */\n      add\n        /* \"#utility.yul\":14866:14888   */\n      swap1\n      pop\n        /* \"#utility.yul\":14781:14894   */\n      swap2\n      swap1\n      pop\n      jump\t// out\n        /* \"#utility.yul\":14900:15084   */\n    tag_320:\n        /* \"#utility.yul\":14999:15010   */\n      0x00\n        /* \"#utility.yul\":15033:15039   */\n      dup3\n        /* \"#utility.yul\":15028:15031   */\n      dup3\n        /* \"#utility.yul\":15021:15040   */\n      mstore\n        /* \"#utility.yul\":15073:15077   */\n      0x20\n        /* \"#utility.yul\":15068:15071   */\n      dup3\n        /* \"#utility.yul\":15064:15078   */\n      add\n        /* \"#utility.yul\":15049:15078   */\n      swap1\n      pop\n        /* \"#utility.yul\":14900:15084   */\n      swap3\n      swap2\n      pop\n      pop\n      jump\t// out\n        /* \"#utility.yul\":15090:15298   */\n    tag_334:\n        /* \"#utility.yul\":15213:15224   */\n      0x00\n        /* \"#utility.yul\":15247:15253   */\n      dup3\n        /* \"#utility.yul\":15242:15245   */\n      dup3\n        /* \"#utility.yul\":15235:15254   */\n      mstore\n        /* \"#utility.yul\":15287:15291   */\n      0x20\n        /* \"#utility.yul\":15282:15285   */\n      dup3\n        /* \"#utility.yul\":15278:15292   */\n      add\n        /* \"#utility.yul\":15263:15292   */\n      swap1\n      pop\n        /* \"#utility.yul\":15090:15298   */\n      swap3\n      swap2\n      pop\n      pop\n      jump\t// out\n        /* \"#utility.yul\":15304:15488   */\n    tag_348:\n        /* \"#utility.yul\":15403:15414   */\n      0x00\n        /* \"#utility.yul\":15437:15443   */\n      dup3\n        /* \"#utility.yul\":15432:15435   */\n      dup3\n        /* \"#utility.yul\":15425:15444   */\n      mstore\n        /* \"#utility.yul\":15477:15481   */\n      0x20\n        /* \"#utility.yul\":15472:15475   */\n      dup3\n        /* \"#utility.yul\":15468:15482   */\n      add\n        /* \"#utility.yul\":15453:15482   */\n      swap1\n      pop\n        /* \"#utility.yul\":15304:15488   */\n      swap3\n      swap2\n      pop\n      pop\n      jump\t// out\n        /* \"#utility.yul\":15494:15663   */\n    tag_368:\n        /* \"#utility.yul\":15578:15589   */\n      0x00\n        /* \"#utility.yul\":15612:15618   */\n      dup3\n        /* \"#utility.yul\":15607:15610   */\n      dup3\n        /* \"#utility.yul\":15600:15619   */\n      mstore\n        /* \"#utility.yul\":15652:15656   */\n      0x20\n        /* \"#utility.yul\":15647:15650   */\n      dup3\n        /* \"#utility.yul\":15643:15657   */\n      add\n        /* \"#utility.yul\":15628:15657   */\n      swap1\n      pop\n        /* \"#utility.yul\":15494:15663   */\n      swap3\n      swap2\n      pop\n      pop\n      jump\t// out\n        /* \"#utility.yul\":15669:15974   */\n    tag_153:\n        /* \"#utility.yul\":15709:15712   */\n      0x00\n        /* \"#utility.yul\":15728:15748   */\n      tag_444\n        /* \"#utility.yul\":15746:15747   */\n      dup3\n        /* \"#utility.yul\":15728:15748   */\n      tag_384\n      jump\t// in\n    tag_444:\n        /* \"#utility.yul\":15723:15748   */\n      swap2\n      pop\n        /* \"#utility.yul\":15762:15782   */\n      tag_445\n        /* \"#utility.yul\":15780:15781   */\n      dup4\n        /* \"#utility.yul\":15762:15782   */\n      tag_384\n      jump\t// in\n    tag_445:\n        /* \"#utility.yul\":15757:15782   */\n      swap3\n      pop\n        /* \"#utility.yul\":15916:15917   */\n      dup3\n        /* \"#utility.yul\":15848:15914   */\n      0xffffffffffffffffffffffffffffffffffffffffffffffffffffffffffffffff\n        /* \"#utility.yul\":15844:15918   */\n      sub\n        /* \"#utility.yul\":15841:15842   */\n      dup3\n        /* \"#utility.yul\":15838:15919   */\n      gt\n        /* \"#utility.yul\":15835:15942   */\n      iszero\n      tag_446\n      jumpi\n        /* \"#utility.yul\":15922:15940   */\n      tag_447\n      tag_448\n      jump\t// in\n    tag_447:\n        /* \"#utility.yul\":15835:15942   */\n    tag_446:\n        /* \"#utility.yul\":15966:15967   */\n      dup3\n        /* \"#utility.yul\":15963:15964   */\n      dup3\n        /* \"#utility.yul\":15959:15968   */\n      add\n        /* \"#utility.yul\":15952:15968   */\n      swap1\n      pop\n        /* \"#utility.yul\":15669:15974   */\n      swap3\n      swap2\n      pop\n      pop\n      jump\t// out\n        /* \"#utility.yul\":15980:16171   */\n    tag_191:\n        /* \"#utility.yul\":16020:16024   */\n      0x00\n        /* \"#utility.yul\":16040:16060   */\n      tag_450\n        /* \"#utility.yul\":16058:16059   */\n      dup3\n        /* \"#utility.yul\":16040:16060   */\n      tag_384\n      jump\t// in\n    tag_450:\n        /* \"#utility.yul\":16035:16060   */\n      swap2\n      pop\n        /* \"#utility.yul\":16074:16094   */\n      tag_451\n        /* \"#utility.yul\":16092:16093   */\n      dup4\n        /* \"#utility.yul\":16074:16094   */\n      tag_384\n      jump\t// in\n    tag_451:\n        /* \"#utility.yul\":16069:16094   */\n      swap3\n      pop\n        /* \"#utility.yul\":16113:16114   */\n      dup3\n        /* \"#utility.yul\":16110:16111   */\n      dup3\n        /* \"#utility.yul\":16107:16115   */\n      lt\n        /* \"#utility.yul\":16104:16138   */\n      iszero\n      tag_452\n      jumpi\n        /* \"#utility.yul\":16118:16136   */\n      tag_453\n      tag_448\n      jump\t// in\n    tag_453:\n        /* \"#utility.yul\":16104:16138   */\n    tag_452:\n        /* \"#utility.yul\":16163:16164   */\n      dup3\n        /* \"#utility.yul\":16160:16161   */\n      dup3\n        /* \"#utility.yul\":16156:16165   */\n      sub\n        /* \"#utility.yul\":16148:16165   */\n      swap1\n      pop\n        /* \"#utility.yul\":15980:16171   */\n      swap3\n      swap2\n      pop\n      pop\n      jump\t// out\n        /* \"#utility.yul\":16177:16273   */\n    tag_306:\n        /* \"#utility.yul\":16214:16221   */\n      0x00\n        /* \"#utility.yul\":16243:16267   */\n      tag_455\n        /* \"#utility.yul\":16261:16266   */\n      dup3\n        /* \"#utility.yul\":16243:16267   */\n      tag_456\n      jump\t// in\n    tag_455:\n        /* \"#utility.yul\":16232:16267   */\n      swap1\n      pop\n        /* \"#utility.yul\":16177:16273   */\n      swap2\n      swap1\n      pop\n      jump\t// out\n        /* \"#utility.yul\":16279:16369   */\n    tag_360:\n        /* \"#utility.yul\":16313:16320   */\n      0x00\n        /* \"#utility.yul\":16356:16361   */\n      dup2\n        /* \"#utility.yul\":16349:16362   */\n      iszero\n        /* \"#utility.yul\":16342:16363   */\n      iszero\n        /* \"#utility.yul\":16331:16363   */\n      swap1\n      pop\n        /* \"#utility.yul\":16279:16369   */\n      swap2\n      swap1\n      pop\n      jump\t// out\n        /* \"#utility.yul\":16375:16501   */\n    tag_456:\n        /* \"#utility.yul\":16412:16419   */\n      0x00\n        /* \"#utility.yul\":16452:16494   */\n      0xffffffffffffffffffffffffffffffffffffffff\n        /* \"#utility.yul\":16445:16450   */\n      dup3\n        /* \"#utility.yul\":16441:16495   */\n      and\n        /* \"#utility.yul\":16430:16495   */\n      swap1\n      pop\n        /* \"#utility.yul\":16375:16501   */\n      swap2\n      swap1\n      pop\n      jump\t// out\n        /* \"#utility.yul\":16507:16584   */\n    tag_384:\n        /* \"#utility.yul\":16544:16551   */\n      0x00\n        /* \"#utility.yul\":16573:16578   */\n      dup2\n        /* \"#utility.yul\":16562:16578   */\n      swap1\n      pop\n        /* \"#utility.yul\":16507:16584   */\n      swap2\n      swap1\n      pop\n      jump\t// out\n        /* \"#utility.yul\":16590:16730   */\n    tag_364:\n        /* \"#utility.yul\":16654:16663   */\n      0x00\n        /* \"#utility.yul\":16687:16724   */\n      tag_461\n        /* \"#utility.yul\":16718:16723   */\n      dup3\n        /* \"#utility.yul\":16687:16724   */\n      tag_462\n      jump\t// in\n    tag_461:\n        /* \"#utility.yul\":16674:16724   */\n      swap1\n      pop\n        /* \"#utility.yul\":16590:16730   */\n      swap2\n      swap1\n      pop\n      jump\t// out\n        /* \"#utility.yul\":16736:16862   */\n    tag_462:\n        /* \"#utility.yul\":16786:16795   */\n      0x00\n        /* \"#utility.yul\":16819:16856   */\n      tag_464\n        /* \"#utility.yul\":16850:16855   */\n      dup3\n        /* \"#utility.yul\":16819:16856   */\n      tag_465\n      jump\t// in\n    tag_464:\n        /* \"#utility.yul\":16806:16856   */\n      swap1\n      pop\n        /* \"#utility.yul\":16736:16862   */\n      swap2\n      swap1\n      pop\n      jump\t// out\n        /* \"#utility.yul\":16868:16981   */\n    tag_465:\n        /* \"#utility.yul\":16918:16927   */\n      0x00\n        /* \"#utility.yul\":16951:16975   */\n      tag_467\n        /* \"#utility.yul\":16969:16974   */\n      dup3\n        /* \"#utility.yul\":16951:16975   */\n      tag_456\n      jump\t// in\n    tag_467:\n        /* \"#utility.yul\":16938:16975   */\n      swap1\n      pop\n        /* \"#utility.yul\":16868:16981   */\n      swap2\n      swap1\n      pop\n      jump\t// out\n        /* \"#utility.yul\":16987:17220   */\n    tag_124:\n        /* \"#utility.yul\":17026:17029   */\n      0x00\n        /* \"#utility.yul\":17049:17073   */\n      tag_469\n        /* \"#utility.yul\":17067:17072   */\n      dup3\n        /* \"#utility.yul\":17049:17073   */\n      tag_384\n      jump\t// in\n    tag_469:\n        /* \"#utility.yul\":17040:17073   */\n      swap2\n      pop\n        /* \"#utility.yul\":17095:17161   */\n      0xffffffffffffffffffffffffffffffffffffffffffffffffffffffffffffffff\n        /* \"#utility.yul\":17088:17093   */\n      dup3\n        /* \"#utility.yul\":17085:17162   */\n      eq\n        /* \"#utility.yul\":17082:17185   */\n      iszero\n      tag_470\n      jumpi\n        /* \"#utility.yul\":17165:17183   */\n      tag_471\n      tag_448\n      jump\t// in\n    tag_471:\n        /* \"#utility.yul\":17082:17185   */\n    tag_470:\n        /* \"#utility.yul\":17212:17213   */\n      0x01\n        /* \"#utility.yul\":17205:17210   */\n      dup3\n        /* \"#utility.yul\":17201:17214   */\n      add\n        /* \"#utility.yul\":17194:17214   */\n      swap1\n      pop\n        /* \"#utility.yul\":16987:17220   */\n      swap2\n      swap1\n      pop\n      jump\t// out\n        /* \"#utility.yul\":17226:17326   */\n    tag_314:\n        /* \"#utility.yul\":17265:17272   */\n      0x00\n        /* \"#utility.yul\":17294:17320   */\n      tag_473\n        /* \"#utility.yul\":17314:17319   */\n      dup3\n        /* \"#utility.yul\":17294:17320   */\n      tag_474\n      jump\t// in\n    tag_473:\n        /* \"#utility.yul\":17283:17320   */\n      swap1\n      pop\n        /* \"#utility.yul\":17226:17326   */\n      swap2\n      swap1\n      pop\n      jump\t// out\n        /* \"#utility.yul\":17332:17426   */\n    tag_474:\n        /* \"#utility.yul\":17371:17378   */\n      0x00\n        /* \"#utility.yul\":17400:17420   */\n      tag_476\n        /* \"#utility.yul\":17414:17419   */\n      dup3\n        /* \"#utility.yul\":17400:17420   */\n      tag_477\n      jump\t// in\n    tag_476:\n        /* \"#utility.yul\":17389:17420   */\n      swap1\n      pop\n        /* \"#utility.yul\":17332:17426   */\n      swap2\n      swap1\n      pop\n      jump\t// out\n        /* \"#utility.yul\":17432:17511   */\n    tag_392:\n        /* \"#utility.yul\":17471:17478   */\n      0x00\n        /* \"#utility.yul\":17500:17505   */\n      dup2\n        /* \"#utility.yul\":17489:17505   */\n      swap1\n      pop\n        /* \"#utility.yul\":17432:17511   */\n      swap2\n      swap1\n      pop\n      jump\t// out\n        /* \"#utility.yul\":17517:17693   */\n    tag_244:\n        /* \"#utility.yul\":17549:17550   */\n      0x00\n        /* \"#utility.yul\":17566:17586   */\n      tag_480\n        /* \"#utility.yul\":17584:17585   */\n      dup3\n        /* \"#utility.yul\":17566:17586   */\n      tag_384\n      jump\t// in\n    tag_480:\n        /* \"#utility.yul\":17561:17586   */\n      swap2\n      pop\n        /* \"#utility.yul\":17600:17620   */\n      tag_481\n        /* \"#utility.yul\":17618:17619   */\n      dup4\n        /* \"#utility.yul\":17600:17620   */\n      tag_384\n      jump\t// in\n    tag_481:\n        /* \"#utility.yul\":17595:17620   */\n      swap3\n      pop\n        /* \"#utility.yul\":17639:17640   */\n      dup3\n        /* \"#utility.yul\":17629:17664   */\n      tag_482\n      jumpi\n        /* \"#utility.yul\":17644:17662   */\n      tag_483\n      tag_484\n      jump\t// in\n    tag_483:\n        /* \"#utility.yul\":17629:17664   */\n    tag_482:\n        /* \"#utility.yul\":17685:17686   */\n      dup3\n        /* \"#utility.yul\":17682:17683   */\n      dup3\n        /* \"#utility.yul\":17678:17687   */\n      mod\n        /* \"#utility.yul\":17673:17687   */\n      swap1\n      pop\n        /* \"#utility.yul\":17517:17693   */\n      swap3\n      swap2\n      pop\n      pop\n      jump\t// out\n        /* \"#utility.yul\":17699:17879   */\n    tag_448:\n        /* \"#utility.yul\":17747:17824   */\n      0x4e487b7100000000000000000000000000000000000000000000000000000000\n        /* \"#utility.yul\":17744:17745   */\n      0x00\n        /* \"#utility.yul\":17737:17825   */\n      mstore\n        /* \"#utility.yul\":17844:17848   */\n      0x11\n        /* \"#utility.yul\":17841:17842   */\n      0x04\n        /* \"#utility.yul\":17834:17849   */\n      mstore\n        /* \"#utility.yul\":17868:17872   */\n      0x24\n        /* \"#utility.yul\":17865:17866   */\n      0x00\n        /* \"#utility.yul\":17858:17873   */\n      revert\n        /* \"#utility.yul\":17885:18065   */\n    tag_484:\n        /* \"#utility.yul\":17933:18010   */\n      0x4e487b7100000000000000000000000000000000000000000000000000000000\n        /* \"#utility.yul\":17930:17931   */\n      0x00\n        /* \"#utility.yul\":17923:18011   */\n      mstore\n        /* \"#utility.yul\":18030:18034   */\n      0x12\n        /* \"#utility.yul\":18027:18028   */\n      0x04\n        /* \"#utility.yul\":18020:18035   */\n      mstore\n        /* \"#utility.yul\":18054:18058   */\n      0x24\n        /* \"#utility.yul\":18051:18052   */\n      0x00\n        /* \"#utility.yul\":18044:18059   */\n      revert\n        /* \"#utility.yul\":18071:18251   */\n    tag_198:\n        /* \"#utility.yul\":18119:18196   */\n      0x4e487b7100000000000000000000000000000000000000000000000000000000\n        /* \"#utility.yul\":18116:18117   */\n      0x00\n        /* \"#utility.yul\":18109:18197   */\n      mstore\n        /* \"#utility.yul\":18216:18220   */\n      0x31\n        /* \"#utility.yul\":18213:18214   */\n      0x04\n        /* \"#utility.yul\":18206:18221   */\n      mstore\n        /* \"#utility.yul\":18240:18244   */\n      0x24\n        /* \"#utility.yul\":18237:18238   */\n      0x00\n        /* \"#utility.yul\":18230:18245   */\n      revert\n        /* \"#utility.yul\":18257:18437   */\n    tag_120:\n        /* \"#utility.yul\":18305:18382   */\n      0x4e487b7100000000000000000000000000000000000000000000000000000000\n        /* \"#utility.yul\":18302:18303   */\n      0x00\n        /* \"#utility.yul\":18295:18383   */\n      mstore\n        /* \"#utility.yul\":18402:18406   */\n      0x32\n        /* \"#utility.yul\":18399:18400   */\n      0x04\n        /* \"#utility.yul\":18392:18407   */\n      mstore\n        /* \"#utility.yul\":18426:18430   */\n      0x24\n        /* \"#utility.yul\":18423:18424   */\n      0x00\n        /* \"#utility.yul\":18416:18431   */\n      revert\n        /* \"#utility.yul\":18443:18623   */\n    tag_130:\n        /* \"#utility.yul\":18491:18568   */\n      0x4e487b7100000000000000000000000000000000000000000000000000000000\n        /* \"#utility.yul\":18488:18489   */\n      0x00\n        /* \"#utility.yul\":18481:18569   */\n      mstore\n        /* \"#utility.yul\":18588:18592   */\n      0x41\n        /* \"#utility.yul\":18585:18586   */\n      0x04\n        /* \"#utility.yul\":18578:18593   */\n      mstore\n        /* \"#utility.yul\":18612:18616   */\n      0x24\n        /* \"#utility.yul\":18609:18610   */\n      0x00\n        /* \"#utility.yul\":18602:18617   */\n      revert\n        /* \"#utility.yul\":18752:18869   */\n    tag_272:\n        /* \"#utility.yul\":18861:18862   */\n      0x00\n        /* \"#utility.yul\":18858:18859   */\n      dup1\n        /* \"#utility.yul\":18851:18863   */\n      revert\n        /* \"#utility.yul\":18875:18969   */\n    tag_477:\n        /* \"#utility.yul\":18908:18916   */\n      0x00\n        /* \"#utility.yul\":18956:18961   */\n      dup2\n        /* \"#utility.yul\":18952:18954   */\n      0x60\n        /* \"#utility.yul\":18948:18962   */\n      shl\n        /* \"#utility.yul\":18927:18962   */\n      swap1\n      pop\n        /* \"#utility.yul\":18875:18969   */\n      swap2\n      swap1\n      pop\n      jump\t// out\n        /* \"#utility.yul\":18975:19200   */\n    tag_370:\n        /* \"#utility.yul\":19115:19149   */\n      0x4f776e61626c653a206e6577206f776e657220697320746865207a65726f2061\n        /* \"#utility.yul\":19111:19112   */\n      0x00\n        /* \"#utility.yul\":19103:19109   */\n      dup3\n        /* \"#utility.yul\":19099:19113   */\n      add\n        /* \"#utility.yul\":19092:19150   */\n      mstore\n        /* \"#utility.yul\":19184:19192   */\n      0x6464726573730000000000000000000000000000000000000000000000000000\n        /* \"#utility.yul\":19179:19181   */\n      0x20\n        /* \"#utility.yul\":19171:19177   */\n      dup3\n        /* \"#utility.yul\":19167:19182   */\n      add\n        /* \"#utility.yul\":19160:19193   */\n      mstore\n        /* \"#utility.yul\":18975:19200   */\n      pop\n      jump\t// out\n        /* \"#utility.yul\":19206:19388   */\n    tag_375:\n        /* \"#utility.yul\":19346:19380   */\n      0x4f776e61626c653a2063616c6c6572206973206e6f7420746865206f776e6572\n        /* \"#utility.yul\":19342:19343   */\n      0x00\n        /* \"#utility.yul\":19334:19340   */\n      dup3\n        /* \"#utility.yul\":19330:19344   */\n      add\n        /* \"#utility.yul\":19323:19381   */\n      mstore\n        /* \"#utility.yul\":19206:19388   */\n      pop\n      jump\t// out\n        /* \"#utility.yul\":19394:19516   */\n    tag_261:\n        /* \"#utility.yul\":19467:19491   */\n      tag_497\n        /* \"#utility.yul\":19485:19490   */\n      dup2\n        /* \"#utility.yul\":19467:19491   */\n      tag_306\n      jump\t// in\n    tag_497:\n        /* \"#utility.yul\":19460:19465   */\n      dup2\n        /* \"#utility.yul\":19457:19492   */\n      eq\n        /* \"#utility.yul\":19447:19510   */\n      tag_498\n      jumpi\n        /* \"#utility.yul\":19506:19507   */\n      0x00\n        /* \"#utility.yul\":19503:19504   */\n      dup1\n        /* \"#utility.yul\":19496:19508   */\n      revert\n        /* \"#utility.yul\":19447:19510   */\n    tag_498:\n        /* \"#utility.yul\":19394:19516   */\n      pop\n      jump\t// out\n        /* \"#utility.yul\":19522:19644   */\n    tag_265:\n        /* \"#utility.yul\":19595:19619   */\n      tag_500\n        /* \"#utility.yul\":19613:19618   */\n      dup2\n        /* \"#utility.yul\":19595:19619   */\n      tag_384\n      jump\t// in\n    tag_500:\n        /* \"#utility.yul\":19588:19593   */\n      dup2\n        /* \"#utility.yul\":19585:19620   */\n      eq\n        /* \"#utility.yul\":19575:19638   */\n      tag_501\n      jumpi\n        /* \"#utility.yul\":19634:19635   */\n      0x00\n        /* \"#utility.yul\":19631:19632   */\n      dup1\n        /* \"#utility.yul\":19624:19636   */\n      revert\n        /* \"#utility.yul\":19575:19638   */\n    tag_501:\n        /* \"#utility.yul\":19522:19644   */\n      pop\n      jump\t// out\n\n    auxdata: 0xa2646970667358221220641f0ddc64cca840e5a609a35bab65d7966551884803856895010f1434593f9764736f6c63430008070033\n}\n",
				"bytecode": {
					"linkReferences": {},
					"object": "6080604052731702e76a5be119e332805dc7c11be26f3857c31d600460006101000a81548173ffffffffffffffffffffffffffffffffffffffff021916908373ffffffffffffffffffffffffffffffffffffffff16021790555073e9e7cea3dedca5984780bafc599bd69add087d56600560006101000a81548173ffffffffffffffffffffffffffffffffffffffff021916908373ffffffffffffffffffffffffffffffffffffffff1602179055503480156100ba57600080fd5b506100d76100cc6100dc60201b60201c565b6100e460201b60201c565b6101a8565b600033905090565b60008060009054906101000a900473ffffffffffffffffffffffffffffffffffffffff169050816000806101000a81548173ffffffffffffffffffffffffffffffffffffffff021916908373ffffffffffffffffffffffffffffffffffffffff1602179055508173ffffffffffffffffffffffffffffffffffffffff168173ffffffffffffffffffffffffffffffffffffffff167f8be0079c531659141344cd1fd0a4f28419497f9722a3daafe3b4186f6b6457e060405160405180910390a35050565b611dfa806101b76000396000f3fe608060405234801561001057600080fd5b50600436106101425760003560e01c80638da5cb5b116100b8578063b657dd651161007c578063b657dd651461035a578063bc15cdf01461038a578063c4740a95146103ba578063f2fde38b146103d6578063f737d21d146103f2578063f9cee0bd1461042357610142565b80638da5cb5b1461029e5780639b3e4552146102bc5780639f10a990146102da578063a59460dc1461030a578063ac128f4f1461032657610142565b8063454f7b8f1161010a578063454f7b8f146101ee578063484f4ea91461020c5780635bedc3901461022a5780636fbb5a861461025a578063715018a61461027657806376636d201461028057610142565b80630d98827014610147578063119b22b314610177578063158977de146101955780633b98bc65146101b3578063443b80a1146101d2575b600080fd5b610161600480360381019061015c919061143a565b610441565b60405161016e919061191e565b60405180910390f35b61017f610472565b60405161018c919061191e565b60405180910390f35b61019d610478565b6040516101aa919061191e565b60405180910390f35b6101bb610549565b6040516101c992919061184f565b60405180910390f35b6101ec60048036038101906101e7919061143a565b610772565b005b6101f6610880565b604051610203919061191e565b60405180910390f35b610214610886565b60405161022191906118c3565b60405180910390f35b610244600480360381019061023f919061140d565b6108ac565b60405161025191906118a8565b60405180910390f35b610274600480360381019061026f91906114d4565b6108c6565b005b61027e610aaf565b005b610288610b37565b604051610295919061191e565b60405180910390f35b6102a6610b3d565b6040516102b3919061180b565b60405180910390f35b6102c4610b66565b6040516102d191906118c3565b60405180910390f35b6102f460048036038101906102ef919061140d565b610b8c565b604051610301919061191e565b60405180910390f35b610324600480360381019061031f919061143a565b610bd8565b005b610340600480360381019061033b919061147a565b610de7565b604051610351959493929190611962565b60405180910390f35b610374600480360381019061036f919061147a565b610e3d565b604051610381919061180b565b60405180910390f35b6103a4600480360381019061039f91906114d4565b610e70565b6040516103b19190611886565b60405180910390f35b6103d460048036038101906103cf919061140d565b611065565b005b6103f060048036038101906103eb919061140d565b611080565b005b61040c6004803603810190610407919061147a565b611178565b60405161041a929190611939565b60405180910390f35b61042b6111ce565b604051610438919061191e565b60405180910390f35b6008602052816000526040600020818154811061045d57600080fd5b90600052602060002001600091509150505481565b60025481565b6000805b6001548110156105455760006007600083815260200190815260200160002060009054906101000a900473ffffffffffffffffffffffffffffffffffffffff169050600860008273ffffffffffffffffffffffffffffffffffffffff1673ffffffffffffffffffffffffffffffffffffffff1681526020019081526020016000206000815481106105105761050f611cae565b5b906000526020600020015482141561053157828061052d90611b79565b9350505b50808061053d90611b79565b91505061047c565b5090565b6060806000610556610478565b90508067ffffffffffffffff81111561057257610571611cdd565b5b6040519080825280602002602001820160405280156105a05781602001602082028036833780820191505090505b5092508067ffffffffffffffff8111156105bd576105bc611cdd565b5b6040519080825280602002602001820160405280156105eb5781602001602082028036833780820191505090505b5091506000805b60015481101561076b5760006007600083815260200190815260200160002060009054906101000a900473ffffffffffffffffffffffffffffffffffffffff169050600860008273ffffffffffffffffffffffffffffffffffffffff1673ffffffffffffffffffffffffffffffffffffffff16815260200190815260200160002060008154811061068657610685611cae565b5b906000526020600020015482141561075757808684815181106106ac576106ab611cae565b5b602002602001019073ffffffffffffffffffffffffffffffffffffffff16908173ffffffffffffffffffffffffffffffffffffffff1681525050600860008273ffffffffffffffffffffffffffffffffffffffff1673ffffffffffffffffffffffffffffffffffffffff1681526020019081526020016000208054905085848151811061073c5761073b611cae565b5b602002602001018181525050828061075390611b79565b9350505b50808061076390611b79565b9150506105f2565b5050509091565b60005b81811015610862578260076000836001546107909190611a71565b815260200190815260200160002060006101000a81548173ffffffffffffffffffffffffffffffffffffffff021916908373ffffffffffffffffffffffffffffffffffffffff160217905550600860008473ffffffffffffffffffffffffffffffffffffffff1673ffffffffffffffffffffffffffffffffffffffff168152602001908152602001600020816001546108299190611a71565b9080600181540180825580915050600190039060005260206000200160009091909190915055808061085a90611b79565b915050610775565b5080600160008282546108759190611a71565b925050819055505050565b60035481565b600560009054906101000a900473ffffffffffffffffffffffffffffffffffffffff1681565b6000806108b883610b8c565b905060008111915050919050565b6108ce611280565b73ffffffffffffffffffffffffffffffffffffffff166108ec610b3d565b73ffffffffffffffffffffffffffffffffffffffff1614610942576040517f08c379a0000000000000000000000000000000000000000000000000000000008152600401610939906118fe565b60405180910390fd5b60006007600084815260200190815260200160002060009054906101000a900473ffffffffffffffffffffffffffffffffffffffff1690506040518060a0016040528060015481526020018481526020018381526020014281526020018273ffffffffffffffffffffffffffffffffffffffff168152506006600060025481526020019081526020016000206000820151816000015560208201518160010155604082015181600201556060820151816003015560808201518160040160006101000a81548173ffffffffffffffffffffffffffffffffffffffff021916908373ffffffffffffffffffffffffffffffffffffffff1602179055509050508160036000828254610a529190611a71565b9250508190555060026000815480929190610a6c90611b79565b91905055507f2e798dd4337e515c79b64c40e1a93baa1aefbd9180ac7905e02508edd7971e508183604051610aa2929190611826565b60405180910390a1505050565b610ab7611280565b73ffffffffffffffffffffffffffffffffffffffff16610ad5610b3d565b73ffffffffffffffffffffffffffffffffffffffff1614610b2b576040517f08c379a0000000000000000000000000000000000000000000000000000000008152600401610b22906118fe565b60405180910390fd5b610b356000611288565b565b60015481565b60008060009054906101000a900473ffffffffffffffffffffffffffffffffffffffff16905090565b600460009054906101000a900473ffffffffffffffffffffffffffffffffffffffff1681565b6000600860008373ffffffffffffffffffffffffffffffffffffffff1673ffffffffffffffffffffffffffffffffffffffff168152602001908152602001600020805490509050919050565b6000610be383610b8c565b90506000811415610bf45750610de3565b80821115610c00578091505b6000600190505b828111610dc7576000600860008673ffffffffffffffffffffffffffffffffffffffff1673ffffffffffffffffffffffffffffffffffffffff1681526020019081526020016000206001600860008873ffffffffffffffffffffffffffffffffffffffff1673ffffffffffffffffffffffffffffffffffffffff16815260200190815260200160002080549050610c9e9190611ac7565b81548110610caf57610cae611cae565b5b906000526020600020015490506007600083600154610cce9190611ac7565b815260200190815260200160002060009054906101000a900473ffffffffffffffffffffffffffffffffffffffff166007600083815260200190815260200160002060006101000a81548173ffffffffffffffffffffffffffffffffffffffff021916908373ffffffffffffffffffffffffffffffffffffffff160217905550600860008673ffffffffffffffffffffffffffffffffffffffff1673ffffffffffffffffffffffffffffffffffffffff168152602001908152602001600020805480610d9d57610d9c611c7f565b5b60019003818190600052602060002001600090559055508080610dbf90611b79565b915050610c07565b508160016000828254610dda9190611ac7565b92505081905550505b5050565b60066020528060005260406000206000915090508060000154908060010154908060020154908060030154908060040160009054906101000a900473ffffffffffffffffffffffffffffffffffffffff16905085565b60076020528060005260406000206000915054906101000a900473ffffffffffffffffffffffffffffffffffffffff1681565b606060006002541415610ed957600067ffffffffffffffff811115610e9857610e97611cdd565b5b604051908082528060200260200182016040528015610ed157816020015b610ebe611389565b815260200190600190039081610eb65790505b50905061105f565b6002548210610ef4576001600254610ef19190611ac7565b91505b600060018484610f049190611ac7565b610f0e9190611a71565b905060008167ffffffffffffffff811115610f2c57610f2b611cdd565b5b604051908082528060200260200182016040528015610f6557816020015b610f52611389565b815260200190600190039081610f4a5790505b50925060008590505b84811161105b57600660008288610f859190611a71565b81526020019081526020016000206040518060a0016040529081600082015481526020016001820154815260200160028201548152602001600382015481526020016004820160009054906101000a900473ffffffffffffffffffffffffffffffffffffffff1673ffffffffffffffffffffffffffffffffffffffff1673ffffffffffffffffffffffffffffffffffffffff168152505084838151811061102f5761102e611cae565b5b6020026020010181905250818061104590611b79565b925050808061105390611b79565b915050610f6e565b5050505b92915050565b600061107082610b8c565b905061107c8282610bd8565b5050565b611088611280565b73ffffffffffffffffffffffffffffffffffffffff166110a6610b3d565b73ffffffffffffffffffffffffffffffffffffffff16146110fc576040517f08c379a00000000000000000000000000000000000000000000000000000000081526004016110f3906118fe565b60405180910390fd5b600073ffffffffffffffffffffffffffffffffffffffff168173ffffffffffffffffffffffffffffffffffffffff16141561116c576040517f08c379a0000000000000000000000000000000000000000000000000000000008152600401611163906118de565b60405180910390fd5b61117581611288565b50565b6000806001546111878461134c565b6111919190611bf0565b91506007600083815260200190815260200160002060009054906101000a900473ffffffffffffffffffffffffffffffffffffffff169050915091565b6000600460009054906101000a900473ffffffffffffffffffffffffffffffffffffffff1673ffffffffffffffffffffffffffffffffffffffff166370a08231306040518263ffffffff1660e01b815260040161122b919061180b565b60206040518083038186803b15801561124357600080fd5b505afa158015611257573d6000803e3d6000fd5b505050506040513d601f19601f8201168201806040525081019061127b91906114a7565b905090565b600033905090565b60008060009054906101000a900473ffffffffffffffffffffffffffffffffffffffff169050816000806101000a81548173ffffffffffffffffffffffffffffffffffffffff021916908373ffffffffffffffffffffffffffffffffffffffff1602179055508173ffffffffffffffffffffffffffffffffffffffff168173ffffffffffffffffffffffffffffffffffffffff167f8be0079c531659141344cd1fd0a4f28419497f9722a3daafe3b4186f6b6457e060405160405180910390a35050565b600081425a336001546040516020016113699594939291906117ac565b6040516020818303038152906040528051906020012060001c9050919050565b6040518060a0016040528060008152602001600081526020016000815260200160008152602001600073ffffffffffffffffffffffffffffffffffffffff1681525090565b6000813590506113dd81611d96565b92915050565b6000813590506113f281611dad565b92915050565b60008151905061140781611dad565b92915050565b60006020828403121561142357611422611d0c565b5b6000611431848285016113ce565b91505092915050565b6000806040838503121561145157611450611d0c565b5b600061145f858286016113ce565b9250506020611470858286016113e3565b9150509250929050565b6000602082840312156114905761148f611d0c565b5b600061149e848285016113e3565b91505092915050565b6000602082840312156114bd576114bc611d0c565b5b60006114cb848285016113f8565b91505092915050565b600080604083850312156114eb576114ea611d0c565b5b60006114f9858286016113e3565b925050602061150a858286016113e3565b9150509250929050565b6000611520838361155c565b60208301905092915050565b6000611538838361170f565b60a08301905092915050565b60006115508383611777565b60208301905092915050565b61156581611afb565b82525050565b61157481611afb565b82525050565b61158b61158682611afb565b611bc2565b82525050565b600061159c826119e5565b6115a68185611a2d565b93506115b1836119b5565b8060005b838110156115e25781516115c98882611514565b97506115d483611a06565b9250506001810190506115b5565b5085935050505092915050565b60006115fa826119f0565b6116048185611a3e565b935061160f836119c5565b8060005b83811015611640578151611627888261152c565b975061163283611a13565b925050600181019050611613565b5085935050505092915050565b6000611658826119fb565b6116628185611a4f565b935061166d836119d5565b8060005b8381101561169e5781516116858882611544565b975061169083611a20565b925050600181019050611671565b5085935050505092915050565b6116b481611b0d565b82525050565b6116c381611b43565b82525050565b60006116d6602683611a60565b91506116e182611d1e565b604082019050919050565b60006116f9602083611a60565b915061170482611d6d565b602082019050919050565b60a0820160008201516117256000850182611777565b5060208201516117386020850182611777565b50604082015161174b6040850182611777565b50606082015161175e6060850182611777565b506080820151611771608085018261155c565b50505050565b61178081611b39565b82525050565b61178f81611b39565b82525050565b6117a66117a182611b39565b611be6565b82525050565b60006117b88288611795565b6020820191506117c88287611795565b6020820191506117d88286611795565b6020820191506117e8828561157a565b6014820191506117f88284611795565b6020820191508190509695505050505050565b6000602082019050611820600083018461156b565b92915050565b600060408201905061183b600083018561156b565b6118486020830184611786565b9392505050565b600060408201905081810360008301526118698185611591565b9050818103602083015261187d818461164d565b90509392505050565b600060208201905081810360008301526118a081846115ef565b905092915050565b60006020820190506118bd60008301846116ab565b92915050565b60006020820190506118d860008301846116ba565b92915050565b600060208201905081810360008301526118f7816116c9565b9050919050565b60006020820190508181036000830152611917816116ec565b9050919050565b60006020820190506119336000830184611786565b92915050565b600060408201905061194e6000830185611786565b61195b602083018461156b565b9392505050565b600060a0820190506119776000830188611786565b6119846020830187611786565b6119916040830186611786565b61199e6060830185611786565b6119ab608083018461156b565b9695505050505050565b6000819050602082019050919050565b6000819050602082019050919050565b6000819050602082019050919050565b600081519050919050565b600081519050919050565b600081519050919050565b6000602082019050919050565b6000602082019050919050565b6000602082019050919050565b600082825260208201905092915050565b600082825260208201905092915050565b600082825260208201905092915050565b600082825260208201905092915050565b6000611a7c82611b39565b9150611a8783611b39565b9250827fffffffffffffffffffffffffffffffffffffffffffffffffffffffffffffffff03821115611abc57611abb611c21565b5b828201905092915050565b6000611ad282611b39565b9150611add83611b39565b925082821015611af057611aef611c21565b5b828203905092915050565b6000611b0682611b19565b9050919050565b60008115159050919050565b600073ffffffffffffffffffffffffffffffffffffffff82169050919050565b6000819050919050565b6000611b4e82611b55565b9050919050565b6000611b6082611b67565b9050919050565b6000611b7282611b19565b9050919050565b6000611b8482611b39565b91507fffffffffffffffffffffffffffffffffffffffffffffffffffffffffffffffff821415611bb757611bb6611c21565b5b600182019050919050565b6000611bcd82611bd4565b9050919050565b6000611bdf82611d11565b9050919050565b6000819050919050565b6000611bfb82611b39565b9150611c0683611b39565b925082611c1657611c15611c50565b5b828206905092915050565b7f4e487b7100000000000000000000000000000000000000000000000000000000600052601160045260246000fd5b7f4e487b7100000000000000000000000000000000000000000000000000000000600052601260045260246000fd5b7f4e487b7100000000000000000000000000000000000000000000000000000000600052603160045260246000fd5b7f4e487b7100000000000000000000000000000000000000000000000000000000600052603260045260246000fd5b7f4e487b7100000000000000000000000000000000000000000000000000000000600052604160045260246000fd5b600080fd5b60008160601b9050919050565b7f4f776e61626c653a206e6577206f776e657220697320746865207a65726f206160008201527f6464726573730000000000000000000000000000000000000000000000000000602082015250565b7f4f776e61626c653a2063616c6c6572206973206e6f7420746865206f776e6572600082015250565b611d9f81611afb565b8114611daa57600080fd5b50565b611db681611b39565b8114611dc157600080fd5b5056fea2646970667358221220641f0ddc64cca840e5a609a35bab65d7966551884803856895010f1434593f9764736f6c63430008070033",
					"opcodes": "PUSH1 0x80 PUSH1 0x40 MSTORE PUSH20 0x1702E76A5BE119E332805DC7C11BE26F3857C31D PUSH1 0x4 PUSH1 0x0 PUSH2 0x100 EXP DUP2 SLOAD DUP2 PUSH20 0xFFFFFFFFFFFFFFFFFFFFFFFFFFFFFFFFFFFFFFFF MUL NOT AND SWAP1 DUP4 PUSH20 0xFFFFFFFFFFFFFFFFFFFFFFFFFFFFFFFFFFFFFFFF AND MUL OR SWAP1 SSTORE POP PUSH20 0xE9E7CEA3DEDCA5984780BAFC599BD69ADD087D56 PUSH1 0x5 PUSH1 0x0 PUSH2 0x100 EXP DUP2 SLOAD DUP2 PUSH20 0xFFFFFFFFFFFFFFFFFFFFFFFFFFFFFFFFFFFFFFFF MUL NOT AND SWAP1 DUP4 PUSH20 0xFFFFFFFFFFFFFFFFFFFFFFFFFFFFFFFFFFFFFFFF AND MUL OR SWAP1 SSTORE POP CALLVALUE DUP1 ISZERO PUSH2 0xBA JUMPI PUSH1 0x0 DUP1 REVERT JUMPDEST POP PUSH2 0xD7 PUSH2 0xCC PUSH2 0xDC PUSH1 0x20 SHL PUSH1 0x20 SHR JUMP JUMPDEST PUSH2 0xE4 PUSH1 0x20 SHL PUSH1 0x20 SHR JUMP JUMPDEST PUSH2 0x1A8 JUMP JUMPDEST PUSH1 0x0 CALLER SWAP1 POP SWAP1 JUMP JUMPDEST PUSH1 0x0 DUP1 PUSH1 0x0 SWAP1 SLOAD SWAP1 PUSH2 0x100 EXP SWAP1 DIV PUSH20 0xFFFFFFFFFFFFFFFFFFFFFFFFFFFFFFFFFFFFFFFF AND SWAP1 POP DUP2 PUSH1 0x0 DUP1 PUSH2 0x100 EXP DUP2 SLOAD DUP2 PUSH20 0xFFFFFFFFFFFFFFFFFFFFFFFFFFFFFFFFFFFFFFFF MUL NOT AND SWAP1 DUP4 PUSH20 0xFFFFFFFFFFFFFFFFFFFFFFFFFFFFFFFFFFFFFFFF AND MUL OR SWAP1 SSTORE POP DUP2 PUSH20 0xFFFFFFFFFFFFFFFFFFFFFFFFFFFFFFFFFFFFFFFF AND DUP2 PUSH20 0xFFFFFFFFFFFFFFFFFFFFFFFFFFFFFFFFFFFFFFFF AND PUSH32 0x8BE0079C531659141344CD1FD0A4F28419497F9722A3DAAFE3B4186F6B6457E0 PUSH1 0x40 MLOAD PUSH1 0x40 MLOAD DUP1 SWAP2 SUB SWAP1 LOG3 POP POP JUMP JUMPDEST PUSH2 0x1DFA DUP1 PUSH2 0x1B7 PUSH1 0x0 CODECOPY PUSH1 0x0 RETURN INVALID PUSH1 0x80 PUSH1 0x40 MSTORE CALLVALUE DUP1 ISZERO PUSH2 0x10 JUMPI PUSH1 0x0 DUP1 REVERT JUMPDEST POP PUSH1 0x4 CALLDATASIZE LT PUSH2 0x142 JUMPI PUSH1 0x0 CALLDATALOAD PUSH1 0xE0 SHR DUP1 PUSH4 0x8DA5CB5B GT PUSH2 0xB8 JUMPI DUP1 PUSH4 0xB657DD65 GT PUSH2 0x7C JUMPI DUP1 PUSH4 0xB657DD65 EQ PUSH2 0x35A JUMPI DUP1 PUSH4 0xBC15CDF0 EQ PUSH2 0x38A JUMPI DUP1 PUSH4 0xC4740A95 EQ PUSH2 0x3BA JUMPI DUP1 PUSH4 0xF2FDE38B EQ PUSH2 0x3D6 JUMPI DUP1 PUSH4 0xF737D21D EQ PUSH2 0x3F2 JUMPI DUP1 PUSH4 0xF9CEE0BD EQ PUSH2 0x423 JUMPI PUSH2 0x142 JUMP JUMPDEST DUP1 PUSH4 0x8DA5CB5B EQ PUSH2 0x29E JUMPI DUP1 PUSH4 0x9B3E4552 EQ PUSH2 0x2BC JUMPI DUP1 PUSH4 0x9F10A990 EQ PUSH2 0x2DA JUMPI DUP1 PUSH4 0xA59460DC EQ PUSH2 0x30A JUMPI DUP1 PUSH4 0xAC128F4F EQ PUSH2 0x326 JUMPI PUSH2 0x142 JUMP JUMPDEST DUP1 PUSH4 0x454F7B8F GT PUSH2 0x10A JUMPI DUP1 PUSH4 0x454F7B8F EQ PUSH2 0x1EE JUMPI DUP1 PUSH4 0x484F4EA9 EQ PUSH2 0x20C JUMPI DUP1 PUSH4 0x5BEDC390 EQ PUSH2 0x22A JUMPI DUP1 PUSH4 0x6FBB5A86 EQ PUSH2 0x25A JUMPI DUP1 PUSH4 0x715018A6 EQ PUSH2 0x276 JUMPI DUP1 PUSH4 0x76636D20 EQ PUSH2 0x280 JUMPI PUSH2 0x142 JUMP JUMPDEST DUP1 PUSH4 0xD988270 EQ PUSH2 0x147 JUMPI DUP1 PUSH4 0x119B22B3 EQ PUSH2 0x177 JUMPI DUP1 PUSH4 0x158977DE EQ PUSH2 0x195 JUMPI DUP1 PUSH4 0x3B98BC65 EQ PUSH2 0x1B3 JUMPI DUP1 PUSH4 0x443B80A1 EQ PUSH2 0x1D2 JUMPI JUMPDEST PUSH1 0x0 DUP1 REVERT JUMPDEST PUSH2 0x161 PUSH1 0x4 DUP1 CALLDATASIZE SUB DUP2 ADD SWAP1 PUSH2 0x15C SWAP2 SWAP1 PUSH2 0x143A JUMP JUMPDEST PUSH2 0x441 JUMP JUMPDEST PUSH1 0x40 MLOAD PUSH2 0x16E SWAP2 SWAP1 PUSH2 0x191E JUMP JUMPDEST PUSH1 0x40 MLOAD DUP1 SWAP2 SUB SWAP1 RETURN JUMPDEST PUSH2 0x17F PUSH2 0x472 JUMP JUMPDEST PUSH1 0x40 MLOAD PUSH2 0x18C SWAP2 SWAP1 PUSH2 0x191E JUMP JUMPDEST PUSH1 0x40 MLOAD DUP1 SWAP2 SUB SWAP1 RETURN JUMPDEST PUSH2 0x19D PUSH2 0x478 JUMP JUMPDEST PUSH1 0x40 MLOAD PUSH2 0x1AA SWAP2 SWAP1 PUSH2 0x191E JUMP JUMPDEST PUSH1 0x40 MLOAD DUP1 SWAP2 SUB SWAP1 RETURN JUMPDEST PUSH2 0x1BB PUSH2 0x549 JUMP JUMPDEST PUSH1 0x40 MLOAD PUSH2 0x1C9 SWAP3 SWAP2 SWAP1 PUSH2 0x184F JUMP JUMPDEST PUSH1 0x40 MLOAD DUP1 SWAP2 SUB SWAP1 RETURN JUMPDEST PUSH2 0x1EC PUSH1 0x4 DUP1 CALLDATASIZE SUB DUP2 ADD SWAP1 PUSH2 0x1E7 SWAP2 SWAP1 PUSH2 0x143A JUMP JUMPDEST PUSH2 0x772 JUMP JUMPDEST STOP JUMPDEST PUSH2 0x1F6 PUSH2 0x880 JUMP JUMPDEST PUSH1 0x40 MLOAD PUSH2 0x203 SWAP2 SWAP1 PUSH2 0x191E JUMP JUMPDEST PUSH1 0x40 MLOAD DUP1 SWAP2 SUB SWAP1 RETURN JUMPDEST PUSH2 0x214 PUSH2 0x886 JUMP JUMPDEST PUSH1 0x40 MLOAD PUSH2 0x221 SWAP2 SWAP1 PUSH2 0x18C3 JUMP JUMPDEST PUSH1 0x40 MLOAD DUP1 SWAP2 SUB SWAP1 RETURN JUMPDEST PUSH2 0x244 PUSH1 0x4 DUP1 CALLDATASIZE SUB DUP2 ADD SWAP1 PUSH2 0x23F SWAP2 SWAP1 PUSH2 0x140D JUMP JUMPDEST PUSH2 0x8AC JUMP JUMPDEST PUSH1 0x40 MLOAD PUSH2 0x251 SWAP2 SWAP1 PUSH2 0x18A8 JUMP JUMPDEST PUSH1 0x40 MLOAD DUP1 SWAP2 SUB SWAP1 RETURN JUMPDEST PUSH2 0x274 PUSH1 0x4 DUP1 CALLDATASIZE SUB DUP2 ADD SWAP1 PUSH2 0x26F SWAP2 SWAP1 PUSH2 0x14D4 JUMP JUMPDEST PUSH2 0x8C6 JUMP JUMPDEST STOP JUMPDEST PUSH2 0x27E PUSH2 0xAAF JUMP JUMPDEST STOP JUMPDEST PUSH2 0x288 PUSH2 0xB37 JUMP JUMPDEST PUSH1 0x40 MLOAD PUSH2 0x295 SWAP2 SWAP1 PUSH2 0x191E JUMP JUMPDEST PUSH1 0x40 MLOAD DUP1 SWAP2 SUB SWAP1 RETURN JUMPDEST PUSH2 0x2A6 PUSH2 0xB3D JUMP JUMPDEST PUSH1 0x40 MLOAD PUSH2 0x2B3 SWAP2 SWAP1 PUSH2 0x180B JUMP JUMPDEST PUSH1 0x40 MLOAD DUP1 SWAP2 SUB SWAP1 RETURN JUMPDEST PUSH2 0x2C4 PUSH2 0xB66 JUMP JUMPDEST PUSH1 0x40 MLOAD PUSH2 0x2D1 SWAP2 SWAP1 PUSH2 0x18C3 JUMP JUMPDEST PUSH1 0x40 MLOAD DUP1 SWAP2 SUB SWAP1 RETURN JUMPDEST PUSH2 0x2F4 PUSH1 0x4 DUP1 CALLDATASIZE SUB DUP2 ADD SWAP1 PUSH2 0x2EF SWAP2 SWAP1 PUSH2 0x140D JUMP JUMPDEST PUSH2 0xB8C JUMP JUMPDEST PUSH1 0x40 MLOAD PUSH2 0x301 SWAP2 SWAP1 PUSH2 0x191E JUMP JUMPDEST PUSH1 0x40 MLOAD DUP1 SWAP2 SUB SWAP1 RETURN JUMPDEST PUSH2 0x324 PUSH1 0x4 DUP1 CALLDATASIZE SUB DUP2 ADD SWAP1 PUSH2 0x31F SWAP2 SWAP1 PUSH2 0x143A JUMP JUMPDEST PUSH2 0xBD8 JUMP JUMPDEST STOP JUMPDEST PUSH2 0x340 PUSH1 0x4 DUP1 CALLDATASIZE SUB DUP2 ADD SWAP1 PUSH2 0x33B SWAP2 SWAP1 PUSH2 0x147A JUMP JUMPDEST PUSH2 0xDE7 JUMP JUMPDEST PUSH1 0x40 MLOAD PUSH2 0x351 SWAP6 SWAP5 SWAP4 SWAP3 SWAP2 SWAP1 PUSH2 0x1962 JUMP JUMPDEST PUSH1 0x40 MLOAD DUP1 SWAP2 SUB SWAP1 RETURN JUMPDEST PUSH2 0x374 PUSH1 0x4 DUP1 CALLDATASIZE SUB DUP2 ADD SWAP1 PUSH2 0x36F SWAP2 SWAP1 PUSH2 0x147A JUMP JUMPDEST PUSH2 0xE3D JUMP JUMPDEST PUSH1 0x40 MLOAD PUSH2 0x381 SWAP2 SWAP1 PUSH2 0x180B JUMP JUMPDEST PUSH1 0x40 MLOAD DUP1 SWAP2 SUB SWAP1 RETURN JUMPDEST PUSH2 0x3A4 PUSH1 0x4 DUP1 CALLDATASIZE SUB DUP2 ADD SWAP1 PUSH2 0x39F SWAP2 SWAP1 PUSH2 0x14D4 JUMP JUMPDEST PUSH2 0xE70 JUMP JUMPDEST PUSH1 0x40 MLOAD PUSH2 0x3B1 SWAP2 SWAP1 PUSH2 0x1886 JUMP JUMPDEST PUSH1 0x40 MLOAD DUP1 SWAP2 SUB SWAP1 RETURN JUMPDEST PUSH2 0x3D4 PUSH1 0x4 DUP1 CALLDATASIZE SUB DUP2 ADD SWAP1 PUSH2 0x3CF SWAP2 SWAP1 PUSH2 0x140D JUMP JUMPDEST PUSH2 0x1065 JUMP JUMPDEST STOP JUMPDEST PUSH2 0x3F0 PUSH1 0x4 DUP1 CALLDATASIZE SUB DUP2 ADD SWAP1 PUSH2 0x3EB SWAP2 SWAP1 PUSH2 0x140D JUMP JUMPDEST PUSH2 0x1080 JUMP JUMPDEST STOP JUMPDEST PUSH2 0x40C PUSH1 0x4 DUP1 CALLDATASIZE SUB DUP2 ADD SWAP1 PUSH2 0x407 SWAP2 SWAP1 PUSH2 0x147A JUMP JUMPDEST PUSH2 0x1178 JUMP JUMPDEST PUSH1 0x40 MLOAD PUSH2 0x41A SWAP3 SWAP2 SWAP1 PUSH2 0x1939 JUMP JUMPDEST PUSH1 0x40 MLOAD DUP1 SWAP2 SUB SWAP1 RETURN JUMPDEST PUSH2 0x42B PUSH2 0x11CE JUMP JUMPDEST PUSH1 0x40 MLOAD PUSH2 0x438 SWAP2 SWAP1 PUSH2 0x191E JUMP JUMPDEST PUSH1 0x40 MLOAD DUP1 SWAP2 SUB SWAP1 RETURN JUMPDEST PUSH1 0x8 PUSH1 0x20 MSTORE DUP2 PUSH1 0x0 MSTORE PUSH1 0x40 PUSH1 0x0 KECCAK256 DUP2 DUP2 SLOAD DUP2 LT PUSH2 0x45D JUMPI PUSH1 0x0 DUP1 REVERT JUMPDEST SWAP1 PUSH1 0x0 MSTORE PUSH1 0x20 PUSH1 0x0 KECCAK256 ADD PUSH1 0x0 SWAP2 POP SWAP2 POP POP SLOAD DUP2 JUMP JUMPDEST PUSH1 0x2 SLOAD DUP2 JUMP JUMPDEST PUSH1 0x0 DUP1 JUMPDEST PUSH1 0x1 SLOAD DUP2 LT ISZERO PUSH2 0x545 JUMPI PUSH1 0x0 PUSH1 0x7 PUSH1 0x0 DUP4 DUP2 MSTORE PUSH1 0x20 ADD SWAP1 DUP2 MSTORE PUSH1 0x20 ADD PUSH1 0x0 KECCAK256 PUSH1 0x0 SWAP1 SLOAD SWAP1 PUSH2 0x100 EXP SWAP1 DIV PUSH20 0xFFFFFFFFFFFFFFFFFFFFFFFFFFFFFFFFFFFFFFFF AND SWAP1 POP PUSH1 0x8 PUSH1 0x0 DUP3 PUSH20 0xFFFFFFFFFFFFFFFFFFFFFFFFFFFFFFFFFFFFFFFF AND PUSH20 0xFFFFFFFFFFFFFFFFFFFFFFFFFFFFFFFFFFFFFFFF AND DUP2 MSTORE PUSH1 0x20 ADD SWAP1 DUP2 MSTORE PUSH1 0x20 ADD PUSH1 0x0 KECCAK256 PUSH1 0x0 DUP2 SLOAD DUP2 LT PUSH2 0x510 JUMPI PUSH2 0x50F PUSH2 0x1CAE JUMP JUMPDEST JUMPDEST SWAP1 PUSH1 0x0 MSTORE PUSH1 0x20 PUSH1 0x0 KECCAK256 ADD SLOAD DUP3 EQ ISZERO PUSH2 0x531 JUMPI DUP3 DUP1 PUSH2 0x52D SWAP1 PUSH2 0x1B79 JUMP JUMPDEST SWAP4 POP POP JUMPDEST POP DUP1 DUP1 PUSH2 0x53D SWAP1 PUSH2 0x1B79 JUMP JUMPDEST SWAP2 POP POP PUSH2 0x47C JUMP JUMPDEST POP SWAP1 JUMP JUMPDEST PUSH1 0x60 DUP1 PUSH1 0x0 PUSH2 0x556 PUSH2 0x478 JUMP JUMPDEST SWAP1 POP DUP1 PUSH8 0xFFFFFFFFFFFFFFFF DUP2 GT ISZERO PUSH2 0x572 JUMPI PUSH2 0x571 PUSH2 0x1CDD JUMP JUMPDEST JUMPDEST PUSH1 0x40 MLOAD SWAP1 DUP1 DUP3 MSTORE DUP1 PUSH1 0x20 MUL PUSH1 0x20 ADD DUP3 ADD PUSH1 0x40 MSTORE DUP1 ISZERO PUSH2 0x5A0 JUMPI DUP2 PUSH1 0x20 ADD PUSH1 0x20 DUP3 MUL DUP1 CALLDATASIZE DUP4 CALLDATACOPY DUP1 DUP3 ADD SWAP2 POP POP SWAP1 POP JUMPDEST POP SWAP3 POP DUP1 PUSH8 0xFFFFFFFFFFFFFFFF DUP2 GT ISZERO PUSH2 0x5BD JUMPI PUSH2 0x5BC PUSH2 0x1CDD JUMP JUMPDEST JUMPDEST PUSH1 0x40 MLOAD SWAP1 DUP1 DUP3 MSTORE DUP1 PUSH1 0x20 MUL PUSH1 0x20 ADD DUP3 ADD PUSH1 0x40 MSTORE DUP1 ISZERO PUSH2 0x5EB JUMPI DUP2 PUSH1 0x20 ADD PUSH1 0x20 DUP3 MUL DUP1 CALLDATASIZE DUP4 CALLDATACOPY DUP1 DUP3 ADD SWAP2 POP POP SWAP1 POP JUMPDEST POP SWAP2 POP PUSH1 0x0 DUP1 JUMPDEST PUSH1 0x1 SLOAD DUP2 LT ISZERO PUSH2 0x76B JUMPI PUSH1 0x0 PUSH1 0x7 PUSH1 0x0 DUP4 DUP2 MSTORE PUSH1 0x20 ADD SWAP1 DUP2 MSTORE PUSH1 0x20 ADD PUSH1 0x0 KECCAK256 PUSH1 0x0 SWAP1 SLOAD SWAP1 PUSH2 0x100 EXP SWAP1 DIV PUSH20 0xFFFFFFFFFFFFFFFFFFFFFFFFFFFFFFFFFFFFFFFF AND SWAP1 POP PUSH1 0x8 PUSH1 0x0 DUP3 PUSH20 0xFFFFFFFFFFFFFFFFFFFFFFFFFFFFFFFFFFFFFFFF AND PUSH20 0xFFFFFFFFFFFFFFFFFFFFFFFFFFFFFFFFFFFFFFFF AND DUP2 MSTORE PUSH1 0x20 ADD SWAP1 DUP2 MSTORE PUSH1 0x20 ADD PUSH1 0x0 KECCAK256 PUSH1 0x0 DUP2 SLOAD DUP2 LT PUSH2 0x686 JUMPI PUSH2 0x685 PUSH2 0x1CAE JUMP JUMPDEST JUMPDEST SWAP1 PUSH1 0x0 MSTORE PUSH1 0x20 PUSH1 0x0 KECCAK256 ADD SLOAD DUP3 EQ ISZERO PUSH2 0x757 JUMPI DUP1 DUP7 DUP5 DUP2 MLOAD DUP2 LT PUSH2 0x6AC JUMPI PUSH2 0x6AB PUSH2 0x1CAE JUMP JUMPDEST JUMPDEST PUSH1 0x20 MUL PUSH1 0x20 ADD ADD SWAP1 PUSH20 0xFFFFFFFFFFFFFFFFFFFFFFFFFFFFFFFFFFFFFFFF AND SWAP1 DUP2 PUSH20 0xFFFFFFFFFFFFFFFFFFFFFFFFFFFFFFFFFFFFFFFF AND DUP2 MSTORE POP POP PUSH1 0x8 PUSH1 0x0 DUP3 PUSH20 0xFFFFFFFFFFFFFFFFFFFFFFFFFFFFFFFFFFFFFFFF AND PUSH20 0xFFFFFFFFFFFFFFFFFFFFFFFFFFFFFFFFFFFFFFFF AND DUP2 MSTORE PUSH1 0x20 ADD SWAP1 DUP2 MSTORE PUSH1 0x20 ADD PUSH1 0x0 KECCAK256 DUP1 SLOAD SWAP1 POP DUP6 DUP5 DUP2 MLOAD DUP2 LT PUSH2 0x73C JUMPI PUSH2 0x73B PUSH2 0x1CAE JUMP JUMPDEST JUMPDEST PUSH1 0x20 MUL PUSH1 0x20 ADD ADD DUP2 DUP2 MSTORE POP POP DUP3 DUP1 PUSH2 0x753 SWAP1 PUSH2 0x1B79 JUMP JUMPDEST SWAP4 POP POP JUMPDEST POP DUP1 DUP1 PUSH2 0x763 SWAP1 PUSH2 0x1B79 JUMP JUMPDEST SWAP2 POP POP PUSH2 0x5F2 JUMP JUMPDEST POP POP POP SWAP1 SWAP2 JUMP JUMPDEST PUSH1 0x0 JUMPDEST DUP2 DUP2 LT ISZERO PUSH2 0x862 JUMPI DUP3 PUSH1 0x7 PUSH1 0x0 DUP4 PUSH1 0x1 SLOAD PUSH2 0x790 SWAP2 SWAP1 PUSH2 0x1A71 JUMP JUMPDEST DUP2 MSTORE PUSH1 0x20 ADD SWAP1 DUP2 MSTORE PUSH1 0x20 ADD PUSH1 0x0 KECCAK256 PUSH1 0x0 PUSH2 0x100 EXP DUP2 SLOAD DUP2 PUSH20 0xFFFFFFFFFFFFFFFFFFFFFFFFFFFFFFFFFFFFFFFF MUL NOT AND SWAP1 DUP4 PUSH20 0xFFFFFFFFFFFFFFFFFFFFFFFFFFFFFFFFFFFFFFFF AND MUL OR SWAP1 SSTORE POP PUSH1 0x8 PUSH1 0x0 DUP5 PUSH20 0xFFFFFFFFFFFFFFFFFFFFFFFFFFFFFFFFFFFFFFFF AND PUSH20 0xFFFFFFFFFFFFFFFFFFFFFFFFFFFFFFFFFFFFFFFF AND DUP2 MSTORE PUSH1 0x20 ADD SWAP1 DUP2 MSTORE PUSH1 0x20 ADD PUSH1 0x0 KECCAK256 DUP2 PUSH1 0x1 SLOAD PUSH2 0x829 SWAP2 SWAP1 PUSH2 0x1A71 JUMP JUMPDEST SWAP1 DUP1 PUSH1 0x1 DUP2 SLOAD ADD DUP1 DUP3 SSTORE DUP1 SWAP2 POP POP PUSH1 0x1 SWAP1 SUB SWAP1 PUSH1 0x0 MSTORE PUSH1 0x20 PUSH1 0x0 KECCAK256 ADD PUSH1 0x0 SWAP1 SWAP2 SWAP1 SWAP2 SWAP1 SWAP2 POP SSTORE DUP1 DUP1 PUSH2 0x85A SWAP1 PUSH2 0x1B79 JUMP JUMPDEST SWAP2 POP POP PUSH2 0x775 JUMP JUMPDEST POP DUP1 PUSH1 0x1 PUSH1 0x0 DUP3 DUP3 SLOAD PUSH2 0x875 SWAP2 SWAP1 PUSH2 0x1A71 JUMP JUMPDEST SWAP3 POP POP DUP2 SWAP1 SSTORE POP POP POP JUMP JUMPDEST PUSH1 0x3 SLOAD DUP2 JUMP JUMPDEST PUSH1 0x5 PUSH1 0x0 SWAP1 SLOAD SWAP1 PUSH2 0x100 EXP SWAP1 DIV PUSH20 0xFFFFFFFFFFFFFFFFFFFFFFFFFFFFFFFFFFFFFFFF AND DUP2 JUMP JUMPDEST PUSH1 0x0 DUP1 PUSH2 0x8B8 DUP4 PUSH2 0xB8C JUMP JUMPDEST SWAP1 POP PUSH1 0x0 DUP2 GT SWAP2 POP POP SWAP2 SWAP1 POP JUMP JUMPDEST PUSH2 0x8CE PUSH2 0x1280 JUMP JUMPDEST PUSH20 0xFFFFFFFFFFFFFFFFFFFFFFFFFFFFFFFFFFFFFFFF AND PUSH2 0x8EC PUSH2 0xB3D JUMP JUMPDEST PUSH20 0xFFFFFFFFFFFFFFFFFFFFFFFFFFFFFFFFFFFFFFFF AND EQ PUSH2 0x942 JUMPI PUSH1 0x40 MLOAD PUSH32 0x8C379A000000000000000000000000000000000000000000000000000000000 DUP2 MSTORE PUSH1 0x4 ADD PUSH2 0x939 SWAP1 PUSH2 0x18FE JUMP JUMPDEST PUSH1 0x40 MLOAD DUP1 SWAP2 SUB SWAP1 REVERT JUMPDEST PUSH1 0x0 PUSH1 0x7 PUSH1 0x0 DUP5 DUP2 MSTORE PUSH1 0x20 ADD SWAP1 DUP2 MSTORE PUSH1 0x20 ADD PUSH1 0x0 KECCAK256 PUSH1 0x0 SWAP1 SLOAD SWAP1 PUSH2 0x100 EXP SWAP1 DIV PUSH20 0xFFFFFFFFFFFFFFFFFFFFFFFFFFFFFFFFFFFFFFFF AND SWAP1 POP PUSH1 0x40 MLOAD DUP1 PUSH1 0xA0 ADD PUSH1 0x40 MSTORE DUP1 PUSH1 0x1 SLOAD DUP2 MSTORE PUSH1 0x20 ADD DUP5 DUP2 MSTORE PUSH1 0x20 ADD DUP4 DUP2 MSTORE PUSH1 0x20 ADD TIMESTAMP DUP2 MSTORE PUSH1 0x20 ADD DUP3 PUSH20 0xFFFFFFFFFFFFFFFFFFFFFFFFFFFFFFFFFFFFFFFF AND DUP2 MSTORE POP PUSH1 0x6 PUSH1 0x0 PUSH1 0x2 SLOAD DUP2 MSTORE PUSH1 0x20 ADD SWAP1 DUP2 MSTORE PUSH1 0x20 ADD PUSH1 0x0 KECCAK256 PUSH1 0x0 DUP3 ADD MLOAD DUP2 PUSH1 0x0 ADD SSTORE PUSH1 0x20 DUP3 ADD MLOAD DUP2 PUSH1 0x1 ADD SSTORE PUSH1 0x40 DUP3 ADD MLOAD DUP2 PUSH1 0x2 ADD SSTORE PUSH1 0x60 DUP3 ADD MLOAD DUP2 PUSH1 0x3 ADD SSTORE PUSH1 0x80 DUP3 ADD MLOAD DUP2 PUSH1 0x4 ADD PUSH1 0x0 PUSH2 0x100 EXP DUP2 SLOAD DUP2 PUSH20 0xFFFFFFFFFFFFFFFFFFFFFFFFFFFFFFFFFFFFFFFF MUL NOT AND SWAP1 DUP4 PUSH20 0xFFFFFFFFFFFFFFFFFFFFFFFFFFFFFFFFFFFFFFFF AND MUL OR SWAP1 SSTORE POP SWAP1 POP POP DUP2 PUSH1 0x3 PUSH1 0x0 DUP3 DUP3 SLOAD PUSH2 0xA52 SWAP2 SWAP1 PUSH2 0x1A71 JUMP JUMPDEST SWAP3 POP POP DUP2 SWAP1 SSTORE POP PUSH1 0x2 PUSH1 0x0 DUP2 SLOAD DUP1 SWAP3 SWAP2 SWAP1 PUSH2 0xA6C SWAP1 PUSH2 0x1B79 JUMP JUMPDEST SWAP2 SWAP1 POP SSTORE POP PUSH32 0x2E798DD4337E515C79B64C40E1A93BAA1AEFBD9180AC7905E02508EDD7971E50 DUP2 DUP4 PUSH1 0x40 MLOAD PUSH2 0xAA2 SWAP3 SWAP2 SWAP1 PUSH2 0x1826 JUMP JUMPDEST PUSH1 0x40 MLOAD DUP1 SWAP2 SUB SWAP1 LOG1 POP POP POP JUMP JUMPDEST PUSH2 0xAB7 PUSH2 0x1280 JUMP JUMPDEST PUSH20 0xFFFFFFFFFFFFFFFFFFFFFFFFFFFFFFFFFFFFFFFF AND PUSH2 0xAD5 PUSH2 0xB3D JUMP JUMPDEST PUSH20 0xFFFFFFFFFFFFFFFFFFFFFFFFFFFFFFFFFFFFFFFF AND EQ PUSH2 0xB2B JUMPI PUSH1 0x40 MLOAD PUSH32 0x8C379A000000000000000000000000000000000000000000000000000000000 DUP2 MSTORE PUSH1 0x4 ADD PUSH2 0xB22 SWAP1 PUSH2 0x18FE JUMP JUMPDEST PUSH1 0x40 MLOAD DUP1 SWAP2 SUB SWAP1 REVERT JUMPDEST PUSH2 0xB35 PUSH1 0x0 PUSH2 0x1288 JUMP JUMPDEST JUMP JUMPDEST PUSH1 0x1 SLOAD DUP2 JUMP JUMPDEST PUSH1 0x0 DUP1 PUSH1 0x0 SWAP1 SLOAD SWAP1 PUSH2 0x100 EXP SWAP1 DIV PUSH20 0xFFFFFFFFFFFFFFFFFFFFFFFFFFFFFFFFFFFFFFFF AND SWAP1 POP SWAP1 JUMP JUMPDEST PUSH1 0x4 PUSH1 0x0 SWAP1 SLOAD SWAP1 PUSH2 0x100 EXP SWAP1 DIV PUSH20 0xFFFFFFFFFFFFFFFFFFFFFFFFFFFFFFFFFFFFFFFF AND DUP2 JUMP JUMPDEST PUSH1 0x0 PUSH1 0x8 PUSH1 0x0 DUP4 PUSH20 0xFFFFFFFFFFFFFFFFFFFFFFFFFFFFFFFFFFFFFFFF AND PUSH20 0xFFFFFFFFFFFFFFFFFFFFFFFFFFFFFFFFFFFFFFFF AND DUP2 MSTORE PUSH1 0x20 ADD SWAP1 DUP2 MSTORE PUSH1 0x20 ADD PUSH1 0x0 KECCAK256 DUP1 SLOAD SWAP1 POP SWAP1 POP SWAP2 SWAP1 POP JUMP JUMPDEST PUSH1 0x0 PUSH2 0xBE3 DUP4 PUSH2 0xB8C JUMP JUMPDEST SWAP1 POP PUSH1 0x0 DUP2 EQ ISZERO PUSH2 0xBF4 JUMPI POP PUSH2 0xDE3 JUMP JUMPDEST DUP1 DUP3 GT ISZERO PUSH2 0xC00 JUMPI DUP1 SWAP2 POP JUMPDEST PUSH1 0x0 PUSH1 0x1 SWAP1 POP JUMPDEST DUP3 DUP2 GT PUSH2 0xDC7 JUMPI PUSH1 0x0 PUSH1 0x8 PUSH1 0x0 DUP7 PUSH20 0xFFFFFFFFFFFFFFFFFFFFFFFFFFFFFFFFFFFFFFFF AND PUSH20 0xFFFFFFFFFFFFFFFFFFFFFFFFFFFFFFFFFFFFFFFF AND DUP2 MSTORE PUSH1 0x20 ADD SWAP1 DUP2 MSTORE PUSH1 0x20 ADD PUSH1 0x0 KECCAK256 PUSH1 0x1 PUSH1 0x8 PUSH1 0x0 DUP9 PUSH20 0xFFFFFFFFFFFFFFFFFFFFFFFFFFFFFFFFFFFFFFFF AND PUSH20 0xFFFFFFFFFFFFFFFFFFFFFFFFFFFFFFFFFFFFFFFF AND DUP2 MSTORE PUSH1 0x20 ADD SWAP1 DUP2 MSTORE PUSH1 0x20 ADD PUSH1 0x0 KECCAK256 DUP1 SLOAD SWAP1 POP PUSH2 0xC9E SWAP2 SWAP1 PUSH2 0x1AC7 JUMP JUMPDEST DUP2 SLOAD DUP2 LT PUSH2 0xCAF JUMPI PUSH2 0xCAE PUSH2 0x1CAE JUMP JUMPDEST JUMPDEST SWAP1 PUSH1 0x0 MSTORE PUSH1 0x20 PUSH1 0x0 KECCAK256 ADD SLOAD SWAP1 POP PUSH1 0x7 PUSH1 0x0 DUP4 PUSH1 0x1 SLOAD PUSH2 0xCCE SWAP2 SWAP1 PUSH2 0x1AC7 JUMP JUMPDEST DUP2 MSTORE PUSH1 0x20 ADD SWAP1 DUP2 MSTORE PUSH1 0x20 ADD PUSH1 0x0 KECCAK256 PUSH1 0x0 SWAP1 SLOAD SWAP1 PUSH2 0x100 EXP SWAP1 DIV PUSH20 0xFFFFFFFFFFFFFFFFFFFFFFFFFFFFFFFFFFFFFFFF AND PUSH1 0x7 PUSH1 0x0 DUP4 DUP2 MSTORE PUSH1 0x20 ADD SWAP1 DUP2 MSTORE PUSH1 0x20 ADD PUSH1 0x0 KECCAK256 PUSH1 0x0 PUSH2 0x100 EXP DUP2 SLOAD DUP2 PUSH20 0xFFFFFFFFFFFFFFFFFFFFFFFFFFFFFFFFFFFFFFFF MUL NOT AND SWAP1 DUP4 PUSH20 0xFFFFFFFFFFFFFFFFFFFFFFFFFFFFFFFFFFFFFFFF AND MUL OR SWAP1 SSTORE POP PUSH1 0x8 PUSH1 0x0 DUP7 PUSH20 0xFFFFFFFFFFFFFFFFFFFFFFFFFFFFFFFFFFFFFFFF AND PUSH20 0xFFFFFFFFFFFFFFFFFFFFFFFFFFFFFFFFFFFFFFFF AND DUP2 MSTORE PUSH1 0x20 ADD SWAP1 DUP2 MSTORE PUSH1 0x20 ADD PUSH1 0x0 KECCAK256 DUP1 SLOAD DUP1 PUSH2 0xD9D JUMPI PUSH2 0xD9C PUSH2 0x1C7F JUMP JUMPDEST JUMPDEST PUSH1 0x1 SWAP1 SUB DUP2 DUP2 SWAP1 PUSH1 0x0 MSTORE PUSH1 0x20 PUSH1 0x0 KECCAK256 ADD PUSH1 0x0 SWAP1 SSTORE SWAP1 SSTORE POP DUP1 DUP1 PUSH2 0xDBF SWAP1 PUSH2 0x1B79 JUMP JUMPDEST SWAP2 POP POP PUSH2 0xC07 JUMP JUMPDEST POP DUP2 PUSH1 0x1 PUSH1 0x0 DUP3 DUP3 SLOAD PUSH2 0xDDA SWAP2 SWAP1 PUSH2 0x1AC7 JUMP JUMPDEST SWAP3 POP POP DUP2 SWAP1 SSTORE POP POP JUMPDEST POP POP JUMP JUMPDEST PUSH1 0x6 PUSH1 0x20 MSTORE DUP1 PUSH1 0x0 MSTORE PUSH1 0x40 PUSH1 0x0 KECCAK256 PUSH1 0x0 SWAP2 POP SWAP1 POP DUP1 PUSH1 0x0 ADD SLOAD SWAP1 DUP1 PUSH1 0x1 ADD SLOAD SWAP1 DUP1 PUSH1 0x2 ADD SLOAD SWAP1 DUP1 PUSH1 0x3 ADD SLOAD SWAP1 DUP1 PUSH1 0x4 ADD PUSH1 0x0 SWAP1 SLOAD SWAP1 PUSH2 0x100 EXP SWAP1 DIV PUSH20 0xFFFFFFFFFFFFFFFFFFFFFFFFFFFFFFFFFFFFFFFF AND SWAP1 POP DUP6 JUMP JUMPDEST PUSH1 0x7 PUSH1 0x20 MSTORE DUP1 PUSH1 0x0 MSTORE PUSH1 0x40 PUSH1 0x0 KECCAK256 PUSH1 0x0 SWAP2 POP SLOAD SWAP1 PUSH2 0x100 EXP SWAP1 DIV PUSH20 0xFFFFFFFFFFFFFFFFFFFFFFFFFFFFFFFFFFFFFFFF AND DUP2 JUMP JUMPDEST PUSH1 0x60 PUSH1 0x0 PUSH1 0x2 SLOAD EQ ISZERO PUSH2 0xED9 JUMPI PUSH1 0x0 PUSH8 0xFFFFFFFFFFFFFFFF DUP2 GT ISZERO PUSH2 0xE98 JUMPI PUSH2 0xE97 PUSH2 0x1CDD JUMP JUMPDEST JUMPDEST PUSH1 0x40 MLOAD SWAP1 DUP1 DUP3 MSTORE DUP1 PUSH1 0x20 MUL PUSH1 0x20 ADD DUP3 ADD PUSH1 0x40 MSTORE DUP1 ISZERO PUSH2 0xED1 JUMPI DUP2 PUSH1 0x20 ADD JUMPDEST PUSH2 0xEBE PUSH2 0x1389 JUMP JUMPDEST DUP2 MSTORE PUSH1 0x20 ADD SWAP1 PUSH1 0x1 SWAP1 SUB SWAP1 DUP2 PUSH2 0xEB6 JUMPI SWAP1 POP JUMPDEST POP SWAP1 POP PUSH2 0x105F JUMP JUMPDEST PUSH1 0x2 SLOAD DUP3 LT PUSH2 0xEF4 JUMPI PUSH1 0x1 PUSH1 0x2 SLOAD PUSH2 0xEF1 SWAP2 SWAP1 PUSH2 0x1AC7 JUMP JUMPDEST SWAP2 POP JUMPDEST PUSH1 0x0 PUSH1 0x1 DUP5 DUP5 PUSH2 0xF04 SWAP2 SWAP1 PUSH2 0x1AC7 JUMP JUMPDEST PUSH2 0xF0E SWAP2 SWAP1 PUSH2 0x1A71 JUMP JUMPDEST SWAP1 POP PUSH1 0x0 DUP2 PUSH8 0xFFFFFFFFFFFFFFFF DUP2 GT ISZERO PUSH2 0xF2C JUMPI PUSH2 0xF2B PUSH2 0x1CDD JUMP JUMPDEST JUMPDEST PUSH1 0x40 MLOAD SWAP1 DUP1 DUP3 MSTORE DUP1 PUSH1 0x20 MUL PUSH1 0x20 ADD DUP3 ADD PUSH1 0x40 MSTORE DUP1 ISZERO PUSH2 0xF65 JUMPI DUP2 PUSH1 0x20 ADD JUMPDEST PUSH2 0xF52 PUSH2 0x1389 JUMP JUMPDEST DUP2 MSTORE PUSH1 0x20 ADD SWAP1 PUSH1 0x1 SWAP1 SUB SWAP1 DUP2 PUSH2 0xF4A JUMPI SWAP1 POP JUMPDEST POP SWAP3 POP PUSH1 0x0 DUP6 SWAP1 POP JUMPDEST DUP5 DUP2 GT PUSH2 0x105B JUMPI PUSH1 0x6 PUSH1 0x0 DUP3 DUP9 PUSH2 0xF85 SWAP2 SWAP1 PUSH2 0x1A71 JUMP JUMPDEST DUP2 MSTORE PUSH1 0x20 ADD SWAP1 DUP2 MSTORE PUSH1 0x20 ADD PUSH1 0x0 KECCAK256 PUSH1 0x40 MLOAD DUP1 PUSH1 0xA0 ADD PUSH1 0x40 MSTORE SWAP1 DUP2 PUSH1 0x0 DUP3 ADD SLOAD DUP2 MSTORE PUSH1 0x20 ADD PUSH1 0x1 DUP3 ADD SLOAD DUP2 MSTORE PUSH1 0x20 ADD PUSH1 0x2 DUP3 ADD SLOAD DUP2 MSTORE PUSH1 0x20 ADD PUSH1 0x3 DUP3 ADD SLOAD DUP2 MSTORE PUSH1 0x20 ADD PUSH1 0x4 DUP3 ADD PUSH1 0x0 SWAP1 SLOAD SWAP1 PUSH2 0x100 EXP SWAP1 DIV PUSH20 0xFFFFFFFFFFFFFFFFFFFFFFFFFFFFFFFFFFFFFFFF AND PUSH20 0xFFFFFFFFFFFFFFFFFFFFFFFFFFFFFFFFFFFFFFFF AND PUSH20 0xFFFFFFFFFFFFFFFFFFFFFFFFFFFFFFFFFFFFFFFF AND DUP2 MSTORE POP POP DUP5 DUP4 DUP2 MLOAD DUP2 LT PUSH2 0x102F JUMPI PUSH2 0x102E PUSH2 0x1CAE JUMP JUMPDEST JUMPDEST PUSH1 0x20 MUL PUSH1 0x20 ADD ADD DUP2 SWAP1 MSTORE POP DUP2 DUP1 PUSH2 0x1045 SWAP1 PUSH2 0x1B79 JUMP JUMPDEST SWAP3 POP POP DUP1 DUP1 PUSH2 0x1053 SWAP1 PUSH2 0x1B79 JUMP JUMPDEST SWAP2 POP POP PUSH2 0xF6E JUMP JUMPDEST POP POP POP JUMPDEST SWAP3 SWAP2 POP POP JUMP JUMPDEST PUSH1 0x0 PUSH2 0x1070 DUP3 PUSH2 0xB8C JUMP JUMPDEST SWAP1 POP PUSH2 0x107C DUP3 DUP3 PUSH2 0xBD8 JUMP JUMPDEST POP POP JUMP JUMPDEST PUSH2 0x1088 PUSH2 0x1280 JUMP JUMPDEST PUSH20 0xFFFFFFFFFFFFFFFFFFFFFFFFFFFFFFFFFFFFFFFF AND PUSH2 0x10A6 PUSH2 0xB3D JUMP JUMPDEST PUSH20 0xFFFFFFFFFFFFFFFFFFFFFFFFFFFFFFFFFFFFFFFF AND EQ PUSH2 0x10FC JUMPI PUSH1 0x40 MLOAD PUSH32 0x8C379A000000000000000000000000000000000000000000000000000000000 DUP2 MSTORE PUSH1 0x4 ADD PUSH2 0x10F3 SWAP1 PUSH2 0x18FE JUMP JUMPDEST PUSH1 0x40 MLOAD DUP1 SWAP2 SUB SWAP1 REVERT JUMPDEST PUSH1 0x0 PUSH20 0xFFFFFFFFFFFFFFFFFFFFFFFFFFFFFFFFFFFFFFFF AND DUP2 PUSH20 0xFFFFFFFFFFFFFFFFFFFFFFFFFFFFFFFFFFFFFFFF AND EQ ISZERO PUSH2 0x116C JUMPI PUSH1 0x40 MLOAD PUSH32 0x8C379A000000000000000000000000000000000000000000000000000000000 DUP2 MSTORE PUSH1 0x4 ADD PUSH2 0x1163 SWAP1 PUSH2 0x18DE JUMP JUMPDEST PUSH1 0x40 MLOAD DUP1 SWAP2 SUB SWAP1 REVERT JUMPDEST PUSH2 0x1175 DUP2 PUSH2 0x1288 JUMP JUMPDEST POP JUMP JUMPDEST PUSH1 0x0 DUP1 PUSH1 0x1 SLOAD PUSH2 0x1187 DUP5 PUSH2 0x134C JUMP JUMPDEST PUSH2 0x1191 SWAP2 SWAP1 PUSH2 0x1BF0 JUMP JUMPDEST SWAP2 POP PUSH1 0x7 PUSH1 0x0 DUP4 DUP2 MSTORE PUSH1 0x20 ADD SWAP1 DUP2 MSTORE PUSH1 0x20 ADD PUSH1 0x0 KECCAK256 PUSH1 0x0 SWAP1 SLOAD SWAP1 PUSH2 0x100 EXP SWAP1 DIV PUSH20 0xFFFFFFFFFFFFFFFFFFFFFFFFFFFFFFFFFFFFFFFF AND SWAP1 POP SWAP2 POP SWAP2 JUMP JUMPDEST PUSH1 0x0 PUSH1 0x4 PUSH1 0x0 SWAP1 SLOAD SWAP1 PUSH2 0x100 EXP SWAP1 DIV PUSH20 0xFFFFFFFFFFFFFFFFFFFFFFFFFFFFFFFFFFFFFFFF AND PUSH20 0xFFFFFFFFFFFFFFFFFFFFFFFFFFFFFFFFFFFFFFFF AND PUSH4 0x70A08231 ADDRESS PUSH1 0x40 MLOAD DUP3 PUSH4 0xFFFFFFFF AND PUSH1 0xE0 SHL DUP2 MSTORE PUSH1 0x4 ADD PUSH2 0x122B SWAP2 SWAP1 PUSH2 0x180B JUMP JUMPDEST PUSH1 0x20 PUSH1 0x40 MLOAD DUP1 DUP4 SUB DUP2 DUP7 DUP1 EXTCODESIZE ISZERO DUP1 ISZERO PUSH2 0x1243 JUMPI PUSH1 0x0 DUP1 REVERT JUMPDEST POP GAS STATICCALL ISZERO DUP1 ISZERO PUSH2 0x1257 JUMPI RETURNDATASIZE PUSH1 0x0 DUP1 RETURNDATACOPY RETURNDATASIZE PUSH1 0x0 REVERT JUMPDEST POP POP POP POP PUSH1 0x40 MLOAD RETURNDATASIZE PUSH1 0x1F NOT PUSH1 0x1F DUP3 ADD AND DUP3 ADD DUP1 PUSH1 0x40 MSTORE POP DUP2 ADD SWAP1 PUSH2 0x127B SWAP2 SWAP1 PUSH2 0x14A7 JUMP JUMPDEST SWAP1 POP SWAP1 JUMP JUMPDEST PUSH1 0x0 CALLER SWAP1 POP SWAP1 JUMP JUMPDEST PUSH1 0x0 DUP1 PUSH1 0x0 SWAP1 SLOAD SWAP1 PUSH2 0x100 EXP SWAP1 DIV PUSH20 0xFFFFFFFFFFFFFFFFFFFFFFFFFFFFFFFFFFFFFFFF AND SWAP1 POP DUP2 PUSH1 0x0 DUP1 PUSH2 0x100 EXP DUP2 SLOAD DUP2 PUSH20 0xFFFFFFFFFFFFFFFFFFFFFFFFFFFFFFFFFFFFFFFF MUL NOT AND SWAP1 DUP4 PUSH20 0xFFFFFFFFFFFFFFFFFFFFFFFFFFFFFFFFFFFFFFFF AND MUL OR SWAP1 SSTORE POP DUP2 PUSH20 0xFFFFFFFFFFFFFFFFFFFFFFFFFFFFFFFFFFFFFFFF AND DUP2 PUSH20 0xFFFFFFFFFFFFFFFFFFFFFFFFFFFFFFFFFFFFFFFF AND PUSH32 0x8BE0079C531659141344CD1FD0A4F28419497F9722A3DAAFE3B4186F6B6457E0 PUSH1 0x40 MLOAD PUSH1 0x40 MLOAD DUP1 SWAP2 SUB SWAP1 LOG3 POP POP JUMP JUMPDEST PUSH1 0x0 DUP2 TIMESTAMP GAS CALLER PUSH1 0x1 SLOAD PUSH1 0x40 MLOAD PUSH1 0x20 ADD PUSH2 0x1369 SWAP6 SWAP5 SWAP4 SWAP3 SWAP2 SWAP1 PUSH2 0x17AC JUMP JUMPDEST PUSH1 0x40 MLOAD PUSH1 0x20 DUP2 DUP4 SUB SUB DUP2 MSTORE SWAP1 PUSH1 0x40 MSTORE DUP1 MLOAD SWAP1 PUSH1 0x20 ADD KECCAK256 PUSH1 0x0 SHR SWAP1 POP SWAP2 SWAP1 POP JUMP JUMPDEST PUSH1 0x40 MLOAD DUP1 PUSH1 0xA0 ADD PUSH1 0x40 MSTORE DUP1 PUSH1 0x0 DUP2 MSTORE PUSH1 0x20 ADD PUSH1 0x0 DUP2 MSTORE PUSH1 0x20 ADD PUSH1 0x0 DUP2 MSTORE PUSH1 0x20 ADD PUSH1 0x0 DUP2 MSTORE PUSH1 0x20 ADD PUSH1 0x0 PUSH20 0xFFFFFFFFFFFFFFFFFFFFFFFFFFFFFFFFFFFFFFFF AND DUP2 MSTORE POP SWAP1 JUMP JUMPDEST PUSH1 0x0 DUP2 CALLDATALOAD SWAP1 POP PUSH2 0x13DD DUP2 PUSH2 0x1D96 JUMP JUMPDEST SWAP3 SWAP2 POP POP JUMP JUMPDEST PUSH1 0x0 DUP2 CALLDATALOAD SWAP1 POP PUSH2 0x13F2 DUP2 PUSH2 0x1DAD JUMP JUMPDEST SWAP3 SWAP2 POP POP JUMP JUMPDEST PUSH1 0x0 DUP2 MLOAD SWAP1 POP PUSH2 0x1407 DUP2 PUSH2 0x1DAD JUMP JUMPDEST SWAP3 SWAP2 POP POP JUMP JUMPDEST PUSH1 0x0 PUSH1 0x20 DUP3 DUP5 SUB SLT ISZERO PUSH2 0x1423 JUMPI PUSH2 0x1422 PUSH2 0x1D0C JUMP JUMPDEST JUMPDEST PUSH1 0x0 PUSH2 0x1431 DUP5 DUP3 DUP6 ADD PUSH2 0x13CE JUMP JUMPDEST SWAP2 POP POP SWAP3 SWAP2 POP POP JUMP JUMPDEST PUSH1 0x0 DUP1 PUSH1 0x40 DUP4 DUP6 SUB SLT ISZERO PUSH2 0x1451 JUMPI PUSH2 0x1450 PUSH2 0x1D0C JUMP JUMPDEST JUMPDEST PUSH1 0x0 PUSH2 0x145F DUP6 DUP3 DUP7 ADD PUSH2 0x13CE JUMP JUMPDEST SWAP3 POP POP PUSH1 0x20 PUSH2 0x1470 DUP6 DUP3 DUP7 ADD PUSH2 0x13E3 JUMP JUMPDEST SWAP2 POP POP SWAP3 POP SWAP3 SWAP1 POP JUMP JUMPDEST PUSH1 0x0 PUSH1 0x20 DUP3 DUP5 SUB SLT ISZERO PUSH2 0x1490 JUMPI PUSH2 0x148F PUSH2 0x1D0C JUMP JUMPDEST JUMPDEST PUSH1 0x0 PUSH2 0x149E DUP5 DUP3 DUP6 ADD PUSH2 0x13E3 JUMP JUMPDEST SWAP2 POP POP SWAP3 SWAP2 POP POP JUMP JUMPDEST PUSH1 0x0 PUSH1 0x20 DUP3 DUP5 SUB SLT ISZERO PUSH2 0x14BD JUMPI PUSH2 0x14BC PUSH2 0x1D0C JUMP JUMPDEST JUMPDEST PUSH1 0x0 PUSH2 0x14CB DUP5 DUP3 DUP6 ADD PUSH2 0x13F8 JUMP JUMPDEST SWAP2 POP POP SWAP3 SWAP2 POP POP JUMP JUMPDEST PUSH1 0x0 DUP1 PUSH1 0x40 DUP4 DUP6 SUB SLT ISZERO PUSH2 0x14EB JUMPI PUSH2 0x14EA PUSH2 0x1D0C JUMP JUMPDEST JUMPDEST PUSH1 0x0 PUSH2 0x14F9 DUP6 DUP3 DUP7 ADD PUSH2 0x13E3 JUMP JUMPDEST SWAP3 POP POP PUSH1 0x20 PUSH2 0x150A DUP6 DUP3 DUP7 ADD PUSH2 0x13E3 JUMP JUMPDEST SWAP2 POP POP SWAP3 POP SWAP3 SWAP1 POP JUMP JUMPDEST PUSH1 0x0 PUSH2 0x1520 DUP4 DUP4 PUSH2 0x155C JUMP JUMPDEST PUSH1 0x20 DUP4 ADD SWAP1 POP SWAP3 SWAP2 POP POP JUMP JUMPDEST PUSH1 0x0 PUSH2 0x1538 DUP4 DUP4 PUSH2 0x170F JUMP JUMPDEST PUSH1 0xA0 DUP4 ADD SWAP1 POP SWAP3 SWAP2 POP POP JUMP JUMPDEST PUSH1 0x0 PUSH2 0x1550 DUP4 DUP4 PUSH2 0x1777 JUMP JUMPDEST PUSH1 0x20 DUP4 ADD SWAP1 POP SWAP3 SWAP2 POP POP JUMP JUMPDEST PUSH2 0x1565 DUP2 PUSH2 0x1AFB JUMP JUMPDEST DUP3 MSTORE POP POP JUMP JUMPDEST PUSH2 0x1574 DUP2 PUSH2 0x1AFB JUMP JUMPDEST DUP3 MSTORE POP POP JUMP JUMPDEST PUSH2 0x158B PUSH2 0x1586 DUP3 PUSH2 0x1AFB JUMP JUMPDEST PUSH2 0x1BC2 JUMP JUMPDEST DUP3 MSTORE POP POP JUMP JUMPDEST PUSH1 0x0 PUSH2 0x159C DUP3 PUSH2 0x19E5 JUMP JUMPDEST PUSH2 0x15A6 DUP2 DUP6 PUSH2 0x1A2D JUMP JUMPDEST SWAP4 POP PUSH2 0x15B1 DUP4 PUSH2 0x19B5 JUMP JUMPDEST DUP1 PUSH1 0x0 JUMPDEST DUP4 DUP2 LT ISZERO PUSH2 0x15E2 JUMPI DUP2 MLOAD PUSH2 0x15C9 DUP9 DUP3 PUSH2 0x1514 JUMP JUMPDEST SWAP8 POP PUSH2 0x15D4 DUP4 PUSH2 0x1A06 JUMP JUMPDEST SWAP3 POP POP PUSH1 0x1 DUP2 ADD SWAP1 POP PUSH2 0x15B5 JUMP JUMPDEST POP DUP6 SWAP4 POP POP POP POP SWAP3 SWAP2 POP POP JUMP JUMPDEST PUSH1 0x0 PUSH2 0x15FA DUP3 PUSH2 0x19F0 JUMP JUMPDEST PUSH2 0x1604 DUP2 DUP6 PUSH2 0x1A3E JUMP JUMPDEST SWAP4 POP PUSH2 0x160F DUP4 PUSH2 0x19C5 JUMP JUMPDEST DUP1 PUSH1 0x0 JUMPDEST DUP4 DUP2 LT ISZERO PUSH2 0x1640 JUMPI DUP2 MLOAD PUSH2 0x1627 DUP9 DUP3 PUSH2 0x152C JUMP JUMPDEST SWAP8 POP PUSH2 0x1632 DUP4 PUSH2 0x1A13 JUMP JUMPDEST SWAP3 POP POP PUSH1 0x1 DUP2 ADD SWAP1 POP PUSH2 0x1613 JUMP JUMPDEST POP DUP6 SWAP4 POP POP POP POP SWAP3 SWAP2 POP POP JUMP JUMPDEST PUSH1 0x0 PUSH2 0x1658 DUP3 PUSH2 0x19FB JUMP JUMPDEST PUSH2 0x1662 DUP2 DUP6 PUSH2 0x1A4F JUMP JUMPDEST SWAP4 POP PUSH2 0x166D DUP4 PUSH2 0x19D5 JUMP JUMPDEST DUP1 PUSH1 0x0 JUMPDEST DUP4 DUP2 LT ISZERO PUSH2 0x169E JUMPI DUP2 MLOAD PUSH2 0x1685 DUP9 DUP3 PUSH2 0x1544 JUMP JUMPDEST SWAP8 POP PUSH2 0x1690 DUP4 PUSH2 0x1A20 JUMP JUMPDEST SWAP3 POP POP PUSH1 0x1 DUP2 ADD SWAP1 POP PUSH2 0x1671 JUMP JUMPDEST POP DUP6 SWAP4 POP POP POP POP SWAP3 SWAP2 POP POP JUMP JUMPDEST PUSH2 0x16B4 DUP2 PUSH2 0x1B0D JUMP JUMPDEST DUP3 MSTORE POP POP JUMP JUMPDEST PUSH2 0x16C3 DUP2 PUSH2 0x1B43 JUMP JUMPDEST DUP3 MSTORE POP POP JUMP JUMPDEST PUSH1 0x0 PUSH2 0x16D6 PUSH1 0x26 DUP4 PUSH2 0x1A60 JUMP JUMPDEST SWAP2 POP PUSH2 0x16E1 DUP3 PUSH2 0x1D1E JUMP JUMPDEST PUSH1 0x40 DUP3 ADD SWAP1 POP SWAP2 SWAP1 POP JUMP JUMPDEST PUSH1 0x0 PUSH2 0x16F9 PUSH1 0x20 DUP4 PUSH2 0x1A60 JUMP JUMPDEST SWAP2 POP PUSH2 0x1704 DUP3 PUSH2 0x1D6D JUMP JUMPDEST PUSH1 0x20 DUP3 ADD SWAP1 POP SWAP2 SWAP1 POP JUMP JUMPDEST PUSH1 0xA0 DUP3 ADD PUSH1 0x0 DUP3 ADD MLOAD PUSH2 0x1725 PUSH1 0x0 DUP6 ADD DUP3 PUSH2 0x1777 JUMP JUMPDEST POP PUSH1 0x20 DUP3 ADD MLOAD PUSH2 0x1738 PUSH1 0x20 DUP6 ADD DUP3 PUSH2 0x1777 JUMP JUMPDEST POP PUSH1 0x40 DUP3 ADD MLOAD PUSH2 0x174B PUSH1 0x40 DUP6 ADD DUP3 PUSH2 0x1777 JUMP JUMPDEST POP PUSH1 0x60 DUP3 ADD MLOAD PUSH2 0x175E PUSH1 0x60 DUP6 ADD DUP3 PUSH2 0x1777 JUMP JUMPDEST POP PUSH1 0x80 DUP3 ADD MLOAD PUSH2 0x1771 PUSH1 0x80 DUP6 ADD DUP3 PUSH2 0x155C JUMP JUMPDEST POP POP POP POP JUMP JUMPDEST PUSH2 0x1780 DUP2 PUSH2 0x1B39 JUMP JUMPDEST DUP3 MSTORE POP POP JUMP JUMPDEST PUSH2 0x178F DUP2 PUSH2 0x1B39 JUMP JUMPDEST DUP3 MSTORE POP POP JUMP JUMPDEST PUSH2 0x17A6 PUSH2 0x17A1 DUP3 PUSH2 0x1B39 JUMP JUMPDEST PUSH2 0x1BE6 JUMP JUMPDEST DUP3 MSTORE POP POP JUMP JUMPDEST PUSH1 0x0 PUSH2 0x17B8 DUP3 DUP9 PUSH2 0x1795 JUMP JUMPDEST PUSH1 0x20 DUP3 ADD SWAP2 POP PUSH2 0x17C8 DUP3 DUP8 PUSH2 0x1795 JUMP JUMPDEST PUSH1 0x20 DUP3 ADD SWAP2 POP PUSH2 0x17D8 DUP3 DUP7 PUSH2 0x1795 JUMP JUMPDEST PUSH1 0x20 DUP3 ADD SWAP2 POP PUSH2 0x17E8 DUP3 DUP6 PUSH2 0x157A JUMP JUMPDEST PUSH1 0x14 DUP3 ADD SWAP2 POP PUSH2 0x17F8 DUP3 DUP5 PUSH2 0x1795 JUMP JUMPDEST PUSH1 0x20 DUP3 ADD SWAP2 POP DUP2 SWAP1 POP SWAP7 SWAP6 POP POP POP POP POP POP JUMP JUMPDEST PUSH1 0x0 PUSH1 0x20 DUP3 ADD SWAP1 POP PUSH2 0x1820 PUSH1 0x0 DUP4 ADD DUP5 PUSH2 0x156B JUMP JUMPDEST SWAP3 SWAP2 POP POP JUMP JUMPDEST PUSH1 0x0 PUSH1 0x40 DUP3 ADD SWAP1 POP PUSH2 0x183B PUSH1 0x0 DUP4 ADD DUP6 PUSH2 0x156B JUMP JUMPDEST PUSH2 0x1848 PUSH1 0x20 DUP4 ADD DUP5 PUSH2 0x1786 JUMP JUMPDEST SWAP4 SWAP3 POP POP POP JUMP JUMPDEST PUSH1 0x0 PUSH1 0x40 DUP3 ADD SWAP1 POP DUP2 DUP2 SUB PUSH1 0x0 DUP4 ADD MSTORE PUSH2 0x1869 DUP2 DUP6 PUSH2 0x1591 JUMP JUMPDEST SWAP1 POP DUP2 DUP2 SUB PUSH1 0x20 DUP4 ADD MSTORE PUSH2 0x187D DUP2 DUP5 PUSH2 0x164D JUMP JUMPDEST SWAP1 POP SWAP4 SWAP3 POP POP POP JUMP JUMPDEST PUSH1 0x0 PUSH1 0x20 DUP3 ADD SWAP1 POP DUP2 DUP2 SUB PUSH1 0x0 DUP4 ADD MSTORE PUSH2 0x18A0 DUP2 DUP5 PUSH2 0x15EF JUMP JUMPDEST SWAP1 POP SWAP3 SWAP2 POP POP JUMP JUMPDEST PUSH1 0x0 PUSH1 0x20 DUP3 ADD SWAP1 POP PUSH2 0x18BD PUSH1 0x0 DUP4 ADD DUP5 PUSH2 0x16AB JUMP JUMPDEST SWAP3 SWAP2 POP POP JUMP JUMPDEST PUSH1 0x0 PUSH1 0x20 DUP3 ADD SWAP1 POP PUSH2 0x18D8 PUSH1 0x0 DUP4 ADD DUP5 PUSH2 0x16BA JUMP JUMPDEST SWAP3 SWAP2 POP POP JUMP JUMPDEST PUSH1 0x0 PUSH1 0x20 DUP3 ADD SWAP1 POP DUP2 DUP2 SUB PUSH1 0x0 DUP4 ADD MSTORE PUSH2 0x18F7 DUP2 PUSH2 0x16C9 JUMP JUMPDEST SWAP1 POP SWAP2 SWAP1 POP JUMP JUMPDEST PUSH1 0x0 PUSH1 0x20 DUP3 ADD SWAP1 POP DUP2 DUP2 SUB PUSH1 0x0 DUP4 ADD MSTORE PUSH2 0x1917 DUP2 PUSH2 0x16EC JUMP JUMPDEST SWAP1 POP SWAP2 SWAP1 POP JUMP JUMPDEST PUSH1 0x0 PUSH1 0x20 DUP3 ADD SWAP1 POP PUSH2 0x1933 PUSH1 0x0 DUP4 ADD DUP5 PUSH2 0x1786 JUMP JUMPDEST SWAP3 SWAP2 POP POP JUMP JUMPDEST PUSH1 0x0 PUSH1 0x40 DUP3 ADD SWAP1 POP PUSH2 0x194E PUSH1 0x0 DUP4 ADD DUP6 PUSH2 0x1786 JUMP JUMPDEST PUSH2 0x195B PUSH1 0x20 DUP4 ADD DUP5 PUSH2 0x156B JUMP JUMPDEST SWAP4 SWAP3 POP POP POP JUMP JUMPDEST PUSH1 0x0 PUSH1 0xA0 DUP3 ADD SWAP1 POP PUSH2 0x1977 PUSH1 0x0 DUP4 ADD DUP9 PUSH2 0x1786 JUMP JUMPDEST PUSH2 0x1984 PUSH1 0x20 DUP4 ADD DUP8 PUSH2 0x1786 JUMP JUMPDEST PUSH2 0x1991 PUSH1 0x40 DUP4 ADD DUP7 PUSH2 0x1786 JUMP JUMPDEST PUSH2 0x199E PUSH1 0x60 DUP4 ADD DUP6 PUSH2 0x1786 JUMP JUMPDEST PUSH2 0x19AB PUSH1 0x80 DUP4 ADD DUP5 PUSH2 0x156B JUMP JUMPDEST SWAP7 SWAP6 POP POP POP POP POP POP JUMP JUMPDEST PUSH1 0x0 DUP2 SWAP1 POP PUSH1 0x20 DUP3 ADD SWAP1 POP SWAP2 SWAP1 POP JUMP JUMPDEST PUSH1 0x0 DUP2 SWAP1 POP PUSH1 0x20 DUP3 ADD SWAP1 POP SWAP2 SWAP1 POP JUMP JUMPDEST PUSH1 0x0 DUP2 SWAP1 POP PUSH1 0x20 DUP3 ADD SWAP1 POP SWAP2 SWAP1 POP JUMP JUMPDEST PUSH1 0x0 DUP2 MLOAD SWAP1 POP SWAP2 SWAP1 POP JUMP JUMPDEST PUSH1 0x0 DUP2 MLOAD SWAP1 POP SWAP2 SWAP1 POP JUMP JUMPDEST PUSH1 0x0 DUP2 MLOAD SWAP1 POP SWAP2 SWAP1 POP JUMP JUMPDEST PUSH1 0x0 PUSH1 0x20 DUP3 ADD SWAP1 POP SWAP2 SWAP1 POP JUMP JUMPDEST PUSH1 0x0 PUSH1 0x20 DUP3 ADD SWAP1 POP SWAP2 SWAP1 POP JUMP JUMPDEST PUSH1 0x0 PUSH1 0x20 DUP3 ADD SWAP1 POP SWAP2 SWAP1 POP JUMP JUMPDEST PUSH1 0x0 DUP3 DUP3 MSTORE PUSH1 0x20 DUP3 ADD SWAP1 POP SWAP3 SWAP2 POP POP JUMP JUMPDEST PUSH1 0x0 DUP3 DUP3 MSTORE PUSH1 0x20 DUP3 ADD SWAP1 POP SWAP3 SWAP2 POP POP JUMP JUMPDEST PUSH1 0x0 DUP3 DUP3 MSTORE PUSH1 0x20 DUP3 ADD SWAP1 POP SWAP3 SWAP2 POP POP JUMP JUMPDEST PUSH1 0x0 DUP3 DUP3 MSTORE PUSH1 0x20 DUP3 ADD SWAP1 POP SWAP3 SWAP2 POP POP JUMP JUMPDEST PUSH1 0x0 PUSH2 0x1A7C DUP3 PUSH2 0x1B39 JUMP JUMPDEST SWAP2 POP PUSH2 0x1A87 DUP4 PUSH2 0x1B39 JUMP JUMPDEST SWAP3 POP DUP3 PUSH32 0xFFFFFFFFFFFFFFFFFFFFFFFFFFFFFFFFFFFFFFFFFFFFFFFFFFFFFFFFFFFFFFFF SUB DUP3 GT ISZERO PUSH2 0x1ABC JUMPI PUSH2 0x1ABB PUSH2 0x1C21 JUMP JUMPDEST JUMPDEST DUP3 DUP3 ADD SWAP1 POP SWAP3 SWAP2 POP POP JUMP JUMPDEST PUSH1 0x0 PUSH2 0x1AD2 DUP3 PUSH2 0x1B39 JUMP JUMPDEST SWAP2 POP PUSH2 0x1ADD DUP4 PUSH2 0x1B39 JUMP JUMPDEST SWAP3 POP DUP3 DUP3 LT ISZERO PUSH2 0x1AF0 JUMPI PUSH2 0x1AEF PUSH2 0x1C21 JUMP JUMPDEST JUMPDEST DUP3 DUP3 SUB SWAP1 POP SWAP3 SWAP2 POP POP JUMP JUMPDEST PUSH1 0x0 PUSH2 0x1B06 DUP3 PUSH2 0x1B19 JUMP JUMPDEST SWAP1 POP SWAP2 SWAP1 POP JUMP JUMPDEST PUSH1 0x0 DUP2 ISZERO ISZERO SWAP1 POP SWAP2 SWAP1 POP JUMP JUMPDEST PUSH1 0x0 PUSH20 0xFFFFFFFFFFFFFFFFFFFFFFFFFFFFFFFFFFFFFFFF DUP3 AND SWAP1 POP SWAP2 SWAP1 POP JUMP JUMPDEST PUSH1 0x0 DUP2 SWAP1 POP SWAP2 SWAP1 POP JUMP JUMPDEST PUSH1 0x0 PUSH2 0x1B4E DUP3 PUSH2 0x1B55 JUMP JUMPDEST SWAP1 POP SWAP2 SWAP1 POP JUMP JUMPDEST PUSH1 0x0 PUSH2 0x1B60 DUP3 PUSH2 0x1B67 JUMP JUMPDEST SWAP1 POP SWAP2 SWAP1 POP JUMP JUMPDEST PUSH1 0x0 PUSH2 0x1B72 DUP3 PUSH2 0x1B19 JUMP JUMPDEST SWAP1 POP SWAP2 SWAP1 POP JUMP JUMPDEST PUSH1 0x0 PUSH2 0x1B84 DUP3 PUSH2 0x1B39 JUMP JUMPDEST SWAP2 POP PUSH32 0xFFFFFFFFFFFFFFFFFFFFFFFFFFFFFFFFFFFFFFFFFFFFFFFFFFFFFFFFFFFFFFFF DUP3 EQ ISZERO PUSH2 0x1BB7 JUMPI PUSH2 0x1BB6 PUSH2 0x1C21 JUMP JUMPDEST JUMPDEST PUSH1 0x1 DUP3 ADD SWAP1 POP SWAP2 SWAP1 POP JUMP JUMPDEST PUSH1 0x0 PUSH2 0x1BCD DUP3 PUSH2 0x1BD4 JUMP JUMPDEST SWAP1 POP SWAP2 SWAP1 POP JUMP JUMPDEST PUSH1 0x0 PUSH2 0x1BDF DUP3 PUSH2 0x1D11 JUMP JUMPDEST SWAP1 POP SWAP2 SWAP1 POP JUMP JUMPDEST PUSH1 0x0 DUP2 SWAP1 POP SWAP2 SWAP1 POP JUMP JUMPDEST PUSH1 0x0 PUSH2 0x1BFB DUP3 PUSH2 0x1B39 JUMP JUMPDEST SWAP2 POP PUSH2 0x1C06 DUP4 PUSH2 0x1B39 JUMP JUMPDEST SWAP3 POP DUP3 PUSH2 0x1C16 JUMPI PUSH2 0x1C15 PUSH2 0x1C50 JUMP JUMPDEST JUMPDEST DUP3 DUP3 MOD SWAP1 POP SWAP3 SWAP2 POP POP JUMP JUMPDEST PUSH32 0x4E487B7100000000000000000000000000000000000000000000000000000000 PUSH1 0x0 MSTORE PUSH1 0x11 PUSH1 0x4 MSTORE PUSH1 0x24 PUSH1 0x0 REVERT JUMPDEST PUSH32 0x4E487B7100000000000000000000000000000000000000000000000000000000 PUSH1 0x0 MSTORE PUSH1 0x12 PUSH1 0x4 MSTORE PUSH1 0x24 PUSH1 0x0 REVERT JUMPDEST PUSH32 0x4E487B7100000000000000000000000000000000000000000000000000000000 PUSH1 0x0 MSTORE PUSH1 0x31 PUSH1 0x4 MSTORE PUSH1 0x24 PUSH1 0x0 REVERT JUMPDEST PUSH32 0x4E487B7100000000000000000000000000000000000000000000000000000000 PUSH1 0x0 MSTORE PUSH1 0x32 PUSH1 0x4 MSTORE PUSH1 0x24 PUSH1 0x0 REVERT JUMPDEST PUSH32 0x4E487B7100000000000000000000000000000000000000000000000000000000 PUSH1 0x0 MSTORE PUSH1 0x41 PUSH1 0x4 MSTORE PUSH1 0x24 PUSH1 0x0 REVERT JUMPDEST PUSH1 0x0 DUP1 REVERT JUMPDEST PUSH1 0x0 DUP2 PUSH1 0x60 SHL SWAP1 POP SWAP2 SWAP1 POP JUMP JUMPDEST PUSH32 0x4F776E61626C653A206E6577206F776E657220697320746865207A65726F2061 PUSH1 0x0 DUP3 ADD MSTORE PUSH32 0x6464726573730000000000000000000000000000000000000000000000000000 PUSH1 0x20 DUP3 ADD MSTORE POP JUMP JUMPDEST PUSH32 0x4F776E61626C653A2063616C6C6572206973206E6F7420746865206F776E6572 PUSH1 0x0 DUP3 ADD MSTORE POP JUMP JUMPDEST PUSH2 0x1D9F DUP2 PUSH2 0x1AFB JUMP JUMPDEST DUP2 EQ PUSH2 0x1DAA JUMPI PUSH1 0x0 DUP1 REVERT JUMPDEST POP JUMP JUMPDEST PUSH2 0x1DB6 DUP2 PUSH2 0x1B39 JUMP JUMPDEST DUP2 EQ PUSH2 0x1DC1 JUMPI PUSH1 0x0 DUP1 REVERT JUMPDEST POP JUMP INVALID LOG2 PUSH5 0x6970667358 0x22 SLT KECCAK256 PUSH5 0x1F0DDC64CC 0xA8 BLOCKHASH 0xE5 0xA6 MULMOD LOG3 JUMPDEST 0xAB PUSH6 0xD79665518848 SUB DUP6 PUSH9 0x95010F1434593F9764 PUSH20 0x6F6C634300080700330000000000000000000000 "
				},
				"gasEstimates": {
					"creation": {
						"codeDepositCost": "1534800",
						"executionCost": "infinite",
						"totalCost": "infinite"
					},
					"external": {
						"BUSD()": "2645",
						"acesToken()": "2645",
						"currentJackpot()": "infinite",
						"entriesIndex(address,uint256)": "infinite",
						"getUniqueAddresses()": "infinite",
						"getUniqueUsers()": "infinite",
						"isActiveAccount(address)": "2984",
						"owner()": "2545",
						"pickWinner(uint256)": "infinite",
						"removeAccount(address)": "infinite",
						"removeEntryFromWallet(address,uint256)": "infinite",
						"renounceOwnership()": "30485",
						"resultLog(uint256,uint256)": "infinite",
						"roundEntries()": "2562",
						"roundEntry(uint256)": "2861",
						"roundNum()": "2475",
						"roundResults(uint256)": "infinite",
						"totalPayout()": "2452",
						"transferOwnership(address)": "30811",
						"updateAccount(address,uint256)": "infinite",
						"updateWinner(uint256,uint256)": "infinite",
						"userEntries(address)": "2916"
					},
					"internal": {
						"random(uint256)": "infinite"
					}
				},
				"methodIdentifiers": {
					"BUSD()": "484f4ea9",
					"acesToken()": "9b3e4552",
					"currentJackpot()": "f9cee0bd",
					"entriesIndex(address,uint256)": "0d988270",
					"getUniqueAddresses()": "3b98bc65",
					"getUniqueUsers()": "158977de",
					"isActiveAccount(address)": "5bedc390",
					"owner()": "8da5cb5b",
					"pickWinner(uint256)": "f737d21d",
					"removeAccount(address)": "c4740a95",
					"removeEntryFromWallet(address,uint256)": "a59460dc",
					"renounceOwnership()": "715018a6",
					"resultLog(uint256,uint256)": "bc15cdf0",
					"roundEntries()": "76636d20",
					"roundEntry(uint256)": "b657dd65",
					"roundNum()": "119b22b3",
					"roundResults(uint256)": "ac128f4f",
					"totalPayout()": "454f7b8f",
					"transferOwnership(address)": "f2fde38b",
					"updateAccount(address,uint256)": "443b80a1",
					"updateWinner(uint256,uint256)": "6fbb5a86",
					"userEntries(address)": "9f10a990"
				}
			},
			"storageLayout": {
				"storage": [
					{
						"astId": 7,
						"contract": "lotto.sol:ACELotto",
						"label": "_owner",
						"offset": 0,
						"slot": "0",
						"type": "t_address"
					},
					{
						"astId": 239,
						"contract": "lotto.sol:ACELotto",
						"label": "roundEntries",
						"offset": 0,
						"slot": "1",
						"type": "t_uint256"
					},
					{
						"astId": 241,
						"contract": "lotto.sol:ACELotto",
						"label": "roundNum",
						"offset": 0,
						"slot": "2",
						"type": "t_uint256"
					},
					{
						"astId": 243,
						"contract": "lotto.sol:ACELotto",
						"label": "totalPayout",
						"offset": 0,
						"slot": "3",
						"type": "t_uint256"
					},
					{
						"astId": 249,
						"contract": "lotto.sol:ACELotto",
						"label": "acesToken",
						"offset": 0,
						"slot": "4",
						"type": "t_contract(IERC20)182"
					},
					{
						"astId": 255,
						"contract": "lotto.sol:ACELotto",
						"label": "BUSD",
						"offset": 0,
						"slot": "5",
						"type": "t_contract(IERC20)182"
					},
					{
						"astId": 271,
						"contract": "lotto.sol:ACELotto",
						"label": "roundResults",
						"offset": 0,
						"slot": "6",
						"type": "t_mapping(t_uint256,t_struct(Results)266_storage)"
					},
					{
						"astId": 275,
						"contract": "lotto.sol:ACELotto",
						"label": "roundEntry",
						"offset": 0,
						"slot": "7",
						"type": "t_mapping(t_uint256,t_address)"
					},
					{
						"astId": 280,
						"contract": "lotto.sol:ACELotto",
						"label": "entriesIndex",
						"offset": 0,
						"slot": "8",
						"type": "t_mapping(t_address,t_array(t_uint256)dyn_storage)"
					}
				],
				"types": {
					"t_address": {
						"encoding": "inplace",
						"label": "address",
						"numberOfBytes": "20"
					},
					"t_array(t_uint256)dyn_storage": {
						"base": "t_uint256",
						"encoding": "dynamic_array",
						"label": "uint256[]",
						"numberOfBytes": "32"
					},
					"t_contract(IERC20)182": {
						"encoding": "inplace",
						"label": "contract IERC20",
						"numberOfBytes": "20"
					},
					"t_mapping(t_address,t_array(t_uint256)dyn_storage)": {
						"encoding": "mapping",
						"key": "t_address",
						"label": "mapping(address => uint256[])",
						"numberOfBytes": "32",
						"value": "t_array(t_uint256)dyn_storage"
					},
					"t_mapping(t_uint256,t_address)": {
						"encoding": "mapping",
						"key": "t_uint256",
						"label": "mapping(uint256 => address)",
						"numberOfBytes": "32",
						"value": "t_address"
					},
					"t_mapping(t_uint256,t_struct(Results)266_storage)": {
						"encoding": "mapping",
						"key": "t_uint256",
						"label": "mapping(uint256 => struct ACELotto.Results)",
						"numberOfBytes": "32",
						"value": "t_struct(Results)266_storage"
					},
					"t_struct(Results)266_storage": {
						"encoding": "inplace",
						"label": "struct ACELotto.Results",
						"members": [
							{
								"astId": 257,
								"contract": "lotto.sol:ACELotto",
								"label": "totalEntries",
								"offset": 0,
								"slot": "0",
								"type": "t_uint256"
							},
							{
								"astId": 259,
								"contract": "lotto.sol:ACELotto",
								"label": "winningNumber",
								"offset": 0,
								"slot": "1",
								"type": "t_uint256"
							},
							{
								"astId": 261,
								"contract": "lotto.sol:ACELotto",
								"label": "payout",
								"offset": 0,
								"slot": "2",
								"type": "t_uint256"
							},
							{
								"astId": 263,
								"contract": "lotto.sol:ACELotto",
								"label": "endTime",
								"offset": 0,
								"slot": "3",
								"type": "t_uint256"
							},
							{
								"astId": 265,
								"contract": "lotto.sol:ACELotto",
								"label": "winningAddress",
								"offset": 0,
								"slot": "4",
								"type": "t_address"
							}
						],
						"numberOfBytes": "160"
					},
					"t_uint256": {
						"encoding": "inplace",
						"label": "uint256",
						"numberOfBytes": "32"
					}
				}
			},
			"userdoc": {
				"kind": "user",
				"methods": {},
				"version": 1
			}
		}
	}
}