{
	"NFTlotto.sol": {
		"ACELotto": {
			"abi": [
				{
					"inputs": [
						{
							"internalType": "address",
							"name": "_aces",
							"type": "address"
						}
					],
					"stateMutability": "nonpayable",
					"type": "constructor"
				},
				{
					"anonymous": false,
					"inputs": [
						{
							"indexed": false,
							"internalType": "address",
							"name": "winner",
							"type": "address"
						},
						{
							"indexed": false,
							"internalType": "uint256",
							"name": "amount",
							"type": "uint256"
						}
					],
					"name": "LotteryWon",
					"type": "event"
				},
				{
					"anonymous": false,
					"inputs": [
						{
							"indexed": true,
							"internalType": "address",
							"name": "previousOwner",
							"type": "address"
						},
						{
							"indexed": true,
							"internalType": "address",
							"name": "newOwner",
							"type": "address"
						}
					],
					"name": "OwnershipTransferred",
					"type": "event"
				},
				{
					"inputs": [],
					"name": "acesToken",
					"outputs": [
						{
							"internalType": "contract IERC20",
							"name": "",
							"type": "address"
						}
					],
					"stateMutability": "view",
					"type": "function"
				},
				{
					"inputs": [],
					"name": "currentJackpot",
					"outputs": [
						{
							"internalType": "uint256",
							"name": "",
							"type": "uint256"
						}
					],
					"stateMutability": "view",
					"type": "function"
				},
				{
					"inputs": [
						{
							"internalType": "address",
							"name": "",
							"type": "address"
						},
						{
							"internalType": "uint256",
							"name": "",
							"type": "uint256"
						}
					],
					"name": "entriesIndex",
					"outputs": [
						{
							"internalType": "uint256",
							"name": "",
							"type": "uint256"
						}
					],
					"stateMutability": "view",
					"type": "function"
				},
				{
					"inputs": [],
					"name": "getUniqueAddresses",
					"outputs": [
						{
							"internalType": "address[]",
							"name": "addresses",
							"type": "address[]"
						},
						{
							"internalType": "uint256[]",
							"name": "entries",
							"type": "uint256[]"
						}
					],
					"stateMutability": "view",
					"type": "function"
				},
				{
					"inputs": [],
					"name": "getUniqueUsers",
					"outputs": [
						{
							"internalType": "uint256",
							"name": "counter",
							"type": "uint256"
						}
					],
					"stateMutability": "view",
					"type": "function"
				},
				{
					"inputs": [
						{
							"internalType": "address",
							"name": "account",
							"type": "address"
						}
					],
					"name": "isActiveAccount",
					"outputs": [
						{
							"internalType": "bool",
							"name": "",
							"type": "bool"
						}
					],
					"stateMutability": "view",
					"type": "function"
				},
				{
					"inputs": [],
					"name": "owner",
					"outputs": [
						{
							"internalType": "address",
							"name": "",
							"type": "address"
						}
					],
					"stateMutability": "view",
					"type": "function"
				},
				{
					"inputs": [],
					"name": "pickWinner",
					"outputs": [],
					"stateMutability": "nonpayable",
					"type": "function"
				},
				{
					"inputs": [
						{
							"internalType": "address",
							"name": "account",
							"type": "address"
						}
					],
					"name": "removeAccount",
					"outputs": [],
					"stateMutability": "nonpayable",
					"type": "function"
				},
				{
					"inputs": [
						{
							"internalType": "address",
							"name": "account",
							"type": "address"
						},
						{
							"internalType": "uint256",
							"name": "amount",
							"type": "uint256"
						}
					],
					"name": "removeEntryFromWallet",
					"outputs": [],
					"stateMutability": "nonpayable",
					"type": "function"
				},
				{
					"inputs": [],
					"name": "renounceOwnership",
					"outputs": [],
					"stateMutability": "nonpayable",
					"type": "function"
				},
				{
					"inputs": [
						{
							"internalType": "uint256",
							"name": "startIndex",
							"type": "uint256"
						},
						{
							"internalType": "uint256",
							"name": "endIndex",
							"type": "uint256"
						}
					],
					"name": "resultLog",
					"outputs": [
						{
							"components": [
								{
									"internalType": "uint256",
									"name": "totalEntries",
									"type": "uint256"
								},
								{
									"internalType": "uint256",
									"name": "winningNumber",
									"type": "uint256"
								},
								{
									"internalType": "uint256",
									"name": "payout",
									"type": "uint256"
								},
								{
									"internalType": "uint256",
									"name": "endTime",
									"type": "uint256"
								},
								{
									"internalType": "address",
									"name": "winningAddress",
									"type": "address"
								}
							],
							"internalType": "struct ACELotto.Results[]",
							"name": "log",
							"type": "tuple[]"
						}
					],
					"stateMutability": "view",
					"type": "function"
				},
				{
					"inputs": [],
					"name": "roundEntries",
					"outputs": [
						{
							"internalType": "uint256",
							"name": "",
							"type": "uint256"
						}
					],
					"stateMutability": "view",
					"type": "function"
				},
				{
					"inputs": [
						{
							"internalType": "uint256",
							"name": "",
							"type": "uint256"
						}
					],
					"name": "roundEntry",
					"outputs": [
						{
							"internalType": "address",
							"name": "",
							"type": "address"
						}
					],
					"stateMutability": "view",
					"type": "function"
				},
				{
					"inputs": [],
					"name": "roundNum",
					"outputs": [
						{
							"internalType": "uint256",
							"name": "",
							"type": "uint256"
						}
					],
					"stateMutability": "view",
					"type": "function"
				},
				{
					"inputs": [
						{
							"internalType": "uint256",
							"name": "",
							"type": "uint256"
						}
					],
					"name": "roundResults",
					"outputs": [
						{
							"internalType": "uint256",
							"name": "totalEntries",
							"type": "uint256"
						},
						{
							"internalType": "uint256",
							"name": "winningNumber",
							"type": "uint256"
						},
						{
							"internalType": "uint256",
							"name": "payout",
							"type": "uint256"
						},
						{
							"internalType": "uint256",
							"name": "endTime",
							"type": "uint256"
						},
						{
							"internalType": "address",
							"name": "winningAddress",
							"type": "address"
						}
					],
					"stateMutability": "view",
					"type": "function"
				},
				{
					"inputs": [],
					"name": "totalPayout",
					"outputs": [
						{
							"internalType": "uint256",
							"name": "",
							"type": "uint256"
						}
					],
					"stateMutability": "view",
					"type": "function"
				},
				{
					"inputs": [
						{
							"internalType": "address",
							"name": "newOwner",
							"type": "address"
						}
					],
					"name": "transferOwnership",
					"outputs": [],
					"stateMutability": "nonpayable",
					"type": "function"
				},
				{
					"inputs": [
						{
							"internalType": "address",
							"name": "account",
							"type": "address"
						},
						{
							"internalType": "uint256",
							"name": "amount",
							"type": "uint256"
						}
					],
					"name": "updateAccount",
					"outputs": [],
					"stateMutability": "nonpayable",
					"type": "function"
				},
				{
					"inputs": [
						{
							"internalType": "address",
							"name": "account",
							"type": "address"
						}
					],
					"name": "userEntries",
					"outputs": [
						{
							"internalType": "uint256",
							"name": "",
							"type": "uint256"
						}
					],
					"stateMutability": "view",
					"type": "function"
				}
			],
			"devdoc": {
				"kind": "dev",
				"methods": {
					"owner()": {
						"details": "Returns the address of the current owner."
					},
					"renounceOwnership()": {
						"details": "Leaves the contract without owner. It will not be possible to call `onlyOwner` functions anymore. Can only be called by the current owner. NOTE: Renouncing ownership will leave the contract without an owner, thereby removing any functionality that is only available to the owner."
					},
					"transferOwnership(address)": {
						"details": "Transfers ownership of the contract to a new account (`newOwner`). Can only be called by the current owner."
					}
				},
				"version": 1
			},
			"evm": {
				"assembly": "    /* \"NFTlotto.sol\":729:5332  contract ACELotto is Ownable {   \r... */\n  mstore(0x40, 0x80)\n    /* \"NFTlotto.sol\":1306:1376  constructor(address _aces){\r... */\n  callvalue\n  dup1\n  iszero\n  tag_1\n  jumpi\n  0x00\n  dup1\n  revert\ntag_1:\n  pop\n  mload(0x40)\n  sub(codesize, bytecodeSize)\n  dup1\n  bytecodeSize\n  dup4\n  codecopy\n  dup2\n  dup2\n  add\n  0x40\n  mstore\n  dup2\n  add\n  swap1\n  tag_2\n  swap2\n  swap1\n  tag_3\n  jump\t// in\ntag_2:\n    /* \"https://github.com/OpenZeppelin/openzeppelin-contracts/blob/master/contracts/access/Ownable.sol\":921:953  _transferOwnership(_msgSender()) */\n  tag_7\n    /* \"https://github.com/OpenZeppelin/openzeppelin-contracts/blob/master/contracts/access/Ownable.sol\":940:952  _msgSender() */\n  tag_8\n    /* \"https://github.com/OpenZeppelin/openzeppelin-contracts/blob/master/contracts/access/Ownable.sol\":940:950  _msgSender */\n  shl(0x20, tag_9)\n    /* \"https://github.com/OpenZeppelin/openzeppelin-contracts/blob/master/contracts/access/Ownable.sol\":940:952  _msgSender() */\n  0x20\n  shr\n  jump\t// in\ntag_8:\n    /* \"https://github.com/OpenZeppelin/openzeppelin-contracts/blob/master/contracts/access/Ownable.sol\":921:939  _transferOwnership */\n  shl(0x20, tag_10)\n    /* \"https://github.com/OpenZeppelin/openzeppelin-contracts/blob/master/contracts/access/Ownable.sol\":921:953  _transferOwnership(_msgSender()) */\n  0x20\n  shr\n  jump\t// in\ntag_7:\n    /* \"NFTlotto.sol\":1362:1367  _aces */\n  dup1\n    /* \"NFTlotto.sol\":1343:1352  acesToken */\n  0x04\n  0x00\n    /* \"NFTlotto.sol\":1343:1368  acesToken = IERC20(_aces) */\n  0x0100\n  exp\n  dup2\n  sload\n  dup2\n  0xffffffffffffffffffffffffffffffffffffffff\n  mul\n  not\n  and\n  swap1\n  dup4\n  0xffffffffffffffffffffffffffffffffffffffff\n  and\n  mul\n  or\n  swap1\n  sstore\n  pop\n    /* \"NFTlotto.sol\":1306:1376  constructor(address _aces){\r... */\n  pop\n    /* \"NFTlotto.sol\":729:5332  contract ACELotto is Ownable {   \r... */\n  jump(tag_12)\n    /* \"https://github.com/OpenZeppelin/openzeppelin-contracts/blob/master/contracts/utils/Context.sol\":640:736  function _msgSender() internal view virtual returns (address) {... */\ntag_9:\n    /* \"https://github.com/OpenZeppelin/openzeppelin-contracts/blob/master/contracts/utils/Context.sol\":693:700  address */\n  0x00\n    /* \"https://github.com/OpenZeppelin/openzeppelin-contracts/blob/master/contracts/utils/Context.sol\":719:729  msg.sender */\n  caller\n    /* \"https://github.com/OpenZeppelin/openzeppelin-contracts/blob/master/contracts/utils/Context.sol\":712:729  return msg.sender */\n  swap1\n  pop\n    /* \"https://github.com/OpenZeppelin/openzeppelin-contracts/blob/master/contracts/utils/Context.sol\":640:736  function _msgSender() internal view virtual returns (address) {... */\n  swap1\n  jump\t// out\n    /* \"https://github.com/OpenZeppelin/openzeppelin-contracts/blob/master/contracts/access/Ownable.sol\":2270:2457  function _transferOwnership(address newOwner) internal virtual {... */\ntag_10:\n    /* \"https://github.com/OpenZeppelin/openzeppelin-contracts/blob/master/contracts/access/Ownable.sol\":2343:2359  address oldOwner */\n  0x00\n    /* \"https://github.com/OpenZeppelin/openzeppelin-contracts/blob/master/contracts/access/Ownable.sol\":2362:2368  _owner */\n  dup1\n  0x00\n  swap1\n  sload\n  swap1\n  0x0100\n  exp\n  swap1\n  div\n  0xffffffffffffffffffffffffffffffffffffffff\n  and\n    /* \"https://github.com/OpenZeppelin/openzeppelin-contracts/blob/master/contracts/access/Ownable.sol\":2343:2368  address oldOwner = _owner */\n  swap1\n  pop\n    /* \"https://github.com/OpenZeppelin/openzeppelin-contracts/blob/master/contracts/access/Ownable.sol\":2387:2395  newOwner */\n  dup2\n    /* \"https://github.com/OpenZeppelin/openzeppelin-contracts/blob/master/contracts/access/Ownable.sol\":2378:2384  _owner */\n  0x00\n  dup1\n    /* \"https://github.com/OpenZeppelin/openzeppelin-contracts/blob/master/contracts/access/Ownable.sol\":2378:2395  _owner = newOwner */\n  0x0100\n  exp\n  dup2\n  sload\n  dup2\n  0xffffffffffffffffffffffffffffffffffffffff\n  mul\n  not\n  and\n  swap1\n  dup4\n  0xffffffffffffffffffffffffffffffffffffffff\n  and\n  mul\n  or\n  swap1\n  sstore\n  pop\n    /* \"https://github.com/OpenZeppelin/openzeppelin-contracts/blob/master/contracts/access/Ownable.sol\":2441:2449  newOwner */\n  dup2\n    /* \"https://github.com/OpenZeppelin/openzeppelin-contracts/blob/master/contracts/access/Ownable.sol\":2410:2450  OwnershipTransferred(oldOwner, newOwner) */\n  0xffffffffffffffffffffffffffffffffffffffff\n  and\n    /* \"https://github.com/OpenZeppelin/openzeppelin-contracts/blob/master/contracts/access/Ownable.sol\":2431:2439  oldOwner */\n  dup2\n    /* \"https://github.com/OpenZeppelin/openzeppelin-contracts/blob/master/contracts/access/Ownable.sol\":2410:2450  OwnershipTransferred(oldOwner, newOwner) */\n  0xffffffffffffffffffffffffffffffffffffffff\n  and\n  0x8be0079c531659141344cd1fd0a4f28419497f9722a3daafe3b4186f6b6457e0\n  mload(0x40)\n  mload(0x40)\n  dup1\n  swap2\n  sub\n  swap1\n  log3\n    /* \"https://github.com/OpenZeppelin/openzeppelin-contracts/blob/master/contracts/access/Ownable.sol\":2333:2457  {... */\n  pop\n    /* \"https://github.com/OpenZeppelin/openzeppelin-contracts/blob/master/contracts/access/Ownable.sol\":2270:2457  function _transferOwnership(address newOwner) internal virtual {... */\n  pop\n  jump\t// out\n    /* \"#utility.yul\":7:150   */\ntag_16:\n    /* \"#utility.yul\":64:69   */\n  0x00\n    /* \"#utility.yul\":95:101   */\n  dup2\n    /* \"#utility.yul\":89:102   */\n  mload\n    /* \"#utility.yul\":80:102   */\n  swap1\n  pop\n    /* \"#utility.yul\":111:144   */\n  tag_18\n    /* \"#utility.yul\":138:143   */\n  dup2\n    /* \"#utility.yul\":111:144   */\n  tag_19\n  jump\t// in\ntag_18:\n    /* \"#utility.yul\":7:150   */\n  swap3\n  swap2\n  pop\n  pop\n  jump\t// out\n    /* \"#utility.yul\":156:507   */\ntag_3:\n    /* \"#utility.yul\":226:232   */\n  0x00\n    /* \"#utility.yul\":275:277   */\n  0x20\n    /* \"#utility.yul\":263:272   */\n  dup3\n    /* \"#utility.yul\":254:261   */\n  dup5\n    /* \"#utility.yul\":250:273   */\n  sub\n    /* \"#utility.yul\":246:278   */\n  slt\n    /* \"#utility.yul\":243:362   */\n  iszero\n  tag_21\n  jumpi\n    /* \"#utility.yul\":281:360   */\n  tag_22\n  tag_23\n  jump\t// in\ntag_22:\n    /* \"#utility.yul\":243:362   */\ntag_21:\n    /* \"#utility.yul\":401:402   */\n  0x00\n    /* \"#utility.yul\":426:490   */\n  tag_24\n    /* \"#utility.yul\":482:489   */\n  dup5\n    /* \"#utility.yul\":473:479   */\n  dup3\n    /* \"#utility.yul\":462:471   */\n  dup6\n    /* \"#utility.yul\":458:480   */\n  add\n    /* \"#utility.yul\":426:490   */\n  tag_16\n  jump\t// in\ntag_24:\n    /* \"#utility.yul\":416:490   */\n  swap2\n  pop\n    /* \"#utility.yul\":372:500   */\n  pop\n    /* \"#utility.yul\":156:507   */\n  swap3\n  swap2\n  pop\n  pop\n  jump\t// out\n    /* \"#utility.yul\":594:690   */\ntag_27:\n    /* \"#utility.yul\":631:638   */\n  0x00\n    /* \"#utility.yul\":660:684   */\n  tag_29\n    /* \"#utility.yul\":678:683   */\n  dup3\n    /* \"#utility.yul\":660:684   */\n  tag_30\n  jump\t// in\ntag_29:\n    /* \"#utility.yul\":649:684   */\n  swap1\n  pop\n    /* \"#utility.yul\":594:690   */\n  swap2\n  swap1\n  pop\n  jump\t// out\n    /* \"#utility.yul\":696:822   */\ntag_30:\n    /* \"#utility.yul\":733:740   */\n  0x00\n    /* \"#utility.yul\":773:815   */\n  0xffffffffffffffffffffffffffffffffffffffff\n    /* \"#utility.yul\":766:771   */\n  dup3\n    /* \"#utility.yul\":762:816   */\n  and\n    /* \"#utility.yul\":751:816   */\n  swap1\n  pop\n    /* \"#utility.yul\":696:822   */\n  swap2\n  swap1\n  pop\n  jump\t// out\n    /* \"#utility.yul\":951:1068   */\ntag_23:\n    /* \"#utility.yul\":1060:1061   */\n  0x00\n    /* \"#utility.yul\":1057:1058   */\n  dup1\n    /* \"#utility.yul\":1050:1062   */\n  revert\n    /* \"#utility.yul\":1074:1196   */\ntag_19:\n    /* \"#utility.yul\":1147:1171   */\n  tag_36\n    /* \"#utility.yul\":1165:1170   */\n  dup2\n    /* \"#utility.yul\":1147:1171   */\n  tag_27\n  jump\t// in\ntag_36:\n    /* \"#utility.yul\":1140:1145   */\n  dup2\n    /* \"#utility.yul\":1137:1172   */\n  eq\n    /* \"#utility.yul\":1127:1190   */\n  tag_37\n  jumpi\n    /* \"#utility.yul\":1186:1187   */\n  0x00\n    /* \"#utility.yul\":1183:1184   */\n  dup1\n    /* \"#utility.yul\":1176:1188   */\n  revert\n    /* \"#utility.yul\":1127:1190   */\ntag_37:\n    /* \"#utility.yul\":1074:1196   */\n  pop\n  jump\t// out\n    /* \"NFTlotto.sol\":729:5332  contract ACELotto is Ownable {   \r... */\ntag_12:\n  dataSize(sub_0)\n  dup1\n  dataOffset(sub_0)\n  0x00\n  codecopy\n  0x00\n  return\nstop\n\nsub_0: assembly {\n        /* \"NFTlotto.sol\":729:5332  contract ACELotto is Ownable {   \r... */\n      mstore(0x40, 0x80)\n      callvalue\n      dup1\n      iszero\n      tag_1\n      jumpi\n      0x00\n      dup1\n      revert\n    tag_1:\n      pop\n      jumpi(tag_2, lt(calldatasize, 0x04))\n      shr(0xe0, calldataload(0x00))\n      dup1\n      0x8da5cb5b\n      gt\n      tag_23\n      jumpi\n      dup1\n      0xb657dd65\n      gt\n      tag_24\n      jumpi\n      dup1\n      0xb657dd65\n      eq\n      tag_18\n      jumpi\n      dup1\n      0xbc15cdf0\n      eq\n      tag_19\n      jumpi\n      dup1\n      0xc4740a95\n      eq\n      tag_20\n      jumpi\n      dup1\n      0xf2fde38b\n      eq\n      tag_21\n      jumpi\n      dup1\n      0xf9cee0bd\n      eq\n      tag_22\n      jumpi\n      jump(tag_2)\n    tag_24:\n      dup1\n      0x8da5cb5b\n      eq\n      tag_13\n      jumpi\n      dup1\n      0x9b3e4552\n      eq\n      tag_14\n      jumpi\n      dup1\n      0x9f10a990\n      eq\n      tag_15\n      jumpi\n      dup1\n      0xa59460dc\n      eq\n      tag_16\n      jumpi\n      dup1\n      0xac128f4f\n      eq\n      tag_17\n      jumpi\n      jump(tag_2)\n    tag_23:\n      dup1\n      0x454f7b8f\n      gt\n      tag_25\n      jumpi\n      dup1\n      0x454f7b8f\n      eq\n      tag_8\n      jumpi\n      dup1\n      0x5bedc390\n      eq\n      tag_9\n      jumpi\n      dup1\n      0x5d495aea\n      eq\n      tag_10\n      jumpi\n      dup1\n      0x715018a6\n      eq\n      tag_11\n      jumpi\n      dup1\n      0x76636d20\n      eq\n      tag_12\n      jumpi\n      jump(tag_2)\n    tag_25:\n      dup1\n      0x0d988270\n      eq\n      tag_3\n      jumpi\n      dup1\n      0x119b22b3\n      eq\n      tag_4\n      jumpi\n      dup1\n      0x158977de\n      eq\n      tag_5\n      jumpi\n      dup1\n      0x3b98bc65\n      eq\n      tag_6\n      jumpi\n      dup1\n      0x443b80a1\n      eq\n      tag_7\n      jumpi\n    tag_2:\n      0x00\n      dup1\n      revert\n        /* \"NFTlotto.sol\":1191:1240  mapping(address => uint256[]) public entriesIndex */\n    tag_3:\n      tag_26\n      0x04\n      dup1\n      calldatasize\n      sub\n      dup2\n      add\n      swap1\n      tag_27\n      swap2\n      swap1\n      tag_28\n      jump\t// in\n    tag_27:\n      tag_29\n      jump\t// in\n    tag_26:\n      mload(0x40)\n      tag_30\n      swap2\n      swap1\n      tag_31\n      jump\t// in\n    tag_30:\n      mload(0x40)\n      dup1\n      swap2\n      sub\n      swap1\n      return\n        /* \"NFTlotto.sol\":802:825  uint256 public roundNum */\n    tag_4:\n      tag_32\n      tag_33\n      jump\t// in\n    tag_32:\n      mload(0x40)\n      tag_34\n      swap2\n      swap1\n      tag_31\n      jump\t// in\n    tag_34:\n      mload(0x40)\n      dup1\n      swap2\n      sub\n      swap1\n      return\n        /* \"NFTlotto.sol\":4057:4337  function getUniqueUsers() public view returns (uint256 counter) {\r... */\n    tag_5:\n      tag_35\n      tag_36\n      jump\t// in\n    tag_35:\n      mload(0x40)\n      tag_37\n      swap2\n      swap1\n      tag_31\n      jump\t// in\n    tag_37:\n      mload(0x40)\n      dup1\n      swap2\n      sub\n      swap1\n      return\n        /* \"NFTlotto.sol\":4345:4948  function getUniqueAddresses() public view returns (address [] memory addresses, uint256 [] memory entries) {\r... */\n    tag_6:\n      tag_38\n      tag_39\n      jump\t// in\n    tag_38:\n      mload(0x40)\n      tag_40\n      swap3\n      swap2\n      swap1\n      tag_41\n      jump\t// in\n    tag_40:\n      mload(0x40)\n      dup1\n      swap2\n      sub\n      swap1\n      return\n        /* \"NFTlotto.sol\":1384:1656  function updateAccount(address account, uint256 amount) external{\r... */\n    tag_7:\n      tag_42\n      0x04\n      dup1\n      calldatasize\n      sub\n      dup2\n      add\n      swap1\n      tag_43\n      swap2\n      swap1\n      tag_28\n      jump\t// in\n    tag_43:\n      tag_44\n      jump\t// in\n    tag_42:\n      stop\n        /* \"NFTlotto.sol\":832:858  uint256 public totalPayout */\n    tag_8:\n      tag_45\n      tag_46\n      jump\t// in\n    tag_45:\n      mload(0x40)\n      tag_47\n      swap2\n      swap1\n      tag_31\n      jump\t// in\n    tag_47:\n      mload(0x40)\n      dup1\n      swap2\n      sub\n      swap1\n      return\n        /* \"NFTlotto.sol\":2427:2596  function isActiveAccount(address account) external view returns(bool){\r... */\n    tag_9:\n      tag_48\n      0x04\n      dup1\n      calldatasize\n      sub\n      dup2\n      add\n      swap1\n      tag_49\n      swap2\n      swap1\n      tag_50\n      jump\t// in\n    tag_49:\n      tag_51\n      jump\t// in\n    tag_48:\n      mload(0x40)\n      tag_52\n      swap2\n      swap1\n      tag_53\n      jump\t// in\n    tag_52:\n      mload(0x40)\n      dup1\n      swap2\n      sub\n      swap1\n      return\n        /* \"NFTlotto.sol\":2604:3290  function pickWinner() external onlyOwner {\r... */\n    tag_10:\n      tag_54\n      tag_55\n      jump\t// in\n    tag_54:\n      stop\n        /* \"https://github.com/OpenZeppelin/openzeppelin-contracts/blob/master/contracts/access/Ownable.sol\":1668:1769  function renounceOwnership() public virtual onlyOwner {... */\n    tag_11:\n      tag_56\n      tag_57\n      jump\t// in\n    tag_56:\n      stop\n        /* \"NFTlotto.sol\":768:795  uint256 public roundEntries */\n    tag_12:\n      tag_58\n      tag_59\n      jump\t// in\n    tag_58:\n      mload(0x40)\n      tag_60\n      swap2\n      swap1\n      tag_31\n      jump\t// in\n    tag_60:\n      mload(0x40)\n      dup1\n      swap2\n      sub\n      swap1\n      return\n        /* \"https://github.com/OpenZeppelin/openzeppelin-contracts/blob/master/contracts/access/Ownable.sol\":1036:1121  function owner() public view virtual returns (address) {... */\n    tag_13:\n      tag_61\n      tag_62\n      jump\t// in\n    tag_61:\n      mload(0x40)\n      tag_63\n      swap2\n      swap1\n      tag_64\n      jump\t// in\n    tag_63:\n      mload(0x40)\n      dup1\n      swap2\n      sub\n      swap1\n      return\n        /* \"NFTlotto.sol\":871:894  IERC20 public acesToken */\n    tag_14:\n      tag_65\n      tag_66\n      jump\t// in\n    tag_65:\n      mload(0x40)\n      tag_67\n      swap2\n      swap1\n      tag_68\n      jump\t// in\n    tag_67:\n      mload(0x40)\n      dup1\n      swap2\n      sub\n      swap1\n      return\n        /* \"NFTlotto.sol\":3422:3544  function userEntries(address account) public view returns (uint256) {\r... */\n    tag_15:\n      tag_69\n      0x04\n      dup1\n      calldatasize\n      sub\n      dup2\n      add\n      swap1\n      tag_70\n      swap2\n      swap1\n      tag_50\n      jump\t// in\n    tag_70:\n      tag_71\n      jump\t// in\n    tag_69:\n      mload(0x40)\n      tag_72\n      swap2\n      swap1\n      tag_31\n      jump\t// in\n    tag_72:\n      mload(0x40)\n      dup1\n      swap2\n      sub\n      swap1\n      return\n        /* \"NFTlotto.sol\":1664:2242  function removeEntryFromWallet(address account, uint256 amount) public {\r... */\n    tag_16:\n      tag_73\n      0x04\n      dup1\n      calldatasize\n      sub\n      dup2\n      add\n      swap1\n      tag_74\n      swap2\n      swap1\n      tag_28\n      jump\t// in\n    tag_74:\n      tag_75\n      jump\t// in\n    tag_73:\n      stop\n        /* \"NFTlotto.sol\":1085:1132  mapping(uint256 => Results) public roundResults */\n    tag_17:\n      tag_76\n      0x04\n      dup1\n      calldatasize\n      sub\n      dup2\n      add\n      swap1\n      tag_77\n      swap2\n      swap1\n      tag_78\n      jump\t// in\n    tag_77:\n      tag_79\n      jump\t// in\n    tag_76:\n      mload(0x40)\n      tag_80\n      swap6\n      swap5\n      swap4\n      swap3\n      swap2\n      swap1\n      tag_81\n      jump\t// in\n    tag_80:\n      mload(0x40)\n      dup1\n      swap2\n      sub\n      swap1\n      return\n        /* \"NFTlotto.sol\":1139:1184  mapping(uint256 => address) public roundEntry */\n    tag_18:\n      tag_82\n      0x04\n      dup1\n      calldatasize\n      sub\n      dup2\n      add\n      swap1\n      tag_83\n      swap2\n      swap1\n      tag_78\n      jump\t// in\n    tag_83:\n      tag_84\n      jump\t// in\n    tag_82:\n      mload(0x40)\n      tag_85\n      swap2\n      swap1\n      tag_64\n      jump\t// in\n    tag_85:\n      mload(0x40)\n      dup1\n      swap2\n      sub\n      swap1\n      return\n        /* \"NFTlotto.sol\":3552:4049  function resultLog(uint256 startIndex, uint256 endIndex) external view returns(Results [] memory log){\r... */\n    tag_19:\n      tag_86\n      0x04\n      dup1\n      calldatasize\n      sub\n      dup2\n      add\n      swap1\n      tag_87\n      swap2\n      swap1\n      tag_88\n      jump\t// in\n    tag_87:\n      tag_89\n      jump\t// in\n    tag_86:\n      mload(0x40)\n      tag_90\n      swap2\n      swap1\n      tag_91\n      jump\t// in\n    tag_90:\n      mload(0x40)\n      dup1\n      swap2\n      sub\n      swap1\n      return\n        /* \"NFTlotto.sol\":2250:2419  function removeAccount(address account) external{\r... */\n    tag_20:\n      tag_92\n      0x04\n      dup1\n      calldatasize\n      sub\n      dup2\n      add\n      swap1\n      tag_93\n      swap2\n      swap1\n      tag_50\n      jump\t// in\n    tag_93:\n      tag_94\n      jump\t// in\n    tag_92:\n      stop\n        /* \"https://github.com/OpenZeppelin/openzeppelin-contracts/blob/master/contracts/access/Ownable.sol\":1918:2116  function transferOwnership(address newOwner) public virtual onlyOwner {... */\n    tag_21:\n      tag_95\n      0x04\n      dup1\n      calldatasize\n      sub\n      dup2\n      add\n      swap1\n      tag_96\n      swap2\n      swap1\n      tag_50\n      jump\t// in\n    tag_96:\n      tag_97\n      jump\t// in\n    tag_95:\n      stop\n        /* \"NFTlotto.sol\":3298:3414  function currentJackpot() public view returns (uint256) {\r... */\n    tag_22:\n      tag_98\n      tag_99\n      jump\t// in\n    tag_98:\n      mload(0x40)\n      tag_100\n      swap2\n      swap1\n      tag_31\n      jump\t// in\n    tag_100:\n      mload(0x40)\n      dup1\n      swap2\n      sub\n      swap1\n      return\n        /* \"NFTlotto.sol\":1191:1240  mapping(address => uint256[]) public entriesIndex */\n    tag_29:\n      mstore(0x20, 0x07)\n      dup2\n      0x00\n      mstore\n      keccak256(0x00, 0x40)\n      dup2\n      dup2\n      sload\n      dup2\n      lt\n      tag_101\n      jumpi\n      0x00\n      dup1\n      revert\n    tag_101:\n      swap1\n      0x00\n      mstore\n      keccak256(0x00, 0x20)\n      add\n      0x00\n      swap2\n      pop\n      swap2\n      pop\n      pop\n      sload\n      dup2\n      jump\t// out\n        /* \"NFTlotto.sol\":802:825  uint256 public roundNum */\n    tag_33:\n      sload(0x02)\n      dup2\n      jump\t// out\n        /* \"NFTlotto.sol\":4057:4337  function getUniqueUsers() public view returns (uint256 counter) {\r... */\n    tag_36:\n        /* \"NFTlotto.sol\":4104:4119  uint256 counter */\n      0x00\n        /* \"NFTlotto.sol\":4154:4163  uint256 i */\n      dup1\n        /* \"NFTlotto.sol\":4150:4330  for(uint256 i; i < roundEntries; i++){\r... */\n    tag_104:\n        /* \"NFTlotto.sol\":4169:4181  roundEntries */\n      sload(0x01)\n        /* \"NFTlotto.sol\":4165:4166  i */\n      dup2\n        /* \"NFTlotto.sol\":4165:4181  i < roundEntries */\n      lt\n        /* \"NFTlotto.sol\":4150:4330  for(uint256 i; i < roundEntries; i++){\r... */\n      iszero\n      tag_105\n      jumpi\n        /* \"NFTlotto.sol\":4202:4214  address user */\n      0x00\n        /* \"NFTlotto.sol\":4217:4227  roundEntry */\n      0x06\n        /* \"NFTlotto.sol\":4217:4230  roundEntry[i] */\n      0x00\n        /* \"NFTlotto.sol\":4228:4229  i */\n      dup4\n        /* \"NFTlotto.sol\":4217:4230  roundEntry[i] */\n      dup2\n      mstore\n      0x20\n      add\n      swap1\n      dup2\n      mstore\n      0x20\n      add\n      0x00\n      keccak256\n      0x00\n      swap1\n      sload\n      swap1\n      0x0100\n      exp\n      swap1\n      div\n      0xffffffffffffffffffffffffffffffffffffffff\n      and\n        /* \"NFTlotto.sol\":4202:4230  address user = roundEntry[i] */\n      swap1\n      pop\n        /* \"NFTlotto.sol\":4253:4265  entriesIndex */\n      0x07\n        /* \"NFTlotto.sol\":4253:4271  entriesIndex[user] */\n      0x00\n        /* \"NFTlotto.sol\":4266:4270  user */\n      dup3\n        /* \"NFTlotto.sol\":4253:4271  entriesIndex[user] */\n      0xffffffffffffffffffffffffffffffffffffffff\n      and\n      0xffffffffffffffffffffffffffffffffffffffff\n      and\n      dup2\n      mstore\n      0x20\n      add\n      swap1\n      dup2\n      mstore\n      0x20\n      add\n      0x00\n      keccak256\n        /* \"NFTlotto.sol\":4272:4273  0 */\n      0x00\n        /* \"NFTlotto.sol\":4253:4274  entriesIndex[user][0] */\n      dup2\n      sload\n      dup2\n      lt\n      tag_107\n      jumpi\n      tag_108\n      tag_109\n      jump\t// in\n    tag_108:\n    tag_107:\n      swap1\n      0x00\n      mstore\n      keccak256(0x00, 0x20)\n      add\n      sload\n        /* \"NFTlotto.sol\":4248:4249  i */\n      dup3\n        /* \"NFTlotto.sol\":4248:4274  i == entriesIndex[user][0] */\n      eq\n        /* \"NFTlotto.sol\":4245:4319  if(i == entriesIndex[user][0]){\r... */\n      iszero\n      tag_111\n      jumpi\n        /* \"NFTlotto.sol\":4294:4303  counter++ */\n      dup3\n      dup1\n      tag_112\n      swap1\n      tag_113\n      jump\t// in\n    tag_112:\n      swap4\n      pop\n      pop\n        /* \"NFTlotto.sol\":4245:4319  if(i == entriesIndex[user][0]){\r... */\n    tag_111:\n        /* \"NFTlotto.sol\":4187:4330  {\r... */\n      pop\n        /* \"NFTlotto.sol\":4183:4186  i++ */\n      dup1\n      dup1\n      tag_114\n      swap1\n      tag_113\n      jump\t// in\n    tag_114:\n      swap2\n      pop\n      pop\n        /* \"NFTlotto.sol\":4150:4330  for(uint256 i; i < roundEntries; i++){\r... */\n      jump(tag_104)\n    tag_105:\n      pop\n        /* \"NFTlotto.sol\":4057:4337  function getUniqueUsers() public view returns (uint256 counter) {\r... */\n      swap1\n      jump\t// out\n        /* \"NFTlotto.sol\":4345:4948  function getUniqueAddresses() public view returns (address [] memory addresses, uint256 [] memory entries) {\r... */\n    tag_39:\n        /* \"NFTlotto.sol\":4396:4423  address [] memory addresses */\n      0x60\n        /* \"NFTlotto.sol\":4425:4450  uint256 [] memory entries */\n      dup1\n        /* \"NFTlotto.sol\":4463:4482  uint256 arrayLength */\n      0x00\n        /* \"NFTlotto.sol\":4485:4501  getUniqueUsers() */\n      tag_116\n        /* \"NFTlotto.sol\":4485:4499  getUniqueUsers */\n      tag_36\n        /* \"NFTlotto.sol\":4485:4501  getUniqueUsers() */\n      jump\t// in\n    tag_116:\n        /* \"NFTlotto.sol\":4463:4501  uint256 arrayLength = getUniqueUsers() */\n      swap1\n      pop\n        /* \"NFTlotto.sol\":4538:4549  arrayLength */\n      dup1\n        /* \"NFTlotto.sol\":4524:4550  new address[](arrayLength) */\n      0xffffffffffffffff\n      dup2\n      gt\n      iszero\n      tag_117\n      jumpi\n      tag_118\n      tag_119\n      jump\t// in\n    tag_118:\n    tag_117:\n      mload(0x40)\n      swap1\n      dup1\n      dup3\n      mstore\n      dup1\n      0x20\n      mul\n      0x20\n      add\n      dup3\n      add\n      0x40\n      mstore\n      dup1\n      iszero\n      tag_120\n      jumpi\n      dup2\n      0x20\n      add\n      0x20\n      dup3\n      mul\n      dup1\n      calldatasize\n      dup4\n      calldatacopy\n      dup1\n      dup3\n      add\n      swap2\n      pop\n      pop\n      swap1\n      pop\n    tag_120:\n      pop\n        /* \"NFTlotto.sol\":4512:4550  addresses = new address[](arrayLength) */\n      swap3\n      pop\n        /* \"NFTlotto.sol\":4585:4596  arrayLength */\n      dup1\n        /* \"NFTlotto.sol\":4571:4597  new uint256[](arrayLength) */\n      0xffffffffffffffff\n      dup2\n      gt\n      iszero\n      tag_121\n      jumpi\n      tag_122\n      tag_119\n      jump\t// in\n    tag_122:\n    tag_121:\n      mload(0x40)\n      swap1\n      dup1\n      dup3\n      mstore\n      dup1\n      0x20\n      mul\n      0x20\n      add\n      dup3\n      add\n      0x40\n      mstore\n      dup1\n      iszero\n      tag_123\n      jumpi\n      dup2\n      0x20\n      add\n      0x20\n      dup3\n      mul\n      dup1\n      calldatasize\n      dup4\n      calldatacopy\n      dup1\n      dup3\n      add\n      swap2\n      pop\n      pop\n      swap1\n      pop\n    tag_123:\n      pop\n        /* \"NFTlotto.sol\":4561:4597  entries = new uint256[](arrayLength) */\n      swap2\n      pop\n        /* \"NFTlotto.sol\":4608:4628  uint256 currentIndex */\n      0x00\n        /* \"NFTlotto.sol\":4643:4652  uint256 i */\n      dup1\n        /* \"NFTlotto.sol\":4639:4941  for(uint256 i; i < roundEntries; i++){\r... */\n    tag_124:\n        /* \"NFTlotto.sol\":4658:4670  roundEntries */\n      sload(0x01)\n        /* \"NFTlotto.sol\":4654:4655  i */\n      dup2\n        /* \"NFTlotto.sol\":4654:4670  i < roundEntries */\n      lt\n        /* \"NFTlotto.sol\":4639:4941  for(uint256 i; i < roundEntries; i++){\r... */\n      iszero\n      tag_125\n      jumpi\n        /* \"NFTlotto.sol\":4691:4703  address user */\n      0x00\n        /* \"NFTlotto.sol\":4706:4716  roundEntry */\n      0x06\n        /* \"NFTlotto.sol\":4706:4719  roundEntry[i] */\n      0x00\n        /* \"NFTlotto.sol\":4717:4718  i */\n      dup4\n        /* \"NFTlotto.sol\":4706:4719  roundEntry[i] */\n      dup2\n      mstore\n      0x20\n      add\n      swap1\n      dup2\n      mstore\n      0x20\n      add\n      0x00\n      keccak256\n      0x00\n      swap1\n      sload\n      swap1\n      0x0100\n      exp\n      swap1\n      div\n      0xffffffffffffffffffffffffffffffffffffffff\n      and\n        /* \"NFTlotto.sol\":4691:4719  address user = roundEntry[i] */\n      swap1\n      pop\n        /* \"NFTlotto.sol\":4742:4754  entriesIndex */\n      0x07\n        /* \"NFTlotto.sol\":4742:4760  entriesIndex[user] */\n      0x00\n        /* \"NFTlotto.sol\":4755:4759  user */\n      dup3\n        /* \"NFTlotto.sol\":4742:4760  entriesIndex[user] */\n      0xffffffffffffffffffffffffffffffffffffffff\n      and\n      0xffffffffffffffffffffffffffffffffffffffff\n      and\n      dup2\n      mstore\n      0x20\n      add\n      swap1\n      dup2\n      mstore\n      0x20\n      add\n      0x00\n      keccak256\n        /* \"NFTlotto.sol\":4761:4762  0 */\n      0x00\n        /* \"NFTlotto.sol\":4742:4763  entriesIndex[user][0] */\n      dup2\n      sload\n      dup2\n      lt\n      tag_127\n      jumpi\n      tag_128\n      tag_109\n      jump\t// in\n    tag_128:\n    tag_127:\n      swap1\n      0x00\n      mstore\n      keccak256(0x00, 0x20)\n      add\n      sload\n        /* \"NFTlotto.sol\":4737:4738  i */\n      dup3\n        /* \"NFTlotto.sol\":4737:4763  i == entriesIndex[user][0] */\n      eq\n        /* \"NFTlotto.sol\":4734:4930  if(i == entriesIndex[user][0]){\r... */\n      iszero\n      tag_130\n      jumpi\n        /* \"NFTlotto.sol\":4809:4813  user */\n      dup1\n        /* \"NFTlotto.sol\":4783:4792  addresses */\n      dup7\n        /* \"NFTlotto.sol\":4793:4805  currentIndex */\n      dup5\n        /* \"NFTlotto.sol\":4783:4806  addresses[currentIndex] */\n      dup2\n      mload\n      dup2\n      lt\n      tag_131\n      jumpi\n      tag_132\n      tag_109\n      jump\t// in\n    tag_132:\n    tag_131:\n      0x20\n      mul\n      0x20\n      add\n      add\n        /* \"NFTlotto.sol\":4783:4813  addresses[currentIndex] = user */\n      swap1\n      0xffffffffffffffffffffffffffffffffffffffff\n      and\n      swap1\n      dup2\n      0xffffffffffffffffffffffffffffffffffffffff\n      and\n      dup2\n      mstore\n      pop\n      pop\n        /* \"NFTlotto.sol\":4856:4868  entriesIndex */\n      0x07\n        /* \"NFTlotto.sol\":4856:4874  entriesIndex[user] */\n      0x00\n        /* \"NFTlotto.sol\":4869:4873  user */\n      dup3\n        /* \"NFTlotto.sol\":4856:4874  entriesIndex[user] */\n      0xffffffffffffffffffffffffffffffffffffffff\n      and\n      0xffffffffffffffffffffffffffffffffffffffff\n      and\n      dup2\n      mstore\n      0x20\n      add\n      swap1\n      dup2\n      mstore\n      0x20\n      add\n      0x00\n      keccak256\n        /* \"NFTlotto.sol\":4856:4881  entriesIndex[user].length */\n      dup1\n      sload\n      swap1\n      pop\n        /* \"NFTlotto.sol\":4832:4839  entries */\n      dup6\n        /* \"NFTlotto.sol\":4840:4852  currentIndex */\n      dup5\n        /* \"NFTlotto.sol\":4832:4853  entries[currentIndex] */\n      dup2\n      mload\n      dup2\n      lt\n      tag_133\n      jumpi\n      tag_134\n      tag_109\n      jump\t// in\n    tag_134:\n    tag_133:\n      0x20\n      mul\n      0x20\n      add\n      add\n        /* \"NFTlotto.sol\":4832:4881  entries[currentIndex] = entriesIndex[user].length */\n      dup2\n      dup2\n      mstore\n      pop\n      pop\n        /* \"NFTlotto.sol\":4900:4914  currentIndex++ */\n      dup3\n      dup1\n      tag_135\n      swap1\n      tag_113\n      jump\t// in\n    tag_135:\n      swap4\n      pop\n      pop\n        /* \"NFTlotto.sol\":4734:4930  if(i == entriesIndex[user][0]){\r... */\n    tag_130:\n        /* \"NFTlotto.sol\":4676:4941  {\r... */\n      pop\n        /* \"NFTlotto.sol\":4672:4675  i++ */\n      dup1\n      dup1\n      tag_136\n      swap1\n      tag_113\n      jump\t// in\n    tag_136:\n      swap2\n      pop\n      pop\n        /* \"NFTlotto.sol\":4639:4941  for(uint256 i; i < roundEntries; i++){\r... */\n      jump(tag_124)\n    tag_125:\n      pop\n        /* \"NFTlotto.sol\":4452:4948  {\r... */\n      pop\n      pop\n        /* \"NFTlotto.sol\":4345:4948  function getUniqueAddresses() public view returns (address [] memory addresses, uint256 [] memory entries) {\r... */\n      swap1\n      swap2\n      jump\t// out\n        /* \"NFTlotto.sol\":1384:1656  function updateAccount(address account, uint256 amount) external{\r... */\n    tag_44:\n        /* \"NFTlotto.sol\":1463:1472  uint256 i */\n      0x00\n        /* \"NFTlotto.sol\":1459:1614  for(uint256 i; i < amount; i++){\r... */\n    tag_138:\n        /* \"NFTlotto.sol\":1478:1484  amount */\n      dup2\n        /* \"NFTlotto.sol\":1474:1475  i */\n      dup2\n        /* \"NFTlotto.sol\":1474:1484  i < amount */\n      lt\n        /* \"NFTlotto.sol\":1459:1614  for(uint256 i; i < amount; i++){\r... */\n      iszero\n      tag_139\n      jumpi\n        /* \"NFTlotto.sol\":1536:1543  account */\n      dup3\n        /* \"NFTlotto.sol\":1505:1515  roundEntry */\n      0x06\n        /* \"NFTlotto.sol\":1505:1533  roundEntry[roundEntries + i] */\n      0x00\n        /* \"NFTlotto.sol\":1531:1532  i */\n      dup4\n        /* \"NFTlotto.sol\":1516:1528  roundEntries */\n      sload(0x01)\n        /* \"NFTlotto.sol\":1516:1532  roundEntries + i */\n      tag_141\n      swap2\n      swap1\n      tag_142\n      jump\t// in\n    tag_141:\n        /* \"NFTlotto.sol\":1505:1533  roundEntry[roundEntries + i] */\n      dup2\n      mstore\n      0x20\n      add\n      swap1\n      dup2\n      mstore\n      0x20\n      add\n      0x00\n      keccak256\n      0x00\n        /* \"NFTlotto.sol\":1505:1543  roundEntry[roundEntries + i] = account */\n      0x0100\n      exp\n      dup2\n      sload\n      dup2\n      0xffffffffffffffffffffffffffffffffffffffff\n      mul\n      not\n      and\n      swap1\n      dup4\n      0xffffffffffffffffffffffffffffffffffffffff\n      and\n      mul\n      or\n      swap1\n      sstore\n      pop\n        /* \"NFTlotto.sol\":1558:1570  entriesIndex */\n      0x07\n        /* \"NFTlotto.sol\":1558:1579  entriesIndex[account] */\n      0x00\n        /* \"NFTlotto.sol\":1571:1578  account */\n      dup5\n        /* \"NFTlotto.sol\":1558:1579  entriesIndex[account] */\n      0xffffffffffffffffffffffffffffffffffffffff\n      and\n      0xffffffffffffffffffffffffffffffffffffffff\n      and\n      dup2\n      mstore\n      0x20\n      add\n      swap1\n      dup2\n      mstore\n      0x20\n      add\n      0x00\n      keccak256\n        /* \"NFTlotto.sol\":1600:1601  i */\n      dup2\n        /* \"NFTlotto.sol\":1585:1597  roundEntries */\n      sload(0x01)\n        /* \"NFTlotto.sol\":1585:1601  roundEntries + i */\n      tag_143\n      swap2\n      swap1\n      tag_142\n      jump\t// in\n    tag_143:\n        /* \"NFTlotto.sol\":1558:1602  entriesIndex[account].push(roundEntries + i) */\n      swap1\n      dup1\n      0x01\n      dup2\n      sload\n      add\n      dup1\n      dup3\n      sstore\n      dup1\n      swap2\n      pop\n      pop\n      0x01\n      swap1\n      sub\n      swap1\n      0x00\n      mstore\n      keccak256(0x00, 0x20)\n      add\n      0x00\n      swap1\n      swap2\n      swap1\n      swap2\n      swap1\n      swap2\n      pop\n      sstore\n        /* \"NFTlotto.sol\":1486:1489  i++ */\n      dup1\n      dup1\n      tag_145\n      swap1\n      tag_113\n      jump\t// in\n    tag_145:\n      swap2\n      pop\n      pop\n        /* \"NFTlotto.sol\":1459:1614  for(uint256 i; i < amount; i++){\r... */\n      jump(tag_138)\n    tag_139:\n      pop\n        /* \"NFTlotto.sol\":1642:1648  amount */\n      dup1\n        /* \"NFTlotto.sol\":1626:1638  roundEntries */\n      0x01\n      0x00\n        /* \"NFTlotto.sol\":1626:1648  roundEntries += amount */\n      dup3\n      dup3\n      sload\n      tag_146\n      swap2\n      swap1\n      tag_142\n      jump\t// in\n    tag_146:\n      swap3\n      pop\n      pop\n      dup2\n      swap1\n      sstore\n      pop\n        /* \"NFTlotto.sol\":1384:1656  function updateAccount(address account, uint256 amount) external{\r... */\n      pop\n      pop\n      jump\t// out\n        /* \"NFTlotto.sol\":832:858  uint256 public totalPayout */\n    tag_46:\n      sload(0x03)\n      dup2\n      jump\t// out\n        /* \"NFTlotto.sol\":2427:2596  function isActiveAccount(address account) external view returns(bool){\r... */\n    tag_51:\n        /* \"NFTlotto.sol\":2491:2495  bool */\n      0x00\n        /* \"NFTlotto.sol\":2507:2529  uint256 currentEntries */\n      dup1\n        /* \"NFTlotto.sol\":2532:2552  userEntries(account) */\n      tag_148\n        /* \"NFTlotto.sol\":2544:2551  account */\n      dup4\n        /* \"NFTlotto.sol\":2532:2543  userEntries */\n      tag_71\n        /* \"NFTlotto.sol\":2532:2552  userEntries(account) */\n      jump\t// in\n    tag_148:\n        /* \"NFTlotto.sol\":2507:2552  uint256 currentEntries = userEntries(account) */\n      swap1\n      pop\n        /* \"NFTlotto.sol\":2587:2588  0 */\n      0x00\n        /* \"NFTlotto.sol\":2570:2584  currentEntries */\n      dup2\n        /* \"NFTlotto.sol\":2570:2588  currentEntries > 0 */\n      gt\n        /* \"NFTlotto.sol\":2563:2588  return currentEntries > 0 */\n      swap2\n      pop\n      pop\n        /* \"NFTlotto.sol\":2427:2596  function isActiveAccount(address account) external view returns(bool){\r... */\n      swap2\n      swap1\n      pop\n      jump\t// out\n        /* \"NFTlotto.sol\":2604:3290  function pickWinner() external onlyOwner {\r... */\n    tag_55:\n        /* \"https://github.com/OpenZeppelin/openzeppelin-contracts/blob/master/contracts/access/Ownable.sol\":1259:1271  _msgSender() */\n      tag_150\n        /* \"https://github.com/OpenZeppelin/openzeppelin-contracts/blob/master/contracts/access/Ownable.sol\":1259:1269  _msgSender */\n      tag_151\n        /* \"https://github.com/OpenZeppelin/openzeppelin-contracts/blob/master/contracts/access/Ownable.sol\":1259:1271  _msgSender() */\n      jump\t// in\n    tag_150:\n        /* \"https://github.com/OpenZeppelin/openzeppelin-contracts/blob/master/contracts/access/Ownable.sol\":1248:1271  owner() == _msgSender() */\n      0xffffffffffffffffffffffffffffffffffffffff\n      and\n        /* \"https://github.com/OpenZeppelin/openzeppelin-contracts/blob/master/contracts/access/Ownable.sol\":1248:1255  owner() */\n      tag_152\n        /* \"https://github.com/OpenZeppelin/openzeppelin-contracts/blob/master/contracts/access/Ownable.sol\":1248:1253  owner */\n      tag_62\n        /* \"https://github.com/OpenZeppelin/openzeppelin-contracts/blob/master/contracts/access/Ownable.sol\":1248:1255  owner() */\n      jump\t// in\n    tag_152:\n        /* \"https://github.com/OpenZeppelin/openzeppelin-contracts/blob/master/contracts/access/Ownable.sol\":1248:1271  owner() == _msgSender() */\n      0xffffffffffffffffffffffffffffffffffffffff\n      and\n      eq\n        /* \"https://github.com/OpenZeppelin/openzeppelin-contracts/blob/master/contracts/access/Ownable.sol\":1240:1308  require(owner() == _msgSender(), \"Ownable: caller is not the owner\") */\n      tag_153\n      jumpi\n      mload(0x40)\n      0x08c379a000000000000000000000000000000000000000000000000000000000\n      dup2\n      mstore\n      0x04\n      add\n      tag_154\n      swap1\n      tag_155\n      jump\t// in\n    tag_154:\n      mload(0x40)\n      dup1\n      swap2\n      sub\n      swap1\n      revert\n    tag_153:\n        /* \"NFTlotto.sol\":2656:2670  uint256 payout */\n      0x00\n        /* \"NFTlotto.sol\":2673:2689  currentJackpot() */\n      tag_157\n        /* \"NFTlotto.sol\":2673:2687  currentJackpot */\n      tag_99\n        /* \"NFTlotto.sol\":2673:2689  currentJackpot() */\n      jump\t// in\n    tag_157:\n        /* \"NFTlotto.sol\":2656:2689  uint256 payout = currentJackpot() */\n      swap1\n      pop\n        /* \"NFTlotto.sol\":2718:2731  75000 * 10**9 */\n      0x44364c5bb000\n        /* \"NFTlotto.sol\":2708:2714  payout */\n      dup2\n        /* \"NFTlotto.sol\":2708:2731  payout >= 75000 * 10**9 */\n      lt\n      iszero\n        /* \"NFTlotto.sol\":2700:2760  require(payout >= 75000 * 10**9, \"Not enough funds to draw\") */\n      tag_158\n      jumpi\n      mload(0x40)\n      0x08c379a000000000000000000000000000000000000000000000000000000000\n      dup2\n      mstore\n      0x04\n      add\n      tag_159\n      swap1\n      tag_160\n      jump\t// in\n    tag_159:\n      mload(0x40)\n      dup1\n      swap2\n      sub\n      swap1\n      revert\n    tag_158:\n        /* \"NFTlotto.sol\":2771:2788  uint256 winnerNum */\n      0x00\n        /* \"NFTlotto.sol\":2802:2814  roundEntries */\n      sload(0x01)\n        /* \"NFTlotto.sol\":2791:2799  random() */\n      tag_161\n        /* \"NFTlotto.sol\":2791:2797  random */\n      tag_162\n        /* \"NFTlotto.sol\":2791:2799  random() */\n      jump\t// in\n    tag_161:\n        /* \"NFTlotto.sol\":2791:2814  random() % roundEntries */\n      tag_163\n      swap2\n      swap1\n      tag_164\n      jump\t// in\n    tag_163:\n        /* \"NFTlotto.sol\":2771:2814  uint256 winnerNum = random() % roundEntries */\n      swap1\n      pop\n        /* \"NFTlotto.sol\":2825:2846  address winnerAddress */\n      0x00\n        /* \"NFTlotto.sol\":2849:2859  roundEntry */\n      0x06\n        /* \"NFTlotto.sol\":2849:2870  roundEntry[winnerNum] */\n      0x00\n        /* \"NFTlotto.sol\":2860:2869  winnerNum */\n      dup4\n        /* \"NFTlotto.sol\":2849:2870  roundEntry[winnerNum] */\n      dup2\n      mstore\n      0x20\n      add\n      swap1\n      dup2\n      mstore\n      0x20\n      add\n      0x00\n      keccak256\n      0x00\n      swap1\n      sload\n      swap1\n      0x0100\n      exp\n      swap1\n      div\n      0xffffffffffffffffffffffffffffffffffffffff\n      and\n        /* \"NFTlotto.sol\":2825:2870  address winnerAddress = roundEntry[winnerNum] */\n      swap1\n      pop\n        /* \"NFTlotto.sol\":2908:3122  Results ({\r... */\n      mload(0x40)\n      dup1\n      0xa0\n      add\n      0x40\n      mstore\n      dup1\n        /* \"NFTlotto.sol\":2946:2958  roundEntries */\n      sload(0x01)\n        /* \"NFTlotto.sol\":2908:3122  Results ({\r... */\n      dup2\n      mstore\n      0x20\n      add\n        /* \"NFTlotto.sol\":2988:2997  winnerNum */\n      dup4\n        /* \"NFTlotto.sol\":2908:3122  Results ({\r... */\n      dup2\n      mstore\n      0x20\n      add\n        /* \"NFTlotto.sol\":3020:3026  payout */\n      dup5\n        /* \"NFTlotto.sol\":2908:3122  Results ({\r... */\n      dup2\n      mstore\n      0x20\n      add\n        /* \"NFTlotto.sol\":3050:3065  block.timestamp */\n      timestamp\n        /* \"NFTlotto.sol\":2908:3122  Results ({\r... */\n      dup2\n      mstore\n      0x20\n      add\n        /* \"NFTlotto.sol\":3096:3109  winnerAddress */\n      dup3\n        /* \"NFTlotto.sol\":2908:3122  Results ({\r... */\n      0xffffffffffffffffffffffffffffffffffffffff\n      and\n      dup2\n      mstore\n      pop\n        /* \"NFTlotto.sol\":2883:2895  roundResults */\n      0x05\n        /* \"NFTlotto.sol\":2883:2905  roundResults[roundNum] */\n      0x00\n        /* \"NFTlotto.sol\":2896:2904  roundNum */\n      sload(0x02)\n        /* \"NFTlotto.sol\":2883:2905  roundResults[roundNum] */\n      dup2\n      mstore\n      0x20\n      add\n      swap1\n      dup2\n      mstore\n      0x20\n      add\n      0x00\n      keccak256\n        /* \"NFTlotto.sol\":2883:3122  roundResults[roundNum] = Results ({\r... */\n      0x00\n      dup3\n      add\n      mload\n      dup2\n      0x00\n      add\n      sstore\n      0x20\n      dup3\n      add\n      mload\n      dup2\n      0x01\n      add\n      sstore\n      0x40\n      dup3\n      add\n      mload\n      dup2\n      0x02\n      add\n      sstore\n      0x60\n      dup3\n      add\n      mload\n      dup2\n      0x03\n      add\n      sstore\n      0x80\n      dup3\n      add\n      mload\n      dup2\n      0x04\n      add\n      exp(0x0100, 0x00)\n      dup2\n      sload\n      dup2\n      0xffffffffffffffffffffffffffffffffffffffff\n      mul\n      not\n      and\n      swap1\n      dup4\n      0xffffffffffffffffffffffffffffffffffffffff\n      and\n      mul\n      or\n      swap1\n      sstore\n      pop\n      swap1\n      pop\n      pop\n        /* \"NFTlotto.sol\":3150:3156  payout */\n      dup3\n        /* \"NFTlotto.sol\":3135:3146  totalPayout */\n      0x03\n      0x00\n        /* \"NFTlotto.sol\":3135:3156  totalPayout += payout */\n      dup3\n      dup3\n      sload\n      tag_165\n      swap2\n      swap1\n      tag_142\n      jump\t// in\n    tag_165:\n      swap3\n      pop\n      pop\n      dup2\n      swap1\n      sstore\n      pop\n        /* \"NFTlotto.sol\":3167:3175  roundNum */\n      0x02\n      0x00\n        /* \"NFTlotto.sol\":3167:3177  roundNum++ */\n      dup2\n      sload\n      dup1\n      swap3\n      swap2\n      swap1\n      tag_166\n      swap1\n      tag_113\n      jump\t// in\n    tag_166:\n      swap2\n      swap1\n      pop\n      sstore\n      pop\n        /* \"NFTlotto.sol\":3190:3199  acesToken */\n      0x04\n      0x00\n      swap1\n      sload\n      swap1\n      0x0100\n      exp\n      swap1\n      div\n      0xffffffffffffffffffffffffffffffffffffffff\n      and\n        /* \"NFTlotto.sol\":3190:3208  acesToken.transfer */\n      0xffffffffffffffffffffffffffffffffffffffff\n      and\n      0xa9059cbb\n        /* \"NFTlotto.sol\":3209:3222  winnerAddress */\n      dup3\n        /* \"NFTlotto.sol\":3224:3230  payout */\n      dup6\n        /* \"NFTlotto.sol\":3190:3231  acesToken.transfer(winnerAddress, payout) */\n      mload(0x40)\n      dup4\n      0xffffffff\n      and\n      0xe0\n      shl\n      dup2\n      mstore\n      0x04\n      add\n      tag_167\n      swap3\n      swap2\n      swap1\n      tag_168\n      jump\t// in\n    tag_167:\n      0x20\n      mload(0x40)\n      dup1\n      dup4\n      sub\n      dup2\n      0x00\n      dup8\n      dup1\n      extcodesize\n      iszero\n      dup1\n      iszero\n      tag_169\n      jumpi\n      0x00\n      dup1\n      revert\n    tag_169:\n      pop\n      gas\n      call\n      iszero\n      dup1\n      iszero\n      tag_171\n      jumpi\n      returndatasize\n      0x00\n      dup1\n      returndatacopy\n      revert(0x00, returndatasize)\n    tag_171:\n      pop\n      pop\n      pop\n      pop\n      mload(0x40)\n      returndatasize\n      not(0x1f)\n      0x1f\n      dup3\n      add\n      and\n      dup3\n      add\n      dup1\n      0x40\n      mstore\n      pop\n      dup2\n      add\n      swap1\n      tag_172\n      swap2\n      swap1\n      tag_173\n      jump\t// in\n    tag_172:\n      pop\n        /* \"NFTlotto.sol\":3249:3282  LotteryWon(winnerAddress, payout) */\n      0x2e798dd4337e515c79b64c40e1a93baa1aefbd9180ac7905e02508edd7971e50\n        /* \"NFTlotto.sol\":3260:3273  winnerAddress */\n      dup2\n        /* \"NFTlotto.sol\":3275:3281  payout */\n      dup5\n        /* \"NFTlotto.sol\":3249:3282  LotteryWon(winnerAddress, payout) */\n      mload(0x40)\n      tag_174\n      swap3\n      swap2\n      swap1\n      tag_168\n      jump\t// in\n    tag_174:\n      mload(0x40)\n      dup1\n      swap2\n      sub\n      swap1\n      log1\n        /* \"NFTlotto.sol\":2645:3290  {\r... */\n      pop\n      pop\n      pop\n        /* \"NFTlotto.sol\":2604:3290  function pickWinner() external onlyOwner {\r... */\n      jump\t// out\n        /* \"https://github.com/OpenZeppelin/openzeppelin-contracts/blob/master/contracts/access/Ownable.sol\":1668:1769  function renounceOwnership() public virtual onlyOwner {... */\n    tag_57:\n        /* \"https://github.com/OpenZeppelin/openzeppelin-contracts/blob/master/contracts/access/Ownable.sol\":1259:1271  _msgSender() */\n      tag_176\n        /* \"https://github.com/OpenZeppelin/openzeppelin-contracts/blob/master/contracts/access/Ownable.sol\":1259:1269  _msgSender */\n      tag_151\n        /* \"https://github.com/OpenZeppelin/openzeppelin-contracts/blob/master/contracts/access/Ownable.sol\":1259:1271  _msgSender() */\n      jump\t// in\n    tag_176:\n        /* \"https://github.com/OpenZeppelin/openzeppelin-contracts/blob/master/contracts/access/Ownable.sol\":1248:1271  owner() == _msgSender() */\n      0xffffffffffffffffffffffffffffffffffffffff\n      and\n        /* \"https://github.com/OpenZeppelin/openzeppelin-contracts/blob/master/contracts/access/Ownable.sol\":1248:1255  owner() */\n      tag_177\n        /* \"https://github.com/OpenZeppelin/openzeppelin-contracts/blob/master/contracts/access/Ownable.sol\":1248:1253  owner */\n      tag_62\n        /* \"https://github.com/OpenZeppelin/openzeppelin-contracts/blob/master/contracts/access/Ownable.sol\":1248:1255  owner() */\n      jump\t// in\n    tag_177:\n        /* \"https://github.com/OpenZeppelin/openzeppelin-contracts/blob/master/contracts/access/Ownable.sol\":1248:1271  owner() == _msgSender() */\n      0xffffffffffffffffffffffffffffffffffffffff\n      and\n      eq\n        /* \"https://github.com/OpenZeppelin/openzeppelin-contracts/blob/master/contracts/access/Ownable.sol\":1240:1308  require(owner() == _msgSender(), \"Ownable: caller is not the owner\") */\n      tag_178\n      jumpi\n      mload(0x40)\n      0x08c379a000000000000000000000000000000000000000000000000000000000\n      dup2\n      mstore\n      0x04\n      add\n      tag_179\n      swap1\n      tag_155\n      jump\t// in\n    tag_179:\n      mload(0x40)\n      dup1\n      swap2\n      sub\n      swap1\n      revert\n    tag_178:\n        /* \"https://github.com/OpenZeppelin/openzeppelin-contracts/blob/master/contracts/access/Ownable.sol\":1732:1762  _transferOwnership(address(0)) */\n      tag_181\n        /* \"https://github.com/OpenZeppelin/openzeppelin-contracts/blob/master/contracts/access/Ownable.sol\":1759:1760  0 */\n      0x00\n        /* \"https://github.com/OpenZeppelin/openzeppelin-contracts/blob/master/contracts/access/Ownable.sol\":1732:1750  _transferOwnership */\n      tag_182\n        /* \"https://github.com/OpenZeppelin/openzeppelin-contracts/blob/master/contracts/access/Ownable.sol\":1732:1762  _transferOwnership(address(0)) */\n      jump\t// in\n    tag_181:\n        /* \"https://github.com/OpenZeppelin/openzeppelin-contracts/blob/master/contracts/access/Ownable.sol\":1668:1769  function renounceOwnership() public virtual onlyOwner {... */\n      jump\t// out\n        /* \"NFTlotto.sol\":768:795  uint256 public roundEntries */\n    tag_59:\n      sload(0x01)\n      dup2\n      jump\t// out\n        /* \"https://github.com/OpenZeppelin/openzeppelin-contracts/blob/master/contracts/access/Ownable.sol\":1036:1121  function owner() public view virtual returns (address) {... */\n    tag_62:\n        /* \"https://github.com/OpenZeppelin/openzeppelin-contracts/blob/master/contracts/access/Ownable.sol\":1082:1089  address */\n      0x00\n        /* \"https://github.com/OpenZeppelin/openzeppelin-contracts/blob/master/contracts/access/Ownable.sol\":1108:1114  _owner */\n      dup1\n      0x00\n      swap1\n      sload\n      swap1\n      0x0100\n      exp\n      swap1\n      div\n      0xffffffffffffffffffffffffffffffffffffffff\n      and\n        /* \"https://github.com/OpenZeppelin/openzeppelin-contracts/blob/master/contracts/access/Ownable.sol\":1101:1114  return _owner */\n      swap1\n      pop\n        /* \"https://github.com/OpenZeppelin/openzeppelin-contracts/blob/master/contracts/access/Ownable.sol\":1036:1121  function owner() public view virtual returns (address) {... */\n      swap1\n      jump\t// out\n        /* \"NFTlotto.sol\":871:894  IERC20 public acesToken */\n    tag_66:\n      0x04\n      0x00\n      swap1\n      sload\n      swap1\n      0x0100\n      exp\n      swap1\n      div\n      0xffffffffffffffffffffffffffffffffffffffff\n      and\n      dup2\n      jump\t// out\n        /* \"NFTlotto.sol\":3422:3544  function userEntries(address account) public view returns (uint256) {\r... */\n    tag_71:\n        /* \"NFTlotto.sol\":3481:3488  uint256 */\n      0x00\n        /* \"NFTlotto.sol\":3508:3520  entriesIndex */\n      0x07\n        /* \"NFTlotto.sol\":3508:3529  entriesIndex[account] */\n      0x00\n        /* \"NFTlotto.sol\":3521:3528  account */\n      dup4\n        /* \"NFTlotto.sol\":3508:3529  entriesIndex[account] */\n      0xffffffffffffffffffffffffffffffffffffffff\n      and\n      0xffffffffffffffffffffffffffffffffffffffff\n      and\n      dup2\n      mstore\n      0x20\n      add\n      swap1\n      dup2\n      mstore\n      0x20\n      add\n      0x00\n      keccak256\n        /* \"NFTlotto.sol\":3508:3536  entriesIndex[account].length */\n      dup1\n      sload\n      swap1\n      pop\n        /* \"NFTlotto.sol\":3501:3536  return entriesIndex[account].length */\n      swap1\n      pop\n        /* \"NFTlotto.sol\":3422:3544  function userEntries(address account) public view returns (uint256) {\r... */\n      swap2\n      swap1\n      pop\n      jump\t// out\n        /* \"NFTlotto.sol\":1664:2242  function removeEntryFromWallet(address account, uint256 amount) public {\r... */\n    tag_75:\n        /* \"NFTlotto.sol\":1746:1768  uint256 currentEntries */\n      0x00\n        /* \"NFTlotto.sol\":1771:1791  userEntries(account) */\n      tag_186\n        /* \"NFTlotto.sol\":1783:1790  account */\n      dup4\n        /* \"NFTlotto.sol\":1771:1782  userEntries */\n      tag_71\n        /* \"NFTlotto.sol\":1771:1791  userEntries(account) */\n      jump\t// in\n    tag_186:\n        /* \"NFTlotto.sol\":1746:1791  uint256 currentEntries = userEntries(account) */\n      swap1\n      pop\n        /* \"NFTlotto.sol\":1823:1824  0 */\n      0x00\n        /* \"NFTlotto.sol\":1805:1819  currentEntries */\n      dup2\n        /* \"NFTlotto.sol\":1805:1824  currentEntries == 0 */\n      eq\n        /* \"NFTlotto.sol\":1802:1941  if(currentEntries == 0){\r... */\n      iszero\n      tag_187\n      jumpi\n        /* \"NFTlotto.sol\":1840:1847  return; */\n      pop\n      jump(tag_185)\n        /* \"NFTlotto.sol\":1802:1941  if(currentEntries == 0){\r... */\n    tag_187:\n        /* \"NFTlotto.sol\":1876:1890  currentEntries */\n      dup1\n        /* \"NFTlotto.sol\":1867:1873  amount */\n      dup3\n        /* \"NFTlotto.sol\":1867:1890  amount > currentEntries */\n      gt\n        /* \"NFTlotto.sol\":1864:1941  if(amount > currentEntries){\r... */\n      iszero\n      tag_189\n      jumpi\n        /* \"NFTlotto.sol\":1915:1929  currentEntries */\n      dup1\n        /* \"NFTlotto.sol\":1906:1929  amount = currentEntries */\n      swap2\n      pop\n        /* \"NFTlotto.sol\":1864:1941  if(amount > currentEntries){\r... */\n    tag_189:\n        /* \"NFTlotto.sol\":1957:1966  uint256 i */\n      0x00\n        /* \"NFTlotto.sol\":1969:1970  1 */\n      0x01\n        /* \"NFTlotto.sol\":1957:1970  uint256 i = 1 */\n      swap1\n      pop\n        /* \"NFTlotto.sol\":1953:2200  for(uint256 i = 1; i <= amount; i++){\r... */\n    tag_190:\n        /* \"NFTlotto.sol\":1977:1983  amount */\n      dup3\n        /* \"NFTlotto.sol\":1972:1973  i */\n      dup2\n        /* \"NFTlotto.sol\":1972:1983  i <= amount */\n      gt\n        /* \"NFTlotto.sol\":1953:2200  for(uint256 i = 1; i <= amount; i++){\r... */\n      tag_191\n      jumpi\n        /* \"NFTlotto.sol\":2004:2021  uint256 lastIndex */\n      0x00\n        /* \"NFTlotto.sol\":2024:2036  entriesIndex */\n      0x07\n        /* \"NFTlotto.sol\":2024:2045  entriesIndex[account] */\n      0x00\n        /* \"NFTlotto.sol\":2037:2044  account */\n      dup7\n        /* \"NFTlotto.sol\":2024:2045  entriesIndex[account] */\n      0xffffffffffffffffffffffffffffffffffffffff\n      and\n      0xffffffffffffffffffffffffffffffffffffffff\n      and\n      dup2\n      mstore\n      0x20\n      add\n      swap1\n      dup2\n      mstore\n      0x20\n      add\n      0x00\n      keccak256\n        /* \"NFTlotto.sol\":2077:2078  1 */\n      0x01\n        /* \"NFTlotto.sol\":2046:2058  entriesIndex */\n      0x07\n        /* \"NFTlotto.sol\":2046:2067  entriesIndex[account] */\n      0x00\n        /* \"NFTlotto.sol\":2059:2066  account */\n      dup9\n        /* \"NFTlotto.sol\":2046:2067  entriesIndex[account] */\n      0xffffffffffffffffffffffffffffffffffffffff\n      and\n      0xffffffffffffffffffffffffffffffffffffffff\n      and\n      dup2\n      mstore\n      0x20\n      add\n      swap1\n      dup2\n      mstore\n      0x20\n      add\n      0x00\n      keccak256\n        /* \"NFTlotto.sol\":2046:2074  entriesIndex[account].length */\n      dup1\n      sload\n      swap1\n      pop\n        /* \"NFTlotto.sol\":2046:2078  entriesIndex[account].length - 1 */\n      tag_193\n      swap2\n      swap1\n      tag_194\n      jump\t// in\n    tag_193:\n        /* \"NFTlotto.sol\":2024:2079  entriesIndex[account][entriesIndex[account].length - 1] */\n      dup2\n      sload\n      dup2\n      lt\n      tag_195\n      jumpi\n      tag_196\n      tag_109\n      jump\t// in\n    tag_196:\n    tag_195:\n      swap1\n      0x00\n      mstore\n      keccak256(0x00, 0x20)\n      add\n      sload\n        /* \"NFTlotto.sol\":2004:2079  uint256 lastIndex = entriesIndex[account][entriesIndex[account].length - 1] */\n      swap1\n      pop\n        /* \"NFTlotto.sol\":2118:2128  roundEntry */\n      0x06\n        /* \"NFTlotto.sol\":2118:2146  roundEntry[roundEntries - i] */\n      0x00\n        /* \"NFTlotto.sol\":2144:2145  i */\n      dup4\n        /* \"NFTlotto.sol\":2129:2141  roundEntries */\n      sload(0x01)\n        /* \"NFTlotto.sol\":2129:2145  roundEntries - i */\n      tag_198\n      swap2\n      swap1\n      tag_194\n      jump\t// in\n    tag_198:\n        /* \"NFTlotto.sol\":2118:2146  roundEntry[roundEntries - i] */\n      dup2\n      mstore\n      0x20\n      add\n      swap1\n      dup2\n      mstore\n      0x20\n      add\n      0x00\n      keccak256\n      0x00\n      swap1\n      sload\n      swap1\n      0x0100\n      exp\n      swap1\n      div\n      0xffffffffffffffffffffffffffffffffffffffff\n      and\n        /* \"NFTlotto.sol\":2094:2104  roundEntry */\n      0x06\n        /* \"NFTlotto.sol\":2094:2115  roundEntry[lastIndex] */\n      0x00\n        /* \"NFTlotto.sol\":2105:2114  lastIndex */\n      dup4\n        /* \"NFTlotto.sol\":2094:2115  roundEntry[lastIndex] */\n      dup2\n      mstore\n      0x20\n      add\n      swap1\n      dup2\n      mstore\n      0x20\n      add\n      0x00\n      keccak256\n      0x00\n        /* \"NFTlotto.sol\":2094:2146  roundEntry[lastIndex] = roundEntry[roundEntries - i] */\n      0x0100\n      exp\n      dup2\n      sload\n      dup2\n      0xffffffffffffffffffffffffffffffffffffffff\n      mul\n      not\n      and\n      swap1\n      dup4\n      0xffffffffffffffffffffffffffffffffffffffff\n      and\n      mul\n      or\n      swap1\n      sstore\n      pop\n        /* \"NFTlotto.sol\":2161:2173  entriesIndex */\n      0x07\n        /* \"NFTlotto.sol\":2161:2182  entriesIndex[account] */\n      0x00\n        /* \"NFTlotto.sol\":2174:2181  account */\n      dup7\n        /* \"NFTlotto.sol\":2161:2182  entriesIndex[account] */\n      0xffffffffffffffffffffffffffffffffffffffff\n      and\n      0xffffffffffffffffffffffffffffffffffffffff\n      and\n      dup2\n      mstore\n      0x20\n      add\n      swap1\n      dup2\n      mstore\n      0x20\n      add\n      0x00\n      keccak256\n        /* \"NFTlotto.sol\":2161:2188  entriesIndex[account].pop() */\n      dup1\n      sload\n      dup1\n      tag_199\n      jumpi\n      tag_200\n      tag_201\n      jump\t// in\n    tag_200:\n    tag_199:\n      0x01\n      swap1\n      sub\n      dup2\n      dup2\n      swap1\n      0x00\n      mstore\n      keccak256(0x00, 0x20)\n      add\n      0x00\n      swap1\n      sstore\n      swap1\n      sstore\n        /* \"NFTlotto.sol\":1989:2200  {\r... */\n      pop\n        /* \"NFTlotto.sol\":1985:1988  i++ */\n      dup1\n      dup1\n      tag_203\n      swap1\n      tag_113\n      jump\t// in\n    tag_203:\n      swap2\n      pop\n      pop\n        /* \"NFTlotto.sol\":1953:2200  for(uint256 i = 1; i <= amount; i++){\r... */\n      jump(tag_190)\n    tag_191:\n      pop\n        /* \"NFTlotto.sol\":2228:2234  amount */\n      dup2\n        /* \"NFTlotto.sol\":2212:2224  roundEntries */\n      0x01\n      0x00\n        /* \"NFTlotto.sol\":2212:2234  roundEntries -= amount */\n      dup3\n      dup3\n      sload\n      tag_204\n      swap2\n      swap1\n      tag_194\n      jump\t// in\n    tag_204:\n      swap3\n      pop\n      pop\n      dup2\n      swap1\n      sstore\n      pop\n        /* \"NFTlotto.sol\":1735:2242  {\r... */\n      pop\n        /* \"NFTlotto.sol\":1664:2242  function removeEntryFromWallet(address account, uint256 amount) public {\r... */\n    tag_185:\n      pop\n      pop\n      jump\t// out\n        /* \"NFTlotto.sol\":1085:1132  mapping(uint256 => Results) public roundResults */\n    tag_79:\n      mstore(0x20, 0x05)\n      dup1\n      0x00\n      mstore\n      keccak256(0x00, 0x40)\n      0x00\n      swap2\n      pop\n      swap1\n      pop\n      dup1\n      0x00\n      add\n      sload\n      swap1\n      dup1\n      0x01\n      add\n      sload\n      swap1\n      dup1\n      0x02\n      add\n      sload\n      swap1\n      dup1\n      0x03\n      add\n      sload\n      swap1\n      dup1\n      0x04\n      add\n      0x00\n      swap1\n      sload\n      swap1\n      0x0100\n      exp\n      swap1\n      div\n      0xffffffffffffffffffffffffffffffffffffffff\n      and\n      swap1\n      pop\n      dup6\n      jump\t// out\n        /* \"NFTlotto.sol\":1139:1184  mapping(uint256 => address) public roundEntry */\n    tag_84:\n      mstore(0x20, 0x06)\n      dup1\n      0x00\n      mstore\n      keccak256(0x00, 0x40)\n      0x00\n      swap2\n      pop\n      sload\n      swap1\n      0x0100\n      exp\n      swap1\n      div\n      0xffffffffffffffffffffffffffffffffffffffff\n      and\n      dup2\n      jump\t// out\n        /* \"NFTlotto.sol\":3552:4049  function resultLog(uint256 startIndex, uint256 endIndex) external view returns(Results [] memory log){\r... */\n    tag_89:\n        /* \"NFTlotto.sol\":3631:3652  Results [] memory log */\n      0x60\n        /* \"NFTlotto.sol\":3680:3688  roundNum */\n      sload(0x02)\n        /* \"NFTlotto.sol\":3668:3676  endIndex */\n      dup3\n        /* \"NFTlotto.sol\":3668:3688  endIndex >= roundNum */\n      lt\n        /* \"NFTlotto.sol\":3664:3740  if (endIndex >= roundNum) {\r... */\n      tag_206\n      jumpi\n        /* \"NFTlotto.sol\":3727:3728  1 */\n      0x01\n        /* \"NFTlotto.sol\":3716:3724  roundNum */\n      sload(0x02)\n        /* \"NFTlotto.sol\":3716:3728  roundNum - 1 */\n      tag_207\n      swap2\n      swap1\n      tag_194\n      jump\t// in\n    tag_207:\n        /* \"NFTlotto.sol\":3705:3728  endIndex = roundNum - 1 */\n      swap2\n      pop\n        /* \"NFTlotto.sol\":3664:3740  if (endIndex >= roundNum) {\r... */\n    tag_206:\n        /* \"NFTlotto.sol\":3752:3771  uint256 arrayLength */\n      0x00\n        /* \"NFTlotto.sol\":3798:3799  1 */\n      0x01\n        /* \"NFTlotto.sol\":3785:3795  startIndex */\n      dup5\n        /* \"NFTlotto.sol\":3774:3782  endIndex */\n      dup5\n        /* \"NFTlotto.sol\":3774:3795  endIndex - startIndex */\n      tag_208\n      swap2\n      swap1\n      tag_194\n      jump\t// in\n    tag_208:\n        /* \"NFTlotto.sol\":3774:3799  endIndex - startIndex + 1 */\n      tag_209\n      swap2\n      swap1\n      tag_142\n      jump\t// in\n    tag_209:\n        /* \"NFTlotto.sol\":3752:3799  uint256 arrayLength = endIndex - startIndex + 1 */\n      swap1\n      pop\n        /* \"NFTlotto.sol\":3810:3830  uint256 currentIndex */\n      0x00\n        /* \"NFTlotto.sol\":3861:3872  arrayLength */\n      dup2\n        /* \"NFTlotto.sol\":3847:3873  new Results[](arrayLength) */\n      0xffffffffffffffff\n      dup2\n      gt\n      iszero\n      tag_210\n      jumpi\n      tag_211\n      tag_119\n      jump\t// in\n    tag_211:\n    tag_210:\n      mload(0x40)\n      swap1\n      dup1\n      dup3\n      mstore\n      dup1\n      0x20\n      mul\n      0x20\n      add\n      dup3\n      add\n      0x40\n      mstore\n      dup1\n      iszero\n      tag_212\n      jumpi\n      dup2\n      0x20\n      add\n    tag_213:\n      tag_214\n      tag_215\n      jump\t// in\n    tag_214:\n      dup2\n      mstore\n      0x20\n      add\n      swap1\n      0x01\n      swap1\n      sub\n      swap1\n      dup2\n      tag_213\n      jumpi\n      swap1\n      pop\n    tag_212:\n      pop\n        /* \"NFTlotto.sol\":3841:3873  log = new Results[](arrayLength) */\n      swap3\n      pop\n        /* \"NFTlotto.sol\":3894:3903  uint256 i */\n      0x00\n        /* \"NFTlotto.sol\":3906:3916  startIndex */\n      dup6\n        /* \"NFTlotto.sol\":3894:3916  uint256 i = startIndex */\n      swap1\n      pop\n        /* \"NFTlotto.sol\":3889:4042  for (uint256 i = startIndex; i <= endIndex; i++) {\r... */\n    tag_216:\n        /* \"NFTlotto.sol\":3923:3931  endIndex */\n      dup5\n        /* \"NFTlotto.sol\":3918:3919  i */\n      dup2\n        /* \"NFTlotto.sol\":3918:3931  i <= endIndex */\n      gt\n        /* \"NFTlotto.sol\":3889:4042  for (uint256 i = startIndex; i <= endIndex; i++) {\r... */\n      tag_217\n      jumpi\n        /* \"NFTlotto.sol\":3973:3985  roundResults */\n      0x05\n        /* \"NFTlotto.sol\":3973:4001  roundResults[startIndex + i] */\n      0x00\n        /* \"NFTlotto.sol\":3999:4000  i */\n      dup3\n        /* \"NFTlotto.sol\":3986:3996  startIndex */\n      dup9\n        /* \"NFTlotto.sol\":3986:4000  startIndex + i */\n      tag_219\n      swap2\n      swap1\n      tag_142\n      jump\t// in\n    tag_219:\n        /* \"NFTlotto.sol\":3973:4001  roundResults[startIndex + i] */\n      dup2\n      mstore\n      0x20\n      add\n      swap1\n      dup2\n      mstore\n      0x20\n      add\n      0x00\n      keccak256\n        /* \"NFTlotto.sol\":3953:4001  log[currentIndex] = roundResults[startIndex + i] */\n      mload(0x40)\n      dup1\n      0xa0\n      add\n      0x40\n      mstore\n      swap1\n      dup2\n      0x00\n      dup3\n      add\n      sload\n      dup2\n      mstore\n      0x20\n      add\n      0x01\n      dup3\n      add\n      sload\n      dup2\n      mstore\n      0x20\n      add\n      0x02\n      dup3\n      add\n      sload\n      dup2\n      mstore\n      0x20\n      add\n      0x03\n      dup3\n      add\n      sload\n      dup2\n      mstore\n      0x20\n      add\n      0x04\n      dup3\n      add\n      0x00\n      swap1\n      sload\n      swap1\n      0x0100\n      exp\n      swap1\n      div\n      0xffffffffffffffffffffffffffffffffffffffff\n      and\n      0xffffffffffffffffffffffffffffffffffffffff\n      and\n      0xffffffffffffffffffffffffffffffffffffffff\n      and\n      dup2\n      mstore\n      pop\n      pop\n        /* \"NFTlotto.sol\":3953:3956  log */\n      dup5\n        /* \"NFTlotto.sol\":3957:3969  currentIndex */\n      dup4\n        /* \"NFTlotto.sol\":3953:3970  log[currentIndex] */\n      dup2\n      mload\n      dup2\n      lt\n      tag_220\n      jumpi\n      tag_221\n      tag_109\n      jump\t// in\n    tag_221:\n    tag_220:\n      0x20\n      mul\n      0x20\n      add\n      add\n        /* \"NFTlotto.sol\":3953:4001  log[currentIndex] = roundResults[startIndex + i] */\n      dup2\n      swap1\n      mstore\n      pop\n        /* \"NFTlotto.sol\":4016:4030  currentIndex++ */\n      dup2\n      dup1\n      tag_222\n      swap1\n      tag_113\n      jump\t// in\n    tag_222:\n      swap3\n      pop\n      pop\n        /* \"NFTlotto.sol\":3933:3936  i++ */\n      dup1\n      dup1\n      tag_223\n      swap1\n      tag_113\n      jump\t// in\n    tag_223:\n      swap2\n      pop\n      pop\n        /* \"NFTlotto.sol\":3889:4042  for (uint256 i = startIndex; i <= endIndex; i++) {\r... */\n      jump(tag_216)\n    tag_217:\n      pop\n        /* \"NFTlotto.sol\":3653:4049  {\r... */\n      pop\n      pop\n        /* \"NFTlotto.sol\":3552:4049  function resultLog(uint256 startIndex, uint256 endIndex) external view returns(Results [] memory log){\r... */\n      swap3\n      swap2\n      pop\n      pop\n      jump\t// out\n        /* \"NFTlotto.sol\":2250:2419  function removeAccount(address account) external{\r... */\n    tag_94:\n        /* \"NFTlotto.sol\":2309:2331  uint256 currentEntries */\n      0x00\n        /* \"NFTlotto.sol\":2334:2354  userEntries(account) */\n      tag_225\n        /* \"NFTlotto.sol\":2346:2353  account */\n      dup3\n        /* \"NFTlotto.sol\":2334:2345  userEntries */\n      tag_71\n        /* \"NFTlotto.sol\":2334:2354  userEntries(account) */\n      jump\t// in\n    tag_225:\n        /* \"NFTlotto.sol\":2309:2354  uint256 currentEntries = userEntries(account) */\n      swap1\n      pop\n        /* \"NFTlotto.sol\":2365:2411  removeEntryFromWallet(account, currentEntries) */\n      tag_226\n        /* \"NFTlotto.sol\":2387:2394  account */\n      dup3\n        /* \"NFTlotto.sol\":2396:2410  currentEntries */\n      dup3\n        /* \"NFTlotto.sol\":2365:2386  removeEntryFromWallet */\n      tag_75\n        /* \"NFTlotto.sol\":2365:2411  removeEntryFromWallet(account, currentEntries) */\n      jump\t// in\n    tag_226:\n        /* \"NFTlotto.sol\":2298:2419  {\r... */\n      pop\n        /* \"NFTlotto.sol\":2250:2419  function removeAccount(address account) external{\r... */\n      pop\n      jump\t// out\n        /* \"https://github.com/OpenZeppelin/openzeppelin-contracts/blob/master/contracts/access/Ownable.sol\":1918:2116  function transferOwnership(address newOwner) public virtual onlyOwner {... */\n    tag_97:\n        /* \"https://github.com/OpenZeppelin/openzeppelin-contracts/blob/master/contracts/access/Ownable.sol\":1259:1271  _msgSender() */\n      tag_228\n        /* \"https://github.com/OpenZeppelin/openzeppelin-contracts/blob/master/contracts/access/Ownable.sol\":1259:1269  _msgSender */\n      tag_151\n        /* \"https://github.com/OpenZeppelin/openzeppelin-contracts/blob/master/contracts/access/Ownable.sol\":1259:1271  _msgSender() */\n      jump\t// in\n    tag_228:\n        /* \"https://github.com/OpenZeppelin/openzeppelin-contracts/blob/master/contracts/access/Ownable.sol\":1248:1271  owner() == _msgSender() */\n      0xffffffffffffffffffffffffffffffffffffffff\n      and\n        /* \"https://github.com/OpenZeppelin/openzeppelin-contracts/blob/master/contracts/access/Ownable.sol\":1248:1255  owner() */\n      tag_229\n        /* \"https://github.com/OpenZeppelin/openzeppelin-contracts/blob/master/contracts/access/Ownable.sol\":1248:1253  owner */\n      tag_62\n        /* \"https://github.com/OpenZeppelin/openzeppelin-contracts/blob/master/contracts/access/Ownable.sol\":1248:1255  owner() */\n      jump\t// in\n    tag_229:\n        /* \"https://github.com/OpenZeppelin/openzeppelin-contracts/blob/master/contracts/access/Ownable.sol\":1248:1271  owner() == _msgSender() */\n      0xffffffffffffffffffffffffffffffffffffffff\n      and\n      eq\n        /* \"https://github.com/OpenZeppelin/openzeppelin-contracts/blob/master/contracts/access/Ownable.sol\":1240:1308  require(owner() == _msgSender(), \"Ownable: caller is not the owner\") */\n      tag_230\n      jumpi\n      mload(0x40)\n      0x08c379a000000000000000000000000000000000000000000000000000000000\n      dup2\n      mstore\n      0x04\n      add\n      tag_231\n      swap1\n      tag_155\n      jump\t// in\n    tag_231:\n      mload(0x40)\n      dup1\n      swap2\n      sub\n      swap1\n      revert\n    tag_230:\n        /* \"https://github.com/OpenZeppelin/openzeppelin-contracts/blob/master/contracts/access/Ownable.sol\":2026:2027  0 */\n      0x00\n        /* \"https://github.com/OpenZeppelin/openzeppelin-contracts/blob/master/contracts/access/Ownable.sol\":2006:2028  newOwner != address(0) */\n      0xffffffffffffffffffffffffffffffffffffffff\n      and\n        /* \"https://github.com/OpenZeppelin/openzeppelin-contracts/blob/master/contracts/access/Ownable.sol\":2006:2014  newOwner */\n      dup2\n        /* \"https://github.com/OpenZeppelin/openzeppelin-contracts/blob/master/contracts/access/Ownable.sol\":2006:2028  newOwner != address(0) */\n      0xffffffffffffffffffffffffffffffffffffffff\n      and\n      eq\n      iszero\n        /* \"https://github.com/OpenZeppelin/openzeppelin-contracts/blob/master/contracts/access/Ownable.sol\":1998:2071  require(newOwner != address(0), \"Ownable: new owner is the zero address\") */\n      tag_233\n      jumpi\n      mload(0x40)\n      0x08c379a000000000000000000000000000000000000000000000000000000000\n      dup2\n      mstore\n      0x04\n      add\n      tag_234\n      swap1\n      tag_235\n      jump\t// in\n    tag_234:\n      mload(0x40)\n      dup1\n      swap2\n      sub\n      swap1\n      revert\n    tag_233:\n        /* \"https://github.com/OpenZeppelin/openzeppelin-contracts/blob/master/contracts/access/Ownable.sol\":2081:2109  _transferOwnership(newOwner) */\n      tag_236\n        /* \"https://github.com/OpenZeppelin/openzeppelin-contracts/blob/master/contracts/access/Ownable.sol\":2100:2108  newOwner */\n      dup2\n        /* \"https://github.com/OpenZeppelin/openzeppelin-contracts/blob/master/contracts/access/Ownable.sol\":2081:2099  _transferOwnership */\n      tag_182\n        /* \"https://github.com/OpenZeppelin/openzeppelin-contracts/blob/master/contracts/access/Ownable.sol\":2081:2109  _transferOwnership(newOwner) */\n      jump\t// in\n    tag_236:\n        /* \"https://github.com/OpenZeppelin/openzeppelin-contracts/blob/master/contracts/access/Ownable.sol\":1918:2116  function transferOwnership(address newOwner) public virtual onlyOwner {... */\n      pop\n      jump\t// out\n        /* \"NFTlotto.sol\":3298:3414  function currentJackpot() public view returns (uint256) {\r... */\n    tag_99:\n        /* \"NFTlotto.sol\":3345:3352  uint256 */\n      0x00\n        /* \"NFTlotto.sol\":3372:3381  acesToken */\n      0x04\n      0x00\n      swap1\n      sload\n      swap1\n      0x0100\n      exp\n      swap1\n      div\n      0xffffffffffffffffffffffffffffffffffffffff\n      and\n        /* \"NFTlotto.sol\":3372:3391  acesToken.balanceOf */\n      0xffffffffffffffffffffffffffffffffffffffff\n      and\n      0x70a08231\n        /* \"NFTlotto.sol\":3400:3404  this */\n      address\n        /* \"NFTlotto.sol\":3372:3406  acesToken.balanceOf(address(this)) */\n      mload(0x40)\n      dup3\n      0xffffffff\n      and\n      0xe0\n      shl\n      dup2\n      mstore\n      0x04\n      add\n      tag_238\n      swap2\n      swap1\n      tag_64\n      jump\t// in\n    tag_238:\n      0x20\n      mload(0x40)\n      dup1\n      dup4\n      sub\n      dup2\n      dup7\n      dup1\n      extcodesize\n      iszero\n      dup1\n      iszero\n      tag_239\n      jumpi\n      0x00\n      dup1\n      revert\n    tag_239:\n      pop\n      gas\n      staticcall\n      iszero\n      dup1\n      iszero\n      tag_241\n      jumpi\n      returndatasize\n      0x00\n      dup1\n      returndatacopy\n      revert(0x00, returndatasize)\n    tag_241:\n      pop\n      pop\n      pop\n      pop\n      mload(0x40)\n      returndatasize\n      not(0x1f)\n      0x1f\n      dup3\n      add\n      and\n      dup3\n      add\n      dup1\n      0x40\n      mstore\n      pop\n      dup2\n      add\n      swap1\n      tag_242\n      swap2\n      swap1\n      tag_243\n      jump\t// in\n    tag_242:\n        /* \"NFTlotto.sol\":3365:3406  return acesToken.balanceOf(address(this)) */\n      swap1\n      pop\n        /* \"NFTlotto.sol\":3298:3414  function currentJackpot() public view returns (uint256) {\r... */\n      swap1\n      jump\t// out\n        /* \"https://github.com/OpenZeppelin/openzeppelin-contracts/blob/master/contracts/utils/Context.sol\":640:736  function _msgSender() internal view virtual returns (address) {... */\n    tag_151:\n        /* \"https://github.com/OpenZeppelin/openzeppelin-contracts/blob/master/contracts/utils/Context.sol\":693:700  address */\n      0x00\n        /* \"https://github.com/OpenZeppelin/openzeppelin-contracts/blob/master/contracts/utils/Context.sol\":719:729  msg.sender */\n      caller\n        /* \"https://github.com/OpenZeppelin/openzeppelin-contracts/blob/master/contracts/utils/Context.sol\":712:729  return msg.sender */\n      swap1\n      pop\n        /* \"https://github.com/OpenZeppelin/openzeppelin-contracts/blob/master/contracts/utils/Context.sol\":640:736  function _msgSender() internal view virtual returns (address) {... */\n      swap1\n      jump\t// out\n        /* \"NFTlotto.sol\":4956:5329  function random() internal view returns (uint256) {\r... */\n    tag_162:\n        /* \"NFTlotto.sol\":4997:5004  uint256 */\n      0x00\n        /* \"NFTlotto.sol\":5138:5153  block.timestamp */\n      timestamp\n        /* \"NFTlotto.sol\":5180:5189  gasleft() */\n      gas\n        /* \"NFTlotto.sol\":5216:5226  msg.sender */\n      caller\n        /* \"NFTlotto.sol\":5253:5264  totalPayout */\n      sload(0x03)\n        /* \"NFTlotto.sol\":5095:5287  abi.encodePacked(\r... */\n      add(0x20, mload(0x40))\n      tag_246\n      swap5\n      swap4\n      swap3\n      swap2\n      swap1\n      tag_247\n      jump\t// in\n    tag_246:\n      mload(0x40)\n      0x20\n      dup2\n      dup4\n      sub\n      sub\n      dup2\n      mstore\n      swap1\n      0x40\n      mstore\n        /* \"NFTlotto.sol\":5063:5306  keccak256(\r... */\n      dup1\n      mload\n      swap1\n      0x20\n      add\n      keccak256\n        /* \"NFTlotto.sol\":5037:5321  uint256(\r... */\n      0x00\n      shr\n        /* \"NFTlotto.sol\":5017:5321  return\r... */\n      swap1\n      pop\n        /* \"NFTlotto.sol\":4956:5329  function random() internal view returns (uint256) {\r... */\n      swap1\n      jump\t// out\n        /* \"https://github.com/OpenZeppelin/openzeppelin-contracts/blob/master/contracts/access/Ownable.sol\":2270:2457  function _transferOwnership(address newOwner) internal virtual {... */\n    tag_182:\n        /* \"https://github.com/OpenZeppelin/openzeppelin-contracts/blob/master/contracts/access/Ownable.sol\":2343:2359  address oldOwner */\n      0x00\n        /* \"https://github.com/OpenZeppelin/openzeppelin-contracts/blob/master/contracts/access/Ownable.sol\":2362:2368  _owner */\n      dup1\n      0x00\n      swap1\n      sload\n      swap1\n      0x0100\n      exp\n      swap1\n      div\n      0xffffffffffffffffffffffffffffffffffffffff\n      and\n        /* \"https://github.com/OpenZeppelin/openzeppelin-contracts/blob/master/contracts/access/Ownable.sol\":2343:2368  address oldOwner = _owner */\n      swap1\n      pop\n        /* \"https://github.com/OpenZeppelin/openzeppelin-contracts/blob/master/contracts/access/Ownable.sol\":2387:2395  newOwner */\n      dup2\n        /* \"https://github.com/OpenZeppelin/openzeppelin-contracts/blob/master/contracts/access/Ownable.sol\":2378:2384  _owner */\n      0x00\n      dup1\n        /* \"https://github.com/OpenZeppelin/openzeppelin-contracts/blob/master/contracts/access/Ownable.sol\":2378:2395  _owner = newOwner */\n      0x0100\n      exp\n      dup2\n      sload\n      dup2\n      0xffffffffffffffffffffffffffffffffffffffff\n      mul\n      not\n      and\n      swap1\n      dup4\n      0xffffffffffffffffffffffffffffffffffffffff\n      and\n      mul\n      or\n      swap1\n      sstore\n      pop\n        /* \"https://github.com/OpenZeppelin/openzeppelin-contracts/blob/master/contracts/access/Ownable.sol\":2441:2449  newOwner */\n      dup2\n        /* \"https://github.com/OpenZeppelin/openzeppelin-contracts/blob/master/contracts/access/Ownable.sol\":2410:2450  OwnershipTransferred(oldOwner, newOwner) */\n      0xffffffffffffffffffffffffffffffffffffffff\n      and\n        /* \"https://github.com/OpenZeppelin/openzeppelin-contracts/blob/master/contracts/access/Ownable.sol\":2431:2439  oldOwner */\n      dup2\n        /* \"https://github.com/OpenZeppelin/openzeppelin-contracts/blob/master/contracts/access/Ownable.sol\":2410:2450  OwnershipTransferred(oldOwner, newOwner) */\n      0xffffffffffffffffffffffffffffffffffffffff\n      and\n      0x8be0079c531659141344cd1fd0a4f28419497f9722a3daafe3b4186f6b6457e0\n      mload(0x40)\n      mload(0x40)\n      dup1\n      swap2\n      sub\n      swap1\n      log3\n        /* \"https://github.com/OpenZeppelin/openzeppelin-contracts/blob/master/contracts/access/Ownable.sol\":2333:2457  {... */\n      pop\n        /* \"https://github.com/OpenZeppelin/openzeppelin-contracts/blob/master/contracts/access/Ownable.sol\":2270:2457  function _transferOwnership(address newOwner) internal virtual {... */\n      pop\n      jump\t// out\n    tag_215:\n      mload(0x40)\n      dup1\n      0xa0\n      add\n      0x40\n      mstore\n      dup1\n      0x00\n      dup2\n      mstore\n      0x20\n      add\n      0x00\n      dup2\n      mstore\n      0x20\n      add\n      0x00\n      dup2\n      mstore\n      0x20\n      add\n      0x00\n      dup2\n      mstore\n      0x20\n      add\n      and(0xffffffffffffffffffffffffffffffffffffffff, 0x00)\n      dup2\n      mstore\n      pop\n      swap1\n      jump\t// out\n        /* \"#utility.yul\":7:146   */\n    tag_250:\n        /* \"#utility.yul\":53:58   */\n      0x00\n        /* \"#utility.yul\":91:97   */\n      dup2\n        /* \"#utility.yul\":78:98   */\n      calldataload\n        /* \"#utility.yul\":69:98   */\n      swap1\n      pop\n        /* \"#utility.yul\":107:140   */\n      tag_252\n        /* \"#utility.yul\":134:139   */\n      dup2\n        /* \"#utility.yul\":107:140   */\n      tag_253\n      jump\t// in\n    tag_252:\n        /* \"#utility.yul\":7:146   */\n      swap3\n      swap2\n      pop\n      pop\n      jump\t// out\n        /* \"#utility.yul\":152:289   */\n    tag_254:\n        /* \"#utility.yul\":206:211   */\n      0x00\n        /* \"#utility.yul\":237:243   */\n      dup2\n        /* \"#utility.yul\":231:244   */\n      mload\n        /* \"#utility.yul\":222:244   */\n      swap1\n      pop\n        /* \"#utility.yul\":253:283   */\n      tag_256\n        /* \"#utility.yul\":277:282   */\n      dup2\n        /* \"#utility.yul\":253:283   */\n      tag_257\n      jump\t// in\n    tag_256:\n        /* \"#utility.yul\":152:289   */\n      swap3\n      swap2\n      pop\n      pop\n      jump\t// out\n        /* \"#utility.yul\":295:434   */\n    tag_258:\n        /* \"#utility.yul\":341:346   */\n      0x00\n        /* \"#utility.yul\":379:385   */\n      dup2\n        /* \"#utility.yul\":366:386   */\n      calldataload\n        /* \"#utility.yul\":357:386   */\n      swap1\n      pop\n        /* \"#utility.yul\":395:428   */\n      tag_260\n        /* \"#utility.yul\":422:427   */\n      dup2\n        /* \"#utility.yul\":395:428   */\n      tag_261\n      jump\t// in\n    tag_260:\n        /* \"#utility.yul\":295:434   */\n      swap3\n      swap2\n      pop\n      pop\n      jump\t// out\n        /* \"#utility.yul\":440:583   */\n    tag_262:\n        /* \"#utility.yul\":497:502   */\n      0x00\n        /* \"#utility.yul\":528:534   */\n      dup2\n        /* \"#utility.yul\":522:535   */\n      mload\n        /* \"#utility.yul\":513:535   */\n      swap1\n      pop\n        /* \"#utility.yul\":544:577   */\n      tag_264\n        /* \"#utility.yul\":571:576   */\n      dup2\n        /* \"#utility.yul\":544:577   */\n      tag_261\n      jump\t// in\n    tag_264:\n        /* \"#utility.yul\":440:583   */\n      swap3\n      swap2\n      pop\n      pop\n      jump\t// out\n        /* \"#utility.yul\":589:918   */\n    tag_50:\n        /* \"#utility.yul\":648:654   */\n      0x00\n        /* \"#utility.yul\":697:699   */\n      0x20\n        /* \"#utility.yul\":685:694   */\n      dup3\n        /* \"#utility.yul\":676:683   */\n      dup5\n        /* \"#utility.yul\":672:695   */\n      sub\n        /* \"#utility.yul\":668:700   */\n      slt\n        /* \"#utility.yul\":665:784   */\n      iszero\n      tag_266\n      jumpi\n        /* \"#utility.yul\":703:782   */\n      tag_267\n      tag_268\n      jump\t// in\n    tag_267:\n        /* \"#utility.yul\":665:784   */\n    tag_266:\n        /* \"#utility.yul\":823:824   */\n      0x00\n        /* \"#utility.yul\":848:901   */\n      tag_269\n        /* \"#utility.yul\":893:900   */\n      dup5\n        /* \"#utility.yul\":884:890   */\n      dup3\n        /* \"#utility.yul\":873:882   */\n      dup6\n        /* \"#utility.yul\":869:891   */\n      add\n        /* \"#utility.yul\":848:901   */\n      tag_250\n      jump\t// in\n    tag_269:\n        /* \"#utility.yul\":838:901   */\n      swap2\n      pop\n        /* \"#utility.yul\":794:911   */\n      pop\n        /* \"#utility.yul\":589:918   */\n      swap3\n      swap2\n      pop\n      pop\n      jump\t// out\n        /* \"#utility.yul\":924:1398   */\n    tag_28:\n        /* \"#utility.yul\":992:998   */\n      0x00\n        /* \"#utility.yul\":1000:1006   */\n      dup1\n        /* \"#utility.yul\":1049:1051   */\n      0x40\n        /* \"#utility.yul\":1037:1046   */\n      dup4\n        /* \"#utility.yul\":1028:1035   */\n      dup6\n        /* \"#utility.yul\":1024:1047   */\n      sub\n        /* \"#utility.yul\":1020:1052   */\n      slt\n        /* \"#utility.yul\":1017:1136   */\n      iszero\n      tag_271\n      jumpi\n        /* \"#utility.yul\":1055:1134   */\n      tag_272\n      tag_268\n      jump\t// in\n    tag_272:\n        /* \"#utility.yul\":1017:1136   */\n    tag_271:\n        /* \"#utility.yul\":1175:1176   */\n      0x00\n        /* \"#utility.yul\":1200:1253   */\n      tag_273\n        /* \"#utility.yul\":1245:1252   */\n      dup6\n        /* \"#utility.yul\":1236:1242   */\n      dup3\n        /* \"#utility.yul\":1225:1234   */\n      dup7\n        /* \"#utility.yul\":1221:1243   */\n      add\n        /* \"#utility.yul\":1200:1253   */\n      tag_250\n      jump\t// in\n    tag_273:\n        /* \"#utility.yul\":1190:1253   */\n      swap3\n      pop\n        /* \"#utility.yul\":1146:1263   */\n      pop\n        /* \"#utility.yul\":1302:1304   */\n      0x20\n        /* \"#utility.yul\":1328:1381   */\n      tag_274\n        /* \"#utility.yul\":1373:1380   */\n      dup6\n        /* \"#utility.yul\":1364:1370   */\n      dup3\n        /* \"#utility.yul\":1353:1362   */\n      dup7\n        /* \"#utility.yul\":1349:1371   */\n      add\n        /* \"#utility.yul\":1328:1381   */\n      tag_258\n      jump\t// in\n    tag_274:\n        /* \"#utility.yul\":1318:1381   */\n      swap2\n      pop\n        /* \"#utility.yul\":1273:1391   */\n      pop\n        /* \"#utility.yul\":924:1398   */\n      swap3\n      pop\n      swap3\n      swap1\n      pop\n      jump\t// out\n        /* \"#utility.yul\":1404:1749   */\n    tag_173:\n        /* \"#utility.yul\":1471:1477   */\n      0x00\n        /* \"#utility.yul\":1520:1522   */\n      0x20\n        /* \"#utility.yul\":1508:1517   */\n      dup3\n        /* \"#utility.yul\":1499:1506   */\n      dup5\n        /* \"#utility.yul\":1495:1518   */\n      sub\n        /* \"#utility.yul\":1491:1523   */\n      slt\n        /* \"#utility.yul\":1488:1607   */\n      iszero\n      tag_276\n      jumpi\n        /* \"#utility.yul\":1526:1605   */\n      tag_277\n      tag_268\n      jump\t// in\n    tag_277:\n        /* \"#utility.yul\":1488:1607   */\n    tag_276:\n        /* \"#utility.yul\":1646:1647   */\n      0x00\n        /* \"#utility.yul\":1671:1732   */\n      tag_278\n        /* \"#utility.yul\":1724:1731   */\n      dup5\n        /* \"#utility.yul\":1715:1721   */\n      dup3\n        /* \"#utility.yul\":1704:1713   */\n      dup6\n        /* \"#utility.yul\":1700:1722   */\n      add\n        /* \"#utility.yul\":1671:1732   */\n      tag_254\n      jump\t// in\n    tag_278:\n        /* \"#utility.yul\":1661:1732   */\n      swap2\n      pop\n        /* \"#utility.yul\":1617:1742   */\n      pop\n        /* \"#utility.yul\":1404:1749   */\n      swap3\n      swap2\n      pop\n      pop\n      jump\t// out\n        /* \"#utility.yul\":1755:2084   */\n    tag_78:\n        /* \"#utility.yul\":1814:1820   */\n      0x00\n        /* \"#utility.yul\":1863:1865   */\n      0x20\n        /* \"#utility.yul\":1851:1860   */\n      dup3\n        /* \"#utility.yul\":1842:1849   */\n      dup5\n        /* \"#utility.yul\":1838:1861   */\n      sub\n        /* \"#utility.yul\":1834:1866   */\n      slt\n        /* \"#utility.yul\":1831:1950   */\n      iszero\n      tag_280\n      jumpi\n        /* \"#utility.yul\":1869:1948   */\n      tag_281\n      tag_268\n      jump\t// in\n    tag_281:\n        /* \"#utility.yul\":1831:1950   */\n    tag_280:\n        /* \"#utility.yul\":1989:1990   */\n      0x00\n        /* \"#utility.yul\":2014:2067   */\n      tag_282\n        /* \"#utility.yul\":2059:2066   */\n      dup5\n        /* \"#utility.yul\":2050:2056   */\n      dup3\n        /* \"#utility.yul\":2039:2048   */\n      dup6\n        /* \"#utility.yul\":2035:2057   */\n      add\n        /* \"#utility.yul\":2014:2067   */\n      tag_258\n      jump\t// in\n    tag_282:\n        /* \"#utility.yul\":2004:2067   */\n      swap2\n      pop\n        /* \"#utility.yul\":1960:2077   */\n      pop\n        /* \"#utility.yul\":1755:2084   */\n      swap3\n      swap2\n      pop\n      pop\n      jump\t// out\n        /* \"#utility.yul\":2090:2441   */\n    tag_243:\n        /* \"#utility.yul\":2160:2166   */\n      0x00\n        /* \"#utility.yul\":2209:2211   */\n      0x20\n        /* \"#utility.yul\":2197:2206   */\n      dup3\n        /* \"#utility.yul\":2188:2195   */\n      dup5\n        /* \"#utility.yul\":2184:2207   */\n      sub\n        /* \"#utility.yul\":2180:2212   */\n      slt\n        /* \"#utility.yul\":2177:2296   */\n      iszero\n      tag_284\n      jumpi\n        /* \"#utility.yul\":2215:2294   */\n      tag_285\n      tag_268\n      jump\t// in\n    tag_285:\n        /* \"#utility.yul\":2177:2296   */\n    tag_284:\n        /* \"#utility.yul\":2335:2336   */\n      0x00\n        /* \"#utility.yul\":2360:2424   */\n      tag_286\n        /* \"#utility.yul\":2416:2423   */\n      dup5\n        /* \"#utility.yul\":2407:2413   */\n      dup3\n        /* \"#utility.yul\":2396:2405   */\n      dup6\n        /* \"#utility.yul\":2392:2414   */\n      add\n        /* \"#utility.yul\":2360:2424   */\n      tag_262\n      jump\t// in\n    tag_286:\n        /* \"#utility.yul\":2350:2424   */\n      swap2\n      pop\n        /* \"#utility.yul\":2306:2434   */\n      pop\n        /* \"#utility.yul\":2090:2441   */\n      swap3\n      swap2\n      pop\n      pop\n      jump\t// out\n        /* \"#utility.yul\":2447:2921   */\n    tag_88:\n        /* \"#utility.yul\":2515:2521   */\n      0x00\n        /* \"#utility.yul\":2523:2529   */\n      dup1\n        /* \"#utility.yul\":2572:2574   */\n      0x40\n        /* \"#utility.yul\":2560:2569   */\n      dup4\n        /* \"#utility.yul\":2551:2558   */\n      dup6\n        /* \"#utility.yul\":2547:2570   */\n      sub\n        /* \"#utility.yul\":2543:2575   */\n      slt\n        /* \"#utility.yul\":2540:2659   */\n      iszero\n      tag_288\n      jumpi\n        /* \"#utility.yul\":2578:2657   */\n      tag_289\n      tag_268\n      jump\t// in\n    tag_289:\n        /* \"#utility.yul\":2540:2659   */\n    tag_288:\n        /* \"#utility.yul\":2698:2699   */\n      0x00\n        /* \"#utility.yul\":2723:2776   */\n      tag_290\n        /* \"#utility.yul\":2768:2775   */\n      dup6\n        /* \"#utility.yul\":2759:2765   */\n      dup3\n        /* \"#utility.yul\":2748:2757   */\n      dup7\n        /* \"#utility.yul\":2744:2766   */\n      add\n        /* \"#utility.yul\":2723:2776   */\n      tag_258\n      jump\t// in\n    tag_290:\n        /* \"#utility.yul\":2713:2776   */\n      swap3\n      pop\n        /* \"#utility.yul\":2669:2786   */\n      pop\n        /* \"#utility.yul\":2825:2827   */\n      0x20\n        /* \"#utility.yul\":2851:2904   */\n      tag_291\n        /* \"#utility.yul\":2896:2903   */\n      dup6\n        /* \"#utility.yul\":2887:2893   */\n      dup3\n        /* \"#utility.yul\":2876:2885   */\n      dup7\n        /* \"#utility.yul\":2872:2894   */\n      add\n        /* \"#utility.yul\":2851:2904   */\n      tag_258\n      jump\t// in\n    tag_291:\n        /* \"#utility.yul\":2841:2904   */\n      swap2\n      pop\n        /* \"#utility.yul\":2796:2914   */\n      pop\n        /* \"#utility.yul\":2447:2921   */\n      swap3\n      pop\n      swap3\n      swap1\n      pop\n      jump\t// out\n        /* \"#utility.yul\":2927:3106   */\n    tag_292:\n        /* \"#utility.yul\":2996:3006   */\n      0x00\n        /* \"#utility.yul\":3017:3063   */\n      tag_294\n        /* \"#utility.yul\":3059:3062   */\n      dup4\n        /* \"#utility.yul\":3051:3057   */\n      dup4\n        /* \"#utility.yul\":3017:3063   */\n      tag_295\n      jump\t// in\n    tag_294:\n        /* \"#utility.yul\":3095:3099   */\n      0x20\n        /* \"#utility.yul\":3090:3093   */\n      dup4\n        /* \"#utility.yul\":3086:3100   */\n      add\n        /* \"#utility.yul\":3072:3100   */\n      swap1\n      pop\n        /* \"#utility.yul\":2927:3106   */\n      swap3\n      swap2\n      pop\n      pop\n      jump\t// out\n        /* \"#utility.yul\":3112:3383   */\n    tag_296:\n        /* \"#utility.yul\":3227:3237   */\n      0x00\n        /* \"#utility.yul\":3248:3340   */\n      tag_298\n        /* \"#utility.yul\":3336:3339   */\n      dup4\n        /* \"#utility.yul\":3328:3334   */\n      dup4\n        /* \"#utility.yul\":3248:3340   */\n      tag_299\n      jump\t// in\n    tag_298:\n        /* \"#utility.yul\":3372:3376   */\n      0xa0\n        /* \"#utility.yul\":3367:3370   */\n      dup4\n        /* \"#utility.yul\":3363:3377   */\n      add\n        /* \"#utility.yul\":3349:3377   */\n      swap1\n      pop\n        /* \"#utility.yul\":3112:3383   */\n      swap3\n      swap2\n      pop\n      pop\n      jump\t// out\n        /* \"#utility.yul\":3389:3568   */\n    tag_300:\n        /* \"#utility.yul\":3458:3468   */\n      0x00\n        /* \"#utility.yul\":3479:3525   */\n      tag_302\n        /* \"#utility.yul\":3521:3524   */\n      dup4\n        /* \"#utility.yul\":3513:3519   */\n      dup4\n        /* \"#utility.yul\":3479:3525   */\n      tag_303\n      jump\t// in\n    tag_302:\n        /* \"#utility.yul\":3557:3561   */\n      0x20\n        /* \"#utility.yul\":3552:3555   */\n      dup4\n        /* \"#utility.yul\":3548:3562   */\n      add\n        /* \"#utility.yul\":3534:3562   */\n      swap1\n      pop\n        /* \"#utility.yul\":3389:3568   */\n      swap3\n      swap2\n      pop\n      pop\n      jump\t// out\n        /* \"#utility.yul\":3574:3682   */\n    tag_295:\n        /* \"#utility.yul\":3651:3675   */\n      tag_305\n        /* \"#utility.yul\":3669:3674   */\n      dup2\n        /* \"#utility.yul\":3651:3675   */\n      tag_306\n      jump\t// in\n    tag_305:\n        /* \"#utility.yul\":3646:3649   */\n      dup3\n        /* \"#utility.yul\":3639:3676   */\n      mstore\n        /* \"#utility.yul\":3574:3682   */\n      pop\n      pop\n      jump\t// out\n        /* \"#utility.yul\":3688:3806   */\n    tag_307:\n        /* \"#utility.yul\":3775:3799   */\n      tag_309\n        /* \"#utility.yul\":3793:3798   */\n      dup2\n        /* \"#utility.yul\":3775:3799   */\n      tag_306\n      jump\t// in\n    tag_309:\n        /* \"#utility.yul\":3770:3773   */\n      dup3\n        /* \"#utility.yul\":3763:3800   */\n      mstore\n        /* \"#utility.yul\":3688:3806   */\n      pop\n      pop\n      jump\t// out\n        /* \"#utility.yul\":3812:3969   */\n    tag_310:\n        /* \"#utility.yul\":3917:3962   */\n      tag_312\n        /* \"#utility.yul\":3937:3961   */\n      tag_313\n        /* \"#utility.yul\":3955:3960   */\n      dup3\n        /* \"#utility.yul\":3937:3961   */\n      tag_306\n      jump\t// in\n    tag_313:\n        /* \"#utility.yul\":3917:3962   */\n      tag_314\n      jump\t// in\n    tag_312:\n        /* \"#utility.yul\":3912:3915   */\n      dup3\n        /* \"#utility.yul\":3905:3963   */\n      mstore\n        /* \"#utility.yul\":3812:3969   */\n      pop\n      pop\n      jump\t// out\n        /* \"#utility.yul\":4005:4737   */\n    tag_315:\n        /* \"#utility.yul\":4124:4127   */\n      0x00\n        /* \"#utility.yul\":4153:4207   */\n      tag_317\n        /* \"#utility.yul\":4201:4206   */\n      dup3\n        /* \"#utility.yul\":4153:4207   */\n      tag_318\n      jump\t// in\n    tag_317:\n        /* \"#utility.yul\":4223:4309   */\n      tag_319\n        /* \"#utility.yul\":4302:4308   */\n      dup2\n        /* \"#utility.yul\":4297:4300   */\n      dup6\n        /* \"#utility.yul\":4223:4309   */\n      tag_320\n      jump\t// in\n    tag_319:\n        /* \"#utility.yul\":4216:4309   */\n      swap4\n      pop\n        /* \"#utility.yul\":4333:4389   */\n      tag_321\n        /* \"#utility.yul\":4383:4388   */\n      dup4\n        /* \"#utility.yul\":4333:4389   */\n      tag_322\n      jump\t// in\n    tag_321:\n        /* \"#utility.yul\":4412:4419   */\n      dup1\n        /* \"#utility.yul\":4443:4444   */\n      0x00\n        /* \"#utility.yul\":4428:4712   */\n    tag_323:\n        /* \"#utility.yul\":4453:4459   */\n      dup4\n        /* \"#utility.yul\":4450:4451   */\n      dup2\n        /* \"#utility.yul\":4447:4460   */\n      lt\n        /* \"#utility.yul\":4428:4712   */\n      iszero\n      tag_325\n      jumpi\n        /* \"#utility.yul\":4529:4535   */\n      dup2\n        /* \"#utility.yul\":4523:4536   */\n      mload\n        /* \"#utility.yul\":4556:4619   */\n      tag_326\n        /* \"#utility.yul\":4615:4618   */\n      dup9\n        /* \"#utility.yul\":4600:4613   */\n      dup3\n        /* \"#utility.yul\":4556:4619   */\n      tag_292\n      jump\t// in\n    tag_326:\n        /* \"#utility.yul\":4549:4619   */\n      swap8\n      pop\n        /* \"#utility.yul\":4642:4702   */\n      tag_327\n        /* \"#utility.yul\":4695:4701   */\n      dup4\n        /* \"#utility.yul\":4642:4702   */\n      tag_328\n      jump\t// in\n    tag_327:\n        /* \"#utility.yul\":4632:4702   */\n      swap3\n      pop\n        /* \"#utility.yul\":4488:4712   */\n      pop\n        /* \"#utility.yul\":4475:4476   */\n      0x01\n        /* \"#utility.yul\":4472:4473   */\n      dup2\n        /* \"#utility.yul\":4468:4477   */\n      add\n        /* \"#utility.yul\":4463:4477   */\n      swap1\n      pop\n        /* \"#utility.yul\":4428:4712   */\n      jump(tag_323)\n    tag_325:\n        /* \"#utility.yul\":4432:4446   */\n      pop\n        /* \"#utility.yul\":4728:4731   */\n      dup6\n        /* \"#utility.yul\":4721:4731   */\n      swap4\n      pop\n        /* \"#utility.yul\":4129:4737   */\n      pop\n      pop\n      pop\n        /* \"#utility.yul\":4005:4737   */\n      swap3\n      swap2\n      pop\n      pop\n      jump\t// out\n        /* \"#utility.yul\":4805:5721   */\n    tag_329:\n        /* \"#utility.yul\":4970:4973   */\n      0x00\n        /* \"#utility.yul\":4999:5076   */\n      tag_331\n        /* \"#utility.yul\":5070:5075   */\n      dup3\n        /* \"#utility.yul\":4999:5076   */\n      tag_332\n      jump\t// in\n    tag_331:\n        /* \"#utility.yul\":5092:5201   */\n      tag_333\n        /* \"#utility.yul\":5194:5200   */\n      dup2\n        /* \"#utility.yul\":5189:5192   */\n      dup6\n        /* \"#utility.yul\":5092:5201   */\n      tag_334\n      jump\t// in\n    tag_333:\n        /* \"#utility.yul\":5085:5201   */\n      swap4\n      pop\n        /* \"#utility.yul\":5225:5304   */\n      tag_335\n        /* \"#utility.yul\":5298:5303   */\n      dup4\n        /* \"#utility.yul\":5225:5304   */\n      tag_336\n      jump\t// in\n    tag_335:\n        /* \"#utility.yul\":5327:5334   */\n      dup1\n        /* \"#utility.yul\":5358:5359   */\n      0x00\n        /* \"#utility.yul\":5343:5696   */\n    tag_337:\n        /* \"#utility.yul\":5368:5374   */\n      dup4\n        /* \"#utility.yul\":5365:5366   */\n      dup2\n        /* \"#utility.yul\":5362:5375   */\n      lt\n        /* \"#utility.yul\":5343:5696   */\n      iszero\n      tag_339\n      jumpi\n        /* \"#utility.yul\":5444:5450   */\n      dup2\n        /* \"#utility.yul\":5438:5451   */\n      mload\n        /* \"#utility.yul\":5471:5580   */\n      tag_340\n        /* \"#utility.yul\":5576:5579   */\n      dup9\n        /* \"#utility.yul\":5561:5574   */\n      dup3\n        /* \"#utility.yul\":5471:5580   */\n      tag_296\n      jump\t// in\n    tag_340:\n        /* \"#utility.yul\":5464:5580   */\n      swap8\n      pop\n        /* \"#utility.yul\":5603:5686   */\n      tag_341\n        /* \"#utility.yul\":5679:5685   */\n      dup4\n        /* \"#utility.yul\":5603:5686   */\n      tag_342\n      jump\t// in\n    tag_341:\n        /* \"#utility.yul\":5593:5686   */\n      swap3\n      pop\n        /* \"#utility.yul\":5403:5696   */\n      pop\n        /* \"#utility.yul\":5390:5391   */\n      0x01\n        /* \"#utility.yul\":5387:5388   */\n      dup2\n        /* \"#utility.yul\":5383:5392   */\n      add\n        /* \"#utility.yul\":5378:5392   */\n      swap1\n      pop\n        /* \"#utility.yul\":5343:5696   */\n      jump(tag_337)\n    tag_339:\n        /* \"#utility.yul\":5347:5361   */\n      pop\n        /* \"#utility.yul\":5712:5715   */\n      dup6\n        /* \"#utility.yul\":5705:5715   */\n      swap4\n      pop\n        /* \"#utility.yul\":4975:5721   */\n      pop\n      pop\n      pop\n        /* \"#utility.yul\":4805:5721   */\n      swap3\n      swap2\n      pop\n      pop\n      jump\t// out\n        /* \"#utility.yul\":5757:6489   */\n    tag_343:\n        /* \"#utility.yul\":5876:5879   */\n      0x00\n        /* \"#utility.yul\":5905:5959   */\n      tag_345\n        /* \"#utility.yul\":5953:5958   */\n      dup3\n        /* \"#utility.yul\":5905:5959   */\n      tag_346\n      jump\t// in\n    tag_345:\n        /* \"#utility.yul\":5975:6061   */\n      tag_347\n        /* \"#utility.yul\":6054:6060   */\n      dup2\n        /* \"#utility.yul\":6049:6052   */\n      dup6\n        /* \"#utility.yul\":5975:6061   */\n      tag_348\n      jump\t// in\n    tag_347:\n        /* \"#utility.yul\":5968:6061   */\n      swap4\n      pop\n        /* \"#utility.yul\":6085:6141   */\n      tag_349\n        /* \"#utility.yul\":6135:6140   */\n      dup4\n        /* \"#utility.yul\":6085:6141   */\n      tag_350\n      jump\t// in\n    tag_349:\n        /* \"#utility.yul\":6164:6171   */\n      dup1\n        /* \"#utility.yul\":6195:6196   */\n      0x00\n        /* \"#utility.yul\":6180:6464   */\n    tag_351:\n        /* \"#utility.yul\":6205:6211   */\n      dup4\n        /* \"#utility.yul\":6202:6203   */\n      dup2\n        /* \"#utility.yul\":6199:6212   */\n      lt\n        /* \"#utility.yul\":6180:6464   */\n      iszero\n      tag_353\n      jumpi\n        /* \"#utility.yul\":6281:6287   */\n      dup2\n        /* \"#utility.yul\":6275:6288   */\n      mload\n        /* \"#utility.yul\":6308:6371   */\n      tag_354\n        /* \"#utility.yul\":6367:6370   */\n      dup9\n        /* \"#utility.yul\":6352:6365   */\n      dup3\n        /* \"#utility.yul\":6308:6371   */\n      tag_300\n      jump\t// in\n    tag_354:\n        /* \"#utility.yul\":6301:6371   */\n      swap8\n      pop\n        /* \"#utility.yul\":6394:6454   */\n      tag_355\n        /* \"#utility.yul\":6447:6453   */\n      dup4\n        /* \"#utility.yul\":6394:6454   */\n      tag_356\n      jump\t// in\n    tag_355:\n        /* \"#utility.yul\":6384:6454   */\n      swap3\n      pop\n        /* \"#utility.yul\":6240:6464   */\n      pop\n        /* \"#utility.yul\":6227:6228   */\n      0x01\n        /* \"#utility.yul\":6224:6225   */\n      dup2\n        /* \"#utility.yul\":6220:6229   */\n      add\n        /* \"#utility.yul\":6215:6229   */\n      swap1\n      pop\n        /* \"#utility.yul\":6180:6464   */\n      jump(tag_351)\n    tag_353:\n        /* \"#utility.yul\":6184:6198   */\n      pop\n        /* \"#utility.yul\":6480:6483   */\n      dup6\n        /* \"#utility.yul\":6473:6483   */\n      swap4\n      pop\n        /* \"#utility.yul\":5881:6489   */\n      pop\n      pop\n      pop\n        /* \"#utility.yul\":5757:6489   */\n      swap3\n      swap2\n      pop\n      pop\n      jump\t// out\n        /* \"#utility.yul\":6495:6604   */\n    tag_357:\n        /* \"#utility.yul\":6576:6597   */\n      tag_359\n        /* \"#utility.yul\":6591:6596   */\n      dup2\n        /* \"#utility.yul\":6576:6597   */\n      tag_360\n      jump\t// in\n    tag_359:\n        /* \"#utility.yul\":6571:6574   */\n      dup3\n        /* \"#utility.yul\":6564:6598   */\n      mstore\n        /* \"#utility.yul\":6495:6604   */\n      pop\n      pop\n      jump\t// out\n        /* \"#utility.yul\":6610:6769   */\n    tag_361:\n        /* \"#utility.yul\":6711:6762   */\n      tag_363\n        /* \"#utility.yul\":6756:6761   */\n      dup2\n        /* \"#utility.yul\":6711:6762   */\n      tag_364\n      jump\t// in\n    tag_363:\n        /* \"#utility.yul\":6706:6709   */\n      dup3\n        /* \"#utility.yul\":6699:6763   */\n      mstore\n        /* \"#utility.yul\":6610:6769   */\n      pop\n      pop\n      jump\t// out\n        /* \"#utility.yul\":6775:7141   */\n    tag_365:\n        /* \"#utility.yul\":6917:6920   */\n      0x00\n        /* \"#utility.yul\":6938:7005   */\n      tag_367\n        /* \"#utility.yul\":7002:7004   */\n      0x26\n        /* \"#utility.yul\":6997:7000   */\n      dup4\n        /* \"#utility.yul\":6938:7005   */\n      tag_368\n      jump\t// in\n    tag_367:\n        /* \"#utility.yul\":6931:7005   */\n      swap2\n      pop\n        /* \"#utility.yul\":7014:7107   */\n      tag_369\n        /* \"#utility.yul\":7103:7106   */\n      dup3\n        /* \"#utility.yul\":7014:7107   */\n      tag_370\n      jump\t// in\n    tag_369:\n        /* \"#utility.yul\":7132:7134   */\n      0x40\n        /* \"#utility.yul\":7127:7130   */\n      dup3\n        /* \"#utility.yul\":7123:7135   */\n      add\n        /* \"#utility.yul\":7116:7135   */\n      swap1\n      pop\n        /* \"#utility.yul\":6775:7141   */\n      swap2\n      swap1\n      pop\n      jump\t// out\n        /* \"#utility.yul\":7147:7513   */\n    tag_371:\n        /* \"#utility.yul\":7289:7292   */\n      0x00\n        /* \"#utility.yul\":7310:7377   */\n      tag_373\n        /* \"#utility.yul\":7374:7376   */\n      0x18\n        /* \"#utility.yul\":7369:7372   */\n      dup4\n        /* \"#utility.yul\":7310:7377   */\n      tag_368\n      jump\t// in\n    tag_373:\n        /* \"#utility.yul\":7303:7377   */\n      swap2\n      pop\n        /* \"#utility.yul\":7386:7479   */\n      tag_374\n        /* \"#utility.yul\":7475:7478   */\n      dup3\n        /* \"#utility.yul\":7386:7479   */\n      tag_375\n      jump\t// in\n    tag_374:\n        /* \"#utility.yul\":7504:7506   */\n      0x20\n        /* \"#utility.yul\":7499:7502   */\n      dup3\n        /* \"#utility.yul\":7495:7507   */\n      add\n        /* \"#utility.yul\":7488:7507   */\n      swap1\n      pop\n        /* \"#utility.yul\":7147:7513   */\n      swap2\n      swap1\n      pop\n      jump\t// out\n        /* \"#utility.yul\":7519:7885   */\n    tag_376:\n        /* \"#utility.yul\":7661:7664   */\n      0x00\n        /* \"#utility.yul\":7682:7749   */\n      tag_378\n        /* \"#utility.yul\":7746:7748   */\n      0x20\n        /* \"#utility.yul\":7741:7744   */\n      dup4\n        /* \"#utility.yul\":7682:7749   */\n      tag_368\n      jump\t// in\n    tag_378:\n        /* \"#utility.yul\":7675:7749   */\n      swap2\n      pop\n        /* \"#utility.yul\":7758:7851   */\n      tag_379\n        /* \"#utility.yul\":7847:7850   */\n      dup3\n        /* \"#utility.yul\":7758:7851   */\n      tag_380\n      jump\t// in\n    tag_379:\n        /* \"#utility.yul\":7876:7878   */\n      0x20\n        /* \"#utility.yul\":7871:7874   */\n      dup3\n        /* \"#utility.yul\":7867:7879   */\n      add\n        /* \"#utility.yul\":7860:7879   */\n      swap1\n      pop\n        /* \"#utility.yul\":7519:7885   */\n      swap2\n      swap1\n      pop\n      jump\t// out\n        /* \"#utility.yul\":7949:8996   */\n    tag_299:\n        /* \"#utility.yul\":8082:8086   */\n      0xa0\n        /* \"#utility.yul\":8077:8080   */\n      dup3\n        /* \"#utility.yul\":8073:8087   */\n      add\n        /* \"#utility.yul\":8177:8181   */\n      0x00\n        /* \"#utility.yul\":8170:8175   */\n      dup3\n        /* \"#utility.yul\":8166:8182   */\n      add\n        /* \"#utility.yul\":8160:8183   */\n      mload\n        /* \"#utility.yul\":8196:8259   */\n      tag_382\n        /* \"#utility.yul\":8253:8257   */\n      0x00\n        /* \"#utility.yul\":8248:8251   */\n      dup6\n        /* \"#utility.yul\":8244:8258   */\n      add\n        /* \"#utility.yul\":8230:8242   */\n      dup3\n        /* \"#utility.yul\":8196:8259   */\n      tag_303\n      jump\t// in\n    tag_382:\n        /* \"#utility.yul\":8097:8269   */\n      pop\n        /* \"#utility.yul\":8360:8364   */\n      0x20\n        /* \"#utility.yul\":8353:8358   */\n      dup3\n        /* \"#utility.yul\":8349:8365   */\n      add\n        /* \"#utility.yul\":8343:8366   */\n      mload\n        /* \"#utility.yul\":8379:8442   */\n      tag_383\n        /* \"#utility.yul\":8436:8440   */\n      0x20\n        /* \"#utility.yul\":8431:8434   */\n      dup6\n        /* \"#utility.yul\":8427:8441   */\n      add\n        /* \"#utility.yul\":8413:8425   */\n      dup3\n        /* \"#utility.yul\":8379:8442   */\n      tag_303\n      jump\t// in\n    tag_383:\n        /* \"#utility.yul\":8279:8452   */\n      pop\n        /* \"#utility.yul\":8536:8540   */\n      0x40\n        /* \"#utility.yul\":8529:8534   */\n      dup3\n        /* \"#utility.yul\":8525:8541   */\n      add\n        /* \"#utility.yul\":8519:8542   */\n      mload\n        /* \"#utility.yul\":8555:8618   */\n      tag_384\n        /* \"#utility.yul\":8612:8616   */\n      0x40\n        /* \"#utility.yul\":8607:8610   */\n      dup6\n        /* \"#utility.yul\":8603:8617   */\n      add\n        /* \"#utility.yul\":8589:8601   */\n      dup3\n        /* \"#utility.yul\":8555:8618   */\n      tag_303\n      jump\t// in\n    tag_384:\n        /* \"#utility.yul\":8462:8628   */\n      pop\n        /* \"#utility.yul\":8713:8717   */\n      0x60\n        /* \"#utility.yul\":8706:8711   */\n      dup3\n        /* \"#utility.yul\":8702:8718   */\n      add\n        /* \"#utility.yul\":8696:8719   */\n      mload\n        /* \"#utility.yul\":8732:8795   */\n      tag_385\n        /* \"#utility.yul\":8789:8793   */\n      0x60\n        /* \"#utility.yul\":8784:8787   */\n      dup6\n        /* \"#utility.yul\":8780:8794   */\n      add\n        /* \"#utility.yul\":8766:8778   */\n      dup3\n        /* \"#utility.yul\":8732:8795   */\n      tag_303\n      jump\t// in\n    tag_385:\n        /* \"#utility.yul\":8638:8805   */\n      pop\n        /* \"#utility.yul\":8897:8901   */\n      0x80\n        /* \"#utility.yul\":8890:8895   */\n      dup3\n        /* \"#utility.yul\":8886:8902   */\n      add\n        /* \"#utility.yul\":8880:8903   */\n      mload\n        /* \"#utility.yul\":8916:8979   */\n      tag_386\n        /* \"#utility.yul\":8973:8977   */\n      0x80\n        /* \"#utility.yul\":8968:8971   */\n      dup6\n        /* \"#utility.yul\":8964:8978   */\n      add\n        /* \"#utility.yul\":8950:8962   */\n      dup3\n        /* \"#utility.yul\":8916:8979   */\n      tag_295\n      jump\t// in\n    tag_386:\n        /* \"#utility.yul\":8815:8989   */\n      pop\n        /* \"#utility.yul\":8051:8996   */\n      pop\n        /* \"#utility.yul\":7949:8996   */\n      pop\n      pop\n      jump\t// out\n        /* \"#utility.yul\":9002:9110   */\n    tag_303:\n        /* \"#utility.yul\":9079:9103   */\n      tag_388\n        /* \"#utility.yul\":9097:9102   */\n      dup2\n        /* \"#utility.yul\":9079:9103   */\n      tag_389\n      jump\t// in\n    tag_388:\n        /* \"#utility.yul\":9074:9077   */\n      dup3\n        /* \"#utility.yul\":9067:9104   */\n      mstore\n        /* \"#utility.yul\":9002:9110   */\n      pop\n      pop\n      jump\t// out\n        /* \"#utility.yul\":9116:9234   */\n    tag_390:\n        /* \"#utility.yul\":9203:9227   */\n      tag_392\n        /* \"#utility.yul\":9221:9226   */\n      dup2\n        /* \"#utility.yul\":9203:9227   */\n      tag_389\n      jump\t// in\n    tag_392:\n        /* \"#utility.yul\":9198:9201   */\n      dup3\n        /* \"#utility.yul\":9191:9228   */\n      mstore\n        /* \"#utility.yul\":9116:9234   */\n      pop\n      pop\n      jump\t// out\n        /* \"#utility.yul\":9240:9397   */\n    tag_393:\n        /* \"#utility.yul\":9345:9390   */\n      tag_395\n        /* \"#utility.yul\":9365:9389   */\n      tag_396\n        /* \"#utility.yul\":9383:9388   */\n      dup3\n        /* \"#utility.yul\":9365:9389   */\n      tag_389\n      jump\t// in\n    tag_396:\n        /* \"#utility.yul\":9345:9390   */\n      tag_397\n      jump\t// in\n    tag_395:\n        /* \"#utility.yul\":9340:9343   */\n      dup3\n        /* \"#utility.yul\":9333:9391   */\n      mstore\n        /* \"#utility.yul\":9240:9397   */\n      pop\n      pop\n      jump\t// out\n        /* \"#utility.yul\":9403:10082   */\n    tag_247:\n        /* \"#utility.yul\":9599:9602   */\n      0x00\n        /* \"#utility.yul\":9614:9689   */\n      tag_399\n        /* \"#utility.yul\":9685:9688   */\n      dup3\n        /* \"#utility.yul\":9676:9682   */\n      dup8\n        /* \"#utility.yul\":9614:9689   */\n      tag_393\n      jump\t// in\n    tag_399:\n        /* \"#utility.yul\":9714:9716   */\n      0x20\n        /* \"#utility.yul\":9709:9712   */\n      dup3\n        /* \"#utility.yul\":9705:9717   */\n      add\n        /* \"#utility.yul\":9698:9717   */\n      swap2\n      pop\n        /* \"#utility.yul\":9727:9802   */\n      tag_400\n        /* \"#utility.yul\":9798:9801   */\n      dup3\n        /* \"#utility.yul\":9789:9795   */\n      dup7\n        /* \"#utility.yul\":9727:9802   */\n      tag_393\n      jump\t// in\n    tag_400:\n        /* \"#utility.yul\":9827:9829   */\n      0x20\n        /* \"#utility.yul\":9822:9825   */\n      dup3\n        /* \"#utility.yul\":9818:9830   */\n      add\n        /* \"#utility.yul\":9811:9830   */\n      swap2\n      pop\n        /* \"#utility.yul\":9840:9915   */\n      tag_401\n        /* \"#utility.yul\":9911:9914   */\n      dup3\n        /* \"#utility.yul\":9902:9908   */\n      dup6\n        /* \"#utility.yul\":9840:9915   */\n      tag_310\n      jump\t// in\n    tag_401:\n        /* \"#utility.yul\":9940:9942   */\n      0x14\n        /* \"#utility.yul\":9935:9938   */\n      dup3\n        /* \"#utility.yul\":9931:9943   */\n      add\n        /* \"#utility.yul\":9924:9943   */\n      swap2\n      pop\n        /* \"#utility.yul\":9953:10028   */\n      tag_402\n        /* \"#utility.yul\":10024:10027   */\n      dup3\n        /* \"#utility.yul\":10015:10021   */\n      dup5\n        /* \"#utility.yul\":9953:10028   */\n      tag_393\n      jump\t// in\n    tag_402:\n        /* \"#utility.yul\":10053:10055   */\n      0x20\n        /* \"#utility.yul\":10048:10051   */\n      dup3\n        /* \"#utility.yul\":10044:10056   */\n      add\n        /* \"#utility.yul\":10037:10056   */\n      swap2\n      pop\n        /* \"#utility.yul\":10073:10076   */\n      dup2\n        /* \"#utility.yul\":10066:10076   */\n      swap1\n      pop\n        /* \"#utility.yul\":9403:10082   */\n      swap6\n      swap5\n      pop\n      pop\n      pop\n      pop\n      pop\n      jump\t// out\n        /* \"#utility.yul\":10088:10310   */\n    tag_64:\n        /* \"#utility.yul\":10181:10185   */\n      0x00\n        /* \"#utility.yul\":10219:10221   */\n      0x20\n        /* \"#utility.yul\":10208:10217   */\n      dup3\n        /* \"#utility.yul\":10204:10222   */\n      add\n        /* \"#utility.yul\":10196:10222   */\n      swap1\n      pop\n        /* \"#utility.yul\":10232:10303   */\n      tag_404\n        /* \"#utility.yul\":10300:10301   */\n      0x00\n        /* \"#utility.yul\":10289:10298   */\n      dup4\n        /* \"#utility.yul\":10285:10302   */\n      add\n        /* \"#utility.yul\":10276:10282   */\n      dup5\n        /* \"#utility.yul\":10232:10303   */\n      tag_307\n      jump\t// in\n    tag_404:\n        /* \"#utility.yul\":10088:10310   */\n      swap3\n      swap2\n      pop\n      pop\n      jump\t// out\n        /* \"#utility.yul\":10316:10648   */\n    tag_168:\n        /* \"#utility.yul\":10437:10441   */\n      0x00\n        /* \"#utility.yul\":10475:10477   */\n      0x40\n        /* \"#utility.yul\":10464:10473   */\n      dup3\n        /* \"#utility.yul\":10460:10478   */\n      add\n        /* \"#utility.yul\":10452:10478   */\n      swap1\n      pop\n        /* \"#utility.yul\":10488:10559   */\n      tag_406\n        /* \"#utility.yul\":10556:10557   */\n      0x00\n        /* \"#utility.yul\":10545:10554   */\n      dup4\n        /* \"#utility.yul\":10541:10558   */\n      add\n        /* \"#utility.yul\":10532:10538   */\n      dup6\n        /* \"#utility.yul\":10488:10559   */\n      tag_307\n      jump\t// in\n    tag_406:\n        /* \"#utility.yul\":10569:10641   */\n      tag_407\n        /* \"#utility.yul\":10637:10639   */\n      0x20\n        /* \"#utility.yul\":10626:10635   */\n      dup4\n        /* \"#utility.yul\":10622:10640   */\n      add\n        /* \"#utility.yul\":10613:10619   */\n      dup5\n        /* \"#utility.yul\":10569:10641   */\n      tag_390\n      jump\t// in\n    tag_407:\n        /* \"#utility.yul\":10316:10648   */\n      swap4\n      swap3\n      pop\n      pop\n      pop\n      jump\t// out\n        /* \"#utility.yul\":10654:11288   */\n    tag_41:\n        /* \"#utility.yul\":10875:10879   */\n      0x00\n        /* \"#utility.yul\":10913:10915   */\n      0x40\n        /* \"#utility.yul\":10902:10911   */\n      dup3\n        /* \"#utility.yul\":10898:10916   */\n      add\n        /* \"#utility.yul\":10890:10916   */\n      swap1\n      pop\n        /* \"#utility.yul\":10962:10971   */\n      dup2\n        /* \"#utility.yul\":10956:10960   */\n      dup2\n        /* \"#utility.yul\":10952:10972   */\n      sub\n        /* \"#utility.yul\":10948:10949   */\n      0x00\n        /* \"#utility.yul\":10937:10946   */\n      dup4\n        /* \"#utility.yul\":10933:10950   */\n      add\n        /* \"#utility.yul\":10926:10973   */\n      mstore\n        /* \"#utility.yul\":10990:11098   */\n      tag_409\n        /* \"#utility.yul\":11093:11097   */\n      dup2\n        /* \"#utility.yul\":11084:11090   */\n      dup6\n        /* \"#utility.yul\":10990:11098   */\n      tag_315\n      jump\t// in\n    tag_409:\n        /* \"#utility.yul\":10982:11098   */\n      swap1\n      pop\n        /* \"#utility.yul\":11145:11154   */\n      dup2\n        /* \"#utility.yul\":11139:11143   */\n      dup2\n        /* \"#utility.yul\":11135:11155   */\n      sub\n        /* \"#utility.yul\":11130:11132   */\n      0x20\n        /* \"#utility.yul\":11119:11128   */\n      dup4\n        /* \"#utility.yul\":11115:11133   */\n      add\n        /* \"#utility.yul\":11108:11156   */\n      mstore\n        /* \"#utility.yul\":11173:11281   */\n      tag_410\n        /* \"#utility.yul\":11276:11280   */\n      dup2\n        /* \"#utility.yul\":11267:11273   */\n      dup5\n        /* \"#utility.yul\":11173:11281   */\n      tag_343\n      jump\t// in\n    tag_410:\n        /* \"#utility.yul\":11165:11281   */\n      swap1\n      pop\n        /* \"#utility.yul\":10654:11288   */\n      swap4\n      swap3\n      pop\n      pop\n      pop\n      jump\t// out\n        /* \"#utility.yul\":11294:11759   */\n    tag_91:\n        /* \"#utility.yul\":11483:11487   */\n      0x00\n        /* \"#utility.yul\":11521:11523   */\n      0x20\n        /* \"#utility.yul\":11510:11519   */\n      dup3\n        /* \"#utility.yul\":11506:11524   */\n      add\n        /* \"#utility.yul\":11498:11524   */\n      swap1\n      pop\n        /* \"#utility.yul\":11570:11579   */\n      dup2\n        /* \"#utility.yul\":11564:11568   */\n      dup2\n        /* \"#utility.yul\":11560:11580   */\n      sub\n        /* \"#utility.yul\":11556:11557   */\n      0x00\n        /* \"#utility.yul\":11545:11554   */\n      dup4\n        /* \"#utility.yul\":11541:11558   */\n      add\n        /* \"#utility.yul\":11534:11581   */\n      mstore\n        /* \"#utility.yul\":11598:11752   */\n      tag_412\n        /* \"#utility.yul\":11747:11751   */\n      dup2\n        /* \"#utility.yul\":11738:11744   */\n      dup5\n        /* \"#utility.yul\":11598:11752   */\n      tag_329\n      jump\t// in\n    tag_412:\n        /* \"#utility.yul\":11590:11752   */\n      swap1\n      pop\n        /* \"#utility.yul\":11294:11759   */\n      swap3\n      swap2\n      pop\n      pop\n      jump\t// out\n        /* \"#utility.yul\":11765:11975   */\n    tag_53:\n        /* \"#utility.yul\":11852:11856   */\n      0x00\n        /* \"#utility.yul\":11890:11892   */\n      0x20\n        /* \"#utility.yul\":11879:11888   */\n      dup3\n        /* \"#utility.yul\":11875:11893   */\n      add\n        /* \"#utility.yul\":11867:11893   */\n      swap1\n      pop\n        /* \"#utility.yul\":11903:11968   */\n      tag_414\n        /* \"#utility.yul\":11965:11966   */\n      0x00\n        /* \"#utility.yul\":11954:11963   */\n      dup4\n        /* \"#utility.yul\":11950:11967   */\n      add\n        /* \"#utility.yul\":11941:11947   */\n      dup5\n        /* \"#utility.yul\":11903:11968   */\n      tag_357\n      jump\t// in\n    tag_414:\n        /* \"#utility.yul\":11765:11975   */\n      swap3\n      swap2\n      pop\n      pop\n      jump\t// out\n        /* \"#utility.yul\":11981:12231   */\n    tag_68:\n        /* \"#utility.yul\":12088:12092   */\n      0x00\n        /* \"#utility.yul\":12126:12128   */\n      0x20\n        /* \"#utility.yul\":12115:12124   */\n      dup3\n        /* \"#utility.yul\":12111:12129   */\n      add\n        /* \"#utility.yul\":12103:12129   */\n      swap1\n      pop\n        /* \"#utility.yul\":12139:12224   */\n      tag_416\n        /* \"#utility.yul\":12221:12222   */\n      0x00\n        /* \"#utility.yul\":12210:12219   */\n      dup4\n        /* \"#utility.yul\":12206:12223   */\n      add\n        /* \"#utility.yul\":12197:12203   */\n      dup5\n        /* \"#utility.yul\":12139:12224   */\n      tag_361\n      jump\t// in\n    tag_416:\n        /* \"#utility.yul\":11981:12231   */\n      swap3\n      swap2\n      pop\n      pop\n      jump\t// out\n        /* \"#utility.yul\":12237:12656   */\n    tag_235:\n        /* \"#utility.yul\":12403:12407   */\n      0x00\n        /* \"#utility.yul\":12441:12443   */\n      0x20\n        /* \"#utility.yul\":12430:12439   */\n      dup3\n        /* \"#utility.yul\":12426:12444   */\n      add\n        /* \"#utility.yul\":12418:12444   */\n      swap1\n      pop\n        /* \"#utility.yul\":12490:12499   */\n      dup2\n        /* \"#utility.yul\":12484:12488   */\n      dup2\n        /* \"#utility.yul\":12480:12500   */\n      sub\n        /* \"#utility.yul\":12476:12477   */\n      0x00\n        /* \"#utility.yul\":12465:12474   */\n      dup4\n        /* \"#utility.yul\":12461:12478   */\n      add\n        /* \"#utility.yul\":12454:12501   */\n      mstore\n        /* \"#utility.yul\":12518:12649   */\n      tag_418\n        /* \"#utility.yul\":12644:12648   */\n      dup2\n        /* \"#utility.yul\":12518:12649   */\n      tag_365\n      jump\t// in\n    tag_418:\n        /* \"#utility.yul\":12510:12649   */\n      swap1\n      pop\n        /* \"#utility.yul\":12237:12656   */\n      swap2\n      swap1\n      pop\n      jump\t// out\n        /* \"#utility.yul\":12662:13081   */\n    tag_160:\n        /* \"#utility.yul\":12828:12832   */\n      0x00\n        /* \"#utility.yul\":12866:12868   */\n      0x20\n        /* \"#utility.yul\":12855:12864   */\n      dup3\n        /* \"#utility.yul\":12851:12869   */\n      add\n        /* \"#utility.yul\":12843:12869   */\n      swap1\n      pop\n        /* \"#utility.yul\":12915:12924   */\n      dup2\n        /* \"#utility.yul\":12909:12913   */\n      dup2\n        /* \"#utility.yul\":12905:12925   */\n      sub\n        /* \"#utility.yul\":12901:12902   */\n      0x00\n        /* \"#utility.yul\":12890:12899   */\n      dup4\n        /* \"#utility.yul\":12886:12903   */\n      add\n        /* \"#utility.yul\":12879:12926   */\n      mstore\n        /* \"#utility.yul\":12943:13074   */\n      tag_420\n        /* \"#utility.yul\":13069:13073   */\n      dup2\n        /* \"#utility.yul\":12943:13074   */\n      tag_371\n      jump\t// in\n    tag_420:\n        /* \"#utility.yul\":12935:13074   */\n      swap1\n      pop\n        /* \"#utility.yul\":12662:13081   */\n      swap2\n      swap1\n      pop\n      jump\t// out\n        /* \"#utility.yul\":13087:13506   */\n    tag_155:\n        /* \"#utility.yul\":13253:13257   */\n      0x00\n        /* \"#utility.yul\":13291:13293   */\n      0x20\n        /* \"#utility.yul\":13280:13289   */\n      dup3\n        /* \"#utility.yul\":13276:13294   */\n      add\n        /* \"#utility.yul\":13268:13294   */\n      swap1\n      pop\n        /* \"#utility.yul\":13340:13349   */\n      dup2\n        /* \"#utility.yul\":13334:13338   */\n      dup2\n        /* \"#utility.yul\":13330:13350   */\n      sub\n        /* \"#utility.yul\":13326:13327   */\n      0x00\n        /* \"#utility.yul\":13315:13324   */\n      dup4\n        /* \"#utility.yul\":13311:13328   */\n      add\n        /* \"#utility.yul\":13304:13351   */\n      mstore\n        /* \"#utility.yul\":13368:13499   */\n      tag_422\n        /* \"#utility.yul\":13494:13498   */\n      dup2\n        /* \"#utility.yul\":13368:13499   */\n      tag_376\n      jump\t// in\n    tag_422:\n        /* \"#utility.yul\":13360:13499   */\n      swap1\n      pop\n        /* \"#utility.yul\":13087:13506   */\n      swap2\n      swap1\n      pop\n      jump\t// out\n        /* \"#utility.yul\":13512:13734   */\n    tag_31:\n        /* \"#utility.yul\":13605:13609   */\n      0x00\n        /* \"#utility.yul\":13643:13645   */\n      0x20\n        /* \"#utility.yul\":13632:13641   */\n      dup3\n        /* \"#utility.yul\":13628:13646   */\n      add\n        /* \"#utility.yul\":13620:13646   */\n      swap1\n      pop\n        /* \"#utility.yul\":13656:13727   */\n      tag_424\n        /* \"#utility.yul\":13724:13725   */\n      0x00\n        /* \"#utility.yul\":13713:13722   */\n      dup4\n        /* \"#utility.yul\":13709:13726   */\n      add\n        /* \"#utility.yul\":13700:13706   */\n      dup5\n        /* \"#utility.yul\":13656:13727   */\n      tag_390\n      jump\t// in\n    tag_424:\n        /* \"#utility.yul\":13512:13734   */\n      swap3\n      swap2\n      pop\n      pop\n      jump\t// out\n        /* \"#utility.yul\":13740:14404   */\n    tag_81:\n        /* \"#utility.yul\":13945:13949   */\n      0x00\n        /* \"#utility.yul\":13983:13986   */\n      0xa0\n        /* \"#utility.yul\":13972:13981   */\n      dup3\n        /* \"#utility.yul\":13968:13987   */\n      add\n        /* \"#utility.yul\":13960:13987   */\n      swap1\n      pop\n        /* \"#utility.yul\":13997:14068   */\n      tag_426\n        /* \"#utility.yul\":14065:14066   */\n      0x00\n        /* \"#utility.yul\":14054:14063   */\n      dup4\n        /* \"#utility.yul\":14050:14067   */\n      add\n        /* \"#utility.yul\":14041:14047   */\n      dup9\n        /* \"#utility.yul\":13997:14068   */\n      tag_390\n      jump\t// in\n    tag_426:\n        /* \"#utility.yul\":14078:14150   */\n      tag_427\n        /* \"#utility.yul\":14146:14148   */\n      0x20\n        /* \"#utility.yul\":14135:14144   */\n      dup4\n        /* \"#utility.yul\":14131:14149   */\n      add\n        /* \"#utility.yul\":14122:14128   */\n      dup8\n        /* \"#utility.yul\":14078:14150   */\n      tag_390\n      jump\t// in\n    tag_427:\n        /* \"#utility.yul\":14160:14232   */\n      tag_428\n        /* \"#utility.yul\":14228:14230   */\n      0x40\n        /* \"#utility.yul\":14217:14226   */\n      dup4\n        /* \"#utility.yul\":14213:14231   */\n      add\n        /* \"#utility.yul\":14204:14210   */\n      dup7\n        /* \"#utility.yul\":14160:14232   */\n      tag_390\n      jump\t// in\n    tag_428:\n        /* \"#utility.yul\":14242:14314   */\n      tag_429\n        /* \"#utility.yul\":14310:14312   */\n      0x60\n        /* \"#utility.yul\":14299:14308   */\n      dup4\n        /* \"#utility.yul\":14295:14313   */\n      add\n        /* \"#utility.yul\":14286:14292   */\n      dup6\n        /* \"#utility.yul\":14242:14314   */\n      tag_390\n      jump\t// in\n    tag_429:\n        /* \"#utility.yul\":14324:14397   */\n      tag_430\n        /* \"#utility.yul\":14392:14395   */\n      0x80\n        /* \"#utility.yul\":14381:14390   */\n      dup4\n        /* \"#utility.yul\":14377:14396   */\n      add\n        /* \"#utility.yul\":14368:14374   */\n      dup5\n        /* \"#utility.yul\":14324:14397   */\n      tag_307\n      jump\t// in\n    tag_430:\n        /* \"#utility.yul\":13740:14404   */\n      swap7\n      swap6\n      pop\n      pop\n      pop\n      pop\n      pop\n      pop\n      jump\t// out\n        /* \"#utility.yul\":14491:14623   */\n    tag_322:\n        /* \"#utility.yul\":14558:14562   */\n      0x00\n        /* \"#utility.yul\":14581:14584   */\n      dup2\n        /* \"#utility.yul\":14573:14584   */\n      swap1\n      pop\n        /* \"#utility.yul\":14611:14615   */\n      0x20\n        /* \"#utility.yul\":14606:14609   */\n      dup3\n        /* \"#utility.yul\":14602:14616   */\n      add\n        /* \"#utility.yul\":14594:14616   */\n      swap1\n      pop\n        /* \"#utility.yul\":14491:14623   */\n      swap2\n      swap1\n      pop\n      jump\t// out\n        /* \"#utility.yul\":14629:14784   */\n    tag_336:\n        /* \"#utility.yul\":14719:14723   */\n      0x00\n        /* \"#utility.yul\":14742:14745   */\n      dup2\n        /* \"#utility.yul\":14734:14745   */\n      swap1\n      pop\n        /* \"#utility.yul\":14772:14776   */\n      0x20\n        /* \"#utility.yul\":14767:14770   */\n      dup3\n        /* \"#utility.yul\":14763:14777   */\n      add\n        /* \"#utility.yul\":14755:14777   */\n      swap1\n      pop\n        /* \"#utility.yul\":14629:14784   */\n      swap2\n      swap1\n      pop\n      jump\t// out\n        /* \"#utility.yul\":14790:14922   */\n    tag_350:\n        /* \"#utility.yul\":14857:14861   */\n      0x00\n        /* \"#utility.yul\":14880:14883   */\n      dup2\n        /* \"#utility.yul\":14872:14883   */\n      swap1\n      pop\n        /* \"#utility.yul\":14910:14914   */\n      0x20\n        /* \"#utility.yul\":14905:14908   */\n      dup3\n        /* \"#utility.yul\":14901:14915   */\n      add\n        /* \"#utility.yul\":14893:14915   */\n      swap1\n      pop\n        /* \"#utility.yul\":14790:14922   */\n      swap2\n      swap1\n      pop\n      jump\t// out\n        /* \"#utility.yul\":14928:15042   */\n    tag_318:\n        /* \"#utility.yul\":14995:15001   */\n      0x00\n        /* \"#utility.yul\":15029:15034   */\n      dup2\n        /* \"#utility.yul\":15023:15035   */\n      mload\n        /* \"#utility.yul\":15013:15035   */\n      swap1\n      pop\n        /* \"#utility.yul\":14928:15042   */\n      swap2\n      swap1\n      pop\n      jump\t// out\n        /* \"#utility.yul\":15048:15185   */\n    tag_332:\n        /* \"#utility.yul\":15138:15144   */\n      0x00\n        /* \"#utility.yul\":15172:15177   */\n      dup2\n        /* \"#utility.yul\":15166:15178   */\n      mload\n        /* \"#utility.yul\":15156:15178   */\n      swap1\n      pop\n        /* \"#utility.yul\":15048:15185   */\n      swap2\n      swap1\n      pop\n      jump\t// out\n        /* \"#utility.yul\":15191:15305   */\n    tag_346:\n        /* \"#utility.yul\":15258:15264   */\n      0x00\n        /* \"#utility.yul\":15292:15297   */\n      dup2\n        /* \"#utility.yul\":15286:15298   */\n      mload\n        /* \"#utility.yul\":15276:15298   */\n      swap1\n      pop\n        /* \"#utility.yul\":15191:15305   */\n      swap2\n      swap1\n      pop\n      jump\t// out\n        /* \"#utility.yul\":15311:15424   */\n    tag_328:\n        /* \"#utility.yul\":15381:15385   */\n      0x00\n        /* \"#utility.yul\":15413:15417   */\n      0x20\n        /* \"#utility.yul\":15408:15411   */\n      dup3\n        /* \"#utility.yul\":15404:15418   */\n      add\n        /* \"#utility.yul\":15396:15418   */\n      swap1\n      pop\n        /* \"#utility.yul\":15311:15424   */\n      swap2\n      swap1\n      pop\n      jump\t// out\n        /* \"#utility.yul\":15430:15566   */\n    tag_342:\n        /* \"#utility.yul\":15523:15527   */\n      0x00\n        /* \"#utility.yul\":15555:15559   */\n      0x20\n        /* \"#utility.yul\":15550:15553   */\n      dup3\n        /* \"#utility.yul\":15546:15560   */\n      add\n        /* \"#utility.yul\":15538:15560   */\n      swap1\n      pop\n        /* \"#utility.yul\":15430:15566   */\n      swap2\n      swap1\n      pop\n      jump\t// out\n        /* \"#utility.yul\":15572:15685   */\n    tag_356:\n        /* \"#utility.yul\":15642:15646   */\n      0x00\n        /* \"#utility.yul\":15674:15678   */\n      0x20\n        /* \"#utility.yul\":15669:15672   */\n      dup3\n        /* \"#utility.yul\":15665:15679   */\n      add\n        /* \"#utility.yul\":15657:15679   */\n      swap1\n      pop\n        /* \"#utility.yul\":15572:15685   */\n      swap2\n      swap1\n      pop\n      jump\t// out\n        /* \"#utility.yul\":15691:15875   */\n    tag_320:\n        /* \"#utility.yul\":15790:15801   */\n      0x00\n        /* \"#utility.yul\":15824:15830   */\n      dup3\n        /* \"#utility.yul\":15819:15822   */\n      dup3\n        /* \"#utility.yul\":15812:15831   */\n      mstore\n        /* \"#utility.yul\":15864:15868   */\n      0x20\n        /* \"#utility.yul\":15859:15862   */\n      dup3\n        /* \"#utility.yul\":15855:15869   */\n      add\n        /* \"#utility.yul\":15840:15869   */\n      swap1\n      pop\n        /* \"#utility.yul\":15691:15875   */\n      swap3\n      swap2\n      pop\n      pop\n      jump\t// out\n        /* \"#utility.yul\":15881:16088   */\n    tag_334:\n        /* \"#utility.yul\":16003:16014   */\n      0x00\n        /* \"#utility.yul\":16037:16043   */\n      dup3\n        /* \"#utility.yul\":16032:16035   */\n      dup3\n        /* \"#utility.yul\":16025:16044   */\n      mstore\n        /* \"#utility.yul\":16077:16081   */\n      0x20\n        /* \"#utility.yul\":16072:16075   */\n      dup3\n        /* \"#utility.yul\":16068:16082   */\n      add\n        /* \"#utility.yul\":16053:16082   */\n      swap1\n      pop\n        /* \"#utility.yul\":15881:16088   */\n      swap3\n      swap2\n      pop\n      pop\n      jump\t// out\n        /* \"#utility.yul\":16094:16278   */\n    tag_348:\n        /* \"#utility.yul\":16193:16204   */\n      0x00\n        /* \"#utility.yul\":16227:16233   */\n      dup3\n        /* \"#utility.yul\":16222:16225   */\n      dup3\n        /* \"#utility.yul\":16215:16234   */\n      mstore\n        /* \"#utility.yul\":16267:16271   */\n      0x20\n        /* \"#utility.yul\":16262:16265   */\n      dup3\n        /* \"#utility.yul\":16258:16272   */\n      add\n        /* \"#utility.yul\":16243:16272   */\n      swap1\n      pop\n        /* \"#utility.yul\":16094:16278   */\n      swap3\n      swap2\n      pop\n      pop\n      jump\t// out\n        /* \"#utility.yul\":16284:16453   */\n    tag_368:\n        /* \"#utility.yul\":16368:16379   */\n      0x00\n        /* \"#utility.yul\":16402:16408   */\n      dup3\n        /* \"#utility.yul\":16397:16400   */\n      dup3\n        /* \"#utility.yul\":16390:16409   */\n      mstore\n        /* \"#utility.yul\":16442:16446   */\n      0x20\n        /* \"#utility.yul\":16437:16440   */\n      dup3\n        /* \"#utility.yul\":16433:16447   */\n      add\n        /* \"#utility.yul\":16418:16447   */\n      swap1\n      pop\n        /* \"#utility.yul\":16284:16453   */\n      swap3\n      swap2\n      pop\n      pop\n      jump\t// out\n        /* \"#utility.yul\":16459:16764   */\n    tag_142:\n        /* \"#utility.yul\":16499:16502   */\n      0x00\n        /* \"#utility.yul\":16518:16538   */\n      tag_447\n        /* \"#utility.yul\":16536:16537   */\n      dup3\n        /* \"#utility.yul\":16518:16538   */\n      tag_389\n      jump\t// in\n    tag_447:\n        /* \"#utility.yul\":16513:16538   */\n      swap2\n      pop\n        /* \"#utility.yul\":16552:16572   */\n      tag_448\n        /* \"#utility.yul\":16570:16571   */\n      dup4\n        /* \"#utility.yul\":16552:16572   */\n      tag_389\n      jump\t// in\n    tag_448:\n        /* \"#utility.yul\":16547:16572   */\n      swap3\n      pop\n        /* \"#utility.yul\":16706:16707   */\n      dup3\n        /* \"#utility.yul\":16638:16704   */\n      0xffffffffffffffffffffffffffffffffffffffffffffffffffffffffffffffff\n        /* \"#utility.yul\":16634:16708   */\n      sub\n        /* \"#utility.yul\":16631:16632   */\n      dup3\n        /* \"#utility.yul\":16628:16709   */\n      gt\n        /* \"#utility.yul\":16625:16732   */\n      iszero\n      tag_449\n      jumpi\n        /* \"#utility.yul\":16712:16730   */\n      tag_450\n      tag_451\n      jump\t// in\n    tag_450:\n        /* \"#utility.yul\":16625:16732   */\n    tag_449:\n        /* \"#utility.yul\":16756:16757   */\n      dup3\n        /* \"#utility.yul\":16753:16754   */\n      dup3\n        /* \"#utility.yul\":16749:16758   */\n      add\n        /* \"#utility.yul\":16742:16758   */\n      swap1\n      pop\n        /* \"#utility.yul\":16459:16764   */\n      swap3\n      swap2\n      pop\n      pop\n      jump\t// out\n        /* \"#utility.yul\":16770:16961   */\n    tag_194:\n        /* \"#utility.yul\":16810:16814   */\n      0x00\n        /* \"#utility.yul\":16830:16850   */\n      tag_453\n        /* \"#utility.yul\":16848:16849   */\n      dup3\n        /* \"#utility.yul\":16830:16850   */\n      tag_389\n      jump\t// in\n    tag_453:\n        /* \"#utility.yul\":16825:16850   */\n      swap2\n      pop\n        /* \"#utility.yul\":16864:16884   */\n      tag_454\n        /* \"#utility.yul\":16882:16883   */\n      dup4\n        /* \"#utility.yul\":16864:16884   */\n      tag_389\n      jump\t// in\n    tag_454:\n        /* \"#utility.yul\":16859:16884   */\n      swap3\n      pop\n        /* \"#utility.yul\":16903:16904   */\n      dup3\n        /* \"#utility.yul\":16900:16901   */\n      dup3\n        /* \"#utility.yul\":16897:16905   */\n      lt\n        /* \"#utility.yul\":16894:16928   */\n      iszero\n      tag_455\n      jumpi\n        /* \"#utility.yul\":16908:16926   */\n      tag_456\n      tag_451\n      jump\t// in\n    tag_456:\n        /* \"#utility.yul\":16894:16928   */\n    tag_455:\n        /* \"#utility.yul\":16953:16954   */\n      dup3\n        /* \"#utility.yul\":16950:16951   */\n      dup3\n        /* \"#utility.yul\":16946:16955   */\n      sub\n        /* \"#utility.yul\":16938:16955   */\n      swap1\n      pop\n        /* \"#utility.yul\":16770:16961   */\n      swap3\n      swap2\n      pop\n      pop\n      jump\t// out\n        /* \"#utility.yul\":16967:17063   */\n    tag_306:\n        /* \"#utility.yul\":17004:17011   */\n      0x00\n        /* \"#utility.yul\":17033:17057   */\n      tag_458\n        /* \"#utility.yul\":17051:17056   */\n      dup3\n        /* \"#utility.yul\":17033:17057   */\n      tag_459\n      jump\t// in\n    tag_458:\n        /* \"#utility.yul\":17022:17057   */\n      swap1\n      pop\n        /* \"#utility.yul\":16967:17063   */\n      swap2\n      swap1\n      pop\n      jump\t// out\n        /* \"#utility.yul\":17069:17159   */\n    tag_360:\n        /* \"#utility.yul\":17103:17110   */\n      0x00\n        /* \"#utility.yul\":17146:17151   */\n      dup2\n        /* \"#utility.yul\":17139:17152   */\n      iszero\n        /* \"#utility.yul\":17132:17153   */\n      iszero\n        /* \"#utility.yul\":17121:17153   */\n      swap1\n      pop\n        /* \"#utility.yul\":17069:17159   */\n      swap2\n      swap1\n      pop\n      jump\t// out\n        /* \"#utility.yul\":17165:17291   */\n    tag_459:\n        /* \"#utility.yul\":17202:17209   */\n      0x00\n        /* \"#utility.yul\":17242:17284   */\n      0xffffffffffffffffffffffffffffffffffffffff\n        /* \"#utility.yul\":17235:17240   */\n      dup3\n        /* \"#utility.yul\":17231:17285   */\n      and\n        /* \"#utility.yul\":17220:17285   */\n      swap1\n      pop\n        /* \"#utility.yul\":17165:17291   */\n      swap2\n      swap1\n      pop\n      jump\t// out\n        /* \"#utility.yul\":17297:17374   */\n    tag_389:\n        /* \"#utility.yul\":17334:17341   */\n      0x00\n        /* \"#utility.yul\":17363:17368   */\n      dup2\n        /* \"#utility.yul\":17352:17368   */\n      swap1\n      pop\n        /* \"#utility.yul\":17297:17374   */\n      swap2\n      swap1\n      pop\n      jump\t// out\n        /* \"#utility.yul\":17380:17520   */\n    tag_364:\n        /* \"#utility.yul\":17444:17453   */\n      0x00\n        /* \"#utility.yul\":17477:17514   */\n      tag_464\n        /* \"#utility.yul\":17508:17513   */\n      dup3\n        /* \"#utility.yul\":17477:17514   */\n      tag_465\n      jump\t// in\n    tag_464:\n        /* \"#utility.yul\":17464:17514   */\n      swap1\n      pop\n        /* \"#utility.yul\":17380:17520   */\n      swap2\n      swap1\n      pop\n      jump\t// out\n        /* \"#utility.yul\":17526:17652   */\n    tag_465:\n        /* \"#utility.yul\":17576:17585   */\n      0x00\n        /* \"#utility.yul\":17609:17646   */\n      tag_467\n        /* \"#utility.yul\":17640:17645   */\n      dup3\n        /* \"#utility.yul\":17609:17646   */\n      tag_468\n      jump\t// in\n    tag_467:\n        /* \"#utility.yul\":17596:17646   */\n      swap1\n      pop\n        /* \"#utility.yul\":17526:17652   */\n      swap2\n      swap1\n      pop\n      jump\t// out\n        /* \"#utility.yul\":17658:17771   */\n    tag_468:\n        /* \"#utility.yul\":17708:17717   */\n      0x00\n        /* \"#utility.yul\":17741:17765   */\n      tag_470\n        /* \"#utility.yul\":17759:17764   */\n      dup3\n        /* \"#utility.yul\":17741:17765   */\n      tag_459\n      jump\t// in\n    tag_470:\n        /* \"#utility.yul\":17728:17765   */\n      swap1\n      pop\n        /* \"#utility.yul\":17658:17771   */\n      swap2\n      swap1\n      pop\n      jump\t// out\n        /* \"#utility.yul\":17777:18010   */\n    tag_113:\n        /* \"#utility.yul\":17816:17819   */\n      0x00\n        /* \"#utility.yul\":17839:17863   */\n      tag_472\n        /* \"#utility.yul\":17857:17862   */\n      dup3\n        /* \"#utility.yul\":17839:17863   */\n      tag_389\n      jump\t// in\n    tag_472:\n        /* \"#utility.yul\":17830:17863   */\n      swap2\n      pop\n        /* \"#utility.yul\":17885:17951   */\n      0xffffffffffffffffffffffffffffffffffffffffffffffffffffffffffffffff\n        /* \"#utility.yul\":17878:17883   */\n      dup3\n        /* \"#utility.yul\":17875:17952   */\n      eq\n        /* \"#utility.yul\":17872:17975   */\n      iszero\n      tag_473\n      jumpi\n        /* \"#utility.yul\":17955:17973   */\n      tag_474\n      tag_451\n      jump\t// in\n    tag_474:\n        /* \"#utility.yul\":17872:17975   */\n    tag_473:\n        /* \"#utility.yul\":18002:18003   */\n      0x01\n        /* \"#utility.yul\":17995:18000   */\n      dup3\n        /* \"#utility.yul\":17991:18004   */\n      add\n        /* \"#utility.yul\":17984:18004   */\n      swap1\n      pop\n        /* \"#utility.yul\":17777:18010   */\n      swap2\n      swap1\n      pop\n      jump\t// out\n        /* \"#utility.yul\":18016:18116   */\n    tag_314:\n        /* \"#utility.yul\":18055:18062   */\n      0x00\n        /* \"#utility.yul\":18084:18110   */\n      tag_476\n        /* \"#utility.yul\":18104:18109   */\n      dup3\n        /* \"#utility.yul\":18084:18110   */\n      tag_477\n      jump\t// in\n    tag_476:\n        /* \"#utility.yul\":18073:18110   */\n      swap1\n      pop\n        /* \"#utility.yul\":18016:18116   */\n      swap2\n      swap1\n      pop\n      jump\t// out\n        /* \"#utility.yul\":18122:18216   */\n    tag_477:\n        /* \"#utility.yul\":18161:18168   */\n      0x00\n        /* \"#utility.yul\":18190:18210   */\n      tag_479\n        /* \"#utility.yul\":18204:18209   */\n      dup3\n        /* \"#utility.yul\":18190:18210   */\n      tag_480\n      jump\t// in\n    tag_479:\n        /* \"#utility.yul\":18179:18210   */\n      swap1\n      pop\n        /* \"#utility.yul\":18122:18216   */\n      swap2\n      swap1\n      pop\n      jump\t// out\n        /* \"#utility.yul\":18222:18301   */\n    tag_397:\n        /* \"#utility.yul\":18261:18268   */\n      0x00\n        /* \"#utility.yul\":18290:18295   */\n      dup2\n        /* \"#utility.yul\":18279:18295   */\n      swap1\n      pop\n        /* \"#utility.yul\":18222:18301   */\n      swap2\n      swap1\n      pop\n      jump\t// out\n        /* \"#utility.yul\":18307:18483   */\n    tag_164:\n        /* \"#utility.yul\":18339:18340   */\n      0x00\n        /* \"#utility.yul\":18356:18376   */\n      tag_483\n        /* \"#utility.yul\":18374:18375   */\n      dup3\n        /* \"#utility.yul\":18356:18376   */\n      tag_389\n      jump\t// in\n    tag_483:\n        /* \"#utility.yul\":18351:18376   */\n      swap2\n      pop\n        /* \"#utility.yul\":18390:18410   */\n      tag_484\n        /* \"#utility.yul\":18408:18409   */\n      dup4\n        /* \"#utility.yul\":18390:18410   */\n      tag_389\n      jump\t// in\n    tag_484:\n        /* \"#utility.yul\":18385:18410   */\n      swap3\n      pop\n        /* \"#utility.yul\":18429:18430   */\n      dup3\n        /* \"#utility.yul\":18419:18454   */\n      tag_485\n      jumpi\n        /* \"#utility.yul\":18434:18452   */\n      tag_486\n      tag_487\n      jump\t// in\n    tag_486:\n        /* \"#utility.yul\":18419:18454   */\n    tag_485:\n        /* \"#utility.yul\":18475:18476   */\n      dup3\n        /* \"#utility.yul\":18472:18473   */\n      dup3\n        /* \"#utility.yul\":18468:18477   */\n      mod\n        /* \"#utility.yul\":18463:18477   */\n      swap1\n      pop\n        /* \"#utility.yul\":18307:18483   */\n      swap3\n      swap2\n      pop\n      pop\n      jump\t// out\n        /* \"#utility.yul\":18489:18669   */\n    tag_451:\n        /* \"#utility.yul\":18537:18614   */\n      0x4e487b7100000000000000000000000000000000000000000000000000000000\n        /* \"#utility.yul\":18534:18535   */\n      0x00\n        /* \"#utility.yul\":18527:18615   */\n      mstore\n        /* \"#utility.yul\":18634:18638   */\n      0x11\n        /* \"#utility.yul\":18631:18632   */\n      0x04\n        /* \"#utility.yul\":18624:18639   */\n      mstore\n        /* \"#utility.yul\":18658:18662   */\n      0x24\n        /* \"#utility.yul\":18655:18656   */\n      0x00\n        /* \"#utility.yul\":18648:18663   */\n      revert\n        /* \"#utility.yul\":18675:18855   */\n    tag_487:\n        /* \"#utility.yul\":18723:18800   */\n      0x4e487b7100000000000000000000000000000000000000000000000000000000\n        /* \"#utility.yul\":18720:18721   */\n      0x00\n        /* \"#utility.yul\":18713:18801   */\n      mstore\n        /* \"#utility.yul\":18820:18824   */\n      0x12\n        /* \"#utility.yul\":18817:18818   */\n      0x04\n        /* \"#utility.yul\":18810:18825   */\n      mstore\n        /* \"#utility.yul\":18844:18848   */\n      0x24\n        /* \"#utility.yul\":18841:18842   */\n      0x00\n        /* \"#utility.yul\":18834:18849   */\n      revert\n        /* \"#utility.yul\":18861:19041   */\n    tag_201:\n        /* \"#utility.yul\":18909:18986   */\n      0x4e487b7100000000000000000000000000000000000000000000000000000000\n        /* \"#utility.yul\":18906:18907   */\n      0x00\n        /* \"#utility.yul\":18899:18987   */\n      mstore\n        /* \"#utility.yul\":19006:19010   */\n      0x31\n        /* \"#utility.yul\":19003:19004   */\n      0x04\n        /* \"#utility.yul\":18996:19011   */\n      mstore\n        /* \"#utility.yul\":19030:19034   */\n      0x24\n        /* \"#utility.yul\":19027:19028   */\n      0x00\n        /* \"#utility.yul\":19020:19035   */\n      revert\n        /* \"#utility.yul\":19047:19227   */\n    tag_109:\n        /* \"#utility.yul\":19095:19172   */\n      0x4e487b7100000000000000000000000000000000000000000000000000000000\n        /* \"#utility.yul\":19092:19093   */\n      0x00\n        /* \"#utility.yul\":19085:19173   */\n      mstore\n        /* \"#utility.yul\":19192:19196   */\n      0x32\n        /* \"#utility.yul\":19189:19190   */\n      0x04\n        /* \"#utility.yul\":19182:19197   */\n      mstore\n        /* \"#utility.yul\":19216:19220   */\n      0x24\n        /* \"#utility.yul\":19213:19214   */\n      0x00\n        /* \"#utility.yul\":19206:19221   */\n      revert\n        /* \"#utility.yul\":19233:19413   */\n    tag_119:\n        /* \"#utility.yul\":19281:19358   */\n      0x4e487b7100000000000000000000000000000000000000000000000000000000\n        /* \"#utility.yul\":19278:19279   */\n      0x00\n        /* \"#utility.yul\":19271:19359   */\n      mstore\n        /* \"#utility.yul\":19378:19382   */\n      0x41\n        /* \"#utility.yul\":19375:19376   */\n      0x04\n        /* \"#utility.yul\":19368:19383   */\n      mstore\n        /* \"#utility.yul\":19402:19406   */\n      0x24\n        /* \"#utility.yul\":19399:19400   */\n      0x00\n        /* \"#utility.yul\":19392:19407   */\n      revert\n        /* \"#utility.yul\":19542:19659   */\n    tag_268:\n        /* \"#utility.yul\":19651:19652   */\n      0x00\n        /* \"#utility.yul\":19648:19649   */\n      dup1\n        /* \"#utility.yul\":19641:19653   */\n      revert\n        /* \"#utility.yul\":19665:19759   */\n    tag_480:\n        /* \"#utility.yul\":19698:19706   */\n      0x00\n        /* \"#utility.yul\":19746:19751   */\n      dup2\n        /* \"#utility.yul\":19742:19744   */\n      0x60\n        /* \"#utility.yul\":19738:19752   */\n      shl\n        /* \"#utility.yul\":19717:19752   */\n      swap1\n      pop\n        /* \"#utility.yul\":19665:19759   */\n      swap2\n      swap1\n      pop\n      jump\t// out\n        /* \"#utility.yul\":19765:19990   */\n    tag_370:\n        /* \"#utility.yul\":19905:19939   */\n      0x4f776e61626c653a206e6577206f776e657220697320746865207a65726f2061\n        /* \"#utility.yul\":19901:19902   */\n      0x00\n        /* \"#utility.yul\":19893:19899   */\n      dup3\n        /* \"#utility.yul\":19889:19903   */\n      add\n        /* \"#utility.yul\":19882:19940   */\n      mstore\n        /* \"#utility.yul\":19974:19982   */\n      0x6464726573730000000000000000000000000000000000000000000000000000\n        /* \"#utility.yul\":19969:19971   */\n      0x20\n        /* \"#utility.yul\":19961:19967   */\n      dup3\n        /* \"#utility.yul\":19957:19972   */\n      add\n        /* \"#utility.yul\":19950:19983   */\n      mstore\n        /* \"#utility.yul\":19765:19990   */\n      pop\n      jump\t// out\n        /* \"#utility.yul\":19996:20170   */\n    tag_375:\n        /* \"#utility.yul\":20136:20162   */\n      0x4e6f7420656e6f7567682066756e647320746f20647261770000000000000000\n        /* \"#utility.yul\":20132:20133   */\n      0x00\n        /* \"#utility.yul\":20124:20130   */\n      dup3\n        /* \"#utility.yul\":20120:20134   */\n      add\n        /* \"#utility.yul\":20113:20163   */\n      mstore\n        /* \"#utility.yul\":19996:20170   */\n      pop\n      jump\t// out\n        /* \"#utility.yul\":20176:20358   */\n    tag_380:\n        /* \"#utility.yul\":20316:20350   */\n      0x4f776e61626c653a2063616c6c6572206973206e6f7420746865206f776e6572\n        /* \"#utility.yul\":20312:20313   */\n      0x00\n        /* \"#utility.yul\":20304:20310   */\n      dup3\n        /* \"#utility.yul\":20300:20314   */\n      add\n        /* \"#utility.yul\":20293:20351   */\n      mstore\n        /* \"#utility.yul\":20176:20358   */\n      pop\n      jump\t// out\n        /* \"#utility.yul\":20364:20486   */\n    tag_253:\n        /* \"#utility.yul\":20437:20461   */\n      tag_501\n        /* \"#utility.yul\":20455:20460   */\n      dup2\n        /* \"#utility.yul\":20437:20461   */\n      tag_306\n      jump\t// in\n    tag_501:\n        /* \"#utility.yul\":20430:20435   */\n      dup2\n        /* \"#utility.yul\":20427:20462   */\n      eq\n        /* \"#utility.yul\":20417:20480   */\n      tag_502\n      jumpi\n        /* \"#utility.yul\":20476:20477   */\n      0x00\n        /* \"#utility.yul\":20473:20474   */\n      dup1\n        /* \"#utility.yul\":20466:20478   */\n      revert\n        /* \"#utility.yul\":20417:20480   */\n    tag_502:\n        /* \"#utility.yul\":20364:20486   */\n      pop\n      jump\t// out\n        /* \"#utility.yul\":20492:20608   */\n    tag_257:\n        /* \"#utility.yul\":20562:20583   */\n      tag_504\n        /* \"#utility.yul\":20577:20582   */\n      dup2\n        /* \"#utility.yul\":20562:20583   */\n      tag_360\n      jump\t// in\n    tag_504:\n        /* \"#utility.yul\":20555:20560   */\n      dup2\n        /* \"#utility.yul\":20552:20584   */\n      eq\n        /* \"#utility.yul\":20542:20602   */\n      tag_505\n      jumpi\n        /* \"#utility.yul\":20598:20599   */\n      0x00\n        /* \"#utility.yul\":20595:20596   */\n      dup1\n        /* \"#utility.yul\":20588:20600   */\n      revert\n        /* \"#utility.yul\":20542:20602   */\n    tag_505:\n        /* \"#utility.yul\":20492:20608   */\n      pop\n      jump\t// out\n        /* \"#utility.yul\":20614:20736   */\n    tag_261:\n        /* \"#utility.yul\":20687:20711   */\n      tag_507\n        /* \"#utility.yul\":20705:20710   */\n      dup2\n        /* \"#utility.yul\":20687:20711   */\n      tag_389\n      jump\t// in\n    tag_507:\n        /* \"#utility.yul\":20680:20685   */\n      dup2\n        /* \"#utility.yul\":20677:20712   */\n      eq\n        /* \"#utility.yul\":20667:20730   */\n      tag_508\n      jumpi\n        /* \"#utility.yul\":20726:20727   */\n      0x00\n        /* \"#utility.yul\":20723:20724   */\n      dup1\n        /* \"#utility.yul\":20716:20728   */\n      revert\n        /* \"#utility.yul\":20667:20730   */\n    tag_508:\n        /* \"#utility.yul\":20614:20736   */\n      pop\n      jump\t// out\n\n    auxdata: 0xa26469706673582212207b3ed866f397f96de85eb628008a1ba8d711905de27e1b9347a3d3a03e645c1364736f6c63430008070033\n}\n",
				"bytecode": {
					"linkReferences": {},
					"object": "60806040523480156200001157600080fd5b506040516200205b3803806200205b833981810160405281019062000037919062000182565b620000576200004b6200009f60201b60201c565b620000a760201b60201c565b80600460006101000a81548173ffffffffffffffffffffffffffffffffffffffff021916908373ffffffffffffffffffffffffffffffffffffffff1602179055505062000207565b600033905090565b60008060009054906101000a900473ffffffffffffffffffffffffffffffffffffffff169050816000806101000a81548173ffffffffffffffffffffffffffffffffffffffff021916908373ffffffffffffffffffffffffffffffffffffffff1602179055508173ffffffffffffffffffffffffffffffffffffffff168173ffffffffffffffffffffffffffffffffffffffff167f8be0079c531659141344cd1fd0a4f28419497f9722a3daafe3b4186f6b6457e060405160405180910390a35050565b6000815190506200017c81620001ed565b92915050565b6000602082840312156200019b576200019a620001e8565b5b6000620001ab848285016200016b565b91505092915050565b6000620001c182620001c8565b9050919050565b600073ffffffffffffffffffffffffffffffffffffffff82169050919050565b600080fd5b620001f881620001b4565b81146200020457600080fd5b50565b611e4480620002176000396000f3fe608060405234801561001057600080fd5b506004361061012c5760003560e01c80638da5cb5b116100ad578063b657dd6511610071578063b657dd6514610314578063bc15cdf014610344578063c4740a9514610374578063f2fde38b14610390578063f9cee0bd146103ac5761012c565b80638da5cb5b146102585780639b3e4552146102765780639f10a99014610294578063a59460dc146102c4578063ac128f4f146102e05761012c565b8063454f7b8f116100f4578063454f7b8f146101d85780635bedc390146101f65780635d495aea14610226578063715018a61461023057806376636d201461023a5761012c565b80630d98827014610131578063119b22b314610161578063158977de1461017f5780633b98bc651461019d578063443b80a1146101bc575b600080fd5b61014b6004803603810190610146919061140e565b6103ca565b6040516101589190611951565b60405180910390f35b6101696103fb565b6040516101769190611951565b60405180910390f35b610187610401565b6040516101949190611951565b60405180910390f35b6101a56104d2565b6040516101b3929190611862565b60405180910390f35b6101d660048036038101906101d1919061140e565b6106fb565b005b6101e0610809565b6040516101ed9190611951565b60405180910390f35b610210600480360381019061020b91906113e1565b61080f565b60405161021d91906118bb565b60405180910390f35b61022e610829565b005b610238610b30565b005b610242610bb8565b60405161024f9190611951565b60405180910390f35b610260610bbe565b60405161026d919061181e565b60405180910390f35b61027e610be7565b60405161028b91906118d6565b60405180910390f35b6102ae60048036038101906102a991906113e1565b610c0d565b6040516102bb9190611951565b60405180910390f35b6102de60048036038101906102d9919061140e565b610c59565b005b6102fa60048036038101906102f5919061147b565b610e68565b60405161030b95949392919061196c565b60405180910390f35b61032e6004803603810190610329919061147b565b610ebe565b60405161033b919061181e565b60405180910390f35b61035e600480360381019061035991906114d5565b610ef1565b60405161036b9190611899565b60405180910390f35b61038e600480360381019061038991906113e1565b61107e565b005b6103aa60048036038101906103a591906113e1565b611099565b005b6103b4611191565b6040516103c19190611951565b60405180910390f35b600760205281600052604060002081815481106103e657600080fd5b90600052602060002001600091509150505481565b60025481565b6000805b6001548110156104ce5760006006600083815260200190815260200160002060009054906101000a900473ffffffffffffffffffffffffffffffffffffffff169050600760008273ffffffffffffffffffffffffffffffffffffffff1673ffffffffffffffffffffffffffffffffffffffff16815260200190815260200160002060008154811061049957610498611cb8565b5b90600052602060002001548214156104ba5782806104b690611b83565b9350505b5080806104c690611b83565b915050610405565b5090565b60608060006104df610401565b90508067ffffffffffffffff8111156104fb576104fa611ce7565b5b6040519080825280602002602001820160405280156105295781602001602082028036833780820191505090505b5092508067ffffffffffffffff81111561054657610545611ce7565b5b6040519080825280602002602001820160405280156105745781602001602082028036833780820191505090505b5091506000805b6001548110156106f45760006006600083815260200190815260200160002060009054906101000a900473ffffffffffffffffffffffffffffffffffffffff169050600760008273ffffffffffffffffffffffffffffffffffffffff1673ffffffffffffffffffffffffffffffffffffffff16815260200190815260200160002060008154811061060f5761060e611cb8565b5b90600052602060002001548214156106e0578086848151811061063557610634611cb8565b5b602002602001019073ffffffffffffffffffffffffffffffffffffffff16908173ffffffffffffffffffffffffffffffffffffffff1681525050600760008273ffffffffffffffffffffffffffffffffffffffff1673ffffffffffffffffffffffffffffffffffffffff168152602001908152602001600020805490508584815181106106c5576106c4611cb8565b5b60200260200101818152505082806106dc90611b83565b9350505b5080806106ec90611b83565b91505061057b565b5050509091565b60005b818110156107eb578260066000836001546107199190611a7b565b815260200190815260200160002060006101000a81548173ffffffffffffffffffffffffffffffffffffffff021916908373ffffffffffffffffffffffffffffffffffffffff160217905550600760008473ffffffffffffffffffffffffffffffffffffffff1673ffffffffffffffffffffffffffffffffffffffff168152602001908152602001600020816001546107b29190611a7b565b908060018154018082558091505060019003906000526020600020016000909190919091505580806107e390611b83565b9150506106fe565b5080600160008282546107fe9190611a7b565b925050819055505050565b60035481565b60008061081b83610c0d565b905060008111915050919050565b610831611243565b73ffffffffffffffffffffffffffffffffffffffff1661084f610bbe565b73ffffffffffffffffffffffffffffffffffffffff16146108a5576040517f08c379a000000000000000000000000000000000000000000000000000000000815260040161089c90611931565b60405180910390fd5b60006108af611191565b90506544364c5bb0008110156108fa576040517f08c379a00000000000000000000000000000000000000000000000000000000081526004016108f190611911565b60405180910390fd5b600060015461090761124b565b6109119190611bfa565b905060006006600083815260200190815260200160002060009054906101000a900473ffffffffffffffffffffffffffffffffffffffff1690506040518060a0016040528060015481526020018381526020018481526020014281526020018273ffffffffffffffffffffffffffffffffffffffff168152506005600060025481526020019081526020016000206000820151816000015560208201518160010155604082015181600201556060820151816003015560808201518160040160006101000a81548173ffffffffffffffffffffffffffffffffffffffff021916908373ffffffffffffffffffffffffffffffffffffffff1602179055509050508260036000828254610a239190611a7b565b9250508190555060026000815480929190610a3d90611b83565b9190505550600460009054906101000a900473ffffffffffffffffffffffffffffffffffffffff1673ffffffffffffffffffffffffffffffffffffffff1663a9059cbb82856040518363ffffffff1660e01b8152600401610a9f929190611839565b602060405180830381600087803b158015610ab957600080fd5b505af1158015610acd573d6000803e3d6000fd5b505050506040513d601f19601f82011682018060405250810190610af1919061144e565b507f2e798dd4337e515c79b64c40e1a93baa1aefbd9180ac7905e02508edd7971e508184604051610b23929190611839565b60405180910390a1505050565b610b38611243565b73ffffffffffffffffffffffffffffffffffffffff16610b56610bbe565b73ffffffffffffffffffffffffffffffffffffffff1614610bac576040517f08c379a0000000000000000000000000000000000000000000000000000000008152600401610ba390611931565b60405180910390fd5b610bb66000611284565b565b60015481565b60008060009054906101000a900473ffffffffffffffffffffffffffffffffffffffff16905090565b600460009054906101000a900473ffffffffffffffffffffffffffffffffffffffff1681565b6000600760008373ffffffffffffffffffffffffffffffffffffffff1673ffffffffffffffffffffffffffffffffffffffff168152602001908152602001600020805490509050919050565b6000610c6483610c0d565b90506000811415610c755750610e64565b80821115610c81578091505b6000600190505b828111610e48576000600760008673ffffffffffffffffffffffffffffffffffffffff1673ffffffffffffffffffffffffffffffffffffffff1681526020019081526020016000206001600760008873ffffffffffffffffffffffffffffffffffffffff1673ffffffffffffffffffffffffffffffffffffffff16815260200190815260200160002080549050610d1f9190611ad1565b81548110610d3057610d2f611cb8565b5b906000526020600020015490506006600083600154610d4f9190611ad1565b815260200190815260200160002060009054906101000a900473ffffffffffffffffffffffffffffffffffffffff166006600083815260200190815260200160002060006101000a81548173ffffffffffffffffffffffffffffffffffffffff021916908373ffffffffffffffffffffffffffffffffffffffff160217905550600760008673ffffffffffffffffffffffffffffffffffffffff1673ffffffffffffffffffffffffffffffffffffffff168152602001908152602001600020805480610e1e57610e1d611c89565b5b60019003818190600052602060002001600090559055508080610e4090611b83565b915050610c88565b508160016000828254610e5b9190611ad1565b92505081905550505b5050565b60056020528060005260406000206000915090508060000154908060010154908060020154908060030154908060040160009054906101000a900473ffffffffffffffffffffffffffffffffffffffff16905085565b60066020528060005260406000206000915054906101000a900473ffffffffffffffffffffffffffffffffffffffff1681565b60606002548210610f0e576001600254610f0b9190611ad1565b91505b600060018484610f1e9190611ad1565b610f289190611a7b565b905060008167ffffffffffffffff811115610f4657610f45611ce7565b5b604051908082528060200260200182016040528015610f7f57816020015b610f6c611348565b815260200190600190039081610f645790505b50925060008590505b84811161107557600560008288610f9f9190611a7b565b81526020019081526020016000206040518060a0016040529081600082015481526020016001820154815260200160028201548152602001600382015481526020016004820160009054906101000a900473ffffffffffffffffffffffffffffffffffffffff1673ffffffffffffffffffffffffffffffffffffffff1673ffffffffffffffffffffffffffffffffffffffff168152505084838151811061104957611048611cb8565b5b6020026020010181905250818061105f90611b83565b925050808061106d90611b83565b915050610f88565b50505092915050565b600061108982610c0d565b90506110958282610c59565b5050565b6110a1611243565b73ffffffffffffffffffffffffffffffffffffffff166110bf610bbe565b73ffffffffffffffffffffffffffffffffffffffff1614611115576040517f08c379a000000000000000000000000000000000000000000000000000000000815260040161110c90611931565b60405180910390fd5b600073ffffffffffffffffffffffffffffffffffffffff168173ffffffffffffffffffffffffffffffffffffffff161415611185576040517f08c379a000000000000000000000000000000000000000000000000000000000815260040161117c906118f1565b60405180910390fd5b61118e81611284565b50565b6000600460009054906101000a900473ffffffffffffffffffffffffffffffffffffffff1673ffffffffffffffffffffffffffffffffffffffff166370a08231306040518263ffffffff1660e01b81526004016111ee919061181e565b60206040518083038186803b15801561120657600080fd5b505afa15801561121a573d6000803e3d6000fd5b505050506040513d601f19601f8201168201806040525081019061123e91906114a8565b905090565b600033905090565b6000425a3360035460405160200161126694939291906117d0565b6040516020818303038152906040528051906020012060001c905090565b60008060009054906101000a900473ffffffffffffffffffffffffffffffffffffffff169050816000806101000a81548173ffffffffffffffffffffffffffffffffffffffff021916908373ffffffffffffffffffffffffffffffffffffffff1602179055508173ffffffffffffffffffffffffffffffffffffffff168173ffffffffffffffffffffffffffffffffffffffff167f8be0079c531659141344cd1fd0a4f28419497f9722a3daafe3b4186f6b6457e060405160405180910390a35050565b6040518060a0016040528060008152602001600081526020016000815260200160008152602001600073ffffffffffffffffffffffffffffffffffffffff1681525090565b60008135905061139c81611dc9565b92915050565b6000815190506113b181611de0565b92915050565b6000813590506113c681611df7565b92915050565b6000815190506113db81611df7565b92915050565b6000602082840312156113f7576113f6611d16565b5b60006114058482850161138d565b91505092915050565b6000806040838503121561142557611424611d16565b5b60006114338582860161138d565b9250506020611444858286016113b7565b9150509250929050565b60006020828403121561146457611463611d16565b5b6000611472848285016113a2565b91505092915050565b60006020828403121561149157611490611d16565b5b600061149f848285016113b7565b91505092915050565b6000602082840312156114be576114bd611d16565b5b60006114cc848285016113cc565b91505092915050565b600080604083850312156114ec576114eb611d16565b5b60006114fa858286016113b7565b925050602061150b858286016113b7565b9150509250929050565b6000611521838361155d565b60208301905092915050565b60006115398383611733565b60a08301905092915050565b6000611551838361179b565b60208301905092915050565b61156681611b05565b82525050565b61157581611b05565b82525050565b61158c61158782611b05565b611bcc565b82525050565b600061159d826119ef565b6115a78185611a37565b93506115b2836119bf565b8060005b838110156115e35781516115ca8882611515565b97506115d583611a10565b9250506001810190506115b6565b5085935050505092915050565b60006115fb826119fa565b6116058185611a48565b9350611610836119cf565b8060005b83811015611641578151611628888261152d565b975061163383611a1d565b925050600181019050611614565b5085935050505092915050565b600061165982611a05565b6116638185611a59565b935061166e836119df565b8060005b8381101561169f5781516116868882611545565b975061169183611a2a565b925050600181019050611672565b5085935050505092915050565b6116b581611b17565b82525050565b6116c481611b4d565b82525050565b60006116d7602683611a6a565b91506116e282611d28565b604082019050919050565b60006116fa601883611a6a565b915061170582611d77565b602082019050919050565b600061171d602083611a6a565b915061172882611da0565b602082019050919050565b60a082016000820151611749600085018261179b565b50602082015161175c602085018261179b565b50604082015161176f604085018261179b565b506060820151611782606085018261179b565b506080820151611795608085018261155d565b50505050565b6117a481611b43565b82525050565b6117b381611b43565b82525050565b6117ca6117c582611b43565b611bf0565b82525050565b60006117dc82876117b9565b6020820191506117ec82866117b9565b6020820191506117fc828561157b565b60148201915061180c82846117b9565b60208201915081905095945050505050565b6000602082019050611833600083018461156c565b92915050565b600060408201905061184e600083018561156c565b61185b60208301846117aa565b9392505050565b6000604082019050818103600083015261187c8185611592565b90508181036020830152611890818461164e565b90509392505050565b600060208201905081810360008301526118b381846115f0565b905092915050565b60006020820190506118d060008301846116ac565b92915050565b60006020820190506118eb60008301846116bb565b92915050565b6000602082019050818103600083015261190a816116ca565b9050919050565b6000602082019050818103600083015261192a816116ed565b9050919050565b6000602082019050818103600083015261194a81611710565b9050919050565b600060208201905061196660008301846117aa565b92915050565b600060a08201905061198160008301886117aa565b61198e60208301876117aa565b61199b60408301866117aa565b6119a860608301856117aa565b6119b5608083018461156c565b9695505050505050565b6000819050602082019050919050565b6000819050602082019050919050565b6000819050602082019050919050565b600081519050919050565b600081519050919050565b600081519050919050565b6000602082019050919050565b6000602082019050919050565b6000602082019050919050565b600082825260208201905092915050565b600082825260208201905092915050565b600082825260208201905092915050565b600082825260208201905092915050565b6000611a8682611b43565b9150611a9183611b43565b9250827fffffffffffffffffffffffffffffffffffffffffffffffffffffffffffffffff03821115611ac657611ac5611c2b565b5b828201905092915050565b6000611adc82611b43565b9150611ae783611b43565b925082821015611afa57611af9611c2b565b5b828203905092915050565b6000611b1082611b23565b9050919050565b60008115159050919050565b600073ffffffffffffffffffffffffffffffffffffffff82169050919050565b6000819050919050565b6000611b5882611b5f565b9050919050565b6000611b6a82611b71565b9050919050565b6000611b7c82611b23565b9050919050565b6000611b8e82611b43565b91507fffffffffffffffffffffffffffffffffffffffffffffffffffffffffffffffff821415611bc157611bc0611c2b565b5b600182019050919050565b6000611bd782611bde565b9050919050565b6000611be982611d1b565b9050919050565b6000819050919050565b6000611c0582611b43565b9150611c1083611b43565b925082611c2057611c1f611c5a565b5b828206905092915050565b7f4e487b7100000000000000000000000000000000000000000000000000000000600052601160045260246000fd5b7f4e487b7100000000000000000000000000000000000000000000000000000000600052601260045260246000fd5b7f4e487b7100000000000000000000000000000000000000000000000000000000600052603160045260246000fd5b7f4e487b7100000000000000000000000000000000000000000000000000000000600052603260045260246000fd5b7f4e487b7100000000000000000000000000000000000000000000000000000000600052604160045260246000fd5b600080fd5b60008160601b9050919050565b7f4f776e61626c653a206e6577206f776e657220697320746865207a65726f206160008201527f6464726573730000000000000000000000000000000000000000000000000000602082015250565b7f4e6f7420656e6f7567682066756e647320746f20647261770000000000000000600082015250565b7f4f776e61626c653a2063616c6c6572206973206e6f7420746865206f776e6572600082015250565b611dd281611b05565b8114611ddd57600080fd5b50565b611de981611b17565b8114611df457600080fd5b50565b611e0081611b43565b8114611e0b57600080fd5b5056fea26469706673582212207b3ed866f397f96de85eb628008a1ba8d711905de27e1b9347a3d3a03e645c1364736f6c63430008070033",
					"opcodes": "PUSH1 0x80 PUSH1 0x40 MSTORE CALLVALUE DUP1 ISZERO PUSH3 0x11 JUMPI PUSH1 0x0 DUP1 REVERT JUMPDEST POP PUSH1 0x40 MLOAD PUSH3 0x205B CODESIZE SUB DUP1 PUSH3 0x205B DUP4 CODECOPY DUP2 DUP2 ADD PUSH1 0x40 MSTORE DUP2 ADD SWAP1 PUSH3 0x37 SWAP2 SWAP1 PUSH3 0x182 JUMP JUMPDEST PUSH3 0x57 PUSH3 0x4B PUSH3 0x9F PUSH1 0x20 SHL PUSH1 0x20 SHR JUMP JUMPDEST PUSH3 0xA7 PUSH1 0x20 SHL PUSH1 0x20 SHR JUMP JUMPDEST DUP1 PUSH1 0x4 PUSH1 0x0 PUSH2 0x100 EXP DUP2 SLOAD DUP2 PUSH20 0xFFFFFFFFFFFFFFFFFFFFFFFFFFFFFFFFFFFFFFFF MUL NOT AND SWAP1 DUP4 PUSH20 0xFFFFFFFFFFFFFFFFFFFFFFFFFFFFFFFFFFFFFFFF AND MUL OR SWAP1 SSTORE POP POP PUSH3 0x207 JUMP JUMPDEST PUSH1 0x0 CALLER SWAP1 POP SWAP1 JUMP JUMPDEST PUSH1 0x0 DUP1 PUSH1 0x0 SWAP1 SLOAD SWAP1 PUSH2 0x100 EXP SWAP1 DIV PUSH20 0xFFFFFFFFFFFFFFFFFFFFFFFFFFFFFFFFFFFFFFFF AND SWAP1 POP DUP2 PUSH1 0x0 DUP1 PUSH2 0x100 EXP DUP2 SLOAD DUP2 PUSH20 0xFFFFFFFFFFFFFFFFFFFFFFFFFFFFFFFFFFFFFFFF MUL NOT AND SWAP1 DUP4 PUSH20 0xFFFFFFFFFFFFFFFFFFFFFFFFFFFFFFFFFFFFFFFF AND MUL OR SWAP1 SSTORE POP DUP2 PUSH20 0xFFFFFFFFFFFFFFFFFFFFFFFFFFFFFFFFFFFFFFFF AND DUP2 PUSH20 0xFFFFFFFFFFFFFFFFFFFFFFFFFFFFFFFFFFFFFFFF AND PUSH32 0x8BE0079C531659141344CD1FD0A4F28419497F9722A3DAAFE3B4186F6B6457E0 PUSH1 0x40 MLOAD PUSH1 0x40 MLOAD DUP1 SWAP2 SUB SWAP1 LOG3 POP POP JUMP JUMPDEST PUSH1 0x0 DUP2 MLOAD SWAP1 POP PUSH3 0x17C DUP2 PUSH3 0x1ED JUMP JUMPDEST SWAP3 SWAP2 POP POP JUMP JUMPDEST PUSH1 0x0 PUSH1 0x20 DUP3 DUP5 SUB SLT ISZERO PUSH3 0x19B JUMPI PUSH3 0x19A PUSH3 0x1E8 JUMP JUMPDEST JUMPDEST PUSH1 0x0 PUSH3 0x1AB DUP5 DUP3 DUP6 ADD PUSH3 0x16B JUMP JUMPDEST SWAP2 POP POP SWAP3 SWAP2 POP POP JUMP JUMPDEST PUSH1 0x0 PUSH3 0x1C1 DUP3 PUSH3 0x1C8 JUMP JUMPDEST SWAP1 POP SWAP2 SWAP1 POP JUMP JUMPDEST PUSH1 0x0 PUSH20 0xFFFFFFFFFFFFFFFFFFFFFFFFFFFFFFFFFFFFFFFF DUP3 AND SWAP1 POP SWAP2 SWAP1 POP JUMP JUMPDEST PUSH1 0x0 DUP1 REVERT JUMPDEST PUSH3 0x1F8 DUP2 PUSH3 0x1B4 JUMP JUMPDEST DUP2 EQ PUSH3 0x204 JUMPI PUSH1 0x0 DUP1 REVERT JUMPDEST POP JUMP JUMPDEST PUSH2 0x1E44 DUP1 PUSH3 0x217 PUSH1 0x0 CODECOPY PUSH1 0x0 RETURN INVALID PUSH1 0x80 PUSH1 0x40 MSTORE CALLVALUE DUP1 ISZERO PUSH2 0x10 JUMPI PUSH1 0x0 DUP1 REVERT JUMPDEST POP PUSH1 0x4 CALLDATASIZE LT PUSH2 0x12C JUMPI PUSH1 0x0 CALLDATALOAD PUSH1 0xE0 SHR DUP1 PUSH4 0x8DA5CB5B GT PUSH2 0xAD JUMPI DUP1 PUSH4 0xB657DD65 GT PUSH2 0x71 JUMPI DUP1 PUSH4 0xB657DD65 EQ PUSH2 0x314 JUMPI DUP1 PUSH4 0xBC15CDF0 EQ PUSH2 0x344 JUMPI DUP1 PUSH4 0xC4740A95 EQ PUSH2 0x374 JUMPI DUP1 PUSH4 0xF2FDE38B EQ PUSH2 0x390 JUMPI DUP1 PUSH4 0xF9CEE0BD EQ PUSH2 0x3AC JUMPI PUSH2 0x12C JUMP JUMPDEST DUP1 PUSH4 0x8DA5CB5B EQ PUSH2 0x258 JUMPI DUP1 PUSH4 0x9B3E4552 EQ PUSH2 0x276 JUMPI DUP1 PUSH4 0x9F10A990 EQ PUSH2 0x294 JUMPI DUP1 PUSH4 0xA59460DC EQ PUSH2 0x2C4 JUMPI DUP1 PUSH4 0xAC128F4F EQ PUSH2 0x2E0 JUMPI PUSH2 0x12C JUMP JUMPDEST DUP1 PUSH4 0x454F7B8F GT PUSH2 0xF4 JUMPI DUP1 PUSH4 0x454F7B8F EQ PUSH2 0x1D8 JUMPI DUP1 PUSH4 0x5BEDC390 EQ PUSH2 0x1F6 JUMPI DUP1 PUSH4 0x5D495AEA EQ PUSH2 0x226 JUMPI DUP1 PUSH4 0x715018A6 EQ PUSH2 0x230 JUMPI DUP1 PUSH4 0x76636D20 EQ PUSH2 0x23A JUMPI PUSH2 0x12C JUMP JUMPDEST DUP1 PUSH4 0xD988270 EQ PUSH2 0x131 JUMPI DUP1 PUSH4 0x119B22B3 EQ PUSH2 0x161 JUMPI DUP1 PUSH4 0x158977DE EQ PUSH2 0x17F JUMPI DUP1 PUSH4 0x3B98BC65 EQ PUSH2 0x19D JUMPI DUP1 PUSH4 0x443B80A1 EQ PUSH2 0x1BC JUMPI JUMPDEST PUSH1 0x0 DUP1 REVERT JUMPDEST PUSH2 0x14B PUSH1 0x4 DUP1 CALLDATASIZE SUB DUP2 ADD SWAP1 PUSH2 0x146 SWAP2 SWAP1 PUSH2 0x140E JUMP JUMPDEST PUSH2 0x3CA JUMP JUMPDEST PUSH1 0x40 MLOAD PUSH2 0x158 SWAP2 SWAP1 PUSH2 0x1951 JUMP JUMPDEST PUSH1 0x40 MLOAD DUP1 SWAP2 SUB SWAP1 RETURN JUMPDEST PUSH2 0x169 PUSH2 0x3FB JUMP JUMPDEST PUSH1 0x40 MLOAD PUSH2 0x176 SWAP2 SWAP1 PUSH2 0x1951 JUMP JUMPDEST PUSH1 0x40 MLOAD DUP1 SWAP2 SUB SWAP1 RETURN JUMPDEST PUSH2 0x187 PUSH2 0x401 JUMP JUMPDEST PUSH1 0x40 MLOAD PUSH2 0x194 SWAP2 SWAP1 PUSH2 0x1951 JUMP JUMPDEST PUSH1 0x40 MLOAD DUP1 SWAP2 SUB SWAP1 RETURN JUMPDEST PUSH2 0x1A5 PUSH2 0x4D2 JUMP JUMPDEST PUSH1 0x40 MLOAD PUSH2 0x1B3 SWAP3 SWAP2 SWAP1 PUSH2 0x1862 JUMP JUMPDEST PUSH1 0x40 MLOAD DUP1 SWAP2 SUB SWAP1 RETURN JUMPDEST PUSH2 0x1D6 PUSH1 0x4 DUP1 CALLDATASIZE SUB DUP2 ADD SWAP1 PUSH2 0x1D1 SWAP2 SWAP1 PUSH2 0x140E JUMP JUMPDEST PUSH2 0x6FB JUMP JUMPDEST STOP JUMPDEST PUSH2 0x1E0 PUSH2 0x809 JUMP JUMPDEST PUSH1 0x40 MLOAD PUSH2 0x1ED SWAP2 SWAP1 PUSH2 0x1951 JUMP JUMPDEST PUSH1 0x40 MLOAD DUP1 SWAP2 SUB SWAP1 RETURN JUMPDEST PUSH2 0x210 PUSH1 0x4 DUP1 CALLDATASIZE SUB DUP2 ADD SWAP1 PUSH2 0x20B SWAP2 SWAP1 PUSH2 0x13E1 JUMP JUMPDEST PUSH2 0x80F JUMP JUMPDEST PUSH1 0x40 MLOAD PUSH2 0x21D SWAP2 SWAP1 PUSH2 0x18BB JUMP JUMPDEST PUSH1 0x40 MLOAD DUP1 SWAP2 SUB SWAP1 RETURN JUMPDEST PUSH2 0x22E PUSH2 0x829 JUMP JUMPDEST STOP JUMPDEST PUSH2 0x238 PUSH2 0xB30 JUMP JUMPDEST STOP JUMPDEST PUSH2 0x242 PUSH2 0xBB8 JUMP JUMPDEST PUSH1 0x40 MLOAD PUSH2 0x24F SWAP2 SWAP1 PUSH2 0x1951 JUMP JUMPDEST PUSH1 0x40 MLOAD DUP1 SWAP2 SUB SWAP1 RETURN JUMPDEST PUSH2 0x260 PUSH2 0xBBE JUMP JUMPDEST PUSH1 0x40 MLOAD PUSH2 0x26D SWAP2 SWAP1 PUSH2 0x181E JUMP JUMPDEST PUSH1 0x40 MLOAD DUP1 SWAP2 SUB SWAP1 RETURN JUMPDEST PUSH2 0x27E PUSH2 0xBE7 JUMP JUMPDEST PUSH1 0x40 MLOAD PUSH2 0x28B SWAP2 SWAP1 PUSH2 0x18D6 JUMP JUMPDEST PUSH1 0x40 MLOAD DUP1 SWAP2 SUB SWAP1 RETURN JUMPDEST PUSH2 0x2AE PUSH1 0x4 DUP1 CALLDATASIZE SUB DUP2 ADD SWAP1 PUSH2 0x2A9 SWAP2 SWAP1 PUSH2 0x13E1 JUMP JUMPDEST PUSH2 0xC0D JUMP JUMPDEST PUSH1 0x40 MLOAD PUSH2 0x2BB SWAP2 SWAP1 PUSH2 0x1951 JUMP JUMPDEST PUSH1 0x40 MLOAD DUP1 SWAP2 SUB SWAP1 RETURN JUMPDEST PUSH2 0x2DE PUSH1 0x4 DUP1 CALLDATASIZE SUB DUP2 ADD SWAP1 PUSH2 0x2D9 SWAP2 SWAP1 PUSH2 0x140E JUMP JUMPDEST PUSH2 0xC59 JUMP JUMPDEST STOP JUMPDEST PUSH2 0x2FA PUSH1 0x4 DUP1 CALLDATASIZE SUB DUP2 ADD SWAP1 PUSH2 0x2F5 SWAP2 SWAP1 PUSH2 0x147B JUMP JUMPDEST PUSH2 0xE68 JUMP JUMPDEST PUSH1 0x40 MLOAD PUSH2 0x30B SWAP6 SWAP5 SWAP4 SWAP3 SWAP2 SWAP1 PUSH2 0x196C JUMP JUMPDEST PUSH1 0x40 MLOAD DUP1 SWAP2 SUB SWAP1 RETURN JUMPDEST PUSH2 0x32E PUSH1 0x4 DUP1 CALLDATASIZE SUB DUP2 ADD SWAP1 PUSH2 0x329 SWAP2 SWAP1 PUSH2 0x147B JUMP JUMPDEST PUSH2 0xEBE JUMP JUMPDEST PUSH1 0x40 MLOAD PUSH2 0x33B SWAP2 SWAP1 PUSH2 0x181E JUMP JUMPDEST PUSH1 0x40 MLOAD DUP1 SWAP2 SUB SWAP1 RETURN JUMPDEST PUSH2 0x35E PUSH1 0x4 DUP1 CALLDATASIZE SUB DUP2 ADD SWAP1 PUSH2 0x359 SWAP2 SWAP1 PUSH2 0x14D5 JUMP JUMPDEST PUSH2 0xEF1 JUMP JUMPDEST PUSH1 0x40 MLOAD PUSH2 0x36B SWAP2 SWAP1 PUSH2 0x1899 JUMP JUMPDEST PUSH1 0x40 MLOAD DUP1 SWAP2 SUB SWAP1 RETURN JUMPDEST PUSH2 0x38E PUSH1 0x4 DUP1 CALLDATASIZE SUB DUP2 ADD SWAP1 PUSH2 0x389 SWAP2 SWAP1 PUSH2 0x13E1 JUMP JUMPDEST PUSH2 0x107E JUMP JUMPDEST STOP JUMPDEST PUSH2 0x3AA PUSH1 0x4 DUP1 CALLDATASIZE SUB DUP2 ADD SWAP1 PUSH2 0x3A5 SWAP2 SWAP1 PUSH2 0x13E1 JUMP JUMPDEST PUSH2 0x1099 JUMP JUMPDEST STOP JUMPDEST PUSH2 0x3B4 PUSH2 0x1191 JUMP JUMPDEST PUSH1 0x40 MLOAD PUSH2 0x3C1 SWAP2 SWAP1 PUSH2 0x1951 JUMP JUMPDEST PUSH1 0x40 MLOAD DUP1 SWAP2 SUB SWAP1 RETURN JUMPDEST PUSH1 0x7 PUSH1 0x20 MSTORE DUP2 PUSH1 0x0 MSTORE PUSH1 0x40 PUSH1 0x0 KECCAK256 DUP2 DUP2 SLOAD DUP2 LT PUSH2 0x3E6 JUMPI PUSH1 0x0 DUP1 REVERT JUMPDEST SWAP1 PUSH1 0x0 MSTORE PUSH1 0x20 PUSH1 0x0 KECCAK256 ADD PUSH1 0x0 SWAP2 POP SWAP2 POP POP SLOAD DUP2 JUMP JUMPDEST PUSH1 0x2 SLOAD DUP2 JUMP JUMPDEST PUSH1 0x0 DUP1 JUMPDEST PUSH1 0x1 SLOAD DUP2 LT ISZERO PUSH2 0x4CE JUMPI PUSH1 0x0 PUSH1 0x6 PUSH1 0x0 DUP4 DUP2 MSTORE PUSH1 0x20 ADD SWAP1 DUP2 MSTORE PUSH1 0x20 ADD PUSH1 0x0 KECCAK256 PUSH1 0x0 SWAP1 SLOAD SWAP1 PUSH2 0x100 EXP SWAP1 DIV PUSH20 0xFFFFFFFFFFFFFFFFFFFFFFFFFFFFFFFFFFFFFFFF AND SWAP1 POP PUSH1 0x7 PUSH1 0x0 DUP3 PUSH20 0xFFFFFFFFFFFFFFFFFFFFFFFFFFFFFFFFFFFFFFFF AND PUSH20 0xFFFFFFFFFFFFFFFFFFFFFFFFFFFFFFFFFFFFFFFF AND DUP2 MSTORE PUSH1 0x20 ADD SWAP1 DUP2 MSTORE PUSH1 0x20 ADD PUSH1 0x0 KECCAK256 PUSH1 0x0 DUP2 SLOAD DUP2 LT PUSH2 0x499 JUMPI PUSH2 0x498 PUSH2 0x1CB8 JUMP JUMPDEST JUMPDEST SWAP1 PUSH1 0x0 MSTORE PUSH1 0x20 PUSH1 0x0 KECCAK256 ADD SLOAD DUP3 EQ ISZERO PUSH2 0x4BA JUMPI DUP3 DUP1 PUSH2 0x4B6 SWAP1 PUSH2 0x1B83 JUMP JUMPDEST SWAP4 POP POP JUMPDEST POP DUP1 DUP1 PUSH2 0x4C6 SWAP1 PUSH2 0x1B83 JUMP JUMPDEST SWAP2 POP POP PUSH2 0x405 JUMP JUMPDEST POP SWAP1 JUMP JUMPDEST PUSH1 0x60 DUP1 PUSH1 0x0 PUSH2 0x4DF PUSH2 0x401 JUMP JUMPDEST SWAP1 POP DUP1 PUSH8 0xFFFFFFFFFFFFFFFF DUP2 GT ISZERO PUSH2 0x4FB JUMPI PUSH2 0x4FA PUSH2 0x1CE7 JUMP JUMPDEST JUMPDEST PUSH1 0x40 MLOAD SWAP1 DUP1 DUP3 MSTORE DUP1 PUSH1 0x20 MUL PUSH1 0x20 ADD DUP3 ADD PUSH1 0x40 MSTORE DUP1 ISZERO PUSH2 0x529 JUMPI DUP2 PUSH1 0x20 ADD PUSH1 0x20 DUP3 MUL DUP1 CALLDATASIZE DUP4 CALLDATACOPY DUP1 DUP3 ADD SWAP2 POP POP SWAP1 POP JUMPDEST POP SWAP3 POP DUP1 PUSH8 0xFFFFFFFFFFFFFFFF DUP2 GT ISZERO PUSH2 0x546 JUMPI PUSH2 0x545 PUSH2 0x1CE7 JUMP JUMPDEST JUMPDEST PUSH1 0x40 MLOAD SWAP1 DUP1 DUP3 MSTORE DUP1 PUSH1 0x20 MUL PUSH1 0x20 ADD DUP3 ADD PUSH1 0x40 MSTORE DUP1 ISZERO PUSH2 0x574 JUMPI DUP2 PUSH1 0x20 ADD PUSH1 0x20 DUP3 MUL DUP1 CALLDATASIZE DUP4 CALLDATACOPY DUP1 DUP3 ADD SWAP2 POP POP SWAP1 POP JUMPDEST POP SWAP2 POP PUSH1 0x0 DUP1 JUMPDEST PUSH1 0x1 SLOAD DUP2 LT ISZERO PUSH2 0x6F4 JUMPI PUSH1 0x0 PUSH1 0x6 PUSH1 0x0 DUP4 DUP2 MSTORE PUSH1 0x20 ADD SWAP1 DUP2 MSTORE PUSH1 0x20 ADD PUSH1 0x0 KECCAK256 PUSH1 0x0 SWAP1 SLOAD SWAP1 PUSH2 0x100 EXP SWAP1 DIV PUSH20 0xFFFFFFFFFFFFFFFFFFFFFFFFFFFFFFFFFFFFFFFF AND SWAP1 POP PUSH1 0x7 PUSH1 0x0 DUP3 PUSH20 0xFFFFFFFFFFFFFFFFFFFFFFFFFFFFFFFFFFFFFFFF AND PUSH20 0xFFFFFFFFFFFFFFFFFFFFFFFFFFFFFFFFFFFFFFFF AND DUP2 MSTORE PUSH1 0x20 ADD SWAP1 DUP2 MSTORE PUSH1 0x20 ADD PUSH1 0x0 KECCAK256 PUSH1 0x0 DUP2 SLOAD DUP2 LT PUSH2 0x60F JUMPI PUSH2 0x60E PUSH2 0x1CB8 JUMP JUMPDEST JUMPDEST SWAP1 PUSH1 0x0 MSTORE PUSH1 0x20 PUSH1 0x0 KECCAK256 ADD SLOAD DUP3 EQ ISZERO PUSH2 0x6E0 JUMPI DUP1 DUP7 DUP5 DUP2 MLOAD DUP2 LT PUSH2 0x635 JUMPI PUSH2 0x634 PUSH2 0x1CB8 JUMP JUMPDEST JUMPDEST PUSH1 0x20 MUL PUSH1 0x20 ADD ADD SWAP1 PUSH20 0xFFFFFFFFFFFFFFFFFFFFFFFFFFFFFFFFFFFFFFFF AND SWAP1 DUP2 PUSH20 0xFFFFFFFFFFFFFFFFFFFFFFFFFFFFFFFFFFFFFFFF AND DUP2 MSTORE POP POP PUSH1 0x7 PUSH1 0x0 DUP3 PUSH20 0xFFFFFFFFFFFFFFFFFFFFFFFFFFFFFFFFFFFFFFFF AND PUSH20 0xFFFFFFFFFFFFFFFFFFFFFFFFFFFFFFFFFFFFFFFF AND DUP2 MSTORE PUSH1 0x20 ADD SWAP1 DUP2 MSTORE PUSH1 0x20 ADD PUSH1 0x0 KECCAK256 DUP1 SLOAD SWAP1 POP DUP6 DUP5 DUP2 MLOAD DUP2 LT PUSH2 0x6C5 JUMPI PUSH2 0x6C4 PUSH2 0x1CB8 JUMP JUMPDEST JUMPDEST PUSH1 0x20 MUL PUSH1 0x20 ADD ADD DUP2 DUP2 MSTORE POP POP DUP3 DUP1 PUSH2 0x6DC SWAP1 PUSH2 0x1B83 JUMP JUMPDEST SWAP4 POP POP JUMPDEST POP DUP1 DUP1 PUSH2 0x6EC SWAP1 PUSH2 0x1B83 JUMP JUMPDEST SWAP2 POP POP PUSH2 0x57B JUMP JUMPDEST POP POP POP SWAP1 SWAP2 JUMP JUMPDEST PUSH1 0x0 JUMPDEST DUP2 DUP2 LT ISZERO PUSH2 0x7EB JUMPI DUP3 PUSH1 0x6 PUSH1 0x0 DUP4 PUSH1 0x1 SLOAD PUSH2 0x719 SWAP2 SWAP1 PUSH2 0x1A7B JUMP JUMPDEST DUP2 MSTORE PUSH1 0x20 ADD SWAP1 DUP2 MSTORE PUSH1 0x20 ADD PUSH1 0x0 KECCAK256 PUSH1 0x0 PUSH2 0x100 EXP DUP2 SLOAD DUP2 PUSH20 0xFFFFFFFFFFFFFFFFFFFFFFFFFFFFFFFFFFFFFFFF MUL NOT AND SWAP1 DUP4 PUSH20 0xFFFFFFFFFFFFFFFFFFFFFFFFFFFFFFFFFFFFFFFF AND MUL OR SWAP1 SSTORE POP PUSH1 0x7 PUSH1 0x0 DUP5 PUSH20 0xFFFFFFFFFFFFFFFFFFFFFFFFFFFFFFFFFFFFFFFF AND PUSH20 0xFFFFFFFFFFFFFFFFFFFFFFFFFFFFFFFFFFFFFFFF AND DUP2 MSTORE PUSH1 0x20 ADD SWAP1 DUP2 MSTORE PUSH1 0x20 ADD PUSH1 0x0 KECCAK256 DUP2 PUSH1 0x1 SLOAD PUSH2 0x7B2 SWAP2 SWAP1 PUSH2 0x1A7B JUMP JUMPDEST SWAP1 DUP1 PUSH1 0x1 DUP2 SLOAD ADD DUP1 DUP3 SSTORE DUP1 SWAP2 POP POP PUSH1 0x1 SWAP1 SUB SWAP1 PUSH1 0x0 MSTORE PUSH1 0x20 PUSH1 0x0 KECCAK256 ADD PUSH1 0x0 SWAP1 SWAP2 SWAP1 SWAP2 SWAP1 SWAP2 POP SSTORE DUP1 DUP1 PUSH2 0x7E3 SWAP1 PUSH2 0x1B83 JUMP JUMPDEST SWAP2 POP POP PUSH2 0x6FE JUMP JUMPDEST POP DUP1 PUSH1 0x1 PUSH1 0x0 DUP3 DUP3 SLOAD PUSH2 0x7FE SWAP2 SWAP1 PUSH2 0x1A7B JUMP JUMPDEST SWAP3 POP POP DUP2 SWAP1 SSTORE POP POP POP JUMP JUMPDEST PUSH1 0x3 SLOAD DUP2 JUMP JUMPDEST PUSH1 0x0 DUP1 PUSH2 0x81B DUP4 PUSH2 0xC0D JUMP JUMPDEST SWAP1 POP PUSH1 0x0 DUP2 GT SWAP2 POP POP SWAP2 SWAP1 POP JUMP JUMPDEST PUSH2 0x831 PUSH2 0x1243 JUMP JUMPDEST PUSH20 0xFFFFFFFFFFFFFFFFFFFFFFFFFFFFFFFFFFFFFFFF AND PUSH2 0x84F PUSH2 0xBBE JUMP JUMPDEST PUSH20 0xFFFFFFFFFFFFFFFFFFFFFFFFFFFFFFFFFFFFFFFF AND EQ PUSH2 0x8A5 JUMPI PUSH1 0x40 MLOAD PUSH32 0x8C379A000000000000000000000000000000000000000000000000000000000 DUP2 MSTORE PUSH1 0x4 ADD PUSH2 0x89C SWAP1 PUSH2 0x1931 JUMP JUMPDEST PUSH1 0x40 MLOAD DUP1 SWAP2 SUB SWAP1 REVERT JUMPDEST PUSH1 0x0 PUSH2 0x8AF PUSH2 0x1191 JUMP JUMPDEST SWAP1 POP PUSH6 0x44364C5BB000 DUP2 LT ISZERO PUSH2 0x8FA JUMPI PUSH1 0x40 MLOAD PUSH32 0x8C379A000000000000000000000000000000000000000000000000000000000 DUP2 MSTORE PUSH1 0x4 ADD PUSH2 0x8F1 SWAP1 PUSH2 0x1911 JUMP JUMPDEST PUSH1 0x40 MLOAD DUP1 SWAP2 SUB SWAP1 REVERT JUMPDEST PUSH1 0x0 PUSH1 0x1 SLOAD PUSH2 0x907 PUSH2 0x124B JUMP JUMPDEST PUSH2 0x911 SWAP2 SWAP1 PUSH2 0x1BFA JUMP JUMPDEST SWAP1 POP PUSH1 0x0 PUSH1 0x6 PUSH1 0x0 DUP4 DUP2 MSTORE PUSH1 0x20 ADD SWAP1 DUP2 MSTORE PUSH1 0x20 ADD PUSH1 0x0 KECCAK256 PUSH1 0x0 SWAP1 SLOAD SWAP1 PUSH2 0x100 EXP SWAP1 DIV PUSH20 0xFFFFFFFFFFFFFFFFFFFFFFFFFFFFFFFFFFFFFFFF AND SWAP1 POP PUSH1 0x40 MLOAD DUP1 PUSH1 0xA0 ADD PUSH1 0x40 MSTORE DUP1 PUSH1 0x1 SLOAD DUP2 MSTORE PUSH1 0x20 ADD DUP4 DUP2 MSTORE PUSH1 0x20 ADD DUP5 DUP2 MSTORE PUSH1 0x20 ADD TIMESTAMP DUP2 MSTORE PUSH1 0x20 ADD DUP3 PUSH20 0xFFFFFFFFFFFFFFFFFFFFFFFFFFFFFFFFFFFFFFFF AND DUP2 MSTORE POP PUSH1 0x5 PUSH1 0x0 PUSH1 0x2 SLOAD DUP2 MSTORE PUSH1 0x20 ADD SWAP1 DUP2 MSTORE PUSH1 0x20 ADD PUSH1 0x0 KECCAK256 PUSH1 0x0 DUP3 ADD MLOAD DUP2 PUSH1 0x0 ADD SSTORE PUSH1 0x20 DUP3 ADD MLOAD DUP2 PUSH1 0x1 ADD SSTORE PUSH1 0x40 DUP3 ADD MLOAD DUP2 PUSH1 0x2 ADD SSTORE PUSH1 0x60 DUP3 ADD MLOAD DUP2 PUSH1 0x3 ADD SSTORE PUSH1 0x80 DUP3 ADD MLOAD DUP2 PUSH1 0x4 ADD PUSH1 0x0 PUSH2 0x100 EXP DUP2 SLOAD DUP2 PUSH20 0xFFFFFFFFFFFFFFFFFFFFFFFFFFFFFFFFFFFFFFFF MUL NOT AND SWAP1 DUP4 PUSH20 0xFFFFFFFFFFFFFFFFFFFFFFFFFFFFFFFFFFFFFFFF AND MUL OR SWAP1 SSTORE POP SWAP1 POP POP DUP3 PUSH1 0x3 PUSH1 0x0 DUP3 DUP3 SLOAD PUSH2 0xA23 SWAP2 SWAP1 PUSH2 0x1A7B JUMP JUMPDEST SWAP3 POP POP DUP2 SWAP1 SSTORE POP PUSH1 0x2 PUSH1 0x0 DUP2 SLOAD DUP1 SWAP3 SWAP2 SWAP1 PUSH2 0xA3D SWAP1 PUSH2 0x1B83 JUMP JUMPDEST SWAP2 SWAP1 POP SSTORE POP PUSH1 0x4 PUSH1 0x0 SWAP1 SLOAD SWAP1 PUSH2 0x100 EXP SWAP1 DIV PUSH20 0xFFFFFFFFFFFFFFFFFFFFFFFFFFFFFFFFFFFFFFFF AND PUSH20 0xFFFFFFFFFFFFFFFFFFFFFFFFFFFFFFFFFFFFFFFF AND PUSH4 0xA9059CBB DUP3 DUP6 PUSH1 0x40 MLOAD DUP4 PUSH4 0xFFFFFFFF AND PUSH1 0xE0 SHL DUP2 MSTORE PUSH1 0x4 ADD PUSH2 0xA9F SWAP3 SWAP2 SWAP1 PUSH2 0x1839 JUMP JUMPDEST PUSH1 0x20 PUSH1 0x40 MLOAD DUP1 DUP4 SUB DUP2 PUSH1 0x0 DUP8 DUP1 EXTCODESIZE ISZERO DUP1 ISZERO PUSH2 0xAB9 JUMPI PUSH1 0x0 DUP1 REVERT JUMPDEST POP GAS CALL ISZERO DUP1 ISZERO PUSH2 0xACD JUMPI RETURNDATASIZE PUSH1 0x0 DUP1 RETURNDATACOPY RETURNDATASIZE PUSH1 0x0 REVERT JUMPDEST POP POP POP POP PUSH1 0x40 MLOAD RETURNDATASIZE PUSH1 0x1F NOT PUSH1 0x1F DUP3 ADD AND DUP3 ADD DUP1 PUSH1 0x40 MSTORE POP DUP2 ADD SWAP1 PUSH2 0xAF1 SWAP2 SWAP1 PUSH2 0x144E JUMP JUMPDEST POP PUSH32 0x2E798DD4337E515C79B64C40E1A93BAA1AEFBD9180AC7905E02508EDD7971E50 DUP2 DUP5 PUSH1 0x40 MLOAD PUSH2 0xB23 SWAP3 SWAP2 SWAP1 PUSH2 0x1839 JUMP JUMPDEST PUSH1 0x40 MLOAD DUP1 SWAP2 SUB SWAP1 LOG1 POP POP POP JUMP JUMPDEST PUSH2 0xB38 PUSH2 0x1243 JUMP JUMPDEST PUSH20 0xFFFFFFFFFFFFFFFFFFFFFFFFFFFFFFFFFFFFFFFF AND PUSH2 0xB56 PUSH2 0xBBE JUMP JUMPDEST PUSH20 0xFFFFFFFFFFFFFFFFFFFFFFFFFFFFFFFFFFFFFFFF AND EQ PUSH2 0xBAC JUMPI PUSH1 0x40 MLOAD PUSH32 0x8C379A000000000000000000000000000000000000000000000000000000000 DUP2 MSTORE PUSH1 0x4 ADD PUSH2 0xBA3 SWAP1 PUSH2 0x1931 JUMP JUMPDEST PUSH1 0x40 MLOAD DUP1 SWAP2 SUB SWAP1 REVERT JUMPDEST PUSH2 0xBB6 PUSH1 0x0 PUSH2 0x1284 JUMP JUMPDEST JUMP JUMPDEST PUSH1 0x1 SLOAD DUP2 JUMP JUMPDEST PUSH1 0x0 DUP1 PUSH1 0x0 SWAP1 SLOAD SWAP1 PUSH2 0x100 EXP SWAP1 DIV PUSH20 0xFFFFFFFFFFFFFFFFFFFFFFFFFFFFFFFFFFFFFFFF AND SWAP1 POP SWAP1 JUMP JUMPDEST PUSH1 0x4 PUSH1 0x0 SWAP1 SLOAD SWAP1 PUSH2 0x100 EXP SWAP1 DIV PUSH20 0xFFFFFFFFFFFFFFFFFFFFFFFFFFFFFFFFFFFFFFFF AND DUP2 JUMP JUMPDEST PUSH1 0x0 PUSH1 0x7 PUSH1 0x0 DUP4 PUSH20 0xFFFFFFFFFFFFFFFFFFFFFFFFFFFFFFFFFFFFFFFF AND PUSH20 0xFFFFFFFFFFFFFFFFFFFFFFFFFFFFFFFFFFFFFFFF AND DUP2 MSTORE PUSH1 0x20 ADD SWAP1 DUP2 MSTORE PUSH1 0x20 ADD PUSH1 0x0 KECCAK256 DUP1 SLOAD SWAP1 POP SWAP1 POP SWAP2 SWAP1 POP JUMP JUMPDEST PUSH1 0x0 PUSH2 0xC64 DUP4 PUSH2 0xC0D JUMP JUMPDEST SWAP1 POP PUSH1 0x0 DUP2 EQ ISZERO PUSH2 0xC75 JUMPI POP PUSH2 0xE64 JUMP JUMPDEST DUP1 DUP3 GT ISZERO PUSH2 0xC81 JUMPI DUP1 SWAP2 POP JUMPDEST PUSH1 0x0 PUSH1 0x1 SWAP1 POP JUMPDEST DUP3 DUP2 GT PUSH2 0xE48 JUMPI PUSH1 0x0 PUSH1 0x7 PUSH1 0x0 DUP7 PUSH20 0xFFFFFFFFFFFFFFFFFFFFFFFFFFFFFFFFFFFFFFFF AND PUSH20 0xFFFFFFFFFFFFFFFFFFFFFFFFFFFFFFFFFFFFFFFF AND DUP2 MSTORE PUSH1 0x20 ADD SWAP1 DUP2 MSTORE PUSH1 0x20 ADD PUSH1 0x0 KECCAK256 PUSH1 0x1 PUSH1 0x7 PUSH1 0x0 DUP9 PUSH20 0xFFFFFFFFFFFFFFFFFFFFFFFFFFFFFFFFFFFFFFFF AND PUSH20 0xFFFFFFFFFFFFFFFFFFFFFFFFFFFFFFFFFFFFFFFF AND DUP2 MSTORE PUSH1 0x20 ADD SWAP1 DUP2 MSTORE PUSH1 0x20 ADD PUSH1 0x0 KECCAK256 DUP1 SLOAD SWAP1 POP PUSH2 0xD1F SWAP2 SWAP1 PUSH2 0x1AD1 JUMP JUMPDEST DUP2 SLOAD DUP2 LT PUSH2 0xD30 JUMPI PUSH2 0xD2F PUSH2 0x1CB8 JUMP JUMPDEST JUMPDEST SWAP1 PUSH1 0x0 MSTORE PUSH1 0x20 PUSH1 0x0 KECCAK256 ADD SLOAD SWAP1 POP PUSH1 0x6 PUSH1 0x0 DUP4 PUSH1 0x1 SLOAD PUSH2 0xD4F SWAP2 SWAP1 PUSH2 0x1AD1 JUMP JUMPDEST DUP2 MSTORE PUSH1 0x20 ADD SWAP1 DUP2 MSTORE PUSH1 0x20 ADD PUSH1 0x0 KECCAK256 PUSH1 0x0 SWAP1 SLOAD SWAP1 PUSH2 0x100 EXP SWAP1 DIV PUSH20 0xFFFFFFFFFFFFFFFFFFFFFFFFFFFFFFFFFFFFFFFF AND PUSH1 0x6 PUSH1 0x0 DUP4 DUP2 MSTORE PUSH1 0x20 ADD SWAP1 DUP2 MSTORE PUSH1 0x20 ADD PUSH1 0x0 KECCAK256 PUSH1 0x0 PUSH2 0x100 EXP DUP2 SLOAD DUP2 PUSH20 0xFFFFFFFFFFFFFFFFFFFFFFFFFFFFFFFFFFFFFFFF MUL NOT AND SWAP1 DUP4 PUSH20 0xFFFFFFFFFFFFFFFFFFFFFFFFFFFFFFFFFFFFFFFF AND MUL OR SWAP1 SSTORE POP PUSH1 0x7 PUSH1 0x0 DUP7 PUSH20 0xFFFFFFFFFFFFFFFFFFFFFFFFFFFFFFFFFFFFFFFF AND PUSH20 0xFFFFFFFFFFFFFFFFFFFFFFFFFFFFFFFFFFFFFFFF AND DUP2 MSTORE PUSH1 0x20 ADD SWAP1 DUP2 MSTORE PUSH1 0x20 ADD PUSH1 0x0 KECCAK256 DUP1 SLOAD DUP1 PUSH2 0xE1E JUMPI PUSH2 0xE1D PUSH2 0x1C89 JUMP JUMPDEST JUMPDEST PUSH1 0x1 SWAP1 SUB DUP2 DUP2 SWAP1 PUSH1 0x0 MSTORE PUSH1 0x20 PUSH1 0x0 KECCAK256 ADD PUSH1 0x0 SWAP1 SSTORE SWAP1 SSTORE POP DUP1 DUP1 PUSH2 0xE40 SWAP1 PUSH2 0x1B83 JUMP JUMPDEST SWAP2 POP POP PUSH2 0xC88 JUMP JUMPDEST POP DUP2 PUSH1 0x1 PUSH1 0x0 DUP3 DUP3 SLOAD PUSH2 0xE5B SWAP2 SWAP1 PUSH2 0x1AD1 JUMP JUMPDEST SWAP3 POP POP DUP2 SWAP1 SSTORE POP POP JUMPDEST POP POP JUMP JUMPDEST PUSH1 0x5 PUSH1 0x20 MSTORE DUP1 PUSH1 0x0 MSTORE PUSH1 0x40 PUSH1 0x0 KECCAK256 PUSH1 0x0 SWAP2 POP SWAP1 POP DUP1 PUSH1 0x0 ADD SLOAD SWAP1 DUP1 PUSH1 0x1 ADD SLOAD SWAP1 DUP1 PUSH1 0x2 ADD SLOAD SWAP1 DUP1 PUSH1 0x3 ADD SLOAD SWAP1 DUP1 PUSH1 0x4 ADD PUSH1 0x0 SWAP1 SLOAD SWAP1 PUSH2 0x100 EXP SWAP1 DIV PUSH20 0xFFFFFFFFFFFFFFFFFFFFFFFFFFFFFFFFFFFFFFFF AND SWAP1 POP DUP6 JUMP JUMPDEST PUSH1 0x6 PUSH1 0x20 MSTORE DUP1 PUSH1 0x0 MSTORE PUSH1 0x40 PUSH1 0x0 KECCAK256 PUSH1 0x0 SWAP2 POP SLOAD SWAP1 PUSH2 0x100 EXP SWAP1 DIV PUSH20 0xFFFFFFFFFFFFFFFFFFFFFFFFFFFFFFFFFFFFFFFF AND DUP2 JUMP JUMPDEST PUSH1 0x60 PUSH1 0x2 SLOAD DUP3 LT PUSH2 0xF0E JUMPI PUSH1 0x1 PUSH1 0x2 SLOAD PUSH2 0xF0B SWAP2 SWAP1 PUSH2 0x1AD1 JUMP JUMPDEST SWAP2 POP JUMPDEST PUSH1 0x0 PUSH1 0x1 DUP5 DUP5 PUSH2 0xF1E SWAP2 SWAP1 PUSH2 0x1AD1 JUMP JUMPDEST PUSH2 0xF28 SWAP2 SWAP1 PUSH2 0x1A7B JUMP JUMPDEST SWAP1 POP PUSH1 0x0 DUP2 PUSH8 0xFFFFFFFFFFFFFFFF DUP2 GT ISZERO PUSH2 0xF46 JUMPI PUSH2 0xF45 PUSH2 0x1CE7 JUMP JUMPDEST JUMPDEST PUSH1 0x40 MLOAD SWAP1 DUP1 DUP3 MSTORE DUP1 PUSH1 0x20 MUL PUSH1 0x20 ADD DUP3 ADD PUSH1 0x40 MSTORE DUP1 ISZERO PUSH2 0xF7F JUMPI DUP2 PUSH1 0x20 ADD JUMPDEST PUSH2 0xF6C PUSH2 0x1348 JUMP JUMPDEST DUP2 MSTORE PUSH1 0x20 ADD SWAP1 PUSH1 0x1 SWAP1 SUB SWAP1 DUP2 PUSH2 0xF64 JUMPI SWAP1 POP JUMPDEST POP SWAP3 POP PUSH1 0x0 DUP6 SWAP1 POP JUMPDEST DUP5 DUP2 GT PUSH2 0x1075 JUMPI PUSH1 0x5 PUSH1 0x0 DUP3 DUP9 PUSH2 0xF9F SWAP2 SWAP1 PUSH2 0x1A7B JUMP JUMPDEST DUP2 MSTORE PUSH1 0x20 ADD SWAP1 DUP2 MSTORE PUSH1 0x20 ADD PUSH1 0x0 KECCAK256 PUSH1 0x40 MLOAD DUP1 PUSH1 0xA0 ADD PUSH1 0x40 MSTORE SWAP1 DUP2 PUSH1 0x0 DUP3 ADD SLOAD DUP2 MSTORE PUSH1 0x20 ADD PUSH1 0x1 DUP3 ADD SLOAD DUP2 MSTORE PUSH1 0x20 ADD PUSH1 0x2 DUP3 ADD SLOAD DUP2 MSTORE PUSH1 0x20 ADD PUSH1 0x3 DUP3 ADD SLOAD DUP2 MSTORE PUSH1 0x20 ADD PUSH1 0x4 DUP3 ADD PUSH1 0x0 SWAP1 SLOAD SWAP1 PUSH2 0x100 EXP SWAP1 DIV PUSH20 0xFFFFFFFFFFFFFFFFFFFFFFFFFFFFFFFFFFFFFFFF AND PUSH20 0xFFFFFFFFFFFFFFFFFFFFFFFFFFFFFFFFFFFFFFFF AND PUSH20 0xFFFFFFFFFFFFFFFFFFFFFFFFFFFFFFFFFFFFFFFF AND DUP2 MSTORE POP POP DUP5 DUP4 DUP2 MLOAD DUP2 LT PUSH2 0x1049 JUMPI PUSH2 0x1048 PUSH2 0x1CB8 JUMP JUMPDEST JUMPDEST PUSH1 0x20 MUL PUSH1 0x20 ADD ADD DUP2 SWAP1 MSTORE POP DUP2 DUP1 PUSH2 0x105F SWAP1 PUSH2 0x1B83 JUMP JUMPDEST SWAP3 POP POP DUP1 DUP1 PUSH2 0x106D SWAP1 PUSH2 0x1B83 JUMP JUMPDEST SWAP2 POP POP PUSH2 0xF88 JUMP JUMPDEST POP POP POP SWAP3 SWAP2 POP POP JUMP JUMPDEST PUSH1 0x0 PUSH2 0x1089 DUP3 PUSH2 0xC0D JUMP JUMPDEST SWAP1 POP PUSH2 0x1095 DUP3 DUP3 PUSH2 0xC59 JUMP JUMPDEST POP POP JUMP JUMPDEST PUSH2 0x10A1 PUSH2 0x1243 JUMP JUMPDEST PUSH20 0xFFFFFFFFFFFFFFFFFFFFFFFFFFFFFFFFFFFFFFFF AND PUSH2 0x10BF PUSH2 0xBBE JUMP JUMPDEST PUSH20 0xFFFFFFFFFFFFFFFFFFFFFFFFFFFFFFFFFFFFFFFF AND EQ PUSH2 0x1115 JUMPI PUSH1 0x40 MLOAD PUSH32 0x8C379A000000000000000000000000000000000000000000000000000000000 DUP2 MSTORE PUSH1 0x4 ADD PUSH2 0x110C SWAP1 PUSH2 0x1931 JUMP JUMPDEST PUSH1 0x40 MLOAD DUP1 SWAP2 SUB SWAP1 REVERT JUMPDEST PUSH1 0x0 PUSH20 0xFFFFFFFFFFFFFFFFFFFFFFFFFFFFFFFFFFFFFFFF AND DUP2 PUSH20 0xFFFFFFFFFFFFFFFFFFFFFFFFFFFFFFFFFFFFFFFF AND EQ ISZERO PUSH2 0x1185 JUMPI PUSH1 0x40 MLOAD PUSH32 0x8C379A000000000000000000000000000000000000000000000000000000000 DUP2 MSTORE PUSH1 0x4 ADD PUSH2 0x117C SWAP1 PUSH2 0x18F1 JUMP JUMPDEST PUSH1 0x40 MLOAD DUP1 SWAP2 SUB SWAP1 REVERT JUMPDEST PUSH2 0x118E DUP2 PUSH2 0x1284 JUMP JUMPDEST POP JUMP JUMPDEST PUSH1 0x0 PUSH1 0x4 PUSH1 0x0 SWAP1 SLOAD SWAP1 PUSH2 0x100 EXP SWAP1 DIV PUSH20 0xFFFFFFFFFFFFFFFFFFFFFFFFFFFFFFFFFFFFFFFF AND PUSH20 0xFFFFFFFFFFFFFFFFFFFFFFFFFFFFFFFFFFFFFFFF AND PUSH4 0x70A08231 ADDRESS PUSH1 0x40 MLOAD DUP3 PUSH4 0xFFFFFFFF AND PUSH1 0xE0 SHL DUP2 MSTORE PUSH1 0x4 ADD PUSH2 0x11EE SWAP2 SWAP1 PUSH2 0x181E JUMP JUMPDEST PUSH1 0x20 PUSH1 0x40 MLOAD DUP1 DUP4 SUB DUP2 DUP7 DUP1 EXTCODESIZE ISZERO DUP1 ISZERO PUSH2 0x1206 JUMPI PUSH1 0x0 DUP1 REVERT JUMPDEST POP GAS STATICCALL ISZERO DUP1 ISZERO PUSH2 0x121A JUMPI RETURNDATASIZE PUSH1 0x0 DUP1 RETURNDATACOPY RETURNDATASIZE PUSH1 0x0 REVERT JUMPDEST POP POP POP POP PUSH1 0x40 MLOAD RETURNDATASIZE PUSH1 0x1F NOT PUSH1 0x1F DUP3 ADD AND DUP3 ADD DUP1 PUSH1 0x40 MSTORE POP DUP2 ADD SWAP1 PUSH2 0x123E SWAP2 SWAP1 PUSH2 0x14A8 JUMP JUMPDEST SWAP1 POP SWAP1 JUMP JUMPDEST PUSH1 0x0 CALLER SWAP1 POP SWAP1 JUMP JUMPDEST PUSH1 0x0 TIMESTAMP GAS CALLER PUSH1 0x3 SLOAD PUSH1 0x40 MLOAD PUSH1 0x20 ADD PUSH2 0x1266 SWAP5 SWAP4 SWAP3 SWAP2 SWAP1 PUSH2 0x17D0 JUMP JUMPDEST PUSH1 0x40 MLOAD PUSH1 0x20 DUP2 DUP4 SUB SUB DUP2 MSTORE SWAP1 PUSH1 0x40 MSTORE DUP1 MLOAD SWAP1 PUSH1 0x20 ADD KECCAK256 PUSH1 0x0 SHR SWAP1 POP SWAP1 JUMP JUMPDEST PUSH1 0x0 DUP1 PUSH1 0x0 SWAP1 SLOAD SWAP1 PUSH2 0x100 EXP SWAP1 DIV PUSH20 0xFFFFFFFFFFFFFFFFFFFFFFFFFFFFFFFFFFFFFFFF AND SWAP1 POP DUP2 PUSH1 0x0 DUP1 PUSH2 0x100 EXP DUP2 SLOAD DUP2 PUSH20 0xFFFFFFFFFFFFFFFFFFFFFFFFFFFFFFFFFFFFFFFF MUL NOT AND SWAP1 DUP4 PUSH20 0xFFFFFFFFFFFFFFFFFFFFFFFFFFFFFFFFFFFFFFFF AND MUL OR SWAP1 SSTORE POP DUP2 PUSH20 0xFFFFFFFFFFFFFFFFFFFFFFFFFFFFFFFFFFFFFFFF AND DUP2 PUSH20 0xFFFFFFFFFFFFFFFFFFFFFFFFFFFFFFFFFFFFFFFF AND PUSH32 0x8BE0079C531659141344CD1FD0A4F28419497F9722A3DAAFE3B4186F6B6457E0 PUSH1 0x40 MLOAD PUSH1 0x40 MLOAD DUP1 SWAP2 SUB SWAP1 LOG3 POP POP JUMP JUMPDEST PUSH1 0x40 MLOAD DUP1 PUSH1 0xA0 ADD PUSH1 0x40 MSTORE DUP1 PUSH1 0x0 DUP2 MSTORE PUSH1 0x20 ADD PUSH1 0x0 DUP2 MSTORE PUSH1 0x20 ADD PUSH1 0x0 DUP2 MSTORE PUSH1 0x20 ADD PUSH1 0x0 DUP2 MSTORE PUSH1 0x20 ADD PUSH1 0x0 PUSH20 0xFFFFFFFFFFFFFFFFFFFFFFFFFFFFFFFFFFFFFFFF AND DUP2 MSTORE POP SWAP1 JUMP JUMPDEST PUSH1 0x0 DUP2 CALLDATALOAD SWAP1 POP PUSH2 0x139C DUP2 PUSH2 0x1DC9 JUMP JUMPDEST SWAP3 SWAP2 POP POP JUMP JUMPDEST PUSH1 0x0 DUP2 MLOAD SWAP1 POP PUSH2 0x13B1 DUP2 PUSH2 0x1DE0 JUMP JUMPDEST SWAP3 SWAP2 POP POP JUMP JUMPDEST PUSH1 0x0 DUP2 CALLDATALOAD SWAP1 POP PUSH2 0x13C6 DUP2 PUSH2 0x1DF7 JUMP JUMPDEST SWAP3 SWAP2 POP POP JUMP JUMPDEST PUSH1 0x0 DUP2 MLOAD SWAP1 POP PUSH2 0x13DB DUP2 PUSH2 0x1DF7 JUMP JUMPDEST SWAP3 SWAP2 POP POP JUMP JUMPDEST PUSH1 0x0 PUSH1 0x20 DUP3 DUP5 SUB SLT ISZERO PUSH2 0x13F7 JUMPI PUSH2 0x13F6 PUSH2 0x1D16 JUMP JUMPDEST JUMPDEST PUSH1 0x0 PUSH2 0x1405 DUP5 DUP3 DUP6 ADD PUSH2 0x138D JUMP JUMPDEST SWAP2 POP POP SWAP3 SWAP2 POP POP JUMP JUMPDEST PUSH1 0x0 DUP1 PUSH1 0x40 DUP4 DUP6 SUB SLT ISZERO PUSH2 0x1425 JUMPI PUSH2 0x1424 PUSH2 0x1D16 JUMP JUMPDEST JUMPDEST PUSH1 0x0 PUSH2 0x1433 DUP6 DUP3 DUP7 ADD PUSH2 0x138D JUMP JUMPDEST SWAP3 POP POP PUSH1 0x20 PUSH2 0x1444 DUP6 DUP3 DUP7 ADD PUSH2 0x13B7 JUMP JUMPDEST SWAP2 POP POP SWAP3 POP SWAP3 SWAP1 POP JUMP JUMPDEST PUSH1 0x0 PUSH1 0x20 DUP3 DUP5 SUB SLT ISZERO PUSH2 0x1464 JUMPI PUSH2 0x1463 PUSH2 0x1D16 JUMP JUMPDEST JUMPDEST PUSH1 0x0 PUSH2 0x1472 DUP5 DUP3 DUP6 ADD PUSH2 0x13A2 JUMP JUMPDEST SWAP2 POP POP SWAP3 SWAP2 POP POP JUMP JUMPDEST PUSH1 0x0 PUSH1 0x20 DUP3 DUP5 SUB SLT ISZERO PUSH2 0x1491 JUMPI PUSH2 0x1490 PUSH2 0x1D16 JUMP JUMPDEST JUMPDEST PUSH1 0x0 PUSH2 0x149F DUP5 DUP3 DUP6 ADD PUSH2 0x13B7 JUMP JUMPDEST SWAP2 POP POP SWAP3 SWAP2 POP POP JUMP JUMPDEST PUSH1 0x0 PUSH1 0x20 DUP3 DUP5 SUB SLT ISZERO PUSH2 0x14BE JUMPI PUSH2 0x14BD PUSH2 0x1D16 JUMP JUMPDEST JUMPDEST PUSH1 0x0 PUSH2 0x14CC DUP5 DUP3 DUP6 ADD PUSH2 0x13CC JUMP JUMPDEST SWAP2 POP POP SWAP3 SWAP2 POP POP JUMP JUMPDEST PUSH1 0x0 DUP1 PUSH1 0x40 DUP4 DUP6 SUB SLT ISZERO PUSH2 0x14EC JUMPI PUSH2 0x14EB PUSH2 0x1D16 JUMP JUMPDEST JUMPDEST PUSH1 0x0 PUSH2 0x14FA DUP6 DUP3 DUP7 ADD PUSH2 0x13B7 JUMP JUMPDEST SWAP3 POP POP PUSH1 0x20 PUSH2 0x150B DUP6 DUP3 DUP7 ADD PUSH2 0x13B7 JUMP JUMPDEST SWAP2 POP POP SWAP3 POP SWAP3 SWAP1 POP JUMP JUMPDEST PUSH1 0x0 PUSH2 0x1521 DUP4 DUP4 PUSH2 0x155D JUMP JUMPDEST PUSH1 0x20 DUP4 ADD SWAP1 POP SWAP3 SWAP2 POP POP JUMP JUMPDEST PUSH1 0x0 PUSH2 0x1539 DUP4 DUP4 PUSH2 0x1733 JUMP JUMPDEST PUSH1 0xA0 DUP4 ADD SWAP1 POP SWAP3 SWAP2 POP POP JUMP JUMPDEST PUSH1 0x0 PUSH2 0x1551 DUP4 DUP4 PUSH2 0x179B JUMP JUMPDEST PUSH1 0x20 DUP4 ADD SWAP1 POP SWAP3 SWAP2 POP POP JUMP JUMPDEST PUSH2 0x1566 DUP2 PUSH2 0x1B05 JUMP JUMPDEST DUP3 MSTORE POP POP JUMP JUMPDEST PUSH2 0x1575 DUP2 PUSH2 0x1B05 JUMP JUMPDEST DUP3 MSTORE POP POP JUMP JUMPDEST PUSH2 0x158C PUSH2 0x1587 DUP3 PUSH2 0x1B05 JUMP JUMPDEST PUSH2 0x1BCC JUMP JUMPDEST DUP3 MSTORE POP POP JUMP JUMPDEST PUSH1 0x0 PUSH2 0x159D DUP3 PUSH2 0x19EF JUMP JUMPDEST PUSH2 0x15A7 DUP2 DUP6 PUSH2 0x1A37 JUMP JUMPDEST SWAP4 POP PUSH2 0x15B2 DUP4 PUSH2 0x19BF JUMP JUMPDEST DUP1 PUSH1 0x0 JUMPDEST DUP4 DUP2 LT ISZERO PUSH2 0x15E3 JUMPI DUP2 MLOAD PUSH2 0x15CA DUP9 DUP3 PUSH2 0x1515 JUMP JUMPDEST SWAP8 POP PUSH2 0x15D5 DUP4 PUSH2 0x1A10 JUMP JUMPDEST SWAP3 POP POP PUSH1 0x1 DUP2 ADD SWAP1 POP PUSH2 0x15B6 JUMP JUMPDEST POP DUP6 SWAP4 POP POP POP POP SWAP3 SWAP2 POP POP JUMP JUMPDEST PUSH1 0x0 PUSH2 0x15FB DUP3 PUSH2 0x19FA JUMP JUMPDEST PUSH2 0x1605 DUP2 DUP6 PUSH2 0x1A48 JUMP JUMPDEST SWAP4 POP PUSH2 0x1610 DUP4 PUSH2 0x19CF JUMP JUMPDEST DUP1 PUSH1 0x0 JUMPDEST DUP4 DUP2 LT ISZERO PUSH2 0x1641 JUMPI DUP2 MLOAD PUSH2 0x1628 DUP9 DUP3 PUSH2 0x152D JUMP JUMPDEST SWAP8 POP PUSH2 0x1633 DUP4 PUSH2 0x1A1D JUMP JUMPDEST SWAP3 POP POP PUSH1 0x1 DUP2 ADD SWAP1 POP PUSH2 0x1614 JUMP JUMPDEST POP DUP6 SWAP4 POP POP POP POP SWAP3 SWAP2 POP POP JUMP JUMPDEST PUSH1 0x0 PUSH2 0x1659 DUP3 PUSH2 0x1A05 JUMP JUMPDEST PUSH2 0x1663 DUP2 DUP6 PUSH2 0x1A59 JUMP JUMPDEST SWAP4 POP PUSH2 0x166E DUP4 PUSH2 0x19DF JUMP JUMPDEST DUP1 PUSH1 0x0 JUMPDEST DUP4 DUP2 LT ISZERO PUSH2 0x169F JUMPI DUP2 MLOAD PUSH2 0x1686 DUP9 DUP3 PUSH2 0x1545 JUMP JUMPDEST SWAP8 POP PUSH2 0x1691 DUP4 PUSH2 0x1A2A JUMP JUMPDEST SWAP3 POP POP PUSH1 0x1 DUP2 ADD SWAP1 POP PUSH2 0x1672 JUMP JUMPDEST POP DUP6 SWAP4 POP POP POP POP SWAP3 SWAP2 POP POP JUMP JUMPDEST PUSH2 0x16B5 DUP2 PUSH2 0x1B17 JUMP JUMPDEST DUP3 MSTORE POP POP JUMP JUMPDEST PUSH2 0x16C4 DUP2 PUSH2 0x1B4D JUMP JUMPDEST DUP3 MSTORE POP POP JUMP JUMPDEST PUSH1 0x0 PUSH2 0x16D7 PUSH1 0x26 DUP4 PUSH2 0x1A6A JUMP JUMPDEST SWAP2 POP PUSH2 0x16E2 DUP3 PUSH2 0x1D28 JUMP JUMPDEST PUSH1 0x40 DUP3 ADD SWAP1 POP SWAP2 SWAP1 POP JUMP JUMPDEST PUSH1 0x0 PUSH2 0x16FA PUSH1 0x18 DUP4 PUSH2 0x1A6A JUMP JUMPDEST SWAP2 POP PUSH2 0x1705 DUP3 PUSH2 0x1D77 JUMP JUMPDEST PUSH1 0x20 DUP3 ADD SWAP1 POP SWAP2 SWAP1 POP JUMP JUMPDEST PUSH1 0x0 PUSH2 0x171D PUSH1 0x20 DUP4 PUSH2 0x1A6A JUMP JUMPDEST SWAP2 POP PUSH2 0x1728 DUP3 PUSH2 0x1DA0 JUMP JUMPDEST PUSH1 0x20 DUP3 ADD SWAP1 POP SWAP2 SWAP1 POP JUMP JUMPDEST PUSH1 0xA0 DUP3 ADD PUSH1 0x0 DUP3 ADD MLOAD PUSH2 0x1749 PUSH1 0x0 DUP6 ADD DUP3 PUSH2 0x179B JUMP JUMPDEST POP PUSH1 0x20 DUP3 ADD MLOAD PUSH2 0x175C PUSH1 0x20 DUP6 ADD DUP3 PUSH2 0x179B JUMP JUMPDEST POP PUSH1 0x40 DUP3 ADD MLOAD PUSH2 0x176F PUSH1 0x40 DUP6 ADD DUP3 PUSH2 0x179B JUMP JUMPDEST POP PUSH1 0x60 DUP3 ADD MLOAD PUSH2 0x1782 PUSH1 0x60 DUP6 ADD DUP3 PUSH2 0x179B JUMP JUMPDEST POP PUSH1 0x80 DUP3 ADD MLOAD PUSH2 0x1795 PUSH1 0x80 DUP6 ADD DUP3 PUSH2 0x155D JUMP JUMPDEST POP POP POP POP JUMP JUMPDEST PUSH2 0x17A4 DUP2 PUSH2 0x1B43 JUMP JUMPDEST DUP3 MSTORE POP POP JUMP JUMPDEST PUSH2 0x17B3 DUP2 PUSH2 0x1B43 JUMP JUMPDEST DUP3 MSTORE POP POP JUMP JUMPDEST PUSH2 0x17CA PUSH2 0x17C5 DUP3 PUSH2 0x1B43 JUMP JUMPDEST PUSH2 0x1BF0 JUMP JUMPDEST DUP3 MSTORE POP POP JUMP JUMPDEST PUSH1 0x0 PUSH2 0x17DC DUP3 DUP8 PUSH2 0x17B9 JUMP JUMPDEST PUSH1 0x20 DUP3 ADD SWAP2 POP PUSH2 0x17EC DUP3 DUP7 PUSH2 0x17B9 JUMP JUMPDEST PUSH1 0x20 DUP3 ADD SWAP2 POP PUSH2 0x17FC DUP3 DUP6 PUSH2 0x157B JUMP JUMPDEST PUSH1 0x14 DUP3 ADD SWAP2 POP PUSH2 0x180C DUP3 DUP5 PUSH2 0x17B9 JUMP JUMPDEST PUSH1 0x20 DUP3 ADD SWAP2 POP DUP2 SWAP1 POP SWAP6 SWAP5 POP POP POP POP POP JUMP JUMPDEST PUSH1 0x0 PUSH1 0x20 DUP3 ADD SWAP1 POP PUSH2 0x1833 PUSH1 0x0 DUP4 ADD DUP5 PUSH2 0x156C JUMP JUMPDEST SWAP3 SWAP2 POP POP JUMP JUMPDEST PUSH1 0x0 PUSH1 0x40 DUP3 ADD SWAP1 POP PUSH2 0x184E PUSH1 0x0 DUP4 ADD DUP6 PUSH2 0x156C JUMP JUMPDEST PUSH2 0x185B PUSH1 0x20 DUP4 ADD DUP5 PUSH2 0x17AA JUMP JUMPDEST SWAP4 SWAP3 POP POP POP JUMP JUMPDEST PUSH1 0x0 PUSH1 0x40 DUP3 ADD SWAP1 POP DUP2 DUP2 SUB PUSH1 0x0 DUP4 ADD MSTORE PUSH2 0x187C DUP2 DUP6 PUSH2 0x1592 JUMP JUMPDEST SWAP1 POP DUP2 DUP2 SUB PUSH1 0x20 DUP4 ADD MSTORE PUSH2 0x1890 DUP2 DUP5 PUSH2 0x164E JUMP JUMPDEST SWAP1 POP SWAP4 SWAP3 POP POP POP JUMP JUMPDEST PUSH1 0x0 PUSH1 0x20 DUP3 ADD SWAP1 POP DUP2 DUP2 SUB PUSH1 0x0 DUP4 ADD MSTORE PUSH2 0x18B3 DUP2 DUP5 PUSH2 0x15F0 JUMP JUMPDEST SWAP1 POP SWAP3 SWAP2 POP POP JUMP JUMPDEST PUSH1 0x0 PUSH1 0x20 DUP3 ADD SWAP1 POP PUSH2 0x18D0 PUSH1 0x0 DUP4 ADD DUP5 PUSH2 0x16AC JUMP JUMPDEST SWAP3 SWAP2 POP POP JUMP JUMPDEST PUSH1 0x0 PUSH1 0x20 DUP3 ADD SWAP1 POP PUSH2 0x18EB PUSH1 0x0 DUP4 ADD DUP5 PUSH2 0x16BB JUMP JUMPDEST SWAP3 SWAP2 POP POP JUMP JUMPDEST PUSH1 0x0 PUSH1 0x20 DUP3 ADD SWAP1 POP DUP2 DUP2 SUB PUSH1 0x0 DUP4 ADD MSTORE PUSH2 0x190A DUP2 PUSH2 0x16CA JUMP JUMPDEST SWAP1 POP SWAP2 SWAP1 POP JUMP JUMPDEST PUSH1 0x0 PUSH1 0x20 DUP3 ADD SWAP1 POP DUP2 DUP2 SUB PUSH1 0x0 DUP4 ADD MSTORE PUSH2 0x192A DUP2 PUSH2 0x16ED JUMP JUMPDEST SWAP1 POP SWAP2 SWAP1 POP JUMP JUMPDEST PUSH1 0x0 PUSH1 0x20 DUP3 ADD SWAP1 POP DUP2 DUP2 SUB PUSH1 0x0 DUP4 ADD MSTORE PUSH2 0x194A DUP2 PUSH2 0x1710 JUMP JUMPDEST SWAP1 POP SWAP2 SWAP1 POP JUMP JUMPDEST PUSH1 0x0 PUSH1 0x20 DUP3 ADD SWAP1 POP PUSH2 0x1966 PUSH1 0x0 DUP4 ADD DUP5 PUSH2 0x17AA JUMP JUMPDEST SWAP3 SWAP2 POP POP JUMP JUMPDEST PUSH1 0x0 PUSH1 0xA0 DUP3 ADD SWAP1 POP PUSH2 0x1981 PUSH1 0x0 DUP4 ADD DUP9 PUSH2 0x17AA JUMP JUMPDEST PUSH2 0x198E PUSH1 0x20 DUP4 ADD DUP8 PUSH2 0x17AA JUMP JUMPDEST PUSH2 0x199B PUSH1 0x40 DUP4 ADD DUP7 PUSH2 0x17AA JUMP JUMPDEST PUSH2 0x19A8 PUSH1 0x60 DUP4 ADD DUP6 PUSH2 0x17AA JUMP JUMPDEST PUSH2 0x19B5 PUSH1 0x80 DUP4 ADD DUP5 PUSH2 0x156C JUMP JUMPDEST SWAP7 SWAP6 POP POP POP POP POP POP JUMP JUMPDEST PUSH1 0x0 DUP2 SWAP1 POP PUSH1 0x20 DUP3 ADD SWAP1 POP SWAP2 SWAP1 POP JUMP JUMPDEST PUSH1 0x0 DUP2 SWAP1 POP PUSH1 0x20 DUP3 ADD SWAP1 POP SWAP2 SWAP1 POP JUMP JUMPDEST PUSH1 0x0 DUP2 SWAP1 POP PUSH1 0x20 DUP3 ADD SWAP1 POP SWAP2 SWAP1 POP JUMP JUMPDEST PUSH1 0x0 DUP2 MLOAD SWAP1 POP SWAP2 SWAP1 POP JUMP JUMPDEST PUSH1 0x0 DUP2 MLOAD SWAP1 POP SWAP2 SWAP1 POP JUMP JUMPDEST PUSH1 0x0 DUP2 MLOAD SWAP1 POP SWAP2 SWAP1 POP JUMP JUMPDEST PUSH1 0x0 PUSH1 0x20 DUP3 ADD SWAP1 POP SWAP2 SWAP1 POP JUMP JUMPDEST PUSH1 0x0 PUSH1 0x20 DUP3 ADD SWAP1 POP SWAP2 SWAP1 POP JUMP JUMPDEST PUSH1 0x0 PUSH1 0x20 DUP3 ADD SWAP1 POP SWAP2 SWAP1 POP JUMP JUMPDEST PUSH1 0x0 DUP3 DUP3 MSTORE PUSH1 0x20 DUP3 ADD SWAP1 POP SWAP3 SWAP2 POP POP JUMP JUMPDEST PUSH1 0x0 DUP3 DUP3 MSTORE PUSH1 0x20 DUP3 ADD SWAP1 POP SWAP3 SWAP2 POP POP JUMP JUMPDEST PUSH1 0x0 DUP3 DUP3 MSTORE PUSH1 0x20 DUP3 ADD SWAP1 POP SWAP3 SWAP2 POP POP JUMP JUMPDEST PUSH1 0x0 DUP3 DUP3 MSTORE PUSH1 0x20 DUP3 ADD SWAP1 POP SWAP3 SWAP2 POP POP JUMP JUMPDEST PUSH1 0x0 PUSH2 0x1A86 DUP3 PUSH2 0x1B43 JUMP JUMPDEST SWAP2 POP PUSH2 0x1A91 DUP4 PUSH2 0x1B43 JUMP JUMPDEST SWAP3 POP DUP3 PUSH32 0xFFFFFFFFFFFFFFFFFFFFFFFFFFFFFFFFFFFFFFFFFFFFFFFFFFFFFFFFFFFFFFFF SUB DUP3 GT ISZERO PUSH2 0x1AC6 JUMPI PUSH2 0x1AC5 PUSH2 0x1C2B JUMP JUMPDEST JUMPDEST DUP3 DUP3 ADD SWAP1 POP SWAP3 SWAP2 POP POP JUMP JUMPDEST PUSH1 0x0 PUSH2 0x1ADC DUP3 PUSH2 0x1B43 JUMP JUMPDEST SWAP2 POP PUSH2 0x1AE7 DUP4 PUSH2 0x1B43 JUMP JUMPDEST SWAP3 POP DUP3 DUP3 LT ISZERO PUSH2 0x1AFA JUMPI PUSH2 0x1AF9 PUSH2 0x1C2B JUMP JUMPDEST JUMPDEST DUP3 DUP3 SUB SWAP1 POP SWAP3 SWAP2 POP POP JUMP JUMPDEST PUSH1 0x0 PUSH2 0x1B10 DUP3 PUSH2 0x1B23 JUMP JUMPDEST SWAP1 POP SWAP2 SWAP1 POP JUMP JUMPDEST PUSH1 0x0 DUP2 ISZERO ISZERO SWAP1 POP SWAP2 SWAP1 POP JUMP JUMPDEST PUSH1 0x0 PUSH20 0xFFFFFFFFFFFFFFFFFFFFFFFFFFFFFFFFFFFFFFFF DUP3 AND SWAP1 POP SWAP2 SWAP1 POP JUMP JUMPDEST PUSH1 0x0 DUP2 SWAP1 POP SWAP2 SWAP1 POP JUMP JUMPDEST PUSH1 0x0 PUSH2 0x1B58 DUP3 PUSH2 0x1B5F JUMP JUMPDEST SWAP1 POP SWAP2 SWAP1 POP JUMP JUMPDEST PUSH1 0x0 PUSH2 0x1B6A DUP3 PUSH2 0x1B71 JUMP JUMPDEST SWAP1 POP SWAP2 SWAP1 POP JUMP JUMPDEST PUSH1 0x0 PUSH2 0x1B7C DUP3 PUSH2 0x1B23 JUMP JUMPDEST SWAP1 POP SWAP2 SWAP1 POP JUMP JUMPDEST PUSH1 0x0 PUSH2 0x1B8E DUP3 PUSH2 0x1B43 JUMP JUMPDEST SWAP2 POP PUSH32 0xFFFFFFFFFFFFFFFFFFFFFFFFFFFFFFFFFFFFFFFFFFFFFFFFFFFFFFFFFFFFFFFF DUP3 EQ ISZERO PUSH2 0x1BC1 JUMPI PUSH2 0x1BC0 PUSH2 0x1C2B JUMP JUMPDEST JUMPDEST PUSH1 0x1 DUP3 ADD SWAP1 POP SWAP2 SWAP1 POP JUMP JUMPDEST PUSH1 0x0 PUSH2 0x1BD7 DUP3 PUSH2 0x1BDE JUMP JUMPDEST SWAP1 POP SWAP2 SWAP1 POP JUMP JUMPDEST PUSH1 0x0 PUSH2 0x1BE9 DUP3 PUSH2 0x1D1B JUMP JUMPDEST SWAP1 POP SWAP2 SWAP1 POP JUMP JUMPDEST PUSH1 0x0 DUP2 SWAP1 POP SWAP2 SWAP1 POP JUMP JUMPDEST PUSH1 0x0 PUSH2 0x1C05 DUP3 PUSH2 0x1B43 JUMP JUMPDEST SWAP2 POP PUSH2 0x1C10 DUP4 PUSH2 0x1B43 JUMP JUMPDEST SWAP3 POP DUP3 PUSH2 0x1C20 JUMPI PUSH2 0x1C1F PUSH2 0x1C5A JUMP JUMPDEST JUMPDEST DUP3 DUP3 MOD SWAP1 POP SWAP3 SWAP2 POP POP JUMP JUMPDEST PUSH32 0x4E487B7100000000000000000000000000000000000000000000000000000000 PUSH1 0x0 MSTORE PUSH1 0x11 PUSH1 0x4 MSTORE PUSH1 0x24 PUSH1 0x0 REVERT JUMPDEST PUSH32 0x4E487B7100000000000000000000000000000000000000000000000000000000 PUSH1 0x0 MSTORE PUSH1 0x12 PUSH1 0x4 MSTORE PUSH1 0x24 PUSH1 0x0 REVERT JUMPDEST PUSH32 0x4E487B7100000000000000000000000000000000000000000000000000000000 PUSH1 0x0 MSTORE PUSH1 0x31 PUSH1 0x4 MSTORE PUSH1 0x24 PUSH1 0x0 REVERT JUMPDEST PUSH32 0x4E487B7100000000000000000000000000000000000000000000000000000000 PUSH1 0x0 MSTORE PUSH1 0x32 PUSH1 0x4 MSTORE PUSH1 0x24 PUSH1 0x0 REVERT JUMPDEST PUSH32 0x4E487B7100000000000000000000000000000000000000000000000000000000 PUSH1 0x0 MSTORE PUSH1 0x41 PUSH1 0x4 MSTORE PUSH1 0x24 PUSH1 0x0 REVERT JUMPDEST PUSH1 0x0 DUP1 REVERT JUMPDEST PUSH1 0x0 DUP2 PUSH1 0x60 SHL SWAP1 POP SWAP2 SWAP1 POP JUMP JUMPDEST PUSH32 0x4F776E61626C653A206E6577206F776E657220697320746865207A65726F2061 PUSH1 0x0 DUP3 ADD MSTORE PUSH32 0x6464726573730000000000000000000000000000000000000000000000000000 PUSH1 0x20 DUP3 ADD MSTORE POP JUMP JUMPDEST PUSH32 0x4E6F7420656E6F7567682066756E647320746F20647261770000000000000000 PUSH1 0x0 DUP3 ADD MSTORE POP JUMP JUMPDEST PUSH32 0x4F776E61626C653A2063616C6C6572206973206E6F7420746865206F776E6572 PUSH1 0x0 DUP3 ADD MSTORE POP JUMP JUMPDEST PUSH2 0x1DD2 DUP2 PUSH2 0x1B05 JUMP JUMPDEST DUP2 EQ PUSH2 0x1DDD JUMPI PUSH1 0x0 DUP1 REVERT JUMPDEST POP JUMP JUMPDEST PUSH2 0x1DE9 DUP2 PUSH2 0x1B17 JUMP JUMPDEST DUP2 EQ PUSH2 0x1DF4 JUMPI PUSH1 0x0 DUP1 REVERT JUMPDEST POP JUMP JUMPDEST PUSH2 0x1E00 DUP2 PUSH2 0x1B43 JUMP JUMPDEST DUP2 EQ PUSH2 0x1E0B JUMPI PUSH1 0x0 DUP1 REVERT JUMPDEST POP JUMP INVALID LOG2 PUSH5 0x6970667358 0x22 SLT KECCAK256 PUSH28 0x3ED866F397F96DE85EB628008A1BA8D711905DE27E1B9347A3D3A03E PUSH5 0x5C1364736F PUSH13 0x63430008070033000000000000 "
				},
				"gasEstimates": {
					"creation": {
						"codeDepositCost": "1549600",
						"executionCost": "infinite",
						"totalCost": "infinite"
					},
					"external": {
						"acesToken()": "2645",
						"currentJackpot()": "infinite",
						"entriesIndex(address,uint256)": "infinite",
						"getUniqueAddresses()": "infinite",
						"getUniqueUsers()": "infinite",
						"isActiveAccount(address)": "2962",
						"owner()": "2545",
						"pickWinner()": "infinite",
						"removeAccount(address)": "infinite",
						"removeEntryFromWallet(address,uint256)": "infinite",
						"renounceOwnership()": "30463",
						"resultLog(uint256,uint256)": "infinite",
						"roundEntries()": "2540",
						"roundEntry(uint256)": "2861",
						"roundNum()": "2475",
						"roundResults(uint256)": "infinite",
						"totalPayout()": "2452",
						"transferOwnership(address)": "30811",
						"updateAccount(address,uint256)": "infinite",
						"userEntries(address)": "2916"
					},
					"internal": {
						"random()": "infinite"
					}
				},
				"methodIdentifiers": {
					"acesToken()": "9b3e4552",
					"currentJackpot()": "f9cee0bd",
					"entriesIndex(address,uint256)": "0d988270",
					"getUniqueAddresses()": "3b98bc65",
					"getUniqueUsers()": "158977de",
					"isActiveAccount(address)": "5bedc390",
					"owner()": "8da5cb5b",
					"pickWinner()": "5d495aea",
					"removeAccount(address)": "c4740a95",
					"removeEntryFromWallet(address,uint256)": "a59460dc",
					"renounceOwnership()": "715018a6",
					"resultLog(uint256,uint256)": "bc15cdf0",
					"roundEntries()": "76636d20",
					"roundEntry(uint256)": "b657dd65",
					"roundNum()": "119b22b3",
					"roundResults(uint256)": "ac128f4f",
					"totalPayout()": "454f7b8f",
					"transferOwnership(address)": "f2fde38b",
					"updateAccount(address,uint256)": "443b80a1",
					"userEntries(address)": "9f10a990"
				}
			},
			"storageLayout": {
				"storage": [
					{
						"astId": 542,
						"contract": "NFTlotto.sol:ACELotto",
						"label": "_owner",
						"offset": 0,
						"slot": "0",
						"type": "t_address"
					},
					{
						"astId": 35,
						"contract": "NFTlotto.sol:ACELotto",
						"label": "roundEntries",
						"offset": 0,
						"slot": "1",
						"type": "t_uint256"
					},
					{
						"astId": 37,
						"contract": "NFTlotto.sol:ACELotto",
						"label": "roundNum",
						"offset": 0,
						"slot": "2",
						"type": "t_uint256"
					},
					{
						"astId": 39,
						"contract": "NFTlotto.sol:ACELotto",
						"label": "totalPayout",
						"offset": 0,
						"slot": "3",
						"type": "t_uint256"
					},
					{
						"astId": 42,
						"contract": "NFTlotto.sol:ACELotto",
						"label": "acesToken",
						"offset": 0,
						"slot": "4",
						"type": "t_contract(IERC20)717"
					},
					{
						"astId": 58,
						"contract": "NFTlotto.sol:ACELotto",
						"label": "roundResults",
						"offset": 0,
						"slot": "5",
						"type": "t_mapping(t_uint256,t_struct(Results)53_storage)"
					},
					{
						"astId": 62,
						"contract": "NFTlotto.sol:ACELotto",
						"label": "roundEntry",
						"offset": 0,
						"slot": "6",
						"type": "t_mapping(t_uint256,t_address)"
					},
					{
						"astId": 67,
						"contract": "NFTlotto.sol:ACELotto",
						"label": "entriesIndex",
						"offset": 0,
						"slot": "7",
						"type": "t_mapping(t_address,t_array(t_uint256)dyn_storage)"
					}
				],
				"types": {
					"t_address": {
						"encoding": "inplace",
						"label": "address",
						"numberOfBytes": "20"
					},
					"t_array(t_uint256)dyn_storage": {
						"base": "t_uint256",
						"encoding": "dynamic_array",
						"label": "uint256[]",
						"numberOfBytes": "32"
					},
					"t_contract(IERC20)717": {
						"encoding": "inplace",
						"label": "contract IERC20",
						"numberOfBytes": "20"
					},
					"t_mapping(t_address,t_array(t_uint256)dyn_storage)": {
						"encoding": "mapping",
						"key": "t_address",
						"label": "mapping(address => uint256[])",
						"numberOfBytes": "32",
						"value": "t_array(t_uint256)dyn_storage"
					},
					"t_mapping(t_uint256,t_address)": {
						"encoding": "mapping",
						"key": "t_uint256",
						"label": "mapping(uint256 => address)",
						"numberOfBytes": "32",
						"value": "t_address"
					},
					"t_mapping(t_uint256,t_struct(Results)53_storage)": {
						"encoding": "mapping",
						"key": "t_uint256",
						"label": "mapping(uint256 => struct ACELotto.Results)",
						"numberOfBytes": "32",
						"value": "t_struct(Results)53_storage"
					},
					"t_struct(Results)53_storage": {
						"encoding": "inplace",
						"label": "struct ACELotto.Results",
						"members": [
							{
								"astId": 44,
								"contract": "NFTlotto.sol:ACELotto",
								"label": "totalEntries",
								"offset": 0,
								"slot": "0",
								"type": "t_uint256"
							},
							{
								"astId": 46,
								"contract": "NFTlotto.sol:ACELotto",
								"label": "winningNumber",
								"offset": 0,
								"slot": "1",
								"type": "t_uint256"
							},
							{
								"astId": 48,
								"contract": "NFTlotto.sol:ACELotto",
								"label": "payout",
								"offset": 0,
								"slot": "2",
								"type": "t_uint256"
							},
							{
								"astId": 50,
								"contract": "NFTlotto.sol:ACELotto",
								"label": "endTime",
								"offset": 0,
								"slot": "3",
								"type": "t_uint256"
							},
							{
								"astId": 52,
								"contract": "NFTlotto.sol:ACELotto",
								"label": "winningAddress",
								"offset": 0,
								"slot": "4",
								"type": "t_address"
							}
						],
						"numberOfBytes": "160"
					},
					"t_uint256": {
						"encoding": "inplace",
						"label": "uint256",
						"numberOfBytes": "32"
					}
				}
			},
			"userdoc": {
				"kind": "user",
				"methods": {},
				"version": 1
			}
		}
	}
}