{
	"staking.sol": {
		"AcesStaking": {
			"abi": [
				{
					"inputs": [
						{
							"internalType": "address",
							"name": "_token",
							"type": "address"
						}
					],
					"stateMutability": "nonpayable",
					"type": "constructor"
				},
				{
					"anonymous": false,
					"inputs": [
						{
							"indexed": false,
							"internalType": "address",
							"name": "user",
							"type": "address"
						},
						{
							"indexed": false,
							"internalType": "uint256",
							"name": "class",
							"type": "uint256"
						},
						{
							"indexed": false,
							"internalType": "uint256",
							"name": "amount",
							"type": "uint256"
						}
					],
					"name": "Claim",
					"type": "event"
				},
				{
					"anonymous": false,
					"inputs": [
						{
							"indexed": false,
							"internalType": "address",
							"name": "user",
							"type": "address"
						},
						{
							"indexed": false,
							"internalType": "uint256",
							"name": "class",
							"type": "uint256"
						},
						{
							"indexed": false,
							"internalType": "uint256",
							"name": "amount",
							"type": "uint256"
						}
					],
					"name": "Compound",
					"type": "event"
				},
				{
					"anonymous": false,
					"inputs": [
						{
							"indexed": false,
							"internalType": "address",
							"name": "user",
							"type": "address"
						},
						{
							"indexed": false,
							"internalType": "uint256",
							"name": "class",
							"type": "uint256"
						},
						{
							"indexed": false,
							"internalType": "uint256",
							"name": "amount",
							"type": "uint256"
						}
					],
					"name": "Deposit",
					"type": "event"
				},
				{
					"anonymous": false,
					"inputs": [
						{
							"indexed": true,
							"internalType": "address",
							"name": "previousOwner",
							"type": "address"
						},
						{
							"indexed": true,
							"internalType": "address",
							"name": "newOwner",
							"type": "address"
						}
					],
					"name": "OwnershipTransferred",
					"type": "event"
				},
				{
					"anonymous": false,
					"inputs": [
						{
							"indexed": false,
							"internalType": "address",
							"name": "account",
							"type": "address"
						}
					],
					"name": "Paused",
					"type": "event"
				},
				{
					"anonymous": false,
					"inputs": [
						{
							"indexed": false,
							"internalType": "address",
							"name": "account",
							"type": "address"
						}
					],
					"name": "Unpaused",
					"type": "event"
				},
				{
					"anonymous": false,
					"inputs": [
						{
							"indexed": false,
							"internalType": "address",
							"name": "user",
							"type": "address"
						},
						{
							"indexed": false,
							"internalType": "uint256",
							"name": "class",
							"type": "uint256"
						},
						{
							"indexed": false,
							"internalType": "uint256",
							"name": "amount",
							"type": "uint256"
						}
					],
					"name": "Withdraw",
					"type": "event"
				},
				{
					"inputs": [],
					"name": "acceptedToken",
					"outputs": [
						{
							"internalType": "contract IERC20",
							"name": "",
							"type": "address"
						}
					],
					"stateMutability": "view",
					"type": "function"
				},
				{
					"inputs": [
						{
							"internalType": "uint256",
							"name": "_amount",
							"type": "uint256"
						},
						{
							"internalType": "uint256",
							"name": "_level",
							"type": "uint256"
						}
					],
					"name": "deposit",
					"outputs": [],
					"stateMutability": "nonpayable",
					"type": "function"
				},
				{
					"inputs": [
						{
							"internalType": "address",
							"name": "user",
							"type": "address"
						},
						{
							"internalType": "uint8",
							"name": "class",
							"type": "uint8"
						},
						{
							"internalType": "uint256",
							"name": "balance",
							"type": "uint256"
						}
					],
					"name": "getInterest",
					"outputs": [
						{
							"internalType": "uint256",
							"name": "",
							"type": "uint256"
						}
					],
					"stateMutability": "view",
					"type": "function"
				},
				{
					"inputs": [
						{
							"internalType": "address",
							"name": "user",
							"type": "address"
						},
						{
							"internalType": "uint8",
							"name": "class",
							"type": "uint8"
						}
					],
					"name": "isOnTime",
					"outputs": [
						{
							"internalType": "bool",
							"name": "",
							"type": "bool"
						}
					],
					"stateMutability": "view",
					"type": "function"
				},
				{
					"inputs": [],
					"name": "owner",
					"outputs": [
						{
							"internalType": "address",
							"name": "",
							"type": "address"
						}
					],
					"stateMutability": "view",
					"type": "function"
				},
				{
					"inputs": [],
					"name": "pause",
					"outputs": [],
					"stateMutability": "nonpayable",
					"type": "function"
				},
				{
					"inputs": [],
					"name": "paused",
					"outputs": [
						{
							"internalType": "bool",
							"name": "",
							"type": "bool"
						}
					],
					"stateMutability": "view",
					"type": "function"
				},
				{
					"inputs": [],
					"name": "renounceOwnership",
					"outputs": [],
					"stateMutability": "nonpayable",
					"type": "function"
				},
				{
					"inputs": [
						{
							"internalType": "address",
							"name": "newOwner",
							"type": "address"
						}
					],
					"name": "transferOwnership",
					"outputs": [],
					"stateMutability": "nonpayable",
					"type": "function"
				},
				{
					"inputs": [],
					"name": "unpause",
					"outputs": [],
					"stateMutability": "nonpayable",
					"type": "function"
				},
				{
					"inputs": [
						{
							"internalType": "uint256",
							"name": "_amount",
							"type": "uint256"
						},
						{
							"internalType": "uint256",
							"name": "_level",
							"type": "uint256"
						}
					],
					"name": "withdraw",
					"outputs": [],
					"stateMutability": "nonpayable",
					"type": "function"
				}
			],
			"devdoc": {
				"kind": "dev",
				"methods": {
					"owner()": {
						"details": "Returns the address of the current owner."
					},
					"paused()": {
						"details": "Returns true if the contract is paused, and false otherwise."
					},
					"renounceOwnership()": {
						"details": "Leaves the contract without owner. It will not be possible to call `onlyOwner` functions anymore. Can only be called by the current owner. NOTE: Renouncing ownership will leave the contract without an owner, thereby removing any functionality that is only available to the owner."
					},
					"transferOwnership(address)": {
						"details": "Transfers ownership of the contract to a new account (`newOwner`). Can only be called by the current owner."
					}
				},
				"version": 1
			},
			"evm": {
				"assembly": "    /* \"staking.sol\":224:3033  contract AcesStaking is Ownable, Pausable {... */\n  mstore(0x40, 0x80)\n    /* \"staking.sol\":1027:1103  constructor(address _token ) {... */\n  callvalue\n  dup1\n  iszero\n  tag_1\n  jumpi\n  0x00\n  dup1\n  revert\ntag_1:\n  pop\n  mload(0x40)\n  sub(codesize, bytecodeSize)\n  dup1\n  bytecodeSize\n  dup4\n  codecopy\n  dup2\n  dup2\n  add\n  0x40\n  mstore\n  dup2\n  add\n  swap1\n  tag_2\n  swap2\n  swap1\n  tag_3\n  jump\t// in\ntag_2:\n    /* \"@openzeppelin/contracts/access/Ownable.sol\":921:953  _transferOwnership(_msgSender()) */\n  tag_8\n    /* \"@openzeppelin/contracts/access/Ownable.sol\":940:952  _msgSender() */\n  tag_9\n    /* \"@openzeppelin/contracts/access/Ownable.sol\":940:950  _msgSender */\n  shl(0x20, tag_10)\n    /* \"@openzeppelin/contracts/access/Ownable.sol\":940:952  _msgSender() */\n  0x20\n  shr\n  jump\t// in\ntag_9:\n    /* \"@openzeppelin/contracts/access/Ownable.sol\":921:939  _transferOwnership */\n  shl(0x20, tag_11)\n    /* \"@openzeppelin/contracts/access/Ownable.sol\":921:953  _transferOwnership(_msgSender()) */\n  0x20\n  shr\n  jump\t// in\ntag_8:\n    /* \"@openzeppelin/contracts/security/Pausable.sol\":991:996  false */\n  0x00\n    /* \"@openzeppelin/contracts/security/Pausable.sol\":981:988  _paused */\n  dup1\n  0x14\n    /* \"@openzeppelin/contracts/security/Pausable.sol\":981:996  _paused = false */\n  0x0100\n  exp\n  dup2\n  sload\n  dup2\n  0xff\n  mul\n  not\n  and\n  swap1\n  dup4\n  iszero\n  iszero\n  mul\n  or\n  swap1\n  sstore\n  pop\n    /* \"staking.sol\":1089:1095  _token */\n  dup1\n    /* \"staking.sol\":1066:1079  acceptedToken */\n  0x01\n  0x00\n    /* \"staking.sol\":1066:1096  acceptedToken = IERC20(_token) */\n  0x0100\n  exp\n  dup2\n  sload\n  dup2\n  0xffffffffffffffffffffffffffffffffffffffff\n  mul\n  not\n  and\n  swap1\n  dup4\n  0xffffffffffffffffffffffffffffffffffffffff\n  and\n  mul\n  or\n  swap1\n  sstore\n  pop\n    /* \"staking.sol\":1027:1103  constructor(address _token ) {... */\n  pop\n    /* \"staking.sol\":224:3033  contract AcesStaking is Ownable, Pausable {... */\n  jump(tag_14)\n    /* \"@openzeppelin/contracts/utils/Context.sol\":640:736  function _msgSender() internal view virtual returns (address) {... */\ntag_10:\n    /* \"@openzeppelin/contracts/utils/Context.sol\":693:700  address */\n  0x00\n    /* \"@openzeppelin/contracts/utils/Context.sol\":719:729  msg.sender */\n  caller\n    /* \"@openzeppelin/contracts/utils/Context.sol\":712:729  return msg.sender */\n  swap1\n  pop\n    /* \"@openzeppelin/contracts/utils/Context.sol\":640:736  function _msgSender() internal view virtual returns (address) {... */\n  swap1\n  jump\t// out\n    /* \"@openzeppelin/contracts/access/Ownable.sol\":2270:2457  function _transferOwnership(address newOwner) internal virtual {... */\ntag_11:\n    /* \"@openzeppelin/contracts/access/Ownable.sol\":2343:2359  address oldOwner */\n  0x00\n    /* \"@openzeppelin/contracts/access/Ownable.sol\":2362:2368  _owner */\n  dup1\n  0x00\n  swap1\n  sload\n  swap1\n  0x0100\n  exp\n  swap1\n  div\n  0xffffffffffffffffffffffffffffffffffffffff\n  and\n    /* \"@openzeppelin/contracts/access/Ownable.sol\":2343:2368  address oldOwner = _owner */\n  swap1\n  pop\n    /* \"@openzeppelin/contracts/access/Ownable.sol\":2387:2395  newOwner */\n  dup2\n    /* \"@openzeppelin/contracts/access/Ownable.sol\":2378:2384  _owner */\n  0x00\n  dup1\n    /* \"@openzeppelin/contracts/access/Ownable.sol\":2378:2395  _owner = newOwner */\n  0x0100\n  exp\n  dup2\n  sload\n  dup2\n  0xffffffffffffffffffffffffffffffffffffffff\n  mul\n  not\n  and\n  swap1\n  dup4\n  0xffffffffffffffffffffffffffffffffffffffff\n  and\n  mul\n  or\n  swap1\n  sstore\n  pop\n    /* \"@openzeppelin/contracts/access/Ownable.sol\":2441:2449  newOwner */\n  dup2\n    /* \"@openzeppelin/contracts/access/Ownable.sol\":2410:2450  OwnershipTransferred(oldOwner, newOwner) */\n  0xffffffffffffffffffffffffffffffffffffffff\n  and\n    /* \"@openzeppelin/contracts/access/Ownable.sol\":2431:2439  oldOwner */\n  dup2\n    /* \"@openzeppelin/contracts/access/Ownable.sol\":2410:2450  OwnershipTransferred(oldOwner, newOwner) */\n  0xffffffffffffffffffffffffffffffffffffffff\n  and\n  0x8be0079c531659141344cd1fd0a4f28419497f9722a3daafe3b4186f6b6457e0\n  mload(0x40)\n  mload(0x40)\n  dup1\n  swap2\n  sub\n  swap1\n  log3\n    /* \"@openzeppelin/contracts/access/Ownable.sol\":2333:2457  {... */\n  pop\n    /* \"@openzeppelin/contracts/access/Ownable.sol\":2270:2457  function _transferOwnership(address newOwner) internal virtual {... */\n  pop\n  jump\t// out\n    /* \"#utility.yul\":7:150   */\ntag_18:\n    /* \"#utility.yul\":64:69   */\n  0x00\n    /* \"#utility.yul\":95:101   */\n  dup2\n    /* \"#utility.yul\":89:102   */\n  mload\n    /* \"#utility.yul\":80:102   */\n  swap1\n  pop\n    /* \"#utility.yul\":111:144   */\n  tag_20\n    /* \"#utility.yul\":138:143   */\n  dup2\n    /* \"#utility.yul\":111:144   */\n  tag_21\n  jump\t// in\ntag_20:\n    /* \"#utility.yul\":7:150   */\n  swap3\n  swap2\n  pop\n  pop\n  jump\t// out\n    /* \"#utility.yul\":156:507   */\ntag_3:\n    /* \"#utility.yul\":226:232   */\n  0x00\n    /* \"#utility.yul\":275:277   */\n  0x20\n    /* \"#utility.yul\":263:272   */\n  dup3\n    /* \"#utility.yul\":254:261   */\n  dup5\n    /* \"#utility.yul\":250:273   */\n  sub\n    /* \"#utility.yul\":246:278   */\n  slt\n    /* \"#utility.yul\":243:362   */\n  iszero\n  tag_23\n  jumpi\n    /* \"#utility.yul\":281:360   */\n  tag_24\n  tag_25\n  jump\t// in\ntag_24:\n    /* \"#utility.yul\":243:362   */\ntag_23:\n    /* \"#utility.yul\":401:402   */\n  0x00\n    /* \"#utility.yul\":426:490   */\n  tag_26\n    /* \"#utility.yul\":482:489   */\n  dup5\n    /* \"#utility.yul\":473:479   */\n  dup3\n    /* \"#utility.yul\":462:471   */\n  dup6\n    /* \"#utility.yul\":458:480   */\n  add\n    /* \"#utility.yul\":426:490   */\n  tag_18\n  jump\t// in\ntag_26:\n    /* \"#utility.yul\":416:490   */\n  swap2\n  pop\n    /* \"#utility.yul\":372:500   */\n  pop\n    /* \"#utility.yul\":156:507   */\n  swap3\n  swap2\n  pop\n  pop\n  jump\t// out\n    /* \"#utility.yul\":594:690   */\ntag_29:\n    /* \"#utility.yul\":631:638   */\n  0x00\n    /* \"#utility.yul\":660:684   */\n  tag_31\n    /* \"#utility.yul\":678:683   */\n  dup3\n    /* \"#utility.yul\":660:684   */\n  tag_32\n  jump\t// in\ntag_31:\n    /* \"#utility.yul\":649:684   */\n  swap1\n  pop\n    /* \"#utility.yul\":594:690   */\n  swap2\n  swap1\n  pop\n  jump\t// out\n    /* \"#utility.yul\":696:822   */\ntag_32:\n    /* \"#utility.yul\":733:740   */\n  0x00\n    /* \"#utility.yul\":773:815   */\n  0xffffffffffffffffffffffffffffffffffffffff\n    /* \"#utility.yul\":766:771   */\n  dup3\n    /* \"#utility.yul\":762:816   */\n  and\n    /* \"#utility.yul\":751:816   */\n  swap1\n  pop\n    /* \"#utility.yul\":696:822   */\n  swap2\n  swap1\n  pop\n  jump\t// out\n    /* \"#utility.yul\":951:1068   */\ntag_25:\n    /* \"#utility.yul\":1060:1061   */\n  0x00\n    /* \"#utility.yul\":1057:1058   */\n  dup1\n    /* \"#utility.yul\":1050:1062   */\n  revert\n    /* \"#utility.yul\":1074:1196   */\ntag_21:\n    /* \"#utility.yul\":1147:1171   */\n  tag_38\n    /* \"#utility.yul\":1165:1170   */\n  dup2\n    /* \"#utility.yul\":1147:1171   */\n  tag_29\n  jump\t// in\ntag_38:\n    /* \"#utility.yul\":1140:1145   */\n  dup2\n    /* \"#utility.yul\":1137:1172   */\n  eq\n    /* \"#utility.yul\":1127:1190   */\n  tag_39\n  jumpi\n    /* \"#utility.yul\":1186:1187   */\n  0x00\n    /* \"#utility.yul\":1183:1184   */\n  dup1\n    /* \"#utility.yul\":1176:1188   */\n  revert\n    /* \"#utility.yul\":1127:1190   */\ntag_39:\n    /* \"#utility.yul\":1074:1196   */\n  pop\n  jump\t// out\n    /* \"staking.sol\":224:3033  contract AcesStaking is Ownable, Pausable {... */\ntag_14:\n  dataSize(sub_0)\n  dup1\n  dataOffset(sub_0)\n  0x00\n  codecopy\n  0x00\n  return\nstop\n\nsub_0: assembly {\n        /* \"staking.sol\":224:3033  contract AcesStaking is Ownable, Pausable {... */\n      mstore(0x40, 0x80)\n      callvalue\n      dup1\n      iszero\n      tag_1\n      jumpi\n      0x00\n      dup1\n      revert\n    tag_1:\n      pop\n      jumpi(tag_2, lt(calldatasize, 0x04))\n      shr(0xe0, calldataload(0x00))\n      dup1\n      0x715018a6\n      gt\n      tag_14\n      jumpi\n      dup1\n      0x715018a6\n      eq\n      tag_8\n      jumpi\n      dup1\n      0x8456cb59\n      eq\n      tag_9\n      jumpi\n      dup1\n      0x8da5cb5b\n      eq\n      tag_10\n      jumpi\n      dup1\n      0xe2bbb158\n      eq\n      tag_11\n      jumpi\n      dup1\n      0xf2fde38b\n      eq\n      tag_12\n      jumpi\n      dup1\n      0xf7edf9ab\n      eq\n      tag_13\n      jumpi\n      jump(tag_2)\n    tag_14:\n      dup1\n      0x3f4ba83a\n      eq\n      tag_3\n      jumpi\n      dup1\n      0x441a3e70\n      eq\n      tag_4\n      jumpi\n      dup1\n      0x451c3d80\n      eq\n      tag_5\n      jumpi\n      dup1\n      0x5c975abb\n      eq\n      tag_6\n      jumpi\n      dup1\n      0x69e06848\n      eq\n      tag_7\n      jumpi\n    tag_2:\n      0x00\n      dup1\n      revert\n        /* \"staking.sol\":1224:1288  function unpause () public onlyOwner {... */\n    tag_3:\n      tag_15\n      tag_16\n      jump\t// in\n    tag_15:\n      stop\n        /* \"staking.sol\":1955:2448  function withdraw (uint256 _amount, uint256 _level) public  {... */\n    tag_4:\n      tag_17\n      0x04\n      dup1\n      calldatasize\n      sub\n      dup2\n      add\n      swap1\n      tag_18\n      swap2\n      swap1\n      tag_19\n      jump\t// in\n    tag_18:\n      tag_20\n      jump\t// in\n    tag_17:\n      stop\n        /* \"staking.sol\":317:344  IERC20 public acceptedToken */\n    tag_5:\n      tag_21\n      tag_22\n      jump\t// in\n    tag_21:\n      mload(0x40)\n      tag_23\n      swap2\n      swap1\n      tag_24\n      jump\t// in\n    tag_23:\n      mload(0x40)\n      dup1\n      swap2\n      sub\n      swap1\n      return\n        /* \"@openzeppelin/contracts/security/Pausable.sol\":1098:1182  function paused() public view virtual returns (bool) {... */\n    tag_6:\n      tag_25\n      tag_26\n      jump\t// in\n    tag_25:\n      mload(0x40)\n      tag_27\n      swap2\n      swap1\n      tag_28\n      jump\t// in\n    tag_27:\n      mload(0x40)\n      dup1\n      swap2\n      sub\n      swap1\n      return\n        /* \"staking.sol\":2547:2657  function getInterest (address user, uint8 class, uint256 balance) public view returns (uint256){... */\n    tag_7:\n      tag_29\n      0x04\n      dup1\n      calldatasize\n      sub\n      dup2\n      add\n      swap1\n      tag_30\n      swap2\n      swap1\n      tag_31\n      jump\t// in\n    tag_30:\n      tag_32\n      jump\t// in\n    tag_29:\n      mload(0x40)\n      tag_33\n      swap2\n      swap1\n      tag_34\n      jump\t// in\n    tag_33:\n      mload(0x40)\n      dup1\n      swap2\n      sub\n      swap1\n      return\n        /* \"@openzeppelin/contracts/access/Ownable.sol\":1668:1769  function renounceOwnership() public virtual onlyOwner {... */\n    tag_8:\n      tag_35\n      tag_36\n      jump\t// in\n    tag_35:\n      stop\n        /* \"staking.sol\":1154:1214  function pause () public onlyOwner {... */\n    tag_9:\n      tag_37\n      tag_38\n      jump\t// in\n    tag_37:\n      stop\n        /* \"@openzeppelin/contracts/access/Ownable.sol\":1036:1121  function owner() public view virtual returns (address) {... */\n    tag_10:\n      tag_39\n      tag_40\n      jump\t// in\n    tag_39:\n      mload(0x40)\n      tag_41\n      swap2\n      swap1\n      tag_42\n      jump\t// in\n    tag_41:\n      mload(0x40)\n      dup1\n      swap2\n      sub\n      swap1\n      return\n        /* \"staking.sol\":1524:1949  function deposit (uint256 _amount, uint256 _level) public whenNotPaused {... */\n    tag_11:\n      tag_43\n      0x04\n      dup1\n      calldatasize\n      sub\n      dup2\n      add\n      swap1\n      tag_44\n      swap2\n      swap1\n      tag_19\n      jump\t// in\n    tag_44:\n      tag_45\n      jump\t// in\n    tag_43:\n      stop\n        /* \"@openzeppelin/contracts/access/Ownable.sol\":1918:2116  function transferOwnership(address newOwner) public virtual onlyOwner {... */\n    tag_12:\n      tag_46\n      0x04\n      dup1\n      calldatasize\n      sub\n      dup2\n      add\n      swap1\n      tag_47\n      swap2\n      swap1\n      tag_48\n      jump\t// in\n    tag_47:\n      tag_49\n      jump\t// in\n    tag_46:\n      stop\n        /* \"staking.sol\":2454:2541  function isOnTime (address user, uint8 class) public view returns (bool) {... */\n    tag_13:\n      tag_50\n      0x04\n      dup1\n      calldatasize\n      sub\n      dup2\n      add\n      swap1\n      tag_51\n      swap2\n      swap1\n      tag_52\n      jump\t// in\n    tag_51:\n      tag_53\n      jump\t// in\n    tag_50:\n      mload(0x40)\n      tag_54\n      swap2\n      swap1\n      tag_28\n      jump\t// in\n    tag_54:\n      mload(0x40)\n      dup1\n      swap2\n      sub\n      swap1\n      return\n        /* \"staking.sol\":1224:1288  function unpause () public onlyOwner {... */\n    tag_16:\n        /* \"@openzeppelin/contracts/access/Ownable.sol\":1259:1271  _msgSender() */\n      tag_56\n        /* \"@openzeppelin/contracts/access/Ownable.sol\":1259:1269  _msgSender */\n      tag_57\n        /* \"@openzeppelin/contracts/access/Ownable.sol\":1259:1271  _msgSender() */\n      jump\t// in\n    tag_56:\n        /* \"@openzeppelin/contracts/access/Ownable.sol\":1248:1271  owner() == _msgSender() */\n      0xffffffffffffffffffffffffffffffffffffffff\n      and\n        /* \"@openzeppelin/contracts/access/Ownable.sol\":1248:1255  owner() */\n      tag_58\n        /* \"@openzeppelin/contracts/access/Ownable.sol\":1248:1253  owner */\n      tag_40\n        /* \"@openzeppelin/contracts/access/Ownable.sol\":1248:1255  owner() */\n      jump\t// in\n    tag_58:\n        /* \"@openzeppelin/contracts/access/Ownable.sol\":1248:1271  owner() == _msgSender() */\n      0xffffffffffffffffffffffffffffffffffffffff\n      and\n      eq\n        /* \"@openzeppelin/contracts/access/Ownable.sol\":1240:1308  require(owner() == _msgSender(), \"Ownable: caller is not the owner\") */\n      tag_59\n      jumpi\n      mload(0x40)\n      0x08c379a000000000000000000000000000000000000000000000000000000000\n      dup2\n      mstore\n      0x04\n      add\n      tag_60\n      swap1\n      tag_61\n      jump\t// in\n    tag_60:\n      mload(0x40)\n      dup1\n      swap2\n      sub\n      swap1\n      revert\n    tag_59:\n        /* \"staking.sol\":1271:1281  _unpause() */\n      tag_63\n        /* \"staking.sol\":1271:1279  _unpause */\n      tag_64\n        /* \"staking.sol\":1271:1281  _unpause() */\n      jump\t// in\n    tag_63:\n        /* \"staking.sol\":1224:1288  function unpause () public onlyOwner {... */\n      jump\t// out\n        /* \"staking.sol\":1955:2448  function withdraw (uint256 _amount, uint256 _level) public  {... */\n    tag_20:\n        /* \"staking.sol\":2025:2043  address _msgSender */\n      0x00\n        /* \"staking.sol\":2046:2056  msg.sender */\n      caller\n        /* \"staking.sol\":2025:2056  address _msgSender = msg.sender */\n      swap1\n      pop\n        /* \"staking.sol\":2122:2129  _amount */\n      dup3\n        /* \"staking.sol\":2074:2090  userLevelDeposit */\n      0x02\n        /* \"staking.sol\":2074:2102  userLevelDeposit[_msgSender] */\n      0x00\n        /* \"staking.sol\":2091:2101  _msgSender */\n      dup4\n        /* \"staking.sol\":2074:2102  userLevelDeposit[_msgSender] */\n      0xffffffffffffffffffffffffffffffffffffffff\n      and\n      0xffffffffffffffffffffffffffffffffffffffff\n      and\n      dup2\n      mstore\n      0x20\n      add\n      swap1\n      dup2\n      mstore\n      0x20\n      add\n      0x00\n      keccak256\n        /* \"staking.sol\":2074:2110  userLevelDeposit[_msgSender][_level] */\n      0x00\n        /* \"staking.sol\":2103:2109  _level */\n      dup5\n        /* \"staking.sol\":2074:2110  userLevelDeposit[_msgSender][_level] */\n      dup2\n      mstore\n      0x20\n      add\n      swap1\n      dup2\n      mstore\n      0x20\n      add\n      0x00\n      keccak256\n        /* \"staking.sol\":2074:2118  userLevelDeposit[_msgSender][_level].balance */\n      0x00\n      add\n      sload\n        /* \"staking.sol\":2074:2129  userLevelDeposit[_msgSender][_level].balance >= _amount */\n      lt\n      iszero\n        /* \"staking.sol\":2066:2152  require(userLevelDeposit[_msgSender][_level].balance >= _amount, \"Not enough deposit\") */\n      tag_66\n      jumpi\n      mload(0x40)\n      0x08c379a000000000000000000000000000000000000000000000000000000000\n      dup2\n      mstore\n      0x04\n      add\n      tag_67\n      swap1\n      tag_68\n      jump\t// in\n    tag_67:\n      mload(0x40)\n      dup1\n      swap2\n      sub\n      swap1\n      revert\n    tag_66:\n        /* \"staking.sol\":2221:2236  block.timestamp */\n      timestamp\n        /* \"staking.sol\":2170:2186  userLevelDeposit */\n      0x02\n        /* \"staking.sol\":2170:2198  userLevelDeposit[_msgSender] */\n      0x00\n        /* \"staking.sol\":2187:2197  _msgSender */\n      dup4\n        /* \"staking.sol\":2170:2198  userLevelDeposit[_msgSender] */\n      0xffffffffffffffffffffffffffffffffffffffff\n      and\n      0xffffffffffffffffffffffffffffffffffffffff\n      and\n      dup2\n      mstore\n      0x20\n      add\n      swap1\n      dup2\n      mstore\n      0x20\n      add\n      0x00\n      keccak256\n        /* \"staking.sol\":2170:2206  userLevelDeposit[_msgSender][_level] */\n      0x00\n        /* \"staking.sol\":2199:2205  _level */\n      dup5\n        /* \"staking.sol\":2170:2206  userLevelDeposit[_msgSender][_level] */\n      dup2\n      mstore\n      0x20\n      add\n      swap1\n      dup2\n      mstore\n      0x20\n      add\n      0x00\n      keccak256\n        /* \"staking.sol\":2170:2217  userLevelDeposit[_msgSender][_level].unlockTime */\n      0x01\n      add\n      sload\n        /* \"staking.sol\":2170:2236  userLevelDeposit[_msgSender][_level].unlockTime <= block.timestamp */\n      gt\n      iszero\n        /* \"staking.sol\":2162:2265  require(userLevelDeposit[_msgSender][_level].unlockTime <= block.timestamp, \"Deposit not unlocked yet\") */\n      tag_69\n      jumpi\n      mload(0x40)\n      0x08c379a000000000000000000000000000000000000000000000000000000000\n      dup2\n      mstore\n      0x04\n      add\n      tag_70\n      swap1\n      tag_71\n      jump\t// in\n    tag_70:\n      mload(0x40)\n      dup1\n      swap2\n      sub\n      swap1\n      revert\n    tag_69:\n        /* \"staking.sol\":2332:2339  _amount */\n      dup3\n        /* \"staking.sol\":2284:2300  userLevelDeposit */\n      0x02\n        /* \"staking.sol\":2284:2312  userLevelDeposit[_msgSender] */\n      0x00\n        /* \"staking.sol\":2301:2311  _msgSender */\n      dup4\n        /* \"staking.sol\":2284:2312  userLevelDeposit[_msgSender] */\n      0xffffffffffffffffffffffffffffffffffffffff\n      and\n      0xffffffffffffffffffffffffffffffffffffffff\n      and\n      dup2\n      mstore\n      0x20\n      add\n      swap1\n      dup2\n      mstore\n      0x20\n      add\n      0x00\n      keccak256\n        /* \"staking.sol\":2284:2320  userLevelDeposit[_msgSender][_level] */\n      0x00\n        /* \"staking.sol\":2313:2319  _level */\n      dup5\n        /* \"staking.sol\":2284:2320  userLevelDeposit[_msgSender][_level] */\n      dup2\n      mstore\n      0x20\n      add\n      swap1\n      dup2\n      mstore\n      0x20\n      add\n      0x00\n      keccak256\n        /* \"staking.sol\":2284:2328  userLevelDeposit[_msgSender][_level].balance */\n      0x00\n      add\n      0x00\n        /* \"staking.sol\":2284:2339  userLevelDeposit[_msgSender][_level].balance -= _amount */\n      dup3\n      dup3\n      sload\n      tag_72\n      swap2\n      swap1\n      tag_73\n      jump\t// in\n    tag_72:\n      swap3\n      pop\n      pop\n      dup2\n      swap1\n      sstore\n      pop\n        /* \"staking.sol\":2350:2363  acceptedToken */\n      0x01\n      0x00\n      swap1\n      sload\n      swap1\n      0x0100\n      exp\n      swap1\n      div\n      0xffffffffffffffffffffffffffffffffffffffff\n      and\n        /* \"staking.sol\":2350:2372  acceptedToken.transfer */\n      0xffffffffffffffffffffffffffffffffffffffff\n      and\n      0xa9059cbb\n        /* \"staking.sol\":2373:2383  _msgSender */\n      dup3\n        /* \"staking.sol\":2385:2392  _amount */\n      dup6\n        /* \"staking.sol\":2350:2393  acceptedToken.transfer(_msgSender, _amount) */\n      mload(0x40)\n      dup4\n      0xffffffff\n      and\n      0xe0\n      shl\n      dup2\n      mstore\n      0x04\n      add\n      tag_74\n      swap3\n      swap2\n      swap1\n      tag_75\n      jump\t// in\n    tag_74:\n      0x20\n      mload(0x40)\n      dup1\n      dup4\n      sub\n      dup2\n      0x00\n      dup8\n      dup1\n      extcodesize\n      iszero\n      dup1\n      iszero\n      tag_76\n      jumpi\n      0x00\n      dup1\n      revert\n    tag_76:\n      pop\n      gas\n      call\n      iszero\n      dup1\n      iszero\n      tag_78\n      jumpi\n      returndatasize\n      0x00\n      dup1\n      returndatacopy\n      revert(0x00, returndatasize)\n    tag_78:\n      pop\n      pop\n      pop\n      pop\n      mload(0x40)\n      returndatasize\n      not(0x1f)\n      0x1f\n      dup3\n      add\n      and\n      dup3\n      add\n      dup1\n      0x40\n      mstore\n      pop\n      dup2\n      add\n      swap1\n      tag_79\n      swap2\n      swap1\n      tag_80\n      jump\t// in\n    tag_79:\n      pop\n        /* \"staking.sol\":2409:2441  Withdraw(_msgSender, 0, _amount) */\n      0xf279e6a1f5e320cca91135676d9cb6e44ca8a08c0b88342bcdb1144f6511b568\n        /* \"staking.sol\":2418:2428  _msgSender */\n      dup2\n        /* \"staking.sol\":2430:2431  0 */\n      0x00\n        /* \"staking.sol\":2433:2440  _amount */\n      dup6\n        /* \"staking.sol\":2409:2441  Withdraw(_msgSender, 0, _amount) */\n      mload(0x40)\n      tag_81\n      swap4\n      swap3\n      swap2\n      swap1\n      tag_82\n      jump\t// in\n    tag_81:\n      mload(0x40)\n      dup1\n      swap2\n      sub\n      swap1\n      log1\n        /* \"staking.sol\":2015:2448  {... */\n      pop\n        /* \"staking.sol\":1955:2448  function withdraw (uint256 _amount, uint256 _level) public  {... */\n      pop\n      pop\n      jump\t// out\n        /* \"staking.sol\":317:344  IERC20 public acceptedToken */\n    tag_22:\n      0x01\n      0x00\n      swap1\n      sload\n      swap1\n      0x0100\n      exp\n      swap1\n      div\n      0xffffffffffffffffffffffffffffffffffffffff\n      and\n      dup2\n      jump\t// out\n        /* \"@openzeppelin/contracts/security/Pausable.sol\":1098:1182  function paused() public view virtual returns (bool) {... */\n    tag_26:\n        /* \"@openzeppelin/contracts/security/Pausable.sol\":1145:1149  bool */\n      0x00\n        /* \"@openzeppelin/contracts/security/Pausable.sol\":1168:1175  _paused */\n      dup1\n      0x14\n      swap1\n      sload\n      swap1\n      0x0100\n      exp\n      swap1\n      div\n      0xff\n      and\n        /* \"@openzeppelin/contracts/security/Pausable.sol\":1161:1175  return _paused */\n      swap1\n      pop\n        /* \"@openzeppelin/contracts/security/Pausable.sol\":1098:1182  function paused() public view virtual returns (bool) {... */\n      swap1\n      jump\t// out\n        /* \"staking.sol\":2547:2657  function getInterest (address user, uint8 class, uint256 balance) public view returns (uint256){... */\n    tag_32:\n        /* \"staking.sol\":2634:2641  uint256 */\n      0x00\n        /* \"staking.sol\":2547:2657  function getInterest (address user, uint8 class, uint256 balance) public view returns (uint256){... */\n      swap4\n      swap3\n      pop\n      pop\n      pop\n      jump\t// out\n        /* \"@openzeppelin/contracts/access/Ownable.sol\":1668:1769  function renounceOwnership() public virtual onlyOwner {... */\n    tag_36:\n        /* \"@openzeppelin/contracts/access/Ownable.sol\":1259:1271  _msgSender() */\n      tag_86\n        /* \"@openzeppelin/contracts/access/Ownable.sol\":1259:1269  _msgSender */\n      tag_57\n        /* \"@openzeppelin/contracts/access/Ownable.sol\":1259:1271  _msgSender() */\n      jump\t// in\n    tag_86:\n        /* \"@openzeppelin/contracts/access/Ownable.sol\":1248:1271  owner() == _msgSender() */\n      0xffffffffffffffffffffffffffffffffffffffff\n      and\n        /* \"@openzeppelin/contracts/access/Ownable.sol\":1248:1255  owner() */\n      tag_87\n        /* \"@openzeppelin/contracts/access/Ownable.sol\":1248:1253  owner */\n      tag_40\n        /* \"@openzeppelin/contracts/access/Ownable.sol\":1248:1255  owner() */\n      jump\t// in\n    tag_87:\n        /* \"@openzeppelin/contracts/access/Ownable.sol\":1248:1271  owner() == _msgSender() */\n      0xffffffffffffffffffffffffffffffffffffffff\n      and\n      eq\n        /* \"@openzeppelin/contracts/access/Ownable.sol\":1240:1308  require(owner() == _msgSender(), \"Ownable: caller is not the owner\") */\n      tag_88\n      jumpi\n      mload(0x40)\n      0x08c379a000000000000000000000000000000000000000000000000000000000\n      dup2\n      mstore\n      0x04\n      add\n      tag_89\n      swap1\n      tag_61\n      jump\t// in\n    tag_89:\n      mload(0x40)\n      dup1\n      swap2\n      sub\n      swap1\n      revert\n    tag_88:\n        /* \"@openzeppelin/contracts/access/Ownable.sol\":1732:1762  _transferOwnership(address(0)) */\n      tag_91\n        /* \"@openzeppelin/contracts/access/Ownable.sol\":1759:1760  0 */\n      0x00\n        /* \"@openzeppelin/contracts/access/Ownable.sol\":1732:1750  _transferOwnership */\n      tag_92\n        /* \"@openzeppelin/contracts/access/Ownable.sol\":1732:1762  _transferOwnership(address(0)) */\n      jump\t// in\n    tag_91:\n        /* \"@openzeppelin/contracts/access/Ownable.sol\":1668:1769  function renounceOwnership() public virtual onlyOwner {... */\n      jump\t// out\n        /* \"staking.sol\":1154:1214  function pause () public onlyOwner {... */\n    tag_38:\n        /* \"@openzeppelin/contracts/access/Ownable.sol\":1259:1271  _msgSender() */\n      tag_94\n        /* \"@openzeppelin/contracts/access/Ownable.sol\":1259:1269  _msgSender */\n      tag_57\n        /* \"@openzeppelin/contracts/access/Ownable.sol\":1259:1271  _msgSender() */\n      jump\t// in\n    tag_94:\n        /* \"@openzeppelin/contracts/access/Ownable.sol\":1248:1271  owner() == _msgSender() */\n      0xffffffffffffffffffffffffffffffffffffffff\n      and\n        /* \"@openzeppelin/contracts/access/Ownable.sol\":1248:1255  owner() */\n      tag_95\n        /* \"@openzeppelin/contracts/access/Ownable.sol\":1248:1253  owner */\n      tag_40\n        /* \"@openzeppelin/contracts/access/Ownable.sol\":1248:1255  owner() */\n      jump\t// in\n    tag_95:\n        /* \"@openzeppelin/contracts/access/Ownable.sol\":1248:1271  owner() == _msgSender() */\n      0xffffffffffffffffffffffffffffffffffffffff\n      and\n      eq\n        /* \"@openzeppelin/contracts/access/Ownable.sol\":1240:1308  require(owner() == _msgSender(), \"Ownable: caller is not the owner\") */\n      tag_96\n      jumpi\n      mload(0x40)\n      0x08c379a000000000000000000000000000000000000000000000000000000000\n      dup2\n      mstore\n      0x04\n      add\n      tag_97\n      swap1\n      tag_61\n      jump\t// in\n    tag_97:\n      mload(0x40)\n      dup1\n      swap2\n      sub\n      swap1\n      revert\n    tag_96:\n        /* \"staking.sol\":1199:1207  _pause() */\n      tag_99\n        /* \"staking.sol\":1199:1205  _pause */\n      tag_100\n        /* \"staking.sol\":1199:1207  _pause() */\n      jump\t// in\n    tag_99:\n        /* \"staking.sol\":1154:1214  function pause () public onlyOwner {... */\n      jump\t// out\n        /* \"@openzeppelin/contracts/access/Ownable.sol\":1036:1121  function owner() public view virtual returns (address) {... */\n    tag_40:\n        /* \"@openzeppelin/contracts/access/Ownable.sol\":1082:1089  address */\n      0x00\n        /* \"@openzeppelin/contracts/access/Ownable.sol\":1108:1114  _owner */\n      dup1\n      0x00\n      swap1\n      sload\n      swap1\n      0x0100\n      exp\n      swap1\n      div\n      0xffffffffffffffffffffffffffffffffffffffff\n      and\n        /* \"@openzeppelin/contracts/access/Ownable.sol\":1101:1114  return _owner */\n      swap1\n      pop\n        /* \"@openzeppelin/contracts/access/Ownable.sol\":1036:1121  function owner() public view virtual returns (address) {... */\n      swap1\n      jump\t// out\n        /* \"staking.sol\":1524:1949  function deposit (uint256 _amount, uint256 _level) public whenNotPaused {... */\n    tag_45:\n        /* \"@openzeppelin/contracts/security/Pausable.sol\":1412:1420  paused() */\n      tag_103\n        /* \"@openzeppelin/contracts/security/Pausable.sol\":1412:1418  paused */\n      tag_26\n        /* \"@openzeppelin/contracts/security/Pausable.sol\":1412:1420  paused() */\n      jump\t// in\n    tag_103:\n        /* \"@openzeppelin/contracts/security/Pausable.sol\":1411:1420  !paused() */\n      iszero\n        /* \"@openzeppelin/contracts/security/Pausable.sol\":1403:1441  require(!paused(), \"Pausable: paused\") */\n      tag_104\n      jumpi\n      mload(0x40)\n      0x08c379a000000000000000000000000000000000000000000000000000000000\n      dup2\n      mstore\n      0x04\n      add\n      tag_105\n      swap1\n      tag_106\n      jump\t// in\n    tag_105:\n      mload(0x40)\n      dup1\n      swap2\n      sub\n      swap1\n      revert\n    tag_104:\n        /* \"staking.sol\":1606:1624  address _msgSender */\n      0x00\n        /* \"staking.sol\":1627:1637  msg.sender */\n      caller\n        /* \"staking.sol\":1606:1637  address _msgSender = msg.sender */\n      swap1\n      pop\n        /* \"staking.sol\":1655:1668  acceptedToken */\n      0x01\n      0x00\n      swap1\n      sload\n      swap1\n      0x0100\n      exp\n      swap1\n      div\n      0xffffffffffffffffffffffffffffffffffffffff\n      and\n        /* \"staking.sol\":1655:1681  acceptedToken.transferFrom */\n      0xffffffffffffffffffffffffffffffffffffffff\n      and\n      0x23b872dd\n        /* \"staking.sol\":1682:1692  _msgSender */\n      dup3\n        /* \"staking.sol\":1702:1706  this */\n      address\n        /* \"staking.sol\":1709:1716  _amount */\n      dup7\n        /* \"staking.sol\":1655:1717  acceptedToken.transferFrom(_msgSender, address(this), _amount) */\n      mload(0x40)\n      dup5\n      0xffffffff\n      and\n      0xe0\n      shl\n      dup2\n      mstore\n      0x04\n      add\n      tag_108\n      swap4\n      swap3\n      swap2\n      swap1\n      tag_109\n      jump\t// in\n    tag_108:\n      0x20\n      mload(0x40)\n      dup1\n      dup4\n      sub\n      dup2\n      0x00\n      dup8\n      dup1\n      extcodesize\n      iszero\n      dup1\n      iszero\n      tag_110\n      jumpi\n      0x00\n      dup1\n      revert\n    tag_110:\n      pop\n      gas\n      call\n      iszero\n      dup1\n      iszero\n      tag_112\n      jumpi\n      returndatasize\n      0x00\n      dup1\n      returndatacopy\n      revert(0x00, returndatasize)\n    tag_112:\n      pop\n      pop\n      pop\n      pop\n      mload(0x40)\n      returndatasize\n      not(0x1f)\n      0x1f\n      dup3\n      add\n      and\n      dup3\n      add\n      dup1\n      0x40\n      mstore\n      pop\n      dup2\n      add\n      swap1\n      tag_113\n      swap2\n      swap1\n      tag_80\n      jump\t// in\n    tag_113:\n      pop\n        /* \"staking.sol\":1776:1783  _amount */\n      dup3\n        /* \"staking.sol\":1728:1744  userLevelDeposit */\n      0x02\n        /* \"staking.sol\":1728:1756  userLevelDeposit[_msgSender] */\n      0x00\n        /* \"staking.sol\":1745:1755  _msgSender */\n      dup4\n        /* \"staking.sol\":1728:1756  userLevelDeposit[_msgSender] */\n      0xffffffffffffffffffffffffffffffffffffffff\n      and\n      0xffffffffffffffffffffffffffffffffffffffff\n      and\n      dup2\n      mstore\n      0x20\n      add\n      swap1\n      dup2\n      mstore\n      0x20\n      add\n      0x00\n      keccak256\n        /* \"staking.sol\":1728:1764  userLevelDeposit[_msgSender][_level] */\n      0x00\n        /* \"staking.sol\":1757:1763  _level */\n      dup5\n        /* \"staking.sol\":1728:1764  userLevelDeposit[_msgSender][_level] */\n      dup2\n      mstore\n      0x20\n      add\n      swap1\n      dup2\n      mstore\n      0x20\n      add\n      0x00\n      keccak256\n        /* \"staking.sol\":1728:1772  userLevelDeposit[_msgSender][_level].balance */\n      0x00\n      add\n      0x00\n        /* \"staking.sol\":1728:1783  userLevelDeposit[_msgSender][_level].balance += _amount */\n      dup3\n      dup3\n      sload\n      tag_114\n      swap2\n      swap1\n      tag_115\n      jump\t// in\n    tag_114:\n      swap3\n      pop\n      pop\n      dup2\n      swap1\n      sstore\n      pop\n        /* \"staking.sol\":1861:1870  levelInfo */\n      0x03\n        /* \"staking.sol\":1861:1878  levelInfo[_level] */\n      0x00\n        /* \"staking.sol\":1871:1877  _level */\n      dup4\n        /* \"staking.sol\":1861:1878  levelInfo[_level] */\n      dup2\n      mstore\n      0x20\n      add\n      swap1\n      dup2\n      mstore\n      0x20\n      add\n      0x00\n      keccak256\n        /* \"staking.sol\":1861:1889  levelInfo[_level].lockPeriod */\n      0x01\n      add\n      sload\n        /* \"staking.sol\":1843:1858  block.timestamp */\n      timestamp\n        /* \"staking.sol\":1843:1889  block.timestamp + levelInfo[_level].lockPeriod */\n      tag_116\n      swap2\n      swap1\n      tag_115\n      jump\t// in\n    tag_116:\n        /* \"staking.sol\":1793:1809  userLevelDeposit */\n      0x02\n        /* \"staking.sol\":1793:1821  userLevelDeposit[_msgSender] */\n      0x00\n        /* \"staking.sol\":1810:1820  _msgSender */\n      dup4\n        /* \"staking.sol\":1793:1821  userLevelDeposit[_msgSender] */\n      0xffffffffffffffffffffffffffffffffffffffff\n      and\n      0xffffffffffffffffffffffffffffffffffffffff\n      and\n      dup2\n      mstore\n      0x20\n      add\n      swap1\n      dup2\n      mstore\n      0x20\n      add\n      0x00\n      keccak256\n        /* \"staking.sol\":1793:1829  userLevelDeposit[_msgSender][_level] */\n      0x00\n        /* \"staking.sol\":1822:1828  _level */\n      dup5\n        /* \"staking.sol\":1793:1829  userLevelDeposit[_msgSender][_level] */\n      dup2\n      mstore\n      0x20\n      add\n      swap1\n      dup2\n      mstore\n      0x20\n      add\n      0x00\n      keccak256\n        /* \"staking.sol\":1793:1840  userLevelDeposit[_msgSender][_level].unlockTime */\n      0x01\n      add\n        /* \"staking.sol\":1793:1889  userLevelDeposit[_msgSender][_level].unlockTime = block.timestamp + levelInfo[_level].lockPeriod */\n      dup2\n      swap1\n      sstore\n      pop\n        /* \"staking.sol\":1905:1942  Deposit (_msgSender, _level, _amount) */\n      0x90890809c654f11d6e72a28fa60149770a0d11ec6c92319d6ceb2bb0a4ea1a15\n        /* \"staking.sol\":1914:1924  _msgSender */\n      dup2\n        /* \"staking.sol\":1926:1932  _level */\n      dup4\n        /* \"staking.sol\":1934:1941  _amount */\n      dup6\n        /* \"staking.sol\":1905:1942  Deposit (_msgSender, _level, _amount) */\n      mload(0x40)\n      tag_117\n      swap4\n      swap3\n      swap2\n      swap1\n      tag_118\n      jump\t// in\n    tag_117:\n      mload(0x40)\n      dup1\n      swap2\n      sub\n      swap1\n      log1\n        /* \"staking.sol\":1596:1949  {... */\n      pop\n        /* \"staking.sol\":1524:1949  function deposit (uint256 _amount, uint256 _level) public whenNotPaused {... */\n      pop\n      pop\n      jump\t// out\n        /* \"@openzeppelin/contracts/access/Ownable.sol\":1918:2116  function transferOwnership(address newOwner) public virtual onlyOwner {... */\n    tag_49:\n        /* \"@openzeppelin/contracts/access/Ownable.sol\":1259:1271  _msgSender() */\n      tag_120\n        /* \"@openzeppelin/contracts/access/Ownable.sol\":1259:1269  _msgSender */\n      tag_57\n        /* \"@openzeppelin/contracts/access/Ownable.sol\":1259:1271  _msgSender() */\n      jump\t// in\n    tag_120:\n        /* \"@openzeppelin/contracts/access/Ownable.sol\":1248:1271  owner() == _msgSender() */\n      0xffffffffffffffffffffffffffffffffffffffff\n      and\n        /* \"@openzeppelin/contracts/access/Ownable.sol\":1248:1255  owner() */\n      tag_121\n        /* \"@openzeppelin/contracts/access/Ownable.sol\":1248:1253  owner */\n      tag_40\n        /* \"@openzeppelin/contracts/access/Ownable.sol\":1248:1255  owner() */\n      jump\t// in\n    tag_121:\n        /* \"@openzeppelin/contracts/access/Ownable.sol\":1248:1271  owner() == _msgSender() */\n      0xffffffffffffffffffffffffffffffffffffffff\n      and\n      eq\n        /* \"@openzeppelin/contracts/access/Ownable.sol\":1240:1308  require(owner() == _msgSender(), \"Ownable: caller is not the owner\") */\n      tag_122\n      jumpi\n      mload(0x40)\n      0x08c379a000000000000000000000000000000000000000000000000000000000\n      dup2\n      mstore\n      0x04\n      add\n      tag_123\n      swap1\n      tag_61\n      jump\t// in\n    tag_123:\n      mload(0x40)\n      dup1\n      swap2\n      sub\n      swap1\n      revert\n    tag_122:\n        /* \"@openzeppelin/contracts/access/Ownable.sol\":2026:2027  0 */\n      0x00\n        /* \"@openzeppelin/contracts/access/Ownable.sol\":2006:2028  newOwner != address(0) */\n      0xffffffffffffffffffffffffffffffffffffffff\n      and\n        /* \"@openzeppelin/contracts/access/Ownable.sol\":2006:2014  newOwner */\n      dup2\n        /* \"@openzeppelin/contracts/access/Ownable.sol\":2006:2028  newOwner != address(0) */\n      0xffffffffffffffffffffffffffffffffffffffff\n      and\n      eq\n      iszero\n        /* \"@openzeppelin/contracts/access/Ownable.sol\":1998:2071  require(newOwner != address(0), \"Ownable: new owner is the zero address\") */\n      tag_125\n      jumpi\n      mload(0x40)\n      0x08c379a000000000000000000000000000000000000000000000000000000000\n      dup2\n      mstore\n      0x04\n      add\n      tag_126\n      swap1\n      tag_127\n      jump\t// in\n    tag_126:\n      mload(0x40)\n      dup1\n      swap2\n      sub\n      swap1\n      revert\n    tag_125:\n        /* \"@openzeppelin/contracts/access/Ownable.sol\":2081:2109  _transferOwnership(newOwner) */\n      tag_128\n        /* \"@openzeppelin/contracts/access/Ownable.sol\":2100:2108  newOwner */\n      dup2\n        /* \"@openzeppelin/contracts/access/Ownable.sol\":2081:2099  _transferOwnership */\n      tag_92\n        /* \"@openzeppelin/contracts/access/Ownable.sol\":2081:2109  _transferOwnership(newOwner) */\n      jump\t// in\n    tag_128:\n        /* \"@openzeppelin/contracts/access/Ownable.sol\":1918:2116  function transferOwnership(address newOwner) public virtual onlyOwner {... */\n      pop\n      jump\t// out\n        /* \"staking.sol\":2454:2541  function isOnTime (address user, uint8 class) public view returns (bool) {... */\n    tag_53:\n        /* \"staking.sol\":2521:2525  bool */\n      0x00\n        /* \"staking.sol\":2454:2541  function isOnTime (address user, uint8 class) public view returns (bool) {... */\n      swap3\n      swap2\n      pop\n      pop\n      jump\t// out\n        /* \"@openzeppelin/contracts/utils/Context.sol\":640:736  function _msgSender() internal view virtual returns (address) {... */\n    tag_57:\n        /* \"@openzeppelin/contracts/utils/Context.sol\":693:700  address */\n      0x00\n        /* \"@openzeppelin/contracts/utils/Context.sol\":719:729  msg.sender */\n      caller\n        /* \"@openzeppelin/contracts/utils/Context.sol\":712:729  return msg.sender */\n      swap1\n      pop\n        /* \"@openzeppelin/contracts/utils/Context.sol\":640:736  function _msgSender() internal view virtual returns (address) {... */\n      swap1\n      jump\t// out\n        /* \"@openzeppelin/contracts/security/Pausable.sol\":2110:2227  function _unpause() internal virtual whenPaused {... */\n    tag_64:\n        /* \"@openzeppelin/contracts/security/Pausable.sol\":1677:1685  paused() */\n      tag_132\n        /* \"@openzeppelin/contracts/security/Pausable.sol\":1677:1683  paused */\n      tag_26\n        /* \"@openzeppelin/contracts/security/Pausable.sol\":1677:1685  paused() */\n      jump\t// in\n    tag_132:\n        /* \"@openzeppelin/contracts/security/Pausable.sol\":1669:1710  require(paused(), \"Pausable: not paused\") */\n      tag_133\n      jumpi\n      mload(0x40)\n      0x08c379a000000000000000000000000000000000000000000000000000000000\n      dup2\n      mstore\n      0x04\n      add\n      tag_134\n      swap1\n      tag_135\n      jump\t// in\n    tag_134:\n      mload(0x40)\n      dup1\n      swap2\n      sub\n      swap1\n      revert\n    tag_133:\n        /* \"@openzeppelin/contracts/security/Pausable.sol\":2178:2183  false */\n      0x00\n        /* \"@openzeppelin/contracts/security/Pausable.sol\":2168:2175  _paused */\n      dup1\n      0x14\n        /* \"@openzeppelin/contracts/security/Pausable.sol\":2168:2183  _paused = false */\n      0x0100\n      exp\n      dup2\n      sload\n      dup2\n      0xff\n      mul\n      not\n      and\n      swap1\n      dup4\n      iszero\n      iszero\n      mul\n      or\n      swap1\n      sstore\n      pop\n        /* \"@openzeppelin/contracts/security/Pausable.sol\":2198:2220  Unpaused(_msgSender()) */\n      0x5db9ee0a495bf2e6ff9c91a7834c1ba4fdd244a5e8aa4e537bd38aeae4b073aa\n        /* \"@openzeppelin/contracts/security/Pausable.sol\":2207:2219  _msgSender() */\n      tag_137\n        /* \"@openzeppelin/contracts/security/Pausable.sol\":2207:2217  _msgSender */\n      tag_57\n        /* \"@openzeppelin/contracts/security/Pausable.sol\":2207:2219  _msgSender() */\n      jump\t// in\n    tag_137:\n        /* \"@openzeppelin/contracts/security/Pausable.sol\":2198:2220  Unpaused(_msgSender()) */\n      mload(0x40)\n      tag_138\n      swap2\n      swap1\n      tag_42\n      jump\t// in\n    tag_138:\n      mload(0x40)\n      dup1\n      swap2\n      sub\n      swap1\n      log1\n        /* \"@openzeppelin/contracts/security/Pausable.sol\":2110:2227  function _unpause() internal virtual whenPaused {... */\n      jump\t// out\n        /* \"@openzeppelin/contracts/access/Ownable.sol\":2270:2457  function _transferOwnership(address newOwner) internal virtual {... */\n    tag_92:\n        /* \"@openzeppelin/contracts/access/Ownable.sol\":2343:2359  address oldOwner */\n      0x00\n        /* \"@openzeppelin/contracts/access/Ownable.sol\":2362:2368  _owner */\n      dup1\n      0x00\n      swap1\n      sload\n      swap1\n      0x0100\n      exp\n      swap1\n      div\n      0xffffffffffffffffffffffffffffffffffffffff\n      and\n        /* \"@openzeppelin/contracts/access/Ownable.sol\":2343:2368  address oldOwner = _owner */\n      swap1\n      pop\n        /* \"@openzeppelin/contracts/access/Ownable.sol\":2387:2395  newOwner */\n      dup2\n        /* \"@openzeppelin/contracts/access/Ownable.sol\":2378:2384  _owner */\n      0x00\n      dup1\n        /* \"@openzeppelin/contracts/access/Ownable.sol\":2378:2395  _owner = newOwner */\n      0x0100\n      exp\n      dup2\n      sload\n      dup2\n      0xffffffffffffffffffffffffffffffffffffffff\n      mul\n      not\n      and\n      swap1\n      dup4\n      0xffffffffffffffffffffffffffffffffffffffff\n      and\n      mul\n      or\n      swap1\n      sstore\n      pop\n        /* \"@openzeppelin/contracts/access/Ownable.sol\":2441:2449  newOwner */\n      dup2\n        /* \"@openzeppelin/contracts/access/Ownable.sol\":2410:2450  OwnershipTransferred(oldOwner, newOwner) */\n      0xffffffffffffffffffffffffffffffffffffffff\n      and\n        /* \"@openzeppelin/contracts/access/Ownable.sol\":2431:2439  oldOwner */\n      dup2\n        /* \"@openzeppelin/contracts/access/Ownable.sol\":2410:2450  OwnershipTransferred(oldOwner, newOwner) */\n      0xffffffffffffffffffffffffffffffffffffffff\n      and\n      0x8be0079c531659141344cd1fd0a4f28419497f9722a3daafe3b4186f6b6457e0\n      mload(0x40)\n      mload(0x40)\n      dup1\n      swap2\n      sub\n      swap1\n      log3\n        /* \"@openzeppelin/contracts/access/Ownable.sol\":2333:2457  {... */\n      pop\n        /* \"@openzeppelin/contracts/access/Ownable.sol\":2270:2457  function _transferOwnership(address newOwner) internal virtual {... */\n      pop\n      jump\t// out\n        /* \"@openzeppelin/contracts/security/Pausable.sol\":1863:1978  function _pause() internal virtual whenNotPaused {... */\n    tag_100:\n        /* \"@openzeppelin/contracts/security/Pausable.sol\":1412:1420  paused() */\n      tag_141\n        /* \"@openzeppelin/contracts/security/Pausable.sol\":1412:1418  paused */\n      tag_26\n        /* \"@openzeppelin/contracts/security/Pausable.sol\":1412:1420  paused() */\n      jump\t// in\n    tag_141:\n        /* \"@openzeppelin/contracts/security/Pausable.sol\":1411:1420  !paused() */\n      iszero\n        /* \"@openzeppelin/contracts/security/Pausable.sol\":1403:1441  require(!paused(), \"Pausable: paused\") */\n      tag_142\n      jumpi\n      mload(0x40)\n      0x08c379a000000000000000000000000000000000000000000000000000000000\n      dup2\n      mstore\n      0x04\n      add\n      tag_143\n      swap1\n      tag_106\n      jump\t// in\n    tag_143:\n      mload(0x40)\n      dup1\n      swap2\n      sub\n      swap1\n      revert\n    tag_142:\n        /* \"@openzeppelin/contracts/security/Pausable.sol\":1932:1936  true */\n      0x01\n        /* \"@openzeppelin/contracts/security/Pausable.sol\":1922:1929  _paused */\n      0x00\n      0x14\n        /* \"@openzeppelin/contracts/security/Pausable.sol\":1922:1936  _paused = true */\n      0x0100\n      exp\n      dup2\n      sload\n      dup2\n      0xff\n      mul\n      not\n      and\n      swap1\n      dup4\n      iszero\n      iszero\n      mul\n      or\n      swap1\n      sstore\n      pop\n        /* \"@openzeppelin/contracts/security/Pausable.sol\":1951:1971  Paused(_msgSender()) */\n      0x62e78cea01bee320cd4e420270b5ea74000d11b0c9f74754ebdbfc544b05a258\n        /* \"@openzeppelin/contracts/security/Pausable.sol\":1958:1970  _msgSender() */\n      tag_145\n        /* \"@openzeppelin/contracts/security/Pausable.sol\":1958:1968  _msgSender */\n      tag_57\n        /* \"@openzeppelin/contracts/security/Pausable.sol\":1958:1970  _msgSender() */\n      jump\t// in\n    tag_145:\n        /* \"@openzeppelin/contracts/security/Pausable.sol\":1951:1971  Paused(_msgSender()) */\n      mload(0x40)\n      tag_146\n      swap2\n      swap1\n      tag_42\n      jump\t// in\n    tag_146:\n      mload(0x40)\n      dup1\n      swap2\n      sub\n      swap1\n      log1\n        /* \"@openzeppelin/contracts/security/Pausable.sol\":1863:1978  function _pause() internal virtual whenNotPaused {... */\n      jump\t// out\n        /* \"#utility.yul\":7:146   */\n    tag_148:\n        /* \"#utility.yul\":53:58   */\n      0x00\n        /* \"#utility.yul\":91:97   */\n      dup2\n        /* \"#utility.yul\":78:98   */\n      calldataload\n        /* \"#utility.yul\":69:98   */\n      swap1\n      pop\n        /* \"#utility.yul\":107:140   */\n      tag_150\n        /* \"#utility.yul\":134:139   */\n      dup2\n        /* \"#utility.yul\":107:140   */\n      tag_151\n      jump\t// in\n    tag_150:\n        /* \"#utility.yul\":7:146   */\n      swap3\n      swap2\n      pop\n      pop\n      jump\t// out\n        /* \"#utility.yul\":152:289   */\n    tag_152:\n        /* \"#utility.yul\":206:211   */\n      0x00\n        /* \"#utility.yul\":237:243   */\n      dup2\n        /* \"#utility.yul\":231:244   */\n      mload\n        /* \"#utility.yul\":222:244   */\n      swap1\n      pop\n        /* \"#utility.yul\":253:283   */\n      tag_154\n        /* \"#utility.yul\":277:282   */\n      dup2\n        /* \"#utility.yul\":253:283   */\n      tag_155\n      jump\t// in\n    tag_154:\n        /* \"#utility.yul\":152:289   */\n      swap3\n      swap2\n      pop\n      pop\n      jump\t// out\n        /* \"#utility.yul\":295:434   */\n    tag_156:\n        /* \"#utility.yul\":341:346   */\n      0x00\n        /* \"#utility.yul\":379:385   */\n      dup2\n        /* \"#utility.yul\":366:386   */\n      calldataload\n        /* \"#utility.yul\":357:386   */\n      swap1\n      pop\n        /* \"#utility.yul\":395:428   */\n      tag_158\n        /* \"#utility.yul\":422:427   */\n      dup2\n        /* \"#utility.yul\":395:428   */\n      tag_159\n      jump\t// in\n    tag_158:\n        /* \"#utility.yul\":295:434   */\n      swap3\n      swap2\n      pop\n      pop\n      jump\t// out\n        /* \"#utility.yul\":440:575   */\n    tag_160:\n        /* \"#utility.yul\":484:489   */\n      0x00\n        /* \"#utility.yul\":522:528   */\n      dup2\n        /* \"#utility.yul\":509:529   */\n      calldataload\n        /* \"#utility.yul\":500:529   */\n      swap1\n      pop\n        /* \"#utility.yul\":538:569   */\n      tag_162\n        /* \"#utility.yul\":563:568   */\n      dup2\n        /* \"#utility.yul\":538:569   */\n      tag_163\n      jump\t// in\n    tag_162:\n        /* \"#utility.yul\":440:575   */\n      swap3\n      swap2\n      pop\n      pop\n      jump\t// out\n        /* \"#utility.yul\":581:910   */\n    tag_48:\n        /* \"#utility.yul\":640:646   */\n      0x00\n        /* \"#utility.yul\":689:691   */\n      0x20\n        /* \"#utility.yul\":677:686   */\n      dup3\n        /* \"#utility.yul\":668:675   */\n      dup5\n        /* \"#utility.yul\":664:687   */\n      sub\n        /* \"#utility.yul\":660:692   */\n      slt\n        /* \"#utility.yul\":657:776   */\n      iszero\n      tag_165\n      jumpi\n        /* \"#utility.yul\":695:774   */\n      tag_166\n      tag_167\n      jump\t// in\n    tag_166:\n        /* \"#utility.yul\":657:776   */\n    tag_165:\n        /* \"#utility.yul\":815:816   */\n      0x00\n        /* \"#utility.yul\":840:893   */\n      tag_168\n        /* \"#utility.yul\":885:892   */\n      dup5\n        /* \"#utility.yul\":876:882   */\n      dup3\n        /* \"#utility.yul\":865:874   */\n      dup6\n        /* \"#utility.yul\":861:883   */\n      add\n        /* \"#utility.yul\":840:893   */\n      tag_148\n      jump\t// in\n    tag_168:\n        /* \"#utility.yul\":830:893   */\n      swap2\n      pop\n        /* \"#utility.yul\":786:903   */\n      pop\n        /* \"#utility.yul\":581:910   */\n      swap3\n      swap2\n      pop\n      pop\n      jump\t// out\n        /* \"#utility.yul\":916:1386   */\n    tag_52:\n        /* \"#utility.yul\":982:988   */\n      0x00\n        /* \"#utility.yul\":990:996   */\n      dup1\n        /* \"#utility.yul\":1039:1041   */\n      0x40\n        /* \"#utility.yul\":1027:1036   */\n      dup4\n        /* \"#utility.yul\":1018:1025   */\n      dup6\n        /* \"#utility.yul\":1014:1037   */\n      sub\n        /* \"#utility.yul\":1010:1042   */\n      slt\n        /* \"#utility.yul\":1007:1126   */\n      iszero\n      tag_170\n      jumpi\n        /* \"#utility.yul\":1045:1124   */\n      tag_171\n      tag_167\n      jump\t// in\n    tag_171:\n        /* \"#utility.yul\":1007:1126   */\n    tag_170:\n        /* \"#utility.yul\":1165:1166   */\n      0x00\n        /* \"#utility.yul\":1190:1243   */\n      tag_172\n        /* \"#utility.yul\":1235:1242   */\n      dup6\n        /* \"#utility.yul\":1226:1232   */\n      dup3\n        /* \"#utility.yul\":1215:1224   */\n      dup7\n        /* \"#utility.yul\":1211:1233   */\n      add\n        /* \"#utility.yul\":1190:1243   */\n      tag_148\n      jump\t// in\n    tag_172:\n        /* \"#utility.yul\":1180:1243   */\n      swap3\n      pop\n        /* \"#utility.yul\":1136:1253   */\n      pop\n        /* \"#utility.yul\":1292:1294   */\n      0x20\n        /* \"#utility.yul\":1318:1369   */\n      tag_173\n        /* \"#utility.yul\":1361:1368   */\n      dup6\n        /* \"#utility.yul\":1352:1358   */\n      dup3\n        /* \"#utility.yul\":1341:1350   */\n      dup7\n        /* \"#utility.yul\":1337:1359   */\n      add\n        /* \"#utility.yul\":1318:1369   */\n      tag_160\n      jump\t// in\n    tag_173:\n        /* \"#utility.yul\":1308:1369   */\n      swap2\n      pop\n        /* \"#utility.yul\":1263:1379   */\n      pop\n        /* \"#utility.yul\":916:1386   */\n      swap3\n      pop\n      swap3\n      swap1\n      pop\n      jump\t// out\n        /* \"#utility.yul\":1392:2007   */\n    tag_31:\n        /* \"#utility.yul\":1467:1473   */\n      0x00\n        /* \"#utility.yul\":1475:1481   */\n      dup1\n        /* \"#utility.yul\":1483:1489   */\n      0x00\n        /* \"#utility.yul\":1532:1534   */\n      0x60\n        /* \"#utility.yul\":1520:1529   */\n      dup5\n        /* \"#utility.yul\":1511:1518   */\n      dup7\n        /* \"#utility.yul\":1507:1530   */\n      sub\n        /* \"#utility.yul\":1503:1535   */\n      slt\n        /* \"#utility.yul\":1500:1619   */\n      iszero\n      tag_175\n      jumpi\n        /* \"#utility.yul\":1538:1617   */\n      tag_176\n      tag_167\n      jump\t// in\n    tag_176:\n        /* \"#utility.yul\":1500:1619   */\n    tag_175:\n        /* \"#utility.yul\":1658:1659   */\n      0x00\n        /* \"#utility.yul\":1683:1736   */\n      tag_177\n        /* \"#utility.yul\":1728:1735   */\n      dup7\n        /* \"#utility.yul\":1719:1725   */\n      dup3\n        /* \"#utility.yul\":1708:1717   */\n      dup8\n        /* \"#utility.yul\":1704:1726   */\n      add\n        /* \"#utility.yul\":1683:1736   */\n      tag_148\n      jump\t// in\n    tag_177:\n        /* \"#utility.yul\":1673:1736   */\n      swap4\n      pop\n        /* \"#utility.yul\":1629:1746   */\n      pop\n        /* \"#utility.yul\":1785:1787   */\n      0x20\n        /* \"#utility.yul\":1811:1862   */\n      tag_178\n        /* \"#utility.yul\":1854:1861   */\n      dup7\n        /* \"#utility.yul\":1845:1851   */\n      dup3\n        /* \"#utility.yul\":1834:1843   */\n      dup8\n        /* \"#utility.yul\":1830:1852   */\n      add\n        /* \"#utility.yul\":1811:1862   */\n      tag_160\n      jump\t// in\n    tag_178:\n        /* \"#utility.yul\":1801:1862   */\n      swap3\n      pop\n        /* \"#utility.yul\":1756:1872   */\n      pop\n        /* \"#utility.yul\":1911:1913   */\n      0x40\n        /* \"#utility.yul\":1937:1990   */\n      tag_179\n        /* \"#utility.yul\":1982:1989   */\n      dup7\n        /* \"#utility.yul\":1973:1979   */\n      dup3\n        /* \"#utility.yul\":1962:1971   */\n      dup8\n        /* \"#utility.yul\":1958:1980   */\n      add\n        /* \"#utility.yul\":1937:1990   */\n      tag_156\n      jump\t// in\n    tag_179:\n        /* \"#utility.yul\":1927:1990   */\n      swap2\n      pop\n        /* \"#utility.yul\":1882:2000   */\n      pop\n        /* \"#utility.yul\":1392:2007   */\n      swap3\n      pop\n      swap3\n      pop\n      swap3\n      jump\t// out\n        /* \"#utility.yul\":2013:2358   */\n    tag_80:\n        /* \"#utility.yul\":2080:2086   */\n      0x00\n        /* \"#utility.yul\":2129:2131   */\n      0x20\n        /* \"#utility.yul\":2117:2126   */\n      dup3\n        /* \"#utility.yul\":2108:2115   */\n      dup5\n        /* \"#utility.yul\":2104:2127   */\n      sub\n        /* \"#utility.yul\":2100:2132   */\n      slt\n        /* \"#utility.yul\":2097:2216   */\n      iszero\n      tag_181\n      jumpi\n        /* \"#utility.yul\":2135:2214   */\n      tag_182\n      tag_167\n      jump\t// in\n    tag_182:\n        /* \"#utility.yul\":2097:2216   */\n    tag_181:\n        /* \"#utility.yul\":2255:2256   */\n      0x00\n        /* \"#utility.yul\":2280:2341   */\n      tag_183\n        /* \"#utility.yul\":2333:2340   */\n      dup5\n        /* \"#utility.yul\":2324:2330   */\n      dup3\n        /* \"#utility.yul\":2313:2322   */\n      dup6\n        /* \"#utility.yul\":2309:2331   */\n      add\n        /* \"#utility.yul\":2280:2341   */\n      tag_152\n      jump\t// in\n    tag_183:\n        /* \"#utility.yul\":2270:2341   */\n      swap2\n      pop\n        /* \"#utility.yul\":2226:2351   */\n      pop\n        /* \"#utility.yul\":2013:2358   */\n      swap3\n      swap2\n      pop\n      pop\n      jump\t// out\n        /* \"#utility.yul\":2364:2838   */\n    tag_19:\n        /* \"#utility.yul\":2432:2438   */\n      0x00\n        /* \"#utility.yul\":2440:2446   */\n      dup1\n        /* \"#utility.yul\":2489:2491   */\n      0x40\n        /* \"#utility.yul\":2477:2486   */\n      dup4\n        /* \"#utility.yul\":2468:2475   */\n      dup6\n        /* \"#utility.yul\":2464:2487   */\n      sub\n        /* \"#utility.yul\":2460:2492   */\n      slt\n        /* \"#utility.yul\":2457:2576   */\n      iszero\n      tag_185\n      jumpi\n        /* \"#utility.yul\":2495:2574   */\n      tag_186\n      tag_167\n      jump\t// in\n    tag_186:\n        /* \"#utility.yul\":2457:2576   */\n    tag_185:\n        /* \"#utility.yul\":2615:2616   */\n      0x00\n        /* \"#utility.yul\":2640:2693   */\n      tag_187\n        /* \"#utility.yul\":2685:2692   */\n      dup6\n        /* \"#utility.yul\":2676:2682   */\n      dup3\n        /* \"#utility.yul\":2665:2674   */\n      dup7\n        /* \"#utility.yul\":2661:2683   */\n      add\n        /* \"#utility.yul\":2640:2693   */\n      tag_156\n      jump\t// in\n    tag_187:\n        /* \"#utility.yul\":2630:2693   */\n      swap3\n      pop\n        /* \"#utility.yul\":2586:2703   */\n      pop\n        /* \"#utility.yul\":2742:2744   */\n      0x20\n        /* \"#utility.yul\":2768:2821   */\n      tag_188\n        /* \"#utility.yul\":2813:2820   */\n      dup6\n        /* \"#utility.yul\":2804:2810   */\n      dup3\n        /* \"#utility.yul\":2793:2802   */\n      dup7\n        /* \"#utility.yul\":2789:2811   */\n      add\n        /* \"#utility.yul\":2768:2821   */\n      tag_156\n      jump\t// in\n    tag_188:\n        /* \"#utility.yul\":2758:2821   */\n      swap2\n      pop\n        /* \"#utility.yul\":2713:2831   */\n      pop\n        /* \"#utility.yul\":2364:2838   */\n      swap3\n      pop\n      swap3\n      swap1\n      pop\n      jump\t// out\n        /* \"#utility.yul\":2844:2962   */\n    tag_189:\n        /* \"#utility.yul\":2931:2955   */\n      tag_191\n        /* \"#utility.yul\":2949:2954   */\n      dup2\n        /* \"#utility.yul\":2931:2955   */\n      tag_192\n      jump\t// in\n    tag_191:\n        /* \"#utility.yul\":2926:2929   */\n      dup3\n        /* \"#utility.yul\":2919:2956   */\n      mstore\n        /* \"#utility.yul\":2844:2962   */\n      pop\n      pop\n      jump\t// out\n        /* \"#utility.yul\":2968:3077   */\n    tag_193:\n        /* \"#utility.yul\":3049:3070   */\n      tag_195\n        /* \"#utility.yul\":3064:3069   */\n      dup2\n        /* \"#utility.yul\":3049:3070   */\n      tag_196\n      jump\t// in\n    tag_195:\n        /* \"#utility.yul\":3044:3047   */\n      dup3\n        /* \"#utility.yul\":3037:3071   */\n      mstore\n        /* \"#utility.yul\":2968:3077   */\n      pop\n      pop\n      jump\t// out\n        /* \"#utility.yul\":3083:3242   */\n    tag_197:\n        /* \"#utility.yul\":3184:3235   */\n      tag_199\n        /* \"#utility.yul\":3229:3234   */\n      dup2\n        /* \"#utility.yul\":3184:3235   */\n      tag_200\n      jump\t// in\n    tag_199:\n        /* \"#utility.yul\":3179:3182   */\n      dup3\n        /* \"#utility.yul\":3172:3236   */\n      mstore\n        /* \"#utility.yul\":3083:3242   */\n      pop\n      pop\n      jump\t// out\n        /* \"#utility.yul\":3248:3395   */\n    tag_201:\n        /* \"#utility.yul\":3343:3388   */\n      tag_203\n        /* \"#utility.yul\":3382:3387   */\n      dup2\n        /* \"#utility.yul\":3343:3388   */\n      tag_204\n      jump\t// in\n    tag_203:\n        /* \"#utility.yul\":3338:3341   */\n      dup3\n        /* \"#utility.yul\":3331:3389   */\n      mstore\n        /* \"#utility.yul\":3248:3395   */\n      pop\n      pop\n      jump\t// out\n        /* \"#utility.yul\":3401:3767   */\n    tag_205:\n        /* \"#utility.yul\":3543:3546   */\n      0x00\n        /* \"#utility.yul\":3564:3631   */\n      tag_207\n        /* \"#utility.yul\":3628:3630   */\n      0x14\n        /* \"#utility.yul\":3623:3626   */\n      dup4\n        /* \"#utility.yul\":3564:3631   */\n      tag_208\n      jump\t// in\n    tag_207:\n        /* \"#utility.yul\":3557:3631   */\n      swap2\n      pop\n        /* \"#utility.yul\":3640:3733   */\n      tag_209\n        /* \"#utility.yul\":3729:3732   */\n      dup3\n        /* \"#utility.yul\":3640:3733   */\n      tag_210\n      jump\t// in\n    tag_209:\n        /* \"#utility.yul\":3758:3760   */\n      0x20\n        /* \"#utility.yul\":3753:3756   */\n      dup3\n        /* \"#utility.yul\":3749:3761   */\n      add\n        /* \"#utility.yul\":3742:3761   */\n      swap1\n      pop\n        /* \"#utility.yul\":3401:3767   */\n      swap2\n      swap1\n      pop\n      jump\t// out\n        /* \"#utility.yul\":3773:4139   */\n    tag_211:\n        /* \"#utility.yul\":3915:3918   */\n      0x00\n        /* \"#utility.yul\":3936:4003   */\n      tag_213\n        /* \"#utility.yul\":4000:4002   */\n      0x26\n        /* \"#utility.yul\":3995:3998   */\n      dup4\n        /* \"#utility.yul\":3936:4003   */\n      tag_208\n      jump\t// in\n    tag_213:\n        /* \"#utility.yul\":3929:4003   */\n      swap2\n      pop\n        /* \"#utility.yul\":4012:4105   */\n      tag_214\n        /* \"#utility.yul\":4101:4104   */\n      dup3\n        /* \"#utility.yul\":4012:4105   */\n      tag_215\n      jump\t// in\n    tag_214:\n        /* \"#utility.yul\":4130:4132   */\n      0x40\n        /* \"#utility.yul\":4125:4128   */\n      dup3\n        /* \"#utility.yul\":4121:4133   */\n      add\n        /* \"#utility.yul\":4114:4133   */\n      swap1\n      pop\n        /* \"#utility.yul\":3773:4139   */\n      swap2\n      swap1\n      pop\n      jump\t// out\n        /* \"#utility.yul\":4145:4511   */\n    tag_216:\n        /* \"#utility.yul\":4287:4290   */\n      0x00\n        /* \"#utility.yul\":4308:4375   */\n      tag_218\n        /* \"#utility.yul\":4372:4374   */\n      0x18\n        /* \"#utility.yul\":4367:4370   */\n      dup4\n        /* \"#utility.yul\":4308:4375   */\n      tag_208\n      jump\t// in\n    tag_218:\n        /* \"#utility.yul\":4301:4375   */\n      swap2\n      pop\n        /* \"#utility.yul\":4384:4477   */\n      tag_219\n        /* \"#utility.yul\":4473:4476   */\n      dup3\n        /* \"#utility.yul\":4384:4477   */\n      tag_220\n      jump\t// in\n    tag_219:\n        /* \"#utility.yul\":4502:4504   */\n      0x20\n        /* \"#utility.yul\":4497:4500   */\n      dup3\n        /* \"#utility.yul\":4493:4505   */\n      add\n        /* \"#utility.yul\":4486:4505   */\n      swap1\n      pop\n        /* \"#utility.yul\":4145:4511   */\n      swap2\n      swap1\n      pop\n      jump\t// out\n        /* \"#utility.yul\":4517:4883   */\n    tag_221:\n        /* \"#utility.yul\":4659:4662   */\n      0x00\n        /* \"#utility.yul\":4680:4747   */\n      tag_223\n        /* \"#utility.yul\":4744:4746   */\n      0x10\n        /* \"#utility.yul\":4739:4742   */\n      dup4\n        /* \"#utility.yul\":4680:4747   */\n      tag_208\n      jump\t// in\n    tag_223:\n        /* \"#utility.yul\":4673:4747   */\n      swap2\n      pop\n        /* \"#utility.yul\":4756:4849   */\n      tag_224\n        /* \"#utility.yul\":4845:4848   */\n      dup3\n        /* \"#utility.yul\":4756:4849   */\n      tag_225\n      jump\t// in\n    tag_224:\n        /* \"#utility.yul\":4874:4876   */\n      0x20\n        /* \"#utility.yul\":4869:4872   */\n      dup3\n        /* \"#utility.yul\":4865:4877   */\n      add\n        /* \"#utility.yul\":4858:4877   */\n      swap1\n      pop\n        /* \"#utility.yul\":4517:4883   */\n      swap2\n      swap1\n      pop\n      jump\t// out\n        /* \"#utility.yul\":4889:5255   */\n    tag_226:\n        /* \"#utility.yul\":5031:5034   */\n      0x00\n        /* \"#utility.yul\":5052:5119   */\n      tag_228\n        /* \"#utility.yul\":5116:5118   */\n      0x20\n        /* \"#utility.yul\":5111:5114   */\n      dup4\n        /* \"#utility.yul\":5052:5119   */\n      tag_208\n      jump\t// in\n    tag_228:\n        /* \"#utility.yul\":5045:5119   */\n      swap2\n      pop\n        /* \"#utility.yul\":5128:5221   */\n      tag_229\n        /* \"#utility.yul\":5217:5220   */\n      dup3\n        /* \"#utility.yul\":5128:5221   */\n      tag_230\n      jump\t// in\n    tag_229:\n        /* \"#utility.yul\":5246:5248   */\n      0x20\n        /* \"#utility.yul\":5241:5244   */\n      dup3\n        /* \"#utility.yul\":5237:5249   */\n      add\n        /* \"#utility.yul\":5230:5249   */\n      swap1\n      pop\n        /* \"#utility.yul\":4889:5255   */\n      swap2\n      swap1\n      pop\n      jump\t// out\n        /* \"#utility.yul\":5261:5627   */\n    tag_231:\n        /* \"#utility.yul\":5403:5406   */\n      0x00\n        /* \"#utility.yul\":5424:5491   */\n      tag_233\n        /* \"#utility.yul\":5488:5490   */\n      0x12\n        /* \"#utility.yul\":5483:5486   */\n      dup4\n        /* \"#utility.yul\":5424:5491   */\n      tag_208\n      jump\t// in\n    tag_233:\n        /* \"#utility.yul\":5417:5491   */\n      swap2\n      pop\n        /* \"#utility.yul\":5500:5593   */\n      tag_234\n        /* \"#utility.yul\":5589:5592   */\n      dup3\n        /* \"#utility.yul\":5500:5593   */\n      tag_235\n      jump\t// in\n    tag_234:\n        /* \"#utility.yul\":5618:5620   */\n      0x20\n        /* \"#utility.yul\":5613:5616   */\n      dup3\n        /* \"#utility.yul\":5609:5621   */\n      add\n        /* \"#utility.yul\":5602:5621   */\n      swap1\n      pop\n        /* \"#utility.yul\":5261:5627   */\n      swap2\n      swap1\n      pop\n      jump\t// out\n        /* \"#utility.yul\":5633:5751   */\n    tag_236:\n        /* \"#utility.yul\":5720:5744   */\n      tag_238\n        /* \"#utility.yul\":5738:5743   */\n      dup2\n        /* \"#utility.yul\":5720:5744   */\n      tag_239\n      jump\t// in\n    tag_238:\n        /* \"#utility.yul\":5715:5718   */\n      dup3\n        /* \"#utility.yul\":5708:5745   */\n      mstore\n        /* \"#utility.yul\":5633:5751   */\n      pop\n      pop\n      jump\t// out\n        /* \"#utility.yul\":5757:5979   */\n    tag_42:\n        /* \"#utility.yul\":5850:5854   */\n      0x00\n        /* \"#utility.yul\":5888:5890   */\n      0x20\n        /* \"#utility.yul\":5877:5886   */\n      dup3\n        /* \"#utility.yul\":5873:5891   */\n      add\n        /* \"#utility.yul\":5865:5891   */\n      swap1\n      pop\n        /* \"#utility.yul\":5901:5972   */\n      tag_241\n        /* \"#utility.yul\":5969:5970   */\n      0x00\n        /* \"#utility.yul\":5958:5967   */\n      dup4\n        /* \"#utility.yul\":5954:5971   */\n      add\n        /* \"#utility.yul\":5945:5951   */\n      dup5\n        /* \"#utility.yul\":5901:5972   */\n      tag_189\n      jump\t// in\n    tag_241:\n        /* \"#utility.yul\":5757:5979   */\n      swap3\n      swap2\n      pop\n      pop\n      jump\t// out\n        /* \"#utility.yul\":5985:6427   */\n    tag_109:\n        /* \"#utility.yul\":6134:6138   */\n      0x00\n        /* \"#utility.yul\":6172:6174   */\n      0x60\n        /* \"#utility.yul\":6161:6170   */\n      dup3\n        /* \"#utility.yul\":6157:6175   */\n      add\n        /* \"#utility.yul\":6149:6175   */\n      swap1\n      pop\n        /* \"#utility.yul\":6185:6256   */\n      tag_243\n        /* \"#utility.yul\":6253:6254   */\n      0x00\n        /* \"#utility.yul\":6242:6251   */\n      dup4\n        /* \"#utility.yul\":6238:6255   */\n      add\n        /* \"#utility.yul\":6229:6235   */\n      dup7\n        /* \"#utility.yul\":6185:6256   */\n      tag_189\n      jump\t// in\n    tag_243:\n        /* \"#utility.yul\":6266:6338   */\n      tag_244\n        /* \"#utility.yul\":6334:6336   */\n      0x20\n        /* \"#utility.yul\":6323:6332   */\n      dup4\n        /* \"#utility.yul\":6319:6337   */\n      add\n        /* \"#utility.yul\":6310:6316   */\n      dup6\n        /* \"#utility.yul\":6266:6338   */\n      tag_189\n      jump\t// in\n    tag_244:\n        /* \"#utility.yul\":6348:6420   */\n      tag_245\n        /* \"#utility.yul\":6416:6418   */\n      0x40\n        /* \"#utility.yul\":6405:6414   */\n      dup4\n        /* \"#utility.yul\":6401:6419   */\n      add\n        /* \"#utility.yul\":6392:6398   */\n      dup5\n        /* \"#utility.yul\":6348:6420   */\n      tag_236\n      jump\t// in\n    tag_245:\n        /* \"#utility.yul\":5985:6427   */\n      swap5\n      swap4\n      pop\n      pop\n      pop\n      pop\n      jump\t// out\n        /* \"#utility.yul\":6433:6891   */\n    tag_82:\n        /* \"#utility.yul\":6590:6594   */\n      0x00\n        /* \"#utility.yul\":6628:6630   */\n      0x60\n        /* \"#utility.yul\":6617:6626   */\n      dup3\n        /* \"#utility.yul\":6613:6631   */\n      add\n        /* \"#utility.yul\":6605:6631   */\n      swap1\n      pop\n        /* \"#utility.yul\":6641:6712   */\n      tag_247\n        /* \"#utility.yul\":6709:6710   */\n      0x00\n        /* \"#utility.yul\":6698:6707   */\n      dup4\n        /* \"#utility.yul\":6694:6711   */\n      add\n        /* \"#utility.yul\":6685:6691   */\n      dup7\n        /* \"#utility.yul\":6641:6712   */\n      tag_189\n      jump\t// in\n    tag_247:\n        /* \"#utility.yul\":6722:6802   */\n      tag_248\n        /* \"#utility.yul\":6798:6800   */\n      0x20\n        /* \"#utility.yul\":6787:6796   */\n      dup4\n        /* \"#utility.yul\":6783:6801   */\n      add\n        /* \"#utility.yul\":6774:6780   */\n      dup6\n        /* \"#utility.yul\":6722:6802   */\n      tag_201\n      jump\t// in\n    tag_248:\n        /* \"#utility.yul\":6812:6884   */\n      tag_249\n        /* \"#utility.yul\":6880:6882   */\n      0x40\n        /* \"#utility.yul\":6869:6878   */\n      dup4\n        /* \"#utility.yul\":6865:6883   */\n      add\n        /* \"#utility.yul\":6856:6862   */\n      dup5\n        /* \"#utility.yul\":6812:6884   */\n      tag_236\n      jump\t// in\n    tag_249:\n        /* \"#utility.yul\":6433:6891   */\n      swap5\n      swap4\n      pop\n      pop\n      pop\n      pop\n      jump\t// out\n        /* \"#utility.yul\":6897:7229   */\n    tag_75:\n        /* \"#utility.yul\":7018:7022   */\n      0x00\n        /* \"#utility.yul\":7056:7058   */\n      0x40\n        /* \"#utility.yul\":7045:7054   */\n      dup3\n        /* \"#utility.yul\":7041:7059   */\n      add\n        /* \"#utility.yul\":7033:7059   */\n      swap1\n      pop\n        /* \"#utility.yul\":7069:7140   */\n      tag_251\n        /* \"#utility.yul\":7137:7138   */\n      0x00\n        /* \"#utility.yul\":7126:7135   */\n      dup4\n        /* \"#utility.yul\":7122:7139   */\n      add\n        /* \"#utility.yul\":7113:7119   */\n      dup6\n        /* \"#utility.yul\":7069:7140   */\n      tag_189\n      jump\t// in\n    tag_251:\n        /* \"#utility.yul\":7150:7222   */\n      tag_252\n        /* \"#utility.yul\":7218:7220   */\n      0x20\n        /* \"#utility.yul\":7207:7216   */\n      dup4\n        /* \"#utility.yul\":7203:7221   */\n      add\n        /* \"#utility.yul\":7194:7200   */\n      dup5\n        /* \"#utility.yul\":7150:7222   */\n      tag_236\n      jump\t// in\n    tag_252:\n        /* \"#utility.yul\":6897:7229   */\n      swap4\n      swap3\n      pop\n      pop\n      pop\n      jump\t// out\n        /* \"#utility.yul\":7235:7677   */\n    tag_118:\n        /* \"#utility.yul\":7384:7388   */\n      0x00\n        /* \"#utility.yul\":7422:7424   */\n      0x60\n        /* \"#utility.yul\":7411:7420   */\n      dup3\n        /* \"#utility.yul\":7407:7425   */\n      add\n        /* \"#utility.yul\":7399:7425   */\n      swap1\n      pop\n        /* \"#utility.yul\":7435:7506   */\n      tag_254\n        /* \"#utility.yul\":7503:7504   */\n      0x00\n        /* \"#utility.yul\":7492:7501   */\n      dup4\n        /* \"#utility.yul\":7488:7505   */\n      add\n        /* \"#utility.yul\":7479:7485   */\n      dup7\n        /* \"#utility.yul\":7435:7506   */\n      tag_189\n      jump\t// in\n    tag_254:\n        /* \"#utility.yul\":7516:7588   */\n      tag_255\n        /* \"#utility.yul\":7584:7586   */\n      0x20\n        /* \"#utility.yul\":7573:7582   */\n      dup4\n        /* \"#utility.yul\":7569:7587   */\n      add\n        /* \"#utility.yul\":7560:7566   */\n      dup6\n        /* \"#utility.yul\":7516:7588   */\n      tag_236\n      jump\t// in\n    tag_255:\n        /* \"#utility.yul\":7598:7670   */\n      tag_256\n        /* \"#utility.yul\":7666:7668   */\n      0x40\n        /* \"#utility.yul\":7655:7664   */\n      dup4\n        /* \"#utility.yul\":7651:7669   */\n      add\n        /* \"#utility.yul\":7642:7648   */\n      dup5\n        /* \"#utility.yul\":7598:7670   */\n      tag_236\n      jump\t// in\n    tag_256:\n        /* \"#utility.yul\":7235:7677   */\n      swap5\n      swap4\n      pop\n      pop\n      pop\n      pop\n      jump\t// out\n        /* \"#utility.yul\":7683:7893   */\n    tag_28:\n        /* \"#utility.yul\":7770:7774   */\n      0x00\n        /* \"#utility.yul\":7808:7810   */\n      0x20\n        /* \"#utility.yul\":7797:7806   */\n      dup3\n        /* \"#utility.yul\":7793:7811   */\n      add\n        /* \"#utility.yul\":7785:7811   */\n      swap1\n      pop\n        /* \"#utility.yul\":7821:7886   */\n      tag_258\n        /* \"#utility.yul\":7883:7884   */\n      0x00\n        /* \"#utility.yul\":7872:7881   */\n      dup4\n        /* \"#utility.yul\":7868:7885   */\n      add\n        /* \"#utility.yul\":7859:7865   */\n      dup5\n        /* \"#utility.yul\":7821:7886   */\n      tag_193\n      jump\t// in\n    tag_258:\n        /* \"#utility.yul\":7683:7893   */\n      swap3\n      swap2\n      pop\n      pop\n      jump\t// out\n        /* \"#utility.yul\":7899:8149   */\n    tag_24:\n        /* \"#utility.yul\":8006:8010   */\n      0x00\n        /* \"#utility.yul\":8044:8046   */\n      0x20\n        /* \"#utility.yul\":8033:8042   */\n      dup3\n        /* \"#utility.yul\":8029:8047   */\n      add\n        /* \"#utility.yul\":8021:8047   */\n      swap1\n      pop\n        /* \"#utility.yul\":8057:8142   */\n      tag_260\n        /* \"#utility.yul\":8139:8140   */\n      0x00\n        /* \"#utility.yul\":8128:8137   */\n      dup4\n        /* \"#utility.yul\":8124:8141   */\n      add\n        /* \"#utility.yul\":8115:8121   */\n      dup5\n        /* \"#utility.yul\":8057:8142   */\n      tag_197\n      jump\t// in\n    tag_260:\n        /* \"#utility.yul\":7899:8149   */\n      swap3\n      swap2\n      pop\n      pop\n      jump\t// out\n        /* \"#utility.yul\":8155:8574   */\n    tag_135:\n        /* \"#utility.yul\":8321:8325   */\n      0x00\n        /* \"#utility.yul\":8359:8361   */\n      0x20\n        /* \"#utility.yul\":8348:8357   */\n      dup3\n        /* \"#utility.yul\":8344:8362   */\n      add\n        /* \"#utility.yul\":8336:8362   */\n      swap1\n      pop\n        /* \"#utility.yul\":8408:8417   */\n      dup2\n        /* \"#utility.yul\":8402:8406   */\n      dup2\n        /* \"#utility.yul\":8398:8418   */\n      sub\n        /* \"#utility.yul\":8394:8395   */\n      0x00\n        /* \"#utility.yul\":8383:8392   */\n      dup4\n        /* \"#utility.yul\":8379:8396   */\n      add\n        /* \"#utility.yul\":8372:8419   */\n      mstore\n        /* \"#utility.yul\":8436:8567   */\n      tag_262\n        /* \"#utility.yul\":8562:8566   */\n      dup2\n        /* \"#utility.yul\":8436:8567   */\n      tag_205\n      jump\t// in\n    tag_262:\n        /* \"#utility.yul\":8428:8567   */\n      swap1\n      pop\n        /* \"#utility.yul\":8155:8574   */\n      swap2\n      swap1\n      pop\n      jump\t// out\n        /* \"#utility.yul\":8580:8999   */\n    tag_127:\n        /* \"#utility.yul\":8746:8750   */\n      0x00\n        /* \"#utility.yul\":8784:8786   */\n      0x20\n        /* \"#utility.yul\":8773:8782   */\n      dup3\n        /* \"#utility.yul\":8769:8787   */\n      add\n        /* \"#utility.yul\":8761:8787   */\n      swap1\n      pop\n        /* \"#utility.yul\":8833:8842   */\n      dup2\n        /* \"#utility.yul\":8827:8831   */\n      dup2\n        /* \"#utility.yul\":8823:8843   */\n      sub\n        /* \"#utility.yul\":8819:8820   */\n      0x00\n        /* \"#utility.yul\":8808:8817   */\n      dup4\n        /* \"#utility.yul\":8804:8821   */\n      add\n        /* \"#utility.yul\":8797:8844   */\n      mstore\n        /* \"#utility.yul\":8861:8992   */\n      tag_264\n        /* \"#utility.yul\":8987:8991   */\n      dup2\n        /* \"#utility.yul\":8861:8992   */\n      tag_211\n      jump\t// in\n    tag_264:\n        /* \"#utility.yul\":8853:8992   */\n      swap1\n      pop\n        /* \"#utility.yul\":8580:8999   */\n      swap2\n      swap1\n      pop\n      jump\t// out\n        /* \"#utility.yul\":9005:9424   */\n    tag_71:\n        /* \"#utility.yul\":9171:9175   */\n      0x00\n        /* \"#utility.yul\":9209:9211   */\n      0x20\n        /* \"#utility.yul\":9198:9207   */\n      dup3\n        /* \"#utility.yul\":9194:9212   */\n      add\n        /* \"#utility.yul\":9186:9212   */\n      swap1\n      pop\n        /* \"#utility.yul\":9258:9267   */\n      dup2\n        /* \"#utility.yul\":9252:9256   */\n      dup2\n        /* \"#utility.yul\":9248:9268   */\n      sub\n        /* \"#utility.yul\":9244:9245   */\n      0x00\n        /* \"#utility.yul\":9233:9242   */\n      dup4\n        /* \"#utility.yul\":9229:9246   */\n      add\n        /* \"#utility.yul\":9222:9269   */\n      mstore\n        /* \"#utility.yul\":9286:9417   */\n      tag_266\n        /* \"#utility.yul\":9412:9416   */\n      dup2\n        /* \"#utility.yul\":9286:9417   */\n      tag_216\n      jump\t// in\n    tag_266:\n        /* \"#utility.yul\":9278:9417   */\n      swap1\n      pop\n        /* \"#utility.yul\":9005:9424   */\n      swap2\n      swap1\n      pop\n      jump\t// out\n        /* \"#utility.yul\":9430:9849   */\n    tag_106:\n        /* \"#utility.yul\":9596:9600   */\n      0x00\n        /* \"#utility.yul\":9634:9636   */\n      0x20\n        /* \"#utility.yul\":9623:9632   */\n      dup3\n        /* \"#utility.yul\":9619:9637   */\n      add\n        /* \"#utility.yul\":9611:9637   */\n      swap1\n      pop\n        /* \"#utility.yul\":9683:9692   */\n      dup2\n        /* \"#utility.yul\":9677:9681   */\n      dup2\n        /* \"#utility.yul\":9673:9693   */\n      sub\n        /* \"#utility.yul\":9669:9670   */\n      0x00\n        /* \"#utility.yul\":9658:9667   */\n      dup4\n        /* \"#utility.yul\":9654:9671   */\n      add\n        /* \"#utility.yul\":9647:9694   */\n      mstore\n        /* \"#utility.yul\":9711:9842   */\n      tag_268\n        /* \"#utility.yul\":9837:9841   */\n      dup2\n        /* \"#utility.yul\":9711:9842   */\n      tag_221\n      jump\t// in\n    tag_268:\n        /* \"#utility.yul\":9703:9842   */\n      swap1\n      pop\n        /* \"#utility.yul\":9430:9849   */\n      swap2\n      swap1\n      pop\n      jump\t// out\n        /* \"#utility.yul\":9855:10274   */\n    tag_61:\n        /* \"#utility.yul\":10021:10025   */\n      0x00\n        /* \"#utility.yul\":10059:10061   */\n      0x20\n        /* \"#utility.yul\":10048:10057   */\n      dup3\n        /* \"#utility.yul\":10044:10062   */\n      add\n        /* \"#utility.yul\":10036:10062   */\n      swap1\n      pop\n        /* \"#utility.yul\":10108:10117   */\n      dup2\n        /* \"#utility.yul\":10102:10106   */\n      dup2\n        /* \"#utility.yul\":10098:10118   */\n      sub\n        /* \"#utility.yul\":10094:10095   */\n      0x00\n        /* \"#utility.yul\":10083:10092   */\n      dup4\n        /* \"#utility.yul\":10079:10096   */\n      add\n        /* \"#utility.yul\":10072:10119   */\n      mstore\n        /* \"#utility.yul\":10136:10267   */\n      tag_270\n        /* \"#utility.yul\":10262:10266   */\n      dup2\n        /* \"#utility.yul\":10136:10267   */\n      tag_226\n      jump\t// in\n    tag_270:\n        /* \"#utility.yul\":10128:10267   */\n      swap1\n      pop\n        /* \"#utility.yul\":9855:10274   */\n      swap2\n      swap1\n      pop\n      jump\t// out\n        /* \"#utility.yul\":10280:10699   */\n    tag_68:\n        /* \"#utility.yul\":10446:10450   */\n      0x00\n        /* \"#utility.yul\":10484:10486   */\n      0x20\n        /* \"#utility.yul\":10473:10482   */\n      dup3\n        /* \"#utility.yul\":10469:10487   */\n      add\n        /* \"#utility.yul\":10461:10487   */\n      swap1\n      pop\n        /* \"#utility.yul\":10533:10542   */\n      dup2\n        /* \"#utility.yul\":10527:10531   */\n      dup2\n        /* \"#utility.yul\":10523:10543   */\n      sub\n        /* \"#utility.yul\":10519:10520   */\n      0x00\n        /* \"#utility.yul\":10508:10517   */\n      dup4\n        /* \"#utility.yul\":10504:10521   */\n      add\n        /* \"#utility.yul\":10497:10544   */\n      mstore\n        /* \"#utility.yul\":10561:10692   */\n      tag_272\n        /* \"#utility.yul\":10687:10691   */\n      dup2\n        /* \"#utility.yul\":10561:10692   */\n      tag_231\n      jump\t// in\n    tag_272:\n        /* \"#utility.yul\":10553:10692   */\n      swap1\n      pop\n        /* \"#utility.yul\":10280:10699   */\n      swap2\n      swap1\n      pop\n      jump\t// out\n        /* \"#utility.yul\":10705:10927   */\n    tag_34:\n        /* \"#utility.yul\":10798:10802   */\n      0x00\n        /* \"#utility.yul\":10836:10838   */\n      0x20\n        /* \"#utility.yul\":10825:10834   */\n      dup3\n        /* \"#utility.yul\":10821:10839   */\n      add\n        /* \"#utility.yul\":10813:10839   */\n      swap1\n      pop\n        /* \"#utility.yul\":10849:10920   */\n      tag_274\n        /* \"#utility.yul\":10917:10918   */\n      0x00\n        /* \"#utility.yul\":10906:10915   */\n      dup4\n        /* \"#utility.yul\":10902:10919   */\n      add\n        /* \"#utility.yul\":10893:10899   */\n      dup5\n        /* \"#utility.yul\":10849:10920   */\n      tag_236\n      jump\t// in\n    tag_274:\n        /* \"#utility.yul\":10705:10927   */\n      swap3\n      swap2\n      pop\n      pop\n      jump\t// out\n        /* \"#utility.yul\":11014:11183   */\n    tag_208:\n        /* \"#utility.yul\":11098:11109   */\n      0x00\n        /* \"#utility.yul\":11132:11138   */\n      dup3\n        /* \"#utility.yul\":11127:11130   */\n      dup3\n        /* \"#utility.yul\":11120:11139   */\n      mstore\n        /* \"#utility.yul\":11172:11176   */\n      0x20\n        /* \"#utility.yul\":11167:11170   */\n      dup3\n        /* \"#utility.yul\":11163:11177   */\n      add\n        /* \"#utility.yul\":11148:11177   */\n      swap1\n      pop\n        /* \"#utility.yul\":11014:11183   */\n      swap3\n      swap2\n      pop\n      pop\n      jump\t// out\n        /* \"#utility.yul\":11189:11494   */\n    tag_115:\n        /* \"#utility.yul\":11229:11232   */\n      0x00\n        /* \"#utility.yul\":11248:11268   */\n      tag_279\n        /* \"#utility.yul\":11266:11267   */\n      dup3\n        /* \"#utility.yul\":11248:11268   */\n      tag_239\n      jump\t// in\n    tag_279:\n        /* \"#utility.yul\":11243:11268   */\n      swap2\n      pop\n        /* \"#utility.yul\":11282:11302   */\n      tag_280\n        /* \"#utility.yul\":11300:11301   */\n      dup4\n        /* \"#utility.yul\":11282:11302   */\n      tag_239\n      jump\t// in\n    tag_280:\n        /* \"#utility.yul\":11277:11302   */\n      swap3\n      pop\n        /* \"#utility.yul\":11436:11437   */\n      dup3\n        /* \"#utility.yul\":11368:11434   */\n      0xffffffffffffffffffffffffffffffffffffffffffffffffffffffffffffffff\n        /* \"#utility.yul\":11364:11438   */\n      sub\n        /* \"#utility.yul\":11361:11362   */\n      dup3\n        /* \"#utility.yul\":11358:11439   */\n      gt\n        /* \"#utility.yul\":11355:11462   */\n      iszero\n      tag_281\n      jumpi\n        /* \"#utility.yul\":11442:11460   */\n      tag_282\n      tag_283\n      jump\t// in\n    tag_282:\n        /* \"#utility.yul\":11355:11462   */\n    tag_281:\n        /* \"#utility.yul\":11486:11487   */\n      dup3\n        /* \"#utility.yul\":11483:11484   */\n      dup3\n        /* \"#utility.yul\":11479:11488   */\n      add\n        /* \"#utility.yul\":11472:11488   */\n      swap1\n      pop\n        /* \"#utility.yul\":11189:11494   */\n      swap3\n      swap2\n      pop\n      pop\n      jump\t// out\n        /* \"#utility.yul\":11500:11691   */\n    tag_73:\n        /* \"#utility.yul\":11540:11544   */\n      0x00\n        /* \"#utility.yul\":11560:11580   */\n      tag_285\n        /* \"#utility.yul\":11578:11579   */\n      dup3\n        /* \"#utility.yul\":11560:11580   */\n      tag_239\n      jump\t// in\n    tag_285:\n        /* \"#utility.yul\":11555:11580   */\n      swap2\n      pop\n        /* \"#utility.yul\":11594:11614   */\n      tag_286\n        /* \"#utility.yul\":11612:11613   */\n      dup4\n        /* \"#utility.yul\":11594:11614   */\n      tag_239\n      jump\t// in\n    tag_286:\n        /* \"#utility.yul\":11589:11614   */\n      swap3\n      pop\n        /* \"#utility.yul\":11633:11634   */\n      dup3\n        /* \"#utility.yul\":11630:11631   */\n      dup3\n        /* \"#utility.yul\":11627:11635   */\n      lt\n        /* \"#utility.yul\":11624:11658   */\n      iszero\n      tag_287\n      jumpi\n        /* \"#utility.yul\":11638:11656   */\n      tag_288\n      tag_283\n      jump\t// in\n    tag_288:\n        /* \"#utility.yul\":11624:11658   */\n    tag_287:\n        /* \"#utility.yul\":11683:11684   */\n      dup3\n        /* \"#utility.yul\":11680:11681   */\n      dup3\n        /* \"#utility.yul\":11676:11685   */\n      sub\n        /* \"#utility.yul\":11668:11685   */\n      swap1\n      pop\n        /* \"#utility.yul\":11500:11691   */\n      swap3\n      swap2\n      pop\n      pop\n      jump\t// out\n        /* \"#utility.yul\":11697:11793   */\n    tag_192:\n        /* \"#utility.yul\":11734:11741   */\n      0x00\n        /* \"#utility.yul\":11763:11787   */\n      tag_290\n        /* \"#utility.yul\":11781:11786   */\n      dup3\n        /* \"#utility.yul\":11763:11787   */\n      tag_291\n      jump\t// in\n    tag_290:\n        /* \"#utility.yul\":11752:11787   */\n      swap1\n      pop\n        /* \"#utility.yul\":11697:11793   */\n      swap2\n      swap1\n      pop\n      jump\t// out\n        /* \"#utility.yul\":11799:11889   */\n    tag_196:\n        /* \"#utility.yul\":11833:11840   */\n      0x00\n        /* \"#utility.yul\":11876:11881   */\n      dup2\n        /* \"#utility.yul\":11869:11882   */\n      iszero\n        /* \"#utility.yul\":11862:11883   */\n      iszero\n        /* \"#utility.yul\":11851:11883   */\n      swap1\n      pop\n        /* \"#utility.yul\":11799:11889   */\n      swap2\n      swap1\n      pop\n      jump\t// out\n        /* \"#utility.yul\":11895:12021   */\n    tag_291:\n        /* \"#utility.yul\":11932:11939   */\n      0x00\n        /* \"#utility.yul\":11972:12014   */\n      0xffffffffffffffffffffffffffffffffffffffff\n        /* \"#utility.yul\":11965:11970   */\n      dup3\n        /* \"#utility.yul\":11961:12015   */\n      and\n        /* \"#utility.yul\":11950:12015   */\n      swap1\n      pop\n        /* \"#utility.yul\":11895:12021   */\n      swap2\n      swap1\n      pop\n      jump\t// out\n        /* \"#utility.yul\":12027:12104   */\n    tag_239:\n        /* \"#utility.yul\":12064:12071   */\n      0x00\n        /* \"#utility.yul\":12093:12098   */\n      dup2\n        /* \"#utility.yul\":12082:12098   */\n      swap1\n      pop\n        /* \"#utility.yul\":12027:12104   */\n      swap2\n      swap1\n      pop\n      jump\t// out\n        /* \"#utility.yul\":12110:12196   */\n    tag_295:\n        /* \"#utility.yul\":12145:12152   */\n      0x00\n        /* \"#utility.yul\":12185:12189   */\n      0xff\n        /* \"#utility.yul\":12178:12183   */\n      dup3\n        /* \"#utility.yul\":12174:12190   */\n      and\n        /* \"#utility.yul\":12163:12190   */\n      swap1\n      pop\n        /* \"#utility.yul\":12110:12196   */\n      swap2\n      swap1\n      pop\n      jump\t// out\n        /* \"#utility.yul\":12202:12342   */\n    tag_200:\n        /* \"#utility.yul\":12266:12275   */\n      0x00\n        /* \"#utility.yul\":12299:12336   */\n      tag_298\n        /* \"#utility.yul\":12330:12335   */\n      dup3\n        /* \"#utility.yul\":12299:12336   */\n      tag_299\n      jump\t// in\n    tag_298:\n        /* \"#utility.yul\":12286:12336   */\n      swap1\n      pop\n        /* \"#utility.yul\":12202:12342   */\n      swap2\n      swap1\n      pop\n      jump\t// out\n        /* \"#utility.yul\":12348:12469   */\n    tag_204:\n        /* \"#utility.yul\":12406:12415   */\n      0x00\n        /* \"#utility.yul\":12439:12463   */\n      tag_301\n        /* \"#utility.yul\":12457:12462   */\n      dup3\n        /* \"#utility.yul\":12439:12463   */\n      tag_239\n      jump\t// in\n    tag_301:\n        /* \"#utility.yul\":12426:12463   */\n      swap1\n      pop\n        /* \"#utility.yul\":12348:12469   */\n      swap2\n      swap1\n      pop\n      jump\t// out\n        /* \"#utility.yul\":12475:12601   */\n    tag_299:\n        /* \"#utility.yul\":12525:12534   */\n      0x00\n        /* \"#utility.yul\":12558:12595   */\n      tag_303\n        /* \"#utility.yul\":12589:12594   */\n      dup3\n        /* \"#utility.yul\":12558:12595   */\n      tag_304\n      jump\t// in\n    tag_303:\n        /* \"#utility.yul\":12545:12595   */\n      swap1\n      pop\n        /* \"#utility.yul\":12475:12601   */\n      swap2\n      swap1\n      pop\n      jump\t// out\n        /* \"#utility.yul\":12607:12720   */\n    tag_304:\n        /* \"#utility.yul\":12657:12666   */\n      0x00\n        /* \"#utility.yul\":12690:12714   */\n      tag_306\n        /* \"#utility.yul\":12708:12713   */\n      dup3\n        /* \"#utility.yul\":12690:12714   */\n      tag_291\n      jump\t// in\n    tag_306:\n        /* \"#utility.yul\":12677:12714   */\n      swap1\n      pop\n        /* \"#utility.yul\":12607:12720   */\n      swap2\n      swap1\n      pop\n      jump\t// out\n        /* \"#utility.yul\":12726:12906   */\n    tag_283:\n        /* \"#utility.yul\":12774:12851   */\n      0x4e487b7100000000000000000000000000000000000000000000000000000000\n        /* \"#utility.yul\":12771:12772   */\n      0x00\n        /* \"#utility.yul\":12764:12852   */\n      mstore\n        /* \"#utility.yul\":12871:12875   */\n      0x11\n        /* \"#utility.yul\":12868:12869   */\n      0x04\n        /* \"#utility.yul\":12861:12876   */\n      mstore\n        /* \"#utility.yul\":12895:12899   */\n      0x24\n        /* \"#utility.yul\":12892:12893   */\n      0x00\n        /* \"#utility.yul\":12885:12900   */\n      revert\n        /* \"#utility.yul\":13035:13152   */\n    tag_167:\n        /* \"#utility.yul\":13144:13145   */\n      0x00\n        /* \"#utility.yul\":13141:13142   */\n      dup1\n        /* \"#utility.yul\":13134:13146   */\n      revert\n        /* \"#utility.yul\":13158:13328   */\n    tag_210:\n        /* \"#utility.yul\":13298:13320   */\n      0x5061757361626c653a206e6f7420706175736564000000000000000000000000\n        /* \"#utility.yul\":13294:13295   */\n      0x00\n        /* \"#utility.yul\":13286:13292   */\n      dup3\n        /* \"#utility.yul\":13282:13296   */\n      add\n        /* \"#utility.yul\":13275:13321   */\n      mstore\n        /* \"#utility.yul\":13158:13328   */\n      pop\n      jump\t// out\n        /* \"#utility.yul\":13334:13559   */\n    tag_215:\n        /* \"#utility.yul\":13474:13508   */\n      0x4f776e61626c653a206e6577206f776e657220697320746865207a65726f2061\n        /* \"#utility.yul\":13470:13471   */\n      0x00\n        /* \"#utility.yul\":13462:13468   */\n      dup3\n        /* \"#utility.yul\":13458:13472   */\n      add\n        /* \"#utility.yul\":13451:13509   */\n      mstore\n        /* \"#utility.yul\":13543:13551   */\n      0x6464726573730000000000000000000000000000000000000000000000000000\n        /* \"#utility.yul\":13538:13540   */\n      0x20\n        /* \"#utility.yul\":13530:13536   */\n      dup3\n        /* \"#utility.yul\":13526:13541   */\n      add\n        /* \"#utility.yul\":13519:13552   */\n      mstore\n        /* \"#utility.yul\":13334:13559   */\n      pop\n      jump\t// out\n        /* \"#utility.yul\":13565:13739   */\n    tag_220:\n        /* \"#utility.yul\":13705:13731   */\n      0x4465706f736974206e6f7420756e6c6f636b6564207965740000000000000000\n        /* \"#utility.yul\":13701:13702   */\n      0x00\n        /* \"#utility.yul\":13693:13699   */\n      dup3\n        /* \"#utility.yul\":13689:13703   */\n      add\n        /* \"#utility.yul\":13682:13732   */\n      mstore\n        /* \"#utility.yul\":13565:13739   */\n      pop\n      jump\t// out\n        /* \"#utility.yul\":13745:13911   */\n    tag_225:\n        /* \"#utility.yul\":13885:13903   */\n      0x5061757361626c653a2070617573656400000000000000000000000000000000\n        /* \"#utility.yul\":13881:13882   */\n      0x00\n        /* \"#utility.yul\":13873:13879   */\n      dup3\n        /* \"#utility.yul\":13869:13883   */\n      add\n        /* \"#utility.yul\":13862:13904   */\n      mstore\n        /* \"#utility.yul\":13745:13911   */\n      pop\n      jump\t// out\n        /* \"#utility.yul\":13917:14099   */\n    tag_230:\n        /* \"#utility.yul\":14057:14091   */\n      0x4f776e61626c653a2063616c6c6572206973206e6f7420746865206f776e6572\n        /* \"#utility.yul\":14053:14054   */\n      0x00\n        /* \"#utility.yul\":14045:14051   */\n      dup3\n        /* \"#utility.yul\":14041:14055   */\n      add\n        /* \"#utility.yul\":14034:14092   */\n      mstore\n        /* \"#utility.yul\":13917:14099   */\n      pop\n      jump\t// out\n        /* \"#utility.yul\":14105:14273   */\n    tag_235:\n        /* \"#utility.yul\":14245:14265   */\n      0x4e6f7420656e6f756768206465706f7369740000000000000000000000000000\n        /* \"#utility.yul\":14241:14242   */\n      0x00\n        /* \"#utility.yul\":14233:14239   */\n      dup3\n        /* \"#utility.yul\":14229:14243   */\n      add\n        /* \"#utility.yul\":14222:14266   */\n      mstore\n        /* \"#utility.yul\":14105:14273   */\n      pop\n      jump\t// out\n        /* \"#utility.yul\":14279:14401   */\n    tag_151:\n        /* \"#utility.yul\":14352:14376   */\n      tag_318\n        /* \"#utility.yul\":14370:14375   */\n      dup2\n        /* \"#utility.yul\":14352:14376   */\n      tag_192\n      jump\t// in\n    tag_318:\n        /* \"#utility.yul\":14345:14350   */\n      dup2\n        /* \"#utility.yul\":14342:14377   */\n      eq\n        /* \"#utility.yul\":14332:14395   */\n      tag_319\n      jumpi\n        /* \"#utility.yul\":14391:14392   */\n      0x00\n        /* \"#utility.yul\":14388:14389   */\n      dup1\n        /* \"#utility.yul\":14381:14393   */\n      revert\n        /* \"#utility.yul\":14332:14395   */\n    tag_319:\n        /* \"#utility.yul\":14279:14401   */\n      pop\n      jump\t// out\n        /* \"#utility.yul\":14407:14523   */\n    tag_155:\n        /* \"#utility.yul\":14477:14498   */\n      tag_321\n        /* \"#utility.yul\":14492:14497   */\n      dup2\n        /* \"#utility.yul\":14477:14498   */\n      tag_196\n      jump\t// in\n    tag_321:\n        /* \"#utility.yul\":14470:14475   */\n      dup2\n        /* \"#utility.yul\":14467:14499   */\n      eq\n        /* \"#utility.yul\":14457:14517   */\n      tag_322\n      jumpi\n        /* \"#utility.yul\":14513:14514   */\n      0x00\n        /* \"#utility.yul\":14510:14511   */\n      dup1\n        /* \"#utility.yul\":14503:14515   */\n      revert\n        /* \"#utility.yul\":14457:14517   */\n    tag_322:\n        /* \"#utility.yul\":14407:14523   */\n      pop\n      jump\t// out\n        /* \"#utility.yul\":14529:14651   */\n    tag_159:\n        /* \"#utility.yul\":14602:14626   */\n      tag_324\n        /* \"#utility.yul\":14620:14625   */\n      dup2\n        /* \"#utility.yul\":14602:14626   */\n      tag_239\n      jump\t// in\n    tag_324:\n        /* \"#utility.yul\":14595:14600   */\n      dup2\n        /* \"#utility.yul\":14592:14627   */\n      eq\n        /* \"#utility.yul\":14582:14645   */\n      tag_325\n      jumpi\n        /* \"#utility.yul\":14641:14642   */\n      0x00\n        /* \"#utility.yul\":14638:14639   */\n      dup1\n        /* \"#utility.yul\":14631:14643   */\n      revert\n        /* \"#utility.yul\":14582:14645   */\n    tag_325:\n        /* \"#utility.yul\":14529:14651   */\n      pop\n      jump\t// out\n        /* \"#utility.yul\":14657:14775   */\n    tag_163:\n        /* \"#utility.yul\":14728:14750   */\n      tag_327\n        /* \"#utility.yul\":14744:14749   */\n      dup2\n        /* \"#utility.yul\":14728:14750   */\n      tag_295\n      jump\t// in\n    tag_327:\n        /* \"#utility.yul\":14721:14726   */\n      dup2\n        /* \"#utility.yul\":14718:14751   */\n      eq\n        /* \"#utility.yul\":14708:14769   */\n      tag_328\n      jumpi\n        /* \"#utility.yul\":14765:14766   */\n      0x00\n        /* \"#utility.yul\":14762:14763   */\n      dup1\n        /* \"#utility.yul\":14755:14767   */\n      revert\n        /* \"#utility.yul\":14708:14769   */\n    tag_328:\n        /* \"#utility.yul\":14657:14775   */\n      pop\n      jump\t// out\n\n    auxdata: 0xa2646970667358221220c37e3d31a372397f0fd18c3955cd42cdda7a4672f36871554c66dbcbb92bd5c164736f6c63430008070033\n}\n",
				"bytecode": {
					"linkReferences": {},
					"object": "60806040523480156200001157600080fd5b506040516200157d3803806200157d83398181016040528101906200003791906200019c565b620000576200004b620000b960201b60201c565b620000c160201b60201c565b60008060146101000a81548160ff02191690831515021790555080600160006101000a81548173ffffffffffffffffffffffffffffffffffffffff021916908373ffffffffffffffffffffffffffffffffffffffff1602179055505062000221565b600033905090565b60008060009054906101000a900473ffffffffffffffffffffffffffffffffffffffff169050816000806101000a81548173ffffffffffffffffffffffffffffffffffffffff021916908373ffffffffffffffffffffffffffffffffffffffff1602179055508173ffffffffffffffffffffffffffffffffffffffff168173ffffffffffffffffffffffffffffffffffffffff167f8be0079c531659141344cd1fd0a4f28419497f9722a3daafe3b4186f6b6457e060405160405180910390a35050565b600081519050620001968162000207565b92915050565b600060208284031215620001b557620001b462000202565b5b6000620001c58482850162000185565b91505092915050565b6000620001db82620001e2565b9050919050565b600073ffffffffffffffffffffffffffffffffffffffff82169050919050565b600080fd5b6200021281620001ce565b81146200021e57600080fd5b50565b61134c80620002316000396000f3fe608060405234801561001057600080fd5b50600436106100a95760003560e01c8063715018a611610071578063715018a6146101405780638456cb591461014a5780638da5cb5b14610154578063e2bbb15814610172578063f2fde38b1461018e578063f7edf9ab146101aa576100a9565b80633f4ba83a146100ae578063441a3e70146100b8578063451c3d80146100d45780635c975abb146100f257806369e0684814610110575b600080fd5b6100b66101da565b005b6100d260048036038101906100cd9190610cdb565b610260565b005b6100dc6104ec565b6040516100e99190610f3c565b60405180910390f35b6100fa610512565b6040516101079190610f21565b60405180910390f35b61012a60048036038101906101259190610c5b565b610528565b6040516101379190611017565b60405180910390f35b610148610531565b005b6101526105b9565b005b61015c61063f565b6040516101699190610e38565b60405180910390f35b61018c60048036038101906101879190610cdb565b610668565b005b6101a860048036038101906101a39190610bee565b61088a565b005b6101c460048036038101906101bf9190610c1b565b610982565b6040516101d19190610f21565b60405180910390f35b6101e261098a565b73ffffffffffffffffffffffffffffffffffffffff1661020061063f565b73ffffffffffffffffffffffffffffffffffffffff1614610256576040517f08c379a000000000000000000000000000000000000000000000000000000000815260040161024d90610fd7565b60405180910390fd5b61025e610992565b565b600033905082600260008373ffffffffffffffffffffffffffffffffffffffff1673ffffffffffffffffffffffffffffffffffffffff16815260200190815260200160002060008481526020019081526020016000206000015410156102fb576040517f08c379a00000000000000000000000000000000000000000000000000000000081526004016102f290610ff7565b60405180910390fd5b42600260008373ffffffffffffffffffffffffffffffffffffffff1673ffffffffffffffffffffffffffffffffffffffff1681526020019081526020016000206000848152602001908152602001600020600101541115610391576040517f08c379a000000000000000000000000000000000000000000000000000000000815260040161038890610f97565b60405180910390fd5b82600260008373ffffffffffffffffffffffffffffffffffffffff1673ffffffffffffffffffffffffffffffffffffffff168152602001908152602001600020600084815260200190815260200160002060000160008282546103f49190611099565b92505081905550600160009054906101000a900473ffffffffffffffffffffffffffffffffffffffff1673ffffffffffffffffffffffffffffffffffffffff1663a9059cbb82856040518363ffffffff1660e01b8152600401610458929190610ec1565b602060405180830381600087803b15801561047257600080fd5b505af1158015610486573d6000803e3d6000fd5b505050506040513d601f19601f820116820180604052508101906104aa9190610cae565b507ff279e6a1f5e320cca91135676d9cb6e44ca8a08c0b88342bcdb1144f6511b568816000856040516104df93929190610e8a565b60405180910390a1505050565b600160009054906101000a900473ffffffffffffffffffffffffffffffffffffffff1681565b60008060149054906101000a900460ff16905090565b60009392505050565b61053961098a565b73ffffffffffffffffffffffffffffffffffffffff1661055761063f565b73ffffffffffffffffffffffffffffffffffffffff16146105ad576040517f08c379a00000000000000000000000000000000000000000000000000000000081526004016105a490610fd7565b60405180910390fd5b6105b76000610a33565b565b6105c161098a565b73ffffffffffffffffffffffffffffffffffffffff166105df61063f565b73ffffffffffffffffffffffffffffffffffffffff1614610635576040517f08c379a000000000000000000000000000000000000000000000000000000000815260040161062c90610fd7565b60405180910390fd5b61063d610af7565b565b60008060009054906101000a900473ffffffffffffffffffffffffffffffffffffffff16905090565b610670610512565b156106b0576040517f08c379a00000000000000000000000000000000000000000000000000000000081526004016106a790610fb7565b60405180910390fd5b6000339050600160009054906101000a900473ffffffffffffffffffffffffffffffffffffffff1673ffffffffffffffffffffffffffffffffffffffff166323b872dd8230866040518463ffffffff1660e01b815260040161071493929190610e53565b602060405180830381600087803b15801561072e57600080fd5b505af1158015610742573d6000803e3d6000fd5b505050506040513d601f19601f820116820180604052508101906107669190610cae565b5082600260008373ffffffffffffffffffffffffffffffffffffffff1673ffffffffffffffffffffffffffffffffffffffff168152602001908152602001600020600084815260200190815260200160002060000160008282546107ca9190611043565b925050819055506003600083815260200190815260200160002060010154426107f39190611043565b600260008373ffffffffffffffffffffffffffffffffffffffff1673ffffffffffffffffffffffffffffffffffffffff1681526020019081526020016000206000848152602001908152602001600020600101819055507f90890809c654f11d6e72a28fa60149770a0d11ec6c92319d6ceb2bb0a4ea1a1581838560405161087d93929190610eea565b60405180910390a1505050565b61089261098a565b73ffffffffffffffffffffffffffffffffffffffff166108b061063f565b73ffffffffffffffffffffffffffffffffffffffff1614610906576040517f08c379a00000000000000000000000000000000000000000000000000000000081526004016108fd90610fd7565b60405180910390fd5b600073ffffffffffffffffffffffffffffffffffffffff168173ffffffffffffffffffffffffffffffffffffffff161415610976576040517f08c379a000000000000000000000000000000000000000000000000000000000815260040161096d90610f77565b60405180910390fd5b61097f81610a33565b50565b600092915050565b600033905090565b61099a610512565b6109d9576040517f08c379a00000000000000000000000000000000000000000000000000000000081526004016109d090610f57565b60405180910390fd5b60008060146101000a81548160ff0219169083151502179055507f5db9ee0a495bf2e6ff9c91a7834c1ba4fdd244a5e8aa4e537bd38aeae4b073aa610a1c61098a565b604051610a299190610e38565b60405180910390a1565b60008060009054906101000a900473ffffffffffffffffffffffffffffffffffffffff169050816000806101000a81548173ffffffffffffffffffffffffffffffffffffffff021916908373ffffffffffffffffffffffffffffffffffffffff1602179055508173ffffffffffffffffffffffffffffffffffffffff168173ffffffffffffffffffffffffffffffffffffffff167f8be0079c531659141344cd1fd0a4f28419497f9722a3daafe3b4186f6b6457e060405160405180910390a35050565b610aff610512565b15610b3f576040517f08c379a0000000000000000000000000000000000000000000000000000000008152600401610b3690610fb7565b60405180910390fd5b6001600060146101000a81548160ff0219169083151502179055507f62e78cea01bee320cd4e420270b5ea74000d11b0c9f74754ebdbfc544b05a258610b8361098a565b604051610b909190610e38565b60405180910390a1565b600081359050610ba9816112ba565b92915050565b600081519050610bbe816112d1565b92915050565b600081359050610bd3816112e8565b92915050565b600081359050610be8816112ff565b92915050565b600060208284031215610c0457610c03611199565b5b6000610c1284828501610b9a565b91505092915050565b60008060408385031215610c3257610c31611199565b5b6000610c4085828601610b9a565b9250506020610c5185828601610bd9565b9150509250929050565b600080600060608486031215610c7457610c73611199565b5b6000610c8286828701610b9a565b9350506020610c9386828701610bd9565b9250506040610ca486828701610bc4565b9150509250925092565b600060208284031215610cc457610cc3611199565b5b6000610cd284828501610baf565b91505092915050565b60008060408385031215610cf257610cf1611199565b5b6000610d0085828601610bc4565b9250506020610d1185828601610bc4565b9150509250929050565b610d24816110cd565b82525050565b610d33816110df565b82525050565b610d4281611122565b82525050565b610d5181611134565b82525050565b6000610d64601483611032565b9150610d6f8261119e565b602082019050919050565b6000610d87602683611032565b9150610d92826111c7565b604082019050919050565b6000610daa601883611032565b9150610db582611216565b602082019050919050565b6000610dcd601083611032565b9150610dd88261123f565b602082019050919050565b6000610df0602083611032565b9150610dfb82611268565b602082019050919050565b6000610e13601283611032565b9150610e1e82611291565b602082019050919050565b610e328161110b565b82525050565b6000602082019050610e4d6000830184610d1b565b92915050565b6000606082019050610e686000830186610d1b565b610e756020830185610d1b565b610e826040830184610e29565b949350505050565b6000606082019050610e9f6000830186610d1b565b610eac6020830185610d48565b610eb96040830184610e29565b949350505050565b6000604082019050610ed66000830185610d1b565b610ee36020830184610e29565b9392505050565b6000606082019050610eff6000830186610d1b565b610f0c6020830185610e29565b610f196040830184610e29565b949350505050565b6000602082019050610f366000830184610d2a565b92915050565b6000602082019050610f516000830184610d39565b92915050565b60006020820190508181036000830152610f7081610d57565b9050919050565b60006020820190508181036000830152610f9081610d7a565b9050919050565b60006020820190508181036000830152610fb081610d9d565b9050919050565b60006020820190508181036000830152610fd081610dc0565b9050919050565b60006020820190508181036000830152610ff081610de3565b9050919050565b6000602082019050818103600083015261101081610e06565b9050919050565b600060208201905061102c6000830184610e29565b92915050565b600082825260208201905092915050565b600061104e8261110b565b91506110598361110b565b9250827fffffffffffffffffffffffffffffffffffffffffffffffffffffffffffffffff0382111561108e5761108d61116a565b5b828201905092915050565b60006110a48261110b565b91506110af8361110b565b9250828210156110c2576110c161116a565b5b828203905092915050565b60006110d8826110eb565b9050919050565b60008115159050919050565b600073ffffffffffffffffffffffffffffffffffffffff82169050919050565b6000819050919050565b600060ff82169050919050565b600061112d82611146565b9050919050565b600061113f8261110b565b9050919050565b600061115182611158565b9050919050565b6000611163826110eb565b9050919050565b7f4e487b7100000000000000000000000000000000000000000000000000000000600052601160045260246000fd5b600080fd5b7f5061757361626c653a206e6f7420706175736564000000000000000000000000600082015250565b7f4f776e61626c653a206e6577206f776e657220697320746865207a65726f206160008201527f6464726573730000000000000000000000000000000000000000000000000000602082015250565b7f4465706f736974206e6f7420756e6c6f636b6564207965740000000000000000600082015250565b7f5061757361626c653a2070617573656400000000000000000000000000000000600082015250565b7f4f776e61626c653a2063616c6c6572206973206e6f7420746865206f776e6572600082015250565b7f4e6f7420656e6f756768206465706f7369740000000000000000000000000000600082015250565b6112c3816110cd565b81146112ce57600080fd5b50565b6112da816110df565b81146112e557600080fd5b50565b6112f18161110b565b81146112fc57600080fd5b50565b61130881611115565b811461131357600080fd5b5056fea2646970667358221220c37e3d31a372397f0fd18c3955cd42cdda7a4672f36871554c66dbcbb92bd5c164736f6c63430008070033",
					"opcodes": "PUSH1 0x80 PUSH1 0x40 MSTORE CALLVALUE DUP1 ISZERO PUSH3 0x11 JUMPI PUSH1 0x0 DUP1 REVERT JUMPDEST POP PUSH1 0x40 MLOAD PUSH3 0x157D CODESIZE SUB DUP1 PUSH3 0x157D DUP4 CODECOPY DUP2 DUP2 ADD PUSH1 0x40 MSTORE DUP2 ADD SWAP1 PUSH3 0x37 SWAP2 SWAP1 PUSH3 0x19C JUMP JUMPDEST PUSH3 0x57 PUSH3 0x4B PUSH3 0xB9 PUSH1 0x20 SHL PUSH1 0x20 SHR JUMP JUMPDEST PUSH3 0xC1 PUSH1 0x20 SHL PUSH1 0x20 SHR JUMP JUMPDEST PUSH1 0x0 DUP1 PUSH1 0x14 PUSH2 0x100 EXP DUP2 SLOAD DUP2 PUSH1 0xFF MUL NOT AND SWAP1 DUP4 ISZERO ISZERO MUL OR SWAP1 SSTORE POP DUP1 PUSH1 0x1 PUSH1 0x0 PUSH2 0x100 EXP DUP2 SLOAD DUP2 PUSH20 0xFFFFFFFFFFFFFFFFFFFFFFFFFFFFFFFFFFFFFFFF MUL NOT AND SWAP1 DUP4 PUSH20 0xFFFFFFFFFFFFFFFFFFFFFFFFFFFFFFFFFFFFFFFF AND MUL OR SWAP1 SSTORE POP POP PUSH3 0x221 JUMP JUMPDEST PUSH1 0x0 CALLER SWAP1 POP SWAP1 JUMP JUMPDEST PUSH1 0x0 DUP1 PUSH1 0x0 SWAP1 SLOAD SWAP1 PUSH2 0x100 EXP SWAP1 DIV PUSH20 0xFFFFFFFFFFFFFFFFFFFFFFFFFFFFFFFFFFFFFFFF AND SWAP1 POP DUP2 PUSH1 0x0 DUP1 PUSH2 0x100 EXP DUP2 SLOAD DUP2 PUSH20 0xFFFFFFFFFFFFFFFFFFFFFFFFFFFFFFFFFFFFFFFF MUL NOT AND SWAP1 DUP4 PUSH20 0xFFFFFFFFFFFFFFFFFFFFFFFFFFFFFFFFFFFFFFFF AND MUL OR SWAP1 SSTORE POP DUP2 PUSH20 0xFFFFFFFFFFFFFFFFFFFFFFFFFFFFFFFFFFFFFFFF AND DUP2 PUSH20 0xFFFFFFFFFFFFFFFFFFFFFFFFFFFFFFFFFFFFFFFF AND PUSH32 0x8BE0079C531659141344CD1FD0A4F28419497F9722A3DAAFE3B4186F6B6457E0 PUSH1 0x40 MLOAD PUSH1 0x40 MLOAD DUP1 SWAP2 SUB SWAP1 LOG3 POP POP JUMP JUMPDEST PUSH1 0x0 DUP2 MLOAD SWAP1 POP PUSH3 0x196 DUP2 PUSH3 0x207 JUMP JUMPDEST SWAP3 SWAP2 POP POP JUMP JUMPDEST PUSH1 0x0 PUSH1 0x20 DUP3 DUP5 SUB SLT ISZERO PUSH3 0x1B5 JUMPI PUSH3 0x1B4 PUSH3 0x202 JUMP JUMPDEST JUMPDEST PUSH1 0x0 PUSH3 0x1C5 DUP5 DUP3 DUP6 ADD PUSH3 0x185 JUMP JUMPDEST SWAP2 POP POP SWAP3 SWAP2 POP POP JUMP JUMPDEST PUSH1 0x0 PUSH3 0x1DB DUP3 PUSH3 0x1E2 JUMP JUMPDEST SWAP1 POP SWAP2 SWAP1 POP JUMP JUMPDEST PUSH1 0x0 PUSH20 0xFFFFFFFFFFFFFFFFFFFFFFFFFFFFFFFFFFFFFFFF DUP3 AND SWAP1 POP SWAP2 SWAP1 POP JUMP JUMPDEST PUSH1 0x0 DUP1 REVERT JUMPDEST PUSH3 0x212 DUP2 PUSH3 0x1CE JUMP JUMPDEST DUP2 EQ PUSH3 0x21E JUMPI PUSH1 0x0 DUP1 REVERT JUMPDEST POP JUMP JUMPDEST PUSH2 0x134C DUP1 PUSH3 0x231 PUSH1 0x0 CODECOPY PUSH1 0x0 RETURN INVALID PUSH1 0x80 PUSH1 0x40 MSTORE CALLVALUE DUP1 ISZERO PUSH2 0x10 JUMPI PUSH1 0x0 DUP1 REVERT JUMPDEST POP PUSH1 0x4 CALLDATASIZE LT PUSH2 0xA9 JUMPI PUSH1 0x0 CALLDATALOAD PUSH1 0xE0 SHR DUP1 PUSH4 0x715018A6 GT PUSH2 0x71 JUMPI DUP1 PUSH4 0x715018A6 EQ PUSH2 0x140 JUMPI DUP1 PUSH4 0x8456CB59 EQ PUSH2 0x14A JUMPI DUP1 PUSH4 0x8DA5CB5B EQ PUSH2 0x154 JUMPI DUP1 PUSH4 0xE2BBB158 EQ PUSH2 0x172 JUMPI DUP1 PUSH4 0xF2FDE38B EQ PUSH2 0x18E JUMPI DUP1 PUSH4 0xF7EDF9AB EQ PUSH2 0x1AA JUMPI PUSH2 0xA9 JUMP JUMPDEST DUP1 PUSH4 0x3F4BA83A EQ PUSH2 0xAE JUMPI DUP1 PUSH4 0x441A3E70 EQ PUSH2 0xB8 JUMPI DUP1 PUSH4 0x451C3D80 EQ PUSH2 0xD4 JUMPI DUP1 PUSH4 0x5C975ABB EQ PUSH2 0xF2 JUMPI DUP1 PUSH4 0x69E06848 EQ PUSH2 0x110 JUMPI JUMPDEST PUSH1 0x0 DUP1 REVERT JUMPDEST PUSH2 0xB6 PUSH2 0x1DA JUMP JUMPDEST STOP JUMPDEST PUSH2 0xD2 PUSH1 0x4 DUP1 CALLDATASIZE SUB DUP2 ADD SWAP1 PUSH2 0xCD SWAP2 SWAP1 PUSH2 0xCDB JUMP JUMPDEST PUSH2 0x260 JUMP JUMPDEST STOP JUMPDEST PUSH2 0xDC PUSH2 0x4EC JUMP JUMPDEST PUSH1 0x40 MLOAD PUSH2 0xE9 SWAP2 SWAP1 PUSH2 0xF3C JUMP JUMPDEST PUSH1 0x40 MLOAD DUP1 SWAP2 SUB SWAP1 RETURN JUMPDEST PUSH2 0xFA PUSH2 0x512 JUMP JUMPDEST PUSH1 0x40 MLOAD PUSH2 0x107 SWAP2 SWAP1 PUSH2 0xF21 JUMP JUMPDEST PUSH1 0x40 MLOAD DUP1 SWAP2 SUB SWAP1 RETURN JUMPDEST PUSH2 0x12A PUSH1 0x4 DUP1 CALLDATASIZE SUB DUP2 ADD SWAP1 PUSH2 0x125 SWAP2 SWAP1 PUSH2 0xC5B JUMP JUMPDEST PUSH2 0x528 JUMP JUMPDEST PUSH1 0x40 MLOAD PUSH2 0x137 SWAP2 SWAP1 PUSH2 0x1017 JUMP JUMPDEST PUSH1 0x40 MLOAD DUP1 SWAP2 SUB SWAP1 RETURN JUMPDEST PUSH2 0x148 PUSH2 0x531 JUMP JUMPDEST STOP JUMPDEST PUSH2 0x152 PUSH2 0x5B9 JUMP JUMPDEST STOP JUMPDEST PUSH2 0x15C PUSH2 0x63F JUMP JUMPDEST PUSH1 0x40 MLOAD PUSH2 0x169 SWAP2 SWAP1 PUSH2 0xE38 JUMP JUMPDEST PUSH1 0x40 MLOAD DUP1 SWAP2 SUB SWAP1 RETURN JUMPDEST PUSH2 0x18C PUSH1 0x4 DUP1 CALLDATASIZE SUB DUP2 ADD SWAP1 PUSH2 0x187 SWAP2 SWAP1 PUSH2 0xCDB JUMP JUMPDEST PUSH2 0x668 JUMP JUMPDEST STOP JUMPDEST PUSH2 0x1A8 PUSH1 0x4 DUP1 CALLDATASIZE SUB DUP2 ADD SWAP1 PUSH2 0x1A3 SWAP2 SWAP1 PUSH2 0xBEE JUMP JUMPDEST PUSH2 0x88A JUMP JUMPDEST STOP JUMPDEST PUSH2 0x1C4 PUSH1 0x4 DUP1 CALLDATASIZE SUB DUP2 ADD SWAP1 PUSH2 0x1BF SWAP2 SWAP1 PUSH2 0xC1B JUMP JUMPDEST PUSH2 0x982 JUMP JUMPDEST PUSH1 0x40 MLOAD PUSH2 0x1D1 SWAP2 SWAP1 PUSH2 0xF21 JUMP JUMPDEST PUSH1 0x40 MLOAD DUP1 SWAP2 SUB SWAP1 RETURN JUMPDEST PUSH2 0x1E2 PUSH2 0x98A JUMP JUMPDEST PUSH20 0xFFFFFFFFFFFFFFFFFFFFFFFFFFFFFFFFFFFFFFFF AND PUSH2 0x200 PUSH2 0x63F JUMP JUMPDEST PUSH20 0xFFFFFFFFFFFFFFFFFFFFFFFFFFFFFFFFFFFFFFFF AND EQ PUSH2 0x256 JUMPI PUSH1 0x40 MLOAD PUSH32 0x8C379A000000000000000000000000000000000000000000000000000000000 DUP2 MSTORE PUSH1 0x4 ADD PUSH2 0x24D SWAP1 PUSH2 0xFD7 JUMP JUMPDEST PUSH1 0x40 MLOAD DUP1 SWAP2 SUB SWAP1 REVERT JUMPDEST PUSH2 0x25E PUSH2 0x992 JUMP JUMPDEST JUMP JUMPDEST PUSH1 0x0 CALLER SWAP1 POP DUP3 PUSH1 0x2 PUSH1 0x0 DUP4 PUSH20 0xFFFFFFFFFFFFFFFFFFFFFFFFFFFFFFFFFFFFFFFF AND PUSH20 0xFFFFFFFFFFFFFFFFFFFFFFFFFFFFFFFFFFFFFFFF AND DUP2 MSTORE PUSH1 0x20 ADD SWAP1 DUP2 MSTORE PUSH1 0x20 ADD PUSH1 0x0 KECCAK256 PUSH1 0x0 DUP5 DUP2 MSTORE PUSH1 0x20 ADD SWAP1 DUP2 MSTORE PUSH1 0x20 ADD PUSH1 0x0 KECCAK256 PUSH1 0x0 ADD SLOAD LT ISZERO PUSH2 0x2FB JUMPI PUSH1 0x40 MLOAD PUSH32 0x8C379A000000000000000000000000000000000000000000000000000000000 DUP2 MSTORE PUSH1 0x4 ADD PUSH2 0x2F2 SWAP1 PUSH2 0xFF7 JUMP JUMPDEST PUSH1 0x40 MLOAD DUP1 SWAP2 SUB SWAP1 REVERT JUMPDEST TIMESTAMP PUSH1 0x2 PUSH1 0x0 DUP4 PUSH20 0xFFFFFFFFFFFFFFFFFFFFFFFFFFFFFFFFFFFFFFFF AND PUSH20 0xFFFFFFFFFFFFFFFFFFFFFFFFFFFFFFFFFFFFFFFF AND DUP2 MSTORE PUSH1 0x20 ADD SWAP1 DUP2 MSTORE PUSH1 0x20 ADD PUSH1 0x0 KECCAK256 PUSH1 0x0 DUP5 DUP2 MSTORE PUSH1 0x20 ADD SWAP1 DUP2 MSTORE PUSH1 0x20 ADD PUSH1 0x0 KECCAK256 PUSH1 0x1 ADD SLOAD GT ISZERO PUSH2 0x391 JUMPI PUSH1 0x40 MLOAD PUSH32 0x8C379A000000000000000000000000000000000000000000000000000000000 DUP2 MSTORE PUSH1 0x4 ADD PUSH2 0x388 SWAP1 PUSH2 0xF97 JUMP JUMPDEST PUSH1 0x40 MLOAD DUP1 SWAP2 SUB SWAP1 REVERT JUMPDEST DUP3 PUSH1 0x2 PUSH1 0x0 DUP4 PUSH20 0xFFFFFFFFFFFFFFFFFFFFFFFFFFFFFFFFFFFFFFFF AND PUSH20 0xFFFFFFFFFFFFFFFFFFFFFFFFFFFFFFFFFFFFFFFF AND DUP2 MSTORE PUSH1 0x20 ADD SWAP1 DUP2 MSTORE PUSH1 0x20 ADD PUSH1 0x0 KECCAK256 PUSH1 0x0 DUP5 DUP2 MSTORE PUSH1 0x20 ADD SWAP1 DUP2 MSTORE PUSH1 0x20 ADD PUSH1 0x0 KECCAK256 PUSH1 0x0 ADD PUSH1 0x0 DUP3 DUP3 SLOAD PUSH2 0x3F4 SWAP2 SWAP1 PUSH2 0x1099 JUMP JUMPDEST SWAP3 POP POP DUP2 SWAP1 SSTORE POP PUSH1 0x1 PUSH1 0x0 SWAP1 SLOAD SWAP1 PUSH2 0x100 EXP SWAP1 DIV PUSH20 0xFFFFFFFFFFFFFFFFFFFFFFFFFFFFFFFFFFFFFFFF AND PUSH20 0xFFFFFFFFFFFFFFFFFFFFFFFFFFFFFFFFFFFFFFFF AND PUSH4 0xA9059CBB DUP3 DUP6 PUSH1 0x40 MLOAD DUP4 PUSH4 0xFFFFFFFF AND PUSH1 0xE0 SHL DUP2 MSTORE PUSH1 0x4 ADD PUSH2 0x458 SWAP3 SWAP2 SWAP1 PUSH2 0xEC1 JUMP JUMPDEST PUSH1 0x20 PUSH1 0x40 MLOAD DUP1 DUP4 SUB DUP2 PUSH1 0x0 DUP8 DUP1 EXTCODESIZE ISZERO DUP1 ISZERO PUSH2 0x472 JUMPI PUSH1 0x0 DUP1 REVERT JUMPDEST POP GAS CALL ISZERO DUP1 ISZERO PUSH2 0x486 JUMPI RETURNDATASIZE PUSH1 0x0 DUP1 RETURNDATACOPY RETURNDATASIZE PUSH1 0x0 REVERT JUMPDEST POP POP POP POP PUSH1 0x40 MLOAD RETURNDATASIZE PUSH1 0x1F NOT PUSH1 0x1F DUP3 ADD AND DUP3 ADD DUP1 PUSH1 0x40 MSTORE POP DUP2 ADD SWAP1 PUSH2 0x4AA SWAP2 SWAP1 PUSH2 0xCAE JUMP JUMPDEST POP PUSH32 0xF279E6A1F5E320CCA91135676D9CB6E44CA8A08C0B88342BCDB1144F6511B568 DUP2 PUSH1 0x0 DUP6 PUSH1 0x40 MLOAD PUSH2 0x4DF SWAP4 SWAP3 SWAP2 SWAP1 PUSH2 0xE8A JUMP JUMPDEST PUSH1 0x40 MLOAD DUP1 SWAP2 SUB SWAP1 LOG1 POP POP POP JUMP JUMPDEST PUSH1 0x1 PUSH1 0x0 SWAP1 SLOAD SWAP1 PUSH2 0x100 EXP SWAP1 DIV PUSH20 0xFFFFFFFFFFFFFFFFFFFFFFFFFFFFFFFFFFFFFFFF AND DUP2 JUMP JUMPDEST PUSH1 0x0 DUP1 PUSH1 0x14 SWAP1 SLOAD SWAP1 PUSH2 0x100 EXP SWAP1 DIV PUSH1 0xFF AND SWAP1 POP SWAP1 JUMP JUMPDEST PUSH1 0x0 SWAP4 SWAP3 POP POP POP JUMP JUMPDEST PUSH2 0x539 PUSH2 0x98A JUMP JUMPDEST PUSH20 0xFFFFFFFFFFFFFFFFFFFFFFFFFFFFFFFFFFFFFFFF AND PUSH2 0x557 PUSH2 0x63F JUMP JUMPDEST PUSH20 0xFFFFFFFFFFFFFFFFFFFFFFFFFFFFFFFFFFFFFFFF AND EQ PUSH2 0x5AD JUMPI PUSH1 0x40 MLOAD PUSH32 0x8C379A000000000000000000000000000000000000000000000000000000000 DUP2 MSTORE PUSH1 0x4 ADD PUSH2 0x5A4 SWAP1 PUSH2 0xFD7 JUMP JUMPDEST PUSH1 0x40 MLOAD DUP1 SWAP2 SUB SWAP1 REVERT JUMPDEST PUSH2 0x5B7 PUSH1 0x0 PUSH2 0xA33 JUMP JUMPDEST JUMP JUMPDEST PUSH2 0x5C1 PUSH2 0x98A JUMP JUMPDEST PUSH20 0xFFFFFFFFFFFFFFFFFFFFFFFFFFFFFFFFFFFFFFFF AND PUSH2 0x5DF PUSH2 0x63F JUMP JUMPDEST PUSH20 0xFFFFFFFFFFFFFFFFFFFFFFFFFFFFFFFFFFFFFFFF AND EQ PUSH2 0x635 JUMPI PUSH1 0x40 MLOAD PUSH32 0x8C379A000000000000000000000000000000000000000000000000000000000 DUP2 MSTORE PUSH1 0x4 ADD PUSH2 0x62C SWAP1 PUSH2 0xFD7 JUMP JUMPDEST PUSH1 0x40 MLOAD DUP1 SWAP2 SUB SWAP1 REVERT JUMPDEST PUSH2 0x63D PUSH2 0xAF7 JUMP JUMPDEST JUMP JUMPDEST PUSH1 0x0 DUP1 PUSH1 0x0 SWAP1 SLOAD SWAP1 PUSH2 0x100 EXP SWAP1 DIV PUSH20 0xFFFFFFFFFFFFFFFFFFFFFFFFFFFFFFFFFFFFFFFF AND SWAP1 POP SWAP1 JUMP JUMPDEST PUSH2 0x670 PUSH2 0x512 JUMP JUMPDEST ISZERO PUSH2 0x6B0 JUMPI PUSH1 0x40 MLOAD PUSH32 0x8C379A000000000000000000000000000000000000000000000000000000000 DUP2 MSTORE PUSH1 0x4 ADD PUSH2 0x6A7 SWAP1 PUSH2 0xFB7 JUMP JUMPDEST PUSH1 0x40 MLOAD DUP1 SWAP2 SUB SWAP1 REVERT JUMPDEST PUSH1 0x0 CALLER SWAP1 POP PUSH1 0x1 PUSH1 0x0 SWAP1 SLOAD SWAP1 PUSH2 0x100 EXP SWAP1 DIV PUSH20 0xFFFFFFFFFFFFFFFFFFFFFFFFFFFFFFFFFFFFFFFF AND PUSH20 0xFFFFFFFFFFFFFFFFFFFFFFFFFFFFFFFFFFFFFFFF AND PUSH4 0x23B872DD DUP3 ADDRESS DUP7 PUSH1 0x40 MLOAD DUP5 PUSH4 0xFFFFFFFF AND PUSH1 0xE0 SHL DUP2 MSTORE PUSH1 0x4 ADD PUSH2 0x714 SWAP4 SWAP3 SWAP2 SWAP1 PUSH2 0xE53 JUMP JUMPDEST PUSH1 0x20 PUSH1 0x40 MLOAD DUP1 DUP4 SUB DUP2 PUSH1 0x0 DUP8 DUP1 EXTCODESIZE ISZERO DUP1 ISZERO PUSH2 0x72E JUMPI PUSH1 0x0 DUP1 REVERT JUMPDEST POP GAS CALL ISZERO DUP1 ISZERO PUSH2 0x742 JUMPI RETURNDATASIZE PUSH1 0x0 DUP1 RETURNDATACOPY RETURNDATASIZE PUSH1 0x0 REVERT JUMPDEST POP POP POP POP PUSH1 0x40 MLOAD RETURNDATASIZE PUSH1 0x1F NOT PUSH1 0x1F DUP3 ADD AND DUP3 ADD DUP1 PUSH1 0x40 MSTORE POP DUP2 ADD SWAP1 PUSH2 0x766 SWAP2 SWAP1 PUSH2 0xCAE JUMP JUMPDEST POP DUP3 PUSH1 0x2 PUSH1 0x0 DUP4 PUSH20 0xFFFFFFFFFFFFFFFFFFFFFFFFFFFFFFFFFFFFFFFF AND PUSH20 0xFFFFFFFFFFFFFFFFFFFFFFFFFFFFFFFFFFFFFFFF AND DUP2 MSTORE PUSH1 0x20 ADD SWAP1 DUP2 MSTORE PUSH1 0x20 ADD PUSH1 0x0 KECCAK256 PUSH1 0x0 DUP5 DUP2 MSTORE PUSH1 0x20 ADD SWAP1 DUP2 MSTORE PUSH1 0x20 ADD PUSH1 0x0 KECCAK256 PUSH1 0x0 ADD PUSH1 0x0 DUP3 DUP3 SLOAD PUSH2 0x7CA SWAP2 SWAP1 PUSH2 0x1043 JUMP JUMPDEST SWAP3 POP POP DUP2 SWAP1 SSTORE POP PUSH1 0x3 PUSH1 0x0 DUP4 DUP2 MSTORE PUSH1 0x20 ADD SWAP1 DUP2 MSTORE PUSH1 0x20 ADD PUSH1 0x0 KECCAK256 PUSH1 0x1 ADD SLOAD TIMESTAMP PUSH2 0x7F3 SWAP2 SWAP1 PUSH2 0x1043 JUMP JUMPDEST PUSH1 0x2 PUSH1 0x0 DUP4 PUSH20 0xFFFFFFFFFFFFFFFFFFFFFFFFFFFFFFFFFFFFFFFF AND PUSH20 0xFFFFFFFFFFFFFFFFFFFFFFFFFFFFFFFFFFFFFFFF AND DUP2 MSTORE PUSH1 0x20 ADD SWAP1 DUP2 MSTORE PUSH1 0x20 ADD PUSH1 0x0 KECCAK256 PUSH1 0x0 DUP5 DUP2 MSTORE PUSH1 0x20 ADD SWAP1 DUP2 MSTORE PUSH1 0x20 ADD PUSH1 0x0 KECCAK256 PUSH1 0x1 ADD DUP2 SWAP1 SSTORE POP PUSH32 0x90890809C654F11D6E72A28FA60149770A0D11EC6C92319D6CEB2BB0A4EA1A15 DUP2 DUP4 DUP6 PUSH1 0x40 MLOAD PUSH2 0x87D SWAP4 SWAP3 SWAP2 SWAP1 PUSH2 0xEEA JUMP JUMPDEST PUSH1 0x40 MLOAD DUP1 SWAP2 SUB SWAP1 LOG1 POP POP POP JUMP JUMPDEST PUSH2 0x892 PUSH2 0x98A JUMP JUMPDEST PUSH20 0xFFFFFFFFFFFFFFFFFFFFFFFFFFFFFFFFFFFFFFFF AND PUSH2 0x8B0 PUSH2 0x63F JUMP JUMPDEST PUSH20 0xFFFFFFFFFFFFFFFFFFFFFFFFFFFFFFFFFFFFFFFF AND EQ PUSH2 0x906 JUMPI PUSH1 0x40 MLOAD PUSH32 0x8C379A000000000000000000000000000000000000000000000000000000000 DUP2 MSTORE PUSH1 0x4 ADD PUSH2 0x8FD SWAP1 PUSH2 0xFD7 JUMP JUMPDEST PUSH1 0x40 MLOAD DUP1 SWAP2 SUB SWAP1 REVERT JUMPDEST PUSH1 0x0 PUSH20 0xFFFFFFFFFFFFFFFFFFFFFFFFFFFFFFFFFFFFFFFF AND DUP2 PUSH20 0xFFFFFFFFFFFFFFFFFFFFFFFFFFFFFFFFFFFFFFFF AND EQ ISZERO PUSH2 0x976 JUMPI PUSH1 0x40 MLOAD PUSH32 0x8C379A000000000000000000000000000000000000000000000000000000000 DUP2 MSTORE PUSH1 0x4 ADD PUSH2 0x96D SWAP1 PUSH2 0xF77 JUMP JUMPDEST PUSH1 0x40 MLOAD DUP1 SWAP2 SUB SWAP1 REVERT JUMPDEST PUSH2 0x97F DUP2 PUSH2 0xA33 JUMP JUMPDEST POP JUMP JUMPDEST PUSH1 0x0 SWAP3 SWAP2 POP POP JUMP JUMPDEST PUSH1 0x0 CALLER SWAP1 POP SWAP1 JUMP JUMPDEST PUSH2 0x99A PUSH2 0x512 JUMP JUMPDEST PUSH2 0x9D9 JUMPI PUSH1 0x40 MLOAD PUSH32 0x8C379A000000000000000000000000000000000000000000000000000000000 DUP2 MSTORE PUSH1 0x4 ADD PUSH2 0x9D0 SWAP1 PUSH2 0xF57 JUMP JUMPDEST PUSH1 0x40 MLOAD DUP1 SWAP2 SUB SWAP1 REVERT JUMPDEST PUSH1 0x0 DUP1 PUSH1 0x14 PUSH2 0x100 EXP DUP2 SLOAD DUP2 PUSH1 0xFF MUL NOT AND SWAP1 DUP4 ISZERO ISZERO MUL OR SWAP1 SSTORE POP PUSH32 0x5DB9EE0A495BF2E6FF9C91A7834C1BA4FDD244A5E8AA4E537BD38AEAE4B073AA PUSH2 0xA1C PUSH2 0x98A JUMP JUMPDEST PUSH1 0x40 MLOAD PUSH2 0xA29 SWAP2 SWAP1 PUSH2 0xE38 JUMP JUMPDEST PUSH1 0x40 MLOAD DUP1 SWAP2 SUB SWAP1 LOG1 JUMP JUMPDEST PUSH1 0x0 DUP1 PUSH1 0x0 SWAP1 SLOAD SWAP1 PUSH2 0x100 EXP SWAP1 DIV PUSH20 0xFFFFFFFFFFFFFFFFFFFFFFFFFFFFFFFFFFFFFFFF AND SWAP1 POP DUP2 PUSH1 0x0 DUP1 PUSH2 0x100 EXP DUP2 SLOAD DUP2 PUSH20 0xFFFFFFFFFFFFFFFFFFFFFFFFFFFFFFFFFFFFFFFF MUL NOT AND SWAP1 DUP4 PUSH20 0xFFFFFFFFFFFFFFFFFFFFFFFFFFFFFFFFFFFFFFFF AND MUL OR SWAP1 SSTORE POP DUP2 PUSH20 0xFFFFFFFFFFFFFFFFFFFFFFFFFFFFFFFFFFFFFFFF AND DUP2 PUSH20 0xFFFFFFFFFFFFFFFFFFFFFFFFFFFFFFFFFFFFFFFF AND PUSH32 0x8BE0079C531659141344CD1FD0A4F28419497F9722A3DAAFE3B4186F6B6457E0 PUSH1 0x40 MLOAD PUSH1 0x40 MLOAD DUP1 SWAP2 SUB SWAP1 LOG3 POP POP JUMP JUMPDEST PUSH2 0xAFF PUSH2 0x512 JUMP JUMPDEST ISZERO PUSH2 0xB3F JUMPI PUSH1 0x40 MLOAD PUSH32 0x8C379A000000000000000000000000000000000000000000000000000000000 DUP2 MSTORE PUSH1 0x4 ADD PUSH2 0xB36 SWAP1 PUSH2 0xFB7 JUMP JUMPDEST PUSH1 0x40 MLOAD DUP1 SWAP2 SUB SWAP1 REVERT JUMPDEST PUSH1 0x1 PUSH1 0x0 PUSH1 0x14 PUSH2 0x100 EXP DUP2 SLOAD DUP2 PUSH1 0xFF MUL NOT AND SWAP1 DUP4 ISZERO ISZERO MUL OR SWAP1 SSTORE POP PUSH32 0x62E78CEA01BEE320CD4E420270B5EA74000D11B0C9F74754EBDBFC544B05A258 PUSH2 0xB83 PUSH2 0x98A JUMP JUMPDEST PUSH1 0x40 MLOAD PUSH2 0xB90 SWAP2 SWAP1 PUSH2 0xE38 JUMP JUMPDEST PUSH1 0x40 MLOAD DUP1 SWAP2 SUB SWAP1 LOG1 JUMP JUMPDEST PUSH1 0x0 DUP2 CALLDATALOAD SWAP1 POP PUSH2 0xBA9 DUP2 PUSH2 0x12BA JUMP JUMPDEST SWAP3 SWAP2 POP POP JUMP JUMPDEST PUSH1 0x0 DUP2 MLOAD SWAP1 POP PUSH2 0xBBE DUP2 PUSH2 0x12D1 JUMP JUMPDEST SWAP3 SWAP2 POP POP JUMP JUMPDEST PUSH1 0x0 DUP2 CALLDATALOAD SWAP1 POP PUSH2 0xBD3 DUP2 PUSH2 0x12E8 JUMP JUMPDEST SWAP3 SWAP2 POP POP JUMP JUMPDEST PUSH1 0x0 DUP2 CALLDATALOAD SWAP1 POP PUSH2 0xBE8 DUP2 PUSH2 0x12FF JUMP JUMPDEST SWAP3 SWAP2 POP POP JUMP JUMPDEST PUSH1 0x0 PUSH1 0x20 DUP3 DUP5 SUB SLT ISZERO PUSH2 0xC04 JUMPI PUSH2 0xC03 PUSH2 0x1199 JUMP JUMPDEST JUMPDEST PUSH1 0x0 PUSH2 0xC12 DUP5 DUP3 DUP6 ADD PUSH2 0xB9A JUMP JUMPDEST SWAP2 POP POP SWAP3 SWAP2 POP POP JUMP JUMPDEST PUSH1 0x0 DUP1 PUSH1 0x40 DUP4 DUP6 SUB SLT ISZERO PUSH2 0xC32 JUMPI PUSH2 0xC31 PUSH2 0x1199 JUMP JUMPDEST JUMPDEST PUSH1 0x0 PUSH2 0xC40 DUP6 DUP3 DUP7 ADD PUSH2 0xB9A JUMP JUMPDEST SWAP3 POP POP PUSH1 0x20 PUSH2 0xC51 DUP6 DUP3 DUP7 ADD PUSH2 0xBD9 JUMP JUMPDEST SWAP2 POP POP SWAP3 POP SWAP3 SWAP1 POP JUMP JUMPDEST PUSH1 0x0 DUP1 PUSH1 0x0 PUSH1 0x60 DUP5 DUP7 SUB SLT ISZERO PUSH2 0xC74 JUMPI PUSH2 0xC73 PUSH2 0x1199 JUMP JUMPDEST JUMPDEST PUSH1 0x0 PUSH2 0xC82 DUP7 DUP3 DUP8 ADD PUSH2 0xB9A JUMP JUMPDEST SWAP4 POP POP PUSH1 0x20 PUSH2 0xC93 DUP7 DUP3 DUP8 ADD PUSH2 0xBD9 JUMP JUMPDEST SWAP3 POP POP PUSH1 0x40 PUSH2 0xCA4 DUP7 DUP3 DUP8 ADD PUSH2 0xBC4 JUMP JUMPDEST SWAP2 POP POP SWAP3 POP SWAP3 POP SWAP3 JUMP JUMPDEST PUSH1 0x0 PUSH1 0x20 DUP3 DUP5 SUB SLT ISZERO PUSH2 0xCC4 JUMPI PUSH2 0xCC3 PUSH2 0x1199 JUMP JUMPDEST JUMPDEST PUSH1 0x0 PUSH2 0xCD2 DUP5 DUP3 DUP6 ADD PUSH2 0xBAF JUMP JUMPDEST SWAP2 POP POP SWAP3 SWAP2 POP POP JUMP JUMPDEST PUSH1 0x0 DUP1 PUSH1 0x40 DUP4 DUP6 SUB SLT ISZERO PUSH2 0xCF2 JUMPI PUSH2 0xCF1 PUSH2 0x1199 JUMP JUMPDEST JUMPDEST PUSH1 0x0 PUSH2 0xD00 DUP6 DUP3 DUP7 ADD PUSH2 0xBC4 JUMP JUMPDEST SWAP3 POP POP PUSH1 0x20 PUSH2 0xD11 DUP6 DUP3 DUP7 ADD PUSH2 0xBC4 JUMP JUMPDEST SWAP2 POP POP SWAP3 POP SWAP3 SWAP1 POP JUMP JUMPDEST PUSH2 0xD24 DUP2 PUSH2 0x10CD JUMP JUMPDEST DUP3 MSTORE POP POP JUMP JUMPDEST PUSH2 0xD33 DUP2 PUSH2 0x10DF JUMP JUMPDEST DUP3 MSTORE POP POP JUMP JUMPDEST PUSH2 0xD42 DUP2 PUSH2 0x1122 JUMP JUMPDEST DUP3 MSTORE POP POP JUMP JUMPDEST PUSH2 0xD51 DUP2 PUSH2 0x1134 JUMP JUMPDEST DUP3 MSTORE POP POP JUMP JUMPDEST PUSH1 0x0 PUSH2 0xD64 PUSH1 0x14 DUP4 PUSH2 0x1032 JUMP JUMPDEST SWAP2 POP PUSH2 0xD6F DUP3 PUSH2 0x119E JUMP JUMPDEST PUSH1 0x20 DUP3 ADD SWAP1 POP SWAP2 SWAP1 POP JUMP JUMPDEST PUSH1 0x0 PUSH2 0xD87 PUSH1 0x26 DUP4 PUSH2 0x1032 JUMP JUMPDEST SWAP2 POP PUSH2 0xD92 DUP3 PUSH2 0x11C7 JUMP JUMPDEST PUSH1 0x40 DUP3 ADD SWAP1 POP SWAP2 SWAP1 POP JUMP JUMPDEST PUSH1 0x0 PUSH2 0xDAA PUSH1 0x18 DUP4 PUSH2 0x1032 JUMP JUMPDEST SWAP2 POP PUSH2 0xDB5 DUP3 PUSH2 0x1216 JUMP JUMPDEST PUSH1 0x20 DUP3 ADD SWAP1 POP SWAP2 SWAP1 POP JUMP JUMPDEST PUSH1 0x0 PUSH2 0xDCD PUSH1 0x10 DUP4 PUSH2 0x1032 JUMP JUMPDEST SWAP2 POP PUSH2 0xDD8 DUP3 PUSH2 0x123F JUMP JUMPDEST PUSH1 0x20 DUP3 ADD SWAP1 POP SWAP2 SWAP1 POP JUMP JUMPDEST PUSH1 0x0 PUSH2 0xDF0 PUSH1 0x20 DUP4 PUSH2 0x1032 JUMP JUMPDEST SWAP2 POP PUSH2 0xDFB DUP3 PUSH2 0x1268 JUMP JUMPDEST PUSH1 0x20 DUP3 ADD SWAP1 POP SWAP2 SWAP1 POP JUMP JUMPDEST PUSH1 0x0 PUSH2 0xE13 PUSH1 0x12 DUP4 PUSH2 0x1032 JUMP JUMPDEST SWAP2 POP PUSH2 0xE1E DUP3 PUSH2 0x1291 JUMP JUMPDEST PUSH1 0x20 DUP3 ADD SWAP1 POP SWAP2 SWAP1 POP JUMP JUMPDEST PUSH2 0xE32 DUP2 PUSH2 0x110B JUMP JUMPDEST DUP3 MSTORE POP POP JUMP JUMPDEST PUSH1 0x0 PUSH1 0x20 DUP3 ADD SWAP1 POP PUSH2 0xE4D PUSH1 0x0 DUP4 ADD DUP5 PUSH2 0xD1B JUMP JUMPDEST SWAP3 SWAP2 POP POP JUMP JUMPDEST PUSH1 0x0 PUSH1 0x60 DUP3 ADD SWAP1 POP PUSH2 0xE68 PUSH1 0x0 DUP4 ADD DUP7 PUSH2 0xD1B JUMP JUMPDEST PUSH2 0xE75 PUSH1 0x20 DUP4 ADD DUP6 PUSH2 0xD1B JUMP JUMPDEST PUSH2 0xE82 PUSH1 0x40 DUP4 ADD DUP5 PUSH2 0xE29 JUMP JUMPDEST SWAP5 SWAP4 POP POP POP POP JUMP JUMPDEST PUSH1 0x0 PUSH1 0x60 DUP3 ADD SWAP1 POP PUSH2 0xE9F PUSH1 0x0 DUP4 ADD DUP7 PUSH2 0xD1B JUMP JUMPDEST PUSH2 0xEAC PUSH1 0x20 DUP4 ADD DUP6 PUSH2 0xD48 JUMP JUMPDEST PUSH2 0xEB9 PUSH1 0x40 DUP4 ADD DUP5 PUSH2 0xE29 JUMP JUMPDEST SWAP5 SWAP4 POP POP POP POP JUMP JUMPDEST PUSH1 0x0 PUSH1 0x40 DUP3 ADD SWAP1 POP PUSH2 0xED6 PUSH1 0x0 DUP4 ADD DUP6 PUSH2 0xD1B JUMP JUMPDEST PUSH2 0xEE3 PUSH1 0x20 DUP4 ADD DUP5 PUSH2 0xE29 JUMP JUMPDEST SWAP4 SWAP3 POP POP POP JUMP JUMPDEST PUSH1 0x0 PUSH1 0x60 DUP3 ADD SWAP1 POP PUSH2 0xEFF PUSH1 0x0 DUP4 ADD DUP7 PUSH2 0xD1B JUMP JUMPDEST PUSH2 0xF0C PUSH1 0x20 DUP4 ADD DUP6 PUSH2 0xE29 JUMP JUMPDEST PUSH2 0xF19 PUSH1 0x40 DUP4 ADD DUP5 PUSH2 0xE29 JUMP JUMPDEST SWAP5 SWAP4 POP POP POP POP JUMP JUMPDEST PUSH1 0x0 PUSH1 0x20 DUP3 ADD SWAP1 POP PUSH2 0xF36 PUSH1 0x0 DUP4 ADD DUP5 PUSH2 0xD2A JUMP JUMPDEST SWAP3 SWAP2 POP POP JUMP JUMPDEST PUSH1 0x0 PUSH1 0x20 DUP3 ADD SWAP1 POP PUSH2 0xF51 PUSH1 0x0 DUP4 ADD DUP5 PUSH2 0xD39 JUMP JUMPDEST SWAP3 SWAP2 POP POP JUMP JUMPDEST PUSH1 0x0 PUSH1 0x20 DUP3 ADD SWAP1 POP DUP2 DUP2 SUB PUSH1 0x0 DUP4 ADD MSTORE PUSH2 0xF70 DUP2 PUSH2 0xD57 JUMP JUMPDEST SWAP1 POP SWAP2 SWAP1 POP JUMP JUMPDEST PUSH1 0x0 PUSH1 0x20 DUP3 ADD SWAP1 POP DUP2 DUP2 SUB PUSH1 0x0 DUP4 ADD MSTORE PUSH2 0xF90 DUP2 PUSH2 0xD7A JUMP JUMPDEST SWAP1 POP SWAP2 SWAP1 POP JUMP JUMPDEST PUSH1 0x0 PUSH1 0x20 DUP3 ADD SWAP1 POP DUP2 DUP2 SUB PUSH1 0x0 DUP4 ADD MSTORE PUSH2 0xFB0 DUP2 PUSH2 0xD9D JUMP JUMPDEST SWAP1 POP SWAP2 SWAP1 POP JUMP JUMPDEST PUSH1 0x0 PUSH1 0x20 DUP3 ADD SWAP1 POP DUP2 DUP2 SUB PUSH1 0x0 DUP4 ADD MSTORE PUSH2 0xFD0 DUP2 PUSH2 0xDC0 JUMP JUMPDEST SWAP1 POP SWAP2 SWAP1 POP JUMP JUMPDEST PUSH1 0x0 PUSH1 0x20 DUP3 ADD SWAP1 POP DUP2 DUP2 SUB PUSH1 0x0 DUP4 ADD MSTORE PUSH2 0xFF0 DUP2 PUSH2 0xDE3 JUMP JUMPDEST SWAP1 POP SWAP2 SWAP1 POP JUMP JUMPDEST PUSH1 0x0 PUSH1 0x20 DUP3 ADD SWAP1 POP DUP2 DUP2 SUB PUSH1 0x0 DUP4 ADD MSTORE PUSH2 0x1010 DUP2 PUSH2 0xE06 JUMP JUMPDEST SWAP1 POP SWAP2 SWAP1 POP JUMP JUMPDEST PUSH1 0x0 PUSH1 0x20 DUP3 ADD SWAP1 POP PUSH2 0x102C PUSH1 0x0 DUP4 ADD DUP5 PUSH2 0xE29 JUMP JUMPDEST SWAP3 SWAP2 POP POP JUMP JUMPDEST PUSH1 0x0 DUP3 DUP3 MSTORE PUSH1 0x20 DUP3 ADD SWAP1 POP SWAP3 SWAP2 POP POP JUMP JUMPDEST PUSH1 0x0 PUSH2 0x104E DUP3 PUSH2 0x110B JUMP JUMPDEST SWAP2 POP PUSH2 0x1059 DUP4 PUSH2 0x110B JUMP JUMPDEST SWAP3 POP DUP3 PUSH32 0xFFFFFFFFFFFFFFFFFFFFFFFFFFFFFFFFFFFFFFFFFFFFFFFFFFFFFFFFFFFFFFFF SUB DUP3 GT ISZERO PUSH2 0x108E JUMPI PUSH2 0x108D PUSH2 0x116A JUMP JUMPDEST JUMPDEST DUP3 DUP3 ADD SWAP1 POP SWAP3 SWAP2 POP POP JUMP JUMPDEST PUSH1 0x0 PUSH2 0x10A4 DUP3 PUSH2 0x110B JUMP JUMPDEST SWAP2 POP PUSH2 0x10AF DUP4 PUSH2 0x110B JUMP JUMPDEST SWAP3 POP DUP3 DUP3 LT ISZERO PUSH2 0x10C2 JUMPI PUSH2 0x10C1 PUSH2 0x116A JUMP JUMPDEST JUMPDEST DUP3 DUP3 SUB SWAP1 POP SWAP3 SWAP2 POP POP JUMP JUMPDEST PUSH1 0x0 PUSH2 0x10D8 DUP3 PUSH2 0x10EB JUMP JUMPDEST SWAP1 POP SWAP2 SWAP1 POP JUMP JUMPDEST PUSH1 0x0 DUP2 ISZERO ISZERO SWAP1 POP SWAP2 SWAP1 POP JUMP JUMPDEST PUSH1 0x0 PUSH20 0xFFFFFFFFFFFFFFFFFFFFFFFFFFFFFFFFFFFFFFFF DUP3 AND SWAP1 POP SWAP2 SWAP1 POP JUMP JUMPDEST PUSH1 0x0 DUP2 SWAP1 POP SWAP2 SWAP1 POP JUMP JUMPDEST PUSH1 0x0 PUSH1 0xFF DUP3 AND SWAP1 POP SWAP2 SWAP1 POP JUMP JUMPDEST PUSH1 0x0 PUSH2 0x112D DUP3 PUSH2 0x1146 JUMP JUMPDEST SWAP1 POP SWAP2 SWAP1 POP JUMP JUMPDEST PUSH1 0x0 PUSH2 0x113F DUP3 PUSH2 0x110B JUMP JUMPDEST SWAP1 POP SWAP2 SWAP1 POP JUMP JUMPDEST PUSH1 0x0 PUSH2 0x1151 DUP3 PUSH2 0x1158 JUMP JUMPDEST SWAP1 POP SWAP2 SWAP1 POP JUMP JUMPDEST PUSH1 0x0 PUSH2 0x1163 DUP3 PUSH2 0x10EB JUMP JUMPDEST SWAP1 POP SWAP2 SWAP1 POP JUMP JUMPDEST PUSH32 0x4E487B7100000000000000000000000000000000000000000000000000000000 PUSH1 0x0 MSTORE PUSH1 0x11 PUSH1 0x4 MSTORE PUSH1 0x24 PUSH1 0x0 REVERT JUMPDEST PUSH1 0x0 DUP1 REVERT JUMPDEST PUSH32 0x5061757361626C653A206E6F7420706175736564000000000000000000000000 PUSH1 0x0 DUP3 ADD MSTORE POP JUMP JUMPDEST PUSH32 0x4F776E61626C653A206E6577206F776E657220697320746865207A65726F2061 PUSH1 0x0 DUP3 ADD MSTORE PUSH32 0x6464726573730000000000000000000000000000000000000000000000000000 PUSH1 0x20 DUP3 ADD MSTORE POP JUMP JUMPDEST PUSH32 0x4465706F736974206E6F7420756E6C6F636B6564207965740000000000000000 PUSH1 0x0 DUP3 ADD MSTORE POP JUMP JUMPDEST PUSH32 0x5061757361626C653A2070617573656400000000000000000000000000000000 PUSH1 0x0 DUP3 ADD MSTORE POP JUMP JUMPDEST PUSH32 0x4F776E61626C653A2063616C6C6572206973206E6F7420746865206F776E6572 PUSH1 0x0 DUP3 ADD MSTORE POP JUMP JUMPDEST PUSH32 0x4E6F7420656E6F756768206465706F7369740000000000000000000000000000 PUSH1 0x0 DUP3 ADD MSTORE POP JUMP JUMPDEST PUSH2 0x12C3 DUP2 PUSH2 0x10CD JUMP JUMPDEST DUP2 EQ PUSH2 0x12CE JUMPI PUSH1 0x0 DUP1 REVERT JUMPDEST POP JUMP JUMPDEST PUSH2 0x12DA DUP2 PUSH2 0x10DF JUMP JUMPDEST DUP2 EQ PUSH2 0x12E5 JUMPI PUSH1 0x0 DUP1 REVERT JUMPDEST POP JUMP JUMPDEST PUSH2 0x12F1 DUP2 PUSH2 0x110B JUMP JUMPDEST DUP2 EQ PUSH2 0x12FC JUMPI PUSH1 0x0 DUP1 REVERT JUMPDEST POP JUMP JUMPDEST PUSH2 0x1308 DUP2 PUSH2 0x1115 JUMP JUMPDEST DUP2 EQ PUSH2 0x1313 JUMPI PUSH1 0x0 DUP1 REVERT JUMPDEST POP JUMP INVALID LOG2 PUSH5 0x6970667358 0x22 SLT KECCAK256 0xC3 PUSH31 0x3D31A372397F0FD18C3955CD42CDDA7A4672F36871554C66DBCBB92BD5C164 PUSH20 0x6F6C634300080700330000000000000000000000 "
				},
				"gasEstimates": {
					"creation": {
						"codeDepositCost": "988000",
						"executionCost": "infinite",
						"totalCost": "infinite"
					},
					"external": {
						"acceptedToken()": "2645",
						"deposit(uint256,uint256)": "infinite",
						"getInterest(address,uint8,uint256)": "infinite",
						"isOnTime(address,uint8)": "938",
						"owner()": "2566",
						"pause()": "infinite",
						"paused()": "2596",
						"renounceOwnership()": "30374",
						"transferOwnership(address)": "30811",
						"unpause()": "infinite",
						"withdraw(uint256,uint256)": "infinite"
					},
					"internal": {
						"calculateInterest(uint256,uint256,uint256)": "infinite"
					}
				},
				"methodIdentifiers": {
					"acceptedToken()": "451c3d80",
					"deposit(uint256,uint256)": "e2bbb158",
					"getInterest(address,uint8,uint256)": "69e06848",
					"isOnTime(address,uint8)": "f7edf9ab",
					"owner()": "8da5cb5b",
					"pause()": "8456cb59",
					"paused()": "5c975abb",
					"renounceOwnership()": "715018a6",
					"transferOwnership(address)": "f2fde38b",
					"unpause()": "3f4ba83a",
					"withdraw(uint256,uint256)": "441a3e70"
				}
			},
			"storageLayout": {
				"storage": [
					{
						"astId": 7,
						"contract": "staking.sol:AcesStaking",
						"label": "_owner",
						"offset": 0,
						"slot": "0",
						"type": "t_address"
					},
					{
						"astId": 122,
						"contract": "staking.sol:AcesStaking",
						"label": "_paused",
						"offset": 20,
						"slot": "0",
						"type": "t_bool"
					},
					{
						"astId": 308,
						"contract": "staking.sol:AcesStaking",
						"label": "acceptedToken",
						"offset": 0,
						"slot": "1",
						"type": "t_contract(IERC20)274"
					},
					{
						"astId": 325,
						"contract": "staking.sol:AcesStaking",
						"label": "userLevelDeposit",
						"offset": 0,
						"slot": "2",
						"type": "t_mapping(t_address,t_mapping(t_uint256,t_struct(User)313_storage))"
					},
					{
						"astId": 330,
						"contract": "staking.sol:AcesStaking",
						"label": "levelInfo",
						"offset": 0,
						"slot": "3",
						"type": "t_mapping(t_uint256,t_struct(Level)318_storage)"
					}
				],
				"types": {
					"t_address": {
						"encoding": "inplace",
						"label": "address",
						"numberOfBytes": "20"
					},
					"t_bool": {
						"encoding": "inplace",
						"label": "bool",
						"numberOfBytes": "1"
					},
					"t_contract(IERC20)274": {
						"encoding": "inplace",
						"label": "contract IERC20",
						"numberOfBytes": "20"
					},
					"t_mapping(t_address,t_mapping(t_uint256,t_struct(User)313_storage))": {
						"encoding": "mapping",
						"key": "t_address",
						"label": "mapping(address => mapping(uint256 => struct AcesStaking.User))",
						"numberOfBytes": "32",
						"value": "t_mapping(t_uint256,t_struct(User)313_storage)"
					},
					"t_mapping(t_uint256,t_struct(Level)318_storage)": {
						"encoding": "mapping",
						"key": "t_uint256",
						"label": "mapping(uint256 => struct AcesStaking.Level)",
						"numberOfBytes": "32",
						"value": "t_struct(Level)318_storage"
					},
					"t_mapping(t_uint256,t_struct(User)313_storage)": {
						"encoding": "mapping",
						"key": "t_uint256",
						"label": "mapping(uint256 => struct AcesStaking.User)",
						"numberOfBytes": "32",
						"value": "t_struct(User)313_storage"
					},
					"t_struct(Level)318_storage": {
						"encoding": "inplace",
						"label": "struct AcesStaking.Level",
						"members": [
							{
								"astId": 315,
								"contract": "staking.sol:AcesStaking",
								"label": "APY",
								"offset": 0,
								"slot": "0",
								"type": "t_uint256"
							},
							{
								"astId": 317,
								"contract": "staking.sol:AcesStaking",
								"label": "lockPeriod",
								"offset": 0,
								"slot": "1",
								"type": "t_uint256"
							}
						],
						"numberOfBytes": "64"
					},
					"t_struct(User)313_storage": {
						"encoding": "inplace",
						"label": "struct AcesStaking.User",
						"members": [
							{
								"astId": 310,
								"contract": "staking.sol:AcesStaking",
								"label": "balance",
								"offset": 0,
								"slot": "0",
								"type": "t_uint256"
							},
							{
								"astId": 312,
								"contract": "staking.sol:AcesStaking",
								"label": "unlockTime",
								"offset": 0,
								"slot": "1",
								"type": "t_uint256"
							}
						],
						"numberOfBytes": "64"
					},
					"t_uint256": {
						"encoding": "inplace",
						"label": "uint256",
						"numberOfBytes": "32"
					}
				}
			},
			"userdoc": {
				"kind": "user",
				"methods": {},
				"version": 1
			}
		}
	}
}