{
	"lotto.sol": {
		"ACELotto": {
			"abi": [
				{
					"inputs": [
						{
							"internalType": "address",
							"name": "_aces",
							"type": "address"
						}
					],
					"stateMutability": "nonpayable",
					"type": "constructor"
				},
				{
					"anonymous": false,
					"inputs": [
						{
							"indexed": false,
							"internalType": "address",
							"name": "winner",
							"type": "address"
						},
						{
							"indexed": false,
							"internalType": "uint256",
							"name": "amount",
							"type": "uint256"
						}
					],
					"name": "LotteryWon",
					"type": "event"
				},
				{
					"anonymous": false,
					"inputs": [
						{
							"indexed": true,
							"internalType": "address",
							"name": "previousOwner",
							"type": "address"
						},
						{
							"indexed": true,
							"internalType": "address",
							"name": "newOwner",
							"type": "address"
						}
					],
					"name": "OwnershipTransferred",
					"type": "event"
				},
				{
					"inputs": [],
					"name": "acesToken",
					"outputs": [
						{
							"internalType": "contract IERC20",
							"name": "",
							"type": "address"
						}
					],
					"stateMutability": "view",
					"type": "function"
				},
				{
					"inputs": [],
					"name": "currentJackpot",
					"outputs": [
						{
							"internalType": "uint256",
							"name": "",
							"type": "uint256"
						}
					],
					"stateMutability": "view",
					"type": "function"
				},
				{
					"inputs": [
						{
							"internalType": "address",
							"name": "",
							"type": "address"
						},
						{
							"internalType": "uint256",
							"name": "",
							"type": "uint256"
						}
					],
					"name": "entriesIndex",
					"outputs": [
						{
							"internalType": "uint256",
							"name": "",
							"type": "uint256"
						}
					],
					"stateMutability": "view",
					"type": "function"
				},
				{
					"inputs": [],
					"name": "getUniqueAddresses",
					"outputs": [
						{
							"internalType": "address[]",
							"name": "addresses",
							"type": "address[]"
						},
						{
							"internalType": "uint256[]",
							"name": "entries",
							"type": "uint256[]"
						}
					],
					"stateMutability": "view",
					"type": "function"
				},
				{
					"inputs": [],
					"name": "getUniqueUsers",
					"outputs": [
						{
							"internalType": "uint256",
							"name": "counter",
							"type": "uint256"
						}
					],
					"stateMutability": "view",
					"type": "function"
				},
				{
					"inputs": [
						{
							"internalType": "address",
							"name": "account",
							"type": "address"
						}
					],
					"name": "isActiveAccount",
					"outputs": [
						{
							"internalType": "bool",
							"name": "",
							"type": "bool"
						}
					],
					"stateMutability": "view",
					"type": "function"
				},
				{
					"inputs": [],
					"name": "owner",
					"outputs": [
						{
							"internalType": "address",
							"name": "",
							"type": "address"
						}
					],
					"stateMutability": "view",
					"type": "function"
				},
				{
					"inputs": [],
					"name": "pickWinner",
					"outputs": [],
					"stateMutability": "nonpayable",
					"type": "function"
				},
				{
					"inputs": [
						{
							"internalType": "address",
							"name": "account",
							"type": "address"
						}
					],
					"name": "removeAccount",
					"outputs": [],
					"stateMutability": "nonpayable",
					"type": "function"
				},
				{
					"inputs": [
						{
							"internalType": "address",
							"name": "account",
							"type": "address"
						},
						{
							"internalType": "uint256",
							"name": "amount",
							"type": "uint256"
						}
					],
					"name": "removeEntryFromWallet",
					"outputs": [],
					"stateMutability": "nonpayable",
					"type": "function"
				},
				{
					"inputs": [],
					"name": "renounceOwnership",
					"outputs": [],
					"stateMutability": "nonpayable",
					"type": "function"
				},
				{
					"inputs": [
						{
							"internalType": "uint256",
							"name": "startIndex",
							"type": "uint256"
						},
						{
							"internalType": "uint256",
							"name": "endIndex",
							"type": "uint256"
						}
					],
					"name": "resultLog",
					"outputs": [
						{
							"components": [
								{
									"internalType": "uint256",
									"name": "totalEntries",
									"type": "uint256"
								},
								{
									"internalType": "uint256",
									"name": "winningNumber",
									"type": "uint256"
								},
								{
									"internalType": "uint256",
									"name": "payout",
									"type": "uint256"
								},
								{
									"internalType": "uint256",
									"name": "endTime",
									"type": "uint256"
								},
								{
									"internalType": "address",
									"name": "winningAddress",
									"type": "address"
								}
							],
							"internalType": "struct ACELotto.Results[]",
							"name": "log",
							"type": "tuple[]"
						}
					],
					"stateMutability": "view",
					"type": "function"
				},
				{
					"inputs": [],
					"name": "roundEntries",
					"outputs": [
						{
							"internalType": "uint256",
							"name": "",
							"type": "uint256"
						}
					],
					"stateMutability": "view",
					"type": "function"
				},
				{
					"inputs": [
						{
							"internalType": "uint256",
							"name": "",
							"type": "uint256"
						}
					],
					"name": "roundEntry",
					"outputs": [
						{
							"internalType": "address",
							"name": "",
							"type": "address"
						}
					],
					"stateMutability": "view",
					"type": "function"
				},
				{
					"inputs": [],
					"name": "roundNum",
					"outputs": [
						{
							"internalType": "uint256",
							"name": "",
							"type": "uint256"
						}
					],
					"stateMutability": "view",
					"type": "function"
				},
				{
					"inputs": [
						{
							"internalType": "uint256",
							"name": "",
							"type": "uint256"
						}
					],
					"name": "roundResults",
					"outputs": [
						{
							"internalType": "uint256",
							"name": "totalEntries",
							"type": "uint256"
						},
						{
							"internalType": "uint256",
							"name": "winningNumber",
							"type": "uint256"
						},
						{
							"internalType": "uint256",
							"name": "payout",
							"type": "uint256"
						},
						{
							"internalType": "uint256",
							"name": "endTime",
							"type": "uint256"
						},
						{
							"internalType": "address",
							"name": "winningAddress",
							"type": "address"
						}
					],
					"stateMutability": "view",
					"type": "function"
				},
				{
					"inputs": [],
					"name": "totalPayout",
					"outputs": [
						{
							"internalType": "uint256",
							"name": "",
							"type": "uint256"
						}
					],
					"stateMutability": "view",
					"type": "function"
				},
				{
					"inputs": [
						{
							"internalType": "address",
							"name": "newOwner",
							"type": "address"
						}
					],
					"name": "transferOwnership",
					"outputs": [],
					"stateMutability": "nonpayable",
					"type": "function"
				},
				{
					"inputs": [
						{
							"internalType": "address",
							"name": "account",
							"type": "address"
						},
						{
							"internalType": "uint256",
							"name": "amount",
							"type": "uint256"
						}
					],
					"name": "updateAccount",
					"outputs": [],
					"stateMutability": "nonpayable",
					"type": "function"
				},
				{
					"inputs": [
						{
							"internalType": "address",
							"name": "account",
							"type": "address"
						}
					],
					"name": "userEntries",
					"outputs": [
						{
							"internalType": "uint256",
							"name": "",
							"type": "uint256"
						}
					],
					"stateMutability": "view",
					"type": "function"
				}
			],
			"devdoc": {
				"kind": "dev",
				"methods": {
					"owner()": {
						"details": "Returns the address of the current owner."
					},
					"renounceOwnership()": {
						"details": "Leaves the contract without owner. It will not be possible to call `onlyOwner` functions anymore. Can only be called by the current owner. NOTE: Renouncing ownership will leave the contract without an owner, thereby removing any functionality that is only available to the owner."
					},
					"transferOwnership(address)": {
						"details": "Transfers ownership of the contract to a new account (`newOwner`). Can only be called by the current owner."
					}
				},
				"version": 1
			},
			"evm": {
				"assembly": "    /* \"lotto.sol\":595:5198  contract ACELotto is Ownable {   \r... */\n  mstore(0x40, 0x80)\n    /* \"lotto.sol\":1172:1242  constructor(address _aces){\r... */\n  callvalue\n  dup1\n  iszero\n  tag_1\n  jumpi\n  0x00\n  dup1\n  revert\ntag_1:\n  pop\n  mload(0x40)\n  sub(codesize, bytecodeSize)\n  dup1\n  bytecodeSize\n  dup4\n  codecopy\n  dup2\n  add\n  0x40\n  dup2\n  swap1\n  mstore\n  tag_2\n  swap2\n  tag_3\n  jump\t// in\ntag_2:\n    /* \"https://github.com/OpenZeppelin/openzeppelin-contracts/blob/master/contracts/access/Ownable.sol\":921:953  _transferOwnership(_msgSender()) */\n  tag_7\n    /* \"https://github.com/OpenZeppelin/openzeppelin-contracts/blob/master/contracts/utils/Context.sol\":719:729  msg.sender */\n  caller\n    /* \"https://github.com/OpenZeppelin/openzeppelin-contracts/blob/master/contracts/access/Ownable.sol\":921:939  _transferOwnership */\n  tag_10\n    /* \"https://github.com/OpenZeppelin/openzeppelin-contracts/blob/master/contracts/access/Ownable.sol\":921:953  _transferOwnership(_msgSender()) */\n  jump\t// in\ntag_7:\n    /* \"lotto.sol\":1209:1218  acesToken */\n  0x04\n    /* \"lotto.sol\":1209:1234  acesToken = IERC20(_aces) */\n  dup1\n  sload\n  not(sub(shl(0xa0, 0x01), 0x01))\n  and\n  sub(shl(0xa0, 0x01), 0x01)\n  swap3\n  swap1\n  swap3\n  and\n  swap2\n  swap1\n  swap2\n  or\n  swap1\n  sstore\n    /* \"lotto.sol\":595:5198  contract ACELotto is Ownable {   \r... */\n  jump(tag_15)\n    /* \"https://github.com/OpenZeppelin/openzeppelin-contracts/blob/master/contracts/access/Ownable.sol\":2270:2457  function _transferOwnership(address newOwner) internal virtual {... */\ntag_10:\n    /* \"https://github.com/OpenZeppelin/openzeppelin-contracts/blob/master/contracts/access/Ownable.sol\":2343:2359  address oldOwner */\n  0x00\n    /* \"https://github.com/OpenZeppelin/openzeppelin-contracts/blob/master/contracts/access/Ownable.sol\":2362:2368  _owner */\n  dup1\n  sload\n  sub(shl(0xa0, 0x01), 0x01)\n    /* \"https://github.com/OpenZeppelin/openzeppelin-contracts/blob/master/contracts/access/Ownable.sol\":2378:2395  _owner = newOwner */\n  dup4\n  dup2\n  and\n  not(sub(shl(0xa0, 0x01), 0x01))\n  dup4\n  and\n  dup2\n  or\n  dup5\n  sstore\n    /* \"https://github.com/OpenZeppelin/openzeppelin-contracts/blob/master/contracts/access/Ownable.sol\":2410:2450  OwnershipTransferred(oldOwner, newOwner) */\n  mload(0x40)\n    /* \"https://github.com/OpenZeppelin/openzeppelin-contracts/blob/master/contracts/access/Ownable.sol\":2362:2368  _owner */\n  swap2\n  swap1\n  swap3\n  and\n  swap3\n  dup4\n  swap2\n    /* \"https://github.com/OpenZeppelin/openzeppelin-contracts/blob/master/contracts/access/Ownable.sol\":2410:2450  OwnershipTransferred(oldOwner, newOwner) */\n  0x8be0079c531659141344cd1fd0a4f28419497f9722a3daafe3b4186f6b6457e0\n  swap2\n    /* \"https://github.com/OpenZeppelin/openzeppelin-contracts/blob/master/contracts/access/Ownable.sol\":2343:2359  address oldOwner */\n  swap1\n    /* \"https://github.com/OpenZeppelin/openzeppelin-contracts/blob/master/contracts/access/Ownable.sol\":2410:2450  OwnershipTransferred(oldOwner, newOwner) */\n  log3\n    /* \"https://github.com/OpenZeppelin/openzeppelin-contracts/blob/master/contracts/access/Ownable.sol\":2333:2457  {... */\n  pop\n    /* \"https://github.com/OpenZeppelin/openzeppelin-contracts/blob/master/contracts/access/Ownable.sol\":2270:2457  function _transferOwnership(address newOwner) internal virtual {... */\n  pop\n  jump\t// out\n    /* \"#utility.yul\":14:304   */\ntag_3:\n    /* \"#utility.yul\":84:90   */\n  0x00\n    /* \"#utility.yul\":137:139   */\n  0x20\n    /* \"#utility.yul\":125:134   */\n  dup3\n    /* \"#utility.yul\":116:123   */\n  dup5\n    /* \"#utility.yul\":112:135   */\n  sub\n    /* \"#utility.yul\":108:140   */\n  slt\n    /* \"#utility.yul\":105:157   */\n  iszero\n  tag_17\n  jumpi\n    /* \"#utility.yul\":153:154   */\n  0x00\n    /* \"#utility.yul\":150:151   */\n  dup1\n    /* \"#utility.yul\":143:155   */\n  revert\n    /* \"#utility.yul\":105:157   */\ntag_17:\n    /* \"#utility.yul\":179:195   */\n  dup2\n  mload\n  sub(shl(0xa0, 0x01), 0x01)\n    /* \"#utility.yul\":224:255   */\n  dup2\n  and\n    /* \"#utility.yul\":214:256   */\n  dup2\n  eq\n    /* \"#utility.yul\":204:274   */\n  tag_18\n  jumpi\n    /* \"#utility.yul\":270:271   */\n  0x00\n    /* \"#utility.yul\":267:268   */\n  dup1\n    /* \"#utility.yul\":260:272   */\n  revert\n    /* \"#utility.yul\":204:274   */\ntag_18:\n    /* \"#utility.yul\":293:298   */\n  swap4\n    /* \"#utility.yul\":14:304   */\n  swap3\n  pop\n  pop\n  pop\n  jump\t// out\ntag_15:\n    /* \"lotto.sol\":595:5198  contract ACELotto is Ownable {   \r... */\n  dataSize(sub_0)\n  dup1\n  dataOffset(sub_0)\n  0x00\n  codecopy\n  0x00\n  return\nstop\n\nsub_0: assembly {\n        /* \"lotto.sol\":595:5198  contract ACELotto is Ownable {   \r... */\n      mstore(0x40, 0x80)\n      callvalue\n      dup1\n      iszero\n      tag_1\n      jumpi\n      0x00\n      dup1\n      revert\n    tag_1:\n      pop\n      jumpi(tag_2, lt(calldatasize, 0x04))\n      shr(0xe0, calldataload(0x00))\n      dup1\n      0x8da5cb5b\n      gt\n      tag_23\n      jumpi\n      dup1\n      0xb657dd65\n      gt\n      tag_24\n      jumpi\n      dup1\n      0xb657dd65\n      eq\n      tag_18\n      jumpi\n      dup1\n      0xbc15cdf0\n      eq\n      tag_19\n      jumpi\n      dup1\n      0xc4740a95\n      eq\n      tag_20\n      jumpi\n      dup1\n      0xf2fde38b\n      eq\n      tag_21\n      jumpi\n      dup1\n      0xf9cee0bd\n      eq\n      tag_22\n      jumpi\n      0x00\n      dup1\n      revert\n    tag_24:\n      dup1\n      0x8da5cb5b\n      eq\n      tag_13\n      jumpi\n      dup1\n      0x9b3e4552\n      eq\n      tag_14\n      jumpi\n      dup1\n      0x9f10a990\n      eq\n      tag_15\n      jumpi\n      dup1\n      0xa59460dc\n      eq\n      tag_16\n      jumpi\n      dup1\n      0xac128f4f\n      eq\n      tag_17\n      jumpi\n      0x00\n      dup1\n      revert\n    tag_23:\n      dup1\n      0x454f7b8f\n      gt\n      tag_25\n      jumpi\n      dup1\n      0x454f7b8f\n      eq\n      tag_8\n      jumpi\n      dup1\n      0x5bedc390\n      eq\n      tag_9\n      jumpi\n      dup1\n      0x5d495aea\n      eq\n      tag_10\n      jumpi\n      dup1\n      0x715018a6\n      eq\n      tag_11\n      jumpi\n      dup1\n      0x76636d20\n      eq\n      tag_12\n      jumpi\n      0x00\n      dup1\n      revert\n    tag_25:\n      dup1\n      0x0d988270\n      eq\n      tag_3\n      jumpi\n      dup1\n      0x119b22b3\n      eq\n      tag_4\n      jumpi\n      dup1\n      0x158977de\n      eq\n      tag_5\n      jumpi\n      dup1\n      0x3b98bc65\n      eq\n      tag_6\n      jumpi\n      dup1\n      0x443b80a1\n      eq\n      tag_7\n      jumpi\n    tag_2:\n      0x00\n      dup1\n      revert\n        /* \"lotto.sol\":1057:1106  mapping(address => uint256[]) public entriesIndex */\n    tag_3:\n      tag_26\n      tag_27\n      calldatasize\n      0x04\n      tag_28\n      jump\t// in\n    tag_27:\n      tag_29\n      jump\t// in\n    tag_26:\n      mload(0x40)\n        /* \"#utility.yul\":6364:6389   */\n      swap1\n      dup2\n      mstore\n        /* \"#utility.yul\":6352:6354   */\n      0x20\n        /* \"#utility.yul\":6337:6355   */\n      add\n        /* \"lotto.sol\":1057:1106  mapping(address => uint256[]) public entriesIndex */\n    tag_30:\n      mload(0x40)\n      dup1\n      swap2\n      sub\n      swap1\n      return\n        /* \"lotto.sol\":668:691  uint256 public roundNum */\n    tag_4:\n      tag_26\n      sload(0x02)\n      dup2\n      jump\n        /* \"lotto.sol\":3923:4203  function getUniqueUsers() public view returns (uint256 counter) {\r... */\n    tag_5:\n      tag_26\n      tag_36\n      jump\t// in\n        /* \"lotto.sol\":4211:4814  function getUniqueAddresses() public view returns (address [] memory addresses, uint256 [] memory entries) {\r... */\n    tag_6:\n      tag_38\n      tag_39\n      jump\t// in\n    tag_38:\n      mload(0x40)\n      tag_30\n      swap3\n      swap2\n      swap1\n      tag_41\n      jump\t// in\n        /* \"lotto.sol\":1250:1522  function updateAccount(address account, uint256 amount) external{\r... */\n    tag_7:\n      tag_42\n      tag_43\n      calldatasize\n      0x04\n      tag_28\n      jump\t// in\n    tag_43:\n      tag_44\n      jump\t// in\n    tag_42:\n      stop\n        /* \"lotto.sol\":698:724  uint256 public totalPayout */\n    tag_8:\n      tag_26\n      sload(0x03)\n      dup2\n      jump\n        /* \"lotto.sol\":2293:2462  function isActiveAccount(address account) external view returns(bool){\r... */\n    tag_9:\n      tag_48\n      tag_49\n      calldatasize\n      0x04\n      tag_50\n      jump\t// in\n    tag_49:\n      sub(shl(0xa0, 0x01), 0x01)\n        /* \"lotto.sol\":3374:3395  entriesIndex[account] */\n      and\n        /* \"lotto.sol\":2357:2361  bool */\n      0x00\n        /* \"lotto.sol\":3374:3395  entriesIndex[account] */\n      swap1\n      dup2\n      mstore\n        /* \"lotto.sol\":3374:3386  entriesIndex */\n      0x07\n        /* \"lotto.sol\":3374:3395  entriesIndex[account] */\n      0x20\n      mstore\n      0x40\n      swap1\n      keccak256\n        /* \"lotto.sol\":3374:3402  entriesIndex[account].length */\n      sload\n        /* \"lotto.sol\":2436:2454  currentEntries > 0 */\n      iszero\n      iszero\n      swap1\n        /* \"lotto.sol\":2293:2462  function isActiveAccount(address account) external view returns(bool){\r... */\n      jump\n    tag_48:\n      mload(0x40)\n        /* \"#utility.yul\":4848:4862   */\n      swap1\n      iszero\n        /* \"#utility.yul\":4841:4863   */\n      iszero\n        /* \"#utility.yul\":4823:4864   */\n      dup2\n      mstore\n        /* \"#utility.yul\":4811:4813   */\n      0x20\n        /* \"#utility.yul\":4796:4814   */\n      add\n        /* \"lotto.sol\":2293:2462  function isActiveAccount(address account) external view returns(bool){\r... */\n      tag_30\n        /* \"#utility.yul\":4683:4870   */\n      jump\n        /* \"lotto.sol\":2470:3156  function pickWinner() external onlyOwner {\r... */\n    tag_10:\n      tag_42\n      tag_55\n      jump\t// in\n        /* \"https://github.com/OpenZeppelin/openzeppelin-contracts/blob/master/contracts/access/Ownable.sol\":1668:1769  function renounceOwnership() public virtual onlyOwner {... */\n    tag_11:\n      tag_42\n      tag_57\n      jump\t// in\n        /* \"lotto.sol\":634:661  uint256 public roundEntries */\n    tag_12:\n      tag_26\n      sload(0x01)\n      dup2\n      jump\n        /* \"https://github.com/OpenZeppelin/openzeppelin-contracts/blob/master/contracts/access/Ownable.sol\":1036:1121  function owner() public view virtual returns (address) {... */\n    tag_13:\n        /* \"https://github.com/OpenZeppelin/openzeppelin-contracts/blob/master/contracts/access/Ownable.sol\":1082:1089  address */\n      0x00\n        /* \"https://github.com/OpenZeppelin/openzeppelin-contracts/blob/master/contracts/access/Ownable.sol\":1108:1114  _owner */\n      sload\n      sub(shl(0xa0, 0x01), 0x01)\n      and\n        /* \"https://github.com/OpenZeppelin/openzeppelin-contracts/blob/master/contracts/access/Ownable.sol\":1036:1121  function owner() public view virtual returns (address) {... */\n    tag_61:\n      mload(0x40)\n      sub(shl(0xa0, 0x01), 0x01)\n        /* \"#utility.yul\":2145:2177   */\n      swap1\n      swap2\n      and\n        /* \"#utility.yul\":2127:2178   */\n      dup2\n      mstore\n        /* \"#utility.yul\":2115:2117   */\n      0x20\n        /* \"#utility.yul\":2100:2118   */\n      add\n        /* \"https://github.com/OpenZeppelin/openzeppelin-contracts/blob/master/contracts/access/Ownable.sol\":1036:1121  function owner() public view virtual returns (address) {... */\n      tag_30\n        /* \"#utility.yul\":1981:2184   */\n      jump\n        /* \"lotto.sol\":737:760  IERC20 public acesToken */\n    tag_14:\n      sload(0x04)\n      tag_61\n      swap1\n      sub(shl(0xa0, 0x01), 0x01)\n      and\n      dup2\n      jump\n        /* \"lotto.sol\":3288:3410  function userEntries(address account) public view returns (uint256) {\r... */\n    tag_15:\n      tag_26\n      tag_70\n      calldatasize\n      0x04\n      tag_50\n      jump\t// in\n    tag_70:\n      sub(shl(0xa0, 0x01), 0x01)\n        /* \"lotto.sol\":3374:3395  entriesIndex[account] */\n      and\n        /* \"lotto.sol\":3347:3354  uint256 */\n      0x00\n        /* \"lotto.sol\":3374:3395  entriesIndex[account] */\n      swap1\n      dup2\n      mstore\n        /* \"lotto.sol\":3374:3386  entriesIndex */\n      0x07\n        /* \"lotto.sol\":3374:3395  entriesIndex[account] */\n      0x20\n      mstore\n      0x40\n      swap1\n      keccak256\n        /* \"lotto.sol\":3374:3402  entriesIndex[account].length */\n      sload\n      swap1\n        /* \"lotto.sol\":3288:3410  function userEntries(address account) public view returns (uint256) {\r... */\n      jump\n        /* \"lotto.sol\":1530:2108  function removeEntryFromWallet(address account, uint256 amount) public {\r... */\n    tag_16:\n      tag_42\n      tag_74\n      calldatasize\n      0x04\n      tag_28\n      jump\t// in\n    tag_74:\n      tag_75\n      jump\t// in\n        /* \"lotto.sol\":951:998  mapping(uint256 => Results) public roundResults */\n    tag_17:\n      tag_76\n      tag_77\n      calldatasize\n      0x04\n      tag_78\n      jump\t// in\n    tag_77:\n      mstore(0x20, 0x05)\n      0x00\n      swap1\n      dup2\n      mstore\n      0x40\n      swap1\n      keccak256\n      dup1\n      sload\n      0x01\n      dup3\n      add\n      sload\n      0x02\n      dup4\n      add\n      sload\n      0x03\n      dup5\n      add\n      sload\n      0x04\n      swap1\n      swap5\n      add\n      sload\n      swap3\n      swap4\n      swap2\n      swap3\n      swap1\n      swap2\n      swap1\n      sub(shl(0xa0, 0x01), 0x01)\n      and\n      dup6\n      jump\n    tag_76:\n      0x40\n      dup1\n      mload\n        /* \"#utility.yul\":6659:6684   */\n      swap6\n      dup7\n      mstore\n        /* \"#utility.yul\":6715:6717   */\n      0x20\n        /* \"#utility.yul\":6700:6718   */\n      dup7\n      add\n        /* \"#utility.yul\":6693:6727   */\n      swap5\n      swap1\n      swap5\n      mstore\n        /* \"#utility.yul\":6743:6761   */\n      swap3\n      dup5\n      add\n        /* \"#utility.yul\":6736:6770   */\n      swap2\n      swap1\n      swap2\n      mstore\n        /* \"#utility.yul\":6801:6803   */\n      0x60\n        /* \"#utility.yul\":6786:6804   */\n      dup4\n      add\n        /* \"#utility.yul\":6779:6813   */\n      mstore\n      sub(shl(0xa0, 0x01), 0x01)\n        /* \"#utility.yul\":6850:6882   */\n      and\n        /* \"#utility.yul\":6844:6847   */\n      0x80\n        /* \"#utility.yul\":6829:6848   */\n      dup3\n      add\n        /* \"#utility.yul\":6822:6883   */\n      mstore\n        /* \"#utility.yul\":6646:6649   */\n      0xa0\n        /* \"#utility.yul\":6631:6650   */\n      add\n        /* \"lotto.sol\":951:998  mapping(uint256 => Results) public roundResults */\n      tag_30\n        /* \"#utility.yul\":6400:6889   */\n      jump\n        /* \"lotto.sol\":1005:1050  mapping(uint256 => address) public roundEntry */\n    tag_18:\n      tag_61\n      tag_83\n      calldatasize\n      0x04\n      tag_78\n      jump\t// in\n    tag_83:\n      mstore(0x20, 0x06)\n      0x00\n      swap1\n      dup2\n      mstore\n      0x40\n      swap1\n      keccak256\n      sload\n      sub(shl(0xa0, 0x01), 0x01)\n      and\n      dup2\n      jump\n        /* \"lotto.sol\":3418:3915  function resultLog(uint256 startIndex, uint256 endIndex) external view returns(Results [] memory log){\r... */\n    tag_19:\n      tag_86\n      tag_87\n      calldatasize\n      0x04\n      tag_88\n      jump\t// in\n    tag_87:\n      tag_89\n      jump\t// in\n    tag_86:\n      mload(0x40)\n      tag_30\n      swap2\n      swap1\n      tag_91\n      jump\t// in\n        /* \"lotto.sol\":2116:2285  function removeAccount(address account) external{\r... */\n    tag_20:\n      tag_42\n      tag_93\n      calldatasize\n      0x04\n      tag_50\n      jump\t// in\n    tag_93:\n      tag_94\n      jump\t// in\n        /* \"https://github.com/OpenZeppelin/openzeppelin-contracts/blob/master/contracts/access/Ownable.sol\":1918:2116  function transferOwnership(address newOwner) public virtual onlyOwner {... */\n    tag_21:\n      tag_42\n      tag_96\n      calldatasize\n      0x04\n      tag_50\n      jump\t// in\n    tag_96:\n      tag_97\n      jump\t// in\n        /* \"lotto.sol\":3164:3280  function currentJackpot() public view returns (uint256) {\r... */\n    tag_22:\n      tag_26\n      tag_99\n      jump\t// in\n        /* \"lotto.sol\":1057:1106  mapping(address => uint256[]) public entriesIndex */\n    tag_29:\n      mstore(0x20, 0x07)\n      dup2\n      0x00\n      mstore\n      keccak256(0x00, 0x40)\n      dup2\n      dup2\n      sload\n      dup2\n      lt\n      tag_101\n      jumpi\n      0x00\n      dup1\n      revert\n    tag_101:\n      swap1\n      0x00\n      mstore\n      keccak256(0x00, 0x20)\n      add\n      0x00\n      swap2\n      pop\n      swap2\n      pop\n      pop\n      sload\n      dup2\n      jump\t// out\n        /* \"lotto.sol\":3923:4203  function getUniqueUsers() public view returns (uint256 counter) {\r... */\n    tag_36:\n        /* \"lotto.sol\":3970:3985  uint256 counter */\n      0x00\n        /* \"lotto.sol\":4020:4029  uint256 i */\n      dup1\n        /* \"lotto.sol\":4016:4196  for(uint256 i; i < roundEntries; i++){\r... */\n    tag_104:\n        /* \"lotto.sol\":4035:4047  roundEntries */\n      sload(0x01)\n        /* \"lotto.sol\":4031:4032  i */\n      dup2\n        /* \"lotto.sol\":4031:4047  i < roundEntries */\n      lt\n        /* \"lotto.sol\":4016:4196  for(uint256 i; i < roundEntries; i++){\r... */\n      iszero\n      tag_105\n      jumpi\n        /* \"lotto.sol\":4068:4080  address user */\n      0x00\n        /* \"lotto.sol\":4083:4096  roundEntry[i] */\n      dup2\n      dup2\n      mstore\n        /* \"lotto.sol\":4083:4093  roundEntry */\n      0x06\n        /* \"lotto.sol\":4083:4096  roundEntry[i] */\n      0x20\n      swap1\n      dup2\n      mstore\n      0x40\n      dup1\n      dup4\n      keccak256\n      sload\n      sub(shl(0xa0, 0x01), 0x01)\n      and\n        /* \"lotto.sol\":4119:4137  entriesIndex[user] */\n      dup1\n      dup5\n      mstore\n        /* \"lotto.sol\":4119:4131  entriesIndex */\n      0x07\n        /* \"lotto.sol\":4119:4137  entriesIndex[user] */\n      swap1\n      swap3\n      mstore\n      dup3\n      keccak256\n        /* \"lotto.sol\":4119:4140  entriesIndex[user][0] */\n      dup1\n      sload\n        /* \"lotto.sol\":4083:4096  roundEntry[i] */\n      swap2\n      swap3\n        /* \"lotto.sol\":4119:4137  entriesIndex[user] */\n      swap1\n      swap2\n        /* \"lotto.sol\":4119:4140  entriesIndex[user][0] */\n      tag_108\n      jumpi\n      tag_108\n      tag_109\n      jump\t// in\n    tag_108:\n      swap1\n      0x00\n      mstore\n      keccak256(0x00, 0x20)\n      add\n      sload\n        /* \"lotto.sol\":4114:4115  i */\n      dup3\n        /* \"lotto.sol\":4114:4140  i == entriesIndex[user][0] */\n      eq\n        /* \"lotto.sol\":4111:4185  if(i == entriesIndex[user][0]){\r... */\n      iszero\n      tag_111\n      jumpi\n        /* \"lotto.sol\":4160:4169  counter++ */\n      dup3\n      tag_112\n      dup2\n      tag_113\n      jump\t// in\n    tag_112:\n      swap4\n      pop\n      pop\n        /* \"lotto.sol\":4111:4185  if(i == entriesIndex[user][0]){\r... */\n    tag_111:\n      pop\n        /* \"lotto.sol\":4049:4052  i++ */\n      dup1\n      tag_114\n      dup2\n      tag_113\n      jump\t// in\n    tag_114:\n      swap2\n      pop\n      pop\n        /* \"lotto.sol\":4016:4196  for(uint256 i; i < roundEntries; i++){\r... */\n      jump(tag_104)\n    tag_105:\n      pop\n        /* \"lotto.sol\":3923:4203  function getUniqueUsers() public view returns (uint256 counter) {\r... */\n      swap1\n      jump\t// out\n        /* \"lotto.sol\":4211:4814  function getUniqueAddresses() public view returns (address [] memory addresses, uint256 [] memory entries) {\r... */\n    tag_39:\n        /* \"lotto.sol\":4262:4289  address [] memory addresses */\n      0x60\n        /* \"lotto.sol\":4291:4316  uint256 [] memory entries */\n      dup1\n        /* \"lotto.sol\":4329:4348  uint256 arrayLength */\n      0x00\n        /* \"lotto.sol\":4351:4367  getUniqueUsers() */\n      tag_116\n        /* \"lotto.sol\":4351:4365  getUniqueUsers */\n      tag_36\n        /* \"lotto.sol\":4351:4367  getUniqueUsers() */\n      jump\t// in\n    tag_116:\n        /* \"lotto.sol\":4329:4367  uint256 arrayLength = getUniqueUsers() */\n      swap1\n      pop\n        /* \"lotto.sol\":4404:4415  arrayLength */\n      dup1\n        /* \"lotto.sol\":4390:4416  new address[](arrayLength) */\n      0xffffffffffffffff\n      dup2\n      gt\n      iszero\n      tag_118\n      jumpi\n      tag_118\n      tag_119\n      jump\t// in\n    tag_118:\n      mload(0x40)\n      swap1\n      dup1\n      dup3\n      mstore\n      dup1\n      0x20\n      mul\n      0x20\n      add\n      dup3\n      add\n      0x40\n      mstore\n      dup1\n      iszero\n      tag_120\n      jumpi\n      dup2\n      0x20\n      add\n      0x20\n      dup3\n      mul\n      dup1\n      calldatasize\n      dup4\n      calldatacopy\n      add\n      swap1\n      pop\n    tag_120:\n      pop\n        /* \"lotto.sol\":4378:4416  addresses = new address[](arrayLength) */\n      swap3\n      pop\n        /* \"lotto.sol\":4451:4462  arrayLength */\n      dup1\n        /* \"lotto.sol\":4437:4463  new uint256[](arrayLength) */\n      0xffffffffffffffff\n      dup2\n      gt\n      iszero\n      tag_122\n      jumpi\n      tag_122\n      tag_119\n      jump\t// in\n    tag_122:\n      mload(0x40)\n      swap1\n      dup1\n      dup3\n      mstore\n      dup1\n      0x20\n      mul\n      0x20\n      add\n      dup3\n      add\n      0x40\n      mstore\n      dup1\n      iszero\n      tag_123\n      jumpi\n      dup2\n      0x20\n      add\n      0x20\n      dup3\n      mul\n      dup1\n      calldatasize\n      dup4\n      calldatacopy\n      add\n      swap1\n      pop\n    tag_123:\n      pop\n        /* \"lotto.sol\":4427:4463  entries = new uint256[](arrayLength) */\n      swap2\n      pop\n        /* \"lotto.sol\":4474:4494  uint256 currentIndex */\n      0x00\n        /* \"lotto.sol\":4509:4518  uint256 i */\n      dup1\n        /* \"lotto.sol\":4505:4807  for(uint256 i; i < roundEntries; i++){\r... */\n    tag_124:\n        /* \"lotto.sol\":4524:4536  roundEntries */\n      sload(0x01)\n        /* \"lotto.sol\":4520:4521  i */\n      dup2\n        /* \"lotto.sol\":4520:4536  i < roundEntries */\n      lt\n        /* \"lotto.sol\":4505:4807  for(uint256 i; i < roundEntries; i++){\r... */\n      iszero\n      tag_125\n      jumpi\n        /* \"lotto.sol\":4557:4569  address user */\n      0x00\n        /* \"lotto.sol\":4572:4585  roundEntry[i] */\n      dup2\n      dup2\n      mstore\n        /* \"lotto.sol\":4572:4582  roundEntry */\n      0x06\n        /* \"lotto.sol\":4572:4585  roundEntry[i] */\n      0x20\n      swap1\n      dup2\n      mstore\n      0x40\n      dup1\n      dup4\n      keccak256\n      sload\n      sub(shl(0xa0, 0x01), 0x01)\n      and\n        /* \"lotto.sol\":4608:4626  entriesIndex[user] */\n      dup1\n      dup5\n      mstore\n        /* \"lotto.sol\":4608:4620  entriesIndex */\n      0x07\n        /* \"lotto.sol\":4608:4626  entriesIndex[user] */\n      swap1\n      swap3\n      mstore\n      dup3\n      keccak256\n        /* \"lotto.sol\":4608:4629  entriesIndex[user][0] */\n      dup1\n      sload\n        /* \"lotto.sol\":4572:4585  roundEntry[i] */\n      swap2\n      swap3\n        /* \"lotto.sol\":4608:4626  entriesIndex[user] */\n      swap1\n      swap2\n        /* \"lotto.sol\":4608:4629  entriesIndex[user][0] */\n      tag_128\n      jumpi\n      tag_128\n      tag_109\n      jump\t// in\n    tag_128:\n      swap1\n      0x00\n      mstore\n      keccak256(0x00, 0x20)\n      add\n      sload\n        /* \"lotto.sol\":4603:4604  i */\n      dup3\n        /* \"lotto.sol\":4603:4629  i == entriesIndex[user][0] */\n      eq\n        /* \"lotto.sol\":4600:4796  if(i == entriesIndex[user][0]){\r... */\n      iszero\n      tag_130\n      jumpi\n        /* \"lotto.sol\":4675:4679  user */\n      dup1\n        /* \"lotto.sol\":4649:4658  addresses */\n      dup7\n        /* \"lotto.sol\":4659:4671  currentIndex */\n      dup5\n        /* \"lotto.sol\":4649:4672  addresses[currentIndex] */\n      dup2\n      mload\n      dup2\n      lt\n      tag_132\n      jumpi\n      tag_132\n      tag_109\n      jump\t// in\n    tag_132:\n      sub(shl(0xa0, 0x01), 0x01)\n        /* \"lotto.sol\":4649:4679  addresses[currentIndex] = user */\n      swap3\n      dup4\n      and\n        /* \"lotto.sol\":4649:4672  addresses[currentIndex] */\n      0x20\n      swap2\n      dup3\n      mul\n      swap3\n      swap1\n      swap3\n      add\n      dup2\n      add\n        /* \"lotto.sol\":4649:4679  addresses[currentIndex] = user */\n      swap2\n      swap1\n      swap2\n      mstore\n        /* \"lotto.sol\":4722:4740  entriesIndex[user] */\n      swap1\n      dup3\n      and\n      0x00\n      swap1\n      dup2\n      mstore\n        /* \"lotto.sol\":4722:4734  entriesIndex */\n      0x07\n        /* \"lotto.sol\":4722:4740  entriesIndex[user] */\n      swap1\n      swap2\n      mstore\n      0x40\n      swap1\n      keccak256\n        /* \"lotto.sol\":4722:4747  entriesIndex[user].length */\n      sload\n        /* \"lotto.sol\":4698:4719  entries[currentIndex] */\n      dup6\n      mload\n        /* \"lotto.sol\":4698:4705  entries */\n      dup7\n      swap1\n        /* \"lotto.sol\":4706:4718  currentIndex */\n      dup6\n      swap1\n        /* \"lotto.sol\":4698:4719  entries[currentIndex] */\n      dup2\n      lt\n      tag_134\n      jumpi\n      tag_134\n      tag_109\n      jump\t// in\n    tag_134:\n      0x20\n      swap1\n      dup2\n      mul\n      swap2\n      swap1\n      swap2\n      add\n      add\n        /* \"lotto.sol\":4698:4747  entries[currentIndex] = entriesIndex[user].length */\n      mstore\n        /* \"lotto.sol\":4766:4780  currentIndex++ */\n      dup3\n      tag_135\n      dup2\n      tag_113\n      jump\t// in\n    tag_135:\n      swap4\n      pop\n      pop\n        /* \"lotto.sol\":4600:4796  if(i == entriesIndex[user][0]){\r... */\n    tag_130:\n      pop\n        /* \"lotto.sol\":4538:4541  i++ */\n      dup1\n      tag_136\n      dup2\n      tag_113\n      jump\t// in\n    tag_136:\n      swap2\n      pop\n      pop\n        /* \"lotto.sol\":4505:4807  for(uint256 i; i < roundEntries; i++){\r... */\n      jump(tag_124)\n    tag_125:\n      pop\n        /* \"lotto.sol\":4318:4814  {\r... */\n      pop\n      pop\n        /* \"lotto.sol\":4211:4814  function getUniqueAddresses() public view returns (address [] memory addresses, uint256 [] memory entries) {\r... */\n      swap1\n      swap2\n      jump\t// out\n        /* \"lotto.sol\":1250:1522  function updateAccount(address account, uint256 amount) external{\r... */\n    tag_44:\n        /* \"lotto.sol\":1329:1338  uint256 i */\n      0x00\n        /* \"lotto.sol\":1325:1480  for(uint256 i; i < amount; i++){\r... */\n    tag_138:\n        /* \"lotto.sol\":1344:1350  amount */\n      dup2\n        /* \"lotto.sol\":1340:1341  i */\n      dup2\n        /* \"lotto.sol\":1340:1350  i < amount */\n      lt\n        /* \"lotto.sol\":1325:1480  for(uint256 i; i < amount; i++){\r... */\n      iszero\n      tag_139\n      jumpi\n        /* \"lotto.sol\":1402:1409  account */\n      dup3\n        /* \"lotto.sol\":1371:1381  roundEntry */\n      0x06\n        /* \"lotto.sol\":1371:1399  roundEntry[roundEntries + i] */\n      0x00\n        /* \"lotto.sol\":1397:1398  i */\n      dup4\n        /* \"lotto.sol\":1382:1394  roundEntries */\n      sload(0x01)\n        /* \"lotto.sol\":1382:1398  roundEntries + i */\n      tag_141\n      swap2\n      swap1\n      tag_142\n      jump\t// in\n    tag_141:\n        /* \"lotto.sol\":1371:1399  roundEntry[roundEntries + i] */\n      dup2\n      mstore\n      0x20\n      dup1\n      dup3\n      add\n      swap3\n      swap1\n      swap3\n      mstore\n      0x40\n      swap1\n      dup2\n      add\n      0x00\n      swap1\n      dup2\n      keccak256\n        /* \"lotto.sol\":1371:1409  roundEntry[roundEntries + i] = account */\n      dup1\n      sload\n      not(sub(shl(0xa0, 0x01), 0x01))\n      and\n      sub(shl(0xa0, 0x01), 0x01)\n      swap6\n      dup7\n      and\n      or\n      swap1\n      sstore\n        /* \"lotto.sol\":1424:1445  entriesIndex[account] */\n      swap3\n      dup7\n      and\n      dup4\n      mstore\n        /* \"lotto.sol\":1424:1436  entriesIndex */\n      0x07\n        /* \"lotto.sol\":1424:1445  entriesIndex[account] */\n      swap1\n      swap2\n      mstore\n      swap1\n      keccak256\n      0x01\n        /* \"lotto.sol\":1451:1463  roundEntries */\n      sload\n        /* \"lotto.sol\":1451:1467  roundEntries + i */\n      tag_143\n      swap1\n        /* \"lotto.sol\":1466:1467  i */\n      dup4\n      swap1\n        /* \"lotto.sol\":1451:1467  roundEntries + i */\n      tag_142\n      jump\t// in\n    tag_143:\n        /* \"lotto.sol\":1424:1468  entriesIndex[account].push(roundEntries + i) */\n      dup2\n      sload\n      0x01\n      dup2\n      add\n      dup4\n      sstore\n      0x00\n      swap3\n      dup4\n      mstore\n      0x20\n      swap1\n      swap3\n      keccak256\n      swap1\n      swap2\n      add\n      sstore\n        /* \"lotto.sol\":1352:1355  i++ */\n      dup1\n      tag_145\n      dup2\n      tag_113\n      jump\t// in\n    tag_145:\n      swap2\n      pop\n      pop\n        /* \"lotto.sol\":1325:1480  for(uint256 i; i < amount; i++){\r... */\n      jump(tag_138)\n    tag_139:\n      pop\n        /* \"lotto.sol\":1508:1514  amount */\n      dup1\n        /* \"lotto.sol\":1492:1504  roundEntries */\n      0x01\n      0x00\n        /* \"lotto.sol\":1492:1514  roundEntries += amount */\n      dup3\n      dup3\n      sload\n      tag_146\n      swap2\n      swap1\n      tag_142\n      jump\t// in\n    tag_146:\n      swap1\n      swap2\n      sstore\n      pop\n      pop\n      pop\n      pop\n        /* \"lotto.sol\":1250:1522  function updateAccount(address account, uint256 amount) external{\r... */\n      jump\t// out\n        /* \"lotto.sol\":2470:3156  function pickWinner() external onlyOwner {\r... */\n    tag_55:\n        /* \"https://github.com/OpenZeppelin/openzeppelin-contracts/blob/master/contracts/access/Ownable.sol\":1082:1089  address */\n      0x00\n        /* \"https://github.com/OpenZeppelin/openzeppelin-contracts/blob/master/contracts/access/Ownable.sol\":1108:1114  _owner */\n      sload\n      sub(shl(0xa0, 0x01), 0x01)\n      and\n        /* \"https://github.com/OpenZeppelin/openzeppelin-contracts/blob/master/contracts/utils/Context.sol\":719:729  msg.sender */\n      caller\n        /* \"https://github.com/OpenZeppelin/openzeppelin-contracts/blob/master/contracts/access/Ownable.sol\":1248:1271  owner() == _msgSender() */\n      eq\n        /* \"https://github.com/OpenZeppelin/openzeppelin-contracts/blob/master/contracts/access/Ownable.sol\":1240:1308  require(owner() == _msgSender(), \"Ownable: caller is not the owner\") */\n      tag_153\n      jumpi\n      mload(0x40)\n      shl(0xe5, 0x461bcd)\n      dup2\n      mstore\n      0x04\n      add\n      tag_154\n      swap1\n      tag_155\n      jump\t// in\n    tag_154:\n      mload(0x40)\n      dup1\n      swap2\n      sub\n      swap1\n      revert\n    tag_153:\n        /* \"lotto.sol\":2522:2536  uint256 payout */\n      0x00\n        /* \"lotto.sol\":2539:2555  currentJackpot() */\n      tag_157\n        /* \"lotto.sol\":2539:2553  currentJackpot */\n      tag_99\n        /* \"lotto.sol\":2539:2555  currentJackpot() */\n      jump\t// in\n    tag_157:\n        /* \"lotto.sol\":2522:2555  uint256 payout = currentJackpot() */\n      swap1\n      pop\n        /* \"lotto.sol\":2584:2597  75000 * 10**9 */\n      0x44364c5bb000\n        /* \"lotto.sol\":2574:2580  payout */\n      dup2\n        /* \"lotto.sol\":2574:2597  payout >= 75000 * 10**9 */\n      lt\n      iszero\n        /* \"lotto.sol\":2566:2626  require(payout >= 75000 * 10**9, \"Not enough funds to draw\") */\n      tag_158\n      jumpi\n      mload(0x40)\n      shl(0xe5, 0x461bcd)\n      dup2\n      mstore\n        /* \"#utility.yul\":5706:5708   */\n      0x20\n        /* \"lotto.sol\":2566:2626  require(payout >= 75000 * 10**9, \"Not enough funds to draw\") */\n      0x04\n      dup3\n      add\n        /* \"#utility.yul\":5688:5709   */\n      mstore\n        /* \"#utility.yul\":5745:5747   */\n      0x18\n        /* \"#utility.yul\":5725:5743   */\n      0x24\n      dup3\n      add\n        /* \"#utility.yul\":5718:5748   */\n      mstore\n        /* \"#utility.yul\":5784:5810   */\n      0x4e6f7420656e6f7567682066756e647320746f20647261770000000000000000\n        /* \"#utility.yul\":5764:5782   */\n      0x44\n      dup3\n      add\n        /* \"#utility.yul\":5757:5811   */\n      mstore\n        /* \"#utility.yul\":5828:5846   */\n      0x64\n      add\n        /* \"lotto.sol\":2566:2626  require(payout >= 75000 * 10**9, \"Not enough funds to draw\") */\n      tag_154\n        /* \"#utility.yul\":5504:5852   */\n      jump\n        /* \"lotto.sol\":2566:2626  require(payout >= 75000 * 10**9, \"Not enough funds to draw\") */\n    tag_158:\n        /* \"lotto.sol\":2637:2654  uint256 winnerNum */\n      0x00\n        /* \"lotto.sol\":2668:2680  roundEntries */\n      sload(0x01)\n        /* \"lotto.sol\":2657:2665  random() */\n      tag_161\n        /* \"lotto.sol\":2657:2663  random */\n      tag_162\n        /* \"lotto.sol\":2657:2665  random() */\n      jump\t// in\n    tag_161:\n        /* \"lotto.sol\":2657:2680  random() % roundEntries */\n      tag_163\n      swap2\n      swap1\n      tag_164\n      jump\t// in\n    tag_163:\n        /* \"lotto.sol\":2691:2712  address winnerAddress */\n      0x00\n        /* \"lotto.sol\":2715:2736  roundEntry[winnerNum] */\n      dup2\n      dup2\n      mstore\n        /* \"lotto.sol\":2715:2725  roundEntry */\n      0x06\n        /* \"lotto.sol\":2715:2736  roundEntry[winnerNum] */\n      0x20\n      swap1\n      dup2\n      mstore\n      0x40\n      dup1\n      dup4\n      keccak256\n      sload\n        /* \"lotto.sol\":2774:2988  Results ({\r... */\n      dup2\n      mload\n      0xa0\n      dup2\n      add\n      dup4\n      mstore\n        /* \"lotto.sol\":2715:2736  roundEntry[winnerNum] */\n      0x01\n        /* \"lotto.sol\":2812:2824  roundEntries */\n      dup1\n      sload\n        /* \"lotto.sol\":2774:2988  Results ({\r... */\n      dup3\n      mstore\n      dup2\n      dup6\n      add\n      dup8\n      dup2\n      mstore\n      dup3\n      dup6\n      add\n      dup11\n      dup2\n      mstore\n        /* \"lotto.sol\":2916:2931  block.timestamp */\n      timestamp\n        /* \"lotto.sol\":2774:2988  Results ({\r... */\n      0x60\n      dup6\n      add\n      swap1\n      dup2\n      mstore\n      sub(shl(0xa0, 0x01), 0x01)\n        /* \"lotto.sol\":2715:2736  roundEntry[winnerNum] */\n      swap6\n      dup7\n      and\n        /* \"lotto.sol\":2774:2988  Results ({\r... */\n      0x80\n      dup7\n      add\n      dup2\n      dup2\n      mstore\n        /* \"lotto.sol\":2762:2770  roundNum */\n      0x02\n      dup1\n      sload\n        /* \"lotto.sol\":2749:2771  roundResults[roundNum] */\n      dup13\n      mstore\n        /* \"lotto.sol\":2749:2761  roundResults */\n      0x05\n        /* \"lotto.sol\":2749:2771  roundResults[roundNum] */\n      swap1\n      swap11\n      mstore\n      swap8\n      dup11\n      keccak256\n        /* \"lotto.sol\":2749:2988  roundResults[roundNum] = Results ({\r... */\n      swap6\n      mload\n      dup7\n      sstore\n      swap3\n      mload\n      swap4\n      dup6\n      add\n      swap4\n      swap1\n      swap4\n      sstore\n      mload\n      swap6\n      dup4\n      add\n      swap6\n      swap1\n      swap6\n      sstore\n      mload\n      0x03\n      dup1\n      dup4\n      add\n      swap2\n      swap1\n      swap2\n      sstore\n      swap3\n      mload\n      0x04\n      swap1\n      swap2\n      add\n      dup1\n      sload\n      not(sub(shl(0xa0, 0x01), 0x01))\n      and\n      swap2\n      swap1\n      swap3\n      and\n      or\n      swap1\n      sstore\n        /* \"lotto.sol\":3001:3022  totalPayout += payout */\n      dup1\n      sload\n        /* \"lotto.sol\":2715:2736  roundEntry[winnerNum] */\n      swap4\n      swap5\n      pop\n      swap1\n      swap3\n        /* \"lotto.sol\":2774:2988  Results ({\r... */\n      dup6\n      swap3\n        /* \"lotto.sol\":2691:2712  address winnerAddress */\n      swap1\n        /* \"lotto.sol\":3001:3022  totalPayout += payout */\n      tag_165\n      swap1\n        /* \"lotto.sol\":2774:2988  Results ({\r... */\n      dup5\n      swap1\n        /* \"lotto.sol\":3001:3022  totalPayout += payout */\n      tag_142\n      jump\t// in\n    tag_165:\n      swap1\n      swap2\n      sstore\n      pop\n      pop\n        /* \"lotto.sol\":3033:3041  roundNum */\n      0x02\n        /* \"lotto.sol\":3033:3043  roundNum++ */\n      dup1\n      sload\n      swap1\n        /* \"lotto.sol\":3033:3041  roundNum */\n      0x00\n        /* \"lotto.sol\":3033:3043  roundNum++ */\n      tag_166\n      dup4\n      tag_113\n      jump\t// in\n    tag_166:\n      swap1\n      swap2\n      sstore\n      pop\n      pop\n        /* \"lotto.sol\":3056:3065  acesToken */\n      0x04\n      dup1\n      sload\n        /* \"lotto.sol\":3056:3097  acesToken.transfer(winnerAddress, payout) */\n      mload(0x40)\n      shl(0xe0, 0xa9059cbb)\n      dup2\n      mstore\n      sub(shl(0xa0, 0x01), 0x01)\n        /* \"#utility.yul\":2381:2413   */\n      dup5\n      dup2\n      and\n        /* \"lotto.sol\":3056:3097  acesToken.transfer(winnerAddress, payout) */\n      swap4\n      dup3\n      add\n        /* \"#utility.yul\":2363:2414   */\n      swap4\n      swap1\n      swap4\n      mstore\n        /* \"#utility.yul\":2430:2448   */\n      0x24\n      dup2\n      add\n        /* \"#utility.yul\":2423:2457   */\n      dup7\n      swap1\n      mstore\n        /* \"lotto.sol\":3056:3065  acesToken */\n      swap2\n      and\n      swap1\n        /* \"lotto.sol\":3056:3074  acesToken.transfer */\n      0xa9059cbb\n      swap1\n        /* \"#utility.yul\":2336:2354   */\n      0x44\n      add\n        /* \"lotto.sol\":3056:3097  acesToken.transfer(winnerAddress, payout) */\n      0x20\n      mload(0x40)\n      dup1\n      dup4\n      sub\n      dup2\n      0x00\n      dup8\n      dup1\n      extcodesize\n      iszero\n      dup1\n      iszero\n      tag_169\n      jumpi\n      0x00\n      dup1\n      revert\n    tag_169:\n      pop\n      gas\n      call\n      iszero\n      dup1\n      iszero\n      tag_171\n      jumpi\n      returndatasize\n      0x00\n      dup1\n      returndatacopy\n      revert(0x00, returndatasize)\n    tag_171:\n      pop\n      pop\n      pop\n      pop\n      mload(0x40)\n      returndatasize\n      not(0x1f)\n      0x1f\n      dup3\n      add\n      and\n      dup3\n      add\n      dup1\n      0x40\n      mstore\n      pop\n      dup2\n      add\n      swap1\n      tag_172\n      swap2\n      swap1\n      tag_173\n      jump\t// in\n    tag_172:\n      pop\n        /* \"lotto.sol\":3115:3148  LotteryWon(winnerAddress, payout) */\n      0x40\n      dup1\n      mload\n      sub(shl(0xa0, 0x01), 0x01)\n        /* \"#utility.yul\":2381:2413   */\n      dup4\n      and\n        /* \"#utility.yul\":2363:2414   */\n      dup2\n      mstore\n        /* \"#utility.yul\":2445:2447   */\n      0x20\n        /* \"#utility.yul\":2430:2448   */\n      dup2\n      add\n        /* \"#utility.yul\":2423:2457   */\n      dup6\n      swap1\n      mstore\n        /* \"lotto.sol\":3115:3148  LotteryWon(winnerAddress, payout) */\n      0x2e798dd4337e515c79b64c40e1a93baa1aefbd9180ac7905e02508edd7971e50\n      swap2\n        /* \"#utility.yul\":2336:2354   */\n      add\n        /* \"lotto.sol\":3115:3148  LotteryWon(winnerAddress, payout) */\n      mload(0x40)\n      dup1\n      swap2\n      sub\n      swap1\n      log1\n        /* \"lotto.sol\":2511:3156  {\r... */\n      pop\n      pop\n      pop\n        /* \"lotto.sol\":2470:3156  function pickWinner() external onlyOwner {\r... */\n      jump\t// out\n        /* \"https://github.com/OpenZeppelin/openzeppelin-contracts/blob/master/contracts/access/Ownable.sol\":1668:1769  function renounceOwnership() public virtual onlyOwner {... */\n    tag_57:\n        /* \"https://github.com/OpenZeppelin/openzeppelin-contracts/blob/master/contracts/access/Ownable.sol\":1082:1089  address */\n      0x00\n        /* \"https://github.com/OpenZeppelin/openzeppelin-contracts/blob/master/contracts/access/Ownable.sol\":1108:1114  _owner */\n      sload\n      sub(shl(0xa0, 0x01), 0x01)\n      and\n        /* \"https://github.com/OpenZeppelin/openzeppelin-contracts/blob/master/contracts/utils/Context.sol\":719:729  msg.sender */\n      caller\n        /* \"https://github.com/OpenZeppelin/openzeppelin-contracts/blob/master/contracts/access/Ownable.sol\":1248:1271  owner() == _msgSender() */\n      eq\n        /* \"https://github.com/OpenZeppelin/openzeppelin-contracts/blob/master/contracts/access/Ownable.sol\":1240:1308  require(owner() == _msgSender(), \"Ownable: caller is not the owner\") */\n      tag_178\n      jumpi\n      mload(0x40)\n      shl(0xe5, 0x461bcd)\n      dup2\n      mstore\n      0x04\n      add\n      tag_154\n      swap1\n      tag_155\n      jump\t// in\n    tag_178:\n        /* \"https://github.com/OpenZeppelin/openzeppelin-contracts/blob/master/contracts/access/Ownable.sol\":1732:1762  _transferOwnership(address(0)) */\n      tag_181\n        /* \"https://github.com/OpenZeppelin/openzeppelin-contracts/blob/master/contracts/access/Ownable.sol\":1759:1760  0 */\n      0x00\n        /* \"https://github.com/OpenZeppelin/openzeppelin-contracts/blob/master/contracts/access/Ownable.sol\":1732:1750  _transferOwnership */\n      tag_182\n        /* \"https://github.com/OpenZeppelin/openzeppelin-contracts/blob/master/contracts/access/Ownable.sol\":1732:1762  _transferOwnership(address(0)) */\n      jump\t// in\n    tag_181:\n        /* \"https://github.com/OpenZeppelin/openzeppelin-contracts/blob/master/contracts/access/Ownable.sol\":1668:1769  function renounceOwnership() public virtual onlyOwner {... */\n      jump\t// out\n        /* \"lotto.sol\":1530:2108  function removeEntryFromWallet(address account, uint256 amount) public {\r... */\n    tag_75:\n      sub(shl(0xa0, 0x01), 0x01)\n        /* \"lotto.sol\":3374:3395  entriesIndex[account] */\n      dup3\n      and\n        /* \"lotto.sol\":1612:1634  uint256 currentEntries */\n      0x00\n        /* \"lotto.sol\":3374:3395  entriesIndex[account] */\n      swap1\n      dup2\n      mstore\n        /* \"lotto.sol\":3374:3386  entriesIndex */\n      0x07\n        /* \"lotto.sol\":3374:3395  entriesIndex[account] */\n      0x20\n      mstore\n      0x40\n      swap1\n      keccak256\n        /* \"lotto.sol\":3374:3402  entriesIndex[account].length */\n      sload\n      dup1\n        /* \"lotto.sol\":1668:1807  if(currentEntries == 0){\r... */\n      tag_187\n      jumpi\n        /* \"lotto.sol\":1706:1713  return; */\n      pop\n        /* \"lotto.sol\":1530:2108  function removeEntryFromWallet(address account, uint256 amount) public {\r... */\n      pop\n      pop\n      jump\t// out\n        /* \"lotto.sol\":1668:1807  if(currentEntries == 0){\r... */\n    tag_187:\n        /* \"lotto.sol\":1742:1756  currentEntries */\n      dup1\n        /* \"lotto.sol\":1733:1739  amount */\n      dup3\n        /* \"lotto.sol\":1733:1756  amount > currentEntries */\n      gt\n        /* \"lotto.sol\":1730:1807  if(amount > currentEntries){\r... */\n      iszero\n      tag_189\n      jumpi\n        /* \"lotto.sol\":1781:1795  currentEntries */\n      dup1\n        /* \"lotto.sol\":1772:1795  amount = currentEntries */\n      swap2\n      pop\n        /* \"lotto.sol\":1730:1807  if(amount > currentEntries){\r... */\n    tag_189:\n        /* \"lotto.sol\":1835:1836  1 */\n      0x01\n        /* \"lotto.sol\":1819:2066  for(uint256 i = 1; i <= amount; i++){\r... */\n    tag_190:\n        /* \"lotto.sol\":1843:1849  amount */\n      dup3\n        /* \"lotto.sol\":1838:1839  i */\n      dup2\n        /* \"lotto.sol\":1838:1849  i <= amount */\n      gt\n        /* \"lotto.sol\":1819:2066  for(uint256 i = 1; i <= amount; i++){\r... */\n      tag_191\n      jumpi\n      sub(shl(0xa0, 0x01), 0x01)\n        /* \"lotto.sol\":1890:1911  entriesIndex[account] */\n      dup5\n      and\n        /* \"lotto.sol\":1870:1887  uint256 lastIndex */\n      0x00\n        /* \"lotto.sol\":1890:1911  entriesIndex[account] */\n      swap1\n      dup2\n      mstore\n        /* \"lotto.sol\":1890:1902  entriesIndex */\n      0x07\n        /* \"lotto.sol\":1890:1911  entriesIndex[account] */\n      0x20\n      mstore\n      0x40\n      dup2\n      keccak256\n        /* \"lotto.sol\":1912:1940  entriesIndex[account].length */\n      dup1\n      sload\n        /* \"lotto.sol\":1912:1944  entriesIndex[account].length - 1 */\n      tag_193\n      swap1\n        /* \"lotto.sol\":1943:1944  1 */\n      0x01\n      swap1\n        /* \"lotto.sol\":1912:1944  entriesIndex[account].length - 1 */\n      tag_194\n      jump\t// in\n    tag_193:\n        /* \"lotto.sol\":1890:1945  entriesIndex[account][entriesIndex[account].length - 1] */\n      dup2\n      sload\n      dup2\n      lt\n      tag_196\n      jumpi\n      tag_196\n      tag_109\n      jump\t// in\n    tag_196:\n      swap1\n      0x00\n      mstore\n      keccak256(0x00, 0x20)\n      add\n      sload\n        /* \"lotto.sol\":1870:1945  uint256 lastIndex = entriesIndex[account][entriesIndex[account].length - 1] */\n      swap1\n      pop\n        /* \"lotto.sol\":1984:1994  roundEntry */\n      0x06\n        /* \"lotto.sol\":1984:2012  roundEntry[roundEntries - i] */\n      0x00\n        /* \"lotto.sol\":2010:2011  i */\n      dup4\n        /* \"lotto.sol\":1995:2007  roundEntries */\n      sload(0x01)\n        /* \"lotto.sol\":1995:2011  roundEntries - i */\n      tag_198\n      swap2\n      swap1\n      tag_194\n      jump\t// in\n    tag_198:\n        /* \"lotto.sol\":1984:2012  roundEntry[roundEntries - i] */\n      dup2\n      mstore\n      0x20\n      dup1\n      dup3\n      add\n      swap3\n      swap1\n      swap3\n      mstore\n      0x40\n      swap1\n      dup2\n      add\n      0x00\n      swap1\n      dup2\n      keccak256\n      sload\n        /* \"lotto.sol\":1960:1981  roundEntry[lastIndex] */\n      dup5\n      dup3\n      mstore\n        /* \"lotto.sol\":1960:1970  roundEntry */\n      0x06\n        /* \"lotto.sol\":1960:1981  roundEntry[lastIndex] */\n      dup5\n      mstore\n      dup3\n      dup3\n      keccak256\n        /* \"lotto.sol\":1960:2012  roundEntry[lastIndex] = roundEntry[roundEntries - i] */\n      dup1\n      sload\n      not(sub(shl(0xa0, 0x01), 0x01))\n      and\n      sub(shl(0xa0, 0x01), 0x01)\n        /* \"lotto.sol\":1984:2012  roundEntry[roundEntries - i] */\n      swap3\n      dup4\n      and\n        /* \"lotto.sol\":1960:2012  roundEntry[lastIndex] = roundEntry[roundEntries - i] */\n      or\n      swap1\n      sstore\n        /* \"lotto.sol\":2027:2048  entriesIndex[account] */\n      dup9\n      and\n      dup2\n      mstore\n        /* \"lotto.sol\":2027:2039  entriesIndex */\n      0x07\n        /* \"lotto.sol\":2027:2048  entriesIndex[account] */\n      swap1\n      swap3\n      mstore\n      swap1\n      keccak256\n        /* \"lotto.sol\":2027:2054  entriesIndex[account].pop() */\n      dup1\n      sload\n      dup1\n      tag_200\n      jumpi\n      tag_200\n      tag_201\n      jump\t// in\n    tag_200:\n      0x01\n      swap1\n      sub\n      dup2\n      dup2\n      swap1\n      0x00\n      mstore\n      keccak256(0x00, 0x20)\n      add\n      0x00\n      swap1\n      sstore\n      swap1\n      sstore\n        /* \"lotto.sol\":1855:2066  {\r... */\n      pop\n        /* \"lotto.sol\":1851:1854  i++ */\n      dup1\n      dup1\n      tag_203\n      swap1\n      tag_113\n      jump\t// in\n    tag_203:\n      swap2\n      pop\n      pop\n        /* \"lotto.sol\":1819:2066  for(uint256 i = 1; i <= amount; i++){\r... */\n      jump(tag_190)\n    tag_191:\n      pop\n        /* \"lotto.sol\":2094:2100  amount */\n      dup2\n        /* \"lotto.sol\":2078:2090  roundEntries */\n      0x01\n      0x00\n        /* \"lotto.sol\":2078:2100  roundEntries -= amount */\n      dup3\n      dup3\n      sload\n      tag_204\n      swap2\n      swap1\n      tag_194\n      jump\t// in\n    tag_204:\n      swap1\n      swap2\n      sstore\n      pop\n      pop\n      pop\n      pop\n      pop\n        /* \"lotto.sol\":1530:2108  function removeEntryFromWallet(address account, uint256 amount) public {\r... */\n      jump\t// out\n        /* \"lotto.sol\":3418:3915  function resultLog(uint256 startIndex, uint256 endIndex) external view returns(Results [] memory log){\r... */\n    tag_89:\n        /* \"lotto.sol\":3497:3518  Results [] memory log */\n      0x60\n        /* \"lotto.sol\":3546:3554  roundNum */\n      sload(0x02)\n        /* \"lotto.sol\":3534:3542  endIndex */\n      dup3\n        /* \"lotto.sol\":3534:3554  endIndex >= roundNum */\n      lt\n        /* \"lotto.sol\":3530:3606  if (endIndex >= roundNum) {\r... */\n      tag_206\n      jumpi\n        /* \"lotto.sol\":3593:3594  1 */\n      0x01\n        /* \"lotto.sol\":3582:3590  roundNum */\n      sload(0x02)\n        /* \"lotto.sol\":3582:3594  roundNum - 1 */\n      tag_207\n      swap2\n      swap1\n      tag_194\n      jump\t// in\n    tag_207:\n        /* \"lotto.sol\":3571:3594  endIndex = roundNum - 1 */\n      swap2\n      pop\n        /* \"lotto.sol\":3530:3606  if (endIndex >= roundNum) {\r... */\n    tag_206:\n        /* \"lotto.sol\":3618:3637  uint256 arrayLength */\n      0x00\n        /* \"lotto.sol\":3640:3661  endIndex - startIndex */\n      tag_208\n        /* \"lotto.sol\":3651:3661  startIndex */\n      dup5\n        /* \"lotto.sol\":3640:3648  endIndex */\n      dup5\n        /* \"lotto.sol\":3640:3661  endIndex - startIndex */\n      tag_194\n      jump\t// in\n    tag_208:\n        /* \"lotto.sol\":3640:3665  endIndex - startIndex + 1 */\n      tag_209\n      swap1\n        /* \"lotto.sol\":3664:3665  1 */\n      0x01\n        /* \"lotto.sol\":3640:3665  endIndex - startIndex + 1 */\n      tag_142\n      jump\t// in\n    tag_209:\n        /* \"lotto.sol\":3618:3665  uint256 arrayLength = endIndex - startIndex + 1 */\n      swap1\n      pop\n        /* \"lotto.sol\":3676:3696  uint256 currentIndex */\n      0x00\n        /* \"lotto.sol\":3727:3738  arrayLength */\n      dup2\n        /* \"lotto.sol\":3713:3739  new Results[](arrayLength) */\n      0xffffffffffffffff\n      dup2\n      gt\n      iszero\n      tag_211\n      jumpi\n      tag_211\n      tag_119\n      jump\t// in\n    tag_211:\n      mload(0x40)\n      swap1\n      dup1\n      dup3\n      mstore\n      dup1\n      0x20\n      mul\n      0x20\n      add\n      dup3\n      add\n      0x40\n      mstore\n      dup1\n      iszero\n      tag_212\n      jumpi\n      dup2\n      0x20\n      add\n    tag_213:\n      tag_214\n      mload(0x40)\n      dup1\n      0xa0\n      add\n      0x40\n      mstore\n      dup1\n      0x00\n      dup2\n      mstore\n      0x20\n      add\n      0x00\n      dup2\n      mstore\n      0x20\n      add\n      0x00\n      dup2\n      mstore\n      0x20\n      add\n      0x00\n      dup2\n      mstore\n      0x20\n      add\n      and(sub(shl(0xa0, 0x01), 0x01), 0x00)\n      dup2\n      mstore\n      pop\n      swap1\n      jump\n    tag_214:\n      dup2\n      mstore\n      0x20\n      add\n      swap1\n      0x01\n      swap1\n      sub\n      swap1\n      dup2\n      tag_213\n      jumpi\n      swap1\n      pop\n    tag_212:\n      pop\n        /* \"lotto.sol\":3707:3739  log = new Results[](arrayLength) */\n      swap3\n      pop\n        /* \"lotto.sol\":3772:3782  startIndex */\n      dup5\n        /* \"lotto.sol\":3755:3908  for (uint256 i = startIndex; i <= endIndex; i++) {\r... */\n    tag_216:\n        /* \"lotto.sol\":3789:3797  endIndex */\n      dup5\n        /* \"lotto.sol\":3784:3785  i */\n      dup2\n        /* \"lotto.sol\":3784:3797  i <= endIndex */\n      gt\n        /* \"lotto.sol\":3755:3908  for (uint256 i = startIndex; i <= endIndex; i++) {\r... */\n      tag_217\n      jumpi\n        /* \"lotto.sol\":3839:3851  roundResults */\n      0x05\n        /* \"lotto.sol\":3839:3867  roundResults[startIndex + i] */\n      0x00\n        /* \"lotto.sol\":3852:3866  startIndex + i */\n      tag_219\n        /* \"lotto.sol\":3865:3866  i */\n      dup4\n        /* \"lotto.sol\":3852:3862  startIndex */\n      dup10\n        /* \"lotto.sol\":3852:3866  startIndex + i */\n      tag_142\n      jump\t// in\n    tag_219:\n        /* \"lotto.sol\":3839:3867  roundResults[startIndex + i] */\n      dup2\n      mstore\n      0x20\n      dup1\n      dup3\n      add\n      swap3\n      swap1\n      swap3\n      mstore\n      0x40\n      swap1\n      dup2\n      add\n      0x00\n      keccak256\n        /* \"lotto.sol\":3819:3867  log[currentIndex] = roundResults[startIndex + i] */\n      dup2\n      mload\n      0xa0\n      dup2\n      add\n      dup4\n      mstore\n      dup2\n      sload\n      dup2\n      mstore\n      0x01\n      dup3\n      add\n      sload\n      swap4\n      dup2\n      add\n      swap4\n      swap1\n      swap4\n      mstore\n      0x02\n      dup2\n      add\n      sload\n      swap2\n      dup4\n      add\n      swap2\n      swap1\n      swap2\n      mstore\n      0x03\n      dup2\n      add\n      sload\n      0x60\n      dup4\n      add\n      mstore\n      0x04\n      add\n      sload\n      sub(shl(0xa0, 0x01), 0x01)\n      and\n      0x80\n      dup3\n      add\n      mstore\n        /* \"lotto.sol\":3819:3836  log[currentIndex] */\n      dup5\n      mload\n        /* \"lotto.sol\":3819:3822  log */\n      dup6\n      swap1\n        /* \"lotto.sol\":3823:3835  currentIndex */\n      dup5\n      swap1\n        /* \"lotto.sol\":3819:3836  log[currentIndex] */\n      dup2\n      lt\n      tag_221\n      jumpi\n      tag_221\n      tag_109\n      jump\t// in\n    tag_221:\n      0x20\n      mul\n      0x20\n      add\n      add\n        /* \"lotto.sol\":3819:3867  log[currentIndex] = roundResults[startIndex + i] */\n      dup2\n      swap1\n      mstore\n      pop\n        /* \"lotto.sol\":3882:3896  currentIndex++ */\n      dup2\n      dup1\n      tag_222\n      swap1\n      tag_113\n      jump\t// in\n    tag_222:\n      swap3\n      pop\n      pop\n        /* \"lotto.sol\":3799:3802  i++ */\n      dup1\n      dup1\n      tag_223\n      swap1\n      tag_113\n      jump\t// in\n    tag_223:\n      swap2\n      pop\n      pop\n        /* \"lotto.sol\":3755:3908  for (uint256 i = startIndex; i <= endIndex; i++) {\r... */\n      jump(tag_216)\n    tag_217:\n      pop\n        /* \"lotto.sol\":3519:3915  {\r... */\n      pop\n      pop\n        /* \"lotto.sol\":3418:3915  function resultLog(uint256 startIndex, uint256 endIndex) external view returns(Results [] memory log){\r... */\n      swap3\n      swap2\n      pop\n      pop\n      jump\t// out\n        /* \"lotto.sol\":2116:2285  function removeAccount(address account) external{\r... */\n    tag_94:\n      sub(shl(0xa0, 0x01), 0x01)\n        /* \"lotto.sol\":3374:3395  entriesIndex[account] */\n      dup2\n      and\n        /* \"lotto.sol\":2175:2197  uint256 currentEntries */\n      0x00\n        /* \"lotto.sol\":3374:3395  entriesIndex[account] */\n      swap1\n      dup2\n      mstore\n        /* \"lotto.sol\":3374:3386  entriesIndex */\n      0x07\n        /* \"lotto.sol\":3374:3395  entriesIndex[account] */\n      0x20\n      mstore\n      0x40\n      swap1\n      keccak256\n        /* \"lotto.sol\":3374:3402  entriesIndex[account].length */\n      sload\n        /* \"lotto.sol\":2231:2277  removeEntryFromWallet(account, currentEntries) */\n      tag_226\n        /* \"lotto.sol\":3374:3395  entriesIndex[account] */\n      dup3\n        /* \"lotto.sol\":3374:3402  entriesIndex[account].length */\n      dup3\n        /* \"lotto.sol\":2231:2252  removeEntryFromWallet */\n      tag_75\n        /* \"lotto.sol\":2231:2277  removeEntryFromWallet(account, currentEntries) */\n      jump\t// in\n    tag_226:\n        /* \"lotto.sol\":2164:2285  {\r... */\n      pop\n        /* \"lotto.sol\":2116:2285  function removeAccount(address account) external{\r... */\n      pop\n      jump\t// out\n        /* \"https://github.com/OpenZeppelin/openzeppelin-contracts/blob/master/contracts/access/Ownable.sol\":1918:2116  function transferOwnership(address newOwner) public virtual onlyOwner {... */\n    tag_97:\n        /* \"https://github.com/OpenZeppelin/openzeppelin-contracts/blob/master/contracts/access/Ownable.sol\":1082:1089  address */\n      0x00\n        /* \"https://github.com/OpenZeppelin/openzeppelin-contracts/blob/master/contracts/access/Ownable.sol\":1108:1114  _owner */\n      sload\n      sub(shl(0xa0, 0x01), 0x01)\n      and\n        /* \"https://github.com/OpenZeppelin/openzeppelin-contracts/blob/master/contracts/utils/Context.sol\":719:729  msg.sender */\n      caller\n        /* \"https://github.com/OpenZeppelin/openzeppelin-contracts/blob/master/contracts/access/Ownable.sol\":1248:1271  owner() == _msgSender() */\n      eq\n        /* \"https://github.com/OpenZeppelin/openzeppelin-contracts/blob/master/contracts/access/Ownable.sol\":1240:1308  require(owner() == _msgSender(), \"Ownable: caller is not the owner\") */\n      tag_230\n      jumpi\n      mload(0x40)\n      shl(0xe5, 0x461bcd)\n      dup2\n      mstore\n      0x04\n      add\n      tag_154\n      swap1\n      tag_155\n      jump\t// in\n    tag_230:\n      sub(shl(0xa0, 0x01), 0x01)\n        /* \"https://github.com/OpenZeppelin/openzeppelin-contracts/blob/master/contracts/access/Ownable.sol\":2006:2028  newOwner != address(0) */\n      dup2\n      and\n        /* \"https://github.com/OpenZeppelin/openzeppelin-contracts/blob/master/contracts/access/Ownable.sol\":1998:2071  require(newOwner != address(0), \"Ownable: new owner is the zero address\") */\n      tag_233\n      jumpi\n      mload(0x40)\n      shl(0xe5, 0x461bcd)\n      dup2\n      mstore\n        /* \"#utility.yul\":5299:5301   */\n      0x20\n        /* \"https://github.com/OpenZeppelin/openzeppelin-contracts/blob/master/contracts/access/Ownable.sol\":1998:2071  require(newOwner != address(0), \"Ownable: new owner is the zero address\") */\n      0x04\n      dup3\n      add\n        /* \"#utility.yul\":5281:5302   */\n      mstore\n        /* \"#utility.yul\":5338:5340   */\n      0x26\n        /* \"#utility.yul\":5318:5336   */\n      0x24\n      dup3\n      add\n        /* \"#utility.yul\":5311:5341   */\n      mstore\n        /* \"#utility.yul\":5377:5411   */\n      0x4f776e61626c653a206e6577206f776e657220697320746865207a65726f2061\n        /* \"#utility.yul\":5357:5375   */\n      0x44\n      dup3\n      add\n        /* \"#utility.yul\":5350:5412   */\n      mstore\n      shl(0xd0, 0x646472657373)\n        /* \"#utility.yul\":5428:5446   */\n      0x64\n      dup3\n      add\n        /* \"#utility.yul\":5421:5457   */\n      mstore\n        /* \"#utility.yul\":5474:5493   */\n      0x84\n      add\n        /* \"https://github.com/OpenZeppelin/openzeppelin-contracts/blob/master/contracts/access/Ownable.sol\":1998:2071  require(newOwner != address(0), \"Ownable: new owner is the zero address\") */\n      tag_154\n        /* \"#utility.yul\":5097:5499   */\n      jump\n        /* \"https://github.com/OpenZeppelin/openzeppelin-contracts/blob/master/contracts/access/Ownable.sol\":1998:2071  require(newOwner != address(0), \"Ownable: new owner is the zero address\") */\n    tag_233:\n        /* \"https://github.com/OpenZeppelin/openzeppelin-contracts/blob/master/contracts/access/Ownable.sol\":2081:2109  _transferOwnership(newOwner) */\n      tag_236\n        /* \"https://github.com/OpenZeppelin/openzeppelin-contracts/blob/master/contracts/access/Ownable.sol\":2100:2108  newOwner */\n      dup2\n        /* \"https://github.com/OpenZeppelin/openzeppelin-contracts/blob/master/contracts/access/Ownable.sol\":2081:2099  _transferOwnership */\n      tag_182\n        /* \"https://github.com/OpenZeppelin/openzeppelin-contracts/blob/master/contracts/access/Ownable.sol\":2081:2109  _transferOwnership(newOwner) */\n      jump\t// in\n    tag_236:\n        /* \"https://github.com/OpenZeppelin/openzeppelin-contracts/blob/master/contracts/access/Ownable.sol\":1918:2116  function transferOwnership(address newOwner) public virtual onlyOwner {... */\n      pop\n      jump\t// out\n        /* \"lotto.sol\":3164:3280  function currentJackpot() public view returns (uint256) {\r... */\n    tag_99:\n        /* \"lotto.sol\":3238:3247  acesToken */\n      0x04\n      dup1\n      sload\n        /* \"lotto.sol\":3238:3272  acesToken.balanceOf(address(this)) */\n      mload(0x40)\n      shl(0xe0, 0x70a08231)\n      dup2\n      mstore\n        /* \"lotto.sol\":3266:3270  this */\n      address\n        /* \"lotto.sol\":3238:3272  acesToken.balanceOf(address(this)) */\n      swap3\n      dup2\n      add\n        /* \"#utility.yul\":2127:2178   */\n      swap3\n      swap1\n      swap3\n      mstore\n        /* \"lotto.sol\":3211:3218  uint256 */\n      0x00\n      swap2\n      sub(shl(0xa0, 0x01), 0x01)\n        /* \"lotto.sol\":3238:3247  acesToken */\n      swap1\n      swap2\n      and\n      swap1\n        /* \"lotto.sol\":3238:3257  acesToken.balanceOf */\n      0x70a08231\n      swap1\n        /* \"#utility.yul\":2100:2118   */\n      0x24\n      add\n        /* \"lotto.sol\":3238:3272  acesToken.balanceOf(address(this)) */\n      0x20\n      mload(0x40)\n      dup1\n      dup4\n      sub\n      dup2\n      dup7\n      dup1\n      extcodesize\n      iszero\n      dup1\n      iszero\n      tag_239\n      jumpi\n      0x00\n      dup1\n      revert\n    tag_239:\n      pop\n      gas\n      staticcall\n      iszero\n      dup1\n      iszero\n      tag_241\n      jumpi\n      returndatasize\n      0x00\n      dup1\n      returndatacopy\n      revert(0x00, returndatasize)\n    tag_241:\n      pop\n      pop\n      pop\n      pop\n      mload(0x40)\n      returndatasize\n      not(0x1f)\n      0x1f\n      dup3\n      add\n      and\n      dup3\n      add\n      dup1\n      0x40\n      mstore\n      pop\n      dup2\n      add\n      swap1\n      tag_242\n      swap2\n      swap1\n      tag_243\n      jump\t// in\n    tag_242:\n        /* \"lotto.sol\":3231:3272  return acesToken.balanceOf(address(this)) */\n      swap1\n      pop\n        /* \"lotto.sol\":3164:3280  function currentJackpot() public view returns (uint256) {\r... */\n      swap1\n      jump\t// out\n        /* \"lotto.sol\":4822:5195  function random() internal view returns (uint256) {\r... */\n    tag_162:\n        /* \"lotto.sol\":4863:4870  uint256 */\n      0x00\n        /* \"lotto.sol\":5004:5019  block.timestamp */\n      timestamp\n        /* \"lotto.sol\":5046:5055  gasleft() */\n      gas\n        /* \"lotto.sol\":5119:5130  totalPayout */\n      sload(0x03)\n        /* \"lotto.sol\":4961:5153  abi.encodePacked(\r... */\n      mload(0x40)\n      tag_246\n      swap4\n      swap3\n      swap2\n        /* \"lotto.sol\":5082:5092  msg.sender */\n      caller\n      swap2\n        /* \"lotto.sol\":4961:5153  abi.encodePacked(\r... */\n      0x20\n      add\n        /* \"#utility.yul\":1764:1783   */\n      swap4\n      dup5\n      mstore\n        /* \"#utility.yul\":1808:1810   */\n      0x20\n        /* \"#utility.yul\":1799:1811   */\n      dup5\n      add\n        /* \"#utility.yul\":1792:1820   */\n      swap3\n      swap1\n      swap3\n      mstore\n        /* \"#utility.yul\":1858:1860   */\n      0x60\n        /* \"#utility.yul\":1854:1869   */\n      shl\n      not(0xffffffffffffffffffffffff)\n        /* \"#utility.yul\":1850:1903   */\n      and\n        /* \"#utility.yul\":1845:1847   */\n      0x40\n        /* \"#utility.yul\":1836:1848   */\n      dup4\n      add\n        /* \"#utility.yul\":1829:1904   */\n      mstore\n        /* \"#utility.yul\":1929:1931   */\n      0x54\n        /* \"#utility.yul\":1920:1932   */\n      dup3\n      add\n        /* \"#utility.yul\":1913:1941   */\n      mstore\n        /* \"#utility.yul\":1966:1969   */\n      0x74\n        /* \"#utility.yul\":1957:1970   */\n      add\n      swap1\n        /* \"#utility.yul\":1551:1976   */\n      jump\n        /* \"lotto.sol\":4961:5153  abi.encodePacked(\r... */\n    tag_246:\n      mload(0x40)\n      0x20\n      dup2\n      dup4\n      sub\n      sub\n      dup2\n      mstore\n      swap1\n      0x40\n      mstore\n        /* \"lotto.sol\":4929:5172  keccak256(\r... */\n      dup1\n      mload\n      swap1\n      0x20\n      add\n      keccak256\n        /* \"lotto.sol\":4903:5187  uint256(\r... */\n      0x00\n      shr\n        /* \"lotto.sol\":4883:5187  return\r... */\n      swap1\n      pop\n        /* \"lotto.sol\":4822:5195  function random() internal view returns (uint256) {\r... */\n      swap1\n      jump\t// out\n        /* \"https://github.com/OpenZeppelin/openzeppelin-contracts/blob/master/contracts/access/Ownable.sol\":2270:2457  function _transferOwnership(address newOwner) internal virtual {... */\n    tag_182:\n        /* \"https://github.com/OpenZeppelin/openzeppelin-contracts/blob/master/contracts/access/Ownable.sol\":2343:2359  address oldOwner */\n      0x00\n        /* \"https://github.com/OpenZeppelin/openzeppelin-contracts/blob/master/contracts/access/Ownable.sol\":2362:2368  _owner */\n      dup1\n      sload\n      sub(shl(0xa0, 0x01), 0x01)\n        /* \"https://github.com/OpenZeppelin/openzeppelin-contracts/blob/master/contracts/access/Ownable.sol\":2378:2395  _owner = newOwner */\n      dup4\n      dup2\n      and\n      not(sub(shl(0xa0, 0x01), 0x01))\n      dup4\n      and\n      dup2\n      or\n      dup5\n      sstore\n        /* \"https://github.com/OpenZeppelin/openzeppelin-contracts/blob/master/contracts/access/Ownable.sol\":2410:2450  OwnershipTransferred(oldOwner, newOwner) */\n      mload(0x40)\n        /* \"https://github.com/OpenZeppelin/openzeppelin-contracts/blob/master/contracts/access/Ownable.sol\":2362:2368  _owner */\n      swap2\n      swap1\n      swap3\n      and\n      swap3\n      dup4\n      swap2\n        /* \"https://github.com/OpenZeppelin/openzeppelin-contracts/blob/master/contracts/access/Ownable.sol\":2410:2450  OwnershipTransferred(oldOwner, newOwner) */\n      0x8be0079c531659141344cd1fd0a4f28419497f9722a3daafe3b4186f6b6457e0\n      swap2\n        /* \"https://github.com/OpenZeppelin/openzeppelin-contracts/blob/master/contracts/access/Ownable.sol\":2343:2359  address oldOwner */\n      swap1\n        /* \"https://github.com/OpenZeppelin/openzeppelin-contracts/blob/master/contracts/access/Ownable.sol\":2410:2450  OwnershipTransferred(oldOwner, newOwner) */\n      log3\n        /* \"https://github.com/OpenZeppelin/openzeppelin-contracts/blob/master/contracts/access/Ownable.sol\":2333:2457  {... */\n      pop\n        /* \"https://github.com/OpenZeppelin/openzeppelin-contracts/blob/master/contracts/access/Ownable.sol\":2270:2457  function _transferOwnership(address newOwner) internal virtual {... */\n      pop\n      jump\t// out\n        /* \"#utility.yul\":14:187   */\n    tag_250:\n        /* \"#utility.yul\":82:102   */\n      dup1\n      calldataload\n      sub(shl(0xa0, 0x01), 0x01)\n        /* \"#utility.yul\":131:162   */\n      dup2\n      and\n        /* \"#utility.yul\":121:163   */\n      dup2\n      eq\n        /* \"#utility.yul\":111:181   */\n      tag_252\n      jumpi\n        /* \"#utility.yul\":177:178   */\n      0x00\n        /* \"#utility.yul\":174:175   */\n      dup1\n        /* \"#utility.yul\":167:179   */\n      revert\n        /* \"#utility.yul\":111:181   */\n    tag_252:\n        /* \"#utility.yul\":14:187   */\n      swap2\n      swap1\n      pop\n      jump\t// out\n        /* \"#utility.yul\":192:378   */\n    tag_50:\n        /* \"#utility.yul\":251:257   */\n      0x00\n        /* \"#utility.yul\":304:306   */\n      0x20\n        /* \"#utility.yul\":292:301   */\n      dup3\n        /* \"#utility.yul\":283:290   */\n      dup5\n        /* \"#utility.yul\":279:302   */\n      sub\n        /* \"#utility.yul\":275:307   */\n      slt\n        /* \"#utility.yul\":272:324   */\n      iszero\n      tag_254\n      jumpi\n        /* \"#utility.yul\":320:321   */\n      0x00\n        /* \"#utility.yul\":317:318   */\n      dup1\n        /* \"#utility.yul\":310:322   */\n      revert\n        /* \"#utility.yul\":272:324   */\n    tag_254:\n        /* \"#utility.yul\":343:372   */\n      tag_255\n        /* \"#utility.yul\":362:371   */\n      dup3\n        /* \"#utility.yul\":343:372   */\n      tag_250\n      jump\t// in\n    tag_255:\n        /* \"#utility.yul\":333:372   */\n      swap4\n        /* \"#utility.yul\":192:378   */\n      swap3\n      pop\n      pop\n      pop\n      jump\t// out\n        /* \"#utility.yul\":383:637   */\n    tag_28:\n        /* \"#utility.yul\":451:457   */\n      0x00\n        /* \"#utility.yul\":459:465   */\n      dup1\n        /* \"#utility.yul\":512:514   */\n      0x40\n        /* \"#utility.yul\":500:509   */\n      dup4\n        /* \"#utility.yul\":491:498   */\n      dup6\n        /* \"#utility.yul\":487:510   */\n      sub\n        /* \"#utility.yul\":483:515   */\n      slt\n        /* \"#utility.yul\":480:532   */\n      iszero\n      tag_257\n      jumpi\n        /* \"#utility.yul\":528:529   */\n      0x00\n        /* \"#utility.yul\":525:526   */\n      dup1\n        /* \"#utility.yul\":518:530   */\n      revert\n        /* \"#utility.yul\":480:532   */\n    tag_257:\n        /* \"#utility.yul\":551:580   */\n      tag_258\n        /* \"#utility.yul\":570:579   */\n      dup4\n        /* \"#utility.yul\":551:580   */\n      tag_250\n      jump\t// in\n    tag_258:\n        /* \"#utility.yul\":541:580   */\n      swap5\n        /* \"#utility.yul\":627:629   */\n      0x20\n        /* \"#utility.yul\":612:630   */\n      swap4\n      swap1\n      swap4\n      add\n        /* \"#utility.yul\":599:631   */\n      calldataload\n      swap4\n      pop\n      pop\n      pop\n        /* \"#utility.yul\":383:637   */\n      jump\t// out\n        /* \"#utility.yul\":642:919   */\n    tag_173:\n        /* \"#utility.yul\":709:715   */\n      0x00\n        /* \"#utility.yul\":762:764   */\n      0x20\n        /* \"#utility.yul\":750:759   */\n      dup3\n        /* \"#utility.yul\":741:748   */\n      dup5\n        /* \"#utility.yul\":737:760   */\n      sub\n        /* \"#utility.yul\":733:765   */\n      slt\n        /* \"#utility.yul\":730:782   */\n      iszero\n      tag_260\n      jumpi\n        /* \"#utility.yul\":778:779   */\n      0x00\n        /* \"#utility.yul\":775:776   */\n      dup1\n        /* \"#utility.yul\":768:780   */\n      revert\n        /* \"#utility.yul\":730:782   */\n    tag_260:\n        /* \"#utility.yul\":810:819   */\n      dup2\n        /* \"#utility.yul\":804:820   */\n      mload\n        /* \"#utility.yul\":863:868   */\n      dup1\n        /* \"#utility.yul\":856:869   */\n      iszero\n        /* \"#utility.yul\":849:870   */\n      iszero\n        /* \"#utility.yul\":842:847   */\n      dup2\n        /* \"#utility.yul\":839:871   */\n      eq\n        /* \"#utility.yul\":829:889   */\n      tag_255\n      jumpi\n        /* \"#utility.yul\":885:886   */\n      0x00\n        /* \"#utility.yul\":882:883   */\n      dup1\n        /* \"#utility.yul\":875:887   */\n      revert\n        /* \"#utility.yul\":924:1104   */\n    tag_78:\n        /* \"#utility.yul\":983:989   */\n      0x00\n        /* \"#utility.yul\":1036:1038   */\n      0x20\n        /* \"#utility.yul\":1024:1033   */\n      dup3\n        /* \"#utility.yul\":1015:1022   */\n      dup5\n        /* \"#utility.yul\":1011:1034   */\n      sub\n        /* \"#utility.yul\":1007:1039   */\n      slt\n        /* \"#utility.yul\":1004:1056   */\n      iszero\n      tag_263\n      jumpi\n        /* \"#utility.yul\":1052:1053   */\n      0x00\n        /* \"#utility.yul\":1049:1050   */\n      dup1\n        /* \"#utility.yul\":1042:1054   */\n      revert\n        /* \"#utility.yul\":1004:1056   */\n    tag_263:\n      pop\n        /* \"#utility.yul\":1075:1098   */\n      calldataload\n      swap2\n        /* \"#utility.yul\":924:1104   */\n      swap1\n      pop\n      jump\t// out\n        /* \"#utility.yul\":1109:1293   */\n    tag_243:\n        /* \"#utility.yul\":1179:1185   */\n      0x00\n        /* \"#utility.yul\":1232:1234   */\n      0x20\n        /* \"#utility.yul\":1220:1229   */\n      dup3\n        /* \"#utility.yul\":1211:1218   */\n      dup5\n        /* \"#utility.yul\":1207:1230   */\n      sub\n        /* \"#utility.yul\":1203:1235   */\n      slt\n        /* \"#utility.yul\":1200:1252   */\n      iszero\n      tag_265\n      jumpi\n        /* \"#utility.yul\":1248:1249   */\n      0x00\n        /* \"#utility.yul\":1245:1246   */\n      dup1\n        /* \"#utility.yul\":1238:1250   */\n      revert\n        /* \"#utility.yul\":1200:1252   */\n    tag_265:\n      pop\n        /* \"#utility.yul\":1271:1287   */\n      mload\n      swap2\n        /* \"#utility.yul\":1109:1293   */\n      swap1\n      pop\n      jump\t// out\n        /* \"#utility.yul\":1298:1546   */\n    tag_88:\n        /* \"#utility.yul\":1366:1372   */\n      0x00\n        /* \"#utility.yul\":1374:1380   */\n      dup1\n        /* \"#utility.yul\":1427:1429   */\n      0x40\n        /* \"#utility.yul\":1415:1424   */\n      dup4\n        /* \"#utility.yul\":1406:1413   */\n      dup6\n        /* \"#utility.yul\":1402:1425   */\n      sub\n        /* \"#utility.yul\":1398:1430   */\n      slt\n        /* \"#utility.yul\":1395:1447   */\n      iszero\n      tag_267\n      jumpi\n        /* \"#utility.yul\":1443:1444   */\n      0x00\n        /* \"#utility.yul\":1440:1441   */\n      dup1\n        /* \"#utility.yul\":1433:1445   */\n      revert\n        /* \"#utility.yul\":1395:1447   */\n    tag_267:\n      pop\n      pop\n        /* \"#utility.yul\":1466:1489   */\n      dup1\n      calldataload\n      swap3\n        /* \"#utility.yul\":1536:1538   */\n      0x20\n        /* \"#utility.yul\":1521:1539   */\n      swap1\n      swap2\n      add\n        /* \"#utility.yul\":1508:1540   */\n      calldataload\n      swap2\n      pop\n        /* \"#utility.yul\":1298:1546   */\n      jump\t// out\n        /* \"#utility.yul\":2468:3646   */\n    tag_41:\n        /* \"#utility.yul\":2736:2738   */\n      0x40\n        /* \"#utility.yul\":2748:2769   */\n      dup1\n      dup3\n      mstore\n        /* \"#utility.yul\":2818:2831   */\n      dup4\n      mload\n        /* \"#utility.yul\":2721:2739   */\n      swap1\n      dup3\n      add\n        /* \"#utility.yul\":2840:2862   */\n      dup2\n      swap1\n      mstore\n        /* \"#utility.yul\":2688:2692   */\n      0x00\n      swap1\n        /* \"#utility.yul\":2915:2919   */\n      0x20\n      swap1\n        /* \"#utility.yul\":2893:2895   */\n      0x60\n        /* \"#utility.yul\":2878:2896   */\n      dup5\n      add\n      swap1\n        /* \"#utility.yul\":2942:2957   */\n      dup3\n      dup8\n      add\n        /* \"#utility.yul\":2688:2692   */\n      dup5\n        /* \"#utility.yul\":2985:3180   */\n    tag_272:\n        /* \"#utility.yul\":2999:3005   */\n      dup3\n        /* \"#utility.yul\":2996:2997   */\n      dup2\n        /* \"#utility.yul\":2993:3006   */\n      lt\n        /* \"#utility.yul\":2985:3180   */\n      iszero\n      tag_274\n      jumpi\n        /* \"#utility.yul\":3064:3077   */\n      dup2\n      mload\n      sub(shl(0xa0, 0x01), 0x01)\n        /* \"#utility.yul\":3060:3099   */\n      and\n        /* \"#utility.yul\":3048:3100   */\n      dup5\n      mstore\n        /* \"#utility.yul\":3120:3132   */\n      swap3\n      dup5\n      add\n      swap3\n        /* \"#utility.yul\":3155:3170   */\n      swap1\n      dup5\n      add\n      swap1\n        /* \"#utility.yul\":3096:3097   */\n      0x01\n        /* \"#utility.yul\":3014:3023   */\n      add\n        /* \"#utility.yul\":2985:3180   */\n      jump(tag_272)\n    tag_274:\n      pop\n      pop\n      pop\n        /* \"#utility.yul\":3216:3235   */\n      dup4\n      dup2\n      sub\n        /* \"#utility.yul\":3196:3214   */\n      dup3\n      dup6\n      add\n        /* \"#utility.yul\":3189:3236   */\n      mstore\n        /* \"#utility.yul\":3286:3299   */\n      dup5\n      mload\n        /* \"#utility.yul\":3308:3329   */\n      dup1\n      dup3\n      mstore\n        /* \"#utility.yul\":3384:3399   */\n      dup6\n      dup4\n      add\n      swap2\n        /* \"#utility.yul\":3347:3359   */\n      dup4\n      add\n      swap1\n        /* \"#utility.yul\":3419:3420   */\n      0x00\n        /* \"#utility.yul\":3429:3618   */\n    tag_275:\n        /* \"#utility.yul\":3445:3453   */\n      dup2\n        /* \"#utility.yul\":3440:3443   */\n      dup2\n        /* \"#utility.yul\":3437:3454   */\n      lt\n        /* \"#utility.yul\":3429:3618   */\n      iszero\n      tag_277\n      jumpi\n        /* \"#utility.yul\":3514:3529   */\n      dup4\n      mload\n        /* \"#utility.yul\":3500:3530   */\n      dup4\n      mstore\n        /* \"#utility.yul\":3591:3608   */\n      swap3\n      dup5\n      add\n      swap3\n        /* \"#utility.yul\":3552:3566   */\n      swap2\n      dup5\n      add\n      swap2\n        /* \"#utility.yul\":3473:3474   */\n      0x01\n        /* \"#utility.yul\":3464:3475   */\n      add\n        /* \"#utility.yul\":3429:3618   */\n      jump(tag_275)\n    tag_277:\n      pop\n        /* \"#utility.yul\":3635:3640   */\n      swap1\n      swap8\n        /* \"#utility.yul\":2468:3646   */\n      swap7\n      pop\n      pop\n      pop\n      pop\n      pop\n      pop\n      pop\n      jump\t// out\n        /* \"#utility.yul\":3651:4678   */\n    tag_91:\n        /* \"#utility.yul\":3870:3872   */\n      0x20\n        /* \"#utility.yul\":3922:3943   */\n      dup1\n      dup3\n      mstore\n        /* \"#utility.yul\":3992:4005   */\n      dup3\n      mload\n        /* \"#utility.yul\":3895:3913   */\n      dup3\n      dup3\n      add\n        /* \"#utility.yul\":4014:4036   */\n      dup2\n      swap1\n      mstore\n        /* \"#utility.yul\":3841:3845   */\n      0x00\n      swap2\n        /* \"#utility.yul\":3870:3872   */\n      swap1\n        /* \"#utility.yul\":4055:4057   */\n      0x40\n      swap1\n        /* \"#utility.yul\":4073:4091   */\n      dup2\n      dup6\n      add\n      swap1\n        /* \"#utility.yul\":4114:4129   */\n      dup7\n      dup5\n      add\n        /* \"#utility.yul\":3841:3845   */\n      dup6\n        /* \"#utility.yul\":4157:4652   */\n    tag_279:\n        /* \"#utility.yul\":4171:4177   */\n      dup3\n        /* \"#utility.yul\":4168:4169   */\n      dup2\n        /* \"#utility.yul\":4165:4178   */\n      lt\n        /* \"#utility.yul\":4157:4652   */\n      iszero\n      tag_281\n      jumpi\n        /* \"#utility.yul\":4230:4243   */\n      dup2\n      mload\n        /* \"#utility.yul\":4268:4277   */\n      dup1\n      mload\n        /* \"#utility.yul\":4256:4278   */\n      dup6\n      mstore\n        /* \"#utility.yul\":4318:4329   */\n      dup7\n      dup2\n      add\n        /* \"#utility.yul\":4312:4330   */\n      mload\n        /* \"#utility.yul\":4298:4310   */\n      dup8\n      dup7\n      add\n        /* \"#utility.yul\":4291:4331   */\n      mstore\n        /* \"#utility.yul\":4371:4382   */\n      dup6\n      dup2\n      add\n        /* \"#utility.yul\":4365:4383   */\n      mload\n        /* \"#utility.yul\":4351:4363   */\n      dup7\n      dup7\n      add\n        /* \"#utility.yul\":4344:4384   */\n      mstore\n        /* \"#utility.yul\":4407:4411   */\n      0x60\n        /* \"#utility.yul\":4451:4462   */\n      dup1\n      dup3\n      add\n        /* \"#utility.yul\":4445:4463   */\n      mload\n        /* \"#utility.yul\":4431:4443   */\n      swap1\n      dup7\n      add\n        /* \"#utility.yul\":4424:4464   */\n      mstore\n        /* \"#utility.yul\":4487:4491   */\n      0x80\n        /* \"#utility.yul\":4535:4546   */\n      swap1\n      dup2\n      add\n        /* \"#utility.yul\":4529:4547   */\n      mload\n      sub(shl(0xa0, 0x01), 0x01)\n        /* \"#utility.yul\":4525:4569   */\n      and\n        /* \"#utility.yul\":4511:4523   */\n      swap1\n      dup6\n      add\n        /* \"#utility.yul\":4504:4570   */\n      mstore\n        /* \"#utility.yul\":4557:4560   */\n      0xa0\n        /* \"#utility.yul\":4590:4604   */\n      swap1\n      swap4\n      add\n      swap3\n        /* \"#utility.yul\":4627:4642   */\n      swap1\n      dup6\n      add\n      swap1\n        /* \"#utility.yul\":4566:4567   */\n      0x01\n        /* \"#utility.yul\":4186:4195   */\n      add\n        /* \"#utility.yul\":4157:4652   */\n      jump(tag_279)\n    tag_281:\n      pop\n        /* \"#utility.yul\":4669:4672   */\n      swap2\n      swap8\n        /* \"#utility.yul\":3651:4678   */\n      swap7\n      pop\n      pop\n      pop\n      pop\n      pop\n      pop\n      pop\n      jump\t// out\n        /* \"#utility.yul\":5857:6213   */\n    tag_155:\n        /* \"#utility.yul\":6059:6061   */\n      0x20\n        /* \"#utility.yul\":6041:6062   */\n      dup1\n      dup3\n      mstore\n        /* \"#utility.yul\":6078:6096   */\n      dup2\n      dup2\n      add\n        /* \"#utility.yul\":6071:6101   */\n      mstore\n        /* \"#utility.yul\":6137:6171   */\n      0x4f776e61626c653a2063616c6c6572206973206e6f7420746865206f776e6572\n        /* \"#utility.yul\":6132:6134   */\n      0x40\n        /* \"#utility.yul\":6117:6135   */\n      dup3\n      add\n        /* \"#utility.yul\":6110:6172   */\n      mstore\n        /* \"#utility.yul\":6204:6206   */\n      0x60\n        /* \"#utility.yul\":6189:6207   */\n      add\n      swap1\n        /* \"#utility.yul\":5857:6213   */\n      jump\t// out\n        /* \"#utility.yul\":6894:7022   */\n    tag_142:\n        /* \"#utility.yul\":6934:6937   */\n      0x00\n        /* \"#utility.yul\":6965:6966   */\n      dup3\n        /* \"#utility.yul\":6961:6967   */\n      not\n        /* \"#utility.yul\":6958:6959   */\n      dup3\n        /* \"#utility.yul\":6955:6968   */\n      gt\n        /* \"#utility.yul\":6952:6991   */\n      iszero\n      tag_291\n      jumpi\n        /* \"#utility.yul\":6971:6989   */\n      tag_291\n      tag_292\n      jump\t// in\n    tag_291:\n      pop\n        /* \"#utility.yul\":7007:7016   */\n      add\n      swap1\n        /* \"#utility.yul\":6894:7022   */\n      jump\t// out\n        /* \"#utility.yul\":7027:7152   */\n    tag_194:\n        /* \"#utility.yul\":7067:7071   */\n      0x00\n        /* \"#utility.yul\":7095:7096   */\n      dup3\n        /* \"#utility.yul\":7092:7093   */\n      dup3\n        /* \"#utility.yul\":7089:7097   */\n      lt\n        /* \"#utility.yul\":7086:7120   */\n      iszero\n      tag_295\n      jumpi\n        /* \"#utility.yul\":7100:7118   */\n      tag_295\n      tag_292\n      jump\t// in\n    tag_295:\n      pop\n        /* \"#utility.yul\":7137:7146   */\n      sub\n      swap1\n        /* \"#utility.yul\":7027:7152   */\n      jump\t// out\n        /* \"#utility.yul\":7157:7292   */\n    tag_113:\n        /* \"#utility.yul\":7196:7199   */\n      0x00\n      not(0x00)\n        /* \"#utility.yul\":7217:7234   */\n      dup3\n      eq\n        /* \"#utility.yul\":7214:7257   */\n      iszero\n      tag_298\n      jumpi\n        /* \"#utility.yul\":7237:7255   */\n      tag_298\n      tag_292\n      jump\t// in\n    tag_298:\n      pop\n        /* \"#utility.yul\":7284:7285   */\n      0x01\n        /* \"#utility.yul\":7273:7286   */\n      add\n      swap1\n        /* \"#utility.yul\":7157:7292   */\n      jump\t// out\n        /* \"#utility.yul\":7297:7506   */\n    tag_164:\n        /* \"#utility.yul\":7329:7330   */\n      0x00\n        /* \"#utility.yul\":7355:7356   */\n      dup3\n        /* \"#utility.yul\":7345:7477   */\n      tag_300\n      jumpi\n        /* \"#utility.yul\":7399:7409   */\n      0x4e487b71\n        /* \"#utility.yul\":7394:7397   */\n      0xe0\n        /* \"#utility.yul\":7390:7410   */\n      shl\n        /* \"#utility.yul\":7387:7388   */\n      0x00\n        /* \"#utility.yul\":7380:7411   */\n      mstore\n        /* \"#utility.yul\":7434:7438   */\n      0x12\n        /* \"#utility.yul\":7431:7432   */\n      0x04\n        /* \"#utility.yul\":7424:7439   */\n      mstore\n        /* \"#utility.yul\":7462:7466   */\n      0x24\n        /* \"#utility.yul\":7459:7460   */\n      0x00\n        /* \"#utility.yul\":7452:7467   */\n      revert\n        /* \"#utility.yul\":7345:7477   */\n    tag_300:\n      pop\n        /* \"#utility.yul\":7491:7500   */\n      mod\n      swap1\n        /* \"#utility.yul\":7297:7506   */\n      jump\t// out\n        /* \"#utility.yul\":7511:7638   */\n    tag_292:\n        /* \"#utility.yul\":7572:7582   */\n      0x4e487b71\n        /* \"#utility.yul\":7567:7570   */\n      0xe0\n        /* \"#utility.yul\":7563:7583   */\n      shl\n        /* \"#utility.yul\":7560:7561   */\n      0x00\n        /* \"#utility.yul\":7553:7584   */\n      mstore\n        /* \"#utility.yul\":7603:7607   */\n      0x11\n        /* \"#utility.yul\":7600:7601   */\n      0x04\n        /* \"#utility.yul\":7593:7608   */\n      mstore\n        /* \"#utility.yul\":7627:7631   */\n      0x24\n        /* \"#utility.yul\":7624:7625   */\n      0x00\n        /* \"#utility.yul\":7617:7632   */\n      revert\n        /* \"#utility.yul\":7643:7770   */\n    tag_201:\n        /* \"#utility.yul\":7704:7714   */\n      0x4e487b71\n        /* \"#utility.yul\":7699:7702   */\n      0xe0\n        /* \"#utility.yul\":7695:7715   */\n      shl\n        /* \"#utility.yul\":7692:7693   */\n      0x00\n        /* \"#utility.yul\":7685:7716   */\n      mstore\n        /* \"#utility.yul\":7735:7739   */\n      0x31\n        /* \"#utility.yul\":7732:7733   */\n      0x04\n        /* \"#utility.yul\":7725:7740   */\n      mstore\n        /* \"#utility.yul\":7759:7763   */\n      0x24\n        /* \"#utility.yul\":7756:7757   */\n      0x00\n        /* \"#utility.yul\":7749:7764   */\n      revert\n        /* \"#utility.yul\":7775:7902   */\n    tag_109:\n        /* \"#utility.yul\":7836:7846   */\n      0x4e487b71\n        /* \"#utility.yul\":7831:7834   */\n      0xe0\n        /* \"#utility.yul\":7827:7847   */\n      shl\n        /* \"#utility.yul\":7824:7825   */\n      0x00\n        /* \"#utility.yul\":7817:7848   */\n      mstore\n        /* \"#utility.yul\":7867:7871   */\n      0x32\n        /* \"#utility.yul\":7864:7865   */\n      0x04\n        /* \"#utility.yul\":7857:7872   */\n      mstore\n        /* \"#utility.yul\":7891:7895   */\n      0x24\n        /* \"#utility.yul\":7888:7889   */\n      0x00\n        /* \"#utility.yul\":7881:7896   */\n      revert\n        /* \"#utility.yul\":7907:8034   */\n    tag_119:\n        /* \"#utility.yul\":7968:7978   */\n      0x4e487b71\n        /* \"#utility.yul\":7963:7966   */\n      0xe0\n        /* \"#utility.yul\":7959:7979   */\n      shl\n        /* \"#utility.yul\":7956:7957   */\n      0x00\n        /* \"#utility.yul\":7949:7980   */\n      mstore\n        /* \"#utility.yul\":7999:8003   */\n      0x41\n        /* \"#utility.yul\":7996:7997   */\n      0x04\n        /* \"#utility.yul\":7989:8004   */\n      mstore\n        /* \"#utility.yul\":8023:8027   */\n      0x24\n        /* \"#utility.yul\":8020:8021   */\n      0x00\n        /* \"#utility.yul\":8013:8028   */\n      revert\n\n    auxdata: 0xa2646970667358221220ef02abb28a4fc7da12e590c0b348fa0b7c6cc83cf09cd77358369826905ff6c464736f6c63430008070033\n}\n",
				"bytecode": {
					"linkReferences": {},
					"object": "608060405234801561001057600080fd5b5060405161111638038061111683398101604081905261002f916100ad565b6100383361005d565b600480546001600160a01b0319166001600160a01b03929092169190911790556100dd565b600080546001600160a01b038381166001600160a01b0319831681178455604051919092169283917f8be0079c531659141344cd1fd0a4f28419497f9722a3daafe3b4186f6b6457e09190a35050565b6000602082840312156100bf57600080fd5b81516001600160a01b03811681146100d657600080fd5b9392505050565b61102a806100ec6000396000f3fe608060405234801561001057600080fd5b506004361061012c5760003560e01c80638da5cb5b116100ad578063b657dd6511610071578063b657dd65146102db578063bc15cdf014610304578063c4740a9514610324578063f2fde38b14610337578063f9cee0bd1461034a57600080fd5b80638da5cb5b146101f05780639b3e4552146102155780639f10a99014610228578063a59460dc14610251578063ac128f4f1461026457600080fd5b8063454f7b8f116100f4578063454f7b8f146101935780635bedc3901461019c5780635d495aea146101d7578063715018a6146101df57806376636d20146101e757600080fd5b80630d98827014610131578063119b22b314610157578063158977de146101605780633b98bc6514610168578063443b80a11461017e575b600080fd5b61014461013f366004610d60565b610352565b6040519081526020015b60405180910390f35b61014460025481565b610144610383565b6101706103ff565b60405161014e929190610e00565b61019161018c366004610d60565b610575565b005b61014460035481565b6101c76101aa366004610d3e565b6001600160a01b0316600090815260076020526040902054151590565b604051901515815260200161014e565b610191610620565b610191610858565b61014460015481565b6000546001600160a01b03165b6040516001600160a01b03909116815260200161014e565b6004546101fd906001600160a01b031681565b610144610236366004610d3e565b6001600160a01b031660009081526007602052604090205490565b61019161025f366004610d60565b61088e565b6102aa610272366004610dac565b60056020526000908152604090208054600182015460028301546003840154600490940154929391929091906001600160a01b031685565b6040805195865260208601949094529284019190915260608301526001600160a01b0316608082015260a00161014e565b6101fd6102e9366004610dac565b6006602052600090815260409020546001600160a01b031681565b610317610312366004610dde565b6109b7565b60405161014e9190610e84565b610191610332366004610d3e565b610b2a565b610191610345366004610d3e565b610b51565b610144610bec565b6007602052816000526040600020818154811061036e57600080fd5b90600052602060002001600091509150505481565b6000805b6001548110156103fb576000818152600660209081526040808320546001600160a01b0316808452600790925282208054919290916103c8576103c8610fc8565b90600052602060002001548214156103e857826103e481610f5f565b9350505b50806103f381610f5f565b915050610387565b5090565b606080600061040c610383565b90508067ffffffffffffffff81111561042757610427610fde565b604051908082528060200260200182016040528015610450578160200160208202803683370190505b5092508067ffffffffffffffff81111561046c5761046c610fde565b604051908082528060200260200182016040528015610495578160200160208202803683370190505b5091506000805b60015481101561056e576000818152600660209081526040808320546001600160a01b0316808452600790925282208054919290916104dd576104dd610fc8565b906000526020600020015482141561055b578086848151811061050257610502610fc8565b6001600160a01b03928316602091820292909201810191909152908216600090815260079091526040902054855186908590811061054257610542610fc8565b60209081029190910101528261055781610f5f565b9350505b508061056681610f5f565b91505061049c565b5050509091565b60005b81811015610604578260066000836001546105939190610f30565b81526020808201929092526040908101600090812080546001600160a01b0319166001600160a01b039586161790559286168352600790915290206001546105dc908390610f30565b81546001810183556000928352602090922090910155806105fc81610f5f565b915050610578565b5080600160008282546106179190610f30565b90915550505050565b6000546001600160a01b031633146106535760405162461bcd60e51b815260040161064a90610efb565b60405180910390fd5b600061065d610bec565b90506544364c5bb0008110156106b55760405162461bcd60e51b815260206004820152601860248201527f4e6f7420656e6f7567682066756e647320746f20647261770000000000000000604482015260640161064a565b60006001546106c2610c72565b6106cc9190610f7a565b600081815260066020908152604080832054815160a0810183526001805482528185018781528285018a815242606085019081526001600160a01b0395861660808601818152600280548c526005909a52978a20955186559251938501939093555195830195909555516003808301919091559251600490910180546001600160a01b031916919092161790558054939450909285929061076e908490610f30565b90915550506002805490600061078383610f5f565b90915550506004805460405163a9059cbb60e01b81526001600160a01b03848116938201939093526024810186905291169063a9059cbb90604401602060405180830381600087803b1580156107d857600080fd5b505af11580156107ec573d6000803e3d6000fd5b505050506040513d601f19601f820116820180604052508101906108109190610d8a565b50604080516001600160a01b0383168152602081018590527f2e798dd4337e515c79b64c40e1a93baa1aefbd9180ac7905e02508edd7971e50910160405180910390a1505050565b6000546001600160a01b031633146108825760405162461bcd60e51b815260040161064a90610efb565b61088c6000610cd2565b565b6001600160a01b038216600090815260076020526040902054806108b157505050565b808211156108bd578091505b60015b82811161099a576001600160a01b038416600090815260076020526040812080546108ed90600190610f48565b815481106108fd576108fd610fc8565b90600052602060002001549050600660008360015461091c9190610f48565b815260208082019290925260409081016000908120548482526006845282822080546001600160a01b0319166001600160a01b03928316179055881681526007909252902080548061097057610970610fb2565b6001900381819060005260206000200160009055905550808061099290610f5f565b9150506108c0565b5081600160008282546109ad9190610f48565b9091555050505050565b606060025482106109d45760016002546109d19190610f48565b91505b60006109e08484610f48565b6109eb906001610f30565b905060008167ffffffffffffffff811115610a0857610a08610fde565b604051908082528060200260200182016040528015610a7457816020015b610a616040518060a001604052806000815260200160008152602001600081526020016000815260200160006001600160a01b031681525090565b815260200190600190039081610a265790505b509250845b848111610b215760056000610a8e8389610f30565b81526020808201929092526040908101600020815160a0810183528154815260018201549381019390935260028101549183019190915260038101546060830152600401546001600160a01b031660808201528451859084908110610af557610af5610fc8565b60200260200101819052508180610b0b90610f5f565b9250508080610b1990610f5f565b915050610a79565b50505092915050565b6001600160a01b038116600090815260076020526040902054610b4d828261088e565b5050565b6000546001600160a01b03163314610b7b5760405162461bcd60e51b815260040161064a90610efb565b6001600160a01b038116610be05760405162461bcd60e51b815260206004820152602660248201527f4f776e61626c653a206e6577206f776e657220697320746865207a65726f206160448201526564647265737360d01b606482015260840161064a565b610be981610cd2565b50565b600480546040516370a0823160e01b815230928101929092526000916001600160a01b03909116906370a082319060240160206040518083038186803b158015610c3557600080fd5b505afa158015610c49573d6000803e3d6000fd5b505050506040513d601f19601f82011682018060405250810190610c6d9190610dc5565b905090565b6000425a600354604051610cb49392913391602001938452602084019290925260601b6bffffffffffffffffffffffff19166040830152605482015260740190565b6040516020818303038152906040528051906020012060001c905090565b600080546001600160a01b038381166001600160a01b0319831681178455604051919092169283917f8be0079c531659141344cd1fd0a4f28419497f9722a3daafe3b4186f6b6457e09190a35050565b80356001600160a01b0381168114610d3957600080fd5b919050565b600060208284031215610d5057600080fd5b610d5982610d22565b9392505050565b60008060408385031215610d7357600080fd5b610d7c83610d22565b946020939093013593505050565b600060208284031215610d9c57600080fd5b81518015158114610d5957600080fd5b600060208284031215610dbe57600080fd5b5035919050565b600060208284031215610dd757600080fd5b5051919050565b60008060408385031215610df157600080fd5b50508035926020909101359150565b604080825283519082018190526000906020906060840190828701845b82811015610e425781516001600160a01b031684529284019290840190600101610e1d565b5050508381038285015284518082528583019183019060005b81811015610e7757835183529284019291840191600101610e5b565b5090979650505050505050565b602080825282518282018190526000919060409081850190868401855b82811015610eee5781518051855286810151878601528581015186860152606080820151908601526080908101516001600160a01b03169085015260a09093019290850190600101610ea1565b5091979650505050505050565b6020808252818101527f4f776e61626c653a2063616c6c6572206973206e6f7420746865206f776e6572604082015260600190565b60008219821115610f4357610f43610f9c565b500190565b600082821015610f5a57610f5a610f9c565b500390565b6000600019821415610f7357610f73610f9c565b5060010190565b600082610f9757634e487b7160e01b600052601260045260246000fd5b500690565b634e487b7160e01b600052601160045260246000fd5b634e487b7160e01b600052603160045260246000fd5b634e487b7160e01b600052603260045260246000fd5b634e487b7160e01b600052604160045260246000fdfea2646970667358221220ef02abb28a4fc7da12e590c0b348fa0b7c6cc83cf09cd77358369826905ff6c464736f6c63430008070033",
					"opcodes": "PUSH1 0x80 PUSH1 0x40 MSTORE CALLVALUE DUP1 ISZERO PUSH2 0x10 JUMPI PUSH1 0x0 DUP1 REVERT JUMPDEST POP PUSH1 0x40 MLOAD PUSH2 0x1116 CODESIZE SUB DUP1 PUSH2 0x1116 DUP4 CODECOPY DUP2 ADD PUSH1 0x40 DUP2 SWAP1 MSTORE PUSH2 0x2F SWAP2 PUSH2 0xAD JUMP JUMPDEST PUSH2 0x38 CALLER PUSH2 0x5D JUMP JUMPDEST PUSH1 0x4 DUP1 SLOAD PUSH1 0x1 PUSH1 0x1 PUSH1 0xA0 SHL SUB NOT AND PUSH1 0x1 PUSH1 0x1 PUSH1 0xA0 SHL SUB SWAP3 SWAP1 SWAP3 AND SWAP2 SWAP1 SWAP2 OR SWAP1 SSTORE PUSH2 0xDD JUMP JUMPDEST PUSH1 0x0 DUP1 SLOAD PUSH1 0x1 PUSH1 0x1 PUSH1 0xA0 SHL SUB DUP4 DUP2 AND PUSH1 0x1 PUSH1 0x1 PUSH1 0xA0 SHL SUB NOT DUP4 AND DUP2 OR DUP5 SSTORE PUSH1 0x40 MLOAD SWAP2 SWAP1 SWAP3 AND SWAP3 DUP4 SWAP2 PUSH32 0x8BE0079C531659141344CD1FD0A4F28419497F9722A3DAAFE3B4186F6B6457E0 SWAP2 SWAP1 LOG3 POP POP JUMP JUMPDEST PUSH1 0x0 PUSH1 0x20 DUP3 DUP5 SUB SLT ISZERO PUSH2 0xBF JUMPI PUSH1 0x0 DUP1 REVERT JUMPDEST DUP2 MLOAD PUSH1 0x1 PUSH1 0x1 PUSH1 0xA0 SHL SUB DUP2 AND DUP2 EQ PUSH2 0xD6 JUMPI PUSH1 0x0 DUP1 REVERT JUMPDEST SWAP4 SWAP3 POP POP POP JUMP JUMPDEST PUSH2 0x102A DUP1 PUSH2 0xEC PUSH1 0x0 CODECOPY PUSH1 0x0 RETURN INVALID PUSH1 0x80 PUSH1 0x40 MSTORE CALLVALUE DUP1 ISZERO PUSH2 0x10 JUMPI PUSH1 0x0 DUP1 REVERT JUMPDEST POP PUSH1 0x4 CALLDATASIZE LT PUSH2 0x12C JUMPI PUSH1 0x0 CALLDATALOAD PUSH1 0xE0 SHR DUP1 PUSH4 0x8DA5CB5B GT PUSH2 0xAD JUMPI DUP1 PUSH4 0xB657DD65 GT PUSH2 0x71 JUMPI DUP1 PUSH4 0xB657DD65 EQ PUSH2 0x2DB JUMPI DUP1 PUSH4 0xBC15CDF0 EQ PUSH2 0x304 JUMPI DUP1 PUSH4 0xC4740A95 EQ PUSH2 0x324 JUMPI DUP1 PUSH4 0xF2FDE38B EQ PUSH2 0x337 JUMPI DUP1 PUSH4 0xF9CEE0BD EQ PUSH2 0x34A JUMPI PUSH1 0x0 DUP1 REVERT JUMPDEST DUP1 PUSH4 0x8DA5CB5B EQ PUSH2 0x1F0 JUMPI DUP1 PUSH4 0x9B3E4552 EQ PUSH2 0x215 JUMPI DUP1 PUSH4 0x9F10A990 EQ PUSH2 0x228 JUMPI DUP1 PUSH4 0xA59460DC EQ PUSH2 0x251 JUMPI DUP1 PUSH4 0xAC128F4F EQ PUSH2 0x264 JUMPI PUSH1 0x0 DUP1 REVERT JUMPDEST DUP1 PUSH4 0x454F7B8F GT PUSH2 0xF4 JUMPI DUP1 PUSH4 0x454F7B8F EQ PUSH2 0x193 JUMPI DUP1 PUSH4 0x5BEDC390 EQ PUSH2 0x19C JUMPI DUP1 PUSH4 0x5D495AEA EQ PUSH2 0x1D7 JUMPI DUP1 PUSH4 0x715018A6 EQ PUSH2 0x1DF JUMPI DUP1 PUSH4 0x76636D20 EQ PUSH2 0x1E7 JUMPI PUSH1 0x0 DUP1 REVERT JUMPDEST DUP1 PUSH4 0xD988270 EQ PUSH2 0x131 JUMPI DUP1 PUSH4 0x119B22B3 EQ PUSH2 0x157 JUMPI DUP1 PUSH4 0x158977DE EQ PUSH2 0x160 JUMPI DUP1 PUSH4 0x3B98BC65 EQ PUSH2 0x168 JUMPI DUP1 PUSH4 0x443B80A1 EQ PUSH2 0x17E JUMPI JUMPDEST PUSH1 0x0 DUP1 REVERT JUMPDEST PUSH2 0x144 PUSH2 0x13F CALLDATASIZE PUSH1 0x4 PUSH2 0xD60 JUMP JUMPDEST PUSH2 0x352 JUMP JUMPDEST PUSH1 0x40 MLOAD SWAP1 DUP2 MSTORE PUSH1 0x20 ADD JUMPDEST PUSH1 0x40 MLOAD DUP1 SWAP2 SUB SWAP1 RETURN JUMPDEST PUSH2 0x144 PUSH1 0x2 SLOAD DUP2 JUMP JUMPDEST PUSH2 0x144 PUSH2 0x383 JUMP JUMPDEST PUSH2 0x170 PUSH2 0x3FF JUMP JUMPDEST PUSH1 0x40 MLOAD PUSH2 0x14E SWAP3 SWAP2 SWAP1 PUSH2 0xE00 JUMP JUMPDEST PUSH2 0x191 PUSH2 0x18C CALLDATASIZE PUSH1 0x4 PUSH2 0xD60 JUMP JUMPDEST PUSH2 0x575 JUMP JUMPDEST STOP JUMPDEST PUSH2 0x144 PUSH1 0x3 SLOAD DUP2 JUMP JUMPDEST PUSH2 0x1C7 PUSH2 0x1AA CALLDATASIZE PUSH1 0x4 PUSH2 0xD3E JUMP JUMPDEST PUSH1 0x1 PUSH1 0x1 PUSH1 0xA0 SHL SUB AND PUSH1 0x0 SWAP1 DUP2 MSTORE PUSH1 0x7 PUSH1 0x20 MSTORE PUSH1 0x40 SWAP1 KECCAK256 SLOAD ISZERO ISZERO SWAP1 JUMP JUMPDEST PUSH1 0x40 MLOAD SWAP1 ISZERO ISZERO DUP2 MSTORE PUSH1 0x20 ADD PUSH2 0x14E JUMP JUMPDEST PUSH2 0x191 PUSH2 0x620 JUMP JUMPDEST PUSH2 0x191 PUSH2 0x858 JUMP JUMPDEST PUSH2 0x144 PUSH1 0x1 SLOAD DUP2 JUMP JUMPDEST PUSH1 0x0 SLOAD PUSH1 0x1 PUSH1 0x1 PUSH1 0xA0 SHL SUB AND JUMPDEST PUSH1 0x40 MLOAD PUSH1 0x1 PUSH1 0x1 PUSH1 0xA0 SHL SUB SWAP1 SWAP2 AND DUP2 MSTORE PUSH1 0x20 ADD PUSH2 0x14E JUMP JUMPDEST PUSH1 0x4 SLOAD PUSH2 0x1FD SWAP1 PUSH1 0x1 PUSH1 0x1 PUSH1 0xA0 SHL SUB AND DUP2 JUMP JUMPDEST PUSH2 0x144 PUSH2 0x236 CALLDATASIZE PUSH1 0x4 PUSH2 0xD3E JUMP JUMPDEST PUSH1 0x1 PUSH1 0x1 PUSH1 0xA0 SHL SUB AND PUSH1 0x0 SWAP1 DUP2 MSTORE PUSH1 0x7 PUSH1 0x20 MSTORE PUSH1 0x40 SWAP1 KECCAK256 SLOAD SWAP1 JUMP JUMPDEST PUSH2 0x191 PUSH2 0x25F CALLDATASIZE PUSH1 0x4 PUSH2 0xD60 JUMP JUMPDEST PUSH2 0x88E JUMP JUMPDEST PUSH2 0x2AA PUSH2 0x272 CALLDATASIZE PUSH1 0x4 PUSH2 0xDAC JUMP JUMPDEST PUSH1 0x5 PUSH1 0x20 MSTORE PUSH1 0x0 SWAP1 DUP2 MSTORE PUSH1 0x40 SWAP1 KECCAK256 DUP1 SLOAD PUSH1 0x1 DUP3 ADD SLOAD PUSH1 0x2 DUP4 ADD SLOAD PUSH1 0x3 DUP5 ADD SLOAD PUSH1 0x4 SWAP1 SWAP5 ADD SLOAD SWAP3 SWAP4 SWAP2 SWAP3 SWAP1 SWAP2 SWAP1 PUSH1 0x1 PUSH1 0x1 PUSH1 0xA0 SHL SUB AND DUP6 JUMP JUMPDEST PUSH1 0x40 DUP1 MLOAD SWAP6 DUP7 MSTORE PUSH1 0x20 DUP7 ADD SWAP5 SWAP1 SWAP5 MSTORE SWAP3 DUP5 ADD SWAP2 SWAP1 SWAP2 MSTORE PUSH1 0x60 DUP4 ADD MSTORE PUSH1 0x1 PUSH1 0x1 PUSH1 0xA0 SHL SUB AND PUSH1 0x80 DUP3 ADD MSTORE PUSH1 0xA0 ADD PUSH2 0x14E JUMP JUMPDEST PUSH2 0x1FD PUSH2 0x2E9 CALLDATASIZE PUSH1 0x4 PUSH2 0xDAC JUMP JUMPDEST PUSH1 0x6 PUSH1 0x20 MSTORE PUSH1 0x0 SWAP1 DUP2 MSTORE PUSH1 0x40 SWAP1 KECCAK256 SLOAD PUSH1 0x1 PUSH1 0x1 PUSH1 0xA0 SHL SUB AND DUP2 JUMP JUMPDEST PUSH2 0x317 PUSH2 0x312 CALLDATASIZE PUSH1 0x4 PUSH2 0xDDE JUMP JUMPDEST PUSH2 0x9B7 JUMP JUMPDEST PUSH1 0x40 MLOAD PUSH2 0x14E SWAP2 SWAP1 PUSH2 0xE84 JUMP JUMPDEST PUSH2 0x191 PUSH2 0x332 CALLDATASIZE PUSH1 0x4 PUSH2 0xD3E JUMP JUMPDEST PUSH2 0xB2A JUMP JUMPDEST PUSH2 0x191 PUSH2 0x345 CALLDATASIZE PUSH1 0x4 PUSH2 0xD3E JUMP JUMPDEST PUSH2 0xB51 JUMP JUMPDEST PUSH2 0x144 PUSH2 0xBEC JUMP JUMPDEST PUSH1 0x7 PUSH1 0x20 MSTORE DUP2 PUSH1 0x0 MSTORE PUSH1 0x40 PUSH1 0x0 KECCAK256 DUP2 DUP2 SLOAD DUP2 LT PUSH2 0x36E JUMPI PUSH1 0x0 DUP1 REVERT JUMPDEST SWAP1 PUSH1 0x0 MSTORE PUSH1 0x20 PUSH1 0x0 KECCAK256 ADD PUSH1 0x0 SWAP2 POP SWAP2 POP POP SLOAD DUP2 JUMP JUMPDEST PUSH1 0x0 DUP1 JUMPDEST PUSH1 0x1 SLOAD DUP2 LT ISZERO PUSH2 0x3FB JUMPI PUSH1 0x0 DUP2 DUP2 MSTORE PUSH1 0x6 PUSH1 0x20 SWAP1 DUP2 MSTORE PUSH1 0x40 DUP1 DUP4 KECCAK256 SLOAD PUSH1 0x1 PUSH1 0x1 PUSH1 0xA0 SHL SUB AND DUP1 DUP5 MSTORE PUSH1 0x7 SWAP1 SWAP3 MSTORE DUP3 KECCAK256 DUP1 SLOAD SWAP2 SWAP3 SWAP1 SWAP2 PUSH2 0x3C8 JUMPI PUSH2 0x3C8 PUSH2 0xFC8 JUMP JUMPDEST SWAP1 PUSH1 0x0 MSTORE PUSH1 0x20 PUSH1 0x0 KECCAK256 ADD SLOAD DUP3 EQ ISZERO PUSH2 0x3E8 JUMPI DUP3 PUSH2 0x3E4 DUP2 PUSH2 0xF5F JUMP JUMPDEST SWAP4 POP POP JUMPDEST POP DUP1 PUSH2 0x3F3 DUP2 PUSH2 0xF5F JUMP JUMPDEST SWAP2 POP POP PUSH2 0x387 JUMP JUMPDEST POP SWAP1 JUMP JUMPDEST PUSH1 0x60 DUP1 PUSH1 0x0 PUSH2 0x40C PUSH2 0x383 JUMP JUMPDEST SWAP1 POP DUP1 PUSH8 0xFFFFFFFFFFFFFFFF DUP2 GT ISZERO PUSH2 0x427 JUMPI PUSH2 0x427 PUSH2 0xFDE JUMP JUMPDEST PUSH1 0x40 MLOAD SWAP1 DUP1 DUP3 MSTORE DUP1 PUSH1 0x20 MUL PUSH1 0x20 ADD DUP3 ADD PUSH1 0x40 MSTORE DUP1 ISZERO PUSH2 0x450 JUMPI DUP2 PUSH1 0x20 ADD PUSH1 0x20 DUP3 MUL DUP1 CALLDATASIZE DUP4 CALLDATACOPY ADD SWAP1 POP JUMPDEST POP SWAP3 POP DUP1 PUSH8 0xFFFFFFFFFFFFFFFF DUP2 GT ISZERO PUSH2 0x46C JUMPI PUSH2 0x46C PUSH2 0xFDE JUMP JUMPDEST PUSH1 0x40 MLOAD SWAP1 DUP1 DUP3 MSTORE DUP1 PUSH1 0x20 MUL PUSH1 0x20 ADD DUP3 ADD PUSH1 0x40 MSTORE DUP1 ISZERO PUSH2 0x495 JUMPI DUP2 PUSH1 0x20 ADD PUSH1 0x20 DUP3 MUL DUP1 CALLDATASIZE DUP4 CALLDATACOPY ADD SWAP1 POP JUMPDEST POP SWAP2 POP PUSH1 0x0 DUP1 JUMPDEST PUSH1 0x1 SLOAD DUP2 LT ISZERO PUSH2 0x56E JUMPI PUSH1 0x0 DUP2 DUP2 MSTORE PUSH1 0x6 PUSH1 0x20 SWAP1 DUP2 MSTORE PUSH1 0x40 DUP1 DUP4 KECCAK256 SLOAD PUSH1 0x1 PUSH1 0x1 PUSH1 0xA0 SHL SUB AND DUP1 DUP5 MSTORE PUSH1 0x7 SWAP1 SWAP3 MSTORE DUP3 KECCAK256 DUP1 SLOAD SWAP2 SWAP3 SWAP1 SWAP2 PUSH2 0x4DD JUMPI PUSH2 0x4DD PUSH2 0xFC8 JUMP JUMPDEST SWAP1 PUSH1 0x0 MSTORE PUSH1 0x20 PUSH1 0x0 KECCAK256 ADD SLOAD DUP3 EQ ISZERO PUSH2 0x55B JUMPI DUP1 DUP7 DUP5 DUP2 MLOAD DUP2 LT PUSH2 0x502 JUMPI PUSH2 0x502 PUSH2 0xFC8 JUMP JUMPDEST PUSH1 0x1 PUSH1 0x1 PUSH1 0xA0 SHL SUB SWAP3 DUP4 AND PUSH1 0x20 SWAP2 DUP3 MUL SWAP3 SWAP1 SWAP3 ADD DUP2 ADD SWAP2 SWAP1 SWAP2 MSTORE SWAP1 DUP3 AND PUSH1 0x0 SWAP1 DUP2 MSTORE PUSH1 0x7 SWAP1 SWAP2 MSTORE PUSH1 0x40 SWAP1 KECCAK256 SLOAD DUP6 MLOAD DUP7 SWAP1 DUP6 SWAP1 DUP2 LT PUSH2 0x542 JUMPI PUSH2 0x542 PUSH2 0xFC8 JUMP JUMPDEST PUSH1 0x20 SWAP1 DUP2 MUL SWAP2 SWAP1 SWAP2 ADD ADD MSTORE DUP3 PUSH2 0x557 DUP2 PUSH2 0xF5F JUMP JUMPDEST SWAP4 POP POP JUMPDEST POP DUP1 PUSH2 0x566 DUP2 PUSH2 0xF5F JUMP JUMPDEST SWAP2 POP POP PUSH2 0x49C JUMP JUMPDEST POP POP POP SWAP1 SWAP2 JUMP JUMPDEST PUSH1 0x0 JUMPDEST DUP2 DUP2 LT ISZERO PUSH2 0x604 JUMPI DUP3 PUSH1 0x6 PUSH1 0x0 DUP4 PUSH1 0x1 SLOAD PUSH2 0x593 SWAP2 SWAP1 PUSH2 0xF30 JUMP JUMPDEST DUP2 MSTORE PUSH1 0x20 DUP1 DUP3 ADD SWAP3 SWAP1 SWAP3 MSTORE PUSH1 0x40 SWAP1 DUP2 ADD PUSH1 0x0 SWAP1 DUP2 KECCAK256 DUP1 SLOAD PUSH1 0x1 PUSH1 0x1 PUSH1 0xA0 SHL SUB NOT AND PUSH1 0x1 PUSH1 0x1 PUSH1 0xA0 SHL SUB SWAP6 DUP7 AND OR SWAP1 SSTORE SWAP3 DUP7 AND DUP4 MSTORE PUSH1 0x7 SWAP1 SWAP2 MSTORE SWAP1 KECCAK256 PUSH1 0x1 SLOAD PUSH2 0x5DC SWAP1 DUP4 SWAP1 PUSH2 0xF30 JUMP JUMPDEST DUP2 SLOAD PUSH1 0x1 DUP2 ADD DUP4 SSTORE PUSH1 0x0 SWAP3 DUP4 MSTORE PUSH1 0x20 SWAP1 SWAP3 KECCAK256 SWAP1 SWAP2 ADD SSTORE DUP1 PUSH2 0x5FC DUP2 PUSH2 0xF5F JUMP JUMPDEST SWAP2 POP POP PUSH2 0x578 JUMP JUMPDEST POP DUP1 PUSH1 0x1 PUSH1 0x0 DUP3 DUP3 SLOAD PUSH2 0x617 SWAP2 SWAP1 PUSH2 0xF30 JUMP JUMPDEST SWAP1 SWAP2 SSTORE POP POP POP POP JUMP JUMPDEST PUSH1 0x0 SLOAD PUSH1 0x1 PUSH1 0x1 PUSH1 0xA0 SHL SUB AND CALLER EQ PUSH2 0x653 JUMPI PUSH1 0x40 MLOAD PUSH3 0x461BCD PUSH1 0xE5 SHL DUP2 MSTORE PUSH1 0x4 ADD PUSH2 0x64A SWAP1 PUSH2 0xEFB JUMP JUMPDEST PUSH1 0x40 MLOAD DUP1 SWAP2 SUB SWAP1 REVERT JUMPDEST PUSH1 0x0 PUSH2 0x65D PUSH2 0xBEC JUMP JUMPDEST SWAP1 POP PUSH6 0x44364C5BB000 DUP2 LT ISZERO PUSH2 0x6B5 JUMPI PUSH1 0x40 MLOAD PUSH3 0x461BCD PUSH1 0xE5 SHL DUP2 MSTORE PUSH1 0x20 PUSH1 0x4 DUP3 ADD MSTORE PUSH1 0x18 PUSH1 0x24 DUP3 ADD MSTORE PUSH32 0x4E6F7420656E6F7567682066756E647320746F20647261770000000000000000 PUSH1 0x44 DUP3 ADD MSTORE PUSH1 0x64 ADD PUSH2 0x64A JUMP JUMPDEST PUSH1 0x0 PUSH1 0x1 SLOAD PUSH2 0x6C2 PUSH2 0xC72 JUMP JUMPDEST PUSH2 0x6CC SWAP2 SWAP1 PUSH2 0xF7A JUMP JUMPDEST PUSH1 0x0 DUP2 DUP2 MSTORE PUSH1 0x6 PUSH1 0x20 SWAP1 DUP2 MSTORE PUSH1 0x40 DUP1 DUP4 KECCAK256 SLOAD DUP2 MLOAD PUSH1 0xA0 DUP2 ADD DUP4 MSTORE PUSH1 0x1 DUP1 SLOAD DUP3 MSTORE DUP2 DUP6 ADD DUP8 DUP2 MSTORE DUP3 DUP6 ADD DUP11 DUP2 MSTORE TIMESTAMP PUSH1 0x60 DUP6 ADD SWAP1 DUP2 MSTORE PUSH1 0x1 PUSH1 0x1 PUSH1 0xA0 SHL SUB SWAP6 DUP7 AND PUSH1 0x80 DUP7 ADD DUP2 DUP2 MSTORE PUSH1 0x2 DUP1 SLOAD DUP13 MSTORE PUSH1 0x5 SWAP1 SWAP11 MSTORE SWAP8 DUP11 KECCAK256 SWAP6 MLOAD DUP7 SSTORE SWAP3 MLOAD SWAP4 DUP6 ADD SWAP4 SWAP1 SWAP4 SSTORE MLOAD SWAP6 DUP4 ADD SWAP6 SWAP1 SWAP6 SSTORE MLOAD PUSH1 0x3 DUP1 DUP4 ADD SWAP2 SWAP1 SWAP2 SSTORE SWAP3 MLOAD PUSH1 0x4 SWAP1 SWAP2 ADD DUP1 SLOAD PUSH1 0x1 PUSH1 0x1 PUSH1 0xA0 SHL SUB NOT AND SWAP2 SWAP1 SWAP3 AND OR SWAP1 SSTORE DUP1 SLOAD SWAP4 SWAP5 POP SWAP1 SWAP3 DUP6 SWAP3 SWAP1 PUSH2 0x76E SWAP1 DUP5 SWAP1 PUSH2 0xF30 JUMP JUMPDEST SWAP1 SWAP2 SSTORE POP POP PUSH1 0x2 DUP1 SLOAD SWAP1 PUSH1 0x0 PUSH2 0x783 DUP4 PUSH2 0xF5F JUMP JUMPDEST SWAP1 SWAP2 SSTORE POP POP PUSH1 0x4 DUP1 SLOAD PUSH1 0x40 MLOAD PUSH4 0xA9059CBB PUSH1 0xE0 SHL DUP2 MSTORE PUSH1 0x1 PUSH1 0x1 PUSH1 0xA0 SHL SUB DUP5 DUP2 AND SWAP4 DUP3 ADD SWAP4 SWAP1 SWAP4 MSTORE PUSH1 0x24 DUP2 ADD DUP7 SWAP1 MSTORE SWAP2 AND SWAP1 PUSH4 0xA9059CBB SWAP1 PUSH1 0x44 ADD PUSH1 0x20 PUSH1 0x40 MLOAD DUP1 DUP4 SUB DUP2 PUSH1 0x0 DUP8 DUP1 EXTCODESIZE ISZERO DUP1 ISZERO PUSH2 0x7D8 JUMPI PUSH1 0x0 DUP1 REVERT JUMPDEST POP GAS CALL ISZERO DUP1 ISZERO PUSH2 0x7EC JUMPI RETURNDATASIZE PUSH1 0x0 DUP1 RETURNDATACOPY RETURNDATASIZE PUSH1 0x0 REVERT JUMPDEST POP POP POP POP PUSH1 0x40 MLOAD RETURNDATASIZE PUSH1 0x1F NOT PUSH1 0x1F DUP3 ADD AND DUP3 ADD DUP1 PUSH1 0x40 MSTORE POP DUP2 ADD SWAP1 PUSH2 0x810 SWAP2 SWAP1 PUSH2 0xD8A JUMP JUMPDEST POP PUSH1 0x40 DUP1 MLOAD PUSH1 0x1 PUSH1 0x1 PUSH1 0xA0 SHL SUB DUP4 AND DUP2 MSTORE PUSH1 0x20 DUP2 ADD DUP6 SWAP1 MSTORE PUSH32 0x2E798DD4337E515C79B64C40E1A93BAA1AEFBD9180AC7905E02508EDD7971E50 SWAP2 ADD PUSH1 0x40 MLOAD DUP1 SWAP2 SUB SWAP1 LOG1 POP POP POP JUMP JUMPDEST PUSH1 0x0 SLOAD PUSH1 0x1 PUSH1 0x1 PUSH1 0xA0 SHL SUB AND CALLER EQ PUSH2 0x882 JUMPI PUSH1 0x40 MLOAD PUSH3 0x461BCD PUSH1 0xE5 SHL DUP2 MSTORE PUSH1 0x4 ADD PUSH2 0x64A SWAP1 PUSH2 0xEFB JUMP JUMPDEST PUSH2 0x88C PUSH1 0x0 PUSH2 0xCD2 JUMP JUMPDEST JUMP JUMPDEST PUSH1 0x1 PUSH1 0x1 PUSH1 0xA0 SHL SUB DUP3 AND PUSH1 0x0 SWAP1 DUP2 MSTORE PUSH1 0x7 PUSH1 0x20 MSTORE PUSH1 0x40 SWAP1 KECCAK256 SLOAD DUP1 PUSH2 0x8B1 JUMPI POP POP POP JUMP JUMPDEST DUP1 DUP3 GT ISZERO PUSH2 0x8BD JUMPI DUP1 SWAP2 POP JUMPDEST PUSH1 0x1 JUMPDEST DUP3 DUP2 GT PUSH2 0x99A JUMPI PUSH1 0x1 PUSH1 0x1 PUSH1 0xA0 SHL SUB DUP5 AND PUSH1 0x0 SWAP1 DUP2 MSTORE PUSH1 0x7 PUSH1 0x20 MSTORE PUSH1 0x40 DUP2 KECCAK256 DUP1 SLOAD PUSH2 0x8ED SWAP1 PUSH1 0x1 SWAP1 PUSH2 0xF48 JUMP JUMPDEST DUP2 SLOAD DUP2 LT PUSH2 0x8FD JUMPI PUSH2 0x8FD PUSH2 0xFC8 JUMP JUMPDEST SWAP1 PUSH1 0x0 MSTORE PUSH1 0x20 PUSH1 0x0 KECCAK256 ADD SLOAD SWAP1 POP PUSH1 0x6 PUSH1 0x0 DUP4 PUSH1 0x1 SLOAD PUSH2 0x91C SWAP2 SWAP1 PUSH2 0xF48 JUMP JUMPDEST DUP2 MSTORE PUSH1 0x20 DUP1 DUP3 ADD SWAP3 SWAP1 SWAP3 MSTORE PUSH1 0x40 SWAP1 DUP2 ADD PUSH1 0x0 SWAP1 DUP2 KECCAK256 SLOAD DUP5 DUP3 MSTORE PUSH1 0x6 DUP5 MSTORE DUP3 DUP3 KECCAK256 DUP1 SLOAD PUSH1 0x1 PUSH1 0x1 PUSH1 0xA0 SHL SUB NOT AND PUSH1 0x1 PUSH1 0x1 PUSH1 0xA0 SHL SUB SWAP3 DUP4 AND OR SWAP1 SSTORE DUP9 AND DUP2 MSTORE PUSH1 0x7 SWAP1 SWAP3 MSTORE SWAP1 KECCAK256 DUP1 SLOAD DUP1 PUSH2 0x970 JUMPI PUSH2 0x970 PUSH2 0xFB2 JUMP JUMPDEST PUSH1 0x1 SWAP1 SUB DUP2 DUP2 SWAP1 PUSH1 0x0 MSTORE PUSH1 0x20 PUSH1 0x0 KECCAK256 ADD PUSH1 0x0 SWAP1 SSTORE SWAP1 SSTORE POP DUP1 DUP1 PUSH2 0x992 SWAP1 PUSH2 0xF5F JUMP JUMPDEST SWAP2 POP POP PUSH2 0x8C0 JUMP JUMPDEST POP DUP2 PUSH1 0x1 PUSH1 0x0 DUP3 DUP3 SLOAD PUSH2 0x9AD SWAP2 SWAP1 PUSH2 0xF48 JUMP JUMPDEST SWAP1 SWAP2 SSTORE POP POP POP POP POP JUMP JUMPDEST PUSH1 0x60 PUSH1 0x2 SLOAD DUP3 LT PUSH2 0x9D4 JUMPI PUSH1 0x1 PUSH1 0x2 SLOAD PUSH2 0x9D1 SWAP2 SWAP1 PUSH2 0xF48 JUMP JUMPDEST SWAP2 POP JUMPDEST PUSH1 0x0 PUSH2 0x9E0 DUP5 DUP5 PUSH2 0xF48 JUMP JUMPDEST PUSH2 0x9EB SWAP1 PUSH1 0x1 PUSH2 0xF30 JUMP JUMPDEST SWAP1 POP PUSH1 0x0 DUP2 PUSH8 0xFFFFFFFFFFFFFFFF DUP2 GT ISZERO PUSH2 0xA08 JUMPI PUSH2 0xA08 PUSH2 0xFDE JUMP JUMPDEST PUSH1 0x40 MLOAD SWAP1 DUP1 DUP3 MSTORE DUP1 PUSH1 0x20 MUL PUSH1 0x20 ADD DUP3 ADD PUSH1 0x40 MSTORE DUP1 ISZERO PUSH2 0xA74 JUMPI DUP2 PUSH1 0x20 ADD JUMPDEST PUSH2 0xA61 PUSH1 0x40 MLOAD DUP1 PUSH1 0xA0 ADD PUSH1 0x40 MSTORE DUP1 PUSH1 0x0 DUP2 MSTORE PUSH1 0x20 ADD PUSH1 0x0 DUP2 MSTORE PUSH1 0x20 ADD PUSH1 0x0 DUP2 MSTORE PUSH1 0x20 ADD PUSH1 0x0 DUP2 MSTORE PUSH1 0x20 ADD PUSH1 0x0 PUSH1 0x1 PUSH1 0x1 PUSH1 0xA0 SHL SUB AND DUP2 MSTORE POP SWAP1 JUMP JUMPDEST DUP2 MSTORE PUSH1 0x20 ADD SWAP1 PUSH1 0x1 SWAP1 SUB SWAP1 DUP2 PUSH2 0xA26 JUMPI SWAP1 POP JUMPDEST POP SWAP3 POP DUP5 JUMPDEST DUP5 DUP2 GT PUSH2 0xB21 JUMPI PUSH1 0x5 PUSH1 0x0 PUSH2 0xA8E DUP4 DUP10 PUSH2 0xF30 JUMP JUMPDEST DUP2 MSTORE PUSH1 0x20 DUP1 DUP3 ADD SWAP3 SWAP1 SWAP3 MSTORE PUSH1 0x40 SWAP1 DUP2 ADD PUSH1 0x0 KECCAK256 DUP2 MLOAD PUSH1 0xA0 DUP2 ADD DUP4 MSTORE DUP2 SLOAD DUP2 MSTORE PUSH1 0x1 DUP3 ADD SLOAD SWAP4 DUP2 ADD SWAP4 SWAP1 SWAP4 MSTORE PUSH1 0x2 DUP2 ADD SLOAD SWAP2 DUP4 ADD SWAP2 SWAP1 SWAP2 MSTORE PUSH1 0x3 DUP2 ADD SLOAD PUSH1 0x60 DUP4 ADD MSTORE PUSH1 0x4 ADD SLOAD PUSH1 0x1 PUSH1 0x1 PUSH1 0xA0 SHL SUB AND PUSH1 0x80 DUP3 ADD MSTORE DUP5 MLOAD DUP6 SWAP1 DUP5 SWAP1 DUP2 LT PUSH2 0xAF5 JUMPI PUSH2 0xAF5 PUSH2 0xFC8 JUMP JUMPDEST PUSH1 0x20 MUL PUSH1 0x20 ADD ADD DUP2 SWAP1 MSTORE POP DUP2 DUP1 PUSH2 0xB0B SWAP1 PUSH2 0xF5F JUMP JUMPDEST SWAP3 POP POP DUP1 DUP1 PUSH2 0xB19 SWAP1 PUSH2 0xF5F JUMP JUMPDEST SWAP2 POP POP PUSH2 0xA79 JUMP JUMPDEST POP POP POP SWAP3 SWAP2 POP POP JUMP JUMPDEST PUSH1 0x1 PUSH1 0x1 PUSH1 0xA0 SHL SUB DUP2 AND PUSH1 0x0 SWAP1 DUP2 MSTORE PUSH1 0x7 PUSH1 0x20 MSTORE PUSH1 0x40 SWAP1 KECCAK256 SLOAD PUSH2 0xB4D DUP3 DUP3 PUSH2 0x88E JUMP JUMPDEST POP POP JUMP JUMPDEST PUSH1 0x0 SLOAD PUSH1 0x1 PUSH1 0x1 PUSH1 0xA0 SHL SUB AND CALLER EQ PUSH2 0xB7B JUMPI PUSH1 0x40 MLOAD PUSH3 0x461BCD PUSH1 0xE5 SHL DUP2 MSTORE PUSH1 0x4 ADD PUSH2 0x64A SWAP1 PUSH2 0xEFB JUMP JUMPDEST PUSH1 0x1 PUSH1 0x1 PUSH1 0xA0 SHL SUB DUP2 AND PUSH2 0xBE0 JUMPI PUSH1 0x40 MLOAD PUSH3 0x461BCD PUSH1 0xE5 SHL DUP2 MSTORE PUSH1 0x20 PUSH1 0x4 DUP3 ADD MSTORE PUSH1 0x26 PUSH1 0x24 DUP3 ADD MSTORE PUSH32 0x4F776E61626C653A206E6577206F776E657220697320746865207A65726F2061 PUSH1 0x44 DUP3 ADD MSTORE PUSH6 0x646472657373 PUSH1 0xD0 SHL PUSH1 0x64 DUP3 ADD MSTORE PUSH1 0x84 ADD PUSH2 0x64A JUMP JUMPDEST PUSH2 0xBE9 DUP2 PUSH2 0xCD2 JUMP JUMPDEST POP JUMP JUMPDEST PUSH1 0x4 DUP1 SLOAD PUSH1 0x40 MLOAD PUSH4 0x70A08231 PUSH1 0xE0 SHL DUP2 MSTORE ADDRESS SWAP3 DUP2 ADD SWAP3 SWAP1 SWAP3 MSTORE PUSH1 0x0 SWAP2 PUSH1 0x1 PUSH1 0x1 PUSH1 0xA0 SHL SUB SWAP1 SWAP2 AND SWAP1 PUSH4 0x70A08231 SWAP1 PUSH1 0x24 ADD PUSH1 0x20 PUSH1 0x40 MLOAD DUP1 DUP4 SUB DUP2 DUP7 DUP1 EXTCODESIZE ISZERO DUP1 ISZERO PUSH2 0xC35 JUMPI PUSH1 0x0 DUP1 REVERT JUMPDEST POP GAS STATICCALL ISZERO DUP1 ISZERO PUSH2 0xC49 JUMPI RETURNDATASIZE PUSH1 0x0 DUP1 RETURNDATACOPY RETURNDATASIZE PUSH1 0x0 REVERT JUMPDEST POP POP POP POP PUSH1 0x40 MLOAD RETURNDATASIZE PUSH1 0x1F NOT PUSH1 0x1F DUP3 ADD AND DUP3 ADD DUP1 PUSH1 0x40 MSTORE POP DUP2 ADD SWAP1 PUSH2 0xC6D SWAP2 SWAP1 PUSH2 0xDC5 JUMP JUMPDEST SWAP1 POP SWAP1 JUMP JUMPDEST PUSH1 0x0 TIMESTAMP GAS PUSH1 0x3 SLOAD PUSH1 0x40 MLOAD PUSH2 0xCB4 SWAP4 SWAP3 SWAP2 CALLER SWAP2 PUSH1 0x20 ADD SWAP4 DUP5 MSTORE PUSH1 0x20 DUP5 ADD SWAP3 SWAP1 SWAP3 MSTORE PUSH1 0x60 SHL PUSH12 0xFFFFFFFFFFFFFFFFFFFFFFFF NOT AND PUSH1 0x40 DUP4 ADD MSTORE PUSH1 0x54 DUP3 ADD MSTORE PUSH1 0x74 ADD SWAP1 JUMP JUMPDEST PUSH1 0x40 MLOAD PUSH1 0x20 DUP2 DUP4 SUB SUB DUP2 MSTORE SWAP1 PUSH1 0x40 MSTORE DUP1 MLOAD SWAP1 PUSH1 0x20 ADD KECCAK256 PUSH1 0x0 SHR SWAP1 POP SWAP1 JUMP JUMPDEST PUSH1 0x0 DUP1 SLOAD PUSH1 0x1 PUSH1 0x1 PUSH1 0xA0 SHL SUB DUP4 DUP2 AND PUSH1 0x1 PUSH1 0x1 PUSH1 0xA0 SHL SUB NOT DUP4 AND DUP2 OR DUP5 SSTORE PUSH1 0x40 MLOAD SWAP2 SWAP1 SWAP3 AND SWAP3 DUP4 SWAP2 PUSH32 0x8BE0079C531659141344CD1FD0A4F28419497F9722A3DAAFE3B4186F6B6457E0 SWAP2 SWAP1 LOG3 POP POP JUMP JUMPDEST DUP1 CALLDATALOAD PUSH1 0x1 PUSH1 0x1 PUSH1 0xA0 SHL SUB DUP2 AND DUP2 EQ PUSH2 0xD39 JUMPI PUSH1 0x0 DUP1 REVERT JUMPDEST SWAP2 SWAP1 POP JUMP JUMPDEST PUSH1 0x0 PUSH1 0x20 DUP3 DUP5 SUB SLT ISZERO PUSH2 0xD50 JUMPI PUSH1 0x0 DUP1 REVERT JUMPDEST PUSH2 0xD59 DUP3 PUSH2 0xD22 JUMP JUMPDEST SWAP4 SWAP3 POP POP POP JUMP JUMPDEST PUSH1 0x0 DUP1 PUSH1 0x40 DUP4 DUP6 SUB SLT ISZERO PUSH2 0xD73 JUMPI PUSH1 0x0 DUP1 REVERT JUMPDEST PUSH2 0xD7C DUP4 PUSH2 0xD22 JUMP JUMPDEST SWAP5 PUSH1 0x20 SWAP4 SWAP1 SWAP4 ADD CALLDATALOAD SWAP4 POP POP POP JUMP JUMPDEST PUSH1 0x0 PUSH1 0x20 DUP3 DUP5 SUB SLT ISZERO PUSH2 0xD9C JUMPI PUSH1 0x0 DUP1 REVERT JUMPDEST DUP2 MLOAD DUP1 ISZERO ISZERO DUP2 EQ PUSH2 0xD59 JUMPI PUSH1 0x0 DUP1 REVERT JUMPDEST PUSH1 0x0 PUSH1 0x20 DUP3 DUP5 SUB SLT ISZERO PUSH2 0xDBE JUMPI PUSH1 0x0 DUP1 REVERT JUMPDEST POP CALLDATALOAD SWAP2 SWAP1 POP JUMP JUMPDEST PUSH1 0x0 PUSH1 0x20 DUP3 DUP5 SUB SLT ISZERO PUSH2 0xDD7 JUMPI PUSH1 0x0 DUP1 REVERT JUMPDEST POP MLOAD SWAP2 SWAP1 POP JUMP JUMPDEST PUSH1 0x0 DUP1 PUSH1 0x40 DUP4 DUP6 SUB SLT ISZERO PUSH2 0xDF1 JUMPI PUSH1 0x0 DUP1 REVERT JUMPDEST POP POP DUP1 CALLDATALOAD SWAP3 PUSH1 0x20 SWAP1 SWAP2 ADD CALLDATALOAD SWAP2 POP JUMP JUMPDEST PUSH1 0x40 DUP1 DUP3 MSTORE DUP4 MLOAD SWAP1 DUP3 ADD DUP2 SWAP1 MSTORE PUSH1 0x0 SWAP1 PUSH1 0x20 SWAP1 PUSH1 0x60 DUP5 ADD SWAP1 DUP3 DUP8 ADD DUP5 JUMPDEST DUP3 DUP2 LT ISZERO PUSH2 0xE42 JUMPI DUP2 MLOAD PUSH1 0x1 PUSH1 0x1 PUSH1 0xA0 SHL SUB AND DUP5 MSTORE SWAP3 DUP5 ADD SWAP3 SWAP1 DUP5 ADD SWAP1 PUSH1 0x1 ADD PUSH2 0xE1D JUMP JUMPDEST POP POP POP DUP4 DUP2 SUB DUP3 DUP6 ADD MSTORE DUP5 MLOAD DUP1 DUP3 MSTORE DUP6 DUP4 ADD SWAP2 DUP4 ADD SWAP1 PUSH1 0x0 JUMPDEST DUP2 DUP2 LT ISZERO PUSH2 0xE77 JUMPI DUP4 MLOAD DUP4 MSTORE SWAP3 DUP5 ADD SWAP3 SWAP2 DUP5 ADD SWAP2 PUSH1 0x1 ADD PUSH2 0xE5B JUMP JUMPDEST POP SWAP1 SWAP8 SWAP7 POP POP POP POP POP POP POP JUMP JUMPDEST PUSH1 0x20 DUP1 DUP3 MSTORE DUP3 MLOAD DUP3 DUP3 ADD DUP2 SWAP1 MSTORE PUSH1 0x0 SWAP2 SWAP1 PUSH1 0x40 SWAP1 DUP2 DUP6 ADD SWAP1 DUP7 DUP5 ADD DUP6 JUMPDEST DUP3 DUP2 LT ISZERO PUSH2 0xEEE JUMPI DUP2 MLOAD DUP1 MLOAD DUP6 MSTORE DUP7 DUP2 ADD MLOAD DUP8 DUP7 ADD MSTORE DUP6 DUP2 ADD MLOAD DUP7 DUP7 ADD MSTORE PUSH1 0x60 DUP1 DUP3 ADD MLOAD SWAP1 DUP7 ADD MSTORE PUSH1 0x80 SWAP1 DUP2 ADD MLOAD PUSH1 0x1 PUSH1 0x1 PUSH1 0xA0 SHL SUB AND SWAP1 DUP6 ADD MSTORE PUSH1 0xA0 SWAP1 SWAP4 ADD SWAP3 SWAP1 DUP6 ADD SWAP1 PUSH1 0x1 ADD PUSH2 0xEA1 JUMP JUMPDEST POP SWAP2 SWAP8 SWAP7 POP POP POP POP POP POP POP JUMP JUMPDEST PUSH1 0x20 DUP1 DUP3 MSTORE DUP2 DUP2 ADD MSTORE PUSH32 0x4F776E61626C653A2063616C6C6572206973206E6F7420746865206F776E6572 PUSH1 0x40 DUP3 ADD MSTORE PUSH1 0x60 ADD SWAP1 JUMP JUMPDEST PUSH1 0x0 DUP3 NOT DUP3 GT ISZERO PUSH2 0xF43 JUMPI PUSH2 0xF43 PUSH2 0xF9C JUMP JUMPDEST POP ADD SWAP1 JUMP JUMPDEST PUSH1 0x0 DUP3 DUP3 LT ISZERO PUSH2 0xF5A JUMPI PUSH2 0xF5A PUSH2 0xF9C JUMP JUMPDEST POP SUB SWAP1 JUMP JUMPDEST PUSH1 0x0 PUSH1 0x0 NOT DUP3 EQ ISZERO PUSH2 0xF73 JUMPI PUSH2 0xF73 PUSH2 0xF9C JUMP JUMPDEST POP PUSH1 0x1 ADD SWAP1 JUMP JUMPDEST PUSH1 0x0 DUP3 PUSH2 0xF97 JUMPI PUSH4 0x4E487B71 PUSH1 0xE0 SHL PUSH1 0x0 MSTORE PUSH1 0x12 PUSH1 0x4 MSTORE PUSH1 0x24 PUSH1 0x0 REVERT JUMPDEST POP MOD SWAP1 JUMP JUMPDEST PUSH4 0x4E487B71 PUSH1 0xE0 SHL PUSH1 0x0 MSTORE PUSH1 0x11 PUSH1 0x4 MSTORE PUSH1 0x24 PUSH1 0x0 REVERT JUMPDEST PUSH4 0x4E487B71 PUSH1 0xE0 SHL PUSH1 0x0 MSTORE PUSH1 0x31 PUSH1 0x4 MSTORE PUSH1 0x24 PUSH1 0x0 REVERT JUMPDEST PUSH4 0x4E487B71 PUSH1 0xE0 SHL PUSH1 0x0 MSTORE PUSH1 0x32 PUSH1 0x4 MSTORE PUSH1 0x24 PUSH1 0x0 REVERT JUMPDEST PUSH4 0x4E487B71 PUSH1 0xE0 SHL PUSH1 0x0 MSTORE PUSH1 0x41 PUSH1 0x4 MSTORE PUSH1 0x24 PUSH1 0x0 REVERT INVALID LOG2 PUSH5 0x6970667358 0x22 SLT KECCAK256 0xEF MUL 0xAB 0xB2 DUP11 0x4F 0xC7 0xDA SLT 0xE5 SWAP1 0xC0 0xB3 BASEFEE STATICCALL SIGNEXTEND PUSH29 0x6CC83CF09CD77358369826905FF6C464736F6C63430008070033000000 "
				},
				"gasEstimates": {
					"creation": {
						"codeDepositCost": "827600",
						"executionCost": "infinite",
						"totalCost": "infinite"
					},
					"external": {
						"acesToken()": "2382",
						"currentJackpot()": "infinite",
						"entriesIndex(address,uint256)": "4757",
						"getUniqueAddresses()": "infinite",
						"getUniqueUsers()": "infinite",
						"isActiveAccount(address)": "2594",
						"owner()": "2343",
						"pickWinner()": "infinite",
						"removeAccount(address)": "infinite",
						"removeEntryFromWallet(address,uint256)": "infinite",
						"renounceOwnership()": "28203",
						"resultLog(uint256,uint256)": "infinite",
						"roundEntries()": "2395",
						"roundEntry(uint256)": "2499",
						"roundNum()": "2330",
						"roundResults(uint256)": "11129",
						"totalPayout()": "2307",
						"transferOwnership(address)": "28397",
						"updateAccount(address,uint256)": "infinite",
						"userEntries(address)": "2593"
					},
					"internal": {
						"random()": "infinite"
					}
				},
				"methodIdentifiers": {
					"acesToken()": "9b3e4552",
					"currentJackpot()": "f9cee0bd",
					"entriesIndex(address,uint256)": "0d988270",
					"getUniqueAddresses()": "3b98bc65",
					"getUniqueUsers()": "158977de",
					"isActiveAccount(address)": "5bedc390",
					"owner()": "8da5cb5b",
					"pickWinner()": "5d495aea",
					"removeAccount(address)": "c4740a95",
					"removeEntryFromWallet(address,uint256)": "a59460dc",
					"renounceOwnership()": "715018a6",
					"resultLog(uint256,uint256)": "bc15cdf0",
					"roundEntries()": "76636d20",
					"roundEntry(uint256)": "b657dd65",
					"roundNum()": "119b22b3",
					"roundResults(uint256)": "ac128f4f",
					"totalPayout()": "454f7b8f",
					"transferOwnership(address)": "f2fde38b",
					"updateAccount(address,uint256)": "443b80a1",
					"userEntries(address)": "9f10a990"
				}
			},
			"storageLayout": {
				"storage": [
					{
						"astId": 7,
						"contract": "lotto.sol:ACELotto",
						"label": "_owner",
						"offset": 0,
						"slot": "0",
						"type": "t_address"
					},
					{
						"astId": 239,
						"contract": "lotto.sol:ACELotto",
						"label": "roundEntries",
						"offset": 0,
						"slot": "1",
						"type": "t_uint256"
					},
					{
						"astId": 241,
						"contract": "lotto.sol:ACELotto",
						"label": "roundNum",
						"offset": 0,
						"slot": "2",
						"type": "t_uint256"
					},
					{
						"astId": 243,
						"contract": "lotto.sol:ACELotto",
						"label": "totalPayout",
						"offset": 0,
						"slot": "3",
						"type": "t_uint256"
					},
					{
						"astId": 246,
						"contract": "lotto.sol:ACELotto",
						"label": "acesToken",
						"offset": 0,
						"slot": "4",
						"type": "t_contract(IERC20)182"
					},
					{
						"astId": 262,
						"contract": "lotto.sol:ACELotto",
						"label": "roundResults",
						"offset": 0,
						"slot": "5",
						"type": "t_mapping(t_uint256,t_struct(Results)257_storage)"
					},
					{
						"astId": 266,
						"contract": "lotto.sol:ACELotto",
						"label": "roundEntry",
						"offset": 0,
						"slot": "6",
						"type": "t_mapping(t_uint256,t_address)"
					},
					{
						"astId": 271,
						"contract": "lotto.sol:ACELotto",
						"label": "entriesIndex",
						"offset": 0,
						"slot": "7",
						"type": "t_mapping(t_address,t_array(t_uint256)dyn_storage)"
					}
				],
				"types": {
					"t_address": {
						"encoding": "inplace",
						"label": "address",
						"numberOfBytes": "20"
					},
					"t_array(t_uint256)dyn_storage": {
						"base": "t_uint256",
						"encoding": "dynamic_array",
						"label": "uint256[]",
						"numberOfBytes": "32"
					},
					"t_contract(IERC20)182": {
						"encoding": "inplace",
						"label": "contract IERC20",
						"numberOfBytes": "20"
					},
					"t_mapping(t_address,t_array(t_uint256)dyn_storage)": {
						"encoding": "mapping",
						"key": "t_address",
						"label": "mapping(address => uint256[])",
						"numberOfBytes": "32",
						"value": "t_array(t_uint256)dyn_storage"
					},
					"t_mapping(t_uint256,t_address)": {
						"encoding": "mapping",
						"key": "t_uint256",
						"label": "mapping(uint256 => address)",
						"numberOfBytes": "32",
						"value": "t_address"
					},
					"t_mapping(t_uint256,t_struct(Results)257_storage)": {
						"encoding": "mapping",
						"key": "t_uint256",
						"label": "mapping(uint256 => struct ACELotto.Results)",
						"numberOfBytes": "32",
						"value": "t_struct(Results)257_storage"
					},
					"t_struct(Results)257_storage": {
						"encoding": "inplace",
						"label": "struct ACELotto.Results",
						"members": [
							{
								"astId": 248,
								"contract": "lotto.sol:ACELotto",
								"label": "totalEntries",
								"offset": 0,
								"slot": "0",
								"type": "t_uint256"
							},
							{
								"astId": 250,
								"contract": "lotto.sol:ACELotto",
								"label": "winningNumber",
								"offset": 0,
								"slot": "1",
								"type": "t_uint256"
							},
							{
								"astId": 252,
								"contract": "lotto.sol:ACELotto",
								"label": "payout",
								"offset": 0,
								"slot": "2",
								"type": "t_uint256"
							},
							{
								"astId": 254,
								"contract": "lotto.sol:ACELotto",
								"label": "endTime",
								"offset": 0,
								"slot": "3",
								"type": "t_uint256"
							},
							{
								"astId": 256,
								"contract": "lotto.sol:ACELotto",
								"label": "winningAddress",
								"offset": 0,
								"slot": "4",
								"type": "t_address"
							}
						],
						"numberOfBytes": "160"
					},
					"t_uint256": {
						"encoding": "inplace",
						"label": "uint256",
						"numberOfBytes": "32"
					}
				}
			},
			"userdoc": {
				"kind": "user",
				"methods": {},
				"version": 1
			}
		}
	}
}