{
	"staking.sol": {
		"AcesStaking": {
			"abi": [
				{
					"inputs": [
						{
							"internalType": "address",
							"name": "_token",
							"type": "address"
						}
					],
					"stateMutability": "nonpayable",
					"type": "constructor"
				},
				{
					"anonymous": false,
					"inputs": [
						{
							"indexed": false,
							"internalType": "address",
							"name": "user",
							"type": "address"
						},
						{
							"indexed": false,
							"internalType": "uint256",
							"name": "class",
							"type": "uint256"
						},
						{
							"indexed": false,
							"internalType": "uint256",
							"name": "amount",
							"type": "uint256"
						}
					],
					"name": "Claim",
					"type": "event"
				},
				{
					"anonymous": false,
					"inputs": [
						{
							"indexed": false,
							"internalType": "address",
							"name": "user",
							"type": "address"
						},
						{
							"indexed": false,
							"internalType": "uint256",
							"name": "class",
							"type": "uint256"
						},
						{
							"indexed": false,
							"internalType": "uint256",
							"name": "amount",
							"type": "uint256"
						}
					],
					"name": "Compound",
					"type": "event"
				},
				{
					"anonymous": false,
					"inputs": [
						{
							"indexed": false,
							"internalType": "address",
							"name": "user",
							"type": "address"
						},
						{
							"indexed": false,
							"internalType": "uint256",
							"name": "class",
							"type": "uint256"
						},
						{
							"indexed": false,
							"internalType": "uint256",
							"name": "amount",
							"type": "uint256"
						}
					],
					"name": "Deposit",
					"type": "event"
				},
				{
					"anonymous": false,
					"inputs": [
						{
							"indexed": true,
							"internalType": "address",
							"name": "previousOwner",
							"type": "address"
						},
						{
							"indexed": true,
							"internalType": "address",
							"name": "newOwner",
							"type": "address"
						}
					],
					"name": "OwnershipTransferred",
					"type": "event"
				},
				{
					"anonymous": false,
					"inputs": [
						{
							"indexed": false,
							"internalType": "address",
							"name": "account",
							"type": "address"
						}
					],
					"name": "Paused",
					"type": "event"
				},
				{
					"anonymous": false,
					"inputs": [
						{
							"indexed": false,
							"internalType": "address",
							"name": "account",
							"type": "address"
						}
					],
					"name": "Unpaused",
					"type": "event"
				},
				{
					"anonymous": false,
					"inputs": [
						{
							"indexed": false,
							"internalType": "address",
							"name": "user",
							"type": "address"
						},
						{
							"indexed": false,
							"internalType": "uint256",
							"name": "class",
							"type": "uint256"
						},
						{
							"indexed": false,
							"internalType": "uint256",
							"name": "amount",
							"type": "uint256"
						}
					],
					"name": "Withdraw",
					"type": "event"
				},
				{
					"inputs": [],
					"name": "acceptedToken",
					"outputs": [
						{
							"internalType": "contract IERC20",
							"name": "",
							"type": "address"
						}
					],
					"stateMutability": "view",
					"type": "function"
				},
				{
					"inputs": [
						{
							"internalType": "address",
							"name": "_user",
							"type": "address"
						},
						{
							"internalType": "uint256",
							"name": "_level",
							"type": "uint256"
						}
					],
					"name": "calculateRewards",
					"outputs": [
						{
							"internalType": "uint256",
							"name": "",
							"type": "uint256"
						}
					],
					"stateMutability": "view",
					"type": "function"
				},
				{
					"inputs": [
						{
							"internalType": "uint256",
							"name": "_amount",
							"type": "uint256"
						},
						{
							"internalType": "uint256",
							"name": "_level",
							"type": "uint256"
						}
					],
					"name": "deposit",
					"outputs": [],
					"stateMutability": "nonpayable",
					"type": "function"
				},
				{
					"inputs": [
						{
							"internalType": "address",
							"name": "user",
							"type": "address"
						},
						{
							"internalType": "uint8",
							"name": "class",
							"type": "uint8"
						},
						{
							"internalType": "uint256",
							"name": "balance",
							"type": "uint256"
						}
					],
					"name": "getInterest",
					"outputs": [
						{
							"internalType": "uint256",
							"name": "",
							"type": "uint256"
						}
					],
					"stateMutability": "view",
					"type": "function"
				},
				{
					"inputs": [],
					"name": "owner",
					"outputs": [
						{
							"internalType": "address",
							"name": "",
							"type": "address"
						}
					],
					"stateMutability": "view",
					"type": "function"
				},
				{
					"inputs": [],
					"name": "pause",
					"outputs": [],
					"stateMutability": "nonpayable",
					"type": "function"
				},
				{
					"inputs": [],
					"name": "paused",
					"outputs": [
						{
							"internalType": "bool",
							"name": "",
							"type": "bool"
						}
					],
					"stateMutability": "view",
					"type": "function"
				},
				{
					"inputs": [],
					"name": "renounceOwnership",
					"outputs": [],
					"stateMutability": "nonpayable",
					"type": "function"
				},
				{
					"inputs": [
						{
							"internalType": "address",
							"name": "newOwner",
							"type": "address"
						}
					],
					"name": "transferOwnership",
					"outputs": [],
					"stateMutability": "nonpayable",
					"type": "function"
				},
				{
					"inputs": [],
					"name": "unpause",
					"outputs": [],
					"stateMutability": "nonpayable",
					"type": "function"
				},
				{
					"inputs": [
						{
							"internalType": "uint256",
							"name": "_amount",
							"type": "uint256"
						},
						{
							"internalType": "uint256",
							"name": "_level",
							"type": "uint256"
						}
					],
					"name": "withdraw",
					"outputs": [],
					"stateMutability": "nonpayable",
					"type": "function"
				}
			],
			"devdoc": {
				"kind": "dev",
				"methods": {
					"owner()": {
						"details": "Returns the address of the current owner."
					},
					"paused()": {
						"details": "Returns true if the contract is paused, and false otherwise."
					},
					"renounceOwnership()": {
						"details": "Leaves the contract without owner. It will not be possible to call `onlyOwner` functions anymore. Can only be called by the current owner. NOTE: Renouncing ownership will leave the contract without an owner, thereby removing any functionality that is only available to the owner."
					},
					"transferOwnership(address)": {
						"details": "Transfers ownership of the contract to a new account (`newOwner`). Can only be called by the current owner."
					}
				},
				"version": 1
			},
			"evm": {
				"assembly": "    /* \"staking.sol\":224:3212  contract AcesStaking is Ownable, Pausable {... */\n  mstore(0x40, 0x80)\n    /* \"staking.sol\":1052:1128  constructor(address _token ) {... */\n  callvalue\n  dup1\n  iszero\n  tag_1\n  jumpi\n  0x00\n  dup1\n  revert\ntag_1:\n  pop\n  mload(0x40)\n  sub(codesize, bytecodeSize)\n  dup1\n  bytecodeSize\n  dup4\n  codecopy\n  dup2\n  dup2\n  add\n  0x40\n  mstore\n  dup2\n  add\n  swap1\n  tag_2\n  swap2\n  swap1\n  tag_3\n  jump\t// in\ntag_2:\n    /* \"@openzeppelin/contracts/access/Ownable.sol\":921:953  _transferOwnership(_msgSender()) */\n  tag_8\n    /* \"@openzeppelin/contracts/access/Ownable.sol\":940:952  _msgSender() */\n  tag_9\n    /* \"@openzeppelin/contracts/access/Ownable.sol\":940:950  _msgSender */\n  shl(0x20, tag_10)\n    /* \"@openzeppelin/contracts/access/Ownable.sol\":940:952  _msgSender() */\n  0x20\n  shr\n  jump\t// in\ntag_9:\n    /* \"@openzeppelin/contracts/access/Ownable.sol\":921:939  _transferOwnership */\n  shl(0x20, tag_11)\n    /* \"@openzeppelin/contracts/access/Ownable.sol\":921:953  _transferOwnership(_msgSender()) */\n  0x20\n  shr\n  jump\t// in\ntag_8:\n    /* \"@openzeppelin/contracts/security/Pausable.sol\":991:996  false */\n  0x00\n    /* \"@openzeppelin/contracts/security/Pausable.sol\":981:988  _paused */\n  dup1\n  0x14\n    /* \"@openzeppelin/contracts/security/Pausable.sol\":981:996  _paused = false */\n  0x0100\n  exp\n  dup2\n  sload\n  dup2\n  0xff\n  mul\n  not\n  and\n  swap1\n  dup4\n  iszero\n  iszero\n  mul\n  or\n  swap1\n  sstore\n  pop\n    /* \"staking.sol\":1114:1120  _token */\n  dup1\n    /* \"staking.sol\":1091:1104  acceptedToken */\n  0x01\n  0x00\n    /* \"staking.sol\":1091:1121  acceptedToken = IERC20(_token) */\n  0x0100\n  exp\n  dup2\n  sload\n  dup2\n  0xffffffffffffffffffffffffffffffffffffffff\n  mul\n  not\n  and\n  swap1\n  dup4\n  0xffffffffffffffffffffffffffffffffffffffff\n  and\n  mul\n  or\n  swap1\n  sstore\n  pop\n    /* \"staking.sol\":1052:1128  constructor(address _token ) {... */\n  pop\n    /* \"staking.sol\":224:3212  contract AcesStaking is Ownable, Pausable {... */\n  jump(tag_14)\n    /* \"@openzeppelin/contracts/utils/Context.sol\":640:736  function _msgSender() internal view virtual returns (address) {... */\ntag_10:\n    /* \"@openzeppelin/contracts/utils/Context.sol\":693:700  address */\n  0x00\n    /* \"@openzeppelin/contracts/utils/Context.sol\":719:729  msg.sender */\n  caller\n    /* \"@openzeppelin/contracts/utils/Context.sol\":712:729  return msg.sender */\n  swap1\n  pop\n    /* \"@openzeppelin/contracts/utils/Context.sol\":640:736  function _msgSender() internal view virtual returns (address) {... */\n  swap1\n  jump\t// out\n    /* \"@openzeppelin/contracts/access/Ownable.sol\":2270:2457  function _transferOwnership(address newOwner) internal virtual {... */\ntag_11:\n    /* \"@openzeppelin/contracts/access/Ownable.sol\":2343:2359  address oldOwner */\n  0x00\n    /* \"@openzeppelin/contracts/access/Ownable.sol\":2362:2368  _owner */\n  dup1\n  0x00\n  swap1\n  sload\n  swap1\n  0x0100\n  exp\n  swap1\n  div\n  0xffffffffffffffffffffffffffffffffffffffff\n  and\n    /* \"@openzeppelin/contracts/access/Ownable.sol\":2343:2368  address oldOwner = _owner */\n  swap1\n  pop\n    /* \"@openzeppelin/contracts/access/Ownable.sol\":2387:2395  newOwner */\n  dup2\n    /* \"@openzeppelin/contracts/access/Ownable.sol\":2378:2384  _owner */\n  0x00\n  dup1\n    /* \"@openzeppelin/contracts/access/Ownable.sol\":2378:2395  _owner = newOwner */\n  0x0100\n  exp\n  dup2\n  sload\n  dup2\n  0xffffffffffffffffffffffffffffffffffffffff\n  mul\n  not\n  and\n  swap1\n  dup4\n  0xffffffffffffffffffffffffffffffffffffffff\n  and\n  mul\n  or\n  swap1\n  sstore\n  pop\n    /* \"@openzeppelin/contracts/access/Ownable.sol\":2441:2449  newOwner */\n  dup2\n    /* \"@openzeppelin/contracts/access/Ownable.sol\":2410:2450  OwnershipTransferred(oldOwner, newOwner) */\n  0xffffffffffffffffffffffffffffffffffffffff\n  and\n    /* \"@openzeppelin/contracts/access/Ownable.sol\":2431:2439  oldOwner */\n  dup2\n    /* \"@openzeppelin/contracts/access/Ownable.sol\":2410:2450  OwnershipTransferred(oldOwner, newOwner) */\n  0xffffffffffffffffffffffffffffffffffffffff\n  and\n  0x8be0079c531659141344cd1fd0a4f28419497f9722a3daafe3b4186f6b6457e0\n  mload(0x40)\n  mload(0x40)\n  dup1\n  swap2\n  sub\n  swap1\n  log3\n    /* \"@openzeppelin/contracts/access/Ownable.sol\":2333:2457  {... */\n  pop\n    /* \"@openzeppelin/contracts/access/Ownable.sol\":2270:2457  function _transferOwnership(address newOwner) internal virtual {... */\n  pop\n  jump\t// out\n    /* \"#utility.yul\":7:150   */\ntag_18:\n    /* \"#utility.yul\":64:69   */\n  0x00\n    /* \"#utility.yul\":95:101   */\n  dup2\n    /* \"#utility.yul\":89:102   */\n  mload\n    /* \"#utility.yul\":80:102   */\n  swap1\n  pop\n    /* \"#utility.yul\":111:144   */\n  tag_20\n    /* \"#utility.yul\":138:143   */\n  dup2\n    /* \"#utility.yul\":111:144   */\n  tag_21\n  jump\t// in\ntag_20:\n    /* \"#utility.yul\":7:150   */\n  swap3\n  swap2\n  pop\n  pop\n  jump\t// out\n    /* \"#utility.yul\":156:507   */\ntag_3:\n    /* \"#utility.yul\":226:232   */\n  0x00\n    /* \"#utility.yul\":275:277   */\n  0x20\n    /* \"#utility.yul\":263:272   */\n  dup3\n    /* \"#utility.yul\":254:261   */\n  dup5\n    /* \"#utility.yul\":250:273   */\n  sub\n    /* \"#utility.yul\":246:278   */\n  slt\n    /* \"#utility.yul\":243:362   */\n  iszero\n  tag_23\n  jumpi\n    /* \"#utility.yul\":281:360   */\n  tag_24\n  tag_25\n  jump\t// in\ntag_24:\n    /* \"#utility.yul\":243:362   */\ntag_23:\n    /* \"#utility.yul\":401:402   */\n  0x00\n    /* \"#utility.yul\":426:490   */\n  tag_26\n    /* \"#utility.yul\":482:489   */\n  dup5\n    /* \"#utility.yul\":473:479   */\n  dup3\n    /* \"#utility.yul\":462:471   */\n  dup6\n    /* \"#utility.yul\":458:480   */\n  add\n    /* \"#utility.yul\":426:490   */\n  tag_18\n  jump\t// in\ntag_26:\n    /* \"#utility.yul\":416:490   */\n  swap2\n  pop\n    /* \"#utility.yul\":372:500   */\n  pop\n    /* \"#utility.yul\":156:507   */\n  swap3\n  swap2\n  pop\n  pop\n  jump\t// out\n    /* \"#utility.yul\":594:690   */\ntag_29:\n    /* \"#utility.yul\":631:638   */\n  0x00\n    /* \"#utility.yul\":660:684   */\n  tag_31\n    /* \"#utility.yul\":678:683   */\n  dup3\n    /* \"#utility.yul\":660:684   */\n  tag_32\n  jump\t// in\ntag_31:\n    /* \"#utility.yul\":649:684   */\n  swap1\n  pop\n    /* \"#utility.yul\":594:690   */\n  swap2\n  swap1\n  pop\n  jump\t// out\n    /* \"#utility.yul\":696:822   */\ntag_32:\n    /* \"#utility.yul\":733:740   */\n  0x00\n    /* \"#utility.yul\":773:815   */\n  0xffffffffffffffffffffffffffffffffffffffff\n    /* \"#utility.yul\":766:771   */\n  dup3\n    /* \"#utility.yul\":762:816   */\n  and\n    /* \"#utility.yul\":751:816   */\n  swap1\n  pop\n    /* \"#utility.yul\":696:822   */\n  swap2\n  swap1\n  pop\n  jump\t// out\n    /* \"#utility.yul\":951:1068   */\ntag_25:\n    /* \"#utility.yul\":1060:1061   */\n  0x00\n    /* \"#utility.yul\":1057:1058   */\n  dup1\n    /* \"#utility.yul\":1050:1062   */\n  revert\n    /* \"#utility.yul\":1074:1196   */\ntag_21:\n    /* \"#utility.yul\":1147:1171   */\n  tag_38\n    /* \"#utility.yul\":1165:1170   */\n  dup2\n    /* \"#utility.yul\":1147:1171   */\n  tag_29\n  jump\t// in\ntag_38:\n    /* \"#utility.yul\":1140:1145   */\n  dup2\n    /* \"#utility.yul\":1137:1172   */\n  eq\n    /* \"#utility.yul\":1127:1190   */\n  tag_39\n  jumpi\n    /* \"#utility.yul\":1186:1187   */\n  0x00\n    /* \"#utility.yul\":1183:1184   */\n  dup1\n    /* \"#utility.yul\":1176:1188   */\n  revert\n    /* \"#utility.yul\":1127:1190   */\ntag_39:\n    /* \"#utility.yul\":1074:1196   */\n  pop\n  jump\t// out\n    /* \"staking.sol\":224:3212  contract AcesStaking is Ownable, Pausable {... */\ntag_14:\n  dataSize(sub_0)\n  dup1\n  dataOffset(sub_0)\n  0x00\n  codecopy\n  0x00\n  return\nstop\n\nsub_0: assembly {\n        /* \"staking.sol\":224:3212  contract AcesStaking is Ownable, Pausable {... */\n      mstore(0x40, 0x80)\n      callvalue\n      dup1\n      iszero\n      tag_1\n      jumpi\n      0x00\n      dup1\n      revert\n    tag_1:\n      pop\n      jumpi(tag_2, lt(calldatasize, 0x04))\n      shr(0xe0, calldataload(0x00))\n      dup1\n      0x715018a6\n      gt\n      tag_14\n      jumpi\n      dup1\n      0x715018a6\n      eq\n      tag_8\n      jumpi\n      dup1\n      0x8456cb59\n      eq\n      tag_9\n      jumpi\n      dup1\n      0x8da5cb5b\n      eq\n      tag_10\n      jumpi\n      dup1\n      0xbeb8314c\n      eq\n      tag_11\n      jumpi\n      dup1\n      0xe2bbb158\n      eq\n      tag_12\n      jumpi\n      dup1\n      0xf2fde38b\n      eq\n      tag_13\n      jumpi\n      jump(tag_2)\n    tag_14:\n      dup1\n      0x3f4ba83a\n      eq\n      tag_3\n      jumpi\n      dup1\n      0x441a3e70\n      eq\n      tag_4\n      jumpi\n      dup1\n      0x451c3d80\n      eq\n      tag_5\n      jumpi\n      dup1\n      0x5c975abb\n      eq\n      tag_6\n      jumpi\n      dup1\n      0x69e06848\n      eq\n      tag_7\n      jumpi\n    tag_2:\n      0x00\n      dup1\n      revert\n        /* \"staking.sol\":1249:1313  function unpause () public onlyOwner {... */\n    tag_3:\n      tag_15\n      tag_16\n      jump\t// in\n    tag_15:\n      stop\n        /* \"staking.sol\":2053:2621  function withdraw (uint256 _amount, uint256 _level) public  {... */\n    tag_4:\n      tag_17\n      0x04\n      dup1\n      calldatasize\n      sub\n      dup2\n      add\n      swap1\n      tag_18\n      swap2\n      swap1\n      tag_19\n      jump\t// in\n    tag_18:\n      tag_20\n      jump\t// in\n    tag_17:\n      stop\n        /* \"staking.sol\":317:344  IERC20 public acceptedToken */\n    tag_5:\n      tag_21\n      tag_22\n      jump\t// in\n    tag_21:\n      mload(0x40)\n      tag_23\n      swap2\n      swap1\n      tag_24\n      jump\t// in\n    tag_23:\n      mload(0x40)\n      dup1\n      swap2\n      sub\n      swap1\n      return\n        /* \"@openzeppelin/contracts/security/Pausable.sol\":1098:1182  function paused() public view virtual returns (bool) {... */\n    tag_6:\n      tag_25\n      tag_26\n      jump\t// in\n    tag_25:\n      mload(0x40)\n      tag_27\n      swap2\n      swap1\n      tag_28\n      jump\t// in\n    tag_27:\n      mload(0x40)\n      dup1\n      swap2\n      sub\n      swap1\n      return\n        /* \"staking.sol\":2627:2737  function getInterest (address user, uint8 class, uint256 balance) public view returns (uint256){... */\n    tag_7:\n      tag_29\n      0x04\n      dup1\n      calldatasize\n      sub\n      dup2\n      add\n      swap1\n      tag_30\n      swap2\n      swap1\n      tag_31\n      jump\t// in\n    tag_30:\n      tag_32\n      jump\t// in\n    tag_29:\n      mload(0x40)\n      tag_33\n      swap2\n      swap1\n      tag_34\n      jump\t// in\n    tag_33:\n      mload(0x40)\n      dup1\n      swap2\n      sub\n      swap1\n      return\n        /* \"@openzeppelin/contracts/access/Ownable.sol\":1668:1769  function renounceOwnership() public virtual onlyOwner {... */\n    tag_8:\n      tag_35\n      tag_36\n      jump\t// in\n    tag_35:\n      stop\n        /* \"staking.sol\":1179:1239  function pause () public onlyOwner {... */\n    tag_9:\n      tag_37\n      tag_38\n      jump\t// in\n    tag_37:\n      stop\n        /* \"@openzeppelin/contracts/access/Ownable.sol\":1036:1121  function owner() public view virtual returns (address) {... */\n    tag_10:\n      tag_39\n      tag_40\n      jump\t// in\n    tag_39:\n      mload(0x40)\n      tag_41\n      swap2\n      swap1\n      tag_42\n      jump\t// in\n    tag_41:\n      mload(0x40)\n      dup1\n      swap2\n      sub\n      swap1\n      return\n        /* \"staking.sol\":2743:3206  function calculateRewards (address _user, uint256 _level) public view returns (uint256){... */\n    tag_11:\n      tag_43\n      0x04\n      dup1\n      calldatasize\n      sub\n      dup2\n      add\n      swap1\n      tag_44\n      swap2\n      swap1\n      tag_45\n      jump\t// in\n    tag_44:\n      tag_46\n      jump\t// in\n    tag_43:\n      mload(0x40)\n      tag_47\n      swap2\n      swap1\n      tag_34\n      jump\t// in\n    tag_47:\n      mload(0x40)\n      dup1\n      swap2\n      sub\n      swap1\n      return\n        /* \"staking.sol\":1549:2047  function deposit (uint256 _amount, uint256 _level) public whenNotPaused {... */\n    tag_12:\n      tag_48\n      0x04\n      dup1\n      calldatasize\n      sub\n      dup2\n      add\n      swap1\n      tag_49\n      swap2\n      swap1\n      tag_19\n      jump\t// in\n    tag_49:\n      tag_50\n      jump\t// in\n    tag_48:\n      stop\n        /* \"@openzeppelin/contracts/access/Ownable.sol\":1918:2116  function transferOwnership(address newOwner) public virtual onlyOwner {... */\n    tag_13:\n      tag_51\n      0x04\n      dup1\n      calldatasize\n      sub\n      dup2\n      add\n      swap1\n      tag_52\n      swap2\n      swap1\n      tag_53\n      jump\t// in\n    tag_52:\n      tag_54\n      jump\t// in\n    tag_51:\n      stop\n        /* \"staking.sol\":1249:1313  function unpause () public onlyOwner {... */\n    tag_16:\n        /* \"@openzeppelin/contracts/access/Ownable.sol\":1259:1271  _msgSender() */\n      tag_56\n        /* \"@openzeppelin/contracts/access/Ownable.sol\":1259:1269  _msgSender */\n      tag_57\n        /* \"@openzeppelin/contracts/access/Ownable.sol\":1259:1271  _msgSender() */\n      jump\t// in\n    tag_56:\n        /* \"@openzeppelin/contracts/access/Ownable.sol\":1248:1271  owner() == _msgSender() */\n      0xffffffffffffffffffffffffffffffffffffffff\n      and\n        /* \"@openzeppelin/contracts/access/Ownable.sol\":1248:1255  owner() */\n      tag_58\n        /* \"@openzeppelin/contracts/access/Ownable.sol\":1248:1253  owner */\n      tag_40\n        /* \"@openzeppelin/contracts/access/Ownable.sol\":1248:1255  owner() */\n      jump\t// in\n    tag_58:\n        /* \"@openzeppelin/contracts/access/Ownable.sol\":1248:1271  owner() == _msgSender() */\n      0xffffffffffffffffffffffffffffffffffffffff\n      and\n      eq\n        /* \"@openzeppelin/contracts/access/Ownable.sol\":1240:1308  require(owner() == _msgSender(), \"Ownable: caller is not the owner\") */\n      tag_59\n      jumpi\n      mload(0x40)\n      0x08c379a000000000000000000000000000000000000000000000000000000000\n      dup2\n      mstore\n      0x04\n      add\n      tag_60\n      swap1\n      tag_61\n      jump\t// in\n    tag_60:\n      mload(0x40)\n      dup1\n      swap2\n      sub\n      swap1\n      revert\n    tag_59:\n        /* \"staking.sol\":1296:1306  _unpause() */\n      tag_63\n        /* \"staking.sol\":1296:1304  _unpause */\n      tag_64\n        /* \"staking.sol\":1296:1306  _unpause() */\n      jump\t// in\n    tag_63:\n        /* \"staking.sol\":1249:1313  function unpause () public onlyOwner {... */\n      jump\t// out\n        /* \"staking.sol\":2053:2621  function withdraw (uint256 _amount, uint256 _level) public  {... */\n    tag_20:\n        /* \"staking.sol\":2123:2141  address _msgSender */\n      0x00\n        /* \"staking.sol\":2144:2154  msg.sender */\n      caller\n        /* \"staking.sol\":2123:2154  address _msgSender = msg.sender */\n      swap1\n      pop\n        /* \"staking.sol\":2220:2227  _amount */\n      dup3\n        /* \"staking.sol\":2172:2188  userLevelDeposit */\n      0x02\n        /* \"staking.sol\":2172:2200  userLevelDeposit[_msgSender] */\n      0x00\n        /* \"staking.sol\":2189:2199  _msgSender */\n      dup4\n        /* \"staking.sol\":2172:2200  userLevelDeposit[_msgSender] */\n      0xffffffffffffffffffffffffffffffffffffffff\n      and\n      0xffffffffffffffffffffffffffffffffffffffff\n      and\n      dup2\n      mstore\n      0x20\n      add\n      swap1\n      dup2\n      mstore\n      0x20\n      add\n      0x00\n      keccak256\n        /* \"staking.sol\":2172:2208  userLevelDeposit[_msgSender][_level] */\n      0x00\n        /* \"staking.sol\":2201:2207  _level */\n      dup5\n        /* \"staking.sol\":2172:2208  userLevelDeposit[_msgSender][_level] */\n      dup2\n      mstore\n      0x20\n      add\n      swap1\n      dup2\n      mstore\n      0x20\n      add\n      0x00\n      keccak256\n        /* \"staking.sol\":2172:2216  userLevelDeposit[_msgSender][_level].balance */\n      0x00\n      add\n      sload\n        /* \"staking.sol\":2172:2227  userLevelDeposit[_msgSender][_level].balance >= _amount */\n      lt\n      iszero\n        /* \"staking.sol\":2164:2250  require(userLevelDeposit[_msgSender][_level].balance >= _amount, \"Not enough deposit\") */\n      tag_66\n      jumpi\n      mload(0x40)\n      0x08c379a000000000000000000000000000000000000000000000000000000000\n      dup2\n      mstore\n      0x04\n      add\n      tag_67\n      swap1\n      tag_68\n      jump\t// in\n    tag_67:\n      mload(0x40)\n      dup1\n      swap2\n      sub\n      swap1\n      revert\n    tag_66:\n        /* \"staking.sol\":2319:2334  block.timestamp */\n      timestamp\n        /* \"staking.sol\":2268:2284  userLevelDeposit */\n      0x02\n        /* \"staking.sol\":2268:2296  userLevelDeposit[_msgSender] */\n      0x00\n        /* \"staking.sol\":2285:2295  _msgSender */\n      dup4\n        /* \"staking.sol\":2268:2296  userLevelDeposit[_msgSender] */\n      0xffffffffffffffffffffffffffffffffffffffff\n      and\n      0xffffffffffffffffffffffffffffffffffffffff\n      and\n      dup2\n      mstore\n      0x20\n      add\n      swap1\n      dup2\n      mstore\n      0x20\n      add\n      0x00\n      keccak256\n        /* \"staking.sol\":2268:2304  userLevelDeposit[_msgSender][_level] */\n      0x00\n        /* \"staking.sol\":2297:2303  _level */\n      dup5\n        /* \"staking.sol\":2268:2304  userLevelDeposit[_msgSender][_level] */\n      dup2\n      mstore\n      0x20\n      add\n      swap1\n      dup2\n      mstore\n      0x20\n      add\n      0x00\n      keccak256\n        /* \"staking.sol\":2268:2315  userLevelDeposit[_msgSender][_level].unlockTime */\n      0x02\n      add\n      sload\n        /* \"staking.sol\":2268:2334  userLevelDeposit[_msgSender][_level].unlockTime <= block.timestamp */\n      gt\n      iszero\n        /* \"staking.sol\":2260:2363  require(userLevelDeposit[_msgSender][_level].unlockTime <= block.timestamp, \"Deposit not unlocked yet\") */\n      tag_69\n      jumpi\n      mload(0x40)\n      0x08c379a000000000000000000000000000000000000000000000000000000000\n      dup2\n      mstore\n      0x04\n      add\n      tag_70\n      swap1\n      tag_71\n      jump\t// in\n    tag_70:\n      mload(0x40)\n      dup1\n      swap2\n      sub\n      swap1\n      revert\n    tag_69:\n        /* \"staking.sol\":2374:2389  uint256 rewards */\n      0x00\n        /* \"staking.sol\":2392:2428  calculateRewards(_msgSender, _level) */\n      tag_72\n        /* \"staking.sol\":2409:2419  _msgSender */\n      dup3\n        /* \"staking.sol\":2421:2427  _level */\n      dup5\n        /* \"staking.sol\":2392:2408  calculateRewards */\n      tag_46\n        /* \"staking.sol\":2392:2428  calculateRewards(_msgSender, _level) */\n      jump\t// in\n    tag_72:\n        /* \"staking.sol\":2374:2428  uint256 rewards = calculateRewards(_msgSender, _level) */\n      swap1\n      pop\n        /* \"staking.sol\":2495:2502  _amount */\n      dup4\n        /* \"staking.sol\":2447:2463  userLevelDeposit */\n      0x02\n        /* \"staking.sol\":2447:2475  userLevelDeposit[_msgSender] */\n      0x00\n        /* \"staking.sol\":2464:2474  _msgSender */\n      dup5\n        /* \"staking.sol\":2447:2475  userLevelDeposit[_msgSender] */\n      0xffffffffffffffffffffffffffffffffffffffff\n      and\n      0xffffffffffffffffffffffffffffffffffffffff\n      and\n      dup2\n      mstore\n      0x20\n      add\n      swap1\n      dup2\n      mstore\n      0x20\n      add\n      0x00\n      keccak256\n        /* \"staking.sol\":2447:2483  userLevelDeposit[_msgSender][_level] */\n      0x00\n        /* \"staking.sol\":2476:2482  _level */\n      dup6\n        /* \"staking.sol\":2447:2483  userLevelDeposit[_msgSender][_level] */\n      dup2\n      mstore\n      0x20\n      add\n      swap1\n      dup2\n      mstore\n      0x20\n      add\n      0x00\n      keccak256\n        /* \"staking.sol\":2447:2491  userLevelDeposit[_msgSender][_level].balance */\n      0x00\n      add\n      0x00\n        /* \"staking.sol\":2447:2502  userLevelDeposit[_msgSender][_level].balance -= _amount */\n      dup3\n      dup3\n      sload\n      tag_73\n      swap2\n      swap1\n      tag_74\n      jump\t// in\n    tag_73:\n      swap3\n      pop\n      pop\n      dup2\n      swap1\n      sstore\n      pop\n        /* \"staking.sol\":2513:2526  acceptedToken */\n      0x01\n      0x00\n      swap1\n      sload\n      swap1\n      0x0100\n      exp\n      swap1\n      div\n      0xffffffffffffffffffffffffffffffffffffffff\n      and\n        /* \"staking.sol\":2513:2535  acceptedToken.transfer */\n      0xffffffffffffffffffffffffffffffffffffffff\n      and\n      0xa9059cbb\n        /* \"staking.sol\":2536:2546  _msgSender */\n      dup4\n        /* \"staking.sol\":2558:2565  rewards */\n      dup4\n        /* \"staking.sol\":2548:2555  _amount */\n      dup8\n        /* \"staking.sol\":2548:2565  _amount + rewards */\n      tag_75\n      swap2\n      swap1\n      tag_76\n      jump\t// in\n    tag_75:\n        /* \"staking.sol\":2513:2566  acceptedToken.transfer(_msgSender, _amount + rewards) */\n      mload(0x40)\n      dup4\n      0xffffffff\n      and\n      0xe0\n      shl\n      dup2\n      mstore\n      0x04\n      add\n      tag_77\n      swap3\n      swap2\n      swap1\n      tag_78\n      jump\t// in\n    tag_77:\n      0x20\n      mload(0x40)\n      dup1\n      dup4\n      sub\n      dup2\n      0x00\n      dup8\n      dup1\n      extcodesize\n      iszero\n      dup1\n      iszero\n      tag_79\n      jumpi\n      0x00\n      dup1\n      revert\n    tag_79:\n      pop\n      gas\n      call\n      iszero\n      dup1\n      iszero\n      tag_81\n      jumpi\n      returndatasize\n      0x00\n      dup1\n      returndatacopy\n      revert(0x00, returndatasize)\n    tag_81:\n      pop\n      pop\n      pop\n      pop\n      mload(0x40)\n      returndatasize\n      not(0x1f)\n      0x1f\n      dup3\n      add\n      and\n      dup3\n      add\n      dup1\n      0x40\n      mstore\n      pop\n      dup2\n      add\n      swap1\n      tag_82\n      swap2\n      swap1\n      tag_83\n      jump\t// in\n    tag_82:\n      pop\n        /* \"staking.sol\":2582:2614  Withdraw(_msgSender, 0, _amount) */\n      0xf279e6a1f5e320cca91135676d9cb6e44ca8a08c0b88342bcdb1144f6511b568\n        /* \"staking.sol\":2591:2601  _msgSender */\n      dup3\n        /* \"staking.sol\":2603:2604  0 */\n      0x00\n        /* \"staking.sol\":2606:2613  _amount */\n      dup7\n        /* \"staking.sol\":2582:2614  Withdraw(_msgSender, 0, _amount) */\n      mload(0x40)\n      tag_84\n      swap4\n      swap3\n      swap2\n      swap1\n      tag_85\n      jump\t// in\n    tag_84:\n      mload(0x40)\n      dup1\n      swap2\n      sub\n      swap1\n      log1\n        /* \"staking.sol\":2113:2621  {... */\n      pop\n      pop\n        /* \"staking.sol\":2053:2621  function withdraw (uint256 _amount, uint256 _level) public  {... */\n      pop\n      pop\n      jump\t// out\n        /* \"staking.sol\":317:344  IERC20 public acceptedToken */\n    tag_22:\n      0x01\n      0x00\n      swap1\n      sload\n      swap1\n      0x0100\n      exp\n      swap1\n      div\n      0xffffffffffffffffffffffffffffffffffffffff\n      and\n      dup2\n      jump\t// out\n        /* \"@openzeppelin/contracts/security/Pausable.sol\":1098:1182  function paused() public view virtual returns (bool) {... */\n    tag_26:\n        /* \"@openzeppelin/contracts/security/Pausable.sol\":1145:1149  bool */\n      0x00\n        /* \"@openzeppelin/contracts/security/Pausable.sol\":1168:1175  _paused */\n      dup1\n      0x14\n      swap1\n      sload\n      swap1\n      0x0100\n      exp\n      swap1\n      div\n      0xff\n      and\n        /* \"@openzeppelin/contracts/security/Pausable.sol\":1161:1175  return _paused */\n      swap1\n      pop\n        /* \"@openzeppelin/contracts/security/Pausable.sol\":1098:1182  function paused() public view virtual returns (bool) {... */\n      swap1\n      jump\t// out\n        /* \"staking.sol\":2627:2737  function getInterest (address user, uint8 class, uint256 balance) public view returns (uint256){... */\n    tag_32:\n        /* \"staking.sol\":2714:2721  uint256 */\n      0x00\n        /* \"staking.sol\":2627:2737  function getInterest (address user, uint8 class, uint256 balance) public view returns (uint256){... */\n      swap4\n      swap3\n      pop\n      pop\n      pop\n      jump\t// out\n        /* \"@openzeppelin/contracts/access/Ownable.sol\":1668:1769  function renounceOwnership() public virtual onlyOwner {... */\n    tag_36:\n        /* \"@openzeppelin/contracts/access/Ownable.sol\":1259:1271  _msgSender() */\n      tag_89\n        /* \"@openzeppelin/contracts/access/Ownable.sol\":1259:1269  _msgSender */\n      tag_57\n        /* \"@openzeppelin/contracts/access/Ownable.sol\":1259:1271  _msgSender() */\n      jump\t// in\n    tag_89:\n        /* \"@openzeppelin/contracts/access/Ownable.sol\":1248:1271  owner() == _msgSender() */\n      0xffffffffffffffffffffffffffffffffffffffff\n      and\n        /* \"@openzeppelin/contracts/access/Ownable.sol\":1248:1255  owner() */\n      tag_90\n        /* \"@openzeppelin/contracts/access/Ownable.sol\":1248:1253  owner */\n      tag_40\n        /* \"@openzeppelin/contracts/access/Ownable.sol\":1248:1255  owner() */\n      jump\t// in\n    tag_90:\n        /* \"@openzeppelin/contracts/access/Ownable.sol\":1248:1271  owner() == _msgSender() */\n      0xffffffffffffffffffffffffffffffffffffffff\n      and\n      eq\n        /* \"@openzeppelin/contracts/access/Ownable.sol\":1240:1308  require(owner() == _msgSender(), \"Ownable: caller is not the owner\") */\n      tag_91\n      jumpi\n      mload(0x40)\n      0x08c379a000000000000000000000000000000000000000000000000000000000\n      dup2\n      mstore\n      0x04\n      add\n      tag_92\n      swap1\n      tag_61\n      jump\t// in\n    tag_92:\n      mload(0x40)\n      dup1\n      swap2\n      sub\n      swap1\n      revert\n    tag_91:\n        /* \"@openzeppelin/contracts/access/Ownable.sol\":1732:1762  _transferOwnership(address(0)) */\n      tag_94\n        /* \"@openzeppelin/contracts/access/Ownable.sol\":1759:1760  0 */\n      0x00\n        /* \"@openzeppelin/contracts/access/Ownable.sol\":1732:1750  _transferOwnership */\n      tag_95\n        /* \"@openzeppelin/contracts/access/Ownable.sol\":1732:1762  _transferOwnership(address(0)) */\n      jump\t// in\n    tag_94:\n        /* \"@openzeppelin/contracts/access/Ownable.sol\":1668:1769  function renounceOwnership() public virtual onlyOwner {... */\n      jump\t// out\n        /* \"staking.sol\":1179:1239  function pause () public onlyOwner {... */\n    tag_38:\n        /* \"@openzeppelin/contracts/access/Ownable.sol\":1259:1271  _msgSender() */\n      tag_97\n        /* \"@openzeppelin/contracts/access/Ownable.sol\":1259:1269  _msgSender */\n      tag_57\n        /* \"@openzeppelin/contracts/access/Ownable.sol\":1259:1271  _msgSender() */\n      jump\t// in\n    tag_97:\n        /* \"@openzeppelin/contracts/access/Ownable.sol\":1248:1271  owner() == _msgSender() */\n      0xffffffffffffffffffffffffffffffffffffffff\n      and\n        /* \"@openzeppelin/contracts/access/Ownable.sol\":1248:1255  owner() */\n      tag_98\n        /* \"@openzeppelin/contracts/access/Ownable.sol\":1248:1253  owner */\n      tag_40\n        /* \"@openzeppelin/contracts/access/Ownable.sol\":1248:1255  owner() */\n      jump\t// in\n    tag_98:\n        /* \"@openzeppelin/contracts/access/Ownable.sol\":1248:1271  owner() == _msgSender() */\n      0xffffffffffffffffffffffffffffffffffffffff\n      and\n      eq\n        /* \"@openzeppelin/contracts/access/Ownable.sol\":1240:1308  require(owner() == _msgSender(), \"Ownable: caller is not the owner\") */\n      tag_99\n      jumpi\n      mload(0x40)\n      0x08c379a000000000000000000000000000000000000000000000000000000000\n      dup2\n      mstore\n      0x04\n      add\n      tag_100\n      swap1\n      tag_61\n      jump\t// in\n    tag_100:\n      mload(0x40)\n      dup1\n      swap2\n      sub\n      swap1\n      revert\n    tag_99:\n        /* \"staking.sol\":1224:1232  _pause() */\n      tag_102\n        /* \"staking.sol\":1224:1230  _pause */\n      tag_103\n        /* \"staking.sol\":1224:1232  _pause() */\n      jump\t// in\n    tag_102:\n        /* \"staking.sol\":1179:1239  function pause () public onlyOwner {... */\n      jump\t// out\n        /* \"@openzeppelin/contracts/access/Ownable.sol\":1036:1121  function owner() public view virtual returns (address) {... */\n    tag_40:\n        /* \"@openzeppelin/contracts/access/Ownable.sol\":1082:1089  address */\n      0x00\n        /* \"@openzeppelin/contracts/access/Ownable.sol\":1108:1114  _owner */\n      dup1\n      0x00\n      swap1\n      sload\n      swap1\n      0x0100\n      exp\n      swap1\n      div\n      0xffffffffffffffffffffffffffffffffffffffff\n      and\n        /* \"@openzeppelin/contracts/access/Ownable.sol\":1101:1114  return _owner */\n      swap1\n      pop\n        /* \"@openzeppelin/contracts/access/Ownable.sol\":1036:1121  function owner() public view virtual returns (address) {... */\n      swap1\n      jump\t// out\n        /* \"staking.sol\":2743:3206  function calculateRewards (address _user, uint256 _level) public view returns (uint256){... */\n    tag_46:\n        /* \"staking.sol\":2822:2829  uint256 */\n      0x00\n        /* \"staking.sol\":2840:2858  uint256 timeStaked */\n      dup1\n        /* \"staking.sol\":2879:2895  userLevelDeposit */\n      0x02\n        /* \"staking.sol\":2879:2902  userLevelDeposit[_user] */\n      0x00\n        /* \"staking.sol\":2896:2901  _user */\n      dup6\n        /* \"staking.sol\":2879:2902  userLevelDeposit[_user] */\n      0xffffffffffffffffffffffffffffffffffffffff\n      and\n      0xffffffffffffffffffffffffffffffffffffffff\n      and\n      dup2\n      mstore\n      0x20\n      add\n      swap1\n      dup2\n      mstore\n      0x20\n      add\n      0x00\n      keccak256\n        /* \"staking.sol\":2879:2910  userLevelDeposit[_user][_level] */\n      0x00\n        /* \"staking.sol\":2903:2909  _level */\n      dup5\n        /* \"staking.sol\":2879:2910  userLevelDeposit[_user][_level] */\n      dup2\n      mstore\n      0x20\n      add\n      swap1\n      dup2\n      mstore\n      0x20\n      add\n      0x00\n      keccak256\n        /* \"staking.sol\":2879:2918  userLevelDeposit[_user][_level].started */\n      0x01\n      add\n      sload\n        /* \"staking.sol\":2861:2876  block.timestamp */\n      timestamp\n        /* \"staking.sol\":2861:2918  block.timestamp - userLevelDeposit[_user][_level].started */\n      tag_106\n      swap2\n      swap1\n      tag_74\n      jump\t// in\n    tag_106:\n        /* \"staking.sol\":2840:2918  uint256 timeStaked = block.timestamp - userLevelDeposit[_user][_level].started */\n      swap1\n      pop\n        /* \"staking.sol\":2928:2943  uint256 balance */\n      0x00\n        /* \"staking.sol\":2946:2962  userLevelDeposit */\n      0x02\n        /* \"staking.sol\":2946:2969  userLevelDeposit[_user] */\n      0x00\n        /* \"staking.sol\":2963:2968  _user */\n      dup7\n        /* \"staking.sol\":2946:2969  userLevelDeposit[_user] */\n      0xffffffffffffffffffffffffffffffffffffffff\n      and\n      0xffffffffffffffffffffffffffffffffffffffff\n      and\n      dup2\n      mstore\n      0x20\n      add\n      swap1\n      dup2\n      mstore\n      0x20\n      add\n      0x00\n      keccak256\n        /* \"staking.sol\":2946:2977  userLevelDeposit[_user][_level] */\n      0x00\n        /* \"staking.sol\":2970:2976  _level */\n      dup6\n        /* \"staking.sol\":2946:2977  userLevelDeposit[_user][_level] */\n      dup2\n      mstore\n      0x20\n      add\n      swap1\n      dup2\n      mstore\n      0x20\n      add\n      0x00\n      keccak256\n        /* \"staking.sol\":2946:2985  userLevelDeposit[_user][_level].balance */\n      0x00\n      add\n      sload\n        /* \"staking.sol\":2928:2985  uint256 balance = userLevelDeposit[_user][_level].balance */\n      swap1\n      pop\n        /* \"staking.sol\":2996:3007  uint256 APY */\n      0x00\n        /* \"staking.sol\":3010:3019  levelInfo */\n      0x03\n        /* \"staking.sol\":3010:3027  levelInfo[_level] */\n      0x00\n        /* \"staking.sol\":3020:3026  _level */\n      dup7\n        /* \"staking.sol\":3010:3027  levelInfo[_level] */\n      dup2\n      mstore\n      0x20\n      add\n      swap1\n      dup2\n      mstore\n      0x20\n      add\n      0x00\n      keccak256\n        /* \"staking.sol\":3010:3031  levelInfo[_level].APY */\n      0x00\n      add\n      sload\n        /* \"staking.sol\":2996:3031  uint256 APY = levelInfo[_level].APY */\n      swap1\n      pop\n        /* \"staking.sol\":3042:3066  uint256 rewardsPerSecond */\n      0x00\n        /* \"staking.sol\":3097:3105  365 days */\n      0x01e13380\n        /* \"staking.sol\":3088:3093  10000 */\n      0x2710\n        /* \"staking.sol\":3081:3084  APY */\n      dup4\n        /* \"staking.sol\":3071:3078  balance */\n      dup6\n        /* \"staking.sol\":3071:3084  balance * APY */\n      tag_107\n      swap2\n      swap1\n      tag_108\n      jump\t// in\n    tag_107:\n        /* \"staking.sol\":3070:3093  (balance * APY) / 10000 */\n      tag_109\n      swap2\n      swap1\n      tag_110\n      jump\t// in\n    tag_109:\n        /* \"staking.sol\":3069:3105  ((balance * APY) / 10000) / 365 days */\n      tag_111\n      swap2\n      swap1\n      tag_110\n      jump\t// in\n    tag_111:\n        /* \"staking.sol\":3042:3105  uint256 rewardsPerSecond = ((balance * APY) / 10000) / 365 days */\n      swap1\n      pop\n        /* \"staking.sol\":3115:3136  uint256 rewardsEarned */\n      0x00\n        /* \"staking.sol\":3152:3168  rewardsPerSecond */\n      dup2\n        /* \"staking.sol\":3139:3149  timeStaked */\n      dup6\n        /* \"staking.sol\":3139:3168  timeStaked * rewardsPerSecond */\n      tag_112\n      swap2\n      swap1\n      tag_108\n      jump\t// in\n    tag_112:\n        /* \"staking.sol\":3115:3168  uint256 rewardsEarned = timeStaked * rewardsPerSecond */\n      swap1\n      pop\n        /* \"staking.sol\":3186:3199  rewardsEarned */\n      dup1\n        /* \"staking.sol\":3179:3199  return rewardsEarned */\n      swap6\n      pop\n      pop\n      pop\n      pop\n      pop\n      pop\n        /* \"staking.sol\":2743:3206  function calculateRewards (address _user, uint256 _level) public view returns (uint256){... */\n      swap3\n      swap2\n      pop\n      pop\n      jump\t// out\n        /* \"staking.sol\":1549:2047  function deposit (uint256 _amount, uint256 _level) public whenNotPaused {... */\n    tag_50:\n        /* \"@openzeppelin/contracts/security/Pausable.sol\":1412:1420  paused() */\n      tag_114\n        /* \"@openzeppelin/contracts/security/Pausable.sol\":1412:1418  paused */\n      tag_26\n        /* \"@openzeppelin/contracts/security/Pausable.sol\":1412:1420  paused() */\n      jump\t// in\n    tag_114:\n        /* \"@openzeppelin/contracts/security/Pausable.sol\":1411:1420  !paused() */\n      iszero\n        /* \"@openzeppelin/contracts/security/Pausable.sol\":1403:1441  require(!paused(), \"Pausable: paused\") */\n      tag_115\n      jumpi\n      mload(0x40)\n      0x08c379a000000000000000000000000000000000000000000000000000000000\n      dup2\n      mstore\n      0x04\n      add\n      tag_116\n      swap1\n      tag_117\n      jump\t// in\n    tag_116:\n      mload(0x40)\n      dup1\n      swap2\n      sub\n      swap1\n      revert\n    tag_115:\n        /* \"staking.sol\":1631:1649  address _msgSender */\n      0x00\n        /* \"staking.sol\":1652:1662  msg.sender */\n      caller\n        /* \"staking.sol\":1631:1662  address _msgSender = msg.sender */\n      swap1\n      pop\n        /* \"staking.sol\":1680:1693  acceptedToken */\n      0x01\n      0x00\n      swap1\n      sload\n      swap1\n      0x0100\n      exp\n      swap1\n      div\n      0xffffffffffffffffffffffffffffffffffffffff\n      and\n        /* \"staking.sol\":1680:1706  acceptedToken.transferFrom */\n      0xffffffffffffffffffffffffffffffffffffffff\n      and\n      0x23b872dd\n        /* \"staking.sol\":1707:1717  _msgSender */\n      dup3\n        /* \"staking.sol\":1727:1731  this */\n      address\n        /* \"staking.sol\":1734:1741  _amount */\n      dup7\n        /* \"staking.sol\":1680:1742  acceptedToken.transferFrom(_msgSender, address(this), _amount) */\n      mload(0x40)\n      dup5\n      0xffffffff\n      and\n      0xe0\n      shl\n      dup2\n      mstore\n      0x04\n      add\n      tag_119\n      swap4\n      swap3\n      swap2\n      swap1\n      tag_120\n      jump\t// in\n    tag_119:\n      0x20\n      mload(0x40)\n      dup1\n      dup4\n      sub\n      dup2\n      0x00\n      dup8\n      dup1\n      extcodesize\n      iszero\n      dup1\n      iszero\n      tag_121\n      jumpi\n      0x00\n      dup1\n      revert\n    tag_121:\n      pop\n      gas\n      call\n      iszero\n      dup1\n      iszero\n      tag_123\n      jumpi\n      returndatasize\n      0x00\n      dup1\n      returndatacopy\n      revert(0x00, returndatasize)\n    tag_123:\n      pop\n      pop\n      pop\n      pop\n      mload(0x40)\n      returndatasize\n      not(0x1f)\n      0x1f\n      dup3\n      add\n      and\n      dup3\n      add\n      dup1\n      0x40\n      mstore\n      pop\n      dup2\n      add\n      swap1\n      tag_124\n      swap2\n      swap1\n      tag_83\n      jump\t// in\n    tag_124:\n      pop\n        /* \"staking.sol\":1801:1808  _amount */\n      dup3\n        /* \"staking.sol\":1753:1769  userLevelDeposit */\n      0x02\n        /* \"staking.sol\":1753:1781  userLevelDeposit[_msgSender] */\n      0x00\n        /* \"staking.sol\":1770:1780  _msgSender */\n      dup4\n        /* \"staking.sol\":1753:1781  userLevelDeposit[_msgSender] */\n      0xffffffffffffffffffffffffffffffffffffffff\n      and\n      0xffffffffffffffffffffffffffffffffffffffff\n      and\n      dup2\n      mstore\n      0x20\n      add\n      swap1\n      dup2\n      mstore\n      0x20\n      add\n      0x00\n      keccak256\n        /* \"staking.sol\":1753:1789  userLevelDeposit[_msgSender][_level] */\n      0x00\n        /* \"staking.sol\":1782:1788  _level */\n      dup5\n        /* \"staking.sol\":1753:1789  userLevelDeposit[_msgSender][_level] */\n      dup2\n      mstore\n      0x20\n      add\n      swap1\n      dup2\n      mstore\n      0x20\n      add\n      0x00\n      keccak256\n        /* \"staking.sol\":1753:1797  userLevelDeposit[_msgSender][_level].balance */\n      0x00\n      add\n      0x00\n        /* \"staking.sol\":1753:1808  userLevelDeposit[_msgSender][_level].balance += _amount */\n      dup3\n      dup3\n      sload\n      tag_125\n      swap2\n      swap1\n      tag_76\n      jump\t// in\n    tag_125:\n      swap3\n      pop\n      pop\n      dup2\n      swap1\n      sstore\n      pop\n        /* \"staking.sol\":1866:1881  block.timestamp */\n      timestamp\n        /* \"staking.sol\":1818:1834  userLevelDeposit */\n      0x02\n        /* \"staking.sol\":1818:1846  userLevelDeposit[_msgSender] */\n      0x00\n        /* \"staking.sol\":1835:1845  _msgSender */\n      dup4\n        /* \"staking.sol\":1818:1846  userLevelDeposit[_msgSender] */\n      0xffffffffffffffffffffffffffffffffffffffff\n      and\n      0xffffffffffffffffffffffffffffffffffffffff\n      and\n      dup2\n      mstore\n      0x20\n      add\n      swap1\n      dup2\n      mstore\n      0x20\n      add\n      0x00\n      keccak256\n        /* \"staking.sol\":1818:1854  userLevelDeposit[_msgSender][_level] */\n      0x00\n        /* \"staking.sol\":1847:1853  _level */\n      dup5\n        /* \"staking.sol\":1818:1854  userLevelDeposit[_msgSender][_level] */\n      dup2\n      mstore\n      0x20\n      add\n      swap1\n      dup2\n      mstore\n      0x20\n      add\n      0x00\n      keccak256\n        /* \"staking.sol\":1818:1862  userLevelDeposit[_msgSender][_level].started */\n      0x01\n      add\n      0x00\n        /* \"staking.sol\":1818:1881  userLevelDeposit[_msgSender][_level].started += block.timestamp */\n      dup3\n      dup3\n      sload\n      tag_126\n      swap2\n      swap1\n      tag_76\n      jump\t// in\n    tag_126:\n      swap3\n      pop\n      pop\n      dup2\n      swap1\n      sstore\n      pop\n        /* \"staking.sol\":1959:1968  levelInfo */\n      0x03\n        /* \"staking.sol\":1959:1976  levelInfo[_level] */\n      0x00\n        /* \"staking.sol\":1969:1975  _level */\n      dup4\n        /* \"staking.sol\":1959:1976  levelInfo[_level] */\n      dup2\n      mstore\n      0x20\n      add\n      swap1\n      dup2\n      mstore\n      0x20\n      add\n      0x00\n      keccak256\n        /* \"staking.sol\":1959:1987  levelInfo[_level].lockPeriod */\n      0x01\n      add\n      sload\n        /* \"staking.sol\":1941:1956  block.timestamp */\n      timestamp\n        /* \"staking.sol\":1941:1987  block.timestamp + levelInfo[_level].lockPeriod */\n      tag_127\n      swap2\n      swap1\n      tag_76\n      jump\t// in\n    tag_127:\n        /* \"staking.sol\":1891:1907  userLevelDeposit */\n      0x02\n        /* \"staking.sol\":1891:1919  userLevelDeposit[_msgSender] */\n      0x00\n        /* \"staking.sol\":1908:1918  _msgSender */\n      dup4\n        /* \"staking.sol\":1891:1919  userLevelDeposit[_msgSender] */\n      0xffffffffffffffffffffffffffffffffffffffff\n      and\n      0xffffffffffffffffffffffffffffffffffffffff\n      and\n      dup2\n      mstore\n      0x20\n      add\n      swap1\n      dup2\n      mstore\n      0x20\n      add\n      0x00\n      keccak256\n        /* \"staking.sol\":1891:1927  userLevelDeposit[_msgSender][_level] */\n      0x00\n        /* \"staking.sol\":1920:1926  _level */\n      dup5\n        /* \"staking.sol\":1891:1927  userLevelDeposit[_msgSender][_level] */\n      dup2\n      mstore\n      0x20\n      add\n      swap1\n      dup2\n      mstore\n      0x20\n      add\n      0x00\n      keccak256\n        /* \"staking.sol\":1891:1938  userLevelDeposit[_msgSender][_level].unlockTime */\n      0x02\n      add\n        /* \"staking.sol\":1891:1987  userLevelDeposit[_msgSender][_level].unlockTime = block.timestamp + levelInfo[_level].lockPeriod */\n      dup2\n      swap1\n      sstore\n      pop\n        /* \"staking.sol\":2003:2040  Deposit (_msgSender, _level, _amount) */\n      0x90890809c654f11d6e72a28fa60149770a0d11ec6c92319d6ceb2bb0a4ea1a15\n        /* \"staking.sol\":2012:2022  _msgSender */\n      dup2\n        /* \"staking.sol\":2024:2030  _level */\n      dup4\n        /* \"staking.sol\":2032:2039  _amount */\n      dup6\n        /* \"staking.sol\":2003:2040  Deposit (_msgSender, _level, _amount) */\n      mload(0x40)\n      tag_128\n      swap4\n      swap3\n      swap2\n      swap1\n      tag_129\n      jump\t// in\n    tag_128:\n      mload(0x40)\n      dup1\n      swap2\n      sub\n      swap1\n      log1\n        /* \"staking.sol\":1621:2047  {... */\n      pop\n        /* \"staking.sol\":1549:2047  function deposit (uint256 _amount, uint256 _level) public whenNotPaused {... */\n      pop\n      pop\n      jump\t// out\n        /* \"@openzeppelin/contracts/access/Ownable.sol\":1918:2116  function transferOwnership(address newOwner) public virtual onlyOwner {... */\n    tag_54:\n        /* \"@openzeppelin/contracts/access/Ownable.sol\":1259:1271  _msgSender() */\n      tag_131\n        /* \"@openzeppelin/contracts/access/Ownable.sol\":1259:1269  _msgSender */\n      tag_57\n        /* \"@openzeppelin/contracts/access/Ownable.sol\":1259:1271  _msgSender() */\n      jump\t// in\n    tag_131:\n        /* \"@openzeppelin/contracts/access/Ownable.sol\":1248:1271  owner() == _msgSender() */\n      0xffffffffffffffffffffffffffffffffffffffff\n      and\n        /* \"@openzeppelin/contracts/access/Ownable.sol\":1248:1255  owner() */\n      tag_132\n        /* \"@openzeppelin/contracts/access/Ownable.sol\":1248:1253  owner */\n      tag_40\n        /* \"@openzeppelin/contracts/access/Ownable.sol\":1248:1255  owner() */\n      jump\t// in\n    tag_132:\n        /* \"@openzeppelin/contracts/access/Ownable.sol\":1248:1271  owner() == _msgSender() */\n      0xffffffffffffffffffffffffffffffffffffffff\n      and\n      eq\n        /* \"@openzeppelin/contracts/access/Ownable.sol\":1240:1308  require(owner() == _msgSender(), \"Ownable: caller is not the owner\") */\n      tag_133\n      jumpi\n      mload(0x40)\n      0x08c379a000000000000000000000000000000000000000000000000000000000\n      dup2\n      mstore\n      0x04\n      add\n      tag_134\n      swap1\n      tag_61\n      jump\t// in\n    tag_134:\n      mload(0x40)\n      dup1\n      swap2\n      sub\n      swap1\n      revert\n    tag_133:\n        /* \"@openzeppelin/contracts/access/Ownable.sol\":2026:2027  0 */\n      0x00\n        /* \"@openzeppelin/contracts/access/Ownable.sol\":2006:2028  newOwner != address(0) */\n      0xffffffffffffffffffffffffffffffffffffffff\n      and\n        /* \"@openzeppelin/contracts/access/Ownable.sol\":2006:2014  newOwner */\n      dup2\n        /* \"@openzeppelin/contracts/access/Ownable.sol\":2006:2028  newOwner != address(0) */\n      0xffffffffffffffffffffffffffffffffffffffff\n      and\n      eq\n      iszero\n        /* \"@openzeppelin/contracts/access/Ownable.sol\":1998:2071  require(newOwner != address(0), \"Ownable: new owner is the zero address\") */\n      tag_136\n      jumpi\n      mload(0x40)\n      0x08c379a000000000000000000000000000000000000000000000000000000000\n      dup2\n      mstore\n      0x04\n      add\n      tag_137\n      swap1\n      tag_138\n      jump\t// in\n    tag_137:\n      mload(0x40)\n      dup1\n      swap2\n      sub\n      swap1\n      revert\n    tag_136:\n        /* \"@openzeppelin/contracts/access/Ownable.sol\":2081:2109  _transferOwnership(newOwner) */\n      tag_139\n        /* \"@openzeppelin/contracts/access/Ownable.sol\":2100:2108  newOwner */\n      dup2\n        /* \"@openzeppelin/contracts/access/Ownable.sol\":2081:2099  _transferOwnership */\n      tag_95\n        /* \"@openzeppelin/contracts/access/Ownable.sol\":2081:2109  _transferOwnership(newOwner) */\n      jump\t// in\n    tag_139:\n        /* \"@openzeppelin/contracts/access/Ownable.sol\":1918:2116  function transferOwnership(address newOwner) public virtual onlyOwner {... */\n      pop\n      jump\t// out\n        /* \"@openzeppelin/contracts/utils/Context.sol\":640:736  function _msgSender() internal view virtual returns (address) {... */\n    tag_57:\n        /* \"@openzeppelin/contracts/utils/Context.sol\":693:700  address */\n      0x00\n        /* \"@openzeppelin/contracts/utils/Context.sol\":719:729  msg.sender */\n      caller\n        /* \"@openzeppelin/contracts/utils/Context.sol\":712:729  return msg.sender */\n      swap1\n      pop\n        /* \"@openzeppelin/contracts/utils/Context.sol\":640:736  function _msgSender() internal view virtual returns (address) {... */\n      swap1\n      jump\t// out\n        /* \"@openzeppelin/contracts/security/Pausable.sol\":2110:2227  function _unpause() internal virtual whenPaused {... */\n    tag_64:\n        /* \"@openzeppelin/contracts/security/Pausable.sol\":1677:1685  paused() */\n      tag_142\n        /* \"@openzeppelin/contracts/security/Pausable.sol\":1677:1683  paused */\n      tag_26\n        /* \"@openzeppelin/contracts/security/Pausable.sol\":1677:1685  paused() */\n      jump\t// in\n    tag_142:\n        /* \"@openzeppelin/contracts/security/Pausable.sol\":1669:1710  require(paused(), \"Pausable: not paused\") */\n      tag_143\n      jumpi\n      mload(0x40)\n      0x08c379a000000000000000000000000000000000000000000000000000000000\n      dup2\n      mstore\n      0x04\n      add\n      tag_144\n      swap1\n      tag_145\n      jump\t// in\n    tag_144:\n      mload(0x40)\n      dup1\n      swap2\n      sub\n      swap1\n      revert\n    tag_143:\n        /* \"@openzeppelin/contracts/security/Pausable.sol\":2178:2183  false */\n      0x00\n        /* \"@openzeppelin/contracts/security/Pausable.sol\":2168:2175  _paused */\n      dup1\n      0x14\n        /* \"@openzeppelin/contracts/security/Pausable.sol\":2168:2183  _paused = false */\n      0x0100\n      exp\n      dup2\n      sload\n      dup2\n      0xff\n      mul\n      not\n      and\n      swap1\n      dup4\n      iszero\n      iszero\n      mul\n      or\n      swap1\n      sstore\n      pop\n        /* \"@openzeppelin/contracts/security/Pausable.sol\":2198:2220  Unpaused(_msgSender()) */\n      0x5db9ee0a495bf2e6ff9c91a7834c1ba4fdd244a5e8aa4e537bd38aeae4b073aa\n        /* \"@openzeppelin/contracts/security/Pausable.sol\":2207:2219  _msgSender() */\n      tag_147\n        /* \"@openzeppelin/contracts/security/Pausable.sol\":2207:2217  _msgSender */\n      tag_57\n        /* \"@openzeppelin/contracts/security/Pausable.sol\":2207:2219  _msgSender() */\n      jump\t// in\n    tag_147:\n        /* \"@openzeppelin/contracts/security/Pausable.sol\":2198:2220  Unpaused(_msgSender()) */\n      mload(0x40)\n      tag_148\n      swap2\n      swap1\n      tag_42\n      jump\t// in\n    tag_148:\n      mload(0x40)\n      dup1\n      swap2\n      sub\n      swap1\n      log1\n        /* \"@openzeppelin/contracts/security/Pausable.sol\":2110:2227  function _unpause() internal virtual whenPaused {... */\n      jump\t// out\n        /* \"@openzeppelin/contracts/access/Ownable.sol\":2270:2457  function _transferOwnership(address newOwner) internal virtual {... */\n    tag_95:\n        /* \"@openzeppelin/contracts/access/Ownable.sol\":2343:2359  address oldOwner */\n      0x00\n        /* \"@openzeppelin/contracts/access/Ownable.sol\":2362:2368  _owner */\n      dup1\n      0x00\n      swap1\n      sload\n      swap1\n      0x0100\n      exp\n      swap1\n      div\n      0xffffffffffffffffffffffffffffffffffffffff\n      and\n        /* \"@openzeppelin/contracts/access/Ownable.sol\":2343:2368  address oldOwner = _owner */\n      swap1\n      pop\n        /* \"@openzeppelin/contracts/access/Ownable.sol\":2387:2395  newOwner */\n      dup2\n        /* \"@openzeppelin/contracts/access/Ownable.sol\":2378:2384  _owner */\n      0x00\n      dup1\n        /* \"@openzeppelin/contracts/access/Ownable.sol\":2378:2395  _owner = newOwner */\n      0x0100\n      exp\n      dup2\n      sload\n      dup2\n      0xffffffffffffffffffffffffffffffffffffffff\n      mul\n      not\n      and\n      swap1\n      dup4\n      0xffffffffffffffffffffffffffffffffffffffff\n      and\n      mul\n      or\n      swap1\n      sstore\n      pop\n        /* \"@openzeppelin/contracts/access/Ownable.sol\":2441:2449  newOwner */\n      dup2\n        /* \"@openzeppelin/contracts/access/Ownable.sol\":2410:2450  OwnershipTransferred(oldOwner, newOwner) */\n      0xffffffffffffffffffffffffffffffffffffffff\n      and\n        /* \"@openzeppelin/contracts/access/Ownable.sol\":2431:2439  oldOwner */\n      dup2\n        /* \"@openzeppelin/contracts/access/Ownable.sol\":2410:2450  OwnershipTransferred(oldOwner, newOwner) */\n      0xffffffffffffffffffffffffffffffffffffffff\n      and\n      0x8be0079c531659141344cd1fd0a4f28419497f9722a3daafe3b4186f6b6457e0\n      mload(0x40)\n      mload(0x40)\n      dup1\n      swap2\n      sub\n      swap1\n      log3\n        /* \"@openzeppelin/contracts/access/Ownable.sol\":2333:2457  {... */\n      pop\n        /* \"@openzeppelin/contracts/access/Ownable.sol\":2270:2457  function _transferOwnership(address newOwner) internal virtual {... */\n      pop\n      jump\t// out\n        /* \"@openzeppelin/contracts/security/Pausable.sol\":1863:1978  function _pause() internal virtual whenNotPaused {... */\n    tag_103:\n        /* \"@openzeppelin/contracts/security/Pausable.sol\":1412:1420  paused() */\n      tag_151\n        /* \"@openzeppelin/contracts/security/Pausable.sol\":1412:1418  paused */\n      tag_26\n        /* \"@openzeppelin/contracts/security/Pausable.sol\":1412:1420  paused() */\n      jump\t// in\n    tag_151:\n        /* \"@openzeppelin/contracts/security/Pausable.sol\":1411:1420  !paused() */\n      iszero\n        /* \"@openzeppelin/contracts/security/Pausable.sol\":1403:1441  require(!paused(), \"Pausable: paused\") */\n      tag_152\n      jumpi\n      mload(0x40)\n      0x08c379a000000000000000000000000000000000000000000000000000000000\n      dup2\n      mstore\n      0x04\n      add\n      tag_153\n      swap1\n      tag_117\n      jump\t// in\n    tag_153:\n      mload(0x40)\n      dup1\n      swap2\n      sub\n      swap1\n      revert\n    tag_152:\n        /* \"@openzeppelin/contracts/security/Pausable.sol\":1932:1936  true */\n      0x01\n        /* \"@openzeppelin/contracts/security/Pausable.sol\":1922:1929  _paused */\n      0x00\n      0x14\n        /* \"@openzeppelin/contracts/security/Pausable.sol\":1922:1936  _paused = true */\n      0x0100\n      exp\n      dup2\n      sload\n      dup2\n      0xff\n      mul\n      not\n      and\n      swap1\n      dup4\n      iszero\n      iszero\n      mul\n      or\n      swap1\n      sstore\n      pop\n        /* \"@openzeppelin/contracts/security/Pausable.sol\":1951:1971  Paused(_msgSender()) */\n      0x62e78cea01bee320cd4e420270b5ea74000d11b0c9f74754ebdbfc544b05a258\n        /* \"@openzeppelin/contracts/security/Pausable.sol\":1958:1970  _msgSender() */\n      tag_155\n        /* \"@openzeppelin/contracts/security/Pausable.sol\":1958:1968  _msgSender */\n      tag_57\n        /* \"@openzeppelin/contracts/security/Pausable.sol\":1958:1970  _msgSender() */\n      jump\t// in\n    tag_155:\n        /* \"@openzeppelin/contracts/security/Pausable.sol\":1951:1971  Paused(_msgSender()) */\n      mload(0x40)\n      tag_156\n      swap2\n      swap1\n      tag_42\n      jump\t// in\n    tag_156:\n      mload(0x40)\n      dup1\n      swap2\n      sub\n      swap1\n      log1\n        /* \"@openzeppelin/contracts/security/Pausable.sol\":1863:1978  function _pause() internal virtual whenNotPaused {... */\n      jump\t// out\n        /* \"#utility.yul\":7:146   */\n    tag_158:\n        /* \"#utility.yul\":53:58   */\n      0x00\n        /* \"#utility.yul\":91:97   */\n      dup2\n        /* \"#utility.yul\":78:98   */\n      calldataload\n        /* \"#utility.yul\":69:98   */\n      swap1\n      pop\n        /* \"#utility.yul\":107:140   */\n      tag_160\n        /* \"#utility.yul\":134:139   */\n      dup2\n        /* \"#utility.yul\":107:140   */\n      tag_161\n      jump\t// in\n    tag_160:\n        /* \"#utility.yul\":7:146   */\n      swap3\n      swap2\n      pop\n      pop\n      jump\t// out\n        /* \"#utility.yul\":152:289   */\n    tag_162:\n        /* \"#utility.yul\":206:211   */\n      0x00\n        /* \"#utility.yul\":237:243   */\n      dup2\n        /* \"#utility.yul\":231:244   */\n      mload\n        /* \"#utility.yul\":222:244   */\n      swap1\n      pop\n        /* \"#utility.yul\":253:283   */\n      tag_164\n        /* \"#utility.yul\":277:282   */\n      dup2\n        /* \"#utility.yul\":253:283   */\n      tag_165\n      jump\t// in\n    tag_164:\n        /* \"#utility.yul\":152:289   */\n      swap3\n      swap2\n      pop\n      pop\n      jump\t// out\n        /* \"#utility.yul\":295:434   */\n    tag_166:\n        /* \"#utility.yul\":341:346   */\n      0x00\n        /* \"#utility.yul\":379:385   */\n      dup2\n        /* \"#utility.yul\":366:386   */\n      calldataload\n        /* \"#utility.yul\":357:386   */\n      swap1\n      pop\n        /* \"#utility.yul\":395:428   */\n      tag_168\n        /* \"#utility.yul\":422:427   */\n      dup2\n        /* \"#utility.yul\":395:428   */\n      tag_169\n      jump\t// in\n    tag_168:\n        /* \"#utility.yul\":295:434   */\n      swap3\n      swap2\n      pop\n      pop\n      jump\t// out\n        /* \"#utility.yul\":440:575   */\n    tag_170:\n        /* \"#utility.yul\":484:489   */\n      0x00\n        /* \"#utility.yul\":522:528   */\n      dup2\n        /* \"#utility.yul\":509:529   */\n      calldataload\n        /* \"#utility.yul\":500:529   */\n      swap1\n      pop\n        /* \"#utility.yul\":538:569   */\n      tag_172\n        /* \"#utility.yul\":563:568   */\n      dup2\n        /* \"#utility.yul\":538:569   */\n      tag_173\n      jump\t// in\n    tag_172:\n        /* \"#utility.yul\":440:575   */\n      swap3\n      swap2\n      pop\n      pop\n      jump\t// out\n        /* \"#utility.yul\":581:910   */\n    tag_53:\n        /* \"#utility.yul\":640:646   */\n      0x00\n        /* \"#utility.yul\":689:691   */\n      0x20\n        /* \"#utility.yul\":677:686   */\n      dup3\n        /* \"#utility.yul\":668:675   */\n      dup5\n        /* \"#utility.yul\":664:687   */\n      sub\n        /* \"#utility.yul\":660:692   */\n      slt\n        /* \"#utility.yul\":657:776   */\n      iszero\n      tag_175\n      jumpi\n        /* \"#utility.yul\":695:774   */\n      tag_176\n      tag_177\n      jump\t// in\n    tag_176:\n        /* \"#utility.yul\":657:776   */\n    tag_175:\n        /* \"#utility.yul\":815:816   */\n      0x00\n        /* \"#utility.yul\":840:893   */\n      tag_178\n        /* \"#utility.yul\":885:892   */\n      dup5\n        /* \"#utility.yul\":876:882   */\n      dup3\n        /* \"#utility.yul\":865:874   */\n      dup6\n        /* \"#utility.yul\":861:883   */\n      add\n        /* \"#utility.yul\":840:893   */\n      tag_158\n      jump\t// in\n    tag_178:\n        /* \"#utility.yul\":830:893   */\n      swap2\n      pop\n        /* \"#utility.yul\":786:903   */\n      pop\n        /* \"#utility.yul\":581:910   */\n      swap3\n      swap2\n      pop\n      pop\n      jump\t// out\n        /* \"#utility.yul\":916:1390   */\n    tag_45:\n        /* \"#utility.yul\":984:990   */\n      0x00\n        /* \"#utility.yul\":992:998   */\n      dup1\n        /* \"#utility.yul\":1041:1043   */\n      0x40\n        /* \"#utility.yul\":1029:1038   */\n      dup4\n        /* \"#utility.yul\":1020:1027   */\n      dup6\n        /* \"#utility.yul\":1016:1039   */\n      sub\n        /* \"#utility.yul\":1012:1044   */\n      slt\n        /* \"#utility.yul\":1009:1128   */\n      iszero\n      tag_180\n      jumpi\n        /* \"#utility.yul\":1047:1126   */\n      tag_181\n      tag_177\n      jump\t// in\n    tag_181:\n        /* \"#utility.yul\":1009:1128   */\n    tag_180:\n        /* \"#utility.yul\":1167:1168   */\n      0x00\n        /* \"#utility.yul\":1192:1245   */\n      tag_182\n        /* \"#utility.yul\":1237:1244   */\n      dup6\n        /* \"#utility.yul\":1228:1234   */\n      dup3\n        /* \"#utility.yul\":1217:1226   */\n      dup7\n        /* \"#utility.yul\":1213:1235   */\n      add\n        /* \"#utility.yul\":1192:1245   */\n      tag_158\n      jump\t// in\n    tag_182:\n        /* \"#utility.yul\":1182:1245   */\n      swap3\n      pop\n        /* \"#utility.yul\":1138:1255   */\n      pop\n        /* \"#utility.yul\":1294:1296   */\n      0x20\n        /* \"#utility.yul\":1320:1373   */\n      tag_183\n        /* \"#utility.yul\":1365:1372   */\n      dup6\n        /* \"#utility.yul\":1356:1362   */\n      dup3\n        /* \"#utility.yul\":1345:1354   */\n      dup7\n        /* \"#utility.yul\":1341:1363   */\n      add\n        /* \"#utility.yul\":1320:1373   */\n      tag_166\n      jump\t// in\n    tag_183:\n        /* \"#utility.yul\":1310:1373   */\n      swap2\n      pop\n        /* \"#utility.yul\":1265:1383   */\n      pop\n        /* \"#utility.yul\":916:1390   */\n      swap3\n      pop\n      swap3\n      swap1\n      pop\n      jump\t// out\n        /* \"#utility.yul\":1396:2011   */\n    tag_31:\n        /* \"#utility.yul\":1471:1477   */\n      0x00\n        /* \"#utility.yul\":1479:1485   */\n      dup1\n        /* \"#utility.yul\":1487:1493   */\n      0x00\n        /* \"#utility.yul\":1536:1538   */\n      0x60\n        /* \"#utility.yul\":1524:1533   */\n      dup5\n        /* \"#utility.yul\":1515:1522   */\n      dup7\n        /* \"#utility.yul\":1511:1534   */\n      sub\n        /* \"#utility.yul\":1507:1539   */\n      slt\n        /* \"#utility.yul\":1504:1623   */\n      iszero\n      tag_185\n      jumpi\n        /* \"#utility.yul\":1542:1621   */\n      tag_186\n      tag_177\n      jump\t// in\n    tag_186:\n        /* \"#utility.yul\":1504:1623   */\n    tag_185:\n        /* \"#utility.yul\":1662:1663   */\n      0x00\n        /* \"#utility.yul\":1687:1740   */\n      tag_187\n        /* \"#utility.yul\":1732:1739   */\n      dup7\n        /* \"#utility.yul\":1723:1729   */\n      dup3\n        /* \"#utility.yul\":1712:1721   */\n      dup8\n        /* \"#utility.yul\":1708:1730   */\n      add\n        /* \"#utility.yul\":1687:1740   */\n      tag_158\n      jump\t// in\n    tag_187:\n        /* \"#utility.yul\":1677:1740   */\n      swap4\n      pop\n        /* \"#utility.yul\":1633:1750   */\n      pop\n        /* \"#utility.yul\":1789:1791   */\n      0x20\n        /* \"#utility.yul\":1815:1866   */\n      tag_188\n        /* \"#utility.yul\":1858:1865   */\n      dup7\n        /* \"#utility.yul\":1849:1855   */\n      dup3\n        /* \"#utility.yul\":1838:1847   */\n      dup8\n        /* \"#utility.yul\":1834:1856   */\n      add\n        /* \"#utility.yul\":1815:1866   */\n      tag_170\n      jump\t// in\n    tag_188:\n        /* \"#utility.yul\":1805:1866   */\n      swap3\n      pop\n        /* \"#utility.yul\":1760:1876   */\n      pop\n        /* \"#utility.yul\":1915:1917   */\n      0x40\n        /* \"#utility.yul\":1941:1994   */\n      tag_189\n        /* \"#utility.yul\":1986:1993   */\n      dup7\n        /* \"#utility.yul\":1977:1983   */\n      dup3\n        /* \"#utility.yul\":1966:1975   */\n      dup8\n        /* \"#utility.yul\":1962:1984   */\n      add\n        /* \"#utility.yul\":1941:1994   */\n      tag_166\n      jump\t// in\n    tag_189:\n        /* \"#utility.yul\":1931:1994   */\n      swap2\n      pop\n        /* \"#utility.yul\":1886:2004   */\n      pop\n        /* \"#utility.yul\":1396:2011   */\n      swap3\n      pop\n      swap3\n      pop\n      swap3\n      jump\t// out\n        /* \"#utility.yul\":2017:2362   */\n    tag_83:\n        /* \"#utility.yul\":2084:2090   */\n      0x00\n        /* \"#utility.yul\":2133:2135   */\n      0x20\n        /* \"#utility.yul\":2121:2130   */\n      dup3\n        /* \"#utility.yul\":2112:2119   */\n      dup5\n        /* \"#utility.yul\":2108:2131   */\n      sub\n        /* \"#utility.yul\":2104:2136   */\n      slt\n        /* \"#utility.yul\":2101:2220   */\n      iszero\n      tag_191\n      jumpi\n        /* \"#utility.yul\":2139:2218   */\n      tag_192\n      tag_177\n      jump\t// in\n    tag_192:\n        /* \"#utility.yul\":2101:2220   */\n    tag_191:\n        /* \"#utility.yul\":2259:2260   */\n      0x00\n        /* \"#utility.yul\":2284:2345   */\n      tag_193\n        /* \"#utility.yul\":2337:2344   */\n      dup5\n        /* \"#utility.yul\":2328:2334   */\n      dup3\n        /* \"#utility.yul\":2317:2326   */\n      dup6\n        /* \"#utility.yul\":2313:2335   */\n      add\n        /* \"#utility.yul\":2284:2345   */\n      tag_162\n      jump\t// in\n    tag_193:\n        /* \"#utility.yul\":2274:2345   */\n      swap2\n      pop\n        /* \"#utility.yul\":2230:2355   */\n      pop\n        /* \"#utility.yul\":2017:2362   */\n      swap3\n      swap2\n      pop\n      pop\n      jump\t// out\n        /* \"#utility.yul\":2368:2842   */\n    tag_19:\n        /* \"#utility.yul\":2436:2442   */\n      0x00\n        /* \"#utility.yul\":2444:2450   */\n      dup1\n        /* \"#utility.yul\":2493:2495   */\n      0x40\n        /* \"#utility.yul\":2481:2490   */\n      dup4\n        /* \"#utility.yul\":2472:2479   */\n      dup6\n        /* \"#utility.yul\":2468:2491   */\n      sub\n        /* \"#utility.yul\":2464:2496   */\n      slt\n        /* \"#utility.yul\":2461:2580   */\n      iszero\n      tag_195\n      jumpi\n        /* \"#utility.yul\":2499:2578   */\n      tag_196\n      tag_177\n      jump\t// in\n    tag_196:\n        /* \"#utility.yul\":2461:2580   */\n    tag_195:\n        /* \"#utility.yul\":2619:2620   */\n      0x00\n        /* \"#utility.yul\":2644:2697   */\n      tag_197\n        /* \"#utility.yul\":2689:2696   */\n      dup6\n        /* \"#utility.yul\":2680:2686   */\n      dup3\n        /* \"#utility.yul\":2669:2678   */\n      dup7\n        /* \"#utility.yul\":2665:2687   */\n      add\n        /* \"#utility.yul\":2644:2697   */\n      tag_166\n      jump\t// in\n    tag_197:\n        /* \"#utility.yul\":2634:2697   */\n      swap3\n      pop\n        /* \"#utility.yul\":2590:2707   */\n      pop\n        /* \"#utility.yul\":2746:2748   */\n      0x20\n        /* \"#utility.yul\":2772:2825   */\n      tag_198\n        /* \"#utility.yul\":2817:2824   */\n      dup6\n        /* \"#utility.yul\":2808:2814   */\n      dup3\n        /* \"#utility.yul\":2797:2806   */\n      dup7\n        /* \"#utility.yul\":2793:2815   */\n      add\n        /* \"#utility.yul\":2772:2825   */\n      tag_166\n      jump\t// in\n    tag_198:\n        /* \"#utility.yul\":2762:2825   */\n      swap2\n      pop\n        /* \"#utility.yul\":2717:2835   */\n      pop\n        /* \"#utility.yul\":2368:2842   */\n      swap3\n      pop\n      swap3\n      swap1\n      pop\n      jump\t// out\n        /* \"#utility.yul\":2848:2966   */\n    tag_199:\n        /* \"#utility.yul\":2935:2959   */\n      tag_201\n        /* \"#utility.yul\":2953:2958   */\n      dup2\n        /* \"#utility.yul\":2935:2959   */\n      tag_202\n      jump\t// in\n    tag_201:\n        /* \"#utility.yul\":2930:2933   */\n      dup3\n        /* \"#utility.yul\":2923:2960   */\n      mstore\n        /* \"#utility.yul\":2848:2966   */\n      pop\n      pop\n      jump\t// out\n        /* \"#utility.yul\":2972:3081   */\n    tag_203:\n        /* \"#utility.yul\":3053:3074   */\n      tag_205\n        /* \"#utility.yul\":3068:3073   */\n      dup2\n        /* \"#utility.yul\":3053:3074   */\n      tag_206\n      jump\t// in\n    tag_205:\n        /* \"#utility.yul\":3048:3051   */\n      dup3\n        /* \"#utility.yul\":3041:3075   */\n      mstore\n        /* \"#utility.yul\":2972:3081   */\n      pop\n      pop\n      jump\t// out\n        /* \"#utility.yul\":3087:3246   */\n    tag_207:\n        /* \"#utility.yul\":3188:3239   */\n      tag_209\n        /* \"#utility.yul\":3233:3238   */\n      dup2\n        /* \"#utility.yul\":3188:3239   */\n      tag_210\n      jump\t// in\n    tag_209:\n        /* \"#utility.yul\":3183:3186   */\n      dup3\n        /* \"#utility.yul\":3176:3240   */\n      mstore\n        /* \"#utility.yul\":3087:3246   */\n      pop\n      pop\n      jump\t// out\n        /* \"#utility.yul\":3252:3399   */\n    tag_211:\n        /* \"#utility.yul\":3347:3392   */\n      tag_213\n        /* \"#utility.yul\":3386:3391   */\n      dup2\n        /* \"#utility.yul\":3347:3392   */\n      tag_214\n      jump\t// in\n    tag_213:\n        /* \"#utility.yul\":3342:3345   */\n      dup3\n        /* \"#utility.yul\":3335:3393   */\n      mstore\n        /* \"#utility.yul\":3252:3399   */\n      pop\n      pop\n      jump\t// out\n        /* \"#utility.yul\":3405:3771   */\n    tag_215:\n        /* \"#utility.yul\":3547:3550   */\n      0x00\n        /* \"#utility.yul\":3568:3635   */\n      tag_217\n        /* \"#utility.yul\":3632:3634   */\n      0x14\n        /* \"#utility.yul\":3627:3630   */\n      dup4\n        /* \"#utility.yul\":3568:3635   */\n      tag_218\n      jump\t// in\n    tag_217:\n        /* \"#utility.yul\":3561:3635   */\n      swap2\n      pop\n        /* \"#utility.yul\":3644:3737   */\n      tag_219\n        /* \"#utility.yul\":3733:3736   */\n      dup3\n        /* \"#utility.yul\":3644:3737   */\n      tag_220\n      jump\t// in\n    tag_219:\n        /* \"#utility.yul\":3762:3764   */\n      0x20\n        /* \"#utility.yul\":3757:3760   */\n      dup3\n        /* \"#utility.yul\":3753:3765   */\n      add\n        /* \"#utility.yul\":3746:3765   */\n      swap1\n      pop\n        /* \"#utility.yul\":3405:3771   */\n      swap2\n      swap1\n      pop\n      jump\t// out\n        /* \"#utility.yul\":3777:4143   */\n    tag_221:\n        /* \"#utility.yul\":3919:3922   */\n      0x00\n        /* \"#utility.yul\":3940:4007   */\n      tag_223\n        /* \"#utility.yul\":4004:4006   */\n      0x26\n        /* \"#utility.yul\":3999:4002   */\n      dup4\n        /* \"#utility.yul\":3940:4007   */\n      tag_218\n      jump\t// in\n    tag_223:\n        /* \"#utility.yul\":3933:4007   */\n      swap2\n      pop\n        /* \"#utility.yul\":4016:4109   */\n      tag_224\n        /* \"#utility.yul\":4105:4108   */\n      dup3\n        /* \"#utility.yul\":4016:4109   */\n      tag_225\n      jump\t// in\n    tag_224:\n        /* \"#utility.yul\":4134:4136   */\n      0x40\n        /* \"#utility.yul\":4129:4132   */\n      dup3\n        /* \"#utility.yul\":4125:4137   */\n      add\n        /* \"#utility.yul\":4118:4137   */\n      swap1\n      pop\n        /* \"#utility.yul\":3777:4143   */\n      swap2\n      swap1\n      pop\n      jump\t// out\n        /* \"#utility.yul\":4149:4515   */\n    tag_226:\n        /* \"#utility.yul\":4291:4294   */\n      0x00\n        /* \"#utility.yul\":4312:4379   */\n      tag_228\n        /* \"#utility.yul\":4376:4378   */\n      0x18\n        /* \"#utility.yul\":4371:4374   */\n      dup4\n        /* \"#utility.yul\":4312:4379   */\n      tag_218\n      jump\t// in\n    tag_228:\n        /* \"#utility.yul\":4305:4379   */\n      swap2\n      pop\n        /* \"#utility.yul\":4388:4481   */\n      tag_229\n        /* \"#utility.yul\":4477:4480   */\n      dup3\n        /* \"#utility.yul\":4388:4481   */\n      tag_230\n      jump\t// in\n    tag_229:\n        /* \"#utility.yul\":4506:4508   */\n      0x20\n        /* \"#utility.yul\":4501:4504   */\n      dup3\n        /* \"#utility.yul\":4497:4509   */\n      add\n        /* \"#utility.yul\":4490:4509   */\n      swap1\n      pop\n        /* \"#utility.yul\":4149:4515   */\n      swap2\n      swap1\n      pop\n      jump\t// out\n        /* \"#utility.yul\":4521:4887   */\n    tag_231:\n        /* \"#utility.yul\":4663:4666   */\n      0x00\n        /* \"#utility.yul\":4684:4751   */\n      tag_233\n        /* \"#utility.yul\":4748:4750   */\n      0x10\n        /* \"#utility.yul\":4743:4746   */\n      dup4\n        /* \"#utility.yul\":4684:4751   */\n      tag_218\n      jump\t// in\n    tag_233:\n        /* \"#utility.yul\":4677:4751   */\n      swap2\n      pop\n        /* \"#utility.yul\":4760:4853   */\n      tag_234\n        /* \"#utility.yul\":4849:4852   */\n      dup3\n        /* \"#utility.yul\":4760:4853   */\n      tag_235\n      jump\t// in\n    tag_234:\n        /* \"#utility.yul\":4878:4880   */\n      0x20\n        /* \"#utility.yul\":4873:4876   */\n      dup3\n        /* \"#utility.yul\":4869:4881   */\n      add\n        /* \"#utility.yul\":4862:4881   */\n      swap1\n      pop\n        /* \"#utility.yul\":4521:4887   */\n      swap2\n      swap1\n      pop\n      jump\t// out\n        /* \"#utility.yul\":4893:5259   */\n    tag_236:\n        /* \"#utility.yul\":5035:5038   */\n      0x00\n        /* \"#utility.yul\":5056:5123   */\n      tag_238\n        /* \"#utility.yul\":5120:5122   */\n      0x20\n        /* \"#utility.yul\":5115:5118   */\n      dup4\n        /* \"#utility.yul\":5056:5123   */\n      tag_218\n      jump\t// in\n    tag_238:\n        /* \"#utility.yul\":5049:5123   */\n      swap2\n      pop\n        /* \"#utility.yul\":5132:5225   */\n      tag_239\n        /* \"#utility.yul\":5221:5224   */\n      dup3\n        /* \"#utility.yul\":5132:5225   */\n      tag_240\n      jump\t// in\n    tag_239:\n        /* \"#utility.yul\":5250:5252   */\n      0x20\n        /* \"#utility.yul\":5245:5248   */\n      dup3\n        /* \"#utility.yul\":5241:5253   */\n      add\n        /* \"#utility.yul\":5234:5253   */\n      swap1\n      pop\n        /* \"#utility.yul\":4893:5259   */\n      swap2\n      swap1\n      pop\n      jump\t// out\n        /* \"#utility.yul\":5265:5631   */\n    tag_241:\n        /* \"#utility.yul\":5407:5410   */\n      0x00\n        /* \"#utility.yul\":5428:5495   */\n      tag_243\n        /* \"#utility.yul\":5492:5494   */\n      0x12\n        /* \"#utility.yul\":5487:5490   */\n      dup4\n        /* \"#utility.yul\":5428:5495   */\n      tag_218\n      jump\t// in\n    tag_243:\n        /* \"#utility.yul\":5421:5495   */\n      swap2\n      pop\n        /* \"#utility.yul\":5504:5597   */\n      tag_244\n        /* \"#utility.yul\":5593:5596   */\n      dup3\n        /* \"#utility.yul\":5504:5597   */\n      tag_245\n      jump\t// in\n    tag_244:\n        /* \"#utility.yul\":5622:5624   */\n      0x20\n        /* \"#utility.yul\":5617:5620   */\n      dup3\n        /* \"#utility.yul\":5613:5625   */\n      add\n        /* \"#utility.yul\":5606:5625   */\n      swap1\n      pop\n        /* \"#utility.yul\":5265:5631   */\n      swap2\n      swap1\n      pop\n      jump\t// out\n        /* \"#utility.yul\":5637:5755   */\n    tag_246:\n        /* \"#utility.yul\":5724:5748   */\n      tag_248\n        /* \"#utility.yul\":5742:5747   */\n      dup2\n        /* \"#utility.yul\":5724:5748   */\n      tag_249\n      jump\t// in\n    tag_248:\n        /* \"#utility.yul\":5719:5722   */\n      dup3\n        /* \"#utility.yul\":5712:5749   */\n      mstore\n        /* \"#utility.yul\":5637:5755   */\n      pop\n      pop\n      jump\t// out\n        /* \"#utility.yul\":5761:5983   */\n    tag_42:\n        /* \"#utility.yul\":5854:5858   */\n      0x00\n        /* \"#utility.yul\":5892:5894   */\n      0x20\n        /* \"#utility.yul\":5881:5890   */\n      dup3\n        /* \"#utility.yul\":5877:5895   */\n      add\n        /* \"#utility.yul\":5869:5895   */\n      swap1\n      pop\n        /* \"#utility.yul\":5905:5976   */\n      tag_251\n        /* \"#utility.yul\":5973:5974   */\n      0x00\n        /* \"#utility.yul\":5962:5971   */\n      dup4\n        /* \"#utility.yul\":5958:5975   */\n      add\n        /* \"#utility.yul\":5949:5955   */\n      dup5\n        /* \"#utility.yul\":5905:5976   */\n      tag_199\n      jump\t// in\n    tag_251:\n        /* \"#utility.yul\":5761:5983   */\n      swap3\n      swap2\n      pop\n      pop\n      jump\t// out\n        /* \"#utility.yul\":5989:6431   */\n    tag_120:\n        /* \"#utility.yul\":6138:6142   */\n      0x00\n        /* \"#utility.yul\":6176:6178   */\n      0x60\n        /* \"#utility.yul\":6165:6174   */\n      dup3\n        /* \"#utility.yul\":6161:6179   */\n      add\n        /* \"#utility.yul\":6153:6179   */\n      swap1\n      pop\n        /* \"#utility.yul\":6189:6260   */\n      tag_253\n        /* \"#utility.yul\":6257:6258   */\n      0x00\n        /* \"#utility.yul\":6246:6255   */\n      dup4\n        /* \"#utility.yul\":6242:6259   */\n      add\n        /* \"#utility.yul\":6233:6239   */\n      dup7\n        /* \"#utility.yul\":6189:6260   */\n      tag_199\n      jump\t// in\n    tag_253:\n        /* \"#utility.yul\":6270:6342   */\n      tag_254\n        /* \"#utility.yul\":6338:6340   */\n      0x20\n        /* \"#utility.yul\":6327:6336   */\n      dup4\n        /* \"#utility.yul\":6323:6341   */\n      add\n        /* \"#utility.yul\":6314:6320   */\n      dup6\n        /* \"#utility.yul\":6270:6342   */\n      tag_199\n      jump\t// in\n    tag_254:\n        /* \"#utility.yul\":6352:6424   */\n      tag_255\n        /* \"#utility.yul\":6420:6422   */\n      0x40\n        /* \"#utility.yul\":6409:6418   */\n      dup4\n        /* \"#utility.yul\":6405:6423   */\n      add\n        /* \"#utility.yul\":6396:6402   */\n      dup5\n        /* \"#utility.yul\":6352:6424   */\n      tag_246\n      jump\t// in\n    tag_255:\n        /* \"#utility.yul\":5989:6431   */\n      swap5\n      swap4\n      pop\n      pop\n      pop\n      pop\n      jump\t// out\n        /* \"#utility.yul\":6437:6895   */\n    tag_85:\n        /* \"#utility.yul\":6594:6598   */\n      0x00\n        /* \"#utility.yul\":6632:6634   */\n      0x60\n        /* \"#utility.yul\":6621:6630   */\n      dup3\n        /* \"#utility.yul\":6617:6635   */\n      add\n        /* \"#utility.yul\":6609:6635   */\n      swap1\n      pop\n        /* \"#utility.yul\":6645:6716   */\n      tag_257\n        /* \"#utility.yul\":6713:6714   */\n      0x00\n        /* \"#utility.yul\":6702:6711   */\n      dup4\n        /* \"#utility.yul\":6698:6715   */\n      add\n        /* \"#utility.yul\":6689:6695   */\n      dup7\n        /* \"#utility.yul\":6645:6716   */\n      tag_199\n      jump\t// in\n    tag_257:\n        /* \"#utility.yul\":6726:6806   */\n      tag_258\n        /* \"#utility.yul\":6802:6804   */\n      0x20\n        /* \"#utility.yul\":6791:6800   */\n      dup4\n        /* \"#utility.yul\":6787:6805   */\n      add\n        /* \"#utility.yul\":6778:6784   */\n      dup6\n        /* \"#utility.yul\":6726:6806   */\n      tag_211\n      jump\t// in\n    tag_258:\n        /* \"#utility.yul\":6816:6888   */\n      tag_259\n        /* \"#utility.yul\":6884:6886   */\n      0x40\n        /* \"#utility.yul\":6873:6882   */\n      dup4\n        /* \"#utility.yul\":6869:6887   */\n      add\n        /* \"#utility.yul\":6860:6866   */\n      dup5\n        /* \"#utility.yul\":6816:6888   */\n      tag_246\n      jump\t// in\n    tag_259:\n        /* \"#utility.yul\":6437:6895   */\n      swap5\n      swap4\n      pop\n      pop\n      pop\n      pop\n      jump\t// out\n        /* \"#utility.yul\":6901:7233   */\n    tag_78:\n        /* \"#utility.yul\":7022:7026   */\n      0x00\n        /* \"#utility.yul\":7060:7062   */\n      0x40\n        /* \"#utility.yul\":7049:7058   */\n      dup3\n        /* \"#utility.yul\":7045:7063   */\n      add\n        /* \"#utility.yul\":7037:7063   */\n      swap1\n      pop\n        /* \"#utility.yul\":7073:7144   */\n      tag_261\n        /* \"#utility.yul\":7141:7142   */\n      0x00\n        /* \"#utility.yul\":7130:7139   */\n      dup4\n        /* \"#utility.yul\":7126:7143   */\n      add\n        /* \"#utility.yul\":7117:7123   */\n      dup6\n        /* \"#utility.yul\":7073:7144   */\n      tag_199\n      jump\t// in\n    tag_261:\n        /* \"#utility.yul\":7154:7226   */\n      tag_262\n        /* \"#utility.yul\":7222:7224   */\n      0x20\n        /* \"#utility.yul\":7211:7220   */\n      dup4\n        /* \"#utility.yul\":7207:7225   */\n      add\n        /* \"#utility.yul\":7198:7204   */\n      dup5\n        /* \"#utility.yul\":7154:7226   */\n      tag_246\n      jump\t// in\n    tag_262:\n        /* \"#utility.yul\":6901:7233   */\n      swap4\n      swap3\n      pop\n      pop\n      pop\n      jump\t// out\n        /* \"#utility.yul\":7239:7681   */\n    tag_129:\n        /* \"#utility.yul\":7388:7392   */\n      0x00\n        /* \"#utility.yul\":7426:7428   */\n      0x60\n        /* \"#utility.yul\":7415:7424   */\n      dup3\n        /* \"#utility.yul\":7411:7429   */\n      add\n        /* \"#utility.yul\":7403:7429   */\n      swap1\n      pop\n        /* \"#utility.yul\":7439:7510   */\n      tag_264\n        /* \"#utility.yul\":7507:7508   */\n      0x00\n        /* \"#utility.yul\":7496:7505   */\n      dup4\n        /* \"#utility.yul\":7492:7509   */\n      add\n        /* \"#utility.yul\":7483:7489   */\n      dup7\n        /* \"#utility.yul\":7439:7510   */\n      tag_199\n      jump\t// in\n    tag_264:\n        /* \"#utility.yul\":7520:7592   */\n      tag_265\n        /* \"#utility.yul\":7588:7590   */\n      0x20\n        /* \"#utility.yul\":7577:7586   */\n      dup4\n        /* \"#utility.yul\":7573:7591   */\n      add\n        /* \"#utility.yul\":7564:7570   */\n      dup6\n        /* \"#utility.yul\":7520:7592   */\n      tag_246\n      jump\t// in\n    tag_265:\n        /* \"#utility.yul\":7602:7674   */\n      tag_266\n        /* \"#utility.yul\":7670:7672   */\n      0x40\n        /* \"#utility.yul\":7659:7668   */\n      dup4\n        /* \"#utility.yul\":7655:7673   */\n      add\n        /* \"#utility.yul\":7646:7652   */\n      dup5\n        /* \"#utility.yul\":7602:7674   */\n      tag_246\n      jump\t// in\n    tag_266:\n        /* \"#utility.yul\":7239:7681   */\n      swap5\n      swap4\n      pop\n      pop\n      pop\n      pop\n      jump\t// out\n        /* \"#utility.yul\":7687:7897   */\n    tag_28:\n        /* \"#utility.yul\":7774:7778   */\n      0x00\n        /* \"#utility.yul\":7812:7814   */\n      0x20\n        /* \"#utility.yul\":7801:7810   */\n      dup3\n        /* \"#utility.yul\":7797:7815   */\n      add\n        /* \"#utility.yul\":7789:7815   */\n      swap1\n      pop\n        /* \"#utility.yul\":7825:7890   */\n      tag_268\n        /* \"#utility.yul\":7887:7888   */\n      0x00\n        /* \"#utility.yul\":7876:7885   */\n      dup4\n        /* \"#utility.yul\":7872:7889   */\n      add\n        /* \"#utility.yul\":7863:7869   */\n      dup5\n        /* \"#utility.yul\":7825:7890   */\n      tag_203\n      jump\t// in\n    tag_268:\n        /* \"#utility.yul\":7687:7897   */\n      swap3\n      swap2\n      pop\n      pop\n      jump\t// out\n        /* \"#utility.yul\":7903:8153   */\n    tag_24:\n        /* \"#utility.yul\":8010:8014   */\n      0x00\n        /* \"#utility.yul\":8048:8050   */\n      0x20\n        /* \"#utility.yul\":8037:8046   */\n      dup3\n        /* \"#utility.yul\":8033:8051   */\n      add\n        /* \"#utility.yul\":8025:8051   */\n      swap1\n      pop\n        /* \"#utility.yul\":8061:8146   */\n      tag_270\n        /* \"#utility.yul\":8143:8144   */\n      0x00\n        /* \"#utility.yul\":8132:8141   */\n      dup4\n        /* \"#utility.yul\":8128:8145   */\n      add\n        /* \"#utility.yul\":8119:8125   */\n      dup5\n        /* \"#utility.yul\":8061:8146   */\n      tag_207\n      jump\t// in\n    tag_270:\n        /* \"#utility.yul\":7903:8153   */\n      swap3\n      swap2\n      pop\n      pop\n      jump\t// out\n        /* \"#utility.yul\":8159:8578   */\n    tag_145:\n        /* \"#utility.yul\":8325:8329   */\n      0x00\n        /* \"#utility.yul\":8363:8365   */\n      0x20\n        /* \"#utility.yul\":8352:8361   */\n      dup3\n        /* \"#utility.yul\":8348:8366   */\n      add\n        /* \"#utility.yul\":8340:8366   */\n      swap1\n      pop\n        /* \"#utility.yul\":8412:8421   */\n      dup2\n        /* \"#utility.yul\":8406:8410   */\n      dup2\n        /* \"#utility.yul\":8402:8422   */\n      sub\n        /* \"#utility.yul\":8398:8399   */\n      0x00\n        /* \"#utility.yul\":8387:8396   */\n      dup4\n        /* \"#utility.yul\":8383:8400   */\n      add\n        /* \"#utility.yul\":8376:8423   */\n      mstore\n        /* \"#utility.yul\":8440:8571   */\n      tag_272\n        /* \"#utility.yul\":8566:8570   */\n      dup2\n        /* \"#utility.yul\":8440:8571   */\n      tag_215\n      jump\t// in\n    tag_272:\n        /* \"#utility.yul\":8432:8571   */\n      swap1\n      pop\n        /* \"#utility.yul\":8159:8578   */\n      swap2\n      swap1\n      pop\n      jump\t// out\n        /* \"#utility.yul\":8584:9003   */\n    tag_138:\n        /* \"#utility.yul\":8750:8754   */\n      0x00\n        /* \"#utility.yul\":8788:8790   */\n      0x20\n        /* \"#utility.yul\":8777:8786   */\n      dup3\n        /* \"#utility.yul\":8773:8791   */\n      add\n        /* \"#utility.yul\":8765:8791   */\n      swap1\n      pop\n        /* \"#utility.yul\":8837:8846   */\n      dup2\n        /* \"#utility.yul\":8831:8835   */\n      dup2\n        /* \"#utility.yul\":8827:8847   */\n      sub\n        /* \"#utility.yul\":8823:8824   */\n      0x00\n        /* \"#utility.yul\":8812:8821   */\n      dup4\n        /* \"#utility.yul\":8808:8825   */\n      add\n        /* \"#utility.yul\":8801:8848   */\n      mstore\n        /* \"#utility.yul\":8865:8996   */\n      tag_274\n        /* \"#utility.yul\":8991:8995   */\n      dup2\n        /* \"#utility.yul\":8865:8996   */\n      tag_221\n      jump\t// in\n    tag_274:\n        /* \"#utility.yul\":8857:8996   */\n      swap1\n      pop\n        /* \"#utility.yul\":8584:9003   */\n      swap2\n      swap1\n      pop\n      jump\t// out\n        /* \"#utility.yul\":9009:9428   */\n    tag_71:\n        /* \"#utility.yul\":9175:9179   */\n      0x00\n        /* \"#utility.yul\":9213:9215   */\n      0x20\n        /* \"#utility.yul\":9202:9211   */\n      dup3\n        /* \"#utility.yul\":9198:9216   */\n      add\n        /* \"#utility.yul\":9190:9216   */\n      swap1\n      pop\n        /* \"#utility.yul\":9262:9271   */\n      dup2\n        /* \"#utility.yul\":9256:9260   */\n      dup2\n        /* \"#utility.yul\":9252:9272   */\n      sub\n        /* \"#utility.yul\":9248:9249   */\n      0x00\n        /* \"#utility.yul\":9237:9246   */\n      dup4\n        /* \"#utility.yul\":9233:9250   */\n      add\n        /* \"#utility.yul\":9226:9273   */\n      mstore\n        /* \"#utility.yul\":9290:9421   */\n      tag_276\n        /* \"#utility.yul\":9416:9420   */\n      dup2\n        /* \"#utility.yul\":9290:9421   */\n      tag_226\n      jump\t// in\n    tag_276:\n        /* \"#utility.yul\":9282:9421   */\n      swap1\n      pop\n        /* \"#utility.yul\":9009:9428   */\n      swap2\n      swap1\n      pop\n      jump\t// out\n        /* \"#utility.yul\":9434:9853   */\n    tag_117:\n        /* \"#utility.yul\":9600:9604   */\n      0x00\n        /* \"#utility.yul\":9638:9640   */\n      0x20\n        /* \"#utility.yul\":9627:9636   */\n      dup3\n        /* \"#utility.yul\":9623:9641   */\n      add\n        /* \"#utility.yul\":9615:9641   */\n      swap1\n      pop\n        /* \"#utility.yul\":9687:9696   */\n      dup2\n        /* \"#utility.yul\":9681:9685   */\n      dup2\n        /* \"#utility.yul\":9677:9697   */\n      sub\n        /* \"#utility.yul\":9673:9674   */\n      0x00\n        /* \"#utility.yul\":9662:9671   */\n      dup4\n        /* \"#utility.yul\":9658:9675   */\n      add\n        /* \"#utility.yul\":9651:9698   */\n      mstore\n        /* \"#utility.yul\":9715:9846   */\n      tag_278\n        /* \"#utility.yul\":9841:9845   */\n      dup2\n        /* \"#utility.yul\":9715:9846   */\n      tag_231\n      jump\t// in\n    tag_278:\n        /* \"#utility.yul\":9707:9846   */\n      swap1\n      pop\n        /* \"#utility.yul\":9434:9853   */\n      swap2\n      swap1\n      pop\n      jump\t// out\n        /* \"#utility.yul\":9859:10278   */\n    tag_61:\n        /* \"#utility.yul\":10025:10029   */\n      0x00\n        /* \"#utility.yul\":10063:10065   */\n      0x20\n        /* \"#utility.yul\":10052:10061   */\n      dup3\n        /* \"#utility.yul\":10048:10066   */\n      add\n        /* \"#utility.yul\":10040:10066   */\n      swap1\n      pop\n        /* \"#utility.yul\":10112:10121   */\n      dup2\n        /* \"#utility.yul\":10106:10110   */\n      dup2\n        /* \"#utility.yul\":10102:10122   */\n      sub\n        /* \"#utility.yul\":10098:10099   */\n      0x00\n        /* \"#utility.yul\":10087:10096   */\n      dup4\n        /* \"#utility.yul\":10083:10100   */\n      add\n        /* \"#utility.yul\":10076:10123   */\n      mstore\n        /* \"#utility.yul\":10140:10271   */\n      tag_280\n        /* \"#utility.yul\":10266:10270   */\n      dup2\n        /* \"#utility.yul\":10140:10271   */\n      tag_236\n      jump\t// in\n    tag_280:\n        /* \"#utility.yul\":10132:10271   */\n      swap1\n      pop\n        /* \"#utility.yul\":9859:10278   */\n      swap2\n      swap1\n      pop\n      jump\t// out\n        /* \"#utility.yul\":10284:10703   */\n    tag_68:\n        /* \"#utility.yul\":10450:10454   */\n      0x00\n        /* \"#utility.yul\":10488:10490   */\n      0x20\n        /* \"#utility.yul\":10477:10486   */\n      dup3\n        /* \"#utility.yul\":10473:10491   */\n      add\n        /* \"#utility.yul\":10465:10491   */\n      swap1\n      pop\n        /* \"#utility.yul\":10537:10546   */\n      dup2\n        /* \"#utility.yul\":10531:10535   */\n      dup2\n        /* \"#utility.yul\":10527:10547   */\n      sub\n        /* \"#utility.yul\":10523:10524   */\n      0x00\n        /* \"#utility.yul\":10512:10521   */\n      dup4\n        /* \"#utility.yul\":10508:10525   */\n      add\n        /* \"#utility.yul\":10501:10548   */\n      mstore\n        /* \"#utility.yul\":10565:10696   */\n      tag_282\n        /* \"#utility.yul\":10691:10695   */\n      dup2\n        /* \"#utility.yul\":10565:10696   */\n      tag_241\n      jump\t// in\n    tag_282:\n        /* \"#utility.yul\":10557:10696   */\n      swap1\n      pop\n        /* \"#utility.yul\":10284:10703   */\n      swap2\n      swap1\n      pop\n      jump\t// out\n        /* \"#utility.yul\":10709:10931   */\n    tag_34:\n        /* \"#utility.yul\":10802:10806   */\n      0x00\n        /* \"#utility.yul\":10840:10842   */\n      0x20\n        /* \"#utility.yul\":10829:10838   */\n      dup3\n        /* \"#utility.yul\":10825:10843   */\n      add\n        /* \"#utility.yul\":10817:10843   */\n      swap1\n      pop\n        /* \"#utility.yul\":10853:10924   */\n      tag_284\n        /* \"#utility.yul\":10921:10922   */\n      0x00\n        /* \"#utility.yul\":10910:10919   */\n      dup4\n        /* \"#utility.yul\":10906:10923   */\n      add\n        /* \"#utility.yul\":10897:10903   */\n      dup5\n        /* \"#utility.yul\":10853:10924   */\n      tag_246\n      jump\t// in\n    tag_284:\n        /* \"#utility.yul\":10709:10931   */\n      swap3\n      swap2\n      pop\n      pop\n      jump\t// out\n        /* \"#utility.yul\":11018:11187   */\n    tag_218:\n        /* \"#utility.yul\":11102:11113   */\n      0x00\n        /* \"#utility.yul\":11136:11142   */\n      dup3\n        /* \"#utility.yul\":11131:11134   */\n      dup3\n        /* \"#utility.yul\":11124:11143   */\n      mstore\n        /* \"#utility.yul\":11176:11180   */\n      0x20\n        /* \"#utility.yul\":11171:11174   */\n      dup3\n        /* \"#utility.yul\":11167:11181   */\n      add\n        /* \"#utility.yul\":11152:11181   */\n      swap1\n      pop\n        /* \"#utility.yul\":11018:11187   */\n      swap3\n      swap2\n      pop\n      pop\n      jump\t// out\n        /* \"#utility.yul\":11193:11498   */\n    tag_76:\n        /* \"#utility.yul\":11233:11236   */\n      0x00\n        /* \"#utility.yul\":11252:11272   */\n      tag_289\n        /* \"#utility.yul\":11270:11271   */\n      dup3\n        /* \"#utility.yul\":11252:11272   */\n      tag_249\n      jump\t// in\n    tag_289:\n        /* \"#utility.yul\":11247:11272   */\n      swap2\n      pop\n        /* \"#utility.yul\":11286:11306   */\n      tag_290\n        /* \"#utility.yul\":11304:11305   */\n      dup4\n        /* \"#utility.yul\":11286:11306   */\n      tag_249\n      jump\t// in\n    tag_290:\n        /* \"#utility.yul\":11281:11306   */\n      swap3\n      pop\n        /* \"#utility.yul\":11440:11441   */\n      dup3\n        /* \"#utility.yul\":11372:11438   */\n      0xffffffffffffffffffffffffffffffffffffffffffffffffffffffffffffffff\n        /* \"#utility.yul\":11368:11442   */\n      sub\n        /* \"#utility.yul\":11365:11366   */\n      dup3\n        /* \"#utility.yul\":11362:11443   */\n      gt\n        /* \"#utility.yul\":11359:11466   */\n      iszero\n      tag_291\n      jumpi\n        /* \"#utility.yul\":11446:11464   */\n      tag_292\n      tag_293\n      jump\t// in\n    tag_292:\n        /* \"#utility.yul\":11359:11466   */\n    tag_291:\n        /* \"#utility.yul\":11490:11491   */\n      dup3\n        /* \"#utility.yul\":11487:11488   */\n      dup3\n        /* \"#utility.yul\":11483:11492   */\n      add\n        /* \"#utility.yul\":11476:11492   */\n      swap1\n      pop\n        /* \"#utility.yul\":11193:11498   */\n      swap3\n      swap2\n      pop\n      pop\n      jump\t// out\n        /* \"#utility.yul\":11504:11689   */\n    tag_110:\n        /* \"#utility.yul\":11544:11545   */\n      0x00\n        /* \"#utility.yul\":11561:11581   */\n      tag_295\n        /* \"#utility.yul\":11579:11580   */\n      dup3\n        /* \"#utility.yul\":11561:11581   */\n      tag_249\n      jump\t// in\n    tag_295:\n        /* \"#utility.yul\":11556:11581   */\n      swap2\n      pop\n        /* \"#utility.yul\":11595:11615   */\n      tag_296\n        /* \"#utility.yul\":11613:11614   */\n      dup4\n        /* \"#utility.yul\":11595:11615   */\n      tag_249\n      jump\t// in\n    tag_296:\n        /* \"#utility.yul\":11590:11615   */\n      swap3\n      pop\n        /* \"#utility.yul\":11634:11635   */\n      dup3\n        /* \"#utility.yul\":11624:11659   */\n      tag_297\n      jumpi\n        /* \"#utility.yul\":11639:11657   */\n      tag_298\n      tag_299\n      jump\t// in\n    tag_298:\n        /* \"#utility.yul\":11624:11659   */\n    tag_297:\n        /* \"#utility.yul\":11681:11682   */\n      dup3\n        /* \"#utility.yul\":11678:11679   */\n      dup3\n        /* \"#utility.yul\":11674:11683   */\n      div\n        /* \"#utility.yul\":11669:11683   */\n      swap1\n      pop\n        /* \"#utility.yul\":11504:11689   */\n      swap3\n      swap2\n      pop\n      pop\n      jump\t// out\n        /* \"#utility.yul\":11695:12043   */\n    tag_108:\n        /* \"#utility.yul\":11735:11742   */\n      0x00\n        /* \"#utility.yul\":11758:11778   */\n      tag_301\n        /* \"#utility.yul\":11776:11777   */\n      dup3\n        /* \"#utility.yul\":11758:11778   */\n      tag_249\n      jump\t// in\n    tag_301:\n        /* \"#utility.yul\":11753:11778   */\n      swap2\n      pop\n        /* \"#utility.yul\":11792:11812   */\n      tag_302\n        /* \"#utility.yul\":11810:11811   */\n      dup4\n        /* \"#utility.yul\":11792:11812   */\n      tag_249\n      jump\t// in\n    tag_302:\n        /* \"#utility.yul\":11787:11812   */\n      swap3\n      pop\n        /* \"#utility.yul\":11980:11981   */\n      dup2\n        /* \"#utility.yul\":11912:11978   */\n      0xffffffffffffffffffffffffffffffffffffffffffffffffffffffffffffffff\n        /* \"#utility.yul\":11908:11982   */\n      div\n        /* \"#utility.yul\":11905:11906   */\n      dup4\n        /* \"#utility.yul\":11902:11983   */\n      gt\n        /* \"#utility.yul\":11897:11898   */\n      dup3\n        /* \"#utility.yul\":11890:11899   */\n      iszero\n        /* \"#utility.yul\":11883:11900   */\n      iszero\n        /* \"#utility.yul\":11879:11984   */\n      and\n        /* \"#utility.yul\":11876:12007   */\n      iszero\n      tag_303\n      jumpi\n        /* \"#utility.yul\":11987:12005   */\n      tag_304\n      tag_293\n      jump\t// in\n    tag_304:\n        /* \"#utility.yul\":11876:12007   */\n    tag_303:\n        /* \"#utility.yul\":12035:12036   */\n      dup3\n        /* \"#utility.yul\":12032:12033   */\n      dup3\n        /* \"#utility.yul\":12028:12037   */\n      mul\n        /* \"#utility.yul\":12017:12037   */\n      swap1\n      pop\n        /* \"#utility.yul\":11695:12043   */\n      swap3\n      swap2\n      pop\n      pop\n      jump\t// out\n        /* \"#utility.yul\":12049:12240   */\n    tag_74:\n        /* \"#utility.yul\":12089:12093   */\n      0x00\n        /* \"#utility.yul\":12109:12129   */\n      tag_306\n        /* \"#utility.yul\":12127:12128   */\n      dup3\n        /* \"#utility.yul\":12109:12129   */\n      tag_249\n      jump\t// in\n    tag_306:\n        /* \"#utility.yul\":12104:12129   */\n      swap2\n      pop\n        /* \"#utility.yul\":12143:12163   */\n      tag_307\n        /* \"#utility.yul\":12161:12162   */\n      dup4\n        /* \"#utility.yul\":12143:12163   */\n      tag_249\n      jump\t// in\n    tag_307:\n        /* \"#utility.yul\":12138:12163   */\n      swap3\n      pop\n        /* \"#utility.yul\":12182:12183   */\n      dup3\n        /* \"#utility.yul\":12179:12180   */\n      dup3\n        /* \"#utility.yul\":12176:12184   */\n      lt\n        /* \"#utility.yul\":12173:12207   */\n      iszero\n      tag_308\n      jumpi\n        /* \"#utility.yul\":12187:12205   */\n      tag_309\n      tag_293\n      jump\t// in\n    tag_309:\n        /* \"#utility.yul\":12173:12207   */\n    tag_308:\n        /* \"#utility.yul\":12232:12233   */\n      dup3\n        /* \"#utility.yul\":12229:12230   */\n      dup3\n        /* \"#utility.yul\":12225:12234   */\n      sub\n        /* \"#utility.yul\":12217:12234   */\n      swap1\n      pop\n        /* \"#utility.yul\":12049:12240   */\n      swap3\n      swap2\n      pop\n      pop\n      jump\t// out\n        /* \"#utility.yul\":12246:12342   */\n    tag_202:\n        /* \"#utility.yul\":12283:12290   */\n      0x00\n        /* \"#utility.yul\":12312:12336   */\n      tag_311\n        /* \"#utility.yul\":12330:12335   */\n      dup3\n        /* \"#utility.yul\":12312:12336   */\n      tag_312\n      jump\t// in\n    tag_311:\n        /* \"#utility.yul\":12301:12336   */\n      swap1\n      pop\n        /* \"#utility.yul\":12246:12342   */\n      swap2\n      swap1\n      pop\n      jump\t// out\n        /* \"#utility.yul\":12348:12438   */\n    tag_206:\n        /* \"#utility.yul\":12382:12389   */\n      0x00\n        /* \"#utility.yul\":12425:12430   */\n      dup2\n        /* \"#utility.yul\":12418:12431   */\n      iszero\n        /* \"#utility.yul\":12411:12432   */\n      iszero\n        /* \"#utility.yul\":12400:12432   */\n      swap1\n      pop\n        /* \"#utility.yul\":12348:12438   */\n      swap2\n      swap1\n      pop\n      jump\t// out\n        /* \"#utility.yul\":12444:12570   */\n    tag_312:\n        /* \"#utility.yul\":12481:12488   */\n      0x00\n        /* \"#utility.yul\":12521:12563   */\n      0xffffffffffffffffffffffffffffffffffffffff\n        /* \"#utility.yul\":12514:12519   */\n      dup3\n        /* \"#utility.yul\":12510:12564   */\n      and\n        /* \"#utility.yul\":12499:12564   */\n      swap1\n      pop\n        /* \"#utility.yul\":12444:12570   */\n      swap2\n      swap1\n      pop\n      jump\t// out\n        /* \"#utility.yul\":12576:12653   */\n    tag_249:\n        /* \"#utility.yul\":12613:12620   */\n      0x00\n        /* \"#utility.yul\":12642:12647   */\n      dup2\n        /* \"#utility.yul\":12631:12647   */\n      swap1\n      pop\n        /* \"#utility.yul\":12576:12653   */\n      swap2\n      swap1\n      pop\n      jump\t// out\n        /* \"#utility.yul\":12659:12745   */\n    tag_316:\n        /* \"#utility.yul\":12694:12701   */\n      0x00\n        /* \"#utility.yul\":12734:12738   */\n      0xff\n        /* \"#utility.yul\":12727:12732   */\n      dup3\n        /* \"#utility.yul\":12723:12739   */\n      and\n        /* \"#utility.yul\":12712:12739   */\n      swap1\n      pop\n        /* \"#utility.yul\":12659:12745   */\n      swap2\n      swap1\n      pop\n      jump\t// out\n        /* \"#utility.yul\":12751:12891   */\n    tag_210:\n        /* \"#utility.yul\":12815:12824   */\n      0x00\n        /* \"#utility.yul\":12848:12885   */\n      tag_319\n        /* \"#utility.yul\":12879:12884   */\n      dup3\n        /* \"#utility.yul\":12848:12885   */\n      tag_320\n      jump\t// in\n    tag_319:\n        /* \"#utility.yul\":12835:12885   */\n      swap1\n      pop\n        /* \"#utility.yul\":12751:12891   */\n      swap2\n      swap1\n      pop\n      jump\t// out\n        /* \"#utility.yul\":12897:13018   */\n    tag_214:\n        /* \"#utility.yul\":12955:12964   */\n      0x00\n        /* \"#utility.yul\":12988:13012   */\n      tag_322\n        /* \"#utility.yul\":13006:13011   */\n      dup3\n        /* \"#utility.yul\":12988:13012   */\n      tag_249\n      jump\t// in\n    tag_322:\n        /* \"#utility.yul\":12975:13012   */\n      swap1\n      pop\n        /* \"#utility.yul\":12897:13018   */\n      swap2\n      swap1\n      pop\n      jump\t// out\n        /* \"#utility.yul\":13024:13150   */\n    tag_320:\n        /* \"#utility.yul\":13074:13083   */\n      0x00\n        /* \"#utility.yul\":13107:13144   */\n      tag_324\n        /* \"#utility.yul\":13138:13143   */\n      dup3\n        /* \"#utility.yul\":13107:13144   */\n      tag_325\n      jump\t// in\n    tag_324:\n        /* \"#utility.yul\":13094:13144   */\n      swap1\n      pop\n        /* \"#utility.yul\":13024:13150   */\n      swap2\n      swap1\n      pop\n      jump\t// out\n        /* \"#utility.yul\":13156:13269   */\n    tag_325:\n        /* \"#utility.yul\":13206:13215   */\n      0x00\n        /* \"#utility.yul\":13239:13263   */\n      tag_327\n        /* \"#utility.yul\":13257:13262   */\n      dup3\n        /* \"#utility.yul\":13239:13263   */\n      tag_312\n      jump\t// in\n    tag_327:\n        /* \"#utility.yul\":13226:13263   */\n      swap1\n      pop\n        /* \"#utility.yul\":13156:13269   */\n      swap2\n      swap1\n      pop\n      jump\t// out\n        /* \"#utility.yul\":13275:13455   */\n    tag_293:\n        /* \"#utility.yul\":13323:13400   */\n      0x4e487b7100000000000000000000000000000000000000000000000000000000\n        /* \"#utility.yul\":13320:13321   */\n      0x00\n        /* \"#utility.yul\":13313:13401   */\n      mstore\n        /* \"#utility.yul\":13420:13424   */\n      0x11\n        /* \"#utility.yul\":13417:13418   */\n      0x04\n        /* \"#utility.yul\":13410:13425   */\n      mstore\n        /* \"#utility.yul\":13444:13448   */\n      0x24\n        /* \"#utility.yul\":13441:13442   */\n      0x00\n        /* \"#utility.yul\":13434:13449   */\n      revert\n        /* \"#utility.yul\":13461:13641   */\n    tag_299:\n        /* \"#utility.yul\":13509:13586   */\n      0x4e487b7100000000000000000000000000000000000000000000000000000000\n        /* \"#utility.yul\":13506:13507   */\n      0x00\n        /* \"#utility.yul\":13499:13587   */\n      mstore\n        /* \"#utility.yul\":13606:13610   */\n      0x12\n        /* \"#utility.yul\":13603:13604   */\n      0x04\n        /* \"#utility.yul\":13596:13611   */\n      mstore\n        /* \"#utility.yul\":13630:13634   */\n      0x24\n        /* \"#utility.yul\":13627:13628   */\n      0x00\n        /* \"#utility.yul\":13620:13635   */\n      revert\n        /* \"#utility.yul\":13770:13887   */\n    tag_177:\n        /* \"#utility.yul\":13879:13880   */\n      0x00\n        /* \"#utility.yul\":13876:13877   */\n      dup1\n        /* \"#utility.yul\":13869:13881   */\n      revert\n        /* \"#utility.yul\":13893:14063   */\n    tag_220:\n        /* \"#utility.yul\":14033:14055   */\n      0x5061757361626c653a206e6f7420706175736564000000000000000000000000\n        /* \"#utility.yul\":14029:14030   */\n      0x00\n        /* \"#utility.yul\":14021:14027   */\n      dup3\n        /* \"#utility.yul\":14017:14031   */\n      add\n        /* \"#utility.yul\":14010:14056   */\n      mstore\n        /* \"#utility.yul\":13893:14063   */\n      pop\n      jump\t// out\n        /* \"#utility.yul\":14069:14294   */\n    tag_225:\n        /* \"#utility.yul\":14209:14243   */\n      0x4f776e61626c653a206e6577206f776e657220697320746865207a65726f2061\n        /* \"#utility.yul\":14205:14206   */\n      0x00\n        /* \"#utility.yul\":14197:14203   */\n      dup3\n        /* \"#utility.yul\":14193:14207   */\n      add\n        /* \"#utility.yul\":14186:14244   */\n      mstore\n        /* \"#utility.yul\":14278:14286   */\n      0x6464726573730000000000000000000000000000000000000000000000000000\n        /* \"#utility.yul\":14273:14275   */\n      0x20\n        /* \"#utility.yul\":14265:14271   */\n      dup3\n        /* \"#utility.yul\":14261:14276   */\n      add\n        /* \"#utility.yul\":14254:14287   */\n      mstore\n        /* \"#utility.yul\":14069:14294   */\n      pop\n      jump\t// out\n        /* \"#utility.yul\":14300:14474   */\n    tag_230:\n        /* \"#utility.yul\":14440:14466   */\n      0x4465706f736974206e6f7420756e6c6f636b6564207965740000000000000000\n        /* \"#utility.yul\":14436:14437   */\n      0x00\n        /* \"#utility.yul\":14428:14434   */\n      dup3\n        /* \"#utility.yul\":14424:14438   */\n      add\n        /* \"#utility.yul\":14417:14467   */\n      mstore\n        /* \"#utility.yul\":14300:14474   */\n      pop\n      jump\t// out\n        /* \"#utility.yul\":14480:14646   */\n    tag_235:\n        /* \"#utility.yul\":14620:14638   */\n      0x5061757361626c653a2070617573656400000000000000000000000000000000\n        /* \"#utility.yul\":14616:14617   */\n      0x00\n        /* \"#utility.yul\":14608:14614   */\n      dup3\n        /* \"#utility.yul\":14604:14618   */\n      add\n        /* \"#utility.yul\":14597:14639   */\n      mstore\n        /* \"#utility.yul\":14480:14646   */\n      pop\n      jump\t// out\n        /* \"#utility.yul\":14652:14834   */\n    tag_240:\n        /* \"#utility.yul\":14792:14826   */\n      0x4f776e61626c653a2063616c6c6572206973206e6f7420746865206f776e6572\n        /* \"#utility.yul\":14788:14789   */\n      0x00\n        /* \"#utility.yul\":14780:14786   */\n      dup3\n        /* \"#utility.yul\":14776:14790   */\n      add\n        /* \"#utility.yul\":14769:14827   */\n      mstore\n        /* \"#utility.yul\":14652:14834   */\n      pop\n      jump\t// out\n        /* \"#utility.yul\":14840:15008   */\n    tag_245:\n        /* \"#utility.yul\":14980:15000   */\n      0x4e6f7420656e6f756768206465706f7369740000000000000000000000000000\n        /* \"#utility.yul\":14976:14977   */\n      0x00\n        /* \"#utility.yul\":14968:14974   */\n      dup3\n        /* \"#utility.yul\":14964:14978   */\n      add\n        /* \"#utility.yul\":14957:15001   */\n      mstore\n        /* \"#utility.yul\":14840:15008   */\n      pop\n      jump\t// out\n        /* \"#utility.yul\":15014:15136   */\n    tag_161:\n        /* \"#utility.yul\":15087:15111   */\n      tag_340\n        /* \"#utility.yul\":15105:15110   */\n      dup2\n        /* \"#utility.yul\":15087:15111   */\n      tag_202\n      jump\t// in\n    tag_340:\n        /* \"#utility.yul\":15080:15085   */\n      dup2\n        /* \"#utility.yul\":15077:15112   */\n      eq\n        /* \"#utility.yul\":15067:15130   */\n      tag_341\n      jumpi\n        /* \"#utility.yul\":15126:15127   */\n      0x00\n        /* \"#utility.yul\":15123:15124   */\n      dup1\n        /* \"#utility.yul\":15116:15128   */\n      revert\n        /* \"#utility.yul\":15067:15130   */\n    tag_341:\n        /* \"#utility.yul\":15014:15136   */\n      pop\n      jump\t// out\n        /* \"#utility.yul\":15142:15258   */\n    tag_165:\n        /* \"#utility.yul\":15212:15233   */\n      tag_343\n        /* \"#utility.yul\":15227:15232   */\n      dup2\n        /* \"#utility.yul\":15212:15233   */\n      tag_206\n      jump\t// in\n    tag_343:\n        /* \"#utility.yul\":15205:15210   */\n      dup2\n        /* \"#utility.yul\":15202:15234   */\n      eq\n        /* \"#utility.yul\":15192:15252   */\n      tag_344\n      jumpi\n        /* \"#utility.yul\":15248:15249   */\n      0x00\n        /* \"#utility.yul\":15245:15246   */\n      dup1\n        /* \"#utility.yul\":15238:15250   */\n      revert\n        /* \"#utility.yul\":15192:15252   */\n    tag_344:\n        /* \"#utility.yul\":15142:15258   */\n      pop\n      jump\t// out\n        /* \"#utility.yul\":15264:15386   */\n    tag_169:\n        /* \"#utility.yul\":15337:15361   */\n      tag_346\n        /* \"#utility.yul\":15355:15360   */\n      dup2\n        /* \"#utility.yul\":15337:15361   */\n      tag_249\n      jump\t// in\n    tag_346:\n        /* \"#utility.yul\":15330:15335   */\n      dup2\n        /* \"#utility.yul\":15327:15362   */\n      eq\n        /* \"#utility.yul\":15317:15380   */\n      tag_347\n      jumpi\n        /* \"#utility.yul\":15376:15377   */\n      0x00\n        /* \"#utility.yul\":15373:15374   */\n      dup1\n        /* \"#utility.yul\":15366:15378   */\n      revert\n        /* \"#utility.yul\":15317:15380   */\n    tag_347:\n        /* \"#utility.yul\":15264:15386   */\n      pop\n      jump\t// out\n        /* \"#utility.yul\":15392:15510   */\n    tag_173:\n        /* \"#utility.yul\":15463:15485   */\n      tag_349\n        /* \"#utility.yul\":15479:15484   */\n      dup2\n        /* \"#utility.yul\":15463:15485   */\n      tag_316\n      jump\t// in\n    tag_349:\n        /* \"#utility.yul\":15456:15461   */\n      dup2\n        /* \"#utility.yul\":15453:15486   */\n      eq\n        /* \"#utility.yul\":15443:15504   */\n      tag_350\n      jumpi\n        /* \"#utility.yul\":15500:15501   */\n      0x00\n        /* \"#utility.yul\":15497:15498   */\n      dup1\n        /* \"#utility.yul\":15490:15502   */\n      revert\n        /* \"#utility.yul\":15443:15504   */\n    tag_350:\n        /* \"#utility.yul\":15392:15510   */\n      pop\n      jump\t// out\n\n    auxdata: 0xa2646970667358221220b5e8214cc04fd279dd4857c731013f5fe383e2d3a2585238e5ced60b071a863664736f6c63430008070033\n}\n",
				"bytecode": {
					"linkReferences": {},
					"object": "60806040523480156200001157600080fd5b50604051620017d4380380620017d483398181016040528101906200003791906200019c565b620000576200004b620000b960201b60201c565b620000c160201b60201c565b60008060146101000a81548160ff02191690831515021790555080600160006101000a81548173ffffffffffffffffffffffffffffffffffffffff021916908373ffffffffffffffffffffffffffffffffffffffff1602179055505062000221565b600033905090565b60008060009054906101000a900473ffffffffffffffffffffffffffffffffffffffff169050816000806101000a81548173ffffffffffffffffffffffffffffffffffffffff021916908373ffffffffffffffffffffffffffffffffffffffff1602179055508173ffffffffffffffffffffffffffffffffffffffff168173ffffffffffffffffffffffffffffffffffffffff167f8be0079c531659141344cd1fd0a4f28419497f9722a3daafe3b4186f6b6457e060405160405180910390a35050565b600081519050620001968162000207565b92915050565b600060208284031215620001b557620001b462000202565b5b6000620001c58482850162000185565b91505092915050565b6000620001db82620001e2565b9050919050565b600073ffffffffffffffffffffffffffffffffffffffff82169050919050565b600080fd5b6200021281620001ce565b81146200021e57600080fd5b50565b6115a380620002316000396000f3fe608060405234801561001057600080fd5b50600436106100a95760003560e01c8063715018a611610071578063715018a6146101405780638456cb591461014a5780638da5cb5b14610154578063beb8314c14610172578063e2bbb158146101a2578063f2fde38b146101be576100a9565b80633f4ba83a146100ae578063441a3e70146100b8578063451c3d80146100d45780635c975abb146100f257806369e0684814610110575b600080fd5b6100b66101da565b005b6100d260048036038101906100cd9190610e78565b610260565b005b6100dc610506565b6040516100e991906110d9565b60405180910390f35b6100fa61052c565b60405161010791906110be565b60405180910390f35b61012a60048036038101906101259190610df8565b610542565b60405161013791906111b4565b60405180910390f35b61014861054b565b005b6101526105d3565b005b61015c610659565b6040516101699190610fd5565b60405180910390f35b61018c60048036038101906101879190610db8565b610682565b60405161019991906111b4565b60405180910390f35b6101bc60048036038101906101b79190610e78565b6107a3565b005b6101d860048036038101906101d39190610d8b565b610a2f565b005b6101e2610b27565b73ffffffffffffffffffffffffffffffffffffffff16610200610659565b73ffffffffffffffffffffffffffffffffffffffff1614610256576040517f08c379a000000000000000000000000000000000000000000000000000000000815260040161024d90611174565b60405180910390fd5b61025e610b2f565b565b600033905082600260008373ffffffffffffffffffffffffffffffffffffffff1673ffffffffffffffffffffffffffffffffffffffff16815260200190815260200160002060008481526020019081526020016000206000015410156102fb576040517f08c379a00000000000000000000000000000000000000000000000000000000081526004016102f290611194565b60405180910390fd5b42600260008373ffffffffffffffffffffffffffffffffffffffff1673ffffffffffffffffffffffffffffffffffffffff1681526020019081526020016000206000848152602001908152602001600020600201541115610391576040517f08c379a000000000000000000000000000000000000000000000000000000000815260040161038890611134565b60405180910390fd5b600061039d8284610682565b905083600260008473ffffffffffffffffffffffffffffffffffffffff1673ffffffffffffffffffffffffffffffffffffffff1681526020019081526020016000206000858152602001908152602001600020600001600082825461040291906112c1565b92505081905550600160009054906101000a900473ffffffffffffffffffffffffffffffffffffffff1673ffffffffffffffffffffffffffffffffffffffff1663a9059cbb83838761045491906111e0565b6040518363ffffffff1660e01b815260040161047192919061105e565b602060405180830381600087803b15801561048b57600080fd5b505af115801561049f573d6000803e3d6000fd5b505050506040513d601f19601f820116820180604052508101906104c39190610e4b565b507ff279e6a1f5e320cca91135676d9cb6e44ca8a08c0b88342bcdb1144f6511b568826000866040516104f893929190611027565b60405180910390a150505050565b600160009054906101000a900473ffffffffffffffffffffffffffffffffffffffff1681565b60008060149054906101000a900460ff16905090565b60009392505050565b610553610b27565b73ffffffffffffffffffffffffffffffffffffffff16610571610659565b73ffffffffffffffffffffffffffffffffffffffff16146105c7576040517f08c379a00000000000000000000000000000000000000000000000000000000081526004016105be90611174565b60405180910390fd5b6105d16000610bd0565b565b6105db610b27565b73ffffffffffffffffffffffffffffffffffffffff166105f9610659565b73ffffffffffffffffffffffffffffffffffffffff161461064f576040517f08c379a000000000000000000000000000000000000000000000000000000000815260040161064690611174565b60405180910390fd5b610657610c94565b565b60008060009054906101000a900473ffffffffffffffffffffffffffffffffffffffff16905090565b600080600260008573ffffffffffffffffffffffffffffffffffffffff1673ffffffffffffffffffffffffffffffffffffffff168152602001908152602001600020600084815260200190815260200160002060010154426106e491906112c1565b90506000600260008673ffffffffffffffffffffffffffffffffffffffff1673ffffffffffffffffffffffffffffffffffffffff168152602001908152602001600020600085815260200190815260200160002060000154905060006003600086815260200190815260200160002060000154905060006301e13380612710838561076f9190611267565b6107799190611236565b6107839190611236565b9050600081856107939190611267565b9050809550505050505092915050565b6107ab61052c565b156107eb576040517f08c379a00000000000000000000000000000000000000000000000000000000081526004016107e290611154565b60405180910390fd5b6000339050600160009054906101000a900473ffffffffffffffffffffffffffffffffffffffff1673ffffffffffffffffffffffffffffffffffffffff166323b872dd8230866040518463ffffffff1660e01b815260040161084f93929190610ff0565b602060405180830381600087803b15801561086957600080fd5b505af115801561087d573d6000803e3d6000fd5b505050506040513d601f19601f820116820180604052508101906108a19190610e4b565b5082600260008373ffffffffffffffffffffffffffffffffffffffff1673ffffffffffffffffffffffffffffffffffffffff1681526020019081526020016000206000848152602001908152602001600020600001600082825461090591906111e0565b9250508190555042600260008373ffffffffffffffffffffffffffffffffffffffff1673ffffffffffffffffffffffffffffffffffffffff1681526020019081526020016000206000848152602001908152602001600020600101600082825461096f91906111e0565b9250508190555060036000838152602001908152602001600020600101544261099891906111e0565b600260008373ffffffffffffffffffffffffffffffffffffffff1673ffffffffffffffffffffffffffffffffffffffff1681526020019081526020016000206000848152602001908152602001600020600201819055507f90890809c654f11d6e72a28fa60149770a0d11ec6c92319d6ceb2bb0a4ea1a15818385604051610a2293929190611087565b60405180910390a1505050565b610a37610b27565b73ffffffffffffffffffffffffffffffffffffffff16610a55610659565b73ffffffffffffffffffffffffffffffffffffffff1614610aab576040517f08c379a0000000000000000000000000000000000000000000000000000000008152600401610aa290611174565b60405180910390fd5b600073ffffffffffffffffffffffffffffffffffffffff168173ffffffffffffffffffffffffffffffffffffffff161415610b1b576040517f08c379a0000000000000000000000000000000000000000000000000000000008152600401610b1290611114565b60405180910390fd5b610b2481610bd0565b50565b600033905090565b610b3761052c565b610b76576040517f08c379a0000000000000000000000000000000000000000000000000000000008152600401610b6d906110f4565b60405180910390fd5b60008060146101000a81548160ff0219169083151502179055507f5db9ee0a495bf2e6ff9c91a7834c1ba4fdd244a5e8aa4e537bd38aeae4b073aa610bb9610b27565b604051610bc69190610fd5565b60405180910390a1565b60008060009054906101000a900473ffffffffffffffffffffffffffffffffffffffff169050816000806101000a81548173ffffffffffffffffffffffffffffffffffffffff021916908373ffffffffffffffffffffffffffffffffffffffff1602179055508173ffffffffffffffffffffffffffffffffffffffff168173ffffffffffffffffffffffffffffffffffffffff167f8be0079c531659141344cd1fd0a4f28419497f9722a3daafe3b4186f6b6457e060405160405180910390a35050565b610c9c61052c565b15610cdc576040517f08c379a0000000000000000000000000000000000000000000000000000000008152600401610cd390611154565b60405180910390fd5b6001600060146101000a81548160ff0219169083151502179055507f62e78cea01bee320cd4e420270b5ea74000d11b0c9f74754ebdbfc544b05a258610d20610b27565b604051610d2d9190610fd5565b60405180910390a1565b600081359050610d4681611511565b92915050565b600081519050610d5b81611528565b92915050565b600081359050610d708161153f565b92915050565b600081359050610d8581611556565b92915050565b600060208284031215610da157610da06113f0565b5b6000610daf84828501610d37565b91505092915050565b60008060408385031215610dcf57610dce6113f0565b5b6000610ddd85828601610d37565b9250506020610dee85828601610d61565b9150509250929050565b600080600060608486031215610e1157610e106113f0565b5b6000610e1f86828701610d37565b9350506020610e3086828701610d76565b9250506040610e4186828701610d61565b9150509250925092565b600060208284031215610e6157610e606113f0565b5b6000610e6f84828501610d4c565b91505092915050565b60008060408385031215610e8f57610e8e6113f0565b5b6000610e9d85828601610d61565b9250506020610eae85828601610d61565b9150509250929050565b610ec1816112f5565b82525050565b610ed081611307565b82525050565b610edf8161134a565b82525050565b610eee8161135c565b82525050565b6000610f016014836111cf565b9150610f0c826113f5565b602082019050919050565b6000610f246026836111cf565b9150610f2f8261141e565b604082019050919050565b6000610f476018836111cf565b9150610f528261146d565b602082019050919050565b6000610f6a6010836111cf565b9150610f7582611496565b602082019050919050565b6000610f8d6020836111cf565b9150610f98826114bf565b602082019050919050565b6000610fb06012836111cf565b9150610fbb826114e8565b602082019050919050565b610fcf81611333565b82525050565b6000602082019050610fea6000830184610eb8565b92915050565b60006060820190506110056000830186610eb8565b6110126020830185610eb8565b61101f6040830184610fc6565b949350505050565b600060608201905061103c6000830186610eb8565b6110496020830185610ee5565b6110566040830184610fc6565b949350505050565b60006040820190506110736000830185610eb8565b6110806020830184610fc6565b9392505050565b600060608201905061109c6000830186610eb8565b6110a96020830185610fc6565b6110b66040830184610fc6565b949350505050565b60006020820190506110d36000830184610ec7565b92915050565b60006020820190506110ee6000830184610ed6565b92915050565b6000602082019050818103600083015261110d81610ef4565b9050919050565b6000602082019050818103600083015261112d81610f17565b9050919050565b6000602082019050818103600083015261114d81610f3a565b9050919050565b6000602082019050818103600083015261116d81610f5d565b9050919050565b6000602082019050818103600083015261118d81610f80565b9050919050565b600060208201905081810360008301526111ad81610fa3565b9050919050565b60006020820190506111c96000830184610fc6565b92915050565b600082825260208201905092915050565b60006111eb82611333565b91506111f683611333565b9250827fffffffffffffffffffffffffffffffffffffffffffffffffffffffffffffffff0382111561122b5761122a611392565b5b828201905092915050565b600061124182611333565b915061124c83611333565b92508261125c5761125b6113c1565b5b828204905092915050565b600061127282611333565b915061127d83611333565b9250817fffffffffffffffffffffffffffffffffffffffffffffffffffffffffffffffff04831182151516156112b6576112b5611392565b5b828202905092915050565b60006112cc82611333565b91506112d783611333565b9250828210156112ea576112e9611392565b5b828203905092915050565b600061130082611313565b9050919050565b60008115159050919050565b600073ffffffffffffffffffffffffffffffffffffffff82169050919050565b6000819050919050565b600060ff82169050919050565b60006113558261136e565b9050919050565b600061136782611333565b9050919050565b600061137982611380565b9050919050565b600061138b82611313565b9050919050565b7f4e487b7100000000000000000000000000000000000000000000000000000000600052601160045260246000fd5b7f4e487b7100000000000000000000000000000000000000000000000000000000600052601260045260246000fd5b600080fd5b7f5061757361626c653a206e6f7420706175736564000000000000000000000000600082015250565b7f4f776e61626c653a206e6577206f776e657220697320746865207a65726f206160008201527f6464726573730000000000000000000000000000000000000000000000000000602082015250565b7f4465706f736974206e6f7420756e6c6f636b6564207965740000000000000000600082015250565b7f5061757361626c653a2070617573656400000000000000000000000000000000600082015250565b7f4f776e61626c653a2063616c6c6572206973206e6f7420746865206f776e6572600082015250565b7f4e6f7420656e6f756768206465706f7369740000000000000000000000000000600082015250565b61151a816112f5565b811461152557600080fd5b50565b61153181611307565b811461153c57600080fd5b50565b61154881611333565b811461155357600080fd5b50565b61155f8161133d565b811461156a57600080fd5b5056fea2646970667358221220b5e8214cc04fd279dd4857c731013f5fe383e2d3a2585238e5ced60b071a863664736f6c63430008070033",
					"opcodes": "PUSH1 0x80 PUSH1 0x40 MSTORE CALLVALUE DUP1 ISZERO PUSH3 0x11 JUMPI PUSH1 0x0 DUP1 REVERT JUMPDEST POP PUSH1 0x40 MLOAD PUSH3 0x17D4 CODESIZE SUB DUP1 PUSH3 0x17D4 DUP4 CODECOPY DUP2 DUP2 ADD PUSH1 0x40 MSTORE DUP2 ADD SWAP1 PUSH3 0x37 SWAP2 SWAP1 PUSH3 0x19C JUMP JUMPDEST PUSH3 0x57 PUSH3 0x4B PUSH3 0xB9 PUSH1 0x20 SHL PUSH1 0x20 SHR JUMP JUMPDEST PUSH3 0xC1 PUSH1 0x20 SHL PUSH1 0x20 SHR JUMP JUMPDEST PUSH1 0x0 DUP1 PUSH1 0x14 PUSH2 0x100 EXP DUP2 SLOAD DUP2 PUSH1 0xFF MUL NOT AND SWAP1 DUP4 ISZERO ISZERO MUL OR SWAP1 SSTORE POP DUP1 PUSH1 0x1 PUSH1 0x0 PUSH2 0x100 EXP DUP2 SLOAD DUP2 PUSH20 0xFFFFFFFFFFFFFFFFFFFFFFFFFFFFFFFFFFFFFFFF MUL NOT AND SWAP1 DUP4 PUSH20 0xFFFFFFFFFFFFFFFFFFFFFFFFFFFFFFFFFFFFFFFF AND MUL OR SWAP1 SSTORE POP POP PUSH3 0x221 JUMP JUMPDEST PUSH1 0x0 CALLER SWAP1 POP SWAP1 JUMP JUMPDEST PUSH1 0x0 DUP1 PUSH1 0x0 SWAP1 SLOAD SWAP1 PUSH2 0x100 EXP SWAP1 DIV PUSH20 0xFFFFFFFFFFFFFFFFFFFFFFFFFFFFFFFFFFFFFFFF AND SWAP1 POP DUP2 PUSH1 0x0 DUP1 PUSH2 0x100 EXP DUP2 SLOAD DUP2 PUSH20 0xFFFFFFFFFFFFFFFFFFFFFFFFFFFFFFFFFFFFFFFF MUL NOT AND SWAP1 DUP4 PUSH20 0xFFFFFFFFFFFFFFFFFFFFFFFFFFFFFFFFFFFFFFFF AND MUL OR SWAP1 SSTORE POP DUP2 PUSH20 0xFFFFFFFFFFFFFFFFFFFFFFFFFFFFFFFFFFFFFFFF AND DUP2 PUSH20 0xFFFFFFFFFFFFFFFFFFFFFFFFFFFFFFFFFFFFFFFF AND PUSH32 0x8BE0079C531659141344CD1FD0A4F28419497F9722A3DAAFE3B4186F6B6457E0 PUSH1 0x40 MLOAD PUSH1 0x40 MLOAD DUP1 SWAP2 SUB SWAP1 LOG3 POP POP JUMP JUMPDEST PUSH1 0x0 DUP2 MLOAD SWAP1 POP PUSH3 0x196 DUP2 PUSH3 0x207 JUMP JUMPDEST SWAP3 SWAP2 POP POP JUMP JUMPDEST PUSH1 0x0 PUSH1 0x20 DUP3 DUP5 SUB SLT ISZERO PUSH3 0x1B5 JUMPI PUSH3 0x1B4 PUSH3 0x202 JUMP JUMPDEST JUMPDEST PUSH1 0x0 PUSH3 0x1C5 DUP5 DUP3 DUP6 ADD PUSH3 0x185 JUMP JUMPDEST SWAP2 POP POP SWAP3 SWAP2 POP POP JUMP JUMPDEST PUSH1 0x0 PUSH3 0x1DB DUP3 PUSH3 0x1E2 JUMP JUMPDEST SWAP1 POP SWAP2 SWAP1 POP JUMP JUMPDEST PUSH1 0x0 PUSH20 0xFFFFFFFFFFFFFFFFFFFFFFFFFFFFFFFFFFFFFFFF DUP3 AND SWAP1 POP SWAP2 SWAP1 POP JUMP JUMPDEST PUSH1 0x0 DUP1 REVERT JUMPDEST PUSH3 0x212 DUP2 PUSH3 0x1CE JUMP JUMPDEST DUP2 EQ PUSH3 0x21E JUMPI PUSH1 0x0 DUP1 REVERT JUMPDEST POP JUMP JUMPDEST PUSH2 0x15A3 DUP1 PUSH3 0x231 PUSH1 0x0 CODECOPY PUSH1 0x0 RETURN INVALID PUSH1 0x80 PUSH1 0x40 MSTORE CALLVALUE DUP1 ISZERO PUSH2 0x10 JUMPI PUSH1 0x0 DUP1 REVERT JUMPDEST POP PUSH1 0x4 CALLDATASIZE LT PUSH2 0xA9 JUMPI PUSH1 0x0 CALLDATALOAD PUSH1 0xE0 SHR DUP1 PUSH4 0x715018A6 GT PUSH2 0x71 JUMPI DUP1 PUSH4 0x715018A6 EQ PUSH2 0x140 JUMPI DUP1 PUSH4 0x8456CB59 EQ PUSH2 0x14A JUMPI DUP1 PUSH4 0x8DA5CB5B EQ PUSH2 0x154 JUMPI DUP1 PUSH4 0xBEB8314C EQ PUSH2 0x172 JUMPI DUP1 PUSH4 0xE2BBB158 EQ PUSH2 0x1A2 JUMPI DUP1 PUSH4 0xF2FDE38B EQ PUSH2 0x1BE JUMPI PUSH2 0xA9 JUMP JUMPDEST DUP1 PUSH4 0x3F4BA83A EQ PUSH2 0xAE JUMPI DUP1 PUSH4 0x441A3E70 EQ PUSH2 0xB8 JUMPI DUP1 PUSH4 0x451C3D80 EQ PUSH2 0xD4 JUMPI DUP1 PUSH4 0x5C975ABB EQ PUSH2 0xF2 JUMPI DUP1 PUSH4 0x69E06848 EQ PUSH2 0x110 JUMPI JUMPDEST PUSH1 0x0 DUP1 REVERT JUMPDEST PUSH2 0xB6 PUSH2 0x1DA JUMP JUMPDEST STOP JUMPDEST PUSH2 0xD2 PUSH1 0x4 DUP1 CALLDATASIZE SUB DUP2 ADD SWAP1 PUSH2 0xCD SWAP2 SWAP1 PUSH2 0xE78 JUMP JUMPDEST PUSH2 0x260 JUMP JUMPDEST STOP JUMPDEST PUSH2 0xDC PUSH2 0x506 JUMP JUMPDEST PUSH1 0x40 MLOAD PUSH2 0xE9 SWAP2 SWAP1 PUSH2 0x10D9 JUMP JUMPDEST PUSH1 0x40 MLOAD DUP1 SWAP2 SUB SWAP1 RETURN JUMPDEST PUSH2 0xFA PUSH2 0x52C JUMP JUMPDEST PUSH1 0x40 MLOAD PUSH2 0x107 SWAP2 SWAP1 PUSH2 0x10BE JUMP JUMPDEST PUSH1 0x40 MLOAD DUP1 SWAP2 SUB SWAP1 RETURN JUMPDEST PUSH2 0x12A PUSH1 0x4 DUP1 CALLDATASIZE SUB DUP2 ADD SWAP1 PUSH2 0x125 SWAP2 SWAP1 PUSH2 0xDF8 JUMP JUMPDEST PUSH2 0x542 JUMP JUMPDEST PUSH1 0x40 MLOAD PUSH2 0x137 SWAP2 SWAP1 PUSH2 0x11B4 JUMP JUMPDEST PUSH1 0x40 MLOAD DUP1 SWAP2 SUB SWAP1 RETURN JUMPDEST PUSH2 0x148 PUSH2 0x54B JUMP JUMPDEST STOP JUMPDEST PUSH2 0x152 PUSH2 0x5D3 JUMP JUMPDEST STOP JUMPDEST PUSH2 0x15C PUSH2 0x659 JUMP JUMPDEST PUSH1 0x40 MLOAD PUSH2 0x169 SWAP2 SWAP1 PUSH2 0xFD5 JUMP JUMPDEST PUSH1 0x40 MLOAD DUP1 SWAP2 SUB SWAP1 RETURN JUMPDEST PUSH2 0x18C PUSH1 0x4 DUP1 CALLDATASIZE SUB DUP2 ADD SWAP1 PUSH2 0x187 SWAP2 SWAP1 PUSH2 0xDB8 JUMP JUMPDEST PUSH2 0x682 JUMP JUMPDEST PUSH1 0x40 MLOAD PUSH2 0x199 SWAP2 SWAP1 PUSH2 0x11B4 JUMP JUMPDEST PUSH1 0x40 MLOAD DUP1 SWAP2 SUB SWAP1 RETURN JUMPDEST PUSH2 0x1BC PUSH1 0x4 DUP1 CALLDATASIZE SUB DUP2 ADD SWAP1 PUSH2 0x1B7 SWAP2 SWAP1 PUSH2 0xE78 JUMP JUMPDEST PUSH2 0x7A3 JUMP JUMPDEST STOP JUMPDEST PUSH2 0x1D8 PUSH1 0x4 DUP1 CALLDATASIZE SUB DUP2 ADD SWAP1 PUSH2 0x1D3 SWAP2 SWAP1 PUSH2 0xD8B JUMP JUMPDEST PUSH2 0xA2F JUMP JUMPDEST STOP JUMPDEST PUSH2 0x1E2 PUSH2 0xB27 JUMP JUMPDEST PUSH20 0xFFFFFFFFFFFFFFFFFFFFFFFFFFFFFFFFFFFFFFFF AND PUSH2 0x200 PUSH2 0x659 JUMP JUMPDEST PUSH20 0xFFFFFFFFFFFFFFFFFFFFFFFFFFFFFFFFFFFFFFFF AND EQ PUSH2 0x256 JUMPI PUSH1 0x40 MLOAD PUSH32 0x8C379A000000000000000000000000000000000000000000000000000000000 DUP2 MSTORE PUSH1 0x4 ADD PUSH2 0x24D SWAP1 PUSH2 0x1174 JUMP JUMPDEST PUSH1 0x40 MLOAD DUP1 SWAP2 SUB SWAP1 REVERT JUMPDEST PUSH2 0x25E PUSH2 0xB2F JUMP JUMPDEST JUMP JUMPDEST PUSH1 0x0 CALLER SWAP1 POP DUP3 PUSH1 0x2 PUSH1 0x0 DUP4 PUSH20 0xFFFFFFFFFFFFFFFFFFFFFFFFFFFFFFFFFFFFFFFF AND PUSH20 0xFFFFFFFFFFFFFFFFFFFFFFFFFFFFFFFFFFFFFFFF AND DUP2 MSTORE PUSH1 0x20 ADD SWAP1 DUP2 MSTORE PUSH1 0x20 ADD PUSH1 0x0 KECCAK256 PUSH1 0x0 DUP5 DUP2 MSTORE PUSH1 0x20 ADD SWAP1 DUP2 MSTORE PUSH1 0x20 ADD PUSH1 0x0 KECCAK256 PUSH1 0x0 ADD SLOAD LT ISZERO PUSH2 0x2FB JUMPI PUSH1 0x40 MLOAD PUSH32 0x8C379A000000000000000000000000000000000000000000000000000000000 DUP2 MSTORE PUSH1 0x4 ADD PUSH2 0x2F2 SWAP1 PUSH2 0x1194 JUMP JUMPDEST PUSH1 0x40 MLOAD DUP1 SWAP2 SUB SWAP1 REVERT JUMPDEST TIMESTAMP PUSH1 0x2 PUSH1 0x0 DUP4 PUSH20 0xFFFFFFFFFFFFFFFFFFFFFFFFFFFFFFFFFFFFFFFF AND PUSH20 0xFFFFFFFFFFFFFFFFFFFFFFFFFFFFFFFFFFFFFFFF AND DUP2 MSTORE PUSH1 0x20 ADD SWAP1 DUP2 MSTORE PUSH1 0x20 ADD PUSH1 0x0 KECCAK256 PUSH1 0x0 DUP5 DUP2 MSTORE PUSH1 0x20 ADD SWAP1 DUP2 MSTORE PUSH1 0x20 ADD PUSH1 0x0 KECCAK256 PUSH1 0x2 ADD SLOAD GT ISZERO PUSH2 0x391 JUMPI PUSH1 0x40 MLOAD PUSH32 0x8C379A000000000000000000000000000000000000000000000000000000000 DUP2 MSTORE PUSH1 0x4 ADD PUSH2 0x388 SWAP1 PUSH2 0x1134 JUMP JUMPDEST PUSH1 0x40 MLOAD DUP1 SWAP2 SUB SWAP1 REVERT JUMPDEST PUSH1 0x0 PUSH2 0x39D DUP3 DUP5 PUSH2 0x682 JUMP JUMPDEST SWAP1 POP DUP4 PUSH1 0x2 PUSH1 0x0 DUP5 PUSH20 0xFFFFFFFFFFFFFFFFFFFFFFFFFFFFFFFFFFFFFFFF AND PUSH20 0xFFFFFFFFFFFFFFFFFFFFFFFFFFFFFFFFFFFFFFFF AND DUP2 MSTORE PUSH1 0x20 ADD SWAP1 DUP2 MSTORE PUSH1 0x20 ADD PUSH1 0x0 KECCAK256 PUSH1 0x0 DUP6 DUP2 MSTORE PUSH1 0x20 ADD SWAP1 DUP2 MSTORE PUSH1 0x20 ADD PUSH1 0x0 KECCAK256 PUSH1 0x0 ADD PUSH1 0x0 DUP3 DUP3 SLOAD PUSH2 0x402 SWAP2 SWAP1 PUSH2 0x12C1 JUMP JUMPDEST SWAP3 POP POP DUP2 SWAP1 SSTORE POP PUSH1 0x1 PUSH1 0x0 SWAP1 SLOAD SWAP1 PUSH2 0x100 EXP SWAP1 DIV PUSH20 0xFFFFFFFFFFFFFFFFFFFFFFFFFFFFFFFFFFFFFFFF AND PUSH20 0xFFFFFFFFFFFFFFFFFFFFFFFFFFFFFFFFFFFFFFFF AND PUSH4 0xA9059CBB DUP4 DUP4 DUP8 PUSH2 0x454 SWAP2 SWAP1 PUSH2 0x11E0 JUMP JUMPDEST PUSH1 0x40 MLOAD DUP4 PUSH4 0xFFFFFFFF AND PUSH1 0xE0 SHL DUP2 MSTORE PUSH1 0x4 ADD PUSH2 0x471 SWAP3 SWAP2 SWAP1 PUSH2 0x105E JUMP JUMPDEST PUSH1 0x20 PUSH1 0x40 MLOAD DUP1 DUP4 SUB DUP2 PUSH1 0x0 DUP8 DUP1 EXTCODESIZE ISZERO DUP1 ISZERO PUSH2 0x48B JUMPI PUSH1 0x0 DUP1 REVERT JUMPDEST POP GAS CALL ISZERO DUP1 ISZERO PUSH2 0x49F JUMPI RETURNDATASIZE PUSH1 0x0 DUP1 RETURNDATACOPY RETURNDATASIZE PUSH1 0x0 REVERT JUMPDEST POP POP POP POP PUSH1 0x40 MLOAD RETURNDATASIZE PUSH1 0x1F NOT PUSH1 0x1F DUP3 ADD AND DUP3 ADD DUP1 PUSH1 0x40 MSTORE POP DUP2 ADD SWAP1 PUSH2 0x4C3 SWAP2 SWAP1 PUSH2 0xE4B JUMP JUMPDEST POP PUSH32 0xF279E6A1F5E320CCA91135676D9CB6E44CA8A08C0B88342BCDB1144F6511B568 DUP3 PUSH1 0x0 DUP7 PUSH1 0x40 MLOAD PUSH2 0x4F8 SWAP4 SWAP3 SWAP2 SWAP1 PUSH2 0x1027 JUMP JUMPDEST PUSH1 0x40 MLOAD DUP1 SWAP2 SUB SWAP1 LOG1 POP POP POP POP JUMP JUMPDEST PUSH1 0x1 PUSH1 0x0 SWAP1 SLOAD SWAP1 PUSH2 0x100 EXP SWAP1 DIV PUSH20 0xFFFFFFFFFFFFFFFFFFFFFFFFFFFFFFFFFFFFFFFF AND DUP2 JUMP JUMPDEST PUSH1 0x0 DUP1 PUSH1 0x14 SWAP1 SLOAD SWAP1 PUSH2 0x100 EXP SWAP1 DIV PUSH1 0xFF AND SWAP1 POP SWAP1 JUMP JUMPDEST PUSH1 0x0 SWAP4 SWAP3 POP POP POP JUMP JUMPDEST PUSH2 0x553 PUSH2 0xB27 JUMP JUMPDEST PUSH20 0xFFFFFFFFFFFFFFFFFFFFFFFFFFFFFFFFFFFFFFFF AND PUSH2 0x571 PUSH2 0x659 JUMP JUMPDEST PUSH20 0xFFFFFFFFFFFFFFFFFFFFFFFFFFFFFFFFFFFFFFFF AND EQ PUSH2 0x5C7 JUMPI PUSH1 0x40 MLOAD PUSH32 0x8C379A000000000000000000000000000000000000000000000000000000000 DUP2 MSTORE PUSH1 0x4 ADD PUSH2 0x5BE SWAP1 PUSH2 0x1174 JUMP JUMPDEST PUSH1 0x40 MLOAD DUP1 SWAP2 SUB SWAP1 REVERT JUMPDEST PUSH2 0x5D1 PUSH1 0x0 PUSH2 0xBD0 JUMP JUMPDEST JUMP JUMPDEST PUSH2 0x5DB PUSH2 0xB27 JUMP JUMPDEST PUSH20 0xFFFFFFFFFFFFFFFFFFFFFFFFFFFFFFFFFFFFFFFF AND PUSH2 0x5F9 PUSH2 0x659 JUMP JUMPDEST PUSH20 0xFFFFFFFFFFFFFFFFFFFFFFFFFFFFFFFFFFFFFFFF AND EQ PUSH2 0x64F JUMPI PUSH1 0x40 MLOAD PUSH32 0x8C379A000000000000000000000000000000000000000000000000000000000 DUP2 MSTORE PUSH1 0x4 ADD PUSH2 0x646 SWAP1 PUSH2 0x1174 JUMP JUMPDEST PUSH1 0x40 MLOAD DUP1 SWAP2 SUB SWAP1 REVERT JUMPDEST PUSH2 0x657 PUSH2 0xC94 JUMP JUMPDEST JUMP JUMPDEST PUSH1 0x0 DUP1 PUSH1 0x0 SWAP1 SLOAD SWAP1 PUSH2 0x100 EXP SWAP1 DIV PUSH20 0xFFFFFFFFFFFFFFFFFFFFFFFFFFFFFFFFFFFFFFFF AND SWAP1 POP SWAP1 JUMP JUMPDEST PUSH1 0x0 DUP1 PUSH1 0x2 PUSH1 0x0 DUP6 PUSH20 0xFFFFFFFFFFFFFFFFFFFFFFFFFFFFFFFFFFFFFFFF AND PUSH20 0xFFFFFFFFFFFFFFFFFFFFFFFFFFFFFFFFFFFFFFFF AND DUP2 MSTORE PUSH1 0x20 ADD SWAP1 DUP2 MSTORE PUSH1 0x20 ADD PUSH1 0x0 KECCAK256 PUSH1 0x0 DUP5 DUP2 MSTORE PUSH1 0x20 ADD SWAP1 DUP2 MSTORE PUSH1 0x20 ADD PUSH1 0x0 KECCAK256 PUSH1 0x1 ADD SLOAD TIMESTAMP PUSH2 0x6E4 SWAP2 SWAP1 PUSH2 0x12C1 JUMP JUMPDEST SWAP1 POP PUSH1 0x0 PUSH1 0x2 PUSH1 0x0 DUP7 PUSH20 0xFFFFFFFFFFFFFFFFFFFFFFFFFFFFFFFFFFFFFFFF AND PUSH20 0xFFFFFFFFFFFFFFFFFFFFFFFFFFFFFFFFFFFFFFFF AND DUP2 MSTORE PUSH1 0x20 ADD SWAP1 DUP2 MSTORE PUSH1 0x20 ADD PUSH1 0x0 KECCAK256 PUSH1 0x0 DUP6 DUP2 MSTORE PUSH1 0x20 ADD SWAP1 DUP2 MSTORE PUSH1 0x20 ADD PUSH1 0x0 KECCAK256 PUSH1 0x0 ADD SLOAD SWAP1 POP PUSH1 0x0 PUSH1 0x3 PUSH1 0x0 DUP7 DUP2 MSTORE PUSH1 0x20 ADD SWAP1 DUP2 MSTORE PUSH1 0x20 ADD PUSH1 0x0 KECCAK256 PUSH1 0x0 ADD SLOAD SWAP1 POP PUSH1 0x0 PUSH4 0x1E13380 PUSH2 0x2710 DUP4 DUP6 PUSH2 0x76F SWAP2 SWAP1 PUSH2 0x1267 JUMP JUMPDEST PUSH2 0x779 SWAP2 SWAP1 PUSH2 0x1236 JUMP JUMPDEST PUSH2 0x783 SWAP2 SWAP1 PUSH2 0x1236 JUMP JUMPDEST SWAP1 POP PUSH1 0x0 DUP2 DUP6 PUSH2 0x793 SWAP2 SWAP1 PUSH2 0x1267 JUMP JUMPDEST SWAP1 POP DUP1 SWAP6 POP POP POP POP POP POP SWAP3 SWAP2 POP POP JUMP JUMPDEST PUSH2 0x7AB PUSH2 0x52C JUMP JUMPDEST ISZERO PUSH2 0x7EB JUMPI PUSH1 0x40 MLOAD PUSH32 0x8C379A000000000000000000000000000000000000000000000000000000000 DUP2 MSTORE PUSH1 0x4 ADD PUSH2 0x7E2 SWAP1 PUSH2 0x1154 JUMP JUMPDEST PUSH1 0x40 MLOAD DUP1 SWAP2 SUB SWAP1 REVERT JUMPDEST PUSH1 0x0 CALLER SWAP1 POP PUSH1 0x1 PUSH1 0x0 SWAP1 SLOAD SWAP1 PUSH2 0x100 EXP SWAP1 DIV PUSH20 0xFFFFFFFFFFFFFFFFFFFFFFFFFFFFFFFFFFFFFFFF AND PUSH20 0xFFFFFFFFFFFFFFFFFFFFFFFFFFFFFFFFFFFFFFFF AND PUSH4 0x23B872DD DUP3 ADDRESS DUP7 PUSH1 0x40 MLOAD DUP5 PUSH4 0xFFFFFFFF AND PUSH1 0xE0 SHL DUP2 MSTORE PUSH1 0x4 ADD PUSH2 0x84F SWAP4 SWAP3 SWAP2 SWAP1 PUSH2 0xFF0 JUMP JUMPDEST PUSH1 0x20 PUSH1 0x40 MLOAD DUP1 DUP4 SUB DUP2 PUSH1 0x0 DUP8 DUP1 EXTCODESIZE ISZERO DUP1 ISZERO PUSH2 0x869 JUMPI PUSH1 0x0 DUP1 REVERT JUMPDEST POP GAS CALL ISZERO DUP1 ISZERO PUSH2 0x87D JUMPI RETURNDATASIZE PUSH1 0x0 DUP1 RETURNDATACOPY RETURNDATASIZE PUSH1 0x0 REVERT JUMPDEST POP POP POP POP PUSH1 0x40 MLOAD RETURNDATASIZE PUSH1 0x1F NOT PUSH1 0x1F DUP3 ADD AND DUP3 ADD DUP1 PUSH1 0x40 MSTORE POP DUP2 ADD SWAP1 PUSH2 0x8A1 SWAP2 SWAP1 PUSH2 0xE4B JUMP JUMPDEST POP DUP3 PUSH1 0x2 PUSH1 0x0 DUP4 PUSH20 0xFFFFFFFFFFFFFFFFFFFFFFFFFFFFFFFFFFFFFFFF AND PUSH20 0xFFFFFFFFFFFFFFFFFFFFFFFFFFFFFFFFFFFFFFFF AND DUP2 MSTORE PUSH1 0x20 ADD SWAP1 DUP2 MSTORE PUSH1 0x20 ADD PUSH1 0x0 KECCAK256 PUSH1 0x0 DUP5 DUP2 MSTORE PUSH1 0x20 ADD SWAP1 DUP2 MSTORE PUSH1 0x20 ADD PUSH1 0x0 KECCAK256 PUSH1 0x0 ADD PUSH1 0x0 DUP3 DUP3 SLOAD PUSH2 0x905 SWAP2 SWAP1 PUSH2 0x11E0 JUMP JUMPDEST SWAP3 POP POP DUP2 SWAP1 SSTORE POP TIMESTAMP PUSH1 0x2 PUSH1 0x0 DUP4 PUSH20 0xFFFFFFFFFFFFFFFFFFFFFFFFFFFFFFFFFFFFFFFF AND PUSH20 0xFFFFFFFFFFFFFFFFFFFFFFFFFFFFFFFFFFFFFFFF AND DUP2 MSTORE PUSH1 0x20 ADD SWAP1 DUP2 MSTORE PUSH1 0x20 ADD PUSH1 0x0 KECCAK256 PUSH1 0x0 DUP5 DUP2 MSTORE PUSH1 0x20 ADD SWAP1 DUP2 MSTORE PUSH1 0x20 ADD PUSH1 0x0 KECCAK256 PUSH1 0x1 ADD PUSH1 0x0 DUP3 DUP3 SLOAD PUSH2 0x96F SWAP2 SWAP1 PUSH2 0x11E0 JUMP JUMPDEST SWAP3 POP POP DUP2 SWAP1 SSTORE POP PUSH1 0x3 PUSH1 0x0 DUP4 DUP2 MSTORE PUSH1 0x20 ADD SWAP1 DUP2 MSTORE PUSH1 0x20 ADD PUSH1 0x0 KECCAK256 PUSH1 0x1 ADD SLOAD TIMESTAMP PUSH2 0x998 SWAP2 SWAP1 PUSH2 0x11E0 JUMP JUMPDEST PUSH1 0x2 PUSH1 0x0 DUP4 PUSH20 0xFFFFFFFFFFFFFFFFFFFFFFFFFFFFFFFFFFFFFFFF AND PUSH20 0xFFFFFFFFFFFFFFFFFFFFFFFFFFFFFFFFFFFFFFFF AND DUP2 MSTORE PUSH1 0x20 ADD SWAP1 DUP2 MSTORE PUSH1 0x20 ADD PUSH1 0x0 KECCAK256 PUSH1 0x0 DUP5 DUP2 MSTORE PUSH1 0x20 ADD SWAP1 DUP2 MSTORE PUSH1 0x20 ADD PUSH1 0x0 KECCAK256 PUSH1 0x2 ADD DUP2 SWAP1 SSTORE POP PUSH32 0x90890809C654F11D6E72A28FA60149770A0D11EC6C92319D6CEB2BB0A4EA1A15 DUP2 DUP4 DUP6 PUSH1 0x40 MLOAD PUSH2 0xA22 SWAP4 SWAP3 SWAP2 SWAP1 PUSH2 0x1087 JUMP JUMPDEST PUSH1 0x40 MLOAD DUP1 SWAP2 SUB SWAP1 LOG1 POP POP POP JUMP JUMPDEST PUSH2 0xA37 PUSH2 0xB27 JUMP JUMPDEST PUSH20 0xFFFFFFFFFFFFFFFFFFFFFFFFFFFFFFFFFFFFFFFF AND PUSH2 0xA55 PUSH2 0x659 JUMP JUMPDEST PUSH20 0xFFFFFFFFFFFFFFFFFFFFFFFFFFFFFFFFFFFFFFFF AND EQ PUSH2 0xAAB JUMPI PUSH1 0x40 MLOAD PUSH32 0x8C379A000000000000000000000000000000000000000000000000000000000 DUP2 MSTORE PUSH1 0x4 ADD PUSH2 0xAA2 SWAP1 PUSH2 0x1174 JUMP JUMPDEST PUSH1 0x40 MLOAD DUP1 SWAP2 SUB SWAP1 REVERT JUMPDEST PUSH1 0x0 PUSH20 0xFFFFFFFFFFFFFFFFFFFFFFFFFFFFFFFFFFFFFFFF AND DUP2 PUSH20 0xFFFFFFFFFFFFFFFFFFFFFFFFFFFFFFFFFFFFFFFF AND EQ ISZERO PUSH2 0xB1B JUMPI PUSH1 0x40 MLOAD PUSH32 0x8C379A000000000000000000000000000000000000000000000000000000000 DUP2 MSTORE PUSH1 0x4 ADD PUSH2 0xB12 SWAP1 PUSH2 0x1114 JUMP JUMPDEST PUSH1 0x40 MLOAD DUP1 SWAP2 SUB SWAP1 REVERT JUMPDEST PUSH2 0xB24 DUP2 PUSH2 0xBD0 JUMP JUMPDEST POP JUMP JUMPDEST PUSH1 0x0 CALLER SWAP1 POP SWAP1 JUMP JUMPDEST PUSH2 0xB37 PUSH2 0x52C JUMP JUMPDEST PUSH2 0xB76 JUMPI PUSH1 0x40 MLOAD PUSH32 0x8C379A000000000000000000000000000000000000000000000000000000000 DUP2 MSTORE PUSH1 0x4 ADD PUSH2 0xB6D SWAP1 PUSH2 0x10F4 JUMP JUMPDEST PUSH1 0x40 MLOAD DUP1 SWAP2 SUB SWAP1 REVERT JUMPDEST PUSH1 0x0 DUP1 PUSH1 0x14 PUSH2 0x100 EXP DUP2 SLOAD DUP2 PUSH1 0xFF MUL NOT AND SWAP1 DUP4 ISZERO ISZERO MUL OR SWAP1 SSTORE POP PUSH32 0x5DB9EE0A495BF2E6FF9C91A7834C1BA4FDD244A5E8AA4E537BD38AEAE4B073AA PUSH2 0xBB9 PUSH2 0xB27 JUMP JUMPDEST PUSH1 0x40 MLOAD PUSH2 0xBC6 SWAP2 SWAP1 PUSH2 0xFD5 JUMP JUMPDEST PUSH1 0x40 MLOAD DUP1 SWAP2 SUB SWAP1 LOG1 JUMP JUMPDEST PUSH1 0x0 DUP1 PUSH1 0x0 SWAP1 SLOAD SWAP1 PUSH2 0x100 EXP SWAP1 DIV PUSH20 0xFFFFFFFFFFFFFFFFFFFFFFFFFFFFFFFFFFFFFFFF AND SWAP1 POP DUP2 PUSH1 0x0 DUP1 PUSH2 0x100 EXP DUP2 SLOAD DUP2 PUSH20 0xFFFFFFFFFFFFFFFFFFFFFFFFFFFFFFFFFFFFFFFF MUL NOT AND SWAP1 DUP4 PUSH20 0xFFFFFFFFFFFFFFFFFFFFFFFFFFFFFFFFFFFFFFFF AND MUL OR SWAP1 SSTORE POP DUP2 PUSH20 0xFFFFFFFFFFFFFFFFFFFFFFFFFFFFFFFFFFFFFFFF AND DUP2 PUSH20 0xFFFFFFFFFFFFFFFFFFFFFFFFFFFFFFFFFFFFFFFF AND PUSH32 0x8BE0079C531659141344CD1FD0A4F28419497F9722A3DAAFE3B4186F6B6457E0 PUSH1 0x40 MLOAD PUSH1 0x40 MLOAD DUP1 SWAP2 SUB SWAP1 LOG3 POP POP JUMP JUMPDEST PUSH2 0xC9C PUSH2 0x52C JUMP JUMPDEST ISZERO PUSH2 0xCDC JUMPI PUSH1 0x40 MLOAD PUSH32 0x8C379A000000000000000000000000000000000000000000000000000000000 DUP2 MSTORE PUSH1 0x4 ADD PUSH2 0xCD3 SWAP1 PUSH2 0x1154 JUMP JUMPDEST PUSH1 0x40 MLOAD DUP1 SWAP2 SUB SWAP1 REVERT JUMPDEST PUSH1 0x1 PUSH1 0x0 PUSH1 0x14 PUSH2 0x100 EXP DUP2 SLOAD DUP2 PUSH1 0xFF MUL NOT AND SWAP1 DUP4 ISZERO ISZERO MUL OR SWAP1 SSTORE POP PUSH32 0x62E78CEA01BEE320CD4E420270B5EA74000D11B0C9F74754EBDBFC544B05A258 PUSH2 0xD20 PUSH2 0xB27 JUMP JUMPDEST PUSH1 0x40 MLOAD PUSH2 0xD2D SWAP2 SWAP1 PUSH2 0xFD5 JUMP JUMPDEST PUSH1 0x40 MLOAD DUP1 SWAP2 SUB SWAP1 LOG1 JUMP JUMPDEST PUSH1 0x0 DUP2 CALLDATALOAD SWAP1 POP PUSH2 0xD46 DUP2 PUSH2 0x1511 JUMP JUMPDEST SWAP3 SWAP2 POP POP JUMP JUMPDEST PUSH1 0x0 DUP2 MLOAD SWAP1 POP PUSH2 0xD5B DUP2 PUSH2 0x1528 JUMP JUMPDEST SWAP3 SWAP2 POP POP JUMP JUMPDEST PUSH1 0x0 DUP2 CALLDATALOAD SWAP1 POP PUSH2 0xD70 DUP2 PUSH2 0x153F JUMP JUMPDEST SWAP3 SWAP2 POP POP JUMP JUMPDEST PUSH1 0x0 DUP2 CALLDATALOAD SWAP1 POP PUSH2 0xD85 DUP2 PUSH2 0x1556 JUMP JUMPDEST SWAP3 SWAP2 POP POP JUMP JUMPDEST PUSH1 0x0 PUSH1 0x20 DUP3 DUP5 SUB SLT ISZERO PUSH2 0xDA1 JUMPI PUSH2 0xDA0 PUSH2 0x13F0 JUMP JUMPDEST JUMPDEST PUSH1 0x0 PUSH2 0xDAF DUP5 DUP3 DUP6 ADD PUSH2 0xD37 JUMP JUMPDEST SWAP2 POP POP SWAP3 SWAP2 POP POP JUMP JUMPDEST PUSH1 0x0 DUP1 PUSH1 0x40 DUP4 DUP6 SUB SLT ISZERO PUSH2 0xDCF JUMPI PUSH2 0xDCE PUSH2 0x13F0 JUMP JUMPDEST JUMPDEST PUSH1 0x0 PUSH2 0xDDD DUP6 DUP3 DUP7 ADD PUSH2 0xD37 JUMP JUMPDEST SWAP3 POP POP PUSH1 0x20 PUSH2 0xDEE DUP6 DUP3 DUP7 ADD PUSH2 0xD61 JUMP JUMPDEST SWAP2 POP POP SWAP3 POP SWAP3 SWAP1 POP JUMP JUMPDEST PUSH1 0x0 DUP1 PUSH1 0x0 PUSH1 0x60 DUP5 DUP7 SUB SLT ISZERO PUSH2 0xE11 JUMPI PUSH2 0xE10 PUSH2 0x13F0 JUMP JUMPDEST JUMPDEST PUSH1 0x0 PUSH2 0xE1F DUP7 DUP3 DUP8 ADD PUSH2 0xD37 JUMP JUMPDEST SWAP4 POP POP PUSH1 0x20 PUSH2 0xE30 DUP7 DUP3 DUP8 ADD PUSH2 0xD76 JUMP JUMPDEST SWAP3 POP POP PUSH1 0x40 PUSH2 0xE41 DUP7 DUP3 DUP8 ADD PUSH2 0xD61 JUMP JUMPDEST SWAP2 POP POP SWAP3 POP SWAP3 POP SWAP3 JUMP JUMPDEST PUSH1 0x0 PUSH1 0x20 DUP3 DUP5 SUB SLT ISZERO PUSH2 0xE61 JUMPI PUSH2 0xE60 PUSH2 0x13F0 JUMP JUMPDEST JUMPDEST PUSH1 0x0 PUSH2 0xE6F DUP5 DUP3 DUP6 ADD PUSH2 0xD4C JUMP JUMPDEST SWAP2 POP POP SWAP3 SWAP2 POP POP JUMP JUMPDEST PUSH1 0x0 DUP1 PUSH1 0x40 DUP4 DUP6 SUB SLT ISZERO PUSH2 0xE8F JUMPI PUSH2 0xE8E PUSH2 0x13F0 JUMP JUMPDEST JUMPDEST PUSH1 0x0 PUSH2 0xE9D DUP6 DUP3 DUP7 ADD PUSH2 0xD61 JUMP JUMPDEST SWAP3 POP POP PUSH1 0x20 PUSH2 0xEAE DUP6 DUP3 DUP7 ADD PUSH2 0xD61 JUMP JUMPDEST SWAP2 POP POP SWAP3 POP SWAP3 SWAP1 POP JUMP JUMPDEST PUSH2 0xEC1 DUP2 PUSH2 0x12F5 JUMP JUMPDEST DUP3 MSTORE POP POP JUMP JUMPDEST PUSH2 0xED0 DUP2 PUSH2 0x1307 JUMP JUMPDEST DUP3 MSTORE POP POP JUMP JUMPDEST PUSH2 0xEDF DUP2 PUSH2 0x134A JUMP JUMPDEST DUP3 MSTORE POP POP JUMP JUMPDEST PUSH2 0xEEE DUP2 PUSH2 0x135C JUMP JUMPDEST DUP3 MSTORE POP POP JUMP JUMPDEST PUSH1 0x0 PUSH2 0xF01 PUSH1 0x14 DUP4 PUSH2 0x11CF JUMP JUMPDEST SWAP2 POP PUSH2 0xF0C DUP3 PUSH2 0x13F5 JUMP JUMPDEST PUSH1 0x20 DUP3 ADD SWAP1 POP SWAP2 SWAP1 POP JUMP JUMPDEST PUSH1 0x0 PUSH2 0xF24 PUSH1 0x26 DUP4 PUSH2 0x11CF JUMP JUMPDEST SWAP2 POP PUSH2 0xF2F DUP3 PUSH2 0x141E JUMP JUMPDEST PUSH1 0x40 DUP3 ADD SWAP1 POP SWAP2 SWAP1 POP JUMP JUMPDEST PUSH1 0x0 PUSH2 0xF47 PUSH1 0x18 DUP4 PUSH2 0x11CF JUMP JUMPDEST SWAP2 POP PUSH2 0xF52 DUP3 PUSH2 0x146D JUMP JUMPDEST PUSH1 0x20 DUP3 ADD SWAP1 POP SWAP2 SWAP1 POP JUMP JUMPDEST PUSH1 0x0 PUSH2 0xF6A PUSH1 0x10 DUP4 PUSH2 0x11CF JUMP JUMPDEST SWAP2 POP PUSH2 0xF75 DUP3 PUSH2 0x1496 JUMP JUMPDEST PUSH1 0x20 DUP3 ADD SWAP1 POP SWAP2 SWAP1 POP JUMP JUMPDEST PUSH1 0x0 PUSH2 0xF8D PUSH1 0x20 DUP4 PUSH2 0x11CF JUMP JUMPDEST SWAP2 POP PUSH2 0xF98 DUP3 PUSH2 0x14BF JUMP JUMPDEST PUSH1 0x20 DUP3 ADD SWAP1 POP SWAP2 SWAP1 POP JUMP JUMPDEST PUSH1 0x0 PUSH2 0xFB0 PUSH1 0x12 DUP4 PUSH2 0x11CF JUMP JUMPDEST SWAP2 POP PUSH2 0xFBB DUP3 PUSH2 0x14E8 JUMP JUMPDEST PUSH1 0x20 DUP3 ADD SWAP1 POP SWAP2 SWAP1 POP JUMP JUMPDEST PUSH2 0xFCF DUP2 PUSH2 0x1333 JUMP JUMPDEST DUP3 MSTORE POP POP JUMP JUMPDEST PUSH1 0x0 PUSH1 0x20 DUP3 ADD SWAP1 POP PUSH2 0xFEA PUSH1 0x0 DUP4 ADD DUP5 PUSH2 0xEB8 JUMP JUMPDEST SWAP3 SWAP2 POP POP JUMP JUMPDEST PUSH1 0x0 PUSH1 0x60 DUP3 ADD SWAP1 POP PUSH2 0x1005 PUSH1 0x0 DUP4 ADD DUP7 PUSH2 0xEB8 JUMP JUMPDEST PUSH2 0x1012 PUSH1 0x20 DUP4 ADD DUP6 PUSH2 0xEB8 JUMP JUMPDEST PUSH2 0x101F PUSH1 0x40 DUP4 ADD DUP5 PUSH2 0xFC6 JUMP JUMPDEST SWAP5 SWAP4 POP POP POP POP JUMP JUMPDEST PUSH1 0x0 PUSH1 0x60 DUP3 ADD SWAP1 POP PUSH2 0x103C PUSH1 0x0 DUP4 ADD DUP7 PUSH2 0xEB8 JUMP JUMPDEST PUSH2 0x1049 PUSH1 0x20 DUP4 ADD DUP6 PUSH2 0xEE5 JUMP JUMPDEST PUSH2 0x1056 PUSH1 0x40 DUP4 ADD DUP5 PUSH2 0xFC6 JUMP JUMPDEST SWAP5 SWAP4 POP POP POP POP JUMP JUMPDEST PUSH1 0x0 PUSH1 0x40 DUP3 ADD SWAP1 POP PUSH2 0x1073 PUSH1 0x0 DUP4 ADD DUP6 PUSH2 0xEB8 JUMP JUMPDEST PUSH2 0x1080 PUSH1 0x20 DUP4 ADD DUP5 PUSH2 0xFC6 JUMP JUMPDEST SWAP4 SWAP3 POP POP POP JUMP JUMPDEST PUSH1 0x0 PUSH1 0x60 DUP3 ADD SWAP1 POP PUSH2 0x109C PUSH1 0x0 DUP4 ADD DUP7 PUSH2 0xEB8 JUMP JUMPDEST PUSH2 0x10A9 PUSH1 0x20 DUP4 ADD DUP6 PUSH2 0xFC6 JUMP JUMPDEST PUSH2 0x10B6 PUSH1 0x40 DUP4 ADD DUP5 PUSH2 0xFC6 JUMP JUMPDEST SWAP5 SWAP4 POP POP POP POP JUMP JUMPDEST PUSH1 0x0 PUSH1 0x20 DUP3 ADD SWAP1 POP PUSH2 0x10D3 PUSH1 0x0 DUP4 ADD DUP5 PUSH2 0xEC7 JUMP JUMPDEST SWAP3 SWAP2 POP POP JUMP JUMPDEST PUSH1 0x0 PUSH1 0x20 DUP3 ADD SWAP1 POP PUSH2 0x10EE PUSH1 0x0 DUP4 ADD DUP5 PUSH2 0xED6 JUMP JUMPDEST SWAP3 SWAP2 POP POP JUMP JUMPDEST PUSH1 0x0 PUSH1 0x20 DUP3 ADD SWAP1 POP DUP2 DUP2 SUB PUSH1 0x0 DUP4 ADD MSTORE PUSH2 0x110D DUP2 PUSH2 0xEF4 JUMP JUMPDEST SWAP1 POP SWAP2 SWAP1 POP JUMP JUMPDEST PUSH1 0x0 PUSH1 0x20 DUP3 ADD SWAP1 POP DUP2 DUP2 SUB PUSH1 0x0 DUP4 ADD MSTORE PUSH2 0x112D DUP2 PUSH2 0xF17 JUMP JUMPDEST SWAP1 POP SWAP2 SWAP1 POP JUMP JUMPDEST PUSH1 0x0 PUSH1 0x20 DUP3 ADD SWAP1 POP DUP2 DUP2 SUB PUSH1 0x0 DUP4 ADD MSTORE PUSH2 0x114D DUP2 PUSH2 0xF3A JUMP JUMPDEST SWAP1 POP SWAP2 SWAP1 POP JUMP JUMPDEST PUSH1 0x0 PUSH1 0x20 DUP3 ADD SWAP1 POP DUP2 DUP2 SUB PUSH1 0x0 DUP4 ADD MSTORE PUSH2 0x116D DUP2 PUSH2 0xF5D JUMP JUMPDEST SWAP1 POP SWAP2 SWAP1 POP JUMP JUMPDEST PUSH1 0x0 PUSH1 0x20 DUP3 ADD SWAP1 POP DUP2 DUP2 SUB PUSH1 0x0 DUP4 ADD MSTORE PUSH2 0x118D DUP2 PUSH2 0xF80 JUMP JUMPDEST SWAP1 POP SWAP2 SWAP1 POP JUMP JUMPDEST PUSH1 0x0 PUSH1 0x20 DUP3 ADD SWAP1 POP DUP2 DUP2 SUB PUSH1 0x0 DUP4 ADD MSTORE PUSH2 0x11AD DUP2 PUSH2 0xFA3 JUMP JUMPDEST SWAP1 POP SWAP2 SWAP1 POP JUMP JUMPDEST PUSH1 0x0 PUSH1 0x20 DUP3 ADD SWAP1 POP PUSH2 0x11C9 PUSH1 0x0 DUP4 ADD DUP5 PUSH2 0xFC6 JUMP JUMPDEST SWAP3 SWAP2 POP POP JUMP JUMPDEST PUSH1 0x0 DUP3 DUP3 MSTORE PUSH1 0x20 DUP3 ADD SWAP1 POP SWAP3 SWAP2 POP POP JUMP JUMPDEST PUSH1 0x0 PUSH2 0x11EB DUP3 PUSH2 0x1333 JUMP JUMPDEST SWAP2 POP PUSH2 0x11F6 DUP4 PUSH2 0x1333 JUMP JUMPDEST SWAP3 POP DUP3 PUSH32 0xFFFFFFFFFFFFFFFFFFFFFFFFFFFFFFFFFFFFFFFFFFFFFFFFFFFFFFFFFFFFFFFF SUB DUP3 GT ISZERO PUSH2 0x122B JUMPI PUSH2 0x122A PUSH2 0x1392 JUMP JUMPDEST JUMPDEST DUP3 DUP3 ADD SWAP1 POP SWAP3 SWAP2 POP POP JUMP JUMPDEST PUSH1 0x0 PUSH2 0x1241 DUP3 PUSH2 0x1333 JUMP JUMPDEST SWAP2 POP PUSH2 0x124C DUP4 PUSH2 0x1333 JUMP JUMPDEST SWAP3 POP DUP3 PUSH2 0x125C JUMPI PUSH2 0x125B PUSH2 0x13C1 JUMP JUMPDEST JUMPDEST DUP3 DUP3 DIV SWAP1 POP SWAP3 SWAP2 POP POP JUMP JUMPDEST PUSH1 0x0 PUSH2 0x1272 DUP3 PUSH2 0x1333 JUMP JUMPDEST SWAP2 POP PUSH2 0x127D DUP4 PUSH2 0x1333 JUMP JUMPDEST SWAP3 POP DUP2 PUSH32 0xFFFFFFFFFFFFFFFFFFFFFFFFFFFFFFFFFFFFFFFFFFFFFFFFFFFFFFFFFFFFFFFF DIV DUP4 GT DUP3 ISZERO ISZERO AND ISZERO PUSH2 0x12B6 JUMPI PUSH2 0x12B5 PUSH2 0x1392 JUMP JUMPDEST JUMPDEST DUP3 DUP3 MUL SWAP1 POP SWAP3 SWAP2 POP POP JUMP JUMPDEST PUSH1 0x0 PUSH2 0x12CC DUP3 PUSH2 0x1333 JUMP JUMPDEST SWAP2 POP PUSH2 0x12D7 DUP4 PUSH2 0x1333 JUMP JUMPDEST SWAP3 POP DUP3 DUP3 LT ISZERO PUSH2 0x12EA JUMPI PUSH2 0x12E9 PUSH2 0x1392 JUMP JUMPDEST JUMPDEST DUP3 DUP3 SUB SWAP1 POP SWAP3 SWAP2 POP POP JUMP JUMPDEST PUSH1 0x0 PUSH2 0x1300 DUP3 PUSH2 0x1313 JUMP JUMPDEST SWAP1 POP SWAP2 SWAP1 POP JUMP JUMPDEST PUSH1 0x0 DUP2 ISZERO ISZERO SWAP1 POP SWAP2 SWAP1 POP JUMP JUMPDEST PUSH1 0x0 PUSH20 0xFFFFFFFFFFFFFFFFFFFFFFFFFFFFFFFFFFFFFFFF DUP3 AND SWAP1 POP SWAP2 SWAP1 POP JUMP JUMPDEST PUSH1 0x0 DUP2 SWAP1 POP SWAP2 SWAP1 POP JUMP JUMPDEST PUSH1 0x0 PUSH1 0xFF DUP3 AND SWAP1 POP SWAP2 SWAP1 POP JUMP JUMPDEST PUSH1 0x0 PUSH2 0x1355 DUP3 PUSH2 0x136E JUMP JUMPDEST SWAP1 POP SWAP2 SWAP1 POP JUMP JUMPDEST PUSH1 0x0 PUSH2 0x1367 DUP3 PUSH2 0x1333 JUMP JUMPDEST SWAP1 POP SWAP2 SWAP1 POP JUMP JUMPDEST PUSH1 0x0 PUSH2 0x1379 DUP3 PUSH2 0x1380 JUMP JUMPDEST SWAP1 POP SWAP2 SWAP1 POP JUMP JUMPDEST PUSH1 0x0 PUSH2 0x138B DUP3 PUSH2 0x1313 JUMP JUMPDEST SWAP1 POP SWAP2 SWAP1 POP JUMP JUMPDEST PUSH32 0x4E487B7100000000000000000000000000000000000000000000000000000000 PUSH1 0x0 MSTORE PUSH1 0x11 PUSH1 0x4 MSTORE PUSH1 0x24 PUSH1 0x0 REVERT JUMPDEST PUSH32 0x4E487B7100000000000000000000000000000000000000000000000000000000 PUSH1 0x0 MSTORE PUSH1 0x12 PUSH1 0x4 MSTORE PUSH1 0x24 PUSH1 0x0 REVERT JUMPDEST PUSH1 0x0 DUP1 REVERT JUMPDEST PUSH32 0x5061757361626C653A206E6F7420706175736564000000000000000000000000 PUSH1 0x0 DUP3 ADD MSTORE POP JUMP JUMPDEST PUSH32 0x4F776E61626C653A206E6577206F776E657220697320746865207A65726F2061 PUSH1 0x0 DUP3 ADD MSTORE PUSH32 0x6464726573730000000000000000000000000000000000000000000000000000 PUSH1 0x20 DUP3 ADD MSTORE POP JUMP JUMPDEST PUSH32 0x4465706F736974206E6F7420756E6C6F636B6564207965740000000000000000 PUSH1 0x0 DUP3 ADD MSTORE POP JUMP JUMPDEST PUSH32 0x5061757361626C653A2070617573656400000000000000000000000000000000 PUSH1 0x0 DUP3 ADD MSTORE POP JUMP JUMPDEST PUSH32 0x4F776E61626C653A2063616C6C6572206973206E6F7420746865206F776E6572 PUSH1 0x0 DUP3 ADD MSTORE POP JUMP JUMPDEST PUSH32 0x4E6F7420656E6F756768206465706F7369740000000000000000000000000000 PUSH1 0x0 DUP3 ADD MSTORE POP JUMP JUMPDEST PUSH2 0x151A DUP2 PUSH2 0x12F5 JUMP JUMPDEST DUP2 EQ PUSH2 0x1525 JUMPI PUSH1 0x0 DUP1 REVERT JUMPDEST POP JUMP JUMPDEST PUSH2 0x1531 DUP2 PUSH2 0x1307 JUMP JUMPDEST DUP2 EQ PUSH2 0x153C JUMPI PUSH1 0x0 DUP1 REVERT JUMPDEST POP JUMP JUMPDEST PUSH2 0x1548 DUP2 PUSH2 0x1333 JUMP JUMPDEST DUP2 EQ PUSH2 0x1553 JUMPI PUSH1 0x0 DUP1 REVERT JUMPDEST POP JUMP JUMPDEST PUSH2 0x155F DUP2 PUSH2 0x133D JUMP JUMPDEST DUP2 EQ PUSH2 0x156A JUMPI PUSH1 0x0 DUP1 REVERT JUMPDEST POP JUMP INVALID LOG2 PUSH5 0x6970667358 0x22 SLT KECCAK256 0xB5 0xE8 0x21 0x4C 0xC0 0x4F 0xD2 PUSH26 0xDD4857C731013F5FE383E2D3A2585238E5CED60B071A86366473 PUSH16 0x6C634300080700330000000000000000 "
				},
				"gasEstimates": {
					"creation": {
						"codeDepositCost": "1107800",
						"executionCost": "infinite",
						"totalCost": "infinite"
					},
					"external": {
						"acceptedToken()": "2645",
						"calculateRewards(address,uint256)": "infinite",
						"deposit(uint256,uint256)": "infinite",
						"getInterest(address,uint8,uint256)": "infinite",
						"owner()": "2566",
						"pause()": "infinite",
						"paused()": "2596",
						"renounceOwnership()": "30374",
						"transferOwnership(address)": "30833",
						"unpause()": "infinite",
						"withdraw(uint256,uint256)": "infinite"
					}
				},
				"methodIdentifiers": {
					"acceptedToken()": "451c3d80",
					"calculateRewards(address,uint256)": "beb8314c",
					"deposit(uint256,uint256)": "e2bbb158",
					"getInterest(address,uint8,uint256)": "69e06848",
					"owner()": "8da5cb5b",
					"pause()": "8456cb59",
					"paused()": "5c975abb",
					"renounceOwnership()": "715018a6",
					"transferOwnership(address)": "f2fde38b",
					"unpause()": "3f4ba83a",
					"withdraw(uint256,uint256)": "441a3e70"
				}
			},
			"storageLayout": {
				"storage": [
					{
						"astId": 7,
						"contract": "staking.sol:AcesStaking",
						"label": "_owner",
						"offset": 0,
						"slot": "0",
						"type": "t_address"
					},
					{
						"astId": 122,
						"contract": "staking.sol:AcesStaking",
						"label": "_paused",
						"offset": 20,
						"slot": "0",
						"type": "t_bool"
					},
					{
						"astId": 308,
						"contract": "staking.sol:AcesStaking",
						"label": "acceptedToken",
						"offset": 0,
						"slot": "1",
						"type": "t_contract(IERC20)274"
					},
					{
						"astId": 327,
						"contract": "staking.sol:AcesStaking",
						"label": "userLevelDeposit",
						"offset": 0,
						"slot": "2",
						"type": "t_mapping(t_address,t_mapping(t_uint256,t_struct(User)315_storage))"
					},
					{
						"astId": 332,
						"contract": "staking.sol:AcesStaking",
						"label": "levelInfo",
						"offset": 0,
						"slot": "3",
						"type": "t_mapping(t_uint256,t_struct(Level)320_storage)"
					}
				],
				"types": {
					"t_address": {
						"encoding": "inplace",
						"label": "address",
						"numberOfBytes": "20"
					},
					"t_bool": {
						"encoding": "inplace",
						"label": "bool",
						"numberOfBytes": "1"
					},
					"t_contract(IERC20)274": {
						"encoding": "inplace",
						"label": "contract IERC20",
						"numberOfBytes": "20"
					},
					"t_mapping(t_address,t_mapping(t_uint256,t_struct(User)315_storage))": {
						"encoding": "mapping",
						"key": "t_address",
						"label": "mapping(address => mapping(uint256 => struct AcesStaking.User))",
						"numberOfBytes": "32",
						"value": "t_mapping(t_uint256,t_struct(User)315_storage)"
					},
					"t_mapping(t_uint256,t_struct(Level)320_storage)": {
						"encoding": "mapping",
						"key": "t_uint256",
						"label": "mapping(uint256 => struct AcesStaking.Level)",
						"numberOfBytes": "32",
						"value": "t_struct(Level)320_storage"
					},
					"t_mapping(t_uint256,t_struct(User)315_storage)": {
						"encoding": "mapping",
						"key": "t_uint256",
						"label": "mapping(uint256 => struct AcesStaking.User)",
						"numberOfBytes": "32",
						"value": "t_struct(User)315_storage"
					},
					"t_struct(Level)320_storage": {
						"encoding": "inplace",
						"label": "struct AcesStaking.Level",
						"members": [
							{
								"astId": 317,
								"contract": "staking.sol:AcesStaking",
								"label": "APY",
								"offset": 0,
								"slot": "0",
								"type": "t_uint256"
							},
							{
								"astId": 319,
								"contract": "staking.sol:AcesStaking",
								"label": "lockPeriod",
								"offset": 0,
								"slot": "1",
								"type": "t_uint256"
							}
						],
						"numberOfBytes": "64"
					},
					"t_struct(User)315_storage": {
						"encoding": "inplace",
						"label": "struct AcesStaking.User",
						"members": [
							{
								"astId": 310,
								"contract": "staking.sol:AcesStaking",
								"label": "balance",
								"offset": 0,
								"slot": "0",
								"type": "t_uint256"
							},
							{
								"astId": 312,
								"contract": "staking.sol:AcesStaking",
								"label": "started",
								"offset": 0,
								"slot": "1",
								"type": "t_uint256"
							},
							{
								"astId": 314,
								"contract": "staking.sol:AcesStaking",
								"label": "unlockTime",
								"offset": 0,
								"slot": "2",
								"type": "t_uint256"
							}
						],
						"numberOfBytes": "96"
					},
					"t_uint256": {
						"encoding": "inplace",
						"label": "uint256",
						"numberOfBytes": "32"
					}
				}
			},
			"userdoc": {
				"kind": "user",
				"methods": {},
				"version": 1
			}
		}
	}
}