{
	"staking.sol": {
		"AcesStaking": {
			"abi": [
				{
					"inputs": [
						{
							"internalType": "address",
							"name": "_token",
							"type": "address"
						}
					],
					"stateMutability": "nonpayable",
					"type": "constructor"
				},
				{
					"anonymous": false,
					"inputs": [
						{
							"indexed": false,
							"internalType": "address",
							"name": "user",
							"type": "address"
						},
						{
							"indexed": false,
							"internalType": "uint256",
							"name": "class",
							"type": "uint256"
						},
						{
							"indexed": false,
							"internalType": "uint256",
							"name": "amount",
							"type": "uint256"
						}
					],
					"name": "Claim",
					"type": "event"
				},
				{
					"anonymous": false,
					"inputs": [
						{
							"indexed": false,
							"internalType": "address",
							"name": "user",
							"type": "address"
						},
						{
							"indexed": false,
							"internalType": "uint256",
							"name": "class",
							"type": "uint256"
						},
						{
							"indexed": false,
							"internalType": "uint256",
							"name": "amount",
							"type": "uint256"
						}
					],
					"name": "Compound",
					"type": "event"
				},
				{
					"anonymous": false,
					"inputs": [
						{
							"indexed": false,
							"internalType": "address",
							"name": "user",
							"type": "address"
						},
						{
							"indexed": false,
							"internalType": "uint256",
							"name": "class",
							"type": "uint256"
						},
						{
							"indexed": false,
							"internalType": "uint256",
							"name": "amount",
							"type": "uint256"
						}
					],
					"name": "Deposit",
					"type": "event"
				},
				{
					"anonymous": false,
					"inputs": [
						{
							"indexed": true,
							"internalType": "address",
							"name": "previousOwner",
							"type": "address"
						},
						{
							"indexed": true,
							"internalType": "address",
							"name": "newOwner",
							"type": "address"
						}
					],
					"name": "OwnershipTransferred",
					"type": "event"
				},
				{
					"anonymous": false,
					"inputs": [
						{
							"indexed": false,
							"internalType": "address",
							"name": "account",
							"type": "address"
						}
					],
					"name": "Paused",
					"type": "event"
				},
				{
					"anonymous": false,
					"inputs": [
						{
							"indexed": false,
							"internalType": "address",
							"name": "account",
							"type": "address"
						}
					],
					"name": "Unpaused",
					"type": "event"
				},
				{
					"anonymous": false,
					"inputs": [
						{
							"indexed": false,
							"internalType": "address",
							"name": "user",
							"type": "address"
						},
						{
							"indexed": false,
							"internalType": "uint256",
							"name": "class",
							"type": "uint256"
						},
						{
							"indexed": false,
							"internalType": "uint256",
							"name": "amount",
							"type": "uint256"
						}
					],
					"name": "Withdraw",
					"type": "event"
				},
				{
					"inputs": [],
					"name": "acceptedToken",
					"outputs": [
						{
							"internalType": "contract IERC20",
							"name": "",
							"type": "address"
						}
					],
					"stateMutability": "view",
					"type": "function"
				},
				{
					"inputs": [
						{
							"internalType": "address",
							"name": "_user",
							"type": "address"
						},
						{
							"internalType": "uint256",
							"name": "_level",
							"type": "uint256"
						}
					],
					"name": "calculateRewards",
					"outputs": [
						{
							"internalType": "uint256",
							"name": "",
							"type": "uint256"
						}
					],
					"stateMutability": "view",
					"type": "function"
				},
				{
					"inputs": [
						{
							"internalType": "uint256",
							"name": "_newFee",
							"type": "uint256"
						}
					],
					"name": "changeEarlyWithdrawFee",
					"outputs": [],
					"stateMutability": "nonpayable",
					"type": "function"
				},
				{
					"inputs": [
						{
							"internalType": "uint256",
							"name": "level",
							"type": "uint256"
						},
						{
							"internalType": "uint256",
							"name": "_APY",
							"type": "uint256"
						},
						{
							"internalType": "uint256",
							"name": "_lockTime",
							"type": "uint256"
						}
					],
					"name": "changeLevelValues",
					"outputs": [],
					"stateMutability": "nonpayable",
					"type": "function"
				},
				{
					"inputs": [
						{
							"internalType": "uint256",
							"name": "_level",
							"type": "uint256"
						}
					],
					"name": "claim",
					"outputs": [],
					"stateMutability": "nonpayable",
					"type": "function"
				},
				{
					"inputs": [
						{
							"internalType": "uint256",
							"name": "_level",
							"type": "uint256"
						}
					],
					"name": "compound",
					"outputs": [],
					"stateMutability": "nonpayable",
					"type": "function"
				},
				{
					"inputs": [
						{
							"internalType": "uint256",
							"name": "_amount",
							"type": "uint256"
						},
						{
							"internalType": "uint256",
							"name": "_level",
							"type": "uint256"
						}
					],
					"name": "deposit",
					"outputs": [],
					"stateMutability": "nonpayable",
					"type": "function"
				},
				{
					"inputs": [],
					"name": "getLevelsInfo",
					"outputs": [
						{
							"components": [
								{
									"internalType": "uint256",
									"name": "APY",
									"type": "uint256"
								},
								{
									"internalType": "uint256",
									"name": "lockPeriod",
									"type": "uint256"
								}
							],
							"internalType": "struct AcesStaking.Level",
							"name": "level0",
							"type": "tuple"
						},
						{
							"components": [
								{
									"internalType": "uint256",
									"name": "APY",
									"type": "uint256"
								},
								{
									"internalType": "uint256",
									"name": "lockPeriod",
									"type": "uint256"
								}
							],
							"internalType": "struct AcesStaking.Level",
							"name": "level1",
							"type": "tuple"
						},
						{
							"components": [
								{
									"internalType": "uint256",
									"name": "APY",
									"type": "uint256"
								},
								{
									"internalType": "uint256",
									"name": "lockPeriod",
									"type": "uint256"
								}
							],
							"internalType": "struct AcesStaking.Level",
							"name": "level2",
							"type": "tuple"
						},
						{
							"components": [
								{
									"internalType": "uint256",
									"name": "APY",
									"type": "uint256"
								},
								{
									"internalType": "uint256",
									"name": "lockPeriod",
									"type": "uint256"
								}
							],
							"internalType": "struct AcesStaking.Level",
							"name": "level3",
							"type": "tuple"
						}
					],
					"stateMutability": "view",
					"type": "function"
				},
				{
					"inputs": [
						{
							"internalType": "address",
							"name": "_user",
							"type": "address"
						}
					],
					"name": "getUserInfo",
					"outputs": [
						{
							"components": [
								{
									"internalType": "uint256",
									"name": "balance",
									"type": "uint256"
								},
								{
									"internalType": "uint256",
									"name": "claimed",
									"type": "uint256"
								},
								{
									"internalType": "uint256",
									"name": "started",
									"type": "uint256"
								},
								{
									"internalType": "uint256",
									"name": "lastClaim",
									"type": "uint256"
								},
								{
									"internalType": "uint256",
									"name": "unlockTime",
									"type": "uint256"
								}
							],
							"internalType": "struct AcesStaking.User",
							"name": "level0",
							"type": "tuple"
						},
						{
							"components": [
								{
									"internalType": "uint256",
									"name": "balance",
									"type": "uint256"
								},
								{
									"internalType": "uint256",
									"name": "claimed",
									"type": "uint256"
								},
								{
									"internalType": "uint256",
									"name": "started",
									"type": "uint256"
								},
								{
									"internalType": "uint256",
									"name": "lastClaim",
									"type": "uint256"
								},
								{
									"internalType": "uint256",
									"name": "unlockTime",
									"type": "uint256"
								}
							],
							"internalType": "struct AcesStaking.User",
							"name": "level1",
							"type": "tuple"
						},
						{
							"components": [
								{
									"internalType": "uint256",
									"name": "balance",
									"type": "uint256"
								},
								{
									"internalType": "uint256",
									"name": "claimed",
									"type": "uint256"
								},
								{
									"internalType": "uint256",
									"name": "started",
									"type": "uint256"
								},
								{
									"internalType": "uint256",
									"name": "lastClaim",
									"type": "uint256"
								},
								{
									"internalType": "uint256",
									"name": "unlockTime",
									"type": "uint256"
								}
							],
							"internalType": "struct AcesStaking.User",
							"name": "level2",
							"type": "tuple"
						},
						{
							"components": [
								{
									"internalType": "uint256",
									"name": "balance",
									"type": "uint256"
								},
								{
									"internalType": "uint256",
									"name": "claimed",
									"type": "uint256"
								},
								{
									"internalType": "uint256",
									"name": "started",
									"type": "uint256"
								},
								{
									"internalType": "uint256",
									"name": "lastClaim",
									"type": "uint256"
								},
								{
									"internalType": "uint256",
									"name": "unlockTime",
									"type": "uint256"
								}
							],
							"internalType": "struct AcesStaking.User",
							"name": "level3",
							"type": "tuple"
						},
						{
							"internalType": "uint256",
							"name": "level0Rewards",
							"type": "uint256"
						},
						{
							"internalType": "uint256",
							"name": "level1Rewards",
							"type": "uint256"
						},
						{
							"internalType": "uint256",
							"name": "level2Rewards",
							"type": "uint256"
						},
						{
							"internalType": "uint256",
							"name": "level3Rewards",
							"type": "uint256"
						}
					],
					"stateMutability": "view",
					"type": "function"
				},
				{
					"inputs": [
						{
							"internalType": "uint256",
							"name": "",
							"type": "uint256"
						}
					],
					"name": "levelInfo",
					"outputs": [
						{
							"internalType": "uint256",
							"name": "APY",
							"type": "uint256"
						},
						{
							"internalType": "uint256",
							"name": "lockPeriod",
							"type": "uint256"
						}
					],
					"stateMutability": "view",
					"type": "function"
				},
				{
					"inputs": [],
					"name": "owner",
					"outputs": [
						{
							"internalType": "address",
							"name": "",
							"type": "address"
						}
					],
					"stateMutability": "view",
					"type": "function"
				},
				{
					"inputs": [],
					"name": "pause",
					"outputs": [],
					"stateMutability": "nonpayable",
					"type": "function"
				},
				{
					"inputs": [],
					"name": "paused",
					"outputs": [
						{
							"internalType": "bool",
							"name": "",
							"type": "bool"
						}
					],
					"stateMutability": "view",
					"type": "function"
				},
				{
					"inputs": [],
					"name": "renounceOwnership",
					"outputs": [],
					"stateMutability": "nonpayable",
					"type": "function"
				},
				{
					"inputs": [
						{
							"internalType": "address",
							"name": "newOwner",
							"type": "address"
						}
					],
					"name": "transferOwnership",
					"outputs": [],
					"stateMutability": "nonpayable",
					"type": "function"
				},
				{
					"inputs": [],
					"name": "unpause",
					"outputs": [],
					"stateMutability": "nonpayable",
					"type": "function"
				},
				{
					"inputs": [
						{
							"internalType": "address",
							"name": "",
							"type": "address"
						},
						{
							"internalType": "uint256",
							"name": "",
							"type": "uint256"
						}
					],
					"name": "userLevelDeposit",
					"outputs": [
						{
							"internalType": "uint256",
							"name": "balance",
							"type": "uint256"
						},
						{
							"internalType": "uint256",
							"name": "claimed",
							"type": "uint256"
						},
						{
							"internalType": "uint256",
							"name": "started",
							"type": "uint256"
						},
						{
							"internalType": "uint256",
							"name": "lastClaim",
							"type": "uint256"
						},
						{
							"internalType": "uint256",
							"name": "unlockTime",
							"type": "uint256"
						}
					],
					"stateMutability": "view",
					"type": "function"
				},
				{
					"inputs": [
						{
							"internalType": "uint256",
							"name": "_amount",
							"type": "uint256"
						},
						{
							"internalType": "uint256",
							"name": "_level",
							"type": "uint256"
						}
					],
					"name": "withdraw",
					"outputs": [],
					"stateMutability": "nonpayable",
					"type": "function"
				},
				{
					"inputs": [],
					"name": "withdrawTokens",
					"outputs": [],
					"stateMutability": "nonpayable",
					"type": "function"
				}
			],
			"devdoc": {
				"kind": "dev",
				"methods": {
					"owner()": {
						"details": "Returns the address of the current owner."
					},
					"paused()": {
						"details": "Returns true if the contract is paused, and false otherwise."
					},
					"renounceOwnership()": {
						"details": "Leaves the contract without owner. It will not be possible to call `onlyOwner` functions anymore. Can only be called by the current owner. NOTE: Renouncing ownership will leave the contract without an owner, thereby removing any functionality that is only available to the owner."
					},
					"transferOwnership(address)": {
						"details": "Transfers ownership of the contract to a new account (`newOwner`). Can only be called by the current owner."
					}
				},
				"version": 1
			},
			"evm": {
				"assembly": "    /* \"staking.sol\":224:6160  contract AcesStaking is Ownable, Pausable {... */\n  mstore(0x40, 0x80)\n    /* \"staking.sol\":378:380  10 */\n  0x0a\n    /* \"staking.sol\":351:380  uint256 earlyWithdrawFee = 10 */\n  0x02\n  sstore\n    /* \"staking.sol\":1143:1699  constructor(address _token ) {... */\n  callvalue\n  dup1\n  iszero\n  tag_1\n  jumpi\n  0x00\n  dup1\n  revert\ntag_1:\n  pop\n  mload(0x40)\n  sub(codesize, bytecodeSize)\n  dup1\n  bytecodeSize\n  dup4\n  codecopy\n  dup2\n  add\n  0x40\n  dup2\n  swap1\n  mstore\n  tag_2\n  swap2\n  tag_3\n  jump\t// in\ntag_2:\n    /* \"@openzeppelin/contracts/access/Ownable.sol\":921:953  _transferOwnership(_msgSender()) */\n  tag_8\n    /* \"@openzeppelin/contracts/utils/Context.sol\":719:729  msg.sender */\n  caller\n    /* \"@openzeppelin/contracts/access/Ownable.sol\":921:939  _transferOwnership */\n  tag_11\n    /* \"@openzeppelin/contracts/access/Ownable.sol\":921:953  _transferOwnership(_msgSender()) */\n  jump\t// in\ntag_8:\n    /* \"@openzeppelin/contracts/security/Pausable.sol\":991:996  false */\n  0x00\n    /* \"@openzeppelin/contracts/security/Pausable.sol\":981:996  _paused = false */\n  dup1\n  sload\n  not(shl(0xa0, 0xff))\n  and\n  dup2\n  sstore\n  0x01\n    /* \"staking.sol\":1182:1212  acceptedToken = IERC20(_token) */\n  dup1\n  sload\n  not(sub(shl(0xa0, 0x01), 0x01))\n  and\n  sub(shl(0xa0, 0x01), 0x01)\n  swap4\n  swap1\n  swap4\n  and\n  swap3\n  swap1\n  swap3\n  or\n  swap1\n  swap2\n  sstore\n    /* \"staking.sol\":1264:1273  levelInfo */\n  0x04\n    /* \"staking.sol\":1264:1276  levelInfo[0] */\n  0x20\n  mstore\n    /* \"staking.sol\":1283:1288  36500 */\n  0x8e94\n    /* \"staking.sol\":1264:1276  levelInfo[0] */\n  0x17ef568e3e12ab5b9c7254a8d58478811de00f9e6eb34345acd53bf8fd09d3ec\n    /* \"staking.sol\":1264:1288  levelInfo[0].APY = 36500 */\n  sstore\n    /* \"staking.sol\":1324:1331  30 days */\n  0x278d00\n    /* \"staking.sol\":1298:1321  levelInfo[0].lockPeriod */\n  0x17ef568e3e12ab5b9c7254a8d58478811de00f9e6eb34345acd53bf8fd09d3ed\n    /* \"staking.sol\":1298:1331  levelInfo[0].lockPeriod = 30 days */\n  sstore\n    /* \"staking.sol\":1403:1408  45625 */\n  0xb239\n    /* \"staking.sol\":1384:1396  levelInfo[1] */\n  0xabd6e7cb50984ff9c2f3e18a2660c3353dadf4e3291deeb275dae2cd1e44fe05\n    /* \"staking.sol\":1384:1408  levelInfo[1].APY = 45625 */\n  sstore\n    /* \"staking.sol\":1444:1451  90 days */\n  0x76a700\n    /* \"staking.sol\":1418:1441  levelInfo[1].lockPeriod */\n  0xabd6e7cb50984ff9c2f3e18a2660c3353dadf4e3291deeb275dae2cd1e44fe06\n    /* \"staking.sol\":1418:1451  levelInfo[1].lockPeriod = 90 days */\n  sstore\n    /* \"staking.sol\":1523:1528  54750 */\n  0xd5de\n    /* \"staking.sol\":1504:1516  levelInfo[2] */\n  0x91da3fd0782e51c6b3986e9e672fd566868e71f3dbc2d6c2cd6fbb3e361af2a7\n    /* \"staking.sol\":1504:1528  levelInfo[2].APY = 54750 */\n  sstore\n    /* \"staking.sol\":1564:1572  180 days */\n  0xed4e00\n    /* \"staking.sol\":1538:1561  levelInfo[2].lockPeriod */\n  0x91da3fd0782e51c6b3986e9e672fd566868e71f3dbc2d6c2cd6fbb3e361af2a8\n    /* \"staking.sol\":1538:1572  levelInfo[2].lockPeriod = 180 days */\n  sstore\n    /* \"staking.sol\":1634:1635  3 */\n  0x03\n    /* \"staking.sol\":1624:1636  levelInfo[3] */\n  swap1\n  mstore\n    /* \"staking.sol\":1643:1648  73000 */\n  0x011d28\n    /* \"staking.sol\":1624:1636  levelInfo[3] */\n  0x2e174c10e159ea99b867ce3205125c24a42d128804e4070ed6fcc8cc98166aa0\n    /* \"staking.sol\":1624:1648  levelInfo[3].APY = 73000 */\n  sstore\n    /* \"staking.sol\":1684:1692  365 days */\n  0x01e13380\n    /* \"staking.sol\":1658:1681  levelInfo[3].lockPeriod */\n  0x2e174c10e159ea99b867ce3205125c24a42d128804e4070ed6fcc8cc98166aa1\n    /* \"staking.sol\":1658:1692  levelInfo[3].lockPeriod = 365 days */\n  sstore\n    /* \"staking.sol\":224:6160  contract AcesStaking is Ownable, Pausable {... */\n  jump(tag_17)\n    /* \"@openzeppelin/contracts/access/Ownable.sol\":2270:2457  function _transferOwnership(address newOwner) internal virtual {... */\ntag_11:\n    /* \"@openzeppelin/contracts/access/Ownable.sol\":2343:2359  address oldOwner */\n  0x00\n    /* \"@openzeppelin/contracts/access/Ownable.sol\":2362:2368  _owner */\n  dup1\n  sload\n  sub(shl(0xa0, 0x01), 0x01)\n    /* \"@openzeppelin/contracts/access/Ownable.sol\":2378:2395  _owner = newOwner */\n  dup4\n  dup2\n  and\n  not(sub(shl(0xa0, 0x01), 0x01))\n  dup4\n  and\n  dup2\n  or\n  dup5\n  sstore\n    /* \"@openzeppelin/contracts/access/Ownable.sol\":2410:2450  OwnershipTransferred(oldOwner, newOwner) */\n  mload(0x40)\n    /* \"@openzeppelin/contracts/access/Ownable.sol\":2362:2368  _owner */\n  swap2\n  swap1\n  swap3\n  and\n  swap3\n  dup4\n  swap2\n    /* \"@openzeppelin/contracts/access/Ownable.sol\":2410:2450  OwnershipTransferred(oldOwner, newOwner) */\n  0x8be0079c531659141344cd1fd0a4f28419497f9722a3daafe3b4186f6b6457e0\n  swap2\n    /* \"@openzeppelin/contracts/access/Ownable.sol\":2343:2359  address oldOwner */\n  swap1\n    /* \"@openzeppelin/contracts/access/Ownable.sol\":2410:2450  OwnershipTransferred(oldOwner, newOwner) */\n  log3\n    /* \"@openzeppelin/contracts/access/Ownable.sol\":2333:2457  {... */\n  pop\n    /* \"@openzeppelin/contracts/access/Ownable.sol\":2270:2457  function _transferOwnership(address newOwner) internal virtual {... */\n  pop\n  jump\t// out\n    /* \"#utility.yul\":14:304   */\ntag_3:\n    /* \"#utility.yul\":84:90   */\n  0x00\n    /* \"#utility.yul\":137:139   */\n  0x20\n    /* \"#utility.yul\":125:134   */\n  dup3\n    /* \"#utility.yul\":116:123   */\n  dup5\n    /* \"#utility.yul\":112:135   */\n  sub\n    /* \"#utility.yul\":108:140   */\n  slt\n    /* \"#utility.yul\":105:157   */\n  iszero\n  tag_19\n  jumpi\n    /* \"#utility.yul\":153:154   */\n  0x00\n    /* \"#utility.yul\":150:151   */\n  dup1\n    /* \"#utility.yul\":143:155   */\n  revert\n    /* \"#utility.yul\":105:157   */\ntag_19:\n    /* \"#utility.yul\":179:195   */\n  dup2\n  mload\n  sub(shl(0xa0, 0x01), 0x01)\n    /* \"#utility.yul\":224:255   */\n  dup2\n  and\n    /* \"#utility.yul\":214:256   */\n  dup2\n  eq\n    /* \"#utility.yul\":204:274   */\n  tag_20\n  jumpi\n    /* \"#utility.yul\":270:271   */\n  0x00\n    /* \"#utility.yul\":267:268   */\n  dup1\n    /* \"#utility.yul\":260:272   */\n  revert\n    /* \"#utility.yul\":204:274   */\ntag_20:\n    /* \"#utility.yul\":293:298   */\n  swap4\n    /* \"#utility.yul\":14:304   */\n  swap3\n  pop\n  pop\n  pop\n  jump\t// out\ntag_17:\n    /* \"staking.sol\":224:6160  contract AcesStaking is Ownable, Pausable {... */\n  dataSize(sub_0)\n  dup1\n  dataOffset(sub_0)\n  0x00\n  codecopy\n  0x00\n  return\nstop\n\nsub_0: assembly {\n        /* \"staking.sol\":224:6160  contract AcesStaking is Ownable, Pausable {... */\n      mstore(0x40, 0x80)\n      callvalue\n      dup1\n      iszero\n      tag_1\n      jumpi\n      0x00\n      dup1\n      revert\n    tag_1:\n      pop\n      jumpi(tag_2, lt(calldatasize, 0x04))\n      shr(0xe0, calldataload(0x00))\n      dup1\n      0x8456cb59\n      gt\n      tag_22\n      jumpi\n      dup1\n      0xbeb8314c\n      gt\n      tag_23\n      jumpi\n      dup1\n      0xbeb8314c\n      eq\n      tag_17\n      jumpi\n      dup1\n      0xe2bbb158\n      eq\n      tag_18\n      jumpi\n      dup1\n      0xe788cee5\n      eq\n      tag_19\n      jumpi\n      dup1\n      0xedf501ad\n      eq\n      tag_20\n      jumpi\n      dup1\n      0xf2fde38b\n      eq\n      tag_21\n      jumpi\n      0x00\n      dup1\n      revert\n    tag_23:\n      dup1\n      0x8456cb59\n      eq\n      tag_12\n      jumpi\n      dup1\n      0x8d8f2adb\n      eq\n      tag_13\n      jumpi\n      dup1\n      0x8da5cb5b\n      eq\n      tag_14\n      jumpi\n      dup1\n      0xaa5f7e26\n      eq\n      tag_15\n      jumpi\n      dup1\n      0xaff3b697\n      eq\n      tag_16\n      jumpi\n      0x00\n      dup1\n      revert\n    tag_22:\n      dup1\n      0x441a3e70\n      gt\n      tag_24\n      jumpi\n      dup1\n      0x441a3e70\n      eq\n      tag_7\n      jumpi\n      dup1\n      0x451c3d80\n      eq\n      tag_8\n      jumpi\n      dup1\n      0x5c975abb\n      eq\n      tag_9\n      jumpi\n      dup1\n      0x6386c1c7\n      eq\n      tag_10\n      jumpi\n      dup1\n      0x715018a6\n      eq\n      tag_11\n      jumpi\n      0x00\n      dup1\n      revert\n    tag_24:\n      dup1\n      0x259ee752\n      eq\n      tag_3\n      jumpi\n      dup1\n      0x32e96203\n      eq\n      tag_4\n      jumpi\n      dup1\n      0x379607f5\n      eq\n      tag_5\n      jumpi\n      dup1\n      0x3f4ba83a\n      eq\n      tag_6\n      jumpi\n    tag_2:\n      0x00\n      dup1\n      revert\n        /* \"staking.sol\":708:776  mapping(address => mapping(uint256 => User)) public userLevelDeposit */\n    tag_3:\n      tag_25\n      tag_26\n      calldatasize\n      0x04\n      tag_27\n      jump\t// in\n    tag_26:\n      0x03\n      0x20\n      dup2\n      dup2\n      mstore\n      0x00\n      swap4\n      dup5\n      mstore\n      0x40\n      dup1\n      dup6\n      keccak256\n      swap1\n      swap2\n      mstore\n      swap2\n      dup4\n      mstore\n      swap2\n      keccak256\n      dup1\n      sload\n      0x01\n      dup3\n      add\n      sload\n      0x02\n      dup4\n      add\n      sload\n      swap4\n      dup4\n      add\n      sload\n      0x04\n      swap1\n      swap4\n      add\n      sload\n      swap2\n      swap4\n      swap1\n      swap3\n      swap1\n      swap2\n      dup6\n      jump\n    tag_25:\n      0x40\n      dup1\n      mload\n        /* \"#utility.yul\":8740:8765   */\n      swap6\n      dup7\n      mstore\n        /* \"#utility.yul\":8796:8798   */\n      0x20\n        /* \"#utility.yul\":8781:8799   */\n      dup7\n      add\n        /* \"#utility.yul\":8774:8808   */\n      swap5\n      swap1\n      swap5\n      mstore\n        /* \"#utility.yul\":8824:8842   */\n      swap3\n      dup5\n      add\n        /* \"#utility.yul\":8817:8851   */\n      swap2\n      swap1\n      swap2\n      mstore\n        /* \"#utility.yul\":8882:8884   */\n      0x60\n        /* \"#utility.yul\":8867:8885   */\n      dup4\n      add\n        /* \"#utility.yul\":8860:8894   */\n      mstore\n        /* \"#utility.yul\":8925:8928   */\n      0x80\n        /* \"#utility.yul\":8910:8929   */\n      dup3\n      add\n        /* \"#utility.yul\":8903:8938   */\n      mstore\n        /* \"#utility.yul\":8727:8730   */\n      0xa0\n        /* \"#utility.yul\":8712:8731   */\n      add\n        /* \"staking.sol\":708:776  mapping(address => mapping(uint256 => User)) public userLevelDeposit */\n    tag_29:\n      mload(0x40)\n      dup1\n      swap2\n      sub\n      swap1\n      return\n        /* \"staking.sol\":5712:5899  function changeLevelValues(uint256 level, uint256 _APY, uint256 _lockTime) external onlyOwner {... */\n    tag_4:\n      tag_31\n      tag_32\n      calldatasize\n      0x04\n      tag_33\n      jump\t// in\n    tag_32:\n      tag_34\n      jump\t// in\n    tag_31:\n      stop\n        /* \"staking.sol\":3388:3874  function claim (uint256 _level) external{... */\n    tag_5:\n      tag_31\n      tag_36\n      calldatasize\n      0x04\n      tag_37\n      jump\t// in\n    tag_36:\n      tag_38\n      jump\t// in\n        /* \"staking.sol\":1820:1884  function unpause () public onlyOwner {... */\n    tag_6:\n      tag_31\n      tag_40\n      jump\t// in\n        /* \"staking.sol\":2602:3382  function withdraw (uint256 _amount, uint256 _level) public  {... */\n    tag_7:\n      tag_31\n      tag_42\n      calldatasize\n      0x04\n      tag_43\n      jump\t// in\n    tag_42:\n      tag_44\n      jump\t// in\n        /* \"staking.sol\":317:344  IERC20 public acceptedToken */\n    tag_8:\n      sload(0x01)\n      tag_45\n      swap1\n      sub(shl(0xa0, 0x01), 0x01)\n      and\n      dup2\n      jump\n    tag_45:\n      mload(0x40)\n      sub(shl(0xa0, 0x01), 0x01)\n        /* \"#utility.yul\":2505:2537   */\n      swap1\n      swap2\n      and\n        /* \"#utility.yul\":2487:2538   */\n      dup2\n      mstore\n        /* \"#utility.yul\":2475:2477   */\n      0x20\n        /* \"#utility.yul\":2460:2478   */\n      add\n        /* \"staking.sol\":317:344  IERC20 public acceptedToken */\n      tag_29\n        /* \"#utility.yul\":2341:2544   */\n      jump\n        /* \"@openzeppelin/contracts/security/Pausable.sol\":1098:1182  function paused() public view virtual returns (bool) {... */\n    tag_9:\n        /* \"@openzeppelin/contracts/security/Pausable.sol\":1145:1149  bool */\n      0x00\n        /* \"@openzeppelin/contracts/security/Pausable.sol\":1168:1175  _paused */\n      sload\n      shl(0xa0, 0x01)\n      swap1\n      div\n      0xff\n      and\n        /* \"@openzeppelin/contracts/security/Pausable.sol\":1098:1182  function paused() public view virtual returns (bool) {... */\n      mload(0x40)\n        /* \"#utility.yul\":4081:4095   */\n      swap1\n      iszero\n        /* \"#utility.yul\":4074:4096   */\n      iszero\n        /* \"#utility.yul\":4056:4097   */\n      dup2\n      mstore\n        /* \"#utility.yul\":4044:4046   */\n      0x20\n        /* \"#utility.yul\":4029:4047   */\n      add\n        /* \"@openzeppelin/contracts/security/Pausable.sol\":1098:1182  function paused() public view virtual returns (bool) {... */\n      tag_29\n        /* \"#utility.yul\":3916:4103   */\n      jump\n        /* \"staking.sol\":4799:5429  function getUserInfo(address _user) external view returns(User memory level0,  User memory level1, User memory level2, User memory level3, uint256 level0Rewards, uint256 level1Rewards, uint256 level2Rewards, uint256 level3Rewards){... */\n    tag_10:\n      tag_53\n      tag_54\n      calldatasize\n      0x04\n      tag_55\n      jump\t// in\n    tag_54:\n      tag_56\n      jump\t// in\n    tag_53:\n      mload(0x40)\n      tag_29\n      swap9\n      swap8\n      swap7\n      swap6\n      swap5\n      swap4\n      swap3\n      swap2\n      swap1\n      tag_58\n      jump\t// in\n        /* \"@openzeppelin/contracts/access/Ownable.sol\":1668:1769  function renounceOwnership() public virtual onlyOwner {... */\n    tag_11:\n      tag_31\n      tag_60\n      jump\t// in\n        /* \"staking.sol\":1750:1810  function pause () public onlyOwner {... */\n    tag_12:\n      tag_31\n      tag_62\n      jump\t// in\n        /* \"staking.sol\":6022:6158  function withdrawTokens() external onlyOwner {... */\n    tag_13:\n      tag_31\n      tag_64\n      jump\t// in\n        /* \"@openzeppelin/contracts/access/Ownable.sol\":1036:1121  function owner() public view virtual returns (address) {... */\n    tag_14:\n        /* \"@openzeppelin/contracts/access/Ownable.sol\":1082:1089  address */\n      0x00\n        /* \"@openzeppelin/contracts/access/Ownable.sol\":1108:1114  _owner */\n      sload\n      sub(shl(0xa0, 0x01), 0x01)\n      and\n        /* \"@openzeppelin/contracts/access/Ownable.sol\":1036:1121  function owner() public view virtual returns (address) {... */\n      jump(tag_45)\n        /* \"staking.sol\":3880:4318  function compound (uint256 _level) external{... */\n    tag_15:\n      tag_31\n      tag_70\n      calldatasize\n      0x04\n      tag_37\n      jump\t// in\n    tag_70:\n      tag_71\n      jump\t// in\n        /* \"staking.sol\":5905:6016  function changeEarlyWithdrawFee(uint256 _newFee) external onlyOwner {... */\n    tag_16:\n      tag_31\n      tag_73\n      calldatasize\n      0x04\n      tag_37\n      jump\t// in\n    tag_73:\n      tag_74\n      jump\t// in\n        /* \"staking.sol\":4324:4789  function calculateRewards (address _user, uint256 _level) public view returns (uint256){... */\n    tag_17:\n      tag_75\n      tag_76\n      calldatasize\n      0x04\n      tag_27\n      jump\t// in\n    tag_76:\n      tag_77\n      jump\t// in\n    tag_75:\n      mload(0x40)\n        /* \"#utility.yul\":8192:8217   */\n      swap1\n      dup2\n      mstore\n        /* \"#utility.yul\":8180:8182   */\n      0x20\n        /* \"#utility.yul\":8165:8183   */\n      add\n        /* \"staking.sol\":4324:4789  function calculateRewards (address _user, uint256 _level) public view returns (uint256){... */\n      tag_29\n        /* \"#utility.yul\":8046:8223   */\n      jump\n        /* \"staking.sol\":1891:2596  function deposit (uint256 _amount, uint256 _level) public whenNotPaused {... */\n    tag_18:\n      tag_31\n      tag_81\n      calldatasize\n      0x04\n      tag_43\n      jump\t// in\n    tag_81:\n      tag_82\n      jump\t// in\n        /* \"staking.sol\":5435:5706  function getLevelsInfo() external view returns(Level memory level0, Level memory level1, Level memory level2, Level memory level3){... */\n    tag_19:\n      0x40\n      dup1\n      mload\n      dup1\n      dup3\n      add\n      dup3\n      mstore\n      0x00\n      dup1\n      dup3\n      mstore\n      0x20\n      swap2\n      dup3\n      add\n      dup2\n      swap1\n      mstore\n      dup3\n      mload\n      dup1\n      dup5\n      add\n      dup5\n      mstore\n      dup2\n      dup2\n      mstore\n      dup3\n      add\n      dup2\n      swap1\n      mstore\n      dup3\n      mload\n      dup1\n      dup5\n      add\n      dup5\n      mstore\n      dup2\n      dup2\n      mstore\n      dup3\n      add\n      dup2\n      swap1\n      mstore\n      dup3\n      mload\n      dup1\n      dup5\n      add\n      dup5\n      mstore\n      dup2\n      dup2\n      mstore\n      dup3\n      add\n      dup2\n      swap1\n      mstore\n        /* \"staking.sol\":5575:5596  level0 = levelInfo[0] */\n      dup3\n      mload\n      dup1\n      dup5\n      add\n      dup5\n      mstore\n        /* \"staking.sol\":5584:5596  levelInfo[0] */\n      0x17ef568e3e12ab5b9c7254a8d58478811de00f9e6eb34345acd53bf8fd09d3ec\n        /* \"staking.sol\":5575:5596  level0 = levelInfo[0] */\n      sload\n      dup2\n      mstore\n      sload(0x17ef568e3e12ab5b9c7254a8d58478811de00f9e6eb34345acd53bf8fd09d3ed)\n      dup2\n      dup5\n      add\n      swap1\n      dup2\n      mstore\n        /* \"staking.sol\":5606:5627  level1 = levelInfo[1] */\n      dup5\n      mload\n      dup1\n      dup7\n      add\n      dup7\n      mstore\n        /* \"staking.sol\":5615:5627  levelInfo[1] */\n      0xabd6e7cb50984ff9c2f3e18a2660c3353dadf4e3291deeb275dae2cd1e44fe05\n        /* \"staking.sol\":5606:5627  level1 = levelInfo[1] */\n      sload\n      dup2\n      mstore\n      sload(0xabd6e7cb50984ff9c2f3e18a2660c3353dadf4e3291deeb275dae2cd1e44fe06)\n      dup2\n      dup7\n      add\n      swap1\n      dup2\n      mstore\n        /* \"staking.sol\":5637:5658  level2 = levelInfo[2] */\n      dup7\n      mload\n      dup1\n      dup9\n      add\n      dup9\n      mstore\n        /* \"staking.sol\":5646:5658  levelInfo[2] */\n      0x91da3fd0782e51c6b3986e9e672fd566868e71f3dbc2d6c2cd6fbb3e361af2a7\n        /* \"staking.sol\":5637:5658  level2 = levelInfo[2] */\n      sload\n      dup2\n      mstore\n      sload(0x91da3fd0782e51c6b3986e9e672fd566868e71f3dbc2d6c2cd6fbb3e361af2a8)\n      dup2\n      dup9\n      add\n      swap1\n      dup2\n      mstore\n        /* \"staking.sol\":5692:5693  3 */\n      0x03\n        /* \"staking.sol\":5682:5694  levelInfo[3] */\n      swap1\n      swap7\n      mstore\n        /* \"staking.sol\":5584:5593  levelInfo */\n      0x04\n        /* \"staking.sol\":5682:5694  levelInfo[3] */\n      dup8\n      mstore\n        /* \"staking.sol\":5673:5694  level3 = levelInfo[3] */\n      dup8\n      mload\n      dup1\n      dup10\n      add\n      dup10\n      mstore\n        /* \"staking.sol\":5682:5694  levelInfo[3] */\n      0x2e174c10e159ea99b867ce3205125c24a42d128804e4070ed6fcc8cc98166aa0\n        /* \"staking.sol\":5673:5694  level3 = levelInfo[3] */\n      sload\n      dup2\n      mstore\n      sload(0x2e174c10e159ea99b867ce3205125c24a42d128804e4070ed6fcc8cc98166aa1)\n      dup2\n      dup10\n      add\n      swap1\n      dup2\n      mstore\n        /* \"staking.sol\":5435:5706  function getLevelsInfo() external view returns(Level memory level0, Level memory level1, Level memory level2, Level memory level3){... */\n      dup10\n      mload\n        /* \"#utility.yul\":1943:1955   */\n      swap7\n      mload\n        /* \"#utility.yul\":1931:1956   */\n      dup8\n      mstore\n        /* \"#utility.yul\":1988:2011   */\n      swap5\n      mload\n        /* \"#utility.yul\":1972:1986   */\n      swap8\n      dup7\n      add\n        /* \"#utility.yul\":1965:2012   */\n      swap8\n      swap1\n      swap8\n      mstore\n        /* \"#utility.yul\":1943:1955   */\n      swap2\n      mload\n        /* \"#utility.yul\":6975:6993   */\n      swap7\n      dup5\n      add\n        /* \"#utility.yul\":1931:1956   */\n      swap7\n      swap1\n      swap7\n      mstore\n        /* \"#utility.yul\":1988:2011   */\n      swap5\n      mload\n        /* \"#utility.yul\":1972:1986   */\n      0x60\n      dup4\n      add\n        /* \"#utility.yul\":1965:2012   */\n      mstore\n        /* \"#utility.yul\":1943:1955   */\n      swap4\n      mload\n        /* \"#utility.yul\":7050:7053   */\n      0x80\n        /* \"#utility.yul\":7035:7054   */\n      dup3\n      add\n        /* \"#utility.yul\":1931:1956   */\n      mstore\n        /* \"#utility.yul\":1988:2011   */\n      swap1\n      mload\n        /* \"#utility.yul\":1972:1986   */\n      0xa0\n      dup3\n      add\n        /* \"#utility.yul\":1965:2012   */\n      mstore\n        /* \"#utility.yul\":1943:1955   */\n      swap1\n      mload\n        /* \"#utility.yul\":7111:7114   */\n      0xc0\n        /* \"#utility.yul\":7096:7115   */\n      dup3\n      add\n        /* \"#utility.yul\":1931:1956   */\n      mstore\n        /* \"#utility.yul\":1988:2011   */\n      swap1\n      mload\n        /* \"#utility.yul\":1972:1986   */\n      0xe0\n      dup3\n      add\n        /* \"#utility.yul\":1965:2012   */\n      mstore\n        /* \"#utility.yul\":6879:6882   */\n      0x0100\n        /* \"#utility.yul\":6864:6883   */\n      add\n        /* \"staking.sol\":5435:5706  function getLevelsInfo() external view returns(Level memory level0, Level memory level1, Level memory level2, Level memory level3){... */\n      tag_29\n        /* \"#utility.yul\":6485:7122   */\n      jump\n        /* \"staking.sol\":782:824  mapping(uint256 => Level) public levelInfo */\n    tag_20:\n      tag_87\n      tag_88\n      calldatasize\n      0x04\n      tag_37\n      jump\t// in\n    tag_88:\n      mstore(0x20, 0x04)\n      0x00\n      swap1\n      dup2\n      mstore\n      0x40\n      swap1\n      keccak256\n      dup1\n      sload\n      0x01\n      swap1\n      swap2\n      add\n      sload\n      dup3\n      jump\n    tag_87:\n      0x40\n      dup1\n      mload\n        /* \"#utility.yul\":8402:8427   */\n      swap3\n      dup4\n      mstore\n        /* \"#utility.yul\":8458:8460   */\n      0x20\n        /* \"#utility.yul\":8443:8461   */\n      dup4\n      add\n        /* \"#utility.yul\":8436:8470   */\n      swap2\n      swap1\n      swap2\n      mstore\n        /* \"#utility.yul\":8375:8393   */\n      add\n        /* \"staking.sol\":782:824  mapping(uint256 => Level) public levelInfo */\n      tag_29\n        /* \"#utility.yul\":8228:8476   */\n      jump\n        /* \"@openzeppelin/contracts/access/Ownable.sol\":1918:2116  function transferOwnership(address newOwner) public virtual onlyOwner {... */\n    tag_21:\n      tag_31\n      tag_93\n      calldatasize\n      0x04\n      tag_55\n      jump\t// in\n    tag_93:\n      tag_94\n      jump\t// in\n        /* \"staking.sol\":5712:5899  function changeLevelValues(uint256 level, uint256 _APY, uint256 _lockTime) external onlyOwner {... */\n    tag_34:\n        /* \"@openzeppelin/contracts/access/Ownable.sol\":1082:1089  address */\n      0x00\n        /* \"@openzeppelin/contracts/access/Ownable.sol\":1108:1114  _owner */\n      sload\n      sub(shl(0xa0, 0x01), 0x01)\n      and\n        /* \"@openzeppelin/contracts/utils/Context.sol\":719:729  msg.sender */\n      caller\n        /* \"@openzeppelin/contracts/access/Ownable.sol\":1248:1271  owner() == _msgSender() */\n      eq\n        /* \"@openzeppelin/contracts/access/Ownable.sol\":1240:1308  require(owner() == _msgSender(), \"Ownable: caller is not the owner\") */\n      tag_99\n      jumpi\n      mload(0x40)\n      shl(0xe5, 0x461bcd)\n      dup2\n      mstore\n      0x04\n      add\n      tag_100\n      swap1\n      tag_101\n      jump\t// in\n    tag_100:\n      mload(0x40)\n      dup1\n      swap2\n      sub\n      swap1\n      revert\n    tag_99:\n        /* \"staking.sol\":5816:5832  levelInfo[level] */\n      0x00\n      swap3\n      dup4\n      mstore\n        /* \"staking.sol\":5816:5825  levelInfo */\n      0x04\n        /* \"staking.sol\":5816:5832  levelInfo[level] */\n      0x20\n      mstore\n      0x40\n      swap1\n      swap3\n      keccak256\n        /* \"staking.sol\":5816:5843  levelInfo[level].APY = _APY */\n      swap1\n      dup2\n      sstore\n        /* \"staking.sol\":5853:5880  levelInfo[level].lockPeriod */\n      0x01\n      add\n        /* \"staking.sol\":5853:5892  levelInfo[level].lockPeriod = _lockTime */\n      sstore\n        /* \"staking.sol\":5712:5899  function changeLevelValues(uint256 level, uint256 _APY, uint256 _lockTime) external onlyOwner {... */\n      jump\t// out\n        /* \"staking.sol\":3388:3874  function claim (uint256 _level) external{... */\n    tag_38:\n        /* \"staking.sol\":3459:3469  msg.sender */\n      caller\n        /* \"staking.sol\":3438:3456  address _msgSender */\n      0x00\n        /* \"staking.sol\":3487:3515  userLevelDeposit[_msgSender] */\n      dup2\n      dup2\n      mstore\n        /* \"staking.sol\":3487:3503  userLevelDeposit */\n      0x03\n        /* \"staking.sol\":3487:3515  userLevelDeposit[_msgSender] */\n      0x20\n      swap1\n      dup2\n      mstore\n      0x40\n      dup1\n      dup4\n      keccak256\n        /* \"staking.sol\":3487:3523  userLevelDeposit[_msgSender][_level] */\n      dup6\n      dup5\n      mstore\n      swap1\n      swap2\n      mstore\n      swap1\n      keccak256\n        /* \"staking.sol\":3487:3531  userLevelDeposit[_msgSender][_level].balance */\n      sload\n        /* \"staking.sol\":3479:3557  require(userLevelDeposit[_msgSender][_level].balance > 0, \"No active deposit\") */\n      tag_104\n      jumpi\n      mload(0x40)\n      shl(0xe5, 0x461bcd)\n      dup2\n      mstore\n        /* \"#utility.yul\":5994:5996   */\n      0x20\n        /* \"staking.sol\":3479:3557  require(userLevelDeposit[_msgSender][_level].balance > 0, \"No active deposit\") */\n      0x04\n      dup3\n      add\n        /* \"#utility.yul\":5976:5997   */\n      mstore\n        /* \"#utility.yul\":6033:6035   */\n      0x11\n        /* \"#utility.yul\":6013:6031   */\n      0x24\n      dup3\n      add\n        /* \"#utility.yul\":6006:6036   */\n      mstore\n      shl(0x7a, 0x139bc81858dd1a5d994819195c1bdcda5d)\n        /* \"#utility.yul\":6052:6070   */\n      0x44\n      dup3\n      add\n        /* \"#utility.yul\":6045:6092   */\n      mstore\n        /* \"#utility.yul\":6109:6127   */\n      0x64\n      add\n        /* \"staking.sol\":3479:3557  require(userLevelDeposit[_msgSender][_level].balance > 0, \"No active deposit\") */\n      tag_100\n        /* \"#utility.yul\":5792:6133   */\n      jump\n        /* \"staking.sol\":3479:3557  require(userLevelDeposit[_msgSender][_level].balance > 0, \"No active deposit\") */\n    tag_104:\n        /* \"staking.sol\":3568:3583  uint256 rewards */\n      0x00\n        /* \"staking.sol\":3586:3622  calculateRewards(_msgSender, _level) */\n      tag_107\n        /* \"staking.sol\":3603:3613  _msgSender */\n      dup3\n        /* \"staking.sol\":3615:3621  _level */\n      dup5\n        /* \"staking.sol\":3586:3602  calculateRewards */\n      tag_77\n        /* \"staking.sol\":3586:3622  calculateRewards(_msgSender, _level) */\n      jump\t// in\n    tag_107:\n      sub(shl(0xa0, 0x01), 0x01)\n        /* \"staking.sol\":3633:3661  userLevelDeposit[_msgSender] */\n      dup4\n      and\n      0x00\n      swap1\n      dup2\n      mstore\n        /* \"staking.sol\":3633:3649  userLevelDeposit */\n      0x03\n        /* \"staking.sol\":3633:3661  userLevelDeposit[_msgSender] */\n      0x20\n      dup2\n      dup2\n      mstore\n      0x40\n      dup1\n      dup5\n      keccak256\n        /* \"staking.sol\":3633:3669  userLevelDeposit[_msgSender][_level] */\n      dup9\n      dup6\n      mstore\n      swap1\n      swap2\n      mstore\n      dup3\n      keccak256\n        /* \"staking.sol\":3682:3697  block.timestamp */\n      timestamp\n        /* \"staking.sol\":3633:3679  userLevelDeposit[_msgSender][_level].lastClaim */\n      swap2\n      dup2\n      add\n        /* \"staking.sol\":3633:3697  userLevelDeposit[_msgSender][_level].lastClaim = block.timestamp */\n      swap2\n      swap1\n      swap2\n      sstore\n        /* \"staking.sol\":3707:3751  userLevelDeposit[_msgSender][_level].claimed */\n      0x01\n      add\n        /* \"staking.sol\":3707:3762  userLevelDeposit[_msgSender][_level].claimed += rewards */\n      dup1\n      sload\n        /* \"staking.sol\":3568:3622  uint256 rewards = calculateRewards(_msgSender, _level) */\n      swap3\n      swap4\n      pop\n      dup4\n      swap3\n        /* \"staking.sol\":3707:3751  userLevelDeposit[_msgSender][_level].claimed */\n      swap1\n      swap2\n        /* \"staking.sol\":3633:3661  userLevelDeposit[_msgSender] */\n      swap1\n        /* \"staking.sol\":3707:3762  userLevelDeposit[_msgSender][_level].claimed += rewards */\n      tag_108\n      swap1\n        /* \"staking.sol\":3568:3622  uint256 rewards = calculateRewards(_msgSender, _level) */\n      dup5\n      swap1\n        /* \"staking.sol\":3707:3762  userLevelDeposit[_msgSender][_level].claimed += rewards */\n      tag_109\n      jump\t// in\n    tag_108:\n      swap1\n      swap2\n      sstore\n      pop\n      pop\n        /* \"staking.sol\":3773:3786  acceptedToken */\n      sload(0x01)\n        /* \"staking.sol\":3773:3816  acceptedToken.transfer(_msgSender, rewards) */\n      mload(0x40)\n      shl(0xe0, 0xa9059cbb)\n      dup2\n      mstore\n      sub(shl(0xa0, 0x01), 0x01)\n        /* \"#utility.yul\":3479:3511   */\n      dup5\n      dup2\n      and\n        /* \"staking.sol\":3773:3816  acceptedToken.transfer(_msgSender, rewards) */\n      0x04\n      dup4\n      add\n        /* \"#utility.yul\":3461:3512   */\n      mstore\n        /* \"#utility.yul\":3528:3546   */\n      0x24\n      dup3\n      add\n        /* \"#utility.yul\":3521:3555   */\n      dup5\n      swap1\n      mstore\n        /* \"staking.sol\":3773:3786  acceptedToken */\n      swap1\n      swap2\n      and\n      swap1\n        /* \"staking.sol\":3773:3795  acceptedToken.transfer */\n      0xa9059cbb\n      swap1\n        /* \"#utility.yul\":3434:3452   */\n      0x44\n      add\n        /* \"staking.sol\":3773:3816  acceptedToken.transfer(_msgSender, rewards) */\n      0x20\n      mload(0x40)\n      dup1\n      dup4\n      sub\n      dup2\n      0x00\n      dup8\n      dup1\n      extcodesize\n      iszero\n      dup1\n      iszero\n      tag_112\n      jumpi\n      0x00\n      dup1\n      revert\n    tag_112:\n      pop\n      gas\n      call\n      iszero\n      dup1\n      iszero\n      tag_114\n      jumpi\n      returndatasize\n      0x00\n      dup1\n      returndatacopy\n      revert(0x00, returndatasize)\n    tag_114:\n      pop\n      pop\n      pop\n      pop\n      mload(0x40)\n      returndatasize\n      not(0x1f)\n      0x1f\n      dup3\n      add\n      and\n      dup3\n      add\n      dup1\n      0x40\n      mstore\n      pop\n      dup2\n      add\n      swap1\n      tag_115\n      swap2\n      swap1\n      tag_116\n      jump\t// in\n    tag_115:\n      pop\n        /* \"staking.sol\":3832:3867  Claim (_msgSender, _level, rewards) */\n      0x34fcbac0073d7c3d388e51312faf357774904998eeb8fca628b9e6f65ee1cbf7\n        /* \"staking.sol\":3839:3849  _msgSender */\n      dup3\n        /* \"staking.sol\":3851:3857  _level */\n      dup5\n        /* \"staking.sol\":3859:3866  rewards */\n      dup4\n        /* \"staking.sol\":3832:3867  Claim (_msgSender, _level, rewards) */\n      mload(0x40)\n      tag_117\n      swap4\n      swap3\n      swap2\n      swap1\n      tag_147\n      jump\t// in\n    tag_117:\n      mload(0x40)\n      dup1\n      swap2\n      sub\n      swap1\n      log1\n        /* \"staking.sol\":3428:3874  {... */\n      pop\n      pop\n        /* \"staking.sol\":3388:3874  function claim (uint256 _level) external{... */\n      pop\n      jump\t// out\n        /* \"staking.sol\":1820:1884  function unpause () public onlyOwner {... */\n    tag_40:\n        /* \"@openzeppelin/contracts/access/Ownable.sol\":1082:1089  address */\n      0x00\n        /* \"@openzeppelin/contracts/access/Ownable.sol\":1108:1114  _owner */\n      sload\n      sub(shl(0xa0, 0x01), 0x01)\n      and\n        /* \"@openzeppelin/contracts/utils/Context.sol\":719:729  msg.sender */\n      caller\n        /* \"@openzeppelin/contracts/access/Ownable.sol\":1248:1271  owner() == _msgSender() */\n      eq\n        /* \"@openzeppelin/contracts/access/Ownable.sol\":1240:1308  require(owner() == _msgSender(), \"Ownable: caller is not the owner\") */\n      tag_122\n      jumpi\n      mload(0x40)\n      shl(0xe5, 0x461bcd)\n      dup2\n      mstore\n      0x04\n      add\n      tag_100\n      swap1\n      tag_101\n      jump\t// in\n    tag_122:\n        /* \"staking.sol\":1867:1877  _unpause() */\n      tag_125\n        /* \"staking.sol\":1867:1875  _unpause */\n      tag_126\n        /* \"staking.sol\":1867:1877  _unpause() */\n      jump\t// in\n    tag_125:\n        /* \"staking.sol\":1820:1884  function unpause () public onlyOwner {... */\n      jump\t// out\n        /* \"staking.sol\":2602:3382  function withdraw (uint256 _amount, uint256 _level) public  {... */\n    tag_44:\n        /* \"staking.sol\":2693:2703  msg.sender */\n      caller\n        /* \"staking.sol\":2672:2690  address _msgSender */\n      0x00\n        /* \"staking.sol\":2721:2749  userLevelDeposit[_msgSender] */\n      dup2\n      dup2\n      mstore\n        /* \"staking.sol\":2721:2737  userLevelDeposit */\n      0x03\n        /* \"staking.sol\":2721:2749  userLevelDeposit[_msgSender] */\n      0x20\n      swap1\n      dup2\n      mstore\n      0x40\n      dup1\n      dup4\n      keccak256\n        /* \"staking.sol\":2721:2757  userLevelDeposit[_msgSender][_level] */\n      dup6\n      dup5\n      mstore\n      swap1\n      swap2\n      mstore\n      swap1\n      keccak256\n        /* \"staking.sol\":2721:2765  userLevelDeposit[_msgSender][_level].balance */\n      sload\n        /* \"staking.sol\":2721:2776  userLevelDeposit[_msgSender][_level].balance >= _amount */\n      dup4\n      gt\n      iszero\n        /* \"staking.sol\":2713:2799  require(userLevelDeposit[_msgSender][_level].balance >= _amount, \"Not enough deposit\") */\n      tag_128\n      jumpi\n      mload(0x40)\n      shl(0xe5, 0x461bcd)\n      dup2\n      mstore\n        /* \"#utility.yul\":6340:6342   */\n      0x20\n        /* \"staking.sol\":2713:2799  require(userLevelDeposit[_msgSender][_level].balance >= _amount, \"Not enough deposit\") */\n      0x04\n      dup3\n      add\n        /* \"#utility.yul\":6322:6343   */\n      mstore\n        /* \"#utility.yul\":6379:6381   */\n      0x12\n        /* \"#utility.yul\":6359:6377   */\n      0x24\n      dup3\n      add\n        /* \"#utility.yul\":6352:6382   */\n      mstore\n      shl(0x72, 0x139bdd08195b9bdd59da0819195c1bdcda5d)\n        /* \"#utility.yul\":6398:6416   */\n      0x44\n      dup3\n      add\n        /* \"#utility.yul\":6391:6439   */\n      mstore\n        /* \"#utility.yul\":6456:6474   */\n      0x64\n      add\n        /* \"staking.sol\":2713:2799  require(userLevelDeposit[_msgSender][_level].balance >= _amount, \"Not enough deposit\") */\n      tag_100\n        /* \"#utility.yul\":6138:6480   */\n      jump\n        /* \"staking.sol\":2713:2799  require(userLevelDeposit[_msgSender][_level].balance >= _amount, \"Not enough deposit\") */\n    tag_128:\n        /* \"staking.sol\":2810:2825  uint256 rewards */\n      0x00\n        /* \"staking.sol\":2828:2864  calculateRewards(_msgSender, _level) */\n      tag_131\n        /* \"staking.sol\":2845:2855  _msgSender */\n      dup3\n        /* \"staking.sol\":2857:2863  _level */\n      dup5\n        /* \"staking.sol\":2828:2844  calculateRewards */\n      tag_77\n        /* \"staking.sol\":2828:2864  calculateRewards(_msgSender, _level) */\n      jump\t// in\n    tag_131:\n        /* \"staking.sol\":2810:2864  uint256 rewards = calculateRewards(_msgSender, _level) */\n      swap1\n      pop\n        /* \"staking.sol\":2874:2896  uint256 withdrawAmount */\n      0x00\n        /* \"staking.sol\":2899:2916  _amount + rewards */\n      tag_132\n        /* \"staking.sol\":2810:2864  uint256 rewards = calculateRewards(_msgSender, _level) */\n      dup3\n        /* \"staking.sol\":2899:2906  _amount */\n      dup7\n        /* \"staking.sol\":2899:2916  _amount + rewards */\n      tag_109\n      jump\t// in\n    tag_132:\n      sub(shl(0xa0, 0x01), 0x01)\n        /* \"staking.sol\":2959:2987  userLevelDeposit[_msgSender] */\n      dup5\n      and\n        /* \"staking.sol\":2927:2946  uint256 withdrawFee */\n      0x00\n        /* \"staking.sol\":2959:2987  userLevelDeposit[_msgSender] */\n      swap1\n      dup2\n      mstore\n        /* \"staking.sol\":2959:2975  userLevelDeposit */\n      0x03\n        /* \"staking.sol\":2959:2987  userLevelDeposit[_msgSender] */\n      0x20\n      swap1\n      dup2\n      mstore\n      0x40\n      dup1\n      dup4\n      keccak256\n        /* \"staking.sol\":2959:2995  userLevelDeposit[_msgSender][_level] */\n      dup9\n      dup5\n      mstore\n      swap1\n      swap2\n      mstore\n      dup2\n      keccak256\n        /* \"staking.sol\":2959:3006  userLevelDeposit[_msgSender][_level].unlockTime */\n      0x04\n      add\n      sload\n        /* \"staking.sol\":2874:2916  uint256 withdrawAmount = _amount + rewards */\n      swap2\n      swap3\n      pop\n        /* \"staking.sol\":2927:2946  uint256 withdrawFee */\n      swap1\n        /* \"staking.sol\":3009:3024  block.timestamp */\n      timestamp\n      lt\n        /* \"staking.sol\":2956:3105  if(userLevelDeposit[_msgSender][_level].unlockTime > block.timestamp){... */\n      iszero\n      tag_133\n      jumpi\n        /* \"staking.sol\":3091:3094  100 */\n      0x64\n        /* \"staking.sol\":3071:3087  earlyWithdrawFee */\n      sload(0x02)\n        /* \"staking.sol\":3054:3068  withdrawAmount */\n      dup4\n        /* \"staking.sol\":3054:3087  withdrawAmount * earlyWithdrawFee */\n      tag_134\n      swap2\n      swap1\n      tag_135\n      jump\t// in\n    tag_134:\n        /* \"staking.sol\":3053:3094  (withdrawAmount * earlyWithdrawFee) / 100 */\n      tag_136\n      swap2\n      swap1\n      tag_137\n      jump\t// in\n    tag_136:\n        /* \"staking.sol\":3039:3094  withdrawFee = (withdrawAmount * earlyWithdrawFee) / 100 */\n      swap1\n      pop\n        /* \"staking.sol\":2956:3105  if(userLevelDeposit[_msgSender][_level].unlockTime > block.timestamp){... */\n    tag_133:\n      sub(shl(0xa0, 0x01), 0x01)\n        /* \"staking.sol\":3115:3143  userLevelDeposit[_msgSender] */\n      dup5\n      and\n      0x00\n      swap1\n      dup2\n      mstore\n        /* \"staking.sol\":3115:3131  userLevelDeposit */\n      0x03\n        /* \"staking.sol\":3115:3143  userLevelDeposit[_msgSender] */\n      0x20\n      dup2\n      dup2\n      mstore\n      0x40\n      dup1\n      dup5\n      keccak256\n        /* \"staking.sol\":3115:3151  userLevelDeposit[_msgSender][_level] */\n      dup10\n      dup6\n      mstore\n      swap1\n      swap2\n      mstore\n      dup3\n      keccak256\n        /* \"staking.sol\":3164:3179  block.timestamp */\n      timestamp\n        /* \"staking.sol\":3115:3161  userLevelDeposit[_msgSender][_level].lastClaim */\n      swap2\n      dup2\n      add\n        /* \"staking.sol\":3115:3179  userLevelDeposit[_msgSender][_level].lastClaim = block.timestamp */\n      swap2\n      swap1\n      swap2\n      sstore\n        /* \"staking.sol\":3197:3252  userLevelDeposit[_msgSender][_level].balance -= _amount */\n      dup1\n      sload\n        /* \"staking.sol\":3245:3252  _amount */\n      dup9\n      swap3\n        /* \"staking.sol\":3115:3143  userLevelDeposit[_msgSender] */\n      swap1\n        /* \"staking.sol\":3197:3252  userLevelDeposit[_msgSender][_level].balance -= _amount */\n      tag_138\n      swap1\n        /* \"staking.sol\":3245:3252  _amount */\n      dup5\n      swap1\n        /* \"staking.sol\":3197:3252  userLevelDeposit[_msgSender][_level].balance -= _amount */\n      tag_139\n      jump\t// in\n    tag_138:\n      swap1\n      swap2\n      sstore\n      pop\n      pop\n        /* \"staking.sol\":3263:3276  acceptedToken */\n      and(sub(shl(0xa0, 0x01), 0x01), sload(0x01))\n        /* \"staking.sol\":3263:3285  acceptedToken.transfer */\n      0xa9059cbb\n        /* \"staking.sol\":3286:3296  _msgSender */\n      dup6\n        /* \"staking.sol\":3298:3326  withdrawAmount - withdrawFee */\n      tag_140\n        /* \"staking.sol\":3315:3326  withdrawFee */\n      dup5\n        /* \"staking.sol\":3298:3312  withdrawAmount */\n      dup7\n        /* \"staking.sol\":3298:3326  withdrawAmount - withdrawFee */\n      tag_139\n      jump\t// in\n    tag_140:\n        /* \"staking.sol\":3263:3327  acceptedToken.transfer(_msgSender, withdrawAmount - withdrawFee) */\n      mload(0x40)\n      not(sub(shl(0xe0, 0x01), 0x01))\n      0xe0\n      dup6\n      swap1\n      shl\n      and\n      dup2\n      mstore\n      sub(shl(0xa0, 0x01), 0x01)\n        /* \"#utility.yul\":3479:3511   */\n      swap1\n      swap3\n      and\n        /* \"staking.sol\":3263:3327  acceptedToken.transfer(_msgSender, withdrawAmount - withdrawFee) */\n      0x04\n      dup4\n      add\n        /* \"#utility.yul\":3461:3512   */\n      mstore\n        /* \"#utility.yul\":3528:3546   */\n      0x24\n      dup3\n      add\n        /* \"#utility.yul\":3521:3555   */\n      mstore\n        /* \"#utility.yul\":3434:3452   */\n      0x44\n      add\n        /* \"staking.sol\":3263:3327  acceptedToken.transfer(_msgSender, withdrawAmount - withdrawFee) */\n      0x20\n      mload(0x40)\n      dup1\n      dup4\n      sub\n      dup2\n      0x00\n      dup8\n      dup1\n      extcodesize\n      iszero\n      dup1\n      iszero\n      tag_142\n      jumpi\n      0x00\n      dup1\n      revert\n    tag_142:\n      pop\n      gas\n      call\n      iszero\n      dup1\n      iszero\n      tag_144\n      jumpi\n      returndatasize\n      0x00\n      dup1\n      returndatacopy\n      revert(0x00, returndatasize)\n    tag_144:\n      pop\n      pop\n      pop\n      pop\n      mload(0x40)\n      returndatasize\n      not(0x1f)\n      0x1f\n      dup3\n      add\n      and\n      dup3\n      add\n      dup1\n      0x40\n      mstore\n      pop\n      dup2\n      add\n      swap1\n      tag_145\n      swap2\n      swap1\n      tag_116\n      jump\t// in\n    tag_145:\n      pop\n        /* \"staking.sol\":3343:3375  Withdraw(_msgSender, 0, _amount) */\n      0xf279e6a1f5e320cca91135676d9cb6e44ca8a08c0b88342bcdb1144f6511b568\n        /* \"staking.sol\":3352:3362  _msgSender */\n      dup5\n        /* \"staking.sol\":3364:3365  0 */\n      0x00\n        /* \"staking.sol\":3367:3374  _amount */\n      dup9\n        /* \"staking.sol\":3343:3375  Withdraw(_msgSender, 0, _amount) */\n      mload(0x40)\n      tag_146\n      swap4\n      swap3\n      swap2\n      swap1\n      tag_147\n      jump\t// in\n    tag_146:\n      mload(0x40)\n      dup1\n      swap2\n      sub\n      swap1\n      log1\n        /* \"staking.sol\":2662:3382  {... */\n      pop\n      pop\n      pop\n      pop\n        /* \"staking.sol\":2602:3382  function withdraw (uint256 _amount, uint256 _level) public  {... */\n      pop\n      pop\n      jump\t// out\n        /* \"staking.sol\":4799:5429  function getUserInfo(address _user) external view returns(User memory level0,  User memory level1, User memory level2, User memory level3, uint256 level0Rewards, uint256 level1Rewards, uint256 level2Rewards, uint256 level3Rewards){... */\n    tag_56:\n        /* \"staking.sol\":4857:4875  User memory level0 */\n      tag_149\n      tag_150\n      jump\t// in\n    tag_149:\n        /* \"staking.sol\":4878:4896  User memory level1 */\n      tag_151\n      tag_150\n      jump\t// in\n    tag_151:\n        /* \"staking.sol\":4898:4916  User memory level2 */\n      tag_152\n      tag_150\n      jump\t// in\n    tag_152:\n        /* \"staking.sol\":4918:4936  User memory level3 */\n      tag_153\n      tag_150\n      jump\t// in\n    tag_153:\n      pop\n      pop\n      pop\n      sub(shl(0xa0, 0x01), 0x01)\n        /* \"staking.sol\":5048:5071  userLevelDeposit[_user] */\n      dup3\n      and\n        /* \"staking.sol\":4938:4959  uint256 level0Rewards */\n      0x00\n        /* \"staking.sol\":5048:5071  userLevelDeposit[_user] */\n      swap1\n      dup2\n      mstore\n        /* \"staking.sol\":5048:5064  userLevelDeposit */\n      0x03\n        /* \"staking.sol\":5048:5071  userLevelDeposit[_user] */\n      0x20\n      dup2\n      dup2\n      mstore\n      0x40\n      dup1\n      dup5\n      keccak256\n        /* \"staking.sol\":5048:5074  userLevelDeposit[_user][0] */\n      dup5\n      dup1\n      mstore\n      dup1\n      dup4\n      mstore\n      dup2\n      dup6\n      keccak256\n        /* \"staking.sol\":5039:5074  level0 = userLevelDeposit[_user][0] */\n      dup3\n      mload\n      0xa0\n      dup1\n      dup3\n      add\n      dup6\n      mstore\n      dup3\n      sload\n      dup3\n      mstore\n      0x01\n      dup1\n      dup5\n      add\n      sload\n      dup4\n      dup9\n      add\n      mstore\n      0x02\n      dup1\n      dup6\n      add\n      sload\n      dup5\n      dup9\n      add\n      mstore\n      dup5\n      dup10\n      add\n      sload\n      0x60\n      dup1\n      dup7\n      add\n      swap2\n      swap1\n      swap2\n      mstore\n      0x04\n      swap6\n      dup7\n      add\n      sload\n      0x80\n      dup1\n      dup8\n      add\n      swap2\n      swap1\n      swap2\n      mstore\n        /* \"staking.sol\":5093:5119  userLevelDeposit[_user][1] */\n      dup4\n      dup13\n      mstore\n      dup8\n      dup11\n      mstore\n      dup9\n      dup13\n      keccak256\n        /* \"staking.sol\":5084:5119  level1 = userLevelDeposit[_user][1] */\n      dup10\n      mload\n      dup1\n      dup8\n      add\n      dup12\n      mstore\n      dup2\n      sload\n      dup2\n      mstore\n      dup2\n      dup7\n      add\n      sload\n      dup2\n      dup14\n      add\n      mstore\n      dup2\n      dup6\n      add\n      sload\n      dup2\n      dup13\n      add\n      mstore\n      dup2\n      dup14\n      add\n      sload\n      dup2\n      dup6\n      add\n      mstore\n      swap1\n      dup9\n      add\n      sload\n      dup2\n      dup4\n      add\n      mstore\n        /* \"staking.sol\":5138:5164  userLevelDeposit[_user][2] */\n      dup4\n      dup14\n      mstore\n      dup9\n      dup12\n      mstore\n      dup10\n      dup14\n      keccak256\n        /* \"staking.sol\":5129:5164  level2 = userLevelDeposit[_user][2] */\n      dup11\n      mload\n      dup1\n      dup9\n      add\n      dup13\n      mstore\n      dup2\n      sload\n      dup2\n      mstore\n      dup2\n      dup8\n      add\n      sload\n      dup2\n      dup15\n      add\n      mstore\n      dup2\n      dup7\n      add\n      sload\n      dup2\n      dup14\n      add\n      mstore\n      dup2\n      dup15\n      add\n      sload\n      dup2\n      dup7\n      add\n      mstore\n      swap1\n      dup10\n      add\n      sload\n      dup2\n      dup5\n      add\n      mstore\n        /* \"staking.sol\":5185:5211  userLevelDeposit[_user][3] */\n      dup13\n      dup15\n      mstore\n      swap9\n      dup12\n      mstore\n      dup10\n      dup14\n      keccak256\n        /* \"staking.sol\":5176:5211  level3 = userLevelDeposit[_user][3] */\n      dup11\n      mload\n      swap7\n      dup8\n      add\n      dup12\n      mstore\n      dup1\n      sload\n      dup8\n      mstore\n      swap5\n      dup6\n      add\n      sload\n      swap11\n      dup7\n      add\n      swap11\n      swap1\n      swap11\n      mstore\n      swap2\n      dup4\n      add\n      sload\n      swap8\n      dup5\n      add\n      swap8\n      swap1\n      swap8\n      mstore\n      swap8\n      dup2\n      add\n      sload\n      swap6\n      dup3\n      add\n      swap6\n      swap1\n      swap6\n      mstore\n      swap4\n      swap1\n      swap2\n      add\n      sload\n      swap5\n      dup4\n      add\n      swap5\n      swap1\n      swap5\n      mstore\n        /* \"staking.sol\":5039:5074  level0 = userLevelDeposit[_user][0] */\n      swap3\n      swap5\n      pop\n        /* \"staking.sol\":5084:5119  level1 = userLevelDeposit[_user][1] */\n      swap1\n      swap3\n        /* \"staking.sol\":4938:4959  uint256 level0Rewards */\n      dup1\n      dup1\n      dup1\n        /* \"staking.sol\":5240:5266  calculateRewards(_user, 0) */\n      tag_155\n        /* \"staking.sol\":5065:5070  _user */\n      dup10\n        /* \"staking.sol\":4938:4959  uint256 level0Rewards */\n      dup3\n        /* \"staking.sol\":5240:5256  calculateRewards */\n      tag_77\n        /* \"staking.sol\":5240:5266  calculateRewards(_user, 0) */\n      jump\t// in\n    tag_155:\n        /* \"staking.sol\":5224:5266  level0Rewards = calculateRewards(_user, 0) */\n      swap4\n      pop\n        /* \"staking.sol\":5292:5318  calculateRewards(_user, 1) */\n      tag_156\n        /* \"staking.sol\":5309:5314  _user */\n      dup10\n        /* \"staking.sol\":5316:5317  1 */\n      0x01\n        /* \"staking.sol\":5292:5308  calculateRewards */\n      tag_77\n        /* \"staking.sol\":5292:5318  calculateRewards(_user, 1) */\n      jump\t// in\n    tag_156:\n        /* \"staking.sol\":5276:5318  level1Rewards = calculateRewards(_user, 1) */\n      swap3\n      pop\n        /* \"staking.sol\":5344:5370  calculateRewards(_user, 2) */\n      tag_157\n        /* \"staking.sol\":5361:5366  _user */\n      dup10\n        /* \"staking.sol\":5368:5369  2 */\n      0x02\n        /* \"staking.sol\":5344:5360  calculateRewards */\n      tag_77\n        /* \"staking.sol\":5344:5370  calculateRewards(_user, 2) */\n      jump\t// in\n    tag_157:\n        /* \"staking.sol\":5328:5370  level2Rewards = calculateRewards(_user, 2) */\n      swap2\n      pop\n        /* \"staking.sol\":5396:5422  calculateRewards(_user, 3) */\n      tag_158\n        /* \"staking.sol\":5413:5418  _user */\n      dup10\n        /* \"staking.sol\":5420:5421  3 */\n      0x03\n        /* \"staking.sol\":5396:5412  calculateRewards */\n      tag_77\n        /* \"staking.sol\":5396:5422  calculateRewards(_user, 3) */\n      jump\t// in\n    tag_158:\n        /* \"staking.sol\":5380:5422  level3Rewards = calculateRewards(_user, 3) */\n      swap1\n      pop\n        /* \"staking.sol\":4799:5429  function getUserInfo(address _user) external view returns(User memory level0,  User memory level1, User memory level2, User memory level3, uint256 level0Rewards, uint256 level1Rewards, uint256 level2Rewards, uint256 level3Rewards){... */\n      swap2\n      swap4\n      swap6\n      swap8\n      pop\n      swap2\n      swap4\n      swap6\n      swap8\n      jump\t// out\n        /* \"@openzeppelin/contracts/access/Ownable.sol\":1668:1769  function renounceOwnership() public virtual onlyOwner {... */\n    tag_60:\n        /* \"@openzeppelin/contracts/access/Ownable.sol\":1082:1089  address */\n      0x00\n        /* \"@openzeppelin/contracts/access/Ownable.sol\":1108:1114  _owner */\n      sload\n      sub(shl(0xa0, 0x01), 0x01)\n      and\n        /* \"@openzeppelin/contracts/utils/Context.sol\":719:729  msg.sender */\n      caller\n        /* \"@openzeppelin/contracts/access/Ownable.sol\":1248:1271  owner() == _msgSender() */\n      eq\n        /* \"@openzeppelin/contracts/access/Ownable.sol\":1240:1308  require(owner() == _msgSender(), \"Ownable: caller is not the owner\") */\n      tag_162\n      jumpi\n      mload(0x40)\n      shl(0xe5, 0x461bcd)\n      dup2\n      mstore\n      0x04\n      add\n      tag_100\n      swap1\n      tag_101\n      jump\t// in\n    tag_162:\n        /* \"@openzeppelin/contracts/access/Ownable.sol\":1732:1762  _transferOwnership(address(0)) */\n      tag_125\n        /* \"@openzeppelin/contracts/access/Ownable.sol\":1759:1760  0 */\n      0x00\n        /* \"@openzeppelin/contracts/access/Ownable.sol\":1732:1750  _transferOwnership */\n      tag_166\n        /* \"@openzeppelin/contracts/access/Ownable.sol\":1732:1762  _transferOwnership(address(0)) */\n      jump\t// in\n        /* \"staking.sol\":1750:1810  function pause () public onlyOwner {... */\n    tag_62:\n        /* \"@openzeppelin/contracts/access/Ownable.sol\":1082:1089  address */\n      0x00\n        /* \"@openzeppelin/contracts/access/Ownable.sol\":1108:1114  _owner */\n      sload\n      sub(shl(0xa0, 0x01), 0x01)\n      and\n        /* \"@openzeppelin/contracts/utils/Context.sol\":719:729  msg.sender */\n      caller\n        /* \"@openzeppelin/contracts/access/Ownable.sol\":1248:1271  owner() == _msgSender() */\n      eq\n        /* \"@openzeppelin/contracts/access/Ownable.sol\":1240:1308  require(owner() == _msgSender(), \"Ownable: caller is not the owner\") */\n      tag_170\n      jumpi\n      mload(0x40)\n      shl(0xe5, 0x461bcd)\n      dup2\n      mstore\n      0x04\n      add\n      tag_100\n      swap1\n      tag_101\n      jump\t// in\n    tag_170:\n        /* \"staking.sol\":1795:1803  _pause() */\n      tag_125\n        /* \"staking.sol\":1795:1801  _pause */\n      tag_174\n        /* \"staking.sol\":1795:1803  _pause() */\n      jump\t// in\n        /* \"staking.sol\":6022:6158  function withdrawTokens() external onlyOwner {... */\n    tag_64:\n        /* \"@openzeppelin/contracts/access/Ownable.sol\":1082:1089  address */\n      0x00\n        /* \"@openzeppelin/contracts/access/Ownable.sol\":1108:1114  _owner */\n      sload\n      sub(shl(0xa0, 0x01), 0x01)\n      and\n        /* \"@openzeppelin/contracts/utils/Context.sol\":719:729  msg.sender */\n      caller\n        /* \"@openzeppelin/contracts/access/Ownable.sol\":1248:1271  owner() == _msgSender() */\n      eq\n        /* \"@openzeppelin/contracts/access/Ownable.sol\":1240:1308  require(owner() == _msgSender(), \"Ownable: caller is not the owner\") */\n      tag_178\n      jumpi\n      mload(0x40)\n      shl(0xe5, 0x461bcd)\n      dup2\n      mstore\n      0x04\n      add\n      tag_100\n      swap1\n      tag_101\n      jump\t// in\n    tag_178:\n        /* \"staking.sol\":6077:6090  acceptedToken */\n      sload(0x01)\n        /* \"staking.sol\":6112:6150  acceptedToken.balanceOf(address(this)) */\n      mload(0x40)\n      shl(0xe0, 0x70a08231)\n      dup2\n      mstore\n        /* \"staking.sol\":6144:6148  this */\n      address\n        /* \"staking.sol\":6112:6150  acceptedToken.balanceOf(address(this)) */\n      0x04\n      dup3\n      add\n        /* \"#utility.yul\":2487:2538   */\n      mstore\n      sub(shl(0xa0, 0x01), 0x01)\n        /* \"staking.sol\":6077:6090  acceptedToken */\n      swap1\n      swap2\n      and\n      swap1\n        /* \"staking.sol\":6077:6099  acceptedToken.transfer */\n      0xa9059cbb\n      swap1\n        /* \"staking.sol\":6100:6110  msg.sender */\n      caller\n      swap1\n        /* \"staking.sol\":6077:6090  acceptedToken */\n      dup4\n      swap1\n        /* \"staking.sol\":6112:6135  acceptedToken.balanceOf */\n      0x70a08231\n      swap1\n        /* \"#utility.yul\":2460:2478   */\n      0x24\n      add\n        /* \"staking.sol\":6112:6150  acceptedToken.balanceOf(address(this)) */\n      0x20\n      mload(0x40)\n      dup1\n      dup4\n      sub\n      dup2\n      dup7\n      dup1\n      extcodesize\n      iszero\n      dup1\n      iszero\n      tag_182\n      jumpi\n      0x00\n      dup1\n      revert\n    tag_182:\n      pop\n      gas\n      staticcall\n      iszero\n      dup1\n      iszero\n      tag_184\n      jumpi\n      returndatasize\n      0x00\n      dup1\n      returndatacopy\n      revert(0x00, returndatasize)\n    tag_184:\n      pop\n      pop\n      pop\n      pop\n      mload(0x40)\n      returndatasize\n      not(0x1f)\n      0x1f\n      dup3\n      add\n      and\n      dup3\n      add\n      dup1\n      0x40\n      mstore\n      pop\n      dup2\n      add\n      swap1\n      tag_185\n      swap2\n      swap1\n      tag_186\n      jump\t// in\n    tag_185:\n        /* \"staking.sol\":6077:6151  acceptedToken.transfer(msg.sender, acceptedToken.balanceOf(address(this))) */\n      mload(0x40)\n      not(sub(shl(0xe0, 0x01), 0x01))\n      0xe0\n      dup6\n      swap1\n      shl\n      and\n      dup2\n      mstore\n      sub(shl(0xa0, 0x01), 0x01)\n        /* \"#utility.yul\":3479:3511   */\n      swap1\n      swap3\n      and\n        /* \"staking.sol\":6077:6151  acceptedToken.transfer(msg.sender, acceptedToken.balanceOf(address(this))) */\n      0x04\n      dup4\n      add\n        /* \"#utility.yul\":3461:3512   */\n      mstore\n        /* \"#utility.yul\":3528:3546   */\n      0x24\n      dup3\n      add\n        /* \"#utility.yul\":3521:3555   */\n      mstore\n        /* \"#utility.yul\":3434:3452   */\n      0x44\n      add\n        /* \"staking.sol\":6077:6151  acceptedToken.transfer(msg.sender, acceptedToken.balanceOf(address(this))) */\n      0x20\n      mload(0x40)\n      dup1\n      dup4\n      sub\n      dup2\n      0x00\n      dup8\n      dup1\n      extcodesize\n      iszero\n      dup1\n      iszero\n      tag_188\n      jumpi\n      0x00\n      dup1\n      revert\n    tag_188:\n      pop\n      gas\n      call\n      iszero\n      dup1\n      iszero\n      tag_190\n      jumpi\n      returndatasize\n      0x00\n      dup1\n      returndatacopy\n      revert(0x00, returndatasize)\n    tag_190:\n      pop\n      pop\n      pop\n      pop\n      mload(0x40)\n      returndatasize\n      not(0x1f)\n      0x1f\n      dup3\n      add\n      and\n      dup3\n      add\n      dup1\n      0x40\n      mstore\n      pop\n      dup2\n      add\n      swap1\n      tag_191\n      swap2\n      swap1\n      tag_116\n      jump\t// in\n    tag_191:\n      pop\n        /* \"staking.sol\":6022:6158  function withdrawTokens() external onlyOwner {... */\n      jump\t// out\n        /* \"staking.sol\":3880:4318  function compound (uint256 _level) external{... */\n    tag_71:\n        /* \"staking.sol\":3954:3964  msg.sender */\n      caller\n        /* \"staking.sol\":3933:3951  address _msgSender */\n      0x00\n        /* \"staking.sol\":3982:4010  userLevelDeposit[_msgSender] */\n      dup2\n      dup2\n      mstore\n        /* \"staking.sol\":3982:3998  userLevelDeposit */\n      0x03\n        /* \"staking.sol\":3982:4010  userLevelDeposit[_msgSender] */\n      0x20\n      swap1\n      dup2\n      mstore\n      0x40\n      dup1\n      dup4\n      keccak256\n        /* \"staking.sol\":3982:4018  userLevelDeposit[_msgSender][_level] */\n      dup6\n      dup5\n      mstore\n      swap1\n      swap2\n      mstore\n      swap1\n      keccak256\n        /* \"staking.sol\":3982:4026  userLevelDeposit[_msgSender][_level].balance */\n      sload\n        /* \"staking.sol\":3974:4052  require(userLevelDeposit[_msgSender][_level].balance > 0, \"No active deposit\") */\n      tag_194\n      jumpi\n      mload(0x40)\n      shl(0xe5, 0x461bcd)\n      dup2\n      mstore\n        /* \"#utility.yul\":5994:5996   */\n      0x20\n        /* \"staking.sol\":3974:4052  require(userLevelDeposit[_msgSender][_level].balance > 0, \"No active deposit\") */\n      0x04\n      dup3\n      add\n        /* \"#utility.yul\":5976:5997   */\n      mstore\n        /* \"#utility.yul\":6033:6035   */\n      0x11\n        /* \"#utility.yul\":6013:6031   */\n      0x24\n      dup3\n      add\n        /* \"#utility.yul\":6006:6036   */\n      mstore\n      shl(0x7a, 0x139bc81858dd1a5d994819195c1bdcda5d)\n        /* \"#utility.yul\":6052:6070   */\n      0x44\n      dup3\n      add\n        /* \"#utility.yul\":6045:6092   */\n      mstore\n        /* \"#utility.yul\":6109:6127   */\n      0x64\n      add\n        /* \"staking.sol\":3974:4052  require(userLevelDeposit[_msgSender][_level].balance > 0, \"No active deposit\") */\n      tag_100\n        /* \"#utility.yul\":5792:6133   */\n      jump\n        /* \"staking.sol\":3974:4052  require(userLevelDeposit[_msgSender][_level].balance > 0, \"No active deposit\") */\n    tag_194:\n        /* \"staking.sol\":4063:4078  uint256 rewards */\n      0x00\n        /* \"staking.sol\":4081:4117  calculateRewards(_msgSender, _level) */\n      tag_196\n        /* \"staking.sol\":4098:4108  _msgSender */\n      dup3\n        /* \"staking.sol\":4110:4116  _level */\n      dup5\n        /* \"staking.sol\":4081:4097  calculateRewards */\n      tag_77\n        /* \"staking.sol\":4081:4117  calculateRewards(_msgSender, _level) */\n      jump\t// in\n    tag_196:\n      sub(shl(0xa0, 0x01), 0x01)\n        /* \"staking.sol\":4128:4156  userLevelDeposit[_msgSender] */\n      dup4\n      and\n      0x00\n      swap1\n      dup2\n      mstore\n        /* \"staking.sol\":4128:4144  userLevelDeposit */\n      0x03\n        /* \"staking.sol\":4128:4156  userLevelDeposit[_msgSender] */\n      0x20\n      swap1\n      dup2\n      mstore\n      0x40\n      dup1\n      dup4\n      keccak256\n        /* \"staking.sol\":4128:4164  userLevelDeposit[_msgSender][_level] */\n      dup8\n      dup5\n      mstore\n      swap1\n      swap2\n      mstore\n      dup2\n      keccak256\n        /* \"staking.sol\":4128:4183  userLevelDeposit[_msgSender][_level].balance += rewards */\n      dup1\n      sload\n        /* \"staking.sol\":4063:4117  uint256 rewards = calculateRewards(_msgSender, _level) */\n      swap3\n      swap4\n      pop\n      dup4\n      swap3\n        /* \"staking.sol\":4128:4164  userLevelDeposit[_msgSender][_level] */\n      swap1\n      swap2\n        /* \"staking.sol\":4128:4156  userLevelDeposit[_msgSender] */\n      swap1\n        /* \"staking.sol\":4128:4183  userLevelDeposit[_msgSender][_level].balance += rewards */\n      tag_197\n      swap1\n        /* \"staking.sol\":4063:4117  uint256 rewards = calculateRewards(_msgSender, _level) */\n      dup5\n      swap1\n        /* \"staking.sol\":4128:4183  userLevelDeposit[_msgSender][_level].balance += rewards */\n      tag_109\n      jump\t// in\n    tag_197:\n      swap1\n      swap2\n      sstore\n      pop\n      pop\n      sub(shl(0xa0, 0x01), 0x01)\n        /* \"staking.sol\":4193:4221  userLevelDeposit[_msgSender] */\n      dup3\n      and\n      0x00\n      swap1\n      dup2\n      mstore\n        /* \"staking.sol\":4193:4209  userLevelDeposit */\n      0x03\n        /* \"staking.sol\":4193:4221  userLevelDeposit[_msgSender] */\n      0x20\n      dup2\n      dup2\n      mstore\n      0x40\n      dup1\n      dup5\n      keccak256\n        /* \"staking.sol\":4193:4229  userLevelDeposit[_msgSender][_level] */\n      dup8\n      dup6\n      mstore\n      swap1\n      swap2\n      mstore\n      swap2\n      dup3\n      swap1\n      keccak256\n        /* \"staking.sol\":4242:4257  block.timestamp */\n      timestamp\n        /* \"staking.sol\":4193:4239  userLevelDeposit[_msgSender][_level].lastClaim */\n      swap2\n      add\n        /* \"staking.sol\":4193:4257  userLevelDeposit[_msgSender][_level].lastClaim = block.timestamp */\n      sstore\n        /* \"staking.sol\":4273:4311  Compound (_msgSender, _level, rewards) */\n      mload\n      0x0e311a2c6dbfb0153ec3a8a5bdca09070b3e5f60768fdc10a20453f38d186873\n      swap1\n      tag_117\n      swap1\n        /* \"staking.sol\":4210:4220  _msgSender */\n      dup5\n      swap1\n        /* \"staking.sol\":4222:4228  _level */\n      dup7\n      swap1\n        /* \"staking.sol\":4303:4310  rewards */\n      dup6\n      swap1\n        /* \"staking.sol\":4273:4311  Compound (_msgSender, _level, rewards) */\n      tag_147\n      jump\t// in\n        /* \"staking.sol\":5905:6016  function changeEarlyWithdrawFee(uint256 _newFee) external onlyOwner {... */\n    tag_74:\n        /* \"@openzeppelin/contracts/access/Ownable.sol\":1082:1089  address */\n      0x00\n        /* \"@openzeppelin/contracts/access/Ownable.sol\":1108:1114  _owner */\n      sload\n      sub(shl(0xa0, 0x01), 0x01)\n      and\n        /* \"@openzeppelin/contracts/utils/Context.sol\":719:729  msg.sender */\n      caller\n        /* \"@openzeppelin/contracts/access/Ownable.sol\":1248:1271  owner() == _msgSender() */\n      eq\n        /* \"@openzeppelin/contracts/access/Ownable.sol\":1240:1308  require(owner() == _msgSender(), \"Ownable: caller is not the owner\") */\n      tag_202\n      jumpi\n      mload(0x40)\n      shl(0xe5, 0x461bcd)\n      dup2\n      mstore\n      0x04\n      add\n      tag_100\n      swap1\n      tag_101\n      jump\t// in\n    tag_202:\n        /* \"staking.sol\":5983:5999  earlyWithdrawFee */\n      0x02\n        /* \"staking.sol\":5983:6009  earlyWithdrawFee = _newFee */\n      sstore\n        /* \"staking.sol\":5905:6016  function changeEarlyWithdrawFee(uint256 _newFee) external onlyOwner {... */\n      jump\t// out\n        /* \"staking.sol\":4324:4789  function calculateRewards (address _user, uint256 _level) public view returns (uint256){... */\n    tag_77:\n      sub(shl(0xa0, 0x01), 0x01)\n        /* \"staking.sol\":4460:4483  userLevelDeposit[_user] */\n      dup3\n      and\n        /* \"staking.sol\":4403:4410  uint256 */\n      0x00\n        /* \"staking.sol\":4460:4483  userLevelDeposit[_user] */\n      swap1\n      dup2\n      mstore\n        /* \"staking.sol\":4460:4476  userLevelDeposit */\n      0x03\n        /* \"staking.sol\":4460:4483  userLevelDeposit[_user] */\n      0x20\n      dup2\n      dup2\n      mstore\n      0x40\n      dup1\n      dup5\n      keccak256\n        /* \"staking.sol\":4460:4491  userLevelDeposit[_user][_level] */\n      dup6\n      dup6\n      mstore\n      swap1\n      swap2\n      mstore\n      dup3\n      keccak256\n        /* \"staking.sol\":4460:4501  userLevelDeposit[_user][_level].lastClaim */\n      add\n      sload\n        /* \"staking.sol\":4403:4410  uint256 */\n      dup2\n      swap1\n        /* \"staking.sol\":4442:4501  block.timestamp - userLevelDeposit[_user][_level].lastClaim */\n      tag_206\n      swap1\n        /* \"staking.sol\":4442:4457  block.timestamp */\n      timestamp\n        /* \"staking.sol\":4442:4501  block.timestamp - userLevelDeposit[_user][_level].lastClaim */\n      tag_139\n      jump\t// in\n    tag_206:\n      sub(shl(0xa0, 0x01), 0x01)\n        /* \"staking.sol\":4529:4552  userLevelDeposit[_user] */\n      dup6\n      and\n        /* \"staking.sol\":4511:4526  uint256 balance */\n      0x00\n        /* \"staking.sol\":4529:4552  userLevelDeposit[_user] */\n      swap1\n      dup2\n      mstore\n        /* \"staking.sol\":4529:4545  userLevelDeposit */\n      0x03\n        /* \"staking.sol\":4529:4552  userLevelDeposit[_user] */\n      0x20\n      swap1\n      dup2\n      mstore\n      0x40\n      dup1\n      dup4\n      keccak256\n        /* \"staking.sol\":4529:4560  userLevelDeposit[_user][_level] */\n      dup8\n      dup5\n      mstore\n      dup3\n      mstore\n      dup1\n      dup4\n      keccak256\n        /* \"staking.sol\":4529:4568  userLevelDeposit[_user][_level].balance */\n      sload\n        /* \"staking.sol\":4593:4602  levelInfo */\n      0x04\n        /* \"staking.sol\":4593:4610  levelInfo[_level] */\n      swap1\n      swap3\n      mstore\n      dup3\n      keccak256\n        /* \"staking.sol\":4593:4614  levelInfo[_level].APY */\n      sload\n        /* \"staking.sol\":4421:4501  uint256 timeStaked = block.timestamp - userLevelDeposit[_user][_level].lastClaim */\n      swap3\n      swap4\n      pop\n        /* \"staking.sol\":4529:4568  userLevelDeposit[_user][_level].balance */\n      swap2\n        /* \"staking.sol\":4593:4614  levelInfo[_level].APY */\n      swap1\n        /* \"staking.sol\":4680:4688  365 days */\n      0x01e13380\n        /* \"staking.sol\":4671:4676  10000 */\n      0x2710\n        /* \"staking.sol\":4654:4667  balance * APY */\n      tag_207\n        /* \"staking.sol\":4593:4614  levelInfo[_level].APY */\n      dup5\n        /* \"staking.sol\":4529:4568  userLevelDeposit[_user][_level].balance */\n      dup7\n        /* \"staking.sol\":4654:4667  balance * APY */\n      tag_135\n      jump\t// in\n    tag_207:\n        /* \"staking.sol\":4653:4676  (balance * APY) / 10000 */\n      tag_208\n      swap2\n      swap1\n      tag_137\n      jump\t// in\n    tag_208:\n        /* \"staking.sol\":4652:4688  ((balance * APY) / 10000) / 365 days */\n      tag_209\n      swap2\n      swap1\n      tag_137\n      jump\t// in\n    tag_209:\n        /* \"staking.sol\":4625:4688  uint256 rewardsPerSecond = ((balance * APY) / 10000) / 365 days */\n      swap1\n      pop\n        /* \"staking.sol\":4698:4719  uint256 rewardsEarned */\n      0x00\n        /* \"staking.sol\":4722:4751  timeStaked * rewardsPerSecond */\n      tag_210\n        /* \"staking.sol\":4625:4688  uint256 rewardsPerSecond = ((balance * APY) / 10000) / 365 days */\n      dup3\n        /* \"staking.sol\":4722:4732  timeStaked */\n      dup7\n        /* \"staking.sol\":4722:4751  timeStaked * rewardsPerSecond */\n      tag_135\n      jump\t// in\n    tag_210:\n        /* \"staking.sol\":4698:4751  uint256 rewardsEarned = timeStaked * rewardsPerSecond */\n      swap9\n        /* \"staking.sol\":4324:4789  function calculateRewards (address _user, uint256 _level) public view returns (uint256){... */\n      swap8\n      pop\n      pop\n      pop\n      pop\n      pop\n      pop\n      pop\n      pop\n      jump\t// out\n        /* \"staking.sol\":1891:2596  function deposit (uint256 _amount, uint256 _level) public whenNotPaused {... */\n    tag_82:\n        /* \"@openzeppelin/contracts/security/Pausable.sol\":1145:1149  bool */\n      0x00\n        /* \"@openzeppelin/contracts/security/Pausable.sol\":1168:1175  _paused */\n      sload\n      shl(0xa0, 0x01)\n      swap1\n      div\n      0xff\n      and\n        /* \"@openzeppelin/contracts/security/Pausable.sol\":1411:1420  !paused() */\n      iszero\n        /* \"@openzeppelin/contracts/security/Pausable.sol\":1403:1441  require(!paused(), \"Pausable: paused\") */\n      tag_213\n      jumpi\n      mload(0x40)\n      shl(0xe5, 0x461bcd)\n      dup2\n      mstore\n        /* \"#utility.yul\":5288:5290   */\n      0x20\n        /* \"@openzeppelin/contracts/security/Pausable.sol\":1403:1441  require(!paused(), \"Pausable: paused\") */\n      0x04\n      dup3\n      add\n        /* \"#utility.yul\":5270:5291   */\n      mstore\n        /* \"#utility.yul\":5327:5329   */\n      0x10\n        /* \"#utility.yul\":5307:5325   */\n      0x24\n      dup3\n      add\n        /* \"#utility.yul\":5300:5330   */\n      mstore\n      shl(0x82, 0x14185d5cd8589b194e881c185d5cd959)\n        /* \"#utility.yul\":5346:5364   */\n      0x44\n      dup3\n      add\n        /* \"#utility.yul\":5339:5385   */\n      mstore\n        /* \"#utility.yul\":5402:5420   */\n      0x64\n      add\n        /* \"@openzeppelin/contracts/security/Pausable.sol\":1403:1441  require(!paused(), \"Pausable: paused\") */\n      tag_100\n        /* \"#utility.yul\":5086:5426   */\n      jump\n        /* \"@openzeppelin/contracts/security/Pausable.sol\":1403:1441  require(!paused(), \"Pausable: paused\") */\n    tag_213:\n        /* \"staking.sol\":2022:2035  acceptedToken */\n      sload(0x01)\n        /* \"staking.sol\":2022:2084  acceptedToken.transferFrom(_msgSender, address(this), _amount) */\n      mload(0x40)\n      shl(0xe0, 0x23b872dd)\n      dup2\n      mstore\n        /* \"staking.sol\":1994:2004  msg.sender */\n      caller\n        /* \"staking.sol\":2022:2084  acceptedToken.transferFrom(_msgSender, address(this), _amount) */\n      0x04\n      dup3\n      add\n        /* \"#utility.yul\":2789:2823   */\n      dup2\n      swap1\n      mstore\n        /* \"staking.sol\":2069:2073  this */\n      address\n        /* \"#utility.yul\":2839:2857   */\n      0x24\n      dup4\n      add\n        /* \"#utility.yul\":2832:2875   */\n      mstore\n        /* \"#utility.yul\":2891:2909   */\n      0x44\n      dup3\n      add\n        /* \"#utility.yul\":2884:2918   */\n      dup6\n      swap1\n      mstore\n        /* \"staking.sol\":1994:2004  msg.sender */\n      swap2\n      sub(shl(0xa0, 0x01), 0x01)\n        /* \"staking.sol\":2022:2035  acceptedToken */\n      and\n      swap1\n        /* \"staking.sol\":2022:2048  acceptedToken.transferFrom */\n      0x23b872dd\n      swap1\n        /* \"#utility.yul\":2724:2742   */\n      0x64\n      add\n        /* \"staking.sol\":2022:2084  acceptedToken.transferFrom(_msgSender, address(this), _amount) */\n      0x20\n      mload(0x40)\n      dup1\n      dup4\n      sub\n      dup2\n      0x00\n      dup8\n      dup1\n      extcodesize\n      iszero\n      dup1\n      iszero\n      tag_219\n      jumpi\n      0x00\n      dup1\n      revert\n    tag_219:\n      pop\n      gas\n      call\n      iszero\n      dup1\n      iszero\n      tag_221\n      jumpi\n      returndatasize\n      0x00\n      dup1\n      returndatacopy\n      revert(0x00, returndatasize)\n    tag_221:\n      pop\n      pop\n      pop\n      pop\n      mload(0x40)\n      returndatasize\n      not(0x1f)\n      0x1f\n      dup3\n      add\n      and\n      dup3\n      add\n      dup1\n      0x40\n      mstore\n      pop\n      dup2\n      add\n      swap1\n      tag_222\n      swap2\n      swap1\n      tag_116\n      jump\t// in\n    tag_222:\n      pop\n      sub(shl(0xa0, 0x01), 0x01)\n        /* \"staking.sol\":2098:2126  userLevelDeposit[_msgSender] */\n      dup2\n      and\n        /* \"staking.sol\":2145:2146  0 */\n      0x00\n        /* \"staking.sol\":2098:2126  userLevelDeposit[_msgSender] */\n      swap1\n      dup2\n      mstore\n        /* \"staking.sol\":2098:2114  userLevelDeposit */\n      0x03\n        /* \"staking.sol\":2098:2126  userLevelDeposit[_msgSender] */\n      0x20\n      swap1\n      dup2\n      mstore\n      0x40\n      dup1\n      dup4\n      keccak256\n        /* \"staking.sol\":2098:2134  userLevelDeposit[_msgSender][_level] */\n      dup6\n      dup5\n      mstore\n      swap1\n      swap2\n      mstore\n      swap1\n      keccak256\n        /* \"staking.sol\":2098:2142  userLevelDeposit[_msgSender][_level].balance */\n      sload\n        /* \"staking.sol\":2098:2146  userLevelDeposit[_msgSender][_level].balance > 0 */\n      iszero\n        /* \"staking.sol\":2095:2219  if(userLevelDeposit[_msgSender][_level].balance > 0){... */\n      tag_223\n      jumpi\n        /* \"staking.sol\":2172:2208  calculateRewards(_msgSender, _level) */\n      tag_224\n        /* \"staking.sol\":2189:2199  _msgSender */\n      dup2\n        /* \"staking.sol\":2201:2207  _level */\n      dup4\n        /* \"staking.sol\":2172:2188  calculateRewards */\n      tag_77\n        /* \"staking.sol\":2172:2208  calculateRewards(_msgSender, _level) */\n      jump\t// in\n    tag_224:\n        /* \"staking.sol\":2161:2208  _amount += calculateRewards(_msgSender, _level) */\n      tag_225\n      swap1\n      dup5\n      tag_109\n      jump\t// in\n    tag_225:\n      swap3\n      pop\n        /* \"staking.sol\":2095:2219  if(userLevelDeposit[_msgSender][_level].balance > 0){... */\n    tag_223:\n      sub(shl(0xa0, 0x01), 0x01)\n        /* \"staking.sol\":2229:2257  userLevelDeposit[_msgSender] */\n      dup2\n      and\n      0x00\n      swap1\n      dup2\n      mstore\n        /* \"staking.sol\":2229:2245  userLevelDeposit */\n      0x03\n        /* \"staking.sol\":2229:2257  userLevelDeposit[_msgSender] */\n      0x20\n      swap1\n      dup2\n      mstore\n      0x40\n      dup1\n      dup4\n      keccak256\n        /* \"staking.sol\":2229:2265  userLevelDeposit[_msgSender][_level] */\n      dup6\n      dup5\n      mstore\n      swap1\n      swap2\n      mstore\n      dup2\n      keccak256\n        /* \"staking.sol\":2229:2284  userLevelDeposit[_msgSender][_level].balance += _amount */\n      dup1\n      sload\n        /* \"staking.sol\":2277:2284  _amount */\n      dup6\n      swap3\n        /* \"staking.sol\":2229:2257  userLevelDeposit[_msgSender] */\n      swap1\n        /* \"staking.sol\":2229:2284  userLevelDeposit[_msgSender][_level].balance += _amount */\n      tag_226\n      swap1\n        /* \"staking.sol\":2277:2284  _amount */\n      dup5\n      swap1\n        /* \"staking.sol\":2229:2284  userLevelDeposit[_msgSender][_level].balance += _amount */\n      tag_109\n      jump\t// in\n    tag_226:\n      swap1\n      swap2\n      sstore\n      pop\n      pop\n      sub(shl(0xa0, 0x01), 0x01)\n        /* \"staking.sol\":2294:2322  userLevelDeposit[_msgSender] */\n      dup2\n      and\n      0x00\n      swap1\n      dup2\n      mstore\n        /* \"staking.sol\":2294:2310  userLevelDeposit */\n      0x03\n        /* \"staking.sol\":2294:2322  userLevelDeposit[_msgSender] */\n      0x20\n      dup2\n      dup2\n      mstore\n      0x40\n      dup1\n      dup5\n      keccak256\n        /* \"staking.sol\":2294:2330  userLevelDeposit[_msgSender][_level] */\n      dup7\n      dup6\n      mstore\n      dup3\n      mstore\n      dup1\n      dup5\n      keccak256\n        /* \"staking.sol\":2341:2356  block.timestamp */\n      timestamp\n        /* \"staking.sol\":2294:2338  userLevelDeposit[_msgSender][_level].started */\n      0x02\n      dup3\n      add\n        /* \"staking.sol\":2294:2356  userLevelDeposit[_msgSender][_level].started = block.timestamp */\n      dup2\n      swap1\n      sstore\n        /* \"staking.sol\":2366:2412  userLevelDeposit[_msgSender][_level].lastClaim */\n      swap4\n      add\n        /* \"staking.sol\":2366:2430  userLevelDeposit[_msgSender][_level].lastClaim = block.timestamp */\n      dup4\n      swap1\n      sstore\n        /* \"staking.sol\":2508:2517  levelInfo */\n      0x04\n        /* \"staking.sol\":2508:2525  levelInfo[_level] */\n      swap1\n      swap2\n      mstore\n      swap1\n      swap2\n      keccak256\n        /* \"staking.sol\":2508:2536  levelInfo[_level].lockPeriod */\n      0x01\n      add\n      sload\n        /* \"staking.sol\":2490:2536  block.timestamp + levelInfo[_level].lockPeriod */\n      tag_227\n      swap2\n      tag_109\n      jump\t// in\n    tag_227:\n      sub(shl(0xa0, 0x01), 0x01)\n        /* \"staking.sol\":2440:2468  userLevelDeposit[_msgSender] */\n      dup3\n      and\n      0x00\n      swap1\n      dup2\n      mstore\n        /* \"staking.sol\":2440:2456  userLevelDeposit */\n      0x03\n        /* \"staking.sol\":2440:2468  userLevelDeposit[_msgSender] */\n      0x20\n      swap1\n      dup2\n      mstore\n      0x40\n      dup1\n      dup4\n      keccak256\n        /* \"staking.sol\":2440:2476  userLevelDeposit[_msgSender][_level] */\n      dup7\n      dup5\n      mstore\n      swap1\n      swap2\n      mstore\n      swap1\n      dup2\n      swap1\n      keccak256\n        /* \"staking.sol\":2440:2487  userLevelDeposit[_msgSender][_level].unlockTime */\n      0x04\n      add\n        /* \"staking.sol\":2440:2536  userLevelDeposit[_msgSender][_level].unlockTime = block.timestamp + levelInfo[_level].lockPeriod */\n      swap2\n      swap1\n      swap2\n      sstore\n        /* \"staking.sol\":2552:2589  Deposit (_msgSender, _level, _amount) */\n      mload\n      0x90890809c654f11d6e72a28fa60149770a0d11ec6c92319d6ceb2bb0a4ea1a15\n      swap1\n      tag_117\n      swap1\n        /* \"staking.sol\":2457:2467  _msgSender */\n      dup4\n      swap1\n        /* \"staking.sol\":2469:2475  _level */\n      dup6\n      swap1\n        /* \"staking.sol\":2581:2588  _amount */\n      dup8\n      swap1\n        /* \"staking.sol\":2552:2589  Deposit (_msgSender, _level, _amount) */\n      tag_147\n      jump\t// in\n        /* \"@openzeppelin/contracts/access/Ownable.sol\":1918:2116  function transferOwnership(address newOwner) public virtual onlyOwner {... */\n    tag_94:\n        /* \"@openzeppelin/contracts/access/Ownable.sol\":1082:1089  address */\n      0x00\n        /* \"@openzeppelin/contracts/access/Ownable.sol\":1108:1114  _owner */\n      sload\n      sub(shl(0xa0, 0x01), 0x01)\n      and\n        /* \"@openzeppelin/contracts/utils/Context.sol\":719:729  msg.sender */\n      caller\n        /* \"@openzeppelin/contracts/access/Ownable.sol\":1248:1271  owner() == _msgSender() */\n      eq\n        /* \"@openzeppelin/contracts/access/Ownable.sol\":1240:1308  require(owner() == _msgSender(), \"Ownable: caller is not the owner\") */\n      tag_238\n      jumpi\n      mload(0x40)\n      shl(0xe5, 0x461bcd)\n      dup2\n      mstore\n      0x04\n      add\n      tag_100\n      swap1\n      tag_101\n      jump\t// in\n    tag_238:\n      sub(shl(0xa0, 0x01), 0x01)\n        /* \"@openzeppelin/contracts/access/Ownable.sol\":2006:2028  newOwner != address(0) */\n      dup2\n      and\n        /* \"@openzeppelin/contracts/access/Ownable.sol\":1998:2071  require(newOwner != address(0), \"Ownable: new owner is the zero address\") */\n      tag_241\n      jumpi\n      mload(0x40)\n      shl(0xe5, 0x461bcd)\n      dup2\n      mstore\n        /* \"#utility.yul\":4881:4883   */\n      0x20\n        /* \"@openzeppelin/contracts/access/Ownable.sol\":1998:2071  require(newOwner != address(0), \"Ownable: new owner is the zero address\") */\n      0x04\n      dup3\n      add\n        /* \"#utility.yul\":4863:4884   */\n      mstore\n        /* \"#utility.yul\":4920:4922   */\n      0x26\n        /* \"#utility.yul\":4900:4918   */\n      0x24\n      dup3\n      add\n        /* \"#utility.yul\":4893:4923   */\n      mstore\n        /* \"#utility.yul\":4959:4993   */\n      0x4f776e61626c653a206e6577206f776e657220697320746865207a65726f2061\n        /* \"#utility.yul\":4939:4957   */\n      0x44\n      dup3\n      add\n        /* \"#utility.yul\":4932:4994   */\n      mstore\n      shl(0xd0, 0x646472657373)\n        /* \"#utility.yul\":5010:5028   */\n      0x64\n      dup3\n      add\n        /* \"#utility.yul\":5003:5039   */\n      mstore\n        /* \"#utility.yul\":5056:5075   */\n      0x84\n      add\n        /* \"@openzeppelin/contracts/access/Ownable.sol\":1998:2071  require(newOwner != address(0), \"Ownable: new owner is the zero address\") */\n      tag_100\n        /* \"#utility.yul\":4679:5081   */\n      jump\n        /* \"@openzeppelin/contracts/access/Ownable.sol\":1998:2071  require(newOwner != address(0), \"Ownable: new owner is the zero address\") */\n    tag_241:\n        /* \"@openzeppelin/contracts/access/Ownable.sol\":2081:2109  _transferOwnership(newOwner) */\n      tag_191\n        /* \"@openzeppelin/contracts/access/Ownable.sol\":2100:2108  newOwner */\n      dup2\n        /* \"@openzeppelin/contracts/access/Ownable.sol\":2081:2099  _transferOwnership */\n      tag_166\n        /* \"@openzeppelin/contracts/access/Ownable.sol\":2081:2109  _transferOwnership(newOwner) */\n      jump\t// in\n        /* \"@openzeppelin/contracts/security/Pausable.sol\":2110:2227  function _unpause() internal virtual whenPaused {... */\n    tag_126:\n        /* \"@openzeppelin/contracts/security/Pausable.sol\":1145:1149  bool */\n      0x00\n        /* \"@openzeppelin/contracts/security/Pausable.sol\":1168:1175  _paused */\n      sload\n      shl(0xa0, 0x01)\n      swap1\n      div\n      0xff\n      and\n        /* \"@openzeppelin/contracts/security/Pausable.sol\":1669:1710  require(paused(), \"Pausable: not paused\") */\n      tag_248\n      jumpi\n      mload(0x40)\n      shl(0xe5, 0x461bcd)\n      dup2\n      mstore\n        /* \"#utility.yul\":4532:4534   */\n      0x20\n        /* \"@openzeppelin/contracts/security/Pausable.sol\":1669:1710  require(paused(), \"Pausable: not paused\") */\n      0x04\n      dup3\n      add\n        /* \"#utility.yul\":4514:4535   */\n      mstore\n        /* \"#utility.yul\":4571:4573   */\n      0x14\n        /* \"#utility.yul\":4551:4569   */\n      0x24\n      dup3\n      add\n        /* \"#utility.yul\":4544:4574   */\n      mstore\n      shl(0x62, 0x14185d5cd8589b194e881b9bdd081c185d5cd959)\n        /* \"#utility.yul\":4590:4608   */\n      0x44\n      dup3\n      add\n        /* \"#utility.yul\":4583:4633   */\n      mstore\n        /* \"#utility.yul\":4650:4668   */\n      0x64\n      add\n        /* \"@openzeppelin/contracts/security/Pausable.sol\":1669:1710  require(paused(), \"Pausable: not paused\") */\n      tag_100\n        /* \"#utility.yul\":4330:4674   */\n      jump\n        /* \"@openzeppelin/contracts/security/Pausable.sol\":1669:1710  require(paused(), \"Pausable: not paused\") */\n    tag_248:\n        /* \"@openzeppelin/contracts/security/Pausable.sol\":2178:2183  false */\n      0x00\n        /* \"@openzeppelin/contracts/security/Pausable.sol\":2168:2183  _paused = false */\n      dup1\n      sload\n      not(shl(0xa0, 0xff))\n      and\n      swap1\n      sstore\n        /* \"@openzeppelin/contracts/security/Pausable.sol\":2198:2220  Unpaused(_msgSender()) */\n      0x5db9ee0a495bf2e6ff9c91a7834c1ba4fdd244a5e8aa4e537bd38aeae4b073aa\n        /* \"@openzeppelin/contracts/utils/Context.sol\":719:729  msg.sender */\n      caller\n        /* \"@openzeppelin/contracts/security/Pausable.sol\":2207:2219  _msgSender() */\n    tag_252:\n        /* \"@openzeppelin/contracts/security/Pausable.sol\":2198:2220  Unpaused(_msgSender()) */\n      mload(0x40)\n      sub(shl(0xa0, 0x01), 0x01)\n        /* \"#utility.yul\":2505:2537   */\n      swap1\n      swap2\n      and\n        /* \"#utility.yul\":2487:2538   */\n      dup2\n      mstore\n        /* \"#utility.yul\":2475:2477   */\n      0x20\n        /* \"#utility.yul\":2460:2478   */\n      add\n        /* \"@openzeppelin/contracts/security/Pausable.sol\":2198:2220  Unpaused(_msgSender()) */\n      mload(0x40)\n      dup1\n      swap2\n      sub\n      swap1\n      log1\n        /* \"@openzeppelin/contracts/security/Pausable.sol\":2110:2227  function _unpause() internal virtual whenPaused {... */\n      jump\t// out\n        /* \"@openzeppelin/contracts/access/Ownable.sol\":2270:2457  function _transferOwnership(address newOwner) internal virtual {... */\n    tag_166:\n        /* \"@openzeppelin/contracts/access/Ownable.sol\":2343:2359  address oldOwner */\n      0x00\n        /* \"@openzeppelin/contracts/access/Ownable.sol\":2362:2368  _owner */\n      dup1\n      sload\n      sub(shl(0xa0, 0x01), 0x01)\n        /* \"@openzeppelin/contracts/access/Ownable.sol\":2378:2395  _owner = newOwner */\n      dup4\n      dup2\n      and\n      not(sub(shl(0xa0, 0x01), 0x01))\n      dup4\n      and\n      dup2\n      or\n      dup5\n      sstore\n        /* \"@openzeppelin/contracts/access/Ownable.sol\":2410:2450  OwnershipTransferred(oldOwner, newOwner) */\n      mload(0x40)\n        /* \"@openzeppelin/contracts/access/Ownable.sol\":2362:2368  _owner */\n      swap2\n      swap1\n      swap3\n      and\n      swap3\n      dup4\n      swap2\n        /* \"@openzeppelin/contracts/access/Ownable.sol\":2410:2450  OwnershipTransferred(oldOwner, newOwner) */\n      0x8be0079c531659141344cd1fd0a4f28419497f9722a3daafe3b4186f6b6457e0\n      swap2\n        /* \"@openzeppelin/contracts/access/Ownable.sol\":2343:2359  address oldOwner */\n      swap1\n        /* \"@openzeppelin/contracts/access/Ownable.sol\":2410:2450  OwnershipTransferred(oldOwner, newOwner) */\n      log3\n        /* \"@openzeppelin/contracts/access/Ownable.sol\":2333:2457  {... */\n      pop\n        /* \"@openzeppelin/contracts/access/Ownable.sol\":2270:2457  function _transferOwnership(address newOwner) internal virtual {... */\n      pop\n      jump\t// out\n        /* \"@openzeppelin/contracts/security/Pausable.sol\":1863:1978  function _pause() internal virtual whenNotPaused {... */\n    tag_174:\n        /* \"@openzeppelin/contracts/security/Pausable.sol\":1145:1149  bool */\n      0x00\n        /* \"@openzeppelin/contracts/security/Pausable.sol\":1168:1175  _paused */\n      sload\n      shl(0xa0, 0x01)\n      swap1\n      div\n      0xff\n      and\n        /* \"@openzeppelin/contracts/security/Pausable.sol\":1411:1420  !paused() */\n      iszero\n        /* \"@openzeppelin/contracts/security/Pausable.sol\":1403:1441  require(!paused(), \"Pausable: paused\") */\n      tag_257\n      jumpi\n      mload(0x40)\n      shl(0xe5, 0x461bcd)\n      dup2\n      mstore\n        /* \"#utility.yul\":5288:5290   */\n      0x20\n        /* \"@openzeppelin/contracts/security/Pausable.sol\":1403:1441  require(!paused(), \"Pausable: paused\") */\n      0x04\n      dup3\n      add\n        /* \"#utility.yul\":5270:5291   */\n      mstore\n        /* \"#utility.yul\":5327:5329   */\n      0x10\n        /* \"#utility.yul\":5307:5325   */\n      0x24\n      dup3\n      add\n        /* \"#utility.yul\":5300:5330   */\n      mstore\n      shl(0x82, 0x14185d5cd8589b194e881c185d5cd959)\n        /* \"#utility.yul\":5346:5364   */\n      0x44\n      dup3\n      add\n        /* \"#utility.yul\":5339:5385   */\n      mstore\n        /* \"#utility.yul\":5402:5420   */\n      0x64\n      add\n        /* \"@openzeppelin/contracts/security/Pausable.sol\":1403:1441  require(!paused(), \"Pausable: paused\") */\n      tag_100\n        /* \"#utility.yul\":5086:5426   */\n      jump\n        /* \"@openzeppelin/contracts/security/Pausable.sol\":1403:1441  require(!paused(), \"Pausable: paused\") */\n    tag_257:\n        /* \"@openzeppelin/contracts/security/Pausable.sol\":1922:1929  _paused */\n      0x00\n        /* \"@openzeppelin/contracts/security/Pausable.sol\":1922:1936  _paused = true */\n      dup1\n      sload\n      not(shl(0xa0, 0xff))\n      and\n      shl(0xa0, 0x01)\n      or\n      swap1\n      sstore\n        /* \"@openzeppelin/contracts/security/Pausable.sol\":1951:1971  Paused(_msgSender()) */\n      0x62e78cea01bee320cd4e420270b5ea74000d11b0c9f74754ebdbfc544b05a258\n        /* \"@openzeppelin/contracts/security/Pausable.sol\":1958:1970  _msgSender() */\n      tag_252\n        /* \"@openzeppelin/contracts/utils/Context.sol\":719:729  msg.sender */\n      caller\n      swap1\n        /* \"@openzeppelin/contracts/utils/Context.sol\":640:736  function _msgSender() internal view virtual returns (address) {... */\n      jump\n    tag_150:\n      mload(0x40)\n      dup1\n      0xa0\n      add\n      0x40\n      mstore\n      dup1\n      0x00\n      dup2\n      mstore\n      0x20\n      add\n      0x00\n      dup2\n      mstore\n      0x20\n      add\n      0x00\n      dup2\n      mstore\n      0x20\n      add\n      0x00\n      dup2\n      mstore\n      0x20\n      add\n      0x00\n      dup2\n      mstore\n      pop\n      swap1\n      jump\t// out\n        /* \"#utility.yul\":14:187   */\n    tag_263:\n        /* \"#utility.yul\":82:102   */\n      dup1\n      calldataload\n      sub(shl(0xa0, 0x01), 0x01)\n        /* \"#utility.yul\":131:162   */\n      dup2\n      and\n        /* \"#utility.yul\":121:163   */\n      dup2\n      eq\n        /* \"#utility.yul\":111:181   */\n      tag_265\n      jumpi\n        /* \"#utility.yul\":177:178   */\n      0x00\n        /* \"#utility.yul\":174:175   */\n      dup1\n        /* \"#utility.yul\":167:179   */\n      revert\n        /* \"#utility.yul\":111:181   */\n    tag_265:\n        /* \"#utility.yul\":14:187   */\n      swap2\n      swap1\n      pop\n      jump\t// out\n        /* \"#utility.yul\":192:378   */\n    tag_55:\n        /* \"#utility.yul\":251:257   */\n      0x00\n        /* \"#utility.yul\":304:306   */\n      0x20\n        /* \"#utility.yul\":292:301   */\n      dup3\n        /* \"#utility.yul\":283:290   */\n      dup5\n        /* \"#utility.yul\":279:302   */\n      sub\n        /* \"#utility.yul\":275:307   */\n      slt\n        /* \"#utility.yul\":272:324   */\n      iszero\n      tag_267\n      jumpi\n        /* \"#utility.yul\":320:321   */\n      0x00\n        /* \"#utility.yul\":317:318   */\n      dup1\n        /* \"#utility.yul\":310:322   */\n      revert\n        /* \"#utility.yul\":272:324   */\n    tag_267:\n        /* \"#utility.yul\":343:372   */\n      tag_268\n        /* \"#utility.yul\":362:371   */\n      dup3\n        /* \"#utility.yul\":343:372   */\n      tag_263\n      jump\t// in\n    tag_268:\n        /* \"#utility.yul\":333:372   */\n      swap4\n        /* \"#utility.yul\":192:378   */\n      swap3\n      pop\n      pop\n      pop\n      jump\t// out\n        /* \"#utility.yul\":383:637   */\n    tag_27:\n        /* \"#utility.yul\":451:457   */\n      0x00\n        /* \"#utility.yul\":459:465   */\n      dup1\n        /* \"#utility.yul\":512:514   */\n      0x40\n        /* \"#utility.yul\":500:509   */\n      dup4\n        /* \"#utility.yul\":491:498   */\n      dup6\n        /* \"#utility.yul\":487:510   */\n      sub\n        /* \"#utility.yul\":483:515   */\n      slt\n        /* \"#utility.yul\":480:532   */\n      iszero\n      tag_270\n      jumpi\n        /* \"#utility.yul\":528:529   */\n      0x00\n        /* \"#utility.yul\":525:526   */\n      dup1\n        /* \"#utility.yul\":518:530   */\n      revert\n        /* \"#utility.yul\":480:532   */\n    tag_270:\n        /* \"#utility.yul\":551:580   */\n      tag_271\n        /* \"#utility.yul\":570:579   */\n      dup4\n        /* \"#utility.yul\":551:580   */\n      tag_263\n      jump\t// in\n    tag_271:\n        /* \"#utility.yul\":541:580   */\n      swap5\n        /* \"#utility.yul\":627:629   */\n      0x20\n        /* \"#utility.yul\":612:630   */\n      swap4\n      swap1\n      swap4\n      add\n        /* \"#utility.yul\":599:631   */\n      calldataload\n      swap4\n      pop\n      pop\n      pop\n        /* \"#utility.yul\":383:637   */\n      jump\t// out\n        /* \"#utility.yul\":642:919   */\n    tag_116:\n        /* \"#utility.yul\":709:715   */\n      0x00\n        /* \"#utility.yul\":762:764   */\n      0x20\n        /* \"#utility.yul\":750:759   */\n      dup3\n        /* \"#utility.yul\":741:748   */\n      dup5\n        /* \"#utility.yul\":737:760   */\n      sub\n        /* \"#utility.yul\":733:765   */\n      slt\n        /* \"#utility.yul\":730:782   */\n      iszero\n      tag_273\n      jumpi\n        /* \"#utility.yul\":778:779   */\n      0x00\n        /* \"#utility.yul\":775:776   */\n      dup1\n        /* \"#utility.yul\":768:780   */\n      revert\n        /* \"#utility.yul\":730:782   */\n    tag_273:\n        /* \"#utility.yul\":810:819   */\n      dup2\n        /* \"#utility.yul\":804:820   */\n      mload\n        /* \"#utility.yul\":863:868   */\n      dup1\n        /* \"#utility.yul\":856:869   */\n      iszero\n        /* \"#utility.yul\":849:870   */\n      iszero\n        /* \"#utility.yul\":842:847   */\n      dup2\n        /* \"#utility.yul\":839:871   */\n      eq\n        /* \"#utility.yul\":829:889   */\n      tag_268\n      jumpi\n        /* \"#utility.yul\":885:886   */\n      0x00\n        /* \"#utility.yul\":882:883   */\n      dup1\n        /* \"#utility.yul\":875:887   */\n      revert\n        /* \"#utility.yul\":924:1104   */\n    tag_37:\n        /* \"#utility.yul\":983:989   */\n      0x00\n        /* \"#utility.yul\":1036:1038   */\n      0x20\n        /* \"#utility.yul\":1024:1033   */\n      dup3\n        /* \"#utility.yul\":1015:1022   */\n      dup5\n        /* \"#utility.yul\":1011:1034   */\n      sub\n        /* \"#utility.yul\":1007:1039   */\n      slt\n        /* \"#utility.yul\":1004:1056   */\n      iszero\n      tag_276\n      jumpi\n        /* \"#utility.yul\":1052:1053   */\n      0x00\n        /* \"#utility.yul\":1049:1050   */\n      dup1\n        /* \"#utility.yul\":1042:1054   */\n      revert\n        /* \"#utility.yul\":1004:1056   */\n    tag_276:\n      pop\n        /* \"#utility.yul\":1075:1098   */\n      calldataload\n      swap2\n        /* \"#utility.yul\":924:1104   */\n      swap1\n      pop\n      jump\t// out\n        /* \"#utility.yul\":1109:1293   */\n    tag_186:\n        /* \"#utility.yul\":1179:1185   */\n      0x00\n        /* \"#utility.yul\":1232:1234   */\n      0x20\n        /* \"#utility.yul\":1220:1229   */\n      dup3\n        /* \"#utility.yul\":1211:1218   */\n      dup5\n        /* \"#utility.yul\":1207:1230   */\n      sub\n        /* \"#utility.yul\":1203:1235   */\n      slt\n        /* \"#utility.yul\":1200:1252   */\n      iszero\n      tag_278\n      jumpi\n        /* \"#utility.yul\":1248:1249   */\n      0x00\n        /* \"#utility.yul\":1245:1246   */\n      dup1\n        /* \"#utility.yul\":1238:1250   */\n      revert\n        /* \"#utility.yul\":1200:1252   */\n    tag_278:\n      pop\n        /* \"#utility.yul\":1271:1287   */\n      mload\n      swap2\n        /* \"#utility.yul\":1109:1293   */\n      swap1\n      pop\n      jump\t// out\n        /* \"#utility.yul\":1298:1546   */\n    tag_43:\n        /* \"#utility.yul\":1366:1372   */\n      0x00\n        /* \"#utility.yul\":1374:1380   */\n      dup1\n        /* \"#utility.yul\":1427:1429   */\n      0x40\n        /* \"#utility.yul\":1415:1424   */\n      dup4\n        /* \"#utility.yul\":1406:1413   */\n      dup6\n        /* \"#utility.yul\":1402:1425   */\n      sub\n        /* \"#utility.yul\":1398:1430   */\n      slt\n        /* \"#utility.yul\":1395:1447   */\n      iszero\n      tag_280\n      jumpi\n        /* \"#utility.yul\":1443:1444   */\n      0x00\n        /* \"#utility.yul\":1440:1441   */\n      dup1\n        /* \"#utility.yul\":1433:1445   */\n      revert\n        /* \"#utility.yul\":1395:1447   */\n    tag_280:\n      pop\n      pop\n        /* \"#utility.yul\":1466:1489   */\n      dup1\n      calldataload\n      swap3\n        /* \"#utility.yul\":1536:1538   */\n      0x20\n        /* \"#utility.yul\":1521:1539   */\n      swap1\n      swap2\n      add\n        /* \"#utility.yul\":1508:1540   */\n      calldataload\n      swap2\n      pop\n        /* \"#utility.yul\":1298:1546   */\n      jump\t// out\n        /* \"#utility.yul\":1551:1867   */\n    tag_33:\n        /* \"#utility.yul\":1628:1634   */\n      0x00\n        /* \"#utility.yul\":1636:1642   */\n      dup1\n        /* \"#utility.yul\":1644:1650   */\n      0x00\n        /* \"#utility.yul\":1697:1699   */\n      0x60\n        /* \"#utility.yul\":1685:1694   */\n      dup5\n        /* \"#utility.yul\":1676:1683   */\n      dup7\n        /* \"#utility.yul\":1672:1695   */\n      sub\n        /* \"#utility.yul\":1668:1700   */\n      slt\n        /* \"#utility.yul\":1665:1717   */\n      iszero\n      tag_282\n      jumpi\n        /* \"#utility.yul\":1713:1714   */\n      0x00\n        /* \"#utility.yul\":1710:1711   */\n      dup1\n        /* \"#utility.yul\":1703:1715   */\n      revert\n        /* \"#utility.yul\":1665:1717   */\n    tag_282:\n      pop\n      pop\n        /* \"#utility.yul\":1736:1759   */\n      dup2\n      calldataload\n      swap4\n        /* \"#utility.yul\":1806:1808   */\n      0x20\n        /* \"#utility.yul\":1791:1809   */\n      dup4\n      add\n        /* \"#utility.yul\":1778:1810   */\n      calldataload\n      swap4\n      pop\n        /* \"#utility.yul\":1857:1859   */\n      0x40\n        /* \"#utility.yul\":1842:1860   */\n      swap1\n      swap3\n      add\n        /* \"#utility.yul\":1829:1861   */\n      calldataload\n      swap2\n        /* \"#utility.yul\":1551:1867   */\n      swap1\n      pop\n      jump\t// out\n        /* \"#utility.yul\":2023:2336   */\n    tag_285:\n        /* \"#utility.yul\":2099:2104   */\n      dup1\n        /* \"#utility.yul\":2093:2105   */\n      mload\n        /* \"#utility.yul\":2088:2091   */\n      dup3\n        /* \"#utility.yul\":2081:2106   */\n      mstore\n        /* \"#utility.yul\":2155:2159   */\n      0x20\n        /* \"#utility.yul\":2148:2153   */\n      dup2\n        /* \"#utility.yul\":2144:2160   */\n      add\n        /* \"#utility.yul\":2138:2161   */\n      mload\n        /* \"#utility.yul\":2131:2135   */\n      0x20\n        /* \"#utility.yul\":2126:2129   */\n      dup4\n        /* \"#utility.yul\":2122:2136   */\n      add\n        /* \"#utility.yul\":2115:2162   */\n      mstore\n        /* \"#utility.yul\":2211:2215   */\n      0x40\n        /* \"#utility.yul\":2204:2209   */\n      dup2\n        /* \"#utility.yul\":2200:2216   */\n      add\n        /* \"#utility.yul\":2194:2217   */\n      mload\n        /* \"#utility.yul\":2187:2191   */\n      0x40\n        /* \"#utility.yul\":2182:2185   */\n      dup4\n        /* \"#utility.yul\":2178:2192   */\n      add\n        /* \"#utility.yul\":2171:2218   */\n      mstore\n        /* \"#utility.yul\":2267:2271   */\n      0x60\n        /* \"#utility.yul\":2260:2265   */\n      dup2\n        /* \"#utility.yul\":2256:2272   */\n      add\n        /* \"#utility.yul\":2250:2273   */\n      mload\n        /* \"#utility.yul\":2243:2247   */\n      0x60\n        /* \"#utility.yul\":2238:2241   */\n      dup4\n        /* \"#utility.yul\":2234:2248   */\n      add\n        /* \"#utility.yul\":2227:2274   */\n      mstore\n        /* \"#utility.yul\":2323:2327   */\n      0x80\n        /* \"#utility.yul\":2316:2321   */\n      dup2\n        /* \"#utility.yul\":2312:2328   */\n      add\n        /* \"#utility.yul\":2306:2329   */\n      mload\n        /* \"#utility.yul\":2299:2303   */\n      0x80\n        /* \"#utility.yul\":2294:2297   */\n      dup4\n        /* \"#utility.yul\":2290:2304   */\n      add\n        /* \"#utility.yul\":2283:2330   */\n      mstore\n      pop\n      pop\n        /* \"#utility.yul\":2023:2336   */\n      jump\t// out\n        /* \"#utility.yul\":2929:3282   */\n    tag_147:\n      sub(shl(0xa0, 0x01), 0x01)\n        /* \"#utility.yul\":3157:3189   */\n      swap4\n      swap1\n      swap4\n      and\n        /* \"#utility.yul\":3139:3190   */\n      dup4\n      mstore\n        /* \"#utility.yul\":3221:3223   */\n      0x20\n        /* \"#utility.yul\":3206:3224   */\n      dup4\n      add\n        /* \"#utility.yul\":3199:3233   */\n      swap2\n      swap1\n      swap2\n      mstore\n        /* \"#utility.yul\":3264:3266   */\n      0x40\n        /* \"#utility.yul\":3249:3267   */\n      dup3\n      add\n        /* \"#utility.yul\":3242:3276   */\n      mstore\n        /* \"#utility.yul\":3127:3129   */\n      0x60\n        /* \"#utility.yul\":3112:3130   */\n      add\n      swap1\n        /* \"#utility.yul\":2929:3282   */\n      jump\t// out\n        /* \"#utility.yul\":5431:5787   */\n    tag_101:\n        /* \"#utility.yul\":5633:5635   */\n      0x20\n        /* \"#utility.yul\":5615:5636   */\n      dup1\n      dup3\n      mstore\n        /* \"#utility.yul\":5652:5670   */\n      dup2\n      dup2\n      add\n        /* \"#utility.yul\":5645:5675   */\n      mstore\n        /* \"#utility.yul\":5711:5745   */\n      0x4f776e61626c653a2063616c6c6572206973206e6f7420746865206f776e6572\n        /* \"#utility.yul\":5706:5708   */\n      0x40\n        /* \"#utility.yul\":5691:5709   */\n      dup3\n      add\n        /* \"#utility.yul\":5684:5746   */\n      mstore\n        /* \"#utility.yul\":5778:5780   */\n      0x60\n        /* \"#utility.yul\":5763:5781   */\n      add\n      swap1\n        /* \"#utility.yul\":5431:5787   */\n      jump\t// out\n        /* \"#utility.yul\":7127:8041   */\n    tag_58:\n        /* \"#utility.yul\":7625:7628   */\n      0x0300\n        /* \"#utility.yul\":7610:7629   */\n      dup2\n      add\n        /* \"#utility.yul\":7638:7679   */\n      tag_306\n        /* \"#utility.yul\":7614:7623   */\n      dup3\n        /* \"#utility.yul\":7661:7667   */\n      dup12\n        /* \"#utility.yul\":7638:7679   */\n      tag_285\n      jump\t// in\n    tag_306:\n        /* \"#utility.yul\":7688:7739   */\n      tag_307\n        /* \"#utility.yul\":7734:7737   */\n      0xa0\n        /* \"#utility.yul\":7723:7732   */\n      dup4\n        /* \"#utility.yul\":7719:7738   */\n      add\n        /* \"#utility.yul\":7711:7717   */\n      dup11\n        /* \"#utility.yul\":7688:7739   */\n      tag_285\n      jump\t// in\n    tag_307:\n        /* \"#utility.yul\":7748:7799   */\n      tag_308\n        /* \"#utility.yul\":7794:7797   */\n      0x0140\n        /* \"#utility.yul\":7783:7792   */\n      dup4\n        /* \"#utility.yul\":7779:7798   */\n      add\n        /* \"#utility.yul\":7771:7777   */\n      dup10\n        /* \"#utility.yul\":7748:7799   */\n      tag_285\n      jump\t// in\n    tag_308:\n        /* \"#utility.yul\":7808:7859   */\n      tag_309\n        /* \"#utility.yul\":7854:7857   */\n      0x01e0\n        /* \"#utility.yul\":7843:7852   */\n      dup4\n        /* \"#utility.yul\":7839:7858   */\n      add\n        /* \"#utility.yul\":7831:7837   */\n      dup9\n        /* \"#utility.yul\":7808:7859   */\n      tag_285\n      jump\t// in\n    tag_309:\n        /* \"#utility.yul\":7896:7902   */\n      dup6\n        /* \"#utility.yul\":7890:7893   */\n      0x0280\n        /* \"#utility.yul\":7879:7888   */\n      dup4\n        /* \"#utility.yul\":7875:7894   */\n      add\n        /* \"#utility.yul\":7868:7903   */\n      mstore\n        /* \"#utility.yul\":7940:7946   */\n      dup5\n        /* \"#utility.yul\":7934:7937   */\n      0x02a0\n        /* \"#utility.yul\":7923:7932   */\n      dup4\n        /* \"#utility.yul\":7919:7938   */\n      add\n        /* \"#utility.yul\":7912:7947   */\n      mstore\n        /* \"#utility.yul\":7984:7990   */\n      dup4\n        /* \"#utility.yul\":7978:7981   */\n      0x02c0\n        /* \"#utility.yul\":7967:7976   */\n      dup4\n        /* \"#utility.yul\":7963:7982   */\n      add\n        /* \"#utility.yul\":7956:7991   */\n      mstore\n        /* \"#utility.yul\":8028:8034   */\n      dup3\n        /* \"#utility.yul\":8022:8025   */\n      0x02e0\n        /* \"#utility.yul\":8011:8020   */\n      dup4\n        /* \"#utility.yul\":8007:8026   */\n      add\n        /* \"#utility.yul\":8000:8035   */\n      mstore\n        /* \"#utility.yul\":7127:8041   */\n      swap10\n      swap9\n      pop\n      pop\n      pop\n      pop\n      pop\n      pop\n      pop\n      pop\n      pop\n      jump\t// out\n        /* \"#utility.yul\":8949:9077   */\n    tag_109:\n        /* \"#utility.yul\":8989:8992   */\n      0x00\n        /* \"#utility.yul\":9020:9021   */\n      dup3\n        /* \"#utility.yul\":9016:9022   */\n      not\n        /* \"#utility.yul\":9013:9014   */\n      dup3\n        /* \"#utility.yul\":9010:9023   */\n      gt\n        /* \"#utility.yul\":9007:9046   */\n      iszero\n      tag_315\n      jumpi\n        /* \"#utility.yul\":9026:9044   */\n      tag_315\n      tag_316\n      jump\t// in\n    tag_315:\n      pop\n        /* \"#utility.yul\":9062:9071   */\n      add\n      swap1\n        /* \"#utility.yul\":8949:9077   */\n      jump\t// out\n        /* \"#utility.yul\":9082:9299   */\n    tag_137:\n        /* \"#utility.yul\":9122:9123   */\n      0x00\n        /* \"#utility.yul\":9148:9149   */\n      dup3\n        /* \"#utility.yul\":9138:9270   */\n      tag_318\n      jumpi\n        /* \"#utility.yul\":9192:9202   */\n      0x4e487b71\n        /* \"#utility.yul\":9187:9190   */\n      0xe0\n        /* \"#utility.yul\":9183:9203   */\n      shl\n        /* \"#utility.yul\":9180:9181   */\n      0x00\n        /* \"#utility.yul\":9173:9204   */\n      mstore\n        /* \"#utility.yul\":9227:9231   */\n      0x12\n        /* \"#utility.yul\":9224:9225   */\n      0x04\n        /* \"#utility.yul\":9217:9232   */\n      mstore\n        /* \"#utility.yul\":9255:9259   */\n      0x24\n        /* \"#utility.yul\":9252:9253   */\n      0x00\n        /* \"#utility.yul\":9245:9260   */\n      revert\n        /* \"#utility.yul\":9138:9270   */\n    tag_318:\n      pop\n        /* \"#utility.yul\":9284:9293   */\n      div\n      swap1\n        /* \"#utility.yul\":9082:9299   */\n      jump\t// out\n        /* \"#utility.yul\":9304:9472   */\n    tag_135:\n        /* \"#utility.yul\":9344:9351   */\n      0x00\n        /* \"#utility.yul\":9410:9411   */\n      dup2\n        /* \"#utility.yul\":9406:9407   */\n      0x00\n        /* \"#utility.yul\":9402:9408   */\n      not\n        /* \"#utility.yul\":9398:9412   */\n      div\n        /* \"#utility.yul\":9395:9396   */\n      dup4\n        /* \"#utility.yul\":9392:9413   */\n      gt\n        /* \"#utility.yul\":9387:9388   */\n      dup3\n        /* \"#utility.yul\":9380:9389   */\n      iszero\n        /* \"#utility.yul\":9373:9390   */\n      iszero\n        /* \"#utility.yul\":9369:9414   */\n      and\n        /* \"#utility.yul\":9366:9437   */\n      iszero\n      tag_321\n      jumpi\n        /* \"#utility.yul\":9417:9435   */\n      tag_321\n      tag_316\n      jump\t// in\n    tag_321:\n      pop\n        /* \"#utility.yul\":9457:9466   */\n      mul\n      swap1\n        /* \"#utility.yul\":9304:9472   */\n      jump\t// out\n        /* \"#utility.yul\":9477:9602   */\n    tag_139:\n        /* \"#utility.yul\":9517:9521   */\n      0x00\n        /* \"#utility.yul\":9545:9546   */\n      dup3\n        /* \"#utility.yul\":9542:9543   */\n      dup3\n        /* \"#utility.yul\":9539:9547   */\n      lt\n        /* \"#utility.yul\":9536:9570   */\n      iszero\n      tag_324\n      jumpi\n        /* \"#utility.yul\":9550:9568   */\n      tag_324\n      tag_316\n      jump\t// in\n    tag_324:\n      pop\n        /* \"#utility.yul\":9587:9596   */\n      sub\n      swap1\n        /* \"#utility.yul\":9477:9602   */\n      jump\t// out\n        /* \"#utility.yul\":9607:9734   */\n    tag_316:\n        /* \"#utility.yul\":9668:9678   */\n      0x4e487b71\n        /* \"#utility.yul\":9663:9666   */\n      0xe0\n        /* \"#utility.yul\":9659:9679   */\n      shl\n        /* \"#utility.yul\":9656:9657   */\n      0x00\n        /* \"#utility.yul\":9649:9680   */\n      mstore\n        /* \"#utility.yul\":9699:9703   */\n      0x11\n        /* \"#utility.yul\":9696:9697   */\n      0x04\n        /* \"#utility.yul\":9689:9704   */\n      mstore\n        /* \"#utility.yul\":9723:9727   */\n      0x24\n        /* \"#utility.yul\":9720:9721   */\n      0x00\n        /* \"#utility.yul\":9713:9728   */\n      revert\n\n    auxdata: 0xa26469706673582212200f3cd845abc83512b21a90c159d2d8634f7380c6f8da1a1d692f0980968ab3e264736f6c63430008070033\n}\n",
				"bytecode": {
					"linkReferences": {},
					"object": "6080604052600a60025534801561001557600080fd5b506040516116c13803806116c1833981016040819052610034916101f7565b61003d336101a7565b6000805460ff60a01b19168155600180546001600160a01b0319166001600160a01b0393909316929092179091556004602052618e947f17ef568e3e12ab5b9c7254a8d58478811de00f9e6eb34345acd53bf8fd09d3ec5562278d007f17ef568e3e12ab5b9c7254a8d58478811de00f9e6eb34345acd53bf8fd09d3ed5561b2397fabd6e7cb50984ff9c2f3e18a2660c3353dadf4e3291deeb275dae2cd1e44fe05556276a7007fabd6e7cb50984ff9c2f3e18a2660c3353dadf4e3291deeb275dae2cd1e44fe065561d5de7f91da3fd0782e51c6b3986e9e672fd566868e71f3dbc2d6c2cd6fbb3e361af2a75562ed4e007f91da3fd0782e51c6b3986e9e672fd566868e71f3dbc2d6c2cd6fbb3e361af2a8556003905262011d287f2e174c10e159ea99b867ce3205125c24a42d128804e4070ed6fcc8cc98166aa0556301e133807f2e174c10e159ea99b867ce3205125c24a42d128804e4070ed6fcc8cc98166aa155610227565b600080546001600160a01b038381166001600160a01b0319831681178455604051919092169283917f8be0079c531659141344cd1fd0a4f28419497f9722a3daafe3b4186f6b6457e09190a35050565b60006020828403121561020957600080fd5b81516001600160a01b038116811461022057600080fd5b9392505050565b61148b806102366000396000f3fe608060405234801561001057600080fd5b50600436106101215760003560e01c80638456cb59116100ad578063beb8314c11610071578063beb8314c1461029a578063e2bbb158146102bb578063e788cee5146102ce578063edf501ad146104aa578063f2fde38b146104e657600080fd5b80638456cb59146102535780638d8f2adb1461025b5780638da5cb5b14610263578063aa5f7e2614610274578063aff3b6971461028757600080fd5b8063441a3e70116100f4578063441a3e70146101c9578063451c3d80146101dc5780635c975abb146102075780636386c1c714610224578063715018a61461024b57600080fd5b8063259ee7521461012657806332e9620314610199578063379607f5146101ae5780633f4ba83a146101c1575b600080fd5b61016c61013436600461121c565b600360208181526000938452604080852090915291835291208054600182015460028301549383015460049093015491939092909185565b604080519586526020860194909452928401919091526060830152608082015260a0015b60405180910390f35b6101ac6101a73660046112bc565b6104f9565b005b6101ac6101bc366004611268565b610544565b6101ac6106ba565b6101ac6101d736600461129a565b6106ee565b6001546101ef906001600160a01b031681565b6040516001600160a01b039091168152602001610190565b600054600160a01b900460ff166040519015158152602001610190565b6102376102323660046111fa565b6108d5565b60405161019098979695949392919061136e565b6101ac610a48565b6101ac610a7c565b6101ac610aae565b6000546001600160a01b03166101ef565b6101ac610282366004611268565b610bde565b6101ac610295366004611268565b610cdd565b6102ad6102a836600461121c565b610d0c565b604051908152602001610190565b6101ac6102c936600461129a565b610dae565b60408051808201825260008082526020918201819052825180840184528181528201819052825180840184528181528201819052825180840184528181528201819052825180840184527f17ef568e3e12ab5b9c7254a8d58478811de00f9e6eb34345acd53bf8fd09d3ec5481527f17ef568e3e12ab5b9c7254a8d58478811de00f9e6eb34345acd53bf8fd09d3ed54818401908152845180860186527fabd6e7cb50984ff9c2f3e18a2660c3353dadf4e3291deeb275dae2cd1e44fe055481527fabd6e7cb50984ff9c2f3e18a2660c3353dadf4e3291deeb275dae2cd1e44fe0654818601908152865180880188527f91da3fd0782e51c6b3986e9e672fd566868e71f3dbc2d6c2cd6fbb3e361af2a75481527f91da3fd0782e51c6b3986e9e672fd566868e71f3dbc2d6c2cd6fbb3e361af2a854818801908152600390965260048752875180890189527f2e174c10e159ea99b867ce3205125c24a42d128804e4070ed6fcc8cc98166aa05481527f2e174c10e159ea99b867ce3205125c24a42d128804e4070ed6fcc8cc98166aa1548189019081528951965187529451978601979097529151968401969096529451606083015293516080820152905160a0820152905160c0820152905160e082015261010001610190565b6104d16104b8366004611268565b6004602052600090815260409020805460019091015482565b60408051928352602083019190915201610190565b6101ac6104f43660046111fa565b610fa2565b6000546001600160a01b0316331461052c5760405162461bcd60e51b815260040161052390611339565b60405180910390fd5b60009283526004602052604090922090815560010155565b33600081815260036020908152604080832085845290915290205461059f5760405162461bcd60e51b8152602060048201526011602482015270139bc81858dd1a5d994819195c1bdcda5d607a1b6044820152606401610523565b60006105ab8284610d0c565b6001600160a01b038316600090815260036020818152604080842088855290915282204291810191909155600101805492935083929091906105ee9084906113cf565b909155505060015460405163a9059cbb60e01b81526001600160a01b038481166004830152602482018490529091169063a9059cbb90604401602060405180830381600087803b15801561064157600080fd5b505af1158015610655573d6000803e3d6000fd5b505050506040513d601f19601f820116820180604052508101906106799190611246565b507f34fcbac0073d7c3d388e51312faf357774904998eeb8fca628b9e6f65ee1cbf78284836040516106ad93929190611318565b60405180910390a1505050565b6000546001600160a01b031633146106e45760405162461bcd60e51b815260040161052390611339565b6106ec61103a565b565b33600081815260036020908152604080832085845290915290205483111561074d5760405162461bcd60e51b8152602060048201526012602482015271139bdd08195b9bdd59da0819195c1bdcda5d60721b6044820152606401610523565b60006107598284610d0c565b9050600061076782866113cf565b6001600160a01b0384166000908152600360209081526040808320888452909152812060040154919250904210156107b6576064600254836107a99190611409565b6107b391906113e7565b90505b6001600160a01b03841660009081526003602081815260408084208985529091528220429181019190915580548892906107f1908490611428565b90915550506001546001600160a01b031663a9059cbb856108128486611428565b6040516001600160e01b031960e085901b1681526001600160a01b0390921660048301526024820152604401602060405180830381600087803b15801561085857600080fd5b505af115801561086c573d6000803e3d6000fd5b505050506040513d601f19601f820116820180604052508101906108909190611246565b507ff279e6a1f5e320cca91135676d9cb6e44ca8a08c0b88342bcdb1144f6511b568846000886040516108c593929190611318565b60405180910390a1505050505050565b6108dd6111af565b6108e56111af565b6108ed6111af565b6108f56111af565b5050506001600160a01b0382166000908152600360208181526040808420848052808352818520825160a0808201855282548252600180840154838801526002808501548488015284890154606080860191909152600495860154608080870191909152838c52878a52888c2089518087018b528154815281860154818d015281850154818c0152818d0154818501529088015481830152838d52888b52898d208a518088018c528154815281870154818e015281860154818d0152818e01548186015290890154818401528c8e52988b52898d208a519687018b5280548752948501549a86019a909a52918301549784019790975297810154958201959095529390910154948301949094529294509092808080610a148982610d0c565b9350610a21896001610d0c565b9250610a2e896002610d0c565b9150610a3b896003610d0c565b9050919395975091939597565b6000546001600160a01b03163314610a725760405162461bcd60e51b815260040161052390611339565b6106ec60006110d7565b6000546001600160a01b03163314610aa65760405162461bcd60e51b815260040161052390611339565b6106ec611127565b6000546001600160a01b03163314610ad85760405162461bcd60e51b815260040161052390611339565b6001546040516370a0823160e01b81523060048201526001600160a01b039091169063a9059cbb90339083906370a082319060240160206040518083038186803b158015610b2557600080fd5b505afa158015610b39573d6000803e3d6000fd5b505050506040513d601f19601f82011682018060405250810190610b5d9190611281565b6040516001600160e01b031960e085901b1681526001600160a01b0390921660048301526024820152604401602060405180830381600087803b158015610ba357600080fd5b505af1158015610bb7573d6000803e3d6000fd5b505050506040513d601f19601f82011682018060405250810190610bdb9190611246565b50565b336000818152600360209081526040808320858452909152902054610c395760405162461bcd60e51b8152602060048201526011602482015270139bc81858dd1a5d994819195c1bdcda5d607a1b6044820152606401610523565b6000610c458284610d0c565b6001600160a01b0383166000908152600360209081526040808320878452909152812080549293508392909190610c7d9084906113cf565b90915550506001600160a01b03821660009081526003602081815260408084208785529091529182902042910155517f0e311a2c6dbfb0153ec3a8a5bdca09070b3e5f60768fdc10a20453f38d186873906106ad90849086908590611318565b6000546001600160a01b03163314610d075760405162461bcd60e51b815260040161052390611339565b600255565b6001600160a01b0382166000908152600360208181526040808420858552909152822001548190610d3d9042611428565b6001600160a01b0385166000908152600360209081526040808320878452825280832054600490925282205492935091906301e13380612710610d808486611409565b610d8a91906113e7565b610d9491906113e7565b90506000610da28286611409565b98975050505050505050565b600054600160a01b900460ff1615610dfb5760405162461bcd60e51b815260206004820152601060248201526f14185d5cd8589b194e881c185d5cd95960821b6044820152606401610523565b6001546040516323b872dd60e01b8152336004820181905230602483015260448201859052916001600160a01b0316906323b872dd90606401602060405180830381600087803b158015610e4e57600080fd5b505af1158015610e62573d6000803e3d6000fd5b505050506040513d601f19601f82011682018060405250810190610e869190611246565b506001600160a01b038116600090815260036020908152604080832085845290915290205415610ec757610eba8183610d0c565b610ec490846113cf565b92505b6001600160a01b038116600090815260036020908152604080832085845290915281208054859290610efa9084906113cf565b90915550506001600160a01b0381166000908152600360208181526040808420868552825280842042600282018190559301839055600490915290912060010154610f44916113cf565b6001600160a01b03821660009081526003602090815260408083208684529091529081902060040191909155517f90890809c654f11d6e72a28fa60149770a0d11ec6c92319d6ceb2bb0a4ea1a15906106ad90839085908790611318565b6000546001600160a01b03163314610fcc5760405162461bcd60e51b815260040161052390611339565b6001600160a01b0381166110315760405162461bcd60e51b815260206004820152602660248201527f4f776e61626c653a206e6577206f776e657220697320746865207a65726f206160448201526564647265737360d01b6064820152608401610523565b610bdb816110d7565b600054600160a01b900460ff1661108a5760405162461bcd60e51b815260206004820152601460248201527314185d5cd8589b194e881b9bdd081c185d5cd95960621b6044820152606401610523565b6000805460ff60a01b191690557f5db9ee0a495bf2e6ff9c91a7834c1ba4fdd244a5e8aa4e537bd38aeae4b073aa335b6040516001600160a01b03909116815260200160405180910390a1565b600080546001600160a01b038381166001600160a01b0319831681178455604051919092169283917f8be0079c531659141344cd1fd0a4f28419497f9722a3daafe3b4186f6b6457e09190a35050565b600054600160a01b900460ff16156111745760405162461bcd60e51b815260206004820152601060248201526f14185d5cd8589b194e881c185d5cd95960821b6044820152606401610523565b6000805460ff60a01b1916600160a01b1790557f62e78cea01bee320cd4e420270b5ea74000d11b0c9f74754ebdbfc544b05a2586110ba3390565b6040518060a0016040528060008152602001600081526020016000815260200160008152602001600081525090565b80356001600160a01b03811681146111f557600080fd5b919050565b60006020828403121561120c57600080fd5b611215826111de565b9392505050565b6000806040838503121561122f57600080fd5b611238836111de565b946020939093013593505050565b60006020828403121561125857600080fd5b8151801515811461121557600080fd5b60006020828403121561127a57600080fd5b5035919050565b60006020828403121561129357600080fd5b5051919050565b600080604083850312156112ad57600080fd5b50508035926020909101359150565b6000806000606084860312156112d157600080fd5b505081359360208301359350604090920135919050565b80518252602081015160208301526040810151604083015260608101516060830152608081015160808301525050565b6001600160a01b039390931683526020830191909152604082015260600190565b6020808252818101527f4f776e61626c653a2063616c6c6572206973206e6f7420746865206f776e6572604082015260600190565b610300810161137d828b6112e8565b61138a60a083018a6112e8565b6113986101408301896112e8565b6113a66101e08301886112e8565b85610280830152846102a0830152836102c0830152826102e08301529998505050505050505050565b600082198211156113e2576113e261143f565b500190565b60008261140457634e487b7160e01b600052601260045260246000fd5b500490565b60008160001904831182151516156114235761142361143f565b500290565b60008282101561143a5761143a61143f565b500390565b634e487b7160e01b600052601160045260246000fdfea26469706673582212200f3cd845abc83512b21a90c159d2d8634f7380c6f8da1a1d692f0980968ab3e264736f6c63430008070033",
					"opcodes": "PUSH1 0x80 PUSH1 0x40 MSTORE PUSH1 0xA PUSH1 0x2 SSTORE CALLVALUE DUP1 ISZERO PUSH2 0x15 JUMPI PUSH1 0x0 DUP1 REVERT JUMPDEST POP PUSH1 0x40 MLOAD PUSH2 0x16C1 CODESIZE SUB DUP1 PUSH2 0x16C1 DUP4 CODECOPY DUP2 ADD PUSH1 0x40 DUP2 SWAP1 MSTORE PUSH2 0x34 SWAP2 PUSH2 0x1F7 JUMP JUMPDEST PUSH2 0x3D CALLER PUSH2 0x1A7 JUMP JUMPDEST PUSH1 0x0 DUP1 SLOAD PUSH1 0xFF PUSH1 0xA0 SHL NOT AND DUP2 SSTORE PUSH1 0x1 DUP1 SLOAD PUSH1 0x1 PUSH1 0x1 PUSH1 0xA0 SHL SUB NOT AND PUSH1 0x1 PUSH1 0x1 PUSH1 0xA0 SHL SUB SWAP4 SWAP1 SWAP4 AND SWAP3 SWAP1 SWAP3 OR SWAP1 SWAP2 SSTORE PUSH1 0x4 PUSH1 0x20 MSTORE PUSH2 0x8E94 PUSH32 0x17EF568E3E12AB5B9C7254A8D58478811DE00F9E6EB34345ACD53BF8FD09D3EC SSTORE PUSH3 0x278D00 PUSH32 0x17EF568E3E12AB5B9C7254A8D58478811DE00F9E6EB34345ACD53BF8FD09D3ED SSTORE PUSH2 0xB239 PUSH32 0xABD6E7CB50984FF9C2F3E18A2660C3353DADF4E3291DEEB275DAE2CD1E44FE05 SSTORE PUSH3 0x76A700 PUSH32 0xABD6E7CB50984FF9C2F3E18A2660C3353DADF4E3291DEEB275DAE2CD1E44FE06 SSTORE PUSH2 0xD5DE PUSH32 0x91DA3FD0782E51C6B3986E9E672FD566868E71F3DBC2D6C2CD6FBB3E361AF2A7 SSTORE PUSH3 0xED4E00 PUSH32 0x91DA3FD0782E51C6B3986E9E672FD566868E71F3DBC2D6C2CD6FBB3E361AF2A8 SSTORE PUSH1 0x3 SWAP1 MSTORE PUSH3 0x11D28 PUSH32 0x2E174C10E159EA99B867CE3205125C24A42D128804E4070ED6FCC8CC98166AA0 SSTORE PUSH4 0x1E13380 PUSH32 0x2E174C10E159EA99B867CE3205125C24A42D128804E4070ED6FCC8CC98166AA1 SSTORE PUSH2 0x227 JUMP JUMPDEST PUSH1 0x0 DUP1 SLOAD PUSH1 0x1 PUSH1 0x1 PUSH1 0xA0 SHL SUB DUP4 DUP2 AND PUSH1 0x1 PUSH1 0x1 PUSH1 0xA0 SHL SUB NOT DUP4 AND DUP2 OR DUP5 SSTORE PUSH1 0x40 MLOAD SWAP2 SWAP1 SWAP3 AND SWAP3 DUP4 SWAP2 PUSH32 0x8BE0079C531659141344CD1FD0A4F28419497F9722A3DAAFE3B4186F6B6457E0 SWAP2 SWAP1 LOG3 POP POP JUMP JUMPDEST PUSH1 0x0 PUSH1 0x20 DUP3 DUP5 SUB SLT ISZERO PUSH2 0x209 JUMPI PUSH1 0x0 DUP1 REVERT JUMPDEST DUP2 MLOAD PUSH1 0x1 PUSH1 0x1 PUSH1 0xA0 SHL SUB DUP2 AND DUP2 EQ PUSH2 0x220 JUMPI PUSH1 0x0 DUP1 REVERT JUMPDEST SWAP4 SWAP3 POP POP POP JUMP JUMPDEST PUSH2 0x148B DUP1 PUSH2 0x236 PUSH1 0x0 CODECOPY PUSH1 0x0 RETURN INVALID PUSH1 0x80 PUSH1 0x40 MSTORE CALLVALUE DUP1 ISZERO PUSH2 0x10 JUMPI PUSH1 0x0 DUP1 REVERT JUMPDEST POP PUSH1 0x4 CALLDATASIZE LT PUSH2 0x121 JUMPI PUSH1 0x0 CALLDATALOAD PUSH1 0xE0 SHR DUP1 PUSH4 0x8456CB59 GT PUSH2 0xAD JUMPI DUP1 PUSH4 0xBEB8314C GT PUSH2 0x71 JUMPI DUP1 PUSH4 0xBEB8314C EQ PUSH2 0x29A JUMPI DUP1 PUSH4 0xE2BBB158 EQ PUSH2 0x2BB JUMPI DUP1 PUSH4 0xE788CEE5 EQ PUSH2 0x2CE JUMPI DUP1 PUSH4 0xEDF501AD EQ PUSH2 0x4AA JUMPI DUP1 PUSH4 0xF2FDE38B EQ PUSH2 0x4E6 JUMPI PUSH1 0x0 DUP1 REVERT JUMPDEST DUP1 PUSH4 0x8456CB59 EQ PUSH2 0x253 JUMPI DUP1 PUSH4 0x8D8F2ADB EQ PUSH2 0x25B JUMPI DUP1 PUSH4 0x8DA5CB5B EQ PUSH2 0x263 JUMPI DUP1 PUSH4 0xAA5F7E26 EQ PUSH2 0x274 JUMPI DUP1 PUSH4 0xAFF3B697 EQ PUSH2 0x287 JUMPI PUSH1 0x0 DUP1 REVERT JUMPDEST DUP1 PUSH4 0x441A3E70 GT PUSH2 0xF4 JUMPI DUP1 PUSH4 0x441A3E70 EQ PUSH2 0x1C9 JUMPI DUP1 PUSH4 0x451C3D80 EQ PUSH2 0x1DC JUMPI DUP1 PUSH4 0x5C975ABB EQ PUSH2 0x207 JUMPI DUP1 PUSH4 0x6386C1C7 EQ PUSH2 0x224 JUMPI DUP1 PUSH4 0x715018A6 EQ PUSH2 0x24B JUMPI PUSH1 0x0 DUP1 REVERT JUMPDEST DUP1 PUSH4 0x259EE752 EQ PUSH2 0x126 JUMPI DUP1 PUSH4 0x32E96203 EQ PUSH2 0x199 JUMPI DUP1 PUSH4 0x379607F5 EQ PUSH2 0x1AE JUMPI DUP1 PUSH4 0x3F4BA83A EQ PUSH2 0x1C1 JUMPI JUMPDEST PUSH1 0x0 DUP1 REVERT JUMPDEST PUSH2 0x16C PUSH2 0x134 CALLDATASIZE PUSH1 0x4 PUSH2 0x121C JUMP JUMPDEST PUSH1 0x3 PUSH1 0x20 DUP2 DUP2 MSTORE PUSH1 0x0 SWAP4 DUP5 MSTORE PUSH1 0x40 DUP1 DUP6 KECCAK256 SWAP1 SWAP2 MSTORE SWAP2 DUP4 MSTORE SWAP2 KECCAK256 DUP1 SLOAD PUSH1 0x1 DUP3 ADD SLOAD PUSH1 0x2 DUP4 ADD SLOAD SWAP4 DUP4 ADD SLOAD PUSH1 0x4 SWAP1 SWAP4 ADD SLOAD SWAP2 SWAP4 SWAP1 SWAP3 SWAP1 SWAP2 DUP6 JUMP JUMPDEST PUSH1 0x40 DUP1 MLOAD SWAP6 DUP7 MSTORE PUSH1 0x20 DUP7 ADD SWAP5 SWAP1 SWAP5 MSTORE SWAP3 DUP5 ADD SWAP2 SWAP1 SWAP2 MSTORE PUSH1 0x60 DUP4 ADD MSTORE PUSH1 0x80 DUP3 ADD MSTORE PUSH1 0xA0 ADD JUMPDEST PUSH1 0x40 MLOAD DUP1 SWAP2 SUB SWAP1 RETURN JUMPDEST PUSH2 0x1AC PUSH2 0x1A7 CALLDATASIZE PUSH1 0x4 PUSH2 0x12BC JUMP JUMPDEST PUSH2 0x4F9 JUMP JUMPDEST STOP JUMPDEST PUSH2 0x1AC PUSH2 0x1BC CALLDATASIZE PUSH1 0x4 PUSH2 0x1268 JUMP JUMPDEST PUSH2 0x544 JUMP JUMPDEST PUSH2 0x1AC PUSH2 0x6BA JUMP JUMPDEST PUSH2 0x1AC PUSH2 0x1D7 CALLDATASIZE PUSH1 0x4 PUSH2 0x129A JUMP JUMPDEST PUSH2 0x6EE JUMP JUMPDEST PUSH1 0x1 SLOAD PUSH2 0x1EF SWAP1 PUSH1 0x1 PUSH1 0x1 PUSH1 0xA0 SHL SUB AND DUP2 JUMP JUMPDEST PUSH1 0x40 MLOAD PUSH1 0x1 PUSH1 0x1 PUSH1 0xA0 SHL SUB SWAP1 SWAP2 AND DUP2 MSTORE PUSH1 0x20 ADD PUSH2 0x190 JUMP JUMPDEST PUSH1 0x0 SLOAD PUSH1 0x1 PUSH1 0xA0 SHL SWAP1 DIV PUSH1 0xFF AND PUSH1 0x40 MLOAD SWAP1 ISZERO ISZERO DUP2 MSTORE PUSH1 0x20 ADD PUSH2 0x190 JUMP JUMPDEST PUSH2 0x237 PUSH2 0x232 CALLDATASIZE PUSH1 0x4 PUSH2 0x11FA JUMP JUMPDEST PUSH2 0x8D5 JUMP JUMPDEST PUSH1 0x40 MLOAD PUSH2 0x190 SWAP9 SWAP8 SWAP7 SWAP6 SWAP5 SWAP4 SWAP3 SWAP2 SWAP1 PUSH2 0x136E JUMP JUMPDEST PUSH2 0x1AC PUSH2 0xA48 JUMP JUMPDEST PUSH2 0x1AC PUSH2 0xA7C JUMP JUMPDEST PUSH2 0x1AC PUSH2 0xAAE JUMP JUMPDEST PUSH1 0x0 SLOAD PUSH1 0x1 PUSH1 0x1 PUSH1 0xA0 SHL SUB AND PUSH2 0x1EF JUMP JUMPDEST PUSH2 0x1AC PUSH2 0x282 CALLDATASIZE PUSH1 0x4 PUSH2 0x1268 JUMP JUMPDEST PUSH2 0xBDE JUMP JUMPDEST PUSH2 0x1AC PUSH2 0x295 CALLDATASIZE PUSH1 0x4 PUSH2 0x1268 JUMP JUMPDEST PUSH2 0xCDD JUMP JUMPDEST PUSH2 0x2AD PUSH2 0x2A8 CALLDATASIZE PUSH1 0x4 PUSH2 0x121C JUMP JUMPDEST PUSH2 0xD0C JUMP JUMPDEST PUSH1 0x40 MLOAD SWAP1 DUP2 MSTORE PUSH1 0x20 ADD PUSH2 0x190 JUMP JUMPDEST PUSH2 0x1AC PUSH2 0x2C9 CALLDATASIZE PUSH1 0x4 PUSH2 0x129A JUMP JUMPDEST PUSH2 0xDAE JUMP JUMPDEST PUSH1 0x40 DUP1 MLOAD DUP1 DUP3 ADD DUP3 MSTORE PUSH1 0x0 DUP1 DUP3 MSTORE PUSH1 0x20 SWAP2 DUP3 ADD DUP2 SWAP1 MSTORE DUP3 MLOAD DUP1 DUP5 ADD DUP5 MSTORE DUP2 DUP2 MSTORE DUP3 ADD DUP2 SWAP1 MSTORE DUP3 MLOAD DUP1 DUP5 ADD DUP5 MSTORE DUP2 DUP2 MSTORE DUP3 ADD DUP2 SWAP1 MSTORE DUP3 MLOAD DUP1 DUP5 ADD DUP5 MSTORE DUP2 DUP2 MSTORE DUP3 ADD DUP2 SWAP1 MSTORE DUP3 MLOAD DUP1 DUP5 ADD DUP5 MSTORE PUSH32 0x17EF568E3E12AB5B9C7254A8D58478811DE00F9E6EB34345ACD53BF8FD09D3EC SLOAD DUP2 MSTORE PUSH32 0x17EF568E3E12AB5B9C7254A8D58478811DE00F9E6EB34345ACD53BF8FD09D3ED SLOAD DUP2 DUP5 ADD SWAP1 DUP2 MSTORE DUP5 MLOAD DUP1 DUP7 ADD DUP7 MSTORE PUSH32 0xABD6E7CB50984FF9C2F3E18A2660C3353DADF4E3291DEEB275DAE2CD1E44FE05 SLOAD DUP2 MSTORE PUSH32 0xABD6E7CB50984FF9C2F3E18A2660C3353DADF4E3291DEEB275DAE2CD1E44FE06 SLOAD DUP2 DUP7 ADD SWAP1 DUP2 MSTORE DUP7 MLOAD DUP1 DUP9 ADD DUP9 MSTORE PUSH32 0x91DA3FD0782E51C6B3986E9E672FD566868E71F3DBC2D6C2CD6FBB3E361AF2A7 SLOAD DUP2 MSTORE PUSH32 0x91DA3FD0782E51C6B3986E9E672FD566868E71F3DBC2D6C2CD6FBB3E361AF2A8 SLOAD DUP2 DUP9 ADD SWAP1 DUP2 MSTORE PUSH1 0x3 SWAP1 SWAP7 MSTORE PUSH1 0x4 DUP8 MSTORE DUP8 MLOAD DUP1 DUP10 ADD DUP10 MSTORE PUSH32 0x2E174C10E159EA99B867CE3205125C24A42D128804E4070ED6FCC8CC98166AA0 SLOAD DUP2 MSTORE PUSH32 0x2E174C10E159EA99B867CE3205125C24A42D128804E4070ED6FCC8CC98166AA1 SLOAD DUP2 DUP10 ADD SWAP1 DUP2 MSTORE DUP10 MLOAD SWAP7 MLOAD DUP8 MSTORE SWAP5 MLOAD SWAP8 DUP7 ADD SWAP8 SWAP1 SWAP8 MSTORE SWAP2 MLOAD SWAP7 DUP5 ADD SWAP7 SWAP1 SWAP7 MSTORE SWAP5 MLOAD PUSH1 0x60 DUP4 ADD MSTORE SWAP4 MLOAD PUSH1 0x80 DUP3 ADD MSTORE SWAP1 MLOAD PUSH1 0xA0 DUP3 ADD MSTORE SWAP1 MLOAD PUSH1 0xC0 DUP3 ADD MSTORE SWAP1 MLOAD PUSH1 0xE0 DUP3 ADD MSTORE PUSH2 0x100 ADD PUSH2 0x190 JUMP JUMPDEST PUSH2 0x4D1 PUSH2 0x4B8 CALLDATASIZE PUSH1 0x4 PUSH2 0x1268 JUMP JUMPDEST PUSH1 0x4 PUSH1 0x20 MSTORE PUSH1 0x0 SWAP1 DUP2 MSTORE PUSH1 0x40 SWAP1 KECCAK256 DUP1 SLOAD PUSH1 0x1 SWAP1 SWAP2 ADD SLOAD DUP3 JUMP JUMPDEST PUSH1 0x40 DUP1 MLOAD SWAP3 DUP4 MSTORE PUSH1 0x20 DUP4 ADD SWAP2 SWAP1 SWAP2 MSTORE ADD PUSH2 0x190 JUMP JUMPDEST PUSH2 0x1AC PUSH2 0x4F4 CALLDATASIZE PUSH1 0x4 PUSH2 0x11FA JUMP JUMPDEST PUSH2 0xFA2 JUMP JUMPDEST PUSH1 0x0 SLOAD PUSH1 0x1 PUSH1 0x1 PUSH1 0xA0 SHL SUB AND CALLER EQ PUSH2 0x52C JUMPI PUSH1 0x40 MLOAD PUSH3 0x461BCD PUSH1 0xE5 SHL DUP2 MSTORE PUSH1 0x4 ADD PUSH2 0x523 SWAP1 PUSH2 0x1339 JUMP JUMPDEST PUSH1 0x40 MLOAD DUP1 SWAP2 SUB SWAP1 REVERT JUMPDEST PUSH1 0x0 SWAP3 DUP4 MSTORE PUSH1 0x4 PUSH1 0x20 MSTORE PUSH1 0x40 SWAP1 SWAP3 KECCAK256 SWAP1 DUP2 SSTORE PUSH1 0x1 ADD SSTORE JUMP JUMPDEST CALLER PUSH1 0x0 DUP2 DUP2 MSTORE PUSH1 0x3 PUSH1 0x20 SWAP1 DUP2 MSTORE PUSH1 0x40 DUP1 DUP4 KECCAK256 DUP6 DUP5 MSTORE SWAP1 SWAP2 MSTORE SWAP1 KECCAK256 SLOAD PUSH2 0x59F JUMPI PUSH1 0x40 MLOAD PUSH3 0x461BCD PUSH1 0xE5 SHL DUP2 MSTORE PUSH1 0x20 PUSH1 0x4 DUP3 ADD MSTORE PUSH1 0x11 PUSH1 0x24 DUP3 ADD MSTORE PUSH17 0x139BC81858DD1A5D994819195C1BDCDA5D PUSH1 0x7A SHL PUSH1 0x44 DUP3 ADD MSTORE PUSH1 0x64 ADD PUSH2 0x523 JUMP JUMPDEST PUSH1 0x0 PUSH2 0x5AB DUP3 DUP5 PUSH2 0xD0C JUMP JUMPDEST PUSH1 0x1 PUSH1 0x1 PUSH1 0xA0 SHL SUB DUP4 AND PUSH1 0x0 SWAP1 DUP2 MSTORE PUSH1 0x3 PUSH1 0x20 DUP2 DUP2 MSTORE PUSH1 0x40 DUP1 DUP5 KECCAK256 DUP9 DUP6 MSTORE SWAP1 SWAP2 MSTORE DUP3 KECCAK256 TIMESTAMP SWAP2 DUP2 ADD SWAP2 SWAP1 SWAP2 SSTORE PUSH1 0x1 ADD DUP1 SLOAD SWAP3 SWAP4 POP DUP4 SWAP3 SWAP1 SWAP2 SWAP1 PUSH2 0x5EE SWAP1 DUP5 SWAP1 PUSH2 0x13CF JUMP JUMPDEST SWAP1 SWAP2 SSTORE POP POP PUSH1 0x1 SLOAD PUSH1 0x40 MLOAD PUSH4 0xA9059CBB PUSH1 0xE0 SHL DUP2 MSTORE PUSH1 0x1 PUSH1 0x1 PUSH1 0xA0 SHL SUB DUP5 DUP2 AND PUSH1 0x4 DUP4 ADD MSTORE PUSH1 0x24 DUP3 ADD DUP5 SWAP1 MSTORE SWAP1 SWAP2 AND SWAP1 PUSH4 0xA9059CBB SWAP1 PUSH1 0x44 ADD PUSH1 0x20 PUSH1 0x40 MLOAD DUP1 DUP4 SUB DUP2 PUSH1 0x0 DUP8 DUP1 EXTCODESIZE ISZERO DUP1 ISZERO PUSH2 0x641 JUMPI PUSH1 0x0 DUP1 REVERT JUMPDEST POP GAS CALL ISZERO DUP1 ISZERO PUSH2 0x655 JUMPI RETURNDATASIZE PUSH1 0x0 DUP1 RETURNDATACOPY RETURNDATASIZE PUSH1 0x0 REVERT JUMPDEST POP POP POP POP PUSH1 0x40 MLOAD RETURNDATASIZE PUSH1 0x1F NOT PUSH1 0x1F DUP3 ADD AND DUP3 ADD DUP1 PUSH1 0x40 MSTORE POP DUP2 ADD SWAP1 PUSH2 0x679 SWAP2 SWAP1 PUSH2 0x1246 JUMP JUMPDEST POP PUSH32 0x34FCBAC0073D7C3D388E51312FAF357774904998EEB8FCA628B9E6F65EE1CBF7 DUP3 DUP5 DUP4 PUSH1 0x40 MLOAD PUSH2 0x6AD SWAP4 SWAP3 SWAP2 SWAP1 PUSH2 0x1318 JUMP JUMPDEST PUSH1 0x40 MLOAD DUP1 SWAP2 SUB SWAP1 LOG1 POP POP POP JUMP JUMPDEST PUSH1 0x0 SLOAD PUSH1 0x1 PUSH1 0x1 PUSH1 0xA0 SHL SUB AND CALLER EQ PUSH2 0x6E4 JUMPI PUSH1 0x40 MLOAD PUSH3 0x461BCD PUSH1 0xE5 SHL DUP2 MSTORE PUSH1 0x4 ADD PUSH2 0x523 SWAP1 PUSH2 0x1339 JUMP JUMPDEST PUSH2 0x6EC PUSH2 0x103A JUMP JUMPDEST JUMP JUMPDEST CALLER PUSH1 0x0 DUP2 DUP2 MSTORE PUSH1 0x3 PUSH1 0x20 SWAP1 DUP2 MSTORE PUSH1 0x40 DUP1 DUP4 KECCAK256 DUP6 DUP5 MSTORE SWAP1 SWAP2 MSTORE SWAP1 KECCAK256 SLOAD DUP4 GT ISZERO PUSH2 0x74D JUMPI PUSH1 0x40 MLOAD PUSH3 0x461BCD PUSH1 0xE5 SHL DUP2 MSTORE PUSH1 0x20 PUSH1 0x4 DUP3 ADD MSTORE PUSH1 0x12 PUSH1 0x24 DUP3 ADD MSTORE PUSH18 0x139BDD08195B9BDD59DA0819195C1BDCDA5D PUSH1 0x72 SHL PUSH1 0x44 DUP3 ADD MSTORE PUSH1 0x64 ADD PUSH2 0x523 JUMP JUMPDEST PUSH1 0x0 PUSH2 0x759 DUP3 DUP5 PUSH2 0xD0C JUMP JUMPDEST SWAP1 POP PUSH1 0x0 PUSH2 0x767 DUP3 DUP7 PUSH2 0x13CF JUMP JUMPDEST PUSH1 0x1 PUSH1 0x1 PUSH1 0xA0 SHL SUB DUP5 AND PUSH1 0x0 SWAP1 DUP2 MSTORE PUSH1 0x3 PUSH1 0x20 SWAP1 DUP2 MSTORE PUSH1 0x40 DUP1 DUP4 KECCAK256 DUP9 DUP5 MSTORE SWAP1 SWAP2 MSTORE DUP2 KECCAK256 PUSH1 0x4 ADD SLOAD SWAP2 SWAP3 POP SWAP1 TIMESTAMP LT ISZERO PUSH2 0x7B6 JUMPI PUSH1 0x64 PUSH1 0x2 SLOAD DUP4 PUSH2 0x7A9 SWAP2 SWAP1 PUSH2 0x1409 JUMP JUMPDEST PUSH2 0x7B3 SWAP2 SWAP1 PUSH2 0x13E7 JUMP JUMPDEST SWAP1 POP JUMPDEST PUSH1 0x1 PUSH1 0x1 PUSH1 0xA0 SHL SUB DUP5 AND PUSH1 0x0 SWAP1 DUP2 MSTORE PUSH1 0x3 PUSH1 0x20 DUP2 DUP2 MSTORE PUSH1 0x40 DUP1 DUP5 KECCAK256 DUP10 DUP6 MSTORE SWAP1 SWAP2 MSTORE DUP3 KECCAK256 TIMESTAMP SWAP2 DUP2 ADD SWAP2 SWAP1 SWAP2 SSTORE DUP1 SLOAD DUP9 SWAP3 SWAP1 PUSH2 0x7F1 SWAP1 DUP5 SWAP1 PUSH2 0x1428 JUMP JUMPDEST SWAP1 SWAP2 SSTORE POP POP PUSH1 0x1 SLOAD PUSH1 0x1 PUSH1 0x1 PUSH1 0xA0 SHL SUB AND PUSH4 0xA9059CBB DUP6 PUSH2 0x812 DUP5 DUP7 PUSH2 0x1428 JUMP JUMPDEST PUSH1 0x40 MLOAD PUSH1 0x1 PUSH1 0x1 PUSH1 0xE0 SHL SUB NOT PUSH1 0xE0 DUP6 SWAP1 SHL AND DUP2 MSTORE PUSH1 0x1 PUSH1 0x1 PUSH1 0xA0 SHL SUB SWAP1 SWAP3 AND PUSH1 0x4 DUP4 ADD MSTORE PUSH1 0x24 DUP3 ADD MSTORE PUSH1 0x44 ADD PUSH1 0x20 PUSH1 0x40 MLOAD DUP1 DUP4 SUB DUP2 PUSH1 0x0 DUP8 DUP1 EXTCODESIZE ISZERO DUP1 ISZERO PUSH2 0x858 JUMPI PUSH1 0x0 DUP1 REVERT JUMPDEST POP GAS CALL ISZERO DUP1 ISZERO PUSH2 0x86C JUMPI RETURNDATASIZE PUSH1 0x0 DUP1 RETURNDATACOPY RETURNDATASIZE PUSH1 0x0 REVERT JUMPDEST POP POP POP POP PUSH1 0x40 MLOAD RETURNDATASIZE PUSH1 0x1F NOT PUSH1 0x1F DUP3 ADD AND DUP3 ADD DUP1 PUSH1 0x40 MSTORE POP DUP2 ADD SWAP1 PUSH2 0x890 SWAP2 SWAP1 PUSH2 0x1246 JUMP JUMPDEST POP PUSH32 0xF279E6A1F5E320CCA91135676D9CB6E44CA8A08C0B88342BCDB1144F6511B568 DUP5 PUSH1 0x0 DUP9 PUSH1 0x40 MLOAD PUSH2 0x8C5 SWAP4 SWAP3 SWAP2 SWAP1 PUSH2 0x1318 JUMP JUMPDEST PUSH1 0x40 MLOAD DUP1 SWAP2 SUB SWAP1 LOG1 POP POP POP POP POP POP JUMP JUMPDEST PUSH2 0x8DD PUSH2 0x11AF JUMP JUMPDEST PUSH2 0x8E5 PUSH2 0x11AF JUMP JUMPDEST PUSH2 0x8ED PUSH2 0x11AF JUMP JUMPDEST PUSH2 0x8F5 PUSH2 0x11AF JUMP JUMPDEST POP POP POP PUSH1 0x1 PUSH1 0x1 PUSH1 0xA0 SHL SUB DUP3 AND PUSH1 0x0 SWAP1 DUP2 MSTORE PUSH1 0x3 PUSH1 0x20 DUP2 DUP2 MSTORE PUSH1 0x40 DUP1 DUP5 KECCAK256 DUP5 DUP1 MSTORE DUP1 DUP4 MSTORE DUP2 DUP6 KECCAK256 DUP3 MLOAD PUSH1 0xA0 DUP1 DUP3 ADD DUP6 MSTORE DUP3 SLOAD DUP3 MSTORE PUSH1 0x1 DUP1 DUP5 ADD SLOAD DUP4 DUP9 ADD MSTORE PUSH1 0x2 DUP1 DUP6 ADD SLOAD DUP5 DUP9 ADD MSTORE DUP5 DUP10 ADD SLOAD PUSH1 0x60 DUP1 DUP7 ADD SWAP2 SWAP1 SWAP2 MSTORE PUSH1 0x4 SWAP6 DUP7 ADD SLOAD PUSH1 0x80 DUP1 DUP8 ADD SWAP2 SWAP1 SWAP2 MSTORE DUP4 DUP13 MSTORE DUP8 DUP11 MSTORE DUP9 DUP13 KECCAK256 DUP10 MLOAD DUP1 DUP8 ADD DUP12 MSTORE DUP2 SLOAD DUP2 MSTORE DUP2 DUP7 ADD SLOAD DUP2 DUP14 ADD MSTORE DUP2 DUP6 ADD SLOAD DUP2 DUP13 ADD MSTORE DUP2 DUP14 ADD SLOAD DUP2 DUP6 ADD MSTORE SWAP1 DUP9 ADD SLOAD DUP2 DUP4 ADD MSTORE DUP4 DUP14 MSTORE DUP9 DUP12 MSTORE DUP10 DUP14 KECCAK256 DUP11 MLOAD DUP1 DUP9 ADD DUP13 MSTORE DUP2 SLOAD DUP2 MSTORE DUP2 DUP8 ADD SLOAD DUP2 DUP15 ADD MSTORE DUP2 DUP7 ADD SLOAD DUP2 DUP14 ADD MSTORE DUP2 DUP15 ADD SLOAD DUP2 DUP7 ADD MSTORE SWAP1 DUP10 ADD SLOAD DUP2 DUP5 ADD MSTORE DUP13 DUP15 MSTORE SWAP9 DUP12 MSTORE DUP10 DUP14 KECCAK256 DUP11 MLOAD SWAP7 DUP8 ADD DUP12 MSTORE DUP1 SLOAD DUP8 MSTORE SWAP5 DUP6 ADD SLOAD SWAP11 DUP7 ADD SWAP11 SWAP1 SWAP11 MSTORE SWAP2 DUP4 ADD SLOAD SWAP8 DUP5 ADD SWAP8 SWAP1 SWAP8 MSTORE SWAP8 DUP2 ADD SLOAD SWAP6 DUP3 ADD SWAP6 SWAP1 SWAP6 MSTORE SWAP4 SWAP1 SWAP2 ADD SLOAD SWAP5 DUP4 ADD SWAP5 SWAP1 SWAP5 MSTORE SWAP3 SWAP5 POP SWAP1 SWAP3 DUP1 DUP1 DUP1 PUSH2 0xA14 DUP10 DUP3 PUSH2 0xD0C JUMP JUMPDEST SWAP4 POP PUSH2 0xA21 DUP10 PUSH1 0x1 PUSH2 0xD0C JUMP JUMPDEST SWAP3 POP PUSH2 0xA2E DUP10 PUSH1 0x2 PUSH2 0xD0C JUMP JUMPDEST SWAP2 POP PUSH2 0xA3B DUP10 PUSH1 0x3 PUSH2 0xD0C JUMP JUMPDEST SWAP1 POP SWAP2 SWAP4 SWAP6 SWAP8 POP SWAP2 SWAP4 SWAP6 SWAP8 JUMP JUMPDEST PUSH1 0x0 SLOAD PUSH1 0x1 PUSH1 0x1 PUSH1 0xA0 SHL SUB AND CALLER EQ PUSH2 0xA72 JUMPI PUSH1 0x40 MLOAD PUSH3 0x461BCD PUSH1 0xE5 SHL DUP2 MSTORE PUSH1 0x4 ADD PUSH2 0x523 SWAP1 PUSH2 0x1339 JUMP JUMPDEST PUSH2 0x6EC PUSH1 0x0 PUSH2 0x10D7 JUMP JUMPDEST PUSH1 0x0 SLOAD PUSH1 0x1 PUSH1 0x1 PUSH1 0xA0 SHL SUB AND CALLER EQ PUSH2 0xAA6 JUMPI PUSH1 0x40 MLOAD PUSH3 0x461BCD PUSH1 0xE5 SHL DUP2 MSTORE PUSH1 0x4 ADD PUSH2 0x523 SWAP1 PUSH2 0x1339 JUMP JUMPDEST PUSH2 0x6EC PUSH2 0x1127 JUMP JUMPDEST PUSH1 0x0 SLOAD PUSH1 0x1 PUSH1 0x1 PUSH1 0xA0 SHL SUB AND CALLER EQ PUSH2 0xAD8 JUMPI PUSH1 0x40 MLOAD PUSH3 0x461BCD PUSH1 0xE5 SHL DUP2 MSTORE PUSH1 0x4 ADD PUSH2 0x523 SWAP1 PUSH2 0x1339 JUMP JUMPDEST PUSH1 0x1 SLOAD PUSH1 0x40 MLOAD PUSH4 0x70A08231 PUSH1 0xE0 SHL DUP2 MSTORE ADDRESS PUSH1 0x4 DUP3 ADD MSTORE PUSH1 0x1 PUSH1 0x1 PUSH1 0xA0 SHL SUB SWAP1 SWAP2 AND SWAP1 PUSH4 0xA9059CBB SWAP1 CALLER SWAP1 DUP4 SWAP1 PUSH4 0x70A08231 SWAP1 PUSH1 0x24 ADD PUSH1 0x20 PUSH1 0x40 MLOAD DUP1 DUP4 SUB DUP2 DUP7 DUP1 EXTCODESIZE ISZERO DUP1 ISZERO PUSH2 0xB25 JUMPI PUSH1 0x0 DUP1 REVERT JUMPDEST POP GAS STATICCALL ISZERO DUP1 ISZERO PUSH2 0xB39 JUMPI RETURNDATASIZE PUSH1 0x0 DUP1 RETURNDATACOPY RETURNDATASIZE PUSH1 0x0 REVERT JUMPDEST POP POP POP POP PUSH1 0x40 MLOAD RETURNDATASIZE PUSH1 0x1F NOT PUSH1 0x1F DUP3 ADD AND DUP3 ADD DUP1 PUSH1 0x40 MSTORE POP DUP2 ADD SWAP1 PUSH2 0xB5D SWAP2 SWAP1 PUSH2 0x1281 JUMP JUMPDEST PUSH1 0x40 MLOAD PUSH1 0x1 PUSH1 0x1 PUSH1 0xE0 SHL SUB NOT PUSH1 0xE0 DUP6 SWAP1 SHL AND DUP2 MSTORE PUSH1 0x1 PUSH1 0x1 PUSH1 0xA0 SHL SUB SWAP1 SWAP3 AND PUSH1 0x4 DUP4 ADD MSTORE PUSH1 0x24 DUP3 ADD MSTORE PUSH1 0x44 ADD PUSH1 0x20 PUSH1 0x40 MLOAD DUP1 DUP4 SUB DUP2 PUSH1 0x0 DUP8 DUP1 EXTCODESIZE ISZERO DUP1 ISZERO PUSH2 0xBA3 JUMPI PUSH1 0x0 DUP1 REVERT JUMPDEST POP GAS CALL ISZERO DUP1 ISZERO PUSH2 0xBB7 JUMPI RETURNDATASIZE PUSH1 0x0 DUP1 RETURNDATACOPY RETURNDATASIZE PUSH1 0x0 REVERT JUMPDEST POP POP POP POP PUSH1 0x40 MLOAD RETURNDATASIZE PUSH1 0x1F NOT PUSH1 0x1F DUP3 ADD AND DUP3 ADD DUP1 PUSH1 0x40 MSTORE POP DUP2 ADD SWAP1 PUSH2 0xBDB SWAP2 SWAP1 PUSH2 0x1246 JUMP JUMPDEST POP JUMP JUMPDEST CALLER PUSH1 0x0 DUP2 DUP2 MSTORE PUSH1 0x3 PUSH1 0x20 SWAP1 DUP2 MSTORE PUSH1 0x40 DUP1 DUP4 KECCAK256 DUP6 DUP5 MSTORE SWAP1 SWAP2 MSTORE SWAP1 KECCAK256 SLOAD PUSH2 0xC39 JUMPI PUSH1 0x40 MLOAD PUSH3 0x461BCD PUSH1 0xE5 SHL DUP2 MSTORE PUSH1 0x20 PUSH1 0x4 DUP3 ADD MSTORE PUSH1 0x11 PUSH1 0x24 DUP3 ADD MSTORE PUSH17 0x139BC81858DD1A5D994819195C1BDCDA5D PUSH1 0x7A SHL PUSH1 0x44 DUP3 ADD MSTORE PUSH1 0x64 ADD PUSH2 0x523 JUMP JUMPDEST PUSH1 0x0 PUSH2 0xC45 DUP3 DUP5 PUSH2 0xD0C JUMP JUMPDEST PUSH1 0x1 PUSH1 0x1 PUSH1 0xA0 SHL SUB DUP4 AND PUSH1 0x0 SWAP1 DUP2 MSTORE PUSH1 0x3 PUSH1 0x20 SWAP1 DUP2 MSTORE PUSH1 0x40 DUP1 DUP4 KECCAK256 DUP8 DUP5 MSTORE SWAP1 SWAP2 MSTORE DUP2 KECCAK256 DUP1 SLOAD SWAP3 SWAP4 POP DUP4 SWAP3 SWAP1 SWAP2 SWAP1 PUSH2 0xC7D SWAP1 DUP5 SWAP1 PUSH2 0x13CF JUMP JUMPDEST SWAP1 SWAP2 SSTORE POP POP PUSH1 0x1 PUSH1 0x1 PUSH1 0xA0 SHL SUB DUP3 AND PUSH1 0x0 SWAP1 DUP2 MSTORE PUSH1 0x3 PUSH1 0x20 DUP2 DUP2 MSTORE PUSH1 0x40 DUP1 DUP5 KECCAK256 DUP8 DUP6 MSTORE SWAP1 SWAP2 MSTORE SWAP2 DUP3 SWAP1 KECCAK256 TIMESTAMP SWAP2 ADD SSTORE MLOAD PUSH32 0xE311A2C6DBFB0153EC3A8A5BDCA09070B3E5F60768FDC10A20453F38D186873 SWAP1 PUSH2 0x6AD SWAP1 DUP5 SWAP1 DUP7 SWAP1 DUP6 SWAP1 PUSH2 0x1318 JUMP JUMPDEST PUSH1 0x0 SLOAD PUSH1 0x1 PUSH1 0x1 PUSH1 0xA0 SHL SUB AND CALLER EQ PUSH2 0xD07 JUMPI PUSH1 0x40 MLOAD PUSH3 0x461BCD PUSH1 0xE5 SHL DUP2 MSTORE PUSH1 0x4 ADD PUSH2 0x523 SWAP1 PUSH2 0x1339 JUMP JUMPDEST PUSH1 0x2 SSTORE JUMP JUMPDEST PUSH1 0x1 PUSH1 0x1 PUSH1 0xA0 SHL SUB DUP3 AND PUSH1 0x0 SWAP1 DUP2 MSTORE PUSH1 0x3 PUSH1 0x20 DUP2 DUP2 MSTORE PUSH1 0x40 DUP1 DUP5 KECCAK256 DUP6 DUP6 MSTORE SWAP1 SWAP2 MSTORE DUP3 KECCAK256 ADD SLOAD DUP2 SWAP1 PUSH2 0xD3D SWAP1 TIMESTAMP PUSH2 0x1428 JUMP JUMPDEST PUSH1 0x1 PUSH1 0x1 PUSH1 0xA0 SHL SUB DUP6 AND PUSH1 0x0 SWAP1 DUP2 MSTORE PUSH1 0x3 PUSH1 0x20 SWAP1 DUP2 MSTORE PUSH1 0x40 DUP1 DUP4 KECCAK256 DUP8 DUP5 MSTORE DUP3 MSTORE DUP1 DUP4 KECCAK256 SLOAD PUSH1 0x4 SWAP1 SWAP3 MSTORE DUP3 KECCAK256 SLOAD SWAP3 SWAP4 POP SWAP2 SWAP1 PUSH4 0x1E13380 PUSH2 0x2710 PUSH2 0xD80 DUP5 DUP7 PUSH2 0x1409 JUMP JUMPDEST PUSH2 0xD8A SWAP2 SWAP1 PUSH2 0x13E7 JUMP JUMPDEST PUSH2 0xD94 SWAP2 SWAP1 PUSH2 0x13E7 JUMP JUMPDEST SWAP1 POP PUSH1 0x0 PUSH2 0xDA2 DUP3 DUP7 PUSH2 0x1409 JUMP JUMPDEST SWAP9 SWAP8 POP POP POP POP POP POP POP POP JUMP JUMPDEST PUSH1 0x0 SLOAD PUSH1 0x1 PUSH1 0xA0 SHL SWAP1 DIV PUSH1 0xFF AND ISZERO PUSH2 0xDFB JUMPI PUSH1 0x40 MLOAD PUSH3 0x461BCD PUSH1 0xE5 SHL DUP2 MSTORE PUSH1 0x20 PUSH1 0x4 DUP3 ADD MSTORE PUSH1 0x10 PUSH1 0x24 DUP3 ADD MSTORE PUSH16 0x14185D5CD8589B194E881C185D5CD959 PUSH1 0x82 SHL PUSH1 0x44 DUP3 ADD MSTORE PUSH1 0x64 ADD PUSH2 0x523 JUMP JUMPDEST PUSH1 0x1 SLOAD PUSH1 0x40 MLOAD PUSH4 0x23B872DD PUSH1 0xE0 SHL DUP2 MSTORE CALLER PUSH1 0x4 DUP3 ADD DUP2 SWAP1 MSTORE ADDRESS PUSH1 0x24 DUP4 ADD MSTORE PUSH1 0x44 DUP3 ADD DUP6 SWAP1 MSTORE SWAP2 PUSH1 0x1 PUSH1 0x1 PUSH1 0xA0 SHL SUB AND SWAP1 PUSH4 0x23B872DD SWAP1 PUSH1 0x64 ADD PUSH1 0x20 PUSH1 0x40 MLOAD DUP1 DUP4 SUB DUP2 PUSH1 0x0 DUP8 DUP1 EXTCODESIZE ISZERO DUP1 ISZERO PUSH2 0xE4E JUMPI PUSH1 0x0 DUP1 REVERT JUMPDEST POP GAS CALL ISZERO DUP1 ISZERO PUSH2 0xE62 JUMPI RETURNDATASIZE PUSH1 0x0 DUP1 RETURNDATACOPY RETURNDATASIZE PUSH1 0x0 REVERT JUMPDEST POP POP POP POP PUSH1 0x40 MLOAD RETURNDATASIZE PUSH1 0x1F NOT PUSH1 0x1F DUP3 ADD AND DUP3 ADD DUP1 PUSH1 0x40 MSTORE POP DUP2 ADD SWAP1 PUSH2 0xE86 SWAP2 SWAP1 PUSH2 0x1246 JUMP JUMPDEST POP PUSH1 0x1 PUSH1 0x1 PUSH1 0xA0 SHL SUB DUP2 AND PUSH1 0x0 SWAP1 DUP2 MSTORE PUSH1 0x3 PUSH1 0x20 SWAP1 DUP2 MSTORE PUSH1 0x40 DUP1 DUP4 KECCAK256 DUP6 DUP5 MSTORE SWAP1 SWAP2 MSTORE SWAP1 KECCAK256 SLOAD ISZERO PUSH2 0xEC7 JUMPI PUSH2 0xEBA DUP2 DUP4 PUSH2 0xD0C JUMP JUMPDEST PUSH2 0xEC4 SWAP1 DUP5 PUSH2 0x13CF JUMP JUMPDEST SWAP3 POP JUMPDEST PUSH1 0x1 PUSH1 0x1 PUSH1 0xA0 SHL SUB DUP2 AND PUSH1 0x0 SWAP1 DUP2 MSTORE PUSH1 0x3 PUSH1 0x20 SWAP1 DUP2 MSTORE PUSH1 0x40 DUP1 DUP4 KECCAK256 DUP6 DUP5 MSTORE SWAP1 SWAP2 MSTORE DUP2 KECCAK256 DUP1 SLOAD DUP6 SWAP3 SWAP1 PUSH2 0xEFA SWAP1 DUP5 SWAP1 PUSH2 0x13CF JUMP JUMPDEST SWAP1 SWAP2 SSTORE POP POP PUSH1 0x1 PUSH1 0x1 PUSH1 0xA0 SHL SUB DUP2 AND PUSH1 0x0 SWAP1 DUP2 MSTORE PUSH1 0x3 PUSH1 0x20 DUP2 DUP2 MSTORE PUSH1 0x40 DUP1 DUP5 KECCAK256 DUP7 DUP6 MSTORE DUP3 MSTORE DUP1 DUP5 KECCAK256 TIMESTAMP PUSH1 0x2 DUP3 ADD DUP2 SWAP1 SSTORE SWAP4 ADD DUP4 SWAP1 SSTORE PUSH1 0x4 SWAP1 SWAP2 MSTORE SWAP1 SWAP2 KECCAK256 PUSH1 0x1 ADD SLOAD PUSH2 0xF44 SWAP2 PUSH2 0x13CF JUMP JUMPDEST PUSH1 0x1 PUSH1 0x1 PUSH1 0xA0 SHL SUB DUP3 AND PUSH1 0x0 SWAP1 DUP2 MSTORE PUSH1 0x3 PUSH1 0x20 SWAP1 DUP2 MSTORE PUSH1 0x40 DUP1 DUP4 KECCAK256 DUP7 DUP5 MSTORE SWAP1 SWAP2 MSTORE SWAP1 DUP2 SWAP1 KECCAK256 PUSH1 0x4 ADD SWAP2 SWAP1 SWAP2 SSTORE MLOAD PUSH32 0x90890809C654F11D6E72A28FA60149770A0D11EC6C92319D6CEB2BB0A4EA1A15 SWAP1 PUSH2 0x6AD SWAP1 DUP4 SWAP1 DUP6 SWAP1 DUP8 SWAP1 PUSH2 0x1318 JUMP JUMPDEST PUSH1 0x0 SLOAD PUSH1 0x1 PUSH1 0x1 PUSH1 0xA0 SHL SUB AND CALLER EQ PUSH2 0xFCC JUMPI PUSH1 0x40 MLOAD PUSH3 0x461BCD PUSH1 0xE5 SHL DUP2 MSTORE PUSH1 0x4 ADD PUSH2 0x523 SWAP1 PUSH2 0x1339 JUMP JUMPDEST PUSH1 0x1 PUSH1 0x1 PUSH1 0xA0 SHL SUB DUP2 AND PUSH2 0x1031 JUMPI PUSH1 0x40 MLOAD PUSH3 0x461BCD PUSH1 0xE5 SHL DUP2 MSTORE PUSH1 0x20 PUSH1 0x4 DUP3 ADD MSTORE PUSH1 0x26 PUSH1 0x24 DUP3 ADD MSTORE PUSH32 0x4F776E61626C653A206E6577206F776E657220697320746865207A65726F2061 PUSH1 0x44 DUP3 ADD MSTORE PUSH6 0x646472657373 PUSH1 0xD0 SHL PUSH1 0x64 DUP3 ADD MSTORE PUSH1 0x84 ADD PUSH2 0x523 JUMP JUMPDEST PUSH2 0xBDB DUP2 PUSH2 0x10D7 JUMP JUMPDEST PUSH1 0x0 SLOAD PUSH1 0x1 PUSH1 0xA0 SHL SWAP1 DIV PUSH1 0xFF AND PUSH2 0x108A JUMPI PUSH1 0x40 MLOAD PUSH3 0x461BCD PUSH1 0xE5 SHL DUP2 MSTORE PUSH1 0x20 PUSH1 0x4 DUP3 ADD MSTORE PUSH1 0x14 PUSH1 0x24 DUP3 ADD MSTORE PUSH20 0x14185D5CD8589B194E881B9BDD081C185D5CD959 PUSH1 0x62 SHL PUSH1 0x44 DUP3 ADD MSTORE PUSH1 0x64 ADD PUSH2 0x523 JUMP JUMPDEST PUSH1 0x0 DUP1 SLOAD PUSH1 0xFF PUSH1 0xA0 SHL NOT AND SWAP1 SSTORE PUSH32 0x5DB9EE0A495BF2E6FF9C91A7834C1BA4FDD244A5E8AA4E537BD38AEAE4B073AA CALLER JUMPDEST PUSH1 0x40 MLOAD PUSH1 0x1 PUSH1 0x1 PUSH1 0xA0 SHL SUB SWAP1 SWAP2 AND DUP2 MSTORE PUSH1 0x20 ADD PUSH1 0x40 MLOAD DUP1 SWAP2 SUB SWAP1 LOG1 JUMP JUMPDEST PUSH1 0x0 DUP1 SLOAD PUSH1 0x1 PUSH1 0x1 PUSH1 0xA0 SHL SUB DUP4 DUP2 AND PUSH1 0x1 PUSH1 0x1 PUSH1 0xA0 SHL SUB NOT DUP4 AND DUP2 OR DUP5 SSTORE PUSH1 0x40 MLOAD SWAP2 SWAP1 SWAP3 AND SWAP3 DUP4 SWAP2 PUSH32 0x8BE0079C531659141344CD1FD0A4F28419497F9722A3DAAFE3B4186F6B6457E0 SWAP2 SWAP1 LOG3 POP POP JUMP JUMPDEST PUSH1 0x0 SLOAD PUSH1 0x1 PUSH1 0xA0 SHL SWAP1 DIV PUSH1 0xFF AND ISZERO PUSH2 0x1174 JUMPI PUSH1 0x40 MLOAD PUSH3 0x461BCD PUSH1 0xE5 SHL DUP2 MSTORE PUSH1 0x20 PUSH1 0x4 DUP3 ADD MSTORE PUSH1 0x10 PUSH1 0x24 DUP3 ADD MSTORE PUSH16 0x14185D5CD8589B194E881C185D5CD959 PUSH1 0x82 SHL PUSH1 0x44 DUP3 ADD MSTORE PUSH1 0x64 ADD PUSH2 0x523 JUMP JUMPDEST PUSH1 0x0 DUP1 SLOAD PUSH1 0xFF PUSH1 0xA0 SHL NOT AND PUSH1 0x1 PUSH1 0xA0 SHL OR SWAP1 SSTORE PUSH32 0x62E78CEA01BEE320CD4E420270B5EA74000D11B0C9F74754EBDBFC544B05A258 PUSH2 0x10BA CALLER SWAP1 JUMP JUMPDEST PUSH1 0x40 MLOAD DUP1 PUSH1 0xA0 ADD PUSH1 0x40 MSTORE DUP1 PUSH1 0x0 DUP2 MSTORE PUSH1 0x20 ADD PUSH1 0x0 DUP2 MSTORE PUSH1 0x20 ADD PUSH1 0x0 DUP2 MSTORE PUSH1 0x20 ADD PUSH1 0x0 DUP2 MSTORE PUSH1 0x20 ADD PUSH1 0x0 DUP2 MSTORE POP SWAP1 JUMP JUMPDEST DUP1 CALLDATALOAD PUSH1 0x1 PUSH1 0x1 PUSH1 0xA0 SHL SUB DUP2 AND DUP2 EQ PUSH2 0x11F5 JUMPI PUSH1 0x0 DUP1 REVERT JUMPDEST SWAP2 SWAP1 POP JUMP JUMPDEST PUSH1 0x0 PUSH1 0x20 DUP3 DUP5 SUB SLT ISZERO PUSH2 0x120C JUMPI PUSH1 0x0 DUP1 REVERT JUMPDEST PUSH2 0x1215 DUP3 PUSH2 0x11DE JUMP JUMPDEST SWAP4 SWAP3 POP POP POP JUMP JUMPDEST PUSH1 0x0 DUP1 PUSH1 0x40 DUP4 DUP6 SUB SLT ISZERO PUSH2 0x122F JUMPI PUSH1 0x0 DUP1 REVERT JUMPDEST PUSH2 0x1238 DUP4 PUSH2 0x11DE JUMP JUMPDEST SWAP5 PUSH1 0x20 SWAP4 SWAP1 SWAP4 ADD CALLDATALOAD SWAP4 POP POP POP JUMP JUMPDEST PUSH1 0x0 PUSH1 0x20 DUP3 DUP5 SUB SLT ISZERO PUSH2 0x1258 JUMPI PUSH1 0x0 DUP1 REVERT JUMPDEST DUP2 MLOAD DUP1 ISZERO ISZERO DUP2 EQ PUSH2 0x1215 JUMPI PUSH1 0x0 DUP1 REVERT JUMPDEST PUSH1 0x0 PUSH1 0x20 DUP3 DUP5 SUB SLT ISZERO PUSH2 0x127A JUMPI PUSH1 0x0 DUP1 REVERT JUMPDEST POP CALLDATALOAD SWAP2 SWAP1 POP JUMP JUMPDEST PUSH1 0x0 PUSH1 0x20 DUP3 DUP5 SUB SLT ISZERO PUSH2 0x1293 JUMPI PUSH1 0x0 DUP1 REVERT JUMPDEST POP MLOAD SWAP2 SWAP1 POP JUMP JUMPDEST PUSH1 0x0 DUP1 PUSH1 0x40 DUP4 DUP6 SUB SLT ISZERO PUSH2 0x12AD JUMPI PUSH1 0x0 DUP1 REVERT JUMPDEST POP POP DUP1 CALLDATALOAD SWAP3 PUSH1 0x20 SWAP1 SWAP2 ADD CALLDATALOAD SWAP2 POP JUMP JUMPDEST PUSH1 0x0 DUP1 PUSH1 0x0 PUSH1 0x60 DUP5 DUP7 SUB SLT ISZERO PUSH2 0x12D1 JUMPI PUSH1 0x0 DUP1 REVERT JUMPDEST POP POP DUP2 CALLDATALOAD SWAP4 PUSH1 0x20 DUP4 ADD CALLDATALOAD SWAP4 POP PUSH1 0x40 SWAP1 SWAP3 ADD CALLDATALOAD SWAP2 SWAP1 POP JUMP JUMPDEST DUP1 MLOAD DUP3 MSTORE PUSH1 0x20 DUP2 ADD MLOAD PUSH1 0x20 DUP4 ADD MSTORE PUSH1 0x40 DUP2 ADD MLOAD PUSH1 0x40 DUP4 ADD MSTORE PUSH1 0x60 DUP2 ADD MLOAD PUSH1 0x60 DUP4 ADD MSTORE PUSH1 0x80 DUP2 ADD MLOAD PUSH1 0x80 DUP4 ADD MSTORE POP POP JUMP JUMPDEST PUSH1 0x1 PUSH1 0x1 PUSH1 0xA0 SHL SUB SWAP4 SWAP1 SWAP4 AND DUP4 MSTORE PUSH1 0x20 DUP4 ADD SWAP2 SWAP1 SWAP2 MSTORE PUSH1 0x40 DUP3 ADD MSTORE PUSH1 0x60 ADD SWAP1 JUMP JUMPDEST PUSH1 0x20 DUP1 DUP3 MSTORE DUP2 DUP2 ADD MSTORE PUSH32 0x4F776E61626C653A2063616C6C6572206973206E6F7420746865206F776E6572 PUSH1 0x40 DUP3 ADD MSTORE PUSH1 0x60 ADD SWAP1 JUMP JUMPDEST PUSH2 0x300 DUP2 ADD PUSH2 0x137D DUP3 DUP12 PUSH2 0x12E8 JUMP JUMPDEST PUSH2 0x138A PUSH1 0xA0 DUP4 ADD DUP11 PUSH2 0x12E8 JUMP JUMPDEST PUSH2 0x1398 PUSH2 0x140 DUP4 ADD DUP10 PUSH2 0x12E8 JUMP JUMPDEST PUSH2 0x13A6 PUSH2 0x1E0 DUP4 ADD DUP9 PUSH2 0x12E8 JUMP JUMPDEST DUP6 PUSH2 0x280 DUP4 ADD MSTORE DUP5 PUSH2 0x2A0 DUP4 ADD MSTORE DUP4 PUSH2 0x2C0 DUP4 ADD MSTORE DUP3 PUSH2 0x2E0 DUP4 ADD MSTORE SWAP10 SWAP9 POP POP POP POP POP POP POP POP POP JUMP JUMPDEST PUSH1 0x0 DUP3 NOT DUP3 GT ISZERO PUSH2 0x13E2 JUMPI PUSH2 0x13E2 PUSH2 0x143F JUMP JUMPDEST POP ADD SWAP1 JUMP JUMPDEST PUSH1 0x0 DUP3 PUSH2 0x1404 JUMPI PUSH4 0x4E487B71 PUSH1 0xE0 SHL PUSH1 0x0 MSTORE PUSH1 0x12 PUSH1 0x4 MSTORE PUSH1 0x24 PUSH1 0x0 REVERT JUMPDEST POP DIV SWAP1 JUMP JUMPDEST PUSH1 0x0 DUP2 PUSH1 0x0 NOT DIV DUP4 GT DUP3 ISZERO ISZERO AND ISZERO PUSH2 0x1423 JUMPI PUSH2 0x1423 PUSH2 0x143F JUMP JUMPDEST POP MUL SWAP1 JUMP JUMPDEST PUSH1 0x0 DUP3 DUP3 LT ISZERO PUSH2 0x143A JUMPI PUSH2 0x143A PUSH2 0x143F JUMP JUMPDEST POP SUB SWAP1 JUMP JUMPDEST PUSH4 0x4E487B71 PUSH1 0xE0 SHL PUSH1 0x0 MSTORE PUSH1 0x11 PUSH1 0x4 MSTORE PUSH1 0x24 PUSH1 0x0 REVERT INVALID LOG2 PUSH5 0x6970667358 0x22 SLT KECCAK256 0xF EXTCODECOPY 0xD8 GASLIMIT 0xAB 0xC8 CALLDATALOAD SLT 0xB2 BYTE SWAP1 0xC1 MSIZE 0xD2 0xD8 PUSH4 0x4F7380C6 0xF8 0xDA BYTE SAR PUSH10 0x2F0980968AB3E264736F PUSH13 0x63430008070033000000000000 "
				},
				"gasEstimates": {
					"creation": {
						"codeDepositCost": "1051800",
						"executionCost": "infinite",
						"totalCost": "infinite"
					},
					"external": {
						"acceptedToken()": "2382",
						"calculateRewards(address,uint256)": "infinite",
						"changeEarlyWithdrawFee(uint256)": "24575",
						"changeLevelValues(uint256,uint256,uint256)": "46737",
						"claim(uint256)": "infinite",
						"compound(uint256)": "infinite",
						"deposit(uint256,uint256)": "infinite",
						"getLevelsInfo()": "17677",
						"getUserInfo(address)": "infinite",
						"levelInfo(uint256)": "4665",
						"owner()": "2398",
						"pause()": "29802",
						"paused()": "2376",
						"renounceOwnership()": "28225",
						"transferOwnership(address)": "28419",
						"unpause()": "29840",
						"userLevelDeposit(address,uint256)": "11166",
						"withdraw(uint256,uint256)": "infinite",
						"withdrawTokens()": "infinite"
					}
				},
				"methodIdentifiers": {
					"acceptedToken()": "451c3d80",
					"calculateRewards(address,uint256)": "beb8314c",
					"changeEarlyWithdrawFee(uint256)": "aff3b697",
					"changeLevelValues(uint256,uint256,uint256)": "32e96203",
					"claim(uint256)": "379607f5",
					"compound(uint256)": "aa5f7e26",
					"deposit(uint256,uint256)": "e2bbb158",
					"getLevelsInfo()": "e788cee5",
					"getUserInfo(address)": "6386c1c7",
					"levelInfo(uint256)": "edf501ad",
					"owner()": "8da5cb5b",
					"pause()": "8456cb59",
					"paused()": "5c975abb",
					"renounceOwnership()": "715018a6",
					"transferOwnership(address)": "f2fde38b",
					"unpause()": "3f4ba83a",
					"userLevelDeposit(address,uint256)": "259ee752",
					"withdraw(uint256,uint256)": "441a3e70",
					"withdrawTokens()": "8d8f2adb"
				}
			},
			"storageLayout": {
				"storage": [
					{
						"astId": 7,
						"contract": "staking.sol:AcesStaking",
						"label": "_owner",
						"offset": 0,
						"slot": "0",
						"type": "t_address"
					},
					{
						"astId": 122,
						"contract": "staking.sol:AcesStaking",
						"label": "_paused",
						"offset": 20,
						"slot": "0",
						"type": "t_bool"
					},
					{
						"astId": 308,
						"contract": "staking.sol:AcesStaking",
						"label": "acceptedToken",
						"offset": 0,
						"slot": "1",
						"type": "t_contract(IERC20)274"
					},
					{
						"astId": 311,
						"contract": "staking.sol:AcesStaking",
						"label": "earlyWithdrawFee",
						"offset": 0,
						"slot": "2",
						"type": "t_uint256"
					},
					{
						"astId": 334,
						"contract": "staking.sol:AcesStaking",
						"label": "userLevelDeposit",
						"offset": 0,
						"slot": "3",
						"type": "t_mapping(t_address,t_mapping(t_uint256,t_struct(User)322_storage))"
					},
					{
						"astId": 339,
						"contract": "staking.sol:AcesStaking",
						"label": "levelInfo",
						"offset": 0,
						"slot": "4",
						"type": "t_mapping(t_uint256,t_struct(Level)327_storage)"
					}
				],
				"types": {
					"t_address": {
						"encoding": "inplace",
						"label": "address",
						"numberOfBytes": "20"
					},
					"t_bool": {
						"encoding": "inplace",
						"label": "bool",
						"numberOfBytes": "1"
					},
					"t_contract(IERC20)274": {
						"encoding": "inplace",
						"label": "contract IERC20",
						"numberOfBytes": "20"
					},
					"t_mapping(t_address,t_mapping(t_uint256,t_struct(User)322_storage))": {
						"encoding": "mapping",
						"key": "t_address",
						"label": "mapping(address => mapping(uint256 => struct AcesStaking.User))",
						"numberOfBytes": "32",
						"value": "t_mapping(t_uint256,t_struct(User)322_storage)"
					},
					"t_mapping(t_uint256,t_struct(Level)327_storage)": {
						"encoding": "mapping",
						"key": "t_uint256",
						"label": "mapping(uint256 => struct AcesStaking.Level)",
						"numberOfBytes": "32",
						"value": "t_struct(Level)327_storage"
					},
					"t_mapping(t_uint256,t_struct(User)322_storage)": {
						"encoding": "mapping",
						"key": "t_uint256",
						"label": "mapping(uint256 => struct AcesStaking.User)",
						"numberOfBytes": "32",
						"value": "t_struct(User)322_storage"
					},
					"t_struct(Level)327_storage": {
						"encoding": "inplace",
						"label": "struct AcesStaking.Level",
						"members": [
							{
								"astId": 324,
								"contract": "staking.sol:AcesStaking",
								"label": "APY",
								"offset": 0,
								"slot": "0",
								"type": "t_uint256"
							},
							{
								"astId": 326,
								"contract": "staking.sol:AcesStaking",
								"label": "lockPeriod",
								"offset": 0,
								"slot": "1",
								"type": "t_uint256"
							}
						],
						"numberOfBytes": "64"
					},
					"t_struct(User)322_storage": {
						"encoding": "inplace",
						"label": "struct AcesStaking.User",
						"members": [
							{
								"astId": 313,
								"contract": "staking.sol:AcesStaking",
								"label": "balance",
								"offset": 0,
								"slot": "0",
								"type": "t_uint256"
							},
							{
								"astId": 315,
								"contract": "staking.sol:AcesStaking",
								"label": "claimed",
								"offset": 0,
								"slot": "1",
								"type": "t_uint256"
							},
							{
								"astId": 317,
								"contract": "staking.sol:AcesStaking",
								"label": "started",
								"offset": 0,
								"slot": "2",
								"type": "t_uint256"
							},
							{
								"astId": 319,
								"contract": "staking.sol:AcesStaking",
								"label": "lastClaim",
								"offset": 0,
								"slot": "3",
								"type": "t_uint256"
							},
							{
								"astId": 321,
								"contract": "staking.sol:AcesStaking",
								"label": "unlockTime",
								"offset": 0,
								"slot": "4",
								"type": "t_uint256"
							}
						],
						"numberOfBytes": "160"
					},
					"t_uint256": {
						"encoding": "inplace",
						"label": "uint256",
						"numberOfBytes": "32"
					}
				}
			},
			"userdoc": {
				"kind": "user",
				"methods": {},
				"version": 1
			}
		}
	}
}