{
	"lotto.sol": {
		"ACELotto": {
			"abi": [
				{
					"inputs": [
						{
							"internalType": "address",
							"name": "_aces",
							"type": "address"
						}
					],
					"stateMutability": "nonpayable",
					"type": "constructor"
				},
				{
					"anonymous": false,
					"inputs": [
						{
							"indexed": false,
							"internalType": "address",
							"name": "winner",
							"type": "address"
						},
						{
							"indexed": false,
							"internalType": "uint256",
							"name": "amount",
							"type": "uint256"
						}
					],
					"name": "LotteryWon",
					"type": "event"
				},
				{
					"anonymous": false,
					"inputs": [
						{
							"indexed": true,
							"internalType": "address",
							"name": "previousOwner",
							"type": "address"
						},
						{
							"indexed": true,
							"internalType": "address",
							"name": "newOwner",
							"type": "address"
						}
					],
					"name": "OwnershipTransferred",
					"type": "event"
				},
				{
					"inputs": [],
					"name": "acesToken",
					"outputs": [
						{
							"internalType": "contract IERC20",
							"name": "",
							"type": "address"
						}
					],
					"stateMutability": "view",
					"type": "function"
				},
				{
					"inputs": [],
					"name": "currentJackpot",
					"outputs": [
						{
							"internalType": "uint256",
							"name": "",
							"type": "uint256"
						}
					],
					"stateMutability": "view",
					"type": "function"
				},
				{
					"inputs": [
						{
							"internalType": "address",
							"name": "",
							"type": "address"
						},
						{
							"internalType": "uint256",
							"name": "",
							"type": "uint256"
						}
					],
					"name": "entriesIndex",
					"outputs": [
						{
							"internalType": "uint256",
							"name": "",
							"type": "uint256"
						}
					],
					"stateMutability": "view",
					"type": "function"
				},
				{
					"inputs": [],
					"name": "getUniqueAddresses",
					"outputs": [
						{
							"internalType": "address[]",
							"name": "addresses",
							"type": "address[]"
						},
						{
							"internalType": "uint256[]",
							"name": "entries",
							"type": "uint256[]"
						}
					],
					"stateMutability": "view",
					"type": "function"
				},
				{
					"inputs": [],
					"name": "getUniqueUsers",
					"outputs": [
						{
							"internalType": "uint256",
							"name": "counter",
							"type": "uint256"
						}
					],
					"stateMutability": "view",
					"type": "function"
				},
				{
					"inputs": [
						{
							"internalType": "address",
							"name": "account",
							"type": "address"
						}
					],
					"name": "isActiveAccount",
					"outputs": [
						{
							"internalType": "bool",
							"name": "",
							"type": "bool"
						}
					],
					"stateMutability": "view",
					"type": "function"
				},
				{
					"inputs": [],
					"name": "owner",
					"outputs": [
						{
							"internalType": "address",
							"name": "",
							"type": "address"
						}
					],
					"stateMutability": "view",
					"type": "function"
				},
				{
					"inputs": [
						{
							"internalType": "uint256",
							"name": "seed",
							"type": "uint256"
						}
					],
					"name": "pickWinner",
					"outputs": [
						{
							"internalType": "uint256",
							"name": "winnerNum",
							"type": "uint256"
						},
						{
							"internalType": "address",
							"name": "winnerAddress",
							"type": "address"
						}
					],
					"stateMutability": "view",
					"type": "function"
				},
				{
					"inputs": [
						{
							"internalType": "address",
							"name": "account",
							"type": "address"
						}
					],
					"name": "removeAccount",
					"outputs": [],
					"stateMutability": "nonpayable",
					"type": "function"
				},
				{
					"inputs": [
						{
							"internalType": "address",
							"name": "account",
							"type": "address"
						},
						{
							"internalType": "uint256",
							"name": "amount",
							"type": "uint256"
						}
					],
					"name": "removeEntryFromWallet",
					"outputs": [],
					"stateMutability": "nonpayable",
					"type": "function"
				},
				{
					"inputs": [],
					"name": "renounceOwnership",
					"outputs": [],
					"stateMutability": "nonpayable",
					"type": "function"
				},
				{
					"inputs": [
						{
							"internalType": "uint256",
							"name": "startIndex",
							"type": "uint256"
						},
						{
							"internalType": "uint256",
							"name": "endIndex",
							"type": "uint256"
						}
					],
					"name": "resultLog",
					"outputs": [
						{
							"components": [
								{
									"internalType": "uint256",
									"name": "totalEntries",
									"type": "uint256"
								},
								{
									"internalType": "uint256",
									"name": "winningNumber",
									"type": "uint256"
								},
								{
									"internalType": "uint256",
									"name": "payout",
									"type": "uint256"
								},
								{
									"internalType": "uint256",
									"name": "endTime",
									"type": "uint256"
								},
								{
									"internalType": "address",
									"name": "winningAddress",
									"type": "address"
								}
							],
							"internalType": "struct ACELotto.Results[]",
							"name": "log",
							"type": "tuple[]"
						}
					],
					"stateMutability": "view",
					"type": "function"
				},
				{
					"inputs": [],
					"name": "roundEntries",
					"outputs": [
						{
							"internalType": "uint256",
							"name": "",
							"type": "uint256"
						}
					],
					"stateMutability": "view",
					"type": "function"
				},
				{
					"inputs": [
						{
							"internalType": "uint256",
							"name": "",
							"type": "uint256"
						}
					],
					"name": "roundEntry",
					"outputs": [
						{
							"internalType": "address",
							"name": "",
							"type": "address"
						}
					],
					"stateMutability": "view",
					"type": "function"
				},
				{
					"inputs": [],
					"name": "roundNum",
					"outputs": [
						{
							"internalType": "uint256",
							"name": "",
							"type": "uint256"
						}
					],
					"stateMutability": "view",
					"type": "function"
				},
				{
					"inputs": [
						{
							"internalType": "uint256",
							"name": "",
							"type": "uint256"
						}
					],
					"name": "roundResults",
					"outputs": [
						{
							"internalType": "uint256",
							"name": "totalEntries",
							"type": "uint256"
						},
						{
							"internalType": "uint256",
							"name": "winningNumber",
							"type": "uint256"
						},
						{
							"internalType": "uint256",
							"name": "payout",
							"type": "uint256"
						},
						{
							"internalType": "uint256",
							"name": "endTime",
							"type": "uint256"
						},
						{
							"internalType": "address",
							"name": "winningAddress",
							"type": "address"
						}
					],
					"stateMutability": "view",
					"type": "function"
				},
				{
					"inputs": [],
					"name": "totalPayout",
					"outputs": [
						{
							"internalType": "uint256",
							"name": "",
							"type": "uint256"
						}
					],
					"stateMutability": "view",
					"type": "function"
				},
				{
					"inputs": [
						{
							"internalType": "address",
							"name": "newOwner",
							"type": "address"
						}
					],
					"name": "transferOwnership",
					"outputs": [],
					"stateMutability": "nonpayable",
					"type": "function"
				},
				{
					"inputs": [
						{
							"internalType": "address",
							"name": "account",
							"type": "address"
						},
						{
							"internalType": "uint256",
							"name": "amount",
							"type": "uint256"
						}
					],
					"name": "updateAccount",
					"outputs": [],
					"stateMutability": "nonpayable",
					"type": "function"
				},
				{
					"inputs": [
						{
							"internalType": "uint256",
							"name": "winnerNum",
							"type": "uint256"
						},
						{
							"internalType": "uint256",
							"name": "payout",
							"type": "uint256"
						}
					],
					"name": "updateWinner",
					"outputs": [],
					"stateMutability": "nonpayable",
					"type": "function"
				},
				{
					"inputs": [
						{
							"internalType": "address",
							"name": "account",
							"type": "address"
						}
					],
					"name": "userEntries",
					"outputs": [
						{
							"internalType": "uint256",
							"name": "",
							"type": "uint256"
						}
					],
					"stateMutability": "view",
					"type": "function"
				}
			],
			"devdoc": {
				"kind": "dev",
				"methods": {
					"owner()": {
						"details": "Returns the address of the current owner."
					},
					"renounceOwnership()": {
						"details": "Leaves the contract without owner. It will not be possible to call `onlyOwner` functions anymore. Can only be called by the current owner. NOTE: Renouncing ownership will leave the contract without an owner, thereby removing any functionality that is only available to the owner."
					},
					"transferOwnership(address)": {
						"details": "Transfers ownership of the contract to a new account (`newOwner`). Can only be called by the current owner."
					}
				},
				"version": 1
			},
			"evm": {
				"assembly": "    /* \"lotto.sol\":595:6110  contract ACELotto is Ownable {   \r... */\n  mstore(0x40, 0x80)\n    /* \"lotto.sol\":1172:1242  constructor(address _aces){\r... */\n  callvalue\n  dup1\n  iszero\n  tag_1\n  jumpi\n  0x00\n  dup1\n  revert\ntag_1:\n  pop\n  mload(0x40)\n  sub(codesize, bytecodeSize)\n  dup1\n  bytecodeSize\n  dup4\n  codecopy\n  dup2\n  dup2\n  add\n  0x40\n  mstore\n  dup2\n  add\n  swap1\n  tag_2\n  swap2\n  swap1\n  tag_3\n  jump\t// in\ntag_2:\n    /* \"https://github.com/OpenZeppelin/openzeppelin-contracts/blob/master/contracts/access/Ownable.sol\":921:953  _transferOwnership(_msgSender()) */\n  tag_7\n    /* \"https://github.com/OpenZeppelin/openzeppelin-contracts/blob/master/contracts/access/Ownable.sol\":940:952  _msgSender() */\n  tag_8\n    /* \"https://github.com/OpenZeppelin/openzeppelin-contracts/blob/master/contracts/access/Ownable.sol\":940:950  _msgSender */\n  shl(0x20, tag_9)\n    /* \"https://github.com/OpenZeppelin/openzeppelin-contracts/blob/master/contracts/access/Ownable.sol\":940:952  _msgSender() */\n  0x20\n  shr\n  jump\t// in\ntag_8:\n    /* \"https://github.com/OpenZeppelin/openzeppelin-contracts/blob/master/contracts/access/Ownable.sol\":921:939  _transferOwnership */\n  shl(0x20, tag_10)\n    /* \"https://github.com/OpenZeppelin/openzeppelin-contracts/blob/master/contracts/access/Ownable.sol\":921:953  _transferOwnership(_msgSender()) */\n  0x20\n  shr\n  jump\t// in\ntag_7:\n    /* \"lotto.sol\":1228:1233  _aces */\n  dup1\n    /* \"lotto.sol\":1209:1218  acesToken */\n  0x04\n  0x00\n    /* \"lotto.sol\":1209:1234  acesToken = IERC20(_aces) */\n  0x0100\n  exp\n  dup2\n  sload\n  dup2\n  0xffffffffffffffffffffffffffffffffffffffff\n  mul\n  not\n  and\n  swap1\n  dup4\n  0xffffffffffffffffffffffffffffffffffffffff\n  and\n  mul\n  or\n  swap1\n  sstore\n  pop\n    /* \"lotto.sol\":1172:1242  constructor(address _aces){\r... */\n  pop\n    /* \"lotto.sol\":595:6110  contract ACELotto is Ownable {   \r... */\n  jump(tag_12)\n    /* \"https://github.com/OpenZeppelin/openzeppelin-contracts/blob/master/contracts/utils/Context.sol\":640:736  function _msgSender() internal view virtual returns (address) {... */\ntag_9:\n    /* \"https://github.com/OpenZeppelin/openzeppelin-contracts/blob/master/contracts/utils/Context.sol\":693:700  address */\n  0x00\n    /* \"https://github.com/OpenZeppelin/openzeppelin-contracts/blob/master/contracts/utils/Context.sol\":719:729  msg.sender */\n  caller\n    /* \"https://github.com/OpenZeppelin/openzeppelin-contracts/blob/master/contracts/utils/Context.sol\":712:729  return msg.sender */\n  swap1\n  pop\n    /* \"https://github.com/OpenZeppelin/openzeppelin-contracts/blob/master/contracts/utils/Context.sol\":640:736  function _msgSender() internal view virtual returns (address) {... */\n  swap1\n  jump\t// out\n    /* \"https://github.com/OpenZeppelin/openzeppelin-contracts/blob/master/contracts/access/Ownable.sol\":2270:2457  function _transferOwnership(address newOwner) internal virtual {... */\ntag_10:\n    /* \"https://github.com/OpenZeppelin/openzeppelin-contracts/blob/master/contracts/access/Ownable.sol\":2343:2359  address oldOwner */\n  0x00\n    /* \"https://github.com/OpenZeppelin/openzeppelin-contracts/blob/master/contracts/access/Ownable.sol\":2362:2368  _owner */\n  dup1\n  0x00\n  swap1\n  sload\n  swap1\n  0x0100\n  exp\n  swap1\n  div\n  0xffffffffffffffffffffffffffffffffffffffff\n  and\n    /* \"https://github.com/OpenZeppelin/openzeppelin-contracts/blob/master/contracts/access/Ownable.sol\":2343:2368  address oldOwner = _owner */\n  swap1\n  pop\n    /* \"https://github.com/OpenZeppelin/openzeppelin-contracts/blob/master/contracts/access/Ownable.sol\":2387:2395  newOwner */\n  dup2\n    /* \"https://github.com/OpenZeppelin/openzeppelin-contracts/blob/master/contracts/access/Ownable.sol\":2378:2384  _owner */\n  0x00\n  dup1\n    /* \"https://github.com/OpenZeppelin/openzeppelin-contracts/blob/master/contracts/access/Ownable.sol\":2378:2395  _owner = newOwner */\n  0x0100\n  exp\n  dup2\n  sload\n  dup2\n  0xffffffffffffffffffffffffffffffffffffffff\n  mul\n  not\n  and\n  swap1\n  dup4\n  0xffffffffffffffffffffffffffffffffffffffff\n  and\n  mul\n  or\n  swap1\n  sstore\n  pop\n    /* \"https://github.com/OpenZeppelin/openzeppelin-contracts/blob/master/contracts/access/Ownable.sol\":2441:2449  newOwner */\n  dup2\n    /* \"https://github.com/OpenZeppelin/openzeppelin-contracts/blob/master/contracts/access/Ownable.sol\":2410:2450  OwnershipTransferred(oldOwner, newOwner) */\n  0xffffffffffffffffffffffffffffffffffffffff\n  and\n    /* \"https://github.com/OpenZeppelin/openzeppelin-contracts/blob/master/contracts/access/Ownable.sol\":2431:2439  oldOwner */\n  dup2\n    /* \"https://github.com/OpenZeppelin/openzeppelin-contracts/blob/master/contracts/access/Ownable.sol\":2410:2450  OwnershipTransferred(oldOwner, newOwner) */\n  0xffffffffffffffffffffffffffffffffffffffff\n  and\n  0x8be0079c531659141344cd1fd0a4f28419497f9722a3daafe3b4186f6b6457e0\n  mload(0x40)\n  mload(0x40)\n  dup1\n  swap2\n  sub\n  swap1\n  log3\n    /* \"https://github.com/OpenZeppelin/openzeppelin-contracts/blob/master/contracts/access/Ownable.sol\":2333:2457  {... */\n  pop\n    /* \"https://github.com/OpenZeppelin/openzeppelin-contracts/blob/master/contracts/access/Ownable.sol\":2270:2457  function _transferOwnership(address newOwner) internal virtual {... */\n  pop\n  jump\t// out\n    /* \"#utility.yul\":7:150   */\ntag_16:\n    /* \"#utility.yul\":64:69   */\n  0x00\n    /* \"#utility.yul\":95:101   */\n  dup2\n    /* \"#utility.yul\":89:102   */\n  mload\n    /* \"#utility.yul\":80:102   */\n  swap1\n  pop\n    /* \"#utility.yul\":111:144   */\n  tag_18\n    /* \"#utility.yul\":138:143   */\n  dup2\n    /* \"#utility.yul\":111:144   */\n  tag_19\n  jump\t// in\ntag_18:\n    /* \"#utility.yul\":7:150   */\n  swap3\n  swap2\n  pop\n  pop\n  jump\t// out\n    /* \"#utility.yul\":156:507   */\ntag_3:\n    /* \"#utility.yul\":226:232   */\n  0x00\n    /* \"#utility.yul\":275:277   */\n  0x20\n    /* \"#utility.yul\":263:272   */\n  dup3\n    /* \"#utility.yul\":254:261   */\n  dup5\n    /* \"#utility.yul\":250:273   */\n  sub\n    /* \"#utility.yul\":246:278   */\n  slt\n    /* \"#utility.yul\":243:362   */\n  iszero\n  tag_21\n  jumpi\n    /* \"#utility.yul\":281:360   */\n  tag_22\n  tag_23\n  jump\t// in\ntag_22:\n    /* \"#utility.yul\":243:362   */\ntag_21:\n    /* \"#utility.yul\":401:402   */\n  0x00\n    /* \"#utility.yul\":426:490   */\n  tag_24\n    /* \"#utility.yul\":482:489   */\n  dup5\n    /* \"#utility.yul\":473:479   */\n  dup3\n    /* \"#utility.yul\":462:471   */\n  dup6\n    /* \"#utility.yul\":458:480   */\n  add\n    /* \"#utility.yul\":426:490   */\n  tag_16\n  jump\t// in\ntag_24:\n    /* \"#utility.yul\":416:490   */\n  swap2\n  pop\n    /* \"#utility.yul\":372:500   */\n  pop\n    /* \"#utility.yul\":156:507   */\n  swap3\n  swap2\n  pop\n  pop\n  jump\t// out\n    /* \"#utility.yul\":594:690   */\ntag_27:\n    /* \"#utility.yul\":631:638   */\n  0x00\n    /* \"#utility.yul\":660:684   */\n  tag_29\n    /* \"#utility.yul\":678:683   */\n  dup3\n    /* \"#utility.yul\":660:684   */\n  tag_30\n  jump\t// in\ntag_29:\n    /* \"#utility.yul\":649:684   */\n  swap1\n  pop\n    /* \"#utility.yul\":594:690   */\n  swap2\n  swap1\n  pop\n  jump\t// out\n    /* \"#utility.yul\":696:822   */\ntag_30:\n    /* \"#utility.yul\":733:740   */\n  0x00\n    /* \"#utility.yul\":773:815   */\n  0xffffffffffffffffffffffffffffffffffffffff\n    /* \"#utility.yul\":766:771   */\n  dup3\n    /* \"#utility.yul\":762:816   */\n  and\n    /* \"#utility.yul\":751:816   */\n  swap1\n  pop\n    /* \"#utility.yul\":696:822   */\n  swap2\n  swap1\n  pop\n  jump\t// out\n    /* \"#utility.yul\":951:1068   */\ntag_23:\n    /* \"#utility.yul\":1060:1061   */\n  0x00\n    /* \"#utility.yul\":1057:1058   */\n  dup1\n    /* \"#utility.yul\":1050:1062   */\n  revert\n    /* \"#utility.yul\":1074:1196   */\ntag_19:\n    /* \"#utility.yul\":1147:1171   */\n  tag_36\n    /* \"#utility.yul\":1165:1170   */\n  dup2\n    /* \"#utility.yul\":1147:1171   */\n  tag_27\n  jump\t// in\ntag_36:\n    /* \"#utility.yul\":1140:1145   */\n  dup2\n    /* \"#utility.yul\":1137:1172   */\n  eq\n    /* \"#utility.yul\":1127:1190   */\n  tag_37\n  jumpi\n    /* \"#utility.yul\":1186:1187   */\n  0x00\n    /* \"#utility.yul\":1183:1184   */\n  dup1\n    /* \"#utility.yul\":1176:1188   */\n  revert\n    /* \"#utility.yul\":1127:1190   */\ntag_37:\n    /* \"#utility.yul\":1074:1196   */\n  pop\n  jump\t// out\n    /* \"lotto.sol\":595:6110  contract ACELotto is Ownable {   \r... */\ntag_12:\n  dataSize(sub_0)\n  dup1\n  dataOffset(sub_0)\n  0x00\n  codecopy\n  0x00\n  return\nstop\n\nsub_0: assembly {\n        /* \"lotto.sol\":595:6110  contract ACELotto is Ownable {   \r... */\n      mstore(0x40, 0x80)\n      callvalue\n      dup1\n      iszero\n      tag_1\n      jumpi\n      0x00\n      dup1\n      revert\n    tag_1:\n      pop\n      jumpi(tag_2, lt(calldatasize, 0x04))\n      shr(0xe0, calldataload(0x00))\n      dup1\n      0x8da5cb5b\n      gt\n      tag_24\n      jumpi\n      dup1\n      0xb657dd65\n      gt\n      tag_25\n      jumpi\n      dup1\n      0xb657dd65\n      eq\n      tag_18\n      jumpi\n      dup1\n      0xbc15cdf0\n      eq\n      tag_19\n      jumpi\n      dup1\n      0xc4740a95\n      eq\n      tag_20\n      jumpi\n      dup1\n      0xf2fde38b\n      eq\n      tag_21\n      jumpi\n      dup1\n      0xf737d21d\n      eq\n      tag_22\n      jumpi\n      dup1\n      0xf9cee0bd\n      eq\n      tag_23\n      jumpi\n      jump(tag_2)\n    tag_25:\n      dup1\n      0x8da5cb5b\n      eq\n      tag_13\n      jumpi\n      dup1\n      0x9b3e4552\n      eq\n      tag_14\n      jumpi\n      dup1\n      0x9f10a990\n      eq\n      tag_15\n      jumpi\n      dup1\n      0xa59460dc\n      eq\n      tag_16\n      jumpi\n      dup1\n      0xac128f4f\n      eq\n      tag_17\n      jumpi\n      jump(tag_2)\n    tag_24:\n      dup1\n      0x454f7b8f\n      gt\n      tag_26\n      jumpi\n      dup1\n      0x454f7b8f\n      eq\n      tag_8\n      jumpi\n      dup1\n      0x5bedc390\n      eq\n      tag_9\n      jumpi\n      dup1\n      0x6fbb5a86\n      eq\n      tag_10\n      jumpi\n      dup1\n      0x715018a6\n      eq\n      tag_11\n      jumpi\n      dup1\n      0x76636d20\n      eq\n      tag_12\n      jumpi\n      jump(tag_2)\n    tag_26:\n      dup1\n      0x0d988270\n      eq\n      tag_3\n      jumpi\n      dup1\n      0x119b22b3\n      eq\n      tag_4\n      jumpi\n      dup1\n      0x158977de\n      eq\n      tag_5\n      jumpi\n      dup1\n      0x3b98bc65\n      eq\n      tag_6\n      jumpi\n      dup1\n      0x443b80a1\n      eq\n      tag_7\n      jumpi\n    tag_2:\n      0x00\n      dup1\n      revert\n        /* \"lotto.sol\":1057:1106  mapping(address => uint256[]) public entriesIndex */\n    tag_3:\n      tag_27\n      0x04\n      dup1\n      calldatasize\n      sub\n      dup2\n      add\n      swap1\n      tag_28\n      swap2\n      swap1\n      tag_29\n      jump\t// in\n    tag_28:\n      tag_30\n      jump\t// in\n    tag_27:\n      mload(0x40)\n      tag_31\n      swap2\n      swap1\n      tag_32\n      jump\t// in\n    tag_31:\n      mload(0x40)\n      dup1\n      swap2\n      sub\n      swap1\n      return\n        /* \"lotto.sol\":668:691  uint256 public roundNum */\n    tag_4:\n      tag_33\n      tag_34\n      jump\t// in\n    tag_33:\n      mload(0x40)\n      tag_35\n      swap2\n      swap1\n      tag_32\n      jump\t// in\n    tag_35:\n      mload(0x40)\n      dup1\n      swap2\n      sub\n      swap1\n      return\n        /* \"lotto.sol\":4791:5071  function getUniqueUsers() public view returns (uint256 counter) {\r... */\n    tag_5:\n      tag_36\n      tag_37\n      jump\t// in\n    tag_36:\n      mload(0x40)\n      tag_38\n      swap2\n      swap1\n      tag_32\n      jump\t// in\n    tag_38:\n      mload(0x40)\n      dup1\n      swap2\n      sub\n      swap1\n      return\n        /* \"lotto.sol\":5079:5682  function getUniqueAddresses() public view returns (address [] memory addresses, uint256 [] memory entries) {\r... */\n    tag_6:\n      tag_39\n      tag_40\n      jump\t// in\n    tag_39:\n      mload(0x40)\n      tag_41\n      swap3\n      swap2\n      swap1\n      tag_42\n      jump\t// in\n    tag_41:\n      mload(0x40)\n      dup1\n      swap2\n      sub\n      swap1\n      return\n        /* \"lotto.sol\":1250:1522  function updateAccount(address account, uint256 amount) external{\r... */\n    tag_7:\n      tag_43\n      0x04\n      dup1\n      calldatasize\n      sub\n      dup2\n      add\n      swap1\n      tag_44\n      swap2\n      swap1\n      tag_29\n      jump\t// in\n    tag_44:\n      tag_45\n      jump\t// in\n    tag_43:\n      stop\n        /* \"lotto.sol\":698:724  uint256 public totalPayout */\n    tag_8:\n      tag_46\n      tag_47\n      jump\t// in\n    tag_46:\n      mload(0x40)\n      tag_48\n      swap2\n      swap1\n      tag_32\n      jump\t// in\n    tag_48:\n      mload(0x40)\n      dup1\n      swap2\n      sub\n      swap1\n      return\n        /* \"lotto.sol\":2293:2462  function isActiveAccount(address account) external view returns(bool){\r... */\n    tag_9:\n      tag_49\n      0x04\n      dup1\n      calldatasize\n      sub\n      dup2\n      add\n      swap1\n      tag_50\n      swap2\n      swap1\n      tag_51\n      jump\t// in\n    tag_50:\n      tag_52\n      jump\t// in\n    tag_49:\n      mload(0x40)\n      tag_53\n      swap2\n      swap1\n      tag_54\n      jump\t// in\n    tag_53:\n      mload(0x40)\n      dup1\n      swap2\n      sub\n      swap1\n      return\n        /* \"lotto.sol\":3427:3931  function updateWinner(uint256 winnerNum, uint256 payout) external onlyOwner {      \r... */\n    tag_10:\n      tag_55\n      0x04\n      dup1\n      calldatasize\n      sub\n      dup2\n      add\n      swap1\n      tag_56\n      swap2\n      swap1\n      tag_57\n      jump\t// in\n    tag_56:\n      tag_58\n      jump\t// in\n    tag_55:\n      stop\n        /* \"https://github.com/OpenZeppelin/openzeppelin-contracts/blob/master/contracts/access/Ownable.sol\":1668:1769  function renounceOwnership() public virtual onlyOwner {... */\n    tag_11:\n      tag_59\n      tag_60\n      jump\t// in\n    tag_59:\n      stop\n        /* \"lotto.sol\":634:661  uint256 public roundEntries */\n    tag_12:\n      tag_61\n      tag_62\n      jump\t// in\n    tag_61:\n      mload(0x40)\n      tag_63\n      swap2\n      swap1\n      tag_32\n      jump\t// in\n    tag_63:\n      mload(0x40)\n      dup1\n      swap2\n      sub\n      swap1\n      return\n        /* \"https://github.com/OpenZeppelin/openzeppelin-contracts/blob/master/contracts/access/Ownable.sol\":1036:1121  function owner() public view virtual returns (address) {... */\n    tag_13:\n      tag_64\n      tag_65\n      jump\t// in\n    tag_64:\n      mload(0x40)\n      tag_66\n      swap2\n      swap1\n      tag_67\n      jump\t// in\n    tag_66:\n      mload(0x40)\n      dup1\n      swap2\n      sub\n      swap1\n      return\n        /* \"lotto.sol\":737:760  IERC20 public acesToken */\n    tag_14:\n      tag_68\n      tag_69\n      jump\t// in\n    tag_68:\n      mload(0x40)\n      tag_70\n      swap2\n      swap1\n      tag_71\n      jump\t// in\n    tag_70:\n      mload(0x40)\n      dup1\n      swap2\n      sub\n      swap1\n      return\n        /* \"lotto.sol\":4063:4185  function userEntries(address account) public view returns (uint256) {\r... */\n    tag_15:\n      tag_72\n      0x04\n      dup1\n      calldatasize\n      sub\n      dup2\n      add\n      swap1\n      tag_73\n      swap2\n      swap1\n      tag_51\n      jump\t// in\n    tag_73:\n      tag_74\n      jump\t// in\n    tag_72:\n      mload(0x40)\n      tag_75\n      swap2\n      swap1\n      tag_32\n      jump\t// in\n    tag_75:\n      mload(0x40)\n      dup1\n      swap2\n      sub\n      swap1\n      return\n        /* \"lotto.sol\":1530:2108  function removeEntryFromWallet(address account, uint256 amount) public {\r... */\n    tag_16:\n      tag_76\n      0x04\n      dup1\n      calldatasize\n      sub\n      dup2\n      add\n      swap1\n      tag_77\n      swap2\n      swap1\n      tag_29\n      jump\t// in\n    tag_77:\n      tag_78\n      jump\t// in\n    tag_76:\n      stop\n        /* \"lotto.sol\":951:998  mapping(uint256 => Results) public roundResults */\n    tag_17:\n      tag_79\n      0x04\n      dup1\n      calldatasize\n      sub\n      dup2\n      add\n      swap1\n      tag_80\n      swap2\n      swap1\n      tag_81\n      jump\t// in\n    tag_80:\n      tag_82\n      jump\t// in\n    tag_79:\n      mload(0x40)\n      tag_83\n      swap6\n      swap5\n      swap4\n      swap3\n      swap2\n      swap1\n      tag_84\n      jump\t// in\n    tag_83:\n      mload(0x40)\n      dup1\n      swap2\n      sub\n      swap1\n      return\n        /* \"lotto.sol\":1005:1050  mapping(uint256 => address) public roundEntry */\n    tag_18:\n      tag_85\n      0x04\n      dup1\n      calldatasize\n      sub\n      dup2\n      add\n      swap1\n      tag_86\n      swap2\n      swap1\n      tag_81\n      jump\t// in\n    tag_86:\n      tag_87\n      jump\t// in\n    tag_85:\n      mload(0x40)\n      tag_88\n      swap2\n      swap1\n      tag_67\n      jump\t// in\n    tag_88:\n      mload(0x40)\n      dup1\n      swap2\n      sub\n      swap1\n      return\n        /* \"lotto.sol\":4193:4783  function resultLog(uint256 startIndex, uint256 endIndex) external view returns(Results [] memory log){\r... */\n    tag_19:\n      tag_89\n      0x04\n      dup1\n      calldatasize\n      sub\n      dup2\n      add\n      swap1\n      tag_90\n      swap2\n      swap1\n      tag_57\n      jump\t// in\n    tag_90:\n      tag_91\n      jump\t// in\n    tag_89:\n      mload(0x40)\n      tag_92\n      swap2\n      swap1\n      tag_93\n      jump\t// in\n    tag_92:\n      mload(0x40)\n      dup1\n      swap2\n      sub\n      swap1\n      return\n        /* \"lotto.sol\":2116:2285  function removeAccount(address account) external{\r... */\n    tag_20:\n      tag_94\n      0x04\n      dup1\n      calldatasize\n      sub\n      dup2\n      add\n      swap1\n      tag_95\n      swap2\n      swap1\n      tag_51\n      jump\t// in\n    tag_95:\n      tag_96\n      jump\t// in\n    tag_94:\n      stop\n        /* \"https://github.com/OpenZeppelin/openzeppelin-contracts/blob/master/contracts/access/Ownable.sol\":1918:2116  function transferOwnership(address newOwner) public virtual onlyOwner {... */\n    tag_21:\n      tag_97\n      0x04\n      dup1\n      calldatasize\n      sub\n      dup2\n      add\n      swap1\n      tag_98\n      swap2\n      swap1\n      tag_51\n      jump\t// in\n    tag_98:\n      tag_99\n      jump\t// in\n    tag_97:\n      stop\n        /* \"lotto.sol\":3215:3419  function pickWinner(uint256 seed) external view returns(uint256 winnerNum, address winnerAddress) {\r... */\n    tag_22:\n      tag_100\n      0x04\n      dup1\n      calldatasize\n      sub\n      dup2\n      add\n      swap1\n      tag_101\n      swap2\n      swap1\n      tag_81\n      jump\t// in\n    tag_101:\n      tag_102\n      jump\t// in\n    tag_100:\n      mload(0x40)\n      tag_103\n      swap3\n      swap2\n      swap1\n      tag_104\n      jump\t// in\n    tag_103:\n      mload(0x40)\n      dup1\n      swap2\n      sub\n      swap1\n      return\n        /* \"lotto.sol\":3939:4055  function currentJackpot() public view returns (uint256) {\r... */\n    tag_23:\n      tag_105\n      tag_106\n      jump\t// in\n    tag_105:\n      mload(0x40)\n      tag_107\n      swap2\n      swap1\n      tag_32\n      jump\t// in\n    tag_107:\n      mload(0x40)\n      dup1\n      swap2\n      sub\n      swap1\n      return\n        /* \"lotto.sol\":1057:1106  mapping(address => uint256[]) public entriesIndex */\n    tag_30:\n      mstore(0x20, 0x07)\n      dup2\n      0x00\n      mstore\n      keccak256(0x00, 0x40)\n      dup2\n      dup2\n      sload\n      dup2\n      lt\n      tag_108\n      jumpi\n      0x00\n      dup1\n      revert\n    tag_108:\n      swap1\n      0x00\n      mstore\n      keccak256(0x00, 0x20)\n      add\n      0x00\n      swap2\n      pop\n      swap2\n      pop\n      pop\n      sload\n      dup2\n      jump\t// out\n        /* \"lotto.sol\":668:691  uint256 public roundNum */\n    tag_34:\n      sload(0x02)\n      dup2\n      jump\t// out\n        /* \"lotto.sol\":4791:5071  function getUniqueUsers() public view returns (uint256 counter) {\r... */\n    tag_37:\n        /* \"lotto.sol\":4838:4853  uint256 counter */\n      0x00\n        /* \"lotto.sol\":4888:4897  uint256 i */\n      dup1\n        /* \"lotto.sol\":4884:5064  for(uint256 i; i < roundEntries; i++){\r... */\n    tag_111:\n        /* \"lotto.sol\":4903:4915  roundEntries */\n      sload(0x01)\n        /* \"lotto.sol\":4899:4900  i */\n      dup2\n        /* \"lotto.sol\":4899:4915  i < roundEntries */\n      lt\n        /* \"lotto.sol\":4884:5064  for(uint256 i; i < roundEntries; i++){\r... */\n      iszero\n      tag_112\n      jumpi\n        /* \"lotto.sol\":4936:4948  address user */\n      0x00\n        /* \"lotto.sol\":4951:4961  roundEntry */\n      0x06\n        /* \"lotto.sol\":4951:4964  roundEntry[i] */\n      0x00\n        /* \"lotto.sol\":4962:4963  i */\n      dup4\n        /* \"lotto.sol\":4951:4964  roundEntry[i] */\n      dup2\n      mstore\n      0x20\n      add\n      swap1\n      dup2\n      mstore\n      0x20\n      add\n      0x00\n      keccak256\n      0x00\n      swap1\n      sload\n      swap1\n      0x0100\n      exp\n      swap1\n      div\n      0xffffffffffffffffffffffffffffffffffffffff\n      and\n        /* \"lotto.sol\":4936:4964  address user = roundEntry[i] */\n      swap1\n      pop\n        /* \"lotto.sol\":4987:4999  entriesIndex */\n      0x07\n        /* \"lotto.sol\":4987:5005  entriesIndex[user] */\n      0x00\n        /* \"lotto.sol\":5000:5004  user */\n      dup3\n        /* \"lotto.sol\":4987:5005  entriesIndex[user] */\n      0xffffffffffffffffffffffffffffffffffffffff\n      and\n      0xffffffffffffffffffffffffffffffffffffffff\n      and\n      dup2\n      mstore\n      0x20\n      add\n      swap1\n      dup2\n      mstore\n      0x20\n      add\n      0x00\n      keccak256\n        /* \"lotto.sol\":5006:5007  0 */\n      0x00\n        /* \"lotto.sol\":4987:5008  entriesIndex[user][0] */\n      dup2\n      sload\n      dup2\n      lt\n      tag_114\n      jumpi\n      tag_115\n      tag_116\n      jump\t// in\n    tag_115:\n    tag_114:\n      swap1\n      0x00\n      mstore\n      keccak256(0x00, 0x20)\n      add\n      sload\n        /* \"lotto.sol\":4982:4983  i */\n      dup3\n        /* \"lotto.sol\":4982:5008  i == entriesIndex[user][0] */\n      eq\n        /* \"lotto.sol\":4979:5053  if(i == entriesIndex[user][0]){\r... */\n      iszero\n      tag_118\n      jumpi\n        /* \"lotto.sol\":5028:5037  counter++ */\n      dup3\n      dup1\n      tag_119\n      swap1\n      tag_120\n      jump\t// in\n    tag_119:\n      swap4\n      pop\n      pop\n        /* \"lotto.sol\":4979:5053  if(i == entriesIndex[user][0]){\r... */\n    tag_118:\n        /* \"lotto.sol\":4921:5064  {\r... */\n      pop\n        /* \"lotto.sol\":4917:4920  i++ */\n      dup1\n      dup1\n      tag_121\n      swap1\n      tag_120\n      jump\t// in\n    tag_121:\n      swap2\n      pop\n      pop\n        /* \"lotto.sol\":4884:5064  for(uint256 i; i < roundEntries; i++){\r... */\n      jump(tag_111)\n    tag_112:\n      pop\n        /* \"lotto.sol\":4791:5071  function getUniqueUsers() public view returns (uint256 counter) {\r... */\n      swap1\n      jump\t// out\n        /* \"lotto.sol\":5079:5682  function getUniqueAddresses() public view returns (address [] memory addresses, uint256 [] memory entries) {\r... */\n    tag_40:\n        /* \"lotto.sol\":5130:5157  address [] memory addresses */\n      0x60\n        /* \"lotto.sol\":5159:5184  uint256 [] memory entries */\n      dup1\n        /* \"lotto.sol\":5197:5216  uint256 arrayLength */\n      0x00\n        /* \"lotto.sol\":5219:5235  getUniqueUsers() */\n      tag_123\n        /* \"lotto.sol\":5219:5233  getUniqueUsers */\n      tag_37\n        /* \"lotto.sol\":5219:5235  getUniqueUsers() */\n      jump\t// in\n    tag_123:\n        /* \"lotto.sol\":5197:5235  uint256 arrayLength = getUniqueUsers() */\n      swap1\n      pop\n        /* \"lotto.sol\":5272:5283  arrayLength */\n      dup1\n        /* \"lotto.sol\":5258:5284  new address[](arrayLength) */\n      0xffffffffffffffff\n      dup2\n      gt\n      iszero\n      tag_124\n      jumpi\n      tag_125\n      tag_126\n      jump\t// in\n    tag_125:\n    tag_124:\n      mload(0x40)\n      swap1\n      dup1\n      dup3\n      mstore\n      dup1\n      0x20\n      mul\n      0x20\n      add\n      dup3\n      add\n      0x40\n      mstore\n      dup1\n      iszero\n      tag_127\n      jumpi\n      dup2\n      0x20\n      add\n      0x20\n      dup3\n      mul\n      dup1\n      calldatasize\n      dup4\n      calldatacopy\n      dup1\n      dup3\n      add\n      swap2\n      pop\n      pop\n      swap1\n      pop\n    tag_127:\n      pop\n        /* \"lotto.sol\":5246:5284  addresses = new address[](arrayLength) */\n      swap3\n      pop\n        /* \"lotto.sol\":5319:5330  arrayLength */\n      dup1\n        /* \"lotto.sol\":5305:5331  new uint256[](arrayLength) */\n      0xffffffffffffffff\n      dup2\n      gt\n      iszero\n      tag_128\n      jumpi\n      tag_129\n      tag_126\n      jump\t// in\n    tag_129:\n    tag_128:\n      mload(0x40)\n      swap1\n      dup1\n      dup3\n      mstore\n      dup1\n      0x20\n      mul\n      0x20\n      add\n      dup3\n      add\n      0x40\n      mstore\n      dup1\n      iszero\n      tag_130\n      jumpi\n      dup2\n      0x20\n      add\n      0x20\n      dup3\n      mul\n      dup1\n      calldatasize\n      dup4\n      calldatacopy\n      dup1\n      dup3\n      add\n      swap2\n      pop\n      pop\n      swap1\n      pop\n    tag_130:\n      pop\n        /* \"lotto.sol\":5295:5331  entries = new uint256[](arrayLength) */\n      swap2\n      pop\n        /* \"lotto.sol\":5342:5362  uint256 currentIndex */\n      0x00\n        /* \"lotto.sol\":5377:5386  uint256 i */\n      dup1\n        /* \"lotto.sol\":5373:5675  for(uint256 i; i < roundEntries; i++){\r... */\n    tag_131:\n        /* \"lotto.sol\":5392:5404  roundEntries */\n      sload(0x01)\n        /* \"lotto.sol\":5388:5389  i */\n      dup2\n        /* \"lotto.sol\":5388:5404  i < roundEntries */\n      lt\n        /* \"lotto.sol\":5373:5675  for(uint256 i; i < roundEntries; i++){\r... */\n      iszero\n      tag_132\n      jumpi\n        /* \"lotto.sol\":5425:5437  address user */\n      0x00\n        /* \"lotto.sol\":5440:5450  roundEntry */\n      0x06\n        /* \"lotto.sol\":5440:5453  roundEntry[i] */\n      0x00\n        /* \"lotto.sol\":5451:5452  i */\n      dup4\n        /* \"lotto.sol\":5440:5453  roundEntry[i] */\n      dup2\n      mstore\n      0x20\n      add\n      swap1\n      dup2\n      mstore\n      0x20\n      add\n      0x00\n      keccak256\n      0x00\n      swap1\n      sload\n      swap1\n      0x0100\n      exp\n      swap1\n      div\n      0xffffffffffffffffffffffffffffffffffffffff\n      and\n        /* \"lotto.sol\":5425:5453  address user = roundEntry[i] */\n      swap1\n      pop\n        /* \"lotto.sol\":5476:5488  entriesIndex */\n      0x07\n        /* \"lotto.sol\":5476:5494  entriesIndex[user] */\n      0x00\n        /* \"lotto.sol\":5489:5493  user */\n      dup3\n        /* \"lotto.sol\":5476:5494  entriesIndex[user] */\n      0xffffffffffffffffffffffffffffffffffffffff\n      and\n      0xffffffffffffffffffffffffffffffffffffffff\n      and\n      dup2\n      mstore\n      0x20\n      add\n      swap1\n      dup2\n      mstore\n      0x20\n      add\n      0x00\n      keccak256\n        /* \"lotto.sol\":5495:5496  0 */\n      0x00\n        /* \"lotto.sol\":5476:5497  entriesIndex[user][0] */\n      dup2\n      sload\n      dup2\n      lt\n      tag_134\n      jumpi\n      tag_135\n      tag_116\n      jump\t// in\n    tag_135:\n    tag_134:\n      swap1\n      0x00\n      mstore\n      keccak256(0x00, 0x20)\n      add\n      sload\n        /* \"lotto.sol\":5471:5472  i */\n      dup3\n        /* \"lotto.sol\":5471:5497  i == entriesIndex[user][0] */\n      eq\n        /* \"lotto.sol\":5468:5664  if(i == entriesIndex[user][0]){\r... */\n      iszero\n      tag_137\n      jumpi\n        /* \"lotto.sol\":5543:5547  user */\n      dup1\n        /* \"lotto.sol\":5517:5526  addresses */\n      dup7\n        /* \"lotto.sol\":5527:5539  currentIndex */\n      dup5\n        /* \"lotto.sol\":5517:5540  addresses[currentIndex] */\n      dup2\n      mload\n      dup2\n      lt\n      tag_138\n      jumpi\n      tag_139\n      tag_116\n      jump\t// in\n    tag_139:\n    tag_138:\n      0x20\n      mul\n      0x20\n      add\n      add\n        /* \"lotto.sol\":5517:5547  addresses[currentIndex] = user */\n      swap1\n      0xffffffffffffffffffffffffffffffffffffffff\n      and\n      swap1\n      dup2\n      0xffffffffffffffffffffffffffffffffffffffff\n      and\n      dup2\n      mstore\n      pop\n      pop\n        /* \"lotto.sol\":5590:5602  entriesIndex */\n      0x07\n        /* \"lotto.sol\":5590:5608  entriesIndex[user] */\n      0x00\n        /* \"lotto.sol\":5603:5607  user */\n      dup3\n        /* \"lotto.sol\":5590:5608  entriesIndex[user] */\n      0xffffffffffffffffffffffffffffffffffffffff\n      and\n      0xffffffffffffffffffffffffffffffffffffffff\n      and\n      dup2\n      mstore\n      0x20\n      add\n      swap1\n      dup2\n      mstore\n      0x20\n      add\n      0x00\n      keccak256\n        /* \"lotto.sol\":5590:5615  entriesIndex[user].length */\n      dup1\n      sload\n      swap1\n      pop\n        /* \"lotto.sol\":5566:5573  entries */\n      dup6\n        /* \"lotto.sol\":5574:5586  currentIndex */\n      dup5\n        /* \"lotto.sol\":5566:5587  entries[currentIndex] */\n      dup2\n      mload\n      dup2\n      lt\n      tag_140\n      jumpi\n      tag_141\n      tag_116\n      jump\t// in\n    tag_141:\n    tag_140:\n      0x20\n      mul\n      0x20\n      add\n      add\n        /* \"lotto.sol\":5566:5615  entries[currentIndex] = entriesIndex[user].length */\n      dup2\n      dup2\n      mstore\n      pop\n      pop\n        /* \"lotto.sol\":5634:5648  currentIndex++ */\n      dup3\n      dup1\n      tag_142\n      swap1\n      tag_120\n      jump\t// in\n    tag_142:\n      swap4\n      pop\n      pop\n        /* \"lotto.sol\":5468:5664  if(i == entriesIndex[user][0]){\r... */\n    tag_137:\n        /* \"lotto.sol\":5410:5675  {\r... */\n      pop\n        /* \"lotto.sol\":5406:5409  i++ */\n      dup1\n      dup1\n      tag_143\n      swap1\n      tag_120\n      jump\t// in\n    tag_143:\n      swap2\n      pop\n      pop\n        /* \"lotto.sol\":5373:5675  for(uint256 i; i < roundEntries; i++){\r... */\n      jump(tag_131)\n    tag_132:\n      pop\n        /* \"lotto.sol\":5186:5682  {\r... */\n      pop\n      pop\n        /* \"lotto.sol\":5079:5682  function getUniqueAddresses() public view returns (address [] memory addresses, uint256 [] memory entries) {\r... */\n      swap1\n      swap2\n      jump\t// out\n        /* \"lotto.sol\":1250:1522  function updateAccount(address account, uint256 amount) external{\r... */\n    tag_45:\n        /* \"lotto.sol\":1329:1338  uint256 i */\n      0x00\n        /* \"lotto.sol\":1325:1480  for(uint256 i; i < amount; i++){\r... */\n    tag_145:\n        /* \"lotto.sol\":1344:1350  amount */\n      dup2\n        /* \"lotto.sol\":1340:1341  i */\n      dup2\n        /* \"lotto.sol\":1340:1350  i < amount */\n      lt\n        /* \"lotto.sol\":1325:1480  for(uint256 i; i < amount; i++){\r... */\n      iszero\n      tag_146\n      jumpi\n        /* \"lotto.sol\":1402:1409  account */\n      dup3\n        /* \"lotto.sol\":1371:1381  roundEntry */\n      0x06\n        /* \"lotto.sol\":1371:1399  roundEntry[roundEntries + i] */\n      0x00\n        /* \"lotto.sol\":1397:1398  i */\n      dup4\n        /* \"lotto.sol\":1382:1394  roundEntries */\n      sload(0x01)\n        /* \"lotto.sol\":1382:1398  roundEntries + i */\n      tag_148\n      swap2\n      swap1\n      tag_149\n      jump\t// in\n    tag_148:\n        /* \"lotto.sol\":1371:1399  roundEntry[roundEntries + i] */\n      dup2\n      mstore\n      0x20\n      add\n      swap1\n      dup2\n      mstore\n      0x20\n      add\n      0x00\n      keccak256\n      0x00\n        /* \"lotto.sol\":1371:1409  roundEntry[roundEntries + i] = account */\n      0x0100\n      exp\n      dup2\n      sload\n      dup2\n      0xffffffffffffffffffffffffffffffffffffffff\n      mul\n      not\n      and\n      swap1\n      dup4\n      0xffffffffffffffffffffffffffffffffffffffff\n      and\n      mul\n      or\n      swap1\n      sstore\n      pop\n        /* \"lotto.sol\":1424:1436  entriesIndex */\n      0x07\n        /* \"lotto.sol\":1424:1445  entriesIndex[account] */\n      0x00\n        /* \"lotto.sol\":1437:1444  account */\n      dup5\n        /* \"lotto.sol\":1424:1445  entriesIndex[account] */\n      0xffffffffffffffffffffffffffffffffffffffff\n      and\n      0xffffffffffffffffffffffffffffffffffffffff\n      and\n      dup2\n      mstore\n      0x20\n      add\n      swap1\n      dup2\n      mstore\n      0x20\n      add\n      0x00\n      keccak256\n        /* \"lotto.sol\":1466:1467  i */\n      dup2\n        /* \"lotto.sol\":1451:1463  roundEntries */\n      sload(0x01)\n        /* \"lotto.sol\":1451:1467  roundEntries + i */\n      tag_150\n      swap2\n      swap1\n      tag_149\n      jump\t// in\n    tag_150:\n        /* \"lotto.sol\":1424:1468  entriesIndex[account].push(roundEntries + i) */\n      swap1\n      dup1\n      0x01\n      dup2\n      sload\n      add\n      dup1\n      dup3\n      sstore\n      dup1\n      swap2\n      pop\n      pop\n      0x01\n      swap1\n      sub\n      swap1\n      0x00\n      mstore\n      keccak256(0x00, 0x20)\n      add\n      0x00\n      swap1\n      swap2\n      swap1\n      swap2\n      swap1\n      swap2\n      pop\n      sstore\n        /* \"lotto.sol\":1352:1355  i++ */\n      dup1\n      dup1\n      tag_152\n      swap1\n      tag_120\n      jump\t// in\n    tag_152:\n      swap2\n      pop\n      pop\n        /* \"lotto.sol\":1325:1480  for(uint256 i; i < amount; i++){\r... */\n      jump(tag_145)\n    tag_146:\n      pop\n        /* \"lotto.sol\":1508:1514  amount */\n      dup1\n        /* \"lotto.sol\":1492:1504  roundEntries */\n      0x01\n      0x00\n        /* \"lotto.sol\":1492:1514  roundEntries += amount */\n      dup3\n      dup3\n      sload\n      tag_153\n      swap2\n      swap1\n      tag_149\n      jump\t// in\n    tag_153:\n      swap3\n      pop\n      pop\n      dup2\n      swap1\n      sstore\n      pop\n        /* \"lotto.sol\":1250:1522  function updateAccount(address account, uint256 amount) external{\r... */\n      pop\n      pop\n      jump\t// out\n        /* \"lotto.sol\":698:724  uint256 public totalPayout */\n    tag_47:\n      sload(0x03)\n      dup2\n      jump\t// out\n        /* \"lotto.sol\":2293:2462  function isActiveAccount(address account) external view returns(bool){\r... */\n    tag_52:\n        /* \"lotto.sol\":2357:2361  bool */\n      0x00\n        /* \"lotto.sol\":2373:2395  uint256 currentEntries */\n      dup1\n        /* \"lotto.sol\":2398:2418  userEntries(account) */\n      tag_155\n        /* \"lotto.sol\":2410:2417  account */\n      dup4\n        /* \"lotto.sol\":2398:2409  userEntries */\n      tag_74\n        /* \"lotto.sol\":2398:2418  userEntries(account) */\n      jump\t// in\n    tag_155:\n        /* \"lotto.sol\":2373:2418  uint256 currentEntries = userEntries(account) */\n      swap1\n      pop\n        /* \"lotto.sol\":2453:2454  0 */\n      0x00\n        /* \"lotto.sol\":2436:2450  currentEntries */\n      dup2\n        /* \"lotto.sol\":2436:2454  currentEntries > 0 */\n      gt\n        /* \"lotto.sol\":2429:2454  return currentEntries > 0 */\n      swap2\n      pop\n      pop\n        /* \"lotto.sol\":2293:2462  function isActiveAccount(address account) external view returns(bool){\r... */\n      swap2\n      swap1\n      pop\n      jump\t// out\n        /* \"lotto.sol\":3427:3931  function updateWinner(uint256 winnerNum, uint256 payout) external onlyOwner {      \r... */\n    tag_58:\n        /* \"https://github.com/OpenZeppelin/openzeppelin-contracts/blob/master/contracts/access/Ownable.sol\":1259:1271  _msgSender() */\n      tag_157\n        /* \"https://github.com/OpenZeppelin/openzeppelin-contracts/blob/master/contracts/access/Ownable.sol\":1259:1269  _msgSender */\n      tag_158\n        /* \"https://github.com/OpenZeppelin/openzeppelin-contracts/blob/master/contracts/access/Ownable.sol\":1259:1271  _msgSender() */\n      jump\t// in\n    tag_157:\n        /* \"https://github.com/OpenZeppelin/openzeppelin-contracts/blob/master/contracts/access/Ownable.sol\":1248:1271  owner() == _msgSender() */\n      0xffffffffffffffffffffffffffffffffffffffff\n      and\n        /* \"https://github.com/OpenZeppelin/openzeppelin-contracts/blob/master/contracts/access/Ownable.sol\":1248:1255  owner() */\n      tag_159\n        /* \"https://github.com/OpenZeppelin/openzeppelin-contracts/blob/master/contracts/access/Ownable.sol\":1248:1253  owner */\n      tag_65\n        /* \"https://github.com/OpenZeppelin/openzeppelin-contracts/blob/master/contracts/access/Ownable.sol\":1248:1255  owner() */\n      jump\t// in\n    tag_159:\n        /* \"https://github.com/OpenZeppelin/openzeppelin-contracts/blob/master/contracts/access/Ownable.sol\":1248:1271  owner() == _msgSender() */\n      0xffffffffffffffffffffffffffffffffffffffff\n      and\n      eq\n        /* \"https://github.com/OpenZeppelin/openzeppelin-contracts/blob/master/contracts/access/Ownable.sol\":1240:1308  require(owner() == _msgSender(), \"Ownable: caller is not the owner\") */\n      tag_160\n      jumpi\n      mload(0x40)\n      0x08c379a000000000000000000000000000000000000000000000000000000000\n      dup2\n      mstore\n      0x04\n      add\n      tag_161\n      swap1\n      tag_162\n      jump\t// in\n    tag_161:\n      mload(0x40)\n      dup1\n      swap2\n      sub\n      swap1\n      revert\n    tag_160:\n        /* \"lotto.sol\":3520:3541  address winnerAddress */\n      0x00\n        /* \"lotto.sol\":3544:3554  roundEntry */\n      0x06\n        /* \"lotto.sol\":3544:3565  roundEntry[winnerNum] */\n      0x00\n        /* \"lotto.sol\":3555:3564  winnerNum */\n      dup5\n        /* \"lotto.sol\":3544:3565  roundEntry[winnerNum] */\n      dup2\n      mstore\n      0x20\n      add\n      swap1\n      dup2\n      mstore\n      0x20\n      add\n      0x00\n      keccak256\n      0x00\n      swap1\n      sload\n      swap1\n      0x0100\n      exp\n      swap1\n      div\n      0xffffffffffffffffffffffffffffffffffffffff\n      and\n        /* \"lotto.sol\":3520:3565  address winnerAddress = roundEntry[winnerNum] */\n      swap1\n      pop\n        /* \"lotto.sol\":3603:3817  Results ({\r... */\n      mload(0x40)\n      dup1\n      0xa0\n      add\n      0x40\n      mstore\n      dup1\n        /* \"lotto.sol\":3641:3653  roundEntries */\n      sload(0x01)\n        /* \"lotto.sol\":3603:3817  Results ({\r... */\n      dup2\n      mstore\n      0x20\n      add\n        /* \"lotto.sol\":3683:3692  winnerNum */\n      dup5\n        /* \"lotto.sol\":3603:3817  Results ({\r... */\n      dup2\n      mstore\n      0x20\n      add\n        /* \"lotto.sol\":3715:3721  payout */\n      dup4\n        /* \"lotto.sol\":3603:3817  Results ({\r... */\n      dup2\n      mstore\n      0x20\n      add\n        /* \"lotto.sol\":3745:3760  block.timestamp */\n      timestamp\n        /* \"lotto.sol\":3603:3817  Results ({\r... */\n      dup2\n      mstore\n      0x20\n      add\n        /* \"lotto.sol\":3791:3804  winnerAddress */\n      dup3\n        /* \"lotto.sol\":3603:3817  Results ({\r... */\n      0xffffffffffffffffffffffffffffffffffffffff\n      and\n      dup2\n      mstore\n      pop\n        /* \"lotto.sol\":3578:3590  roundResults */\n      0x05\n        /* \"lotto.sol\":3578:3600  roundResults[roundNum] */\n      0x00\n        /* \"lotto.sol\":3591:3599  roundNum */\n      sload(0x02)\n        /* \"lotto.sol\":3578:3600  roundResults[roundNum] */\n      dup2\n      mstore\n      0x20\n      add\n      swap1\n      dup2\n      mstore\n      0x20\n      add\n      0x00\n      keccak256\n        /* \"lotto.sol\":3578:3817  roundResults[roundNum] = Results ({\r... */\n      0x00\n      dup3\n      add\n      mload\n      dup2\n      0x00\n      add\n      sstore\n      0x20\n      dup3\n      add\n      mload\n      dup2\n      0x01\n      add\n      sstore\n      0x40\n      dup3\n      add\n      mload\n      dup2\n      0x02\n      add\n      sstore\n      0x60\n      dup3\n      add\n      mload\n      dup2\n      0x03\n      add\n      sstore\n      0x80\n      dup3\n      add\n      mload\n      dup2\n      0x04\n      add\n      exp(0x0100, 0x00)\n      dup2\n      sload\n      dup2\n      0xffffffffffffffffffffffffffffffffffffffff\n      mul\n      not\n      and\n      swap1\n      dup4\n      0xffffffffffffffffffffffffffffffffffffffff\n      and\n      mul\n      or\n      swap1\n      sstore\n      pop\n      swap1\n      pop\n      pop\n        /* \"lotto.sol\":3845:3851  payout */\n      dup2\n        /* \"lotto.sol\":3830:3841  totalPayout */\n      0x03\n      0x00\n        /* \"lotto.sol\":3830:3851  totalPayout += payout */\n      dup3\n      dup3\n      sload\n      tag_164\n      swap2\n      swap1\n      tag_149\n      jump\t// in\n    tag_164:\n      swap3\n      pop\n      pop\n      dup2\n      swap1\n      sstore\n      pop\n        /* \"lotto.sol\":3862:3870  roundNum */\n      0x02\n      0x00\n        /* \"lotto.sol\":3862:3872  roundNum++ */\n      dup2\n      sload\n      dup1\n      swap3\n      swap2\n      swap1\n      tag_165\n      swap1\n      tag_120\n      jump\t// in\n    tag_165:\n      swap2\n      swap1\n      pop\n      sstore\n      pop\n        /* \"lotto.sol\":3890:3923  LotteryWon(winnerAddress, payout) */\n      0x2e798dd4337e515c79b64c40e1a93baa1aefbd9180ac7905e02508edd7971e50\n        /* \"lotto.sol\":3901:3914  winnerAddress */\n      dup2\n        /* \"lotto.sol\":3916:3922  payout */\n      dup4\n        /* \"lotto.sol\":3890:3923  LotteryWon(winnerAddress, payout) */\n      mload(0x40)\n      tag_166\n      swap3\n      swap2\n      swap1\n      tag_167\n      jump\t// in\n    tag_166:\n      mload(0x40)\n      dup1\n      swap2\n      sub\n      swap1\n      log1\n        /* \"lotto.sol\":3503:3931  {      \r... */\n      pop\n        /* \"lotto.sol\":3427:3931  function updateWinner(uint256 winnerNum, uint256 payout) external onlyOwner {      \r... */\n      pop\n      pop\n      jump\t// out\n        /* \"https://github.com/OpenZeppelin/openzeppelin-contracts/blob/master/contracts/access/Ownable.sol\":1668:1769  function renounceOwnership() public virtual onlyOwner {... */\n    tag_60:\n        /* \"https://github.com/OpenZeppelin/openzeppelin-contracts/blob/master/contracts/access/Ownable.sol\":1259:1271  _msgSender() */\n      tag_169\n        /* \"https://github.com/OpenZeppelin/openzeppelin-contracts/blob/master/contracts/access/Ownable.sol\":1259:1269  _msgSender */\n      tag_158\n        /* \"https://github.com/OpenZeppelin/openzeppelin-contracts/blob/master/contracts/access/Ownable.sol\":1259:1271  _msgSender() */\n      jump\t// in\n    tag_169:\n        /* \"https://github.com/OpenZeppelin/openzeppelin-contracts/blob/master/contracts/access/Ownable.sol\":1248:1271  owner() == _msgSender() */\n      0xffffffffffffffffffffffffffffffffffffffff\n      and\n        /* \"https://github.com/OpenZeppelin/openzeppelin-contracts/blob/master/contracts/access/Ownable.sol\":1248:1255  owner() */\n      tag_170\n        /* \"https://github.com/OpenZeppelin/openzeppelin-contracts/blob/master/contracts/access/Ownable.sol\":1248:1253  owner */\n      tag_65\n        /* \"https://github.com/OpenZeppelin/openzeppelin-contracts/blob/master/contracts/access/Ownable.sol\":1248:1255  owner() */\n      jump\t// in\n    tag_170:\n        /* \"https://github.com/OpenZeppelin/openzeppelin-contracts/blob/master/contracts/access/Ownable.sol\":1248:1271  owner() == _msgSender() */\n      0xffffffffffffffffffffffffffffffffffffffff\n      and\n      eq\n        /* \"https://github.com/OpenZeppelin/openzeppelin-contracts/blob/master/contracts/access/Ownable.sol\":1240:1308  require(owner() == _msgSender(), \"Ownable: caller is not the owner\") */\n      tag_171\n      jumpi\n      mload(0x40)\n      0x08c379a000000000000000000000000000000000000000000000000000000000\n      dup2\n      mstore\n      0x04\n      add\n      tag_172\n      swap1\n      tag_162\n      jump\t// in\n    tag_172:\n      mload(0x40)\n      dup1\n      swap2\n      sub\n      swap1\n      revert\n    tag_171:\n        /* \"https://github.com/OpenZeppelin/openzeppelin-contracts/blob/master/contracts/access/Ownable.sol\":1732:1762  _transferOwnership(address(0)) */\n      tag_174\n        /* \"https://github.com/OpenZeppelin/openzeppelin-contracts/blob/master/contracts/access/Ownable.sol\":1759:1760  0 */\n      0x00\n        /* \"https://github.com/OpenZeppelin/openzeppelin-contracts/blob/master/contracts/access/Ownable.sol\":1732:1750  _transferOwnership */\n      tag_175\n        /* \"https://github.com/OpenZeppelin/openzeppelin-contracts/blob/master/contracts/access/Ownable.sol\":1732:1762  _transferOwnership(address(0)) */\n      jump\t// in\n    tag_174:\n        /* \"https://github.com/OpenZeppelin/openzeppelin-contracts/blob/master/contracts/access/Ownable.sol\":1668:1769  function renounceOwnership() public virtual onlyOwner {... */\n      jump\t// out\n        /* \"lotto.sol\":634:661  uint256 public roundEntries */\n    tag_62:\n      sload(0x01)\n      dup2\n      jump\t// out\n        /* \"https://github.com/OpenZeppelin/openzeppelin-contracts/blob/master/contracts/access/Ownable.sol\":1036:1121  function owner() public view virtual returns (address) {... */\n    tag_65:\n        /* \"https://github.com/OpenZeppelin/openzeppelin-contracts/blob/master/contracts/access/Ownable.sol\":1082:1089  address */\n      0x00\n        /* \"https://github.com/OpenZeppelin/openzeppelin-contracts/blob/master/contracts/access/Ownable.sol\":1108:1114  _owner */\n      dup1\n      0x00\n      swap1\n      sload\n      swap1\n      0x0100\n      exp\n      swap1\n      div\n      0xffffffffffffffffffffffffffffffffffffffff\n      and\n        /* \"https://github.com/OpenZeppelin/openzeppelin-contracts/blob/master/contracts/access/Ownable.sol\":1101:1114  return _owner */\n      swap1\n      pop\n        /* \"https://github.com/OpenZeppelin/openzeppelin-contracts/blob/master/contracts/access/Ownable.sol\":1036:1121  function owner() public view virtual returns (address) {... */\n      swap1\n      jump\t// out\n        /* \"lotto.sol\":737:760  IERC20 public acesToken */\n    tag_69:\n      0x04\n      0x00\n      swap1\n      sload\n      swap1\n      0x0100\n      exp\n      swap1\n      div\n      0xffffffffffffffffffffffffffffffffffffffff\n      and\n      dup2\n      jump\t// out\n        /* \"lotto.sol\":4063:4185  function userEntries(address account) public view returns (uint256) {\r... */\n    tag_74:\n        /* \"lotto.sol\":4122:4129  uint256 */\n      0x00\n        /* \"lotto.sol\":4149:4161  entriesIndex */\n      0x07\n        /* \"lotto.sol\":4149:4170  entriesIndex[account] */\n      0x00\n        /* \"lotto.sol\":4162:4169  account */\n      dup4\n        /* \"lotto.sol\":4149:4170  entriesIndex[account] */\n      0xffffffffffffffffffffffffffffffffffffffff\n      and\n      0xffffffffffffffffffffffffffffffffffffffff\n      and\n      dup2\n      mstore\n      0x20\n      add\n      swap1\n      dup2\n      mstore\n      0x20\n      add\n      0x00\n      keccak256\n        /* \"lotto.sol\":4149:4177  entriesIndex[account].length */\n      dup1\n      sload\n      swap1\n      pop\n        /* \"lotto.sol\":4142:4177  return entriesIndex[account].length */\n      swap1\n      pop\n        /* \"lotto.sol\":4063:4185  function userEntries(address account) public view returns (uint256) {\r... */\n      swap2\n      swap1\n      pop\n      jump\t// out\n        /* \"lotto.sol\":1530:2108  function removeEntryFromWallet(address account, uint256 amount) public {\r... */\n    tag_78:\n        /* \"lotto.sol\":1612:1634  uint256 currentEntries */\n      0x00\n        /* \"lotto.sol\":1637:1657  userEntries(account) */\n      tag_179\n        /* \"lotto.sol\":1649:1656  account */\n      dup4\n        /* \"lotto.sol\":1637:1648  userEntries */\n      tag_74\n        /* \"lotto.sol\":1637:1657  userEntries(account) */\n      jump\t// in\n    tag_179:\n        /* \"lotto.sol\":1612:1657  uint256 currentEntries = userEntries(account) */\n      swap1\n      pop\n        /* \"lotto.sol\":1689:1690  0 */\n      0x00\n        /* \"lotto.sol\":1671:1685  currentEntries */\n      dup2\n        /* \"lotto.sol\":1671:1690  currentEntries == 0 */\n      eq\n        /* \"lotto.sol\":1668:1807  if(currentEntries == 0){\r... */\n      iszero\n      tag_180\n      jumpi\n        /* \"lotto.sol\":1706:1713  return; */\n      pop\n      jump(tag_178)\n        /* \"lotto.sol\":1668:1807  if(currentEntries == 0){\r... */\n    tag_180:\n        /* \"lotto.sol\":1742:1756  currentEntries */\n      dup1\n        /* \"lotto.sol\":1733:1739  amount */\n      dup3\n        /* \"lotto.sol\":1733:1756  amount > currentEntries */\n      gt\n        /* \"lotto.sol\":1730:1807  if(amount > currentEntries){\r... */\n      iszero\n      tag_182\n      jumpi\n        /* \"lotto.sol\":1781:1795  currentEntries */\n      dup1\n        /* \"lotto.sol\":1772:1795  amount = currentEntries */\n      swap2\n      pop\n        /* \"lotto.sol\":1730:1807  if(amount > currentEntries){\r... */\n    tag_182:\n        /* \"lotto.sol\":1823:1832  uint256 i */\n      0x00\n        /* \"lotto.sol\":1835:1836  1 */\n      0x01\n        /* \"lotto.sol\":1823:1836  uint256 i = 1 */\n      swap1\n      pop\n        /* \"lotto.sol\":1819:2066  for(uint256 i = 1; i <= amount; i++){\r... */\n    tag_183:\n        /* \"lotto.sol\":1843:1849  amount */\n      dup3\n        /* \"lotto.sol\":1838:1839  i */\n      dup2\n        /* \"lotto.sol\":1838:1849  i <= amount */\n      gt\n        /* \"lotto.sol\":1819:2066  for(uint256 i = 1; i <= amount; i++){\r... */\n      tag_184\n      jumpi\n        /* \"lotto.sol\":1870:1887  uint256 lastIndex */\n      0x00\n        /* \"lotto.sol\":1890:1902  entriesIndex */\n      0x07\n        /* \"lotto.sol\":1890:1911  entriesIndex[account] */\n      0x00\n        /* \"lotto.sol\":1903:1910  account */\n      dup7\n        /* \"lotto.sol\":1890:1911  entriesIndex[account] */\n      0xffffffffffffffffffffffffffffffffffffffff\n      and\n      0xffffffffffffffffffffffffffffffffffffffff\n      and\n      dup2\n      mstore\n      0x20\n      add\n      swap1\n      dup2\n      mstore\n      0x20\n      add\n      0x00\n      keccak256\n        /* \"lotto.sol\":1943:1944  1 */\n      0x01\n        /* \"lotto.sol\":1912:1924  entriesIndex */\n      0x07\n        /* \"lotto.sol\":1912:1933  entriesIndex[account] */\n      0x00\n        /* \"lotto.sol\":1925:1932  account */\n      dup9\n        /* \"lotto.sol\":1912:1933  entriesIndex[account] */\n      0xffffffffffffffffffffffffffffffffffffffff\n      and\n      0xffffffffffffffffffffffffffffffffffffffff\n      and\n      dup2\n      mstore\n      0x20\n      add\n      swap1\n      dup2\n      mstore\n      0x20\n      add\n      0x00\n      keccak256\n        /* \"lotto.sol\":1912:1940  entriesIndex[account].length */\n      dup1\n      sload\n      swap1\n      pop\n        /* \"lotto.sol\":1912:1944  entriesIndex[account].length - 1 */\n      tag_186\n      swap2\n      swap1\n      tag_187\n      jump\t// in\n    tag_186:\n        /* \"lotto.sol\":1890:1945  entriesIndex[account][entriesIndex[account].length - 1] */\n      dup2\n      sload\n      dup2\n      lt\n      tag_188\n      jumpi\n      tag_189\n      tag_116\n      jump\t// in\n    tag_189:\n    tag_188:\n      swap1\n      0x00\n      mstore\n      keccak256(0x00, 0x20)\n      add\n      sload\n        /* \"lotto.sol\":1870:1945  uint256 lastIndex = entriesIndex[account][entriesIndex[account].length - 1] */\n      swap1\n      pop\n        /* \"lotto.sol\":1984:1994  roundEntry */\n      0x06\n        /* \"lotto.sol\":1984:2012  roundEntry[roundEntries - i] */\n      0x00\n        /* \"lotto.sol\":2010:2011  i */\n      dup4\n        /* \"lotto.sol\":1995:2007  roundEntries */\n      sload(0x01)\n        /* \"lotto.sol\":1995:2011  roundEntries - i */\n      tag_191\n      swap2\n      swap1\n      tag_187\n      jump\t// in\n    tag_191:\n        /* \"lotto.sol\":1984:2012  roundEntry[roundEntries - i] */\n      dup2\n      mstore\n      0x20\n      add\n      swap1\n      dup2\n      mstore\n      0x20\n      add\n      0x00\n      keccak256\n      0x00\n      swap1\n      sload\n      swap1\n      0x0100\n      exp\n      swap1\n      div\n      0xffffffffffffffffffffffffffffffffffffffff\n      and\n        /* \"lotto.sol\":1960:1970  roundEntry */\n      0x06\n        /* \"lotto.sol\":1960:1981  roundEntry[lastIndex] */\n      0x00\n        /* \"lotto.sol\":1971:1980  lastIndex */\n      dup4\n        /* \"lotto.sol\":1960:1981  roundEntry[lastIndex] */\n      dup2\n      mstore\n      0x20\n      add\n      swap1\n      dup2\n      mstore\n      0x20\n      add\n      0x00\n      keccak256\n      0x00\n        /* \"lotto.sol\":1960:2012  roundEntry[lastIndex] = roundEntry[roundEntries - i] */\n      0x0100\n      exp\n      dup2\n      sload\n      dup2\n      0xffffffffffffffffffffffffffffffffffffffff\n      mul\n      not\n      and\n      swap1\n      dup4\n      0xffffffffffffffffffffffffffffffffffffffff\n      and\n      mul\n      or\n      swap1\n      sstore\n      pop\n        /* \"lotto.sol\":2027:2039  entriesIndex */\n      0x07\n        /* \"lotto.sol\":2027:2048  entriesIndex[account] */\n      0x00\n        /* \"lotto.sol\":2040:2047  account */\n      dup7\n        /* \"lotto.sol\":2027:2048  entriesIndex[account] */\n      0xffffffffffffffffffffffffffffffffffffffff\n      and\n      0xffffffffffffffffffffffffffffffffffffffff\n      and\n      dup2\n      mstore\n      0x20\n      add\n      swap1\n      dup2\n      mstore\n      0x20\n      add\n      0x00\n      keccak256\n        /* \"lotto.sol\":2027:2054  entriesIndex[account].pop() */\n      dup1\n      sload\n      dup1\n      tag_192\n      jumpi\n      tag_193\n      tag_194\n      jump\t// in\n    tag_193:\n    tag_192:\n      0x01\n      swap1\n      sub\n      dup2\n      dup2\n      swap1\n      0x00\n      mstore\n      keccak256(0x00, 0x20)\n      add\n      0x00\n      swap1\n      sstore\n      swap1\n      sstore\n        /* \"lotto.sol\":1855:2066  {\r... */\n      pop\n        /* \"lotto.sol\":1851:1854  i++ */\n      dup1\n      dup1\n      tag_196\n      swap1\n      tag_120\n      jump\t// in\n    tag_196:\n      swap2\n      pop\n      pop\n        /* \"lotto.sol\":1819:2066  for(uint256 i = 1; i <= amount; i++){\r... */\n      jump(tag_183)\n    tag_184:\n      pop\n        /* \"lotto.sol\":2094:2100  amount */\n      dup2\n        /* \"lotto.sol\":2078:2090  roundEntries */\n      0x01\n      0x00\n        /* \"lotto.sol\":2078:2100  roundEntries -= amount */\n      dup3\n      dup3\n      sload\n      tag_197\n      swap2\n      swap1\n      tag_187\n      jump\t// in\n    tag_197:\n      swap3\n      pop\n      pop\n      dup2\n      swap1\n      sstore\n      pop\n        /* \"lotto.sol\":1601:2108  {\r... */\n      pop\n        /* \"lotto.sol\":1530:2108  function removeEntryFromWallet(address account, uint256 amount) public {\r... */\n    tag_178:\n      pop\n      pop\n      jump\t// out\n        /* \"lotto.sol\":951:998  mapping(uint256 => Results) public roundResults */\n    tag_82:\n      mstore(0x20, 0x05)\n      dup1\n      0x00\n      mstore\n      keccak256(0x00, 0x40)\n      0x00\n      swap2\n      pop\n      swap1\n      pop\n      dup1\n      0x00\n      add\n      sload\n      swap1\n      dup1\n      0x01\n      add\n      sload\n      swap1\n      dup1\n      0x02\n      add\n      sload\n      swap1\n      dup1\n      0x03\n      add\n      sload\n      swap1\n      dup1\n      0x04\n      add\n      0x00\n      swap1\n      sload\n      swap1\n      0x0100\n      exp\n      swap1\n      div\n      0xffffffffffffffffffffffffffffffffffffffff\n      and\n      swap1\n      pop\n      dup6\n      jump\t// out\n        /* \"lotto.sol\":1005:1050  mapping(uint256 => address) public roundEntry */\n    tag_87:\n      mstore(0x20, 0x06)\n      dup1\n      0x00\n      mstore\n      keccak256(0x00, 0x40)\n      0x00\n      swap2\n      pop\n      sload\n      swap1\n      0x0100\n      exp\n      swap1\n      div\n      0xffffffffffffffffffffffffffffffffffffffff\n      and\n      dup2\n      jump\t// out\n        /* \"lotto.sol\":4193:4783  function resultLog(uint256 startIndex, uint256 endIndex) external view returns(Results [] memory log){\r... */\n    tag_91:\n        /* \"lotto.sol\":4272:4293  Results [] memory log */\n      0x60\n        /* \"lotto.sol\":4320:4321  0 */\n      0x00\n        /* \"lotto.sol\":4308:4316  roundNum */\n      sload(0x02)\n        /* \"lotto.sol\":4308:4321  roundNum == 0 */\n      eq\n        /* \"lotto.sol\":4305:4378  if(roundNum == 0){\r... */\n      iszero\n      tag_199\n      jumpi\n        /* \"lotto.sol\":4364:4365  0 */\n      0x00\n        /* \"lotto.sol\":4350:4366  new Results[](0) */\n      0xffffffffffffffff\n      dup2\n      gt\n      iszero\n      tag_200\n      jumpi\n      tag_201\n      tag_126\n      jump\t// in\n    tag_201:\n    tag_200:\n      mload(0x40)\n      swap1\n      dup1\n      dup3\n      mstore\n      dup1\n      0x20\n      mul\n      0x20\n      add\n      dup3\n      add\n      0x40\n      mstore\n      dup1\n      iszero\n      tag_202\n      jumpi\n      dup2\n      0x20\n      add\n    tag_203:\n      tag_204\n      tag_205\n      jump\t// in\n    tag_204:\n      dup2\n      mstore\n      0x20\n      add\n      swap1\n      0x01\n      swap1\n      sub\n      swap1\n      dup2\n      tag_203\n      jumpi\n      swap1\n      pop\n    tag_202:\n      pop\n        /* \"lotto.sol\":4344:4366  log = new Results[](0) */\n      swap1\n      pop\n        /* \"lotto.sol\":4337:4366  return log = new Results[](0) */\n      jump(tag_198)\n        /* \"lotto.sol\":4305:4378  if(roundNum == 0){\r... */\n    tag_199:\n        /* \"lotto.sol\":4414:4422  roundNum */\n      sload(0x02)\n        /* \"lotto.sol\":4402:4410  endIndex */\n      dup3\n        /* \"lotto.sol\":4402:4422  endIndex >= roundNum */\n      lt\n        /* \"lotto.sol\":4398:4474  if (endIndex >= roundNum) {\r... */\n      tag_206\n      jumpi\n        /* \"lotto.sol\":4461:4462  1 */\n      0x01\n        /* \"lotto.sol\":4450:4458  roundNum */\n      sload(0x02)\n        /* \"lotto.sol\":4450:4462  roundNum - 1 */\n      tag_207\n      swap2\n      swap1\n      tag_187\n      jump\t// in\n    tag_207:\n        /* \"lotto.sol\":4439:4462  endIndex = roundNum - 1 */\n      swap2\n      pop\n        /* \"lotto.sol\":4398:4474  if (endIndex >= roundNum) {\r... */\n    tag_206:\n        /* \"lotto.sol\":4486:4505  uint256 arrayLength */\n      0x00\n        /* \"lotto.sol\":4532:4533  1 */\n      0x01\n        /* \"lotto.sol\":4519:4529  startIndex */\n      dup5\n        /* \"lotto.sol\":4508:4516  endIndex */\n      dup5\n        /* \"lotto.sol\":4508:4529  endIndex - startIndex */\n      tag_208\n      swap2\n      swap1\n      tag_187\n      jump\t// in\n    tag_208:\n        /* \"lotto.sol\":4508:4533  endIndex - startIndex + 1 */\n      tag_209\n      swap2\n      swap1\n      tag_149\n      jump\t// in\n    tag_209:\n        /* \"lotto.sol\":4486:4533  uint256 arrayLength = endIndex - startIndex + 1 */\n      swap1\n      pop\n        /* \"lotto.sol\":4544:4564  uint256 currentIndex */\n      0x00\n        /* \"lotto.sol\":4595:4606  arrayLength */\n      dup2\n        /* \"lotto.sol\":4581:4607  new Results[](arrayLength) */\n      0xffffffffffffffff\n      dup2\n      gt\n      iszero\n      tag_210\n      jumpi\n      tag_211\n      tag_126\n      jump\t// in\n    tag_211:\n    tag_210:\n      mload(0x40)\n      swap1\n      dup1\n      dup3\n      mstore\n      dup1\n      0x20\n      mul\n      0x20\n      add\n      dup3\n      add\n      0x40\n      mstore\n      dup1\n      iszero\n      tag_212\n      jumpi\n      dup2\n      0x20\n      add\n    tag_213:\n      tag_214\n      tag_205\n      jump\t// in\n    tag_214:\n      dup2\n      mstore\n      0x20\n      add\n      swap1\n      0x01\n      swap1\n      sub\n      swap1\n      dup2\n      tag_213\n      jumpi\n      swap1\n      pop\n    tag_212:\n      pop\n        /* \"lotto.sol\":4575:4607  log = new Results[](arrayLength) */\n      swap3\n      pop\n        /* \"lotto.sol\":4628:4637  uint256 i */\n      0x00\n        /* \"lotto.sol\":4640:4650  startIndex */\n      dup6\n        /* \"lotto.sol\":4628:4650  uint256 i = startIndex */\n      swap1\n      pop\n        /* \"lotto.sol\":4623:4776  for (uint256 i = startIndex; i <= endIndex; i++) {\r... */\n    tag_215:\n        /* \"lotto.sol\":4657:4665  endIndex */\n      dup5\n        /* \"lotto.sol\":4652:4653  i */\n      dup2\n        /* \"lotto.sol\":4652:4665  i <= endIndex */\n      gt\n        /* \"lotto.sol\":4623:4776  for (uint256 i = startIndex; i <= endIndex; i++) {\r... */\n      tag_216\n      jumpi\n        /* \"lotto.sol\":4707:4719  roundResults */\n      0x05\n        /* \"lotto.sol\":4707:4735  roundResults[startIndex + i] */\n      0x00\n        /* \"lotto.sol\":4733:4734  i */\n      dup3\n        /* \"lotto.sol\":4720:4730  startIndex */\n      dup9\n        /* \"lotto.sol\":4720:4734  startIndex + i */\n      tag_218\n      swap2\n      swap1\n      tag_149\n      jump\t// in\n    tag_218:\n        /* \"lotto.sol\":4707:4735  roundResults[startIndex + i] */\n      dup2\n      mstore\n      0x20\n      add\n      swap1\n      dup2\n      mstore\n      0x20\n      add\n      0x00\n      keccak256\n        /* \"lotto.sol\":4687:4735  log[currentIndex] = roundResults[startIndex + i] */\n      mload(0x40)\n      dup1\n      0xa0\n      add\n      0x40\n      mstore\n      swap1\n      dup2\n      0x00\n      dup3\n      add\n      sload\n      dup2\n      mstore\n      0x20\n      add\n      0x01\n      dup3\n      add\n      sload\n      dup2\n      mstore\n      0x20\n      add\n      0x02\n      dup3\n      add\n      sload\n      dup2\n      mstore\n      0x20\n      add\n      0x03\n      dup3\n      add\n      sload\n      dup2\n      mstore\n      0x20\n      add\n      0x04\n      dup3\n      add\n      0x00\n      swap1\n      sload\n      swap1\n      0x0100\n      exp\n      swap1\n      div\n      0xffffffffffffffffffffffffffffffffffffffff\n      and\n      0xffffffffffffffffffffffffffffffffffffffff\n      and\n      0xffffffffffffffffffffffffffffffffffffffff\n      and\n      dup2\n      mstore\n      pop\n      pop\n        /* \"lotto.sol\":4687:4690  log */\n      dup5\n        /* \"lotto.sol\":4691:4703  currentIndex */\n      dup4\n        /* \"lotto.sol\":4687:4704  log[currentIndex] */\n      dup2\n      mload\n      dup2\n      lt\n      tag_219\n      jumpi\n      tag_220\n      tag_116\n      jump\t// in\n    tag_220:\n    tag_219:\n      0x20\n      mul\n      0x20\n      add\n      add\n        /* \"lotto.sol\":4687:4735  log[currentIndex] = roundResults[startIndex + i] */\n      dup2\n      swap1\n      mstore\n      pop\n        /* \"lotto.sol\":4750:4764  currentIndex++ */\n      dup2\n      dup1\n      tag_221\n      swap1\n      tag_120\n      jump\t// in\n    tag_221:\n      swap3\n      pop\n      pop\n        /* \"lotto.sol\":4667:4670  i++ */\n      dup1\n      dup1\n      tag_222\n      swap1\n      tag_120\n      jump\t// in\n    tag_222:\n      swap2\n      pop\n      pop\n        /* \"lotto.sol\":4623:4776  for (uint256 i = startIndex; i <= endIndex; i++) {\r... */\n      jump(tag_215)\n    tag_216:\n      pop\n        /* \"lotto.sol\":4294:4783  {\r... */\n      pop\n      pop\n        /* \"lotto.sol\":4193:4783  function resultLog(uint256 startIndex, uint256 endIndex) external view returns(Results [] memory log){\r... */\n    tag_198:\n      swap3\n      swap2\n      pop\n      pop\n      jump\t// out\n        /* \"lotto.sol\":2116:2285  function removeAccount(address account) external{\r... */\n    tag_96:\n        /* \"lotto.sol\":2175:2197  uint256 currentEntries */\n      0x00\n        /* \"lotto.sol\":2200:2220  userEntries(account) */\n      tag_224\n        /* \"lotto.sol\":2212:2219  account */\n      dup3\n        /* \"lotto.sol\":2200:2211  userEntries */\n      tag_74\n        /* \"lotto.sol\":2200:2220  userEntries(account) */\n      jump\t// in\n    tag_224:\n        /* \"lotto.sol\":2175:2220  uint256 currentEntries = userEntries(account) */\n      swap1\n      pop\n        /* \"lotto.sol\":2231:2277  removeEntryFromWallet(account, currentEntries) */\n      tag_225\n        /* \"lotto.sol\":2253:2260  account */\n      dup3\n        /* \"lotto.sol\":2262:2276  currentEntries */\n      dup3\n        /* \"lotto.sol\":2231:2252  removeEntryFromWallet */\n      tag_78\n        /* \"lotto.sol\":2231:2277  removeEntryFromWallet(account, currentEntries) */\n      jump\t// in\n    tag_225:\n        /* \"lotto.sol\":2164:2285  {\r... */\n      pop\n        /* \"lotto.sol\":2116:2285  function removeAccount(address account) external{\r... */\n      pop\n      jump\t// out\n        /* \"https://github.com/OpenZeppelin/openzeppelin-contracts/blob/master/contracts/access/Ownable.sol\":1918:2116  function transferOwnership(address newOwner) public virtual onlyOwner {... */\n    tag_99:\n        /* \"https://github.com/OpenZeppelin/openzeppelin-contracts/blob/master/contracts/access/Ownable.sol\":1259:1271  _msgSender() */\n      tag_227\n        /* \"https://github.com/OpenZeppelin/openzeppelin-contracts/blob/master/contracts/access/Ownable.sol\":1259:1269  _msgSender */\n      tag_158\n        /* \"https://github.com/OpenZeppelin/openzeppelin-contracts/blob/master/contracts/access/Ownable.sol\":1259:1271  _msgSender() */\n      jump\t// in\n    tag_227:\n        /* \"https://github.com/OpenZeppelin/openzeppelin-contracts/blob/master/contracts/access/Ownable.sol\":1248:1271  owner() == _msgSender() */\n      0xffffffffffffffffffffffffffffffffffffffff\n      and\n        /* \"https://github.com/OpenZeppelin/openzeppelin-contracts/blob/master/contracts/access/Ownable.sol\":1248:1255  owner() */\n      tag_228\n        /* \"https://github.com/OpenZeppelin/openzeppelin-contracts/blob/master/contracts/access/Ownable.sol\":1248:1253  owner */\n      tag_65\n        /* \"https://github.com/OpenZeppelin/openzeppelin-contracts/blob/master/contracts/access/Ownable.sol\":1248:1255  owner() */\n      jump\t// in\n    tag_228:\n        /* \"https://github.com/OpenZeppelin/openzeppelin-contracts/blob/master/contracts/access/Ownable.sol\":1248:1271  owner() == _msgSender() */\n      0xffffffffffffffffffffffffffffffffffffffff\n      and\n      eq\n        /* \"https://github.com/OpenZeppelin/openzeppelin-contracts/blob/master/contracts/access/Ownable.sol\":1240:1308  require(owner() == _msgSender(), \"Ownable: caller is not the owner\") */\n      tag_229\n      jumpi\n      mload(0x40)\n      0x08c379a000000000000000000000000000000000000000000000000000000000\n      dup2\n      mstore\n      0x04\n      add\n      tag_230\n      swap1\n      tag_162\n      jump\t// in\n    tag_230:\n      mload(0x40)\n      dup1\n      swap2\n      sub\n      swap1\n      revert\n    tag_229:\n        /* \"https://github.com/OpenZeppelin/openzeppelin-contracts/blob/master/contracts/access/Ownable.sol\":2026:2027  0 */\n      0x00\n        /* \"https://github.com/OpenZeppelin/openzeppelin-contracts/blob/master/contracts/access/Ownable.sol\":2006:2028  newOwner != address(0) */\n      0xffffffffffffffffffffffffffffffffffffffff\n      and\n        /* \"https://github.com/OpenZeppelin/openzeppelin-contracts/blob/master/contracts/access/Ownable.sol\":2006:2014  newOwner */\n      dup2\n        /* \"https://github.com/OpenZeppelin/openzeppelin-contracts/blob/master/contracts/access/Ownable.sol\":2006:2028  newOwner != address(0) */\n      0xffffffffffffffffffffffffffffffffffffffff\n      and\n      eq\n      iszero\n        /* \"https://github.com/OpenZeppelin/openzeppelin-contracts/blob/master/contracts/access/Ownable.sol\":1998:2071  require(newOwner != address(0), \"Ownable: new owner is the zero address\") */\n      tag_232\n      jumpi\n      mload(0x40)\n      0x08c379a000000000000000000000000000000000000000000000000000000000\n      dup2\n      mstore\n      0x04\n      add\n      tag_233\n      swap1\n      tag_234\n      jump\t// in\n    tag_233:\n      mload(0x40)\n      dup1\n      swap2\n      sub\n      swap1\n      revert\n    tag_232:\n        /* \"https://github.com/OpenZeppelin/openzeppelin-contracts/blob/master/contracts/access/Ownable.sol\":2081:2109  _transferOwnership(newOwner) */\n      tag_235\n        /* \"https://github.com/OpenZeppelin/openzeppelin-contracts/blob/master/contracts/access/Ownable.sol\":2100:2108  newOwner */\n      dup2\n        /* \"https://github.com/OpenZeppelin/openzeppelin-contracts/blob/master/contracts/access/Ownable.sol\":2081:2099  _transferOwnership */\n      tag_175\n        /* \"https://github.com/OpenZeppelin/openzeppelin-contracts/blob/master/contracts/access/Ownable.sol\":2081:2109  _transferOwnership(newOwner) */\n      jump\t// in\n    tag_235:\n        /* \"https://github.com/OpenZeppelin/openzeppelin-contracts/blob/master/contracts/access/Ownable.sol\":1918:2116  function transferOwnership(address newOwner) public virtual onlyOwner {... */\n      pop\n      jump\t// out\n        /* \"lotto.sol\":3215:3419  function pickWinner(uint256 seed) external view returns(uint256 winnerNum, address winnerAddress) {\r... */\n    tag_102:\n        /* \"lotto.sol\":3271:3288  uint256 winnerNum */\n      0x00\n        /* \"lotto.sol\":3290:3311  address winnerAddress */\n      dup1\n        /* \"lotto.sol\":3351:3363  roundEntries */\n      sload(0x01)\n        /* \"lotto.sol\":3336:3348  random(seed) */\n      tag_237\n        /* \"lotto.sol\":3343:3347  seed */\n      dup5\n        /* \"lotto.sol\":3336:3342  random */\n      tag_238\n        /* \"lotto.sol\":3336:3348  random(seed) */\n      jump\t// in\n    tag_237:\n        /* \"lotto.sol\":3336:3363  random(seed) % roundEntries */\n      tag_239\n      swap2\n      swap1\n      tag_240\n      jump\t// in\n    tag_239:\n        /* \"lotto.sol\":3324:3363  winnerNum = random(seed) % roundEntries */\n      swap2\n      pop\n        /* \"lotto.sol\":3390:3400  roundEntry */\n      0x06\n        /* \"lotto.sol\":3390:3411  roundEntry[winnerNum] */\n      0x00\n        /* \"lotto.sol\":3401:3410  winnerNum */\n      dup4\n        /* \"lotto.sol\":3390:3411  roundEntry[winnerNum] */\n      dup2\n      mstore\n      0x20\n      add\n      swap1\n      dup2\n      mstore\n      0x20\n      add\n      0x00\n      keccak256\n      0x00\n      swap1\n      sload\n      swap1\n      0x0100\n      exp\n      swap1\n      div\n      0xffffffffffffffffffffffffffffffffffffffff\n      and\n        /* \"lotto.sol\":3374:3411  winnerAddress = roundEntry[winnerNum] */\n      swap1\n      pop\n        /* \"lotto.sol\":3215:3419  function pickWinner(uint256 seed) external view returns(uint256 winnerNum, address winnerAddress) {\r... */\n      swap2\n      pop\n      swap2\n      jump\t// out\n        /* \"lotto.sol\":3939:4055  function currentJackpot() public view returns (uint256) {\r... */\n    tag_106:\n        /* \"lotto.sol\":3986:3993  uint256 */\n      0x00\n        /* \"lotto.sol\":4013:4022  acesToken */\n      0x04\n      0x00\n      swap1\n      sload\n      swap1\n      0x0100\n      exp\n      swap1\n      div\n      0xffffffffffffffffffffffffffffffffffffffff\n      and\n        /* \"lotto.sol\":4013:4032  acesToken.balanceOf */\n      0xffffffffffffffffffffffffffffffffffffffff\n      and\n      0x70a08231\n        /* \"lotto.sol\":4041:4045  this */\n      address\n        /* \"lotto.sol\":4013:4047  acesToken.balanceOf(address(this)) */\n      mload(0x40)\n      dup3\n      0xffffffff\n      and\n      0xe0\n      shl\n      dup2\n      mstore\n      0x04\n      add\n      tag_242\n      swap2\n      swap1\n      tag_67\n      jump\t// in\n    tag_242:\n      0x20\n      mload(0x40)\n      dup1\n      dup4\n      sub\n      dup2\n      dup7\n      dup1\n      extcodesize\n      iszero\n      dup1\n      iszero\n      tag_243\n      jumpi\n      0x00\n      dup1\n      revert\n    tag_243:\n      pop\n      gas\n      staticcall\n      iszero\n      dup1\n      iszero\n      tag_245\n      jumpi\n      returndatasize\n      0x00\n      dup1\n      returndatacopy\n      revert(0x00, returndatasize)\n    tag_245:\n      pop\n      pop\n      pop\n      pop\n      mload(0x40)\n      returndatasize\n      not(0x1f)\n      0x1f\n      dup3\n      add\n      and\n      dup3\n      add\n      dup1\n      0x40\n      mstore\n      pop\n      dup2\n      add\n      swap1\n      tag_246\n      swap2\n      swap1\n      tag_247\n      jump\t// in\n    tag_246:\n        /* \"lotto.sol\":4006:4047  return acesToken.balanceOf(address(this)) */\n      swap1\n      pop\n        /* \"lotto.sol\":3939:4055  function currentJackpot() public view returns (uint256) {\r... */\n      swap1\n      jump\t// out\n        /* \"https://github.com/OpenZeppelin/openzeppelin-contracts/blob/master/contracts/utils/Context.sol\":640:736  function _msgSender() internal view virtual returns (address) {... */\n    tag_158:\n        /* \"https://github.com/OpenZeppelin/openzeppelin-contracts/blob/master/contracts/utils/Context.sol\":693:700  address */\n      0x00\n        /* \"https://github.com/OpenZeppelin/openzeppelin-contracts/blob/master/contracts/utils/Context.sol\":719:729  msg.sender */\n      caller\n        /* \"https://github.com/OpenZeppelin/openzeppelin-contracts/blob/master/contracts/utils/Context.sol\":712:729  return msg.sender */\n      swap1\n      pop\n        /* \"https://github.com/OpenZeppelin/openzeppelin-contracts/blob/master/contracts/utils/Context.sol\":640:736  function _msgSender() internal view virtual returns (address) {... */\n      swap1\n      jump\t// out\n        /* \"https://github.com/OpenZeppelin/openzeppelin-contracts/blob/master/contracts/access/Ownable.sol\":2270:2457  function _transferOwnership(address newOwner) internal virtual {... */\n    tag_175:\n        /* \"https://github.com/OpenZeppelin/openzeppelin-contracts/blob/master/contracts/access/Ownable.sol\":2343:2359  address oldOwner */\n      0x00\n        /* \"https://github.com/OpenZeppelin/openzeppelin-contracts/blob/master/contracts/access/Ownable.sol\":2362:2368  _owner */\n      dup1\n      0x00\n      swap1\n      sload\n      swap1\n      0x0100\n      exp\n      swap1\n      div\n      0xffffffffffffffffffffffffffffffffffffffff\n      and\n        /* \"https://github.com/OpenZeppelin/openzeppelin-contracts/blob/master/contracts/access/Ownable.sol\":2343:2368  address oldOwner = _owner */\n      swap1\n      pop\n        /* \"https://github.com/OpenZeppelin/openzeppelin-contracts/blob/master/contracts/access/Ownable.sol\":2387:2395  newOwner */\n      dup2\n        /* \"https://github.com/OpenZeppelin/openzeppelin-contracts/blob/master/contracts/access/Ownable.sol\":2378:2384  _owner */\n      0x00\n      dup1\n        /* \"https://github.com/OpenZeppelin/openzeppelin-contracts/blob/master/contracts/access/Ownable.sol\":2378:2395  _owner = newOwner */\n      0x0100\n      exp\n      dup2\n      sload\n      dup2\n      0xffffffffffffffffffffffffffffffffffffffff\n      mul\n      not\n      and\n      swap1\n      dup4\n      0xffffffffffffffffffffffffffffffffffffffff\n      and\n      mul\n      or\n      swap1\n      sstore\n      pop\n        /* \"https://github.com/OpenZeppelin/openzeppelin-contracts/blob/master/contracts/access/Ownable.sol\":2441:2449  newOwner */\n      dup2\n        /* \"https://github.com/OpenZeppelin/openzeppelin-contracts/blob/master/contracts/access/Ownable.sol\":2410:2450  OwnershipTransferred(oldOwner, newOwner) */\n      0xffffffffffffffffffffffffffffffffffffffff\n      and\n        /* \"https://github.com/OpenZeppelin/openzeppelin-contracts/blob/master/contracts/access/Ownable.sol\":2431:2439  oldOwner */\n      dup2\n        /* \"https://github.com/OpenZeppelin/openzeppelin-contracts/blob/master/contracts/access/Ownable.sol\":2410:2450  OwnershipTransferred(oldOwner, newOwner) */\n      0xffffffffffffffffffffffffffffffffffffffff\n      and\n      0x8be0079c531659141344cd1fd0a4f28419497f9722a3daafe3b4186f6b6457e0\n      mload(0x40)\n      mload(0x40)\n      dup1\n      swap2\n      sub\n      swap1\n      log3\n        /* \"https://github.com/OpenZeppelin/openzeppelin-contracts/blob/master/contracts/access/Ownable.sol\":2333:2457  {... */\n      pop\n        /* \"https://github.com/OpenZeppelin/openzeppelin-contracts/blob/master/contracts/access/Ownable.sol\":2270:2457  function _transferOwnership(address newOwner) internal virtual {... */\n      pop\n      jump\t// out\n        /* \"lotto.sol\":5690:6107  function random(uint256 seed) internal view returns (uint256) {\r... */\n    tag_238:\n        /* \"lotto.sol\":5743:5750  uint256 */\n      0x00\n        /* \"lotto.sol\":5884:5888  seed */\n      dup2\n        /* \"lotto.sol\":5915:5930  block.timestamp */\n      timestamp\n        /* \"lotto.sol\":5957:5966  gasleft() */\n      gas\n        /* \"lotto.sol\":5993:6003  msg.sender */\n      caller\n        /* \"lotto.sol\":6030:6042  roundEntries */\n      sload(0x01)\n        /* \"lotto.sol\":5841:6065  abi.encodePacked(\r... */\n      add(0x20, mload(0x40))\n      tag_251\n      swap6\n      swap5\n      swap4\n      swap3\n      swap2\n      swap1\n      tag_252\n      jump\t// in\n    tag_251:\n      mload(0x40)\n      0x20\n      dup2\n      dup4\n      sub\n      sub\n      dup2\n      mstore\n      swap1\n      0x40\n      mstore\n        /* \"lotto.sol\":5809:6084  keccak256(\r... */\n      dup1\n      mload\n      swap1\n      0x20\n      add\n      keccak256\n        /* \"lotto.sol\":5783:6099  uint256(\r... */\n      0x00\n      shr\n        /* \"lotto.sol\":5763:6099  return\r... */\n      swap1\n      pop\n        /* \"lotto.sol\":5690:6107  function random(uint256 seed) internal view returns (uint256) {\r... */\n      swap2\n      swap1\n      pop\n      jump\t// out\n    tag_205:\n      mload(0x40)\n      dup1\n      0xa0\n      add\n      0x40\n      mstore\n      dup1\n      0x00\n      dup2\n      mstore\n      0x20\n      add\n      0x00\n      dup2\n      mstore\n      0x20\n      add\n      0x00\n      dup2\n      mstore\n      0x20\n      add\n      0x00\n      dup2\n      mstore\n      0x20\n      add\n      and(0xffffffffffffffffffffffffffffffffffffffff, 0x00)\n      dup2\n      mstore\n      pop\n      swap1\n      jump\t// out\n        /* \"#utility.yul\":7:146   */\n    tag_254:\n        /* \"#utility.yul\":53:58   */\n      0x00\n        /* \"#utility.yul\":91:97   */\n      dup2\n        /* \"#utility.yul\":78:98   */\n      calldataload\n        /* \"#utility.yul\":69:98   */\n      swap1\n      pop\n        /* \"#utility.yul\":107:140   */\n      tag_256\n        /* \"#utility.yul\":134:139   */\n      dup2\n        /* \"#utility.yul\":107:140   */\n      tag_257\n      jump\t// in\n    tag_256:\n        /* \"#utility.yul\":7:146   */\n      swap3\n      swap2\n      pop\n      pop\n      jump\t// out\n        /* \"#utility.yul\":152:291   */\n    tag_258:\n        /* \"#utility.yul\":198:203   */\n      0x00\n        /* \"#utility.yul\":236:242   */\n      dup2\n        /* \"#utility.yul\":223:243   */\n      calldataload\n        /* \"#utility.yul\":214:243   */\n      swap1\n      pop\n        /* \"#utility.yul\":252:285   */\n      tag_260\n        /* \"#utility.yul\":279:284   */\n      dup2\n        /* \"#utility.yul\":252:285   */\n      tag_261\n      jump\t// in\n    tag_260:\n        /* \"#utility.yul\":152:291   */\n      swap3\n      swap2\n      pop\n      pop\n      jump\t// out\n        /* \"#utility.yul\":297:440   */\n    tag_262:\n        /* \"#utility.yul\":354:359   */\n      0x00\n        /* \"#utility.yul\":385:391   */\n      dup2\n        /* \"#utility.yul\":379:392   */\n      mload\n        /* \"#utility.yul\":370:392   */\n      swap1\n      pop\n        /* \"#utility.yul\":401:434   */\n      tag_264\n        /* \"#utility.yul\":428:433   */\n      dup2\n        /* \"#utility.yul\":401:434   */\n      tag_261\n      jump\t// in\n    tag_264:\n        /* \"#utility.yul\":297:440   */\n      swap3\n      swap2\n      pop\n      pop\n      jump\t// out\n        /* \"#utility.yul\":446:775   */\n    tag_51:\n        /* \"#utility.yul\":505:511   */\n      0x00\n        /* \"#utility.yul\":554:556   */\n      0x20\n        /* \"#utility.yul\":542:551   */\n      dup3\n        /* \"#utility.yul\":533:540   */\n      dup5\n        /* \"#utility.yul\":529:552   */\n      sub\n        /* \"#utility.yul\":525:557   */\n      slt\n        /* \"#utility.yul\":522:641   */\n      iszero\n      tag_266\n      jumpi\n        /* \"#utility.yul\":560:639   */\n      tag_267\n      tag_268\n      jump\t// in\n    tag_267:\n        /* \"#utility.yul\":522:641   */\n    tag_266:\n        /* \"#utility.yul\":680:681   */\n      0x00\n        /* \"#utility.yul\":705:758   */\n      tag_269\n        /* \"#utility.yul\":750:757   */\n      dup5\n        /* \"#utility.yul\":741:747   */\n      dup3\n        /* \"#utility.yul\":730:739   */\n      dup6\n        /* \"#utility.yul\":726:748   */\n      add\n        /* \"#utility.yul\":705:758   */\n      tag_254\n      jump\t// in\n    tag_269:\n        /* \"#utility.yul\":695:758   */\n      swap2\n      pop\n        /* \"#utility.yul\":651:768   */\n      pop\n        /* \"#utility.yul\":446:775   */\n      swap3\n      swap2\n      pop\n      pop\n      jump\t// out\n        /* \"#utility.yul\":781:1255   */\n    tag_29:\n        /* \"#utility.yul\":849:855   */\n      0x00\n        /* \"#utility.yul\":857:863   */\n      dup1\n        /* \"#utility.yul\":906:908   */\n      0x40\n        /* \"#utility.yul\":894:903   */\n      dup4\n        /* \"#utility.yul\":885:892   */\n      dup6\n        /* \"#utility.yul\":881:904   */\n      sub\n        /* \"#utility.yul\":877:909   */\n      slt\n        /* \"#utility.yul\":874:993   */\n      iszero\n      tag_271\n      jumpi\n        /* \"#utility.yul\":912:991   */\n      tag_272\n      tag_268\n      jump\t// in\n    tag_272:\n        /* \"#utility.yul\":874:993   */\n    tag_271:\n        /* \"#utility.yul\":1032:1033   */\n      0x00\n        /* \"#utility.yul\":1057:1110   */\n      tag_273\n        /* \"#utility.yul\":1102:1109   */\n      dup6\n        /* \"#utility.yul\":1093:1099   */\n      dup3\n        /* \"#utility.yul\":1082:1091   */\n      dup7\n        /* \"#utility.yul\":1078:1100   */\n      add\n        /* \"#utility.yul\":1057:1110   */\n      tag_254\n      jump\t// in\n    tag_273:\n        /* \"#utility.yul\":1047:1110   */\n      swap3\n      pop\n        /* \"#utility.yul\":1003:1120   */\n      pop\n        /* \"#utility.yul\":1159:1161   */\n      0x20\n        /* \"#utility.yul\":1185:1238   */\n      tag_274\n        /* \"#utility.yul\":1230:1237   */\n      dup6\n        /* \"#utility.yul\":1221:1227   */\n      dup3\n        /* \"#utility.yul\":1210:1219   */\n      dup7\n        /* \"#utility.yul\":1206:1228   */\n      add\n        /* \"#utility.yul\":1185:1238   */\n      tag_258\n      jump\t// in\n    tag_274:\n        /* \"#utility.yul\":1175:1238   */\n      swap2\n      pop\n        /* \"#utility.yul\":1130:1248   */\n      pop\n        /* \"#utility.yul\":781:1255   */\n      swap3\n      pop\n      swap3\n      swap1\n      pop\n      jump\t// out\n        /* \"#utility.yul\":1261:1590   */\n    tag_81:\n        /* \"#utility.yul\":1320:1326   */\n      0x00\n        /* \"#utility.yul\":1369:1371   */\n      0x20\n        /* \"#utility.yul\":1357:1366   */\n      dup3\n        /* \"#utility.yul\":1348:1355   */\n      dup5\n        /* \"#utility.yul\":1344:1367   */\n      sub\n        /* \"#utility.yul\":1340:1372   */\n      slt\n        /* \"#utility.yul\":1337:1456   */\n      iszero\n      tag_276\n      jumpi\n        /* \"#utility.yul\":1375:1454   */\n      tag_277\n      tag_268\n      jump\t// in\n    tag_277:\n        /* \"#utility.yul\":1337:1456   */\n    tag_276:\n        /* \"#utility.yul\":1495:1496   */\n      0x00\n        /* \"#utility.yul\":1520:1573   */\n      tag_278\n        /* \"#utility.yul\":1565:1572   */\n      dup5\n        /* \"#utility.yul\":1556:1562   */\n      dup3\n        /* \"#utility.yul\":1545:1554   */\n      dup6\n        /* \"#utility.yul\":1541:1563   */\n      add\n        /* \"#utility.yul\":1520:1573   */\n      tag_258\n      jump\t// in\n    tag_278:\n        /* \"#utility.yul\":1510:1573   */\n      swap2\n      pop\n        /* \"#utility.yul\":1466:1583   */\n      pop\n        /* \"#utility.yul\":1261:1590   */\n      swap3\n      swap2\n      pop\n      pop\n      jump\t// out\n        /* \"#utility.yul\":1596:1947   */\n    tag_247:\n        /* \"#utility.yul\":1666:1672   */\n      0x00\n        /* \"#utility.yul\":1715:1717   */\n      0x20\n        /* \"#utility.yul\":1703:1712   */\n      dup3\n        /* \"#utility.yul\":1694:1701   */\n      dup5\n        /* \"#utility.yul\":1690:1713   */\n      sub\n        /* \"#utility.yul\":1686:1718   */\n      slt\n        /* \"#utility.yul\":1683:1802   */\n      iszero\n      tag_280\n      jumpi\n        /* \"#utility.yul\":1721:1800   */\n      tag_281\n      tag_268\n      jump\t// in\n    tag_281:\n        /* \"#utility.yul\":1683:1802   */\n    tag_280:\n        /* \"#utility.yul\":1841:1842   */\n      0x00\n        /* \"#utility.yul\":1866:1930   */\n      tag_282\n        /* \"#utility.yul\":1922:1929   */\n      dup5\n        /* \"#utility.yul\":1913:1919   */\n      dup3\n        /* \"#utility.yul\":1902:1911   */\n      dup6\n        /* \"#utility.yul\":1898:1920   */\n      add\n        /* \"#utility.yul\":1866:1930   */\n      tag_262\n      jump\t// in\n    tag_282:\n        /* \"#utility.yul\":1856:1930   */\n      swap2\n      pop\n        /* \"#utility.yul\":1812:1940   */\n      pop\n        /* \"#utility.yul\":1596:1947   */\n      swap3\n      swap2\n      pop\n      pop\n      jump\t// out\n        /* \"#utility.yul\":1953:2427   */\n    tag_57:\n        /* \"#utility.yul\":2021:2027   */\n      0x00\n        /* \"#utility.yul\":2029:2035   */\n      dup1\n        /* \"#utility.yul\":2078:2080   */\n      0x40\n        /* \"#utility.yul\":2066:2075   */\n      dup4\n        /* \"#utility.yul\":2057:2064   */\n      dup6\n        /* \"#utility.yul\":2053:2076   */\n      sub\n        /* \"#utility.yul\":2049:2081   */\n      slt\n        /* \"#utility.yul\":2046:2165   */\n      iszero\n      tag_284\n      jumpi\n        /* \"#utility.yul\":2084:2163   */\n      tag_285\n      tag_268\n      jump\t// in\n    tag_285:\n        /* \"#utility.yul\":2046:2165   */\n    tag_284:\n        /* \"#utility.yul\":2204:2205   */\n      0x00\n        /* \"#utility.yul\":2229:2282   */\n      tag_286\n        /* \"#utility.yul\":2274:2281   */\n      dup6\n        /* \"#utility.yul\":2265:2271   */\n      dup3\n        /* \"#utility.yul\":2254:2263   */\n      dup7\n        /* \"#utility.yul\":2250:2272   */\n      add\n        /* \"#utility.yul\":2229:2282   */\n      tag_258\n      jump\t// in\n    tag_286:\n        /* \"#utility.yul\":2219:2282   */\n      swap3\n      pop\n        /* \"#utility.yul\":2175:2292   */\n      pop\n        /* \"#utility.yul\":2331:2333   */\n      0x20\n        /* \"#utility.yul\":2357:2410   */\n      tag_287\n        /* \"#utility.yul\":2402:2409   */\n      dup6\n        /* \"#utility.yul\":2393:2399   */\n      dup3\n        /* \"#utility.yul\":2382:2391   */\n      dup7\n        /* \"#utility.yul\":2378:2400   */\n      add\n        /* \"#utility.yul\":2357:2410   */\n      tag_258\n      jump\t// in\n    tag_287:\n        /* \"#utility.yul\":2347:2410   */\n      swap2\n      pop\n        /* \"#utility.yul\":2302:2420   */\n      pop\n        /* \"#utility.yul\":1953:2427   */\n      swap3\n      pop\n      swap3\n      swap1\n      pop\n      jump\t// out\n        /* \"#utility.yul\":2433:2612   */\n    tag_288:\n        /* \"#utility.yul\":2502:2512   */\n      0x00\n        /* \"#utility.yul\":2523:2569   */\n      tag_290\n        /* \"#utility.yul\":2565:2568   */\n      dup4\n        /* \"#utility.yul\":2557:2563   */\n      dup4\n        /* \"#utility.yul\":2523:2569   */\n      tag_291\n      jump\t// in\n    tag_290:\n        /* \"#utility.yul\":2601:2605   */\n      0x20\n        /* \"#utility.yul\":2596:2599   */\n      dup4\n        /* \"#utility.yul\":2592:2606   */\n      add\n        /* \"#utility.yul\":2578:2606   */\n      swap1\n      pop\n        /* \"#utility.yul\":2433:2612   */\n      swap3\n      swap2\n      pop\n      pop\n      jump\t// out\n        /* \"#utility.yul\":2618:2893   */\n    tag_292:\n        /* \"#utility.yul\":2735:2745   */\n      0x00\n        /* \"#utility.yul\":2756:2850   */\n      tag_294\n        /* \"#utility.yul\":2846:2849   */\n      dup4\n        /* \"#utility.yul\":2838:2844   */\n      dup4\n        /* \"#utility.yul\":2756:2850   */\n      tag_295\n      jump\t// in\n    tag_294:\n        /* \"#utility.yul\":2882:2886   */\n      0xa0\n        /* \"#utility.yul\":2877:2880   */\n      dup4\n        /* \"#utility.yul\":2873:2887   */\n      add\n        /* \"#utility.yul\":2859:2887   */\n      swap1\n      pop\n        /* \"#utility.yul\":2618:2893   */\n      swap3\n      swap2\n      pop\n      pop\n      jump\t// out\n        /* \"#utility.yul\":2899:3078   */\n    tag_296:\n        /* \"#utility.yul\":2968:2978   */\n      0x00\n        /* \"#utility.yul\":2989:3035   */\n      tag_298\n        /* \"#utility.yul\":3031:3034   */\n      dup4\n        /* \"#utility.yul\":3023:3029   */\n      dup4\n        /* \"#utility.yul\":2989:3035   */\n      tag_299\n      jump\t// in\n    tag_298:\n        /* \"#utility.yul\":3067:3071   */\n      0x20\n        /* \"#utility.yul\":3062:3065   */\n      dup4\n        /* \"#utility.yul\":3058:3072   */\n      add\n        /* \"#utility.yul\":3044:3072   */\n      swap1\n      pop\n        /* \"#utility.yul\":2899:3078   */\n      swap3\n      swap2\n      pop\n      pop\n      jump\t// out\n        /* \"#utility.yul\":3084:3192   */\n    tag_291:\n        /* \"#utility.yul\":3161:3185   */\n      tag_301\n        /* \"#utility.yul\":3179:3184   */\n      dup2\n        /* \"#utility.yul\":3161:3185   */\n      tag_302\n      jump\t// in\n    tag_301:\n        /* \"#utility.yul\":3156:3159   */\n      dup3\n        /* \"#utility.yul\":3149:3186   */\n      mstore\n        /* \"#utility.yul\":3084:3192   */\n      pop\n      pop\n      jump\t// out\n        /* \"#utility.yul\":3198:3316   */\n    tag_303:\n        /* \"#utility.yul\":3285:3309   */\n      tag_305\n        /* \"#utility.yul\":3303:3308   */\n      dup2\n        /* \"#utility.yul\":3285:3309   */\n      tag_302\n      jump\t// in\n    tag_305:\n        /* \"#utility.yul\":3280:3283   */\n      dup3\n        /* \"#utility.yul\":3273:3310   */\n      mstore\n        /* \"#utility.yul\":3198:3316   */\n      pop\n      pop\n      jump\t// out\n        /* \"#utility.yul\":3322:3479   */\n    tag_306:\n        /* \"#utility.yul\":3427:3472   */\n      tag_308\n        /* \"#utility.yul\":3447:3471   */\n      tag_309\n        /* \"#utility.yul\":3465:3470   */\n      dup3\n        /* \"#utility.yul\":3447:3471   */\n      tag_302\n      jump\t// in\n    tag_309:\n        /* \"#utility.yul\":3427:3472   */\n      tag_310\n      jump\t// in\n    tag_308:\n        /* \"#utility.yul\":3422:3425   */\n      dup3\n        /* \"#utility.yul\":3415:3473   */\n      mstore\n        /* \"#utility.yul\":3322:3479   */\n      pop\n      pop\n      jump\t// out\n        /* \"#utility.yul\":3515:4247   */\n    tag_311:\n        /* \"#utility.yul\":3634:3637   */\n      0x00\n        /* \"#utility.yul\":3663:3717   */\n      tag_313\n        /* \"#utility.yul\":3711:3716   */\n      dup3\n        /* \"#utility.yul\":3663:3717   */\n      tag_314\n      jump\t// in\n    tag_313:\n        /* \"#utility.yul\":3733:3819   */\n      tag_315\n        /* \"#utility.yul\":3812:3818   */\n      dup2\n        /* \"#utility.yul\":3807:3810   */\n      dup6\n        /* \"#utility.yul\":3733:3819   */\n      tag_316\n      jump\t// in\n    tag_315:\n        /* \"#utility.yul\":3726:3819   */\n      swap4\n      pop\n        /* \"#utility.yul\":3843:3899   */\n      tag_317\n        /* \"#utility.yul\":3893:3898   */\n      dup4\n        /* \"#utility.yul\":3843:3899   */\n      tag_318\n      jump\t// in\n    tag_317:\n        /* \"#utility.yul\":3922:3929   */\n      dup1\n        /* \"#utility.yul\":3953:3954   */\n      0x00\n        /* \"#utility.yul\":3938:4222   */\n    tag_319:\n        /* \"#utility.yul\":3963:3969   */\n      dup4\n        /* \"#utility.yul\":3960:3961   */\n      dup2\n        /* \"#utility.yul\":3957:3970   */\n      lt\n        /* \"#utility.yul\":3938:4222   */\n      iszero\n      tag_321\n      jumpi\n        /* \"#utility.yul\":4039:4045   */\n      dup2\n        /* \"#utility.yul\":4033:4046   */\n      mload\n        /* \"#utility.yul\":4066:4129   */\n      tag_322\n        /* \"#utility.yul\":4125:4128   */\n      dup9\n        /* \"#utility.yul\":4110:4123   */\n      dup3\n        /* \"#utility.yul\":4066:4129   */\n      tag_288\n      jump\t// in\n    tag_322:\n        /* \"#utility.yul\":4059:4129   */\n      swap8\n      pop\n        /* \"#utility.yul\":4152:4212   */\n      tag_323\n        /* \"#utility.yul\":4205:4211   */\n      dup4\n        /* \"#utility.yul\":4152:4212   */\n      tag_324\n      jump\t// in\n    tag_323:\n        /* \"#utility.yul\":4142:4212   */\n      swap3\n      pop\n        /* \"#utility.yul\":3998:4222   */\n      pop\n        /* \"#utility.yul\":3985:3986   */\n      0x01\n        /* \"#utility.yul\":3982:3983   */\n      dup2\n        /* \"#utility.yul\":3978:3987   */\n      add\n        /* \"#utility.yul\":3973:3987   */\n      swap1\n      pop\n        /* \"#utility.yul\":3938:4222   */\n      jump(tag_319)\n    tag_321:\n        /* \"#utility.yul\":3942:3956   */\n      pop\n        /* \"#utility.yul\":4238:4241   */\n      dup6\n        /* \"#utility.yul\":4231:4241   */\n      swap4\n      pop\n        /* \"#utility.yul\":3639:4247   */\n      pop\n      pop\n      pop\n        /* \"#utility.yul\":3515:4247   */\n      swap3\n      swap2\n      pop\n      pop\n      jump\t// out\n        /* \"#utility.yul\":4315:5239   */\n    tag_325:\n        /* \"#utility.yul\":4482:4485   */\n      0x00\n        /* \"#utility.yul\":4511:4589   */\n      tag_327\n        /* \"#utility.yul\":4583:4588   */\n      dup3\n        /* \"#utility.yul\":4511:4589   */\n      tag_328\n      jump\t// in\n    tag_327:\n        /* \"#utility.yul\":4605:4715   */\n      tag_329\n        /* \"#utility.yul\":4708:4714   */\n      dup2\n        /* \"#utility.yul\":4703:4706   */\n      dup6\n        /* \"#utility.yul\":4605:4715   */\n      tag_330\n      jump\t// in\n    tag_329:\n        /* \"#utility.yul\":4598:4715   */\n      swap4\n      pop\n        /* \"#utility.yul\":4739:4819   */\n      tag_331\n        /* \"#utility.yul\":4813:4818   */\n      dup4\n        /* \"#utility.yul\":4739:4819   */\n      tag_332\n      jump\t// in\n    tag_331:\n        /* \"#utility.yul\":4842:4849   */\n      dup1\n        /* \"#utility.yul\":4873:4874   */\n      0x00\n        /* \"#utility.yul\":4858:5214   */\n    tag_333:\n        /* \"#utility.yul\":4883:4889   */\n      dup4\n        /* \"#utility.yul\":4880:4881   */\n      dup2\n        /* \"#utility.yul\":4877:4890   */\n      lt\n        /* \"#utility.yul\":4858:5214   */\n      iszero\n      tag_335\n      jumpi\n        /* \"#utility.yul\":4959:4965   */\n      dup2\n        /* \"#utility.yul\":4953:4966   */\n      mload\n        /* \"#utility.yul\":4986:5097   */\n      tag_336\n        /* \"#utility.yul\":5093:5096   */\n      dup9\n        /* \"#utility.yul\":5078:5091   */\n      dup3\n        /* \"#utility.yul\":4986:5097   */\n      tag_292\n      jump\t// in\n    tag_336:\n        /* \"#utility.yul\":4979:5097   */\n      swap8\n      pop\n        /* \"#utility.yul\":5120:5204   */\n      tag_337\n        /* \"#utility.yul\":5197:5203   */\n      dup4\n        /* \"#utility.yul\":5120:5204   */\n      tag_338\n      jump\t// in\n    tag_337:\n        /* \"#utility.yul\":5110:5204   */\n      swap3\n      pop\n        /* \"#utility.yul\":4918:5214   */\n      pop\n        /* \"#utility.yul\":4905:4906   */\n      0x01\n        /* \"#utility.yul\":4902:4903   */\n      dup2\n        /* \"#utility.yul\":4898:4907   */\n      add\n        /* \"#utility.yul\":4893:4907   */\n      swap1\n      pop\n        /* \"#utility.yul\":4858:5214   */\n      jump(tag_333)\n    tag_335:\n        /* \"#utility.yul\":4862:4876   */\n      pop\n        /* \"#utility.yul\":5230:5233   */\n      dup6\n        /* \"#utility.yul\":5223:5233   */\n      swap4\n      pop\n        /* \"#utility.yul\":4487:5239   */\n      pop\n      pop\n      pop\n        /* \"#utility.yul\":4315:5239   */\n      swap3\n      swap2\n      pop\n      pop\n      jump\t// out\n        /* \"#utility.yul\":5275:6007   */\n    tag_339:\n        /* \"#utility.yul\":5394:5397   */\n      0x00\n        /* \"#utility.yul\":5423:5477   */\n      tag_341\n        /* \"#utility.yul\":5471:5476   */\n      dup3\n        /* \"#utility.yul\":5423:5477   */\n      tag_342\n      jump\t// in\n    tag_341:\n        /* \"#utility.yul\":5493:5579   */\n      tag_343\n        /* \"#utility.yul\":5572:5578   */\n      dup2\n        /* \"#utility.yul\":5567:5570   */\n      dup6\n        /* \"#utility.yul\":5493:5579   */\n      tag_344\n      jump\t// in\n    tag_343:\n        /* \"#utility.yul\":5486:5579   */\n      swap4\n      pop\n        /* \"#utility.yul\":5603:5659   */\n      tag_345\n        /* \"#utility.yul\":5653:5658   */\n      dup4\n        /* \"#utility.yul\":5603:5659   */\n      tag_346\n      jump\t// in\n    tag_345:\n        /* \"#utility.yul\":5682:5689   */\n      dup1\n        /* \"#utility.yul\":5713:5714   */\n      0x00\n        /* \"#utility.yul\":5698:5982   */\n    tag_347:\n        /* \"#utility.yul\":5723:5729   */\n      dup4\n        /* \"#utility.yul\":5720:5721   */\n      dup2\n        /* \"#utility.yul\":5717:5730   */\n      lt\n        /* \"#utility.yul\":5698:5982   */\n      iszero\n      tag_349\n      jumpi\n        /* \"#utility.yul\":5799:5805   */\n      dup2\n        /* \"#utility.yul\":5793:5806   */\n      mload\n        /* \"#utility.yul\":5826:5889   */\n      tag_350\n        /* \"#utility.yul\":5885:5888   */\n      dup9\n        /* \"#utility.yul\":5870:5883   */\n      dup3\n        /* \"#utility.yul\":5826:5889   */\n      tag_296\n      jump\t// in\n    tag_350:\n        /* \"#utility.yul\":5819:5889   */\n      swap8\n      pop\n        /* \"#utility.yul\":5912:5972   */\n      tag_351\n        /* \"#utility.yul\":5965:5971   */\n      dup4\n        /* \"#utility.yul\":5912:5972   */\n      tag_352\n      jump\t// in\n    tag_351:\n        /* \"#utility.yul\":5902:5972   */\n      swap3\n      pop\n        /* \"#utility.yul\":5758:5982   */\n      pop\n        /* \"#utility.yul\":5745:5746   */\n      0x01\n        /* \"#utility.yul\":5742:5743   */\n      dup2\n        /* \"#utility.yul\":5738:5747   */\n      add\n        /* \"#utility.yul\":5733:5747   */\n      swap1\n      pop\n        /* \"#utility.yul\":5698:5982   */\n      jump(tag_347)\n    tag_349:\n        /* \"#utility.yul\":5702:5716   */\n      pop\n        /* \"#utility.yul\":5998:6001   */\n      dup6\n        /* \"#utility.yul\":5991:6001   */\n      swap4\n      pop\n        /* \"#utility.yul\":5399:6007   */\n      pop\n      pop\n      pop\n        /* \"#utility.yul\":5275:6007   */\n      swap3\n      swap2\n      pop\n      pop\n      jump\t// out\n        /* \"#utility.yul\":6013:6122   */\n    tag_353:\n        /* \"#utility.yul\":6094:6115   */\n      tag_355\n        /* \"#utility.yul\":6109:6114   */\n      dup2\n        /* \"#utility.yul\":6094:6115   */\n      tag_356\n      jump\t// in\n    tag_355:\n        /* \"#utility.yul\":6089:6092   */\n      dup3\n        /* \"#utility.yul\":6082:6116   */\n      mstore\n        /* \"#utility.yul\":6013:6122   */\n      pop\n      pop\n      jump\t// out\n        /* \"#utility.yul\":6128:6287   */\n    tag_357:\n        /* \"#utility.yul\":6229:6280   */\n      tag_359\n        /* \"#utility.yul\":6274:6279   */\n      dup2\n        /* \"#utility.yul\":6229:6280   */\n      tag_360\n      jump\t// in\n    tag_359:\n        /* \"#utility.yul\":6224:6227   */\n      dup3\n        /* \"#utility.yul\":6217:6281   */\n      mstore\n        /* \"#utility.yul\":6128:6287   */\n      pop\n      pop\n      jump\t// out\n        /* \"#utility.yul\":6293:6659   */\n    tag_361:\n        /* \"#utility.yul\":6435:6438   */\n      0x00\n        /* \"#utility.yul\":6456:6523   */\n      tag_363\n        /* \"#utility.yul\":6520:6522   */\n      0x26\n        /* \"#utility.yul\":6515:6518   */\n      dup4\n        /* \"#utility.yul\":6456:6523   */\n      tag_364\n      jump\t// in\n    tag_363:\n        /* \"#utility.yul\":6449:6523   */\n      swap2\n      pop\n        /* \"#utility.yul\":6532:6625   */\n      tag_365\n        /* \"#utility.yul\":6621:6624   */\n      dup3\n        /* \"#utility.yul\":6532:6625   */\n      tag_366\n      jump\t// in\n    tag_365:\n        /* \"#utility.yul\":6650:6652   */\n      0x40\n        /* \"#utility.yul\":6645:6648   */\n      dup3\n        /* \"#utility.yul\":6641:6653   */\n      add\n        /* \"#utility.yul\":6634:6653   */\n      swap1\n      pop\n        /* \"#utility.yul\":6293:6659   */\n      swap2\n      swap1\n      pop\n      jump\t// out\n        /* \"#utility.yul\":6665:7031   */\n    tag_367:\n        /* \"#utility.yul\":6807:6810   */\n      0x00\n        /* \"#utility.yul\":6828:6895   */\n      tag_369\n        /* \"#utility.yul\":6892:6894   */\n      0x20\n        /* \"#utility.yul\":6887:6890   */\n      dup4\n        /* \"#utility.yul\":6828:6895   */\n      tag_364\n      jump\t// in\n    tag_369:\n        /* \"#utility.yul\":6821:6895   */\n      swap2\n      pop\n        /* \"#utility.yul\":6904:6997   */\n      tag_370\n        /* \"#utility.yul\":6993:6996   */\n      dup3\n        /* \"#utility.yul\":6904:6997   */\n      tag_371\n      jump\t// in\n    tag_370:\n        /* \"#utility.yul\":7022:7024   */\n      0x20\n        /* \"#utility.yul\":7017:7020   */\n      dup3\n        /* \"#utility.yul\":7013:7025   */\n      add\n        /* \"#utility.yul\":7006:7025   */\n      swap1\n      pop\n        /* \"#utility.yul\":6665:7031   */\n      swap2\n      swap1\n      pop\n      jump\t// out\n        /* \"#utility.yul\":7095:8144   */\n    tag_295:\n        /* \"#utility.yul\":7230:7234   */\n      0xa0\n        /* \"#utility.yul\":7225:7228   */\n      dup3\n        /* \"#utility.yul\":7221:7235   */\n      add\n        /* \"#utility.yul\":7325:7329   */\n      0x00\n        /* \"#utility.yul\":7318:7323   */\n      dup3\n        /* \"#utility.yul\":7314:7330   */\n      add\n        /* \"#utility.yul\":7308:7331   */\n      mload\n        /* \"#utility.yul\":7344:7407   */\n      tag_373\n        /* \"#utility.yul\":7401:7405   */\n      0x00\n        /* \"#utility.yul\":7396:7399   */\n      dup6\n        /* \"#utility.yul\":7392:7406   */\n      add\n        /* \"#utility.yul\":7378:7390   */\n      dup3\n        /* \"#utility.yul\":7344:7407   */\n      tag_299\n      jump\t// in\n    tag_373:\n        /* \"#utility.yul\":7245:7417   */\n      pop\n        /* \"#utility.yul\":7508:7512   */\n      0x20\n        /* \"#utility.yul\":7501:7506   */\n      dup3\n        /* \"#utility.yul\":7497:7513   */\n      add\n        /* \"#utility.yul\":7491:7514   */\n      mload\n        /* \"#utility.yul\":7527:7590   */\n      tag_374\n        /* \"#utility.yul\":7584:7588   */\n      0x20\n        /* \"#utility.yul\":7579:7582   */\n      dup6\n        /* \"#utility.yul\":7575:7589   */\n      add\n        /* \"#utility.yul\":7561:7573   */\n      dup3\n        /* \"#utility.yul\":7527:7590   */\n      tag_299\n      jump\t// in\n    tag_374:\n        /* \"#utility.yul\":7427:7600   */\n      pop\n        /* \"#utility.yul\":7684:7688   */\n      0x40\n        /* \"#utility.yul\":7677:7682   */\n      dup3\n        /* \"#utility.yul\":7673:7689   */\n      add\n        /* \"#utility.yul\":7667:7690   */\n      mload\n        /* \"#utility.yul\":7703:7766   */\n      tag_375\n        /* \"#utility.yul\":7760:7764   */\n      0x40\n        /* \"#utility.yul\":7755:7758   */\n      dup6\n        /* \"#utility.yul\":7751:7765   */\n      add\n        /* \"#utility.yul\":7737:7749   */\n      dup3\n        /* \"#utility.yul\":7703:7766   */\n      tag_299\n      jump\t// in\n    tag_375:\n        /* \"#utility.yul\":7610:7776   */\n      pop\n        /* \"#utility.yul\":7861:7865   */\n      0x60\n        /* \"#utility.yul\":7854:7859   */\n      dup3\n        /* \"#utility.yul\":7850:7866   */\n      add\n        /* \"#utility.yul\":7844:7867   */\n      mload\n        /* \"#utility.yul\":7880:7943   */\n      tag_376\n        /* \"#utility.yul\":7937:7941   */\n      0x60\n        /* \"#utility.yul\":7932:7935   */\n      dup6\n        /* \"#utility.yul\":7928:7942   */\n      add\n        /* \"#utility.yul\":7914:7926   */\n      dup3\n        /* \"#utility.yul\":7880:7943   */\n      tag_299\n      jump\t// in\n    tag_376:\n        /* \"#utility.yul\":7786:7953   */\n      pop\n        /* \"#utility.yul\":8045:8049   */\n      0x80\n        /* \"#utility.yul\":8038:8043   */\n      dup3\n        /* \"#utility.yul\":8034:8050   */\n      add\n        /* \"#utility.yul\":8028:8051   */\n      mload\n        /* \"#utility.yul\":8064:8127   */\n      tag_377\n        /* \"#utility.yul\":8121:8125   */\n      0x80\n        /* \"#utility.yul\":8116:8119   */\n      dup6\n        /* \"#utility.yul\":8112:8126   */\n      add\n        /* \"#utility.yul\":8098:8110   */\n      dup3\n        /* \"#utility.yul\":8064:8127   */\n      tag_291\n      jump\t// in\n    tag_377:\n        /* \"#utility.yul\":7963:8137   */\n      pop\n        /* \"#utility.yul\":7199:8144   */\n      pop\n        /* \"#utility.yul\":7095:8144   */\n      pop\n      pop\n      jump\t// out\n        /* \"#utility.yul\":8150:8258   */\n    tag_299:\n        /* \"#utility.yul\":8227:8251   */\n      tag_379\n        /* \"#utility.yul\":8245:8250   */\n      dup2\n        /* \"#utility.yul\":8227:8251   */\n      tag_380\n      jump\t// in\n    tag_379:\n        /* \"#utility.yul\":8222:8225   */\n      dup3\n        /* \"#utility.yul\":8215:8252   */\n      mstore\n        /* \"#utility.yul\":8150:8258   */\n      pop\n      pop\n      jump\t// out\n        /* \"#utility.yul\":8264:8382   */\n    tag_381:\n        /* \"#utility.yul\":8351:8375   */\n      tag_383\n        /* \"#utility.yul\":8369:8374   */\n      dup2\n        /* \"#utility.yul\":8351:8375   */\n      tag_380\n      jump\t// in\n    tag_383:\n        /* \"#utility.yul\":8346:8349   */\n      dup3\n        /* \"#utility.yul\":8339:8376   */\n      mstore\n        /* \"#utility.yul\":8264:8382   */\n      pop\n      pop\n      jump\t// out\n        /* \"#utility.yul\":8388:8545   */\n    tag_384:\n        /* \"#utility.yul\":8493:8538   */\n      tag_386\n        /* \"#utility.yul\":8513:8537   */\n      tag_387\n        /* \"#utility.yul\":8531:8536   */\n      dup3\n        /* \"#utility.yul\":8513:8537   */\n      tag_380\n      jump\t// in\n    tag_387:\n        /* \"#utility.yul\":8493:8538   */\n      tag_388\n      jump\t// in\n    tag_386:\n        /* \"#utility.yul\":8488:8491   */\n      dup3\n        /* \"#utility.yul\":8481:8539   */\n      mstore\n        /* \"#utility.yul\":8388:8545   */\n      pop\n      pop\n      jump\t// out\n        /* \"#utility.yul\":8551:9371   */\n    tag_252:\n        /* \"#utility.yul\":8775:8778   */\n      0x00\n        /* \"#utility.yul\":8790:8865   */\n      tag_390\n        /* \"#utility.yul\":8861:8864   */\n      dup3\n        /* \"#utility.yul\":8852:8858   */\n      dup9\n        /* \"#utility.yul\":8790:8865   */\n      tag_384\n      jump\t// in\n    tag_390:\n        /* \"#utility.yul\":8890:8892   */\n      0x20\n        /* \"#utility.yul\":8885:8888   */\n      dup3\n        /* \"#utility.yul\":8881:8893   */\n      add\n        /* \"#utility.yul\":8874:8893   */\n      swap2\n      pop\n        /* \"#utility.yul\":8903:8978   */\n      tag_391\n        /* \"#utility.yul\":8974:8977   */\n      dup3\n        /* \"#utility.yul\":8965:8971   */\n      dup8\n        /* \"#utility.yul\":8903:8978   */\n      tag_384\n      jump\t// in\n    tag_391:\n        /* \"#utility.yul\":9003:9005   */\n      0x20\n        /* \"#utility.yul\":8998:9001   */\n      dup3\n        /* \"#utility.yul\":8994:9006   */\n      add\n        /* \"#utility.yul\":8987:9006   */\n      swap2\n      pop\n        /* \"#utility.yul\":9016:9091   */\n      tag_392\n        /* \"#utility.yul\":9087:9090   */\n      dup3\n        /* \"#utility.yul\":9078:9084   */\n      dup7\n        /* \"#utility.yul\":9016:9091   */\n      tag_384\n      jump\t// in\n    tag_392:\n        /* \"#utility.yul\":9116:9118   */\n      0x20\n        /* \"#utility.yul\":9111:9114   */\n      dup3\n        /* \"#utility.yul\":9107:9119   */\n      add\n        /* \"#utility.yul\":9100:9119   */\n      swap2\n      pop\n        /* \"#utility.yul\":9129:9204   */\n      tag_393\n        /* \"#utility.yul\":9200:9203   */\n      dup3\n        /* \"#utility.yul\":9191:9197   */\n      dup6\n        /* \"#utility.yul\":9129:9204   */\n      tag_306\n      jump\t// in\n    tag_393:\n        /* \"#utility.yul\":9229:9231   */\n      0x14\n        /* \"#utility.yul\":9224:9227   */\n      dup3\n        /* \"#utility.yul\":9220:9232   */\n      add\n        /* \"#utility.yul\":9213:9232   */\n      swap2\n      pop\n        /* \"#utility.yul\":9242:9317   */\n      tag_394\n        /* \"#utility.yul\":9313:9316   */\n      dup3\n        /* \"#utility.yul\":9304:9310   */\n      dup5\n        /* \"#utility.yul\":9242:9317   */\n      tag_384\n      jump\t// in\n    tag_394:\n        /* \"#utility.yul\":9342:9344   */\n      0x20\n        /* \"#utility.yul\":9337:9340   */\n      dup3\n        /* \"#utility.yul\":9333:9345   */\n      add\n        /* \"#utility.yul\":9326:9345   */\n      swap2\n      pop\n        /* \"#utility.yul\":9362:9365   */\n      dup2\n        /* \"#utility.yul\":9355:9365   */\n      swap1\n      pop\n        /* \"#utility.yul\":8551:9371   */\n      swap7\n      swap6\n      pop\n      pop\n      pop\n      pop\n      pop\n      pop\n      jump\t// out\n        /* \"#utility.yul\":9377:9599   */\n    tag_67:\n        /* \"#utility.yul\":9470:9474   */\n      0x00\n        /* \"#utility.yul\":9508:9510   */\n      0x20\n        /* \"#utility.yul\":9497:9506   */\n      dup3\n        /* \"#utility.yul\":9493:9511   */\n      add\n        /* \"#utility.yul\":9485:9511   */\n      swap1\n      pop\n        /* \"#utility.yul\":9521:9592   */\n      tag_396\n        /* \"#utility.yul\":9589:9590   */\n      0x00\n        /* \"#utility.yul\":9578:9587   */\n      dup4\n        /* \"#utility.yul\":9574:9591   */\n      add\n        /* \"#utility.yul\":9565:9571   */\n      dup5\n        /* \"#utility.yul\":9521:9592   */\n      tag_303\n      jump\t// in\n    tag_396:\n        /* \"#utility.yul\":9377:9599   */\n      swap3\n      swap2\n      pop\n      pop\n      jump\t// out\n        /* \"#utility.yul\":9605:9937   */\n    tag_167:\n        /* \"#utility.yul\":9726:9730   */\n      0x00\n        /* \"#utility.yul\":9764:9766   */\n      0x40\n        /* \"#utility.yul\":9753:9762   */\n      dup3\n        /* \"#utility.yul\":9749:9767   */\n      add\n        /* \"#utility.yul\":9741:9767   */\n      swap1\n      pop\n        /* \"#utility.yul\":9777:9848   */\n      tag_398\n        /* \"#utility.yul\":9845:9846   */\n      0x00\n        /* \"#utility.yul\":9834:9843   */\n      dup4\n        /* \"#utility.yul\":9830:9847   */\n      add\n        /* \"#utility.yul\":9821:9827   */\n      dup6\n        /* \"#utility.yul\":9777:9848   */\n      tag_303\n      jump\t// in\n    tag_398:\n        /* \"#utility.yul\":9858:9930   */\n      tag_399\n        /* \"#utility.yul\":9926:9928   */\n      0x20\n        /* \"#utility.yul\":9915:9924   */\n      dup4\n        /* \"#utility.yul\":9911:9929   */\n      add\n        /* \"#utility.yul\":9902:9908   */\n      dup5\n        /* \"#utility.yul\":9858:9930   */\n      tag_381\n      jump\t// in\n    tag_399:\n        /* \"#utility.yul\":9605:9937   */\n      swap4\n      swap3\n      pop\n      pop\n      pop\n      jump\t// out\n        /* \"#utility.yul\":9943:10577   */\n    tag_42:\n        /* \"#utility.yul\":10164:10168   */\n      0x00\n        /* \"#utility.yul\":10202:10204   */\n      0x40\n        /* \"#utility.yul\":10191:10200   */\n      dup3\n        /* \"#utility.yul\":10187:10205   */\n      add\n        /* \"#utility.yul\":10179:10205   */\n      swap1\n      pop\n        /* \"#utility.yul\":10251:10260   */\n      dup2\n        /* \"#utility.yul\":10245:10249   */\n      dup2\n        /* \"#utility.yul\":10241:10261   */\n      sub\n        /* \"#utility.yul\":10237:10238   */\n      0x00\n        /* \"#utility.yul\":10226:10235   */\n      dup4\n        /* \"#utility.yul\":10222:10239   */\n      add\n        /* \"#utility.yul\":10215:10262   */\n      mstore\n        /* \"#utility.yul\":10279:10387   */\n      tag_401\n        /* \"#utility.yul\":10382:10386   */\n      dup2\n        /* \"#utility.yul\":10373:10379   */\n      dup6\n        /* \"#utility.yul\":10279:10387   */\n      tag_311\n      jump\t// in\n    tag_401:\n        /* \"#utility.yul\":10271:10387   */\n      swap1\n      pop\n        /* \"#utility.yul\":10434:10443   */\n      dup2\n        /* \"#utility.yul\":10428:10432   */\n      dup2\n        /* \"#utility.yul\":10424:10444   */\n      sub\n        /* \"#utility.yul\":10419:10421   */\n      0x20\n        /* \"#utility.yul\":10408:10417   */\n      dup4\n        /* \"#utility.yul\":10404:10422   */\n      add\n        /* \"#utility.yul\":10397:10445   */\n      mstore\n        /* \"#utility.yul\":10462:10570   */\n      tag_402\n        /* \"#utility.yul\":10565:10569   */\n      dup2\n        /* \"#utility.yul\":10556:10562   */\n      dup5\n        /* \"#utility.yul\":10462:10570   */\n      tag_339\n      jump\t// in\n    tag_402:\n        /* \"#utility.yul\":10454:10570   */\n      swap1\n      pop\n        /* \"#utility.yul\":9943:10577   */\n      swap4\n      swap3\n      pop\n      pop\n      pop\n      jump\t// out\n        /* \"#utility.yul\":10583:11052   */\n    tag_93:\n        /* \"#utility.yul\":10774:10778   */\n      0x00\n        /* \"#utility.yul\":10812:10814   */\n      0x20\n        /* \"#utility.yul\":10801:10810   */\n      dup3\n        /* \"#utility.yul\":10797:10815   */\n      add\n        /* \"#utility.yul\":10789:10815   */\n      swap1\n      pop\n        /* \"#utility.yul\":10861:10870   */\n      dup2\n        /* \"#utility.yul\":10855:10859   */\n      dup2\n        /* \"#utility.yul\":10851:10871   */\n      sub\n        /* \"#utility.yul\":10847:10848   */\n      0x00\n        /* \"#utility.yul\":10836:10845   */\n      dup4\n        /* \"#utility.yul\":10832:10849   */\n      add\n        /* \"#utility.yul\":10825:10872   */\n      mstore\n        /* \"#utility.yul\":10889:11045   */\n      tag_404\n        /* \"#utility.yul\":11040:11044   */\n      dup2\n        /* \"#utility.yul\":11031:11037   */\n      dup5\n        /* \"#utility.yul\":10889:11045   */\n      tag_325\n      jump\t// in\n    tag_404:\n        /* \"#utility.yul\":10881:11045   */\n      swap1\n      pop\n        /* \"#utility.yul\":10583:11052   */\n      swap3\n      swap2\n      pop\n      pop\n      jump\t// out\n        /* \"#utility.yul\":11058:11268   */\n    tag_54:\n        /* \"#utility.yul\":11145:11149   */\n      0x00\n        /* \"#utility.yul\":11183:11185   */\n      0x20\n        /* \"#utility.yul\":11172:11181   */\n      dup3\n        /* \"#utility.yul\":11168:11186   */\n      add\n        /* \"#utility.yul\":11160:11186   */\n      swap1\n      pop\n        /* \"#utility.yul\":11196:11261   */\n      tag_406\n        /* \"#utility.yul\":11258:11259   */\n      0x00\n        /* \"#utility.yul\":11247:11256   */\n      dup4\n        /* \"#utility.yul\":11243:11260   */\n      add\n        /* \"#utility.yul\":11234:11240   */\n      dup5\n        /* \"#utility.yul\":11196:11261   */\n      tag_353\n      jump\t// in\n    tag_406:\n        /* \"#utility.yul\":11058:11268   */\n      swap3\n      swap2\n      pop\n      pop\n      jump\t// out\n        /* \"#utility.yul\":11274:11524   */\n    tag_71:\n        /* \"#utility.yul\":11381:11385   */\n      0x00\n        /* \"#utility.yul\":11419:11421   */\n      0x20\n        /* \"#utility.yul\":11408:11417   */\n      dup3\n        /* \"#utility.yul\":11404:11422   */\n      add\n        /* \"#utility.yul\":11396:11422   */\n      swap1\n      pop\n        /* \"#utility.yul\":11432:11517   */\n      tag_408\n        /* \"#utility.yul\":11514:11515   */\n      0x00\n        /* \"#utility.yul\":11503:11512   */\n      dup4\n        /* \"#utility.yul\":11499:11516   */\n      add\n        /* \"#utility.yul\":11490:11496   */\n      dup5\n        /* \"#utility.yul\":11432:11517   */\n      tag_357\n      jump\t// in\n    tag_408:\n        /* \"#utility.yul\":11274:11524   */\n      swap3\n      swap2\n      pop\n      pop\n      jump\t// out\n        /* \"#utility.yul\":11530:11949   */\n    tag_234:\n        /* \"#utility.yul\":11696:11700   */\n      0x00\n        /* \"#utility.yul\":11734:11736   */\n      0x20\n        /* \"#utility.yul\":11723:11732   */\n      dup3\n        /* \"#utility.yul\":11719:11737   */\n      add\n        /* \"#utility.yul\":11711:11737   */\n      swap1\n      pop\n        /* \"#utility.yul\":11783:11792   */\n      dup2\n        /* \"#utility.yul\":11777:11781   */\n      dup2\n        /* \"#utility.yul\":11773:11793   */\n      sub\n        /* \"#utility.yul\":11769:11770   */\n      0x00\n        /* \"#utility.yul\":11758:11767   */\n      dup4\n        /* \"#utility.yul\":11754:11771   */\n      add\n        /* \"#utility.yul\":11747:11794   */\n      mstore\n        /* \"#utility.yul\":11811:11942   */\n      tag_410\n        /* \"#utility.yul\":11937:11941   */\n      dup2\n        /* \"#utility.yul\":11811:11942   */\n      tag_361\n      jump\t// in\n    tag_410:\n        /* \"#utility.yul\":11803:11942   */\n      swap1\n      pop\n        /* \"#utility.yul\":11530:11949   */\n      swap2\n      swap1\n      pop\n      jump\t// out\n        /* \"#utility.yul\":11955:12374   */\n    tag_162:\n        /* \"#utility.yul\":12121:12125   */\n      0x00\n        /* \"#utility.yul\":12159:12161   */\n      0x20\n        /* \"#utility.yul\":12148:12157   */\n      dup3\n        /* \"#utility.yul\":12144:12162   */\n      add\n        /* \"#utility.yul\":12136:12162   */\n      swap1\n      pop\n        /* \"#utility.yul\":12208:12217   */\n      dup2\n        /* \"#utility.yul\":12202:12206   */\n      dup2\n        /* \"#utility.yul\":12198:12218   */\n      sub\n        /* \"#utility.yul\":12194:12195   */\n      0x00\n        /* \"#utility.yul\":12183:12192   */\n      dup4\n        /* \"#utility.yul\":12179:12196   */\n      add\n        /* \"#utility.yul\":12172:12219   */\n      mstore\n        /* \"#utility.yul\":12236:12367   */\n      tag_412\n        /* \"#utility.yul\":12362:12366   */\n      dup2\n        /* \"#utility.yul\":12236:12367   */\n      tag_367\n      jump\t// in\n    tag_412:\n        /* \"#utility.yul\":12228:12367   */\n      swap1\n      pop\n        /* \"#utility.yul\":11955:12374   */\n      swap2\n      swap1\n      pop\n      jump\t// out\n        /* \"#utility.yul\":12380:12602   */\n    tag_32:\n        /* \"#utility.yul\":12473:12477   */\n      0x00\n        /* \"#utility.yul\":12511:12513   */\n      0x20\n        /* \"#utility.yul\":12500:12509   */\n      dup3\n        /* \"#utility.yul\":12496:12514   */\n      add\n        /* \"#utility.yul\":12488:12514   */\n      swap1\n      pop\n        /* \"#utility.yul\":12524:12595   */\n      tag_414\n        /* \"#utility.yul\":12592:12593   */\n      0x00\n        /* \"#utility.yul\":12581:12590   */\n      dup4\n        /* \"#utility.yul\":12577:12594   */\n      add\n        /* \"#utility.yul\":12568:12574   */\n      dup5\n        /* \"#utility.yul\":12524:12595   */\n      tag_381\n      jump\t// in\n    tag_414:\n        /* \"#utility.yul\":12380:12602   */\n      swap3\n      swap2\n      pop\n      pop\n      jump\t// out\n        /* \"#utility.yul\":12608:12940   */\n    tag_104:\n        /* \"#utility.yul\":12729:12733   */\n      0x00\n        /* \"#utility.yul\":12767:12769   */\n      0x40\n        /* \"#utility.yul\":12756:12765   */\n      dup3\n        /* \"#utility.yul\":12752:12770   */\n      add\n        /* \"#utility.yul\":12744:12770   */\n      swap1\n      pop\n        /* \"#utility.yul\":12780:12851   */\n      tag_416\n        /* \"#utility.yul\":12848:12849   */\n      0x00\n        /* \"#utility.yul\":12837:12846   */\n      dup4\n        /* \"#utility.yul\":12833:12850   */\n      add\n        /* \"#utility.yul\":12824:12830   */\n      dup6\n        /* \"#utility.yul\":12780:12851   */\n      tag_381\n      jump\t// in\n    tag_416:\n        /* \"#utility.yul\":12861:12933   */\n      tag_417\n        /* \"#utility.yul\":12929:12931   */\n      0x20\n        /* \"#utility.yul\":12918:12927   */\n      dup4\n        /* \"#utility.yul\":12914:12932   */\n      add\n        /* \"#utility.yul\":12905:12911   */\n      dup5\n        /* \"#utility.yul\":12861:12933   */\n      tag_303\n      jump\t// in\n    tag_417:\n        /* \"#utility.yul\":12608:12940   */\n      swap4\n      swap3\n      pop\n      pop\n      pop\n      jump\t// out\n        /* \"#utility.yul\":12946:13610   */\n    tag_84:\n        /* \"#utility.yul\":13151:13155   */\n      0x00\n        /* \"#utility.yul\":13189:13192   */\n      0xa0\n        /* \"#utility.yul\":13178:13187   */\n      dup3\n        /* \"#utility.yul\":13174:13193   */\n      add\n        /* \"#utility.yul\":13166:13193   */\n      swap1\n      pop\n        /* \"#utility.yul\":13203:13274   */\n      tag_419\n        /* \"#utility.yul\":13271:13272   */\n      0x00\n        /* \"#utility.yul\":13260:13269   */\n      dup4\n        /* \"#utility.yul\":13256:13273   */\n      add\n        /* \"#utility.yul\":13247:13253   */\n      dup9\n        /* \"#utility.yul\":13203:13274   */\n      tag_381\n      jump\t// in\n    tag_419:\n        /* \"#utility.yul\":13284:13356   */\n      tag_420\n        /* \"#utility.yul\":13352:13354   */\n      0x20\n        /* \"#utility.yul\":13341:13350   */\n      dup4\n        /* \"#utility.yul\":13337:13355   */\n      add\n        /* \"#utility.yul\":13328:13334   */\n      dup8\n        /* \"#utility.yul\":13284:13356   */\n      tag_381\n      jump\t// in\n    tag_420:\n        /* \"#utility.yul\":13366:13438   */\n      tag_421\n        /* \"#utility.yul\":13434:13436   */\n      0x40\n        /* \"#utility.yul\":13423:13432   */\n      dup4\n        /* \"#utility.yul\":13419:13437   */\n      add\n        /* \"#utility.yul\":13410:13416   */\n      dup7\n        /* \"#utility.yul\":13366:13438   */\n      tag_381\n      jump\t// in\n    tag_421:\n        /* \"#utility.yul\":13448:13520   */\n      tag_422\n        /* \"#utility.yul\":13516:13518   */\n      0x60\n        /* \"#utility.yul\":13505:13514   */\n      dup4\n        /* \"#utility.yul\":13501:13519   */\n      add\n        /* \"#utility.yul\":13492:13498   */\n      dup6\n        /* \"#utility.yul\":13448:13520   */\n      tag_381\n      jump\t// in\n    tag_422:\n        /* \"#utility.yul\":13530:13603   */\n      tag_423\n        /* \"#utility.yul\":13598:13601   */\n      0x80\n        /* \"#utility.yul\":13587:13596   */\n      dup4\n        /* \"#utility.yul\":13583:13602   */\n      add\n        /* \"#utility.yul\":13574:13580   */\n      dup5\n        /* \"#utility.yul\":13530:13603   */\n      tag_303\n      jump\t// in\n    tag_423:\n        /* \"#utility.yul\":12946:13610   */\n      swap7\n      swap6\n      pop\n      pop\n      pop\n      pop\n      pop\n      pop\n      jump\t// out\n        /* \"#utility.yul\":13697:13829   */\n    tag_318:\n        /* \"#utility.yul\":13764:13768   */\n      0x00\n        /* \"#utility.yul\":13787:13790   */\n      dup2\n        /* \"#utility.yul\":13779:13790   */\n      swap1\n      pop\n        /* \"#utility.yul\":13817:13821   */\n      0x20\n        /* \"#utility.yul\":13812:13815   */\n      dup3\n        /* \"#utility.yul\":13808:13822   */\n      add\n        /* \"#utility.yul\":13800:13822   */\n      swap1\n      pop\n        /* \"#utility.yul\":13697:13829   */\n      swap2\n      swap1\n      pop\n      jump\t// out\n        /* \"#utility.yul\":13835:13991   */\n    tag_332:\n        /* \"#utility.yul\":13926:13930   */\n      0x00\n        /* \"#utility.yul\":13949:13952   */\n      dup2\n        /* \"#utility.yul\":13941:13952   */\n      swap1\n      pop\n        /* \"#utility.yul\":13979:13983   */\n      0x20\n        /* \"#utility.yul\":13974:13977   */\n      dup3\n        /* \"#utility.yul\":13970:13984   */\n      add\n        /* \"#utility.yul\":13962:13984   */\n      swap1\n      pop\n        /* \"#utility.yul\":13835:13991   */\n      swap2\n      swap1\n      pop\n      jump\t// out\n        /* \"#utility.yul\":13997:14129   */\n    tag_346:\n        /* \"#utility.yul\":14064:14068   */\n      0x00\n        /* \"#utility.yul\":14087:14090   */\n      dup2\n        /* \"#utility.yul\":14079:14090   */\n      swap1\n      pop\n        /* \"#utility.yul\":14117:14121   */\n      0x20\n        /* \"#utility.yul\":14112:14115   */\n      dup3\n        /* \"#utility.yul\":14108:14122   */\n      add\n        /* \"#utility.yul\":14100:14122   */\n      swap1\n      pop\n        /* \"#utility.yul\":13997:14129   */\n      swap2\n      swap1\n      pop\n      jump\t// out\n        /* \"#utility.yul\":14135:14249   */\n    tag_314:\n        /* \"#utility.yul\":14202:14208   */\n      0x00\n        /* \"#utility.yul\":14236:14241   */\n      dup2\n        /* \"#utility.yul\":14230:14242   */\n      mload\n        /* \"#utility.yul\":14220:14242   */\n      swap1\n      pop\n        /* \"#utility.yul\":14135:14249   */\n      swap2\n      swap1\n      pop\n      jump\t// out\n        /* \"#utility.yul\":14255:14393   */\n    tag_328:\n        /* \"#utility.yul\":14346:14352   */\n      0x00\n        /* \"#utility.yul\":14380:14385   */\n      dup2\n        /* \"#utility.yul\":14374:14386   */\n      mload\n        /* \"#utility.yul\":14364:14386   */\n      swap1\n      pop\n        /* \"#utility.yul\":14255:14393   */\n      swap2\n      swap1\n      pop\n      jump\t// out\n        /* \"#utility.yul\":14399:14513   */\n    tag_342:\n        /* \"#utility.yul\":14466:14472   */\n      0x00\n        /* \"#utility.yul\":14500:14505   */\n      dup2\n        /* \"#utility.yul\":14494:14506   */\n      mload\n        /* \"#utility.yul\":14484:14506   */\n      swap1\n      pop\n        /* \"#utility.yul\":14399:14513   */\n      swap2\n      swap1\n      pop\n      jump\t// out\n        /* \"#utility.yul\":14519:14632   */\n    tag_324:\n        /* \"#utility.yul\":14589:14593   */\n      0x00\n        /* \"#utility.yul\":14621:14625   */\n      0x20\n        /* \"#utility.yul\":14616:14619   */\n      dup3\n        /* \"#utility.yul\":14612:14626   */\n      add\n        /* \"#utility.yul\":14604:14626   */\n      swap1\n      pop\n        /* \"#utility.yul\":14519:14632   */\n      swap2\n      swap1\n      pop\n      jump\t// out\n        /* \"#utility.yul\":14638:14775   */\n    tag_338:\n        /* \"#utility.yul\":14732:14736   */\n      0x00\n        /* \"#utility.yul\":14764:14768   */\n      0x20\n        /* \"#utility.yul\":14759:14762   */\n      dup3\n        /* \"#utility.yul\":14755:14769   */\n      add\n        /* \"#utility.yul\":14747:14769   */\n      swap1\n      pop\n        /* \"#utility.yul\":14638:14775   */\n      swap2\n      swap1\n      pop\n      jump\t// out\n        /* \"#utility.yul\":14781:14894   */\n    tag_352:\n        /* \"#utility.yul\":14851:14855   */\n      0x00\n        /* \"#utility.yul\":14883:14887   */\n      0x20\n        /* \"#utility.yul\":14878:14881   */\n      dup3\n        /* \"#utility.yul\":14874:14888   */\n      add\n        /* \"#utility.yul\":14866:14888   */\n      swap1\n      pop\n        /* \"#utility.yul\":14781:14894   */\n      swap2\n      swap1\n      pop\n      jump\t// out\n        /* \"#utility.yul\":14900:15084   */\n    tag_316:\n        /* \"#utility.yul\":14999:15010   */\n      0x00\n        /* \"#utility.yul\":15033:15039   */\n      dup3\n        /* \"#utility.yul\":15028:15031   */\n      dup3\n        /* \"#utility.yul\":15021:15040   */\n      mstore\n        /* \"#utility.yul\":15073:15077   */\n      0x20\n        /* \"#utility.yul\":15068:15071   */\n      dup3\n        /* \"#utility.yul\":15064:15078   */\n      add\n        /* \"#utility.yul\":15049:15078   */\n      swap1\n      pop\n        /* \"#utility.yul\":14900:15084   */\n      swap3\n      swap2\n      pop\n      pop\n      jump\t// out\n        /* \"#utility.yul\":15090:15298   */\n    tag_330:\n        /* \"#utility.yul\":15213:15224   */\n      0x00\n        /* \"#utility.yul\":15247:15253   */\n      dup3\n        /* \"#utility.yul\":15242:15245   */\n      dup3\n        /* \"#utility.yul\":15235:15254   */\n      mstore\n        /* \"#utility.yul\":15287:15291   */\n      0x20\n        /* \"#utility.yul\":15282:15285   */\n      dup3\n        /* \"#utility.yul\":15278:15292   */\n      add\n        /* \"#utility.yul\":15263:15292   */\n      swap1\n      pop\n        /* \"#utility.yul\":15090:15298   */\n      swap3\n      swap2\n      pop\n      pop\n      jump\t// out\n        /* \"#utility.yul\":15304:15488   */\n    tag_344:\n        /* \"#utility.yul\":15403:15414   */\n      0x00\n        /* \"#utility.yul\":15437:15443   */\n      dup3\n        /* \"#utility.yul\":15432:15435   */\n      dup3\n        /* \"#utility.yul\":15425:15444   */\n      mstore\n        /* \"#utility.yul\":15477:15481   */\n      0x20\n        /* \"#utility.yul\":15472:15475   */\n      dup3\n        /* \"#utility.yul\":15468:15482   */\n      add\n        /* \"#utility.yul\":15453:15482   */\n      swap1\n      pop\n        /* \"#utility.yul\":15304:15488   */\n      swap3\n      swap2\n      pop\n      pop\n      jump\t// out\n        /* \"#utility.yul\":15494:15663   */\n    tag_364:\n        /* \"#utility.yul\":15578:15589   */\n      0x00\n        /* \"#utility.yul\":15612:15618   */\n      dup3\n        /* \"#utility.yul\":15607:15610   */\n      dup3\n        /* \"#utility.yul\":15600:15619   */\n      mstore\n        /* \"#utility.yul\":15652:15656   */\n      0x20\n        /* \"#utility.yul\":15647:15650   */\n      dup3\n        /* \"#utility.yul\":15643:15657   */\n      add\n        /* \"#utility.yul\":15628:15657   */\n      swap1\n      pop\n        /* \"#utility.yul\":15494:15663   */\n      swap3\n      swap2\n      pop\n      pop\n      jump\t// out\n        /* \"#utility.yul\":15669:15974   */\n    tag_149:\n        /* \"#utility.yul\":15709:15712   */\n      0x00\n        /* \"#utility.yul\":15728:15748   */\n      tag_440\n        /* \"#utility.yul\":15746:15747   */\n      dup3\n        /* \"#utility.yul\":15728:15748   */\n      tag_380\n      jump\t// in\n    tag_440:\n        /* \"#utility.yul\":15723:15748   */\n      swap2\n      pop\n        /* \"#utility.yul\":15762:15782   */\n      tag_441\n        /* \"#utility.yul\":15780:15781   */\n      dup4\n        /* \"#utility.yul\":15762:15782   */\n      tag_380\n      jump\t// in\n    tag_441:\n        /* \"#utility.yul\":15757:15782   */\n      swap3\n      pop\n        /* \"#utility.yul\":15916:15917   */\n      dup3\n        /* \"#utility.yul\":15848:15914   */\n      0xffffffffffffffffffffffffffffffffffffffffffffffffffffffffffffffff\n        /* \"#utility.yul\":15844:15918   */\n      sub\n        /* \"#utility.yul\":15841:15842   */\n      dup3\n        /* \"#utility.yul\":15838:15919   */\n      gt\n        /* \"#utility.yul\":15835:15942   */\n      iszero\n      tag_442\n      jumpi\n        /* \"#utility.yul\":15922:15940   */\n      tag_443\n      tag_444\n      jump\t// in\n    tag_443:\n        /* \"#utility.yul\":15835:15942   */\n    tag_442:\n        /* \"#utility.yul\":15966:15967   */\n      dup3\n        /* \"#utility.yul\":15963:15964   */\n      dup3\n        /* \"#utility.yul\":15959:15968   */\n      add\n        /* \"#utility.yul\":15952:15968   */\n      swap1\n      pop\n        /* \"#utility.yul\":15669:15974   */\n      swap3\n      swap2\n      pop\n      pop\n      jump\t// out\n        /* \"#utility.yul\":15980:16171   */\n    tag_187:\n        /* \"#utility.yul\":16020:16024   */\n      0x00\n        /* \"#utility.yul\":16040:16060   */\n      tag_446\n        /* \"#utility.yul\":16058:16059   */\n      dup3\n        /* \"#utility.yul\":16040:16060   */\n      tag_380\n      jump\t// in\n    tag_446:\n        /* \"#utility.yul\":16035:16060   */\n      swap2\n      pop\n        /* \"#utility.yul\":16074:16094   */\n      tag_447\n        /* \"#utility.yul\":16092:16093   */\n      dup4\n        /* \"#utility.yul\":16074:16094   */\n      tag_380\n      jump\t// in\n    tag_447:\n        /* \"#utility.yul\":16069:16094   */\n      swap3\n      pop\n        /* \"#utility.yul\":16113:16114   */\n      dup3\n        /* \"#utility.yul\":16110:16111   */\n      dup3\n        /* \"#utility.yul\":16107:16115   */\n      lt\n        /* \"#utility.yul\":16104:16138   */\n      iszero\n      tag_448\n      jumpi\n        /* \"#utility.yul\":16118:16136   */\n      tag_449\n      tag_444\n      jump\t// in\n    tag_449:\n        /* \"#utility.yul\":16104:16138   */\n    tag_448:\n        /* \"#utility.yul\":16163:16164   */\n      dup3\n        /* \"#utility.yul\":16160:16161   */\n      dup3\n        /* \"#utility.yul\":16156:16165   */\n      sub\n        /* \"#utility.yul\":16148:16165   */\n      swap1\n      pop\n        /* \"#utility.yul\":15980:16171   */\n      swap3\n      swap2\n      pop\n      pop\n      jump\t// out\n        /* \"#utility.yul\":16177:16273   */\n    tag_302:\n        /* \"#utility.yul\":16214:16221   */\n      0x00\n        /* \"#utility.yul\":16243:16267   */\n      tag_451\n        /* \"#utility.yul\":16261:16266   */\n      dup3\n        /* \"#utility.yul\":16243:16267   */\n      tag_452\n      jump\t// in\n    tag_451:\n        /* \"#utility.yul\":16232:16267   */\n      swap1\n      pop\n        /* \"#utility.yul\":16177:16273   */\n      swap2\n      swap1\n      pop\n      jump\t// out\n        /* \"#utility.yul\":16279:16369   */\n    tag_356:\n        /* \"#utility.yul\":16313:16320   */\n      0x00\n        /* \"#utility.yul\":16356:16361   */\n      dup2\n        /* \"#utility.yul\":16349:16362   */\n      iszero\n        /* \"#utility.yul\":16342:16363   */\n      iszero\n        /* \"#utility.yul\":16331:16363   */\n      swap1\n      pop\n        /* \"#utility.yul\":16279:16369   */\n      swap2\n      swap1\n      pop\n      jump\t// out\n        /* \"#utility.yul\":16375:16501   */\n    tag_452:\n        /* \"#utility.yul\":16412:16419   */\n      0x00\n        /* \"#utility.yul\":16452:16494   */\n      0xffffffffffffffffffffffffffffffffffffffff\n        /* \"#utility.yul\":16445:16450   */\n      dup3\n        /* \"#utility.yul\":16441:16495   */\n      and\n        /* \"#utility.yul\":16430:16495   */\n      swap1\n      pop\n        /* \"#utility.yul\":16375:16501   */\n      swap2\n      swap1\n      pop\n      jump\t// out\n        /* \"#utility.yul\":16507:16584   */\n    tag_380:\n        /* \"#utility.yul\":16544:16551   */\n      0x00\n        /* \"#utility.yul\":16573:16578   */\n      dup2\n        /* \"#utility.yul\":16562:16578   */\n      swap1\n      pop\n        /* \"#utility.yul\":16507:16584   */\n      swap2\n      swap1\n      pop\n      jump\t// out\n        /* \"#utility.yul\":16590:16730   */\n    tag_360:\n        /* \"#utility.yul\":16654:16663   */\n      0x00\n        /* \"#utility.yul\":16687:16724   */\n      tag_457\n        /* \"#utility.yul\":16718:16723   */\n      dup3\n        /* \"#utility.yul\":16687:16724   */\n      tag_458\n      jump\t// in\n    tag_457:\n        /* \"#utility.yul\":16674:16724   */\n      swap1\n      pop\n        /* \"#utility.yul\":16590:16730   */\n      swap2\n      swap1\n      pop\n      jump\t// out\n        /* \"#utility.yul\":16736:16862   */\n    tag_458:\n        /* \"#utility.yul\":16786:16795   */\n      0x00\n        /* \"#utility.yul\":16819:16856   */\n      tag_460\n        /* \"#utility.yul\":16850:16855   */\n      dup3\n        /* \"#utility.yul\":16819:16856   */\n      tag_461\n      jump\t// in\n    tag_460:\n        /* \"#utility.yul\":16806:16856   */\n      swap1\n      pop\n        /* \"#utility.yul\":16736:16862   */\n      swap2\n      swap1\n      pop\n      jump\t// out\n        /* \"#utility.yul\":16868:16981   */\n    tag_461:\n        /* \"#utility.yul\":16918:16927   */\n      0x00\n        /* \"#utility.yul\":16951:16975   */\n      tag_463\n        /* \"#utility.yul\":16969:16974   */\n      dup3\n        /* \"#utility.yul\":16951:16975   */\n      tag_452\n      jump\t// in\n    tag_463:\n        /* \"#utility.yul\":16938:16975   */\n      swap1\n      pop\n        /* \"#utility.yul\":16868:16981   */\n      swap2\n      swap1\n      pop\n      jump\t// out\n        /* \"#utility.yul\":16987:17220   */\n    tag_120:\n        /* \"#utility.yul\":17026:17029   */\n      0x00\n        /* \"#utility.yul\":17049:17073   */\n      tag_465\n        /* \"#utility.yul\":17067:17072   */\n      dup3\n        /* \"#utility.yul\":17049:17073   */\n      tag_380\n      jump\t// in\n    tag_465:\n        /* \"#utility.yul\":17040:17073   */\n      swap2\n      pop\n        /* \"#utility.yul\":17095:17161   */\n      0xffffffffffffffffffffffffffffffffffffffffffffffffffffffffffffffff\n        /* \"#utility.yul\":17088:17093   */\n      dup3\n        /* \"#utility.yul\":17085:17162   */\n      eq\n        /* \"#utility.yul\":17082:17185   */\n      iszero\n      tag_466\n      jumpi\n        /* \"#utility.yul\":17165:17183   */\n      tag_467\n      tag_444\n      jump\t// in\n    tag_467:\n        /* \"#utility.yul\":17082:17185   */\n    tag_466:\n        /* \"#utility.yul\":17212:17213   */\n      0x01\n        /* \"#utility.yul\":17205:17210   */\n      dup3\n        /* \"#utility.yul\":17201:17214   */\n      add\n        /* \"#utility.yul\":17194:17214   */\n      swap1\n      pop\n        /* \"#utility.yul\":16987:17220   */\n      swap2\n      swap1\n      pop\n      jump\t// out\n        /* \"#utility.yul\":17226:17326   */\n    tag_310:\n        /* \"#utility.yul\":17265:17272   */\n      0x00\n        /* \"#utility.yul\":17294:17320   */\n      tag_469\n        /* \"#utility.yul\":17314:17319   */\n      dup3\n        /* \"#utility.yul\":17294:17320   */\n      tag_470\n      jump\t// in\n    tag_469:\n        /* \"#utility.yul\":17283:17320   */\n      swap1\n      pop\n        /* \"#utility.yul\":17226:17326   */\n      swap2\n      swap1\n      pop\n      jump\t// out\n        /* \"#utility.yul\":17332:17426   */\n    tag_470:\n        /* \"#utility.yul\":17371:17378   */\n      0x00\n        /* \"#utility.yul\":17400:17420   */\n      tag_472\n        /* \"#utility.yul\":17414:17419   */\n      dup3\n        /* \"#utility.yul\":17400:17420   */\n      tag_473\n      jump\t// in\n    tag_472:\n        /* \"#utility.yul\":17389:17420   */\n      swap1\n      pop\n        /* \"#utility.yul\":17332:17426   */\n      swap2\n      swap1\n      pop\n      jump\t// out\n        /* \"#utility.yul\":17432:17511   */\n    tag_388:\n        /* \"#utility.yul\":17471:17478   */\n      0x00\n        /* \"#utility.yul\":17500:17505   */\n      dup2\n        /* \"#utility.yul\":17489:17505   */\n      swap1\n      pop\n        /* \"#utility.yul\":17432:17511   */\n      swap2\n      swap1\n      pop\n      jump\t// out\n        /* \"#utility.yul\":17517:17693   */\n    tag_240:\n        /* \"#utility.yul\":17549:17550   */\n      0x00\n        /* \"#utility.yul\":17566:17586   */\n      tag_476\n        /* \"#utility.yul\":17584:17585   */\n      dup3\n        /* \"#utility.yul\":17566:17586   */\n      tag_380\n      jump\t// in\n    tag_476:\n        /* \"#utility.yul\":17561:17586   */\n      swap2\n      pop\n        /* \"#utility.yul\":17600:17620   */\n      tag_477\n        /* \"#utility.yul\":17618:17619   */\n      dup4\n        /* \"#utility.yul\":17600:17620   */\n      tag_380\n      jump\t// in\n    tag_477:\n        /* \"#utility.yul\":17595:17620   */\n      swap3\n      pop\n        /* \"#utility.yul\":17639:17640   */\n      dup3\n        /* \"#utility.yul\":17629:17664   */\n      tag_478\n      jumpi\n        /* \"#utility.yul\":17644:17662   */\n      tag_479\n      tag_480\n      jump\t// in\n    tag_479:\n        /* \"#utility.yul\":17629:17664   */\n    tag_478:\n        /* \"#utility.yul\":17685:17686   */\n      dup3\n        /* \"#utility.yul\":17682:17683   */\n      dup3\n        /* \"#utility.yul\":17678:17687   */\n      mod\n        /* \"#utility.yul\":17673:17687   */\n      swap1\n      pop\n        /* \"#utility.yul\":17517:17693   */\n      swap3\n      swap2\n      pop\n      pop\n      jump\t// out\n        /* \"#utility.yul\":17699:17879   */\n    tag_444:\n        /* \"#utility.yul\":17747:17824   */\n      0x4e487b7100000000000000000000000000000000000000000000000000000000\n        /* \"#utility.yul\":17744:17745   */\n      0x00\n        /* \"#utility.yul\":17737:17825   */\n      mstore\n        /* \"#utility.yul\":17844:17848   */\n      0x11\n        /* \"#utility.yul\":17841:17842   */\n      0x04\n        /* \"#utility.yul\":17834:17849   */\n      mstore\n        /* \"#utility.yul\":17868:17872   */\n      0x24\n        /* \"#utility.yul\":17865:17866   */\n      0x00\n        /* \"#utility.yul\":17858:17873   */\n      revert\n        /* \"#utility.yul\":17885:18065   */\n    tag_480:\n        /* \"#utility.yul\":17933:18010   */\n      0x4e487b7100000000000000000000000000000000000000000000000000000000\n        /* \"#utility.yul\":17930:17931   */\n      0x00\n        /* \"#utility.yul\":17923:18011   */\n      mstore\n        /* \"#utility.yul\":18030:18034   */\n      0x12\n        /* \"#utility.yul\":18027:18028   */\n      0x04\n        /* \"#utility.yul\":18020:18035   */\n      mstore\n        /* \"#utility.yul\":18054:18058   */\n      0x24\n        /* \"#utility.yul\":18051:18052   */\n      0x00\n        /* \"#utility.yul\":18044:18059   */\n      revert\n        /* \"#utility.yul\":18071:18251   */\n    tag_194:\n        /* \"#utility.yul\":18119:18196   */\n      0x4e487b7100000000000000000000000000000000000000000000000000000000\n        /* \"#utility.yul\":18116:18117   */\n      0x00\n        /* \"#utility.yul\":18109:18197   */\n      mstore\n        /* \"#utility.yul\":18216:18220   */\n      0x31\n        /* \"#utility.yul\":18213:18214   */\n      0x04\n        /* \"#utility.yul\":18206:18221   */\n      mstore\n        /* \"#utility.yul\":18240:18244   */\n      0x24\n        /* \"#utility.yul\":18237:18238   */\n      0x00\n        /* \"#utility.yul\":18230:18245   */\n      revert\n        /* \"#utility.yul\":18257:18437   */\n    tag_116:\n        /* \"#utility.yul\":18305:18382   */\n      0x4e487b7100000000000000000000000000000000000000000000000000000000\n        /* \"#utility.yul\":18302:18303   */\n      0x00\n        /* \"#utility.yul\":18295:18383   */\n      mstore\n        /* \"#utility.yul\":18402:18406   */\n      0x32\n        /* \"#utility.yul\":18399:18400   */\n      0x04\n        /* \"#utility.yul\":18392:18407   */\n      mstore\n        /* \"#utility.yul\":18426:18430   */\n      0x24\n        /* \"#utility.yul\":18423:18424   */\n      0x00\n        /* \"#utility.yul\":18416:18431   */\n      revert\n        /* \"#utility.yul\":18443:18623   */\n    tag_126:\n        /* \"#utility.yul\":18491:18568   */\n      0x4e487b7100000000000000000000000000000000000000000000000000000000\n        /* \"#utility.yul\":18488:18489   */\n      0x00\n        /* \"#utility.yul\":18481:18569   */\n      mstore\n        /* \"#utility.yul\":18588:18592   */\n      0x41\n        /* \"#utility.yul\":18585:18586   */\n      0x04\n        /* \"#utility.yul\":18578:18593   */\n      mstore\n        /* \"#utility.yul\":18612:18616   */\n      0x24\n        /* \"#utility.yul\":18609:18610   */\n      0x00\n        /* \"#utility.yul\":18602:18617   */\n      revert\n        /* \"#utility.yul\":18752:18869   */\n    tag_268:\n        /* \"#utility.yul\":18861:18862   */\n      0x00\n        /* \"#utility.yul\":18858:18859   */\n      dup1\n        /* \"#utility.yul\":18851:18863   */\n      revert\n        /* \"#utility.yul\":18875:18969   */\n    tag_473:\n        /* \"#utility.yul\":18908:18916   */\n      0x00\n        /* \"#utility.yul\":18956:18961   */\n      dup2\n        /* \"#utility.yul\":18952:18954   */\n      0x60\n        /* \"#utility.yul\":18948:18962   */\n      shl\n        /* \"#utility.yul\":18927:18962   */\n      swap1\n      pop\n        /* \"#utility.yul\":18875:18969   */\n      swap2\n      swap1\n      pop\n      jump\t// out\n        /* \"#utility.yul\":18975:19200   */\n    tag_366:\n        /* \"#utility.yul\":19115:19149   */\n      0x4f776e61626c653a206e6577206f776e657220697320746865207a65726f2061\n        /* \"#utility.yul\":19111:19112   */\n      0x00\n        /* \"#utility.yul\":19103:19109   */\n      dup3\n        /* \"#utility.yul\":19099:19113   */\n      add\n        /* \"#utility.yul\":19092:19150   */\n      mstore\n        /* \"#utility.yul\":19184:19192   */\n      0x6464726573730000000000000000000000000000000000000000000000000000\n        /* \"#utility.yul\":19179:19181   */\n      0x20\n        /* \"#utility.yul\":19171:19177   */\n      dup3\n        /* \"#utility.yul\":19167:19182   */\n      add\n        /* \"#utility.yul\":19160:19193   */\n      mstore\n        /* \"#utility.yul\":18975:19200   */\n      pop\n      jump\t// out\n        /* \"#utility.yul\":19206:19388   */\n    tag_371:\n        /* \"#utility.yul\":19346:19380   */\n      0x4f776e61626c653a2063616c6c6572206973206e6f7420746865206f776e6572\n        /* \"#utility.yul\":19342:19343   */\n      0x00\n        /* \"#utility.yul\":19334:19340   */\n      dup3\n        /* \"#utility.yul\":19330:19344   */\n      add\n        /* \"#utility.yul\":19323:19381   */\n      mstore\n        /* \"#utility.yul\":19206:19388   */\n      pop\n      jump\t// out\n        /* \"#utility.yul\":19394:19516   */\n    tag_257:\n        /* \"#utility.yul\":19467:19491   */\n      tag_493\n        /* \"#utility.yul\":19485:19490   */\n      dup2\n        /* \"#utility.yul\":19467:19491   */\n      tag_302\n      jump\t// in\n    tag_493:\n        /* \"#utility.yul\":19460:19465   */\n      dup2\n        /* \"#utility.yul\":19457:19492   */\n      eq\n        /* \"#utility.yul\":19447:19510   */\n      tag_494\n      jumpi\n        /* \"#utility.yul\":19506:19507   */\n      0x00\n        /* \"#utility.yul\":19503:19504   */\n      dup1\n        /* \"#utility.yul\":19496:19508   */\n      revert\n        /* \"#utility.yul\":19447:19510   */\n    tag_494:\n        /* \"#utility.yul\":19394:19516   */\n      pop\n      jump\t// out\n        /* \"#utility.yul\":19522:19644   */\n    tag_261:\n        /* \"#utility.yul\":19595:19619   */\n      tag_496\n        /* \"#utility.yul\":19613:19618   */\n      dup2\n        /* \"#utility.yul\":19595:19619   */\n      tag_380\n      jump\t// in\n    tag_496:\n        /* \"#utility.yul\":19588:19593   */\n      dup2\n        /* \"#utility.yul\":19585:19620   */\n      eq\n        /* \"#utility.yul\":19575:19638   */\n      tag_497\n      jumpi\n        /* \"#utility.yul\":19634:19635   */\n      0x00\n        /* \"#utility.yul\":19631:19632   */\n      dup1\n        /* \"#utility.yul\":19624:19636   */\n      revert\n        /* \"#utility.yul\":19575:19638   */\n    tag_497:\n        /* \"#utility.yul\":19522:19644   */\n      pop\n      jump\t// out\n\n    auxdata: 0xa2646970667358221220eb25d025f57eadd1e11c97cde84fc3738897f86c45d9082b9c0fb93d566c676564736f6c63430008070033\n}\n",
				"bytecode": {
					"linkReferences": {},
					"object": "60806040523480156200001157600080fd5b5060405162001fc238038062001fc2833981810160405281019062000037919062000182565b620000576200004b6200009f60201b60201c565b620000a760201b60201c565b80600460006101000a81548173ffffffffffffffffffffffffffffffffffffffff021916908373ffffffffffffffffffffffffffffffffffffffff1602179055505062000207565b600033905090565b60008060009054906101000a900473ffffffffffffffffffffffffffffffffffffffff169050816000806101000a81548173ffffffffffffffffffffffffffffffffffffffff021916908373ffffffffffffffffffffffffffffffffffffffff1602179055508173ffffffffffffffffffffffffffffffffffffffff168173ffffffffffffffffffffffffffffffffffffffff167f8be0079c531659141344cd1fd0a4f28419497f9722a3daafe3b4186f6b6457e060405160405180910390a35050565b6000815190506200017c81620001ed565b92915050565b6000602082840312156200019b576200019a620001e8565b5b6000620001ab848285016200016b565b91505092915050565b6000620001c182620001c8565b9050919050565b600073ffffffffffffffffffffffffffffffffffffffff82169050919050565b600080fd5b620001f881620001b4565b81146200020457600080fd5b50565b611dab80620002176000396000f3fe608060405234801561001057600080fd5b50600436106101375760003560e01c80638da5cb5b116100b8578063b657dd651161007c578063b657dd6514610331578063bc15cdf014610361578063c4740a9514610391578063f2fde38b146103ad578063f737d21d146103c9578063f9cee0bd146103fa57610137565b80638da5cb5b146102755780639b3e4552146102935780639f10a990146102b1578063a59460dc146102e1578063ac128f4f146102fd57610137565b8063454f7b8f116100ff578063454f7b8f146101e35780635bedc390146102015780636fbb5a8614610231578063715018a61461024d57806376636d201461025757610137565b80630d9882701461013c578063119b22b31461016c578063158977de1461018a5780633b98bc65146101a8578063443b80a1146101c7575b600080fd5b610156600480360381019061015191906113eb565b610418565b60405161016391906118cf565b60405180910390f35b610174610449565b60405161018191906118cf565b60405180910390f35b61019261044f565b60405161019f91906118cf565b60405180910390f35b6101b0610520565b6040516101be929190611800565b60405180910390f35b6101e160048036038101906101dc91906113eb565b610749565b005b6101eb610857565b6040516101f891906118cf565b60405180910390f35b61021b600480360381019061021691906113be565b61085d565b6040516102289190611859565b60405180910390f35b61024b60048036038101906102469190611485565b610877565b005b610255610a60565b005b61025f610ae8565b60405161026c91906118cf565b60405180910390f35b61027d610aee565b60405161028a91906117bc565b60405180910390f35b61029b610b17565b6040516102a89190611874565b60405180910390f35b6102cb60048036038101906102c691906113be565b610b3d565b6040516102d891906118cf565b60405180910390f35b6102fb60048036038101906102f691906113eb565b610b89565b005b6103176004803603810190610312919061142b565b610d98565b604051610328959493929190611913565b60405180910390f35b61034b6004803603810190610346919061142b565b610dee565b60405161035891906117bc565b60405180910390f35b61037b60048036038101906103769190611485565b610e21565b6040516103889190611837565b60405180910390f35b6103ab60048036038101906103a691906113be565b611016565b005b6103c760048036038101906103c291906113be565b611031565b005b6103e360048036038101906103de919061142b565b611129565b6040516103f19291906118ea565b60405180910390f35b61040261117f565b60405161040f91906118cf565b60405180910390f35b6007602052816000526040600020818154811061043457600080fd5b90600052602060002001600091509150505481565b60025481565b6000805b60015481101561051c5760006006600083815260200190815260200160002060009054906101000a900473ffffffffffffffffffffffffffffffffffffffff169050600760008273ffffffffffffffffffffffffffffffffffffffff1673ffffffffffffffffffffffffffffffffffffffff1681526020019081526020016000206000815481106104e7576104e6611c5f565b5b906000526020600020015482141561050857828061050490611b2a565b9350505b50808061051490611b2a565b915050610453565b5090565b606080600061052d61044f565b90508067ffffffffffffffff81111561054957610548611c8e565b5b6040519080825280602002602001820160405280156105775781602001602082028036833780820191505090505b5092508067ffffffffffffffff81111561059457610593611c8e565b5b6040519080825280602002602001820160405280156105c25781602001602082028036833780820191505090505b5091506000805b6001548110156107425760006006600083815260200190815260200160002060009054906101000a900473ffffffffffffffffffffffffffffffffffffffff169050600760008273ffffffffffffffffffffffffffffffffffffffff1673ffffffffffffffffffffffffffffffffffffffff16815260200190815260200160002060008154811061065d5761065c611c5f565b5b906000526020600020015482141561072e578086848151811061068357610682611c5f565b5b602002602001019073ffffffffffffffffffffffffffffffffffffffff16908173ffffffffffffffffffffffffffffffffffffffff1681525050600760008273ffffffffffffffffffffffffffffffffffffffff1673ffffffffffffffffffffffffffffffffffffffff1681526020019081526020016000208054905085848151811061071357610712611c5f565b5b602002602001018181525050828061072a90611b2a565b9350505b50808061073a90611b2a565b9150506105c9565b5050509091565b60005b81811015610839578260066000836001546107679190611a22565b815260200190815260200160002060006101000a81548173ffffffffffffffffffffffffffffffffffffffff021916908373ffffffffffffffffffffffffffffffffffffffff160217905550600760008473ffffffffffffffffffffffffffffffffffffffff1673ffffffffffffffffffffffffffffffffffffffff168152602001908152602001600020816001546108009190611a22565b9080600181540180825580915050600190039060005260206000200160009091909190915055808061083190611b2a565b91505061074c565b50806001600082825461084c9190611a22565b925050819055505050565b60035481565b60008061086983610b3d565b905060008111915050919050565b61087f611231565b73ffffffffffffffffffffffffffffffffffffffff1661089d610aee565b73ffffffffffffffffffffffffffffffffffffffff16146108f3576040517f08c379a00000000000000000000000000000000000000000000000000000000081526004016108ea906118af565b60405180910390fd5b60006006600084815260200190815260200160002060009054906101000a900473ffffffffffffffffffffffffffffffffffffffff1690506040518060a0016040528060015481526020018481526020018381526020014281526020018273ffffffffffffffffffffffffffffffffffffffff168152506005600060025481526020019081526020016000206000820151816000015560208201518160010155604082015181600201556060820151816003015560808201518160040160006101000a81548173ffffffffffffffffffffffffffffffffffffffff021916908373ffffffffffffffffffffffffffffffffffffffff1602179055509050508160036000828254610a039190611a22565b9250508190555060026000815480929190610a1d90611b2a565b91905055507f2e798dd4337e515c79b64c40e1a93baa1aefbd9180ac7905e02508edd7971e508183604051610a539291906117d7565b60405180910390a1505050565b610a68611231565b73ffffffffffffffffffffffffffffffffffffffff16610a86610aee565b73ffffffffffffffffffffffffffffffffffffffff1614610adc576040517f08c379a0000000000000000000000000000000000000000000000000000000008152600401610ad3906118af565b60405180910390fd5b610ae66000611239565b565b60015481565b60008060009054906101000a900473ffffffffffffffffffffffffffffffffffffffff16905090565b600460009054906101000a900473ffffffffffffffffffffffffffffffffffffffff1681565b6000600760008373ffffffffffffffffffffffffffffffffffffffff1673ffffffffffffffffffffffffffffffffffffffff168152602001908152602001600020805490509050919050565b6000610b9483610b3d565b90506000811415610ba55750610d94565b80821115610bb1578091505b6000600190505b828111610d78576000600760008673ffffffffffffffffffffffffffffffffffffffff1673ffffffffffffffffffffffffffffffffffffffff1681526020019081526020016000206001600760008873ffffffffffffffffffffffffffffffffffffffff1673ffffffffffffffffffffffffffffffffffffffff16815260200190815260200160002080549050610c4f9190611a78565b81548110610c6057610c5f611c5f565b5b906000526020600020015490506006600083600154610c7f9190611a78565b815260200190815260200160002060009054906101000a900473ffffffffffffffffffffffffffffffffffffffff166006600083815260200190815260200160002060006101000a81548173ffffffffffffffffffffffffffffffffffffffff021916908373ffffffffffffffffffffffffffffffffffffffff160217905550600760008673ffffffffffffffffffffffffffffffffffffffff1673ffffffffffffffffffffffffffffffffffffffff168152602001908152602001600020805480610d4e57610d4d611c30565b5b60019003818190600052602060002001600090559055508080610d7090611b2a565b915050610bb8565b508160016000828254610d8b9190611a78565b92505081905550505b5050565b60056020528060005260406000206000915090508060000154908060010154908060020154908060030154908060040160009054906101000a900473ffffffffffffffffffffffffffffffffffffffff16905085565b60066020528060005260406000206000915054906101000a900473ffffffffffffffffffffffffffffffffffffffff1681565b606060006002541415610e8a57600067ffffffffffffffff811115610e4957610e48611c8e565b5b604051908082528060200260200182016040528015610e8257816020015b610e6f61133a565b815260200190600190039081610e675790505b509050611010565b6002548210610ea5576001600254610ea29190611a78565b91505b600060018484610eb59190611a78565b610ebf9190611a22565b905060008167ffffffffffffffff811115610edd57610edc611c8e565b5b604051908082528060200260200182016040528015610f1657816020015b610f0361133a565b815260200190600190039081610efb5790505b50925060008590505b84811161100c57600560008288610f369190611a22565b81526020019081526020016000206040518060a0016040529081600082015481526020016001820154815260200160028201548152602001600382015481526020016004820160009054906101000a900473ffffffffffffffffffffffffffffffffffffffff1673ffffffffffffffffffffffffffffffffffffffff1673ffffffffffffffffffffffffffffffffffffffff1681525050848381518110610fe057610fdf611c5f565b5b60200260200101819052508180610ff690611b2a565b925050808061100490611b2a565b915050610f1f565b5050505b92915050565b600061102182610b3d565b905061102d8282610b89565b5050565b611039611231565b73ffffffffffffffffffffffffffffffffffffffff16611057610aee565b73ffffffffffffffffffffffffffffffffffffffff16146110ad576040517f08c379a00000000000000000000000000000000000000000000000000000000081526004016110a4906118af565b60405180910390fd5b600073ffffffffffffffffffffffffffffffffffffffff168173ffffffffffffffffffffffffffffffffffffffff16141561111d576040517f08c379a00000000000000000000000000000000000000000000000000000000081526004016111149061188f565b60405180910390fd5b61112681611239565b50565b600080600154611138846112fd565b6111429190611ba1565b91506006600083815260200190815260200160002060009054906101000a900473ffffffffffffffffffffffffffffffffffffffff169050915091565b6000600460009054906101000a900473ffffffffffffffffffffffffffffffffffffffff1673ffffffffffffffffffffffffffffffffffffffff166370a08231306040518263ffffffff1660e01b81526004016111dc91906117bc565b60206040518083038186803b1580156111f457600080fd5b505afa158015611208573d6000803e3d6000fd5b505050506040513d601f19601f8201168201806040525081019061122c9190611458565b905090565b600033905090565b60008060009054906101000a900473ffffffffffffffffffffffffffffffffffffffff169050816000806101000a81548173ffffffffffffffffffffffffffffffffffffffff021916908373ffffffffffffffffffffffffffffffffffffffff1602179055508173ffffffffffffffffffffffffffffffffffffffff168173ffffffffffffffffffffffffffffffffffffffff167f8be0079c531659141344cd1fd0a4f28419497f9722a3daafe3b4186f6b6457e060405160405180910390a35050565b600081425a3360015460405160200161131a95949392919061175d565b6040516020818303038152906040528051906020012060001c9050919050565b6040518060a0016040528060008152602001600081526020016000815260200160008152602001600073ffffffffffffffffffffffffffffffffffffffff1681525090565b60008135905061138e81611d47565b92915050565b6000813590506113a381611d5e565b92915050565b6000815190506113b881611d5e565b92915050565b6000602082840312156113d4576113d3611cbd565b5b60006113e28482850161137f565b91505092915050565b6000806040838503121561140257611401611cbd565b5b60006114108582860161137f565b925050602061142185828601611394565b9150509250929050565b60006020828403121561144157611440611cbd565b5b600061144f84828501611394565b91505092915050565b60006020828403121561146e5761146d611cbd565b5b600061147c848285016113a9565b91505092915050565b6000806040838503121561149c5761149b611cbd565b5b60006114aa85828601611394565b92505060206114bb85828601611394565b9150509250929050565b60006114d1838361150d565b60208301905092915050565b60006114e983836116c0565b60a08301905092915050565b60006115018383611728565b60208301905092915050565b61151681611aac565b82525050565b61152581611aac565b82525050565b61153c61153782611aac565b611b73565b82525050565b600061154d82611996565b61155781856119de565b935061156283611966565b8060005b8381101561159357815161157a88826114c5565b9750611585836119b7565b925050600181019050611566565b5085935050505092915050565b60006115ab826119a1565b6115b581856119ef565b93506115c083611976565b8060005b838110156115f15781516115d888826114dd565b97506115e3836119c4565b9250506001810190506115c4565b5085935050505092915050565b6000611609826119ac565b6116138185611a00565b935061161e83611986565b8060005b8381101561164f57815161163688826114f5565b9750611641836119d1565b925050600181019050611622565b5085935050505092915050565b61166581611abe565b82525050565b61167481611af4565b82525050565b6000611687602683611a11565b915061169282611ccf565b604082019050919050565b60006116aa602083611a11565b91506116b582611d1e565b602082019050919050565b60a0820160008201516116d66000850182611728565b5060208201516116e96020850182611728565b5060408201516116fc6040850182611728565b50606082015161170f6060850182611728565b506080820151611722608085018261150d565b50505050565b61173181611aea565b82525050565b61174081611aea565b82525050565b61175761175282611aea565b611b97565b82525050565b60006117698288611746565b6020820191506117798287611746565b6020820191506117898286611746565b602082019150611799828561152b565b6014820191506117a98284611746565b6020820191508190509695505050505050565b60006020820190506117d1600083018461151c565b92915050565b60006040820190506117ec600083018561151c565b6117f96020830184611737565b9392505050565b6000604082019050818103600083015261181a8185611542565b9050818103602083015261182e81846115fe565b90509392505050565b6000602082019050818103600083015261185181846115a0565b905092915050565b600060208201905061186e600083018461165c565b92915050565b6000602082019050611889600083018461166b565b92915050565b600060208201905081810360008301526118a88161167a565b9050919050565b600060208201905081810360008301526118c88161169d565b9050919050565b60006020820190506118e46000830184611737565b92915050565b60006040820190506118ff6000830185611737565b61190c602083018461151c565b9392505050565b600060a0820190506119286000830188611737565b6119356020830187611737565b6119426040830186611737565b61194f6060830185611737565b61195c608083018461151c565b9695505050505050565b6000819050602082019050919050565b6000819050602082019050919050565b6000819050602082019050919050565b600081519050919050565b600081519050919050565b600081519050919050565b6000602082019050919050565b6000602082019050919050565b6000602082019050919050565b600082825260208201905092915050565b600082825260208201905092915050565b600082825260208201905092915050565b600082825260208201905092915050565b6000611a2d82611aea565b9150611a3883611aea565b9250827fffffffffffffffffffffffffffffffffffffffffffffffffffffffffffffffff03821115611a6d57611a6c611bd2565b5b828201905092915050565b6000611a8382611aea565b9150611a8e83611aea565b925082821015611aa157611aa0611bd2565b5b828203905092915050565b6000611ab782611aca565b9050919050565b60008115159050919050565b600073ffffffffffffffffffffffffffffffffffffffff82169050919050565b6000819050919050565b6000611aff82611b06565b9050919050565b6000611b1182611b18565b9050919050565b6000611b2382611aca565b9050919050565b6000611b3582611aea565b91507fffffffffffffffffffffffffffffffffffffffffffffffffffffffffffffffff821415611b6857611b67611bd2565b5b600182019050919050565b6000611b7e82611b85565b9050919050565b6000611b9082611cc2565b9050919050565b6000819050919050565b6000611bac82611aea565b9150611bb783611aea565b925082611bc757611bc6611c01565b5b828206905092915050565b7f4e487b7100000000000000000000000000000000000000000000000000000000600052601160045260246000fd5b7f4e487b7100000000000000000000000000000000000000000000000000000000600052601260045260246000fd5b7f4e487b7100000000000000000000000000000000000000000000000000000000600052603160045260246000fd5b7f4e487b7100000000000000000000000000000000000000000000000000000000600052603260045260246000fd5b7f4e487b7100000000000000000000000000000000000000000000000000000000600052604160045260246000fd5b600080fd5b60008160601b9050919050565b7f4f776e61626c653a206e6577206f776e657220697320746865207a65726f206160008201527f6464726573730000000000000000000000000000000000000000000000000000602082015250565b7f4f776e61626c653a2063616c6c6572206973206e6f7420746865206f776e6572600082015250565b611d5081611aac565b8114611d5b57600080fd5b50565b611d6781611aea565b8114611d7257600080fd5b5056fea2646970667358221220eb25d025f57eadd1e11c97cde84fc3738897f86c45d9082b9c0fb93d566c676564736f6c63430008070033",
					"opcodes": "PUSH1 0x80 PUSH1 0x40 MSTORE CALLVALUE DUP1 ISZERO PUSH3 0x11 JUMPI PUSH1 0x0 DUP1 REVERT JUMPDEST POP PUSH1 0x40 MLOAD PUSH3 0x1FC2 CODESIZE SUB DUP1 PUSH3 0x1FC2 DUP4 CODECOPY DUP2 DUP2 ADD PUSH1 0x40 MSTORE DUP2 ADD SWAP1 PUSH3 0x37 SWAP2 SWAP1 PUSH3 0x182 JUMP JUMPDEST PUSH3 0x57 PUSH3 0x4B PUSH3 0x9F PUSH1 0x20 SHL PUSH1 0x20 SHR JUMP JUMPDEST PUSH3 0xA7 PUSH1 0x20 SHL PUSH1 0x20 SHR JUMP JUMPDEST DUP1 PUSH1 0x4 PUSH1 0x0 PUSH2 0x100 EXP DUP2 SLOAD DUP2 PUSH20 0xFFFFFFFFFFFFFFFFFFFFFFFFFFFFFFFFFFFFFFFF MUL NOT AND SWAP1 DUP4 PUSH20 0xFFFFFFFFFFFFFFFFFFFFFFFFFFFFFFFFFFFFFFFF AND MUL OR SWAP1 SSTORE POP POP PUSH3 0x207 JUMP JUMPDEST PUSH1 0x0 CALLER SWAP1 POP SWAP1 JUMP JUMPDEST PUSH1 0x0 DUP1 PUSH1 0x0 SWAP1 SLOAD SWAP1 PUSH2 0x100 EXP SWAP1 DIV PUSH20 0xFFFFFFFFFFFFFFFFFFFFFFFFFFFFFFFFFFFFFFFF AND SWAP1 POP DUP2 PUSH1 0x0 DUP1 PUSH2 0x100 EXP DUP2 SLOAD DUP2 PUSH20 0xFFFFFFFFFFFFFFFFFFFFFFFFFFFFFFFFFFFFFFFF MUL NOT AND SWAP1 DUP4 PUSH20 0xFFFFFFFFFFFFFFFFFFFFFFFFFFFFFFFFFFFFFFFF AND MUL OR SWAP1 SSTORE POP DUP2 PUSH20 0xFFFFFFFFFFFFFFFFFFFFFFFFFFFFFFFFFFFFFFFF AND DUP2 PUSH20 0xFFFFFFFFFFFFFFFFFFFFFFFFFFFFFFFFFFFFFFFF AND PUSH32 0x8BE0079C531659141344CD1FD0A4F28419497F9722A3DAAFE3B4186F6B6457E0 PUSH1 0x40 MLOAD PUSH1 0x40 MLOAD DUP1 SWAP2 SUB SWAP1 LOG3 POP POP JUMP JUMPDEST PUSH1 0x0 DUP2 MLOAD SWAP1 POP PUSH3 0x17C DUP2 PUSH3 0x1ED JUMP JUMPDEST SWAP3 SWAP2 POP POP JUMP JUMPDEST PUSH1 0x0 PUSH1 0x20 DUP3 DUP5 SUB SLT ISZERO PUSH3 0x19B JUMPI PUSH3 0x19A PUSH3 0x1E8 JUMP JUMPDEST JUMPDEST PUSH1 0x0 PUSH3 0x1AB DUP5 DUP3 DUP6 ADD PUSH3 0x16B JUMP JUMPDEST SWAP2 POP POP SWAP3 SWAP2 POP POP JUMP JUMPDEST PUSH1 0x0 PUSH3 0x1C1 DUP3 PUSH3 0x1C8 JUMP JUMPDEST SWAP1 POP SWAP2 SWAP1 POP JUMP JUMPDEST PUSH1 0x0 PUSH20 0xFFFFFFFFFFFFFFFFFFFFFFFFFFFFFFFFFFFFFFFF DUP3 AND SWAP1 POP SWAP2 SWAP1 POP JUMP JUMPDEST PUSH1 0x0 DUP1 REVERT JUMPDEST PUSH3 0x1F8 DUP2 PUSH3 0x1B4 JUMP JUMPDEST DUP2 EQ PUSH3 0x204 JUMPI PUSH1 0x0 DUP1 REVERT JUMPDEST POP JUMP JUMPDEST PUSH2 0x1DAB DUP1 PUSH3 0x217 PUSH1 0x0 CODECOPY PUSH1 0x0 RETURN INVALID PUSH1 0x80 PUSH1 0x40 MSTORE CALLVALUE DUP1 ISZERO PUSH2 0x10 JUMPI PUSH1 0x0 DUP1 REVERT JUMPDEST POP PUSH1 0x4 CALLDATASIZE LT PUSH2 0x137 JUMPI PUSH1 0x0 CALLDATALOAD PUSH1 0xE0 SHR DUP1 PUSH4 0x8DA5CB5B GT PUSH2 0xB8 JUMPI DUP1 PUSH4 0xB657DD65 GT PUSH2 0x7C JUMPI DUP1 PUSH4 0xB657DD65 EQ PUSH2 0x331 JUMPI DUP1 PUSH4 0xBC15CDF0 EQ PUSH2 0x361 JUMPI DUP1 PUSH4 0xC4740A95 EQ PUSH2 0x391 JUMPI DUP1 PUSH4 0xF2FDE38B EQ PUSH2 0x3AD JUMPI DUP1 PUSH4 0xF737D21D EQ PUSH2 0x3C9 JUMPI DUP1 PUSH4 0xF9CEE0BD EQ PUSH2 0x3FA JUMPI PUSH2 0x137 JUMP JUMPDEST DUP1 PUSH4 0x8DA5CB5B EQ PUSH2 0x275 JUMPI DUP1 PUSH4 0x9B3E4552 EQ PUSH2 0x293 JUMPI DUP1 PUSH4 0x9F10A990 EQ PUSH2 0x2B1 JUMPI DUP1 PUSH4 0xA59460DC EQ PUSH2 0x2E1 JUMPI DUP1 PUSH4 0xAC128F4F EQ PUSH2 0x2FD JUMPI PUSH2 0x137 JUMP JUMPDEST DUP1 PUSH4 0x454F7B8F GT PUSH2 0xFF JUMPI DUP1 PUSH4 0x454F7B8F EQ PUSH2 0x1E3 JUMPI DUP1 PUSH4 0x5BEDC390 EQ PUSH2 0x201 JUMPI DUP1 PUSH4 0x6FBB5A86 EQ PUSH2 0x231 JUMPI DUP1 PUSH4 0x715018A6 EQ PUSH2 0x24D JUMPI DUP1 PUSH4 0x76636D20 EQ PUSH2 0x257 JUMPI PUSH2 0x137 JUMP JUMPDEST DUP1 PUSH4 0xD988270 EQ PUSH2 0x13C JUMPI DUP1 PUSH4 0x119B22B3 EQ PUSH2 0x16C JUMPI DUP1 PUSH4 0x158977DE EQ PUSH2 0x18A JUMPI DUP1 PUSH4 0x3B98BC65 EQ PUSH2 0x1A8 JUMPI DUP1 PUSH4 0x443B80A1 EQ PUSH2 0x1C7 JUMPI JUMPDEST PUSH1 0x0 DUP1 REVERT JUMPDEST PUSH2 0x156 PUSH1 0x4 DUP1 CALLDATASIZE SUB DUP2 ADD SWAP1 PUSH2 0x151 SWAP2 SWAP1 PUSH2 0x13EB JUMP JUMPDEST PUSH2 0x418 JUMP JUMPDEST PUSH1 0x40 MLOAD PUSH2 0x163 SWAP2 SWAP1 PUSH2 0x18CF JUMP JUMPDEST PUSH1 0x40 MLOAD DUP1 SWAP2 SUB SWAP1 RETURN JUMPDEST PUSH2 0x174 PUSH2 0x449 JUMP JUMPDEST PUSH1 0x40 MLOAD PUSH2 0x181 SWAP2 SWAP1 PUSH2 0x18CF JUMP JUMPDEST PUSH1 0x40 MLOAD DUP1 SWAP2 SUB SWAP1 RETURN JUMPDEST PUSH2 0x192 PUSH2 0x44F JUMP JUMPDEST PUSH1 0x40 MLOAD PUSH2 0x19F SWAP2 SWAP1 PUSH2 0x18CF JUMP JUMPDEST PUSH1 0x40 MLOAD DUP1 SWAP2 SUB SWAP1 RETURN JUMPDEST PUSH2 0x1B0 PUSH2 0x520 JUMP JUMPDEST PUSH1 0x40 MLOAD PUSH2 0x1BE SWAP3 SWAP2 SWAP1 PUSH2 0x1800 JUMP JUMPDEST PUSH1 0x40 MLOAD DUP1 SWAP2 SUB SWAP1 RETURN JUMPDEST PUSH2 0x1E1 PUSH1 0x4 DUP1 CALLDATASIZE SUB DUP2 ADD SWAP1 PUSH2 0x1DC SWAP2 SWAP1 PUSH2 0x13EB JUMP JUMPDEST PUSH2 0x749 JUMP JUMPDEST STOP JUMPDEST PUSH2 0x1EB PUSH2 0x857 JUMP JUMPDEST PUSH1 0x40 MLOAD PUSH2 0x1F8 SWAP2 SWAP1 PUSH2 0x18CF JUMP JUMPDEST PUSH1 0x40 MLOAD DUP1 SWAP2 SUB SWAP1 RETURN JUMPDEST PUSH2 0x21B PUSH1 0x4 DUP1 CALLDATASIZE SUB DUP2 ADD SWAP1 PUSH2 0x216 SWAP2 SWAP1 PUSH2 0x13BE JUMP JUMPDEST PUSH2 0x85D JUMP JUMPDEST PUSH1 0x40 MLOAD PUSH2 0x228 SWAP2 SWAP1 PUSH2 0x1859 JUMP JUMPDEST PUSH1 0x40 MLOAD DUP1 SWAP2 SUB SWAP1 RETURN JUMPDEST PUSH2 0x24B PUSH1 0x4 DUP1 CALLDATASIZE SUB DUP2 ADD SWAP1 PUSH2 0x246 SWAP2 SWAP1 PUSH2 0x1485 JUMP JUMPDEST PUSH2 0x877 JUMP JUMPDEST STOP JUMPDEST PUSH2 0x255 PUSH2 0xA60 JUMP JUMPDEST STOP JUMPDEST PUSH2 0x25F PUSH2 0xAE8 JUMP JUMPDEST PUSH1 0x40 MLOAD PUSH2 0x26C SWAP2 SWAP1 PUSH2 0x18CF JUMP JUMPDEST PUSH1 0x40 MLOAD DUP1 SWAP2 SUB SWAP1 RETURN JUMPDEST PUSH2 0x27D PUSH2 0xAEE JUMP JUMPDEST PUSH1 0x40 MLOAD PUSH2 0x28A SWAP2 SWAP1 PUSH2 0x17BC JUMP JUMPDEST PUSH1 0x40 MLOAD DUP1 SWAP2 SUB SWAP1 RETURN JUMPDEST PUSH2 0x29B PUSH2 0xB17 JUMP JUMPDEST PUSH1 0x40 MLOAD PUSH2 0x2A8 SWAP2 SWAP1 PUSH2 0x1874 JUMP JUMPDEST PUSH1 0x40 MLOAD DUP1 SWAP2 SUB SWAP1 RETURN JUMPDEST PUSH2 0x2CB PUSH1 0x4 DUP1 CALLDATASIZE SUB DUP2 ADD SWAP1 PUSH2 0x2C6 SWAP2 SWAP1 PUSH2 0x13BE JUMP JUMPDEST PUSH2 0xB3D JUMP JUMPDEST PUSH1 0x40 MLOAD PUSH2 0x2D8 SWAP2 SWAP1 PUSH2 0x18CF JUMP JUMPDEST PUSH1 0x40 MLOAD DUP1 SWAP2 SUB SWAP1 RETURN JUMPDEST PUSH2 0x2FB PUSH1 0x4 DUP1 CALLDATASIZE SUB DUP2 ADD SWAP1 PUSH2 0x2F6 SWAP2 SWAP1 PUSH2 0x13EB JUMP JUMPDEST PUSH2 0xB89 JUMP JUMPDEST STOP JUMPDEST PUSH2 0x317 PUSH1 0x4 DUP1 CALLDATASIZE SUB DUP2 ADD SWAP1 PUSH2 0x312 SWAP2 SWAP1 PUSH2 0x142B JUMP JUMPDEST PUSH2 0xD98 JUMP JUMPDEST PUSH1 0x40 MLOAD PUSH2 0x328 SWAP6 SWAP5 SWAP4 SWAP3 SWAP2 SWAP1 PUSH2 0x1913 JUMP JUMPDEST PUSH1 0x40 MLOAD DUP1 SWAP2 SUB SWAP1 RETURN JUMPDEST PUSH2 0x34B PUSH1 0x4 DUP1 CALLDATASIZE SUB DUP2 ADD SWAP1 PUSH2 0x346 SWAP2 SWAP1 PUSH2 0x142B JUMP JUMPDEST PUSH2 0xDEE JUMP JUMPDEST PUSH1 0x40 MLOAD PUSH2 0x358 SWAP2 SWAP1 PUSH2 0x17BC JUMP JUMPDEST PUSH1 0x40 MLOAD DUP1 SWAP2 SUB SWAP1 RETURN JUMPDEST PUSH2 0x37B PUSH1 0x4 DUP1 CALLDATASIZE SUB DUP2 ADD SWAP1 PUSH2 0x376 SWAP2 SWAP1 PUSH2 0x1485 JUMP JUMPDEST PUSH2 0xE21 JUMP JUMPDEST PUSH1 0x40 MLOAD PUSH2 0x388 SWAP2 SWAP1 PUSH2 0x1837 JUMP JUMPDEST PUSH1 0x40 MLOAD DUP1 SWAP2 SUB SWAP1 RETURN JUMPDEST PUSH2 0x3AB PUSH1 0x4 DUP1 CALLDATASIZE SUB DUP2 ADD SWAP1 PUSH2 0x3A6 SWAP2 SWAP1 PUSH2 0x13BE JUMP JUMPDEST PUSH2 0x1016 JUMP JUMPDEST STOP JUMPDEST PUSH2 0x3C7 PUSH1 0x4 DUP1 CALLDATASIZE SUB DUP2 ADD SWAP1 PUSH2 0x3C2 SWAP2 SWAP1 PUSH2 0x13BE JUMP JUMPDEST PUSH2 0x1031 JUMP JUMPDEST STOP JUMPDEST PUSH2 0x3E3 PUSH1 0x4 DUP1 CALLDATASIZE SUB DUP2 ADD SWAP1 PUSH2 0x3DE SWAP2 SWAP1 PUSH2 0x142B JUMP JUMPDEST PUSH2 0x1129 JUMP JUMPDEST PUSH1 0x40 MLOAD PUSH2 0x3F1 SWAP3 SWAP2 SWAP1 PUSH2 0x18EA JUMP JUMPDEST PUSH1 0x40 MLOAD DUP1 SWAP2 SUB SWAP1 RETURN JUMPDEST PUSH2 0x402 PUSH2 0x117F JUMP JUMPDEST PUSH1 0x40 MLOAD PUSH2 0x40F SWAP2 SWAP1 PUSH2 0x18CF JUMP JUMPDEST PUSH1 0x40 MLOAD DUP1 SWAP2 SUB SWAP1 RETURN JUMPDEST PUSH1 0x7 PUSH1 0x20 MSTORE DUP2 PUSH1 0x0 MSTORE PUSH1 0x40 PUSH1 0x0 KECCAK256 DUP2 DUP2 SLOAD DUP2 LT PUSH2 0x434 JUMPI PUSH1 0x0 DUP1 REVERT JUMPDEST SWAP1 PUSH1 0x0 MSTORE PUSH1 0x20 PUSH1 0x0 KECCAK256 ADD PUSH1 0x0 SWAP2 POP SWAP2 POP POP SLOAD DUP2 JUMP JUMPDEST PUSH1 0x2 SLOAD DUP2 JUMP JUMPDEST PUSH1 0x0 DUP1 JUMPDEST PUSH1 0x1 SLOAD DUP2 LT ISZERO PUSH2 0x51C JUMPI PUSH1 0x0 PUSH1 0x6 PUSH1 0x0 DUP4 DUP2 MSTORE PUSH1 0x20 ADD SWAP1 DUP2 MSTORE PUSH1 0x20 ADD PUSH1 0x0 KECCAK256 PUSH1 0x0 SWAP1 SLOAD SWAP1 PUSH2 0x100 EXP SWAP1 DIV PUSH20 0xFFFFFFFFFFFFFFFFFFFFFFFFFFFFFFFFFFFFFFFF AND SWAP1 POP PUSH1 0x7 PUSH1 0x0 DUP3 PUSH20 0xFFFFFFFFFFFFFFFFFFFFFFFFFFFFFFFFFFFFFFFF AND PUSH20 0xFFFFFFFFFFFFFFFFFFFFFFFFFFFFFFFFFFFFFFFF AND DUP2 MSTORE PUSH1 0x20 ADD SWAP1 DUP2 MSTORE PUSH1 0x20 ADD PUSH1 0x0 KECCAK256 PUSH1 0x0 DUP2 SLOAD DUP2 LT PUSH2 0x4E7 JUMPI PUSH2 0x4E6 PUSH2 0x1C5F JUMP JUMPDEST JUMPDEST SWAP1 PUSH1 0x0 MSTORE PUSH1 0x20 PUSH1 0x0 KECCAK256 ADD SLOAD DUP3 EQ ISZERO PUSH2 0x508 JUMPI DUP3 DUP1 PUSH2 0x504 SWAP1 PUSH2 0x1B2A JUMP JUMPDEST SWAP4 POP POP JUMPDEST POP DUP1 DUP1 PUSH2 0x514 SWAP1 PUSH2 0x1B2A JUMP JUMPDEST SWAP2 POP POP PUSH2 0x453 JUMP JUMPDEST POP SWAP1 JUMP JUMPDEST PUSH1 0x60 DUP1 PUSH1 0x0 PUSH2 0x52D PUSH2 0x44F JUMP JUMPDEST SWAP1 POP DUP1 PUSH8 0xFFFFFFFFFFFFFFFF DUP2 GT ISZERO PUSH2 0x549 JUMPI PUSH2 0x548 PUSH2 0x1C8E JUMP JUMPDEST JUMPDEST PUSH1 0x40 MLOAD SWAP1 DUP1 DUP3 MSTORE DUP1 PUSH1 0x20 MUL PUSH1 0x20 ADD DUP3 ADD PUSH1 0x40 MSTORE DUP1 ISZERO PUSH2 0x577 JUMPI DUP2 PUSH1 0x20 ADD PUSH1 0x20 DUP3 MUL DUP1 CALLDATASIZE DUP4 CALLDATACOPY DUP1 DUP3 ADD SWAP2 POP POP SWAP1 POP JUMPDEST POP SWAP3 POP DUP1 PUSH8 0xFFFFFFFFFFFFFFFF DUP2 GT ISZERO PUSH2 0x594 JUMPI PUSH2 0x593 PUSH2 0x1C8E JUMP JUMPDEST JUMPDEST PUSH1 0x40 MLOAD SWAP1 DUP1 DUP3 MSTORE DUP1 PUSH1 0x20 MUL PUSH1 0x20 ADD DUP3 ADD PUSH1 0x40 MSTORE DUP1 ISZERO PUSH2 0x5C2 JUMPI DUP2 PUSH1 0x20 ADD PUSH1 0x20 DUP3 MUL DUP1 CALLDATASIZE DUP4 CALLDATACOPY DUP1 DUP3 ADD SWAP2 POP POP SWAP1 POP JUMPDEST POP SWAP2 POP PUSH1 0x0 DUP1 JUMPDEST PUSH1 0x1 SLOAD DUP2 LT ISZERO PUSH2 0x742 JUMPI PUSH1 0x0 PUSH1 0x6 PUSH1 0x0 DUP4 DUP2 MSTORE PUSH1 0x20 ADD SWAP1 DUP2 MSTORE PUSH1 0x20 ADD PUSH1 0x0 KECCAK256 PUSH1 0x0 SWAP1 SLOAD SWAP1 PUSH2 0x100 EXP SWAP1 DIV PUSH20 0xFFFFFFFFFFFFFFFFFFFFFFFFFFFFFFFFFFFFFFFF AND SWAP1 POP PUSH1 0x7 PUSH1 0x0 DUP3 PUSH20 0xFFFFFFFFFFFFFFFFFFFFFFFFFFFFFFFFFFFFFFFF AND PUSH20 0xFFFFFFFFFFFFFFFFFFFFFFFFFFFFFFFFFFFFFFFF AND DUP2 MSTORE PUSH1 0x20 ADD SWAP1 DUP2 MSTORE PUSH1 0x20 ADD PUSH1 0x0 KECCAK256 PUSH1 0x0 DUP2 SLOAD DUP2 LT PUSH2 0x65D JUMPI PUSH2 0x65C PUSH2 0x1C5F JUMP JUMPDEST JUMPDEST SWAP1 PUSH1 0x0 MSTORE PUSH1 0x20 PUSH1 0x0 KECCAK256 ADD SLOAD DUP3 EQ ISZERO PUSH2 0x72E JUMPI DUP1 DUP7 DUP5 DUP2 MLOAD DUP2 LT PUSH2 0x683 JUMPI PUSH2 0x682 PUSH2 0x1C5F JUMP JUMPDEST JUMPDEST PUSH1 0x20 MUL PUSH1 0x20 ADD ADD SWAP1 PUSH20 0xFFFFFFFFFFFFFFFFFFFFFFFFFFFFFFFFFFFFFFFF AND SWAP1 DUP2 PUSH20 0xFFFFFFFFFFFFFFFFFFFFFFFFFFFFFFFFFFFFFFFF AND DUP2 MSTORE POP POP PUSH1 0x7 PUSH1 0x0 DUP3 PUSH20 0xFFFFFFFFFFFFFFFFFFFFFFFFFFFFFFFFFFFFFFFF AND PUSH20 0xFFFFFFFFFFFFFFFFFFFFFFFFFFFFFFFFFFFFFFFF AND DUP2 MSTORE PUSH1 0x20 ADD SWAP1 DUP2 MSTORE PUSH1 0x20 ADD PUSH1 0x0 KECCAK256 DUP1 SLOAD SWAP1 POP DUP6 DUP5 DUP2 MLOAD DUP2 LT PUSH2 0x713 JUMPI PUSH2 0x712 PUSH2 0x1C5F JUMP JUMPDEST JUMPDEST PUSH1 0x20 MUL PUSH1 0x20 ADD ADD DUP2 DUP2 MSTORE POP POP DUP3 DUP1 PUSH2 0x72A SWAP1 PUSH2 0x1B2A JUMP JUMPDEST SWAP4 POP POP JUMPDEST POP DUP1 DUP1 PUSH2 0x73A SWAP1 PUSH2 0x1B2A JUMP JUMPDEST SWAP2 POP POP PUSH2 0x5C9 JUMP JUMPDEST POP POP POP SWAP1 SWAP2 JUMP JUMPDEST PUSH1 0x0 JUMPDEST DUP2 DUP2 LT ISZERO PUSH2 0x839 JUMPI DUP3 PUSH1 0x6 PUSH1 0x0 DUP4 PUSH1 0x1 SLOAD PUSH2 0x767 SWAP2 SWAP1 PUSH2 0x1A22 JUMP JUMPDEST DUP2 MSTORE PUSH1 0x20 ADD SWAP1 DUP2 MSTORE PUSH1 0x20 ADD PUSH1 0x0 KECCAK256 PUSH1 0x0 PUSH2 0x100 EXP DUP2 SLOAD DUP2 PUSH20 0xFFFFFFFFFFFFFFFFFFFFFFFFFFFFFFFFFFFFFFFF MUL NOT AND SWAP1 DUP4 PUSH20 0xFFFFFFFFFFFFFFFFFFFFFFFFFFFFFFFFFFFFFFFF AND MUL OR SWAP1 SSTORE POP PUSH1 0x7 PUSH1 0x0 DUP5 PUSH20 0xFFFFFFFFFFFFFFFFFFFFFFFFFFFFFFFFFFFFFFFF AND PUSH20 0xFFFFFFFFFFFFFFFFFFFFFFFFFFFFFFFFFFFFFFFF AND DUP2 MSTORE PUSH1 0x20 ADD SWAP1 DUP2 MSTORE PUSH1 0x20 ADD PUSH1 0x0 KECCAK256 DUP2 PUSH1 0x1 SLOAD PUSH2 0x800 SWAP2 SWAP1 PUSH2 0x1A22 JUMP JUMPDEST SWAP1 DUP1 PUSH1 0x1 DUP2 SLOAD ADD DUP1 DUP3 SSTORE DUP1 SWAP2 POP POP PUSH1 0x1 SWAP1 SUB SWAP1 PUSH1 0x0 MSTORE PUSH1 0x20 PUSH1 0x0 KECCAK256 ADD PUSH1 0x0 SWAP1 SWAP2 SWAP1 SWAP2 SWAP1 SWAP2 POP SSTORE DUP1 DUP1 PUSH2 0x831 SWAP1 PUSH2 0x1B2A JUMP JUMPDEST SWAP2 POP POP PUSH2 0x74C JUMP JUMPDEST POP DUP1 PUSH1 0x1 PUSH1 0x0 DUP3 DUP3 SLOAD PUSH2 0x84C SWAP2 SWAP1 PUSH2 0x1A22 JUMP JUMPDEST SWAP3 POP POP DUP2 SWAP1 SSTORE POP POP POP JUMP JUMPDEST PUSH1 0x3 SLOAD DUP2 JUMP JUMPDEST PUSH1 0x0 DUP1 PUSH2 0x869 DUP4 PUSH2 0xB3D JUMP JUMPDEST SWAP1 POP PUSH1 0x0 DUP2 GT SWAP2 POP POP SWAP2 SWAP1 POP JUMP JUMPDEST PUSH2 0x87F PUSH2 0x1231 JUMP JUMPDEST PUSH20 0xFFFFFFFFFFFFFFFFFFFFFFFFFFFFFFFFFFFFFFFF AND PUSH2 0x89D PUSH2 0xAEE JUMP JUMPDEST PUSH20 0xFFFFFFFFFFFFFFFFFFFFFFFFFFFFFFFFFFFFFFFF AND EQ PUSH2 0x8F3 JUMPI PUSH1 0x40 MLOAD PUSH32 0x8C379A000000000000000000000000000000000000000000000000000000000 DUP2 MSTORE PUSH1 0x4 ADD PUSH2 0x8EA SWAP1 PUSH2 0x18AF JUMP JUMPDEST PUSH1 0x40 MLOAD DUP1 SWAP2 SUB SWAP1 REVERT JUMPDEST PUSH1 0x0 PUSH1 0x6 PUSH1 0x0 DUP5 DUP2 MSTORE PUSH1 0x20 ADD SWAP1 DUP2 MSTORE PUSH1 0x20 ADD PUSH1 0x0 KECCAK256 PUSH1 0x0 SWAP1 SLOAD SWAP1 PUSH2 0x100 EXP SWAP1 DIV PUSH20 0xFFFFFFFFFFFFFFFFFFFFFFFFFFFFFFFFFFFFFFFF AND SWAP1 POP PUSH1 0x40 MLOAD DUP1 PUSH1 0xA0 ADD PUSH1 0x40 MSTORE DUP1 PUSH1 0x1 SLOAD DUP2 MSTORE PUSH1 0x20 ADD DUP5 DUP2 MSTORE PUSH1 0x20 ADD DUP4 DUP2 MSTORE PUSH1 0x20 ADD TIMESTAMP DUP2 MSTORE PUSH1 0x20 ADD DUP3 PUSH20 0xFFFFFFFFFFFFFFFFFFFFFFFFFFFFFFFFFFFFFFFF AND DUP2 MSTORE POP PUSH1 0x5 PUSH1 0x0 PUSH1 0x2 SLOAD DUP2 MSTORE PUSH1 0x20 ADD SWAP1 DUP2 MSTORE PUSH1 0x20 ADD PUSH1 0x0 KECCAK256 PUSH1 0x0 DUP3 ADD MLOAD DUP2 PUSH1 0x0 ADD SSTORE PUSH1 0x20 DUP3 ADD MLOAD DUP2 PUSH1 0x1 ADD SSTORE PUSH1 0x40 DUP3 ADD MLOAD DUP2 PUSH1 0x2 ADD SSTORE PUSH1 0x60 DUP3 ADD MLOAD DUP2 PUSH1 0x3 ADD SSTORE PUSH1 0x80 DUP3 ADD MLOAD DUP2 PUSH1 0x4 ADD PUSH1 0x0 PUSH2 0x100 EXP DUP2 SLOAD DUP2 PUSH20 0xFFFFFFFFFFFFFFFFFFFFFFFFFFFFFFFFFFFFFFFF MUL NOT AND SWAP1 DUP4 PUSH20 0xFFFFFFFFFFFFFFFFFFFFFFFFFFFFFFFFFFFFFFFF AND MUL OR SWAP1 SSTORE POP SWAP1 POP POP DUP2 PUSH1 0x3 PUSH1 0x0 DUP3 DUP3 SLOAD PUSH2 0xA03 SWAP2 SWAP1 PUSH2 0x1A22 JUMP JUMPDEST SWAP3 POP POP DUP2 SWAP1 SSTORE POP PUSH1 0x2 PUSH1 0x0 DUP2 SLOAD DUP1 SWAP3 SWAP2 SWAP1 PUSH2 0xA1D SWAP1 PUSH2 0x1B2A JUMP JUMPDEST SWAP2 SWAP1 POP SSTORE POP PUSH32 0x2E798DD4337E515C79B64C40E1A93BAA1AEFBD9180AC7905E02508EDD7971E50 DUP2 DUP4 PUSH1 0x40 MLOAD PUSH2 0xA53 SWAP3 SWAP2 SWAP1 PUSH2 0x17D7 JUMP JUMPDEST PUSH1 0x40 MLOAD DUP1 SWAP2 SUB SWAP1 LOG1 POP POP POP JUMP JUMPDEST PUSH2 0xA68 PUSH2 0x1231 JUMP JUMPDEST PUSH20 0xFFFFFFFFFFFFFFFFFFFFFFFFFFFFFFFFFFFFFFFF AND PUSH2 0xA86 PUSH2 0xAEE JUMP JUMPDEST PUSH20 0xFFFFFFFFFFFFFFFFFFFFFFFFFFFFFFFFFFFFFFFF AND EQ PUSH2 0xADC JUMPI PUSH1 0x40 MLOAD PUSH32 0x8C379A000000000000000000000000000000000000000000000000000000000 DUP2 MSTORE PUSH1 0x4 ADD PUSH2 0xAD3 SWAP1 PUSH2 0x18AF JUMP JUMPDEST PUSH1 0x40 MLOAD DUP1 SWAP2 SUB SWAP1 REVERT JUMPDEST PUSH2 0xAE6 PUSH1 0x0 PUSH2 0x1239 JUMP JUMPDEST JUMP JUMPDEST PUSH1 0x1 SLOAD DUP2 JUMP JUMPDEST PUSH1 0x0 DUP1 PUSH1 0x0 SWAP1 SLOAD SWAP1 PUSH2 0x100 EXP SWAP1 DIV PUSH20 0xFFFFFFFFFFFFFFFFFFFFFFFFFFFFFFFFFFFFFFFF AND SWAP1 POP SWAP1 JUMP JUMPDEST PUSH1 0x4 PUSH1 0x0 SWAP1 SLOAD SWAP1 PUSH2 0x100 EXP SWAP1 DIV PUSH20 0xFFFFFFFFFFFFFFFFFFFFFFFFFFFFFFFFFFFFFFFF AND DUP2 JUMP JUMPDEST PUSH1 0x0 PUSH1 0x7 PUSH1 0x0 DUP4 PUSH20 0xFFFFFFFFFFFFFFFFFFFFFFFFFFFFFFFFFFFFFFFF AND PUSH20 0xFFFFFFFFFFFFFFFFFFFFFFFFFFFFFFFFFFFFFFFF AND DUP2 MSTORE PUSH1 0x20 ADD SWAP1 DUP2 MSTORE PUSH1 0x20 ADD PUSH1 0x0 KECCAK256 DUP1 SLOAD SWAP1 POP SWAP1 POP SWAP2 SWAP1 POP JUMP JUMPDEST PUSH1 0x0 PUSH2 0xB94 DUP4 PUSH2 0xB3D JUMP JUMPDEST SWAP1 POP PUSH1 0x0 DUP2 EQ ISZERO PUSH2 0xBA5 JUMPI POP PUSH2 0xD94 JUMP JUMPDEST DUP1 DUP3 GT ISZERO PUSH2 0xBB1 JUMPI DUP1 SWAP2 POP JUMPDEST PUSH1 0x0 PUSH1 0x1 SWAP1 POP JUMPDEST DUP3 DUP2 GT PUSH2 0xD78 JUMPI PUSH1 0x0 PUSH1 0x7 PUSH1 0x0 DUP7 PUSH20 0xFFFFFFFFFFFFFFFFFFFFFFFFFFFFFFFFFFFFFFFF AND PUSH20 0xFFFFFFFFFFFFFFFFFFFFFFFFFFFFFFFFFFFFFFFF AND DUP2 MSTORE PUSH1 0x20 ADD SWAP1 DUP2 MSTORE PUSH1 0x20 ADD PUSH1 0x0 KECCAK256 PUSH1 0x1 PUSH1 0x7 PUSH1 0x0 DUP9 PUSH20 0xFFFFFFFFFFFFFFFFFFFFFFFFFFFFFFFFFFFFFFFF AND PUSH20 0xFFFFFFFFFFFFFFFFFFFFFFFFFFFFFFFFFFFFFFFF AND DUP2 MSTORE PUSH1 0x20 ADD SWAP1 DUP2 MSTORE PUSH1 0x20 ADD PUSH1 0x0 KECCAK256 DUP1 SLOAD SWAP1 POP PUSH2 0xC4F SWAP2 SWAP1 PUSH2 0x1A78 JUMP JUMPDEST DUP2 SLOAD DUP2 LT PUSH2 0xC60 JUMPI PUSH2 0xC5F PUSH2 0x1C5F JUMP JUMPDEST JUMPDEST SWAP1 PUSH1 0x0 MSTORE PUSH1 0x20 PUSH1 0x0 KECCAK256 ADD SLOAD SWAP1 POP PUSH1 0x6 PUSH1 0x0 DUP4 PUSH1 0x1 SLOAD PUSH2 0xC7F SWAP2 SWAP1 PUSH2 0x1A78 JUMP JUMPDEST DUP2 MSTORE PUSH1 0x20 ADD SWAP1 DUP2 MSTORE PUSH1 0x20 ADD PUSH1 0x0 KECCAK256 PUSH1 0x0 SWAP1 SLOAD SWAP1 PUSH2 0x100 EXP SWAP1 DIV PUSH20 0xFFFFFFFFFFFFFFFFFFFFFFFFFFFFFFFFFFFFFFFF AND PUSH1 0x6 PUSH1 0x0 DUP4 DUP2 MSTORE PUSH1 0x20 ADD SWAP1 DUP2 MSTORE PUSH1 0x20 ADD PUSH1 0x0 KECCAK256 PUSH1 0x0 PUSH2 0x100 EXP DUP2 SLOAD DUP2 PUSH20 0xFFFFFFFFFFFFFFFFFFFFFFFFFFFFFFFFFFFFFFFF MUL NOT AND SWAP1 DUP4 PUSH20 0xFFFFFFFFFFFFFFFFFFFFFFFFFFFFFFFFFFFFFFFF AND MUL OR SWAP1 SSTORE POP PUSH1 0x7 PUSH1 0x0 DUP7 PUSH20 0xFFFFFFFFFFFFFFFFFFFFFFFFFFFFFFFFFFFFFFFF AND PUSH20 0xFFFFFFFFFFFFFFFFFFFFFFFFFFFFFFFFFFFFFFFF AND DUP2 MSTORE PUSH1 0x20 ADD SWAP1 DUP2 MSTORE PUSH1 0x20 ADD PUSH1 0x0 KECCAK256 DUP1 SLOAD DUP1 PUSH2 0xD4E JUMPI PUSH2 0xD4D PUSH2 0x1C30 JUMP JUMPDEST JUMPDEST PUSH1 0x1 SWAP1 SUB DUP2 DUP2 SWAP1 PUSH1 0x0 MSTORE PUSH1 0x20 PUSH1 0x0 KECCAK256 ADD PUSH1 0x0 SWAP1 SSTORE SWAP1 SSTORE POP DUP1 DUP1 PUSH2 0xD70 SWAP1 PUSH2 0x1B2A JUMP JUMPDEST SWAP2 POP POP PUSH2 0xBB8 JUMP JUMPDEST POP DUP2 PUSH1 0x1 PUSH1 0x0 DUP3 DUP3 SLOAD PUSH2 0xD8B SWAP2 SWAP1 PUSH2 0x1A78 JUMP JUMPDEST SWAP3 POP POP DUP2 SWAP1 SSTORE POP POP JUMPDEST POP POP JUMP JUMPDEST PUSH1 0x5 PUSH1 0x20 MSTORE DUP1 PUSH1 0x0 MSTORE PUSH1 0x40 PUSH1 0x0 KECCAK256 PUSH1 0x0 SWAP2 POP SWAP1 POP DUP1 PUSH1 0x0 ADD SLOAD SWAP1 DUP1 PUSH1 0x1 ADD SLOAD SWAP1 DUP1 PUSH1 0x2 ADD SLOAD SWAP1 DUP1 PUSH1 0x3 ADD SLOAD SWAP1 DUP1 PUSH1 0x4 ADD PUSH1 0x0 SWAP1 SLOAD SWAP1 PUSH2 0x100 EXP SWAP1 DIV PUSH20 0xFFFFFFFFFFFFFFFFFFFFFFFFFFFFFFFFFFFFFFFF AND SWAP1 POP DUP6 JUMP JUMPDEST PUSH1 0x6 PUSH1 0x20 MSTORE DUP1 PUSH1 0x0 MSTORE PUSH1 0x40 PUSH1 0x0 KECCAK256 PUSH1 0x0 SWAP2 POP SLOAD SWAP1 PUSH2 0x100 EXP SWAP1 DIV PUSH20 0xFFFFFFFFFFFFFFFFFFFFFFFFFFFFFFFFFFFFFFFF AND DUP2 JUMP JUMPDEST PUSH1 0x60 PUSH1 0x0 PUSH1 0x2 SLOAD EQ ISZERO PUSH2 0xE8A JUMPI PUSH1 0x0 PUSH8 0xFFFFFFFFFFFFFFFF DUP2 GT ISZERO PUSH2 0xE49 JUMPI PUSH2 0xE48 PUSH2 0x1C8E JUMP JUMPDEST JUMPDEST PUSH1 0x40 MLOAD SWAP1 DUP1 DUP3 MSTORE DUP1 PUSH1 0x20 MUL PUSH1 0x20 ADD DUP3 ADD PUSH1 0x40 MSTORE DUP1 ISZERO PUSH2 0xE82 JUMPI DUP2 PUSH1 0x20 ADD JUMPDEST PUSH2 0xE6F PUSH2 0x133A JUMP JUMPDEST DUP2 MSTORE PUSH1 0x20 ADD SWAP1 PUSH1 0x1 SWAP1 SUB SWAP1 DUP2 PUSH2 0xE67 JUMPI SWAP1 POP JUMPDEST POP SWAP1 POP PUSH2 0x1010 JUMP JUMPDEST PUSH1 0x2 SLOAD DUP3 LT PUSH2 0xEA5 JUMPI PUSH1 0x1 PUSH1 0x2 SLOAD PUSH2 0xEA2 SWAP2 SWAP1 PUSH2 0x1A78 JUMP JUMPDEST SWAP2 POP JUMPDEST PUSH1 0x0 PUSH1 0x1 DUP5 DUP5 PUSH2 0xEB5 SWAP2 SWAP1 PUSH2 0x1A78 JUMP JUMPDEST PUSH2 0xEBF SWAP2 SWAP1 PUSH2 0x1A22 JUMP JUMPDEST SWAP1 POP PUSH1 0x0 DUP2 PUSH8 0xFFFFFFFFFFFFFFFF DUP2 GT ISZERO PUSH2 0xEDD JUMPI PUSH2 0xEDC PUSH2 0x1C8E JUMP JUMPDEST JUMPDEST PUSH1 0x40 MLOAD SWAP1 DUP1 DUP3 MSTORE DUP1 PUSH1 0x20 MUL PUSH1 0x20 ADD DUP3 ADD PUSH1 0x40 MSTORE DUP1 ISZERO PUSH2 0xF16 JUMPI DUP2 PUSH1 0x20 ADD JUMPDEST PUSH2 0xF03 PUSH2 0x133A JUMP JUMPDEST DUP2 MSTORE PUSH1 0x20 ADD SWAP1 PUSH1 0x1 SWAP1 SUB SWAP1 DUP2 PUSH2 0xEFB JUMPI SWAP1 POP JUMPDEST POP SWAP3 POP PUSH1 0x0 DUP6 SWAP1 POP JUMPDEST DUP5 DUP2 GT PUSH2 0x100C JUMPI PUSH1 0x5 PUSH1 0x0 DUP3 DUP9 PUSH2 0xF36 SWAP2 SWAP1 PUSH2 0x1A22 JUMP JUMPDEST DUP2 MSTORE PUSH1 0x20 ADD SWAP1 DUP2 MSTORE PUSH1 0x20 ADD PUSH1 0x0 KECCAK256 PUSH1 0x40 MLOAD DUP1 PUSH1 0xA0 ADD PUSH1 0x40 MSTORE SWAP1 DUP2 PUSH1 0x0 DUP3 ADD SLOAD DUP2 MSTORE PUSH1 0x20 ADD PUSH1 0x1 DUP3 ADD SLOAD DUP2 MSTORE PUSH1 0x20 ADD PUSH1 0x2 DUP3 ADD SLOAD DUP2 MSTORE PUSH1 0x20 ADD PUSH1 0x3 DUP3 ADD SLOAD DUP2 MSTORE PUSH1 0x20 ADD PUSH1 0x4 DUP3 ADD PUSH1 0x0 SWAP1 SLOAD SWAP1 PUSH2 0x100 EXP SWAP1 DIV PUSH20 0xFFFFFFFFFFFFFFFFFFFFFFFFFFFFFFFFFFFFFFFF AND PUSH20 0xFFFFFFFFFFFFFFFFFFFFFFFFFFFFFFFFFFFFFFFF AND PUSH20 0xFFFFFFFFFFFFFFFFFFFFFFFFFFFFFFFFFFFFFFFF AND DUP2 MSTORE POP POP DUP5 DUP4 DUP2 MLOAD DUP2 LT PUSH2 0xFE0 JUMPI PUSH2 0xFDF PUSH2 0x1C5F JUMP JUMPDEST JUMPDEST PUSH1 0x20 MUL PUSH1 0x20 ADD ADD DUP2 SWAP1 MSTORE POP DUP2 DUP1 PUSH2 0xFF6 SWAP1 PUSH2 0x1B2A JUMP JUMPDEST SWAP3 POP POP DUP1 DUP1 PUSH2 0x1004 SWAP1 PUSH2 0x1B2A JUMP JUMPDEST SWAP2 POP POP PUSH2 0xF1F JUMP JUMPDEST POP POP POP JUMPDEST SWAP3 SWAP2 POP POP JUMP JUMPDEST PUSH1 0x0 PUSH2 0x1021 DUP3 PUSH2 0xB3D JUMP JUMPDEST SWAP1 POP PUSH2 0x102D DUP3 DUP3 PUSH2 0xB89 JUMP JUMPDEST POP POP JUMP JUMPDEST PUSH2 0x1039 PUSH2 0x1231 JUMP JUMPDEST PUSH20 0xFFFFFFFFFFFFFFFFFFFFFFFFFFFFFFFFFFFFFFFF AND PUSH2 0x1057 PUSH2 0xAEE JUMP JUMPDEST PUSH20 0xFFFFFFFFFFFFFFFFFFFFFFFFFFFFFFFFFFFFFFFF AND EQ PUSH2 0x10AD JUMPI PUSH1 0x40 MLOAD PUSH32 0x8C379A000000000000000000000000000000000000000000000000000000000 DUP2 MSTORE PUSH1 0x4 ADD PUSH2 0x10A4 SWAP1 PUSH2 0x18AF JUMP JUMPDEST PUSH1 0x40 MLOAD DUP1 SWAP2 SUB SWAP1 REVERT JUMPDEST PUSH1 0x0 PUSH20 0xFFFFFFFFFFFFFFFFFFFFFFFFFFFFFFFFFFFFFFFF AND DUP2 PUSH20 0xFFFFFFFFFFFFFFFFFFFFFFFFFFFFFFFFFFFFFFFF AND EQ ISZERO PUSH2 0x111D JUMPI PUSH1 0x40 MLOAD PUSH32 0x8C379A000000000000000000000000000000000000000000000000000000000 DUP2 MSTORE PUSH1 0x4 ADD PUSH2 0x1114 SWAP1 PUSH2 0x188F JUMP JUMPDEST PUSH1 0x40 MLOAD DUP1 SWAP2 SUB SWAP1 REVERT JUMPDEST PUSH2 0x1126 DUP2 PUSH2 0x1239 JUMP JUMPDEST POP JUMP JUMPDEST PUSH1 0x0 DUP1 PUSH1 0x1 SLOAD PUSH2 0x1138 DUP5 PUSH2 0x12FD JUMP JUMPDEST PUSH2 0x1142 SWAP2 SWAP1 PUSH2 0x1BA1 JUMP JUMPDEST SWAP2 POP PUSH1 0x6 PUSH1 0x0 DUP4 DUP2 MSTORE PUSH1 0x20 ADD SWAP1 DUP2 MSTORE PUSH1 0x20 ADD PUSH1 0x0 KECCAK256 PUSH1 0x0 SWAP1 SLOAD SWAP1 PUSH2 0x100 EXP SWAP1 DIV PUSH20 0xFFFFFFFFFFFFFFFFFFFFFFFFFFFFFFFFFFFFFFFF AND SWAP1 POP SWAP2 POP SWAP2 JUMP JUMPDEST PUSH1 0x0 PUSH1 0x4 PUSH1 0x0 SWAP1 SLOAD SWAP1 PUSH2 0x100 EXP SWAP1 DIV PUSH20 0xFFFFFFFFFFFFFFFFFFFFFFFFFFFFFFFFFFFFFFFF AND PUSH20 0xFFFFFFFFFFFFFFFFFFFFFFFFFFFFFFFFFFFFFFFF AND PUSH4 0x70A08231 ADDRESS PUSH1 0x40 MLOAD DUP3 PUSH4 0xFFFFFFFF AND PUSH1 0xE0 SHL DUP2 MSTORE PUSH1 0x4 ADD PUSH2 0x11DC SWAP2 SWAP1 PUSH2 0x17BC JUMP JUMPDEST PUSH1 0x20 PUSH1 0x40 MLOAD DUP1 DUP4 SUB DUP2 DUP7 DUP1 EXTCODESIZE ISZERO DUP1 ISZERO PUSH2 0x11F4 JUMPI PUSH1 0x0 DUP1 REVERT JUMPDEST POP GAS STATICCALL ISZERO DUP1 ISZERO PUSH2 0x1208 JUMPI RETURNDATASIZE PUSH1 0x0 DUP1 RETURNDATACOPY RETURNDATASIZE PUSH1 0x0 REVERT JUMPDEST POP POP POP POP PUSH1 0x40 MLOAD RETURNDATASIZE PUSH1 0x1F NOT PUSH1 0x1F DUP3 ADD AND DUP3 ADD DUP1 PUSH1 0x40 MSTORE POP DUP2 ADD SWAP1 PUSH2 0x122C SWAP2 SWAP1 PUSH2 0x1458 JUMP JUMPDEST SWAP1 POP SWAP1 JUMP JUMPDEST PUSH1 0x0 CALLER SWAP1 POP SWAP1 JUMP JUMPDEST PUSH1 0x0 DUP1 PUSH1 0x0 SWAP1 SLOAD SWAP1 PUSH2 0x100 EXP SWAP1 DIV PUSH20 0xFFFFFFFFFFFFFFFFFFFFFFFFFFFFFFFFFFFFFFFF AND SWAP1 POP DUP2 PUSH1 0x0 DUP1 PUSH2 0x100 EXP DUP2 SLOAD DUP2 PUSH20 0xFFFFFFFFFFFFFFFFFFFFFFFFFFFFFFFFFFFFFFFF MUL NOT AND SWAP1 DUP4 PUSH20 0xFFFFFFFFFFFFFFFFFFFFFFFFFFFFFFFFFFFFFFFF AND MUL OR SWAP1 SSTORE POP DUP2 PUSH20 0xFFFFFFFFFFFFFFFFFFFFFFFFFFFFFFFFFFFFFFFF AND DUP2 PUSH20 0xFFFFFFFFFFFFFFFFFFFFFFFFFFFFFFFFFFFFFFFF AND PUSH32 0x8BE0079C531659141344CD1FD0A4F28419497F9722A3DAAFE3B4186F6B6457E0 PUSH1 0x40 MLOAD PUSH1 0x40 MLOAD DUP1 SWAP2 SUB SWAP1 LOG3 POP POP JUMP JUMPDEST PUSH1 0x0 DUP2 TIMESTAMP GAS CALLER PUSH1 0x1 SLOAD PUSH1 0x40 MLOAD PUSH1 0x20 ADD PUSH2 0x131A SWAP6 SWAP5 SWAP4 SWAP3 SWAP2 SWAP1 PUSH2 0x175D JUMP JUMPDEST PUSH1 0x40 MLOAD PUSH1 0x20 DUP2 DUP4 SUB SUB DUP2 MSTORE SWAP1 PUSH1 0x40 MSTORE DUP1 MLOAD SWAP1 PUSH1 0x20 ADD KECCAK256 PUSH1 0x0 SHR SWAP1 POP SWAP2 SWAP1 POP JUMP JUMPDEST PUSH1 0x40 MLOAD DUP1 PUSH1 0xA0 ADD PUSH1 0x40 MSTORE DUP1 PUSH1 0x0 DUP2 MSTORE PUSH1 0x20 ADD PUSH1 0x0 DUP2 MSTORE PUSH1 0x20 ADD PUSH1 0x0 DUP2 MSTORE PUSH1 0x20 ADD PUSH1 0x0 DUP2 MSTORE PUSH1 0x20 ADD PUSH1 0x0 PUSH20 0xFFFFFFFFFFFFFFFFFFFFFFFFFFFFFFFFFFFFFFFF AND DUP2 MSTORE POP SWAP1 JUMP JUMPDEST PUSH1 0x0 DUP2 CALLDATALOAD SWAP1 POP PUSH2 0x138E DUP2 PUSH2 0x1D47 JUMP JUMPDEST SWAP3 SWAP2 POP POP JUMP JUMPDEST PUSH1 0x0 DUP2 CALLDATALOAD SWAP1 POP PUSH2 0x13A3 DUP2 PUSH2 0x1D5E JUMP JUMPDEST SWAP3 SWAP2 POP POP JUMP JUMPDEST PUSH1 0x0 DUP2 MLOAD SWAP1 POP PUSH2 0x13B8 DUP2 PUSH2 0x1D5E JUMP JUMPDEST SWAP3 SWAP2 POP POP JUMP JUMPDEST PUSH1 0x0 PUSH1 0x20 DUP3 DUP5 SUB SLT ISZERO PUSH2 0x13D4 JUMPI PUSH2 0x13D3 PUSH2 0x1CBD JUMP JUMPDEST JUMPDEST PUSH1 0x0 PUSH2 0x13E2 DUP5 DUP3 DUP6 ADD PUSH2 0x137F JUMP JUMPDEST SWAP2 POP POP SWAP3 SWAP2 POP POP JUMP JUMPDEST PUSH1 0x0 DUP1 PUSH1 0x40 DUP4 DUP6 SUB SLT ISZERO PUSH2 0x1402 JUMPI PUSH2 0x1401 PUSH2 0x1CBD JUMP JUMPDEST JUMPDEST PUSH1 0x0 PUSH2 0x1410 DUP6 DUP3 DUP7 ADD PUSH2 0x137F JUMP JUMPDEST SWAP3 POP POP PUSH1 0x20 PUSH2 0x1421 DUP6 DUP3 DUP7 ADD PUSH2 0x1394 JUMP JUMPDEST SWAP2 POP POP SWAP3 POP SWAP3 SWAP1 POP JUMP JUMPDEST PUSH1 0x0 PUSH1 0x20 DUP3 DUP5 SUB SLT ISZERO PUSH2 0x1441 JUMPI PUSH2 0x1440 PUSH2 0x1CBD JUMP JUMPDEST JUMPDEST PUSH1 0x0 PUSH2 0x144F DUP5 DUP3 DUP6 ADD PUSH2 0x1394 JUMP JUMPDEST SWAP2 POP POP SWAP3 SWAP2 POP POP JUMP JUMPDEST PUSH1 0x0 PUSH1 0x20 DUP3 DUP5 SUB SLT ISZERO PUSH2 0x146E JUMPI PUSH2 0x146D PUSH2 0x1CBD JUMP JUMPDEST JUMPDEST PUSH1 0x0 PUSH2 0x147C DUP5 DUP3 DUP6 ADD PUSH2 0x13A9 JUMP JUMPDEST SWAP2 POP POP SWAP3 SWAP2 POP POP JUMP JUMPDEST PUSH1 0x0 DUP1 PUSH1 0x40 DUP4 DUP6 SUB SLT ISZERO PUSH2 0x149C JUMPI PUSH2 0x149B PUSH2 0x1CBD JUMP JUMPDEST JUMPDEST PUSH1 0x0 PUSH2 0x14AA DUP6 DUP3 DUP7 ADD PUSH2 0x1394 JUMP JUMPDEST SWAP3 POP POP PUSH1 0x20 PUSH2 0x14BB DUP6 DUP3 DUP7 ADD PUSH2 0x1394 JUMP JUMPDEST SWAP2 POP POP SWAP3 POP SWAP3 SWAP1 POP JUMP JUMPDEST PUSH1 0x0 PUSH2 0x14D1 DUP4 DUP4 PUSH2 0x150D JUMP JUMPDEST PUSH1 0x20 DUP4 ADD SWAP1 POP SWAP3 SWAP2 POP POP JUMP JUMPDEST PUSH1 0x0 PUSH2 0x14E9 DUP4 DUP4 PUSH2 0x16C0 JUMP JUMPDEST PUSH1 0xA0 DUP4 ADD SWAP1 POP SWAP3 SWAP2 POP POP JUMP JUMPDEST PUSH1 0x0 PUSH2 0x1501 DUP4 DUP4 PUSH2 0x1728 JUMP JUMPDEST PUSH1 0x20 DUP4 ADD SWAP1 POP SWAP3 SWAP2 POP POP JUMP JUMPDEST PUSH2 0x1516 DUP2 PUSH2 0x1AAC JUMP JUMPDEST DUP3 MSTORE POP POP JUMP JUMPDEST PUSH2 0x1525 DUP2 PUSH2 0x1AAC JUMP JUMPDEST DUP3 MSTORE POP POP JUMP JUMPDEST PUSH2 0x153C PUSH2 0x1537 DUP3 PUSH2 0x1AAC JUMP JUMPDEST PUSH2 0x1B73 JUMP JUMPDEST DUP3 MSTORE POP POP JUMP JUMPDEST PUSH1 0x0 PUSH2 0x154D DUP3 PUSH2 0x1996 JUMP JUMPDEST PUSH2 0x1557 DUP2 DUP6 PUSH2 0x19DE JUMP JUMPDEST SWAP4 POP PUSH2 0x1562 DUP4 PUSH2 0x1966 JUMP JUMPDEST DUP1 PUSH1 0x0 JUMPDEST DUP4 DUP2 LT ISZERO PUSH2 0x1593 JUMPI DUP2 MLOAD PUSH2 0x157A DUP9 DUP3 PUSH2 0x14C5 JUMP JUMPDEST SWAP8 POP PUSH2 0x1585 DUP4 PUSH2 0x19B7 JUMP JUMPDEST SWAP3 POP POP PUSH1 0x1 DUP2 ADD SWAP1 POP PUSH2 0x1566 JUMP JUMPDEST POP DUP6 SWAP4 POP POP POP POP SWAP3 SWAP2 POP POP JUMP JUMPDEST PUSH1 0x0 PUSH2 0x15AB DUP3 PUSH2 0x19A1 JUMP JUMPDEST PUSH2 0x15B5 DUP2 DUP6 PUSH2 0x19EF JUMP JUMPDEST SWAP4 POP PUSH2 0x15C0 DUP4 PUSH2 0x1976 JUMP JUMPDEST DUP1 PUSH1 0x0 JUMPDEST DUP4 DUP2 LT ISZERO PUSH2 0x15F1 JUMPI DUP2 MLOAD PUSH2 0x15D8 DUP9 DUP3 PUSH2 0x14DD JUMP JUMPDEST SWAP8 POP PUSH2 0x15E3 DUP4 PUSH2 0x19C4 JUMP JUMPDEST SWAP3 POP POP PUSH1 0x1 DUP2 ADD SWAP1 POP PUSH2 0x15C4 JUMP JUMPDEST POP DUP6 SWAP4 POP POP POP POP SWAP3 SWAP2 POP POP JUMP JUMPDEST PUSH1 0x0 PUSH2 0x1609 DUP3 PUSH2 0x19AC JUMP JUMPDEST PUSH2 0x1613 DUP2 DUP6 PUSH2 0x1A00 JUMP JUMPDEST SWAP4 POP PUSH2 0x161E DUP4 PUSH2 0x1986 JUMP JUMPDEST DUP1 PUSH1 0x0 JUMPDEST DUP4 DUP2 LT ISZERO PUSH2 0x164F JUMPI DUP2 MLOAD PUSH2 0x1636 DUP9 DUP3 PUSH2 0x14F5 JUMP JUMPDEST SWAP8 POP PUSH2 0x1641 DUP4 PUSH2 0x19D1 JUMP JUMPDEST SWAP3 POP POP PUSH1 0x1 DUP2 ADD SWAP1 POP PUSH2 0x1622 JUMP JUMPDEST POP DUP6 SWAP4 POP POP POP POP SWAP3 SWAP2 POP POP JUMP JUMPDEST PUSH2 0x1665 DUP2 PUSH2 0x1ABE JUMP JUMPDEST DUP3 MSTORE POP POP JUMP JUMPDEST PUSH2 0x1674 DUP2 PUSH2 0x1AF4 JUMP JUMPDEST DUP3 MSTORE POP POP JUMP JUMPDEST PUSH1 0x0 PUSH2 0x1687 PUSH1 0x26 DUP4 PUSH2 0x1A11 JUMP JUMPDEST SWAP2 POP PUSH2 0x1692 DUP3 PUSH2 0x1CCF JUMP JUMPDEST PUSH1 0x40 DUP3 ADD SWAP1 POP SWAP2 SWAP1 POP JUMP JUMPDEST PUSH1 0x0 PUSH2 0x16AA PUSH1 0x20 DUP4 PUSH2 0x1A11 JUMP JUMPDEST SWAP2 POP PUSH2 0x16B5 DUP3 PUSH2 0x1D1E JUMP JUMPDEST PUSH1 0x20 DUP3 ADD SWAP1 POP SWAP2 SWAP1 POP JUMP JUMPDEST PUSH1 0xA0 DUP3 ADD PUSH1 0x0 DUP3 ADD MLOAD PUSH2 0x16D6 PUSH1 0x0 DUP6 ADD DUP3 PUSH2 0x1728 JUMP JUMPDEST POP PUSH1 0x20 DUP3 ADD MLOAD PUSH2 0x16E9 PUSH1 0x20 DUP6 ADD DUP3 PUSH2 0x1728 JUMP JUMPDEST POP PUSH1 0x40 DUP3 ADD MLOAD PUSH2 0x16FC PUSH1 0x40 DUP6 ADD DUP3 PUSH2 0x1728 JUMP JUMPDEST POP PUSH1 0x60 DUP3 ADD MLOAD PUSH2 0x170F PUSH1 0x60 DUP6 ADD DUP3 PUSH2 0x1728 JUMP JUMPDEST POP PUSH1 0x80 DUP3 ADD MLOAD PUSH2 0x1722 PUSH1 0x80 DUP6 ADD DUP3 PUSH2 0x150D JUMP JUMPDEST POP POP POP POP JUMP JUMPDEST PUSH2 0x1731 DUP2 PUSH2 0x1AEA JUMP JUMPDEST DUP3 MSTORE POP POP JUMP JUMPDEST PUSH2 0x1740 DUP2 PUSH2 0x1AEA JUMP JUMPDEST DUP3 MSTORE POP POP JUMP JUMPDEST PUSH2 0x1757 PUSH2 0x1752 DUP3 PUSH2 0x1AEA JUMP JUMPDEST PUSH2 0x1B97 JUMP JUMPDEST DUP3 MSTORE POP POP JUMP JUMPDEST PUSH1 0x0 PUSH2 0x1769 DUP3 DUP9 PUSH2 0x1746 JUMP JUMPDEST PUSH1 0x20 DUP3 ADD SWAP2 POP PUSH2 0x1779 DUP3 DUP8 PUSH2 0x1746 JUMP JUMPDEST PUSH1 0x20 DUP3 ADD SWAP2 POP PUSH2 0x1789 DUP3 DUP7 PUSH2 0x1746 JUMP JUMPDEST PUSH1 0x20 DUP3 ADD SWAP2 POP PUSH2 0x1799 DUP3 DUP6 PUSH2 0x152B JUMP JUMPDEST PUSH1 0x14 DUP3 ADD SWAP2 POP PUSH2 0x17A9 DUP3 DUP5 PUSH2 0x1746 JUMP JUMPDEST PUSH1 0x20 DUP3 ADD SWAP2 POP DUP2 SWAP1 POP SWAP7 SWAP6 POP POP POP POP POP POP JUMP JUMPDEST PUSH1 0x0 PUSH1 0x20 DUP3 ADD SWAP1 POP PUSH2 0x17D1 PUSH1 0x0 DUP4 ADD DUP5 PUSH2 0x151C JUMP JUMPDEST SWAP3 SWAP2 POP POP JUMP JUMPDEST PUSH1 0x0 PUSH1 0x40 DUP3 ADD SWAP1 POP PUSH2 0x17EC PUSH1 0x0 DUP4 ADD DUP6 PUSH2 0x151C JUMP JUMPDEST PUSH2 0x17F9 PUSH1 0x20 DUP4 ADD DUP5 PUSH2 0x1737 JUMP JUMPDEST SWAP4 SWAP3 POP POP POP JUMP JUMPDEST PUSH1 0x0 PUSH1 0x40 DUP3 ADD SWAP1 POP DUP2 DUP2 SUB PUSH1 0x0 DUP4 ADD MSTORE PUSH2 0x181A DUP2 DUP6 PUSH2 0x1542 JUMP JUMPDEST SWAP1 POP DUP2 DUP2 SUB PUSH1 0x20 DUP4 ADD MSTORE PUSH2 0x182E DUP2 DUP5 PUSH2 0x15FE JUMP JUMPDEST SWAP1 POP SWAP4 SWAP3 POP POP POP JUMP JUMPDEST PUSH1 0x0 PUSH1 0x20 DUP3 ADD SWAP1 POP DUP2 DUP2 SUB PUSH1 0x0 DUP4 ADD MSTORE PUSH2 0x1851 DUP2 DUP5 PUSH2 0x15A0 JUMP JUMPDEST SWAP1 POP SWAP3 SWAP2 POP POP JUMP JUMPDEST PUSH1 0x0 PUSH1 0x20 DUP3 ADD SWAP1 POP PUSH2 0x186E PUSH1 0x0 DUP4 ADD DUP5 PUSH2 0x165C JUMP JUMPDEST SWAP3 SWAP2 POP POP JUMP JUMPDEST PUSH1 0x0 PUSH1 0x20 DUP3 ADD SWAP1 POP PUSH2 0x1889 PUSH1 0x0 DUP4 ADD DUP5 PUSH2 0x166B JUMP JUMPDEST SWAP3 SWAP2 POP POP JUMP JUMPDEST PUSH1 0x0 PUSH1 0x20 DUP3 ADD SWAP1 POP DUP2 DUP2 SUB PUSH1 0x0 DUP4 ADD MSTORE PUSH2 0x18A8 DUP2 PUSH2 0x167A JUMP JUMPDEST SWAP1 POP SWAP2 SWAP1 POP JUMP JUMPDEST PUSH1 0x0 PUSH1 0x20 DUP3 ADD SWAP1 POP DUP2 DUP2 SUB PUSH1 0x0 DUP4 ADD MSTORE PUSH2 0x18C8 DUP2 PUSH2 0x169D JUMP JUMPDEST SWAP1 POP SWAP2 SWAP1 POP JUMP JUMPDEST PUSH1 0x0 PUSH1 0x20 DUP3 ADD SWAP1 POP PUSH2 0x18E4 PUSH1 0x0 DUP4 ADD DUP5 PUSH2 0x1737 JUMP JUMPDEST SWAP3 SWAP2 POP POP JUMP JUMPDEST PUSH1 0x0 PUSH1 0x40 DUP3 ADD SWAP1 POP PUSH2 0x18FF PUSH1 0x0 DUP4 ADD DUP6 PUSH2 0x1737 JUMP JUMPDEST PUSH2 0x190C PUSH1 0x20 DUP4 ADD DUP5 PUSH2 0x151C JUMP JUMPDEST SWAP4 SWAP3 POP POP POP JUMP JUMPDEST PUSH1 0x0 PUSH1 0xA0 DUP3 ADD SWAP1 POP PUSH2 0x1928 PUSH1 0x0 DUP4 ADD DUP9 PUSH2 0x1737 JUMP JUMPDEST PUSH2 0x1935 PUSH1 0x20 DUP4 ADD DUP8 PUSH2 0x1737 JUMP JUMPDEST PUSH2 0x1942 PUSH1 0x40 DUP4 ADD DUP7 PUSH2 0x1737 JUMP JUMPDEST PUSH2 0x194F PUSH1 0x60 DUP4 ADD DUP6 PUSH2 0x1737 JUMP JUMPDEST PUSH2 0x195C PUSH1 0x80 DUP4 ADD DUP5 PUSH2 0x151C JUMP JUMPDEST SWAP7 SWAP6 POP POP POP POP POP POP JUMP JUMPDEST PUSH1 0x0 DUP2 SWAP1 POP PUSH1 0x20 DUP3 ADD SWAP1 POP SWAP2 SWAP1 POP JUMP JUMPDEST PUSH1 0x0 DUP2 SWAP1 POP PUSH1 0x20 DUP3 ADD SWAP1 POP SWAP2 SWAP1 POP JUMP JUMPDEST PUSH1 0x0 DUP2 SWAP1 POP PUSH1 0x20 DUP3 ADD SWAP1 POP SWAP2 SWAP1 POP JUMP JUMPDEST PUSH1 0x0 DUP2 MLOAD SWAP1 POP SWAP2 SWAP1 POP JUMP JUMPDEST PUSH1 0x0 DUP2 MLOAD SWAP1 POP SWAP2 SWAP1 POP JUMP JUMPDEST PUSH1 0x0 DUP2 MLOAD SWAP1 POP SWAP2 SWAP1 POP JUMP JUMPDEST PUSH1 0x0 PUSH1 0x20 DUP3 ADD SWAP1 POP SWAP2 SWAP1 POP JUMP JUMPDEST PUSH1 0x0 PUSH1 0x20 DUP3 ADD SWAP1 POP SWAP2 SWAP1 POP JUMP JUMPDEST PUSH1 0x0 PUSH1 0x20 DUP3 ADD SWAP1 POP SWAP2 SWAP1 POP JUMP JUMPDEST PUSH1 0x0 DUP3 DUP3 MSTORE PUSH1 0x20 DUP3 ADD SWAP1 POP SWAP3 SWAP2 POP POP JUMP JUMPDEST PUSH1 0x0 DUP3 DUP3 MSTORE PUSH1 0x20 DUP3 ADD SWAP1 POP SWAP3 SWAP2 POP POP JUMP JUMPDEST PUSH1 0x0 DUP3 DUP3 MSTORE PUSH1 0x20 DUP3 ADD SWAP1 POP SWAP3 SWAP2 POP POP JUMP JUMPDEST PUSH1 0x0 DUP3 DUP3 MSTORE PUSH1 0x20 DUP3 ADD SWAP1 POP SWAP3 SWAP2 POP POP JUMP JUMPDEST PUSH1 0x0 PUSH2 0x1A2D DUP3 PUSH2 0x1AEA JUMP JUMPDEST SWAP2 POP PUSH2 0x1A38 DUP4 PUSH2 0x1AEA JUMP JUMPDEST SWAP3 POP DUP3 PUSH32 0xFFFFFFFFFFFFFFFFFFFFFFFFFFFFFFFFFFFFFFFFFFFFFFFFFFFFFFFFFFFFFFFF SUB DUP3 GT ISZERO PUSH2 0x1A6D JUMPI PUSH2 0x1A6C PUSH2 0x1BD2 JUMP JUMPDEST JUMPDEST DUP3 DUP3 ADD SWAP1 POP SWAP3 SWAP2 POP POP JUMP JUMPDEST PUSH1 0x0 PUSH2 0x1A83 DUP3 PUSH2 0x1AEA JUMP JUMPDEST SWAP2 POP PUSH2 0x1A8E DUP4 PUSH2 0x1AEA JUMP JUMPDEST SWAP3 POP DUP3 DUP3 LT ISZERO PUSH2 0x1AA1 JUMPI PUSH2 0x1AA0 PUSH2 0x1BD2 JUMP JUMPDEST JUMPDEST DUP3 DUP3 SUB SWAP1 POP SWAP3 SWAP2 POP POP JUMP JUMPDEST PUSH1 0x0 PUSH2 0x1AB7 DUP3 PUSH2 0x1ACA JUMP JUMPDEST SWAP1 POP SWAP2 SWAP1 POP JUMP JUMPDEST PUSH1 0x0 DUP2 ISZERO ISZERO SWAP1 POP SWAP2 SWAP1 POP JUMP JUMPDEST PUSH1 0x0 PUSH20 0xFFFFFFFFFFFFFFFFFFFFFFFFFFFFFFFFFFFFFFFF DUP3 AND SWAP1 POP SWAP2 SWAP1 POP JUMP JUMPDEST PUSH1 0x0 DUP2 SWAP1 POP SWAP2 SWAP1 POP JUMP JUMPDEST PUSH1 0x0 PUSH2 0x1AFF DUP3 PUSH2 0x1B06 JUMP JUMPDEST SWAP1 POP SWAP2 SWAP1 POP JUMP JUMPDEST PUSH1 0x0 PUSH2 0x1B11 DUP3 PUSH2 0x1B18 JUMP JUMPDEST SWAP1 POP SWAP2 SWAP1 POP JUMP JUMPDEST PUSH1 0x0 PUSH2 0x1B23 DUP3 PUSH2 0x1ACA JUMP JUMPDEST SWAP1 POP SWAP2 SWAP1 POP JUMP JUMPDEST PUSH1 0x0 PUSH2 0x1B35 DUP3 PUSH2 0x1AEA JUMP JUMPDEST SWAP2 POP PUSH32 0xFFFFFFFFFFFFFFFFFFFFFFFFFFFFFFFFFFFFFFFFFFFFFFFFFFFFFFFFFFFFFFFF DUP3 EQ ISZERO PUSH2 0x1B68 JUMPI PUSH2 0x1B67 PUSH2 0x1BD2 JUMP JUMPDEST JUMPDEST PUSH1 0x1 DUP3 ADD SWAP1 POP SWAP2 SWAP1 POP JUMP JUMPDEST PUSH1 0x0 PUSH2 0x1B7E DUP3 PUSH2 0x1B85 JUMP JUMPDEST SWAP1 POP SWAP2 SWAP1 POP JUMP JUMPDEST PUSH1 0x0 PUSH2 0x1B90 DUP3 PUSH2 0x1CC2 JUMP JUMPDEST SWAP1 POP SWAP2 SWAP1 POP JUMP JUMPDEST PUSH1 0x0 DUP2 SWAP1 POP SWAP2 SWAP1 POP JUMP JUMPDEST PUSH1 0x0 PUSH2 0x1BAC DUP3 PUSH2 0x1AEA JUMP JUMPDEST SWAP2 POP PUSH2 0x1BB7 DUP4 PUSH2 0x1AEA JUMP JUMPDEST SWAP3 POP DUP3 PUSH2 0x1BC7 JUMPI PUSH2 0x1BC6 PUSH2 0x1C01 JUMP JUMPDEST JUMPDEST DUP3 DUP3 MOD SWAP1 POP SWAP3 SWAP2 POP POP JUMP JUMPDEST PUSH32 0x4E487B7100000000000000000000000000000000000000000000000000000000 PUSH1 0x0 MSTORE PUSH1 0x11 PUSH1 0x4 MSTORE PUSH1 0x24 PUSH1 0x0 REVERT JUMPDEST PUSH32 0x4E487B7100000000000000000000000000000000000000000000000000000000 PUSH1 0x0 MSTORE PUSH1 0x12 PUSH1 0x4 MSTORE PUSH1 0x24 PUSH1 0x0 REVERT JUMPDEST PUSH32 0x4E487B7100000000000000000000000000000000000000000000000000000000 PUSH1 0x0 MSTORE PUSH1 0x31 PUSH1 0x4 MSTORE PUSH1 0x24 PUSH1 0x0 REVERT JUMPDEST PUSH32 0x4E487B7100000000000000000000000000000000000000000000000000000000 PUSH1 0x0 MSTORE PUSH1 0x32 PUSH1 0x4 MSTORE PUSH1 0x24 PUSH1 0x0 REVERT JUMPDEST PUSH32 0x4E487B7100000000000000000000000000000000000000000000000000000000 PUSH1 0x0 MSTORE PUSH1 0x41 PUSH1 0x4 MSTORE PUSH1 0x24 PUSH1 0x0 REVERT JUMPDEST PUSH1 0x0 DUP1 REVERT JUMPDEST PUSH1 0x0 DUP2 PUSH1 0x60 SHL SWAP1 POP SWAP2 SWAP1 POP JUMP JUMPDEST PUSH32 0x4F776E61626C653A206E6577206F776E657220697320746865207A65726F2061 PUSH1 0x0 DUP3 ADD MSTORE PUSH32 0x6464726573730000000000000000000000000000000000000000000000000000 PUSH1 0x20 DUP3 ADD MSTORE POP JUMP JUMPDEST PUSH32 0x4F776E61626C653A2063616C6C6572206973206E6F7420746865206F776E6572 PUSH1 0x0 DUP3 ADD MSTORE POP JUMP JUMPDEST PUSH2 0x1D50 DUP2 PUSH2 0x1AAC JUMP JUMPDEST DUP2 EQ PUSH2 0x1D5B JUMPI PUSH1 0x0 DUP1 REVERT JUMPDEST POP JUMP JUMPDEST PUSH2 0x1D67 DUP2 PUSH2 0x1AEA JUMP JUMPDEST DUP2 EQ PUSH2 0x1D72 JUMPI PUSH1 0x0 DUP1 REVERT JUMPDEST POP JUMP INVALID LOG2 PUSH5 0x6970667358 0x22 SLT KECCAK256 0xEB 0x25 0xD0 0x25 CREATE2 PUSH31 0xADD1E11C97CDE84FC3738897F86C45D9082B9C0FB93D566C676564736F6C63 NUMBER STOP ADDMOD SMOD STOP CALLER "
				},
				"gasEstimates": {
					"creation": {
						"codeDepositCost": "1519000",
						"executionCost": "infinite",
						"totalCost": "infinite"
					},
					"external": {
						"acesToken()": "2645",
						"currentJackpot()": "infinite",
						"entriesIndex(address,uint256)": "infinite",
						"getUniqueAddresses()": "infinite",
						"getUniqueUsers()": "infinite",
						"isActiveAccount(address)": "2962",
						"owner()": "2545",
						"pickWinner(uint256)": "infinite",
						"removeAccount(address)": "infinite",
						"removeEntryFromWallet(address,uint256)": "infinite",
						"renounceOwnership()": "30463",
						"resultLog(uint256,uint256)": "infinite",
						"roundEntries()": "2540",
						"roundEntry(uint256)": "2861",
						"roundNum()": "2475",
						"roundResults(uint256)": "infinite",
						"totalPayout()": "2452",
						"transferOwnership(address)": "30811",
						"updateAccount(address,uint256)": "infinite",
						"updateWinner(uint256,uint256)": "infinite",
						"userEntries(address)": "2916"
					},
					"internal": {
						"random(uint256)": "infinite"
					}
				},
				"methodIdentifiers": {
					"acesToken()": "9b3e4552",
					"currentJackpot()": "f9cee0bd",
					"entriesIndex(address,uint256)": "0d988270",
					"getUniqueAddresses()": "3b98bc65",
					"getUniqueUsers()": "158977de",
					"isActiveAccount(address)": "5bedc390",
					"owner()": "8da5cb5b",
					"pickWinner(uint256)": "f737d21d",
					"removeAccount(address)": "c4740a95",
					"removeEntryFromWallet(address,uint256)": "a59460dc",
					"renounceOwnership()": "715018a6",
					"resultLog(uint256,uint256)": "bc15cdf0",
					"roundEntries()": "76636d20",
					"roundEntry(uint256)": "b657dd65",
					"roundNum()": "119b22b3",
					"roundResults(uint256)": "ac128f4f",
					"totalPayout()": "454f7b8f",
					"transferOwnership(address)": "f2fde38b",
					"updateAccount(address,uint256)": "443b80a1",
					"updateWinner(uint256,uint256)": "6fbb5a86",
					"userEntries(address)": "9f10a990"
				}
			},
			"storageLayout": {
				"storage": [
					{
						"astId": 7,
						"contract": "lotto.sol:ACELotto",
						"label": "_owner",
						"offset": 0,
						"slot": "0",
						"type": "t_address"
					},
					{
						"astId": 239,
						"contract": "lotto.sol:ACELotto",
						"label": "roundEntries",
						"offset": 0,
						"slot": "1",
						"type": "t_uint256"
					},
					{
						"astId": 241,
						"contract": "lotto.sol:ACELotto",
						"label": "roundNum",
						"offset": 0,
						"slot": "2",
						"type": "t_uint256"
					},
					{
						"astId": 243,
						"contract": "lotto.sol:ACELotto",
						"label": "totalPayout",
						"offset": 0,
						"slot": "3",
						"type": "t_uint256"
					},
					{
						"astId": 246,
						"contract": "lotto.sol:ACELotto",
						"label": "acesToken",
						"offset": 0,
						"slot": "4",
						"type": "t_contract(IERC20)182"
					},
					{
						"astId": 262,
						"contract": "lotto.sol:ACELotto",
						"label": "roundResults",
						"offset": 0,
						"slot": "5",
						"type": "t_mapping(t_uint256,t_struct(Results)257_storage)"
					},
					{
						"astId": 266,
						"contract": "lotto.sol:ACELotto",
						"label": "roundEntry",
						"offset": 0,
						"slot": "6",
						"type": "t_mapping(t_uint256,t_address)"
					},
					{
						"astId": 271,
						"contract": "lotto.sol:ACELotto",
						"label": "entriesIndex",
						"offset": 0,
						"slot": "7",
						"type": "t_mapping(t_address,t_array(t_uint256)dyn_storage)"
					}
				],
				"types": {
					"t_address": {
						"encoding": "inplace",
						"label": "address",
						"numberOfBytes": "20"
					},
					"t_array(t_uint256)dyn_storage": {
						"base": "t_uint256",
						"encoding": "dynamic_array",
						"label": "uint256[]",
						"numberOfBytes": "32"
					},
					"t_contract(IERC20)182": {
						"encoding": "inplace",
						"label": "contract IERC20",
						"numberOfBytes": "20"
					},
					"t_mapping(t_address,t_array(t_uint256)dyn_storage)": {
						"encoding": "mapping",
						"key": "t_address",
						"label": "mapping(address => uint256[])",
						"numberOfBytes": "32",
						"value": "t_array(t_uint256)dyn_storage"
					},
					"t_mapping(t_uint256,t_address)": {
						"encoding": "mapping",
						"key": "t_uint256",
						"label": "mapping(uint256 => address)",
						"numberOfBytes": "32",
						"value": "t_address"
					},
					"t_mapping(t_uint256,t_struct(Results)257_storage)": {
						"encoding": "mapping",
						"key": "t_uint256",
						"label": "mapping(uint256 => struct ACELotto.Results)",
						"numberOfBytes": "32",
						"value": "t_struct(Results)257_storage"
					},
					"t_struct(Results)257_storage": {
						"encoding": "inplace",
						"label": "struct ACELotto.Results",
						"members": [
							{
								"astId": 248,
								"contract": "lotto.sol:ACELotto",
								"label": "totalEntries",
								"offset": 0,
								"slot": "0",
								"type": "t_uint256"
							},
							{
								"astId": 250,
								"contract": "lotto.sol:ACELotto",
								"label": "winningNumber",
								"offset": 0,
								"slot": "1",
								"type": "t_uint256"
							},
							{
								"astId": 252,
								"contract": "lotto.sol:ACELotto",
								"label": "payout",
								"offset": 0,
								"slot": "2",
								"type": "t_uint256"
							},
							{
								"astId": 254,
								"contract": "lotto.sol:ACELotto",
								"label": "endTime",
								"offset": 0,
								"slot": "3",
								"type": "t_uint256"
							},
							{
								"astId": 256,
								"contract": "lotto.sol:ACELotto",
								"label": "winningAddress",
								"offset": 0,
								"slot": "4",
								"type": "t_address"
							}
						],
						"numberOfBytes": "160"
					},
					"t_uint256": {
						"encoding": "inplace",
						"label": "uint256",
						"numberOfBytes": "32"
					}
				}
			},
			"userdoc": {
				"kind": "user",
				"methods": {},
				"version": 1
			}
		}
	}
}