{
	"NFTlotto.sol": {
		"ACELotto": {
			"abi": [
				{
					"inputs": [
						{
							"internalType": "address",
							"name": "_paymentToken",
							"type": "address"
						},
						{
							"internalType": "address",
							"name": "_NFT",
							"type": "address"
						}
					],
					"stateMutability": "nonpayable",
					"type": "constructor"
				},
				{
					"anonymous": false,
					"inputs": [
						{
							"indexed": false,
							"internalType": "address",
							"name": "winner",
							"type": "address"
						},
						{
							"indexed": false,
							"internalType": "uint256",
							"name": "amount",
							"type": "uint256"
						}
					],
					"name": "LotteryWon",
					"type": "event"
				},
				{
					"anonymous": false,
					"inputs": [
						{
							"indexed": true,
							"internalType": "address",
							"name": "previousOwner",
							"type": "address"
						},
						{
							"indexed": true,
							"internalType": "address",
							"name": "newOwner",
							"type": "address"
						}
					],
					"name": "OwnershipTransferred",
					"type": "event"
				},
				{
					"inputs": [],
					"name": "acesNFT",
					"outputs": [
						{
							"internalType": "contract IERC721Enumerable",
							"name": "",
							"type": "address"
						}
					],
					"stateMutability": "view",
					"type": "function"
				},
				{
					"inputs": [],
					"name": "currentJackpot",
					"outputs": [
						{
							"internalType": "uint256",
							"name": "",
							"type": "uint256"
						}
					],
					"stateMutability": "view",
					"type": "function"
				},
				{
					"inputs": [],
					"name": "getEntries",
					"outputs": [
						{
							"internalType": "uint256",
							"name": "",
							"type": "uint256"
						}
					],
					"stateMutability": "view",
					"type": "function"
				},
				{
					"inputs": [],
					"name": "getUniqueAddresses",
					"outputs": [
						{
							"internalType": "address[]",
							"name": "addresses",
							"type": "address[]"
						},
						{
							"internalType": "uint256[]",
							"name": "entries",
							"type": "uint256[]"
						}
					],
					"stateMutability": "view",
					"type": "function"
				},
				{
					"inputs": [],
					"name": "getUniqueUsers",
					"outputs": [
						{
							"internalType": "uint256",
							"name": "counter",
							"type": "uint256"
						}
					],
					"stateMutability": "view",
					"type": "function"
				},
				{
					"inputs": [],
					"name": "owner",
					"outputs": [
						{
							"internalType": "address",
							"name": "",
							"type": "address"
						}
					],
					"stateMutability": "view",
					"type": "function"
				},
				{
					"inputs": [],
					"name": "paymentToken",
					"outputs": [
						{
							"internalType": "contract IERC20",
							"name": "",
							"type": "address"
						}
					],
					"stateMutability": "view",
					"type": "function"
				},
				{
					"inputs": [],
					"name": "pickWinner",
					"outputs": [],
					"stateMutability": "nonpayable",
					"type": "function"
				},
				{
					"inputs": [],
					"name": "renounceOwnership",
					"outputs": [],
					"stateMutability": "nonpayable",
					"type": "function"
				},
				{
					"inputs": [
						{
							"internalType": "uint256",
							"name": "startIndex",
							"type": "uint256"
						},
						{
							"internalType": "uint256",
							"name": "endIndex",
							"type": "uint256"
						}
					],
					"name": "resultLog",
					"outputs": [
						{
							"components": [
								{
									"internalType": "uint256",
									"name": "totalEntries",
									"type": "uint256"
								},
								{
									"internalType": "uint256",
									"name": "winningNumber",
									"type": "uint256"
								},
								{
									"internalType": "uint256",
									"name": "payout",
									"type": "uint256"
								},
								{
									"internalType": "uint256",
									"name": "endTime",
									"type": "uint256"
								},
								{
									"internalType": "address",
									"name": "winningAddress",
									"type": "address"
								}
							],
							"internalType": "struct ACELotto.Results[]",
							"name": "log",
							"type": "tuple[]"
						}
					],
					"stateMutability": "view",
					"type": "function"
				},
				{
					"inputs": [],
					"name": "roundNum",
					"outputs": [
						{
							"internalType": "uint256",
							"name": "",
							"type": "uint256"
						}
					],
					"stateMutability": "view",
					"type": "function"
				},
				{
					"inputs": [
						{
							"internalType": "uint256",
							"name": "",
							"type": "uint256"
						}
					],
					"name": "roundResults",
					"outputs": [
						{
							"internalType": "uint256",
							"name": "totalEntries",
							"type": "uint256"
						},
						{
							"internalType": "uint256",
							"name": "winningNumber",
							"type": "uint256"
						},
						{
							"internalType": "uint256",
							"name": "payout",
							"type": "uint256"
						},
						{
							"internalType": "uint256",
							"name": "endTime",
							"type": "uint256"
						},
						{
							"internalType": "address",
							"name": "winningAddress",
							"type": "address"
						}
					],
					"stateMutability": "view",
					"type": "function"
				},
				{
					"inputs": [],
					"name": "totalPayout",
					"outputs": [
						{
							"internalType": "uint256",
							"name": "",
							"type": "uint256"
						}
					],
					"stateMutability": "view",
					"type": "function"
				},
				{
					"inputs": [
						{
							"internalType": "address",
							"name": "newOwner",
							"type": "address"
						}
					],
					"name": "transferOwnership",
					"outputs": [],
					"stateMutability": "nonpayable",
					"type": "function"
				},
				{
					"inputs": [
						{
							"internalType": "uint256",
							"name": "_newJackpot",
							"type": "uint256"
						}
					],
					"name": "updateJackpot",
					"outputs": [],
					"stateMutability": "nonpayable",
					"type": "function"
				},
				{
					"inputs": [
						{
							"internalType": "address",
							"name": "_newToken",
							"type": "address"
						}
					],
					"name": "updateToken",
					"outputs": [],
					"stateMutability": "nonpayable",
					"type": "function"
				},
				{
					"inputs": [
						{
							"internalType": "address",
							"name": "account",
							"type": "address"
						}
					],
					"name": "userEntries",
					"outputs": [
						{
							"internalType": "uint256",
							"name": "",
							"type": "uint256"
						}
					],
					"stateMutability": "view",
					"type": "function"
				}
			],
			"devdoc": {
				"kind": "dev",
				"methods": {
					"owner()": {
						"details": "Returns the address of the current owner."
					},
					"renounceOwnership()": {
						"details": "Leaves the contract without owner. It will not be possible to call `onlyOwner` functions anymore. Can only be called by the current owner. NOTE: Renouncing ownership will leave the contract without an owner, thereby removing any functionality that is only available to the owner."
					},
					"transferOwnership(address)": {
						"details": "Transfers ownership of the contract to a new account (`newOwner`). Can only be called by the current owner."
					}
				},
				"version": 1
			},
			"evm": {
				"assembly": "    /* \"NFTlotto.sol\":729:4628  contract ACELotto is Ownable {   \r... */\n  mstore(0x40, 0x80)\n    /* \"NFTlotto.sol\":868:875  1 ether */\n  0x0de0b6b3a7640000\n    /* \"NFTlotto.sol\":836:875  uint256 public currentJackpot = 1 ether */\n  0x03\n  sstore\n    /* \"NFTlotto.sol\":1257:1404  constructor(address _paymentToken, address _NFT){\r... */\n  callvalue\n  dup1\n  iszero\n  tag_1\n  jumpi\n  0x00\n  dup1\n  revert\ntag_1:\n  pop\n  mload(0x40)\n  sub(codesize, bytecodeSize)\n  dup1\n  bytecodeSize\n  dup4\n  codecopy\n  dup2\n  dup2\n  add\n  0x40\n  mstore\n  dup2\n  add\n  swap1\n  tag_2\n  swap2\n  swap1\n  tag_3\n  jump\t// in\ntag_2:\n    /* \"https://github.com/OpenZeppelin/openzeppelin-contracts/blob/master/contracts/access/Ownable.sol\":921:953  _transferOwnership(_msgSender()) */\n  tag_7\n    /* \"https://github.com/OpenZeppelin/openzeppelin-contracts/blob/master/contracts/access/Ownable.sol\":940:952  _msgSender() */\n  tag_8\n    /* \"https://github.com/OpenZeppelin/openzeppelin-contracts/blob/master/contracts/access/Ownable.sol\":940:950  _msgSender */\n  shl(0x20, tag_9)\n    /* \"https://github.com/OpenZeppelin/openzeppelin-contracts/blob/master/contracts/access/Ownable.sol\":940:952  _msgSender() */\n  0x20\n  shr\n  jump\t// in\ntag_8:\n    /* \"https://github.com/OpenZeppelin/openzeppelin-contracts/blob/master/contracts/access/Ownable.sol\":921:939  _transferOwnership */\n  shl(0x20, tag_10)\n    /* \"https://github.com/OpenZeppelin/openzeppelin-contracts/blob/master/contracts/access/Ownable.sol\":921:953  _transferOwnership(_msgSender()) */\n  0x20\n  shr\n  jump\t// in\ntag_7:\n    /* \"NFTlotto.sol\":1338:1351  _paymentToken */\n  dup2\n    /* \"NFTlotto.sol\":1316:1328  paymentToken */\n  0x04\n  0x00\n    /* \"NFTlotto.sol\":1316:1352  paymentToken = IERC20(_paymentToken) */\n  0x0100\n  exp\n  dup2\n  sload\n  dup2\n  0xffffffffffffffffffffffffffffffffffffffff\n  mul\n  not\n  and\n  swap1\n  dup4\n  0xffffffffffffffffffffffffffffffffffffffff\n  and\n  mul\n  or\n  swap1\n  sstore\n  pop\n    /* \"NFTlotto.sol\":1391:1395  _NFT */\n  dup1\n    /* \"NFTlotto.sol\":1363:1370  acesNFT */\n  0x05\n  0x00\n    /* \"NFTlotto.sol\":1363:1396  acesNFT = IERC721Enumerable(_NFT) */\n  0x0100\n  exp\n  dup2\n  sload\n  dup2\n  0xffffffffffffffffffffffffffffffffffffffff\n  mul\n  not\n  and\n  swap1\n  dup4\n  0xffffffffffffffffffffffffffffffffffffffff\n  and\n  mul\n  or\n  swap1\n  sstore\n  pop\n    /* \"NFTlotto.sol\":1257:1404  constructor(address _paymentToken, address _NFT){\r... */\n  pop\n  pop\n    /* \"NFTlotto.sol\":729:4628  contract ACELotto is Ownable {   \r... */\n  jump(tag_12)\n    /* \"https://github.com/OpenZeppelin/openzeppelin-contracts/blob/master/contracts/utils/Context.sol\":640:736  function _msgSender() internal view virtual returns (address) {... */\ntag_9:\n    /* \"https://github.com/OpenZeppelin/openzeppelin-contracts/blob/master/contracts/utils/Context.sol\":693:700  address */\n  0x00\n    /* \"https://github.com/OpenZeppelin/openzeppelin-contracts/blob/master/contracts/utils/Context.sol\":719:729  msg.sender */\n  caller\n    /* \"https://github.com/OpenZeppelin/openzeppelin-contracts/blob/master/contracts/utils/Context.sol\":712:729  return msg.sender */\n  swap1\n  pop\n    /* \"https://github.com/OpenZeppelin/openzeppelin-contracts/blob/master/contracts/utils/Context.sol\":640:736  function _msgSender() internal view virtual returns (address) {... */\n  swap1\n  jump\t// out\n    /* \"https://github.com/OpenZeppelin/openzeppelin-contracts/blob/master/contracts/access/Ownable.sol\":2270:2457  function _transferOwnership(address newOwner) internal virtual {... */\ntag_10:\n    /* \"https://github.com/OpenZeppelin/openzeppelin-contracts/blob/master/contracts/access/Ownable.sol\":2343:2359  address oldOwner */\n  0x00\n    /* \"https://github.com/OpenZeppelin/openzeppelin-contracts/blob/master/contracts/access/Ownable.sol\":2362:2368  _owner */\n  dup1\n  0x00\n  swap1\n  sload\n  swap1\n  0x0100\n  exp\n  swap1\n  div\n  0xffffffffffffffffffffffffffffffffffffffff\n  and\n    /* \"https://github.com/OpenZeppelin/openzeppelin-contracts/blob/master/contracts/access/Ownable.sol\":2343:2368  address oldOwner = _owner */\n  swap1\n  pop\n    /* \"https://github.com/OpenZeppelin/openzeppelin-contracts/blob/master/contracts/access/Ownable.sol\":2387:2395  newOwner */\n  dup2\n    /* \"https://github.com/OpenZeppelin/openzeppelin-contracts/blob/master/contracts/access/Ownable.sol\":2378:2384  _owner */\n  0x00\n  dup1\n    /* \"https://github.com/OpenZeppelin/openzeppelin-contracts/blob/master/contracts/access/Ownable.sol\":2378:2395  _owner = newOwner */\n  0x0100\n  exp\n  dup2\n  sload\n  dup2\n  0xffffffffffffffffffffffffffffffffffffffff\n  mul\n  not\n  and\n  swap1\n  dup4\n  0xffffffffffffffffffffffffffffffffffffffff\n  and\n  mul\n  or\n  swap1\n  sstore\n  pop\n    /* \"https://github.com/OpenZeppelin/openzeppelin-contracts/blob/master/contracts/access/Ownable.sol\":2441:2449  newOwner */\n  dup2\n    /* \"https://github.com/OpenZeppelin/openzeppelin-contracts/blob/master/contracts/access/Ownable.sol\":2410:2450  OwnershipTransferred(oldOwner, newOwner) */\n  0xffffffffffffffffffffffffffffffffffffffff\n  and\n    /* \"https://github.com/OpenZeppelin/openzeppelin-contracts/blob/master/contracts/access/Ownable.sol\":2431:2439  oldOwner */\n  dup2\n    /* \"https://github.com/OpenZeppelin/openzeppelin-contracts/blob/master/contracts/access/Ownable.sol\":2410:2450  OwnershipTransferred(oldOwner, newOwner) */\n  0xffffffffffffffffffffffffffffffffffffffff\n  and\n  0x8be0079c531659141344cd1fd0a4f28419497f9722a3daafe3b4186f6b6457e0\n  mload(0x40)\n  mload(0x40)\n  dup1\n  swap2\n  sub\n  swap1\n  log3\n    /* \"https://github.com/OpenZeppelin/openzeppelin-contracts/blob/master/contracts/access/Ownable.sol\":2333:2457  {... */\n  pop\n    /* \"https://github.com/OpenZeppelin/openzeppelin-contracts/blob/master/contracts/access/Ownable.sol\":2270:2457  function _transferOwnership(address newOwner) internal virtual {... */\n  pop\n  jump\t// out\n    /* \"#utility.yul\":7:150   */\ntag_16:\n    /* \"#utility.yul\":64:69   */\n  0x00\n    /* \"#utility.yul\":95:101   */\n  dup2\n    /* \"#utility.yul\":89:102   */\n  mload\n    /* \"#utility.yul\":80:102   */\n  swap1\n  pop\n    /* \"#utility.yul\":111:144   */\n  tag_18\n    /* \"#utility.yul\":138:143   */\n  dup2\n    /* \"#utility.yul\":111:144   */\n  tag_19\n  jump\t// in\ntag_18:\n    /* \"#utility.yul\":7:150   */\n  swap3\n  swap2\n  pop\n  pop\n  jump\t// out\n    /* \"#utility.yul\":156:663   */\ntag_3:\n    /* \"#utility.yul\":235:241   */\n  0x00\n    /* \"#utility.yul\":243:249   */\n  dup1\n    /* \"#utility.yul\":292:294   */\n  0x40\n    /* \"#utility.yul\":280:289   */\n  dup4\n    /* \"#utility.yul\":271:278   */\n  dup6\n    /* \"#utility.yul\":267:290   */\n  sub\n    /* \"#utility.yul\":263:295   */\n  slt\n    /* \"#utility.yul\":260:379   */\n  iszero\n  tag_21\n  jumpi\n    /* \"#utility.yul\":298:377   */\n  tag_22\n  tag_23\n  jump\t// in\ntag_22:\n    /* \"#utility.yul\":260:379   */\ntag_21:\n    /* \"#utility.yul\":418:419   */\n  0x00\n    /* \"#utility.yul\":443:507   */\n  tag_24\n    /* \"#utility.yul\":499:506   */\n  dup6\n    /* \"#utility.yul\":490:496   */\n  dup3\n    /* \"#utility.yul\":479:488   */\n  dup7\n    /* \"#utility.yul\":475:497   */\n  add\n    /* \"#utility.yul\":443:507   */\n  tag_16\n  jump\t// in\ntag_24:\n    /* \"#utility.yul\":433:507   */\n  swap3\n  pop\n    /* \"#utility.yul\":389:517   */\n  pop\n    /* \"#utility.yul\":556:558   */\n  0x20\n    /* \"#utility.yul\":582:646   */\n  tag_25\n    /* \"#utility.yul\":638:645   */\n  dup6\n    /* \"#utility.yul\":629:635   */\n  dup3\n    /* \"#utility.yul\":618:627   */\n  dup7\n    /* \"#utility.yul\":614:636   */\n  add\n    /* \"#utility.yul\":582:646   */\n  tag_16\n  jump\t// in\ntag_25:\n    /* \"#utility.yul\":572:646   */\n  swap2\n  pop\n    /* \"#utility.yul\":527:656   */\n  pop\n    /* \"#utility.yul\":156:663   */\n  swap3\n  pop\n  swap3\n  swap1\n  pop\n  jump\t// out\n    /* \"#utility.yul\":750:846   */\ntag_28:\n    /* \"#utility.yul\":787:794   */\n  0x00\n    /* \"#utility.yul\":816:840   */\n  tag_30\n    /* \"#utility.yul\":834:839   */\n  dup3\n    /* \"#utility.yul\":816:840   */\n  tag_31\n  jump\t// in\ntag_30:\n    /* \"#utility.yul\":805:840   */\n  swap1\n  pop\n    /* \"#utility.yul\":750:846   */\n  swap2\n  swap1\n  pop\n  jump\t// out\n    /* \"#utility.yul\":852:978   */\ntag_31:\n    /* \"#utility.yul\":889:896   */\n  0x00\n    /* \"#utility.yul\":929:971   */\n  0xffffffffffffffffffffffffffffffffffffffff\n    /* \"#utility.yul\":922:927   */\n  dup3\n    /* \"#utility.yul\":918:972   */\n  and\n    /* \"#utility.yul\":907:972   */\n  swap1\n  pop\n    /* \"#utility.yul\":852:978   */\n  swap2\n  swap1\n  pop\n  jump\t// out\n    /* \"#utility.yul\":1107:1224   */\ntag_23:\n    /* \"#utility.yul\":1216:1217   */\n  0x00\n    /* \"#utility.yul\":1213:1214   */\n  dup1\n    /* \"#utility.yul\":1206:1218   */\n  revert\n    /* \"#utility.yul\":1230:1352   */\ntag_19:\n    /* \"#utility.yul\":1303:1327   */\n  tag_37\n    /* \"#utility.yul\":1321:1326   */\n  dup2\n    /* \"#utility.yul\":1303:1327   */\n  tag_28\n  jump\t// in\ntag_37:\n    /* \"#utility.yul\":1296:1301   */\n  dup2\n    /* \"#utility.yul\":1293:1328   */\n  eq\n    /* \"#utility.yul\":1283:1346   */\n  tag_38\n  jumpi\n    /* \"#utility.yul\":1342:1343   */\n  0x00\n    /* \"#utility.yul\":1339:1340   */\n  dup1\n    /* \"#utility.yul\":1332:1344   */\n  revert\n    /* \"#utility.yul\":1283:1346   */\ntag_38:\n    /* \"#utility.yul\":1230:1352   */\n  pop\n  jump\t// out\n    /* \"NFTlotto.sol\":729:4628  contract ACELotto is Ownable {   \r... */\ntag_12:\n  dataSize(sub_0)\n  dup1\n  dataOffset(sub_0)\n  0x00\n  codecopy\n  0x00\n  return\nstop\n\nsub_0: assembly {\n        /* \"NFTlotto.sol\":729:4628  contract ACELotto is Ownable {   \r... */\n      mstore(0x40, 0x80)\n      callvalue\n      dup1\n      iszero\n      tag_1\n      jumpi\n      0x00\n      dup1\n      revert\n    tag_1:\n      pop\n      jumpi(tag_2, lt(calldatasize, 0x04))\n      shr(0xe0, calldataload(0x00))\n      dup1\n      0x7ad3def2\n      gt\n      tag_20\n      jumpi\n      dup1\n      0xaeb18350\n      gt\n      tag_21\n      jumpi\n      dup1\n      0xaeb18350\n      eq\n      tag_15\n      jumpi\n      dup1\n      0xbc15cdf0\n      eq\n      tag_16\n      jumpi\n      dup1\n      0xf2fde38b\n      eq\n      tag_17\n      jumpi\n      dup1\n      0xf80fb76d\n      eq\n      tag_18\n      jumpi\n      dup1\n      0xf9cee0bd\n      eq\n      tag_19\n      jumpi\n      jump(tag_2)\n    tag_21:\n      dup1\n      0x7ad3def2\n      eq\n      tag_11\n      jumpi\n      dup1\n      0x8da5cb5b\n      eq\n      tag_12\n      jumpi\n      dup1\n      0x9f10a990\n      eq\n      tag_13\n      jumpi\n      dup1\n      0xac128f4f\n      eq\n      tag_14\n      jumpi\n      jump(tag_2)\n    tag_20:\n      dup1\n      0x3b98bc65\n      gt\n      tag_22\n      jumpi\n      dup1\n      0x3b98bc65\n      eq\n      tag_7\n      jumpi\n      dup1\n      0x454f7b8f\n      eq\n      tag_8\n      jumpi\n      dup1\n      0x5d495aea\n      eq\n      tag_9\n      jumpi\n      dup1\n      0x715018a6\n      eq\n      tag_10\n      jumpi\n      jump(tag_2)\n    tag_22:\n      dup1\n      0x119b22b3\n      eq\n      tag_3\n      jumpi\n      dup1\n      0x158977de\n      eq\n      tag_4\n      jumpi\n      dup1\n      0x17be85c3\n      eq\n      tag_5\n      jumpi\n      dup1\n      0x3013ce29\n      eq\n      tag_6\n      jumpi\n    tag_2:\n      0x00\n      dup1\n      revert\n        /* \"NFTlotto.sol\":773:796  uint256 public roundNum */\n    tag_3:\n      tag_23\n      tag_24\n      jump\t// in\n    tag_23:\n      mload(0x40)\n      tag_25\n      swap2\n      swap1\n      tag_26\n      jump\t// in\n    tag_25:\n      mload(0x40)\n      dup1\n      swap2\n      sub\n      swap1\n      return\n        /* \"NFTlotto.sol\":3221:3563  function getUniqueUsers() public view returns (uint256 counter) {\r... */\n    tag_4:\n      tag_27\n      tag_28\n      jump\t// in\n    tag_27:\n      mload(0x40)\n      tag_29\n      swap2\n      swap1\n      tag_26\n      jump\t// in\n    tag_29:\n      mload(0x40)\n      dup1\n      swap2\n      sub\n      swap1\n      return\n        /* \"NFTlotto.sol\":3114:3213  function getEntries() public view returns (uint256) {\r... */\n    tag_5:\n      tag_30\n      tag_31\n      jump\t// in\n    tag_30:\n      mload(0x40)\n      tag_32\n      swap2\n      swap1\n      tag_26\n      jump\t// in\n    tag_32:\n      mload(0x40)\n      dup1\n      swap2\n      sub\n      swap1\n      return\n        /* \"NFTlotto.sol\":888:914  IERC20 public paymentToken */\n    tag_6:\n      tag_33\n      tag_34\n      jump\t// in\n    tag_33:\n      mload(0x40)\n      tag_35\n      swap2\n      swap1\n      tag_36\n      jump\t// in\n    tag_35:\n      mload(0x40)\n      dup1\n      swap2\n      sub\n      swap1\n      return\n        /* \"NFTlotto.sol\":3571:4244  function getUniqueAddresses() public view returns (address [] memory addresses, uint256 [] memory entries) {\r... */\n    tag_7:\n      tag_37\n      tag_38\n      jump\t// in\n    tag_37:\n      mload(0x40)\n      tag_39\n      swap3\n      swap2\n      swap1\n      tag_40\n      jump\t// in\n    tag_39:\n      mload(0x40)\n      dup1\n      swap2\n      sub\n      swap1\n      return\n        /* \"NFTlotto.sol\":803:829  uint256 public totalPayout */\n    tag_8:\n      tag_41\n      tag_42\n      jump\t// in\n    tag_41:\n      mload(0x40)\n      tag_43\n      swap2\n      swap1\n      tag_26\n      jump\t// in\n    tag_43:\n      mload(0x40)\n      dup1\n      swap2\n      sub\n      swap1\n      return\n        /* \"NFTlotto.sol\":1648:2473  function pickWinner() external onlyOwner {\r... */\n    tag_9:\n      tag_44\n      tag_45\n      jump\t// in\n    tag_44:\n      stop\n        /* \"https://github.com/OpenZeppelin/openzeppelin-contracts/blob/master/contracts/access/Ownable.sol\":1668:1769  function renounceOwnership() public virtual onlyOwner {... */\n    tag_10:\n      tag_46\n      tag_47\n      jump\t// in\n    tag_46:\n      stop\n        /* \"NFTlotto.sol\":1412:1522  function updateToken(address _newToken) external onlyOwner {\r... */\n    tag_11:\n      tag_48\n      0x04\n      dup1\n      calldatasize\n      sub\n      dup2\n      add\n      swap1\n      tag_49\n      swap2\n      swap1\n      tag_50\n      jump\t// in\n    tag_49:\n      tag_51\n      jump\t// in\n    tag_48:\n      stop\n        /* \"https://github.com/OpenZeppelin/openzeppelin-contracts/blob/master/contracts/access/Ownable.sol\":1036:1121  function owner() public view virtual returns (address) {... */\n    tag_12:\n      tag_52\n      tag_53\n      jump\t// in\n    tag_52:\n      mload(0x40)\n      tag_54\n      swap2\n      swap1\n      tag_55\n      jump\t// in\n    tag_54:\n      mload(0x40)\n      dup1\n      swap2\n      sub\n      swap1\n      return\n        /* \"NFTlotto.sol\":2481:2601  function userEntries(address account) public view returns (uint256) {\r... */\n    tag_13:\n      tag_56\n      0x04\n      dup1\n      calldatasize\n      sub\n      dup2\n      add\n      swap1\n      tag_57\n      swap2\n      swap1\n      tag_50\n      jump\t// in\n    tag_57:\n      tag_58\n      jump\t// in\n    tag_56:\n      mload(0x40)\n      tag_59\n      swap2\n      swap1\n      tag_26\n      jump\t// in\n    tag_59:\n      mload(0x40)\n      dup1\n      swap2\n      sub\n      swap1\n      return\n        /* \"NFTlotto.sol\":1144:1191  mapping(uint256 => Results) public roundResults */\n    tag_14:\n      tag_60\n      0x04\n      dup1\n      calldatasize\n      sub\n      dup2\n      add\n      swap1\n      tag_61\n      swap2\n      swap1\n      tag_62\n      jump\t// in\n    tag_61:\n      tag_63\n      jump\t// in\n    tag_60:\n      mload(0x40)\n      tag_64\n      swap6\n      swap5\n      swap4\n      swap3\n      swap2\n      swap1\n      tag_65\n      jump\t// in\n    tag_64:\n      mload(0x40)\n      dup1\n      swap2\n      sub\n      swap1\n      return\n        /* \"NFTlotto.sol\":921:953  IERC721Enumerable public acesNFT */\n    tag_15:\n      tag_66\n      tag_67\n      jump\t// in\n    tag_66:\n      mload(0x40)\n      tag_68\n      swap2\n      swap1\n      tag_69\n      jump\t// in\n    tag_68:\n      mload(0x40)\n      dup1\n      swap2\n      sub\n      swap1\n      return\n        /* \"NFTlotto.sol\":2609:3106  function resultLog(uint256 startIndex, uint256 endIndex) external view returns(Results [] memory log){\r... */\n    tag_16:\n      tag_70\n      0x04\n      dup1\n      calldatasize\n      sub\n      dup2\n      add\n      swap1\n      tag_71\n      swap2\n      swap1\n      tag_72\n      jump\t// in\n    tag_71:\n      tag_73\n      jump\t// in\n    tag_70:\n      mload(0x40)\n      tag_74\n      swap2\n      swap1\n      tag_75\n      jump\t// in\n    tag_74:\n      mload(0x40)\n      dup1\n      swap2\n      sub\n      swap1\n      return\n        /* \"https://github.com/OpenZeppelin/openzeppelin-contracts/blob/master/contracts/access/Ownable.sol\":1918:2116  function transferOwnership(address newOwner) public virtual onlyOwner {... */\n    tag_17:\n      tag_76\n      0x04\n      dup1\n      calldatasize\n      sub\n      dup2\n      add\n      swap1\n      tag_77\n      swap2\n      swap1\n      tag_50\n      jump\t// in\n    tag_77:\n      tag_78\n      jump\t// in\n    tag_76:\n      stop\n        /* \"NFTlotto.sol\":1530:1640  function updateJackpot(uint256 _newJackpot) external onlyOwner {\r... */\n    tag_18:\n      tag_79\n      0x04\n      dup1\n      calldatasize\n      sub\n      dup2\n      add\n      swap1\n      tag_80\n      swap2\n      swap1\n      tag_62\n      jump\t// in\n    tag_80:\n      tag_81\n      jump\t// in\n    tag_79:\n      stop\n        /* \"NFTlotto.sol\":836:875  uint256 public currentJackpot = 1 ether */\n    tag_19:\n      tag_82\n      tag_83\n      jump\t// in\n    tag_82:\n      mload(0x40)\n      tag_84\n      swap2\n      swap1\n      tag_26\n      jump\t// in\n    tag_84:\n      mload(0x40)\n      dup1\n      swap2\n      sub\n      swap1\n      return\n        /* \"NFTlotto.sol\":773:796  uint256 public roundNum */\n    tag_24:\n      sload(0x01)\n      dup2\n      jump\t// out\n        /* \"NFTlotto.sol\":3221:3563  function getUniqueUsers() public view returns (uint256 counter) {\r... */\n    tag_28:\n        /* \"NFTlotto.sol\":3268:3283  uint256 counter */\n      0x00\n        /* \"NFTlotto.sol\":3296:3316  uint256 roundEntries */\n      dup1\n        /* \"NFTlotto.sol\":3319:3326  acesNFT */\n      0x05\n      0x00\n      swap1\n      sload\n      swap1\n      0x0100\n      exp\n      swap1\n      div\n      0xffffffffffffffffffffffffffffffffffffffff\n      and\n        /* \"NFTlotto.sol\":3319:3338  acesNFT.totalSupply */\n      0xffffffffffffffffffffffffffffffffffffffff\n      and\n      0x18160ddd\n        /* \"NFTlotto.sol\":3319:3340  acesNFT.totalSupply() */\n      mload(0x40)\n      dup2\n      0xffffffff\n      and\n      0xe0\n      shl\n      dup2\n      mstore\n      0x04\n      add\n      0x20\n      mload(0x40)\n      dup1\n      dup4\n      sub\n      dup2\n      dup7\n      dup1\n      extcodesize\n      iszero\n      dup1\n      iszero\n      tag_86\n      jumpi\n      0x00\n      dup1\n      revert\n    tag_86:\n      pop\n      gas\n      staticcall\n      iszero\n      dup1\n      iszero\n      tag_88\n      jumpi\n      returndatasize\n      0x00\n      dup1\n      returndatacopy\n      revert(0x00, returndatasize)\n    tag_88:\n      pop\n      pop\n      pop\n      pop\n      mload(0x40)\n      returndatasize\n      not(0x1f)\n      0x1f\n      dup3\n      add\n      and\n      dup3\n      add\n      dup1\n      0x40\n      mstore\n      pop\n      dup2\n      add\n      swap1\n      tag_89\n      swap2\n      swap1\n      tag_90\n      jump\t// in\n    tag_89:\n        /* \"NFTlotto.sol\":3296:3340  uint256 roundEntries = acesNFT.totalSupply() */\n      swap1\n      pop\n        /* \"NFTlotto.sol\":3357:3366  uint256 i */\n      0x00\n        /* \"NFTlotto.sol\":3367:3368  1 */\n      0x01\n        /* \"NFTlotto.sol\":3357:3368  uint256 i=1 */\n      swap1\n      pop\n        /* \"NFTlotto.sol\":3353:3556  for(uint256 i=1; i <= roundEntries; i++){\r... */\n    tag_91:\n        /* \"NFTlotto.sol\":3375:3387  roundEntries */\n      dup2\n        /* \"NFTlotto.sol\":3370:3371  i */\n      dup2\n        /* \"NFTlotto.sol\":3370:3387  i <= roundEntries */\n      gt\n        /* \"NFTlotto.sol\":3353:3556  for(uint256 i=1; i <= roundEntries; i++){\r... */\n      tag_92\n      jumpi\n        /* \"NFTlotto.sol\":3408:3420  address user */\n      0x00\n        /* \"NFTlotto.sol\":3423:3430  acesNFT */\n      0x05\n      0x00\n      swap1\n      sload\n      swap1\n      0x0100\n      exp\n      swap1\n      div\n      0xffffffffffffffffffffffffffffffffffffffff\n      and\n        /* \"NFTlotto.sol\":3423:3438  acesNFT.ownerOf */\n      0xffffffffffffffffffffffffffffffffffffffff\n      and\n      0x6352211e\n        /* \"NFTlotto.sol\":3439:3440  i */\n      dup4\n        /* \"NFTlotto.sol\":3423:3441  acesNFT.ownerOf(i) */\n      mload(0x40)\n      dup3\n      0xffffffff\n      and\n      0xe0\n      shl\n      dup2\n      mstore\n      0x04\n      add\n      tag_94\n      swap2\n      swap1\n      tag_26\n      jump\t// in\n    tag_94:\n      0x20\n      mload(0x40)\n      dup1\n      dup4\n      sub\n      dup2\n      dup7\n      dup1\n      extcodesize\n      iszero\n      dup1\n      iszero\n      tag_95\n      jumpi\n      0x00\n      dup1\n      revert\n    tag_95:\n      pop\n      gas\n      staticcall\n      iszero\n      dup1\n      iszero\n      tag_97\n      jumpi\n      returndatasize\n      0x00\n      dup1\n      returndatacopy\n      revert(0x00, returndatasize)\n    tag_97:\n      pop\n      pop\n      pop\n      pop\n      mload(0x40)\n      returndatasize\n      not(0x1f)\n      0x1f\n      dup3\n      add\n      and\n      dup3\n      add\n      dup1\n      0x40\n      mstore\n      pop\n      dup2\n      add\n      swap1\n      tag_98\n      swap2\n      swap1\n      tag_99\n      jump\t// in\n    tag_98:\n        /* \"NFTlotto.sol\":3408:3441  address user = acesNFT.ownerOf(i) */\n      swap1\n      pop\n        /* \"NFTlotto.sol\":3464:3471  acesNFT */\n      0x05\n      0x00\n      swap1\n      sload\n      swap1\n      0x0100\n      exp\n      swap1\n      div\n      0xffffffffffffffffffffffffffffffffffffffff\n      and\n        /* \"NFTlotto.sol\":3464:3491  acesNFT.tokenOfOwnerByIndex */\n      0xffffffffffffffffffffffffffffffffffffffff\n      and\n      0x2f745c59\n        /* \"NFTlotto.sol\":3492:3496  user */\n      dup3\n        /* \"NFTlotto.sol\":3498:3499  0 */\n      0x00\n        /* \"NFTlotto.sol\":3464:3500  acesNFT.tokenOfOwnerByIndex(user, 0) */\n      mload(0x40)\n      dup4\n      0xffffffff\n      and\n      0xe0\n      shl\n      dup2\n      mstore\n      0x04\n      add\n      tag_100\n      swap3\n      swap2\n      swap1\n      tag_101\n      jump\t// in\n    tag_100:\n      0x20\n      mload(0x40)\n      dup1\n      dup4\n      sub\n      dup2\n      dup7\n      dup1\n      extcodesize\n      iszero\n      dup1\n      iszero\n      tag_102\n      jumpi\n      0x00\n      dup1\n      revert\n    tag_102:\n      pop\n      gas\n      staticcall\n      iszero\n      dup1\n      iszero\n      tag_104\n      jumpi\n      returndatasize\n      0x00\n      dup1\n      returndatacopy\n      revert(0x00, returndatasize)\n    tag_104:\n      pop\n      pop\n      pop\n      pop\n      mload(0x40)\n      returndatasize\n      not(0x1f)\n      0x1f\n      dup3\n      add\n      and\n      dup3\n      add\n      dup1\n      0x40\n      mstore\n      pop\n      dup2\n      add\n      swap1\n      tag_105\n      swap2\n      swap1\n      tag_90\n      jump\t// in\n    tag_105:\n        /* \"NFTlotto.sol\":3459:3460  i */\n      dup3\n        /* \"NFTlotto.sol\":3459:3500  i == acesNFT.tokenOfOwnerByIndex(user, 0) */\n      eq\n        /* \"NFTlotto.sol\":3456:3545  if(i == acesNFT.tokenOfOwnerByIndex(user, 0)){\r... */\n      iszero\n      tag_106\n      jumpi\n        /* \"NFTlotto.sol\":3520:3529  counter++ */\n      dup4\n      dup1\n      tag_107\n      swap1\n      tag_108\n      jump\t// in\n    tag_107:\n      swap5\n      pop\n      pop\n        /* \"NFTlotto.sol\":3456:3545  if(i == acesNFT.tokenOfOwnerByIndex(user, 0)){\r... */\n    tag_106:\n        /* \"NFTlotto.sol\":3393:3556  {\r... */\n      pop\n        /* \"NFTlotto.sol\":3389:3392  i++ */\n      dup1\n      dup1\n      tag_109\n      swap1\n      tag_108\n      jump\t// in\n    tag_109:\n      swap2\n      pop\n      pop\n        /* \"NFTlotto.sol\":3353:3556  for(uint256 i=1; i <= roundEntries; i++){\r... */\n      jump(tag_91)\n    tag_92:\n      pop\n        /* \"NFTlotto.sol\":3285:3563  {\r... */\n      pop\n        /* \"NFTlotto.sol\":3221:3563  function getUniqueUsers() public view returns (uint256 counter) {\r... */\n      swap1\n      jump\t// out\n        /* \"NFTlotto.sol\":3114:3213  function getEntries() public view returns (uint256) {\r... */\n    tag_31:\n        /* \"NFTlotto.sol\":3157:3164  uint256 */\n      0x00\n        /* \"NFTlotto.sol\":3184:3191  acesNFT */\n      0x05\n      0x00\n      swap1\n      sload\n      swap1\n      0x0100\n      exp\n      swap1\n      div\n      0xffffffffffffffffffffffffffffffffffffffff\n      and\n        /* \"NFTlotto.sol\":3184:3203  acesNFT.totalSupply */\n      0xffffffffffffffffffffffffffffffffffffffff\n      and\n      0x18160ddd\n        /* \"NFTlotto.sol\":3184:3205  acesNFT.totalSupply() */\n      mload(0x40)\n      dup2\n      0xffffffff\n      and\n      0xe0\n      shl\n      dup2\n      mstore\n      0x04\n      add\n      0x20\n      mload(0x40)\n      dup1\n      dup4\n      sub\n      dup2\n      dup7\n      dup1\n      extcodesize\n      iszero\n      dup1\n      iszero\n      tag_111\n      jumpi\n      0x00\n      dup1\n      revert\n    tag_111:\n      pop\n      gas\n      staticcall\n      iszero\n      dup1\n      iszero\n      tag_113\n      jumpi\n      returndatasize\n      0x00\n      dup1\n      returndatacopy\n      revert(0x00, returndatasize)\n    tag_113:\n      pop\n      pop\n      pop\n      pop\n      mload(0x40)\n      returndatasize\n      not(0x1f)\n      0x1f\n      dup3\n      add\n      and\n      dup3\n      add\n      dup1\n      0x40\n      mstore\n      pop\n      dup2\n      add\n      swap1\n      tag_114\n      swap2\n      swap1\n      tag_90\n      jump\t// in\n    tag_114:\n        /* \"NFTlotto.sol\":3177:3205  return acesNFT.totalSupply() */\n      swap1\n      pop\n        /* \"NFTlotto.sol\":3114:3213  function getEntries() public view returns (uint256) {\r... */\n      swap1\n      jump\t// out\n        /* \"NFTlotto.sol\":888:914  IERC20 public paymentToken */\n    tag_34:\n      0x04\n      0x00\n      swap1\n      sload\n      swap1\n      0x0100\n      exp\n      swap1\n      div\n      0xffffffffffffffffffffffffffffffffffffffff\n      and\n      dup2\n      jump\t// out\n        /* \"NFTlotto.sol\":3571:4244  function getUniqueAddresses() public view returns (address [] memory addresses, uint256 [] memory entries) {\r... */\n    tag_38:\n        /* \"NFTlotto.sol\":3622:3649  address [] memory addresses */\n      0x60\n        /* \"NFTlotto.sol\":3651:3676  uint256 [] memory entries */\n      dup1\n        /* \"NFTlotto.sol\":3689:3709  uint256 roundEntries */\n      0x00\n        /* \"NFTlotto.sol\":3712:3719  acesNFT */\n      0x05\n      0x00\n      swap1\n      sload\n      swap1\n      0x0100\n      exp\n      swap1\n      div\n      0xffffffffffffffffffffffffffffffffffffffff\n      and\n        /* \"NFTlotto.sol\":3712:3731  acesNFT.totalSupply */\n      0xffffffffffffffffffffffffffffffffffffffff\n      and\n      0x18160ddd\n        /* \"NFTlotto.sol\":3712:3733  acesNFT.totalSupply() */\n      mload(0x40)\n      dup2\n      0xffffffff\n      and\n      0xe0\n      shl\n      dup2\n      mstore\n      0x04\n      add\n      0x20\n      mload(0x40)\n      dup1\n      dup4\n      sub\n      dup2\n      dup7\n      dup1\n      extcodesize\n      iszero\n      dup1\n      iszero\n      tag_116\n      jumpi\n      0x00\n      dup1\n      revert\n    tag_116:\n      pop\n      gas\n      staticcall\n      iszero\n      dup1\n      iszero\n      tag_118\n      jumpi\n      returndatasize\n      0x00\n      dup1\n      returndatacopy\n      revert(0x00, returndatasize)\n    tag_118:\n      pop\n      pop\n      pop\n      pop\n      mload(0x40)\n      returndatasize\n      not(0x1f)\n      0x1f\n      dup3\n      add\n      and\n      dup3\n      add\n      dup1\n      0x40\n      mstore\n      pop\n      dup2\n      add\n      swap1\n      tag_119\n      swap2\n      swap1\n      tag_90\n      jump\t// in\n    tag_119:\n        /* \"NFTlotto.sol\":3689:3733  uint256 roundEntries = acesNFT.totalSupply() */\n      swap1\n      pop\n        /* \"NFTlotto.sol\":3744:3763  uint256 arrayLength */\n      0x00\n        /* \"NFTlotto.sol\":3766:3782  getUniqueUsers() */\n      tag_120\n        /* \"NFTlotto.sol\":3766:3780  getUniqueUsers */\n      tag_28\n        /* \"NFTlotto.sol\":3766:3782  getUniqueUsers() */\n      jump\t// in\n    tag_120:\n        /* \"NFTlotto.sol\":3744:3782  uint256 arrayLength = getUniqueUsers() */\n      swap1\n      pop\n        /* \"NFTlotto.sol\":3819:3830  arrayLength */\n      dup1\n        /* \"NFTlotto.sol\":3805:3831  new address[](arrayLength) */\n      0xffffffffffffffff\n      dup2\n      gt\n      iszero\n      tag_121\n      jumpi\n      tag_122\n      tag_123\n      jump\t// in\n    tag_122:\n    tag_121:\n      mload(0x40)\n      swap1\n      dup1\n      dup3\n      mstore\n      dup1\n      0x20\n      mul\n      0x20\n      add\n      dup3\n      add\n      0x40\n      mstore\n      dup1\n      iszero\n      tag_124\n      jumpi\n      dup2\n      0x20\n      add\n      0x20\n      dup3\n      mul\n      dup1\n      calldatasize\n      dup4\n      calldatacopy\n      dup1\n      dup3\n      add\n      swap2\n      pop\n      pop\n      swap1\n      pop\n    tag_124:\n      pop\n        /* \"NFTlotto.sol\":3793:3831  addresses = new address[](arrayLength) */\n      swap4\n      pop\n        /* \"NFTlotto.sol\":3866:3877  arrayLength */\n      dup1\n        /* \"NFTlotto.sol\":3852:3878  new uint256[](arrayLength) */\n      0xffffffffffffffff\n      dup2\n      gt\n      iszero\n      tag_125\n      jumpi\n      tag_126\n      tag_123\n      jump\t// in\n    tag_126:\n    tag_125:\n      mload(0x40)\n      swap1\n      dup1\n      dup3\n      mstore\n      dup1\n      0x20\n      mul\n      0x20\n      add\n      dup3\n      add\n      0x40\n      mstore\n      dup1\n      iszero\n      tag_127\n      jumpi\n      dup2\n      0x20\n      add\n      0x20\n      dup3\n      mul\n      dup1\n      calldatasize\n      dup4\n      calldatacopy\n      dup1\n      dup3\n      add\n      swap2\n      pop\n      pop\n      swap1\n      pop\n    tag_127:\n      pop\n        /* \"NFTlotto.sol\":3842:3878  entries = new uint256[](arrayLength) */\n      swap3\n      pop\n        /* \"NFTlotto.sol\":3889:3909  uint256 currentIndex */\n      0x00\n        /* \"NFTlotto.sol\":3924:3933  uint256 i */\n      dup1\n        /* \"NFTlotto.sol\":3934:3935  1 */\n      0x01\n        /* \"NFTlotto.sol\":3924:3935  uint256 i=1 */\n      swap1\n      pop\n        /* \"NFTlotto.sol\":3920:4237  for(uint256 i=1; i <= roundEntries; i++){\r... */\n    tag_128:\n        /* \"NFTlotto.sol\":3942:3954  roundEntries */\n      dup4\n        /* \"NFTlotto.sol\":3937:3938  i */\n      dup2\n        /* \"NFTlotto.sol\":3937:3954  i <= roundEntries */\n      gt\n        /* \"NFTlotto.sol\":3920:4237  for(uint256 i=1; i <= roundEntries; i++){\r... */\n      tag_129\n      jumpi\n        /* \"NFTlotto.sol\":3975:3987  address user */\n      0x00\n        /* \"NFTlotto.sol\":3990:3997  acesNFT */\n      0x05\n      0x00\n      swap1\n      sload\n      swap1\n      0x0100\n      exp\n      swap1\n      div\n      0xffffffffffffffffffffffffffffffffffffffff\n      and\n        /* \"NFTlotto.sol\":3990:4005  acesNFT.ownerOf */\n      0xffffffffffffffffffffffffffffffffffffffff\n      and\n      0x6352211e\n        /* \"NFTlotto.sol\":4006:4007  i */\n      dup4\n        /* \"NFTlotto.sol\":3990:4008  acesNFT.ownerOf(i) */\n      mload(0x40)\n      dup3\n      0xffffffff\n      and\n      0xe0\n      shl\n      dup2\n      mstore\n      0x04\n      add\n      tag_131\n      swap2\n      swap1\n      tag_26\n      jump\t// in\n    tag_131:\n      0x20\n      mload(0x40)\n      dup1\n      dup4\n      sub\n      dup2\n      dup7\n      dup1\n      extcodesize\n      iszero\n      dup1\n      iszero\n      tag_132\n      jumpi\n      0x00\n      dup1\n      revert\n    tag_132:\n      pop\n      gas\n      staticcall\n      iszero\n      dup1\n      iszero\n      tag_134\n      jumpi\n      returndatasize\n      0x00\n      dup1\n      returndatacopy\n      revert(0x00, returndatasize)\n    tag_134:\n      pop\n      pop\n      pop\n      pop\n      mload(0x40)\n      returndatasize\n      not(0x1f)\n      0x1f\n      dup3\n      add\n      and\n      dup3\n      add\n      dup1\n      0x40\n      mstore\n      pop\n      dup2\n      add\n      swap1\n      tag_135\n      swap2\n      swap1\n      tag_99\n      jump\t// in\n    tag_135:\n        /* \"NFTlotto.sol\":3975:4008  address user = acesNFT.ownerOf(i) */\n      swap1\n      pop\n        /* \"NFTlotto.sol\":4031:4038  acesNFT */\n      0x05\n      0x00\n      swap1\n      sload\n      swap1\n      0x0100\n      exp\n      swap1\n      div\n      0xffffffffffffffffffffffffffffffffffffffff\n      and\n        /* \"NFTlotto.sol\":4031:4058  acesNFT.tokenOfOwnerByIndex */\n      0xffffffffffffffffffffffffffffffffffffffff\n      and\n      0x2f745c59\n        /* \"NFTlotto.sol\":4059:4063  user */\n      dup3\n        /* \"NFTlotto.sol\":4065:4066  0 */\n      0x00\n        /* \"NFTlotto.sol\":4031:4067  acesNFT.tokenOfOwnerByIndex(user, 0) */\n      mload(0x40)\n      dup4\n      0xffffffff\n      and\n      0xe0\n      shl\n      dup2\n      mstore\n      0x04\n      add\n      tag_136\n      swap3\n      swap2\n      swap1\n      tag_101\n      jump\t// in\n    tag_136:\n      0x20\n      mload(0x40)\n      dup1\n      dup4\n      sub\n      dup2\n      dup7\n      dup1\n      extcodesize\n      iszero\n      dup1\n      iszero\n      tag_137\n      jumpi\n      0x00\n      dup1\n      revert\n    tag_137:\n      pop\n      gas\n      staticcall\n      iszero\n      dup1\n      iszero\n      tag_139\n      jumpi\n      returndatasize\n      0x00\n      dup1\n      returndatacopy\n      revert(0x00, returndatasize)\n    tag_139:\n      pop\n      pop\n      pop\n      pop\n      mload(0x40)\n      returndatasize\n      not(0x1f)\n      0x1f\n      dup3\n      add\n      and\n      dup3\n      add\n      dup1\n      0x40\n      mstore\n      pop\n      dup2\n      add\n      swap1\n      tag_140\n      swap2\n      swap1\n      tag_90\n      jump\t// in\n    tag_140:\n        /* \"NFTlotto.sol\":4026:4027  i */\n      dup3\n        /* \"NFTlotto.sol\":4026:4067  i == acesNFT.tokenOfOwnerByIndex(user, 0) */\n      eq\n        /* \"NFTlotto.sol\":4023:4226  if(i == acesNFT.tokenOfOwnerByIndex(user, 0)){\r... */\n      iszero\n      tag_141\n      jumpi\n        /* \"NFTlotto.sol\":4113:4117  user */\n      dup1\n        /* \"NFTlotto.sol\":4087:4096  addresses */\n      dup8\n        /* \"NFTlotto.sol\":4097:4109  currentIndex */\n      dup5\n        /* \"NFTlotto.sol\":4087:4110  addresses[currentIndex] */\n      dup2\n      mload\n      dup2\n      lt\n      tag_142\n      jumpi\n      tag_143\n      tag_144\n      jump\t// in\n    tag_143:\n    tag_142:\n      0x20\n      mul\n      0x20\n      add\n      add\n        /* \"NFTlotto.sol\":4087:4117  addresses[currentIndex] = user */\n      swap1\n      0xffffffffffffffffffffffffffffffffffffffff\n      and\n      swap1\n      dup2\n      0xffffffffffffffffffffffffffffffffffffffff\n      and\n      dup2\n      mstore\n      pop\n      pop\n        /* \"NFTlotto.sol\":4160:4177  userEntries(user) */\n      tag_145\n        /* \"NFTlotto.sol\":4172:4176  user */\n      dup2\n        /* \"NFTlotto.sol\":4160:4171  userEntries */\n      tag_58\n        /* \"NFTlotto.sol\":4160:4177  userEntries(user) */\n      jump\t// in\n    tag_145:\n        /* \"NFTlotto.sol\":4136:4143  entries */\n      dup7\n        /* \"NFTlotto.sol\":4144:4156  currentIndex */\n      dup5\n        /* \"NFTlotto.sol\":4136:4157  entries[currentIndex] */\n      dup2\n      mload\n      dup2\n      lt\n      tag_146\n      jumpi\n      tag_147\n      tag_144\n      jump\t// in\n    tag_147:\n    tag_146:\n      0x20\n      mul\n      0x20\n      add\n      add\n        /* \"NFTlotto.sol\":4136:4177  entries[currentIndex] = userEntries(user) */\n      dup2\n      dup2\n      mstore\n      pop\n      pop\n        /* \"NFTlotto.sol\":4196:4210  currentIndex++ */\n      dup3\n      dup1\n      tag_148\n      swap1\n      tag_108\n      jump\t// in\n    tag_148:\n      swap4\n      pop\n      pop\n        /* \"NFTlotto.sol\":4023:4226  if(i == acesNFT.tokenOfOwnerByIndex(user, 0)){\r... */\n    tag_141:\n        /* \"NFTlotto.sol\":3960:4237  {\r... */\n      pop\n        /* \"NFTlotto.sol\":3956:3959  i++ */\n      dup1\n      dup1\n      tag_149\n      swap1\n      tag_108\n      jump\t// in\n    tag_149:\n      swap2\n      pop\n      pop\n        /* \"NFTlotto.sol\":3920:4237  for(uint256 i=1; i <= roundEntries; i++){\r... */\n      jump(tag_128)\n    tag_129:\n      pop\n        /* \"NFTlotto.sol\":3678:4244  {\r... */\n      pop\n      pop\n      pop\n        /* \"NFTlotto.sol\":3571:4244  function getUniqueAddresses() public view returns (address [] memory addresses, uint256 [] memory entries) {\r... */\n      swap1\n      swap2\n      jump\t// out\n        /* \"NFTlotto.sol\":803:829  uint256 public totalPayout */\n    tag_42:\n      sload(0x02)\n      dup2\n      jump\t// out\n        /* \"NFTlotto.sol\":1648:2473  function pickWinner() external onlyOwner {\r... */\n    tag_45:\n        /* \"https://github.com/OpenZeppelin/openzeppelin-contracts/blob/master/contracts/access/Ownable.sol\":1259:1271  _msgSender() */\n      tag_151\n        /* \"https://github.com/OpenZeppelin/openzeppelin-contracts/blob/master/contracts/access/Ownable.sol\":1259:1269  _msgSender */\n      tag_152\n        /* \"https://github.com/OpenZeppelin/openzeppelin-contracts/blob/master/contracts/access/Ownable.sol\":1259:1271  _msgSender() */\n      jump\t// in\n    tag_151:\n        /* \"https://github.com/OpenZeppelin/openzeppelin-contracts/blob/master/contracts/access/Ownable.sol\":1248:1271  owner() == _msgSender() */\n      0xffffffffffffffffffffffffffffffffffffffff\n      and\n        /* \"https://github.com/OpenZeppelin/openzeppelin-contracts/blob/master/contracts/access/Ownable.sol\":1248:1255  owner() */\n      tag_153\n        /* \"https://github.com/OpenZeppelin/openzeppelin-contracts/blob/master/contracts/access/Ownable.sol\":1248:1253  owner */\n      tag_53\n        /* \"https://github.com/OpenZeppelin/openzeppelin-contracts/blob/master/contracts/access/Ownable.sol\":1248:1255  owner() */\n      jump\t// in\n    tag_153:\n        /* \"https://github.com/OpenZeppelin/openzeppelin-contracts/blob/master/contracts/access/Ownable.sol\":1248:1271  owner() == _msgSender() */\n      0xffffffffffffffffffffffffffffffffffffffff\n      and\n      eq\n        /* \"https://github.com/OpenZeppelin/openzeppelin-contracts/blob/master/contracts/access/Ownable.sol\":1240:1308  require(owner() == _msgSender(), \"Ownable: caller is not the owner\") */\n      tag_154\n      jumpi\n      mload(0x40)\n      0x08c379a000000000000000000000000000000000000000000000000000000000\n      dup2\n      mstore\n      0x04\n      add\n      tag_155\n      swap1\n      tag_156\n      jump\t// in\n    tag_155:\n      mload(0x40)\n      dup1\n      swap2\n      sub\n      swap1\n      revert\n    tag_154:\n        /* \"NFTlotto.sol\":1700:1714  uint256 payout */\n      0x00\n        /* \"NFTlotto.sol\":1717:1731  currentJackpot */\n      sload(0x03)\n        /* \"NFTlotto.sol\":1700:1731  uint256 payout = currentJackpot */\n      swap1\n      pop\n        /* \"NFTlotto.sol\":1742:1765  uint256 contractBalance */\n      0x00\n        /* \"NFTlotto.sol\":1768:1780  paymentToken */\n      0x04\n      0x00\n      swap1\n      sload\n      swap1\n      0x0100\n      exp\n      swap1\n      div\n      0xffffffffffffffffffffffffffffffffffffffff\n      and\n        /* \"NFTlotto.sol\":1768:1790  paymentToken.balanceOf */\n      0xffffffffffffffffffffffffffffffffffffffff\n      and\n      0x70a08231\n        /* \"NFTlotto.sol\":1799:1803  this */\n      address\n        /* \"NFTlotto.sol\":1768:1805  paymentToken.balanceOf(address(this)) */\n      mload(0x40)\n      dup3\n      0xffffffff\n      and\n      0xe0\n      shl\n      dup2\n      mstore\n      0x04\n      add\n      tag_158\n      swap2\n      swap1\n      tag_55\n      jump\t// in\n    tag_158:\n      0x20\n      mload(0x40)\n      dup1\n      dup4\n      sub\n      dup2\n      dup7\n      dup1\n      extcodesize\n      iszero\n      dup1\n      iszero\n      tag_159\n      jumpi\n      0x00\n      dup1\n      revert\n    tag_159:\n      pop\n      gas\n      staticcall\n      iszero\n      dup1\n      iszero\n      tag_161\n      jumpi\n      returndatasize\n      0x00\n      dup1\n      returndatacopy\n      revert(0x00, returndatasize)\n    tag_161:\n      pop\n      pop\n      pop\n      pop\n      mload(0x40)\n      returndatasize\n      not(0x1f)\n      0x1f\n      dup3\n      add\n      and\n      dup3\n      add\n      dup1\n      0x40\n      mstore\n      pop\n      dup2\n      add\n      swap1\n      tag_162\n      swap2\n      swap1\n      tag_90\n      jump\t// in\n    tag_162:\n        /* \"NFTlotto.sol\":1742:1805  uint256 contractBalance = paymentToken.balanceOf(address(this)) */\n      swap1\n      pop\n        /* \"NFTlotto.sol\":1843:1849  payout */\n      dup2\n        /* \"NFTlotto.sol\":1824:1839  contractBalance */\n      dup2\n        /* \"NFTlotto.sol\":1824:1849  contractBalance >= payout */\n      lt\n      iszero\n        /* \"NFTlotto.sol\":1816:1878  require(contractBalance >= payout, \"Not enough funds to draw\") */\n      tag_163\n      jumpi\n      mload(0x40)\n      0x08c379a000000000000000000000000000000000000000000000000000000000\n      dup2\n      mstore\n      0x04\n      add\n      tag_164\n      swap1\n      tag_165\n      jump\t// in\n    tag_164:\n      mload(0x40)\n      dup1\n      swap2\n      sub\n      swap1\n      revert\n    tag_163:\n        /* \"NFTlotto.sol\":1891:1911  uint256 roundEntries */\n      0x00\n        /* \"NFTlotto.sol\":1914:1921  acesNFT */\n      0x05\n      0x00\n      swap1\n      sload\n      swap1\n      0x0100\n      exp\n      swap1\n      div\n      0xffffffffffffffffffffffffffffffffffffffff\n      and\n        /* \"NFTlotto.sol\":1914:1933  acesNFT.totalSupply */\n      0xffffffffffffffffffffffffffffffffffffffff\n      and\n      0x18160ddd\n        /* \"NFTlotto.sol\":1914:1935  acesNFT.totalSupply() */\n      mload(0x40)\n      dup2\n      0xffffffff\n      and\n      0xe0\n      shl\n      dup2\n      mstore\n      0x04\n      add\n      0x20\n      mload(0x40)\n      dup1\n      dup4\n      sub\n      dup2\n      dup7\n      dup1\n      extcodesize\n      iszero\n      dup1\n      iszero\n      tag_166\n      jumpi\n      0x00\n      dup1\n      revert\n    tag_166:\n      pop\n      gas\n      staticcall\n      iszero\n      dup1\n      iszero\n      tag_168\n      jumpi\n      returndatasize\n      0x00\n      dup1\n      returndatacopy\n      revert(0x00, returndatasize)\n    tag_168:\n      pop\n      pop\n      pop\n      pop\n      mload(0x40)\n      returndatasize\n      not(0x1f)\n      0x1f\n      dup3\n      add\n      and\n      dup3\n      add\n      dup1\n      0x40\n      mstore\n      pop\n      dup2\n      add\n      swap1\n      tag_169\n      swap2\n      swap1\n      tag_90\n      jump\t// in\n    tag_169:\n        /* \"NFTlotto.sol\":1891:1935  uint256 roundEntries = acesNFT.totalSupply() */\n      swap1\n      pop\n        /* \"NFTlotto.sol\":1946:1963  uint256 winnerNum */\n      0x00\n        /* \"NFTlotto.sol\":1977:1989  roundEntries */\n      dup2\n        /* \"NFTlotto.sol\":1966:1974  random() */\n      tag_170\n        /* \"NFTlotto.sol\":1966:1972  random */\n      tag_171\n        /* \"NFTlotto.sol\":1966:1974  random() */\n      jump\t// in\n    tag_170:\n        /* \"NFTlotto.sol\":1966:1989  random() % roundEntries */\n      tag_172\n      swap2\n      swap1\n      tag_173\n      jump\t// in\n    tag_172:\n        /* \"NFTlotto.sol\":1946:1989  uint256 winnerNum = random() % roundEntries */\n      swap1\n      pop\n        /* \"NFTlotto.sol\":2000:2021  address winnerAddress */\n      0x00\n        /* \"NFTlotto.sol\":2024:2031  acesNFT */\n      0x05\n      0x00\n      swap1\n      sload\n      swap1\n      0x0100\n      exp\n      swap1\n      div\n      0xffffffffffffffffffffffffffffffffffffffff\n      and\n        /* \"NFTlotto.sol\":2024:2039  acesNFT.ownerOf */\n      0xffffffffffffffffffffffffffffffffffffffff\n      and\n      0x6352211e\n        /* \"NFTlotto.sol\":2040:2049  winnerNum */\n      dup4\n        /* \"NFTlotto.sol\":2024:2050  acesNFT.ownerOf(winnerNum) */\n      mload(0x40)\n      dup3\n      0xffffffff\n      and\n      0xe0\n      shl\n      dup2\n      mstore\n      0x04\n      add\n      tag_174\n      swap2\n      swap1\n      tag_26\n      jump\t// in\n    tag_174:\n      0x20\n      mload(0x40)\n      dup1\n      dup4\n      sub\n      dup2\n      dup7\n      dup1\n      extcodesize\n      iszero\n      dup1\n      iszero\n      tag_175\n      jumpi\n      0x00\n      dup1\n      revert\n    tag_175:\n      pop\n      gas\n      staticcall\n      iszero\n      dup1\n      iszero\n      tag_177\n      jumpi\n      returndatasize\n      0x00\n      dup1\n      returndatacopy\n      revert(0x00, returndatasize)\n    tag_177:\n      pop\n      pop\n      pop\n      pop\n      mload(0x40)\n      returndatasize\n      not(0x1f)\n      0x1f\n      dup3\n      add\n      and\n      dup3\n      add\n      dup1\n      0x40\n      mstore\n      pop\n      dup2\n      add\n      swap1\n      tag_178\n      swap2\n      swap1\n      tag_99\n      jump\t// in\n    tag_178:\n        /* \"NFTlotto.sol\":2000:2050  address winnerAddress = acesNFT.ownerOf(winnerNum) */\n      swap1\n      pop\n        /* \"NFTlotto.sol\":2088:2302  Results ({\r... */\n      mload(0x40)\n      dup1\n      0xa0\n      add\n      0x40\n      mstore\n      dup1\n        /* \"NFTlotto.sol\":2126:2138  roundEntries */\n      dup5\n        /* \"NFTlotto.sol\":2088:2302  Results ({\r... */\n      dup2\n      mstore\n      0x20\n      add\n        /* \"NFTlotto.sol\":2168:2177  winnerNum */\n      dup4\n        /* \"NFTlotto.sol\":2088:2302  Results ({\r... */\n      dup2\n      mstore\n      0x20\n      add\n        /* \"NFTlotto.sol\":2200:2206  payout */\n      dup7\n        /* \"NFTlotto.sol\":2088:2302  Results ({\r... */\n      dup2\n      mstore\n      0x20\n      add\n        /* \"NFTlotto.sol\":2230:2245  block.timestamp */\n      timestamp\n        /* \"NFTlotto.sol\":2088:2302  Results ({\r... */\n      dup2\n      mstore\n      0x20\n      add\n        /* \"NFTlotto.sol\":2276:2289  winnerAddress */\n      dup3\n        /* \"NFTlotto.sol\":2088:2302  Results ({\r... */\n      0xffffffffffffffffffffffffffffffffffffffff\n      and\n      dup2\n      mstore\n      pop\n        /* \"NFTlotto.sol\":2063:2075  roundResults */\n      0x06\n        /* \"NFTlotto.sol\":2063:2085  roundResults[roundNum] */\n      0x00\n        /* \"NFTlotto.sol\":2076:2084  roundNum */\n      sload(0x01)\n        /* \"NFTlotto.sol\":2063:2085  roundResults[roundNum] */\n      dup2\n      mstore\n      0x20\n      add\n      swap1\n      dup2\n      mstore\n      0x20\n      add\n      0x00\n      keccak256\n        /* \"NFTlotto.sol\":2063:2302  roundResults[roundNum] = Results ({\r... */\n      0x00\n      dup3\n      add\n      mload\n      dup2\n      0x00\n      add\n      sstore\n      0x20\n      dup3\n      add\n      mload\n      dup2\n      0x01\n      add\n      sstore\n      0x40\n      dup3\n      add\n      mload\n      dup2\n      0x02\n      add\n      sstore\n      0x60\n      dup3\n      add\n      mload\n      dup2\n      0x03\n      add\n      sstore\n      0x80\n      dup3\n      add\n      mload\n      dup2\n      0x04\n      add\n      exp(0x0100, 0x00)\n      dup2\n      sload\n      dup2\n      0xffffffffffffffffffffffffffffffffffffffff\n      mul\n      not\n      and\n      swap1\n      dup4\n      0xffffffffffffffffffffffffffffffffffffffff\n      and\n      mul\n      or\n      swap1\n      sstore\n      pop\n      swap1\n      pop\n      pop\n        /* \"NFTlotto.sol\":2330:2336  payout */\n      dup5\n        /* \"NFTlotto.sol\":2315:2326  totalPayout */\n      0x02\n      0x00\n        /* \"NFTlotto.sol\":2315:2336  totalPayout += payout */\n      dup3\n      dup3\n      sload\n      tag_179\n      swap2\n      swap1\n      tag_180\n      jump\t// in\n    tag_179:\n      swap3\n      pop\n      pop\n      dup2\n      swap1\n      sstore\n      pop\n        /* \"NFTlotto.sol\":2347:2355  roundNum */\n      0x01\n      0x00\n        /* \"NFTlotto.sol\":2347:2357  roundNum++ */\n      dup2\n      sload\n      dup1\n      swap3\n      swap2\n      swap1\n      tag_181\n      swap1\n      tag_108\n      jump\t// in\n    tag_181:\n      swap2\n      swap1\n      pop\n      sstore\n      pop\n        /* \"NFTlotto.sol\":2370:2382  paymentToken */\n      0x04\n      0x00\n      swap1\n      sload\n      swap1\n      0x0100\n      exp\n      swap1\n      div\n      0xffffffffffffffffffffffffffffffffffffffff\n      and\n        /* \"NFTlotto.sol\":2370:2391  paymentToken.transfer */\n      0xffffffffffffffffffffffffffffffffffffffff\n      and\n      0xa9059cbb\n        /* \"NFTlotto.sol\":2392:2405  winnerAddress */\n      dup3\n        /* \"NFTlotto.sol\":2407:2413  payout */\n      dup8\n        /* \"NFTlotto.sol\":2370:2414  paymentToken.transfer(winnerAddress, payout) */\n      mload(0x40)\n      dup4\n      0xffffffff\n      and\n      0xe0\n      shl\n      dup2\n      mstore\n      0x04\n      add\n      tag_182\n      swap3\n      swap2\n      swap1\n      tag_183\n      jump\t// in\n    tag_182:\n      0x20\n      mload(0x40)\n      dup1\n      dup4\n      sub\n      dup2\n      0x00\n      dup8\n      dup1\n      extcodesize\n      iszero\n      dup1\n      iszero\n      tag_184\n      jumpi\n      0x00\n      dup1\n      revert\n    tag_184:\n      pop\n      gas\n      call\n      iszero\n      dup1\n      iszero\n      tag_186\n      jumpi\n      returndatasize\n      0x00\n      dup1\n      returndatacopy\n      revert(0x00, returndatasize)\n    tag_186:\n      pop\n      pop\n      pop\n      pop\n      mload(0x40)\n      returndatasize\n      not(0x1f)\n      0x1f\n      dup3\n      add\n      and\n      dup3\n      add\n      dup1\n      0x40\n      mstore\n      pop\n      dup2\n      add\n      swap1\n      tag_187\n      swap2\n      swap1\n      tag_188\n      jump\t// in\n    tag_187:\n      pop\n        /* \"NFTlotto.sol\":2432:2465  LotteryWon(winnerAddress, payout) */\n      0x2e798dd4337e515c79b64c40e1a93baa1aefbd9180ac7905e02508edd7971e50\n        /* \"NFTlotto.sol\":2443:2456  winnerAddress */\n      dup2\n        /* \"NFTlotto.sol\":2458:2464  payout */\n      dup7\n        /* \"NFTlotto.sol\":2432:2465  LotteryWon(winnerAddress, payout) */\n      mload(0x40)\n      tag_189\n      swap3\n      swap2\n      swap1\n      tag_183\n      jump\t// in\n    tag_189:\n      mload(0x40)\n      dup1\n      swap2\n      sub\n      swap1\n      log1\n        /* \"NFTlotto.sol\":1689:2473  {\r... */\n      pop\n      pop\n      pop\n      pop\n      pop\n        /* \"NFTlotto.sol\":1648:2473  function pickWinner() external onlyOwner {\r... */\n      jump\t// out\n        /* \"https://github.com/OpenZeppelin/openzeppelin-contracts/blob/master/contracts/access/Ownable.sol\":1668:1769  function renounceOwnership() public virtual onlyOwner {... */\n    tag_47:\n        /* \"https://github.com/OpenZeppelin/openzeppelin-contracts/blob/master/contracts/access/Ownable.sol\":1259:1271  _msgSender() */\n      tag_191\n        /* \"https://github.com/OpenZeppelin/openzeppelin-contracts/blob/master/contracts/access/Ownable.sol\":1259:1269  _msgSender */\n      tag_152\n        /* \"https://github.com/OpenZeppelin/openzeppelin-contracts/blob/master/contracts/access/Ownable.sol\":1259:1271  _msgSender() */\n      jump\t// in\n    tag_191:\n        /* \"https://github.com/OpenZeppelin/openzeppelin-contracts/blob/master/contracts/access/Ownable.sol\":1248:1271  owner() == _msgSender() */\n      0xffffffffffffffffffffffffffffffffffffffff\n      and\n        /* \"https://github.com/OpenZeppelin/openzeppelin-contracts/blob/master/contracts/access/Ownable.sol\":1248:1255  owner() */\n      tag_192\n        /* \"https://github.com/OpenZeppelin/openzeppelin-contracts/blob/master/contracts/access/Ownable.sol\":1248:1253  owner */\n      tag_53\n        /* \"https://github.com/OpenZeppelin/openzeppelin-contracts/blob/master/contracts/access/Ownable.sol\":1248:1255  owner() */\n      jump\t// in\n    tag_192:\n        /* \"https://github.com/OpenZeppelin/openzeppelin-contracts/blob/master/contracts/access/Ownable.sol\":1248:1271  owner() == _msgSender() */\n      0xffffffffffffffffffffffffffffffffffffffff\n      and\n      eq\n        /* \"https://github.com/OpenZeppelin/openzeppelin-contracts/blob/master/contracts/access/Ownable.sol\":1240:1308  require(owner() == _msgSender(), \"Ownable: caller is not the owner\") */\n      tag_193\n      jumpi\n      mload(0x40)\n      0x08c379a000000000000000000000000000000000000000000000000000000000\n      dup2\n      mstore\n      0x04\n      add\n      tag_194\n      swap1\n      tag_156\n      jump\t// in\n    tag_194:\n      mload(0x40)\n      dup1\n      swap2\n      sub\n      swap1\n      revert\n    tag_193:\n        /* \"https://github.com/OpenZeppelin/openzeppelin-contracts/blob/master/contracts/access/Ownable.sol\":1732:1762  _transferOwnership(address(0)) */\n      tag_196\n        /* \"https://github.com/OpenZeppelin/openzeppelin-contracts/blob/master/contracts/access/Ownable.sol\":1759:1760  0 */\n      0x00\n        /* \"https://github.com/OpenZeppelin/openzeppelin-contracts/blob/master/contracts/access/Ownable.sol\":1732:1750  _transferOwnership */\n      tag_197\n        /* \"https://github.com/OpenZeppelin/openzeppelin-contracts/blob/master/contracts/access/Ownable.sol\":1732:1762  _transferOwnership(address(0)) */\n      jump\t// in\n    tag_196:\n        /* \"https://github.com/OpenZeppelin/openzeppelin-contracts/blob/master/contracts/access/Ownable.sol\":1668:1769  function renounceOwnership() public virtual onlyOwner {... */\n      jump\t// out\n        /* \"NFTlotto.sol\":1412:1522  function updateToken(address _newToken) external onlyOwner {\r... */\n    tag_51:\n        /* \"https://github.com/OpenZeppelin/openzeppelin-contracts/blob/master/contracts/access/Ownable.sol\":1259:1271  _msgSender() */\n      tag_199\n        /* \"https://github.com/OpenZeppelin/openzeppelin-contracts/blob/master/contracts/access/Ownable.sol\":1259:1269  _msgSender */\n      tag_152\n        /* \"https://github.com/OpenZeppelin/openzeppelin-contracts/blob/master/contracts/access/Ownable.sol\":1259:1271  _msgSender() */\n      jump\t// in\n    tag_199:\n        /* \"https://github.com/OpenZeppelin/openzeppelin-contracts/blob/master/contracts/access/Ownable.sol\":1248:1271  owner() == _msgSender() */\n      0xffffffffffffffffffffffffffffffffffffffff\n      and\n        /* \"https://github.com/OpenZeppelin/openzeppelin-contracts/blob/master/contracts/access/Ownable.sol\":1248:1255  owner() */\n      tag_200\n        /* \"https://github.com/OpenZeppelin/openzeppelin-contracts/blob/master/contracts/access/Ownable.sol\":1248:1253  owner */\n      tag_53\n        /* \"https://github.com/OpenZeppelin/openzeppelin-contracts/blob/master/contracts/access/Ownable.sol\":1248:1255  owner() */\n      jump\t// in\n    tag_200:\n        /* \"https://github.com/OpenZeppelin/openzeppelin-contracts/blob/master/contracts/access/Ownable.sol\":1248:1271  owner() == _msgSender() */\n      0xffffffffffffffffffffffffffffffffffffffff\n      and\n      eq\n        /* \"https://github.com/OpenZeppelin/openzeppelin-contracts/blob/master/contracts/access/Ownable.sol\":1240:1308  require(owner() == _msgSender(), \"Ownable: caller is not the owner\") */\n      tag_201\n      jumpi\n      mload(0x40)\n      0x08c379a000000000000000000000000000000000000000000000000000000000\n      dup2\n      mstore\n      0x04\n      add\n      tag_202\n      swap1\n      tag_156\n      jump\t// in\n    tag_202:\n      mload(0x40)\n      dup1\n      swap2\n      sub\n      swap1\n      revert\n    tag_201:\n        /* \"NFTlotto.sol\":1504:1513  _newToken */\n      dup1\n        /* \"NFTlotto.sol\":1482:1494  paymentToken */\n      0x04\n      0x00\n        /* \"NFTlotto.sol\":1482:1514  paymentToken = IERC20(_newToken) */\n      0x0100\n      exp\n      dup2\n      sload\n      dup2\n      0xffffffffffffffffffffffffffffffffffffffff\n      mul\n      not\n      and\n      swap1\n      dup4\n      0xffffffffffffffffffffffffffffffffffffffff\n      and\n      mul\n      or\n      swap1\n      sstore\n      pop\n        /* \"NFTlotto.sol\":1412:1522  function updateToken(address _newToken) external onlyOwner {\r... */\n      pop\n      jump\t// out\n        /* \"https://github.com/OpenZeppelin/openzeppelin-contracts/blob/master/contracts/access/Ownable.sol\":1036:1121  function owner() public view virtual returns (address) {... */\n    tag_53:\n        /* \"https://github.com/OpenZeppelin/openzeppelin-contracts/blob/master/contracts/access/Ownable.sol\":1082:1089  address */\n      0x00\n        /* \"https://github.com/OpenZeppelin/openzeppelin-contracts/blob/master/contracts/access/Ownable.sol\":1108:1114  _owner */\n      dup1\n      0x00\n      swap1\n      sload\n      swap1\n      0x0100\n      exp\n      swap1\n      div\n      0xffffffffffffffffffffffffffffffffffffffff\n      and\n        /* \"https://github.com/OpenZeppelin/openzeppelin-contracts/blob/master/contracts/access/Ownable.sol\":1101:1114  return _owner */\n      swap1\n      pop\n        /* \"https://github.com/OpenZeppelin/openzeppelin-contracts/blob/master/contracts/access/Ownable.sol\":1036:1121  function owner() public view virtual returns (address) {... */\n      swap1\n      jump\t// out\n        /* \"NFTlotto.sol\":2481:2601  function userEntries(address account) public view returns (uint256) {\r... */\n    tag_58:\n        /* \"NFTlotto.sol\":2540:2547  uint256 */\n      0x00\n        /* \"NFTlotto.sol\":2567:2574  acesNFT */\n      0x05\n      0x00\n      swap1\n      sload\n      swap1\n      0x0100\n      exp\n      swap1\n      div\n      0xffffffffffffffffffffffffffffffffffffffff\n      and\n        /* \"NFTlotto.sol\":2567:2584  acesNFT.balanceOf */\n      0xffffffffffffffffffffffffffffffffffffffff\n      and\n      0x70a08231\n        /* \"NFTlotto.sol\":2585:2592  account */\n      dup4\n        /* \"NFTlotto.sol\":2567:2593  acesNFT.balanceOf(account) */\n      mload(0x40)\n      dup3\n      0xffffffff\n      and\n      0xe0\n      shl\n      dup2\n      mstore\n      0x04\n      add\n      tag_206\n      swap2\n      swap1\n      tag_55\n      jump\t// in\n    tag_206:\n      0x20\n      mload(0x40)\n      dup1\n      dup4\n      sub\n      dup2\n      dup7\n      dup1\n      extcodesize\n      iszero\n      dup1\n      iszero\n      tag_207\n      jumpi\n      0x00\n      dup1\n      revert\n    tag_207:\n      pop\n      gas\n      staticcall\n      iszero\n      dup1\n      iszero\n      tag_209\n      jumpi\n      returndatasize\n      0x00\n      dup1\n      returndatacopy\n      revert(0x00, returndatasize)\n    tag_209:\n      pop\n      pop\n      pop\n      pop\n      mload(0x40)\n      returndatasize\n      not(0x1f)\n      0x1f\n      dup3\n      add\n      and\n      dup3\n      add\n      dup1\n      0x40\n      mstore\n      pop\n      dup2\n      add\n      swap1\n      tag_210\n      swap2\n      swap1\n      tag_90\n      jump\t// in\n    tag_210:\n        /* \"NFTlotto.sol\":2560:2593  return acesNFT.balanceOf(account) */\n      swap1\n      pop\n        /* \"NFTlotto.sol\":2481:2601  function userEntries(address account) public view returns (uint256) {\r... */\n      swap2\n      swap1\n      pop\n      jump\t// out\n        /* \"NFTlotto.sol\":1144:1191  mapping(uint256 => Results) public roundResults */\n    tag_63:\n      mstore(0x20, 0x06)\n      dup1\n      0x00\n      mstore\n      keccak256(0x00, 0x40)\n      0x00\n      swap2\n      pop\n      swap1\n      pop\n      dup1\n      0x00\n      add\n      sload\n      swap1\n      dup1\n      0x01\n      add\n      sload\n      swap1\n      dup1\n      0x02\n      add\n      sload\n      swap1\n      dup1\n      0x03\n      add\n      sload\n      swap1\n      dup1\n      0x04\n      add\n      0x00\n      swap1\n      sload\n      swap1\n      0x0100\n      exp\n      swap1\n      div\n      0xffffffffffffffffffffffffffffffffffffffff\n      and\n      swap1\n      pop\n      dup6\n      jump\t// out\n        /* \"NFTlotto.sol\":921:953  IERC721Enumerable public acesNFT */\n    tag_67:\n      0x05\n      0x00\n      swap1\n      sload\n      swap1\n      0x0100\n      exp\n      swap1\n      div\n      0xffffffffffffffffffffffffffffffffffffffff\n      and\n      dup2\n      jump\t// out\n        /* \"NFTlotto.sol\":2609:3106  function resultLog(uint256 startIndex, uint256 endIndex) external view returns(Results [] memory log){\r... */\n    tag_73:\n        /* \"NFTlotto.sol\":2688:2709  Results [] memory log */\n      0x60\n        /* \"NFTlotto.sol\":2737:2745  roundNum */\n      sload(0x01)\n        /* \"NFTlotto.sol\":2725:2733  endIndex */\n      dup3\n        /* \"NFTlotto.sol\":2725:2745  endIndex >= roundNum */\n      lt\n        /* \"NFTlotto.sol\":2721:2797  if (endIndex >= roundNum) {\r... */\n      tag_212\n      jumpi\n        /* \"NFTlotto.sol\":2784:2785  1 */\n      0x01\n        /* \"NFTlotto.sol\":2773:2781  roundNum */\n      dup1\n      sload\n        /* \"NFTlotto.sol\":2773:2785  roundNum - 1 */\n      tag_213\n      swap2\n      swap1\n      tag_214\n      jump\t// in\n    tag_213:\n        /* \"NFTlotto.sol\":2762:2785  endIndex = roundNum - 1 */\n      swap2\n      pop\n        /* \"NFTlotto.sol\":2721:2797  if (endIndex >= roundNum) {\r... */\n    tag_212:\n        /* \"NFTlotto.sol\":2809:2828  uint256 arrayLength */\n      0x00\n        /* \"NFTlotto.sol\":2855:2856  1 */\n      0x01\n        /* \"NFTlotto.sol\":2842:2852  startIndex */\n      dup5\n        /* \"NFTlotto.sol\":2831:2839  endIndex */\n      dup5\n        /* \"NFTlotto.sol\":2831:2852  endIndex - startIndex */\n      tag_215\n      swap2\n      swap1\n      tag_214\n      jump\t// in\n    tag_215:\n        /* \"NFTlotto.sol\":2831:2856  endIndex - startIndex + 1 */\n      tag_216\n      swap2\n      swap1\n      tag_180\n      jump\t// in\n    tag_216:\n        /* \"NFTlotto.sol\":2809:2856  uint256 arrayLength = endIndex - startIndex + 1 */\n      swap1\n      pop\n        /* \"NFTlotto.sol\":2867:2887  uint256 currentIndex */\n      0x00\n        /* \"NFTlotto.sol\":2918:2929  arrayLength */\n      dup2\n        /* \"NFTlotto.sol\":2904:2930  new Results[](arrayLength) */\n      0xffffffffffffffff\n      dup2\n      gt\n      iszero\n      tag_217\n      jumpi\n      tag_218\n      tag_123\n      jump\t// in\n    tag_218:\n    tag_217:\n      mload(0x40)\n      swap1\n      dup1\n      dup3\n      mstore\n      dup1\n      0x20\n      mul\n      0x20\n      add\n      dup3\n      add\n      0x40\n      mstore\n      dup1\n      iszero\n      tag_219\n      jumpi\n      dup2\n      0x20\n      add\n    tag_220:\n      tag_221\n      tag_222\n      jump\t// in\n    tag_221:\n      dup2\n      mstore\n      0x20\n      add\n      swap1\n      0x01\n      swap1\n      sub\n      swap1\n      dup2\n      tag_220\n      jumpi\n      swap1\n      pop\n    tag_219:\n      pop\n        /* \"NFTlotto.sol\":2898:2930  log = new Results[](arrayLength) */\n      swap3\n      pop\n        /* \"NFTlotto.sol\":2951:2960  uint256 i */\n      0x00\n        /* \"NFTlotto.sol\":2963:2973  startIndex */\n      dup6\n        /* \"NFTlotto.sol\":2951:2973  uint256 i = startIndex */\n      swap1\n      pop\n        /* \"NFTlotto.sol\":2946:3099  for (uint256 i = startIndex; i <= endIndex; i++) {\r... */\n    tag_223:\n        /* \"NFTlotto.sol\":2980:2988  endIndex */\n      dup5\n        /* \"NFTlotto.sol\":2975:2976  i */\n      dup2\n        /* \"NFTlotto.sol\":2975:2988  i <= endIndex */\n      gt\n        /* \"NFTlotto.sol\":2946:3099  for (uint256 i = startIndex; i <= endIndex; i++) {\r... */\n      tag_224\n      jumpi\n        /* \"NFTlotto.sol\":3030:3042  roundResults */\n      0x06\n        /* \"NFTlotto.sol\":3030:3058  roundResults[startIndex + i] */\n      0x00\n        /* \"NFTlotto.sol\":3056:3057  i */\n      dup3\n        /* \"NFTlotto.sol\":3043:3053  startIndex */\n      dup9\n        /* \"NFTlotto.sol\":3043:3057  startIndex + i */\n      tag_226\n      swap2\n      swap1\n      tag_180\n      jump\t// in\n    tag_226:\n        /* \"NFTlotto.sol\":3030:3058  roundResults[startIndex + i] */\n      dup2\n      mstore\n      0x20\n      add\n      swap1\n      dup2\n      mstore\n      0x20\n      add\n      0x00\n      keccak256\n        /* \"NFTlotto.sol\":3010:3058  log[currentIndex] = roundResults[startIndex + i] */\n      mload(0x40)\n      dup1\n      0xa0\n      add\n      0x40\n      mstore\n      swap1\n      dup2\n      0x00\n      dup3\n      add\n      sload\n      dup2\n      mstore\n      0x20\n      add\n      0x01\n      dup3\n      add\n      sload\n      dup2\n      mstore\n      0x20\n      add\n      0x02\n      dup3\n      add\n      sload\n      dup2\n      mstore\n      0x20\n      add\n      0x03\n      dup3\n      add\n      sload\n      dup2\n      mstore\n      0x20\n      add\n      0x04\n      dup3\n      add\n      0x00\n      swap1\n      sload\n      swap1\n      0x0100\n      exp\n      swap1\n      div\n      0xffffffffffffffffffffffffffffffffffffffff\n      and\n      0xffffffffffffffffffffffffffffffffffffffff\n      and\n      0xffffffffffffffffffffffffffffffffffffffff\n      and\n      dup2\n      mstore\n      pop\n      pop\n        /* \"NFTlotto.sol\":3010:3013  log */\n      dup5\n        /* \"NFTlotto.sol\":3014:3026  currentIndex */\n      dup4\n        /* \"NFTlotto.sol\":3010:3027  log[currentIndex] */\n      dup2\n      mload\n      dup2\n      lt\n      tag_227\n      jumpi\n      tag_228\n      tag_144\n      jump\t// in\n    tag_228:\n    tag_227:\n      0x20\n      mul\n      0x20\n      add\n      add\n        /* \"NFTlotto.sol\":3010:3058  log[currentIndex] = roundResults[startIndex + i] */\n      dup2\n      swap1\n      mstore\n      pop\n        /* \"NFTlotto.sol\":3073:3087  currentIndex++ */\n      dup2\n      dup1\n      tag_229\n      swap1\n      tag_108\n      jump\t// in\n    tag_229:\n      swap3\n      pop\n      pop\n        /* \"NFTlotto.sol\":2990:2993  i++ */\n      dup1\n      dup1\n      tag_230\n      swap1\n      tag_108\n      jump\t// in\n    tag_230:\n      swap2\n      pop\n      pop\n        /* \"NFTlotto.sol\":2946:3099  for (uint256 i = startIndex; i <= endIndex; i++) {\r... */\n      jump(tag_223)\n    tag_224:\n      pop\n        /* \"NFTlotto.sol\":2710:3106  {\r... */\n      pop\n      pop\n        /* \"NFTlotto.sol\":2609:3106  function resultLog(uint256 startIndex, uint256 endIndex) external view returns(Results [] memory log){\r... */\n      swap3\n      swap2\n      pop\n      pop\n      jump\t// out\n        /* \"https://github.com/OpenZeppelin/openzeppelin-contracts/blob/master/contracts/access/Ownable.sol\":1918:2116  function transferOwnership(address newOwner) public virtual onlyOwner {... */\n    tag_78:\n        /* \"https://github.com/OpenZeppelin/openzeppelin-contracts/blob/master/contracts/access/Ownable.sol\":1259:1271  _msgSender() */\n      tag_232\n        /* \"https://github.com/OpenZeppelin/openzeppelin-contracts/blob/master/contracts/access/Ownable.sol\":1259:1269  _msgSender */\n      tag_152\n        /* \"https://github.com/OpenZeppelin/openzeppelin-contracts/blob/master/contracts/access/Ownable.sol\":1259:1271  _msgSender() */\n      jump\t// in\n    tag_232:\n        /* \"https://github.com/OpenZeppelin/openzeppelin-contracts/blob/master/contracts/access/Ownable.sol\":1248:1271  owner() == _msgSender() */\n      0xffffffffffffffffffffffffffffffffffffffff\n      and\n        /* \"https://github.com/OpenZeppelin/openzeppelin-contracts/blob/master/contracts/access/Ownable.sol\":1248:1255  owner() */\n      tag_233\n        /* \"https://github.com/OpenZeppelin/openzeppelin-contracts/blob/master/contracts/access/Ownable.sol\":1248:1253  owner */\n      tag_53\n        /* \"https://github.com/OpenZeppelin/openzeppelin-contracts/blob/master/contracts/access/Ownable.sol\":1248:1255  owner() */\n      jump\t// in\n    tag_233:\n        /* \"https://github.com/OpenZeppelin/openzeppelin-contracts/blob/master/contracts/access/Ownable.sol\":1248:1271  owner() == _msgSender() */\n      0xffffffffffffffffffffffffffffffffffffffff\n      and\n      eq\n        /* \"https://github.com/OpenZeppelin/openzeppelin-contracts/blob/master/contracts/access/Ownable.sol\":1240:1308  require(owner() == _msgSender(), \"Ownable: caller is not the owner\") */\n      tag_234\n      jumpi\n      mload(0x40)\n      0x08c379a000000000000000000000000000000000000000000000000000000000\n      dup2\n      mstore\n      0x04\n      add\n      tag_235\n      swap1\n      tag_156\n      jump\t// in\n    tag_235:\n      mload(0x40)\n      dup1\n      swap2\n      sub\n      swap1\n      revert\n    tag_234:\n        /* \"https://github.com/OpenZeppelin/openzeppelin-contracts/blob/master/contracts/access/Ownable.sol\":2026:2027  0 */\n      0x00\n        /* \"https://github.com/OpenZeppelin/openzeppelin-contracts/blob/master/contracts/access/Ownable.sol\":2006:2028  newOwner != address(0) */\n      0xffffffffffffffffffffffffffffffffffffffff\n      and\n        /* \"https://github.com/OpenZeppelin/openzeppelin-contracts/blob/master/contracts/access/Ownable.sol\":2006:2014  newOwner */\n      dup2\n        /* \"https://github.com/OpenZeppelin/openzeppelin-contracts/blob/master/contracts/access/Ownable.sol\":2006:2028  newOwner != address(0) */\n      0xffffffffffffffffffffffffffffffffffffffff\n      and\n      eq\n      iszero\n        /* \"https://github.com/OpenZeppelin/openzeppelin-contracts/blob/master/contracts/access/Ownable.sol\":1998:2071  require(newOwner != address(0), \"Ownable: new owner is the zero address\") */\n      tag_237\n      jumpi\n      mload(0x40)\n      0x08c379a000000000000000000000000000000000000000000000000000000000\n      dup2\n      mstore\n      0x04\n      add\n      tag_238\n      swap1\n      tag_239\n      jump\t// in\n    tag_238:\n      mload(0x40)\n      dup1\n      swap2\n      sub\n      swap1\n      revert\n    tag_237:\n        /* \"https://github.com/OpenZeppelin/openzeppelin-contracts/blob/master/contracts/access/Ownable.sol\":2081:2109  _transferOwnership(newOwner) */\n      tag_240\n        /* \"https://github.com/OpenZeppelin/openzeppelin-contracts/blob/master/contracts/access/Ownable.sol\":2100:2108  newOwner */\n      dup2\n        /* \"https://github.com/OpenZeppelin/openzeppelin-contracts/blob/master/contracts/access/Ownable.sol\":2081:2099  _transferOwnership */\n      tag_197\n        /* \"https://github.com/OpenZeppelin/openzeppelin-contracts/blob/master/contracts/access/Ownable.sol\":2081:2109  _transferOwnership(newOwner) */\n      jump\t// in\n    tag_240:\n        /* \"https://github.com/OpenZeppelin/openzeppelin-contracts/blob/master/contracts/access/Ownable.sol\":1918:2116  function transferOwnership(address newOwner) public virtual onlyOwner {... */\n      pop\n      jump\t// out\n        /* \"NFTlotto.sol\":1530:1640  function updateJackpot(uint256 _newJackpot) external onlyOwner {\r... */\n    tag_81:\n        /* \"https://github.com/OpenZeppelin/openzeppelin-contracts/blob/master/contracts/access/Ownable.sol\":1259:1271  _msgSender() */\n      tag_242\n        /* \"https://github.com/OpenZeppelin/openzeppelin-contracts/blob/master/contracts/access/Ownable.sol\":1259:1269  _msgSender */\n      tag_152\n        /* \"https://github.com/OpenZeppelin/openzeppelin-contracts/blob/master/contracts/access/Ownable.sol\":1259:1271  _msgSender() */\n      jump\t// in\n    tag_242:\n        /* \"https://github.com/OpenZeppelin/openzeppelin-contracts/blob/master/contracts/access/Ownable.sol\":1248:1271  owner() == _msgSender() */\n      0xffffffffffffffffffffffffffffffffffffffff\n      and\n        /* \"https://github.com/OpenZeppelin/openzeppelin-contracts/blob/master/contracts/access/Ownable.sol\":1248:1255  owner() */\n      tag_243\n        /* \"https://github.com/OpenZeppelin/openzeppelin-contracts/blob/master/contracts/access/Ownable.sol\":1248:1253  owner */\n      tag_53\n        /* \"https://github.com/OpenZeppelin/openzeppelin-contracts/blob/master/contracts/access/Ownable.sol\":1248:1255  owner() */\n      jump\t// in\n    tag_243:\n        /* \"https://github.com/OpenZeppelin/openzeppelin-contracts/blob/master/contracts/access/Ownable.sol\":1248:1271  owner() == _msgSender() */\n      0xffffffffffffffffffffffffffffffffffffffff\n      and\n      eq\n        /* \"https://github.com/OpenZeppelin/openzeppelin-contracts/blob/master/contracts/access/Ownable.sol\":1240:1308  require(owner() == _msgSender(), \"Ownable: caller is not the owner\") */\n      tag_244\n      jumpi\n      mload(0x40)\n      0x08c379a000000000000000000000000000000000000000000000000000000000\n      dup2\n      mstore\n      0x04\n      add\n      tag_245\n      swap1\n      tag_156\n      jump\t// in\n    tag_245:\n      mload(0x40)\n      dup1\n      swap2\n      sub\n      swap1\n      revert\n    tag_244:\n        /* \"NFTlotto.sol\":1621:1632  _newJackpot */\n      dup1\n        /* \"NFTlotto.sol\":1604:1618  currentJackpot */\n      0x03\n        /* \"NFTlotto.sol\":1604:1632  currentJackpot = _newJackpot */\n      dup2\n      swap1\n      sstore\n      pop\n        /* \"NFTlotto.sol\":1530:1640  function updateJackpot(uint256 _newJackpot) external onlyOwner {\r... */\n      pop\n      jump\t// out\n        /* \"NFTlotto.sol\":836:875  uint256 public currentJackpot = 1 ether */\n    tag_83:\n      sload(0x03)\n      dup2\n      jump\t// out\n        /* \"https://github.com/OpenZeppelin/openzeppelin-contracts/blob/master/contracts/utils/Context.sol\":640:736  function _msgSender() internal view virtual returns (address) {... */\n    tag_152:\n        /* \"https://github.com/OpenZeppelin/openzeppelin-contracts/blob/master/contracts/utils/Context.sol\":693:700  address */\n      0x00\n        /* \"https://github.com/OpenZeppelin/openzeppelin-contracts/blob/master/contracts/utils/Context.sol\":719:729  msg.sender */\n      caller\n        /* \"https://github.com/OpenZeppelin/openzeppelin-contracts/blob/master/contracts/utils/Context.sol\":712:729  return msg.sender */\n      swap1\n      pop\n        /* \"https://github.com/OpenZeppelin/openzeppelin-contracts/blob/master/contracts/utils/Context.sol\":640:736  function _msgSender() internal view virtual returns (address) {... */\n      swap1\n      jump\t// out\n        /* \"NFTlotto.sol\":4252:4625  function random() internal view returns (uint256) {\r... */\n    tag_171:\n        /* \"NFTlotto.sol\":4293:4300  uint256 */\n      0x00\n        /* \"NFTlotto.sol\":4434:4449  block.timestamp */\n      timestamp\n        /* \"NFTlotto.sol\":4476:4485  gasleft() */\n      gas\n        /* \"NFTlotto.sol\":4512:4522  msg.sender */\n      caller\n        /* \"NFTlotto.sol\":4549:4560  totalPayout */\n      sload(0x02)\n        /* \"NFTlotto.sol\":4391:4583  abi.encodePacked(\r... */\n      add(0x20, mload(0x40))\n      tag_249\n      swap5\n      swap4\n      swap3\n      swap2\n      swap1\n      tag_250\n      jump\t// in\n    tag_249:\n      mload(0x40)\n      0x20\n      dup2\n      dup4\n      sub\n      sub\n      dup2\n      mstore\n      swap1\n      0x40\n      mstore\n        /* \"NFTlotto.sol\":4359:4602  keccak256(\r... */\n      dup1\n      mload\n      swap1\n      0x20\n      add\n      keccak256\n        /* \"NFTlotto.sol\":4333:4617  uint256(\r... */\n      0x00\n      shr\n        /* \"NFTlotto.sol\":4313:4617  return\r... */\n      swap1\n      pop\n        /* \"NFTlotto.sol\":4252:4625  function random() internal view returns (uint256) {\r... */\n      swap1\n      jump\t// out\n        /* \"https://github.com/OpenZeppelin/openzeppelin-contracts/blob/master/contracts/access/Ownable.sol\":2270:2457  function _transferOwnership(address newOwner) internal virtual {... */\n    tag_197:\n        /* \"https://github.com/OpenZeppelin/openzeppelin-contracts/blob/master/contracts/access/Ownable.sol\":2343:2359  address oldOwner */\n      0x00\n        /* \"https://github.com/OpenZeppelin/openzeppelin-contracts/blob/master/contracts/access/Ownable.sol\":2362:2368  _owner */\n      dup1\n      0x00\n      swap1\n      sload\n      swap1\n      0x0100\n      exp\n      swap1\n      div\n      0xffffffffffffffffffffffffffffffffffffffff\n      and\n        /* \"https://github.com/OpenZeppelin/openzeppelin-contracts/blob/master/contracts/access/Ownable.sol\":2343:2368  address oldOwner = _owner */\n      swap1\n      pop\n        /* \"https://github.com/OpenZeppelin/openzeppelin-contracts/blob/master/contracts/access/Ownable.sol\":2387:2395  newOwner */\n      dup2\n        /* \"https://github.com/OpenZeppelin/openzeppelin-contracts/blob/master/contracts/access/Ownable.sol\":2378:2384  _owner */\n      0x00\n      dup1\n        /* \"https://github.com/OpenZeppelin/openzeppelin-contracts/blob/master/contracts/access/Ownable.sol\":2378:2395  _owner = newOwner */\n      0x0100\n      exp\n      dup2\n      sload\n      dup2\n      0xffffffffffffffffffffffffffffffffffffffff\n      mul\n      not\n      and\n      swap1\n      dup4\n      0xffffffffffffffffffffffffffffffffffffffff\n      and\n      mul\n      or\n      swap1\n      sstore\n      pop\n        /* \"https://github.com/OpenZeppelin/openzeppelin-contracts/blob/master/contracts/access/Ownable.sol\":2441:2449  newOwner */\n      dup2\n        /* \"https://github.com/OpenZeppelin/openzeppelin-contracts/blob/master/contracts/access/Ownable.sol\":2410:2450  OwnershipTransferred(oldOwner, newOwner) */\n      0xffffffffffffffffffffffffffffffffffffffff\n      and\n        /* \"https://github.com/OpenZeppelin/openzeppelin-contracts/blob/master/contracts/access/Ownable.sol\":2431:2439  oldOwner */\n      dup2\n        /* \"https://github.com/OpenZeppelin/openzeppelin-contracts/blob/master/contracts/access/Ownable.sol\":2410:2450  OwnershipTransferred(oldOwner, newOwner) */\n      0xffffffffffffffffffffffffffffffffffffffff\n      and\n      0x8be0079c531659141344cd1fd0a4f28419497f9722a3daafe3b4186f6b6457e0\n      mload(0x40)\n      mload(0x40)\n      dup1\n      swap2\n      sub\n      swap1\n      log3\n        /* \"https://github.com/OpenZeppelin/openzeppelin-contracts/blob/master/contracts/access/Ownable.sol\":2333:2457  {... */\n      pop\n        /* \"https://github.com/OpenZeppelin/openzeppelin-contracts/blob/master/contracts/access/Ownable.sol\":2270:2457  function _transferOwnership(address newOwner) internal virtual {... */\n      pop\n      jump\t// out\n    tag_222:\n      mload(0x40)\n      dup1\n      0xa0\n      add\n      0x40\n      mstore\n      dup1\n      0x00\n      dup2\n      mstore\n      0x20\n      add\n      0x00\n      dup2\n      mstore\n      0x20\n      add\n      0x00\n      dup2\n      mstore\n      0x20\n      add\n      0x00\n      dup2\n      mstore\n      0x20\n      add\n      and(0xffffffffffffffffffffffffffffffffffffffff, 0x00)\n      dup2\n      mstore\n      pop\n      swap1\n      jump\t// out\n        /* \"#utility.yul\":7:146   */\n    tag_253:\n        /* \"#utility.yul\":53:58   */\n      0x00\n        /* \"#utility.yul\":91:97   */\n      dup2\n        /* \"#utility.yul\":78:98   */\n      calldataload\n        /* \"#utility.yul\":69:98   */\n      swap1\n      pop\n        /* \"#utility.yul\":107:140   */\n      tag_255\n        /* \"#utility.yul\":134:139   */\n      dup2\n        /* \"#utility.yul\":107:140   */\n      tag_256\n      jump\t// in\n    tag_255:\n        /* \"#utility.yul\":7:146   */\n      swap3\n      swap2\n      pop\n      pop\n      jump\t// out\n        /* \"#utility.yul\":152:295   */\n    tag_257:\n        /* \"#utility.yul\":209:214   */\n      0x00\n        /* \"#utility.yul\":240:246   */\n      dup2\n        /* \"#utility.yul\":234:247   */\n      mload\n        /* \"#utility.yul\":225:247   */\n      swap1\n      pop\n        /* \"#utility.yul\":256:289   */\n      tag_259\n        /* \"#utility.yul\":283:288   */\n      dup2\n        /* \"#utility.yul\":256:289   */\n      tag_256\n      jump\t// in\n    tag_259:\n        /* \"#utility.yul\":152:295   */\n      swap3\n      swap2\n      pop\n      pop\n      jump\t// out\n        /* \"#utility.yul\":301:438   */\n    tag_260:\n        /* \"#utility.yul\":355:360   */\n      0x00\n        /* \"#utility.yul\":386:392   */\n      dup2\n        /* \"#utility.yul\":380:393   */\n      mload\n        /* \"#utility.yul\":371:393   */\n      swap1\n      pop\n        /* \"#utility.yul\":402:432   */\n      tag_262\n        /* \"#utility.yul\":426:431   */\n      dup2\n        /* \"#utility.yul\":402:432   */\n      tag_263\n      jump\t// in\n    tag_262:\n        /* \"#utility.yul\":301:438   */\n      swap3\n      swap2\n      pop\n      pop\n      jump\t// out\n        /* \"#utility.yul\":444:583   */\n    tag_264:\n        /* \"#utility.yul\":490:495   */\n      0x00\n        /* \"#utility.yul\":528:534   */\n      dup2\n        /* \"#utility.yul\":515:535   */\n      calldataload\n        /* \"#utility.yul\":506:535   */\n      swap1\n      pop\n        /* \"#utility.yul\":544:577   */\n      tag_266\n        /* \"#utility.yul\":571:576   */\n      dup2\n        /* \"#utility.yul\":544:577   */\n      tag_267\n      jump\t// in\n    tag_266:\n        /* \"#utility.yul\":444:583   */\n      swap3\n      swap2\n      pop\n      pop\n      jump\t// out\n        /* \"#utility.yul\":589:732   */\n    tag_268:\n        /* \"#utility.yul\":646:651   */\n      0x00\n        /* \"#utility.yul\":677:683   */\n      dup2\n        /* \"#utility.yul\":671:684   */\n      mload\n        /* \"#utility.yul\":662:684   */\n      swap1\n      pop\n        /* \"#utility.yul\":693:726   */\n      tag_270\n        /* \"#utility.yul\":720:725   */\n      dup2\n        /* \"#utility.yul\":693:726   */\n      tag_267\n      jump\t// in\n    tag_270:\n        /* \"#utility.yul\":589:732   */\n      swap3\n      swap2\n      pop\n      pop\n      jump\t// out\n        /* \"#utility.yul\":738:1067   */\n    tag_50:\n        /* \"#utility.yul\":797:803   */\n      0x00\n        /* \"#utility.yul\":846:848   */\n      0x20\n        /* \"#utility.yul\":834:843   */\n      dup3\n        /* \"#utility.yul\":825:832   */\n      dup5\n        /* \"#utility.yul\":821:844   */\n      sub\n        /* \"#utility.yul\":817:849   */\n      slt\n        /* \"#utility.yul\":814:933   */\n      iszero\n      tag_272\n      jumpi\n        /* \"#utility.yul\":852:931   */\n      tag_273\n      tag_274\n      jump\t// in\n    tag_273:\n        /* \"#utility.yul\":814:933   */\n    tag_272:\n        /* \"#utility.yul\":972:973   */\n      0x00\n        /* \"#utility.yul\":997:1050   */\n      tag_275\n        /* \"#utility.yul\":1042:1049   */\n      dup5\n        /* \"#utility.yul\":1033:1039   */\n      dup3\n        /* \"#utility.yul\":1022:1031   */\n      dup6\n        /* \"#utility.yul\":1018:1040   */\n      add\n        /* \"#utility.yul\":997:1050   */\n      tag_253\n      jump\t// in\n    tag_275:\n        /* \"#utility.yul\":987:1050   */\n      swap2\n      pop\n        /* \"#utility.yul\":943:1060   */\n      pop\n        /* \"#utility.yul\":738:1067   */\n      swap3\n      swap2\n      pop\n      pop\n      jump\t// out\n        /* \"#utility.yul\":1073:1424   */\n    tag_99:\n        /* \"#utility.yul\":1143:1149   */\n      0x00\n        /* \"#utility.yul\":1192:1194   */\n      0x20\n        /* \"#utility.yul\":1180:1189   */\n      dup3\n        /* \"#utility.yul\":1171:1178   */\n      dup5\n        /* \"#utility.yul\":1167:1190   */\n      sub\n        /* \"#utility.yul\":1163:1195   */\n      slt\n        /* \"#utility.yul\":1160:1279   */\n      iszero\n      tag_277\n      jumpi\n        /* \"#utility.yul\":1198:1277   */\n      tag_278\n      tag_274\n      jump\t// in\n    tag_278:\n        /* \"#utility.yul\":1160:1279   */\n    tag_277:\n        /* \"#utility.yul\":1318:1319   */\n      0x00\n        /* \"#utility.yul\":1343:1407   */\n      tag_279\n        /* \"#utility.yul\":1399:1406   */\n      dup5\n        /* \"#utility.yul\":1390:1396   */\n      dup3\n        /* \"#utility.yul\":1379:1388   */\n      dup6\n        /* \"#utility.yul\":1375:1397   */\n      add\n        /* \"#utility.yul\":1343:1407   */\n      tag_257\n      jump\t// in\n    tag_279:\n        /* \"#utility.yul\":1333:1407   */\n      swap2\n      pop\n        /* \"#utility.yul\":1289:1417   */\n      pop\n        /* \"#utility.yul\":1073:1424   */\n      swap3\n      swap2\n      pop\n      pop\n      jump\t// out\n        /* \"#utility.yul\":1430:1775   */\n    tag_188:\n        /* \"#utility.yul\":1497:1503   */\n      0x00\n        /* \"#utility.yul\":1546:1548   */\n      0x20\n        /* \"#utility.yul\":1534:1543   */\n      dup3\n        /* \"#utility.yul\":1525:1532   */\n      dup5\n        /* \"#utility.yul\":1521:1544   */\n      sub\n        /* \"#utility.yul\":1517:1549   */\n      slt\n        /* \"#utility.yul\":1514:1633   */\n      iszero\n      tag_281\n      jumpi\n        /* \"#utility.yul\":1552:1631   */\n      tag_282\n      tag_274\n      jump\t// in\n    tag_282:\n        /* \"#utility.yul\":1514:1633   */\n    tag_281:\n        /* \"#utility.yul\":1672:1673   */\n      0x00\n        /* \"#utility.yul\":1697:1758   */\n      tag_283\n        /* \"#utility.yul\":1750:1757   */\n      dup5\n        /* \"#utility.yul\":1741:1747   */\n      dup3\n        /* \"#utility.yul\":1730:1739   */\n      dup6\n        /* \"#utility.yul\":1726:1748   */\n      add\n        /* \"#utility.yul\":1697:1758   */\n      tag_260\n      jump\t// in\n    tag_283:\n        /* \"#utility.yul\":1687:1758   */\n      swap2\n      pop\n        /* \"#utility.yul\":1643:1768   */\n      pop\n        /* \"#utility.yul\":1430:1775   */\n      swap3\n      swap2\n      pop\n      pop\n      jump\t// out\n        /* \"#utility.yul\":1781:2110   */\n    tag_62:\n        /* \"#utility.yul\":1840:1846   */\n      0x00\n        /* \"#utility.yul\":1889:1891   */\n      0x20\n        /* \"#utility.yul\":1877:1886   */\n      dup3\n        /* \"#utility.yul\":1868:1875   */\n      dup5\n        /* \"#utility.yul\":1864:1887   */\n      sub\n        /* \"#utility.yul\":1860:1892   */\n      slt\n        /* \"#utility.yul\":1857:1976   */\n      iszero\n      tag_285\n      jumpi\n        /* \"#utility.yul\":1895:1974   */\n      tag_286\n      tag_274\n      jump\t// in\n    tag_286:\n        /* \"#utility.yul\":1857:1976   */\n    tag_285:\n        /* \"#utility.yul\":2015:2016   */\n      0x00\n        /* \"#utility.yul\":2040:2093   */\n      tag_287\n        /* \"#utility.yul\":2085:2092   */\n      dup5\n        /* \"#utility.yul\":2076:2082   */\n      dup3\n        /* \"#utility.yul\":2065:2074   */\n      dup6\n        /* \"#utility.yul\":2061:2083   */\n      add\n        /* \"#utility.yul\":2040:2093   */\n      tag_264\n      jump\t// in\n    tag_287:\n        /* \"#utility.yul\":2030:2093   */\n      swap2\n      pop\n        /* \"#utility.yul\":1986:2103   */\n      pop\n        /* \"#utility.yul\":1781:2110   */\n      swap3\n      swap2\n      pop\n      pop\n      jump\t// out\n        /* \"#utility.yul\":2116:2467   */\n    tag_90:\n        /* \"#utility.yul\":2186:2192   */\n      0x00\n        /* \"#utility.yul\":2235:2237   */\n      0x20\n        /* \"#utility.yul\":2223:2232   */\n      dup3\n        /* \"#utility.yul\":2214:2221   */\n      dup5\n        /* \"#utility.yul\":2210:2233   */\n      sub\n        /* \"#utility.yul\":2206:2238   */\n      slt\n        /* \"#utility.yul\":2203:2322   */\n      iszero\n      tag_289\n      jumpi\n        /* \"#utility.yul\":2241:2320   */\n      tag_290\n      tag_274\n      jump\t// in\n    tag_290:\n        /* \"#utility.yul\":2203:2322   */\n    tag_289:\n        /* \"#utility.yul\":2361:2362   */\n      0x00\n        /* \"#utility.yul\":2386:2450   */\n      tag_291\n        /* \"#utility.yul\":2442:2449   */\n      dup5\n        /* \"#utility.yul\":2433:2439   */\n      dup3\n        /* \"#utility.yul\":2422:2431   */\n      dup6\n        /* \"#utility.yul\":2418:2440   */\n      add\n        /* \"#utility.yul\":2386:2450   */\n      tag_268\n      jump\t// in\n    tag_291:\n        /* \"#utility.yul\":2376:2450   */\n      swap2\n      pop\n        /* \"#utility.yul\":2332:2460   */\n      pop\n        /* \"#utility.yul\":2116:2467   */\n      swap3\n      swap2\n      pop\n      pop\n      jump\t// out\n        /* \"#utility.yul\":2473:2947   */\n    tag_72:\n        /* \"#utility.yul\":2541:2547   */\n      0x00\n        /* \"#utility.yul\":2549:2555   */\n      dup1\n        /* \"#utility.yul\":2598:2600   */\n      0x40\n        /* \"#utility.yul\":2586:2595   */\n      dup4\n        /* \"#utility.yul\":2577:2584   */\n      dup6\n        /* \"#utility.yul\":2573:2596   */\n      sub\n        /* \"#utility.yul\":2569:2601   */\n      slt\n        /* \"#utility.yul\":2566:2685   */\n      iszero\n      tag_293\n      jumpi\n        /* \"#utility.yul\":2604:2683   */\n      tag_294\n      tag_274\n      jump\t// in\n    tag_294:\n        /* \"#utility.yul\":2566:2685   */\n    tag_293:\n        /* \"#utility.yul\":2724:2725   */\n      0x00\n        /* \"#utility.yul\":2749:2802   */\n      tag_295\n        /* \"#utility.yul\":2794:2801   */\n      dup6\n        /* \"#utility.yul\":2785:2791   */\n      dup3\n        /* \"#utility.yul\":2774:2783   */\n      dup7\n        /* \"#utility.yul\":2770:2792   */\n      add\n        /* \"#utility.yul\":2749:2802   */\n      tag_264\n      jump\t// in\n    tag_295:\n        /* \"#utility.yul\":2739:2802   */\n      swap3\n      pop\n        /* \"#utility.yul\":2695:2812   */\n      pop\n        /* \"#utility.yul\":2851:2853   */\n      0x20\n        /* \"#utility.yul\":2877:2930   */\n      tag_296\n        /* \"#utility.yul\":2922:2929   */\n      dup6\n        /* \"#utility.yul\":2913:2919   */\n      dup3\n        /* \"#utility.yul\":2902:2911   */\n      dup7\n        /* \"#utility.yul\":2898:2920   */\n      add\n        /* \"#utility.yul\":2877:2930   */\n      tag_264\n      jump\t// in\n    tag_296:\n        /* \"#utility.yul\":2867:2930   */\n      swap2\n      pop\n        /* \"#utility.yul\":2822:2940   */\n      pop\n        /* \"#utility.yul\":2473:2947   */\n      swap3\n      pop\n      swap3\n      swap1\n      pop\n      jump\t// out\n        /* \"#utility.yul\":2953:3132   */\n    tag_297:\n        /* \"#utility.yul\":3022:3032   */\n      0x00\n        /* \"#utility.yul\":3043:3089   */\n      tag_299\n        /* \"#utility.yul\":3085:3088   */\n      dup4\n        /* \"#utility.yul\":3077:3083   */\n      dup4\n        /* \"#utility.yul\":3043:3089   */\n      tag_300\n      jump\t// in\n    tag_299:\n        /* \"#utility.yul\":3121:3125   */\n      0x20\n        /* \"#utility.yul\":3116:3119   */\n      dup4\n        /* \"#utility.yul\":3112:3126   */\n      add\n        /* \"#utility.yul\":3098:3126   */\n      swap1\n      pop\n        /* \"#utility.yul\":2953:3132   */\n      swap3\n      swap2\n      pop\n      pop\n      jump\t// out\n        /* \"#utility.yul\":3138:3409   */\n    tag_301:\n        /* \"#utility.yul\":3253:3263   */\n      0x00\n        /* \"#utility.yul\":3274:3366   */\n      tag_303\n        /* \"#utility.yul\":3362:3365   */\n      dup4\n        /* \"#utility.yul\":3354:3360   */\n      dup4\n        /* \"#utility.yul\":3274:3366   */\n      tag_304\n      jump\t// in\n    tag_303:\n        /* \"#utility.yul\":3398:3402   */\n      0xa0\n        /* \"#utility.yul\":3393:3396   */\n      dup4\n        /* \"#utility.yul\":3389:3403   */\n      add\n        /* \"#utility.yul\":3375:3403   */\n      swap1\n      pop\n        /* \"#utility.yul\":3138:3409   */\n      swap3\n      swap2\n      pop\n      pop\n      jump\t// out\n        /* \"#utility.yul\":3415:3594   */\n    tag_305:\n        /* \"#utility.yul\":3484:3494   */\n      0x00\n        /* \"#utility.yul\":3505:3551   */\n      tag_307\n        /* \"#utility.yul\":3547:3550   */\n      dup4\n        /* \"#utility.yul\":3539:3545   */\n      dup4\n        /* \"#utility.yul\":3505:3551   */\n      tag_308\n      jump\t// in\n    tag_307:\n        /* \"#utility.yul\":3583:3587   */\n      0x20\n        /* \"#utility.yul\":3578:3581   */\n      dup4\n        /* \"#utility.yul\":3574:3588   */\n      add\n        /* \"#utility.yul\":3560:3588   */\n      swap1\n      pop\n        /* \"#utility.yul\":3415:3594   */\n      swap3\n      swap2\n      pop\n      pop\n      jump\t// out\n        /* \"#utility.yul\":3600:3708   */\n    tag_300:\n        /* \"#utility.yul\":3677:3701   */\n      tag_310\n        /* \"#utility.yul\":3695:3700   */\n      dup2\n        /* \"#utility.yul\":3677:3701   */\n      tag_311\n      jump\t// in\n    tag_310:\n        /* \"#utility.yul\":3672:3675   */\n      dup3\n        /* \"#utility.yul\":3665:3702   */\n      mstore\n        /* \"#utility.yul\":3600:3708   */\n      pop\n      pop\n      jump\t// out\n        /* \"#utility.yul\":3714:3832   */\n    tag_312:\n        /* \"#utility.yul\":3801:3825   */\n      tag_314\n        /* \"#utility.yul\":3819:3824   */\n      dup2\n        /* \"#utility.yul\":3801:3825   */\n      tag_311\n      jump\t// in\n    tag_314:\n        /* \"#utility.yul\":3796:3799   */\n      dup3\n        /* \"#utility.yul\":3789:3826   */\n      mstore\n        /* \"#utility.yul\":3714:3832   */\n      pop\n      pop\n      jump\t// out\n        /* \"#utility.yul\":3838:3995   */\n    tag_315:\n        /* \"#utility.yul\":3943:3988   */\n      tag_317\n        /* \"#utility.yul\":3963:3987   */\n      tag_318\n        /* \"#utility.yul\":3981:3986   */\n      dup3\n        /* \"#utility.yul\":3963:3987   */\n      tag_311\n      jump\t// in\n    tag_318:\n        /* \"#utility.yul\":3943:3988   */\n      tag_319\n      jump\t// in\n    tag_317:\n        /* \"#utility.yul\":3938:3941   */\n      dup3\n        /* \"#utility.yul\":3931:3989   */\n      mstore\n        /* \"#utility.yul\":3838:3995   */\n      pop\n      pop\n      jump\t// out\n        /* \"#utility.yul\":4031:4763   */\n    tag_320:\n        /* \"#utility.yul\":4150:4153   */\n      0x00\n        /* \"#utility.yul\":4179:4233   */\n      tag_322\n        /* \"#utility.yul\":4227:4232   */\n      dup3\n        /* \"#utility.yul\":4179:4233   */\n      tag_323\n      jump\t// in\n    tag_322:\n        /* \"#utility.yul\":4249:4335   */\n      tag_324\n        /* \"#utility.yul\":4328:4334   */\n      dup2\n        /* \"#utility.yul\":4323:4326   */\n      dup6\n        /* \"#utility.yul\":4249:4335   */\n      tag_325\n      jump\t// in\n    tag_324:\n        /* \"#utility.yul\":4242:4335   */\n      swap4\n      pop\n        /* \"#utility.yul\":4359:4415   */\n      tag_326\n        /* \"#utility.yul\":4409:4414   */\n      dup4\n        /* \"#utility.yul\":4359:4415   */\n      tag_327\n      jump\t// in\n    tag_326:\n        /* \"#utility.yul\":4438:4445   */\n      dup1\n        /* \"#utility.yul\":4469:4470   */\n      0x00\n        /* \"#utility.yul\":4454:4738   */\n    tag_328:\n        /* \"#utility.yul\":4479:4485   */\n      dup4\n        /* \"#utility.yul\":4476:4477   */\n      dup2\n        /* \"#utility.yul\":4473:4486   */\n      lt\n        /* \"#utility.yul\":4454:4738   */\n      iszero\n      tag_330\n      jumpi\n        /* \"#utility.yul\":4555:4561   */\n      dup2\n        /* \"#utility.yul\":4549:4562   */\n      mload\n        /* \"#utility.yul\":4582:4645   */\n      tag_331\n        /* \"#utility.yul\":4641:4644   */\n      dup9\n        /* \"#utility.yul\":4626:4639   */\n      dup3\n        /* \"#utility.yul\":4582:4645   */\n      tag_297\n      jump\t// in\n    tag_331:\n        /* \"#utility.yul\":4575:4645   */\n      swap8\n      pop\n        /* \"#utility.yul\":4668:4728   */\n      tag_332\n        /* \"#utility.yul\":4721:4727   */\n      dup4\n        /* \"#utility.yul\":4668:4728   */\n      tag_333\n      jump\t// in\n    tag_332:\n        /* \"#utility.yul\":4658:4728   */\n      swap3\n      pop\n        /* \"#utility.yul\":4514:4738   */\n      pop\n        /* \"#utility.yul\":4501:4502   */\n      0x01\n        /* \"#utility.yul\":4498:4499   */\n      dup2\n        /* \"#utility.yul\":4494:4503   */\n      add\n        /* \"#utility.yul\":4489:4503   */\n      swap1\n      pop\n        /* \"#utility.yul\":4454:4738   */\n      jump(tag_328)\n    tag_330:\n        /* \"#utility.yul\":4458:4472   */\n      pop\n        /* \"#utility.yul\":4754:4757   */\n      dup6\n        /* \"#utility.yul\":4747:4757   */\n      swap4\n      pop\n        /* \"#utility.yul\":4155:4763   */\n      pop\n      pop\n      pop\n        /* \"#utility.yul\":4031:4763   */\n      swap3\n      swap2\n      pop\n      pop\n      jump\t// out\n        /* \"#utility.yul\":4831:5747   */\n    tag_334:\n        /* \"#utility.yul\":4996:4999   */\n      0x00\n        /* \"#utility.yul\":5025:5102   */\n      tag_336\n        /* \"#utility.yul\":5096:5101   */\n      dup3\n        /* \"#utility.yul\":5025:5102   */\n      tag_337\n      jump\t// in\n    tag_336:\n        /* \"#utility.yul\":5118:5227   */\n      tag_338\n        /* \"#utility.yul\":5220:5226   */\n      dup2\n        /* \"#utility.yul\":5215:5218   */\n      dup6\n        /* \"#utility.yul\":5118:5227   */\n      tag_339\n      jump\t// in\n    tag_338:\n        /* \"#utility.yul\":5111:5227   */\n      swap4\n      pop\n        /* \"#utility.yul\":5251:5330   */\n      tag_340\n        /* \"#utility.yul\":5324:5329   */\n      dup4\n        /* \"#utility.yul\":5251:5330   */\n      tag_341\n      jump\t// in\n    tag_340:\n        /* \"#utility.yul\":5353:5360   */\n      dup1\n        /* \"#utility.yul\":5384:5385   */\n      0x00\n        /* \"#utility.yul\":5369:5722   */\n    tag_342:\n        /* \"#utility.yul\":5394:5400   */\n      dup4\n        /* \"#utility.yul\":5391:5392   */\n      dup2\n        /* \"#utility.yul\":5388:5401   */\n      lt\n        /* \"#utility.yul\":5369:5722   */\n      iszero\n      tag_344\n      jumpi\n        /* \"#utility.yul\":5470:5476   */\n      dup2\n        /* \"#utility.yul\":5464:5477   */\n      mload\n        /* \"#utility.yul\":5497:5606   */\n      tag_345\n        /* \"#utility.yul\":5602:5605   */\n      dup9\n        /* \"#utility.yul\":5587:5600   */\n      dup3\n        /* \"#utility.yul\":5497:5606   */\n      tag_301\n      jump\t// in\n    tag_345:\n        /* \"#utility.yul\":5490:5606   */\n      swap8\n      pop\n        /* \"#utility.yul\":5629:5712   */\n      tag_346\n        /* \"#utility.yul\":5705:5711   */\n      dup4\n        /* \"#utility.yul\":5629:5712   */\n      tag_347\n      jump\t// in\n    tag_346:\n        /* \"#utility.yul\":5619:5712   */\n      swap3\n      pop\n        /* \"#utility.yul\":5429:5722   */\n      pop\n        /* \"#utility.yul\":5416:5417   */\n      0x01\n        /* \"#utility.yul\":5413:5414   */\n      dup2\n        /* \"#utility.yul\":5409:5418   */\n      add\n        /* \"#utility.yul\":5404:5418   */\n      swap1\n      pop\n        /* \"#utility.yul\":5369:5722   */\n      jump(tag_342)\n    tag_344:\n        /* \"#utility.yul\":5373:5387   */\n      pop\n        /* \"#utility.yul\":5738:5741   */\n      dup6\n        /* \"#utility.yul\":5731:5741   */\n      swap4\n      pop\n        /* \"#utility.yul\":5001:5747   */\n      pop\n      pop\n      pop\n        /* \"#utility.yul\":4831:5747   */\n      swap3\n      swap2\n      pop\n      pop\n      jump\t// out\n        /* \"#utility.yul\":5783:6515   */\n    tag_348:\n        /* \"#utility.yul\":5902:5905   */\n      0x00\n        /* \"#utility.yul\":5931:5985   */\n      tag_350\n        /* \"#utility.yul\":5979:5984   */\n      dup3\n        /* \"#utility.yul\":5931:5985   */\n      tag_351\n      jump\t// in\n    tag_350:\n        /* \"#utility.yul\":6001:6087   */\n      tag_352\n        /* \"#utility.yul\":6080:6086   */\n      dup2\n        /* \"#utility.yul\":6075:6078   */\n      dup6\n        /* \"#utility.yul\":6001:6087   */\n      tag_353\n      jump\t// in\n    tag_352:\n        /* \"#utility.yul\":5994:6087   */\n      swap4\n      pop\n        /* \"#utility.yul\":6111:6167   */\n      tag_354\n        /* \"#utility.yul\":6161:6166   */\n      dup4\n        /* \"#utility.yul\":6111:6167   */\n      tag_355\n      jump\t// in\n    tag_354:\n        /* \"#utility.yul\":6190:6197   */\n      dup1\n        /* \"#utility.yul\":6221:6222   */\n      0x00\n        /* \"#utility.yul\":6206:6490   */\n    tag_356:\n        /* \"#utility.yul\":6231:6237   */\n      dup4\n        /* \"#utility.yul\":6228:6229   */\n      dup2\n        /* \"#utility.yul\":6225:6238   */\n      lt\n        /* \"#utility.yul\":6206:6490   */\n      iszero\n      tag_358\n      jumpi\n        /* \"#utility.yul\":6307:6313   */\n      dup2\n        /* \"#utility.yul\":6301:6314   */\n      mload\n        /* \"#utility.yul\":6334:6397   */\n      tag_359\n        /* \"#utility.yul\":6393:6396   */\n      dup9\n        /* \"#utility.yul\":6378:6391   */\n      dup3\n        /* \"#utility.yul\":6334:6397   */\n      tag_305\n      jump\t// in\n    tag_359:\n        /* \"#utility.yul\":6327:6397   */\n      swap8\n      pop\n        /* \"#utility.yul\":6420:6480   */\n      tag_360\n        /* \"#utility.yul\":6473:6479   */\n      dup4\n        /* \"#utility.yul\":6420:6480   */\n      tag_361\n      jump\t// in\n    tag_360:\n        /* \"#utility.yul\":6410:6480   */\n      swap3\n      pop\n        /* \"#utility.yul\":6266:6490   */\n      pop\n        /* \"#utility.yul\":6253:6254   */\n      0x01\n        /* \"#utility.yul\":6250:6251   */\n      dup2\n        /* \"#utility.yul\":6246:6255   */\n      add\n        /* \"#utility.yul\":6241:6255   */\n      swap1\n      pop\n        /* \"#utility.yul\":6206:6490   */\n      jump(tag_356)\n    tag_358:\n        /* \"#utility.yul\":6210:6224   */\n      pop\n        /* \"#utility.yul\":6506:6509   */\n      dup6\n        /* \"#utility.yul\":6499:6509   */\n      swap4\n      pop\n        /* \"#utility.yul\":5907:6515   */\n      pop\n      pop\n      pop\n        /* \"#utility.yul\":5783:6515   */\n      swap3\n      swap2\n      pop\n      pop\n      jump\t// out\n        /* \"#utility.yul\":6521:6680   */\n    tag_362:\n        /* \"#utility.yul\":6622:6673   */\n      tag_364\n        /* \"#utility.yul\":6667:6672   */\n      dup2\n        /* \"#utility.yul\":6622:6673   */\n      tag_365\n      jump\t// in\n    tag_364:\n        /* \"#utility.yul\":6617:6620   */\n      dup3\n        /* \"#utility.yul\":6610:6674   */\n      mstore\n        /* \"#utility.yul\":6521:6680   */\n      pop\n      pop\n      jump\t// out\n        /* \"#utility.yul\":6686:6867   */\n    tag_366:\n        /* \"#utility.yul\":6798:6860   */\n      tag_368\n        /* \"#utility.yul\":6854:6859   */\n      dup2\n        /* \"#utility.yul\":6798:6860   */\n      tag_369\n      jump\t// in\n    tag_368:\n        /* \"#utility.yul\":6793:6796   */\n      dup3\n        /* \"#utility.yul\":6786:6861   */\n      mstore\n        /* \"#utility.yul\":6686:6867   */\n      pop\n      pop\n      jump\t// out\n        /* \"#utility.yul\":6873:7020   */\n    tag_370:\n        /* \"#utility.yul\":6968:7013   */\n      tag_372\n        /* \"#utility.yul\":7007:7012   */\n      dup2\n        /* \"#utility.yul\":6968:7013   */\n      tag_373\n      jump\t// in\n    tag_372:\n        /* \"#utility.yul\":6963:6966   */\n      dup3\n        /* \"#utility.yul\":6956:7014   */\n      mstore\n        /* \"#utility.yul\":6873:7020   */\n      pop\n      pop\n      jump\t// out\n        /* \"#utility.yul\":7026:7392   */\n    tag_374:\n        /* \"#utility.yul\":7168:7171   */\n      0x00\n        /* \"#utility.yul\":7189:7256   */\n      tag_376\n        /* \"#utility.yul\":7253:7255   */\n      0x26\n        /* \"#utility.yul\":7248:7251   */\n      dup4\n        /* \"#utility.yul\":7189:7256   */\n      tag_377\n      jump\t// in\n    tag_376:\n        /* \"#utility.yul\":7182:7256   */\n      swap2\n      pop\n        /* \"#utility.yul\":7265:7358   */\n      tag_378\n        /* \"#utility.yul\":7354:7357   */\n      dup3\n        /* \"#utility.yul\":7265:7358   */\n      tag_379\n      jump\t// in\n    tag_378:\n        /* \"#utility.yul\":7383:7385   */\n      0x40\n        /* \"#utility.yul\":7378:7381   */\n      dup3\n        /* \"#utility.yul\":7374:7386   */\n      add\n        /* \"#utility.yul\":7367:7386   */\n      swap1\n      pop\n        /* \"#utility.yul\":7026:7392   */\n      swap2\n      swap1\n      pop\n      jump\t// out\n        /* \"#utility.yul\":7398:7764   */\n    tag_380:\n        /* \"#utility.yul\":7540:7543   */\n      0x00\n        /* \"#utility.yul\":7561:7628   */\n      tag_382\n        /* \"#utility.yul\":7625:7627   */\n      0x18\n        /* \"#utility.yul\":7620:7623   */\n      dup4\n        /* \"#utility.yul\":7561:7628   */\n      tag_377\n      jump\t// in\n    tag_382:\n        /* \"#utility.yul\":7554:7628   */\n      swap2\n      pop\n        /* \"#utility.yul\":7637:7730   */\n      tag_383\n        /* \"#utility.yul\":7726:7729   */\n      dup3\n        /* \"#utility.yul\":7637:7730   */\n      tag_384\n      jump\t// in\n    tag_383:\n        /* \"#utility.yul\":7755:7757   */\n      0x20\n        /* \"#utility.yul\":7750:7753   */\n      dup3\n        /* \"#utility.yul\":7746:7758   */\n      add\n        /* \"#utility.yul\":7739:7758   */\n      swap1\n      pop\n        /* \"#utility.yul\":7398:7764   */\n      swap2\n      swap1\n      pop\n      jump\t// out\n        /* \"#utility.yul\":7770:8136   */\n    tag_385:\n        /* \"#utility.yul\":7912:7915   */\n      0x00\n        /* \"#utility.yul\":7933:8000   */\n      tag_387\n        /* \"#utility.yul\":7997:7999   */\n      0x20\n        /* \"#utility.yul\":7992:7995   */\n      dup4\n        /* \"#utility.yul\":7933:8000   */\n      tag_377\n      jump\t// in\n    tag_387:\n        /* \"#utility.yul\":7926:8000   */\n      swap2\n      pop\n        /* \"#utility.yul\":8009:8102   */\n      tag_388\n        /* \"#utility.yul\":8098:8101   */\n      dup3\n        /* \"#utility.yul\":8009:8102   */\n      tag_389\n      jump\t// in\n    tag_388:\n        /* \"#utility.yul\":8127:8129   */\n      0x20\n        /* \"#utility.yul\":8122:8125   */\n      dup3\n        /* \"#utility.yul\":8118:8130   */\n      add\n        /* \"#utility.yul\":8111:8130   */\n      swap1\n      pop\n        /* \"#utility.yul\":7770:8136   */\n      swap2\n      swap1\n      pop\n      jump\t// out\n        /* \"#utility.yul\":8200:9247   */\n    tag_304:\n        /* \"#utility.yul\":8333:8337   */\n      0xa0\n        /* \"#utility.yul\":8328:8331   */\n      dup3\n        /* \"#utility.yul\":8324:8338   */\n      add\n        /* \"#utility.yul\":8428:8432   */\n      0x00\n        /* \"#utility.yul\":8421:8426   */\n      dup3\n        /* \"#utility.yul\":8417:8433   */\n      add\n        /* \"#utility.yul\":8411:8434   */\n      mload\n        /* \"#utility.yul\":8447:8510   */\n      tag_391\n        /* \"#utility.yul\":8504:8508   */\n      0x00\n        /* \"#utility.yul\":8499:8502   */\n      dup6\n        /* \"#utility.yul\":8495:8509   */\n      add\n        /* \"#utility.yul\":8481:8493   */\n      dup3\n        /* \"#utility.yul\":8447:8510   */\n      tag_308\n      jump\t// in\n    tag_391:\n        /* \"#utility.yul\":8348:8520   */\n      pop\n        /* \"#utility.yul\":8611:8615   */\n      0x20\n        /* \"#utility.yul\":8604:8609   */\n      dup3\n        /* \"#utility.yul\":8600:8616   */\n      add\n        /* \"#utility.yul\":8594:8617   */\n      mload\n        /* \"#utility.yul\":8630:8693   */\n      tag_392\n        /* \"#utility.yul\":8687:8691   */\n      0x20\n        /* \"#utility.yul\":8682:8685   */\n      dup6\n        /* \"#utility.yul\":8678:8692   */\n      add\n        /* \"#utility.yul\":8664:8676   */\n      dup3\n        /* \"#utility.yul\":8630:8693   */\n      tag_308\n      jump\t// in\n    tag_392:\n        /* \"#utility.yul\":8530:8703   */\n      pop\n        /* \"#utility.yul\":8787:8791   */\n      0x40\n        /* \"#utility.yul\":8780:8785   */\n      dup3\n        /* \"#utility.yul\":8776:8792   */\n      add\n        /* \"#utility.yul\":8770:8793   */\n      mload\n        /* \"#utility.yul\":8806:8869   */\n      tag_393\n        /* \"#utility.yul\":8863:8867   */\n      0x40\n        /* \"#utility.yul\":8858:8861   */\n      dup6\n        /* \"#utility.yul\":8854:8868   */\n      add\n        /* \"#utility.yul\":8840:8852   */\n      dup3\n        /* \"#utility.yul\":8806:8869   */\n      tag_308\n      jump\t// in\n    tag_393:\n        /* \"#utility.yul\":8713:8879   */\n      pop\n        /* \"#utility.yul\":8964:8968   */\n      0x60\n        /* \"#utility.yul\":8957:8962   */\n      dup3\n        /* \"#utility.yul\":8953:8969   */\n      add\n        /* \"#utility.yul\":8947:8970   */\n      mload\n        /* \"#utility.yul\":8983:9046   */\n      tag_394\n        /* \"#utility.yul\":9040:9044   */\n      0x60\n        /* \"#utility.yul\":9035:9038   */\n      dup6\n        /* \"#utility.yul\":9031:9045   */\n      add\n        /* \"#utility.yul\":9017:9029   */\n      dup3\n        /* \"#utility.yul\":8983:9046   */\n      tag_308\n      jump\t// in\n    tag_394:\n        /* \"#utility.yul\":8889:9056   */\n      pop\n        /* \"#utility.yul\":9148:9152   */\n      0x80\n        /* \"#utility.yul\":9141:9146   */\n      dup3\n        /* \"#utility.yul\":9137:9153   */\n      add\n        /* \"#utility.yul\":9131:9154   */\n      mload\n        /* \"#utility.yul\":9167:9230   */\n      tag_395\n        /* \"#utility.yul\":9224:9228   */\n      0x80\n        /* \"#utility.yul\":9219:9222   */\n      dup6\n        /* \"#utility.yul\":9215:9229   */\n      add\n        /* \"#utility.yul\":9201:9213   */\n      dup3\n        /* \"#utility.yul\":9167:9230   */\n      tag_300\n      jump\t// in\n    tag_395:\n        /* \"#utility.yul\":9066:9240   */\n      pop\n        /* \"#utility.yul\":8302:9247   */\n      pop\n        /* \"#utility.yul\":8200:9247   */\n      pop\n      pop\n      jump\t// out\n        /* \"#utility.yul\":9253:9361   */\n    tag_308:\n        /* \"#utility.yul\":9330:9354   */\n      tag_397\n        /* \"#utility.yul\":9348:9353   */\n      dup2\n        /* \"#utility.yul\":9330:9354   */\n      tag_398\n      jump\t// in\n    tag_397:\n        /* \"#utility.yul\":9325:9328   */\n      dup3\n        /* \"#utility.yul\":9318:9355   */\n      mstore\n        /* \"#utility.yul\":9253:9361   */\n      pop\n      pop\n      jump\t// out\n        /* \"#utility.yul\":9367:9485   */\n    tag_399:\n        /* \"#utility.yul\":9454:9478   */\n      tag_401\n        /* \"#utility.yul\":9472:9477   */\n      dup2\n        /* \"#utility.yul\":9454:9478   */\n      tag_398\n      jump\t// in\n    tag_401:\n        /* \"#utility.yul\":9449:9452   */\n      dup3\n        /* \"#utility.yul\":9442:9479   */\n      mstore\n        /* \"#utility.yul\":9367:9485   */\n      pop\n      pop\n      jump\t// out\n        /* \"#utility.yul\":9491:9648   */\n    tag_402:\n        /* \"#utility.yul\":9596:9641   */\n      tag_404\n        /* \"#utility.yul\":9616:9640   */\n      tag_405\n        /* \"#utility.yul\":9634:9639   */\n      dup3\n        /* \"#utility.yul\":9616:9640   */\n      tag_398\n      jump\t// in\n    tag_405:\n        /* \"#utility.yul\":9596:9641   */\n      tag_406\n      jump\t// in\n    tag_404:\n        /* \"#utility.yul\":9591:9594   */\n      dup3\n        /* \"#utility.yul\":9584:9642   */\n      mstore\n        /* \"#utility.yul\":9491:9648   */\n      pop\n      pop\n      jump\t// out\n        /* \"#utility.yul\":9654:10333   */\n    tag_250:\n        /* \"#utility.yul\":9850:9853   */\n      0x00\n        /* \"#utility.yul\":9865:9940   */\n      tag_408\n        /* \"#utility.yul\":9936:9939   */\n      dup3\n        /* \"#utility.yul\":9927:9933   */\n      dup8\n        /* \"#utility.yul\":9865:9940   */\n      tag_402\n      jump\t// in\n    tag_408:\n        /* \"#utility.yul\":9965:9967   */\n      0x20\n        /* \"#utility.yul\":9960:9963   */\n      dup3\n        /* \"#utility.yul\":9956:9968   */\n      add\n        /* \"#utility.yul\":9949:9968   */\n      swap2\n      pop\n        /* \"#utility.yul\":9978:10053   */\n      tag_409\n        /* \"#utility.yul\":10049:10052   */\n      dup3\n        /* \"#utility.yul\":10040:10046   */\n      dup7\n        /* \"#utility.yul\":9978:10053   */\n      tag_402\n      jump\t// in\n    tag_409:\n        /* \"#utility.yul\":10078:10080   */\n      0x20\n        /* \"#utility.yul\":10073:10076   */\n      dup3\n        /* \"#utility.yul\":10069:10081   */\n      add\n        /* \"#utility.yul\":10062:10081   */\n      swap2\n      pop\n        /* \"#utility.yul\":10091:10166   */\n      tag_410\n        /* \"#utility.yul\":10162:10165   */\n      dup3\n        /* \"#utility.yul\":10153:10159   */\n      dup6\n        /* \"#utility.yul\":10091:10166   */\n      tag_315\n      jump\t// in\n    tag_410:\n        /* \"#utility.yul\":10191:10193   */\n      0x14\n        /* \"#utility.yul\":10186:10189   */\n      dup3\n        /* \"#utility.yul\":10182:10194   */\n      add\n        /* \"#utility.yul\":10175:10194   */\n      swap2\n      pop\n        /* \"#utility.yul\":10204:10279   */\n      tag_411\n        /* \"#utility.yul\":10275:10278   */\n      dup3\n        /* \"#utility.yul\":10266:10272   */\n      dup5\n        /* \"#utility.yul\":10204:10279   */\n      tag_402\n      jump\t// in\n    tag_411:\n        /* \"#utility.yul\":10304:10306   */\n      0x20\n        /* \"#utility.yul\":10299:10302   */\n      dup3\n        /* \"#utility.yul\":10295:10307   */\n      add\n        /* \"#utility.yul\":10288:10307   */\n      swap2\n      pop\n        /* \"#utility.yul\":10324:10327   */\n      dup2\n        /* \"#utility.yul\":10317:10327   */\n      swap1\n      pop\n        /* \"#utility.yul\":9654:10333   */\n      swap6\n      swap5\n      pop\n      pop\n      pop\n      pop\n      pop\n      jump\t// out\n        /* \"#utility.yul\":10339:10561   */\n    tag_55:\n        /* \"#utility.yul\":10432:10436   */\n      0x00\n        /* \"#utility.yul\":10470:10472   */\n      0x20\n        /* \"#utility.yul\":10459:10468   */\n      dup3\n        /* \"#utility.yul\":10455:10473   */\n      add\n        /* \"#utility.yul\":10447:10473   */\n      swap1\n      pop\n        /* \"#utility.yul\":10483:10554   */\n      tag_413\n        /* \"#utility.yul\":10551:10552   */\n      0x00\n        /* \"#utility.yul\":10540:10549   */\n      dup4\n        /* \"#utility.yul\":10536:10553   */\n      add\n        /* \"#utility.yul\":10527:10533   */\n      dup5\n        /* \"#utility.yul\":10483:10554   */\n      tag_312\n      jump\t// in\n    tag_413:\n        /* \"#utility.yul\":10339:10561   */\n      swap3\n      swap2\n      pop\n      pop\n      jump\t// out\n        /* \"#utility.yul\":10567:10915   */\n    tag_101:\n        /* \"#utility.yul\":10696:10700   */\n      0x00\n        /* \"#utility.yul\":10734:10736   */\n      0x40\n        /* \"#utility.yul\":10723:10732   */\n      dup3\n        /* \"#utility.yul\":10719:10737   */\n      add\n        /* \"#utility.yul\":10711:10737   */\n      swap1\n      pop\n        /* \"#utility.yul\":10747:10818   */\n      tag_415\n        /* \"#utility.yul\":10815:10816   */\n      0x00\n        /* \"#utility.yul\":10804:10813   */\n      dup4\n        /* \"#utility.yul\":10800:10817   */\n      add\n        /* \"#utility.yul\":10791:10797   */\n      dup6\n        /* \"#utility.yul\":10747:10818   */\n      tag_312\n      jump\t// in\n    tag_415:\n        /* \"#utility.yul\":10828:10908   */\n      tag_416\n        /* \"#utility.yul\":10904:10906   */\n      0x20\n        /* \"#utility.yul\":10893:10902   */\n      dup4\n        /* \"#utility.yul\":10889:10907   */\n      add\n        /* \"#utility.yul\":10880:10886   */\n      dup5\n        /* \"#utility.yul\":10828:10908   */\n      tag_370\n      jump\t// in\n    tag_416:\n        /* \"#utility.yul\":10567:10915   */\n      swap4\n      swap3\n      pop\n      pop\n      pop\n      jump\t// out\n        /* \"#utility.yul\":10921:11253   */\n    tag_183:\n        /* \"#utility.yul\":11042:11046   */\n      0x00\n        /* \"#utility.yul\":11080:11082   */\n      0x40\n        /* \"#utility.yul\":11069:11078   */\n      dup3\n        /* \"#utility.yul\":11065:11083   */\n      add\n        /* \"#utility.yul\":11057:11083   */\n      swap1\n      pop\n        /* \"#utility.yul\":11093:11164   */\n      tag_418\n        /* \"#utility.yul\":11161:11162   */\n      0x00\n        /* \"#utility.yul\":11150:11159   */\n      dup4\n        /* \"#utility.yul\":11146:11163   */\n      add\n        /* \"#utility.yul\":11137:11143   */\n      dup6\n        /* \"#utility.yul\":11093:11164   */\n      tag_312\n      jump\t// in\n    tag_418:\n        /* \"#utility.yul\":11174:11246   */\n      tag_419\n        /* \"#utility.yul\":11242:11244   */\n      0x20\n        /* \"#utility.yul\":11231:11240   */\n      dup4\n        /* \"#utility.yul\":11227:11245   */\n      add\n        /* \"#utility.yul\":11218:11224   */\n      dup5\n        /* \"#utility.yul\":11174:11246   */\n      tag_399\n      jump\t// in\n    tag_419:\n        /* \"#utility.yul\":10921:11253   */\n      swap4\n      swap3\n      pop\n      pop\n      pop\n      jump\t// out\n        /* \"#utility.yul\":11259:11893   */\n    tag_40:\n        /* \"#utility.yul\":11480:11484   */\n      0x00\n        /* \"#utility.yul\":11518:11520   */\n      0x40\n        /* \"#utility.yul\":11507:11516   */\n      dup3\n        /* \"#utility.yul\":11503:11521   */\n      add\n        /* \"#utility.yul\":11495:11521   */\n      swap1\n      pop\n        /* \"#utility.yul\":11567:11576   */\n      dup2\n        /* \"#utility.yul\":11561:11565   */\n      dup2\n        /* \"#utility.yul\":11557:11577   */\n      sub\n        /* \"#utility.yul\":11553:11554   */\n      0x00\n        /* \"#utility.yul\":11542:11551   */\n      dup4\n        /* \"#utility.yul\":11538:11555   */\n      add\n        /* \"#utility.yul\":11531:11578   */\n      mstore\n        /* \"#utility.yul\":11595:11703   */\n      tag_421\n        /* \"#utility.yul\":11698:11702   */\n      dup2\n        /* \"#utility.yul\":11689:11695   */\n      dup6\n        /* \"#utility.yul\":11595:11703   */\n      tag_320\n      jump\t// in\n    tag_421:\n        /* \"#utility.yul\":11587:11703   */\n      swap1\n      pop\n        /* \"#utility.yul\":11750:11759   */\n      dup2\n        /* \"#utility.yul\":11744:11748   */\n      dup2\n        /* \"#utility.yul\":11740:11760   */\n      sub\n        /* \"#utility.yul\":11735:11737   */\n      0x20\n        /* \"#utility.yul\":11724:11733   */\n      dup4\n        /* \"#utility.yul\":11720:11738   */\n      add\n        /* \"#utility.yul\":11713:11761   */\n      mstore\n        /* \"#utility.yul\":11778:11886   */\n      tag_422\n        /* \"#utility.yul\":11881:11885   */\n      dup2\n        /* \"#utility.yul\":11872:11878   */\n      dup5\n        /* \"#utility.yul\":11778:11886   */\n      tag_348\n      jump\t// in\n    tag_422:\n        /* \"#utility.yul\":11770:11886   */\n      swap1\n      pop\n        /* \"#utility.yul\":11259:11893   */\n      swap4\n      swap3\n      pop\n      pop\n      pop\n      jump\t// out\n        /* \"#utility.yul\":11899:12364   */\n    tag_75:\n        /* \"#utility.yul\":12088:12092   */\n      0x00\n        /* \"#utility.yul\":12126:12128   */\n      0x20\n        /* \"#utility.yul\":12115:12124   */\n      dup3\n        /* \"#utility.yul\":12111:12129   */\n      add\n        /* \"#utility.yul\":12103:12129   */\n      swap1\n      pop\n        /* \"#utility.yul\":12175:12184   */\n      dup2\n        /* \"#utility.yul\":12169:12173   */\n      dup2\n        /* \"#utility.yul\":12165:12185   */\n      sub\n        /* \"#utility.yul\":12161:12162   */\n      0x00\n        /* \"#utility.yul\":12150:12159   */\n      dup4\n        /* \"#utility.yul\":12146:12163   */\n      add\n        /* \"#utility.yul\":12139:12186   */\n      mstore\n        /* \"#utility.yul\":12203:12357   */\n      tag_424\n        /* \"#utility.yul\":12352:12356   */\n      dup2\n        /* \"#utility.yul\":12343:12349   */\n      dup5\n        /* \"#utility.yul\":12203:12357   */\n      tag_334\n      jump\t// in\n    tag_424:\n        /* \"#utility.yul\":12195:12357   */\n      swap1\n      pop\n        /* \"#utility.yul\":11899:12364   */\n      swap3\n      swap2\n      pop\n      pop\n      jump\t// out\n        /* \"#utility.yul\":12370:12620   */\n    tag_36:\n        /* \"#utility.yul\":12477:12481   */\n      0x00\n        /* \"#utility.yul\":12515:12517   */\n      0x20\n        /* \"#utility.yul\":12504:12513   */\n      dup3\n        /* \"#utility.yul\":12500:12518   */\n      add\n        /* \"#utility.yul\":12492:12518   */\n      swap1\n      pop\n        /* \"#utility.yul\":12528:12613   */\n      tag_426\n        /* \"#utility.yul\":12610:12611   */\n      0x00\n        /* \"#utility.yul\":12599:12608   */\n      dup4\n        /* \"#utility.yul\":12595:12612   */\n      add\n        /* \"#utility.yul\":12586:12592   */\n      dup5\n        /* \"#utility.yul\":12528:12613   */\n      tag_362\n      jump\t// in\n    tag_426:\n        /* \"#utility.yul\":12370:12620   */\n      swap3\n      swap2\n      pop\n      pop\n      jump\t// out\n        /* \"#utility.yul\":12626:12898   */\n    tag_69:\n        /* \"#utility.yul\":12744:12748   */\n      0x00\n        /* \"#utility.yul\":12782:12784   */\n      0x20\n        /* \"#utility.yul\":12771:12780   */\n      dup3\n        /* \"#utility.yul\":12767:12785   */\n      add\n        /* \"#utility.yul\":12759:12785   */\n      swap1\n      pop\n        /* \"#utility.yul\":12795:12891   */\n      tag_428\n        /* \"#utility.yul\":12888:12889   */\n      0x00\n        /* \"#utility.yul\":12877:12886   */\n      dup4\n        /* \"#utility.yul\":12873:12890   */\n      add\n        /* \"#utility.yul\":12864:12870   */\n      dup5\n        /* \"#utility.yul\":12795:12891   */\n      tag_366\n      jump\t// in\n    tag_428:\n        /* \"#utility.yul\":12626:12898   */\n      swap3\n      swap2\n      pop\n      pop\n      jump\t// out\n        /* \"#utility.yul\":12904:13323   */\n    tag_239:\n        /* \"#utility.yul\":13070:13074   */\n      0x00\n        /* \"#utility.yul\":13108:13110   */\n      0x20\n        /* \"#utility.yul\":13097:13106   */\n      dup3\n        /* \"#utility.yul\":13093:13111   */\n      add\n        /* \"#utility.yul\":13085:13111   */\n      swap1\n      pop\n        /* \"#utility.yul\":13157:13166   */\n      dup2\n        /* \"#utility.yul\":13151:13155   */\n      dup2\n        /* \"#utility.yul\":13147:13167   */\n      sub\n        /* \"#utility.yul\":13143:13144   */\n      0x00\n        /* \"#utility.yul\":13132:13141   */\n      dup4\n        /* \"#utility.yul\":13128:13145   */\n      add\n        /* \"#utility.yul\":13121:13168   */\n      mstore\n        /* \"#utility.yul\":13185:13316   */\n      tag_430\n        /* \"#utility.yul\":13311:13315   */\n      dup2\n        /* \"#utility.yul\":13185:13316   */\n      tag_374\n      jump\t// in\n    tag_430:\n        /* \"#utility.yul\":13177:13316   */\n      swap1\n      pop\n        /* \"#utility.yul\":12904:13323   */\n      swap2\n      swap1\n      pop\n      jump\t// out\n        /* \"#utility.yul\":13329:13748   */\n    tag_165:\n        /* \"#utility.yul\":13495:13499   */\n      0x00\n        /* \"#utility.yul\":13533:13535   */\n      0x20\n        /* \"#utility.yul\":13522:13531   */\n      dup3\n        /* \"#utility.yul\":13518:13536   */\n      add\n        /* \"#utility.yul\":13510:13536   */\n      swap1\n      pop\n        /* \"#utility.yul\":13582:13591   */\n      dup2\n        /* \"#utility.yul\":13576:13580   */\n      dup2\n        /* \"#utility.yul\":13572:13592   */\n      sub\n        /* \"#utility.yul\":13568:13569   */\n      0x00\n        /* \"#utility.yul\":13557:13566   */\n      dup4\n        /* \"#utility.yul\":13553:13570   */\n      add\n        /* \"#utility.yul\":13546:13593   */\n      mstore\n        /* \"#utility.yul\":13610:13741   */\n      tag_432\n        /* \"#utility.yul\":13736:13740   */\n      dup2\n        /* \"#utility.yul\":13610:13741   */\n      tag_380\n      jump\t// in\n    tag_432:\n        /* \"#utility.yul\":13602:13741   */\n      swap1\n      pop\n        /* \"#utility.yul\":13329:13748   */\n      swap2\n      swap1\n      pop\n      jump\t// out\n        /* \"#utility.yul\":13754:14173   */\n    tag_156:\n        /* \"#utility.yul\":13920:13924   */\n      0x00\n        /* \"#utility.yul\":13958:13960   */\n      0x20\n        /* \"#utility.yul\":13947:13956   */\n      dup3\n        /* \"#utility.yul\":13943:13961   */\n      add\n        /* \"#utility.yul\":13935:13961   */\n      swap1\n      pop\n        /* \"#utility.yul\":14007:14016   */\n      dup2\n        /* \"#utility.yul\":14001:14005   */\n      dup2\n        /* \"#utility.yul\":13997:14017   */\n      sub\n        /* \"#utility.yul\":13993:13994   */\n      0x00\n        /* \"#utility.yul\":13982:13991   */\n      dup4\n        /* \"#utility.yul\":13978:13995   */\n      add\n        /* \"#utility.yul\":13971:14018   */\n      mstore\n        /* \"#utility.yul\":14035:14166   */\n      tag_434\n        /* \"#utility.yul\":14161:14165   */\n      dup2\n        /* \"#utility.yul\":14035:14166   */\n      tag_385\n      jump\t// in\n    tag_434:\n        /* \"#utility.yul\":14027:14166   */\n      swap1\n      pop\n        /* \"#utility.yul\":13754:14173   */\n      swap2\n      swap1\n      pop\n      jump\t// out\n        /* \"#utility.yul\":14179:14401   */\n    tag_26:\n        /* \"#utility.yul\":14272:14276   */\n      0x00\n        /* \"#utility.yul\":14310:14312   */\n      0x20\n        /* \"#utility.yul\":14299:14308   */\n      dup3\n        /* \"#utility.yul\":14295:14313   */\n      add\n        /* \"#utility.yul\":14287:14313   */\n      swap1\n      pop\n        /* \"#utility.yul\":14323:14394   */\n      tag_436\n        /* \"#utility.yul\":14391:14392   */\n      0x00\n        /* \"#utility.yul\":14380:14389   */\n      dup4\n        /* \"#utility.yul\":14376:14393   */\n      add\n        /* \"#utility.yul\":14367:14373   */\n      dup5\n        /* \"#utility.yul\":14323:14394   */\n      tag_399\n      jump\t// in\n    tag_436:\n        /* \"#utility.yul\":14179:14401   */\n      swap3\n      swap2\n      pop\n      pop\n      jump\t// out\n        /* \"#utility.yul\":14407:15071   */\n    tag_65:\n        /* \"#utility.yul\":14612:14616   */\n      0x00\n        /* \"#utility.yul\":14650:14653   */\n      0xa0\n        /* \"#utility.yul\":14639:14648   */\n      dup3\n        /* \"#utility.yul\":14635:14654   */\n      add\n        /* \"#utility.yul\":14627:14654   */\n      swap1\n      pop\n        /* \"#utility.yul\":14664:14735   */\n      tag_438\n        /* \"#utility.yul\":14732:14733   */\n      0x00\n        /* \"#utility.yul\":14721:14730   */\n      dup4\n        /* \"#utility.yul\":14717:14734   */\n      add\n        /* \"#utility.yul\":14708:14714   */\n      dup9\n        /* \"#utility.yul\":14664:14735   */\n      tag_399\n      jump\t// in\n    tag_438:\n        /* \"#utility.yul\":14745:14817   */\n      tag_439\n        /* \"#utility.yul\":14813:14815   */\n      0x20\n        /* \"#utility.yul\":14802:14811   */\n      dup4\n        /* \"#utility.yul\":14798:14816   */\n      add\n        /* \"#utility.yul\":14789:14795   */\n      dup8\n        /* \"#utility.yul\":14745:14817   */\n      tag_399\n      jump\t// in\n    tag_439:\n        /* \"#utility.yul\":14827:14899   */\n      tag_440\n        /* \"#utility.yul\":14895:14897   */\n      0x40\n        /* \"#utility.yul\":14884:14893   */\n      dup4\n        /* \"#utility.yul\":14880:14898   */\n      add\n        /* \"#utility.yul\":14871:14877   */\n      dup7\n        /* \"#utility.yul\":14827:14899   */\n      tag_399\n      jump\t// in\n    tag_440:\n        /* \"#utility.yul\":14909:14981   */\n      tag_441\n        /* \"#utility.yul\":14977:14979   */\n      0x60\n        /* \"#utility.yul\":14966:14975   */\n      dup4\n        /* \"#utility.yul\":14962:14980   */\n      add\n        /* \"#utility.yul\":14953:14959   */\n      dup6\n        /* \"#utility.yul\":14909:14981   */\n      tag_399\n      jump\t// in\n    tag_441:\n        /* \"#utility.yul\":14991:15064   */\n      tag_442\n        /* \"#utility.yul\":15059:15062   */\n      0x80\n        /* \"#utility.yul\":15048:15057   */\n      dup4\n        /* \"#utility.yul\":15044:15063   */\n      add\n        /* \"#utility.yul\":15035:15041   */\n      dup5\n        /* \"#utility.yul\":14991:15064   */\n      tag_312\n      jump\t// in\n    tag_442:\n        /* \"#utility.yul\":14407:15071   */\n      swap7\n      swap6\n      pop\n      pop\n      pop\n      pop\n      pop\n      pop\n      jump\t// out\n        /* \"#utility.yul\":15158:15290   */\n    tag_327:\n        /* \"#utility.yul\":15225:15229   */\n      0x00\n        /* \"#utility.yul\":15248:15251   */\n      dup2\n        /* \"#utility.yul\":15240:15251   */\n      swap1\n      pop\n        /* \"#utility.yul\":15278:15282   */\n      0x20\n        /* \"#utility.yul\":15273:15276   */\n      dup3\n        /* \"#utility.yul\":15269:15283   */\n      add\n        /* \"#utility.yul\":15261:15283   */\n      swap1\n      pop\n        /* \"#utility.yul\":15158:15290   */\n      swap2\n      swap1\n      pop\n      jump\t// out\n        /* \"#utility.yul\":15296:15451   */\n    tag_341:\n        /* \"#utility.yul\":15386:15390   */\n      0x00\n        /* \"#utility.yul\":15409:15412   */\n      dup2\n        /* \"#utility.yul\":15401:15412   */\n      swap1\n      pop\n        /* \"#utility.yul\":15439:15443   */\n      0x20\n        /* \"#utility.yul\":15434:15437   */\n      dup3\n        /* \"#utility.yul\":15430:15444   */\n      add\n        /* \"#utility.yul\":15422:15444   */\n      swap1\n      pop\n        /* \"#utility.yul\":15296:15451   */\n      swap2\n      swap1\n      pop\n      jump\t// out\n        /* \"#utility.yul\":15457:15589   */\n    tag_355:\n        /* \"#utility.yul\":15524:15528   */\n      0x00\n        /* \"#utility.yul\":15547:15550   */\n      dup2\n        /* \"#utility.yul\":15539:15550   */\n      swap1\n      pop\n        /* \"#utility.yul\":15577:15581   */\n      0x20\n        /* \"#utility.yul\":15572:15575   */\n      dup3\n        /* \"#utility.yul\":15568:15582   */\n      add\n        /* \"#utility.yul\":15560:15582   */\n      swap1\n      pop\n        /* \"#utility.yul\":15457:15589   */\n      swap2\n      swap1\n      pop\n      jump\t// out\n        /* \"#utility.yul\":15595:15709   */\n    tag_323:\n        /* \"#utility.yul\":15662:15668   */\n      0x00\n        /* \"#utility.yul\":15696:15701   */\n      dup2\n        /* \"#utility.yul\":15690:15702   */\n      mload\n        /* \"#utility.yul\":15680:15702   */\n      swap1\n      pop\n        /* \"#utility.yul\":15595:15709   */\n      swap2\n      swap1\n      pop\n      jump\t// out\n        /* \"#utility.yul\":15715:15852   */\n    tag_337:\n        /* \"#utility.yul\":15805:15811   */\n      0x00\n        /* \"#utility.yul\":15839:15844   */\n      dup2\n        /* \"#utility.yul\":15833:15845   */\n      mload\n        /* \"#utility.yul\":15823:15845   */\n      swap1\n      pop\n        /* \"#utility.yul\":15715:15852   */\n      swap2\n      swap1\n      pop\n      jump\t// out\n        /* \"#utility.yul\":15858:15972   */\n    tag_351:\n        /* \"#utility.yul\":15925:15931   */\n      0x00\n        /* \"#utility.yul\":15959:15964   */\n      dup2\n        /* \"#utility.yul\":15953:15965   */\n      mload\n        /* \"#utility.yul\":15943:15965   */\n      swap1\n      pop\n        /* \"#utility.yul\":15858:15972   */\n      swap2\n      swap1\n      pop\n      jump\t// out\n        /* \"#utility.yul\":15978:16091   */\n    tag_333:\n        /* \"#utility.yul\":16048:16052   */\n      0x00\n        /* \"#utility.yul\":16080:16084   */\n      0x20\n        /* \"#utility.yul\":16075:16078   */\n      dup3\n        /* \"#utility.yul\":16071:16085   */\n      add\n        /* \"#utility.yul\":16063:16085   */\n      swap1\n      pop\n        /* \"#utility.yul\":15978:16091   */\n      swap2\n      swap1\n      pop\n      jump\t// out\n        /* \"#utility.yul\":16097:16233   */\n    tag_347:\n        /* \"#utility.yul\":16190:16194   */\n      0x00\n        /* \"#utility.yul\":16222:16226   */\n      0x20\n        /* \"#utility.yul\":16217:16220   */\n      dup3\n        /* \"#utility.yul\":16213:16227   */\n      add\n        /* \"#utility.yul\":16205:16227   */\n      swap1\n      pop\n        /* \"#utility.yul\":16097:16233   */\n      swap2\n      swap1\n      pop\n      jump\t// out\n        /* \"#utility.yul\":16239:16352   */\n    tag_361:\n        /* \"#utility.yul\":16309:16313   */\n      0x00\n        /* \"#utility.yul\":16341:16345   */\n      0x20\n        /* \"#utility.yul\":16336:16339   */\n      dup3\n        /* \"#utility.yul\":16332:16346   */\n      add\n        /* \"#utility.yul\":16324:16346   */\n      swap1\n      pop\n        /* \"#utility.yul\":16239:16352   */\n      swap2\n      swap1\n      pop\n      jump\t// out\n        /* \"#utility.yul\":16358:16542   */\n    tag_325:\n        /* \"#utility.yul\":16457:16468   */\n      0x00\n        /* \"#utility.yul\":16491:16497   */\n      dup3\n        /* \"#utility.yul\":16486:16489   */\n      dup3\n        /* \"#utility.yul\":16479:16498   */\n      mstore\n        /* \"#utility.yul\":16531:16535   */\n      0x20\n        /* \"#utility.yul\":16526:16529   */\n      dup3\n        /* \"#utility.yul\":16522:16536   */\n      add\n        /* \"#utility.yul\":16507:16536   */\n      swap1\n      pop\n        /* \"#utility.yul\":16358:16542   */\n      swap3\n      swap2\n      pop\n      pop\n      jump\t// out\n        /* \"#utility.yul\":16548:16755   */\n    tag_339:\n        /* \"#utility.yul\":16670:16681   */\n      0x00\n        /* \"#utility.yul\":16704:16710   */\n      dup3\n        /* \"#utility.yul\":16699:16702   */\n      dup3\n        /* \"#utility.yul\":16692:16711   */\n      mstore\n        /* \"#utility.yul\":16744:16748   */\n      0x20\n        /* \"#utility.yul\":16739:16742   */\n      dup3\n        /* \"#utility.yul\":16735:16749   */\n      add\n        /* \"#utility.yul\":16720:16749   */\n      swap1\n      pop\n        /* \"#utility.yul\":16548:16755   */\n      swap3\n      swap2\n      pop\n      pop\n      jump\t// out\n        /* \"#utility.yul\":16761:16945   */\n    tag_353:\n        /* \"#utility.yul\":16860:16871   */\n      0x00\n        /* \"#utility.yul\":16894:16900   */\n      dup3\n        /* \"#utility.yul\":16889:16892   */\n      dup3\n        /* \"#utility.yul\":16882:16901   */\n      mstore\n        /* \"#utility.yul\":16934:16938   */\n      0x20\n        /* \"#utility.yul\":16929:16932   */\n      dup3\n        /* \"#utility.yul\":16925:16939   */\n      add\n        /* \"#utility.yul\":16910:16939   */\n      swap1\n      pop\n        /* \"#utility.yul\":16761:16945   */\n      swap3\n      swap2\n      pop\n      pop\n      jump\t// out\n        /* \"#utility.yul\":16951:17120   */\n    tag_377:\n        /* \"#utility.yul\":17035:17046   */\n      0x00\n        /* \"#utility.yul\":17069:17075   */\n      dup3\n        /* \"#utility.yul\":17064:17067   */\n      dup3\n        /* \"#utility.yul\":17057:17076   */\n      mstore\n        /* \"#utility.yul\":17109:17113   */\n      0x20\n        /* \"#utility.yul\":17104:17107   */\n      dup3\n        /* \"#utility.yul\":17100:17114   */\n      add\n        /* \"#utility.yul\":17085:17114   */\n      swap1\n      pop\n        /* \"#utility.yul\":16951:17120   */\n      swap3\n      swap2\n      pop\n      pop\n      jump\t// out\n        /* \"#utility.yul\":17126:17431   */\n    tag_180:\n        /* \"#utility.yul\":17166:17169   */\n      0x00\n        /* \"#utility.yul\":17185:17205   */\n      tag_459\n        /* \"#utility.yul\":17203:17204   */\n      dup3\n        /* \"#utility.yul\":17185:17205   */\n      tag_398\n      jump\t// in\n    tag_459:\n        /* \"#utility.yul\":17180:17205   */\n      swap2\n      pop\n        /* \"#utility.yul\":17219:17239   */\n      tag_460\n        /* \"#utility.yul\":17237:17238   */\n      dup4\n        /* \"#utility.yul\":17219:17239   */\n      tag_398\n      jump\t// in\n    tag_460:\n        /* \"#utility.yul\":17214:17239   */\n      swap3\n      pop\n        /* \"#utility.yul\":17373:17374   */\n      dup3\n        /* \"#utility.yul\":17305:17371   */\n      0xffffffffffffffffffffffffffffffffffffffffffffffffffffffffffffffff\n        /* \"#utility.yul\":17301:17375   */\n      sub\n        /* \"#utility.yul\":17298:17299   */\n      dup3\n        /* \"#utility.yul\":17295:17376   */\n      gt\n        /* \"#utility.yul\":17292:17399   */\n      iszero\n      tag_461\n      jumpi\n        /* \"#utility.yul\":17379:17397   */\n      tag_462\n      tag_463\n      jump\t// in\n    tag_462:\n        /* \"#utility.yul\":17292:17399   */\n    tag_461:\n        /* \"#utility.yul\":17423:17424   */\n      dup3\n        /* \"#utility.yul\":17420:17421   */\n      dup3\n        /* \"#utility.yul\":17416:17425   */\n      add\n        /* \"#utility.yul\":17409:17425   */\n      swap1\n      pop\n        /* \"#utility.yul\":17126:17431   */\n      swap3\n      swap2\n      pop\n      pop\n      jump\t// out\n        /* \"#utility.yul\":17437:17628   */\n    tag_214:\n        /* \"#utility.yul\":17477:17481   */\n      0x00\n        /* \"#utility.yul\":17497:17517   */\n      tag_465\n        /* \"#utility.yul\":17515:17516   */\n      dup3\n        /* \"#utility.yul\":17497:17517   */\n      tag_398\n      jump\t// in\n    tag_465:\n        /* \"#utility.yul\":17492:17517   */\n      swap2\n      pop\n        /* \"#utility.yul\":17531:17551   */\n      tag_466\n        /* \"#utility.yul\":17549:17550   */\n      dup4\n        /* \"#utility.yul\":17531:17551   */\n      tag_398\n      jump\t// in\n    tag_466:\n        /* \"#utility.yul\":17526:17551   */\n      swap3\n      pop\n        /* \"#utility.yul\":17570:17571   */\n      dup3\n        /* \"#utility.yul\":17567:17568   */\n      dup3\n        /* \"#utility.yul\":17564:17572   */\n      lt\n        /* \"#utility.yul\":17561:17595   */\n      iszero\n      tag_467\n      jumpi\n        /* \"#utility.yul\":17575:17593   */\n      tag_468\n      tag_463\n      jump\t// in\n    tag_468:\n        /* \"#utility.yul\":17561:17595   */\n    tag_467:\n        /* \"#utility.yul\":17620:17621   */\n      dup3\n        /* \"#utility.yul\":17617:17618   */\n      dup3\n        /* \"#utility.yul\":17613:17622   */\n      sub\n        /* \"#utility.yul\":17605:17622   */\n      swap1\n      pop\n        /* \"#utility.yul\":17437:17628   */\n      swap3\n      swap2\n      pop\n      pop\n      jump\t// out\n        /* \"#utility.yul\":17634:17730   */\n    tag_311:\n        /* \"#utility.yul\":17671:17678   */\n      0x00\n        /* \"#utility.yul\":17700:17724   */\n      tag_470\n        /* \"#utility.yul\":17718:17723   */\n      dup3\n        /* \"#utility.yul\":17700:17724   */\n      tag_471\n      jump\t// in\n    tag_470:\n        /* \"#utility.yul\":17689:17724   */\n      swap1\n      pop\n        /* \"#utility.yul\":17634:17730   */\n      swap2\n      swap1\n      pop\n      jump\t// out\n        /* \"#utility.yul\":17736:17826   */\n    tag_472:\n        /* \"#utility.yul\":17770:17777   */\n      0x00\n        /* \"#utility.yul\":17813:17818   */\n      dup2\n        /* \"#utility.yul\":17806:17819   */\n      iszero\n        /* \"#utility.yul\":17799:17820   */\n      iszero\n        /* \"#utility.yul\":17788:17820   */\n      swap1\n      pop\n        /* \"#utility.yul\":17736:17826   */\n      swap2\n      swap1\n      pop\n      jump\t// out\n        /* \"#utility.yul\":17832:17958   */\n    tag_471:\n        /* \"#utility.yul\":17869:17876   */\n      0x00\n        /* \"#utility.yul\":17909:17951   */\n      0xffffffffffffffffffffffffffffffffffffffff\n        /* \"#utility.yul\":17902:17907   */\n      dup3\n        /* \"#utility.yul\":17898:17952   */\n      and\n        /* \"#utility.yul\":17887:17952   */\n      swap1\n      pop\n        /* \"#utility.yul\":17832:17958   */\n      swap2\n      swap1\n      pop\n      jump\t// out\n        /* \"#utility.yul\":17964:18041   */\n    tag_398:\n        /* \"#utility.yul\":18001:18008   */\n      0x00\n        /* \"#utility.yul\":18030:18035   */\n      dup2\n        /* \"#utility.yul\":18019:18035   */\n      swap1\n      pop\n        /* \"#utility.yul\":17964:18041   */\n      swap2\n      swap1\n      pop\n      jump\t// out\n        /* \"#utility.yul\":18047:18187   */\n    tag_365:\n        /* \"#utility.yul\":18111:18120   */\n      0x00\n        /* \"#utility.yul\":18144:18181   */\n      tag_477\n        /* \"#utility.yul\":18175:18180   */\n      dup3\n        /* \"#utility.yul\":18144:18181   */\n      tag_478\n      jump\t// in\n    tag_477:\n        /* \"#utility.yul\":18131:18181   */\n      swap1\n      pop\n        /* \"#utility.yul\":18047:18187   */\n      swap2\n      swap1\n      pop\n      jump\t// out\n        /* \"#utility.yul\":18193:18344   */\n    tag_369:\n        /* \"#utility.yul\":18268:18277   */\n      0x00\n        /* \"#utility.yul\":18301:18338   */\n      tag_480\n        /* \"#utility.yul\":18332:18337   */\n      dup3\n        /* \"#utility.yul\":18301:18338   */\n      tag_478\n      jump\t// in\n    tag_480:\n        /* \"#utility.yul\":18288:18338   */\n      swap1\n      pop\n        /* \"#utility.yul\":18193:18344   */\n      swap2\n      swap1\n      pop\n      jump\t// out\n        /* \"#utility.yul\":18350:18471   */\n    tag_373:\n        /* \"#utility.yul\":18408:18417   */\n      0x00\n        /* \"#utility.yul\":18441:18465   */\n      tag_482\n        /* \"#utility.yul\":18459:18464   */\n      dup3\n        /* \"#utility.yul\":18441:18465   */\n      tag_398\n      jump\t// in\n    tag_482:\n        /* \"#utility.yul\":18428:18465   */\n      swap1\n      pop\n        /* \"#utility.yul\":18350:18471   */\n      swap2\n      swap1\n      pop\n      jump\t// out\n        /* \"#utility.yul\":18477:18603   */\n    tag_478:\n        /* \"#utility.yul\":18527:18536   */\n      0x00\n        /* \"#utility.yul\":18560:18597   */\n      tag_484\n        /* \"#utility.yul\":18591:18596   */\n      dup3\n        /* \"#utility.yul\":18560:18597   */\n      tag_485\n      jump\t// in\n    tag_484:\n        /* \"#utility.yul\":18547:18597   */\n      swap1\n      pop\n        /* \"#utility.yul\":18477:18603   */\n      swap2\n      swap1\n      pop\n      jump\t// out\n        /* \"#utility.yul\":18609:18722   */\n    tag_485:\n        /* \"#utility.yul\":18659:18668   */\n      0x00\n        /* \"#utility.yul\":18692:18716   */\n      tag_487\n        /* \"#utility.yul\":18710:18715   */\n      dup3\n        /* \"#utility.yul\":18692:18716   */\n      tag_471\n      jump\t// in\n    tag_487:\n        /* \"#utility.yul\":18679:18716   */\n      swap1\n      pop\n        /* \"#utility.yul\":18609:18722   */\n      swap2\n      swap1\n      pop\n      jump\t// out\n        /* \"#utility.yul\":18728:18961   */\n    tag_108:\n        /* \"#utility.yul\":18767:18770   */\n      0x00\n        /* \"#utility.yul\":18790:18814   */\n      tag_489\n        /* \"#utility.yul\":18808:18813   */\n      dup3\n        /* \"#utility.yul\":18790:18814   */\n      tag_398\n      jump\t// in\n    tag_489:\n        /* \"#utility.yul\":18781:18814   */\n      swap2\n      pop\n        /* \"#utility.yul\":18836:18902   */\n      0xffffffffffffffffffffffffffffffffffffffffffffffffffffffffffffffff\n        /* \"#utility.yul\":18829:18834   */\n      dup3\n        /* \"#utility.yul\":18826:18903   */\n      eq\n        /* \"#utility.yul\":18823:18926   */\n      iszero\n      tag_490\n      jumpi\n        /* \"#utility.yul\":18906:18924   */\n      tag_491\n      tag_463\n      jump\t// in\n    tag_491:\n        /* \"#utility.yul\":18823:18926   */\n    tag_490:\n        /* \"#utility.yul\":18953:18954   */\n      0x01\n        /* \"#utility.yul\":18946:18951   */\n      dup3\n        /* \"#utility.yul\":18942:18955   */\n      add\n        /* \"#utility.yul\":18935:18955   */\n      swap1\n      pop\n        /* \"#utility.yul\":18728:18961   */\n      swap2\n      swap1\n      pop\n      jump\t// out\n        /* \"#utility.yul\":18967:19067   */\n    tag_319:\n        /* \"#utility.yul\":19006:19013   */\n      0x00\n        /* \"#utility.yul\":19035:19061   */\n      tag_493\n        /* \"#utility.yul\":19055:19060   */\n      dup3\n        /* \"#utility.yul\":19035:19061   */\n      tag_494\n      jump\t// in\n    tag_493:\n        /* \"#utility.yul\":19024:19061   */\n      swap1\n      pop\n        /* \"#utility.yul\":18967:19067   */\n      swap2\n      swap1\n      pop\n      jump\t// out\n        /* \"#utility.yul\":19073:19167   */\n    tag_494:\n        /* \"#utility.yul\":19112:19119   */\n      0x00\n        /* \"#utility.yul\":19141:19161   */\n      tag_496\n        /* \"#utility.yul\":19155:19160   */\n      dup3\n        /* \"#utility.yul\":19141:19161   */\n      tag_497\n      jump\t// in\n    tag_496:\n        /* \"#utility.yul\":19130:19161   */\n      swap1\n      pop\n        /* \"#utility.yul\":19073:19167   */\n      swap2\n      swap1\n      pop\n      jump\t// out\n        /* \"#utility.yul\":19173:19252   */\n    tag_406:\n        /* \"#utility.yul\":19212:19219   */\n      0x00\n        /* \"#utility.yul\":19241:19246   */\n      dup2\n        /* \"#utility.yul\":19230:19246   */\n      swap1\n      pop\n        /* \"#utility.yul\":19173:19252   */\n      swap2\n      swap1\n      pop\n      jump\t// out\n        /* \"#utility.yul\":19258:19434   */\n    tag_173:\n        /* \"#utility.yul\":19290:19291   */\n      0x00\n        /* \"#utility.yul\":19307:19327   */\n      tag_500\n        /* \"#utility.yul\":19325:19326   */\n      dup3\n        /* \"#utility.yul\":19307:19327   */\n      tag_398\n      jump\t// in\n    tag_500:\n        /* \"#utility.yul\":19302:19327   */\n      swap2\n      pop\n        /* \"#utility.yul\":19341:19361   */\n      tag_501\n        /* \"#utility.yul\":19359:19360   */\n      dup4\n        /* \"#utility.yul\":19341:19361   */\n      tag_398\n      jump\t// in\n    tag_501:\n        /* \"#utility.yul\":19336:19361   */\n      swap3\n      pop\n        /* \"#utility.yul\":19380:19381   */\n      dup3\n        /* \"#utility.yul\":19370:19405   */\n      tag_502\n      jumpi\n        /* \"#utility.yul\":19385:19403   */\n      tag_503\n      tag_504\n      jump\t// in\n    tag_503:\n        /* \"#utility.yul\":19370:19405   */\n    tag_502:\n        /* \"#utility.yul\":19426:19427   */\n      dup3\n        /* \"#utility.yul\":19423:19424   */\n      dup3\n        /* \"#utility.yul\":19419:19428   */\n      mod\n        /* \"#utility.yul\":19414:19428   */\n      swap1\n      pop\n        /* \"#utility.yul\":19258:19434   */\n      swap3\n      swap2\n      pop\n      pop\n      jump\t// out\n        /* \"#utility.yul\":19440:19620   */\n    tag_463:\n        /* \"#utility.yul\":19488:19565   */\n      0x4e487b7100000000000000000000000000000000000000000000000000000000\n        /* \"#utility.yul\":19485:19486   */\n      0x00\n        /* \"#utility.yul\":19478:19566   */\n      mstore\n        /* \"#utility.yul\":19585:19589   */\n      0x11\n        /* \"#utility.yul\":19582:19583   */\n      0x04\n        /* \"#utility.yul\":19575:19590   */\n      mstore\n        /* \"#utility.yul\":19609:19613   */\n      0x24\n        /* \"#utility.yul\":19606:19607   */\n      0x00\n        /* \"#utility.yul\":19599:19614   */\n      revert\n        /* \"#utility.yul\":19626:19806   */\n    tag_504:\n        /* \"#utility.yul\":19674:19751   */\n      0x4e487b7100000000000000000000000000000000000000000000000000000000\n        /* \"#utility.yul\":19671:19672   */\n      0x00\n        /* \"#utility.yul\":19664:19752   */\n      mstore\n        /* \"#utility.yul\":19771:19775   */\n      0x12\n        /* \"#utility.yul\":19768:19769   */\n      0x04\n        /* \"#utility.yul\":19761:19776   */\n      mstore\n        /* \"#utility.yul\":19795:19799   */\n      0x24\n        /* \"#utility.yul\":19792:19793   */\n      0x00\n        /* \"#utility.yul\":19785:19800   */\n      revert\n        /* \"#utility.yul\":19812:19992   */\n    tag_144:\n        /* \"#utility.yul\":19860:19937   */\n      0x4e487b7100000000000000000000000000000000000000000000000000000000\n        /* \"#utility.yul\":19857:19858   */\n      0x00\n        /* \"#utility.yul\":19850:19938   */\n      mstore\n        /* \"#utility.yul\":19957:19961   */\n      0x32\n        /* \"#utility.yul\":19954:19955   */\n      0x04\n        /* \"#utility.yul\":19947:19962   */\n      mstore\n        /* \"#utility.yul\":19981:19985   */\n      0x24\n        /* \"#utility.yul\":19978:19979   */\n      0x00\n        /* \"#utility.yul\":19971:19986   */\n      revert\n        /* \"#utility.yul\":19998:20178   */\n    tag_123:\n        /* \"#utility.yul\":20046:20123   */\n      0x4e487b7100000000000000000000000000000000000000000000000000000000\n        /* \"#utility.yul\":20043:20044   */\n      0x00\n        /* \"#utility.yul\":20036:20124   */\n      mstore\n        /* \"#utility.yul\":20143:20147   */\n      0x41\n        /* \"#utility.yul\":20140:20141   */\n      0x04\n        /* \"#utility.yul\":20133:20148   */\n      mstore\n        /* \"#utility.yul\":20167:20171   */\n      0x24\n        /* \"#utility.yul\":20164:20165   */\n      0x00\n        /* \"#utility.yul\":20157:20172   */\n      revert\n        /* \"#utility.yul\":20307:20424   */\n    tag_274:\n        /* \"#utility.yul\":20416:20417   */\n      0x00\n        /* \"#utility.yul\":20413:20414   */\n      dup1\n        /* \"#utility.yul\":20406:20418   */\n      revert\n        /* \"#utility.yul\":20430:20524   */\n    tag_497:\n        /* \"#utility.yul\":20463:20471   */\n      0x00\n        /* \"#utility.yul\":20511:20516   */\n      dup2\n        /* \"#utility.yul\":20507:20509   */\n      0x60\n        /* \"#utility.yul\":20503:20517   */\n      shl\n        /* \"#utility.yul\":20482:20517   */\n      swap1\n      pop\n        /* \"#utility.yul\":20430:20524   */\n      swap2\n      swap1\n      pop\n      jump\t// out\n        /* \"#utility.yul\":20530:20755   */\n    tag_379:\n        /* \"#utility.yul\":20670:20704   */\n      0x4f776e61626c653a206e6577206f776e657220697320746865207a65726f2061\n        /* \"#utility.yul\":20666:20667   */\n      0x00\n        /* \"#utility.yul\":20658:20664   */\n      dup3\n        /* \"#utility.yul\":20654:20668   */\n      add\n        /* \"#utility.yul\":20647:20705   */\n      mstore\n        /* \"#utility.yul\":20739:20747   */\n      0x6464726573730000000000000000000000000000000000000000000000000000\n        /* \"#utility.yul\":20734:20736   */\n      0x20\n        /* \"#utility.yul\":20726:20732   */\n      dup3\n        /* \"#utility.yul\":20722:20737   */\n      add\n        /* \"#utility.yul\":20715:20748   */\n      mstore\n        /* \"#utility.yul\":20530:20755   */\n      pop\n      jump\t// out\n        /* \"#utility.yul\":20761:20935   */\n    tag_384:\n        /* \"#utility.yul\":20901:20927   */\n      0x4e6f7420656e6f7567682066756e647320746f20647261770000000000000000\n        /* \"#utility.yul\":20897:20898   */\n      0x00\n        /* \"#utility.yul\":20889:20895   */\n      dup3\n        /* \"#utility.yul\":20885:20899   */\n      add\n        /* \"#utility.yul\":20878:20928   */\n      mstore\n        /* \"#utility.yul\":20761:20935   */\n      pop\n      jump\t// out\n        /* \"#utility.yul\":20941:21123   */\n    tag_389:\n        /* \"#utility.yul\":21081:21115   */\n      0x4f776e61626c653a2063616c6c6572206973206e6f7420746865206f776e6572\n        /* \"#utility.yul\":21077:21078   */\n      0x00\n        /* \"#utility.yul\":21069:21075   */\n      dup3\n        /* \"#utility.yul\":21065:21079   */\n      add\n        /* \"#utility.yul\":21058:21116   */\n      mstore\n        /* \"#utility.yul\":20941:21123   */\n      pop\n      jump\t// out\n        /* \"#utility.yul\":21129:21251   */\n    tag_256:\n        /* \"#utility.yul\":21202:21226   */\n      tag_517\n        /* \"#utility.yul\":21220:21225   */\n      dup2\n        /* \"#utility.yul\":21202:21226   */\n      tag_311\n      jump\t// in\n    tag_517:\n        /* \"#utility.yul\":21195:21200   */\n      dup2\n        /* \"#utility.yul\":21192:21227   */\n      eq\n        /* \"#utility.yul\":21182:21245   */\n      tag_518\n      jumpi\n        /* \"#utility.yul\":21241:21242   */\n      0x00\n        /* \"#utility.yul\":21238:21239   */\n      dup1\n        /* \"#utility.yul\":21231:21243   */\n      revert\n        /* \"#utility.yul\":21182:21245   */\n    tag_518:\n        /* \"#utility.yul\":21129:21251   */\n      pop\n      jump\t// out\n        /* \"#utility.yul\":21257:21373   */\n    tag_263:\n        /* \"#utility.yul\":21327:21348   */\n      tag_520\n        /* \"#utility.yul\":21342:21347   */\n      dup2\n        /* \"#utility.yul\":21327:21348   */\n      tag_472\n      jump\t// in\n    tag_520:\n        /* \"#utility.yul\":21320:21325   */\n      dup2\n        /* \"#utility.yul\":21317:21349   */\n      eq\n        /* \"#utility.yul\":21307:21367   */\n      tag_521\n      jumpi\n        /* \"#utility.yul\":21363:21364   */\n      0x00\n        /* \"#utility.yul\":21360:21361   */\n      dup1\n        /* \"#utility.yul\":21353:21365   */\n      revert\n        /* \"#utility.yul\":21307:21367   */\n    tag_521:\n        /* \"#utility.yul\":21257:21373   */\n      pop\n      jump\t// out\n        /* \"#utility.yul\":21379:21501   */\n    tag_267:\n        /* \"#utility.yul\":21452:21476   */\n      tag_523\n        /* \"#utility.yul\":21470:21475   */\n      dup2\n        /* \"#utility.yul\":21452:21476   */\n      tag_398\n      jump\t// in\n    tag_523:\n        /* \"#utility.yul\":21445:21450   */\n      dup2\n        /* \"#utility.yul\":21442:21477   */\n      eq\n        /* \"#utility.yul\":21432:21495   */\n      tag_524\n      jumpi\n        /* \"#utility.yul\":21491:21492   */\n      0x00\n        /* \"#utility.yul\":21488:21489   */\n      dup1\n        /* \"#utility.yul\":21481:21493   */\n      revert\n        /* \"#utility.yul\":21432:21495   */\n    tag_524:\n        /* \"#utility.yul\":21379:21501   */\n      pop\n      jump\t// out\n\n    auxdata: 0xa26469706673582212206846cfb3c989f5a0acddb331c4eeb698d171fc63678c4e30a12afc5526928d0564736f6c63430008070033\n}\n",
				"bytecode": {
					"linkReferences": {},
					"object": "6080604052670de0b6b3a76400006003553480156200001d57600080fd5b50604051620022af380380620022af8339818101604052810190620000439190620001d0565b6200006362000057620000ed60201b60201c565b620000f560201b60201c565b81600460006101000a81548173ffffffffffffffffffffffffffffffffffffffff021916908373ffffffffffffffffffffffffffffffffffffffff16021790555080600560006101000a81548173ffffffffffffffffffffffffffffffffffffffff021916908373ffffffffffffffffffffffffffffffffffffffff16021790555050506200026a565b600033905090565b60008060009054906101000a900473ffffffffffffffffffffffffffffffffffffffff169050816000806101000a81548173ffffffffffffffffffffffffffffffffffffffff021916908373ffffffffffffffffffffffffffffffffffffffff1602179055508173ffffffffffffffffffffffffffffffffffffffff168173ffffffffffffffffffffffffffffffffffffffff167f8be0079c531659141344cd1fd0a4f28419497f9722a3daafe3b4186f6b6457e060405160405180910390a35050565b600081519050620001ca8162000250565b92915050565b60008060408385031215620001ea57620001e96200024b565b5b6000620001fa85828601620001b9565b92505060206200020d85828601620001b9565b9150509250929050565b600062000224826200022b565b9050919050565b600073ffffffffffffffffffffffffffffffffffffffff82169050919050565b600080fd5b6200025b8162000217565b81146200026757600080fd5b50565b612035806200027a6000396000f3fe608060405234801561001057600080fd5b506004361061010b5760003560e01c80637ad3def2116100a2578063aeb1835011610071578063aeb1835014610277578063bc15cdf014610295578063f2fde38b146102c5578063f80fb76d146102e1578063f9cee0bd146102fd5761010b565b80637ad3def2146101d95780638da5cb5b146101f55780639f10a99014610213578063ac128f4f146102435761010b565b80633b98bc65116100de5780633b98bc6514610188578063454f7b8f146101a75780635d495aea146101c5578063715018a6146101cf5761010b565b8063119b22b314610110578063158977de1461012e57806317be85c31461014c5780633013ce291461016a575b600080fd5b61011861031b565b6040516101259190611b4d565b60405180910390f35b610136610321565b6040516101439190611b4d565b60405180910390f35b610154610560565b6040516101619190611b4d565b60405180910390f35b610172610607565b60405161017f9190611ab7565b60405180910390f35b61019061062d565b60405161019e929190611a5e565b60405180910390f35b6101af61098a565b6040516101bc9190611b4d565b60405180910390f35b6101cd610990565b005b6101d7610e54565b005b6101f360048036038101906101ee91906115b8565b610edc565b005b6101fd610f9c565b60405161020a91906119f1565b60405180910390f35b61022d600480360381019061022891906115b8565b610fc5565b60405161023a9190611b4d565b60405180910390f35b61025d6004803603810190610258919061163f565b611079565b60405161026e959493929190611b68565b60405180910390f35b61027f6110cf565b60405161028c9190611ad2565b60405180910390f35b6102af60048036038101906102aa9190611699565b6110f5565b6040516102bc9190611a95565b60405180910390f35b6102df60048036038101906102da91906115b8565b611281565b005b6102fb60048036038101906102f6919061163f565b611379565b005b6103056113ff565b6040516103129190611b4d565b60405180910390f35b60015481565b600080600560009054906101000a900473ffffffffffffffffffffffffffffffffffffffff1673ffffffffffffffffffffffffffffffffffffffff166318160ddd6040518163ffffffff1660e01b815260040160206040518083038186803b15801561038c57600080fd5b505afa1580156103a0573d6000803e3d6000fd5b505050506040513d601f19601f820116820180604052508101906103c4919061166c565b90506000600190505b81811161055b576000600560009054906101000a900473ffffffffffffffffffffffffffffffffffffffff1673ffffffffffffffffffffffffffffffffffffffff16636352211e836040518263ffffffff1660e01b81526004016104319190611b4d565b60206040518083038186803b15801561044957600080fd5b505afa15801561045d573d6000803e3d6000fd5b505050506040513d601f19601f8201168201806040525081019061048191906115e5565b9050600560009054906101000a900473ffffffffffffffffffffffffffffffffffffffff1673ffffffffffffffffffffffffffffffffffffffff16632f745c598260006040518363ffffffff1660e01b81526004016104e1929190611a0c565b60206040518083038186803b1580156104f957600080fd5b505afa15801561050d573d6000803e3d6000fd5b505050506040513d601f19601f82011682018060405250810190610531919061166c565b82141561054757838061054390611da3565b9450505b50808061055390611da3565b9150506103cd565b505090565b6000600560009054906101000a900473ffffffffffffffffffffffffffffffffffffffff1673ffffffffffffffffffffffffffffffffffffffff166318160ddd6040518163ffffffff1660e01b815260040160206040518083038186803b1580156105ca57600080fd5b505afa1580156105de573d6000803e3d6000fd5b505050506040513d601f19601f82011682018060405250810190610602919061166c565b905090565b600460009054906101000a900473ffffffffffffffffffffffffffffffffffffffff1681565b6060806000600560009054906101000a900473ffffffffffffffffffffffffffffffffffffffff1673ffffffffffffffffffffffffffffffffffffffff166318160ddd6040518163ffffffff1660e01b815260040160206040518083038186803b15801561069a57600080fd5b505afa1580156106ae573d6000803e3d6000fd5b505050506040513d601f19601f820116820180604052508101906106d2919061166c565b905060006106de610321565b90508067ffffffffffffffff8111156106fa576106f9611ed8565b5b6040519080825280602002602001820160405280156107285781602001602082028036833780820191505090505b5093508067ffffffffffffffff81111561074557610744611ed8565b5b6040519080825280602002602001820160405280156107735781602001602082028036833780820191505090505b509250600080600190505b838111610982576000600560009054906101000a900473ffffffffffffffffffffffffffffffffffffffff1673ffffffffffffffffffffffffffffffffffffffff16636352211e836040518263ffffffff1660e01b81526004016107e29190611b4d565b60206040518083038186803b1580156107fa57600080fd5b505afa15801561080e573d6000803e3d6000fd5b505050506040513d601f19601f8201168201806040525081019061083291906115e5565b9050600560009054906101000a900473ffffffffffffffffffffffffffffffffffffffff1673ffffffffffffffffffffffffffffffffffffffff16632f745c598260006040518363ffffffff1660e01b8152600401610892929190611a0c565b60206040518083038186803b1580156108aa57600080fd5b505afa1580156108be573d6000803e3d6000fd5b505050506040513d601f19601f820116820180604052508101906108e2919061166c565b82141561096e57808784815181106108fd576108fc611ea9565b5b602002602001019073ffffffffffffffffffffffffffffffffffffffff16908173ffffffffffffffffffffffffffffffffffffffff168152505061094081610fc5565b86848151811061095357610952611ea9565b5b602002602001018181525050828061096a90611da3565b9350505b50808061097a90611da3565b91505061077e565b505050509091565b60025481565b610998611405565b73ffffffffffffffffffffffffffffffffffffffff166109b6610f9c565b73ffffffffffffffffffffffffffffffffffffffff1614610a0c576040517f08c379a0000000000000000000000000000000000000000000000000000000008152600401610a0390611b2d565b60405180910390fd5b600060035490506000600460009054906101000a900473ffffffffffffffffffffffffffffffffffffffff1673ffffffffffffffffffffffffffffffffffffffff166370a08231306040518263ffffffff1660e01b8152600401610a7091906119f1565b60206040518083038186803b158015610a8857600080fd5b505afa158015610a9c573d6000803e3d6000fd5b505050506040513d601f19601f82011682018060405250810190610ac0919061166c565b905081811015610b05576040517f08c379a0000000000000000000000000000000000000000000000000000000008152600401610afc90611b0d565b60405180910390fd5b6000600560009054906101000a900473ffffffffffffffffffffffffffffffffffffffff1673ffffffffffffffffffffffffffffffffffffffff166318160ddd6040518163ffffffff1660e01b815260040160206040518083038186803b158015610b6f57600080fd5b505afa158015610b83573d6000803e3d6000fd5b505050506040513d601f19601f82011682018060405250810190610ba7919061166c565b9050600081610bb461140d565b610bbe9190611e1a565b90506000600560009054906101000a900473ffffffffffffffffffffffffffffffffffffffff1673ffffffffffffffffffffffffffffffffffffffff16636352211e836040518263ffffffff1660e01b8152600401610c1d9190611b4d565b60206040518083038186803b158015610c3557600080fd5b505afa158015610c49573d6000803e3d6000fd5b505050506040513d601f19601f82011682018060405250810190610c6d91906115e5565b90506040518060a001604052808481526020018381526020018681526020014281526020018273ffffffffffffffffffffffffffffffffffffffff168152506006600060015481526020019081526020016000206000820151816000015560208201518160010155604082015181600201556060820151816003015560808201518160040160006101000a81548173ffffffffffffffffffffffffffffffffffffffff021916908373ffffffffffffffffffffffffffffffffffffffff1602179055509050508460026000828254610d459190611c77565b9250508190555060016000815480929190610d5f90611da3565b9190505550600460009054906101000a900473ffffffffffffffffffffffffffffffffffffffff1673ffffffffffffffffffffffffffffffffffffffff1663a9059cbb82876040518363ffffffff1660e01b8152600401610dc1929190611a35565b602060405180830381600087803b158015610ddb57600080fd5b505af1158015610def573d6000803e3d6000fd5b505050506040513d601f19601f82011682018060405250810190610e139190611612565b507f2e798dd4337e515c79b64c40e1a93baa1aefbd9180ac7905e02508edd7971e508186604051610e45929190611a35565b60405180910390a15050505050565b610e5c611405565b73ffffffffffffffffffffffffffffffffffffffff16610e7a610f9c565b73ffffffffffffffffffffffffffffffffffffffff1614610ed0576040517f08c379a0000000000000000000000000000000000000000000000000000000008152600401610ec790611b2d565b60405180910390fd5b610eda6000611446565b565b610ee4611405565b73ffffffffffffffffffffffffffffffffffffffff16610f02610f9c565b73ffffffffffffffffffffffffffffffffffffffff1614610f58576040517f08c379a0000000000000000000000000000000000000000000000000000000008152600401610f4f90611b2d565b60405180910390fd5b80600460006101000a81548173ffffffffffffffffffffffffffffffffffffffff021916908373ffffffffffffffffffffffffffffffffffffffff16021790555050565b60008060009054906101000a900473ffffffffffffffffffffffffffffffffffffffff16905090565b6000600560009054906101000a900473ffffffffffffffffffffffffffffffffffffffff1673ffffffffffffffffffffffffffffffffffffffff166370a08231836040518263ffffffff1660e01b815260040161102291906119f1565b60206040518083038186803b15801561103a57600080fd5b505afa15801561104e573d6000803e3d6000fd5b505050506040513d601f19601f82011682018060405250810190611072919061166c565b9050919050565b60066020528060005260406000206000915090508060000154908060010154908060020154908060030154908060040160009054906101000a900473ffffffffffffffffffffffffffffffffffffffff16905085565b600560009054906101000a900473ffffffffffffffffffffffffffffffffffffffff1681565b60606001548210611111576001805461110e9190611ccd565b91505b6000600184846111219190611ccd565b61112b9190611c77565b905060008167ffffffffffffffff81111561114957611148611ed8565b5b60405190808252806020026020018201604052801561118257816020015b61116f61150a565b8152602001906001900390816111675790505b50925060008590505b848111611278576006600082886111a29190611c77565b81526020019081526020016000206040518060a0016040529081600082015481526020016001820154815260200160028201548152602001600382015481526020016004820160009054906101000a900473ffffffffffffffffffffffffffffffffffffffff1673ffffffffffffffffffffffffffffffffffffffff1673ffffffffffffffffffffffffffffffffffffffff168152505084838151811061124c5761124b611ea9565b5b6020026020010181905250818061126290611da3565b925050808061127090611da3565b91505061118b565b50505092915050565b611289611405565b73ffffffffffffffffffffffffffffffffffffffff166112a7610f9c565b73ffffffffffffffffffffffffffffffffffffffff16146112fd576040517f08c379a00000000000000000000000000000000000000000000000000000000081526004016112f490611b2d565b60405180910390fd5b600073ffffffffffffffffffffffffffffffffffffffff168173ffffffffffffffffffffffffffffffffffffffff16141561136d576040517f08c379a000000000000000000000000000000000000000000000000000000000815260040161136490611aed565b60405180910390fd5b61137681611446565b50565b611381611405565b73ffffffffffffffffffffffffffffffffffffffff1661139f610f9c565b73ffffffffffffffffffffffffffffffffffffffff16146113f5576040517f08c379a00000000000000000000000000000000000000000000000000000000081526004016113ec90611b2d565b60405180910390fd5b8060038190555050565b60035481565b600033905090565b6000425a3360025460405160200161142894939291906119a3565b6040516020818303038152906040528051906020012060001c905090565b60008060009054906101000a900473ffffffffffffffffffffffffffffffffffffffff169050816000806101000a81548173ffffffffffffffffffffffffffffffffffffffff021916908373ffffffffffffffffffffffffffffffffffffffff1602179055508173ffffffffffffffffffffffffffffffffffffffff168173ffffffffffffffffffffffffffffffffffffffff167f8be0079c531659141344cd1fd0a4f28419497f9722a3daafe3b4186f6b6457e060405160405180910390a35050565b6040518060a0016040528060008152602001600081526020016000815260200160008152602001600073ffffffffffffffffffffffffffffffffffffffff1681525090565b60008135905061155e81611fba565b92915050565b60008151905061157381611fba565b92915050565b60008151905061158881611fd1565b92915050565b60008135905061159d81611fe8565b92915050565b6000815190506115b281611fe8565b92915050565b6000602082840312156115ce576115cd611f07565b5b60006115dc8482850161154f565b91505092915050565b6000602082840312156115fb576115fa611f07565b5b600061160984828501611564565b91505092915050565b60006020828403121561162857611627611f07565b5b600061163684828501611579565b91505092915050565b60006020828403121561165557611654611f07565b5b60006116638482850161158e565b91505092915050565b60006020828403121561168257611681611f07565b5b6000611690848285016115a3565b91505092915050565b600080604083850312156116b0576116af611f07565b5b60006116be8582860161158e565b92505060206116cf8582860161158e565b9150509250929050565b60006116e58383611721565b60208301905092915050565b60006116fd8383611906565b60a08301905092915050565b6000611715838361196e565b60208301905092915050565b61172a81611d01565b82525050565b61173981611d01565b82525050565b61175061174b82611d01565b611dec565b82525050565b600061176182611beb565b61176b8185611c33565b935061177683611bbb565b8060005b838110156117a757815161178e88826116d9565b975061179983611c0c565b92505060018101905061177a565b5085935050505092915050565b60006117bf82611bf6565b6117c98185611c44565b93506117d483611bcb565b8060005b838110156118055781516117ec88826116f1565b97506117f783611c19565b9250506001810190506117d8565b5085935050505092915050565b600061181d82611c01565b6118278185611c55565b935061183283611bdb565b8060005b8381101561186357815161184a8882611709565b975061185583611c26565b925050600181019050611836565b5085935050505092915050565b61187981611d49565b82525050565b61188881611d5b565b82525050565b61189781611d6d565b82525050565b60006118aa602683611c66565b91506118b582611f19565b604082019050919050565b60006118cd601883611c66565b91506118d882611f68565b602082019050919050565b60006118f0602083611c66565b91506118fb82611f91565b602082019050919050565b60a08201600082015161191c600085018261196e565b50602082015161192f602085018261196e565b506040820151611942604085018261196e565b506060820151611955606085018261196e565b5060808201516119686080850182611721565b50505050565b61197781611d3f565b82525050565b61198681611d3f565b82525050565b61199d61199882611d3f565b611e10565b82525050565b60006119af828761198c565b6020820191506119bf828661198c565b6020820191506119cf828561173f565b6014820191506119df828461198c565b60208201915081905095945050505050565b6000602082019050611a066000830184611730565b92915050565b6000604082019050611a216000830185611730565b611a2e602083018461188e565b9392505050565b6000604082019050611a4a6000830185611730565b611a57602083018461197d565b9392505050565b60006040820190508181036000830152611a788185611756565b90508181036020830152611a8c8184611812565b90509392505050565b60006020820190508181036000830152611aaf81846117b4565b905092915050565b6000602082019050611acc6000830184611870565b92915050565b6000602082019050611ae7600083018461187f565b92915050565b60006020820190508181036000830152611b068161189d565b9050919050565b60006020820190508181036000830152611b26816118c0565b9050919050565b60006020820190508181036000830152611b46816118e3565b9050919050565b6000602082019050611b62600083018461197d565b92915050565b600060a082019050611b7d600083018861197d565b611b8a602083018761197d565b611b97604083018661197d565b611ba4606083018561197d565b611bb16080830184611730565b9695505050505050565b6000819050602082019050919050565b6000819050602082019050919050565b6000819050602082019050919050565b600081519050919050565b600081519050919050565b600081519050919050565b6000602082019050919050565b6000602082019050919050565b6000602082019050919050565b600082825260208201905092915050565b600082825260208201905092915050565b600082825260208201905092915050565b600082825260208201905092915050565b6000611c8282611d3f565b9150611c8d83611d3f565b9250827fffffffffffffffffffffffffffffffffffffffffffffffffffffffffffffffff03821115611cc257611cc1611e4b565b5b828201905092915050565b6000611cd882611d3f565b9150611ce383611d3f565b925082821015611cf657611cf5611e4b565b5b828203905092915050565b6000611d0c82611d1f565b9050919050565b60008115159050919050565b600073ffffffffffffffffffffffffffffffffffffffff82169050919050565b6000819050919050565b6000611d5482611d7f565b9050919050565b6000611d6682611d7f565b9050919050565b6000611d7882611d3f565b9050919050565b6000611d8a82611d91565b9050919050565b6000611d9c82611d1f565b9050919050565b6000611dae82611d3f565b91507fffffffffffffffffffffffffffffffffffffffffffffffffffffffffffffffff821415611de157611de0611e4b565b5b600182019050919050565b6000611df782611dfe565b9050919050565b6000611e0982611f0c565b9050919050565b6000819050919050565b6000611e2582611d3f565b9150611e3083611d3f565b925082611e4057611e3f611e7a565b5b828206905092915050565b7f4e487b7100000000000000000000000000000000000000000000000000000000600052601160045260246000fd5b7f4e487b7100000000000000000000000000000000000000000000000000000000600052601260045260246000fd5b7f4e487b7100000000000000000000000000000000000000000000000000000000600052603260045260246000fd5b7f4e487b7100000000000000000000000000000000000000000000000000000000600052604160045260246000fd5b600080fd5b60008160601b9050919050565b7f4f776e61626c653a206e6577206f776e657220697320746865207a65726f206160008201527f6464726573730000000000000000000000000000000000000000000000000000602082015250565b7f4e6f7420656e6f7567682066756e647320746f20647261770000000000000000600082015250565b7f4f776e61626c653a2063616c6c6572206973206e6f7420746865206f776e6572600082015250565b611fc381611d01565b8114611fce57600080fd5b50565b611fda81611d13565b8114611fe557600080fd5b50565b611ff181611d3f565b8114611ffc57600080fd5b5056fea26469706673582212206846cfb3c989f5a0acddb331c4eeb698d171fc63678c4e30a12afc5526928d0564736f6c63430008070033",
					"opcodes": "PUSH1 0x80 PUSH1 0x40 MSTORE PUSH8 0xDE0B6B3A7640000 PUSH1 0x3 SSTORE CALLVALUE DUP1 ISZERO PUSH3 0x1D JUMPI PUSH1 0x0 DUP1 REVERT JUMPDEST POP PUSH1 0x40 MLOAD PUSH3 0x22AF CODESIZE SUB DUP1 PUSH3 0x22AF DUP4 CODECOPY DUP2 DUP2 ADD PUSH1 0x40 MSTORE DUP2 ADD SWAP1 PUSH3 0x43 SWAP2 SWAP1 PUSH3 0x1D0 JUMP JUMPDEST PUSH3 0x63 PUSH3 0x57 PUSH3 0xED PUSH1 0x20 SHL PUSH1 0x20 SHR JUMP JUMPDEST PUSH3 0xF5 PUSH1 0x20 SHL PUSH1 0x20 SHR JUMP JUMPDEST DUP2 PUSH1 0x4 PUSH1 0x0 PUSH2 0x100 EXP DUP2 SLOAD DUP2 PUSH20 0xFFFFFFFFFFFFFFFFFFFFFFFFFFFFFFFFFFFFFFFF MUL NOT AND SWAP1 DUP4 PUSH20 0xFFFFFFFFFFFFFFFFFFFFFFFFFFFFFFFFFFFFFFFF AND MUL OR SWAP1 SSTORE POP DUP1 PUSH1 0x5 PUSH1 0x0 PUSH2 0x100 EXP DUP2 SLOAD DUP2 PUSH20 0xFFFFFFFFFFFFFFFFFFFFFFFFFFFFFFFFFFFFFFFF MUL NOT AND SWAP1 DUP4 PUSH20 0xFFFFFFFFFFFFFFFFFFFFFFFFFFFFFFFFFFFFFFFF AND MUL OR SWAP1 SSTORE POP POP POP PUSH3 0x26A JUMP JUMPDEST PUSH1 0x0 CALLER SWAP1 POP SWAP1 JUMP JUMPDEST PUSH1 0x0 DUP1 PUSH1 0x0 SWAP1 SLOAD SWAP1 PUSH2 0x100 EXP SWAP1 DIV PUSH20 0xFFFFFFFFFFFFFFFFFFFFFFFFFFFFFFFFFFFFFFFF AND SWAP1 POP DUP2 PUSH1 0x0 DUP1 PUSH2 0x100 EXP DUP2 SLOAD DUP2 PUSH20 0xFFFFFFFFFFFFFFFFFFFFFFFFFFFFFFFFFFFFFFFF MUL NOT AND SWAP1 DUP4 PUSH20 0xFFFFFFFFFFFFFFFFFFFFFFFFFFFFFFFFFFFFFFFF AND MUL OR SWAP1 SSTORE POP DUP2 PUSH20 0xFFFFFFFFFFFFFFFFFFFFFFFFFFFFFFFFFFFFFFFF AND DUP2 PUSH20 0xFFFFFFFFFFFFFFFFFFFFFFFFFFFFFFFFFFFFFFFF AND PUSH32 0x8BE0079C531659141344CD1FD0A4F28419497F9722A3DAAFE3B4186F6B6457E0 PUSH1 0x40 MLOAD PUSH1 0x40 MLOAD DUP1 SWAP2 SUB SWAP1 LOG3 POP POP JUMP JUMPDEST PUSH1 0x0 DUP2 MLOAD SWAP1 POP PUSH3 0x1CA DUP2 PUSH3 0x250 JUMP JUMPDEST SWAP3 SWAP2 POP POP JUMP JUMPDEST PUSH1 0x0 DUP1 PUSH1 0x40 DUP4 DUP6 SUB SLT ISZERO PUSH3 0x1EA JUMPI PUSH3 0x1E9 PUSH3 0x24B JUMP JUMPDEST JUMPDEST PUSH1 0x0 PUSH3 0x1FA DUP6 DUP3 DUP7 ADD PUSH3 0x1B9 JUMP JUMPDEST SWAP3 POP POP PUSH1 0x20 PUSH3 0x20D DUP6 DUP3 DUP7 ADD PUSH3 0x1B9 JUMP JUMPDEST SWAP2 POP POP SWAP3 POP SWAP3 SWAP1 POP JUMP JUMPDEST PUSH1 0x0 PUSH3 0x224 DUP3 PUSH3 0x22B JUMP JUMPDEST SWAP1 POP SWAP2 SWAP1 POP JUMP JUMPDEST PUSH1 0x0 PUSH20 0xFFFFFFFFFFFFFFFFFFFFFFFFFFFFFFFFFFFFFFFF DUP3 AND SWAP1 POP SWAP2 SWAP1 POP JUMP JUMPDEST PUSH1 0x0 DUP1 REVERT JUMPDEST PUSH3 0x25B DUP2 PUSH3 0x217 JUMP JUMPDEST DUP2 EQ PUSH3 0x267 JUMPI PUSH1 0x0 DUP1 REVERT JUMPDEST POP JUMP JUMPDEST PUSH2 0x2035 DUP1 PUSH3 0x27A PUSH1 0x0 CODECOPY PUSH1 0x0 RETURN INVALID PUSH1 0x80 PUSH1 0x40 MSTORE CALLVALUE DUP1 ISZERO PUSH2 0x10 JUMPI PUSH1 0x0 DUP1 REVERT JUMPDEST POP PUSH1 0x4 CALLDATASIZE LT PUSH2 0x10B JUMPI PUSH1 0x0 CALLDATALOAD PUSH1 0xE0 SHR DUP1 PUSH4 0x7AD3DEF2 GT PUSH2 0xA2 JUMPI DUP1 PUSH4 0xAEB18350 GT PUSH2 0x71 JUMPI DUP1 PUSH4 0xAEB18350 EQ PUSH2 0x277 JUMPI DUP1 PUSH4 0xBC15CDF0 EQ PUSH2 0x295 JUMPI DUP1 PUSH4 0xF2FDE38B EQ PUSH2 0x2C5 JUMPI DUP1 PUSH4 0xF80FB76D EQ PUSH2 0x2E1 JUMPI DUP1 PUSH4 0xF9CEE0BD EQ PUSH2 0x2FD JUMPI PUSH2 0x10B JUMP JUMPDEST DUP1 PUSH4 0x7AD3DEF2 EQ PUSH2 0x1D9 JUMPI DUP1 PUSH4 0x8DA5CB5B EQ PUSH2 0x1F5 JUMPI DUP1 PUSH4 0x9F10A990 EQ PUSH2 0x213 JUMPI DUP1 PUSH4 0xAC128F4F EQ PUSH2 0x243 JUMPI PUSH2 0x10B JUMP JUMPDEST DUP1 PUSH4 0x3B98BC65 GT PUSH2 0xDE JUMPI DUP1 PUSH4 0x3B98BC65 EQ PUSH2 0x188 JUMPI DUP1 PUSH4 0x454F7B8F EQ PUSH2 0x1A7 JUMPI DUP1 PUSH4 0x5D495AEA EQ PUSH2 0x1C5 JUMPI DUP1 PUSH4 0x715018A6 EQ PUSH2 0x1CF JUMPI PUSH2 0x10B JUMP JUMPDEST DUP1 PUSH4 0x119B22B3 EQ PUSH2 0x110 JUMPI DUP1 PUSH4 0x158977DE EQ PUSH2 0x12E JUMPI DUP1 PUSH4 0x17BE85C3 EQ PUSH2 0x14C JUMPI DUP1 PUSH4 0x3013CE29 EQ PUSH2 0x16A JUMPI JUMPDEST PUSH1 0x0 DUP1 REVERT JUMPDEST PUSH2 0x118 PUSH2 0x31B JUMP JUMPDEST PUSH1 0x40 MLOAD PUSH2 0x125 SWAP2 SWAP1 PUSH2 0x1B4D JUMP JUMPDEST PUSH1 0x40 MLOAD DUP1 SWAP2 SUB SWAP1 RETURN JUMPDEST PUSH2 0x136 PUSH2 0x321 JUMP JUMPDEST PUSH1 0x40 MLOAD PUSH2 0x143 SWAP2 SWAP1 PUSH2 0x1B4D JUMP JUMPDEST PUSH1 0x40 MLOAD DUP1 SWAP2 SUB SWAP1 RETURN JUMPDEST PUSH2 0x154 PUSH2 0x560 JUMP JUMPDEST PUSH1 0x40 MLOAD PUSH2 0x161 SWAP2 SWAP1 PUSH2 0x1B4D JUMP JUMPDEST PUSH1 0x40 MLOAD DUP1 SWAP2 SUB SWAP1 RETURN JUMPDEST PUSH2 0x172 PUSH2 0x607 JUMP JUMPDEST PUSH1 0x40 MLOAD PUSH2 0x17F SWAP2 SWAP1 PUSH2 0x1AB7 JUMP JUMPDEST PUSH1 0x40 MLOAD DUP1 SWAP2 SUB SWAP1 RETURN JUMPDEST PUSH2 0x190 PUSH2 0x62D JUMP JUMPDEST PUSH1 0x40 MLOAD PUSH2 0x19E SWAP3 SWAP2 SWAP1 PUSH2 0x1A5E JUMP JUMPDEST PUSH1 0x40 MLOAD DUP1 SWAP2 SUB SWAP1 RETURN JUMPDEST PUSH2 0x1AF PUSH2 0x98A JUMP JUMPDEST PUSH1 0x40 MLOAD PUSH2 0x1BC SWAP2 SWAP1 PUSH2 0x1B4D JUMP JUMPDEST PUSH1 0x40 MLOAD DUP1 SWAP2 SUB SWAP1 RETURN JUMPDEST PUSH2 0x1CD PUSH2 0x990 JUMP JUMPDEST STOP JUMPDEST PUSH2 0x1D7 PUSH2 0xE54 JUMP JUMPDEST STOP JUMPDEST PUSH2 0x1F3 PUSH1 0x4 DUP1 CALLDATASIZE SUB DUP2 ADD SWAP1 PUSH2 0x1EE SWAP2 SWAP1 PUSH2 0x15B8 JUMP JUMPDEST PUSH2 0xEDC JUMP JUMPDEST STOP JUMPDEST PUSH2 0x1FD PUSH2 0xF9C JUMP JUMPDEST PUSH1 0x40 MLOAD PUSH2 0x20A SWAP2 SWAP1 PUSH2 0x19F1 JUMP JUMPDEST PUSH1 0x40 MLOAD DUP1 SWAP2 SUB SWAP1 RETURN JUMPDEST PUSH2 0x22D PUSH1 0x4 DUP1 CALLDATASIZE SUB DUP2 ADD SWAP1 PUSH2 0x228 SWAP2 SWAP1 PUSH2 0x15B8 JUMP JUMPDEST PUSH2 0xFC5 JUMP JUMPDEST PUSH1 0x40 MLOAD PUSH2 0x23A SWAP2 SWAP1 PUSH2 0x1B4D JUMP JUMPDEST PUSH1 0x40 MLOAD DUP1 SWAP2 SUB SWAP1 RETURN JUMPDEST PUSH2 0x25D PUSH1 0x4 DUP1 CALLDATASIZE SUB DUP2 ADD SWAP1 PUSH2 0x258 SWAP2 SWAP1 PUSH2 0x163F JUMP JUMPDEST PUSH2 0x1079 JUMP JUMPDEST PUSH1 0x40 MLOAD PUSH2 0x26E SWAP6 SWAP5 SWAP4 SWAP3 SWAP2 SWAP1 PUSH2 0x1B68 JUMP JUMPDEST PUSH1 0x40 MLOAD DUP1 SWAP2 SUB SWAP1 RETURN JUMPDEST PUSH2 0x27F PUSH2 0x10CF JUMP JUMPDEST PUSH1 0x40 MLOAD PUSH2 0x28C SWAP2 SWAP1 PUSH2 0x1AD2 JUMP JUMPDEST PUSH1 0x40 MLOAD DUP1 SWAP2 SUB SWAP1 RETURN JUMPDEST PUSH2 0x2AF PUSH1 0x4 DUP1 CALLDATASIZE SUB DUP2 ADD SWAP1 PUSH2 0x2AA SWAP2 SWAP1 PUSH2 0x1699 JUMP JUMPDEST PUSH2 0x10F5 JUMP JUMPDEST PUSH1 0x40 MLOAD PUSH2 0x2BC SWAP2 SWAP1 PUSH2 0x1A95 JUMP JUMPDEST PUSH1 0x40 MLOAD DUP1 SWAP2 SUB SWAP1 RETURN JUMPDEST PUSH2 0x2DF PUSH1 0x4 DUP1 CALLDATASIZE SUB DUP2 ADD SWAP1 PUSH2 0x2DA SWAP2 SWAP1 PUSH2 0x15B8 JUMP JUMPDEST PUSH2 0x1281 JUMP JUMPDEST STOP JUMPDEST PUSH2 0x2FB PUSH1 0x4 DUP1 CALLDATASIZE SUB DUP2 ADD SWAP1 PUSH2 0x2F6 SWAP2 SWAP1 PUSH2 0x163F JUMP JUMPDEST PUSH2 0x1379 JUMP JUMPDEST STOP JUMPDEST PUSH2 0x305 PUSH2 0x13FF JUMP JUMPDEST PUSH1 0x40 MLOAD PUSH2 0x312 SWAP2 SWAP1 PUSH2 0x1B4D JUMP JUMPDEST PUSH1 0x40 MLOAD DUP1 SWAP2 SUB SWAP1 RETURN JUMPDEST PUSH1 0x1 SLOAD DUP2 JUMP JUMPDEST PUSH1 0x0 DUP1 PUSH1 0x5 PUSH1 0x0 SWAP1 SLOAD SWAP1 PUSH2 0x100 EXP SWAP1 DIV PUSH20 0xFFFFFFFFFFFFFFFFFFFFFFFFFFFFFFFFFFFFFFFF AND PUSH20 0xFFFFFFFFFFFFFFFFFFFFFFFFFFFFFFFFFFFFFFFF AND PUSH4 0x18160DDD PUSH1 0x40 MLOAD DUP2 PUSH4 0xFFFFFFFF AND PUSH1 0xE0 SHL DUP2 MSTORE PUSH1 0x4 ADD PUSH1 0x20 PUSH1 0x40 MLOAD DUP1 DUP4 SUB DUP2 DUP7 DUP1 EXTCODESIZE ISZERO DUP1 ISZERO PUSH2 0x38C JUMPI PUSH1 0x0 DUP1 REVERT JUMPDEST POP GAS STATICCALL ISZERO DUP1 ISZERO PUSH2 0x3A0 JUMPI RETURNDATASIZE PUSH1 0x0 DUP1 RETURNDATACOPY RETURNDATASIZE PUSH1 0x0 REVERT JUMPDEST POP POP POP POP PUSH1 0x40 MLOAD RETURNDATASIZE PUSH1 0x1F NOT PUSH1 0x1F DUP3 ADD AND DUP3 ADD DUP1 PUSH1 0x40 MSTORE POP DUP2 ADD SWAP1 PUSH2 0x3C4 SWAP2 SWAP1 PUSH2 0x166C JUMP JUMPDEST SWAP1 POP PUSH1 0x0 PUSH1 0x1 SWAP1 POP JUMPDEST DUP2 DUP2 GT PUSH2 0x55B JUMPI PUSH1 0x0 PUSH1 0x5 PUSH1 0x0 SWAP1 SLOAD SWAP1 PUSH2 0x100 EXP SWAP1 DIV PUSH20 0xFFFFFFFFFFFFFFFFFFFFFFFFFFFFFFFFFFFFFFFF AND PUSH20 0xFFFFFFFFFFFFFFFFFFFFFFFFFFFFFFFFFFFFFFFF AND PUSH4 0x6352211E DUP4 PUSH1 0x40 MLOAD DUP3 PUSH4 0xFFFFFFFF AND PUSH1 0xE0 SHL DUP2 MSTORE PUSH1 0x4 ADD PUSH2 0x431 SWAP2 SWAP1 PUSH2 0x1B4D JUMP JUMPDEST PUSH1 0x20 PUSH1 0x40 MLOAD DUP1 DUP4 SUB DUP2 DUP7 DUP1 EXTCODESIZE ISZERO DUP1 ISZERO PUSH2 0x449 JUMPI PUSH1 0x0 DUP1 REVERT JUMPDEST POP GAS STATICCALL ISZERO DUP1 ISZERO PUSH2 0x45D JUMPI RETURNDATASIZE PUSH1 0x0 DUP1 RETURNDATACOPY RETURNDATASIZE PUSH1 0x0 REVERT JUMPDEST POP POP POP POP PUSH1 0x40 MLOAD RETURNDATASIZE PUSH1 0x1F NOT PUSH1 0x1F DUP3 ADD AND DUP3 ADD DUP1 PUSH1 0x40 MSTORE POP DUP2 ADD SWAP1 PUSH2 0x481 SWAP2 SWAP1 PUSH2 0x15E5 JUMP JUMPDEST SWAP1 POP PUSH1 0x5 PUSH1 0x0 SWAP1 SLOAD SWAP1 PUSH2 0x100 EXP SWAP1 DIV PUSH20 0xFFFFFFFFFFFFFFFFFFFFFFFFFFFFFFFFFFFFFFFF AND PUSH20 0xFFFFFFFFFFFFFFFFFFFFFFFFFFFFFFFFFFFFFFFF AND PUSH4 0x2F745C59 DUP3 PUSH1 0x0 PUSH1 0x40 MLOAD DUP4 PUSH4 0xFFFFFFFF AND PUSH1 0xE0 SHL DUP2 MSTORE PUSH1 0x4 ADD PUSH2 0x4E1 SWAP3 SWAP2 SWAP1 PUSH2 0x1A0C JUMP JUMPDEST PUSH1 0x20 PUSH1 0x40 MLOAD DUP1 DUP4 SUB DUP2 DUP7 DUP1 EXTCODESIZE ISZERO DUP1 ISZERO PUSH2 0x4F9 JUMPI PUSH1 0x0 DUP1 REVERT JUMPDEST POP GAS STATICCALL ISZERO DUP1 ISZERO PUSH2 0x50D JUMPI RETURNDATASIZE PUSH1 0x0 DUP1 RETURNDATACOPY RETURNDATASIZE PUSH1 0x0 REVERT JUMPDEST POP POP POP POP PUSH1 0x40 MLOAD RETURNDATASIZE PUSH1 0x1F NOT PUSH1 0x1F DUP3 ADD AND DUP3 ADD DUP1 PUSH1 0x40 MSTORE POP DUP2 ADD SWAP1 PUSH2 0x531 SWAP2 SWAP1 PUSH2 0x166C JUMP JUMPDEST DUP3 EQ ISZERO PUSH2 0x547 JUMPI DUP4 DUP1 PUSH2 0x543 SWAP1 PUSH2 0x1DA3 JUMP JUMPDEST SWAP5 POP POP JUMPDEST POP DUP1 DUP1 PUSH2 0x553 SWAP1 PUSH2 0x1DA3 JUMP JUMPDEST SWAP2 POP POP PUSH2 0x3CD JUMP JUMPDEST POP POP SWAP1 JUMP JUMPDEST PUSH1 0x0 PUSH1 0x5 PUSH1 0x0 SWAP1 SLOAD SWAP1 PUSH2 0x100 EXP SWAP1 DIV PUSH20 0xFFFFFFFFFFFFFFFFFFFFFFFFFFFFFFFFFFFFFFFF AND PUSH20 0xFFFFFFFFFFFFFFFFFFFFFFFFFFFFFFFFFFFFFFFF AND PUSH4 0x18160DDD PUSH1 0x40 MLOAD DUP2 PUSH4 0xFFFFFFFF AND PUSH1 0xE0 SHL DUP2 MSTORE PUSH1 0x4 ADD PUSH1 0x20 PUSH1 0x40 MLOAD DUP1 DUP4 SUB DUP2 DUP7 DUP1 EXTCODESIZE ISZERO DUP1 ISZERO PUSH2 0x5CA JUMPI PUSH1 0x0 DUP1 REVERT JUMPDEST POP GAS STATICCALL ISZERO DUP1 ISZERO PUSH2 0x5DE JUMPI RETURNDATASIZE PUSH1 0x0 DUP1 RETURNDATACOPY RETURNDATASIZE PUSH1 0x0 REVERT JUMPDEST POP POP POP POP PUSH1 0x40 MLOAD RETURNDATASIZE PUSH1 0x1F NOT PUSH1 0x1F DUP3 ADD AND DUP3 ADD DUP1 PUSH1 0x40 MSTORE POP DUP2 ADD SWAP1 PUSH2 0x602 SWAP2 SWAP1 PUSH2 0x166C JUMP JUMPDEST SWAP1 POP SWAP1 JUMP JUMPDEST PUSH1 0x4 PUSH1 0x0 SWAP1 SLOAD SWAP1 PUSH2 0x100 EXP SWAP1 DIV PUSH20 0xFFFFFFFFFFFFFFFFFFFFFFFFFFFFFFFFFFFFFFFF AND DUP2 JUMP JUMPDEST PUSH1 0x60 DUP1 PUSH1 0x0 PUSH1 0x5 PUSH1 0x0 SWAP1 SLOAD SWAP1 PUSH2 0x100 EXP SWAP1 DIV PUSH20 0xFFFFFFFFFFFFFFFFFFFFFFFFFFFFFFFFFFFFFFFF AND PUSH20 0xFFFFFFFFFFFFFFFFFFFFFFFFFFFFFFFFFFFFFFFF AND PUSH4 0x18160DDD PUSH1 0x40 MLOAD DUP2 PUSH4 0xFFFFFFFF AND PUSH1 0xE0 SHL DUP2 MSTORE PUSH1 0x4 ADD PUSH1 0x20 PUSH1 0x40 MLOAD DUP1 DUP4 SUB DUP2 DUP7 DUP1 EXTCODESIZE ISZERO DUP1 ISZERO PUSH2 0x69A JUMPI PUSH1 0x0 DUP1 REVERT JUMPDEST POP GAS STATICCALL ISZERO DUP1 ISZERO PUSH2 0x6AE JUMPI RETURNDATASIZE PUSH1 0x0 DUP1 RETURNDATACOPY RETURNDATASIZE PUSH1 0x0 REVERT JUMPDEST POP POP POP POP PUSH1 0x40 MLOAD RETURNDATASIZE PUSH1 0x1F NOT PUSH1 0x1F DUP3 ADD AND DUP3 ADD DUP1 PUSH1 0x40 MSTORE POP DUP2 ADD SWAP1 PUSH2 0x6D2 SWAP2 SWAP1 PUSH2 0x166C JUMP JUMPDEST SWAP1 POP PUSH1 0x0 PUSH2 0x6DE PUSH2 0x321 JUMP JUMPDEST SWAP1 POP DUP1 PUSH8 0xFFFFFFFFFFFFFFFF DUP2 GT ISZERO PUSH2 0x6FA JUMPI PUSH2 0x6F9 PUSH2 0x1ED8 JUMP JUMPDEST JUMPDEST PUSH1 0x40 MLOAD SWAP1 DUP1 DUP3 MSTORE DUP1 PUSH1 0x20 MUL PUSH1 0x20 ADD DUP3 ADD PUSH1 0x40 MSTORE DUP1 ISZERO PUSH2 0x728 JUMPI DUP2 PUSH1 0x20 ADD PUSH1 0x20 DUP3 MUL DUP1 CALLDATASIZE DUP4 CALLDATACOPY DUP1 DUP3 ADD SWAP2 POP POP SWAP1 POP JUMPDEST POP SWAP4 POP DUP1 PUSH8 0xFFFFFFFFFFFFFFFF DUP2 GT ISZERO PUSH2 0x745 JUMPI PUSH2 0x744 PUSH2 0x1ED8 JUMP JUMPDEST JUMPDEST PUSH1 0x40 MLOAD SWAP1 DUP1 DUP3 MSTORE DUP1 PUSH1 0x20 MUL PUSH1 0x20 ADD DUP3 ADD PUSH1 0x40 MSTORE DUP1 ISZERO PUSH2 0x773 JUMPI DUP2 PUSH1 0x20 ADD PUSH1 0x20 DUP3 MUL DUP1 CALLDATASIZE DUP4 CALLDATACOPY DUP1 DUP3 ADD SWAP2 POP POP SWAP1 POP JUMPDEST POP SWAP3 POP PUSH1 0x0 DUP1 PUSH1 0x1 SWAP1 POP JUMPDEST DUP4 DUP2 GT PUSH2 0x982 JUMPI PUSH1 0x0 PUSH1 0x5 PUSH1 0x0 SWAP1 SLOAD SWAP1 PUSH2 0x100 EXP SWAP1 DIV PUSH20 0xFFFFFFFFFFFFFFFFFFFFFFFFFFFFFFFFFFFFFFFF AND PUSH20 0xFFFFFFFFFFFFFFFFFFFFFFFFFFFFFFFFFFFFFFFF AND PUSH4 0x6352211E DUP4 PUSH1 0x40 MLOAD DUP3 PUSH4 0xFFFFFFFF AND PUSH1 0xE0 SHL DUP2 MSTORE PUSH1 0x4 ADD PUSH2 0x7E2 SWAP2 SWAP1 PUSH2 0x1B4D JUMP JUMPDEST PUSH1 0x20 PUSH1 0x40 MLOAD DUP1 DUP4 SUB DUP2 DUP7 DUP1 EXTCODESIZE ISZERO DUP1 ISZERO PUSH2 0x7FA JUMPI PUSH1 0x0 DUP1 REVERT JUMPDEST POP GAS STATICCALL ISZERO DUP1 ISZERO PUSH2 0x80E JUMPI RETURNDATASIZE PUSH1 0x0 DUP1 RETURNDATACOPY RETURNDATASIZE PUSH1 0x0 REVERT JUMPDEST POP POP POP POP PUSH1 0x40 MLOAD RETURNDATASIZE PUSH1 0x1F NOT PUSH1 0x1F DUP3 ADD AND DUP3 ADD DUP1 PUSH1 0x40 MSTORE POP DUP2 ADD SWAP1 PUSH2 0x832 SWAP2 SWAP1 PUSH2 0x15E5 JUMP JUMPDEST SWAP1 POP PUSH1 0x5 PUSH1 0x0 SWAP1 SLOAD SWAP1 PUSH2 0x100 EXP SWAP1 DIV PUSH20 0xFFFFFFFFFFFFFFFFFFFFFFFFFFFFFFFFFFFFFFFF AND PUSH20 0xFFFFFFFFFFFFFFFFFFFFFFFFFFFFFFFFFFFFFFFF AND PUSH4 0x2F745C59 DUP3 PUSH1 0x0 PUSH1 0x40 MLOAD DUP4 PUSH4 0xFFFFFFFF AND PUSH1 0xE0 SHL DUP2 MSTORE PUSH1 0x4 ADD PUSH2 0x892 SWAP3 SWAP2 SWAP1 PUSH2 0x1A0C JUMP JUMPDEST PUSH1 0x20 PUSH1 0x40 MLOAD DUP1 DUP4 SUB DUP2 DUP7 DUP1 EXTCODESIZE ISZERO DUP1 ISZERO PUSH2 0x8AA JUMPI PUSH1 0x0 DUP1 REVERT JUMPDEST POP GAS STATICCALL ISZERO DUP1 ISZERO PUSH2 0x8BE JUMPI RETURNDATASIZE PUSH1 0x0 DUP1 RETURNDATACOPY RETURNDATASIZE PUSH1 0x0 REVERT JUMPDEST POP POP POP POP PUSH1 0x40 MLOAD RETURNDATASIZE PUSH1 0x1F NOT PUSH1 0x1F DUP3 ADD AND DUP3 ADD DUP1 PUSH1 0x40 MSTORE POP DUP2 ADD SWAP1 PUSH2 0x8E2 SWAP2 SWAP1 PUSH2 0x166C JUMP JUMPDEST DUP3 EQ ISZERO PUSH2 0x96E JUMPI DUP1 DUP8 DUP5 DUP2 MLOAD DUP2 LT PUSH2 0x8FD JUMPI PUSH2 0x8FC PUSH2 0x1EA9 JUMP JUMPDEST JUMPDEST PUSH1 0x20 MUL PUSH1 0x20 ADD ADD SWAP1 PUSH20 0xFFFFFFFFFFFFFFFFFFFFFFFFFFFFFFFFFFFFFFFF AND SWAP1 DUP2 PUSH20 0xFFFFFFFFFFFFFFFFFFFFFFFFFFFFFFFFFFFFFFFF AND DUP2 MSTORE POP POP PUSH2 0x940 DUP2 PUSH2 0xFC5 JUMP JUMPDEST DUP7 DUP5 DUP2 MLOAD DUP2 LT PUSH2 0x953 JUMPI PUSH2 0x952 PUSH2 0x1EA9 JUMP JUMPDEST JUMPDEST PUSH1 0x20 MUL PUSH1 0x20 ADD ADD DUP2 DUP2 MSTORE POP POP DUP3 DUP1 PUSH2 0x96A SWAP1 PUSH2 0x1DA3 JUMP JUMPDEST SWAP4 POP POP JUMPDEST POP DUP1 DUP1 PUSH2 0x97A SWAP1 PUSH2 0x1DA3 JUMP JUMPDEST SWAP2 POP POP PUSH2 0x77E JUMP JUMPDEST POP POP POP POP SWAP1 SWAP2 JUMP JUMPDEST PUSH1 0x2 SLOAD DUP2 JUMP JUMPDEST PUSH2 0x998 PUSH2 0x1405 JUMP JUMPDEST PUSH20 0xFFFFFFFFFFFFFFFFFFFFFFFFFFFFFFFFFFFFFFFF AND PUSH2 0x9B6 PUSH2 0xF9C JUMP JUMPDEST PUSH20 0xFFFFFFFFFFFFFFFFFFFFFFFFFFFFFFFFFFFFFFFF AND EQ PUSH2 0xA0C JUMPI PUSH1 0x40 MLOAD PUSH32 0x8C379A000000000000000000000000000000000000000000000000000000000 DUP2 MSTORE PUSH1 0x4 ADD PUSH2 0xA03 SWAP1 PUSH2 0x1B2D JUMP JUMPDEST PUSH1 0x40 MLOAD DUP1 SWAP2 SUB SWAP1 REVERT JUMPDEST PUSH1 0x0 PUSH1 0x3 SLOAD SWAP1 POP PUSH1 0x0 PUSH1 0x4 PUSH1 0x0 SWAP1 SLOAD SWAP1 PUSH2 0x100 EXP SWAP1 DIV PUSH20 0xFFFFFFFFFFFFFFFFFFFFFFFFFFFFFFFFFFFFFFFF AND PUSH20 0xFFFFFFFFFFFFFFFFFFFFFFFFFFFFFFFFFFFFFFFF AND PUSH4 0x70A08231 ADDRESS PUSH1 0x40 MLOAD DUP3 PUSH4 0xFFFFFFFF AND PUSH1 0xE0 SHL DUP2 MSTORE PUSH1 0x4 ADD PUSH2 0xA70 SWAP2 SWAP1 PUSH2 0x19F1 JUMP JUMPDEST PUSH1 0x20 PUSH1 0x40 MLOAD DUP1 DUP4 SUB DUP2 DUP7 DUP1 EXTCODESIZE ISZERO DUP1 ISZERO PUSH2 0xA88 JUMPI PUSH1 0x0 DUP1 REVERT JUMPDEST POP GAS STATICCALL ISZERO DUP1 ISZERO PUSH2 0xA9C JUMPI RETURNDATASIZE PUSH1 0x0 DUP1 RETURNDATACOPY RETURNDATASIZE PUSH1 0x0 REVERT JUMPDEST POP POP POP POP PUSH1 0x40 MLOAD RETURNDATASIZE PUSH1 0x1F NOT PUSH1 0x1F DUP3 ADD AND DUP3 ADD DUP1 PUSH1 0x40 MSTORE POP DUP2 ADD SWAP1 PUSH2 0xAC0 SWAP2 SWAP1 PUSH2 0x166C JUMP JUMPDEST SWAP1 POP DUP2 DUP2 LT ISZERO PUSH2 0xB05 JUMPI PUSH1 0x40 MLOAD PUSH32 0x8C379A000000000000000000000000000000000000000000000000000000000 DUP2 MSTORE PUSH1 0x4 ADD PUSH2 0xAFC SWAP1 PUSH2 0x1B0D JUMP JUMPDEST PUSH1 0x40 MLOAD DUP1 SWAP2 SUB SWAP1 REVERT JUMPDEST PUSH1 0x0 PUSH1 0x5 PUSH1 0x0 SWAP1 SLOAD SWAP1 PUSH2 0x100 EXP SWAP1 DIV PUSH20 0xFFFFFFFFFFFFFFFFFFFFFFFFFFFFFFFFFFFFFFFF AND PUSH20 0xFFFFFFFFFFFFFFFFFFFFFFFFFFFFFFFFFFFFFFFF AND PUSH4 0x18160DDD PUSH1 0x40 MLOAD DUP2 PUSH4 0xFFFFFFFF AND PUSH1 0xE0 SHL DUP2 MSTORE PUSH1 0x4 ADD PUSH1 0x20 PUSH1 0x40 MLOAD DUP1 DUP4 SUB DUP2 DUP7 DUP1 EXTCODESIZE ISZERO DUP1 ISZERO PUSH2 0xB6F JUMPI PUSH1 0x0 DUP1 REVERT JUMPDEST POP GAS STATICCALL ISZERO DUP1 ISZERO PUSH2 0xB83 JUMPI RETURNDATASIZE PUSH1 0x0 DUP1 RETURNDATACOPY RETURNDATASIZE PUSH1 0x0 REVERT JUMPDEST POP POP POP POP PUSH1 0x40 MLOAD RETURNDATASIZE PUSH1 0x1F NOT PUSH1 0x1F DUP3 ADD AND DUP3 ADD DUP1 PUSH1 0x40 MSTORE POP DUP2 ADD SWAP1 PUSH2 0xBA7 SWAP2 SWAP1 PUSH2 0x166C JUMP JUMPDEST SWAP1 POP PUSH1 0x0 DUP2 PUSH2 0xBB4 PUSH2 0x140D JUMP JUMPDEST PUSH2 0xBBE SWAP2 SWAP1 PUSH2 0x1E1A JUMP JUMPDEST SWAP1 POP PUSH1 0x0 PUSH1 0x5 PUSH1 0x0 SWAP1 SLOAD SWAP1 PUSH2 0x100 EXP SWAP1 DIV PUSH20 0xFFFFFFFFFFFFFFFFFFFFFFFFFFFFFFFFFFFFFFFF AND PUSH20 0xFFFFFFFFFFFFFFFFFFFFFFFFFFFFFFFFFFFFFFFF AND PUSH4 0x6352211E DUP4 PUSH1 0x40 MLOAD DUP3 PUSH4 0xFFFFFFFF AND PUSH1 0xE0 SHL DUP2 MSTORE PUSH1 0x4 ADD PUSH2 0xC1D SWAP2 SWAP1 PUSH2 0x1B4D JUMP JUMPDEST PUSH1 0x20 PUSH1 0x40 MLOAD DUP1 DUP4 SUB DUP2 DUP7 DUP1 EXTCODESIZE ISZERO DUP1 ISZERO PUSH2 0xC35 JUMPI PUSH1 0x0 DUP1 REVERT JUMPDEST POP GAS STATICCALL ISZERO DUP1 ISZERO PUSH2 0xC49 JUMPI RETURNDATASIZE PUSH1 0x0 DUP1 RETURNDATACOPY RETURNDATASIZE PUSH1 0x0 REVERT JUMPDEST POP POP POP POP PUSH1 0x40 MLOAD RETURNDATASIZE PUSH1 0x1F NOT PUSH1 0x1F DUP3 ADD AND DUP3 ADD DUP1 PUSH1 0x40 MSTORE POP DUP2 ADD SWAP1 PUSH2 0xC6D SWAP2 SWAP1 PUSH2 0x15E5 JUMP JUMPDEST SWAP1 POP PUSH1 0x40 MLOAD DUP1 PUSH1 0xA0 ADD PUSH1 0x40 MSTORE DUP1 DUP5 DUP2 MSTORE PUSH1 0x20 ADD DUP4 DUP2 MSTORE PUSH1 0x20 ADD DUP7 DUP2 MSTORE PUSH1 0x20 ADD TIMESTAMP DUP2 MSTORE PUSH1 0x20 ADD DUP3 PUSH20 0xFFFFFFFFFFFFFFFFFFFFFFFFFFFFFFFFFFFFFFFF AND DUP2 MSTORE POP PUSH1 0x6 PUSH1 0x0 PUSH1 0x1 SLOAD DUP2 MSTORE PUSH1 0x20 ADD SWAP1 DUP2 MSTORE PUSH1 0x20 ADD PUSH1 0x0 KECCAK256 PUSH1 0x0 DUP3 ADD MLOAD DUP2 PUSH1 0x0 ADD SSTORE PUSH1 0x20 DUP3 ADD MLOAD DUP2 PUSH1 0x1 ADD SSTORE PUSH1 0x40 DUP3 ADD MLOAD DUP2 PUSH1 0x2 ADD SSTORE PUSH1 0x60 DUP3 ADD MLOAD DUP2 PUSH1 0x3 ADD SSTORE PUSH1 0x80 DUP3 ADD MLOAD DUP2 PUSH1 0x4 ADD PUSH1 0x0 PUSH2 0x100 EXP DUP2 SLOAD DUP2 PUSH20 0xFFFFFFFFFFFFFFFFFFFFFFFFFFFFFFFFFFFFFFFF MUL NOT AND SWAP1 DUP4 PUSH20 0xFFFFFFFFFFFFFFFFFFFFFFFFFFFFFFFFFFFFFFFF AND MUL OR SWAP1 SSTORE POP SWAP1 POP POP DUP5 PUSH1 0x2 PUSH1 0x0 DUP3 DUP3 SLOAD PUSH2 0xD45 SWAP2 SWAP1 PUSH2 0x1C77 JUMP JUMPDEST SWAP3 POP POP DUP2 SWAP1 SSTORE POP PUSH1 0x1 PUSH1 0x0 DUP2 SLOAD DUP1 SWAP3 SWAP2 SWAP1 PUSH2 0xD5F SWAP1 PUSH2 0x1DA3 JUMP JUMPDEST SWAP2 SWAP1 POP SSTORE POP PUSH1 0x4 PUSH1 0x0 SWAP1 SLOAD SWAP1 PUSH2 0x100 EXP SWAP1 DIV PUSH20 0xFFFFFFFFFFFFFFFFFFFFFFFFFFFFFFFFFFFFFFFF AND PUSH20 0xFFFFFFFFFFFFFFFFFFFFFFFFFFFFFFFFFFFFFFFF AND PUSH4 0xA9059CBB DUP3 DUP8 PUSH1 0x40 MLOAD DUP4 PUSH4 0xFFFFFFFF AND PUSH1 0xE0 SHL DUP2 MSTORE PUSH1 0x4 ADD PUSH2 0xDC1 SWAP3 SWAP2 SWAP1 PUSH2 0x1A35 JUMP JUMPDEST PUSH1 0x20 PUSH1 0x40 MLOAD DUP1 DUP4 SUB DUP2 PUSH1 0x0 DUP8 DUP1 EXTCODESIZE ISZERO DUP1 ISZERO PUSH2 0xDDB JUMPI PUSH1 0x0 DUP1 REVERT JUMPDEST POP GAS CALL ISZERO DUP1 ISZERO PUSH2 0xDEF JUMPI RETURNDATASIZE PUSH1 0x0 DUP1 RETURNDATACOPY RETURNDATASIZE PUSH1 0x0 REVERT JUMPDEST POP POP POP POP PUSH1 0x40 MLOAD RETURNDATASIZE PUSH1 0x1F NOT PUSH1 0x1F DUP3 ADD AND DUP3 ADD DUP1 PUSH1 0x40 MSTORE POP DUP2 ADD SWAP1 PUSH2 0xE13 SWAP2 SWAP1 PUSH2 0x1612 JUMP JUMPDEST POP PUSH32 0x2E798DD4337E515C79B64C40E1A93BAA1AEFBD9180AC7905E02508EDD7971E50 DUP2 DUP7 PUSH1 0x40 MLOAD PUSH2 0xE45 SWAP3 SWAP2 SWAP1 PUSH2 0x1A35 JUMP JUMPDEST PUSH1 0x40 MLOAD DUP1 SWAP2 SUB SWAP1 LOG1 POP POP POP POP POP JUMP JUMPDEST PUSH2 0xE5C PUSH2 0x1405 JUMP JUMPDEST PUSH20 0xFFFFFFFFFFFFFFFFFFFFFFFFFFFFFFFFFFFFFFFF AND PUSH2 0xE7A PUSH2 0xF9C JUMP JUMPDEST PUSH20 0xFFFFFFFFFFFFFFFFFFFFFFFFFFFFFFFFFFFFFFFF AND EQ PUSH2 0xED0 JUMPI PUSH1 0x40 MLOAD PUSH32 0x8C379A000000000000000000000000000000000000000000000000000000000 DUP2 MSTORE PUSH1 0x4 ADD PUSH2 0xEC7 SWAP1 PUSH2 0x1B2D JUMP JUMPDEST PUSH1 0x40 MLOAD DUP1 SWAP2 SUB SWAP1 REVERT JUMPDEST PUSH2 0xEDA PUSH1 0x0 PUSH2 0x1446 JUMP JUMPDEST JUMP JUMPDEST PUSH2 0xEE4 PUSH2 0x1405 JUMP JUMPDEST PUSH20 0xFFFFFFFFFFFFFFFFFFFFFFFFFFFFFFFFFFFFFFFF AND PUSH2 0xF02 PUSH2 0xF9C JUMP JUMPDEST PUSH20 0xFFFFFFFFFFFFFFFFFFFFFFFFFFFFFFFFFFFFFFFF AND EQ PUSH2 0xF58 JUMPI PUSH1 0x40 MLOAD PUSH32 0x8C379A000000000000000000000000000000000000000000000000000000000 DUP2 MSTORE PUSH1 0x4 ADD PUSH2 0xF4F SWAP1 PUSH2 0x1B2D JUMP JUMPDEST PUSH1 0x40 MLOAD DUP1 SWAP2 SUB SWAP1 REVERT JUMPDEST DUP1 PUSH1 0x4 PUSH1 0x0 PUSH2 0x100 EXP DUP2 SLOAD DUP2 PUSH20 0xFFFFFFFFFFFFFFFFFFFFFFFFFFFFFFFFFFFFFFFF MUL NOT AND SWAP1 DUP4 PUSH20 0xFFFFFFFFFFFFFFFFFFFFFFFFFFFFFFFFFFFFFFFF AND MUL OR SWAP1 SSTORE POP POP JUMP JUMPDEST PUSH1 0x0 DUP1 PUSH1 0x0 SWAP1 SLOAD SWAP1 PUSH2 0x100 EXP SWAP1 DIV PUSH20 0xFFFFFFFFFFFFFFFFFFFFFFFFFFFFFFFFFFFFFFFF AND SWAP1 POP SWAP1 JUMP JUMPDEST PUSH1 0x0 PUSH1 0x5 PUSH1 0x0 SWAP1 SLOAD SWAP1 PUSH2 0x100 EXP SWAP1 DIV PUSH20 0xFFFFFFFFFFFFFFFFFFFFFFFFFFFFFFFFFFFFFFFF AND PUSH20 0xFFFFFFFFFFFFFFFFFFFFFFFFFFFFFFFFFFFFFFFF AND PUSH4 0x70A08231 DUP4 PUSH1 0x40 MLOAD DUP3 PUSH4 0xFFFFFFFF AND PUSH1 0xE0 SHL DUP2 MSTORE PUSH1 0x4 ADD PUSH2 0x1022 SWAP2 SWAP1 PUSH2 0x19F1 JUMP JUMPDEST PUSH1 0x20 PUSH1 0x40 MLOAD DUP1 DUP4 SUB DUP2 DUP7 DUP1 EXTCODESIZE ISZERO DUP1 ISZERO PUSH2 0x103A JUMPI PUSH1 0x0 DUP1 REVERT JUMPDEST POP GAS STATICCALL ISZERO DUP1 ISZERO PUSH2 0x104E JUMPI RETURNDATASIZE PUSH1 0x0 DUP1 RETURNDATACOPY RETURNDATASIZE PUSH1 0x0 REVERT JUMPDEST POP POP POP POP PUSH1 0x40 MLOAD RETURNDATASIZE PUSH1 0x1F NOT PUSH1 0x1F DUP3 ADD AND DUP3 ADD DUP1 PUSH1 0x40 MSTORE POP DUP2 ADD SWAP1 PUSH2 0x1072 SWAP2 SWAP1 PUSH2 0x166C JUMP JUMPDEST SWAP1 POP SWAP2 SWAP1 POP JUMP JUMPDEST PUSH1 0x6 PUSH1 0x20 MSTORE DUP1 PUSH1 0x0 MSTORE PUSH1 0x40 PUSH1 0x0 KECCAK256 PUSH1 0x0 SWAP2 POP SWAP1 POP DUP1 PUSH1 0x0 ADD SLOAD SWAP1 DUP1 PUSH1 0x1 ADD SLOAD SWAP1 DUP1 PUSH1 0x2 ADD SLOAD SWAP1 DUP1 PUSH1 0x3 ADD SLOAD SWAP1 DUP1 PUSH1 0x4 ADD PUSH1 0x0 SWAP1 SLOAD SWAP1 PUSH2 0x100 EXP SWAP1 DIV PUSH20 0xFFFFFFFFFFFFFFFFFFFFFFFFFFFFFFFFFFFFFFFF AND SWAP1 POP DUP6 JUMP JUMPDEST PUSH1 0x5 PUSH1 0x0 SWAP1 SLOAD SWAP1 PUSH2 0x100 EXP SWAP1 DIV PUSH20 0xFFFFFFFFFFFFFFFFFFFFFFFFFFFFFFFFFFFFFFFF AND DUP2 JUMP JUMPDEST PUSH1 0x60 PUSH1 0x1 SLOAD DUP3 LT PUSH2 0x1111 JUMPI PUSH1 0x1 DUP1 SLOAD PUSH2 0x110E SWAP2 SWAP1 PUSH2 0x1CCD JUMP JUMPDEST SWAP2 POP JUMPDEST PUSH1 0x0 PUSH1 0x1 DUP5 DUP5 PUSH2 0x1121 SWAP2 SWAP1 PUSH2 0x1CCD JUMP JUMPDEST PUSH2 0x112B SWAP2 SWAP1 PUSH2 0x1C77 JUMP JUMPDEST SWAP1 POP PUSH1 0x0 DUP2 PUSH8 0xFFFFFFFFFFFFFFFF DUP2 GT ISZERO PUSH2 0x1149 JUMPI PUSH2 0x1148 PUSH2 0x1ED8 JUMP JUMPDEST JUMPDEST PUSH1 0x40 MLOAD SWAP1 DUP1 DUP3 MSTORE DUP1 PUSH1 0x20 MUL PUSH1 0x20 ADD DUP3 ADD PUSH1 0x40 MSTORE DUP1 ISZERO PUSH2 0x1182 JUMPI DUP2 PUSH1 0x20 ADD JUMPDEST PUSH2 0x116F PUSH2 0x150A JUMP JUMPDEST DUP2 MSTORE PUSH1 0x20 ADD SWAP1 PUSH1 0x1 SWAP1 SUB SWAP1 DUP2 PUSH2 0x1167 JUMPI SWAP1 POP JUMPDEST POP SWAP3 POP PUSH1 0x0 DUP6 SWAP1 POP JUMPDEST DUP5 DUP2 GT PUSH2 0x1278 JUMPI PUSH1 0x6 PUSH1 0x0 DUP3 DUP9 PUSH2 0x11A2 SWAP2 SWAP1 PUSH2 0x1C77 JUMP JUMPDEST DUP2 MSTORE PUSH1 0x20 ADD SWAP1 DUP2 MSTORE PUSH1 0x20 ADD PUSH1 0x0 KECCAK256 PUSH1 0x40 MLOAD DUP1 PUSH1 0xA0 ADD PUSH1 0x40 MSTORE SWAP1 DUP2 PUSH1 0x0 DUP3 ADD SLOAD DUP2 MSTORE PUSH1 0x20 ADD PUSH1 0x1 DUP3 ADD SLOAD DUP2 MSTORE PUSH1 0x20 ADD PUSH1 0x2 DUP3 ADD SLOAD DUP2 MSTORE PUSH1 0x20 ADD PUSH1 0x3 DUP3 ADD SLOAD DUP2 MSTORE PUSH1 0x20 ADD PUSH1 0x4 DUP3 ADD PUSH1 0x0 SWAP1 SLOAD SWAP1 PUSH2 0x100 EXP SWAP1 DIV PUSH20 0xFFFFFFFFFFFFFFFFFFFFFFFFFFFFFFFFFFFFFFFF AND PUSH20 0xFFFFFFFFFFFFFFFFFFFFFFFFFFFFFFFFFFFFFFFF AND PUSH20 0xFFFFFFFFFFFFFFFFFFFFFFFFFFFFFFFFFFFFFFFF AND DUP2 MSTORE POP POP DUP5 DUP4 DUP2 MLOAD DUP2 LT PUSH2 0x124C JUMPI PUSH2 0x124B PUSH2 0x1EA9 JUMP JUMPDEST JUMPDEST PUSH1 0x20 MUL PUSH1 0x20 ADD ADD DUP2 SWAP1 MSTORE POP DUP2 DUP1 PUSH2 0x1262 SWAP1 PUSH2 0x1DA3 JUMP JUMPDEST SWAP3 POP POP DUP1 DUP1 PUSH2 0x1270 SWAP1 PUSH2 0x1DA3 JUMP JUMPDEST SWAP2 POP POP PUSH2 0x118B JUMP JUMPDEST POP POP POP SWAP3 SWAP2 POP POP JUMP JUMPDEST PUSH2 0x1289 PUSH2 0x1405 JUMP JUMPDEST PUSH20 0xFFFFFFFFFFFFFFFFFFFFFFFFFFFFFFFFFFFFFFFF AND PUSH2 0x12A7 PUSH2 0xF9C JUMP JUMPDEST PUSH20 0xFFFFFFFFFFFFFFFFFFFFFFFFFFFFFFFFFFFFFFFF AND EQ PUSH2 0x12FD JUMPI PUSH1 0x40 MLOAD PUSH32 0x8C379A000000000000000000000000000000000000000000000000000000000 DUP2 MSTORE PUSH1 0x4 ADD PUSH2 0x12F4 SWAP1 PUSH2 0x1B2D JUMP JUMPDEST PUSH1 0x40 MLOAD DUP1 SWAP2 SUB SWAP1 REVERT JUMPDEST PUSH1 0x0 PUSH20 0xFFFFFFFFFFFFFFFFFFFFFFFFFFFFFFFFFFFFFFFF AND DUP2 PUSH20 0xFFFFFFFFFFFFFFFFFFFFFFFFFFFFFFFFFFFFFFFF AND EQ ISZERO PUSH2 0x136D JUMPI PUSH1 0x40 MLOAD PUSH32 0x8C379A000000000000000000000000000000000000000000000000000000000 DUP2 MSTORE PUSH1 0x4 ADD PUSH2 0x1364 SWAP1 PUSH2 0x1AED JUMP JUMPDEST PUSH1 0x40 MLOAD DUP1 SWAP2 SUB SWAP1 REVERT JUMPDEST PUSH2 0x1376 DUP2 PUSH2 0x1446 JUMP JUMPDEST POP JUMP JUMPDEST PUSH2 0x1381 PUSH2 0x1405 JUMP JUMPDEST PUSH20 0xFFFFFFFFFFFFFFFFFFFFFFFFFFFFFFFFFFFFFFFF AND PUSH2 0x139F PUSH2 0xF9C JUMP JUMPDEST PUSH20 0xFFFFFFFFFFFFFFFFFFFFFFFFFFFFFFFFFFFFFFFF AND EQ PUSH2 0x13F5 JUMPI PUSH1 0x40 MLOAD PUSH32 0x8C379A000000000000000000000000000000000000000000000000000000000 DUP2 MSTORE PUSH1 0x4 ADD PUSH2 0x13EC SWAP1 PUSH2 0x1B2D JUMP JUMPDEST PUSH1 0x40 MLOAD DUP1 SWAP2 SUB SWAP1 REVERT JUMPDEST DUP1 PUSH1 0x3 DUP2 SWAP1 SSTORE POP POP JUMP JUMPDEST PUSH1 0x3 SLOAD DUP2 JUMP JUMPDEST PUSH1 0x0 CALLER SWAP1 POP SWAP1 JUMP JUMPDEST PUSH1 0x0 TIMESTAMP GAS CALLER PUSH1 0x2 SLOAD PUSH1 0x40 MLOAD PUSH1 0x20 ADD PUSH2 0x1428 SWAP5 SWAP4 SWAP3 SWAP2 SWAP1 PUSH2 0x19A3 JUMP JUMPDEST PUSH1 0x40 MLOAD PUSH1 0x20 DUP2 DUP4 SUB SUB DUP2 MSTORE SWAP1 PUSH1 0x40 MSTORE DUP1 MLOAD SWAP1 PUSH1 0x20 ADD KECCAK256 PUSH1 0x0 SHR SWAP1 POP SWAP1 JUMP JUMPDEST PUSH1 0x0 DUP1 PUSH1 0x0 SWAP1 SLOAD SWAP1 PUSH2 0x100 EXP SWAP1 DIV PUSH20 0xFFFFFFFFFFFFFFFFFFFFFFFFFFFFFFFFFFFFFFFF AND SWAP1 POP DUP2 PUSH1 0x0 DUP1 PUSH2 0x100 EXP DUP2 SLOAD DUP2 PUSH20 0xFFFFFFFFFFFFFFFFFFFFFFFFFFFFFFFFFFFFFFFF MUL NOT AND SWAP1 DUP4 PUSH20 0xFFFFFFFFFFFFFFFFFFFFFFFFFFFFFFFFFFFFFFFF AND MUL OR SWAP1 SSTORE POP DUP2 PUSH20 0xFFFFFFFFFFFFFFFFFFFFFFFFFFFFFFFFFFFFFFFF AND DUP2 PUSH20 0xFFFFFFFFFFFFFFFFFFFFFFFFFFFFFFFFFFFFFFFF AND PUSH32 0x8BE0079C531659141344CD1FD0A4F28419497F9722A3DAAFE3B4186F6B6457E0 PUSH1 0x40 MLOAD PUSH1 0x40 MLOAD DUP1 SWAP2 SUB SWAP1 LOG3 POP POP JUMP JUMPDEST PUSH1 0x40 MLOAD DUP1 PUSH1 0xA0 ADD PUSH1 0x40 MSTORE DUP1 PUSH1 0x0 DUP2 MSTORE PUSH1 0x20 ADD PUSH1 0x0 DUP2 MSTORE PUSH1 0x20 ADD PUSH1 0x0 DUP2 MSTORE PUSH1 0x20 ADD PUSH1 0x0 DUP2 MSTORE PUSH1 0x20 ADD PUSH1 0x0 PUSH20 0xFFFFFFFFFFFFFFFFFFFFFFFFFFFFFFFFFFFFFFFF AND DUP2 MSTORE POP SWAP1 JUMP JUMPDEST PUSH1 0x0 DUP2 CALLDATALOAD SWAP1 POP PUSH2 0x155E DUP2 PUSH2 0x1FBA JUMP JUMPDEST SWAP3 SWAP2 POP POP JUMP JUMPDEST PUSH1 0x0 DUP2 MLOAD SWAP1 POP PUSH2 0x1573 DUP2 PUSH2 0x1FBA JUMP JUMPDEST SWAP3 SWAP2 POP POP JUMP JUMPDEST PUSH1 0x0 DUP2 MLOAD SWAP1 POP PUSH2 0x1588 DUP2 PUSH2 0x1FD1 JUMP JUMPDEST SWAP3 SWAP2 POP POP JUMP JUMPDEST PUSH1 0x0 DUP2 CALLDATALOAD SWAP1 POP PUSH2 0x159D DUP2 PUSH2 0x1FE8 JUMP JUMPDEST SWAP3 SWAP2 POP POP JUMP JUMPDEST PUSH1 0x0 DUP2 MLOAD SWAP1 POP PUSH2 0x15B2 DUP2 PUSH2 0x1FE8 JUMP JUMPDEST SWAP3 SWAP2 POP POP JUMP JUMPDEST PUSH1 0x0 PUSH1 0x20 DUP3 DUP5 SUB SLT ISZERO PUSH2 0x15CE JUMPI PUSH2 0x15CD PUSH2 0x1F07 JUMP JUMPDEST JUMPDEST PUSH1 0x0 PUSH2 0x15DC DUP5 DUP3 DUP6 ADD PUSH2 0x154F JUMP JUMPDEST SWAP2 POP POP SWAP3 SWAP2 POP POP JUMP JUMPDEST PUSH1 0x0 PUSH1 0x20 DUP3 DUP5 SUB SLT ISZERO PUSH2 0x15FB JUMPI PUSH2 0x15FA PUSH2 0x1F07 JUMP JUMPDEST JUMPDEST PUSH1 0x0 PUSH2 0x1609 DUP5 DUP3 DUP6 ADD PUSH2 0x1564 JUMP JUMPDEST SWAP2 POP POP SWAP3 SWAP2 POP POP JUMP JUMPDEST PUSH1 0x0 PUSH1 0x20 DUP3 DUP5 SUB SLT ISZERO PUSH2 0x1628 JUMPI PUSH2 0x1627 PUSH2 0x1F07 JUMP JUMPDEST JUMPDEST PUSH1 0x0 PUSH2 0x1636 DUP5 DUP3 DUP6 ADD PUSH2 0x1579 JUMP JUMPDEST SWAP2 POP POP SWAP3 SWAP2 POP POP JUMP JUMPDEST PUSH1 0x0 PUSH1 0x20 DUP3 DUP5 SUB SLT ISZERO PUSH2 0x1655 JUMPI PUSH2 0x1654 PUSH2 0x1F07 JUMP JUMPDEST JUMPDEST PUSH1 0x0 PUSH2 0x1663 DUP5 DUP3 DUP6 ADD PUSH2 0x158E JUMP JUMPDEST SWAP2 POP POP SWAP3 SWAP2 POP POP JUMP JUMPDEST PUSH1 0x0 PUSH1 0x20 DUP3 DUP5 SUB SLT ISZERO PUSH2 0x1682 JUMPI PUSH2 0x1681 PUSH2 0x1F07 JUMP JUMPDEST JUMPDEST PUSH1 0x0 PUSH2 0x1690 DUP5 DUP3 DUP6 ADD PUSH2 0x15A3 JUMP JUMPDEST SWAP2 POP POP SWAP3 SWAP2 POP POP JUMP JUMPDEST PUSH1 0x0 DUP1 PUSH1 0x40 DUP4 DUP6 SUB SLT ISZERO PUSH2 0x16B0 JUMPI PUSH2 0x16AF PUSH2 0x1F07 JUMP JUMPDEST JUMPDEST PUSH1 0x0 PUSH2 0x16BE DUP6 DUP3 DUP7 ADD PUSH2 0x158E JUMP JUMPDEST SWAP3 POP POP PUSH1 0x20 PUSH2 0x16CF DUP6 DUP3 DUP7 ADD PUSH2 0x158E JUMP JUMPDEST SWAP2 POP POP SWAP3 POP SWAP3 SWAP1 POP JUMP JUMPDEST PUSH1 0x0 PUSH2 0x16E5 DUP4 DUP4 PUSH2 0x1721 JUMP JUMPDEST PUSH1 0x20 DUP4 ADD SWAP1 POP SWAP3 SWAP2 POP POP JUMP JUMPDEST PUSH1 0x0 PUSH2 0x16FD DUP4 DUP4 PUSH2 0x1906 JUMP JUMPDEST PUSH1 0xA0 DUP4 ADD SWAP1 POP SWAP3 SWAP2 POP POP JUMP JUMPDEST PUSH1 0x0 PUSH2 0x1715 DUP4 DUP4 PUSH2 0x196E JUMP JUMPDEST PUSH1 0x20 DUP4 ADD SWAP1 POP SWAP3 SWAP2 POP POP JUMP JUMPDEST PUSH2 0x172A DUP2 PUSH2 0x1D01 JUMP JUMPDEST DUP3 MSTORE POP POP JUMP JUMPDEST PUSH2 0x1739 DUP2 PUSH2 0x1D01 JUMP JUMPDEST DUP3 MSTORE POP POP JUMP JUMPDEST PUSH2 0x1750 PUSH2 0x174B DUP3 PUSH2 0x1D01 JUMP JUMPDEST PUSH2 0x1DEC JUMP JUMPDEST DUP3 MSTORE POP POP JUMP JUMPDEST PUSH1 0x0 PUSH2 0x1761 DUP3 PUSH2 0x1BEB JUMP JUMPDEST PUSH2 0x176B DUP2 DUP6 PUSH2 0x1C33 JUMP JUMPDEST SWAP4 POP PUSH2 0x1776 DUP4 PUSH2 0x1BBB JUMP JUMPDEST DUP1 PUSH1 0x0 JUMPDEST DUP4 DUP2 LT ISZERO PUSH2 0x17A7 JUMPI DUP2 MLOAD PUSH2 0x178E DUP9 DUP3 PUSH2 0x16D9 JUMP JUMPDEST SWAP8 POP PUSH2 0x1799 DUP4 PUSH2 0x1C0C JUMP JUMPDEST SWAP3 POP POP PUSH1 0x1 DUP2 ADD SWAP1 POP PUSH2 0x177A JUMP JUMPDEST POP DUP6 SWAP4 POP POP POP POP SWAP3 SWAP2 POP POP JUMP JUMPDEST PUSH1 0x0 PUSH2 0x17BF DUP3 PUSH2 0x1BF6 JUMP JUMPDEST PUSH2 0x17C9 DUP2 DUP6 PUSH2 0x1C44 JUMP JUMPDEST SWAP4 POP PUSH2 0x17D4 DUP4 PUSH2 0x1BCB JUMP JUMPDEST DUP1 PUSH1 0x0 JUMPDEST DUP4 DUP2 LT ISZERO PUSH2 0x1805 JUMPI DUP2 MLOAD PUSH2 0x17EC DUP9 DUP3 PUSH2 0x16F1 JUMP JUMPDEST SWAP8 POP PUSH2 0x17F7 DUP4 PUSH2 0x1C19 JUMP JUMPDEST SWAP3 POP POP PUSH1 0x1 DUP2 ADD SWAP1 POP PUSH2 0x17D8 JUMP JUMPDEST POP DUP6 SWAP4 POP POP POP POP SWAP3 SWAP2 POP POP JUMP JUMPDEST PUSH1 0x0 PUSH2 0x181D DUP3 PUSH2 0x1C01 JUMP JUMPDEST PUSH2 0x1827 DUP2 DUP6 PUSH2 0x1C55 JUMP JUMPDEST SWAP4 POP PUSH2 0x1832 DUP4 PUSH2 0x1BDB JUMP JUMPDEST DUP1 PUSH1 0x0 JUMPDEST DUP4 DUP2 LT ISZERO PUSH2 0x1863 JUMPI DUP2 MLOAD PUSH2 0x184A DUP9 DUP3 PUSH2 0x1709 JUMP JUMPDEST SWAP8 POP PUSH2 0x1855 DUP4 PUSH2 0x1C26 JUMP JUMPDEST SWAP3 POP POP PUSH1 0x1 DUP2 ADD SWAP1 POP PUSH2 0x1836 JUMP JUMPDEST POP DUP6 SWAP4 POP POP POP POP SWAP3 SWAP2 POP POP JUMP JUMPDEST PUSH2 0x1879 DUP2 PUSH2 0x1D49 JUMP JUMPDEST DUP3 MSTORE POP POP JUMP JUMPDEST PUSH2 0x1888 DUP2 PUSH2 0x1D5B JUMP JUMPDEST DUP3 MSTORE POP POP JUMP JUMPDEST PUSH2 0x1897 DUP2 PUSH2 0x1D6D JUMP JUMPDEST DUP3 MSTORE POP POP JUMP JUMPDEST PUSH1 0x0 PUSH2 0x18AA PUSH1 0x26 DUP4 PUSH2 0x1C66 JUMP JUMPDEST SWAP2 POP PUSH2 0x18B5 DUP3 PUSH2 0x1F19 JUMP JUMPDEST PUSH1 0x40 DUP3 ADD SWAP1 POP SWAP2 SWAP1 POP JUMP JUMPDEST PUSH1 0x0 PUSH2 0x18CD PUSH1 0x18 DUP4 PUSH2 0x1C66 JUMP JUMPDEST SWAP2 POP PUSH2 0x18D8 DUP3 PUSH2 0x1F68 JUMP JUMPDEST PUSH1 0x20 DUP3 ADD SWAP1 POP SWAP2 SWAP1 POP JUMP JUMPDEST PUSH1 0x0 PUSH2 0x18F0 PUSH1 0x20 DUP4 PUSH2 0x1C66 JUMP JUMPDEST SWAP2 POP PUSH2 0x18FB DUP3 PUSH2 0x1F91 JUMP JUMPDEST PUSH1 0x20 DUP3 ADD SWAP1 POP SWAP2 SWAP1 POP JUMP JUMPDEST PUSH1 0xA0 DUP3 ADD PUSH1 0x0 DUP3 ADD MLOAD PUSH2 0x191C PUSH1 0x0 DUP6 ADD DUP3 PUSH2 0x196E JUMP JUMPDEST POP PUSH1 0x20 DUP3 ADD MLOAD PUSH2 0x192F PUSH1 0x20 DUP6 ADD DUP3 PUSH2 0x196E JUMP JUMPDEST POP PUSH1 0x40 DUP3 ADD MLOAD PUSH2 0x1942 PUSH1 0x40 DUP6 ADD DUP3 PUSH2 0x196E JUMP JUMPDEST POP PUSH1 0x60 DUP3 ADD MLOAD PUSH2 0x1955 PUSH1 0x60 DUP6 ADD DUP3 PUSH2 0x196E JUMP JUMPDEST POP PUSH1 0x80 DUP3 ADD MLOAD PUSH2 0x1968 PUSH1 0x80 DUP6 ADD DUP3 PUSH2 0x1721 JUMP JUMPDEST POP POP POP POP JUMP JUMPDEST PUSH2 0x1977 DUP2 PUSH2 0x1D3F JUMP JUMPDEST DUP3 MSTORE POP POP JUMP JUMPDEST PUSH2 0x1986 DUP2 PUSH2 0x1D3F JUMP JUMPDEST DUP3 MSTORE POP POP JUMP JUMPDEST PUSH2 0x199D PUSH2 0x1998 DUP3 PUSH2 0x1D3F JUMP JUMPDEST PUSH2 0x1E10 JUMP JUMPDEST DUP3 MSTORE POP POP JUMP JUMPDEST PUSH1 0x0 PUSH2 0x19AF DUP3 DUP8 PUSH2 0x198C JUMP JUMPDEST PUSH1 0x20 DUP3 ADD SWAP2 POP PUSH2 0x19BF DUP3 DUP7 PUSH2 0x198C JUMP JUMPDEST PUSH1 0x20 DUP3 ADD SWAP2 POP PUSH2 0x19CF DUP3 DUP6 PUSH2 0x173F JUMP JUMPDEST PUSH1 0x14 DUP3 ADD SWAP2 POP PUSH2 0x19DF DUP3 DUP5 PUSH2 0x198C JUMP JUMPDEST PUSH1 0x20 DUP3 ADD SWAP2 POP DUP2 SWAP1 POP SWAP6 SWAP5 POP POP POP POP POP JUMP JUMPDEST PUSH1 0x0 PUSH1 0x20 DUP3 ADD SWAP1 POP PUSH2 0x1A06 PUSH1 0x0 DUP4 ADD DUP5 PUSH2 0x1730 JUMP JUMPDEST SWAP3 SWAP2 POP POP JUMP JUMPDEST PUSH1 0x0 PUSH1 0x40 DUP3 ADD SWAP1 POP PUSH2 0x1A21 PUSH1 0x0 DUP4 ADD DUP6 PUSH2 0x1730 JUMP JUMPDEST PUSH2 0x1A2E PUSH1 0x20 DUP4 ADD DUP5 PUSH2 0x188E JUMP JUMPDEST SWAP4 SWAP3 POP POP POP JUMP JUMPDEST PUSH1 0x0 PUSH1 0x40 DUP3 ADD SWAP1 POP PUSH2 0x1A4A PUSH1 0x0 DUP4 ADD DUP6 PUSH2 0x1730 JUMP JUMPDEST PUSH2 0x1A57 PUSH1 0x20 DUP4 ADD DUP5 PUSH2 0x197D JUMP JUMPDEST SWAP4 SWAP3 POP POP POP JUMP JUMPDEST PUSH1 0x0 PUSH1 0x40 DUP3 ADD SWAP1 POP DUP2 DUP2 SUB PUSH1 0x0 DUP4 ADD MSTORE PUSH2 0x1A78 DUP2 DUP6 PUSH2 0x1756 JUMP JUMPDEST SWAP1 POP DUP2 DUP2 SUB PUSH1 0x20 DUP4 ADD MSTORE PUSH2 0x1A8C DUP2 DUP5 PUSH2 0x1812 JUMP JUMPDEST SWAP1 POP SWAP4 SWAP3 POP POP POP JUMP JUMPDEST PUSH1 0x0 PUSH1 0x20 DUP3 ADD SWAP1 POP DUP2 DUP2 SUB PUSH1 0x0 DUP4 ADD MSTORE PUSH2 0x1AAF DUP2 DUP5 PUSH2 0x17B4 JUMP JUMPDEST SWAP1 POP SWAP3 SWAP2 POP POP JUMP JUMPDEST PUSH1 0x0 PUSH1 0x20 DUP3 ADD SWAP1 POP PUSH2 0x1ACC PUSH1 0x0 DUP4 ADD DUP5 PUSH2 0x1870 JUMP JUMPDEST SWAP3 SWAP2 POP POP JUMP JUMPDEST PUSH1 0x0 PUSH1 0x20 DUP3 ADD SWAP1 POP PUSH2 0x1AE7 PUSH1 0x0 DUP4 ADD DUP5 PUSH2 0x187F JUMP JUMPDEST SWAP3 SWAP2 POP POP JUMP JUMPDEST PUSH1 0x0 PUSH1 0x20 DUP3 ADD SWAP1 POP DUP2 DUP2 SUB PUSH1 0x0 DUP4 ADD MSTORE PUSH2 0x1B06 DUP2 PUSH2 0x189D JUMP JUMPDEST SWAP1 POP SWAP2 SWAP1 POP JUMP JUMPDEST PUSH1 0x0 PUSH1 0x20 DUP3 ADD SWAP1 POP DUP2 DUP2 SUB PUSH1 0x0 DUP4 ADD MSTORE PUSH2 0x1B26 DUP2 PUSH2 0x18C0 JUMP JUMPDEST SWAP1 POP SWAP2 SWAP1 POP JUMP JUMPDEST PUSH1 0x0 PUSH1 0x20 DUP3 ADD SWAP1 POP DUP2 DUP2 SUB PUSH1 0x0 DUP4 ADD MSTORE PUSH2 0x1B46 DUP2 PUSH2 0x18E3 JUMP JUMPDEST SWAP1 POP SWAP2 SWAP1 POP JUMP JUMPDEST PUSH1 0x0 PUSH1 0x20 DUP3 ADD SWAP1 POP PUSH2 0x1B62 PUSH1 0x0 DUP4 ADD DUP5 PUSH2 0x197D JUMP JUMPDEST SWAP3 SWAP2 POP POP JUMP JUMPDEST PUSH1 0x0 PUSH1 0xA0 DUP3 ADD SWAP1 POP PUSH2 0x1B7D PUSH1 0x0 DUP4 ADD DUP9 PUSH2 0x197D JUMP JUMPDEST PUSH2 0x1B8A PUSH1 0x20 DUP4 ADD DUP8 PUSH2 0x197D JUMP JUMPDEST PUSH2 0x1B97 PUSH1 0x40 DUP4 ADD DUP7 PUSH2 0x197D JUMP JUMPDEST PUSH2 0x1BA4 PUSH1 0x60 DUP4 ADD DUP6 PUSH2 0x197D JUMP JUMPDEST PUSH2 0x1BB1 PUSH1 0x80 DUP4 ADD DUP5 PUSH2 0x1730 JUMP JUMPDEST SWAP7 SWAP6 POP POP POP POP POP POP JUMP JUMPDEST PUSH1 0x0 DUP2 SWAP1 POP PUSH1 0x20 DUP3 ADD SWAP1 POP SWAP2 SWAP1 POP JUMP JUMPDEST PUSH1 0x0 DUP2 SWAP1 POP PUSH1 0x20 DUP3 ADD SWAP1 POP SWAP2 SWAP1 POP JUMP JUMPDEST PUSH1 0x0 DUP2 SWAP1 POP PUSH1 0x20 DUP3 ADD SWAP1 POP SWAP2 SWAP1 POP JUMP JUMPDEST PUSH1 0x0 DUP2 MLOAD SWAP1 POP SWAP2 SWAP1 POP JUMP JUMPDEST PUSH1 0x0 DUP2 MLOAD SWAP1 POP SWAP2 SWAP1 POP JUMP JUMPDEST PUSH1 0x0 DUP2 MLOAD SWAP1 POP SWAP2 SWAP1 POP JUMP JUMPDEST PUSH1 0x0 PUSH1 0x20 DUP3 ADD SWAP1 POP SWAP2 SWAP1 POP JUMP JUMPDEST PUSH1 0x0 PUSH1 0x20 DUP3 ADD SWAP1 POP SWAP2 SWAP1 POP JUMP JUMPDEST PUSH1 0x0 PUSH1 0x20 DUP3 ADD SWAP1 POP SWAP2 SWAP1 POP JUMP JUMPDEST PUSH1 0x0 DUP3 DUP3 MSTORE PUSH1 0x20 DUP3 ADD SWAP1 POP SWAP3 SWAP2 POP POP JUMP JUMPDEST PUSH1 0x0 DUP3 DUP3 MSTORE PUSH1 0x20 DUP3 ADD SWAP1 POP SWAP3 SWAP2 POP POP JUMP JUMPDEST PUSH1 0x0 DUP3 DUP3 MSTORE PUSH1 0x20 DUP3 ADD SWAP1 POP SWAP3 SWAP2 POP POP JUMP JUMPDEST PUSH1 0x0 DUP3 DUP3 MSTORE PUSH1 0x20 DUP3 ADD SWAP1 POP SWAP3 SWAP2 POP POP JUMP JUMPDEST PUSH1 0x0 PUSH2 0x1C82 DUP3 PUSH2 0x1D3F JUMP JUMPDEST SWAP2 POP PUSH2 0x1C8D DUP4 PUSH2 0x1D3F JUMP JUMPDEST SWAP3 POP DUP3 PUSH32 0xFFFFFFFFFFFFFFFFFFFFFFFFFFFFFFFFFFFFFFFFFFFFFFFFFFFFFFFFFFFFFFFF SUB DUP3 GT ISZERO PUSH2 0x1CC2 JUMPI PUSH2 0x1CC1 PUSH2 0x1E4B JUMP JUMPDEST JUMPDEST DUP3 DUP3 ADD SWAP1 POP SWAP3 SWAP2 POP POP JUMP JUMPDEST PUSH1 0x0 PUSH2 0x1CD8 DUP3 PUSH2 0x1D3F JUMP JUMPDEST SWAP2 POP PUSH2 0x1CE3 DUP4 PUSH2 0x1D3F JUMP JUMPDEST SWAP3 POP DUP3 DUP3 LT ISZERO PUSH2 0x1CF6 JUMPI PUSH2 0x1CF5 PUSH2 0x1E4B JUMP JUMPDEST JUMPDEST DUP3 DUP3 SUB SWAP1 POP SWAP3 SWAP2 POP POP JUMP JUMPDEST PUSH1 0x0 PUSH2 0x1D0C DUP3 PUSH2 0x1D1F JUMP JUMPDEST SWAP1 POP SWAP2 SWAP1 POP JUMP JUMPDEST PUSH1 0x0 DUP2 ISZERO ISZERO SWAP1 POP SWAP2 SWAP1 POP JUMP JUMPDEST PUSH1 0x0 PUSH20 0xFFFFFFFFFFFFFFFFFFFFFFFFFFFFFFFFFFFFFFFF DUP3 AND SWAP1 POP SWAP2 SWAP1 POP JUMP JUMPDEST PUSH1 0x0 DUP2 SWAP1 POP SWAP2 SWAP1 POP JUMP JUMPDEST PUSH1 0x0 PUSH2 0x1D54 DUP3 PUSH2 0x1D7F JUMP JUMPDEST SWAP1 POP SWAP2 SWAP1 POP JUMP JUMPDEST PUSH1 0x0 PUSH2 0x1D66 DUP3 PUSH2 0x1D7F JUMP JUMPDEST SWAP1 POP SWAP2 SWAP1 POP JUMP JUMPDEST PUSH1 0x0 PUSH2 0x1D78 DUP3 PUSH2 0x1D3F JUMP JUMPDEST SWAP1 POP SWAP2 SWAP1 POP JUMP JUMPDEST PUSH1 0x0 PUSH2 0x1D8A DUP3 PUSH2 0x1D91 JUMP JUMPDEST SWAP1 POP SWAP2 SWAP1 POP JUMP JUMPDEST PUSH1 0x0 PUSH2 0x1D9C DUP3 PUSH2 0x1D1F JUMP JUMPDEST SWAP1 POP SWAP2 SWAP1 POP JUMP JUMPDEST PUSH1 0x0 PUSH2 0x1DAE DUP3 PUSH2 0x1D3F JUMP JUMPDEST SWAP2 POP PUSH32 0xFFFFFFFFFFFFFFFFFFFFFFFFFFFFFFFFFFFFFFFFFFFFFFFFFFFFFFFFFFFFFFFF DUP3 EQ ISZERO PUSH2 0x1DE1 JUMPI PUSH2 0x1DE0 PUSH2 0x1E4B JUMP JUMPDEST JUMPDEST PUSH1 0x1 DUP3 ADD SWAP1 POP SWAP2 SWAP1 POP JUMP JUMPDEST PUSH1 0x0 PUSH2 0x1DF7 DUP3 PUSH2 0x1DFE JUMP JUMPDEST SWAP1 POP SWAP2 SWAP1 POP JUMP JUMPDEST PUSH1 0x0 PUSH2 0x1E09 DUP3 PUSH2 0x1F0C JUMP JUMPDEST SWAP1 POP SWAP2 SWAP1 POP JUMP JUMPDEST PUSH1 0x0 DUP2 SWAP1 POP SWAP2 SWAP1 POP JUMP JUMPDEST PUSH1 0x0 PUSH2 0x1E25 DUP3 PUSH2 0x1D3F JUMP JUMPDEST SWAP2 POP PUSH2 0x1E30 DUP4 PUSH2 0x1D3F JUMP JUMPDEST SWAP3 POP DUP3 PUSH2 0x1E40 JUMPI PUSH2 0x1E3F PUSH2 0x1E7A JUMP JUMPDEST JUMPDEST DUP3 DUP3 MOD SWAP1 POP SWAP3 SWAP2 POP POP JUMP JUMPDEST PUSH32 0x4E487B7100000000000000000000000000000000000000000000000000000000 PUSH1 0x0 MSTORE PUSH1 0x11 PUSH1 0x4 MSTORE PUSH1 0x24 PUSH1 0x0 REVERT JUMPDEST PUSH32 0x4E487B7100000000000000000000000000000000000000000000000000000000 PUSH1 0x0 MSTORE PUSH1 0x12 PUSH1 0x4 MSTORE PUSH1 0x24 PUSH1 0x0 REVERT JUMPDEST PUSH32 0x4E487B7100000000000000000000000000000000000000000000000000000000 PUSH1 0x0 MSTORE PUSH1 0x32 PUSH1 0x4 MSTORE PUSH1 0x24 PUSH1 0x0 REVERT JUMPDEST PUSH32 0x4E487B7100000000000000000000000000000000000000000000000000000000 PUSH1 0x0 MSTORE PUSH1 0x41 PUSH1 0x4 MSTORE PUSH1 0x24 PUSH1 0x0 REVERT JUMPDEST PUSH1 0x0 DUP1 REVERT JUMPDEST PUSH1 0x0 DUP2 PUSH1 0x60 SHL SWAP1 POP SWAP2 SWAP1 POP JUMP JUMPDEST PUSH32 0x4F776E61626C653A206E6577206F776E657220697320746865207A65726F2061 PUSH1 0x0 DUP3 ADD MSTORE PUSH32 0x6464726573730000000000000000000000000000000000000000000000000000 PUSH1 0x20 DUP3 ADD MSTORE POP JUMP JUMPDEST PUSH32 0x4E6F7420656E6F7567682066756E647320746F20647261770000000000000000 PUSH1 0x0 DUP3 ADD MSTORE POP JUMP JUMPDEST PUSH32 0x4F776E61626C653A2063616C6C6572206973206E6F7420746865206F776E6572 PUSH1 0x0 DUP3 ADD MSTORE POP JUMP JUMPDEST PUSH2 0x1FC3 DUP2 PUSH2 0x1D01 JUMP JUMPDEST DUP2 EQ PUSH2 0x1FCE JUMPI PUSH1 0x0 DUP1 REVERT JUMPDEST POP JUMP JUMPDEST PUSH2 0x1FDA DUP2 PUSH2 0x1D13 JUMP JUMPDEST DUP2 EQ PUSH2 0x1FE5 JUMPI PUSH1 0x0 DUP1 REVERT JUMPDEST POP JUMP JUMPDEST PUSH2 0x1FF1 DUP2 PUSH2 0x1D3F JUMP JUMPDEST DUP2 EQ PUSH2 0x1FFC JUMPI PUSH1 0x0 DUP1 REVERT JUMPDEST POP JUMP INVALID LOG2 PUSH5 0x6970667358 0x22 SLT KECCAK256 PUSH9 0x46CFB3C989F5A0ACDD 0xB3 BALANCE 0xC4 0xEE 0xB6 SWAP9 0xD1 PUSH18 0xFC63678C4E30A12AFC5526928D0564736F6C PUSH4 0x43000807 STOP CALLER "
				},
				"gasEstimates": {
					"creation": {
						"codeDepositCost": "1649000",
						"executionCost": "infinite",
						"totalCost": "infinite"
					},
					"external": {
						"acesNFT()": "2622",
						"currentJackpot()": "2539",
						"getEntries()": "infinite",
						"getUniqueAddresses()": "infinite",
						"getUniqueUsers()": "infinite",
						"owner()": "2567",
						"paymentToken()": "2690",
						"pickWinner()": "infinite",
						"renounceOwnership()": "30463",
						"resultLog(uint256,uint256)": "infinite",
						"roundNum()": "2453",
						"roundResults(uint256)": "infinite",
						"totalPayout()": "2474",
						"transferOwnership(address)": "30789",
						"updateJackpot(uint256)": "24848",
						"updateToken(address)": "26985",
						"userEntries(address)": "infinite"
					},
					"internal": {
						"random()": "infinite"
					}
				},
				"methodIdentifiers": {
					"acesNFT()": "aeb18350",
					"currentJackpot()": "f9cee0bd",
					"getEntries()": "17be85c3",
					"getUniqueAddresses()": "3b98bc65",
					"getUniqueUsers()": "158977de",
					"owner()": "8da5cb5b",
					"paymentToken()": "3013ce29",
					"pickWinner()": "5d495aea",
					"renounceOwnership()": "715018a6",
					"resultLog(uint256,uint256)": "bc15cdf0",
					"roundNum()": "119b22b3",
					"roundResults(uint256)": "ac128f4f",
					"totalPayout()": "454f7b8f",
					"transferOwnership(address)": "f2fde38b",
					"updateJackpot(uint256)": "f80fb76d",
					"updateToken(address)": "7ad3def2",
					"userEntries(address)": "9f10a990"
				}
			},
			"storageLayout": {
				"storage": [
					{
						"astId": 443,
						"contract": "NFTlotto.sol:ACELotto",
						"label": "_owner",
						"offset": 0,
						"slot": "0",
						"type": "t_address"
					},
					{
						"astId": 35,
						"contract": "NFTlotto.sol:ACELotto",
						"label": "roundNum",
						"offset": 0,
						"slot": "1",
						"type": "t_uint256"
					},
					{
						"astId": 37,
						"contract": "NFTlotto.sol:ACELotto",
						"label": "totalPayout",
						"offset": 0,
						"slot": "2",
						"type": "t_uint256"
					},
					{
						"astId": 40,
						"contract": "NFTlotto.sol:ACELotto",
						"label": "currentJackpot",
						"offset": 0,
						"slot": "3",
						"type": "t_uint256"
					},
					{
						"astId": 43,
						"contract": "NFTlotto.sol:ACELotto",
						"label": "paymentToken",
						"offset": 0,
						"slot": "4",
						"type": "t_contract(IERC20)618"
					},
					{
						"astId": 46,
						"contract": "NFTlotto.sol:ACELotto",
						"label": "acesNFT",
						"offset": 0,
						"slot": "5",
						"type": "t_contract(IERC721Enumerable)765"
					},
					{
						"astId": 62,
						"contract": "NFTlotto.sol:ACELotto",
						"label": "roundResults",
						"offset": 0,
						"slot": "6",
						"type": "t_mapping(t_uint256,t_struct(Results)57_storage)"
					}
				],
				"types": {
					"t_address": {
						"encoding": "inplace",
						"label": "address",
						"numberOfBytes": "20"
					},
					"t_contract(IERC20)618": {
						"encoding": "inplace",
						"label": "contract IERC20",
						"numberOfBytes": "20"
					},
					"t_contract(IERC721Enumerable)765": {
						"encoding": "inplace",
						"label": "contract IERC721Enumerable",
						"numberOfBytes": "20"
					},
					"t_mapping(t_uint256,t_struct(Results)57_storage)": {
						"encoding": "mapping",
						"key": "t_uint256",
						"label": "mapping(uint256 => struct ACELotto.Results)",
						"numberOfBytes": "32",
						"value": "t_struct(Results)57_storage"
					},
					"t_struct(Results)57_storage": {
						"encoding": "inplace",
						"label": "struct ACELotto.Results",
						"members": [
							{
								"astId": 48,
								"contract": "NFTlotto.sol:ACELotto",
								"label": "totalEntries",
								"offset": 0,
								"slot": "0",
								"type": "t_uint256"
							},
							{
								"astId": 50,
								"contract": "NFTlotto.sol:ACELotto",
								"label": "winningNumber",
								"offset": 0,
								"slot": "1",
								"type": "t_uint256"
							},
							{
								"astId": 52,
								"contract": "NFTlotto.sol:ACELotto",
								"label": "payout",
								"offset": 0,
								"slot": "2",
								"type": "t_uint256"
							},
							{
								"astId": 54,
								"contract": "NFTlotto.sol:ACELotto",
								"label": "endTime",
								"offset": 0,
								"slot": "3",
								"type": "t_uint256"
							},
							{
								"astId": 56,
								"contract": "NFTlotto.sol:ACELotto",
								"label": "winningAddress",
								"offset": 0,
								"slot": "4",
								"type": "t_address"
							}
						],
						"numberOfBytes": "160"
					},
					"t_uint256": {
						"encoding": "inplace",
						"label": "uint256",
						"numberOfBytes": "32"
					}
				}
			},
			"userdoc": {
				"kind": "user",
				"methods": {},
				"version": 1
			}
		}
	}
}