{
	"NFTlotto.sol": {
		"ACELotto": {
			"abi": [
				{
					"inputs": [
						{
							"internalType": "address",
							"name": "_NFT",
							"type": "address"
						}
					],
					"stateMutability": "nonpayable",
					"type": "constructor"
				},
				{
					"anonymous": false,
					"inputs": [
						{
							"indexed": false,
							"internalType": "address",
							"name": "winner",
							"type": "address"
						},
						{
							"indexed": false,
							"internalType": "uint256",
							"name": "amount",
							"type": "uint256"
						}
					],
					"name": "LotteryWon",
					"type": "event"
				},
				{
					"anonymous": false,
					"inputs": [
						{
							"indexed": true,
							"internalType": "address",
							"name": "previousOwner",
							"type": "address"
						},
						{
							"indexed": true,
							"internalType": "address",
							"name": "newOwner",
							"type": "address"
						}
					],
					"name": "OwnershipTransferred",
					"type": "event"
				},
				{
					"inputs": [],
					"name": "acesNFT",
					"outputs": [
						{
							"internalType": "contract IERC721Enumerable",
							"name": "",
							"type": "address"
						}
					],
					"stateMutability": "view",
					"type": "function"
				},
				{
					"inputs": [],
					"name": "getEntries",
					"outputs": [
						{
							"internalType": "uint256",
							"name": "",
							"type": "uint256"
						}
					],
					"stateMutability": "view",
					"type": "function"
				},
				{
					"inputs": [],
					"name": "getUniqueAddresses",
					"outputs": [
						{
							"internalType": "address[]",
							"name": "addresses",
							"type": "address[]"
						},
						{
							"internalType": "uint256[]",
							"name": "entries",
							"type": "uint256[]"
						}
					],
					"stateMutability": "view",
					"type": "function"
				},
				{
					"inputs": [],
					"name": "getUniqueUsers",
					"outputs": [
						{
							"internalType": "uint256",
							"name": "counter",
							"type": "uint256"
						}
					],
					"stateMutability": "view",
					"type": "function"
				},
				{
					"inputs": [],
					"name": "owner",
					"outputs": [
						{
							"internalType": "address",
							"name": "",
							"type": "address"
						}
					],
					"stateMutability": "view",
					"type": "function"
				},
				{
					"inputs": [
						{
							"internalType": "uint256",
							"name": "seed",
							"type": "uint256"
						}
					],
					"name": "pickWinner",
					"outputs": [
						{
							"internalType": "uint256",
							"name": "winnerNum",
							"type": "uint256"
						},
						{
							"internalType": "address",
							"name": "winnerAddress",
							"type": "address"
						}
					],
					"stateMutability": "view",
					"type": "function"
				},
				{
					"inputs": [],
					"name": "renounceOwnership",
					"outputs": [],
					"stateMutability": "nonpayable",
					"type": "function"
				},
				{
					"inputs": [
						{
							"internalType": "uint256",
							"name": "startIndex",
							"type": "uint256"
						},
						{
							"internalType": "uint256",
							"name": "endIndex",
							"type": "uint256"
						}
					],
					"name": "resultLog",
					"outputs": [
						{
							"components": [
								{
									"internalType": "uint256",
									"name": "totalEntries",
									"type": "uint256"
								},
								{
									"internalType": "uint256",
									"name": "winningNumber",
									"type": "uint256"
								},
								{
									"internalType": "uint256",
									"name": "payout",
									"type": "uint256"
								},
								{
									"internalType": "uint256",
									"name": "endTime",
									"type": "uint256"
								},
								{
									"internalType": "address",
									"name": "winningAddress",
									"type": "address"
								}
							],
							"internalType": "struct ACELotto.Results[]",
							"name": "log",
							"type": "tuple[]"
						}
					],
					"stateMutability": "view",
					"type": "function"
				},
				{
					"inputs": [],
					"name": "roundNum",
					"outputs": [
						{
							"internalType": "uint256",
							"name": "",
							"type": "uint256"
						}
					],
					"stateMutability": "view",
					"type": "function"
				},
				{
					"inputs": [
						{
							"internalType": "uint256",
							"name": "",
							"type": "uint256"
						}
					],
					"name": "roundResults",
					"outputs": [
						{
							"internalType": "uint256",
							"name": "totalEntries",
							"type": "uint256"
						},
						{
							"internalType": "uint256",
							"name": "winningNumber",
							"type": "uint256"
						},
						{
							"internalType": "uint256",
							"name": "payout",
							"type": "uint256"
						},
						{
							"internalType": "uint256",
							"name": "endTime",
							"type": "uint256"
						},
						{
							"internalType": "address",
							"name": "winningAddress",
							"type": "address"
						}
					],
					"stateMutability": "view",
					"type": "function"
				},
				{
					"inputs": [],
					"name": "totalPayout",
					"outputs": [
						{
							"internalType": "uint256",
							"name": "",
							"type": "uint256"
						}
					],
					"stateMutability": "view",
					"type": "function"
				},
				{
					"inputs": [
						{
							"internalType": "address",
							"name": "newOwner",
							"type": "address"
						}
					],
					"name": "transferOwnership",
					"outputs": [],
					"stateMutability": "nonpayable",
					"type": "function"
				},
				{
					"inputs": [
						{
							"internalType": "uint256",
							"name": "winnerNum",
							"type": "uint256"
						},
						{
							"internalType": "uint256",
							"name": "payout",
							"type": "uint256"
						}
					],
					"name": "updateWinner",
					"outputs": [],
					"stateMutability": "nonpayable",
					"type": "function"
				},
				{
					"inputs": [
						{
							"internalType": "address",
							"name": "account",
							"type": "address"
						}
					],
					"name": "userEntries",
					"outputs": [
						{
							"internalType": "uint256",
							"name": "",
							"type": "uint256"
						}
					],
					"stateMutability": "view",
					"type": "function"
				}
			],
			"devdoc": {
				"kind": "dev",
				"methods": {
					"owner()": {
						"details": "Returns the address of the current owner."
					},
					"renounceOwnership()": {
						"details": "Leaves the contract without owner. It will not be possible to call `onlyOwner` functions anymore. Can only be called by the current owner. NOTE: Renouncing ownership will leave the contract without an owner, thereby removing any functionality that is only available to the owner."
					},
					"transferOwnership(address)": {
						"details": "Transfers ownership of the contract to a new account (`newOwner`). Can only be called by the current owner."
					}
				},
				"version": 1
			},
			"evm": {
				"assembly": "    /* \"NFTlotto.sol\":729:4314  contract ACELotto is Ownable {   \r... */\n  mstore(0x40, 0x80)\n    /* \"NFTlotto.sol\":1178:1255  constructor(address _NFT){\r... */\n  callvalue\n  dup1\n  iszero\n  tag_1\n  jumpi\n  0x00\n  dup1\n  revert\ntag_1:\n  pop\n  mload(0x40)\n  sub(codesize, bytecodeSize)\n  dup1\n  bytecodeSize\n  dup4\n  codecopy\n  dup2\n  add\n  0x40\n  dup2\n  swap1\n  mstore\n  tag_2\n  swap2\n  tag_3\n  jump\t// in\ntag_2:\n    /* \"https://github.com/OpenZeppelin/openzeppelin-contracts/blob/master/contracts/access/Ownable.sol\":921:953  _transferOwnership(_msgSender()) */\n  tag_7\n    /* \"https://github.com/OpenZeppelin/openzeppelin-contracts/blob/master/contracts/utils/Context.sol\":719:729  msg.sender */\n  caller\n    /* \"https://github.com/OpenZeppelin/openzeppelin-contracts/blob/master/contracts/access/Ownable.sol\":921:939  _transferOwnership */\n  tag_10\n    /* \"https://github.com/OpenZeppelin/openzeppelin-contracts/blob/master/contracts/access/Ownable.sol\":921:953  _transferOwnership(_msgSender()) */\n  jump\t// in\ntag_7:\n    /* \"NFTlotto.sol\":1214:1221  acesNFT */\n  0x03\n    /* \"NFTlotto.sol\":1214:1247  acesNFT = IERC721Enumerable(_NFT) */\n  dup1\n  sload\n  not(sub(shl(0xa0, 0x01), 0x01))\n  and\n  sub(shl(0xa0, 0x01), 0x01)\n  swap3\n  swap1\n  swap3\n  and\n  swap2\n  swap1\n  swap2\n  or\n  swap1\n  sstore\n    /* \"NFTlotto.sol\":729:4314  contract ACELotto is Ownable {   \r... */\n  jump(tag_15)\n    /* \"https://github.com/OpenZeppelin/openzeppelin-contracts/blob/master/contracts/access/Ownable.sol\":2270:2457  function _transferOwnership(address newOwner) internal virtual {... */\ntag_10:\n    /* \"https://github.com/OpenZeppelin/openzeppelin-contracts/blob/master/contracts/access/Ownable.sol\":2343:2359  address oldOwner */\n  0x00\n    /* \"https://github.com/OpenZeppelin/openzeppelin-contracts/blob/master/contracts/access/Ownable.sol\":2362:2368  _owner */\n  dup1\n  sload\n  sub(shl(0xa0, 0x01), 0x01)\n    /* \"https://github.com/OpenZeppelin/openzeppelin-contracts/blob/master/contracts/access/Ownable.sol\":2378:2395  _owner = newOwner */\n  dup4\n  dup2\n  and\n  not(sub(shl(0xa0, 0x01), 0x01))\n  dup4\n  and\n  dup2\n  or\n  dup5\n  sstore\n    /* \"https://github.com/OpenZeppelin/openzeppelin-contracts/blob/master/contracts/access/Ownable.sol\":2410:2450  OwnershipTransferred(oldOwner, newOwner) */\n  mload(0x40)\n    /* \"https://github.com/OpenZeppelin/openzeppelin-contracts/blob/master/contracts/access/Ownable.sol\":2362:2368  _owner */\n  swap2\n  swap1\n  swap3\n  and\n  swap3\n  dup4\n  swap2\n    /* \"https://github.com/OpenZeppelin/openzeppelin-contracts/blob/master/contracts/access/Ownable.sol\":2410:2450  OwnershipTransferred(oldOwner, newOwner) */\n  0x8be0079c531659141344cd1fd0a4f28419497f9722a3daafe3b4186f6b6457e0\n  swap2\n    /* \"https://github.com/OpenZeppelin/openzeppelin-contracts/blob/master/contracts/access/Ownable.sol\":2343:2359  address oldOwner */\n  swap1\n    /* \"https://github.com/OpenZeppelin/openzeppelin-contracts/blob/master/contracts/access/Ownable.sol\":2410:2450  OwnershipTransferred(oldOwner, newOwner) */\n  log3\n    /* \"https://github.com/OpenZeppelin/openzeppelin-contracts/blob/master/contracts/access/Ownable.sol\":2333:2457  {... */\n  pop\n    /* \"https://github.com/OpenZeppelin/openzeppelin-contracts/blob/master/contracts/access/Ownable.sol\":2270:2457  function _transferOwnership(address newOwner) internal virtual {... */\n  pop\n  jump\t// out\n    /* \"#utility.yul\":14:304   */\ntag_3:\n    /* \"#utility.yul\":84:90   */\n  0x00\n    /* \"#utility.yul\":137:139   */\n  0x20\n    /* \"#utility.yul\":125:134   */\n  dup3\n    /* \"#utility.yul\":116:123   */\n  dup5\n    /* \"#utility.yul\":112:135   */\n  sub\n    /* \"#utility.yul\":108:140   */\n  slt\n    /* \"#utility.yul\":105:157   */\n  iszero\n  tag_17\n  jumpi\n    /* \"#utility.yul\":153:154   */\n  0x00\n    /* \"#utility.yul\":150:151   */\n  dup1\n    /* \"#utility.yul\":143:155   */\n  revert\n    /* \"#utility.yul\":105:157   */\ntag_17:\n    /* \"#utility.yul\":179:195   */\n  dup2\n  mload\n  sub(shl(0xa0, 0x01), 0x01)\n    /* \"#utility.yul\":224:255   */\n  dup2\n  and\n    /* \"#utility.yul\":214:256   */\n  dup2\n  eq\n    /* \"#utility.yul\":204:274   */\n  tag_18\n  jumpi\n    /* \"#utility.yul\":270:271   */\n  0x00\n    /* \"#utility.yul\":267:268   */\n  dup1\n    /* \"#utility.yul\":260:272   */\n  revert\n    /* \"#utility.yul\":204:274   */\ntag_18:\n    /* \"#utility.yul\":293:298   */\n  swap4\n    /* \"#utility.yul\":14:304   */\n  swap3\n  pop\n  pop\n  pop\n  jump\t// out\ntag_15:\n    /* \"NFTlotto.sol\":729:4314  contract ACELotto is Ownable {   \r... */\n  dataSize(sub_0)\n  dup1\n  dataOffset(sub_0)\n  0x00\n  codecopy\n  0x00\n  return\nstop\n\nsub_0: assembly {\n        /* \"NFTlotto.sol\":729:4314  contract ACELotto is Ownable {   \r... */\n      mstore(0x40, 0x80)\n      callvalue\n      dup1\n      iszero\n      tag_1\n      jumpi\n      0x00\n      dup1\n      revert\n    tag_1:\n      pop\n      jumpi(tag_2, lt(calldatasize, 0x04))\n      shr(0xe0, calldataload(0x00))\n      dup1\n      0x8da5cb5b\n      gt\n      tag_17\n      jumpi\n      dup1\n      0xaeb18350\n      gt\n      tag_18\n      jumpi\n      dup1\n      0xaeb18350\n      eq\n      tag_13\n      jumpi\n      dup1\n      0xbc15cdf0\n      eq\n      tag_14\n      jumpi\n      dup1\n      0xf2fde38b\n      eq\n      tag_15\n      jumpi\n      dup1\n      0xf737d21d\n      eq\n      tag_16\n      jumpi\n      0x00\n      dup1\n      revert\n    tag_18:\n      dup1\n      0x8da5cb5b\n      eq\n      tag_10\n      jumpi\n      dup1\n      0x9f10a990\n      eq\n      tag_11\n      jumpi\n      dup1\n      0xac128f4f\n      eq\n      tag_12\n      jumpi\n      0x00\n      dup1\n      revert\n    tag_17:\n      dup1\n      0x3b98bc65\n      gt\n      tag_19\n      jumpi\n      dup1\n      0x3b98bc65\n      eq\n      tag_6\n      jumpi\n      dup1\n      0x454f7b8f\n      eq\n      tag_7\n      jumpi\n      dup1\n      0x6fbb5a86\n      eq\n      tag_8\n      jumpi\n      dup1\n      0x715018a6\n      eq\n      tag_9\n      jumpi\n      0x00\n      dup1\n      revert\n    tag_19:\n      dup1\n      0x119b22b3\n      eq\n      tag_3\n      jumpi\n      dup1\n      0x158977de\n      eq\n      tag_4\n      jumpi\n      dup1\n      0x17be85c3\n      eq\n      tag_5\n      jumpi\n    tag_2:\n      0x00\n      dup1\n      revert\n        /* \"NFTlotto.sol\":773:796  uint256 public roundNum */\n    tag_3:\n      tag_20\n      sload(0x01)\n      dup2\n      jump\n    tag_20:\n      mload(0x40)\n        /* \"#utility.yul\":5713:5738   */\n      swap1\n      dup2\n      mstore\n        /* \"#utility.yul\":5701:5703   */\n      0x20\n        /* \"#utility.yul\":5686:5704   */\n      add\n        /* \"NFTlotto.sol\":773:796  uint256 public roundNum */\n    tag_22:\n      mload(0x40)\n      dup1\n      swap2\n      sub\n      swap1\n      return\n        /* \"NFTlotto.sol\":2902:3244  function getUniqueUsers() public view returns (uint256 counter) {\r... */\n    tag_4:\n      tag_20\n      tag_25\n      jump\t// in\n        /* \"NFTlotto.sol\":2795:2894  function getEntries() public view returns (uint256) {\r... */\n    tag_5:\n      tag_20\n      tag_28\n      jump\t// in\n        /* \"NFTlotto.sol\":3252:3925  function getUniqueAddresses() public view returns (address [] memory addresses, uint256 [] memory entries) {\r... */\n    tag_6:\n      tag_30\n      tag_31\n      jump\t// in\n    tag_30:\n      mload(0x40)\n      tag_22\n      swap3\n      swap2\n      swap1\n      tag_33\n      jump\t// in\n        /* \"NFTlotto.sol\":803:829  uint256 public totalPayout */\n    tag_7:\n      tag_20\n      sload(0x02)\n      dup2\n      jump\n        /* \"NFTlotto.sol\":1541:2059  function updateWinner(uint256 winnerNum, uint256 payout) external onlyOwner {      \r... */\n    tag_8:\n      tag_37\n      tag_38\n      calldatasize\n      0x04\n      tag_39\n      jump\t// in\n    tag_38:\n      tag_40\n      jump\t// in\n    tag_37:\n      stop\n        /* \"https://github.com/OpenZeppelin/openzeppelin-contracts/blob/master/contracts/access/Ownable.sol\":1668:1769  function renounceOwnership() public virtual onlyOwner {... */\n    tag_9:\n      tag_37\n      tag_42\n      jump\t// in\n        /* \"https://github.com/OpenZeppelin/openzeppelin-contracts/blob/master/contracts/access/Ownable.sol\":1036:1121  function owner() public view virtual returns (address) {... */\n    tag_10:\n        /* \"https://github.com/OpenZeppelin/openzeppelin-contracts/blob/master/contracts/access/Ownable.sol\":1082:1089  address */\n      0x00\n        /* \"https://github.com/OpenZeppelin/openzeppelin-contracts/blob/master/contracts/access/Ownable.sol\":1108:1114  _owner */\n      sload\n      sub(shl(0xa0, 0x01), 0x01)\n      and\n        /* \"https://github.com/OpenZeppelin/openzeppelin-contracts/blob/master/contracts/access/Ownable.sol\":1036:1121  function owner() public view virtual returns (address) {... */\n    tag_43:\n      mload(0x40)\n      sub(shl(0xa0, 0x01), 0x01)\n        /* \"#utility.yul\":1743:1775   */\n      swap1\n      swap2\n      and\n        /* \"#utility.yul\":1725:1776   */\n      dup2\n      mstore\n        /* \"#utility.yul\":1713:1715   */\n      0x20\n        /* \"#utility.yul\":1698:1716   */\n      add\n        /* \"https://github.com/OpenZeppelin/openzeppelin-contracts/blob/master/contracts/access/Ownable.sol\":1036:1121  function owner() public view virtual returns (address) {... */\n      tag_22\n        /* \"#utility.yul\":1579:1782   */\n      jump\n        /* \"NFTlotto.sol\":2069:2189  function userEntries(address account) public view returns (uint256) {\r... */\n    tag_11:\n      tag_20\n      tag_48\n      calldatasize\n      0x04\n      tag_49\n      jump\t// in\n    tag_48:\n      tag_50\n      jump\t// in\n        /* \"NFTlotto.sol\":1065:1112  mapping(uint256 => Results) public roundResults */\n    tag_12:\n      tag_52\n      tag_53\n      calldatasize\n      0x04\n      tag_54\n      jump\t// in\n    tag_53:\n      0x04\n      0x20\n      dup2\n      swap1\n      mstore\n      0x00\n      swap2\n      dup3\n      mstore\n      0x40\n      swap1\n      swap2\n      keccak256\n      dup1\n      sload\n      0x01\n      dup3\n      add\n      sload\n      0x02\n      dup4\n      add\n      sload\n      0x03\n      dup5\n      add\n      sload\n      swap4\n      swap1\n      swap5\n      add\n      sload\n      swap2\n      swap4\n      swap1\n      swap3\n      swap1\n      swap2\n      sub(shl(0xa0, 0x01), 0x01)\n      and\n      dup6\n      jump\n    tag_52:\n      0x40\n      dup1\n      mload\n        /* \"#utility.yul\":6287:6312   */\n      swap6\n      dup7\n      mstore\n        /* \"#utility.yul\":6343:6345   */\n      0x20\n        /* \"#utility.yul\":6328:6346   */\n      dup7\n      add\n        /* \"#utility.yul\":6321:6355   */\n      swap5\n      swap1\n      swap5\n      mstore\n        /* \"#utility.yul\":6371:6389   */\n      swap3\n      dup5\n      add\n        /* \"#utility.yul\":6364:6398   */\n      swap2\n      swap1\n      swap2\n      mstore\n        /* \"#utility.yul\":6429:6431   */\n      0x60\n        /* \"#utility.yul\":6414:6432   */\n      dup4\n      add\n        /* \"#utility.yul\":6407:6441   */\n      mstore\n      sub(shl(0xa0, 0x01), 0x01)\n        /* \"#utility.yul\":6478:6510   */\n      and\n        /* \"#utility.yul\":6472:6475   */\n      0x80\n        /* \"#utility.yul\":6457:6476   */\n      dup3\n      add\n        /* \"#utility.yul\":6450:6511   */\n      mstore\n        /* \"#utility.yul\":6274:6277   */\n      0xa0\n        /* \"#utility.yul\":6259:6278   */\n      add\n        /* \"NFTlotto.sol\":1065:1112  mapping(uint256 => Results) public roundResults */\n      tag_22\n        /* \"#utility.yul\":6028:6517   */\n      jump\n        /* \"NFTlotto.sol\":842:874  IERC721Enumerable public acesNFT */\n    tag_13:\n      sload(0x03)\n      tag_43\n      swap1\n      sub(shl(0xa0, 0x01), 0x01)\n      and\n      dup2\n      jump\n        /* \"NFTlotto.sol\":2197:2787  function resultLog(uint256 startIndex, uint256 endIndex) external view returns(Results [] memory log){\r... */\n    tag_14:\n      tag_62\n      tag_63\n      calldatasize\n      0x04\n      tag_39\n      jump\t// in\n    tag_63:\n      tag_64\n      jump\t// in\n    tag_62:\n      mload(0x40)\n      tag_22\n      swap2\n      swap1\n      tag_66\n      jump\t// in\n        /* \"https://github.com/OpenZeppelin/openzeppelin-contracts/blob/master/contracts/access/Ownable.sol\":1918:2116  function transferOwnership(address newOwner) public virtual onlyOwner {... */\n    tag_15:\n      tag_37\n      tag_68\n      calldatasize\n      0x04\n      tag_49\n      jump\t// in\n    tag_68:\n      tag_69\n      jump\t// in\n        /* \"NFTlotto.sol\":1263:1533  function pickWinner(uint256 seed) external view returns(uint256 winnerNum, address winnerAddress) {\r... */\n    tag_16:\n      tag_70\n      tag_71\n      calldatasize\n      0x04\n      tag_54\n      jump\t// in\n    tag_71:\n      tag_72\n      jump\t// in\n    tag_70:\n      0x40\n      dup1\n      mload\n        /* \"#utility.yul\":5923:5948   */\n      swap3\n      dup4\n      mstore\n      sub(shl(0xa0, 0x01), 0x01)\n        /* \"#utility.yul\":5984:6016   */\n      swap1\n      swap2\n      and\n        /* \"#utility.yul\":5979:5981   */\n      0x20\n        /* \"#utility.yul\":5964:5982   */\n      dup4\n      add\n        /* \"#utility.yul\":5957:6017   */\n      mstore\n        /* \"#utility.yul\":5896:5914   */\n      add\n        /* \"NFTlotto.sol\":1263:1533  function pickWinner(uint256 seed) external view returns(uint256 winnerNum, address winnerAddress) {\r... */\n      tag_22\n        /* \"#utility.yul\":5749:6023   */\n      jump\n        /* \"NFTlotto.sol\":2902:3244  function getUniqueUsers() public view returns (uint256 counter) {\r... */\n    tag_25:\n        /* \"NFTlotto.sol\":2949:2964  uint256 counter */\n      0x00\n        /* \"NFTlotto.sol\":2977:2997  uint256 roundEntries */\n      dup1\n        /* \"NFTlotto.sol\":3000:3007  acesNFT */\n      0x03\n      0x00\n      swap1\n      sload\n      swap1\n      0x0100\n      exp\n      swap1\n      div\n      sub(shl(0xa0, 0x01), 0x01)\n      and\n      sub(shl(0xa0, 0x01), 0x01)\n        /* \"NFTlotto.sol\":3000:3019  acesNFT.totalSupply */\n      and\n      0x18160ddd\n        /* \"NFTlotto.sol\":3000:3021  acesNFT.totalSupply() */\n      mload(0x40)\n      dup2\n      0xffffffff\n      and\n      0xe0\n      shl\n      dup2\n      mstore\n      0x04\n      add\n      0x20\n      mload(0x40)\n      dup1\n      dup4\n      sub\n      dup2\n      dup7\n      dup1\n      extcodesize\n      iszero\n      dup1\n      iszero\n      tag_76\n      jumpi\n      0x00\n      dup1\n      revert\n    tag_76:\n      pop\n      gas\n      staticcall\n      iszero\n      dup1\n      iszero\n      tag_78\n      jumpi\n      returndatasize\n      0x00\n      dup1\n      returndatacopy\n      revert(0x00, returndatasize)\n    tag_78:\n      pop\n      pop\n      pop\n      pop\n      mload(0x40)\n      returndatasize\n      not(0x1f)\n      0x1f\n      dup3\n      add\n      and\n      dup3\n      add\n      dup1\n      0x40\n      mstore\n      pop\n      dup2\n      add\n      swap1\n      tag_79\n      swap2\n      swap1\n      tag_80\n      jump\t// in\n    tag_79:\n        /* \"NFTlotto.sol\":2977:3021  uint256 roundEntries = acesNFT.totalSupply() */\n      swap1\n      pop\n        /* \"NFTlotto.sol\":3048:3049  1 */\n      0x01\n        /* \"NFTlotto.sol\":3034:3237  for(uint256 i=1; i <= roundEntries; i++){\r... */\n    tag_81:\n        /* \"NFTlotto.sol\":3056:3068  roundEntries */\n      dup2\n        /* \"NFTlotto.sol\":3051:3052  i */\n      dup2\n        /* \"NFTlotto.sol\":3051:3068  i <= roundEntries */\n      gt\n        /* \"NFTlotto.sol\":3034:3237  for(uint256 i=1; i <= roundEntries; i++){\r... */\n      tag_82\n      jumpi\n        /* \"NFTlotto.sol\":3104:3111  acesNFT */\n      sload(0x03)\n        /* \"NFTlotto.sol\":3104:3122  acesNFT.ownerOf(i) */\n      mload(0x40)\n      shl(0xe1, 0x31a9108f)\n      dup2\n      mstore\n      0x04\n      dup2\n      add\n        /* \"#utility.yul\":5713:5738   */\n      dup4\n      swap1\n      mstore\n        /* \"NFTlotto.sol\":3089:3101  address user */\n      0x00\n      swap2\n      sub(shl(0xa0, 0x01), 0x01)\n        /* \"NFTlotto.sol\":3104:3111  acesNFT */\n      and\n      swap1\n        /* \"NFTlotto.sol\":3104:3119  acesNFT.ownerOf */\n      0x6352211e\n      swap1\n        /* \"#utility.yul\":5686:5704   */\n      0x24\n      add\n        /* \"NFTlotto.sol\":3104:3122  acesNFT.ownerOf(i) */\n      0x20\n      mload(0x40)\n      dup1\n      dup4\n      sub\n      dup2\n      dup7\n      dup1\n      extcodesize\n      iszero\n      dup1\n      iszero\n      tag_85\n      jumpi\n      0x00\n      dup1\n      revert\n    tag_85:\n      pop\n      gas\n      staticcall\n      iszero\n      dup1\n      iszero\n      tag_87\n      jumpi\n      returndatasize\n      0x00\n      dup1\n      returndatacopy\n      revert(0x00, returndatasize)\n    tag_87:\n      pop\n      pop\n      pop\n      pop\n      mload(0x40)\n      returndatasize\n      not(0x1f)\n      0x1f\n      dup3\n      add\n      and\n      dup3\n      add\n      dup1\n      0x40\n      mstore\n      pop\n      dup2\n      add\n      swap1\n      tag_88\n      swap2\n      swap1\n      tag_89\n      jump\t// in\n    tag_88:\n        /* \"NFTlotto.sol\":3145:3152  acesNFT */\n      sload(0x03)\n        /* \"NFTlotto.sol\":3145:3181  acesNFT.tokenOfOwnerByIndex(user, 0) */\n      mload(0x40)\n      shl(0xe0, 0x2f745c59)\n      dup2\n      mstore\n      sub(shl(0xa0, 0x01), 0x01)\n        /* \"#utility.yul\":1987:2019   */\n      dup1\n      dup5\n      and\n        /* \"NFTlotto.sol\":3145:3181  acesNFT.tokenOfOwnerByIndex(user, 0) */\n      0x04\n      dup4\n      add\n        /* \"#utility.yul\":1969:2020   */\n      mstore\n        /* \"NFTlotto.sol\":3145:3152  acesNFT */\n      0x00\n        /* \"#utility.yul\":2036:2054   */\n      0x24\n      dup4\n      add\n        /* \"#utility.yul\":2029:2063   */\n      mstore\n        /* \"NFTlotto.sol\":3089:3122  address user = acesNFT.ownerOf(i) */\n      swap3\n      swap4\n      pop\n        /* \"NFTlotto.sol\":3145:3152  acesNFT */\n      swap2\n      and\n      swap1\n        /* \"NFTlotto.sol\":3145:3172  acesNFT.tokenOfOwnerByIndex */\n      0x2f745c59\n      swap1\n        /* \"#utility.yul\":1942:1960   */\n      0x44\n      add\n        /* \"NFTlotto.sol\":3145:3181  acesNFT.tokenOfOwnerByIndex(user, 0) */\n      0x20\n      mload(0x40)\n      dup1\n      dup4\n      sub\n      dup2\n      dup7\n      dup1\n      extcodesize\n      iszero\n      dup1\n      iszero\n      tag_92\n      jumpi\n      0x00\n      dup1\n      revert\n    tag_92:\n      pop\n      gas\n      staticcall\n      iszero\n      dup1\n      iszero\n      tag_94\n      jumpi\n      returndatasize\n      0x00\n      dup1\n      returndatacopy\n      revert(0x00, returndatasize)\n    tag_94:\n      pop\n      pop\n      pop\n      pop\n      mload(0x40)\n      returndatasize\n      not(0x1f)\n      0x1f\n      dup3\n      add\n      and\n      dup3\n      add\n      dup1\n      0x40\n      mstore\n      pop\n      dup2\n      add\n      swap1\n      tag_95\n      swap2\n      swap1\n      tag_80\n      jump\t// in\n    tag_95:\n        /* \"NFTlotto.sol\":3140:3141  i */\n      dup3\n        /* \"NFTlotto.sol\":3140:3181  i == acesNFT.tokenOfOwnerByIndex(user, 0) */\n      eq\n        /* \"NFTlotto.sol\":3137:3226  if(i == acesNFT.tokenOfOwnerByIndex(user, 0)){\r... */\n      iszero\n      tag_96\n      jumpi\n        /* \"NFTlotto.sol\":3201:3210  counter++ */\n      dup4\n      tag_97\n      dup2\n      tag_98\n      jump\t// in\n    tag_97:\n      swap5\n      pop\n      pop\n        /* \"NFTlotto.sol\":3137:3226  if(i == acesNFT.tokenOfOwnerByIndex(user, 0)){\r... */\n    tag_96:\n      pop\n        /* \"NFTlotto.sol\":3070:3073  i++ */\n      dup1\n      tag_99\n      dup2\n      tag_98\n      jump\t// in\n    tag_99:\n      swap2\n      pop\n      pop\n        /* \"NFTlotto.sol\":3034:3237  for(uint256 i=1; i <= roundEntries; i++){\r... */\n      jump(tag_81)\n    tag_82:\n      pop\n        /* \"NFTlotto.sol\":2966:3244  {\r... */\n      pop\n        /* \"NFTlotto.sol\":2902:3244  function getUniqueUsers() public view returns (uint256 counter) {\r... */\n      swap1\n      jump\t// out\n        /* \"NFTlotto.sol\":2795:2894  function getEntries() public view returns (uint256) {\r... */\n    tag_28:\n        /* \"NFTlotto.sol\":2865:2872  acesNFT */\n      sload(0x03)\n        /* \"NFTlotto.sol\":2865:2886  acesNFT.totalSupply() */\n      0x40\n      dup1\n      mload\n      shl(0xe0, 0x18160ddd)\n      dup2\n      mstore\n      swap1\n      mload\n        /* \"NFTlotto.sol\":2838:2845  uint256 */\n      0x00\n      swap3\n      sub(shl(0xa0, 0x01), 0x01)\n        /* \"NFTlotto.sol\":2865:2872  acesNFT */\n      and\n      swap2\n        /* \"NFTlotto.sol\":2865:2884  acesNFT.totalSupply */\n      0x18160ddd\n      swap2\n        /* \"NFTlotto.sol\":2865:2886  acesNFT.totalSupply() */\n      0x04\n      dup1\n      dup4\n      add\n      swap3\n      0x20\n      swap3\n      swap2\n      swap1\n      dup3\n      swap1\n      sub\n      add\n      dup2\n        /* \"NFTlotto.sol\":2865:2872  acesNFT */\n      dup7\n        /* \"NFTlotto.sol\":2865:2886  acesNFT.totalSupply() */\n      dup1\n      extcodesize\n      iszero\n      dup1\n      iszero\n      tag_101\n      jumpi\n      0x00\n      dup1\n      revert\n    tag_101:\n      pop\n      gas\n      staticcall\n      iszero\n      dup1\n      iszero\n      tag_103\n      jumpi\n      returndatasize\n      0x00\n      dup1\n      returndatacopy\n      revert(0x00, returndatasize)\n    tag_103:\n      pop\n      pop\n      pop\n      pop\n      mload(0x40)\n      returndatasize\n      not(0x1f)\n      0x1f\n      dup3\n      add\n      and\n      dup3\n      add\n      dup1\n      0x40\n      mstore\n      pop\n      dup2\n      add\n      swap1\n      tag_104\n      swap2\n      swap1\n      tag_80\n      jump\t// in\n    tag_104:\n        /* \"NFTlotto.sol\":2858:2886  return acesNFT.totalSupply() */\n      swap1\n      pop\n        /* \"NFTlotto.sol\":2795:2894  function getEntries() public view returns (uint256) {\r... */\n      swap1\n      jump\t// out\n        /* \"NFTlotto.sol\":3252:3925  function getUniqueAddresses() public view returns (address [] memory addresses, uint256 [] memory entries) {\r... */\n    tag_31:\n        /* \"NFTlotto.sol\":3303:3330  address [] memory addresses */\n      0x60\n        /* \"NFTlotto.sol\":3332:3357  uint256 [] memory entries */\n      dup1\n        /* \"NFTlotto.sol\":3370:3390  uint256 roundEntries */\n      0x00\n        /* \"NFTlotto.sol\":3393:3400  acesNFT */\n      0x03\n      0x00\n      swap1\n      sload\n      swap1\n      0x0100\n      exp\n      swap1\n      div\n      sub(shl(0xa0, 0x01), 0x01)\n      and\n      sub(shl(0xa0, 0x01), 0x01)\n        /* \"NFTlotto.sol\":3393:3412  acesNFT.totalSupply */\n      and\n      0x18160ddd\n        /* \"NFTlotto.sol\":3393:3414  acesNFT.totalSupply() */\n      mload(0x40)\n      dup2\n      0xffffffff\n      and\n      0xe0\n      shl\n      dup2\n      mstore\n      0x04\n      add\n      0x20\n      mload(0x40)\n      dup1\n      dup4\n      sub\n      dup2\n      dup7\n      dup1\n      extcodesize\n      iszero\n      dup1\n      iszero\n      tag_106\n      jumpi\n      0x00\n      dup1\n      revert\n    tag_106:\n      pop\n      gas\n      staticcall\n      iszero\n      dup1\n      iszero\n      tag_108\n      jumpi\n      returndatasize\n      0x00\n      dup1\n      returndatacopy\n      revert(0x00, returndatasize)\n    tag_108:\n      pop\n      pop\n      pop\n      pop\n      mload(0x40)\n      returndatasize\n      not(0x1f)\n      0x1f\n      dup3\n      add\n      and\n      dup3\n      add\n      dup1\n      0x40\n      mstore\n      pop\n      dup2\n      add\n      swap1\n      tag_109\n      swap2\n      swap1\n      tag_80\n      jump\t// in\n    tag_109:\n        /* \"NFTlotto.sol\":3370:3414  uint256 roundEntries = acesNFT.totalSupply() */\n      swap1\n      pop\n        /* \"NFTlotto.sol\":3425:3444  uint256 arrayLength */\n      0x00\n        /* \"NFTlotto.sol\":3447:3463  getUniqueUsers() */\n      tag_110\n        /* \"NFTlotto.sol\":3447:3461  getUniqueUsers */\n      tag_25\n        /* \"NFTlotto.sol\":3447:3463  getUniqueUsers() */\n      jump\t// in\n    tag_110:\n        /* \"NFTlotto.sol\":3425:3463  uint256 arrayLength = getUniqueUsers() */\n      swap1\n      pop\n        /* \"NFTlotto.sol\":3500:3511  arrayLength */\n      dup1\n        /* \"NFTlotto.sol\":3486:3512  new address[](arrayLength) */\n      0xffffffffffffffff\n      dup2\n      gt\n      iszero\n      tag_112\n      jumpi\n      tag_112\n      tag_113\n      jump\t// in\n    tag_112:\n      mload(0x40)\n      swap1\n      dup1\n      dup3\n      mstore\n      dup1\n      0x20\n      mul\n      0x20\n      add\n      dup3\n      add\n      0x40\n      mstore\n      dup1\n      iszero\n      tag_114\n      jumpi\n      dup2\n      0x20\n      add\n      0x20\n      dup3\n      mul\n      dup1\n      calldatasize\n      dup4\n      calldatacopy\n      add\n      swap1\n      pop\n    tag_114:\n      pop\n        /* \"NFTlotto.sol\":3474:3512  addresses = new address[](arrayLength) */\n      swap4\n      pop\n        /* \"NFTlotto.sol\":3547:3558  arrayLength */\n      dup1\n        /* \"NFTlotto.sol\":3533:3559  new uint256[](arrayLength) */\n      0xffffffffffffffff\n      dup2\n      gt\n      iszero\n      tag_116\n      jumpi\n      tag_116\n      tag_113\n      jump\t// in\n    tag_116:\n      mload(0x40)\n      swap1\n      dup1\n      dup3\n      mstore\n      dup1\n      0x20\n      mul\n      0x20\n      add\n      dup3\n      add\n      0x40\n      mstore\n      dup1\n      iszero\n      tag_117\n      jumpi\n      dup2\n      0x20\n      add\n      0x20\n      dup3\n      mul\n      dup1\n      calldatasize\n      dup4\n      calldatacopy\n      add\n      swap1\n      pop\n    tag_117:\n      pop\n        /* \"NFTlotto.sol\":3523:3559  entries = new uint256[](arrayLength) */\n      swap3\n      pop\n        /* \"NFTlotto.sol\":3570:3590  uint256 currentIndex */\n      0x00\n        /* \"NFTlotto.sol\":3615:3616  1 */\n      0x01\n        /* \"NFTlotto.sol\":3601:3918  for(uint256 i=1; i <= roundEntries; i++){\r... */\n    tag_118:\n        /* \"NFTlotto.sol\":3623:3635  roundEntries */\n      dup4\n        /* \"NFTlotto.sol\":3618:3619  i */\n      dup2\n        /* \"NFTlotto.sol\":3618:3635  i <= roundEntries */\n      gt\n        /* \"NFTlotto.sol\":3601:3918  for(uint256 i=1; i <= roundEntries; i++){\r... */\n      tag_119\n      jumpi\n        /* \"NFTlotto.sol\":3671:3678  acesNFT */\n      sload(0x03)\n        /* \"NFTlotto.sol\":3671:3689  acesNFT.ownerOf(i) */\n      mload(0x40)\n      shl(0xe1, 0x31a9108f)\n      dup2\n      mstore\n      0x04\n      dup2\n      add\n        /* \"#utility.yul\":5713:5738   */\n      dup4\n      swap1\n      mstore\n        /* \"NFTlotto.sol\":3656:3668  address user */\n      0x00\n      swap2\n      sub(shl(0xa0, 0x01), 0x01)\n        /* \"NFTlotto.sol\":3671:3678  acesNFT */\n      and\n      swap1\n        /* \"NFTlotto.sol\":3671:3686  acesNFT.ownerOf */\n      0x6352211e\n      swap1\n        /* \"#utility.yul\":5686:5704   */\n      0x24\n      add\n        /* \"NFTlotto.sol\":3671:3689  acesNFT.ownerOf(i) */\n      0x20\n      mload(0x40)\n      dup1\n      dup4\n      sub\n      dup2\n      dup7\n      dup1\n      extcodesize\n      iszero\n      dup1\n      iszero\n      tag_122\n      jumpi\n      0x00\n      dup1\n      revert\n    tag_122:\n      pop\n      gas\n      staticcall\n      iszero\n      dup1\n      iszero\n      tag_124\n      jumpi\n      returndatasize\n      0x00\n      dup1\n      returndatacopy\n      revert(0x00, returndatasize)\n    tag_124:\n      pop\n      pop\n      pop\n      pop\n      mload(0x40)\n      returndatasize\n      not(0x1f)\n      0x1f\n      dup3\n      add\n      and\n      dup3\n      add\n      dup1\n      0x40\n      mstore\n      pop\n      dup2\n      add\n      swap1\n      tag_125\n      swap2\n      swap1\n      tag_89\n      jump\t// in\n    tag_125:\n        /* \"NFTlotto.sol\":3712:3719  acesNFT */\n      sload(0x03)\n        /* \"NFTlotto.sol\":3712:3748  acesNFT.tokenOfOwnerByIndex(user, 0) */\n      mload(0x40)\n      shl(0xe0, 0x2f745c59)\n      dup2\n      mstore\n      sub(shl(0xa0, 0x01), 0x01)\n        /* \"#utility.yul\":1987:2019   */\n      dup1\n      dup5\n      and\n        /* \"NFTlotto.sol\":3712:3748  acesNFT.tokenOfOwnerByIndex(user, 0) */\n      0x04\n      dup4\n      add\n        /* \"#utility.yul\":1969:2020   */\n      mstore\n        /* \"NFTlotto.sol\":3712:3719  acesNFT */\n      0x00\n        /* \"#utility.yul\":2036:2054   */\n      0x24\n      dup4\n      add\n        /* \"#utility.yul\":2029:2063   */\n      mstore\n        /* \"NFTlotto.sol\":3656:3689  address user = acesNFT.ownerOf(i) */\n      swap3\n      swap4\n      pop\n        /* \"NFTlotto.sol\":3712:3719  acesNFT */\n      swap2\n      and\n      swap1\n        /* \"NFTlotto.sol\":3712:3739  acesNFT.tokenOfOwnerByIndex */\n      0x2f745c59\n      swap1\n        /* \"#utility.yul\":1942:1960   */\n      0x44\n      add\n        /* \"NFTlotto.sol\":3712:3748  acesNFT.tokenOfOwnerByIndex(user, 0) */\n      0x20\n      mload(0x40)\n      dup1\n      dup4\n      sub\n      dup2\n      dup7\n      dup1\n      extcodesize\n      iszero\n      dup1\n      iszero\n      tag_127\n      jumpi\n      0x00\n      dup1\n      revert\n    tag_127:\n      pop\n      gas\n      staticcall\n      iszero\n      dup1\n      iszero\n      tag_129\n      jumpi\n      returndatasize\n      0x00\n      dup1\n      returndatacopy\n      revert(0x00, returndatasize)\n    tag_129:\n      pop\n      pop\n      pop\n      pop\n      mload(0x40)\n      returndatasize\n      not(0x1f)\n      0x1f\n      dup3\n      add\n      and\n      dup3\n      add\n      dup1\n      0x40\n      mstore\n      pop\n      dup2\n      add\n      swap1\n      tag_130\n      swap2\n      swap1\n      tag_80\n      jump\t// in\n    tag_130:\n        /* \"NFTlotto.sol\":3707:3708  i */\n      dup3\n        /* \"NFTlotto.sol\":3707:3748  i == acesNFT.tokenOfOwnerByIndex(user, 0) */\n      eq\n        /* \"NFTlotto.sol\":3704:3907  if(i == acesNFT.tokenOfOwnerByIndex(user, 0)){\r... */\n      iszero\n      tag_131\n      jumpi\n        /* \"NFTlotto.sol\":3794:3798  user */\n      dup1\n        /* \"NFTlotto.sol\":3768:3777  addresses */\n      dup8\n        /* \"NFTlotto.sol\":3778:3790  currentIndex */\n      dup5\n        /* \"NFTlotto.sol\":3768:3791  addresses[currentIndex] */\n      dup2\n      mload\n      dup2\n      lt\n      tag_133\n      jumpi\n      tag_133\n      tag_134\n      jump\t// in\n    tag_133:\n      0x20\n      mul\n      0x20\n      add\n      add\n        /* \"NFTlotto.sol\":3768:3798  addresses[currentIndex] = user */\n      swap1\n      sub(shl(0xa0, 0x01), 0x01)\n      and\n      swap1\n      dup2\n      sub(shl(0xa0, 0x01), 0x01)\n      and\n      dup2\n      mstore\n      pop\n      pop\n        /* \"NFTlotto.sol\":3841:3858  userEntries(user) */\n      tag_135\n        /* \"NFTlotto.sol\":3853:3857  user */\n      dup2\n        /* \"NFTlotto.sol\":3841:3852  userEntries */\n      tag_50\n        /* \"NFTlotto.sol\":3841:3858  userEntries(user) */\n      jump\t// in\n    tag_135:\n        /* \"NFTlotto.sol\":3817:3824  entries */\n      dup7\n        /* \"NFTlotto.sol\":3825:3837  currentIndex */\n      dup5\n        /* \"NFTlotto.sol\":3817:3838  entries[currentIndex] */\n      dup2\n      mload\n      dup2\n      lt\n      tag_137\n      jumpi\n      tag_137\n      tag_134\n      jump\t// in\n    tag_137:\n      0x20\n      swap1\n      dup2\n      mul\n      swap2\n      swap1\n      swap2\n      add\n      add\n        /* \"NFTlotto.sol\":3817:3858  entries[currentIndex] = userEntries(user) */\n      mstore\n        /* \"NFTlotto.sol\":3877:3891  currentIndex++ */\n      dup3\n      tag_138\n      dup2\n      tag_98\n      jump\t// in\n    tag_138:\n      swap4\n      pop\n      pop\n        /* \"NFTlotto.sol\":3704:3907  if(i == acesNFT.tokenOfOwnerByIndex(user, 0)){\r... */\n    tag_131:\n      pop\n        /* \"NFTlotto.sol\":3637:3640  i++ */\n      dup1\n      tag_139\n      dup2\n      tag_98\n      jump\t// in\n    tag_139:\n      swap2\n      pop\n      pop\n        /* \"NFTlotto.sol\":3601:3918  for(uint256 i=1; i <= roundEntries; i++){\r... */\n      jump(tag_118)\n    tag_119:\n      pop\n        /* \"NFTlotto.sol\":3359:3925  {\r... */\n      pop\n      pop\n      pop\n        /* \"NFTlotto.sol\":3252:3925  function getUniqueAddresses() public view returns (address [] memory addresses, uint256 [] memory entries) {\r... */\n      swap1\n      swap2\n      jump\t// out\n        /* \"NFTlotto.sol\":1541:2059  function updateWinner(uint256 winnerNum, uint256 payout) external onlyOwner {      \r... */\n    tag_40:\n        /* \"https://github.com/OpenZeppelin/openzeppelin-contracts/blob/master/contracts/access/Ownable.sol\":1082:1089  address */\n      0x00\n        /* \"https://github.com/OpenZeppelin/openzeppelin-contracts/blob/master/contracts/access/Ownable.sol\":1108:1114  _owner */\n      sload\n      sub(shl(0xa0, 0x01), 0x01)\n      and\n        /* \"https://github.com/OpenZeppelin/openzeppelin-contracts/blob/master/contracts/utils/Context.sol\":719:729  msg.sender */\n      caller\n        /* \"https://github.com/OpenZeppelin/openzeppelin-contracts/blob/master/contracts/access/Ownable.sol\":1248:1271  owner() == _msgSender() */\n      eq\n        /* \"https://github.com/OpenZeppelin/openzeppelin-contracts/blob/master/contracts/access/Ownable.sol\":1240:1308  require(owner() == _msgSender(), \"Ownable: caller is not the owner\") */\n      tag_144\n      jumpi\n      mload(0x40)\n      shl(0xe5, 0x461bcd)\n      dup2\n      mstore\n      0x04\n      add\n      tag_145\n      swap1\n      tag_146\n      jump\t// in\n    tag_145:\n      mload(0x40)\n      dup1\n      swap2\n      sub\n      swap1\n      revert\n    tag_144:\n        /* \"NFTlotto.sol\":1658:1665  acesNFT */\n      sload(0x03)\n        /* \"NFTlotto.sol\":1658:1684  acesNFT.ownerOf(winnerNum) */\n      mload(0x40)\n      shl(0xe1, 0x31a9108f)\n      dup2\n      mstore\n      0x04\n      dup2\n      add\n        /* \"#utility.yul\":5713:5738   */\n      dup5\n      swap1\n      mstore\n        /* \"NFTlotto.sol\":1634:1655  address winnerAddress */\n      0x00\n      swap2\n      sub(shl(0xa0, 0x01), 0x01)\n        /* \"NFTlotto.sol\":1658:1665  acesNFT */\n      and\n      swap1\n        /* \"NFTlotto.sol\":1658:1673  acesNFT.ownerOf */\n      0x6352211e\n      swap1\n        /* \"#utility.yul\":5686:5704   */\n      0x24\n      add\n        /* \"NFTlotto.sol\":1658:1684  acesNFT.ownerOf(winnerNum) */\n      0x20\n      mload(0x40)\n      dup1\n      dup4\n      sub\n      dup2\n      dup7\n      dup1\n      extcodesize\n      iszero\n      dup1\n      iszero\n      tag_149\n      jumpi\n      0x00\n      dup1\n      revert\n    tag_149:\n      pop\n      gas\n      staticcall\n      iszero\n      dup1\n      iszero\n      tag_151\n      jumpi\n      returndatasize\n      0x00\n      dup1\n      returndatacopy\n      revert(0x00, returndatasize)\n    tag_151:\n      pop\n      pop\n      pop\n      pop\n      mload(0x40)\n      returndatasize\n      not(0x1f)\n      0x1f\n      dup3\n      add\n      and\n      dup3\n      add\n      dup1\n      0x40\n      mstore\n      pop\n      dup2\n      add\n      swap1\n      tag_152\n      swap2\n      swap1\n      tag_89\n      jump\t// in\n    tag_152:\n        /* \"NFTlotto.sol\":1722:1945  Results ({\r... */\n      0x40\n      dup1\n      mload\n      0xa0\n      dup2\n      add\n      dup1\n      dup4\n      mstore\n        /* \"NFTlotto.sol\":1760:1767  acesNFT */\n      sload(0x03)\n      shl(0xe0, 0x18160ddd)\n        /* \"NFTlotto.sol\":1760:1781  acesNFT.totalSupply() */\n      swap1\n      swap2\n      mstore\n      swap2\n      mload\n        /* \"NFTlotto.sol\":1634:1684  address winnerAddress = acesNFT.ownerOf(winnerNum) */\n      swap3\n      swap4\n      pop\n        /* \"NFTlotto.sol\":1722:1945  Results ({\r... */\n      swap2\n      dup3\n      swap2\n      sub(shl(0xa0, 0x01), 0x01)\n        /* \"NFTlotto.sol\":1760:1767  acesNFT */\n      and\n      swap1\n        /* \"NFTlotto.sol\":1760:1779  acesNFT.totalSupply */\n      0x18160ddd\n      swap1\n        /* \"NFTlotto.sol\":1760:1781  acesNFT.totalSupply() */\n      0xa4\n      dup1\n      dup6\n      add\n      swap2\n      0x20\n      swap2\n      dup2\n      dup8\n      sub\n      add\n      dup2\n        /* \"NFTlotto.sol\":1760:1767  acesNFT */\n      dup7\n        /* \"NFTlotto.sol\":1760:1781  acesNFT.totalSupply() */\n      dup1\n      extcodesize\n      iszero\n      dup1\n      iszero\n      tag_153\n      jumpi\n      0x00\n      dup1\n      revert\n    tag_153:\n      pop\n      gas\n      staticcall\n      iszero\n      dup1\n      iszero\n      tag_155\n      jumpi\n      returndatasize\n      0x00\n      dup1\n      returndatacopy\n      revert(0x00, returndatasize)\n    tag_155:\n      pop\n      pop\n      pop\n      pop\n      mload(0x40)\n      returndatasize\n      not(0x1f)\n      0x1f\n      dup3\n      add\n      and\n      dup3\n      add\n      dup1\n      0x40\n      mstore\n      pop\n      dup2\n      add\n      swap1\n      tag_156\n      swap2\n      swap1\n      tag_80\n      jump\t// in\n    tag_156:\n        /* \"NFTlotto.sol\":1722:1945  Results ({\r... */\n      dup2\n      mstore\n      0x20\n      add\n        /* \"NFTlotto.sol\":1811:1820  winnerNum */\n      dup5\n        /* \"NFTlotto.sol\":1722:1945  Results ({\r... */\n      dup2\n      mstore\n      0x20\n      add\n        /* \"NFTlotto.sol\":1843:1849  payout */\n      dup4\n        /* \"NFTlotto.sol\":1722:1945  Results ({\r... */\n      dup2\n      mstore\n      0x20\n      add\n        /* \"NFTlotto.sol\":1873:1888  block.timestamp */\n      timestamp\n        /* \"NFTlotto.sol\":1722:1945  Results ({\r... */\n      dup2\n      mstore\n      0x20\n      add\n        /* \"NFTlotto.sol\":1919:1932  winnerAddress */\n      dup3\n      sub(shl(0xa0, 0x01), 0x01)\n        /* \"NFTlotto.sol\":1722:1945  Results ({\r... */\n      and\n      dup2\n      mstore\n      pop\n        /* \"NFTlotto.sol\":1697:1709  roundResults */\n      0x04\n        /* \"NFTlotto.sol\":1697:1719  roundResults[roundNum] */\n      0x00\n        /* \"NFTlotto.sol\":1710:1718  roundNum */\n      sload(0x01)\n        /* \"NFTlotto.sol\":1697:1719  roundResults[roundNum] */\n      dup2\n      mstore\n      0x20\n      add\n      swap1\n      dup2\n      mstore\n      0x20\n      add\n      0x00\n      keccak256\n        /* \"NFTlotto.sol\":1697:1945  roundResults[roundNum] = Results ({\r... */\n      0x00\n      dup3\n      add\n      mload\n      dup2\n      0x00\n      add\n      sstore\n      0x20\n      dup3\n      add\n      mload\n      dup2\n      0x01\n      add\n      sstore\n      0x40\n      dup3\n      add\n      mload\n      dup2\n      0x02\n      add\n      sstore\n      0x60\n      dup3\n      add\n      mload\n      dup2\n      0x03\n      add\n      sstore\n      0x80\n      dup3\n      add\n      mload\n      dup2\n      0x04\n      add\n      exp(0x0100, 0x00)\n      dup2\n      sload\n      dup2\n      sub(shl(0xa0, 0x01), 0x01)\n      mul\n      not\n      and\n      swap1\n      dup4\n      sub(shl(0xa0, 0x01), 0x01)\n      and\n      mul\n      or\n      swap1\n      sstore\n      pop\n      swap1\n      pop\n      pop\n        /* \"NFTlotto.sol\":1973:1979  payout */\n      dup2\n        /* \"NFTlotto.sol\":1958:1969  totalPayout */\n      0x02\n      0x00\n        /* \"NFTlotto.sol\":1958:1979  totalPayout += payout */\n      dup3\n      dup3\n      sload\n      tag_157\n      swap2\n      swap1\n      tag_158\n      jump\t// in\n    tag_157:\n      swap1\n      swap2\n      sstore\n      pop\n      pop\n        /* \"NFTlotto.sol\":1990:1998  roundNum */\n      0x01\n        /* \"NFTlotto.sol\":1990:2000  roundNum++ */\n      dup1\n      sload\n      swap1\n        /* \"NFTlotto.sol\":1990:1998  roundNum */\n      0x00\n        /* \"NFTlotto.sol\":1990:2000  roundNum++ */\n      tag_159\n      dup4\n      tag_98\n      jump\t// in\n    tag_159:\n      swap1\n      swap2\n      sstore\n      pop\n      pop\n        /* \"NFTlotto.sol\":2018:2051  LotteryWon(winnerAddress, payout) */\n      0x40\n      dup1\n      mload\n      sub(shl(0xa0, 0x01), 0x01)\n        /* \"#utility.yul\":1987:2019   */\n      dup4\n      and\n        /* \"#utility.yul\":1969:2020   */\n      dup2\n      mstore\n        /* \"#utility.yul\":2051:2053   */\n      0x20\n        /* \"#utility.yul\":2036:2054   */\n      dup2\n      add\n        /* \"#utility.yul\":2029:2063   */\n      dup5\n      swap1\n      mstore\n        /* \"NFTlotto.sol\":2018:2051  LotteryWon(winnerAddress, payout) */\n      0x2e798dd4337e515c79b64c40e1a93baa1aefbd9180ac7905e02508edd7971e50\n      swap2\n        /* \"#utility.yul\":1942:1960   */\n      add\n        /* \"NFTlotto.sol\":2018:2051  LotteryWon(winnerAddress, payout) */\n      mload(0x40)\n      dup1\n      swap2\n      sub\n      swap1\n      log1\n        /* \"NFTlotto.sol\":1617:2059  {      \r... */\n      pop\n        /* \"NFTlotto.sol\":1541:2059  function updateWinner(uint256 winnerNum, uint256 payout) external onlyOwner {      \r... */\n      pop\n      pop\n      jump\t// out\n        /* \"https://github.com/OpenZeppelin/openzeppelin-contracts/blob/master/contracts/access/Ownable.sol\":1668:1769  function renounceOwnership() public virtual onlyOwner {... */\n    tag_42:\n        /* \"https://github.com/OpenZeppelin/openzeppelin-contracts/blob/master/contracts/access/Ownable.sol\":1082:1089  address */\n      0x00\n        /* \"https://github.com/OpenZeppelin/openzeppelin-contracts/blob/master/contracts/access/Ownable.sol\":1108:1114  _owner */\n      sload\n      sub(shl(0xa0, 0x01), 0x01)\n      and\n        /* \"https://github.com/OpenZeppelin/openzeppelin-contracts/blob/master/contracts/utils/Context.sol\":719:729  msg.sender */\n      caller\n        /* \"https://github.com/OpenZeppelin/openzeppelin-contracts/blob/master/contracts/access/Ownable.sol\":1248:1271  owner() == _msgSender() */\n      eq\n        /* \"https://github.com/OpenZeppelin/openzeppelin-contracts/blob/master/contracts/access/Ownable.sol\":1240:1308  require(owner() == _msgSender(), \"Ownable: caller is not the owner\") */\n      tag_165\n      jumpi\n      mload(0x40)\n      shl(0xe5, 0x461bcd)\n      dup2\n      mstore\n      0x04\n      add\n      tag_145\n      swap1\n      tag_146\n      jump\t// in\n    tag_165:\n        /* \"https://github.com/OpenZeppelin/openzeppelin-contracts/blob/master/contracts/access/Ownable.sol\":1732:1762  _transferOwnership(address(0)) */\n      tag_168\n        /* \"https://github.com/OpenZeppelin/openzeppelin-contracts/blob/master/contracts/access/Ownable.sol\":1759:1760  0 */\n      0x00\n        /* \"https://github.com/OpenZeppelin/openzeppelin-contracts/blob/master/contracts/access/Ownable.sol\":1732:1750  _transferOwnership */\n      tag_169\n        /* \"https://github.com/OpenZeppelin/openzeppelin-contracts/blob/master/contracts/access/Ownable.sol\":1732:1762  _transferOwnership(address(0)) */\n      jump\t// in\n    tag_168:\n        /* \"https://github.com/OpenZeppelin/openzeppelin-contracts/blob/master/contracts/access/Ownable.sol\":1668:1769  function renounceOwnership() public virtual onlyOwner {... */\n      jump\t// out\n        /* \"NFTlotto.sol\":2069:2189  function userEntries(address account) public view returns (uint256) {\r... */\n    tag_50:\n        /* \"NFTlotto.sol\":2155:2162  acesNFT */\n      sload(0x03)\n        /* \"NFTlotto.sol\":2155:2181  acesNFT.balanceOf(account) */\n      mload(0x40)\n      shl(0xe0, 0x70a08231)\n      dup2\n      mstore\n      sub(shl(0xa0, 0x01), 0x01)\n        /* \"#utility.yul\":1743:1775   */\n      dup4\n      dup2\n      and\n        /* \"NFTlotto.sol\":2155:2181  acesNFT.balanceOf(account) */\n      0x04\n      dup4\n      add\n        /* \"#utility.yul\":1725:1776   */\n      mstore\n        /* \"NFTlotto.sol\":2128:2135  uint256 */\n      0x00\n      swap3\n        /* \"NFTlotto.sol\":2155:2162  acesNFT */\n      and\n      swap1\n        /* \"NFTlotto.sol\":2155:2172  acesNFT.balanceOf */\n      0x70a08231\n      swap1\n        /* \"#utility.yul\":1698:1716   */\n      0x24\n      add\n        /* \"NFTlotto.sol\":2155:2181  acesNFT.balanceOf(account) */\n      0x20\n      mload(0x40)\n      dup1\n      dup4\n      sub\n      dup2\n      dup7\n      dup1\n      extcodesize\n      iszero\n      dup1\n      iszero\n      tag_173\n      jumpi\n      0x00\n      dup1\n      revert\n    tag_173:\n      pop\n      gas\n      staticcall\n      iszero\n      dup1\n      iszero\n      tag_175\n      jumpi\n      returndatasize\n      0x00\n      dup1\n      returndatacopy\n      revert(0x00, returndatasize)\n    tag_175:\n      pop\n      pop\n      pop\n      pop\n      mload(0x40)\n      returndatasize\n      not(0x1f)\n      0x1f\n      dup3\n      add\n      and\n      dup3\n      add\n      dup1\n      0x40\n      mstore\n      pop\n      dup2\n      add\n      swap1\n      tag_176\n      swap2\n      swap1\n      tag_80\n      jump\t// in\n    tag_176:\n        /* \"NFTlotto.sol\":2148:2181  return acesNFT.balanceOf(account) */\n      swap3\n        /* \"NFTlotto.sol\":2069:2189  function userEntries(address account) public view returns (uint256) {\r... */\n      swap2\n      pop\n      pop\n      jump\t// out\n        /* \"NFTlotto.sol\":2197:2787  function resultLog(uint256 startIndex, uint256 endIndex) external view returns(Results [] memory log){\r... */\n    tag_64:\n        /* \"NFTlotto.sol\":2276:2297  Results [] memory log */\n      0x60\n        /* \"NFTlotto.sol\":2312:2320  roundNum */\n      sload(0x01)\n        /* \"NFTlotto.sol\":2324:2325  0 */\n      0x00\n        /* \"NFTlotto.sol\":2312:2325  roundNum == 0 */\n      eq\n        /* \"NFTlotto.sol\":2309:2382  if(roundNum == 0){\r... */\n      iszero\n      tag_178\n      jumpi\n        /* \"NFTlotto.sol\":2354:2370  new Results[](0) */\n      0x40\n      dup1\n      mload\n        /* \"NFTlotto.sol\":2368:2369  0 */\n      0x00\n        /* \"NFTlotto.sol\":2354:2370  new Results[](0) */\n      dup1\n      dup3\n      mstore\n      0x20\n      dup3\n      add\n      swap1\n      swap3\n      mstore\n      swap1\n      jump(tag_181)\n    tag_182:\n      tag_183\n      tag_184\n      jump\t// in\n    tag_183:\n      dup2\n      mstore\n      0x20\n      add\n      swap1\n      0x01\n      swap1\n      sub\n      swap1\n      dup2\n      tag_182\n      jumpi\n      swap1\n      pop\n    tag_181:\n      pop\n        /* \"NFTlotto.sol\":2348:2370  log = new Results[](0) */\n      swap1\n      pop\n        /* \"NFTlotto.sol\":2341:2370  return log = new Results[](0) */\n      jump(tag_176)\n        /* \"NFTlotto.sol\":2309:2382  if(roundNum == 0){\r... */\n    tag_178:\n        /* \"NFTlotto.sol\":2418:2426  roundNum */\n      sload(0x01)\n        /* \"NFTlotto.sol\":2406:2414  endIndex */\n      dup3\n        /* \"NFTlotto.sol\":2406:2426  endIndex >= roundNum */\n      lt\n        /* \"NFTlotto.sol\":2402:2478  if (endIndex >= roundNum) {\r... */\n      tag_185\n      jumpi\n        /* \"NFTlotto.sol\":2465:2466  1 */\n      0x01\n        /* \"NFTlotto.sol\":2454:2462  roundNum */\n      dup1\n      sload\n        /* \"NFTlotto.sol\":2454:2466  roundNum - 1 */\n      tag_186\n      swap2\n      swap1\n      tag_187\n      jump\t// in\n    tag_186:\n        /* \"NFTlotto.sol\":2443:2466  endIndex = roundNum - 1 */\n      swap2\n      pop\n        /* \"NFTlotto.sol\":2402:2478  if (endIndex >= roundNum) {\r... */\n    tag_185:\n        /* \"NFTlotto.sol\":2490:2509  uint256 arrayLength */\n      0x00\n        /* \"NFTlotto.sol\":2512:2533  endIndex - startIndex */\n      tag_188\n        /* \"NFTlotto.sol\":2523:2533  startIndex */\n      dup5\n        /* \"NFTlotto.sol\":2512:2520  endIndex */\n      dup5\n        /* \"NFTlotto.sol\":2512:2533  endIndex - startIndex */\n      tag_187\n      jump\t// in\n    tag_188:\n        /* \"NFTlotto.sol\":2512:2537  endIndex - startIndex + 1 */\n      tag_189\n      swap1\n        /* \"NFTlotto.sol\":2536:2537  1 */\n      0x01\n        /* \"NFTlotto.sol\":2512:2537  endIndex - startIndex + 1 */\n      tag_158\n      jump\t// in\n    tag_189:\n        /* \"NFTlotto.sol\":2490:2537  uint256 arrayLength = endIndex - startIndex + 1 */\n      swap1\n      pop\n        /* \"NFTlotto.sol\":2548:2568  uint256 currentIndex */\n      0x00\n        /* \"NFTlotto.sol\":2599:2610  arrayLength */\n      dup2\n        /* \"NFTlotto.sol\":2585:2611  new Results[](arrayLength) */\n      0xffffffffffffffff\n      dup2\n      gt\n      iszero\n      tag_191\n      jumpi\n      tag_191\n      tag_113\n      jump\t// in\n    tag_191:\n      mload(0x40)\n      swap1\n      dup1\n      dup3\n      mstore\n      dup1\n      0x20\n      mul\n      0x20\n      add\n      dup3\n      add\n      0x40\n      mstore\n      dup1\n      iszero\n      tag_192\n      jumpi\n      dup2\n      0x20\n      add\n    tag_193:\n      tag_194\n      tag_184\n      jump\t// in\n    tag_194:\n      dup2\n      mstore\n      0x20\n      add\n      swap1\n      0x01\n      swap1\n      sub\n      swap1\n      dup2\n      tag_193\n      jumpi\n      swap1\n      pop\n    tag_192:\n      pop\n        /* \"NFTlotto.sol\":2579:2611  log = new Results[](arrayLength) */\n      swap3\n      pop\n        /* \"NFTlotto.sol\":2644:2654  startIndex */\n      dup5\n        /* \"NFTlotto.sol\":2627:2780  for (uint256 i = startIndex; i <= endIndex; i++) {\r... */\n    tag_195:\n        /* \"NFTlotto.sol\":2661:2669  endIndex */\n      dup5\n        /* \"NFTlotto.sol\":2656:2657  i */\n      dup2\n        /* \"NFTlotto.sol\":2656:2669  i <= endIndex */\n      gt\n        /* \"NFTlotto.sol\":2627:2780  for (uint256 i = startIndex; i <= endIndex; i++) {\r... */\n      tag_196\n      jumpi\n        /* \"NFTlotto.sol\":2711:2723  roundResults */\n      0x04\n        /* \"NFTlotto.sol\":2711:2739  roundResults[startIndex + i] */\n      0x00\n        /* \"NFTlotto.sol\":2724:2738  startIndex + i */\n      tag_198\n        /* \"NFTlotto.sol\":2737:2738  i */\n      dup4\n        /* \"NFTlotto.sol\":2724:2734  startIndex */\n      dup10\n        /* \"NFTlotto.sol\":2724:2738  startIndex + i */\n      tag_158\n      jump\t// in\n    tag_198:\n        /* \"NFTlotto.sol\":2711:2739  roundResults[startIndex + i] */\n      dup2\n      mstore\n      0x20\n      dup1\n      dup3\n      add\n      swap3\n      swap1\n      swap3\n      mstore\n      0x40\n      swap1\n      dup2\n      add\n      0x00\n      keccak256\n        /* \"NFTlotto.sol\":2691:2739  log[currentIndex] = roundResults[startIndex + i] */\n      dup2\n      mload\n      0xa0\n      dup2\n      add\n      dup4\n      mstore\n      dup2\n      sload\n      dup2\n      mstore\n      0x01\n      dup3\n      add\n      sload\n      swap4\n      dup2\n      add\n      swap4\n      swap1\n      swap4\n      mstore\n      0x02\n      dup2\n      add\n      sload\n      swap2\n      dup4\n      add\n      swap2\n      swap1\n      swap2\n      mstore\n      0x03\n      dup2\n      add\n      sload\n      0x60\n      dup4\n      add\n      mstore\n      0x04\n      add\n      sload\n      sub(shl(0xa0, 0x01), 0x01)\n      and\n      0x80\n      dup3\n      add\n      mstore\n        /* \"NFTlotto.sol\":2691:2708  log[currentIndex] */\n      dup5\n      mload\n        /* \"NFTlotto.sol\":2691:2694  log */\n      dup6\n      swap1\n        /* \"NFTlotto.sol\":2695:2707  currentIndex */\n      dup5\n      swap1\n        /* \"NFTlotto.sol\":2691:2708  log[currentIndex] */\n      dup2\n      lt\n      tag_200\n      jumpi\n      tag_200\n      tag_134\n      jump\t// in\n    tag_200:\n      0x20\n      mul\n      0x20\n      add\n      add\n        /* \"NFTlotto.sol\":2691:2739  log[currentIndex] = roundResults[startIndex + i] */\n      dup2\n      swap1\n      mstore\n      pop\n        /* \"NFTlotto.sol\":2754:2768  currentIndex++ */\n      dup2\n      dup1\n      tag_201\n      swap1\n      tag_98\n      jump\t// in\n    tag_201:\n      swap3\n      pop\n      pop\n        /* \"NFTlotto.sol\":2671:2674  i++ */\n      dup1\n      dup1\n      tag_202\n      swap1\n      tag_98\n      jump\t// in\n    tag_202:\n      swap2\n      pop\n      pop\n        /* \"NFTlotto.sol\":2627:2780  for (uint256 i = startIndex; i <= endIndex; i++) {\r... */\n      jump(tag_195)\n    tag_196:\n      pop\n        /* \"NFTlotto.sol\":2298:2787  {\r... */\n      pop\n      pop\n        /* \"NFTlotto.sol\":2197:2787  function resultLog(uint256 startIndex, uint256 endIndex) external view returns(Results [] memory log){\r... */\n      swap3\n      swap2\n      pop\n      pop\n      jump\t// out\n        /* \"https://github.com/OpenZeppelin/openzeppelin-contracts/blob/master/contracts/access/Ownable.sol\":1918:2116  function transferOwnership(address newOwner) public virtual onlyOwner {... */\n    tag_69:\n        /* \"https://github.com/OpenZeppelin/openzeppelin-contracts/blob/master/contracts/access/Ownable.sol\":1082:1089  address */\n      0x00\n        /* \"https://github.com/OpenZeppelin/openzeppelin-contracts/blob/master/contracts/access/Ownable.sol\":1108:1114  _owner */\n      sload\n      sub(shl(0xa0, 0x01), 0x01)\n      and\n        /* \"https://github.com/OpenZeppelin/openzeppelin-contracts/blob/master/contracts/utils/Context.sol\":719:729  msg.sender */\n      caller\n        /* \"https://github.com/OpenZeppelin/openzeppelin-contracts/blob/master/contracts/access/Ownable.sol\":1248:1271  owner() == _msgSender() */\n      eq\n        /* \"https://github.com/OpenZeppelin/openzeppelin-contracts/blob/master/contracts/access/Ownable.sol\":1240:1308  require(owner() == _msgSender(), \"Ownable: caller is not the owner\") */\n      tag_206\n      jumpi\n      mload(0x40)\n      shl(0xe5, 0x461bcd)\n      dup2\n      mstore\n      0x04\n      add\n      tag_145\n      swap1\n      tag_146\n      jump\t// in\n    tag_206:\n      sub(shl(0xa0, 0x01), 0x01)\n        /* \"https://github.com/OpenZeppelin/openzeppelin-contracts/blob/master/contracts/access/Ownable.sol\":2006:2028  newOwner != address(0) */\n      dup2\n      and\n        /* \"https://github.com/OpenZeppelin/openzeppelin-contracts/blob/master/contracts/access/Ownable.sol\":1998:2071  require(newOwner != address(0), \"Ownable: new owner is the zero address\") */\n      tag_209\n      jumpi\n      mload(0x40)\n      shl(0xe5, 0x461bcd)\n      dup2\n      mstore\n        /* \"#utility.yul\":5001:5003   */\n      0x20\n        /* \"https://github.com/OpenZeppelin/openzeppelin-contracts/blob/master/contracts/access/Ownable.sol\":1998:2071  require(newOwner != address(0), \"Ownable: new owner is the zero address\") */\n      0x04\n      dup3\n      add\n        /* \"#utility.yul\":4983:5004   */\n      mstore\n        /* \"#utility.yul\":5040:5042   */\n      0x26\n        /* \"#utility.yul\":5020:5038   */\n      0x24\n      dup3\n      add\n        /* \"#utility.yul\":5013:5043   */\n      mstore\n        /* \"#utility.yul\":5079:5113   */\n      0x4f776e61626c653a206e6577206f776e657220697320746865207a65726f2061\n        /* \"#utility.yul\":5059:5077   */\n      0x44\n      dup3\n      add\n        /* \"#utility.yul\":5052:5114   */\n      mstore\n      shl(0xd0, 0x646472657373)\n        /* \"#utility.yul\":5130:5148   */\n      0x64\n      dup3\n      add\n        /* \"#utility.yul\":5123:5159   */\n      mstore\n        /* \"#utility.yul\":5176:5195   */\n      0x84\n      add\n        /* \"https://github.com/OpenZeppelin/openzeppelin-contracts/blob/master/contracts/access/Ownable.sol\":1998:2071  require(newOwner != address(0), \"Ownable: new owner is the zero address\") */\n      tag_145\n        /* \"#utility.yul\":4799:5201   */\n      jump\n        /* \"https://github.com/OpenZeppelin/openzeppelin-contracts/blob/master/contracts/access/Ownable.sol\":1998:2071  require(newOwner != address(0), \"Ownable: new owner is the zero address\") */\n    tag_209:\n        /* \"https://github.com/OpenZeppelin/openzeppelin-contracts/blob/master/contracts/access/Ownable.sol\":2081:2109  _transferOwnership(newOwner) */\n      tag_212\n        /* \"https://github.com/OpenZeppelin/openzeppelin-contracts/blob/master/contracts/access/Ownable.sol\":2100:2108  newOwner */\n      dup2\n        /* \"https://github.com/OpenZeppelin/openzeppelin-contracts/blob/master/contracts/access/Ownable.sol\":2081:2099  _transferOwnership */\n      tag_169\n        /* \"https://github.com/OpenZeppelin/openzeppelin-contracts/blob/master/contracts/access/Ownable.sol\":2081:2109  _transferOwnership(newOwner) */\n      jump\t// in\n    tag_212:\n        /* \"https://github.com/OpenZeppelin/openzeppelin-contracts/blob/master/contracts/access/Ownable.sol\":1918:2116  function transferOwnership(address newOwner) public virtual onlyOwner {... */\n      pop\n      jump\t// out\n        /* \"NFTlotto.sol\":1263:1533  function pickWinner(uint256 seed) external view returns(uint256 winnerNum, address winnerAddress) {\r... */\n    tag_72:\n        /* \"NFTlotto.sol\":1319:1336  uint256 winnerNum */\n      0x00\n        /* \"NFTlotto.sol\":1338:1359  address winnerAddress */\n      dup1\n        /* \"NFTlotto.sol\":1372:1392  uint256 roundEntries */\n      0x00\n        /* \"NFTlotto.sol\":1395:1402  acesNFT */\n      0x03\n      0x00\n      swap1\n      sload\n      swap1\n      0x0100\n      exp\n      swap1\n      div\n      sub(shl(0xa0, 0x01), 0x01)\n      and\n      sub(shl(0xa0, 0x01), 0x01)\n        /* \"NFTlotto.sol\":1395:1414  acesNFT.totalSupply */\n      and\n      0x18160ddd\n        /* \"NFTlotto.sol\":1395:1416  acesNFT.totalSupply() */\n      mload(0x40)\n      dup2\n      0xffffffff\n      and\n      0xe0\n      shl\n      dup2\n      mstore\n      0x04\n      add\n      0x20\n      mload(0x40)\n      dup1\n      dup4\n      sub\n      dup2\n      dup7\n      dup1\n      extcodesize\n      iszero\n      dup1\n      iszero\n      tag_214\n      jumpi\n      0x00\n      dup1\n      revert\n    tag_214:\n      pop\n      gas\n      staticcall\n      iszero\n      dup1\n      iszero\n      tag_216\n      jumpi\n      returndatasize\n      0x00\n      dup1\n      returndatacopy\n      revert(0x00, returndatasize)\n    tag_216:\n      pop\n      pop\n      pop\n      pop\n      mload(0x40)\n      returndatasize\n      not(0x1f)\n      0x1f\n      dup3\n      add\n      and\n      dup3\n      add\n      dup1\n      0x40\n      mstore\n      pop\n      dup2\n      add\n      swap1\n      tag_217\n      swap2\n      swap1\n      tag_80\n      jump\t// in\n    tag_217:\n        /* \"NFTlotto.sol\":1372:1416  uint256 roundEntries = acesNFT.totalSupply() */\n      swap1\n      pop\n        /* \"NFTlotto.sol\":1455:1467  roundEntries */\n      dup1\n        /* \"NFTlotto.sol\":1440:1452  random(seed) */\n      tag_218\n        /* \"NFTlotto.sol\":1447:1451  seed */\n      dup6\n        /* \"NFTlotto.sol\":1440:1446  random */\n      tag_219\n        /* \"NFTlotto.sol\":1440:1452  random(seed) */\n      jump\t// in\n    tag_218:\n        /* \"NFTlotto.sol\":1440:1467  random(seed) % roundEntries */\n      tag_220\n      swap2\n      swap1\n      tag_221\n      jump\t// in\n    tag_220:\n        /* \"NFTlotto.sol\":1439:1472  (random(seed) % roundEntries) + 1 */\n      tag_222\n      swap1\n        /* \"NFTlotto.sol\":1471:1472  1 */\n      0x01\n        /* \"NFTlotto.sol\":1439:1472  (random(seed) % roundEntries) + 1 */\n      tag_158\n      jump\t// in\n    tag_222:\n        /* \"NFTlotto.sol\":1499:1506  acesNFT */\n      sload(0x03)\n        /* \"NFTlotto.sol\":1499:1525  acesNFT.ownerOf(winnerNum) */\n      mload(0x40)\n      shl(0xe1, 0x31a9108f)\n      dup2\n      mstore\n      0x04\n      dup2\n      add\n        /* \"#utility.yul\":5713:5738   */\n      dup4\n      swap1\n      mstore\n        /* \"NFTlotto.sol\":1427:1472  winnerNum = (random(seed) % roundEntries) + 1 */\n      swap2\n      swap5\n      pop\n      sub(shl(0xa0, 0x01), 0x01)\n        /* \"NFTlotto.sol\":1499:1506  acesNFT */\n      and\n      swap1\n        /* \"NFTlotto.sol\":1499:1514  acesNFT.ownerOf */\n      0x6352211e\n      swap1\n        /* \"#utility.yul\":5686:5704   */\n      0x24\n      add\n        /* \"NFTlotto.sol\":1499:1525  acesNFT.ownerOf(winnerNum) */\n      0x20\n      mload(0x40)\n      dup1\n      dup4\n      sub\n      dup2\n      dup7\n      dup1\n      extcodesize\n      iszero\n      dup1\n      iszero\n      tag_224\n      jumpi\n      0x00\n      dup1\n      revert\n    tag_224:\n      pop\n      gas\n      staticcall\n      iszero\n      dup1\n      iszero\n      tag_226\n      jumpi\n      returndatasize\n      0x00\n      dup1\n      returndatacopy\n      revert(0x00, returndatasize)\n    tag_226:\n      pop\n      pop\n      pop\n      pop\n      mload(0x40)\n      returndatasize\n      not(0x1f)\n      0x1f\n      dup3\n      add\n      and\n      dup3\n      add\n      dup1\n      0x40\n      mstore\n      pop\n      dup2\n      add\n      swap1\n      tag_227\n      swap2\n      swap1\n      tag_89\n      jump\t// in\n    tag_227:\n        /* \"NFTlotto.sol\":1483:1525  winnerAddress = acesNFT.ownerOf(winnerNum) */\n      swap2\n      pop\n        /* \"NFTlotto.sol\":1361:1533  {\r... */\n      pop\n        /* \"NFTlotto.sol\":1263:1533  function pickWinner(uint256 seed) external view returns(uint256 winnerNum, address winnerAddress) {\r... */\n      swap2\n      pop\n      swap2\n      jump\t// out\n        /* \"https://github.com/OpenZeppelin/openzeppelin-contracts/blob/master/contracts/access/Ownable.sol\":2270:2457  function _transferOwnership(address newOwner) internal virtual {... */\n    tag_169:\n        /* \"https://github.com/OpenZeppelin/openzeppelin-contracts/blob/master/contracts/access/Ownable.sol\":2343:2359  address oldOwner */\n      0x00\n        /* \"https://github.com/OpenZeppelin/openzeppelin-contracts/blob/master/contracts/access/Ownable.sol\":2362:2368  _owner */\n      dup1\n      sload\n      sub(shl(0xa0, 0x01), 0x01)\n        /* \"https://github.com/OpenZeppelin/openzeppelin-contracts/blob/master/contracts/access/Ownable.sol\":2378:2395  _owner = newOwner */\n      dup4\n      dup2\n      and\n      not(sub(shl(0xa0, 0x01), 0x01))\n      dup4\n      and\n      dup2\n      or\n      dup5\n      sstore\n        /* \"https://github.com/OpenZeppelin/openzeppelin-contracts/blob/master/contracts/access/Ownable.sol\":2410:2450  OwnershipTransferred(oldOwner, newOwner) */\n      mload(0x40)\n        /* \"https://github.com/OpenZeppelin/openzeppelin-contracts/blob/master/contracts/access/Ownable.sol\":2362:2368  _owner */\n      swap2\n      swap1\n      swap3\n      and\n      swap3\n      dup4\n      swap2\n        /* \"https://github.com/OpenZeppelin/openzeppelin-contracts/blob/master/contracts/access/Ownable.sol\":2410:2450  OwnershipTransferred(oldOwner, newOwner) */\n      0x8be0079c531659141344cd1fd0a4f28419497f9722a3daafe3b4186f6b6457e0\n      swap2\n        /* \"https://github.com/OpenZeppelin/openzeppelin-contracts/blob/master/contracts/access/Ownable.sol\":2343:2359  address oldOwner */\n      swap1\n        /* \"https://github.com/OpenZeppelin/openzeppelin-contracts/blob/master/contracts/access/Ownable.sol\":2410:2450  OwnershipTransferred(oldOwner, newOwner) */\n      log3\n        /* \"https://github.com/OpenZeppelin/openzeppelin-contracts/blob/master/contracts/access/Ownable.sol\":2333:2457  {... */\n      pop\n        /* \"https://github.com/OpenZeppelin/openzeppelin-contracts/blob/master/contracts/access/Ownable.sol\":2270:2457  function _transferOwnership(address newOwner) internal virtual {... */\n      pop\n      jump\t// out\n        /* \"NFTlotto.sol\":3933:4311  function random(uint256 seed) internal view returns (uint256) {\r... */\n    tag_219:\n        /* \"NFTlotto.sol\":3986:3993  uint256 */\n      0x00\n        /* \"NFTlotto.sol\":4127:4131  seed */\n      dup2\n        /* \"NFTlotto.sol\":4158:4173  block.timestamp */\n      timestamp\n        /* \"NFTlotto.sol\":4200:4209  gasleft() */\n      gas\n        /* \"NFTlotto.sol\":4084:4269  abi.encodePacked(\r... */\n      0x40\n      dup1\n      mload\n      0x20\n      dup2\n      add\n        /* \"#utility.yul\":1362:1381   */\n      swap5\n      swap1\n      swap5\n      mstore\n        /* \"#utility.yul\":1397:1409   */\n      dup4\n      add\n        /* \"#utility.yul\":1390:1418   */\n      swap2\n      swap1\n      swap2\n      mstore\n        /* \"#utility.yul\":1434:1446   */\n      0x60\n      dup1\n      dup4\n      add\n        /* \"#utility.yul\":1427:1455   */\n      swap2\n      swap1\n      swap2\n      mstore\n        /* \"NFTlotto.sol\":4236:4246  msg.sender */\n      caller\n        /* \"#utility.yul\":1489:1504   */\n      swap1\n      shl\n      not(0xffffffffffffffffffffffff)\n        /* \"#utility.yul\":1485:1538   */\n      and\n        /* \"#utility.yul\":1471:1483   */\n      0x80\n      dup3\n      add\n        /* \"#utility.yul\":1464:1539   */\n      mstore\n        /* \"#utility.yul\":1555:1568   */\n      0x94\n      add\n        /* \"NFTlotto.sol\":4084:4269  abi.encodePacked(\r... */\n      0x40\n      dup1\n      mload\n      not(0x1f)\n      dup2\n      dup5\n      sub\n      add\n      dup2\n      mstore\n      swap2\n      swap1\n      mstore\n        /* \"NFTlotto.sol\":4052:4288  keccak256(\r... */\n      dup1\n      mload\n        /* \"NFTlotto.sol\":4084:4269  abi.encodePacked(\r... */\n      0x20\n        /* \"NFTlotto.sol\":4052:4288  keccak256(\r... */\n      swap1\n      swap2\n      add\n      keccak256\n      swap3\n        /* \"NFTlotto.sol\":3933:4311  function random(uint256 seed) internal view returns (uint256) {\r... */\n      swap2\n      pop\n      pop\n      jump\t// out\n    tag_184:\n      mload(0x40)\n      dup1\n      0xa0\n      add\n      0x40\n      mstore\n      dup1\n      0x00\n      dup2\n      mstore\n      0x20\n      add\n      0x00\n      dup2\n      mstore\n      0x20\n      add\n      0x00\n      dup2\n      mstore\n      0x20\n      add\n      0x00\n      dup2\n      mstore\n      0x20\n      add\n      and(sub(shl(0xa0, 0x01), 0x01), 0x00)\n      dup2\n      mstore\n      pop\n      swap1\n      jump\t// out\n        /* \"#utility.yul\":14:261   */\n    tag_49:\n        /* \"#utility.yul\":73:79   */\n      0x00\n        /* \"#utility.yul\":126:128   */\n      0x20\n        /* \"#utility.yul\":114:123   */\n      dup3\n        /* \"#utility.yul\":105:112   */\n      dup5\n        /* \"#utility.yul\":101:124   */\n      sub\n        /* \"#utility.yul\":97:129   */\n      slt\n        /* \"#utility.yul\":94:146   */\n      iszero\n      tag_235\n      jumpi\n        /* \"#utility.yul\":142:143   */\n      0x00\n        /* \"#utility.yul\":139:140   */\n      dup1\n        /* \"#utility.yul\":132:144   */\n      revert\n        /* \"#utility.yul\":94:146   */\n    tag_235:\n        /* \"#utility.yul\":181:190   */\n      dup2\n        /* \"#utility.yul\":168:191   */\n      calldataload\n        /* \"#utility.yul\":200:231   */\n      tag_236\n        /* \"#utility.yul\":225:230   */\n      dup2\n        /* \"#utility.yul\":200:231   */\n      tag_237\n      jump\t// in\n    tag_236:\n        /* \"#utility.yul\":250:255   */\n      swap4\n        /* \"#utility.yul\":14:261   */\n      swap3\n      pop\n      pop\n      pop\n      jump\t// out\n        /* \"#utility.yul\":266:517   */\n    tag_89:\n        /* \"#utility.yul\":336:342   */\n      0x00\n        /* \"#utility.yul\":389:391   */\n      0x20\n        /* \"#utility.yul\":377:386   */\n      dup3\n        /* \"#utility.yul\":368:375   */\n      dup5\n        /* \"#utility.yul\":364:387   */\n      sub\n        /* \"#utility.yul\":360:392   */\n      slt\n        /* \"#utility.yul\":357:409   */\n      iszero\n      tag_239\n      jumpi\n        /* \"#utility.yul\":405:406   */\n      0x00\n        /* \"#utility.yul\":402:403   */\n      dup1\n        /* \"#utility.yul\":395:407   */\n      revert\n        /* \"#utility.yul\":357:409   */\n    tag_239:\n        /* \"#utility.yul\":437:446   */\n      dup2\n        /* \"#utility.yul\":431:447   */\n      mload\n        /* \"#utility.yul\":456:487   */\n      tag_236\n        /* \"#utility.yul\":481:486   */\n      dup2\n        /* \"#utility.yul\":456:487   */\n      tag_237\n      jump\t// in\n        /* \"#utility.yul\":522:702   */\n    tag_54:\n        /* \"#utility.yul\":581:587   */\n      0x00\n        /* \"#utility.yul\":634:636   */\n      0x20\n        /* \"#utility.yul\":622:631   */\n      dup3\n        /* \"#utility.yul\":613:620   */\n      dup5\n        /* \"#utility.yul\":609:632   */\n      sub\n        /* \"#utility.yul\":605:637   */\n      slt\n        /* \"#utility.yul\":602:654   */\n      iszero\n      tag_242\n      jumpi\n        /* \"#utility.yul\":650:651   */\n      0x00\n        /* \"#utility.yul\":647:648   */\n      dup1\n        /* \"#utility.yul\":640:652   */\n      revert\n        /* \"#utility.yul\":602:654   */\n    tag_242:\n      pop\n        /* \"#utility.yul\":673:696   */\n      calldataload\n      swap2\n        /* \"#utility.yul\":522:702   */\n      swap1\n      pop\n      jump\t// out\n        /* \"#utility.yul\":707:891   */\n    tag_80:\n        /* \"#utility.yul\":777:783   */\n      0x00\n        /* \"#utility.yul\":830:832   */\n      0x20\n        /* \"#utility.yul\":818:827   */\n      dup3\n        /* \"#utility.yul\":809:816   */\n      dup5\n        /* \"#utility.yul\":805:828   */\n      sub\n        /* \"#utility.yul\":801:833   */\n      slt\n        /* \"#utility.yul\":798:850   */\n      iszero\n      tag_244\n      jumpi\n        /* \"#utility.yul\":846:847   */\n      0x00\n        /* \"#utility.yul\":843:844   */\n      dup1\n        /* \"#utility.yul\":836:848   */\n      revert\n        /* \"#utility.yul\":798:850   */\n    tag_244:\n      pop\n        /* \"#utility.yul\":869:885   */\n      mload\n      swap2\n        /* \"#utility.yul\":707:891   */\n      swap1\n      pop\n      jump\t// out\n        /* \"#utility.yul\":896:1144   */\n    tag_39:\n        /* \"#utility.yul\":964:970   */\n      0x00\n        /* \"#utility.yul\":972:978   */\n      dup1\n        /* \"#utility.yul\":1025:1027   */\n      0x40\n        /* \"#utility.yul\":1013:1022   */\n      dup4\n        /* \"#utility.yul\":1004:1011   */\n      dup6\n        /* \"#utility.yul\":1000:1023   */\n      sub\n        /* \"#utility.yul\":996:1028   */\n      slt\n        /* \"#utility.yul\":993:1045   */\n      iszero\n      tag_246\n      jumpi\n        /* \"#utility.yul\":1041:1042   */\n      0x00\n        /* \"#utility.yul\":1038:1039   */\n      dup1\n        /* \"#utility.yul\":1031:1043   */\n      revert\n        /* \"#utility.yul\":993:1045   */\n    tag_246:\n      pop\n      pop\n        /* \"#utility.yul\":1064:1087   */\n      dup1\n      calldataload\n      swap3\n        /* \"#utility.yul\":1134:1136   */\n      0x20\n        /* \"#utility.yul\":1119:1137   */\n      swap1\n      swap2\n      add\n        /* \"#utility.yul\":1106:1138   */\n      calldataload\n      swap2\n      pop\n        /* \"#utility.yul\":896:1144   */\n      jump\t// out\n        /* \"#utility.yul\":2353:3531   */\n    tag_33:\n        /* \"#utility.yul\":2621:2623   */\n      0x40\n        /* \"#utility.yul\":2633:2654   */\n      dup1\n      dup3\n      mstore\n        /* \"#utility.yul\":2703:2716   */\n      dup4\n      mload\n        /* \"#utility.yul\":2606:2624   */\n      swap1\n      dup3\n      add\n        /* \"#utility.yul\":2725:2747   */\n      dup2\n      swap1\n      mstore\n        /* \"#utility.yul\":2573:2577   */\n      0x00\n      swap1\n        /* \"#utility.yul\":2800:2804   */\n      0x20\n      swap1\n        /* \"#utility.yul\":2778:2780   */\n      0x60\n        /* \"#utility.yul\":2763:2781   */\n      dup5\n      add\n      swap1\n        /* \"#utility.yul\":2827:2842   */\n      dup3\n      dup8\n      add\n        /* \"#utility.yul\":2573:2577   */\n      dup5\n        /* \"#utility.yul\":2870:3065   */\n    tag_252:\n        /* \"#utility.yul\":2884:2890   */\n      dup3\n        /* \"#utility.yul\":2881:2882   */\n      dup2\n        /* \"#utility.yul\":2878:2891   */\n      lt\n        /* \"#utility.yul\":2870:3065   */\n      iszero\n      tag_254\n      jumpi\n        /* \"#utility.yul\":2949:2962   */\n      dup2\n      mload\n      sub(shl(0xa0, 0x01), 0x01)\n        /* \"#utility.yul\":2945:2984   */\n      and\n        /* \"#utility.yul\":2933:2985   */\n      dup5\n      mstore\n        /* \"#utility.yul\":3005:3017   */\n      swap3\n      dup5\n      add\n      swap3\n        /* \"#utility.yul\":3040:3055   */\n      swap1\n      dup5\n      add\n      swap1\n        /* \"#utility.yul\":2981:2982   */\n      0x01\n        /* \"#utility.yul\":2899:2908   */\n      add\n        /* \"#utility.yul\":2870:3065   */\n      jump(tag_252)\n    tag_254:\n      pop\n      pop\n      pop\n        /* \"#utility.yul\":3101:3120   */\n      dup4\n      dup2\n      sub\n        /* \"#utility.yul\":3081:3099   */\n      dup3\n      dup6\n      add\n        /* \"#utility.yul\":3074:3121   */\n      mstore\n        /* \"#utility.yul\":3171:3184   */\n      dup5\n      mload\n        /* \"#utility.yul\":3193:3214   */\n      dup1\n      dup3\n      mstore\n        /* \"#utility.yul\":3269:3284   */\n      dup6\n      dup4\n      add\n      swap2\n        /* \"#utility.yul\":3232:3244   */\n      dup4\n      add\n      swap1\n        /* \"#utility.yul\":3304:3305   */\n      0x00\n        /* \"#utility.yul\":3314:3503   */\n    tag_255:\n        /* \"#utility.yul\":3330:3338   */\n      dup2\n        /* \"#utility.yul\":3325:3328   */\n      dup2\n        /* \"#utility.yul\":3322:3339   */\n      lt\n        /* \"#utility.yul\":3314:3503   */\n      iszero\n      tag_257\n      jumpi\n        /* \"#utility.yul\":3399:3414   */\n      dup4\n      mload\n        /* \"#utility.yul\":3385:3415   */\n      dup4\n      mstore\n        /* \"#utility.yul\":3476:3493   */\n      swap3\n      dup5\n      add\n      swap3\n        /* \"#utility.yul\":3437:3451   */\n      swap2\n      dup5\n      add\n      swap2\n        /* \"#utility.yul\":3358:3359   */\n      0x01\n        /* \"#utility.yul\":3349:3360   */\n      add\n        /* \"#utility.yul\":3314:3503   */\n      jump(tag_255)\n    tag_257:\n      pop\n        /* \"#utility.yul\":3520:3525   */\n      swap1\n      swap8\n        /* \"#utility.yul\":2353:3531   */\n      swap7\n      pop\n      pop\n      pop\n      pop\n      pop\n      pop\n      pop\n      jump\t// out\n        /* \"#utility.yul\":3536:4561   */\n    tag_66:\n        /* \"#utility.yul\":3753:3755   */\n      0x20\n        /* \"#utility.yul\":3805:3826   */\n      dup1\n      dup3\n      mstore\n        /* \"#utility.yul\":3875:3888   */\n      dup3\n      mload\n        /* \"#utility.yul\":3778:3796   */\n      dup3\n      dup3\n      add\n        /* \"#utility.yul\":3897:3919   */\n      dup2\n      swap1\n      mstore\n        /* \"#utility.yul\":3724:3728   */\n      0x00\n      swap2\n        /* \"#utility.yul\":3753:3755   */\n      swap1\n        /* \"#utility.yul\":3938:3940   */\n      0x40\n      swap1\n        /* \"#utility.yul\":3956:3974   */\n      dup2\n      dup6\n      add\n      swap1\n        /* \"#utility.yul\":3997:4012   */\n      dup7\n      dup5\n      add\n        /* \"#utility.yul\":3724:3728   */\n      dup6\n        /* \"#utility.yul\":4040:4535   */\n    tag_259:\n        /* \"#utility.yul\":4054:4060   */\n      dup3\n        /* \"#utility.yul\":4051:4052   */\n      dup2\n        /* \"#utility.yul\":4048:4061   */\n      lt\n        /* \"#utility.yul\":4040:4535   */\n      iszero\n      tag_261\n      jumpi\n        /* \"#utility.yul\":4113:4126   */\n      dup2\n      mload\n        /* \"#utility.yul\":4151:4160   */\n      dup1\n      mload\n        /* \"#utility.yul\":4139:4161   */\n      dup6\n      mstore\n        /* \"#utility.yul\":4201:4212   */\n      dup7\n      dup2\n      add\n        /* \"#utility.yul\":4195:4213   */\n      mload\n        /* \"#utility.yul\":4181:4193   */\n      dup8\n      dup7\n      add\n        /* \"#utility.yul\":4174:4214   */\n      mstore\n        /* \"#utility.yul\":4254:4265   */\n      dup6\n      dup2\n      add\n        /* \"#utility.yul\":4248:4266   */\n      mload\n        /* \"#utility.yul\":4234:4246   */\n      dup7\n      dup7\n      add\n        /* \"#utility.yul\":4227:4267   */\n      mstore\n        /* \"#utility.yul\":4290:4294   */\n      0x60\n        /* \"#utility.yul\":4334:4345   */\n      dup1\n      dup3\n      add\n        /* \"#utility.yul\":4328:4346   */\n      mload\n        /* \"#utility.yul\":4314:4326   */\n      swap1\n      dup7\n      add\n        /* \"#utility.yul\":4307:4347   */\n      mstore\n        /* \"#utility.yul\":4370:4374   */\n      0x80\n        /* \"#utility.yul\":4418:4429   */\n      swap1\n      dup2\n      add\n        /* \"#utility.yul\":4412:4430   */\n      mload\n      sub(shl(0xa0, 0x01), 0x01)\n        /* \"#utility.yul\":4408:4452   */\n      and\n        /* \"#utility.yul\":4394:4406   */\n      swap1\n      dup6\n      add\n        /* \"#utility.yul\":4387:4453   */\n      mstore\n        /* \"#utility.yul\":4440:4443   */\n      0xa0\n        /* \"#utility.yul\":4473:4487   */\n      swap1\n      swap4\n      add\n      swap3\n        /* \"#utility.yul\":4510:4525   */\n      swap1\n      dup6\n      add\n      swap1\n        /* \"#utility.yul\":4449:4450   */\n      0x01\n        /* \"#utility.yul\":4069:4078   */\n      add\n        /* \"#utility.yul\":4040:4535   */\n      jump(tag_259)\n    tag_261:\n      pop\n        /* \"#utility.yul\":4552:4555   */\n      swap2\n      swap8\n        /* \"#utility.yul\":3536:4561   */\n      swap7\n      pop\n      pop\n      pop\n      pop\n      pop\n      pop\n      pop\n      jump\t// out\n        /* \"#utility.yul\":5206:5562   */\n    tag_146:\n        /* \"#utility.yul\":5408:5410   */\n      0x20\n        /* \"#utility.yul\":5390:5411   */\n      dup1\n      dup3\n      mstore\n        /* \"#utility.yul\":5427:5445   */\n      dup2\n      dup2\n      add\n        /* \"#utility.yul\":5420:5450   */\n      mstore\n        /* \"#utility.yul\":5486:5520   */\n      0x4f776e61626c653a2063616c6c6572206973206e6f7420746865206f776e6572\n        /* \"#utility.yul\":5481:5483   */\n      0x40\n        /* \"#utility.yul\":5466:5484   */\n      dup3\n      add\n        /* \"#utility.yul\":5459:5521   */\n      mstore\n        /* \"#utility.yul\":5553:5555   */\n      0x60\n        /* \"#utility.yul\":5538:5556   */\n      add\n      swap1\n        /* \"#utility.yul\":5206:5562   */\n      jump\t// out\n        /* \"#utility.yul\":6522:6650   */\n    tag_158:\n        /* \"#utility.yul\":6562:6565   */\n      0x00\n        /* \"#utility.yul\":6593:6594   */\n      dup3\n        /* \"#utility.yul\":6589:6595   */\n      not\n        /* \"#utility.yul\":6586:6587   */\n      dup3\n        /* \"#utility.yul\":6583:6596   */\n      gt\n        /* \"#utility.yul\":6580:6619   */\n      iszero\n      tag_270\n      jumpi\n        /* \"#utility.yul\":6599:6617   */\n      tag_270\n      tag_271\n      jump\t// in\n    tag_270:\n      pop\n        /* \"#utility.yul\":6635:6644   */\n      add\n      swap1\n        /* \"#utility.yul\":6522:6650   */\n      jump\t// out\n        /* \"#utility.yul\":6655:6780   */\n    tag_187:\n        /* \"#utility.yul\":6695:6699   */\n      0x00\n        /* \"#utility.yul\":6723:6724   */\n      dup3\n        /* \"#utility.yul\":6720:6721   */\n      dup3\n        /* \"#utility.yul\":6717:6725   */\n      lt\n        /* \"#utility.yul\":6714:6748   */\n      iszero\n      tag_274\n      jumpi\n        /* \"#utility.yul\":6728:6746   */\n      tag_274\n      tag_271\n      jump\t// in\n    tag_274:\n      pop\n        /* \"#utility.yul\":6765:6774   */\n      sub\n      swap1\n        /* \"#utility.yul\":6655:6780   */\n      jump\t// out\n        /* \"#utility.yul\":6785:6920   */\n    tag_98:\n        /* \"#utility.yul\":6824:6827   */\n      0x00\n      not(0x00)\n        /* \"#utility.yul\":6845:6862   */\n      dup3\n      eq\n        /* \"#utility.yul\":6842:6885   */\n      iszero\n      tag_277\n      jumpi\n        /* \"#utility.yul\":6865:6883   */\n      tag_277\n      tag_271\n      jump\t// in\n    tag_277:\n      pop\n        /* \"#utility.yul\":6912:6913   */\n      0x01\n        /* \"#utility.yul\":6901:6914   */\n      add\n      swap1\n        /* \"#utility.yul\":6785:6920   */\n      jump\t// out\n        /* \"#utility.yul\":6925:7134   */\n    tag_221:\n        /* \"#utility.yul\":6957:6958   */\n      0x00\n        /* \"#utility.yul\":6983:6984   */\n      dup3\n        /* \"#utility.yul\":6973:7105   */\n      tag_279\n      jumpi\n        /* \"#utility.yul\":7027:7037   */\n      0x4e487b71\n        /* \"#utility.yul\":7022:7025   */\n      0xe0\n        /* \"#utility.yul\":7018:7038   */\n      shl\n        /* \"#utility.yul\":7015:7016   */\n      0x00\n        /* \"#utility.yul\":7008:7039   */\n      mstore\n        /* \"#utility.yul\":7062:7066   */\n      0x12\n        /* \"#utility.yul\":7059:7060   */\n      0x04\n        /* \"#utility.yul\":7052:7067   */\n      mstore\n        /* \"#utility.yul\":7090:7094   */\n      0x24\n        /* \"#utility.yul\":7087:7088   */\n      0x00\n        /* \"#utility.yul\":7080:7095   */\n      revert\n        /* \"#utility.yul\":6973:7105   */\n    tag_279:\n      pop\n        /* \"#utility.yul\":7119:7128   */\n      mod\n      swap1\n        /* \"#utility.yul\":6925:7134   */\n      jump\t// out\n        /* \"#utility.yul\":7139:7266   */\n    tag_271:\n        /* \"#utility.yul\":7200:7210   */\n      0x4e487b71\n        /* \"#utility.yul\":7195:7198   */\n      0xe0\n        /* \"#utility.yul\":7191:7211   */\n      shl\n        /* \"#utility.yul\":7188:7189   */\n      0x00\n        /* \"#utility.yul\":7181:7212   */\n      mstore\n        /* \"#utility.yul\":7231:7235   */\n      0x11\n        /* \"#utility.yul\":7228:7229   */\n      0x04\n        /* \"#utility.yul\":7221:7236   */\n      mstore\n        /* \"#utility.yul\":7255:7259   */\n      0x24\n        /* \"#utility.yul\":7252:7253   */\n      0x00\n        /* \"#utility.yul\":7245:7260   */\n      revert\n        /* \"#utility.yul\":7271:7398   */\n    tag_134:\n        /* \"#utility.yul\":7332:7342   */\n      0x4e487b71\n        /* \"#utility.yul\":7327:7330   */\n      0xe0\n        /* \"#utility.yul\":7323:7343   */\n      shl\n        /* \"#utility.yul\":7320:7321   */\n      0x00\n        /* \"#utility.yul\":7313:7344   */\n      mstore\n        /* \"#utility.yul\":7363:7367   */\n      0x32\n        /* \"#utility.yul\":7360:7361   */\n      0x04\n        /* \"#utility.yul\":7353:7368   */\n      mstore\n        /* \"#utility.yul\":7387:7391   */\n      0x24\n        /* \"#utility.yul\":7384:7385   */\n      0x00\n        /* \"#utility.yul\":7377:7392   */\n      revert\n        /* \"#utility.yul\":7403:7530   */\n    tag_113:\n        /* \"#utility.yul\":7464:7474   */\n      0x4e487b71\n        /* \"#utility.yul\":7459:7462   */\n      0xe0\n        /* \"#utility.yul\":7455:7475   */\n      shl\n        /* \"#utility.yul\":7452:7453   */\n      0x00\n        /* \"#utility.yul\":7445:7476   */\n      mstore\n        /* \"#utility.yul\":7495:7499   */\n      0x41\n        /* \"#utility.yul\":7492:7493   */\n      0x04\n        /* \"#utility.yul\":7485:7500   */\n      mstore\n        /* \"#utility.yul\":7519:7523   */\n      0x24\n        /* \"#utility.yul\":7516:7517   */\n      0x00\n        /* \"#utility.yul\":7509:7524   */\n      revert\n        /* \"#utility.yul\":7535:7666   */\n    tag_237:\n      sub(shl(0xa0, 0x01), 0x01)\n        /* \"#utility.yul\":7610:7641   */\n      dup2\n      and\n        /* \"#utility.yul\":7600:7642   */\n      dup2\n      eq\n        /* \"#utility.yul\":7590:7660   */\n      tag_212\n      jumpi\n        /* \"#utility.yul\":7656:7657   */\n      0x00\n        /* \"#utility.yul\":7653:7654   */\n      dup1\n        /* \"#utility.yul\":7646:7658   */\n      revert\n\n    auxdata: 0xa26469706673582212201a162048a23c9ce4068afb91a19d51ca0273b160bc4a7a555e5da5e36c61aeb964736f6c63430008070033\n}\n",
				"bytecode": {
					"linkReferences": {},
					"object": "608060405234801561001057600080fd5b5060405161124c38038061124c83398101604081905261002f916100ad565b6100383361005d565b600380546001600160a01b0319166001600160a01b03929092169190911790556100dd565b600080546001600160a01b038381166001600160a01b0319831681178455604051919092169283917f8be0079c531659141344cd1fd0a4f28419497f9722a3daafe3b4186f6b6457e09190a35050565b6000602082840312156100bf57600080fd5b81516001600160a01b03811681146100d657600080fd5b9392505050565b611160806100ec6000396000f3fe608060405234801561001057600080fd5b50600436106100ea5760003560e01c80638da5cb5b1161008c578063aeb1835011610066578063aeb1835014610207578063bc15cdf01461021a578063f2fde38b1461023a578063f737d21d1461024d57600080fd5b80638da5cb5b146101575780639f10a9901461017c578063ac128f4f1461018f57600080fd5b80633b98bc65116100c85780633b98bc651461011b578063454f7b8f146101315780636fbb5a861461013a578063715018a61461014f57600080fd5b8063119b22b3146100ef578063158977de1461010b57806317be85c314610113575b600080fd5b6100f860015481565b6040519081526020015b60405180910390f35b6100f861027d565b6100f8610442565b6101236104c4565b604051610102929190610f37565b6100f860025481565b61014d610148366004610f15565b61077f565b005b61014d6109b9565b6000546001600160a01b03165b6040516001600160a01b039091168152602001610102565b6100f861018a366004610ea2565b6109ef565b6101d661019d366004610ee3565b6004602081905260009182526040909120805460018201546002830154600384015493909401549193909290916001600160a01b031685565b6040805195865260208601949094529284019190915260608301526001600160a01b0316608082015260a001610102565b600354610164906001600160a01b031681565b61022d610228366004610f15565b610a73565b6040516101029190610fbb565b61014d610248366004610ea2565b610bf6565b61026061025b366004610ee3565b610c91565b604080519283526001600160a01b03909116602083015201610102565b600080600360009054906101000a90046001600160a01b03166001600160a01b03166318160ddd6040518163ffffffff1660e01b815260040160206040518083038186803b1580156102ce57600080fd5b505afa1580156102e2573d6000803e3d6000fd5b505050506040513d601f19601f820116820180604052508101906103069190610efc565b905060015b81811161043d576003546040516331a9108f60e11b8152600481018390526000916001600160a01b031690636352211e9060240160206040518083038186803b15801561035757600080fd5b505afa15801561036b573d6000803e3d6000fd5b505050506040513d601f19601f8201168201806040525081019061038f9190610ec6565b600354604051632f745c5960e01b81526001600160a01b03808416600483015260006024830152929350911690632f745c599060440160206040518083038186803b1580156103dd57600080fd5b505afa1580156103f1573d6000803e3d6000fd5b505050506040513d601f19601f820116820180604052508101906104159190610efc565b82141561042a578361042681611096565b9450505b508061043581611096565b91505061030b565b505090565b600354604080516318160ddd60e01b815290516000926001600160a01b0316916318160ddd916004808301926020929190829003018186803b15801561048757600080fd5b505afa15801561049b573d6000803e3d6000fd5b505050506040513d601f19601f820116820180604052508101906104bf9190610efc565b905090565b6060806000600360009054906101000a90046001600160a01b03166001600160a01b03166318160ddd6040518163ffffffff1660e01b815260040160206040518083038186803b15801561051757600080fd5b505afa15801561052b573d6000803e3d6000fd5b505050506040513d601f19601f8201168201806040525081019061054f9190610efc565b9050600061055b61027d565b90508067ffffffffffffffff811115610576576105766110ff565b60405190808252806020026020018201604052801561059f578160200160208202803683370190505b5093508067ffffffffffffffff8111156105bb576105bb6110ff565b6040519080825280602002602001820160405280156105e4578160200160208202803683370190505b509250600060015b838111610777576003546040516331a9108f60e11b8152600481018390526000916001600160a01b031690636352211e9060240160206040518083038186803b15801561063857600080fd5b505afa15801561064c573d6000803e3d6000fd5b505050506040513d601f19601f820116820180604052508101906106709190610ec6565b600354604051632f745c5960e01b81526001600160a01b03808416600483015260006024830152929350911690632f745c599060440160206040518083038186803b1580156106be57600080fd5b505afa1580156106d2573d6000803e3d6000fd5b505050506040513d601f19601f820116820180604052508101906106f69190610efc565b8214156107645780878481518110610710576107106110e9565b60200260200101906001600160a01b031690816001600160a01b031681525050610739816109ef565b86848151811061074b5761074b6110e9565b60209081029190910101528261076081611096565b9350505b508061076f81611096565b9150506105ec565b505050509091565b6000546001600160a01b031633146107b25760405162461bcd60e51b81526004016107a990611032565b60405180910390fd5b6003546040516331a9108f60e11b8152600481018490526000916001600160a01b031690636352211e9060240160206040518083038186803b1580156107f757600080fd5b505afa15801561080b573d6000803e3d6000fd5b505050506040513d601f19601f8201168201806040525081019061082f9190610ec6565b6040805160a081018083526003546318160ddd60e01b90915291519293509182916001600160a01b0316906318160ddd9060a480850191602091818703018186803b15801561087d57600080fd5b505afa158015610891573d6000803e3d6000fd5b505050506040513d601f19601f820116820180604052508101906108b59190610efc565b8152602001848152602001838152602001428152602001826001600160a01b03168152506004600060015481526020019081526020016000206000820151816000015560208201518160010155604082015181600201556060820151816003015560808201518160040160006101000a8154816001600160a01b0302191690836001600160a01b0316021790555090505081600260008282546109589190611067565b90915550506001805490600061096d83611096565b9091555050604080516001600160a01b0383168152602081018490527f2e798dd4337e515c79b64c40e1a93baa1aefbd9180ac7905e02508edd7971e50910160405180910390a1505050565b6000546001600160a01b031633146109e35760405162461bcd60e51b81526004016107a990611032565b6109ed6000610dc2565b565b6003546040516370a0823160e01b81526001600160a01b03838116600483015260009216906370a082319060240160206040518083038186803b158015610a3557600080fd5b505afa158015610a49573d6000803e3d6000fd5b505050506040513d601f19601f82011682018060405250810190610a6d9190610efc565b92915050565b606060015460001415610ab9576040805160008082526020820190925290610ab1565b610a9e610e6a565b815260200190600190039081610a965790505b509050610a6d565b6001548210610ad35760018054610ad0919061107f565b91505b6000610adf848461107f565b610aea906001611067565b905060008167ffffffffffffffff811115610b0757610b076110ff565b604051908082528060200260200182016040528015610b4057816020015b610b2d610e6a565b815260200190600190039081610b255790505b509250845b848111610bed5760046000610b5a8389611067565b81526020808201929092526040908101600020815160a0810183528154815260018201549381019390935260028101549183019190915260038101546060830152600401546001600160a01b031660808201528451859084908110610bc157610bc16110e9565b60200260200101819052508180610bd790611096565b9250508080610be590611096565b915050610b45565b50505092915050565b6000546001600160a01b03163314610c205760405162461bcd60e51b81526004016107a990611032565b6001600160a01b038116610c855760405162461bcd60e51b815260206004820152602660248201527f4f776e61626c653a206e6577206f776e657220697320746865207a65726f206160448201526564647265737360d01b60648201526084016107a9565b610c8e81610dc2565b50565b6000806000600360009054906101000a90046001600160a01b03166001600160a01b03166318160ddd6040518163ffffffff1660e01b815260040160206040518083038186803b158015610ce457600080fd5b505afa158015610cf8573d6000803e3d6000fd5b505050506040513d601f19601f82011682018060405250810190610d1c9190610efc565b905080610d2885610e12565b610d3291906110b1565b610d3d906001611067565b6003546040516331a9108f60e11b8152600481018390529194506001600160a01b031690636352211e9060240160206040518083038186803b158015610d8257600080fd5b505afa158015610d96573d6000803e3d6000fd5b505050506040513d601f19601f82011682018060405250810190610dba9190610ec6565b915050915091565b600080546001600160a01b038381166001600160a01b0319831681178455604051919092169283917f8be0079c531659141344cd1fd0a4f28419497f9722a3daafe3b4186f6b6457e09190a35050565b600081425a60408051602081019490945283019190915260608083019190915233901b6bffffffffffffffffffffffff1916608082015260940160408051601f19818403018152919052805160209091012092915050565b6040518060a001604052806000815260200160008152602001600081526020016000815260200160006001600160a01b031681525090565b600060208284031215610eb457600080fd5b8135610ebf81611115565b9392505050565b600060208284031215610ed857600080fd5b8151610ebf81611115565b600060208284031215610ef557600080fd5b5035919050565b600060208284031215610f0e57600080fd5b5051919050565b60008060408385031215610f2857600080fd5b50508035926020909101359150565b604080825283519082018190526000906020906060840190828701845b82811015610f795781516001600160a01b031684529284019290840190600101610f54565b5050508381038285015284518082528583019183019060005b81811015610fae57835183529284019291840191600101610f92565b5090979650505050505050565b602080825282518282018190526000919060409081850190868401855b828110156110255781518051855286810151878601528581015186860152606080820151908601526080908101516001600160a01b03169085015260a09093019290850190600101610fd8565b5091979650505050505050565b6020808252818101527f4f776e61626c653a2063616c6c6572206973206e6f7420746865206f776e6572604082015260600190565b6000821982111561107a5761107a6110d3565b500190565b600082821015611091576110916110d3565b500390565b60006000198214156110aa576110aa6110d3565b5060010190565b6000826110ce57634e487b7160e01b600052601260045260246000fd5b500690565b634e487b7160e01b600052601160045260246000fd5b634e487b7160e01b600052603260045260246000fd5b634e487b7160e01b600052604160045260246000fd5b6001600160a01b0381168114610c8e57600080fdfea26469706673582212201a162048a23c9ce4068afb91a19d51ca0273b160bc4a7a555e5da5e36c61aeb964736f6c63430008070033",
					"opcodes": "PUSH1 0x80 PUSH1 0x40 MSTORE CALLVALUE DUP1 ISZERO PUSH2 0x10 JUMPI PUSH1 0x0 DUP1 REVERT JUMPDEST POP PUSH1 0x40 MLOAD PUSH2 0x124C CODESIZE SUB DUP1 PUSH2 0x124C DUP4 CODECOPY DUP2 ADD PUSH1 0x40 DUP2 SWAP1 MSTORE PUSH2 0x2F SWAP2 PUSH2 0xAD JUMP JUMPDEST PUSH2 0x38 CALLER PUSH2 0x5D JUMP JUMPDEST PUSH1 0x3 DUP1 SLOAD PUSH1 0x1 PUSH1 0x1 PUSH1 0xA0 SHL SUB NOT AND PUSH1 0x1 PUSH1 0x1 PUSH1 0xA0 SHL SUB SWAP3 SWAP1 SWAP3 AND SWAP2 SWAP1 SWAP2 OR SWAP1 SSTORE PUSH2 0xDD JUMP JUMPDEST PUSH1 0x0 DUP1 SLOAD PUSH1 0x1 PUSH1 0x1 PUSH1 0xA0 SHL SUB DUP4 DUP2 AND PUSH1 0x1 PUSH1 0x1 PUSH1 0xA0 SHL SUB NOT DUP4 AND DUP2 OR DUP5 SSTORE PUSH1 0x40 MLOAD SWAP2 SWAP1 SWAP3 AND SWAP3 DUP4 SWAP2 PUSH32 0x8BE0079C531659141344CD1FD0A4F28419497F9722A3DAAFE3B4186F6B6457E0 SWAP2 SWAP1 LOG3 POP POP JUMP JUMPDEST PUSH1 0x0 PUSH1 0x20 DUP3 DUP5 SUB SLT ISZERO PUSH2 0xBF JUMPI PUSH1 0x0 DUP1 REVERT JUMPDEST DUP2 MLOAD PUSH1 0x1 PUSH1 0x1 PUSH1 0xA0 SHL SUB DUP2 AND DUP2 EQ PUSH2 0xD6 JUMPI PUSH1 0x0 DUP1 REVERT JUMPDEST SWAP4 SWAP3 POP POP POP JUMP JUMPDEST PUSH2 0x1160 DUP1 PUSH2 0xEC PUSH1 0x0 CODECOPY PUSH1 0x0 RETURN INVALID PUSH1 0x80 PUSH1 0x40 MSTORE CALLVALUE DUP1 ISZERO PUSH2 0x10 JUMPI PUSH1 0x0 DUP1 REVERT JUMPDEST POP PUSH1 0x4 CALLDATASIZE LT PUSH2 0xEA JUMPI PUSH1 0x0 CALLDATALOAD PUSH1 0xE0 SHR DUP1 PUSH4 0x8DA5CB5B GT PUSH2 0x8C JUMPI DUP1 PUSH4 0xAEB18350 GT PUSH2 0x66 JUMPI DUP1 PUSH4 0xAEB18350 EQ PUSH2 0x207 JUMPI DUP1 PUSH4 0xBC15CDF0 EQ PUSH2 0x21A JUMPI DUP1 PUSH4 0xF2FDE38B EQ PUSH2 0x23A JUMPI DUP1 PUSH4 0xF737D21D EQ PUSH2 0x24D JUMPI PUSH1 0x0 DUP1 REVERT JUMPDEST DUP1 PUSH4 0x8DA5CB5B EQ PUSH2 0x157 JUMPI DUP1 PUSH4 0x9F10A990 EQ PUSH2 0x17C JUMPI DUP1 PUSH4 0xAC128F4F EQ PUSH2 0x18F JUMPI PUSH1 0x0 DUP1 REVERT JUMPDEST DUP1 PUSH4 0x3B98BC65 GT PUSH2 0xC8 JUMPI DUP1 PUSH4 0x3B98BC65 EQ PUSH2 0x11B JUMPI DUP1 PUSH4 0x454F7B8F EQ PUSH2 0x131 JUMPI DUP1 PUSH4 0x6FBB5A86 EQ PUSH2 0x13A JUMPI DUP1 PUSH4 0x715018A6 EQ PUSH2 0x14F JUMPI PUSH1 0x0 DUP1 REVERT JUMPDEST DUP1 PUSH4 0x119B22B3 EQ PUSH2 0xEF JUMPI DUP1 PUSH4 0x158977DE EQ PUSH2 0x10B JUMPI DUP1 PUSH4 0x17BE85C3 EQ PUSH2 0x113 JUMPI JUMPDEST PUSH1 0x0 DUP1 REVERT JUMPDEST PUSH2 0xF8 PUSH1 0x1 SLOAD DUP2 JUMP JUMPDEST PUSH1 0x40 MLOAD SWAP1 DUP2 MSTORE PUSH1 0x20 ADD JUMPDEST PUSH1 0x40 MLOAD DUP1 SWAP2 SUB SWAP1 RETURN JUMPDEST PUSH2 0xF8 PUSH2 0x27D JUMP JUMPDEST PUSH2 0xF8 PUSH2 0x442 JUMP JUMPDEST PUSH2 0x123 PUSH2 0x4C4 JUMP JUMPDEST PUSH1 0x40 MLOAD PUSH2 0x102 SWAP3 SWAP2 SWAP1 PUSH2 0xF37 JUMP JUMPDEST PUSH2 0xF8 PUSH1 0x2 SLOAD DUP2 JUMP JUMPDEST PUSH2 0x14D PUSH2 0x148 CALLDATASIZE PUSH1 0x4 PUSH2 0xF15 JUMP JUMPDEST PUSH2 0x77F JUMP JUMPDEST STOP JUMPDEST PUSH2 0x14D PUSH2 0x9B9 JUMP JUMPDEST PUSH1 0x0 SLOAD PUSH1 0x1 PUSH1 0x1 PUSH1 0xA0 SHL SUB AND JUMPDEST PUSH1 0x40 MLOAD PUSH1 0x1 PUSH1 0x1 PUSH1 0xA0 SHL SUB SWAP1 SWAP2 AND DUP2 MSTORE PUSH1 0x20 ADD PUSH2 0x102 JUMP JUMPDEST PUSH2 0xF8 PUSH2 0x18A CALLDATASIZE PUSH1 0x4 PUSH2 0xEA2 JUMP JUMPDEST PUSH2 0x9EF JUMP JUMPDEST PUSH2 0x1D6 PUSH2 0x19D CALLDATASIZE PUSH1 0x4 PUSH2 0xEE3 JUMP JUMPDEST PUSH1 0x4 PUSH1 0x20 DUP2 SWAP1 MSTORE PUSH1 0x0 SWAP2 DUP3 MSTORE PUSH1 0x40 SWAP1 SWAP2 KECCAK256 DUP1 SLOAD PUSH1 0x1 DUP3 ADD SLOAD PUSH1 0x2 DUP4 ADD SLOAD PUSH1 0x3 DUP5 ADD SLOAD SWAP4 SWAP1 SWAP5 ADD SLOAD SWAP2 SWAP4 SWAP1 SWAP3 SWAP1 SWAP2 PUSH1 0x1 PUSH1 0x1 PUSH1 0xA0 SHL SUB AND DUP6 JUMP JUMPDEST PUSH1 0x40 DUP1 MLOAD SWAP6 DUP7 MSTORE PUSH1 0x20 DUP7 ADD SWAP5 SWAP1 SWAP5 MSTORE SWAP3 DUP5 ADD SWAP2 SWAP1 SWAP2 MSTORE PUSH1 0x60 DUP4 ADD MSTORE PUSH1 0x1 PUSH1 0x1 PUSH1 0xA0 SHL SUB AND PUSH1 0x80 DUP3 ADD MSTORE PUSH1 0xA0 ADD PUSH2 0x102 JUMP JUMPDEST PUSH1 0x3 SLOAD PUSH2 0x164 SWAP1 PUSH1 0x1 PUSH1 0x1 PUSH1 0xA0 SHL SUB AND DUP2 JUMP JUMPDEST PUSH2 0x22D PUSH2 0x228 CALLDATASIZE PUSH1 0x4 PUSH2 0xF15 JUMP JUMPDEST PUSH2 0xA73 JUMP JUMPDEST PUSH1 0x40 MLOAD PUSH2 0x102 SWAP2 SWAP1 PUSH2 0xFBB JUMP JUMPDEST PUSH2 0x14D PUSH2 0x248 CALLDATASIZE PUSH1 0x4 PUSH2 0xEA2 JUMP JUMPDEST PUSH2 0xBF6 JUMP JUMPDEST PUSH2 0x260 PUSH2 0x25B CALLDATASIZE PUSH1 0x4 PUSH2 0xEE3 JUMP JUMPDEST PUSH2 0xC91 JUMP JUMPDEST PUSH1 0x40 DUP1 MLOAD SWAP3 DUP4 MSTORE PUSH1 0x1 PUSH1 0x1 PUSH1 0xA0 SHL SUB SWAP1 SWAP2 AND PUSH1 0x20 DUP4 ADD MSTORE ADD PUSH2 0x102 JUMP JUMPDEST PUSH1 0x0 DUP1 PUSH1 0x3 PUSH1 0x0 SWAP1 SLOAD SWAP1 PUSH2 0x100 EXP SWAP1 DIV PUSH1 0x1 PUSH1 0x1 PUSH1 0xA0 SHL SUB AND PUSH1 0x1 PUSH1 0x1 PUSH1 0xA0 SHL SUB AND PUSH4 0x18160DDD PUSH1 0x40 MLOAD DUP2 PUSH4 0xFFFFFFFF AND PUSH1 0xE0 SHL DUP2 MSTORE PUSH1 0x4 ADD PUSH1 0x20 PUSH1 0x40 MLOAD DUP1 DUP4 SUB DUP2 DUP7 DUP1 EXTCODESIZE ISZERO DUP1 ISZERO PUSH2 0x2CE JUMPI PUSH1 0x0 DUP1 REVERT JUMPDEST POP GAS STATICCALL ISZERO DUP1 ISZERO PUSH2 0x2E2 JUMPI RETURNDATASIZE PUSH1 0x0 DUP1 RETURNDATACOPY RETURNDATASIZE PUSH1 0x0 REVERT JUMPDEST POP POP POP POP PUSH1 0x40 MLOAD RETURNDATASIZE PUSH1 0x1F NOT PUSH1 0x1F DUP3 ADD AND DUP3 ADD DUP1 PUSH1 0x40 MSTORE POP DUP2 ADD SWAP1 PUSH2 0x306 SWAP2 SWAP1 PUSH2 0xEFC JUMP JUMPDEST SWAP1 POP PUSH1 0x1 JUMPDEST DUP2 DUP2 GT PUSH2 0x43D JUMPI PUSH1 0x3 SLOAD PUSH1 0x40 MLOAD PUSH4 0x31A9108F PUSH1 0xE1 SHL DUP2 MSTORE PUSH1 0x4 DUP2 ADD DUP4 SWAP1 MSTORE PUSH1 0x0 SWAP2 PUSH1 0x1 PUSH1 0x1 PUSH1 0xA0 SHL SUB AND SWAP1 PUSH4 0x6352211E SWAP1 PUSH1 0x24 ADD PUSH1 0x20 PUSH1 0x40 MLOAD DUP1 DUP4 SUB DUP2 DUP7 DUP1 EXTCODESIZE ISZERO DUP1 ISZERO PUSH2 0x357 JUMPI PUSH1 0x0 DUP1 REVERT JUMPDEST POP GAS STATICCALL ISZERO DUP1 ISZERO PUSH2 0x36B JUMPI RETURNDATASIZE PUSH1 0x0 DUP1 RETURNDATACOPY RETURNDATASIZE PUSH1 0x0 REVERT JUMPDEST POP POP POP POP PUSH1 0x40 MLOAD RETURNDATASIZE PUSH1 0x1F NOT PUSH1 0x1F DUP3 ADD AND DUP3 ADD DUP1 PUSH1 0x40 MSTORE POP DUP2 ADD SWAP1 PUSH2 0x38F SWAP2 SWAP1 PUSH2 0xEC6 JUMP JUMPDEST PUSH1 0x3 SLOAD PUSH1 0x40 MLOAD PUSH4 0x2F745C59 PUSH1 0xE0 SHL DUP2 MSTORE PUSH1 0x1 PUSH1 0x1 PUSH1 0xA0 SHL SUB DUP1 DUP5 AND PUSH1 0x4 DUP4 ADD MSTORE PUSH1 0x0 PUSH1 0x24 DUP4 ADD MSTORE SWAP3 SWAP4 POP SWAP2 AND SWAP1 PUSH4 0x2F745C59 SWAP1 PUSH1 0x44 ADD PUSH1 0x20 PUSH1 0x40 MLOAD DUP1 DUP4 SUB DUP2 DUP7 DUP1 EXTCODESIZE ISZERO DUP1 ISZERO PUSH2 0x3DD JUMPI PUSH1 0x0 DUP1 REVERT JUMPDEST POP GAS STATICCALL ISZERO DUP1 ISZERO PUSH2 0x3F1 JUMPI RETURNDATASIZE PUSH1 0x0 DUP1 RETURNDATACOPY RETURNDATASIZE PUSH1 0x0 REVERT JUMPDEST POP POP POP POP PUSH1 0x40 MLOAD RETURNDATASIZE PUSH1 0x1F NOT PUSH1 0x1F DUP3 ADD AND DUP3 ADD DUP1 PUSH1 0x40 MSTORE POP DUP2 ADD SWAP1 PUSH2 0x415 SWAP2 SWAP1 PUSH2 0xEFC JUMP JUMPDEST DUP3 EQ ISZERO PUSH2 0x42A JUMPI DUP4 PUSH2 0x426 DUP2 PUSH2 0x1096 JUMP JUMPDEST SWAP5 POP POP JUMPDEST POP DUP1 PUSH2 0x435 DUP2 PUSH2 0x1096 JUMP JUMPDEST SWAP2 POP POP PUSH2 0x30B JUMP JUMPDEST POP POP SWAP1 JUMP JUMPDEST PUSH1 0x3 SLOAD PUSH1 0x40 DUP1 MLOAD PUSH4 0x18160DDD PUSH1 0xE0 SHL DUP2 MSTORE SWAP1 MLOAD PUSH1 0x0 SWAP3 PUSH1 0x1 PUSH1 0x1 PUSH1 0xA0 SHL SUB AND SWAP2 PUSH4 0x18160DDD SWAP2 PUSH1 0x4 DUP1 DUP4 ADD SWAP3 PUSH1 0x20 SWAP3 SWAP2 SWAP1 DUP3 SWAP1 SUB ADD DUP2 DUP7 DUP1 EXTCODESIZE ISZERO DUP1 ISZERO PUSH2 0x487 JUMPI PUSH1 0x0 DUP1 REVERT JUMPDEST POP GAS STATICCALL ISZERO DUP1 ISZERO PUSH2 0x49B JUMPI RETURNDATASIZE PUSH1 0x0 DUP1 RETURNDATACOPY RETURNDATASIZE PUSH1 0x0 REVERT JUMPDEST POP POP POP POP PUSH1 0x40 MLOAD RETURNDATASIZE PUSH1 0x1F NOT PUSH1 0x1F DUP3 ADD AND DUP3 ADD DUP1 PUSH1 0x40 MSTORE POP DUP2 ADD SWAP1 PUSH2 0x4BF SWAP2 SWAP1 PUSH2 0xEFC JUMP JUMPDEST SWAP1 POP SWAP1 JUMP JUMPDEST PUSH1 0x60 DUP1 PUSH1 0x0 PUSH1 0x3 PUSH1 0x0 SWAP1 SLOAD SWAP1 PUSH2 0x100 EXP SWAP1 DIV PUSH1 0x1 PUSH1 0x1 PUSH1 0xA0 SHL SUB AND PUSH1 0x1 PUSH1 0x1 PUSH1 0xA0 SHL SUB AND PUSH4 0x18160DDD PUSH1 0x40 MLOAD DUP2 PUSH4 0xFFFFFFFF AND PUSH1 0xE0 SHL DUP2 MSTORE PUSH1 0x4 ADD PUSH1 0x20 PUSH1 0x40 MLOAD DUP1 DUP4 SUB DUP2 DUP7 DUP1 EXTCODESIZE ISZERO DUP1 ISZERO PUSH2 0x517 JUMPI PUSH1 0x0 DUP1 REVERT JUMPDEST POP GAS STATICCALL ISZERO DUP1 ISZERO PUSH2 0x52B JUMPI RETURNDATASIZE PUSH1 0x0 DUP1 RETURNDATACOPY RETURNDATASIZE PUSH1 0x0 REVERT JUMPDEST POP POP POP POP PUSH1 0x40 MLOAD RETURNDATASIZE PUSH1 0x1F NOT PUSH1 0x1F DUP3 ADD AND DUP3 ADD DUP1 PUSH1 0x40 MSTORE POP DUP2 ADD SWAP1 PUSH2 0x54F SWAP2 SWAP1 PUSH2 0xEFC JUMP JUMPDEST SWAP1 POP PUSH1 0x0 PUSH2 0x55B PUSH2 0x27D JUMP JUMPDEST SWAP1 POP DUP1 PUSH8 0xFFFFFFFFFFFFFFFF DUP2 GT ISZERO PUSH2 0x576 JUMPI PUSH2 0x576 PUSH2 0x10FF JUMP JUMPDEST PUSH1 0x40 MLOAD SWAP1 DUP1 DUP3 MSTORE DUP1 PUSH1 0x20 MUL PUSH1 0x20 ADD DUP3 ADD PUSH1 0x40 MSTORE DUP1 ISZERO PUSH2 0x59F JUMPI DUP2 PUSH1 0x20 ADD PUSH1 0x20 DUP3 MUL DUP1 CALLDATASIZE DUP4 CALLDATACOPY ADD SWAP1 POP JUMPDEST POP SWAP4 POP DUP1 PUSH8 0xFFFFFFFFFFFFFFFF DUP2 GT ISZERO PUSH2 0x5BB JUMPI PUSH2 0x5BB PUSH2 0x10FF JUMP JUMPDEST PUSH1 0x40 MLOAD SWAP1 DUP1 DUP3 MSTORE DUP1 PUSH1 0x20 MUL PUSH1 0x20 ADD DUP3 ADD PUSH1 0x40 MSTORE DUP1 ISZERO PUSH2 0x5E4 JUMPI DUP2 PUSH1 0x20 ADD PUSH1 0x20 DUP3 MUL DUP1 CALLDATASIZE DUP4 CALLDATACOPY ADD SWAP1 POP JUMPDEST POP SWAP3 POP PUSH1 0x0 PUSH1 0x1 JUMPDEST DUP4 DUP2 GT PUSH2 0x777 JUMPI PUSH1 0x3 SLOAD PUSH1 0x40 MLOAD PUSH4 0x31A9108F PUSH1 0xE1 SHL DUP2 MSTORE PUSH1 0x4 DUP2 ADD DUP4 SWAP1 MSTORE PUSH1 0x0 SWAP2 PUSH1 0x1 PUSH1 0x1 PUSH1 0xA0 SHL SUB AND SWAP1 PUSH4 0x6352211E SWAP1 PUSH1 0x24 ADD PUSH1 0x20 PUSH1 0x40 MLOAD DUP1 DUP4 SUB DUP2 DUP7 DUP1 EXTCODESIZE ISZERO DUP1 ISZERO PUSH2 0x638 JUMPI PUSH1 0x0 DUP1 REVERT JUMPDEST POP GAS STATICCALL ISZERO DUP1 ISZERO PUSH2 0x64C JUMPI RETURNDATASIZE PUSH1 0x0 DUP1 RETURNDATACOPY RETURNDATASIZE PUSH1 0x0 REVERT JUMPDEST POP POP POP POP PUSH1 0x40 MLOAD RETURNDATASIZE PUSH1 0x1F NOT PUSH1 0x1F DUP3 ADD AND DUP3 ADD DUP1 PUSH1 0x40 MSTORE POP DUP2 ADD SWAP1 PUSH2 0x670 SWAP2 SWAP1 PUSH2 0xEC6 JUMP JUMPDEST PUSH1 0x3 SLOAD PUSH1 0x40 MLOAD PUSH4 0x2F745C59 PUSH1 0xE0 SHL DUP2 MSTORE PUSH1 0x1 PUSH1 0x1 PUSH1 0xA0 SHL SUB DUP1 DUP5 AND PUSH1 0x4 DUP4 ADD MSTORE PUSH1 0x0 PUSH1 0x24 DUP4 ADD MSTORE SWAP3 SWAP4 POP SWAP2 AND SWAP1 PUSH4 0x2F745C59 SWAP1 PUSH1 0x44 ADD PUSH1 0x20 PUSH1 0x40 MLOAD DUP1 DUP4 SUB DUP2 DUP7 DUP1 EXTCODESIZE ISZERO DUP1 ISZERO PUSH2 0x6BE JUMPI PUSH1 0x0 DUP1 REVERT JUMPDEST POP GAS STATICCALL ISZERO DUP1 ISZERO PUSH2 0x6D2 JUMPI RETURNDATASIZE PUSH1 0x0 DUP1 RETURNDATACOPY RETURNDATASIZE PUSH1 0x0 REVERT JUMPDEST POP POP POP POP PUSH1 0x40 MLOAD RETURNDATASIZE PUSH1 0x1F NOT PUSH1 0x1F DUP3 ADD AND DUP3 ADD DUP1 PUSH1 0x40 MSTORE POP DUP2 ADD SWAP1 PUSH2 0x6F6 SWAP2 SWAP1 PUSH2 0xEFC JUMP JUMPDEST DUP3 EQ ISZERO PUSH2 0x764 JUMPI DUP1 DUP8 DUP5 DUP2 MLOAD DUP2 LT PUSH2 0x710 JUMPI PUSH2 0x710 PUSH2 0x10E9 JUMP JUMPDEST PUSH1 0x20 MUL PUSH1 0x20 ADD ADD SWAP1 PUSH1 0x1 PUSH1 0x1 PUSH1 0xA0 SHL SUB AND SWAP1 DUP2 PUSH1 0x1 PUSH1 0x1 PUSH1 0xA0 SHL SUB AND DUP2 MSTORE POP POP PUSH2 0x739 DUP2 PUSH2 0x9EF JUMP JUMPDEST DUP7 DUP5 DUP2 MLOAD DUP2 LT PUSH2 0x74B JUMPI PUSH2 0x74B PUSH2 0x10E9 JUMP JUMPDEST PUSH1 0x20 SWAP1 DUP2 MUL SWAP2 SWAP1 SWAP2 ADD ADD MSTORE DUP3 PUSH2 0x760 DUP2 PUSH2 0x1096 JUMP JUMPDEST SWAP4 POP POP JUMPDEST POP DUP1 PUSH2 0x76F DUP2 PUSH2 0x1096 JUMP JUMPDEST SWAP2 POP POP PUSH2 0x5EC JUMP JUMPDEST POP POP POP POP SWAP1 SWAP2 JUMP JUMPDEST PUSH1 0x0 SLOAD PUSH1 0x1 PUSH1 0x1 PUSH1 0xA0 SHL SUB AND CALLER EQ PUSH2 0x7B2 JUMPI PUSH1 0x40 MLOAD PUSH3 0x461BCD PUSH1 0xE5 SHL DUP2 MSTORE PUSH1 0x4 ADD PUSH2 0x7A9 SWAP1 PUSH2 0x1032 JUMP JUMPDEST PUSH1 0x40 MLOAD DUP1 SWAP2 SUB SWAP1 REVERT JUMPDEST PUSH1 0x3 SLOAD PUSH1 0x40 MLOAD PUSH4 0x31A9108F PUSH1 0xE1 SHL DUP2 MSTORE PUSH1 0x4 DUP2 ADD DUP5 SWAP1 MSTORE PUSH1 0x0 SWAP2 PUSH1 0x1 PUSH1 0x1 PUSH1 0xA0 SHL SUB AND SWAP1 PUSH4 0x6352211E SWAP1 PUSH1 0x24 ADD PUSH1 0x20 PUSH1 0x40 MLOAD DUP1 DUP4 SUB DUP2 DUP7 DUP1 EXTCODESIZE ISZERO DUP1 ISZERO PUSH2 0x7F7 JUMPI PUSH1 0x0 DUP1 REVERT JUMPDEST POP GAS STATICCALL ISZERO DUP1 ISZERO PUSH2 0x80B JUMPI RETURNDATASIZE PUSH1 0x0 DUP1 RETURNDATACOPY RETURNDATASIZE PUSH1 0x0 REVERT JUMPDEST POP POP POP POP PUSH1 0x40 MLOAD RETURNDATASIZE PUSH1 0x1F NOT PUSH1 0x1F DUP3 ADD AND DUP3 ADD DUP1 PUSH1 0x40 MSTORE POP DUP2 ADD SWAP1 PUSH2 0x82F SWAP2 SWAP1 PUSH2 0xEC6 JUMP JUMPDEST PUSH1 0x40 DUP1 MLOAD PUSH1 0xA0 DUP2 ADD DUP1 DUP4 MSTORE PUSH1 0x3 SLOAD PUSH4 0x18160DDD PUSH1 0xE0 SHL SWAP1 SWAP2 MSTORE SWAP2 MLOAD SWAP3 SWAP4 POP SWAP2 DUP3 SWAP2 PUSH1 0x1 PUSH1 0x1 PUSH1 0xA0 SHL SUB AND SWAP1 PUSH4 0x18160DDD SWAP1 PUSH1 0xA4 DUP1 DUP6 ADD SWAP2 PUSH1 0x20 SWAP2 DUP2 DUP8 SUB ADD DUP2 DUP7 DUP1 EXTCODESIZE ISZERO DUP1 ISZERO PUSH2 0x87D JUMPI PUSH1 0x0 DUP1 REVERT JUMPDEST POP GAS STATICCALL ISZERO DUP1 ISZERO PUSH2 0x891 JUMPI RETURNDATASIZE PUSH1 0x0 DUP1 RETURNDATACOPY RETURNDATASIZE PUSH1 0x0 REVERT JUMPDEST POP POP POP POP PUSH1 0x40 MLOAD RETURNDATASIZE PUSH1 0x1F NOT PUSH1 0x1F DUP3 ADD AND DUP3 ADD DUP1 PUSH1 0x40 MSTORE POP DUP2 ADD SWAP1 PUSH2 0x8B5 SWAP2 SWAP1 PUSH2 0xEFC JUMP JUMPDEST DUP2 MSTORE PUSH1 0x20 ADD DUP5 DUP2 MSTORE PUSH1 0x20 ADD DUP4 DUP2 MSTORE PUSH1 0x20 ADD TIMESTAMP DUP2 MSTORE PUSH1 0x20 ADD DUP3 PUSH1 0x1 PUSH1 0x1 PUSH1 0xA0 SHL SUB AND DUP2 MSTORE POP PUSH1 0x4 PUSH1 0x0 PUSH1 0x1 SLOAD DUP2 MSTORE PUSH1 0x20 ADD SWAP1 DUP2 MSTORE PUSH1 0x20 ADD PUSH1 0x0 KECCAK256 PUSH1 0x0 DUP3 ADD MLOAD DUP2 PUSH1 0x0 ADD SSTORE PUSH1 0x20 DUP3 ADD MLOAD DUP2 PUSH1 0x1 ADD SSTORE PUSH1 0x40 DUP3 ADD MLOAD DUP2 PUSH1 0x2 ADD SSTORE PUSH1 0x60 DUP3 ADD MLOAD DUP2 PUSH1 0x3 ADD SSTORE PUSH1 0x80 DUP3 ADD MLOAD DUP2 PUSH1 0x4 ADD PUSH1 0x0 PUSH2 0x100 EXP DUP2 SLOAD DUP2 PUSH1 0x1 PUSH1 0x1 PUSH1 0xA0 SHL SUB MUL NOT AND SWAP1 DUP4 PUSH1 0x1 PUSH1 0x1 PUSH1 0xA0 SHL SUB AND MUL OR SWAP1 SSTORE POP SWAP1 POP POP DUP2 PUSH1 0x2 PUSH1 0x0 DUP3 DUP3 SLOAD PUSH2 0x958 SWAP2 SWAP1 PUSH2 0x1067 JUMP JUMPDEST SWAP1 SWAP2 SSTORE POP POP PUSH1 0x1 DUP1 SLOAD SWAP1 PUSH1 0x0 PUSH2 0x96D DUP4 PUSH2 0x1096 JUMP JUMPDEST SWAP1 SWAP2 SSTORE POP POP PUSH1 0x40 DUP1 MLOAD PUSH1 0x1 PUSH1 0x1 PUSH1 0xA0 SHL SUB DUP4 AND DUP2 MSTORE PUSH1 0x20 DUP2 ADD DUP5 SWAP1 MSTORE PUSH32 0x2E798DD4337E515C79B64C40E1A93BAA1AEFBD9180AC7905E02508EDD7971E50 SWAP2 ADD PUSH1 0x40 MLOAD DUP1 SWAP2 SUB SWAP1 LOG1 POP POP POP JUMP JUMPDEST PUSH1 0x0 SLOAD PUSH1 0x1 PUSH1 0x1 PUSH1 0xA0 SHL SUB AND CALLER EQ PUSH2 0x9E3 JUMPI PUSH1 0x40 MLOAD PUSH3 0x461BCD PUSH1 0xE5 SHL DUP2 MSTORE PUSH1 0x4 ADD PUSH2 0x7A9 SWAP1 PUSH2 0x1032 JUMP JUMPDEST PUSH2 0x9ED PUSH1 0x0 PUSH2 0xDC2 JUMP JUMPDEST JUMP JUMPDEST PUSH1 0x3 SLOAD PUSH1 0x40 MLOAD PUSH4 0x70A08231 PUSH1 0xE0 SHL DUP2 MSTORE PUSH1 0x1 PUSH1 0x1 PUSH1 0xA0 SHL SUB DUP4 DUP2 AND PUSH1 0x4 DUP4 ADD MSTORE PUSH1 0x0 SWAP3 AND SWAP1 PUSH4 0x70A08231 SWAP1 PUSH1 0x24 ADD PUSH1 0x20 PUSH1 0x40 MLOAD DUP1 DUP4 SUB DUP2 DUP7 DUP1 EXTCODESIZE ISZERO DUP1 ISZERO PUSH2 0xA35 JUMPI PUSH1 0x0 DUP1 REVERT JUMPDEST POP GAS STATICCALL ISZERO DUP1 ISZERO PUSH2 0xA49 JUMPI RETURNDATASIZE PUSH1 0x0 DUP1 RETURNDATACOPY RETURNDATASIZE PUSH1 0x0 REVERT JUMPDEST POP POP POP POP PUSH1 0x40 MLOAD RETURNDATASIZE PUSH1 0x1F NOT PUSH1 0x1F DUP3 ADD AND DUP3 ADD DUP1 PUSH1 0x40 MSTORE POP DUP2 ADD SWAP1 PUSH2 0xA6D SWAP2 SWAP1 PUSH2 0xEFC JUMP JUMPDEST SWAP3 SWAP2 POP POP JUMP JUMPDEST PUSH1 0x60 PUSH1 0x1 SLOAD PUSH1 0x0 EQ ISZERO PUSH2 0xAB9 JUMPI PUSH1 0x40 DUP1 MLOAD PUSH1 0x0 DUP1 DUP3 MSTORE PUSH1 0x20 DUP3 ADD SWAP1 SWAP3 MSTORE SWAP1 PUSH2 0xAB1 JUMP JUMPDEST PUSH2 0xA9E PUSH2 0xE6A JUMP JUMPDEST DUP2 MSTORE PUSH1 0x20 ADD SWAP1 PUSH1 0x1 SWAP1 SUB SWAP1 DUP2 PUSH2 0xA96 JUMPI SWAP1 POP JUMPDEST POP SWAP1 POP PUSH2 0xA6D JUMP JUMPDEST PUSH1 0x1 SLOAD DUP3 LT PUSH2 0xAD3 JUMPI PUSH1 0x1 DUP1 SLOAD PUSH2 0xAD0 SWAP2 SWAP1 PUSH2 0x107F JUMP JUMPDEST SWAP2 POP JUMPDEST PUSH1 0x0 PUSH2 0xADF DUP5 DUP5 PUSH2 0x107F JUMP JUMPDEST PUSH2 0xAEA SWAP1 PUSH1 0x1 PUSH2 0x1067 JUMP JUMPDEST SWAP1 POP PUSH1 0x0 DUP2 PUSH8 0xFFFFFFFFFFFFFFFF DUP2 GT ISZERO PUSH2 0xB07 JUMPI PUSH2 0xB07 PUSH2 0x10FF JUMP JUMPDEST PUSH1 0x40 MLOAD SWAP1 DUP1 DUP3 MSTORE DUP1 PUSH1 0x20 MUL PUSH1 0x20 ADD DUP3 ADD PUSH1 0x40 MSTORE DUP1 ISZERO PUSH2 0xB40 JUMPI DUP2 PUSH1 0x20 ADD JUMPDEST PUSH2 0xB2D PUSH2 0xE6A JUMP JUMPDEST DUP2 MSTORE PUSH1 0x20 ADD SWAP1 PUSH1 0x1 SWAP1 SUB SWAP1 DUP2 PUSH2 0xB25 JUMPI SWAP1 POP JUMPDEST POP SWAP3 POP DUP5 JUMPDEST DUP5 DUP2 GT PUSH2 0xBED JUMPI PUSH1 0x4 PUSH1 0x0 PUSH2 0xB5A DUP4 DUP10 PUSH2 0x1067 JUMP JUMPDEST DUP2 MSTORE PUSH1 0x20 DUP1 DUP3 ADD SWAP3 SWAP1 SWAP3 MSTORE PUSH1 0x40 SWAP1 DUP2 ADD PUSH1 0x0 KECCAK256 DUP2 MLOAD PUSH1 0xA0 DUP2 ADD DUP4 MSTORE DUP2 SLOAD DUP2 MSTORE PUSH1 0x1 DUP3 ADD SLOAD SWAP4 DUP2 ADD SWAP4 SWAP1 SWAP4 MSTORE PUSH1 0x2 DUP2 ADD SLOAD SWAP2 DUP4 ADD SWAP2 SWAP1 SWAP2 MSTORE PUSH1 0x3 DUP2 ADD SLOAD PUSH1 0x60 DUP4 ADD MSTORE PUSH1 0x4 ADD SLOAD PUSH1 0x1 PUSH1 0x1 PUSH1 0xA0 SHL SUB AND PUSH1 0x80 DUP3 ADD MSTORE DUP5 MLOAD DUP6 SWAP1 DUP5 SWAP1 DUP2 LT PUSH2 0xBC1 JUMPI PUSH2 0xBC1 PUSH2 0x10E9 JUMP JUMPDEST PUSH1 0x20 MUL PUSH1 0x20 ADD ADD DUP2 SWAP1 MSTORE POP DUP2 DUP1 PUSH2 0xBD7 SWAP1 PUSH2 0x1096 JUMP JUMPDEST SWAP3 POP POP DUP1 DUP1 PUSH2 0xBE5 SWAP1 PUSH2 0x1096 JUMP JUMPDEST SWAP2 POP POP PUSH2 0xB45 JUMP JUMPDEST POP POP POP SWAP3 SWAP2 POP POP JUMP JUMPDEST PUSH1 0x0 SLOAD PUSH1 0x1 PUSH1 0x1 PUSH1 0xA0 SHL SUB AND CALLER EQ PUSH2 0xC20 JUMPI PUSH1 0x40 MLOAD PUSH3 0x461BCD PUSH1 0xE5 SHL DUP2 MSTORE PUSH1 0x4 ADD PUSH2 0x7A9 SWAP1 PUSH2 0x1032 JUMP JUMPDEST PUSH1 0x1 PUSH1 0x1 PUSH1 0xA0 SHL SUB DUP2 AND PUSH2 0xC85 JUMPI PUSH1 0x40 MLOAD PUSH3 0x461BCD PUSH1 0xE5 SHL DUP2 MSTORE PUSH1 0x20 PUSH1 0x4 DUP3 ADD MSTORE PUSH1 0x26 PUSH1 0x24 DUP3 ADD MSTORE PUSH32 0x4F776E61626C653A206E6577206F776E657220697320746865207A65726F2061 PUSH1 0x44 DUP3 ADD MSTORE PUSH6 0x646472657373 PUSH1 0xD0 SHL PUSH1 0x64 DUP3 ADD MSTORE PUSH1 0x84 ADD PUSH2 0x7A9 JUMP JUMPDEST PUSH2 0xC8E DUP2 PUSH2 0xDC2 JUMP JUMPDEST POP JUMP JUMPDEST PUSH1 0x0 DUP1 PUSH1 0x0 PUSH1 0x3 PUSH1 0x0 SWAP1 SLOAD SWAP1 PUSH2 0x100 EXP SWAP1 DIV PUSH1 0x1 PUSH1 0x1 PUSH1 0xA0 SHL SUB AND PUSH1 0x1 PUSH1 0x1 PUSH1 0xA0 SHL SUB AND PUSH4 0x18160DDD PUSH1 0x40 MLOAD DUP2 PUSH4 0xFFFFFFFF AND PUSH1 0xE0 SHL DUP2 MSTORE PUSH1 0x4 ADD PUSH1 0x20 PUSH1 0x40 MLOAD DUP1 DUP4 SUB DUP2 DUP7 DUP1 EXTCODESIZE ISZERO DUP1 ISZERO PUSH2 0xCE4 JUMPI PUSH1 0x0 DUP1 REVERT JUMPDEST POP GAS STATICCALL ISZERO DUP1 ISZERO PUSH2 0xCF8 JUMPI RETURNDATASIZE PUSH1 0x0 DUP1 RETURNDATACOPY RETURNDATASIZE PUSH1 0x0 REVERT JUMPDEST POP POP POP POP PUSH1 0x40 MLOAD RETURNDATASIZE PUSH1 0x1F NOT PUSH1 0x1F DUP3 ADD AND DUP3 ADD DUP1 PUSH1 0x40 MSTORE POP DUP2 ADD SWAP1 PUSH2 0xD1C SWAP2 SWAP1 PUSH2 0xEFC JUMP JUMPDEST SWAP1 POP DUP1 PUSH2 0xD28 DUP6 PUSH2 0xE12 JUMP JUMPDEST PUSH2 0xD32 SWAP2 SWAP1 PUSH2 0x10B1 JUMP JUMPDEST PUSH2 0xD3D SWAP1 PUSH1 0x1 PUSH2 0x1067 JUMP JUMPDEST PUSH1 0x3 SLOAD PUSH1 0x40 MLOAD PUSH4 0x31A9108F PUSH1 0xE1 SHL DUP2 MSTORE PUSH1 0x4 DUP2 ADD DUP4 SWAP1 MSTORE SWAP2 SWAP5 POP PUSH1 0x1 PUSH1 0x1 PUSH1 0xA0 SHL SUB AND SWAP1 PUSH4 0x6352211E SWAP1 PUSH1 0x24 ADD PUSH1 0x20 PUSH1 0x40 MLOAD DUP1 DUP4 SUB DUP2 DUP7 DUP1 EXTCODESIZE ISZERO DUP1 ISZERO PUSH2 0xD82 JUMPI PUSH1 0x0 DUP1 REVERT JUMPDEST POP GAS STATICCALL ISZERO DUP1 ISZERO PUSH2 0xD96 JUMPI RETURNDATASIZE PUSH1 0x0 DUP1 RETURNDATACOPY RETURNDATASIZE PUSH1 0x0 REVERT JUMPDEST POP POP POP POP PUSH1 0x40 MLOAD RETURNDATASIZE PUSH1 0x1F NOT PUSH1 0x1F DUP3 ADD AND DUP3 ADD DUP1 PUSH1 0x40 MSTORE POP DUP2 ADD SWAP1 PUSH2 0xDBA SWAP2 SWAP1 PUSH2 0xEC6 JUMP JUMPDEST SWAP2 POP POP SWAP2 POP SWAP2 JUMP JUMPDEST PUSH1 0x0 DUP1 SLOAD PUSH1 0x1 PUSH1 0x1 PUSH1 0xA0 SHL SUB DUP4 DUP2 AND PUSH1 0x1 PUSH1 0x1 PUSH1 0xA0 SHL SUB NOT DUP4 AND DUP2 OR DUP5 SSTORE PUSH1 0x40 MLOAD SWAP2 SWAP1 SWAP3 AND SWAP3 DUP4 SWAP2 PUSH32 0x8BE0079C531659141344CD1FD0A4F28419497F9722A3DAAFE3B4186F6B6457E0 SWAP2 SWAP1 LOG3 POP POP JUMP JUMPDEST PUSH1 0x0 DUP2 TIMESTAMP GAS PUSH1 0x40 DUP1 MLOAD PUSH1 0x20 DUP2 ADD SWAP5 SWAP1 SWAP5 MSTORE DUP4 ADD SWAP2 SWAP1 SWAP2 MSTORE PUSH1 0x60 DUP1 DUP4 ADD SWAP2 SWAP1 SWAP2 MSTORE CALLER SWAP1 SHL PUSH12 0xFFFFFFFFFFFFFFFFFFFFFFFF NOT AND PUSH1 0x80 DUP3 ADD MSTORE PUSH1 0x94 ADD PUSH1 0x40 DUP1 MLOAD PUSH1 0x1F NOT DUP2 DUP5 SUB ADD DUP2 MSTORE SWAP2 SWAP1 MSTORE DUP1 MLOAD PUSH1 0x20 SWAP1 SWAP2 ADD KECCAK256 SWAP3 SWAP2 POP POP JUMP JUMPDEST PUSH1 0x40 MLOAD DUP1 PUSH1 0xA0 ADD PUSH1 0x40 MSTORE DUP1 PUSH1 0x0 DUP2 MSTORE PUSH1 0x20 ADD PUSH1 0x0 DUP2 MSTORE PUSH1 0x20 ADD PUSH1 0x0 DUP2 MSTORE PUSH1 0x20 ADD PUSH1 0x0 DUP2 MSTORE PUSH1 0x20 ADD PUSH1 0x0 PUSH1 0x1 PUSH1 0x1 PUSH1 0xA0 SHL SUB AND DUP2 MSTORE POP SWAP1 JUMP JUMPDEST PUSH1 0x0 PUSH1 0x20 DUP3 DUP5 SUB SLT ISZERO PUSH2 0xEB4 JUMPI PUSH1 0x0 DUP1 REVERT JUMPDEST DUP2 CALLDATALOAD PUSH2 0xEBF DUP2 PUSH2 0x1115 JUMP JUMPDEST SWAP4 SWAP3 POP POP POP JUMP JUMPDEST PUSH1 0x0 PUSH1 0x20 DUP3 DUP5 SUB SLT ISZERO PUSH2 0xED8 JUMPI PUSH1 0x0 DUP1 REVERT JUMPDEST DUP2 MLOAD PUSH2 0xEBF DUP2 PUSH2 0x1115 JUMP JUMPDEST PUSH1 0x0 PUSH1 0x20 DUP3 DUP5 SUB SLT ISZERO PUSH2 0xEF5 JUMPI PUSH1 0x0 DUP1 REVERT JUMPDEST POP CALLDATALOAD SWAP2 SWAP1 POP JUMP JUMPDEST PUSH1 0x0 PUSH1 0x20 DUP3 DUP5 SUB SLT ISZERO PUSH2 0xF0E JUMPI PUSH1 0x0 DUP1 REVERT JUMPDEST POP MLOAD SWAP2 SWAP1 POP JUMP JUMPDEST PUSH1 0x0 DUP1 PUSH1 0x40 DUP4 DUP6 SUB SLT ISZERO PUSH2 0xF28 JUMPI PUSH1 0x0 DUP1 REVERT JUMPDEST POP POP DUP1 CALLDATALOAD SWAP3 PUSH1 0x20 SWAP1 SWAP2 ADD CALLDATALOAD SWAP2 POP JUMP JUMPDEST PUSH1 0x40 DUP1 DUP3 MSTORE DUP4 MLOAD SWAP1 DUP3 ADD DUP2 SWAP1 MSTORE PUSH1 0x0 SWAP1 PUSH1 0x20 SWAP1 PUSH1 0x60 DUP5 ADD SWAP1 DUP3 DUP8 ADD DUP5 JUMPDEST DUP3 DUP2 LT ISZERO PUSH2 0xF79 JUMPI DUP2 MLOAD PUSH1 0x1 PUSH1 0x1 PUSH1 0xA0 SHL SUB AND DUP5 MSTORE SWAP3 DUP5 ADD SWAP3 SWAP1 DUP5 ADD SWAP1 PUSH1 0x1 ADD PUSH2 0xF54 JUMP JUMPDEST POP POP POP DUP4 DUP2 SUB DUP3 DUP6 ADD MSTORE DUP5 MLOAD DUP1 DUP3 MSTORE DUP6 DUP4 ADD SWAP2 DUP4 ADD SWAP1 PUSH1 0x0 JUMPDEST DUP2 DUP2 LT ISZERO PUSH2 0xFAE JUMPI DUP4 MLOAD DUP4 MSTORE SWAP3 DUP5 ADD SWAP3 SWAP2 DUP5 ADD SWAP2 PUSH1 0x1 ADD PUSH2 0xF92 JUMP JUMPDEST POP SWAP1 SWAP8 SWAP7 POP POP POP POP POP POP POP JUMP JUMPDEST PUSH1 0x20 DUP1 DUP3 MSTORE DUP3 MLOAD DUP3 DUP3 ADD DUP2 SWAP1 MSTORE PUSH1 0x0 SWAP2 SWAP1 PUSH1 0x40 SWAP1 DUP2 DUP6 ADD SWAP1 DUP7 DUP5 ADD DUP6 JUMPDEST DUP3 DUP2 LT ISZERO PUSH2 0x1025 JUMPI DUP2 MLOAD DUP1 MLOAD DUP6 MSTORE DUP7 DUP2 ADD MLOAD DUP8 DUP7 ADD MSTORE DUP6 DUP2 ADD MLOAD DUP7 DUP7 ADD MSTORE PUSH1 0x60 DUP1 DUP3 ADD MLOAD SWAP1 DUP7 ADD MSTORE PUSH1 0x80 SWAP1 DUP2 ADD MLOAD PUSH1 0x1 PUSH1 0x1 PUSH1 0xA0 SHL SUB AND SWAP1 DUP6 ADD MSTORE PUSH1 0xA0 SWAP1 SWAP4 ADD SWAP3 SWAP1 DUP6 ADD SWAP1 PUSH1 0x1 ADD PUSH2 0xFD8 JUMP JUMPDEST POP SWAP2 SWAP8 SWAP7 POP POP POP POP POP POP POP JUMP JUMPDEST PUSH1 0x20 DUP1 DUP3 MSTORE DUP2 DUP2 ADD MSTORE PUSH32 0x4F776E61626C653A2063616C6C6572206973206E6F7420746865206F776E6572 PUSH1 0x40 DUP3 ADD MSTORE PUSH1 0x60 ADD SWAP1 JUMP JUMPDEST PUSH1 0x0 DUP3 NOT DUP3 GT ISZERO PUSH2 0x107A JUMPI PUSH2 0x107A PUSH2 0x10D3 JUMP JUMPDEST POP ADD SWAP1 JUMP JUMPDEST PUSH1 0x0 DUP3 DUP3 LT ISZERO PUSH2 0x1091 JUMPI PUSH2 0x1091 PUSH2 0x10D3 JUMP JUMPDEST POP SUB SWAP1 JUMP JUMPDEST PUSH1 0x0 PUSH1 0x0 NOT DUP3 EQ ISZERO PUSH2 0x10AA JUMPI PUSH2 0x10AA PUSH2 0x10D3 JUMP JUMPDEST POP PUSH1 0x1 ADD SWAP1 JUMP JUMPDEST PUSH1 0x0 DUP3 PUSH2 0x10CE JUMPI PUSH4 0x4E487B71 PUSH1 0xE0 SHL PUSH1 0x0 MSTORE PUSH1 0x12 PUSH1 0x4 MSTORE PUSH1 0x24 PUSH1 0x0 REVERT JUMPDEST POP MOD SWAP1 JUMP JUMPDEST PUSH4 0x4E487B71 PUSH1 0xE0 SHL PUSH1 0x0 MSTORE PUSH1 0x11 PUSH1 0x4 MSTORE PUSH1 0x24 PUSH1 0x0 REVERT JUMPDEST PUSH4 0x4E487B71 PUSH1 0xE0 SHL PUSH1 0x0 MSTORE PUSH1 0x32 PUSH1 0x4 MSTORE PUSH1 0x24 PUSH1 0x0 REVERT JUMPDEST PUSH4 0x4E487B71 PUSH1 0xE0 SHL PUSH1 0x0 MSTORE PUSH1 0x41 PUSH1 0x4 MSTORE PUSH1 0x24 PUSH1 0x0 REVERT JUMPDEST PUSH1 0x1 PUSH1 0x1 PUSH1 0xA0 SHL SUB DUP2 AND DUP2 EQ PUSH2 0xC8E JUMPI PUSH1 0x0 DUP1 REVERT INVALID LOG2 PUSH5 0x6970667358 0x22 SLT KECCAK256 BYTE AND KECCAK256 BASEFEE LOG2 EXTCODECOPY SWAP13 0xE4 MOD DUP11 0xFB SWAP2 LOG1 SWAP14 MLOAD 0xCA MUL PUSH20 0xB160BC4A7A555E5DA5E36C61AEB964736F6C6343 STOP ADDMOD SMOD STOP CALLER "
				},
				"gasEstimates": {
					"creation": {
						"codeDepositCost": "889600",
						"executionCost": "infinite",
						"totalCost": "infinite"
					},
					"external": {
						"acesNFT()": "2359",
						"getEntries()": "infinite",
						"getUniqueAddresses()": "infinite",
						"getUniqueUsers()": "infinite",
						"owner()": "2343",
						"pickWinner(uint256)": "infinite",
						"renounceOwnership()": "28203",
						"resultLog(uint256,uint256)": "infinite",
						"roundNum()": "2308",
						"roundResults(uint256)": "11091",
						"totalPayout()": "2329",
						"transferOwnership(address)": "infinite",
						"updateWinner(uint256,uint256)": "infinite",
						"userEntries(address)": "infinite"
					},
					"internal": {
						"random(uint256)": "infinite"
					}
				},
				"methodIdentifiers": {
					"acesNFT()": "aeb18350",
					"getEntries()": "17be85c3",
					"getUniqueAddresses()": "3b98bc65",
					"getUniqueUsers()": "158977de",
					"owner()": "8da5cb5b",
					"pickWinner(uint256)": "f737d21d",
					"renounceOwnership()": "715018a6",
					"resultLog(uint256,uint256)": "bc15cdf0",
					"roundNum()": "119b22b3",
					"roundResults(uint256)": "ac128f4f",
					"totalPayout()": "454f7b8f",
					"transferOwnership(address)": "f2fde38b",
					"updateWinner(uint256,uint256)": "6fbb5a86",
					"userEntries(address)": "9f10a990"
				}
			},
			"storageLayout": {
				"storage": [
					{
						"astId": 418,
						"contract": "NFTlotto.sol:ACELotto",
						"label": "_owner",
						"offset": 0,
						"slot": "0",
						"type": "t_address"
					},
					{
						"astId": 35,
						"contract": "NFTlotto.sol:ACELotto",
						"label": "roundNum",
						"offset": 0,
						"slot": "1",
						"type": "t_uint256"
					},
					{
						"astId": 37,
						"contract": "NFTlotto.sol:ACELotto",
						"label": "totalPayout",
						"offset": 0,
						"slot": "2",
						"type": "t_uint256"
					},
					{
						"astId": 40,
						"contract": "NFTlotto.sol:ACELotto",
						"label": "acesNFT",
						"offset": 0,
						"slot": "3",
						"type": "t_contract(IERC721Enumerable)740"
					},
					{
						"astId": 56,
						"contract": "NFTlotto.sol:ACELotto",
						"label": "roundResults",
						"offset": 0,
						"slot": "4",
						"type": "t_mapping(t_uint256,t_struct(Results)51_storage)"
					}
				],
				"types": {
					"t_address": {
						"encoding": "inplace",
						"label": "address",
						"numberOfBytes": "20"
					},
					"t_contract(IERC721Enumerable)740": {
						"encoding": "inplace",
						"label": "contract IERC721Enumerable",
						"numberOfBytes": "20"
					},
					"t_mapping(t_uint256,t_struct(Results)51_storage)": {
						"encoding": "mapping",
						"key": "t_uint256",
						"label": "mapping(uint256 => struct ACELotto.Results)",
						"numberOfBytes": "32",
						"value": "t_struct(Results)51_storage"
					},
					"t_struct(Results)51_storage": {
						"encoding": "inplace",
						"label": "struct ACELotto.Results",
						"members": [
							{
								"astId": 42,
								"contract": "NFTlotto.sol:ACELotto",
								"label": "totalEntries",
								"offset": 0,
								"slot": "0",
								"type": "t_uint256"
							},
							{
								"astId": 44,
								"contract": "NFTlotto.sol:ACELotto",
								"label": "winningNumber",
								"offset": 0,
								"slot": "1",
								"type": "t_uint256"
							},
							{
								"astId": 46,
								"contract": "NFTlotto.sol:ACELotto",
								"label": "payout",
								"offset": 0,
								"slot": "2",
								"type": "t_uint256"
							},
							{
								"astId": 48,
								"contract": "NFTlotto.sol:ACELotto",
								"label": "endTime",
								"offset": 0,
								"slot": "3",
								"type": "t_uint256"
							},
							{
								"astId": 50,
								"contract": "NFTlotto.sol:ACELotto",
								"label": "winningAddress",
								"offset": 0,
								"slot": "4",
								"type": "t_address"
							}
						],
						"numberOfBytes": "160"
					},
					"t_uint256": {
						"encoding": "inplace",
						"label": "uint256",
						"numberOfBytes": "32"
					}
				}
			},
			"userdoc": {
				"kind": "user",
				"methods": {},
				"version": 1
			}
		}
	}
}