{
	"lotto.sol": {
		"ACELotto": {
			"abi": [
				{
					"inputs": [
						{
							"internalType": "address",
							"name": "_aces",
							"type": "address"
						}
					],
					"stateMutability": "nonpayable",
					"type": "constructor"
				},
				{
					"anonymous": false,
					"inputs": [
						{
							"indexed": false,
							"internalType": "address",
							"name": "winner",
							"type": "address"
						},
						{
							"indexed": false,
							"internalType": "uint256",
							"name": "amount",
							"type": "uint256"
						}
					],
					"name": "LotteryWon",
					"type": "event"
				},
				{
					"anonymous": false,
					"inputs": [
						{
							"indexed": true,
							"internalType": "address",
							"name": "previousOwner",
							"type": "address"
						},
						{
							"indexed": true,
							"internalType": "address",
							"name": "newOwner",
							"type": "address"
						}
					],
					"name": "OwnershipTransferred",
					"type": "event"
				},
				{
					"inputs": [],
					"name": "acesToken",
					"outputs": [
						{
							"internalType": "contract IERC20",
							"name": "",
							"type": "address"
						}
					],
					"stateMutability": "view",
					"type": "function"
				},
				{
					"inputs": [],
					"name": "currentJackpot",
					"outputs": [
						{
							"internalType": "uint256",
							"name": "",
							"type": "uint256"
						}
					],
					"stateMutability": "view",
					"type": "function"
				},
				{
					"inputs": [
						{
							"internalType": "address",
							"name": "",
							"type": "address"
						},
						{
							"internalType": "uint256",
							"name": "",
							"type": "uint256"
						}
					],
					"name": "entriesIndex",
					"outputs": [
						{
							"internalType": "uint256",
							"name": "",
							"type": "uint256"
						}
					],
					"stateMutability": "view",
					"type": "function"
				},
				{
					"inputs": [],
					"name": "getUniqueAddresses",
					"outputs": [
						{
							"internalType": "address[]",
							"name": "addresses",
							"type": "address[]"
						},
						{
							"internalType": "uint256[]",
							"name": "entries",
							"type": "uint256[]"
						}
					],
					"stateMutability": "view",
					"type": "function"
				},
				{
					"inputs": [],
					"name": "getUniqueUsers",
					"outputs": [
						{
							"internalType": "uint256",
							"name": "counter",
							"type": "uint256"
						}
					],
					"stateMutability": "view",
					"type": "function"
				},
				{
					"inputs": [
						{
							"internalType": "address",
							"name": "account",
							"type": "address"
						}
					],
					"name": "isActiveAccount",
					"outputs": [
						{
							"internalType": "bool",
							"name": "",
							"type": "bool"
						}
					],
					"stateMutability": "view",
					"type": "function"
				},
				{
					"inputs": [],
					"name": "owner",
					"outputs": [
						{
							"internalType": "address",
							"name": "",
							"type": "address"
						}
					],
					"stateMutability": "view",
					"type": "function"
				},
				{
					"inputs": [
						{
							"internalType": "uint256",
							"name": "seed",
							"type": "uint256"
						}
					],
					"name": "pickWinner",
					"outputs": [
						{
							"internalType": "uint256",
							"name": "winnerNum",
							"type": "uint256"
						},
						{
							"internalType": "address",
							"name": "winnerAddress",
							"type": "address"
						}
					],
					"stateMutability": "view",
					"type": "function"
				},
				{
					"inputs": [
						{
							"internalType": "address",
							"name": "account",
							"type": "address"
						}
					],
					"name": "removeAccount",
					"outputs": [],
					"stateMutability": "nonpayable",
					"type": "function"
				},
				{
					"inputs": [
						{
							"internalType": "address",
							"name": "account",
							"type": "address"
						},
						{
							"internalType": "uint256",
							"name": "amount",
							"type": "uint256"
						}
					],
					"name": "removeEntryFromWallet",
					"outputs": [],
					"stateMutability": "nonpayable",
					"type": "function"
				},
				{
					"inputs": [],
					"name": "renounceOwnership",
					"outputs": [],
					"stateMutability": "nonpayable",
					"type": "function"
				},
				{
					"inputs": [
						{
							"internalType": "uint256",
							"name": "startIndex",
							"type": "uint256"
						},
						{
							"internalType": "uint256",
							"name": "endIndex",
							"type": "uint256"
						}
					],
					"name": "resultLog",
					"outputs": [
						{
							"components": [
								{
									"internalType": "uint256",
									"name": "totalEntries",
									"type": "uint256"
								},
								{
									"internalType": "uint256",
									"name": "winningNumber",
									"type": "uint256"
								},
								{
									"internalType": "uint256",
									"name": "payout",
									"type": "uint256"
								},
								{
									"internalType": "uint256",
									"name": "endTime",
									"type": "uint256"
								},
								{
									"internalType": "address",
									"name": "winningAddress",
									"type": "address"
								}
							],
							"internalType": "struct ACELotto.Results[]",
							"name": "log",
							"type": "tuple[]"
						}
					],
					"stateMutability": "view",
					"type": "function"
				},
				{
					"inputs": [],
					"name": "roundEntries",
					"outputs": [
						{
							"internalType": "uint256",
							"name": "",
							"type": "uint256"
						}
					],
					"stateMutability": "view",
					"type": "function"
				},
				{
					"inputs": [
						{
							"internalType": "uint256",
							"name": "",
							"type": "uint256"
						}
					],
					"name": "roundEntry",
					"outputs": [
						{
							"internalType": "address",
							"name": "",
							"type": "address"
						}
					],
					"stateMutability": "view",
					"type": "function"
				},
				{
					"inputs": [],
					"name": "roundNum",
					"outputs": [
						{
							"internalType": "uint256",
							"name": "",
							"type": "uint256"
						}
					],
					"stateMutability": "view",
					"type": "function"
				},
				{
					"inputs": [
						{
							"internalType": "uint256",
							"name": "",
							"type": "uint256"
						}
					],
					"name": "roundResults",
					"outputs": [
						{
							"internalType": "uint256",
							"name": "totalEntries",
							"type": "uint256"
						},
						{
							"internalType": "uint256",
							"name": "winningNumber",
							"type": "uint256"
						},
						{
							"internalType": "uint256",
							"name": "payout",
							"type": "uint256"
						},
						{
							"internalType": "uint256",
							"name": "endTime",
							"type": "uint256"
						},
						{
							"internalType": "address",
							"name": "winningAddress",
							"type": "address"
						}
					],
					"stateMutability": "view",
					"type": "function"
				},
				{
					"inputs": [],
					"name": "totalPayout",
					"outputs": [
						{
							"internalType": "uint256",
							"name": "",
							"type": "uint256"
						}
					],
					"stateMutability": "view",
					"type": "function"
				},
				{
					"inputs": [
						{
							"internalType": "address",
							"name": "newOwner",
							"type": "address"
						}
					],
					"name": "transferOwnership",
					"outputs": [],
					"stateMutability": "nonpayable",
					"type": "function"
				},
				{
					"inputs": [
						{
							"internalType": "address",
							"name": "account",
							"type": "address"
						},
						{
							"internalType": "uint256",
							"name": "amount",
							"type": "uint256"
						}
					],
					"name": "updateAccount",
					"outputs": [],
					"stateMutability": "nonpayable",
					"type": "function"
				},
				{
					"inputs": [
						{
							"internalType": "uint256",
							"name": "winnerNum",
							"type": "uint256"
						},
						{
							"internalType": "uint256",
							"name": "payout",
							"type": "uint256"
						}
					],
					"name": "updateWinner",
					"outputs": [],
					"stateMutability": "nonpayable",
					"type": "function"
				},
				{
					"inputs": [
						{
							"internalType": "address",
							"name": "account",
							"type": "address"
						}
					],
					"name": "userEntries",
					"outputs": [
						{
							"internalType": "uint256",
							"name": "",
							"type": "uint256"
						}
					],
					"stateMutability": "view",
					"type": "function"
				}
			],
			"devdoc": {
				"kind": "dev",
				"methods": {
					"owner()": {
						"details": "Returns the address of the current owner."
					},
					"renounceOwnership()": {
						"details": "Leaves the contract without owner. It will not be possible to call `onlyOwner` functions anymore. Can only be called by the current owner. NOTE: Renouncing ownership will leave the contract without an owner, thereby removing any functionality that is only available to the owner."
					},
					"transferOwnership(address)": {
						"details": "Transfers ownership of the contract to a new account (`newOwner`). Can only be called by the current owner."
					}
				},
				"version": 1
			},
			"evm": {
				"assembly": "    /* \"lotto.sol\":595:6071  contract ACELotto is Ownable {   \r... */\n  mstore(0x40, 0x80)\n    /* \"lotto.sol\":1172:1242  constructor(address _aces){\r... */\n  callvalue\n  dup1\n  iszero\n  tag_1\n  jumpi\n  0x00\n  dup1\n  revert\ntag_1:\n  pop\n  mload(0x40)\n  sub(codesize, bytecodeSize)\n  dup1\n  bytecodeSize\n  dup4\n  codecopy\n  dup2\n  dup2\n  add\n  0x40\n  mstore\n  dup2\n  add\n  swap1\n  tag_2\n  swap2\n  swap1\n  tag_3\n  jump\t// in\ntag_2:\n    /* \"https://github.com/OpenZeppelin/openzeppelin-contracts/blob/master/contracts/access/Ownable.sol\":921:953  _transferOwnership(_msgSender()) */\n  tag_7\n    /* \"https://github.com/OpenZeppelin/openzeppelin-contracts/blob/master/contracts/access/Ownable.sol\":940:952  _msgSender() */\n  tag_8\n    /* \"https://github.com/OpenZeppelin/openzeppelin-contracts/blob/master/contracts/access/Ownable.sol\":940:950  _msgSender */\n  shl(0x20, tag_9)\n    /* \"https://github.com/OpenZeppelin/openzeppelin-contracts/blob/master/contracts/access/Ownable.sol\":940:952  _msgSender() */\n  0x20\n  shr\n  jump\t// in\ntag_8:\n    /* \"https://github.com/OpenZeppelin/openzeppelin-contracts/blob/master/contracts/access/Ownable.sol\":921:939  _transferOwnership */\n  shl(0x20, tag_10)\n    /* \"https://github.com/OpenZeppelin/openzeppelin-contracts/blob/master/contracts/access/Ownable.sol\":921:953  _transferOwnership(_msgSender()) */\n  0x20\n  shr\n  jump\t// in\ntag_7:\n    /* \"lotto.sol\":1228:1233  _aces */\n  dup1\n    /* \"lotto.sol\":1209:1218  acesToken */\n  0x04\n  0x00\n    /* \"lotto.sol\":1209:1234  acesToken = IERC20(_aces) */\n  0x0100\n  exp\n  dup2\n  sload\n  dup2\n  0xffffffffffffffffffffffffffffffffffffffff\n  mul\n  not\n  and\n  swap1\n  dup4\n  0xffffffffffffffffffffffffffffffffffffffff\n  and\n  mul\n  or\n  swap1\n  sstore\n  pop\n    /* \"lotto.sol\":1172:1242  constructor(address _aces){\r... */\n  pop\n    /* \"lotto.sol\":595:6071  contract ACELotto is Ownable {   \r... */\n  jump(tag_12)\n    /* \"https://github.com/OpenZeppelin/openzeppelin-contracts/blob/master/contracts/utils/Context.sol\":640:736  function _msgSender() internal view virtual returns (address) {... */\ntag_9:\n    /* \"https://github.com/OpenZeppelin/openzeppelin-contracts/blob/master/contracts/utils/Context.sol\":693:700  address */\n  0x00\n    /* \"https://github.com/OpenZeppelin/openzeppelin-contracts/blob/master/contracts/utils/Context.sol\":719:729  msg.sender */\n  caller\n    /* \"https://github.com/OpenZeppelin/openzeppelin-contracts/blob/master/contracts/utils/Context.sol\":712:729  return msg.sender */\n  swap1\n  pop\n    /* \"https://github.com/OpenZeppelin/openzeppelin-contracts/blob/master/contracts/utils/Context.sol\":640:736  function _msgSender() internal view virtual returns (address) {... */\n  swap1\n  jump\t// out\n    /* \"https://github.com/OpenZeppelin/openzeppelin-contracts/blob/master/contracts/access/Ownable.sol\":2270:2457  function _transferOwnership(address newOwner) internal virtual {... */\ntag_10:\n    /* \"https://github.com/OpenZeppelin/openzeppelin-contracts/blob/master/contracts/access/Ownable.sol\":2343:2359  address oldOwner */\n  0x00\n    /* \"https://github.com/OpenZeppelin/openzeppelin-contracts/blob/master/contracts/access/Ownable.sol\":2362:2368  _owner */\n  dup1\n  0x00\n  swap1\n  sload\n  swap1\n  0x0100\n  exp\n  swap1\n  div\n  0xffffffffffffffffffffffffffffffffffffffff\n  and\n    /* \"https://github.com/OpenZeppelin/openzeppelin-contracts/blob/master/contracts/access/Ownable.sol\":2343:2368  address oldOwner = _owner */\n  swap1\n  pop\n    /* \"https://github.com/OpenZeppelin/openzeppelin-contracts/blob/master/contracts/access/Ownable.sol\":2387:2395  newOwner */\n  dup2\n    /* \"https://github.com/OpenZeppelin/openzeppelin-contracts/blob/master/contracts/access/Ownable.sol\":2378:2384  _owner */\n  0x00\n  dup1\n    /* \"https://github.com/OpenZeppelin/openzeppelin-contracts/blob/master/contracts/access/Ownable.sol\":2378:2395  _owner = newOwner */\n  0x0100\n  exp\n  dup2\n  sload\n  dup2\n  0xffffffffffffffffffffffffffffffffffffffff\n  mul\n  not\n  and\n  swap1\n  dup4\n  0xffffffffffffffffffffffffffffffffffffffff\n  and\n  mul\n  or\n  swap1\n  sstore\n  pop\n    /* \"https://github.com/OpenZeppelin/openzeppelin-contracts/blob/master/contracts/access/Ownable.sol\":2441:2449  newOwner */\n  dup2\n    /* \"https://github.com/OpenZeppelin/openzeppelin-contracts/blob/master/contracts/access/Ownable.sol\":2410:2450  OwnershipTransferred(oldOwner, newOwner) */\n  0xffffffffffffffffffffffffffffffffffffffff\n  and\n    /* \"https://github.com/OpenZeppelin/openzeppelin-contracts/blob/master/contracts/access/Ownable.sol\":2431:2439  oldOwner */\n  dup2\n    /* \"https://github.com/OpenZeppelin/openzeppelin-contracts/blob/master/contracts/access/Ownable.sol\":2410:2450  OwnershipTransferred(oldOwner, newOwner) */\n  0xffffffffffffffffffffffffffffffffffffffff\n  and\n  0x8be0079c531659141344cd1fd0a4f28419497f9722a3daafe3b4186f6b6457e0\n  mload(0x40)\n  mload(0x40)\n  dup1\n  swap2\n  sub\n  swap1\n  log3\n    /* \"https://github.com/OpenZeppelin/openzeppelin-contracts/blob/master/contracts/access/Ownable.sol\":2333:2457  {... */\n  pop\n    /* \"https://github.com/OpenZeppelin/openzeppelin-contracts/blob/master/contracts/access/Ownable.sol\":2270:2457  function _transferOwnership(address newOwner) internal virtual {... */\n  pop\n  jump\t// out\n    /* \"#utility.yul\":7:150   */\ntag_16:\n    /* \"#utility.yul\":64:69   */\n  0x00\n    /* \"#utility.yul\":95:101   */\n  dup2\n    /* \"#utility.yul\":89:102   */\n  mload\n    /* \"#utility.yul\":80:102   */\n  swap1\n  pop\n    /* \"#utility.yul\":111:144   */\n  tag_18\n    /* \"#utility.yul\":138:143   */\n  dup2\n    /* \"#utility.yul\":111:144   */\n  tag_19\n  jump\t// in\ntag_18:\n    /* \"#utility.yul\":7:150   */\n  swap3\n  swap2\n  pop\n  pop\n  jump\t// out\n    /* \"#utility.yul\":156:507   */\ntag_3:\n    /* \"#utility.yul\":226:232   */\n  0x00\n    /* \"#utility.yul\":275:277   */\n  0x20\n    /* \"#utility.yul\":263:272   */\n  dup3\n    /* \"#utility.yul\":254:261   */\n  dup5\n    /* \"#utility.yul\":250:273   */\n  sub\n    /* \"#utility.yul\":246:278   */\n  slt\n    /* \"#utility.yul\":243:362   */\n  iszero\n  tag_21\n  jumpi\n    /* \"#utility.yul\":281:360   */\n  tag_22\n  tag_23\n  jump\t// in\ntag_22:\n    /* \"#utility.yul\":243:362   */\ntag_21:\n    /* \"#utility.yul\":401:402   */\n  0x00\n    /* \"#utility.yul\":426:490   */\n  tag_24\n    /* \"#utility.yul\":482:489   */\n  dup5\n    /* \"#utility.yul\":473:479   */\n  dup3\n    /* \"#utility.yul\":462:471   */\n  dup6\n    /* \"#utility.yul\":458:480   */\n  add\n    /* \"#utility.yul\":426:490   */\n  tag_16\n  jump\t// in\ntag_24:\n    /* \"#utility.yul\":416:490   */\n  swap2\n  pop\n    /* \"#utility.yul\":372:500   */\n  pop\n    /* \"#utility.yul\":156:507   */\n  swap3\n  swap2\n  pop\n  pop\n  jump\t// out\n    /* \"#utility.yul\":594:690   */\ntag_27:\n    /* \"#utility.yul\":631:638   */\n  0x00\n    /* \"#utility.yul\":660:684   */\n  tag_29\n    /* \"#utility.yul\":678:683   */\n  dup3\n    /* \"#utility.yul\":660:684   */\n  tag_30\n  jump\t// in\ntag_29:\n    /* \"#utility.yul\":649:684   */\n  swap1\n  pop\n    /* \"#utility.yul\":594:690   */\n  swap2\n  swap1\n  pop\n  jump\t// out\n    /* \"#utility.yul\":696:822   */\ntag_30:\n    /* \"#utility.yul\":733:740   */\n  0x00\n    /* \"#utility.yul\":773:815   */\n  0xffffffffffffffffffffffffffffffffffffffff\n    /* \"#utility.yul\":766:771   */\n  dup3\n    /* \"#utility.yul\":762:816   */\n  and\n    /* \"#utility.yul\":751:816   */\n  swap1\n  pop\n    /* \"#utility.yul\":696:822   */\n  swap2\n  swap1\n  pop\n  jump\t// out\n    /* \"#utility.yul\":951:1068   */\ntag_23:\n    /* \"#utility.yul\":1060:1061   */\n  0x00\n    /* \"#utility.yul\":1057:1058   */\n  dup1\n    /* \"#utility.yul\":1050:1062   */\n  revert\n    /* \"#utility.yul\":1074:1196   */\ntag_19:\n    /* \"#utility.yul\":1147:1171   */\n  tag_36\n    /* \"#utility.yul\":1165:1170   */\n  dup2\n    /* \"#utility.yul\":1147:1171   */\n  tag_27\n  jump\t// in\ntag_36:\n    /* \"#utility.yul\":1140:1145   */\n  dup2\n    /* \"#utility.yul\":1137:1172   */\n  eq\n    /* \"#utility.yul\":1127:1190   */\n  tag_37\n  jumpi\n    /* \"#utility.yul\":1186:1187   */\n  0x00\n    /* \"#utility.yul\":1183:1184   */\n  dup1\n    /* \"#utility.yul\":1176:1188   */\n  revert\n    /* \"#utility.yul\":1127:1190   */\ntag_37:\n    /* \"#utility.yul\":1074:1196   */\n  pop\n  jump\t// out\n    /* \"lotto.sol\":595:6071  contract ACELotto is Ownable {   \r... */\ntag_12:\n  dataSize(sub_0)\n  dup1\n  dataOffset(sub_0)\n  0x00\n  codecopy\n  0x00\n  return\nstop\n\nsub_0: assembly {\n        /* \"lotto.sol\":595:6071  contract ACELotto is Ownable {   \r... */\n      mstore(0x40, 0x80)\n      callvalue\n      dup1\n      iszero\n      tag_1\n      jumpi\n      0x00\n      dup1\n      revert\n    tag_1:\n      pop\n      jumpi(tag_2, lt(calldatasize, 0x04))\n      shr(0xe0, calldataload(0x00))\n      dup1\n      0x8da5cb5b\n      gt\n      tag_24\n      jumpi\n      dup1\n      0xb657dd65\n      gt\n      tag_25\n      jumpi\n      dup1\n      0xb657dd65\n      eq\n      tag_18\n      jumpi\n      dup1\n      0xbc15cdf0\n      eq\n      tag_19\n      jumpi\n      dup1\n      0xc4740a95\n      eq\n      tag_20\n      jumpi\n      dup1\n      0xf2fde38b\n      eq\n      tag_21\n      jumpi\n      dup1\n      0xf737d21d\n      eq\n      tag_22\n      jumpi\n      dup1\n      0xf9cee0bd\n      eq\n      tag_23\n      jumpi\n      jump(tag_2)\n    tag_25:\n      dup1\n      0x8da5cb5b\n      eq\n      tag_13\n      jumpi\n      dup1\n      0x9b3e4552\n      eq\n      tag_14\n      jumpi\n      dup1\n      0x9f10a990\n      eq\n      tag_15\n      jumpi\n      dup1\n      0xa59460dc\n      eq\n      tag_16\n      jumpi\n      dup1\n      0xac128f4f\n      eq\n      tag_17\n      jumpi\n      jump(tag_2)\n    tag_24:\n      dup1\n      0x454f7b8f\n      gt\n      tag_26\n      jumpi\n      dup1\n      0x454f7b8f\n      eq\n      tag_8\n      jumpi\n      dup1\n      0x5bedc390\n      eq\n      tag_9\n      jumpi\n      dup1\n      0x6fbb5a86\n      eq\n      tag_10\n      jumpi\n      dup1\n      0x715018a6\n      eq\n      tag_11\n      jumpi\n      dup1\n      0x76636d20\n      eq\n      tag_12\n      jumpi\n      jump(tag_2)\n    tag_26:\n      dup1\n      0x0d988270\n      eq\n      tag_3\n      jumpi\n      dup1\n      0x119b22b3\n      eq\n      tag_4\n      jumpi\n      dup1\n      0x158977de\n      eq\n      tag_5\n      jumpi\n      dup1\n      0x3b98bc65\n      eq\n      tag_6\n      jumpi\n      dup1\n      0x443b80a1\n      eq\n      tag_7\n      jumpi\n    tag_2:\n      0x00\n      dup1\n      revert\n        /* \"lotto.sol\":1057:1106  mapping(address => uint256[]) public entriesIndex */\n    tag_3:\n      tag_27\n      0x04\n      dup1\n      calldatasize\n      sub\n      dup2\n      add\n      swap1\n      tag_28\n      swap2\n      swap1\n      tag_29\n      jump\t// in\n    tag_28:\n      tag_30\n      jump\t// in\n    tag_27:\n      mload(0x40)\n      tag_31\n      swap2\n      swap1\n      tag_32\n      jump\t// in\n    tag_31:\n      mload(0x40)\n      dup1\n      swap2\n      sub\n      swap1\n      return\n        /* \"lotto.sol\":668:691  uint256 public roundNum */\n    tag_4:\n      tag_33\n      tag_34\n      jump\t// in\n    tag_33:\n      mload(0x40)\n      tag_35\n      swap2\n      swap1\n      tag_32\n      jump\t// in\n    tag_35:\n      mload(0x40)\n      dup1\n      swap2\n      sub\n      swap1\n      return\n        /* \"lotto.sol\":4752:5032  function getUniqueUsers() public view returns (uint256 counter) {\r... */\n    tag_5:\n      tag_36\n      tag_37\n      jump\t// in\n    tag_36:\n      mload(0x40)\n      tag_38\n      swap2\n      swap1\n      tag_32\n      jump\t// in\n    tag_38:\n      mload(0x40)\n      dup1\n      swap2\n      sub\n      swap1\n      return\n        /* \"lotto.sol\":5040:5643  function getUniqueAddresses() public view returns (address [] memory addresses, uint256 [] memory entries) {\r... */\n    tag_6:\n      tag_39\n      tag_40\n      jump\t// in\n    tag_39:\n      mload(0x40)\n      tag_41\n      swap3\n      swap2\n      swap1\n      tag_42\n      jump\t// in\n    tag_41:\n      mload(0x40)\n      dup1\n      swap2\n      sub\n      swap1\n      return\n        /* \"lotto.sol\":1250:1522  function updateAccount(address account, uint256 amount) external{\r... */\n    tag_7:\n      tag_43\n      0x04\n      dup1\n      calldatasize\n      sub\n      dup2\n      add\n      swap1\n      tag_44\n      swap2\n      swap1\n      tag_29\n      jump\t// in\n    tag_44:\n      tag_45\n      jump\t// in\n    tag_43:\n      stop\n        /* \"lotto.sol\":698:724  uint256 public totalPayout */\n    tag_8:\n      tag_46\n      tag_47\n      jump\t// in\n    tag_46:\n      mload(0x40)\n      tag_48\n      swap2\n      swap1\n      tag_32\n      jump\t// in\n    tag_48:\n      mload(0x40)\n      dup1\n      swap2\n      sub\n      swap1\n      return\n        /* \"lotto.sol\":2293:2462  function isActiveAccount(address account) external view returns(bool){\r... */\n    tag_9:\n      tag_49\n      0x04\n      dup1\n      calldatasize\n      sub\n      dup2\n      add\n      swap1\n      tag_50\n      swap2\n      swap1\n      tag_51\n      jump\t// in\n    tag_50:\n      tag_52\n      jump\t// in\n    tag_49:\n      mload(0x40)\n      tag_53\n      swap2\n      swap1\n      tag_54\n      jump\t// in\n    tag_53:\n      mload(0x40)\n      dup1\n      swap2\n      sub\n      swap1\n      return\n        /* \"lotto.sol\":3427:3985  function updateWinner(uint256 winnerNum, uint256 payout) external onlyOwner {      \r... */\n    tag_10:\n      tag_55\n      0x04\n      dup1\n      calldatasize\n      sub\n      dup2\n      add\n      swap1\n      tag_56\n      swap2\n      swap1\n      tag_57\n      jump\t// in\n    tag_56:\n      tag_58\n      jump\t// in\n    tag_55:\n      stop\n        /* \"https://github.com/OpenZeppelin/openzeppelin-contracts/blob/master/contracts/access/Ownable.sol\":1668:1769  function renounceOwnership() public virtual onlyOwner {... */\n    tag_11:\n      tag_59\n      tag_60\n      jump\t// in\n    tag_59:\n      stop\n        /* \"lotto.sol\":634:661  uint256 public roundEntries */\n    tag_12:\n      tag_61\n      tag_62\n      jump\t// in\n    tag_61:\n      mload(0x40)\n      tag_63\n      swap2\n      swap1\n      tag_32\n      jump\t// in\n    tag_63:\n      mload(0x40)\n      dup1\n      swap2\n      sub\n      swap1\n      return\n        /* \"https://github.com/OpenZeppelin/openzeppelin-contracts/blob/master/contracts/access/Ownable.sol\":1036:1121  function owner() public view virtual returns (address) {... */\n    tag_13:\n      tag_64\n      tag_65\n      jump\t// in\n    tag_64:\n      mload(0x40)\n      tag_66\n      swap2\n      swap1\n      tag_67\n      jump\t// in\n    tag_66:\n      mload(0x40)\n      dup1\n      swap2\n      sub\n      swap1\n      return\n        /* \"lotto.sol\":737:760  IERC20 public acesToken */\n    tag_14:\n      tag_68\n      tag_69\n      jump\t// in\n    tag_68:\n      mload(0x40)\n      tag_70\n      swap2\n      swap1\n      tag_71\n      jump\t// in\n    tag_70:\n      mload(0x40)\n      dup1\n      swap2\n      sub\n      swap1\n      return\n        /* \"lotto.sol\":4117:4239  function userEntries(address account) public view returns (uint256) {\r... */\n    tag_15:\n      tag_72\n      0x04\n      dup1\n      calldatasize\n      sub\n      dup2\n      add\n      swap1\n      tag_73\n      swap2\n      swap1\n      tag_51\n      jump\t// in\n    tag_73:\n      tag_74\n      jump\t// in\n    tag_72:\n      mload(0x40)\n      tag_75\n      swap2\n      swap1\n      tag_32\n      jump\t// in\n    tag_75:\n      mload(0x40)\n      dup1\n      swap2\n      sub\n      swap1\n      return\n        /* \"lotto.sol\":1530:2108  function removeEntryFromWallet(address account, uint256 amount) public {\r... */\n    tag_16:\n      tag_76\n      0x04\n      dup1\n      calldatasize\n      sub\n      dup2\n      add\n      swap1\n      tag_77\n      swap2\n      swap1\n      tag_29\n      jump\t// in\n    tag_77:\n      tag_78\n      jump\t// in\n    tag_76:\n      stop\n        /* \"lotto.sol\":951:998  mapping(uint256 => Results) public roundResults */\n    tag_17:\n      tag_79\n      0x04\n      dup1\n      calldatasize\n      sub\n      dup2\n      add\n      swap1\n      tag_80\n      swap2\n      swap1\n      tag_81\n      jump\t// in\n    tag_80:\n      tag_82\n      jump\t// in\n    tag_79:\n      mload(0x40)\n      tag_83\n      swap6\n      swap5\n      swap4\n      swap3\n      swap2\n      swap1\n      tag_84\n      jump\t// in\n    tag_83:\n      mload(0x40)\n      dup1\n      swap2\n      sub\n      swap1\n      return\n        /* \"lotto.sol\":1005:1050  mapping(uint256 => address) public roundEntry */\n    tag_18:\n      tag_85\n      0x04\n      dup1\n      calldatasize\n      sub\n      dup2\n      add\n      swap1\n      tag_86\n      swap2\n      swap1\n      tag_81\n      jump\t// in\n    tag_86:\n      tag_87\n      jump\t// in\n    tag_85:\n      mload(0x40)\n      tag_88\n      swap2\n      swap1\n      tag_67\n      jump\t// in\n    tag_88:\n      mload(0x40)\n      dup1\n      swap2\n      sub\n      swap1\n      return\n        /* \"lotto.sol\":4247:4744  function resultLog(uint256 startIndex, uint256 endIndex) external view returns(Results [] memory log){\r... */\n    tag_19:\n      tag_89\n      0x04\n      dup1\n      calldatasize\n      sub\n      dup2\n      add\n      swap1\n      tag_90\n      swap2\n      swap1\n      tag_57\n      jump\t// in\n    tag_90:\n      tag_91\n      jump\t// in\n    tag_89:\n      mload(0x40)\n      tag_92\n      swap2\n      swap1\n      tag_93\n      jump\t// in\n    tag_92:\n      mload(0x40)\n      dup1\n      swap2\n      sub\n      swap1\n      return\n        /* \"lotto.sol\":2116:2285  function removeAccount(address account) external{\r... */\n    tag_20:\n      tag_94\n      0x04\n      dup1\n      calldatasize\n      sub\n      dup2\n      add\n      swap1\n      tag_95\n      swap2\n      swap1\n      tag_51\n      jump\t// in\n    tag_95:\n      tag_96\n      jump\t// in\n    tag_94:\n      stop\n        /* \"https://github.com/OpenZeppelin/openzeppelin-contracts/blob/master/contracts/access/Ownable.sol\":1918:2116  function transferOwnership(address newOwner) public virtual onlyOwner {... */\n    tag_21:\n      tag_97\n      0x04\n      dup1\n      calldatasize\n      sub\n      dup2\n      add\n      swap1\n      tag_98\n      swap2\n      swap1\n      tag_51\n      jump\t// in\n    tag_98:\n      tag_99\n      jump\t// in\n    tag_97:\n      stop\n        /* \"lotto.sol\":3215:3419  function pickWinner(uint256 seed) external view returns(uint256 winnerNum, address winnerAddress) {\r... */\n    tag_22:\n      tag_100\n      0x04\n      dup1\n      calldatasize\n      sub\n      dup2\n      add\n      swap1\n      tag_101\n      swap2\n      swap1\n      tag_81\n      jump\t// in\n    tag_101:\n      tag_102\n      jump\t// in\n    tag_100:\n      mload(0x40)\n      tag_103\n      swap3\n      swap2\n      swap1\n      tag_104\n      jump\t// in\n    tag_103:\n      mload(0x40)\n      dup1\n      swap2\n      sub\n      swap1\n      return\n        /* \"lotto.sol\":3993:4109  function currentJackpot() public view returns (uint256) {\r... */\n    tag_23:\n      tag_105\n      tag_106\n      jump\t// in\n    tag_105:\n      mload(0x40)\n      tag_107\n      swap2\n      swap1\n      tag_32\n      jump\t// in\n    tag_107:\n      mload(0x40)\n      dup1\n      swap2\n      sub\n      swap1\n      return\n        /* \"lotto.sol\":1057:1106  mapping(address => uint256[]) public entriesIndex */\n    tag_30:\n      mstore(0x20, 0x07)\n      dup2\n      0x00\n      mstore\n      keccak256(0x00, 0x40)\n      dup2\n      dup2\n      sload\n      dup2\n      lt\n      tag_108\n      jumpi\n      0x00\n      dup1\n      revert\n    tag_108:\n      swap1\n      0x00\n      mstore\n      keccak256(0x00, 0x20)\n      add\n      0x00\n      swap2\n      pop\n      swap2\n      pop\n      pop\n      sload\n      dup2\n      jump\t// out\n        /* \"lotto.sol\":668:691  uint256 public roundNum */\n    tag_34:\n      sload(0x02)\n      dup2\n      jump\t// out\n        /* \"lotto.sol\":4752:5032  function getUniqueUsers() public view returns (uint256 counter) {\r... */\n    tag_37:\n        /* \"lotto.sol\":4799:4814  uint256 counter */\n      0x00\n        /* \"lotto.sol\":4849:4858  uint256 i */\n      dup1\n        /* \"lotto.sol\":4845:5025  for(uint256 i; i < roundEntries; i++){\r... */\n    tag_111:\n        /* \"lotto.sol\":4864:4876  roundEntries */\n      sload(0x01)\n        /* \"lotto.sol\":4860:4861  i */\n      dup2\n        /* \"lotto.sol\":4860:4876  i < roundEntries */\n      lt\n        /* \"lotto.sol\":4845:5025  for(uint256 i; i < roundEntries; i++){\r... */\n      iszero\n      tag_112\n      jumpi\n        /* \"lotto.sol\":4897:4909  address user */\n      0x00\n        /* \"lotto.sol\":4912:4922  roundEntry */\n      0x06\n        /* \"lotto.sol\":4912:4925  roundEntry[i] */\n      0x00\n        /* \"lotto.sol\":4923:4924  i */\n      dup4\n        /* \"lotto.sol\":4912:4925  roundEntry[i] */\n      dup2\n      mstore\n      0x20\n      add\n      swap1\n      dup2\n      mstore\n      0x20\n      add\n      0x00\n      keccak256\n      0x00\n      swap1\n      sload\n      swap1\n      0x0100\n      exp\n      swap1\n      div\n      0xffffffffffffffffffffffffffffffffffffffff\n      and\n        /* \"lotto.sol\":4897:4925  address user = roundEntry[i] */\n      swap1\n      pop\n        /* \"lotto.sol\":4948:4960  entriesIndex */\n      0x07\n        /* \"lotto.sol\":4948:4966  entriesIndex[user] */\n      0x00\n        /* \"lotto.sol\":4961:4965  user */\n      dup3\n        /* \"lotto.sol\":4948:4966  entriesIndex[user] */\n      0xffffffffffffffffffffffffffffffffffffffff\n      and\n      0xffffffffffffffffffffffffffffffffffffffff\n      and\n      dup2\n      mstore\n      0x20\n      add\n      swap1\n      dup2\n      mstore\n      0x20\n      add\n      0x00\n      keccak256\n        /* \"lotto.sol\":4967:4968  0 */\n      0x00\n        /* \"lotto.sol\":4948:4969  entriesIndex[user][0] */\n      dup2\n      sload\n      dup2\n      lt\n      tag_114\n      jumpi\n      tag_115\n      tag_116\n      jump\t// in\n    tag_115:\n    tag_114:\n      swap1\n      0x00\n      mstore\n      keccak256(0x00, 0x20)\n      add\n      sload\n        /* \"lotto.sol\":4943:4944  i */\n      dup3\n        /* \"lotto.sol\":4943:4969  i == entriesIndex[user][0] */\n      eq\n        /* \"lotto.sol\":4940:5014  if(i == entriesIndex[user][0]){\r... */\n      iszero\n      tag_118\n      jumpi\n        /* \"lotto.sol\":4989:4998  counter++ */\n      dup3\n      dup1\n      tag_119\n      swap1\n      tag_120\n      jump\t// in\n    tag_119:\n      swap4\n      pop\n      pop\n        /* \"lotto.sol\":4940:5014  if(i == entriesIndex[user][0]){\r... */\n    tag_118:\n        /* \"lotto.sol\":4882:5025  {\r... */\n      pop\n        /* \"lotto.sol\":4878:4881  i++ */\n      dup1\n      dup1\n      tag_121\n      swap1\n      tag_120\n      jump\t// in\n    tag_121:\n      swap2\n      pop\n      pop\n        /* \"lotto.sol\":4845:5025  for(uint256 i; i < roundEntries; i++){\r... */\n      jump(tag_111)\n    tag_112:\n      pop\n        /* \"lotto.sol\":4752:5032  function getUniqueUsers() public view returns (uint256 counter) {\r... */\n      swap1\n      jump\t// out\n        /* \"lotto.sol\":5040:5643  function getUniqueAddresses() public view returns (address [] memory addresses, uint256 [] memory entries) {\r... */\n    tag_40:\n        /* \"lotto.sol\":5091:5118  address [] memory addresses */\n      0x60\n        /* \"lotto.sol\":5120:5145  uint256 [] memory entries */\n      dup1\n        /* \"lotto.sol\":5158:5177  uint256 arrayLength */\n      0x00\n        /* \"lotto.sol\":5180:5196  getUniqueUsers() */\n      tag_123\n        /* \"lotto.sol\":5180:5194  getUniqueUsers */\n      tag_37\n        /* \"lotto.sol\":5180:5196  getUniqueUsers() */\n      jump\t// in\n    tag_123:\n        /* \"lotto.sol\":5158:5196  uint256 arrayLength = getUniqueUsers() */\n      swap1\n      pop\n        /* \"lotto.sol\":5233:5244  arrayLength */\n      dup1\n        /* \"lotto.sol\":5219:5245  new address[](arrayLength) */\n      0xffffffffffffffff\n      dup2\n      gt\n      iszero\n      tag_124\n      jumpi\n      tag_125\n      tag_126\n      jump\t// in\n    tag_125:\n    tag_124:\n      mload(0x40)\n      swap1\n      dup1\n      dup3\n      mstore\n      dup1\n      0x20\n      mul\n      0x20\n      add\n      dup3\n      add\n      0x40\n      mstore\n      dup1\n      iszero\n      tag_127\n      jumpi\n      dup2\n      0x20\n      add\n      0x20\n      dup3\n      mul\n      dup1\n      calldatasize\n      dup4\n      calldatacopy\n      dup1\n      dup3\n      add\n      swap2\n      pop\n      pop\n      swap1\n      pop\n    tag_127:\n      pop\n        /* \"lotto.sol\":5207:5245  addresses = new address[](arrayLength) */\n      swap3\n      pop\n        /* \"lotto.sol\":5280:5291  arrayLength */\n      dup1\n        /* \"lotto.sol\":5266:5292  new uint256[](arrayLength) */\n      0xffffffffffffffff\n      dup2\n      gt\n      iszero\n      tag_128\n      jumpi\n      tag_129\n      tag_126\n      jump\t// in\n    tag_129:\n    tag_128:\n      mload(0x40)\n      swap1\n      dup1\n      dup3\n      mstore\n      dup1\n      0x20\n      mul\n      0x20\n      add\n      dup3\n      add\n      0x40\n      mstore\n      dup1\n      iszero\n      tag_130\n      jumpi\n      dup2\n      0x20\n      add\n      0x20\n      dup3\n      mul\n      dup1\n      calldatasize\n      dup4\n      calldatacopy\n      dup1\n      dup3\n      add\n      swap2\n      pop\n      pop\n      swap1\n      pop\n    tag_130:\n      pop\n        /* \"lotto.sol\":5256:5292  entries = new uint256[](arrayLength) */\n      swap2\n      pop\n        /* \"lotto.sol\":5303:5323  uint256 currentIndex */\n      0x00\n        /* \"lotto.sol\":5338:5347  uint256 i */\n      dup1\n        /* \"lotto.sol\":5334:5636  for(uint256 i; i < roundEntries; i++){\r... */\n    tag_131:\n        /* \"lotto.sol\":5353:5365  roundEntries */\n      sload(0x01)\n        /* \"lotto.sol\":5349:5350  i */\n      dup2\n        /* \"lotto.sol\":5349:5365  i < roundEntries */\n      lt\n        /* \"lotto.sol\":5334:5636  for(uint256 i; i < roundEntries; i++){\r... */\n      iszero\n      tag_132\n      jumpi\n        /* \"lotto.sol\":5386:5398  address user */\n      0x00\n        /* \"lotto.sol\":5401:5411  roundEntry */\n      0x06\n        /* \"lotto.sol\":5401:5414  roundEntry[i] */\n      0x00\n        /* \"lotto.sol\":5412:5413  i */\n      dup4\n        /* \"lotto.sol\":5401:5414  roundEntry[i] */\n      dup2\n      mstore\n      0x20\n      add\n      swap1\n      dup2\n      mstore\n      0x20\n      add\n      0x00\n      keccak256\n      0x00\n      swap1\n      sload\n      swap1\n      0x0100\n      exp\n      swap1\n      div\n      0xffffffffffffffffffffffffffffffffffffffff\n      and\n        /* \"lotto.sol\":5386:5414  address user = roundEntry[i] */\n      swap1\n      pop\n        /* \"lotto.sol\":5437:5449  entriesIndex */\n      0x07\n        /* \"lotto.sol\":5437:5455  entriesIndex[user] */\n      0x00\n        /* \"lotto.sol\":5450:5454  user */\n      dup3\n        /* \"lotto.sol\":5437:5455  entriesIndex[user] */\n      0xffffffffffffffffffffffffffffffffffffffff\n      and\n      0xffffffffffffffffffffffffffffffffffffffff\n      and\n      dup2\n      mstore\n      0x20\n      add\n      swap1\n      dup2\n      mstore\n      0x20\n      add\n      0x00\n      keccak256\n        /* \"lotto.sol\":5456:5457  0 */\n      0x00\n        /* \"lotto.sol\":5437:5458  entriesIndex[user][0] */\n      dup2\n      sload\n      dup2\n      lt\n      tag_134\n      jumpi\n      tag_135\n      tag_116\n      jump\t// in\n    tag_135:\n    tag_134:\n      swap1\n      0x00\n      mstore\n      keccak256(0x00, 0x20)\n      add\n      sload\n        /* \"lotto.sol\":5432:5433  i */\n      dup3\n        /* \"lotto.sol\":5432:5458  i == entriesIndex[user][0] */\n      eq\n        /* \"lotto.sol\":5429:5625  if(i == entriesIndex[user][0]){\r... */\n      iszero\n      tag_137\n      jumpi\n        /* \"lotto.sol\":5504:5508  user */\n      dup1\n        /* \"lotto.sol\":5478:5487  addresses */\n      dup7\n        /* \"lotto.sol\":5488:5500  currentIndex */\n      dup5\n        /* \"lotto.sol\":5478:5501  addresses[currentIndex] */\n      dup2\n      mload\n      dup2\n      lt\n      tag_138\n      jumpi\n      tag_139\n      tag_116\n      jump\t// in\n    tag_139:\n    tag_138:\n      0x20\n      mul\n      0x20\n      add\n      add\n        /* \"lotto.sol\":5478:5508  addresses[currentIndex] = user */\n      swap1\n      0xffffffffffffffffffffffffffffffffffffffff\n      and\n      swap1\n      dup2\n      0xffffffffffffffffffffffffffffffffffffffff\n      and\n      dup2\n      mstore\n      pop\n      pop\n        /* \"lotto.sol\":5551:5563  entriesIndex */\n      0x07\n        /* \"lotto.sol\":5551:5569  entriesIndex[user] */\n      0x00\n        /* \"lotto.sol\":5564:5568  user */\n      dup3\n        /* \"lotto.sol\":5551:5569  entriesIndex[user] */\n      0xffffffffffffffffffffffffffffffffffffffff\n      and\n      0xffffffffffffffffffffffffffffffffffffffff\n      and\n      dup2\n      mstore\n      0x20\n      add\n      swap1\n      dup2\n      mstore\n      0x20\n      add\n      0x00\n      keccak256\n        /* \"lotto.sol\":5551:5576  entriesIndex[user].length */\n      dup1\n      sload\n      swap1\n      pop\n        /* \"lotto.sol\":5527:5534  entries */\n      dup6\n        /* \"lotto.sol\":5535:5547  currentIndex */\n      dup5\n        /* \"lotto.sol\":5527:5548  entries[currentIndex] */\n      dup2\n      mload\n      dup2\n      lt\n      tag_140\n      jumpi\n      tag_141\n      tag_116\n      jump\t// in\n    tag_141:\n    tag_140:\n      0x20\n      mul\n      0x20\n      add\n      add\n        /* \"lotto.sol\":5527:5576  entries[currentIndex] = entriesIndex[user].length */\n      dup2\n      dup2\n      mstore\n      pop\n      pop\n        /* \"lotto.sol\":5595:5609  currentIndex++ */\n      dup3\n      dup1\n      tag_142\n      swap1\n      tag_120\n      jump\t// in\n    tag_142:\n      swap4\n      pop\n      pop\n        /* \"lotto.sol\":5429:5625  if(i == entriesIndex[user][0]){\r... */\n    tag_137:\n        /* \"lotto.sol\":5371:5636  {\r... */\n      pop\n        /* \"lotto.sol\":5367:5370  i++ */\n      dup1\n      dup1\n      tag_143\n      swap1\n      tag_120\n      jump\t// in\n    tag_143:\n      swap2\n      pop\n      pop\n        /* \"lotto.sol\":5334:5636  for(uint256 i; i < roundEntries; i++){\r... */\n      jump(tag_131)\n    tag_132:\n      pop\n        /* \"lotto.sol\":5147:5643  {\r... */\n      pop\n      pop\n        /* \"lotto.sol\":5040:5643  function getUniqueAddresses() public view returns (address [] memory addresses, uint256 [] memory entries) {\r... */\n      swap1\n      swap2\n      jump\t// out\n        /* \"lotto.sol\":1250:1522  function updateAccount(address account, uint256 amount) external{\r... */\n    tag_45:\n        /* \"lotto.sol\":1329:1338  uint256 i */\n      0x00\n        /* \"lotto.sol\":1325:1480  for(uint256 i; i < amount; i++){\r... */\n    tag_145:\n        /* \"lotto.sol\":1344:1350  amount */\n      dup2\n        /* \"lotto.sol\":1340:1341  i */\n      dup2\n        /* \"lotto.sol\":1340:1350  i < amount */\n      lt\n        /* \"lotto.sol\":1325:1480  for(uint256 i; i < amount; i++){\r... */\n      iszero\n      tag_146\n      jumpi\n        /* \"lotto.sol\":1402:1409  account */\n      dup3\n        /* \"lotto.sol\":1371:1381  roundEntry */\n      0x06\n        /* \"lotto.sol\":1371:1399  roundEntry[roundEntries + i] */\n      0x00\n        /* \"lotto.sol\":1397:1398  i */\n      dup4\n        /* \"lotto.sol\":1382:1394  roundEntries */\n      sload(0x01)\n        /* \"lotto.sol\":1382:1398  roundEntries + i */\n      tag_148\n      swap2\n      swap1\n      tag_149\n      jump\t// in\n    tag_148:\n        /* \"lotto.sol\":1371:1399  roundEntry[roundEntries + i] */\n      dup2\n      mstore\n      0x20\n      add\n      swap1\n      dup2\n      mstore\n      0x20\n      add\n      0x00\n      keccak256\n      0x00\n        /* \"lotto.sol\":1371:1409  roundEntry[roundEntries + i] = account */\n      0x0100\n      exp\n      dup2\n      sload\n      dup2\n      0xffffffffffffffffffffffffffffffffffffffff\n      mul\n      not\n      and\n      swap1\n      dup4\n      0xffffffffffffffffffffffffffffffffffffffff\n      and\n      mul\n      or\n      swap1\n      sstore\n      pop\n        /* \"lotto.sol\":1424:1436  entriesIndex */\n      0x07\n        /* \"lotto.sol\":1424:1445  entriesIndex[account] */\n      0x00\n        /* \"lotto.sol\":1437:1444  account */\n      dup5\n        /* \"lotto.sol\":1424:1445  entriesIndex[account] */\n      0xffffffffffffffffffffffffffffffffffffffff\n      and\n      0xffffffffffffffffffffffffffffffffffffffff\n      and\n      dup2\n      mstore\n      0x20\n      add\n      swap1\n      dup2\n      mstore\n      0x20\n      add\n      0x00\n      keccak256\n        /* \"lotto.sol\":1466:1467  i */\n      dup2\n        /* \"lotto.sol\":1451:1463  roundEntries */\n      sload(0x01)\n        /* \"lotto.sol\":1451:1467  roundEntries + i */\n      tag_150\n      swap2\n      swap1\n      tag_149\n      jump\t// in\n    tag_150:\n        /* \"lotto.sol\":1424:1468  entriesIndex[account].push(roundEntries + i) */\n      swap1\n      dup1\n      0x01\n      dup2\n      sload\n      add\n      dup1\n      dup3\n      sstore\n      dup1\n      swap2\n      pop\n      pop\n      0x01\n      swap1\n      sub\n      swap1\n      0x00\n      mstore\n      keccak256(0x00, 0x20)\n      add\n      0x00\n      swap1\n      swap2\n      swap1\n      swap2\n      swap1\n      swap2\n      pop\n      sstore\n        /* \"lotto.sol\":1352:1355  i++ */\n      dup1\n      dup1\n      tag_152\n      swap1\n      tag_120\n      jump\t// in\n    tag_152:\n      swap2\n      pop\n      pop\n        /* \"lotto.sol\":1325:1480  for(uint256 i; i < amount; i++){\r... */\n      jump(tag_145)\n    tag_146:\n      pop\n        /* \"lotto.sol\":1508:1514  amount */\n      dup1\n        /* \"lotto.sol\":1492:1504  roundEntries */\n      0x01\n      0x00\n        /* \"lotto.sol\":1492:1514  roundEntries += amount */\n      dup3\n      dup3\n      sload\n      tag_153\n      swap2\n      swap1\n      tag_149\n      jump\t// in\n    tag_153:\n      swap3\n      pop\n      pop\n      dup2\n      swap1\n      sstore\n      pop\n        /* \"lotto.sol\":1250:1522  function updateAccount(address account, uint256 amount) external{\r... */\n      pop\n      pop\n      jump\t// out\n        /* \"lotto.sol\":698:724  uint256 public totalPayout */\n    tag_47:\n      sload(0x03)\n      dup2\n      jump\t// out\n        /* \"lotto.sol\":2293:2462  function isActiveAccount(address account) external view returns(bool){\r... */\n    tag_52:\n        /* \"lotto.sol\":2357:2361  bool */\n      0x00\n        /* \"lotto.sol\":2373:2395  uint256 currentEntries */\n      dup1\n        /* \"lotto.sol\":2398:2418  userEntries(account) */\n      tag_155\n        /* \"lotto.sol\":2410:2417  account */\n      dup4\n        /* \"lotto.sol\":2398:2409  userEntries */\n      tag_74\n        /* \"lotto.sol\":2398:2418  userEntries(account) */\n      jump\t// in\n    tag_155:\n        /* \"lotto.sol\":2373:2418  uint256 currentEntries = userEntries(account) */\n      swap1\n      pop\n        /* \"lotto.sol\":2453:2454  0 */\n      0x00\n        /* \"lotto.sol\":2436:2450  currentEntries */\n      dup2\n        /* \"lotto.sol\":2436:2454  currentEntries > 0 */\n      gt\n        /* \"lotto.sol\":2429:2454  return currentEntries > 0 */\n      swap2\n      pop\n      pop\n        /* \"lotto.sol\":2293:2462  function isActiveAccount(address account) external view returns(bool){\r... */\n      swap2\n      swap1\n      pop\n      jump\t// out\n        /* \"lotto.sol\":3427:3985  function updateWinner(uint256 winnerNum, uint256 payout) external onlyOwner {      \r... */\n    tag_58:\n        /* \"https://github.com/OpenZeppelin/openzeppelin-contracts/blob/master/contracts/access/Ownable.sol\":1259:1271  _msgSender() */\n      tag_157\n        /* \"https://github.com/OpenZeppelin/openzeppelin-contracts/blob/master/contracts/access/Ownable.sol\":1259:1269  _msgSender */\n      tag_158\n        /* \"https://github.com/OpenZeppelin/openzeppelin-contracts/blob/master/contracts/access/Ownable.sol\":1259:1271  _msgSender() */\n      jump\t// in\n    tag_157:\n        /* \"https://github.com/OpenZeppelin/openzeppelin-contracts/blob/master/contracts/access/Ownable.sol\":1248:1271  owner() == _msgSender() */\n      0xffffffffffffffffffffffffffffffffffffffff\n      and\n        /* \"https://github.com/OpenZeppelin/openzeppelin-contracts/blob/master/contracts/access/Ownable.sol\":1248:1255  owner() */\n      tag_159\n        /* \"https://github.com/OpenZeppelin/openzeppelin-contracts/blob/master/contracts/access/Ownable.sol\":1248:1253  owner */\n      tag_65\n        /* \"https://github.com/OpenZeppelin/openzeppelin-contracts/blob/master/contracts/access/Ownable.sol\":1248:1255  owner() */\n      jump\t// in\n    tag_159:\n        /* \"https://github.com/OpenZeppelin/openzeppelin-contracts/blob/master/contracts/access/Ownable.sol\":1248:1271  owner() == _msgSender() */\n      0xffffffffffffffffffffffffffffffffffffffff\n      and\n      eq\n        /* \"https://github.com/OpenZeppelin/openzeppelin-contracts/blob/master/contracts/access/Ownable.sol\":1240:1308  require(owner() == _msgSender(), \"Ownable: caller is not the owner\") */\n      tag_160\n      jumpi\n      mload(0x40)\n      0x08c379a000000000000000000000000000000000000000000000000000000000\n      dup2\n      mstore\n      0x04\n      add\n      tag_161\n      swap1\n      tag_162\n      jump\t// in\n    tag_161:\n      mload(0x40)\n      dup1\n      swap2\n      sub\n      swap1\n      revert\n    tag_160:\n        /* \"lotto.sol\":3520:3541  address winnerAddress */\n      0x00\n        /* \"lotto.sol\":3544:3554  roundEntry */\n      0x06\n        /* \"lotto.sol\":3544:3565  roundEntry[winnerNum] */\n      0x00\n        /* \"lotto.sol\":3555:3564  winnerNum */\n      dup5\n        /* \"lotto.sol\":3544:3565  roundEntry[winnerNum] */\n      dup2\n      mstore\n      0x20\n      add\n      swap1\n      dup2\n      mstore\n      0x20\n      add\n      0x00\n      keccak256\n      0x00\n      swap1\n      sload\n      swap1\n      0x0100\n      exp\n      swap1\n      div\n      0xffffffffffffffffffffffffffffffffffffffff\n      and\n        /* \"lotto.sol\":3520:3565  address winnerAddress = roundEntry[winnerNum] */\n      swap1\n      pop\n        /* \"lotto.sol\":3603:3817  Results ({\r... */\n      mload(0x40)\n      dup1\n      0xa0\n      add\n      0x40\n      mstore\n      dup1\n        /* \"lotto.sol\":3641:3653  roundEntries */\n      sload(0x01)\n        /* \"lotto.sol\":3603:3817  Results ({\r... */\n      dup2\n      mstore\n      0x20\n      add\n        /* \"lotto.sol\":3683:3692  winnerNum */\n      dup5\n        /* \"lotto.sol\":3603:3817  Results ({\r... */\n      dup2\n      mstore\n      0x20\n      add\n        /* \"lotto.sol\":3715:3721  payout */\n      dup4\n        /* \"lotto.sol\":3603:3817  Results ({\r... */\n      dup2\n      mstore\n      0x20\n      add\n        /* \"lotto.sol\":3745:3760  block.timestamp */\n      timestamp\n        /* \"lotto.sol\":3603:3817  Results ({\r... */\n      dup2\n      mstore\n      0x20\n      add\n        /* \"lotto.sol\":3791:3804  winnerAddress */\n      dup3\n        /* \"lotto.sol\":3603:3817  Results ({\r... */\n      0xffffffffffffffffffffffffffffffffffffffff\n      and\n      dup2\n      mstore\n      pop\n        /* \"lotto.sol\":3578:3590  roundResults */\n      0x05\n        /* \"lotto.sol\":3578:3600  roundResults[roundNum] */\n      0x00\n        /* \"lotto.sol\":3591:3599  roundNum */\n      sload(0x02)\n        /* \"lotto.sol\":3578:3600  roundResults[roundNum] */\n      dup2\n      mstore\n      0x20\n      add\n      swap1\n      dup2\n      mstore\n      0x20\n      add\n      0x00\n      keccak256\n        /* \"lotto.sol\":3578:3817  roundResults[roundNum] = Results ({\r... */\n      0x00\n      dup3\n      add\n      mload\n      dup2\n      0x00\n      add\n      sstore\n      0x20\n      dup3\n      add\n      mload\n      dup2\n      0x01\n      add\n      sstore\n      0x40\n      dup3\n      add\n      mload\n      dup2\n      0x02\n      add\n      sstore\n      0x60\n      dup3\n      add\n      mload\n      dup2\n      0x03\n      add\n      sstore\n      0x80\n      dup3\n      add\n      mload\n      dup2\n      0x04\n      add\n      exp(0x0100, 0x00)\n      dup2\n      sload\n      dup2\n      0xffffffffffffffffffffffffffffffffffffffff\n      mul\n      not\n      and\n      swap1\n      dup4\n      0xffffffffffffffffffffffffffffffffffffffff\n      and\n      mul\n      or\n      swap1\n      sstore\n      pop\n      swap1\n      pop\n      pop\n        /* \"lotto.sol\":3845:3851  payout */\n      dup2\n        /* \"lotto.sol\":3830:3841  totalPayout */\n      0x03\n      0x00\n        /* \"lotto.sol\":3830:3851  totalPayout += payout */\n      dup3\n      dup3\n      sload\n      tag_164\n      swap2\n      swap1\n      tag_149\n      jump\t// in\n    tag_164:\n      swap3\n      pop\n      pop\n      dup2\n      swap1\n      sstore\n      pop\n        /* \"lotto.sol\":3862:3870  roundNum */\n      0x02\n      0x00\n        /* \"lotto.sol\":3862:3872  roundNum++ */\n      dup2\n      sload\n      dup1\n      swap3\n      swap2\n      swap1\n      tag_165\n      swap1\n      tag_120\n      jump\t// in\n    tag_165:\n      swap2\n      swap1\n      pop\n      sstore\n      pop\n        /* \"lotto.sol\":3885:3894  acesToken */\n      0x04\n      0x00\n      swap1\n      sload\n      swap1\n      0x0100\n      exp\n      swap1\n      div\n      0xffffffffffffffffffffffffffffffffffffffff\n      and\n        /* \"lotto.sol\":3885:3903  acesToken.transfer */\n      0xffffffffffffffffffffffffffffffffffffffff\n      and\n      0xa9059cbb\n        /* \"lotto.sol\":3904:3917  winnerAddress */\n      dup3\n        /* \"lotto.sol\":3919:3925  payout */\n      dup5\n        /* \"lotto.sol\":3885:3926  acesToken.transfer(winnerAddress, payout) */\n      mload(0x40)\n      dup4\n      0xffffffff\n      and\n      0xe0\n      shl\n      dup2\n      mstore\n      0x04\n      add\n      tag_166\n      swap3\n      swap2\n      swap1\n      tag_167\n      jump\t// in\n    tag_166:\n      0x20\n      mload(0x40)\n      dup1\n      dup4\n      sub\n      dup2\n      0x00\n      dup8\n      dup1\n      extcodesize\n      iszero\n      dup1\n      iszero\n      tag_168\n      jumpi\n      0x00\n      dup1\n      revert\n    tag_168:\n      pop\n      gas\n      call\n      iszero\n      dup1\n      iszero\n      tag_170\n      jumpi\n      returndatasize\n      0x00\n      dup1\n      returndatacopy\n      revert(0x00, returndatasize)\n    tag_170:\n      pop\n      pop\n      pop\n      pop\n      mload(0x40)\n      returndatasize\n      not(0x1f)\n      0x1f\n      dup3\n      add\n      and\n      dup3\n      add\n      dup1\n      0x40\n      mstore\n      pop\n      dup2\n      add\n      swap1\n      tag_171\n      swap2\n      swap1\n      tag_172\n      jump\t// in\n    tag_171:\n      pop\n        /* \"lotto.sol\":3944:3977  LotteryWon(winnerAddress, payout) */\n      0x2e798dd4337e515c79b64c40e1a93baa1aefbd9180ac7905e02508edd7971e50\n        /* \"lotto.sol\":3955:3968  winnerAddress */\n      dup2\n        /* \"lotto.sol\":3970:3976  payout */\n      dup4\n        /* \"lotto.sol\":3944:3977  LotteryWon(winnerAddress, payout) */\n      mload(0x40)\n      tag_173\n      swap3\n      swap2\n      swap1\n      tag_167\n      jump\t// in\n    tag_173:\n      mload(0x40)\n      dup1\n      swap2\n      sub\n      swap1\n      log1\n        /* \"lotto.sol\":3503:3985  {      \r... */\n      pop\n        /* \"lotto.sol\":3427:3985  function updateWinner(uint256 winnerNum, uint256 payout) external onlyOwner {      \r... */\n      pop\n      pop\n      jump\t// out\n        /* \"https://github.com/OpenZeppelin/openzeppelin-contracts/blob/master/contracts/access/Ownable.sol\":1668:1769  function renounceOwnership() public virtual onlyOwner {... */\n    tag_60:\n        /* \"https://github.com/OpenZeppelin/openzeppelin-contracts/blob/master/contracts/access/Ownable.sol\":1259:1271  _msgSender() */\n      tag_175\n        /* \"https://github.com/OpenZeppelin/openzeppelin-contracts/blob/master/contracts/access/Ownable.sol\":1259:1269  _msgSender */\n      tag_158\n        /* \"https://github.com/OpenZeppelin/openzeppelin-contracts/blob/master/contracts/access/Ownable.sol\":1259:1271  _msgSender() */\n      jump\t// in\n    tag_175:\n        /* \"https://github.com/OpenZeppelin/openzeppelin-contracts/blob/master/contracts/access/Ownable.sol\":1248:1271  owner() == _msgSender() */\n      0xffffffffffffffffffffffffffffffffffffffff\n      and\n        /* \"https://github.com/OpenZeppelin/openzeppelin-contracts/blob/master/contracts/access/Ownable.sol\":1248:1255  owner() */\n      tag_176\n        /* \"https://github.com/OpenZeppelin/openzeppelin-contracts/blob/master/contracts/access/Ownable.sol\":1248:1253  owner */\n      tag_65\n        /* \"https://github.com/OpenZeppelin/openzeppelin-contracts/blob/master/contracts/access/Ownable.sol\":1248:1255  owner() */\n      jump\t// in\n    tag_176:\n        /* \"https://github.com/OpenZeppelin/openzeppelin-contracts/blob/master/contracts/access/Ownable.sol\":1248:1271  owner() == _msgSender() */\n      0xffffffffffffffffffffffffffffffffffffffff\n      and\n      eq\n        /* \"https://github.com/OpenZeppelin/openzeppelin-contracts/blob/master/contracts/access/Ownable.sol\":1240:1308  require(owner() == _msgSender(), \"Ownable: caller is not the owner\") */\n      tag_177\n      jumpi\n      mload(0x40)\n      0x08c379a000000000000000000000000000000000000000000000000000000000\n      dup2\n      mstore\n      0x04\n      add\n      tag_178\n      swap1\n      tag_162\n      jump\t// in\n    tag_178:\n      mload(0x40)\n      dup1\n      swap2\n      sub\n      swap1\n      revert\n    tag_177:\n        /* \"https://github.com/OpenZeppelin/openzeppelin-contracts/blob/master/contracts/access/Ownable.sol\":1732:1762  _transferOwnership(address(0)) */\n      tag_180\n        /* \"https://github.com/OpenZeppelin/openzeppelin-contracts/blob/master/contracts/access/Ownable.sol\":1759:1760  0 */\n      0x00\n        /* \"https://github.com/OpenZeppelin/openzeppelin-contracts/blob/master/contracts/access/Ownable.sol\":1732:1750  _transferOwnership */\n      tag_181\n        /* \"https://github.com/OpenZeppelin/openzeppelin-contracts/blob/master/contracts/access/Ownable.sol\":1732:1762  _transferOwnership(address(0)) */\n      jump\t// in\n    tag_180:\n        /* \"https://github.com/OpenZeppelin/openzeppelin-contracts/blob/master/contracts/access/Ownable.sol\":1668:1769  function renounceOwnership() public virtual onlyOwner {... */\n      jump\t// out\n        /* \"lotto.sol\":634:661  uint256 public roundEntries */\n    tag_62:\n      sload(0x01)\n      dup2\n      jump\t// out\n        /* \"https://github.com/OpenZeppelin/openzeppelin-contracts/blob/master/contracts/access/Ownable.sol\":1036:1121  function owner() public view virtual returns (address) {... */\n    tag_65:\n        /* \"https://github.com/OpenZeppelin/openzeppelin-contracts/blob/master/contracts/access/Ownable.sol\":1082:1089  address */\n      0x00\n        /* \"https://github.com/OpenZeppelin/openzeppelin-contracts/blob/master/contracts/access/Ownable.sol\":1108:1114  _owner */\n      dup1\n      0x00\n      swap1\n      sload\n      swap1\n      0x0100\n      exp\n      swap1\n      div\n      0xffffffffffffffffffffffffffffffffffffffff\n      and\n        /* \"https://github.com/OpenZeppelin/openzeppelin-contracts/blob/master/contracts/access/Ownable.sol\":1101:1114  return _owner */\n      swap1\n      pop\n        /* \"https://github.com/OpenZeppelin/openzeppelin-contracts/blob/master/contracts/access/Ownable.sol\":1036:1121  function owner() public view virtual returns (address) {... */\n      swap1\n      jump\t// out\n        /* \"lotto.sol\":737:760  IERC20 public acesToken */\n    tag_69:\n      0x04\n      0x00\n      swap1\n      sload\n      swap1\n      0x0100\n      exp\n      swap1\n      div\n      0xffffffffffffffffffffffffffffffffffffffff\n      and\n      dup2\n      jump\t// out\n        /* \"lotto.sol\":4117:4239  function userEntries(address account) public view returns (uint256) {\r... */\n    tag_74:\n        /* \"lotto.sol\":4176:4183  uint256 */\n      0x00\n        /* \"lotto.sol\":4203:4215  entriesIndex */\n      0x07\n        /* \"lotto.sol\":4203:4224  entriesIndex[account] */\n      0x00\n        /* \"lotto.sol\":4216:4223  account */\n      dup4\n        /* \"lotto.sol\":4203:4224  entriesIndex[account] */\n      0xffffffffffffffffffffffffffffffffffffffff\n      and\n      0xffffffffffffffffffffffffffffffffffffffff\n      and\n      dup2\n      mstore\n      0x20\n      add\n      swap1\n      dup2\n      mstore\n      0x20\n      add\n      0x00\n      keccak256\n        /* \"lotto.sol\":4203:4231  entriesIndex[account].length */\n      dup1\n      sload\n      swap1\n      pop\n        /* \"lotto.sol\":4196:4231  return entriesIndex[account].length */\n      swap1\n      pop\n        /* \"lotto.sol\":4117:4239  function userEntries(address account) public view returns (uint256) {\r... */\n      swap2\n      swap1\n      pop\n      jump\t// out\n        /* \"lotto.sol\":1530:2108  function removeEntryFromWallet(address account, uint256 amount) public {\r... */\n    tag_78:\n        /* \"lotto.sol\":1612:1634  uint256 currentEntries */\n      0x00\n        /* \"lotto.sol\":1637:1657  userEntries(account) */\n      tag_185\n        /* \"lotto.sol\":1649:1656  account */\n      dup4\n        /* \"lotto.sol\":1637:1648  userEntries */\n      tag_74\n        /* \"lotto.sol\":1637:1657  userEntries(account) */\n      jump\t// in\n    tag_185:\n        /* \"lotto.sol\":1612:1657  uint256 currentEntries = userEntries(account) */\n      swap1\n      pop\n        /* \"lotto.sol\":1689:1690  0 */\n      0x00\n        /* \"lotto.sol\":1671:1685  currentEntries */\n      dup2\n        /* \"lotto.sol\":1671:1690  currentEntries == 0 */\n      eq\n        /* \"lotto.sol\":1668:1807  if(currentEntries == 0){\r... */\n      iszero\n      tag_186\n      jumpi\n        /* \"lotto.sol\":1706:1713  return; */\n      pop\n      jump(tag_184)\n        /* \"lotto.sol\":1668:1807  if(currentEntries == 0){\r... */\n    tag_186:\n        /* \"lotto.sol\":1742:1756  currentEntries */\n      dup1\n        /* \"lotto.sol\":1733:1739  amount */\n      dup3\n        /* \"lotto.sol\":1733:1756  amount > currentEntries */\n      gt\n        /* \"lotto.sol\":1730:1807  if(amount > currentEntries){\r... */\n      iszero\n      tag_188\n      jumpi\n        /* \"lotto.sol\":1781:1795  currentEntries */\n      dup1\n        /* \"lotto.sol\":1772:1795  amount = currentEntries */\n      swap2\n      pop\n        /* \"lotto.sol\":1730:1807  if(amount > currentEntries){\r... */\n    tag_188:\n        /* \"lotto.sol\":1823:1832  uint256 i */\n      0x00\n        /* \"lotto.sol\":1835:1836  1 */\n      0x01\n        /* \"lotto.sol\":1823:1836  uint256 i = 1 */\n      swap1\n      pop\n        /* \"lotto.sol\":1819:2066  for(uint256 i = 1; i <= amount; i++){\r... */\n    tag_189:\n        /* \"lotto.sol\":1843:1849  amount */\n      dup3\n        /* \"lotto.sol\":1838:1839  i */\n      dup2\n        /* \"lotto.sol\":1838:1849  i <= amount */\n      gt\n        /* \"lotto.sol\":1819:2066  for(uint256 i = 1; i <= amount; i++){\r... */\n      tag_190\n      jumpi\n        /* \"lotto.sol\":1870:1887  uint256 lastIndex */\n      0x00\n        /* \"lotto.sol\":1890:1902  entriesIndex */\n      0x07\n        /* \"lotto.sol\":1890:1911  entriesIndex[account] */\n      0x00\n        /* \"lotto.sol\":1903:1910  account */\n      dup7\n        /* \"lotto.sol\":1890:1911  entriesIndex[account] */\n      0xffffffffffffffffffffffffffffffffffffffff\n      and\n      0xffffffffffffffffffffffffffffffffffffffff\n      and\n      dup2\n      mstore\n      0x20\n      add\n      swap1\n      dup2\n      mstore\n      0x20\n      add\n      0x00\n      keccak256\n        /* \"lotto.sol\":1943:1944  1 */\n      0x01\n        /* \"lotto.sol\":1912:1924  entriesIndex */\n      0x07\n        /* \"lotto.sol\":1912:1933  entriesIndex[account] */\n      0x00\n        /* \"lotto.sol\":1925:1932  account */\n      dup9\n        /* \"lotto.sol\":1912:1933  entriesIndex[account] */\n      0xffffffffffffffffffffffffffffffffffffffff\n      and\n      0xffffffffffffffffffffffffffffffffffffffff\n      and\n      dup2\n      mstore\n      0x20\n      add\n      swap1\n      dup2\n      mstore\n      0x20\n      add\n      0x00\n      keccak256\n        /* \"lotto.sol\":1912:1940  entriesIndex[account].length */\n      dup1\n      sload\n      swap1\n      pop\n        /* \"lotto.sol\":1912:1944  entriesIndex[account].length - 1 */\n      tag_192\n      swap2\n      swap1\n      tag_193\n      jump\t// in\n    tag_192:\n        /* \"lotto.sol\":1890:1945  entriesIndex[account][entriesIndex[account].length - 1] */\n      dup2\n      sload\n      dup2\n      lt\n      tag_194\n      jumpi\n      tag_195\n      tag_116\n      jump\t// in\n    tag_195:\n    tag_194:\n      swap1\n      0x00\n      mstore\n      keccak256(0x00, 0x20)\n      add\n      sload\n        /* \"lotto.sol\":1870:1945  uint256 lastIndex = entriesIndex[account][entriesIndex[account].length - 1] */\n      swap1\n      pop\n        /* \"lotto.sol\":1984:1994  roundEntry */\n      0x06\n        /* \"lotto.sol\":1984:2012  roundEntry[roundEntries - i] */\n      0x00\n        /* \"lotto.sol\":2010:2011  i */\n      dup4\n        /* \"lotto.sol\":1995:2007  roundEntries */\n      sload(0x01)\n        /* \"lotto.sol\":1995:2011  roundEntries - i */\n      tag_197\n      swap2\n      swap1\n      tag_193\n      jump\t// in\n    tag_197:\n        /* \"lotto.sol\":1984:2012  roundEntry[roundEntries - i] */\n      dup2\n      mstore\n      0x20\n      add\n      swap1\n      dup2\n      mstore\n      0x20\n      add\n      0x00\n      keccak256\n      0x00\n      swap1\n      sload\n      swap1\n      0x0100\n      exp\n      swap1\n      div\n      0xffffffffffffffffffffffffffffffffffffffff\n      and\n        /* \"lotto.sol\":1960:1970  roundEntry */\n      0x06\n        /* \"lotto.sol\":1960:1981  roundEntry[lastIndex] */\n      0x00\n        /* \"lotto.sol\":1971:1980  lastIndex */\n      dup4\n        /* \"lotto.sol\":1960:1981  roundEntry[lastIndex] */\n      dup2\n      mstore\n      0x20\n      add\n      swap1\n      dup2\n      mstore\n      0x20\n      add\n      0x00\n      keccak256\n      0x00\n        /* \"lotto.sol\":1960:2012  roundEntry[lastIndex] = roundEntry[roundEntries - i] */\n      0x0100\n      exp\n      dup2\n      sload\n      dup2\n      0xffffffffffffffffffffffffffffffffffffffff\n      mul\n      not\n      and\n      swap1\n      dup4\n      0xffffffffffffffffffffffffffffffffffffffff\n      and\n      mul\n      or\n      swap1\n      sstore\n      pop\n        /* \"lotto.sol\":2027:2039  entriesIndex */\n      0x07\n        /* \"lotto.sol\":2027:2048  entriesIndex[account] */\n      0x00\n        /* \"lotto.sol\":2040:2047  account */\n      dup7\n        /* \"lotto.sol\":2027:2048  entriesIndex[account] */\n      0xffffffffffffffffffffffffffffffffffffffff\n      and\n      0xffffffffffffffffffffffffffffffffffffffff\n      and\n      dup2\n      mstore\n      0x20\n      add\n      swap1\n      dup2\n      mstore\n      0x20\n      add\n      0x00\n      keccak256\n        /* \"lotto.sol\":2027:2054  entriesIndex[account].pop() */\n      dup1\n      sload\n      dup1\n      tag_198\n      jumpi\n      tag_199\n      tag_200\n      jump\t// in\n    tag_199:\n    tag_198:\n      0x01\n      swap1\n      sub\n      dup2\n      dup2\n      swap1\n      0x00\n      mstore\n      keccak256(0x00, 0x20)\n      add\n      0x00\n      swap1\n      sstore\n      swap1\n      sstore\n        /* \"lotto.sol\":1855:2066  {\r... */\n      pop\n        /* \"lotto.sol\":1851:1854  i++ */\n      dup1\n      dup1\n      tag_202\n      swap1\n      tag_120\n      jump\t// in\n    tag_202:\n      swap2\n      pop\n      pop\n        /* \"lotto.sol\":1819:2066  for(uint256 i = 1; i <= amount; i++){\r... */\n      jump(tag_189)\n    tag_190:\n      pop\n        /* \"lotto.sol\":2094:2100  amount */\n      dup2\n        /* \"lotto.sol\":2078:2090  roundEntries */\n      0x01\n      0x00\n        /* \"lotto.sol\":2078:2100  roundEntries -= amount */\n      dup3\n      dup3\n      sload\n      tag_203\n      swap2\n      swap1\n      tag_193\n      jump\t// in\n    tag_203:\n      swap3\n      pop\n      pop\n      dup2\n      swap1\n      sstore\n      pop\n        /* \"lotto.sol\":1601:2108  {\r... */\n      pop\n        /* \"lotto.sol\":1530:2108  function removeEntryFromWallet(address account, uint256 amount) public {\r... */\n    tag_184:\n      pop\n      pop\n      jump\t// out\n        /* \"lotto.sol\":951:998  mapping(uint256 => Results) public roundResults */\n    tag_82:\n      mstore(0x20, 0x05)\n      dup1\n      0x00\n      mstore\n      keccak256(0x00, 0x40)\n      0x00\n      swap2\n      pop\n      swap1\n      pop\n      dup1\n      0x00\n      add\n      sload\n      swap1\n      dup1\n      0x01\n      add\n      sload\n      swap1\n      dup1\n      0x02\n      add\n      sload\n      swap1\n      dup1\n      0x03\n      add\n      sload\n      swap1\n      dup1\n      0x04\n      add\n      0x00\n      swap1\n      sload\n      swap1\n      0x0100\n      exp\n      swap1\n      div\n      0xffffffffffffffffffffffffffffffffffffffff\n      and\n      swap1\n      pop\n      dup6\n      jump\t// out\n        /* \"lotto.sol\":1005:1050  mapping(uint256 => address) public roundEntry */\n    tag_87:\n      mstore(0x20, 0x06)\n      dup1\n      0x00\n      mstore\n      keccak256(0x00, 0x40)\n      0x00\n      swap2\n      pop\n      sload\n      swap1\n      0x0100\n      exp\n      swap1\n      div\n      0xffffffffffffffffffffffffffffffffffffffff\n      and\n      dup2\n      jump\t// out\n        /* \"lotto.sol\":4247:4744  function resultLog(uint256 startIndex, uint256 endIndex) external view returns(Results [] memory log){\r... */\n    tag_91:\n        /* \"lotto.sol\":4326:4347  Results [] memory log */\n      0x60\n        /* \"lotto.sol\":4375:4383  roundNum */\n      sload(0x02)\n        /* \"lotto.sol\":4363:4371  endIndex */\n      dup3\n        /* \"lotto.sol\":4363:4383  endIndex >= roundNum */\n      lt\n        /* \"lotto.sol\":4359:4435  if (endIndex >= roundNum) {\r... */\n      tag_205\n      jumpi\n        /* \"lotto.sol\":4422:4423  1 */\n      0x01\n        /* \"lotto.sol\":4411:4419  roundNum */\n      sload(0x02)\n        /* \"lotto.sol\":4411:4423  roundNum - 1 */\n      tag_206\n      swap2\n      swap1\n      tag_193\n      jump\t// in\n    tag_206:\n        /* \"lotto.sol\":4400:4423  endIndex = roundNum - 1 */\n      swap2\n      pop\n        /* \"lotto.sol\":4359:4435  if (endIndex >= roundNum) {\r... */\n    tag_205:\n        /* \"lotto.sol\":4447:4466  uint256 arrayLength */\n      0x00\n        /* \"lotto.sol\":4493:4494  1 */\n      0x01\n        /* \"lotto.sol\":4480:4490  startIndex */\n      dup5\n        /* \"lotto.sol\":4469:4477  endIndex */\n      dup5\n        /* \"lotto.sol\":4469:4490  endIndex - startIndex */\n      tag_207\n      swap2\n      swap1\n      tag_193\n      jump\t// in\n    tag_207:\n        /* \"lotto.sol\":4469:4494  endIndex - startIndex + 1 */\n      tag_208\n      swap2\n      swap1\n      tag_149\n      jump\t// in\n    tag_208:\n        /* \"lotto.sol\":4447:4494  uint256 arrayLength = endIndex - startIndex + 1 */\n      swap1\n      pop\n        /* \"lotto.sol\":4505:4525  uint256 currentIndex */\n      0x00\n        /* \"lotto.sol\":4556:4567  arrayLength */\n      dup2\n        /* \"lotto.sol\":4542:4568  new Results[](arrayLength) */\n      0xffffffffffffffff\n      dup2\n      gt\n      iszero\n      tag_209\n      jumpi\n      tag_210\n      tag_126\n      jump\t// in\n    tag_210:\n    tag_209:\n      mload(0x40)\n      swap1\n      dup1\n      dup3\n      mstore\n      dup1\n      0x20\n      mul\n      0x20\n      add\n      dup3\n      add\n      0x40\n      mstore\n      dup1\n      iszero\n      tag_211\n      jumpi\n      dup2\n      0x20\n      add\n    tag_212:\n      tag_213\n      tag_214\n      jump\t// in\n    tag_213:\n      dup2\n      mstore\n      0x20\n      add\n      swap1\n      0x01\n      swap1\n      sub\n      swap1\n      dup2\n      tag_212\n      jumpi\n      swap1\n      pop\n    tag_211:\n      pop\n        /* \"lotto.sol\":4536:4568  log = new Results[](arrayLength) */\n      swap3\n      pop\n        /* \"lotto.sol\":4589:4598  uint256 i */\n      0x00\n        /* \"lotto.sol\":4601:4611  startIndex */\n      dup6\n        /* \"lotto.sol\":4589:4611  uint256 i = startIndex */\n      swap1\n      pop\n        /* \"lotto.sol\":4584:4737  for (uint256 i = startIndex; i <= endIndex; i++) {\r... */\n    tag_215:\n        /* \"lotto.sol\":4618:4626  endIndex */\n      dup5\n        /* \"lotto.sol\":4613:4614  i */\n      dup2\n        /* \"lotto.sol\":4613:4626  i <= endIndex */\n      gt\n        /* \"lotto.sol\":4584:4737  for (uint256 i = startIndex; i <= endIndex; i++) {\r... */\n      tag_216\n      jumpi\n        /* \"lotto.sol\":4668:4680  roundResults */\n      0x05\n        /* \"lotto.sol\":4668:4696  roundResults[startIndex + i] */\n      0x00\n        /* \"lotto.sol\":4694:4695  i */\n      dup3\n        /* \"lotto.sol\":4681:4691  startIndex */\n      dup9\n        /* \"lotto.sol\":4681:4695  startIndex + i */\n      tag_218\n      swap2\n      swap1\n      tag_149\n      jump\t// in\n    tag_218:\n        /* \"lotto.sol\":4668:4696  roundResults[startIndex + i] */\n      dup2\n      mstore\n      0x20\n      add\n      swap1\n      dup2\n      mstore\n      0x20\n      add\n      0x00\n      keccak256\n        /* \"lotto.sol\":4648:4696  log[currentIndex] = roundResults[startIndex + i] */\n      mload(0x40)\n      dup1\n      0xa0\n      add\n      0x40\n      mstore\n      swap1\n      dup2\n      0x00\n      dup3\n      add\n      sload\n      dup2\n      mstore\n      0x20\n      add\n      0x01\n      dup3\n      add\n      sload\n      dup2\n      mstore\n      0x20\n      add\n      0x02\n      dup3\n      add\n      sload\n      dup2\n      mstore\n      0x20\n      add\n      0x03\n      dup3\n      add\n      sload\n      dup2\n      mstore\n      0x20\n      add\n      0x04\n      dup3\n      add\n      0x00\n      swap1\n      sload\n      swap1\n      0x0100\n      exp\n      swap1\n      div\n      0xffffffffffffffffffffffffffffffffffffffff\n      and\n      0xffffffffffffffffffffffffffffffffffffffff\n      and\n      0xffffffffffffffffffffffffffffffffffffffff\n      and\n      dup2\n      mstore\n      pop\n      pop\n        /* \"lotto.sol\":4648:4651  log */\n      dup5\n        /* \"lotto.sol\":4652:4664  currentIndex */\n      dup4\n        /* \"lotto.sol\":4648:4665  log[currentIndex] */\n      dup2\n      mload\n      dup2\n      lt\n      tag_219\n      jumpi\n      tag_220\n      tag_116\n      jump\t// in\n    tag_220:\n    tag_219:\n      0x20\n      mul\n      0x20\n      add\n      add\n        /* \"lotto.sol\":4648:4696  log[currentIndex] = roundResults[startIndex + i] */\n      dup2\n      swap1\n      mstore\n      pop\n        /* \"lotto.sol\":4711:4725  currentIndex++ */\n      dup2\n      dup1\n      tag_221\n      swap1\n      tag_120\n      jump\t// in\n    tag_221:\n      swap3\n      pop\n      pop\n        /* \"lotto.sol\":4628:4631  i++ */\n      dup1\n      dup1\n      tag_222\n      swap1\n      tag_120\n      jump\t// in\n    tag_222:\n      swap2\n      pop\n      pop\n        /* \"lotto.sol\":4584:4737  for (uint256 i = startIndex; i <= endIndex; i++) {\r... */\n      jump(tag_215)\n    tag_216:\n      pop\n        /* \"lotto.sol\":4348:4744  {\r... */\n      pop\n      pop\n        /* \"lotto.sol\":4247:4744  function resultLog(uint256 startIndex, uint256 endIndex) external view returns(Results [] memory log){\r... */\n      swap3\n      swap2\n      pop\n      pop\n      jump\t// out\n        /* \"lotto.sol\":2116:2285  function removeAccount(address account) external{\r... */\n    tag_96:\n        /* \"lotto.sol\":2175:2197  uint256 currentEntries */\n      0x00\n        /* \"lotto.sol\":2200:2220  userEntries(account) */\n      tag_224\n        /* \"lotto.sol\":2212:2219  account */\n      dup3\n        /* \"lotto.sol\":2200:2211  userEntries */\n      tag_74\n        /* \"lotto.sol\":2200:2220  userEntries(account) */\n      jump\t// in\n    tag_224:\n        /* \"lotto.sol\":2175:2220  uint256 currentEntries = userEntries(account) */\n      swap1\n      pop\n        /* \"lotto.sol\":2231:2277  removeEntryFromWallet(account, currentEntries) */\n      tag_225\n        /* \"lotto.sol\":2253:2260  account */\n      dup3\n        /* \"lotto.sol\":2262:2276  currentEntries */\n      dup3\n        /* \"lotto.sol\":2231:2252  removeEntryFromWallet */\n      tag_78\n        /* \"lotto.sol\":2231:2277  removeEntryFromWallet(account, currentEntries) */\n      jump\t// in\n    tag_225:\n        /* \"lotto.sol\":2164:2285  {\r... */\n      pop\n        /* \"lotto.sol\":2116:2285  function removeAccount(address account) external{\r... */\n      pop\n      jump\t// out\n        /* \"https://github.com/OpenZeppelin/openzeppelin-contracts/blob/master/contracts/access/Ownable.sol\":1918:2116  function transferOwnership(address newOwner) public virtual onlyOwner {... */\n    tag_99:\n        /* \"https://github.com/OpenZeppelin/openzeppelin-contracts/blob/master/contracts/access/Ownable.sol\":1259:1271  _msgSender() */\n      tag_227\n        /* \"https://github.com/OpenZeppelin/openzeppelin-contracts/blob/master/contracts/access/Ownable.sol\":1259:1269  _msgSender */\n      tag_158\n        /* \"https://github.com/OpenZeppelin/openzeppelin-contracts/blob/master/contracts/access/Ownable.sol\":1259:1271  _msgSender() */\n      jump\t// in\n    tag_227:\n        /* \"https://github.com/OpenZeppelin/openzeppelin-contracts/blob/master/contracts/access/Ownable.sol\":1248:1271  owner() == _msgSender() */\n      0xffffffffffffffffffffffffffffffffffffffff\n      and\n        /* \"https://github.com/OpenZeppelin/openzeppelin-contracts/blob/master/contracts/access/Ownable.sol\":1248:1255  owner() */\n      tag_228\n        /* \"https://github.com/OpenZeppelin/openzeppelin-contracts/blob/master/contracts/access/Ownable.sol\":1248:1253  owner */\n      tag_65\n        /* \"https://github.com/OpenZeppelin/openzeppelin-contracts/blob/master/contracts/access/Ownable.sol\":1248:1255  owner() */\n      jump\t// in\n    tag_228:\n        /* \"https://github.com/OpenZeppelin/openzeppelin-contracts/blob/master/contracts/access/Ownable.sol\":1248:1271  owner() == _msgSender() */\n      0xffffffffffffffffffffffffffffffffffffffff\n      and\n      eq\n        /* \"https://github.com/OpenZeppelin/openzeppelin-contracts/blob/master/contracts/access/Ownable.sol\":1240:1308  require(owner() == _msgSender(), \"Ownable: caller is not the owner\") */\n      tag_229\n      jumpi\n      mload(0x40)\n      0x08c379a000000000000000000000000000000000000000000000000000000000\n      dup2\n      mstore\n      0x04\n      add\n      tag_230\n      swap1\n      tag_162\n      jump\t// in\n    tag_230:\n      mload(0x40)\n      dup1\n      swap2\n      sub\n      swap1\n      revert\n    tag_229:\n        /* \"https://github.com/OpenZeppelin/openzeppelin-contracts/blob/master/contracts/access/Ownable.sol\":2026:2027  0 */\n      0x00\n        /* \"https://github.com/OpenZeppelin/openzeppelin-contracts/blob/master/contracts/access/Ownable.sol\":2006:2028  newOwner != address(0) */\n      0xffffffffffffffffffffffffffffffffffffffff\n      and\n        /* \"https://github.com/OpenZeppelin/openzeppelin-contracts/blob/master/contracts/access/Ownable.sol\":2006:2014  newOwner */\n      dup2\n        /* \"https://github.com/OpenZeppelin/openzeppelin-contracts/blob/master/contracts/access/Ownable.sol\":2006:2028  newOwner != address(0) */\n      0xffffffffffffffffffffffffffffffffffffffff\n      and\n      eq\n      iszero\n        /* \"https://github.com/OpenZeppelin/openzeppelin-contracts/blob/master/contracts/access/Ownable.sol\":1998:2071  require(newOwner != address(0), \"Ownable: new owner is the zero address\") */\n      tag_232\n      jumpi\n      mload(0x40)\n      0x08c379a000000000000000000000000000000000000000000000000000000000\n      dup2\n      mstore\n      0x04\n      add\n      tag_233\n      swap1\n      tag_234\n      jump\t// in\n    tag_233:\n      mload(0x40)\n      dup1\n      swap2\n      sub\n      swap1\n      revert\n    tag_232:\n        /* \"https://github.com/OpenZeppelin/openzeppelin-contracts/blob/master/contracts/access/Ownable.sol\":2081:2109  _transferOwnership(newOwner) */\n      tag_235\n        /* \"https://github.com/OpenZeppelin/openzeppelin-contracts/blob/master/contracts/access/Ownable.sol\":2100:2108  newOwner */\n      dup2\n        /* \"https://github.com/OpenZeppelin/openzeppelin-contracts/blob/master/contracts/access/Ownable.sol\":2081:2099  _transferOwnership */\n      tag_181\n        /* \"https://github.com/OpenZeppelin/openzeppelin-contracts/blob/master/contracts/access/Ownable.sol\":2081:2109  _transferOwnership(newOwner) */\n      jump\t// in\n    tag_235:\n        /* \"https://github.com/OpenZeppelin/openzeppelin-contracts/blob/master/contracts/access/Ownable.sol\":1918:2116  function transferOwnership(address newOwner) public virtual onlyOwner {... */\n      pop\n      jump\t// out\n        /* \"lotto.sol\":3215:3419  function pickWinner(uint256 seed) external view returns(uint256 winnerNum, address winnerAddress) {\r... */\n    tag_102:\n        /* \"lotto.sol\":3271:3288  uint256 winnerNum */\n      0x00\n        /* \"lotto.sol\":3290:3311  address winnerAddress */\n      dup1\n        /* \"lotto.sol\":3351:3363  roundEntries */\n      sload(0x01)\n        /* \"lotto.sol\":3336:3348  random(seed) */\n      tag_237\n        /* \"lotto.sol\":3343:3347  seed */\n      dup5\n        /* \"lotto.sol\":3336:3342  random */\n      tag_238\n        /* \"lotto.sol\":3336:3348  random(seed) */\n      jump\t// in\n    tag_237:\n        /* \"lotto.sol\":3336:3363  random(seed) % roundEntries */\n      tag_239\n      swap2\n      swap1\n      tag_240\n      jump\t// in\n    tag_239:\n        /* \"lotto.sol\":3324:3363  winnerNum = random(seed) % roundEntries */\n      swap2\n      pop\n        /* \"lotto.sol\":3390:3400  roundEntry */\n      0x06\n        /* \"lotto.sol\":3390:3411  roundEntry[winnerNum] */\n      0x00\n        /* \"lotto.sol\":3401:3410  winnerNum */\n      dup4\n        /* \"lotto.sol\":3390:3411  roundEntry[winnerNum] */\n      dup2\n      mstore\n      0x20\n      add\n      swap1\n      dup2\n      mstore\n      0x20\n      add\n      0x00\n      keccak256\n      0x00\n      swap1\n      sload\n      swap1\n      0x0100\n      exp\n      swap1\n      div\n      0xffffffffffffffffffffffffffffffffffffffff\n      and\n        /* \"lotto.sol\":3374:3411  winnerAddress = roundEntry[winnerNum] */\n      swap1\n      pop\n        /* \"lotto.sol\":3215:3419  function pickWinner(uint256 seed) external view returns(uint256 winnerNum, address winnerAddress) {\r... */\n      swap2\n      pop\n      swap2\n      jump\t// out\n        /* \"lotto.sol\":3993:4109  function currentJackpot() public view returns (uint256) {\r... */\n    tag_106:\n        /* \"lotto.sol\":4040:4047  uint256 */\n      0x00\n        /* \"lotto.sol\":4067:4076  acesToken */\n      0x04\n      0x00\n      swap1\n      sload\n      swap1\n      0x0100\n      exp\n      swap1\n      div\n      0xffffffffffffffffffffffffffffffffffffffff\n      and\n        /* \"lotto.sol\":4067:4086  acesToken.balanceOf */\n      0xffffffffffffffffffffffffffffffffffffffff\n      and\n      0x70a08231\n        /* \"lotto.sol\":4095:4099  this */\n      address\n        /* \"lotto.sol\":4067:4101  acesToken.balanceOf(address(this)) */\n      mload(0x40)\n      dup3\n      0xffffffff\n      and\n      0xe0\n      shl\n      dup2\n      mstore\n      0x04\n      add\n      tag_242\n      swap2\n      swap1\n      tag_67\n      jump\t// in\n    tag_242:\n      0x20\n      mload(0x40)\n      dup1\n      dup4\n      sub\n      dup2\n      dup7\n      dup1\n      extcodesize\n      iszero\n      dup1\n      iszero\n      tag_243\n      jumpi\n      0x00\n      dup1\n      revert\n    tag_243:\n      pop\n      gas\n      staticcall\n      iszero\n      dup1\n      iszero\n      tag_245\n      jumpi\n      returndatasize\n      0x00\n      dup1\n      returndatacopy\n      revert(0x00, returndatasize)\n    tag_245:\n      pop\n      pop\n      pop\n      pop\n      mload(0x40)\n      returndatasize\n      not(0x1f)\n      0x1f\n      dup3\n      add\n      and\n      dup3\n      add\n      dup1\n      0x40\n      mstore\n      pop\n      dup2\n      add\n      swap1\n      tag_246\n      swap2\n      swap1\n      tag_247\n      jump\t// in\n    tag_246:\n        /* \"lotto.sol\":4060:4101  return acesToken.balanceOf(address(this)) */\n      swap1\n      pop\n        /* \"lotto.sol\":3993:4109  function currentJackpot() public view returns (uint256) {\r... */\n      swap1\n      jump\t// out\n        /* \"https://github.com/OpenZeppelin/openzeppelin-contracts/blob/master/contracts/utils/Context.sol\":640:736  function _msgSender() internal view virtual returns (address) {... */\n    tag_158:\n        /* \"https://github.com/OpenZeppelin/openzeppelin-contracts/blob/master/contracts/utils/Context.sol\":693:700  address */\n      0x00\n        /* \"https://github.com/OpenZeppelin/openzeppelin-contracts/blob/master/contracts/utils/Context.sol\":719:729  msg.sender */\n      caller\n        /* \"https://github.com/OpenZeppelin/openzeppelin-contracts/blob/master/contracts/utils/Context.sol\":712:729  return msg.sender */\n      swap1\n      pop\n        /* \"https://github.com/OpenZeppelin/openzeppelin-contracts/blob/master/contracts/utils/Context.sol\":640:736  function _msgSender() internal view virtual returns (address) {... */\n      swap1\n      jump\t// out\n        /* \"https://github.com/OpenZeppelin/openzeppelin-contracts/blob/master/contracts/access/Ownable.sol\":2270:2457  function _transferOwnership(address newOwner) internal virtual {... */\n    tag_181:\n        /* \"https://github.com/OpenZeppelin/openzeppelin-contracts/blob/master/contracts/access/Ownable.sol\":2343:2359  address oldOwner */\n      0x00\n        /* \"https://github.com/OpenZeppelin/openzeppelin-contracts/blob/master/contracts/access/Ownable.sol\":2362:2368  _owner */\n      dup1\n      0x00\n      swap1\n      sload\n      swap1\n      0x0100\n      exp\n      swap1\n      div\n      0xffffffffffffffffffffffffffffffffffffffff\n      and\n        /* \"https://github.com/OpenZeppelin/openzeppelin-contracts/blob/master/contracts/access/Ownable.sol\":2343:2368  address oldOwner = _owner */\n      swap1\n      pop\n        /* \"https://github.com/OpenZeppelin/openzeppelin-contracts/blob/master/contracts/access/Ownable.sol\":2387:2395  newOwner */\n      dup2\n        /* \"https://github.com/OpenZeppelin/openzeppelin-contracts/blob/master/contracts/access/Ownable.sol\":2378:2384  _owner */\n      0x00\n      dup1\n        /* \"https://github.com/OpenZeppelin/openzeppelin-contracts/blob/master/contracts/access/Ownable.sol\":2378:2395  _owner = newOwner */\n      0x0100\n      exp\n      dup2\n      sload\n      dup2\n      0xffffffffffffffffffffffffffffffffffffffff\n      mul\n      not\n      and\n      swap1\n      dup4\n      0xffffffffffffffffffffffffffffffffffffffff\n      and\n      mul\n      or\n      swap1\n      sstore\n      pop\n        /* \"https://github.com/OpenZeppelin/openzeppelin-contracts/blob/master/contracts/access/Ownable.sol\":2441:2449  newOwner */\n      dup2\n        /* \"https://github.com/OpenZeppelin/openzeppelin-contracts/blob/master/contracts/access/Ownable.sol\":2410:2450  OwnershipTransferred(oldOwner, newOwner) */\n      0xffffffffffffffffffffffffffffffffffffffff\n      and\n        /* \"https://github.com/OpenZeppelin/openzeppelin-contracts/blob/master/contracts/access/Ownable.sol\":2431:2439  oldOwner */\n      dup2\n        /* \"https://github.com/OpenZeppelin/openzeppelin-contracts/blob/master/contracts/access/Ownable.sol\":2410:2450  OwnershipTransferred(oldOwner, newOwner) */\n      0xffffffffffffffffffffffffffffffffffffffff\n      and\n      0x8be0079c531659141344cd1fd0a4f28419497f9722a3daafe3b4186f6b6457e0\n      mload(0x40)\n      mload(0x40)\n      dup1\n      swap2\n      sub\n      swap1\n      log3\n        /* \"https://github.com/OpenZeppelin/openzeppelin-contracts/blob/master/contracts/access/Ownable.sol\":2333:2457  {... */\n      pop\n        /* \"https://github.com/OpenZeppelin/openzeppelin-contracts/blob/master/contracts/access/Ownable.sol\":2270:2457  function _transferOwnership(address newOwner) internal virtual {... */\n      pop\n      jump\t// out\n        /* \"lotto.sol\":5651:6068  function random(uint256 seed) internal view returns (uint256) {\r... */\n    tag_238:\n        /* \"lotto.sol\":5704:5711  uint256 */\n      0x00\n        /* \"lotto.sol\":5845:5849  seed */\n      dup2\n        /* \"lotto.sol\":5876:5891  block.timestamp */\n      timestamp\n        /* \"lotto.sol\":5918:5927  gasleft() */\n      gas\n        /* \"lotto.sol\":5954:5964  msg.sender */\n      caller\n        /* \"lotto.sol\":5991:6003  roundEntries */\n      sload(0x01)\n        /* \"lotto.sol\":5802:6026  abi.encodePacked(\r... */\n      add(0x20, mload(0x40))\n      tag_251\n      swap6\n      swap5\n      swap4\n      swap3\n      swap2\n      swap1\n      tag_252\n      jump\t// in\n    tag_251:\n      mload(0x40)\n      0x20\n      dup2\n      dup4\n      sub\n      sub\n      dup2\n      mstore\n      swap1\n      0x40\n      mstore\n        /* \"lotto.sol\":5770:6045  keccak256(\r... */\n      dup1\n      mload\n      swap1\n      0x20\n      add\n      keccak256\n        /* \"lotto.sol\":5744:6060  uint256(\r... */\n      0x00\n      shr\n        /* \"lotto.sol\":5724:6060  return\r... */\n      swap1\n      pop\n        /* \"lotto.sol\":5651:6068  function random(uint256 seed) internal view returns (uint256) {\r... */\n      swap2\n      swap1\n      pop\n      jump\t// out\n    tag_214:\n      mload(0x40)\n      dup1\n      0xa0\n      add\n      0x40\n      mstore\n      dup1\n      0x00\n      dup2\n      mstore\n      0x20\n      add\n      0x00\n      dup2\n      mstore\n      0x20\n      add\n      0x00\n      dup2\n      mstore\n      0x20\n      add\n      0x00\n      dup2\n      mstore\n      0x20\n      add\n      and(0xffffffffffffffffffffffffffffffffffffffff, 0x00)\n      dup2\n      mstore\n      pop\n      swap1\n      jump\t// out\n        /* \"#utility.yul\":7:146   */\n    tag_254:\n        /* \"#utility.yul\":53:58   */\n      0x00\n        /* \"#utility.yul\":91:97   */\n      dup2\n        /* \"#utility.yul\":78:98   */\n      calldataload\n        /* \"#utility.yul\":69:98   */\n      swap1\n      pop\n        /* \"#utility.yul\":107:140   */\n      tag_256\n        /* \"#utility.yul\":134:139   */\n      dup2\n        /* \"#utility.yul\":107:140   */\n      tag_257\n      jump\t// in\n    tag_256:\n        /* \"#utility.yul\":7:146   */\n      swap3\n      swap2\n      pop\n      pop\n      jump\t// out\n        /* \"#utility.yul\":152:289   */\n    tag_258:\n        /* \"#utility.yul\":206:211   */\n      0x00\n        /* \"#utility.yul\":237:243   */\n      dup2\n        /* \"#utility.yul\":231:244   */\n      mload\n        /* \"#utility.yul\":222:244   */\n      swap1\n      pop\n        /* \"#utility.yul\":253:283   */\n      tag_260\n        /* \"#utility.yul\":277:282   */\n      dup2\n        /* \"#utility.yul\":253:283   */\n      tag_261\n      jump\t// in\n    tag_260:\n        /* \"#utility.yul\":152:289   */\n      swap3\n      swap2\n      pop\n      pop\n      jump\t// out\n        /* \"#utility.yul\":295:434   */\n    tag_262:\n        /* \"#utility.yul\":341:346   */\n      0x00\n        /* \"#utility.yul\":379:385   */\n      dup2\n        /* \"#utility.yul\":366:386   */\n      calldataload\n        /* \"#utility.yul\":357:386   */\n      swap1\n      pop\n        /* \"#utility.yul\":395:428   */\n      tag_264\n        /* \"#utility.yul\":422:427   */\n      dup2\n        /* \"#utility.yul\":395:428   */\n      tag_265\n      jump\t// in\n    tag_264:\n        /* \"#utility.yul\":295:434   */\n      swap3\n      swap2\n      pop\n      pop\n      jump\t// out\n        /* \"#utility.yul\":440:583   */\n    tag_266:\n        /* \"#utility.yul\":497:502   */\n      0x00\n        /* \"#utility.yul\":528:534   */\n      dup2\n        /* \"#utility.yul\":522:535   */\n      mload\n        /* \"#utility.yul\":513:535   */\n      swap1\n      pop\n        /* \"#utility.yul\":544:577   */\n      tag_268\n        /* \"#utility.yul\":571:576   */\n      dup2\n        /* \"#utility.yul\":544:577   */\n      tag_265\n      jump\t// in\n    tag_268:\n        /* \"#utility.yul\":440:583   */\n      swap3\n      swap2\n      pop\n      pop\n      jump\t// out\n        /* \"#utility.yul\":589:918   */\n    tag_51:\n        /* \"#utility.yul\":648:654   */\n      0x00\n        /* \"#utility.yul\":697:699   */\n      0x20\n        /* \"#utility.yul\":685:694   */\n      dup3\n        /* \"#utility.yul\":676:683   */\n      dup5\n        /* \"#utility.yul\":672:695   */\n      sub\n        /* \"#utility.yul\":668:700   */\n      slt\n        /* \"#utility.yul\":665:784   */\n      iszero\n      tag_270\n      jumpi\n        /* \"#utility.yul\":703:782   */\n      tag_271\n      tag_272\n      jump\t// in\n    tag_271:\n        /* \"#utility.yul\":665:784   */\n    tag_270:\n        /* \"#utility.yul\":823:824   */\n      0x00\n        /* \"#utility.yul\":848:901   */\n      tag_273\n        /* \"#utility.yul\":893:900   */\n      dup5\n        /* \"#utility.yul\":884:890   */\n      dup3\n        /* \"#utility.yul\":873:882   */\n      dup6\n        /* \"#utility.yul\":869:891   */\n      add\n        /* \"#utility.yul\":848:901   */\n      tag_254\n      jump\t// in\n    tag_273:\n        /* \"#utility.yul\":838:901   */\n      swap2\n      pop\n        /* \"#utility.yul\":794:911   */\n      pop\n        /* \"#utility.yul\":589:918   */\n      swap3\n      swap2\n      pop\n      pop\n      jump\t// out\n        /* \"#utility.yul\":924:1398   */\n    tag_29:\n        /* \"#utility.yul\":992:998   */\n      0x00\n        /* \"#utility.yul\":1000:1006   */\n      dup1\n        /* \"#utility.yul\":1049:1051   */\n      0x40\n        /* \"#utility.yul\":1037:1046   */\n      dup4\n        /* \"#utility.yul\":1028:1035   */\n      dup6\n        /* \"#utility.yul\":1024:1047   */\n      sub\n        /* \"#utility.yul\":1020:1052   */\n      slt\n        /* \"#utility.yul\":1017:1136   */\n      iszero\n      tag_275\n      jumpi\n        /* \"#utility.yul\":1055:1134   */\n      tag_276\n      tag_272\n      jump\t// in\n    tag_276:\n        /* \"#utility.yul\":1017:1136   */\n    tag_275:\n        /* \"#utility.yul\":1175:1176   */\n      0x00\n        /* \"#utility.yul\":1200:1253   */\n      tag_277\n        /* \"#utility.yul\":1245:1252   */\n      dup6\n        /* \"#utility.yul\":1236:1242   */\n      dup3\n        /* \"#utility.yul\":1225:1234   */\n      dup7\n        /* \"#utility.yul\":1221:1243   */\n      add\n        /* \"#utility.yul\":1200:1253   */\n      tag_254\n      jump\t// in\n    tag_277:\n        /* \"#utility.yul\":1190:1253   */\n      swap3\n      pop\n        /* \"#utility.yul\":1146:1263   */\n      pop\n        /* \"#utility.yul\":1302:1304   */\n      0x20\n        /* \"#utility.yul\":1328:1381   */\n      tag_278\n        /* \"#utility.yul\":1373:1380   */\n      dup6\n        /* \"#utility.yul\":1364:1370   */\n      dup3\n        /* \"#utility.yul\":1353:1362   */\n      dup7\n        /* \"#utility.yul\":1349:1371   */\n      add\n        /* \"#utility.yul\":1328:1381   */\n      tag_262\n      jump\t// in\n    tag_278:\n        /* \"#utility.yul\":1318:1381   */\n      swap2\n      pop\n        /* \"#utility.yul\":1273:1391   */\n      pop\n        /* \"#utility.yul\":924:1398   */\n      swap3\n      pop\n      swap3\n      swap1\n      pop\n      jump\t// out\n        /* \"#utility.yul\":1404:1749   */\n    tag_172:\n        /* \"#utility.yul\":1471:1477   */\n      0x00\n        /* \"#utility.yul\":1520:1522   */\n      0x20\n        /* \"#utility.yul\":1508:1517   */\n      dup3\n        /* \"#utility.yul\":1499:1506   */\n      dup5\n        /* \"#utility.yul\":1495:1518   */\n      sub\n        /* \"#utility.yul\":1491:1523   */\n      slt\n        /* \"#utility.yul\":1488:1607   */\n      iszero\n      tag_280\n      jumpi\n        /* \"#utility.yul\":1526:1605   */\n      tag_281\n      tag_272\n      jump\t// in\n    tag_281:\n        /* \"#utility.yul\":1488:1607   */\n    tag_280:\n        /* \"#utility.yul\":1646:1647   */\n      0x00\n        /* \"#utility.yul\":1671:1732   */\n      tag_282\n        /* \"#utility.yul\":1724:1731   */\n      dup5\n        /* \"#utility.yul\":1715:1721   */\n      dup3\n        /* \"#utility.yul\":1704:1713   */\n      dup6\n        /* \"#utility.yul\":1700:1722   */\n      add\n        /* \"#utility.yul\":1671:1732   */\n      tag_258\n      jump\t// in\n    tag_282:\n        /* \"#utility.yul\":1661:1732   */\n      swap2\n      pop\n        /* \"#utility.yul\":1617:1742   */\n      pop\n        /* \"#utility.yul\":1404:1749   */\n      swap3\n      swap2\n      pop\n      pop\n      jump\t// out\n        /* \"#utility.yul\":1755:2084   */\n    tag_81:\n        /* \"#utility.yul\":1814:1820   */\n      0x00\n        /* \"#utility.yul\":1863:1865   */\n      0x20\n        /* \"#utility.yul\":1851:1860   */\n      dup3\n        /* \"#utility.yul\":1842:1849   */\n      dup5\n        /* \"#utility.yul\":1838:1861   */\n      sub\n        /* \"#utility.yul\":1834:1866   */\n      slt\n        /* \"#utility.yul\":1831:1950   */\n      iszero\n      tag_284\n      jumpi\n        /* \"#utility.yul\":1869:1948   */\n      tag_285\n      tag_272\n      jump\t// in\n    tag_285:\n        /* \"#utility.yul\":1831:1950   */\n    tag_284:\n        /* \"#utility.yul\":1989:1990   */\n      0x00\n        /* \"#utility.yul\":2014:2067   */\n      tag_286\n        /* \"#utility.yul\":2059:2066   */\n      dup5\n        /* \"#utility.yul\":2050:2056   */\n      dup3\n        /* \"#utility.yul\":2039:2048   */\n      dup6\n        /* \"#utility.yul\":2035:2057   */\n      add\n        /* \"#utility.yul\":2014:2067   */\n      tag_262\n      jump\t// in\n    tag_286:\n        /* \"#utility.yul\":2004:2067   */\n      swap2\n      pop\n        /* \"#utility.yul\":1960:2077   */\n      pop\n        /* \"#utility.yul\":1755:2084   */\n      swap3\n      swap2\n      pop\n      pop\n      jump\t// out\n        /* \"#utility.yul\":2090:2441   */\n    tag_247:\n        /* \"#utility.yul\":2160:2166   */\n      0x00\n        /* \"#utility.yul\":2209:2211   */\n      0x20\n        /* \"#utility.yul\":2197:2206   */\n      dup3\n        /* \"#utility.yul\":2188:2195   */\n      dup5\n        /* \"#utility.yul\":2184:2207   */\n      sub\n        /* \"#utility.yul\":2180:2212   */\n      slt\n        /* \"#utility.yul\":2177:2296   */\n      iszero\n      tag_288\n      jumpi\n        /* \"#utility.yul\":2215:2294   */\n      tag_289\n      tag_272\n      jump\t// in\n    tag_289:\n        /* \"#utility.yul\":2177:2296   */\n    tag_288:\n        /* \"#utility.yul\":2335:2336   */\n      0x00\n        /* \"#utility.yul\":2360:2424   */\n      tag_290\n        /* \"#utility.yul\":2416:2423   */\n      dup5\n        /* \"#utility.yul\":2407:2413   */\n      dup3\n        /* \"#utility.yul\":2396:2405   */\n      dup6\n        /* \"#utility.yul\":2392:2414   */\n      add\n        /* \"#utility.yul\":2360:2424   */\n      tag_266\n      jump\t// in\n    tag_290:\n        /* \"#utility.yul\":2350:2424   */\n      swap2\n      pop\n        /* \"#utility.yul\":2306:2434   */\n      pop\n        /* \"#utility.yul\":2090:2441   */\n      swap3\n      swap2\n      pop\n      pop\n      jump\t// out\n        /* \"#utility.yul\":2447:2921   */\n    tag_57:\n        /* \"#utility.yul\":2515:2521   */\n      0x00\n        /* \"#utility.yul\":2523:2529   */\n      dup1\n        /* \"#utility.yul\":2572:2574   */\n      0x40\n        /* \"#utility.yul\":2560:2569   */\n      dup4\n        /* \"#utility.yul\":2551:2558   */\n      dup6\n        /* \"#utility.yul\":2547:2570   */\n      sub\n        /* \"#utility.yul\":2543:2575   */\n      slt\n        /* \"#utility.yul\":2540:2659   */\n      iszero\n      tag_292\n      jumpi\n        /* \"#utility.yul\":2578:2657   */\n      tag_293\n      tag_272\n      jump\t// in\n    tag_293:\n        /* \"#utility.yul\":2540:2659   */\n    tag_292:\n        /* \"#utility.yul\":2698:2699   */\n      0x00\n        /* \"#utility.yul\":2723:2776   */\n      tag_294\n        /* \"#utility.yul\":2768:2775   */\n      dup6\n        /* \"#utility.yul\":2759:2765   */\n      dup3\n        /* \"#utility.yul\":2748:2757   */\n      dup7\n        /* \"#utility.yul\":2744:2766   */\n      add\n        /* \"#utility.yul\":2723:2776   */\n      tag_262\n      jump\t// in\n    tag_294:\n        /* \"#utility.yul\":2713:2776   */\n      swap3\n      pop\n        /* \"#utility.yul\":2669:2786   */\n      pop\n        /* \"#utility.yul\":2825:2827   */\n      0x20\n        /* \"#utility.yul\":2851:2904   */\n      tag_295\n        /* \"#utility.yul\":2896:2903   */\n      dup6\n        /* \"#utility.yul\":2887:2893   */\n      dup3\n        /* \"#utility.yul\":2876:2885   */\n      dup7\n        /* \"#utility.yul\":2872:2894   */\n      add\n        /* \"#utility.yul\":2851:2904   */\n      tag_262\n      jump\t// in\n    tag_295:\n        /* \"#utility.yul\":2841:2904   */\n      swap2\n      pop\n        /* \"#utility.yul\":2796:2914   */\n      pop\n        /* \"#utility.yul\":2447:2921   */\n      swap3\n      pop\n      swap3\n      swap1\n      pop\n      jump\t// out\n        /* \"#utility.yul\":2927:3106   */\n    tag_296:\n        /* \"#utility.yul\":2996:3006   */\n      0x00\n        /* \"#utility.yul\":3017:3063   */\n      tag_298\n        /* \"#utility.yul\":3059:3062   */\n      dup4\n        /* \"#utility.yul\":3051:3057   */\n      dup4\n        /* \"#utility.yul\":3017:3063   */\n      tag_299\n      jump\t// in\n    tag_298:\n        /* \"#utility.yul\":3095:3099   */\n      0x20\n        /* \"#utility.yul\":3090:3093   */\n      dup4\n        /* \"#utility.yul\":3086:3100   */\n      add\n        /* \"#utility.yul\":3072:3100   */\n      swap1\n      pop\n        /* \"#utility.yul\":2927:3106   */\n      swap3\n      swap2\n      pop\n      pop\n      jump\t// out\n        /* \"#utility.yul\":3112:3387   */\n    tag_300:\n        /* \"#utility.yul\":3229:3239   */\n      0x00\n        /* \"#utility.yul\":3250:3344   */\n      tag_302\n        /* \"#utility.yul\":3340:3343   */\n      dup4\n        /* \"#utility.yul\":3332:3338   */\n      dup4\n        /* \"#utility.yul\":3250:3344   */\n      tag_303\n      jump\t// in\n    tag_302:\n        /* \"#utility.yul\":3376:3380   */\n      0xa0\n        /* \"#utility.yul\":3371:3374   */\n      dup4\n        /* \"#utility.yul\":3367:3381   */\n      add\n        /* \"#utility.yul\":3353:3381   */\n      swap1\n      pop\n        /* \"#utility.yul\":3112:3387   */\n      swap3\n      swap2\n      pop\n      pop\n      jump\t// out\n        /* \"#utility.yul\":3393:3572   */\n    tag_304:\n        /* \"#utility.yul\":3462:3472   */\n      0x00\n        /* \"#utility.yul\":3483:3529   */\n      tag_306\n        /* \"#utility.yul\":3525:3528   */\n      dup4\n        /* \"#utility.yul\":3517:3523   */\n      dup4\n        /* \"#utility.yul\":3483:3529   */\n      tag_307\n      jump\t// in\n    tag_306:\n        /* \"#utility.yul\":3561:3565   */\n      0x20\n        /* \"#utility.yul\":3556:3559   */\n      dup4\n        /* \"#utility.yul\":3552:3566   */\n      add\n        /* \"#utility.yul\":3538:3566   */\n      swap1\n      pop\n        /* \"#utility.yul\":3393:3572   */\n      swap3\n      swap2\n      pop\n      pop\n      jump\t// out\n        /* \"#utility.yul\":3578:3686   */\n    tag_299:\n        /* \"#utility.yul\":3655:3679   */\n      tag_309\n        /* \"#utility.yul\":3673:3678   */\n      dup2\n        /* \"#utility.yul\":3655:3679   */\n      tag_310\n      jump\t// in\n    tag_309:\n        /* \"#utility.yul\":3650:3653   */\n      dup3\n        /* \"#utility.yul\":3643:3680   */\n      mstore\n        /* \"#utility.yul\":3578:3686   */\n      pop\n      pop\n      jump\t// out\n        /* \"#utility.yul\":3692:3810   */\n    tag_311:\n        /* \"#utility.yul\":3779:3803   */\n      tag_313\n        /* \"#utility.yul\":3797:3802   */\n      dup2\n        /* \"#utility.yul\":3779:3803   */\n      tag_310\n      jump\t// in\n    tag_313:\n        /* \"#utility.yul\":3774:3777   */\n      dup3\n        /* \"#utility.yul\":3767:3804   */\n      mstore\n        /* \"#utility.yul\":3692:3810   */\n      pop\n      pop\n      jump\t// out\n        /* \"#utility.yul\":3816:3973   */\n    tag_314:\n        /* \"#utility.yul\":3921:3966   */\n      tag_316\n        /* \"#utility.yul\":3941:3965   */\n      tag_317\n        /* \"#utility.yul\":3959:3964   */\n      dup3\n        /* \"#utility.yul\":3941:3965   */\n      tag_310\n      jump\t// in\n    tag_317:\n        /* \"#utility.yul\":3921:3966   */\n      tag_318\n      jump\t// in\n    tag_316:\n        /* \"#utility.yul\":3916:3919   */\n      dup3\n        /* \"#utility.yul\":3909:3967   */\n      mstore\n        /* \"#utility.yul\":3816:3973   */\n      pop\n      pop\n      jump\t// out\n        /* \"#utility.yul\":4009:4741   */\n    tag_319:\n        /* \"#utility.yul\":4128:4131   */\n      0x00\n        /* \"#utility.yul\":4157:4211   */\n      tag_321\n        /* \"#utility.yul\":4205:4210   */\n      dup3\n        /* \"#utility.yul\":4157:4211   */\n      tag_322\n      jump\t// in\n    tag_321:\n        /* \"#utility.yul\":4227:4313   */\n      tag_323\n        /* \"#utility.yul\":4306:4312   */\n      dup2\n        /* \"#utility.yul\":4301:4304   */\n      dup6\n        /* \"#utility.yul\":4227:4313   */\n      tag_324\n      jump\t// in\n    tag_323:\n        /* \"#utility.yul\":4220:4313   */\n      swap4\n      pop\n        /* \"#utility.yul\":4337:4393   */\n      tag_325\n        /* \"#utility.yul\":4387:4392   */\n      dup4\n        /* \"#utility.yul\":4337:4393   */\n      tag_326\n      jump\t// in\n    tag_325:\n        /* \"#utility.yul\":4416:4423   */\n      dup1\n        /* \"#utility.yul\":4447:4448   */\n      0x00\n        /* \"#utility.yul\":4432:4716   */\n    tag_327:\n        /* \"#utility.yul\":4457:4463   */\n      dup4\n        /* \"#utility.yul\":4454:4455   */\n      dup2\n        /* \"#utility.yul\":4451:4464   */\n      lt\n        /* \"#utility.yul\":4432:4716   */\n      iszero\n      tag_329\n      jumpi\n        /* \"#utility.yul\":4533:4539   */\n      dup2\n        /* \"#utility.yul\":4527:4540   */\n      mload\n        /* \"#utility.yul\":4560:4623   */\n      tag_330\n        /* \"#utility.yul\":4619:4622   */\n      dup9\n        /* \"#utility.yul\":4604:4617   */\n      dup3\n        /* \"#utility.yul\":4560:4623   */\n      tag_296\n      jump\t// in\n    tag_330:\n        /* \"#utility.yul\":4553:4623   */\n      swap8\n      pop\n        /* \"#utility.yul\":4646:4706   */\n      tag_331\n        /* \"#utility.yul\":4699:4705   */\n      dup4\n        /* \"#utility.yul\":4646:4706   */\n      tag_332\n      jump\t// in\n    tag_331:\n        /* \"#utility.yul\":4636:4706   */\n      swap3\n      pop\n        /* \"#utility.yul\":4492:4716   */\n      pop\n        /* \"#utility.yul\":4479:4480   */\n      0x01\n        /* \"#utility.yul\":4476:4477   */\n      dup2\n        /* \"#utility.yul\":4472:4481   */\n      add\n        /* \"#utility.yul\":4467:4481   */\n      swap1\n      pop\n        /* \"#utility.yul\":4432:4716   */\n      jump(tag_327)\n    tag_329:\n        /* \"#utility.yul\":4436:4450   */\n      pop\n        /* \"#utility.yul\":4732:4735   */\n      dup6\n        /* \"#utility.yul\":4725:4735   */\n      swap4\n      pop\n        /* \"#utility.yul\":4133:4741   */\n      pop\n      pop\n      pop\n        /* \"#utility.yul\":4009:4741   */\n      swap3\n      swap2\n      pop\n      pop\n      jump\t// out\n        /* \"#utility.yul\":4809:5733   */\n    tag_333:\n        /* \"#utility.yul\":4976:4979   */\n      0x00\n        /* \"#utility.yul\":5005:5083   */\n      tag_335\n        /* \"#utility.yul\":5077:5082   */\n      dup3\n        /* \"#utility.yul\":5005:5083   */\n      tag_336\n      jump\t// in\n    tag_335:\n        /* \"#utility.yul\":5099:5209   */\n      tag_337\n        /* \"#utility.yul\":5202:5208   */\n      dup2\n        /* \"#utility.yul\":5197:5200   */\n      dup6\n        /* \"#utility.yul\":5099:5209   */\n      tag_338\n      jump\t// in\n    tag_337:\n        /* \"#utility.yul\":5092:5209   */\n      swap4\n      pop\n        /* \"#utility.yul\":5233:5313   */\n      tag_339\n        /* \"#utility.yul\":5307:5312   */\n      dup4\n        /* \"#utility.yul\":5233:5313   */\n      tag_340\n      jump\t// in\n    tag_339:\n        /* \"#utility.yul\":5336:5343   */\n      dup1\n        /* \"#utility.yul\":5367:5368   */\n      0x00\n        /* \"#utility.yul\":5352:5708   */\n    tag_341:\n        /* \"#utility.yul\":5377:5383   */\n      dup4\n        /* \"#utility.yul\":5374:5375   */\n      dup2\n        /* \"#utility.yul\":5371:5384   */\n      lt\n        /* \"#utility.yul\":5352:5708   */\n      iszero\n      tag_343\n      jumpi\n        /* \"#utility.yul\":5453:5459   */\n      dup2\n        /* \"#utility.yul\":5447:5460   */\n      mload\n        /* \"#utility.yul\":5480:5591   */\n      tag_344\n        /* \"#utility.yul\":5587:5590   */\n      dup9\n        /* \"#utility.yul\":5572:5585   */\n      dup3\n        /* \"#utility.yul\":5480:5591   */\n      tag_300\n      jump\t// in\n    tag_344:\n        /* \"#utility.yul\":5473:5591   */\n      swap8\n      pop\n        /* \"#utility.yul\":5614:5698   */\n      tag_345\n        /* \"#utility.yul\":5691:5697   */\n      dup4\n        /* \"#utility.yul\":5614:5698   */\n      tag_346\n      jump\t// in\n    tag_345:\n        /* \"#utility.yul\":5604:5698   */\n      swap3\n      pop\n        /* \"#utility.yul\":5412:5708   */\n      pop\n        /* \"#utility.yul\":5399:5400   */\n      0x01\n        /* \"#utility.yul\":5396:5397   */\n      dup2\n        /* \"#utility.yul\":5392:5401   */\n      add\n        /* \"#utility.yul\":5387:5401   */\n      swap1\n      pop\n        /* \"#utility.yul\":5352:5708   */\n      jump(tag_341)\n    tag_343:\n        /* \"#utility.yul\":5356:5370   */\n      pop\n        /* \"#utility.yul\":5724:5727   */\n      dup6\n        /* \"#utility.yul\":5717:5727   */\n      swap4\n      pop\n        /* \"#utility.yul\":4981:5733   */\n      pop\n      pop\n      pop\n        /* \"#utility.yul\":4809:5733   */\n      swap3\n      swap2\n      pop\n      pop\n      jump\t// out\n        /* \"#utility.yul\":5769:6501   */\n    tag_347:\n        /* \"#utility.yul\":5888:5891   */\n      0x00\n        /* \"#utility.yul\":5917:5971   */\n      tag_349\n        /* \"#utility.yul\":5965:5970   */\n      dup3\n        /* \"#utility.yul\":5917:5971   */\n      tag_350\n      jump\t// in\n    tag_349:\n        /* \"#utility.yul\":5987:6073   */\n      tag_351\n        /* \"#utility.yul\":6066:6072   */\n      dup2\n        /* \"#utility.yul\":6061:6064   */\n      dup6\n        /* \"#utility.yul\":5987:6073   */\n      tag_352\n      jump\t// in\n    tag_351:\n        /* \"#utility.yul\":5980:6073   */\n      swap4\n      pop\n        /* \"#utility.yul\":6097:6153   */\n      tag_353\n        /* \"#utility.yul\":6147:6152   */\n      dup4\n        /* \"#utility.yul\":6097:6153   */\n      tag_354\n      jump\t// in\n    tag_353:\n        /* \"#utility.yul\":6176:6183   */\n      dup1\n        /* \"#utility.yul\":6207:6208   */\n      0x00\n        /* \"#utility.yul\":6192:6476   */\n    tag_355:\n        /* \"#utility.yul\":6217:6223   */\n      dup4\n        /* \"#utility.yul\":6214:6215   */\n      dup2\n        /* \"#utility.yul\":6211:6224   */\n      lt\n        /* \"#utility.yul\":6192:6476   */\n      iszero\n      tag_357\n      jumpi\n        /* \"#utility.yul\":6293:6299   */\n      dup2\n        /* \"#utility.yul\":6287:6300   */\n      mload\n        /* \"#utility.yul\":6320:6383   */\n      tag_358\n        /* \"#utility.yul\":6379:6382   */\n      dup9\n        /* \"#utility.yul\":6364:6377   */\n      dup3\n        /* \"#utility.yul\":6320:6383   */\n      tag_304\n      jump\t// in\n    tag_358:\n        /* \"#utility.yul\":6313:6383   */\n      swap8\n      pop\n        /* \"#utility.yul\":6406:6466   */\n      tag_359\n        /* \"#utility.yul\":6459:6465   */\n      dup4\n        /* \"#utility.yul\":6406:6466   */\n      tag_360\n      jump\t// in\n    tag_359:\n        /* \"#utility.yul\":6396:6466   */\n      swap3\n      pop\n        /* \"#utility.yul\":6252:6476   */\n      pop\n        /* \"#utility.yul\":6239:6240   */\n      0x01\n        /* \"#utility.yul\":6236:6237   */\n      dup2\n        /* \"#utility.yul\":6232:6241   */\n      add\n        /* \"#utility.yul\":6227:6241   */\n      swap1\n      pop\n        /* \"#utility.yul\":6192:6476   */\n      jump(tag_355)\n    tag_357:\n        /* \"#utility.yul\":6196:6210   */\n      pop\n        /* \"#utility.yul\":6492:6495   */\n      dup6\n        /* \"#utility.yul\":6485:6495   */\n      swap4\n      pop\n        /* \"#utility.yul\":5893:6501   */\n      pop\n      pop\n      pop\n        /* \"#utility.yul\":5769:6501   */\n      swap3\n      swap2\n      pop\n      pop\n      jump\t// out\n        /* \"#utility.yul\":6507:6616   */\n    tag_361:\n        /* \"#utility.yul\":6588:6609   */\n      tag_363\n        /* \"#utility.yul\":6603:6608   */\n      dup2\n        /* \"#utility.yul\":6588:6609   */\n      tag_364\n      jump\t// in\n    tag_363:\n        /* \"#utility.yul\":6583:6586   */\n      dup3\n        /* \"#utility.yul\":6576:6610   */\n      mstore\n        /* \"#utility.yul\":6507:6616   */\n      pop\n      pop\n      jump\t// out\n        /* \"#utility.yul\":6622:6781   */\n    tag_365:\n        /* \"#utility.yul\":6723:6774   */\n      tag_367\n        /* \"#utility.yul\":6768:6773   */\n      dup2\n        /* \"#utility.yul\":6723:6774   */\n      tag_368\n      jump\t// in\n    tag_367:\n        /* \"#utility.yul\":6718:6721   */\n      dup3\n        /* \"#utility.yul\":6711:6775   */\n      mstore\n        /* \"#utility.yul\":6622:6781   */\n      pop\n      pop\n      jump\t// out\n        /* \"#utility.yul\":6787:7153   */\n    tag_369:\n        /* \"#utility.yul\":6929:6932   */\n      0x00\n        /* \"#utility.yul\":6950:7017   */\n      tag_371\n        /* \"#utility.yul\":7014:7016   */\n      0x26\n        /* \"#utility.yul\":7009:7012   */\n      dup4\n        /* \"#utility.yul\":6950:7017   */\n      tag_372\n      jump\t// in\n    tag_371:\n        /* \"#utility.yul\":6943:7017   */\n      swap2\n      pop\n        /* \"#utility.yul\":7026:7119   */\n      tag_373\n        /* \"#utility.yul\":7115:7118   */\n      dup3\n        /* \"#utility.yul\":7026:7119   */\n      tag_374\n      jump\t// in\n    tag_373:\n        /* \"#utility.yul\":7144:7146   */\n      0x40\n        /* \"#utility.yul\":7139:7142   */\n      dup3\n        /* \"#utility.yul\":7135:7147   */\n      add\n        /* \"#utility.yul\":7128:7147   */\n      swap1\n      pop\n        /* \"#utility.yul\":6787:7153   */\n      swap2\n      swap1\n      pop\n      jump\t// out\n        /* \"#utility.yul\":7159:7525   */\n    tag_375:\n        /* \"#utility.yul\":7301:7304   */\n      0x00\n        /* \"#utility.yul\":7322:7389   */\n      tag_377\n        /* \"#utility.yul\":7386:7388   */\n      0x20\n        /* \"#utility.yul\":7381:7384   */\n      dup4\n        /* \"#utility.yul\":7322:7389   */\n      tag_372\n      jump\t// in\n    tag_377:\n        /* \"#utility.yul\":7315:7389   */\n      swap2\n      pop\n        /* \"#utility.yul\":7398:7491   */\n      tag_378\n        /* \"#utility.yul\":7487:7490   */\n      dup3\n        /* \"#utility.yul\":7398:7491   */\n      tag_379\n      jump\t// in\n    tag_378:\n        /* \"#utility.yul\":7516:7518   */\n      0x20\n        /* \"#utility.yul\":7511:7514   */\n      dup3\n        /* \"#utility.yul\":7507:7519   */\n      add\n        /* \"#utility.yul\":7500:7519   */\n      swap1\n      pop\n        /* \"#utility.yul\":7159:7525   */\n      swap2\n      swap1\n      pop\n      jump\t// out\n        /* \"#utility.yul\":7589:8638   */\n    tag_303:\n        /* \"#utility.yul\":7724:7728   */\n      0xa0\n        /* \"#utility.yul\":7719:7722   */\n      dup3\n        /* \"#utility.yul\":7715:7729   */\n      add\n        /* \"#utility.yul\":7819:7823   */\n      0x00\n        /* \"#utility.yul\":7812:7817   */\n      dup3\n        /* \"#utility.yul\":7808:7824   */\n      add\n        /* \"#utility.yul\":7802:7825   */\n      mload\n        /* \"#utility.yul\":7838:7901   */\n      tag_381\n        /* \"#utility.yul\":7895:7899   */\n      0x00\n        /* \"#utility.yul\":7890:7893   */\n      dup6\n        /* \"#utility.yul\":7886:7900   */\n      add\n        /* \"#utility.yul\":7872:7884   */\n      dup3\n        /* \"#utility.yul\":7838:7901   */\n      tag_307\n      jump\t// in\n    tag_381:\n        /* \"#utility.yul\":7739:7911   */\n      pop\n        /* \"#utility.yul\":8002:8006   */\n      0x20\n        /* \"#utility.yul\":7995:8000   */\n      dup3\n        /* \"#utility.yul\":7991:8007   */\n      add\n        /* \"#utility.yul\":7985:8008   */\n      mload\n        /* \"#utility.yul\":8021:8084   */\n      tag_382\n        /* \"#utility.yul\":8078:8082   */\n      0x20\n        /* \"#utility.yul\":8073:8076   */\n      dup6\n        /* \"#utility.yul\":8069:8083   */\n      add\n        /* \"#utility.yul\":8055:8067   */\n      dup3\n        /* \"#utility.yul\":8021:8084   */\n      tag_307\n      jump\t// in\n    tag_382:\n        /* \"#utility.yul\":7921:8094   */\n      pop\n        /* \"#utility.yul\":8178:8182   */\n      0x40\n        /* \"#utility.yul\":8171:8176   */\n      dup3\n        /* \"#utility.yul\":8167:8183   */\n      add\n        /* \"#utility.yul\":8161:8184   */\n      mload\n        /* \"#utility.yul\":8197:8260   */\n      tag_383\n        /* \"#utility.yul\":8254:8258   */\n      0x40\n        /* \"#utility.yul\":8249:8252   */\n      dup6\n        /* \"#utility.yul\":8245:8259   */\n      add\n        /* \"#utility.yul\":8231:8243   */\n      dup3\n        /* \"#utility.yul\":8197:8260   */\n      tag_307\n      jump\t// in\n    tag_383:\n        /* \"#utility.yul\":8104:8270   */\n      pop\n        /* \"#utility.yul\":8355:8359   */\n      0x60\n        /* \"#utility.yul\":8348:8353   */\n      dup3\n        /* \"#utility.yul\":8344:8360   */\n      add\n        /* \"#utility.yul\":8338:8361   */\n      mload\n        /* \"#utility.yul\":8374:8437   */\n      tag_384\n        /* \"#utility.yul\":8431:8435   */\n      0x60\n        /* \"#utility.yul\":8426:8429   */\n      dup6\n        /* \"#utility.yul\":8422:8436   */\n      add\n        /* \"#utility.yul\":8408:8420   */\n      dup3\n        /* \"#utility.yul\":8374:8437   */\n      tag_307\n      jump\t// in\n    tag_384:\n        /* \"#utility.yul\":8280:8447   */\n      pop\n        /* \"#utility.yul\":8539:8543   */\n      0x80\n        /* \"#utility.yul\":8532:8537   */\n      dup3\n        /* \"#utility.yul\":8528:8544   */\n      add\n        /* \"#utility.yul\":8522:8545   */\n      mload\n        /* \"#utility.yul\":8558:8621   */\n      tag_385\n        /* \"#utility.yul\":8615:8619   */\n      0x80\n        /* \"#utility.yul\":8610:8613   */\n      dup6\n        /* \"#utility.yul\":8606:8620   */\n      add\n        /* \"#utility.yul\":8592:8604   */\n      dup3\n        /* \"#utility.yul\":8558:8621   */\n      tag_299\n      jump\t// in\n    tag_385:\n        /* \"#utility.yul\":8457:8631   */\n      pop\n        /* \"#utility.yul\":7693:8638   */\n      pop\n        /* \"#utility.yul\":7589:8638   */\n      pop\n      pop\n      jump\t// out\n        /* \"#utility.yul\":8644:8752   */\n    tag_307:\n        /* \"#utility.yul\":8721:8745   */\n      tag_387\n        /* \"#utility.yul\":8739:8744   */\n      dup2\n        /* \"#utility.yul\":8721:8745   */\n      tag_388\n      jump\t// in\n    tag_387:\n        /* \"#utility.yul\":8716:8719   */\n      dup3\n        /* \"#utility.yul\":8709:8746   */\n      mstore\n        /* \"#utility.yul\":8644:8752   */\n      pop\n      pop\n      jump\t// out\n        /* \"#utility.yul\":8758:8876   */\n    tag_389:\n        /* \"#utility.yul\":8845:8869   */\n      tag_391\n        /* \"#utility.yul\":8863:8868   */\n      dup2\n        /* \"#utility.yul\":8845:8869   */\n      tag_388\n      jump\t// in\n    tag_391:\n        /* \"#utility.yul\":8840:8843   */\n      dup3\n        /* \"#utility.yul\":8833:8870   */\n      mstore\n        /* \"#utility.yul\":8758:8876   */\n      pop\n      pop\n      jump\t// out\n        /* \"#utility.yul\":8882:9039   */\n    tag_392:\n        /* \"#utility.yul\":8987:9032   */\n      tag_394\n        /* \"#utility.yul\":9007:9031   */\n      tag_395\n        /* \"#utility.yul\":9025:9030   */\n      dup3\n        /* \"#utility.yul\":9007:9031   */\n      tag_388\n      jump\t// in\n    tag_395:\n        /* \"#utility.yul\":8987:9032   */\n      tag_396\n      jump\t// in\n    tag_394:\n        /* \"#utility.yul\":8982:8985   */\n      dup3\n        /* \"#utility.yul\":8975:9033   */\n      mstore\n        /* \"#utility.yul\":8882:9039   */\n      pop\n      pop\n      jump\t// out\n        /* \"#utility.yul\":9045:9865   */\n    tag_252:\n        /* \"#utility.yul\":9269:9272   */\n      0x00\n        /* \"#utility.yul\":9284:9359   */\n      tag_398\n        /* \"#utility.yul\":9355:9358   */\n      dup3\n        /* \"#utility.yul\":9346:9352   */\n      dup9\n        /* \"#utility.yul\":9284:9359   */\n      tag_392\n      jump\t// in\n    tag_398:\n        /* \"#utility.yul\":9384:9386   */\n      0x20\n        /* \"#utility.yul\":9379:9382   */\n      dup3\n        /* \"#utility.yul\":9375:9387   */\n      add\n        /* \"#utility.yul\":9368:9387   */\n      swap2\n      pop\n        /* \"#utility.yul\":9397:9472   */\n      tag_399\n        /* \"#utility.yul\":9468:9471   */\n      dup3\n        /* \"#utility.yul\":9459:9465   */\n      dup8\n        /* \"#utility.yul\":9397:9472   */\n      tag_392\n      jump\t// in\n    tag_399:\n        /* \"#utility.yul\":9497:9499   */\n      0x20\n        /* \"#utility.yul\":9492:9495   */\n      dup3\n        /* \"#utility.yul\":9488:9500   */\n      add\n        /* \"#utility.yul\":9481:9500   */\n      swap2\n      pop\n        /* \"#utility.yul\":9510:9585   */\n      tag_400\n        /* \"#utility.yul\":9581:9584   */\n      dup3\n        /* \"#utility.yul\":9572:9578   */\n      dup7\n        /* \"#utility.yul\":9510:9585   */\n      tag_392\n      jump\t// in\n    tag_400:\n        /* \"#utility.yul\":9610:9612   */\n      0x20\n        /* \"#utility.yul\":9605:9608   */\n      dup3\n        /* \"#utility.yul\":9601:9613   */\n      add\n        /* \"#utility.yul\":9594:9613   */\n      swap2\n      pop\n        /* \"#utility.yul\":9623:9698   */\n      tag_401\n        /* \"#utility.yul\":9694:9697   */\n      dup3\n        /* \"#utility.yul\":9685:9691   */\n      dup6\n        /* \"#utility.yul\":9623:9698   */\n      tag_314\n      jump\t// in\n    tag_401:\n        /* \"#utility.yul\":9723:9725   */\n      0x14\n        /* \"#utility.yul\":9718:9721   */\n      dup3\n        /* \"#utility.yul\":9714:9726   */\n      add\n        /* \"#utility.yul\":9707:9726   */\n      swap2\n      pop\n        /* \"#utility.yul\":9736:9811   */\n      tag_402\n        /* \"#utility.yul\":9807:9810   */\n      dup3\n        /* \"#utility.yul\":9798:9804   */\n      dup5\n        /* \"#utility.yul\":9736:9811   */\n      tag_392\n      jump\t// in\n    tag_402:\n        /* \"#utility.yul\":9836:9838   */\n      0x20\n        /* \"#utility.yul\":9831:9834   */\n      dup3\n        /* \"#utility.yul\":9827:9839   */\n      add\n        /* \"#utility.yul\":9820:9839   */\n      swap2\n      pop\n        /* \"#utility.yul\":9856:9859   */\n      dup2\n        /* \"#utility.yul\":9849:9859   */\n      swap1\n      pop\n        /* \"#utility.yul\":9045:9865   */\n      swap7\n      swap6\n      pop\n      pop\n      pop\n      pop\n      pop\n      pop\n      jump\t// out\n        /* \"#utility.yul\":9871:10093   */\n    tag_67:\n        /* \"#utility.yul\":9964:9968   */\n      0x00\n        /* \"#utility.yul\":10002:10004   */\n      0x20\n        /* \"#utility.yul\":9991:10000   */\n      dup3\n        /* \"#utility.yul\":9987:10005   */\n      add\n        /* \"#utility.yul\":9979:10005   */\n      swap1\n      pop\n        /* \"#utility.yul\":10015:10086   */\n      tag_404\n        /* \"#utility.yul\":10083:10084   */\n      0x00\n        /* \"#utility.yul\":10072:10081   */\n      dup4\n        /* \"#utility.yul\":10068:10085   */\n      add\n        /* \"#utility.yul\":10059:10065   */\n      dup5\n        /* \"#utility.yul\":10015:10086   */\n      tag_311\n      jump\t// in\n    tag_404:\n        /* \"#utility.yul\":9871:10093   */\n      swap3\n      swap2\n      pop\n      pop\n      jump\t// out\n        /* \"#utility.yul\":10099:10431   */\n    tag_167:\n        /* \"#utility.yul\":10220:10224   */\n      0x00\n        /* \"#utility.yul\":10258:10260   */\n      0x40\n        /* \"#utility.yul\":10247:10256   */\n      dup3\n        /* \"#utility.yul\":10243:10261   */\n      add\n        /* \"#utility.yul\":10235:10261   */\n      swap1\n      pop\n        /* \"#utility.yul\":10271:10342   */\n      tag_406\n        /* \"#utility.yul\":10339:10340   */\n      0x00\n        /* \"#utility.yul\":10328:10337   */\n      dup4\n        /* \"#utility.yul\":10324:10341   */\n      add\n        /* \"#utility.yul\":10315:10321   */\n      dup6\n        /* \"#utility.yul\":10271:10342   */\n      tag_311\n      jump\t// in\n    tag_406:\n        /* \"#utility.yul\":10352:10424   */\n      tag_407\n        /* \"#utility.yul\":10420:10422   */\n      0x20\n        /* \"#utility.yul\":10409:10418   */\n      dup4\n        /* \"#utility.yul\":10405:10423   */\n      add\n        /* \"#utility.yul\":10396:10402   */\n      dup5\n        /* \"#utility.yul\":10352:10424   */\n      tag_389\n      jump\t// in\n    tag_407:\n        /* \"#utility.yul\":10099:10431   */\n      swap4\n      swap3\n      pop\n      pop\n      pop\n      jump\t// out\n        /* \"#utility.yul\":10437:11071   */\n    tag_42:\n        /* \"#utility.yul\":10658:10662   */\n      0x00\n        /* \"#utility.yul\":10696:10698   */\n      0x40\n        /* \"#utility.yul\":10685:10694   */\n      dup3\n        /* \"#utility.yul\":10681:10699   */\n      add\n        /* \"#utility.yul\":10673:10699   */\n      swap1\n      pop\n        /* \"#utility.yul\":10745:10754   */\n      dup2\n        /* \"#utility.yul\":10739:10743   */\n      dup2\n        /* \"#utility.yul\":10735:10755   */\n      sub\n        /* \"#utility.yul\":10731:10732   */\n      0x00\n        /* \"#utility.yul\":10720:10729   */\n      dup4\n        /* \"#utility.yul\":10716:10733   */\n      add\n        /* \"#utility.yul\":10709:10756   */\n      mstore\n        /* \"#utility.yul\":10773:10881   */\n      tag_409\n        /* \"#utility.yul\":10876:10880   */\n      dup2\n        /* \"#utility.yul\":10867:10873   */\n      dup6\n        /* \"#utility.yul\":10773:10881   */\n      tag_319\n      jump\t// in\n    tag_409:\n        /* \"#utility.yul\":10765:10881   */\n      swap1\n      pop\n        /* \"#utility.yul\":10928:10937   */\n      dup2\n        /* \"#utility.yul\":10922:10926   */\n      dup2\n        /* \"#utility.yul\":10918:10938   */\n      sub\n        /* \"#utility.yul\":10913:10915   */\n      0x20\n        /* \"#utility.yul\":10902:10911   */\n      dup4\n        /* \"#utility.yul\":10898:10916   */\n      add\n        /* \"#utility.yul\":10891:10939   */\n      mstore\n        /* \"#utility.yul\":10956:11064   */\n      tag_410\n        /* \"#utility.yul\":11059:11063   */\n      dup2\n        /* \"#utility.yul\":11050:11056   */\n      dup5\n        /* \"#utility.yul\":10956:11064   */\n      tag_347\n      jump\t// in\n    tag_410:\n        /* \"#utility.yul\":10948:11064   */\n      swap1\n      pop\n        /* \"#utility.yul\":10437:11071   */\n      swap4\n      swap3\n      pop\n      pop\n      pop\n      jump\t// out\n        /* \"#utility.yul\":11077:11546   */\n    tag_93:\n        /* \"#utility.yul\":11268:11272   */\n      0x00\n        /* \"#utility.yul\":11306:11308   */\n      0x20\n        /* \"#utility.yul\":11295:11304   */\n      dup3\n        /* \"#utility.yul\":11291:11309   */\n      add\n        /* \"#utility.yul\":11283:11309   */\n      swap1\n      pop\n        /* \"#utility.yul\":11355:11364   */\n      dup2\n        /* \"#utility.yul\":11349:11353   */\n      dup2\n        /* \"#utility.yul\":11345:11365   */\n      sub\n        /* \"#utility.yul\":11341:11342   */\n      0x00\n        /* \"#utility.yul\":11330:11339   */\n      dup4\n        /* \"#utility.yul\":11326:11343   */\n      add\n        /* \"#utility.yul\":11319:11366   */\n      mstore\n        /* \"#utility.yul\":11383:11539   */\n      tag_412\n        /* \"#utility.yul\":11534:11538   */\n      dup2\n        /* \"#utility.yul\":11525:11531   */\n      dup5\n        /* \"#utility.yul\":11383:11539   */\n      tag_333\n      jump\t// in\n    tag_412:\n        /* \"#utility.yul\":11375:11539   */\n      swap1\n      pop\n        /* \"#utility.yul\":11077:11546   */\n      swap3\n      swap2\n      pop\n      pop\n      jump\t// out\n        /* \"#utility.yul\":11552:11762   */\n    tag_54:\n        /* \"#utility.yul\":11639:11643   */\n      0x00\n        /* \"#utility.yul\":11677:11679   */\n      0x20\n        /* \"#utility.yul\":11666:11675   */\n      dup3\n        /* \"#utility.yul\":11662:11680   */\n      add\n        /* \"#utility.yul\":11654:11680   */\n      swap1\n      pop\n        /* \"#utility.yul\":11690:11755   */\n      tag_414\n        /* \"#utility.yul\":11752:11753   */\n      0x00\n        /* \"#utility.yul\":11741:11750   */\n      dup4\n        /* \"#utility.yul\":11737:11754   */\n      add\n        /* \"#utility.yul\":11728:11734   */\n      dup5\n        /* \"#utility.yul\":11690:11755   */\n      tag_361\n      jump\t// in\n    tag_414:\n        /* \"#utility.yul\":11552:11762   */\n      swap3\n      swap2\n      pop\n      pop\n      jump\t// out\n        /* \"#utility.yul\":11768:12018   */\n    tag_71:\n        /* \"#utility.yul\":11875:11879   */\n      0x00\n        /* \"#utility.yul\":11913:11915   */\n      0x20\n        /* \"#utility.yul\":11902:11911   */\n      dup3\n        /* \"#utility.yul\":11898:11916   */\n      add\n        /* \"#utility.yul\":11890:11916   */\n      swap1\n      pop\n        /* \"#utility.yul\":11926:12011   */\n      tag_416\n        /* \"#utility.yul\":12008:12009   */\n      0x00\n        /* \"#utility.yul\":11997:12006   */\n      dup4\n        /* \"#utility.yul\":11993:12010   */\n      add\n        /* \"#utility.yul\":11984:11990   */\n      dup5\n        /* \"#utility.yul\":11926:12011   */\n      tag_365\n      jump\t// in\n    tag_416:\n        /* \"#utility.yul\":11768:12018   */\n      swap3\n      swap2\n      pop\n      pop\n      jump\t// out\n        /* \"#utility.yul\":12024:12443   */\n    tag_234:\n        /* \"#utility.yul\":12190:12194   */\n      0x00\n        /* \"#utility.yul\":12228:12230   */\n      0x20\n        /* \"#utility.yul\":12217:12226   */\n      dup3\n        /* \"#utility.yul\":12213:12231   */\n      add\n        /* \"#utility.yul\":12205:12231   */\n      swap1\n      pop\n        /* \"#utility.yul\":12277:12286   */\n      dup2\n        /* \"#utility.yul\":12271:12275   */\n      dup2\n        /* \"#utility.yul\":12267:12287   */\n      sub\n        /* \"#utility.yul\":12263:12264   */\n      0x00\n        /* \"#utility.yul\":12252:12261   */\n      dup4\n        /* \"#utility.yul\":12248:12265   */\n      add\n        /* \"#utility.yul\":12241:12288   */\n      mstore\n        /* \"#utility.yul\":12305:12436   */\n      tag_418\n        /* \"#utility.yul\":12431:12435   */\n      dup2\n        /* \"#utility.yul\":12305:12436   */\n      tag_369\n      jump\t// in\n    tag_418:\n        /* \"#utility.yul\":12297:12436   */\n      swap1\n      pop\n        /* \"#utility.yul\":12024:12443   */\n      swap2\n      swap1\n      pop\n      jump\t// out\n        /* \"#utility.yul\":12449:12868   */\n    tag_162:\n        /* \"#utility.yul\":12615:12619   */\n      0x00\n        /* \"#utility.yul\":12653:12655   */\n      0x20\n        /* \"#utility.yul\":12642:12651   */\n      dup3\n        /* \"#utility.yul\":12638:12656   */\n      add\n        /* \"#utility.yul\":12630:12656   */\n      swap1\n      pop\n        /* \"#utility.yul\":12702:12711   */\n      dup2\n        /* \"#utility.yul\":12696:12700   */\n      dup2\n        /* \"#utility.yul\":12692:12712   */\n      sub\n        /* \"#utility.yul\":12688:12689   */\n      0x00\n        /* \"#utility.yul\":12677:12686   */\n      dup4\n        /* \"#utility.yul\":12673:12690   */\n      add\n        /* \"#utility.yul\":12666:12713   */\n      mstore\n        /* \"#utility.yul\":12730:12861   */\n      tag_420\n        /* \"#utility.yul\":12856:12860   */\n      dup2\n        /* \"#utility.yul\":12730:12861   */\n      tag_375\n      jump\t// in\n    tag_420:\n        /* \"#utility.yul\":12722:12861   */\n      swap1\n      pop\n        /* \"#utility.yul\":12449:12868   */\n      swap2\n      swap1\n      pop\n      jump\t// out\n        /* \"#utility.yul\":12874:13096   */\n    tag_32:\n        /* \"#utility.yul\":12967:12971   */\n      0x00\n        /* \"#utility.yul\":13005:13007   */\n      0x20\n        /* \"#utility.yul\":12994:13003   */\n      dup3\n        /* \"#utility.yul\":12990:13008   */\n      add\n        /* \"#utility.yul\":12982:13008   */\n      swap1\n      pop\n        /* \"#utility.yul\":13018:13089   */\n      tag_422\n        /* \"#utility.yul\":13086:13087   */\n      0x00\n        /* \"#utility.yul\":13075:13084   */\n      dup4\n        /* \"#utility.yul\":13071:13088   */\n      add\n        /* \"#utility.yul\":13062:13068   */\n      dup5\n        /* \"#utility.yul\":13018:13089   */\n      tag_389\n      jump\t// in\n    tag_422:\n        /* \"#utility.yul\":12874:13096   */\n      swap3\n      swap2\n      pop\n      pop\n      jump\t// out\n        /* \"#utility.yul\":13102:13434   */\n    tag_104:\n        /* \"#utility.yul\":13223:13227   */\n      0x00\n        /* \"#utility.yul\":13261:13263   */\n      0x40\n        /* \"#utility.yul\":13250:13259   */\n      dup3\n        /* \"#utility.yul\":13246:13264   */\n      add\n        /* \"#utility.yul\":13238:13264   */\n      swap1\n      pop\n        /* \"#utility.yul\":13274:13345   */\n      tag_424\n        /* \"#utility.yul\":13342:13343   */\n      0x00\n        /* \"#utility.yul\":13331:13340   */\n      dup4\n        /* \"#utility.yul\":13327:13344   */\n      add\n        /* \"#utility.yul\":13318:13324   */\n      dup6\n        /* \"#utility.yul\":13274:13345   */\n      tag_389\n      jump\t// in\n    tag_424:\n        /* \"#utility.yul\":13355:13427   */\n      tag_425\n        /* \"#utility.yul\":13423:13425   */\n      0x20\n        /* \"#utility.yul\":13412:13421   */\n      dup4\n        /* \"#utility.yul\":13408:13426   */\n      add\n        /* \"#utility.yul\":13399:13405   */\n      dup5\n        /* \"#utility.yul\":13355:13427   */\n      tag_311\n      jump\t// in\n    tag_425:\n        /* \"#utility.yul\":13102:13434   */\n      swap4\n      swap3\n      pop\n      pop\n      pop\n      jump\t// out\n        /* \"#utility.yul\":13440:14104   */\n    tag_84:\n        /* \"#utility.yul\":13645:13649   */\n      0x00\n        /* \"#utility.yul\":13683:13686   */\n      0xa0\n        /* \"#utility.yul\":13672:13681   */\n      dup3\n        /* \"#utility.yul\":13668:13687   */\n      add\n        /* \"#utility.yul\":13660:13687   */\n      swap1\n      pop\n        /* \"#utility.yul\":13697:13768   */\n      tag_427\n        /* \"#utility.yul\":13765:13766   */\n      0x00\n        /* \"#utility.yul\":13754:13763   */\n      dup4\n        /* \"#utility.yul\":13750:13767   */\n      add\n        /* \"#utility.yul\":13741:13747   */\n      dup9\n        /* \"#utility.yul\":13697:13768   */\n      tag_389\n      jump\t// in\n    tag_427:\n        /* \"#utility.yul\":13778:13850   */\n      tag_428\n        /* \"#utility.yul\":13846:13848   */\n      0x20\n        /* \"#utility.yul\":13835:13844   */\n      dup4\n        /* \"#utility.yul\":13831:13849   */\n      add\n        /* \"#utility.yul\":13822:13828   */\n      dup8\n        /* \"#utility.yul\":13778:13850   */\n      tag_389\n      jump\t// in\n    tag_428:\n        /* \"#utility.yul\":13860:13932   */\n      tag_429\n        /* \"#utility.yul\":13928:13930   */\n      0x40\n        /* \"#utility.yul\":13917:13926   */\n      dup4\n        /* \"#utility.yul\":13913:13931   */\n      add\n        /* \"#utility.yul\":13904:13910   */\n      dup7\n        /* \"#utility.yul\":13860:13932   */\n      tag_389\n      jump\t// in\n    tag_429:\n        /* \"#utility.yul\":13942:14014   */\n      tag_430\n        /* \"#utility.yul\":14010:14012   */\n      0x60\n        /* \"#utility.yul\":13999:14008   */\n      dup4\n        /* \"#utility.yul\":13995:14013   */\n      add\n        /* \"#utility.yul\":13986:13992   */\n      dup6\n        /* \"#utility.yul\":13942:14014   */\n      tag_389\n      jump\t// in\n    tag_430:\n        /* \"#utility.yul\":14024:14097   */\n      tag_431\n        /* \"#utility.yul\":14092:14095   */\n      0x80\n        /* \"#utility.yul\":14081:14090   */\n      dup4\n        /* \"#utility.yul\":14077:14096   */\n      add\n        /* \"#utility.yul\":14068:14074   */\n      dup5\n        /* \"#utility.yul\":14024:14097   */\n      tag_311\n      jump\t// in\n    tag_431:\n        /* \"#utility.yul\":13440:14104   */\n      swap7\n      swap6\n      pop\n      pop\n      pop\n      pop\n      pop\n      pop\n      jump\t// out\n        /* \"#utility.yul\":14191:14323   */\n    tag_326:\n        /* \"#utility.yul\":14258:14262   */\n      0x00\n        /* \"#utility.yul\":14281:14284   */\n      dup2\n        /* \"#utility.yul\":14273:14284   */\n      swap1\n      pop\n        /* \"#utility.yul\":14311:14315   */\n      0x20\n        /* \"#utility.yul\":14306:14309   */\n      dup3\n        /* \"#utility.yul\":14302:14316   */\n      add\n        /* \"#utility.yul\":14294:14316   */\n      swap1\n      pop\n        /* \"#utility.yul\":14191:14323   */\n      swap2\n      swap1\n      pop\n      jump\t// out\n        /* \"#utility.yul\":14329:14485   */\n    tag_340:\n        /* \"#utility.yul\":14420:14424   */\n      0x00\n        /* \"#utility.yul\":14443:14446   */\n      dup2\n        /* \"#utility.yul\":14435:14446   */\n      swap1\n      pop\n        /* \"#utility.yul\":14473:14477   */\n      0x20\n        /* \"#utility.yul\":14468:14471   */\n      dup3\n        /* \"#utility.yul\":14464:14478   */\n      add\n        /* \"#utility.yul\":14456:14478   */\n      swap1\n      pop\n        /* \"#utility.yul\":14329:14485   */\n      swap2\n      swap1\n      pop\n      jump\t// out\n        /* \"#utility.yul\":14491:14623   */\n    tag_354:\n        /* \"#utility.yul\":14558:14562   */\n      0x00\n        /* \"#utility.yul\":14581:14584   */\n      dup2\n        /* \"#utility.yul\":14573:14584   */\n      swap1\n      pop\n        /* \"#utility.yul\":14611:14615   */\n      0x20\n        /* \"#utility.yul\":14606:14609   */\n      dup3\n        /* \"#utility.yul\":14602:14616   */\n      add\n        /* \"#utility.yul\":14594:14616   */\n      swap1\n      pop\n        /* \"#utility.yul\":14491:14623   */\n      swap2\n      swap1\n      pop\n      jump\t// out\n        /* \"#utility.yul\":14629:14743   */\n    tag_322:\n        /* \"#utility.yul\":14696:14702   */\n      0x00\n        /* \"#utility.yul\":14730:14735   */\n      dup2\n        /* \"#utility.yul\":14724:14736   */\n      mload\n        /* \"#utility.yul\":14714:14736   */\n      swap1\n      pop\n        /* \"#utility.yul\":14629:14743   */\n      swap2\n      swap1\n      pop\n      jump\t// out\n        /* \"#utility.yul\":14749:14887   */\n    tag_336:\n        /* \"#utility.yul\":14840:14846   */\n      0x00\n        /* \"#utility.yul\":14874:14879   */\n      dup2\n        /* \"#utility.yul\":14868:14880   */\n      mload\n        /* \"#utility.yul\":14858:14880   */\n      swap1\n      pop\n        /* \"#utility.yul\":14749:14887   */\n      swap2\n      swap1\n      pop\n      jump\t// out\n        /* \"#utility.yul\":14893:15007   */\n    tag_350:\n        /* \"#utility.yul\":14960:14966   */\n      0x00\n        /* \"#utility.yul\":14994:14999   */\n      dup2\n        /* \"#utility.yul\":14988:15000   */\n      mload\n        /* \"#utility.yul\":14978:15000   */\n      swap1\n      pop\n        /* \"#utility.yul\":14893:15007   */\n      swap2\n      swap1\n      pop\n      jump\t// out\n        /* \"#utility.yul\":15013:15126   */\n    tag_332:\n        /* \"#utility.yul\":15083:15087   */\n      0x00\n        /* \"#utility.yul\":15115:15119   */\n      0x20\n        /* \"#utility.yul\":15110:15113   */\n      dup3\n        /* \"#utility.yul\":15106:15120   */\n      add\n        /* \"#utility.yul\":15098:15120   */\n      swap1\n      pop\n        /* \"#utility.yul\":15013:15126   */\n      swap2\n      swap1\n      pop\n      jump\t// out\n        /* \"#utility.yul\":15132:15269   */\n    tag_346:\n        /* \"#utility.yul\":15226:15230   */\n      0x00\n        /* \"#utility.yul\":15258:15262   */\n      0x20\n        /* \"#utility.yul\":15253:15256   */\n      dup3\n        /* \"#utility.yul\":15249:15263   */\n      add\n        /* \"#utility.yul\":15241:15263   */\n      swap1\n      pop\n        /* \"#utility.yul\":15132:15269   */\n      swap2\n      swap1\n      pop\n      jump\t// out\n        /* \"#utility.yul\":15275:15388   */\n    tag_360:\n        /* \"#utility.yul\":15345:15349   */\n      0x00\n        /* \"#utility.yul\":15377:15381   */\n      0x20\n        /* \"#utility.yul\":15372:15375   */\n      dup3\n        /* \"#utility.yul\":15368:15382   */\n      add\n        /* \"#utility.yul\":15360:15382   */\n      swap1\n      pop\n        /* \"#utility.yul\":15275:15388   */\n      swap2\n      swap1\n      pop\n      jump\t// out\n        /* \"#utility.yul\":15394:15578   */\n    tag_324:\n        /* \"#utility.yul\":15493:15504   */\n      0x00\n        /* \"#utility.yul\":15527:15533   */\n      dup3\n        /* \"#utility.yul\":15522:15525   */\n      dup3\n        /* \"#utility.yul\":15515:15534   */\n      mstore\n        /* \"#utility.yul\":15567:15571   */\n      0x20\n        /* \"#utility.yul\":15562:15565   */\n      dup3\n        /* \"#utility.yul\":15558:15572   */\n      add\n        /* \"#utility.yul\":15543:15572   */\n      swap1\n      pop\n        /* \"#utility.yul\":15394:15578   */\n      swap3\n      swap2\n      pop\n      pop\n      jump\t// out\n        /* \"#utility.yul\":15584:15792   */\n    tag_338:\n        /* \"#utility.yul\":15707:15718   */\n      0x00\n        /* \"#utility.yul\":15741:15747   */\n      dup3\n        /* \"#utility.yul\":15736:15739   */\n      dup3\n        /* \"#utility.yul\":15729:15748   */\n      mstore\n        /* \"#utility.yul\":15781:15785   */\n      0x20\n        /* \"#utility.yul\":15776:15779   */\n      dup3\n        /* \"#utility.yul\":15772:15786   */\n      add\n        /* \"#utility.yul\":15757:15786   */\n      swap1\n      pop\n        /* \"#utility.yul\":15584:15792   */\n      swap3\n      swap2\n      pop\n      pop\n      jump\t// out\n        /* \"#utility.yul\":15798:15982   */\n    tag_352:\n        /* \"#utility.yul\":15897:15908   */\n      0x00\n        /* \"#utility.yul\":15931:15937   */\n      dup3\n        /* \"#utility.yul\":15926:15929   */\n      dup3\n        /* \"#utility.yul\":15919:15938   */\n      mstore\n        /* \"#utility.yul\":15971:15975   */\n      0x20\n        /* \"#utility.yul\":15966:15969   */\n      dup3\n        /* \"#utility.yul\":15962:15976   */\n      add\n        /* \"#utility.yul\":15947:15976   */\n      swap1\n      pop\n        /* \"#utility.yul\":15798:15982   */\n      swap3\n      swap2\n      pop\n      pop\n      jump\t// out\n        /* \"#utility.yul\":15988:16157   */\n    tag_372:\n        /* \"#utility.yul\":16072:16083   */\n      0x00\n        /* \"#utility.yul\":16106:16112   */\n      dup3\n        /* \"#utility.yul\":16101:16104   */\n      dup3\n        /* \"#utility.yul\":16094:16113   */\n      mstore\n        /* \"#utility.yul\":16146:16150   */\n      0x20\n        /* \"#utility.yul\":16141:16144   */\n      dup3\n        /* \"#utility.yul\":16137:16151   */\n      add\n        /* \"#utility.yul\":16122:16151   */\n      swap1\n      pop\n        /* \"#utility.yul\":15988:16157   */\n      swap3\n      swap2\n      pop\n      pop\n      jump\t// out\n        /* \"#utility.yul\":16163:16468   */\n    tag_149:\n        /* \"#utility.yul\":16203:16206   */\n      0x00\n        /* \"#utility.yul\":16222:16242   */\n      tag_448\n        /* \"#utility.yul\":16240:16241   */\n      dup3\n        /* \"#utility.yul\":16222:16242   */\n      tag_388\n      jump\t// in\n    tag_448:\n        /* \"#utility.yul\":16217:16242   */\n      swap2\n      pop\n        /* \"#utility.yul\":16256:16276   */\n      tag_449\n        /* \"#utility.yul\":16274:16275   */\n      dup4\n        /* \"#utility.yul\":16256:16276   */\n      tag_388\n      jump\t// in\n    tag_449:\n        /* \"#utility.yul\":16251:16276   */\n      swap3\n      pop\n        /* \"#utility.yul\":16410:16411   */\n      dup3\n        /* \"#utility.yul\":16342:16408   */\n      0xffffffffffffffffffffffffffffffffffffffffffffffffffffffffffffffff\n        /* \"#utility.yul\":16338:16412   */\n      sub\n        /* \"#utility.yul\":16335:16336   */\n      dup3\n        /* \"#utility.yul\":16332:16413   */\n      gt\n        /* \"#utility.yul\":16329:16436   */\n      iszero\n      tag_450\n      jumpi\n        /* \"#utility.yul\":16416:16434   */\n      tag_451\n      tag_452\n      jump\t// in\n    tag_451:\n        /* \"#utility.yul\":16329:16436   */\n    tag_450:\n        /* \"#utility.yul\":16460:16461   */\n      dup3\n        /* \"#utility.yul\":16457:16458   */\n      dup3\n        /* \"#utility.yul\":16453:16462   */\n      add\n        /* \"#utility.yul\":16446:16462   */\n      swap1\n      pop\n        /* \"#utility.yul\":16163:16468   */\n      swap3\n      swap2\n      pop\n      pop\n      jump\t// out\n        /* \"#utility.yul\":16474:16665   */\n    tag_193:\n        /* \"#utility.yul\":16514:16518   */\n      0x00\n        /* \"#utility.yul\":16534:16554   */\n      tag_454\n        /* \"#utility.yul\":16552:16553   */\n      dup3\n        /* \"#utility.yul\":16534:16554   */\n      tag_388\n      jump\t// in\n    tag_454:\n        /* \"#utility.yul\":16529:16554   */\n      swap2\n      pop\n        /* \"#utility.yul\":16568:16588   */\n      tag_455\n        /* \"#utility.yul\":16586:16587   */\n      dup4\n        /* \"#utility.yul\":16568:16588   */\n      tag_388\n      jump\t// in\n    tag_455:\n        /* \"#utility.yul\":16563:16588   */\n      swap3\n      pop\n        /* \"#utility.yul\":16607:16608   */\n      dup3\n        /* \"#utility.yul\":16604:16605   */\n      dup3\n        /* \"#utility.yul\":16601:16609   */\n      lt\n        /* \"#utility.yul\":16598:16632   */\n      iszero\n      tag_456\n      jumpi\n        /* \"#utility.yul\":16612:16630   */\n      tag_457\n      tag_452\n      jump\t// in\n    tag_457:\n        /* \"#utility.yul\":16598:16632   */\n    tag_456:\n        /* \"#utility.yul\":16657:16658   */\n      dup3\n        /* \"#utility.yul\":16654:16655   */\n      dup3\n        /* \"#utility.yul\":16650:16659   */\n      sub\n        /* \"#utility.yul\":16642:16659   */\n      swap1\n      pop\n        /* \"#utility.yul\":16474:16665   */\n      swap3\n      swap2\n      pop\n      pop\n      jump\t// out\n        /* \"#utility.yul\":16671:16767   */\n    tag_310:\n        /* \"#utility.yul\":16708:16715   */\n      0x00\n        /* \"#utility.yul\":16737:16761   */\n      tag_459\n        /* \"#utility.yul\":16755:16760   */\n      dup3\n        /* \"#utility.yul\":16737:16761   */\n      tag_460\n      jump\t// in\n    tag_459:\n        /* \"#utility.yul\":16726:16761   */\n      swap1\n      pop\n        /* \"#utility.yul\":16671:16767   */\n      swap2\n      swap1\n      pop\n      jump\t// out\n        /* \"#utility.yul\":16773:16863   */\n    tag_364:\n        /* \"#utility.yul\":16807:16814   */\n      0x00\n        /* \"#utility.yul\":16850:16855   */\n      dup2\n        /* \"#utility.yul\":16843:16856   */\n      iszero\n        /* \"#utility.yul\":16836:16857   */\n      iszero\n        /* \"#utility.yul\":16825:16857   */\n      swap1\n      pop\n        /* \"#utility.yul\":16773:16863   */\n      swap2\n      swap1\n      pop\n      jump\t// out\n        /* \"#utility.yul\":16869:16995   */\n    tag_460:\n        /* \"#utility.yul\":16906:16913   */\n      0x00\n        /* \"#utility.yul\":16946:16988   */\n      0xffffffffffffffffffffffffffffffffffffffff\n        /* \"#utility.yul\":16939:16944   */\n      dup3\n        /* \"#utility.yul\":16935:16989   */\n      and\n        /* \"#utility.yul\":16924:16989   */\n      swap1\n      pop\n        /* \"#utility.yul\":16869:16995   */\n      swap2\n      swap1\n      pop\n      jump\t// out\n        /* \"#utility.yul\":17001:17078   */\n    tag_388:\n        /* \"#utility.yul\":17038:17045   */\n      0x00\n        /* \"#utility.yul\":17067:17072   */\n      dup2\n        /* \"#utility.yul\":17056:17072   */\n      swap1\n      pop\n        /* \"#utility.yul\":17001:17078   */\n      swap2\n      swap1\n      pop\n      jump\t// out\n        /* \"#utility.yul\":17084:17224   */\n    tag_368:\n        /* \"#utility.yul\":17148:17157   */\n      0x00\n        /* \"#utility.yul\":17181:17218   */\n      tag_465\n        /* \"#utility.yul\":17212:17217   */\n      dup3\n        /* \"#utility.yul\":17181:17218   */\n      tag_466\n      jump\t// in\n    tag_465:\n        /* \"#utility.yul\":17168:17218   */\n      swap1\n      pop\n        /* \"#utility.yul\":17084:17224   */\n      swap2\n      swap1\n      pop\n      jump\t// out\n        /* \"#utility.yul\":17230:17356   */\n    tag_466:\n        /* \"#utility.yul\":17280:17289   */\n      0x00\n        /* \"#utility.yul\":17313:17350   */\n      tag_468\n        /* \"#utility.yul\":17344:17349   */\n      dup3\n        /* \"#utility.yul\":17313:17350   */\n      tag_469\n      jump\t// in\n    tag_468:\n        /* \"#utility.yul\":17300:17350   */\n      swap1\n      pop\n        /* \"#utility.yul\":17230:17356   */\n      swap2\n      swap1\n      pop\n      jump\t// out\n        /* \"#utility.yul\":17362:17475   */\n    tag_469:\n        /* \"#utility.yul\":17412:17421   */\n      0x00\n        /* \"#utility.yul\":17445:17469   */\n      tag_471\n        /* \"#utility.yul\":17463:17468   */\n      dup3\n        /* \"#utility.yul\":17445:17469   */\n      tag_460\n      jump\t// in\n    tag_471:\n        /* \"#utility.yul\":17432:17469   */\n      swap1\n      pop\n        /* \"#utility.yul\":17362:17475   */\n      swap2\n      swap1\n      pop\n      jump\t// out\n        /* \"#utility.yul\":17481:17714   */\n    tag_120:\n        /* \"#utility.yul\":17520:17523   */\n      0x00\n        /* \"#utility.yul\":17543:17567   */\n      tag_473\n        /* \"#utility.yul\":17561:17566   */\n      dup3\n        /* \"#utility.yul\":17543:17567   */\n      tag_388\n      jump\t// in\n    tag_473:\n        /* \"#utility.yul\":17534:17567   */\n      swap2\n      pop\n        /* \"#utility.yul\":17589:17655   */\n      0xffffffffffffffffffffffffffffffffffffffffffffffffffffffffffffffff\n        /* \"#utility.yul\":17582:17587   */\n      dup3\n        /* \"#utility.yul\":17579:17656   */\n      eq\n        /* \"#utility.yul\":17576:17679   */\n      iszero\n      tag_474\n      jumpi\n        /* \"#utility.yul\":17659:17677   */\n      tag_475\n      tag_452\n      jump\t// in\n    tag_475:\n        /* \"#utility.yul\":17576:17679   */\n    tag_474:\n        /* \"#utility.yul\":17706:17707   */\n      0x01\n        /* \"#utility.yul\":17699:17704   */\n      dup3\n        /* \"#utility.yul\":17695:17708   */\n      add\n        /* \"#utility.yul\":17688:17708   */\n      swap1\n      pop\n        /* \"#utility.yul\":17481:17714   */\n      swap2\n      swap1\n      pop\n      jump\t// out\n        /* \"#utility.yul\":17720:17820   */\n    tag_318:\n        /* \"#utility.yul\":17759:17766   */\n      0x00\n        /* \"#utility.yul\":17788:17814   */\n      tag_477\n        /* \"#utility.yul\":17808:17813   */\n      dup3\n        /* \"#utility.yul\":17788:17814   */\n      tag_478\n      jump\t// in\n    tag_477:\n        /* \"#utility.yul\":17777:17814   */\n      swap1\n      pop\n        /* \"#utility.yul\":17720:17820   */\n      swap2\n      swap1\n      pop\n      jump\t// out\n        /* \"#utility.yul\":17826:17920   */\n    tag_478:\n        /* \"#utility.yul\":17865:17872   */\n      0x00\n        /* \"#utility.yul\":17894:17914   */\n      tag_480\n        /* \"#utility.yul\":17908:17913   */\n      dup3\n        /* \"#utility.yul\":17894:17914   */\n      tag_481\n      jump\t// in\n    tag_480:\n        /* \"#utility.yul\":17883:17914   */\n      swap1\n      pop\n        /* \"#utility.yul\":17826:17920   */\n      swap2\n      swap1\n      pop\n      jump\t// out\n        /* \"#utility.yul\":17926:18005   */\n    tag_396:\n        /* \"#utility.yul\":17965:17972   */\n      0x00\n        /* \"#utility.yul\":17994:17999   */\n      dup2\n        /* \"#utility.yul\":17983:17999   */\n      swap1\n      pop\n        /* \"#utility.yul\":17926:18005   */\n      swap2\n      swap1\n      pop\n      jump\t// out\n        /* \"#utility.yul\":18011:18187   */\n    tag_240:\n        /* \"#utility.yul\":18043:18044   */\n      0x00\n        /* \"#utility.yul\":18060:18080   */\n      tag_484\n        /* \"#utility.yul\":18078:18079   */\n      dup3\n        /* \"#utility.yul\":18060:18080   */\n      tag_388\n      jump\t// in\n    tag_484:\n        /* \"#utility.yul\":18055:18080   */\n      swap2\n      pop\n        /* \"#utility.yul\":18094:18114   */\n      tag_485\n        /* \"#utility.yul\":18112:18113   */\n      dup4\n        /* \"#utility.yul\":18094:18114   */\n      tag_388\n      jump\t// in\n    tag_485:\n        /* \"#utility.yul\":18089:18114   */\n      swap3\n      pop\n        /* \"#utility.yul\":18133:18134   */\n      dup3\n        /* \"#utility.yul\":18123:18158   */\n      tag_486\n      jumpi\n        /* \"#utility.yul\":18138:18156   */\n      tag_487\n      tag_488\n      jump\t// in\n    tag_487:\n        /* \"#utility.yul\":18123:18158   */\n    tag_486:\n        /* \"#utility.yul\":18179:18180   */\n      dup3\n        /* \"#utility.yul\":18176:18177   */\n      dup3\n        /* \"#utility.yul\":18172:18181   */\n      mod\n        /* \"#utility.yul\":18167:18181   */\n      swap1\n      pop\n        /* \"#utility.yul\":18011:18187   */\n      swap3\n      swap2\n      pop\n      pop\n      jump\t// out\n        /* \"#utility.yul\":18193:18373   */\n    tag_452:\n        /* \"#utility.yul\":18241:18318   */\n      0x4e487b7100000000000000000000000000000000000000000000000000000000\n        /* \"#utility.yul\":18238:18239   */\n      0x00\n        /* \"#utility.yul\":18231:18319   */\n      mstore\n        /* \"#utility.yul\":18338:18342   */\n      0x11\n        /* \"#utility.yul\":18335:18336   */\n      0x04\n        /* \"#utility.yul\":18328:18343   */\n      mstore\n        /* \"#utility.yul\":18362:18366   */\n      0x24\n        /* \"#utility.yul\":18359:18360   */\n      0x00\n        /* \"#utility.yul\":18352:18367   */\n      revert\n        /* \"#utility.yul\":18379:18559   */\n    tag_488:\n        /* \"#utility.yul\":18427:18504   */\n      0x4e487b7100000000000000000000000000000000000000000000000000000000\n        /* \"#utility.yul\":18424:18425   */\n      0x00\n        /* \"#utility.yul\":18417:18505   */\n      mstore\n        /* \"#utility.yul\":18524:18528   */\n      0x12\n        /* \"#utility.yul\":18521:18522   */\n      0x04\n        /* \"#utility.yul\":18514:18529   */\n      mstore\n        /* \"#utility.yul\":18548:18552   */\n      0x24\n        /* \"#utility.yul\":18545:18546   */\n      0x00\n        /* \"#utility.yul\":18538:18553   */\n      revert\n        /* \"#utility.yul\":18565:18745   */\n    tag_200:\n        /* \"#utility.yul\":18613:18690   */\n      0x4e487b7100000000000000000000000000000000000000000000000000000000\n        /* \"#utility.yul\":18610:18611   */\n      0x00\n        /* \"#utility.yul\":18603:18691   */\n      mstore\n        /* \"#utility.yul\":18710:18714   */\n      0x31\n        /* \"#utility.yul\":18707:18708   */\n      0x04\n        /* \"#utility.yul\":18700:18715   */\n      mstore\n        /* \"#utility.yul\":18734:18738   */\n      0x24\n        /* \"#utility.yul\":18731:18732   */\n      0x00\n        /* \"#utility.yul\":18724:18739   */\n      revert\n        /* \"#utility.yul\":18751:18931   */\n    tag_116:\n        /* \"#utility.yul\":18799:18876   */\n      0x4e487b7100000000000000000000000000000000000000000000000000000000\n        /* \"#utility.yul\":18796:18797   */\n      0x00\n        /* \"#utility.yul\":18789:18877   */\n      mstore\n        /* \"#utility.yul\":18896:18900   */\n      0x32\n        /* \"#utility.yul\":18893:18894   */\n      0x04\n        /* \"#utility.yul\":18886:18901   */\n      mstore\n        /* \"#utility.yul\":18920:18924   */\n      0x24\n        /* \"#utility.yul\":18917:18918   */\n      0x00\n        /* \"#utility.yul\":18910:18925   */\n      revert\n        /* \"#utility.yul\":18937:19117   */\n    tag_126:\n        /* \"#utility.yul\":18985:19062   */\n      0x4e487b7100000000000000000000000000000000000000000000000000000000\n        /* \"#utility.yul\":18982:18983   */\n      0x00\n        /* \"#utility.yul\":18975:19063   */\n      mstore\n        /* \"#utility.yul\":19082:19086   */\n      0x41\n        /* \"#utility.yul\":19079:19080   */\n      0x04\n        /* \"#utility.yul\":19072:19087   */\n      mstore\n        /* \"#utility.yul\":19106:19110   */\n      0x24\n        /* \"#utility.yul\":19103:19104   */\n      0x00\n        /* \"#utility.yul\":19096:19111   */\n      revert\n        /* \"#utility.yul\":19246:19363   */\n    tag_272:\n        /* \"#utility.yul\":19355:19356   */\n      0x00\n        /* \"#utility.yul\":19352:19353   */\n      dup1\n        /* \"#utility.yul\":19345:19357   */\n      revert\n        /* \"#utility.yul\":19369:19463   */\n    tag_481:\n        /* \"#utility.yul\":19402:19410   */\n      0x00\n        /* \"#utility.yul\":19450:19455   */\n      dup2\n        /* \"#utility.yul\":19446:19448   */\n      0x60\n        /* \"#utility.yul\":19442:19456   */\n      shl\n        /* \"#utility.yul\":19421:19456   */\n      swap1\n      pop\n        /* \"#utility.yul\":19369:19463   */\n      swap2\n      swap1\n      pop\n      jump\t// out\n        /* \"#utility.yul\":19469:19694   */\n    tag_374:\n        /* \"#utility.yul\":19609:19643   */\n      0x4f776e61626c653a206e6577206f776e657220697320746865207a65726f2061\n        /* \"#utility.yul\":19605:19606   */\n      0x00\n        /* \"#utility.yul\":19597:19603   */\n      dup3\n        /* \"#utility.yul\":19593:19607   */\n      add\n        /* \"#utility.yul\":19586:19644   */\n      mstore\n        /* \"#utility.yul\":19678:19686   */\n      0x6464726573730000000000000000000000000000000000000000000000000000\n        /* \"#utility.yul\":19673:19675   */\n      0x20\n        /* \"#utility.yul\":19665:19671   */\n      dup3\n        /* \"#utility.yul\":19661:19676   */\n      add\n        /* \"#utility.yul\":19654:19687   */\n      mstore\n        /* \"#utility.yul\":19469:19694   */\n      pop\n      jump\t// out\n        /* \"#utility.yul\":19700:19882   */\n    tag_379:\n        /* \"#utility.yul\":19840:19874   */\n      0x4f776e61626c653a2063616c6c6572206973206e6f7420746865206f776e6572\n        /* \"#utility.yul\":19836:19837   */\n      0x00\n        /* \"#utility.yul\":19828:19834   */\n      dup3\n        /* \"#utility.yul\":19824:19838   */\n      add\n        /* \"#utility.yul\":19817:19875   */\n      mstore\n        /* \"#utility.yul\":19700:19882   */\n      pop\n      jump\t// out\n        /* \"#utility.yul\":19888:20010   */\n    tag_257:\n        /* \"#utility.yul\":19961:19985   */\n      tag_501\n        /* \"#utility.yul\":19979:19984   */\n      dup2\n        /* \"#utility.yul\":19961:19985   */\n      tag_310\n      jump\t// in\n    tag_501:\n        /* \"#utility.yul\":19954:19959   */\n      dup2\n        /* \"#utility.yul\":19951:19986   */\n      eq\n        /* \"#utility.yul\":19941:20004   */\n      tag_502\n      jumpi\n        /* \"#utility.yul\":20000:20001   */\n      0x00\n        /* \"#utility.yul\":19997:19998   */\n      dup1\n        /* \"#utility.yul\":19990:20002   */\n      revert\n        /* \"#utility.yul\":19941:20004   */\n    tag_502:\n        /* \"#utility.yul\":19888:20010   */\n      pop\n      jump\t// out\n        /* \"#utility.yul\":20016:20132   */\n    tag_261:\n        /* \"#utility.yul\":20086:20107   */\n      tag_504\n        /* \"#utility.yul\":20101:20106   */\n      dup2\n        /* \"#utility.yul\":20086:20107   */\n      tag_364\n      jump\t// in\n    tag_504:\n        /* \"#utility.yul\":20079:20084   */\n      dup2\n        /* \"#utility.yul\":20076:20108   */\n      eq\n        /* \"#utility.yul\":20066:20126   */\n      tag_505\n      jumpi\n        /* \"#utility.yul\":20122:20123   */\n      0x00\n        /* \"#utility.yul\":20119:20120   */\n      dup1\n        /* \"#utility.yul\":20112:20124   */\n      revert\n        /* \"#utility.yul\":20066:20126   */\n    tag_505:\n        /* \"#utility.yul\":20016:20132   */\n      pop\n      jump\t// out\n        /* \"#utility.yul\":20138:20260   */\n    tag_265:\n        /* \"#utility.yul\":20211:20235   */\n      tag_507\n        /* \"#utility.yul\":20229:20234   */\n      dup2\n        /* \"#utility.yul\":20211:20235   */\n      tag_388\n      jump\t// in\n    tag_507:\n        /* \"#utility.yul\":20204:20209   */\n      dup2\n        /* \"#utility.yul\":20201:20236   */\n      eq\n        /* \"#utility.yul\":20191:20254   */\n      tag_508\n      jumpi\n        /* \"#utility.yul\":20250:20251   */\n      0x00\n        /* \"#utility.yul\":20247:20248   */\n      dup1\n        /* \"#utility.yul\":20240:20252   */\n      revert\n        /* \"#utility.yul\":20191:20254   */\n    tag_508:\n        /* \"#utility.yul\":20138:20260   */\n      pop\n      jump\t// out\n\n    auxdata: 0xa2646970667358221220ae99f9d37ddc886d695c1ae704579b59404a4bb24c0c76c0fa4b68d79edf929064736f6c63430008070033\n}\n",
				"bytecode": {
					"linkReferences": {},
					"object": "60806040523480156200001157600080fd5b506040516200206338038062002063833981810160405281019062000037919062000182565b620000576200004b6200009f60201b60201c565b620000a760201b60201c565b80600460006101000a81548173ffffffffffffffffffffffffffffffffffffffff021916908373ffffffffffffffffffffffffffffffffffffffff1602179055505062000207565b600033905090565b60008060009054906101000a900473ffffffffffffffffffffffffffffffffffffffff169050816000806101000a81548173ffffffffffffffffffffffffffffffffffffffff021916908373ffffffffffffffffffffffffffffffffffffffff1602179055508173ffffffffffffffffffffffffffffffffffffffff168173ffffffffffffffffffffffffffffffffffffffff167f8be0079c531659141344cd1fd0a4f28419497f9722a3daafe3b4186f6b6457e060405160405180910390a35050565b6000815190506200017c81620001ed565b92915050565b6000602082840312156200019b576200019a620001e8565b5b6000620001ab848285016200016b565b91505092915050565b6000620001c182620001c8565b9050919050565b600073ffffffffffffffffffffffffffffffffffffffff82169050919050565b600080fd5b620001f881620001b4565b81146200020457600080fd5b50565b611e4c80620002176000396000f3fe608060405234801561001057600080fd5b50600436106101375760003560e01c80638da5cb5b116100b8578063b657dd651161007c578063b657dd6514610331578063bc15cdf014610361578063c4740a9514610391578063f2fde38b146103ad578063f737d21d146103c9578063f9cee0bd146103fa57610137565b80638da5cb5b146102755780639b3e4552146102935780639f10a990146102b1578063a59460dc146102e1578063ac128f4f146102fd57610137565b8063454f7b8f116100ff578063454f7b8f146101e35780635bedc390146102015780636fbb5a8614610231578063715018a61461024d57806376636d201461025757610137565b80630d9882701461013c578063119b22b31461016c578063158977de1461018a5780633b98bc65146101a8578063443b80a1146101c7575b600080fd5b61015660048036038101906101519190611448565b610418565b6040516101639190611959565b60405180910390f35b610174610449565b6040516101819190611959565b60405180910390f35b61019261044f565b60405161019f9190611959565b60405180910390f35b6101b0610520565b6040516101be92919061188a565b60405180910390f35b6101e160048036038101906101dc9190611448565b610749565b005b6101eb610857565b6040516101f89190611959565b60405180910390f35b61021b6004803603810190610216919061141b565b61085d565b60405161022891906118e3565b60405180910390f35b61024b6004803603810190610246919061150f565b610877565b005b610255610b10565b005b61025f610b98565b60405161026c9190611959565b60405180910390f35b61027d610b9e565b60405161028a9190611846565b60405180910390f35b61029b610bc7565b6040516102a891906118fe565b60405180910390f35b6102cb60048036038101906102c6919061141b565b610bed565b6040516102d89190611959565b60405180910390f35b6102fb60048036038101906102f69190611448565b610c39565b005b610317600480360381019061031291906114b5565b610e48565b60405161032895949392919061199d565b60405180910390f35b61034b600480360381019061034691906114b5565b610e9e565b6040516103589190611846565b60405180910390f35b61037b6004803603810190610376919061150f565b610ed1565b60405161038891906118c1565b60405180910390f35b6103ab60048036038101906103a6919061141b565b61105e565b005b6103c760048036038101906103c2919061141b565b611079565b005b6103e360048036038101906103de91906114b5565b611171565b6040516103f1929190611974565b60405180910390f35b6104026111c7565b60405161040f9190611959565b60405180910390f35b6007602052816000526040600020818154811061043457600080fd5b90600052602060002001600091509150505481565b60025481565b6000805b60015481101561051c5760006006600083815260200190815260200160002060009054906101000a900473ffffffffffffffffffffffffffffffffffffffff169050600760008273ffffffffffffffffffffffffffffffffffffffff1673ffffffffffffffffffffffffffffffffffffffff1681526020019081526020016000206000815481106104e7576104e6611ce9565b5b906000526020600020015482141561050857828061050490611bb4565b9350505b50808061051490611bb4565b915050610453565b5090565b606080600061052d61044f565b90508067ffffffffffffffff81111561054957610548611d18565b5b6040519080825280602002602001820160405280156105775781602001602082028036833780820191505090505b5092508067ffffffffffffffff81111561059457610593611d18565b5b6040519080825280602002602001820160405280156105c25781602001602082028036833780820191505090505b5091506000805b6001548110156107425760006006600083815260200190815260200160002060009054906101000a900473ffffffffffffffffffffffffffffffffffffffff169050600760008273ffffffffffffffffffffffffffffffffffffffff1673ffffffffffffffffffffffffffffffffffffffff16815260200190815260200160002060008154811061065d5761065c611ce9565b5b906000526020600020015482141561072e578086848151811061068357610682611ce9565b5b602002602001019073ffffffffffffffffffffffffffffffffffffffff16908173ffffffffffffffffffffffffffffffffffffffff1681525050600760008273ffffffffffffffffffffffffffffffffffffffff1673ffffffffffffffffffffffffffffffffffffffff1681526020019081526020016000208054905085848151811061071357610712611ce9565b5b602002602001018181525050828061072a90611bb4565b9350505b50808061073a90611bb4565b9150506105c9565b5050509091565b60005b81811015610839578260066000836001546107679190611aac565b815260200190815260200160002060006101000a81548173ffffffffffffffffffffffffffffffffffffffff021916908373ffffffffffffffffffffffffffffffffffffffff160217905550600760008473ffffffffffffffffffffffffffffffffffffffff1673ffffffffffffffffffffffffffffffffffffffff168152602001908152602001600020816001546108009190611aac565b9080600181540180825580915050600190039060005260206000200160009091909190915055808061083190611bb4565b91505061074c565b50806001600082825461084c9190611aac565b925050819055505050565b60035481565b60008061086983610bed565b905060008111915050919050565b61087f611279565b73ffffffffffffffffffffffffffffffffffffffff1661089d610b9e565b73ffffffffffffffffffffffffffffffffffffffff16146108f3576040517f08c379a00000000000000000000000000000000000000000000000000000000081526004016108ea90611939565b60405180910390fd5b60006006600084815260200190815260200160002060009054906101000a900473ffffffffffffffffffffffffffffffffffffffff1690506040518060a0016040528060015481526020018481526020018381526020014281526020018273ffffffffffffffffffffffffffffffffffffffff168152506005600060025481526020019081526020016000206000820151816000015560208201518160010155604082015181600201556060820151816003015560808201518160040160006101000a81548173ffffffffffffffffffffffffffffffffffffffff021916908373ffffffffffffffffffffffffffffffffffffffff1602179055509050508160036000828254610a039190611aac565b9250508190555060026000815480929190610a1d90611bb4565b9190505550600460009054906101000a900473ffffffffffffffffffffffffffffffffffffffff1673ffffffffffffffffffffffffffffffffffffffff1663a9059cbb82846040518363ffffffff1660e01b8152600401610a7f929190611861565b602060405180830381600087803b158015610a9957600080fd5b505af1158015610aad573d6000803e3d6000fd5b505050506040513d601f19601f82011682018060405250810190610ad19190611488565b507f2e798dd4337e515c79b64c40e1a93baa1aefbd9180ac7905e02508edd7971e508183604051610b03929190611861565b60405180910390a1505050565b610b18611279565b73ffffffffffffffffffffffffffffffffffffffff16610b36610b9e565b73ffffffffffffffffffffffffffffffffffffffff1614610b8c576040517f08c379a0000000000000000000000000000000000000000000000000000000008152600401610b8390611939565b60405180910390fd5b610b966000611281565b565b60015481565b60008060009054906101000a900473ffffffffffffffffffffffffffffffffffffffff16905090565b600460009054906101000a900473ffffffffffffffffffffffffffffffffffffffff1681565b6000600760008373ffffffffffffffffffffffffffffffffffffffff1673ffffffffffffffffffffffffffffffffffffffff168152602001908152602001600020805490509050919050565b6000610c4483610bed565b90506000811415610c555750610e44565b80821115610c61578091505b6000600190505b828111610e28576000600760008673ffffffffffffffffffffffffffffffffffffffff1673ffffffffffffffffffffffffffffffffffffffff1681526020019081526020016000206001600760008873ffffffffffffffffffffffffffffffffffffffff1673ffffffffffffffffffffffffffffffffffffffff16815260200190815260200160002080549050610cff9190611b02565b81548110610d1057610d0f611ce9565b5b906000526020600020015490506006600083600154610d2f9190611b02565b815260200190815260200160002060009054906101000a900473ffffffffffffffffffffffffffffffffffffffff166006600083815260200190815260200160002060006101000a81548173ffffffffffffffffffffffffffffffffffffffff021916908373ffffffffffffffffffffffffffffffffffffffff160217905550600760008673ffffffffffffffffffffffffffffffffffffffff1673ffffffffffffffffffffffffffffffffffffffff168152602001908152602001600020805480610dfe57610dfd611cba565b5b60019003818190600052602060002001600090559055508080610e2090611bb4565b915050610c68565b508160016000828254610e3b9190611b02565b92505081905550505b5050565b60056020528060005260406000206000915090508060000154908060010154908060020154908060030154908060040160009054906101000a900473ffffffffffffffffffffffffffffffffffffffff16905085565b60066020528060005260406000206000915054906101000a900473ffffffffffffffffffffffffffffffffffffffff1681565b60606002548210610eee576001600254610eeb9190611b02565b91505b600060018484610efe9190611b02565b610f089190611aac565b905060008167ffffffffffffffff811115610f2657610f25611d18565b5b604051908082528060200260200182016040528015610f5f57816020015b610f4c611382565b815260200190600190039081610f445790505b50925060008590505b84811161105557600560008288610f7f9190611aac565b81526020019081526020016000206040518060a0016040529081600082015481526020016001820154815260200160028201548152602001600382015481526020016004820160009054906101000a900473ffffffffffffffffffffffffffffffffffffffff1673ffffffffffffffffffffffffffffffffffffffff1673ffffffffffffffffffffffffffffffffffffffff168152505084838151811061102957611028611ce9565b5b6020026020010181905250818061103f90611bb4565b925050808061104d90611bb4565b915050610f68565b50505092915050565b600061106982610bed565b90506110758282610c39565b5050565b611081611279565b73ffffffffffffffffffffffffffffffffffffffff1661109f610b9e565b73ffffffffffffffffffffffffffffffffffffffff16146110f5576040517f08c379a00000000000000000000000000000000000000000000000000000000081526004016110ec90611939565b60405180910390fd5b600073ffffffffffffffffffffffffffffffffffffffff168173ffffffffffffffffffffffffffffffffffffffff161415611165576040517f08c379a000000000000000000000000000000000000000000000000000000000815260040161115c90611919565b60405180910390fd5b61116e81611281565b50565b60008060015461118084611345565b61118a9190611c2b565b91506006600083815260200190815260200160002060009054906101000a900473ffffffffffffffffffffffffffffffffffffffff169050915091565b6000600460009054906101000a900473ffffffffffffffffffffffffffffffffffffffff1673ffffffffffffffffffffffffffffffffffffffff166370a08231306040518263ffffffff1660e01b81526004016112249190611846565b60206040518083038186803b15801561123c57600080fd5b505afa158015611250573d6000803e3d6000fd5b505050506040513d601f19601f8201168201806040525081019061127491906114e2565b905090565b600033905090565b60008060009054906101000a900473ffffffffffffffffffffffffffffffffffffffff169050816000806101000a81548173ffffffffffffffffffffffffffffffffffffffff021916908373ffffffffffffffffffffffffffffffffffffffff1602179055508173ffffffffffffffffffffffffffffffffffffffff168173ffffffffffffffffffffffffffffffffffffffff167f8be0079c531659141344cd1fd0a4f28419497f9722a3daafe3b4186f6b6457e060405160405180910390a35050565b600081425a336001546040516020016113629594939291906117e7565b6040516020818303038152906040528051906020012060001c9050919050565b6040518060a0016040528060008152602001600081526020016000815260200160008152602001600073ffffffffffffffffffffffffffffffffffffffff1681525090565b6000813590506113d681611dd1565b92915050565b6000815190506113eb81611de8565b92915050565b60008135905061140081611dff565b92915050565b60008151905061141581611dff565b92915050565b60006020828403121561143157611430611d47565b5b600061143f848285016113c7565b91505092915050565b6000806040838503121561145f5761145e611d47565b5b600061146d858286016113c7565b925050602061147e858286016113f1565b9150509250929050565b60006020828403121561149e5761149d611d47565b5b60006114ac848285016113dc565b91505092915050565b6000602082840312156114cb576114ca611d47565b5b60006114d9848285016113f1565b91505092915050565b6000602082840312156114f8576114f7611d47565b5b600061150684828501611406565b91505092915050565b6000806040838503121561152657611525611d47565b5b6000611534858286016113f1565b9250506020611545858286016113f1565b9150509250929050565b600061155b8383611597565b60208301905092915050565b6000611573838361174a565b60a08301905092915050565b600061158b83836117b2565b60208301905092915050565b6115a081611b36565b82525050565b6115af81611b36565b82525050565b6115c66115c182611b36565b611bfd565b82525050565b60006115d782611a20565b6115e18185611a68565b93506115ec836119f0565b8060005b8381101561161d578151611604888261154f565b975061160f83611a41565b9250506001810190506115f0565b5085935050505092915050565b600061163582611a2b565b61163f8185611a79565b935061164a83611a00565b8060005b8381101561167b5781516116628882611567565b975061166d83611a4e565b92505060018101905061164e565b5085935050505092915050565b600061169382611a36565b61169d8185611a8a565b93506116a883611a10565b8060005b838110156116d95781516116c0888261157f565b97506116cb83611a5b565b9250506001810190506116ac565b5085935050505092915050565b6116ef81611b48565b82525050565b6116fe81611b7e565b82525050565b6000611711602683611a9b565b915061171c82611d59565b604082019050919050565b6000611734602083611a9b565b915061173f82611da8565b602082019050919050565b60a08201600082015161176060008501826117b2565b50602082015161177360208501826117b2565b50604082015161178660408501826117b2565b50606082015161179960608501826117b2565b5060808201516117ac6080850182611597565b50505050565b6117bb81611b74565b82525050565b6117ca81611b74565b82525050565b6117e16117dc82611b74565b611c21565b82525050565b60006117f382886117d0565b60208201915061180382876117d0565b60208201915061181382866117d0565b60208201915061182382856115b5565b60148201915061183382846117d0565b6020820191508190509695505050505050565b600060208201905061185b60008301846115a6565b92915050565b600060408201905061187660008301856115a6565b61188360208301846117c1565b9392505050565b600060408201905081810360008301526118a481856115cc565b905081810360208301526118b88184611688565b90509392505050565b600060208201905081810360008301526118db818461162a565b905092915050565b60006020820190506118f860008301846116e6565b92915050565b600060208201905061191360008301846116f5565b92915050565b6000602082019050818103600083015261193281611704565b9050919050565b6000602082019050818103600083015261195281611727565b9050919050565b600060208201905061196e60008301846117c1565b92915050565b600060408201905061198960008301856117c1565b61199660208301846115a6565b9392505050565b600060a0820190506119b260008301886117c1565b6119bf60208301876117c1565b6119cc60408301866117c1565b6119d960608301856117c1565b6119e660808301846115a6565b9695505050505050565b6000819050602082019050919050565b6000819050602082019050919050565b6000819050602082019050919050565b600081519050919050565b600081519050919050565b600081519050919050565b6000602082019050919050565b6000602082019050919050565b6000602082019050919050565b600082825260208201905092915050565b600082825260208201905092915050565b600082825260208201905092915050565b600082825260208201905092915050565b6000611ab782611b74565b9150611ac283611b74565b9250827fffffffffffffffffffffffffffffffffffffffffffffffffffffffffffffffff03821115611af757611af6611c5c565b5b828201905092915050565b6000611b0d82611b74565b9150611b1883611b74565b925082821015611b2b57611b2a611c5c565b5b828203905092915050565b6000611b4182611b54565b9050919050565b60008115159050919050565b600073ffffffffffffffffffffffffffffffffffffffff82169050919050565b6000819050919050565b6000611b8982611b90565b9050919050565b6000611b9b82611ba2565b9050919050565b6000611bad82611b54565b9050919050565b6000611bbf82611b74565b91507fffffffffffffffffffffffffffffffffffffffffffffffffffffffffffffffff821415611bf257611bf1611c5c565b5b600182019050919050565b6000611c0882611c0f565b9050919050565b6000611c1a82611d4c565b9050919050565b6000819050919050565b6000611c3682611b74565b9150611c4183611b74565b925082611c5157611c50611c8b565b5b828206905092915050565b7f4e487b7100000000000000000000000000000000000000000000000000000000600052601160045260246000fd5b7f4e487b7100000000000000000000000000000000000000000000000000000000600052601260045260246000fd5b7f4e487b7100000000000000000000000000000000000000000000000000000000600052603160045260246000fd5b7f4e487b7100000000000000000000000000000000000000000000000000000000600052603260045260246000fd5b7f4e487b7100000000000000000000000000000000000000000000000000000000600052604160045260246000fd5b600080fd5b60008160601b9050919050565b7f4f776e61626c653a206e6577206f776e657220697320746865207a65726f206160008201527f6464726573730000000000000000000000000000000000000000000000000000602082015250565b7f4f776e61626c653a2063616c6c6572206973206e6f7420746865206f776e6572600082015250565b611dda81611b36565b8114611de557600080fd5b50565b611df181611b48565b8114611dfc57600080fd5b50565b611e0881611b74565b8114611e1357600080fd5b5056fea2646970667358221220ae99f9d37ddc886d695c1ae704579b59404a4bb24c0c76c0fa4b68d79edf929064736f6c63430008070033",
					"opcodes": "PUSH1 0x80 PUSH1 0x40 MSTORE CALLVALUE DUP1 ISZERO PUSH3 0x11 JUMPI PUSH1 0x0 DUP1 REVERT JUMPDEST POP PUSH1 0x40 MLOAD PUSH3 0x2063 CODESIZE SUB DUP1 PUSH3 0x2063 DUP4 CODECOPY DUP2 DUP2 ADD PUSH1 0x40 MSTORE DUP2 ADD SWAP1 PUSH3 0x37 SWAP2 SWAP1 PUSH3 0x182 JUMP JUMPDEST PUSH3 0x57 PUSH3 0x4B PUSH3 0x9F PUSH1 0x20 SHL PUSH1 0x20 SHR JUMP JUMPDEST PUSH3 0xA7 PUSH1 0x20 SHL PUSH1 0x20 SHR JUMP JUMPDEST DUP1 PUSH1 0x4 PUSH1 0x0 PUSH2 0x100 EXP DUP2 SLOAD DUP2 PUSH20 0xFFFFFFFFFFFFFFFFFFFFFFFFFFFFFFFFFFFFFFFF MUL NOT AND SWAP1 DUP4 PUSH20 0xFFFFFFFFFFFFFFFFFFFFFFFFFFFFFFFFFFFFFFFF AND MUL OR SWAP1 SSTORE POP POP PUSH3 0x207 JUMP JUMPDEST PUSH1 0x0 CALLER SWAP1 POP SWAP1 JUMP JUMPDEST PUSH1 0x0 DUP1 PUSH1 0x0 SWAP1 SLOAD SWAP1 PUSH2 0x100 EXP SWAP1 DIV PUSH20 0xFFFFFFFFFFFFFFFFFFFFFFFFFFFFFFFFFFFFFFFF AND SWAP1 POP DUP2 PUSH1 0x0 DUP1 PUSH2 0x100 EXP DUP2 SLOAD DUP2 PUSH20 0xFFFFFFFFFFFFFFFFFFFFFFFFFFFFFFFFFFFFFFFF MUL NOT AND SWAP1 DUP4 PUSH20 0xFFFFFFFFFFFFFFFFFFFFFFFFFFFFFFFFFFFFFFFF AND MUL OR SWAP1 SSTORE POP DUP2 PUSH20 0xFFFFFFFFFFFFFFFFFFFFFFFFFFFFFFFFFFFFFFFF AND DUP2 PUSH20 0xFFFFFFFFFFFFFFFFFFFFFFFFFFFFFFFFFFFFFFFF AND PUSH32 0x8BE0079C531659141344CD1FD0A4F28419497F9722A3DAAFE3B4186F6B6457E0 PUSH1 0x40 MLOAD PUSH1 0x40 MLOAD DUP1 SWAP2 SUB SWAP1 LOG3 POP POP JUMP JUMPDEST PUSH1 0x0 DUP2 MLOAD SWAP1 POP PUSH3 0x17C DUP2 PUSH3 0x1ED JUMP JUMPDEST SWAP3 SWAP2 POP POP JUMP JUMPDEST PUSH1 0x0 PUSH1 0x20 DUP3 DUP5 SUB SLT ISZERO PUSH3 0x19B JUMPI PUSH3 0x19A PUSH3 0x1E8 JUMP JUMPDEST JUMPDEST PUSH1 0x0 PUSH3 0x1AB DUP5 DUP3 DUP6 ADD PUSH3 0x16B JUMP JUMPDEST SWAP2 POP POP SWAP3 SWAP2 POP POP JUMP JUMPDEST PUSH1 0x0 PUSH3 0x1C1 DUP3 PUSH3 0x1C8 JUMP JUMPDEST SWAP1 POP SWAP2 SWAP1 POP JUMP JUMPDEST PUSH1 0x0 PUSH20 0xFFFFFFFFFFFFFFFFFFFFFFFFFFFFFFFFFFFFFFFF DUP3 AND SWAP1 POP SWAP2 SWAP1 POP JUMP JUMPDEST PUSH1 0x0 DUP1 REVERT JUMPDEST PUSH3 0x1F8 DUP2 PUSH3 0x1B4 JUMP JUMPDEST DUP2 EQ PUSH3 0x204 JUMPI PUSH1 0x0 DUP1 REVERT JUMPDEST POP JUMP JUMPDEST PUSH2 0x1E4C DUP1 PUSH3 0x217 PUSH1 0x0 CODECOPY PUSH1 0x0 RETURN INVALID PUSH1 0x80 PUSH1 0x40 MSTORE CALLVALUE DUP1 ISZERO PUSH2 0x10 JUMPI PUSH1 0x0 DUP1 REVERT JUMPDEST POP PUSH1 0x4 CALLDATASIZE LT PUSH2 0x137 JUMPI PUSH1 0x0 CALLDATALOAD PUSH1 0xE0 SHR DUP1 PUSH4 0x8DA5CB5B GT PUSH2 0xB8 JUMPI DUP1 PUSH4 0xB657DD65 GT PUSH2 0x7C JUMPI DUP1 PUSH4 0xB657DD65 EQ PUSH2 0x331 JUMPI DUP1 PUSH4 0xBC15CDF0 EQ PUSH2 0x361 JUMPI DUP1 PUSH4 0xC4740A95 EQ PUSH2 0x391 JUMPI DUP1 PUSH4 0xF2FDE38B EQ PUSH2 0x3AD JUMPI DUP1 PUSH4 0xF737D21D EQ PUSH2 0x3C9 JUMPI DUP1 PUSH4 0xF9CEE0BD EQ PUSH2 0x3FA JUMPI PUSH2 0x137 JUMP JUMPDEST DUP1 PUSH4 0x8DA5CB5B EQ PUSH2 0x275 JUMPI DUP1 PUSH4 0x9B3E4552 EQ PUSH2 0x293 JUMPI DUP1 PUSH4 0x9F10A990 EQ PUSH2 0x2B1 JUMPI DUP1 PUSH4 0xA59460DC EQ PUSH2 0x2E1 JUMPI DUP1 PUSH4 0xAC128F4F EQ PUSH2 0x2FD JUMPI PUSH2 0x137 JUMP JUMPDEST DUP1 PUSH4 0x454F7B8F GT PUSH2 0xFF JUMPI DUP1 PUSH4 0x454F7B8F EQ PUSH2 0x1E3 JUMPI DUP1 PUSH4 0x5BEDC390 EQ PUSH2 0x201 JUMPI DUP1 PUSH4 0x6FBB5A86 EQ PUSH2 0x231 JUMPI DUP1 PUSH4 0x715018A6 EQ PUSH2 0x24D JUMPI DUP1 PUSH4 0x76636D20 EQ PUSH2 0x257 JUMPI PUSH2 0x137 JUMP JUMPDEST DUP1 PUSH4 0xD988270 EQ PUSH2 0x13C JUMPI DUP1 PUSH4 0x119B22B3 EQ PUSH2 0x16C JUMPI DUP1 PUSH4 0x158977DE EQ PUSH2 0x18A JUMPI DUP1 PUSH4 0x3B98BC65 EQ PUSH2 0x1A8 JUMPI DUP1 PUSH4 0x443B80A1 EQ PUSH2 0x1C7 JUMPI JUMPDEST PUSH1 0x0 DUP1 REVERT JUMPDEST PUSH2 0x156 PUSH1 0x4 DUP1 CALLDATASIZE SUB DUP2 ADD SWAP1 PUSH2 0x151 SWAP2 SWAP1 PUSH2 0x1448 JUMP JUMPDEST PUSH2 0x418 JUMP JUMPDEST PUSH1 0x40 MLOAD PUSH2 0x163 SWAP2 SWAP1 PUSH2 0x1959 JUMP JUMPDEST PUSH1 0x40 MLOAD DUP1 SWAP2 SUB SWAP1 RETURN JUMPDEST PUSH2 0x174 PUSH2 0x449 JUMP JUMPDEST PUSH1 0x40 MLOAD PUSH2 0x181 SWAP2 SWAP1 PUSH2 0x1959 JUMP JUMPDEST PUSH1 0x40 MLOAD DUP1 SWAP2 SUB SWAP1 RETURN JUMPDEST PUSH2 0x192 PUSH2 0x44F JUMP JUMPDEST PUSH1 0x40 MLOAD PUSH2 0x19F SWAP2 SWAP1 PUSH2 0x1959 JUMP JUMPDEST PUSH1 0x40 MLOAD DUP1 SWAP2 SUB SWAP1 RETURN JUMPDEST PUSH2 0x1B0 PUSH2 0x520 JUMP JUMPDEST PUSH1 0x40 MLOAD PUSH2 0x1BE SWAP3 SWAP2 SWAP1 PUSH2 0x188A JUMP JUMPDEST PUSH1 0x40 MLOAD DUP1 SWAP2 SUB SWAP1 RETURN JUMPDEST PUSH2 0x1E1 PUSH1 0x4 DUP1 CALLDATASIZE SUB DUP2 ADD SWAP1 PUSH2 0x1DC SWAP2 SWAP1 PUSH2 0x1448 JUMP JUMPDEST PUSH2 0x749 JUMP JUMPDEST STOP JUMPDEST PUSH2 0x1EB PUSH2 0x857 JUMP JUMPDEST PUSH1 0x40 MLOAD PUSH2 0x1F8 SWAP2 SWAP1 PUSH2 0x1959 JUMP JUMPDEST PUSH1 0x40 MLOAD DUP1 SWAP2 SUB SWAP1 RETURN JUMPDEST PUSH2 0x21B PUSH1 0x4 DUP1 CALLDATASIZE SUB DUP2 ADD SWAP1 PUSH2 0x216 SWAP2 SWAP1 PUSH2 0x141B JUMP JUMPDEST PUSH2 0x85D JUMP JUMPDEST PUSH1 0x40 MLOAD PUSH2 0x228 SWAP2 SWAP1 PUSH2 0x18E3 JUMP JUMPDEST PUSH1 0x40 MLOAD DUP1 SWAP2 SUB SWAP1 RETURN JUMPDEST PUSH2 0x24B PUSH1 0x4 DUP1 CALLDATASIZE SUB DUP2 ADD SWAP1 PUSH2 0x246 SWAP2 SWAP1 PUSH2 0x150F JUMP JUMPDEST PUSH2 0x877 JUMP JUMPDEST STOP JUMPDEST PUSH2 0x255 PUSH2 0xB10 JUMP JUMPDEST STOP JUMPDEST PUSH2 0x25F PUSH2 0xB98 JUMP JUMPDEST PUSH1 0x40 MLOAD PUSH2 0x26C SWAP2 SWAP1 PUSH2 0x1959 JUMP JUMPDEST PUSH1 0x40 MLOAD DUP1 SWAP2 SUB SWAP1 RETURN JUMPDEST PUSH2 0x27D PUSH2 0xB9E JUMP JUMPDEST PUSH1 0x40 MLOAD PUSH2 0x28A SWAP2 SWAP1 PUSH2 0x1846 JUMP JUMPDEST PUSH1 0x40 MLOAD DUP1 SWAP2 SUB SWAP1 RETURN JUMPDEST PUSH2 0x29B PUSH2 0xBC7 JUMP JUMPDEST PUSH1 0x40 MLOAD PUSH2 0x2A8 SWAP2 SWAP1 PUSH2 0x18FE JUMP JUMPDEST PUSH1 0x40 MLOAD DUP1 SWAP2 SUB SWAP1 RETURN JUMPDEST PUSH2 0x2CB PUSH1 0x4 DUP1 CALLDATASIZE SUB DUP2 ADD SWAP1 PUSH2 0x2C6 SWAP2 SWAP1 PUSH2 0x141B JUMP JUMPDEST PUSH2 0xBED JUMP JUMPDEST PUSH1 0x40 MLOAD PUSH2 0x2D8 SWAP2 SWAP1 PUSH2 0x1959 JUMP JUMPDEST PUSH1 0x40 MLOAD DUP1 SWAP2 SUB SWAP1 RETURN JUMPDEST PUSH2 0x2FB PUSH1 0x4 DUP1 CALLDATASIZE SUB DUP2 ADD SWAP1 PUSH2 0x2F6 SWAP2 SWAP1 PUSH2 0x1448 JUMP JUMPDEST PUSH2 0xC39 JUMP JUMPDEST STOP JUMPDEST PUSH2 0x317 PUSH1 0x4 DUP1 CALLDATASIZE SUB DUP2 ADD SWAP1 PUSH2 0x312 SWAP2 SWAP1 PUSH2 0x14B5 JUMP JUMPDEST PUSH2 0xE48 JUMP JUMPDEST PUSH1 0x40 MLOAD PUSH2 0x328 SWAP6 SWAP5 SWAP4 SWAP3 SWAP2 SWAP1 PUSH2 0x199D JUMP JUMPDEST PUSH1 0x40 MLOAD DUP1 SWAP2 SUB SWAP1 RETURN JUMPDEST PUSH2 0x34B PUSH1 0x4 DUP1 CALLDATASIZE SUB DUP2 ADD SWAP1 PUSH2 0x346 SWAP2 SWAP1 PUSH2 0x14B5 JUMP JUMPDEST PUSH2 0xE9E JUMP JUMPDEST PUSH1 0x40 MLOAD PUSH2 0x358 SWAP2 SWAP1 PUSH2 0x1846 JUMP JUMPDEST PUSH1 0x40 MLOAD DUP1 SWAP2 SUB SWAP1 RETURN JUMPDEST PUSH2 0x37B PUSH1 0x4 DUP1 CALLDATASIZE SUB DUP2 ADD SWAP1 PUSH2 0x376 SWAP2 SWAP1 PUSH2 0x150F JUMP JUMPDEST PUSH2 0xED1 JUMP JUMPDEST PUSH1 0x40 MLOAD PUSH2 0x388 SWAP2 SWAP1 PUSH2 0x18C1 JUMP JUMPDEST PUSH1 0x40 MLOAD DUP1 SWAP2 SUB SWAP1 RETURN JUMPDEST PUSH2 0x3AB PUSH1 0x4 DUP1 CALLDATASIZE SUB DUP2 ADD SWAP1 PUSH2 0x3A6 SWAP2 SWAP1 PUSH2 0x141B JUMP JUMPDEST PUSH2 0x105E JUMP JUMPDEST STOP JUMPDEST PUSH2 0x3C7 PUSH1 0x4 DUP1 CALLDATASIZE SUB DUP2 ADD SWAP1 PUSH2 0x3C2 SWAP2 SWAP1 PUSH2 0x141B JUMP JUMPDEST PUSH2 0x1079 JUMP JUMPDEST STOP JUMPDEST PUSH2 0x3E3 PUSH1 0x4 DUP1 CALLDATASIZE SUB DUP2 ADD SWAP1 PUSH2 0x3DE SWAP2 SWAP1 PUSH2 0x14B5 JUMP JUMPDEST PUSH2 0x1171 JUMP JUMPDEST PUSH1 0x40 MLOAD PUSH2 0x3F1 SWAP3 SWAP2 SWAP1 PUSH2 0x1974 JUMP JUMPDEST PUSH1 0x40 MLOAD DUP1 SWAP2 SUB SWAP1 RETURN JUMPDEST PUSH2 0x402 PUSH2 0x11C7 JUMP JUMPDEST PUSH1 0x40 MLOAD PUSH2 0x40F SWAP2 SWAP1 PUSH2 0x1959 JUMP JUMPDEST PUSH1 0x40 MLOAD DUP1 SWAP2 SUB SWAP1 RETURN JUMPDEST PUSH1 0x7 PUSH1 0x20 MSTORE DUP2 PUSH1 0x0 MSTORE PUSH1 0x40 PUSH1 0x0 KECCAK256 DUP2 DUP2 SLOAD DUP2 LT PUSH2 0x434 JUMPI PUSH1 0x0 DUP1 REVERT JUMPDEST SWAP1 PUSH1 0x0 MSTORE PUSH1 0x20 PUSH1 0x0 KECCAK256 ADD PUSH1 0x0 SWAP2 POP SWAP2 POP POP SLOAD DUP2 JUMP JUMPDEST PUSH1 0x2 SLOAD DUP2 JUMP JUMPDEST PUSH1 0x0 DUP1 JUMPDEST PUSH1 0x1 SLOAD DUP2 LT ISZERO PUSH2 0x51C JUMPI PUSH1 0x0 PUSH1 0x6 PUSH1 0x0 DUP4 DUP2 MSTORE PUSH1 0x20 ADD SWAP1 DUP2 MSTORE PUSH1 0x20 ADD PUSH1 0x0 KECCAK256 PUSH1 0x0 SWAP1 SLOAD SWAP1 PUSH2 0x100 EXP SWAP1 DIV PUSH20 0xFFFFFFFFFFFFFFFFFFFFFFFFFFFFFFFFFFFFFFFF AND SWAP1 POP PUSH1 0x7 PUSH1 0x0 DUP3 PUSH20 0xFFFFFFFFFFFFFFFFFFFFFFFFFFFFFFFFFFFFFFFF AND PUSH20 0xFFFFFFFFFFFFFFFFFFFFFFFFFFFFFFFFFFFFFFFF AND DUP2 MSTORE PUSH1 0x20 ADD SWAP1 DUP2 MSTORE PUSH1 0x20 ADD PUSH1 0x0 KECCAK256 PUSH1 0x0 DUP2 SLOAD DUP2 LT PUSH2 0x4E7 JUMPI PUSH2 0x4E6 PUSH2 0x1CE9 JUMP JUMPDEST JUMPDEST SWAP1 PUSH1 0x0 MSTORE PUSH1 0x20 PUSH1 0x0 KECCAK256 ADD SLOAD DUP3 EQ ISZERO PUSH2 0x508 JUMPI DUP3 DUP1 PUSH2 0x504 SWAP1 PUSH2 0x1BB4 JUMP JUMPDEST SWAP4 POP POP JUMPDEST POP DUP1 DUP1 PUSH2 0x514 SWAP1 PUSH2 0x1BB4 JUMP JUMPDEST SWAP2 POP POP PUSH2 0x453 JUMP JUMPDEST POP SWAP1 JUMP JUMPDEST PUSH1 0x60 DUP1 PUSH1 0x0 PUSH2 0x52D PUSH2 0x44F JUMP JUMPDEST SWAP1 POP DUP1 PUSH8 0xFFFFFFFFFFFFFFFF DUP2 GT ISZERO PUSH2 0x549 JUMPI PUSH2 0x548 PUSH2 0x1D18 JUMP JUMPDEST JUMPDEST PUSH1 0x40 MLOAD SWAP1 DUP1 DUP3 MSTORE DUP1 PUSH1 0x20 MUL PUSH1 0x20 ADD DUP3 ADD PUSH1 0x40 MSTORE DUP1 ISZERO PUSH2 0x577 JUMPI DUP2 PUSH1 0x20 ADD PUSH1 0x20 DUP3 MUL DUP1 CALLDATASIZE DUP4 CALLDATACOPY DUP1 DUP3 ADD SWAP2 POP POP SWAP1 POP JUMPDEST POP SWAP3 POP DUP1 PUSH8 0xFFFFFFFFFFFFFFFF DUP2 GT ISZERO PUSH2 0x594 JUMPI PUSH2 0x593 PUSH2 0x1D18 JUMP JUMPDEST JUMPDEST PUSH1 0x40 MLOAD SWAP1 DUP1 DUP3 MSTORE DUP1 PUSH1 0x20 MUL PUSH1 0x20 ADD DUP3 ADD PUSH1 0x40 MSTORE DUP1 ISZERO PUSH2 0x5C2 JUMPI DUP2 PUSH1 0x20 ADD PUSH1 0x20 DUP3 MUL DUP1 CALLDATASIZE DUP4 CALLDATACOPY DUP1 DUP3 ADD SWAP2 POP POP SWAP1 POP JUMPDEST POP SWAP2 POP PUSH1 0x0 DUP1 JUMPDEST PUSH1 0x1 SLOAD DUP2 LT ISZERO PUSH2 0x742 JUMPI PUSH1 0x0 PUSH1 0x6 PUSH1 0x0 DUP4 DUP2 MSTORE PUSH1 0x20 ADD SWAP1 DUP2 MSTORE PUSH1 0x20 ADD PUSH1 0x0 KECCAK256 PUSH1 0x0 SWAP1 SLOAD SWAP1 PUSH2 0x100 EXP SWAP1 DIV PUSH20 0xFFFFFFFFFFFFFFFFFFFFFFFFFFFFFFFFFFFFFFFF AND SWAP1 POP PUSH1 0x7 PUSH1 0x0 DUP3 PUSH20 0xFFFFFFFFFFFFFFFFFFFFFFFFFFFFFFFFFFFFFFFF AND PUSH20 0xFFFFFFFFFFFFFFFFFFFFFFFFFFFFFFFFFFFFFFFF AND DUP2 MSTORE PUSH1 0x20 ADD SWAP1 DUP2 MSTORE PUSH1 0x20 ADD PUSH1 0x0 KECCAK256 PUSH1 0x0 DUP2 SLOAD DUP2 LT PUSH2 0x65D JUMPI PUSH2 0x65C PUSH2 0x1CE9 JUMP JUMPDEST JUMPDEST SWAP1 PUSH1 0x0 MSTORE PUSH1 0x20 PUSH1 0x0 KECCAK256 ADD SLOAD DUP3 EQ ISZERO PUSH2 0x72E JUMPI DUP1 DUP7 DUP5 DUP2 MLOAD DUP2 LT PUSH2 0x683 JUMPI PUSH2 0x682 PUSH2 0x1CE9 JUMP JUMPDEST JUMPDEST PUSH1 0x20 MUL PUSH1 0x20 ADD ADD SWAP1 PUSH20 0xFFFFFFFFFFFFFFFFFFFFFFFFFFFFFFFFFFFFFFFF AND SWAP1 DUP2 PUSH20 0xFFFFFFFFFFFFFFFFFFFFFFFFFFFFFFFFFFFFFFFF AND DUP2 MSTORE POP POP PUSH1 0x7 PUSH1 0x0 DUP3 PUSH20 0xFFFFFFFFFFFFFFFFFFFFFFFFFFFFFFFFFFFFFFFF AND PUSH20 0xFFFFFFFFFFFFFFFFFFFFFFFFFFFFFFFFFFFFFFFF AND DUP2 MSTORE PUSH1 0x20 ADD SWAP1 DUP2 MSTORE PUSH1 0x20 ADD PUSH1 0x0 KECCAK256 DUP1 SLOAD SWAP1 POP DUP6 DUP5 DUP2 MLOAD DUP2 LT PUSH2 0x713 JUMPI PUSH2 0x712 PUSH2 0x1CE9 JUMP JUMPDEST JUMPDEST PUSH1 0x20 MUL PUSH1 0x20 ADD ADD DUP2 DUP2 MSTORE POP POP DUP3 DUP1 PUSH2 0x72A SWAP1 PUSH2 0x1BB4 JUMP JUMPDEST SWAP4 POP POP JUMPDEST POP DUP1 DUP1 PUSH2 0x73A SWAP1 PUSH2 0x1BB4 JUMP JUMPDEST SWAP2 POP POP PUSH2 0x5C9 JUMP JUMPDEST POP POP POP SWAP1 SWAP2 JUMP JUMPDEST PUSH1 0x0 JUMPDEST DUP2 DUP2 LT ISZERO PUSH2 0x839 JUMPI DUP3 PUSH1 0x6 PUSH1 0x0 DUP4 PUSH1 0x1 SLOAD PUSH2 0x767 SWAP2 SWAP1 PUSH2 0x1AAC JUMP JUMPDEST DUP2 MSTORE PUSH1 0x20 ADD SWAP1 DUP2 MSTORE PUSH1 0x20 ADD PUSH1 0x0 KECCAK256 PUSH1 0x0 PUSH2 0x100 EXP DUP2 SLOAD DUP2 PUSH20 0xFFFFFFFFFFFFFFFFFFFFFFFFFFFFFFFFFFFFFFFF MUL NOT AND SWAP1 DUP4 PUSH20 0xFFFFFFFFFFFFFFFFFFFFFFFFFFFFFFFFFFFFFFFF AND MUL OR SWAP1 SSTORE POP PUSH1 0x7 PUSH1 0x0 DUP5 PUSH20 0xFFFFFFFFFFFFFFFFFFFFFFFFFFFFFFFFFFFFFFFF AND PUSH20 0xFFFFFFFFFFFFFFFFFFFFFFFFFFFFFFFFFFFFFFFF AND DUP2 MSTORE PUSH1 0x20 ADD SWAP1 DUP2 MSTORE PUSH1 0x20 ADD PUSH1 0x0 KECCAK256 DUP2 PUSH1 0x1 SLOAD PUSH2 0x800 SWAP2 SWAP1 PUSH2 0x1AAC JUMP JUMPDEST SWAP1 DUP1 PUSH1 0x1 DUP2 SLOAD ADD DUP1 DUP3 SSTORE DUP1 SWAP2 POP POP PUSH1 0x1 SWAP1 SUB SWAP1 PUSH1 0x0 MSTORE PUSH1 0x20 PUSH1 0x0 KECCAK256 ADD PUSH1 0x0 SWAP1 SWAP2 SWAP1 SWAP2 SWAP1 SWAP2 POP SSTORE DUP1 DUP1 PUSH2 0x831 SWAP1 PUSH2 0x1BB4 JUMP JUMPDEST SWAP2 POP POP PUSH2 0x74C JUMP JUMPDEST POP DUP1 PUSH1 0x1 PUSH1 0x0 DUP3 DUP3 SLOAD PUSH2 0x84C SWAP2 SWAP1 PUSH2 0x1AAC JUMP JUMPDEST SWAP3 POP POP DUP2 SWAP1 SSTORE POP POP POP JUMP JUMPDEST PUSH1 0x3 SLOAD DUP2 JUMP JUMPDEST PUSH1 0x0 DUP1 PUSH2 0x869 DUP4 PUSH2 0xBED JUMP JUMPDEST SWAP1 POP PUSH1 0x0 DUP2 GT SWAP2 POP POP SWAP2 SWAP1 POP JUMP JUMPDEST PUSH2 0x87F PUSH2 0x1279 JUMP JUMPDEST PUSH20 0xFFFFFFFFFFFFFFFFFFFFFFFFFFFFFFFFFFFFFFFF AND PUSH2 0x89D PUSH2 0xB9E JUMP JUMPDEST PUSH20 0xFFFFFFFFFFFFFFFFFFFFFFFFFFFFFFFFFFFFFFFF AND EQ PUSH2 0x8F3 JUMPI PUSH1 0x40 MLOAD PUSH32 0x8C379A000000000000000000000000000000000000000000000000000000000 DUP2 MSTORE PUSH1 0x4 ADD PUSH2 0x8EA SWAP1 PUSH2 0x1939 JUMP JUMPDEST PUSH1 0x40 MLOAD DUP1 SWAP2 SUB SWAP1 REVERT JUMPDEST PUSH1 0x0 PUSH1 0x6 PUSH1 0x0 DUP5 DUP2 MSTORE PUSH1 0x20 ADD SWAP1 DUP2 MSTORE PUSH1 0x20 ADD PUSH1 0x0 KECCAK256 PUSH1 0x0 SWAP1 SLOAD SWAP1 PUSH2 0x100 EXP SWAP1 DIV PUSH20 0xFFFFFFFFFFFFFFFFFFFFFFFFFFFFFFFFFFFFFFFF AND SWAP1 POP PUSH1 0x40 MLOAD DUP1 PUSH1 0xA0 ADD PUSH1 0x40 MSTORE DUP1 PUSH1 0x1 SLOAD DUP2 MSTORE PUSH1 0x20 ADD DUP5 DUP2 MSTORE PUSH1 0x20 ADD DUP4 DUP2 MSTORE PUSH1 0x20 ADD TIMESTAMP DUP2 MSTORE PUSH1 0x20 ADD DUP3 PUSH20 0xFFFFFFFFFFFFFFFFFFFFFFFFFFFFFFFFFFFFFFFF AND DUP2 MSTORE POP PUSH1 0x5 PUSH1 0x0 PUSH1 0x2 SLOAD DUP2 MSTORE PUSH1 0x20 ADD SWAP1 DUP2 MSTORE PUSH1 0x20 ADD PUSH1 0x0 KECCAK256 PUSH1 0x0 DUP3 ADD MLOAD DUP2 PUSH1 0x0 ADD SSTORE PUSH1 0x20 DUP3 ADD MLOAD DUP2 PUSH1 0x1 ADD SSTORE PUSH1 0x40 DUP3 ADD MLOAD DUP2 PUSH1 0x2 ADD SSTORE PUSH1 0x60 DUP3 ADD MLOAD DUP2 PUSH1 0x3 ADD SSTORE PUSH1 0x80 DUP3 ADD MLOAD DUP2 PUSH1 0x4 ADD PUSH1 0x0 PUSH2 0x100 EXP DUP2 SLOAD DUP2 PUSH20 0xFFFFFFFFFFFFFFFFFFFFFFFFFFFFFFFFFFFFFFFF MUL NOT AND SWAP1 DUP4 PUSH20 0xFFFFFFFFFFFFFFFFFFFFFFFFFFFFFFFFFFFFFFFF AND MUL OR SWAP1 SSTORE POP SWAP1 POP POP DUP2 PUSH1 0x3 PUSH1 0x0 DUP3 DUP3 SLOAD PUSH2 0xA03 SWAP2 SWAP1 PUSH2 0x1AAC JUMP JUMPDEST SWAP3 POP POP DUP2 SWAP1 SSTORE POP PUSH1 0x2 PUSH1 0x0 DUP2 SLOAD DUP1 SWAP3 SWAP2 SWAP1 PUSH2 0xA1D SWAP1 PUSH2 0x1BB4 JUMP JUMPDEST SWAP2 SWAP1 POP SSTORE POP PUSH1 0x4 PUSH1 0x0 SWAP1 SLOAD SWAP1 PUSH2 0x100 EXP SWAP1 DIV PUSH20 0xFFFFFFFFFFFFFFFFFFFFFFFFFFFFFFFFFFFFFFFF AND PUSH20 0xFFFFFFFFFFFFFFFFFFFFFFFFFFFFFFFFFFFFFFFF AND PUSH4 0xA9059CBB DUP3 DUP5 PUSH1 0x40 MLOAD DUP4 PUSH4 0xFFFFFFFF AND PUSH1 0xE0 SHL DUP2 MSTORE PUSH1 0x4 ADD PUSH2 0xA7F SWAP3 SWAP2 SWAP1 PUSH2 0x1861 JUMP JUMPDEST PUSH1 0x20 PUSH1 0x40 MLOAD DUP1 DUP4 SUB DUP2 PUSH1 0x0 DUP8 DUP1 EXTCODESIZE ISZERO DUP1 ISZERO PUSH2 0xA99 JUMPI PUSH1 0x0 DUP1 REVERT JUMPDEST POP GAS CALL ISZERO DUP1 ISZERO PUSH2 0xAAD JUMPI RETURNDATASIZE PUSH1 0x0 DUP1 RETURNDATACOPY RETURNDATASIZE PUSH1 0x0 REVERT JUMPDEST POP POP POP POP PUSH1 0x40 MLOAD RETURNDATASIZE PUSH1 0x1F NOT PUSH1 0x1F DUP3 ADD AND DUP3 ADD DUP1 PUSH1 0x40 MSTORE POP DUP2 ADD SWAP1 PUSH2 0xAD1 SWAP2 SWAP1 PUSH2 0x1488 JUMP JUMPDEST POP PUSH32 0x2E798DD4337E515C79B64C40E1A93BAA1AEFBD9180AC7905E02508EDD7971E50 DUP2 DUP4 PUSH1 0x40 MLOAD PUSH2 0xB03 SWAP3 SWAP2 SWAP1 PUSH2 0x1861 JUMP JUMPDEST PUSH1 0x40 MLOAD DUP1 SWAP2 SUB SWAP1 LOG1 POP POP POP JUMP JUMPDEST PUSH2 0xB18 PUSH2 0x1279 JUMP JUMPDEST PUSH20 0xFFFFFFFFFFFFFFFFFFFFFFFFFFFFFFFFFFFFFFFF AND PUSH2 0xB36 PUSH2 0xB9E JUMP JUMPDEST PUSH20 0xFFFFFFFFFFFFFFFFFFFFFFFFFFFFFFFFFFFFFFFF AND EQ PUSH2 0xB8C JUMPI PUSH1 0x40 MLOAD PUSH32 0x8C379A000000000000000000000000000000000000000000000000000000000 DUP2 MSTORE PUSH1 0x4 ADD PUSH2 0xB83 SWAP1 PUSH2 0x1939 JUMP JUMPDEST PUSH1 0x40 MLOAD DUP1 SWAP2 SUB SWAP1 REVERT JUMPDEST PUSH2 0xB96 PUSH1 0x0 PUSH2 0x1281 JUMP JUMPDEST JUMP JUMPDEST PUSH1 0x1 SLOAD DUP2 JUMP JUMPDEST PUSH1 0x0 DUP1 PUSH1 0x0 SWAP1 SLOAD SWAP1 PUSH2 0x100 EXP SWAP1 DIV PUSH20 0xFFFFFFFFFFFFFFFFFFFFFFFFFFFFFFFFFFFFFFFF AND SWAP1 POP SWAP1 JUMP JUMPDEST PUSH1 0x4 PUSH1 0x0 SWAP1 SLOAD SWAP1 PUSH2 0x100 EXP SWAP1 DIV PUSH20 0xFFFFFFFFFFFFFFFFFFFFFFFFFFFFFFFFFFFFFFFF AND DUP2 JUMP JUMPDEST PUSH1 0x0 PUSH1 0x7 PUSH1 0x0 DUP4 PUSH20 0xFFFFFFFFFFFFFFFFFFFFFFFFFFFFFFFFFFFFFFFF AND PUSH20 0xFFFFFFFFFFFFFFFFFFFFFFFFFFFFFFFFFFFFFFFF AND DUP2 MSTORE PUSH1 0x20 ADD SWAP1 DUP2 MSTORE PUSH1 0x20 ADD PUSH1 0x0 KECCAK256 DUP1 SLOAD SWAP1 POP SWAP1 POP SWAP2 SWAP1 POP JUMP JUMPDEST PUSH1 0x0 PUSH2 0xC44 DUP4 PUSH2 0xBED JUMP JUMPDEST SWAP1 POP PUSH1 0x0 DUP2 EQ ISZERO PUSH2 0xC55 JUMPI POP PUSH2 0xE44 JUMP JUMPDEST DUP1 DUP3 GT ISZERO PUSH2 0xC61 JUMPI DUP1 SWAP2 POP JUMPDEST PUSH1 0x0 PUSH1 0x1 SWAP1 POP JUMPDEST DUP3 DUP2 GT PUSH2 0xE28 JUMPI PUSH1 0x0 PUSH1 0x7 PUSH1 0x0 DUP7 PUSH20 0xFFFFFFFFFFFFFFFFFFFFFFFFFFFFFFFFFFFFFFFF AND PUSH20 0xFFFFFFFFFFFFFFFFFFFFFFFFFFFFFFFFFFFFFFFF AND DUP2 MSTORE PUSH1 0x20 ADD SWAP1 DUP2 MSTORE PUSH1 0x20 ADD PUSH1 0x0 KECCAK256 PUSH1 0x1 PUSH1 0x7 PUSH1 0x0 DUP9 PUSH20 0xFFFFFFFFFFFFFFFFFFFFFFFFFFFFFFFFFFFFFFFF AND PUSH20 0xFFFFFFFFFFFFFFFFFFFFFFFFFFFFFFFFFFFFFFFF AND DUP2 MSTORE PUSH1 0x20 ADD SWAP1 DUP2 MSTORE PUSH1 0x20 ADD PUSH1 0x0 KECCAK256 DUP1 SLOAD SWAP1 POP PUSH2 0xCFF SWAP2 SWAP1 PUSH2 0x1B02 JUMP JUMPDEST DUP2 SLOAD DUP2 LT PUSH2 0xD10 JUMPI PUSH2 0xD0F PUSH2 0x1CE9 JUMP JUMPDEST JUMPDEST SWAP1 PUSH1 0x0 MSTORE PUSH1 0x20 PUSH1 0x0 KECCAK256 ADD SLOAD SWAP1 POP PUSH1 0x6 PUSH1 0x0 DUP4 PUSH1 0x1 SLOAD PUSH2 0xD2F SWAP2 SWAP1 PUSH2 0x1B02 JUMP JUMPDEST DUP2 MSTORE PUSH1 0x20 ADD SWAP1 DUP2 MSTORE PUSH1 0x20 ADD PUSH1 0x0 KECCAK256 PUSH1 0x0 SWAP1 SLOAD SWAP1 PUSH2 0x100 EXP SWAP1 DIV PUSH20 0xFFFFFFFFFFFFFFFFFFFFFFFFFFFFFFFFFFFFFFFF AND PUSH1 0x6 PUSH1 0x0 DUP4 DUP2 MSTORE PUSH1 0x20 ADD SWAP1 DUP2 MSTORE PUSH1 0x20 ADD PUSH1 0x0 KECCAK256 PUSH1 0x0 PUSH2 0x100 EXP DUP2 SLOAD DUP2 PUSH20 0xFFFFFFFFFFFFFFFFFFFFFFFFFFFFFFFFFFFFFFFF MUL NOT AND SWAP1 DUP4 PUSH20 0xFFFFFFFFFFFFFFFFFFFFFFFFFFFFFFFFFFFFFFFF AND MUL OR SWAP1 SSTORE POP PUSH1 0x7 PUSH1 0x0 DUP7 PUSH20 0xFFFFFFFFFFFFFFFFFFFFFFFFFFFFFFFFFFFFFFFF AND PUSH20 0xFFFFFFFFFFFFFFFFFFFFFFFFFFFFFFFFFFFFFFFF AND DUP2 MSTORE PUSH1 0x20 ADD SWAP1 DUP2 MSTORE PUSH1 0x20 ADD PUSH1 0x0 KECCAK256 DUP1 SLOAD DUP1 PUSH2 0xDFE JUMPI PUSH2 0xDFD PUSH2 0x1CBA JUMP JUMPDEST JUMPDEST PUSH1 0x1 SWAP1 SUB DUP2 DUP2 SWAP1 PUSH1 0x0 MSTORE PUSH1 0x20 PUSH1 0x0 KECCAK256 ADD PUSH1 0x0 SWAP1 SSTORE SWAP1 SSTORE POP DUP1 DUP1 PUSH2 0xE20 SWAP1 PUSH2 0x1BB4 JUMP JUMPDEST SWAP2 POP POP PUSH2 0xC68 JUMP JUMPDEST POP DUP2 PUSH1 0x1 PUSH1 0x0 DUP3 DUP3 SLOAD PUSH2 0xE3B SWAP2 SWAP1 PUSH2 0x1B02 JUMP JUMPDEST SWAP3 POP POP DUP2 SWAP1 SSTORE POP POP JUMPDEST POP POP JUMP JUMPDEST PUSH1 0x5 PUSH1 0x20 MSTORE DUP1 PUSH1 0x0 MSTORE PUSH1 0x40 PUSH1 0x0 KECCAK256 PUSH1 0x0 SWAP2 POP SWAP1 POP DUP1 PUSH1 0x0 ADD SLOAD SWAP1 DUP1 PUSH1 0x1 ADD SLOAD SWAP1 DUP1 PUSH1 0x2 ADD SLOAD SWAP1 DUP1 PUSH1 0x3 ADD SLOAD SWAP1 DUP1 PUSH1 0x4 ADD PUSH1 0x0 SWAP1 SLOAD SWAP1 PUSH2 0x100 EXP SWAP1 DIV PUSH20 0xFFFFFFFFFFFFFFFFFFFFFFFFFFFFFFFFFFFFFFFF AND SWAP1 POP DUP6 JUMP JUMPDEST PUSH1 0x6 PUSH1 0x20 MSTORE DUP1 PUSH1 0x0 MSTORE PUSH1 0x40 PUSH1 0x0 KECCAK256 PUSH1 0x0 SWAP2 POP SLOAD SWAP1 PUSH2 0x100 EXP SWAP1 DIV PUSH20 0xFFFFFFFFFFFFFFFFFFFFFFFFFFFFFFFFFFFFFFFF AND DUP2 JUMP JUMPDEST PUSH1 0x60 PUSH1 0x2 SLOAD DUP3 LT PUSH2 0xEEE JUMPI PUSH1 0x1 PUSH1 0x2 SLOAD PUSH2 0xEEB SWAP2 SWAP1 PUSH2 0x1B02 JUMP JUMPDEST SWAP2 POP JUMPDEST PUSH1 0x0 PUSH1 0x1 DUP5 DUP5 PUSH2 0xEFE SWAP2 SWAP1 PUSH2 0x1B02 JUMP JUMPDEST PUSH2 0xF08 SWAP2 SWAP1 PUSH2 0x1AAC JUMP JUMPDEST SWAP1 POP PUSH1 0x0 DUP2 PUSH8 0xFFFFFFFFFFFFFFFF DUP2 GT ISZERO PUSH2 0xF26 JUMPI PUSH2 0xF25 PUSH2 0x1D18 JUMP JUMPDEST JUMPDEST PUSH1 0x40 MLOAD SWAP1 DUP1 DUP3 MSTORE DUP1 PUSH1 0x20 MUL PUSH1 0x20 ADD DUP3 ADD PUSH1 0x40 MSTORE DUP1 ISZERO PUSH2 0xF5F JUMPI DUP2 PUSH1 0x20 ADD JUMPDEST PUSH2 0xF4C PUSH2 0x1382 JUMP JUMPDEST DUP2 MSTORE PUSH1 0x20 ADD SWAP1 PUSH1 0x1 SWAP1 SUB SWAP1 DUP2 PUSH2 0xF44 JUMPI SWAP1 POP JUMPDEST POP SWAP3 POP PUSH1 0x0 DUP6 SWAP1 POP JUMPDEST DUP5 DUP2 GT PUSH2 0x1055 JUMPI PUSH1 0x5 PUSH1 0x0 DUP3 DUP9 PUSH2 0xF7F SWAP2 SWAP1 PUSH2 0x1AAC JUMP JUMPDEST DUP2 MSTORE PUSH1 0x20 ADD SWAP1 DUP2 MSTORE PUSH1 0x20 ADD PUSH1 0x0 KECCAK256 PUSH1 0x40 MLOAD DUP1 PUSH1 0xA0 ADD PUSH1 0x40 MSTORE SWAP1 DUP2 PUSH1 0x0 DUP3 ADD SLOAD DUP2 MSTORE PUSH1 0x20 ADD PUSH1 0x1 DUP3 ADD SLOAD DUP2 MSTORE PUSH1 0x20 ADD PUSH1 0x2 DUP3 ADD SLOAD DUP2 MSTORE PUSH1 0x20 ADD PUSH1 0x3 DUP3 ADD SLOAD DUP2 MSTORE PUSH1 0x20 ADD PUSH1 0x4 DUP3 ADD PUSH1 0x0 SWAP1 SLOAD SWAP1 PUSH2 0x100 EXP SWAP1 DIV PUSH20 0xFFFFFFFFFFFFFFFFFFFFFFFFFFFFFFFFFFFFFFFF AND PUSH20 0xFFFFFFFFFFFFFFFFFFFFFFFFFFFFFFFFFFFFFFFF AND PUSH20 0xFFFFFFFFFFFFFFFFFFFFFFFFFFFFFFFFFFFFFFFF AND DUP2 MSTORE POP POP DUP5 DUP4 DUP2 MLOAD DUP2 LT PUSH2 0x1029 JUMPI PUSH2 0x1028 PUSH2 0x1CE9 JUMP JUMPDEST JUMPDEST PUSH1 0x20 MUL PUSH1 0x20 ADD ADD DUP2 SWAP1 MSTORE POP DUP2 DUP1 PUSH2 0x103F SWAP1 PUSH2 0x1BB4 JUMP JUMPDEST SWAP3 POP POP DUP1 DUP1 PUSH2 0x104D SWAP1 PUSH2 0x1BB4 JUMP JUMPDEST SWAP2 POP POP PUSH2 0xF68 JUMP JUMPDEST POP POP POP SWAP3 SWAP2 POP POP JUMP JUMPDEST PUSH1 0x0 PUSH2 0x1069 DUP3 PUSH2 0xBED JUMP JUMPDEST SWAP1 POP PUSH2 0x1075 DUP3 DUP3 PUSH2 0xC39 JUMP JUMPDEST POP POP JUMP JUMPDEST PUSH2 0x1081 PUSH2 0x1279 JUMP JUMPDEST PUSH20 0xFFFFFFFFFFFFFFFFFFFFFFFFFFFFFFFFFFFFFFFF AND PUSH2 0x109F PUSH2 0xB9E JUMP JUMPDEST PUSH20 0xFFFFFFFFFFFFFFFFFFFFFFFFFFFFFFFFFFFFFFFF AND EQ PUSH2 0x10F5 JUMPI PUSH1 0x40 MLOAD PUSH32 0x8C379A000000000000000000000000000000000000000000000000000000000 DUP2 MSTORE PUSH1 0x4 ADD PUSH2 0x10EC SWAP1 PUSH2 0x1939 JUMP JUMPDEST PUSH1 0x40 MLOAD DUP1 SWAP2 SUB SWAP1 REVERT JUMPDEST PUSH1 0x0 PUSH20 0xFFFFFFFFFFFFFFFFFFFFFFFFFFFFFFFFFFFFFFFF AND DUP2 PUSH20 0xFFFFFFFFFFFFFFFFFFFFFFFFFFFFFFFFFFFFFFFF AND EQ ISZERO PUSH2 0x1165 JUMPI PUSH1 0x40 MLOAD PUSH32 0x8C379A000000000000000000000000000000000000000000000000000000000 DUP2 MSTORE PUSH1 0x4 ADD PUSH2 0x115C SWAP1 PUSH2 0x1919 JUMP JUMPDEST PUSH1 0x40 MLOAD DUP1 SWAP2 SUB SWAP1 REVERT JUMPDEST PUSH2 0x116E DUP2 PUSH2 0x1281 JUMP JUMPDEST POP JUMP JUMPDEST PUSH1 0x0 DUP1 PUSH1 0x1 SLOAD PUSH2 0x1180 DUP5 PUSH2 0x1345 JUMP JUMPDEST PUSH2 0x118A SWAP2 SWAP1 PUSH2 0x1C2B JUMP JUMPDEST SWAP2 POP PUSH1 0x6 PUSH1 0x0 DUP4 DUP2 MSTORE PUSH1 0x20 ADD SWAP1 DUP2 MSTORE PUSH1 0x20 ADD PUSH1 0x0 KECCAK256 PUSH1 0x0 SWAP1 SLOAD SWAP1 PUSH2 0x100 EXP SWAP1 DIV PUSH20 0xFFFFFFFFFFFFFFFFFFFFFFFFFFFFFFFFFFFFFFFF AND SWAP1 POP SWAP2 POP SWAP2 JUMP JUMPDEST PUSH1 0x0 PUSH1 0x4 PUSH1 0x0 SWAP1 SLOAD SWAP1 PUSH2 0x100 EXP SWAP1 DIV PUSH20 0xFFFFFFFFFFFFFFFFFFFFFFFFFFFFFFFFFFFFFFFF AND PUSH20 0xFFFFFFFFFFFFFFFFFFFFFFFFFFFFFFFFFFFFFFFF AND PUSH4 0x70A08231 ADDRESS PUSH1 0x40 MLOAD DUP3 PUSH4 0xFFFFFFFF AND PUSH1 0xE0 SHL DUP2 MSTORE PUSH1 0x4 ADD PUSH2 0x1224 SWAP2 SWAP1 PUSH2 0x1846 JUMP JUMPDEST PUSH1 0x20 PUSH1 0x40 MLOAD DUP1 DUP4 SUB DUP2 DUP7 DUP1 EXTCODESIZE ISZERO DUP1 ISZERO PUSH2 0x123C JUMPI PUSH1 0x0 DUP1 REVERT JUMPDEST POP GAS STATICCALL ISZERO DUP1 ISZERO PUSH2 0x1250 JUMPI RETURNDATASIZE PUSH1 0x0 DUP1 RETURNDATACOPY RETURNDATASIZE PUSH1 0x0 REVERT JUMPDEST POP POP POP POP PUSH1 0x40 MLOAD RETURNDATASIZE PUSH1 0x1F NOT PUSH1 0x1F DUP3 ADD AND DUP3 ADD DUP1 PUSH1 0x40 MSTORE POP DUP2 ADD SWAP1 PUSH2 0x1274 SWAP2 SWAP1 PUSH2 0x14E2 JUMP JUMPDEST SWAP1 POP SWAP1 JUMP JUMPDEST PUSH1 0x0 CALLER SWAP1 POP SWAP1 JUMP JUMPDEST PUSH1 0x0 DUP1 PUSH1 0x0 SWAP1 SLOAD SWAP1 PUSH2 0x100 EXP SWAP1 DIV PUSH20 0xFFFFFFFFFFFFFFFFFFFFFFFFFFFFFFFFFFFFFFFF AND SWAP1 POP DUP2 PUSH1 0x0 DUP1 PUSH2 0x100 EXP DUP2 SLOAD DUP2 PUSH20 0xFFFFFFFFFFFFFFFFFFFFFFFFFFFFFFFFFFFFFFFF MUL NOT AND SWAP1 DUP4 PUSH20 0xFFFFFFFFFFFFFFFFFFFFFFFFFFFFFFFFFFFFFFFF AND MUL OR SWAP1 SSTORE POP DUP2 PUSH20 0xFFFFFFFFFFFFFFFFFFFFFFFFFFFFFFFFFFFFFFFF AND DUP2 PUSH20 0xFFFFFFFFFFFFFFFFFFFFFFFFFFFFFFFFFFFFFFFF AND PUSH32 0x8BE0079C531659141344CD1FD0A4F28419497F9722A3DAAFE3B4186F6B6457E0 PUSH1 0x40 MLOAD PUSH1 0x40 MLOAD DUP1 SWAP2 SUB SWAP1 LOG3 POP POP JUMP JUMPDEST PUSH1 0x0 DUP2 TIMESTAMP GAS CALLER PUSH1 0x1 SLOAD PUSH1 0x40 MLOAD PUSH1 0x20 ADD PUSH2 0x1362 SWAP6 SWAP5 SWAP4 SWAP3 SWAP2 SWAP1 PUSH2 0x17E7 JUMP JUMPDEST PUSH1 0x40 MLOAD PUSH1 0x20 DUP2 DUP4 SUB SUB DUP2 MSTORE SWAP1 PUSH1 0x40 MSTORE DUP1 MLOAD SWAP1 PUSH1 0x20 ADD KECCAK256 PUSH1 0x0 SHR SWAP1 POP SWAP2 SWAP1 POP JUMP JUMPDEST PUSH1 0x40 MLOAD DUP1 PUSH1 0xA0 ADD PUSH1 0x40 MSTORE DUP1 PUSH1 0x0 DUP2 MSTORE PUSH1 0x20 ADD PUSH1 0x0 DUP2 MSTORE PUSH1 0x20 ADD PUSH1 0x0 DUP2 MSTORE PUSH1 0x20 ADD PUSH1 0x0 DUP2 MSTORE PUSH1 0x20 ADD PUSH1 0x0 PUSH20 0xFFFFFFFFFFFFFFFFFFFFFFFFFFFFFFFFFFFFFFFF AND DUP2 MSTORE POP SWAP1 JUMP JUMPDEST PUSH1 0x0 DUP2 CALLDATALOAD SWAP1 POP PUSH2 0x13D6 DUP2 PUSH2 0x1DD1 JUMP JUMPDEST SWAP3 SWAP2 POP POP JUMP JUMPDEST PUSH1 0x0 DUP2 MLOAD SWAP1 POP PUSH2 0x13EB DUP2 PUSH2 0x1DE8 JUMP JUMPDEST SWAP3 SWAP2 POP POP JUMP JUMPDEST PUSH1 0x0 DUP2 CALLDATALOAD SWAP1 POP PUSH2 0x1400 DUP2 PUSH2 0x1DFF JUMP JUMPDEST SWAP3 SWAP2 POP POP JUMP JUMPDEST PUSH1 0x0 DUP2 MLOAD SWAP1 POP PUSH2 0x1415 DUP2 PUSH2 0x1DFF JUMP JUMPDEST SWAP3 SWAP2 POP POP JUMP JUMPDEST PUSH1 0x0 PUSH1 0x20 DUP3 DUP5 SUB SLT ISZERO PUSH2 0x1431 JUMPI PUSH2 0x1430 PUSH2 0x1D47 JUMP JUMPDEST JUMPDEST PUSH1 0x0 PUSH2 0x143F DUP5 DUP3 DUP6 ADD PUSH2 0x13C7 JUMP JUMPDEST SWAP2 POP POP SWAP3 SWAP2 POP POP JUMP JUMPDEST PUSH1 0x0 DUP1 PUSH1 0x40 DUP4 DUP6 SUB SLT ISZERO PUSH2 0x145F JUMPI PUSH2 0x145E PUSH2 0x1D47 JUMP JUMPDEST JUMPDEST PUSH1 0x0 PUSH2 0x146D DUP6 DUP3 DUP7 ADD PUSH2 0x13C7 JUMP JUMPDEST SWAP3 POP POP PUSH1 0x20 PUSH2 0x147E DUP6 DUP3 DUP7 ADD PUSH2 0x13F1 JUMP JUMPDEST SWAP2 POP POP SWAP3 POP SWAP3 SWAP1 POP JUMP JUMPDEST PUSH1 0x0 PUSH1 0x20 DUP3 DUP5 SUB SLT ISZERO PUSH2 0x149E JUMPI PUSH2 0x149D PUSH2 0x1D47 JUMP JUMPDEST JUMPDEST PUSH1 0x0 PUSH2 0x14AC DUP5 DUP3 DUP6 ADD PUSH2 0x13DC JUMP JUMPDEST SWAP2 POP POP SWAP3 SWAP2 POP POP JUMP JUMPDEST PUSH1 0x0 PUSH1 0x20 DUP3 DUP5 SUB SLT ISZERO PUSH2 0x14CB JUMPI PUSH2 0x14CA PUSH2 0x1D47 JUMP JUMPDEST JUMPDEST PUSH1 0x0 PUSH2 0x14D9 DUP5 DUP3 DUP6 ADD PUSH2 0x13F1 JUMP JUMPDEST SWAP2 POP POP SWAP3 SWAP2 POP POP JUMP JUMPDEST PUSH1 0x0 PUSH1 0x20 DUP3 DUP5 SUB SLT ISZERO PUSH2 0x14F8 JUMPI PUSH2 0x14F7 PUSH2 0x1D47 JUMP JUMPDEST JUMPDEST PUSH1 0x0 PUSH2 0x1506 DUP5 DUP3 DUP6 ADD PUSH2 0x1406 JUMP JUMPDEST SWAP2 POP POP SWAP3 SWAP2 POP POP JUMP JUMPDEST PUSH1 0x0 DUP1 PUSH1 0x40 DUP4 DUP6 SUB SLT ISZERO PUSH2 0x1526 JUMPI PUSH2 0x1525 PUSH2 0x1D47 JUMP JUMPDEST JUMPDEST PUSH1 0x0 PUSH2 0x1534 DUP6 DUP3 DUP7 ADD PUSH2 0x13F1 JUMP JUMPDEST SWAP3 POP POP PUSH1 0x20 PUSH2 0x1545 DUP6 DUP3 DUP7 ADD PUSH2 0x13F1 JUMP JUMPDEST SWAP2 POP POP SWAP3 POP SWAP3 SWAP1 POP JUMP JUMPDEST PUSH1 0x0 PUSH2 0x155B DUP4 DUP4 PUSH2 0x1597 JUMP JUMPDEST PUSH1 0x20 DUP4 ADD SWAP1 POP SWAP3 SWAP2 POP POP JUMP JUMPDEST PUSH1 0x0 PUSH2 0x1573 DUP4 DUP4 PUSH2 0x174A JUMP JUMPDEST PUSH1 0xA0 DUP4 ADD SWAP1 POP SWAP3 SWAP2 POP POP JUMP JUMPDEST PUSH1 0x0 PUSH2 0x158B DUP4 DUP4 PUSH2 0x17B2 JUMP JUMPDEST PUSH1 0x20 DUP4 ADD SWAP1 POP SWAP3 SWAP2 POP POP JUMP JUMPDEST PUSH2 0x15A0 DUP2 PUSH2 0x1B36 JUMP JUMPDEST DUP3 MSTORE POP POP JUMP JUMPDEST PUSH2 0x15AF DUP2 PUSH2 0x1B36 JUMP JUMPDEST DUP3 MSTORE POP POP JUMP JUMPDEST PUSH2 0x15C6 PUSH2 0x15C1 DUP3 PUSH2 0x1B36 JUMP JUMPDEST PUSH2 0x1BFD JUMP JUMPDEST DUP3 MSTORE POP POP JUMP JUMPDEST PUSH1 0x0 PUSH2 0x15D7 DUP3 PUSH2 0x1A20 JUMP JUMPDEST PUSH2 0x15E1 DUP2 DUP6 PUSH2 0x1A68 JUMP JUMPDEST SWAP4 POP PUSH2 0x15EC DUP4 PUSH2 0x19F0 JUMP JUMPDEST DUP1 PUSH1 0x0 JUMPDEST DUP4 DUP2 LT ISZERO PUSH2 0x161D JUMPI DUP2 MLOAD PUSH2 0x1604 DUP9 DUP3 PUSH2 0x154F JUMP JUMPDEST SWAP8 POP PUSH2 0x160F DUP4 PUSH2 0x1A41 JUMP JUMPDEST SWAP3 POP POP PUSH1 0x1 DUP2 ADD SWAP1 POP PUSH2 0x15F0 JUMP JUMPDEST POP DUP6 SWAP4 POP POP POP POP SWAP3 SWAP2 POP POP JUMP JUMPDEST PUSH1 0x0 PUSH2 0x1635 DUP3 PUSH2 0x1A2B JUMP JUMPDEST PUSH2 0x163F DUP2 DUP6 PUSH2 0x1A79 JUMP JUMPDEST SWAP4 POP PUSH2 0x164A DUP4 PUSH2 0x1A00 JUMP JUMPDEST DUP1 PUSH1 0x0 JUMPDEST DUP4 DUP2 LT ISZERO PUSH2 0x167B JUMPI DUP2 MLOAD PUSH2 0x1662 DUP9 DUP3 PUSH2 0x1567 JUMP JUMPDEST SWAP8 POP PUSH2 0x166D DUP4 PUSH2 0x1A4E JUMP JUMPDEST SWAP3 POP POP PUSH1 0x1 DUP2 ADD SWAP1 POP PUSH2 0x164E JUMP JUMPDEST POP DUP6 SWAP4 POP POP POP POP SWAP3 SWAP2 POP POP JUMP JUMPDEST PUSH1 0x0 PUSH2 0x1693 DUP3 PUSH2 0x1A36 JUMP JUMPDEST PUSH2 0x169D DUP2 DUP6 PUSH2 0x1A8A JUMP JUMPDEST SWAP4 POP PUSH2 0x16A8 DUP4 PUSH2 0x1A10 JUMP JUMPDEST DUP1 PUSH1 0x0 JUMPDEST DUP4 DUP2 LT ISZERO PUSH2 0x16D9 JUMPI DUP2 MLOAD PUSH2 0x16C0 DUP9 DUP3 PUSH2 0x157F JUMP JUMPDEST SWAP8 POP PUSH2 0x16CB DUP4 PUSH2 0x1A5B JUMP JUMPDEST SWAP3 POP POP PUSH1 0x1 DUP2 ADD SWAP1 POP PUSH2 0x16AC JUMP JUMPDEST POP DUP6 SWAP4 POP POP POP POP SWAP3 SWAP2 POP POP JUMP JUMPDEST PUSH2 0x16EF DUP2 PUSH2 0x1B48 JUMP JUMPDEST DUP3 MSTORE POP POP JUMP JUMPDEST PUSH2 0x16FE DUP2 PUSH2 0x1B7E JUMP JUMPDEST DUP3 MSTORE POP POP JUMP JUMPDEST PUSH1 0x0 PUSH2 0x1711 PUSH1 0x26 DUP4 PUSH2 0x1A9B JUMP JUMPDEST SWAP2 POP PUSH2 0x171C DUP3 PUSH2 0x1D59 JUMP JUMPDEST PUSH1 0x40 DUP3 ADD SWAP1 POP SWAP2 SWAP1 POP JUMP JUMPDEST PUSH1 0x0 PUSH2 0x1734 PUSH1 0x20 DUP4 PUSH2 0x1A9B JUMP JUMPDEST SWAP2 POP PUSH2 0x173F DUP3 PUSH2 0x1DA8 JUMP JUMPDEST PUSH1 0x20 DUP3 ADD SWAP1 POP SWAP2 SWAP1 POP JUMP JUMPDEST PUSH1 0xA0 DUP3 ADD PUSH1 0x0 DUP3 ADD MLOAD PUSH2 0x1760 PUSH1 0x0 DUP6 ADD DUP3 PUSH2 0x17B2 JUMP JUMPDEST POP PUSH1 0x20 DUP3 ADD MLOAD PUSH2 0x1773 PUSH1 0x20 DUP6 ADD DUP3 PUSH2 0x17B2 JUMP JUMPDEST POP PUSH1 0x40 DUP3 ADD MLOAD PUSH2 0x1786 PUSH1 0x40 DUP6 ADD DUP3 PUSH2 0x17B2 JUMP JUMPDEST POP PUSH1 0x60 DUP3 ADD MLOAD PUSH2 0x1799 PUSH1 0x60 DUP6 ADD DUP3 PUSH2 0x17B2 JUMP JUMPDEST POP PUSH1 0x80 DUP3 ADD MLOAD PUSH2 0x17AC PUSH1 0x80 DUP6 ADD DUP3 PUSH2 0x1597 JUMP JUMPDEST POP POP POP POP JUMP JUMPDEST PUSH2 0x17BB DUP2 PUSH2 0x1B74 JUMP JUMPDEST DUP3 MSTORE POP POP JUMP JUMPDEST PUSH2 0x17CA DUP2 PUSH2 0x1B74 JUMP JUMPDEST DUP3 MSTORE POP POP JUMP JUMPDEST PUSH2 0x17E1 PUSH2 0x17DC DUP3 PUSH2 0x1B74 JUMP JUMPDEST PUSH2 0x1C21 JUMP JUMPDEST DUP3 MSTORE POP POP JUMP JUMPDEST PUSH1 0x0 PUSH2 0x17F3 DUP3 DUP9 PUSH2 0x17D0 JUMP JUMPDEST PUSH1 0x20 DUP3 ADD SWAP2 POP PUSH2 0x1803 DUP3 DUP8 PUSH2 0x17D0 JUMP JUMPDEST PUSH1 0x20 DUP3 ADD SWAP2 POP PUSH2 0x1813 DUP3 DUP7 PUSH2 0x17D0 JUMP JUMPDEST PUSH1 0x20 DUP3 ADD SWAP2 POP PUSH2 0x1823 DUP3 DUP6 PUSH2 0x15B5 JUMP JUMPDEST PUSH1 0x14 DUP3 ADD SWAP2 POP PUSH2 0x1833 DUP3 DUP5 PUSH2 0x17D0 JUMP JUMPDEST PUSH1 0x20 DUP3 ADD SWAP2 POP DUP2 SWAP1 POP SWAP7 SWAP6 POP POP POP POP POP POP JUMP JUMPDEST PUSH1 0x0 PUSH1 0x20 DUP3 ADD SWAP1 POP PUSH2 0x185B PUSH1 0x0 DUP4 ADD DUP5 PUSH2 0x15A6 JUMP JUMPDEST SWAP3 SWAP2 POP POP JUMP JUMPDEST PUSH1 0x0 PUSH1 0x40 DUP3 ADD SWAP1 POP PUSH2 0x1876 PUSH1 0x0 DUP4 ADD DUP6 PUSH2 0x15A6 JUMP JUMPDEST PUSH2 0x1883 PUSH1 0x20 DUP4 ADD DUP5 PUSH2 0x17C1 JUMP JUMPDEST SWAP4 SWAP3 POP POP POP JUMP JUMPDEST PUSH1 0x0 PUSH1 0x40 DUP3 ADD SWAP1 POP DUP2 DUP2 SUB PUSH1 0x0 DUP4 ADD MSTORE PUSH2 0x18A4 DUP2 DUP6 PUSH2 0x15CC JUMP JUMPDEST SWAP1 POP DUP2 DUP2 SUB PUSH1 0x20 DUP4 ADD MSTORE PUSH2 0x18B8 DUP2 DUP5 PUSH2 0x1688 JUMP JUMPDEST SWAP1 POP SWAP4 SWAP3 POP POP POP JUMP JUMPDEST PUSH1 0x0 PUSH1 0x20 DUP3 ADD SWAP1 POP DUP2 DUP2 SUB PUSH1 0x0 DUP4 ADD MSTORE PUSH2 0x18DB DUP2 DUP5 PUSH2 0x162A JUMP JUMPDEST SWAP1 POP SWAP3 SWAP2 POP POP JUMP JUMPDEST PUSH1 0x0 PUSH1 0x20 DUP3 ADD SWAP1 POP PUSH2 0x18F8 PUSH1 0x0 DUP4 ADD DUP5 PUSH2 0x16E6 JUMP JUMPDEST SWAP3 SWAP2 POP POP JUMP JUMPDEST PUSH1 0x0 PUSH1 0x20 DUP3 ADD SWAP1 POP PUSH2 0x1913 PUSH1 0x0 DUP4 ADD DUP5 PUSH2 0x16F5 JUMP JUMPDEST SWAP3 SWAP2 POP POP JUMP JUMPDEST PUSH1 0x0 PUSH1 0x20 DUP3 ADD SWAP1 POP DUP2 DUP2 SUB PUSH1 0x0 DUP4 ADD MSTORE PUSH2 0x1932 DUP2 PUSH2 0x1704 JUMP JUMPDEST SWAP1 POP SWAP2 SWAP1 POP JUMP JUMPDEST PUSH1 0x0 PUSH1 0x20 DUP3 ADD SWAP1 POP DUP2 DUP2 SUB PUSH1 0x0 DUP4 ADD MSTORE PUSH2 0x1952 DUP2 PUSH2 0x1727 JUMP JUMPDEST SWAP1 POP SWAP2 SWAP1 POP JUMP JUMPDEST PUSH1 0x0 PUSH1 0x20 DUP3 ADD SWAP1 POP PUSH2 0x196E PUSH1 0x0 DUP4 ADD DUP5 PUSH2 0x17C1 JUMP JUMPDEST SWAP3 SWAP2 POP POP JUMP JUMPDEST PUSH1 0x0 PUSH1 0x40 DUP3 ADD SWAP1 POP PUSH2 0x1989 PUSH1 0x0 DUP4 ADD DUP6 PUSH2 0x17C1 JUMP JUMPDEST PUSH2 0x1996 PUSH1 0x20 DUP4 ADD DUP5 PUSH2 0x15A6 JUMP JUMPDEST SWAP4 SWAP3 POP POP POP JUMP JUMPDEST PUSH1 0x0 PUSH1 0xA0 DUP3 ADD SWAP1 POP PUSH2 0x19B2 PUSH1 0x0 DUP4 ADD DUP9 PUSH2 0x17C1 JUMP JUMPDEST PUSH2 0x19BF PUSH1 0x20 DUP4 ADD DUP8 PUSH2 0x17C1 JUMP JUMPDEST PUSH2 0x19CC PUSH1 0x40 DUP4 ADD DUP7 PUSH2 0x17C1 JUMP JUMPDEST PUSH2 0x19D9 PUSH1 0x60 DUP4 ADD DUP6 PUSH2 0x17C1 JUMP JUMPDEST PUSH2 0x19E6 PUSH1 0x80 DUP4 ADD DUP5 PUSH2 0x15A6 JUMP JUMPDEST SWAP7 SWAP6 POP POP POP POP POP POP JUMP JUMPDEST PUSH1 0x0 DUP2 SWAP1 POP PUSH1 0x20 DUP3 ADD SWAP1 POP SWAP2 SWAP1 POP JUMP JUMPDEST PUSH1 0x0 DUP2 SWAP1 POP PUSH1 0x20 DUP3 ADD SWAP1 POP SWAP2 SWAP1 POP JUMP JUMPDEST PUSH1 0x0 DUP2 SWAP1 POP PUSH1 0x20 DUP3 ADD SWAP1 POP SWAP2 SWAP1 POP JUMP JUMPDEST PUSH1 0x0 DUP2 MLOAD SWAP1 POP SWAP2 SWAP1 POP JUMP JUMPDEST PUSH1 0x0 DUP2 MLOAD SWAP1 POP SWAP2 SWAP1 POP JUMP JUMPDEST PUSH1 0x0 DUP2 MLOAD SWAP1 POP SWAP2 SWAP1 POP JUMP JUMPDEST PUSH1 0x0 PUSH1 0x20 DUP3 ADD SWAP1 POP SWAP2 SWAP1 POP JUMP JUMPDEST PUSH1 0x0 PUSH1 0x20 DUP3 ADD SWAP1 POP SWAP2 SWAP1 POP JUMP JUMPDEST PUSH1 0x0 PUSH1 0x20 DUP3 ADD SWAP1 POP SWAP2 SWAP1 POP JUMP JUMPDEST PUSH1 0x0 DUP3 DUP3 MSTORE PUSH1 0x20 DUP3 ADD SWAP1 POP SWAP3 SWAP2 POP POP JUMP JUMPDEST PUSH1 0x0 DUP3 DUP3 MSTORE PUSH1 0x20 DUP3 ADD SWAP1 POP SWAP3 SWAP2 POP POP JUMP JUMPDEST PUSH1 0x0 DUP3 DUP3 MSTORE PUSH1 0x20 DUP3 ADD SWAP1 POP SWAP3 SWAP2 POP POP JUMP JUMPDEST PUSH1 0x0 DUP3 DUP3 MSTORE PUSH1 0x20 DUP3 ADD SWAP1 POP SWAP3 SWAP2 POP POP JUMP JUMPDEST PUSH1 0x0 PUSH2 0x1AB7 DUP3 PUSH2 0x1B74 JUMP JUMPDEST SWAP2 POP PUSH2 0x1AC2 DUP4 PUSH2 0x1B74 JUMP JUMPDEST SWAP3 POP DUP3 PUSH32 0xFFFFFFFFFFFFFFFFFFFFFFFFFFFFFFFFFFFFFFFFFFFFFFFFFFFFFFFFFFFFFFFF SUB DUP3 GT ISZERO PUSH2 0x1AF7 JUMPI PUSH2 0x1AF6 PUSH2 0x1C5C JUMP JUMPDEST JUMPDEST DUP3 DUP3 ADD SWAP1 POP SWAP3 SWAP2 POP POP JUMP JUMPDEST PUSH1 0x0 PUSH2 0x1B0D DUP3 PUSH2 0x1B74 JUMP JUMPDEST SWAP2 POP PUSH2 0x1B18 DUP4 PUSH2 0x1B74 JUMP JUMPDEST SWAP3 POP DUP3 DUP3 LT ISZERO PUSH2 0x1B2B JUMPI PUSH2 0x1B2A PUSH2 0x1C5C JUMP JUMPDEST JUMPDEST DUP3 DUP3 SUB SWAP1 POP SWAP3 SWAP2 POP POP JUMP JUMPDEST PUSH1 0x0 PUSH2 0x1B41 DUP3 PUSH2 0x1B54 JUMP JUMPDEST SWAP1 POP SWAP2 SWAP1 POP JUMP JUMPDEST PUSH1 0x0 DUP2 ISZERO ISZERO SWAP1 POP SWAP2 SWAP1 POP JUMP JUMPDEST PUSH1 0x0 PUSH20 0xFFFFFFFFFFFFFFFFFFFFFFFFFFFFFFFFFFFFFFFF DUP3 AND SWAP1 POP SWAP2 SWAP1 POP JUMP JUMPDEST PUSH1 0x0 DUP2 SWAP1 POP SWAP2 SWAP1 POP JUMP JUMPDEST PUSH1 0x0 PUSH2 0x1B89 DUP3 PUSH2 0x1B90 JUMP JUMPDEST SWAP1 POP SWAP2 SWAP1 POP JUMP JUMPDEST PUSH1 0x0 PUSH2 0x1B9B DUP3 PUSH2 0x1BA2 JUMP JUMPDEST SWAP1 POP SWAP2 SWAP1 POP JUMP JUMPDEST PUSH1 0x0 PUSH2 0x1BAD DUP3 PUSH2 0x1B54 JUMP JUMPDEST SWAP1 POP SWAP2 SWAP1 POP JUMP JUMPDEST PUSH1 0x0 PUSH2 0x1BBF DUP3 PUSH2 0x1B74 JUMP JUMPDEST SWAP2 POP PUSH32 0xFFFFFFFFFFFFFFFFFFFFFFFFFFFFFFFFFFFFFFFFFFFFFFFFFFFFFFFFFFFFFFFF DUP3 EQ ISZERO PUSH2 0x1BF2 JUMPI PUSH2 0x1BF1 PUSH2 0x1C5C JUMP JUMPDEST JUMPDEST PUSH1 0x1 DUP3 ADD SWAP1 POP SWAP2 SWAP1 POP JUMP JUMPDEST PUSH1 0x0 PUSH2 0x1C08 DUP3 PUSH2 0x1C0F JUMP JUMPDEST SWAP1 POP SWAP2 SWAP1 POP JUMP JUMPDEST PUSH1 0x0 PUSH2 0x1C1A DUP3 PUSH2 0x1D4C JUMP JUMPDEST SWAP1 POP SWAP2 SWAP1 POP JUMP JUMPDEST PUSH1 0x0 DUP2 SWAP1 POP SWAP2 SWAP1 POP JUMP JUMPDEST PUSH1 0x0 PUSH2 0x1C36 DUP3 PUSH2 0x1B74 JUMP JUMPDEST SWAP2 POP PUSH2 0x1C41 DUP4 PUSH2 0x1B74 JUMP JUMPDEST SWAP3 POP DUP3 PUSH2 0x1C51 JUMPI PUSH2 0x1C50 PUSH2 0x1C8B JUMP JUMPDEST JUMPDEST DUP3 DUP3 MOD SWAP1 POP SWAP3 SWAP2 POP POP JUMP JUMPDEST PUSH32 0x4E487B7100000000000000000000000000000000000000000000000000000000 PUSH1 0x0 MSTORE PUSH1 0x11 PUSH1 0x4 MSTORE PUSH1 0x24 PUSH1 0x0 REVERT JUMPDEST PUSH32 0x4E487B7100000000000000000000000000000000000000000000000000000000 PUSH1 0x0 MSTORE PUSH1 0x12 PUSH1 0x4 MSTORE PUSH1 0x24 PUSH1 0x0 REVERT JUMPDEST PUSH32 0x4E487B7100000000000000000000000000000000000000000000000000000000 PUSH1 0x0 MSTORE PUSH1 0x31 PUSH1 0x4 MSTORE PUSH1 0x24 PUSH1 0x0 REVERT JUMPDEST PUSH32 0x4E487B7100000000000000000000000000000000000000000000000000000000 PUSH1 0x0 MSTORE PUSH1 0x32 PUSH1 0x4 MSTORE PUSH1 0x24 PUSH1 0x0 REVERT JUMPDEST PUSH32 0x4E487B7100000000000000000000000000000000000000000000000000000000 PUSH1 0x0 MSTORE PUSH1 0x41 PUSH1 0x4 MSTORE PUSH1 0x24 PUSH1 0x0 REVERT JUMPDEST PUSH1 0x0 DUP1 REVERT JUMPDEST PUSH1 0x0 DUP2 PUSH1 0x60 SHL SWAP1 POP SWAP2 SWAP1 POP JUMP JUMPDEST PUSH32 0x4F776E61626C653A206E6577206F776E657220697320746865207A65726F2061 PUSH1 0x0 DUP3 ADD MSTORE PUSH32 0x6464726573730000000000000000000000000000000000000000000000000000 PUSH1 0x20 DUP3 ADD MSTORE POP JUMP JUMPDEST PUSH32 0x4F776E61626C653A2063616C6C6572206973206E6F7420746865206F776E6572 PUSH1 0x0 DUP3 ADD MSTORE POP JUMP JUMPDEST PUSH2 0x1DDA DUP2 PUSH2 0x1B36 JUMP JUMPDEST DUP2 EQ PUSH2 0x1DE5 JUMPI PUSH1 0x0 DUP1 REVERT JUMPDEST POP JUMP JUMPDEST PUSH2 0x1DF1 DUP2 PUSH2 0x1B48 JUMP JUMPDEST DUP2 EQ PUSH2 0x1DFC JUMPI PUSH1 0x0 DUP1 REVERT JUMPDEST POP JUMP JUMPDEST PUSH2 0x1E08 DUP2 PUSH2 0x1B74 JUMP JUMPDEST DUP2 EQ PUSH2 0x1E13 JUMPI PUSH1 0x0 DUP1 REVERT JUMPDEST POP JUMP INVALID LOG2 PUSH5 0x6970667358 0x22 SLT KECCAK256 0xAE SWAP10 0xF9 0xD3 PUSH30 0xDC886D695C1AE704579B59404A4BB24C0C76C0FA4B68D79EDF929064736F PUSH13 0x63430008070033000000000000 "
				},
				"gasEstimates": {
					"creation": {
						"codeDepositCost": "1551200",
						"executionCost": "infinite",
						"totalCost": "infinite"
					},
					"external": {
						"acesToken()": "2645",
						"currentJackpot()": "infinite",
						"entriesIndex(address,uint256)": "infinite",
						"getUniqueAddresses()": "infinite",
						"getUniqueUsers()": "infinite",
						"isActiveAccount(address)": "2962",
						"owner()": "2545",
						"pickWinner(uint256)": "infinite",
						"removeAccount(address)": "infinite",
						"removeEntryFromWallet(address,uint256)": "infinite",
						"renounceOwnership()": "30463",
						"resultLog(uint256,uint256)": "infinite",
						"roundEntries()": "2540",
						"roundEntry(uint256)": "2861",
						"roundNum()": "2475",
						"roundResults(uint256)": "infinite",
						"totalPayout()": "2452",
						"transferOwnership(address)": "30811",
						"updateAccount(address,uint256)": "infinite",
						"updateWinner(uint256,uint256)": "infinite",
						"userEntries(address)": "2916"
					},
					"internal": {
						"random(uint256)": "infinite"
					}
				},
				"methodIdentifiers": {
					"acesToken()": "9b3e4552",
					"currentJackpot()": "f9cee0bd",
					"entriesIndex(address,uint256)": "0d988270",
					"getUniqueAddresses()": "3b98bc65",
					"getUniqueUsers()": "158977de",
					"isActiveAccount(address)": "5bedc390",
					"owner()": "8da5cb5b",
					"pickWinner(uint256)": "f737d21d",
					"removeAccount(address)": "c4740a95",
					"removeEntryFromWallet(address,uint256)": "a59460dc",
					"renounceOwnership()": "715018a6",
					"resultLog(uint256,uint256)": "bc15cdf0",
					"roundEntries()": "76636d20",
					"roundEntry(uint256)": "b657dd65",
					"roundNum()": "119b22b3",
					"roundResults(uint256)": "ac128f4f",
					"totalPayout()": "454f7b8f",
					"transferOwnership(address)": "f2fde38b",
					"updateAccount(address,uint256)": "443b80a1",
					"updateWinner(uint256,uint256)": "6fbb5a86",
					"userEntries(address)": "9f10a990"
				}
			},
			"storageLayout": {
				"storage": [
					{
						"astId": 7,
						"contract": "lotto.sol:ACELotto",
						"label": "_owner",
						"offset": 0,
						"slot": "0",
						"type": "t_address"
					},
					{
						"astId": 239,
						"contract": "lotto.sol:ACELotto",
						"label": "roundEntries",
						"offset": 0,
						"slot": "1",
						"type": "t_uint256"
					},
					{
						"astId": 241,
						"contract": "lotto.sol:ACELotto",
						"label": "roundNum",
						"offset": 0,
						"slot": "2",
						"type": "t_uint256"
					},
					{
						"astId": 243,
						"contract": "lotto.sol:ACELotto",
						"label": "totalPayout",
						"offset": 0,
						"slot": "3",
						"type": "t_uint256"
					},
					{
						"astId": 246,
						"contract": "lotto.sol:ACELotto",
						"label": "acesToken",
						"offset": 0,
						"slot": "4",
						"type": "t_contract(IERC20)182"
					},
					{
						"astId": 262,
						"contract": "lotto.sol:ACELotto",
						"label": "roundResults",
						"offset": 0,
						"slot": "5",
						"type": "t_mapping(t_uint256,t_struct(Results)257_storage)"
					},
					{
						"astId": 266,
						"contract": "lotto.sol:ACELotto",
						"label": "roundEntry",
						"offset": 0,
						"slot": "6",
						"type": "t_mapping(t_uint256,t_address)"
					},
					{
						"astId": 271,
						"contract": "lotto.sol:ACELotto",
						"label": "entriesIndex",
						"offset": 0,
						"slot": "7",
						"type": "t_mapping(t_address,t_array(t_uint256)dyn_storage)"
					}
				],
				"types": {
					"t_address": {
						"encoding": "inplace",
						"label": "address",
						"numberOfBytes": "20"
					},
					"t_array(t_uint256)dyn_storage": {
						"base": "t_uint256",
						"encoding": "dynamic_array",
						"label": "uint256[]",
						"numberOfBytes": "32"
					},
					"t_contract(IERC20)182": {
						"encoding": "inplace",
						"label": "contract IERC20",
						"numberOfBytes": "20"
					},
					"t_mapping(t_address,t_array(t_uint256)dyn_storage)": {
						"encoding": "mapping",
						"key": "t_address",
						"label": "mapping(address => uint256[])",
						"numberOfBytes": "32",
						"value": "t_array(t_uint256)dyn_storage"
					},
					"t_mapping(t_uint256,t_address)": {
						"encoding": "mapping",
						"key": "t_uint256",
						"label": "mapping(uint256 => address)",
						"numberOfBytes": "32",
						"value": "t_address"
					},
					"t_mapping(t_uint256,t_struct(Results)257_storage)": {
						"encoding": "mapping",
						"key": "t_uint256",
						"label": "mapping(uint256 => struct ACELotto.Results)",
						"numberOfBytes": "32",
						"value": "t_struct(Results)257_storage"
					},
					"t_struct(Results)257_storage": {
						"encoding": "inplace",
						"label": "struct ACELotto.Results",
						"members": [
							{
								"astId": 248,
								"contract": "lotto.sol:ACELotto",
								"label": "totalEntries",
								"offset": 0,
								"slot": "0",
								"type": "t_uint256"
							},
							{
								"astId": 250,
								"contract": "lotto.sol:ACELotto",
								"label": "winningNumber",
								"offset": 0,
								"slot": "1",
								"type": "t_uint256"
							},
							{
								"astId": 252,
								"contract": "lotto.sol:ACELotto",
								"label": "payout",
								"offset": 0,
								"slot": "2",
								"type": "t_uint256"
							},
							{
								"astId": 254,
								"contract": "lotto.sol:ACELotto",
								"label": "endTime",
								"offset": 0,
								"slot": "3",
								"type": "t_uint256"
							},
							{
								"astId": 256,
								"contract": "lotto.sol:ACELotto",
								"label": "winningAddress",
								"offset": 0,
								"slot": "4",
								"type": "t_address"
							}
						],
						"numberOfBytes": "160"
					},
					"t_uint256": {
						"encoding": "inplace",
						"label": "uint256",
						"numberOfBytes": "32"
					}
				}
			},
			"userdoc": {
				"kind": "user",
				"methods": {},
				"version": 1
			}
		}
	}
}