{
	"lotto.sol": {
		"ACELotto": {
			"abi": [
				{
					"anonymous": false,
					"inputs": [
						{
							"indexed": false,
							"internalType": "address",
							"name": "winner",
							"type": "address"
						},
						{
							"indexed": false,
							"internalType": "uint256",
							"name": "amount",
							"type": "uint256"
						}
					],
					"name": "LotteryWon",
					"type": "event"
				},
				{
					"inputs": [],
					"name": "aceSwap",
					"outputs": [
						{
							"internalType": "address",
							"name": "",
							"type": "address"
						}
					],
					"stateMutability": "view",
					"type": "function"
				},
				{
					"inputs": [],
					"name": "aceToken",
					"outputs": [
						{
							"internalType": "address",
							"name": "",
							"type": "address"
						}
					],
					"stateMutability": "view",
					"type": "function"
				},
				{
					"inputs": [],
					"name": "currentJackpot",
					"outputs": [
						{
							"internalType": "uint256",
							"name": "",
							"type": "uint256"
						}
					],
					"stateMutability": "view",
					"type": "function"
				},
				{
					"inputs": [
						{
							"internalType": "uint256",
							"name": "",
							"type": "uint256"
						},
						{
							"internalType": "address",
							"name": "",
							"type": "address"
						}
					],
					"name": "entriesPerRound",
					"outputs": [
						{
							"internalType": "uint256",
							"name": "",
							"type": "uint256"
						}
					],
					"stateMutability": "view",
					"type": "function"
				},
				{
					"inputs": [
						{
							"internalType": "address",
							"name": "",
							"type": "address"
						}
					],
					"name": "latestRoundEntered",
					"outputs": [
						{
							"internalType": "uint256",
							"name": "",
							"type": "uint256"
						}
					],
					"stateMutability": "view",
					"type": "function"
				},
				{
					"inputs": [],
					"name": "roundDuration",
					"outputs": [
						{
							"internalType": "uint256",
							"name": "",
							"type": "uint256"
						}
					],
					"stateMutability": "view",
					"type": "function"
				},
				{
					"inputs": [],
					"name": "roundEntries",
					"outputs": [
						{
							"internalType": "uint256",
							"name": "",
							"type": "uint256"
						}
					],
					"stateMutability": "view",
					"type": "function"
				},
				{
					"inputs": [
						{
							"internalType": "uint256",
							"name": "",
							"type": "uint256"
						}
					],
					"name": "roundEntry",
					"outputs": [
						{
							"internalType": "address",
							"name": "",
							"type": "address"
						}
					],
					"stateMutability": "view",
					"type": "function"
				},
				{
					"inputs": [],
					"name": "roundNum",
					"outputs": [
						{
							"internalType": "uint256",
							"name": "",
							"type": "uint256"
						}
					],
					"stateMutability": "view",
					"type": "function"
				},
				{
					"inputs": [
						{
							"internalType": "uint256",
							"name": "",
							"type": "uint256"
						}
					],
					"name": "roundResults",
					"outputs": [
						{
							"internalType": "uint256",
							"name": "totalEntries",
							"type": "uint256"
						},
						{
							"internalType": "uint256",
							"name": "winningNumber",
							"type": "uint256"
						},
						{
							"internalType": "uint256",
							"name": "payout",
							"type": "uint256"
						},
						{
							"internalType": "uint256",
							"name": "endTime",
							"type": "uint256"
						},
						{
							"internalType": "address",
							"name": "winningAddress",
							"type": "address"
						}
					],
					"stateMutability": "view",
					"type": "function"
				},
				{
					"inputs": [],
					"name": "startTime",
					"outputs": [
						{
							"internalType": "uint256",
							"name": "",
							"type": "uint256"
						}
					],
					"stateMutability": "view",
					"type": "function"
				},
				{
					"inputs": [],
					"name": "ticketPrice",
					"outputs": [
						{
							"internalType": "uint256",
							"name": "",
							"type": "uint256"
						}
					],
					"stateMutability": "view",
					"type": "function"
				},
				{
					"inputs": [],
					"name": "totalPayout",
					"outputs": [
						{
							"internalType": "uint256",
							"name": "",
							"type": "uint256"
						}
					],
					"stateMutability": "view",
					"type": "function"
				}
			],
			"devdoc": {
				"kind": "dev",
				"methods": {},
				"version": 1
			},
			"evm": {
				"assembly": "    /* \"lotto.sol\":60:883  contract ACELotto {\r... */\n  mstore(0x40, 0x80)\n    /* \"lotto.sol\":252:261  100 ether */\n  0x056bc75e2d63100000\n    /* \"lotto.sol\":223:261  uint256 public ticketPrice = 100 ether */\n  0x04\n  sstore\n    /* \"lotto.sol\":299:303  3600 */\n  0x0e10\n    /* \"lotto.sol\":268:303  uint256 public roundDuration = 3600 */\n  0x05\n  sstore\n    /* \"lotto.sol\":60:883  contract ACELotto {\r... */\n  callvalue\n  dup1\n  iszero\n  tag_1\n  jumpi\n  0x00\n  dup1\n  revert\ntag_1:\n  pop\n  dataSize(sub_0)\n  dup1\n  dataOffset(sub_0)\n  0x00\n  codecopy\n  0x00\n  return\nstop\n\nsub_0: assembly {\n        /* \"lotto.sol\":60:883  contract ACELotto {\r... */\n      mstore(0x40, 0x80)\n      callvalue\n      dup1\n      iszero\n      tag_1\n      jumpi\n      0x00\n      dup1\n      revert\n    tag_1:\n      pop\n      jumpi(tag_2, lt(calldatasize, 0x04))\n      shr(0xe0, calldataload(0x00))\n      dup1\n      0x78e97925\n      gt\n      tag_16\n      jumpi\n      dup1\n      0xb657dd65\n      gt\n      tag_17\n      jumpi\n      dup1\n      0xb657dd65\n      eq\n      tag_12\n      jumpi\n      dup1\n      0xf7cb789a\n      eq\n      tag_13\n      jumpi\n      dup1\n      0xf8d43e50\n      eq\n      tag_14\n      jumpi\n      dup1\n      0xf9cee0bd\n      eq\n      tag_15\n      jumpi\n      jump(tag_2)\n    tag_17:\n      dup1\n      0x78e97925\n      eq\n      tag_9\n      jumpi\n      dup1\n      0x958285a1\n      eq\n      tag_10\n      jumpi\n      dup1\n      0xac128f4f\n      eq\n      tag_11\n      jumpi\n      jump(tag_2)\n    tag_16:\n      dup1\n      0x119b22b3\n      eq\n      tag_3\n      jumpi\n      dup1\n      0x1209b1f6\n      eq\n      tag_4\n      jumpi\n      dup1\n      0x4024a7cd\n      eq\n      tag_5\n      jumpi\n      dup1\n      0x454f7b8f\n      eq\n      tag_6\n      jumpi\n      dup1\n      0x578e3f88\n      eq\n      tag_7\n      jumpi\n      dup1\n      0x76636d20\n      eq\n      tag_8\n      jumpi\n    tag_2:\n      0x00\n      dup1\n      revert\n        /* \"lotto.sol\":160:183  uint256 public roundNum */\n    tag_3:\n      tag_18\n      tag_19\n      jump\t// in\n    tag_18:\n      mload(0x40)\n      tag_20\n      swap2\n      swap1\n      tag_21\n      jump\t// in\n    tag_20:\n      mload(0x40)\n      dup1\n      swap2\n      sub\n      swap1\n      return\n        /* \"lotto.sol\":223:261  uint256 public ticketPrice = 100 ether */\n    tag_4:\n      tag_22\n      tag_23\n      jump\t// in\n    tag_22:\n      mload(0x40)\n      tag_24\n      swap2\n      swap1\n      tag_21\n      jump\t// in\n    tag_24:\n      mload(0x40)\n      dup1\n      swap2\n      sub\n      swap1\n      return\n        /* \"lotto.sol\":769:822  mapping(address => uint256) public latestRoundEntered */\n    tag_5:\n      tag_25\n      0x04\n      dup1\n      calldatasize\n      sub\n      dup2\n      add\n      swap1\n      tag_26\n      swap2\n      swap1\n      tag_27\n      jump\t// in\n    tag_26:\n      tag_28\n      jump\t// in\n    tag_25:\n      mload(0x40)\n      tag_29\n      swap2\n      swap1\n      tag_21\n      jump\t// in\n    tag_29:\n      mload(0x40)\n      dup1\n      swap2\n      sub\n      swap1\n      return\n        /* \"lotto.sol\":190:216  uint256 public totalPayout */\n    tag_6:\n      tag_30\n      tag_31\n      jump\t// in\n    tag_30:\n      mload(0x40)\n      tag_32\n      swap2\n      swap1\n      tag_21\n      jump\t// in\n    tag_32:\n      mload(0x40)\n      dup1\n      swap2\n      sub\n      swap1\n      return\n        /* \"lotto.sol\":692:762  mapping(uint256 => mapping(address => uint256)) public entriesPerRound */\n    tag_7:\n      tag_33\n      0x04\n      dup1\n      calldatasize\n      sub\n      dup2\n      add\n      swap1\n      tag_34\n      swap2\n      swap1\n      tag_35\n      jump\t// in\n    tag_34:\n      tag_36\n      jump\t// in\n    tag_33:\n      mload(0x40)\n      tag_37\n      swap2\n      swap1\n      tag_21\n      jump\t// in\n    tag_37:\n      mload(0x40)\n      dup1\n      swap2\n      sub\n      swap1\n      return\n        /* \"lotto.sol\":126:153  uint256 public roundEntries */\n    tag_8:\n      tag_38\n      tag_39\n      jump\t// in\n    tag_38:\n      mload(0x40)\n      tag_40\n      swap2\n      swap1\n      tag_21\n      jump\t// in\n    tag_40:\n      mload(0x40)\n      dup1\n      swap2\n      sub\n      swap1\n      return\n        /* \"lotto.sol\":310:334  uint256 public startTime */\n    tag_9:\n      tag_41\n      tag_42\n      jump\t// in\n    tag_41:\n      mload(0x40)\n      tag_43\n      swap2\n      swap1\n      tag_21\n      jump\t// in\n    tag_43:\n      mload(0x40)\n      dup1\n      swap2\n      sub\n      swap1\n      return\n        /* \"lotto.sol\":343:366  address public aceToken */\n    tag_10:\n      tag_44\n      tag_45\n      jump\t// in\n    tag_44:\n      mload(0x40)\n      tag_46\n      swap2\n      swap1\n      tag_47\n      jump\t// in\n    tag_46:\n      mload(0x40)\n      dup1\n      swap2\n      sub\n      swap1\n      return\n        /* \"lotto.sol\":586:633  mapping(uint256 => Results) public roundResults */\n    tag_11:\n      tag_48\n      0x04\n      dup1\n      calldatasize\n      sub\n      dup2\n      add\n      swap1\n      tag_49\n      swap2\n      swap1\n      tag_50\n      jump\t// in\n    tag_49:\n      tag_51\n      jump\t// in\n    tag_48:\n      mload(0x40)\n      tag_52\n      swap6\n      swap5\n      swap4\n      swap3\n      swap2\n      swap1\n      tag_53\n      jump\t// in\n    tag_52:\n      mload(0x40)\n      dup1\n      swap2\n      sub\n      swap1\n      return\n        /* \"lotto.sol\":640:685  mapping(uint256 => address) public roundEntry */\n    tag_12:\n      tag_54\n      0x04\n      dup1\n      calldatasize\n      sub\n      dup2\n      add\n      swap1\n      tag_55\n      swap2\n      swap1\n      tag_50\n      jump\t// in\n    tag_55:\n      tag_56\n      jump\t// in\n    tag_54:\n      mload(0x40)\n      tag_57\n      swap2\n      swap1\n      tag_47\n      jump\t// in\n    tag_57:\n      mload(0x40)\n      dup1\n      swap2\n      sub\n      swap1\n      return\n        /* \"lotto.sol\":268:303  uint256 public roundDuration = 3600 */\n    tag_13:\n      tag_58\n      tag_59\n      jump\t// in\n    tag_58:\n      mload(0x40)\n      tag_60\n      swap2\n      swap1\n      tag_21\n      jump\t// in\n    tag_60:\n      mload(0x40)\n      dup1\n      swap2\n      sub\n      swap1\n      return\n        /* \"lotto.sol\":373:395  address public aceSwap */\n    tag_14:\n      tag_61\n      tag_62\n      jump\t// in\n    tag_61:\n      mload(0x40)\n      tag_63\n      swap2\n      swap1\n      tag_47\n      jump\t// in\n    tag_63:\n      mload(0x40)\n      dup1\n      swap2\n      sub\n      swap1\n      return\n        /* \"lotto.sol\":90:119  uint256 public currentJackpot */\n    tag_15:\n      tag_64\n      tag_65\n      jump\t// in\n    tag_64:\n      mload(0x40)\n      tag_66\n      swap2\n      swap1\n      tag_21\n      jump\t// in\n    tag_66:\n      mload(0x40)\n      dup1\n      swap2\n      sub\n      swap1\n      return\n        /* \"lotto.sol\":160:183  uint256 public roundNum */\n    tag_19:\n      sload(0x02)\n      dup2\n      jump\t// out\n        /* \"lotto.sol\":223:261  uint256 public ticketPrice = 100 ether */\n    tag_23:\n      sload(0x04)\n      dup2\n      jump\t// out\n        /* \"lotto.sol\":769:822  mapping(address => uint256) public latestRoundEntered */\n    tag_28:\n      mstore(0x20, 0x0c)\n      dup1\n      0x00\n      mstore\n      keccak256(0x00, 0x40)\n      0x00\n      swap2\n      pop\n      swap1\n      pop\n      sload\n      dup2\n      jump\t// out\n        /* \"lotto.sol\":190:216  uint256 public totalPayout */\n    tag_31:\n      sload(0x03)\n      dup2\n      jump\t// out\n        /* \"lotto.sol\":692:762  mapping(uint256 => mapping(address => uint256)) public entriesPerRound */\n    tag_36:\n      mstore(0x20, 0x0b)\n      dup2\n      0x00\n      mstore\n      mstore(0x20, keccak256(0x00, 0x40))\n      dup1\n      0x00\n      mstore\n      keccak256(0x00, 0x40)\n      0x00\n      swap2\n      pop\n      swap2\n      pop\n      pop\n      sload\n      dup2\n      jump\t// out\n        /* \"lotto.sol\":126:153  uint256 public roundEntries */\n    tag_39:\n      sload(0x01)\n      dup2\n      jump\t// out\n        /* \"lotto.sol\":310:334  uint256 public startTime */\n    tag_42:\n      sload(0x06)\n      dup2\n      jump\t// out\n        /* \"lotto.sol\":343:366  address public aceToken */\n    tag_45:\n      0x07\n      0x00\n      swap1\n      sload\n      swap1\n      0x0100\n      exp\n      swap1\n      div\n      0xffffffffffffffffffffffffffffffffffffffff\n      and\n      dup2\n      jump\t// out\n        /* \"lotto.sol\":586:633  mapping(uint256 => Results) public roundResults */\n    tag_51:\n      mstore(0x20, 0x09)\n      dup1\n      0x00\n      mstore\n      keccak256(0x00, 0x40)\n      0x00\n      swap2\n      pop\n      swap1\n      pop\n      dup1\n      0x00\n      add\n      sload\n      swap1\n      dup1\n      0x01\n      add\n      sload\n      swap1\n      dup1\n      0x02\n      add\n      sload\n      swap1\n      dup1\n      0x03\n      add\n      sload\n      swap1\n      dup1\n      0x04\n      add\n      0x00\n      swap1\n      sload\n      swap1\n      0x0100\n      exp\n      swap1\n      div\n      0xffffffffffffffffffffffffffffffffffffffff\n      and\n      swap1\n      pop\n      dup6\n      jump\t// out\n        /* \"lotto.sol\":640:685  mapping(uint256 => address) public roundEntry */\n    tag_56:\n      mstore(0x20, 0x0a)\n      dup1\n      0x00\n      mstore\n      keccak256(0x00, 0x40)\n      0x00\n      swap2\n      pop\n      sload\n      swap1\n      0x0100\n      exp\n      swap1\n      div\n      0xffffffffffffffffffffffffffffffffffffffff\n      and\n      dup2\n      jump\t// out\n        /* \"lotto.sol\":268:303  uint256 public roundDuration = 3600 */\n    tag_59:\n      sload(0x05)\n      dup2\n      jump\t// out\n        /* \"lotto.sol\":373:395  address public aceSwap */\n    tag_62:\n      0x08\n      0x00\n      swap1\n      sload\n      swap1\n      0x0100\n      exp\n      swap1\n      div\n      0xffffffffffffffffffffffffffffffffffffffff\n      and\n      dup2\n      jump\t// out\n        /* \"lotto.sol\":90:119  uint256 public currentJackpot */\n    tag_65:\n      sload(0x00)\n      dup2\n      jump\t// out\n        /* \"#utility.yul\":7:146   */\n    tag_68:\n        /* \"#utility.yul\":53:58   */\n      0x00\n        /* \"#utility.yul\":91:97   */\n      dup2\n        /* \"#utility.yul\":78:98   */\n      calldataload\n        /* \"#utility.yul\":69:98   */\n      swap1\n      pop\n        /* \"#utility.yul\":107:140   */\n      tag_70\n        /* \"#utility.yul\":134:139   */\n      dup2\n        /* \"#utility.yul\":107:140   */\n      tag_71\n      jump\t// in\n    tag_70:\n        /* \"#utility.yul\":7:146   */\n      swap3\n      swap2\n      pop\n      pop\n      jump\t// out\n        /* \"#utility.yul\":152:291   */\n    tag_72:\n        /* \"#utility.yul\":198:203   */\n      0x00\n        /* \"#utility.yul\":236:242   */\n      dup2\n        /* \"#utility.yul\":223:243   */\n      calldataload\n        /* \"#utility.yul\":214:243   */\n      swap1\n      pop\n        /* \"#utility.yul\":252:285   */\n      tag_74\n        /* \"#utility.yul\":279:284   */\n      dup2\n        /* \"#utility.yul\":252:285   */\n      tag_75\n      jump\t// in\n    tag_74:\n        /* \"#utility.yul\":152:291   */\n      swap3\n      swap2\n      pop\n      pop\n      jump\t// out\n        /* \"#utility.yul\":297:626   */\n    tag_27:\n        /* \"#utility.yul\":356:362   */\n      0x00\n        /* \"#utility.yul\":405:407   */\n      0x20\n        /* \"#utility.yul\":393:402   */\n      dup3\n        /* \"#utility.yul\":384:391   */\n      dup5\n        /* \"#utility.yul\":380:403   */\n      sub\n        /* \"#utility.yul\":376:408   */\n      slt\n        /* \"#utility.yul\":373:492   */\n      iszero\n      tag_77\n      jumpi\n        /* \"#utility.yul\":411:490   */\n      tag_78\n      tag_79\n      jump\t// in\n    tag_78:\n        /* \"#utility.yul\":373:492   */\n    tag_77:\n        /* \"#utility.yul\":531:532   */\n      0x00\n        /* \"#utility.yul\":556:609   */\n      tag_80\n        /* \"#utility.yul\":601:608   */\n      dup5\n        /* \"#utility.yul\":592:598   */\n      dup3\n        /* \"#utility.yul\":581:590   */\n      dup6\n        /* \"#utility.yul\":577:599   */\n      add\n        /* \"#utility.yul\":556:609   */\n      tag_68\n      jump\t// in\n    tag_80:\n        /* \"#utility.yul\":546:609   */\n      swap2\n      pop\n        /* \"#utility.yul\":502:619   */\n      pop\n        /* \"#utility.yul\":297:626   */\n      swap3\n      swap2\n      pop\n      pop\n      jump\t// out\n        /* \"#utility.yul\":632:961   */\n    tag_50:\n        /* \"#utility.yul\":691:697   */\n      0x00\n        /* \"#utility.yul\":740:742   */\n      0x20\n        /* \"#utility.yul\":728:737   */\n      dup3\n        /* \"#utility.yul\":719:726   */\n      dup5\n        /* \"#utility.yul\":715:738   */\n      sub\n        /* \"#utility.yul\":711:743   */\n      slt\n        /* \"#utility.yul\":708:827   */\n      iszero\n      tag_82\n      jumpi\n        /* \"#utility.yul\":746:825   */\n      tag_83\n      tag_79\n      jump\t// in\n    tag_83:\n        /* \"#utility.yul\":708:827   */\n    tag_82:\n        /* \"#utility.yul\":866:867   */\n      0x00\n        /* \"#utility.yul\":891:944   */\n      tag_84\n        /* \"#utility.yul\":936:943   */\n      dup5\n        /* \"#utility.yul\":927:933   */\n      dup3\n        /* \"#utility.yul\":916:925   */\n      dup6\n        /* \"#utility.yul\":912:934   */\n      add\n        /* \"#utility.yul\":891:944   */\n      tag_72\n      jump\t// in\n    tag_84:\n        /* \"#utility.yul\":881:944   */\n      swap2\n      pop\n        /* \"#utility.yul\":837:954   */\n      pop\n        /* \"#utility.yul\":632:961   */\n      swap3\n      swap2\n      pop\n      pop\n      jump\t// out\n        /* \"#utility.yul\":967:1441   */\n    tag_35:\n        /* \"#utility.yul\":1035:1041   */\n      0x00\n        /* \"#utility.yul\":1043:1049   */\n      dup1\n        /* \"#utility.yul\":1092:1094   */\n      0x40\n        /* \"#utility.yul\":1080:1089   */\n      dup4\n        /* \"#utility.yul\":1071:1078   */\n      dup6\n        /* \"#utility.yul\":1067:1090   */\n      sub\n        /* \"#utility.yul\":1063:1095   */\n      slt\n        /* \"#utility.yul\":1060:1179   */\n      iszero\n      tag_86\n      jumpi\n        /* \"#utility.yul\":1098:1177   */\n      tag_87\n      tag_79\n      jump\t// in\n    tag_87:\n        /* \"#utility.yul\":1060:1179   */\n    tag_86:\n        /* \"#utility.yul\":1218:1219   */\n      0x00\n        /* \"#utility.yul\":1243:1296   */\n      tag_88\n        /* \"#utility.yul\":1288:1295   */\n      dup6\n        /* \"#utility.yul\":1279:1285   */\n      dup3\n        /* \"#utility.yul\":1268:1277   */\n      dup7\n        /* \"#utility.yul\":1264:1286   */\n      add\n        /* \"#utility.yul\":1243:1296   */\n      tag_72\n      jump\t// in\n    tag_88:\n        /* \"#utility.yul\":1233:1296   */\n      swap3\n      pop\n        /* \"#utility.yul\":1189:1306   */\n      pop\n        /* \"#utility.yul\":1345:1347   */\n      0x20\n        /* \"#utility.yul\":1371:1424   */\n      tag_89\n        /* \"#utility.yul\":1416:1423   */\n      dup6\n        /* \"#utility.yul\":1407:1413   */\n      dup3\n        /* \"#utility.yul\":1396:1405   */\n      dup7\n        /* \"#utility.yul\":1392:1414   */\n      add\n        /* \"#utility.yul\":1371:1424   */\n      tag_68\n      jump\t// in\n    tag_89:\n        /* \"#utility.yul\":1361:1424   */\n      swap2\n      pop\n        /* \"#utility.yul\":1316:1434   */\n      pop\n        /* \"#utility.yul\":967:1441   */\n      swap3\n      pop\n      swap3\n      swap1\n      pop\n      jump\t// out\n        /* \"#utility.yul\":1447:1565   */\n    tag_90:\n        /* \"#utility.yul\":1534:1558   */\n      tag_92\n        /* \"#utility.yul\":1552:1557   */\n      dup2\n        /* \"#utility.yul\":1534:1558   */\n      tag_93\n      jump\t// in\n    tag_92:\n        /* \"#utility.yul\":1529:1532   */\n      dup3\n        /* \"#utility.yul\":1522:1559   */\n      mstore\n        /* \"#utility.yul\":1447:1565   */\n      pop\n      pop\n      jump\t// out\n        /* \"#utility.yul\":1571:1689   */\n    tag_94:\n        /* \"#utility.yul\":1658:1682   */\n      tag_96\n        /* \"#utility.yul\":1676:1681   */\n      dup2\n        /* \"#utility.yul\":1658:1682   */\n      tag_97\n      jump\t// in\n    tag_96:\n        /* \"#utility.yul\":1653:1656   */\n      dup3\n        /* \"#utility.yul\":1646:1683   */\n      mstore\n        /* \"#utility.yul\":1571:1689   */\n      pop\n      pop\n      jump\t// out\n        /* \"#utility.yul\":1695:1917   */\n    tag_47:\n        /* \"#utility.yul\":1788:1792   */\n      0x00\n        /* \"#utility.yul\":1826:1828   */\n      0x20\n        /* \"#utility.yul\":1815:1824   */\n      dup3\n        /* \"#utility.yul\":1811:1829   */\n      add\n        /* \"#utility.yul\":1803:1829   */\n      swap1\n      pop\n        /* \"#utility.yul\":1839:1910   */\n      tag_99\n        /* \"#utility.yul\":1907:1908   */\n      0x00\n        /* \"#utility.yul\":1896:1905   */\n      dup4\n        /* \"#utility.yul\":1892:1909   */\n      add\n        /* \"#utility.yul\":1883:1889   */\n      dup5\n        /* \"#utility.yul\":1839:1910   */\n      tag_90\n      jump\t// in\n    tag_99:\n        /* \"#utility.yul\":1695:1917   */\n      swap3\n      swap2\n      pop\n      pop\n      jump\t// out\n        /* \"#utility.yul\":1923:2145   */\n    tag_21:\n        /* \"#utility.yul\":2016:2020   */\n      0x00\n        /* \"#utility.yul\":2054:2056   */\n      0x20\n        /* \"#utility.yul\":2043:2052   */\n      dup3\n        /* \"#utility.yul\":2039:2057   */\n      add\n        /* \"#utility.yul\":2031:2057   */\n      swap1\n      pop\n        /* \"#utility.yul\":2067:2138   */\n      tag_101\n        /* \"#utility.yul\":2135:2136   */\n      0x00\n        /* \"#utility.yul\":2124:2133   */\n      dup4\n        /* \"#utility.yul\":2120:2137   */\n      add\n        /* \"#utility.yul\":2111:2117   */\n      dup5\n        /* \"#utility.yul\":2067:2138   */\n      tag_94\n      jump\t// in\n    tag_101:\n        /* \"#utility.yul\":1923:2145   */\n      swap3\n      swap2\n      pop\n      pop\n      jump\t// out\n        /* \"#utility.yul\":2151:2815   */\n    tag_53:\n        /* \"#utility.yul\":2356:2360   */\n      0x00\n        /* \"#utility.yul\":2394:2397   */\n      0xa0\n        /* \"#utility.yul\":2383:2392   */\n      dup3\n        /* \"#utility.yul\":2379:2398   */\n      add\n        /* \"#utility.yul\":2371:2398   */\n      swap1\n      pop\n        /* \"#utility.yul\":2408:2479   */\n      tag_103\n        /* \"#utility.yul\":2476:2477   */\n      0x00\n        /* \"#utility.yul\":2465:2474   */\n      dup4\n        /* \"#utility.yul\":2461:2478   */\n      add\n        /* \"#utility.yul\":2452:2458   */\n      dup9\n        /* \"#utility.yul\":2408:2479   */\n      tag_94\n      jump\t// in\n    tag_103:\n        /* \"#utility.yul\":2489:2561   */\n      tag_104\n        /* \"#utility.yul\":2557:2559   */\n      0x20\n        /* \"#utility.yul\":2546:2555   */\n      dup4\n        /* \"#utility.yul\":2542:2560   */\n      add\n        /* \"#utility.yul\":2533:2539   */\n      dup8\n        /* \"#utility.yul\":2489:2561   */\n      tag_94\n      jump\t// in\n    tag_104:\n        /* \"#utility.yul\":2571:2643   */\n      tag_105\n        /* \"#utility.yul\":2639:2641   */\n      0x40\n        /* \"#utility.yul\":2628:2637   */\n      dup4\n        /* \"#utility.yul\":2624:2642   */\n      add\n        /* \"#utility.yul\":2615:2621   */\n      dup7\n        /* \"#utility.yul\":2571:2643   */\n      tag_94\n      jump\t// in\n    tag_105:\n        /* \"#utility.yul\":2653:2725   */\n      tag_106\n        /* \"#utility.yul\":2721:2723   */\n      0x60\n        /* \"#utility.yul\":2710:2719   */\n      dup4\n        /* \"#utility.yul\":2706:2724   */\n      add\n        /* \"#utility.yul\":2697:2703   */\n      dup6\n        /* \"#utility.yul\":2653:2725   */\n      tag_94\n      jump\t// in\n    tag_106:\n        /* \"#utility.yul\":2735:2808   */\n      tag_107\n        /* \"#utility.yul\":2803:2806   */\n      0x80\n        /* \"#utility.yul\":2792:2801   */\n      dup4\n        /* \"#utility.yul\":2788:2807   */\n      add\n        /* \"#utility.yul\":2779:2785   */\n      dup5\n        /* \"#utility.yul\":2735:2808   */\n      tag_90\n      jump\t// in\n    tag_107:\n        /* \"#utility.yul\":2151:2815   */\n      swap7\n      swap6\n      pop\n      pop\n      pop\n      pop\n      pop\n      pop\n      jump\t// out\n        /* \"#utility.yul\":2902:2998   */\n    tag_93:\n        /* \"#utility.yul\":2939:2946   */\n      0x00\n        /* \"#utility.yul\":2968:2992   */\n      tag_111\n        /* \"#utility.yul\":2986:2991   */\n      dup3\n        /* \"#utility.yul\":2968:2992   */\n      tag_112\n      jump\t// in\n    tag_111:\n        /* \"#utility.yul\":2957:2992   */\n      swap1\n      pop\n        /* \"#utility.yul\":2902:2998   */\n      swap2\n      swap1\n      pop\n      jump\t// out\n        /* \"#utility.yul\":3004:3130   */\n    tag_112:\n        /* \"#utility.yul\":3041:3048   */\n      0x00\n        /* \"#utility.yul\":3081:3123   */\n      0xffffffffffffffffffffffffffffffffffffffff\n        /* \"#utility.yul\":3074:3079   */\n      dup3\n        /* \"#utility.yul\":3070:3124   */\n      and\n        /* \"#utility.yul\":3059:3124   */\n      swap1\n      pop\n        /* \"#utility.yul\":3004:3130   */\n      swap2\n      swap1\n      pop\n      jump\t// out\n        /* \"#utility.yul\":3136:3213   */\n    tag_97:\n        /* \"#utility.yul\":3173:3180   */\n      0x00\n        /* \"#utility.yul\":3202:3207   */\n      dup2\n        /* \"#utility.yul\":3191:3207   */\n      swap1\n      pop\n        /* \"#utility.yul\":3136:3213   */\n      swap2\n      swap1\n      pop\n      jump\t// out\n        /* \"#utility.yul\":3342:3459   */\n    tag_79:\n        /* \"#utility.yul\":3451:3452   */\n      0x00\n        /* \"#utility.yul\":3448:3449   */\n      dup1\n        /* \"#utility.yul\":3441:3453   */\n      revert\n        /* \"#utility.yul\":3465:3587   */\n    tag_71:\n        /* \"#utility.yul\":3538:3562   */\n      tag_119\n        /* \"#utility.yul\":3556:3561   */\n      dup2\n        /* \"#utility.yul\":3538:3562   */\n      tag_93\n      jump\t// in\n    tag_119:\n        /* \"#utility.yul\":3531:3536   */\n      dup2\n        /* \"#utility.yul\":3528:3563   */\n      eq\n        /* \"#utility.yul\":3518:3581   */\n      tag_120\n      jumpi\n        /* \"#utility.yul\":3577:3578   */\n      0x00\n        /* \"#utility.yul\":3574:3575   */\n      dup1\n        /* \"#utility.yul\":3567:3579   */\n      revert\n        /* \"#utility.yul\":3518:3581   */\n    tag_120:\n        /* \"#utility.yul\":3465:3587   */\n      pop\n      jump\t// out\n        /* \"#utility.yul\":3593:3715   */\n    tag_75:\n        /* \"#utility.yul\":3666:3690   */\n      tag_122\n        /* \"#utility.yul\":3684:3689   */\n      dup2\n        /* \"#utility.yul\":3666:3690   */\n      tag_97\n      jump\t// in\n    tag_122:\n        /* \"#utility.yul\":3659:3664   */\n      dup2\n        /* \"#utility.yul\":3656:3691   */\n      eq\n        /* \"#utility.yul\":3646:3709   */\n      tag_123\n      jumpi\n        /* \"#utility.yul\":3705:3706   */\n      0x00\n        /* \"#utility.yul\":3702:3703   */\n      dup1\n        /* \"#utility.yul\":3695:3707   */\n      revert\n        /* \"#utility.yul\":3646:3709   */\n    tag_123:\n        /* \"#utility.yul\":3593:3715   */\n      pop\n      jump\t// out\n\n    auxdata: 0xa26469706673582212206a399a7f605017b1dee08a5cdc444089af67d6caf1317e69e050f68985b0b29064736f6c63430008070033\n}\n",
				"bytecode": {
					"linkReferences": {},
					"object": "608060405268056bc75e2d63100000600455610e1060055534801561002357600080fd5b506105f2806100336000396000f3fe608060405234801561001057600080fd5b50600436106100cf5760003560e01c806378e979251161008c578063b657dd6511610066578063b657dd651461021c578063f7cb789a1461024c578063f8d43e501461026a578063f9cee0bd14610288576100cf565b806378e97925146101ac578063958285a1146101ca578063ac128f4f146101e8576100cf565b8063119b22b3146100d45780631209b1f6146100f25780634024a7cd14610110578063454f7b8f14610140578063578e3f881461015e57806376636d201461018e575b600080fd5b6100dc6102a6565b6040516100e991906104df565b60405180910390f35b6100fa6102ac565b60405161010791906104df565b60405180910390f35b61012a6004803603810190610125919061040c565b6102b2565b60405161013791906104df565b60405180910390f35b6101486102ca565b60405161015591906104df565b60405180910390f35b61017860048036038101906101739190610466565b6102d0565b60405161018591906104df565b60405180910390f35b6101966102f5565b6040516101a391906104df565b60405180910390f35b6101b46102fb565b6040516101c191906104df565b60405180910390f35b6101d2610301565b6040516101df91906104c4565b60405180910390f35b61020260048036038101906101fd9190610439565b610327565b6040516102139594939291906104fa565b60405180910390f35b61023660048036038101906102319190610439565b61037d565b60405161024391906104c4565b60405180910390f35b6102546103b0565b60405161026191906104df565b60405180910390f35b6102726103b6565b60405161027f91906104c4565b60405180910390f35b6102906103dc565b60405161029d91906104df565b60405180910390f35b60025481565b60045481565b600c6020528060005260406000206000915090505481565b60035481565b600b602052816000526040600020602052806000526040600020600091509150505481565b60015481565b60065481565b600760009054906101000a900473ffffffffffffffffffffffffffffffffffffffff1681565b60096020528060005260406000206000915090508060000154908060010154908060020154908060030154908060040160009054906101000a900473ffffffffffffffffffffffffffffffffffffffff16905085565b600a6020528060005260406000206000915054906101000a900473ffffffffffffffffffffffffffffffffffffffff1681565b60055481565b600860009054906101000a900473ffffffffffffffffffffffffffffffffffffffff1681565b60005481565b6000813590506103f18161058e565b92915050565b600081359050610406816105a5565b92915050565b60006020828403121561042257610421610589565b5b6000610430848285016103e2565b91505092915050565b60006020828403121561044f5761044e610589565b5b600061045d848285016103f7565b91505092915050565b6000806040838503121561047d5761047c610589565b5b600061048b858286016103f7565b925050602061049c858286016103e2565b9150509250929050565b6104af8161054d565b82525050565b6104be8161057f565b82525050565b60006020820190506104d960008301846104a6565b92915050565b60006020820190506104f460008301846104b5565b92915050565b600060a08201905061050f60008301886104b5565b61051c60208301876104b5565b61052960408301866104b5565b61053660608301856104b5565b61054360808301846104a6565b9695505050505050565b60006105588261055f565b9050919050565b600073ffffffffffffffffffffffffffffffffffffffff82169050919050565b6000819050919050565b600080fd5b6105978161054d565b81146105a257600080fd5b50565b6105ae8161057f565b81146105b957600080fd5b5056fea26469706673582212206a399a7f605017b1dee08a5cdc444089af67d6caf1317e69e050f68985b0b29064736f6c63430008070033",
					"opcodes": "PUSH1 0x80 PUSH1 0x40 MSTORE PUSH9 0x56BC75E2D63100000 PUSH1 0x4 SSTORE PUSH2 0xE10 PUSH1 0x5 SSTORE CALLVALUE DUP1 ISZERO PUSH2 0x23 JUMPI PUSH1 0x0 DUP1 REVERT JUMPDEST POP PUSH2 0x5F2 DUP1 PUSH2 0x33 PUSH1 0x0 CODECOPY PUSH1 0x0 RETURN INVALID PUSH1 0x80 PUSH1 0x40 MSTORE CALLVALUE DUP1 ISZERO PUSH2 0x10 JUMPI PUSH1 0x0 DUP1 REVERT JUMPDEST POP PUSH1 0x4 CALLDATASIZE LT PUSH2 0xCF JUMPI PUSH1 0x0 CALLDATALOAD PUSH1 0xE0 SHR DUP1 PUSH4 0x78E97925 GT PUSH2 0x8C JUMPI DUP1 PUSH4 0xB657DD65 GT PUSH2 0x66 JUMPI DUP1 PUSH4 0xB657DD65 EQ PUSH2 0x21C JUMPI DUP1 PUSH4 0xF7CB789A EQ PUSH2 0x24C JUMPI DUP1 PUSH4 0xF8D43E50 EQ PUSH2 0x26A JUMPI DUP1 PUSH4 0xF9CEE0BD EQ PUSH2 0x288 JUMPI PUSH2 0xCF JUMP JUMPDEST DUP1 PUSH4 0x78E97925 EQ PUSH2 0x1AC JUMPI DUP1 PUSH4 0x958285A1 EQ PUSH2 0x1CA JUMPI DUP1 PUSH4 0xAC128F4F EQ PUSH2 0x1E8 JUMPI PUSH2 0xCF JUMP JUMPDEST DUP1 PUSH4 0x119B22B3 EQ PUSH2 0xD4 JUMPI DUP1 PUSH4 0x1209B1F6 EQ PUSH2 0xF2 JUMPI DUP1 PUSH4 0x4024A7CD EQ PUSH2 0x110 JUMPI DUP1 PUSH4 0x454F7B8F EQ PUSH2 0x140 JUMPI DUP1 PUSH4 0x578E3F88 EQ PUSH2 0x15E JUMPI DUP1 PUSH4 0x76636D20 EQ PUSH2 0x18E JUMPI JUMPDEST PUSH1 0x0 DUP1 REVERT JUMPDEST PUSH2 0xDC PUSH2 0x2A6 JUMP JUMPDEST PUSH1 0x40 MLOAD PUSH2 0xE9 SWAP2 SWAP1 PUSH2 0x4DF JUMP JUMPDEST PUSH1 0x40 MLOAD DUP1 SWAP2 SUB SWAP1 RETURN JUMPDEST PUSH2 0xFA PUSH2 0x2AC JUMP JUMPDEST PUSH1 0x40 MLOAD PUSH2 0x107 SWAP2 SWAP1 PUSH2 0x4DF JUMP JUMPDEST PUSH1 0x40 MLOAD DUP1 SWAP2 SUB SWAP1 RETURN JUMPDEST PUSH2 0x12A PUSH1 0x4 DUP1 CALLDATASIZE SUB DUP2 ADD SWAP1 PUSH2 0x125 SWAP2 SWAP1 PUSH2 0x40C JUMP JUMPDEST PUSH2 0x2B2 JUMP JUMPDEST PUSH1 0x40 MLOAD PUSH2 0x137 SWAP2 SWAP1 PUSH2 0x4DF JUMP JUMPDEST PUSH1 0x40 MLOAD DUP1 SWAP2 SUB SWAP1 RETURN JUMPDEST PUSH2 0x148 PUSH2 0x2CA JUMP JUMPDEST PUSH1 0x40 MLOAD PUSH2 0x155 SWAP2 SWAP1 PUSH2 0x4DF JUMP JUMPDEST PUSH1 0x40 MLOAD DUP1 SWAP2 SUB SWAP1 RETURN JUMPDEST PUSH2 0x178 PUSH1 0x4 DUP1 CALLDATASIZE SUB DUP2 ADD SWAP1 PUSH2 0x173 SWAP2 SWAP1 PUSH2 0x466 JUMP JUMPDEST PUSH2 0x2D0 JUMP JUMPDEST PUSH1 0x40 MLOAD PUSH2 0x185 SWAP2 SWAP1 PUSH2 0x4DF JUMP JUMPDEST PUSH1 0x40 MLOAD DUP1 SWAP2 SUB SWAP1 RETURN JUMPDEST PUSH2 0x196 PUSH2 0x2F5 JUMP JUMPDEST PUSH1 0x40 MLOAD PUSH2 0x1A3 SWAP2 SWAP1 PUSH2 0x4DF JUMP JUMPDEST PUSH1 0x40 MLOAD DUP1 SWAP2 SUB SWAP1 RETURN JUMPDEST PUSH2 0x1B4 PUSH2 0x2FB JUMP JUMPDEST PUSH1 0x40 MLOAD PUSH2 0x1C1 SWAP2 SWAP1 PUSH2 0x4DF JUMP JUMPDEST PUSH1 0x40 MLOAD DUP1 SWAP2 SUB SWAP1 RETURN JUMPDEST PUSH2 0x1D2 PUSH2 0x301 JUMP JUMPDEST PUSH1 0x40 MLOAD PUSH2 0x1DF SWAP2 SWAP1 PUSH2 0x4C4 JUMP JUMPDEST PUSH1 0x40 MLOAD DUP1 SWAP2 SUB SWAP1 RETURN JUMPDEST PUSH2 0x202 PUSH1 0x4 DUP1 CALLDATASIZE SUB DUP2 ADD SWAP1 PUSH2 0x1FD SWAP2 SWAP1 PUSH2 0x439 JUMP JUMPDEST PUSH2 0x327 JUMP JUMPDEST PUSH1 0x40 MLOAD PUSH2 0x213 SWAP6 SWAP5 SWAP4 SWAP3 SWAP2 SWAP1 PUSH2 0x4FA JUMP JUMPDEST PUSH1 0x40 MLOAD DUP1 SWAP2 SUB SWAP1 RETURN JUMPDEST PUSH2 0x236 PUSH1 0x4 DUP1 CALLDATASIZE SUB DUP2 ADD SWAP1 PUSH2 0x231 SWAP2 SWAP1 PUSH2 0x439 JUMP JUMPDEST PUSH2 0x37D JUMP JUMPDEST PUSH1 0x40 MLOAD PUSH2 0x243 SWAP2 SWAP1 PUSH2 0x4C4 JUMP JUMPDEST PUSH1 0x40 MLOAD DUP1 SWAP2 SUB SWAP1 RETURN JUMPDEST PUSH2 0x254 PUSH2 0x3B0 JUMP JUMPDEST PUSH1 0x40 MLOAD PUSH2 0x261 SWAP2 SWAP1 PUSH2 0x4DF JUMP JUMPDEST PUSH1 0x40 MLOAD DUP1 SWAP2 SUB SWAP1 RETURN JUMPDEST PUSH2 0x272 PUSH2 0x3B6 JUMP JUMPDEST PUSH1 0x40 MLOAD PUSH2 0x27F SWAP2 SWAP1 PUSH2 0x4C4 JUMP JUMPDEST PUSH1 0x40 MLOAD DUP1 SWAP2 SUB SWAP1 RETURN JUMPDEST PUSH2 0x290 PUSH2 0x3DC JUMP JUMPDEST PUSH1 0x40 MLOAD PUSH2 0x29D SWAP2 SWAP1 PUSH2 0x4DF JUMP JUMPDEST PUSH1 0x40 MLOAD DUP1 SWAP2 SUB SWAP1 RETURN JUMPDEST PUSH1 0x2 SLOAD DUP2 JUMP JUMPDEST PUSH1 0x4 SLOAD DUP2 JUMP JUMPDEST PUSH1 0xC PUSH1 0x20 MSTORE DUP1 PUSH1 0x0 MSTORE PUSH1 0x40 PUSH1 0x0 KECCAK256 PUSH1 0x0 SWAP2 POP SWAP1 POP SLOAD DUP2 JUMP JUMPDEST PUSH1 0x3 SLOAD DUP2 JUMP JUMPDEST PUSH1 0xB PUSH1 0x20 MSTORE DUP2 PUSH1 0x0 MSTORE PUSH1 0x40 PUSH1 0x0 KECCAK256 PUSH1 0x20 MSTORE DUP1 PUSH1 0x0 MSTORE PUSH1 0x40 PUSH1 0x0 KECCAK256 PUSH1 0x0 SWAP2 POP SWAP2 POP POP SLOAD DUP2 JUMP JUMPDEST PUSH1 0x1 SLOAD DUP2 JUMP JUMPDEST PUSH1 0x6 SLOAD DUP2 JUMP JUMPDEST PUSH1 0x7 PUSH1 0x0 SWAP1 SLOAD SWAP1 PUSH2 0x100 EXP SWAP1 DIV PUSH20 0xFFFFFFFFFFFFFFFFFFFFFFFFFFFFFFFFFFFFFFFF AND DUP2 JUMP JUMPDEST PUSH1 0x9 PUSH1 0x20 MSTORE DUP1 PUSH1 0x0 MSTORE PUSH1 0x40 PUSH1 0x0 KECCAK256 PUSH1 0x0 SWAP2 POP SWAP1 POP DUP1 PUSH1 0x0 ADD SLOAD SWAP1 DUP1 PUSH1 0x1 ADD SLOAD SWAP1 DUP1 PUSH1 0x2 ADD SLOAD SWAP1 DUP1 PUSH1 0x3 ADD SLOAD SWAP1 DUP1 PUSH1 0x4 ADD PUSH1 0x0 SWAP1 SLOAD SWAP1 PUSH2 0x100 EXP SWAP1 DIV PUSH20 0xFFFFFFFFFFFFFFFFFFFFFFFFFFFFFFFFFFFFFFFF AND SWAP1 POP DUP6 JUMP JUMPDEST PUSH1 0xA PUSH1 0x20 MSTORE DUP1 PUSH1 0x0 MSTORE PUSH1 0x40 PUSH1 0x0 KECCAK256 PUSH1 0x0 SWAP2 POP SLOAD SWAP1 PUSH2 0x100 EXP SWAP1 DIV PUSH20 0xFFFFFFFFFFFFFFFFFFFFFFFFFFFFFFFFFFFFFFFF AND DUP2 JUMP JUMPDEST PUSH1 0x5 SLOAD DUP2 JUMP JUMPDEST PUSH1 0x8 PUSH1 0x0 SWAP1 SLOAD SWAP1 PUSH2 0x100 EXP SWAP1 DIV PUSH20 0xFFFFFFFFFFFFFFFFFFFFFFFFFFFFFFFFFFFFFFFF AND DUP2 JUMP JUMPDEST PUSH1 0x0 SLOAD DUP2 JUMP JUMPDEST PUSH1 0x0 DUP2 CALLDATALOAD SWAP1 POP PUSH2 0x3F1 DUP2 PUSH2 0x58E JUMP JUMPDEST SWAP3 SWAP2 POP POP JUMP JUMPDEST PUSH1 0x0 DUP2 CALLDATALOAD SWAP1 POP PUSH2 0x406 DUP2 PUSH2 0x5A5 JUMP JUMPDEST SWAP3 SWAP2 POP POP JUMP JUMPDEST PUSH1 0x0 PUSH1 0x20 DUP3 DUP5 SUB SLT ISZERO PUSH2 0x422 JUMPI PUSH2 0x421 PUSH2 0x589 JUMP JUMPDEST JUMPDEST PUSH1 0x0 PUSH2 0x430 DUP5 DUP3 DUP6 ADD PUSH2 0x3E2 JUMP JUMPDEST SWAP2 POP POP SWAP3 SWAP2 POP POP JUMP JUMPDEST PUSH1 0x0 PUSH1 0x20 DUP3 DUP5 SUB SLT ISZERO PUSH2 0x44F JUMPI PUSH2 0x44E PUSH2 0x589 JUMP JUMPDEST JUMPDEST PUSH1 0x0 PUSH2 0x45D DUP5 DUP3 DUP6 ADD PUSH2 0x3F7 JUMP JUMPDEST SWAP2 POP POP SWAP3 SWAP2 POP POP JUMP JUMPDEST PUSH1 0x0 DUP1 PUSH1 0x40 DUP4 DUP6 SUB SLT ISZERO PUSH2 0x47D JUMPI PUSH2 0x47C PUSH2 0x589 JUMP JUMPDEST JUMPDEST PUSH1 0x0 PUSH2 0x48B DUP6 DUP3 DUP7 ADD PUSH2 0x3F7 JUMP JUMPDEST SWAP3 POP POP PUSH1 0x20 PUSH2 0x49C DUP6 DUP3 DUP7 ADD PUSH2 0x3E2 JUMP JUMPDEST SWAP2 POP POP SWAP3 POP SWAP3 SWAP1 POP JUMP JUMPDEST PUSH2 0x4AF DUP2 PUSH2 0x54D JUMP JUMPDEST DUP3 MSTORE POP POP JUMP JUMPDEST PUSH2 0x4BE DUP2 PUSH2 0x57F JUMP JUMPDEST DUP3 MSTORE POP POP JUMP JUMPDEST PUSH1 0x0 PUSH1 0x20 DUP3 ADD SWAP1 POP PUSH2 0x4D9 PUSH1 0x0 DUP4 ADD DUP5 PUSH2 0x4A6 JUMP JUMPDEST SWAP3 SWAP2 POP POP JUMP JUMPDEST PUSH1 0x0 PUSH1 0x20 DUP3 ADD SWAP1 POP PUSH2 0x4F4 PUSH1 0x0 DUP4 ADD DUP5 PUSH2 0x4B5 JUMP JUMPDEST SWAP3 SWAP2 POP POP JUMP JUMPDEST PUSH1 0x0 PUSH1 0xA0 DUP3 ADD SWAP1 POP PUSH2 0x50F PUSH1 0x0 DUP4 ADD DUP9 PUSH2 0x4B5 JUMP JUMPDEST PUSH2 0x51C PUSH1 0x20 DUP4 ADD DUP8 PUSH2 0x4B5 JUMP JUMPDEST PUSH2 0x529 PUSH1 0x40 DUP4 ADD DUP7 PUSH2 0x4B5 JUMP JUMPDEST PUSH2 0x536 PUSH1 0x60 DUP4 ADD DUP6 PUSH2 0x4B5 JUMP JUMPDEST PUSH2 0x543 PUSH1 0x80 DUP4 ADD DUP5 PUSH2 0x4A6 JUMP JUMPDEST SWAP7 SWAP6 POP POP POP POP POP POP JUMP JUMPDEST PUSH1 0x0 PUSH2 0x558 DUP3 PUSH2 0x55F JUMP JUMPDEST SWAP1 POP SWAP2 SWAP1 POP JUMP JUMPDEST PUSH1 0x0 PUSH20 0xFFFFFFFFFFFFFFFFFFFFFFFFFFFFFFFFFFFFFFFF DUP3 AND SWAP1 POP SWAP2 SWAP1 POP JUMP JUMPDEST PUSH1 0x0 DUP2 SWAP1 POP SWAP2 SWAP1 POP JUMP JUMPDEST PUSH1 0x0 DUP1 REVERT JUMPDEST PUSH2 0x597 DUP2 PUSH2 0x54D JUMP JUMPDEST DUP2 EQ PUSH2 0x5A2 JUMPI PUSH1 0x0 DUP1 REVERT JUMPDEST POP JUMP JUMPDEST PUSH2 0x5AE DUP2 PUSH2 0x57F JUMP JUMPDEST DUP2 EQ PUSH2 0x5B9 JUMPI PUSH1 0x0 DUP1 REVERT JUMPDEST POP JUMP INVALID LOG2 PUSH5 0x6970667358 0x22 SLT KECCAK256 PUSH11 0x399A7F605017B1DEE08A5C 0xDC DIFFICULTY BLOCKHASH DUP10 0xAF PUSH8 0xD6CAF1317E69E050 0xF6 DUP10 DUP6 0xB0 0xB2 SWAP1 PUSH5 0x736F6C6343 STOP ADDMOD SMOD STOP CALLER "
				},
				"gasEstimates": {
					"creation": {
						"codeDepositCost": "304400",
						"executionCost": "44555",
						"totalCost": "348955"
					},
					"external": {
						"aceSwap()": "2580",
						"aceToken()": "2559",
						"currentJackpot()": "2517",
						"entriesPerRound(uint256,address)": "infinite",
						"latestRoundEntered(address)": "2859",
						"roundDuration()": "2473",
						"roundEntries()": "2540",
						"roundEntry(uint256)": "2861",
						"roundNum()": "2430",
						"roundResults(uint256)": "infinite",
						"startTime()": "2452",
						"ticketPrice()": "2452",
						"totalPayout()": "2496"
					}
				},
				"methodIdentifiers": {
					"aceSwap()": "f8d43e50",
					"aceToken()": "958285a1",
					"currentJackpot()": "f9cee0bd",
					"entriesPerRound(uint256,address)": "578e3f88",
					"latestRoundEntered(address)": "4024a7cd",
					"roundDuration()": "f7cb789a",
					"roundEntries()": "76636d20",
					"roundEntry(uint256)": "b657dd65",
					"roundNum()": "119b22b3",
					"roundResults(uint256)": "ac128f4f",
					"startTime()": "78e97925",
					"ticketPrice()": "1209b1f6",
					"totalPayout()": "454f7b8f"
				}
			},
			"storageLayout": {
				"storage": [
					{
						"astId": 3,
						"contract": "lotto.sol:ACELotto",
						"label": "currentJackpot",
						"offset": 0,
						"slot": "0",
						"type": "t_uint256"
					},
					{
						"astId": 5,
						"contract": "lotto.sol:ACELotto",
						"label": "roundEntries",
						"offset": 0,
						"slot": "1",
						"type": "t_uint256"
					},
					{
						"astId": 7,
						"contract": "lotto.sol:ACELotto",
						"label": "roundNum",
						"offset": 0,
						"slot": "2",
						"type": "t_uint256"
					},
					{
						"astId": 9,
						"contract": "lotto.sol:ACELotto",
						"label": "totalPayout",
						"offset": 0,
						"slot": "3",
						"type": "t_uint256"
					},
					{
						"astId": 12,
						"contract": "lotto.sol:ACELotto",
						"label": "ticketPrice",
						"offset": 0,
						"slot": "4",
						"type": "t_uint256"
					},
					{
						"astId": 15,
						"contract": "lotto.sol:ACELotto",
						"label": "roundDuration",
						"offset": 0,
						"slot": "5",
						"type": "t_uint256"
					},
					{
						"astId": 17,
						"contract": "lotto.sol:ACELotto",
						"label": "startTime",
						"offset": 0,
						"slot": "6",
						"type": "t_uint256"
					},
					{
						"astId": 19,
						"contract": "lotto.sol:ACELotto",
						"label": "aceToken",
						"offset": 0,
						"slot": "7",
						"type": "t_address"
					},
					{
						"astId": 21,
						"contract": "lotto.sol:ACELotto",
						"label": "aceSwap",
						"offset": 0,
						"slot": "8",
						"type": "t_address"
					},
					{
						"astId": 37,
						"contract": "lotto.sol:ACELotto",
						"label": "roundResults",
						"offset": 0,
						"slot": "9",
						"type": "t_mapping(t_uint256,t_struct(Results)32_storage)"
					},
					{
						"astId": 41,
						"contract": "lotto.sol:ACELotto",
						"label": "roundEntry",
						"offset": 0,
						"slot": "10",
						"type": "t_mapping(t_uint256,t_address)"
					},
					{
						"astId": 47,
						"contract": "lotto.sol:ACELotto",
						"label": "entriesPerRound",
						"offset": 0,
						"slot": "11",
						"type": "t_mapping(t_uint256,t_mapping(t_address,t_uint256))"
					},
					{
						"astId": 51,
						"contract": "lotto.sol:ACELotto",
						"label": "latestRoundEntered",
						"offset": 0,
						"slot": "12",
						"type": "t_mapping(t_address,t_uint256)"
					}
				],
				"types": {
					"t_address": {
						"encoding": "inplace",
						"label": "address",
						"numberOfBytes": "20"
					},
					"t_mapping(t_address,t_uint256)": {
						"encoding": "mapping",
						"key": "t_address",
						"label": "mapping(address => uint256)",
						"numberOfBytes": "32",
						"value": "t_uint256"
					},
					"t_mapping(t_uint256,t_address)": {
						"encoding": "mapping",
						"key": "t_uint256",
						"label": "mapping(uint256 => address)",
						"numberOfBytes": "32",
						"value": "t_address"
					},
					"t_mapping(t_uint256,t_mapping(t_address,t_uint256))": {
						"encoding": "mapping",
						"key": "t_uint256",
						"label": "mapping(uint256 => mapping(address => uint256))",
						"numberOfBytes": "32",
						"value": "t_mapping(t_address,t_uint256)"
					},
					"t_mapping(t_uint256,t_struct(Results)32_storage)": {
						"encoding": "mapping",
						"key": "t_uint256",
						"label": "mapping(uint256 => struct ACELotto.Results)",
						"numberOfBytes": "32",
						"value": "t_struct(Results)32_storage"
					},
					"t_struct(Results)32_storage": {
						"encoding": "inplace",
						"label": "struct ACELotto.Results",
						"members": [
							{
								"astId": 23,
								"contract": "lotto.sol:ACELotto",
								"label": "totalEntries",
								"offset": 0,
								"slot": "0",
								"type": "t_uint256"
							},
							{
								"astId": 25,
								"contract": "lotto.sol:ACELotto",
								"label": "winningNumber",
								"offset": 0,
								"slot": "1",
								"type": "t_uint256"
							},
							{
								"astId": 27,
								"contract": "lotto.sol:ACELotto",
								"label": "payout",
								"offset": 0,
								"slot": "2",
								"type": "t_uint256"
							},
							{
								"astId": 29,
								"contract": "lotto.sol:ACELotto",
								"label": "endTime",
								"offset": 0,
								"slot": "3",
								"type": "t_uint256"
							},
							{
								"astId": 31,
								"contract": "lotto.sol:ACELotto",
								"label": "winningAddress",
								"offset": 0,
								"slot": "4",
								"type": "t_address"
							}
						],
						"numberOfBytes": "160"
					},
					"t_uint256": {
						"encoding": "inplace",
						"label": "uint256",
						"numberOfBytes": "32"
					}
				}
			},
			"userdoc": {
				"kind": "user",
				"methods": {},
				"version": 1
			}
		}
	}
}