{
	"NFTlotto.sol": {
		"ACELotto": {
			"abi": [
				{
					"inputs": [
						{
							"internalType": "address",
							"name": "_NFT",
							"type": "address"
						}
					],
					"stateMutability": "nonpayable",
					"type": "constructor"
				},
				{
					"anonymous": false,
					"inputs": [
						{
							"indexed": false,
							"internalType": "address",
							"name": "winner",
							"type": "address"
						},
						{
							"indexed": false,
							"internalType": "uint256",
							"name": "amount",
							"type": "uint256"
						}
					],
					"name": "LotteryWon",
					"type": "event"
				},
				{
					"anonymous": false,
					"inputs": [
						{
							"indexed": true,
							"internalType": "address",
							"name": "previousOwner",
							"type": "address"
						},
						{
							"indexed": true,
							"internalType": "address",
							"name": "newOwner",
							"type": "address"
						}
					],
					"name": "OwnershipTransferred",
					"type": "event"
				},
				{
					"inputs": [],
					"name": "acesNFT",
					"outputs": [
						{
							"internalType": "contract IERC721Enumerable",
							"name": "",
							"type": "address"
						}
					],
					"stateMutability": "view",
					"type": "function"
				},
				{
					"inputs": [],
					"name": "currentJackpot",
					"outputs": [
						{
							"internalType": "uint256",
							"name": "",
							"type": "uint256"
						}
					],
					"stateMutability": "view",
					"type": "function"
				},
				{
					"inputs": [],
					"name": "getEntries",
					"outputs": [
						{
							"internalType": "uint256",
							"name": "",
							"type": "uint256"
						}
					],
					"stateMutability": "view",
					"type": "function"
				},
				{
					"inputs": [],
					"name": "getUniqueAddresses",
					"outputs": [
						{
							"internalType": "address[]",
							"name": "addresses",
							"type": "address[]"
						},
						{
							"internalType": "uint256[]",
							"name": "entries",
							"type": "uint256[]"
						}
					],
					"stateMutability": "view",
					"type": "function"
				},
				{
					"inputs": [],
					"name": "getUniqueUsers",
					"outputs": [
						{
							"internalType": "uint256",
							"name": "counter",
							"type": "uint256"
						}
					],
					"stateMutability": "view",
					"type": "function"
				},
				{
					"inputs": [],
					"name": "owner",
					"outputs": [
						{
							"internalType": "address",
							"name": "",
							"type": "address"
						}
					],
					"stateMutability": "view",
					"type": "function"
				},
				{
					"inputs": [
						{
							"internalType": "uint256",
							"name": "seed",
							"type": "uint256"
						}
					],
					"name": "pickWinner",
					"outputs": [
						{
							"internalType": "uint256",
							"name": "winnerNum",
							"type": "uint256"
						},
						{
							"internalType": "address",
							"name": "winnerAddress",
							"type": "address"
						}
					],
					"stateMutability": "view",
					"type": "function"
				},
				{
					"inputs": [],
					"name": "renounceOwnership",
					"outputs": [],
					"stateMutability": "nonpayable",
					"type": "function"
				},
				{
					"inputs": [
						{
							"internalType": "uint256",
							"name": "startIndex",
							"type": "uint256"
						},
						{
							"internalType": "uint256",
							"name": "endIndex",
							"type": "uint256"
						}
					],
					"name": "resultLog",
					"outputs": [
						{
							"components": [
								{
									"internalType": "uint256",
									"name": "totalEntries",
									"type": "uint256"
								},
								{
									"internalType": "uint256",
									"name": "winningNumber",
									"type": "uint256"
								},
								{
									"internalType": "uint256",
									"name": "payout",
									"type": "uint256"
								},
								{
									"internalType": "uint256",
									"name": "endTime",
									"type": "uint256"
								},
								{
									"internalType": "address",
									"name": "winningAddress",
									"type": "address"
								}
							],
							"internalType": "struct ACELotto.Results[]",
							"name": "log",
							"type": "tuple[]"
						}
					],
					"stateMutability": "view",
					"type": "function"
				},
				{
					"inputs": [],
					"name": "roundNum",
					"outputs": [
						{
							"internalType": "uint256",
							"name": "",
							"type": "uint256"
						}
					],
					"stateMutability": "view",
					"type": "function"
				},
				{
					"inputs": [
						{
							"internalType": "uint256",
							"name": "",
							"type": "uint256"
						}
					],
					"name": "roundResults",
					"outputs": [
						{
							"internalType": "uint256",
							"name": "totalEntries",
							"type": "uint256"
						},
						{
							"internalType": "uint256",
							"name": "winningNumber",
							"type": "uint256"
						},
						{
							"internalType": "uint256",
							"name": "payout",
							"type": "uint256"
						},
						{
							"internalType": "uint256",
							"name": "endTime",
							"type": "uint256"
						},
						{
							"internalType": "address",
							"name": "winningAddress",
							"type": "address"
						}
					],
					"stateMutability": "view",
					"type": "function"
				},
				{
					"inputs": [],
					"name": "totalPayout",
					"outputs": [
						{
							"internalType": "uint256",
							"name": "",
							"type": "uint256"
						}
					],
					"stateMutability": "view",
					"type": "function"
				},
				{
					"inputs": [
						{
							"internalType": "address",
							"name": "newOwner",
							"type": "address"
						}
					],
					"name": "transferOwnership",
					"outputs": [],
					"stateMutability": "nonpayable",
					"type": "function"
				},
				{
					"inputs": [
						{
							"internalType": "uint256",
							"name": "_newJackpot",
							"type": "uint256"
						}
					],
					"name": "updateJackpot",
					"outputs": [],
					"stateMutability": "nonpayable",
					"type": "function"
				},
				{
					"inputs": [
						{
							"internalType": "uint256",
							"name": "winnerNum",
							"type": "uint256"
						},
						{
							"internalType": "uint256",
							"name": "payout",
							"type": "uint256"
						}
					],
					"name": "updateWinner",
					"outputs": [],
					"stateMutability": "nonpayable",
					"type": "function"
				},
				{
					"inputs": [
						{
							"internalType": "address",
							"name": "account",
							"type": "address"
						}
					],
					"name": "userEntries",
					"outputs": [
						{
							"internalType": "uint256",
							"name": "",
							"type": "uint256"
						}
					],
					"stateMutability": "view",
					"type": "function"
				}
			],
			"devdoc": {
				"kind": "dev",
				"methods": {
					"owner()": {
						"details": "Returns the address of the current owner."
					},
					"renounceOwnership()": {
						"details": "Leaves the contract without owner. It will not be possible to call `onlyOwner` functions anymore. Can only be called by the current owner. NOTE: Renouncing ownership will leave the contract without an owner, thereby removing any functionality that is only available to the owner."
					},
					"transferOwnership(address)": {
						"details": "Transfers ownership of the contract to a new account (`newOwner`). Can only be called by the current owner."
					}
				},
				"version": 1
			},
			"evm": {
				"assembly": "    /* \"NFTlotto.sol\":729:4478  contract ACELotto is Ownable {   \r... */\n  mstore(0x40, 0x80)\n    /* \"NFTlotto.sol\":868:875  1 ether */\n  0x0de0b6b3a7640000\n    /* \"NFTlotto.sol\":836:875  uint256 public currentJackpot = 1 ether */\n  0x03\n  sstore\n    /* \"NFTlotto.sol\":1224:1301  constructor(address _NFT){\r... */\n  callvalue\n  dup1\n  iszero\n  tag_1\n  jumpi\n  0x00\n  dup1\n  revert\ntag_1:\n  pop\n  mload(0x40)\n  sub(codesize, bytecodeSize)\n  dup1\n  bytecodeSize\n  dup4\n  codecopy\n  dup2\n  add\n  0x40\n  dup2\n  swap1\n  mstore\n  tag_2\n  swap2\n  tag_3\n  jump\t// in\ntag_2:\n    /* \"https://github.com/OpenZeppelin/openzeppelin-contracts/blob/master/contracts/access/Ownable.sol\":921:953  _transferOwnership(_msgSender()) */\n  tag_7\n    /* \"https://github.com/OpenZeppelin/openzeppelin-contracts/blob/master/contracts/utils/Context.sol\":719:729  msg.sender */\n  caller\n    /* \"https://github.com/OpenZeppelin/openzeppelin-contracts/blob/master/contracts/access/Ownable.sol\":921:939  _transferOwnership */\n  tag_10\n    /* \"https://github.com/OpenZeppelin/openzeppelin-contracts/blob/master/contracts/access/Ownable.sol\":921:953  _transferOwnership(_msgSender()) */\n  jump\t// in\ntag_7:\n    /* \"NFTlotto.sol\":1260:1267  acesNFT */\n  0x04\n    /* \"NFTlotto.sol\":1260:1293  acesNFT = IERC721Enumerable(_NFT) */\n  dup1\n  sload\n  not(sub(shl(0xa0, 0x01), 0x01))\n  and\n  sub(shl(0xa0, 0x01), 0x01)\n  swap3\n  swap1\n  swap3\n  and\n  swap2\n  swap1\n  swap2\n  or\n  swap1\n  sstore\n    /* \"NFTlotto.sol\":729:4478  contract ACELotto is Ownable {   \r... */\n  jump(tag_15)\n    /* \"https://github.com/OpenZeppelin/openzeppelin-contracts/blob/master/contracts/access/Ownable.sol\":2270:2457  function _transferOwnership(address newOwner) internal virtual {... */\ntag_10:\n    /* \"https://github.com/OpenZeppelin/openzeppelin-contracts/blob/master/contracts/access/Ownable.sol\":2343:2359  address oldOwner */\n  0x00\n    /* \"https://github.com/OpenZeppelin/openzeppelin-contracts/blob/master/contracts/access/Ownable.sol\":2362:2368  _owner */\n  dup1\n  sload\n  sub(shl(0xa0, 0x01), 0x01)\n    /* \"https://github.com/OpenZeppelin/openzeppelin-contracts/blob/master/contracts/access/Ownable.sol\":2378:2395  _owner = newOwner */\n  dup4\n  dup2\n  and\n  not(sub(shl(0xa0, 0x01), 0x01))\n  dup4\n  and\n  dup2\n  or\n  dup5\n  sstore\n    /* \"https://github.com/OpenZeppelin/openzeppelin-contracts/blob/master/contracts/access/Ownable.sol\":2410:2450  OwnershipTransferred(oldOwner, newOwner) */\n  mload(0x40)\n    /* \"https://github.com/OpenZeppelin/openzeppelin-contracts/blob/master/contracts/access/Ownable.sol\":2362:2368  _owner */\n  swap2\n  swap1\n  swap3\n  and\n  swap3\n  dup4\n  swap2\n    /* \"https://github.com/OpenZeppelin/openzeppelin-contracts/blob/master/contracts/access/Ownable.sol\":2410:2450  OwnershipTransferred(oldOwner, newOwner) */\n  0x8be0079c531659141344cd1fd0a4f28419497f9722a3daafe3b4186f6b6457e0\n  swap2\n    /* \"https://github.com/OpenZeppelin/openzeppelin-contracts/blob/master/contracts/access/Ownable.sol\":2343:2359  address oldOwner */\n  swap1\n    /* \"https://github.com/OpenZeppelin/openzeppelin-contracts/blob/master/contracts/access/Ownable.sol\":2410:2450  OwnershipTransferred(oldOwner, newOwner) */\n  log3\n    /* \"https://github.com/OpenZeppelin/openzeppelin-contracts/blob/master/contracts/access/Ownable.sol\":2333:2457  {... */\n  pop\n    /* \"https://github.com/OpenZeppelin/openzeppelin-contracts/blob/master/contracts/access/Ownable.sol\":2270:2457  function _transferOwnership(address newOwner) internal virtual {... */\n  pop\n  jump\t// out\n    /* \"#utility.yul\":14:304   */\ntag_3:\n    /* \"#utility.yul\":84:90   */\n  0x00\n    /* \"#utility.yul\":137:139   */\n  0x20\n    /* \"#utility.yul\":125:134   */\n  dup3\n    /* \"#utility.yul\":116:123   */\n  dup5\n    /* \"#utility.yul\":112:135   */\n  sub\n    /* \"#utility.yul\":108:140   */\n  slt\n    /* \"#utility.yul\":105:157   */\n  iszero\n  tag_17\n  jumpi\n    /* \"#utility.yul\":153:154   */\n  0x00\n    /* \"#utility.yul\":150:151   */\n  dup1\n    /* \"#utility.yul\":143:155   */\n  revert\n    /* \"#utility.yul\":105:157   */\ntag_17:\n    /* \"#utility.yul\":179:195   */\n  dup2\n  mload\n  sub(shl(0xa0, 0x01), 0x01)\n    /* \"#utility.yul\":224:255   */\n  dup2\n  and\n    /* \"#utility.yul\":214:256   */\n  dup2\n  eq\n    /* \"#utility.yul\":204:274   */\n  tag_18\n  jumpi\n    /* \"#utility.yul\":270:271   */\n  0x00\n    /* \"#utility.yul\":267:268   */\n  dup1\n    /* \"#utility.yul\":260:272   */\n  revert\n    /* \"#utility.yul\":204:274   */\ntag_18:\n    /* \"#utility.yul\":293:298   */\n  swap4\n    /* \"#utility.yul\":14:304   */\n  swap3\n  pop\n  pop\n  pop\n  jump\t// out\ntag_15:\n    /* \"NFTlotto.sol\":729:4478  contract ACELotto is Ownable {   \r... */\n  dataSize(sub_0)\n  dup1\n  dataOffset(sub_0)\n  0x00\n  codecopy\n  0x00\n  return\nstop\n\nsub_0: assembly {\n        /* \"NFTlotto.sol\":729:4478  contract ACELotto is Ownable {   \r... */\n      mstore(0x40, 0x80)\n      callvalue\n      dup1\n      iszero\n      tag_1\n      jumpi\n      0x00\n      dup1\n      revert\n    tag_1:\n      pop\n      jumpi(tag_2, lt(calldatasize, 0x04))\n      shr(0xe0, calldataload(0x00))\n      dup1\n      0x9f10a990\n      gt\n      tag_19\n      jumpi\n      dup1\n      0xf2fde38b\n      gt\n      tag_20\n      jumpi\n      dup1\n      0xf2fde38b\n      eq\n      tag_15\n      jumpi\n      dup1\n      0xf737d21d\n      eq\n      tag_16\n      jumpi\n      dup1\n      0xf80fb76d\n      eq\n      tag_17\n      jumpi\n      dup1\n      0xf9cee0bd\n      eq\n      tag_18\n      jumpi\n      0x00\n      dup1\n      revert\n    tag_20:\n      dup1\n      0x9f10a990\n      eq\n      tag_11\n      jumpi\n      dup1\n      0xac128f4f\n      eq\n      tag_12\n      jumpi\n      dup1\n      0xaeb18350\n      eq\n      tag_13\n      jumpi\n      dup1\n      0xbc15cdf0\n      eq\n      tag_14\n      jumpi\n      0x00\n      dup1\n      revert\n    tag_19:\n      dup1\n      0x454f7b8f\n      gt\n      tag_21\n      jumpi\n      dup1\n      0x454f7b8f\n      eq\n      tag_7\n      jumpi\n      dup1\n      0x6fbb5a86\n      eq\n      tag_8\n      jumpi\n      dup1\n      0x715018a6\n      eq\n      tag_9\n      jumpi\n      dup1\n      0x8da5cb5b\n      eq\n      tag_10\n      jumpi\n      0x00\n      dup1\n      revert\n    tag_21:\n      dup1\n      0x119b22b3\n      eq\n      tag_3\n      jumpi\n      dup1\n      0x158977de\n      eq\n      tag_4\n      jumpi\n      dup1\n      0x17be85c3\n      eq\n      tag_5\n      jumpi\n      dup1\n      0x3b98bc65\n      eq\n      tag_6\n      jumpi\n    tag_2:\n      0x00\n      dup1\n      revert\n        /* \"NFTlotto.sol\":773:796  uint256 public roundNum */\n    tag_3:\n      tag_22\n      sload(0x01)\n      dup2\n      jump\n    tag_22:\n      mload(0x40)\n        /* \"#utility.yul\":5713:5738   */\n      swap1\n      dup2\n      mstore\n        /* \"#utility.yul\":5701:5703   */\n      0x20\n        /* \"#utility.yul\":5686:5704   */\n      add\n        /* \"NFTlotto.sol\":773:796  uint256 public roundNum */\n    tag_24:\n      mload(0x40)\n      dup1\n      swap2\n      sub\n      swap1\n      return\n        /* \"NFTlotto.sol\":3066:3408  function getUniqueUsers() public view returns (uint256 counter) {\r... */\n    tag_4:\n      tag_22\n      tag_27\n      jump\t// in\n        /* \"NFTlotto.sol\":2959:3058  function getEntries() public view returns (uint256) {\r... */\n    tag_5:\n      tag_22\n      tag_30\n      jump\t// in\n        /* \"NFTlotto.sol\":3416:4089  function getUniqueAddresses() public view returns (address [] memory addresses, uint256 [] memory entries) {\r... */\n    tag_6:\n      tag_32\n      tag_33\n      jump\t// in\n    tag_32:\n      mload(0x40)\n      tag_24\n      swap3\n      swap2\n      swap1\n      tag_35\n      jump\t// in\n        /* \"NFTlotto.sol\":803:829  uint256 public totalPayout */\n    tag_7:\n      tag_22\n      sload(0x02)\n      dup2\n      jump\n        /* \"NFTlotto.sol\":1705:2223  function updateWinner(uint256 winnerNum, uint256 payout) external onlyOwner {      \r... */\n    tag_8:\n      tag_39\n      tag_40\n      calldatasize\n      0x04\n      tag_41\n      jump\t// in\n    tag_40:\n      tag_42\n      jump\t// in\n    tag_39:\n      stop\n        /* \"https://github.com/OpenZeppelin/openzeppelin-contracts/blob/master/contracts/access/Ownable.sol\":1668:1769  function renounceOwnership() public virtual onlyOwner {... */\n    tag_9:\n      tag_39\n      tag_44\n      jump\t// in\n        /* \"https://github.com/OpenZeppelin/openzeppelin-contracts/blob/master/contracts/access/Ownable.sol\":1036:1121  function owner() public view virtual returns (address) {... */\n    tag_10:\n        /* \"https://github.com/OpenZeppelin/openzeppelin-contracts/blob/master/contracts/access/Ownable.sol\":1082:1089  address */\n      0x00\n        /* \"https://github.com/OpenZeppelin/openzeppelin-contracts/blob/master/contracts/access/Ownable.sol\":1108:1114  _owner */\n      sload\n      sub(shl(0xa0, 0x01), 0x01)\n      and\n        /* \"https://github.com/OpenZeppelin/openzeppelin-contracts/blob/master/contracts/access/Ownable.sol\":1036:1121  function owner() public view virtual returns (address) {... */\n    tag_45:\n      mload(0x40)\n      sub(shl(0xa0, 0x01), 0x01)\n        /* \"#utility.yul\":1743:1775   */\n      swap1\n      swap2\n      and\n        /* \"#utility.yul\":1725:1776   */\n      dup2\n      mstore\n        /* \"#utility.yul\":1713:1715   */\n      0x20\n        /* \"#utility.yul\":1698:1716   */\n      add\n        /* \"https://github.com/OpenZeppelin/openzeppelin-contracts/blob/master/contracts/access/Ownable.sol\":1036:1121  function owner() public view virtual returns (address) {... */\n      tag_24\n        /* \"#utility.yul\":1579:1782   */\n      jump\n        /* \"NFTlotto.sol\":2233:2353  function userEntries(address account) public view returns (uint256) {\r... */\n    tag_11:\n      tag_22\n      tag_50\n      calldatasize\n      0x04\n      tag_51\n      jump\t// in\n    tag_50:\n      tag_52\n      jump\t// in\n        /* \"NFTlotto.sol\":1111:1158  mapping(uint256 => Results) public roundResults */\n    tag_12:\n      tag_54\n      tag_55\n      calldatasize\n      0x04\n      tag_56\n      jump\t// in\n    tag_55:\n      mstore(0x20, 0x05)\n      0x00\n      swap1\n      dup2\n      mstore\n      0x40\n      swap1\n      keccak256\n      dup1\n      sload\n      0x01\n      dup3\n      add\n      sload\n      0x02\n      dup4\n      add\n      sload\n      0x03\n      dup5\n      add\n      sload\n      0x04\n      swap1\n      swap5\n      add\n      sload\n      swap3\n      swap4\n      swap2\n      swap3\n      swap1\n      swap2\n      swap1\n      sub(shl(0xa0, 0x01), 0x01)\n      and\n      dup6\n      jump\n    tag_54:\n      0x40\n      dup1\n      mload\n        /* \"#utility.yul\":6287:6312   */\n      swap6\n      dup7\n      mstore\n        /* \"#utility.yul\":6343:6345   */\n      0x20\n        /* \"#utility.yul\":6328:6346   */\n      dup7\n      add\n        /* \"#utility.yul\":6321:6355   */\n      swap5\n      swap1\n      swap5\n      mstore\n        /* \"#utility.yul\":6371:6389   */\n      swap3\n      dup5\n      add\n        /* \"#utility.yul\":6364:6398   */\n      swap2\n      swap1\n      swap2\n      mstore\n        /* \"#utility.yul\":6429:6431   */\n      0x60\n        /* \"#utility.yul\":6414:6432   */\n      dup4\n      add\n        /* \"#utility.yul\":6407:6441   */\n      mstore\n      sub(shl(0xa0, 0x01), 0x01)\n        /* \"#utility.yul\":6478:6510   */\n      and\n        /* \"#utility.yul\":6472:6475   */\n      0x80\n        /* \"#utility.yul\":6457:6476   */\n      dup3\n      add\n        /* \"#utility.yul\":6450:6511   */\n      mstore\n        /* \"#utility.yul\":6274:6277   */\n      0xa0\n        /* \"#utility.yul\":6259:6278   */\n      add\n        /* \"NFTlotto.sol\":1111:1158  mapping(uint256 => Results) public roundResults */\n      tag_24\n        /* \"#utility.yul\":6028:6517   */\n      jump\n        /* \"NFTlotto.sol\":888:920  IERC721Enumerable public acesNFT */\n    tag_13:\n      sload(0x04)\n      tag_45\n      swap1\n      sub(shl(0xa0, 0x01), 0x01)\n      and\n      dup2\n      jump\n        /* \"NFTlotto.sol\":2361:2951  function resultLog(uint256 startIndex, uint256 endIndex) external view returns(Results [] memory log){\r... */\n    tag_14:\n      tag_64\n      tag_65\n      calldatasize\n      0x04\n      tag_41\n      jump\t// in\n    tag_65:\n      tag_66\n      jump\t// in\n    tag_64:\n      mload(0x40)\n      tag_24\n      swap2\n      swap1\n      tag_68\n      jump\t// in\n        /* \"https://github.com/OpenZeppelin/openzeppelin-contracts/blob/master/contracts/access/Ownable.sol\":1918:2116  function transferOwnership(address newOwner) public virtual onlyOwner {... */\n    tag_15:\n      tag_39\n      tag_70\n      calldatasize\n      0x04\n      tag_51\n      jump\t// in\n    tag_70:\n      tag_71\n      jump\t// in\n        /* \"NFTlotto.sol\":1427:1697  function pickWinner(uint256 seed) external view returns(uint256 winnerNum, address winnerAddress) {\r... */\n    tag_16:\n      tag_72\n      tag_73\n      calldatasize\n      0x04\n      tag_56\n      jump\t// in\n    tag_73:\n      tag_74\n      jump\t// in\n    tag_72:\n      0x40\n      dup1\n      mload\n        /* \"#utility.yul\":5923:5948   */\n      swap3\n      dup4\n      mstore\n      sub(shl(0xa0, 0x01), 0x01)\n        /* \"#utility.yul\":5984:6016   */\n      swap1\n      swap2\n      and\n        /* \"#utility.yul\":5979:5981   */\n      0x20\n        /* \"#utility.yul\":5964:5982   */\n      dup4\n      add\n        /* \"#utility.yul\":5957:6017   */\n      mstore\n        /* \"#utility.yul\":5896:5914   */\n      add\n        /* \"NFTlotto.sol\":1427:1697  function pickWinner(uint256 seed) external view returns(uint256 winnerNum, address winnerAddress) {\r... */\n      tag_24\n        /* \"#utility.yul\":5749:6023   */\n      jump\n        /* \"NFTlotto.sol\":1309:1419  function updateJackpot(uint256 _newJackpot) external onlyOwner {\r... */\n    tag_17:\n      tag_39\n      tag_78\n      calldatasize\n      0x04\n      tag_56\n      jump\t// in\n    tag_78:\n      tag_79\n      jump\t// in\n        /* \"NFTlotto.sol\":836:875  uint256 public currentJackpot = 1 ether */\n    tag_18:\n      tag_22\n      sload(0x03)\n      dup2\n      jump\n        /* \"NFTlotto.sol\":3066:3408  function getUniqueUsers() public view returns (uint256 counter) {\r... */\n    tag_27:\n        /* \"NFTlotto.sol\":3164:3171  acesNFT */\n      0x04\n      dup1\n      sload\n        /* \"NFTlotto.sol\":3164:3185  acesNFT.totalSupply() */\n      0x40\n      dup1\n      mload\n      shl(0xe0, 0x18160ddd)\n      dup2\n      mstore\n      swap1\n      mload\n        /* \"NFTlotto.sol\":3113:3128  uint256 counter */\n      0x00\n      swap4\n      dup5\n      swap4\n      sub(shl(0xa0, 0x01), 0x01)\n        /* \"NFTlotto.sol\":3164:3171  acesNFT */\n      and\n      swap3\n        /* \"NFTlotto.sol\":3164:3183  acesNFT.totalSupply */\n      0x18160ddd\n      swap3\n        /* \"NFTlotto.sol\":3164:3185  acesNFT.totalSupply() */\n      dup2\n      dup4\n      add\n      swap3\n      0x20\n      swap3\n      dup3\n      swap1\n      sub\n      add\n      dup2\n        /* \"NFTlotto.sol\":3164:3171  acesNFT */\n      dup7\n        /* \"NFTlotto.sol\":3164:3185  acesNFT.totalSupply() */\n      dup1\n      extcodesize\n      iszero\n      dup1\n      iszero\n      tag_84\n      jumpi\n      0x00\n      dup1\n      revert\n    tag_84:\n      pop\n      gas\n      staticcall\n      iszero\n      dup1\n      iszero\n      tag_86\n      jumpi\n      returndatasize\n      0x00\n      dup1\n      returndatacopy\n      revert(0x00, returndatasize)\n    tag_86:\n      pop\n      pop\n      pop\n      pop\n      mload(0x40)\n      returndatasize\n      not(0x1f)\n      0x1f\n      dup3\n      add\n      and\n      dup3\n      add\n      dup1\n      0x40\n      mstore\n      pop\n      dup2\n      add\n      swap1\n      tag_87\n      swap2\n      swap1\n      tag_88\n      jump\t// in\n    tag_87:\n        /* \"NFTlotto.sol\":3141:3185  uint256 roundEntries = acesNFT.totalSupply() */\n      swap1\n      pop\n        /* \"NFTlotto.sol\":3212:3213  1 */\n      0x01\n        /* \"NFTlotto.sol\":3198:3401  for(uint256 i=1; i <= roundEntries; i++){\r... */\n    tag_89:\n        /* \"NFTlotto.sol\":3220:3232  roundEntries */\n      dup2\n        /* \"NFTlotto.sol\":3215:3216  i */\n      dup2\n        /* \"NFTlotto.sol\":3215:3232  i <= roundEntries */\n      gt\n        /* \"NFTlotto.sol\":3198:3401  for(uint256 i=1; i <= roundEntries; i++){\r... */\n      tag_90\n      jumpi\n        /* \"NFTlotto.sol\":3268:3275  acesNFT */\n      0x04\n      dup1\n      sload\n        /* \"NFTlotto.sol\":3268:3286  acesNFT.ownerOf(i) */\n      mload(0x40)\n      shl(0xe1, 0x31a9108f)\n      dup2\n      mstore\n      swap2\n      dup3\n      add\n        /* \"#utility.yul\":5713:5738   */\n      dup4\n      swap1\n      mstore\n        /* \"NFTlotto.sol\":3253:3265  address user */\n      0x00\n      swap2\n      sub(shl(0xa0, 0x01), 0x01)\n        /* \"NFTlotto.sol\":3268:3275  acesNFT */\n      swap1\n      swap2\n      and\n      swap1\n        /* \"NFTlotto.sol\":3268:3283  acesNFT.ownerOf */\n      0x6352211e\n      swap1\n        /* \"#utility.yul\":5686:5704   */\n      0x24\n      add\n        /* \"NFTlotto.sol\":3268:3286  acesNFT.ownerOf(i) */\n      0x20\n      mload(0x40)\n      dup1\n      dup4\n      sub\n      dup2\n      dup7\n      dup1\n      extcodesize\n      iszero\n      dup1\n      iszero\n      tag_93\n      jumpi\n      0x00\n      dup1\n      revert\n    tag_93:\n      pop\n      gas\n      staticcall\n      iszero\n      dup1\n      iszero\n      tag_95\n      jumpi\n      returndatasize\n      0x00\n      dup1\n      returndatacopy\n      revert(0x00, returndatasize)\n    tag_95:\n      pop\n      pop\n      pop\n      pop\n      mload(0x40)\n      returndatasize\n      not(0x1f)\n      0x1f\n      dup3\n      add\n      and\n      dup3\n      add\n      dup1\n      0x40\n      mstore\n      pop\n      dup2\n      add\n      swap1\n      tag_96\n      swap2\n      swap1\n      tag_97\n      jump\t// in\n    tag_96:\n        /* \"NFTlotto.sol\":3309:3316  acesNFT */\n      0x04\n      dup1\n      sload\n        /* \"NFTlotto.sol\":3309:3345  acesNFT.tokenOfOwnerByIndex(user, 0) */\n      mload(0x40)\n      shl(0xe0, 0x2f745c59)\n      dup2\n      mstore\n      sub(shl(0xa0, 0x01), 0x01)\n        /* \"#utility.yul\":1987:2019   */\n      dup1\n      dup6\n      and\n        /* \"NFTlotto.sol\":3309:3345  acesNFT.tokenOfOwnerByIndex(user, 0) */\n      swap4\n      dup3\n      add\n        /* \"#utility.yul\":1969:2020   */\n      swap4\n      swap1\n      swap4\n      mstore\n        /* \"NFTlotto.sol\":3309:3316  acesNFT */\n      0x00\n        /* \"#utility.yul\":2036:2054   */\n      0x24\n      dup3\n      add\n        /* \"#utility.yul\":2029:2063   */\n      mstore\n        /* \"NFTlotto.sol\":3253:3286  address user = acesNFT.ownerOf(i) */\n      swap3\n      swap4\n      pop\n        /* \"NFTlotto.sol\":3309:3316  acesNFT */\n      and\n      swap1\n        /* \"NFTlotto.sol\":3309:3336  acesNFT.tokenOfOwnerByIndex */\n      0x2f745c59\n      swap1\n        /* \"#utility.yul\":1942:1960   */\n      0x44\n      add\n        /* \"NFTlotto.sol\":3309:3345  acesNFT.tokenOfOwnerByIndex(user, 0) */\n      0x20\n      mload(0x40)\n      dup1\n      dup4\n      sub\n      dup2\n      dup7\n      dup1\n      extcodesize\n      iszero\n      dup1\n      iszero\n      tag_100\n      jumpi\n      0x00\n      dup1\n      revert\n    tag_100:\n      pop\n      gas\n      staticcall\n      iszero\n      dup1\n      iszero\n      tag_102\n      jumpi\n      returndatasize\n      0x00\n      dup1\n      returndatacopy\n      revert(0x00, returndatasize)\n    tag_102:\n      pop\n      pop\n      pop\n      pop\n      mload(0x40)\n      returndatasize\n      not(0x1f)\n      0x1f\n      dup3\n      add\n      and\n      dup3\n      add\n      dup1\n      0x40\n      mstore\n      pop\n      dup2\n      add\n      swap1\n      tag_103\n      swap2\n      swap1\n      tag_88\n      jump\t// in\n    tag_103:\n        /* \"NFTlotto.sol\":3304:3305  i */\n      dup3\n        /* \"NFTlotto.sol\":3304:3345  i == acesNFT.tokenOfOwnerByIndex(user, 0) */\n      eq\n        /* \"NFTlotto.sol\":3301:3390  if(i == acesNFT.tokenOfOwnerByIndex(user, 0)){\r... */\n      iszero\n      tag_104\n      jumpi\n        /* \"NFTlotto.sol\":3365:3374  counter++ */\n      dup4\n      tag_105\n      dup2\n      tag_106\n      jump\t// in\n    tag_105:\n      swap5\n      pop\n      pop\n        /* \"NFTlotto.sol\":3301:3390  if(i == acesNFT.tokenOfOwnerByIndex(user, 0)){\r... */\n    tag_104:\n      pop\n        /* \"NFTlotto.sol\":3234:3237  i++ */\n      dup1\n      tag_107\n      dup2\n      tag_106\n      jump\t// in\n    tag_107:\n      swap2\n      pop\n      pop\n        /* \"NFTlotto.sol\":3198:3401  for(uint256 i=1; i <= roundEntries; i++){\r... */\n      jump(tag_89)\n    tag_90:\n      pop\n        /* \"NFTlotto.sol\":3130:3408  {\r... */\n      pop\n        /* \"NFTlotto.sol\":3066:3408  function getUniqueUsers() public view returns (uint256 counter) {\r... */\n      swap1\n      jump\t// out\n        /* \"NFTlotto.sol\":2959:3058  function getEntries() public view returns (uint256) {\r... */\n    tag_30:\n        /* \"NFTlotto.sol\":3002:3009  uint256 */\n      0x00\n        /* \"NFTlotto.sol\":3029:3036  acesNFT */\n      0x04\n      0x00\n      swap1\n      sload\n      swap1\n      0x0100\n      exp\n      swap1\n      div\n      sub(shl(0xa0, 0x01), 0x01)\n      and\n      sub(shl(0xa0, 0x01), 0x01)\n        /* \"NFTlotto.sol\":3029:3048  acesNFT.totalSupply */\n      and\n      0x18160ddd\n        /* \"NFTlotto.sol\":3029:3050  acesNFT.totalSupply() */\n      mload(0x40)\n      dup2\n      0xffffffff\n      and\n      0xe0\n      shl\n      dup2\n      mstore\n      0x04\n      add\n      0x20\n      mload(0x40)\n      dup1\n      dup4\n      sub\n      dup2\n      dup7\n      dup1\n      extcodesize\n      iszero\n      dup1\n      iszero\n      tag_109\n      jumpi\n      0x00\n      dup1\n      revert\n    tag_109:\n      pop\n      gas\n      staticcall\n      iszero\n      dup1\n      iszero\n      tag_111\n      jumpi\n      returndatasize\n      0x00\n      dup1\n      returndatacopy\n      revert(0x00, returndatasize)\n    tag_111:\n      pop\n      pop\n      pop\n      pop\n      mload(0x40)\n      returndatasize\n      not(0x1f)\n      0x1f\n      dup3\n      add\n      and\n      dup3\n      add\n      dup1\n      0x40\n      mstore\n      pop\n      dup2\n      add\n      swap1\n      tag_112\n      swap2\n      swap1\n      tag_88\n      jump\t// in\n    tag_112:\n        /* \"NFTlotto.sol\":3022:3050  return acesNFT.totalSupply() */\n      swap1\n      pop\n        /* \"NFTlotto.sol\":2959:3058  function getEntries() public view returns (uint256) {\r... */\n      swap1\n      jump\t// out\n        /* \"NFTlotto.sol\":3416:4089  function getUniqueAddresses() public view returns (address [] memory addresses, uint256 [] memory entries) {\r... */\n    tag_33:\n        /* \"NFTlotto.sol\":3467:3494  address [] memory addresses */\n      0x60\n        /* \"NFTlotto.sol\":3496:3521  uint256 [] memory entries */\n      dup1\n        /* \"NFTlotto.sol\":3534:3554  uint256 roundEntries */\n      0x00\n        /* \"NFTlotto.sol\":3557:3564  acesNFT */\n      0x04\n      0x00\n      swap1\n      sload\n      swap1\n      0x0100\n      exp\n      swap1\n      div\n      sub(shl(0xa0, 0x01), 0x01)\n      and\n      sub(shl(0xa0, 0x01), 0x01)\n        /* \"NFTlotto.sol\":3557:3576  acesNFT.totalSupply */\n      and\n      0x18160ddd\n        /* \"NFTlotto.sol\":3557:3578  acesNFT.totalSupply() */\n      mload(0x40)\n      dup2\n      0xffffffff\n      and\n      0xe0\n      shl\n      dup2\n      mstore\n      0x04\n      add\n      0x20\n      mload(0x40)\n      dup1\n      dup4\n      sub\n      dup2\n      dup7\n      dup1\n      extcodesize\n      iszero\n      dup1\n      iszero\n      tag_114\n      jumpi\n      0x00\n      dup1\n      revert\n    tag_114:\n      pop\n      gas\n      staticcall\n      iszero\n      dup1\n      iszero\n      tag_116\n      jumpi\n      returndatasize\n      0x00\n      dup1\n      returndatacopy\n      revert(0x00, returndatasize)\n    tag_116:\n      pop\n      pop\n      pop\n      pop\n      mload(0x40)\n      returndatasize\n      not(0x1f)\n      0x1f\n      dup3\n      add\n      and\n      dup3\n      add\n      dup1\n      0x40\n      mstore\n      pop\n      dup2\n      add\n      swap1\n      tag_117\n      swap2\n      swap1\n      tag_88\n      jump\t// in\n    tag_117:\n        /* \"NFTlotto.sol\":3534:3578  uint256 roundEntries = acesNFT.totalSupply() */\n      swap1\n      pop\n        /* \"NFTlotto.sol\":3589:3608  uint256 arrayLength */\n      0x00\n        /* \"NFTlotto.sol\":3611:3627  getUniqueUsers() */\n      tag_118\n        /* \"NFTlotto.sol\":3611:3625  getUniqueUsers */\n      tag_27\n        /* \"NFTlotto.sol\":3611:3627  getUniqueUsers() */\n      jump\t// in\n    tag_118:\n        /* \"NFTlotto.sol\":3589:3627  uint256 arrayLength = getUniqueUsers() */\n      swap1\n      pop\n        /* \"NFTlotto.sol\":3664:3675  arrayLength */\n      dup1\n        /* \"NFTlotto.sol\":3650:3676  new address[](arrayLength) */\n      0xffffffffffffffff\n      dup2\n      gt\n      iszero\n      tag_120\n      jumpi\n      tag_120\n      tag_121\n      jump\t// in\n    tag_120:\n      mload(0x40)\n      swap1\n      dup1\n      dup3\n      mstore\n      dup1\n      0x20\n      mul\n      0x20\n      add\n      dup3\n      add\n      0x40\n      mstore\n      dup1\n      iszero\n      tag_122\n      jumpi\n      dup2\n      0x20\n      add\n      0x20\n      dup3\n      mul\n      dup1\n      calldatasize\n      dup4\n      calldatacopy\n      add\n      swap1\n      pop\n    tag_122:\n      pop\n        /* \"NFTlotto.sol\":3638:3676  addresses = new address[](arrayLength) */\n      swap4\n      pop\n        /* \"NFTlotto.sol\":3711:3722  arrayLength */\n      dup1\n        /* \"NFTlotto.sol\":3697:3723  new uint256[](arrayLength) */\n      0xffffffffffffffff\n      dup2\n      gt\n      iszero\n      tag_124\n      jumpi\n      tag_124\n      tag_121\n      jump\t// in\n    tag_124:\n      mload(0x40)\n      swap1\n      dup1\n      dup3\n      mstore\n      dup1\n      0x20\n      mul\n      0x20\n      add\n      dup3\n      add\n      0x40\n      mstore\n      dup1\n      iszero\n      tag_125\n      jumpi\n      dup2\n      0x20\n      add\n      0x20\n      dup3\n      mul\n      dup1\n      calldatasize\n      dup4\n      calldatacopy\n      add\n      swap1\n      pop\n    tag_125:\n      pop\n        /* \"NFTlotto.sol\":3687:3723  entries = new uint256[](arrayLength) */\n      swap3\n      pop\n        /* \"NFTlotto.sol\":3734:3754  uint256 currentIndex */\n      0x00\n        /* \"NFTlotto.sol\":3779:3780  1 */\n      0x01\n        /* \"NFTlotto.sol\":3765:4082  for(uint256 i=1; i <= roundEntries; i++){\r... */\n    tag_126:\n        /* \"NFTlotto.sol\":3787:3799  roundEntries */\n      dup4\n        /* \"NFTlotto.sol\":3782:3783  i */\n      dup2\n        /* \"NFTlotto.sol\":3782:3799  i <= roundEntries */\n      gt\n        /* \"NFTlotto.sol\":3765:4082  for(uint256 i=1; i <= roundEntries; i++){\r... */\n      tag_127\n      jumpi\n        /* \"NFTlotto.sol\":3835:3842  acesNFT */\n      0x04\n      dup1\n      sload\n        /* \"NFTlotto.sol\":3835:3853  acesNFT.ownerOf(i) */\n      mload(0x40)\n      shl(0xe1, 0x31a9108f)\n      dup2\n      mstore\n      swap2\n      dup3\n      add\n        /* \"#utility.yul\":5713:5738   */\n      dup4\n      swap1\n      mstore\n        /* \"NFTlotto.sol\":3820:3832  address user */\n      0x00\n      swap2\n      sub(shl(0xa0, 0x01), 0x01)\n        /* \"NFTlotto.sol\":3835:3842  acesNFT */\n      swap1\n      swap2\n      and\n      swap1\n        /* \"NFTlotto.sol\":3835:3850  acesNFT.ownerOf */\n      0x6352211e\n      swap1\n        /* \"#utility.yul\":5686:5704   */\n      0x24\n      add\n        /* \"NFTlotto.sol\":3835:3853  acesNFT.ownerOf(i) */\n      0x20\n      mload(0x40)\n      dup1\n      dup4\n      sub\n      dup2\n      dup7\n      dup1\n      extcodesize\n      iszero\n      dup1\n      iszero\n      tag_130\n      jumpi\n      0x00\n      dup1\n      revert\n    tag_130:\n      pop\n      gas\n      staticcall\n      iszero\n      dup1\n      iszero\n      tag_132\n      jumpi\n      returndatasize\n      0x00\n      dup1\n      returndatacopy\n      revert(0x00, returndatasize)\n    tag_132:\n      pop\n      pop\n      pop\n      pop\n      mload(0x40)\n      returndatasize\n      not(0x1f)\n      0x1f\n      dup3\n      add\n      and\n      dup3\n      add\n      dup1\n      0x40\n      mstore\n      pop\n      dup2\n      add\n      swap1\n      tag_133\n      swap2\n      swap1\n      tag_97\n      jump\t// in\n    tag_133:\n        /* \"NFTlotto.sol\":3876:3883  acesNFT */\n      0x04\n      dup1\n      sload\n        /* \"NFTlotto.sol\":3876:3912  acesNFT.tokenOfOwnerByIndex(user, 0) */\n      mload(0x40)\n      shl(0xe0, 0x2f745c59)\n      dup2\n      mstore\n      sub(shl(0xa0, 0x01), 0x01)\n        /* \"#utility.yul\":1987:2019   */\n      dup1\n      dup6\n      and\n        /* \"NFTlotto.sol\":3876:3912  acesNFT.tokenOfOwnerByIndex(user, 0) */\n      swap4\n      dup3\n      add\n        /* \"#utility.yul\":1969:2020   */\n      swap4\n      swap1\n      swap4\n      mstore\n        /* \"NFTlotto.sol\":3876:3883  acesNFT */\n      0x00\n        /* \"#utility.yul\":2036:2054   */\n      0x24\n      dup3\n      add\n        /* \"#utility.yul\":2029:2063   */\n      mstore\n        /* \"NFTlotto.sol\":3820:3853  address user = acesNFT.ownerOf(i) */\n      swap3\n      swap4\n      pop\n        /* \"NFTlotto.sol\":3876:3883  acesNFT */\n      and\n      swap1\n        /* \"NFTlotto.sol\":3876:3903  acesNFT.tokenOfOwnerByIndex */\n      0x2f745c59\n      swap1\n        /* \"#utility.yul\":1942:1960   */\n      0x44\n      add\n        /* \"NFTlotto.sol\":3876:3912  acesNFT.tokenOfOwnerByIndex(user, 0) */\n      0x20\n      mload(0x40)\n      dup1\n      dup4\n      sub\n      dup2\n      dup7\n      dup1\n      extcodesize\n      iszero\n      dup1\n      iszero\n      tag_135\n      jumpi\n      0x00\n      dup1\n      revert\n    tag_135:\n      pop\n      gas\n      staticcall\n      iszero\n      dup1\n      iszero\n      tag_137\n      jumpi\n      returndatasize\n      0x00\n      dup1\n      returndatacopy\n      revert(0x00, returndatasize)\n    tag_137:\n      pop\n      pop\n      pop\n      pop\n      mload(0x40)\n      returndatasize\n      not(0x1f)\n      0x1f\n      dup3\n      add\n      and\n      dup3\n      add\n      dup1\n      0x40\n      mstore\n      pop\n      dup2\n      add\n      swap1\n      tag_138\n      swap2\n      swap1\n      tag_88\n      jump\t// in\n    tag_138:\n        /* \"NFTlotto.sol\":3871:3872  i */\n      dup3\n        /* \"NFTlotto.sol\":3871:3912  i == acesNFT.tokenOfOwnerByIndex(user, 0) */\n      eq\n        /* \"NFTlotto.sol\":3868:4071  if(i == acesNFT.tokenOfOwnerByIndex(user, 0)){\r... */\n      iszero\n      tag_139\n      jumpi\n        /* \"NFTlotto.sol\":3958:3962  user */\n      dup1\n        /* \"NFTlotto.sol\":3932:3941  addresses */\n      dup8\n        /* \"NFTlotto.sol\":3942:3954  currentIndex */\n      dup5\n        /* \"NFTlotto.sol\":3932:3955  addresses[currentIndex] */\n      dup2\n      mload\n      dup2\n      lt\n      tag_141\n      jumpi\n      tag_141\n      tag_142\n      jump\t// in\n    tag_141:\n      0x20\n      mul\n      0x20\n      add\n      add\n        /* \"NFTlotto.sol\":3932:3962  addresses[currentIndex] = user */\n      swap1\n      sub(shl(0xa0, 0x01), 0x01)\n      and\n      swap1\n      dup2\n      sub(shl(0xa0, 0x01), 0x01)\n      and\n      dup2\n      mstore\n      pop\n      pop\n        /* \"NFTlotto.sol\":4005:4022  userEntries(user) */\n      tag_143\n        /* \"NFTlotto.sol\":4017:4021  user */\n      dup2\n        /* \"NFTlotto.sol\":4005:4016  userEntries */\n      tag_52\n        /* \"NFTlotto.sol\":4005:4022  userEntries(user) */\n      jump\t// in\n    tag_143:\n        /* \"NFTlotto.sol\":3981:3988  entries */\n      dup7\n        /* \"NFTlotto.sol\":3989:4001  currentIndex */\n      dup5\n        /* \"NFTlotto.sol\":3981:4002  entries[currentIndex] */\n      dup2\n      mload\n      dup2\n      lt\n      tag_145\n      jumpi\n      tag_145\n      tag_142\n      jump\t// in\n    tag_145:\n      0x20\n      swap1\n      dup2\n      mul\n      swap2\n      swap1\n      swap2\n      add\n      add\n        /* \"NFTlotto.sol\":3981:4022  entries[currentIndex] = userEntries(user) */\n      mstore\n        /* \"NFTlotto.sol\":4041:4055  currentIndex++ */\n      dup3\n      tag_146\n      dup2\n      tag_106\n      jump\t// in\n    tag_146:\n      swap4\n      pop\n      pop\n        /* \"NFTlotto.sol\":3868:4071  if(i == acesNFT.tokenOfOwnerByIndex(user, 0)){\r... */\n    tag_139:\n      pop\n        /* \"NFTlotto.sol\":3801:3804  i++ */\n      dup1\n      tag_147\n      dup2\n      tag_106\n      jump\t// in\n    tag_147:\n      swap2\n      pop\n      pop\n        /* \"NFTlotto.sol\":3765:4082  for(uint256 i=1; i <= roundEntries; i++){\r... */\n      jump(tag_126)\n    tag_127:\n      pop\n        /* \"NFTlotto.sol\":3523:4089  {\r... */\n      pop\n      pop\n      pop\n        /* \"NFTlotto.sol\":3416:4089  function getUniqueAddresses() public view returns (address [] memory addresses, uint256 [] memory entries) {\r... */\n      swap1\n      swap2\n      jump\t// out\n        /* \"NFTlotto.sol\":1705:2223  function updateWinner(uint256 winnerNum, uint256 payout) external onlyOwner {      \r... */\n    tag_42:\n        /* \"https://github.com/OpenZeppelin/openzeppelin-contracts/blob/master/contracts/access/Ownable.sol\":1082:1089  address */\n      0x00\n        /* \"https://github.com/OpenZeppelin/openzeppelin-contracts/blob/master/contracts/access/Ownable.sol\":1108:1114  _owner */\n      sload\n      sub(shl(0xa0, 0x01), 0x01)\n      and\n        /* \"https://github.com/OpenZeppelin/openzeppelin-contracts/blob/master/contracts/utils/Context.sol\":719:729  msg.sender */\n      caller\n        /* \"https://github.com/OpenZeppelin/openzeppelin-contracts/blob/master/contracts/access/Ownable.sol\":1248:1271  owner() == _msgSender() */\n      eq\n        /* \"https://github.com/OpenZeppelin/openzeppelin-contracts/blob/master/contracts/access/Ownable.sol\":1240:1308  require(owner() == _msgSender(), \"Ownable: caller is not the owner\") */\n      tag_152\n      jumpi\n      mload(0x40)\n      shl(0xe5, 0x461bcd)\n      dup2\n      mstore\n      0x04\n      add\n      tag_153\n      swap1\n      tag_154\n      jump\t// in\n    tag_153:\n      mload(0x40)\n      dup1\n      swap2\n      sub\n      swap1\n      revert\n    tag_152:\n        /* \"NFTlotto.sol\":1822:1829  acesNFT */\n      0x04\n      dup1\n      sload\n        /* \"NFTlotto.sol\":1822:1848  acesNFT.ownerOf(winnerNum) */\n      mload(0x40)\n      shl(0xe1, 0x31a9108f)\n      dup2\n      mstore\n      swap2\n      dup3\n      add\n        /* \"#utility.yul\":5713:5738   */\n      dup5\n      swap1\n      mstore\n        /* \"NFTlotto.sol\":1798:1819  address winnerAddress */\n      0x00\n      swap2\n      sub(shl(0xa0, 0x01), 0x01)\n        /* \"NFTlotto.sol\":1822:1829  acesNFT */\n      swap1\n      swap2\n      and\n      swap1\n        /* \"NFTlotto.sol\":1822:1837  acesNFT.ownerOf */\n      0x6352211e\n      swap1\n        /* \"#utility.yul\":5686:5704   */\n      0x24\n      add\n        /* \"NFTlotto.sol\":1822:1848  acesNFT.ownerOf(winnerNum) */\n      0x20\n      mload(0x40)\n      dup1\n      dup4\n      sub\n      dup2\n      dup7\n      dup1\n      extcodesize\n      iszero\n      dup1\n      iszero\n      tag_157\n      jumpi\n      0x00\n      dup1\n      revert\n    tag_157:\n      pop\n      gas\n      staticcall\n      iszero\n      dup1\n      iszero\n      tag_159\n      jumpi\n      returndatasize\n      0x00\n      dup1\n      returndatacopy\n      revert(0x00, returndatasize)\n    tag_159:\n      pop\n      pop\n      pop\n      pop\n      mload(0x40)\n      returndatasize\n      not(0x1f)\n      0x1f\n      dup3\n      add\n      and\n      dup3\n      add\n      dup1\n      0x40\n      mstore\n      pop\n      dup2\n      add\n      swap1\n      tag_160\n      swap2\n      swap1\n      tag_97\n      jump\t// in\n    tag_160:\n        /* \"NFTlotto.sol\":1886:2109  Results ({\r... */\n      0x40\n      dup1\n      mload\n      0xa0\n      dup2\n      add\n      dup1\n      dup4\n      mstore\n        /* \"NFTlotto.sol\":1924:1931  acesNFT */\n      sload(0x04)\n      shl(0xe0, 0x18160ddd)\n        /* \"NFTlotto.sol\":1924:1945  acesNFT.totalSupply() */\n      swap1\n      swap2\n      mstore\n      swap2\n      mload\n        /* \"NFTlotto.sol\":1798:1848  address winnerAddress = acesNFT.ownerOf(winnerNum) */\n      swap3\n      swap4\n      pop\n        /* \"NFTlotto.sol\":1886:2109  Results ({\r... */\n      swap2\n      dup3\n      swap2\n      sub(shl(0xa0, 0x01), 0x01)\n        /* \"NFTlotto.sol\":1924:1931  acesNFT */\n      and\n      swap1\n        /* \"NFTlotto.sol\":1924:1943  acesNFT.totalSupply */\n      0x18160ddd\n      swap1\n        /* \"NFTlotto.sol\":1924:1945  acesNFT.totalSupply() */\n      0xa4\n      dup1\n      dup6\n      add\n      swap2\n      0x20\n      swap2\n      dup2\n      dup8\n      sub\n      add\n      dup2\n        /* \"NFTlotto.sol\":1924:1931  acesNFT */\n      dup7\n        /* \"NFTlotto.sol\":1924:1945  acesNFT.totalSupply() */\n      dup1\n      extcodesize\n      iszero\n      dup1\n      iszero\n      tag_161\n      jumpi\n      0x00\n      dup1\n      revert\n    tag_161:\n      pop\n      gas\n      staticcall\n      iszero\n      dup1\n      iszero\n      tag_163\n      jumpi\n      returndatasize\n      0x00\n      dup1\n      returndatacopy\n      revert(0x00, returndatasize)\n    tag_163:\n      pop\n      pop\n      pop\n      pop\n      mload(0x40)\n      returndatasize\n      not(0x1f)\n      0x1f\n      dup3\n      add\n      and\n      dup3\n      add\n      dup1\n      0x40\n      mstore\n      pop\n      dup2\n      add\n      swap1\n      tag_164\n      swap2\n      swap1\n      tag_88\n      jump\t// in\n    tag_164:\n        /* \"NFTlotto.sol\":1886:2109  Results ({\r... */\n      dup2\n      mstore\n      0x20\n      add\n        /* \"NFTlotto.sol\":1975:1984  winnerNum */\n      dup5\n        /* \"NFTlotto.sol\":1886:2109  Results ({\r... */\n      dup2\n      mstore\n      0x20\n      add\n        /* \"NFTlotto.sol\":2007:2013  payout */\n      dup4\n        /* \"NFTlotto.sol\":1886:2109  Results ({\r... */\n      dup2\n      mstore\n      0x20\n      add\n        /* \"NFTlotto.sol\":2037:2052  block.timestamp */\n      timestamp\n        /* \"NFTlotto.sol\":1886:2109  Results ({\r... */\n      dup2\n      mstore\n      0x20\n      add\n        /* \"NFTlotto.sol\":2083:2096  winnerAddress */\n      dup3\n      sub(shl(0xa0, 0x01), 0x01)\n        /* \"NFTlotto.sol\":1886:2109  Results ({\r... */\n      and\n      dup2\n      mstore\n      pop\n        /* \"NFTlotto.sol\":1861:1873  roundResults */\n      0x05\n        /* \"NFTlotto.sol\":1861:1883  roundResults[roundNum] */\n      0x00\n        /* \"NFTlotto.sol\":1874:1882  roundNum */\n      sload(0x01)\n        /* \"NFTlotto.sol\":1861:1883  roundResults[roundNum] */\n      dup2\n      mstore\n      0x20\n      add\n      swap1\n      dup2\n      mstore\n      0x20\n      add\n      0x00\n      keccak256\n        /* \"NFTlotto.sol\":1861:2109  roundResults[roundNum] = Results ({\r... */\n      0x00\n      dup3\n      add\n      mload\n      dup2\n      0x00\n      add\n      sstore\n      0x20\n      dup3\n      add\n      mload\n      dup2\n      0x01\n      add\n      sstore\n      0x40\n      dup3\n      add\n      mload\n      dup2\n      0x02\n      add\n      sstore\n      0x60\n      dup3\n      add\n      mload\n      dup2\n      0x03\n      add\n      sstore\n      0x80\n      dup3\n      add\n      mload\n      dup2\n      0x04\n      add\n      exp(0x0100, 0x00)\n      dup2\n      sload\n      dup2\n      sub(shl(0xa0, 0x01), 0x01)\n      mul\n      not\n      and\n      swap1\n      dup4\n      sub(shl(0xa0, 0x01), 0x01)\n      and\n      mul\n      or\n      swap1\n      sstore\n      pop\n      swap1\n      pop\n      pop\n        /* \"NFTlotto.sol\":2137:2143  payout */\n      dup2\n        /* \"NFTlotto.sol\":2122:2133  totalPayout */\n      0x02\n      0x00\n        /* \"NFTlotto.sol\":2122:2143  totalPayout += payout */\n      dup3\n      dup3\n      sload\n      tag_165\n      swap2\n      swap1\n      tag_166\n      jump\t// in\n    tag_165:\n      swap1\n      swap2\n      sstore\n      pop\n      pop\n        /* \"NFTlotto.sol\":2154:2162  roundNum */\n      0x01\n        /* \"NFTlotto.sol\":2154:2164  roundNum++ */\n      dup1\n      sload\n      swap1\n        /* \"NFTlotto.sol\":2154:2162  roundNum */\n      0x00\n        /* \"NFTlotto.sol\":2154:2164  roundNum++ */\n      tag_167\n      dup4\n      tag_106\n      jump\t// in\n    tag_167:\n      swap1\n      swap2\n      sstore\n      pop\n      pop\n        /* \"NFTlotto.sol\":2182:2215  LotteryWon(winnerAddress, payout) */\n      0x40\n      dup1\n      mload\n      sub(shl(0xa0, 0x01), 0x01)\n        /* \"#utility.yul\":1987:2019   */\n      dup4\n      and\n        /* \"#utility.yul\":1969:2020   */\n      dup2\n      mstore\n        /* \"#utility.yul\":2051:2053   */\n      0x20\n        /* \"#utility.yul\":2036:2054   */\n      dup2\n      add\n        /* \"#utility.yul\":2029:2063   */\n      dup5\n      swap1\n      mstore\n        /* \"NFTlotto.sol\":2182:2215  LotteryWon(winnerAddress, payout) */\n      0x2e798dd4337e515c79b64c40e1a93baa1aefbd9180ac7905e02508edd7971e50\n      swap2\n        /* \"#utility.yul\":1942:1960   */\n      add\n        /* \"NFTlotto.sol\":2182:2215  LotteryWon(winnerAddress, payout) */\n      mload(0x40)\n      dup1\n      swap2\n      sub\n      swap1\n      log1\n        /* \"NFTlotto.sol\":1781:2223  {      \r... */\n      pop\n        /* \"NFTlotto.sol\":1705:2223  function updateWinner(uint256 winnerNum, uint256 payout) external onlyOwner {      \r... */\n      pop\n      pop\n      jump\t// out\n        /* \"https://github.com/OpenZeppelin/openzeppelin-contracts/blob/master/contracts/access/Ownable.sol\":1668:1769  function renounceOwnership() public virtual onlyOwner {... */\n    tag_44:\n        /* \"https://github.com/OpenZeppelin/openzeppelin-contracts/blob/master/contracts/access/Ownable.sol\":1082:1089  address */\n      0x00\n        /* \"https://github.com/OpenZeppelin/openzeppelin-contracts/blob/master/contracts/access/Ownable.sol\":1108:1114  _owner */\n      sload\n      sub(shl(0xa0, 0x01), 0x01)\n      and\n        /* \"https://github.com/OpenZeppelin/openzeppelin-contracts/blob/master/contracts/utils/Context.sol\":719:729  msg.sender */\n      caller\n        /* \"https://github.com/OpenZeppelin/openzeppelin-contracts/blob/master/contracts/access/Ownable.sol\":1248:1271  owner() == _msgSender() */\n      eq\n        /* \"https://github.com/OpenZeppelin/openzeppelin-contracts/blob/master/contracts/access/Ownable.sol\":1240:1308  require(owner() == _msgSender(), \"Ownable: caller is not the owner\") */\n      tag_173\n      jumpi\n      mload(0x40)\n      shl(0xe5, 0x461bcd)\n      dup2\n      mstore\n      0x04\n      add\n      tag_153\n      swap1\n      tag_154\n      jump\t// in\n    tag_173:\n        /* \"https://github.com/OpenZeppelin/openzeppelin-contracts/blob/master/contracts/access/Ownable.sol\":1732:1762  _transferOwnership(address(0)) */\n      tag_176\n        /* \"https://github.com/OpenZeppelin/openzeppelin-contracts/blob/master/contracts/access/Ownable.sol\":1759:1760  0 */\n      0x00\n        /* \"https://github.com/OpenZeppelin/openzeppelin-contracts/blob/master/contracts/access/Ownable.sol\":1732:1750  _transferOwnership */\n      tag_177\n        /* \"https://github.com/OpenZeppelin/openzeppelin-contracts/blob/master/contracts/access/Ownable.sol\":1732:1762  _transferOwnership(address(0)) */\n      jump\t// in\n    tag_176:\n        /* \"https://github.com/OpenZeppelin/openzeppelin-contracts/blob/master/contracts/access/Ownable.sol\":1668:1769  function renounceOwnership() public virtual onlyOwner {... */\n      jump\t// out\n        /* \"NFTlotto.sol\":2233:2353  function userEntries(address account) public view returns (uint256) {\r... */\n    tag_52:\n        /* \"NFTlotto.sol\":2319:2326  acesNFT */\n      0x04\n      dup1\n      sload\n        /* \"NFTlotto.sol\":2319:2345  acesNFT.balanceOf(account) */\n      mload(0x40)\n      shl(0xe0, 0x70a08231)\n      dup2\n      mstore\n      sub(shl(0xa0, 0x01), 0x01)\n        /* \"#utility.yul\":1743:1775   */\n      dup5\n      dup2\n      and\n        /* \"NFTlotto.sol\":2319:2345  acesNFT.balanceOf(account) */\n      swap4\n      dup3\n      add\n        /* \"#utility.yul\":1725:1776   */\n      swap4\n      swap1\n      swap4\n      mstore\n        /* \"NFTlotto.sol\":2292:2299  uint256 */\n      0x00\n      swap3\n        /* \"NFTlotto.sol\":2319:2326  acesNFT */\n      swap1\n      swap2\n      and\n      swap1\n        /* \"NFTlotto.sol\":2319:2336  acesNFT.balanceOf */\n      0x70a08231\n      swap1\n        /* \"#utility.yul\":1698:1716   */\n      0x24\n      add\n        /* \"NFTlotto.sol\":2319:2345  acesNFT.balanceOf(account) */\n      0x20\n      mload(0x40)\n      dup1\n      dup4\n      sub\n      dup2\n      dup7\n      dup1\n      extcodesize\n      iszero\n      dup1\n      iszero\n      tag_181\n      jumpi\n      0x00\n      dup1\n      revert\n    tag_181:\n      pop\n      gas\n      staticcall\n      iszero\n      dup1\n      iszero\n      tag_183\n      jumpi\n      returndatasize\n      0x00\n      dup1\n      returndatacopy\n      revert(0x00, returndatasize)\n    tag_183:\n      pop\n      pop\n      pop\n      pop\n      mload(0x40)\n      returndatasize\n      not(0x1f)\n      0x1f\n      dup3\n      add\n      and\n      dup3\n      add\n      dup1\n      0x40\n      mstore\n      pop\n      dup2\n      add\n      swap1\n      tag_184\n      swap2\n      swap1\n      tag_88\n      jump\t// in\n    tag_184:\n        /* \"NFTlotto.sol\":2312:2345  return acesNFT.balanceOf(account) */\n      swap3\n        /* \"NFTlotto.sol\":2233:2353  function userEntries(address account) public view returns (uint256) {\r... */\n      swap2\n      pop\n      pop\n      jump\t// out\n        /* \"NFTlotto.sol\":2361:2951  function resultLog(uint256 startIndex, uint256 endIndex) external view returns(Results [] memory log){\r... */\n    tag_66:\n        /* \"NFTlotto.sol\":2440:2461  Results [] memory log */\n      0x60\n        /* \"NFTlotto.sol\":2476:2484  roundNum */\n      sload(0x01)\n        /* \"NFTlotto.sol\":2488:2489  0 */\n      0x00\n        /* \"NFTlotto.sol\":2476:2489  roundNum == 0 */\n      eq\n        /* \"NFTlotto.sol\":2473:2546  if(roundNum == 0){\r... */\n      iszero\n      tag_186\n      jumpi\n        /* \"NFTlotto.sol\":2518:2534  new Results[](0) */\n      0x40\n      dup1\n      mload\n        /* \"NFTlotto.sol\":2532:2533  0 */\n      0x00\n        /* \"NFTlotto.sol\":2518:2534  new Results[](0) */\n      dup1\n      dup3\n      mstore\n      0x20\n      dup3\n      add\n      swap1\n      swap3\n      mstore\n      swap1\n      jump(tag_189)\n    tag_190:\n      tag_191\n      tag_192\n      jump\t// in\n    tag_191:\n      dup2\n      mstore\n      0x20\n      add\n      swap1\n      0x01\n      swap1\n      sub\n      swap1\n      dup2\n      tag_190\n      jumpi\n      swap1\n      pop\n    tag_189:\n      pop\n        /* \"NFTlotto.sol\":2512:2534  log = new Results[](0) */\n      swap1\n      pop\n        /* \"NFTlotto.sol\":2505:2534  return log = new Results[](0) */\n      jump(tag_184)\n        /* \"NFTlotto.sol\":2473:2546  if(roundNum == 0){\r... */\n    tag_186:\n        /* \"NFTlotto.sol\":2582:2590  roundNum */\n      sload(0x01)\n        /* \"NFTlotto.sol\":2570:2578  endIndex */\n      dup3\n        /* \"NFTlotto.sol\":2570:2590  endIndex >= roundNum */\n      lt\n        /* \"NFTlotto.sol\":2566:2642  if (endIndex >= roundNum) {\r... */\n      tag_193\n      jumpi\n        /* \"NFTlotto.sol\":2629:2630  1 */\n      0x01\n        /* \"NFTlotto.sol\":2618:2626  roundNum */\n      dup1\n      sload\n        /* \"NFTlotto.sol\":2618:2630  roundNum - 1 */\n      tag_194\n      swap2\n      swap1\n      tag_195\n      jump\t// in\n    tag_194:\n        /* \"NFTlotto.sol\":2607:2630  endIndex = roundNum - 1 */\n      swap2\n      pop\n        /* \"NFTlotto.sol\":2566:2642  if (endIndex >= roundNum) {\r... */\n    tag_193:\n        /* \"NFTlotto.sol\":2654:2673  uint256 arrayLength */\n      0x00\n        /* \"NFTlotto.sol\":2676:2697  endIndex - startIndex */\n      tag_196\n        /* \"NFTlotto.sol\":2687:2697  startIndex */\n      dup5\n        /* \"NFTlotto.sol\":2676:2684  endIndex */\n      dup5\n        /* \"NFTlotto.sol\":2676:2697  endIndex - startIndex */\n      tag_195\n      jump\t// in\n    tag_196:\n        /* \"NFTlotto.sol\":2676:2701  endIndex - startIndex + 1 */\n      tag_197\n      swap1\n        /* \"NFTlotto.sol\":2700:2701  1 */\n      0x01\n        /* \"NFTlotto.sol\":2676:2701  endIndex - startIndex + 1 */\n      tag_166\n      jump\t// in\n    tag_197:\n        /* \"NFTlotto.sol\":2654:2701  uint256 arrayLength = endIndex - startIndex + 1 */\n      swap1\n      pop\n        /* \"NFTlotto.sol\":2712:2732  uint256 currentIndex */\n      0x00\n        /* \"NFTlotto.sol\":2763:2774  arrayLength */\n      dup2\n        /* \"NFTlotto.sol\":2749:2775  new Results[](arrayLength) */\n      0xffffffffffffffff\n      dup2\n      gt\n      iszero\n      tag_199\n      jumpi\n      tag_199\n      tag_121\n      jump\t// in\n    tag_199:\n      mload(0x40)\n      swap1\n      dup1\n      dup3\n      mstore\n      dup1\n      0x20\n      mul\n      0x20\n      add\n      dup3\n      add\n      0x40\n      mstore\n      dup1\n      iszero\n      tag_200\n      jumpi\n      dup2\n      0x20\n      add\n    tag_201:\n      tag_202\n      tag_192\n      jump\t// in\n    tag_202:\n      dup2\n      mstore\n      0x20\n      add\n      swap1\n      0x01\n      swap1\n      sub\n      swap1\n      dup2\n      tag_201\n      jumpi\n      swap1\n      pop\n    tag_200:\n      pop\n        /* \"NFTlotto.sol\":2743:2775  log = new Results[](arrayLength) */\n      swap3\n      pop\n        /* \"NFTlotto.sol\":2808:2818  startIndex */\n      dup5\n        /* \"NFTlotto.sol\":2791:2944  for (uint256 i = startIndex; i <= endIndex; i++) {\r... */\n    tag_203:\n        /* \"NFTlotto.sol\":2825:2833  endIndex */\n      dup5\n        /* \"NFTlotto.sol\":2820:2821  i */\n      dup2\n        /* \"NFTlotto.sol\":2820:2833  i <= endIndex */\n      gt\n        /* \"NFTlotto.sol\":2791:2944  for (uint256 i = startIndex; i <= endIndex; i++) {\r... */\n      tag_204\n      jumpi\n        /* \"NFTlotto.sol\":2875:2887  roundResults */\n      0x05\n        /* \"NFTlotto.sol\":2875:2903  roundResults[startIndex + i] */\n      0x00\n        /* \"NFTlotto.sol\":2888:2902  startIndex + i */\n      tag_206\n        /* \"NFTlotto.sol\":2901:2902  i */\n      dup4\n        /* \"NFTlotto.sol\":2888:2898  startIndex */\n      dup10\n        /* \"NFTlotto.sol\":2888:2902  startIndex + i */\n      tag_166\n      jump\t// in\n    tag_206:\n        /* \"NFTlotto.sol\":2875:2903  roundResults[startIndex + i] */\n      dup2\n      mstore\n      0x20\n      dup1\n      dup3\n      add\n      swap3\n      swap1\n      swap3\n      mstore\n      0x40\n      swap1\n      dup2\n      add\n      0x00\n      keccak256\n        /* \"NFTlotto.sol\":2855:2903  log[currentIndex] = roundResults[startIndex + i] */\n      dup2\n      mload\n      0xa0\n      dup2\n      add\n      dup4\n      mstore\n      dup2\n      sload\n      dup2\n      mstore\n      0x01\n      dup3\n      add\n      sload\n      swap4\n      dup2\n      add\n      swap4\n      swap1\n      swap4\n      mstore\n      0x02\n      dup2\n      add\n      sload\n      swap2\n      dup4\n      add\n      swap2\n      swap1\n      swap2\n      mstore\n      0x03\n      dup2\n      add\n      sload\n      0x60\n      dup4\n      add\n      mstore\n      0x04\n      add\n      sload\n      sub(shl(0xa0, 0x01), 0x01)\n      and\n      0x80\n      dup3\n      add\n      mstore\n        /* \"NFTlotto.sol\":2855:2872  log[currentIndex] */\n      dup5\n      mload\n        /* \"NFTlotto.sol\":2855:2858  log */\n      dup6\n      swap1\n        /* \"NFTlotto.sol\":2859:2871  currentIndex */\n      dup5\n      swap1\n        /* \"NFTlotto.sol\":2855:2872  log[currentIndex] */\n      dup2\n      lt\n      tag_208\n      jumpi\n      tag_208\n      tag_142\n      jump\t// in\n    tag_208:\n      0x20\n      mul\n      0x20\n      add\n      add\n        /* \"NFTlotto.sol\":2855:2903  log[currentIndex] = roundResults[startIndex + i] */\n      dup2\n      swap1\n      mstore\n      pop\n        /* \"NFTlotto.sol\":2918:2932  currentIndex++ */\n      dup2\n      dup1\n      tag_209\n      swap1\n      tag_106\n      jump\t// in\n    tag_209:\n      swap3\n      pop\n      pop\n        /* \"NFTlotto.sol\":2835:2838  i++ */\n      dup1\n      dup1\n      tag_210\n      swap1\n      tag_106\n      jump\t// in\n    tag_210:\n      swap2\n      pop\n      pop\n        /* \"NFTlotto.sol\":2791:2944  for (uint256 i = startIndex; i <= endIndex; i++) {\r... */\n      jump(tag_203)\n    tag_204:\n      pop\n        /* \"NFTlotto.sol\":2462:2951  {\r... */\n      pop\n      pop\n        /* \"NFTlotto.sol\":2361:2951  function resultLog(uint256 startIndex, uint256 endIndex) external view returns(Results [] memory log){\r... */\n      swap3\n      swap2\n      pop\n      pop\n      jump\t// out\n        /* \"https://github.com/OpenZeppelin/openzeppelin-contracts/blob/master/contracts/access/Ownable.sol\":1918:2116  function transferOwnership(address newOwner) public virtual onlyOwner {... */\n    tag_71:\n        /* \"https://github.com/OpenZeppelin/openzeppelin-contracts/blob/master/contracts/access/Ownable.sol\":1082:1089  address */\n      0x00\n        /* \"https://github.com/OpenZeppelin/openzeppelin-contracts/blob/master/contracts/access/Ownable.sol\":1108:1114  _owner */\n      sload\n      sub(shl(0xa0, 0x01), 0x01)\n      and\n        /* \"https://github.com/OpenZeppelin/openzeppelin-contracts/blob/master/contracts/utils/Context.sol\":719:729  msg.sender */\n      caller\n        /* \"https://github.com/OpenZeppelin/openzeppelin-contracts/blob/master/contracts/access/Ownable.sol\":1248:1271  owner() == _msgSender() */\n      eq\n        /* \"https://github.com/OpenZeppelin/openzeppelin-contracts/blob/master/contracts/access/Ownable.sol\":1240:1308  require(owner() == _msgSender(), \"Ownable: caller is not the owner\") */\n      tag_214\n      jumpi\n      mload(0x40)\n      shl(0xe5, 0x461bcd)\n      dup2\n      mstore\n      0x04\n      add\n      tag_153\n      swap1\n      tag_154\n      jump\t// in\n    tag_214:\n      sub(shl(0xa0, 0x01), 0x01)\n        /* \"https://github.com/OpenZeppelin/openzeppelin-contracts/blob/master/contracts/access/Ownable.sol\":2006:2028  newOwner != address(0) */\n      dup2\n      and\n        /* \"https://github.com/OpenZeppelin/openzeppelin-contracts/blob/master/contracts/access/Ownable.sol\":1998:2071  require(newOwner != address(0), \"Ownable: new owner is the zero address\") */\n      tag_217\n      jumpi\n      mload(0x40)\n      shl(0xe5, 0x461bcd)\n      dup2\n      mstore\n        /* \"#utility.yul\":5001:5003   */\n      0x20\n        /* \"https://github.com/OpenZeppelin/openzeppelin-contracts/blob/master/contracts/access/Ownable.sol\":1998:2071  require(newOwner != address(0), \"Ownable: new owner is the zero address\") */\n      0x04\n      dup3\n      add\n        /* \"#utility.yul\":4983:5004   */\n      mstore\n        /* \"#utility.yul\":5040:5042   */\n      0x26\n        /* \"#utility.yul\":5020:5038   */\n      0x24\n      dup3\n      add\n        /* \"#utility.yul\":5013:5043   */\n      mstore\n        /* \"#utility.yul\":5079:5113   */\n      0x4f776e61626c653a206e6577206f776e657220697320746865207a65726f2061\n        /* \"#utility.yul\":5059:5077   */\n      0x44\n      dup3\n      add\n        /* \"#utility.yul\":5052:5114   */\n      mstore\n      shl(0xd0, 0x646472657373)\n        /* \"#utility.yul\":5130:5148   */\n      0x64\n      dup3\n      add\n        /* \"#utility.yul\":5123:5159   */\n      mstore\n        /* \"#utility.yul\":5176:5195   */\n      0x84\n      add\n        /* \"https://github.com/OpenZeppelin/openzeppelin-contracts/blob/master/contracts/access/Ownable.sol\":1998:2071  require(newOwner != address(0), \"Ownable: new owner is the zero address\") */\n      tag_153\n        /* \"#utility.yul\":4799:5201   */\n      jump\n        /* \"https://github.com/OpenZeppelin/openzeppelin-contracts/blob/master/contracts/access/Ownable.sol\":1998:2071  require(newOwner != address(0), \"Ownable: new owner is the zero address\") */\n    tag_217:\n        /* \"https://github.com/OpenZeppelin/openzeppelin-contracts/blob/master/contracts/access/Ownable.sol\":2081:2109  _transferOwnership(newOwner) */\n      tag_220\n        /* \"https://github.com/OpenZeppelin/openzeppelin-contracts/blob/master/contracts/access/Ownable.sol\":2100:2108  newOwner */\n      dup2\n        /* \"https://github.com/OpenZeppelin/openzeppelin-contracts/blob/master/contracts/access/Ownable.sol\":2081:2099  _transferOwnership */\n      tag_177\n        /* \"https://github.com/OpenZeppelin/openzeppelin-contracts/blob/master/contracts/access/Ownable.sol\":2081:2109  _transferOwnership(newOwner) */\n      jump\t// in\n    tag_220:\n        /* \"https://github.com/OpenZeppelin/openzeppelin-contracts/blob/master/contracts/access/Ownable.sol\":1918:2116  function transferOwnership(address newOwner) public virtual onlyOwner {... */\n      pop\n      jump\t// out\n        /* \"NFTlotto.sol\":1427:1697  function pickWinner(uint256 seed) external view returns(uint256 winnerNum, address winnerAddress) {\r... */\n    tag_74:\n        /* \"NFTlotto.sol\":1483:1500  uint256 winnerNum */\n      0x00\n        /* \"NFTlotto.sol\":1502:1523  address winnerAddress */\n      dup1\n        /* \"NFTlotto.sol\":1536:1556  uint256 roundEntries */\n      0x00\n        /* \"NFTlotto.sol\":1559:1566  acesNFT */\n      0x04\n      0x00\n      swap1\n      sload\n      swap1\n      0x0100\n      exp\n      swap1\n      div\n      sub(shl(0xa0, 0x01), 0x01)\n      and\n      sub(shl(0xa0, 0x01), 0x01)\n        /* \"NFTlotto.sol\":1559:1578  acesNFT.totalSupply */\n      and\n      0x18160ddd\n        /* \"NFTlotto.sol\":1559:1580  acesNFT.totalSupply() */\n      mload(0x40)\n      dup2\n      0xffffffff\n      and\n      0xe0\n      shl\n      dup2\n      mstore\n      0x04\n      add\n      0x20\n      mload(0x40)\n      dup1\n      dup4\n      sub\n      dup2\n      dup7\n      dup1\n      extcodesize\n      iszero\n      dup1\n      iszero\n      tag_222\n      jumpi\n      0x00\n      dup1\n      revert\n    tag_222:\n      pop\n      gas\n      staticcall\n      iszero\n      dup1\n      iszero\n      tag_224\n      jumpi\n      returndatasize\n      0x00\n      dup1\n      returndatacopy\n      revert(0x00, returndatasize)\n    tag_224:\n      pop\n      pop\n      pop\n      pop\n      mload(0x40)\n      returndatasize\n      not(0x1f)\n      0x1f\n      dup3\n      add\n      and\n      dup3\n      add\n      dup1\n      0x40\n      mstore\n      pop\n      dup2\n      add\n      swap1\n      tag_225\n      swap2\n      swap1\n      tag_88\n      jump\t// in\n    tag_225:\n        /* \"NFTlotto.sol\":1536:1580  uint256 roundEntries = acesNFT.totalSupply() */\n      swap1\n      pop\n        /* \"NFTlotto.sol\":1619:1631  roundEntries */\n      dup1\n        /* \"NFTlotto.sol\":1604:1616  random(seed) */\n      tag_226\n        /* \"NFTlotto.sol\":1611:1615  seed */\n      dup6\n        /* \"NFTlotto.sol\":1604:1610  random */\n      tag_227\n        /* \"NFTlotto.sol\":1604:1616  random(seed) */\n      jump\t// in\n    tag_226:\n        /* \"NFTlotto.sol\":1604:1631  random(seed) % roundEntries */\n      tag_228\n      swap2\n      swap1\n      tag_229\n      jump\t// in\n    tag_228:\n        /* \"NFTlotto.sol\":1603:1636  (random(seed) % roundEntries) + 1 */\n      tag_230\n      swap1\n        /* \"NFTlotto.sol\":1635:1636  1 */\n      0x01\n        /* \"NFTlotto.sol\":1603:1636  (random(seed) % roundEntries) + 1 */\n      tag_166\n      jump\t// in\n    tag_230:\n        /* \"NFTlotto.sol\":1663:1670  acesNFT */\n      0x04\n      dup1\n      sload\n        /* \"NFTlotto.sol\":1663:1689  acesNFT.ownerOf(winnerNum) */\n      mload(0x40)\n      shl(0xe1, 0x31a9108f)\n      dup2\n      mstore\n        /* \"NFTlotto.sol\":1591:1636  winnerNum = (random(seed) % roundEntries) + 1 */\n      swap3\n      swap6\n      pop\n      sub(shl(0xa0, 0x01), 0x01)\n        /* \"NFTlotto.sol\":1663:1670  acesNFT */\n      and\n      swap2\n        /* \"NFTlotto.sol\":1663:1678  acesNFT.ownerOf */\n      0x6352211e\n      swap2\n        /* \"NFTlotto.sol\":1663:1689  acesNFT.ownerOf(winnerNum) */\n      tag_231\n      swap2\n        /* \"NFTlotto.sol\":1591:1636  winnerNum = (random(seed) % roundEntries) + 1 */\n      dup8\n      swap2\n        /* \"NFTlotto.sol\":1663:1689  acesNFT.ownerOf(winnerNum) */\n      add\n        /* \"#utility.yul\":5713:5738   */\n      swap1\n      dup2\n      mstore\n        /* \"#utility.yul\":5701:5703   */\n      0x20\n        /* \"#utility.yul\":5686:5704   */\n      add\n      swap1\n        /* \"#utility.yul\":5567:5744   */\n      jump\n        /* \"NFTlotto.sol\":1663:1689  acesNFT.ownerOf(winnerNum) */\n    tag_231:\n      0x20\n      mload(0x40)\n      dup1\n      dup4\n      sub\n      dup2\n      dup7\n      dup1\n      extcodesize\n      iszero\n      dup1\n      iszero\n      tag_232\n      jumpi\n      0x00\n      dup1\n      revert\n    tag_232:\n      pop\n      gas\n      staticcall\n      iszero\n      dup1\n      iszero\n      tag_234\n      jumpi\n      returndatasize\n      0x00\n      dup1\n      returndatacopy\n      revert(0x00, returndatasize)\n    tag_234:\n      pop\n      pop\n      pop\n      pop\n      mload(0x40)\n      returndatasize\n      not(0x1f)\n      0x1f\n      dup3\n      add\n      and\n      dup3\n      add\n      dup1\n      0x40\n      mstore\n      pop\n      dup2\n      add\n      swap1\n      tag_235\n      swap2\n      swap1\n      tag_97\n      jump\t// in\n    tag_235:\n        /* \"NFTlotto.sol\":1647:1689  winnerAddress = acesNFT.ownerOf(winnerNum) */\n      swap2\n      pop\n        /* \"NFTlotto.sol\":1525:1697  {\r... */\n      pop\n        /* \"NFTlotto.sol\":1427:1697  function pickWinner(uint256 seed) external view returns(uint256 winnerNum, address winnerAddress) {\r... */\n      swap2\n      pop\n      swap2\n      jump\t// out\n        /* \"NFTlotto.sol\":1309:1419  function updateJackpot(uint256 _newJackpot) external onlyOwner {\r... */\n    tag_79:\n        /* \"https://github.com/OpenZeppelin/openzeppelin-contracts/blob/master/contracts/access/Ownable.sol\":1082:1089  address */\n      0x00\n        /* \"https://github.com/OpenZeppelin/openzeppelin-contracts/blob/master/contracts/access/Ownable.sol\":1108:1114  _owner */\n      sload\n      sub(shl(0xa0, 0x01), 0x01)\n      and\n        /* \"https://github.com/OpenZeppelin/openzeppelin-contracts/blob/master/contracts/utils/Context.sol\":719:729  msg.sender */\n      caller\n        /* \"https://github.com/OpenZeppelin/openzeppelin-contracts/blob/master/contracts/access/Ownable.sol\":1248:1271  owner() == _msgSender() */\n      eq\n        /* \"https://github.com/OpenZeppelin/openzeppelin-contracts/blob/master/contracts/access/Ownable.sol\":1240:1308  require(owner() == _msgSender(), \"Ownable: caller is not the owner\") */\n      tag_239\n      jumpi\n      mload(0x40)\n      shl(0xe5, 0x461bcd)\n      dup2\n      mstore\n      0x04\n      add\n      tag_153\n      swap1\n      tag_154\n      jump\t// in\n    tag_239:\n        /* \"NFTlotto.sol\":1383:1397  currentJackpot */\n      0x03\n        /* \"NFTlotto.sol\":1383:1411  currentJackpot = _newJackpot */\n      sstore\n        /* \"NFTlotto.sol\":1309:1419  function updateJackpot(uint256 _newJackpot) external onlyOwner {\r... */\n      jump\t// out\n        /* \"https://github.com/OpenZeppelin/openzeppelin-contracts/blob/master/contracts/access/Ownable.sol\":2270:2457  function _transferOwnership(address newOwner) internal virtual {... */\n    tag_177:\n        /* \"https://github.com/OpenZeppelin/openzeppelin-contracts/blob/master/contracts/access/Ownable.sol\":2343:2359  address oldOwner */\n      0x00\n        /* \"https://github.com/OpenZeppelin/openzeppelin-contracts/blob/master/contracts/access/Ownable.sol\":2362:2368  _owner */\n      dup1\n      sload\n      sub(shl(0xa0, 0x01), 0x01)\n        /* \"https://github.com/OpenZeppelin/openzeppelin-contracts/blob/master/contracts/access/Ownable.sol\":2378:2395  _owner = newOwner */\n      dup4\n      dup2\n      and\n      not(sub(shl(0xa0, 0x01), 0x01))\n      dup4\n      and\n      dup2\n      or\n      dup5\n      sstore\n        /* \"https://github.com/OpenZeppelin/openzeppelin-contracts/blob/master/contracts/access/Ownable.sol\":2410:2450  OwnershipTransferred(oldOwner, newOwner) */\n      mload(0x40)\n        /* \"https://github.com/OpenZeppelin/openzeppelin-contracts/blob/master/contracts/access/Ownable.sol\":2362:2368  _owner */\n      swap2\n      swap1\n      swap3\n      and\n      swap3\n      dup4\n      swap2\n        /* \"https://github.com/OpenZeppelin/openzeppelin-contracts/blob/master/contracts/access/Ownable.sol\":2410:2450  OwnershipTransferred(oldOwner, newOwner) */\n      0x8be0079c531659141344cd1fd0a4f28419497f9722a3daafe3b4186f6b6457e0\n      swap2\n        /* \"https://github.com/OpenZeppelin/openzeppelin-contracts/blob/master/contracts/access/Ownable.sol\":2343:2359  address oldOwner */\n      swap1\n        /* \"https://github.com/OpenZeppelin/openzeppelin-contracts/blob/master/contracts/access/Ownable.sol\":2410:2450  OwnershipTransferred(oldOwner, newOwner) */\n      log3\n        /* \"https://github.com/OpenZeppelin/openzeppelin-contracts/blob/master/contracts/access/Ownable.sol\":2333:2457  {... */\n      pop\n        /* \"https://github.com/OpenZeppelin/openzeppelin-contracts/blob/master/contracts/access/Ownable.sol\":2270:2457  function _transferOwnership(address newOwner) internal virtual {... */\n      pop\n      jump\t// out\n        /* \"NFTlotto.sol\":4097:4475  function random(uint256 seed) internal view returns (uint256) {\r... */\n    tag_227:\n        /* \"NFTlotto.sol\":4150:4157  uint256 */\n      0x00\n        /* \"NFTlotto.sol\":4291:4295  seed */\n      dup2\n        /* \"NFTlotto.sol\":4322:4337  block.timestamp */\n      timestamp\n        /* \"NFTlotto.sol\":4364:4373  gasleft() */\n      gas\n        /* \"NFTlotto.sol\":4248:4433  abi.encodePacked(\r... */\n      0x40\n      dup1\n      mload\n      0x20\n      dup2\n      add\n        /* \"#utility.yul\":1362:1381   */\n      swap5\n      swap1\n      swap5\n      mstore\n        /* \"#utility.yul\":1397:1409   */\n      dup4\n      add\n        /* \"#utility.yul\":1390:1418   */\n      swap2\n      swap1\n      swap2\n      mstore\n        /* \"#utility.yul\":1434:1446   */\n      0x60\n      dup1\n      dup4\n      add\n        /* \"#utility.yul\":1427:1455   */\n      swap2\n      swap1\n      swap2\n      mstore\n        /* \"NFTlotto.sol\":4400:4410  msg.sender */\n      caller\n        /* \"#utility.yul\":1489:1504   */\n      swap1\n      shl\n      not(0xffffffffffffffffffffffff)\n        /* \"#utility.yul\":1485:1538   */\n      and\n        /* \"#utility.yul\":1471:1483   */\n      0x80\n      dup3\n      add\n        /* \"#utility.yul\":1464:1539   */\n      mstore\n        /* \"#utility.yul\":1555:1568   */\n      0x94\n      add\n        /* \"NFTlotto.sol\":4248:4433  abi.encodePacked(\r... */\n      0x40\n      dup1\n      mload\n      not(0x1f)\n      dup2\n      dup5\n      sub\n      add\n      dup2\n      mstore\n      swap2\n      swap1\n      mstore\n        /* \"NFTlotto.sol\":4216:4452  keccak256(\r... */\n      dup1\n      mload\n        /* \"NFTlotto.sol\":4248:4433  abi.encodePacked(\r... */\n      0x20\n        /* \"NFTlotto.sol\":4216:4452  keccak256(\r... */\n      swap1\n      swap2\n      add\n      keccak256\n      swap3\n        /* \"NFTlotto.sol\":4097:4475  function random(uint256 seed) internal view returns (uint256) {\r... */\n      swap2\n      pop\n      pop\n      jump\t// out\n    tag_192:\n      mload(0x40)\n      dup1\n      0xa0\n      add\n      0x40\n      mstore\n      dup1\n      0x00\n      dup2\n      mstore\n      0x20\n      add\n      0x00\n      dup2\n      mstore\n      0x20\n      add\n      0x00\n      dup2\n      mstore\n      0x20\n      add\n      0x00\n      dup2\n      mstore\n      0x20\n      add\n      and(sub(shl(0xa0, 0x01), 0x01), 0x00)\n      dup2\n      mstore\n      pop\n      swap1\n      jump\t// out\n        /* \"#utility.yul\":14:261   */\n    tag_51:\n        /* \"#utility.yul\":73:79   */\n      0x00\n        /* \"#utility.yul\":126:128   */\n      0x20\n        /* \"#utility.yul\":114:123   */\n      dup3\n        /* \"#utility.yul\":105:112   */\n      dup5\n        /* \"#utility.yul\":101:124   */\n      sub\n        /* \"#utility.yul\":97:129   */\n      slt\n        /* \"#utility.yul\":94:146   */\n      iszero\n      tag_249\n      jumpi\n        /* \"#utility.yul\":142:143   */\n      0x00\n        /* \"#utility.yul\":139:140   */\n      dup1\n        /* \"#utility.yul\":132:144   */\n      revert\n        /* \"#utility.yul\":94:146   */\n    tag_249:\n        /* \"#utility.yul\":181:190   */\n      dup2\n        /* \"#utility.yul\":168:191   */\n      calldataload\n        /* \"#utility.yul\":200:231   */\n      tag_250\n        /* \"#utility.yul\":225:230   */\n      dup2\n        /* \"#utility.yul\":200:231   */\n      tag_251\n      jump\t// in\n    tag_250:\n        /* \"#utility.yul\":250:255   */\n      swap4\n        /* \"#utility.yul\":14:261   */\n      swap3\n      pop\n      pop\n      pop\n      jump\t// out\n        /* \"#utility.yul\":266:517   */\n    tag_97:\n        /* \"#utility.yul\":336:342   */\n      0x00\n        /* \"#utility.yul\":389:391   */\n      0x20\n        /* \"#utility.yul\":377:386   */\n      dup3\n        /* \"#utility.yul\":368:375   */\n      dup5\n        /* \"#utility.yul\":364:387   */\n      sub\n        /* \"#utility.yul\":360:392   */\n      slt\n        /* \"#utility.yul\":357:409   */\n      iszero\n      tag_253\n      jumpi\n        /* \"#utility.yul\":405:406   */\n      0x00\n        /* \"#utility.yul\":402:403   */\n      dup1\n        /* \"#utility.yul\":395:407   */\n      revert\n        /* \"#utility.yul\":357:409   */\n    tag_253:\n        /* \"#utility.yul\":437:446   */\n      dup2\n        /* \"#utility.yul\":431:447   */\n      mload\n        /* \"#utility.yul\":456:487   */\n      tag_250\n        /* \"#utility.yul\":481:486   */\n      dup2\n        /* \"#utility.yul\":456:487   */\n      tag_251\n      jump\t// in\n        /* \"#utility.yul\":522:702   */\n    tag_56:\n        /* \"#utility.yul\":581:587   */\n      0x00\n        /* \"#utility.yul\":634:636   */\n      0x20\n        /* \"#utility.yul\":622:631   */\n      dup3\n        /* \"#utility.yul\":613:620   */\n      dup5\n        /* \"#utility.yul\":609:632   */\n      sub\n        /* \"#utility.yul\":605:637   */\n      slt\n        /* \"#utility.yul\":602:654   */\n      iszero\n      tag_256\n      jumpi\n        /* \"#utility.yul\":650:651   */\n      0x00\n        /* \"#utility.yul\":647:648   */\n      dup1\n        /* \"#utility.yul\":640:652   */\n      revert\n        /* \"#utility.yul\":602:654   */\n    tag_256:\n      pop\n        /* \"#utility.yul\":673:696   */\n      calldataload\n      swap2\n        /* \"#utility.yul\":522:702   */\n      swap1\n      pop\n      jump\t// out\n        /* \"#utility.yul\":707:891   */\n    tag_88:\n        /* \"#utility.yul\":777:783   */\n      0x00\n        /* \"#utility.yul\":830:832   */\n      0x20\n        /* \"#utility.yul\":818:827   */\n      dup3\n        /* \"#utility.yul\":809:816   */\n      dup5\n        /* \"#utility.yul\":805:828   */\n      sub\n        /* \"#utility.yul\":801:833   */\n      slt\n        /* \"#utility.yul\":798:850   */\n      iszero\n      tag_258\n      jumpi\n        /* \"#utility.yul\":846:847   */\n      0x00\n        /* \"#utility.yul\":843:844   */\n      dup1\n        /* \"#utility.yul\":836:848   */\n      revert\n        /* \"#utility.yul\":798:850   */\n    tag_258:\n      pop\n        /* \"#utility.yul\":869:885   */\n      mload\n      swap2\n        /* \"#utility.yul\":707:891   */\n      swap1\n      pop\n      jump\t// out\n        /* \"#utility.yul\":896:1144   */\n    tag_41:\n        /* \"#utility.yul\":964:970   */\n      0x00\n        /* \"#utility.yul\":972:978   */\n      dup1\n        /* \"#utility.yul\":1025:1027   */\n      0x40\n        /* \"#utility.yul\":1013:1022   */\n      dup4\n        /* \"#utility.yul\":1004:1011   */\n      dup6\n        /* \"#utility.yul\":1000:1023   */\n      sub\n        /* \"#utility.yul\":996:1028   */\n      slt\n        /* \"#utility.yul\":993:1045   */\n      iszero\n      tag_260\n      jumpi\n        /* \"#utility.yul\":1041:1042   */\n      0x00\n        /* \"#utility.yul\":1038:1039   */\n      dup1\n        /* \"#utility.yul\":1031:1043   */\n      revert\n        /* \"#utility.yul\":993:1045   */\n    tag_260:\n      pop\n      pop\n        /* \"#utility.yul\":1064:1087   */\n      dup1\n      calldataload\n      swap3\n        /* \"#utility.yul\":1134:1136   */\n      0x20\n        /* \"#utility.yul\":1119:1137   */\n      swap1\n      swap2\n      add\n        /* \"#utility.yul\":1106:1138   */\n      calldataload\n      swap2\n      pop\n        /* \"#utility.yul\":896:1144   */\n      jump\t// out\n        /* \"#utility.yul\":2353:3531   */\n    tag_35:\n        /* \"#utility.yul\":2621:2623   */\n      0x40\n        /* \"#utility.yul\":2633:2654   */\n      dup1\n      dup3\n      mstore\n        /* \"#utility.yul\":2703:2716   */\n      dup4\n      mload\n        /* \"#utility.yul\":2606:2624   */\n      swap1\n      dup3\n      add\n        /* \"#utility.yul\":2725:2747   */\n      dup2\n      swap1\n      mstore\n        /* \"#utility.yul\":2573:2577   */\n      0x00\n      swap1\n        /* \"#utility.yul\":2800:2804   */\n      0x20\n      swap1\n        /* \"#utility.yul\":2778:2780   */\n      0x60\n        /* \"#utility.yul\":2763:2781   */\n      dup5\n      add\n      swap1\n        /* \"#utility.yul\":2827:2842   */\n      dup3\n      dup8\n      add\n        /* \"#utility.yul\":2573:2577   */\n      dup5\n        /* \"#utility.yul\":2870:3065   */\n    tag_266:\n        /* \"#utility.yul\":2884:2890   */\n      dup3\n        /* \"#utility.yul\":2881:2882   */\n      dup2\n        /* \"#utility.yul\":2878:2891   */\n      lt\n        /* \"#utility.yul\":2870:3065   */\n      iszero\n      tag_268\n      jumpi\n        /* \"#utility.yul\":2949:2962   */\n      dup2\n      mload\n      sub(shl(0xa0, 0x01), 0x01)\n        /* \"#utility.yul\":2945:2984   */\n      and\n        /* \"#utility.yul\":2933:2985   */\n      dup5\n      mstore\n        /* \"#utility.yul\":3005:3017   */\n      swap3\n      dup5\n      add\n      swap3\n        /* \"#utility.yul\":3040:3055   */\n      swap1\n      dup5\n      add\n      swap1\n        /* \"#utility.yul\":2981:2982   */\n      0x01\n        /* \"#utility.yul\":2899:2908   */\n      add\n        /* \"#utility.yul\":2870:3065   */\n      jump(tag_266)\n    tag_268:\n      pop\n      pop\n      pop\n        /* \"#utility.yul\":3101:3120   */\n      dup4\n      dup2\n      sub\n        /* \"#utility.yul\":3081:3099   */\n      dup3\n      dup6\n      add\n        /* \"#utility.yul\":3074:3121   */\n      mstore\n        /* \"#utility.yul\":3171:3184   */\n      dup5\n      mload\n        /* \"#utility.yul\":3193:3214   */\n      dup1\n      dup3\n      mstore\n        /* \"#utility.yul\":3269:3284   */\n      dup6\n      dup4\n      add\n      swap2\n        /* \"#utility.yul\":3232:3244   */\n      dup4\n      add\n      swap1\n        /* \"#utility.yul\":3304:3305   */\n      0x00\n        /* \"#utility.yul\":3314:3503   */\n    tag_269:\n        /* \"#utility.yul\":3330:3338   */\n      dup2\n        /* \"#utility.yul\":3325:3328   */\n      dup2\n        /* \"#utility.yul\":3322:3339   */\n      lt\n        /* \"#utility.yul\":3314:3503   */\n      iszero\n      tag_271\n      jumpi\n        /* \"#utility.yul\":3399:3414   */\n      dup4\n      mload\n        /* \"#utility.yul\":3385:3415   */\n      dup4\n      mstore\n        /* \"#utility.yul\":3476:3493   */\n      swap3\n      dup5\n      add\n      swap3\n        /* \"#utility.yul\":3437:3451   */\n      swap2\n      dup5\n      add\n      swap2\n        /* \"#utility.yul\":3358:3359   */\n      0x01\n        /* \"#utility.yul\":3349:3360   */\n      add\n        /* \"#utility.yul\":3314:3503   */\n      jump(tag_269)\n    tag_271:\n      pop\n        /* \"#utility.yul\":3520:3525   */\n      swap1\n      swap8\n        /* \"#utility.yul\":2353:3531   */\n      swap7\n      pop\n      pop\n      pop\n      pop\n      pop\n      pop\n      pop\n      jump\t// out\n        /* \"#utility.yul\":3536:4561   */\n    tag_68:\n        /* \"#utility.yul\":3753:3755   */\n      0x20\n        /* \"#utility.yul\":3805:3826   */\n      dup1\n      dup3\n      mstore\n        /* \"#utility.yul\":3875:3888   */\n      dup3\n      mload\n        /* \"#utility.yul\":3778:3796   */\n      dup3\n      dup3\n      add\n        /* \"#utility.yul\":3897:3919   */\n      dup2\n      swap1\n      mstore\n        /* \"#utility.yul\":3724:3728   */\n      0x00\n      swap2\n        /* \"#utility.yul\":3753:3755   */\n      swap1\n        /* \"#utility.yul\":3938:3940   */\n      0x40\n      swap1\n        /* \"#utility.yul\":3956:3974   */\n      dup2\n      dup6\n      add\n      swap1\n        /* \"#utility.yul\":3997:4012   */\n      dup7\n      dup5\n      add\n        /* \"#utility.yul\":3724:3728   */\n      dup6\n        /* \"#utility.yul\":4040:4535   */\n    tag_273:\n        /* \"#utility.yul\":4054:4060   */\n      dup3\n        /* \"#utility.yul\":4051:4052   */\n      dup2\n        /* \"#utility.yul\":4048:4061   */\n      lt\n        /* \"#utility.yul\":4040:4535   */\n      iszero\n      tag_275\n      jumpi\n        /* \"#utility.yul\":4113:4126   */\n      dup2\n      mload\n        /* \"#utility.yul\":4151:4160   */\n      dup1\n      mload\n        /* \"#utility.yul\":4139:4161   */\n      dup6\n      mstore\n        /* \"#utility.yul\":4201:4212   */\n      dup7\n      dup2\n      add\n        /* \"#utility.yul\":4195:4213   */\n      mload\n        /* \"#utility.yul\":4181:4193   */\n      dup8\n      dup7\n      add\n        /* \"#utility.yul\":4174:4214   */\n      mstore\n        /* \"#utility.yul\":4254:4265   */\n      dup6\n      dup2\n      add\n        /* \"#utility.yul\":4248:4266   */\n      mload\n        /* \"#utility.yul\":4234:4246   */\n      dup7\n      dup7\n      add\n        /* \"#utility.yul\":4227:4267   */\n      mstore\n        /* \"#utility.yul\":4290:4294   */\n      0x60\n        /* \"#utility.yul\":4334:4345   */\n      dup1\n      dup3\n      add\n        /* \"#utility.yul\":4328:4346   */\n      mload\n        /* \"#utility.yul\":4314:4326   */\n      swap1\n      dup7\n      add\n        /* \"#utility.yul\":4307:4347   */\n      mstore\n        /* \"#utility.yul\":4370:4374   */\n      0x80\n        /* \"#utility.yul\":4418:4429   */\n      swap1\n      dup2\n      add\n        /* \"#utility.yul\":4412:4430   */\n      mload\n      sub(shl(0xa0, 0x01), 0x01)\n        /* \"#utility.yul\":4408:4452   */\n      and\n        /* \"#utility.yul\":4394:4406   */\n      swap1\n      dup6\n      add\n        /* \"#utility.yul\":4387:4453   */\n      mstore\n        /* \"#utility.yul\":4440:4443   */\n      0xa0\n        /* \"#utility.yul\":4473:4487   */\n      swap1\n      swap4\n      add\n      swap3\n        /* \"#utility.yul\":4510:4525   */\n      swap1\n      dup6\n      add\n      swap1\n        /* \"#utility.yul\":4449:4450   */\n      0x01\n        /* \"#utility.yul\":4069:4078   */\n      add\n        /* \"#utility.yul\":4040:4535   */\n      jump(tag_273)\n    tag_275:\n      pop\n        /* \"#utility.yul\":4552:4555   */\n      swap2\n      swap8\n        /* \"#utility.yul\":3536:4561   */\n      swap7\n      pop\n      pop\n      pop\n      pop\n      pop\n      pop\n      pop\n      jump\t// out\n        /* \"#utility.yul\":5206:5562   */\n    tag_154:\n        /* \"#utility.yul\":5408:5410   */\n      0x20\n        /* \"#utility.yul\":5390:5411   */\n      dup1\n      dup3\n      mstore\n        /* \"#utility.yul\":5427:5445   */\n      dup2\n      dup2\n      add\n        /* \"#utility.yul\":5420:5450   */\n      mstore\n        /* \"#utility.yul\":5486:5520   */\n      0x4f776e61626c653a2063616c6c6572206973206e6f7420746865206f776e6572\n        /* \"#utility.yul\":5481:5483   */\n      0x40\n        /* \"#utility.yul\":5466:5484   */\n      dup3\n      add\n        /* \"#utility.yul\":5459:5521   */\n      mstore\n        /* \"#utility.yul\":5553:5555   */\n      0x60\n        /* \"#utility.yul\":5538:5556   */\n      add\n      swap1\n        /* \"#utility.yul\":5206:5562   */\n      jump\t// out\n        /* \"#utility.yul\":6522:6650   */\n    tag_166:\n        /* \"#utility.yul\":6562:6565   */\n      0x00\n        /* \"#utility.yul\":6593:6594   */\n      dup3\n        /* \"#utility.yul\":6589:6595   */\n      not\n        /* \"#utility.yul\":6586:6587   */\n      dup3\n        /* \"#utility.yul\":6583:6596   */\n      gt\n        /* \"#utility.yul\":6580:6619   */\n      iszero\n      tag_284\n      jumpi\n        /* \"#utility.yul\":6599:6617   */\n      tag_284\n      tag_285\n      jump\t// in\n    tag_284:\n      pop\n        /* \"#utility.yul\":6635:6644   */\n      add\n      swap1\n        /* \"#utility.yul\":6522:6650   */\n      jump\t// out\n        /* \"#utility.yul\":6655:6780   */\n    tag_195:\n        /* \"#utility.yul\":6695:6699   */\n      0x00\n        /* \"#utility.yul\":6723:6724   */\n      dup3\n        /* \"#utility.yul\":6720:6721   */\n      dup3\n        /* \"#utility.yul\":6717:6725   */\n      lt\n        /* \"#utility.yul\":6714:6748   */\n      iszero\n      tag_288\n      jumpi\n        /* \"#utility.yul\":6728:6746   */\n      tag_288\n      tag_285\n      jump\t// in\n    tag_288:\n      pop\n        /* \"#utility.yul\":6765:6774   */\n      sub\n      swap1\n        /* \"#utility.yul\":6655:6780   */\n      jump\t// out\n        /* \"#utility.yul\":6785:6920   */\n    tag_106:\n        /* \"#utility.yul\":6824:6827   */\n      0x00\n      not(0x00)\n        /* \"#utility.yul\":6845:6862   */\n      dup3\n      eq\n        /* \"#utility.yul\":6842:6885   */\n      iszero\n      tag_291\n      jumpi\n        /* \"#utility.yul\":6865:6883   */\n      tag_291\n      tag_285\n      jump\t// in\n    tag_291:\n      pop\n        /* \"#utility.yul\":6912:6913   */\n      0x01\n        /* \"#utility.yul\":6901:6914   */\n      add\n      swap1\n        /* \"#utility.yul\":6785:6920   */\n      jump\t// out\n        /* \"#utility.yul\":6925:7134   */\n    tag_229:\n        /* \"#utility.yul\":6957:6958   */\n      0x00\n        /* \"#utility.yul\":6983:6984   */\n      dup3\n        /* \"#utility.yul\":6973:7105   */\n      tag_293\n      jumpi\n        /* \"#utility.yul\":7027:7037   */\n      0x4e487b71\n        /* \"#utility.yul\":7022:7025   */\n      0xe0\n        /* \"#utility.yul\":7018:7038   */\n      shl\n        /* \"#utility.yul\":7015:7016   */\n      0x00\n        /* \"#utility.yul\":7008:7039   */\n      mstore\n        /* \"#utility.yul\":7062:7066   */\n      0x12\n        /* \"#utility.yul\":7059:7060   */\n      0x04\n        /* \"#utility.yul\":7052:7067   */\n      mstore\n        /* \"#utility.yul\":7090:7094   */\n      0x24\n        /* \"#utility.yul\":7087:7088   */\n      0x00\n        /* \"#utility.yul\":7080:7095   */\n      revert\n        /* \"#utility.yul\":6973:7105   */\n    tag_293:\n      pop\n        /* \"#utility.yul\":7119:7128   */\n      mod\n      swap1\n        /* \"#utility.yul\":6925:7134   */\n      jump\t// out\n        /* \"#utility.yul\":7139:7266   */\n    tag_285:\n        /* \"#utility.yul\":7200:7210   */\n      0x4e487b71\n        /* \"#utility.yul\":7195:7198   */\n      0xe0\n        /* \"#utility.yul\":7191:7211   */\n      shl\n        /* \"#utility.yul\":7188:7189   */\n      0x00\n        /* \"#utility.yul\":7181:7212   */\n      mstore\n        /* \"#utility.yul\":7231:7235   */\n      0x11\n        /* \"#utility.yul\":7228:7229   */\n      0x04\n        /* \"#utility.yul\":7221:7236   */\n      mstore\n        /* \"#utility.yul\":7255:7259   */\n      0x24\n        /* \"#utility.yul\":7252:7253   */\n      0x00\n        /* \"#utility.yul\":7245:7260   */\n      revert\n        /* \"#utility.yul\":7271:7398   */\n    tag_142:\n        /* \"#utility.yul\":7332:7342   */\n      0x4e487b71\n        /* \"#utility.yul\":7327:7330   */\n      0xe0\n        /* \"#utility.yul\":7323:7343   */\n      shl\n        /* \"#utility.yul\":7320:7321   */\n      0x00\n        /* \"#utility.yul\":7313:7344   */\n      mstore\n        /* \"#utility.yul\":7363:7367   */\n      0x32\n        /* \"#utility.yul\":7360:7361   */\n      0x04\n        /* \"#utility.yul\":7353:7368   */\n      mstore\n        /* \"#utility.yul\":7387:7391   */\n      0x24\n        /* \"#utility.yul\":7384:7385   */\n      0x00\n        /* \"#utility.yul\":7377:7392   */\n      revert\n        /* \"#utility.yul\":7403:7530   */\n    tag_121:\n        /* \"#utility.yul\":7464:7474   */\n      0x4e487b71\n        /* \"#utility.yul\":7459:7462   */\n      0xe0\n        /* \"#utility.yul\":7455:7475   */\n      shl\n        /* \"#utility.yul\":7452:7453   */\n      0x00\n        /* \"#utility.yul\":7445:7476   */\n      mstore\n        /* \"#utility.yul\":7495:7499   */\n      0x41\n        /* \"#utility.yul\":7492:7493   */\n      0x04\n        /* \"#utility.yul\":7485:7500   */\n      mstore\n        /* \"#utility.yul\":7519:7523   */\n      0x24\n        /* \"#utility.yul\":7516:7517   */\n      0x00\n        /* \"#utility.yul\":7509:7524   */\n      revert\n        /* \"#utility.yul\":7535:7666   */\n    tag_251:\n      sub(shl(0xa0, 0x01), 0x01)\n        /* \"#utility.yul\":7610:7641   */\n      dup2\n      and\n        /* \"#utility.yul\":7600:7642   */\n      dup2\n      eq\n        /* \"#utility.yul\":7590:7660   */\n      tag_220\n      jumpi\n        /* \"#utility.yul\":7656:7657   */\n      0x00\n        /* \"#utility.yul\":7653:7654   */\n      dup1\n        /* \"#utility.yul\":7646:7658   */\n      revert\n\n    auxdata: 0xa2646970667358221220a1c99c83fff7ecb4011fbf9587bab57010d30996f6f311851cff221cfc870a8d64736f6c63430008070033\n}\n",
				"bytecode": {
					"linkReferences": {},
					"object": "6080604052670de0b6b3a764000060035534801561001c57600080fd5b506040516112cc3803806112cc83398101604081905261003b916100b9565b61004433610069565b600480546001600160a01b0319166001600160a01b03929092169190911790556100e9565b600080546001600160a01b038381166001600160a01b0319831681178455604051919092169283917f8be0079c531659141344cd1fd0a4f28419497f9722a3daafe3b4186f6b6457e09190a35050565b6000602082840312156100cb57600080fd5b81516001600160a01b03811681146100e257600080fd5b9392505050565b6111d4806100f86000396000f3fe608060405234801561001057600080fd5b50600436106101005760003560e01c80639f10a99011610097578063f2fde38b11610066578063f2fde38b1461024f578063f737d21d14610262578063f80fb76d14610292578063f9cee0bd146102a557600080fd5b80639f10a99014610192578063ac128f4f146101a5578063aeb183501461021c578063bc15cdf01461022f57600080fd5b8063454f7b8f116100d3578063454f7b8f146101475780636fbb5a8614610150578063715018a6146101655780638da5cb5b1461016d57600080fd5b8063119b22b314610105578063158977de1461012157806317be85c3146101295780633b98bc6514610131575b600080fd5b61010e60015481565b6040519081526020015b60405180910390f35b61010e6102ae565b61010e61046a565b6101396104f7565b604051610118929190610fab565b61010e60025481565b61016361015e366004610f89565b6107b6565b005b6101636109f2565b6000546001600160a01b03165b6040516001600160a01b039091168152602001610118565b61010e6101a0366004610f16565b610a28565b6101eb6101b3366004610f57565b60056020526000908152604090208054600182015460028301546003840154600490940154929391929091906001600160a01b031685565b6040805195865260208601949094529284019190915260608301526001600160a01b0316608082015260a001610118565b60045461017a906001600160a01b031681565b61024261023d366004610f89565b610ab1565b604051610118919061102f565b61016361025d366004610f16565b610c34565b610275610270366004610f57565b610ccf565b604080519283526001600160a01b03909116602083015201610118565b6101636102a0366004610f57565b610e07565b61010e60035481565b60048054604080516318160ddd60e01b8152905160009384936001600160a01b0316926318160ddd9281830192602092829003018186803b1580156102f257600080fd5b505afa158015610306573d6000803e3d6000fd5b505050506040513d601f19601f8201168201806040525081019061032a9190610f70565b905060015b81811161046557600480546040516331a9108f60e11b81529182018390526000916001600160a01b0390911690636352211e9060240160206040518083038186803b15801561037d57600080fd5b505afa158015610391573d6000803e3d6000fd5b505050506040513d601f19601f820116820180604052508101906103b59190610f3a565b60048054604051632f745c5960e01b81526001600160a01b0380851693820193909352600060248201529293501690632f745c599060440160206040518083038186803b15801561040557600080fd5b505afa158015610419573d6000803e3d6000fd5b505050506040513d601f19601f8201168201806040525081019061043d9190610f70565b821415610452578361044e8161110a565b9450505b508061045d8161110a565b91505061032f565b505090565b6000600460009054906101000a90046001600160a01b03166001600160a01b03166318160ddd6040518163ffffffff1660e01b815260040160206040518083038186803b1580156104ba57600080fd5b505afa1580156104ce573d6000803e3d6000fd5b505050506040513d601f19601f820116820180604052508101906104f29190610f70565b905090565b6060806000600460009054906101000a90046001600160a01b03166001600160a01b03166318160ddd6040518163ffffffff1660e01b815260040160206040518083038186803b15801561054a57600080fd5b505afa15801561055e573d6000803e3d6000fd5b505050506040513d601f19601f820116820180604052508101906105829190610f70565b9050600061058e6102ae565b90508067ffffffffffffffff8111156105a9576105a9611173565b6040519080825280602002602001820160405280156105d2578160200160208202803683370190505b5093508067ffffffffffffffff8111156105ee576105ee611173565b604051908082528060200260200182016040528015610617578160200160208202803683370190505b509250600060015b8381116107ae57600480546040516331a9108f60e11b81529182018390526000916001600160a01b0390911690636352211e9060240160206040518083038186803b15801561066d57600080fd5b505afa158015610681573d6000803e3d6000fd5b505050506040513d601f19601f820116820180604052508101906106a59190610f3a565b60048054604051632f745c5960e01b81526001600160a01b0380851693820193909352600060248201529293501690632f745c599060440160206040518083038186803b1580156106f557600080fd5b505afa158015610709573d6000803e3d6000fd5b505050506040513d601f19601f8201168201806040525081019061072d9190610f70565b82141561079b57808784815181106107475761074761115d565b60200260200101906001600160a01b031690816001600160a01b03168152505061077081610a28565b8684815181106107825761078261115d565b6020908102919091010152826107978161110a565b9350505b50806107a68161110a565b91505061061f565b505050509091565b6000546001600160a01b031633146107e95760405162461bcd60e51b81526004016107e0906110a6565b60405180910390fd5b600480546040516331a9108f60e11b81529182018490526000916001600160a01b0390911690636352211e9060240160206040518083038186803b15801561083057600080fd5b505afa158015610844573d6000803e3d6000fd5b505050506040513d601f19601f820116820180604052508101906108689190610f3a565b6040805160a081018083526004546318160ddd60e01b90915291519293509182916001600160a01b0316906318160ddd9060a480850191602091818703018186803b1580156108b657600080fd5b505afa1580156108ca573d6000803e3d6000fd5b505050506040513d601f19601f820116820180604052508101906108ee9190610f70565b8152602001848152602001838152602001428152602001826001600160a01b03168152506005600060015481526020019081526020016000206000820151816000015560208201518160010155604082015181600201556060820151816003015560808201518160040160006101000a8154816001600160a01b0302191690836001600160a01b03160217905550905050816002600082825461099191906110db565b9091555050600180549060006109a68361110a565b9091555050604080516001600160a01b0383168152602081018490527f2e798dd4337e515c79b64c40e1a93baa1aefbd9180ac7905e02508edd7971e50910160405180910390a1505050565b6000546001600160a01b03163314610a1c5760405162461bcd60e51b81526004016107e0906110a6565b610a266000610e36565b565b600480546040516370a0823160e01b81526001600160a01b0384811693820193909352600092909116906370a082319060240160206040518083038186803b158015610a7357600080fd5b505afa158015610a87573d6000803e3d6000fd5b505050506040513d601f19601f82011682018060405250810190610aab9190610f70565b92915050565b606060015460001415610af7576040805160008082526020820190925290610aef565b610adc610ede565b815260200190600190039081610ad45790505b509050610aab565b6001548210610b115760018054610b0e91906110f3565b91505b6000610b1d84846110f3565b610b289060016110db565b905060008167ffffffffffffffff811115610b4557610b45611173565b604051908082528060200260200182016040528015610b7e57816020015b610b6b610ede565b815260200190600190039081610b635790505b509250845b848111610c2b5760056000610b9883896110db565b81526020808201929092526040908101600020815160a0810183528154815260018201549381019390935260028101549183019190915260038101546060830152600401546001600160a01b031660808201528451859084908110610bff57610bff61115d565b60200260200101819052508180610c159061110a565b9250508080610c239061110a565b915050610b83565b50505092915050565b6000546001600160a01b03163314610c5e5760405162461bcd60e51b81526004016107e0906110a6565b6001600160a01b038116610cc35760405162461bcd60e51b815260206004820152602660248201527f4f776e61626c653a206e6577206f776e657220697320746865207a65726f206160448201526564647265737360d01b60648201526084016107e0565b610ccc81610e36565b50565b6000806000600460009054906101000a90046001600160a01b03166001600160a01b03166318160ddd6040518163ffffffff1660e01b815260040160206040518083038186803b158015610d2257600080fd5b505afa158015610d36573d6000803e3d6000fd5b505050506040513d601f19601f82011682018060405250810190610d5a9190610f70565b905080610d6685610e86565b610d709190611125565b610d7b9060016110db565b600480546040516331a9108f60e11b81529295506001600160a01b031691636352211e91610daf9187910190815260200190565b60206040518083038186803b158015610dc757600080fd5b505afa158015610ddb573d6000803e3d6000fd5b505050506040513d601f19601f82011682018060405250810190610dff9190610f3a565b915050915091565b6000546001600160a01b03163314610e315760405162461bcd60e51b81526004016107e0906110a6565b600355565b600080546001600160a01b038381166001600160a01b0319831681178455604051919092169283917f8be0079c531659141344cd1fd0a4f28419497f9722a3daafe3b4186f6b6457e09190a35050565b600081425a60408051602081019490945283019190915260608083019190915233901b6bffffffffffffffffffffffff1916608082015260940160408051601f19818403018152919052805160209091012092915050565b6040518060a001604052806000815260200160008152602001600081526020016000815260200160006001600160a01b031681525090565b600060208284031215610f2857600080fd5b8135610f3381611189565b9392505050565b600060208284031215610f4c57600080fd5b8151610f3381611189565b600060208284031215610f6957600080fd5b5035919050565b600060208284031215610f8257600080fd5b5051919050565b60008060408385031215610f9c57600080fd5b50508035926020909101359150565b604080825283519082018190526000906020906060840190828701845b82811015610fed5781516001600160a01b031684529284019290840190600101610fc8565b5050508381038285015284518082528583019183019060005b8181101561102257835183529284019291840191600101611006565b5090979650505050505050565b602080825282518282018190526000919060409081850190868401855b828110156110995781518051855286810151878601528581015186860152606080820151908601526080908101516001600160a01b03169085015260a0909301929085019060010161104c565b5091979650505050505050565b6020808252818101527f4f776e61626c653a2063616c6c6572206973206e6f7420746865206f776e6572604082015260600190565b600082198211156110ee576110ee611147565b500190565b60008282101561110557611105611147565b500390565b600060001982141561111e5761111e611147565b5060010190565b60008261114257634e487b7160e01b600052601260045260246000fd5b500690565b634e487b7160e01b600052601160045260246000fd5b634e487b7160e01b600052603260045260246000fd5b634e487b7160e01b600052604160045260246000fd5b6001600160a01b0381168114610ccc57600080fdfea2646970667358221220a1c99c83fff7ecb4011fbf9587bab57010d30996f6f311851cff221cfc870a8d64736f6c63430008070033",
					"opcodes": "PUSH1 0x80 PUSH1 0x40 MSTORE PUSH8 0xDE0B6B3A7640000 PUSH1 0x3 SSTORE CALLVALUE DUP1 ISZERO PUSH2 0x1C JUMPI PUSH1 0x0 DUP1 REVERT JUMPDEST POP PUSH1 0x40 MLOAD PUSH2 0x12CC CODESIZE SUB DUP1 PUSH2 0x12CC DUP4 CODECOPY DUP2 ADD PUSH1 0x40 DUP2 SWAP1 MSTORE PUSH2 0x3B SWAP2 PUSH2 0xB9 JUMP JUMPDEST PUSH2 0x44 CALLER PUSH2 0x69 JUMP JUMPDEST PUSH1 0x4 DUP1 SLOAD PUSH1 0x1 PUSH1 0x1 PUSH1 0xA0 SHL SUB NOT AND PUSH1 0x1 PUSH1 0x1 PUSH1 0xA0 SHL SUB SWAP3 SWAP1 SWAP3 AND SWAP2 SWAP1 SWAP2 OR SWAP1 SSTORE PUSH2 0xE9 JUMP JUMPDEST PUSH1 0x0 DUP1 SLOAD PUSH1 0x1 PUSH1 0x1 PUSH1 0xA0 SHL SUB DUP4 DUP2 AND PUSH1 0x1 PUSH1 0x1 PUSH1 0xA0 SHL SUB NOT DUP4 AND DUP2 OR DUP5 SSTORE PUSH1 0x40 MLOAD SWAP2 SWAP1 SWAP3 AND SWAP3 DUP4 SWAP2 PUSH32 0x8BE0079C531659141344CD1FD0A4F28419497F9722A3DAAFE3B4186F6B6457E0 SWAP2 SWAP1 LOG3 POP POP JUMP JUMPDEST PUSH1 0x0 PUSH1 0x20 DUP3 DUP5 SUB SLT ISZERO PUSH2 0xCB JUMPI PUSH1 0x0 DUP1 REVERT JUMPDEST DUP2 MLOAD PUSH1 0x1 PUSH1 0x1 PUSH1 0xA0 SHL SUB DUP2 AND DUP2 EQ PUSH2 0xE2 JUMPI PUSH1 0x0 DUP1 REVERT JUMPDEST SWAP4 SWAP3 POP POP POP JUMP JUMPDEST PUSH2 0x11D4 DUP1 PUSH2 0xF8 PUSH1 0x0 CODECOPY PUSH1 0x0 RETURN INVALID PUSH1 0x80 PUSH1 0x40 MSTORE CALLVALUE DUP1 ISZERO PUSH2 0x10 JUMPI PUSH1 0x0 DUP1 REVERT JUMPDEST POP PUSH1 0x4 CALLDATASIZE LT PUSH2 0x100 JUMPI PUSH1 0x0 CALLDATALOAD PUSH1 0xE0 SHR DUP1 PUSH4 0x9F10A990 GT PUSH2 0x97 JUMPI DUP1 PUSH4 0xF2FDE38B GT PUSH2 0x66 JUMPI DUP1 PUSH4 0xF2FDE38B EQ PUSH2 0x24F JUMPI DUP1 PUSH4 0xF737D21D EQ PUSH2 0x262 JUMPI DUP1 PUSH4 0xF80FB76D EQ PUSH2 0x292 JUMPI DUP1 PUSH4 0xF9CEE0BD EQ PUSH2 0x2A5 JUMPI PUSH1 0x0 DUP1 REVERT JUMPDEST DUP1 PUSH4 0x9F10A990 EQ PUSH2 0x192 JUMPI DUP1 PUSH4 0xAC128F4F EQ PUSH2 0x1A5 JUMPI DUP1 PUSH4 0xAEB18350 EQ PUSH2 0x21C JUMPI DUP1 PUSH4 0xBC15CDF0 EQ PUSH2 0x22F JUMPI PUSH1 0x0 DUP1 REVERT JUMPDEST DUP1 PUSH4 0x454F7B8F GT PUSH2 0xD3 JUMPI DUP1 PUSH4 0x454F7B8F EQ PUSH2 0x147 JUMPI DUP1 PUSH4 0x6FBB5A86 EQ PUSH2 0x150 JUMPI DUP1 PUSH4 0x715018A6 EQ PUSH2 0x165 JUMPI DUP1 PUSH4 0x8DA5CB5B EQ PUSH2 0x16D JUMPI PUSH1 0x0 DUP1 REVERT JUMPDEST DUP1 PUSH4 0x119B22B3 EQ PUSH2 0x105 JUMPI DUP1 PUSH4 0x158977DE EQ PUSH2 0x121 JUMPI DUP1 PUSH4 0x17BE85C3 EQ PUSH2 0x129 JUMPI DUP1 PUSH4 0x3B98BC65 EQ PUSH2 0x131 JUMPI JUMPDEST PUSH1 0x0 DUP1 REVERT JUMPDEST PUSH2 0x10E PUSH1 0x1 SLOAD DUP2 JUMP JUMPDEST PUSH1 0x40 MLOAD SWAP1 DUP2 MSTORE PUSH1 0x20 ADD JUMPDEST PUSH1 0x40 MLOAD DUP1 SWAP2 SUB SWAP1 RETURN JUMPDEST PUSH2 0x10E PUSH2 0x2AE JUMP JUMPDEST PUSH2 0x10E PUSH2 0x46A JUMP JUMPDEST PUSH2 0x139 PUSH2 0x4F7 JUMP JUMPDEST PUSH1 0x40 MLOAD PUSH2 0x118 SWAP3 SWAP2 SWAP1 PUSH2 0xFAB JUMP JUMPDEST PUSH2 0x10E PUSH1 0x2 SLOAD DUP2 JUMP JUMPDEST PUSH2 0x163 PUSH2 0x15E CALLDATASIZE PUSH1 0x4 PUSH2 0xF89 JUMP JUMPDEST PUSH2 0x7B6 JUMP JUMPDEST STOP JUMPDEST PUSH2 0x163 PUSH2 0x9F2 JUMP JUMPDEST PUSH1 0x0 SLOAD PUSH1 0x1 PUSH1 0x1 PUSH1 0xA0 SHL SUB AND JUMPDEST PUSH1 0x40 MLOAD PUSH1 0x1 PUSH1 0x1 PUSH1 0xA0 SHL SUB SWAP1 SWAP2 AND DUP2 MSTORE PUSH1 0x20 ADD PUSH2 0x118 JUMP JUMPDEST PUSH2 0x10E PUSH2 0x1A0 CALLDATASIZE PUSH1 0x4 PUSH2 0xF16 JUMP JUMPDEST PUSH2 0xA28 JUMP JUMPDEST PUSH2 0x1EB PUSH2 0x1B3 CALLDATASIZE PUSH1 0x4 PUSH2 0xF57 JUMP JUMPDEST PUSH1 0x5 PUSH1 0x20 MSTORE PUSH1 0x0 SWAP1 DUP2 MSTORE PUSH1 0x40 SWAP1 KECCAK256 DUP1 SLOAD PUSH1 0x1 DUP3 ADD SLOAD PUSH1 0x2 DUP4 ADD SLOAD PUSH1 0x3 DUP5 ADD SLOAD PUSH1 0x4 SWAP1 SWAP5 ADD SLOAD SWAP3 SWAP4 SWAP2 SWAP3 SWAP1 SWAP2 SWAP1 PUSH1 0x1 PUSH1 0x1 PUSH1 0xA0 SHL SUB AND DUP6 JUMP JUMPDEST PUSH1 0x40 DUP1 MLOAD SWAP6 DUP7 MSTORE PUSH1 0x20 DUP7 ADD SWAP5 SWAP1 SWAP5 MSTORE SWAP3 DUP5 ADD SWAP2 SWAP1 SWAP2 MSTORE PUSH1 0x60 DUP4 ADD MSTORE PUSH1 0x1 PUSH1 0x1 PUSH1 0xA0 SHL SUB AND PUSH1 0x80 DUP3 ADD MSTORE PUSH1 0xA0 ADD PUSH2 0x118 JUMP JUMPDEST PUSH1 0x4 SLOAD PUSH2 0x17A SWAP1 PUSH1 0x1 PUSH1 0x1 PUSH1 0xA0 SHL SUB AND DUP2 JUMP JUMPDEST PUSH2 0x242 PUSH2 0x23D CALLDATASIZE PUSH1 0x4 PUSH2 0xF89 JUMP JUMPDEST PUSH2 0xAB1 JUMP JUMPDEST PUSH1 0x40 MLOAD PUSH2 0x118 SWAP2 SWAP1 PUSH2 0x102F JUMP JUMPDEST PUSH2 0x163 PUSH2 0x25D CALLDATASIZE PUSH1 0x4 PUSH2 0xF16 JUMP JUMPDEST PUSH2 0xC34 JUMP JUMPDEST PUSH2 0x275 PUSH2 0x270 CALLDATASIZE PUSH1 0x4 PUSH2 0xF57 JUMP JUMPDEST PUSH2 0xCCF JUMP JUMPDEST PUSH1 0x40 DUP1 MLOAD SWAP3 DUP4 MSTORE PUSH1 0x1 PUSH1 0x1 PUSH1 0xA0 SHL SUB SWAP1 SWAP2 AND PUSH1 0x20 DUP4 ADD MSTORE ADD PUSH2 0x118 JUMP JUMPDEST PUSH2 0x163 PUSH2 0x2A0 CALLDATASIZE PUSH1 0x4 PUSH2 0xF57 JUMP JUMPDEST PUSH2 0xE07 JUMP JUMPDEST PUSH2 0x10E PUSH1 0x3 SLOAD DUP2 JUMP JUMPDEST PUSH1 0x4 DUP1 SLOAD PUSH1 0x40 DUP1 MLOAD PUSH4 0x18160DDD PUSH1 0xE0 SHL DUP2 MSTORE SWAP1 MLOAD PUSH1 0x0 SWAP4 DUP5 SWAP4 PUSH1 0x1 PUSH1 0x1 PUSH1 0xA0 SHL SUB AND SWAP3 PUSH4 0x18160DDD SWAP3 DUP2 DUP4 ADD SWAP3 PUSH1 0x20 SWAP3 DUP3 SWAP1 SUB ADD DUP2 DUP7 DUP1 EXTCODESIZE ISZERO DUP1 ISZERO PUSH2 0x2F2 JUMPI PUSH1 0x0 DUP1 REVERT JUMPDEST POP GAS STATICCALL ISZERO DUP1 ISZERO PUSH2 0x306 JUMPI RETURNDATASIZE PUSH1 0x0 DUP1 RETURNDATACOPY RETURNDATASIZE PUSH1 0x0 REVERT JUMPDEST POP POP POP POP PUSH1 0x40 MLOAD RETURNDATASIZE PUSH1 0x1F NOT PUSH1 0x1F DUP3 ADD AND DUP3 ADD DUP1 PUSH1 0x40 MSTORE POP DUP2 ADD SWAP1 PUSH2 0x32A SWAP2 SWAP1 PUSH2 0xF70 JUMP JUMPDEST SWAP1 POP PUSH1 0x1 JUMPDEST DUP2 DUP2 GT PUSH2 0x465 JUMPI PUSH1 0x4 DUP1 SLOAD PUSH1 0x40 MLOAD PUSH4 0x31A9108F PUSH1 0xE1 SHL DUP2 MSTORE SWAP2 DUP3 ADD DUP4 SWAP1 MSTORE PUSH1 0x0 SWAP2 PUSH1 0x1 PUSH1 0x1 PUSH1 0xA0 SHL SUB SWAP1 SWAP2 AND SWAP1 PUSH4 0x6352211E SWAP1 PUSH1 0x24 ADD PUSH1 0x20 PUSH1 0x40 MLOAD DUP1 DUP4 SUB DUP2 DUP7 DUP1 EXTCODESIZE ISZERO DUP1 ISZERO PUSH2 0x37D JUMPI PUSH1 0x0 DUP1 REVERT JUMPDEST POP GAS STATICCALL ISZERO DUP1 ISZERO PUSH2 0x391 JUMPI RETURNDATASIZE PUSH1 0x0 DUP1 RETURNDATACOPY RETURNDATASIZE PUSH1 0x0 REVERT JUMPDEST POP POP POP POP PUSH1 0x40 MLOAD RETURNDATASIZE PUSH1 0x1F NOT PUSH1 0x1F DUP3 ADD AND DUP3 ADD DUP1 PUSH1 0x40 MSTORE POP DUP2 ADD SWAP1 PUSH2 0x3B5 SWAP2 SWAP1 PUSH2 0xF3A JUMP JUMPDEST PUSH1 0x4 DUP1 SLOAD PUSH1 0x40 MLOAD PUSH4 0x2F745C59 PUSH1 0xE0 SHL DUP2 MSTORE PUSH1 0x1 PUSH1 0x1 PUSH1 0xA0 SHL SUB DUP1 DUP6 AND SWAP4 DUP3 ADD SWAP4 SWAP1 SWAP4 MSTORE PUSH1 0x0 PUSH1 0x24 DUP3 ADD MSTORE SWAP3 SWAP4 POP AND SWAP1 PUSH4 0x2F745C59 SWAP1 PUSH1 0x44 ADD PUSH1 0x20 PUSH1 0x40 MLOAD DUP1 DUP4 SUB DUP2 DUP7 DUP1 EXTCODESIZE ISZERO DUP1 ISZERO PUSH2 0x405 JUMPI PUSH1 0x0 DUP1 REVERT JUMPDEST POP GAS STATICCALL ISZERO DUP1 ISZERO PUSH2 0x419 JUMPI RETURNDATASIZE PUSH1 0x0 DUP1 RETURNDATACOPY RETURNDATASIZE PUSH1 0x0 REVERT JUMPDEST POP POP POP POP PUSH1 0x40 MLOAD RETURNDATASIZE PUSH1 0x1F NOT PUSH1 0x1F DUP3 ADD AND DUP3 ADD DUP1 PUSH1 0x40 MSTORE POP DUP2 ADD SWAP1 PUSH2 0x43D SWAP2 SWAP1 PUSH2 0xF70 JUMP JUMPDEST DUP3 EQ ISZERO PUSH2 0x452 JUMPI DUP4 PUSH2 0x44E DUP2 PUSH2 0x110A JUMP JUMPDEST SWAP5 POP POP JUMPDEST POP DUP1 PUSH2 0x45D DUP2 PUSH2 0x110A JUMP JUMPDEST SWAP2 POP POP PUSH2 0x32F JUMP JUMPDEST POP POP SWAP1 JUMP JUMPDEST PUSH1 0x0 PUSH1 0x4 PUSH1 0x0 SWAP1 SLOAD SWAP1 PUSH2 0x100 EXP SWAP1 DIV PUSH1 0x1 PUSH1 0x1 PUSH1 0xA0 SHL SUB AND PUSH1 0x1 PUSH1 0x1 PUSH1 0xA0 SHL SUB AND PUSH4 0x18160DDD PUSH1 0x40 MLOAD DUP2 PUSH4 0xFFFFFFFF AND PUSH1 0xE0 SHL DUP2 MSTORE PUSH1 0x4 ADD PUSH1 0x20 PUSH1 0x40 MLOAD DUP1 DUP4 SUB DUP2 DUP7 DUP1 EXTCODESIZE ISZERO DUP1 ISZERO PUSH2 0x4BA JUMPI PUSH1 0x0 DUP1 REVERT JUMPDEST POP GAS STATICCALL ISZERO DUP1 ISZERO PUSH2 0x4CE JUMPI RETURNDATASIZE PUSH1 0x0 DUP1 RETURNDATACOPY RETURNDATASIZE PUSH1 0x0 REVERT JUMPDEST POP POP POP POP PUSH1 0x40 MLOAD RETURNDATASIZE PUSH1 0x1F NOT PUSH1 0x1F DUP3 ADD AND DUP3 ADD DUP1 PUSH1 0x40 MSTORE POP DUP2 ADD SWAP1 PUSH2 0x4F2 SWAP2 SWAP1 PUSH2 0xF70 JUMP JUMPDEST SWAP1 POP SWAP1 JUMP JUMPDEST PUSH1 0x60 DUP1 PUSH1 0x0 PUSH1 0x4 PUSH1 0x0 SWAP1 SLOAD SWAP1 PUSH2 0x100 EXP SWAP1 DIV PUSH1 0x1 PUSH1 0x1 PUSH1 0xA0 SHL SUB AND PUSH1 0x1 PUSH1 0x1 PUSH1 0xA0 SHL SUB AND PUSH4 0x18160DDD PUSH1 0x40 MLOAD DUP2 PUSH4 0xFFFFFFFF AND PUSH1 0xE0 SHL DUP2 MSTORE PUSH1 0x4 ADD PUSH1 0x20 PUSH1 0x40 MLOAD DUP1 DUP4 SUB DUP2 DUP7 DUP1 EXTCODESIZE ISZERO DUP1 ISZERO PUSH2 0x54A JUMPI PUSH1 0x0 DUP1 REVERT JUMPDEST POP GAS STATICCALL ISZERO DUP1 ISZERO PUSH2 0x55E JUMPI RETURNDATASIZE PUSH1 0x0 DUP1 RETURNDATACOPY RETURNDATASIZE PUSH1 0x0 REVERT JUMPDEST POP POP POP POP PUSH1 0x40 MLOAD RETURNDATASIZE PUSH1 0x1F NOT PUSH1 0x1F DUP3 ADD AND DUP3 ADD DUP1 PUSH1 0x40 MSTORE POP DUP2 ADD SWAP1 PUSH2 0x582 SWAP2 SWAP1 PUSH2 0xF70 JUMP JUMPDEST SWAP1 POP PUSH1 0x0 PUSH2 0x58E PUSH2 0x2AE JUMP JUMPDEST SWAP1 POP DUP1 PUSH8 0xFFFFFFFFFFFFFFFF DUP2 GT ISZERO PUSH2 0x5A9 JUMPI PUSH2 0x5A9 PUSH2 0x1173 JUMP JUMPDEST PUSH1 0x40 MLOAD SWAP1 DUP1 DUP3 MSTORE DUP1 PUSH1 0x20 MUL PUSH1 0x20 ADD DUP3 ADD PUSH1 0x40 MSTORE DUP1 ISZERO PUSH2 0x5D2 JUMPI DUP2 PUSH1 0x20 ADD PUSH1 0x20 DUP3 MUL DUP1 CALLDATASIZE DUP4 CALLDATACOPY ADD SWAP1 POP JUMPDEST POP SWAP4 POP DUP1 PUSH8 0xFFFFFFFFFFFFFFFF DUP2 GT ISZERO PUSH2 0x5EE JUMPI PUSH2 0x5EE PUSH2 0x1173 JUMP JUMPDEST PUSH1 0x40 MLOAD SWAP1 DUP1 DUP3 MSTORE DUP1 PUSH1 0x20 MUL PUSH1 0x20 ADD DUP3 ADD PUSH1 0x40 MSTORE DUP1 ISZERO PUSH2 0x617 JUMPI DUP2 PUSH1 0x20 ADD PUSH1 0x20 DUP3 MUL DUP1 CALLDATASIZE DUP4 CALLDATACOPY ADD SWAP1 POP JUMPDEST POP SWAP3 POP PUSH1 0x0 PUSH1 0x1 JUMPDEST DUP4 DUP2 GT PUSH2 0x7AE JUMPI PUSH1 0x4 DUP1 SLOAD PUSH1 0x40 MLOAD PUSH4 0x31A9108F PUSH1 0xE1 SHL DUP2 MSTORE SWAP2 DUP3 ADD DUP4 SWAP1 MSTORE PUSH1 0x0 SWAP2 PUSH1 0x1 PUSH1 0x1 PUSH1 0xA0 SHL SUB SWAP1 SWAP2 AND SWAP1 PUSH4 0x6352211E SWAP1 PUSH1 0x24 ADD PUSH1 0x20 PUSH1 0x40 MLOAD DUP1 DUP4 SUB DUP2 DUP7 DUP1 EXTCODESIZE ISZERO DUP1 ISZERO PUSH2 0x66D JUMPI PUSH1 0x0 DUP1 REVERT JUMPDEST POP GAS STATICCALL ISZERO DUP1 ISZERO PUSH2 0x681 JUMPI RETURNDATASIZE PUSH1 0x0 DUP1 RETURNDATACOPY RETURNDATASIZE PUSH1 0x0 REVERT JUMPDEST POP POP POP POP PUSH1 0x40 MLOAD RETURNDATASIZE PUSH1 0x1F NOT PUSH1 0x1F DUP3 ADD AND DUP3 ADD DUP1 PUSH1 0x40 MSTORE POP DUP2 ADD SWAP1 PUSH2 0x6A5 SWAP2 SWAP1 PUSH2 0xF3A JUMP JUMPDEST PUSH1 0x4 DUP1 SLOAD PUSH1 0x40 MLOAD PUSH4 0x2F745C59 PUSH1 0xE0 SHL DUP2 MSTORE PUSH1 0x1 PUSH1 0x1 PUSH1 0xA0 SHL SUB DUP1 DUP6 AND SWAP4 DUP3 ADD SWAP4 SWAP1 SWAP4 MSTORE PUSH1 0x0 PUSH1 0x24 DUP3 ADD MSTORE SWAP3 SWAP4 POP AND SWAP1 PUSH4 0x2F745C59 SWAP1 PUSH1 0x44 ADD PUSH1 0x20 PUSH1 0x40 MLOAD DUP1 DUP4 SUB DUP2 DUP7 DUP1 EXTCODESIZE ISZERO DUP1 ISZERO PUSH2 0x6F5 JUMPI PUSH1 0x0 DUP1 REVERT JUMPDEST POP GAS STATICCALL ISZERO DUP1 ISZERO PUSH2 0x709 JUMPI RETURNDATASIZE PUSH1 0x0 DUP1 RETURNDATACOPY RETURNDATASIZE PUSH1 0x0 REVERT JUMPDEST POP POP POP POP PUSH1 0x40 MLOAD RETURNDATASIZE PUSH1 0x1F NOT PUSH1 0x1F DUP3 ADD AND DUP3 ADD DUP1 PUSH1 0x40 MSTORE POP DUP2 ADD SWAP1 PUSH2 0x72D SWAP2 SWAP1 PUSH2 0xF70 JUMP JUMPDEST DUP3 EQ ISZERO PUSH2 0x79B JUMPI DUP1 DUP8 DUP5 DUP2 MLOAD DUP2 LT PUSH2 0x747 JUMPI PUSH2 0x747 PUSH2 0x115D JUMP JUMPDEST PUSH1 0x20 MUL PUSH1 0x20 ADD ADD SWAP1 PUSH1 0x1 PUSH1 0x1 PUSH1 0xA0 SHL SUB AND SWAP1 DUP2 PUSH1 0x1 PUSH1 0x1 PUSH1 0xA0 SHL SUB AND DUP2 MSTORE POP POP PUSH2 0x770 DUP2 PUSH2 0xA28 JUMP JUMPDEST DUP7 DUP5 DUP2 MLOAD DUP2 LT PUSH2 0x782 JUMPI PUSH2 0x782 PUSH2 0x115D JUMP JUMPDEST PUSH1 0x20 SWAP1 DUP2 MUL SWAP2 SWAP1 SWAP2 ADD ADD MSTORE DUP3 PUSH2 0x797 DUP2 PUSH2 0x110A JUMP JUMPDEST SWAP4 POP POP JUMPDEST POP DUP1 PUSH2 0x7A6 DUP2 PUSH2 0x110A JUMP JUMPDEST SWAP2 POP POP PUSH2 0x61F JUMP JUMPDEST POP POP POP POP SWAP1 SWAP2 JUMP JUMPDEST PUSH1 0x0 SLOAD PUSH1 0x1 PUSH1 0x1 PUSH1 0xA0 SHL SUB AND CALLER EQ PUSH2 0x7E9 JUMPI PUSH1 0x40 MLOAD PUSH3 0x461BCD PUSH1 0xE5 SHL DUP2 MSTORE PUSH1 0x4 ADD PUSH2 0x7E0 SWAP1 PUSH2 0x10A6 JUMP JUMPDEST PUSH1 0x40 MLOAD DUP1 SWAP2 SUB SWAP1 REVERT JUMPDEST PUSH1 0x4 DUP1 SLOAD PUSH1 0x40 MLOAD PUSH4 0x31A9108F PUSH1 0xE1 SHL DUP2 MSTORE SWAP2 DUP3 ADD DUP5 SWAP1 MSTORE PUSH1 0x0 SWAP2 PUSH1 0x1 PUSH1 0x1 PUSH1 0xA0 SHL SUB SWAP1 SWAP2 AND SWAP1 PUSH4 0x6352211E SWAP1 PUSH1 0x24 ADD PUSH1 0x20 PUSH1 0x40 MLOAD DUP1 DUP4 SUB DUP2 DUP7 DUP1 EXTCODESIZE ISZERO DUP1 ISZERO PUSH2 0x830 JUMPI PUSH1 0x0 DUP1 REVERT JUMPDEST POP GAS STATICCALL ISZERO DUP1 ISZERO PUSH2 0x844 JUMPI RETURNDATASIZE PUSH1 0x0 DUP1 RETURNDATACOPY RETURNDATASIZE PUSH1 0x0 REVERT JUMPDEST POP POP POP POP PUSH1 0x40 MLOAD RETURNDATASIZE PUSH1 0x1F NOT PUSH1 0x1F DUP3 ADD AND DUP3 ADD DUP1 PUSH1 0x40 MSTORE POP DUP2 ADD SWAP1 PUSH2 0x868 SWAP2 SWAP1 PUSH2 0xF3A JUMP JUMPDEST PUSH1 0x40 DUP1 MLOAD PUSH1 0xA0 DUP2 ADD DUP1 DUP4 MSTORE PUSH1 0x4 SLOAD PUSH4 0x18160DDD PUSH1 0xE0 SHL SWAP1 SWAP2 MSTORE SWAP2 MLOAD SWAP3 SWAP4 POP SWAP2 DUP3 SWAP2 PUSH1 0x1 PUSH1 0x1 PUSH1 0xA0 SHL SUB AND SWAP1 PUSH4 0x18160DDD SWAP1 PUSH1 0xA4 DUP1 DUP6 ADD SWAP2 PUSH1 0x20 SWAP2 DUP2 DUP8 SUB ADD DUP2 DUP7 DUP1 EXTCODESIZE ISZERO DUP1 ISZERO PUSH2 0x8B6 JUMPI PUSH1 0x0 DUP1 REVERT JUMPDEST POP GAS STATICCALL ISZERO DUP1 ISZERO PUSH2 0x8CA JUMPI RETURNDATASIZE PUSH1 0x0 DUP1 RETURNDATACOPY RETURNDATASIZE PUSH1 0x0 REVERT JUMPDEST POP POP POP POP PUSH1 0x40 MLOAD RETURNDATASIZE PUSH1 0x1F NOT PUSH1 0x1F DUP3 ADD AND DUP3 ADD DUP1 PUSH1 0x40 MSTORE POP DUP2 ADD SWAP1 PUSH2 0x8EE SWAP2 SWAP1 PUSH2 0xF70 JUMP JUMPDEST DUP2 MSTORE PUSH1 0x20 ADD DUP5 DUP2 MSTORE PUSH1 0x20 ADD DUP4 DUP2 MSTORE PUSH1 0x20 ADD TIMESTAMP DUP2 MSTORE PUSH1 0x20 ADD DUP3 PUSH1 0x1 PUSH1 0x1 PUSH1 0xA0 SHL SUB AND DUP2 MSTORE POP PUSH1 0x5 PUSH1 0x0 PUSH1 0x1 SLOAD DUP2 MSTORE PUSH1 0x20 ADD SWAP1 DUP2 MSTORE PUSH1 0x20 ADD PUSH1 0x0 KECCAK256 PUSH1 0x0 DUP3 ADD MLOAD DUP2 PUSH1 0x0 ADD SSTORE PUSH1 0x20 DUP3 ADD MLOAD DUP2 PUSH1 0x1 ADD SSTORE PUSH1 0x40 DUP3 ADD MLOAD DUP2 PUSH1 0x2 ADD SSTORE PUSH1 0x60 DUP3 ADD MLOAD DUP2 PUSH1 0x3 ADD SSTORE PUSH1 0x80 DUP3 ADD MLOAD DUP2 PUSH1 0x4 ADD PUSH1 0x0 PUSH2 0x100 EXP DUP2 SLOAD DUP2 PUSH1 0x1 PUSH1 0x1 PUSH1 0xA0 SHL SUB MUL NOT AND SWAP1 DUP4 PUSH1 0x1 PUSH1 0x1 PUSH1 0xA0 SHL SUB AND MUL OR SWAP1 SSTORE POP SWAP1 POP POP DUP2 PUSH1 0x2 PUSH1 0x0 DUP3 DUP3 SLOAD PUSH2 0x991 SWAP2 SWAP1 PUSH2 0x10DB JUMP JUMPDEST SWAP1 SWAP2 SSTORE POP POP PUSH1 0x1 DUP1 SLOAD SWAP1 PUSH1 0x0 PUSH2 0x9A6 DUP4 PUSH2 0x110A JUMP JUMPDEST SWAP1 SWAP2 SSTORE POP POP PUSH1 0x40 DUP1 MLOAD PUSH1 0x1 PUSH1 0x1 PUSH1 0xA0 SHL SUB DUP4 AND DUP2 MSTORE PUSH1 0x20 DUP2 ADD DUP5 SWAP1 MSTORE PUSH32 0x2E798DD4337E515C79B64C40E1A93BAA1AEFBD9180AC7905E02508EDD7971E50 SWAP2 ADD PUSH1 0x40 MLOAD DUP1 SWAP2 SUB SWAP1 LOG1 POP POP POP JUMP JUMPDEST PUSH1 0x0 SLOAD PUSH1 0x1 PUSH1 0x1 PUSH1 0xA0 SHL SUB AND CALLER EQ PUSH2 0xA1C JUMPI PUSH1 0x40 MLOAD PUSH3 0x461BCD PUSH1 0xE5 SHL DUP2 MSTORE PUSH1 0x4 ADD PUSH2 0x7E0 SWAP1 PUSH2 0x10A6 JUMP JUMPDEST PUSH2 0xA26 PUSH1 0x0 PUSH2 0xE36 JUMP JUMPDEST JUMP JUMPDEST PUSH1 0x4 DUP1 SLOAD PUSH1 0x40 MLOAD PUSH4 0x70A08231 PUSH1 0xE0 SHL DUP2 MSTORE PUSH1 0x1 PUSH1 0x1 PUSH1 0xA0 SHL SUB DUP5 DUP2 AND SWAP4 DUP3 ADD SWAP4 SWAP1 SWAP4 MSTORE PUSH1 0x0 SWAP3 SWAP1 SWAP2 AND SWAP1 PUSH4 0x70A08231 SWAP1 PUSH1 0x24 ADD PUSH1 0x20 PUSH1 0x40 MLOAD DUP1 DUP4 SUB DUP2 DUP7 DUP1 EXTCODESIZE ISZERO DUP1 ISZERO PUSH2 0xA73 JUMPI PUSH1 0x0 DUP1 REVERT JUMPDEST POP GAS STATICCALL ISZERO DUP1 ISZERO PUSH2 0xA87 JUMPI RETURNDATASIZE PUSH1 0x0 DUP1 RETURNDATACOPY RETURNDATASIZE PUSH1 0x0 REVERT JUMPDEST POP POP POP POP PUSH1 0x40 MLOAD RETURNDATASIZE PUSH1 0x1F NOT PUSH1 0x1F DUP3 ADD AND DUP3 ADD DUP1 PUSH1 0x40 MSTORE POP DUP2 ADD SWAP1 PUSH2 0xAAB SWAP2 SWAP1 PUSH2 0xF70 JUMP JUMPDEST SWAP3 SWAP2 POP POP JUMP JUMPDEST PUSH1 0x60 PUSH1 0x1 SLOAD PUSH1 0x0 EQ ISZERO PUSH2 0xAF7 JUMPI PUSH1 0x40 DUP1 MLOAD PUSH1 0x0 DUP1 DUP3 MSTORE PUSH1 0x20 DUP3 ADD SWAP1 SWAP3 MSTORE SWAP1 PUSH2 0xAEF JUMP JUMPDEST PUSH2 0xADC PUSH2 0xEDE JUMP JUMPDEST DUP2 MSTORE PUSH1 0x20 ADD SWAP1 PUSH1 0x1 SWAP1 SUB SWAP1 DUP2 PUSH2 0xAD4 JUMPI SWAP1 POP JUMPDEST POP SWAP1 POP PUSH2 0xAAB JUMP JUMPDEST PUSH1 0x1 SLOAD DUP3 LT PUSH2 0xB11 JUMPI PUSH1 0x1 DUP1 SLOAD PUSH2 0xB0E SWAP2 SWAP1 PUSH2 0x10F3 JUMP JUMPDEST SWAP2 POP JUMPDEST PUSH1 0x0 PUSH2 0xB1D DUP5 DUP5 PUSH2 0x10F3 JUMP JUMPDEST PUSH2 0xB28 SWAP1 PUSH1 0x1 PUSH2 0x10DB JUMP JUMPDEST SWAP1 POP PUSH1 0x0 DUP2 PUSH8 0xFFFFFFFFFFFFFFFF DUP2 GT ISZERO PUSH2 0xB45 JUMPI PUSH2 0xB45 PUSH2 0x1173 JUMP JUMPDEST PUSH1 0x40 MLOAD SWAP1 DUP1 DUP3 MSTORE DUP1 PUSH1 0x20 MUL PUSH1 0x20 ADD DUP3 ADD PUSH1 0x40 MSTORE DUP1 ISZERO PUSH2 0xB7E JUMPI DUP2 PUSH1 0x20 ADD JUMPDEST PUSH2 0xB6B PUSH2 0xEDE JUMP JUMPDEST DUP2 MSTORE PUSH1 0x20 ADD SWAP1 PUSH1 0x1 SWAP1 SUB SWAP1 DUP2 PUSH2 0xB63 JUMPI SWAP1 POP JUMPDEST POP SWAP3 POP DUP5 JUMPDEST DUP5 DUP2 GT PUSH2 0xC2B JUMPI PUSH1 0x5 PUSH1 0x0 PUSH2 0xB98 DUP4 DUP10 PUSH2 0x10DB JUMP JUMPDEST DUP2 MSTORE PUSH1 0x20 DUP1 DUP3 ADD SWAP3 SWAP1 SWAP3 MSTORE PUSH1 0x40 SWAP1 DUP2 ADD PUSH1 0x0 KECCAK256 DUP2 MLOAD PUSH1 0xA0 DUP2 ADD DUP4 MSTORE DUP2 SLOAD DUP2 MSTORE PUSH1 0x1 DUP3 ADD SLOAD SWAP4 DUP2 ADD SWAP4 SWAP1 SWAP4 MSTORE PUSH1 0x2 DUP2 ADD SLOAD SWAP2 DUP4 ADD SWAP2 SWAP1 SWAP2 MSTORE PUSH1 0x3 DUP2 ADD SLOAD PUSH1 0x60 DUP4 ADD MSTORE PUSH1 0x4 ADD SLOAD PUSH1 0x1 PUSH1 0x1 PUSH1 0xA0 SHL SUB AND PUSH1 0x80 DUP3 ADD MSTORE DUP5 MLOAD DUP6 SWAP1 DUP5 SWAP1 DUP2 LT PUSH2 0xBFF JUMPI PUSH2 0xBFF PUSH2 0x115D JUMP JUMPDEST PUSH1 0x20 MUL PUSH1 0x20 ADD ADD DUP2 SWAP1 MSTORE POP DUP2 DUP1 PUSH2 0xC15 SWAP1 PUSH2 0x110A JUMP JUMPDEST SWAP3 POP POP DUP1 DUP1 PUSH2 0xC23 SWAP1 PUSH2 0x110A JUMP JUMPDEST SWAP2 POP POP PUSH2 0xB83 JUMP JUMPDEST POP POP POP SWAP3 SWAP2 POP POP JUMP JUMPDEST PUSH1 0x0 SLOAD PUSH1 0x1 PUSH1 0x1 PUSH1 0xA0 SHL SUB AND CALLER EQ PUSH2 0xC5E JUMPI PUSH1 0x40 MLOAD PUSH3 0x461BCD PUSH1 0xE5 SHL DUP2 MSTORE PUSH1 0x4 ADD PUSH2 0x7E0 SWAP1 PUSH2 0x10A6 JUMP JUMPDEST PUSH1 0x1 PUSH1 0x1 PUSH1 0xA0 SHL SUB DUP2 AND PUSH2 0xCC3 JUMPI PUSH1 0x40 MLOAD PUSH3 0x461BCD PUSH1 0xE5 SHL DUP2 MSTORE PUSH1 0x20 PUSH1 0x4 DUP3 ADD MSTORE PUSH1 0x26 PUSH1 0x24 DUP3 ADD MSTORE PUSH32 0x4F776E61626C653A206E6577206F776E657220697320746865207A65726F2061 PUSH1 0x44 DUP3 ADD MSTORE PUSH6 0x646472657373 PUSH1 0xD0 SHL PUSH1 0x64 DUP3 ADD MSTORE PUSH1 0x84 ADD PUSH2 0x7E0 JUMP JUMPDEST PUSH2 0xCCC DUP2 PUSH2 0xE36 JUMP JUMPDEST POP JUMP JUMPDEST PUSH1 0x0 DUP1 PUSH1 0x0 PUSH1 0x4 PUSH1 0x0 SWAP1 SLOAD SWAP1 PUSH2 0x100 EXP SWAP1 DIV PUSH1 0x1 PUSH1 0x1 PUSH1 0xA0 SHL SUB AND PUSH1 0x1 PUSH1 0x1 PUSH1 0xA0 SHL SUB AND PUSH4 0x18160DDD PUSH1 0x40 MLOAD DUP2 PUSH4 0xFFFFFFFF AND PUSH1 0xE0 SHL DUP2 MSTORE PUSH1 0x4 ADD PUSH1 0x20 PUSH1 0x40 MLOAD DUP1 DUP4 SUB DUP2 DUP7 DUP1 EXTCODESIZE ISZERO DUP1 ISZERO PUSH2 0xD22 JUMPI PUSH1 0x0 DUP1 REVERT JUMPDEST POP GAS STATICCALL ISZERO DUP1 ISZERO PUSH2 0xD36 JUMPI RETURNDATASIZE PUSH1 0x0 DUP1 RETURNDATACOPY RETURNDATASIZE PUSH1 0x0 REVERT JUMPDEST POP POP POP POP PUSH1 0x40 MLOAD RETURNDATASIZE PUSH1 0x1F NOT PUSH1 0x1F DUP3 ADD AND DUP3 ADD DUP1 PUSH1 0x40 MSTORE POP DUP2 ADD SWAP1 PUSH2 0xD5A SWAP2 SWAP1 PUSH2 0xF70 JUMP JUMPDEST SWAP1 POP DUP1 PUSH2 0xD66 DUP6 PUSH2 0xE86 JUMP JUMPDEST PUSH2 0xD70 SWAP2 SWAP1 PUSH2 0x1125 JUMP JUMPDEST PUSH2 0xD7B SWAP1 PUSH1 0x1 PUSH2 0x10DB JUMP JUMPDEST PUSH1 0x4 DUP1 SLOAD PUSH1 0x40 MLOAD PUSH4 0x31A9108F PUSH1 0xE1 SHL DUP2 MSTORE SWAP3 SWAP6 POP PUSH1 0x1 PUSH1 0x1 PUSH1 0xA0 SHL SUB AND SWAP2 PUSH4 0x6352211E SWAP2 PUSH2 0xDAF SWAP2 DUP8 SWAP2 ADD SWAP1 DUP2 MSTORE PUSH1 0x20 ADD SWAP1 JUMP JUMPDEST PUSH1 0x20 PUSH1 0x40 MLOAD DUP1 DUP4 SUB DUP2 DUP7 DUP1 EXTCODESIZE ISZERO DUP1 ISZERO PUSH2 0xDC7 JUMPI PUSH1 0x0 DUP1 REVERT JUMPDEST POP GAS STATICCALL ISZERO DUP1 ISZERO PUSH2 0xDDB JUMPI RETURNDATASIZE PUSH1 0x0 DUP1 RETURNDATACOPY RETURNDATASIZE PUSH1 0x0 REVERT JUMPDEST POP POP POP POP PUSH1 0x40 MLOAD RETURNDATASIZE PUSH1 0x1F NOT PUSH1 0x1F DUP3 ADD AND DUP3 ADD DUP1 PUSH1 0x40 MSTORE POP DUP2 ADD SWAP1 PUSH2 0xDFF SWAP2 SWAP1 PUSH2 0xF3A JUMP JUMPDEST SWAP2 POP POP SWAP2 POP SWAP2 JUMP JUMPDEST PUSH1 0x0 SLOAD PUSH1 0x1 PUSH1 0x1 PUSH1 0xA0 SHL SUB AND CALLER EQ PUSH2 0xE31 JUMPI PUSH1 0x40 MLOAD PUSH3 0x461BCD PUSH1 0xE5 SHL DUP2 MSTORE PUSH1 0x4 ADD PUSH2 0x7E0 SWAP1 PUSH2 0x10A6 JUMP JUMPDEST PUSH1 0x3 SSTORE JUMP JUMPDEST PUSH1 0x0 DUP1 SLOAD PUSH1 0x1 PUSH1 0x1 PUSH1 0xA0 SHL SUB DUP4 DUP2 AND PUSH1 0x1 PUSH1 0x1 PUSH1 0xA0 SHL SUB NOT DUP4 AND DUP2 OR DUP5 SSTORE PUSH1 0x40 MLOAD SWAP2 SWAP1 SWAP3 AND SWAP3 DUP4 SWAP2 PUSH32 0x8BE0079C531659141344CD1FD0A4F28419497F9722A3DAAFE3B4186F6B6457E0 SWAP2 SWAP1 LOG3 POP POP JUMP JUMPDEST PUSH1 0x0 DUP2 TIMESTAMP GAS PUSH1 0x40 DUP1 MLOAD PUSH1 0x20 DUP2 ADD SWAP5 SWAP1 SWAP5 MSTORE DUP4 ADD SWAP2 SWAP1 SWAP2 MSTORE PUSH1 0x60 DUP1 DUP4 ADD SWAP2 SWAP1 SWAP2 MSTORE CALLER SWAP1 SHL PUSH12 0xFFFFFFFFFFFFFFFFFFFFFFFF NOT AND PUSH1 0x80 DUP3 ADD MSTORE PUSH1 0x94 ADD PUSH1 0x40 DUP1 MLOAD PUSH1 0x1F NOT DUP2 DUP5 SUB ADD DUP2 MSTORE SWAP2 SWAP1 MSTORE DUP1 MLOAD PUSH1 0x20 SWAP1 SWAP2 ADD KECCAK256 SWAP3 SWAP2 POP POP JUMP JUMPDEST PUSH1 0x40 MLOAD DUP1 PUSH1 0xA0 ADD PUSH1 0x40 MSTORE DUP1 PUSH1 0x0 DUP2 MSTORE PUSH1 0x20 ADD PUSH1 0x0 DUP2 MSTORE PUSH1 0x20 ADD PUSH1 0x0 DUP2 MSTORE PUSH1 0x20 ADD PUSH1 0x0 DUP2 MSTORE PUSH1 0x20 ADD PUSH1 0x0 PUSH1 0x1 PUSH1 0x1 PUSH1 0xA0 SHL SUB AND DUP2 MSTORE POP SWAP1 JUMP JUMPDEST PUSH1 0x0 PUSH1 0x20 DUP3 DUP5 SUB SLT ISZERO PUSH2 0xF28 JUMPI PUSH1 0x0 DUP1 REVERT JUMPDEST DUP2 CALLDATALOAD PUSH2 0xF33 DUP2 PUSH2 0x1189 JUMP JUMPDEST SWAP4 SWAP3 POP POP POP JUMP JUMPDEST PUSH1 0x0 PUSH1 0x20 DUP3 DUP5 SUB SLT ISZERO PUSH2 0xF4C JUMPI PUSH1 0x0 DUP1 REVERT JUMPDEST DUP2 MLOAD PUSH2 0xF33 DUP2 PUSH2 0x1189 JUMP JUMPDEST PUSH1 0x0 PUSH1 0x20 DUP3 DUP5 SUB SLT ISZERO PUSH2 0xF69 JUMPI PUSH1 0x0 DUP1 REVERT JUMPDEST POP CALLDATALOAD SWAP2 SWAP1 POP JUMP JUMPDEST PUSH1 0x0 PUSH1 0x20 DUP3 DUP5 SUB SLT ISZERO PUSH2 0xF82 JUMPI PUSH1 0x0 DUP1 REVERT JUMPDEST POP MLOAD SWAP2 SWAP1 POP JUMP JUMPDEST PUSH1 0x0 DUP1 PUSH1 0x40 DUP4 DUP6 SUB SLT ISZERO PUSH2 0xF9C JUMPI PUSH1 0x0 DUP1 REVERT JUMPDEST POP POP DUP1 CALLDATALOAD SWAP3 PUSH1 0x20 SWAP1 SWAP2 ADD CALLDATALOAD SWAP2 POP JUMP JUMPDEST PUSH1 0x40 DUP1 DUP3 MSTORE DUP4 MLOAD SWAP1 DUP3 ADD DUP2 SWAP1 MSTORE PUSH1 0x0 SWAP1 PUSH1 0x20 SWAP1 PUSH1 0x60 DUP5 ADD SWAP1 DUP3 DUP8 ADD DUP5 JUMPDEST DUP3 DUP2 LT ISZERO PUSH2 0xFED JUMPI DUP2 MLOAD PUSH1 0x1 PUSH1 0x1 PUSH1 0xA0 SHL SUB AND DUP5 MSTORE SWAP3 DUP5 ADD SWAP3 SWAP1 DUP5 ADD SWAP1 PUSH1 0x1 ADD PUSH2 0xFC8 JUMP JUMPDEST POP POP POP DUP4 DUP2 SUB DUP3 DUP6 ADD MSTORE DUP5 MLOAD DUP1 DUP3 MSTORE DUP6 DUP4 ADD SWAP2 DUP4 ADD SWAP1 PUSH1 0x0 JUMPDEST DUP2 DUP2 LT ISZERO PUSH2 0x1022 JUMPI DUP4 MLOAD DUP4 MSTORE SWAP3 DUP5 ADD SWAP3 SWAP2 DUP5 ADD SWAP2 PUSH1 0x1 ADD PUSH2 0x1006 JUMP JUMPDEST POP SWAP1 SWAP8 SWAP7 POP POP POP POP POP POP POP JUMP JUMPDEST PUSH1 0x20 DUP1 DUP3 MSTORE DUP3 MLOAD DUP3 DUP3 ADD DUP2 SWAP1 MSTORE PUSH1 0x0 SWAP2 SWAP1 PUSH1 0x40 SWAP1 DUP2 DUP6 ADD SWAP1 DUP7 DUP5 ADD DUP6 JUMPDEST DUP3 DUP2 LT ISZERO PUSH2 0x1099 JUMPI DUP2 MLOAD DUP1 MLOAD DUP6 MSTORE DUP7 DUP2 ADD MLOAD DUP8 DUP7 ADD MSTORE DUP6 DUP2 ADD MLOAD DUP7 DUP7 ADD MSTORE PUSH1 0x60 DUP1 DUP3 ADD MLOAD SWAP1 DUP7 ADD MSTORE PUSH1 0x80 SWAP1 DUP2 ADD MLOAD PUSH1 0x1 PUSH1 0x1 PUSH1 0xA0 SHL SUB AND SWAP1 DUP6 ADD MSTORE PUSH1 0xA0 SWAP1 SWAP4 ADD SWAP3 SWAP1 DUP6 ADD SWAP1 PUSH1 0x1 ADD PUSH2 0x104C JUMP JUMPDEST POP SWAP2 SWAP8 SWAP7 POP POP POP POP POP POP POP JUMP JUMPDEST PUSH1 0x20 DUP1 DUP3 MSTORE DUP2 DUP2 ADD MSTORE PUSH32 0x4F776E61626C653A2063616C6C6572206973206E6F7420746865206F776E6572 PUSH1 0x40 DUP3 ADD MSTORE PUSH1 0x60 ADD SWAP1 JUMP JUMPDEST PUSH1 0x0 DUP3 NOT DUP3 GT ISZERO PUSH2 0x10EE JUMPI PUSH2 0x10EE PUSH2 0x1147 JUMP JUMPDEST POP ADD SWAP1 JUMP JUMPDEST PUSH1 0x0 DUP3 DUP3 LT ISZERO PUSH2 0x1105 JUMPI PUSH2 0x1105 PUSH2 0x1147 JUMP JUMPDEST POP SUB SWAP1 JUMP JUMPDEST PUSH1 0x0 PUSH1 0x0 NOT DUP3 EQ ISZERO PUSH2 0x111E JUMPI PUSH2 0x111E PUSH2 0x1147 JUMP JUMPDEST POP PUSH1 0x1 ADD SWAP1 JUMP JUMPDEST PUSH1 0x0 DUP3 PUSH2 0x1142 JUMPI PUSH4 0x4E487B71 PUSH1 0xE0 SHL PUSH1 0x0 MSTORE PUSH1 0x12 PUSH1 0x4 MSTORE PUSH1 0x24 PUSH1 0x0 REVERT JUMPDEST POP MOD SWAP1 JUMP JUMPDEST PUSH4 0x4E487B71 PUSH1 0xE0 SHL PUSH1 0x0 MSTORE PUSH1 0x11 PUSH1 0x4 MSTORE PUSH1 0x24 PUSH1 0x0 REVERT JUMPDEST PUSH4 0x4E487B71 PUSH1 0xE0 SHL PUSH1 0x0 MSTORE PUSH1 0x32 PUSH1 0x4 MSTORE PUSH1 0x24 PUSH1 0x0 REVERT JUMPDEST PUSH4 0x4E487B71 PUSH1 0xE0 SHL PUSH1 0x0 MSTORE PUSH1 0x41 PUSH1 0x4 MSTORE PUSH1 0x24 PUSH1 0x0 REVERT JUMPDEST PUSH1 0x1 PUSH1 0x1 PUSH1 0xA0 SHL SUB DUP2 AND DUP2 EQ PUSH2 0xCCC JUMPI PUSH1 0x0 DUP1 REVERT INVALID LOG2 PUSH5 0x6970667358 0x22 SLT KECCAK256 LOG1 0xC9 SWAP13 DUP4 SELFDESTRUCT 0xF7 0xEC 0xB4 ADD 0x1F 0xBF SWAP6 DUP8 0xBA 0xB5 PUSH17 0x10D30996F6F311851CFF221CFC870A8D64 PUSH20 0x6F6C634300080700330000000000000000000000 "
				},
				"gasEstimates": {
					"creation": {
						"codeDepositCost": "912800",
						"executionCost": "infinite",
						"totalCost": "infinite"
					},
					"external": {
						"acesNFT()": "2404",
						"currentJackpot()": "2372",
						"getEntries()": "infinite",
						"getUniqueAddresses()": "infinite",
						"getUniqueUsers()": "infinite",
						"owner()": "2409",
						"pickWinner(uint256)": "infinite",
						"renounceOwnership()": "28181",
						"resultLog(uint256,uint256)": "infinite",
						"roundNum()": "2308",
						"roundResults(uint256)": "11063",
						"totalPayout()": "2307",
						"transferOwnership(address)": "infinite",
						"updateJackpot(uint256)": "24530",
						"updateWinner(uint256,uint256)": "infinite",
						"userEntries(address)": "infinite"
					},
					"internal": {
						"random(uint256)": "infinite"
					}
				},
				"methodIdentifiers": {
					"acesNFT()": "aeb18350",
					"currentJackpot()": "f9cee0bd",
					"getEntries()": "17be85c3",
					"getUniqueAddresses()": "3b98bc65",
					"getUniqueUsers()": "158977de",
					"owner()": "8da5cb5b",
					"pickWinner(uint256)": "f737d21d",
					"renounceOwnership()": "715018a6",
					"resultLog(uint256,uint256)": "bc15cdf0",
					"roundNum()": "119b22b3",
					"roundResults(uint256)": "ac128f4f",
					"totalPayout()": "454f7b8f",
					"transferOwnership(address)": "f2fde38b",
					"updateJackpot(uint256)": "f80fb76d",
					"updateWinner(uint256,uint256)": "6fbb5a86",
					"userEntries(address)": "9f10a990"
				}
			},
			"storageLayout": {
				"storage": [
					{
						"astId": 433,
						"contract": "NFTlotto.sol:ACELotto",
						"label": "_owner",
						"offset": 0,
						"slot": "0",
						"type": "t_address"
					},
					{
						"astId": 35,
						"contract": "NFTlotto.sol:ACELotto",
						"label": "roundNum",
						"offset": 0,
						"slot": "1",
						"type": "t_uint256"
					},
					{
						"astId": 37,
						"contract": "NFTlotto.sol:ACELotto",
						"label": "totalPayout",
						"offset": 0,
						"slot": "2",
						"type": "t_uint256"
					},
					{
						"astId": 40,
						"contract": "NFTlotto.sol:ACELotto",
						"label": "currentJackpot",
						"offset": 0,
						"slot": "3",
						"type": "t_uint256"
					},
					{
						"astId": 43,
						"contract": "NFTlotto.sol:ACELotto",
						"label": "acesNFT",
						"offset": 0,
						"slot": "4",
						"type": "t_contract(IERC721Enumerable)755"
					},
					{
						"astId": 59,
						"contract": "NFTlotto.sol:ACELotto",
						"label": "roundResults",
						"offset": 0,
						"slot": "5",
						"type": "t_mapping(t_uint256,t_struct(Results)54_storage)"
					}
				],
				"types": {
					"t_address": {
						"encoding": "inplace",
						"label": "address",
						"numberOfBytes": "20"
					},
					"t_contract(IERC721Enumerable)755": {
						"encoding": "inplace",
						"label": "contract IERC721Enumerable",
						"numberOfBytes": "20"
					},
					"t_mapping(t_uint256,t_struct(Results)54_storage)": {
						"encoding": "mapping",
						"key": "t_uint256",
						"label": "mapping(uint256 => struct ACELotto.Results)",
						"numberOfBytes": "32",
						"value": "t_struct(Results)54_storage"
					},
					"t_struct(Results)54_storage": {
						"encoding": "inplace",
						"label": "struct ACELotto.Results",
						"members": [
							{
								"astId": 45,
								"contract": "NFTlotto.sol:ACELotto",
								"label": "totalEntries",
								"offset": 0,
								"slot": "0",
								"type": "t_uint256"
							},
							{
								"astId": 47,
								"contract": "NFTlotto.sol:ACELotto",
								"label": "winningNumber",
								"offset": 0,
								"slot": "1",
								"type": "t_uint256"
							},
							{
								"astId": 49,
								"contract": "NFTlotto.sol:ACELotto",
								"label": "payout",
								"offset": 0,
								"slot": "2",
								"type": "t_uint256"
							},
							{
								"astId": 51,
								"contract": "NFTlotto.sol:ACELotto",
								"label": "endTime",
								"offset": 0,
								"slot": "3",
								"type": "t_uint256"
							},
							{
								"astId": 53,
								"contract": "NFTlotto.sol:ACELotto",
								"label": "winningAddress",
								"offset": 0,
								"slot": "4",
								"type": "t_address"
							}
						],
						"numberOfBytes": "160"
					},
					"t_uint256": {
						"encoding": "inplace",
						"label": "uint256",
						"numberOfBytes": "32"
					}
				}
			},
			"userdoc": {
				"kind": "user",
				"methods": {},
				"version": 1
			}
		}
	}
}