{
	"lotto.sol": {
		"ACELotto": {
			"abi": [
				{
					"inputs": [],
					"stateMutability": "nonpayable",
					"type": "constructor"
				},
				{
					"anonymous": false,
					"inputs": [
						{
							"indexed": false,
							"internalType": "address",
							"name": "winner",
							"type": "address"
						},
						{
							"indexed": false,
							"internalType": "uint256",
							"name": "amount",
							"type": "uint256"
						}
					],
					"name": "LotteryWon",
					"type": "event"
				},
				{
					"anonymous": false,
					"inputs": [
						{
							"indexed": true,
							"internalType": "address",
							"name": "previousOwner",
							"type": "address"
						},
						{
							"indexed": true,
							"internalType": "address",
							"name": "newOwner",
							"type": "address"
						}
					],
					"name": "OwnershipTransferred",
					"type": "event"
				},
				{
					"inputs": [],
					"name": "BUSD",
					"outputs": [
						{
							"internalType": "contract IERC20",
							"name": "",
							"type": "address"
						}
					],
					"stateMutability": "view",
					"type": "function"
				},
				{
					"inputs": [],
					"name": "acesToken",
					"outputs": [
						{
							"internalType": "address",
							"name": "",
							"type": "address"
						}
					],
					"stateMutability": "view",
					"type": "function"
				},
				{
					"inputs": [
						{
							"internalType": "address[]",
							"name": "accounts",
							"type": "address[]"
						},
						{
							"internalType": "uint256[]",
							"name": "amounts",
							"type": "uint256[]"
						}
					],
					"name": "batchAdd",
					"outputs": [],
					"stateMutability": "nonpayable",
					"type": "function"
				},
				{
					"inputs": [],
					"name": "currentJackpot",
					"outputs": [
						{
							"internalType": "uint256",
							"name": "",
							"type": "uint256"
						}
					],
					"stateMutability": "view",
					"type": "function"
				},
				{
					"inputs": [
						{
							"internalType": "address",
							"name": "",
							"type": "address"
						},
						{
							"internalType": "uint256",
							"name": "",
							"type": "uint256"
						}
					],
					"name": "entriesIndex",
					"outputs": [
						{
							"internalType": "uint256",
							"name": "",
							"type": "uint256"
						}
					],
					"stateMutability": "view",
					"type": "function"
				},
				{
					"inputs": [],
					"name": "getUniqueAddresses",
					"outputs": [
						{
							"internalType": "address[]",
							"name": "addresses",
							"type": "address[]"
						},
						{
							"internalType": "uint256[]",
							"name": "entries",
							"type": "uint256[]"
						}
					],
					"stateMutability": "view",
					"type": "function"
				},
				{
					"inputs": [],
					"name": "getUniqueUsers",
					"outputs": [
						{
							"internalType": "uint256",
							"name": "counter",
							"type": "uint256"
						}
					],
					"stateMutability": "view",
					"type": "function"
				},
				{
					"inputs": [
						{
							"internalType": "address",
							"name": "account",
							"type": "address"
						}
					],
					"name": "isActiveAccount",
					"outputs": [
						{
							"internalType": "bool",
							"name": "",
							"type": "bool"
						}
					],
					"stateMutability": "view",
					"type": "function"
				},
				{
					"inputs": [],
					"name": "owner",
					"outputs": [
						{
							"internalType": "address",
							"name": "",
							"type": "address"
						}
					],
					"stateMutability": "view",
					"type": "function"
				},
				{
					"inputs": [
						{
							"internalType": "uint256",
							"name": "seed",
							"type": "uint256"
						}
					],
					"name": "pickWinner",
					"outputs": [
						{
							"internalType": "uint256",
							"name": "winnerNum",
							"type": "uint256"
						},
						{
							"internalType": "address",
							"name": "winnerAddress",
							"type": "address"
						}
					],
					"stateMutability": "view",
					"type": "function"
				},
				{
					"inputs": [
						{
							"internalType": "address",
							"name": "account",
							"type": "address"
						}
					],
					"name": "removeAccount",
					"outputs": [],
					"stateMutability": "nonpayable",
					"type": "function"
				},
				{
					"inputs": [
						{
							"internalType": "address",
							"name": "account",
							"type": "address"
						},
						{
							"internalType": "uint256",
							"name": "amount",
							"type": "uint256"
						}
					],
					"name": "removeEntryFromWallet",
					"outputs": [],
					"stateMutability": "nonpayable",
					"type": "function"
				},
				{
					"inputs": [],
					"name": "renounceOwnership",
					"outputs": [],
					"stateMutability": "nonpayable",
					"type": "function"
				},
				{
					"inputs": [
						{
							"internalType": "uint256",
							"name": "startIndex",
							"type": "uint256"
						},
						{
							"internalType": "uint256",
							"name": "endIndex",
							"type": "uint256"
						}
					],
					"name": "resultLog",
					"outputs": [
						{
							"components": [
								{
									"internalType": "uint256",
									"name": "totalEntries",
									"type": "uint256"
								},
								{
									"internalType": "uint256",
									"name": "winningNumber",
									"type": "uint256"
								},
								{
									"internalType": "uint256",
									"name": "payout",
									"type": "uint256"
								},
								{
									"internalType": "uint256",
									"name": "endTime",
									"type": "uint256"
								},
								{
									"internalType": "address",
									"name": "winningAddress",
									"type": "address"
								}
							],
							"internalType": "struct ACELotto.Results[]",
							"name": "log",
							"type": "tuple[]"
						}
					],
					"stateMutability": "view",
					"type": "function"
				},
				{
					"inputs": [],
					"name": "roundEntries",
					"outputs": [
						{
							"internalType": "uint256",
							"name": "",
							"type": "uint256"
						}
					],
					"stateMutability": "view",
					"type": "function"
				},
				{
					"inputs": [
						{
							"internalType": "uint256",
							"name": "",
							"type": "uint256"
						}
					],
					"name": "roundEntry",
					"outputs": [
						{
							"internalType": "address",
							"name": "",
							"type": "address"
						}
					],
					"stateMutability": "view",
					"type": "function"
				},
				{
					"inputs": [],
					"name": "roundNum",
					"outputs": [
						{
							"internalType": "uint256",
							"name": "",
							"type": "uint256"
						}
					],
					"stateMutability": "view",
					"type": "function"
				},
				{
					"inputs": [
						{
							"internalType": "uint256",
							"name": "",
							"type": "uint256"
						}
					],
					"name": "roundResults",
					"outputs": [
						{
							"internalType": "uint256",
							"name": "totalEntries",
							"type": "uint256"
						},
						{
							"internalType": "uint256",
							"name": "winningNumber",
							"type": "uint256"
						},
						{
							"internalType": "uint256",
							"name": "payout",
							"type": "uint256"
						},
						{
							"internalType": "uint256",
							"name": "endTime",
							"type": "uint256"
						},
						{
							"internalType": "address",
							"name": "winningAddress",
							"type": "address"
						}
					],
					"stateMutability": "view",
					"type": "function"
				},
				{
					"inputs": [],
					"name": "totalPayout",
					"outputs": [
						{
							"internalType": "uint256",
							"name": "",
							"type": "uint256"
						}
					],
					"stateMutability": "view",
					"type": "function"
				},
				{
					"inputs": [
						{
							"internalType": "address",
							"name": "newOwner",
							"type": "address"
						}
					],
					"name": "transferOwnership",
					"outputs": [],
					"stateMutability": "nonpayable",
					"type": "function"
				},
				{
					"inputs": [],
					"name": "treasuryWallet",
					"outputs": [
						{
							"internalType": "address",
							"name": "",
							"type": "address"
						}
					],
					"stateMutability": "view",
					"type": "function"
				},
				{
					"inputs": [
						{
							"internalType": "address",
							"name": "account",
							"type": "address"
						},
						{
							"internalType": "uint256",
							"name": "amount",
							"type": "uint256"
						}
					],
					"name": "updateAccount",
					"outputs": [],
					"stateMutability": "nonpayable",
					"type": "function"
				},
				{
					"inputs": [
						{
							"internalType": "uint256",
							"name": "winnerNum",
							"type": "uint256"
						},
						{
							"internalType": "uint256",
							"name": "payout",
							"type": "uint256"
						}
					],
					"name": "updateWinner",
					"outputs": [],
					"stateMutability": "nonpayable",
					"type": "function"
				},
				{
					"inputs": [
						{
							"internalType": "address",
							"name": "account",
							"type": "address"
						}
					],
					"name": "userEntries",
					"outputs": [
						{
							"internalType": "uint256",
							"name": "",
							"type": "uint256"
						}
					],
					"stateMutability": "view",
					"type": "function"
				}
			],
			"devdoc": {
				"kind": "dev",
				"methods": {
					"owner()": {
						"details": "Returns the address of the current owner."
					},
					"renounceOwnership()": {
						"details": "Leaves the contract without owner. It will not be possible to call `onlyOwner` functions anymore. Can only be called by the current owner. NOTE: Renouncing ownership will leave the contract without an owner, thereby removing any functionality that is only available to the owner."
					},
					"transferOwnership(address)": {
						"details": "Transfers ownership of the contract to a new account (`newOwner`). Can only be called by the current owner."
					}
				},
				"version": 1
			},
			"evm": {
				"assembly": "    /* \"lotto.sol\":595:6000  contract ACELotto is Ownable {   \r... */\n  mstore(0x40, 0x80)\n    /* \"lotto.sol\":765:807  0xe9e7CEA3DedcA5984780Bafc599bD69ADd087D56 */\n  0xe9e7cea3dedca5984780bafc599bd69add087d56\n    /* \"lotto.sol\":737:808  IERC20 public BUSD = IERC20(0xe9e7CEA3DedcA5984780Bafc599bD69ADd087D56) */\n  0x04\n  exp(0x0100, 0x00)\n  dup2\n  sload\n  dup2\n  0xffffffffffffffffffffffffffffffffffffffff\n  mul\n  not\n  and\n  swap1\n  dup4\n  0xffffffffffffffffffffffffffffffffffffffff\n  and\n  mul\n  or\n  swap1\n  sstore\n  pop\n    /* \"lotto.sol\":844:886  0x5B38Da6a701c568545dCfcB03FcB875f56beddC4 */\n  0x5b38da6a701c568545dcfcb03fcb875f56beddc4\n    /* \"lotto.sol\":817:886  address public acesToken = 0x5B38Da6a701c568545dCfcB03FcB875f56beddC4 */\n  0x05\n  exp(0x0100, 0x00)\n  dup2\n  sload\n  dup2\n  0xffffffffffffffffffffffffffffffffffffffff\n  mul\n  not\n  and\n  swap1\n  dup4\n  0xffffffffffffffffffffffffffffffffffffffff\n  and\n  mul\n  or\n  swap1\n  sstore\n  pop\n    /* \"lotto.sol\":925:967  0x0eD2Fd07B8BE10E2b8737e39AD33663DC711C31B */\n  0x0ed2fd07b8be10e2b8737e39ad33663dc711c31b\n    /* \"lotto.sol\":893:967  address public treasuryWallet = 0x0eD2Fd07B8BE10E2b8737e39AD33663DC711C31B */\n  0x06\n  exp(0x0100, 0x00)\n  dup2\n  sload\n  dup2\n  0xffffffffffffffffffffffffffffffffffffffff\n  mul\n  not\n  and\n  swap1\n  dup4\n  0xffffffffffffffffffffffffffffffffffffffff\n  and\n  mul\n  or\n  swap1\n  sstore\n  pop\n    /* \"lotto.sol\":1379:1394  constructor(){} */\n  callvalue\n  dup1\n  iszero\n  tag_1\n  jumpi\n  0x00\n  dup1\n  revert\ntag_1:\n  pop\n    /* \"https://github.com/OpenZeppelin/openzeppelin-contracts/blob/master/contracts/access/Ownable.sol\":921:953  _transferOwnership(_msgSender()) */\n  tag_5\n    /* \"https://github.com/OpenZeppelin/openzeppelin-contracts/blob/master/contracts/access/Ownable.sol\":940:952  _msgSender() */\n  tag_6\n    /* \"https://github.com/OpenZeppelin/openzeppelin-contracts/blob/master/contracts/access/Ownable.sol\":940:950  _msgSender */\n  shl(0x20, tag_7)\n    /* \"https://github.com/OpenZeppelin/openzeppelin-contracts/blob/master/contracts/access/Ownable.sol\":940:952  _msgSender() */\n  0x20\n  shr\n  jump\t// in\ntag_6:\n    /* \"https://github.com/OpenZeppelin/openzeppelin-contracts/blob/master/contracts/access/Ownable.sol\":921:939  _transferOwnership */\n  shl(0x20, tag_8)\n    /* \"https://github.com/OpenZeppelin/openzeppelin-contracts/blob/master/contracts/access/Ownable.sol\":921:953  _transferOwnership(_msgSender()) */\n  0x20\n  shr\n  jump\t// in\ntag_5:\n    /* \"lotto.sol\":595:6000  contract ACELotto is Ownable {   \r... */\n  jump(tag_10)\n    /* \"https://github.com/OpenZeppelin/openzeppelin-contracts/blob/master/contracts/utils/Context.sol\":640:736  function _msgSender() internal view virtual returns (address) {... */\ntag_7:\n    /* \"https://github.com/OpenZeppelin/openzeppelin-contracts/blob/master/contracts/utils/Context.sol\":693:700  address */\n  0x00\n    /* \"https://github.com/OpenZeppelin/openzeppelin-contracts/blob/master/contracts/utils/Context.sol\":719:729  msg.sender */\n  caller\n    /* \"https://github.com/OpenZeppelin/openzeppelin-contracts/blob/master/contracts/utils/Context.sol\":712:729  return msg.sender */\n  swap1\n  pop\n    /* \"https://github.com/OpenZeppelin/openzeppelin-contracts/blob/master/contracts/utils/Context.sol\":640:736  function _msgSender() internal view virtual returns (address) {... */\n  swap1\n  jump\t// out\n    /* \"https://github.com/OpenZeppelin/openzeppelin-contracts/blob/master/contracts/access/Ownable.sol\":2270:2457  function _transferOwnership(address newOwner) internal virtual {... */\ntag_8:\n    /* \"https://github.com/OpenZeppelin/openzeppelin-contracts/blob/master/contracts/access/Ownable.sol\":2343:2359  address oldOwner */\n  0x00\n    /* \"https://github.com/OpenZeppelin/openzeppelin-contracts/blob/master/contracts/access/Ownable.sol\":2362:2368  _owner */\n  dup1\n  0x00\n  swap1\n  sload\n  swap1\n  0x0100\n  exp\n  swap1\n  div\n  0xffffffffffffffffffffffffffffffffffffffff\n  and\n    /* \"https://github.com/OpenZeppelin/openzeppelin-contracts/blob/master/contracts/access/Ownable.sol\":2343:2368  address oldOwner = _owner */\n  swap1\n  pop\n    /* \"https://github.com/OpenZeppelin/openzeppelin-contracts/blob/master/contracts/access/Ownable.sol\":2387:2395  newOwner */\n  dup2\n    /* \"https://github.com/OpenZeppelin/openzeppelin-contracts/blob/master/contracts/access/Ownable.sol\":2378:2384  _owner */\n  0x00\n  dup1\n    /* \"https://github.com/OpenZeppelin/openzeppelin-contracts/blob/master/contracts/access/Ownable.sol\":2378:2395  _owner = newOwner */\n  0x0100\n  exp\n  dup2\n  sload\n  dup2\n  0xffffffffffffffffffffffffffffffffffffffff\n  mul\n  not\n  and\n  swap1\n  dup4\n  0xffffffffffffffffffffffffffffffffffffffff\n  and\n  mul\n  or\n  swap1\n  sstore\n  pop\n    /* \"https://github.com/OpenZeppelin/openzeppelin-contracts/blob/master/contracts/access/Ownable.sol\":2441:2449  newOwner */\n  dup2\n    /* \"https://github.com/OpenZeppelin/openzeppelin-contracts/blob/master/contracts/access/Ownable.sol\":2410:2450  OwnershipTransferred(oldOwner, newOwner) */\n  0xffffffffffffffffffffffffffffffffffffffff\n  and\n    /* \"https://github.com/OpenZeppelin/openzeppelin-contracts/blob/master/contracts/access/Ownable.sol\":2431:2439  oldOwner */\n  dup2\n    /* \"https://github.com/OpenZeppelin/openzeppelin-contracts/blob/master/contracts/access/Ownable.sol\":2410:2450  OwnershipTransferred(oldOwner, newOwner) */\n  0xffffffffffffffffffffffffffffffffffffffff\n  and\n  0x8be0079c531659141344cd1fd0a4f28419497f9722a3daafe3b4186f6b6457e0\n  mload(0x40)\n  mload(0x40)\n  dup1\n  swap2\n  sub\n  swap1\n  log3\n    /* \"https://github.com/OpenZeppelin/openzeppelin-contracts/blob/master/contracts/access/Ownable.sol\":2333:2457  {... */\n  pop\n    /* \"https://github.com/OpenZeppelin/openzeppelin-contracts/blob/master/contracts/access/Ownable.sol\":2270:2457  function _transferOwnership(address newOwner) internal virtual {... */\n  pop\n  jump\t// out\n    /* \"lotto.sol\":595:6000  contract ACELotto is Ownable {   \r... */\ntag_10:\n  dataSize(sub_0)\n  dup1\n  dataOffset(sub_0)\n  0x00\n  codecopy\n  0x00\n  return\nstop\n\nsub_0: assembly {\n        /* \"lotto.sol\":595:6000  contract ACELotto is Ownable {   \r... */\n      mstore(0x40, 0x80)\n      callvalue\n      dup1\n      iszero\n      tag_1\n      jumpi\n      0x00\n      dup1\n      revert\n    tag_1:\n      pop\n      jumpi(tag_2, lt(calldatasize, 0x04))\n      shr(0xe0, calldataload(0x00))\n      dup1\n      0x76636d20\n      gt\n      tag_27\n      jumpi\n      dup1\n      0xb657dd65\n      gt\n      tag_28\n      jumpi\n      dup1\n      0xb657dd65\n      eq\n      tag_21\n      jumpi\n      dup1\n      0xbc15cdf0\n      eq\n      tag_22\n      jumpi\n      dup1\n      0xc4740a95\n      eq\n      tag_23\n      jumpi\n      dup1\n      0xf2fde38b\n      eq\n      tag_24\n      jumpi\n      dup1\n      0xf737d21d\n      eq\n      tag_25\n      jumpi\n      dup1\n      0xf9cee0bd\n      eq\n      tag_26\n      jumpi\n      jump(tag_2)\n    tag_28:\n      dup1\n      0x76636d20\n      eq\n      tag_15\n      jumpi\n      dup1\n      0x8da5cb5b\n      eq\n      tag_16\n      jumpi\n      dup1\n      0x9b3e4552\n      eq\n      tag_17\n      jumpi\n      dup1\n      0x9f10a990\n      eq\n      tag_18\n      jumpi\n      dup1\n      0xa59460dc\n      eq\n      tag_19\n      jumpi\n      dup1\n      0xac128f4f\n      eq\n      tag_20\n      jumpi\n      jump(tag_2)\n    tag_27:\n      dup1\n      0x4626402b\n      gt\n      tag_29\n      jumpi\n      dup1\n      0x4626402b\n      eq\n      tag_9\n      jumpi\n      dup1\n      0x484f4ea9\n      eq\n      tag_10\n      jumpi\n      dup1\n      0x5bedc390\n      eq\n      tag_11\n      jumpi\n      dup1\n      0x647dce0f\n      eq\n      tag_12\n      jumpi\n      dup1\n      0x6fbb5a86\n      eq\n      tag_13\n      jumpi\n      dup1\n      0x715018a6\n      eq\n      tag_14\n      jumpi\n      jump(tag_2)\n    tag_29:\n      dup1\n      0x0d988270\n      eq\n      tag_3\n      jumpi\n      dup1\n      0x119b22b3\n      eq\n      tag_4\n      jumpi\n      dup1\n      0x158977de\n      eq\n      tag_5\n      jumpi\n      dup1\n      0x3b98bc65\n      eq\n      tag_6\n      jumpi\n      dup1\n      0x443b80a1\n      eq\n      tag_7\n      jumpi\n      dup1\n      0x454f7b8f\n      eq\n      tag_8\n      jumpi\n    tag_2:\n      0x00\n      dup1\n      revert\n        /* \"lotto.sol\":1264:1313  mapping(address => uint256[]) public entriesIndex */\n    tag_3:\n      tag_30\n      0x04\n      dup1\n      calldatasize\n      sub\n      dup2\n      add\n      swap1\n      tag_31\n      swap2\n      swap1\n      tag_32\n      jump\t// in\n    tag_31:\n      tag_33\n      jump\t// in\n    tag_30:\n      mload(0x40)\n      tag_34\n      swap2\n      swap1\n      tag_35\n      jump\t// in\n    tag_34:\n      mload(0x40)\n      dup1\n      swap2\n      sub\n      swap1\n      return\n        /* \"lotto.sol\":668:691  uint256 public roundNum */\n    tag_4:\n      tag_36\n      tag_37\n      jump\t// in\n    tag_36:\n      mload(0x40)\n      tag_38\n      swap2\n      swap1\n      tag_35\n      jump\t// in\n    tag_38:\n      mload(0x40)\n      dup1\n      swap2\n      sub\n      swap1\n      return\n        /* \"lotto.sol\":4681:4961  function getUniqueUsers() public view returns (uint256 counter) {\r... */\n    tag_5:\n      tag_39\n      tag_40\n      jump\t// in\n    tag_39:\n      mload(0x40)\n      tag_41\n      swap2\n      swap1\n      tag_35\n      jump\t// in\n    tag_41:\n      mload(0x40)\n      dup1\n      swap2\n      sub\n      swap1\n      return\n        /* \"lotto.sol\":4969:5572  function getUniqueAddresses() public view returns (address [] memory addresses, uint256 [] memory entries) {\r... */\n    tag_6:\n      tag_42\n      tag_43\n      jump\t// in\n    tag_42:\n      mload(0x40)\n      tag_44\n      swap3\n      swap2\n      swap1\n      tag_45\n      jump\t// in\n    tag_44:\n      mload(0x40)\n      dup1\n      swap2\n      sub\n      swap1\n      return\n        /* \"lotto.sol\":1539:1820  function updateAccount(address account, uint256 amount) public restricted{\r... */\n    tag_7:\n      tag_46\n      0x04\n      dup1\n      calldatasize\n      sub\n      dup2\n      add\n      swap1\n      tag_47\n      swap2\n      swap1\n      tag_32\n      jump\t// in\n    tag_47:\n      tag_48\n      jump\t// in\n    tag_46:\n      stop\n        /* \"lotto.sol\":698:724  uint256 public totalPayout */\n    tag_8:\n      tag_49\n      tag_50\n      jump\t// in\n    tag_49:\n      mload(0x40)\n      tag_51\n      swap2\n      swap1\n      tag_35\n      jump\t// in\n    tag_51:\n      mload(0x40)\n      dup1\n      swap2\n      sub\n      swap1\n      return\n        /* \"lotto.sol\":893:967  address public treasuryWallet = 0x0eD2Fd07B8BE10E2b8737e39AD33663DC711C31B */\n    tag_9:\n      tag_52\n      tag_53\n      jump\t// in\n    tag_52:\n      mload(0x40)\n      tag_54\n      swap2\n      swap1\n      tag_55\n      jump\t// in\n    tag_54:\n      mload(0x40)\n      dup1\n      swap2\n      sub\n      swap1\n      return\n        /* \"lotto.sol\":737:808  IERC20 public BUSD = IERC20(0xe9e7CEA3DedcA5984780Bafc599bD69ADd087D56) */\n    tag_10:\n      tag_56\n      tag_57\n      jump\t// in\n    tag_56:\n      mload(0x40)\n      tag_58\n      swap2\n      swap1\n      tag_59\n      jump\t// in\n    tag_58:\n      mload(0x40)\n      dup1\n      swap2\n      sub\n      swap1\n      return\n        /* \"lotto.sol\":2932:3101  function isActiveAccount(address account) external view returns(bool){\r... */\n    tag_11:\n      tag_60\n      0x04\n      dup1\n      calldatasize\n      sub\n      dup2\n      add\n      swap1\n      tag_61\n      swap2\n      swap1\n      tag_62\n      jump\t// in\n    tag_61:\n      tag_63\n      jump\t// in\n    tag_60:\n      mload(0x40)\n      tag_64\n      swap2\n      swap1\n      tag_65\n      jump\t// in\n    tag_64:\n      mload(0x40)\n      dup1\n      swap2\n      sub\n      swap1\n      return\n        /* \"lotto.sol\":1828:2139  function batchAdd(address [] memory accounts, uint256 [] memory amounts) external restricted{\r... */\n    tag_12:\n      tag_66\n      0x04\n      dup1\n      calldatasize\n      sub\n      dup2\n      add\n      swap1\n      tag_67\n      swap2\n      swap1\n      tag_68\n      jump\t// in\n    tag_67:\n      tag_69\n      jump\t// in\n    tag_66:\n      stop\n        /* \"lotto.sol\":3321:3825  function updateWinner(uint256 winnerNum, uint256 payout) external onlyOwner {      \r... */\n    tag_13:\n      tag_70\n      0x04\n      dup1\n      calldatasize\n      sub\n      dup2\n      add\n      swap1\n      tag_71\n      swap2\n      swap1\n      tag_72\n      jump\t// in\n    tag_71:\n      tag_73\n      jump\t// in\n    tag_70:\n      stop\n        /* \"https://github.com/OpenZeppelin/openzeppelin-contracts/blob/master/contracts/access/Ownable.sol\":1668:1769  function renounceOwnership() public virtual onlyOwner {... */\n    tag_14:\n      tag_74\n      tag_75\n      jump\t// in\n    tag_74:\n      stop\n        /* \"lotto.sol\":634:661  uint256 public roundEntries */\n    tag_15:\n      tag_76\n      tag_77\n      jump\t// in\n    tag_76:\n      mload(0x40)\n      tag_78\n      swap2\n      swap1\n      tag_35\n      jump\t// in\n    tag_78:\n      mload(0x40)\n      dup1\n      swap2\n      sub\n      swap1\n      return\n        /* \"https://github.com/OpenZeppelin/openzeppelin-contracts/blob/master/contracts/access/Ownable.sol\":1036:1121  function owner() public view virtual returns (address) {... */\n    tag_16:\n      tag_79\n      tag_80\n      jump\t// in\n    tag_79:\n      mload(0x40)\n      tag_81\n      swap2\n      swap1\n      tag_55\n      jump\t// in\n    tag_81:\n      mload(0x40)\n      dup1\n      swap2\n      sub\n      swap1\n      return\n        /* \"lotto.sol\":817:886  address public acesToken = 0x5B38Da6a701c568545dCfcB03FcB875f56beddC4 */\n    tag_17:\n      tag_82\n      tag_83\n      jump\t// in\n    tag_82:\n      mload(0x40)\n      tag_84\n      swap2\n      swap1\n      tag_55\n      jump\t// in\n    tag_84:\n      mload(0x40)\n      dup1\n      swap2\n      sub\n      swap1\n      return\n        /* \"lotto.sol\":3953:4075  function userEntries(address account) public view returns (uint256) {\r... */\n    tag_18:\n      tag_85\n      0x04\n      dup1\n      calldatasize\n      sub\n      dup2\n      add\n      swap1\n      tag_86\n      swap2\n      swap1\n      tag_62\n      jump\t// in\n    tag_86:\n      tag_87\n      jump\t// in\n    tag_85:\n      mload(0x40)\n      tag_88\n      swap2\n      swap1\n      tag_35\n      jump\t// in\n    tag_88:\n      mload(0x40)\n      dup1\n      swap2\n      sub\n      swap1\n      return\n        /* \"lotto.sol\":2147:2736  function removeEntryFromWallet(address account, uint256 amount) public restricted {\r... */\n    tag_19:\n      tag_89\n      0x04\n      dup1\n      calldatasize\n      sub\n      dup2\n      add\n      swap1\n      tag_90\n      swap2\n      swap1\n      tag_32\n      jump\t// in\n    tag_90:\n      tag_91\n      jump\t// in\n    tag_89:\n      stop\n        /* \"lotto.sol\":1158:1205  mapping(uint256 => Results) public roundResults */\n    tag_20:\n      tag_92\n      0x04\n      dup1\n      calldatasize\n      sub\n      dup2\n      add\n      swap1\n      tag_93\n      swap2\n      swap1\n      tag_94\n      jump\t// in\n    tag_93:\n      tag_95\n      jump\t// in\n    tag_92:\n      mload(0x40)\n      tag_96\n      swap6\n      swap5\n      swap4\n      swap3\n      swap2\n      swap1\n      tag_97\n      jump\t// in\n    tag_96:\n      mload(0x40)\n      dup1\n      swap2\n      sub\n      swap1\n      return\n        /* \"lotto.sol\":1212:1257  mapping(uint256 => address) public roundEntry */\n    tag_21:\n      tag_98\n      0x04\n      dup1\n      calldatasize\n      sub\n      dup2\n      add\n      swap1\n      tag_99\n      swap2\n      swap1\n      tag_94\n      jump\t// in\n    tag_99:\n      tag_100\n      jump\t// in\n    tag_98:\n      mload(0x40)\n      tag_101\n      swap2\n      swap1\n      tag_55\n      jump\t// in\n    tag_101:\n      mload(0x40)\n      dup1\n      swap2\n      sub\n      swap1\n      return\n        /* \"lotto.sol\":4083:4673  function resultLog(uint256 startIndex, uint256 endIndex) external view returns(Results [] memory log){\r... */\n    tag_22:\n      tag_102\n      0x04\n      dup1\n      calldatasize\n      sub\n      dup2\n      add\n      swap1\n      tag_103\n      swap2\n      swap1\n      tag_72\n      jump\t// in\n    tag_103:\n      tag_104\n      jump\t// in\n    tag_102:\n      mload(0x40)\n      tag_105\n      swap2\n      swap1\n      tag_106\n      jump\t// in\n    tag_105:\n      mload(0x40)\n      dup1\n      swap2\n      sub\n      swap1\n      return\n        /* \"lotto.sol\":2744:2924  function removeAccount(address account) external restricted{\r... */\n    tag_23:\n      tag_107\n      0x04\n      dup1\n      calldatasize\n      sub\n      dup2\n      add\n      swap1\n      tag_108\n      swap2\n      swap1\n      tag_62\n      jump\t// in\n    tag_108:\n      tag_109\n      jump\t// in\n    tag_107:\n      stop\n        /* \"https://github.com/OpenZeppelin/openzeppelin-contracts/blob/master/contracts/access/Ownable.sol\":1918:2116  function transferOwnership(address newOwner) public virtual onlyOwner {... */\n    tag_24:\n      tag_110\n      0x04\n      dup1\n      calldatasize\n      sub\n      dup2\n      add\n      swap1\n      tag_111\n      swap2\n      swap1\n      tag_62\n      jump\t// in\n    tag_111:\n      tag_112\n      jump\t// in\n    tag_110:\n      stop\n        /* \"lotto.sol\":3109:3313  function pickWinner(uint256 seed) external view returns(uint256 winnerNum, address winnerAddress) {\r... */\n    tag_25:\n      tag_113\n      0x04\n      dup1\n      calldatasize\n      sub\n      dup2\n      add\n      swap1\n      tag_114\n      swap2\n      swap1\n      tag_94\n      jump\t// in\n    tag_114:\n      tag_115\n      jump\t// in\n    tag_113:\n      mload(0x40)\n      tag_116\n      swap3\n      swap2\n      swap1\n      tag_117\n      jump\t// in\n    tag_116:\n      mload(0x40)\n      dup1\n      swap2\n      sub\n      swap1\n      return\n        /* \"lotto.sol\":3833:3945  function currentJackpot() public view returns (uint256) {\r... */\n    tag_26:\n      tag_118\n      tag_119\n      jump\t// in\n    tag_118:\n      mload(0x40)\n      tag_120\n      swap2\n      swap1\n      tag_35\n      jump\t// in\n    tag_120:\n      mload(0x40)\n      dup1\n      swap2\n      sub\n      swap1\n      return\n        /* \"lotto.sol\":1264:1313  mapping(address => uint256[]) public entriesIndex */\n    tag_33:\n      mstore(0x20, 0x09)\n      dup2\n      0x00\n      mstore\n      keccak256(0x00, 0x40)\n      dup2\n      dup2\n      sload\n      dup2\n      lt\n      tag_121\n      jumpi\n      0x00\n      dup1\n      revert\n    tag_121:\n      swap1\n      0x00\n      mstore\n      keccak256(0x00, 0x20)\n      add\n      0x00\n      swap2\n      pop\n      swap2\n      pop\n      pop\n      sload\n      dup2\n      jump\t// out\n        /* \"lotto.sol\":668:691  uint256 public roundNum */\n    tag_37:\n      sload(0x02)\n      dup2\n      jump\t// out\n        /* \"lotto.sol\":4681:4961  function getUniqueUsers() public view returns (uint256 counter) {\r... */\n    tag_40:\n        /* \"lotto.sol\":4728:4743  uint256 counter */\n      0x00\n        /* \"lotto.sol\":4778:4787  uint256 i */\n      dup1\n        /* \"lotto.sol\":4774:4954  for(uint256 i; i < roundEntries; i++){\r... */\n    tag_124:\n        /* \"lotto.sol\":4793:4805  roundEntries */\n      sload(0x01)\n        /* \"lotto.sol\":4789:4790  i */\n      dup2\n        /* \"lotto.sol\":4789:4805  i < roundEntries */\n      lt\n        /* \"lotto.sol\":4774:4954  for(uint256 i; i < roundEntries; i++){\r... */\n      iszero\n      tag_125\n      jumpi\n        /* \"lotto.sol\":4826:4838  address user */\n      0x00\n        /* \"lotto.sol\":4841:4851  roundEntry */\n      0x08\n        /* \"lotto.sol\":4841:4854  roundEntry[i] */\n      0x00\n        /* \"lotto.sol\":4852:4853  i */\n      dup4\n        /* \"lotto.sol\":4841:4854  roundEntry[i] */\n      dup2\n      mstore\n      0x20\n      add\n      swap1\n      dup2\n      mstore\n      0x20\n      add\n      0x00\n      keccak256\n      0x00\n      swap1\n      sload\n      swap1\n      0x0100\n      exp\n      swap1\n      div\n      0xffffffffffffffffffffffffffffffffffffffff\n      and\n        /* \"lotto.sol\":4826:4854  address user = roundEntry[i] */\n      swap1\n      pop\n        /* \"lotto.sol\":4877:4889  entriesIndex */\n      0x09\n        /* \"lotto.sol\":4877:4895  entriesIndex[user] */\n      0x00\n        /* \"lotto.sol\":4890:4894  user */\n      dup3\n        /* \"lotto.sol\":4877:4895  entriesIndex[user] */\n      0xffffffffffffffffffffffffffffffffffffffff\n      and\n      0xffffffffffffffffffffffffffffffffffffffff\n      and\n      dup2\n      mstore\n      0x20\n      add\n      swap1\n      dup2\n      mstore\n      0x20\n      add\n      0x00\n      keccak256\n        /* \"lotto.sol\":4896:4897  0 */\n      0x00\n        /* \"lotto.sol\":4877:4898  entriesIndex[user][0] */\n      dup2\n      sload\n      dup2\n      lt\n      tag_127\n      jumpi\n      tag_128\n      tag_129\n      jump\t// in\n    tag_128:\n    tag_127:\n      swap1\n      0x00\n      mstore\n      keccak256(0x00, 0x20)\n      add\n      sload\n        /* \"lotto.sol\":4872:4873  i */\n      dup3\n        /* \"lotto.sol\":4872:4898  i == entriesIndex[user][0] */\n      eq\n        /* \"lotto.sol\":4869:4943  if(i == entriesIndex[user][0]){\r... */\n      iszero\n      tag_131\n      jumpi\n        /* \"lotto.sol\":4918:4927  counter++ */\n      dup3\n      dup1\n      tag_132\n      swap1\n      tag_133\n      jump\t// in\n    tag_132:\n      swap4\n      pop\n      pop\n        /* \"lotto.sol\":4869:4943  if(i == entriesIndex[user][0]){\r... */\n    tag_131:\n        /* \"lotto.sol\":4811:4954  {\r... */\n      pop\n        /* \"lotto.sol\":4807:4810  i++ */\n      dup1\n      dup1\n      tag_134\n      swap1\n      tag_133\n      jump\t// in\n    tag_134:\n      swap2\n      pop\n      pop\n        /* \"lotto.sol\":4774:4954  for(uint256 i; i < roundEntries; i++){\r... */\n      jump(tag_124)\n    tag_125:\n      pop\n        /* \"lotto.sol\":4681:4961  function getUniqueUsers() public view returns (uint256 counter) {\r... */\n      swap1\n      jump\t// out\n        /* \"lotto.sol\":4969:5572  function getUniqueAddresses() public view returns (address [] memory addresses, uint256 [] memory entries) {\r... */\n    tag_43:\n        /* \"lotto.sol\":5020:5047  address [] memory addresses */\n      0x60\n        /* \"lotto.sol\":5049:5074  uint256 [] memory entries */\n      dup1\n        /* \"lotto.sol\":5087:5106  uint256 arrayLength */\n      0x00\n        /* \"lotto.sol\":5109:5125  getUniqueUsers() */\n      tag_136\n        /* \"lotto.sol\":5109:5123  getUniqueUsers */\n      tag_40\n        /* \"lotto.sol\":5109:5125  getUniqueUsers() */\n      jump\t// in\n    tag_136:\n        /* \"lotto.sol\":5087:5125  uint256 arrayLength = getUniqueUsers() */\n      swap1\n      pop\n        /* \"lotto.sol\":5162:5173  arrayLength */\n      dup1\n        /* \"lotto.sol\":5148:5174  new address[](arrayLength) */\n      0xffffffffffffffff\n      dup2\n      gt\n      iszero\n      tag_137\n      jumpi\n      tag_138\n      tag_139\n      jump\t// in\n    tag_138:\n    tag_137:\n      mload(0x40)\n      swap1\n      dup1\n      dup3\n      mstore\n      dup1\n      0x20\n      mul\n      0x20\n      add\n      dup3\n      add\n      0x40\n      mstore\n      dup1\n      iszero\n      tag_140\n      jumpi\n      dup2\n      0x20\n      add\n      0x20\n      dup3\n      mul\n      dup1\n      calldatasize\n      dup4\n      calldatacopy\n      dup1\n      dup3\n      add\n      swap2\n      pop\n      pop\n      swap1\n      pop\n    tag_140:\n      pop\n        /* \"lotto.sol\":5136:5174  addresses = new address[](arrayLength) */\n      swap3\n      pop\n        /* \"lotto.sol\":5209:5220  arrayLength */\n      dup1\n        /* \"lotto.sol\":5195:5221  new uint256[](arrayLength) */\n      0xffffffffffffffff\n      dup2\n      gt\n      iszero\n      tag_141\n      jumpi\n      tag_142\n      tag_139\n      jump\t// in\n    tag_142:\n    tag_141:\n      mload(0x40)\n      swap1\n      dup1\n      dup3\n      mstore\n      dup1\n      0x20\n      mul\n      0x20\n      add\n      dup3\n      add\n      0x40\n      mstore\n      dup1\n      iszero\n      tag_143\n      jumpi\n      dup2\n      0x20\n      add\n      0x20\n      dup3\n      mul\n      dup1\n      calldatasize\n      dup4\n      calldatacopy\n      dup1\n      dup3\n      add\n      swap2\n      pop\n      pop\n      swap1\n      pop\n    tag_143:\n      pop\n        /* \"lotto.sol\":5185:5221  entries = new uint256[](arrayLength) */\n      swap2\n      pop\n        /* \"lotto.sol\":5232:5252  uint256 currentIndex */\n      0x00\n        /* \"lotto.sol\":5267:5276  uint256 i */\n      dup1\n        /* \"lotto.sol\":5263:5565  for(uint256 i; i < roundEntries; i++){\r... */\n    tag_144:\n        /* \"lotto.sol\":5282:5294  roundEntries */\n      sload(0x01)\n        /* \"lotto.sol\":5278:5279  i */\n      dup2\n        /* \"lotto.sol\":5278:5294  i < roundEntries */\n      lt\n        /* \"lotto.sol\":5263:5565  for(uint256 i; i < roundEntries; i++){\r... */\n      iszero\n      tag_145\n      jumpi\n        /* \"lotto.sol\":5315:5327  address user */\n      0x00\n        /* \"lotto.sol\":5330:5340  roundEntry */\n      0x08\n        /* \"lotto.sol\":5330:5343  roundEntry[i] */\n      0x00\n        /* \"lotto.sol\":5341:5342  i */\n      dup4\n        /* \"lotto.sol\":5330:5343  roundEntry[i] */\n      dup2\n      mstore\n      0x20\n      add\n      swap1\n      dup2\n      mstore\n      0x20\n      add\n      0x00\n      keccak256\n      0x00\n      swap1\n      sload\n      swap1\n      0x0100\n      exp\n      swap1\n      div\n      0xffffffffffffffffffffffffffffffffffffffff\n      and\n        /* \"lotto.sol\":5315:5343  address user = roundEntry[i] */\n      swap1\n      pop\n        /* \"lotto.sol\":5366:5378  entriesIndex */\n      0x09\n        /* \"lotto.sol\":5366:5384  entriesIndex[user] */\n      0x00\n        /* \"lotto.sol\":5379:5383  user */\n      dup3\n        /* \"lotto.sol\":5366:5384  entriesIndex[user] */\n      0xffffffffffffffffffffffffffffffffffffffff\n      and\n      0xffffffffffffffffffffffffffffffffffffffff\n      and\n      dup2\n      mstore\n      0x20\n      add\n      swap1\n      dup2\n      mstore\n      0x20\n      add\n      0x00\n      keccak256\n        /* \"lotto.sol\":5385:5386  0 */\n      0x00\n        /* \"lotto.sol\":5366:5387  entriesIndex[user][0] */\n      dup2\n      sload\n      dup2\n      lt\n      tag_147\n      jumpi\n      tag_148\n      tag_129\n      jump\t// in\n    tag_148:\n    tag_147:\n      swap1\n      0x00\n      mstore\n      keccak256(0x00, 0x20)\n      add\n      sload\n        /* \"lotto.sol\":5361:5362  i */\n      dup3\n        /* \"lotto.sol\":5361:5387  i == entriesIndex[user][0] */\n      eq\n        /* \"lotto.sol\":5358:5554  if(i == entriesIndex[user][0]){\r... */\n      iszero\n      tag_150\n      jumpi\n        /* \"lotto.sol\":5433:5437  user */\n      dup1\n        /* \"lotto.sol\":5407:5416  addresses */\n      dup7\n        /* \"lotto.sol\":5417:5429  currentIndex */\n      dup5\n        /* \"lotto.sol\":5407:5430  addresses[currentIndex] */\n      dup2\n      mload\n      dup2\n      lt\n      tag_151\n      jumpi\n      tag_152\n      tag_129\n      jump\t// in\n    tag_152:\n    tag_151:\n      0x20\n      mul\n      0x20\n      add\n      add\n        /* \"lotto.sol\":5407:5437  addresses[currentIndex] = user */\n      swap1\n      0xffffffffffffffffffffffffffffffffffffffff\n      and\n      swap1\n      dup2\n      0xffffffffffffffffffffffffffffffffffffffff\n      and\n      dup2\n      mstore\n      pop\n      pop\n        /* \"lotto.sol\":5480:5492  entriesIndex */\n      0x09\n        /* \"lotto.sol\":5480:5498  entriesIndex[user] */\n      0x00\n        /* \"lotto.sol\":5493:5497  user */\n      dup3\n        /* \"lotto.sol\":5480:5498  entriesIndex[user] */\n      0xffffffffffffffffffffffffffffffffffffffff\n      and\n      0xffffffffffffffffffffffffffffffffffffffff\n      and\n      dup2\n      mstore\n      0x20\n      add\n      swap1\n      dup2\n      mstore\n      0x20\n      add\n      0x00\n      keccak256\n        /* \"lotto.sol\":5480:5505  entriesIndex[user].length */\n      dup1\n      sload\n      swap1\n      pop\n        /* \"lotto.sol\":5456:5463  entries */\n      dup6\n        /* \"lotto.sol\":5464:5476  currentIndex */\n      dup5\n        /* \"lotto.sol\":5456:5477  entries[currentIndex] */\n      dup2\n      mload\n      dup2\n      lt\n      tag_153\n      jumpi\n      tag_154\n      tag_129\n      jump\t// in\n    tag_154:\n    tag_153:\n      0x20\n      mul\n      0x20\n      add\n      add\n        /* \"lotto.sol\":5456:5505  entries[currentIndex] = entriesIndex[user].length */\n      dup2\n      dup2\n      mstore\n      pop\n      pop\n        /* \"lotto.sol\":5524:5538  currentIndex++ */\n      dup3\n      dup1\n      tag_155\n      swap1\n      tag_133\n      jump\t// in\n    tag_155:\n      swap4\n      pop\n      pop\n        /* \"lotto.sol\":5358:5554  if(i == entriesIndex[user][0]){\r... */\n    tag_150:\n        /* \"lotto.sol\":5300:5565  {\r... */\n      pop\n        /* \"lotto.sol\":5296:5299  i++ */\n      dup1\n      dup1\n      tag_156\n      swap1\n      tag_133\n      jump\t// in\n    tag_156:\n      swap2\n      pop\n      pop\n        /* \"lotto.sol\":5263:5565  for(uint256 i; i < roundEntries; i++){\r... */\n      jump(tag_144)\n    tag_145:\n      pop\n        /* \"lotto.sol\":5076:5572  {\r... */\n      pop\n      pop\n        /* \"lotto.sol\":4969:5572  function getUniqueAddresses() public view returns (address [] memory addresses, uint256 [] memory entries) {\r... */\n      swap1\n      swap2\n      jump\t// out\n        /* \"lotto.sol\":1539:1820  function updateAccount(address account, uint256 amount) public restricted{\r... */\n    tag_48:\n        /* \"lotto.sol\":1454:1466  _msgSender() */\n      tag_158\n        /* \"lotto.sol\":1454:1464  _msgSender */\n      tag_159\n        /* \"lotto.sol\":1454:1466  _msgSender() */\n      jump\t// in\n    tag_158:\n        /* \"lotto.sol\":1443:1466  owner() == _msgSender() */\n      0xffffffffffffffffffffffffffffffffffffffff\n      and\n        /* \"lotto.sol\":1443:1450  owner() */\n      tag_160\n        /* \"lotto.sol\":1443:1448  owner */\n      tag_80\n        /* \"lotto.sol\":1443:1450  owner() */\n      jump\t// in\n    tag_160:\n        /* \"lotto.sol\":1443:1466  owner() == _msgSender() */\n      0xffffffffffffffffffffffffffffffffffffffff\n      and\n      eq\n        /* \"lotto.sol\":1443:1495  owner() == _msgSender() || acesToken == _msgSender() */\n      dup1\n      tag_161\n      jumpi\n      pop\n        /* \"lotto.sol\":1483:1495  _msgSender() */\n      tag_162\n        /* \"lotto.sol\":1483:1493  _msgSender */\n      tag_159\n        /* \"lotto.sol\":1483:1495  _msgSender() */\n      jump\t// in\n    tag_162:\n        /* \"lotto.sol\":1470:1495  acesToken == _msgSender() */\n      0xffffffffffffffffffffffffffffffffffffffff\n      and\n        /* \"lotto.sol\":1470:1479  acesToken */\n      0x05\n      0x00\n      swap1\n      sload\n      swap1\n      0x0100\n      exp\n      swap1\n      div\n      0xffffffffffffffffffffffffffffffffffffffff\n      and\n        /* \"lotto.sol\":1470:1495  acesToken == _msgSender() */\n      0xffffffffffffffffffffffffffffffffffffffff\n      and\n      eq\n        /* \"lotto.sol\":1443:1495  owner() == _msgSender() || acesToken == _msgSender() */\n    tag_161:\n        /* \"lotto.sol\":1435:1511  require(owner() == _msgSender() || acesToken == _msgSender(), \"Not allowed\") */\n      tag_163\n      jumpi\n      mload(0x40)\n      0x08c379a000000000000000000000000000000000000000000000000000000000\n      dup2\n      mstore\n      0x04\n      add\n      tag_164\n      swap1\n      tag_165\n      jump\t// in\n    tag_164:\n      mload(0x40)\n      dup1\n      swap2\n      sub\n      swap1\n      revert\n    tag_163:\n        /* \"lotto.sol\":1627:1636  uint256 i */\n      0x00\n        /* \"lotto.sol\":1623:1778  for(uint256 i; i < amount; i++){\r... */\n    tag_167:\n        /* \"lotto.sol\":1642:1648  amount */\n      dup2\n        /* \"lotto.sol\":1638:1639  i */\n      dup2\n        /* \"lotto.sol\":1638:1648  i < amount */\n      lt\n        /* \"lotto.sol\":1623:1778  for(uint256 i; i < amount; i++){\r... */\n      iszero\n      tag_168\n      jumpi\n        /* \"lotto.sol\":1700:1707  account */\n      dup3\n        /* \"lotto.sol\":1669:1679  roundEntry */\n      0x08\n        /* \"lotto.sol\":1669:1697  roundEntry[roundEntries + i] */\n      0x00\n        /* \"lotto.sol\":1695:1696  i */\n      dup4\n        /* \"lotto.sol\":1680:1692  roundEntries */\n      sload(0x01)\n        /* \"lotto.sol\":1680:1696  roundEntries + i */\n      tag_170\n      swap2\n      swap1\n      tag_171\n      jump\t// in\n    tag_170:\n        /* \"lotto.sol\":1669:1697  roundEntry[roundEntries + i] */\n      dup2\n      mstore\n      0x20\n      add\n      swap1\n      dup2\n      mstore\n      0x20\n      add\n      0x00\n      keccak256\n      0x00\n        /* \"lotto.sol\":1669:1707  roundEntry[roundEntries + i] = account */\n      0x0100\n      exp\n      dup2\n      sload\n      dup2\n      0xffffffffffffffffffffffffffffffffffffffff\n      mul\n      not\n      and\n      swap1\n      dup4\n      0xffffffffffffffffffffffffffffffffffffffff\n      and\n      mul\n      or\n      swap1\n      sstore\n      pop\n        /* \"lotto.sol\":1722:1734  entriesIndex */\n      0x09\n        /* \"lotto.sol\":1722:1743  entriesIndex[account] */\n      0x00\n        /* \"lotto.sol\":1735:1742  account */\n      dup5\n        /* \"lotto.sol\":1722:1743  entriesIndex[account] */\n      0xffffffffffffffffffffffffffffffffffffffff\n      and\n      0xffffffffffffffffffffffffffffffffffffffff\n      and\n      dup2\n      mstore\n      0x20\n      add\n      swap1\n      dup2\n      mstore\n      0x20\n      add\n      0x00\n      keccak256\n        /* \"lotto.sol\":1764:1765  i */\n      dup2\n        /* \"lotto.sol\":1749:1761  roundEntries */\n      sload(0x01)\n        /* \"lotto.sol\":1749:1765  roundEntries + i */\n      tag_172\n      swap2\n      swap1\n      tag_171\n      jump\t// in\n    tag_172:\n        /* \"lotto.sol\":1722:1766  entriesIndex[account].push(roundEntries + i) */\n      swap1\n      dup1\n      0x01\n      dup2\n      sload\n      add\n      dup1\n      dup3\n      sstore\n      dup1\n      swap2\n      pop\n      pop\n      0x01\n      swap1\n      sub\n      swap1\n      0x00\n      mstore\n      keccak256(0x00, 0x20)\n      add\n      0x00\n      swap1\n      swap2\n      swap1\n      swap2\n      swap1\n      swap2\n      pop\n      sstore\n        /* \"lotto.sol\":1650:1653  i++ */\n      dup1\n      dup1\n      tag_174\n      swap1\n      tag_133\n      jump\t// in\n    tag_174:\n      swap2\n      pop\n      pop\n        /* \"lotto.sol\":1623:1778  for(uint256 i; i < amount; i++){\r... */\n      jump(tag_167)\n    tag_168:\n      pop\n        /* \"lotto.sol\":1806:1812  amount */\n      dup1\n        /* \"lotto.sol\":1790:1802  roundEntries */\n      0x01\n      0x00\n        /* \"lotto.sol\":1790:1812  roundEntries += amount */\n      dup3\n      dup3\n      sload\n      tag_175\n      swap2\n      swap1\n      tag_171\n      jump\t// in\n    tag_175:\n      swap3\n      pop\n      pop\n      dup2\n      swap1\n      sstore\n      pop\n        /* \"lotto.sol\":1539:1820  function updateAccount(address account, uint256 amount) public restricted{\r... */\n      pop\n      pop\n      jump\t// out\n        /* \"lotto.sol\":698:724  uint256 public totalPayout */\n    tag_50:\n      sload(0x03)\n      dup2\n      jump\t// out\n        /* \"lotto.sol\":893:967  address public treasuryWallet = 0x0eD2Fd07B8BE10E2b8737e39AD33663DC711C31B */\n    tag_53:\n      0x06\n      0x00\n      swap1\n      sload\n      swap1\n      0x0100\n      exp\n      swap1\n      div\n      0xffffffffffffffffffffffffffffffffffffffff\n      and\n      dup2\n      jump\t// out\n        /* \"lotto.sol\":737:808  IERC20 public BUSD = IERC20(0xe9e7CEA3DedcA5984780Bafc599bD69ADd087D56) */\n    tag_57:\n      0x04\n      0x00\n      swap1\n      sload\n      swap1\n      0x0100\n      exp\n      swap1\n      div\n      0xffffffffffffffffffffffffffffffffffffffff\n      and\n      dup2\n      jump\t// out\n        /* \"lotto.sol\":2932:3101  function isActiveAccount(address account) external view returns(bool){\r... */\n    tag_63:\n        /* \"lotto.sol\":2996:3000  bool */\n      0x00\n        /* \"lotto.sol\":3012:3034  uint256 currentEntries */\n      dup1\n        /* \"lotto.sol\":3037:3057  userEntries(account) */\n      tag_177\n        /* \"lotto.sol\":3049:3056  account */\n      dup4\n        /* \"lotto.sol\":3037:3048  userEntries */\n      tag_87\n        /* \"lotto.sol\":3037:3057  userEntries(account) */\n      jump\t// in\n    tag_177:\n        /* \"lotto.sol\":3012:3057  uint256 currentEntries = userEntries(account) */\n      swap1\n      pop\n        /* \"lotto.sol\":3092:3093  0 */\n      0x00\n        /* \"lotto.sol\":3075:3089  currentEntries */\n      dup2\n        /* \"lotto.sol\":3075:3093  currentEntries > 0 */\n      gt\n        /* \"lotto.sol\":3068:3093  return currentEntries > 0 */\n      swap2\n      pop\n      pop\n        /* \"lotto.sol\":2932:3101  function isActiveAccount(address account) external view returns(bool){\r... */\n      swap2\n      swap1\n      pop\n      jump\t// out\n        /* \"lotto.sol\":1828:2139  function batchAdd(address [] memory accounts, uint256 [] memory amounts) external restricted{\r... */\n    tag_69:\n        /* \"lotto.sol\":1454:1466  _msgSender() */\n      tag_179\n        /* \"lotto.sol\":1454:1464  _msgSender */\n      tag_159\n        /* \"lotto.sol\":1454:1466  _msgSender() */\n      jump\t// in\n    tag_179:\n        /* \"lotto.sol\":1443:1466  owner() == _msgSender() */\n      0xffffffffffffffffffffffffffffffffffffffff\n      and\n        /* \"lotto.sol\":1443:1450  owner() */\n      tag_180\n        /* \"lotto.sol\":1443:1448  owner */\n      tag_80\n        /* \"lotto.sol\":1443:1450  owner() */\n      jump\t// in\n    tag_180:\n        /* \"lotto.sol\":1443:1466  owner() == _msgSender() */\n      0xffffffffffffffffffffffffffffffffffffffff\n      and\n      eq\n        /* \"lotto.sol\":1443:1495  owner() == _msgSender() || acesToken == _msgSender() */\n      dup1\n      tag_181\n      jumpi\n      pop\n        /* \"lotto.sol\":1483:1495  _msgSender() */\n      tag_182\n        /* \"lotto.sol\":1483:1493  _msgSender */\n      tag_159\n        /* \"lotto.sol\":1483:1495  _msgSender() */\n      jump\t// in\n    tag_182:\n        /* \"lotto.sol\":1470:1495  acesToken == _msgSender() */\n      0xffffffffffffffffffffffffffffffffffffffff\n      and\n        /* \"lotto.sol\":1470:1479  acesToken */\n      0x05\n      0x00\n      swap1\n      sload\n      swap1\n      0x0100\n      exp\n      swap1\n      div\n      0xffffffffffffffffffffffffffffffffffffffff\n      and\n        /* \"lotto.sol\":1470:1495  acesToken == _msgSender() */\n      0xffffffffffffffffffffffffffffffffffffffff\n      and\n      eq\n        /* \"lotto.sol\":1443:1495  owner() == _msgSender() || acesToken == _msgSender() */\n    tag_181:\n        /* \"lotto.sol\":1435:1511  require(owner() == _msgSender() || acesToken == _msgSender(), \"Not allowed\") */\n      tag_183\n      jumpi\n      mload(0x40)\n      0x08c379a000000000000000000000000000000000000000000000000000000000\n      dup2\n      mstore\n      0x04\n      add\n      tag_184\n      swap1\n      tag_165\n      jump\t// in\n    tag_184:\n      mload(0x40)\n      dup1\n      swap2\n      sub\n      swap1\n      revert\n    tag_183:\n        /* \"lotto.sol\":1958:1965  amounts */\n      dup1\n        /* \"lotto.sol\":1958:1972  amounts.length */\n      mload\n        /* \"lotto.sol\":1939:1947  accounts */\n      dup3\n        /* \"lotto.sol\":1939:1954  accounts.length */\n      mload\n        /* \"lotto.sol\":1939:1972  accounts.length == amounts.length */\n      eq\n        /* \"lotto.sol\":1931:2006  require(accounts.length == amounts.length, \"Arrays don't have same lenght\") */\n      tag_186\n      jumpi\n      mload(0x40)\n      0x08c379a000000000000000000000000000000000000000000000000000000000\n      dup2\n      mstore\n      0x04\n      add\n      tag_187\n      swap1\n      tag_188\n      jump\t// in\n    tag_187:\n      mload(0x40)\n      dup1\n      swap2\n      sub\n      swap1\n      revert\n    tag_186:\n        /* \"lotto.sol\":2024:2033  uint256 i */\n      0x00\n        /* \"lotto.sol\":2019:2129  for (uint256 i = 0; i < accounts.length; i++) {\r... */\n    tag_189:\n        /* \"lotto.sol\":2043:2051  accounts */\n      dup3\n        /* \"lotto.sol\":2043:2058  accounts.length */\n      mload\n        /* \"lotto.sol\":2039:2040  i */\n      dup2\n        /* \"lotto.sol\":2039:2058  i < accounts.length */\n      lt\n        /* \"lotto.sol\":2019:2129  for (uint256 i = 0; i < accounts.length; i++) {\r... */\n      iszero\n      tag_190\n      jumpi\n        /* \"lotto.sol\":2080:2117  updateAccount(accounts[i],amounts[i]) */\n      tag_192\n        /* \"lotto.sol\":2094:2102  accounts */\n      dup4\n        /* \"lotto.sol\":2103:2104  i */\n      dup3\n        /* \"lotto.sol\":2094:2105  accounts[i] */\n      dup2\n      mload\n      dup2\n      lt\n      tag_193\n      jumpi\n      tag_194\n      tag_129\n      jump\t// in\n    tag_194:\n    tag_193:\n      0x20\n      mul\n      0x20\n      add\n      add\n      mload\n        /* \"lotto.sol\":2106:2113  amounts */\n      dup4\n        /* \"lotto.sol\":2114:2115  i */\n      dup4\n        /* \"lotto.sol\":2106:2116  amounts[i] */\n      dup2\n      mload\n      dup2\n      lt\n      tag_195\n      jumpi\n      tag_196\n      tag_129\n      jump\t// in\n    tag_196:\n    tag_195:\n      0x20\n      mul\n      0x20\n      add\n      add\n      mload\n        /* \"lotto.sol\":2080:2093  updateAccount */\n      tag_48\n        /* \"lotto.sol\":2080:2117  updateAccount(accounts[i],amounts[i]) */\n      jump\t// in\n    tag_192:\n        /* \"lotto.sol\":2060:2063  i++ */\n      dup1\n      dup1\n      tag_197\n      swap1\n      tag_133\n      jump\t// in\n    tag_197:\n      swap2\n      pop\n      pop\n        /* \"lotto.sol\":2019:2129  for (uint256 i = 0; i < accounts.length; i++) {\r... */\n      jump(tag_189)\n    tag_190:\n      pop\n        /* \"lotto.sol\":1828:2139  function batchAdd(address [] memory accounts, uint256 [] memory amounts) external restricted{\r... */\n      pop\n      pop\n      jump\t// out\n        /* \"lotto.sol\":3321:3825  function updateWinner(uint256 winnerNum, uint256 payout) external onlyOwner {      \r... */\n    tag_73:\n        /* \"https://github.com/OpenZeppelin/openzeppelin-contracts/blob/master/contracts/access/Ownable.sol\":1259:1271  _msgSender() */\n      tag_199\n        /* \"https://github.com/OpenZeppelin/openzeppelin-contracts/blob/master/contracts/access/Ownable.sol\":1259:1269  _msgSender */\n      tag_159\n        /* \"https://github.com/OpenZeppelin/openzeppelin-contracts/blob/master/contracts/access/Ownable.sol\":1259:1271  _msgSender() */\n      jump\t// in\n    tag_199:\n        /* \"https://github.com/OpenZeppelin/openzeppelin-contracts/blob/master/contracts/access/Ownable.sol\":1248:1271  owner() == _msgSender() */\n      0xffffffffffffffffffffffffffffffffffffffff\n      and\n        /* \"https://github.com/OpenZeppelin/openzeppelin-contracts/blob/master/contracts/access/Ownable.sol\":1248:1255  owner() */\n      tag_200\n        /* \"https://github.com/OpenZeppelin/openzeppelin-contracts/blob/master/contracts/access/Ownable.sol\":1248:1253  owner */\n      tag_80\n        /* \"https://github.com/OpenZeppelin/openzeppelin-contracts/blob/master/contracts/access/Ownable.sol\":1248:1255  owner() */\n      jump\t// in\n    tag_200:\n        /* \"https://github.com/OpenZeppelin/openzeppelin-contracts/blob/master/contracts/access/Ownable.sol\":1248:1271  owner() == _msgSender() */\n      0xffffffffffffffffffffffffffffffffffffffff\n      and\n      eq\n        /* \"https://github.com/OpenZeppelin/openzeppelin-contracts/blob/master/contracts/access/Ownable.sol\":1240:1308  require(owner() == _msgSender(), \"Ownable: caller is not the owner\") */\n      tag_201\n      jumpi\n      mload(0x40)\n      0x08c379a000000000000000000000000000000000000000000000000000000000\n      dup2\n      mstore\n      0x04\n      add\n      tag_202\n      swap1\n      tag_203\n      jump\t// in\n    tag_202:\n      mload(0x40)\n      dup1\n      swap2\n      sub\n      swap1\n      revert\n    tag_201:\n        /* \"lotto.sol\":3414:3435  address winnerAddress */\n      0x00\n        /* \"lotto.sol\":3438:3448  roundEntry */\n      0x08\n        /* \"lotto.sol\":3438:3459  roundEntry[winnerNum] */\n      0x00\n        /* \"lotto.sol\":3449:3458  winnerNum */\n      dup5\n        /* \"lotto.sol\":3438:3459  roundEntry[winnerNum] */\n      dup2\n      mstore\n      0x20\n      add\n      swap1\n      dup2\n      mstore\n      0x20\n      add\n      0x00\n      keccak256\n      0x00\n      swap1\n      sload\n      swap1\n      0x0100\n      exp\n      swap1\n      div\n      0xffffffffffffffffffffffffffffffffffffffff\n      and\n        /* \"lotto.sol\":3414:3459  address winnerAddress = roundEntry[winnerNum] */\n      swap1\n      pop\n        /* \"lotto.sol\":3497:3711  Results ({\r... */\n      mload(0x40)\n      dup1\n      0xa0\n      add\n      0x40\n      mstore\n      dup1\n        /* \"lotto.sol\":3535:3547  roundEntries */\n      sload(0x01)\n        /* \"lotto.sol\":3497:3711  Results ({\r... */\n      dup2\n      mstore\n      0x20\n      add\n        /* \"lotto.sol\":3577:3586  winnerNum */\n      dup5\n        /* \"lotto.sol\":3497:3711  Results ({\r... */\n      dup2\n      mstore\n      0x20\n      add\n        /* \"lotto.sol\":3609:3615  payout */\n      dup4\n        /* \"lotto.sol\":3497:3711  Results ({\r... */\n      dup2\n      mstore\n      0x20\n      add\n        /* \"lotto.sol\":3639:3654  block.timestamp */\n      timestamp\n        /* \"lotto.sol\":3497:3711  Results ({\r... */\n      dup2\n      mstore\n      0x20\n      add\n        /* \"lotto.sol\":3685:3698  winnerAddress */\n      dup3\n        /* \"lotto.sol\":3497:3711  Results ({\r... */\n      0xffffffffffffffffffffffffffffffffffffffff\n      and\n      dup2\n      mstore\n      pop\n        /* \"lotto.sol\":3472:3484  roundResults */\n      0x07\n        /* \"lotto.sol\":3472:3494  roundResults[roundNum] */\n      0x00\n        /* \"lotto.sol\":3485:3493  roundNum */\n      sload(0x02)\n        /* \"lotto.sol\":3472:3494  roundResults[roundNum] */\n      dup2\n      mstore\n      0x20\n      add\n      swap1\n      dup2\n      mstore\n      0x20\n      add\n      0x00\n      keccak256\n        /* \"lotto.sol\":3472:3711  roundResults[roundNum] = Results ({\r... */\n      0x00\n      dup3\n      add\n      mload\n      dup2\n      0x00\n      add\n      sstore\n      0x20\n      dup3\n      add\n      mload\n      dup2\n      0x01\n      add\n      sstore\n      0x40\n      dup3\n      add\n      mload\n      dup2\n      0x02\n      add\n      sstore\n      0x60\n      dup3\n      add\n      mload\n      dup2\n      0x03\n      add\n      sstore\n      0x80\n      dup3\n      add\n      mload\n      dup2\n      0x04\n      add\n      exp(0x0100, 0x00)\n      dup2\n      sload\n      dup2\n      0xffffffffffffffffffffffffffffffffffffffff\n      mul\n      not\n      and\n      swap1\n      dup4\n      0xffffffffffffffffffffffffffffffffffffffff\n      and\n      mul\n      or\n      swap1\n      sstore\n      pop\n      swap1\n      pop\n      pop\n        /* \"lotto.sol\":3739:3745  payout */\n      dup2\n        /* \"lotto.sol\":3724:3735  totalPayout */\n      0x03\n      0x00\n        /* \"lotto.sol\":3724:3745  totalPayout += payout */\n      dup3\n      dup3\n      sload\n      tag_205\n      swap2\n      swap1\n      tag_171\n      jump\t// in\n    tag_205:\n      swap3\n      pop\n      pop\n      dup2\n      swap1\n      sstore\n      pop\n        /* \"lotto.sol\":3756:3764  roundNum */\n      0x02\n      0x00\n        /* \"lotto.sol\":3756:3766  roundNum++ */\n      dup2\n      sload\n      dup1\n      swap3\n      swap2\n      swap1\n      tag_206\n      swap1\n      tag_133\n      jump\t// in\n    tag_206:\n      swap2\n      swap1\n      pop\n      sstore\n      pop\n        /* \"lotto.sol\":3784:3817  LotteryWon(winnerAddress, payout) */\n      0x2e798dd4337e515c79b64c40e1a93baa1aefbd9180ac7905e02508edd7971e50\n        /* \"lotto.sol\":3795:3808  winnerAddress */\n      dup2\n        /* \"lotto.sol\":3810:3816  payout */\n      dup4\n        /* \"lotto.sol\":3784:3817  LotteryWon(winnerAddress, payout) */\n      mload(0x40)\n      tag_207\n      swap3\n      swap2\n      swap1\n      tag_208\n      jump\t// in\n    tag_207:\n      mload(0x40)\n      dup1\n      swap2\n      sub\n      swap1\n      log1\n        /* \"lotto.sol\":3397:3825  {      \r... */\n      pop\n        /* \"lotto.sol\":3321:3825  function updateWinner(uint256 winnerNum, uint256 payout) external onlyOwner {      \r... */\n      pop\n      pop\n      jump\t// out\n        /* \"https://github.com/OpenZeppelin/openzeppelin-contracts/blob/master/contracts/access/Ownable.sol\":1668:1769  function renounceOwnership() public virtual onlyOwner {... */\n    tag_75:\n        /* \"https://github.com/OpenZeppelin/openzeppelin-contracts/blob/master/contracts/access/Ownable.sol\":1259:1271  _msgSender() */\n      tag_210\n        /* \"https://github.com/OpenZeppelin/openzeppelin-contracts/blob/master/contracts/access/Ownable.sol\":1259:1269  _msgSender */\n      tag_159\n        /* \"https://github.com/OpenZeppelin/openzeppelin-contracts/blob/master/contracts/access/Ownable.sol\":1259:1271  _msgSender() */\n      jump\t// in\n    tag_210:\n        /* \"https://github.com/OpenZeppelin/openzeppelin-contracts/blob/master/contracts/access/Ownable.sol\":1248:1271  owner() == _msgSender() */\n      0xffffffffffffffffffffffffffffffffffffffff\n      and\n        /* \"https://github.com/OpenZeppelin/openzeppelin-contracts/blob/master/contracts/access/Ownable.sol\":1248:1255  owner() */\n      tag_211\n        /* \"https://github.com/OpenZeppelin/openzeppelin-contracts/blob/master/contracts/access/Ownable.sol\":1248:1253  owner */\n      tag_80\n        /* \"https://github.com/OpenZeppelin/openzeppelin-contracts/blob/master/contracts/access/Ownable.sol\":1248:1255  owner() */\n      jump\t// in\n    tag_211:\n        /* \"https://github.com/OpenZeppelin/openzeppelin-contracts/blob/master/contracts/access/Ownable.sol\":1248:1271  owner() == _msgSender() */\n      0xffffffffffffffffffffffffffffffffffffffff\n      and\n      eq\n        /* \"https://github.com/OpenZeppelin/openzeppelin-contracts/blob/master/contracts/access/Ownable.sol\":1240:1308  require(owner() == _msgSender(), \"Ownable: caller is not the owner\") */\n      tag_212\n      jumpi\n      mload(0x40)\n      0x08c379a000000000000000000000000000000000000000000000000000000000\n      dup2\n      mstore\n      0x04\n      add\n      tag_213\n      swap1\n      tag_203\n      jump\t// in\n    tag_213:\n      mload(0x40)\n      dup1\n      swap2\n      sub\n      swap1\n      revert\n    tag_212:\n        /* \"https://github.com/OpenZeppelin/openzeppelin-contracts/blob/master/contracts/access/Ownable.sol\":1732:1762  _transferOwnership(address(0)) */\n      tag_215\n        /* \"https://github.com/OpenZeppelin/openzeppelin-contracts/blob/master/contracts/access/Ownable.sol\":1759:1760  0 */\n      0x00\n        /* \"https://github.com/OpenZeppelin/openzeppelin-contracts/blob/master/contracts/access/Ownable.sol\":1732:1750  _transferOwnership */\n      tag_216\n        /* \"https://github.com/OpenZeppelin/openzeppelin-contracts/blob/master/contracts/access/Ownable.sol\":1732:1762  _transferOwnership(address(0)) */\n      jump\t// in\n    tag_215:\n        /* \"https://github.com/OpenZeppelin/openzeppelin-contracts/blob/master/contracts/access/Ownable.sol\":1668:1769  function renounceOwnership() public virtual onlyOwner {... */\n      jump\t// out\n        /* \"lotto.sol\":634:661  uint256 public roundEntries */\n    tag_77:\n      sload(0x01)\n      dup2\n      jump\t// out\n        /* \"https://github.com/OpenZeppelin/openzeppelin-contracts/blob/master/contracts/access/Ownable.sol\":1036:1121  function owner() public view virtual returns (address) {... */\n    tag_80:\n        /* \"https://github.com/OpenZeppelin/openzeppelin-contracts/blob/master/contracts/access/Ownable.sol\":1082:1089  address */\n      0x00\n        /* \"https://github.com/OpenZeppelin/openzeppelin-contracts/blob/master/contracts/access/Ownable.sol\":1108:1114  _owner */\n      dup1\n      0x00\n      swap1\n      sload\n      swap1\n      0x0100\n      exp\n      swap1\n      div\n      0xffffffffffffffffffffffffffffffffffffffff\n      and\n        /* \"https://github.com/OpenZeppelin/openzeppelin-contracts/blob/master/contracts/access/Ownable.sol\":1101:1114  return _owner */\n      swap1\n      pop\n        /* \"https://github.com/OpenZeppelin/openzeppelin-contracts/blob/master/contracts/access/Ownable.sol\":1036:1121  function owner() public view virtual returns (address) {... */\n      swap1\n      jump\t// out\n        /* \"lotto.sol\":817:886  address public acesToken = 0x5B38Da6a701c568545dCfcB03FcB875f56beddC4 */\n    tag_83:\n      0x05\n      0x00\n      swap1\n      sload\n      swap1\n      0x0100\n      exp\n      swap1\n      div\n      0xffffffffffffffffffffffffffffffffffffffff\n      and\n      dup2\n      jump\t// out\n        /* \"lotto.sol\":3953:4075  function userEntries(address account) public view returns (uint256) {\r... */\n    tag_87:\n        /* \"lotto.sol\":4012:4019  uint256 */\n      0x00\n        /* \"lotto.sol\":4039:4051  entriesIndex */\n      0x09\n        /* \"lotto.sol\":4039:4060  entriesIndex[account] */\n      0x00\n        /* \"lotto.sol\":4052:4059  account */\n      dup4\n        /* \"lotto.sol\":4039:4060  entriesIndex[account] */\n      0xffffffffffffffffffffffffffffffffffffffff\n      and\n      0xffffffffffffffffffffffffffffffffffffffff\n      and\n      dup2\n      mstore\n      0x20\n      add\n      swap1\n      dup2\n      mstore\n      0x20\n      add\n      0x00\n      keccak256\n        /* \"lotto.sol\":4039:4067  entriesIndex[account].length */\n      dup1\n      sload\n      swap1\n      pop\n        /* \"lotto.sol\":4032:4067  return entriesIndex[account].length */\n      swap1\n      pop\n        /* \"lotto.sol\":3953:4075  function userEntries(address account) public view returns (uint256) {\r... */\n      swap2\n      swap1\n      pop\n      jump\t// out\n        /* \"lotto.sol\":2147:2736  function removeEntryFromWallet(address account, uint256 amount) public restricted {\r... */\n    tag_91:\n        /* \"lotto.sol\":1454:1466  _msgSender() */\n      tag_220\n        /* \"lotto.sol\":1454:1464  _msgSender */\n      tag_159\n        /* \"lotto.sol\":1454:1466  _msgSender() */\n      jump\t// in\n    tag_220:\n        /* \"lotto.sol\":1443:1466  owner() == _msgSender() */\n      0xffffffffffffffffffffffffffffffffffffffff\n      and\n        /* \"lotto.sol\":1443:1450  owner() */\n      tag_221\n        /* \"lotto.sol\":1443:1448  owner */\n      tag_80\n        /* \"lotto.sol\":1443:1450  owner() */\n      jump\t// in\n    tag_221:\n        /* \"lotto.sol\":1443:1466  owner() == _msgSender() */\n      0xffffffffffffffffffffffffffffffffffffffff\n      and\n      eq\n        /* \"lotto.sol\":1443:1495  owner() == _msgSender() || acesToken == _msgSender() */\n      dup1\n      tag_222\n      jumpi\n      pop\n        /* \"lotto.sol\":1483:1495  _msgSender() */\n      tag_223\n        /* \"lotto.sol\":1483:1493  _msgSender */\n      tag_159\n        /* \"lotto.sol\":1483:1495  _msgSender() */\n      jump\t// in\n    tag_223:\n        /* \"lotto.sol\":1470:1495  acesToken == _msgSender() */\n      0xffffffffffffffffffffffffffffffffffffffff\n      and\n        /* \"lotto.sol\":1470:1479  acesToken */\n      0x05\n      0x00\n      swap1\n      sload\n      swap1\n      0x0100\n      exp\n      swap1\n      div\n      0xffffffffffffffffffffffffffffffffffffffff\n      and\n        /* \"lotto.sol\":1470:1495  acesToken == _msgSender() */\n      0xffffffffffffffffffffffffffffffffffffffff\n      and\n      eq\n        /* \"lotto.sol\":1443:1495  owner() == _msgSender() || acesToken == _msgSender() */\n    tag_222:\n        /* \"lotto.sol\":1435:1511  require(owner() == _msgSender() || acesToken == _msgSender(), \"Not allowed\") */\n      tag_224\n      jumpi\n      mload(0x40)\n      0x08c379a000000000000000000000000000000000000000000000000000000000\n      dup2\n      mstore\n      0x04\n      add\n      tag_225\n      swap1\n      tag_165\n      jump\t// in\n    tag_225:\n      mload(0x40)\n      dup1\n      swap2\n      sub\n      swap1\n      revert\n    tag_224:\n        /* \"lotto.sol\":2240:2262  uint256 currentEntries */\n      0x00\n        /* \"lotto.sol\":2265:2285  userEntries(account) */\n      tag_227\n        /* \"lotto.sol\":2277:2284  account */\n      dup4\n        /* \"lotto.sol\":2265:2276  userEntries */\n      tag_87\n        /* \"lotto.sol\":2265:2285  userEntries(account) */\n      jump\t// in\n    tag_227:\n        /* \"lotto.sol\":2240:2285  uint256 currentEntries = userEntries(account) */\n      swap1\n      pop\n        /* \"lotto.sol\":2317:2318  0 */\n      0x00\n        /* \"lotto.sol\":2299:2313  currentEntries */\n      dup2\n        /* \"lotto.sol\":2299:2318  currentEntries == 0 */\n      eq\n        /* \"lotto.sol\":2296:2435  if(currentEntries == 0){\r... */\n      iszero\n      tag_228\n      jumpi\n        /* \"lotto.sol\":2334:2341  return; */\n      pop\n      jump(tag_226)\n        /* \"lotto.sol\":2296:2435  if(currentEntries == 0){\r... */\n    tag_228:\n        /* \"lotto.sol\":2370:2384  currentEntries */\n      dup1\n        /* \"lotto.sol\":2361:2367  amount */\n      dup3\n        /* \"lotto.sol\":2361:2384  amount > currentEntries */\n      gt\n        /* \"lotto.sol\":2358:2435  if(amount > currentEntries){\r... */\n      iszero\n      tag_230\n      jumpi\n        /* \"lotto.sol\":2409:2423  currentEntries */\n      dup1\n        /* \"lotto.sol\":2400:2423  amount = currentEntries */\n      swap2\n      pop\n        /* \"lotto.sol\":2358:2435  if(amount > currentEntries){\r... */\n    tag_230:\n        /* \"lotto.sol\":2451:2460  uint256 i */\n      0x00\n        /* \"lotto.sol\":2463:2464  1 */\n      0x01\n        /* \"lotto.sol\":2451:2464  uint256 i = 1 */\n      swap1\n      pop\n        /* \"lotto.sol\":2447:2694  for(uint256 i = 1; i <= amount; i++){\r... */\n    tag_231:\n        /* \"lotto.sol\":2471:2477  amount */\n      dup3\n        /* \"lotto.sol\":2466:2467  i */\n      dup2\n        /* \"lotto.sol\":2466:2477  i <= amount */\n      gt\n        /* \"lotto.sol\":2447:2694  for(uint256 i = 1; i <= amount; i++){\r... */\n      tag_232\n      jumpi\n        /* \"lotto.sol\":2498:2515  uint256 lastIndex */\n      0x00\n        /* \"lotto.sol\":2518:2530  entriesIndex */\n      0x09\n        /* \"lotto.sol\":2518:2539  entriesIndex[account] */\n      0x00\n        /* \"lotto.sol\":2531:2538  account */\n      dup7\n        /* \"lotto.sol\":2518:2539  entriesIndex[account] */\n      0xffffffffffffffffffffffffffffffffffffffff\n      and\n      0xffffffffffffffffffffffffffffffffffffffff\n      and\n      dup2\n      mstore\n      0x20\n      add\n      swap1\n      dup2\n      mstore\n      0x20\n      add\n      0x00\n      keccak256\n        /* \"lotto.sol\":2571:2572  1 */\n      0x01\n        /* \"lotto.sol\":2540:2552  entriesIndex */\n      0x09\n        /* \"lotto.sol\":2540:2561  entriesIndex[account] */\n      0x00\n        /* \"lotto.sol\":2553:2560  account */\n      dup9\n        /* \"lotto.sol\":2540:2561  entriesIndex[account] */\n      0xffffffffffffffffffffffffffffffffffffffff\n      and\n      0xffffffffffffffffffffffffffffffffffffffff\n      and\n      dup2\n      mstore\n      0x20\n      add\n      swap1\n      dup2\n      mstore\n      0x20\n      add\n      0x00\n      keccak256\n        /* \"lotto.sol\":2540:2568  entriesIndex[account].length */\n      dup1\n      sload\n      swap1\n      pop\n        /* \"lotto.sol\":2540:2572  entriesIndex[account].length - 1 */\n      tag_234\n      swap2\n      swap1\n      tag_235\n      jump\t// in\n    tag_234:\n        /* \"lotto.sol\":2518:2573  entriesIndex[account][entriesIndex[account].length - 1] */\n      dup2\n      sload\n      dup2\n      lt\n      tag_236\n      jumpi\n      tag_237\n      tag_129\n      jump\t// in\n    tag_237:\n    tag_236:\n      swap1\n      0x00\n      mstore\n      keccak256(0x00, 0x20)\n      add\n      sload\n        /* \"lotto.sol\":2498:2573  uint256 lastIndex = entriesIndex[account][entriesIndex[account].length - 1] */\n      swap1\n      pop\n        /* \"lotto.sol\":2612:2622  roundEntry */\n      0x08\n        /* \"lotto.sol\":2612:2640  roundEntry[roundEntries - i] */\n      0x00\n        /* \"lotto.sol\":2638:2639  i */\n      dup4\n        /* \"lotto.sol\":2623:2635  roundEntries */\n      sload(0x01)\n        /* \"lotto.sol\":2623:2639  roundEntries - i */\n      tag_239\n      swap2\n      swap1\n      tag_235\n      jump\t// in\n    tag_239:\n        /* \"lotto.sol\":2612:2640  roundEntry[roundEntries - i] */\n      dup2\n      mstore\n      0x20\n      add\n      swap1\n      dup2\n      mstore\n      0x20\n      add\n      0x00\n      keccak256\n      0x00\n      swap1\n      sload\n      swap1\n      0x0100\n      exp\n      swap1\n      div\n      0xffffffffffffffffffffffffffffffffffffffff\n      and\n        /* \"lotto.sol\":2588:2598  roundEntry */\n      0x08\n        /* \"lotto.sol\":2588:2609  roundEntry[lastIndex] */\n      0x00\n        /* \"lotto.sol\":2599:2608  lastIndex */\n      dup4\n        /* \"lotto.sol\":2588:2609  roundEntry[lastIndex] */\n      dup2\n      mstore\n      0x20\n      add\n      swap1\n      dup2\n      mstore\n      0x20\n      add\n      0x00\n      keccak256\n      0x00\n        /* \"lotto.sol\":2588:2640  roundEntry[lastIndex] = roundEntry[roundEntries - i] */\n      0x0100\n      exp\n      dup2\n      sload\n      dup2\n      0xffffffffffffffffffffffffffffffffffffffff\n      mul\n      not\n      and\n      swap1\n      dup4\n      0xffffffffffffffffffffffffffffffffffffffff\n      and\n      mul\n      or\n      swap1\n      sstore\n      pop\n        /* \"lotto.sol\":2655:2667  entriesIndex */\n      0x09\n        /* \"lotto.sol\":2655:2676  entriesIndex[account] */\n      0x00\n        /* \"lotto.sol\":2668:2675  account */\n      dup7\n        /* \"lotto.sol\":2655:2676  entriesIndex[account] */\n      0xffffffffffffffffffffffffffffffffffffffff\n      and\n      0xffffffffffffffffffffffffffffffffffffffff\n      and\n      dup2\n      mstore\n      0x20\n      add\n      swap1\n      dup2\n      mstore\n      0x20\n      add\n      0x00\n      keccak256\n        /* \"lotto.sol\":2655:2682  entriesIndex[account].pop() */\n      dup1\n      sload\n      dup1\n      tag_240\n      jumpi\n      tag_241\n      tag_242\n      jump\t// in\n    tag_241:\n    tag_240:\n      0x01\n      swap1\n      sub\n      dup2\n      dup2\n      swap1\n      0x00\n      mstore\n      keccak256(0x00, 0x20)\n      add\n      0x00\n      swap1\n      sstore\n      swap1\n      sstore\n        /* \"lotto.sol\":2483:2694  {\r... */\n      pop\n        /* \"lotto.sol\":2479:2482  i++ */\n      dup1\n      dup1\n      tag_244\n      swap1\n      tag_133\n      jump\t// in\n    tag_244:\n      swap2\n      pop\n      pop\n        /* \"lotto.sol\":2447:2694  for(uint256 i = 1; i <= amount; i++){\r... */\n      jump(tag_231)\n    tag_232:\n      pop\n        /* \"lotto.sol\":2722:2728  amount */\n      dup2\n        /* \"lotto.sol\":2706:2718  roundEntries */\n      0x01\n      0x00\n        /* \"lotto.sol\":2706:2728  roundEntries -= amount */\n      dup3\n      dup3\n      sload\n      tag_245\n      swap2\n      swap1\n      tag_235\n      jump\t// in\n    tag_245:\n      swap3\n      pop\n      pop\n      dup2\n      swap1\n      sstore\n      pop\n        /* \"lotto.sol\":2229:2736  {\r... */\n      pop\n        /* \"lotto.sol\":1522:1523  _ */\n    tag_226:\n        /* \"lotto.sol\":2147:2736  function removeEntryFromWallet(address account, uint256 amount) public restricted {\r... */\n      pop\n      pop\n      jump\t// out\n        /* \"lotto.sol\":1158:1205  mapping(uint256 => Results) public roundResults */\n    tag_95:\n      mstore(0x20, 0x07)\n      dup1\n      0x00\n      mstore\n      keccak256(0x00, 0x40)\n      0x00\n      swap2\n      pop\n      swap1\n      pop\n      dup1\n      0x00\n      add\n      sload\n      swap1\n      dup1\n      0x01\n      add\n      sload\n      swap1\n      dup1\n      0x02\n      add\n      sload\n      swap1\n      dup1\n      0x03\n      add\n      sload\n      swap1\n      dup1\n      0x04\n      add\n      0x00\n      swap1\n      sload\n      swap1\n      0x0100\n      exp\n      swap1\n      div\n      0xffffffffffffffffffffffffffffffffffffffff\n      and\n      swap1\n      pop\n      dup6\n      jump\t// out\n        /* \"lotto.sol\":1212:1257  mapping(uint256 => address) public roundEntry */\n    tag_100:\n      mstore(0x20, 0x08)\n      dup1\n      0x00\n      mstore\n      keccak256(0x00, 0x40)\n      0x00\n      swap2\n      pop\n      sload\n      swap1\n      0x0100\n      exp\n      swap1\n      div\n      0xffffffffffffffffffffffffffffffffffffffff\n      and\n      dup2\n      jump\t// out\n        /* \"lotto.sol\":4083:4673  function resultLog(uint256 startIndex, uint256 endIndex) external view returns(Results [] memory log){\r... */\n    tag_104:\n        /* \"lotto.sol\":4162:4183  Results [] memory log */\n      0x60\n        /* \"lotto.sol\":4210:4211  0 */\n      0x00\n        /* \"lotto.sol\":4198:4206  roundNum */\n      sload(0x02)\n        /* \"lotto.sol\":4198:4211  roundNum == 0 */\n      eq\n        /* \"lotto.sol\":4195:4268  if(roundNum == 0){\r... */\n      iszero\n      tag_247\n      jumpi\n        /* \"lotto.sol\":4254:4255  0 */\n      0x00\n        /* \"lotto.sol\":4240:4256  new Results[](0) */\n      0xffffffffffffffff\n      dup2\n      gt\n      iszero\n      tag_248\n      jumpi\n      tag_249\n      tag_139\n      jump\t// in\n    tag_249:\n    tag_248:\n      mload(0x40)\n      swap1\n      dup1\n      dup3\n      mstore\n      dup1\n      0x20\n      mul\n      0x20\n      add\n      dup3\n      add\n      0x40\n      mstore\n      dup1\n      iszero\n      tag_250\n      jumpi\n      dup2\n      0x20\n      add\n    tag_251:\n      tag_252\n      tag_253\n      jump\t// in\n    tag_252:\n      dup2\n      mstore\n      0x20\n      add\n      swap1\n      0x01\n      swap1\n      sub\n      swap1\n      dup2\n      tag_251\n      jumpi\n      swap1\n      pop\n    tag_250:\n      pop\n        /* \"lotto.sol\":4234:4256  log = new Results[](0) */\n      swap1\n      pop\n        /* \"lotto.sol\":4227:4256  return log = new Results[](0) */\n      jump(tag_246)\n        /* \"lotto.sol\":4195:4268  if(roundNum == 0){\r... */\n    tag_247:\n        /* \"lotto.sol\":4304:4312  roundNum */\n      sload(0x02)\n        /* \"lotto.sol\":4292:4300  endIndex */\n      dup3\n        /* \"lotto.sol\":4292:4312  endIndex >= roundNum */\n      lt\n        /* \"lotto.sol\":4288:4364  if (endIndex >= roundNum) {\r... */\n      tag_254\n      jumpi\n        /* \"lotto.sol\":4351:4352  1 */\n      0x01\n        /* \"lotto.sol\":4340:4348  roundNum */\n      sload(0x02)\n        /* \"lotto.sol\":4340:4352  roundNum - 1 */\n      tag_255\n      swap2\n      swap1\n      tag_235\n      jump\t// in\n    tag_255:\n        /* \"lotto.sol\":4329:4352  endIndex = roundNum - 1 */\n      swap2\n      pop\n        /* \"lotto.sol\":4288:4364  if (endIndex >= roundNum) {\r... */\n    tag_254:\n        /* \"lotto.sol\":4376:4395  uint256 arrayLength */\n      0x00\n        /* \"lotto.sol\":4422:4423  1 */\n      0x01\n        /* \"lotto.sol\":4409:4419  startIndex */\n      dup5\n        /* \"lotto.sol\":4398:4406  endIndex */\n      dup5\n        /* \"lotto.sol\":4398:4419  endIndex - startIndex */\n      tag_256\n      swap2\n      swap1\n      tag_235\n      jump\t// in\n    tag_256:\n        /* \"lotto.sol\":4398:4423  endIndex - startIndex + 1 */\n      tag_257\n      swap2\n      swap1\n      tag_171\n      jump\t// in\n    tag_257:\n        /* \"lotto.sol\":4376:4423  uint256 arrayLength = endIndex - startIndex + 1 */\n      swap1\n      pop\n        /* \"lotto.sol\":4434:4454  uint256 currentIndex */\n      0x00\n        /* \"lotto.sol\":4485:4496  arrayLength */\n      dup2\n        /* \"lotto.sol\":4471:4497  new Results[](arrayLength) */\n      0xffffffffffffffff\n      dup2\n      gt\n      iszero\n      tag_258\n      jumpi\n      tag_259\n      tag_139\n      jump\t// in\n    tag_259:\n    tag_258:\n      mload(0x40)\n      swap1\n      dup1\n      dup3\n      mstore\n      dup1\n      0x20\n      mul\n      0x20\n      add\n      dup3\n      add\n      0x40\n      mstore\n      dup1\n      iszero\n      tag_260\n      jumpi\n      dup2\n      0x20\n      add\n    tag_261:\n      tag_262\n      tag_253\n      jump\t// in\n    tag_262:\n      dup2\n      mstore\n      0x20\n      add\n      swap1\n      0x01\n      swap1\n      sub\n      swap1\n      dup2\n      tag_261\n      jumpi\n      swap1\n      pop\n    tag_260:\n      pop\n        /* \"lotto.sol\":4465:4497  log = new Results[](arrayLength) */\n      swap3\n      pop\n        /* \"lotto.sol\":4518:4527  uint256 i */\n      0x00\n        /* \"lotto.sol\":4530:4540  startIndex */\n      dup6\n        /* \"lotto.sol\":4518:4540  uint256 i = startIndex */\n      swap1\n      pop\n        /* \"lotto.sol\":4513:4666  for (uint256 i = startIndex; i <= endIndex; i++) {\r... */\n    tag_263:\n        /* \"lotto.sol\":4547:4555  endIndex */\n      dup5\n        /* \"lotto.sol\":4542:4543  i */\n      dup2\n        /* \"lotto.sol\":4542:4555  i <= endIndex */\n      gt\n        /* \"lotto.sol\":4513:4666  for (uint256 i = startIndex; i <= endIndex; i++) {\r... */\n      tag_264\n      jumpi\n        /* \"lotto.sol\":4597:4609  roundResults */\n      0x07\n        /* \"lotto.sol\":4597:4625  roundResults[startIndex + i] */\n      0x00\n        /* \"lotto.sol\":4623:4624  i */\n      dup3\n        /* \"lotto.sol\":4610:4620  startIndex */\n      dup9\n        /* \"lotto.sol\":4610:4624  startIndex + i */\n      tag_266\n      swap2\n      swap1\n      tag_171\n      jump\t// in\n    tag_266:\n        /* \"lotto.sol\":4597:4625  roundResults[startIndex + i] */\n      dup2\n      mstore\n      0x20\n      add\n      swap1\n      dup2\n      mstore\n      0x20\n      add\n      0x00\n      keccak256\n        /* \"lotto.sol\":4577:4625  log[currentIndex] = roundResults[startIndex + i] */\n      mload(0x40)\n      dup1\n      0xa0\n      add\n      0x40\n      mstore\n      swap1\n      dup2\n      0x00\n      dup3\n      add\n      sload\n      dup2\n      mstore\n      0x20\n      add\n      0x01\n      dup3\n      add\n      sload\n      dup2\n      mstore\n      0x20\n      add\n      0x02\n      dup3\n      add\n      sload\n      dup2\n      mstore\n      0x20\n      add\n      0x03\n      dup3\n      add\n      sload\n      dup2\n      mstore\n      0x20\n      add\n      0x04\n      dup3\n      add\n      0x00\n      swap1\n      sload\n      swap1\n      0x0100\n      exp\n      swap1\n      div\n      0xffffffffffffffffffffffffffffffffffffffff\n      and\n      0xffffffffffffffffffffffffffffffffffffffff\n      and\n      0xffffffffffffffffffffffffffffffffffffffff\n      and\n      dup2\n      mstore\n      pop\n      pop\n        /* \"lotto.sol\":4577:4580  log */\n      dup5\n        /* \"lotto.sol\":4581:4593  currentIndex */\n      dup4\n        /* \"lotto.sol\":4577:4594  log[currentIndex] */\n      dup2\n      mload\n      dup2\n      lt\n      tag_267\n      jumpi\n      tag_268\n      tag_129\n      jump\t// in\n    tag_268:\n    tag_267:\n      0x20\n      mul\n      0x20\n      add\n      add\n        /* \"lotto.sol\":4577:4625  log[currentIndex] = roundResults[startIndex + i] */\n      dup2\n      swap1\n      mstore\n      pop\n        /* \"lotto.sol\":4640:4654  currentIndex++ */\n      dup2\n      dup1\n      tag_269\n      swap1\n      tag_133\n      jump\t// in\n    tag_269:\n      swap3\n      pop\n      pop\n        /* \"lotto.sol\":4557:4560  i++ */\n      dup1\n      dup1\n      tag_270\n      swap1\n      tag_133\n      jump\t// in\n    tag_270:\n      swap2\n      pop\n      pop\n        /* \"lotto.sol\":4513:4666  for (uint256 i = startIndex; i <= endIndex; i++) {\r... */\n      jump(tag_263)\n    tag_264:\n      pop\n        /* \"lotto.sol\":4184:4673  {\r... */\n      pop\n      pop\n        /* \"lotto.sol\":4083:4673  function resultLog(uint256 startIndex, uint256 endIndex) external view returns(Results [] memory log){\r... */\n    tag_246:\n      swap3\n      swap2\n      pop\n      pop\n      jump\t// out\n        /* \"lotto.sol\":2744:2924  function removeAccount(address account) external restricted{\r... */\n    tag_109:\n        /* \"lotto.sol\":1454:1466  _msgSender() */\n      tag_272\n        /* \"lotto.sol\":1454:1464  _msgSender */\n      tag_159\n        /* \"lotto.sol\":1454:1466  _msgSender() */\n      jump\t// in\n    tag_272:\n        /* \"lotto.sol\":1443:1466  owner() == _msgSender() */\n      0xffffffffffffffffffffffffffffffffffffffff\n      and\n        /* \"lotto.sol\":1443:1450  owner() */\n      tag_273\n        /* \"lotto.sol\":1443:1448  owner */\n      tag_80\n        /* \"lotto.sol\":1443:1450  owner() */\n      jump\t// in\n    tag_273:\n        /* \"lotto.sol\":1443:1466  owner() == _msgSender() */\n      0xffffffffffffffffffffffffffffffffffffffff\n      and\n      eq\n        /* \"lotto.sol\":1443:1495  owner() == _msgSender() || acesToken == _msgSender() */\n      dup1\n      tag_274\n      jumpi\n      pop\n        /* \"lotto.sol\":1483:1495  _msgSender() */\n      tag_275\n        /* \"lotto.sol\":1483:1493  _msgSender */\n      tag_159\n        /* \"lotto.sol\":1483:1495  _msgSender() */\n      jump\t// in\n    tag_275:\n        /* \"lotto.sol\":1470:1495  acesToken == _msgSender() */\n      0xffffffffffffffffffffffffffffffffffffffff\n      and\n        /* \"lotto.sol\":1470:1479  acesToken */\n      0x05\n      0x00\n      swap1\n      sload\n      swap1\n      0x0100\n      exp\n      swap1\n      div\n      0xffffffffffffffffffffffffffffffffffffffff\n      and\n        /* \"lotto.sol\":1470:1495  acesToken == _msgSender() */\n      0xffffffffffffffffffffffffffffffffffffffff\n      and\n      eq\n        /* \"lotto.sol\":1443:1495  owner() == _msgSender() || acesToken == _msgSender() */\n    tag_274:\n        /* \"lotto.sol\":1435:1511  require(owner() == _msgSender() || acesToken == _msgSender(), \"Not allowed\") */\n      tag_276\n      jumpi\n      mload(0x40)\n      0x08c379a000000000000000000000000000000000000000000000000000000000\n      dup2\n      mstore\n      0x04\n      add\n      tag_277\n      swap1\n      tag_165\n      jump\t// in\n    tag_277:\n      mload(0x40)\n      dup1\n      swap2\n      sub\n      swap1\n      revert\n    tag_276:\n        /* \"lotto.sol\":2814:2836  uint256 currentEntries */\n      0x00\n        /* \"lotto.sol\":2839:2859  userEntries(account) */\n      tag_279\n        /* \"lotto.sol\":2851:2858  account */\n      dup3\n        /* \"lotto.sol\":2839:2850  userEntries */\n      tag_87\n        /* \"lotto.sol\":2839:2859  userEntries(account) */\n      jump\t// in\n    tag_279:\n        /* \"lotto.sol\":2814:2859  uint256 currentEntries = userEntries(account) */\n      swap1\n      pop\n        /* \"lotto.sol\":2870:2916  removeEntryFromWallet(account, currentEntries) */\n      tag_280\n        /* \"lotto.sol\":2892:2899  account */\n      dup3\n        /* \"lotto.sol\":2901:2915  currentEntries */\n      dup3\n        /* \"lotto.sol\":2870:2891  removeEntryFromWallet */\n      tag_91\n        /* \"lotto.sol\":2870:2916  removeEntryFromWallet(account, currentEntries) */\n      jump\t// in\n    tag_280:\n        /* \"lotto.sol\":2803:2924  {\r... */\n      pop\n        /* \"lotto.sol\":2744:2924  function removeAccount(address account) external restricted{\r... */\n      pop\n      jump\t// out\n        /* \"https://github.com/OpenZeppelin/openzeppelin-contracts/blob/master/contracts/access/Ownable.sol\":1918:2116  function transferOwnership(address newOwner) public virtual onlyOwner {... */\n    tag_112:\n        /* \"https://github.com/OpenZeppelin/openzeppelin-contracts/blob/master/contracts/access/Ownable.sol\":1259:1271  _msgSender() */\n      tag_282\n        /* \"https://github.com/OpenZeppelin/openzeppelin-contracts/blob/master/contracts/access/Ownable.sol\":1259:1269  _msgSender */\n      tag_159\n        /* \"https://github.com/OpenZeppelin/openzeppelin-contracts/blob/master/contracts/access/Ownable.sol\":1259:1271  _msgSender() */\n      jump\t// in\n    tag_282:\n        /* \"https://github.com/OpenZeppelin/openzeppelin-contracts/blob/master/contracts/access/Ownable.sol\":1248:1271  owner() == _msgSender() */\n      0xffffffffffffffffffffffffffffffffffffffff\n      and\n        /* \"https://github.com/OpenZeppelin/openzeppelin-contracts/blob/master/contracts/access/Ownable.sol\":1248:1255  owner() */\n      tag_283\n        /* \"https://github.com/OpenZeppelin/openzeppelin-contracts/blob/master/contracts/access/Ownable.sol\":1248:1253  owner */\n      tag_80\n        /* \"https://github.com/OpenZeppelin/openzeppelin-contracts/blob/master/contracts/access/Ownable.sol\":1248:1255  owner() */\n      jump\t// in\n    tag_283:\n        /* \"https://github.com/OpenZeppelin/openzeppelin-contracts/blob/master/contracts/access/Ownable.sol\":1248:1271  owner() == _msgSender() */\n      0xffffffffffffffffffffffffffffffffffffffff\n      and\n      eq\n        /* \"https://github.com/OpenZeppelin/openzeppelin-contracts/blob/master/contracts/access/Ownable.sol\":1240:1308  require(owner() == _msgSender(), \"Ownable: caller is not the owner\") */\n      tag_284\n      jumpi\n      mload(0x40)\n      0x08c379a000000000000000000000000000000000000000000000000000000000\n      dup2\n      mstore\n      0x04\n      add\n      tag_285\n      swap1\n      tag_203\n      jump\t// in\n    tag_285:\n      mload(0x40)\n      dup1\n      swap2\n      sub\n      swap1\n      revert\n    tag_284:\n        /* \"https://github.com/OpenZeppelin/openzeppelin-contracts/blob/master/contracts/access/Ownable.sol\":2026:2027  0 */\n      0x00\n        /* \"https://github.com/OpenZeppelin/openzeppelin-contracts/blob/master/contracts/access/Ownable.sol\":2006:2028  newOwner != address(0) */\n      0xffffffffffffffffffffffffffffffffffffffff\n      and\n        /* \"https://github.com/OpenZeppelin/openzeppelin-contracts/blob/master/contracts/access/Ownable.sol\":2006:2014  newOwner */\n      dup2\n        /* \"https://github.com/OpenZeppelin/openzeppelin-contracts/blob/master/contracts/access/Ownable.sol\":2006:2028  newOwner != address(0) */\n      0xffffffffffffffffffffffffffffffffffffffff\n      and\n      eq\n      iszero\n        /* \"https://github.com/OpenZeppelin/openzeppelin-contracts/blob/master/contracts/access/Ownable.sol\":1998:2071  require(newOwner != address(0), \"Ownable: new owner is the zero address\") */\n      tag_287\n      jumpi\n      mload(0x40)\n      0x08c379a000000000000000000000000000000000000000000000000000000000\n      dup2\n      mstore\n      0x04\n      add\n      tag_288\n      swap1\n      tag_289\n      jump\t// in\n    tag_288:\n      mload(0x40)\n      dup1\n      swap2\n      sub\n      swap1\n      revert\n    tag_287:\n        /* \"https://github.com/OpenZeppelin/openzeppelin-contracts/blob/master/contracts/access/Ownable.sol\":2081:2109  _transferOwnership(newOwner) */\n      tag_290\n        /* \"https://github.com/OpenZeppelin/openzeppelin-contracts/blob/master/contracts/access/Ownable.sol\":2100:2108  newOwner */\n      dup2\n        /* \"https://github.com/OpenZeppelin/openzeppelin-contracts/blob/master/contracts/access/Ownable.sol\":2081:2099  _transferOwnership */\n      tag_216\n        /* \"https://github.com/OpenZeppelin/openzeppelin-contracts/blob/master/contracts/access/Ownable.sol\":2081:2109  _transferOwnership(newOwner) */\n      jump\t// in\n    tag_290:\n        /* \"https://github.com/OpenZeppelin/openzeppelin-contracts/blob/master/contracts/access/Ownable.sol\":1918:2116  function transferOwnership(address newOwner) public virtual onlyOwner {... */\n      pop\n      jump\t// out\n        /* \"lotto.sol\":3109:3313  function pickWinner(uint256 seed) external view returns(uint256 winnerNum, address winnerAddress) {\r... */\n    tag_115:\n        /* \"lotto.sol\":3165:3182  uint256 winnerNum */\n      0x00\n        /* \"lotto.sol\":3184:3205  address winnerAddress */\n      dup1\n        /* \"lotto.sol\":3245:3257  roundEntries */\n      sload(0x01)\n        /* \"lotto.sol\":3230:3242  random(seed) */\n      tag_292\n        /* \"lotto.sol\":3237:3241  seed */\n      dup5\n        /* \"lotto.sol\":3230:3236  random */\n      tag_293\n        /* \"lotto.sol\":3230:3242  random(seed) */\n      jump\t// in\n    tag_292:\n        /* \"lotto.sol\":3230:3257  random(seed) % roundEntries */\n      tag_294\n      swap2\n      swap1\n      tag_295\n      jump\t// in\n    tag_294:\n        /* \"lotto.sol\":3218:3257  winnerNum = random(seed) % roundEntries */\n      swap2\n      pop\n        /* \"lotto.sol\":3284:3294  roundEntry */\n      0x08\n        /* \"lotto.sol\":3284:3305  roundEntry[winnerNum] */\n      0x00\n        /* \"lotto.sol\":3295:3304  winnerNum */\n      dup4\n        /* \"lotto.sol\":3284:3305  roundEntry[winnerNum] */\n      dup2\n      mstore\n      0x20\n      add\n      swap1\n      dup2\n      mstore\n      0x20\n      add\n      0x00\n      keccak256\n      0x00\n      swap1\n      sload\n      swap1\n      0x0100\n      exp\n      swap1\n      div\n      0xffffffffffffffffffffffffffffffffffffffff\n      and\n        /* \"lotto.sol\":3268:3305  winnerAddress = roundEntry[winnerNum] */\n      swap1\n      pop\n        /* \"lotto.sol\":3109:3313  function pickWinner(uint256 seed) external view returns(uint256 winnerNum, address winnerAddress) {\r... */\n      swap2\n      pop\n      swap2\n      jump\t// out\n        /* \"lotto.sol\":3833:3945  function currentJackpot() public view returns (uint256) {\r... */\n    tag_119:\n        /* \"lotto.sol\":3880:3887  uint256 */\n      0x00\n        /* \"lotto.sol\":3907:3911  BUSD */\n      0x04\n      0x00\n      swap1\n      sload\n      swap1\n      0x0100\n      exp\n      swap1\n      div\n      0xffffffffffffffffffffffffffffffffffffffff\n      and\n        /* \"lotto.sol\":3907:3921  BUSD.balanceOf */\n      0xffffffffffffffffffffffffffffffffffffffff\n      and\n      0x70a08231\n        /* \"lotto.sol\":3922:3936  treasuryWallet */\n      0x06\n      0x00\n      swap1\n      sload\n      swap1\n      0x0100\n      exp\n      swap1\n      div\n      0xffffffffffffffffffffffffffffffffffffffff\n      and\n        /* \"lotto.sol\":3907:3937  BUSD.balanceOf(treasuryWallet) */\n      mload(0x40)\n      dup3\n      0xffffffff\n      and\n      0xe0\n      shl\n      dup2\n      mstore\n      0x04\n      add\n      tag_297\n      swap2\n      swap1\n      tag_55\n      jump\t// in\n    tag_297:\n      0x20\n      mload(0x40)\n      dup1\n      dup4\n      sub\n      dup2\n      dup7\n      dup1\n      extcodesize\n      iszero\n      dup1\n      iszero\n      tag_298\n      jumpi\n      0x00\n      dup1\n      revert\n    tag_298:\n      pop\n      gas\n      staticcall\n      iszero\n      dup1\n      iszero\n      tag_300\n      jumpi\n      returndatasize\n      0x00\n      dup1\n      returndatacopy\n      revert(0x00, returndatasize)\n    tag_300:\n      pop\n      pop\n      pop\n      pop\n      mload(0x40)\n      returndatasize\n      not(0x1f)\n      0x1f\n      dup3\n      add\n      and\n      dup3\n      add\n      dup1\n      0x40\n      mstore\n      pop\n      dup2\n      add\n      swap1\n      tag_301\n      swap2\n      swap1\n      tag_302\n      jump\t// in\n    tag_301:\n        /* \"lotto.sol\":3900:3937  return BUSD.balanceOf(treasuryWallet) */\n      swap1\n      pop\n        /* \"lotto.sol\":3833:3945  function currentJackpot() public view returns (uint256) {\r... */\n      swap1\n      jump\t// out\n        /* \"https://github.com/OpenZeppelin/openzeppelin-contracts/blob/master/contracts/utils/Context.sol\":640:736  function _msgSender() internal view virtual returns (address) {... */\n    tag_159:\n        /* \"https://github.com/OpenZeppelin/openzeppelin-contracts/blob/master/contracts/utils/Context.sol\":693:700  address */\n      0x00\n        /* \"https://github.com/OpenZeppelin/openzeppelin-contracts/blob/master/contracts/utils/Context.sol\":719:729  msg.sender */\n      caller\n        /* \"https://github.com/OpenZeppelin/openzeppelin-contracts/blob/master/contracts/utils/Context.sol\":712:729  return msg.sender */\n      swap1\n      pop\n        /* \"https://github.com/OpenZeppelin/openzeppelin-contracts/blob/master/contracts/utils/Context.sol\":640:736  function _msgSender() internal view virtual returns (address) {... */\n      swap1\n      jump\t// out\n        /* \"https://github.com/OpenZeppelin/openzeppelin-contracts/blob/master/contracts/access/Ownable.sol\":2270:2457  function _transferOwnership(address newOwner) internal virtual {... */\n    tag_216:\n        /* \"https://github.com/OpenZeppelin/openzeppelin-contracts/blob/master/contracts/access/Ownable.sol\":2343:2359  address oldOwner */\n      0x00\n        /* \"https://github.com/OpenZeppelin/openzeppelin-contracts/blob/master/contracts/access/Ownable.sol\":2362:2368  _owner */\n      dup1\n      0x00\n      swap1\n      sload\n      swap1\n      0x0100\n      exp\n      swap1\n      div\n      0xffffffffffffffffffffffffffffffffffffffff\n      and\n        /* \"https://github.com/OpenZeppelin/openzeppelin-contracts/blob/master/contracts/access/Ownable.sol\":2343:2368  address oldOwner = _owner */\n      swap1\n      pop\n        /* \"https://github.com/OpenZeppelin/openzeppelin-contracts/blob/master/contracts/access/Ownable.sol\":2387:2395  newOwner */\n      dup2\n        /* \"https://github.com/OpenZeppelin/openzeppelin-contracts/blob/master/contracts/access/Ownable.sol\":2378:2384  _owner */\n      0x00\n      dup1\n        /* \"https://github.com/OpenZeppelin/openzeppelin-contracts/blob/master/contracts/access/Ownable.sol\":2378:2395  _owner = newOwner */\n      0x0100\n      exp\n      dup2\n      sload\n      dup2\n      0xffffffffffffffffffffffffffffffffffffffff\n      mul\n      not\n      and\n      swap1\n      dup4\n      0xffffffffffffffffffffffffffffffffffffffff\n      and\n      mul\n      or\n      swap1\n      sstore\n      pop\n        /* \"https://github.com/OpenZeppelin/openzeppelin-contracts/blob/master/contracts/access/Ownable.sol\":2441:2449  newOwner */\n      dup2\n        /* \"https://github.com/OpenZeppelin/openzeppelin-contracts/blob/master/contracts/access/Ownable.sol\":2410:2450  OwnershipTransferred(oldOwner, newOwner) */\n      0xffffffffffffffffffffffffffffffffffffffff\n      and\n        /* \"https://github.com/OpenZeppelin/openzeppelin-contracts/blob/master/contracts/access/Ownable.sol\":2431:2439  oldOwner */\n      dup2\n        /* \"https://github.com/OpenZeppelin/openzeppelin-contracts/blob/master/contracts/access/Ownable.sol\":2410:2450  OwnershipTransferred(oldOwner, newOwner) */\n      0xffffffffffffffffffffffffffffffffffffffff\n      and\n      0x8be0079c531659141344cd1fd0a4f28419497f9722a3daafe3b4186f6b6457e0\n      mload(0x40)\n      mload(0x40)\n      dup1\n      swap2\n      sub\n      swap1\n      log3\n        /* \"https://github.com/OpenZeppelin/openzeppelin-contracts/blob/master/contracts/access/Ownable.sol\":2333:2457  {... */\n      pop\n        /* \"https://github.com/OpenZeppelin/openzeppelin-contracts/blob/master/contracts/access/Ownable.sol\":2270:2457  function _transferOwnership(address newOwner) internal virtual {... */\n      pop\n      jump\t// out\n        /* \"lotto.sol\":5580:5997  function random(uint256 seed) internal view returns (uint256) {\r... */\n    tag_293:\n        /* \"lotto.sol\":5633:5640  uint256 */\n      0x00\n        /* \"lotto.sol\":5774:5778  seed */\n      dup2\n        /* \"lotto.sol\":5805:5820  block.timestamp */\n      timestamp\n        /* \"lotto.sol\":5847:5856  gasleft() */\n      gas\n        /* \"lotto.sol\":5883:5893  msg.sender */\n      caller\n        /* \"lotto.sol\":5920:5932  roundEntries */\n      sload(0x01)\n        /* \"lotto.sol\":5731:5955  abi.encodePacked(\r... */\n      add(0x20, mload(0x40))\n      tag_306\n      swap6\n      swap5\n      swap4\n      swap3\n      swap2\n      swap1\n      tag_307\n      jump\t// in\n    tag_306:\n      mload(0x40)\n      0x20\n      dup2\n      dup4\n      sub\n      sub\n      dup2\n      mstore\n      swap1\n      0x40\n      mstore\n        /* \"lotto.sol\":5699:5974  keccak256(\r... */\n      dup1\n      mload\n      swap1\n      0x20\n      add\n      keccak256\n        /* \"lotto.sol\":5673:5989  uint256(\r... */\n      0x00\n      shr\n        /* \"lotto.sol\":5653:5989  return\r... */\n      swap1\n      pop\n        /* \"lotto.sol\":5580:5997  function random(uint256 seed) internal view returns (uint256) {\r... */\n      swap2\n      swap1\n      pop\n      jump\t// out\n    tag_253:\n      mload(0x40)\n      dup1\n      0xa0\n      add\n      0x40\n      mstore\n      dup1\n      0x00\n      dup2\n      mstore\n      0x20\n      add\n      0x00\n      dup2\n      mstore\n      0x20\n      add\n      0x00\n      dup2\n      mstore\n      0x20\n      add\n      0x00\n      dup2\n      mstore\n      0x20\n      add\n      and(0xffffffffffffffffffffffffffffffffffffffff, 0x00)\n      dup2\n      mstore\n      pop\n      swap1\n      jump\t// out\n        /* \"#utility.yul\":24:746   */\n    tag_309:\n        /* \"#utility.yul\":120:125   */\n      0x00\n        /* \"#utility.yul\":145:226   */\n      tag_311\n        /* \"#utility.yul\":161:225   */\n      tag_312\n        /* \"#utility.yul\":218:224   */\n      dup5\n        /* \"#utility.yul\":161:225   */\n      tag_313\n      jump\t// in\n    tag_312:\n        /* \"#utility.yul\":145:226   */\n      tag_314\n      jump\t// in\n    tag_311:\n        /* \"#utility.yul\":136:226   */\n      swap1\n      pop\n        /* \"#utility.yul\":246:251   */\n      dup1\n        /* \"#utility.yul\":275:281   */\n      dup4\n        /* \"#utility.yul\":268:273   */\n      dup3\n        /* \"#utility.yul\":261:282   */\n      mstore\n        /* \"#utility.yul\":309:313   */\n      0x20\n        /* \"#utility.yul\":302:307   */\n      dup3\n        /* \"#utility.yul\":298:314   */\n      add\n        /* \"#utility.yul\":291:314   */\n      swap1\n      pop\n        /* \"#utility.yul\":335:341   */\n      dup3\n        /* \"#utility.yul\":385:388   */\n      dup6\n        /* \"#utility.yul\":377:381   */\n      0x20\n        /* \"#utility.yul\":369:375   */\n      dup7\n        /* \"#utility.yul\":365:382   */\n      mul\n        /* \"#utility.yul\":360:363   */\n      dup3\n        /* \"#utility.yul\":356:383   */\n      add\n        /* \"#utility.yul\":353:389   */\n      gt\n        /* \"#utility.yul\":350:493   */\n      iszero\n      tag_315\n      jumpi\n        /* \"#utility.yul\":404:483   */\n      tag_316\n      tag_317\n      jump\t// in\n    tag_316:\n        /* \"#utility.yul\":350:493   */\n    tag_315:\n        /* \"#utility.yul\":517:518   */\n      0x00\n        /* \"#utility.yul\":502:740   */\n    tag_318:\n        /* \"#utility.yul\":527:533   */\n      dup6\n        /* \"#utility.yul\":524:525   */\n      dup2\n        /* \"#utility.yul\":521:534   */\n      lt\n        /* \"#utility.yul\":502:740   */\n      iszero\n      tag_320\n      jumpi\n        /* \"#utility.yul\":595:598   */\n      dup2\n        /* \"#utility.yul\":624:661   */\n      tag_321\n        /* \"#utility.yul\":657:660   */\n      dup9\n        /* \"#utility.yul\":645:655   */\n      dup3\n        /* \"#utility.yul\":624:661   */\n      tag_322\n      jump\t// in\n    tag_321:\n        /* \"#utility.yul\":619:622   */\n      dup5\n        /* \"#utility.yul\":612:662   */\n      mstore\n        /* \"#utility.yul\":691:695   */\n      0x20\n        /* \"#utility.yul\":686:689   */\n      dup5\n        /* \"#utility.yul\":682:696   */\n      add\n        /* \"#utility.yul\":675:696   */\n      swap4\n      pop\n        /* \"#utility.yul\":725:729   */\n      0x20\n        /* \"#utility.yul\":720:723   */\n      dup4\n        /* \"#utility.yul\":716:730   */\n      add\n        /* \"#utility.yul\":709:730   */\n      swap3\n      pop\n        /* \"#utility.yul\":562:740   */\n      pop\n        /* \"#utility.yul\":549:550   */\n      0x01\n        /* \"#utility.yul\":546:547   */\n      dup2\n        /* \"#utility.yul\":542:551   */\n      add\n        /* \"#utility.yul\":537:551   */\n      swap1\n      pop\n        /* \"#utility.yul\":502:740   */\n      jump(tag_318)\n    tag_320:\n        /* \"#utility.yul\":506:520   */\n      pop\n        /* \"#utility.yul\":126:746   */\n      pop\n      pop\n        /* \"#utility.yul\":24:746   */\n      swap4\n      swap3\n      pop\n      pop\n      pop\n      jump\t// out\n        /* \"#utility.yul\":769:1491   */\n    tag_323:\n        /* \"#utility.yul\":865:870   */\n      0x00\n        /* \"#utility.yul\":890:971   */\n      tag_325\n        /* \"#utility.yul\":906:970   */\n      tag_326\n        /* \"#utility.yul\":963:969   */\n      dup5\n        /* \"#utility.yul\":906:970   */\n      tag_327\n      jump\t// in\n    tag_326:\n        /* \"#utility.yul\":890:971   */\n      tag_314\n      jump\t// in\n    tag_325:\n        /* \"#utility.yul\":881:971   */\n      swap1\n      pop\n        /* \"#utility.yul\":991:996   */\n      dup1\n        /* \"#utility.yul\":1020:1026   */\n      dup4\n        /* \"#utility.yul\":1013:1018   */\n      dup3\n        /* \"#utility.yul\":1006:1027   */\n      mstore\n        /* \"#utility.yul\":1054:1058   */\n      0x20\n        /* \"#utility.yul\":1047:1052   */\n      dup3\n        /* \"#utility.yul\":1043:1059   */\n      add\n        /* \"#utility.yul\":1036:1059   */\n      swap1\n      pop\n        /* \"#utility.yul\":1080:1086   */\n      dup3\n        /* \"#utility.yul\":1130:1133   */\n      dup6\n        /* \"#utility.yul\":1122:1126   */\n      0x20\n        /* \"#utility.yul\":1114:1120   */\n      dup7\n        /* \"#utility.yul\":1110:1127   */\n      mul\n        /* \"#utility.yul\":1105:1108   */\n      dup3\n        /* \"#utility.yul\":1101:1128   */\n      add\n        /* \"#utility.yul\":1098:1134   */\n      gt\n        /* \"#utility.yul\":1095:1238   */\n      iszero\n      tag_328\n      jumpi\n        /* \"#utility.yul\":1149:1228   */\n      tag_329\n      tag_317\n      jump\t// in\n    tag_329:\n        /* \"#utility.yul\":1095:1238   */\n    tag_328:\n        /* \"#utility.yul\":1262:1263   */\n      0x00\n        /* \"#utility.yul\":1247:1485   */\n    tag_330:\n        /* \"#utility.yul\":1272:1278   */\n      dup6\n        /* \"#utility.yul\":1269:1270   */\n      dup2\n        /* \"#utility.yul\":1266:1279   */\n      lt\n        /* \"#utility.yul\":1247:1485   */\n      iszero\n      tag_332\n      jumpi\n        /* \"#utility.yul\":1340:1343   */\n      dup2\n        /* \"#utility.yul\":1369:1406   */\n      tag_333\n        /* \"#utility.yul\":1402:1405   */\n      dup9\n        /* \"#utility.yul\":1390:1400   */\n      dup3\n        /* \"#utility.yul\":1369:1406   */\n      tag_334\n      jump\t// in\n    tag_333:\n        /* \"#utility.yul\":1364:1367   */\n      dup5\n        /* \"#utility.yul\":1357:1407   */\n      mstore\n        /* \"#utility.yul\":1436:1440   */\n      0x20\n        /* \"#utility.yul\":1431:1434   */\n      dup5\n        /* \"#utility.yul\":1427:1441   */\n      add\n        /* \"#utility.yul\":1420:1441   */\n      swap4\n      pop\n        /* \"#utility.yul\":1470:1474   */\n      0x20\n        /* \"#utility.yul\":1465:1468   */\n      dup4\n        /* \"#utility.yul\":1461:1475   */\n      add\n        /* \"#utility.yul\":1454:1475   */\n      swap3\n      pop\n        /* \"#utility.yul\":1307:1485   */\n      pop\n        /* \"#utility.yul\":1294:1295   */\n      0x01\n        /* \"#utility.yul\":1291:1292   */\n      dup2\n        /* \"#utility.yul\":1287:1296   */\n      add\n        /* \"#utility.yul\":1282:1296   */\n      swap1\n      pop\n        /* \"#utility.yul\":1247:1485   */\n      jump(tag_330)\n    tag_332:\n        /* \"#utility.yul\":1251:1265   */\n      pop\n        /* \"#utility.yul\":871:1491   */\n      pop\n      pop\n        /* \"#utility.yul\":769:1491   */\n      swap4\n      swap3\n      pop\n      pop\n      pop\n      jump\t// out\n        /* \"#utility.yul\":1497:1636   */\n    tag_322:\n        /* \"#utility.yul\":1543:1548   */\n      0x00\n        /* \"#utility.yul\":1581:1587   */\n      dup2\n        /* \"#utility.yul\":1568:1588   */\n      calldataload\n        /* \"#utility.yul\":1559:1588   */\n      swap1\n      pop\n        /* \"#utility.yul\":1597:1630   */\n      tag_336\n        /* \"#utility.yul\":1624:1629   */\n      dup2\n        /* \"#utility.yul\":1597:1630   */\n      tag_337\n      jump\t// in\n    tag_336:\n        /* \"#utility.yul\":1497:1636   */\n      swap3\n      swap2\n      pop\n      pop\n      jump\t// out\n        /* \"#utility.yul\":1659:2029   */\n    tag_338:\n        /* \"#utility.yul\":1730:1735   */\n      0x00\n        /* \"#utility.yul\":1779:1782   */\n      dup3\n        /* \"#utility.yul\":1772:1776   */\n      0x1f\n        /* \"#utility.yul\":1764:1770   */\n      dup4\n        /* \"#utility.yul\":1760:1777   */\n      add\n        /* \"#utility.yul\":1756:1783   */\n      slt\n        /* \"#utility.yul\":1746:1868   */\n      tag_340\n      jumpi\n        /* \"#utility.yul\":1787:1866   */\n      tag_341\n      tag_342\n      jump\t// in\n    tag_341:\n        /* \"#utility.yul\":1746:1868   */\n    tag_340:\n        /* \"#utility.yul\":1904:1910   */\n      dup2\n        /* \"#utility.yul\":1891:1911   */\n      calldataload\n        /* \"#utility.yul\":1929:2023   */\n      tag_343\n        /* \"#utility.yul\":2019:2022   */\n      dup5\n        /* \"#utility.yul\":2011:2017   */\n      dup3\n        /* \"#utility.yul\":2004:2008   */\n      0x20\n        /* \"#utility.yul\":1996:2002   */\n      dup7\n        /* \"#utility.yul\":1992:2009   */\n      add\n        /* \"#utility.yul\":1929:2023   */\n      tag_309\n      jump\t// in\n    tag_343:\n        /* \"#utility.yul\":1920:2023   */\n      swap2\n      pop\n        /* \"#utility.yul\":1736:2029   */\n      pop\n        /* \"#utility.yul\":1659:2029   */\n      swap3\n      swap2\n      pop\n      pop\n      jump\t// out\n        /* \"#utility.yul\":2052:2422   */\n    tag_344:\n        /* \"#utility.yul\":2123:2128   */\n      0x00\n        /* \"#utility.yul\":2172:2175   */\n      dup3\n        /* \"#utility.yul\":2165:2169   */\n      0x1f\n        /* \"#utility.yul\":2157:2163   */\n      dup4\n        /* \"#utility.yul\":2153:2170   */\n      add\n        /* \"#utility.yul\":2149:2176   */\n      slt\n        /* \"#utility.yul\":2139:2261   */\n      tag_346\n      jumpi\n        /* \"#utility.yul\":2180:2259   */\n      tag_347\n      tag_342\n      jump\t// in\n    tag_347:\n        /* \"#utility.yul\":2139:2261   */\n    tag_346:\n        /* \"#utility.yul\":2297:2303   */\n      dup2\n        /* \"#utility.yul\":2284:2304   */\n      calldataload\n        /* \"#utility.yul\":2322:2416   */\n      tag_348\n        /* \"#utility.yul\":2412:2415   */\n      dup5\n        /* \"#utility.yul\":2404:2410   */\n      dup3\n        /* \"#utility.yul\":2397:2401   */\n      0x20\n        /* \"#utility.yul\":2389:2395   */\n      dup7\n        /* \"#utility.yul\":2385:2402   */\n      add\n        /* \"#utility.yul\":2322:2416   */\n      tag_323\n      jump\t// in\n    tag_348:\n        /* \"#utility.yul\":2313:2416   */\n      swap2\n      pop\n        /* \"#utility.yul\":2129:2422   */\n      pop\n        /* \"#utility.yul\":2052:2422   */\n      swap3\n      swap2\n      pop\n      pop\n      jump\t// out\n        /* \"#utility.yul\":2428:2567   */\n    tag_334:\n        /* \"#utility.yul\":2474:2479   */\n      0x00\n        /* \"#utility.yul\":2512:2518   */\n      dup2\n        /* \"#utility.yul\":2499:2519   */\n      calldataload\n        /* \"#utility.yul\":2490:2519   */\n      swap1\n      pop\n        /* \"#utility.yul\":2528:2561   */\n      tag_350\n        /* \"#utility.yul\":2555:2560   */\n      dup2\n        /* \"#utility.yul\":2528:2561   */\n      tag_351\n      jump\t// in\n    tag_350:\n        /* \"#utility.yul\":2428:2567   */\n      swap3\n      swap2\n      pop\n      pop\n      jump\t// out\n        /* \"#utility.yul\":2573:2716   */\n    tag_352:\n        /* \"#utility.yul\":2630:2635   */\n      0x00\n        /* \"#utility.yul\":2661:2667   */\n      dup2\n        /* \"#utility.yul\":2655:2668   */\n      mload\n        /* \"#utility.yul\":2646:2668   */\n      swap1\n      pop\n        /* \"#utility.yul\":2677:2710   */\n      tag_354\n        /* \"#utility.yul\":2704:2709   */\n      dup2\n        /* \"#utility.yul\":2677:2710   */\n      tag_351\n      jump\t// in\n    tag_354:\n        /* \"#utility.yul\":2573:2716   */\n      swap3\n      swap2\n      pop\n      pop\n      jump\t// out\n        /* \"#utility.yul\":2722:3051   */\n    tag_62:\n        /* \"#utility.yul\":2781:2787   */\n      0x00\n        /* \"#utility.yul\":2830:2832   */\n      0x20\n        /* \"#utility.yul\":2818:2827   */\n      dup3\n        /* \"#utility.yul\":2809:2816   */\n      dup5\n        /* \"#utility.yul\":2805:2828   */\n      sub\n        /* \"#utility.yul\":2801:2833   */\n      slt\n        /* \"#utility.yul\":2798:2917   */\n      iszero\n      tag_356\n      jumpi\n        /* \"#utility.yul\":2836:2915   */\n      tag_357\n      tag_358\n      jump\t// in\n    tag_357:\n        /* \"#utility.yul\":2798:2917   */\n    tag_356:\n        /* \"#utility.yul\":2956:2957   */\n      0x00\n        /* \"#utility.yul\":2981:3034   */\n      tag_359\n        /* \"#utility.yul\":3026:3033   */\n      dup5\n        /* \"#utility.yul\":3017:3023   */\n      dup3\n        /* \"#utility.yul\":3006:3015   */\n      dup6\n        /* \"#utility.yul\":3002:3024   */\n      add\n        /* \"#utility.yul\":2981:3034   */\n      tag_322\n      jump\t// in\n    tag_359:\n        /* \"#utility.yul\":2971:3034   */\n      swap2\n      pop\n        /* \"#utility.yul\":2927:3044   */\n      pop\n        /* \"#utility.yul\":2722:3051   */\n      swap3\n      swap2\n      pop\n      pop\n      jump\t// out\n        /* \"#utility.yul\":3057:3531   */\n    tag_32:\n        /* \"#utility.yul\":3125:3131   */\n      0x00\n        /* \"#utility.yul\":3133:3139   */\n      dup1\n        /* \"#utility.yul\":3182:3184   */\n      0x40\n        /* \"#utility.yul\":3170:3179   */\n      dup4\n        /* \"#utility.yul\":3161:3168   */\n      dup6\n        /* \"#utility.yul\":3157:3180   */\n      sub\n        /* \"#utility.yul\":3153:3185   */\n      slt\n        /* \"#utility.yul\":3150:3269   */\n      iszero\n      tag_361\n      jumpi\n        /* \"#utility.yul\":3188:3267   */\n      tag_362\n      tag_358\n      jump\t// in\n    tag_362:\n        /* \"#utility.yul\":3150:3269   */\n    tag_361:\n        /* \"#utility.yul\":3308:3309   */\n      0x00\n        /* \"#utility.yul\":3333:3386   */\n      tag_363\n        /* \"#utility.yul\":3378:3385   */\n      dup6\n        /* \"#utility.yul\":3369:3375   */\n      dup3\n        /* \"#utility.yul\":3358:3367   */\n      dup7\n        /* \"#utility.yul\":3354:3376   */\n      add\n        /* \"#utility.yul\":3333:3386   */\n      tag_322\n      jump\t// in\n    tag_363:\n        /* \"#utility.yul\":3323:3386   */\n      swap3\n      pop\n        /* \"#utility.yul\":3279:3396   */\n      pop\n        /* \"#utility.yul\":3435:3437   */\n      0x20\n        /* \"#utility.yul\":3461:3514   */\n      tag_364\n        /* \"#utility.yul\":3506:3513   */\n      dup6\n        /* \"#utility.yul\":3497:3503   */\n      dup3\n        /* \"#utility.yul\":3486:3495   */\n      dup7\n        /* \"#utility.yul\":3482:3504   */\n      add\n        /* \"#utility.yul\":3461:3514   */\n      tag_334\n      jump\t// in\n    tag_364:\n        /* \"#utility.yul\":3451:3514   */\n      swap2\n      pop\n        /* \"#utility.yul\":3406:3524   */\n      pop\n        /* \"#utility.yul\":3057:3531   */\n      swap3\n      pop\n      swap3\n      swap1\n      pop\n      jump\t// out\n        /* \"#utility.yul\":3537:4431   */\n    tag_68:\n        /* \"#utility.yul\":3655:3661   */\n      0x00\n        /* \"#utility.yul\":3663:3669   */\n      dup1\n        /* \"#utility.yul\":3712:3714   */\n      0x40\n        /* \"#utility.yul\":3700:3709   */\n      dup4\n        /* \"#utility.yul\":3691:3698   */\n      dup6\n        /* \"#utility.yul\":3687:3710   */\n      sub\n        /* \"#utility.yul\":3683:3715   */\n      slt\n        /* \"#utility.yul\":3680:3799   */\n      iszero\n      tag_366\n      jumpi\n        /* \"#utility.yul\":3718:3797   */\n      tag_367\n      tag_358\n      jump\t// in\n    tag_367:\n        /* \"#utility.yul\":3680:3799   */\n    tag_366:\n        /* \"#utility.yul\":3866:3867   */\n      0x00\n        /* \"#utility.yul\":3855:3864   */\n      dup4\n        /* \"#utility.yul\":3851:3868   */\n      add\n        /* \"#utility.yul\":3838:3869   */\n      calldataload\n        /* \"#utility.yul\":3896:3914   */\n      0xffffffffffffffff\n        /* \"#utility.yul\":3888:3894   */\n      dup2\n        /* \"#utility.yul\":3885:3915   */\n      gt\n        /* \"#utility.yul\":3882:3999   */\n      iszero\n      tag_368\n      jumpi\n        /* \"#utility.yul\":3918:3997   */\n      tag_369\n      tag_370\n      jump\t// in\n    tag_369:\n        /* \"#utility.yul\":3882:3999   */\n    tag_368:\n        /* \"#utility.yul\":4023:4101   */\n      tag_371\n        /* \"#utility.yul\":4093:4100   */\n      dup6\n        /* \"#utility.yul\":4084:4090   */\n      dup3\n        /* \"#utility.yul\":4073:4082   */\n      dup7\n        /* \"#utility.yul\":4069:4091   */\n      add\n        /* \"#utility.yul\":4023:4101   */\n      tag_338\n      jump\t// in\n    tag_371:\n        /* \"#utility.yul\":4013:4101   */\n      swap3\n      pop\n        /* \"#utility.yul\":3809:4111   */\n      pop\n        /* \"#utility.yul\":4178:4180   */\n      0x20\n        /* \"#utility.yul\":4167:4176   */\n      dup4\n        /* \"#utility.yul\":4163:4181   */\n      add\n        /* \"#utility.yul\":4150:4182   */\n      calldataload\n        /* \"#utility.yul\":4209:4227   */\n      0xffffffffffffffff\n        /* \"#utility.yul\":4201:4207   */\n      dup2\n        /* \"#utility.yul\":4198:4228   */\n      gt\n        /* \"#utility.yul\":4195:4312   */\n      iszero\n      tag_372\n      jumpi\n        /* \"#utility.yul\":4231:4310   */\n      tag_373\n      tag_370\n      jump\t// in\n    tag_373:\n        /* \"#utility.yul\":4195:4312   */\n    tag_372:\n        /* \"#utility.yul\":4336:4414   */\n      tag_374\n        /* \"#utility.yul\":4406:4413   */\n      dup6\n        /* \"#utility.yul\":4397:4403   */\n      dup3\n        /* \"#utility.yul\":4386:4395   */\n      dup7\n        /* \"#utility.yul\":4382:4404   */\n      add\n        /* \"#utility.yul\":4336:4414   */\n      tag_344\n      jump\t// in\n    tag_374:\n        /* \"#utility.yul\":4326:4414   */\n      swap2\n      pop\n        /* \"#utility.yul\":4121:4424   */\n      pop\n        /* \"#utility.yul\":3537:4431   */\n      swap3\n      pop\n      swap3\n      swap1\n      pop\n      jump\t// out\n        /* \"#utility.yul\":4437:4766   */\n    tag_94:\n        /* \"#utility.yul\":4496:4502   */\n      0x00\n        /* \"#utility.yul\":4545:4547   */\n      0x20\n        /* \"#utility.yul\":4533:4542   */\n      dup3\n        /* \"#utility.yul\":4524:4531   */\n      dup5\n        /* \"#utility.yul\":4520:4543   */\n      sub\n        /* \"#utility.yul\":4516:4548   */\n      slt\n        /* \"#utility.yul\":4513:4632   */\n      iszero\n      tag_376\n      jumpi\n        /* \"#utility.yul\":4551:4630   */\n      tag_377\n      tag_358\n      jump\t// in\n    tag_377:\n        /* \"#utility.yul\":4513:4632   */\n    tag_376:\n        /* \"#utility.yul\":4671:4672   */\n      0x00\n        /* \"#utility.yul\":4696:4749   */\n      tag_378\n        /* \"#utility.yul\":4741:4748   */\n      dup5\n        /* \"#utility.yul\":4732:4738   */\n      dup3\n        /* \"#utility.yul\":4721:4730   */\n      dup6\n        /* \"#utility.yul\":4717:4739   */\n      add\n        /* \"#utility.yul\":4696:4749   */\n      tag_334\n      jump\t// in\n    tag_378:\n        /* \"#utility.yul\":4686:4749   */\n      swap2\n      pop\n        /* \"#utility.yul\":4642:4759   */\n      pop\n        /* \"#utility.yul\":4437:4766   */\n      swap3\n      swap2\n      pop\n      pop\n      jump\t// out\n        /* \"#utility.yul\":4772:5123   */\n    tag_302:\n        /* \"#utility.yul\":4842:4848   */\n      0x00\n        /* \"#utility.yul\":4891:4893   */\n      0x20\n        /* \"#utility.yul\":4879:4888   */\n      dup3\n        /* \"#utility.yul\":4870:4877   */\n      dup5\n        /* \"#utility.yul\":4866:4889   */\n      sub\n        /* \"#utility.yul\":4862:4894   */\n      slt\n        /* \"#utility.yul\":4859:4978   */\n      iszero\n      tag_380\n      jumpi\n        /* \"#utility.yul\":4897:4976   */\n      tag_381\n      tag_358\n      jump\t// in\n    tag_381:\n        /* \"#utility.yul\":4859:4978   */\n    tag_380:\n        /* \"#utility.yul\":5017:5018   */\n      0x00\n        /* \"#utility.yul\":5042:5106   */\n      tag_382\n        /* \"#utility.yul\":5098:5105   */\n      dup5\n        /* \"#utility.yul\":5089:5095   */\n      dup3\n        /* \"#utility.yul\":5078:5087   */\n      dup6\n        /* \"#utility.yul\":5074:5096   */\n      add\n        /* \"#utility.yul\":5042:5106   */\n      tag_352\n      jump\t// in\n    tag_382:\n        /* \"#utility.yul\":5032:5106   */\n      swap2\n      pop\n        /* \"#utility.yul\":4988:5116   */\n      pop\n        /* \"#utility.yul\":4772:5123   */\n      swap3\n      swap2\n      pop\n      pop\n      jump\t// out\n        /* \"#utility.yul\":5129:5603   */\n    tag_72:\n        /* \"#utility.yul\":5197:5203   */\n      0x00\n        /* \"#utility.yul\":5205:5211   */\n      dup1\n        /* \"#utility.yul\":5254:5256   */\n      0x40\n        /* \"#utility.yul\":5242:5251   */\n      dup4\n        /* \"#utility.yul\":5233:5240   */\n      dup6\n        /* \"#utility.yul\":5229:5252   */\n      sub\n        /* \"#utility.yul\":5225:5257   */\n      slt\n        /* \"#utility.yul\":5222:5341   */\n      iszero\n      tag_384\n      jumpi\n        /* \"#utility.yul\":5260:5339   */\n      tag_385\n      tag_358\n      jump\t// in\n    tag_385:\n        /* \"#utility.yul\":5222:5341   */\n    tag_384:\n        /* \"#utility.yul\":5380:5381   */\n      0x00\n        /* \"#utility.yul\":5405:5458   */\n      tag_386\n        /* \"#utility.yul\":5450:5457   */\n      dup6\n        /* \"#utility.yul\":5441:5447   */\n      dup3\n        /* \"#utility.yul\":5430:5439   */\n      dup7\n        /* \"#utility.yul\":5426:5448   */\n      add\n        /* \"#utility.yul\":5405:5458   */\n      tag_334\n      jump\t// in\n    tag_386:\n        /* \"#utility.yul\":5395:5458   */\n      swap3\n      pop\n        /* \"#utility.yul\":5351:5468   */\n      pop\n        /* \"#utility.yul\":5507:5509   */\n      0x20\n        /* \"#utility.yul\":5533:5586   */\n      tag_387\n        /* \"#utility.yul\":5578:5585   */\n      dup6\n        /* \"#utility.yul\":5569:5575   */\n      dup3\n        /* \"#utility.yul\":5558:5567   */\n      dup7\n        /* \"#utility.yul\":5554:5576   */\n      add\n        /* \"#utility.yul\":5533:5586   */\n      tag_334\n      jump\t// in\n    tag_387:\n        /* \"#utility.yul\":5523:5586   */\n      swap2\n      pop\n        /* \"#utility.yul\":5478:5596   */\n      pop\n        /* \"#utility.yul\":5129:5603   */\n      swap3\n      pop\n      swap3\n      swap1\n      pop\n      jump\t// out\n        /* \"#utility.yul\":5609:5788   */\n    tag_388:\n        /* \"#utility.yul\":5678:5688   */\n      0x00\n        /* \"#utility.yul\":5699:5745   */\n      tag_390\n        /* \"#utility.yul\":5741:5744   */\n      dup4\n        /* \"#utility.yul\":5733:5739   */\n      dup4\n        /* \"#utility.yul\":5699:5745   */\n      tag_391\n      jump\t// in\n    tag_390:\n        /* \"#utility.yul\":5777:5781   */\n      0x20\n        /* \"#utility.yul\":5772:5775   */\n      dup4\n        /* \"#utility.yul\":5768:5782   */\n      add\n        /* \"#utility.yul\":5754:5782   */\n      swap1\n      pop\n        /* \"#utility.yul\":5609:5788   */\n      swap3\n      swap2\n      pop\n      pop\n      jump\t// out\n        /* \"#utility.yul\":5794:6069   */\n    tag_392:\n        /* \"#utility.yul\":5911:5921   */\n      0x00\n        /* \"#utility.yul\":5932:6026   */\n      tag_394\n        /* \"#utility.yul\":6022:6025   */\n      dup4\n        /* \"#utility.yul\":6014:6020   */\n      dup4\n        /* \"#utility.yul\":5932:6026   */\n      tag_395\n      jump\t// in\n    tag_394:\n        /* \"#utility.yul\":6058:6062   */\n      0xa0\n        /* \"#utility.yul\":6053:6056   */\n      dup4\n        /* \"#utility.yul\":6049:6063   */\n      add\n        /* \"#utility.yul\":6035:6063   */\n      swap1\n      pop\n        /* \"#utility.yul\":5794:6069   */\n      swap3\n      swap2\n      pop\n      pop\n      jump\t// out\n        /* \"#utility.yul\":6075:6254   */\n    tag_396:\n        /* \"#utility.yul\":6144:6154   */\n      0x00\n        /* \"#utility.yul\":6165:6211   */\n      tag_398\n        /* \"#utility.yul\":6207:6210   */\n      dup4\n        /* \"#utility.yul\":6199:6205   */\n      dup4\n        /* \"#utility.yul\":6165:6211   */\n      tag_399\n      jump\t// in\n    tag_398:\n        /* \"#utility.yul\":6243:6247   */\n      0x20\n        /* \"#utility.yul\":6238:6241   */\n      dup4\n        /* \"#utility.yul\":6234:6248   */\n      add\n        /* \"#utility.yul\":6220:6248   */\n      swap1\n      pop\n        /* \"#utility.yul\":6075:6254   */\n      swap3\n      swap2\n      pop\n      pop\n      jump\t// out\n        /* \"#utility.yul\":6260:6368   */\n    tag_391:\n        /* \"#utility.yul\":6337:6361   */\n      tag_401\n        /* \"#utility.yul\":6355:6360   */\n      dup2\n        /* \"#utility.yul\":6337:6361   */\n      tag_402\n      jump\t// in\n    tag_401:\n        /* \"#utility.yul\":6332:6335   */\n      dup3\n        /* \"#utility.yul\":6325:6362   */\n      mstore\n        /* \"#utility.yul\":6260:6368   */\n      pop\n      pop\n      jump\t// out\n        /* \"#utility.yul\":6374:6492   */\n    tag_403:\n        /* \"#utility.yul\":6461:6485   */\n      tag_405\n        /* \"#utility.yul\":6479:6484   */\n      dup2\n        /* \"#utility.yul\":6461:6485   */\n      tag_402\n      jump\t// in\n    tag_405:\n        /* \"#utility.yul\":6456:6459   */\n      dup3\n        /* \"#utility.yul\":6449:6486   */\n      mstore\n        /* \"#utility.yul\":6374:6492   */\n      pop\n      pop\n      jump\t// out\n        /* \"#utility.yul\":6498:6655   */\n    tag_406:\n        /* \"#utility.yul\":6603:6648   */\n      tag_408\n        /* \"#utility.yul\":6623:6647   */\n      tag_409\n        /* \"#utility.yul\":6641:6646   */\n      dup3\n        /* \"#utility.yul\":6623:6647   */\n      tag_402\n      jump\t// in\n    tag_409:\n        /* \"#utility.yul\":6603:6648   */\n      tag_410\n      jump\t// in\n    tag_408:\n        /* \"#utility.yul\":6598:6601   */\n      dup3\n        /* \"#utility.yul\":6591:6649   */\n      mstore\n        /* \"#utility.yul\":6498:6655   */\n      pop\n      pop\n      jump\t// out\n        /* \"#utility.yul\":6691:7423   */\n    tag_411:\n        /* \"#utility.yul\":6810:6813   */\n      0x00\n        /* \"#utility.yul\":6839:6893   */\n      tag_413\n        /* \"#utility.yul\":6887:6892   */\n      dup3\n        /* \"#utility.yul\":6839:6893   */\n      tag_414\n      jump\t// in\n    tag_413:\n        /* \"#utility.yul\":6909:6995   */\n      tag_415\n        /* \"#utility.yul\":6988:6994   */\n      dup2\n        /* \"#utility.yul\":6983:6986   */\n      dup6\n        /* \"#utility.yul\":6909:6995   */\n      tag_416\n      jump\t// in\n    tag_415:\n        /* \"#utility.yul\":6902:6995   */\n      swap4\n      pop\n        /* \"#utility.yul\":7019:7075   */\n      tag_417\n        /* \"#utility.yul\":7069:7074   */\n      dup4\n        /* \"#utility.yul\":7019:7075   */\n      tag_418\n      jump\t// in\n    tag_417:\n        /* \"#utility.yul\":7098:7105   */\n      dup1\n        /* \"#utility.yul\":7129:7130   */\n      0x00\n        /* \"#utility.yul\":7114:7398   */\n    tag_419:\n        /* \"#utility.yul\":7139:7145   */\n      dup4\n        /* \"#utility.yul\":7136:7137   */\n      dup2\n        /* \"#utility.yul\":7133:7146   */\n      lt\n        /* \"#utility.yul\":7114:7398   */\n      iszero\n      tag_421\n      jumpi\n        /* \"#utility.yul\":7215:7221   */\n      dup2\n        /* \"#utility.yul\":7209:7222   */\n      mload\n        /* \"#utility.yul\":7242:7305   */\n      tag_422\n        /* \"#utility.yul\":7301:7304   */\n      dup9\n        /* \"#utility.yul\":7286:7299   */\n      dup3\n        /* \"#utility.yul\":7242:7305   */\n      tag_388\n      jump\t// in\n    tag_422:\n        /* \"#utility.yul\":7235:7305   */\n      swap8\n      pop\n        /* \"#utility.yul\":7328:7388   */\n      tag_423\n        /* \"#utility.yul\":7381:7387   */\n      dup4\n        /* \"#utility.yul\":7328:7388   */\n      tag_424\n      jump\t// in\n    tag_423:\n        /* \"#utility.yul\":7318:7388   */\n      swap3\n      pop\n        /* \"#utility.yul\":7174:7398   */\n      pop\n        /* \"#utility.yul\":7161:7162   */\n      0x01\n        /* \"#utility.yul\":7158:7159   */\n      dup2\n        /* \"#utility.yul\":7154:7163   */\n      add\n        /* \"#utility.yul\":7149:7163   */\n      swap1\n      pop\n        /* \"#utility.yul\":7114:7398   */\n      jump(tag_419)\n    tag_421:\n        /* \"#utility.yul\":7118:7132   */\n      pop\n        /* \"#utility.yul\":7414:7417   */\n      dup6\n        /* \"#utility.yul\":7407:7417   */\n      swap4\n      pop\n        /* \"#utility.yul\":6815:7423   */\n      pop\n      pop\n      pop\n        /* \"#utility.yul\":6691:7423   */\n      swap3\n      swap2\n      pop\n      pop\n      jump\t// out\n        /* \"#utility.yul\":7491:8415   */\n    tag_425:\n        /* \"#utility.yul\":7658:7661   */\n      0x00\n        /* \"#utility.yul\":7687:7765   */\n      tag_427\n        /* \"#utility.yul\":7759:7764   */\n      dup3\n        /* \"#utility.yul\":7687:7765   */\n      tag_428\n      jump\t// in\n    tag_427:\n        /* \"#utility.yul\":7781:7891   */\n      tag_429\n        /* \"#utility.yul\":7884:7890   */\n      dup2\n        /* \"#utility.yul\":7879:7882   */\n      dup6\n        /* \"#utility.yul\":7781:7891   */\n      tag_430\n      jump\t// in\n    tag_429:\n        /* \"#utility.yul\":7774:7891   */\n      swap4\n      pop\n        /* \"#utility.yul\":7915:7995   */\n      tag_431\n        /* \"#utility.yul\":7989:7994   */\n      dup4\n        /* \"#utility.yul\":7915:7995   */\n      tag_432\n      jump\t// in\n    tag_431:\n        /* \"#utility.yul\":8018:8025   */\n      dup1\n        /* \"#utility.yul\":8049:8050   */\n      0x00\n        /* \"#utility.yul\":8034:8390   */\n    tag_433:\n        /* \"#utility.yul\":8059:8065   */\n      dup4\n        /* \"#utility.yul\":8056:8057   */\n      dup2\n        /* \"#utility.yul\":8053:8066   */\n      lt\n        /* \"#utility.yul\":8034:8390   */\n      iszero\n      tag_435\n      jumpi\n        /* \"#utility.yul\":8135:8141   */\n      dup2\n        /* \"#utility.yul\":8129:8142   */\n      mload\n        /* \"#utility.yul\":8162:8273   */\n      tag_436\n        /* \"#utility.yul\":8269:8272   */\n      dup9\n        /* \"#utility.yul\":8254:8267   */\n      dup3\n        /* \"#utility.yul\":8162:8273   */\n      tag_392\n      jump\t// in\n    tag_436:\n        /* \"#utility.yul\":8155:8273   */\n      swap8\n      pop\n        /* \"#utility.yul\":8296:8380   */\n      tag_437\n        /* \"#utility.yul\":8373:8379   */\n      dup4\n        /* \"#utility.yul\":8296:8380   */\n      tag_438\n      jump\t// in\n    tag_437:\n        /* \"#utility.yul\":8286:8380   */\n      swap3\n      pop\n        /* \"#utility.yul\":8094:8390   */\n      pop\n        /* \"#utility.yul\":8081:8082   */\n      0x01\n        /* \"#utility.yul\":8078:8079   */\n      dup2\n        /* \"#utility.yul\":8074:8083   */\n      add\n        /* \"#utility.yul\":8069:8083   */\n      swap1\n      pop\n        /* \"#utility.yul\":8034:8390   */\n      jump(tag_433)\n    tag_435:\n        /* \"#utility.yul\":8038:8052   */\n      pop\n        /* \"#utility.yul\":8406:8409   */\n      dup6\n        /* \"#utility.yul\":8399:8409   */\n      swap4\n      pop\n        /* \"#utility.yul\":7663:8415   */\n      pop\n      pop\n      pop\n        /* \"#utility.yul\":7491:8415   */\n      swap3\n      swap2\n      pop\n      pop\n      jump\t// out\n        /* \"#utility.yul\":8451:9183   */\n    tag_439:\n        /* \"#utility.yul\":8570:8573   */\n      0x00\n        /* \"#utility.yul\":8599:8653   */\n      tag_441\n        /* \"#utility.yul\":8647:8652   */\n      dup3\n        /* \"#utility.yul\":8599:8653   */\n      tag_442\n      jump\t// in\n    tag_441:\n        /* \"#utility.yul\":8669:8755   */\n      tag_443\n        /* \"#utility.yul\":8748:8754   */\n      dup2\n        /* \"#utility.yul\":8743:8746   */\n      dup6\n        /* \"#utility.yul\":8669:8755   */\n      tag_444\n      jump\t// in\n    tag_443:\n        /* \"#utility.yul\":8662:8755   */\n      swap4\n      pop\n        /* \"#utility.yul\":8779:8835   */\n      tag_445\n        /* \"#utility.yul\":8829:8834   */\n      dup4\n        /* \"#utility.yul\":8779:8835   */\n      tag_446\n      jump\t// in\n    tag_445:\n        /* \"#utility.yul\":8858:8865   */\n      dup1\n        /* \"#utility.yul\":8889:8890   */\n      0x00\n        /* \"#utility.yul\":8874:9158   */\n    tag_447:\n        /* \"#utility.yul\":8899:8905   */\n      dup4\n        /* \"#utility.yul\":8896:8897   */\n      dup2\n        /* \"#utility.yul\":8893:8906   */\n      lt\n        /* \"#utility.yul\":8874:9158   */\n      iszero\n      tag_449\n      jumpi\n        /* \"#utility.yul\":8975:8981   */\n      dup2\n        /* \"#utility.yul\":8969:8982   */\n      mload\n        /* \"#utility.yul\":9002:9065   */\n      tag_450\n        /* \"#utility.yul\":9061:9064   */\n      dup9\n        /* \"#utility.yul\":9046:9059   */\n      dup3\n        /* \"#utility.yul\":9002:9065   */\n      tag_396\n      jump\t// in\n    tag_450:\n        /* \"#utility.yul\":8995:9065   */\n      swap8\n      pop\n        /* \"#utility.yul\":9088:9148   */\n      tag_451\n        /* \"#utility.yul\":9141:9147   */\n      dup4\n        /* \"#utility.yul\":9088:9148   */\n      tag_452\n      jump\t// in\n    tag_451:\n        /* \"#utility.yul\":9078:9148   */\n      swap3\n      pop\n        /* \"#utility.yul\":8934:9158   */\n      pop\n        /* \"#utility.yul\":8921:8922   */\n      0x01\n        /* \"#utility.yul\":8918:8919   */\n      dup2\n        /* \"#utility.yul\":8914:8923   */\n      add\n        /* \"#utility.yul\":8909:8923   */\n      swap1\n      pop\n        /* \"#utility.yul\":8874:9158   */\n      jump(tag_447)\n    tag_449:\n        /* \"#utility.yul\":8878:8892   */\n      pop\n        /* \"#utility.yul\":9174:9177   */\n      dup6\n        /* \"#utility.yul\":9167:9177   */\n      swap4\n      pop\n        /* \"#utility.yul\":8575:9183   */\n      pop\n      pop\n      pop\n        /* \"#utility.yul\":8451:9183   */\n      swap3\n      swap2\n      pop\n      pop\n      jump\t// out\n        /* \"#utility.yul\":9189:9298   */\n    tag_453:\n        /* \"#utility.yul\":9270:9291   */\n      tag_455\n        /* \"#utility.yul\":9285:9290   */\n      dup2\n        /* \"#utility.yul\":9270:9291   */\n      tag_456\n      jump\t// in\n    tag_455:\n        /* \"#utility.yul\":9265:9268   */\n      dup3\n        /* \"#utility.yul\":9258:9292   */\n      mstore\n        /* \"#utility.yul\":9189:9298   */\n      pop\n      pop\n      jump\t// out\n        /* \"#utility.yul\":9304:9463   */\n    tag_457:\n        /* \"#utility.yul\":9405:9456   */\n      tag_459\n        /* \"#utility.yul\":9450:9455   */\n      dup2\n        /* \"#utility.yul\":9405:9456   */\n      tag_460\n      jump\t// in\n    tag_459:\n        /* \"#utility.yul\":9400:9403   */\n      dup3\n        /* \"#utility.yul\":9393:9457   */\n      mstore\n        /* \"#utility.yul\":9304:9463   */\n      pop\n      pop\n      jump\t// out\n        /* \"#utility.yul\":9469:9835   */\n    tag_461:\n        /* \"#utility.yul\":9611:9614   */\n      0x00\n        /* \"#utility.yul\":9632:9699   */\n      tag_463\n        /* \"#utility.yul\":9696:9698   */\n      0x26\n        /* \"#utility.yul\":9691:9694   */\n      dup4\n        /* \"#utility.yul\":9632:9699   */\n      tag_464\n      jump\t// in\n    tag_463:\n        /* \"#utility.yul\":9625:9699   */\n      swap2\n      pop\n        /* \"#utility.yul\":9708:9801   */\n      tag_465\n        /* \"#utility.yul\":9797:9800   */\n      dup3\n        /* \"#utility.yul\":9708:9801   */\n      tag_466\n      jump\t// in\n    tag_465:\n        /* \"#utility.yul\":9826:9828   */\n      0x40\n        /* \"#utility.yul\":9821:9824   */\n      dup3\n        /* \"#utility.yul\":9817:9829   */\n      add\n        /* \"#utility.yul\":9810:9829   */\n      swap1\n      pop\n        /* \"#utility.yul\":9469:9835   */\n      swap2\n      swap1\n      pop\n      jump\t// out\n        /* \"#utility.yul\":9841:10207   */\n    tag_467:\n        /* \"#utility.yul\":9983:9986   */\n      0x00\n        /* \"#utility.yul\":10004:10071   */\n      tag_469\n        /* \"#utility.yul\":10068:10070   */\n      0x0b\n        /* \"#utility.yul\":10063:10066   */\n      dup4\n        /* \"#utility.yul\":10004:10071   */\n      tag_464\n      jump\t// in\n    tag_469:\n        /* \"#utility.yul\":9997:10071   */\n      swap2\n      pop\n        /* \"#utility.yul\":10080:10173   */\n      tag_470\n        /* \"#utility.yul\":10169:10172   */\n      dup3\n        /* \"#utility.yul\":10080:10173   */\n      tag_471\n      jump\t// in\n    tag_470:\n        /* \"#utility.yul\":10198:10200   */\n      0x20\n        /* \"#utility.yul\":10193:10196   */\n      dup3\n        /* \"#utility.yul\":10189:10201   */\n      add\n        /* \"#utility.yul\":10182:10201   */\n      swap1\n      pop\n        /* \"#utility.yul\":9841:10207   */\n      swap2\n      swap1\n      pop\n      jump\t// out\n        /* \"#utility.yul\":10213:10579   */\n    tag_472:\n        /* \"#utility.yul\":10355:10358   */\n      0x00\n        /* \"#utility.yul\":10376:10443   */\n      tag_474\n        /* \"#utility.yul\":10440:10442   */\n      0x20\n        /* \"#utility.yul\":10435:10438   */\n      dup4\n        /* \"#utility.yul\":10376:10443   */\n      tag_464\n      jump\t// in\n    tag_474:\n        /* \"#utility.yul\":10369:10443   */\n      swap2\n      pop\n        /* \"#utility.yul\":10452:10545   */\n      tag_475\n        /* \"#utility.yul\":10541:10544   */\n      dup3\n        /* \"#utility.yul\":10452:10545   */\n      tag_476\n      jump\t// in\n    tag_475:\n        /* \"#utility.yul\":10570:10572   */\n      0x20\n        /* \"#utility.yul\":10565:10568   */\n      dup3\n        /* \"#utility.yul\":10561:10573   */\n      add\n        /* \"#utility.yul\":10554:10573   */\n      swap1\n      pop\n        /* \"#utility.yul\":10213:10579   */\n      swap2\n      swap1\n      pop\n      jump\t// out\n        /* \"#utility.yul\":10585:10951   */\n    tag_477:\n        /* \"#utility.yul\":10727:10730   */\n      0x00\n        /* \"#utility.yul\":10748:10815   */\n      tag_479\n        /* \"#utility.yul\":10812:10814   */\n      0x1d\n        /* \"#utility.yul\":10807:10810   */\n      dup4\n        /* \"#utility.yul\":10748:10815   */\n      tag_464\n      jump\t// in\n    tag_479:\n        /* \"#utility.yul\":10741:10815   */\n      swap2\n      pop\n        /* \"#utility.yul\":10824:10917   */\n      tag_480\n        /* \"#utility.yul\":10913:10916   */\n      dup3\n        /* \"#utility.yul\":10824:10917   */\n      tag_481\n      jump\t// in\n    tag_480:\n        /* \"#utility.yul\":10942:10944   */\n      0x20\n        /* \"#utility.yul\":10937:10940   */\n      dup3\n        /* \"#utility.yul\":10933:10945   */\n      add\n        /* \"#utility.yul\":10926:10945   */\n      swap1\n      pop\n        /* \"#utility.yul\":10585:10951   */\n      swap2\n      swap1\n      pop\n      jump\t// out\n        /* \"#utility.yul\":11015:12064   */\n    tag_395:\n        /* \"#utility.yul\":11150:11154   */\n      0xa0\n        /* \"#utility.yul\":11145:11148   */\n      dup3\n        /* \"#utility.yul\":11141:11155   */\n      add\n        /* \"#utility.yul\":11245:11249   */\n      0x00\n        /* \"#utility.yul\":11238:11243   */\n      dup3\n        /* \"#utility.yul\":11234:11250   */\n      add\n        /* \"#utility.yul\":11228:11251   */\n      mload\n        /* \"#utility.yul\":11264:11327   */\n      tag_483\n        /* \"#utility.yul\":11321:11325   */\n      0x00\n        /* \"#utility.yul\":11316:11319   */\n      dup6\n        /* \"#utility.yul\":11312:11326   */\n      add\n        /* \"#utility.yul\":11298:11310   */\n      dup3\n        /* \"#utility.yul\":11264:11327   */\n      tag_399\n      jump\t// in\n    tag_483:\n        /* \"#utility.yul\":11165:11337   */\n      pop\n        /* \"#utility.yul\":11428:11432   */\n      0x20\n        /* \"#utility.yul\":11421:11426   */\n      dup3\n        /* \"#utility.yul\":11417:11433   */\n      add\n        /* \"#utility.yul\":11411:11434   */\n      mload\n        /* \"#utility.yul\":11447:11510   */\n      tag_484\n        /* \"#utility.yul\":11504:11508   */\n      0x20\n        /* \"#utility.yul\":11499:11502   */\n      dup6\n        /* \"#utility.yul\":11495:11509   */\n      add\n        /* \"#utility.yul\":11481:11493   */\n      dup3\n        /* \"#utility.yul\":11447:11510   */\n      tag_399\n      jump\t// in\n    tag_484:\n        /* \"#utility.yul\":11347:11520   */\n      pop\n        /* \"#utility.yul\":11604:11608   */\n      0x40\n        /* \"#utility.yul\":11597:11602   */\n      dup3\n        /* \"#utility.yul\":11593:11609   */\n      add\n        /* \"#utility.yul\":11587:11610   */\n      mload\n        /* \"#utility.yul\":11623:11686   */\n      tag_485\n        /* \"#utility.yul\":11680:11684   */\n      0x40\n        /* \"#utility.yul\":11675:11678   */\n      dup6\n        /* \"#utility.yul\":11671:11685   */\n      add\n        /* \"#utility.yul\":11657:11669   */\n      dup3\n        /* \"#utility.yul\":11623:11686   */\n      tag_399\n      jump\t// in\n    tag_485:\n        /* \"#utility.yul\":11530:11696   */\n      pop\n        /* \"#utility.yul\":11781:11785   */\n      0x60\n        /* \"#utility.yul\":11774:11779   */\n      dup3\n        /* \"#utility.yul\":11770:11786   */\n      add\n        /* \"#utility.yul\":11764:11787   */\n      mload\n        /* \"#utility.yul\":11800:11863   */\n      tag_486\n        /* \"#utility.yul\":11857:11861   */\n      0x60\n        /* \"#utility.yul\":11852:11855   */\n      dup6\n        /* \"#utility.yul\":11848:11862   */\n      add\n        /* \"#utility.yul\":11834:11846   */\n      dup3\n        /* \"#utility.yul\":11800:11863   */\n      tag_399\n      jump\t// in\n    tag_486:\n        /* \"#utility.yul\":11706:11873   */\n      pop\n        /* \"#utility.yul\":11965:11969   */\n      0x80\n        /* \"#utility.yul\":11958:11963   */\n      dup3\n        /* \"#utility.yul\":11954:11970   */\n      add\n        /* \"#utility.yul\":11948:11971   */\n      mload\n        /* \"#utility.yul\":11984:12047   */\n      tag_487\n        /* \"#utility.yul\":12041:12045   */\n      0x80\n        /* \"#utility.yul\":12036:12039   */\n      dup6\n        /* \"#utility.yul\":12032:12046   */\n      add\n        /* \"#utility.yul\":12018:12030   */\n      dup3\n        /* \"#utility.yul\":11984:12047   */\n      tag_391\n      jump\t// in\n    tag_487:\n        /* \"#utility.yul\":11883:12057   */\n      pop\n        /* \"#utility.yul\":11119:12064   */\n      pop\n        /* \"#utility.yul\":11015:12064   */\n      pop\n      pop\n      jump\t// out\n        /* \"#utility.yul\":12070:12178   */\n    tag_399:\n        /* \"#utility.yul\":12147:12171   */\n      tag_489\n        /* \"#utility.yul\":12165:12170   */\n      dup2\n        /* \"#utility.yul\":12147:12171   */\n      tag_490\n      jump\t// in\n    tag_489:\n        /* \"#utility.yul\":12142:12145   */\n      dup3\n        /* \"#utility.yul\":12135:12172   */\n      mstore\n        /* \"#utility.yul\":12070:12178   */\n      pop\n      pop\n      jump\t// out\n        /* \"#utility.yul\":12184:12302   */\n    tag_491:\n        /* \"#utility.yul\":12271:12295   */\n      tag_493\n        /* \"#utility.yul\":12289:12294   */\n      dup2\n        /* \"#utility.yul\":12271:12295   */\n      tag_490\n      jump\t// in\n    tag_493:\n        /* \"#utility.yul\":12266:12269   */\n      dup3\n        /* \"#utility.yul\":12259:12296   */\n      mstore\n        /* \"#utility.yul\":12184:12302   */\n      pop\n      pop\n      jump\t// out\n        /* \"#utility.yul\":12308:12465   */\n    tag_494:\n        /* \"#utility.yul\":12413:12458   */\n      tag_496\n        /* \"#utility.yul\":12433:12457   */\n      tag_497\n        /* \"#utility.yul\":12451:12456   */\n      dup3\n        /* \"#utility.yul\":12433:12457   */\n      tag_490\n      jump\t// in\n    tag_497:\n        /* \"#utility.yul\":12413:12458   */\n      tag_498\n      jump\t// in\n    tag_496:\n        /* \"#utility.yul\":12408:12411   */\n      dup3\n        /* \"#utility.yul\":12401:12459   */\n      mstore\n        /* \"#utility.yul\":12308:12465   */\n      pop\n      pop\n      jump\t// out\n        /* \"#utility.yul\":12471:13291   */\n    tag_307:\n        /* \"#utility.yul\":12695:12698   */\n      0x00\n        /* \"#utility.yul\":12710:12785   */\n      tag_500\n        /* \"#utility.yul\":12781:12784   */\n      dup3\n        /* \"#utility.yul\":12772:12778   */\n      dup9\n        /* \"#utility.yul\":12710:12785   */\n      tag_494\n      jump\t// in\n    tag_500:\n        /* \"#utility.yul\":12810:12812   */\n      0x20\n        /* \"#utility.yul\":12805:12808   */\n      dup3\n        /* \"#utility.yul\":12801:12813   */\n      add\n        /* \"#utility.yul\":12794:12813   */\n      swap2\n      pop\n        /* \"#utility.yul\":12823:12898   */\n      tag_501\n        /* \"#utility.yul\":12894:12897   */\n      dup3\n        /* \"#utility.yul\":12885:12891   */\n      dup8\n        /* \"#utility.yul\":12823:12898   */\n      tag_494\n      jump\t// in\n    tag_501:\n        /* \"#utility.yul\":12923:12925   */\n      0x20\n        /* \"#utility.yul\":12918:12921   */\n      dup3\n        /* \"#utility.yul\":12914:12926   */\n      add\n        /* \"#utility.yul\":12907:12926   */\n      swap2\n      pop\n        /* \"#utility.yul\":12936:13011   */\n      tag_502\n        /* \"#utility.yul\":13007:13010   */\n      dup3\n        /* \"#utility.yul\":12998:13004   */\n      dup7\n        /* \"#utility.yul\":12936:13011   */\n      tag_494\n      jump\t// in\n    tag_502:\n        /* \"#utility.yul\":13036:13038   */\n      0x20\n        /* \"#utility.yul\":13031:13034   */\n      dup3\n        /* \"#utility.yul\":13027:13039   */\n      add\n        /* \"#utility.yul\":13020:13039   */\n      swap2\n      pop\n        /* \"#utility.yul\":13049:13124   */\n      tag_503\n        /* \"#utility.yul\":13120:13123   */\n      dup3\n        /* \"#utility.yul\":13111:13117   */\n      dup6\n        /* \"#utility.yul\":13049:13124   */\n      tag_406\n      jump\t// in\n    tag_503:\n        /* \"#utility.yul\":13149:13151   */\n      0x14\n        /* \"#utility.yul\":13144:13147   */\n      dup3\n        /* \"#utility.yul\":13140:13152   */\n      add\n        /* \"#utility.yul\":13133:13152   */\n      swap2\n      pop\n        /* \"#utility.yul\":13162:13237   */\n      tag_504\n        /* \"#utility.yul\":13233:13236   */\n      dup3\n        /* \"#utility.yul\":13224:13230   */\n      dup5\n        /* \"#utility.yul\":13162:13237   */\n      tag_494\n      jump\t// in\n    tag_504:\n        /* \"#utility.yul\":13262:13264   */\n      0x20\n        /* \"#utility.yul\":13257:13260   */\n      dup3\n        /* \"#utility.yul\":13253:13265   */\n      add\n        /* \"#utility.yul\":13246:13265   */\n      swap2\n      pop\n        /* \"#utility.yul\":13282:13285   */\n      dup2\n        /* \"#utility.yul\":13275:13285   */\n      swap1\n      pop\n        /* \"#utility.yul\":12471:13291   */\n      swap7\n      swap6\n      pop\n      pop\n      pop\n      pop\n      pop\n      pop\n      jump\t// out\n        /* \"#utility.yul\":13297:13519   */\n    tag_55:\n        /* \"#utility.yul\":13390:13394   */\n      0x00\n        /* \"#utility.yul\":13428:13430   */\n      0x20\n        /* \"#utility.yul\":13417:13426   */\n      dup3\n        /* \"#utility.yul\":13413:13431   */\n      add\n        /* \"#utility.yul\":13405:13431   */\n      swap1\n      pop\n        /* \"#utility.yul\":13441:13512   */\n      tag_506\n        /* \"#utility.yul\":13509:13510   */\n      0x00\n        /* \"#utility.yul\":13498:13507   */\n      dup4\n        /* \"#utility.yul\":13494:13511   */\n      add\n        /* \"#utility.yul\":13485:13491   */\n      dup5\n        /* \"#utility.yul\":13441:13512   */\n      tag_403\n      jump\t// in\n    tag_506:\n        /* \"#utility.yul\":13297:13519   */\n      swap3\n      swap2\n      pop\n      pop\n      jump\t// out\n        /* \"#utility.yul\":13525:13857   */\n    tag_208:\n        /* \"#utility.yul\":13646:13650   */\n      0x00\n        /* \"#utility.yul\":13684:13686   */\n      0x40\n        /* \"#utility.yul\":13673:13682   */\n      dup3\n        /* \"#utility.yul\":13669:13687   */\n      add\n        /* \"#utility.yul\":13661:13687   */\n      swap1\n      pop\n        /* \"#utility.yul\":13697:13768   */\n      tag_508\n        /* \"#utility.yul\":13765:13766   */\n      0x00\n        /* \"#utility.yul\":13754:13763   */\n      dup4\n        /* \"#utility.yul\":13750:13767   */\n      add\n        /* \"#utility.yul\":13741:13747   */\n      dup6\n        /* \"#utility.yul\":13697:13768   */\n      tag_403\n      jump\t// in\n    tag_508:\n        /* \"#utility.yul\":13778:13850   */\n      tag_509\n        /* \"#utility.yul\":13846:13848   */\n      0x20\n        /* \"#utility.yul\":13835:13844   */\n      dup4\n        /* \"#utility.yul\":13831:13849   */\n      add\n        /* \"#utility.yul\":13822:13828   */\n      dup5\n        /* \"#utility.yul\":13778:13850   */\n      tag_491\n      jump\t// in\n    tag_509:\n        /* \"#utility.yul\":13525:13857   */\n      swap4\n      swap3\n      pop\n      pop\n      pop\n      jump\t// out\n        /* \"#utility.yul\":13863:14497   */\n    tag_45:\n        /* \"#utility.yul\":14084:14088   */\n      0x00\n        /* \"#utility.yul\":14122:14124   */\n      0x40\n        /* \"#utility.yul\":14111:14120   */\n      dup3\n        /* \"#utility.yul\":14107:14125   */\n      add\n        /* \"#utility.yul\":14099:14125   */\n      swap1\n      pop\n        /* \"#utility.yul\":14171:14180   */\n      dup2\n        /* \"#utility.yul\":14165:14169   */\n      dup2\n        /* \"#utility.yul\":14161:14181   */\n      sub\n        /* \"#utility.yul\":14157:14158   */\n      0x00\n        /* \"#utility.yul\":14146:14155   */\n      dup4\n        /* \"#utility.yul\":14142:14159   */\n      add\n        /* \"#utility.yul\":14135:14182   */\n      mstore\n        /* \"#utility.yul\":14199:14307   */\n      tag_511\n        /* \"#utility.yul\":14302:14306   */\n      dup2\n        /* \"#utility.yul\":14293:14299   */\n      dup6\n        /* \"#utility.yul\":14199:14307   */\n      tag_411\n      jump\t// in\n    tag_511:\n        /* \"#utility.yul\":14191:14307   */\n      swap1\n      pop\n        /* \"#utility.yul\":14354:14363   */\n      dup2\n        /* \"#utility.yul\":14348:14352   */\n      dup2\n        /* \"#utility.yul\":14344:14364   */\n      sub\n        /* \"#utility.yul\":14339:14341   */\n      0x20\n        /* \"#utility.yul\":14328:14337   */\n      dup4\n        /* \"#utility.yul\":14324:14342   */\n      add\n        /* \"#utility.yul\":14317:14365   */\n      mstore\n        /* \"#utility.yul\":14382:14490   */\n      tag_512\n        /* \"#utility.yul\":14485:14489   */\n      dup2\n        /* \"#utility.yul\":14476:14482   */\n      dup5\n        /* \"#utility.yul\":14382:14490   */\n      tag_439\n      jump\t// in\n    tag_512:\n        /* \"#utility.yul\":14374:14490   */\n      swap1\n      pop\n        /* \"#utility.yul\":13863:14497   */\n      swap4\n      swap3\n      pop\n      pop\n      pop\n      jump\t// out\n        /* \"#utility.yul\":14503:14972   */\n    tag_106:\n        /* \"#utility.yul\":14694:14698   */\n      0x00\n        /* \"#utility.yul\":14732:14734   */\n      0x20\n        /* \"#utility.yul\":14721:14730   */\n      dup3\n        /* \"#utility.yul\":14717:14735   */\n      add\n        /* \"#utility.yul\":14709:14735   */\n      swap1\n      pop\n        /* \"#utility.yul\":14781:14790   */\n      dup2\n        /* \"#utility.yul\":14775:14779   */\n      dup2\n        /* \"#utility.yul\":14771:14791   */\n      sub\n        /* \"#utility.yul\":14767:14768   */\n      0x00\n        /* \"#utility.yul\":14756:14765   */\n      dup4\n        /* \"#utility.yul\":14752:14769   */\n      add\n        /* \"#utility.yul\":14745:14792   */\n      mstore\n        /* \"#utility.yul\":14809:14965   */\n      tag_514\n        /* \"#utility.yul\":14960:14964   */\n      dup2\n        /* \"#utility.yul\":14951:14957   */\n      dup5\n        /* \"#utility.yul\":14809:14965   */\n      tag_425\n      jump\t// in\n    tag_514:\n        /* \"#utility.yul\":14801:14965   */\n      swap1\n      pop\n        /* \"#utility.yul\":14503:14972   */\n      swap3\n      swap2\n      pop\n      pop\n      jump\t// out\n        /* \"#utility.yul\":14978:15188   */\n    tag_65:\n        /* \"#utility.yul\":15065:15069   */\n      0x00\n        /* \"#utility.yul\":15103:15105   */\n      0x20\n        /* \"#utility.yul\":15092:15101   */\n      dup3\n        /* \"#utility.yul\":15088:15106   */\n      add\n        /* \"#utility.yul\":15080:15106   */\n      swap1\n      pop\n        /* \"#utility.yul\":15116:15181   */\n      tag_516\n        /* \"#utility.yul\":15178:15179   */\n      0x00\n        /* \"#utility.yul\":15167:15176   */\n      dup4\n        /* \"#utility.yul\":15163:15180   */\n      add\n        /* \"#utility.yul\":15154:15160   */\n      dup5\n        /* \"#utility.yul\":15116:15181   */\n      tag_453\n      jump\t// in\n    tag_516:\n        /* \"#utility.yul\":14978:15188   */\n      swap3\n      swap2\n      pop\n      pop\n      jump\t// out\n        /* \"#utility.yul\":15194:15444   */\n    tag_59:\n        /* \"#utility.yul\":15301:15305   */\n      0x00\n        /* \"#utility.yul\":15339:15341   */\n      0x20\n        /* \"#utility.yul\":15328:15337   */\n      dup3\n        /* \"#utility.yul\":15324:15342   */\n      add\n        /* \"#utility.yul\":15316:15342   */\n      swap1\n      pop\n        /* \"#utility.yul\":15352:15437   */\n      tag_518\n        /* \"#utility.yul\":15434:15435   */\n      0x00\n        /* \"#utility.yul\":15423:15432   */\n      dup4\n        /* \"#utility.yul\":15419:15436   */\n      add\n        /* \"#utility.yul\":15410:15416   */\n      dup5\n        /* \"#utility.yul\":15352:15437   */\n      tag_457\n      jump\t// in\n    tag_518:\n        /* \"#utility.yul\":15194:15444   */\n      swap3\n      swap2\n      pop\n      pop\n      jump\t// out\n        /* \"#utility.yul\":15450:15869   */\n    tag_289:\n        /* \"#utility.yul\":15616:15620   */\n      0x00\n        /* \"#utility.yul\":15654:15656   */\n      0x20\n        /* \"#utility.yul\":15643:15652   */\n      dup3\n        /* \"#utility.yul\":15639:15657   */\n      add\n        /* \"#utility.yul\":15631:15657   */\n      swap1\n      pop\n        /* \"#utility.yul\":15703:15712   */\n      dup2\n        /* \"#utility.yul\":15697:15701   */\n      dup2\n        /* \"#utility.yul\":15693:15713   */\n      sub\n        /* \"#utility.yul\":15689:15690   */\n      0x00\n        /* \"#utility.yul\":15678:15687   */\n      dup4\n        /* \"#utility.yul\":15674:15691   */\n      add\n        /* \"#utility.yul\":15667:15714   */\n      mstore\n        /* \"#utility.yul\":15731:15862   */\n      tag_520\n        /* \"#utility.yul\":15857:15861   */\n      dup2\n        /* \"#utility.yul\":15731:15862   */\n      tag_461\n      jump\t// in\n    tag_520:\n        /* \"#utility.yul\":15723:15862   */\n      swap1\n      pop\n        /* \"#utility.yul\":15450:15869   */\n      swap2\n      swap1\n      pop\n      jump\t// out\n        /* \"#utility.yul\":15875:16294   */\n    tag_165:\n        /* \"#utility.yul\":16041:16045   */\n      0x00\n        /* \"#utility.yul\":16079:16081   */\n      0x20\n        /* \"#utility.yul\":16068:16077   */\n      dup3\n        /* \"#utility.yul\":16064:16082   */\n      add\n        /* \"#utility.yul\":16056:16082   */\n      swap1\n      pop\n        /* \"#utility.yul\":16128:16137   */\n      dup2\n        /* \"#utility.yul\":16122:16126   */\n      dup2\n        /* \"#utility.yul\":16118:16138   */\n      sub\n        /* \"#utility.yul\":16114:16115   */\n      0x00\n        /* \"#utility.yul\":16103:16112   */\n      dup4\n        /* \"#utility.yul\":16099:16116   */\n      add\n        /* \"#utility.yul\":16092:16139   */\n      mstore\n        /* \"#utility.yul\":16156:16287   */\n      tag_522\n        /* \"#utility.yul\":16282:16286   */\n      dup2\n        /* \"#utility.yul\":16156:16287   */\n      tag_467\n      jump\t// in\n    tag_522:\n        /* \"#utility.yul\":16148:16287   */\n      swap1\n      pop\n        /* \"#utility.yul\":15875:16294   */\n      swap2\n      swap1\n      pop\n      jump\t// out\n        /* \"#utility.yul\":16300:16719   */\n    tag_203:\n        /* \"#utility.yul\":16466:16470   */\n      0x00\n        /* \"#utility.yul\":16504:16506   */\n      0x20\n        /* \"#utility.yul\":16493:16502   */\n      dup3\n        /* \"#utility.yul\":16489:16507   */\n      add\n        /* \"#utility.yul\":16481:16507   */\n      swap1\n      pop\n        /* \"#utility.yul\":16553:16562   */\n      dup2\n        /* \"#utility.yul\":16547:16551   */\n      dup2\n        /* \"#utility.yul\":16543:16563   */\n      sub\n        /* \"#utility.yul\":16539:16540   */\n      0x00\n        /* \"#utility.yul\":16528:16537   */\n      dup4\n        /* \"#utility.yul\":16524:16541   */\n      add\n        /* \"#utility.yul\":16517:16564   */\n      mstore\n        /* \"#utility.yul\":16581:16712   */\n      tag_524\n        /* \"#utility.yul\":16707:16711   */\n      dup2\n        /* \"#utility.yul\":16581:16712   */\n      tag_472\n      jump\t// in\n    tag_524:\n        /* \"#utility.yul\":16573:16712   */\n      swap1\n      pop\n        /* \"#utility.yul\":16300:16719   */\n      swap2\n      swap1\n      pop\n      jump\t// out\n        /* \"#utility.yul\":16725:17144   */\n    tag_188:\n        /* \"#utility.yul\":16891:16895   */\n      0x00\n        /* \"#utility.yul\":16929:16931   */\n      0x20\n        /* \"#utility.yul\":16918:16927   */\n      dup3\n        /* \"#utility.yul\":16914:16932   */\n      add\n        /* \"#utility.yul\":16906:16932   */\n      swap1\n      pop\n        /* \"#utility.yul\":16978:16987   */\n      dup2\n        /* \"#utility.yul\":16972:16976   */\n      dup2\n        /* \"#utility.yul\":16968:16988   */\n      sub\n        /* \"#utility.yul\":16964:16965   */\n      0x00\n        /* \"#utility.yul\":16953:16962   */\n      dup4\n        /* \"#utility.yul\":16949:16966   */\n      add\n        /* \"#utility.yul\":16942:16989   */\n      mstore\n        /* \"#utility.yul\":17006:17137   */\n      tag_526\n        /* \"#utility.yul\":17132:17136   */\n      dup2\n        /* \"#utility.yul\":17006:17137   */\n      tag_477\n      jump\t// in\n    tag_526:\n        /* \"#utility.yul\":16998:17137   */\n      swap1\n      pop\n        /* \"#utility.yul\":16725:17144   */\n      swap2\n      swap1\n      pop\n      jump\t// out\n        /* \"#utility.yul\":17150:17372   */\n    tag_35:\n        /* \"#utility.yul\":17243:17247   */\n      0x00\n        /* \"#utility.yul\":17281:17283   */\n      0x20\n        /* \"#utility.yul\":17270:17279   */\n      dup3\n        /* \"#utility.yul\":17266:17284   */\n      add\n        /* \"#utility.yul\":17258:17284   */\n      swap1\n      pop\n        /* \"#utility.yul\":17294:17365   */\n      tag_528\n        /* \"#utility.yul\":17362:17363   */\n      0x00\n        /* \"#utility.yul\":17351:17360   */\n      dup4\n        /* \"#utility.yul\":17347:17364   */\n      add\n        /* \"#utility.yul\":17338:17344   */\n      dup5\n        /* \"#utility.yul\":17294:17365   */\n      tag_491\n      jump\t// in\n    tag_528:\n        /* \"#utility.yul\":17150:17372   */\n      swap3\n      swap2\n      pop\n      pop\n      jump\t// out\n        /* \"#utility.yul\":17378:17710   */\n    tag_117:\n        /* \"#utility.yul\":17499:17503   */\n      0x00\n        /* \"#utility.yul\":17537:17539   */\n      0x40\n        /* \"#utility.yul\":17526:17535   */\n      dup3\n        /* \"#utility.yul\":17522:17540   */\n      add\n        /* \"#utility.yul\":17514:17540   */\n      swap1\n      pop\n        /* \"#utility.yul\":17550:17621   */\n      tag_530\n        /* \"#utility.yul\":17618:17619   */\n      0x00\n        /* \"#utility.yul\":17607:17616   */\n      dup4\n        /* \"#utility.yul\":17603:17620   */\n      add\n        /* \"#utility.yul\":17594:17600   */\n      dup6\n        /* \"#utility.yul\":17550:17621   */\n      tag_491\n      jump\t// in\n    tag_530:\n        /* \"#utility.yul\":17631:17703   */\n      tag_531\n        /* \"#utility.yul\":17699:17701   */\n      0x20\n        /* \"#utility.yul\":17688:17697   */\n      dup4\n        /* \"#utility.yul\":17684:17702   */\n      add\n        /* \"#utility.yul\":17675:17681   */\n      dup5\n        /* \"#utility.yul\":17631:17703   */\n      tag_403\n      jump\t// in\n    tag_531:\n        /* \"#utility.yul\":17378:17710   */\n      swap4\n      swap3\n      pop\n      pop\n      pop\n      jump\t// out\n        /* \"#utility.yul\":17716:18380   */\n    tag_97:\n        /* \"#utility.yul\":17921:17925   */\n      0x00\n        /* \"#utility.yul\":17959:17962   */\n      0xa0\n        /* \"#utility.yul\":17948:17957   */\n      dup3\n        /* \"#utility.yul\":17944:17963   */\n      add\n        /* \"#utility.yul\":17936:17963   */\n      swap1\n      pop\n        /* \"#utility.yul\":17973:18044   */\n      tag_533\n        /* \"#utility.yul\":18041:18042   */\n      0x00\n        /* \"#utility.yul\":18030:18039   */\n      dup4\n        /* \"#utility.yul\":18026:18043   */\n      add\n        /* \"#utility.yul\":18017:18023   */\n      dup9\n        /* \"#utility.yul\":17973:18044   */\n      tag_491\n      jump\t// in\n    tag_533:\n        /* \"#utility.yul\":18054:18126   */\n      tag_534\n        /* \"#utility.yul\":18122:18124   */\n      0x20\n        /* \"#utility.yul\":18111:18120   */\n      dup4\n        /* \"#utility.yul\":18107:18125   */\n      add\n        /* \"#utility.yul\":18098:18104   */\n      dup8\n        /* \"#utility.yul\":18054:18126   */\n      tag_491\n      jump\t// in\n    tag_534:\n        /* \"#utility.yul\":18136:18208   */\n      tag_535\n        /* \"#utility.yul\":18204:18206   */\n      0x40\n        /* \"#utility.yul\":18193:18202   */\n      dup4\n        /* \"#utility.yul\":18189:18207   */\n      add\n        /* \"#utility.yul\":18180:18186   */\n      dup7\n        /* \"#utility.yul\":18136:18208   */\n      tag_491\n      jump\t// in\n    tag_535:\n        /* \"#utility.yul\":18218:18290   */\n      tag_536\n        /* \"#utility.yul\":18286:18288   */\n      0x60\n        /* \"#utility.yul\":18275:18284   */\n      dup4\n        /* \"#utility.yul\":18271:18289   */\n      add\n        /* \"#utility.yul\":18262:18268   */\n      dup6\n        /* \"#utility.yul\":18218:18290   */\n      tag_491\n      jump\t// in\n    tag_536:\n        /* \"#utility.yul\":18300:18373   */\n      tag_537\n        /* \"#utility.yul\":18368:18371   */\n      0x80\n        /* \"#utility.yul\":18357:18366   */\n      dup4\n        /* \"#utility.yul\":18353:18372   */\n      add\n        /* \"#utility.yul\":18344:18350   */\n      dup5\n        /* \"#utility.yul\":18300:18373   */\n      tag_403\n      jump\t// in\n    tag_537:\n        /* \"#utility.yul\":17716:18380   */\n      swap7\n      swap6\n      pop\n      pop\n      pop\n      pop\n      pop\n      pop\n      jump\t// out\n        /* \"#utility.yul\":18386:18515   */\n    tag_314:\n        /* \"#utility.yul\":18420:18426   */\n      0x00\n        /* \"#utility.yul\":18447:18467   */\n      tag_539\n      tag_540\n      jump\t// in\n    tag_539:\n        /* \"#utility.yul\":18437:18467   */\n      swap1\n      pop\n        /* \"#utility.yul\":18476:18509   */\n      tag_541\n        /* \"#utility.yul\":18504:18508   */\n      dup3\n        /* \"#utility.yul\":18496:18502   */\n      dup3\n        /* \"#utility.yul\":18476:18509   */\n      tag_542\n      jump\t// in\n    tag_541:\n        /* \"#utility.yul\":18386:18515   */\n      swap2\n      swap1\n      pop\n      jump\t// out\n        /* \"#utility.yul\":18521:18596   */\n    tag_540:\n        /* \"#utility.yul\":18554:18560   */\n      0x00\n        /* \"#utility.yul\":18587:18589   */\n      0x40\n        /* \"#utility.yul\":18581:18590   */\n      mload\n        /* \"#utility.yul\":18571:18590   */\n      swap1\n      pop\n        /* \"#utility.yul\":18521:18596   */\n      swap1\n      jump\t// out\n        /* \"#utility.yul\":18602:18913   */\n    tag_313:\n        /* \"#utility.yul\":18679:18683   */\n      0x00\n        /* \"#utility.yul\":18769:18787   */\n      0xffffffffffffffff\n        /* \"#utility.yul\":18761:18767   */\n      dup3\n        /* \"#utility.yul\":18758:18788   */\n      gt\n        /* \"#utility.yul\":18755:18811   */\n      iszero\n      tag_545\n      jumpi\n        /* \"#utility.yul\":18791:18809   */\n      tag_546\n      tag_139\n      jump\t// in\n    tag_546:\n        /* \"#utility.yul\":18755:18811   */\n    tag_545:\n        /* \"#utility.yul\":18841:18845   */\n      0x20\n        /* \"#utility.yul\":18833:18839   */\n      dup3\n        /* \"#utility.yul\":18829:18846   */\n      mul\n        /* \"#utility.yul\":18821:18846   */\n      swap1\n      pop\n        /* \"#utility.yul\":18901:18905   */\n      0x20\n        /* \"#utility.yul\":18895:18899   */\n      dup2\n        /* \"#utility.yul\":18891:18906   */\n      add\n        /* \"#utility.yul\":18883:18906   */\n      swap1\n      pop\n        /* \"#utility.yul\":18602:18913   */\n      swap2\n      swap1\n      pop\n      jump\t// out\n        /* \"#utility.yul\":18919:19230   */\n    tag_327:\n        /* \"#utility.yul\":18996:19000   */\n      0x00\n        /* \"#utility.yul\":19086:19104   */\n      0xffffffffffffffff\n        /* \"#utility.yul\":19078:19084   */\n      dup3\n        /* \"#utility.yul\":19075:19105   */\n      gt\n        /* \"#utility.yul\":19072:19128   */\n      iszero\n      tag_548\n      jumpi\n        /* \"#utility.yul\":19108:19126   */\n      tag_549\n      tag_139\n      jump\t// in\n    tag_549:\n        /* \"#utility.yul\":19072:19128   */\n    tag_548:\n        /* \"#utility.yul\":19158:19162   */\n      0x20\n        /* \"#utility.yul\":19150:19156   */\n      dup3\n        /* \"#utility.yul\":19146:19163   */\n      mul\n        /* \"#utility.yul\":19138:19163   */\n      swap1\n      pop\n        /* \"#utility.yul\":19218:19222   */\n      0x20\n        /* \"#utility.yul\":19212:19216   */\n      dup2\n        /* \"#utility.yul\":19208:19223   */\n      add\n        /* \"#utility.yul\":19200:19223   */\n      swap1\n      pop\n        /* \"#utility.yul\":18919:19230   */\n      swap2\n      swap1\n      pop\n      jump\t// out\n        /* \"#utility.yul\":19236:19368   */\n    tag_418:\n        /* \"#utility.yul\":19303:19307   */\n      0x00\n        /* \"#utility.yul\":19326:19329   */\n      dup2\n        /* \"#utility.yul\":19318:19329   */\n      swap1\n      pop\n        /* \"#utility.yul\":19356:19360   */\n      0x20\n        /* \"#utility.yul\":19351:19354   */\n      dup3\n        /* \"#utility.yul\":19347:19361   */\n      add\n        /* \"#utility.yul\":19339:19361   */\n      swap1\n      pop\n        /* \"#utility.yul\":19236:19368   */\n      swap2\n      swap1\n      pop\n      jump\t// out\n        /* \"#utility.yul\":19374:19530   */\n    tag_432:\n        /* \"#utility.yul\":19465:19469   */\n      0x00\n        /* \"#utility.yul\":19488:19491   */\n      dup2\n        /* \"#utility.yul\":19480:19491   */\n      swap1\n      pop\n        /* \"#utility.yul\":19518:19522   */\n      0x20\n        /* \"#utility.yul\":19513:19516   */\n      dup3\n        /* \"#utility.yul\":19509:19523   */\n      add\n        /* \"#utility.yul\":19501:19523   */\n      swap1\n      pop\n        /* \"#utility.yul\":19374:19530   */\n      swap2\n      swap1\n      pop\n      jump\t// out\n        /* \"#utility.yul\":19536:19668   */\n    tag_446:\n        /* \"#utility.yul\":19603:19607   */\n      0x00\n        /* \"#utility.yul\":19626:19629   */\n      dup2\n        /* \"#utility.yul\":19618:19629   */\n      swap1\n      pop\n        /* \"#utility.yul\":19656:19660   */\n      0x20\n        /* \"#utility.yul\":19651:19654   */\n      dup3\n        /* \"#utility.yul\":19647:19661   */\n      add\n        /* \"#utility.yul\":19639:19661   */\n      swap1\n      pop\n        /* \"#utility.yul\":19536:19668   */\n      swap2\n      swap1\n      pop\n      jump\t// out\n        /* \"#utility.yul\":19674:19788   */\n    tag_414:\n        /* \"#utility.yul\":19741:19747   */\n      0x00\n        /* \"#utility.yul\":19775:19780   */\n      dup2\n        /* \"#utility.yul\":19769:19781   */\n      mload\n        /* \"#utility.yul\":19759:19781   */\n      swap1\n      pop\n        /* \"#utility.yul\":19674:19788   */\n      swap2\n      swap1\n      pop\n      jump\t// out\n        /* \"#utility.yul\":19794:19932   */\n    tag_428:\n        /* \"#utility.yul\":19885:19891   */\n      0x00\n        /* \"#utility.yul\":19919:19924   */\n      dup2\n        /* \"#utility.yul\":19913:19925   */\n      mload\n        /* \"#utility.yul\":19903:19925   */\n      swap1\n      pop\n        /* \"#utility.yul\":19794:19932   */\n      swap2\n      swap1\n      pop\n      jump\t// out\n        /* \"#utility.yul\":19938:20052   */\n    tag_442:\n        /* \"#utility.yul\":20005:20011   */\n      0x00\n        /* \"#utility.yul\":20039:20044   */\n      dup2\n        /* \"#utility.yul\":20033:20045   */\n      mload\n        /* \"#utility.yul\":20023:20045   */\n      swap1\n      pop\n        /* \"#utility.yul\":19938:20052   */\n      swap2\n      swap1\n      pop\n      jump\t// out\n        /* \"#utility.yul\":20058:20171   */\n    tag_424:\n        /* \"#utility.yul\":20128:20132   */\n      0x00\n        /* \"#utility.yul\":20160:20164   */\n      0x20\n        /* \"#utility.yul\":20155:20158   */\n      dup3\n        /* \"#utility.yul\":20151:20165   */\n      add\n        /* \"#utility.yul\":20143:20165   */\n      swap1\n      pop\n        /* \"#utility.yul\":20058:20171   */\n      swap2\n      swap1\n      pop\n      jump\t// out\n        /* \"#utility.yul\":20177:20314   */\n    tag_438:\n        /* \"#utility.yul\":20271:20275   */\n      0x00\n        /* \"#utility.yul\":20303:20307   */\n      0x20\n        /* \"#utility.yul\":20298:20301   */\n      dup3\n        /* \"#utility.yul\":20294:20308   */\n      add\n        /* \"#utility.yul\":20286:20308   */\n      swap1\n      pop\n        /* \"#utility.yul\":20177:20314   */\n      swap2\n      swap1\n      pop\n      jump\t// out\n        /* \"#utility.yul\":20320:20433   */\n    tag_452:\n        /* \"#utility.yul\":20390:20394   */\n      0x00\n        /* \"#utility.yul\":20422:20426   */\n      0x20\n        /* \"#utility.yul\":20417:20420   */\n      dup3\n        /* \"#utility.yul\":20413:20427   */\n      add\n        /* \"#utility.yul\":20405:20427   */\n      swap1\n      pop\n        /* \"#utility.yul\":20320:20433   */\n      swap2\n      swap1\n      pop\n      jump\t// out\n        /* \"#utility.yul\":20439:20623   */\n    tag_416:\n        /* \"#utility.yul\":20538:20549   */\n      0x00\n        /* \"#utility.yul\":20572:20578   */\n      dup3\n        /* \"#utility.yul\":20567:20570   */\n      dup3\n        /* \"#utility.yul\":20560:20579   */\n      mstore\n        /* \"#utility.yul\":20612:20616   */\n      0x20\n        /* \"#utility.yul\":20607:20610   */\n      dup3\n        /* \"#utility.yul\":20603:20617   */\n      add\n        /* \"#utility.yul\":20588:20617   */\n      swap1\n      pop\n        /* \"#utility.yul\":20439:20623   */\n      swap3\n      swap2\n      pop\n      pop\n      jump\t// out\n        /* \"#utility.yul\":20629:20837   */\n    tag_430:\n        /* \"#utility.yul\":20752:20763   */\n      0x00\n        /* \"#utility.yul\":20786:20792   */\n      dup3\n        /* \"#utility.yul\":20781:20784   */\n      dup3\n        /* \"#utility.yul\":20774:20793   */\n      mstore\n        /* \"#utility.yul\":20826:20830   */\n      0x20\n        /* \"#utility.yul\":20821:20824   */\n      dup3\n        /* \"#utility.yul\":20817:20831   */\n      add\n        /* \"#utility.yul\":20802:20831   */\n      swap1\n      pop\n        /* \"#utility.yul\":20629:20837   */\n      swap3\n      swap2\n      pop\n      pop\n      jump\t// out\n        /* \"#utility.yul\":20843:21027   */\n    tag_444:\n        /* \"#utility.yul\":20942:20953   */\n      0x00\n        /* \"#utility.yul\":20976:20982   */\n      dup3\n        /* \"#utility.yul\":20971:20974   */\n      dup3\n        /* \"#utility.yul\":20964:20983   */\n      mstore\n        /* \"#utility.yul\":21016:21020   */\n      0x20\n        /* \"#utility.yul\":21011:21014   */\n      dup3\n        /* \"#utility.yul\":21007:21021   */\n      add\n        /* \"#utility.yul\":20992:21021   */\n      swap1\n      pop\n        /* \"#utility.yul\":20843:21027   */\n      swap3\n      swap2\n      pop\n      pop\n      jump\t// out\n        /* \"#utility.yul\":21033:21202   */\n    tag_464:\n        /* \"#utility.yul\":21117:21128   */\n      0x00\n        /* \"#utility.yul\":21151:21157   */\n      dup3\n        /* \"#utility.yul\":21146:21149   */\n      dup3\n        /* \"#utility.yul\":21139:21158   */\n      mstore\n        /* \"#utility.yul\":21191:21195   */\n      0x20\n        /* \"#utility.yul\":21186:21189   */\n      dup3\n        /* \"#utility.yul\":21182:21196   */\n      add\n        /* \"#utility.yul\":21167:21196   */\n      swap1\n      pop\n        /* \"#utility.yul\":21033:21202   */\n      swap3\n      swap2\n      pop\n      pop\n      jump\t// out\n        /* \"#utility.yul\":21208:21513   */\n    tag_171:\n        /* \"#utility.yul\":21248:21251   */\n      0x00\n        /* \"#utility.yul\":21267:21287   */\n      tag_564\n        /* \"#utility.yul\":21285:21286   */\n      dup3\n        /* \"#utility.yul\":21267:21287   */\n      tag_490\n      jump\t// in\n    tag_564:\n        /* \"#utility.yul\":21262:21287   */\n      swap2\n      pop\n        /* \"#utility.yul\":21301:21321   */\n      tag_565\n        /* \"#utility.yul\":21319:21320   */\n      dup4\n        /* \"#utility.yul\":21301:21321   */\n      tag_490\n      jump\t// in\n    tag_565:\n        /* \"#utility.yul\":21296:21321   */\n      swap3\n      pop\n        /* \"#utility.yul\":21455:21456   */\n      dup3\n        /* \"#utility.yul\":21387:21453   */\n      0xffffffffffffffffffffffffffffffffffffffffffffffffffffffffffffffff\n        /* \"#utility.yul\":21383:21457   */\n      sub\n        /* \"#utility.yul\":21380:21381   */\n      dup3\n        /* \"#utility.yul\":21377:21458   */\n      gt\n        /* \"#utility.yul\":21374:21481   */\n      iszero\n      tag_566\n      jumpi\n        /* \"#utility.yul\":21461:21479   */\n      tag_567\n      tag_568\n      jump\t// in\n    tag_567:\n        /* \"#utility.yul\":21374:21481   */\n    tag_566:\n        /* \"#utility.yul\":21505:21506   */\n      dup3\n        /* \"#utility.yul\":21502:21503   */\n      dup3\n        /* \"#utility.yul\":21498:21507   */\n      add\n        /* \"#utility.yul\":21491:21507   */\n      swap1\n      pop\n        /* \"#utility.yul\":21208:21513   */\n      swap3\n      swap2\n      pop\n      pop\n      jump\t// out\n        /* \"#utility.yul\":21519:21710   */\n    tag_235:\n        /* \"#utility.yul\":21559:21563   */\n      0x00\n        /* \"#utility.yul\":21579:21599   */\n      tag_570\n        /* \"#utility.yul\":21597:21598   */\n      dup3\n        /* \"#utility.yul\":21579:21599   */\n      tag_490\n      jump\t// in\n    tag_570:\n        /* \"#utility.yul\":21574:21599   */\n      swap2\n      pop\n        /* \"#utility.yul\":21613:21633   */\n      tag_571\n        /* \"#utility.yul\":21631:21632   */\n      dup4\n        /* \"#utility.yul\":21613:21633   */\n      tag_490\n      jump\t// in\n    tag_571:\n        /* \"#utility.yul\":21608:21633   */\n      swap3\n      pop\n        /* \"#utility.yul\":21652:21653   */\n      dup3\n        /* \"#utility.yul\":21649:21650   */\n      dup3\n        /* \"#utility.yul\":21646:21654   */\n      lt\n        /* \"#utility.yul\":21643:21677   */\n      iszero\n      tag_572\n      jumpi\n        /* \"#utility.yul\":21657:21675   */\n      tag_573\n      tag_568\n      jump\t// in\n    tag_573:\n        /* \"#utility.yul\":21643:21677   */\n    tag_572:\n        /* \"#utility.yul\":21702:21703   */\n      dup3\n        /* \"#utility.yul\":21699:21700   */\n      dup3\n        /* \"#utility.yul\":21695:21704   */\n      sub\n        /* \"#utility.yul\":21687:21704   */\n      swap1\n      pop\n        /* \"#utility.yul\":21519:21710   */\n      swap3\n      swap2\n      pop\n      pop\n      jump\t// out\n        /* \"#utility.yul\":21716:21812   */\n    tag_402:\n        /* \"#utility.yul\":21753:21760   */\n      0x00\n        /* \"#utility.yul\":21782:21806   */\n      tag_575\n        /* \"#utility.yul\":21800:21805   */\n      dup3\n        /* \"#utility.yul\":21782:21806   */\n      tag_576\n      jump\t// in\n    tag_575:\n        /* \"#utility.yul\":21771:21806   */\n      swap1\n      pop\n        /* \"#utility.yul\":21716:21812   */\n      swap2\n      swap1\n      pop\n      jump\t// out\n        /* \"#utility.yul\":21818:21908   */\n    tag_456:\n        /* \"#utility.yul\":21852:21859   */\n      0x00\n        /* \"#utility.yul\":21895:21900   */\n      dup2\n        /* \"#utility.yul\":21888:21901   */\n      iszero\n        /* \"#utility.yul\":21881:21902   */\n      iszero\n        /* \"#utility.yul\":21870:21902   */\n      swap1\n      pop\n        /* \"#utility.yul\":21818:21908   */\n      swap2\n      swap1\n      pop\n      jump\t// out\n        /* \"#utility.yul\":21914:22040   */\n    tag_576:\n        /* \"#utility.yul\":21951:21958   */\n      0x00\n        /* \"#utility.yul\":21991:22033   */\n      0xffffffffffffffffffffffffffffffffffffffff\n        /* \"#utility.yul\":21984:21989   */\n      dup3\n        /* \"#utility.yul\":21980:22034   */\n      and\n        /* \"#utility.yul\":21969:22034   */\n      swap1\n      pop\n        /* \"#utility.yul\":21914:22040   */\n      swap2\n      swap1\n      pop\n      jump\t// out\n        /* \"#utility.yul\":22046:22123   */\n    tag_490:\n        /* \"#utility.yul\":22083:22090   */\n      0x00\n        /* \"#utility.yul\":22112:22117   */\n      dup2\n        /* \"#utility.yul\":22101:22117   */\n      swap1\n      pop\n        /* \"#utility.yul\":22046:22123   */\n      swap2\n      swap1\n      pop\n      jump\t// out\n        /* \"#utility.yul\":22129:22269   */\n    tag_460:\n        /* \"#utility.yul\":22193:22202   */\n      0x00\n        /* \"#utility.yul\":22226:22263   */\n      tag_581\n        /* \"#utility.yul\":22257:22262   */\n      dup3\n        /* \"#utility.yul\":22226:22263   */\n      tag_582\n      jump\t// in\n    tag_581:\n        /* \"#utility.yul\":22213:22263   */\n      swap1\n      pop\n        /* \"#utility.yul\":22129:22269   */\n      swap2\n      swap1\n      pop\n      jump\t// out\n        /* \"#utility.yul\":22275:22401   */\n    tag_582:\n        /* \"#utility.yul\":22325:22334   */\n      0x00\n        /* \"#utility.yul\":22358:22395   */\n      tag_584\n        /* \"#utility.yul\":22389:22394   */\n      dup3\n        /* \"#utility.yul\":22358:22395   */\n      tag_585\n      jump\t// in\n    tag_584:\n        /* \"#utility.yul\":22345:22395   */\n      swap1\n      pop\n        /* \"#utility.yul\":22275:22401   */\n      swap2\n      swap1\n      pop\n      jump\t// out\n        /* \"#utility.yul\":22407:22520   */\n    tag_585:\n        /* \"#utility.yul\":22457:22466   */\n      0x00\n        /* \"#utility.yul\":22490:22514   */\n      tag_587\n        /* \"#utility.yul\":22508:22513   */\n      dup3\n        /* \"#utility.yul\":22490:22514   */\n      tag_576\n      jump\t// in\n    tag_587:\n        /* \"#utility.yul\":22477:22514   */\n      swap1\n      pop\n        /* \"#utility.yul\":22407:22520   */\n      swap2\n      swap1\n      pop\n      jump\t// out\n        /* \"#utility.yul\":22526:22807   */\n    tag_542:\n        /* \"#utility.yul\":22609:22636   */\n      tag_589\n        /* \"#utility.yul\":22631:22635   */\n      dup3\n        /* \"#utility.yul\":22609:22636   */\n      tag_590\n      jump\t// in\n    tag_589:\n        /* \"#utility.yul\":22601:22607   */\n      dup2\n        /* \"#utility.yul\":22597:22637   */\n      add\n        /* \"#utility.yul\":22739:22745   */\n      dup2\n        /* \"#utility.yul\":22727:22737   */\n      dup2\n        /* \"#utility.yul\":22724:22746   */\n      lt\n        /* \"#utility.yul\":22703:22721   */\n      0xffffffffffffffff\n        /* \"#utility.yul\":22691:22701   */\n      dup3\n        /* \"#utility.yul\":22688:22722   */\n      gt\n        /* \"#utility.yul\":22685:22747   */\n      or\n        /* \"#utility.yul\":22682:22770   */\n      iszero\n      tag_591\n      jumpi\n        /* \"#utility.yul\":22750:22768   */\n      tag_592\n      tag_139\n      jump\t// in\n    tag_592:\n        /* \"#utility.yul\":22682:22770   */\n    tag_591:\n        /* \"#utility.yul\":22790:22800   */\n      dup1\n        /* \"#utility.yul\":22786:22788   */\n      0x40\n        /* \"#utility.yul\":22779:22801   */\n      mstore\n        /* \"#utility.yul\":22569:22807   */\n      pop\n        /* \"#utility.yul\":22526:22807   */\n      pop\n      pop\n      jump\t// out\n        /* \"#utility.yul\":22813:23046   */\n    tag_133:\n        /* \"#utility.yul\":22852:22855   */\n      0x00\n        /* \"#utility.yul\":22875:22899   */\n      tag_594\n        /* \"#utility.yul\":22893:22898   */\n      dup3\n        /* \"#utility.yul\":22875:22899   */\n      tag_490\n      jump\t// in\n    tag_594:\n        /* \"#utility.yul\":22866:22899   */\n      swap2\n      pop\n        /* \"#utility.yul\":22921:22987   */\n      0xffffffffffffffffffffffffffffffffffffffffffffffffffffffffffffffff\n        /* \"#utility.yul\":22914:22919   */\n      dup3\n        /* \"#utility.yul\":22911:22988   */\n      eq\n        /* \"#utility.yul\":22908:23011   */\n      iszero\n      tag_595\n      jumpi\n        /* \"#utility.yul\":22991:23009   */\n      tag_596\n      tag_568\n      jump\t// in\n    tag_596:\n        /* \"#utility.yul\":22908:23011   */\n    tag_595:\n        /* \"#utility.yul\":23038:23039   */\n      0x01\n        /* \"#utility.yul\":23031:23036   */\n      dup3\n        /* \"#utility.yul\":23027:23040   */\n      add\n        /* \"#utility.yul\":23020:23040   */\n      swap1\n      pop\n        /* \"#utility.yul\":22813:23046   */\n      swap2\n      swap1\n      pop\n      jump\t// out\n        /* \"#utility.yul\":23052:23152   */\n    tag_410:\n        /* \"#utility.yul\":23091:23098   */\n      0x00\n        /* \"#utility.yul\":23120:23146   */\n      tag_598\n        /* \"#utility.yul\":23140:23145   */\n      dup3\n        /* \"#utility.yul\":23120:23146   */\n      tag_599\n      jump\t// in\n    tag_598:\n        /* \"#utility.yul\":23109:23146   */\n      swap1\n      pop\n        /* \"#utility.yul\":23052:23152   */\n      swap2\n      swap1\n      pop\n      jump\t// out\n        /* \"#utility.yul\":23158:23252   */\n    tag_599:\n        /* \"#utility.yul\":23197:23204   */\n      0x00\n        /* \"#utility.yul\":23226:23246   */\n      tag_601\n        /* \"#utility.yul\":23240:23245   */\n      dup3\n        /* \"#utility.yul\":23226:23246   */\n      tag_602\n      jump\t// in\n    tag_601:\n        /* \"#utility.yul\":23215:23246   */\n      swap1\n      pop\n        /* \"#utility.yul\":23158:23252   */\n      swap2\n      swap1\n      pop\n      jump\t// out\n        /* \"#utility.yul\":23258:23337   */\n    tag_498:\n        /* \"#utility.yul\":23297:23304   */\n      0x00\n        /* \"#utility.yul\":23326:23331   */\n      dup2\n        /* \"#utility.yul\":23315:23331   */\n      swap1\n      pop\n        /* \"#utility.yul\":23258:23337   */\n      swap2\n      swap1\n      pop\n      jump\t// out\n        /* \"#utility.yul\":23343:23519   */\n    tag_295:\n        /* \"#utility.yul\":23375:23376   */\n      0x00\n        /* \"#utility.yul\":23392:23412   */\n      tag_605\n        /* \"#utility.yul\":23410:23411   */\n      dup3\n        /* \"#utility.yul\":23392:23412   */\n      tag_490\n      jump\t// in\n    tag_605:\n        /* \"#utility.yul\":23387:23412   */\n      swap2\n      pop\n        /* \"#utility.yul\":23426:23446   */\n      tag_606\n        /* \"#utility.yul\":23444:23445   */\n      dup4\n        /* \"#utility.yul\":23426:23446   */\n      tag_490\n      jump\t// in\n    tag_606:\n        /* \"#utility.yul\":23421:23446   */\n      swap3\n      pop\n        /* \"#utility.yul\":23465:23466   */\n      dup3\n        /* \"#utility.yul\":23455:23490   */\n      tag_607\n      jumpi\n        /* \"#utility.yul\":23470:23488   */\n      tag_608\n      tag_609\n      jump\t// in\n    tag_608:\n        /* \"#utility.yul\":23455:23490   */\n    tag_607:\n        /* \"#utility.yul\":23511:23512   */\n      dup3\n        /* \"#utility.yul\":23508:23509   */\n      dup3\n        /* \"#utility.yul\":23504:23513   */\n      mod\n        /* \"#utility.yul\":23499:23513   */\n      swap1\n      pop\n        /* \"#utility.yul\":23343:23519   */\n      swap3\n      swap2\n      pop\n      pop\n      jump\t// out\n        /* \"#utility.yul\":23525:23705   */\n    tag_568:\n        /* \"#utility.yul\":23573:23650   */\n      0x4e487b7100000000000000000000000000000000000000000000000000000000\n        /* \"#utility.yul\":23570:23571   */\n      0x00\n        /* \"#utility.yul\":23563:23651   */\n      mstore\n        /* \"#utility.yul\":23670:23674   */\n      0x11\n        /* \"#utility.yul\":23667:23668   */\n      0x04\n        /* \"#utility.yul\":23660:23675   */\n      mstore\n        /* \"#utility.yul\":23694:23698   */\n      0x24\n        /* \"#utility.yul\":23691:23692   */\n      0x00\n        /* \"#utility.yul\":23684:23699   */\n      revert\n        /* \"#utility.yul\":23711:23891   */\n    tag_609:\n        /* \"#utility.yul\":23759:23836   */\n      0x4e487b7100000000000000000000000000000000000000000000000000000000\n        /* \"#utility.yul\":23756:23757   */\n      0x00\n        /* \"#utility.yul\":23749:23837   */\n      mstore\n        /* \"#utility.yul\":23856:23860   */\n      0x12\n        /* \"#utility.yul\":23853:23854   */\n      0x04\n        /* \"#utility.yul\":23846:23861   */\n      mstore\n        /* \"#utility.yul\":23880:23884   */\n      0x24\n        /* \"#utility.yul\":23877:23878   */\n      0x00\n        /* \"#utility.yul\":23870:23885   */\n      revert\n        /* \"#utility.yul\":23897:24077   */\n    tag_242:\n        /* \"#utility.yul\":23945:24022   */\n      0x4e487b7100000000000000000000000000000000000000000000000000000000\n        /* \"#utility.yul\":23942:23943   */\n      0x00\n        /* \"#utility.yul\":23935:24023   */\n      mstore\n        /* \"#utility.yul\":24042:24046   */\n      0x31\n        /* \"#utility.yul\":24039:24040   */\n      0x04\n        /* \"#utility.yul\":24032:24047   */\n      mstore\n        /* \"#utility.yul\":24066:24070   */\n      0x24\n        /* \"#utility.yul\":24063:24064   */\n      0x00\n        /* \"#utility.yul\":24056:24071   */\n      revert\n        /* \"#utility.yul\":24083:24263   */\n    tag_129:\n        /* \"#utility.yul\":24131:24208   */\n      0x4e487b7100000000000000000000000000000000000000000000000000000000\n        /* \"#utility.yul\":24128:24129   */\n      0x00\n        /* \"#utility.yul\":24121:24209   */\n      mstore\n        /* \"#utility.yul\":24228:24232   */\n      0x32\n        /* \"#utility.yul\":24225:24226   */\n      0x04\n        /* \"#utility.yul\":24218:24233   */\n      mstore\n        /* \"#utility.yul\":24252:24256   */\n      0x24\n        /* \"#utility.yul\":24249:24250   */\n      0x00\n        /* \"#utility.yul\":24242:24257   */\n      revert\n        /* \"#utility.yul\":24269:24449   */\n    tag_139:\n        /* \"#utility.yul\":24317:24394   */\n      0x4e487b7100000000000000000000000000000000000000000000000000000000\n        /* \"#utility.yul\":24314:24315   */\n      0x00\n        /* \"#utility.yul\":24307:24395   */\n      mstore\n        /* \"#utility.yul\":24414:24418   */\n      0x41\n        /* \"#utility.yul\":24411:24412   */\n      0x04\n        /* \"#utility.yul\":24404:24419   */\n      mstore\n        /* \"#utility.yul\":24438:24442   */\n      0x24\n        /* \"#utility.yul\":24435:24436   */\n      0x00\n        /* \"#utility.yul\":24428:24443   */\n      revert\n        /* \"#utility.yul\":24455:24572   */\n    tag_342:\n        /* \"#utility.yul\":24564:24565   */\n      0x00\n        /* \"#utility.yul\":24561:24562   */\n      dup1\n        /* \"#utility.yul\":24554:24566   */\n      revert\n        /* \"#utility.yul\":24578:24695   */\n    tag_317:\n        /* \"#utility.yul\":24687:24688   */\n      0x00\n        /* \"#utility.yul\":24684:24685   */\n      dup1\n        /* \"#utility.yul\":24677:24689   */\n      revert\n        /* \"#utility.yul\":24701:24818   */\n    tag_370:\n        /* \"#utility.yul\":24810:24811   */\n      0x00\n        /* \"#utility.yul\":24807:24808   */\n      dup1\n        /* \"#utility.yul\":24800:24812   */\n      revert\n        /* \"#utility.yul\":24824:24941   */\n    tag_358:\n        /* \"#utility.yul\":24933:24934   */\n      0x00\n        /* \"#utility.yul\":24930:24931   */\n      dup1\n        /* \"#utility.yul\":24923:24935   */\n      revert\n        /* \"#utility.yul\":24947:25049   */\n    tag_590:\n        /* \"#utility.yul\":24988:24994   */\n      0x00\n        /* \"#utility.yul\":25039:25041   */\n      0x1f\n        /* \"#utility.yul\":25035:25042   */\n      not\n        /* \"#utility.yul\":25030:25032   */\n      0x1f\n        /* \"#utility.yul\":25023:25028   */\n      dup4\n        /* \"#utility.yul\":25019:25033   */\n      add\n        /* \"#utility.yul\":25015:25043   */\n      and\n        /* \"#utility.yul\":25005:25043   */\n      swap1\n      pop\n        /* \"#utility.yul\":24947:25049   */\n      swap2\n      swap1\n      pop\n      jump\t// out\n        /* \"#utility.yul\":25055:25149   */\n    tag_602:\n        /* \"#utility.yul\":25088:25096   */\n      0x00\n        /* \"#utility.yul\":25136:25141   */\n      dup2\n        /* \"#utility.yul\":25132:25134   */\n      0x60\n        /* \"#utility.yul\":25128:25142   */\n      shl\n        /* \"#utility.yul\":25107:25142   */\n      swap1\n      pop\n        /* \"#utility.yul\":25055:25149   */\n      swap2\n      swap1\n      pop\n      jump\t// out\n        /* \"#utility.yul\":25155:25380   */\n    tag_466:\n        /* \"#utility.yul\":25295:25329   */\n      0x4f776e61626c653a206e6577206f776e657220697320746865207a65726f2061\n        /* \"#utility.yul\":25291:25292   */\n      0x00\n        /* \"#utility.yul\":25283:25289   */\n      dup3\n        /* \"#utility.yul\":25279:25293   */\n      add\n        /* \"#utility.yul\":25272:25330   */\n      mstore\n        /* \"#utility.yul\":25364:25372   */\n      0x6464726573730000000000000000000000000000000000000000000000000000\n        /* \"#utility.yul\":25359:25361   */\n      0x20\n        /* \"#utility.yul\":25351:25357   */\n      dup3\n        /* \"#utility.yul\":25347:25362   */\n      add\n        /* \"#utility.yul\":25340:25373   */\n      mstore\n        /* \"#utility.yul\":25155:25380   */\n      pop\n      jump\t// out\n        /* \"#utility.yul\":25386:25547   */\n    tag_471:\n        /* \"#utility.yul\":25526:25539   */\n      0x4e6f7420616c6c6f776564000000000000000000000000000000000000000000\n        /* \"#utility.yul\":25522:25523   */\n      0x00\n        /* \"#utility.yul\":25514:25520   */\n      dup3\n        /* \"#utility.yul\":25510:25524   */\n      add\n        /* \"#utility.yul\":25503:25540   */\n      mstore\n        /* \"#utility.yul\":25386:25547   */\n      pop\n      jump\t// out\n        /* \"#utility.yul\":25553:25735   */\n    tag_476:\n        /* \"#utility.yul\":25693:25727   */\n      0x4f776e61626c653a2063616c6c6572206973206e6f7420746865206f776e6572\n        /* \"#utility.yul\":25689:25690   */\n      0x00\n        /* \"#utility.yul\":25681:25687   */\n      dup3\n        /* \"#utility.yul\":25677:25691   */\n      add\n        /* \"#utility.yul\":25670:25728   */\n      mstore\n        /* \"#utility.yul\":25553:25735   */\n      pop\n      jump\t// out\n        /* \"#utility.yul\":25741:25920   */\n    tag_481:\n        /* \"#utility.yul\":25881:25912   */\n      0x41727261797320646f6e277420686176652073616d65206c656e676874000000\n        /* \"#utility.yul\":25877:25878   */\n      0x00\n        /* \"#utility.yul\":25869:25875   */\n      dup3\n        /* \"#utility.yul\":25865:25879   */\n      add\n        /* \"#utility.yul\":25858:25913   */\n      mstore\n        /* \"#utility.yul\":25741:25920   */\n      pop\n      jump\t// out\n        /* \"#utility.yul\":25926:26048   */\n    tag_337:\n        /* \"#utility.yul\":25999:26023   */\n      tag_626\n        /* \"#utility.yul\":26017:26022   */\n      dup2\n        /* \"#utility.yul\":25999:26023   */\n      tag_402\n      jump\t// in\n    tag_626:\n        /* \"#utility.yul\":25992:25997   */\n      dup2\n        /* \"#utility.yul\":25989:26024   */\n      eq\n        /* \"#utility.yul\":25979:26042   */\n      tag_627\n      jumpi\n        /* \"#utility.yul\":26038:26039   */\n      0x00\n        /* \"#utility.yul\":26035:26036   */\n      dup1\n        /* \"#utility.yul\":26028:26040   */\n      revert\n        /* \"#utility.yul\":25979:26042   */\n    tag_627:\n        /* \"#utility.yul\":25926:26048   */\n      pop\n      jump\t// out\n        /* \"#utility.yul\":26054:26176   */\n    tag_351:\n        /* \"#utility.yul\":26127:26151   */\n      tag_629\n        /* \"#utility.yul\":26145:26150   */\n      dup2\n        /* \"#utility.yul\":26127:26151   */\n      tag_490\n      jump\t// in\n    tag_629:\n        /* \"#utility.yul\":26120:26125   */\n      dup2\n        /* \"#utility.yul\":26117:26152   */\n      eq\n        /* \"#utility.yul\":26107:26170   */\n      tag_630\n      jumpi\n        /* \"#utility.yul\":26166:26167   */\n      0x00\n        /* \"#utility.yul\":26163:26164   */\n      dup1\n        /* \"#utility.yul\":26156:26168   */\n      revert\n        /* \"#utility.yul\":26107:26170   */\n    tag_630:\n        /* \"#utility.yul\":26054:26176   */\n      pop\n      jump\t// out\n\n    auxdata: 0xa264697066735822122086e01badd19d09d6c62d33eff53787d06c79e2fd1fe928e88a182a3e7903a0e164736f6c63430008070033\n}\n",
				"bytecode": {
					"linkReferences": {},
					"object": "608060405273e9e7cea3dedca5984780bafc599bd69add087d56600460006101000a81548173ffffffffffffffffffffffffffffffffffffffff021916908373ffffffffffffffffffffffffffffffffffffffff160217905550735b38da6a701c568545dcfcb03fcb875f56beddc4600560006101000a81548173ffffffffffffffffffffffffffffffffffffffff021916908373ffffffffffffffffffffffffffffffffffffffff160217905550730ed2fd07b8be10e2b8737e39ad33663dc711c31b600660006101000a81548173ffffffffffffffffffffffffffffffffffffffff021916908373ffffffffffffffffffffffffffffffffffffffff1602179055503480156200011057600080fd5b5062000131620001256200013760201b60201c565b6200013f60201b60201c565b62000203565b600033905090565b60008060009054906101000a900473ffffffffffffffffffffffffffffffffffffffff169050816000806101000a81548173ffffffffffffffffffffffffffffffffffffffff021916908373ffffffffffffffffffffffffffffffffffffffff1602179055508173ffffffffffffffffffffffffffffffffffffffff168173ffffffffffffffffffffffffffffffffffffffff167f8be0079c531659141344cd1fd0a4f28419497f9722a3daafe3b4186f6b6457e060405160405180910390a35050565b6125fe80620002136000396000f3fe608060405234801561001057600080fd5b50600436106101585760003560e01c806376636d20116100c3578063b657dd651161007c578063b657dd65146103aa578063bc15cdf0146103da578063c4740a951461040a578063f2fde38b14610426578063f737d21d14610442578063f9cee0bd1461047357610158565b806376636d20146102d05780638da5cb5b146102ee5780639b3e45521461030c5780639f10a9901461032a578063a59460dc1461035a578063ac128f4f1461037657610158565b80634626402b116101155780634626402b14610222578063484f4ea9146102405780635bedc3901461025e578063647dce0f1461028e5780636fbb5a86146102aa578063715018a6146102c657610158565b80630d9882701461015d578063119b22b31461018d578063158977de146101ab5780633b98bc65146101c9578063443b80a1146101e8578063454f7b8f14610204575b600080fd5b61017760048036038101906101729190611a20565b610491565b6040516101849190612002565b60405180910390f35b6101956104c2565b6040516101a29190612002565b60405180910390f35b6101b36104c8565b6040516101c09190612002565b60405180910390f35b6101d1610599565b6040516101df929190611ef3565b60405180910390f35b61020260048036038101906101fd9190611a20565b6107c2565b005b61020c6109ab565b6040516102199190612002565b60405180910390f35b61022a6109b1565b6040516102379190611eaf565b60405180910390f35b6102486109d7565b6040516102559190611f67565b60405180910390f35b610278600480360381019061027391906119f3565b6109fd565b6040516102859190611f4c565b60405180910390f35b6102a860048036038101906102a39190611a60565b610a17565b005b6102c460048036038101906102bf9190611b32565b610b98565b005b6102ce610d81565b005b6102d8610e09565b6040516102e59190612002565b60405180910390f35b6102f6610e0f565b6040516103039190611eaf565b60405180910390f35b610314610e38565b6040516103219190611eaf565b60405180910390f35b610344600480360381019061033f91906119f3565b610e5e565b6040516103519190612002565b60405180910390f35b610374600480360381019061036f9190611a20565b610eaa565b005b610390600480360381019061038b9190611ad8565b611194565b6040516103a1959493929190612046565b60405180910390f35b6103c460048036038101906103bf9190611ad8565b6111ea565b6040516103d19190611eaf565b60405180910390f35b6103f460048036038101906103ef9190611b32565b61121d565b6040516104019190611f2a565b60405180910390f35b610424600480360381019061041f91906119f3565b611412565b005b610440600480360381019061043b91906119f3565b611508565b005b61045c60048036038101906104579190611ad8565b611600565b60405161046a92919061201d565b60405180910390f35b61047b611656565b6040516104889190612002565b60405180910390f35b600960205281600052604060002081815481106104ad57600080fd5b90600052602060002001600091509150505481565b60025481565b6000805b6001548110156105955760006008600083815260200190815260200160002060009054906101000a900473ffffffffffffffffffffffffffffffffffffffff169050600960008273ffffffffffffffffffffffffffffffffffffffff1673ffffffffffffffffffffffffffffffffffffffff1681526020019081526020016000206000815481106105605761055f612440565b5b906000526020600020015482141561058157828061057d9061230b565b9350505b50808061058d9061230b565b9150506104cc565b5090565b60608060006105a66104c8565b90508067ffffffffffffffff8111156105c2576105c161246f565b5b6040519080825280602002602001820160405280156105f05781602001602082028036833780820191505090505b5092508067ffffffffffffffff81111561060d5761060c61246f565b5b60405190808252806020026020018201604052801561063b5781602001602082028036833780820191505090505b5091506000805b6001548110156107bb5760006008600083815260200190815260200160002060009054906101000a900473ffffffffffffffffffffffffffffffffffffffff169050600960008273ffffffffffffffffffffffffffffffffffffffff1673ffffffffffffffffffffffffffffffffffffffff1681526020019081526020016000206000815481106106d6576106d5612440565b5b90600052602060002001548214156107a757808684815181106106fc576106fb612440565b5b602002602001019073ffffffffffffffffffffffffffffffffffffffff16908173ffffffffffffffffffffffffffffffffffffffff1681525050600960008273ffffffffffffffffffffffffffffffffffffffff1673ffffffffffffffffffffffffffffffffffffffff1681526020019081526020016000208054905085848151811061078c5761078b612440565b5b60200260200101818152505082806107a39061230b565b9350505b5080806107b39061230b565b915050610642565b5050509091565b6107ca61172a565b73ffffffffffffffffffffffffffffffffffffffff166107e8610e0f565b73ffffffffffffffffffffffffffffffffffffffff16148061085e575061080d61172a565b73ffffffffffffffffffffffffffffffffffffffff16600560009054906101000a900473ffffffffffffffffffffffffffffffffffffffff1673ffffffffffffffffffffffffffffffffffffffff16145b61089d576040517f08c379a000000000000000000000000000000000000000000000000000000000815260040161089490611fa2565b60405180910390fd5b60005b8181101561098d578260086000836001546108bb91906121d2565b815260200190815260200160002060006101000a81548173ffffffffffffffffffffffffffffffffffffffff021916908373ffffffffffffffffffffffffffffffffffffffff160217905550600960008473ffffffffffffffffffffffffffffffffffffffff1673ffffffffffffffffffffffffffffffffffffffff1681526020019081526020016000208160015461095491906121d2565b908060018154018082558091505060019003906000526020600020016000909190919091505580806109859061230b565b9150506108a0565b5080600160008282546109a091906121d2565b925050819055505050565b60035481565b600660009054906101000a900473ffffffffffffffffffffffffffffffffffffffff1681565b600460009054906101000a900473ffffffffffffffffffffffffffffffffffffffff1681565b600080610a0983610e5e565b905060008111915050919050565b610a1f61172a565b73ffffffffffffffffffffffffffffffffffffffff16610a3d610e0f565b73ffffffffffffffffffffffffffffffffffffffff161480610ab35750610a6261172a565b73ffffffffffffffffffffffffffffffffffffffff16600560009054906101000a900473ffffffffffffffffffffffffffffffffffffffff1673ffffffffffffffffffffffffffffffffffffffff16145b610af2576040517f08c379a0000000000000000000000000000000000000000000000000000000008152600401610ae990611fa2565b60405180910390fd5b8051825114610b36576040517f08c379a0000000000000000000000000000000000000000000000000000000008152600401610b2d90611fe2565b60405180910390fd5b60005b8251811015610b9357610b80838281518110610b5857610b57612440565b5b6020026020010151838381518110610b7357610b72612440565b5b60200260200101516107c2565b8080610b8b9061230b565b915050610b39565b505050565b610ba061172a565b73ffffffffffffffffffffffffffffffffffffffff16610bbe610e0f565b73ffffffffffffffffffffffffffffffffffffffff1614610c14576040517f08c379a0000000000000000000000000000000000000000000000000000000008152600401610c0b90611fc2565b60405180910390fd5b60006008600084815260200190815260200160002060009054906101000a900473ffffffffffffffffffffffffffffffffffffffff1690506040518060a0016040528060015481526020018481526020018381526020014281526020018273ffffffffffffffffffffffffffffffffffffffff168152506007600060025481526020019081526020016000206000820151816000015560208201518160010155604082015181600201556060820151816003015560808201518160040160006101000a81548173ffffffffffffffffffffffffffffffffffffffff021916908373ffffffffffffffffffffffffffffffffffffffff1602179055509050508160036000828254610d2491906121d2565b9250508190555060026000815480929190610d3e9061230b565b91905055507f2e798dd4337e515c79b64c40e1a93baa1aefbd9180ac7905e02508edd7971e508183604051610d74929190611eca565b60405180910390a1505050565b610d8961172a565b73ffffffffffffffffffffffffffffffffffffffff16610da7610e0f565b73ffffffffffffffffffffffffffffffffffffffff1614610dfd576040517f08c379a0000000000000000000000000000000000000000000000000000000008152600401610df490611fc2565b60405180910390fd5b610e076000611732565b565b60015481565b60008060009054906101000a900473ffffffffffffffffffffffffffffffffffffffff16905090565b600560009054906101000a900473ffffffffffffffffffffffffffffffffffffffff1681565b6000600960008373ffffffffffffffffffffffffffffffffffffffff1673ffffffffffffffffffffffffffffffffffffffff168152602001908152602001600020805490509050919050565b610eb261172a565b73ffffffffffffffffffffffffffffffffffffffff16610ed0610e0f565b73ffffffffffffffffffffffffffffffffffffffff161480610f465750610ef561172a565b73ffffffffffffffffffffffffffffffffffffffff16600560009054906101000a900473ffffffffffffffffffffffffffffffffffffffff1673ffffffffffffffffffffffffffffffffffffffff16145b610f85576040517f08c379a0000000000000000000000000000000000000000000000000000000008152600401610f7c90611fa2565b60405180910390fd5b6000610f9083610e5e565b90506000811415610fa15750611190565b80821115610fad578091505b6000600190505b828111611174576000600960008673ffffffffffffffffffffffffffffffffffffffff1673ffffffffffffffffffffffffffffffffffffffff1681526020019081526020016000206001600960008873ffffffffffffffffffffffffffffffffffffffff1673ffffffffffffffffffffffffffffffffffffffff1681526020019081526020016000208054905061104b9190612228565b8154811061105c5761105b612440565b5b90600052602060002001549050600860008360015461107b9190612228565b815260200190815260200160002060009054906101000a900473ffffffffffffffffffffffffffffffffffffffff166008600083815260200190815260200160002060006101000a81548173ffffffffffffffffffffffffffffffffffffffff021916908373ffffffffffffffffffffffffffffffffffffffff160217905550600960008673ffffffffffffffffffffffffffffffffffffffff1673ffffffffffffffffffffffffffffffffffffffff16815260200190815260200160002080548061114a57611149612411565b5b6001900381819060005260206000200160009055905550808061116c9061230b565b915050610fb4565b5081600160008282546111879190612228565b92505081905550505b5050565b60076020528060005260406000206000915090508060000154908060010154908060020154908060030154908060040160009054906101000a900473ffffffffffffffffffffffffffffffffffffffff16905085565b60086020528060005260406000206000915054906101000a900473ffffffffffffffffffffffffffffffffffffffff1681565b60606000600254141561128657600067ffffffffffffffff8111156112455761124461246f565b5b60405190808252806020026020018201604052801561127e57816020015b61126b611833565b8152602001906001900390816112635790505b50905061140c565b60025482106112a157600160025461129e9190612228565b91505b6000600184846112b19190612228565b6112bb91906121d2565b905060008167ffffffffffffffff8111156112d9576112d861246f565b5b60405190808252806020026020018201604052801561131257816020015b6112ff611833565b8152602001906001900390816112f75790505b50925060008590505b8481116114085760076000828861133291906121d2565b81526020019081526020016000206040518060a0016040529081600082015481526020016001820154815260200160028201548152602001600382015481526020016004820160009054906101000a900473ffffffffffffffffffffffffffffffffffffffff1673ffffffffffffffffffffffffffffffffffffffff1673ffffffffffffffffffffffffffffffffffffffff16815250508483815181106113dc576113db612440565b5b602002602001018190525081806113f29061230b565b92505080806114009061230b565b91505061131b565b5050505b92915050565b61141a61172a565b73ffffffffffffffffffffffffffffffffffffffff16611438610e0f565b73ffffffffffffffffffffffffffffffffffffffff1614806114ae575061145d61172a565b73ffffffffffffffffffffffffffffffffffffffff16600560009054906101000a900473ffffffffffffffffffffffffffffffffffffffff1673ffffffffffffffffffffffffffffffffffffffff16145b6114ed576040517f08c379a00000000000000000000000000000000000000000000000000000000081526004016114e490611fa2565b60405180910390fd5b60006114f882610e5e565b90506115048282610eaa565b5050565b61151061172a565b73ffffffffffffffffffffffffffffffffffffffff1661152e610e0f565b73ffffffffffffffffffffffffffffffffffffffff1614611584576040517f08c379a000000000000000000000000000000000000000000000000000000000815260040161157b90611fc2565b60405180910390fd5b600073ffffffffffffffffffffffffffffffffffffffff168173ffffffffffffffffffffffffffffffffffffffff1614156115f4576040517f08c379a00000000000000000000000000000000000000000000000000000000081526004016115eb90611f82565b60405180910390fd5b6115fd81611732565b50565b60008060015461160f846117f6565b6116199190612382565b91506008600083815260200190815260200160002060009054906101000a900473ffffffffffffffffffffffffffffffffffffffff169050915091565b6000600460009054906101000a900473ffffffffffffffffffffffffffffffffffffffff1673ffffffffffffffffffffffffffffffffffffffff166370a08231600660009054906101000a900473ffffffffffffffffffffffffffffffffffffffff166040518263ffffffff1660e01b81526004016116d59190611eaf565b60206040518083038186803b1580156116ed57600080fd5b505afa158015611701573d6000803e3d6000fd5b505050506040513d601f19601f820116820180604052508101906117259190611b05565b905090565b600033905090565b60008060009054906101000a900473ffffffffffffffffffffffffffffffffffffffff169050816000806101000a81548173ffffffffffffffffffffffffffffffffffffffff021916908373ffffffffffffffffffffffffffffffffffffffff1602179055508173ffffffffffffffffffffffffffffffffffffffff168173ffffffffffffffffffffffffffffffffffffffff167f8be0079c531659141344cd1fd0a4f28419497f9722a3daafe3b4186f6b6457e060405160405180910390a35050565b600081425a33600154604051602001611813959493929190611e50565b6040516020818303038152906040528051906020012060001c9050919050565b6040518060a0016040528060008152602001600081526020016000815260200160008152602001600073ffffffffffffffffffffffffffffffffffffffff1681525090565b600061188b611886846120be565b612099565b905080838252602082019050828560208602820111156118ae576118ad6124a3565b5b60005b858110156118de57816118c48882611958565b8452602084019350602083019250506001810190506118b1565b5050509392505050565b60006118fb6118f6846120ea565b612099565b9050808382526020820190508285602086028201111561191e5761191d6124a3565b5b60005b8581101561194e578161193488826119c9565b845260208401935060208301925050600181019050611921565b5050509392505050565b6000813590506119678161259a565b92915050565b600082601f8301126119825761198161249e565b5b8135611992848260208601611878565b91505092915050565b600082601f8301126119b0576119af61249e565b5b81356119c08482602086016118e8565b91505092915050565b6000813590506119d8816125b1565b92915050565b6000815190506119ed816125b1565b92915050565b600060208284031215611a0957611a086124ad565b5b6000611a1784828501611958565b91505092915050565b60008060408385031215611a3757611a366124ad565b5b6000611a4585828601611958565b9250506020611a56858286016119c9565b9150509250929050565b60008060408385031215611a7757611a766124ad565b5b600083013567ffffffffffffffff811115611a9557611a946124a8565b5b611aa18582860161196d565b925050602083013567ffffffffffffffff811115611ac257611ac16124a8565b5b611ace8582860161199b565b9150509250929050565b600060208284031215611aee57611aed6124ad565b5b6000611afc848285016119c9565b91505092915050565b600060208284031215611b1b57611b1a6124ad565b5b6000611b29848285016119de565b91505092915050565b60008060408385031215611b4957611b486124ad565b5b6000611b57858286016119c9565b9250506020611b68858286016119c9565b9150509250929050565b6000611b7e8383611bba565b60208301905092915050565b6000611b968383611db3565b60a08301905092915050565b6000611bae8383611e1b565b60208301905092915050565b611bc38161225c565b82525050565b611bd28161225c565b82525050565b611be9611be48261225c565b612354565b82525050565b6000611bfa82612146565b611c04818561218e565b9350611c0f83612116565b8060005b83811015611c40578151611c278882611b72565b9750611c3283612167565b925050600181019050611c13565b5085935050505092915050565b6000611c5882612151565b611c62818561219f565b9350611c6d83612126565b8060005b83811015611c9e578151611c858882611b8a565b9750611c9083612174565b925050600181019050611c71565b5085935050505092915050565b6000611cb68261215c565b611cc081856121b0565b9350611ccb83612136565b8060005b83811015611cfc578151611ce38882611ba2565b9750611cee83612181565b925050600181019050611ccf565b5085935050505092915050565b611d128161226e565b82525050565b611d21816122a4565b82525050565b6000611d346026836121c1565b9150611d3f826124d0565b604082019050919050565b6000611d57600b836121c1565b9150611d628261251f565b602082019050919050565b6000611d7a6020836121c1565b9150611d8582612548565b602082019050919050565b6000611d9d601d836121c1565b9150611da882612571565b602082019050919050565b60a082016000820151611dc96000850182611e1b565b506020820151611ddc6020850182611e1b565b506040820151611def6040850182611e1b565b506060820151611e026060850182611e1b565b506080820151611e156080850182611bba565b50505050565b611e248161229a565b82525050565b611e338161229a565b82525050565b611e4a611e458261229a565b612378565b82525050565b6000611e5c8288611e39565b602082019150611e6c8287611e39565b602082019150611e7c8286611e39565b602082019150611e8c8285611bd8565b601482019150611e9c8284611e39565b6020820191508190509695505050505050565b6000602082019050611ec46000830184611bc9565b92915050565b6000604082019050611edf6000830185611bc9565b611eec6020830184611e2a565b9392505050565b60006040820190508181036000830152611f0d8185611bef565b90508181036020830152611f218184611cab565b90509392505050565b60006020820190508181036000830152611f448184611c4d565b905092915050565b6000602082019050611f616000830184611d09565b92915050565b6000602082019050611f7c6000830184611d18565b92915050565b60006020820190508181036000830152611f9b81611d27565b9050919050565b60006020820190508181036000830152611fbb81611d4a565b9050919050565b60006020820190508181036000830152611fdb81611d6d565b9050919050565b60006020820190508181036000830152611ffb81611d90565b9050919050565b60006020820190506120176000830184611e2a565b92915050565b60006040820190506120326000830185611e2a565b61203f6020830184611bc9565b9392505050565b600060a08201905061205b6000830188611e2a565b6120686020830187611e2a565b6120756040830186611e2a565b6120826060830185611e2a565b61208f6080830184611bc9565b9695505050505050565b60006120a36120b4565b90506120af82826122da565b919050565b6000604051905090565b600067ffffffffffffffff8211156120d9576120d861246f565b5b602082029050602081019050919050565b600067ffffffffffffffff8211156121055761210461246f565b5b602082029050602081019050919050565b6000819050602082019050919050565b6000819050602082019050919050565b6000819050602082019050919050565b600081519050919050565b600081519050919050565b600081519050919050565b6000602082019050919050565b6000602082019050919050565b6000602082019050919050565b600082825260208201905092915050565b600082825260208201905092915050565b600082825260208201905092915050565b600082825260208201905092915050565b60006121dd8261229a565b91506121e88361229a565b9250827fffffffffffffffffffffffffffffffffffffffffffffffffffffffffffffffff0382111561221d5761221c6123b3565b5b828201905092915050565b60006122338261229a565b915061223e8361229a565b925082821015612251576122506123b3565b5b828203905092915050565b60006122678261227a565b9050919050565b60008115159050919050565b600073ffffffffffffffffffffffffffffffffffffffff82169050919050565b6000819050919050565b60006122af826122b6565b9050919050565b60006122c1826122c8565b9050919050565b60006122d38261227a565b9050919050565b6122e3826124b2565b810181811067ffffffffffffffff821117156123025761230161246f565b5b80604052505050565b60006123168261229a565b91507fffffffffffffffffffffffffffffffffffffffffffffffffffffffffffffffff821415612349576123486123b3565b5b600182019050919050565b600061235f82612366565b9050919050565b6000612371826124c3565b9050919050565b6000819050919050565b600061238d8261229a565b91506123988361229a565b9250826123a8576123a76123e2565b5b828206905092915050565b7f4e487b7100000000000000000000000000000000000000000000000000000000600052601160045260246000fd5b7f4e487b7100000000000000000000000000000000000000000000000000000000600052601260045260246000fd5b7f4e487b7100000000000000000000000000000000000000000000000000000000600052603160045260246000fd5b7f4e487b7100000000000000000000000000000000000000000000000000000000600052603260045260246000fd5b7f4e487b7100000000000000000000000000000000000000000000000000000000600052604160045260246000fd5b600080fd5b600080fd5b600080fd5b600080fd5b6000601f19601f8301169050919050565b60008160601b9050919050565b7f4f776e61626c653a206e6577206f776e657220697320746865207a65726f206160008201527f6464726573730000000000000000000000000000000000000000000000000000602082015250565b7f4e6f7420616c6c6f776564000000000000000000000000000000000000000000600082015250565b7f4f776e61626c653a2063616c6c6572206973206e6f7420746865206f776e6572600082015250565b7f41727261797320646f6e277420686176652073616d65206c656e676874000000600082015250565b6125a38161225c565b81146125ae57600080fd5b50565b6125ba8161229a565b81146125c557600080fd5b5056fea264697066735822122086e01badd19d09d6c62d33eff53787d06c79e2fd1fe928e88a182a3e7903a0e164736f6c63430008070033",
					"opcodes": "PUSH1 0x80 PUSH1 0x40 MSTORE PUSH20 0xE9E7CEA3DEDCA5984780BAFC599BD69ADD087D56 PUSH1 0x4 PUSH1 0x0 PUSH2 0x100 EXP DUP2 SLOAD DUP2 PUSH20 0xFFFFFFFFFFFFFFFFFFFFFFFFFFFFFFFFFFFFFFFF MUL NOT AND SWAP1 DUP4 PUSH20 0xFFFFFFFFFFFFFFFFFFFFFFFFFFFFFFFFFFFFFFFF AND MUL OR SWAP1 SSTORE POP PUSH20 0x5B38DA6A701C568545DCFCB03FCB875F56BEDDC4 PUSH1 0x5 PUSH1 0x0 PUSH2 0x100 EXP DUP2 SLOAD DUP2 PUSH20 0xFFFFFFFFFFFFFFFFFFFFFFFFFFFFFFFFFFFFFFFF MUL NOT AND SWAP1 DUP4 PUSH20 0xFFFFFFFFFFFFFFFFFFFFFFFFFFFFFFFFFFFFFFFF AND MUL OR SWAP1 SSTORE POP PUSH20 0xED2FD07B8BE10E2B8737E39AD33663DC711C31B PUSH1 0x6 PUSH1 0x0 PUSH2 0x100 EXP DUP2 SLOAD DUP2 PUSH20 0xFFFFFFFFFFFFFFFFFFFFFFFFFFFFFFFFFFFFFFFF MUL NOT AND SWAP1 DUP4 PUSH20 0xFFFFFFFFFFFFFFFFFFFFFFFFFFFFFFFFFFFFFFFF AND MUL OR SWAP1 SSTORE POP CALLVALUE DUP1 ISZERO PUSH3 0x110 JUMPI PUSH1 0x0 DUP1 REVERT JUMPDEST POP PUSH3 0x131 PUSH3 0x125 PUSH3 0x137 PUSH1 0x20 SHL PUSH1 0x20 SHR JUMP JUMPDEST PUSH3 0x13F PUSH1 0x20 SHL PUSH1 0x20 SHR JUMP JUMPDEST PUSH3 0x203 JUMP JUMPDEST PUSH1 0x0 CALLER SWAP1 POP SWAP1 JUMP JUMPDEST PUSH1 0x0 DUP1 PUSH1 0x0 SWAP1 SLOAD SWAP1 PUSH2 0x100 EXP SWAP1 DIV PUSH20 0xFFFFFFFFFFFFFFFFFFFFFFFFFFFFFFFFFFFFFFFF AND SWAP1 POP DUP2 PUSH1 0x0 DUP1 PUSH2 0x100 EXP DUP2 SLOAD DUP2 PUSH20 0xFFFFFFFFFFFFFFFFFFFFFFFFFFFFFFFFFFFFFFFF MUL NOT AND SWAP1 DUP4 PUSH20 0xFFFFFFFFFFFFFFFFFFFFFFFFFFFFFFFFFFFFFFFF AND MUL OR SWAP1 SSTORE POP DUP2 PUSH20 0xFFFFFFFFFFFFFFFFFFFFFFFFFFFFFFFFFFFFFFFF AND DUP2 PUSH20 0xFFFFFFFFFFFFFFFFFFFFFFFFFFFFFFFFFFFFFFFF AND PUSH32 0x8BE0079C531659141344CD1FD0A4F28419497F9722A3DAAFE3B4186F6B6457E0 PUSH1 0x40 MLOAD PUSH1 0x40 MLOAD DUP1 SWAP2 SUB SWAP1 LOG3 POP POP JUMP JUMPDEST PUSH2 0x25FE DUP1 PUSH3 0x213 PUSH1 0x0 CODECOPY PUSH1 0x0 RETURN INVALID PUSH1 0x80 PUSH1 0x40 MSTORE CALLVALUE DUP1 ISZERO PUSH2 0x10 JUMPI PUSH1 0x0 DUP1 REVERT JUMPDEST POP PUSH1 0x4 CALLDATASIZE LT PUSH2 0x158 JUMPI PUSH1 0x0 CALLDATALOAD PUSH1 0xE0 SHR DUP1 PUSH4 0x76636D20 GT PUSH2 0xC3 JUMPI DUP1 PUSH4 0xB657DD65 GT PUSH2 0x7C JUMPI DUP1 PUSH4 0xB657DD65 EQ PUSH2 0x3AA JUMPI DUP1 PUSH4 0xBC15CDF0 EQ PUSH2 0x3DA JUMPI DUP1 PUSH4 0xC4740A95 EQ PUSH2 0x40A JUMPI DUP1 PUSH4 0xF2FDE38B EQ PUSH2 0x426 JUMPI DUP1 PUSH4 0xF737D21D EQ PUSH2 0x442 JUMPI DUP1 PUSH4 0xF9CEE0BD EQ PUSH2 0x473 JUMPI PUSH2 0x158 JUMP JUMPDEST DUP1 PUSH4 0x76636D20 EQ PUSH2 0x2D0 JUMPI DUP1 PUSH4 0x8DA5CB5B EQ PUSH2 0x2EE JUMPI DUP1 PUSH4 0x9B3E4552 EQ PUSH2 0x30C JUMPI DUP1 PUSH4 0x9F10A990 EQ PUSH2 0x32A JUMPI DUP1 PUSH4 0xA59460DC EQ PUSH2 0x35A JUMPI DUP1 PUSH4 0xAC128F4F EQ PUSH2 0x376 JUMPI PUSH2 0x158 JUMP JUMPDEST DUP1 PUSH4 0x4626402B GT PUSH2 0x115 JUMPI DUP1 PUSH4 0x4626402B EQ PUSH2 0x222 JUMPI DUP1 PUSH4 0x484F4EA9 EQ PUSH2 0x240 JUMPI DUP1 PUSH4 0x5BEDC390 EQ PUSH2 0x25E JUMPI DUP1 PUSH4 0x647DCE0F EQ PUSH2 0x28E JUMPI DUP1 PUSH4 0x6FBB5A86 EQ PUSH2 0x2AA JUMPI DUP1 PUSH4 0x715018A6 EQ PUSH2 0x2C6 JUMPI PUSH2 0x158 JUMP JUMPDEST DUP1 PUSH4 0xD988270 EQ PUSH2 0x15D JUMPI DUP1 PUSH4 0x119B22B3 EQ PUSH2 0x18D JUMPI DUP1 PUSH4 0x158977DE EQ PUSH2 0x1AB JUMPI DUP1 PUSH4 0x3B98BC65 EQ PUSH2 0x1C9 JUMPI DUP1 PUSH4 0x443B80A1 EQ PUSH2 0x1E8 JUMPI DUP1 PUSH4 0x454F7B8F EQ PUSH2 0x204 JUMPI JUMPDEST PUSH1 0x0 DUP1 REVERT JUMPDEST PUSH2 0x177 PUSH1 0x4 DUP1 CALLDATASIZE SUB DUP2 ADD SWAP1 PUSH2 0x172 SWAP2 SWAP1 PUSH2 0x1A20 JUMP JUMPDEST PUSH2 0x491 JUMP JUMPDEST PUSH1 0x40 MLOAD PUSH2 0x184 SWAP2 SWAP1 PUSH2 0x2002 JUMP JUMPDEST PUSH1 0x40 MLOAD DUP1 SWAP2 SUB SWAP1 RETURN JUMPDEST PUSH2 0x195 PUSH2 0x4C2 JUMP JUMPDEST PUSH1 0x40 MLOAD PUSH2 0x1A2 SWAP2 SWAP1 PUSH2 0x2002 JUMP JUMPDEST PUSH1 0x40 MLOAD DUP1 SWAP2 SUB SWAP1 RETURN JUMPDEST PUSH2 0x1B3 PUSH2 0x4C8 JUMP JUMPDEST PUSH1 0x40 MLOAD PUSH2 0x1C0 SWAP2 SWAP1 PUSH2 0x2002 JUMP JUMPDEST PUSH1 0x40 MLOAD DUP1 SWAP2 SUB SWAP1 RETURN JUMPDEST PUSH2 0x1D1 PUSH2 0x599 JUMP JUMPDEST PUSH1 0x40 MLOAD PUSH2 0x1DF SWAP3 SWAP2 SWAP1 PUSH2 0x1EF3 JUMP JUMPDEST PUSH1 0x40 MLOAD DUP1 SWAP2 SUB SWAP1 RETURN JUMPDEST PUSH2 0x202 PUSH1 0x4 DUP1 CALLDATASIZE SUB DUP2 ADD SWAP1 PUSH2 0x1FD SWAP2 SWAP1 PUSH2 0x1A20 JUMP JUMPDEST PUSH2 0x7C2 JUMP JUMPDEST STOP JUMPDEST PUSH2 0x20C PUSH2 0x9AB JUMP JUMPDEST PUSH1 0x40 MLOAD PUSH2 0x219 SWAP2 SWAP1 PUSH2 0x2002 JUMP JUMPDEST PUSH1 0x40 MLOAD DUP1 SWAP2 SUB SWAP1 RETURN JUMPDEST PUSH2 0x22A PUSH2 0x9B1 JUMP JUMPDEST PUSH1 0x40 MLOAD PUSH2 0x237 SWAP2 SWAP1 PUSH2 0x1EAF JUMP JUMPDEST PUSH1 0x40 MLOAD DUP1 SWAP2 SUB SWAP1 RETURN JUMPDEST PUSH2 0x248 PUSH2 0x9D7 JUMP JUMPDEST PUSH1 0x40 MLOAD PUSH2 0x255 SWAP2 SWAP1 PUSH2 0x1F67 JUMP JUMPDEST PUSH1 0x40 MLOAD DUP1 SWAP2 SUB SWAP1 RETURN JUMPDEST PUSH2 0x278 PUSH1 0x4 DUP1 CALLDATASIZE SUB DUP2 ADD SWAP1 PUSH2 0x273 SWAP2 SWAP1 PUSH2 0x19F3 JUMP JUMPDEST PUSH2 0x9FD JUMP JUMPDEST PUSH1 0x40 MLOAD PUSH2 0x285 SWAP2 SWAP1 PUSH2 0x1F4C JUMP JUMPDEST PUSH1 0x40 MLOAD DUP1 SWAP2 SUB SWAP1 RETURN JUMPDEST PUSH2 0x2A8 PUSH1 0x4 DUP1 CALLDATASIZE SUB DUP2 ADD SWAP1 PUSH2 0x2A3 SWAP2 SWAP1 PUSH2 0x1A60 JUMP JUMPDEST PUSH2 0xA17 JUMP JUMPDEST STOP JUMPDEST PUSH2 0x2C4 PUSH1 0x4 DUP1 CALLDATASIZE SUB DUP2 ADD SWAP1 PUSH2 0x2BF SWAP2 SWAP1 PUSH2 0x1B32 JUMP JUMPDEST PUSH2 0xB98 JUMP JUMPDEST STOP JUMPDEST PUSH2 0x2CE PUSH2 0xD81 JUMP JUMPDEST STOP JUMPDEST PUSH2 0x2D8 PUSH2 0xE09 JUMP JUMPDEST PUSH1 0x40 MLOAD PUSH2 0x2E5 SWAP2 SWAP1 PUSH2 0x2002 JUMP JUMPDEST PUSH1 0x40 MLOAD DUP1 SWAP2 SUB SWAP1 RETURN JUMPDEST PUSH2 0x2F6 PUSH2 0xE0F JUMP JUMPDEST PUSH1 0x40 MLOAD PUSH2 0x303 SWAP2 SWAP1 PUSH2 0x1EAF JUMP JUMPDEST PUSH1 0x40 MLOAD DUP1 SWAP2 SUB SWAP1 RETURN JUMPDEST PUSH2 0x314 PUSH2 0xE38 JUMP JUMPDEST PUSH1 0x40 MLOAD PUSH2 0x321 SWAP2 SWAP1 PUSH2 0x1EAF JUMP JUMPDEST PUSH1 0x40 MLOAD DUP1 SWAP2 SUB SWAP1 RETURN JUMPDEST PUSH2 0x344 PUSH1 0x4 DUP1 CALLDATASIZE SUB DUP2 ADD SWAP1 PUSH2 0x33F SWAP2 SWAP1 PUSH2 0x19F3 JUMP JUMPDEST PUSH2 0xE5E JUMP JUMPDEST PUSH1 0x40 MLOAD PUSH2 0x351 SWAP2 SWAP1 PUSH2 0x2002 JUMP JUMPDEST PUSH1 0x40 MLOAD DUP1 SWAP2 SUB SWAP1 RETURN JUMPDEST PUSH2 0x374 PUSH1 0x4 DUP1 CALLDATASIZE SUB DUP2 ADD SWAP1 PUSH2 0x36F SWAP2 SWAP1 PUSH2 0x1A20 JUMP JUMPDEST PUSH2 0xEAA JUMP JUMPDEST STOP JUMPDEST PUSH2 0x390 PUSH1 0x4 DUP1 CALLDATASIZE SUB DUP2 ADD SWAP1 PUSH2 0x38B SWAP2 SWAP1 PUSH2 0x1AD8 JUMP JUMPDEST PUSH2 0x1194 JUMP JUMPDEST PUSH1 0x40 MLOAD PUSH2 0x3A1 SWAP6 SWAP5 SWAP4 SWAP3 SWAP2 SWAP1 PUSH2 0x2046 JUMP JUMPDEST PUSH1 0x40 MLOAD DUP1 SWAP2 SUB SWAP1 RETURN JUMPDEST PUSH2 0x3C4 PUSH1 0x4 DUP1 CALLDATASIZE SUB DUP2 ADD SWAP1 PUSH2 0x3BF SWAP2 SWAP1 PUSH2 0x1AD8 JUMP JUMPDEST PUSH2 0x11EA JUMP JUMPDEST PUSH1 0x40 MLOAD PUSH2 0x3D1 SWAP2 SWAP1 PUSH2 0x1EAF JUMP JUMPDEST PUSH1 0x40 MLOAD DUP1 SWAP2 SUB SWAP1 RETURN JUMPDEST PUSH2 0x3F4 PUSH1 0x4 DUP1 CALLDATASIZE SUB DUP2 ADD SWAP1 PUSH2 0x3EF SWAP2 SWAP1 PUSH2 0x1B32 JUMP JUMPDEST PUSH2 0x121D JUMP JUMPDEST PUSH1 0x40 MLOAD PUSH2 0x401 SWAP2 SWAP1 PUSH2 0x1F2A JUMP JUMPDEST PUSH1 0x40 MLOAD DUP1 SWAP2 SUB SWAP1 RETURN JUMPDEST PUSH2 0x424 PUSH1 0x4 DUP1 CALLDATASIZE SUB DUP2 ADD SWAP1 PUSH2 0x41F SWAP2 SWAP1 PUSH2 0x19F3 JUMP JUMPDEST PUSH2 0x1412 JUMP JUMPDEST STOP JUMPDEST PUSH2 0x440 PUSH1 0x4 DUP1 CALLDATASIZE SUB DUP2 ADD SWAP1 PUSH2 0x43B SWAP2 SWAP1 PUSH2 0x19F3 JUMP JUMPDEST PUSH2 0x1508 JUMP JUMPDEST STOP JUMPDEST PUSH2 0x45C PUSH1 0x4 DUP1 CALLDATASIZE SUB DUP2 ADD SWAP1 PUSH2 0x457 SWAP2 SWAP1 PUSH2 0x1AD8 JUMP JUMPDEST PUSH2 0x1600 JUMP JUMPDEST PUSH1 0x40 MLOAD PUSH2 0x46A SWAP3 SWAP2 SWAP1 PUSH2 0x201D JUMP JUMPDEST PUSH1 0x40 MLOAD DUP1 SWAP2 SUB SWAP1 RETURN JUMPDEST PUSH2 0x47B PUSH2 0x1656 JUMP JUMPDEST PUSH1 0x40 MLOAD PUSH2 0x488 SWAP2 SWAP1 PUSH2 0x2002 JUMP JUMPDEST PUSH1 0x40 MLOAD DUP1 SWAP2 SUB SWAP1 RETURN JUMPDEST PUSH1 0x9 PUSH1 0x20 MSTORE DUP2 PUSH1 0x0 MSTORE PUSH1 0x40 PUSH1 0x0 KECCAK256 DUP2 DUP2 SLOAD DUP2 LT PUSH2 0x4AD JUMPI PUSH1 0x0 DUP1 REVERT JUMPDEST SWAP1 PUSH1 0x0 MSTORE PUSH1 0x20 PUSH1 0x0 KECCAK256 ADD PUSH1 0x0 SWAP2 POP SWAP2 POP POP SLOAD DUP2 JUMP JUMPDEST PUSH1 0x2 SLOAD DUP2 JUMP JUMPDEST PUSH1 0x0 DUP1 JUMPDEST PUSH1 0x1 SLOAD DUP2 LT ISZERO PUSH2 0x595 JUMPI PUSH1 0x0 PUSH1 0x8 PUSH1 0x0 DUP4 DUP2 MSTORE PUSH1 0x20 ADD SWAP1 DUP2 MSTORE PUSH1 0x20 ADD PUSH1 0x0 KECCAK256 PUSH1 0x0 SWAP1 SLOAD SWAP1 PUSH2 0x100 EXP SWAP1 DIV PUSH20 0xFFFFFFFFFFFFFFFFFFFFFFFFFFFFFFFFFFFFFFFF AND SWAP1 POP PUSH1 0x9 PUSH1 0x0 DUP3 PUSH20 0xFFFFFFFFFFFFFFFFFFFFFFFFFFFFFFFFFFFFFFFF AND PUSH20 0xFFFFFFFFFFFFFFFFFFFFFFFFFFFFFFFFFFFFFFFF AND DUP2 MSTORE PUSH1 0x20 ADD SWAP1 DUP2 MSTORE PUSH1 0x20 ADD PUSH1 0x0 KECCAK256 PUSH1 0x0 DUP2 SLOAD DUP2 LT PUSH2 0x560 JUMPI PUSH2 0x55F PUSH2 0x2440 JUMP JUMPDEST JUMPDEST SWAP1 PUSH1 0x0 MSTORE PUSH1 0x20 PUSH1 0x0 KECCAK256 ADD SLOAD DUP3 EQ ISZERO PUSH2 0x581 JUMPI DUP3 DUP1 PUSH2 0x57D SWAP1 PUSH2 0x230B JUMP JUMPDEST SWAP4 POP POP JUMPDEST POP DUP1 DUP1 PUSH2 0x58D SWAP1 PUSH2 0x230B JUMP JUMPDEST SWAP2 POP POP PUSH2 0x4CC JUMP JUMPDEST POP SWAP1 JUMP JUMPDEST PUSH1 0x60 DUP1 PUSH1 0x0 PUSH2 0x5A6 PUSH2 0x4C8 JUMP JUMPDEST SWAP1 POP DUP1 PUSH8 0xFFFFFFFFFFFFFFFF DUP2 GT ISZERO PUSH2 0x5C2 JUMPI PUSH2 0x5C1 PUSH2 0x246F JUMP JUMPDEST JUMPDEST PUSH1 0x40 MLOAD SWAP1 DUP1 DUP3 MSTORE DUP1 PUSH1 0x20 MUL PUSH1 0x20 ADD DUP3 ADD PUSH1 0x40 MSTORE DUP1 ISZERO PUSH2 0x5F0 JUMPI DUP2 PUSH1 0x20 ADD PUSH1 0x20 DUP3 MUL DUP1 CALLDATASIZE DUP4 CALLDATACOPY DUP1 DUP3 ADD SWAP2 POP POP SWAP1 POP JUMPDEST POP SWAP3 POP DUP1 PUSH8 0xFFFFFFFFFFFFFFFF DUP2 GT ISZERO PUSH2 0x60D JUMPI PUSH2 0x60C PUSH2 0x246F JUMP JUMPDEST JUMPDEST PUSH1 0x40 MLOAD SWAP1 DUP1 DUP3 MSTORE DUP1 PUSH1 0x20 MUL PUSH1 0x20 ADD DUP3 ADD PUSH1 0x40 MSTORE DUP1 ISZERO PUSH2 0x63B JUMPI DUP2 PUSH1 0x20 ADD PUSH1 0x20 DUP3 MUL DUP1 CALLDATASIZE DUP4 CALLDATACOPY DUP1 DUP3 ADD SWAP2 POP POP SWAP1 POP JUMPDEST POP SWAP2 POP PUSH1 0x0 DUP1 JUMPDEST PUSH1 0x1 SLOAD DUP2 LT ISZERO PUSH2 0x7BB JUMPI PUSH1 0x0 PUSH1 0x8 PUSH1 0x0 DUP4 DUP2 MSTORE PUSH1 0x20 ADD SWAP1 DUP2 MSTORE PUSH1 0x20 ADD PUSH1 0x0 KECCAK256 PUSH1 0x0 SWAP1 SLOAD SWAP1 PUSH2 0x100 EXP SWAP1 DIV PUSH20 0xFFFFFFFFFFFFFFFFFFFFFFFFFFFFFFFFFFFFFFFF AND SWAP1 POP PUSH1 0x9 PUSH1 0x0 DUP3 PUSH20 0xFFFFFFFFFFFFFFFFFFFFFFFFFFFFFFFFFFFFFFFF AND PUSH20 0xFFFFFFFFFFFFFFFFFFFFFFFFFFFFFFFFFFFFFFFF AND DUP2 MSTORE PUSH1 0x20 ADD SWAP1 DUP2 MSTORE PUSH1 0x20 ADD PUSH1 0x0 KECCAK256 PUSH1 0x0 DUP2 SLOAD DUP2 LT PUSH2 0x6D6 JUMPI PUSH2 0x6D5 PUSH2 0x2440 JUMP JUMPDEST JUMPDEST SWAP1 PUSH1 0x0 MSTORE PUSH1 0x20 PUSH1 0x0 KECCAK256 ADD SLOAD DUP3 EQ ISZERO PUSH2 0x7A7 JUMPI DUP1 DUP7 DUP5 DUP2 MLOAD DUP2 LT PUSH2 0x6FC JUMPI PUSH2 0x6FB PUSH2 0x2440 JUMP JUMPDEST JUMPDEST PUSH1 0x20 MUL PUSH1 0x20 ADD ADD SWAP1 PUSH20 0xFFFFFFFFFFFFFFFFFFFFFFFFFFFFFFFFFFFFFFFF AND SWAP1 DUP2 PUSH20 0xFFFFFFFFFFFFFFFFFFFFFFFFFFFFFFFFFFFFFFFF AND DUP2 MSTORE POP POP PUSH1 0x9 PUSH1 0x0 DUP3 PUSH20 0xFFFFFFFFFFFFFFFFFFFFFFFFFFFFFFFFFFFFFFFF AND PUSH20 0xFFFFFFFFFFFFFFFFFFFFFFFFFFFFFFFFFFFFFFFF AND DUP2 MSTORE PUSH1 0x20 ADD SWAP1 DUP2 MSTORE PUSH1 0x20 ADD PUSH1 0x0 KECCAK256 DUP1 SLOAD SWAP1 POP DUP6 DUP5 DUP2 MLOAD DUP2 LT PUSH2 0x78C JUMPI PUSH2 0x78B PUSH2 0x2440 JUMP JUMPDEST JUMPDEST PUSH1 0x20 MUL PUSH1 0x20 ADD ADD DUP2 DUP2 MSTORE POP POP DUP3 DUP1 PUSH2 0x7A3 SWAP1 PUSH2 0x230B JUMP JUMPDEST SWAP4 POP POP JUMPDEST POP DUP1 DUP1 PUSH2 0x7B3 SWAP1 PUSH2 0x230B JUMP JUMPDEST SWAP2 POP POP PUSH2 0x642 JUMP JUMPDEST POP POP POP SWAP1 SWAP2 JUMP JUMPDEST PUSH2 0x7CA PUSH2 0x172A JUMP JUMPDEST PUSH20 0xFFFFFFFFFFFFFFFFFFFFFFFFFFFFFFFFFFFFFFFF AND PUSH2 0x7E8 PUSH2 0xE0F JUMP JUMPDEST PUSH20 0xFFFFFFFFFFFFFFFFFFFFFFFFFFFFFFFFFFFFFFFF AND EQ DUP1 PUSH2 0x85E JUMPI POP PUSH2 0x80D PUSH2 0x172A JUMP JUMPDEST PUSH20 0xFFFFFFFFFFFFFFFFFFFFFFFFFFFFFFFFFFFFFFFF AND PUSH1 0x5 PUSH1 0x0 SWAP1 SLOAD SWAP1 PUSH2 0x100 EXP SWAP1 DIV PUSH20 0xFFFFFFFFFFFFFFFFFFFFFFFFFFFFFFFFFFFFFFFF AND PUSH20 0xFFFFFFFFFFFFFFFFFFFFFFFFFFFFFFFFFFFFFFFF AND EQ JUMPDEST PUSH2 0x89D JUMPI PUSH1 0x40 MLOAD PUSH32 0x8C379A000000000000000000000000000000000000000000000000000000000 DUP2 MSTORE PUSH1 0x4 ADD PUSH2 0x894 SWAP1 PUSH2 0x1FA2 JUMP JUMPDEST PUSH1 0x40 MLOAD DUP1 SWAP2 SUB SWAP1 REVERT JUMPDEST PUSH1 0x0 JUMPDEST DUP2 DUP2 LT ISZERO PUSH2 0x98D JUMPI DUP3 PUSH1 0x8 PUSH1 0x0 DUP4 PUSH1 0x1 SLOAD PUSH2 0x8BB SWAP2 SWAP1 PUSH2 0x21D2 JUMP JUMPDEST DUP2 MSTORE PUSH1 0x20 ADD SWAP1 DUP2 MSTORE PUSH1 0x20 ADD PUSH1 0x0 KECCAK256 PUSH1 0x0 PUSH2 0x100 EXP DUP2 SLOAD DUP2 PUSH20 0xFFFFFFFFFFFFFFFFFFFFFFFFFFFFFFFFFFFFFFFF MUL NOT AND SWAP1 DUP4 PUSH20 0xFFFFFFFFFFFFFFFFFFFFFFFFFFFFFFFFFFFFFFFF AND MUL OR SWAP1 SSTORE POP PUSH1 0x9 PUSH1 0x0 DUP5 PUSH20 0xFFFFFFFFFFFFFFFFFFFFFFFFFFFFFFFFFFFFFFFF AND PUSH20 0xFFFFFFFFFFFFFFFFFFFFFFFFFFFFFFFFFFFFFFFF AND DUP2 MSTORE PUSH1 0x20 ADD SWAP1 DUP2 MSTORE PUSH1 0x20 ADD PUSH1 0x0 KECCAK256 DUP2 PUSH1 0x1 SLOAD PUSH2 0x954 SWAP2 SWAP1 PUSH2 0x21D2 JUMP JUMPDEST SWAP1 DUP1 PUSH1 0x1 DUP2 SLOAD ADD DUP1 DUP3 SSTORE DUP1 SWAP2 POP POP PUSH1 0x1 SWAP1 SUB SWAP1 PUSH1 0x0 MSTORE PUSH1 0x20 PUSH1 0x0 KECCAK256 ADD PUSH1 0x0 SWAP1 SWAP2 SWAP1 SWAP2 SWAP1 SWAP2 POP SSTORE DUP1 DUP1 PUSH2 0x985 SWAP1 PUSH2 0x230B JUMP JUMPDEST SWAP2 POP POP PUSH2 0x8A0 JUMP JUMPDEST POP DUP1 PUSH1 0x1 PUSH1 0x0 DUP3 DUP3 SLOAD PUSH2 0x9A0 SWAP2 SWAP1 PUSH2 0x21D2 JUMP JUMPDEST SWAP3 POP POP DUP2 SWAP1 SSTORE POP POP POP JUMP JUMPDEST PUSH1 0x3 SLOAD DUP2 JUMP JUMPDEST PUSH1 0x6 PUSH1 0x0 SWAP1 SLOAD SWAP1 PUSH2 0x100 EXP SWAP1 DIV PUSH20 0xFFFFFFFFFFFFFFFFFFFFFFFFFFFFFFFFFFFFFFFF AND DUP2 JUMP JUMPDEST PUSH1 0x4 PUSH1 0x0 SWAP1 SLOAD SWAP1 PUSH2 0x100 EXP SWAP1 DIV PUSH20 0xFFFFFFFFFFFFFFFFFFFFFFFFFFFFFFFFFFFFFFFF AND DUP2 JUMP JUMPDEST PUSH1 0x0 DUP1 PUSH2 0xA09 DUP4 PUSH2 0xE5E JUMP JUMPDEST SWAP1 POP PUSH1 0x0 DUP2 GT SWAP2 POP POP SWAP2 SWAP1 POP JUMP JUMPDEST PUSH2 0xA1F PUSH2 0x172A JUMP JUMPDEST PUSH20 0xFFFFFFFFFFFFFFFFFFFFFFFFFFFFFFFFFFFFFFFF AND PUSH2 0xA3D PUSH2 0xE0F JUMP JUMPDEST PUSH20 0xFFFFFFFFFFFFFFFFFFFFFFFFFFFFFFFFFFFFFFFF AND EQ DUP1 PUSH2 0xAB3 JUMPI POP PUSH2 0xA62 PUSH2 0x172A JUMP JUMPDEST PUSH20 0xFFFFFFFFFFFFFFFFFFFFFFFFFFFFFFFFFFFFFFFF AND PUSH1 0x5 PUSH1 0x0 SWAP1 SLOAD SWAP1 PUSH2 0x100 EXP SWAP1 DIV PUSH20 0xFFFFFFFFFFFFFFFFFFFFFFFFFFFFFFFFFFFFFFFF AND PUSH20 0xFFFFFFFFFFFFFFFFFFFFFFFFFFFFFFFFFFFFFFFF AND EQ JUMPDEST PUSH2 0xAF2 JUMPI PUSH1 0x40 MLOAD PUSH32 0x8C379A000000000000000000000000000000000000000000000000000000000 DUP2 MSTORE PUSH1 0x4 ADD PUSH2 0xAE9 SWAP1 PUSH2 0x1FA2 JUMP JUMPDEST PUSH1 0x40 MLOAD DUP1 SWAP2 SUB SWAP1 REVERT JUMPDEST DUP1 MLOAD DUP3 MLOAD EQ PUSH2 0xB36 JUMPI PUSH1 0x40 MLOAD PUSH32 0x8C379A000000000000000000000000000000000000000000000000000000000 DUP2 MSTORE PUSH1 0x4 ADD PUSH2 0xB2D SWAP1 PUSH2 0x1FE2 JUMP JUMPDEST PUSH1 0x40 MLOAD DUP1 SWAP2 SUB SWAP1 REVERT JUMPDEST PUSH1 0x0 JUMPDEST DUP3 MLOAD DUP2 LT ISZERO PUSH2 0xB93 JUMPI PUSH2 0xB80 DUP4 DUP3 DUP2 MLOAD DUP2 LT PUSH2 0xB58 JUMPI PUSH2 0xB57 PUSH2 0x2440 JUMP JUMPDEST JUMPDEST PUSH1 0x20 MUL PUSH1 0x20 ADD ADD MLOAD DUP4 DUP4 DUP2 MLOAD DUP2 LT PUSH2 0xB73 JUMPI PUSH2 0xB72 PUSH2 0x2440 JUMP JUMPDEST JUMPDEST PUSH1 0x20 MUL PUSH1 0x20 ADD ADD MLOAD PUSH2 0x7C2 JUMP JUMPDEST DUP1 DUP1 PUSH2 0xB8B SWAP1 PUSH2 0x230B JUMP JUMPDEST SWAP2 POP POP PUSH2 0xB39 JUMP JUMPDEST POP POP POP JUMP JUMPDEST PUSH2 0xBA0 PUSH2 0x172A JUMP JUMPDEST PUSH20 0xFFFFFFFFFFFFFFFFFFFFFFFFFFFFFFFFFFFFFFFF AND PUSH2 0xBBE PUSH2 0xE0F JUMP JUMPDEST PUSH20 0xFFFFFFFFFFFFFFFFFFFFFFFFFFFFFFFFFFFFFFFF AND EQ PUSH2 0xC14 JUMPI PUSH1 0x40 MLOAD PUSH32 0x8C379A000000000000000000000000000000000000000000000000000000000 DUP2 MSTORE PUSH1 0x4 ADD PUSH2 0xC0B SWAP1 PUSH2 0x1FC2 JUMP JUMPDEST PUSH1 0x40 MLOAD DUP1 SWAP2 SUB SWAP1 REVERT JUMPDEST PUSH1 0x0 PUSH1 0x8 PUSH1 0x0 DUP5 DUP2 MSTORE PUSH1 0x20 ADD SWAP1 DUP2 MSTORE PUSH1 0x20 ADD PUSH1 0x0 KECCAK256 PUSH1 0x0 SWAP1 SLOAD SWAP1 PUSH2 0x100 EXP SWAP1 DIV PUSH20 0xFFFFFFFFFFFFFFFFFFFFFFFFFFFFFFFFFFFFFFFF AND SWAP1 POP PUSH1 0x40 MLOAD DUP1 PUSH1 0xA0 ADD PUSH1 0x40 MSTORE DUP1 PUSH1 0x1 SLOAD DUP2 MSTORE PUSH1 0x20 ADD DUP5 DUP2 MSTORE PUSH1 0x20 ADD DUP4 DUP2 MSTORE PUSH1 0x20 ADD TIMESTAMP DUP2 MSTORE PUSH1 0x20 ADD DUP3 PUSH20 0xFFFFFFFFFFFFFFFFFFFFFFFFFFFFFFFFFFFFFFFF AND DUP2 MSTORE POP PUSH1 0x7 PUSH1 0x0 PUSH1 0x2 SLOAD DUP2 MSTORE PUSH1 0x20 ADD SWAP1 DUP2 MSTORE PUSH1 0x20 ADD PUSH1 0x0 KECCAK256 PUSH1 0x0 DUP3 ADD MLOAD DUP2 PUSH1 0x0 ADD SSTORE PUSH1 0x20 DUP3 ADD MLOAD DUP2 PUSH1 0x1 ADD SSTORE PUSH1 0x40 DUP3 ADD MLOAD DUP2 PUSH1 0x2 ADD SSTORE PUSH1 0x60 DUP3 ADD MLOAD DUP2 PUSH1 0x3 ADD SSTORE PUSH1 0x80 DUP3 ADD MLOAD DUP2 PUSH1 0x4 ADD PUSH1 0x0 PUSH2 0x100 EXP DUP2 SLOAD DUP2 PUSH20 0xFFFFFFFFFFFFFFFFFFFFFFFFFFFFFFFFFFFFFFFF MUL NOT AND SWAP1 DUP4 PUSH20 0xFFFFFFFFFFFFFFFFFFFFFFFFFFFFFFFFFFFFFFFF AND MUL OR SWAP1 SSTORE POP SWAP1 POP POP DUP2 PUSH1 0x3 PUSH1 0x0 DUP3 DUP3 SLOAD PUSH2 0xD24 SWAP2 SWAP1 PUSH2 0x21D2 JUMP JUMPDEST SWAP3 POP POP DUP2 SWAP1 SSTORE POP PUSH1 0x2 PUSH1 0x0 DUP2 SLOAD DUP1 SWAP3 SWAP2 SWAP1 PUSH2 0xD3E SWAP1 PUSH2 0x230B JUMP JUMPDEST SWAP2 SWAP1 POP SSTORE POP PUSH32 0x2E798DD4337E515C79B64C40E1A93BAA1AEFBD9180AC7905E02508EDD7971E50 DUP2 DUP4 PUSH1 0x40 MLOAD PUSH2 0xD74 SWAP3 SWAP2 SWAP1 PUSH2 0x1ECA JUMP JUMPDEST PUSH1 0x40 MLOAD DUP1 SWAP2 SUB SWAP1 LOG1 POP POP POP JUMP JUMPDEST PUSH2 0xD89 PUSH2 0x172A JUMP JUMPDEST PUSH20 0xFFFFFFFFFFFFFFFFFFFFFFFFFFFFFFFFFFFFFFFF AND PUSH2 0xDA7 PUSH2 0xE0F JUMP JUMPDEST PUSH20 0xFFFFFFFFFFFFFFFFFFFFFFFFFFFFFFFFFFFFFFFF AND EQ PUSH2 0xDFD JUMPI PUSH1 0x40 MLOAD PUSH32 0x8C379A000000000000000000000000000000000000000000000000000000000 DUP2 MSTORE PUSH1 0x4 ADD PUSH2 0xDF4 SWAP1 PUSH2 0x1FC2 JUMP JUMPDEST PUSH1 0x40 MLOAD DUP1 SWAP2 SUB SWAP1 REVERT JUMPDEST PUSH2 0xE07 PUSH1 0x0 PUSH2 0x1732 JUMP JUMPDEST JUMP JUMPDEST PUSH1 0x1 SLOAD DUP2 JUMP JUMPDEST PUSH1 0x0 DUP1 PUSH1 0x0 SWAP1 SLOAD SWAP1 PUSH2 0x100 EXP SWAP1 DIV PUSH20 0xFFFFFFFFFFFFFFFFFFFFFFFFFFFFFFFFFFFFFFFF AND SWAP1 POP SWAP1 JUMP JUMPDEST PUSH1 0x5 PUSH1 0x0 SWAP1 SLOAD SWAP1 PUSH2 0x100 EXP SWAP1 DIV PUSH20 0xFFFFFFFFFFFFFFFFFFFFFFFFFFFFFFFFFFFFFFFF AND DUP2 JUMP JUMPDEST PUSH1 0x0 PUSH1 0x9 PUSH1 0x0 DUP4 PUSH20 0xFFFFFFFFFFFFFFFFFFFFFFFFFFFFFFFFFFFFFFFF AND PUSH20 0xFFFFFFFFFFFFFFFFFFFFFFFFFFFFFFFFFFFFFFFF AND DUP2 MSTORE PUSH1 0x20 ADD SWAP1 DUP2 MSTORE PUSH1 0x20 ADD PUSH1 0x0 KECCAK256 DUP1 SLOAD SWAP1 POP SWAP1 POP SWAP2 SWAP1 POP JUMP JUMPDEST PUSH2 0xEB2 PUSH2 0x172A JUMP JUMPDEST PUSH20 0xFFFFFFFFFFFFFFFFFFFFFFFFFFFFFFFFFFFFFFFF AND PUSH2 0xED0 PUSH2 0xE0F JUMP JUMPDEST PUSH20 0xFFFFFFFFFFFFFFFFFFFFFFFFFFFFFFFFFFFFFFFF AND EQ DUP1 PUSH2 0xF46 JUMPI POP PUSH2 0xEF5 PUSH2 0x172A JUMP JUMPDEST PUSH20 0xFFFFFFFFFFFFFFFFFFFFFFFFFFFFFFFFFFFFFFFF AND PUSH1 0x5 PUSH1 0x0 SWAP1 SLOAD SWAP1 PUSH2 0x100 EXP SWAP1 DIV PUSH20 0xFFFFFFFFFFFFFFFFFFFFFFFFFFFFFFFFFFFFFFFF AND PUSH20 0xFFFFFFFFFFFFFFFFFFFFFFFFFFFFFFFFFFFFFFFF AND EQ JUMPDEST PUSH2 0xF85 JUMPI PUSH1 0x40 MLOAD PUSH32 0x8C379A000000000000000000000000000000000000000000000000000000000 DUP2 MSTORE PUSH1 0x4 ADD PUSH2 0xF7C SWAP1 PUSH2 0x1FA2 JUMP JUMPDEST PUSH1 0x40 MLOAD DUP1 SWAP2 SUB SWAP1 REVERT JUMPDEST PUSH1 0x0 PUSH2 0xF90 DUP4 PUSH2 0xE5E JUMP JUMPDEST SWAP1 POP PUSH1 0x0 DUP2 EQ ISZERO PUSH2 0xFA1 JUMPI POP PUSH2 0x1190 JUMP JUMPDEST DUP1 DUP3 GT ISZERO PUSH2 0xFAD JUMPI DUP1 SWAP2 POP JUMPDEST PUSH1 0x0 PUSH1 0x1 SWAP1 POP JUMPDEST DUP3 DUP2 GT PUSH2 0x1174 JUMPI PUSH1 0x0 PUSH1 0x9 PUSH1 0x0 DUP7 PUSH20 0xFFFFFFFFFFFFFFFFFFFFFFFFFFFFFFFFFFFFFFFF AND PUSH20 0xFFFFFFFFFFFFFFFFFFFFFFFFFFFFFFFFFFFFFFFF AND DUP2 MSTORE PUSH1 0x20 ADD SWAP1 DUP2 MSTORE PUSH1 0x20 ADD PUSH1 0x0 KECCAK256 PUSH1 0x1 PUSH1 0x9 PUSH1 0x0 DUP9 PUSH20 0xFFFFFFFFFFFFFFFFFFFFFFFFFFFFFFFFFFFFFFFF AND PUSH20 0xFFFFFFFFFFFFFFFFFFFFFFFFFFFFFFFFFFFFFFFF AND DUP2 MSTORE PUSH1 0x20 ADD SWAP1 DUP2 MSTORE PUSH1 0x20 ADD PUSH1 0x0 KECCAK256 DUP1 SLOAD SWAP1 POP PUSH2 0x104B SWAP2 SWAP1 PUSH2 0x2228 JUMP JUMPDEST DUP2 SLOAD DUP2 LT PUSH2 0x105C JUMPI PUSH2 0x105B PUSH2 0x2440 JUMP JUMPDEST JUMPDEST SWAP1 PUSH1 0x0 MSTORE PUSH1 0x20 PUSH1 0x0 KECCAK256 ADD SLOAD SWAP1 POP PUSH1 0x8 PUSH1 0x0 DUP4 PUSH1 0x1 SLOAD PUSH2 0x107B SWAP2 SWAP1 PUSH2 0x2228 JUMP JUMPDEST DUP2 MSTORE PUSH1 0x20 ADD SWAP1 DUP2 MSTORE PUSH1 0x20 ADD PUSH1 0x0 KECCAK256 PUSH1 0x0 SWAP1 SLOAD SWAP1 PUSH2 0x100 EXP SWAP1 DIV PUSH20 0xFFFFFFFFFFFFFFFFFFFFFFFFFFFFFFFFFFFFFFFF AND PUSH1 0x8 PUSH1 0x0 DUP4 DUP2 MSTORE PUSH1 0x20 ADD SWAP1 DUP2 MSTORE PUSH1 0x20 ADD PUSH1 0x0 KECCAK256 PUSH1 0x0 PUSH2 0x100 EXP DUP2 SLOAD DUP2 PUSH20 0xFFFFFFFFFFFFFFFFFFFFFFFFFFFFFFFFFFFFFFFF MUL NOT AND SWAP1 DUP4 PUSH20 0xFFFFFFFFFFFFFFFFFFFFFFFFFFFFFFFFFFFFFFFF AND MUL OR SWAP1 SSTORE POP PUSH1 0x9 PUSH1 0x0 DUP7 PUSH20 0xFFFFFFFFFFFFFFFFFFFFFFFFFFFFFFFFFFFFFFFF AND PUSH20 0xFFFFFFFFFFFFFFFFFFFFFFFFFFFFFFFFFFFFFFFF AND DUP2 MSTORE PUSH1 0x20 ADD SWAP1 DUP2 MSTORE PUSH1 0x20 ADD PUSH1 0x0 KECCAK256 DUP1 SLOAD DUP1 PUSH2 0x114A JUMPI PUSH2 0x1149 PUSH2 0x2411 JUMP JUMPDEST JUMPDEST PUSH1 0x1 SWAP1 SUB DUP2 DUP2 SWAP1 PUSH1 0x0 MSTORE PUSH1 0x20 PUSH1 0x0 KECCAK256 ADD PUSH1 0x0 SWAP1 SSTORE SWAP1 SSTORE POP DUP1 DUP1 PUSH2 0x116C SWAP1 PUSH2 0x230B JUMP JUMPDEST SWAP2 POP POP PUSH2 0xFB4 JUMP JUMPDEST POP DUP2 PUSH1 0x1 PUSH1 0x0 DUP3 DUP3 SLOAD PUSH2 0x1187 SWAP2 SWAP1 PUSH2 0x2228 JUMP JUMPDEST SWAP3 POP POP DUP2 SWAP1 SSTORE POP POP JUMPDEST POP POP JUMP JUMPDEST PUSH1 0x7 PUSH1 0x20 MSTORE DUP1 PUSH1 0x0 MSTORE PUSH1 0x40 PUSH1 0x0 KECCAK256 PUSH1 0x0 SWAP2 POP SWAP1 POP DUP1 PUSH1 0x0 ADD SLOAD SWAP1 DUP1 PUSH1 0x1 ADD SLOAD SWAP1 DUP1 PUSH1 0x2 ADD SLOAD SWAP1 DUP1 PUSH1 0x3 ADD SLOAD SWAP1 DUP1 PUSH1 0x4 ADD PUSH1 0x0 SWAP1 SLOAD SWAP1 PUSH2 0x100 EXP SWAP1 DIV PUSH20 0xFFFFFFFFFFFFFFFFFFFFFFFFFFFFFFFFFFFFFFFF AND SWAP1 POP DUP6 JUMP JUMPDEST PUSH1 0x8 PUSH1 0x20 MSTORE DUP1 PUSH1 0x0 MSTORE PUSH1 0x40 PUSH1 0x0 KECCAK256 PUSH1 0x0 SWAP2 POP SLOAD SWAP1 PUSH2 0x100 EXP SWAP1 DIV PUSH20 0xFFFFFFFFFFFFFFFFFFFFFFFFFFFFFFFFFFFFFFFF AND DUP2 JUMP JUMPDEST PUSH1 0x60 PUSH1 0x0 PUSH1 0x2 SLOAD EQ ISZERO PUSH2 0x1286 JUMPI PUSH1 0x0 PUSH8 0xFFFFFFFFFFFFFFFF DUP2 GT ISZERO PUSH2 0x1245 JUMPI PUSH2 0x1244 PUSH2 0x246F JUMP JUMPDEST JUMPDEST PUSH1 0x40 MLOAD SWAP1 DUP1 DUP3 MSTORE DUP1 PUSH1 0x20 MUL PUSH1 0x20 ADD DUP3 ADD PUSH1 0x40 MSTORE DUP1 ISZERO PUSH2 0x127E JUMPI DUP2 PUSH1 0x20 ADD JUMPDEST PUSH2 0x126B PUSH2 0x1833 JUMP JUMPDEST DUP2 MSTORE PUSH1 0x20 ADD SWAP1 PUSH1 0x1 SWAP1 SUB SWAP1 DUP2 PUSH2 0x1263 JUMPI SWAP1 POP JUMPDEST POP SWAP1 POP PUSH2 0x140C JUMP JUMPDEST PUSH1 0x2 SLOAD DUP3 LT PUSH2 0x12A1 JUMPI PUSH1 0x1 PUSH1 0x2 SLOAD PUSH2 0x129E SWAP2 SWAP1 PUSH2 0x2228 JUMP JUMPDEST SWAP2 POP JUMPDEST PUSH1 0x0 PUSH1 0x1 DUP5 DUP5 PUSH2 0x12B1 SWAP2 SWAP1 PUSH2 0x2228 JUMP JUMPDEST PUSH2 0x12BB SWAP2 SWAP1 PUSH2 0x21D2 JUMP JUMPDEST SWAP1 POP PUSH1 0x0 DUP2 PUSH8 0xFFFFFFFFFFFFFFFF DUP2 GT ISZERO PUSH2 0x12D9 JUMPI PUSH2 0x12D8 PUSH2 0x246F JUMP JUMPDEST JUMPDEST PUSH1 0x40 MLOAD SWAP1 DUP1 DUP3 MSTORE DUP1 PUSH1 0x20 MUL PUSH1 0x20 ADD DUP3 ADD PUSH1 0x40 MSTORE DUP1 ISZERO PUSH2 0x1312 JUMPI DUP2 PUSH1 0x20 ADD JUMPDEST PUSH2 0x12FF PUSH2 0x1833 JUMP JUMPDEST DUP2 MSTORE PUSH1 0x20 ADD SWAP1 PUSH1 0x1 SWAP1 SUB SWAP1 DUP2 PUSH2 0x12F7 JUMPI SWAP1 POP JUMPDEST POP SWAP3 POP PUSH1 0x0 DUP6 SWAP1 POP JUMPDEST DUP5 DUP2 GT PUSH2 0x1408 JUMPI PUSH1 0x7 PUSH1 0x0 DUP3 DUP9 PUSH2 0x1332 SWAP2 SWAP1 PUSH2 0x21D2 JUMP JUMPDEST DUP2 MSTORE PUSH1 0x20 ADD SWAP1 DUP2 MSTORE PUSH1 0x20 ADD PUSH1 0x0 KECCAK256 PUSH1 0x40 MLOAD DUP1 PUSH1 0xA0 ADD PUSH1 0x40 MSTORE SWAP1 DUP2 PUSH1 0x0 DUP3 ADD SLOAD DUP2 MSTORE PUSH1 0x20 ADD PUSH1 0x1 DUP3 ADD SLOAD DUP2 MSTORE PUSH1 0x20 ADD PUSH1 0x2 DUP3 ADD SLOAD DUP2 MSTORE PUSH1 0x20 ADD PUSH1 0x3 DUP3 ADD SLOAD DUP2 MSTORE PUSH1 0x20 ADD PUSH1 0x4 DUP3 ADD PUSH1 0x0 SWAP1 SLOAD SWAP1 PUSH2 0x100 EXP SWAP1 DIV PUSH20 0xFFFFFFFFFFFFFFFFFFFFFFFFFFFFFFFFFFFFFFFF AND PUSH20 0xFFFFFFFFFFFFFFFFFFFFFFFFFFFFFFFFFFFFFFFF AND PUSH20 0xFFFFFFFFFFFFFFFFFFFFFFFFFFFFFFFFFFFFFFFF AND DUP2 MSTORE POP POP DUP5 DUP4 DUP2 MLOAD DUP2 LT PUSH2 0x13DC JUMPI PUSH2 0x13DB PUSH2 0x2440 JUMP JUMPDEST JUMPDEST PUSH1 0x20 MUL PUSH1 0x20 ADD ADD DUP2 SWAP1 MSTORE POP DUP2 DUP1 PUSH2 0x13F2 SWAP1 PUSH2 0x230B JUMP JUMPDEST SWAP3 POP POP DUP1 DUP1 PUSH2 0x1400 SWAP1 PUSH2 0x230B JUMP JUMPDEST SWAP2 POP POP PUSH2 0x131B JUMP JUMPDEST POP POP POP JUMPDEST SWAP3 SWAP2 POP POP JUMP JUMPDEST PUSH2 0x141A PUSH2 0x172A JUMP JUMPDEST PUSH20 0xFFFFFFFFFFFFFFFFFFFFFFFFFFFFFFFFFFFFFFFF AND PUSH2 0x1438 PUSH2 0xE0F JUMP JUMPDEST PUSH20 0xFFFFFFFFFFFFFFFFFFFFFFFFFFFFFFFFFFFFFFFF AND EQ DUP1 PUSH2 0x14AE JUMPI POP PUSH2 0x145D PUSH2 0x172A JUMP JUMPDEST PUSH20 0xFFFFFFFFFFFFFFFFFFFFFFFFFFFFFFFFFFFFFFFF AND PUSH1 0x5 PUSH1 0x0 SWAP1 SLOAD SWAP1 PUSH2 0x100 EXP SWAP1 DIV PUSH20 0xFFFFFFFFFFFFFFFFFFFFFFFFFFFFFFFFFFFFFFFF AND PUSH20 0xFFFFFFFFFFFFFFFFFFFFFFFFFFFFFFFFFFFFFFFF AND EQ JUMPDEST PUSH2 0x14ED JUMPI PUSH1 0x40 MLOAD PUSH32 0x8C379A000000000000000000000000000000000000000000000000000000000 DUP2 MSTORE PUSH1 0x4 ADD PUSH2 0x14E4 SWAP1 PUSH2 0x1FA2 JUMP JUMPDEST PUSH1 0x40 MLOAD DUP1 SWAP2 SUB SWAP1 REVERT JUMPDEST PUSH1 0x0 PUSH2 0x14F8 DUP3 PUSH2 0xE5E JUMP JUMPDEST SWAP1 POP PUSH2 0x1504 DUP3 DUP3 PUSH2 0xEAA JUMP JUMPDEST POP POP JUMP JUMPDEST PUSH2 0x1510 PUSH2 0x172A JUMP JUMPDEST PUSH20 0xFFFFFFFFFFFFFFFFFFFFFFFFFFFFFFFFFFFFFFFF AND PUSH2 0x152E PUSH2 0xE0F JUMP JUMPDEST PUSH20 0xFFFFFFFFFFFFFFFFFFFFFFFFFFFFFFFFFFFFFFFF AND EQ PUSH2 0x1584 JUMPI PUSH1 0x40 MLOAD PUSH32 0x8C379A000000000000000000000000000000000000000000000000000000000 DUP2 MSTORE PUSH1 0x4 ADD PUSH2 0x157B SWAP1 PUSH2 0x1FC2 JUMP JUMPDEST PUSH1 0x40 MLOAD DUP1 SWAP2 SUB SWAP1 REVERT JUMPDEST PUSH1 0x0 PUSH20 0xFFFFFFFFFFFFFFFFFFFFFFFFFFFFFFFFFFFFFFFF AND DUP2 PUSH20 0xFFFFFFFFFFFFFFFFFFFFFFFFFFFFFFFFFFFFFFFF AND EQ ISZERO PUSH2 0x15F4 JUMPI PUSH1 0x40 MLOAD PUSH32 0x8C379A000000000000000000000000000000000000000000000000000000000 DUP2 MSTORE PUSH1 0x4 ADD PUSH2 0x15EB SWAP1 PUSH2 0x1F82 JUMP JUMPDEST PUSH1 0x40 MLOAD DUP1 SWAP2 SUB SWAP1 REVERT JUMPDEST PUSH2 0x15FD DUP2 PUSH2 0x1732 JUMP JUMPDEST POP JUMP JUMPDEST PUSH1 0x0 DUP1 PUSH1 0x1 SLOAD PUSH2 0x160F DUP5 PUSH2 0x17F6 JUMP JUMPDEST PUSH2 0x1619 SWAP2 SWAP1 PUSH2 0x2382 JUMP JUMPDEST SWAP2 POP PUSH1 0x8 PUSH1 0x0 DUP4 DUP2 MSTORE PUSH1 0x20 ADD SWAP1 DUP2 MSTORE PUSH1 0x20 ADD PUSH1 0x0 KECCAK256 PUSH1 0x0 SWAP1 SLOAD SWAP1 PUSH2 0x100 EXP SWAP1 DIV PUSH20 0xFFFFFFFFFFFFFFFFFFFFFFFFFFFFFFFFFFFFFFFF AND SWAP1 POP SWAP2 POP SWAP2 JUMP JUMPDEST PUSH1 0x0 PUSH1 0x4 PUSH1 0x0 SWAP1 SLOAD SWAP1 PUSH2 0x100 EXP SWAP1 DIV PUSH20 0xFFFFFFFFFFFFFFFFFFFFFFFFFFFFFFFFFFFFFFFF AND PUSH20 0xFFFFFFFFFFFFFFFFFFFFFFFFFFFFFFFFFFFFFFFF AND PUSH4 0x70A08231 PUSH1 0x6 PUSH1 0x0 SWAP1 SLOAD SWAP1 PUSH2 0x100 EXP SWAP1 DIV PUSH20 0xFFFFFFFFFFFFFFFFFFFFFFFFFFFFFFFFFFFFFFFF AND PUSH1 0x40 MLOAD DUP3 PUSH4 0xFFFFFFFF AND PUSH1 0xE0 SHL DUP2 MSTORE PUSH1 0x4 ADD PUSH2 0x16D5 SWAP2 SWAP1 PUSH2 0x1EAF JUMP JUMPDEST PUSH1 0x20 PUSH1 0x40 MLOAD DUP1 DUP4 SUB DUP2 DUP7 DUP1 EXTCODESIZE ISZERO DUP1 ISZERO PUSH2 0x16ED JUMPI PUSH1 0x0 DUP1 REVERT JUMPDEST POP GAS STATICCALL ISZERO DUP1 ISZERO PUSH2 0x1701 JUMPI RETURNDATASIZE PUSH1 0x0 DUP1 RETURNDATACOPY RETURNDATASIZE PUSH1 0x0 REVERT JUMPDEST POP POP POP POP PUSH1 0x40 MLOAD RETURNDATASIZE PUSH1 0x1F NOT PUSH1 0x1F DUP3 ADD AND DUP3 ADD DUP1 PUSH1 0x40 MSTORE POP DUP2 ADD SWAP1 PUSH2 0x1725 SWAP2 SWAP1 PUSH2 0x1B05 JUMP JUMPDEST SWAP1 POP SWAP1 JUMP JUMPDEST PUSH1 0x0 CALLER SWAP1 POP SWAP1 JUMP JUMPDEST PUSH1 0x0 DUP1 PUSH1 0x0 SWAP1 SLOAD SWAP1 PUSH2 0x100 EXP SWAP1 DIV PUSH20 0xFFFFFFFFFFFFFFFFFFFFFFFFFFFFFFFFFFFFFFFF AND SWAP1 POP DUP2 PUSH1 0x0 DUP1 PUSH2 0x100 EXP DUP2 SLOAD DUP2 PUSH20 0xFFFFFFFFFFFFFFFFFFFFFFFFFFFFFFFFFFFFFFFF MUL NOT AND SWAP1 DUP4 PUSH20 0xFFFFFFFFFFFFFFFFFFFFFFFFFFFFFFFFFFFFFFFF AND MUL OR SWAP1 SSTORE POP DUP2 PUSH20 0xFFFFFFFFFFFFFFFFFFFFFFFFFFFFFFFFFFFFFFFF AND DUP2 PUSH20 0xFFFFFFFFFFFFFFFFFFFFFFFFFFFFFFFFFFFFFFFF AND PUSH32 0x8BE0079C531659141344CD1FD0A4F28419497F9722A3DAAFE3B4186F6B6457E0 PUSH1 0x40 MLOAD PUSH1 0x40 MLOAD DUP1 SWAP2 SUB SWAP1 LOG3 POP POP JUMP JUMPDEST PUSH1 0x0 DUP2 TIMESTAMP GAS CALLER PUSH1 0x1 SLOAD PUSH1 0x40 MLOAD PUSH1 0x20 ADD PUSH2 0x1813 SWAP6 SWAP5 SWAP4 SWAP3 SWAP2 SWAP1 PUSH2 0x1E50 JUMP JUMPDEST PUSH1 0x40 MLOAD PUSH1 0x20 DUP2 DUP4 SUB SUB DUP2 MSTORE SWAP1 PUSH1 0x40 MSTORE DUP1 MLOAD SWAP1 PUSH1 0x20 ADD KECCAK256 PUSH1 0x0 SHR SWAP1 POP SWAP2 SWAP1 POP JUMP JUMPDEST PUSH1 0x40 MLOAD DUP1 PUSH1 0xA0 ADD PUSH1 0x40 MSTORE DUP1 PUSH1 0x0 DUP2 MSTORE PUSH1 0x20 ADD PUSH1 0x0 DUP2 MSTORE PUSH1 0x20 ADD PUSH1 0x0 DUP2 MSTORE PUSH1 0x20 ADD PUSH1 0x0 DUP2 MSTORE PUSH1 0x20 ADD PUSH1 0x0 PUSH20 0xFFFFFFFFFFFFFFFFFFFFFFFFFFFFFFFFFFFFFFFF AND DUP2 MSTORE POP SWAP1 JUMP JUMPDEST PUSH1 0x0 PUSH2 0x188B PUSH2 0x1886 DUP5 PUSH2 0x20BE JUMP JUMPDEST PUSH2 0x2099 JUMP JUMPDEST SWAP1 POP DUP1 DUP4 DUP3 MSTORE PUSH1 0x20 DUP3 ADD SWAP1 POP DUP3 DUP6 PUSH1 0x20 DUP7 MUL DUP3 ADD GT ISZERO PUSH2 0x18AE JUMPI PUSH2 0x18AD PUSH2 0x24A3 JUMP JUMPDEST JUMPDEST PUSH1 0x0 JUMPDEST DUP6 DUP2 LT ISZERO PUSH2 0x18DE JUMPI DUP2 PUSH2 0x18C4 DUP9 DUP3 PUSH2 0x1958 JUMP JUMPDEST DUP5 MSTORE PUSH1 0x20 DUP5 ADD SWAP4 POP PUSH1 0x20 DUP4 ADD SWAP3 POP POP PUSH1 0x1 DUP2 ADD SWAP1 POP PUSH2 0x18B1 JUMP JUMPDEST POP POP POP SWAP4 SWAP3 POP POP POP JUMP JUMPDEST PUSH1 0x0 PUSH2 0x18FB PUSH2 0x18F6 DUP5 PUSH2 0x20EA JUMP JUMPDEST PUSH2 0x2099 JUMP JUMPDEST SWAP1 POP DUP1 DUP4 DUP3 MSTORE PUSH1 0x20 DUP3 ADD SWAP1 POP DUP3 DUP6 PUSH1 0x20 DUP7 MUL DUP3 ADD GT ISZERO PUSH2 0x191E JUMPI PUSH2 0x191D PUSH2 0x24A3 JUMP JUMPDEST JUMPDEST PUSH1 0x0 JUMPDEST DUP6 DUP2 LT ISZERO PUSH2 0x194E JUMPI DUP2 PUSH2 0x1934 DUP9 DUP3 PUSH2 0x19C9 JUMP JUMPDEST DUP5 MSTORE PUSH1 0x20 DUP5 ADD SWAP4 POP PUSH1 0x20 DUP4 ADD SWAP3 POP POP PUSH1 0x1 DUP2 ADD SWAP1 POP PUSH2 0x1921 JUMP JUMPDEST POP POP POP SWAP4 SWAP3 POP POP POP JUMP JUMPDEST PUSH1 0x0 DUP2 CALLDATALOAD SWAP1 POP PUSH2 0x1967 DUP2 PUSH2 0x259A JUMP JUMPDEST SWAP3 SWAP2 POP POP JUMP JUMPDEST PUSH1 0x0 DUP3 PUSH1 0x1F DUP4 ADD SLT PUSH2 0x1982 JUMPI PUSH2 0x1981 PUSH2 0x249E JUMP JUMPDEST JUMPDEST DUP2 CALLDATALOAD PUSH2 0x1992 DUP5 DUP3 PUSH1 0x20 DUP7 ADD PUSH2 0x1878 JUMP JUMPDEST SWAP2 POP POP SWAP3 SWAP2 POP POP JUMP JUMPDEST PUSH1 0x0 DUP3 PUSH1 0x1F DUP4 ADD SLT PUSH2 0x19B0 JUMPI PUSH2 0x19AF PUSH2 0x249E JUMP JUMPDEST JUMPDEST DUP2 CALLDATALOAD PUSH2 0x19C0 DUP5 DUP3 PUSH1 0x20 DUP7 ADD PUSH2 0x18E8 JUMP JUMPDEST SWAP2 POP POP SWAP3 SWAP2 POP POP JUMP JUMPDEST PUSH1 0x0 DUP2 CALLDATALOAD SWAP1 POP PUSH2 0x19D8 DUP2 PUSH2 0x25B1 JUMP JUMPDEST SWAP3 SWAP2 POP POP JUMP JUMPDEST PUSH1 0x0 DUP2 MLOAD SWAP1 POP PUSH2 0x19ED DUP2 PUSH2 0x25B1 JUMP JUMPDEST SWAP3 SWAP2 POP POP JUMP JUMPDEST PUSH1 0x0 PUSH1 0x20 DUP3 DUP5 SUB SLT ISZERO PUSH2 0x1A09 JUMPI PUSH2 0x1A08 PUSH2 0x24AD JUMP JUMPDEST JUMPDEST PUSH1 0x0 PUSH2 0x1A17 DUP5 DUP3 DUP6 ADD PUSH2 0x1958 JUMP JUMPDEST SWAP2 POP POP SWAP3 SWAP2 POP POP JUMP JUMPDEST PUSH1 0x0 DUP1 PUSH1 0x40 DUP4 DUP6 SUB SLT ISZERO PUSH2 0x1A37 JUMPI PUSH2 0x1A36 PUSH2 0x24AD JUMP JUMPDEST JUMPDEST PUSH1 0x0 PUSH2 0x1A45 DUP6 DUP3 DUP7 ADD PUSH2 0x1958 JUMP JUMPDEST SWAP3 POP POP PUSH1 0x20 PUSH2 0x1A56 DUP6 DUP3 DUP7 ADD PUSH2 0x19C9 JUMP JUMPDEST SWAP2 POP POP SWAP3 POP SWAP3 SWAP1 POP JUMP JUMPDEST PUSH1 0x0 DUP1 PUSH1 0x40 DUP4 DUP6 SUB SLT ISZERO PUSH2 0x1A77 JUMPI PUSH2 0x1A76 PUSH2 0x24AD JUMP JUMPDEST JUMPDEST PUSH1 0x0 DUP4 ADD CALLDATALOAD PUSH8 0xFFFFFFFFFFFFFFFF DUP2 GT ISZERO PUSH2 0x1A95 JUMPI PUSH2 0x1A94 PUSH2 0x24A8 JUMP JUMPDEST JUMPDEST PUSH2 0x1AA1 DUP6 DUP3 DUP7 ADD PUSH2 0x196D JUMP JUMPDEST SWAP3 POP POP PUSH1 0x20 DUP4 ADD CALLDATALOAD PUSH8 0xFFFFFFFFFFFFFFFF DUP2 GT ISZERO PUSH2 0x1AC2 JUMPI PUSH2 0x1AC1 PUSH2 0x24A8 JUMP JUMPDEST JUMPDEST PUSH2 0x1ACE DUP6 DUP3 DUP7 ADD PUSH2 0x199B JUMP JUMPDEST SWAP2 POP POP SWAP3 POP SWAP3 SWAP1 POP JUMP JUMPDEST PUSH1 0x0 PUSH1 0x20 DUP3 DUP5 SUB SLT ISZERO PUSH2 0x1AEE JUMPI PUSH2 0x1AED PUSH2 0x24AD JUMP JUMPDEST JUMPDEST PUSH1 0x0 PUSH2 0x1AFC DUP5 DUP3 DUP6 ADD PUSH2 0x19C9 JUMP JUMPDEST SWAP2 POP POP SWAP3 SWAP2 POP POP JUMP JUMPDEST PUSH1 0x0 PUSH1 0x20 DUP3 DUP5 SUB SLT ISZERO PUSH2 0x1B1B JUMPI PUSH2 0x1B1A PUSH2 0x24AD JUMP JUMPDEST JUMPDEST PUSH1 0x0 PUSH2 0x1B29 DUP5 DUP3 DUP6 ADD PUSH2 0x19DE JUMP JUMPDEST SWAP2 POP POP SWAP3 SWAP2 POP POP JUMP JUMPDEST PUSH1 0x0 DUP1 PUSH1 0x40 DUP4 DUP6 SUB SLT ISZERO PUSH2 0x1B49 JUMPI PUSH2 0x1B48 PUSH2 0x24AD JUMP JUMPDEST JUMPDEST PUSH1 0x0 PUSH2 0x1B57 DUP6 DUP3 DUP7 ADD PUSH2 0x19C9 JUMP JUMPDEST SWAP3 POP POP PUSH1 0x20 PUSH2 0x1B68 DUP6 DUP3 DUP7 ADD PUSH2 0x19C9 JUMP JUMPDEST SWAP2 POP POP SWAP3 POP SWAP3 SWAP1 POP JUMP JUMPDEST PUSH1 0x0 PUSH2 0x1B7E DUP4 DUP4 PUSH2 0x1BBA JUMP JUMPDEST PUSH1 0x20 DUP4 ADD SWAP1 POP SWAP3 SWAP2 POP POP JUMP JUMPDEST PUSH1 0x0 PUSH2 0x1B96 DUP4 DUP4 PUSH2 0x1DB3 JUMP JUMPDEST PUSH1 0xA0 DUP4 ADD SWAP1 POP SWAP3 SWAP2 POP POP JUMP JUMPDEST PUSH1 0x0 PUSH2 0x1BAE DUP4 DUP4 PUSH2 0x1E1B JUMP JUMPDEST PUSH1 0x20 DUP4 ADD SWAP1 POP SWAP3 SWAP2 POP POP JUMP JUMPDEST PUSH2 0x1BC3 DUP2 PUSH2 0x225C JUMP JUMPDEST DUP3 MSTORE POP POP JUMP JUMPDEST PUSH2 0x1BD2 DUP2 PUSH2 0x225C JUMP JUMPDEST DUP3 MSTORE POP POP JUMP JUMPDEST PUSH2 0x1BE9 PUSH2 0x1BE4 DUP3 PUSH2 0x225C JUMP JUMPDEST PUSH2 0x2354 JUMP JUMPDEST DUP3 MSTORE POP POP JUMP JUMPDEST PUSH1 0x0 PUSH2 0x1BFA DUP3 PUSH2 0x2146 JUMP JUMPDEST PUSH2 0x1C04 DUP2 DUP6 PUSH2 0x218E JUMP JUMPDEST SWAP4 POP PUSH2 0x1C0F DUP4 PUSH2 0x2116 JUMP JUMPDEST DUP1 PUSH1 0x0 JUMPDEST DUP4 DUP2 LT ISZERO PUSH2 0x1C40 JUMPI DUP2 MLOAD PUSH2 0x1C27 DUP9 DUP3 PUSH2 0x1B72 JUMP JUMPDEST SWAP8 POP PUSH2 0x1C32 DUP4 PUSH2 0x2167 JUMP JUMPDEST SWAP3 POP POP PUSH1 0x1 DUP2 ADD SWAP1 POP PUSH2 0x1C13 JUMP JUMPDEST POP DUP6 SWAP4 POP POP POP POP SWAP3 SWAP2 POP POP JUMP JUMPDEST PUSH1 0x0 PUSH2 0x1C58 DUP3 PUSH2 0x2151 JUMP JUMPDEST PUSH2 0x1C62 DUP2 DUP6 PUSH2 0x219F JUMP JUMPDEST SWAP4 POP PUSH2 0x1C6D DUP4 PUSH2 0x2126 JUMP JUMPDEST DUP1 PUSH1 0x0 JUMPDEST DUP4 DUP2 LT ISZERO PUSH2 0x1C9E JUMPI DUP2 MLOAD PUSH2 0x1C85 DUP9 DUP3 PUSH2 0x1B8A JUMP JUMPDEST SWAP8 POP PUSH2 0x1C90 DUP4 PUSH2 0x2174 JUMP JUMPDEST SWAP3 POP POP PUSH1 0x1 DUP2 ADD SWAP1 POP PUSH2 0x1C71 JUMP JUMPDEST POP DUP6 SWAP4 POP POP POP POP SWAP3 SWAP2 POP POP JUMP JUMPDEST PUSH1 0x0 PUSH2 0x1CB6 DUP3 PUSH2 0x215C JUMP JUMPDEST PUSH2 0x1CC0 DUP2 DUP6 PUSH2 0x21B0 JUMP JUMPDEST SWAP4 POP PUSH2 0x1CCB DUP4 PUSH2 0x2136 JUMP JUMPDEST DUP1 PUSH1 0x0 JUMPDEST DUP4 DUP2 LT ISZERO PUSH2 0x1CFC JUMPI DUP2 MLOAD PUSH2 0x1CE3 DUP9 DUP3 PUSH2 0x1BA2 JUMP JUMPDEST SWAP8 POP PUSH2 0x1CEE DUP4 PUSH2 0x2181 JUMP JUMPDEST SWAP3 POP POP PUSH1 0x1 DUP2 ADD SWAP1 POP PUSH2 0x1CCF JUMP JUMPDEST POP DUP6 SWAP4 POP POP POP POP SWAP3 SWAP2 POP POP JUMP JUMPDEST PUSH2 0x1D12 DUP2 PUSH2 0x226E JUMP JUMPDEST DUP3 MSTORE POP POP JUMP JUMPDEST PUSH2 0x1D21 DUP2 PUSH2 0x22A4 JUMP JUMPDEST DUP3 MSTORE POP POP JUMP JUMPDEST PUSH1 0x0 PUSH2 0x1D34 PUSH1 0x26 DUP4 PUSH2 0x21C1 JUMP JUMPDEST SWAP2 POP PUSH2 0x1D3F DUP3 PUSH2 0x24D0 JUMP JUMPDEST PUSH1 0x40 DUP3 ADD SWAP1 POP SWAP2 SWAP1 POP JUMP JUMPDEST PUSH1 0x0 PUSH2 0x1D57 PUSH1 0xB DUP4 PUSH2 0x21C1 JUMP JUMPDEST SWAP2 POP PUSH2 0x1D62 DUP3 PUSH2 0x251F JUMP JUMPDEST PUSH1 0x20 DUP3 ADD SWAP1 POP SWAP2 SWAP1 POP JUMP JUMPDEST PUSH1 0x0 PUSH2 0x1D7A PUSH1 0x20 DUP4 PUSH2 0x21C1 JUMP JUMPDEST SWAP2 POP PUSH2 0x1D85 DUP3 PUSH2 0x2548 JUMP JUMPDEST PUSH1 0x20 DUP3 ADD SWAP1 POP SWAP2 SWAP1 POP JUMP JUMPDEST PUSH1 0x0 PUSH2 0x1D9D PUSH1 0x1D DUP4 PUSH2 0x21C1 JUMP JUMPDEST SWAP2 POP PUSH2 0x1DA8 DUP3 PUSH2 0x2571 JUMP JUMPDEST PUSH1 0x20 DUP3 ADD SWAP1 POP SWAP2 SWAP1 POP JUMP JUMPDEST PUSH1 0xA0 DUP3 ADD PUSH1 0x0 DUP3 ADD MLOAD PUSH2 0x1DC9 PUSH1 0x0 DUP6 ADD DUP3 PUSH2 0x1E1B JUMP JUMPDEST POP PUSH1 0x20 DUP3 ADD MLOAD PUSH2 0x1DDC PUSH1 0x20 DUP6 ADD DUP3 PUSH2 0x1E1B JUMP JUMPDEST POP PUSH1 0x40 DUP3 ADD MLOAD PUSH2 0x1DEF PUSH1 0x40 DUP6 ADD DUP3 PUSH2 0x1E1B JUMP JUMPDEST POP PUSH1 0x60 DUP3 ADD MLOAD PUSH2 0x1E02 PUSH1 0x60 DUP6 ADD DUP3 PUSH2 0x1E1B JUMP JUMPDEST POP PUSH1 0x80 DUP3 ADD MLOAD PUSH2 0x1E15 PUSH1 0x80 DUP6 ADD DUP3 PUSH2 0x1BBA JUMP JUMPDEST POP POP POP POP JUMP JUMPDEST PUSH2 0x1E24 DUP2 PUSH2 0x229A JUMP JUMPDEST DUP3 MSTORE POP POP JUMP JUMPDEST PUSH2 0x1E33 DUP2 PUSH2 0x229A JUMP JUMPDEST DUP3 MSTORE POP POP JUMP JUMPDEST PUSH2 0x1E4A PUSH2 0x1E45 DUP3 PUSH2 0x229A JUMP JUMPDEST PUSH2 0x2378 JUMP JUMPDEST DUP3 MSTORE POP POP JUMP JUMPDEST PUSH1 0x0 PUSH2 0x1E5C DUP3 DUP9 PUSH2 0x1E39 JUMP JUMPDEST PUSH1 0x20 DUP3 ADD SWAP2 POP PUSH2 0x1E6C DUP3 DUP8 PUSH2 0x1E39 JUMP JUMPDEST PUSH1 0x20 DUP3 ADD SWAP2 POP PUSH2 0x1E7C DUP3 DUP7 PUSH2 0x1E39 JUMP JUMPDEST PUSH1 0x20 DUP3 ADD SWAP2 POP PUSH2 0x1E8C DUP3 DUP6 PUSH2 0x1BD8 JUMP JUMPDEST PUSH1 0x14 DUP3 ADD SWAP2 POP PUSH2 0x1E9C DUP3 DUP5 PUSH2 0x1E39 JUMP JUMPDEST PUSH1 0x20 DUP3 ADD SWAP2 POP DUP2 SWAP1 POP SWAP7 SWAP6 POP POP POP POP POP POP JUMP JUMPDEST PUSH1 0x0 PUSH1 0x20 DUP3 ADD SWAP1 POP PUSH2 0x1EC4 PUSH1 0x0 DUP4 ADD DUP5 PUSH2 0x1BC9 JUMP JUMPDEST SWAP3 SWAP2 POP POP JUMP JUMPDEST PUSH1 0x0 PUSH1 0x40 DUP3 ADD SWAP1 POP PUSH2 0x1EDF PUSH1 0x0 DUP4 ADD DUP6 PUSH2 0x1BC9 JUMP JUMPDEST PUSH2 0x1EEC PUSH1 0x20 DUP4 ADD DUP5 PUSH2 0x1E2A JUMP JUMPDEST SWAP4 SWAP3 POP POP POP JUMP JUMPDEST PUSH1 0x0 PUSH1 0x40 DUP3 ADD SWAP1 POP DUP2 DUP2 SUB PUSH1 0x0 DUP4 ADD MSTORE PUSH2 0x1F0D DUP2 DUP6 PUSH2 0x1BEF JUMP JUMPDEST SWAP1 POP DUP2 DUP2 SUB PUSH1 0x20 DUP4 ADD MSTORE PUSH2 0x1F21 DUP2 DUP5 PUSH2 0x1CAB JUMP JUMPDEST SWAP1 POP SWAP4 SWAP3 POP POP POP JUMP JUMPDEST PUSH1 0x0 PUSH1 0x20 DUP3 ADD SWAP1 POP DUP2 DUP2 SUB PUSH1 0x0 DUP4 ADD MSTORE PUSH2 0x1F44 DUP2 DUP5 PUSH2 0x1C4D JUMP JUMPDEST SWAP1 POP SWAP3 SWAP2 POP POP JUMP JUMPDEST PUSH1 0x0 PUSH1 0x20 DUP3 ADD SWAP1 POP PUSH2 0x1F61 PUSH1 0x0 DUP4 ADD DUP5 PUSH2 0x1D09 JUMP JUMPDEST SWAP3 SWAP2 POP POP JUMP JUMPDEST PUSH1 0x0 PUSH1 0x20 DUP3 ADD SWAP1 POP PUSH2 0x1F7C PUSH1 0x0 DUP4 ADD DUP5 PUSH2 0x1D18 JUMP JUMPDEST SWAP3 SWAP2 POP POP JUMP JUMPDEST PUSH1 0x0 PUSH1 0x20 DUP3 ADD SWAP1 POP DUP2 DUP2 SUB PUSH1 0x0 DUP4 ADD MSTORE PUSH2 0x1F9B DUP2 PUSH2 0x1D27 JUMP JUMPDEST SWAP1 POP SWAP2 SWAP1 POP JUMP JUMPDEST PUSH1 0x0 PUSH1 0x20 DUP3 ADD SWAP1 POP DUP2 DUP2 SUB PUSH1 0x0 DUP4 ADD MSTORE PUSH2 0x1FBB DUP2 PUSH2 0x1D4A JUMP JUMPDEST SWAP1 POP SWAP2 SWAP1 POP JUMP JUMPDEST PUSH1 0x0 PUSH1 0x20 DUP3 ADD SWAP1 POP DUP2 DUP2 SUB PUSH1 0x0 DUP4 ADD MSTORE PUSH2 0x1FDB DUP2 PUSH2 0x1D6D JUMP JUMPDEST SWAP1 POP SWAP2 SWAP1 POP JUMP JUMPDEST PUSH1 0x0 PUSH1 0x20 DUP3 ADD SWAP1 POP DUP2 DUP2 SUB PUSH1 0x0 DUP4 ADD MSTORE PUSH2 0x1FFB DUP2 PUSH2 0x1D90 JUMP JUMPDEST SWAP1 POP SWAP2 SWAP1 POP JUMP JUMPDEST PUSH1 0x0 PUSH1 0x20 DUP3 ADD SWAP1 POP PUSH2 0x2017 PUSH1 0x0 DUP4 ADD DUP5 PUSH2 0x1E2A JUMP JUMPDEST SWAP3 SWAP2 POP POP JUMP JUMPDEST PUSH1 0x0 PUSH1 0x40 DUP3 ADD SWAP1 POP PUSH2 0x2032 PUSH1 0x0 DUP4 ADD DUP6 PUSH2 0x1E2A JUMP JUMPDEST PUSH2 0x203F PUSH1 0x20 DUP4 ADD DUP5 PUSH2 0x1BC9 JUMP JUMPDEST SWAP4 SWAP3 POP POP POP JUMP JUMPDEST PUSH1 0x0 PUSH1 0xA0 DUP3 ADD SWAP1 POP PUSH2 0x205B PUSH1 0x0 DUP4 ADD DUP9 PUSH2 0x1E2A JUMP JUMPDEST PUSH2 0x2068 PUSH1 0x20 DUP4 ADD DUP8 PUSH2 0x1E2A JUMP JUMPDEST PUSH2 0x2075 PUSH1 0x40 DUP4 ADD DUP7 PUSH2 0x1E2A JUMP JUMPDEST PUSH2 0x2082 PUSH1 0x60 DUP4 ADD DUP6 PUSH2 0x1E2A JUMP JUMPDEST PUSH2 0x208F PUSH1 0x80 DUP4 ADD DUP5 PUSH2 0x1BC9 JUMP JUMPDEST SWAP7 SWAP6 POP POP POP POP POP POP JUMP JUMPDEST PUSH1 0x0 PUSH2 0x20A3 PUSH2 0x20B4 JUMP JUMPDEST SWAP1 POP PUSH2 0x20AF DUP3 DUP3 PUSH2 0x22DA JUMP JUMPDEST SWAP2 SWAP1 POP JUMP JUMPDEST PUSH1 0x0 PUSH1 0x40 MLOAD SWAP1 POP SWAP1 JUMP JUMPDEST PUSH1 0x0 PUSH8 0xFFFFFFFFFFFFFFFF DUP3 GT ISZERO PUSH2 0x20D9 JUMPI PUSH2 0x20D8 PUSH2 0x246F JUMP JUMPDEST JUMPDEST PUSH1 0x20 DUP3 MUL SWAP1 POP PUSH1 0x20 DUP2 ADD SWAP1 POP SWAP2 SWAP1 POP JUMP JUMPDEST PUSH1 0x0 PUSH8 0xFFFFFFFFFFFFFFFF DUP3 GT ISZERO PUSH2 0x2105 JUMPI PUSH2 0x2104 PUSH2 0x246F JUMP JUMPDEST JUMPDEST PUSH1 0x20 DUP3 MUL SWAP1 POP PUSH1 0x20 DUP2 ADD SWAP1 POP SWAP2 SWAP1 POP JUMP JUMPDEST PUSH1 0x0 DUP2 SWAP1 POP PUSH1 0x20 DUP3 ADD SWAP1 POP SWAP2 SWAP1 POP JUMP JUMPDEST PUSH1 0x0 DUP2 SWAP1 POP PUSH1 0x20 DUP3 ADD SWAP1 POP SWAP2 SWAP1 POP JUMP JUMPDEST PUSH1 0x0 DUP2 SWAP1 POP PUSH1 0x20 DUP3 ADD SWAP1 POP SWAP2 SWAP1 POP JUMP JUMPDEST PUSH1 0x0 DUP2 MLOAD SWAP1 POP SWAP2 SWAP1 POP JUMP JUMPDEST PUSH1 0x0 DUP2 MLOAD SWAP1 POP SWAP2 SWAP1 POP JUMP JUMPDEST PUSH1 0x0 DUP2 MLOAD SWAP1 POP SWAP2 SWAP1 POP JUMP JUMPDEST PUSH1 0x0 PUSH1 0x20 DUP3 ADD SWAP1 POP SWAP2 SWAP1 POP JUMP JUMPDEST PUSH1 0x0 PUSH1 0x20 DUP3 ADD SWAP1 POP SWAP2 SWAP1 POP JUMP JUMPDEST PUSH1 0x0 PUSH1 0x20 DUP3 ADD SWAP1 POP SWAP2 SWAP1 POP JUMP JUMPDEST PUSH1 0x0 DUP3 DUP3 MSTORE PUSH1 0x20 DUP3 ADD SWAP1 POP SWAP3 SWAP2 POP POP JUMP JUMPDEST PUSH1 0x0 DUP3 DUP3 MSTORE PUSH1 0x20 DUP3 ADD SWAP1 POP SWAP3 SWAP2 POP POP JUMP JUMPDEST PUSH1 0x0 DUP3 DUP3 MSTORE PUSH1 0x20 DUP3 ADD SWAP1 POP SWAP3 SWAP2 POP POP JUMP JUMPDEST PUSH1 0x0 DUP3 DUP3 MSTORE PUSH1 0x20 DUP3 ADD SWAP1 POP SWAP3 SWAP2 POP POP JUMP JUMPDEST PUSH1 0x0 PUSH2 0x21DD DUP3 PUSH2 0x229A JUMP JUMPDEST SWAP2 POP PUSH2 0x21E8 DUP4 PUSH2 0x229A JUMP JUMPDEST SWAP3 POP DUP3 PUSH32 0xFFFFFFFFFFFFFFFFFFFFFFFFFFFFFFFFFFFFFFFFFFFFFFFFFFFFFFFFFFFFFFFF SUB DUP3 GT ISZERO PUSH2 0x221D JUMPI PUSH2 0x221C PUSH2 0x23B3 JUMP JUMPDEST JUMPDEST DUP3 DUP3 ADD SWAP1 POP SWAP3 SWAP2 POP POP JUMP JUMPDEST PUSH1 0x0 PUSH2 0x2233 DUP3 PUSH2 0x229A JUMP JUMPDEST SWAP2 POP PUSH2 0x223E DUP4 PUSH2 0x229A JUMP JUMPDEST SWAP3 POP DUP3 DUP3 LT ISZERO PUSH2 0x2251 JUMPI PUSH2 0x2250 PUSH2 0x23B3 JUMP JUMPDEST JUMPDEST DUP3 DUP3 SUB SWAP1 POP SWAP3 SWAP2 POP POP JUMP JUMPDEST PUSH1 0x0 PUSH2 0x2267 DUP3 PUSH2 0x227A JUMP JUMPDEST SWAP1 POP SWAP2 SWAP1 POP JUMP JUMPDEST PUSH1 0x0 DUP2 ISZERO ISZERO SWAP1 POP SWAP2 SWAP1 POP JUMP JUMPDEST PUSH1 0x0 PUSH20 0xFFFFFFFFFFFFFFFFFFFFFFFFFFFFFFFFFFFFFFFF DUP3 AND SWAP1 POP SWAP2 SWAP1 POP JUMP JUMPDEST PUSH1 0x0 DUP2 SWAP1 POP SWAP2 SWAP1 POP JUMP JUMPDEST PUSH1 0x0 PUSH2 0x22AF DUP3 PUSH2 0x22B6 JUMP JUMPDEST SWAP1 POP SWAP2 SWAP1 POP JUMP JUMPDEST PUSH1 0x0 PUSH2 0x22C1 DUP3 PUSH2 0x22C8 JUMP JUMPDEST SWAP1 POP SWAP2 SWAP1 POP JUMP JUMPDEST PUSH1 0x0 PUSH2 0x22D3 DUP3 PUSH2 0x227A JUMP JUMPDEST SWAP1 POP SWAP2 SWAP1 POP JUMP JUMPDEST PUSH2 0x22E3 DUP3 PUSH2 0x24B2 JUMP JUMPDEST DUP2 ADD DUP2 DUP2 LT PUSH8 0xFFFFFFFFFFFFFFFF DUP3 GT OR ISZERO PUSH2 0x2302 JUMPI PUSH2 0x2301 PUSH2 0x246F JUMP JUMPDEST JUMPDEST DUP1 PUSH1 0x40 MSTORE POP POP POP JUMP JUMPDEST PUSH1 0x0 PUSH2 0x2316 DUP3 PUSH2 0x229A JUMP JUMPDEST SWAP2 POP PUSH32 0xFFFFFFFFFFFFFFFFFFFFFFFFFFFFFFFFFFFFFFFFFFFFFFFFFFFFFFFFFFFFFFFF DUP3 EQ ISZERO PUSH2 0x2349 JUMPI PUSH2 0x2348 PUSH2 0x23B3 JUMP JUMPDEST JUMPDEST PUSH1 0x1 DUP3 ADD SWAP1 POP SWAP2 SWAP1 POP JUMP JUMPDEST PUSH1 0x0 PUSH2 0x235F DUP3 PUSH2 0x2366 JUMP JUMPDEST SWAP1 POP SWAP2 SWAP1 POP JUMP JUMPDEST PUSH1 0x0 PUSH2 0x2371 DUP3 PUSH2 0x24C3 JUMP JUMPDEST SWAP1 POP SWAP2 SWAP1 POP JUMP JUMPDEST PUSH1 0x0 DUP2 SWAP1 POP SWAP2 SWAP1 POP JUMP JUMPDEST PUSH1 0x0 PUSH2 0x238D DUP3 PUSH2 0x229A JUMP JUMPDEST SWAP2 POP PUSH2 0x2398 DUP4 PUSH2 0x229A JUMP JUMPDEST SWAP3 POP DUP3 PUSH2 0x23A8 JUMPI PUSH2 0x23A7 PUSH2 0x23E2 JUMP JUMPDEST JUMPDEST DUP3 DUP3 MOD SWAP1 POP SWAP3 SWAP2 POP POP JUMP JUMPDEST PUSH32 0x4E487B7100000000000000000000000000000000000000000000000000000000 PUSH1 0x0 MSTORE PUSH1 0x11 PUSH1 0x4 MSTORE PUSH1 0x24 PUSH1 0x0 REVERT JUMPDEST PUSH32 0x4E487B7100000000000000000000000000000000000000000000000000000000 PUSH1 0x0 MSTORE PUSH1 0x12 PUSH1 0x4 MSTORE PUSH1 0x24 PUSH1 0x0 REVERT JUMPDEST PUSH32 0x4E487B7100000000000000000000000000000000000000000000000000000000 PUSH1 0x0 MSTORE PUSH1 0x31 PUSH1 0x4 MSTORE PUSH1 0x24 PUSH1 0x0 REVERT JUMPDEST PUSH32 0x4E487B7100000000000000000000000000000000000000000000000000000000 PUSH1 0x0 MSTORE PUSH1 0x32 PUSH1 0x4 MSTORE PUSH1 0x24 PUSH1 0x0 REVERT JUMPDEST PUSH32 0x4E487B7100000000000000000000000000000000000000000000000000000000 PUSH1 0x0 MSTORE PUSH1 0x41 PUSH1 0x4 MSTORE PUSH1 0x24 PUSH1 0x0 REVERT JUMPDEST PUSH1 0x0 DUP1 REVERT JUMPDEST PUSH1 0x0 DUP1 REVERT JUMPDEST PUSH1 0x0 DUP1 REVERT JUMPDEST PUSH1 0x0 DUP1 REVERT JUMPDEST PUSH1 0x0 PUSH1 0x1F NOT PUSH1 0x1F DUP4 ADD AND SWAP1 POP SWAP2 SWAP1 POP JUMP JUMPDEST PUSH1 0x0 DUP2 PUSH1 0x60 SHL SWAP1 POP SWAP2 SWAP1 POP JUMP JUMPDEST PUSH32 0x4F776E61626C653A206E6577206F776E657220697320746865207A65726F2061 PUSH1 0x0 DUP3 ADD MSTORE PUSH32 0x6464726573730000000000000000000000000000000000000000000000000000 PUSH1 0x20 DUP3 ADD MSTORE POP JUMP JUMPDEST PUSH32 0x4E6F7420616C6C6F776564000000000000000000000000000000000000000000 PUSH1 0x0 DUP3 ADD MSTORE POP JUMP JUMPDEST PUSH32 0x4F776E61626C653A2063616C6C6572206973206E6F7420746865206F776E6572 PUSH1 0x0 DUP3 ADD MSTORE POP JUMP JUMPDEST PUSH32 0x41727261797320646F6E277420686176652073616D65206C656E676874000000 PUSH1 0x0 DUP3 ADD MSTORE POP JUMP JUMPDEST PUSH2 0x25A3 DUP2 PUSH2 0x225C JUMP JUMPDEST DUP2 EQ PUSH2 0x25AE JUMPI PUSH1 0x0 DUP1 REVERT JUMPDEST POP JUMP JUMPDEST PUSH2 0x25BA DUP2 PUSH2 0x229A JUMP JUMPDEST DUP2 EQ PUSH2 0x25C5 JUMPI PUSH1 0x0 DUP1 REVERT JUMPDEST POP JUMP INVALID LOG2 PUSH5 0x6970667358 0x22 SLT KECCAK256 DUP7 0xE0 SHL 0xAD 0xD1 SWAP14 MULMOD 0xD6 0xC6 0x2D CALLER 0xEF CREATE2 CALLDATACOPY DUP8 0xD0 PUSH13 0x79E2FD1FE928E88A182A3E7903 LOG0 0xE1 PUSH5 0x736F6C6343 STOP ADDMOD SMOD STOP CALLER "
				},
				"gasEstimates": {
					"creation": {
						"codeDepositCost": "1945200",
						"executionCost": "infinite",
						"totalCost": "infinite"
					},
					"external": {
						"BUSD()": "2645",
						"acesToken()": "2581",
						"batchAdd(address[],uint256[])": "infinite",
						"currentJackpot()": "infinite",
						"entriesIndex(address,uint256)": "infinite",
						"getUniqueAddresses()": "infinite",
						"getUniqueUsers()": "infinite",
						"isActiveAccount(address)": "2984",
						"owner()": "2567",
						"pickWinner(uint256)": "infinite",
						"removeAccount(address)": "infinite",
						"removeEntryFromWallet(address,uint256)": "infinite",
						"renounceOwnership()": "30507",
						"resultLog(uint256,uint256)": "infinite",
						"roundEntries()": "2452",
						"roundEntry(uint256)": "2861",
						"roundNum()": "2475",
						"roundResults(uint256)": "infinite",
						"totalPayout()": "2563",
						"transferOwnership(address)": "30811",
						"treasuryWallet()": "2537",
						"updateAccount(address,uint256)": "infinite",
						"updateWinner(uint256,uint256)": "infinite",
						"userEntries(address)": "2938"
					},
					"internal": {
						"random(uint256)": "infinite"
					}
				},
				"methodIdentifiers": {
					"BUSD()": "484f4ea9",
					"acesToken()": "9b3e4552",
					"batchAdd(address[],uint256[])": "647dce0f",
					"currentJackpot()": "f9cee0bd",
					"entriesIndex(address,uint256)": "0d988270",
					"getUniqueAddresses()": "3b98bc65",
					"getUniqueUsers()": "158977de",
					"isActiveAccount(address)": "5bedc390",
					"owner()": "8da5cb5b",
					"pickWinner(uint256)": "f737d21d",
					"removeAccount(address)": "c4740a95",
					"removeEntryFromWallet(address,uint256)": "a59460dc",
					"renounceOwnership()": "715018a6",
					"resultLog(uint256,uint256)": "bc15cdf0",
					"roundEntries()": "76636d20",
					"roundEntry(uint256)": "b657dd65",
					"roundNum()": "119b22b3",
					"roundResults(uint256)": "ac128f4f",
					"totalPayout()": "454f7b8f",
					"transferOwnership(address)": "f2fde38b",
					"treasuryWallet()": "4626402b",
					"updateAccount(address,uint256)": "443b80a1",
					"updateWinner(uint256,uint256)": "6fbb5a86",
					"userEntries(address)": "9f10a990"
				}
			},
			"storageLayout": {
				"storage": [
					{
						"astId": 7,
						"contract": "lotto.sol:ACELotto",
						"label": "_owner",
						"offset": 0,
						"slot": "0",
						"type": "t_address"
					},
					{
						"astId": 239,
						"contract": "lotto.sol:ACELotto",
						"label": "roundEntries",
						"offset": 0,
						"slot": "1",
						"type": "t_uint256"
					},
					{
						"astId": 241,
						"contract": "lotto.sol:ACELotto",
						"label": "roundNum",
						"offset": 0,
						"slot": "2",
						"type": "t_uint256"
					},
					{
						"astId": 243,
						"contract": "lotto.sol:ACELotto",
						"label": "totalPayout",
						"offset": 0,
						"slot": "3",
						"type": "t_uint256"
					},
					{
						"astId": 249,
						"contract": "lotto.sol:ACELotto",
						"label": "BUSD",
						"offset": 0,
						"slot": "4",
						"type": "t_contract(IERC20)182"
					},
					{
						"astId": 252,
						"contract": "lotto.sol:ACELotto",
						"label": "acesToken",
						"offset": 0,
						"slot": "5",
						"type": "t_address"
					},
					{
						"astId": 255,
						"contract": "lotto.sol:ACELotto",
						"label": "treasuryWallet",
						"offset": 0,
						"slot": "6",
						"type": "t_address"
					},
					{
						"astId": 271,
						"contract": "lotto.sol:ACELotto",
						"label": "roundResults",
						"offset": 0,
						"slot": "7",
						"type": "t_mapping(t_uint256,t_struct(Results)266_storage)"
					},
					{
						"astId": 275,
						"contract": "lotto.sol:ACELotto",
						"label": "roundEntry",
						"offset": 0,
						"slot": "8",
						"type": "t_mapping(t_uint256,t_address)"
					},
					{
						"astId": 280,
						"contract": "lotto.sol:ACELotto",
						"label": "entriesIndex",
						"offset": 0,
						"slot": "9",
						"type": "t_mapping(t_address,t_array(t_uint256)dyn_storage)"
					}
				],
				"types": {
					"t_address": {
						"encoding": "inplace",
						"label": "address",
						"numberOfBytes": "20"
					},
					"t_array(t_uint256)dyn_storage": {
						"base": "t_uint256",
						"encoding": "dynamic_array",
						"label": "uint256[]",
						"numberOfBytes": "32"
					},
					"t_contract(IERC20)182": {
						"encoding": "inplace",
						"label": "contract IERC20",
						"numberOfBytes": "20"
					},
					"t_mapping(t_address,t_array(t_uint256)dyn_storage)": {
						"encoding": "mapping",
						"key": "t_address",
						"label": "mapping(address => uint256[])",
						"numberOfBytes": "32",
						"value": "t_array(t_uint256)dyn_storage"
					},
					"t_mapping(t_uint256,t_address)": {
						"encoding": "mapping",
						"key": "t_uint256",
						"label": "mapping(uint256 => address)",
						"numberOfBytes": "32",
						"value": "t_address"
					},
					"t_mapping(t_uint256,t_struct(Results)266_storage)": {
						"encoding": "mapping",
						"key": "t_uint256",
						"label": "mapping(uint256 => struct ACELotto.Results)",
						"numberOfBytes": "32",
						"value": "t_struct(Results)266_storage"
					},
					"t_struct(Results)266_storage": {
						"encoding": "inplace",
						"label": "struct ACELotto.Results",
						"members": [
							{
								"astId": 257,
								"contract": "lotto.sol:ACELotto",
								"label": "totalEntries",
								"offset": 0,
								"slot": "0",
								"type": "t_uint256"
							},
							{
								"astId": 259,
								"contract": "lotto.sol:ACELotto",
								"label": "winningNumber",
								"offset": 0,
								"slot": "1",
								"type": "t_uint256"
							},
							{
								"astId": 261,
								"contract": "lotto.sol:ACELotto",
								"label": "payout",
								"offset": 0,
								"slot": "2",
								"type": "t_uint256"
							},
							{
								"astId": 263,
								"contract": "lotto.sol:ACELotto",
								"label": "endTime",
								"offset": 0,
								"slot": "3",
								"type": "t_uint256"
							},
							{
								"astId": 265,
								"contract": "lotto.sol:ACELotto",
								"label": "winningAddress",
								"offset": 0,
								"slot": "4",
								"type": "t_address"
							}
						],
						"numberOfBytes": "160"
					},
					"t_uint256": {
						"encoding": "inplace",
						"label": "uint256",
						"numberOfBytes": "32"
					}
				}
			},
			"userdoc": {
				"kind": "user",
				"methods": {},
				"version": 1
			}
		}
	}
}