{
	"staking.sol": {
		"AcesStaking": {
			"abi": [
				{
					"inputs": [
						{
							"internalType": "address",
							"name": "_token",
							"type": "address"
						}
					],
					"stateMutability": "nonpayable",
					"type": "constructor"
				},
				{
					"anonymous": false,
					"inputs": [
						{
							"indexed": false,
							"internalType": "address",
							"name": "user",
							"type": "address"
						},
						{
							"indexed": false,
							"internalType": "uint256",
							"name": "class",
							"type": "uint256"
						},
						{
							"indexed": false,
							"internalType": "uint256",
							"name": "amount",
							"type": "uint256"
						}
					],
					"name": "Claim",
					"type": "event"
				},
				{
					"anonymous": false,
					"inputs": [
						{
							"indexed": false,
							"internalType": "address",
							"name": "user",
							"type": "address"
						},
						{
							"indexed": false,
							"internalType": "uint256",
							"name": "class",
							"type": "uint256"
						},
						{
							"indexed": false,
							"internalType": "uint256",
							"name": "amount",
							"type": "uint256"
						}
					],
					"name": "Compound",
					"type": "event"
				},
				{
					"anonymous": false,
					"inputs": [
						{
							"indexed": false,
							"internalType": "address",
							"name": "user",
							"type": "address"
						},
						{
							"indexed": false,
							"internalType": "uint256",
							"name": "class",
							"type": "uint256"
						},
						{
							"indexed": false,
							"internalType": "uint256",
							"name": "amount",
							"type": "uint256"
						}
					],
					"name": "Deposit",
					"type": "event"
				},
				{
					"anonymous": false,
					"inputs": [
						{
							"indexed": true,
							"internalType": "address",
							"name": "previousOwner",
							"type": "address"
						},
						{
							"indexed": true,
							"internalType": "address",
							"name": "newOwner",
							"type": "address"
						}
					],
					"name": "OwnershipTransferred",
					"type": "event"
				},
				{
					"anonymous": false,
					"inputs": [
						{
							"indexed": false,
							"internalType": "address",
							"name": "account",
							"type": "address"
						}
					],
					"name": "Paused",
					"type": "event"
				},
				{
					"anonymous": false,
					"inputs": [
						{
							"indexed": false,
							"internalType": "address",
							"name": "account",
							"type": "address"
						}
					],
					"name": "Unpaused",
					"type": "event"
				},
				{
					"anonymous": false,
					"inputs": [
						{
							"indexed": false,
							"internalType": "address",
							"name": "user",
							"type": "address"
						},
						{
							"indexed": false,
							"internalType": "uint256",
							"name": "class",
							"type": "uint256"
						},
						{
							"indexed": false,
							"internalType": "uint256",
							"name": "amount",
							"type": "uint256"
						}
					],
					"name": "Withdraw",
					"type": "event"
				},
				{
					"inputs": [],
					"name": "acceptedToken",
					"outputs": [
						{
							"internalType": "contract IERC20",
							"name": "",
							"type": "address"
						}
					],
					"stateMutability": "view",
					"type": "function"
				},
				{
					"inputs": [
						{
							"internalType": "address",
							"name": "_user",
							"type": "address"
						},
						{
							"internalType": "uint256",
							"name": "_level",
							"type": "uint256"
						}
					],
					"name": "calculateRewards",
					"outputs": [
						{
							"internalType": "uint256",
							"name": "",
							"type": "uint256"
						}
					],
					"stateMutability": "view",
					"type": "function"
				},
				{
					"inputs": [
						{
							"internalType": "uint256",
							"name": "level",
							"type": "uint256"
						},
						{
							"internalType": "uint256",
							"name": "_APY",
							"type": "uint256"
						},
						{
							"internalType": "uint256",
							"name": "_lockTime",
							"type": "uint256"
						}
					],
					"name": "changeLevelValues",
					"outputs": [],
					"stateMutability": "nonpayable",
					"type": "function"
				},
				{
					"inputs": [
						{
							"internalType": "uint256",
							"name": "_level",
							"type": "uint256"
						}
					],
					"name": "claim",
					"outputs": [],
					"stateMutability": "nonpayable",
					"type": "function"
				},
				{
					"inputs": [
						{
							"internalType": "uint256",
							"name": "_level",
							"type": "uint256"
						}
					],
					"name": "compound",
					"outputs": [],
					"stateMutability": "nonpayable",
					"type": "function"
				},
				{
					"inputs": [
						{
							"internalType": "uint256",
							"name": "_amount",
							"type": "uint256"
						},
						{
							"internalType": "uint256",
							"name": "_level",
							"type": "uint256"
						}
					],
					"name": "deposit",
					"outputs": [],
					"stateMutability": "nonpayable",
					"type": "function"
				},
				{
					"inputs": [],
					"name": "getLevelsInfo",
					"outputs": [
						{
							"components": [
								{
									"internalType": "uint256",
									"name": "APY",
									"type": "uint256"
								},
								{
									"internalType": "uint256",
									"name": "lockPeriod",
									"type": "uint256"
								}
							],
							"internalType": "struct AcesStaking.Level",
							"name": "level0",
							"type": "tuple"
						},
						{
							"components": [
								{
									"internalType": "uint256",
									"name": "APY",
									"type": "uint256"
								},
								{
									"internalType": "uint256",
									"name": "lockPeriod",
									"type": "uint256"
								}
							],
							"internalType": "struct AcesStaking.Level",
							"name": "level1",
							"type": "tuple"
						},
						{
							"components": [
								{
									"internalType": "uint256",
									"name": "APY",
									"type": "uint256"
								},
								{
									"internalType": "uint256",
									"name": "lockPeriod",
									"type": "uint256"
								}
							],
							"internalType": "struct AcesStaking.Level",
							"name": "level2",
							"type": "tuple"
						}
					],
					"stateMutability": "view",
					"type": "function"
				},
				{
					"inputs": [
						{
							"internalType": "address",
							"name": "_user",
							"type": "address"
						}
					],
					"name": "getUserInfo",
					"outputs": [
						{
							"components": [
								{
									"internalType": "uint256",
									"name": "balance",
									"type": "uint256"
								},
								{
									"internalType": "uint256",
									"name": "started",
									"type": "uint256"
								},
								{
									"internalType": "uint256",
									"name": "unlockTime",
									"type": "uint256"
								}
							],
							"internalType": "struct AcesStaking.User",
							"name": "level0",
							"type": "tuple"
						},
						{
							"components": [
								{
									"internalType": "uint256",
									"name": "balance",
									"type": "uint256"
								},
								{
									"internalType": "uint256",
									"name": "started",
									"type": "uint256"
								},
								{
									"internalType": "uint256",
									"name": "unlockTime",
									"type": "uint256"
								}
							],
							"internalType": "struct AcesStaking.User",
							"name": "level1",
							"type": "tuple"
						},
						{
							"components": [
								{
									"internalType": "uint256",
									"name": "balance",
									"type": "uint256"
								},
								{
									"internalType": "uint256",
									"name": "started",
									"type": "uint256"
								},
								{
									"internalType": "uint256",
									"name": "unlockTime",
									"type": "uint256"
								}
							],
							"internalType": "struct AcesStaking.User",
							"name": "level2",
							"type": "tuple"
						},
						{
							"internalType": "uint256",
							"name": "level0Rewards",
							"type": "uint256"
						},
						{
							"internalType": "uint256",
							"name": "level1Rewards",
							"type": "uint256"
						},
						{
							"internalType": "uint256",
							"name": "level2Rewards",
							"type": "uint256"
						}
					],
					"stateMutability": "view",
					"type": "function"
				},
				{
					"inputs": [
						{
							"internalType": "uint256",
							"name": "",
							"type": "uint256"
						}
					],
					"name": "levelInfo",
					"outputs": [
						{
							"internalType": "uint256",
							"name": "APY",
							"type": "uint256"
						},
						{
							"internalType": "uint256",
							"name": "lockPeriod",
							"type": "uint256"
						}
					],
					"stateMutability": "view",
					"type": "function"
				},
				{
					"inputs": [],
					"name": "owner",
					"outputs": [
						{
							"internalType": "address",
							"name": "",
							"type": "address"
						}
					],
					"stateMutability": "view",
					"type": "function"
				},
				{
					"inputs": [],
					"name": "pause",
					"outputs": [],
					"stateMutability": "nonpayable",
					"type": "function"
				},
				{
					"inputs": [],
					"name": "paused",
					"outputs": [
						{
							"internalType": "bool",
							"name": "",
							"type": "bool"
						}
					],
					"stateMutability": "view",
					"type": "function"
				},
				{
					"inputs": [],
					"name": "renounceOwnership",
					"outputs": [],
					"stateMutability": "nonpayable",
					"type": "function"
				},
				{
					"inputs": [
						{
							"internalType": "address",
							"name": "newOwner",
							"type": "address"
						}
					],
					"name": "transferOwnership",
					"outputs": [],
					"stateMutability": "nonpayable",
					"type": "function"
				},
				{
					"inputs": [],
					"name": "unpause",
					"outputs": [],
					"stateMutability": "nonpayable",
					"type": "function"
				},
				{
					"inputs": [
						{
							"internalType": "address",
							"name": "",
							"type": "address"
						},
						{
							"internalType": "uint256",
							"name": "",
							"type": "uint256"
						}
					],
					"name": "userLevelDeposit",
					"outputs": [
						{
							"internalType": "uint256",
							"name": "balance",
							"type": "uint256"
						},
						{
							"internalType": "uint256",
							"name": "started",
							"type": "uint256"
						},
						{
							"internalType": "uint256",
							"name": "unlockTime",
							"type": "uint256"
						}
					],
					"stateMutability": "view",
					"type": "function"
				},
				{
					"inputs": [
						{
							"internalType": "uint256",
							"name": "_amount",
							"type": "uint256"
						},
						{
							"internalType": "uint256",
							"name": "_level",
							"type": "uint256"
						}
					],
					"name": "withdraw",
					"outputs": [],
					"stateMutability": "nonpayable",
					"type": "function"
				}
			],
			"devdoc": {
				"kind": "dev",
				"methods": {
					"owner()": {
						"details": "Returns the address of the current owner."
					},
					"paused()": {
						"details": "Returns true if the contract is paused, and false otherwise."
					},
					"renounceOwnership()": {
						"details": "Leaves the contract without owner. It will not be possible to call `onlyOwner` functions anymore. Can only be called by the current owner. NOTE: Renouncing ownership will leave the contract without an owner, thereby removing any functionality that is only available to the owner."
					},
					"transferOwnership(address)": {
						"details": "Transfers ownership of the contract to a new account (`newOwner`). Can only be called by the current owner."
					}
				},
				"version": 1
			},
			"evm": {
				"assembly": "    /* \"staking.sol\":224:4647  contract AcesStaking is Ownable, Pausable {... */\n  mstore(0x40, 0x80)\n    /* \"staking.sol\":1055:1131  constructor(address _token ) {... */\n  callvalue\n  dup1\n  iszero\n  tag_1\n  jumpi\n  0x00\n  dup1\n  revert\ntag_1:\n  pop\n  mload(0x40)\n  sub(codesize, bytecodeSize)\n  dup1\n  bytecodeSize\n  dup4\n  codecopy\n  dup2\n  add\n  0x40\n  dup2\n  swap1\n  mstore\n  tag_2\n  swap2\n  tag_3\n  jump\t// in\ntag_2:\n    /* \"@openzeppelin/contracts/access/Ownable.sol\":921:953  _transferOwnership(_msgSender()) */\n  tag_8\n    /* \"@openzeppelin/contracts/utils/Context.sol\":719:729  msg.sender */\n  caller\n    /* \"@openzeppelin/contracts/access/Ownable.sol\":921:939  _transferOwnership */\n  tag_11\n    /* \"@openzeppelin/contracts/access/Ownable.sol\":921:953  _transferOwnership(_msgSender()) */\n  jump\t// in\ntag_8:\n    /* \"@openzeppelin/contracts/security/Pausable.sol\":991:996  false */\n  0x00\n    /* \"@openzeppelin/contracts/security/Pausable.sol\":981:996  _paused = false */\n  dup1\n  sload\n  not(shl(0xa0, 0xff))\n  and\n  swap1\n  sstore\n  0x01\n    /* \"staking.sol\":1094:1124  acceptedToken = IERC20(_token) */\n  dup1\n  sload\n  not(sub(shl(0xa0, 0x01), 0x01))\n  and\n  sub(shl(0xa0, 0x01), 0x01)\n  swap3\n  swap1\n  swap3\n  and\n  swap2\n  swap1\n  swap2\n  or\n  swap1\n  sstore\n    /* \"staking.sol\":224:4647  contract AcesStaking is Ownable, Pausable {... */\n  jump(tag_17)\n    /* \"@openzeppelin/contracts/access/Ownable.sol\":2270:2457  function _transferOwnership(address newOwner) internal virtual {... */\ntag_11:\n    /* \"@openzeppelin/contracts/access/Ownable.sol\":2343:2359  address oldOwner */\n  0x00\n    /* \"@openzeppelin/contracts/access/Ownable.sol\":2362:2368  _owner */\n  dup1\n  sload\n  sub(shl(0xa0, 0x01), 0x01)\n    /* \"@openzeppelin/contracts/access/Ownable.sol\":2378:2395  _owner = newOwner */\n  dup4\n  dup2\n  and\n  not(sub(shl(0xa0, 0x01), 0x01))\n  dup4\n  and\n  dup2\n  or\n  dup5\n  sstore\n    /* \"@openzeppelin/contracts/access/Ownable.sol\":2410:2450  OwnershipTransferred(oldOwner, newOwner) */\n  mload(0x40)\n    /* \"@openzeppelin/contracts/access/Ownable.sol\":2362:2368  _owner */\n  swap2\n  swap1\n  swap3\n  and\n  swap3\n  dup4\n  swap2\n    /* \"@openzeppelin/contracts/access/Ownable.sol\":2410:2450  OwnershipTransferred(oldOwner, newOwner) */\n  0x8be0079c531659141344cd1fd0a4f28419497f9722a3daafe3b4186f6b6457e0\n  swap2\n    /* \"@openzeppelin/contracts/access/Ownable.sol\":2343:2359  address oldOwner */\n  swap1\n    /* \"@openzeppelin/contracts/access/Ownable.sol\":2410:2450  OwnershipTransferred(oldOwner, newOwner) */\n  log3\n    /* \"@openzeppelin/contracts/access/Ownable.sol\":2333:2457  {... */\n  pop\n    /* \"@openzeppelin/contracts/access/Ownable.sol\":2270:2457  function _transferOwnership(address newOwner) internal virtual {... */\n  pop\n  jump\t// out\n    /* \"#utility.yul\":14:304   */\ntag_3:\n    /* \"#utility.yul\":84:90   */\n  0x00\n    /* \"#utility.yul\":137:139   */\n  0x20\n    /* \"#utility.yul\":125:134   */\n  dup3\n    /* \"#utility.yul\":116:123   */\n  dup5\n    /* \"#utility.yul\":112:135   */\n  sub\n    /* \"#utility.yul\":108:140   */\n  slt\n    /* \"#utility.yul\":105:157   */\n  iszero\n  tag_19\n  jumpi\n    /* \"#utility.yul\":153:154   */\n  0x00\n    /* \"#utility.yul\":150:151   */\n  dup1\n    /* \"#utility.yul\":143:155   */\n  revert\n    /* \"#utility.yul\":105:157   */\ntag_19:\n    /* \"#utility.yul\":179:195   */\n  dup2\n  mload\n  sub(shl(0xa0, 0x01), 0x01)\n    /* \"#utility.yul\":224:255   */\n  dup2\n  and\n    /* \"#utility.yul\":214:256   */\n  dup2\n  eq\n    /* \"#utility.yul\":204:274   */\n  tag_20\n  jumpi\n    /* \"#utility.yul\":270:271   */\n  0x00\n    /* \"#utility.yul\":267:268   */\n  dup1\n    /* \"#utility.yul\":260:272   */\n  revert\n    /* \"#utility.yul\":204:274   */\ntag_20:\n    /* \"#utility.yul\":293:298   */\n  swap4\n    /* \"#utility.yul\":14:304   */\n  swap3\n  pop\n  pop\n  pop\n  jump\t// out\ntag_17:\n    /* \"staking.sol\":224:4647  contract AcesStaking is Ownable, Pausable {... */\n  dataSize(sub_0)\n  dup1\n  dataOffset(sub_0)\n  0x00\n  codecopy\n  0x00\n  return\nstop\n\nsub_0: assembly {\n        /* \"staking.sol\":224:4647  contract AcesStaking is Ownable, Pausable {... */\n      mstore(0x40, 0x80)\n      callvalue\n      dup1\n      iszero\n      tag_1\n      jumpi\n      0x00\n      dup1\n      revert\n    tag_1:\n      pop\n      jumpi(tag_2, lt(calldatasize, 0x04))\n      shr(0xe0, calldataload(0x00))\n      dup1\n      0x715018a6\n      gt\n      tag_20\n      jumpi\n      dup1\n      0xbeb8314c\n      gt\n      tag_21\n      jumpi\n      dup1\n      0xbeb8314c\n      eq\n      tag_15\n      jumpi\n      dup1\n      0xe2bbb158\n      eq\n      tag_16\n      jumpi\n      dup1\n      0xe788cee5\n      eq\n      tag_17\n      jumpi\n      dup1\n      0xedf501ad\n      eq\n      tag_18\n      jumpi\n      dup1\n      0xf2fde38b\n      eq\n      tag_19\n      jumpi\n      0x00\n      dup1\n      revert\n    tag_21:\n      dup1\n      0x715018a6\n      eq\n      tag_11\n      jumpi\n      dup1\n      0x8456cb59\n      eq\n      tag_12\n      jumpi\n      dup1\n      0x8da5cb5b\n      eq\n      tag_13\n      jumpi\n      dup1\n      0xaa5f7e26\n      eq\n      tag_14\n      jumpi\n      0x00\n      dup1\n      revert\n    tag_20:\n      dup1\n      0x441a3e70\n      gt\n      tag_22\n      jumpi\n      dup1\n      0x441a3e70\n      eq\n      tag_7\n      jumpi\n      dup1\n      0x451c3d80\n      eq\n      tag_8\n      jumpi\n      dup1\n      0x5c975abb\n      eq\n      tag_9\n      jumpi\n      dup1\n      0x6386c1c7\n      eq\n      tag_10\n      jumpi\n      0x00\n      dup1\n      revert\n    tag_22:\n      dup1\n      0x259ee752\n      eq\n      tag_3\n      jumpi\n      dup1\n      0x32e96203\n      eq\n      tag_4\n      jumpi\n      dup1\n      0x379607f5\n      eq\n      tag_5\n      jumpi\n      dup1\n      0x3f4ba83a\n      eq\n      tag_6\n      jumpi\n    tag_2:\n      0x00\n      dup1\n      revert\n        /* \"staking.sol\":620:688  mapping(address => mapping(uint256 => User)) public userLevelDeposit */\n    tag_3:\n      tag_23\n      tag_24\n      calldatasize\n      0x04\n      tag_25\n      jump\t// in\n    tag_24:\n      0x02\n      0x20\n      dup2\n      dup2\n      mstore\n      0x00\n      swap4\n      dup5\n      mstore\n      0x40\n      dup1\n      dup6\n      keccak256\n      swap1\n      swap2\n      mstore\n      swap2\n      dup4\n      mstore\n      swap2\n      keccak256\n      dup1\n      sload\n      0x01\n      dup3\n      add\n      sload\n      swap2\n      swap1\n      swap3\n      add\n      sload\n      dup4\n      jump\n    tag_23:\n      0x40\n      dup1\n      mload\n        /* \"#utility.yul\":8399:8424   */\n      swap4\n      dup5\n      mstore\n        /* \"#utility.yul\":8455:8457   */\n      0x20\n        /* \"#utility.yul\":8440:8458   */\n      dup5\n      add\n        /* \"#utility.yul\":8433:8467   */\n      swap3\n      swap1\n      swap3\n      mstore\n        /* \"#utility.yul\":8483:8501   */\n      swap1\n      dup3\n      add\n        /* \"#utility.yul\":8476:8510   */\n      mstore\n        /* \"#utility.yul\":8387:8389   */\n      0x60\n        /* \"#utility.yul\":8372:8390   */\n      add\n        /* \"staking.sol\":620:688  mapping(address => mapping(uint256 => User)) public userLevelDeposit */\n    tag_27:\n      mload(0x40)\n      dup1\n      swap2\n      sub\n      swap1\n      return\n        /* \"staking.sol\":4458:4645  function changeLevelValues(uint256 level, uint256 _APY, uint256 _lockTime) external onlyOwner {... */\n    tag_4:\n      tag_29\n      tag_30\n      calldatasize\n      0x04\n      tag_31\n      jump\t// in\n    tag_30:\n      tag_32\n      jump\t// in\n    tag_29:\n      stop\n        /* \"staking.sol\":2401:2821  function claim (uint256 _level) external{... */\n    tag_5:\n      tag_29\n      tag_34\n      calldatasize\n      0x04\n      tag_35\n      jump\t// in\n    tag_34:\n      tag_36\n      jump\t// in\n        /* \"staking.sol\":1252:1316  function unpause () public onlyOwner {... */\n    tag_6:\n      tag_29\n      tag_38\n      jump\t// in\n        /* \"staking.sol\":1827:2395  function withdraw (uint256 _amount, uint256 _level) public  {... */\n    tag_7:\n      tag_29\n      tag_40\n      calldatasize\n      0x04\n      tag_41\n      jump\t// in\n    tag_40:\n      tag_42\n      jump\t// in\n        /* \"staking.sol\":317:344  IERC20 public acceptedToken */\n    tag_8:\n      sload(0x01)\n      tag_43\n      swap1\n      sub(shl(0xa0, 0x01), 0x01)\n      and\n      dup2\n      jump\n    tag_43:\n      mload(0x40)\n      sub(shl(0xa0, 0x01), 0x01)\n        /* \"#utility.yul\":2204:2236   */\n      swap1\n      swap2\n      and\n        /* \"#utility.yul\":2186:2237   */\n      dup2\n      mstore\n        /* \"#utility.yul\":2174:2176   */\n      0x20\n        /* \"#utility.yul\":2159:2177   */\n      add\n        /* \"staking.sol\":317:344  IERC20 public acceptedToken */\n      tag_27\n        /* \"#utility.yul\":2040:2243   */\n      jump\n        /* \"@openzeppelin/contracts/security/Pausable.sol\":1098:1182  function paused() public view virtual returns (bool) {... */\n    tag_9:\n        /* \"@openzeppelin/contracts/security/Pausable.sol\":1145:1149  bool */\n      0x00\n        /* \"@openzeppelin/contracts/security/Pausable.sol\":1168:1175  _paused */\n      sload\n      shl(0xa0, 0x01)\n      swap1\n      div\n      0xff\n      and\n        /* \"@openzeppelin/contracts/security/Pausable.sol\":1098:1182  function paused() public view virtual returns (bool) {... */\n      mload(0x40)\n        /* \"#utility.yul\":3780:3794   */\n      swap1\n      iszero\n        /* \"#utility.yul\":3773:3795   */\n      iszero\n        /* \"#utility.yul\":3755:3796   */\n      dup2\n      mstore\n        /* \"#utility.yul\":3743:3745   */\n      0x20\n        /* \"#utility.yul\":3728:3746   */\n      add\n        /* \"@openzeppelin/contracts/security/Pausable.sol\":1098:1182  function paused() public view virtual returns (bool) {... */\n      tag_27\n        /* \"#utility.yul\":3615:3802   */\n      jump\n        /* \"staking.sol\":3743:4232  function getUserInfo(address _user) external view returns(User memory level0,  User memory level1, User memory level2, uint256 level0Rewards, uint256 level1Rewards,  uint256 level2Rewards){... */\n    tag_10:\n      tag_51\n      tag_52\n      calldatasize\n      0x04\n      tag_53\n      jump\t// in\n    tag_52:\n      tag_54\n      jump\t// in\n    tag_51:\n      0x40\n      dup1\n      mload\n        /* \"#utility.yul\":1904:1916   */\n      dup8\n      mload\n        /* \"#utility.yul\":1892:1917   */\n      dup2\n      mstore\n        /* \"#utility.yul\":1966:1970   */\n      0x20\n        /* \"#utility.yul\":1955:1971   */\n      dup1\n      dup10\n      add\n        /* \"#utility.yul\":1949:1972   */\n      mload\n        /* \"#utility.yul\":1933:1947   */\n      dup2\n      dup4\n      add\n        /* \"#utility.yul\":1926:1973   */\n      mstore\n        /* \"#utility.yul\":2011:2027   */\n      swap8\n      dup3\n      add\n        /* \"#utility.yul\":2005:2028   */\n      mload\n        /* \"#utility.yul\":1989:2003   */\n      dup2\n      dup4\n      add\n        /* \"#utility.yul\":1982:2029   */\n      mstore\n        /* \"#utility.yul\":1904:1916   */\n      dup7\n      mload\n        /* \"#utility.yul\":7555:7557   */\n      0x60\n        /* \"#utility.yul\":7540:7558   */\n      dup3\n      add\n        /* \"#utility.yul\":1892:1917   */\n      mstore\n        /* \"#utility.yul\":1955:1971   */\n      dup8\n      dup8\n      add\n        /* \"#utility.yul\":1949:1972   */\n      mload\n        /* \"#utility.yul\":1933:1947   */\n      0x80\n      dup3\n      add\n        /* \"#utility.yul\":1926:1973   */\n      mstore\n        /* \"#utility.yul\":2011:2027   */\n      swap6\n      dup2\n      add\n        /* \"#utility.yul\":2005:2028   */\n      mload\n        /* \"#utility.yul\":1989:2003   */\n      0xa0\n      dup8\n      add\n        /* \"#utility.yul\":1982:2029   */\n      mstore\n        /* \"#utility.yul\":1904:1916   */\n      dup5\n      mload\n        /* \"#utility.yul\":7614:7617   */\n      0xc0\n        /* \"#utility.yul\":7599:7618   */\n      dup8\n      add\n        /* \"#utility.yul\":1892:1917   */\n      mstore\n        /* \"#utility.yul\":1955:1971   */\n      swap6\n      dup5\n      add\n        /* \"#utility.yul\":1949:1972   */\n      mload\n        /* \"#utility.yul\":1933:1947   */\n      0xe0\n      dup7\n      add\n        /* \"#utility.yul\":1926:1973   */\n      mstore\n        /* \"#utility.yul\":2011:2027   */\n      swap3\n      swap1\n      swap5\n      add\n        /* \"#utility.yul\":2005:2028   */\n      mload\n        /* \"#utility.yul\":1989:2003   */\n      0x0100\n      dup5\n      add\n        /* \"#utility.yul\":1982:2029   */\n      mstore\n        /* \"#utility.yul\":7650:7653   */\n      0x0120\n        /* \"#utility.yul\":7635:7654   */\n      dup4\n      add\n        /* \"#utility.yul\":7628:7663   */\n      mstore\n        /* \"#utility.yul\":7694:7697   */\n      0x0140\n        /* \"#utility.yul\":7679:7698   */\n      dup3\n      add\n        /* \"#utility.yul\":7672:7707   */\n      swap3\n      swap1\n      swap3\n      mstore\n        /* \"#utility.yul\":7738:7741   */\n      0x0160\n        /* \"#utility.yul\":7723:7742   */\n      dup2\n      add\n        /* \"#utility.yul\":7716:7751   */\n      swap2\n      swap1\n      swap2\n      mstore\n        /* \"#utility.yul\":7446:7449   */\n      0x0180\n        /* \"#utility.yul\":7431:7450   */\n      add\n        /* \"staking.sol\":3743:4232  function getUserInfo(address _user) external view returns(User memory level0,  User memory level1, User memory level2, uint256 level0Rewards, uint256 level1Rewards,  uint256 level2Rewards){... */\n      tag_27\n        /* \"#utility.yul\":7046:7757   */\n      jump\n        /* \"@openzeppelin/contracts/access/Ownable.sol\":1668:1769  function renounceOwnership() public virtual onlyOwner {... */\n    tag_11:\n      tag_29\n      tag_58\n      jump\t// in\n        /* \"staking.sol\":1182:1242  function pause () public onlyOwner {... */\n    tag_12:\n      tag_29\n      tag_60\n      jump\t// in\n        /* \"@openzeppelin/contracts/access/Ownable.sol\":1036:1121  function owner() public view virtual returns (address) {... */\n    tag_13:\n        /* \"@openzeppelin/contracts/access/Ownable.sol\":1082:1089  address */\n      0x00\n        /* \"@openzeppelin/contracts/access/Ownable.sol\":1108:1114  _owner */\n      sload\n      sub(shl(0xa0, 0x01), 0x01)\n      and\n        /* \"@openzeppelin/contracts/access/Ownable.sol\":1036:1121  function owner() public view virtual returns (address) {... */\n      jump(tag_43)\n        /* \"staking.sol\":2827:3264  function compound (uint256 _level) external{... */\n    tag_14:\n      tag_29\n      tag_66\n      calldatasize\n      0x04\n      tag_35\n      jump\t// in\n    tag_66:\n      tag_67\n      jump\t// in\n        /* \"staking.sol\":3270:3733  function calculateRewards (address _user, uint256 _level) public view returns (uint256){... */\n    tag_15:\n      tag_68\n      tag_69\n      calldatasize\n      0x04\n      tag_25\n      jump\t// in\n    tag_69:\n      tag_70\n      jump\t// in\n    tag_68:\n      mload(0x40)\n        /* \"#utility.yul\":7908:7933   */\n      swap1\n      dup2\n      mstore\n        /* \"#utility.yul\":7896:7898   */\n      0x20\n        /* \"#utility.yul\":7881:7899   */\n      add\n        /* \"staking.sol\":3270:3733  function calculateRewards (address _user, uint256 _level) public view returns (uint256){... */\n      tag_27\n        /* \"#utility.yul\":7762:7939   */\n      jump\n        /* \"staking.sol\":1323:1821  function deposit (uint256 _amount, uint256 _level) public whenNotPaused {... */\n    tag_16:\n      tag_29\n      tag_74\n      calldatasize\n      0x04\n      tag_41\n      jump\t// in\n    tag_74:\n      tag_75\n      jump\t// in\n        /* \"staking.sol\":4238:4452  function getLevelsInfo() external view returns(Level memory level0, Level memory level1, Level memory level2){... */\n    tag_17:\n      0x40\n      dup1\n      mload\n      dup1\n      dup3\n      add\n      dup3\n      mstore\n      0x00\n      dup1\n      dup3\n      mstore\n      0x20\n      swap2\n      dup3\n      add\n      dup2\n      swap1\n      mstore\n      dup3\n      mload\n      dup1\n      dup5\n      add\n      dup5\n      mstore\n      dup2\n      dup2\n      mstore\n      dup3\n      add\n      dup2\n      swap1\n      mstore\n      dup3\n      mload\n      dup1\n      dup5\n      add\n      dup5\n      mstore\n      dup2\n      dup2\n      mstore\n      dup3\n      add\n      dup2\n      swap1\n      mstore\n        /* \"staking.sol\":4357:4378  level0 = levelInfo[0] */\n      dup3\n      mload\n      dup1\n      dup5\n      add\n      dup5\n      mstore\n        /* \"staking.sol\":4366:4378  levelInfo[0] */\n      0x3617319a054d772f909f7c479a2cebe5066e836a939412e32403c99029b92eff\n        /* \"staking.sol\":4357:4378  level0 = levelInfo[0] */\n      sload\n      dup2\n      mstore\n      sload(0x3617319a054d772f909f7c479a2cebe5066e836a939412e32403c99029b92f00)\n      dup2\n      dup5\n      add\n      swap1\n      dup2\n      mstore\n        /* \"staking.sol\":4388:4409  level1 = levelInfo[1] */\n      dup5\n      mload\n      dup1\n      dup7\n      add\n      dup7\n      mstore\n        /* \"staking.sol\":4397:4409  levelInfo[1] */\n      0xa15bc60c955c405d20d9149c709e2460f1c2d9a497496a7f46004d1772c3054c\n        /* \"staking.sol\":4388:4409  level1 = levelInfo[1] */\n      sload\n      dup2\n      mstore\n      sload(0xa15bc60c955c405d20d9149c709e2460f1c2d9a497496a7f46004d1772c3054d)\n      dup2\n      dup7\n      add\n      swap1\n      dup2\n      mstore\n        /* \"staking.sol\":4438:4439  2 */\n      0x02\n        /* \"staking.sol\":4428:4440  levelInfo[2] */\n      swap1\n      swap5\n      mstore\n        /* \"staking.sol\":4366:4375  levelInfo */\n      0x03\n        /* \"staking.sol\":4428:4440  levelInfo[2] */\n      dup6\n      mstore\n        /* \"staking.sol\":4419:4440  level2 = levelInfo[2] */\n      dup6\n      mload\n      dup1\n      dup8\n      add\n      dup8\n      mstore\n        /* \"staking.sol\":4428:4440  levelInfo[2] */\n      0xc3a24b0501bd2c13a7e57f2db4369ec4c223447539fc0724a9d55ac4a06ebd4d\n        /* \"staking.sol\":4419:4440  level2 = levelInfo[2] */\n      sload\n      dup2\n      mstore\n      sload(0xc3a24b0501bd2c13a7e57f2db4369ec4c223447539fc0724a9d55ac4a06ebd4e)\n      dup2\n      dup8\n      add\n      swap1\n      dup2\n      mstore\n        /* \"staking.sol\":4238:4452  function getLevelsInfo() external view returns(Level memory level0, Level memory level1, Level memory level2){... */\n      dup8\n      mload\n        /* \"#utility.yul\":1754:1766   */\n      swap5\n      mload\n        /* \"#utility.yul\":1742:1767   */\n      dup6\n      mstore\n        /* \"#utility.yul\":1799:1822   */\n      swap3\n      mload\n        /* \"#utility.yul\":1783:1797   */\n      swap6\n      dup5\n      add\n        /* \"#utility.yul\":1776:1823   */\n      swap6\n      swap1\n      swap6\n      mstore\n        /* \"#utility.yul\":1754:1766   */\n      mload\n        /* \"#utility.yul\":6955:6973   */\n      swap5\n      dup3\n      add\n        /* \"#utility.yul\":1742:1767   */\n      swap5\n      swap1\n      swap5\n      mstore\n        /* \"#utility.yul\":1799:1822   */\n      swap1\n      mload\n        /* \"#utility.yul\":1783:1797   */\n      0x60\n      dup3\n      add\n        /* \"#utility.yul\":1776:1823   */\n      mstore\n        /* \"#utility.yul\":1754:1766   */\n      swap1\n      mload\n        /* \"#utility.yul\":7030:7033   */\n      0x80\n        /* \"#utility.yul\":7015:7034   */\n      dup3\n      add\n        /* \"#utility.yul\":1742:1767   */\n      mstore\n        /* \"#utility.yul\":1799:1822   */\n      swap1\n      mload\n        /* \"#utility.yul\":1783:1797   */\n      0xa0\n      dup3\n      add\n        /* \"#utility.yul\":1776:1823   */\n      mstore\n        /* \"#utility.yul\":6859:6862   */\n      0xc0\n        /* \"#utility.yul\":6844:6863   */\n      add\n        /* \"staking.sol\":4238:4452  function getLevelsInfo() external view returns(Level memory level0, Level memory level1, Level memory level2){... */\n      tag_27\n        /* \"#utility.yul\":6537:7041   */\n      jump\n        /* \"staking.sol\":694:736  mapping(uint256 => Level) public levelInfo */\n    tag_18:\n      tag_80\n      tag_81\n      calldatasize\n      0x04\n      tag_35\n      jump\t// in\n    tag_81:\n      mstore(0x20, 0x03)\n      0x00\n      swap1\n      dup2\n      mstore\n      0x40\n      swap1\n      keccak256\n      dup1\n      sload\n      0x01\n      swap1\n      swap2\n      add\n      sload\n      dup3\n      jump\n    tag_80:\n      0x40\n      dup1\n      mload\n        /* \"#utility.yul\":8118:8143   */\n      swap3\n      dup4\n      mstore\n        /* \"#utility.yul\":8174:8176   */\n      0x20\n        /* \"#utility.yul\":8159:8177   */\n      dup4\n      add\n        /* \"#utility.yul\":8152:8186   */\n      swap2\n      swap1\n      swap2\n      mstore\n        /* \"#utility.yul\":8091:8109   */\n      add\n        /* \"staking.sol\":694:736  mapping(uint256 => Level) public levelInfo */\n      tag_27\n        /* \"#utility.yul\":7944:8192   */\n      jump\n        /* \"@openzeppelin/contracts/access/Ownable.sol\":1918:2116  function transferOwnership(address newOwner) public virtual onlyOwner {... */\n    tag_19:\n      tag_29\n      tag_86\n      calldatasize\n      0x04\n      tag_53\n      jump\t// in\n    tag_86:\n      tag_87\n      jump\t// in\n        /* \"staking.sol\":4458:4645  function changeLevelValues(uint256 level, uint256 _APY, uint256 _lockTime) external onlyOwner {... */\n    tag_32:\n        /* \"@openzeppelin/contracts/access/Ownable.sol\":1082:1089  address */\n      0x00\n        /* \"@openzeppelin/contracts/access/Ownable.sol\":1108:1114  _owner */\n      sload\n      sub(shl(0xa0, 0x01), 0x01)\n      and\n        /* \"@openzeppelin/contracts/utils/Context.sol\":719:729  msg.sender */\n      caller\n        /* \"@openzeppelin/contracts/access/Ownable.sol\":1248:1271  owner() == _msgSender() */\n      eq\n        /* \"@openzeppelin/contracts/access/Ownable.sol\":1240:1308  require(owner() == _msgSender(), \"Ownable: caller is not the owner\") */\n      tag_92\n      jumpi\n      mload(0x40)\n      shl(0xe5, 0x461bcd)\n      dup2\n      mstore\n      0x04\n      add\n      tag_93\n      swap1\n      tag_94\n      jump\t// in\n    tag_93:\n      mload(0x40)\n      dup1\n      swap2\n      sub\n      swap1\n      revert\n    tag_92:\n        /* \"staking.sol\":4562:4578  levelInfo[level] */\n      0x00\n      swap3\n      dup4\n      mstore\n        /* \"staking.sol\":4562:4571  levelInfo */\n      0x03\n        /* \"staking.sol\":4562:4578  levelInfo[level] */\n      0x20\n      mstore\n      0x40\n      swap1\n      swap3\n      keccak256\n        /* \"staking.sol\":4562:4589  levelInfo[level].APY = _APY */\n      swap1\n      dup2\n      sstore\n        /* \"staking.sol\":4599:4626  levelInfo[level].lockPeriod */\n      0x01\n      add\n        /* \"staking.sol\":4599:4638  levelInfo[level].lockPeriod = _lockTime */\n      sstore\n        /* \"staking.sol\":4458:4645  function changeLevelValues(uint256 level, uint256 _APY, uint256 _lockTime) external onlyOwner {... */\n      jump\t// out\n        /* \"staking.sol\":2401:2821  function claim (uint256 _level) external{... */\n    tag_36:\n        /* \"staking.sol\":2472:2482  msg.sender */\n      caller\n        /* \"staking.sol\":2451:2469  address _msgSender */\n      0x00\n        /* \"staking.sol\":2500:2528  userLevelDeposit[_msgSender] */\n      dup2\n      dup2\n      mstore\n        /* \"staking.sol\":2500:2516  userLevelDeposit */\n      0x02\n        /* \"staking.sol\":2500:2528  userLevelDeposit[_msgSender] */\n      0x20\n      swap1\n      dup2\n      mstore\n      0x40\n      dup1\n      dup4\n      keccak256\n        /* \"staking.sol\":2500:2536  userLevelDeposit[_msgSender][_level] */\n      dup6\n      dup5\n      mstore\n      swap1\n      swap2\n      mstore\n      swap1\n      keccak256\n        /* \"staking.sol\":2500:2544  userLevelDeposit[_msgSender][_level].balance */\n      sload\n        /* \"staking.sol\":2492:2570  require(userLevelDeposit[_msgSender][_level].balance > 0, \"No active deposit\") */\n      tag_97\n      jumpi\n      mload(0x40)\n      shl(0xe5, 0x461bcd)\n      dup2\n      mstore\n        /* \"#utility.yul\":6046:6048   */\n      0x20\n        /* \"staking.sol\":2492:2570  require(userLevelDeposit[_msgSender][_level].balance > 0, \"No active deposit\") */\n      0x04\n      dup3\n      add\n        /* \"#utility.yul\":6028:6049   */\n      mstore\n        /* \"#utility.yul\":6085:6087   */\n      0x11\n        /* \"#utility.yul\":6065:6083   */\n      0x24\n      dup3\n      add\n        /* \"#utility.yul\":6058:6088   */\n      mstore\n      shl(0x7a, 0x139bc81858dd1a5d994819195c1bdcda5d)\n        /* \"#utility.yul\":6104:6122   */\n      0x44\n      dup3\n      add\n        /* \"#utility.yul\":6097:6144   */\n      mstore\n        /* \"#utility.yul\":6161:6179   */\n      0x64\n      add\n        /* \"staking.sol\":2492:2570  require(userLevelDeposit[_msgSender][_level].balance > 0, \"No active deposit\") */\n      tag_93\n        /* \"#utility.yul\":5844:6185   */\n      jump\n        /* \"staking.sol\":2492:2570  require(userLevelDeposit[_msgSender][_level].balance > 0, \"No active deposit\") */\n    tag_97:\n        /* \"staking.sol\":2581:2596  uint256 rewards */\n      0x00\n        /* \"staking.sol\":2599:2635  calculateRewards(_msgSender, _level) */\n      tag_100\n        /* \"staking.sol\":2616:2626  _msgSender */\n      dup3\n        /* \"staking.sol\":2628:2634  _level */\n      dup5\n        /* \"staking.sol\":2599:2615  calculateRewards */\n      tag_70\n        /* \"staking.sol\":2599:2635  calculateRewards(_msgSender, _level) */\n      jump\t// in\n    tag_100:\n      sub(shl(0xa0, 0x01), 0x01)\n        /* \"staking.sol\":2646:2674  userLevelDeposit[_msgSender] */\n      dup4\n      and\n      0x00\n      swap1\n      dup2\n      mstore\n        /* \"staking.sol\":2646:2662  userLevelDeposit */\n      0x02\n        /* \"staking.sol\":2646:2674  userLevelDeposit[_msgSender] */\n      0x20\n      swap1\n      dup2\n      mstore\n      0x40\n      dup1\n      dup4\n      keccak256\n        /* \"staking.sol\":2646:2682  userLevelDeposit[_msgSender][_level] */\n      dup8\n      dup5\n      mstore\n      swap1\n      swap2\n      mstore\n      dup2\n      keccak256\n        /* \"staking.sol\":2646:2690  userLevelDeposit[_msgSender][_level].started */\n      0x01\n      add\n        /* \"staking.sol\":2646:2709  userLevelDeposit[_msgSender][_level].started += block.timestamp */\n      dup1\n      sload\n        /* \"staking.sol\":2581:2635  uint256 rewards = calculateRewards(_msgSender, _level) */\n      swap3\n      swap4\n      pop\n        /* \"staking.sol\":2694:2709  block.timestamp */\n      timestamp\n      swap3\n        /* \"staking.sol\":2646:2690  userLevelDeposit[_msgSender][_level].started */\n      swap1\n      swap2\n        /* \"staking.sol\":2646:2674  userLevelDeposit[_msgSender] */\n      swap1\n        /* \"staking.sol\":2646:2709  userLevelDeposit[_msgSender][_level].started += block.timestamp */\n      tag_101\n      swap1\n        /* \"staking.sol\":2694:2709  block.timestamp */\n      dup5\n      swap1\n        /* \"staking.sol\":2646:2709  userLevelDeposit[_msgSender][_level].started += block.timestamp */\n      tag_102\n      jump\t// in\n    tag_101:\n      swap1\n      swap2\n      sstore\n      pop\n      pop\n        /* \"staking.sol\":2720:2733  acceptedToken */\n      sload(0x01)\n        /* \"staking.sol\":2720:2763  acceptedToken.transfer(_msgSender, rewards) */\n      mload(0x40)\n      shl(0xe0, 0xa9059cbb)\n      dup2\n      mstore\n      sub(shl(0xa0, 0x01), 0x01)\n        /* \"#utility.yul\":3178:3210   */\n      dup5\n      dup2\n      and\n        /* \"staking.sol\":2720:2763  acceptedToken.transfer(_msgSender, rewards) */\n      0x04\n      dup4\n      add\n        /* \"#utility.yul\":3160:3211   */\n      mstore\n        /* \"#utility.yul\":3227:3245   */\n      0x24\n      dup3\n      add\n        /* \"#utility.yul\":3220:3254   */\n      dup5\n      swap1\n      mstore\n        /* \"staking.sol\":2720:2733  acceptedToken */\n      swap1\n      swap2\n      and\n      swap1\n        /* \"staking.sol\":2720:2742  acceptedToken.transfer */\n      0xa9059cbb\n      swap1\n        /* \"#utility.yul\":3133:3151   */\n      0x44\n      add\n        /* \"staking.sol\":2720:2763  acceptedToken.transfer(_msgSender, rewards) */\n      0x20\n      mload(0x40)\n      dup1\n      dup4\n      sub\n      dup2\n      0x00\n      dup8\n      dup1\n      extcodesize\n      iszero\n      dup1\n      iszero\n      tag_105\n      jumpi\n      0x00\n      dup1\n      revert\n    tag_105:\n      pop\n      gas\n      call\n      iszero\n      dup1\n      iszero\n      tag_107\n      jumpi\n      returndatasize\n      0x00\n      dup1\n      returndatacopy\n      revert(0x00, returndatasize)\n    tag_107:\n      pop\n      pop\n      pop\n      pop\n      mload(0x40)\n      returndatasize\n      not(0x1f)\n      0x1f\n      dup3\n      add\n      and\n      dup3\n      add\n      dup1\n      0x40\n      mstore\n      pop\n      dup2\n      add\n      swap1\n      tag_108\n      swap2\n      swap1\n      tag_109\n      jump\t// in\n    tag_108:\n      pop\n        /* \"staking.sol\":2779:2814  Claim (_msgSender, _level, rewards) */\n      0x34fcbac0073d7c3d388e51312faf357774904998eeb8fca628b9e6f65ee1cbf7\n        /* \"staking.sol\":2786:2796  _msgSender */\n      dup3\n        /* \"staking.sol\":2798:2804  _level */\n      dup5\n        /* \"staking.sol\":2806:2813  rewards */\n      dup4\n        /* \"staking.sol\":2779:2814  Claim (_msgSender, _level, rewards) */\n      mload(0x40)\n      tag_110\n      swap4\n      swap3\n      swap2\n      swap1\n      tag_137\n      jump\t// in\n    tag_110:\n      mload(0x40)\n      dup1\n      swap2\n      sub\n      swap1\n      log1\n        /* \"staking.sol\":2441:2821  {... */\n      pop\n      pop\n        /* \"staking.sol\":2401:2821  function claim (uint256 _level) external{... */\n      pop\n      jump\t// out\n        /* \"staking.sol\":1252:1316  function unpause () public onlyOwner {... */\n    tag_38:\n        /* \"@openzeppelin/contracts/access/Ownable.sol\":1082:1089  address */\n      0x00\n        /* \"@openzeppelin/contracts/access/Ownable.sol\":1108:1114  _owner */\n      sload\n      sub(shl(0xa0, 0x01), 0x01)\n      and\n        /* \"@openzeppelin/contracts/utils/Context.sol\":719:729  msg.sender */\n      caller\n        /* \"@openzeppelin/contracts/access/Ownable.sol\":1248:1271  owner() == _msgSender() */\n      eq\n        /* \"@openzeppelin/contracts/access/Ownable.sol\":1240:1308  require(owner() == _msgSender(), \"Ownable: caller is not the owner\") */\n      tag_115\n      jumpi\n      mload(0x40)\n      shl(0xe5, 0x461bcd)\n      dup2\n      mstore\n      0x04\n      add\n      tag_93\n      swap1\n      tag_94\n      jump\t// in\n    tag_115:\n        /* \"staking.sol\":1299:1309  _unpause() */\n      tag_118\n        /* \"staking.sol\":1299:1307  _unpause */\n      tag_119\n        /* \"staking.sol\":1299:1309  _unpause() */\n      jump\t// in\n    tag_118:\n        /* \"staking.sol\":1252:1316  function unpause () public onlyOwner {... */\n      jump\t// out\n        /* \"staking.sol\":1827:2395  function withdraw (uint256 _amount, uint256 _level) public  {... */\n    tag_42:\n        /* \"staking.sol\":1918:1928  msg.sender */\n      caller\n        /* \"staking.sol\":1897:1915  address _msgSender */\n      0x00\n        /* \"staking.sol\":1946:1974  userLevelDeposit[_msgSender] */\n      dup2\n      dup2\n      mstore\n        /* \"staking.sol\":1946:1962  userLevelDeposit */\n      0x02\n        /* \"staking.sol\":1946:1974  userLevelDeposit[_msgSender] */\n      0x20\n      swap1\n      dup2\n      mstore\n      0x40\n      dup1\n      dup4\n      keccak256\n        /* \"staking.sol\":1946:1982  userLevelDeposit[_msgSender][_level] */\n      dup6\n      dup5\n      mstore\n      swap1\n      swap2\n      mstore\n      swap1\n      keccak256\n        /* \"staking.sol\":1946:1990  userLevelDeposit[_msgSender][_level].balance */\n      sload\n        /* \"staking.sol\":1946:2001  userLevelDeposit[_msgSender][_level].balance >= _amount */\n      dup4\n      gt\n      iszero\n        /* \"staking.sol\":1938:2024  require(userLevelDeposit[_msgSender][_level].balance >= _amount, \"Not enough deposit\") */\n      tag_121\n      jumpi\n      mload(0x40)\n      shl(0xe5, 0x461bcd)\n      dup2\n      mstore\n        /* \"#utility.yul\":6392:6394   */\n      0x20\n        /* \"staking.sol\":1938:2024  require(userLevelDeposit[_msgSender][_level].balance >= _amount, \"Not enough deposit\") */\n      0x04\n      dup3\n      add\n        /* \"#utility.yul\":6374:6395   */\n      mstore\n        /* \"#utility.yul\":6431:6433   */\n      0x12\n        /* \"#utility.yul\":6411:6429   */\n      0x24\n      dup3\n      add\n        /* \"#utility.yul\":6404:6434   */\n      mstore\n      shl(0x72, 0x139bdd08195b9bdd59da0819195c1bdcda5d)\n        /* \"#utility.yul\":6450:6468   */\n      0x44\n      dup3\n      add\n        /* \"#utility.yul\":6443:6491   */\n      mstore\n        /* \"#utility.yul\":6508:6526   */\n      0x64\n      add\n        /* \"staking.sol\":1938:2024  require(userLevelDeposit[_msgSender][_level].balance >= _amount, \"Not enough deposit\") */\n      tag_93\n        /* \"#utility.yul\":6190:6532   */\n      jump\n        /* \"staking.sol\":1938:2024  require(userLevelDeposit[_msgSender][_level].balance >= _amount, \"Not enough deposit\") */\n    tag_121:\n      sub(shl(0xa0, 0x01), 0x01)\n        /* \"staking.sol\":2042:2070  userLevelDeposit[_msgSender] */\n      dup2\n      and\n      0x00\n      swap1\n      dup2\n      mstore\n        /* \"staking.sol\":2042:2058  userLevelDeposit */\n      0x02\n        /* \"staking.sol\":2042:2070  userLevelDeposit[_msgSender] */\n      0x20\n      dup2\n      dup2\n      mstore\n      0x40\n      dup1\n      dup5\n      keccak256\n        /* \"staking.sol\":2042:2078  userLevelDeposit[_msgSender][_level] */\n      dup7\n      dup6\n      mstore\n      swap1\n      swap2\n      mstore\n      swap1\n      swap2\n      keccak256\n        /* \"staking.sol\":2042:2089  userLevelDeposit[_msgSender][_level].unlockTime */\n      add\n      sload\n        /* \"staking.sol\":2093:2108  block.timestamp */\n      timestamp\n      lt\n        /* \"staking.sol\":2042:2108  userLevelDeposit[_msgSender][_level].unlockTime <= block.timestamp */\n      iszero\n        /* \"staking.sol\":2034:2137  require(userLevelDeposit[_msgSender][_level].unlockTime <= block.timestamp, \"Deposit not unlocked yet\") */\n      tag_124\n      jumpi\n      mload(0x40)\n      shl(0xe5, 0x461bcd)\n      dup2\n      mstore\n        /* \"#utility.yul\":4987:4989   */\n      0x20\n        /* \"staking.sol\":2034:2137  require(userLevelDeposit[_msgSender][_level].unlockTime <= block.timestamp, \"Deposit not unlocked yet\") */\n      0x04\n      dup3\n      add\n        /* \"#utility.yul\":4969:4990   */\n      mstore\n        /* \"#utility.yul\":5026:5028   */\n      0x18\n        /* \"#utility.yul\":5006:5024   */\n      0x24\n      dup3\n      add\n        /* \"#utility.yul\":4999:5029   */\n      mstore\n        /* \"#utility.yul\":5065:5091   */\n      0x4465706f736974206e6f7420756e6c6f636b6564207965740000000000000000\n        /* \"#utility.yul\":5045:5063   */\n      0x44\n      dup3\n      add\n        /* \"#utility.yul\":5038:5092   */\n      mstore\n        /* \"#utility.yul\":5109:5127   */\n      0x64\n      add\n        /* \"staking.sol\":2034:2137  require(userLevelDeposit[_msgSender][_level].unlockTime <= block.timestamp, \"Deposit not unlocked yet\") */\n      tag_93\n        /* \"#utility.yul\":4785:5133   */\n      jump\n        /* \"staking.sol\":2034:2137  require(userLevelDeposit[_msgSender][_level].unlockTime <= block.timestamp, \"Deposit not unlocked yet\") */\n    tag_124:\n        /* \"staking.sol\":2148:2163  uint256 rewards */\n      0x00\n        /* \"staking.sol\":2166:2202  calculateRewards(_msgSender, _level) */\n      tag_127\n        /* \"staking.sol\":2183:2193  _msgSender */\n      dup3\n        /* \"staking.sol\":2195:2201  _level */\n      dup5\n        /* \"staking.sol\":2166:2182  calculateRewards */\n      tag_70\n        /* \"staking.sol\":2166:2202  calculateRewards(_msgSender, _level) */\n      jump\t// in\n    tag_127:\n      sub(shl(0xa0, 0x01), 0x01)\n        /* \"staking.sol\":2221:2249  userLevelDeposit[_msgSender] */\n      dup4\n      and\n      0x00\n      swap1\n      dup2\n      mstore\n        /* \"staking.sol\":2221:2237  userLevelDeposit */\n      0x02\n        /* \"staking.sol\":2221:2249  userLevelDeposit[_msgSender] */\n      0x20\n      swap1\n      dup2\n      mstore\n      0x40\n      dup1\n      dup4\n      keccak256\n        /* \"staking.sol\":2221:2257  userLevelDeposit[_msgSender][_level] */\n      dup8\n      dup5\n      mstore\n      swap1\n      swap2\n      mstore\n      dup2\n      keccak256\n        /* \"staking.sol\":2221:2276  userLevelDeposit[_msgSender][_level].balance -= _amount */\n      dup1\n      sload\n        /* \"staking.sol\":2148:2202  uint256 rewards = calculateRewards(_msgSender, _level) */\n      swap3\n      swap4\n      pop\n        /* \"staking.sol\":2269:2276  _amount */\n      dup7\n      swap3\n        /* \"staking.sol\":2221:2257  userLevelDeposit[_msgSender][_level] */\n      swap1\n      swap2\n        /* \"staking.sol\":2221:2249  userLevelDeposit[_msgSender] */\n      swap1\n        /* \"staking.sol\":2221:2276  userLevelDeposit[_msgSender][_level].balance -= _amount */\n      tag_128\n      swap1\n        /* \"staking.sol\":2269:2276  _amount */\n      dup5\n      swap1\n        /* \"staking.sol\":2221:2276  userLevelDeposit[_msgSender][_level].balance -= _amount */\n      tag_129\n      jump\t// in\n    tag_128:\n      swap1\n      swap2\n      sstore\n      pop\n      pop\n        /* \"staking.sol\":2287:2300  acceptedToken */\n      and(sub(shl(0xa0, 0x01), 0x01), sload(0x01))\n        /* \"staking.sol\":2287:2309  acceptedToken.transfer */\n      0xa9059cbb\n        /* \"staking.sol\":2310:2320  _msgSender */\n      dup4\n        /* \"staking.sol\":2322:2339  _amount + rewards */\n      tag_130\n        /* \"staking.sol\":2332:2339  rewards */\n      dup5\n        /* \"staking.sol\":2322:2329  _amount */\n      dup9\n        /* \"staking.sol\":2322:2339  _amount + rewards */\n      tag_102\n      jump\t// in\n    tag_130:\n        /* \"staking.sol\":2287:2340  acceptedToken.transfer(_msgSender, _amount + rewards) */\n      mload(0x40)\n      not(sub(shl(0xe0, 0x01), 0x01))\n      0xe0\n      dup6\n      swap1\n      shl\n      and\n      dup2\n      mstore\n      sub(shl(0xa0, 0x01), 0x01)\n        /* \"#utility.yul\":3178:3210   */\n      swap1\n      swap3\n      and\n        /* \"staking.sol\":2287:2340  acceptedToken.transfer(_msgSender, _amount + rewards) */\n      0x04\n      dup4\n      add\n        /* \"#utility.yul\":3160:3211   */\n      mstore\n        /* \"#utility.yul\":3227:3245   */\n      0x24\n      dup3\n      add\n        /* \"#utility.yul\":3220:3254   */\n      mstore\n        /* \"#utility.yul\":3133:3151   */\n      0x44\n      add\n        /* \"staking.sol\":2287:2340  acceptedToken.transfer(_msgSender, _amount + rewards) */\n      0x20\n      mload(0x40)\n      dup1\n      dup4\n      sub\n      dup2\n      0x00\n      dup8\n      dup1\n      extcodesize\n      iszero\n      dup1\n      iszero\n      tag_132\n      jumpi\n      0x00\n      dup1\n      revert\n    tag_132:\n      pop\n      gas\n      call\n      iszero\n      dup1\n      iszero\n      tag_134\n      jumpi\n      returndatasize\n      0x00\n      dup1\n      returndatacopy\n      revert(0x00, returndatasize)\n    tag_134:\n      pop\n      pop\n      pop\n      pop\n      mload(0x40)\n      returndatasize\n      not(0x1f)\n      0x1f\n      dup3\n      add\n      and\n      dup3\n      add\n      dup1\n      0x40\n      mstore\n      pop\n      dup2\n      add\n      swap1\n      tag_135\n      swap2\n      swap1\n      tag_109\n      jump\t// in\n    tag_135:\n      pop\n        /* \"staking.sol\":2356:2388  Withdraw(_msgSender, 0, _amount) */\n      0xf279e6a1f5e320cca91135676d9cb6e44ca8a08c0b88342bcdb1144f6511b568\n        /* \"staking.sol\":2365:2375  _msgSender */\n      dup3\n        /* \"staking.sol\":2377:2378  0 */\n      0x00\n        /* \"staking.sol\":2380:2387  _amount */\n      dup7\n        /* \"staking.sol\":2356:2388  Withdraw(_msgSender, 0, _amount) */\n      mload(0x40)\n      tag_136\n      swap4\n      swap3\n      swap2\n      swap1\n      tag_137\n      jump\t// in\n    tag_136:\n      mload(0x40)\n      dup1\n      swap2\n      sub\n      swap1\n      log1\n        /* \"staking.sol\":1887:2395  {... */\n      pop\n      pop\n        /* \"staking.sol\":1827:2395  function withdraw (uint256 _amount, uint256 _level) public  {... */\n      pop\n      pop\n      jump\t// out\n        /* \"staking.sol\":3743:4232  function getUserInfo(address _user) external view returns(User memory level0,  User memory level1, User memory level2, uint256 level0Rewards, uint256 level1Rewards,  uint256 level2Rewards){... */\n    tag_54:\n        /* \"staking.sol\":3801:3819  User memory level0 */\n      tag_139\n      mload(0x40)\n      dup1\n      0x60\n      add\n      0x40\n      mstore\n      dup1\n      0x00\n      dup2\n      mstore\n      0x20\n      add\n      0x00\n      dup2\n      mstore\n      0x20\n      add\n      0x00\n      dup2\n      mstore\n      pop\n      swap1\n      jump\n    tag_139:\n        /* \"staking.sol\":3822:3840  User memory level1 */\n      tag_141\n      mload(0x40)\n      dup1\n      0x60\n      add\n      0x40\n      mstore\n      dup1\n      0x00\n      dup2\n      mstore\n      0x20\n      add\n      0x00\n      dup2\n      mstore\n      0x20\n      add\n      0x00\n      dup2\n      mstore\n      pop\n      swap1\n      jump\n    tag_141:\n        /* \"staking.sol\":3842:3860  User memory level2 */\n      tag_142\n      mload(0x40)\n      dup1\n      0x60\n      add\n      0x40\n      mstore\n      dup1\n      0x00\n      dup2\n      mstore\n      0x20\n      add\n      0x00\n      dup2\n      mstore\n      0x20\n      add\n      0x00\n      dup2\n      mstore\n      pop\n      swap1\n      jump\n    tag_142:\n      pop\n      pop\n      pop\n      sub(shl(0xa0, 0x01), 0x01)\n        /* \"staking.sol\":3950:3973  userLevelDeposit[_user] */\n      dup2\n      and\n        /* \"staking.sol\":3862:3883  uint256 level0Rewards */\n      0x00\n        /* \"staking.sol\":3950:3973  userLevelDeposit[_user] */\n      swap1\n      dup2\n      mstore\n        /* \"staking.sol\":3950:3966  userLevelDeposit */\n      0x02\n        /* \"staking.sol\":3950:3973  userLevelDeposit[_user] */\n      0x20\n      dup2\n      dup2\n      mstore\n      0x40\n      dup1\n      dup5\n      keccak256\n        /* \"staking.sol\":3950:3976  userLevelDeposit[_user][0] */\n      dup5\n      dup1\n      mstore\n      dup1\n      dup4\n      mstore\n      dup2\n      dup6\n      keccak256\n        /* \"staking.sol\":3941:3976  level0 = userLevelDeposit[_user][0] */\n      dup3\n      mload\n      0x60\n      dup1\n      dup3\n      add\n      dup6\n      mstore\n      dup3\n      sload\n      dup3\n      mstore\n      0x01\n      dup1\n      dup5\n      add\n      sload\n      dup4\n      dup9\n      add\n      mstore\n      swap3\n      dup8\n      add\n      sload\n      dup3\n      dup7\n      add\n      mstore\n        /* \"staking.sol\":3995:4021  userLevelDeposit[_user][1] */\n      dup3\n      dup9\n      mstore\n      dup4\n      dup7\n      mstore\n      dup5\n      dup9\n      keccak256\n        /* \"staking.sol\":3986:4021  level1 = userLevelDeposit[_user][1] */\n      dup6\n      mload\n      dup1\n      dup4\n      add\n      dup8\n      mstore\n      dup2\n      sload\n      dup2\n      mstore\n      dup2\n      dup6\n      add\n      sload\n      dup2\n      dup10\n      add\n      mstore\n      swap1\n      dup9\n      add\n      sload\n      dup2\n      dup8\n      add\n      mstore\n        /* \"staking.sol\":4040:4066  userLevelDeposit[_user][2] */\n      dup8\n      dup10\n      mstore\n      swap4\n      dup7\n      mstore\n      dup5\n      dup9\n      keccak256\n        /* \"staking.sol\":4031:4066  level2 = userLevelDeposit[_user][2] */\n      dup6\n      mload\n      swap2\n      dup3\n      add\n      dup7\n      mstore\n      dup1\n      sload\n      dup3\n      mstore\n      swap3\n      dup4\n      add\n      sload\n      swap6\n      dup2\n      add\n      swap6\n      swap1\n      swap6\n      mstore\n      swap5\n      add\n      sload\n      swap2\n      dup4\n      add\n      swap2\n      swap1\n      swap2\n      mstore\n        /* \"staking.sol\":3941:3976  level0 = userLevelDeposit[_user][0] */\n      swap2\n      swap3\n        /* \"staking.sol\":3862:3883  uint256 level0Rewards */\n      dup1\n      dup1\n        /* \"staking.sol\":4095:4121  calculateRewards(_user, 0) */\n      tag_144\n        /* \"staking.sol\":3967:3972  _user */\n      dup8\n        /* \"staking.sol\":3862:3883  uint256 level0Rewards */\n      dup3\n        /* \"staking.sol\":4095:4111  calculateRewards */\n      tag_70\n        /* \"staking.sol\":4095:4121  calculateRewards(_user, 0) */\n      jump\t// in\n    tag_144:\n        /* \"staking.sol\":4079:4121  level0Rewards = calculateRewards(_user, 0) */\n      swap3\n      pop\n        /* \"staking.sol\":4147:4173  calculateRewards(_user, 1) */\n      tag_145\n        /* \"staking.sol\":4164:4169  _user */\n      dup8\n        /* \"staking.sol\":4171:4172  1 */\n      0x01\n        /* \"staking.sol\":4147:4163  calculateRewards */\n      tag_70\n        /* \"staking.sol\":4147:4173  calculateRewards(_user, 1) */\n      jump\t// in\n    tag_145:\n        /* \"staking.sol\":4131:4173  level1Rewards = calculateRewards(_user, 1) */\n      swap2\n      pop\n        /* \"staking.sol\":4199:4225  calculateRewards(_user, 2) */\n      tag_146\n        /* \"staking.sol\":4216:4221  _user */\n      dup8\n        /* \"staking.sol\":4223:4224  2 */\n      0x02\n        /* \"staking.sol\":4199:4215  calculateRewards */\n      tag_70\n        /* \"staking.sol\":4199:4225  calculateRewards(_user, 2) */\n      jump\t// in\n    tag_146:\n        /* \"staking.sol\":4183:4225  level2Rewards = calculateRewards(_user, 2) */\n      swap1\n      pop\n        /* \"staking.sol\":3743:4232  function getUserInfo(address _user) external view returns(User memory level0,  User memory level1, User memory level2, uint256 level0Rewards, uint256 level1Rewards,  uint256 level2Rewards){... */\n      swap2\n      swap4\n      swap6\n      pop\n      swap2\n      swap4\n      swap6\n      jump\t// out\n        /* \"@openzeppelin/contracts/access/Ownable.sol\":1668:1769  function renounceOwnership() public virtual onlyOwner {... */\n    tag_58:\n        /* \"@openzeppelin/contracts/access/Ownable.sol\":1082:1089  address */\n      0x00\n        /* \"@openzeppelin/contracts/access/Ownable.sol\":1108:1114  _owner */\n      sload\n      sub(shl(0xa0, 0x01), 0x01)\n      and\n        /* \"@openzeppelin/contracts/utils/Context.sol\":719:729  msg.sender */\n      caller\n        /* \"@openzeppelin/contracts/access/Ownable.sol\":1248:1271  owner() == _msgSender() */\n      eq\n        /* \"@openzeppelin/contracts/access/Ownable.sol\":1240:1308  require(owner() == _msgSender(), \"Ownable: caller is not the owner\") */\n      tag_150\n      jumpi\n      mload(0x40)\n      shl(0xe5, 0x461bcd)\n      dup2\n      mstore\n      0x04\n      add\n      tag_93\n      swap1\n      tag_94\n      jump\t// in\n    tag_150:\n        /* \"@openzeppelin/contracts/access/Ownable.sol\":1732:1762  _transferOwnership(address(0)) */\n      tag_118\n        /* \"@openzeppelin/contracts/access/Ownable.sol\":1759:1760  0 */\n      0x00\n        /* \"@openzeppelin/contracts/access/Ownable.sol\":1732:1750  _transferOwnership */\n      tag_154\n        /* \"@openzeppelin/contracts/access/Ownable.sol\":1732:1762  _transferOwnership(address(0)) */\n      jump\t// in\n        /* \"staking.sol\":1182:1242  function pause () public onlyOwner {... */\n    tag_60:\n        /* \"@openzeppelin/contracts/access/Ownable.sol\":1082:1089  address */\n      0x00\n        /* \"@openzeppelin/contracts/access/Ownable.sol\":1108:1114  _owner */\n      sload\n      sub(shl(0xa0, 0x01), 0x01)\n      and\n        /* \"@openzeppelin/contracts/utils/Context.sol\":719:729  msg.sender */\n      caller\n        /* \"@openzeppelin/contracts/access/Ownable.sol\":1248:1271  owner() == _msgSender() */\n      eq\n        /* \"@openzeppelin/contracts/access/Ownable.sol\":1240:1308  require(owner() == _msgSender(), \"Ownable: caller is not the owner\") */\n      tag_158\n      jumpi\n      mload(0x40)\n      shl(0xe5, 0x461bcd)\n      dup2\n      mstore\n      0x04\n      add\n      tag_93\n      swap1\n      tag_94\n      jump\t// in\n    tag_158:\n        /* \"staking.sol\":1227:1235  _pause() */\n      tag_118\n        /* \"staking.sol\":1227:1233  _pause */\n      tag_162\n        /* \"staking.sol\":1227:1235  _pause() */\n      jump\t// in\n        /* \"staking.sol\":2827:3264  function compound (uint256 _level) external{... */\n    tag_67:\n        /* \"staking.sol\":2901:2911  msg.sender */\n      caller\n        /* \"staking.sol\":2880:2898  address _msgSender */\n      0x00\n        /* \"staking.sol\":2929:2957  userLevelDeposit[_msgSender] */\n      dup2\n      dup2\n      mstore\n        /* \"staking.sol\":2929:2945  userLevelDeposit */\n      0x02\n        /* \"staking.sol\":2929:2957  userLevelDeposit[_msgSender] */\n      0x20\n      swap1\n      dup2\n      mstore\n      0x40\n      dup1\n      dup4\n      keccak256\n        /* \"staking.sol\":2929:2965  userLevelDeposit[_msgSender][_level] */\n      dup6\n      dup5\n      mstore\n      swap1\n      swap2\n      mstore\n      swap1\n      keccak256\n        /* \"staking.sol\":2929:2973  userLevelDeposit[_msgSender][_level].balance */\n      sload\n        /* \"staking.sol\":2921:2999  require(userLevelDeposit[_msgSender][_level].balance > 0, \"No active deposit\") */\n      tag_165\n      jumpi\n      mload(0x40)\n      shl(0xe5, 0x461bcd)\n      dup2\n      mstore\n        /* \"#utility.yul\":6046:6048   */\n      0x20\n        /* \"staking.sol\":2921:2999  require(userLevelDeposit[_msgSender][_level].balance > 0, \"No active deposit\") */\n      0x04\n      dup3\n      add\n        /* \"#utility.yul\":6028:6049   */\n      mstore\n        /* \"#utility.yul\":6085:6087   */\n      0x11\n        /* \"#utility.yul\":6065:6083   */\n      0x24\n      dup3\n      add\n        /* \"#utility.yul\":6058:6088   */\n      mstore\n      shl(0x7a, 0x139bc81858dd1a5d994819195c1bdcda5d)\n        /* \"#utility.yul\":6104:6122   */\n      0x44\n      dup3\n      add\n        /* \"#utility.yul\":6097:6144   */\n      mstore\n        /* \"#utility.yul\":6161:6179   */\n      0x64\n      add\n        /* \"staking.sol\":2921:2999  require(userLevelDeposit[_msgSender][_level].balance > 0, \"No active deposit\") */\n      tag_93\n        /* \"#utility.yul\":5844:6185   */\n      jump\n        /* \"staking.sol\":2921:2999  require(userLevelDeposit[_msgSender][_level].balance > 0, \"No active deposit\") */\n    tag_165:\n        /* \"staking.sol\":3010:3025  uint256 rewards */\n      0x00\n        /* \"staking.sol\":3028:3064  calculateRewards(_msgSender, _level) */\n      tag_167\n        /* \"staking.sol\":3045:3055  _msgSender */\n      dup3\n        /* \"staking.sol\":3057:3063  _level */\n      dup5\n        /* \"staking.sol\":3028:3044  calculateRewards */\n      tag_70\n        /* \"staking.sol\":3028:3064  calculateRewards(_msgSender, _level) */\n      jump\t// in\n    tag_167:\n      sub(shl(0xa0, 0x01), 0x01)\n        /* \"staking.sol\":3075:3103  userLevelDeposit[_msgSender] */\n      dup4\n      and\n      0x00\n      swap1\n      dup2\n      mstore\n        /* \"staking.sol\":3075:3091  userLevelDeposit */\n      0x02\n        /* \"staking.sol\":3075:3103  userLevelDeposit[_msgSender] */\n      0x20\n      swap1\n      dup2\n      mstore\n      0x40\n      dup1\n      dup4\n      keccak256\n        /* \"staking.sol\":3075:3111  userLevelDeposit[_msgSender][_level] */\n      dup8\n      dup5\n      mstore\n      swap1\n      swap2\n      mstore\n      dup2\n      keccak256\n        /* \"staking.sol\":3075:3130  userLevelDeposit[_msgSender][_level].balance += rewards */\n      dup1\n      sload\n        /* \"staking.sol\":3010:3064  uint256 rewards = calculateRewards(_msgSender, _level) */\n      swap3\n      swap4\n      pop\n      dup4\n      swap3\n        /* \"staking.sol\":3075:3111  userLevelDeposit[_msgSender][_level] */\n      swap1\n      swap2\n        /* \"staking.sol\":3075:3103  userLevelDeposit[_msgSender] */\n      swap1\n        /* \"staking.sol\":3075:3130  userLevelDeposit[_msgSender][_level].balance += rewards */\n      tag_168\n      swap1\n        /* \"staking.sol\":3010:3064  uint256 rewards = calculateRewards(_msgSender, _level) */\n      dup5\n      swap1\n        /* \"staking.sol\":3075:3130  userLevelDeposit[_msgSender][_level].balance += rewards */\n      tag_102\n      jump\t// in\n    tag_168:\n      swap1\n      swap2\n      sstore\n      pop\n      pop\n      sub(shl(0xa0, 0x01), 0x01)\n        /* \"staking.sol\":3140:3168  userLevelDeposit[_msgSender] */\n      dup3\n      and\n      0x00\n      swap1\n      dup2\n      mstore\n        /* \"staking.sol\":3140:3156  userLevelDeposit */\n      0x02\n        /* \"staking.sol\":3140:3168  userLevelDeposit[_msgSender] */\n      0x20\n      swap1\n      dup2\n      mstore\n      0x40\n      dup1\n      dup4\n      keccak256\n        /* \"staking.sol\":3140:3176  userLevelDeposit[_msgSender][_level] */\n      dup7\n      dup5\n      mstore\n      swap1\n      swap2\n      mstore\n      dup2\n      keccak256\n        /* \"staking.sol\":3140:3184  userLevelDeposit[_msgSender][_level].started */\n      0x01\n      add\n        /* \"staking.sol\":3140:3203  userLevelDeposit[_msgSender][_level].started += block.timestamp */\n      dup1\n      sload\n        /* \"staking.sol\":3188:3203  block.timestamp */\n      timestamp\n      swap3\n        /* \"staking.sol\":3140:3168  userLevelDeposit[_msgSender] */\n      swap1\n        /* \"staking.sol\":3140:3203  userLevelDeposit[_msgSender][_level].started += block.timestamp */\n      tag_169\n      swap1\n        /* \"staking.sol\":3188:3203  block.timestamp */\n      dup5\n      swap1\n        /* \"staking.sol\":3140:3203  userLevelDeposit[_msgSender][_level].started += block.timestamp */\n      tag_102\n      jump\t// in\n    tag_169:\n      swap1\n      swap2\n      sstore\n      pop\n      pop\n        /* \"staking.sol\":3219:3257  Compound (_msgSender, _level, rewards) */\n      mload(0x40)\n      0x0e311a2c6dbfb0153ec3a8a5bdca09070b3e5f60768fdc10a20453f38d186873\n      swap1\n      tag_110\n      swap1\n        /* \"staking.sol\":3229:3239  _msgSender */\n      dup5\n      swap1\n        /* \"staking.sol\":3241:3247  _level */\n      dup7\n      swap1\n        /* \"staking.sol\":3249:3256  rewards */\n      dup6\n      swap1\n        /* \"staking.sol\":3219:3257  Compound (_msgSender, _level, rewards) */\n      tag_137\n      jump\t// in\n        /* \"staking.sol\":3270:3733  function calculateRewards (address _user, uint256 _level) public view returns (uint256){... */\n    tag_70:\n      sub(shl(0xa0, 0x01), 0x01)\n        /* \"staking.sol\":3406:3429  userLevelDeposit[_user] */\n      dup3\n      and\n        /* \"staking.sol\":3349:3356  uint256 */\n      0x00\n        /* \"staking.sol\":3406:3429  userLevelDeposit[_user] */\n      swap1\n      dup2\n      mstore\n        /* \"staking.sol\":3406:3422  userLevelDeposit */\n      0x02\n        /* \"staking.sol\":3406:3429  userLevelDeposit[_user] */\n      0x20\n      swap1\n      dup2\n      mstore\n      0x40\n      dup1\n      dup4\n      keccak256\n        /* \"staking.sol\":3406:3437  userLevelDeposit[_user][_level] */\n      dup5\n      dup5\n      mstore\n      swap1\n      swap2\n      mstore\n      dup2\n      keccak256\n        /* \"staking.sol\":3406:3445  userLevelDeposit[_user][_level].started */\n      0x01\n      add\n      sload\n        /* \"staking.sol\":3349:3356  uint256 */\n      dup2\n      swap1\n        /* \"staking.sol\":3388:3445  block.timestamp - userLevelDeposit[_user][_level].started */\n      tag_172\n      swap1\n        /* \"staking.sol\":3388:3403  block.timestamp */\n      timestamp\n        /* \"staking.sol\":3388:3445  block.timestamp - userLevelDeposit[_user][_level].started */\n      tag_129\n      jump\t// in\n    tag_172:\n      sub(shl(0xa0, 0x01), 0x01)\n        /* \"staking.sol\":3473:3496  userLevelDeposit[_user] */\n      dup6\n      and\n        /* \"staking.sol\":3455:3470  uint256 balance */\n      0x00\n        /* \"staking.sol\":3473:3496  userLevelDeposit[_user] */\n      swap1\n      dup2\n      mstore\n        /* \"staking.sol\":3473:3489  userLevelDeposit */\n      0x02\n        /* \"staking.sol\":3473:3496  userLevelDeposit[_user] */\n      0x20\n      swap1\n      dup2\n      mstore\n      0x40\n      dup1\n      dup4\n      keccak256\n        /* \"staking.sol\":3473:3504  userLevelDeposit[_user][_level] */\n      dup8\n      dup5\n      mstore\n      dup3\n      mstore\n      dup1\n      dup4\n      keccak256\n        /* \"staking.sol\":3473:3512  userLevelDeposit[_user][_level].balance */\n      sload\n        /* \"staking.sol\":3537:3546  levelInfo */\n      0x03\n        /* \"staking.sol\":3537:3554  levelInfo[_level] */\n      swap1\n      swap3\n      mstore\n      dup3\n      keccak256\n        /* \"staking.sol\":3537:3558  levelInfo[_level].APY */\n      sload\n        /* \"staking.sol\":3367:3445  uint256 timeStaked = block.timestamp - userLevelDeposit[_user][_level].started */\n      swap3\n      swap4\n      pop\n        /* \"staking.sol\":3473:3512  userLevelDeposit[_user][_level].balance */\n      swap2\n        /* \"staking.sol\":3537:3558  levelInfo[_level].APY */\n      swap1\n        /* \"staking.sol\":3624:3632  365 days */\n      0x01e13380\n        /* \"staking.sol\":3615:3620  10000 */\n      0x2710\n        /* \"staking.sol\":3598:3611  balance * APY */\n      tag_173\n        /* \"staking.sol\":3537:3558  levelInfo[_level].APY */\n      dup5\n        /* \"staking.sol\":3473:3512  userLevelDeposit[_user][_level].balance */\n      dup7\n        /* \"staking.sol\":3598:3611  balance * APY */\n      tag_174\n      jump\t// in\n    tag_173:\n        /* \"staking.sol\":3597:3620  (balance * APY) / 10000 */\n      tag_175\n      swap2\n      swap1\n      tag_176\n      jump\t// in\n    tag_175:\n        /* \"staking.sol\":3596:3632  ((balance * APY) / 10000) / 365 days */\n      tag_177\n      swap2\n      swap1\n      tag_176\n      jump\t// in\n    tag_177:\n        /* \"staking.sol\":3569:3632  uint256 rewardsPerSecond = ((balance * APY) / 10000) / 365 days */\n      swap1\n      pop\n        /* \"staking.sol\":3642:3663  uint256 rewardsEarned */\n      0x00\n        /* \"staking.sol\":3666:3695  timeStaked * rewardsPerSecond */\n      tag_178\n        /* \"staking.sol\":3569:3632  uint256 rewardsPerSecond = ((balance * APY) / 10000) / 365 days */\n      dup3\n        /* \"staking.sol\":3666:3676  timeStaked */\n      dup7\n        /* \"staking.sol\":3666:3695  timeStaked * rewardsPerSecond */\n      tag_174\n      jump\t// in\n    tag_178:\n        /* \"staking.sol\":3642:3695  uint256 rewardsEarned = timeStaked * rewardsPerSecond */\n      swap9\n        /* \"staking.sol\":3270:3733  function calculateRewards (address _user, uint256 _level) public view returns (uint256){... */\n      swap8\n      pop\n      pop\n      pop\n      pop\n      pop\n      pop\n      pop\n      pop\n      jump\t// out\n        /* \"staking.sol\":1323:1821  function deposit (uint256 _amount, uint256 _level) public whenNotPaused {... */\n    tag_75:\n        /* \"@openzeppelin/contracts/security/Pausable.sol\":1145:1149  bool */\n      0x00\n        /* \"@openzeppelin/contracts/security/Pausable.sol\":1168:1175  _paused */\n      sload\n      shl(0xa0, 0x01)\n      swap1\n      div\n      0xff\n      and\n        /* \"@openzeppelin/contracts/security/Pausable.sol\":1411:1420  !paused() */\n      iszero\n        /* \"@openzeppelin/contracts/security/Pausable.sol\":1403:1441  require(!paused(), \"Pausable: paused\") */\n      tag_181\n      jumpi\n      mload(0x40)\n      shl(0xe5, 0x461bcd)\n      dup2\n      mstore\n        /* \"#utility.yul\":5340:5342   */\n      0x20\n        /* \"@openzeppelin/contracts/security/Pausable.sol\":1403:1441  require(!paused(), \"Pausable: paused\") */\n      0x04\n      dup3\n      add\n        /* \"#utility.yul\":5322:5343   */\n      mstore\n        /* \"#utility.yul\":5379:5381   */\n      0x10\n        /* \"#utility.yul\":5359:5377   */\n      0x24\n      dup3\n      add\n        /* \"#utility.yul\":5352:5382   */\n      mstore\n      shl(0x82, 0x14185d5cd8589b194e881c185d5cd959)\n        /* \"#utility.yul\":5398:5416   */\n      0x44\n      dup3\n      add\n        /* \"#utility.yul\":5391:5437   */\n      mstore\n        /* \"#utility.yul\":5454:5472   */\n      0x64\n      add\n        /* \"@openzeppelin/contracts/security/Pausable.sol\":1403:1441  require(!paused(), \"Pausable: paused\") */\n      tag_93\n        /* \"#utility.yul\":5138:5478   */\n      jump\n        /* \"@openzeppelin/contracts/security/Pausable.sol\":1403:1441  require(!paused(), \"Pausable: paused\") */\n    tag_181:\n        /* \"staking.sol\":1454:1467  acceptedToken */\n      sload(0x01)\n        /* \"staking.sol\":1454:1516  acceptedToken.transferFrom(_msgSender, address(this), _amount) */\n      mload(0x40)\n      shl(0xe0, 0x23b872dd)\n      dup2\n      mstore\n        /* \"staking.sol\":1426:1436  msg.sender */\n      caller\n        /* \"staking.sol\":1454:1516  acceptedToken.transferFrom(_msgSender, address(this), _amount) */\n      0x04\n      dup3\n      add\n        /* \"#utility.yul\":2488:2522   */\n      dup2\n      swap1\n      mstore\n        /* \"staking.sol\":1501:1505  this */\n      address\n        /* \"#utility.yul\":2538:2556   */\n      0x24\n      dup4\n      add\n        /* \"#utility.yul\":2531:2574   */\n      mstore\n        /* \"#utility.yul\":2590:2608   */\n      0x44\n      dup3\n      add\n        /* \"#utility.yul\":2583:2617   */\n      dup6\n      swap1\n      mstore\n        /* \"staking.sol\":1426:1436  msg.sender */\n      swap2\n      sub(shl(0xa0, 0x01), 0x01)\n        /* \"staking.sol\":1454:1467  acceptedToken */\n      and\n      swap1\n        /* \"staking.sol\":1454:1480  acceptedToken.transferFrom */\n      0x23b872dd\n      swap1\n        /* \"#utility.yul\":2423:2441   */\n      0x64\n      add\n        /* \"staking.sol\":1454:1516  acceptedToken.transferFrom(_msgSender, address(this), _amount) */\n      0x20\n      mload(0x40)\n      dup1\n      dup4\n      sub\n      dup2\n      0x00\n      dup8\n      dup1\n      extcodesize\n      iszero\n      dup1\n      iszero\n      tag_187\n      jumpi\n      0x00\n      dup1\n      revert\n    tag_187:\n      pop\n      gas\n      call\n      iszero\n      dup1\n      iszero\n      tag_189\n      jumpi\n      returndatasize\n      0x00\n      dup1\n      returndatacopy\n      revert(0x00, returndatasize)\n    tag_189:\n      pop\n      pop\n      pop\n      pop\n      mload(0x40)\n      returndatasize\n      not(0x1f)\n      0x1f\n      dup3\n      add\n      and\n      dup3\n      add\n      dup1\n      0x40\n      mstore\n      pop\n      dup2\n      add\n      swap1\n      tag_190\n      swap2\n      swap1\n      tag_109\n      jump\t// in\n    tag_190:\n      pop\n      sub(shl(0xa0, 0x01), 0x01)\n        /* \"staking.sol\":1527:1555  userLevelDeposit[_msgSender] */\n      dup2\n      and\n      0x00\n      swap1\n      dup2\n      mstore\n        /* \"staking.sol\":1527:1543  userLevelDeposit */\n      0x02\n        /* \"staking.sol\":1527:1555  userLevelDeposit[_msgSender] */\n      0x20\n      swap1\n      dup2\n      mstore\n      0x40\n      dup1\n      dup4\n      keccak256\n        /* \"staking.sol\":1527:1563  userLevelDeposit[_msgSender][_level] */\n      dup6\n      dup5\n      mstore\n      swap1\n      swap2\n      mstore\n      dup2\n      keccak256\n        /* \"staking.sol\":1527:1582  userLevelDeposit[_msgSender][_level].balance += _amount */\n      dup1\n      sload\n        /* \"staking.sol\":1575:1582  _amount */\n      dup6\n      swap3\n        /* \"staking.sol\":1527:1555  userLevelDeposit[_msgSender] */\n      swap1\n        /* \"staking.sol\":1527:1582  userLevelDeposit[_msgSender][_level].balance += _amount */\n      tag_191\n      swap1\n        /* \"staking.sol\":1575:1582  _amount */\n      dup5\n      swap1\n        /* \"staking.sol\":1527:1582  userLevelDeposit[_msgSender][_level].balance += _amount */\n      tag_102\n      jump\t// in\n    tag_191:\n      swap1\n      swap2\n      sstore\n      pop\n      pop\n      sub(shl(0xa0, 0x01), 0x01)\n        /* \"staking.sol\":1592:1620  userLevelDeposit[_msgSender] */\n      dup2\n      and\n      0x00\n      swap1\n      dup2\n      mstore\n        /* \"staking.sol\":1592:1608  userLevelDeposit */\n      0x02\n        /* \"staking.sol\":1592:1620  userLevelDeposit[_msgSender] */\n      0x20\n      swap1\n      dup2\n      mstore\n      0x40\n      dup1\n      dup4\n      keccak256\n        /* \"staking.sol\":1592:1628  userLevelDeposit[_msgSender][_level] */\n      dup6\n      dup5\n      mstore\n      swap1\n      swap2\n      mstore\n      dup2\n      keccak256\n        /* \"staking.sol\":1592:1636  userLevelDeposit[_msgSender][_level].started */\n      0x01\n      add\n        /* \"staking.sol\":1592:1655  userLevelDeposit[_msgSender][_level].started += block.timestamp */\n      dup1\n      sload\n        /* \"staking.sol\":1640:1655  block.timestamp */\n      timestamp\n      swap3\n        /* \"staking.sol\":1592:1620  userLevelDeposit[_msgSender] */\n      swap1\n        /* \"staking.sol\":1592:1655  userLevelDeposit[_msgSender][_level].started += block.timestamp */\n      tag_192\n      swap1\n        /* \"staking.sol\":1640:1655  block.timestamp */\n      dup5\n      swap1\n        /* \"staking.sol\":1592:1655  userLevelDeposit[_msgSender][_level].started += block.timestamp */\n      tag_102\n      jump\t// in\n    tag_192:\n      swap1\n      swap2\n      sstore\n      pop\n      pop\n        /* \"staking.sol\":1733:1750  levelInfo[_level] */\n      0x00\n      dup3\n      dup2\n      mstore\n        /* \"staking.sol\":1733:1742  levelInfo */\n      0x03\n        /* \"staking.sol\":1733:1750  levelInfo[_level] */\n      0x20\n      mstore\n      0x40\n      swap1\n      keccak256\n        /* \"staking.sol\":1733:1761  levelInfo[_level].lockPeriod */\n      0x01\n      add\n      sload\n        /* \"staking.sol\":1715:1761  block.timestamp + levelInfo[_level].lockPeriod */\n      tag_193\n      swap1\n        /* \"staking.sol\":1715:1730  block.timestamp */\n      timestamp\n        /* \"staking.sol\":1715:1761  block.timestamp + levelInfo[_level].lockPeriod */\n      tag_102\n      jump\t// in\n    tag_193:\n      sub(shl(0xa0, 0x01), 0x01)\n        /* \"staking.sol\":1665:1693  userLevelDeposit[_msgSender] */\n      dup3\n      and\n      0x00\n      swap1\n      dup2\n      mstore\n        /* \"staking.sol\":1665:1681  userLevelDeposit */\n      0x02\n        /* \"staking.sol\":1665:1693  userLevelDeposit[_msgSender] */\n      0x20\n      dup2\n      dup2\n      mstore\n      0x40\n      dup1\n      dup5\n      keccak256\n        /* \"staking.sol\":1665:1701  userLevelDeposit[_msgSender][_level] */\n      dup8\n      dup6\n      mstore\n      swap1\n      swap2\n      mstore\n      swap2\n      dup3\n      swap1\n      keccak256\n        /* \"staking.sol\":1665:1712  userLevelDeposit[_msgSender][_level].unlockTime */\n      add\n        /* \"staking.sol\":1665:1761  userLevelDeposit[_msgSender][_level].unlockTime = block.timestamp + levelInfo[_level].lockPeriod */\n      swap2\n      swap1\n      swap2\n      sstore\n        /* \"staking.sol\":1777:1814  Deposit (_msgSender, _level, _amount) */\n      mload\n      0x90890809c654f11d6e72a28fa60149770a0d11ec6c92319d6ceb2bb0a4ea1a15\n      swap1\n      tag_110\n      swap1\n        /* \"staking.sol\":1682:1692  _msgSender */\n      dup4\n      swap1\n        /* \"staking.sol\":1694:1700  _level */\n      dup6\n      swap1\n        /* \"staking.sol\":1806:1813  _amount */\n      dup8\n      swap1\n        /* \"staking.sol\":1777:1814  Deposit (_msgSender, _level, _amount) */\n      tag_137\n      jump\t// in\n        /* \"@openzeppelin/contracts/access/Ownable.sol\":1918:2116  function transferOwnership(address newOwner) public virtual onlyOwner {... */\n    tag_87:\n        /* \"@openzeppelin/contracts/access/Ownable.sol\":1082:1089  address */\n      0x00\n        /* \"@openzeppelin/contracts/access/Ownable.sol\":1108:1114  _owner */\n      sload\n      sub(shl(0xa0, 0x01), 0x01)\n      and\n        /* \"@openzeppelin/contracts/utils/Context.sol\":719:729  msg.sender */\n      caller\n        /* \"@openzeppelin/contracts/access/Ownable.sol\":1248:1271  owner() == _msgSender() */\n      eq\n        /* \"@openzeppelin/contracts/access/Ownable.sol\":1240:1308  require(owner() == _msgSender(), \"Ownable: caller is not the owner\") */\n      tag_203\n      jumpi\n      mload(0x40)\n      shl(0xe5, 0x461bcd)\n      dup2\n      mstore\n      0x04\n      add\n      tag_93\n      swap1\n      tag_94\n      jump\t// in\n    tag_203:\n      sub(shl(0xa0, 0x01), 0x01)\n        /* \"@openzeppelin/contracts/access/Ownable.sol\":2006:2028  newOwner != address(0) */\n      dup2\n      and\n        /* \"@openzeppelin/contracts/access/Ownable.sol\":1998:2071  require(newOwner != address(0), \"Ownable: new owner is the zero address\") */\n      tag_206\n      jumpi\n      mload(0x40)\n      shl(0xe5, 0x461bcd)\n      dup2\n      mstore\n        /* \"#utility.yul\":4580:4582   */\n      0x20\n        /* \"@openzeppelin/contracts/access/Ownable.sol\":1998:2071  require(newOwner != address(0), \"Ownable: new owner is the zero address\") */\n      0x04\n      dup3\n      add\n        /* \"#utility.yul\":4562:4583   */\n      mstore\n        /* \"#utility.yul\":4619:4621   */\n      0x26\n        /* \"#utility.yul\":4599:4617   */\n      0x24\n      dup3\n      add\n        /* \"#utility.yul\":4592:4622   */\n      mstore\n        /* \"#utility.yul\":4658:4692   */\n      0x4f776e61626c653a206e6577206f776e657220697320746865207a65726f2061\n        /* \"#utility.yul\":4638:4656   */\n      0x44\n      dup3\n      add\n        /* \"#utility.yul\":4631:4693   */\n      mstore\n      shl(0xd0, 0x646472657373)\n        /* \"#utility.yul\":4709:4727   */\n      0x64\n      dup3\n      add\n        /* \"#utility.yul\":4702:4738   */\n      mstore\n        /* \"#utility.yul\":4755:4774   */\n      0x84\n      add\n        /* \"@openzeppelin/contracts/access/Ownable.sol\":1998:2071  require(newOwner != address(0), \"Ownable: new owner is the zero address\") */\n      tag_93\n        /* \"#utility.yul\":4378:4780   */\n      jump\n        /* \"@openzeppelin/contracts/access/Ownable.sol\":1998:2071  require(newOwner != address(0), \"Ownable: new owner is the zero address\") */\n    tag_206:\n        /* \"@openzeppelin/contracts/access/Ownable.sol\":2081:2109  _transferOwnership(newOwner) */\n      tag_209\n        /* \"@openzeppelin/contracts/access/Ownable.sol\":2100:2108  newOwner */\n      dup2\n        /* \"@openzeppelin/contracts/access/Ownable.sol\":2081:2099  _transferOwnership */\n      tag_154\n        /* \"@openzeppelin/contracts/access/Ownable.sol\":2081:2109  _transferOwnership(newOwner) */\n      jump\t// in\n    tag_209:\n        /* \"@openzeppelin/contracts/access/Ownable.sol\":1918:2116  function transferOwnership(address newOwner) public virtual onlyOwner {... */\n      pop\n      jump\t// out\n        /* \"@openzeppelin/contracts/security/Pausable.sol\":2110:2227  function _unpause() internal virtual whenPaused {... */\n    tag_119:\n        /* \"@openzeppelin/contracts/security/Pausable.sol\":1145:1149  bool */\n      0x00\n        /* \"@openzeppelin/contracts/security/Pausable.sol\":1168:1175  _paused */\n      sload\n      shl(0xa0, 0x01)\n      swap1\n      div\n      0xff\n      and\n        /* \"@openzeppelin/contracts/security/Pausable.sol\":1669:1710  require(paused(), \"Pausable: not paused\") */\n      tag_213\n      jumpi\n      mload(0x40)\n      shl(0xe5, 0x461bcd)\n      dup2\n      mstore\n        /* \"#utility.yul\":4231:4233   */\n      0x20\n        /* \"@openzeppelin/contracts/security/Pausable.sol\":1669:1710  require(paused(), \"Pausable: not paused\") */\n      0x04\n      dup3\n      add\n        /* \"#utility.yul\":4213:4234   */\n      mstore\n        /* \"#utility.yul\":4270:4272   */\n      0x14\n        /* \"#utility.yul\":4250:4268   */\n      0x24\n      dup3\n      add\n        /* \"#utility.yul\":4243:4273   */\n      mstore\n      shl(0x62, 0x14185d5cd8589b194e881b9bdd081c185d5cd959)\n        /* \"#utility.yul\":4289:4307   */\n      0x44\n      dup3\n      add\n        /* \"#utility.yul\":4282:4332   */\n      mstore\n        /* \"#utility.yul\":4349:4367   */\n      0x64\n      add\n        /* \"@openzeppelin/contracts/security/Pausable.sol\":1669:1710  require(paused(), \"Pausable: not paused\") */\n      tag_93\n        /* \"#utility.yul\":4029:4373   */\n      jump\n        /* \"@openzeppelin/contracts/security/Pausable.sol\":1669:1710  require(paused(), \"Pausable: not paused\") */\n    tag_213:\n        /* \"@openzeppelin/contracts/security/Pausable.sol\":2178:2183  false */\n      0x00\n        /* \"@openzeppelin/contracts/security/Pausable.sol\":2168:2183  _paused = false */\n      dup1\n      sload\n      not(shl(0xa0, 0xff))\n      and\n      swap1\n      sstore\n        /* \"@openzeppelin/contracts/security/Pausable.sol\":2198:2220  Unpaused(_msgSender()) */\n      0x5db9ee0a495bf2e6ff9c91a7834c1ba4fdd244a5e8aa4e537bd38aeae4b073aa\n        /* \"@openzeppelin/contracts/utils/Context.sol\":719:729  msg.sender */\n      caller\n        /* \"@openzeppelin/contracts/security/Pausable.sol\":2207:2219  _msgSender() */\n    tag_217:\n        /* \"@openzeppelin/contracts/security/Pausable.sol\":2198:2220  Unpaused(_msgSender()) */\n      mload(0x40)\n      sub(shl(0xa0, 0x01), 0x01)\n        /* \"#utility.yul\":2204:2236   */\n      swap1\n      swap2\n      and\n        /* \"#utility.yul\":2186:2237   */\n      dup2\n      mstore\n        /* \"#utility.yul\":2174:2176   */\n      0x20\n        /* \"#utility.yul\":2159:2177   */\n      add\n        /* \"@openzeppelin/contracts/security/Pausable.sol\":2198:2220  Unpaused(_msgSender()) */\n      mload(0x40)\n      dup1\n      swap2\n      sub\n      swap1\n      log1\n        /* \"@openzeppelin/contracts/security/Pausable.sol\":2110:2227  function _unpause() internal virtual whenPaused {... */\n      jump\t// out\n        /* \"@openzeppelin/contracts/access/Ownable.sol\":2270:2457  function _transferOwnership(address newOwner) internal virtual {... */\n    tag_154:\n        /* \"@openzeppelin/contracts/access/Ownable.sol\":2343:2359  address oldOwner */\n      0x00\n        /* \"@openzeppelin/contracts/access/Ownable.sol\":2362:2368  _owner */\n      dup1\n      sload\n      sub(shl(0xa0, 0x01), 0x01)\n        /* \"@openzeppelin/contracts/access/Ownable.sol\":2378:2395  _owner = newOwner */\n      dup4\n      dup2\n      and\n      not(sub(shl(0xa0, 0x01), 0x01))\n      dup4\n      and\n      dup2\n      or\n      dup5\n      sstore\n        /* \"@openzeppelin/contracts/access/Ownable.sol\":2410:2450  OwnershipTransferred(oldOwner, newOwner) */\n      mload(0x40)\n        /* \"@openzeppelin/contracts/access/Ownable.sol\":2362:2368  _owner */\n      swap2\n      swap1\n      swap3\n      and\n      swap3\n      dup4\n      swap2\n        /* \"@openzeppelin/contracts/access/Ownable.sol\":2410:2450  OwnershipTransferred(oldOwner, newOwner) */\n      0x8be0079c531659141344cd1fd0a4f28419497f9722a3daafe3b4186f6b6457e0\n      swap2\n        /* \"@openzeppelin/contracts/access/Ownable.sol\":2343:2359  address oldOwner */\n      swap1\n        /* \"@openzeppelin/contracts/access/Ownable.sol\":2410:2450  OwnershipTransferred(oldOwner, newOwner) */\n      log3\n        /* \"@openzeppelin/contracts/access/Ownable.sol\":2333:2457  {... */\n      pop\n        /* \"@openzeppelin/contracts/access/Ownable.sol\":2270:2457  function _transferOwnership(address newOwner) internal virtual {... */\n      pop\n      jump\t// out\n        /* \"@openzeppelin/contracts/security/Pausable.sol\":1863:1978  function _pause() internal virtual whenNotPaused {... */\n    tag_162:\n        /* \"@openzeppelin/contracts/security/Pausable.sol\":1145:1149  bool */\n      0x00\n        /* \"@openzeppelin/contracts/security/Pausable.sol\":1168:1175  _paused */\n      sload\n      shl(0xa0, 0x01)\n      swap1\n      div\n      0xff\n      and\n        /* \"@openzeppelin/contracts/security/Pausable.sol\":1411:1420  !paused() */\n      iszero\n        /* \"@openzeppelin/contracts/security/Pausable.sol\":1403:1441  require(!paused(), \"Pausable: paused\") */\n      tag_222\n      jumpi\n      mload(0x40)\n      shl(0xe5, 0x461bcd)\n      dup2\n      mstore\n        /* \"#utility.yul\":5340:5342   */\n      0x20\n        /* \"@openzeppelin/contracts/security/Pausable.sol\":1403:1441  require(!paused(), \"Pausable: paused\") */\n      0x04\n      dup3\n      add\n        /* \"#utility.yul\":5322:5343   */\n      mstore\n        /* \"#utility.yul\":5379:5381   */\n      0x10\n        /* \"#utility.yul\":5359:5377   */\n      0x24\n      dup3\n      add\n        /* \"#utility.yul\":5352:5382   */\n      mstore\n      shl(0x82, 0x14185d5cd8589b194e881c185d5cd959)\n        /* \"#utility.yul\":5398:5416   */\n      0x44\n      dup3\n      add\n        /* \"#utility.yul\":5391:5437   */\n      mstore\n        /* \"#utility.yul\":5454:5472   */\n      0x64\n      add\n        /* \"@openzeppelin/contracts/security/Pausable.sol\":1403:1441  require(!paused(), \"Pausable: paused\") */\n      tag_93\n        /* \"#utility.yul\":5138:5478   */\n      jump\n        /* \"@openzeppelin/contracts/security/Pausable.sol\":1403:1441  require(!paused(), \"Pausable: paused\") */\n    tag_222:\n        /* \"@openzeppelin/contracts/security/Pausable.sol\":1922:1929  _paused */\n      0x00\n        /* \"@openzeppelin/contracts/security/Pausable.sol\":1922:1936  _paused = true */\n      dup1\n      sload\n      not(shl(0xa0, 0xff))\n      and\n      shl(0xa0, 0x01)\n      or\n      swap1\n      sstore\n        /* \"@openzeppelin/contracts/security/Pausable.sol\":1951:1971  Paused(_msgSender()) */\n      0x62e78cea01bee320cd4e420270b5ea74000d11b0c9f74754ebdbfc544b05a258\n        /* \"@openzeppelin/contracts/security/Pausable.sol\":1958:1970  _msgSender() */\n      tag_217\n        /* \"@openzeppelin/contracts/utils/Context.sol\":719:729  msg.sender */\n      caller\n      swap1\n        /* \"@openzeppelin/contracts/utils/Context.sol\":640:736  function _msgSender() internal view virtual returns (address) {... */\n      jump\n        /* \"#utility.yul\":14:187   */\n    tag_228:\n        /* \"#utility.yul\":82:102   */\n      dup1\n      calldataload\n      sub(shl(0xa0, 0x01), 0x01)\n        /* \"#utility.yul\":131:162   */\n      dup2\n      and\n        /* \"#utility.yul\":121:163   */\n      dup2\n      eq\n        /* \"#utility.yul\":111:181   */\n      tag_230\n      jumpi\n        /* \"#utility.yul\":177:178   */\n      0x00\n        /* \"#utility.yul\":174:175   */\n      dup1\n        /* \"#utility.yul\":167:179   */\n      revert\n        /* \"#utility.yul\":111:181   */\n    tag_230:\n        /* \"#utility.yul\":14:187   */\n      swap2\n      swap1\n      pop\n      jump\t// out\n        /* \"#utility.yul\":192:378   */\n    tag_53:\n        /* \"#utility.yul\":251:257   */\n      0x00\n        /* \"#utility.yul\":304:306   */\n      0x20\n        /* \"#utility.yul\":292:301   */\n      dup3\n        /* \"#utility.yul\":283:290   */\n      dup5\n        /* \"#utility.yul\":279:302   */\n      sub\n        /* \"#utility.yul\":275:307   */\n      slt\n        /* \"#utility.yul\":272:324   */\n      iszero\n      tag_232\n      jumpi\n        /* \"#utility.yul\":320:321   */\n      0x00\n        /* \"#utility.yul\":317:318   */\n      dup1\n        /* \"#utility.yul\":310:322   */\n      revert\n        /* \"#utility.yul\":272:324   */\n    tag_232:\n        /* \"#utility.yul\":343:372   */\n      tag_233\n        /* \"#utility.yul\":362:371   */\n      dup3\n        /* \"#utility.yul\":343:372   */\n      tag_228\n      jump\t// in\n    tag_233:\n        /* \"#utility.yul\":333:372   */\n      swap4\n        /* \"#utility.yul\":192:378   */\n      swap3\n      pop\n      pop\n      pop\n      jump\t// out\n        /* \"#utility.yul\":383:637   */\n    tag_25:\n        /* \"#utility.yul\":451:457   */\n      0x00\n        /* \"#utility.yul\":459:465   */\n      dup1\n        /* \"#utility.yul\":512:514   */\n      0x40\n        /* \"#utility.yul\":500:509   */\n      dup4\n        /* \"#utility.yul\":491:498   */\n      dup6\n        /* \"#utility.yul\":487:510   */\n      sub\n        /* \"#utility.yul\":483:515   */\n      slt\n        /* \"#utility.yul\":480:532   */\n      iszero\n      tag_235\n      jumpi\n        /* \"#utility.yul\":528:529   */\n      0x00\n        /* \"#utility.yul\":525:526   */\n      dup1\n        /* \"#utility.yul\":518:530   */\n      revert\n        /* \"#utility.yul\":480:532   */\n    tag_235:\n        /* \"#utility.yul\":551:580   */\n      tag_236\n        /* \"#utility.yul\":570:579   */\n      dup4\n        /* \"#utility.yul\":551:580   */\n      tag_228\n      jump\t// in\n    tag_236:\n        /* \"#utility.yul\":541:580   */\n      swap5\n        /* \"#utility.yul\":627:629   */\n      0x20\n        /* \"#utility.yul\":612:630   */\n      swap4\n      swap1\n      swap4\n      add\n        /* \"#utility.yul\":599:631   */\n      calldataload\n      swap4\n      pop\n      pop\n      pop\n        /* \"#utility.yul\":383:637   */\n      jump\t// out\n        /* \"#utility.yul\":642:919   */\n    tag_109:\n        /* \"#utility.yul\":709:715   */\n      0x00\n        /* \"#utility.yul\":762:764   */\n      0x20\n        /* \"#utility.yul\":750:759   */\n      dup3\n        /* \"#utility.yul\":741:748   */\n      dup5\n        /* \"#utility.yul\":737:760   */\n      sub\n        /* \"#utility.yul\":733:765   */\n      slt\n        /* \"#utility.yul\":730:782   */\n      iszero\n      tag_238\n      jumpi\n        /* \"#utility.yul\":778:779   */\n      0x00\n        /* \"#utility.yul\":775:776   */\n      dup1\n        /* \"#utility.yul\":768:780   */\n      revert\n        /* \"#utility.yul\":730:782   */\n    tag_238:\n        /* \"#utility.yul\":810:819   */\n      dup2\n        /* \"#utility.yul\":804:820   */\n      mload\n        /* \"#utility.yul\":863:868   */\n      dup1\n        /* \"#utility.yul\":856:869   */\n      iszero\n        /* \"#utility.yul\":849:870   */\n      iszero\n        /* \"#utility.yul\":842:847   */\n      dup2\n        /* \"#utility.yul\":839:871   */\n      eq\n        /* \"#utility.yul\":829:889   */\n      tag_233\n      jumpi\n        /* \"#utility.yul\":885:886   */\n      0x00\n        /* \"#utility.yul\":882:883   */\n      dup1\n        /* \"#utility.yul\":875:887   */\n      revert\n        /* \"#utility.yul\":924:1104   */\n    tag_35:\n        /* \"#utility.yul\":983:989   */\n      0x00\n        /* \"#utility.yul\":1036:1038   */\n      0x20\n        /* \"#utility.yul\":1024:1033   */\n      dup3\n        /* \"#utility.yul\":1015:1022   */\n      dup5\n        /* \"#utility.yul\":1011:1034   */\n      sub\n        /* \"#utility.yul\":1007:1039   */\n      slt\n        /* \"#utility.yul\":1004:1056   */\n      iszero\n      tag_241\n      jumpi\n        /* \"#utility.yul\":1052:1053   */\n      0x00\n        /* \"#utility.yul\":1049:1050   */\n      dup1\n        /* \"#utility.yul\":1042:1054   */\n      revert\n        /* \"#utility.yul\":1004:1056   */\n    tag_241:\n      pop\n        /* \"#utility.yul\":1075:1098   */\n      calldataload\n      swap2\n        /* \"#utility.yul\":924:1104   */\n      swap1\n      pop\n      jump\t// out\n        /* \"#utility.yul\":1109:1357   */\n    tag_41:\n        /* \"#utility.yul\":1177:1183   */\n      0x00\n        /* \"#utility.yul\":1185:1191   */\n      dup1\n        /* \"#utility.yul\":1238:1240   */\n      0x40\n        /* \"#utility.yul\":1226:1235   */\n      dup4\n        /* \"#utility.yul\":1217:1224   */\n      dup6\n        /* \"#utility.yul\":1213:1236   */\n      sub\n        /* \"#utility.yul\":1209:1241   */\n      slt\n        /* \"#utility.yul\":1206:1258   */\n      iszero\n      tag_243\n      jumpi\n        /* \"#utility.yul\":1254:1255   */\n      0x00\n        /* \"#utility.yul\":1251:1252   */\n      dup1\n        /* \"#utility.yul\":1244:1256   */\n      revert\n        /* \"#utility.yul\":1206:1258   */\n    tag_243:\n      pop\n      pop\n        /* \"#utility.yul\":1277:1300   */\n      dup1\n      calldataload\n      swap3\n        /* \"#utility.yul\":1347:1349   */\n      0x20\n        /* \"#utility.yul\":1332:1350   */\n      swap1\n      swap2\n      add\n        /* \"#utility.yul\":1319:1351   */\n      calldataload\n      swap2\n      pop\n        /* \"#utility.yul\":1109:1357   */\n      jump\t// out\n        /* \"#utility.yul\":1362:1678   */\n    tag_31:\n        /* \"#utility.yul\":1439:1445   */\n      0x00\n        /* \"#utility.yul\":1447:1453   */\n      dup1\n        /* \"#utility.yul\":1455:1461   */\n      0x00\n        /* \"#utility.yul\":1508:1510   */\n      0x60\n        /* \"#utility.yul\":1496:1505   */\n      dup5\n        /* \"#utility.yul\":1487:1494   */\n      dup7\n        /* \"#utility.yul\":1483:1506   */\n      sub\n        /* \"#utility.yul\":1479:1511   */\n      slt\n        /* \"#utility.yul\":1476:1528   */\n      iszero\n      tag_245\n      jumpi\n        /* \"#utility.yul\":1524:1525   */\n      0x00\n        /* \"#utility.yul\":1521:1522   */\n      dup1\n        /* \"#utility.yul\":1514:1526   */\n      revert\n        /* \"#utility.yul\":1476:1528   */\n    tag_245:\n      pop\n      pop\n        /* \"#utility.yul\":1547:1570   */\n      dup2\n      calldataload\n      swap4\n        /* \"#utility.yul\":1617:1619   */\n      0x20\n        /* \"#utility.yul\":1602:1620   */\n      dup4\n      add\n        /* \"#utility.yul\":1589:1621   */\n      calldataload\n      swap4\n      pop\n        /* \"#utility.yul\":1668:1670   */\n      0x40\n        /* \"#utility.yul\":1653:1671   */\n      swap1\n      swap3\n      add\n        /* \"#utility.yul\":1640:1672   */\n      calldataload\n      swap2\n        /* \"#utility.yul\":1362:1678   */\n      swap1\n      pop\n      jump\t// out\n        /* \"#utility.yul\":2628:2981   */\n    tag_137:\n      sub(shl(0xa0, 0x01), 0x01)\n        /* \"#utility.yul\":2856:2888   */\n      swap4\n      swap1\n      swap4\n      and\n        /* \"#utility.yul\":2838:2889   */\n      dup4\n      mstore\n        /* \"#utility.yul\":2920:2922   */\n      0x20\n        /* \"#utility.yul\":2905:2923   */\n      dup4\n      add\n        /* \"#utility.yul\":2898:2932   */\n      swap2\n      swap1\n      swap2\n      mstore\n        /* \"#utility.yul\":2963:2965   */\n      0x40\n        /* \"#utility.yul\":2948:2966   */\n      dup3\n      add\n        /* \"#utility.yul\":2941:2975   */\n      mstore\n        /* \"#utility.yul\":2826:2828   */\n      0x60\n        /* \"#utility.yul\":2811:2829   */\n      add\n      swap1\n        /* \"#utility.yul\":2628:2981   */\n      jump\t// out\n        /* \"#utility.yul\":5483:5839   */\n    tag_94:\n        /* \"#utility.yul\":5685:5687   */\n      0x20\n        /* \"#utility.yul\":5667:5688   */\n      dup1\n      dup3\n      mstore\n        /* \"#utility.yul\":5704:5722   */\n      dup2\n      dup2\n      add\n        /* \"#utility.yul\":5697:5727   */\n      mstore\n        /* \"#utility.yul\":5763:5797   */\n      0x4f776e61626c653a2063616c6c6572206973206e6f7420746865206f776e6572\n        /* \"#utility.yul\":5758:5760   */\n      0x40\n        /* \"#utility.yul\":5743:5761   */\n      dup3\n      add\n        /* \"#utility.yul\":5736:5798   */\n      mstore\n        /* \"#utility.yul\":5830:5832   */\n      0x60\n        /* \"#utility.yul\":5815:5833   */\n      add\n      swap1\n        /* \"#utility.yul\":5483:5839   */\n      jump\t// out\n        /* \"#utility.yul\":8521:8649   */\n    tag_102:\n        /* \"#utility.yul\":8561:8564   */\n      0x00\n        /* \"#utility.yul\":8592:8593   */\n      dup3\n        /* \"#utility.yul\":8588:8594   */\n      not\n        /* \"#utility.yul\":8585:8586   */\n      dup3\n        /* \"#utility.yul\":8582:8595   */\n      gt\n        /* \"#utility.yul\":8579:8618   */\n      iszero\n      tag_277\n      jumpi\n        /* \"#utility.yul\":8598:8616   */\n      tag_277\n      tag_278\n      jump\t// in\n    tag_277:\n      pop\n        /* \"#utility.yul\":8634:8643   */\n      add\n      swap1\n        /* \"#utility.yul\":8521:8649   */\n      jump\t// out\n        /* \"#utility.yul\":8654:8871   */\n    tag_176:\n        /* \"#utility.yul\":8694:8695   */\n      0x00\n        /* \"#utility.yul\":8720:8721   */\n      dup3\n        /* \"#utility.yul\":8710:8842   */\n      tag_280\n      jumpi\n        /* \"#utility.yul\":8764:8774   */\n      0x4e487b71\n        /* \"#utility.yul\":8759:8762   */\n      0xe0\n        /* \"#utility.yul\":8755:8775   */\n      shl\n        /* \"#utility.yul\":8752:8753   */\n      0x00\n        /* \"#utility.yul\":8745:8776   */\n      mstore\n        /* \"#utility.yul\":8799:8803   */\n      0x12\n        /* \"#utility.yul\":8796:8797   */\n      0x04\n        /* \"#utility.yul\":8789:8804   */\n      mstore\n        /* \"#utility.yul\":8827:8831   */\n      0x24\n        /* \"#utility.yul\":8824:8825   */\n      0x00\n        /* \"#utility.yul\":8817:8832   */\n      revert\n        /* \"#utility.yul\":8710:8842   */\n    tag_280:\n      pop\n        /* \"#utility.yul\":8856:8865   */\n      div\n      swap1\n        /* \"#utility.yul\":8654:8871   */\n      jump\t// out\n        /* \"#utility.yul\":8876:9044   */\n    tag_174:\n        /* \"#utility.yul\":8916:8923   */\n      0x00\n        /* \"#utility.yul\":8982:8983   */\n      dup2\n        /* \"#utility.yul\":8978:8979   */\n      0x00\n        /* \"#utility.yul\":8974:8980   */\n      not\n        /* \"#utility.yul\":8970:8984   */\n      div\n        /* \"#utility.yul\":8967:8968   */\n      dup4\n        /* \"#utility.yul\":8964:8985   */\n      gt\n        /* \"#utility.yul\":8959:8960   */\n      dup3\n        /* \"#utility.yul\":8952:8961   */\n      iszero\n        /* \"#utility.yul\":8945:8962   */\n      iszero\n        /* \"#utility.yul\":8941:8986   */\n      and\n        /* \"#utility.yul\":8938:9009   */\n      iszero\n      tag_283\n      jumpi\n        /* \"#utility.yul\":8989:9007   */\n      tag_283\n      tag_278\n      jump\t// in\n    tag_283:\n      pop\n        /* \"#utility.yul\":9029:9038   */\n      mul\n      swap1\n        /* \"#utility.yul\":8876:9044   */\n      jump\t// out\n        /* \"#utility.yul\":9049:9174   */\n    tag_129:\n        /* \"#utility.yul\":9089:9093   */\n      0x00\n        /* \"#utility.yul\":9117:9118   */\n      dup3\n        /* \"#utility.yul\":9114:9115   */\n      dup3\n        /* \"#utility.yul\":9111:9119   */\n      lt\n        /* \"#utility.yul\":9108:9142   */\n      iszero\n      tag_286\n      jumpi\n        /* \"#utility.yul\":9122:9140   */\n      tag_286\n      tag_278\n      jump\t// in\n    tag_286:\n      pop\n        /* \"#utility.yul\":9159:9168   */\n      sub\n      swap1\n        /* \"#utility.yul\":9049:9174   */\n      jump\t// out\n        /* \"#utility.yul\":9179:9306   */\n    tag_278:\n        /* \"#utility.yul\":9240:9250   */\n      0x4e487b71\n        /* \"#utility.yul\":9235:9238   */\n      0xe0\n        /* \"#utility.yul\":9231:9251   */\n      shl\n        /* \"#utility.yul\":9228:9229   */\n      0x00\n        /* \"#utility.yul\":9221:9252   */\n      mstore\n        /* \"#utility.yul\":9271:9275   */\n      0x11\n        /* \"#utility.yul\":9268:9269   */\n      0x04\n        /* \"#utility.yul\":9261:9276   */\n      mstore\n        /* \"#utility.yul\":9295:9299   */\n      0x24\n        /* \"#utility.yul\":9292:9293   */\n      0x00\n        /* \"#utility.yul\":9285:9300   */\n      revert\n\n    auxdata: 0xa26469706673582212204b9103578edc34f383eaa2216bde5aa11ac540cfb2c3bb22367c1be6cd99ad6764736f6c63430008070033\n}\n",
				"bytecode": {
					"linkReferences": {},
					"object": "608060405234801561001057600080fd5b5060405161129a38038061129a83398101604081905261002f916100ba565b6100383361006a565b6000805460ff60a01b19169055600180546001600160a01b0319166001600160a01b03929092169190911790556100ea565b600080546001600160a01b038381166001600160a01b0319831681178455604051919092169283917f8be0079c531659141344cd1fd0a4f28419497f9722a3daafe3b4186f6b6457e09190a35050565b6000602082840312156100cc57600080fd5b81516001600160a01b03811681146100e357600080fd5b9392505050565b6111a1806100f96000396000f3fe608060405234801561001057600080fd5b506004361061010b5760003560e01c8063715018a6116100a2578063beb8314c11610071578063beb8314c146102a7578063e2bbb158146102c8578063e788cee5146102db578063edf501ad14610445578063f2fde38b1461048157600080fd5b8063715018a6146102735780638456cb591461027b5780638da5cb5b14610283578063aa5f7e261461029457600080fd5b8063441a3e70116100de578063441a3e7014610196578063451c3d80146101a95780635c975abb146101d45780636386c1c7146101f157600080fd5b8063259ee7521461011057806332e9620314610166578063379607f51461017b5780633f4ba83a1461018e575b600080fd5b61014661011e366004610fdc565b6002602081815260009384526040808520909152918352912080546001820154919092015483565b604080519384526020840192909252908201526060015b60405180910390f35b610179610174366004611063565b610494565b005b610179610189366004611028565b6104df565b61017961064d565b6101796101a4366004611041565b610681565b6001546101bc906001600160a01b031681565b6040516001600160a01b03909116815260200161015d565b600054600160a01b900460ff16604051901515815260200161015d565b6102046101ff366004610fba565b61087b565b6040805187518152602080890151818301529782015181830152865160608201528787015160808201529581015160a0870152845160c08701529584015160e086015292909401516101008401526101208301526101408201929092526101608101919091526101800161015d565b6101796109ad565b6101796109e1565b6000546001600160a01b03166101bc565b6101796102a2366004611028565b610a13565b6102ba6102b5366004610fdc565b610b26565b60405190815260200161015d565b6101796102d6366004611041565b610bca565b60408051808201825260008082526020918201819052825180840184528181528201819052825180840184528181528201819052825180840184527f3617319a054d772f909f7c479a2cebe5066e836a939412e32403c99029b92eff5481527f3617319a054d772f909f7c479a2cebe5066e836a939412e32403c99029b92f0054818401908152845180860186527fa15bc60c955c405d20d9149c709e2460f1c2d9a497496a7f46004d1772c3054c5481527fa15bc60c955c405d20d9149c709e2460f1c2d9a497496a7f46004d1772c3054d54818601908152600290945260038552855180870187527fc3a24b0501bd2c13a7e57f2db4369ec4c223447539fc0724a9d55ac4a06ebd4d5481527fc3a24b0501bd2c13a7e57f2db4369ec4c223447539fc0724a9d55ac4a06ebd4e5481870190815287519451855292519584019590955251948201949094529051606082015290516080820152905160a082015260c00161015d565b61046c610453366004611028565b6003602052600090815260409020805460019091015482565b6040805192835260208301919091520161015d565b61017961048f366004610fba565b610d8e565b6000546001600160a01b031633146104c75760405162461bcd60e51b81526004016104be906110b0565b60405180910390fd5b60009283526003602052604090922090815560010155565b33600081815260026020908152604080832085845290915290205461053a5760405162461bcd60e51b8152602060048201526011602482015270139bc81858dd1a5d994819195c1bdcda5d607a1b60448201526064016104be565b60006105468284610b26565b6001600160a01b03831660009081526002602090815260408083208784529091528120600101805492935042929091906105819084906110e5565b909155505060015460405163a9059cbb60e01b81526001600160a01b038481166004830152602482018490529091169063a9059cbb90604401602060405180830381600087803b1580156105d457600080fd5b505af11580156105e8573d6000803e3d6000fd5b505050506040513d601f19601f8201168201806040525081019061060c9190611006565b507f34fcbac0073d7c3d388e51312faf357774904998eeb8fca628b9e6f65ee1cbf78284836040516106409392919061108f565b60405180910390a1505050565b6000546001600160a01b031633146106775760405162461bcd60e51b81526004016104be906110b0565b61067f610e29565b565b3360008181526002602090815260408083208584529091529020548311156106e05760405162461bcd60e51b8152602060048201526012602482015271139bdd08195b9bdd59da0819195c1bdcda5d60721b60448201526064016104be565b6001600160a01b038116600090815260026020818152604080842086855290915290912001544210156107555760405162461bcd60e51b815260206004820152601860248201527f4465706f736974206e6f7420756e6c6f636b656420796574000000000000000060448201526064016104be565b60006107618284610b26565b6001600160a01b038316600090815260026020908152604080832087845290915281208054929350869290919061079990849061113e565b90915550506001546001600160a01b031663a9059cbb836107ba84886110e5565b6040516001600160e01b031960e085901b1681526001600160a01b0390921660048301526024820152604401602060405180830381600087803b15801561080057600080fd5b505af1158015610814573d6000803e3d6000fd5b505050506040513d601f19601f820116820180604052508101906108389190611006565b507ff279e6a1f5e320cca91135676d9cb6e44ca8a08c0b88342bcdb1144f6511b5688260008660405161086d9392919061108f565b60405180910390a150505050565b61089f60405180606001604052806000815260200160008152602001600081525090565b6108c360405180606001604052806000815260200160008152602001600081525090565b6108e760405180606001604052806000815260200160008152602001600081525090565b5050506001600160a01b0381166000908152600260208181526040808420848052808352818520825160608082018552825482526001808401548388015292870154828601528288528386528488208551808301875281548152818501548189015290880154818701528789529386528488208551918201865280548252928301549581019590955294015491830191909152919280806109888782610b26565b9250610995876001610b26565b91506109a2876002610b26565b905091939550919395565b6000546001600160a01b031633146109d75760405162461bcd60e51b81526004016104be906110b0565b61067f6000610ec6565b6000546001600160a01b03163314610a0b5760405162461bcd60e51b81526004016104be906110b0565b61067f610f16565b336000818152600260209081526040808320858452909152902054610a6e5760405162461bcd60e51b8152602060048201526011602482015270139bc81858dd1a5d994819195c1bdcda5d607a1b60448201526064016104be565b6000610a7a8284610b26565b6001600160a01b0383166000908152600260209081526040808320878452909152812080549293508392909190610ab29084906110e5565b90915550506001600160a01b038216600090815260026020908152604080832086845290915281206001018054429290610aed9084906110e5565b90915550506040517f0e311a2c6dbfb0153ec3a8a5bdca09070b3e5f60768fdc10a20453f38d186873906106409084908690859061108f565b6001600160a01b03821660009081526002602090815260408083208484529091528120600101548190610b59904261113e565b6001600160a01b0385166000908152600260209081526040808320878452825280832054600390925282205492935091906301e13380612710610b9c848661111f565b610ba691906110fd565b610bb091906110fd565b90506000610bbe828661111f565b98975050505050505050565b600054600160a01b900460ff1615610c175760405162461bcd60e51b815260206004820152601060248201526f14185d5cd8589b194e881c185d5cd95960821b60448201526064016104be565b6001546040516323b872dd60e01b8152336004820181905230602483015260448201859052916001600160a01b0316906323b872dd90606401602060405180830381600087803b158015610c6a57600080fd5b505af1158015610c7e573d6000803e3d6000fd5b505050506040513d601f19601f82011682018060405250810190610ca29190611006565b506001600160a01b038116600090815260026020908152604080832085845290915281208054859290610cd69084906110e5565b90915550506001600160a01b038116600090815260026020908152604080832085845290915281206001018054429290610d119084906110e5565b9091555050600082815260036020526040902060010154610d3290426110e5565b6001600160a01b0382166000908152600260208181526040808420878552909152918290200191909155517f90890809c654f11d6e72a28fa60149770a0d11ec6c92319d6ceb2bb0a4ea1a15906106409083908590879061108f565b6000546001600160a01b03163314610db85760405162461bcd60e51b81526004016104be906110b0565b6001600160a01b038116610e1d5760405162461bcd60e51b815260206004820152602660248201527f4f776e61626c653a206e6577206f776e657220697320746865207a65726f206160448201526564647265737360d01b60648201526084016104be565b610e2681610ec6565b50565b600054600160a01b900460ff16610e795760405162461bcd60e51b815260206004820152601460248201527314185d5cd8589b194e881b9bdd081c185d5cd95960621b60448201526064016104be565b6000805460ff60a01b191690557f5db9ee0a495bf2e6ff9c91a7834c1ba4fdd244a5e8aa4e537bd38aeae4b073aa335b6040516001600160a01b03909116815260200160405180910390a1565b600080546001600160a01b038381166001600160a01b0319831681178455604051919092169283917f8be0079c531659141344cd1fd0a4f28419497f9722a3daafe3b4186f6b6457e09190a35050565b600054600160a01b900460ff1615610f635760405162461bcd60e51b815260206004820152601060248201526f14185d5cd8589b194e881c185d5cd95960821b60448201526064016104be565b6000805460ff60a01b1916600160a01b1790557f62e78cea01bee320cd4e420270b5ea74000d11b0c9f74754ebdbfc544b05a258610ea93390565b80356001600160a01b0381168114610fb557600080fd5b919050565b600060208284031215610fcc57600080fd5b610fd582610f9e565b9392505050565b60008060408385031215610fef57600080fd5b610ff883610f9e565b946020939093013593505050565b60006020828403121561101857600080fd5b81518015158114610fd557600080fd5b60006020828403121561103a57600080fd5b5035919050565b6000806040838503121561105457600080fd5b50508035926020909101359150565b60008060006060848603121561107857600080fd5b505081359360208301359350604090920135919050565b6001600160a01b039390931683526020830191909152604082015260600190565b6020808252818101527f4f776e61626c653a2063616c6c6572206973206e6f7420746865206f776e6572604082015260600190565b600082198211156110f8576110f8611155565b500190565b60008261111a57634e487b7160e01b600052601260045260246000fd5b500490565b600081600019048311821515161561113957611139611155565b500290565b60008282101561115057611150611155565b500390565b634e487b7160e01b600052601160045260246000fdfea26469706673582212204b9103578edc34f383eaa2216bde5aa11ac540cfb2c3bb22367c1be6cd99ad6764736f6c63430008070033",
					"opcodes": "PUSH1 0x80 PUSH1 0x40 MSTORE CALLVALUE DUP1 ISZERO PUSH2 0x10 JUMPI PUSH1 0x0 DUP1 REVERT JUMPDEST POP PUSH1 0x40 MLOAD PUSH2 0x129A CODESIZE SUB DUP1 PUSH2 0x129A DUP4 CODECOPY DUP2 ADD PUSH1 0x40 DUP2 SWAP1 MSTORE PUSH2 0x2F SWAP2 PUSH2 0xBA JUMP JUMPDEST PUSH2 0x38 CALLER PUSH2 0x6A JUMP JUMPDEST PUSH1 0x0 DUP1 SLOAD PUSH1 0xFF PUSH1 0xA0 SHL NOT AND SWAP1 SSTORE PUSH1 0x1 DUP1 SLOAD PUSH1 0x1 PUSH1 0x1 PUSH1 0xA0 SHL SUB NOT AND PUSH1 0x1 PUSH1 0x1 PUSH1 0xA0 SHL SUB SWAP3 SWAP1 SWAP3 AND SWAP2 SWAP1 SWAP2 OR SWAP1 SSTORE PUSH2 0xEA JUMP JUMPDEST PUSH1 0x0 DUP1 SLOAD PUSH1 0x1 PUSH1 0x1 PUSH1 0xA0 SHL SUB DUP4 DUP2 AND PUSH1 0x1 PUSH1 0x1 PUSH1 0xA0 SHL SUB NOT DUP4 AND DUP2 OR DUP5 SSTORE PUSH1 0x40 MLOAD SWAP2 SWAP1 SWAP3 AND SWAP3 DUP4 SWAP2 PUSH32 0x8BE0079C531659141344CD1FD0A4F28419497F9722A3DAAFE3B4186F6B6457E0 SWAP2 SWAP1 LOG3 POP POP JUMP JUMPDEST PUSH1 0x0 PUSH1 0x20 DUP3 DUP5 SUB SLT ISZERO PUSH2 0xCC JUMPI PUSH1 0x0 DUP1 REVERT JUMPDEST DUP2 MLOAD PUSH1 0x1 PUSH1 0x1 PUSH1 0xA0 SHL SUB DUP2 AND DUP2 EQ PUSH2 0xE3 JUMPI PUSH1 0x0 DUP1 REVERT JUMPDEST SWAP4 SWAP3 POP POP POP JUMP JUMPDEST PUSH2 0x11A1 DUP1 PUSH2 0xF9 PUSH1 0x0 CODECOPY PUSH1 0x0 RETURN INVALID PUSH1 0x80 PUSH1 0x40 MSTORE CALLVALUE DUP1 ISZERO PUSH2 0x10 JUMPI PUSH1 0x0 DUP1 REVERT JUMPDEST POP PUSH1 0x4 CALLDATASIZE LT PUSH2 0x10B JUMPI PUSH1 0x0 CALLDATALOAD PUSH1 0xE0 SHR DUP1 PUSH4 0x715018A6 GT PUSH2 0xA2 JUMPI DUP1 PUSH4 0xBEB8314C GT PUSH2 0x71 JUMPI DUP1 PUSH4 0xBEB8314C EQ PUSH2 0x2A7 JUMPI DUP1 PUSH4 0xE2BBB158 EQ PUSH2 0x2C8 JUMPI DUP1 PUSH4 0xE788CEE5 EQ PUSH2 0x2DB JUMPI DUP1 PUSH4 0xEDF501AD EQ PUSH2 0x445 JUMPI DUP1 PUSH4 0xF2FDE38B EQ PUSH2 0x481 JUMPI PUSH1 0x0 DUP1 REVERT JUMPDEST DUP1 PUSH4 0x715018A6 EQ PUSH2 0x273 JUMPI DUP1 PUSH4 0x8456CB59 EQ PUSH2 0x27B JUMPI DUP1 PUSH4 0x8DA5CB5B EQ PUSH2 0x283 JUMPI DUP1 PUSH4 0xAA5F7E26 EQ PUSH2 0x294 JUMPI PUSH1 0x0 DUP1 REVERT JUMPDEST DUP1 PUSH4 0x441A3E70 GT PUSH2 0xDE JUMPI DUP1 PUSH4 0x441A3E70 EQ PUSH2 0x196 JUMPI DUP1 PUSH4 0x451C3D80 EQ PUSH2 0x1A9 JUMPI DUP1 PUSH4 0x5C975ABB EQ PUSH2 0x1D4 JUMPI DUP1 PUSH4 0x6386C1C7 EQ PUSH2 0x1F1 JUMPI PUSH1 0x0 DUP1 REVERT JUMPDEST DUP1 PUSH4 0x259EE752 EQ PUSH2 0x110 JUMPI DUP1 PUSH4 0x32E96203 EQ PUSH2 0x166 JUMPI DUP1 PUSH4 0x379607F5 EQ PUSH2 0x17B JUMPI DUP1 PUSH4 0x3F4BA83A EQ PUSH2 0x18E JUMPI JUMPDEST PUSH1 0x0 DUP1 REVERT JUMPDEST PUSH2 0x146 PUSH2 0x11E CALLDATASIZE PUSH1 0x4 PUSH2 0xFDC JUMP JUMPDEST PUSH1 0x2 PUSH1 0x20 DUP2 DUP2 MSTORE PUSH1 0x0 SWAP4 DUP5 MSTORE PUSH1 0x40 DUP1 DUP6 KECCAK256 SWAP1 SWAP2 MSTORE SWAP2 DUP4 MSTORE SWAP2 KECCAK256 DUP1 SLOAD PUSH1 0x1 DUP3 ADD SLOAD SWAP2 SWAP1 SWAP3 ADD SLOAD DUP4 JUMP JUMPDEST PUSH1 0x40 DUP1 MLOAD SWAP4 DUP5 MSTORE PUSH1 0x20 DUP5 ADD SWAP3 SWAP1 SWAP3 MSTORE SWAP1 DUP3 ADD MSTORE PUSH1 0x60 ADD JUMPDEST PUSH1 0x40 MLOAD DUP1 SWAP2 SUB SWAP1 RETURN JUMPDEST PUSH2 0x179 PUSH2 0x174 CALLDATASIZE PUSH1 0x4 PUSH2 0x1063 JUMP JUMPDEST PUSH2 0x494 JUMP JUMPDEST STOP JUMPDEST PUSH2 0x179 PUSH2 0x189 CALLDATASIZE PUSH1 0x4 PUSH2 0x1028 JUMP JUMPDEST PUSH2 0x4DF JUMP JUMPDEST PUSH2 0x179 PUSH2 0x64D JUMP JUMPDEST PUSH2 0x179 PUSH2 0x1A4 CALLDATASIZE PUSH1 0x4 PUSH2 0x1041 JUMP JUMPDEST PUSH2 0x681 JUMP JUMPDEST PUSH1 0x1 SLOAD PUSH2 0x1BC SWAP1 PUSH1 0x1 PUSH1 0x1 PUSH1 0xA0 SHL SUB AND DUP2 JUMP JUMPDEST PUSH1 0x40 MLOAD PUSH1 0x1 PUSH1 0x1 PUSH1 0xA0 SHL SUB SWAP1 SWAP2 AND DUP2 MSTORE PUSH1 0x20 ADD PUSH2 0x15D JUMP JUMPDEST PUSH1 0x0 SLOAD PUSH1 0x1 PUSH1 0xA0 SHL SWAP1 DIV PUSH1 0xFF AND PUSH1 0x40 MLOAD SWAP1 ISZERO ISZERO DUP2 MSTORE PUSH1 0x20 ADD PUSH2 0x15D JUMP JUMPDEST PUSH2 0x204 PUSH2 0x1FF CALLDATASIZE PUSH1 0x4 PUSH2 0xFBA JUMP JUMPDEST PUSH2 0x87B JUMP JUMPDEST PUSH1 0x40 DUP1 MLOAD DUP8 MLOAD DUP2 MSTORE PUSH1 0x20 DUP1 DUP10 ADD MLOAD DUP2 DUP4 ADD MSTORE SWAP8 DUP3 ADD MLOAD DUP2 DUP4 ADD MSTORE DUP7 MLOAD PUSH1 0x60 DUP3 ADD MSTORE DUP8 DUP8 ADD MLOAD PUSH1 0x80 DUP3 ADD MSTORE SWAP6 DUP2 ADD MLOAD PUSH1 0xA0 DUP8 ADD MSTORE DUP5 MLOAD PUSH1 0xC0 DUP8 ADD MSTORE SWAP6 DUP5 ADD MLOAD PUSH1 0xE0 DUP7 ADD MSTORE SWAP3 SWAP1 SWAP5 ADD MLOAD PUSH2 0x100 DUP5 ADD MSTORE PUSH2 0x120 DUP4 ADD MSTORE PUSH2 0x140 DUP3 ADD SWAP3 SWAP1 SWAP3 MSTORE PUSH2 0x160 DUP2 ADD SWAP2 SWAP1 SWAP2 MSTORE PUSH2 0x180 ADD PUSH2 0x15D JUMP JUMPDEST PUSH2 0x179 PUSH2 0x9AD JUMP JUMPDEST PUSH2 0x179 PUSH2 0x9E1 JUMP JUMPDEST PUSH1 0x0 SLOAD PUSH1 0x1 PUSH1 0x1 PUSH1 0xA0 SHL SUB AND PUSH2 0x1BC JUMP JUMPDEST PUSH2 0x179 PUSH2 0x2A2 CALLDATASIZE PUSH1 0x4 PUSH2 0x1028 JUMP JUMPDEST PUSH2 0xA13 JUMP JUMPDEST PUSH2 0x2BA PUSH2 0x2B5 CALLDATASIZE PUSH1 0x4 PUSH2 0xFDC JUMP JUMPDEST PUSH2 0xB26 JUMP JUMPDEST PUSH1 0x40 MLOAD SWAP1 DUP2 MSTORE PUSH1 0x20 ADD PUSH2 0x15D JUMP JUMPDEST PUSH2 0x179 PUSH2 0x2D6 CALLDATASIZE PUSH1 0x4 PUSH2 0x1041 JUMP JUMPDEST PUSH2 0xBCA JUMP JUMPDEST PUSH1 0x40 DUP1 MLOAD DUP1 DUP3 ADD DUP3 MSTORE PUSH1 0x0 DUP1 DUP3 MSTORE PUSH1 0x20 SWAP2 DUP3 ADD DUP2 SWAP1 MSTORE DUP3 MLOAD DUP1 DUP5 ADD DUP5 MSTORE DUP2 DUP2 MSTORE DUP3 ADD DUP2 SWAP1 MSTORE DUP3 MLOAD DUP1 DUP5 ADD DUP5 MSTORE DUP2 DUP2 MSTORE DUP3 ADD DUP2 SWAP1 MSTORE DUP3 MLOAD DUP1 DUP5 ADD DUP5 MSTORE PUSH32 0x3617319A054D772F909F7C479A2CEBE5066E836A939412E32403C99029B92EFF SLOAD DUP2 MSTORE PUSH32 0x3617319A054D772F909F7C479A2CEBE5066E836A939412E32403C99029B92F00 SLOAD DUP2 DUP5 ADD SWAP1 DUP2 MSTORE DUP5 MLOAD DUP1 DUP7 ADD DUP7 MSTORE PUSH32 0xA15BC60C955C405D20D9149C709E2460F1C2D9A497496A7F46004D1772C3054C SLOAD DUP2 MSTORE PUSH32 0xA15BC60C955C405D20D9149C709E2460F1C2D9A497496A7F46004D1772C3054D SLOAD DUP2 DUP7 ADD SWAP1 DUP2 MSTORE PUSH1 0x2 SWAP1 SWAP5 MSTORE PUSH1 0x3 DUP6 MSTORE DUP6 MLOAD DUP1 DUP8 ADD DUP8 MSTORE PUSH32 0xC3A24B0501BD2C13A7E57F2DB4369EC4C223447539FC0724A9D55AC4A06EBD4D SLOAD DUP2 MSTORE PUSH32 0xC3A24B0501BD2C13A7E57F2DB4369EC4C223447539FC0724A9D55AC4A06EBD4E SLOAD DUP2 DUP8 ADD SWAP1 DUP2 MSTORE DUP8 MLOAD SWAP5 MLOAD DUP6 MSTORE SWAP3 MLOAD SWAP6 DUP5 ADD SWAP6 SWAP1 SWAP6 MSTORE MLOAD SWAP5 DUP3 ADD SWAP5 SWAP1 SWAP5 MSTORE SWAP1 MLOAD PUSH1 0x60 DUP3 ADD MSTORE SWAP1 MLOAD PUSH1 0x80 DUP3 ADD MSTORE SWAP1 MLOAD PUSH1 0xA0 DUP3 ADD MSTORE PUSH1 0xC0 ADD PUSH2 0x15D JUMP JUMPDEST PUSH2 0x46C PUSH2 0x453 CALLDATASIZE PUSH1 0x4 PUSH2 0x1028 JUMP JUMPDEST PUSH1 0x3 PUSH1 0x20 MSTORE PUSH1 0x0 SWAP1 DUP2 MSTORE PUSH1 0x40 SWAP1 KECCAK256 DUP1 SLOAD PUSH1 0x1 SWAP1 SWAP2 ADD SLOAD DUP3 JUMP JUMPDEST PUSH1 0x40 DUP1 MLOAD SWAP3 DUP4 MSTORE PUSH1 0x20 DUP4 ADD SWAP2 SWAP1 SWAP2 MSTORE ADD PUSH2 0x15D JUMP JUMPDEST PUSH2 0x179 PUSH2 0x48F CALLDATASIZE PUSH1 0x4 PUSH2 0xFBA JUMP JUMPDEST PUSH2 0xD8E JUMP JUMPDEST PUSH1 0x0 SLOAD PUSH1 0x1 PUSH1 0x1 PUSH1 0xA0 SHL SUB AND CALLER EQ PUSH2 0x4C7 JUMPI PUSH1 0x40 MLOAD PUSH3 0x461BCD PUSH1 0xE5 SHL DUP2 MSTORE PUSH1 0x4 ADD PUSH2 0x4BE SWAP1 PUSH2 0x10B0 JUMP JUMPDEST PUSH1 0x40 MLOAD DUP1 SWAP2 SUB SWAP1 REVERT JUMPDEST PUSH1 0x0 SWAP3 DUP4 MSTORE PUSH1 0x3 PUSH1 0x20 MSTORE PUSH1 0x40 SWAP1 SWAP3 KECCAK256 SWAP1 DUP2 SSTORE PUSH1 0x1 ADD SSTORE JUMP JUMPDEST CALLER PUSH1 0x0 DUP2 DUP2 MSTORE PUSH1 0x2 PUSH1 0x20 SWAP1 DUP2 MSTORE PUSH1 0x40 DUP1 DUP4 KECCAK256 DUP6 DUP5 MSTORE SWAP1 SWAP2 MSTORE SWAP1 KECCAK256 SLOAD PUSH2 0x53A JUMPI PUSH1 0x40 MLOAD PUSH3 0x461BCD PUSH1 0xE5 SHL DUP2 MSTORE PUSH1 0x20 PUSH1 0x4 DUP3 ADD MSTORE PUSH1 0x11 PUSH1 0x24 DUP3 ADD MSTORE PUSH17 0x139BC81858DD1A5D994819195C1BDCDA5D PUSH1 0x7A SHL PUSH1 0x44 DUP3 ADD MSTORE PUSH1 0x64 ADD PUSH2 0x4BE JUMP JUMPDEST PUSH1 0x0 PUSH2 0x546 DUP3 DUP5 PUSH2 0xB26 JUMP JUMPDEST PUSH1 0x1 PUSH1 0x1 PUSH1 0xA0 SHL SUB DUP4 AND PUSH1 0x0 SWAP1 DUP2 MSTORE PUSH1 0x2 PUSH1 0x20 SWAP1 DUP2 MSTORE PUSH1 0x40 DUP1 DUP4 KECCAK256 DUP8 DUP5 MSTORE SWAP1 SWAP2 MSTORE DUP2 KECCAK256 PUSH1 0x1 ADD DUP1 SLOAD SWAP3 SWAP4 POP TIMESTAMP SWAP3 SWAP1 SWAP2 SWAP1 PUSH2 0x581 SWAP1 DUP5 SWAP1 PUSH2 0x10E5 JUMP JUMPDEST SWAP1 SWAP2 SSTORE POP POP PUSH1 0x1 SLOAD PUSH1 0x40 MLOAD PUSH4 0xA9059CBB PUSH1 0xE0 SHL DUP2 MSTORE PUSH1 0x1 PUSH1 0x1 PUSH1 0xA0 SHL SUB DUP5 DUP2 AND PUSH1 0x4 DUP4 ADD MSTORE PUSH1 0x24 DUP3 ADD DUP5 SWAP1 MSTORE SWAP1 SWAP2 AND SWAP1 PUSH4 0xA9059CBB SWAP1 PUSH1 0x44 ADD PUSH1 0x20 PUSH1 0x40 MLOAD DUP1 DUP4 SUB DUP2 PUSH1 0x0 DUP8 DUP1 EXTCODESIZE ISZERO DUP1 ISZERO PUSH2 0x5D4 JUMPI PUSH1 0x0 DUP1 REVERT JUMPDEST POP GAS CALL ISZERO DUP1 ISZERO PUSH2 0x5E8 JUMPI RETURNDATASIZE PUSH1 0x0 DUP1 RETURNDATACOPY RETURNDATASIZE PUSH1 0x0 REVERT JUMPDEST POP POP POP POP PUSH1 0x40 MLOAD RETURNDATASIZE PUSH1 0x1F NOT PUSH1 0x1F DUP3 ADD AND DUP3 ADD DUP1 PUSH1 0x40 MSTORE POP DUP2 ADD SWAP1 PUSH2 0x60C SWAP2 SWAP1 PUSH2 0x1006 JUMP JUMPDEST POP PUSH32 0x34FCBAC0073D7C3D388E51312FAF357774904998EEB8FCA628B9E6F65EE1CBF7 DUP3 DUP5 DUP4 PUSH1 0x40 MLOAD PUSH2 0x640 SWAP4 SWAP3 SWAP2 SWAP1 PUSH2 0x108F JUMP JUMPDEST PUSH1 0x40 MLOAD DUP1 SWAP2 SUB SWAP1 LOG1 POP POP POP JUMP JUMPDEST PUSH1 0x0 SLOAD PUSH1 0x1 PUSH1 0x1 PUSH1 0xA0 SHL SUB AND CALLER EQ PUSH2 0x677 JUMPI PUSH1 0x40 MLOAD PUSH3 0x461BCD PUSH1 0xE5 SHL DUP2 MSTORE PUSH1 0x4 ADD PUSH2 0x4BE SWAP1 PUSH2 0x10B0 JUMP JUMPDEST PUSH2 0x67F PUSH2 0xE29 JUMP JUMPDEST JUMP JUMPDEST CALLER PUSH1 0x0 DUP2 DUP2 MSTORE PUSH1 0x2 PUSH1 0x20 SWAP1 DUP2 MSTORE PUSH1 0x40 DUP1 DUP4 KECCAK256 DUP6 DUP5 MSTORE SWAP1 SWAP2 MSTORE SWAP1 KECCAK256 SLOAD DUP4 GT ISZERO PUSH2 0x6E0 JUMPI PUSH1 0x40 MLOAD PUSH3 0x461BCD PUSH1 0xE5 SHL DUP2 MSTORE PUSH1 0x20 PUSH1 0x4 DUP3 ADD MSTORE PUSH1 0x12 PUSH1 0x24 DUP3 ADD MSTORE PUSH18 0x139BDD08195B9BDD59DA0819195C1BDCDA5D PUSH1 0x72 SHL PUSH1 0x44 DUP3 ADD MSTORE PUSH1 0x64 ADD PUSH2 0x4BE JUMP JUMPDEST PUSH1 0x1 PUSH1 0x1 PUSH1 0xA0 SHL SUB DUP2 AND PUSH1 0x0 SWAP1 DUP2 MSTORE PUSH1 0x2 PUSH1 0x20 DUP2 DUP2 MSTORE PUSH1 0x40 DUP1 DUP5 KECCAK256 DUP7 DUP6 MSTORE SWAP1 SWAP2 MSTORE SWAP1 SWAP2 KECCAK256 ADD SLOAD TIMESTAMP LT ISZERO PUSH2 0x755 JUMPI PUSH1 0x40 MLOAD PUSH3 0x461BCD PUSH1 0xE5 SHL DUP2 MSTORE PUSH1 0x20 PUSH1 0x4 DUP3 ADD MSTORE PUSH1 0x18 PUSH1 0x24 DUP3 ADD MSTORE PUSH32 0x4465706F736974206E6F7420756E6C6F636B6564207965740000000000000000 PUSH1 0x44 DUP3 ADD MSTORE PUSH1 0x64 ADD PUSH2 0x4BE JUMP JUMPDEST PUSH1 0x0 PUSH2 0x761 DUP3 DUP5 PUSH2 0xB26 JUMP JUMPDEST PUSH1 0x1 PUSH1 0x1 PUSH1 0xA0 SHL SUB DUP4 AND PUSH1 0x0 SWAP1 DUP2 MSTORE PUSH1 0x2 PUSH1 0x20 SWAP1 DUP2 MSTORE PUSH1 0x40 DUP1 DUP4 KECCAK256 DUP8 DUP5 MSTORE SWAP1 SWAP2 MSTORE DUP2 KECCAK256 DUP1 SLOAD SWAP3 SWAP4 POP DUP7 SWAP3 SWAP1 SWAP2 SWAP1 PUSH2 0x799 SWAP1 DUP5 SWAP1 PUSH2 0x113E JUMP JUMPDEST SWAP1 SWAP2 SSTORE POP POP PUSH1 0x1 SLOAD PUSH1 0x1 PUSH1 0x1 PUSH1 0xA0 SHL SUB AND PUSH4 0xA9059CBB DUP4 PUSH2 0x7BA DUP5 DUP9 PUSH2 0x10E5 JUMP JUMPDEST PUSH1 0x40 MLOAD PUSH1 0x1 PUSH1 0x1 PUSH1 0xE0 SHL SUB NOT PUSH1 0xE0 DUP6 SWAP1 SHL AND DUP2 MSTORE PUSH1 0x1 PUSH1 0x1 PUSH1 0xA0 SHL SUB SWAP1 SWAP3 AND PUSH1 0x4 DUP4 ADD MSTORE PUSH1 0x24 DUP3 ADD MSTORE PUSH1 0x44 ADD PUSH1 0x20 PUSH1 0x40 MLOAD DUP1 DUP4 SUB DUP2 PUSH1 0x0 DUP8 DUP1 EXTCODESIZE ISZERO DUP1 ISZERO PUSH2 0x800 JUMPI PUSH1 0x0 DUP1 REVERT JUMPDEST POP GAS CALL ISZERO DUP1 ISZERO PUSH2 0x814 JUMPI RETURNDATASIZE PUSH1 0x0 DUP1 RETURNDATACOPY RETURNDATASIZE PUSH1 0x0 REVERT JUMPDEST POP POP POP POP PUSH1 0x40 MLOAD RETURNDATASIZE PUSH1 0x1F NOT PUSH1 0x1F DUP3 ADD AND DUP3 ADD DUP1 PUSH1 0x40 MSTORE POP DUP2 ADD SWAP1 PUSH2 0x838 SWAP2 SWAP1 PUSH2 0x1006 JUMP JUMPDEST POP PUSH32 0xF279E6A1F5E320CCA91135676D9CB6E44CA8A08C0B88342BCDB1144F6511B568 DUP3 PUSH1 0x0 DUP7 PUSH1 0x40 MLOAD PUSH2 0x86D SWAP4 SWAP3 SWAP2 SWAP1 PUSH2 0x108F JUMP JUMPDEST PUSH1 0x40 MLOAD DUP1 SWAP2 SUB SWAP1 LOG1 POP POP POP POP JUMP JUMPDEST PUSH2 0x89F PUSH1 0x40 MLOAD DUP1 PUSH1 0x60 ADD PUSH1 0x40 MSTORE DUP1 PUSH1 0x0 DUP2 MSTORE PUSH1 0x20 ADD PUSH1 0x0 DUP2 MSTORE PUSH1 0x20 ADD PUSH1 0x0 DUP2 MSTORE POP SWAP1 JUMP JUMPDEST PUSH2 0x8C3 PUSH1 0x40 MLOAD DUP1 PUSH1 0x60 ADD PUSH1 0x40 MSTORE DUP1 PUSH1 0x0 DUP2 MSTORE PUSH1 0x20 ADD PUSH1 0x0 DUP2 MSTORE PUSH1 0x20 ADD PUSH1 0x0 DUP2 MSTORE POP SWAP1 JUMP JUMPDEST PUSH2 0x8E7 PUSH1 0x40 MLOAD DUP1 PUSH1 0x60 ADD PUSH1 0x40 MSTORE DUP1 PUSH1 0x0 DUP2 MSTORE PUSH1 0x20 ADD PUSH1 0x0 DUP2 MSTORE PUSH1 0x20 ADD PUSH1 0x0 DUP2 MSTORE POP SWAP1 JUMP JUMPDEST POP POP POP PUSH1 0x1 PUSH1 0x1 PUSH1 0xA0 SHL SUB DUP2 AND PUSH1 0x0 SWAP1 DUP2 MSTORE PUSH1 0x2 PUSH1 0x20 DUP2 DUP2 MSTORE PUSH1 0x40 DUP1 DUP5 KECCAK256 DUP5 DUP1 MSTORE DUP1 DUP4 MSTORE DUP2 DUP6 KECCAK256 DUP3 MLOAD PUSH1 0x60 DUP1 DUP3 ADD DUP6 MSTORE DUP3 SLOAD DUP3 MSTORE PUSH1 0x1 DUP1 DUP5 ADD SLOAD DUP4 DUP9 ADD MSTORE SWAP3 DUP8 ADD SLOAD DUP3 DUP7 ADD MSTORE DUP3 DUP9 MSTORE DUP4 DUP7 MSTORE DUP5 DUP9 KECCAK256 DUP6 MLOAD DUP1 DUP4 ADD DUP8 MSTORE DUP2 SLOAD DUP2 MSTORE DUP2 DUP6 ADD SLOAD DUP2 DUP10 ADD MSTORE SWAP1 DUP9 ADD SLOAD DUP2 DUP8 ADD MSTORE DUP8 DUP10 MSTORE SWAP4 DUP7 MSTORE DUP5 DUP9 KECCAK256 DUP6 MLOAD SWAP2 DUP3 ADD DUP7 MSTORE DUP1 SLOAD DUP3 MSTORE SWAP3 DUP4 ADD SLOAD SWAP6 DUP2 ADD SWAP6 SWAP1 SWAP6 MSTORE SWAP5 ADD SLOAD SWAP2 DUP4 ADD SWAP2 SWAP1 SWAP2 MSTORE SWAP2 SWAP3 DUP1 DUP1 PUSH2 0x988 DUP8 DUP3 PUSH2 0xB26 JUMP JUMPDEST SWAP3 POP PUSH2 0x995 DUP8 PUSH1 0x1 PUSH2 0xB26 JUMP JUMPDEST SWAP2 POP PUSH2 0x9A2 DUP8 PUSH1 0x2 PUSH2 0xB26 JUMP JUMPDEST SWAP1 POP SWAP2 SWAP4 SWAP6 POP SWAP2 SWAP4 SWAP6 JUMP JUMPDEST PUSH1 0x0 SLOAD PUSH1 0x1 PUSH1 0x1 PUSH1 0xA0 SHL SUB AND CALLER EQ PUSH2 0x9D7 JUMPI PUSH1 0x40 MLOAD PUSH3 0x461BCD PUSH1 0xE5 SHL DUP2 MSTORE PUSH1 0x4 ADD PUSH2 0x4BE SWAP1 PUSH2 0x10B0 JUMP JUMPDEST PUSH2 0x67F PUSH1 0x0 PUSH2 0xEC6 JUMP JUMPDEST PUSH1 0x0 SLOAD PUSH1 0x1 PUSH1 0x1 PUSH1 0xA0 SHL SUB AND CALLER EQ PUSH2 0xA0B JUMPI PUSH1 0x40 MLOAD PUSH3 0x461BCD PUSH1 0xE5 SHL DUP2 MSTORE PUSH1 0x4 ADD PUSH2 0x4BE SWAP1 PUSH2 0x10B0 JUMP JUMPDEST PUSH2 0x67F PUSH2 0xF16 JUMP JUMPDEST CALLER PUSH1 0x0 DUP2 DUP2 MSTORE PUSH1 0x2 PUSH1 0x20 SWAP1 DUP2 MSTORE PUSH1 0x40 DUP1 DUP4 KECCAK256 DUP6 DUP5 MSTORE SWAP1 SWAP2 MSTORE SWAP1 KECCAK256 SLOAD PUSH2 0xA6E JUMPI PUSH1 0x40 MLOAD PUSH3 0x461BCD PUSH1 0xE5 SHL DUP2 MSTORE PUSH1 0x20 PUSH1 0x4 DUP3 ADD MSTORE PUSH1 0x11 PUSH1 0x24 DUP3 ADD MSTORE PUSH17 0x139BC81858DD1A5D994819195C1BDCDA5D PUSH1 0x7A SHL PUSH1 0x44 DUP3 ADD MSTORE PUSH1 0x64 ADD PUSH2 0x4BE JUMP JUMPDEST PUSH1 0x0 PUSH2 0xA7A DUP3 DUP5 PUSH2 0xB26 JUMP JUMPDEST PUSH1 0x1 PUSH1 0x1 PUSH1 0xA0 SHL SUB DUP4 AND PUSH1 0x0 SWAP1 DUP2 MSTORE PUSH1 0x2 PUSH1 0x20 SWAP1 DUP2 MSTORE PUSH1 0x40 DUP1 DUP4 KECCAK256 DUP8 DUP5 MSTORE SWAP1 SWAP2 MSTORE DUP2 KECCAK256 DUP1 SLOAD SWAP3 SWAP4 POP DUP4 SWAP3 SWAP1 SWAP2 SWAP1 PUSH2 0xAB2 SWAP1 DUP5 SWAP1 PUSH2 0x10E5 JUMP JUMPDEST SWAP1 SWAP2 SSTORE POP POP PUSH1 0x1 PUSH1 0x1 PUSH1 0xA0 SHL SUB DUP3 AND PUSH1 0x0 SWAP1 DUP2 MSTORE PUSH1 0x2 PUSH1 0x20 SWAP1 DUP2 MSTORE PUSH1 0x40 DUP1 DUP4 KECCAK256 DUP7 DUP5 MSTORE SWAP1 SWAP2 MSTORE DUP2 KECCAK256 PUSH1 0x1 ADD DUP1 SLOAD TIMESTAMP SWAP3 SWAP1 PUSH2 0xAED SWAP1 DUP5 SWAP1 PUSH2 0x10E5 JUMP JUMPDEST SWAP1 SWAP2 SSTORE POP POP PUSH1 0x40 MLOAD PUSH32 0xE311A2C6DBFB0153EC3A8A5BDCA09070B3E5F60768FDC10A20453F38D186873 SWAP1 PUSH2 0x640 SWAP1 DUP5 SWAP1 DUP7 SWAP1 DUP6 SWAP1 PUSH2 0x108F JUMP JUMPDEST PUSH1 0x1 PUSH1 0x1 PUSH1 0xA0 SHL SUB DUP3 AND PUSH1 0x0 SWAP1 DUP2 MSTORE PUSH1 0x2 PUSH1 0x20 SWAP1 DUP2 MSTORE PUSH1 0x40 DUP1 DUP4 KECCAK256 DUP5 DUP5 MSTORE SWAP1 SWAP2 MSTORE DUP2 KECCAK256 PUSH1 0x1 ADD SLOAD DUP2 SWAP1 PUSH2 0xB59 SWAP1 TIMESTAMP PUSH2 0x113E JUMP JUMPDEST PUSH1 0x1 PUSH1 0x1 PUSH1 0xA0 SHL SUB DUP6 AND PUSH1 0x0 SWAP1 DUP2 MSTORE PUSH1 0x2 PUSH1 0x20 SWAP1 DUP2 MSTORE PUSH1 0x40 DUP1 DUP4 KECCAK256 DUP8 DUP5 MSTORE DUP3 MSTORE DUP1 DUP4 KECCAK256 SLOAD PUSH1 0x3 SWAP1 SWAP3 MSTORE DUP3 KECCAK256 SLOAD SWAP3 SWAP4 POP SWAP2 SWAP1 PUSH4 0x1E13380 PUSH2 0x2710 PUSH2 0xB9C DUP5 DUP7 PUSH2 0x111F JUMP JUMPDEST PUSH2 0xBA6 SWAP2 SWAP1 PUSH2 0x10FD JUMP JUMPDEST PUSH2 0xBB0 SWAP2 SWAP1 PUSH2 0x10FD JUMP JUMPDEST SWAP1 POP PUSH1 0x0 PUSH2 0xBBE DUP3 DUP7 PUSH2 0x111F JUMP JUMPDEST SWAP9 SWAP8 POP POP POP POP POP POP POP POP JUMP JUMPDEST PUSH1 0x0 SLOAD PUSH1 0x1 PUSH1 0xA0 SHL SWAP1 DIV PUSH1 0xFF AND ISZERO PUSH2 0xC17 JUMPI PUSH1 0x40 MLOAD PUSH3 0x461BCD PUSH1 0xE5 SHL DUP2 MSTORE PUSH1 0x20 PUSH1 0x4 DUP3 ADD MSTORE PUSH1 0x10 PUSH1 0x24 DUP3 ADD MSTORE PUSH16 0x14185D5CD8589B194E881C185D5CD959 PUSH1 0x82 SHL PUSH1 0x44 DUP3 ADD MSTORE PUSH1 0x64 ADD PUSH2 0x4BE JUMP JUMPDEST PUSH1 0x1 SLOAD PUSH1 0x40 MLOAD PUSH4 0x23B872DD PUSH1 0xE0 SHL DUP2 MSTORE CALLER PUSH1 0x4 DUP3 ADD DUP2 SWAP1 MSTORE ADDRESS PUSH1 0x24 DUP4 ADD MSTORE PUSH1 0x44 DUP3 ADD DUP6 SWAP1 MSTORE SWAP2 PUSH1 0x1 PUSH1 0x1 PUSH1 0xA0 SHL SUB AND SWAP1 PUSH4 0x23B872DD SWAP1 PUSH1 0x64 ADD PUSH1 0x20 PUSH1 0x40 MLOAD DUP1 DUP4 SUB DUP2 PUSH1 0x0 DUP8 DUP1 EXTCODESIZE ISZERO DUP1 ISZERO PUSH2 0xC6A JUMPI PUSH1 0x0 DUP1 REVERT JUMPDEST POP GAS CALL ISZERO DUP1 ISZERO PUSH2 0xC7E JUMPI RETURNDATASIZE PUSH1 0x0 DUP1 RETURNDATACOPY RETURNDATASIZE PUSH1 0x0 REVERT JUMPDEST POP POP POP POP PUSH1 0x40 MLOAD RETURNDATASIZE PUSH1 0x1F NOT PUSH1 0x1F DUP3 ADD AND DUP3 ADD DUP1 PUSH1 0x40 MSTORE POP DUP2 ADD SWAP1 PUSH2 0xCA2 SWAP2 SWAP1 PUSH2 0x1006 JUMP JUMPDEST POP PUSH1 0x1 PUSH1 0x1 PUSH1 0xA0 SHL SUB DUP2 AND PUSH1 0x0 SWAP1 DUP2 MSTORE PUSH1 0x2 PUSH1 0x20 SWAP1 DUP2 MSTORE PUSH1 0x40 DUP1 DUP4 KECCAK256 DUP6 DUP5 MSTORE SWAP1 SWAP2 MSTORE DUP2 KECCAK256 DUP1 SLOAD DUP6 SWAP3 SWAP1 PUSH2 0xCD6 SWAP1 DUP5 SWAP1 PUSH2 0x10E5 JUMP JUMPDEST SWAP1 SWAP2 SSTORE POP POP PUSH1 0x1 PUSH1 0x1 PUSH1 0xA0 SHL SUB DUP2 AND PUSH1 0x0 SWAP1 DUP2 MSTORE PUSH1 0x2 PUSH1 0x20 SWAP1 DUP2 MSTORE PUSH1 0x40 DUP1 DUP4 KECCAK256 DUP6 DUP5 MSTORE SWAP1 SWAP2 MSTORE DUP2 KECCAK256 PUSH1 0x1 ADD DUP1 SLOAD TIMESTAMP SWAP3 SWAP1 PUSH2 0xD11 SWAP1 DUP5 SWAP1 PUSH2 0x10E5 JUMP JUMPDEST SWAP1 SWAP2 SSTORE POP POP PUSH1 0x0 DUP3 DUP2 MSTORE PUSH1 0x3 PUSH1 0x20 MSTORE PUSH1 0x40 SWAP1 KECCAK256 PUSH1 0x1 ADD SLOAD PUSH2 0xD32 SWAP1 TIMESTAMP PUSH2 0x10E5 JUMP JUMPDEST PUSH1 0x1 PUSH1 0x1 PUSH1 0xA0 SHL SUB DUP3 AND PUSH1 0x0 SWAP1 DUP2 MSTORE PUSH1 0x2 PUSH1 0x20 DUP2 DUP2 MSTORE PUSH1 0x40 DUP1 DUP5 KECCAK256 DUP8 DUP6 MSTORE SWAP1 SWAP2 MSTORE SWAP2 DUP3 SWAP1 KECCAK256 ADD SWAP2 SWAP1 SWAP2 SSTORE MLOAD PUSH32 0x90890809C654F11D6E72A28FA60149770A0D11EC6C92319D6CEB2BB0A4EA1A15 SWAP1 PUSH2 0x640 SWAP1 DUP4 SWAP1 DUP6 SWAP1 DUP8 SWAP1 PUSH2 0x108F JUMP JUMPDEST PUSH1 0x0 SLOAD PUSH1 0x1 PUSH1 0x1 PUSH1 0xA0 SHL SUB AND CALLER EQ PUSH2 0xDB8 JUMPI PUSH1 0x40 MLOAD PUSH3 0x461BCD PUSH1 0xE5 SHL DUP2 MSTORE PUSH1 0x4 ADD PUSH2 0x4BE SWAP1 PUSH2 0x10B0 JUMP JUMPDEST PUSH1 0x1 PUSH1 0x1 PUSH1 0xA0 SHL SUB DUP2 AND PUSH2 0xE1D JUMPI PUSH1 0x40 MLOAD PUSH3 0x461BCD PUSH1 0xE5 SHL DUP2 MSTORE PUSH1 0x20 PUSH1 0x4 DUP3 ADD MSTORE PUSH1 0x26 PUSH1 0x24 DUP3 ADD MSTORE PUSH32 0x4F776E61626C653A206E6577206F776E657220697320746865207A65726F2061 PUSH1 0x44 DUP3 ADD MSTORE PUSH6 0x646472657373 PUSH1 0xD0 SHL PUSH1 0x64 DUP3 ADD MSTORE PUSH1 0x84 ADD PUSH2 0x4BE JUMP JUMPDEST PUSH2 0xE26 DUP2 PUSH2 0xEC6 JUMP JUMPDEST POP JUMP JUMPDEST PUSH1 0x0 SLOAD PUSH1 0x1 PUSH1 0xA0 SHL SWAP1 DIV PUSH1 0xFF AND PUSH2 0xE79 JUMPI PUSH1 0x40 MLOAD PUSH3 0x461BCD PUSH1 0xE5 SHL DUP2 MSTORE PUSH1 0x20 PUSH1 0x4 DUP3 ADD MSTORE PUSH1 0x14 PUSH1 0x24 DUP3 ADD MSTORE PUSH20 0x14185D5CD8589B194E881B9BDD081C185D5CD959 PUSH1 0x62 SHL PUSH1 0x44 DUP3 ADD MSTORE PUSH1 0x64 ADD PUSH2 0x4BE JUMP JUMPDEST PUSH1 0x0 DUP1 SLOAD PUSH1 0xFF PUSH1 0xA0 SHL NOT AND SWAP1 SSTORE PUSH32 0x5DB9EE0A495BF2E6FF9C91A7834C1BA4FDD244A5E8AA4E537BD38AEAE4B073AA CALLER JUMPDEST PUSH1 0x40 MLOAD PUSH1 0x1 PUSH1 0x1 PUSH1 0xA0 SHL SUB SWAP1 SWAP2 AND DUP2 MSTORE PUSH1 0x20 ADD PUSH1 0x40 MLOAD DUP1 SWAP2 SUB SWAP1 LOG1 JUMP JUMPDEST PUSH1 0x0 DUP1 SLOAD PUSH1 0x1 PUSH1 0x1 PUSH1 0xA0 SHL SUB DUP4 DUP2 AND PUSH1 0x1 PUSH1 0x1 PUSH1 0xA0 SHL SUB NOT DUP4 AND DUP2 OR DUP5 SSTORE PUSH1 0x40 MLOAD SWAP2 SWAP1 SWAP3 AND SWAP3 DUP4 SWAP2 PUSH32 0x8BE0079C531659141344CD1FD0A4F28419497F9722A3DAAFE3B4186F6B6457E0 SWAP2 SWAP1 LOG3 POP POP JUMP JUMPDEST PUSH1 0x0 SLOAD PUSH1 0x1 PUSH1 0xA0 SHL SWAP1 DIV PUSH1 0xFF AND ISZERO PUSH2 0xF63 JUMPI PUSH1 0x40 MLOAD PUSH3 0x461BCD PUSH1 0xE5 SHL DUP2 MSTORE PUSH1 0x20 PUSH1 0x4 DUP3 ADD MSTORE PUSH1 0x10 PUSH1 0x24 DUP3 ADD MSTORE PUSH16 0x14185D5CD8589B194E881C185D5CD959 PUSH1 0x82 SHL PUSH1 0x44 DUP3 ADD MSTORE PUSH1 0x64 ADD PUSH2 0x4BE JUMP JUMPDEST PUSH1 0x0 DUP1 SLOAD PUSH1 0xFF PUSH1 0xA0 SHL NOT AND PUSH1 0x1 PUSH1 0xA0 SHL OR SWAP1 SSTORE PUSH32 0x62E78CEA01BEE320CD4E420270B5EA74000D11B0C9F74754EBDBFC544B05A258 PUSH2 0xEA9 CALLER SWAP1 JUMP JUMPDEST DUP1 CALLDATALOAD PUSH1 0x1 PUSH1 0x1 PUSH1 0xA0 SHL SUB DUP2 AND DUP2 EQ PUSH2 0xFB5 JUMPI PUSH1 0x0 DUP1 REVERT JUMPDEST SWAP2 SWAP1 POP JUMP JUMPDEST PUSH1 0x0 PUSH1 0x20 DUP3 DUP5 SUB SLT ISZERO PUSH2 0xFCC JUMPI PUSH1 0x0 DUP1 REVERT JUMPDEST PUSH2 0xFD5 DUP3 PUSH2 0xF9E JUMP JUMPDEST SWAP4 SWAP3 POP POP POP JUMP JUMPDEST PUSH1 0x0 DUP1 PUSH1 0x40 DUP4 DUP6 SUB SLT ISZERO PUSH2 0xFEF JUMPI PUSH1 0x0 DUP1 REVERT JUMPDEST PUSH2 0xFF8 DUP4 PUSH2 0xF9E JUMP JUMPDEST SWAP5 PUSH1 0x20 SWAP4 SWAP1 SWAP4 ADD CALLDATALOAD SWAP4 POP POP POP JUMP JUMPDEST PUSH1 0x0 PUSH1 0x20 DUP3 DUP5 SUB SLT ISZERO PUSH2 0x1018 JUMPI PUSH1 0x0 DUP1 REVERT JUMPDEST DUP2 MLOAD DUP1 ISZERO ISZERO DUP2 EQ PUSH2 0xFD5 JUMPI PUSH1 0x0 DUP1 REVERT JUMPDEST PUSH1 0x0 PUSH1 0x20 DUP3 DUP5 SUB SLT ISZERO PUSH2 0x103A JUMPI PUSH1 0x0 DUP1 REVERT JUMPDEST POP CALLDATALOAD SWAP2 SWAP1 POP JUMP JUMPDEST PUSH1 0x0 DUP1 PUSH1 0x40 DUP4 DUP6 SUB SLT ISZERO PUSH2 0x1054 JUMPI PUSH1 0x0 DUP1 REVERT JUMPDEST POP POP DUP1 CALLDATALOAD SWAP3 PUSH1 0x20 SWAP1 SWAP2 ADD CALLDATALOAD SWAP2 POP JUMP JUMPDEST PUSH1 0x0 DUP1 PUSH1 0x0 PUSH1 0x60 DUP5 DUP7 SUB SLT ISZERO PUSH2 0x1078 JUMPI PUSH1 0x0 DUP1 REVERT JUMPDEST POP POP DUP2 CALLDATALOAD SWAP4 PUSH1 0x20 DUP4 ADD CALLDATALOAD SWAP4 POP PUSH1 0x40 SWAP1 SWAP3 ADD CALLDATALOAD SWAP2 SWAP1 POP JUMP JUMPDEST PUSH1 0x1 PUSH1 0x1 PUSH1 0xA0 SHL SUB SWAP4 SWAP1 SWAP4 AND DUP4 MSTORE PUSH1 0x20 DUP4 ADD SWAP2 SWAP1 SWAP2 MSTORE PUSH1 0x40 DUP3 ADD MSTORE PUSH1 0x60 ADD SWAP1 JUMP JUMPDEST PUSH1 0x20 DUP1 DUP3 MSTORE DUP2 DUP2 ADD MSTORE PUSH32 0x4F776E61626C653A2063616C6C6572206973206E6F7420746865206F776E6572 PUSH1 0x40 DUP3 ADD MSTORE PUSH1 0x60 ADD SWAP1 JUMP JUMPDEST PUSH1 0x0 DUP3 NOT DUP3 GT ISZERO PUSH2 0x10F8 JUMPI PUSH2 0x10F8 PUSH2 0x1155 JUMP JUMPDEST POP ADD SWAP1 JUMP JUMPDEST PUSH1 0x0 DUP3 PUSH2 0x111A JUMPI PUSH4 0x4E487B71 PUSH1 0xE0 SHL PUSH1 0x0 MSTORE PUSH1 0x12 PUSH1 0x4 MSTORE PUSH1 0x24 PUSH1 0x0 REVERT JUMPDEST POP DIV SWAP1 JUMP JUMPDEST PUSH1 0x0 DUP2 PUSH1 0x0 NOT DIV DUP4 GT DUP3 ISZERO ISZERO AND ISZERO PUSH2 0x1139 JUMPI PUSH2 0x1139 PUSH2 0x1155 JUMP JUMPDEST POP MUL SWAP1 JUMP JUMPDEST PUSH1 0x0 DUP3 DUP3 LT ISZERO PUSH2 0x1150 JUMPI PUSH2 0x1150 PUSH2 0x1155 JUMP JUMPDEST POP SUB SWAP1 JUMP JUMPDEST PUSH4 0x4E487B71 PUSH1 0xE0 SHL PUSH1 0x0 MSTORE PUSH1 0x11 PUSH1 0x4 MSTORE PUSH1 0x24 PUSH1 0x0 REVERT INVALID LOG2 PUSH5 0x6970667358 0x22 SLT KECCAK256 0x4B SWAP2 SUB JUMPI DUP15 0xDC CALLVALUE RETURN DUP4 0xEA LOG2 0x21 PUSH12 0xDE5AA11AC540CFB2C3BB2236 PUSH29 0x1BE6CD99AD6764736F6C63430008070033000000000000000000000000 "
				},
				"gasEstimates": {
					"creation": {
						"codeDepositCost": "902600",
						"executionCost": "infinite",
						"totalCost": "infinite"
					},
					"external": {
						"acceptedToken()": "2382",
						"calculateRewards(address,uint256)": "infinite",
						"changeLevelValues(uint256,uint256,uint256)": "46737",
						"claim(uint256)": "infinite",
						"compound(uint256)": "infinite",
						"deposit(uint256,uint256)": "infinite",
						"getLevelsInfo()": "13323",
						"getUserInfo(address)": "infinite",
						"levelInfo(uint256)": "4665",
						"owner()": "2398",
						"pause()": "29824",
						"paused()": "2376",
						"renounceOwnership()": "28137",
						"transferOwnership(address)": "28419",
						"unpause()": "29840",
						"userLevelDeposit(address,uint256)": "6891",
						"withdraw(uint256,uint256)": "infinite"
					}
				},
				"methodIdentifiers": {
					"acceptedToken()": "451c3d80",
					"calculateRewards(address,uint256)": "beb8314c",
					"changeLevelValues(uint256,uint256,uint256)": "32e96203",
					"claim(uint256)": "379607f5",
					"compound(uint256)": "aa5f7e26",
					"deposit(uint256,uint256)": "e2bbb158",
					"getLevelsInfo()": "e788cee5",
					"getUserInfo(address)": "6386c1c7",
					"levelInfo(uint256)": "edf501ad",
					"owner()": "8da5cb5b",
					"pause()": "8456cb59",
					"paused()": "5c975abb",
					"renounceOwnership()": "715018a6",
					"transferOwnership(address)": "f2fde38b",
					"unpause()": "3f4ba83a",
					"userLevelDeposit(address,uint256)": "259ee752",
					"withdraw(uint256,uint256)": "441a3e70"
				}
			},
			"storageLayout": {
				"storage": [
					{
						"astId": 7,
						"contract": "staking.sol:AcesStaking",
						"label": "_owner",
						"offset": 0,
						"slot": "0",
						"type": "t_address"
					},
					{
						"astId": 122,
						"contract": "staking.sol:AcesStaking",
						"label": "_paused",
						"offset": 20,
						"slot": "0",
						"type": "t_bool"
					},
					{
						"astId": 308,
						"contract": "staking.sol:AcesStaking",
						"label": "acceptedToken",
						"offset": 0,
						"slot": "1",
						"type": "t_contract(IERC20)274"
					},
					{
						"astId": 327,
						"contract": "staking.sol:AcesStaking",
						"label": "userLevelDeposit",
						"offset": 0,
						"slot": "2",
						"type": "t_mapping(t_address,t_mapping(t_uint256,t_struct(User)315_storage))"
					},
					{
						"astId": 332,
						"contract": "staking.sol:AcesStaking",
						"label": "levelInfo",
						"offset": 0,
						"slot": "3",
						"type": "t_mapping(t_uint256,t_struct(Level)320_storage)"
					}
				],
				"types": {
					"t_address": {
						"encoding": "inplace",
						"label": "address",
						"numberOfBytes": "20"
					},
					"t_bool": {
						"encoding": "inplace",
						"label": "bool",
						"numberOfBytes": "1"
					},
					"t_contract(IERC20)274": {
						"encoding": "inplace",
						"label": "contract IERC20",
						"numberOfBytes": "20"
					},
					"t_mapping(t_address,t_mapping(t_uint256,t_struct(User)315_storage))": {
						"encoding": "mapping",
						"key": "t_address",
						"label": "mapping(address => mapping(uint256 => struct AcesStaking.User))",
						"numberOfBytes": "32",
						"value": "t_mapping(t_uint256,t_struct(User)315_storage)"
					},
					"t_mapping(t_uint256,t_struct(Level)320_storage)": {
						"encoding": "mapping",
						"key": "t_uint256",
						"label": "mapping(uint256 => struct AcesStaking.Level)",
						"numberOfBytes": "32",
						"value": "t_struct(Level)320_storage"
					},
					"t_mapping(t_uint256,t_struct(User)315_storage)": {
						"encoding": "mapping",
						"key": "t_uint256",
						"label": "mapping(uint256 => struct AcesStaking.User)",
						"numberOfBytes": "32",
						"value": "t_struct(User)315_storage"
					},
					"t_struct(Level)320_storage": {
						"encoding": "inplace",
						"label": "struct AcesStaking.Level",
						"members": [
							{
								"astId": 317,
								"contract": "staking.sol:AcesStaking",
								"label": "APY",
								"offset": 0,
								"slot": "0",
								"type": "t_uint256"
							},
							{
								"astId": 319,
								"contract": "staking.sol:AcesStaking",
								"label": "lockPeriod",
								"offset": 0,
								"slot": "1",
								"type": "t_uint256"
							}
						],
						"numberOfBytes": "64"
					},
					"t_struct(User)315_storage": {
						"encoding": "inplace",
						"label": "struct AcesStaking.User",
						"members": [
							{
								"astId": 310,
								"contract": "staking.sol:AcesStaking",
								"label": "balance",
								"offset": 0,
								"slot": "0",
								"type": "t_uint256"
							},
							{
								"astId": 312,
								"contract": "staking.sol:AcesStaking",
								"label": "started",
								"offset": 0,
								"slot": "1",
								"type": "t_uint256"
							},
							{
								"astId": 314,
								"contract": "staking.sol:AcesStaking",
								"label": "unlockTime",
								"offset": 0,
								"slot": "2",
								"type": "t_uint256"
							}
						],
						"numberOfBytes": "96"
					},
					"t_uint256": {
						"encoding": "inplace",
						"label": "uint256",
						"numberOfBytes": "32"
					}
				}
			},
			"userdoc": {
				"kind": "user",
				"methods": {},
				"version": 1
			}
		}
	}
}