{
	"lotto.sol": {
		"ACELotto": {
			"abi": [
				{
					"inputs": [
						{
							"internalType": "address",
							"name": "_aces",
							"type": "address"
						}
					],
					"stateMutability": "nonpayable",
					"type": "constructor"
				},
				{
					"anonymous": false,
					"inputs": [
						{
							"indexed": false,
							"internalType": "address",
							"name": "winner",
							"type": "address"
						},
						{
							"indexed": false,
							"internalType": "uint256",
							"name": "amount",
							"type": "uint256"
						}
					],
					"name": "LotteryWon",
					"type": "event"
				},
				{
					"anonymous": false,
					"inputs": [
						{
							"indexed": true,
							"internalType": "address",
							"name": "previousOwner",
							"type": "address"
						},
						{
							"indexed": true,
							"internalType": "address",
							"name": "newOwner",
							"type": "address"
						}
					],
					"name": "OwnershipTransferred",
					"type": "event"
				},
				{
					"inputs": [],
					"name": "acesToken",
					"outputs": [
						{
							"internalType": "contract IERC20",
							"name": "",
							"type": "address"
						}
					],
					"stateMutability": "view",
					"type": "function"
				},
				{
					"inputs": [],
					"name": "currentJackpot",
					"outputs": [
						{
							"internalType": "uint256",
							"name": "",
							"type": "uint256"
						}
					],
					"stateMutability": "view",
					"type": "function"
				},
				{
					"inputs": [
						{
							"internalType": "address",
							"name": "",
							"type": "address"
						},
						{
							"internalType": "uint256",
							"name": "",
							"type": "uint256"
						}
					],
					"name": "entriesIndex",
					"outputs": [
						{
							"internalType": "uint256",
							"name": "",
							"type": "uint256"
						}
					],
					"stateMutability": "view",
					"type": "function"
				},
				{
					"inputs": [
						{
							"internalType": "uint256",
							"name": "",
							"type": "uint256"
						},
						{
							"internalType": "address",
							"name": "",
							"type": "address"
						}
					],
					"name": "entriesPerRound",
					"outputs": [
						{
							"internalType": "uint256",
							"name": "",
							"type": "uint256"
						}
					],
					"stateMutability": "view",
					"type": "function"
				},
				{
					"inputs": [
						{
							"internalType": "address",
							"name": "account",
							"type": "address"
						}
					],
					"name": "isActiveAccount",
					"outputs": [
						{
							"internalType": "bool",
							"name": "",
							"type": "bool"
						}
					],
					"stateMutability": "view",
					"type": "function"
				},
				{
					"inputs": [],
					"name": "owner",
					"outputs": [
						{
							"internalType": "address",
							"name": "",
							"type": "address"
						}
					],
					"stateMutability": "view",
					"type": "function"
				},
				{
					"inputs": [],
					"name": "pickWinner",
					"outputs": [],
					"stateMutability": "nonpayable",
					"type": "function"
				},
				{
					"inputs": [
						{
							"internalType": "address",
							"name": "account",
							"type": "address"
						}
					],
					"name": "removeAccount",
					"outputs": [],
					"stateMutability": "nonpayable",
					"type": "function"
				},
				{
					"inputs": [
						{
							"internalType": "address",
							"name": "account",
							"type": "address"
						},
						{
							"internalType": "uint256",
							"name": "amount",
							"type": "uint256"
						}
					],
					"name": "removeEntryFromWallet",
					"outputs": [],
					"stateMutability": "nonpayable",
					"type": "function"
				},
				{
					"inputs": [],
					"name": "renounceOwnership",
					"outputs": [],
					"stateMutability": "nonpayable",
					"type": "function"
				},
				{
					"inputs": [],
					"name": "roundEntries",
					"outputs": [
						{
							"internalType": "uint256",
							"name": "",
							"type": "uint256"
						}
					],
					"stateMutability": "view",
					"type": "function"
				},
				{
					"inputs": [
						{
							"internalType": "uint256",
							"name": "",
							"type": "uint256"
						}
					],
					"name": "roundEntry",
					"outputs": [
						{
							"internalType": "address",
							"name": "",
							"type": "address"
						}
					],
					"stateMutability": "view",
					"type": "function"
				},
				{
					"inputs": [],
					"name": "roundNum",
					"outputs": [
						{
							"internalType": "uint256",
							"name": "",
							"type": "uint256"
						}
					],
					"stateMutability": "view",
					"type": "function"
				},
				{
					"inputs": [
						{
							"internalType": "uint256",
							"name": "",
							"type": "uint256"
						}
					],
					"name": "roundResults",
					"outputs": [
						{
							"internalType": "uint256",
							"name": "totalEntries",
							"type": "uint256"
						},
						{
							"internalType": "uint256",
							"name": "winningNumber",
							"type": "uint256"
						},
						{
							"internalType": "uint256",
							"name": "payout",
							"type": "uint256"
						},
						{
							"internalType": "uint256",
							"name": "endTime",
							"type": "uint256"
						},
						{
							"internalType": "address",
							"name": "winningAddress",
							"type": "address"
						}
					],
					"stateMutability": "view",
					"type": "function"
				},
				{
					"inputs": [],
					"name": "totalPayout",
					"outputs": [
						{
							"internalType": "uint256",
							"name": "",
							"type": "uint256"
						}
					],
					"stateMutability": "view",
					"type": "function"
				},
				{
					"inputs": [
						{
							"internalType": "address",
							"name": "newOwner",
							"type": "address"
						}
					],
					"name": "transferOwnership",
					"outputs": [],
					"stateMutability": "nonpayable",
					"type": "function"
				},
				{
					"inputs": [
						{
							"internalType": "address",
							"name": "account",
							"type": "address"
						},
						{
							"internalType": "uint256",
							"name": "amount",
							"type": "uint256"
						}
					],
					"name": "updateAccount",
					"outputs": [],
					"stateMutability": "nonpayable",
					"type": "function"
				}
			],
			"devdoc": {
				"kind": "dev",
				"methods": {
					"owner()": {
						"details": "Returns the address of the current owner."
					},
					"renounceOwnership()": {
						"details": "Leaves the contract without owner. It will not be possible to call `onlyOwner` functions anymore. Can only be called by the current owner. NOTE: Renouncing ownership will leave the contract without an owner, thereby removing any functionality that is only available to the owner."
					},
					"transferOwnership(address)": {
						"details": "Transfers ownership of the contract to a new account (`newOwner`). Can only be called by the current owner."
					}
				},
				"version": 1
			},
			"evm": {
				"assembly": "    /* \"lotto.sol\":595:3779  contract ACELotto is Ownable {   \r... */\n  mstore(0x40, 0x80)\n    /* \"lotto.sol\":1249:1319  constructor(address _aces){\r... */\n  callvalue\n  dup1\n  iszero\n  tag_1\n  jumpi\n  0x00\n  dup1\n  revert\ntag_1:\n  pop\n  mload(0x40)\n  sub(codesize, bytecodeSize)\n  dup1\n  bytecodeSize\n  dup4\n  codecopy\n  dup2\n  dup2\n  add\n  0x40\n  mstore\n  dup2\n  add\n  swap1\n  tag_2\n  swap2\n  swap1\n  tag_3\n  jump\t// in\ntag_2:\n    /* \"https://github.com/OpenZeppelin/openzeppelin-contracts/blob/master/contracts/access/Ownable.sol\":921:953  _transferOwnership(_msgSender()) */\n  tag_7\n    /* \"https://github.com/OpenZeppelin/openzeppelin-contracts/blob/master/contracts/access/Ownable.sol\":940:952  _msgSender() */\n  tag_8\n    /* \"https://github.com/OpenZeppelin/openzeppelin-contracts/blob/master/contracts/access/Ownable.sol\":940:950  _msgSender */\n  shl(0x20, tag_9)\n    /* \"https://github.com/OpenZeppelin/openzeppelin-contracts/blob/master/contracts/access/Ownable.sol\":940:952  _msgSender() */\n  0x20\n  shr\n  jump\t// in\ntag_8:\n    /* \"https://github.com/OpenZeppelin/openzeppelin-contracts/blob/master/contracts/access/Ownable.sol\":921:939  _transferOwnership */\n  shl(0x20, tag_10)\n    /* \"https://github.com/OpenZeppelin/openzeppelin-contracts/blob/master/contracts/access/Ownable.sol\":921:953  _transferOwnership(_msgSender()) */\n  0x20\n  shr\n  jump\t// in\ntag_7:\n    /* \"lotto.sol\":1305:1310  _aces */\n  dup1\n    /* \"lotto.sol\":1286:1295  acesToken */\n  0x04\n  0x00\n    /* \"lotto.sol\":1286:1311  acesToken = IERC20(_aces) */\n  0x0100\n  exp\n  dup2\n  sload\n  dup2\n  0xffffffffffffffffffffffffffffffffffffffff\n  mul\n  not\n  and\n  swap1\n  dup4\n  0xffffffffffffffffffffffffffffffffffffffff\n  and\n  mul\n  or\n  swap1\n  sstore\n  pop\n    /* \"lotto.sol\":1249:1319  constructor(address _aces){\r... */\n  pop\n    /* \"lotto.sol\":595:3779  contract ACELotto is Ownable {   \r... */\n  jump(tag_12)\n    /* \"https://github.com/OpenZeppelin/openzeppelin-contracts/blob/master/contracts/utils/Context.sol\":640:736  function _msgSender() internal view virtual returns (address) {... */\ntag_9:\n    /* \"https://github.com/OpenZeppelin/openzeppelin-contracts/blob/master/contracts/utils/Context.sol\":693:700  address */\n  0x00\n    /* \"https://github.com/OpenZeppelin/openzeppelin-contracts/blob/master/contracts/utils/Context.sol\":719:729  msg.sender */\n  caller\n    /* \"https://github.com/OpenZeppelin/openzeppelin-contracts/blob/master/contracts/utils/Context.sol\":712:729  return msg.sender */\n  swap1\n  pop\n    /* \"https://github.com/OpenZeppelin/openzeppelin-contracts/blob/master/contracts/utils/Context.sol\":640:736  function _msgSender() internal view virtual returns (address) {... */\n  swap1\n  jump\t// out\n    /* \"https://github.com/OpenZeppelin/openzeppelin-contracts/blob/master/contracts/access/Ownable.sol\":2270:2457  function _transferOwnership(address newOwner) internal virtual {... */\ntag_10:\n    /* \"https://github.com/OpenZeppelin/openzeppelin-contracts/blob/master/contracts/access/Ownable.sol\":2343:2359  address oldOwner */\n  0x00\n    /* \"https://github.com/OpenZeppelin/openzeppelin-contracts/blob/master/contracts/access/Ownable.sol\":2362:2368  _owner */\n  dup1\n  0x00\n  swap1\n  sload\n  swap1\n  0x0100\n  exp\n  swap1\n  div\n  0xffffffffffffffffffffffffffffffffffffffff\n  and\n    /* \"https://github.com/OpenZeppelin/openzeppelin-contracts/blob/master/contracts/access/Ownable.sol\":2343:2368  address oldOwner = _owner */\n  swap1\n  pop\n    /* \"https://github.com/OpenZeppelin/openzeppelin-contracts/blob/master/contracts/access/Ownable.sol\":2387:2395  newOwner */\n  dup2\n    /* \"https://github.com/OpenZeppelin/openzeppelin-contracts/blob/master/contracts/access/Ownable.sol\":2378:2384  _owner */\n  0x00\n  dup1\n    /* \"https://github.com/OpenZeppelin/openzeppelin-contracts/blob/master/contracts/access/Ownable.sol\":2378:2395  _owner = newOwner */\n  0x0100\n  exp\n  dup2\n  sload\n  dup2\n  0xffffffffffffffffffffffffffffffffffffffff\n  mul\n  not\n  and\n  swap1\n  dup4\n  0xffffffffffffffffffffffffffffffffffffffff\n  and\n  mul\n  or\n  swap1\n  sstore\n  pop\n    /* \"https://github.com/OpenZeppelin/openzeppelin-contracts/blob/master/contracts/access/Ownable.sol\":2441:2449  newOwner */\n  dup2\n    /* \"https://github.com/OpenZeppelin/openzeppelin-contracts/blob/master/contracts/access/Ownable.sol\":2410:2450  OwnershipTransferred(oldOwner, newOwner) */\n  0xffffffffffffffffffffffffffffffffffffffff\n  and\n    /* \"https://github.com/OpenZeppelin/openzeppelin-contracts/blob/master/contracts/access/Ownable.sol\":2431:2439  oldOwner */\n  dup2\n    /* \"https://github.com/OpenZeppelin/openzeppelin-contracts/blob/master/contracts/access/Ownable.sol\":2410:2450  OwnershipTransferred(oldOwner, newOwner) */\n  0xffffffffffffffffffffffffffffffffffffffff\n  and\n  0x8be0079c531659141344cd1fd0a4f28419497f9722a3daafe3b4186f6b6457e0\n  mload(0x40)\n  mload(0x40)\n  dup1\n  swap2\n  sub\n  swap1\n  log3\n    /* \"https://github.com/OpenZeppelin/openzeppelin-contracts/blob/master/contracts/access/Ownable.sol\":2333:2457  {... */\n  pop\n    /* \"https://github.com/OpenZeppelin/openzeppelin-contracts/blob/master/contracts/access/Ownable.sol\":2270:2457  function _transferOwnership(address newOwner) internal virtual {... */\n  pop\n  jump\t// out\n    /* \"#utility.yul\":7:150   */\ntag_16:\n    /* \"#utility.yul\":64:69   */\n  0x00\n    /* \"#utility.yul\":95:101   */\n  dup2\n    /* \"#utility.yul\":89:102   */\n  mload\n    /* \"#utility.yul\":80:102   */\n  swap1\n  pop\n    /* \"#utility.yul\":111:144   */\n  tag_18\n    /* \"#utility.yul\":138:143   */\n  dup2\n    /* \"#utility.yul\":111:144   */\n  tag_19\n  jump\t// in\ntag_18:\n    /* \"#utility.yul\":7:150   */\n  swap3\n  swap2\n  pop\n  pop\n  jump\t// out\n    /* \"#utility.yul\":156:507   */\ntag_3:\n    /* \"#utility.yul\":226:232   */\n  0x00\n    /* \"#utility.yul\":275:277   */\n  0x20\n    /* \"#utility.yul\":263:272   */\n  dup3\n    /* \"#utility.yul\":254:261   */\n  dup5\n    /* \"#utility.yul\":250:273   */\n  sub\n    /* \"#utility.yul\":246:278   */\n  slt\n    /* \"#utility.yul\":243:362   */\n  iszero\n  tag_21\n  jumpi\n    /* \"#utility.yul\":281:360   */\n  tag_22\n  tag_23\n  jump\t// in\ntag_22:\n    /* \"#utility.yul\":243:362   */\ntag_21:\n    /* \"#utility.yul\":401:402   */\n  0x00\n    /* \"#utility.yul\":426:490   */\n  tag_24\n    /* \"#utility.yul\":482:489   */\n  dup5\n    /* \"#utility.yul\":473:479   */\n  dup3\n    /* \"#utility.yul\":462:471   */\n  dup6\n    /* \"#utility.yul\":458:480   */\n  add\n    /* \"#utility.yul\":426:490   */\n  tag_16\n  jump\t// in\ntag_24:\n    /* \"#utility.yul\":416:490   */\n  swap2\n  pop\n    /* \"#utility.yul\":372:500   */\n  pop\n    /* \"#utility.yul\":156:507   */\n  swap3\n  swap2\n  pop\n  pop\n  jump\t// out\n    /* \"#utility.yul\":594:690   */\ntag_27:\n    /* \"#utility.yul\":631:638   */\n  0x00\n    /* \"#utility.yul\":660:684   */\n  tag_29\n    /* \"#utility.yul\":678:683   */\n  dup3\n    /* \"#utility.yul\":660:684   */\n  tag_30\n  jump\t// in\ntag_29:\n    /* \"#utility.yul\":649:684   */\n  swap1\n  pop\n    /* \"#utility.yul\":594:690   */\n  swap2\n  swap1\n  pop\n  jump\t// out\n    /* \"#utility.yul\":696:822   */\ntag_30:\n    /* \"#utility.yul\":733:740   */\n  0x00\n    /* \"#utility.yul\":773:815   */\n  0xffffffffffffffffffffffffffffffffffffffff\n    /* \"#utility.yul\":766:771   */\n  dup3\n    /* \"#utility.yul\":762:816   */\n  and\n    /* \"#utility.yul\":751:816   */\n  swap1\n  pop\n    /* \"#utility.yul\":696:822   */\n  swap2\n  swap1\n  pop\n  jump\t// out\n    /* \"#utility.yul\":951:1068   */\ntag_23:\n    /* \"#utility.yul\":1060:1061   */\n  0x00\n    /* \"#utility.yul\":1057:1058   */\n  dup1\n    /* \"#utility.yul\":1050:1062   */\n  revert\n    /* \"#utility.yul\":1074:1196   */\ntag_19:\n    /* \"#utility.yul\":1147:1171   */\n  tag_36\n    /* \"#utility.yul\":1165:1170   */\n  dup2\n    /* \"#utility.yul\":1147:1171   */\n  tag_27\n  jump\t// in\ntag_36:\n    /* \"#utility.yul\":1140:1145   */\n  dup2\n    /* \"#utility.yul\":1137:1172   */\n  eq\n    /* \"#utility.yul\":1127:1190   */\n  tag_37\n  jumpi\n    /* \"#utility.yul\":1186:1187   */\n  0x00\n    /* \"#utility.yul\":1183:1184   */\n  dup1\n    /* \"#utility.yul\":1176:1188   */\n  revert\n    /* \"#utility.yul\":1127:1190   */\ntag_37:\n    /* \"#utility.yul\":1074:1196   */\n  pop\n  jump\t// out\n    /* \"lotto.sol\":595:3779  contract ACELotto is Ownable {   \r... */\ntag_12:\n  dataSize(sub_0)\n  dup1\n  dataOffset(sub_0)\n  0x00\n  codecopy\n  0x00\n  return\nstop\n\nsub_0: assembly {\n        /* \"lotto.sol\":595:3779  contract ACELotto is Ownable {   \r... */\n      mstore(0x40, 0x80)\n      callvalue\n      dup1\n      iszero\n      tag_1\n      jumpi\n      0x00\n      dup1\n      revert\n    tag_1:\n      pop\n      jumpi(tag_2, lt(calldatasize, 0x04))\n      shr(0xe0, calldataload(0x00))\n      dup1\n      0x76636d20\n      gt\n      tag_20\n      jumpi\n      dup1\n      0xac128f4f\n      gt\n      tag_21\n      jumpi\n      dup1\n      0xac128f4f\n      eq\n      tag_15\n      jumpi\n      dup1\n      0xb657dd65\n      eq\n      tag_16\n      jumpi\n      dup1\n      0xc4740a95\n      eq\n      tag_17\n      jumpi\n      dup1\n      0xf2fde38b\n      eq\n      tag_18\n      jumpi\n      dup1\n      0xf9cee0bd\n      eq\n      tag_19\n      jumpi\n      jump(tag_2)\n    tag_21:\n      dup1\n      0x76636d20\n      eq\n      tag_11\n      jumpi\n      dup1\n      0x8da5cb5b\n      eq\n      tag_12\n      jumpi\n      dup1\n      0x9b3e4552\n      eq\n      tag_13\n      jumpi\n      dup1\n      0xa59460dc\n      eq\n      tag_14\n      jumpi\n      jump(tag_2)\n    tag_20:\n      dup1\n      0x578e3f88\n      gt\n      tag_22\n      jumpi\n      dup1\n      0x578e3f88\n      eq\n      tag_7\n      jumpi\n      dup1\n      0x5bedc390\n      eq\n      tag_8\n      jumpi\n      dup1\n      0x5d495aea\n      eq\n      tag_9\n      jumpi\n      dup1\n      0x715018a6\n      eq\n      tag_10\n      jumpi\n      jump(tag_2)\n    tag_22:\n      dup1\n      0x0d988270\n      eq\n      tag_3\n      jumpi\n      dup1\n      0x119b22b3\n      eq\n      tag_4\n      jumpi\n      dup1\n      0x443b80a1\n      eq\n      tag_5\n      jumpi\n      dup1\n      0x454f7b8f\n      eq\n      tag_6\n      jumpi\n    tag_2:\n      0x00\n      dup1\n      revert\n        /* \"lotto.sol\":1134:1183  mapping(address => uint256[]) public entriesIndex */\n    tag_3:\n      tag_23\n      0x04\n      dup1\n      calldatasize\n      sub\n      dup2\n      add\n      swap1\n      tag_24\n      swap2\n      swap1\n      tag_25\n      jump\t// in\n    tag_24:\n      tag_26\n      jump\t// in\n    tag_23:\n      mload(0x40)\n      tag_27\n      swap2\n      swap1\n      tag_28\n      jump\t// in\n    tag_27:\n      mload(0x40)\n      dup1\n      swap2\n      sub\n      swap1\n      return\n        /* \"lotto.sol\":668:691  uint256 public roundNum */\n    tag_4:\n      tag_29\n      tag_30\n      jump\t// in\n    tag_29:\n      mload(0x40)\n      tag_31\n      swap2\n      swap1\n      tag_28\n      jump\t// in\n    tag_31:\n      mload(0x40)\n      dup1\n      swap2\n      sub\n      swap1\n      return\n        /* \"lotto.sol\":1327:1662  function updateAccount(address account, uint256 amount) external{\r... */\n    tag_5:\n      tag_32\n      0x04\n      dup1\n      calldatasize\n      sub\n      dup2\n      add\n      swap1\n      tag_33\n      swap2\n      swap1\n      tag_25\n      jump\t// in\n    tag_33:\n      tag_34\n      jump\t// in\n    tag_32:\n      stop\n        /* \"lotto.sol\":698:724  uint256 public totalPayout */\n    tag_6:\n      tag_35\n      tag_36\n      jump\t// in\n    tag_35:\n      mload(0x40)\n      tag_37\n      swap2\n      swap1\n      tag_28\n      jump\t// in\n    tag_37:\n      mload(0x40)\n      dup1\n      swap2\n      sub\n      swap1\n      return\n        /* \"lotto.sol\":1057:1127  mapping(uint256 => mapping(address => uint256)) public entriesPerRound */\n    tag_7:\n      tag_38\n      0x04\n      dup1\n      calldatasize\n      sub\n      dup2\n      add\n      swap1\n      tag_39\n      swap2\n      swap1\n      tag_40\n      jump\t// in\n    tag_39:\n      tag_41\n      jump\t// in\n    tag_38:\n      mload(0x40)\n      tag_42\n      swap2\n      swap1\n      tag_28\n      jump\t// in\n    tag_42:\n      mload(0x40)\n      dup1\n      swap2\n      sub\n      swap1\n      return\n        /* \"lotto.sol\":2522:2705  function isActiveAccount(address account) external view returns(bool){\r... */\n    tag_8:\n      tag_43\n      0x04\n      dup1\n      calldatasize\n      sub\n      dup2\n      add\n      swap1\n      tag_44\n      swap2\n      swap1\n      tag_45\n      jump\t// in\n    tag_44:\n      tag_46\n      jump\t// in\n    tag_43:\n      mload(0x40)\n      tag_47\n      swap2\n      swap1\n      tag_48\n      jump\t// in\n    tag_47:\n      mload(0x40)\n      dup1\n      swap2\n      sub\n      swap1\n      return\n        /* \"lotto.sol\":2713:3271  function pickWinner() external onlyOwner {\r... */\n    tag_9:\n      tag_49\n      tag_50\n      jump\t// in\n    tag_49:\n      stop\n        /* \"https://github.com/OpenZeppelin/openzeppelin-contracts/blob/master/contracts/access/Ownable.sol\":1668:1769  function renounceOwnership() public virtual onlyOwner {... */\n    tag_10:\n      tag_51\n      tag_52\n      jump\t// in\n    tag_51:\n      stop\n        /* \"lotto.sol\":634:661  uint256 public roundEntries */\n    tag_11:\n      tag_53\n      tag_54\n      jump\t// in\n    tag_53:\n      mload(0x40)\n      tag_55\n      swap2\n      swap1\n      tag_28\n      jump\t// in\n    tag_55:\n      mload(0x40)\n      dup1\n      swap2\n      sub\n      swap1\n      return\n        /* \"https://github.com/OpenZeppelin/openzeppelin-contracts/blob/master/contracts/access/Ownable.sol\":1036:1121  function owner() public view virtual returns (address) {... */\n    tag_12:\n      tag_56\n      tag_57\n      jump\t// in\n    tag_56:\n      mload(0x40)\n      tag_58\n      swap2\n      swap1\n      tag_59\n      jump\t// in\n    tag_58:\n      mload(0x40)\n      dup1\n      swap2\n      sub\n      swap1\n      return\n        /* \"lotto.sol\":737:760  IERC20 public acesToken */\n    tag_13:\n      tag_60\n      tag_61\n      jump\t// in\n    tag_60:\n      mload(0x40)\n      tag_62\n      swap2\n      swap1\n      tag_63\n      jump\t// in\n    tag_62:\n      mload(0x40)\n      dup1\n      swap2\n      sub\n      swap1\n      return\n        /* \"lotto.sol\":1670:2323  function removeEntryFromWallet(address account, uint256 amount) public {\r... */\n    tag_14:\n      tag_64\n      0x04\n      dup1\n      calldatasize\n      sub\n      dup2\n      add\n      swap1\n      tag_65\n      swap2\n      swap1\n      tag_25\n      jump\t// in\n    tag_65:\n      tag_66\n      jump\t// in\n    tag_64:\n      stop\n        /* \"lotto.sol\":951:998  mapping(uint256 => Results) public roundResults */\n    tag_15:\n      tag_67\n      0x04\n      dup1\n      calldatasize\n      sub\n      dup2\n      add\n      swap1\n      tag_68\n      swap2\n      swap1\n      tag_69\n      jump\t// in\n    tag_68:\n      tag_70\n      jump\t// in\n    tag_67:\n      mload(0x40)\n      tag_71\n      swap6\n      swap5\n      swap4\n      swap3\n      swap2\n      swap1\n      tag_72\n      jump\t// in\n    tag_71:\n      mload(0x40)\n      dup1\n      swap2\n      sub\n      swap1\n      return\n        /* \"lotto.sol\":1005:1050  mapping(uint256 => address) public roundEntry */\n    tag_16:\n      tag_73\n      0x04\n      dup1\n      calldatasize\n      sub\n      dup2\n      add\n      swap1\n      tag_74\n      swap2\n      swap1\n      tag_69\n      jump\t// in\n    tag_74:\n      tag_75\n      jump\t// in\n    tag_73:\n      mload(0x40)\n      tag_76\n      swap2\n      swap1\n      tag_59\n      jump\t// in\n    tag_76:\n      mload(0x40)\n      dup1\n      swap2\n      sub\n      swap1\n      return\n        /* \"lotto.sol\":2331:2514  function removeAccount(address account) external{\r... */\n    tag_17:\n      tag_77\n      0x04\n      dup1\n      calldatasize\n      sub\n      dup2\n      add\n      swap1\n      tag_78\n      swap2\n      swap1\n      tag_45\n      jump\t// in\n    tag_78:\n      tag_79\n      jump\t// in\n    tag_77:\n      stop\n        /* \"https://github.com/OpenZeppelin/openzeppelin-contracts/blob/master/contracts/access/Ownable.sol\":1918:2116  function transferOwnership(address newOwner) public virtual onlyOwner {... */\n    tag_18:\n      tag_80\n      0x04\n      dup1\n      calldatasize\n      sub\n      dup2\n      add\n      swap1\n      tag_81\n      swap2\n      swap1\n      tag_45\n      jump\t// in\n    tag_81:\n      tag_82\n      jump\t// in\n    tag_80:\n      stop\n        /* \"lotto.sol\":3279:3395  function currentJackpot() public view returns (uint256) {\r... */\n    tag_19:\n      tag_83\n      tag_84\n      jump\t// in\n    tag_83:\n      mload(0x40)\n      tag_85\n      swap2\n      swap1\n      tag_28\n      jump\t// in\n    tag_85:\n      mload(0x40)\n      dup1\n      swap2\n      sub\n      swap1\n      return\n        /* \"lotto.sol\":1134:1183  mapping(address => uint256[]) public entriesIndex */\n    tag_26:\n      mstore(0x20, 0x08)\n      dup2\n      0x00\n      mstore\n      keccak256(0x00, 0x40)\n      dup2\n      dup2\n      sload\n      dup2\n      lt\n      tag_86\n      jumpi\n      0x00\n      dup1\n      revert\n    tag_86:\n      swap1\n      0x00\n      mstore\n      keccak256(0x00, 0x20)\n      add\n      0x00\n      swap2\n      pop\n      swap2\n      pop\n      pop\n      sload\n      dup2\n      jump\t// out\n        /* \"lotto.sol\":668:691  uint256 public roundNum */\n    tag_30:\n      sload(0x02)\n      dup2\n      jump\t// out\n        /* \"lotto.sol\":1327:1662  function updateAccount(address account, uint256 amount) external{\r... */\n    tag_34:\n        /* \"lotto.sol\":1406:1415  uint256 i */\n      0x00\n        /* \"lotto.sol\":1402:1557  for(uint256 i; i < amount; i++){\r... */\n    tag_89:\n        /* \"lotto.sol\":1421:1427  amount */\n      dup2\n        /* \"lotto.sol\":1417:1418  i */\n      dup2\n        /* \"lotto.sol\":1417:1427  i < amount */\n      lt\n        /* \"lotto.sol\":1402:1557  for(uint256 i; i < amount; i++){\r... */\n      iszero\n      tag_90\n      jumpi\n        /* \"lotto.sol\":1479:1486  account */\n      dup3\n        /* \"lotto.sol\":1448:1458  roundEntry */\n      0x06\n        /* \"lotto.sol\":1448:1476  roundEntry[roundEntries + i] */\n      0x00\n        /* \"lotto.sol\":1474:1475  i */\n      dup4\n        /* \"lotto.sol\":1459:1471  roundEntries */\n      sload(0x01)\n        /* \"lotto.sol\":1459:1475  roundEntries + i */\n      tag_92\n      swap2\n      swap1\n      tag_93\n      jump\t// in\n    tag_92:\n        /* \"lotto.sol\":1448:1476  roundEntry[roundEntries + i] */\n      dup2\n      mstore\n      0x20\n      add\n      swap1\n      dup2\n      mstore\n      0x20\n      add\n      0x00\n      keccak256\n      0x00\n        /* \"lotto.sol\":1448:1486  roundEntry[roundEntries + i] = account */\n      0x0100\n      exp\n      dup2\n      sload\n      dup2\n      0xffffffffffffffffffffffffffffffffffffffff\n      mul\n      not\n      and\n      swap1\n      dup4\n      0xffffffffffffffffffffffffffffffffffffffff\n      and\n      mul\n      or\n      swap1\n      sstore\n      pop\n        /* \"lotto.sol\":1501:1513  entriesIndex */\n      0x08\n        /* \"lotto.sol\":1501:1522  entriesIndex[account] */\n      0x00\n        /* \"lotto.sol\":1514:1521  account */\n      dup5\n        /* \"lotto.sol\":1501:1522  entriesIndex[account] */\n      0xffffffffffffffffffffffffffffffffffffffff\n      and\n      0xffffffffffffffffffffffffffffffffffffffff\n      and\n      dup2\n      mstore\n      0x20\n      add\n      swap1\n      dup2\n      mstore\n      0x20\n      add\n      0x00\n      keccak256\n        /* \"lotto.sol\":1543:1544  i */\n      dup2\n        /* \"lotto.sol\":1528:1540  roundEntries */\n      sload(0x01)\n        /* \"lotto.sol\":1528:1544  roundEntries + i */\n      tag_94\n      swap2\n      swap1\n      tag_93\n      jump\t// in\n    tag_94:\n        /* \"lotto.sol\":1501:1545  entriesIndex[account].push(roundEntries + i) */\n      swap1\n      dup1\n      0x01\n      dup2\n      sload\n      add\n      dup1\n      dup3\n      sstore\n      dup1\n      swap2\n      pop\n      pop\n      0x01\n      swap1\n      sub\n      swap1\n      0x00\n      mstore\n      keccak256(0x00, 0x20)\n      add\n      0x00\n      swap1\n      swap2\n      swap1\n      swap2\n      swap1\n      swap2\n      pop\n      sstore\n        /* \"lotto.sol\":1429:1432  i++ */\n      dup1\n      dup1\n      tag_96\n      swap1\n      tag_97\n      jump\t// in\n    tag_96:\n      swap2\n      pop\n      pop\n        /* \"lotto.sol\":1402:1557  for(uint256 i; i < amount; i++){\r... */\n      jump(tag_89)\n    tag_90:\n      pop\n        /* \"lotto.sol\":1615:1621  amount */\n      dup1\n        /* \"lotto.sol\":1577:1592  entriesPerRound */\n      0x07\n        /* \"lotto.sol\":1577:1602  entriesPerRound[roundNum] */\n      0x00\n        /* \"lotto.sol\":1593:1601  roundNum */\n      sload(0x02)\n        /* \"lotto.sol\":1577:1602  entriesPerRound[roundNum] */\n      dup2\n      mstore\n      0x20\n      add\n      swap1\n      dup2\n      mstore\n      0x20\n      add\n      0x00\n      keccak256\n        /* \"lotto.sol\":1577:1611  entriesPerRound[roundNum][account] */\n      0x00\n        /* \"lotto.sol\":1603:1610  account */\n      dup5\n        /* \"lotto.sol\":1577:1611  entriesPerRound[roundNum][account] */\n      0xffffffffffffffffffffffffffffffffffffffff\n      and\n      0xffffffffffffffffffffffffffffffffffffffff\n      and\n      dup2\n      mstore\n      0x20\n      add\n      swap1\n      dup2\n      mstore\n      0x20\n      add\n      0x00\n      keccak256\n      0x00\n        /* \"lotto.sol\":1577:1621  entriesPerRound[roundNum][account] += amount */\n      dup3\n      dup3\n      sload\n      tag_98\n      swap2\n      swap1\n      tag_93\n      jump\t// in\n    tag_98:\n      swap3\n      pop\n      pop\n      dup2\n      swap1\n      sstore\n      pop\n        /* \"lotto.sol\":1648:1654  amount */\n      dup1\n        /* \"lotto.sol\":1632:1644  roundEntries */\n      0x01\n      0x00\n        /* \"lotto.sol\":1632:1654  roundEntries += amount */\n      dup3\n      dup3\n      sload\n      tag_99\n      swap2\n      swap1\n      tag_93\n      jump\t// in\n    tag_99:\n      swap3\n      pop\n      pop\n      dup2\n      swap1\n      sstore\n      pop\n        /* \"lotto.sol\":1327:1662  function updateAccount(address account, uint256 amount) external{\r... */\n      pop\n      pop\n      jump\t// out\n        /* \"lotto.sol\":698:724  uint256 public totalPayout */\n    tag_36:\n      sload(0x03)\n      dup2\n      jump\t// out\n        /* \"lotto.sol\":1057:1127  mapping(uint256 => mapping(address => uint256)) public entriesPerRound */\n    tag_41:\n      mstore(0x20, 0x07)\n      dup2\n      0x00\n      mstore\n      mstore(0x20, keccak256(0x00, 0x40))\n      dup1\n      0x00\n      mstore\n      keccak256(0x00, 0x40)\n      0x00\n      swap2\n      pop\n      swap2\n      pop\n      pop\n      sload\n      dup2\n      jump\t// out\n        /* \"lotto.sol\":2522:2705  function isActiveAccount(address account) external view returns(bool){\r... */\n    tag_46:\n        /* \"lotto.sol\":2586:2590  bool */\n      0x00\n        /* \"lotto.sol\":2602:2624  uint256 currentEntries */\n      dup1\n        /* \"lotto.sol\":2627:2642  entriesPerRound */\n      0x07\n        /* \"lotto.sol\":2627:2652  entriesPerRound[roundNum] */\n      0x00\n        /* \"lotto.sol\":2643:2651  roundNum */\n      sload(0x02)\n        /* \"lotto.sol\":2627:2652  entriesPerRound[roundNum] */\n      dup2\n      mstore\n      0x20\n      add\n      swap1\n      dup2\n      mstore\n      0x20\n      add\n      0x00\n      keccak256\n        /* \"lotto.sol\":2627:2661  entriesPerRound[roundNum][account] */\n      0x00\n        /* \"lotto.sol\":2653:2660  account */\n      dup5\n        /* \"lotto.sol\":2627:2661  entriesPerRound[roundNum][account] */\n      0xffffffffffffffffffffffffffffffffffffffff\n      and\n      0xffffffffffffffffffffffffffffffffffffffff\n      and\n      dup2\n      mstore\n      0x20\n      add\n      swap1\n      dup2\n      mstore\n      0x20\n      add\n      0x00\n      keccak256\n      sload\n        /* \"lotto.sol\":2602:2661  uint256 currentEntries = entriesPerRound[roundNum][account] */\n      swap1\n      pop\n        /* \"lotto.sol\":2696:2697  0 */\n      0x00\n        /* \"lotto.sol\":2679:2693  currentEntries */\n      dup2\n        /* \"lotto.sol\":2679:2697  currentEntries > 0 */\n      gt\n        /* \"lotto.sol\":2672:2697  return currentEntries > 0 */\n      swap2\n      pop\n      pop\n        /* \"lotto.sol\":2522:2705  function isActiveAccount(address account) external view returns(bool){\r... */\n      swap2\n      swap1\n      pop\n      jump\t// out\n        /* \"lotto.sol\":2713:3271  function pickWinner() external onlyOwner {\r... */\n    tag_50:\n        /* \"https://github.com/OpenZeppelin/openzeppelin-contracts/blob/master/contracts/access/Ownable.sol\":1259:1271  _msgSender() */\n      tag_102\n        /* \"https://github.com/OpenZeppelin/openzeppelin-contracts/blob/master/contracts/access/Ownable.sol\":1259:1269  _msgSender */\n      tag_103\n        /* \"https://github.com/OpenZeppelin/openzeppelin-contracts/blob/master/contracts/access/Ownable.sol\":1259:1271  _msgSender() */\n      jump\t// in\n    tag_102:\n        /* \"https://github.com/OpenZeppelin/openzeppelin-contracts/blob/master/contracts/access/Ownable.sol\":1248:1271  owner() == _msgSender() */\n      0xffffffffffffffffffffffffffffffffffffffff\n      and\n        /* \"https://github.com/OpenZeppelin/openzeppelin-contracts/blob/master/contracts/access/Ownable.sol\":1248:1255  owner() */\n      tag_104\n        /* \"https://github.com/OpenZeppelin/openzeppelin-contracts/blob/master/contracts/access/Ownable.sol\":1248:1253  owner */\n      tag_57\n        /* \"https://github.com/OpenZeppelin/openzeppelin-contracts/blob/master/contracts/access/Ownable.sol\":1248:1255  owner() */\n      jump\t// in\n    tag_104:\n        /* \"https://github.com/OpenZeppelin/openzeppelin-contracts/blob/master/contracts/access/Ownable.sol\":1248:1271  owner() == _msgSender() */\n      0xffffffffffffffffffffffffffffffffffffffff\n      and\n      eq\n        /* \"https://github.com/OpenZeppelin/openzeppelin-contracts/blob/master/contracts/access/Ownable.sol\":1240:1308  require(owner() == _msgSender(), \"Ownable: caller is not the owner\") */\n      tag_105\n      jumpi\n      mload(0x40)\n      0x08c379a000000000000000000000000000000000000000000000000000000000\n      dup2\n      mstore\n      0x04\n      add\n      tag_106\n      swap1\n      tag_107\n      jump\t// in\n    tag_106:\n      mload(0x40)\n      dup1\n      swap2\n      sub\n      swap1\n      revert\n    tag_105:\n        /* \"lotto.sol\":2765:2782  uint256 winnerNum */\n      0x00\n        /* \"lotto.sol\":2796:2808  roundEntries */\n      sload(0x01)\n        /* \"lotto.sol\":2785:2793  random() */\n      tag_109\n        /* \"lotto.sol\":2785:2791  random */\n      tag_110\n        /* \"lotto.sol\":2785:2793  random() */\n      jump\t// in\n    tag_109:\n        /* \"lotto.sol\":2785:2808  random() % roundEntries */\n      tag_111\n      swap2\n      swap1\n      tag_112\n      jump\t// in\n    tag_111:\n        /* \"lotto.sol\":2765:2808  uint256 winnerNum = random() % roundEntries */\n      swap1\n      pop\n        /* \"lotto.sol\":2819:2840  address winnerAddress */\n      0x00\n        /* \"lotto.sol\":2843:2853  roundEntry */\n      0x06\n        /* \"lotto.sol\":2843:2864  roundEntry[winnerNum] */\n      0x00\n        /* \"lotto.sol\":2854:2863  winnerNum */\n      dup4\n        /* \"lotto.sol\":2843:2864  roundEntry[winnerNum] */\n      dup2\n      mstore\n      0x20\n      add\n      swap1\n      dup2\n      mstore\n      0x20\n      add\n      0x00\n      keccak256\n      0x00\n      swap1\n      sload\n      swap1\n      0x0100\n      exp\n      swap1\n      div\n      0xffffffffffffffffffffffffffffffffffffffff\n      and\n        /* \"lotto.sol\":2819:2864  address winnerAddress = roundEntry[winnerNum] */\n      swap1\n      pop\n        /* \"lotto.sol\":2875:2889  uint256 payout */\n      0x00\n        /* \"lotto.sol\":2892:2908  currentJackpot() */\n      tag_113\n        /* \"lotto.sol\":2892:2906  currentJackpot */\n      tag_84\n        /* \"lotto.sol\":2892:2908  currentJackpot() */\n      jump\t// in\n    tag_113:\n        /* \"lotto.sol\":2875:2908  uint256 payout = currentJackpot() */\n      swap1\n      pop\n        /* \"lotto.sol\":2946:3160  Results ({\r... */\n      mload(0x40)\n      dup1\n      0xa0\n      add\n      0x40\n      mstore\n      dup1\n        /* \"lotto.sol\":2984:2996  roundEntries */\n      sload(0x01)\n        /* \"lotto.sol\":2946:3160  Results ({\r... */\n      dup2\n      mstore\n      0x20\n      add\n        /* \"lotto.sol\":3026:3035  winnerNum */\n      dup5\n        /* \"lotto.sol\":2946:3160  Results ({\r... */\n      dup2\n      mstore\n      0x20\n      add\n        /* \"lotto.sol\":3058:3064  payout */\n      dup3\n        /* \"lotto.sol\":2946:3160  Results ({\r... */\n      dup2\n      mstore\n      0x20\n      add\n        /* \"lotto.sol\":3088:3103  block.timestamp */\n      timestamp\n        /* \"lotto.sol\":2946:3160  Results ({\r... */\n      dup2\n      mstore\n      0x20\n      add\n        /* \"lotto.sol\":3134:3147  winnerAddress */\n      dup4\n        /* \"lotto.sol\":2946:3160  Results ({\r... */\n      0xffffffffffffffffffffffffffffffffffffffff\n      and\n      dup2\n      mstore\n      pop\n        /* \"lotto.sol\":2921:2933  roundResults */\n      0x05\n        /* \"lotto.sol\":2921:2943  roundResults[roundNum] */\n      0x00\n        /* \"lotto.sol\":2934:2942  roundNum */\n      sload(0x02)\n        /* \"lotto.sol\":2921:2943  roundResults[roundNum] */\n      dup2\n      mstore\n      0x20\n      add\n      swap1\n      dup2\n      mstore\n      0x20\n      add\n      0x00\n      keccak256\n        /* \"lotto.sol\":2921:3160  roundResults[roundNum] = Results ({\r... */\n      0x00\n      dup3\n      add\n      mload\n      dup2\n      0x00\n      add\n      sstore\n      0x20\n      dup3\n      add\n      mload\n      dup2\n      0x01\n      add\n      sstore\n      0x40\n      dup3\n      add\n      mload\n      dup2\n      0x02\n      add\n      sstore\n      0x60\n      dup3\n      add\n      mload\n      dup2\n      0x03\n      add\n      sstore\n      0x80\n      dup3\n      add\n      mload\n      dup2\n      0x04\n      add\n      exp(0x0100, 0x00)\n      dup2\n      sload\n      dup2\n      0xffffffffffffffffffffffffffffffffffffffff\n      mul\n      not\n      and\n      swap1\n      dup4\n      0xffffffffffffffffffffffffffffffffffffffff\n      and\n      mul\n      or\n      swap1\n      sstore\n      pop\n      swap1\n      pop\n      pop\n        /* \"lotto.sol\":3173:3181  roundNum */\n      0x02\n      0x00\n        /* \"lotto.sol\":3173:3183  roundNum++ */\n      dup2\n      sload\n      dup1\n      swap3\n      swap2\n      swap1\n      tag_114\n      swap1\n      tag_97\n      jump\t// in\n    tag_114:\n      swap2\n      swap1\n      pop\n      sstore\n      pop\n        /* \"lotto.sol\":3209:3210  0 */\n      0x00\n        /* \"lotto.sol\":3194:3206  roundEntries */\n      0x01\n        /* \"lotto.sol\":3194:3210  roundEntries = 0 */\n      dup2\n      swap1\n      sstore\n      pop\n        /* \"lotto.sol\":3230:3263  LotteryWon(winnerAddress, payout) */\n      0x2e798dd4337e515c79b64c40e1a93baa1aefbd9180ac7905e02508edd7971e50\n        /* \"lotto.sol\":3241:3254  winnerAddress */\n      dup3\n        /* \"lotto.sol\":3256:3262  payout */\n      dup3\n        /* \"lotto.sol\":3230:3263  LotteryWon(winnerAddress, payout) */\n      mload(0x40)\n      tag_115\n      swap3\n      swap2\n      swap1\n      tag_116\n      jump\t// in\n    tag_115:\n      mload(0x40)\n      dup1\n      swap2\n      sub\n      swap1\n      log1\n        /* \"lotto.sol\":2754:3271  {\r... */\n      pop\n      pop\n      pop\n        /* \"lotto.sol\":2713:3271  function pickWinner() external onlyOwner {\r... */\n      jump\t// out\n        /* \"https://github.com/OpenZeppelin/openzeppelin-contracts/blob/master/contracts/access/Ownable.sol\":1668:1769  function renounceOwnership() public virtual onlyOwner {... */\n    tag_52:\n        /* \"https://github.com/OpenZeppelin/openzeppelin-contracts/blob/master/contracts/access/Ownable.sol\":1259:1271  _msgSender() */\n      tag_118\n        /* \"https://github.com/OpenZeppelin/openzeppelin-contracts/blob/master/contracts/access/Ownable.sol\":1259:1269  _msgSender */\n      tag_103\n        /* \"https://github.com/OpenZeppelin/openzeppelin-contracts/blob/master/contracts/access/Ownable.sol\":1259:1271  _msgSender() */\n      jump\t// in\n    tag_118:\n        /* \"https://github.com/OpenZeppelin/openzeppelin-contracts/blob/master/contracts/access/Ownable.sol\":1248:1271  owner() == _msgSender() */\n      0xffffffffffffffffffffffffffffffffffffffff\n      and\n        /* \"https://github.com/OpenZeppelin/openzeppelin-contracts/blob/master/contracts/access/Ownable.sol\":1248:1255  owner() */\n      tag_119\n        /* \"https://github.com/OpenZeppelin/openzeppelin-contracts/blob/master/contracts/access/Ownable.sol\":1248:1253  owner */\n      tag_57\n        /* \"https://github.com/OpenZeppelin/openzeppelin-contracts/blob/master/contracts/access/Ownable.sol\":1248:1255  owner() */\n      jump\t// in\n    tag_119:\n        /* \"https://github.com/OpenZeppelin/openzeppelin-contracts/blob/master/contracts/access/Ownable.sol\":1248:1271  owner() == _msgSender() */\n      0xffffffffffffffffffffffffffffffffffffffff\n      and\n      eq\n        /* \"https://github.com/OpenZeppelin/openzeppelin-contracts/blob/master/contracts/access/Ownable.sol\":1240:1308  require(owner() == _msgSender(), \"Ownable: caller is not the owner\") */\n      tag_120\n      jumpi\n      mload(0x40)\n      0x08c379a000000000000000000000000000000000000000000000000000000000\n      dup2\n      mstore\n      0x04\n      add\n      tag_121\n      swap1\n      tag_107\n      jump\t// in\n    tag_121:\n      mload(0x40)\n      dup1\n      swap2\n      sub\n      swap1\n      revert\n    tag_120:\n        /* \"https://github.com/OpenZeppelin/openzeppelin-contracts/blob/master/contracts/access/Ownable.sol\":1732:1762  _transferOwnership(address(0)) */\n      tag_123\n        /* \"https://github.com/OpenZeppelin/openzeppelin-contracts/blob/master/contracts/access/Ownable.sol\":1759:1760  0 */\n      0x00\n        /* \"https://github.com/OpenZeppelin/openzeppelin-contracts/blob/master/contracts/access/Ownable.sol\":1732:1750  _transferOwnership */\n      tag_124\n        /* \"https://github.com/OpenZeppelin/openzeppelin-contracts/blob/master/contracts/access/Ownable.sol\":1732:1762  _transferOwnership(address(0)) */\n      jump\t// in\n    tag_123:\n        /* \"https://github.com/OpenZeppelin/openzeppelin-contracts/blob/master/contracts/access/Ownable.sol\":1668:1769  function renounceOwnership() public virtual onlyOwner {... */\n      jump\t// out\n        /* \"lotto.sol\":634:661  uint256 public roundEntries */\n    tag_54:\n      sload(0x01)\n      dup2\n      jump\t// out\n        /* \"https://github.com/OpenZeppelin/openzeppelin-contracts/blob/master/contracts/access/Ownable.sol\":1036:1121  function owner() public view virtual returns (address) {... */\n    tag_57:\n        /* \"https://github.com/OpenZeppelin/openzeppelin-contracts/blob/master/contracts/access/Ownable.sol\":1082:1089  address */\n      0x00\n        /* \"https://github.com/OpenZeppelin/openzeppelin-contracts/blob/master/contracts/access/Ownable.sol\":1108:1114  _owner */\n      dup1\n      0x00\n      swap1\n      sload\n      swap1\n      0x0100\n      exp\n      swap1\n      div\n      0xffffffffffffffffffffffffffffffffffffffff\n      and\n        /* \"https://github.com/OpenZeppelin/openzeppelin-contracts/blob/master/contracts/access/Ownable.sol\":1101:1114  return _owner */\n      swap1\n      pop\n        /* \"https://github.com/OpenZeppelin/openzeppelin-contracts/blob/master/contracts/access/Ownable.sol\":1036:1121  function owner() public view virtual returns (address) {... */\n      swap1\n      jump\t// out\n        /* \"lotto.sol\":737:760  IERC20 public acesToken */\n    tag_61:\n      0x04\n      0x00\n      swap1\n      sload\n      swap1\n      0x0100\n      exp\n      swap1\n      div\n      0xffffffffffffffffffffffffffffffffffffffff\n      and\n      dup2\n      jump\t// out\n        /* \"lotto.sol\":1670:2323  function removeEntryFromWallet(address account, uint256 amount) public {\r... */\n    tag_66:\n        /* \"lotto.sol\":1752:1774  uint256 currentEntries */\n      0x00\n        /* \"lotto.sol\":1777:1792  entriesPerRound */\n      0x07\n        /* \"lotto.sol\":1777:1802  entriesPerRound[roundNum] */\n      0x00\n        /* \"lotto.sol\":1793:1801  roundNum */\n      sload(0x02)\n        /* \"lotto.sol\":1777:1802  entriesPerRound[roundNum] */\n      dup2\n      mstore\n      0x20\n      add\n      swap1\n      dup2\n      mstore\n      0x20\n      add\n      0x00\n      keccak256\n        /* \"lotto.sol\":1777:1811  entriesPerRound[roundNum][account] */\n      0x00\n        /* \"lotto.sol\":1803:1810  account */\n      dup5\n        /* \"lotto.sol\":1777:1811  entriesPerRound[roundNum][account] */\n      0xffffffffffffffffffffffffffffffffffffffff\n      and\n      0xffffffffffffffffffffffffffffffffffffffff\n      and\n      dup2\n      mstore\n      0x20\n      add\n      swap1\n      dup2\n      mstore\n      0x20\n      add\n      0x00\n      keccak256\n      sload\n        /* \"lotto.sol\":1752:1811  uint256 currentEntries = entriesPerRound[roundNum][account] */\n      swap1\n      pop\n        /* \"lotto.sol\":1843:1844  0 */\n      0x00\n        /* \"lotto.sol\":1825:1839  currentEntries */\n      dup2\n        /* \"lotto.sol\":1825:1844  currentEntries == 0 */\n      eq\n        /* \"lotto.sol\":1822:1961  if(currentEntries == 0){\r... */\n      iszero\n      tag_127\n      jumpi\n        /* \"lotto.sol\":1860:1867  return; */\n      pop\n      jump(tag_126)\n        /* \"lotto.sol\":1822:1961  if(currentEntries == 0){\r... */\n    tag_127:\n        /* \"lotto.sol\":1896:1910  currentEntries */\n      dup1\n        /* \"lotto.sol\":1887:1893  amount */\n      dup3\n        /* \"lotto.sol\":1887:1910  amount > currentEntries */\n      gt\n        /* \"lotto.sol\":1884:1961  if(amount > currentEntries){\r... */\n      iszero\n      tag_129\n      jumpi\n        /* \"lotto.sol\":1935:1949  currentEntries */\n      dup1\n        /* \"lotto.sol\":1926:1949  amount = currentEntries */\n      swap2\n      pop\n        /* \"lotto.sol\":1884:1961  if(amount > currentEntries){\r... */\n    tag_129:\n        /* \"lotto.sol\":1977:1986  uint256 i */\n      0x00\n        /* \"lotto.sol\":1989:1990  1 */\n      0x01\n        /* \"lotto.sol\":1977:1990  uint256 i = 1 */\n      swap1\n      pop\n        /* \"lotto.sol\":1973:2218  for(uint256 i = 1; i <= amount; i++){\r... */\n    tag_130:\n        /* \"lotto.sol\":1997:2003  amount */\n      dup3\n        /* \"lotto.sol\":1992:1993  i */\n      dup2\n        /* \"lotto.sol\":1992:2003  i <= amount */\n      gt\n        /* \"lotto.sol\":1973:2218  for(uint256 i = 1; i <= amount; i++){\r... */\n      tag_131\n      jumpi\n        /* \"lotto.sol\":2024:2041  uint256 lastIndex */\n      0x00\n        /* \"lotto.sol\":2044:2056  entriesIndex */\n      0x08\n        /* \"lotto.sol\":2044:2065  entriesIndex[account] */\n      0x00\n        /* \"lotto.sol\":2057:2064  account */\n      dup7\n        /* \"lotto.sol\":2044:2065  entriesIndex[account] */\n      0xffffffffffffffffffffffffffffffffffffffff\n      and\n      0xffffffffffffffffffffffffffffffffffffffff\n      and\n      dup2\n      mstore\n      0x20\n      add\n      swap1\n      dup2\n      mstore\n      0x20\n      add\n      0x00\n      keccak256\n        /* \"lotto.sol\":2097:2098  1 */\n      0x01\n        /* \"lotto.sol\":2066:2078  entriesIndex */\n      0x08\n        /* \"lotto.sol\":2066:2087  entriesIndex[account] */\n      0x00\n        /* \"lotto.sol\":2079:2086  account */\n      dup9\n        /* \"lotto.sol\":2066:2087  entriesIndex[account] */\n      0xffffffffffffffffffffffffffffffffffffffff\n      and\n      0xffffffffffffffffffffffffffffffffffffffff\n      and\n      dup2\n      mstore\n      0x20\n      add\n      swap1\n      dup2\n      mstore\n      0x20\n      add\n      0x00\n      keccak256\n        /* \"lotto.sol\":2066:2094  entriesIndex[account].length */\n      dup1\n      sload\n      swap1\n      pop\n        /* \"lotto.sol\":2066:2098  entriesIndex[account].length - 1 */\n      tag_133\n      swap2\n      swap1\n      tag_134\n      jump\t// in\n    tag_133:\n        /* \"lotto.sol\":2044:2099  entriesIndex[account][entriesIndex[account].length - 1] */\n      dup2\n      sload\n      dup2\n      lt\n      tag_135\n      jumpi\n      tag_136\n      tag_137\n      jump\t// in\n    tag_136:\n    tag_135:\n      swap1\n      0x00\n      mstore\n      keccak256(0x00, 0x20)\n      add\n      sload\n        /* \"lotto.sol\":2024:2099  uint256 lastIndex = entriesIndex[account][entriesIndex[account].length - 1] */\n      swap1\n      pop\n        /* \"lotto.sol\":2138:2148  roundEntry */\n      0x06\n        /* \"lotto.sol\":2138:2166  roundEntry[roundEntries - i] */\n      0x00\n        /* \"lotto.sol\":2164:2165  i */\n      dup4\n        /* \"lotto.sol\":2149:2161  roundEntries */\n      sload(0x01)\n        /* \"lotto.sol\":2149:2165  roundEntries - i */\n      tag_139\n      swap2\n      swap1\n      tag_134\n      jump\t// in\n    tag_139:\n        /* \"lotto.sol\":2138:2166  roundEntry[roundEntries - i] */\n      dup2\n      mstore\n      0x20\n      add\n      swap1\n      dup2\n      mstore\n      0x20\n      add\n      0x00\n      keccak256\n      0x00\n      swap1\n      sload\n      swap1\n      0x0100\n      exp\n      swap1\n      div\n      0xffffffffffffffffffffffffffffffffffffffff\n      and\n        /* \"lotto.sol\":2114:2124  roundEntry */\n      0x06\n        /* \"lotto.sol\":2114:2135  roundEntry[lastIndex] */\n      0x00\n        /* \"lotto.sol\":2125:2134  lastIndex */\n      dup4\n        /* \"lotto.sol\":2114:2135  roundEntry[lastIndex] */\n      dup2\n      mstore\n      0x20\n      add\n      swap1\n      dup2\n      mstore\n      0x20\n      add\n      0x00\n      keccak256\n      0x00\n        /* \"lotto.sol\":2114:2166  roundEntry[lastIndex] = roundEntry[roundEntries - i] */\n      0x0100\n      exp\n      dup2\n      sload\n      dup2\n      0xffffffffffffffffffffffffffffffffffffffff\n      mul\n      not\n      and\n      swap1\n      dup4\n      0xffffffffffffffffffffffffffffffffffffffff\n      and\n      mul\n      or\n      swap1\n      sstore\n      pop\n        /* \"lotto.sol\":2181:2193  entriesIndex */\n      0x08\n        /* \"lotto.sol\":2181:2202  entriesIndex[account] */\n      0x00\n        /* \"lotto.sol\":2194:2201  account */\n      dup7\n        /* \"lotto.sol\":2181:2202  entriesIndex[account] */\n      0xffffffffffffffffffffffffffffffffffffffff\n      and\n      0xffffffffffffffffffffffffffffffffffffffff\n      and\n      dup2\n      mstore\n      0x20\n      add\n      swap1\n      dup2\n      mstore\n      0x20\n      add\n      0x00\n      keccak256\n        /* \"lotto.sol\":2181:2206  entriesIndex[account].pop */\n      pop\n        /* \"lotto.sol\":2009:2218  {\r... */\n      pop\n        /* \"lotto.sol\":2005:2008  i++ */\n      dup1\n      dup1\n      tag_140\n      swap1\n      tag_97\n      jump\t// in\n    tag_140:\n      swap2\n      pop\n      pop\n        /* \"lotto.sol\":1973:2218  for(uint256 i = 1; i <= amount; i++){\r... */\n      jump(tag_130)\n    tag_131:\n      pop\n        /* \"lotto.sol\":2276:2282  amount */\n      dup2\n        /* \"lotto.sol\":2238:2253  entriesPerRound */\n      0x07\n        /* \"lotto.sol\":2238:2263  entriesPerRound[roundNum] */\n      0x00\n        /* \"lotto.sol\":2254:2262  roundNum */\n      sload(0x02)\n        /* \"lotto.sol\":2238:2263  entriesPerRound[roundNum] */\n      dup2\n      mstore\n      0x20\n      add\n      swap1\n      dup2\n      mstore\n      0x20\n      add\n      0x00\n      keccak256\n        /* \"lotto.sol\":2238:2272  entriesPerRound[roundNum][account] */\n      0x00\n        /* \"lotto.sol\":2264:2271  account */\n      dup6\n        /* \"lotto.sol\":2238:2272  entriesPerRound[roundNum][account] */\n      0xffffffffffffffffffffffffffffffffffffffff\n      and\n      0xffffffffffffffffffffffffffffffffffffffff\n      and\n      dup2\n      mstore\n      0x20\n      add\n      swap1\n      dup2\n      mstore\n      0x20\n      add\n      0x00\n      keccak256\n      0x00\n        /* \"lotto.sol\":2238:2282  entriesPerRound[roundNum][account] -= amount */\n      dup3\n      dup3\n      sload\n      tag_141\n      swap2\n      swap1\n      tag_134\n      jump\t// in\n    tag_141:\n      swap3\n      pop\n      pop\n      dup2\n      swap1\n      sstore\n      pop\n        /* \"lotto.sol\":2309:2315  amount */\n      dup2\n        /* \"lotto.sol\":2293:2305  roundEntries */\n      0x01\n      0x00\n        /* \"lotto.sol\":2293:2315  roundEntries -= amount */\n      dup3\n      dup3\n      sload\n      tag_142\n      swap2\n      swap1\n      tag_134\n      jump\t// in\n    tag_142:\n      swap3\n      pop\n      pop\n      dup2\n      swap1\n      sstore\n      pop\n        /* \"lotto.sol\":1741:2323  {\r... */\n      pop\n        /* \"lotto.sol\":1670:2323  function removeEntryFromWallet(address account, uint256 amount) public {\r... */\n    tag_126:\n      pop\n      pop\n      jump\t// out\n        /* \"lotto.sol\":951:998  mapping(uint256 => Results) public roundResults */\n    tag_70:\n      mstore(0x20, 0x05)\n      dup1\n      0x00\n      mstore\n      keccak256(0x00, 0x40)\n      0x00\n      swap2\n      pop\n      swap1\n      pop\n      dup1\n      0x00\n      add\n      sload\n      swap1\n      dup1\n      0x01\n      add\n      sload\n      swap1\n      dup1\n      0x02\n      add\n      sload\n      swap1\n      dup1\n      0x03\n      add\n      sload\n      swap1\n      dup1\n      0x04\n      add\n      0x00\n      swap1\n      sload\n      swap1\n      0x0100\n      exp\n      swap1\n      div\n      0xffffffffffffffffffffffffffffffffffffffff\n      and\n      swap1\n      pop\n      dup6\n      jump\t// out\n        /* \"lotto.sol\":1005:1050  mapping(uint256 => address) public roundEntry */\n    tag_75:\n      mstore(0x20, 0x06)\n      dup1\n      0x00\n      mstore\n      keccak256(0x00, 0x40)\n      0x00\n      swap2\n      pop\n      sload\n      swap1\n      0x0100\n      exp\n      swap1\n      div\n      0xffffffffffffffffffffffffffffffffffffffff\n      and\n      dup2\n      jump\t// out\n        /* \"lotto.sol\":2331:2514  function removeAccount(address account) external{\r... */\n    tag_79:\n        /* \"lotto.sol\":2390:2412  uint256 currentEntries */\n      0x00\n        /* \"lotto.sol\":2415:2430  entriesPerRound */\n      0x07\n        /* \"lotto.sol\":2415:2440  entriesPerRound[roundNum] */\n      0x00\n        /* \"lotto.sol\":2431:2439  roundNum */\n      sload(0x02)\n        /* \"lotto.sol\":2415:2440  entriesPerRound[roundNum] */\n      dup2\n      mstore\n      0x20\n      add\n      swap1\n      dup2\n      mstore\n      0x20\n      add\n      0x00\n      keccak256\n        /* \"lotto.sol\":2415:2449  entriesPerRound[roundNum][account] */\n      0x00\n        /* \"lotto.sol\":2441:2448  account */\n      dup4\n        /* \"lotto.sol\":2415:2449  entriesPerRound[roundNum][account] */\n      0xffffffffffffffffffffffffffffffffffffffff\n      and\n      0xffffffffffffffffffffffffffffffffffffffff\n      and\n      dup2\n      mstore\n      0x20\n      add\n      swap1\n      dup2\n      mstore\n      0x20\n      add\n      0x00\n      keccak256\n      sload\n        /* \"lotto.sol\":2390:2449  uint256 currentEntries = entriesPerRound[roundNum][account] */\n      swap1\n      pop\n        /* \"lotto.sol\":2460:2506  removeEntryFromWallet(account, currentEntries) */\n      tag_144\n        /* \"lotto.sol\":2482:2489  account */\n      dup3\n        /* \"lotto.sol\":2491:2505  currentEntries */\n      dup3\n        /* \"lotto.sol\":2460:2481  removeEntryFromWallet */\n      tag_66\n        /* \"lotto.sol\":2460:2506  removeEntryFromWallet(account, currentEntries) */\n      jump\t// in\n    tag_144:\n        /* \"lotto.sol\":2379:2514  {\r... */\n      pop\n        /* \"lotto.sol\":2331:2514  function removeAccount(address account) external{\r... */\n      pop\n      jump\t// out\n        /* \"https://github.com/OpenZeppelin/openzeppelin-contracts/blob/master/contracts/access/Ownable.sol\":1918:2116  function transferOwnership(address newOwner) public virtual onlyOwner {... */\n    tag_82:\n        /* \"https://github.com/OpenZeppelin/openzeppelin-contracts/blob/master/contracts/access/Ownable.sol\":1259:1271  _msgSender() */\n      tag_146\n        /* \"https://github.com/OpenZeppelin/openzeppelin-contracts/blob/master/contracts/access/Ownable.sol\":1259:1269  _msgSender */\n      tag_103\n        /* \"https://github.com/OpenZeppelin/openzeppelin-contracts/blob/master/contracts/access/Ownable.sol\":1259:1271  _msgSender() */\n      jump\t// in\n    tag_146:\n        /* \"https://github.com/OpenZeppelin/openzeppelin-contracts/blob/master/contracts/access/Ownable.sol\":1248:1271  owner() == _msgSender() */\n      0xffffffffffffffffffffffffffffffffffffffff\n      and\n        /* \"https://github.com/OpenZeppelin/openzeppelin-contracts/blob/master/contracts/access/Ownable.sol\":1248:1255  owner() */\n      tag_147\n        /* \"https://github.com/OpenZeppelin/openzeppelin-contracts/blob/master/contracts/access/Ownable.sol\":1248:1253  owner */\n      tag_57\n        /* \"https://github.com/OpenZeppelin/openzeppelin-contracts/blob/master/contracts/access/Ownable.sol\":1248:1255  owner() */\n      jump\t// in\n    tag_147:\n        /* \"https://github.com/OpenZeppelin/openzeppelin-contracts/blob/master/contracts/access/Ownable.sol\":1248:1271  owner() == _msgSender() */\n      0xffffffffffffffffffffffffffffffffffffffff\n      and\n      eq\n        /* \"https://github.com/OpenZeppelin/openzeppelin-contracts/blob/master/contracts/access/Ownable.sol\":1240:1308  require(owner() == _msgSender(), \"Ownable: caller is not the owner\") */\n      tag_148\n      jumpi\n      mload(0x40)\n      0x08c379a000000000000000000000000000000000000000000000000000000000\n      dup2\n      mstore\n      0x04\n      add\n      tag_149\n      swap1\n      tag_107\n      jump\t// in\n    tag_149:\n      mload(0x40)\n      dup1\n      swap2\n      sub\n      swap1\n      revert\n    tag_148:\n        /* \"https://github.com/OpenZeppelin/openzeppelin-contracts/blob/master/contracts/access/Ownable.sol\":2026:2027  0 */\n      0x00\n        /* \"https://github.com/OpenZeppelin/openzeppelin-contracts/blob/master/contracts/access/Ownable.sol\":2006:2028  newOwner != address(0) */\n      0xffffffffffffffffffffffffffffffffffffffff\n      and\n        /* \"https://github.com/OpenZeppelin/openzeppelin-contracts/blob/master/contracts/access/Ownable.sol\":2006:2014  newOwner */\n      dup2\n        /* \"https://github.com/OpenZeppelin/openzeppelin-contracts/blob/master/contracts/access/Ownable.sol\":2006:2028  newOwner != address(0) */\n      0xffffffffffffffffffffffffffffffffffffffff\n      and\n      eq\n      iszero\n        /* \"https://github.com/OpenZeppelin/openzeppelin-contracts/blob/master/contracts/access/Ownable.sol\":1998:2071  require(newOwner != address(0), \"Ownable: new owner is the zero address\") */\n      tag_151\n      jumpi\n      mload(0x40)\n      0x08c379a000000000000000000000000000000000000000000000000000000000\n      dup2\n      mstore\n      0x04\n      add\n      tag_152\n      swap1\n      tag_153\n      jump\t// in\n    tag_152:\n      mload(0x40)\n      dup1\n      swap2\n      sub\n      swap1\n      revert\n    tag_151:\n        /* \"https://github.com/OpenZeppelin/openzeppelin-contracts/blob/master/contracts/access/Ownable.sol\":2081:2109  _transferOwnership(newOwner) */\n      tag_154\n        /* \"https://github.com/OpenZeppelin/openzeppelin-contracts/blob/master/contracts/access/Ownable.sol\":2100:2108  newOwner */\n      dup2\n        /* \"https://github.com/OpenZeppelin/openzeppelin-contracts/blob/master/contracts/access/Ownable.sol\":2081:2099  _transferOwnership */\n      tag_124\n        /* \"https://github.com/OpenZeppelin/openzeppelin-contracts/blob/master/contracts/access/Ownable.sol\":2081:2109  _transferOwnership(newOwner) */\n      jump\t// in\n    tag_154:\n        /* \"https://github.com/OpenZeppelin/openzeppelin-contracts/blob/master/contracts/access/Ownable.sol\":1918:2116  function transferOwnership(address newOwner) public virtual onlyOwner {... */\n      pop\n      jump\t// out\n        /* \"lotto.sol\":3279:3395  function currentJackpot() public view returns (uint256) {\r... */\n    tag_84:\n        /* \"lotto.sol\":3326:3333  uint256 */\n      0x00\n        /* \"lotto.sol\":3353:3362  acesToken */\n      0x04\n      0x00\n      swap1\n      sload\n      swap1\n      0x0100\n      exp\n      swap1\n      div\n      0xffffffffffffffffffffffffffffffffffffffff\n      and\n        /* \"lotto.sol\":3353:3372  acesToken.balanceOf */\n      0xffffffffffffffffffffffffffffffffffffffff\n      and\n      0x70a08231\n        /* \"lotto.sol\":3381:3385  this */\n      address\n        /* \"lotto.sol\":3353:3387  acesToken.balanceOf(address(this)) */\n      mload(0x40)\n      dup3\n      0xffffffff\n      and\n      0xe0\n      shl\n      dup2\n      mstore\n      0x04\n      add\n      tag_156\n      swap2\n      swap1\n      tag_59\n      jump\t// in\n    tag_156:\n      0x20\n      mload(0x40)\n      dup1\n      dup4\n      sub\n      dup2\n      dup7\n      dup1\n      extcodesize\n      iszero\n      dup1\n      iszero\n      tag_157\n      jumpi\n      0x00\n      dup1\n      revert\n    tag_157:\n      pop\n      gas\n      staticcall\n      iszero\n      dup1\n      iszero\n      tag_159\n      jumpi\n      returndatasize\n      0x00\n      dup1\n      returndatacopy\n      revert(0x00, returndatasize)\n    tag_159:\n      pop\n      pop\n      pop\n      pop\n      mload(0x40)\n      returndatasize\n      not(0x1f)\n      0x1f\n      dup3\n      add\n      and\n      dup3\n      add\n      dup1\n      0x40\n      mstore\n      pop\n      dup2\n      add\n      swap1\n      tag_160\n      swap2\n      swap1\n      tag_161\n      jump\t// in\n    tag_160:\n        /* \"lotto.sol\":3346:3387  return acesToken.balanceOf(address(this)) */\n      swap1\n      pop\n        /* \"lotto.sol\":3279:3395  function currentJackpot() public view returns (uint256) {\r... */\n      swap1\n      jump\t// out\n        /* \"https://github.com/OpenZeppelin/openzeppelin-contracts/blob/master/contracts/utils/Context.sol\":640:736  function _msgSender() internal view virtual returns (address) {... */\n    tag_103:\n        /* \"https://github.com/OpenZeppelin/openzeppelin-contracts/blob/master/contracts/utils/Context.sol\":693:700  address */\n      0x00\n        /* \"https://github.com/OpenZeppelin/openzeppelin-contracts/blob/master/contracts/utils/Context.sol\":719:729  msg.sender */\n      caller\n        /* \"https://github.com/OpenZeppelin/openzeppelin-contracts/blob/master/contracts/utils/Context.sol\":712:729  return msg.sender */\n      swap1\n      pop\n        /* \"https://github.com/OpenZeppelin/openzeppelin-contracts/blob/master/contracts/utils/Context.sol\":640:736  function _msgSender() internal view virtual returns (address) {... */\n      swap1\n      jump\t// out\n        /* \"lotto.sol\":3403:3776  function random() internal view returns (uint256) {\r... */\n    tag_110:\n        /* \"lotto.sol\":3444:3451  uint256 */\n      0x00\n        /* \"lotto.sol\":3585:3600  block.timestamp */\n      timestamp\n        /* \"lotto.sol\":3627:3636  gasleft() */\n      gas\n        /* \"lotto.sol\":3663:3673  msg.sender */\n      caller\n        /* \"lotto.sol\":3700:3711  totalPayout */\n      sload(0x03)\n        /* \"lotto.sol\":3542:3734  abi.encodePacked(\r... */\n      add(0x20, mload(0x40))\n      tag_164\n      swap5\n      swap4\n      swap3\n      swap2\n      swap1\n      tag_165\n      jump\t// in\n    tag_164:\n      mload(0x40)\n      0x20\n      dup2\n      dup4\n      sub\n      sub\n      dup2\n      mstore\n      swap1\n      0x40\n      mstore\n        /* \"lotto.sol\":3510:3753  keccak256(\r... */\n      dup1\n      mload\n      swap1\n      0x20\n      add\n      keccak256\n        /* \"lotto.sol\":3484:3768  uint256(\r... */\n      0x00\n      shr\n        /* \"lotto.sol\":3464:3768  return\r... */\n      swap1\n      pop\n        /* \"lotto.sol\":3403:3776  function random() internal view returns (uint256) {\r... */\n      swap1\n      jump\t// out\n        /* \"https://github.com/OpenZeppelin/openzeppelin-contracts/blob/master/contracts/access/Ownable.sol\":2270:2457  function _transferOwnership(address newOwner) internal virtual {... */\n    tag_124:\n        /* \"https://github.com/OpenZeppelin/openzeppelin-contracts/blob/master/contracts/access/Ownable.sol\":2343:2359  address oldOwner */\n      0x00\n        /* \"https://github.com/OpenZeppelin/openzeppelin-contracts/blob/master/contracts/access/Ownable.sol\":2362:2368  _owner */\n      dup1\n      0x00\n      swap1\n      sload\n      swap1\n      0x0100\n      exp\n      swap1\n      div\n      0xffffffffffffffffffffffffffffffffffffffff\n      and\n        /* \"https://github.com/OpenZeppelin/openzeppelin-contracts/blob/master/contracts/access/Ownable.sol\":2343:2368  address oldOwner = _owner */\n      swap1\n      pop\n        /* \"https://github.com/OpenZeppelin/openzeppelin-contracts/blob/master/contracts/access/Ownable.sol\":2387:2395  newOwner */\n      dup2\n        /* \"https://github.com/OpenZeppelin/openzeppelin-contracts/blob/master/contracts/access/Ownable.sol\":2378:2384  _owner */\n      0x00\n      dup1\n        /* \"https://github.com/OpenZeppelin/openzeppelin-contracts/blob/master/contracts/access/Ownable.sol\":2378:2395  _owner = newOwner */\n      0x0100\n      exp\n      dup2\n      sload\n      dup2\n      0xffffffffffffffffffffffffffffffffffffffff\n      mul\n      not\n      and\n      swap1\n      dup4\n      0xffffffffffffffffffffffffffffffffffffffff\n      and\n      mul\n      or\n      swap1\n      sstore\n      pop\n        /* \"https://github.com/OpenZeppelin/openzeppelin-contracts/blob/master/contracts/access/Ownable.sol\":2441:2449  newOwner */\n      dup2\n        /* \"https://github.com/OpenZeppelin/openzeppelin-contracts/blob/master/contracts/access/Ownable.sol\":2410:2450  OwnershipTransferred(oldOwner, newOwner) */\n      0xffffffffffffffffffffffffffffffffffffffff\n      and\n        /* \"https://github.com/OpenZeppelin/openzeppelin-contracts/blob/master/contracts/access/Ownable.sol\":2431:2439  oldOwner */\n      dup2\n        /* \"https://github.com/OpenZeppelin/openzeppelin-contracts/blob/master/contracts/access/Ownable.sol\":2410:2450  OwnershipTransferred(oldOwner, newOwner) */\n      0xffffffffffffffffffffffffffffffffffffffff\n      and\n      0x8be0079c531659141344cd1fd0a4f28419497f9722a3daafe3b4186f6b6457e0\n      mload(0x40)\n      mload(0x40)\n      dup1\n      swap2\n      sub\n      swap1\n      log3\n        /* \"https://github.com/OpenZeppelin/openzeppelin-contracts/blob/master/contracts/access/Ownable.sol\":2333:2457  {... */\n      pop\n        /* \"https://github.com/OpenZeppelin/openzeppelin-contracts/blob/master/contracts/access/Ownable.sol\":2270:2457  function _transferOwnership(address newOwner) internal virtual {... */\n      pop\n      jump\t// out\n        /* \"#utility.yul\":7:146   */\n    tag_168:\n        /* \"#utility.yul\":53:58   */\n      0x00\n        /* \"#utility.yul\":91:97   */\n      dup2\n        /* \"#utility.yul\":78:98   */\n      calldataload\n        /* \"#utility.yul\":69:98   */\n      swap1\n      pop\n        /* \"#utility.yul\":107:140   */\n      tag_170\n        /* \"#utility.yul\":134:139   */\n      dup2\n        /* \"#utility.yul\":107:140   */\n      tag_171\n      jump\t// in\n    tag_170:\n        /* \"#utility.yul\":7:146   */\n      swap3\n      swap2\n      pop\n      pop\n      jump\t// out\n        /* \"#utility.yul\":152:291   */\n    tag_172:\n        /* \"#utility.yul\":198:203   */\n      0x00\n        /* \"#utility.yul\":236:242   */\n      dup2\n        /* \"#utility.yul\":223:243   */\n      calldataload\n        /* \"#utility.yul\":214:243   */\n      swap1\n      pop\n        /* \"#utility.yul\":252:285   */\n      tag_174\n        /* \"#utility.yul\":279:284   */\n      dup2\n        /* \"#utility.yul\":252:285   */\n      tag_175\n      jump\t// in\n    tag_174:\n        /* \"#utility.yul\":152:291   */\n      swap3\n      swap2\n      pop\n      pop\n      jump\t// out\n        /* \"#utility.yul\":297:440   */\n    tag_176:\n        /* \"#utility.yul\":354:359   */\n      0x00\n        /* \"#utility.yul\":385:391   */\n      dup2\n        /* \"#utility.yul\":379:392   */\n      mload\n        /* \"#utility.yul\":370:392   */\n      swap1\n      pop\n        /* \"#utility.yul\":401:434   */\n      tag_178\n        /* \"#utility.yul\":428:433   */\n      dup2\n        /* \"#utility.yul\":401:434   */\n      tag_175\n      jump\t// in\n    tag_178:\n        /* \"#utility.yul\":297:440   */\n      swap3\n      swap2\n      pop\n      pop\n      jump\t// out\n        /* \"#utility.yul\":446:775   */\n    tag_45:\n        /* \"#utility.yul\":505:511   */\n      0x00\n        /* \"#utility.yul\":554:556   */\n      0x20\n        /* \"#utility.yul\":542:551   */\n      dup3\n        /* \"#utility.yul\":533:540   */\n      dup5\n        /* \"#utility.yul\":529:552   */\n      sub\n        /* \"#utility.yul\":525:557   */\n      slt\n        /* \"#utility.yul\":522:641   */\n      iszero\n      tag_180\n      jumpi\n        /* \"#utility.yul\":560:639   */\n      tag_181\n      tag_182\n      jump\t// in\n    tag_181:\n        /* \"#utility.yul\":522:641   */\n    tag_180:\n        /* \"#utility.yul\":680:681   */\n      0x00\n        /* \"#utility.yul\":705:758   */\n      tag_183\n        /* \"#utility.yul\":750:757   */\n      dup5\n        /* \"#utility.yul\":741:747   */\n      dup3\n        /* \"#utility.yul\":730:739   */\n      dup6\n        /* \"#utility.yul\":726:748   */\n      add\n        /* \"#utility.yul\":705:758   */\n      tag_168\n      jump\t// in\n    tag_183:\n        /* \"#utility.yul\":695:758   */\n      swap2\n      pop\n        /* \"#utility.yul\":651:768   */\n      pop\n        /* \"#utility.yul\":446:775   */\n      swap3\n      swap2\n      pop\n      pop\n      jump\t// out\n        /* \"#utility.yul\":781:1255   */\n    tag_25:\n        /* \"#utility.yul\":849:855   */\n      0x00\n        /* \"#utility.yul\":857:863   */\n      dup1\n        /* \"#utility.yul\":906:908   */\n      0x40\n        /* \"#utility.yul\":894:903   */\n      dup4\n        /* \"#utility.yul\":885:892   */\n      dup6\n        /* \"#utility.yul\":881:904   */\n      sub\n        /* \"#utility.yul\":877:909   */\n      slt\n        /* \"#utility.yul\":874:993   */\n      iszero\n      tag_185\n      jumpi\n        /* \"#utility.yul\":912:991   */\n      tag_186\n      tag_182\n      jump\t// in\n    tag_186:\n        /* \"#utility.yul\":874:993   */\n    tag_185:\n        /* \"#utility.yul\":1032:1033   */\n      0x00\n        /* \"#utility.yul\":1057:1110   */\n      tag_187\n        /* \"#utility.yul\":1102:1109   */\n      dup6\n        /* \"#utility.yul\":1093:1099   */\n      dup3\n        /* \"#utility.yul\":1082:1091   */\n      dup7\n        /* \"#utility.yul\":1078:1100   */\n      add\n        /* \"#utility.yul\":1057:1110   */\n      tag_168\n      jump\t// in\n    tag_187:\n        /* \"#utility.yul\":1047:1110   */\n      swap3\n      pop\n        /* \"#utility.yul\":1003:1120   */\n      pop\n        /* \"#utility.yul\":1159:1161   */\n      0x20\n        /* \"#utility.yul\":1185:1238   */\n      tag_188\n        /* \"#utility.yul\":1230:1237   */\n      dup6\n        /* \"#utility.yul\":1221:1227   */\n      dup3\n        /* \"#utility.yul\":1210:1219   */\n      dup7\n        /* \"#utility.yul\":1206:1228   */\n      add\n        /* \"#utility.yul\":1185:1238   */\n      tag_172\n      jump\t// in\n    tag_188:\n        /* \"#utility.yul\":1175:1238   */\n      swap2\n      pop\n        /* \"#utility.yul\":1130:1248   */\n      pop\n        /* \"#utility.yul\":781:1255   */\n      swap3\n      pop\n      swap3\n      swap1\n      pop\n      jump\t// out\n        /* \"#utility.yul\":1261:1590   */\n    tag_69:\n        /* \"#utility.yul\":1320:1326   */\n      0x00\n        /* \"#utility.yul\":1369:1371   */\n      0x20\n        /* \"#utility.yul\":1357:1366   */\n      dup3\n        /* \"#utility.yul\":1348:1355   */\n      dup5\n        /* \"#utility.yul\":1344:1367   */\n      sub\n        /* \"#utility.yul\":1340:1372   */\n      slt\n        /* \"#utility.yul\":1337:1456   */\n      iszero\n      tag_190\n      jumpi\n        /* \"#utility.yul\":1375:1454   */\n      tag_191\n      tag_182\n      jump\t// in\n    tag_191:\n        /* \"#utility.yul\":1337:1456   */\n    tag_190:\n        /* \"#utility.yul\":1495:1496   */\n      0x00\n        /* \"#utility.yul\":1520:1573   */\n      tag_192\n        /* \"#utility.yul\":1565:1572   */\n      dup5\n        /* \"#utility.yul\":1556:1562   */\n      dup3\n        /* \"#utility.yul\":1545:1554   */\n      dup6\n        /* \"#utility.yul\":1541:1563   */\n      add\n        /* \"#utility.yul\":1520:1573   */\n      tag_172\n      jump\t// in\n    tag_192:\n        /* \"#utility.yul\":1510:1573   */\n      swap2\n      pop\n        /* \"#utility.yul\":1466:1583   */\n      pop\n        /* \"#utility.yul\":1261:1590   */\n      swap3\n      swap2\n      pop\n      pop\n      jump\t// out\n        /* \"#utility.yul\":1596:1947   */\n    tag_161:\n        /* \"#utility.yul\":1666:1672   */\n      0x00\n        /* \"#utility.yul\":1715:1717   */\n      0x20\n        /* \"#utility.yul\":1703:1712   */\n      dup3\n        /* \"#utility.yul\":1694:1701   */\n      dup5\n        /* \"#utility.yul\":1690:1713   */\n      sub\n        /* \"#utility.yul\":1686:1718   */\n      slt\n        /* \"#utility.yul\":1683:1802   */\n      iszero\n      tag_194\n      jumpi\n        /* \"#utility.yul\":1721:1800   */\n      tag_195\n      tag_182\n      jump\t// in\n    tag_195:\n        /* \"#utility.yul\":1683:1802   */\n    tag_194:\n        /* \"#utility.yul\":1841:1842   */\n      0x00\n        /* \"#utility.yul\":1866:1930   */\n      tag_196\n        /* \"#utility.yul\":1922:1929   */\n      dup5\n        /* \"#utility.yul\":1913:1919   */\n      dup3\n        /* \"#utility.yul\":1902:1911   */\n      dup6\n        /* \"#utility.yul\":1898:1920   */\n      add\n        /* \"#utility.yul\":1866:1930   */\n      tag_176\n      jump\t// in\n    tag_196:\n        /* \"#utility.yul\":1856:1930   */\n      swap2\n      pop\n        /* \"#utility.yul\":1812:1940   */\n      pop\n        /* \"#utility.yul\":1596:1947   */\n      swap3\n      swap2\n      pop\n      pop\n      jump\t// out\n        /* \"#utility.yul\":1953:2427   */\n    tag_40:\n        /* \"#utility.yul\":2021:2027   */\n      0x00\n        /* \"#utility.yul\":2029:2035   */\n      dup1\n        /* \"#utility.yul\":2078:2080   */\n      0x40\n        /* \"#utility.yul\":2066:2075   */\n      dup4\n        /* \"#utility.yul\":2057:2064   */\n      dup6\n        /* \"#utility.yul\":2053:2076   */\n      sub\n        /* \"#utility.yul\":2049:2081   */\n      slt\n        /* \"#utility.yul\":2046:2165   */\n      iszero\n      tag_198\n      jumpi\n        /* \"#utility.yul\":2084:2163   */\n      tag_199\n      tag_182\n      jump\t// in\n    tag_199:\n        /* \"#utility.yul\":2046:2165   */\n    tag_198:\n        /* \"#utility.yul\":2204:2205   */\n      0x00\n        /* \"#utility.yul\":2229:2282   */\n      tag_200\n        /* \"#utility.yul\":2274:2281   */\n      dup6\n        /* \"#utility.yul\":2265:2271   */\n      dup3\n        /* \"#utility.yul\":2254:2263   */\n      dup7\n        /* \"#utility.yul\":2250:2272   */\n      add\n        /* \"#utility.yul\":2229:2282   */\n      tag_172\n      jump\t// in\n    tag_200:\n        /* \"#utility.yul\":2219:2282   */\n      swap3\n      pop\n        /* \"#utility.yul\":2175:2292   */\n      pop\n        /* \"#utility.yul\":2331:2333   */\n      0x20\n        /* \"#utility.yul\":2357:2410   */\n      tag_201\n        /* \"#utility.yul\":2402:2409   */\n      dup6\n        /* \"#utility.yul\":2393:2399   */\n      dup3\n        /* \"#utility.yul\":2382:2391   */\n      dup7\n        /* \"#utility.yul\":2378:2400   */\n      add\n        /* \"#utility.yul\":2357:2410   */\n      tag_168\n      jump\t// in\n    tag_201:\n        /* \"#utility.yul\":2347:2410   */\n      swap2\n      pop\n        /* \"#utility.yul\":2302:2420   */\n      pop\n        /* \"#utility.yul\":1953:2427   */\n      swap3\n      pop\n      swap3\n      swap1\n      pop\n      jump\t// out\n        /* \"#utility.yul\":2433:2551   */\n    tag_202:\n        /* \"#utility.yul\":2520:2544   */\n      tag_204\n        /* \"#utility.yul\":2538:2543   */\n      dup2\n        /* \"#utility.yul\":2520:2544   */\n      tag_205\n      jump\t// in\n    tag_204:\n        /* \"#utility.yul\":2515:2518   */\n      dup3\n        /* \"#utility.yul\":2508:2545   */\n      mstore\n        /* \"#utility.yul\":2433:2551   */\n      pop\n      pop\n      jump\t// out\n        /* \"#utility.yul\":2557:2714   */\n    tag_206:\n        /* \"#utility.yul\":2662:2707   */\n      tag_208\n        /* \"#utility.yul\":2682:2706   */\n      tag_209\n        /* \"#utility.yul\":2700:2705   */\n      dup3\n        /* \"#utility.yul\":2682:2706   */\n      tag_205\n      jump\t// in\n    tag_209:\n        /* \"#utility.yul\":2662:2707   */\n      tag_210\n      jump\t// in\n    tag_208:\n        /* \"#utility.yul\":2657:2660   */\n      dup3\n        /* \"#utility.yul\":2650:2708   */\n      mstore\n        /* \"#utility.yul\":2557:2714   */\n      pop\n      pop\n      jump\t// out\n        /* \"#utility.yul\":2720:2829   */\n    tag_211:\n        /* \"#utility.yul\":2801:2822   */\n      tag_213\n        /* \"#utility.yul\":2816:2821   */\n      dup2\n        /* \"#utility.yul\":2801:2822   */\n      tag_214\n      jump\t// in\n    tag_213:\n        /* \"#utility.yul\":2796:2799   */\n      dup3\n        /* \"#utility.yul\":2789:2823   */\n      mstore\n        /* \"#utility.yul\":2720:2829   */\n      pop\n      pop\n      jump\t// out\n        /* \"#utility.yul\":2835:2994   */\n    tag_215:\n        /* \"#utility.yul\":2936:2987   */\n      tag_217\n        /* \"#utility.yul\":2981:2986   */\n      dup2\n        /* \"#utility.yul\":2936:2987   */\n      tag_218\n      jump\t// in\n    tag_217:\n        /* \"#utility.yul\":2931:2934   */\n      dup3\n        /* \"#utility.yul\":2924:2988   */\n      mstore\n        /* \"#utility.yul\":2835:2994   */\n      pop\n      pop\n      jump\t// out\n        /* \"#utility.yul\":3000:3366   */\n    tag_219:\n        /* \"#utility.yul\":3142:3145   */\n      0x00\n        /* \"#utility.yul\":3163:3230   */\n      tag_221\n        /* \"#utility.yul\":3227:3229   */\n      0x26\n        /* \"#utility.yul\":3222:3225   */\n      dup4\n        /* \"#utility.yul\":3163:3230   */\n      tag_222\n      jump\t// in\n    tag_221:\n        /* \"#utility.yul\":3156:3230   */\n      swap2\n      pop\n        /* \"#utility.yul\":3239:3332   */\n      tag_223\n        /* \"#utility.yul\":3328:3331   */\n      dup3\n        /* \"#utility.yul\":3239:3332   */\n      tag_224\n      jump\t// in\n    tag_223:\n        /* \"#utility.yul\":3357:3359   */\n      0x40\n        /* \"#utility.yul\":3352:3355   */\n      dup3\n        /* \"#utility.yul\":3348:3360   */\n      add\n        /* \"#utility.yul\":3341:3360   */\n      swap1\n      pop\n        /* \"#utility.yul\":3000:3366   */\n      swap2\n      swap1\n      pop\n      jump\t// out\n        /* \"#utility.yul\":3372:3738   */\n    tag_225:\n        /* \"#utility.yul\":3514:3517   */\n      0x00\n        /* \"#utility.yul\":3535:3602   */\n      tag_227\n        /* \"#utility.yul\":3599:3601   */\n      0x20\n        /* \"#utility.yul\":3594:3597   */\n      dup4\n        /* \"#utility.yul\":3535:3602   */\n      tag_222\n      jump\t// in\n    tag_227:\n        /* \"#utility.yul\":3528:3602   */\n      swap2\n      pop\n        /* \"#utility.yul\":3611:3704   */\n      tag_228\n        /* \"#utility.yul\":3700:3703   */\n      dup3\n        /* \"#utility.yul\":3611:3704   */\n      tag_229\n      jump\t// in\n    tag_228:\n        /* \"#utility.yul\":3729:3731   */\n      0x20\n        /* \"#utility.yul\":3724:3727   */\n      dup3\n        /* \"#utility.yul\":3720:3732   */\n      add\n        /* \"#utility.yul\":3713:3732   */\n      swap1\n      pop\n        /* \"#utility.yul\":3372:3738   */\n      swap2\n      swap1\n      pop\n      jump\t// out\n        /* \"#utility.yul\":3744:3862   */\n    tag_230:\n        /* \"#utility.yul\":3831:3855   */\n      tag_232\n        /* \"#utility.yul\":3849:3854   */\n      dup2\n        /* \"#utility.yul\":3831:3855   */\n      tag_233\n      jump\t// in\n    tag_232:\n        /* \"#utility.yul\":3826:3829   */\n      dup3\n        /* \"#utility.yul\":3819:3856   */\n      mstore\n        /* \"#utility.yul\":3744:3862   */\n      pop\n      pop\n      jump\t// out\n        /* \"#utility.yul\":3868:4025   */\n    tag_234:\n        /* \"#utility.yul\":3973:4018   */\n      tag_236\n        /* \"#utility.yul\":3993:4017   */\n      tag_237\n        /* \"#utility.yul\":4011:4016   */\n      dup3\n        /* \"#utility.yul\":3993:4017   */\n      tag_233\n      jump\t// in\n    tag_237:\n        /* \"#utility.yul\":3973:4018   */\n      tag_238\n      jump\t// in\n    tag_236:\n        /* \"#utility.yul\":3968:3971   */\n      dup3\n        /* \"#utility.yul\":3961:4019   */\n      mstore\n        /* \"#utility.yul\":3868:4025   */\n      pop\n      pop\n      jump\t// out\n        /* \"#utility.yul\":4031:4710   */\n    tag_165:\n        /* \"#utility.yul\":4227:4230   */\n      0x00\n        /* \"#utility.yul\":4242:4317   */\n      tag_240\n        /* \"#utility.yul\":4313:4316   */\n      dup3\n        /* \"#utility.yul\":4304:4310   */\n      dup8\n        /* \"#utility.yul\":4242:4317   */\n      tag_234\n      jump\t// in\n    tag_240:\n        /* \"#utility.yul\":4342:4344   */\n      0x20\n        /* \"#utility.yul\":4337:4340   */\n      dup3\n        /* \"#utility.yul\":4333:4345   */\n      add\n        /* \"#utility.yul\":4326:4345   */\n      swap2\n      pop\n        /* \"#utility.yul\":4355:4430   */\n      tag_241\n        /* \"#utility.yul\":4426:4429   */\n      dup3\n        /* \"#utility.yul\":4417:4423   */\n      dup7\n        /* \"#utility.yul\":4355:4430   */\n      tag_234\n      jump\t// in\n    tag_241:\n        /* \"#utility.yul\":4455:4457   */\n      0x20\n        /* \"#utility.yul\":4450:4453   */\n      dup3\n        /* \"#utility.yul\":4446:4458   */\n      add\n        /* \"#utility.yul\":4439:4458   */\n      swap2\n      pop\n        /* \"#utility.yul\":4468:4543   */\n      tag_242\n        /* \"#utility.yul\":4539:4542   */\n      dup3\n        /* \"#utility.yul\":4530:4536   */\n      dup6\n        /* \"#utility.yul\":4468:4543   */\n      tag_206\n      jump\t// in\n    tag_242:\n        /* \"#utility.yul\":4568:4570   */\n      0x14\n        /* \"#utility.yul\":4563:4566   */\n      dup3\n        /* \"#utility.yul\":4559:4571   */\n      add\n        /* \"#utility.yul\":4552:4571   */\n      swap2\n      pop\n        /* \"#utility.yul\":4581:4656   */\n      tag_243\n        /* \"#utility.yul\":4652:4655   */\n      dup3\n        /* \"#utility.yul\":4643:4649   */\n      dup5\n        /* \"#utility.yul\":4581:4656   */\n      tag_234\n      jump\t// in\n    tag_243:\n        /* \"#utility.yul\":4681:4683   */\n      0x20\n        /* \"#utility.yul\":4676:4679   */\n      dup3\n        /* \"#utility.yul\":4672:4684   */\n      add\n        /* \"#utility.yul\":4665:4684   */\n      swap2\n      pop\n        /* \"#utility.yul\":4701:4704   */\n      dup2\n        /* \"#utility.yul\":4694:4704   */\n      swap1\n      pop\n        /* \"#utility.yul\":4031:4710   */\n      swap6\n      swap5\n      pop\n      pop\n      pop\n      pop\n      pop\n      jump\t// out\n        /* \"#utility.yul\":4716:4938   */\n    tag_59:\n        /* \"#utility.yul\":4809:4813   */\n      0x00\n        /* \"#utility.yul\":4847:4849   */\n      0x20\n        /* \"#utility.yul\":4836:4845   */\n      dup3\n        /* \"#utility.yul\":4832:4850   */\n      add\n        /* \"#utility.yul\":4824:4850   */\n      swap1\n      pop\n        /* \"#utility.yul\":4860:4931   */\n      tag_245\n        /* \"#utility.yul\":4928:4929   */\n      0x00\n        /* \"#utility.yul\":4917:4926   */\n      dup4\n        /* \"#utility.yul\":4913:4930   */\n      add\n        /* \"#utility.yul\":4904:4910   */\n      dup5\n        /* \"#utility.yul\":4860:4931   */\n      tag_202\n      jump\t// in\n    tag_245:\n        /* \"#utility.yul\":4716:4938   */\n      swap3\n      swap2\n      pop\n      pop\n      jump\t// out\n        /* \"#utility.yul\":4944:5276   */\n    tag_116:\n        /* \"#utility.yul\":5065:5069   */\n      0x00\n        /* \"#utility.yul\":5103:5105   */\n      0x40\n        /* \"#utility.yul\":5092:5101   */\n      dup3\n        /* \"#utility.yul\":5088:5106   */\n      add\n        /* \"#utility.yul\":5080:5106   */\n      swap1\n      pop\n        /* \"#utility.yul\":5116:5187   */\n      tag_247\n        /* \"#utility.yul\":5184:5185   */\n      0x00\n        /* \"#utility.yul\":5173:5182   */\n      dup4\n        /* \"#utility.yul\":5169:5186   */\n      add\n        /* \"#utility.yul\":5160:5166   */\n      dup6\n        /* \"#utility.yul\":5116:5187   */\n      tag_202\n      jump\t// in\n    tag_247:\n        /* \"#utility.yul\":5197:5269   */\n      tag_248\n        /* \"#utility.yul\":5265:5267   */\n      0x20\n        /* \"#utility.yul\":5254:5263   */\n      dup4\n        /* \"#utility.yul\":5250:5268   */\n      add\n        /* \"#utility.yul\":5241:5247   */\n      dup5\n        /* \"#utility.yul\":5197:5269   */\n      tag_230\n      jump\t// in\n    tag_248:\n        /* \"#utility.yul\":4944:5276   */\n      swap4\n      swap3\n      pop\n      pop\n      pop\n      jump\t// out\n        /* \"#utility.yul\":5282:5492   */\n    tag_48:\n        /* \"#utility.yul\":5369:5373   */\n      0x00\n        /* \"#utility.yul\":5407:5409   */\n      0x20\n        /* \"#utility.yul\":5396:5405   */\n      dup3\n        /* \"#utility.yul\":5392:5410   */\n      add\n        /* \"#utility.yul\":5384:5410   */\n      swap1\n      pop\n        /* \"#utility.yul\":5420:5485   */\n      tag_250\n        /* \"#utility.yul\":5482:5483   */\n      0x00\n        /* \"#utility.yul\":5471:5480   */\n      dup4\n        /* \"#utility.yul\":5467:5484   */\n      add\n        /* \"#utility.yul\":5458:5464   */\n      dup5\n        /* \"#utility.yul\":5420:5485   */\n      tag_211\n      jump\t// in\n    tag_250:\n        /* \"#utility.yul\":5282:5492   */\n      swap3\n      swap2\n      pop\n      pop\n      jump\t// out\n        /* \"#utility.yul\":5498:5748   */\n    tag_63:\n        /* \"#utility.yul\":5605:5609   */\n      0x00\n        /* \"#utility.yul\":5643:5645   */\n      0x20\n        /* \"#utility.yul\":5632:5641   */\n      dup3\n        /* \"#utility.yul\":5628:5646   */\n      add\n        /* \"#utility.yul\":5620:5646   */\n      swap1\n      pop\n        /* \"#utility.yul\":5656:5741   */\n      tag_252\n        /* \"#utility.yul\":5738:5739   */\n      0x00\n        /* \"#utility.yul\":5727:5736   */\n      dup4\n        /* \"#utility.yul\":5723:5740   */\n      add\n        /* \"#utility.yul\":5714:5720   */\n      dup5\n        /* \"#utility.yul\":5656:5741   */\n      tag_215\n      jump\t// in\n    tag_252:\n        /* \"#utility.yul\":5498:5748   */\n      swap3\n      swap2\n      pop\n      pop\n      jump\t// out\n        /* \"#utility.yul\":5754:6173   */\n    tag_153:\n        /* \"#utility.yul\":5920:5924   */\n      0x00\n        /* \"#utility.yul\":5958:5960   */\n      0x20\n        /* \"#utility.yul\":5947:5956   */\n      dup3\n        /* \"#utility.yul\":5943:5961   */\n      add\n        /* \"#utility.yul\":5935:5961   */\n      swap1\n      pop\n        /* \"#utility.yul\":6007:6016   */\n      dup2\n        /* \"#utility.yul\":6001:6005   */\n      dup2\n        /* \"#utility.yul\":5997:6017   */\n      sub\n        /* \"#utility.yul\":5993:5994   */\n      0x00\n        /* \"#utility.yul\":5982:5991   */\n      dup4\n        /* \"#utility.yul\":5978:5995   */\n      add\n        /* \"#utility.yul\":5971:6018   */\n      mstore\n        /* \"#utility.yul\":6035:6166   */\n      tag_254\n        /* \"#utility.yul\":6161:6165   */\n      dup2\n        /* \"#utility.yul\":6035:6166   */\n      tag_219\n      jump\t// in\n    tag_254:\n        /* \"#utility.yul\":6027:6166   */\n      swap1\n      pop\n        /* \"#utility.yul\":5754:6173   */\n      swap2\n      swap1\n      pop\n      jump\t// out\n        /* \"#utility.yul\":6179:6598   */\n    tag_107:\n        /* \"#utility.yul\":6345:6349   */\n      0x00\n        /* \"#utility.yul\":6383:6385   */\n      0x20\n        /* \"#utility.yul\":6372:6381   */\n      dup3\n        /* \"#utility.yul\":6368:6386   */\n      add\n        /* \"#utility.yul\":6360:6386   */\n      swap1\n      pop\n        /* \"#utility.yul\":6432:6441   */\n      dup2\n        /* \"#utility.yul\":6426:6430   */\n      dup2\n        /* \"#utility.yul\":6422:6442   */\n      sub\n        /* \"#utility.yul\":6418:6419   */\n      0x00\n        /* \"#utility.yul\":6407:6416   */\n      dup4\n        /* \"#utility.yul\":6403:6420   */\n      add\n        /* \"#utility.yul\":6396:6443   */\n      mstore\n        /* \"#utility.yul\":6460:6591   */\n      tag_256\n        /* \"#utility.yul\":6586:6590   */\n      dup2\n        /* \"#utility.yul\":6460:6591   */\n      tag_225\n      jump\t// in\n    tag_256:\n        /* \"#utility.yul\":6452:6591   */\n      swap1\n      pop\n        /* \"#utility.yul\":6179:6598   */\n      swap2\n      swap1\n      pop\n      jump\t// out\n        /* \"#utility.yul\":6604:6826   */\n    tag_28:\n        /* \"#utility.yul\":6697:6701   */\n      0x00\n        /* \"#utility.yul\":6735:6737   */\n      0x20\n        /* \"#utility.yul\":6724:6733   */\n      dup3\n        /* \"#utility.yul\":6720:6738   */\n      add\n        /* \"#utility.yul\":6712:6738   */\n      swap1\n      pop\n        /* \"#utility.yul\":6748:6819   */\n      tag_258\n        /* \"#utility.yul\":6816:6817   */\n      0x00\n        /* \"#utility.yul\":6805:6814   */\n      dup4\n        /* \"#utility.yul\":6801:6818   */\n      add\n        /* \"#utility.yul\":6792:6798   */\n      dup5\n        /* \"#utility.yul\":6748:6819   */\n      tag_230\n      jump\t// in\n    tag_258:\n        /* \"#utility.yul\":6604:6826   */\n      swap3\n      swap2\n      pop\n      pop\n      jump\t// out\n        /* \"#utility.yul\":6832:7496   */\n    tag_72:\n        /* \"#utility.yul\":7037:7041   */\n      0x00\n        /* \"#utility.yul\":7075:7078   */\n      0xa0\n        /* \"#utility.yul\":7064:7073   */\n      dup3\n        /* \"#utility.yul\":7060:7079   */\n      add\n        /* \"#utility.yul\":7052:7079   */\n      swap1\n      pop\n        /* \"#utility.yul\":7089:7160   */\n      tag_260\n        /* \"#utility.yul\":7157:7158   */\n      0x00\n        /* \"#utility.yul\":7146:7155   */\n      dup4\n        /* \"#utility.yul\":7142:7159   */\n      add\n        /* \"#utility.yul\":7133:7139   */\n      dup9\n        /* \"#utility.yul\":7089:7160   */\n      tag_230\n      jump\t// in\n    tag_260:\n        /* \"#utility.yul\":7170:7242   */\n      tag_261\n        /* \"#utility.yul\":7238:7240   */\n      0x20\n        /* \"#utility.yul\":7227:7236   */\n      dup4\n        /* \"#utility.yul\":7223:7241   */\n      add\n        /* \"#utility.yul\":7214:7220   */\n      dup8\n        /* \"#utility.yul\":7170:7242   */\n      tag_230\n      jump\t// in\n    tag_261:\n        /* \"#utility.yul\":7252:7324   */\n      tag_262\n        /* \"#utility.yul\":7320:7322   */\n      0x40\n        /* \"#utility.yul\":7309:7318   */\n      dup4\n        /* \"#utility.yul\":7305:7323   */\n      add\n        /* \"#utility.yul\":7296:7302   */\n      dup7\n        /* \"#utility.yul\":7252:7324   */\n      tag_230\n      jump\t// in\n    tag_262:\n        /* \"#utility.yul\":7334:7406   */\n      tag_263\n        /* \"#utility.yul\":7402:7404   */\n      0x60\n        /* \"#utility.yul\":7391:7400   */\n      dup4\n        /* \"#utility.yul\":7387:7405   */\n      add\n        /* \"#utility.yul\":7378:7384   */\n      dup6\n        /* \"#utility.yul\":7334:7406   */\n      tag_230\n      jump\t// in\n    tag_263:\n        /* \"#utility.yul\":7416:7489   */\n      tag_264\n        /* \"#utility.yul\":7484:7487   */\n      0x80\n        /* \"#utility.yul\":7473:7482   */\n      dup4\n        /* \"#utility.yul\":7469:7488   */\n      add\n        /* \"#utility.yul\":7460:7466   */\n      dup5\n        /* \"#utility.yul\":7416:7489   */\n      tag_202\n      jump\t// in\n    tag_264:\n        /* \"#utility.yul\":6832:7496   */\n      swap7\n      swap6\n      pop\n      pop\n      pop\n      pop\n      pop\n      pop\n      jump\t// out\n        /* \"#utility.yul\":7583:7752   */\n    tag_222:\n        /* \"#utility.yul\":7667:7678   */\n      0x00\n        /* \"#utility.yul\":7701:7707   */\n      dup3\n        /* \"#utility.yul\":7696:7699   */\n      dup3\n        /* \"#utility.yul\":7689:7708   */\n      mstore\n        /* \"#utility.yul\":7741:7745   */\n      0x20\n        /* \"#utility.yul\":7736:7739   */\n      dup3\n        /* \"#utility.yul\":7732:7746   */\n      add\n        /* \"#utility.yul\":7717:7746   */\n      swap1\n      pop\n        /* \"#utility.yul\":7583:7752   */\n      swap3\n      swap2\n      pop\n      pop\n      jump\t// out\n        /* \"#utility.yul\":7758:8063   */\n    tag_93:\n        /* \"#utility.yul\":7798:7801   */\n      0x00\n        /* \"#utility.yul\":7817:7837   */\n      tag_269\n        /* \"#utility.yul\":7835:7836   */\n      dup3\n        /* \"#utility.yul\":7817:7837   */\n      tag_233\n      jump\t// in\n    tag_269:\n        /* \"#utility.yul\":7812:7837   */\n      swap2\n      pop\n        /* \"#utility.yul\":7851:7871   */\n      tag_270\n        /* \"#utility.yul\":7869:7870   */\n      dup4\n        /* \"#utility.yul\":7851:7871   */\n      tag_233\n      jump\t// in\n    tag_270:\n        /* \"#utility.yul\":7846:7871   */\n      swap3\n      pop\n        /* \"#utility.yul\":8005:8006   */\n      dup3\n        /* \"#utility.yul\":7937:8003   */\n      0xffffffffffffffffffffffffffffffffffffffffffffffffffffffffffffffff\n        /* \"#utility.yul\":7933:8007   */\n      sub\n        /* \"#utility.yul\":7930:7931   */\n      dup3\n        /* \"#utility.yul\":7927:8008   */\n      gt\n        /* \"#utility.yul\":7924:8031   */\n      iszero\n      tag_271\n      jumpi\n        /* \"#utility.yul\":8011:8029   */\n      tag_272\n      tag_273\n      jump\t// in\n    tag_272:\n        /* \"#utility.yul\":7924:8031   */\n    tag_271:\n        /* \"#utility.yul\":8055:8056   */\n      dup3\n        /* \"#utility.yul\":8052:8053   */\n      dup3\n        /* \"#utility.yul\":8048:8057   */\n      add\n        /* \"#utility.yul\":8041:8057   */\n      swap1\n      pop\n        /* \"#utility.yul\":7758:8063   */\n      swap3\n      swap2\n      pop\n      pop\n      jump\t// out\n        /* \"#utility.yul\":8069:8260   */\n    tag_134:\n        /* \"#utility.yul\":8109:8113   */\n      0x00\n        /* \"#utility.yul\":8129:8149   */\n      tag_275\n        /* \"#utility.yul\":8147:8148   */\n      dup3\n        /* \"#utility.yul\":8129:8149   */\n      tag_233\n      jump\t// in\n    tag_275:\n        /* \"#utility.yul\":8124:8149   */\n      swap2\n      pop\n        /* \"#utility.yul\":8163:8183   */\n      tag_276\n        /* \"#utility.yul\":8181:8182   */\n      dup4\n        /* \"#utility.yul\":8163:8183   */\n      tag_233\n      jump\t// in\n    tag_276:\n        /* \"#utility.yul\":8158:8183   */\n      swap3\n      pop\n        /* \"#utility.yul\":8202:8203   */\n      dup3\n        /* \"#utility.yul\":8199:8200   */\n      dup3\n        /* \"#utility.yul\":8196:8204   */\n      lt\n        /* \"#utility.yul\":8193:8227   */\n      iszero\n      tag_277\n      jumpi\n        /* \"#utility.yul\":8207:8225   */\n      tag_278\n      tag_273\n      jump\t// in\n    tag_278:\n        /* \"#utility.yul\":8193:8227   */\n    tag_277:\n        /* \"#utility.yul\":8252:8253   */\n      dup3\n        /* \"#utility.yul\":8249:8250   */\n      dup3\n        /* \"#utility.yul\":8245:8254   */\n      sub\n        /* \"#utility.yul\":8237:8254   */\n      swap1\n      pop\n        /* \"#utility.yul\":8069:8260   */\n      swap3\n      swap2\n      pop\n      pop\n      jump\t// out\n        /* \"#utility.yul\":8266:8362   */\n    tag_205:\n        /* \"#utility.yul\":8303:8310   */\n      0x00\n        /* \"#utility.yul\":8332:8356   */\n      tag_280\n        /* \"#utility.yul\":8350:8355   */\n      dup3\n        /* \"#utility.yul\":8332:8356   */\n      tag_281\n      jump\t// in\n    tag_280:\n        /* \"#utility.yul\":8321:8356   */\n      swap1\n      pop\n        /* \"#utility.yul\":8266:8362   */\n      swap2\n      swap1\n      pop\n      jump\t// out\n        /* \"#utility.yul\":8368:8458   */\n    tag_214:\n        /* \"#utility.yul\":8402:8409   */\n      0x00\n        /* \"#utility.yul\":8445:8450   */\n      dup2\n        /* \"#utility.yul\":8438:8451   */\n      iszero\n        /* \"#utility.yul\":8431:8452   */\n      iszero\n        /* \"#utility.yul\":8420:8452   */\n      swap1\n      pop\n        /* \"#utility.yul\":8368:8458   */\n      swap2\n      swap1\n      pop\n      jump\t// out\n        /* \"#utility.yul\":8464:8590   */\n    tag_281:\n        /* \"#utility.yul\":8501:8508   */\n      0x00\n        /* \"#utility.yul\":8541:8583   */\n      0xffffffffffffffffffffffffffffffffffffffff\n        /* \"#utility.yul\":8534:8539   */\n      dup3\n        /* \"#utility.yul\":8530:8584   */\n      and\n        /* \"#utility.yul\":8519:8584   */\n      swap1\n      pop\n        /* \"#utility.yul\":8464:8590   */\n      swap2\n      swap1\n      pop\n      jump\t// out\n        /* \"#utility.yul\":8596:8673   */\n    tag_233:\n        /* \"#utility.yul\":8633:8640   */\n      0x00\n        /* \"#utility.yul\":8662:8667   */\n      dup2\n        /* \"#utility.yul\":8651:8667   */\n      swap1\n      pop\n        /* \"#utility.yul\":8596:8673   */\n      swap2\n      swap1\n      pop\n      jump\t// out\n        /* \"#utility.yul\":8679:8819   */\n    tag_218:\n        /* \"#utility.yul\":8743:8752   */\n      0x00\n        /* \"#utility.yul\":8776:8813   */\n      tag_286\n        /* \"#utility.yul\":8807:8812   */\n      dup3\n        /* \"#utility.yul\":8776:8813   */\n      tag_287\n      jump\t// in\n    tag_286:\n        /* \"#utility.yul\":8763:8813   */\n      swap1\n      pop\n        /* \"#utility.yul\":8679:8819   */\n      swap2\n      swap1\n      pop\n      jump\t// out\n        /* \"#utility.yul\":8825:8951   */\n    tag_287:\n        /* \"#utility.yul\":8875:8884   */\n      0x00\n        /* \"#utility.yul\":8908:8945   */\n      tag_289\n        /* \"#utility.yul\":8939:8944   */\n      dup3\n        /* \"#utility.yul\":8908:8945   */\n      tag_290\n      jump\t// in\n    tag_289:\n        /* \"#utility.yul\":8895:8945   */\n      swap1\n      pop\n        /* \"#utility.yul\":8825:8951   */\n      swap2\n      swap1\n      pop\n      jump\t// out\n        /* \"#utility.yul\":8957:9070   */\n    tag_290:\n        /* \"#utility.yul\":9007:9016   */\n      0x00\n        /* \"#utility.yul\":9040:9064   */\n      tag_292\n        /* \"#utility.yul\":9058:9063   */\n      dup3\n        /* \"#utility.yul\":9040:9064   */\n      tag_281\n      jump\t// in\n    tag_292:\n        /* \"#utility.yul\":9027:9064   */\n      swap1\n      pop\n        /* \"#utility.yul\":8957:9070   */\n      swap2\n      swap1\n      pop\n      jump\t// out\n        /* \"#utility.yul\":9076:9309   */\n    tag_97:\n        /* \"#utility.yul\":9115:9118   */\n      0x00\n        /* \"#utility.yul\":9138:9162   */\n      tag_294\n        /* \"#utility.yul\":9156:9161   */\n      dup3\n        /* \"#utility.yul\":9138:9162   */\n      tag_233\n      jump\t// in\n    tag_294:\n        /* \"#utility.yul\":9129:9162   */\n      swap2\n      pop\n        /* \"#utility.yul\":9184:9250   */\n      0xffffffffffffffffffffffffffffffffffffffffffffffffffffffffffffffff\n        /* \"#utility.yul\":9177:9182   */\n      dup3\n        /* \"#utility.yul\":9174:9251   */\n      eq\n        /* \"#utility.yul\":9171:9274   */\n      iszero\n      tag_295\n      jumpi\n        /* \"#utility.yul\":9254:9272   */\n      tag_296\n      tag_273\n      jump\t// in\n    tag_296:\n        /* \"#utility.yul\":9171:9274   */\n    tag_295:\n        /* \"#utility.yul\":9301:9302   */\n      0x01\n        /* \"#utility.yul\":9294:9299   */\n      dup3\n        /* \"#utility.yul\":9290:9303   */\n      add\n        /* \"#utility.yul\":9283:9303   */\n      swap1\n      pop\n        /* \"#utility.yul\":9076:9309   */\n      swap2\n      swap1\n      pop\n      jump\t// out\n        /* \"#utility.yul\":9315:9415   */\n    tag_210:\n        /* \"#utility.yul\":9354:9361   */\n      0x00\n        /* \"#utility.yul\":9383:9409   */\n      tag_298\n        /* \"#utility.yul\":9403:9408   */\n      dup3\n        /* \"#utility.yul\":9383:9409   */\n      tag_299\n      jump\t// in\n    tag_298:\n        /* \"#utility.yul\":9372:9409   */\n      swap1\n      pop\n        /* \"#utility.yul\":9315:9415   */\n      swap2\n      swap1\n      pop\n      jump\t// out\n        /* \"#utility.yul\":9421:9515   */\n    tag_299:\n        /* \"#utility.yul\":9460:9467   */\n      0x00\n        /* \"#utility.yul\":9489:9509   */\n      tag_301\n        /* \"#utility.yul\":9503:9508   */\n      dup3\n        /* \"#utility.yul\":9489:9509   */\n      tag_302\n      jump\t// in\n    tag_301:\n        /* \"#utility.yul\":9478:9509   */\n      swap1\n      pop\n        /* \"#utility.yul\":9421:9515   */\n      swap2\n      swap1\n      pop\n      jump\t// out\n        /* \"#utility.yul\":9521:9600   */\n    tag_238:\n        /* \"#utility.yul\":9560:9567   */\n      0x00\n        /* \"#utility.yul\":9589:9594   */\n      dup2\n        /* \"#utility.yul\":9578:9594   */\n      swap1\n      pop\n        /* \"#utility.yul\":9521:9600   */\n      swap2\n      swap1\n      pop\n      jump\t// out\n        /* \"#utility.yul\":9606:9782   */\n    tag_112:\n        /* \"#utility.yul\":9638:9639   */\n      0x00\n        /* \"#utility.yul\":9655:9675   */\n      tag_305\n        /* \"#utility.yul\":9673:9674   */\n      dup3\n        /* \"#utility.yul\":9655:9675   */\n      tag_233\n      jump\t// in\n    tag_305:\n        /* \"#utility.yul\":9650:9675   */\n      swap2\n      pop\n        /* \"#utility.yul\":9689:9709   */\n      tag_306\n        /* \"#utility.yul\":9707:9708   */\n      dup4\n        /* \"#utility.yul\":9689:9709   */\n      tag_233\n      jump\t// in\n    tag_306:\n        /* \"#utility.yul\":9684:9709   */\n      swap3\n      pop\n        /* \"#utility.yul\":9728:9729   */\n      dup3\n        /* \"#utility.yul\":9718:9753   */\n      tag_307\n      jumpi\n        /* \"#utility.yul\":9733:9751   */\n      tag_308\n      tag_309\n      jump\t// in\n    tag_308:\n        /* \"#utility.yul\":9718:9753   */\n    tag_307:\n        /* \"#utility.yul\":9774:9775   */\n      dup3\n        /* \"#utility.yul\":9771:9772   */\n      dup3\n        /* \"#utility.yul\":9767:9776   */\n      mod\n        /* \"#utility.yul\":9762:9776   */\n      swap1\n      pop\n        /* \"#utility.yul\":9606:9782   */\n      swap3\n      swap2\n      pop\n      pop\n      jump\t// out\n        /* \"#utility.yul\":9788:9968   */\n    tag_273:\n        /* \"#utility.yul\":9836:9913   */\n      0x4e487b7100000000000000000000000000000000000000000000000000000000\n        /* \"#utility.yul\":9833:9834   */\n      0x00\n        /* \"#utility.yul\":9826:9914   */\n      mstore\n        /* \"#utility.yul\":9933:9937   */\n      0x11\n        /* \"#utility.yul\":9930:9931   */\n      0x04\n        /* \"#utility.yul\":9923:9938   */\n      mstore\n        /* \"#utility.yul\":9957:9961   */\n      0x24\n        /* \"#utility.yul\":9954:9955   */\n      0x00\n        /* \"#utility.yul\":9947:9962   */\n      revert\n        /* \"#utility.yul\":9974:10154   */\n    tag_309:\n        /* \"#utility.yul\":10022:10099   */\n      0x4e487b7100000000000000000000000000000000000000000000000000000000\n        /* \"#utility.yul\":10019:10020   */\n      0x00\n        /* \"#utility.yul\":10012:10100   */\n      mstore\n        /* \"#utility.yul\":10119:10123   */\n      0x12\n        /* \"#utility.yul\":10116:10117   */\n      0x04\n        /* \"#utility.yul\":10109:10124   */\n      mstore\n        /* \"#utility.yul\":10143:10147   */\n      0x24\n        /* \"#utility.yul\":10140:10141   */\n      0x00\n        /* \"#utility.yul\":10133:10148   */\n      revert\n        /* \"#utility.yul\":10160:10340   */\n    tag_137:\n        /* \"#utility.yul\":10208:10285   */\n      0x4e487b7100000000000000000000000000000000000000000000000000000000\n        /* \"#utility.yul\":10205:10206   */\n      0x00\n        /* \"#utility.yul\":10198:10286   */\n      mstore\n        /* \"#utility.yul\":10305:10309   */\n      0x32\n        /* \"#utility.yul\":10302:10303   */\n      0x04\n        /* \"#utility.yul\":10295:10310   */\n      mstore\n        /* \"#utility.yul\":10329:10333   */\n      0x24\n        /* \"#utility.yul\":10326:10327   */\n      0x00\n        /* \"#utility.yul\":10319:10334   */\n      revert\n        /* \"#utility.yul\":10469:10586   */\n    tag_182:\n        /* \"#utility.yul\":10578:10579   */\n      0x00\n        /* \"#utility.yul\":10575:10576   */\n      dup1\n        /* \"#utility.yul\":10568:10580   */\n      revert\n        /* \"#utility.yul\":10592:10686   */\n    tag_302:\n        /* \"#utility.yul\":10625:10633   */\n      0x00\n        /* \"#utility.yul\":10673:10678   */\n      dup2\n        /* \"#utility.yul\":10669:10671   */\n      0x60\n        /* \"#utility.yul\":10665:10679   */\n      shl\n        /* \"#utility.yul\":10644:10679   */\n      swap1\n      pop\n        /* \"#utility.yul\":10592:10686   */\n      swap2\n      swap1\n      pop\n      jump\t// out\n        /* \"#utility.yul\":10692:10917   */\n    tag_224:\n        /* \"#utility.yul\":10832:10866   */\n      0x4f776e61626c653a206e6577206f776e657220697320746865207a65726f2061\n        /* \"#utility.yul\":10828:10829   */\n      0x00\n        /* \"#utility.yul\":10820:10826   */\n      dup3\n        /* \"#utility.yul\":10816:10830   */\n      add\n        /* \"#utility.yul\":10809:10867   */\n      mstore\n        /* \"#utility.yul\":10901:10909   */\n      0x6464726573730000000000000000000000000000000000000000000000000000\n        /* \"#utility.yul\":10896:10898   */\n      0x20\n        /* \"#utility.yul\":10888:10894   */\n      dup3\n        /* \"#utility.yul\":10884:10899   */\n      add\n        /* \"#utility.yul\":10877:10910   */\n      mstore\n        /* \"#utility.yul\":10692:10917   */\n      pop\n      jump\t// out\n        /* \"#utility.yul\":10923:11105   */\n    tag_229:\n        /* \"#utility.yul\":11063:11097   */\n      0x4f776e61626c653a2063616c6c6572206973206e6f7420746865206f776e6572\n        /* \"#utility.yul\":11059:11060   */\n      0x00\n        /* \"#utility.yul\":11051:11057   */\n      dup3\n        /* \"#utility.yul\":11047:11061   */\n      add\n        /* \"#utility.yul\":11040:11098   */\n      mstore\n        /* \"#utility.yul\":10923:11105   */\n      pop\n      jump\t// out\n        /* \"#utility.yul\":11111:11233   */\n    tag_171:\n        /* \"#utility.yul\":11184:11208   */\n      tag_320\n        /* \"#utility.yul\":11202:11207   */\n      dup2\n        /* \"#utility.yul\":11184:11208   */\n      tag_205\n      jump\t// in\n    tag_320:\n        /* \"#utility.yul\":11177:11182   */\n      dup2\n        /* \"#utility.yul\":11174:11209   */\n      eq\n        /* \"#utility.yul\":11164:11227   */\n      tag_321\n      jumpi\n        /* \"#utility.yul\":11223:11224   */\n      0x00\n        /* \"#utility.yul\":11220:11221   */\n      dup1\n        /* \"#utility.yul\":11213:11225   */\n      revert\n        /* \"#utility.yul\":11164:11227   */\n    tag_321:\n        /* \"#utility.yul\":11111:11233   */\n      pop\n      jump\t// out\n        /* \"#utility.yul\":11239:11361   */\n    tag_175:\n        /* \"#utility.yul\":11312:11336   */\n      tag_323\n        /* \"#utility.yul\":11330:11335   */\n      dup2\n        /* \"#utility.yul\":11312:11336   */\n      tag_233\n      jump\t// in\n    tag_323:\n        /* \"#utility.yul\":11305:11310   */\n      dup2\n        /* \"#utility.yul\":11302:11337   */\n      eq\n        /* \"#utility.yul\":11292:11355   */\n      tag_324\n      jumpi\n        /* \"#utility.yul\":11351:11352   */\n      0x00\n        /* \"#utility.yul\":11348:11349   */\n      dup1\n        /* \"#utility.yul\":11341:11353   */\n      revert\n        /* \"#utility.yul\":11292:11355   */\n    tag_324:\n        /* \"#utility.yul\":11239:11361   */\n      pop\n      jump\t// out\n\n    auxdata: 0xa26469706673582212204bbfa3d8c88592b32a7385f4068a353eafc9b6eee3a0ab1dd01d5e628c48101064736f6c63430008070033\n}\n",
				"bytecode": {
					"linkReferences": {},
					"object": "60806040523480156200001157600080fd5b506040516200174c3803806200174c833981810160405281019062000037919062000182565b620000576200004b6200009f60201b60201c565b620000a760201b60201c565b80600460006101000a81548173ffffffffffffffffffffffffffffffffffffffff021916908373ffffffffffffffffffffffffffffffffffffffff1602179055505062000207565b600033905090565b60008060009054906101000a900473ffffffffffffffffffffffffffffffffffffffff169050816000806101000a81548173ffffffffffffffffffffffffffffffffffffffff021916908373ffffffffffffffffffffffffffffffffffffffff1602179055508173ffffffffffffffffffffffffffffffffffffffff168173ffffffffffffffffffffffffffffffffffffffff167f8be0079c531659141344cd1fd0a4f28419497f9722a3daafe3b4186f6b6457e060405160405180910390a35050565b6000815190506200017c81620001ed565b92915050565b6000602082840312156200019b576200019a620001e8565b5b6000620001ab848285016200016b565b91505092915050565b6000620001c182620001c8565b9050919050565b600073ffffffffffffffffffffffffffffffffffffffff82169050919050565b600080fd5b620001f881620001b4565b81146200020457600080fd5b50565b61153580620002176000396000f3fe608060405234801561001057600080fd5b506004361061010b5760003560e01c806376636d20116100a2578063ac128f4f11610071578063ac128f4f14610282578063b657dd65146102b6578063c4740a95146102e6578063f2fde38b14610302578063f9cee0bd1461031e5761010b565b806376636d201461020c5780638da5cb5b1461022a5780639b3e455214610248578063a59460dc146102665761010b565b8063578e3f88116100de578063578e3f88146101985780635bedc390146101c85780635d495aea146101f8578063715018a6146102025761010b565b80630d98827014610110578063119b22b314610140578063443b80a11461015e578063454f7b8f1461017a575b600080fd5b61012a60048036038101906101259190610ef9565b61033c565b604051610137919061118b565b60405180910390f35b61014861036d565b604051610155919061118b565b60405180910390f35b61017860048036038101906101739190610ef9565b610373565b005b6101826104ea565b60405161018f919061118b565b60405180910390f35b6101b260048036038101906101ad9190610f93565b6104f0565b6040516101bf919061118b565b60405180910390f35b6101e260048036038101906101dd9190610ecc565b610515565b6040516101ef9190611115565b60405180910390f35b610200610579565b005b61020a610776565b005b6102146107fe565b604051610221919061118b565b60405180910390f35b610232610804565b60405161023f91906110d1565b60405180910390f35b61025061082d565b60405161025d9190611130565b60405180910390f35b610280600480360381019061027b9190610ef9565b610853565b005b61029c60048036038101906102979190610f39565b610af0565b6040516102ad9594939291906111a6565b60405180910390f35b6102d060048036038101906102cb9190610f39565b610b46565b6040516102dd91906110d1565b60405180910390f35b61030060048036038101906102fb9190610ecc565b610b79565b005b61031c60048036038101906103179190610ecc565b610bde565b005b610326610cd6565b604051610333919061118b565b60405180910390f35b6008602052816000526040600020818154811061035857600080fd5b90600052602060002001600091509150505481565b60025481565b60005b8181101561046357826006600083600154610391919061120a565b815260200190815260200160002060006101000a81548173ffffffffffffffffffffffffffffffffffffffff021916908373ffffffffffffffffffffffffffffffffffffffff160217905550600860008473ffffffffffffffffffffffffffffffffffffffff1673ffffffffffffffffffffffffffffffffffffffff1681526020019081526020016000208160015461042a919061120a565b9080600181540180825580915050600190039060005260206000200160009091909190915055808061045b90611312565b915050610376565b508060076000600254815260200190815260200160002060008473ffffffffffffffffffffffffffffffffffffffff1673ffffffffffffffffffffffffffffffffffffffff16815260200190815260200160002060008282546104c6919061120a565b9250508190555080600160008282546104df919061120a565b925050819055505050565b60035481565b6007602052816000526040600020602052806000526040600020600091509150505481565b60008060076000600254815260200190815260200160002060008473ffffffffffffffffffffffffffffffffffffffff1673ffffffffffffffffffffffffffffffffffffffff16815260200190815260200160002054905060008111915050919050565b610581610d88565b73ffffffffffffffffffffffffffffffffffffffff1661059f610804565b73ffffffffffffffffffffffffffffffffffffffff16146105f5576040517f08c379a00000000000000000000000000000000000000000000000000000000081526004016105ec9061116b565b60405180910390fd5b6000600154610602610d90565b61060c9190611389565b905060006006600083815260200190815260200160002060009054906101000a900473ffffffffffffffffffffffffffffffffffffffff1690506000610650610cd6565b90506040518060a0016040528060015481526020018481526020018281526020014281526020018373ffffffffffffffffffffffffffffffffffffffff168152506005600060025481526020019081526020016000206000820151816000015560208201518160010155604082015181600201556060820151816003015560808201518160040160006101000a81548173ffffffffffffffffffffffffffffffffffffffff021916908373ffffffffffffffffffffffffffffffffffffffff1602179055509050506002600081548092919061072b90611312565b919050555060006001819055507f2e798dd4337e515c79b64c40e1a93baa1aefbd9180ac7905e02508edd7971e5082826040516107699291906110ec565b60405180910390a1505050565b61077e610d88565b73ffffffffffffffffffffffffffffffffffffffff1661079c610804565b73ffffffffffffffffffffffffffffffffffffffff16146107f2576040517f08c379a00000000000000000000000000000000000000000000000000000000081526004016107e99061116b565b60405180910390fd5b6107fc6000610dc9565b565b60015481565b60008060009054906101000a900473ffffffffffffffffffffffffffffffffffffffff16905090565b600460009054906101000a900473ffffffffffffffffffffffffffffffffffffffff1681565b600060076000600254815260200190815260200160002060008473ffffffffffffffffffffffffffffffffffffffff1673ffffffffffffffffffffffffffffffffffffffff16815260200190815260200160002054905060008114156108b95750610aec565b808211156108c5578091505b6000600190505b828111610a67576000600860008673ffffffffffffffffffffffffffffffffffffffff1673ffffffffffffffffffffffffffffffffffffffff1681526020019081526020016000206001600860008873ffffffffffffffffffffffffffffffffffffffff1673ffffffffffffffffffffffffffffffffffffffff168152602001908152602001600020805490506109639190611260565b8154811061097457610973611418565b5b9060005260206000200154905060066000836001546109939190611260565b815260200190815260200160002060009054906101000a900473ffffffffffffffffffffffffffffffffffffffff166006600083815260200190815260200160002060006101000a81548173ffffffffffffffffffffffffffffffffffffffff021916908373ffffffffffffffffffffffffffffffffffffffff160217905550600860008673ffffffffffffffffffffffffffffffffffffffff1673ffffffffffffffffffffffffffffffffffffffff16815260200190815260200160002050508080610a5f90611312565b9150506108cc565b508160076000600254815260200190815260200160002060008573ffffffffffffffffffffffffffffffffffffffff1673ffffffffffffffffffffffffffffffffffffffff1681526020019081526020016000206000828254610aca9190611260565b925050819055508160016000828254610ae39190611260565b92505081905550505b5050565b60056020528060005260406000206000915090508060000154908060010154908060020154908060030154908060040160009054906101000a900473ffffffffffffffffffffffffffffffffffffffff16905085565b60066020528060005260406000206000915054906101000a900473ffffffffffffffffffffffffffffffffffffffff1681565b600060076000600254815260200190815260200160002060008373ffffffffffffffffffffffffffffffffffffffff1673ffffffffffffffffffffffffffffffffffffffff168152602001908152602001600020549050610bda8282610853565b5050565b610be6610d88565b73ffffffffffffffffffffffffffffffffffffffff16610c04610804565b73ffffffffffffffffffffffffffffffffffffffff1614610c5a576040517f08c379a0000000000000000000000000000000000000000000000000000000008152600401610c519061116b565b60405180910390fd5b600073ffffffffffffffffffffffffffffffffffffffff168173ffffffffffffffffffffffffffffffffffffffff161415610cca576040517f08c379a0000000000000000000000000000000000000000000000000000000008152600401610cc19061114b565b60405180910390fd5b610cd381610dc9565b50565b6000600460009054906101000a900473ffffffffffffffffffffffffffffffffffffffff1673ffffffffffffffffffffffffffffffffffffffff166370a08231306040518263ffffffff1660e01b8152600401610d3391906110d1565b60206040518083038186803b158015610d4b57600080fd5b505afa158015610d5f573d6000803e3d6000fd5b505050506040513d601f19601f82011682018060405250810190610d839190610f66565b905090565b600033905090565b6000425a33600354604051602001610dab9493929190611083565b6040516020818303038152906040528051906020012060001c905090565b60008060009054906101000a900473ffffffffffffffffffffffffffffffffffffffff169050816000806101000a81548173ffffffffffffffffffffffffffffffffffffffff021916908373ffffffffffffffffffffffffffffffffffffffff1602179055508173ffffffffffffffffffffffffffffffffffffffff168173ffffffffffffffffffffffffffffffffffffffff167f8be0079c531659141344cd1fd0a4f28419497f9722a3daafe3b4186f6b6457e060405160405180910390a35050565b600081359050610e9c816114d1565b92915050565b600081359050610eb1816114e8565b92915050565b600081519050610ec6816114e8565b92915050565b600060208284031215610ee257610ee1611447565b5b6000610ef084828501610e8d565b91505092915050565b60008060408385031215610f1057610f0f611447565b5b6000610f1e85828601610e8d565b9250506020610f2f85828601610ea2565b9150509250929050565b600060208284031215610f4f57610f4e611447565b5b6000610f5d84828501610ea2565b91505092915050565b600060208284031215610f7c57610f7b611447565b5b6000610f8a84828501610eb7565b91505092915050565b60008060408385031215610faa57610fa9611447565b5b6000610fb885828601610ea2565b9250506020610fc985828601610e8d565b9150509250929050565b610fdc81611294565b82525050565b610ff3610fee82611294565b61135b565b82525050565b611002816112a6565b82525050565b611011816112dc565b82525050565b60006110246026836111f9565b915061102f82611459565b604082019050919050565b60006110476020836111f9565b9150611052826114a8565b602082019050919050565b611066816112d2565b82525050565b61107d611078826112d2565b61137f565b82525050565b600061108f828761106c565b60208201915061109f828661106c565b6020820191506110af8285610fe2565b6014820191506110bf828461106c565b60208201915081905095945050505050565b60006020820190506110e66000830184610fd3565b92915050565b60006040820190506111016000830185610fd3565b61110e602083018461105d565b9392505050565b600060208201905061112a6000830184610ff9565b92915050565b60006020820190506111456000830184611008565b92915050565b6000602082019050818103600083015261116481611017565b9050919050565b600060208201905081810360008301526111848161103a565b9050919050565b60006020820190506111a0600083018461105d565b92915050565b600060a0820190506111bb600083018861105d565b6111c8602083018761105d565b6111d5604083018661105d565b6111e2606083018561105d565b6111ef6080830184610fd3565b9695505050505050565b600082825260208201905092915050565b6000611215826112d2565b9150611220836112d2565b9250827fffffffffffffffffffffffffffffffffffffffffffffffffffffffffffffffff03821115611255576112546113ba565b5b828201905092915050565b600061126b826112d2565b9150611276836112d2565b925082821015611289576112886113ba565b5b828203905092915050565b600061129f826112b2565b9050919050565b60008115159050919050565b600073ffffffffffffffffffffffffffffffffffffffff82169050919050565b6000819050919050565b60006112e7826112ee565b9050919050565b60006112f982611300565b9050919050565b600061130b826112b2565b9050919050565b600061131d826112d2565b91507fffffffffffffffffffffffffffffffffffffffffffffffffffffffffffffffff8214156113505761134f6113ba565b5b600182019050919050565b60006113668261136d565b9050919050565b60006113788261144c565b9050919050565b6000819050919050565b6000611394826112d2565b915061139f836112d2565b9250826113af576113ae6113e9565b5b828206905092915050565b7f4e487b7100000000000000000000000000000000000000000000000000000000600052601160045260246000fd5b7f4e487b7100000000000000000000000000000000000000000000000000000000600052601260045260246000fd5b7f4e487b7100000000000000000000000000000000000000000000000000000000600052603260045260246000fd5b600080fd5b60008160601b9050919050565b7f4f776e61626c653a206e6577206f776e657220697320746865207a65726f206160008201527f6464726573730000000000000000000000000000000000000000000000000000602082015250565b7f4f776e61626c653a2063616c6c6572206973206e6f7420746865206f776e6572600082015250565b6114da81611294565b81146114e557600080fd5b50565b6114f1816112d2565b81146114fc57600080fd5b5056fea26469706673582212204bbfa3d8c88592b32a7385f4068a353eafc9b6eee3a0ab1dd01d5e628c48101064736f6c63430008070033",
					"opcodes": "PUSH1 0x80 PUSH1 0x40 MSTORE CALLVALUE DUP1 ISZERO PUSH3 0x11 JUMPI PUSH1 0x0 DUP1 REVERT JUMPDEST POP PUSH1 0x40 MLOAD PUSH3 0x174C CODESIZE SUB DUP1 PUSH3 0x174C DUP4 CODECOPY DUP2 DUP2 ADD PUSH1 0x40 MSTORE DUP2 ADD SWAP1 PUSH3 0x37 SWAP2 SWAP1 PUSH3 0x182 JUMP JUMPDEST PUSH3 0x57 PUSH3 0x4B PUSH3 0x9F PUSH1 0x20 SHL PUSH1 0x20 SHR JUMP JUMPDEST PUSH3 0xA7 PUSH1 0x20 SHL PUSH1 0x20 SHR JUMP JUMPDEST DUP1 PUSH1 0x4 PUSH1 0x0 PUSH2 0x100 EXP DUP2 SLOAD DUP2 PUSH20 0xFFFFFFFFFFFFFFFFFFFFFFFFFFFFFFFFFFFFFFFF MUL NOT AND SWAP1 DUP4 PUSH20 0xFFFFFFFFFFFFFFFFFFFFFFFFFFFFFFFFFFFFFFFF AND MUL OR SWAP1 SSTORE POP POP PUSH3 0x207 JUMP JUMPDEST PUSH1 0x0 CALLER SWAP1 POP SWAP1 JUMP JUMPDEST PUSH1 0x0 DUP1 PUSH1 0x0 SWAP1 SLOAD SWAP1 PUSH2 0x100 EXP SWAP1 DIV PUSH20 0xFFFFFFFFFFFFFFFFFFFFFFFFFFFFFFFFFFFFFFFF AND SWAP1 POP DUP2 PUSH1 0x0 DUP1 PUSH2 0x100 EXP DUP2 SLOAD DUP2 PUSH20 0xFFFFFFFFFFFFFFFFFFFFFFFFFFFFFFFFFFFFFFFF MUL NOT AND SWAP1 DUP4 PUSH20 0xFFFFFFFFFFFFFFFFFFFFFFFFFFFFFFFFFFFFFFFF AND MUL OR SWAP1 SSTORE POP DUP2 PUSH20 0xFFFFFFFFFFFFFFFFFFFFFFFFFFFFFFFFFFFFFFFF AND DUP2 PUSH20 0xFFFFFFFFFFFFFFFFFFFFFFFFFFFFFFFFFFFFFFFF AND PUSH32 0x8BE0079C531659141344CD1FD0A4F28419497F9722A3DAAFE3B4186F6B6457E0 PUSH1 0x40 MLOAD PUSH1 0x40 MLOAD DUP1 SWAP2 SUB SWAP1 LOG3 POP POP JUMP JUMPDEST PUSH1 0x0 DUP2 MLOAD SWAP1 POP PUSH3 0x17C DUP2 PUSH3 0x1ED JUMP JUMPDEST SWAP3 SWAP2 POP POP JUMP JUMPDEST PUSH1 0x0 PUSH1 0x20 DUP3 DUP5 SUB SLT ISZERO PUSH3 0x19B JUMPI PUSH3 0x19A PUSH3 0x1E8 JUMP JUMPDEST JUMPDEST PUSH1 0x0 PUSH3 0x1AB DUP5 DUP3 DUP6 ADD PUSH3 0x16B JUMP JUMPDEST SWAP2 POP POP SWAP3 SWAP2 POP POP JUMP JUMPDEST PUSH1 0x0 PUSH3 0x1C1 DUP3 PUSH3 0x1C8 JUMP JUMPDEST SWAP1 POP SWAP2 SWAP1 POP JUMP JUMPDEST PUSH1 0x0 PUSH20 0xFFFFFFFFFFFFFFFFFFFFFFFFFFFFFFFFFFFFFFFF DUP3 AND SWAP1 POP SWAP2 SWAP1 POP JUMP JUMPDEST PUSH1 0x0 DUP1 REVERT JUMPDEST PUSH3 0x1F8 DUP2 PUSH3 0x1B4 JUMP JUMPDEST DUP2 EQ PUSH3 0x204 JUMPI PUSH1 0x0 DUP1 REVERT JUMPDEST POP JUMP JUMPDEST PUSH2 0x1535 DUP1 PUSH3 0x217 PUSH1 0x0 CODECOPY PUSH1 0x0 RETURN INVALID PUSH1 0x80 PUSH1 0x40 MSTORE CALLVALUE DUP1 ISZERO PUSH2 0x10 JUMPI PUSH1 0x0 DUP1 REVERT JUMPDEST POP PUSH1 0x4 CALLDATASIZE LT PUSH2 0x10B JUMPI PUSH1 0x0 CALLDATALOAD PUSH1 0xE0 SHR DUP1 PUSH4 0x76636D20 GT PUSH2 0xA2 JUMPI DUP1 PUSH4 0xAC128F4F GT PUSH2 0x71 JUMPI DUP1 PUSH4 0xAC128F4F EQ PUSH2 0x282 JUMPI DUP1 PUSH4 0xB657DD65 EQ PUSH2 0x2B6 JUMPI DUP1 PUSH4 0xC4740A95 EQ PUSH2 0x2E6 JUMPI DUP1 PUSH4 0xF2FDE38B EQ PUSH2 0x302 JUMPI DUP1 PUSH4 0xF9CEE0BD EQ PUSH2 0x31E JUMPI PUSH2 0x10B JUMP JUMPDEST DUP1 PUSH4 0x76636D20 EQ PUSH2 0x20C JUMPI DUP1 PUSH4 0x8DA5CB5B EQ PUSH2 0x22A JUMPI DUP1 PUSH4 0x9B3E4552 EQ PUSH2 0x248 JUMPI DUP1 PUSH4 0xA59460DC EQ PUSH2 0x266 JUMPI PUSH2 0x10B JUMP JUMPDEST DUP1 PUSH4 0x578E3F88 GT PUSH2 0xDE JUMPI DUP1 PUSH4 0x578E3F88 EQ PUSH2 0x198 JUMPI DUP1 PUSH4 0x5BEDC390 EQ PUSH2 0x1C8 JUMPI DUP1 PUSH4 0x5D495AEA EQ PUSH2 0x1F8 JUMPI DUP1 PUSH4 0x715018A6 EQ PUSH2 0x202 JUMPI PUSH2 0x10B JUMP JUMPDEST DUP1 PUSH4 0xD988270 EQ PUSH2 0x110 JUMPI DUP1 PUSH4 0x119B22B3 EQ PUSH2 0x140 JUMPI DUP1 PUSH4 0x443B80A1 EQ PUSH2 0x15E JUMPI DUP1 PUSH4 0x454F7B8F EQ PUSH2 0x17A JUMPI JUMPDEST PUSH1 0x0 DUP1 REVERT JUMPDEST PUSH2 0x12A PUSH1 0x4 DUP1 CALLDATASIZE SUB DUP2 ADD SWAP1 PUSH2 0x125 SWAP2 SWAP1 PUSH2 0xEF9 JUMP JUMPDEST PUSH2 0x33C JUMP JUMPDEST PUSH1 0x40 MLOAD PUSH2 0x137 SWAP2 SWAP1 PUSH2 0x118B JUMP JUMPDEST PUSH1 0x40 MLOAD DUP1 SWAP2 SUB SWAP1 RETURN JUMPDEST PUSH2 0x148 PUSH2 0x36D JUMP JUMPDEST PUSH1 0x40 MLOAD PUSH2 0x155 SWAP2 SWAP1 PUSH2 0x118B JUMP JUMPDEST PUSH1 0x40 MLOAD DUP1 SWAP2 SUB SWAP1 RETURN JUMPDEST PUSH2 0x178 PUSH1 0x4 DUP1 CALLDATASIZE SUB DUP2 ADD SWAP1 PUSH2 0x173 SWAP2 SWAP1 PUSH2 0xEF9 JUMP JUMPDEST PUSH2 0x373 JUMP JUMPDEST STOP JUMPDEST PUSH2 0x182 PUSH2 0x4EA JUMP JUMPDEST PUSH1 0x40 MLOAD PUSH2 0x18F SWAP2 SWAP1 PUSH2 0x118B JUMP JUMPDEST PUSH1 0x40 MLOAD DUP1 SWAP2 SUB SWAP1 RETURN JUMPDEST PUSH2 0x1B2 PUSH1 0x4 DUP1 CALLDATASIZE SUB DUP2 ADD SWAP1 PUSH2 0x1AD SWAP2 SWAP1 PUSH2 0xF93 JUMP JUMPDEST PUSH2 0x4F0 JUMP JUMPDEST PUSH1 0x40 MLOAD PUSH2 0x1BF SWAP2 SWAP1 PUSH2 0x118B JUMP JUMPDEST PUSH1 0x40 MLOAD DUP1 SWAP2 SUB SWAP1 RETURN JUMPDEST PUSH2 0x1E2 PUSH1 0x4 DUP1 CALLDATASIZE SUB DUP2 ADD SWAP1 PUSH2 0x1DD SWAP2 SWAP1 PUSH2 0xECC JUMP JUMPDEST PUSH2 0x515 JUMP JUMPDEST PUSH1 0x40 MLOAD PUSH2 0x1EF SWAP2 SWAP1 PUSH2 0x1115 JUMP JUMPDEST PUSH1 0x40 MLOAD DUP1 SWAP2 SUB SWAP1 RETURN JUMPDEST PUSH2 0x200 PUSH2 0x579 JUMP JUMPDEST STOP JUMPDEST PUSH2 0x20A PUSH2 0x776 JUMP JUMPDEST STOP JUMPDEST PUSH2 0x214 PUSH2 0x7FE JUMP JUMPDEST PUSH1 0x40 MLOAD PUSH2 0x221 SWAP2 SWAP1 PUSH2 0x118B JUMP JUMPDEST PUSH1 0x40 MLOAD DUP1 SWAP2 SUB SWAP1 RETURN JUMPDEST PUSH2 0x232 PUSH2 0x804 JUMP JUMPDEST PUSH1 0x40 MLOAD PUSH2 0x23F SWAP2 SWAP1 PUSH2 0x10D1 JUMP JUMPDEST PUSH1 0x40 MLOAD DUP1 SWAP2 SUB SWAP1 RETURN JUMPDEST PUSH2 0x250 PUSH2 0x82D JUMP JUMPDEST PUSH1 0x40 MLOAD PUSH2 0x25D SWAP2 SWAP1 PUSH2 0x1130 JUMP JUMPDEST PUSH1 0x40 MLOAD DUP1 SWAP2 SUB SWAP1 RETURN JUMPDEST PUSH2 0x280 PUSH1 0x4 DUP1 CALLDATASIZE SUB DUP2 ADD SWAP1 PUSH2 0x27B SWAP2 SWAP1 PUSH2 0xEF9 JUMP JUMPDEST PUSH2 0x853 JUMP JUMPDEST STOP JUMPDEST PUSH2 0x29C PUSH1 0x4 DUP1 CALLDATASIZE SUB DUP2 ADD SWAP1 PUSH2 0x297 SWAP2 SWAP1 PUSH2 0xF39 JUMP JUMPDEST PUSH2 0xAF0 JUMP JUMPDEST PUSH1 0x40 MLOAD PUSH2 0x2AD SWAP6 SWAP5 SWAP4 SWAP3 SWAP2 SWAP1 PUSH2 0x11A6 JUMP JUMPDEST PUSH1 0x40 MLOAD DUP1 SWAP2 SUB SWAP1 RETURN JUMPDEST PUSH2 0x2D0 PUSH1 0x4 DUP1 CALLDATASIZE SUB DUP2 ADD SWAP1 PUSH2 0x2CB SWAP2 SWAP1 PUSH2 0xF39 JUMP JUMPDEST PUSH2 0xB46 JUMP JUMPDEST PUSH1 0x40 MLOAD PUSH2 0x2DD SWAP2 SWAP1 PUSH2 0x10D1 JUMP JUMPDEST PUSH1 0x40 MLOAD DUP1 SWAP2 SUB SWAP1 RETURN JUMPDEST PUSH2 0x300 PUSH1 0x4 DUP1 CALLDATASIZE SUB DUP2 ADD SWAP1 PUSH2 0x2FB SWAP2 SWAP1 PUSH2 0xECC JUMP JUMPDEST PUSH2 0xB79 JUMP JUMPDEST STOP JUMPDEST PUSH2 0x31C PUSH1 0x4 DUP1 CALLDATASIZE SUB DUP2 ADD SWAP1 PUSH2 0x317 SWAP2 SWAP1 PUSH2 0xECC JUMP JUMPDEST PUSH2 0xBDE JUMP JUMPDEST STOP JUMPDEST PUSH2 0x326 PUSH2 0xCD6 JUMP JUMPDEST PUSH1 0x40 MLOAD PUSH2 0x333 SWAP2 SWAP1 PUSH2 0x118B JUMP JUMPDEST PUSH1 0x40 MLOAD DUP1 SWAP2 SUB SWAP1 RETURN JUMPDEST PUSH1 0x8 PUSH1 0x20 MSTORE DUP2 PUSH1 0x0 MSTORE PUSH1 0x40 PUSH1 0x0 KECCAK256 DUP2 DUP2 SLOAD DUP2 LT PUSH2 0x358 JUMPI PUSH1 0x0 DUP1 REVERT JUMPDEST SWAP1 PUSH1 0x0 MSTORE PUSH1 0x20 PUSH1 0x0 KECCAK256 ADD PUSH1 0x0 SWAP2 POP SWAP2 POP POP SLOAD DUP2 JUMP JUMPDEST PUSH1 0x2 SLOAD DUP2 JUMP JUMPDEST PUSH1 0x0 JUMPDEST DUP2 DUP2 LT ISZERO PUSH2 0x463 JUMPI DUP3 PUSH1 0x6 PUSH1 0x0 DUP4 PUSH1 0x1 SLOAD PUSH2 0x391 SWAP2 SWAP1 PUSH2 0x120A JUMP JUMPDEST DUP2 MSTORE PUSH1 0x20 ADD SWAP1 DUP2 MSTORE PUSH1 0x20 ADD PUSH1 0x0 KECCAK256 PUSH1 0x0 PUSH2 0x100 EXP DUP2 SLOAD DUP2 PUSH20 0xFFFFFFFFFFFFFFFFFFFFFFFFFFFFFFFFFFFFFFFF MUL NOT AND SWAP1 DUP4 PUSH20 0xFFFFFFFFFFFFFFFFFFFFFFFFFFFFFFFFFFFFFFFF AND MUL OR SWAP1 SSTORE POP PUSH1 0x8 PUSH1 0x0 DUP5 PUSH20 0xFFFFFFFFFFFFFFFFFFFFFFFFFFFFFFFFFFFFFFFF AND PUSH20 0xFFFFFFFFFFFFFFFFFFFFFFFFFFFFFFFFFFFFFFFF AND DUP2 MSTORE PUSH1 0x20 ADD SWAP1 DUP2 MSTORE PUSH1 0x20 ADD PUSH1 0x0 KECCAK256 DUP2 PUSH1 0x1 SLOAD PUSH2 0x42A SWAP2 SWAP1 PUSH2 0x120A JUMP JUMPDEST SWAP1 DUP1 PUSH1 0x1 DUP2 SLOAD ADD DUP1 DUP3 SSTORE DUP1 SWAP2 POP POP PUSH1 0x1 SWAP1 SUB SWAP1 PUSH1 0x0 MSTORE PUSH1 0x20 PUSH1 0x0 KECCAK256 ADD PUSH1 0x0 SWAP1 SWAP2 SWAP1 SWAP2 SWAP1 SWAP2 POP SSTORE DUP1 DUP1 PUSH2 0x45B SWAP1 PUSH2 0x1312 JUMP JUMPDEST SWAP2 POP POP PUSH2 0x376 JUMP JUMPDEST POP DUP1 PUSH1 0x7 PUSH1 0x0 PUSH1 0x2 SLOAD DUP2 MSTORE PUSH1 0x20 ADD SWAP1 DUP2 MSTORE PUSH1 0x20 ADD PUSH1 0x0 KECCAK256 PUSH1 0x0 DUP5 PUSH20 0xFFFFFFFFFFFFFFFFFFFFFFFFFFFFFFFFFFFFFFFF AND PUSH20 0xFFFFFFFFFFFFFFFFFFFFFFFFFFFFFFFFFFFFFFFF AND DUP2 MSTORE PUSH1 0x20 ADD SWAP1 DUP2 MSTORE PUSH1 0x20 ADD PUSH1 0x0 KECCAK256 PUSH1 0x0 DUP3 DUP3 SLOAD PUSH2 0x4C6 SWAP2 SWAP1 PUSH2 0x120A JUMP JUMPDEST SWAP3 POP POP DUP2 SWAP1 SSTORE POP DUP1 PUSH1 0x1 PUSH1 0x0 DUP3 DUP3 SLOAD PUSH2 0x4DF SWAP2 SWAP1 PUSH2 0x120A JUMP JUMPDEST SWAP3 POP POP DUP2 SWAP1 SSTORE POP POP POP JUMP JUMPDEST PUSH1 0x3 SLOAD DUP2 JUMP JUMPDEST PUSH1 0x7 PUSH1 0x20 MSTORE DUP2 PUSH1 0x0 MSTORE PUSH1 0x40 PUSH1 0x0 KECCAK256 PUSH1 0x20 MSTORE DUP1 PUSH1 0x0 MSTORE PUSH1 0x40 PUSH1 0x0 KECCAK256 PUSH1 0x0 SWAP2 POP SWAP2 POP POP SLOAD DUP2 JUMP JUMPDEST PUSH1 0x0 DUP1 PUSH1 0x7 PUSH1 0x0 PUSH1 0x2 SLOAD DUP2 MSTORE PUSH1 0x20 ADD SWAP1 DUP2 MSTORE PUSH1 0x20 ADD PUSH1 0x0 KECCAK256 PUSH1 0x0 DUP5 PUSH20 0xFFFFFFFFFFFFFFFFFFFFFFFFFFFFFFFFFFFFFFFF AND PUSH20 0xFFFFFFFFFFFFFFFFFFFFFFFFFFFFFFFFFFFFFFFF AND DUP2 MSTORE PUSH1 0x20 ADD SWAP1 DUP2 MSTORE PUSH1 0x20 ADD PUSH1 0x0 KECCAK256 SLOAD SWAP1 POP PUSH1 0x0 DUP2 GT SWAP2 POP POP SWAP2 SWAP1 POP JUMP JUMPDEST PUSH2 0x581 PUSH2 0xD88 JUMP JUMPDEST PUSH20 0xFFFFFFFFFFFFFFFFFFFFFFFFFFFFFFFFFFFFFFFF AND PUSH2 0x59F PUSH2 0x804 JUMP JUMPDEST PUSH20 0xFFFFFFFFFFFFFFFFFFFFFFFFFFFFFFFFFFFFFFFF AND EQ PUSH2 0x5F5 JUMPI PUSH1 0x40 MLOAD PUSH32 0x8C379A000000000000000000000000000000000000000000000000000000000 DUP2 MSTORE PUSH1 0x4 ADD PUSH2 0x5EC SWAP1 PUSH2 0x116B JUMP JUMPDEST PUSH1 0x40 MLOAD DUP1 SWAP2 SUB SWAP1 REVERT JUMPDEST PUSH1 0x0 PUSH1 0x1 SLOAD PUSH2 0x602 PUSH2 0xD90 JUMP JUMPDEST PUSH2 0x60C SWAP2 SWAP1 PUSH2 0x1389 JUMP JUMPDEST SWAP1 POP PUSH1 0x0 PUSH1 0x6 PUSH1 0x0 DUP4 DUP2 MSTORE PUSH1 0x20 ADD SWAP1 DUP2 MSTORE PUSH1 0x20 ADD PUSH1 0x0 KECCAK256 PUSH1 0x0 SWAP1 SLOAD SWAP1 PUSH2 0x100 EXP SWAP1 DIV PUSH20 0xFFFFFFFFFFFFFFFFFFFFFFFFFFFFFFFFFFFFFFFF AND SWAP1 POP PUSH1 0x0 PUSH2 0x650 PUSH2 0xCD6 JUMP JUMPDEST SWAP1 POP PUSH1 0x40 MLOAD DUP1 PUSH1 0xA0 ADD PUSH1 0x40 MSTORE DUP1 PUSH1 0x1 SLOAD DUP2 MSTORE PUSH1 0x20 ADD DUP5 DUP2 MSTORE PUSH1 0x20 ADD DUP3 DUP2 MSTORE PUSH1 0x20 ADD TIMESTAMP DUP2 MSTORE PUSH1 0x20 ADD DUP4 PUSH20 0xFFFFFFFFFFFFFFFFFFFFFFFFFFFFFFFFFFFFFFFF AND DUP2 MSTORE POP PUSH1 0x5 PUSH1 0x0 PUSH1 0x2 SLOAD DUP2 MSTORE PUSH1 0x20 ADD SWAP1 DUP2 MSTORE PUSH1 0x20 ADD PUSH1 0x0 KECCAK256 PUSH1 0x0 DUP3 ADD MLOAD DUP2 PUSH1 0x0 ADD SSTORE PUSH1 0x20 DUP3 ADD MLOAD DUP2 PUSH1 0x1 ADD SSTORE PUSH1 0x40 DUP3 ADD MLOAD DUP2 PUSH1 0x2 ADD SSTORE PUSH1 0x60 DUP3 ADD MLOAD DUP2 PUSH1 0x3 ADD SSTORE PUSH1 0x80 DUP3 ADD MLOAD DUP2 PUSH1 0x4 ADD PUSH1 0x0 PUSH2 0x100 EXP DUP2 SLOAD DUP2 PUSH20 0xFFFFFFFFFFFFFFFFFFFFFFFFFFFFFFFFFFFFFFFF MUL NOT AND SWAP1 DUP4 PUSH20 0xFFFFFFFFFFFFFFFFFFFFFFFFFFFFFFFFFFFFFFFF AND MUL OR SWAP1 SSTORE POP SWAP1 POP POP PUSH1 0x2 PUSH1 0x0 DUP2 SLOAD DUP1 SWAP3 SWAP2 SWAP1 PUSH2 0x72B SWAP1 PUSH2 0x1312 JUMP JUMPDEST SWAP2 SWAP1 POP SSTORE POP PUSH1 0x0 PUSH1 0x1 DUP2 SWAP1 SSTORE POP PUSH32 0x2E798DD4337E515C79B64C40E1A93BAA1AEFBD9180AC7905E02508EDD7971E50 DUP3 DUP3 PUSH1 0x40 MLOAD PUSH2 0x769 SWAP3 SWAP2 SWAP1 PUSH2 0x10EC JUMP JUMPDEST PUSH1 0x40 MLOAD DUP1 SWAP2 SUB SWAP1 LOG1 POP POP POP JUMP JUMPDEST PUSH2 0x77E PUSH2 0xD88 JUMP JUMPDEST PUSH20 0xFFFFFFFFFFFFFFFFFFFFFFFFFFFFFFFFFFFFFFFF AND PUSH2 0x79C PUSH2 0x804 JUMP JUMPDEST PUSH20 0xFFFFFFFFFFFFFFFFFFFFFFFFFFFFFFFFFFFFFFFF AND EQ PUSH2 0x7F2 JUMPI PUSH1 0x40 MLOAD PUSH32 0x8C379A000000000000000000000000000000000000000000000000000000000 DUP2 MSTORE PUSH1 0x4 ADD PUSH2 0x7E9 SWAP1 PUSH2 0x116B JUMP JUMPDEST PUSH1 0x40 MLOAD DUP1 SWAP2 SUB SWAP1 REVERT JUMPDEST PUSH2 0x7FC PUSH1 0x0 PUSH2 0xDC9 JUMP JUMPDEST JUMP JUMPDEST PUSH1 0x1 SLOAD DUP2 JUMP JUMPDEST PUSH1 0x0 DUP1 PUSH1 0x0 SWAP1 SLOAD SWAP1 PUSH2 0x100 EXP SWAP1 DIV PUSH20 0xFFFFFFFFFFFFFFFFFFFFFFFFFFFFFFFFFFFFFFFF AND SWAP1 POP SWAP1 JUMP JUMPDEST PUSH1 0x4 PUSH1 0x0 SWAP1 SLOAD SWAP1 PUSH2 0x100 EXP SWAP1 DIV PUSH20 0xFFFFFFFFFFFFFFFFFFFFFFFFFFFFFFFFFFFFFFFF AND DUP2 JUMP JUMPDEST PUSH1 0x0 PUSH1 0x7 PUSH1 0x0 PUSH1 0x2 SLOAD DUP2 MSTORE PUSH1 0x20 ADD SWAP1 DUP2 MSTORE PUSH1 0x20 ADD PUSH1 0x0 KECCAK256 PUSH1 0x0 DUP5 PUSH20 0xFFFFFFFFFFFFFFFFFFFFFFFFFFFFFFFFFFFFFFFF AND PUSH20 0xFFFFFFFFFFFFFFFFFFFFFFFFFFFFFFFFFFFFFFFF AND DUP2 MSTORE PUSH1 0x20 ADD SWAP1 DUP2 MSTORE PUSH1 0x20 ADD PUSH1 0x0 KECCAK256 SLOAD SWAP1 POP PUSH1 0x0 DUP2 EQ ISZERO PUSH2 0x8B9 JUMPI POP PUSH2 0xAEC JUMP JUMPDEST DUP1 DUP3 GT ISZERO PUSH2 0x8C5 JUMPI DUP1 SWAP2 POP JUMPDEST PUSH1 0x0 PUSH1 0x1 SWAP1 POP JUMPDEST DUP3 DUP2 GT PUSH2 0xA67 JUMPI PUSH1 0x0 PUSH1 0x8 PUSH1 0x0 DUP7 PUSH20 0xFFFFFFFFFFFFFFFFFFFFFFFFFFFFFFFFFFFFFFFF AND PUSH20 0xFFFFFFFFFFFFFFFFFFFFFFFFFFFFFFFFFFFFFFFF AND DUP2 MSTORE PUSH1 0x20 ADD SWAP1 DUP2 MSTORE PUSH1 0x20 ADD PUSH1 0x0 KECCAK256 PUSH1 0x1 PUSH1 0x8 PUSH1 0x0 DUP9 PUSH20 0xFFFFFFFFFFFFFFFFFFFFFFFFFFFFFFFFFFFFFFFF AND PUSH20 0xFFFFFFFFFFFFFFFFFFFFFFFFFFFFFFFFFFFFFFFF AND DUP2 MSTORE PUSH1 0x20 ADD SWAP1 DUP2 MSTORE PUSH1 0x20 ADD PUSH1 0x0 KECCAK256 DUP1 SLOAD SWAP1 POP PUSH2 0x963 SWAP2 SWAP1 PUSH2 0x1260 JUMP JUMPDEST DUP2 SLOAD DUP2 LT PUSH2 0x974 JUMPI PUSH2 0x973 PUSH2 0x1418 JUMP JUMPDEST JUMPDEST SWAP1 PUSH1 0x0 MSTORE PUSH1 0x20 PUSH1 0x0 KECCAK256 ADD SLOAD SWAP1 POP PUSH1 0x6 PUSH1 0x0 DUP4 PUSH1 0x1 SLOAD PUSH2 0x993 SWAP2 SWAP1 PUSH2 0x1260 JUMP JUMPDEST DUP2 MSTORE PUSH1 0x20 ADD SWAP1 DUP2 MSTORE PUSH1 0x20 ADD PUSH1 0x0 KECCAK256 PUSH1 0x0 SWAP1 SLOAD SWAP1 PUSH2 0x100 EXP SWAP1 DIV PUSH20 0xFFFFFFFFFFFFFFFFFFFFFFFFFFFFFFFFFFFFFFFF AND PUSH1 0x6 PUSH1 0x0 DUP4 DUP2 MSTORE PUSH1 0x20 ADD SWAP1 DUP2 MSTORE PUSH1 0x20 ADD PUSH1 0x0 KECCAK256 PUSH1 0x0 PUSH2 0x100 EXP DUP2 SLOAD DUP2 PUSH20 0xFFFFFFFFFFFFFFFFFFFFFFFFFFFFFFFFFFFFFFFF MUL NOT AND SWAP1 DUP4 PUSH20 0xFFFFFFFFFFFFFFFFFFFFFFFFFFFFFFFFFFFFFFFF AND MUL OR SWAP1 SSTORE POP PUSH1 0x8 PUSH1 0x0 DUP7 PUSH20 0xFFFFFFFFFFFFFFFFFFFFFFFFFFFFFFFFFFFFFFFF AND PUSH20 0xFFFFFFFFFFFFFFFFFFFFFFFFFFFFFFFFFFFFFFFF AND DUP2 MSTORE PUSH1 0x20 ADD SWAP1 DUP2 MSTORE PUSH1 0x20 ADD PUSH1 0x0 KECCAK256 POP POP DUP1 DUP1 PUSH2 0xA5F SWAP1 PUSH2 0x1312 JUMP JUMPDEST SWAP2 POP POP PUSH2 0x8CC JUMP JUMPDEST POP DUP2 PUSH1 0x7 PUSH1 0x0 PUSH1 0x2 SLOAD DUP2 MSTORE PUSH1 0x20 ADD SWAP1 DUP2 MSTORE PUSH1 0x20 ADD PUSH1 0x0 KECCAK256 PUSH1 0x0 DUP6 PUSH20 0xFFFFFFFFFFFFFFFFFFFFFFFFFFFFFFFFFFFFFFFF AND PUSH20 0xFFFFFFFFFFFFFFFFFFFFFFFFFFFFFFFFFFFFFFFF AND DUP2 MSTORE PUSH1 0x20 ADD SWAP1 DUP2 MSTORE PUSH1 0x20 ADD PUSH1 0x0 KECCAK256 PUSH1 0x0 DUP3 DUP3 SLOAD PUSH2 0xACA SWAP2 SWAP1 PUSH2 0x1260 JUMP JUMPDEST SWAP3 POP POP DUP2 SWAP1 SSTORE POP DUP2 PUSH1 0x1 PUSH1 0x0 DUP3 DUP3 SLOAD PUSH2 0xAE3 SWAP2 SWAP1 PUSH2 0x1260 JUMP JUMPDEST SWAP3 POP POP DUP2 SWAP1 SSTORE POP POP JUMPDEST POP POP JUMP JUMPDEST PUSH1 0x5 PUSH1 0x20 MSTORE DUP1 PUSH1 0x0 MSTORE PUSH1 0x40 PUSH1 0x0 KECCAK256 PUSH1 0x0 SWAP2 POP SWAP1 POP DUP1 PUSH1 0x0 ADD SLOAD SWAP1 DUP1 PUSH1 0x1 ADD SLOAD SWAP1 DUP1 PUSH1 0x2 ADD SLOAD SWAP1 DUP1 PUSH1 0x3 ADD SLOAD SWAP1 DUP1 PUSH1 0x4 ADD PUSH1 0x0 SWAP1 SLOAD SWAP1 PUSH2 0x100 EXP SWAP1 DIV PUSH20 0xFFFFFFFFFFFFFFFFFFFFFFFFFFFFFFFFFFFFFFFF AND SWAP1 POP DUP6 JUMP JUMPDEST PUSH1 0x6 PUSH1 0x20 MSTORE DUP1 PUSH1 0x0 MSTORE PUSH1 0x40 PUSH1 0x0 KECCAK256 PUSH1 0x0 SWAP2 POP SLOAD SWAP1 PUSH2 0x100 EXP SWAP1 DIV PUSH20 0xFFFFFFFFFFFFFFFFFFFFFFFFFFFFFFFFFFFFFFFF AND DUP2 JUMP JUMPDEST PUSH1 0x0 PUSH1 0x7 PUSH1 0x0 PUSH1 0x2 SLOAD DUP2 MSTORE PUSH1 0x20 ADD SWAP1 DUP2 MSTORE PUSH1 0x20 ADD PUSH1 0x0 KECCAK256 PUSH1 0x0 DUP4 PUSH20 0xFFFFFFFFFFFFFFFFFFFFFFFFFFFFFFFFFFFFFFFF AND PUSH20 0xFFFFFFFFFFFFFFFFFFFFFFFFFFFFFFFFFFFFFFFF AND DUP2 MSTORE PUSH1 0x20 ADD SWAP1 DUP2 MSTORE PUSH1 0x20 ADD PUSH1 0x0 KECCAK256 SLOAD SWAP1 POP PUSH2 0xBDA DUP3 DUP3 PUSH2 0x853 JUMP JUMPDEST POP POP JUMP JUMPDEST PUSH2 0xBE6 PUSH2 0xD88 JUMP JUMPDEST PUSH20 0xFFFFFFFFFFFFFFFFFFFFFFFFFFFFFFFFFFFFFFFF AND PUSH2 0xC04 PUSH2 0x804 JUMP JUMPDEST PUSH20 0xFFFFFFFFFFFFFFFFFFFFFFFFFFFFFFFFFFFFFFFF AND EQ PUSH2 0xC5A JUMPI PUSH1 0x40 MLOAD PUSH32 0x8C379A000000000000000000000000000000000000000000000000000000000 DUP2 MSTORE PUSH1 0x4 ADD PUSH2 0xC51 SWAP1 PUSH2 0x116B JUMP JUMPDEST PUSH1 0x40 MLOAD DUP1 SWAP2 SUB SWAP1 REVERT JUMPDEST PUSH1 0x0 PUSH20 0xFFFFFFFFFFFFFFFFFFFFFFFFFFFFFFFFFFFFFFFF AND DUP2 PUSH20 0xFFFFFFFFFFFFFFFFFFFFFFFFFFFFFFFFFFFFFFFF AND EQ ISZERO PUSH2 0xCCA JUMPI PUSH1 0x40 MLOAD PUSH32 0x8C379A000000000000000000000000000000000000000000000000000000000 DUP2 MSTORE PUSH1 0x4 ADD PUSH2 0xCC1 SWAP1 PUSH2 0x114B JUMP JUMPDEST PUSH1 0x40 MLOAD DUP1 SWAP2 SUB SWAP1 REVERT JUMPDEST PUSH2 0xCD3 DUP2 PUSH2 0xDC9 JUMP JUMPDEST POP JUMP JUMPDEST PUSH1 0x0 PUSH1 0x4 PUSH1 0x0 SWAP1 SLOAD SWAP1 PUSH2 0x100 EXP SWAP1 DIV PUSH20 0xFFFFFFFFFFFFFFFFFFFFFFFFFFFFFFFFFFFFFFFF AND PUSH20 0xFFFFFFFFFFFFFFFFFFFFFFFFFFFFFFFFFFFFFFFF AND PUSH4 0x70A08231 ADDRESS PUSH1 0x40 MLOAD DUP3 PUSH4 0xFFFFFFFF AND PUSH1 0xE0 SHL DUP2 MSTORE PUSH1 0x4 ADD PUSH2 0xD33 SWAP2 SWAP1 PUSH2 0x10D1 JUMP JUMPDEST PUSH1 0x20 PUSH1 0x40 MLOAD DUP1 DUP4 SUB DUP2 DUP7 DUP1 EXTCODESIZE ISZERO DUP1 ISZERO PUSH2 0xD4B JUMPI PUSH1 0x0 DUP1 REVERT JUMPDEST POP GAS STATICCALL ISZERO DUP1 ISZERO PUSH2 0xD5F JUMPI RETURNDATASIZE PUSH1 0x0 DUP1 RETURNDATACOPY RETURNDATASIZE PUSH1 0x0 REVERT JUMPDEST POP POP POP POP PUSH1 0x40 MLOAD RETURNDATASIZE PUSH1 0x1F NOT PUSH1 0x1F DUP3 ADD AND DUP3 ADD DUP1 PUSH1 0x40 MSTORE POP DUP2 ADD SWAP1 PUSH2 0xD83 SWAP2 SWAP1 PUSH2 0xF66 JUMP JUMPDEST SWAP1 POP SWAP1 JUMP JUMPDEST PUSH1 0x0 CALLER SWAP1 POP SWAP1 JUMP JUMPDEST PUSH1 0x0 TIMESTAMP GAS CALLER PUSH1 0x3 SLOAD PUSH1 0x40 MLOAD PUSH1 0x20 ADD PUSH2 0xDAB SWAP5 SWAP4 SWAP3 SWAP2 SWAP1 PUSH2 0x1083 JUMP JUMPDEST PUSH1 0x40 MLOAD PUSH1 0x20 DUP2 DUP4 SUB SUB DUP2 MSTORE SWAP1 PUSH1 0x40 MSTORE DUP1 MLOAD SWAP1 PUSH1 0x20 ADD KECCAK256 PUSH1 0x0 SHR SWAP1 POP SWAP1 JUMP JUMPDEST PUSH1 0x0 DUP1 PUSH1 0x0 SWAP1 SLOAD SWAP1 PUSH2 0x100 EXP SWAP1 DIV PUSH20 0xFFFFFFFFFFFFFFFFFFFFFFFFFFFFFFFFFFFFFFFF AND SWAP1 POP DUP2 PUSH1 0x0 DUP1 PUSH2 0x100 EXP DUP2 SLOAD DUP2 PUSH20 0xFFFFFFFFFFFFFFFFFFFFFFFFFFFFFFFFFFFFFFFF MUL NOT AND SWAP1 DUP4 PUSH20 0xFFFFFFFFFFFFFFFFFFFFFFFFFFFFFFFFFFFFFFFF AND MUL OR SWAP1 SSTORE POP DUP2 PUSH20 0xFFFFFFFFFFFFFFFFFFFFFFFFFFFFFFFFFFFFFFFF AND DUP2 PUSH20 0xFFFFFFFFFFFFFFFFFFFFFFFFFFFFFFFFFFFFFFFF AND PUSH32 0x8BE0079C531659141344CD1FD0A4F28419497F9722A3DAAFE3B4186F6B6457E0 PUSH1 0x40 MLOAD PUSH1 0x40 MLOAD DUP1 SWAP2 SUB SWAP1 LOG3 POP POP JUMP JUMPDEST PUSH1 0x0 DUP2 CALLDATALOAD SWAP1 POP PUSH2 0xE9C DUP2 PUSH2 0x14D1 JUMP JUMPDEST SWAP3 SWAP2 POP POP JUMP JUMPDEST PUSH1 0x0 DUP2 CALLDATALOAD SWAP1 POP PUSH2 0xEB1 DUP2 PUSH2 0x14E8 JUMP JUMPDEST SWAP3 SWAP2 POP POP JUMP JUMPDEST PUSH1 0x0 DUP2 MLOAD SWAP1 POP PUSH2 0xEC6 DUP2 PUSH2 0x14E8 JUMP JUMPDEST SWAP3 SWAP2 POP POP JUMP JUMPDEST PUSH1 0x0 PUSH1 0x20 DUP3 DUP5 SUB SLT ISZERO PUSH2 0xEE2 JUMPI PUSH2 0xEE1 PUSH2 0x1447 JUMP JUMPDEST JUMPDEST PUSH1 0x0 PUSH2 0xEF0 DUP5 DUP3 DUP6 ADD PUSH2 0xE8D JUMP JUMPDEST SWAP2 POP POP SWAP3 SWAP2 POP POP JUMP JUMPDEST PUSH1 0x0 DUP1 PUSH1 0x40 DUP4 DUP6 SUB SLT ISZERO PUSH2 0xF10 JUMPI PUSH2 0xF0F PUSH2 0x1447 JUMP JUMPDEST JUMPDEST PUSH1 0x0 PUSH2 0xF1E DUP6 DUP3 DUP7 ADD PUSH2 0xE8D JUMP JUMPDEST SWAP3 POP POP PUSH1 0x20 PUSH2 0xF2F DUP6 DUP3 DUP7 ADD PUSH2 0xEA2 JUMP JUMPDEST SWAP2 POP POP SWAP3 POP SWAP3 SWAP1 POP JUMP JUMPDEST PUSH1 0x0 PUSH1 0x20 DUP3 DUP5 SUB SLT ISZERO PUSH2 0xF4F JUMPI PUSH2 0xF4E PUSH2 0x1447 JUMP JUMPDEST JUMPDEST PUSH1 0x0 PUSH2 0xF5D DUP5 DUP3 DUP6 ADD PUSH2 0xEA2 JUMP JUMPDEST SWAP2 POP POP SWAP3 SWAP2 POP POP JUMP JUMPDEST PUSH1 0x0 PUSH1 0x20 DUP3 DUP5 SUB SLT ISZERO PUSH2 0xF7C JUMPI PUSH2 0xF7B PUSH2 0x1447 JUMP JUMPDEST JUMPDEST PUSH1 0x0 PUSH2 0xF8A DUP5 DUP3 DUP6 ADD PUSH2 0xEB7 JUMP JUMPDEST SWAP2 POP POP SWAP3 SWAP2 POP POP JUMP JUMPDEST PUSH1 0x0 DUP1 PUSH1 0x40 DUP4 DUP6 SUB SLT ISZERO PUSH2 0xFAA JUMPI PUSH2 0xFA9 PUSH2 0x1447 JUMP JUMPDEST JUMPDEST PUSH1 0x0 PUSH2 0xFB8 DUP6 DUP3 DUP7 ADD PUSH2 0xEA2 JUMP JUMPDEST SWAP3 POP POP PUSH1 0x20 PUSH2 0xFC9 DUP6 DUP3 DUP7 ADD PUSH2 0xE8D JUMP JUMPDEST SWAP2 POP POP SWAP3 POP SWAP3 SWAP1 POP JUMP JUMPDEST PUSH2 0xFDC DUP2 PUSH2 0x1294 JUMP JUMPDEST DUP3 MSTORE POP POP JUMP JUMPDEST PUSH2 0xFF3 PUSH2 0xFEE DUP3 PUSH2 0x1294 JUMP JUMPDEST PUSH2 0x135B JUMP JUMPDEST DUP3 MSTORE POP POP JUMP JUMPDEST PUSH2 0x1002 DUP2 PUSH2 0x12A6 JUMP JUMPDEST DUP3 MSTORE POP POP JUMP JUMPDEST PUSH2 0x1011 DUP2 PUSH2 0x12DC JUMP JUMPDEST DUP3 MSTORE POP POP JUMP JUMPDEST PUSH1 0x0 PUSH2 0x1024 PUSH1 0x26 DUP4 PUSH2 0x11F9 JUMP JUMPDEST SWAP2 POP PUSH2 0x102F DUP3 PUSH2 0x1459 JUMP JUMPDEST PUSH1 0x40 DUP3 ADD SWAP1 POP SWAP2 SWAP1 POP JUMP JUMPDEST PUSH1 0x0 PUSH2 0x1047 PUSH1 0x20 DUP4 PUSH2 0x11F9 JUMP JUMPDEST SWAP2 POP PUSH2 0x1052 DUP3 PUSH2 0x14A8 JUMP JUMPDEST PUSH1 0x20 DUP3 ADD SWAP1 POP SWAP2 SWAP1 POP JUMP JUMPDEST PUSH2 0x1066 DUP2 PUSH2 0x12D2 JUMP JUMPDEST DUP3 MSTORE POP POP JUMP JUMPDEST PUSH2 0x107D PUSH2 0x1078 DUP3 PUSH2 0x12D2 JUMP JUMPDEST PUSH2 0x137F JUMP JUMPDEST DUP3 MSTORE POP POP JUMP JUMPDEST PUSH1 0x0 PUSH2 0x108F DUP3 DUP8 PUSH2 0x106C JUMP JUMPDEST PUSH1 0x20 DUP3 ADD SWAP2 POP PUSH2 0x109F DUP3 DUP7 PUSH2 0x106C JUMP JUMPDEST PUSH1 0x20 DUP3 ADD SWAP2 POP PUSH2 0x10AF DUP3 DUP6 PUSH2 0xFE2 JUMP JUMPDEST PUSH1 0x14 DUP3 ADD SWAP2 POP PUSH2 0x10BF DUP3 DUP5 PUSH2 0x106C JUMP JUMPDEST PUSH1 0x20 DUP3 ADD SWAP2 POP DUP2 SWAP1 POP SWAP6 SWAP5 POP POP POP POP POP JUMP JUMPDEST PUSH1 0x0 PUSH1 0x20 DUP3 ADD SWAP1 POP PUSH2 0x10E6 PUSH1 0x0 DUP4 ADD DUP5 PUSH2 0xFD3 JUMP JUMPDEST SWAP3 SWAP2 POP POP JUMP JUMPDEST PUSH1 0x0 PUSH1 0x40 DUP3 ADD SWAP1 POP PUSH2 0x1101 PUSH1 0x0 DUP4 ADD DUP6 PUSH2 0xFD3 JUMP JUMPDEST PUSH2 0x110E PUSH1 0x20 DUP4 ADD DUP5 PUSH2 0x105D JUMP JUMPDEST SWAP4 SWAP3 POP POP POP JUMP JUMPDEST PUSH1 0x0 PUSH1 0x20 DUP3 ADD SWAP1 POP PUSH2 0x112A PUSH1 0x0 DUP4 ADD DUP5 PUSH2 0xFF9 JUMP JUMPDEST SWAP3 SWAP2 POP POP JUMP JUMPDEST PUSH1 0x0 PUSH1 0x20 DUP3 ADD SWAP1 POP PUSH2 0x1145 PUSH1 0x0 DUP4 ADD DUP5 PUSH2 0x1008 JUMP JUMPDEST SWAP3 SWAP2 POP POP JUMP JUMPDEST PUSH1 0x0 PUSH1 0x20 DUP3 ADD SWAP1 POP DUP2 DUP2 SUB PUSH1 0x0 DUP4 ADD MSTORE PUSH2 0x1164 DUP2 PUSH2 0x1017 JUMP JUMPDEST SWAP1 POP SWAP2 SWAP1 POP JUMP JUMPDEST PUSH1 0x0 PUSH1 0x20 DUP3 ADD SWAP1 POP DUP2 DUP2 SUB PUSH1 0x0 DUP4 ADD MSTORE PUSH2 0x1184 DUP2 PUSH2 0x103A JUMP JUMPDEST SWAP1 POP SWAP2 SWAP1 POP JUMP JUMPDEST PUSH1 0x0 PUSH1 0x20 DUP3 ADD SWAP1 POP PUSH2 0x11A0 PUSH1 0x0 DUP4 ADD DUP5 PUSH2 0x105D JUMP JUMPDEST SWAP3 SWAP2 POP POP JUMP JUMPDEST PUSH1 0x0 PUSH1 0xA0 DUP3 ADD SWAP1 POP PUSH2 0x11BB PUSH1 0x0 DUP4 ADD DUP9 PUSH2 0x105D JUMP JUMPDEST PUSH2 0x11C8 PUSH1 0x20 DUP4 ADD DUP8 PUSH2 0x105D JUMP JUMPDEST PUSH2 0x11D5 PUSH1 0x40 DUP4 ADD DUP7 PUSH2 0x105D JUMP JUMPDEST PUSH2 0x11E2 PUSH1 0x60 DUP4 ADD DUP6 PUSH2 0x105D JUMP JUMPDEST PUSH2 0x11EF PUSH1 0x80 DUP4 ADD DUP5 PUSH2 0xFD3 JUMP JUMPDEST SWAP7 SWAP6 POP POP POP POP POP POP JUMP JUMPDEST PUSH1 0x0 DUP3 DUP3 MSTORE PUSH1 0x20 DUP3 ADD SWAP1 POP SWAP3 SWAP2 POP POP JUMP JUMPDEST PUSH1 0x0 PUSH2 0x1215 DUP3 PUSH2 0x12D2 JUMP JUMPDEST SWAP2 POP PUSH2 0x1220 DUP4 PUSH2 0x12D2 JUMP JUMPDEST SWAP3 POP DUP3 PUSH32 0xFFFFFFFFFFFFFFFFFFFFFFFFFFFFFFFFFFFFFFFFFFFFFFFFFFFFFFFFFFFFFFFF SUB DUP3 GT ISZERO PUSH2 0x1255 JUMPI PUSH2 0x1254 PUSH2 0x13BA JUMP JUMPDEST JUMPDEST DUP3 DUP3 ADD SWAP1 POP SWAP3 SWAP2 POP POP JUMP JUMPDEST PUSH1 0x0 PUSH2 0x126B DUP3 PUSH2 0x12D2 JUMP JUMPDEST SWAP2 POP PUSH2 0x1276 DUP4 PUSH2 0x12D2 JUMP JUMPDEST SWAP3 POP DUP3 DUP3 LT ISZERO PUSH2 0x1289 JUMPI PUSH2 0x1288 PUSH2 0x13BA JUMP JUMPDEST JUMPDEST DUP3 DUP3 SUB SWAP1 POP SWAP3 SWAP2 POP POP JUMP JUMPDEST PUSH1 0x0 PUSH2 0x129F DUP3 PUSH2 0x12B2 JUMP JUMPDEST SWAP1 POP SWAP2 SWAP1 POP JUMP JUMPDEST PUSH1 0x0 DUP2 ISZERO ISZERO SWAP1 POP SWAP2 SWAP1 POP JUMP JUMPDEST PUSH1 0x0 PUSH20 0xFFFFFFFFFFFFFFFFFFFFFFFFFFFFFFFFFFFFFFFF DUP3 AND SWAP1 POP SWAP2 SWAP1 POP JUMP JUMPDEST PUSH1 0x0 DUP2 SWAP1 POP SWAP2 SWAP1 POP JUMP JUMPDEST PUSH1 0x0 PUSH2 0x12E7 DUP3 PUSH2 0x12EE JUMP JUMPDEST SWAP1 POP SWAP2 SWAP1 POP JUMP JUMPDEST PUSH1 0x0 PUSH2 0x12F9 DUP3 PUSH2 0x1300 JUMP JUMPDEST SWAP1 POP SWAP2 SWAP1 POP JUMP JUMPDEST PUSH1 0x0 PUSH2 0x130B DUP3 PUSH2 0x12B2 JUMP JUMPDEST SWAP1 POP SWAP2 SWAP1 POP JUMP JUMPDEST PUSH1 0x0 PUSH2 0x131D DUP3 PUSH2 0x12D2 JUMP JUMPDEST SWAP2 POP PUSH32 0xFFFFFFFFFFFFFFFFFFFFFFFFFFFFFFFFFFFFFFFFFFFFFFFFFFFFFFFFFFFFFFFF DUP3 EQ ISZERO PUSH2 0x1350 JUMPI PUSH2 0x134F PUSH2 0x13BA JUMP JUMPDEST JUMPDEST PUSH1 0x1 DUP3 ADD SWAP1 POP SWAP2 SWAP1 POP JUMP JUMPDEST PUSH1 0x0 PUSH2 0x1366 DUP3 PUSH2 0x136D JUMP JUMPDEST SWAP1 POP SWAP2 SWAP1 POP JUMP JUMPDEST PUSH1 0x0 PUSH2 0x1378 DUP3 PUSH2 0x144C JUMP JUMPDEST SWAP1 POP SWAP2 SWAP1 POP JUMP JUMPDEST PUSH1 0x0 DUP2 SWAP1 POP SWAP2 SWAP1 POP JUMP JUMPDEST PUSH1 0x0 PUSH2 0x1394 DUP3 PUSH2 0x12D2 JUMP JUMPDEST SWAP2 POP PUSH2 0x139F DUP4 PUSH2 0x12D2 JUMP JUMPDEST SWAP3 POP DUP3 PUSH2 0x13AF JUMPI PUSH2 0x13AE PUSH2 0x13E9 JUMP JUMPDEST JUMPDEST DUP3 DUP3 MOD SWAP1 POP SWAP3 SWAP2 POP POP JUMP JUMPDEST PUSH32 0x4E487B7100000000000000000000000000000000000000000000000000000000 PUSH1 0x0 MSTORE PUSH1 0x11 PUSH1 0x4 MSTORE PUSH1 0x24 PUSH1 0x0 REVERT JUMPDEST PUSH32 0x4E487B7100000000000000000000000000000000000000000000000000000000 PUSH1 0x0 MSTORE PUSH1 0x12 PUSH1 0x4 MSTORE PUSH1 0x24 PUSH1 0x0 REVERT JUMPDEST PUSH32 0x4E487B7100000000000000000000000000000000000000000000000000000000 PUSH1 0x0 MSTORE PUSH1 0x32 PUSH1 0x4 MSTORE PUSH1 0x24 PUSH1 0x0 REVERT JUMPDEST PUSH1 0x0 DUP1 REVERT JUMPDEST PUSH1 0x0 DUP2 PUSH1 0x60 SHL SWAP1 POP SWAP2 SWAP1 POP JUMP JUMPDEST PUSH32 0x4F776E61626C653A206E6577206F776E657220697320746865207A65726F2061 PUSH1 0x0 DUP3 ADD MSTORE PUSH32 0x6464726573730000000000000000000000000000000000000000000000000000 PUSH1 0x20 DUP3 ADD MSTORE POP JUMP JUMPDEST PUSH32 0x4F776E61626C653A2063616C6C6572206973206E6F7420746865206F776E6572 PUSH1 0x0 DUP3 ADD MSTORE POP JUMP JUMPDEST PUSH2 0x14DA DUP2 PUSH2 0x1294 JUMP JUMPDEST DUP2 EQ PUSH2 0x14E5 JUMPI PUSH1 0x0 DUP1 REVERT JUMPDEST POP JUMP JUMPDEST PUSH2 0x14F1 DUP2 PUSH2 0x12D2 JUMP JUMPDEST DUP2 EQ PUSH2 0x14FC JUMPI PUSH1 0x0 DUP1 REVERT JUMPDEST POP JUMP INVALID LOG2 PUSH5 0x6970667358 0x22 SLT KECCAK256 0x4B 0xBF LOG3 0xD8 0xC8 DUP6 SWAP3 0xB3 0x2A PUSH20 0x85F4068A353EAFC9B6EEE3A0AB1DD01D5E628C48 LT LT PUSH5 0x736F6C6343 STOP ADDMOD SMOD STOP CALLER "
				},
				"gasEstimates": {
					"creation": {
						"codeDepositCost": "1085800",
						"executionCost": "infinite",
						"totalCost": "infinite"
					},
					"external": {
						"acesToken()": "2667",
						"currentJackpot()": "infinite",
						"entriesIndex(address,uint256)": "infinite",
						"entriesPerRound(uint256,address)": "infinite",
						"isActiveAccount(address)": "5089",
						"owner()": "2567",
						"pickWinner()": "infinite",
						"removeAccount(address)": "infinite",
						"removeEntryFromWallet(address,uint256)": "infinite",
						"renounceOwnership()": "30463",
						"roundEntries()": "2452",
						"roundEntry(uint256)": "2883",
						"roundNum()": "2475",
						"roundResults(uint256)": "infinite",
						"totalPayout()": "2519",
						"transferOwnership(address)": "30811",
						"updateAccount(address,uint256)": "infinite"
					},
					"internal": {
						"random()": "infinite"
					}
				},
				"methodIdentifiers": {
					"acesToken()": "9b3e4552",
					"currentJackpot()": "f9cee0bd",
					"entriesIndex(address,uint256)": "0d988270",
					"entriesPerRound(uint256,address)": "578e3f88",
					"isActiveAccount(address)": "5bedc390",
					"owner()": "8da5cb5b",
					"pickWinner()": "5d495aea",
					"removeAccount(address)": "c4740a95",
					"removeEntryFromWallet(address,uint256)": "a59460dc",
					"renounceOwnership()": "715018a6",
					"roundEntries()": "76636d20",
					"roundEntry(uint256)": "b657dd65",
					"roundNum()": "119b22b3",
					"roundResults(uint256)": "ac128f4f",
					"totalPayout()": "454f7b8f",
					"transferOwnership(address)": "f2fde38b",
					"updateAccount(address,uint256)": "443b80a1"
				}
			},
			"storageLayout": {
				"storage": [
					{
						"astId": 7,
						"contract": "lotto.sol:ACELotto",
						"label": "_owner",
						"offset": 0,
						"slot": "0",
						"type": "t_address"
					},
					{
						"astId": 239,
						"contract": "lotto.sol:ACELotto",
						"label": "roundEntries",
						"offset": 0,
						"slot": "1",
						"type": "t_uint256"
					},
					{
						"astId": 241,
						"contract": "lotto.sol:ACELotto",
						"label": "roundNum",
						"offset": 0,
						"slot": "2",
						"type": "t_uint256"
					},
					{
						"astId": 243,
						"contract": "lotto.sol:ACELotto",
						"label": "totalPayout",
						"offset": 0,
						"slot": "3",
						"type": "t_uint256"
					},
					{
						"astId": 246,
						"contract": "lotto.sol:ACELotto",
						"label": "acesToken",
						"offset": 0,
						"slot": "4",
						"type": "t_contract(IERC20)182"
					},
					{
						"astId": 262,
						"contract": "lotto.sol:ACELotto",
						"label": "roundResults",
						"offset": 0,
						"slot": "5",
						"type": "t_mapping(t_uint256,t_struct(Results)257_storage)"
					},
					{
						"astId": 266,
						"contract": "lotto.sol:ACELotto",
						"label": "roundEntry",
						"offset": 0,
						"slot": "6",
						"type": "t_mapping(t_uint256,t_address)"
					},
					{
						"astId": 272,
						"contract": "lotto.sol:ACELotto",
						"label": "entriesPerRound",
						"offset": 0,
						"slot": "7",
						"type": "t_mapping(t_uint256,t_mapping(t_address,t_uint256))"
					},
					{
						"astId": 277,
						"contract": "lotto.sol:ACELotto",
						"label": "entriesIndex",
						"offset": 0,
						"slot": "8",
						"type": "t_mapping(t_address,t_array(t_uint256)dyn_storage)"
					}
				],
				"types": {
					"t_address": {
						"encoding": "inplace",
						"label": "address",
						"numberOfBytes": "20"
					},
					"t_array(t_uint256)dyn_storage": {
						"base": "t_uint256",
						"encoding": "dynamic_array",
						"label": "uint256[]",
						"numberOfBytes": "32"
					},
					"t_contract(IERC20)182": {
						"encoding": "inplace",
						"label": "contract IERC20",
						"numberOfBytes": "20"
					},
					"t_mapping(t_address,t_array(t_uint256)dyn_storage)": {
						"encoding": "mapping",
						"key": "t_address",
						"label": "mapping(address => uint256[])",
						"numberOfBytes": "32",
						"value": "t_array(t_uint256)dyn_storage"
					},
					"t_mapping(t_address,t_uint256)": {
						"encoding": "mapping",
						"key": "t_address",
						"label": "mapping(address => uint256)",
						"numberOfBytes": "32",
						"value": "t_uint256"
					},
					"t_mapping(t_uint256,t_address)": {
						"encoding": "mapping",
						"key": "t_uint256",
						"label": "mapping(uint256 => address)",
						"numberOfBytes": "32",
						"value": "t_address"
					},
					"t_mapping(t_uint256,t_mapping(t_address,t_uint256))": {
						"encoding": "mapping",
						"key": "t_uint256",
						"label": "mapping(uint256 => mapping(address => uint256))",
						"numberOfBytes": "32",
						"value": "t_mapping(t_address,t_uint256)"
					},
					"t_mapping(t_uint256,t_struct(Results)257_storage)": {
						"encoding": "mapping",
						"key": "t_uint256",
						"label": "mapping(uint256 => struct ACELotto.Results)",
						"numberOfBytes": "32",
						"value": "t_struct(Results)257_storage"
					},
					"t_struct(Results)257_storage": {
						"encoding": "inplace",
						"label": "struct ACELotto.Results",
						"members": [
							{
								"astId": 248,
								"contract": "lotto.sol:ACELotto",
								"label": "totalEntries",
								"offset": 0,
								"slot": "0",
								"type": "t_uint256"
							},
							{
								"astId": 250,
								"contract": "lotto.sol:ACELotto",
								"label": "winningNumber",
								"offset": 0,
								"slot": "1",
								"type": "t_uint256"
							},
							{
								"astId": 252,
								"contract": "lotto.sol:ACELotto",
								"label": "payout",
								"offset": 0,
								"slot": "2",
								"type": "t_uint256"
							},
							{
								"astId": 254,
								"contract": "lotto.sol:ACELotto",
								"label": "endTime",
								"offset": 0,
								"slot": "3",
								"type": "t_uint256"
							},
							{
								"astId": 256,
								"contract": "lotto.sol:ACELotto",
								"label": "winningAddress",
								"offset": 0,
								"slot": "4",
								"type": "t_address"
							}
						],
						"numberOfBytes": "160"
					},
					"t_uint256": {
						"encoding": "inplace",
						"label": "uint256",
						"numberOfBytes": "32"
					}
				}
			},
			"userdoc": {
				"kind": "user",
				"methods": {},
				"version": 1
			}
		}
	}
}