{
	"NFTlotto.sol": {
		"ACELotto": {
			"abi": [
				{
					"inputs": [
						{
							"internalType": "address",
							"name": "_paymentToken",
							"type": "address"
						},
						{
							"internalType": "address",
							"name": "_NFT",
							"type": "address"
						}
					],
					"stateMutability": "nonpayable",
					"type": "constructor"
				},
				{
					"anonymous": false,
					"inputs": [
						{
							"indexed": false,
							"internalType": "address",
							"name": "winner",
							"type": "address"
						},
						{
							"indexed": false,
							"internalType": "uint256",
							"name": "amount",
							"type": "uint256"
						}
					],
					"name": "LotteryWon",
					"type": "event"
				},
				{
					"anonymous": false,
					"inputs": [
						{
							"indexed": true,
							"internalType": "address",
							"name": "previousOwner",
							"type": "address"
						},
						{
							"indexed": true,
							"internalType": "address",
							"name": "newOwner",
							"type": "address"
						}
					],
					"name": "OwnershipTransferred",
					"type": "event"
				},
				{
					"inputs": [],
					"name": "acesNFT",
					"outputs": [
						{
							"internalType": "contract IERC721Enumerable",
							"name": "",
							"type": "address"
						}
					],
					"stateMutability": "view",
					"type": "function"
				},
				{
					"inputs": [],
					"name": "currentJackpot",
					"outputs": [
						{
							"internalType": "uint256",
							"name": "",
							"type": "uint256"
						}
					],
					"stateMutability": "view",
					"type": "function"
				},
				{
					"inputs": [],
					"name": "getEntries",
					"outputs": [
						{
							"internalType": "uint256",
							"name": "",
							"type": "uint256"
						}
					],
					"stateMutability": "view",
					"type": "function"
				},
				{
					"inputs": [],
					"name": "getUniqueAddresses",
					"outputs": [
						{
							"internalType": "address[]",
							"name": "addresses",
							"type": "address[]"
						},
						{
							"internalType": "uint256[]",
							"name": "entries",
							"type": "uint256[]"
						}
					],
					"stateMutability": "view",
					"type": "function"
				},
				{
					"inputs": [],
					"name": "getUniqueUsers",
					"outputs": [
						{
							"internalType": "uint256",
							"name": "counter",
							"type": "uint256"
						}
					],
					"stateMutability": "view",
					"type": "function"
				},
				{
					"inputs": [],
					"name": "owner",
					"outputs": [
						{
							"internalType": "address",
							"name": "",
							"type": "address"
						}
					],
					"stateMutability": "view",
					"type": "function"
				},
				{
					"inputs": [],
					"name": "paymentToken",
					"outputs": [
						{
							"internalType": "contract IERC20",
							"name": "",
							"type": "address"
						}
					],
					"stateMutability": "view",
					"type": "function"
				},
				{
					"inputs": [
						{
							"internalType": "uint256",
							"name": "seed",
							"type": "uint256"
						}
					],
					"name": "pickWinner",
					"outputs": [
						{
							"internalType": "uint256",
							"name": "winnerNum",
							"type": "uint256"
						},
						{
							"internalType": "address",
							"name": "winnerAddress",
							"type": "address"
						}
					],
					"stateMutability": "view",
					"type": "function"
				},
				{
					"inputs": [],
					"name": "renounceOwnership",
					"outputs": [],
					"stateMutability": "nonpayable",
					"type": "function"
				},
				{
					"inputs": [
						{
							"internalType": "uint256",
							"name": "startIndex",
							"type": "uint256"
						},
						{
							"internalType": "uint256",
							"name": "endIndex",
							"type": "uint256"
						}
					],
					"name": "resultLog",
					"outputs": [
						{
							"components": [
								{
									"internalType": "uint256",
									"name": "totalEntries",
									"type": "uint256"
								},
								{
									"internalType": "uint256",
									"name": "winningNumber",
									"type": "uint256"
								},
								{
									"internalType": "uint256",
									"name": "payout",
									"type": "uint256"
								},
								{
									"internalType": "uint256",
									"name": "endTime",
									"type": "uint256"
								},
								{
									"internalType": "address",
									"name": "winningAddress",
									"type": "address"
								}
							],
							"internalType": "struct ACELotto.Results[]",
							"name": "log",
							"type": "tuple[]"
						}
					],
					"stateMutability": "view",
					"type": "function"
				},
				{
					"inputs": [],
					"name": "roundNum",
					"outputs": [
						{
							"internalType": "uint256",
							"name": "",
							"type": "uint256"
						}
					],
					"stateMutability": "view",
					"type": "function"
				},
				{
					"inputs": [
						{
							"internalType": "uint256",
							"name": "",
							"type": "uint256"
						}
					],
					"name": "roundResults",
					"outputs": [
						{
							"internalType": "uint256",
							"name": "totalEntries",
							"type": "uint256"
						},
						{
							"internalType": "uint256",
							"name": "winningNumber",
							"type": "uint256"
						},
						{
							"internalType": "uint256",
							"name": "payout",
							"type": "uint256"
						},
						{
							"internalType": "uint256",
							"name": "endTime",
							"type": "uint256"
						},
						{
							"internalType": "address",
							"name": "winningAddress",
							"type": "address"
						}
					],
					"stateMutability": "view",
					"type": "function"
				},
				{
					"inputs": [],
					"name": "totalPayout",
					"outputs": [
						{
							"internalType": "uint256",
							"name": "",
							"type": "uint256"
						}
					],
					"stateMutability": "view",
					"type": "function"
				},
				{
					"inputs": [
						{
							"internalType": "address",
							"name": "newOwner",
							"type": "address"
						}
					],
					"name": "transferOwnership",
					"outputs": [],
					"stateMutability": "nonpayable",
					"type": "function"
				},
				{
					"inputs": [
						{
							"internalType": "uint256",
							"name": "_newJackpot",
							"type": "uint256"
						}
					],
					"name": "updateJackpot",
					"outputs": [],
					"stateMutability": "nonpayable",
					"type": "function"
				},
				{
					"inputs": [
						{
							"internalType": "address",
							"name": "_newToken",
							"type": "address"
						}
					],
					"name": "updateToken",
					"outputs": [],
					"stateMutability": "nonpayable",
					"type": "function"
				},
				{
					"inputs": [
						{
							"internalType": "uint256",
							"name": "winnerNum",
							"type": "uint256"
						},
						{
							"internalType": "uint256",
							"name": "payout",
							"type": "uint256"
						}
					],
					"name": "updateWinner",
					"outputs": [],
					"stateMutability": "nonpayable",
					"type": "function"
				},
				{
					"inputs": [
						{
							"internalType": "address",
							"name": "account",
							"type": "address"
						}
					],
					"name": "userEntries",
					"outputs": [
						{
							"internalType": "uint256",
							"name": "",
							"type": "uint256"
						}
					],
					"stateMutability": "view",
					"type": "function"
				}
			],
			"devdoc": {
				"kind": "dev",
				"methods": {
					"owner()": {
						"details": "Returns the address of the current owner."
					},
					"renounceOwnership()": {
						"details": "Leaves the contract without owner. It will not be possible to call `onlyOwner` functions anymore. Can only be called by the current owner. NOTE: Renouncing ownership will leave the contract without an owner, thereby removing any functionality that is only available to the owner."
					},
					"transferOwnership(address)": {
						"details": "Transfers ownership of the contract to a new account (`newOwner`). Can only be called by the current owner."
					}
				},
				"version": 1
			},
			"evm": {
				"assembly": "    /* \"NFTlotto.sol\":729:5502  contract ACELotto is Ownable {   \r... */\n  mstore(0x40, 0x80)\n    /* \"NFTlotto.sol\":868:875  1 ether */\n  0x0de0b6b3a7640000\n    /* \"NFTlotto.sol\":836:875  uint256 public currentJackpot = 1 ether */\n  0x03\n  sstore\n    /* \"NFTlotto.sol\":1257:1404  constructor(address _paymentToken, address _NFT){\r... */\n  callvalue\n  dup1\n  iszero\n  tag_1\n  jumpi\n  0x00\n  dup1\n  revert\ntag_1:\n  pop\n  mload(0x40)\n  sub(codesize, bytecodeSize)\n  dup1\n  bytecodeSize\n  dup4\n  codecopy\n  dup2\n  dup2\n  add\n  0x40\n  mstore\n  dup2\n  add\n  swap1\n  tag_2\n  swap2\n  swap1\n  tag_3\n  jump\t// in\ntag_2:\n    /* \"https://github.com/OpenZeppelin/openzeppelin-contracts/blob/master/contracts/access/Ownable.sol\":921:953  _transferOwnership(_msgSender()) */\n  tag_7\n    /* \"https://github.com/OpenZeppelin/openzeppelin-contracts/blob/master/contracts/access/Ownable.sol\":940:952  _msgSender() */\n  tag_8\n    /* \"https://github.com/OpenZeppelin/openzeppelin-contracts/blob/master/contracts/access/Ownable.sol\":940:950  _msgSender */\n  shl(0x20, tag_9)\n    /* \"https://github.com/OpenZeppelin/openzeppelin-contracts/blob/master/contracts/access/Ownable.sol\":940:952  _msgSender() */\n  0x20\n  shr\n  jump\t// in\ntag_8:\n    /* \"https://github.com/OpenZeppelin/openzeppelin-contracts/blob/master/contracts/access/Ownable.sol\":921:939  _transferOwnership */\n  shl(0x20, tag_10)\n    /* \"https://github.com/OpenZeppelin/openzeppelin-contracts/blob/master/contracts/access/Ownable.sol\":921:953  _transferOwnership(_msgSender()) */\n  0x20\n  shr\n  jump\t// in\ntag_7:\n    /* \"NFTlotto.sol\":1338:1351  _paymentToken */\n  dup2\n    /* \"NFTlotto.sol\":1316:1328  paymentToken */\n  0x04\n  0x00\n    /* \"NFTlotto.sol\":1316:1352  paymentToken = IERC20(_paymentToken) */\n  0x0100\n  exp\n  dup2\n  sload\n  dup2\n  0xffffffffffffffffffffffffffffffffffffffff\n  mul\n  not\n  and\n  swap1\n  dup4\n  0xffffffffffffffffffffffffffffffffffffffff\n  and\n  mul\n  or\n  swap1\n  sstore\n  pop\n    /* \"NFTlotto.sol\":1391:1395  _NFT */\n  dup1\n    /* \"NFTlotto.sol\":1363:1370  acesNFT */\n  0x05\n  0x00\n    /* \"NFTlotto.sol\":1363:1396  acesNFT = IERC721Enumerable(_NFT) */\n  0x0100\n  exp\n  dup2\n  sload\n  dup2\n  0xffffffffffffffffffffffffffffffffffffffff\n  mul\n  not\n  and\n  swap1\n  dup4\n  0xffffffffffffffffffffffffffffffffffffffff\n  and\n  mul\n  or\n  swap1\n  sstore\n  pop\n    /* \"NFTlotto.sol\":1257:1404  constructor(address _paymentToken, address _NFT){\r... */\n  pop\n  pop\n    /* \"NFTlotto.sol\":729:5502  contract ACELotto is Ownable {   \r... */\n  jump(tag_12)\n    /* \"https://github.com/OpenZeppelin/openzeppelin-contracts/blob/master/contracts/utils/Context.sol\":640:736  function _msgSender() internal view virtual returns (address) {... */\ntag_9:\n    /* \"https://github.com/OpenZeppelin/openzeppelin-contracts/blob/master/contracts/utils/Context.sol\":693:700  address */\n  0x00\n    /* \"https://github.com/OpenZeppelin/openzeppelin-contracts/blob/master/contracts/utils/Context.sol\":719:729  msg.sender */\n  caller\n    /* \"https://github.com/OpenZeppelin/openzeppelin-contracts/blob/master/contracts/utils/Context.sol\":712:729  return msg.sender */\n  swap1\n  pop\n    /* \"https://github.com/OpenZeppelin/openzeppelin-contracts/blob/master/contracts/utils/Context.sol\":640:736  function _msgSender() internal view virtual returns (address) {... */\n  swap1\n  jump\t// out\n    /* \"https://github.com/OpenZeppelin/openzeppelin-contracts/blob/master/contracts/access/Ownable.sol\":2270:2457  function _transferOwnership(address newOwner) internal virtual {... */\ntag_10:\n    /* \"https://github.com/OpenZeppelin/openzeppelin-contracts/blob/master/contracts/access/Ownable.sol\":2343:2359  address oldOwner */\n  0x00\n    /* \"https://github.com/OpenZeppelin/openzeppelin-contracts/blob/master/contracts/access/Ownable.sol\":2362:2368  _owner */\n  dup1\n  0x00\n  swap1\n  sload\n  swap1\n  0x0100\n  exp\n  swap1\n  div\n  0xffffffffffffffffffffffffffffffffffffffff\n  and\n    /* \"https://github.com/OpenZeppelin/openzeppelin-contracts/blob/master/contracts/access/Ownable.sol\":2343:2368  address oldOwner = _owner */\n  swap1\n  pop\n    /* \"https://github.com/OpenZeppelin/openzeppelin-contracts/blob/master/contracts/access/Ownable.sol\":2387:2395  newOwner */\n  dup2\n    /* \"https://github.com/OpenZeppelin/openzeppelin-contracts/blob/master/contracts/access/Ownable.sol\":2378:2384  _owner */\n  0x00\n  dup1\n    /* \"https://github.com/OpenZeppelin/openzeppelin-contracts/blob/master/contracts/access/Ownable.sol\":2378:2395  _owner = newOwner */\n  0x0100\n  exp\n  dup2\n  sload\n  dup2\n  0xffffffffffffffffffffffffffffffffffffffff\n  mul\n  not\n  and\n  swap1\n  dup4\n  0xffffffffffffffffffffffffffffffffffffffff\n  and\n  mul\n  or\n  swap1\n  sstore\n  pop\n    /* \"https://github.com/OpenZeppelin/openzeppelin-contracts/blob/master/contracts/access/Ownable.sol\":2441:2449  newOwner */\n  dup2\n    /* \"https://github.com/OpenZeppelin/openzeppelin-contracts/blob/master/contracts/access/Ownable.sol\":2410:2450  OwnershipTransferred(oldOwner, newOwner) */\n  0xffffffffffffffffffffffffffffffffffffffff\n  and\n    /* \"https://github.com/OpenZeppelin/openzeppelin-contracts/blob/master/contracts/access/Ownable.sol\":2431:2439  oldOwner */\n  dup2\n    /* \"https://github.com/OpenZeppelin/openzeppelin-contracts/blob/master/contracts/access/Ownable.sol\":2410:2450  OwnershipTransferred(oldOwner, newOwner) */\n  0xffffffffffffffffffffffffffffffffffffffff\n  and\n  0x8be0079c531659141344cd1fd0a4f28419497f9722a3daafe3b4186f6b6457e0\n  mload(0x40)\n  mload(0x40)\n  dup1\n  swap2\n  sub\n  swap1\n  log3\n    /* \"https://github.com/OpenZeppelin/openzeppelin-contracts/blob/master/contracts/access/Ownable.sol\":2333:2457  {... */\n  pop\n    /* \"https://github.com/OpenZeppelin/openzeppelin-contracts/blob/master/contracts/access/Ownable.sol\":2270:2457  function _transferOwnership(address newOwner) internal virtual {... */\n  pop\n  jump\t// out\n    /* \"#utility.yul\":7:150   */\ntag_16:\n    /* \"#utility.yul\":64:69   */\n  0x00\n    /* \"#utility.yul\":95:101   */\n  dup2\n    /* \"#utility.yul\":89:102   */\n  mload\n    /* \"#utility.yul\":80:102   */\n  swap1\n  pop\n    /* \"#utility.yul\":111:144   */\n  tag_18\n    /* \"#utility.yul\":138:143   */\n  dup2\n    /* \"#utility.yul\":111:144   */\n  tag_19\n  jump\t// in\ntag_18:\n    /* \"#utility.yul\":7:150   */\n  swap3\n  swap2\n  pop\n  pop\n  jump\t// out\n    /* \"#utility.yul\":156:663   */\ntag_3:\n    /* \"#utility.yul\":235:241   */\n  0x00\n    /* \"#utility.yul\":243:249   */\n  dup1\n    /* \"#utility.yul\":292:294   */\n  0x40\n    /* \"#utility.yul\":280:289   */\n  dup4\n    /* \"#utility.yul\":271:278   */\n  dup6\n    /* \"#utility.yul\":267:290   */\n  sub\n    /* \"#utility.yul\":263:295   */\n  slt\n    /* \"#utility.yul\":260:379   */\n  iszero\n  tag_21\n  jumpi\n    /* \"#utility.yul\":298:377   */\n  tag_22\n  tag_23\n  jump\t// in\ntag_22:\n    /* \"#utility.yul\":260:379   */\ntag_21:\n    /* \"#utility.yul\":418:419   */\n  0x00\n    /* \"#utility.yul\":443:507   */\n  tag_24\n    /* \"#utility.yul\":499:506   */\n  dup6\n    /* \"#utility.yul\":490:496   */\n  dup3\n    /* \"#utility.yul\":479:488   */\n  dup7\n    /* \"#utility.yul\":475:497   */\n  add\n    /* \"#utility.yul\":443:507   */\n  tag_16\n  jump\t// in\ntag_24:\n    /* \"#utility.yul\":433:507   */\n  swap3\n  pop\n    /* \"#utility.yul\":389:517   */\n  pop\n    /* \"#utility.yul\":556:558   */\n  0x20\n    /* \"#utility.yul\":582:646   */\n  tag_25\n    /* \"#utility.yul\":638:645   */\n  dup6\n    /* \"#utility.yul\":629:635   */\n  dup3\n    /* \"#utility.yul\":618:627   */\n  dup7\n    /* \"#utility.yul\":614:636   */\n  add\n    /* \"#utility.yul\":582:646   */\n  tag_16\n  jump\t// in\ntag_25:\n    /* \"#utility.yul\":572:646   */\n  swap2\n  pop\n    /* \"#utility.yul\":527:656   */\n  pop\n    /* \"#utility.yul\":156:663   */\n  swap3\n  pop\n  swap3\n  swap1\n  pop\n  jump\t// out\n    /* \"#utility.yul\":750:846   */\ntag_28:\n    /* \"#utility.yul\":787:794   */\n  0x00\n    /* \"#utility.yul\":816:840   */\n  tag_30\n    /* \"#utility.yul\":834:839   */\n  dup3\n    /* \"#utility.yul\":816:840   */\n  tag_31\n  jump\t// in\ntag_30:\n    /* \"#utility.yul\":805:840   */\n  swap1\n  pop\n    /* \"#utility.yul\":750:846   */\n  swap2\n  swap1\n  pop\n  jump\t// out\n    /* \"#utility.yul\":852:978   */\ntag_31:\n    /* \"#utility.yul\":889:896   */\n  0x00\n    /* \"#utility.yul\":929:971   */\n  0xffffffffffffffffffffffffffffffffffffffff\n    /* \"#utility.yul\":922:927   */\n  dup3\n    /* \"#utility.yul\":918:972   */\n  and\n    /* \"#utility.yul\":907:972   */\n  swap1\n  pop\n    /* \"#utility.yul\":852:978   */\n  swap2\n  swap1\n  pop\n  jump\t// out\n    /* \"#utility.yul\":1107:1224   */\ntag_23:\n    /* \"#utility.yul\":1216:1217   */\n  0x00\n    /* \"#utility.yul\":1213:1214   */\n  dup1\n    /* \"#utility.yul\":1206:1218   */\n  revert\n    /* \"#utility.yul\":1230:1352   */\ntag_19:\n    /* \"#utility.yul\":1303:1327   */\n  tag_37\n    /* \"#utility.yul\":1321:1326   */\n  dup2\n    /* \"#utility.yul\":1303:1327   */\n  tag_28\n  jump\t// in\ntag_37:\n    /* \"#utility.yul\":1296:1301   */\n  dup2\n    /* \"#utility.yul\":1293:1328   */\n  eq\n    /* \"#utility.yul\":1283:1346   */\n  tag_38\n  jumpi\n    /* \"#utility.yul\":1342:1343   */\n  0x00\n    /* \"#utility.yul\":1339:1340   */\n  dup1\n    /* \"#utility.yul\":1332:1344   */\n  revert\n    /* \"#utility.yul\":1283:1346   */\ntag_38:\n    /* \"#utility.yul\":1230:1352   */\n  pop\n  jump\t// out\n    /* \"NFTlotto.sol\":729:5502  contract ACELotto is Ownable {   \r... */\ntag_12:\n  dataSize(sub_0)\n  dup1\n  dataOffset(sub_0)\n  0x00\n  codecopy\n  0x00\n  return\nstop\n\nsub_0: assembly {\n        /* \"NFTlotto.sol\":729:5502  contract ACELotto is Ownable {   \r... */\n      mstore(0x40, 0x80)\n      callvalue\n      dup1\n      iszero\n      tag_1\n      jumpi\n      0x00\n      dup1\n      revert\n    tag_1:\n      pop\n      jumpi(tag_2, lt(calldatasize, 0x04))\n      shr(0xe0, calldataload(0x00))\n      dup1\n      0x8da5cb5b\n      gt\n      tag_21\n      jumpi\n      dup1\n      0xbc15cdf0\n      gt\n      tag_22\n      jumpi\n      dup1\n      0xbc15cdf0\n      eq\n      tag_16\n      jumpi\n      dup1\n      0xf2fde38b\n      eq\n      tag_17\n      jumpi\n      dup1\n      0xf737d21d\n      eq\n      tag_18\n      jumpi\n      dup1\n      0xf80fb76d\n      eq\n      tag_19\n      jumpi\n      dup1\n      0xf9cee0bd\n      eq\n      tag_20\n      jumpi\n      jump(tag_2)\n    tag_22:\n      dup1\n      0x8da5cb5b\n      eq\n      tag_12\n      jumpi\n      dup1\n      0x9f10a990\n      eq\n      tag_13\n      jumpi\n      dup1\n      0xac128f4f\n      eq\n      tag_14\n      jumpi\n      dup1\n      0xaeb18350\n      eq\n      tag_15\n      jumpi\n      jump(tag_2)\n    tag_21:\n      dup1\n      0x3b98bc65\n      gt\n      tag_23\n      jumpi\n      dup1\n      0x3b98bc65\n      eq\n      tag_7\n      jumpi\n      dup1\n      0x454f7b8f\n      eq\n      tag_8\n      jumpi\n      dup1\n      0x6fbb5a86\n      eq\n      tag_9\n      jumpi\n      dup1\n      0x715018a6\n      eq\n      tag_10\n      jumpi\n      dup1\n      0x7ad3def2\n      eq\n      tag_11\n      jumpi\n      jump(tag_2)\n    tag_23:\n      dup1\n      0x119b22b3\n      eq\n      tag_3\n      jumpi\n      dup1\n      0x158977de\n      eq\n      tag_4\n      jumpi\n      dup1\n      0x17be85c3\n      eq\n      tag_5\n      jumpi\n      dup1\n      0x3013ce29\n      eq\n      tag_6\n      jumpi\n    tag_2:\n      0x00\n      dup1\n      revert\n        /* \"NFTlotto.sol\":773:796  uint256 public roundNum */\n    tag_3:\n      tag_24\n      tag_25\n      jump\t// in\n    tag_24:\n      mload(0x40)\n      tag_26\n      swap2\n      swap1\n      tag_27\n      jump\t// in\n    tag_26:\n      mload(0x40)\n      dup1\n      swap2\n      sub\n      swap1\n      return\n        /* \"NFTlotto.sol\":4090:4432  function getUniqueUsers() public view returns (uint256 counter) {\r... */\n    tag_4:\n      tag_28\n      tag_29\n      jump\t// in\n    tag_28:\n      mload(0x40)\n      tag_30\n      swap2\n      swap1\n      tag_27\n      jump\t// in\n    tag_30:\n      mload(0x40)\n      dup1\n      swap2\n      sub\n      swap1\n      return\n        /* \"NFTlotto.sol\":3983:4082  function getEntries() public view returns (uint256) {\r... */\n    tag_5:\n      tag_31\n      tag_32\n      jump\t// in\n    tag_31:\n      mload(0x40)\n      tag_33\n      swap2\n      swap1\n      tag_27\n      jump\t// in\n    tag_33:\n      mload(0x40)\n      dup1\n      swap2\n      sub\n      swap1\n      return\n        /* \"NFTlotto.sol\":888:914  IERC20 public paymentToken */\n    tag_6:\n      tag_34\n      tag_35\n      jump\t// in\n    tag_34:\n      mload(0x40)\n      tag_36\n      swap2\n      swap1\n      tag_37\n      jump\t// in\n    tag_36:\n      mload(0x40)\n      dup1\n      swap2\n      sub\n      swap1\n      return\n        /* \"NFTlotto.sol\":4440:5113  function getUniqueAddresses() public view returns (address [] memory addresses, uint256 [] memory entries) {\r... */\n    tag_7:\n      tag_38\n      tag_39\n      jump\t// in\n    tag_38:\n      mload(0x40)\n      tag_40\n      swap3\n      swap2\n      swap1\n      tag_41\n      jump\t// in\n    tag_40:\n      mload(0x40)\n      dup1\n      swap2\n      sub\n      swap1\n      return\n        /* \"NFTlotto.sol\":803:829  uint256 public totalPayout */\n    tag_8:\n      tag_42\n      tag_43\n      jump\t// in\n    tag_42:\n      mload(0x40)\n      tag_44\n      swap2\n      swap1\n      tag_27\n      jump\t// in\n    tag_44:\n      mload(0x40)\n      dup1\n      swap2\n      sub\n      swap1\n      return\n        /* \"NFTlotto.sol\":2822:3340  function updateWinner(uint256 winnerNum, uint256 payout) external onlyOwner {      \r... */\n    tag_9:\n      tag_45\n      0x04\n      dup1\n      calldatasize\n      sub\n      dup2\n      add\n      swap1\n      tag_46\n      swap2\n      swap1\n      tag_47\n      jump\t// in\n    tag_46:\n      tag_48\n      jump\t// in\n    tag_45:\n      stop\n        /* \"https://github.com/OpenZeppelin/openzeppelin-contracts/blob/master/contracts/access/Ownable.sol\":1668:1769  function renounceOwnership() public virtual onlyOwner {... */\n    tag_10:\n      tag_49\n      tag_50\n      jump\t// in\n    tag_49:\n      stop\n        /* \"NFTlotto.sol\":1412:1522  function updateToken(address _newToken) external onlyOwner {\r... */\n    tag_11:\n      tag_51\n      0x04\n      dup1\n      calldatasize\n      sub\n      dup2\n      add\n      swap1\n      tag_52\n      swap2\n      swap1\n      tag_53\n      jump\t// in\n    tag_52:\n      tag_54\n      jump\t// in\n    tag_51:\n      stop\n        /* \"https://github.com/OpenZeppelin/openzeppelin-contracts/blob/master/contracts/access/Ownable.sol\":1036:1121  function owner() public view virtual returns (address) {... */\n    tag_12:\n      tag_55\n      tag_56\n      jump\t// in\n    tag_55:\n      mload(0x40)\n      tag_57\n      swap2\n      swap1\n      tag_58\n      jump\t// in\n    tag_57:\n      mload(0x40)\n      dup1\n      swap2\n      sub\n      swap1\n      return\n        /* \"NFTlotto.sol\":3350:3470  function userEntries(address account) public view returns (uint256) {\r... */\n    tag_13:\n      tag_59\n      0x04\n      dup1\n      calldatasize\n      sub\n      dup2\n      add\n      swap1\n      tag_60\n      swap2\n      swap1\n      tag_53\n      jump\t// in\n    tag_60:\n      tag_61\n      jump\t// in\n    tag_59:\n      mload(0x40)\n      tag_62\n      swap2\n      swap1\n      tag_27\n      jump\t// in\n    tag_62:\n      mload(0x40)\n      dup1\n      swap2\n      sub\n      swap1\n      return\n        /* \"NFTlotto.sol\":1144:1191  mapping(uint256 => Results) public roundResults */\n    tag_14:\n      tag_63\n      0x04\n      dup1\n      calldatasize\n      sub\n      dup2\n      add\n      swap1\n      tag_64\n      swap2\n      swap1\n      tag_65\n      jump\t// in\n    tag_64:\n      tag_66\n      jump\t// in\n    tag_63:\n      mload(0x40)\n      tag_67\n      swap6\n      swap5\n      swap4\n      swap3\n      swap2\n      swap1\n      tag_68\n      jump\t// in\n    tag_67:\n      mload(0x40)\n      dup1\n      swap2\n      sub\n      swap1\n      return\n        /* \"NFTlotto.sol\":921:953  IERC721Enumerable public acesNFT */\n    tag_15:\n      tag_69\n      tag_70\n      jump\t// in\n    tag_69:\n      mload(0x40)\n      tag_71\n      swap2\n      swap1\n      tag_72\n      jump\t// in\n    tag_71:\n      mload(0x40)\n      dup1\n      swap2\n      sub\n      swap1\n      return\n        /* \"NFTlotto.sol\":3478:3975  function resultLog(uint256 startIndex, uint256 endIndex) external view returns(Results [] memory log){\r... */\n    tag_16:\n      tag_73\n      0x04\n      dup1\n      calldatasize\n      sub\n      dup2\n      add\n      swap1\n      tag_74\n      swap2\n      swap1\n      tag_47\n      jump\t// in\n    tag_74:\n      tag_75\n      jump\t// in\n    tag_73:\n      mload(0x40)\n      tag_76\n      swap2\n      swap1\n      tag_77\n      jump\t// in\n    tag_76:\n      mload(0x40)\n      dup1\n      swap2\n      sub\n      swap1\n      return\n        /* \"https://github.com/OpenZeppelin/openzeppelin-contracts/blob/master/contracts/access/Ownable.sol\":1918:2116  function transferOwnership(address newOwner) public virtual onlyOwner {... */\n    tag_17:\n      tag_78\n      0x04\n      dup1\n      calldatasize\n      sub\n      dup2\n      add\n      swap1\n      tag_79\n      swap2\n      swap1\n      tag_53\n      jump\t// in\n    tag_79:\n      tag_80\n      jump\t// in\n    tag_78:\n      stop\n        /* \"NFTlotto.sol\":2544:2814  function pickWinner(uint256 seed) external view returns(uint256 winnerNum, address winnerAddress) {\r... */\n    tag_18:\n      tag_81\n      0x04\n      dup1\n      calldatasize\n      sub\n      dup2\n      add\n      swap1\n      tag_82\n      swap2\n      swap1\n      tag_65\n      jump\t// in\n    tag_82:\n      tag_83\n      jump\t// in\n    tag_81:\n      mload(0x40)\n      tag_84\n      swap3\n      swap2\n      swap1\n      tag_85\n      jump\t// in\n    tag_84:\n      mload(0x40)\n      dup1\n      swap2\n      sub\n      swap1\n      return\n        /* \"NFTlotto.sol\":1530:1640  function updateJackpot(uint256 _newJackpot) external onlyOwner {\r... */\n    tag_19:\n      tag_86\n      0x04\n      dup1\n      calldatasize\n      sub\n      dup2\n      add\n      swap1\n      tag_87\n      swap2\n      swap1\n      tag_65\n      jump\t// in\n    tag_87:\n      tag_88\n      jump\t// in\n    tag_86:\n      stop\n        /* \"NFTlotto.sol\":836:875  uint256 public currentJackpot = 1 ether */\n    tag_20:\n      tag_89\n      tag_90\n      jump\t// in\n    tag_89:\n      mload(0x40)\n      tag_91\n      swap2\n      swap1\n      tag_27\n      jump\t// in\n    tag_91:\n      mload(0x40)\n      dup1\n      swap2\n      sub\n      swap1\n      return\n        /* \"NFTlotto.sol\":773:796  uint256 public roundNum */\n    tag_25:\n      sload(0x01)\n      dup2\n      jump\t// out\n        /* \"NFTlotto.sol\":4090:4432  function getUniqueUsers() public view returns (uint256 counter) {\r... */\n    tag_29:\n        /* \"NFTlotto.sol\":4137:4152  uint256 counter */\n      0x00\n        /* \"NFTlotto.sol\":4165:4185  uint256 roundEntries */\n      dup1\n        /* \"NFTlotto.sol\":4188:4195  acesNFT */\n      0x05\n      0x00\n      swap1\n      sload\n      swap1\n      0x0100\n      exp\n      swap1\n      div\n      0xffffffffffffffffffffffffffffffffffffffff\n      and\n        /* \"NFTlotto.sol\":4188:4207  acesNFT.totalSupply */\n      0xffffffffffffffffffffffffffffffffffffffff\n      and\n      0x18160ddd\n        /* \"NFTlotto.sol\":4188:4209  acesNFT.totalSupply() */\n      mload(0x40)\n      dup2\n      0xffffffff\n      and\n      0xe0\n      shl\n      dup2\n      mstore\n      0x04\n      add\n      0x20\n      mload(0x40)\n      dup1\n      dup4\n      sub\n      dup2\n      dup7\n      dup1\n      extcodesize\n      iszero\n      dup1\n      iszero\n      tag_93\n      jumpi\n      0x00\n      dup1\n      revert\n    tag_93:\n      pop\n      gas\n      staticcall\n      iszero\n      dup1\n      iszero\n      tag_95\n      jumpi\n      returndatasize\n      0x00\n      dup1\n      returndatacopy\n      revert(0x00, returndatasize)\n    tag_95:\n      pop\n      pop\n      pop\n      pop\n      mload(0x40)\n      returndatasize\n      not(0x1f)\n      0x1f\n      dup3\n      add\n      and\n      dup3\n      add\n      dup1\n      0x40\n      mstore\n      pop\n      dup2\n      add\n      swap1\n      tag_96\n      swap2\n      swap1\n      tag_97\n      jump\t// in\n    tag_96:\n        /* \"NFTlotto.sol\":4165:4209  uint256 roundEntries = acesNFT.totalSupply() */\n      swap1\n      pop\n        /* \"NFTlotto.sol\":4226:4235  uint256 i */\n      0x00\n        /* \"NFTlotto.sol\":4236:4237  1 */\n      0x01\n        /* \"NFTlotto.sol\":4226:4237  uint256 i=1 */\n      swap1\n      pop\n        /* \"NFTlotto.sol\":4222:4425  for(uint256 i=1; i <= roundEntries; i++){\r... */\n    tag_98:\n        /* \"NFTlotto.sol\":4244:4256  roundEntries */\n      dup2\n        /* \"NFTlotto.sol\":4239:4240  i */\n      dup2\n        /* \"NFTlotto.sol\":4239:4256  i <= roundEntries */\n      gt\n        /* \"NFTlotto.sol\":4222:4425  for(uint256 i=1; i <= roundEntries; i++){\r... */\n      tag_99\n      jumpi\n        /* \"NFTlotto.sol\":4277:4289  address user */\n      0x00\n        /* \"NFTlotto.sol\":4292:4299  acesNFT */\n      0x05\n      0x00\n      swap1\n      sload\n      swap1\n      0x0100\n      exp\n      swap1\n      div\n      0xffffffffffffffffffffffffffffffffffffffff\n      and\n        /* \"NFTlotto.sol\":4292:4307  acesNFT.ownerOf */\n      0xffffffffffffffffffffffffffffffffffffffff\n      and\n      0x6352211e\n        /* \"NFTlotto.sol\":4308:4309  i */\n      dup4\n        /* \"NFTlotto.sol\":4292:4310  acesNFT.ownerOf(i) */\n      mload(0x40)\n      dup3\n      0xffffffff\n      and\n      0xe0\n      shl\n      dup2\n      mstore\n      0x04\n      add\n      tag_101\n      swap2\n      swap1\n      tag_27\n      jump\t// in\n    tag_101:\n      0x20\n      mload(0x40)\n      dup1\n      dup4\n      sub\n      dup2\n      dup7\n      dup1\n      extcodesize\n      iszero\n      dup1\n      iszero\n      tag_102\n      jumpi\n      0x00\n      dup1\n      revert\n    tag_102:\n      pop\n      gas\n      staticcall\n      iszero\n      dup1\n      iszero\n      tag_104\n      jumpi\n      returndatasize\n      0x00\n      dup1\n      returndatacopy\n      revert(0x00, returndatasize)\n    tag_104:\n      pop\n      pop\n      pop\n      pop\n      mload(0x40)\n      returndatasize\n      not(0x1f)\n      0x1f\n      dup3\n      add\n      and\n      dup3\n      add\n      dup1\n      0x40\n      mstore\n      pop\n      dup2\n      add\n      swap1\n      tag_105\n      swap2\n      swap1\n      tag_106\n      jump\t// in\n    tag_105:\n        /* \"NFTlotto.sol\":4277:4310  address user = acesNFT.ownerOf(i) */\n      swap1\n      pop\n        /* \"NFTlotto.sol\":4333:4340  acesNFT */\n      0x05\n      0x00\n      swap1\n      sload\n      swap1\n      0x0100\n      exp\n      swap1\n      div\n      0xffffffffffffffffffffffffffffffffffffffff\n      and\n        /* \"NFTlotto.sol\":4333:4360  acesNFT.tokenOfOwnerByIndex */\n      0xffffffffffffffffffffffffffffffffffffffff\n      and\n      0x2f745c59\n        /* \"NFTlotto.sol\":4361:4365  user */\n      dup3\n        /* \"NFTlotto.sol\":4367:4368  0 */\n      0x00\n        /* \"NFTlotto.sol\":4333:4369  acesNFT.tokenOfOwnerByIndex(user, 0) */\n      mload(0x40)\n      dup4\n      0xffffffff\n      and\n      0xe0\n      shl\n      dup2\n      mstore\n      0x04\n      add\n      tag_107\n      swap3\n      swap2\n      swap1\n      tag_108\n      jump\t// in\n    tag_107:\n      0x20\n      mload(0x40)\n      dup1\n      dup4\n      sub\n      dup2\n      dup7\n      dup1\n      extcodesize\n      iszero\n      dup1\n      iszero\n      tag_109\n      jumpi\n      0x00\n      dup1\n      revert\n    tag_109:\n      pop\n      gas\n      staticcall\n      iszero\n      dup1\n      iszero\n      tag_111\n      jumpi\n      returndatasize\n      0x00\n      dup1\n      returndatacopy\n      revert(0x00, returndatasize)\n    tag_111:\n      pop\n      pop\n      pop\n      pop\n      mload(0x40)\n      returndatasize\n      not(0x1f)\n      0x1f\n      dup3\n      add\n      and\n      dup3\n      add\n      dup1\n      0x40\n      mstore\n      pop\n      dup2\n      add\n      swap1\n      tag_112\n      swap2\n      swap1\n      tag_97\n      jump\t// in\n    tag_112:\n        /* \"NFTlotto.sol\":4328:4329  i */\n      dup3\n        /* \"NFTlotto.sol\":4328:4369  i == acesNFT.tokenOfOwnerByIndex(user, 0) */\n      eq\n        /* \"NFTlotto.sol\":4325:4414  if(i == acesNFT.tokenOfOwnerByIndex(user, 0)){\r... */\n      iszero\n      tag_113\n      jumpi\n        /* \"NFTlotto.sol\":4389:4398  counter++ */\n      dup4\n      dup1\n      tag_114\n      swap1\n      tag_115\n      jump\t// in\n    tag_114:\n      swap5\n      pop\n      pop\n        /* \"NFTlotto.sol\":4325:4414  if(i == acesNFT.tokenOfOwnerByIndex(user, 0)){\r... */\n    tag_113:\n        /* \"NFTlotto.sol\":4262:4425  {\r... */\n      pop\n        /* \"NFTlotto.sol\":4258:4261  i++ */\n      dup1\n      dup1\n      tag_116\n      swap1\n      tag_115\n      jump\t// in\n    tag_116:\n      swap2\n      pop\n      pop\n        /* \"NFTlotto.sol\":4222:4425  for(uint256 i=1; i <= roundEntries; i++){\r... */\n      jump(tag_98)\n    tag_99:\n      pop\n        /* \"NFTlotto.sol\":4154:4432  {\r... */\n      pop\n        /* \"NFTlotto.sol\":4090:4432  function getUniqueUsers() public view returns (uint256 counter) {\r... */\n      swap1\n      jump\t// out\n        /* \"NFTlotto.sol\":3983:4082  function getEntries() public view returns (uint256) {\r... */\n    tag_32:\n        /* \"NFTlotto.sol\":4026:4033  uint256 */\n      0x00\n        /* \"NFTlotto.sol\":4053:4060  acesNFT */\n      0x05\n      0x00\n      swap1\n      sload\n      swap1\n      0x0100\n      exp\n      swap1\n      div\n      0xffffffffffffffffffffffffffffffffffffffff\n      and\n        /* \"NFTlotto.sol\":4053:4072  acesNFT.totalSupply */\n      0xffffffffffffffffffffffffffffffffffffffff\n      and\n      0x18160ddd\n        /* \"NFTlotto.sol\":4053:4074  acesNFT.totalSupply() */\n      mload(0x40)\n      dup2\n      0xffffffff\n      and\n      0xe0\n      shl\n      dup2\n      mstore\n      0x04\n      add\n      0x20\n      mload(0x40)\n      dup1\n      dup4\n      sub\n      dup2\n      dup7\n      dup1\n      extcodesize\n      iszero\n      dup1\n      iszero\n      tag_118\n      jumpi\n      0x00\n      dup1\n      revert\n    tag_118:\n      pop\n      gas\n      staticcall\n      iszero\n      dup1\n      iszero\n      tag_120\n      jumpi\n      returndatasize\n      0x00\n      dup1\n      returndatacopy\n      revert(0x00, returndatasize)\n    tag_120:\n      pop\n      pop\n      pop\n      pop\n      mload(0x40)\n      returndatasize\n      not(0x1f)\n      0x1f\n      dup3\n      add\n      and\n      dup3\n      add\n      dup1\n      0x40\n      mstore\n      pop\n      dup2\n      add\n      swap1\n      tag_121\n      swap2\n      swap1\n      tag_97\n      jump\t// in\n    tag_121:\n        /* \"NFTlotto.sol\":4046:4074  return acesNFT.totalSupply() */\n      swap1\n      pop\n        /* \"NFTlotto.sol\":3983:4082  function getEntries() public view returns (uint256) {\r... */\n      swap1\n      jump\t// out\n        /* \"NFTlotto.sol\":888:914  IERC20 public paymentToken */\n    tag_35:\n      0x04\n      0x00\n      swap1\n      sload\n      swap1\n      0x0100\n      exp\n      swap1\n      div\n      0xffffffffffffffffffffffffffffffffffffffff\n      and\n      dup2\n      jump\t// out\n        /* \"NFTlotto.sol\":4440:5113  function getUniqueAddresses() public view returns (address [] memory addresses, uint256 [] memory entries) {\r... */\n    tag_39:\n        /* \"NFTlotto.sol\":4491:4518  address [] memory addresses */\n      0x60\n        /* \"NFTlotto.sol\":4520:4545  uint256 [] memory entries */\n      dup1\n        /* \"NFTlotto.sol\":4558:4578  uint256 roundEntries */\n      0x00\n        /* \"NFTlotto.sol\":4581:4588  acesNFT */\n      0x05\n      0x00\n      swap1\n      sload\n      swap1\n      0x0100\n      exp\n      swap1\n      div\n      0xffffffffffffffffffffffffffffffffffffffff\n      and\n        /* \"NFTlotto.sol\":4581:4600  acesNFT.totalSupply */\n      0xffffffffffffffffffffffffffffffffffffffff\n      and\n      0x18160ddd\n        /* \"NFTlotto.sol\":4581:4602  acesNFT.totalSupply() */\n      mload(0x40)\n      dup2\n      0xffffffff\n      and\n      0xe0\n      shl\n      dup2\n      mstore\n      0x04\n      add\n      0x20\n      mload(0x40)\n      dup1\n      dup4\n      sub\n      dup2\n      dup7\n      dup1\n      extcodesize\n      iszero\n      dup1\n      iszero\n      tag_123\n      jumpi\n      0x00\n      dup1\n      revert\n    tag_123:\n      pop\n      gas\n      staticcall\n      iszero\n      dup1\n      iszero\n      tag_125\n      jumpi\n      returndatasize\n      0x00\n      dup1\n      returndatacopy\n      revert(0x00, returndatasize)\n    tag_125:\n      pop\n      pop\n      pop\n      pop\n      mload(0x40)\n      returndatasize\n      not(0x1f)\n      0x1f\n      dup3\n      add\n      and\n      dup3\n      add\n      dup1\n      0x40\n      mstore\n      pop\n      dup2\n      add\n      swap1\n      tag_126\n      swap2\n      swap1\n      tag_97\n      jump\t// in\n    tag_126:\n        /* \"NFTlotto.sol\":4558:4602  uint256 roundEntries = acesNFT.totalSupply() */\n      swap1\n      pop\n        /* \"NFTlotto.sol\":4613:4632  uint256 arrayLength */\n      0x00\n        /* \"NFTlotto.sol\":4635:4651  getUniqueUsers() */\n      tag_127\n        /* \"NFTlotto.sol\":4635:4649  getUniqueUsers */\n      tag_29\n        /* \"NFTlotto.sol\":4635:4651  getUniqueUsers() */\n      jump\t// in\n    tag_127:\n        /* \"NFTlotto.sol\":4613:4651  uint256 arrayLength = getUniqueUsers() */\n      swap1\n      pop\n        /* \"NFTlotto.sol\":4688:4699  arrayLength */\n      dup1\n        /* \"NFTlotto.sol\":4674:4700  new address[](arrayLength) */\n      0xffffffffffffffff\n      dup2\n      gt\n      iszero\n      tag_128\n      jumpi\n      tag_129\n      tag_130\n      jump\t// in\n    tag_129:\n    tag_128:\n      mload(0x40)\n      swap1\n      dup1\n      dup3\n      mstore\n      dup1\n      0x20\n      mul\n      0x20\n      add\n      dup3\n      add\n      0x40\n      mstore\n      dup1\n      iszero\n      tag_131\n      jumpi\n      dup2\n      0x20\n      add\n      0x20\n      dup3\n      mul\n      dup1\n      calldatasize\n      dup4\n      calldatacopy\n      dup1\n      dup3\n      add\n      swap2\n      pop\n      pop\n      swap1\n      pop\n    tag_131:\n      pop\n        /* \"NFTlotto.sol\":4662:4700  addresses = new address[](arrayLength) */\n      swap4\n      pop\n        /* \"NFTlotto.sol\":4735:4746  arrayLength */\n      dup1\n        /* \"NFTlotto.sol\":4721:4747  new uint256[](arrayLength) */\n      0xffffffffffffffff\n      dup2\n      gt\n      iszero\n      tag_132\n      jumpi\n      tag_133\n      tag_130\n      jump\t// in\n    tag_133:\n    tag_132:\n      mload(0x40)\n      swap1\n      dup1\n      dup3\n      mstore\n      dup1\n      0x20\n      mul\n      0x20\n      add\n      dup3\n      add\n      0x40\n      mstore\n      dup1\n      iszero\n      tag_134\n      jumpi\n      dup2\n      0x20\n      add\n      0x20\n      dup3\n      mul\n      dup1\n      calldatasize\n      dup4\n      calldatacopy\n      dup1\n      dup3\n      add\n      swap2\n      pop\n      pop\n      swap1\n      pop\n    tag_134:\n      pop\n        /* \"NFTlotto.sol\":4711:4747  entries = new uint256[](arrayLength) */\n      swap3\n      pop\n        /* \"NFTlotto.sol\":4758:4778  uint256 currentIndex */\n      0x00\n        /* \"NFTlotto.sol\":4793:4802  uint256 i */\n      dup1\n        /* \"NFTlotto.sol\":4803:4804  1 */\n      0x01\n        /* \"NFTlotto.sol\":4793:4804  uint256 i=1 */\n      swap1\n      pop\n        /* \"NFTlotto.sol\":4789:5106  for(uint256 i=1; i <= roundEntries; i++){\r... */\n    tag_135:\n        /* \"NFTlotto.sol\":4811:4823  roundEntries */\n      dup4\n        /* \"NFTlotto.sol\":4806:4807  i */\n      dup2\n        /* \"NFTlotto.sol\":4806:4823  i <= roundEntries */\n      gt\n        /* \"NFTlotto.sol\":4789:5106  for(uint256 i=1; i <= roundEntries; i++){\r... */\n      tag_136\n      jumpi\n        /* \"NFTlotto.sol\":4844:4856  address user */\n      0x00\n        /* \"NFTlotto.sol\":4859:4866  acesNFT */\n      0x05\n      0x00\n      swap1\n      sload\n      swap1\n      0x0100\n      exp\n      swap1\n      div\n      0xffffffffffffffffffffffffffffffffffffffff\n      and\n        /* \"NFTlotto.sol\":4859:4874  acesNFT.ownerOf */\n      0xffffffffffffffffffffffffffffffffffffffff\n      and\n      0x6352211e\n        /* \"NFTlotto.sol\":4875:4876  i */\n      dup4\n        /* \"NFTlotto.sol\":4859:4877  acesNFT.ownerOf(i) */\n      mload(0x40)\n      dup3\n      0xffffffff\n      and\n      0xe0\n      shl\n      dup2\n      mstore\n      0x04\n      add\n      tag_138\n      swap2\n      swap1\n      tag_27\n      jump\t// in\n    tag_138:\n      0x20\n      mload(0x40)\n      dup1\n      dup4\n      sub\n      dup2\n      dup7\n      dup1\n      extcodesize\n      iszero\n      dup1\n      iszero\n      tag_139\n      jumpi\n      0x00\n      dup1\n      revert\n    tag_139:\n      pop\n      gas\n      staticcall\n      iszero\n      dup1\n      iszero\n      tag_141\n      jumpi\n      returndatasize\n      0x00\n      dup1\n      returndatacopy\n      revert(0x00, returndatasize)\n    tag_141:\n      pop\n      pop\n      pop\n      pop\n      mload(0x40)\n      returndatasize\n      not(0x1f)\n      0x1f\n      dup3\n      add\n      and\n      dup3\n      add\n      dup1\n      0x40\n      mstore\n      pop\n      dup2\n      add\n      swap1\n      tag_142\n      swap2\n      swap1\n      tag_106\n      jump\t// in\n    tag_142:\n        /* \"NFTlotto.sol\":4844:4877  address user = acesNFT.ownerOf(i) */\n      swap1\n      pop\n        /* \"NFTlotto.sol\":4900:4907  acesNFT */\n      0x05\n      0x00\n      swap1\n      sload\n      swap1\n      0x0100\n      exp\n      swap1\n      div\n      0xffffffffffffffffffffffffffffffffffffffff\n      and\n        /* \"NFTlotto.sol\":4900:4927  acesNFT.tokenOfOwnerByIndex */\n      0xffffffffffffffffffffffffffffffffffffffff\n      and\n      0x2f745c59\n        /* \"NFTlotto.sol\":4928:4932  user */\n      dup3\n        /* \"NFTlotto.sol\":4934:4935  0 */\n      0x00\n        /* \"NFTlotto.sol\":4900:4936  acesNFT.tokenOfOwnerByIndex(user, 0) */\n      mload(0x40)\n      dup4\n      0xffffffff\n      and\n      0xe0\n      shl\n      dup2\n      mstore\n      0x04\n      add\n      tag_143\n      swap3\n      swap2\n      swap1\n      tag_108\n      jump\t// in\n    tag_143:\n      0x20\n      mload(0x40)\n      dup1\n      dup4\n      sub\n      dup2\n      dup7\n      dup1\n      extcodesize\n      iszero\n      dup1\n      iszero\n      tag_144\n      jumpi\n      0x00\n      dup1\n      revert\n    tag_144:\n      pop\n      gas\n      staticcall\n      iszero\n      dup1\n      iszero\n      tag_146\n      jumpi\n      returndatasize\n      0x00\n      dup1\n      returndatacopy\n      revert(0x00, returndatasize)\n    tag_146:\n      pop\n      pop\n      pop\n      pop\n      mload(0x40)\n      returndatasize\n      not(0x1f)\n      0x1f\n      dup3\n      add\n      and\n      dup3\n      add\n      dup1\n      0x40\n      mstore\n      pop\n      dup2\n      add\n      swap1\n      tag_147\n      swap2\n      swap1\n      tag_97\n      jump\t// in\n    tag_147:\n        /* \"NFTlotto.sol\":4895:4896  i */\n      dup3\n        /* \"NFTlotto.sol\":4895:4936  i == acesNFT.tokenOfOwnerByIndex(user, 0) */\n      eq\n        /* \"NFTlotto.sol\":4892:5095  if(i == acesNFT.tokenOfOwnerByIndex(user, 0)){\r... */\n      iszero\n      tag_148\n      jumpi\n        /* \"NFTlotto.sol\":4982:4986  user */\n      dup1\n        /* \"NFTlotto.sol\":4956:4965  addresses */\n      dup8\n        /* \"NFTlotto.sol\":4966:4978  currentIndex */\n      dup5\n        /* \"NFTlotto.sol\":4956:4979  addresses[currentIndex] */\n      dup2\n      mload\n      dup2\n      lt\n      tag_149\n      jumpi\n      tag_150\n      tag_151\n      jump\t// in\n    tag_150:\n    tag_149:\n      0x20\n      mul\n      0x20\n      add\n      add\n        /* \"NFTlotto.sol\":4956:4986  addresses[currentIndex] = user */\n      swap1\n      0xffffffffffffffffffffffffffffffffffffffff\n      and\n      swap1\n      dup2\n      0xffffffffffffffffffffffffffffffffffffffff\n      and\n      dup2\n      mstore\n      pop\n      pop\n        /* \"NFTlotto.sol\":5029:5046  userEntries(user) */\n      tag_152\n        /* \"NFTlotto.sol\":5041:5045  user */\n      dup2\n        /* \"NFTlotto.sol\":5029:5040  userEntries */\n      tag_61\n        /* \"NFTlotto.sol\":5029:5046  userEntries(user) */\n      jump\t// in\n    tag_152:\n        /* \"NFTlotto.sol\":5005:5012  entries */\n      dup7\n        /* \"NFTlotto.sol\":5013:5025  currentIndex */\n      dup5\n        /* \"NFTlotto.sol\":5005:5026  entries[currentIndex] */\n      dup2\n      mload\n      dup2\n      lt\n      tag_153\n      jumpi\n      tag_154\n      tag_151\n      jump\t// in\n    tag_154:\n    tag_153:\n      0x20\n      mul\n      0x20\n      add\n      add\n        /* \"NFTlotto.sol\":5005:5046  entries[currentIndex] = userEntries(user) */\n      dup2\n      dup2\n      mstore\n      pop\n      pop\n        /* \"NFTlotto.sol\":5065:5079  currentIndex++ */\n      dup3\n      dup1\n      tag_155\n      swap1\n      tag_115\n      jump\t// in\n    tag_155:\n      swap4\n      pop\n      pop\n        /* \"NFTlotto.sol\":4892:5095  if(i == acesNFT.tokenOfOwnerByIndex(user, 0)){\r... */\n    tag_148:\n        /* \"NFTlotto.sol\":4829:5106  {\r... */\n      pop\n        /* \"NFTlotto.sol\":4825:4828  i++ */\n      dup1\n      dup1\n      tag_156\n      swap1\n      tag_115\n      jump\t// in\n    tag_156:\n      swap2\n      pop\n      pop\n        /* \"NFTlotto.sol\":4789:5106  for(uint256 i=1; i <= roundEntries; i++){\r... */\n      jump(tag_135)\n    tag_136:\n      pop\n        /* \"NFTlotto.sol\":4547:5113  {\r... */\n      pop\n      pop\n      pop\n        /* \"NFTlotto.sol\":4440:5113  function getUniqueAddresses() public view returns (address [] memory addresses, uint256 [] memory entries) {\r... */\n      swap1\n      swap2\n      jump\t// out\n        /* \"NFTlotto.sol\":803:829  uint256 public totalPayout */\n    tag_43:\n      sload(0x02)\n      dup2\n      jump\t// out\n        /* \"NFTlotto.sol\":2822:3340  function updateWinner(uint256 winnerNum, uint256 payout) external onlyOwner {      \r... */\n    tag_48:\n        /* \"https://github.com/OpenZeppelin/openzeppelin-contracts/blob/master/contracts/access/Ownable.sol\":1259:1271  _msgSender() */\n      tag_158\n        /* \"https://github.com/OpenZeppelin/openzeppelin-contracts/blob/master/contracts/access/Ownable.sol\":1259:1269  _msgSender */\n      tag_159\n        /* \"https://github.com/OpenZeppelin/openzeppelin-contracts/blob/master/contracts/access/Ownable.sol\":1259:1271  _msgSender() */\n      jump\t// in\n    tag_158:\n        /* \"https://github.com/OpenZeppelin/openzeppelin-contracts/blob/master/contracts/access/Ownable.sol\":1248:1271  owner() == _msgSender() */\n      0xffffffffffffffffffffffffffffffffffffffff\n      and\n        /* \"https://github.com/OpenZeppelin/openzeppelin-contracts/blob/master/contracts/access/Ownable.sol\":1248:1255  owner() */\n      tag_160\n        /* \"https://github.com/OpenZeppelin/openzeppelin-contracts/blob/master/contracts/access/Ownable.sol\":1248:1253  owner */\n      tag_56\n        /* \"https://github.com/OpenZeppelin/openzeppelin-contracts/blob/master/contracts/access/Ownable.sol\":1248:1255  owner() */\n      jump\t// in\n    tag_160:\n        /* \"https://github.com/OpenZeppelin/openzeppelin-contracts/blob/master/contracts/access/Ownable.sol\":1248:1271  owner() == _msgSender() */\n      0xffffffffffffffffffffffffffffffffffffffff\n      and\n      eq\n        /* \"https://github.com/OpenZeppelin/openzeppelin-contracts/blob/master/contracts/access/Ownable.sol\":1240:1308  require(owner() == _msgSender(), \"Ownable: caller is not the owner\") */\n      tag_161\n      jumpi\n      mload(0x40)\n      0x08c379a000000000000000000000000000000000000000000000000000000000\n      dup2\n      mstore\n      0x04\n      add\n      tag_162\n      swap1\n      tag_163\n      jump\t// in\n    tag_162:\n      mload(0x40)\n      dup1\n      swap2\n      sub\n      swap1\n      revert\n    tag_161:\n        /* \"NFTlotto.sol\":2915:2936  address winnerAddress */\n      0x00\n        /* \"NFTlotto.sol\":2939:2946  acesNFT */\n      0x05\n      0x00\n      swap1\n      sload\n      swap1\n      0x0100\n      exp\n      swap1\n      div\n      0xffffffffffffffffffffffffffffffffffffffff\n      and\n        /* \"NFTlotto.sol\":2939:2954  acesNFT.ownerOf */\n      0xffffffffffffffffffffffffffffffffffffffff\n      and\n      0x6352211e\n        /* \"NFTlotto.sol\":2955:2964  winnerNum */\n      dup5\n        /* \"NFTlotto.sol\":2939:2965  acesNFT.ownerOf(winnerNum) */\n      mload(0x40)\n      dup3\n      0xffffffff\n      and\n      0xe0\n      shl\n      dup2\n      mstore\n      0x04\n      add\n      tag_165\n      swap2\n      swap1\n      tag_27\n      jump\t// in\n    tag_165:\n      0x20\n      mload(0x40)\n      dup1\n      dup4\n      sub\n      dup2\n      dup7\n      dup1\n      extcodesize\n      iszero\n      dup1\n      iszero\n      tag_166\n      jumpi\n      0x00\n      dup1\n      revert\n    tag_166:\n      pop\n      gas\n      staticcall\n      iszero\n      dup1\n      iszero\n      tag_168\n      jumpi\n      returndatasize\n      0x00\n      dup1\n      returndatacopy\n      revert(0x00, returndatasize)\n    tag_168:\n      pop\n      pop\n      pop\n      pop\n      mload(0x40)\n      returndatasize\n      not(0x1f)\n      0x1f\n      dup3\n      add\n      and\n      dup3\n      add\n      dup1\n      0x40\n      mstore\n      pop\n      dup2\n      add\n      swap1\n      tag_169\n      swap2\n      swap1\n      tag_106\n      jump\t// in\n    tag_169:\n        /* \"NFTlotto.sol\":2915:2965  address winnerAddress = acesNFT.ownerOf(winnerNum) */\n      swap1\n      pop\n        /* \"NFTlotto.sol\":3003:3226  Results ({\r... */\n      mload(0x40)\n      dup1\n      0xa0\n      add\n      0x40\n      mstore\n      dup1\n        /* \"NFTlotto.sol\":3041:3048  acesNFT */\n      0x05\n      0x00\n      swap1\n      sload\n      swap1\n      0x0100\n      exp\n      swap1\n      div\n      0xffffffffffffffffffffffffffffffffffffffff\n      and\n        /* \"NFTlotto.sol\":3041:3060  acesNFT.totalSupply */\n      0xffffffffffffffffffffffffffffffffffffffff\n      and\n      0x18160ddd\n        /* \"NFTlotto.sol\":3041:3062  acesNFT.totalSupply() */\n      mload(0x40)\n      dup2\n      0xffffffff\n      and\n      0xe0\n      shl\n      dup2\n      mstore\n      0x04\n      add\n      0x20\n      mload(0x40)\n      dup1\n      dup4\n      sub\n      dup2\n      dup7\n      dup1\n      extcodesize\n      iszero\n      dup1\n      iszero\n      tag_170\n      jumpi\n      0x00\n      dup1\n      revert\n    tag_170:\n      pop\n      gas\n      staticcall\n      iszero\n      dup1\n      iszero\n      tag_172\n      jumpi\n      returndatasize\n      0x00\n      dup1\n      returndatacopy\n      revert(0x00, returndatasize)\n    tag_172:\n      pop\n      pop\n      pop\n      pop\n      mload(0x40)\n      returndatasize\n      not(0x1f)\n      0x1f\n      dup3\n      add\n      and\n      dup3\n      add\n      dup1\n      0x40\n      mstore\n      pop\n      dup2\n      add\n      swap1\n      tag_173\n      swap2\n      swap1\n      tag_97\n      jump\t// in\n    tag_173:\n        /* \"NFTlotto.sol\":3003:3226  Results ({\r... */\n      dup2\n      mstore\n      0x20\n      add\n        /* \"NFTlotto.sol\":3092:3101  winnerNum */\n      dup5\n        /* \"NFTlotto.sol\":3003:3226  Results ({\r... */\n      dup2\n      mstore\n      0x20\n      add\n        /* \"NFTlotto.sol\":3124:3130  payout */\n      dup4\n        /* \"NFTlotto.sol\":3003:3226  Results ({\r... */\n      dup2\n      mstore\n      0x20\n      add\n        /* \"NFTlotto.sol\":3154:3169  block.timestamp */\n      timestamp\n        /* \"NFTlotto.sol\":3003:3226  Results ({\r... */\n      dup2\n      mstore\n      0x20\n      add\n        /* \"NFTlotto.sol\":3200:3213  winnerAddress */\n      dup3\n        /* \"NFTlotto.sol\":3003:3226  Results ({\r... */\n      0xffffffffffffffffffffffffffffffffffffffff\n      and\n      dup2\n      mstore\n      pop\n        /* \"NFTlotto.sol\":2978:2990  roundResults */\n      0x06\n        /* \"NFTlotto.sol\":2978:3000  roundResults[roundNum] */\n      0x00\n        /* \"NFTlotto.sol\":2991:2999  roundNum */\n      sload(0x01)\n        /* \"NFTlotto.sol\":2978:3000  roundResults[roundNum] */\n      dup2\n      mstore\n      0x20\n      add\n      swap1\n      dup2\n      mstore\n      0x20\n      add\n      0x00\n      keccak256\n        /* \"NFTlotto.sol\":2978:3226  roundResults[roundNum] = Results ({\r... */\n      0x00\n      dup3\n      add\n      mload\n      dup2\n      0x00\n      add\n      sstore\n      0x20\n      dup3\n      add\n      mload\n      dup2\n      0x01\n      add\n      sstore\n      0x40\n      dup3\n      add\n      mload\n      dup2\n      0x02\n      add\n      sstore\n      0x60\n      dup3\n      add\n      mload\n      dup2\n      0x03\n      add\n      sstore\n      0x80\n      dup3\n      add\n      mload\n      dup2\n      0x04\n      add\n      exp(0x0100, 0x00)\n      dup2\n      sload\n      dup2\n      0xffffffffffffffffffffffffffffffffffffffff\n      mul\n      not\n      and\n      swap1\n      dup4\n      0xffffffffffffffffffffffffffffffffffffffff\n      and\n      mul\n      or\n      swap1\n      sstore\n      pop\n      swap1\n      pop\n      pop\n        /* \"NFTlotto.sol\":3254:3260  payout */\n      dup2\n        /* \"NFTlotto.sol\":3239:3250  totalPayout */\n      0x02\n      0x00\n        /* \"NFTlotto.sol\":3239:3260  totalPayout += payout */\n      dup3\n      dup3\n      sload\n      tag_174\n      swap2\n      swap1\n      tag_175\n      jump\t// in\n    tag_174:\n      swap3\n      pop\n      pop\n      dup2\n      swap1\n      sstore\n      pop\n        /* \"NFTlotto.sol\":3271:3279  roundNum */\n      0x01\n      0x00\n        /* \"NFTlotto.sol\":3271:3281  roundNum++ */\n      dup2\n      sload\n      dup1\n      swap3\n      swap2\n      swap1\n      tag_176\n      swap1\n      tag_115\n      jump\t// in\n    tag_176:\n      swap2\n      swap1\n      pop\n      sstore\n      pop\n        /* \"NFTlotto.sol\":3299:3332  LotteryWon(winnerAddress, payout) */\n      0x2e798dd4337e515c79b64c40e1a93baa1aefbd9180ac7905e02508edd7971e50\n        /* \"NFTlotto.sol\":3310:3323  winnerAddress */\n      dup2\n        /* \"NFTlotto.sol\":3325:3331  payout */\n      dup4\n        /* \"NFTlotto.sol\":3299:3332  LotteryWon(winnerAddress, payout) */\n      mload(0x40)\n      tag_177\n      swap3\n      swap2\n      swap1\n      tag_178\n      jump\t// in\n    tag_177:\n      mload(0x40)\n      dup1\n      swap2\n      sub\n      swap1\n      log1\n        /* \"NFTlotto.sol\":2898:3340  {      \r... */\n      pop\n        /* \"NFTlotto.sol\":2822:3340  function updateWinner(uint256 winnerNum, uint256 payout) external onlyOwner {      \r... */\n      pop\n      pop\n      jump\t// out\n        /* \"https://github.com/OpenZeppelin/openzeppelin-contracts/blob/master/contracts/access/Ownable.sol\":1668:1769  function renounceOwnership() public virtual onlyOwner {... */\n    tag_50:\n        /* \"https://github.com/OpenZeppelin/openzeppelin-contracts/blob/master/contracts/access/Ownable.sol\":1259:1271  _msgSender() */\n      tag_180\n        /* \"https://github.com/OpenZeppelin/openzeppelin-contracts/blob/master/contracts/access/Ownable.sol\":1259:1269  _msgSender */\n      tag_159\n        /* \"https://github.com/OpenZeppelin/openzeppelin-contracts/blob/master/contracts/access/Ownable.sol\":1259:1271  _msgSender() */\n      jump\t// in\n    tag_180:\n        /* \"https://github.com/OpenZeppelin/openzeppelin-contracts/blob/master/contracts/access/Ownable.sol\":1248:1271  owner() == _msgSender() */\n      0xffffffffffffffffffffffffffffffffffffffff\n      and\n        /* \"https://github.com/OpenZeppelin/openzeppelin-contracts/blob/master/contracts/access/Ownable.sol\":1248:1255  owner() */\n      tag_181\n        /* \"https://github.com/OpenZeppelin/openzeppelin-contracts/blob/master/contracts/access/Ownable.sol\":1248:1253  owner */\n      tag_56\n        /* \"https://github.com/OpenZeppelin/openzeppelin-contracts/blob/master/contracts/access/Ownable.sol\":1248:1255  owner() */\n      jump\t// in\n    tag_181:\n        /* \"https://github.com/OpenZeppelin/openzeppelin-contracts/blob/master/contracts/access/Ownable.sol\":1248:1271  owner() == _msgSender() */\n      0xffffffffffffffffffffffffffffffffffffffff\n      and\n      eq\n        /* \"https://github.com/OpenZeppelin/openzeppelin-contracts/blob/master/contracts/access/Ownable.sol\":1240:1308  require(owner() == _msgSender(), \"Ownable: caller is not the owner\") */\n      tag_182\n      jumpi\n      mload(0x40)\n      0x08c379a000000000000000000000000000000000000000000000000000000000\n      dup2\n      mstore\n      0x04\n      add\n      tag_183\n      swap1\n      tag_163\n      jump\t// in\n    tag_183:\n      mload(0x40)\n      dup1\n      swap2\n      sub\n      swap1\n      revert\n    tag_182:\n        /* \"https://github.com/OpenZeppelin/openzeppelin-contracts/blob/master/contracts/access/Ownable.sol\":1732:1762  _transferOwnership(address(0)) */\n      tag_185\n        /* \"https://github.com/OpenZeppelin/openzeppelin-contracts/blob/master/contracts/access/Ownable.sol\":1759:1760  0 */\n      0x00\n        /* \"https://github.com/OpenZeppelin/openzeppelin-contracts/blob/master/contracts/access/Ownable.sol\":1732:1750  _transferOwnership */\n      tag_186\n        /* \"https://github.com/OpenZeppelin/openzeppelin-contracts/blob/master/contracts/access/Ownable.sol\":1732:1762  _transferOwnership(address(0)) */\n      jump\t// in\n    tag_185:\n        /* \"https://github.com/OpenZeppelin/openzeppelin-contracts/blob/master/contracts/access/Ownable.sol\":1668:1769  function renounceOwnership() public virtual onlyOwner {... */\n      jump\t// out\n        /* \"NFTlotto.sol\":1412:1522  function updateToken(address _newToken) external onlyOwner {\r... */\n    tag_54:\n        /* \"https://github.com/OpenZeppelin/openzeppelin-contracts/blob/master/contracts/access/Ownable.sol\":1259:1271  _msgSender() */\n      tag_188\n        /* \"https://github.com/OpenZeppelin/openzeppelin-contracts/blob/master/contracts/access/Ownable.sol\":1259:1269  _msgSender */\n      tag_159\n        /* \"https://github.com/OpenZeppelin/openzeppelin-contracts/blob/master/contracts/access/Ownable.sol\":1259:1271  _msgSender() */\n      jump\t// in\n    tag_188:\n        /* \"https://github.com/OpenZeppelin/openzeppelin-contracts/blob/master/contracts/access/Ownable.sol\":1248:1271  owner() == _msgSender() */\n      0xffffffffffffffffffffffffffffffffffffffff\n      and\n        /* \"https://github.com/OpenZeppelin/openzeppelin-contracts/blob/master/contracts/access/Ownable.sol\":1248:1255  owner() */\n      tag_189\n        /* \"https://github.com/OpenZeppelin/openzeppelin-contracts/blob/master/contracts/access/Ownable.sol\":1248:1253  owner */\n      tag_56\n        /* \"https://github.com/OpenZeppelin/openzeppelin-contracts/blob/master/contracts/access/Ownable.sol\":1248:1255  owner() */\n      jump\t// in\n    tag_189:\n        /* \"https://github.com/OpenZeppelin/openzeppelin-contracts/blob/master/contracts/access/Ownable.sol\":1248:1271  owner() == _msgSender() */\n      0xffffffffffffffffffffffffffffffffffffffff\n      and\n      eq\n        /* \"https://github.com/OpenZeppelin/openzeppelin-contracts/blob/master/contracts/access/Ownable.sol\":1240:1308  require(owner() == _msgSender(), \"Ownable: caller is not the owner\") */\n      tag_190\n      jumpi\n      mload(0x40)\n      0x08c379a000000000000000000000000000000000000000000000000000000000\n      dup2\n      mstore\n      0x04\n      add\n      tag_191\n      swap1\n      tag_163\n      jump\t// in\n    tag_191:\n      mload(0x40)\n      dup1\n      swap2\n      sub\n      swap1\n      revert\n    tag_190:\n        /* \"NFTlotto.sol\":1504:1513  _newToken */\n      dup1\n        /* \"NFTlotto.sol\":1482:1494  paymentToken */\n      0x04\n      0x00\n        /* \"NFTlotto.sol\":1482:1514  paymentToken = IERC20(_newToken) */\n      0x0100\n      exp\n      dup2\n      sload\n      dup2\n      0xffffffffffffffffffffffffffffffffffffffff\n      mul\n      not\n      and\n      swap1\n      dup4\n      0xffffffffffffffffffffffffffffffffffffffff\n      and\n      mul\n      or\n      swap1\n      sstore\n      pop\n        /* \"NFTlotto.sol\":1412:1522  function updateToken(address _newToken) external onlyOwner {\r... */\n      pop\n      jump\t// out\n        /* \"https://github.com/OpenZeppelin/openzeppelin-contracts/blob/master/contracts/access/Ownable.sol\":1036:1121  function owner() public view virtual returns (address) {... */\n    tag_56:\n        /* \"https://github.com/OpenZeppelin/openzeppelin-contracts/blob/master/contracts/access/Ownable.sol\":1082:1089  address */\n      0x00\n        /* \"https://github.com/OpenZeppelin/openzeppelin-contracts/blob/master/contracts/access/Ownable.sol\":1108:1114  _owner */\n      dup1\n      0x00\n      swap1\n      sload\n      swap1\n      0x0100\n      exp\n      swap1\n      div\n      0xffffffffffffffffffffffffffffffffffffffff\n      and\n        /* \"https://github.com/OpenZeppelin/openzeppelin-contracts/blob/master/contracts/access/Ownable.sol\":1101:1114  return _owner */\n      swap1\n      pop\n        /* \"https://github.com/OpenZeppelin/openzeppelin-contracts/blob/master/contracts/access/Ownable.sol\":1036:1121  function owner() public view virtual returns (address) {... */\n      swap1\n      jump\t// out\n        /* \"NFTlotto.sol\":3350:3470  function userEntries(address account) public view returns (uint256) {\r... */\n    tag_61:\n        /* \"NFTlotto.sol\":3409:3416  uint256 */\n      0x00\n        /* \"NFTlotto.sol\":3436:3443  acesNFT */\n      0x05\n      0x00\n      swap1\n      sload\n      swap1\n      0x0100\n      exp\n      swap1\n      div\n      0xffffffffffffffffffffffffffffffffffffffff\n      and\n        /* \"NFTlotto.sol\":3436:3453  acesNFT.balanceOf */\n      0xffffffffffffffffffffffffffffffffffffffff\n      and\n      0x70a08231\n        /* \"NFTlotto.sol\":3454:3461  account */\n      dup4\n        /* \"NFTlotto.sol\":3436:3462  acesNFT.balanceOf(account) */\n      mload(0x40)\n      dup3\n      0xffffffff\n      and\n      0xe0\n      shl\n      dup2\n      mstore\n      0x04\n      add\n      tag_195\n      swap2\n      swap1\n      tag_58\n      jump\t// in\n    tag_195:\n      0x20\n      mload(0x40)\n      dup1\n      dup4\n      sub\n      dup2\n      dup7\n      dup1\n      extcodesize\n      iszero\n      dup1\n      iszero\n      tag_196\n      jumpi\n      0x00\n      dup1\n      revert\n    tag_196:\n      pop\n      gas\n      staticcall\n      iszero\n      dup1\n      iszero\n      tag_198\n      jumpi\n      returndatasize\n      0x00\n      dup1\n      returndatacopy\n      revert(0x00, returndatasize)\n    tag_198:\n      pop\n      pop\n      pop\n      pop\n      mload(0x40)\n      returndatasize\n      not(0x1f)\n      0x1f\n      dup3\n      add\n      and\n      dup3\n      add\n      dup1\n      0x40\n      mstore\n      pop\n      dup2\n      add\n      swap1\n      tag_199\n      swap2\n      swap1\n      tag_97\n      jump\t// in\n    tag_199:\n        /* \"NFTlotto.sol\":3429:3462  return acesNFT.balanceOf(account) */\n      swap1\n      pop\n        /* \"NFTlotto.sol\":3350:3470  function userEntries(address account) public view returns (uint256) {\r... */\n      swap2\n      swap1\n      pop\n      jump\t// out\n        /* \"NFTlotto.sol\":1144:1191  mapping(uint256 => Results) public roundResults */\n    tag_66:\n      mstore(0x20, 0x06)\n      dup1\n      0x00\n      mstore\n      keccak256(0x00, 0x40)\n      0x00\n      swap2\n      pop\n      swap1\n      pop\n      dup1\n      0x00\n      add\n      sload\n      swap1\n      dup1\n      0x01\n      add\n      sload\n      swap1\n      dup1\n      0x02\n      add\n      sload\n      swap1\n      dup1\n      0x03\n      add\n      sload\n      swap1\n      dup1\n      0x04\n      add\n      0x00\n      swap1\n      sload\n      swap1\n      0x0100\n      exp\n      swap1\n      div\n      0xffffffffffffffffffffffffffffffffffffffff\n      and\n      swap1\n      pop\n      dup6\n      jump\t// out\n        /* \"NFTlotto.sol\":921:953  IERC721Enumerable public acesNFT */\n    tag_70:\n      0x05\n      0x00\n      swap1\n      sload\n      swap1\n      0x0100\n      exp\n      swap1\n      div\n      0xffffffffffffffffffffffffffffffffffffffff\n      and\n      dup2\n      jump\t// out\n        /* \"NFTlotto.sol\":3478:3975  function resultLog(uint256 startIndex, uint256 endIndex) external view returns(Results [] memory log){\r... */\n    tag_75:\n        /* \"NFTlotto.sol\":3557:3578  Results [] memory log */\n      0x60\n        /* \"NFTlotto.sol\":3606:3614  roundNum */\n      sload(0x01)\n        /* \"NFTlotto.sol\":3594:3602  endIndex */\n      dup3\n        /* \"NFTlotto.sol\":3594:3614  endIndex >= roundNum */\n      lt\n        /* \"NFTlotto.sol\":3590:3666  if (endIndex >= roundNum) {\r... */\n      tag_201\n      jumpi\n        /* \"NFTlotto.sol\":3653:3654  1 */\n      0x01\n        /* \"NFTlotto.sol\":3642:3650  roundNum */\n      dup1\n      sload\n        /* \"NFTlotto.sol\":3642:3654  roundNum - 1 */\n      tag_202\n      swap2\n      swap1\n      tag_203\n      jump\t// in\n    tag_202:\n        /* \"NFTlotto.sol\":3631:3654  endIndex = roundNum - 1 */\n      swap2\n      pop\n        /* \"NFTlotto.sol\":3590:3666  if (endIndex >= roundNum) {\r... */\n    tag_201:\n        /* \"NFTlotto.sol\":3678:3697  uint256 arrayLength */\n      0x00\n        /* \"NFTlotto.sol\":3724:3725  1 */\n      0x01\n        /* \"NFTlotto.sol\":3711:3721  startIndex */\n      dup5\n        /* \"NFTlotto.sol\":3700:3708  endIndex */\n      dup5\n        /* \"NFTlotto.sol\":3700:3721  endIndex - startIndex */\n      tag_204\n      swap2\n      swap1\n      tag_203\n      jump\t// in\n    tag_204:\n        /* \"NFTlotto.sol\":3700:3725  endIndex - startIndex + 1 */\n      tag_205\n      swap2\n      swap1\n      tag_175\n      jump\t// in\n    tag_205:\n        /* \"NFTlotto.sol\":3678:3725  uint256 arrayLength = endIndex - startIndex + 1 */\n      swap1\n      pop\n        /* \"NFTlotto.sol\":3736:3756  uint256 currentIndex */\n      0x00\n        /* \"NFTlotto.sol\":3787:3798  arrayLength */\n      dup2\n        /* \"NFTlotto.sol\":3773:3799  new Results[](arrayLength) */\n      0xffffffffffffffff\n      dup2\n      gt\n      iszero\n      tag_206\n      jumpi\n      tag_207\n      tag_130\n      jump\t// in\n    tag_207:\n    tag_206:\n      mload(0x40)\n      swap1\n      dup1\n      dup3\n      mstore\n      dup1\n      0x20\n      mul\n      0x20\n      add\n      dup3\n      add\n      0x40\n      mstore\n      dup1\n      iszero\n      tag_208\n      jumpi\n      dup2\n      0x20\n      add\n    tag_209:\n      tag_210\n      tag_211\n      jump\t// in\n    tag_210:\n      dup2\n      mstore\n      0x20\n      add\n      swap1\n      0x01\n      swap1\n      sub\n      swap1\n      dup2\n      tag_209\n      jumpi\n      swap1\n      pop\n    tag_208:\n      pop\n        /* \"NFTlotto.sol\":3767:3799  log = new Results[](arrayLength) */\n      swap3\n      pop\n        /* \"NFTlotto.sol\":3820:3829  uint256 i */\n      0x00\n        /* \"NFTlotto.sol\":3832:3842  startIndex */\n      dup6\n        /* \"NFTlotto.sol\":3820:3842  uint256 i = startIndex */\n      swap1\n      pop\n        /* \"NFTlotto.sol\":3815:3968  for (uint256 i = startIndex; i <= endIndex; i++) {\r... */\n    tag_212:\n        /* \"NFTlotto.sol\":3849:3857  endIndex */\n      dup5\n        /* \"NFTlotto.sol\":3844:3845  i */\n      dup2\n        /* \"NFTlotto.sol\":3844:3857  i <= endIndex */\n      gt\n        /* \"NFTlotto.sol\":3815:3968  for (uint256 i = startIndex; i <= endIndex; i++) {\r... */\n      tag_213\n      jumpi\n        /* \"NFTlotto.sol\":3899:3911  roundResults */\n      0x06\n        /* \"NFTlotto.sol\":3899:3927  roundResults[startIndex + i] */\n      0x00\n        /* \"NFTlotto.sol\":3925:3926  i */\n      dup3\n        /* \"NFTlotto.sol\":3912:3922  startIndex */\n      dup9\n        /* \"NFTlotto.sol\":3912:3926  startIndex + i */\n      tag_215\n      swap2\n      swap1\n      tag_175\n      jump\t// in\n    tag_215:\n        /* \"NFTlotto.sol\":3899:3927  roundResults[startIndex + i] */\n      dup2\n      mstore\n      0x20\n      add\n      swap1\n      dup2\n      mstore\n      0x20\n      add\n      0x00\n      keccak256\n        /* \"NFTlotto.sol\":3879:3927  log[currentIndex] = roundResults[startIndex + i] */\n      mload(0x40)\n      dup1\n      0xa0\n      add\n      0x40\n      mstore\n      swap1\n      dup2\n      0x00\n      dup3\n      add\n      sload\n      dup2\n      mstore\n      0x20\n      add\n      0x01\n      dup3\n      add\n      sload\n      dup2\n      mstore\n      0x20\n      add\n      0x02\n      dup3\n      add\n      sload\n      dup2\n      mstore\n      0x20\n      add\n      0x03\n      dup3\n      add\n      sload\n      dup2\n      mstore\n      0x20\n      add\n      0x04\n      dup3\n      add\n      0x00\n      swap1\n      sload\n      swap1\n      0x0100\n      exp\n      swap1\n      div\n      0xffffffffffffffffffffffffffffffffffffffff\n      and\n      0xffffffffffffffffffffffffffffffffffffffff\n      and\n      0xffffffffffffffffffffffffffffffffffffffff\n      and\n      dup2\n      mstore\n      pop\n      pop\n        /* \"NFTlotto.sol\":3879:3882  log */\n      dup5\n        /* \"NFTlotto.sol\":3883:3895  currentIndex */\n      dup4\n        /* \"NFTlotto.sol\":3879:3896  log[currentIndex] */\n      dup2\n      mload\n      dup2\n      lt\n      tag_216\n      jumpi\n      tag_217\n      tag_151\n      jump\t// in\n    tag_217:\n    tag_216:\n      0x20\n      mul\n      0x20\n      add\n      add\n        /* \"NFTlotto.sol\":3879:3927  log[currentIndex] = roundResults[startIndex + i] */\n      dup2\n      swap1\n      mstore\n      pop\n        /* \"NFTlotto.sol\":3942:3956  currentIndex++ */\n      dup2\n      dup1\n      tag_218\n      swap1\n      tag_115\n      jump\t// in\n    tag_218:\n      swap3\n      pop\n      pop\n        /* \"NFTlotto.sol\":3859:3862  i++ */\n      dup1\n      dup1\n      tag_219\n      swap1\n      tag_115\n      jump\t// in\n    tag_219:\n      swap2\n      pop\n      pop\n        /* \"NFTlotto.sol\":3815:3968  for (uint256 i = startIndex; i <= endIndex; i++) {\r... */\n      jump(tag_212)\n    tag_213:\n      pop\n        /* \"NFTlotto.sol\":3579:3975  {\r... */\n      pop\n      pop\n        /* \"NFTlotto.sol\":3478:3975  function resultLog(uint256 startIndex, uint256 endIndex) external view returns(Results [] memory log){\r... */\n      swap3\n      swap2\n      pop\n      pop\n      jump\t// out\n        /* \"https://github.com/OpenZeppelin/openzeppelin-contracts/blob/master/contracts/access/Ownable.sol\":1918:2116  function transferOwnership(address newOwner) public virtual onlyOwner {... */\n    tag_80:\n        /* \"https://github.com/OpenZeppelin/openzeppelin-contracts/blob/master/contracts/access/Ownable.sol\":1259:1271  _msgSender() */\n      tag_221\n        /* \"https://github.com/OpenZeppelin/openzeppelin-contracts/blob/master/contracts/access/Ownable.sol\":1259:1269  _msgSender */\n      tag_159\n        /* \"https://github.com/OpenZeppelin/openzeppelin-contracts/blob/master/contracts/access/Ownable.sol\":1259:1271  _msgSender() */\n      jump\t// in\n    tag_221:\n        /* \"https://github.com/OpenZeppelin/openzeppelin-contracts/blob/master/contracts/access/Ownable.sol\":1248:1271  owner() == _msgSender() */\n      0xffffffffffffffffffffffffffffffffffffffff\n      and\n        /* \"https://github.com/OpenZeppelin/openzeppelin-contracts/blob/master/contracts/access/Ownable.sol\":1248:1255  owner() */\n      tag_222\n        /* \"https://github.com/OpenZeppelin/openzeppelin-contracts/blob/master/contracts/access/Ownable.sol\":1248:1253  owner */\n      tag_56\n        /* \"https://github.com/OpenZeppelin/openzeppelin-contracts/blob/master/contracts/access/Ownable.sol\":1248:1255  owner() */\n      jump\t// in\n    tag_222:\n        /* \"https://github.com/OpenZeppelin/openzeppelin-contracts/blob/master/contracts/access/Ownable.sol\":1248:1271  owner() == _msgSender() */\n      0xffffffffffffffffffffffffffffffffffffffff\n      and\n      eq\n        /* \"https://github.com/OpenZeppelin/openzeppelin-contracts/blob/master/contracts/access/Ownable.sol\":1240:1308  require(owner() == _msgSender(), \"Ownable: caller is not the owner\") */\n      tag_223\n      jumpi\n      mload(0x40)\n      0x08c379a000000000000000000000000000000000000000000000000000000000\n      dup2\n      mstore\n      0x04\n      add\n      tag_224\n      swap1\n      tag_163\n      jump\t// in\n    tag_224:\n      mload(0x40)\n      dup1\n      swap2\n      sub\n      swap1\n      revert\n    tag_223:\n        /* \"https://github.com/OpenZeppelin/openzeppelin-contracts/blob/master/contracts/access/Ownable.sol\":2026:2027  0 */\n      0x00\n        /* \"https://github.com/OpenZeppelin/openzeppelin-contracts/blob/master/contracts/access/Ownable.sol\":2006:2028  newOwner != address(0) */\n      0xffffffffffffffffffffffffffffffffffffffff\n      and\n        /* \"https://github.com/OpenZeppelin/openzeppelin-contracts/blob/master/contracts/access/Ownable.sol\":2006:2014  newOwner */\n      dup2\n        /* \"https://github.com/OpenZeppelin/openzeppelin-contracts/blob/master/contracts/access/Ownable.sol\":2006:2028  newOwner != address(0) */\n      0xffffffffffffffffffffffffffffffffffffffff\n      and\n      eq\n      iszero\n        /* \"https://github.com/OpenZeppelin/openzeppelin-contracts/blob/master/contracts/access/Ownable.sol\":1998:2071  require(newOwner != address(0), \"Ownable: new owner is the zero address\") */\n      tag_226\n      jumpi\n      mload(0x40)\n      0x08c379a000000000000000000000000000000000000000000000000000000000\n      dup2\n      mstore\n      0x04\n      add\n      tag_227\n      swap1\n      tag_228\n      jump\t// in\n    tag_227:\n      mload(0x40)\n      dup1\n      swap2\n      sub\n      swap1\n      revert\n    tag_226:\n        /* \"https://github.com/OpenZeppelin/openzeppelin-contracts/blob/master/contracts/access/Ownable.sol\":2081:2109  _transferOwnership(newOwner) */\n      tag_229\n        /* \"https://github.com/OpenZeppelin/openzeppelin-contracts/blob/master/contracts/access/Ownable.sol\":2100:2108  newOwner */\n      dup2\n        /* \"https://github.com/OpenZeppelin/openzeppelin-contracts/blob/master/contracts/access/Ownable.sol\":2081:2099  _transferOwnership */\n      tag_186\n        /* \"https://github.com/OpenZeppelin/openzeppelin-contracts/blob/master/contracts/access/Ownable.sol\":2081:2109  _transferOwnership(newOwner) */\n      jump\t// in\n    tag_229:\n        /* \"https://github.com/OpenZeppelin/openzeppelin-contracts/blob/master/contracts/access/Ownable.sol\":1918:2116  function transferOwnership(address newOwner) public virtual onlyOwner {... */\n      pop\n      jump\t// out\n        /* \"NFTlotto.sol\":2544:2814  function pickWinner(uint256 seed) external view returns(uint256 winnerNum, address winnerAddress) {\r... */\n    tag_83:\n        /* \"NFTlotto.sol\":2600:2617  uint256 winnerNum */\n      0x00\n        /* \"NFTlotto.sol\":2619:2640  address winnerAddress */\n      dup1\n        /* \"NFTlotto.sol\":2653:2673  uint256 roundEntries */\n      0x00\n        /* \"NFTlotto.sol\":2676:2683  acesNFT */\n      0x05\n      0x00\n      swap1\n      sload\n      swap1\n      0x0100\n      exp\n      swap1\n      div\n      0xffffffffffffffffffffffffffffffffffffffff\n      and\n        /* \"NFTlotto.sol\":2676:2695  acesNFT.totalSupply */\n      0xffffffffffffffffffffffffffffffffffffffff\n      and\n      0x18160ddd\n        /* \"NFTlotto.sol\":2676:2697  acesNFT.totalSupply() */\n      mload(0x40)\n      dup2\n      0xffffffff\n      and\n      0xe0\n      shl\n      dup2\n      mstore\n      0x04\n      add\n      0x20\n      mload(0x40)\n      dup1\n      dup4\n      sub\n      dup2\n      dup7\n      dup1\n      extcodesize\n      iszero\n      dup1\n      iszero\n      tag_231\n      jumpi\n      0x00\n      dup1\n      revert\n    tag_231:\n      pop\n      gas\n      staticcall\n      iszero\n      dup1\n      iszero\n      tag_233\n      jumpi\n      returndatasize\n      0x00\n      dup1\n      returndatacopy\n      revert(0x00, returndatasize)\n    tag_233:\n      pop\n      pop\n      pop\n      pop\n      mload(0x40)\n      returndatasize\n      not(0x1f)\n      0x1f\n      dup3\n      add\n      and\n      dup3\n      add\n      dup1\n      0x40\n      mstore\n      pop\n      dup2\n      add\n      swap1\n      tag_234\n      swap2\n      swap1\n      tag_97\n      jump\t// in\n    tag_234:\n        /* \"NFTlotto.sol\":2653:2697  uint256 roundEntries = acesNFT.totalSupply() */\n      swap1\n      pop\n        /* \"NFTlotto.sol\":2752:2753  1 */\n      0x01\n        /* \"NFTlotto.sol\":2736:2748  roundEntries */\n      dup2\n        /* \"NFTlotto.sol\":2721:2733  random(seed) */\n      tag_235\n        /* \"NFTlotto.sol\":2728:2732  seed */\n      dup7\n        /* \"NFTlotto.sol\":2721:2727  random */\n      tag_236\n        /* \"NFTlotto.sol\":2721:2733  random(seed) */\n      jump\t// in\n    tag_235:\n        /* \"NFTlotto.sol\":2721:2748  random(seed) % roundEntries */\n      tag_237\n      swap2\n      swap1\n      tag_238\n      jump\t// in\n    tag_237:\n        /* \"NFTlotto.sol\":2720:2753  (random(seed) % roundEntries) + 1 */\n      tag_239\n      swap2\n      swap1\n      tag_175\n      jump\t// in\n    tag_239:\n        /* \"NFTlotto.sol\":2708:2753  winnerNum = (random(seed) % roundEntries) + 1 */\n      swap3\n      pop\n        /* \"NFTlotto.sol\":2780:2787  acesNFT */\n      0x05\n      0x00\n      swap1\n      sload\n      swap1\n      0x0100\n      exp\n      swap1\n      div\n      0xffffffffffffffffffffffffffffffffffffffff\n      and\n        /* \"NFTlotto.sol\":2780:2795  acesNFT.ownerOf */\n      0xffffffffffffffffffffffffffffffffffffffff\n      and\n      0x6352211e\n        /* \"NFTlotto.sol\":2796:2805  winnerNum */\n      dup5\n        /* \"NFTlotto.sol\":2780:2806  acesNFT.ownerOf(winnerNum) */\n      mload(0x40)\n      dup3\n      0xffffffff\n      and\n      0xe0\n      shl\n      dup2\n      mstore\n      0x04\n      add\n      tag_240\n      swap2\n      swap1\n      tag_27\n      jump\t// in\n    tag_240:\n      0x20\n      mload(0x40)\n      dup1\n      dup4\n      sub\n      dup2\n      dup7\n      dup1\n      extcodesize\n      iszero\n      dup1\n      iszero\n      tag_241\n      jumpi\n      0x00\n      dup1\n      revert\n    tag_241:\n      pop\n      gas\n      staticcall\n      iszero\n      dup1\n      iszero\n      tag_243\n      jumpi\n      returndatasize\n      0x00\n      dup1\n      returndatacopy\n      revert(0x00, returndatasize)\n    tag_243:\n      pop\n      pop\n      pop\n      pop\n      mload(0x40)\n      returndatasize\n      not(0x1f)\n      0x1f\n      dup3\n      add\n      and\n      dup3\n      add\n      dup1\n      0x40\n      mstore\n      pop\n      dup2\n      add\n      swap1\n      tag_244\n      swap2\n      swap1\n      tag_106\n      jump\t// in\n    tag_244:\n        /* \"NFTlotto.sol\":2764:2806  winnerAddress = acesNFT.ownerOf(winnerNum) */\n      swap2\n      pop\n        /* \"NFTlotto.sol\":2642:2814  {\r... */\n      pop\n        /* \"NFTlotto.sol\":2544:2814  function pickWinner(uint256 seed) external view returns(uint256 winnerNum, address winnerAddress) {\r... */\n      swap2\n      pop\n      swap2\n      jump\t// out\n        /* \"NFTlotto.sol\":1530:1640  function updateJackpot(uint256 _newJackpot) external onlyOwner {\r... */\n    tag_88:\n        /* \"https://github.com/OpenZeppelin/openzeppelin-contracts/blob/master/contracts/access/Ownable.sol\":1259:1271  _msgSender() */\n      tag_246\n        /* \"https://github.com/OpenZeppelin/openzeppelin-contracts/blob/master/contracts/access/Ownable.sol\":1259:1269  _msgSender */\n      tag_159\n        /* \"https://github.com/OpenZeppelin/openzeppelin-contracts/blob/master/contracts/access/Ownable.sol\":1259:1271  _msgSender() */\n      jump\t// in\n    tag_246:\n        /* \"https://github.com/OpenZeppelin/openzeppelin-contracts/blob/master/contracts/access/Ownable.sol\":1248:1271  owner() == _msgSender() */\n      0xffffffffffffffffffffffffffffffffffffffff\n      and\n        /* \"https://github.com/OpenZeppelin/openzeppelin-contracts/blob/master/contracts/access/Ownable.sol\":1248:1255  owner() */\n      tag_247\n        /* \"https://github.com/OpenZeppelin/openzeppelin-contracts/blob/master/contracts/access/Ownable.sol\":1248:1253  owner */\n      tag_56\n        /* \"https://github.com/OpenZeppelin/openzeppelin-contracts/blob/master/contracts/access/Ownable.sol\":1248:1255  owner() */\n      jump\t// in\n    tag_247:\n        /* \"https://github.com/OpenZeppelin/openzeppelin-contracts/blob/master/contracts/access/Ownable.sol\":1248:1271  owner() == _msgSender() */\n      0xffffffffffffffffffffffffffffffffffffffff\n      and\n      eq\n        /* \"https://github.com/OpenZeppelin/openzeppelin-contracts/blob/master/contracts/access/Ownable.sol\":1240:1308  require(owner() == _msgSender(), \"Ownable: caller is not the owner\") */\n      tag_248\n      jumpi\n      mload(0x40)\n      0x08c379a000000000000000000000000000000000000000000000000000000000\n      dup2\n      mstore\n      0x04\n      add\n      tag_249\n      swap1\n      tag_163\n      jump\t// in\n    tag_249:\n      mload(0x40)\n      dup1\n      swap2\n      sub\n      swap1\n      revert\n    tag_248:\n        /* \"NFTlotto.sol\":1621:1632  _newJackpot */\n      dup1\n        /* \"NFTlotto.sol\":1604:1618  currentJackpot */\n      0x03\n        /* \"NFTlotto.sol\":1604:1632  currentJackpot = _newJackpot */\n      dup2\n      swap1\n      sstore\n      pop\n        /* \"NFTlotto.sol\":1530:1640  function updateJackpot(uint256 _newJackpot) external onlyOwner {\r... */\n      pop\n      jump\t// out\n        /* \"NFTlotto.sol\":836:875  uint256 public currentJackpot = 1 ether */\n    tag_90:\n      sload(0x03)\n      dup2\n      jump\t// out\n        /* \"https://github.com/OpenZeppelin/openzeppelin-contracts/blob/master/contracts/utils/Context.sol\":640:736  function _msgSender() internal view virtual returns (address) {... */\n    tag_159:\n        /* \"https://github.com/OpenZeppelin/openzeppelin-contracts/blob/master/contracts/utils/Context.sol\":693:700  address */\n      0x00\n        /* \"https://github.com/OpenZeppelin/openzeppelin-contracts/blob/master/contracts/utils/Context.sol\":719:729  msg.sender */\n      caller\n        /* \"https://github.com/OpenZeppelin/openzeppelin-contracts/blob/master/contracts/utils/Context.sol\":712:729  return msg.sender */\n      swap1\n      pop\n        /* \"https://github.com/OpenZeppelin/openzeppelin-contracts/blob/master/contracts/utils/Context.sol\":640:736  function _msgSender() internal view virtual returns (address) {... */\n      swap1\n      jump\t// out\n        /* \"https://github.com/OpenZeppelin/openzeppelin-contracts/blob/master/contracts/access/Ownable.sol\":2270:2457  function _transferOwnership(address newOwner) internal virtual {... */\n    tag_186:\n        /* \"https://github.com/OpenZeppelin/openzeppelin-contracts/blob/master/contracts/access/Ownable.sol\":2343:2359  address oldOwner */\n      0x00\n        /* \"https://github.com/OpenZeppelin/openzeppelin-contracts/blob/master/contracts/access/Ownable.sol\":2362:2368  _owner */\n      dup1\n      0x00\n      swap1\n      sload\n      swap1\n      0x0100\n      exp\n      swap1\n      div\n      0xffffffffffffffffffffffffffffffffffffffff\n      and\n        /* \"https://github.com/OpenZeppelin/openzeppelin-contracts/blob/master/contracts/access/Ownable.sol\":2343:2368  address oldOwner = _owner */\n      swap1\n      pop\n        /* \"https://github.com/OpenZeppelin/openzeppelin-contracts/blob/master/contracts/access/Ownable.sol\":2387:2395  newOwner */\n      dup2\n        /* \"https://github.com/OpenZeppelin/openzeppelin-contracts/blob/master/contracts/access/Ownable.sol\":2378:2384  _owner */\n      0x00\n      dup1\n        /* \"https://github.com/OpenZeppelin/openzeppelin-contracts/blob/master/contracts/access/Ownable.sol\":2378:2395  _owner = newOwner */\n      0x0100\n      exp\n      dup2\n      sload\n      dup2\n      0xffffffffffffffffffffffffffffffffffffffff\n      mul\n      not\n      and\n      swap1\n      dup4\n      0xffffffffffffffffffffffffffffffffffffffff\n      and\n      mul\n      or\n      swap1\n      sstore\n      pop\n        /* \"https://github.com/OpenZeppelin/openzeppelin-contracts/blob/master/contracts/access/Ownable.sol\":2441:2449  newOwner */\n      dup2\n        /* \"https://github.com/OpenZeppelin/openzeppelin-contracts/blob/master/contracts/access/Ownable.sol\":2410:2450  OwnershipTransferred(oldOwner, newOwner) */\n      0xffffffffffffffffffffffffffffffffffffffff\n      and\n        /* \"https://github.com/OpenZeppelin/openzeppelin-contracts/blob/master/contracts/access/Ownable.sol\":2431:2439  oldOwner */\n      dup2\n        /* \"https://github.com/OpenZeppelin/openzeppelin-contracts/blob/master/contracts/access/Ownable.sol\":2410:2450  OwnershipTransferred(oldOwner, newOwner) */\n      0xffffffffffffffffffffffffffffffffffffffff\n      and\n      0x8be0079c531659141344cd1fd0a4f28419497f9722a3daafe3b4186f6b6457e0\n      mload(0x40)\n      mload(0x40)\n      dup1\n      swap2\n      sub\n      swap1\n      log3\n        /* \"https://github.com/OpenZeppelin/openzeppelin-contracts/blob/master/contracts/access/Ownable.sol\":2333:2457  {... */\n      pop\n        /* \"https://github.com/OpenZeppelin/openzeppelin-contracts/blob/master/contracts/access/Ownable.sol\":2270:2457  function _transferOwnership(address newOwner) internal virtual {... */\n      pop\n      jump\t// out\n        /* \"NFTlotto.sol\":5121:5499  function random(uint256 seed) internal view returns (uint256) {\r... */\n    tag_236:\n        /* \"NFTlotto.sol\":5174:5181  uint256 */\n      0x00\n        /* \"NFTlotto.sol\":5315:5319  seed */\n      dup2\n        /* \"NFTlotto.sol\":5346:5361  block.timestamp */\n      timestamp\n        /* \"NFTlotto.sol\":5388:5397  gasleft() */\n      gas\n        /* \"NFTlotto.sol\":5424:5434  msg.sender */\n      caller\n        /* \"NFTlotto.sol\":5272:5457  abi.encodePacked(\r... */\n      add(0x20, mload(0x40))\n      tag_254\n      swap5\n      swap4\n      swap3\n      swap2\n      swap1\n      tag_255\n      jump\t// in\n    tag_254:\n      mload(0x40)\n      0x20\n      dup2\n      dup4\n      sub\n      sub\n      dup2\n      mstore\n      swap1\n      0x40\n      mstore\n        /* \"NFTlotto.sol\":5240:5476  keccak256(\r... */\n      dup1\n      mload\n      swap1\n      0x20\n      add\n      keccak256\n        /* \"NFTlotto.sol\":5214:5491  uint256(\r... */\n      0x00\n      shr\n        /* \"NFTlotto.sol\":5194:5491  return\r... */\n      swap1\n      pop\n        /* \"NFTlotto.sol\":5121:5499  function random(uint256 seed) internal view returns (uint256) {\r... */\n      swap2\n      swap1\n      pop\n      jump\t// out\n    tag_211:\n      mload(0x40)\n      dup1\n      0xa0\n      add\n      0x40\n      mstore\n      dup1\n      0x00\n      dup2\n      mstore\n      0x20\n      add\n      0x00\n      dup2\n      mstore\n      0x20\n      add\n      0x00\n      dup2\n      mstore\n      0x20\n      add\n      0x00\n      dup2\n      mstore\n      0x20\n      add\n      and(0xffffffffffffffffffffffffffffffffffffffff, 0x00)\n      dup2\n      mstore\n      pop\n      swap1\n      jump\t// out\n        /* \"#utility.yul\":7:146   */\n    tag_257:\n        /* \"#utility.yul\":53:58   */\n      0x00\n        /* \"#utility.yul\":91:97   */\n      dup2\n        /* \"#utility.yul\":78:98   */\n      calldataload\n        /* \"#utility.yul\":69:98   */\n      swap1\n      pop\n        /* \"#utility.yul\":107:140   */\n      tag_259\n        /* \"#utility.yul\":134:139   */\n      dup2\n        /* \"#utility.yul\":107:140   */\n      tag_260\n      jump\t// in\n    tag_259:\n        /* \"#utility.yul\":7:146   */\n      swap3\n      swap2\n      pop\n      pop\n      jump\t// out\n        /* \"#utility.yul\":152:295   */\n    tag_261:\n        /* \"#utility.yul\":209:214   */\n      0x00\n        /* \"#utility.yul\":240:246   */\n      dup2\n        /* \"#utility.yul\":234:247   */\n      mload\n        /* \"#utility.yul\":225:247   */\n      swap1\n      pop\n        /* \"#utility.yul\":256:289   */\n      tag_263\n        /* \"#utility.yul\":283:288   */\n      dup2\n        /* \"#utility.yul\":256:289   */\n      tag_260\n      jump\t// in\n    tag_263:\n        /* \"#utility.yul\":152:295   */\n      swap3\n      swap2\n      pop\n      pop\n      jump\t// out\n        /* \"#utility.yul\":301:440   */\n    tag_264:\n        /* \"#utility.yul\":347:352   */\n      0x00\n        /* \"#utility.yul\":385:391   */\n      dup2\n        /* \"#utility.yul\":372:392   */\n      calldataload\n        /* \"#utility.yul\":363:392   */\n      swap1\n      pop\n        /* \"#utility.yul\":401:434   */\n      tag_266\n        /* \"#utility.yul\":428:433   */\n      dup2\n        /* \"#utility.yul\":401:434   */\n      tag_267\n      jump\t// in\n    tag_266:\n        /* \"#utility.yul\":301:440   */\n      swap3\n      swap2\n      pop\n      pop\n      jump\t// out\n        /* \"#utility.yul\":446:589   */\n    tag_268:\n        /* \"#utility.yul\":503:508   */\n      0x00\n        /* \"#utility.yul\":534:540   */\n      dup2\n        /* \"#utility.yul\":528:541   */\n      mload\n        /* \"#utility.yul\":519:541   */\n      swap1\n      pop\n        /* \"#utility.yul\":550:583   */\n      tag_270\n        /* \"#utility.yul\":577:582   */\n      dup2\n        /* \"#utility.yul\":550:583   */\n      tag_267\n      jump\t// in\n    tag_270:\n        /* \"#utility.yul\":446:589   */\n      swap3\n      swap2\n      pop\n      pop\n      jump\t// out\n        /* \"#utility.yul\":595:924   */\n    tag_53:\n        /* \"#utility.yul\":654:660   */\n      0x00\n        /* \"#utility.yul\":703:705   */\n      0x20\n        /* \"#utility.yul\":691:700   */\n      dup3\n        /* \"#utility.yul\":682:689   */\n      dup5\n        /* \"#utility.yul\":678:701   */\n      sub\n        /* \"#utility.yul\":674:706   */\n      slt\n        /* \"#utility.yul\":671:790   */\n      iszero\n      tag_272\n      jumpi\n        /* \"#utility.yul\":709:788   */\n      tag_273\n      tag_274\n      jump\t// in\n    tag_273:\n        /* \"#utility.yul\":671:790   */\n    tag_272:\n        /* \"#utility.yul\":829:830   */\n      0x00\n        /* \"#utility.yul\":854:907   */\n      tag_275\n        /* \"#utility.yul\":899:906   */\n      dup5\n        /* \"#utility.yul\":890:896   */\n      dup3\n        /* \"#utility.yul\":879:888   */\n      dup6\n        /* \"#utility.yul\":875:897   */\n      add\n        /* \"#utility.yul\":854:907   */\n      tag_257\n      jump\t// in\n    tag_275:\n        /* \"#utility.yul\":844:907   */\n      swap2\n      pop\n        /* \"#utility.yul\":800:917   */\n      pop\n        /* \"#utility.yul\":595:924   */\n      swap3\n      swap2\n      pop\n      pop\n      jump\t// out\n        /* \"#utility.yul\":930:1281   */\n    tag_106:\n        /* \"#utility.yul\":1000:1006   */\n      0x00\n        /* \"#utility.yul\":1049:1051   */\n      0x20\n        /* \"#utility.yul\":1037:1046   */\n      dup3\n        /* \"#utility.yul\":1028:1035   */\n      dup5\n        /* \"#utility.yul\":1024:1047   */\n      sub\n        /* \"#utility.yul\":1020:1052   */\n      slt\n        /* \"#utility.yul\":1017:1136   */\n      iszero\n      tag_277\n      jumpi\n        /* \"#utility.yul\":1055:1134   */\n      tag_278\n      tag_274\n      jump\t// in\n    tag_278:\n        /* \"#utility.yul\":1017:1136   */\n    tag_277:\n        /* \"#utility.yul\":1175:1176   */\n      0x00\n        /* \"#utility.yul\":1200:1264   */\n      tag_279\n        /* \"#utility.yul\":1256:1263   */\n      dup5\n        /* \"#utility.yul\":1247:1253   */\n      dup3\n        /* \"#utility.yul\":1236:1245   */\n      dup6\n        /* \"#utility.yul\":1232:1254   */\n      add\n        /* \"#utility.yul\":1200:1264   */\n      tag_261\n      jump\t// in\n    tag_279:\n        /* \"#utility.yul\":1190:1264   */\n      swap2\n      pop\n        /* \"#utility.yul\":1146:1274   */\n      pop\n        /* \"#utility.yul\":930:1281   */\n      swap3\n      swap2\n      pop\n      pop\n      jump\t// out\n        /* \"#utility.yul\":1287:1616   */\n    tag_65:\n        /* \"#utility.yul\":1346:1352   */\n      0x00\n        /* \"#utility.yul\":1395:1397   */\n      0x20\n        /* \"#utility.yul\":1383:1392   */\n      dup3\n        /* \"#utility.yul\":1374:1381   */\n      dup5\n        /* \"#utility.yul\":1370:1393   */\n      sub\n        /* \"#utility.yul\":1366:1398   */\n      slt\n        /* \"#utility.yul\":1363:1482   */\n      iszero\n      tag_281\n      jumpi\n        /* \"#utility.yul\":1401:1480   */\n      tag_282\n      tag_274\n      jump\t// in\n    tag_282:\n        /* \"#utility.yul\":1363:1482   */\n    tag_281:\n        /* \"#utility.yul\":1521:1522   */\n      0x00\n        /* \"#utility.yul\":1546:1599   */\n      tag_283\n        /* \"#utility.yul\":1591:1598   */\n      dup5\n        /* \"#utility.yul\":1582:1588   */\n      dup3\n        /* \"#utility.yul\":1571:1580   */\n      dup6\n        /* \"#utility.yul\":1567:1589   */\n      add\n        /* \"#utility.yul\":1546:1599   */\n      tag_264\n      jump\t// in\n    tag_283:\n        /* \"#utility.yul\":1536:1599   */\n      swap2\n      pop\n        /* \"#utility.yul\":1492:1609   */\n      pop\n        /* \"#utility.yul\":1287:1616   */\n      swap3\n      swap2\n      pop\n      pop\n      jump\t// out\n        /* \"#utility.yul\":1622:1973   */\n    tag_97:\n        /* \"#utility.yul\":1692:1698   */\n      0x00\n        /* \"#utility.yul\":1741:1743   */\n      0x20\n        /* \"#utility.yul\":1729:1738   */\n      dup3\n        /* \"#utility.yul\":1720:1727   */\n      dup5\n        /* \"#utility.yul\":1716:1739   */\n      sub\n        /* \"#utility.yul\":1712:1744   */\n      slt\n        /* \"#utility.yul\":1709:1828   */\n      iszero\n      tag_285\n      jumpi\n        /* \"#utility.yul\":1747:1826   */\n      tag_286\n      tag_274\n      jump\t// in\n    tag_286:\n        /* \"#utility.yul\":1709:1828   */\n    tag_285:\n        /* \"#utility.yul\":1867:1868   */\n      0x00\n        /* \"#utility.yul\":1892:1956   */\n      tag_287\n        /* \"#utility.yul\":1948:1955   */\n      dup5\n        /* \"#utility.yul\":1939:1945   */\n      dup3\n        /* \"#utility.yul\":1928:1937   */\n      dup6\n        /* \"#utility.yul\":1924:1946   */\n      add\n        /* \"#utility.yul\":1892:1956   */\n      tag_268\n      jump\t// in\n    tag_287:\n        /* \"#utility.yul\":1882:1956   */\n      swap2\n      pop\n        /* \"#utility.yul\":1838:1966   */\n      pop\n        /* \"#utility.yul\":1622:1973   */\n      swap3\n      swap2\n      pop\n      pop\n      jump\t// out\n        /* \"#utility.yul\":1979:2453   */\n    tag_47:\n        /* \"#utility.yul\":2047:2053   */\n      0x00\n        /* \"#utility.yul\":2055:2061   */\n      dup1\n        /* \"#utility.yul\":2104:2106   */\n      0x40\n        /* \"#utility.yul\":2092:2101   */\n      dup4\n        /* \"#utility.yul\":2083:2090   */\n      dup6\n        /* \"#utility.yul\":2079:2102   */\n      sub\n        /* \"#utility.yul\":2075:2107   */\n      slt\n        /* \"#utility.yul\":2072:2191   */\n      iszero\n      tag_289\n      jumpi\n        /* \"#utility.yul\":2110:2189   */\n      tag_290\n      tag_274\n      jump\t// in\n    tag_290:\n        /* \"#utility.yul\":2072:2191   */\n    tag_289:\n        /* \"#utility.yul\":2230:2231   */\n      0x00\n        /* \"#utility.yul\":2255:2308   */\n      tag_291\n        /* \"#utility.yul\":2300:2307   */\n      dup6\n        /* \"#utility.yul\":2291:2297   */\n      dup3\n        /* \"#utility.yul\":2280:2289   */\n      dup7\n        /* \"#utility.yul\":2276:2298   */\n      add\n        /* \"#utility.yul\":2255:2308   */\n      tag_264\n      jump\t// in\n    tag_291:\n        /* \"#utility.yul\":2245:2308   */\n      swap3\n      pop\n        /* \"#utility.yul\":2201:2318   */\n      pop\n        /* \"#utility.yul\":2357:2359   */\n      0x20\n        /* \"#utility.yul\":2383:2436   */\n      tag_292\n        /* \"#utility.yul\":2428:2435   */\n      dup6\n        /* \"#utility.yul\":2419:2425   */\n      dup3\n        /* \"#utility.yul\":2408:2417   */\n      dup7\n        /* \"#utility.yul\":2404:2426   */\n      add\n        /* \"#utility.yul\":2383:2436   */\n      tag_264\n      jump\t// in\n    tag_292:\n        /* \"#utility.yul\":2373:2436   */\n      swap2\n      pop\n        /* \"#utility.yul\":2328:2446   */\n      pop\n        /* \"#utility.yul\":1979:2453   */\n      swap3\n      pop\n      swap3\n      swap1\n      pop\n      jump\t// out\n        /* \"#utility.yul\":2459:2638   */\n    tag_293:\n        /* \"#utility.yul\":2528:2538   */\n      0x00\n        /* \"#utility.yul\":2549:2595   */\n      tag_295\n        /* \"#utility.yul\":2591:2594   */\n      dup4\n        /* \"#utility.yul\":2583:2589   */\n      dup4\n        /* \"#utility.yul\":2549:2595   */\n      tag_296\n      jump\t// in\n    tag_295:\n        /* \"#utility.yul\":2627:2631   */\n      0x20\n        /* \"#utility.yul\":2622:2625   */\n      dup4\n        /* \"#utility.yul\":2618:2632   */\n      add\n        /* \"#utility.yul\":2604:2632   */\n      swap1\n      pop\n        /* \"#utility.yul\":2459:2638   */\n      swap3\n      swap2\n      pop\n      pop\n      jump\t// out\n        /* \"#utility.yul\":2644:2915   */\n    tag_297:\n        /* \"#utility.yul\":2759:2769   */\n      0x00\n        /* \"#utility.yul\":2780:2872   */\n      tag_299\n        /* \"#utility.yul\":2868:2871   */\n      dup4\n        /* \"#utility.yul\":2860:2866   */\n      dup4\n        /* \"#utility.yul\":2780:2872   */\n      tag_300\n      jump\t// in\n    tag_299:\n        /* \"#utility.yul\":2904:2908   */\n      0xa0\n        /* \"#utility.yul\":2899:2902   */\n      dup4\n        /* \"#utility.yul\":2895:2909   */\n      add\n        /* \"#utility.yul\":2881:2909   */\n      swap1\n      pop\n        /* \"#utility.yul\":2644:2915   */\n      swap3\n      swap2\n      pop\n      pop\n      jump\t// out\n        /* \"#utility.yul\":2921:3100   */\n    tag_301:\n        /* \"#utility.yul\":2990:3000   */\n      0x00\n        /* \"#utility.yul\":3011:3057   */\n      tag_303\n        /* \"#utility.yul\":3053:3056   */\n      dup4\n        /* \"#utility.yul\":3045:3051   */\n      dup4\n        /* \"#utility.yul\":3011:3057   */\n      tag_304\n      jump\t// in\n    tag_303:\n        /* \"#utility.yul\":3089:3093   */\n      0x20\n        /* \"#utility.yul\":3084:3087   */\n      dup4\n        /* \"#utility.yul\":3080:3094   */\n      add\n        /* \"#utility.yul\":3066:3094   */\n      swap1\n      pop\n        /* \"#utility.yul\":2921:3100   */\n      swap3\n      swap2\n      pop\n      pop\n      jump\t// out\n        /* \"#utility.yul\":3106:3214   */\n    tag_296:\n        /* \"#utility.yul\":3183:3207   */\n      tag_306\n        /* \"#utility.yul\":3201:3206   */\n      dup2\n        /* \"#utility.yul\":3183:3207   */\n      tag_307\n      jump\t// in\n    tag_306:\n        /* \"#utility.yul\":3178:3181   */\n      dup3\n        /* \"#utility.yul\":3171:3208   */\n      mstore\n        /* \"#utility.yul\":3106:3214   */\n      pop\n      pop\n      jump\t// out\n        /* \"#utility.yul\":3220:3338   */\n    tag_308:\n        /* \"#utility.yul\":3307:3331   */\n      tag_310\n        /* \"#utility.yul\":3325:3330   */\n      dup2\n        /* \"#utility.yul\":3307:3331   */\n      tag_307\n      jump\t// in\n    tag_310:\n        /* \"#utility.yul\":3302:3305   */\n      dup3\n        /* \"#utility.yul\":3295:3332   */\n      mstore\n        /* \"#utility.yul\":3220:3338   */\n      pop\n      pop\n      jump\t// out\n        /* \"#utility.yul\":3344:3501   */\n    tag_311:\n        /* \"#utility.yul\":3449:3494   */\n      tag_313\n        /* \"#utility.yul\":3469:3493   */\n      tag_314\n        /* \"#utility.yul\":3487:3492   */\n      dup3\n        /* \"#utility.yul\":3469:3493   */\n      tag_307\n      jump\t// in\n    tag_314:\n        /* \"#utility.yul\":3449:3494   */\n      tag_315\n      jump\t// in\n    tag_313:\n        /* \"#utility.yul\":3444:3447   */\n      dup3\n        /* \"#utility.yul\":3437:3495   */\n      mstore\n        /* \"#utility.yul\":3344:3501   */\n      pop\n      pop\n      jump\t// out\n        /* \"#utility.yul\":3537:4269   */\n    tag_316:\n        /* \"#utility.yul\":3656:3659   */\n      0x00\n        /* \"#utility.yul\":3685:3739   */\n      tag_318\n        /* \"#utility.yul\":3733:3738   */\n      dup3\n        /* \"#utility.yul\":3685:3739   */\n      tag_319\n      jump\t// in\n    tag_318:\n        /* \"#utility.yul\":3755:3841   */\n      tag_320\n        /* \"#utility.yul\":3834:3840   */\n      dup2\n        /* \"#utility.yul\":3829:3832   */\n      dup6\n        /* \"#utility.yul\":3755:3841   */\n      tag_321\n      jump\t// in\n    tag_320:\n        /* \"#utility.yul\":3748:3841   */\n      swap4\n      pop\n        /* \"#utility.yul\":3865:3921   */\n      tag_322\n        /* \"#utility.yul\":3915:3920   */\n      dup4\n        /* \"#utility.yul\":3865:3921   */\n      tag_323\n      jump\t// in\n    tag_322:\n        /* \"#utility.yul\":3944:3951   */\n      dup1\n        /* \"#utility.yul\":3975:3976   */\n      0x00\n        /* \"#utility.yul\":3960:4244   */\n    tag_324:\n        /* \"#utility.yul\":3985:3991   */\n      dup4\n        /* \"#utility.yul\":3982:3983   */\n      dup2\n        /* \"#utility.yul\":3979:3992   */\n      lt\n        /* \"#utility.yul\":3960:4244   */\n      iszero\n      tag_326\n      jumpi\n        /* \"#utility.yul\":4061:4067   */\n      dup2\n        /* \"#utility.yul\":4055:4068   */\n      mload\n        /* \"#utility.yul\":4088:4151   */\n      tag_327\n        /* \"#utility.yul\":4147:4150   */\n      dup9\n        /* \"#utility.yul\":4132:4145   */\n      dup3\n        /* \"#utility.yul\":4088:4151   */\n      tag_293\n      jump\t// in\n    tag_327:\n        /* \"#utility.yul\":4081:4151   */\n      swap8\n      pop\n        /* \"#utility.yul\":4174:4234   */\n      tag_328\n        /* \"#utility.yul\":4227:4233   */\n      dup4\n        /* \"#utility.yul\":4174:4234   */\n      tag_329\n      jump\t// in\n    tag_328:\n        /* \"#utility.yul\":4164:4234   */\n      swap3\n      pop\n        /* \"#utility.yul\":4020:4244   */\n      pop\n        /* \"#utility.yul\":4007:4008   */\n      0x01\n        /* \"#utility.yul\":4004:4005   */\n      dup2\n        /* \"#utility.yul\":4000:4009   */\n      add\n        /* \"#utility.yul\":3995:4009   */\n      swap1\n      pop\n        /* \"#utility.yul\":3960:4244   */\n      jump(tag_324)\n    tag_326:\n        /* \"#utility.yul\":3964:3978   */\n      pop\n        /* \"#utility.yul\":4260:4263   */\n      dup6\n        /* \"#utility.yul\":4253:4263   */\n      swap4\n      pop\n        /* \"#utility.yul\":3661:4269   */\n      pop\n      pop\n      pop\n        /* \"#utility.yul\":3537:4269   */\n      swap3\n      swap2\n      pop\n      pop\n      jump\t// out\n        /* \"#utility.yul\":4337:5253   */\n    tag_330:\n        /* \"#utility.yul\":4502:4505   */\n      0x00\n        /* \"#utility.yul\":4531:4608   */\n      tag_332\n        /* \"#utility.yul\":4602:4607   */\n      dup3\n        /* \"#utility.yul\":4531:4608   */\n      tag_333\n      jump\t// in\n    tag_332:\n        /* \"#utility.yul\":4624:4733   */\n      tag_334\n        /* \"#utility.yul\":4726:4732   */\n      dup2\n        /* \"#utility.yul\":4721:4724   */\n      dup6\n        /* \"#utility.yul\":4624:4733   */\n      tag_335\n      jump\t// in\n    tag_334:\n        /* \"#utility.yul\":4617:4733   */\n      swap4\n      pop\n        /* \"#utility.yul\":4757:4836   */\n      tag_336\n        /* \"#utility.yul\":4830:4835   */\n      dup4\n        /* \"#utility.yul\":4757:4836   */\n      tag_337\n      jump\t// in\n    tag_336:\n        /* \"#utility.yul\":4859:4866   */\n      dup1\n        /* \"#utility.yul\":4890:4891   */\n      0x00\n        /* \"#utility.yul\":4875:5228   */\n    tag_338:\n        /* \"#utility.yul\":4900:4906   */\n      dup4\n        /* \"#utility.yul\":4897:4898   */\n      dup2\n        /* \"#utility.yul\":4894:4907   */\n      lt\n        /* \"#utility.yul\":4875:5228   */\n      iszero\n      tag_340\n      jumpi\n        /* \"#utility.yul\":4976:4982   */\n      dup2\n        /* \"#utility.yul\":4970:4983   */\n      mload\n        /* \"#utility.yul\":5003:5112   */\n      tag_341\n        /* \"#utility.yul\":5108:5111   */\n      dup9\n        /* \"#utility.yul\":5093:5106   */\n      dup3\n        /* \"#utility.yul\":5003:5112   */\n      tag_297\n      jump\t// in\n    tag_341:\n        /* \"#utility.yul\":4996:5112   */\n      swap8\n      pop\n        /* \"#utility.yul\":5135:5218   */\n      tag_342\n        /* \"#utility.yul\":5211:5217   */\n      dup4\n        /* \"#utility.yul\":5135:5218   */\n      tag_343\n      jump\t// in\n    tag_342:\n        /* \"#utility.yul\":5125:5218   */\n      swap3\n      pop\n        /* \"#utility.yul\":4935:5228   */\n      pop\n        /* \"#utility.yul\":4922:4923   */\n      0x01\n        /* \"#utility.yul\":4919:4920   */\n      dup2\n        /* \"#utility.yul\":4915:4924   */\n      add\n        /* \"#utility.yul\":4910:4924   */\n      swap1\n      pop\n        /* \"#utility.yul\":4875:5228   */\n      jump(tag_338)\n    tag_340:\n        /* \"#utility.yul\":4879:4893   */\n      pop\n        /* \"#utility.yul\":5244:5247   */\n      dup6\n        /* \"#utility.yul\":5237:5247   */\n      swap4\n      pop\n        /* \"#utility.yul\":4507:5253   */\n      pop\n      pop\n      pop\n        /* \"#utility.yul\":4337:5253   */\n      swap3\n      swap2\n      pop\n      pop\n      jump\t// out\n        /* \"#utility.yul\":5289:6021   */\n    tag_344:\n        /* \"#utility.yul\":5408:5411   */\n      0x00\n        /* \"#utility.yul\":5437:5491   */\n      tag_346\n        /* \"#utility.yul\":5485:5490   */\n      dup3\n        /* \"#utility.yul\":5437:5491   */\n      tag_347\n      jump\t// in\n    tag_346:\n        /* \"#utility.yul\":5507:5593   */\n      tag_348\n        /* \"#utility.yul\":5586:5592   */\n      dup2\n        /* \"#utility.yul\":5581:5584   */\n      dup6\n        /* \"#utility.yul\":5507:5593   */\n      tag_349\n      jump\t// in\n    tag_348:\n        /* \"#utility.yul\":5500:5593   */\n      swap4\n      pop\n        /* \"#utility.yul\":5617:5673   */\n      tag_350\n        /* \"#utility.yul\":5667:5672   */\n      dup4\n        /* \"#utility.yul\":5617:5673   */\n      tag_351\n      jump\t// in\n    tag_350:\n        /* \"#utility.yul\":5696:5703   */\n      dup1\n        /* \"#utility.yul\":5727:5728   */\n      0x00\n        /* \"#utility.yul\":5712:5996   */\n    tag_352:\n        /* \"#utility.yul\":5737:5743   */\n      dup4\n        /* \"#utility.yul\":5734:5735   */\n      dup2\n        /* \"#utility.yul\":5731:5744   */\n      lt\n        /* \"#utility.yul\":5712:5996   */\n      iszero\n      tag_354\n      jumpi\n        /* \"#utility.yul\":5813:5819   */\n      dup2\n        /* \"#utility.yul\":5807:5820   */\n      mload\n        /* \"#utility.yul\":5840:5903   */\n      tag_355\n        /* \"#utility.yul\":5899:5902   */\n      dup9\n        /* \"#utility.yul\":5884:5897   */\n      dup3\n        /* \"#utility.yul\":5840:5903   */\n      tag_301\n      jump\t// in\n    tag_355:\n        /* \"#utility.yul\":5833:5903   */\n      swap8\n      pop\n        /* \"#utility.yul\":5926:5986   */\n      tag_356\n        /* \"#utility.yul\":5979:5985   */\n      dup4\n        /* \"#utility.yul\":5926:5986   */\n      tag_357\n      jump\t// in\n    tag_356:\n        /* \"#utility.yul\":5916:5986   */\n      swap3\n      pop\n        /* \"#utility.yul\":5772:5996   */\n      pop\n        /* \"#utility.yul\":5759:5760   */\n      0x01\n        /* \"#utility.yul\":5756:5757   */\n      dup2\n        /* \"#utility.yul\":5752:5761   */\n      add\n        /* \"#utility.yul\":5747:5761   */\n      swap1\n      pop\n        /* \"#utility.yul\":5712:5996   */\n      jump(tag_352)\n    tag_354:\n        /* \"#utility.yul\":5716:5730   */\n      pop\n        /* \"#utility.yul\":6012:6015   */\n      dup6\n        /* \"#utility.yul\":6005:6015   */\n      swap4\n      pop\n        /* \"#utility.yul\":5413:6021   */\n      pop\n      pop\n      pop\n        /* \"#utility.yul\":5289:6021   */\n      swap3\n      swap2\n      pop\n      pop\n      jump\t// out\n        /* \"#utility.yul\":6027:6186   */\n    tag_358:\n        /* \"#utility.yul\":6128:6179   */\n      tag_360\n        /* \"#utility.yul\":6173:6178   */\n      dup2\n        /* \"#utility.yul\":6128:6179   */\n      tag_361\n      jump\t// in\n    tag_360:\n        /* \"#utility.yul\":6123:6126   */\n      dup3\n        /* \"#utility.yul\":6116:6180   */\n      mstore\n        /* \"#utility.yul\":6027:6186   */\n      pop\n      pop\n      jump\t// out\n        /* \"#utility.yul\":6192:6373   */\n    tag_362:\n        /* \"#utility.yul\":6304:6366   */\n      tag_364\n        /* \"#utility.yul\":6360:6365   */\n      dup2\n        /* \"#utility.yul\":6304:6366   */\n      tag_365\n      jump\t// in\n    tag_364:\n        /* \"#utility.yul\":6299:6302   */\n      dup3\n        /* \"#utility.yul\":6292:6367   */\n      mstore\n        /* \"#utility.yul\":6192:6373   */\n      pop\n      pop\n      jump\t// out\n        /* \"#utility.yul\":6379:6526   */\n    tag_366:\n        /* \"#utility.yul\":6474:6519   */\n      tag_368\n        /* \"#utility.yul\":6513:6518   */\n      dup2\n        /* \"#utility.yul\":6474:6519   */\n      tag_369\n      jump\t// in\n    tag_368:\n        /* \"#utility.yul\":6469:6472   */\n      dup3\n        /* \"#utility.yul\":6462:6520   */\n      mstore\n        /* \"#utility.yul\":6379:6526   */\n      pop\n      pop\n      jump\t// out\n        /* \"#utility.yul\":6532:6898   */\n    tag_370:\n        /* \"#utility.yul\":6674:6677   */\n      0x00\n        /* \"#utility.yul\":6695:6762   */\n      tag_372\n        /* \"#utility.yul\":6759:6761   */\n      0x26\n        /* \"#utility.yul\":6754:6757   */\n      dup4\n        /* \"#utility.yul\":6695:6762   */\n      tag_373\n      jump\t// in\n    tag_372:\n        /* \"#utility.yul\":6688:6762   */\n      swap2\n      pop\n        /* \"#utility.yul\":6771:6864   */\n      tag_374\n        /* \"#utility.yul\":6860:6863   */\n      dup3\n        /* \"#utility.yul\":6771:6864   */\n      tag_375\n      jump\t// in\n    tag_374:\n        /* \"#utility.yul\":6889:6891   */\n      0x40\n        /* \"#utility.yul\":6884:6887   */\n      dup3\n        /* \"#utility.yul\":6880:6892   */\n      add\n        /* \"#utility.yul\":6873:6892   */\n      swap1\n      pop\n        /* \"#utility.yul\":6532:6898   */\n      swap2\n      swap1\n      pop\n      jump\t// out\n        /* \"#utility.yul\":6904:7270   */\n    tag_376:\n        /* \"#utility.yul\":7046:7049   */\n      0x00\n        /* \"#utility.yul\":7067:7134   */\n      tag_378\n        /* \"#utility.yul\":7131:7133   */\n      0x20\n        /* \"#utility.yul\":7126:7129   */\n      dup4\n        /* \"#utility.yul\":7067:7134   */\n      tag_373\n      jump\t// in\n    tag_378:\n        /* \"#utility.yul\":7060:7134   */\n      swap2\n      pop\n        /* \"#utility.yul\":7143:7236   */\n      tag_379\n        /* \"#utility.yul\":7232:7235   */\n      dup3\n        /* \"#utility.yul\":7143:7236   */\n      tag_380\n      jump\t// in\n    tag_379:\n        /* \"#utility.yul\":7261:7263   */\n      0x20\n        /* \"#utility.yul\":7256:7259   */\n      dup3\n        /* \"#utility.yul\":7252:7264   */\n      add\n        /* \"#utility.yul\":7245:7264   */\n      swap1\n      pop\n        /* \"#utility.yul\":6904:7270   */\n      swap2\n      swap1\n      pop\n      jump\t// out\n        /* \"#utility.yul\":7334:8381   */\n    tag_300:\n        /* \"#utility.yul\":7467:7471   */\n      0xa0\n        /* \"#utility.yul\":7462:7465   */\n      dup3\n        /* \"#utility.yul\":7458:7472   */\n      add\n        /* \"#utility.yul\":7562:7566   */\n      0x00\n        /* \"#utility.yul\":7555:7560   */\n      dup3\n        /* \"#utility.yul\":7551:7567   */\n      add\n        /* \"#utility.yul\":7545:7568   */\n      mload\n        /* \"#utility.yul\":7581:7644   */\n      tag_382\n        /* \"#utility.yul\":7638:7642   */\n      0x00\n        /* \"#utility.yul\":7633:7636   */\n      dup6\n        /* \"#utility.yul\":7629:7643   */\n      add\n        /* \"#utility.yul\":7615:7627   */\n      dup3\n        /* \"#utility.yul\":7581:7644   */\n      tag_304\n      jump\t// in\n    tag_382:\n        /* \"#utility.yul\":7482:7654   */\n      pop\n        /* \"#utility.yul\":7745:7749   */\n      0x20\n        /* \"#utility.yul\":7738:7743   */\n      dup3\n        /* \"#utility.yul\":7734:7750   */\n      add\n        /* \"#utility.yul\":7728:7751   */\n      mload\n        /* \"#utility.yul\":7764:7827   */\n      tag_383\n        /* \"#utility.yul\":7821:7825   */\n      0x20\n        /* \"#utility.yul\":7816:7819   */\n      dup6\n        /* \"#utility.yul\":7812:7826   */\n      add\n        /* \"#utility.yul\":7798:7810   */\n      dup3\n        /* \"#utility.yul\":7764:7827   */\n      tag_304\n      jump\t// in\n    tag_383:\n        /* \"#utility.yul\":7664:7837   */\n      pop\n        /* \"#utility.yul\":7921:7925   */\n      0x40\n        /* \"#utility.yul\":7914:7919   */\n      dup3\n        /* \"#utility.yul\":7910:7926   */\n      add\n        /* \"#utility.yul\":7904:7927   */\n      mload\n        /* \"#utility.yul\":7940:8003   */\n      tag_384\n        /* \"#utility.yul\":7997:8001   */\n      0x40\n        /* \"#utility.yul\":7992:7995   */\n      dup6\n        /* \"#utility.yul\":7988:8002   */\n      add\n        /* \"#utility.yul\":7974:7986   */\n      dup3\n        /* \"#utility.yul\":7940:8003   */\n      tag_304\n      jump\t// in\n    tag_384:\n        /* \"#utility.yul\":7847:8013   */\n      pop\n        /* \"#utility.yul\":8098:8102   */\n      0x60\n        /* \"#utility.yul\":8091:8096   */\n      dup3\n        /* \"#utility.yul\":8087:8103   */\n      add\n        /* \"#utility.yul\":8081:8104   */\n      mload\n        /* \"#utility.yul\":8117:8180   */\n      tag_385\n        /* \"#utility.yul\":8174:8178   */\n      0x60\n        /* \"#utility.yul\":8169:8172   */\n      dup6\n        /* \"#utility.yul\":8165:8179   */\n      add\n        /* \"#utility.yul\":8151:8163   */\n      dup3\n        /* \"#utility.yul\":8117:8180   */\n      tag_304\n      jump\t// in\n    tag_385:\n        /* \"#utility.yul\":8023:8190   */\n      pop\n        /* \"#utility.yul\":8282:8286   */\n      0x80\n        /* \"#utility.yul\":8275:8280   */\n      dup3\n        /* \"#utility.yul\":8271:8287   */\n      add\n        /* \"#utility.yul\":8265:8288   */\n      mload\n        /* \"#utility.yul\":8301:8364   */\n      tag_386\n        /* \"#utility.yul\":8358:8362   */\n      0x80\n        /* \"#utility.yul\":8353:8356   */\n      dup6\n        /* \"#utility.yul\":8349:8363   */\n      add\n        /* \"#utility.yul\":8335:8347   */\n      dup3\n        /* \"#utility.yul\":8301:8364   */\n      tag_296\n      jump\t// in\n    tag_386:\n        /* \"#utility.yul\":8200:8374   */\n      pop\n        /* \"#utility.yul\":7436:8381   */\n      pop\n        /* \"#utility.yul\":7334:8381   */\n      pop\n      pop\n      jump\t// out\n        /* \"#utility.yul\":8387:8495   */\n    tag_304:\n        /* \"#utility.yul\":8464:8488   */\n      tag_388\n        /* \"#utility.yul\":8482:8487   */\n      dup2\n        /* \"#utility.yul\":8464:8488   */\n      tag_389\n      jump\t// in\n    tag_388:\n        /* \"#utility.yul\":8459:8462   */\n      dup3\n        /* \"#utility.yul\":8452:8489   */\n      mstore\n        /* \"#utility.yul\":8387:8495   */\n      pop\n      pop\n      jump\t// out\n        /* \"#utility.yul\":8501:8619   */\n    tag_390:\n        /* \"#utility.yul\":8588:8612   */\n      tag_392\n        /* \"#utility.yul\":8606:8611   */\n      dup2\n        /* \"#utility.yul\":8588:8612   */\n      tag_389\n      jump\t// in\n    tag_392:\n        /* \"#utility.yul\":8583:8586   */\n      dup3\n        /* \"#utility.yul\":8576:8613   */\n      mstore\n        /* \"#utility.yul\":8501:8619   */\n      pop\n      pop\n      jump\t// out\n        /* \"#utility.yul\":8625:8782   */\n    tag_393:\n        /* \"#utility.yul\":8730:8775   */\n      tag_395\n        /* \"#utility.yul\":8750:8774   */\n      tag_396\n        /* \"#utility.yul\":8768:8773   */\n      dup3\n        /* \"#utility.yul\":8750:8774   */\n      tag_389\n      jump\t// in\n    tag_396:\n        /* \"#utility.yul\":8730:8775   */\n      tag_397\n      jump\t// in\n    tag_395:\n        /* \"#utility.yul\":8725:8728   */\n      dup3\n        /* \"#utility.yul\":8718:8776   */\n      mstore\n        /* \"#utility.yul\":8625:8782   */\n      pop\n      pop\n      jump\t// out\n        /* \"#utility.yul\":8788:9467   */\n    tag_255:\n        /* \"#utility.yul\":8984:8987   */\n      0x00\n        /* \"#utility.yul\":8999:9074   */\n      tag_399\n        /* \"#utility.yul\":9070:9073   */\n      dup3\n        /* \"#utility.yul\":9061:9067   */\n      dup8\n        /* \"#utility.yul\":8999:9074   */\n      tag_393\n      jump\t// in\n    tag_399:\n        /* \"#utility.yul\":9099:9101   */\n      0x20\n        /* \"#utility.yul\":9094:9097   */\n      dup3\n        /* \"#utility.yul\":9090:9102   */\n      add\n        /* \"#utility.yul\":9083:9102   */\n      swap2\n      pop\n        /* \"#utility.yul\":9112:9187   */\n      tag_400\n        /* \"#utility.yul\":9183:9186   */\n      dup3\n        /* \"#utility.yul\":9174:9180   */\n      dup7\n        /* \"#utility.yul\":9112:9187   */\n      tag_393\n      jump\t// in\n    tag_400:\n        /* \"#utility.yul\":9212:9214   */\n      0x20\n        /* \"#utility.yul\":9207:9210   */\n      dup3\n        /* \"#utility.yul\":9203:9215   */\n      add\n        /* \"#utility.yul\":9196:9215   */\n      swap2\n      pop\n        /* \"#utility.yul\":9225:9300   */\n      tag_401\n        /* \"#utility.yul\":9296:9299   */\n      dup3\n        /* \"#utility.yul\":9287:9293   */\n      dup6\n        /* \"#utility.yul\":9225:9300   */\n      tag_393\n      jump\t// in\n    tag_401:\n        /* \"#utility.yul\":9325:9327   */\n      0x20\n        /* \"#utility.yul\":9320:9323   */\n      dup3\n        /* \"#utility.yul\":9316:9328   */\n      add\n        /* \"#utility.yul\":9309:9328   */\n      swap2\n      pop\n        /* \"#utility.yul\":9338:9413   */\n      tag_402\n        /* \"#utility.yul\":9409:9412   */\n      dup3\n        /* \"#utility.yul\":9400:9406   */\n      dup5\n        /* \"#utility.yul\":9338:9413   */\n      tag_311\n      jump\t// in\n    tag_402:\n        /* \"#utility.yul\":9438:9440   */\n      0x14\n        /* \"#utility.yul\":9433:9436   */\n      dup3\n        /* \"#utility.yul\":9429:9441   */\n      add\n        /* \"#utility.yul\":9422:9441   */\n      swap2\n      pop\n        /* \"#utility.yul\":9458:9461   */\n      dup2\n        /* \"#utility.yul\":9451:9461   */\n      swap1\n      pop\n        /* \"#utility.yul\":8788:9467   */\n      swap6\n      swap5\n      pop\n      pop\n      pop\n      pop\n      pop\n      jump\t// out\n        /* \"#utility.yul\":9473:9695   */\n    tag_58:\n        /* \"#utility.yul\":9566:9570   */\n      0x00\n        /* \"#utility.yul\":9604:9606   */\n      0x20\n        /* \"#utility.yul\":9593:9602   */\n      dup3\n        /* \"#utility.yul\":9589:9607   */\n      add\n        /* \"#utility.yul\":9581:9607   */\n      swap1\n      pop\n        /* \"#utility.yul\":9617:9688   */\n      tag_404\n        /* \"#utility.yul\":9685:9686   */\n      0x00\n        /* \"#utility.yul\":9674:9683   */\n      dup4\n        /* \"#utility.yul\":9670:9687   */\n      add\n        /* \"#utility.yul\":9661:9667   */\n      dup5\n        /* \"#utility.yul\":9617:9688   */\n      tag_308\n      jump\t// in\n    tag_404:\n        /* \"#utility.yul\":9473:9695   */\n      swap3\n      swap2\n      pop\n      pop\n      jump\t// out\n        /* \"#utility.yul\":9701:10049   */\n    tag_108:\n        /* \"#utility.yul\":9830:9834   */\n      0x00\n        /* \"#utility.yul\":9868:9870   */\n      0x40\n        /* \"#utility.yul\":9857:9866   */\n      dup3\n        /* \"#utility.yul\":9853:9871   */\n      add\n        /* \"#utility.yul\":9845:9871   */\n      swap1\n      pop\n        /* \"#utility.yul\":9881:9952   */\n      tag_406\n        /* \"#utility.yul\":9949:9950   */\n      0x00\n        /* \"#utility.yul\":9938:9947   */\n      dup4\n        /* \"#utility.yul\":9934:9951   */\n      add\n        /* \"#utility.yul\":9925:9931   */\n      dup6\n        /* \"#utility.yul\":9881:9952   */\n      tag_308\n      jump\t// in\n    tag_406:\n        /* \"#utility.yul\":9962:10042   */\n      tag_407\n        /* \"#utility.yul\":10038:10040   */\n      0x20\n        /* \"#utility.yul\":10027:10036   */\n      dup4\n        /* \"#utility.yul\":10023:10041   */\n      add\n        /* \"#utility.yul\":10014:10020   */\n      dup5\n        /* \"#utility.yul\":9962:10042   */\n      tag_366\n      jump\t// in\n    tag_407:\n        /* \"#utility.yul\":9701:10049   */\n      swap4\n      swap3\n      pop\n      pop\n      pop\n      jump\t// out\n        /* \"#utility.yul\":10055:10387   */\n    tag_178:\n        /* \"#utility.yul\":10176:10180   */\n      0x00\n        /* \"#utility.yul\":10214:10216   */\n      0x40\n        /* \"#utility.yul\":10203:10212   */\n      dup3\n        /* \"#utility.yul\":10199:10217   */\n      add\n        /* \"#utility.yul\":10191:10217   */\n      swap1\n      pop\n        /* \"#utility.yul\":10227:10298   */\n      tag_409\n        /* \"#utility.yul\":10295:10296   */\n      0x00\n        /* \"#utility.yul\":10284:10293   */\n      dup4\n        /* \"#utility.yul\":10280:10297   */\n      add\n        /* \"#utility.yul\":10271:10277   */\n      dup6\n        /* \"#utility.yul\":10227:10298   */\n      tag_308\n      jump\t// in\n    tag_409:\n        /* \"#utility.yul\":10308:10380   */\n      tag_410\n        /* \"#utility.yul\":10376:10378   */\n      0x20\n        /* \"#utility.yul\":10365:10374   */\n      dup4\n        /* \"#utility.yul\":10361:10379   */\n      add\n        /* \"#utility.yul\":10352:10358   */\n      dup5\n        /* \"#utility.yul\":10308:10380   */\n      tag_390\n      jump\t// in\n    tag_410:\n        /* \"#utility.yul\":10055:10387   */\n      swap4\n      swap3\n      pop\n      pop\n      pop\n      jump\t// out\n        /* \"#utility.yul\":10393:11027   */\n    tag_41:\n        /* \"#utility.yul\":10614:10618   */\n      0x00\n        /* \"#utility.yul\":10652:10654   */\n      0x40\n        /* \"#utility.yul\":10641:10650   */\n      dup3\n        /* \"#utility.yul\":10637:10655   */\n      add\n        /* \"#utility.yul\":10629:10655   */\n      swap1\n      pop\n        /* \"#utility.yul\":10701:10710   */\n      dup2\n        /* \"#utility.yul\":10695:10699   */\n      dup2\n        /* \"#utility.yul\":10691:10711   */\n      sub\n        /* \"#utility.yul\":10687:10688   */\n      0x00\n        /* \"#utility.yul\":10676:10685   */\n      dup4\n        /* \"#utility.yul\":10672:10689   */\n      add\n        /* \"#utility.yul\":10665:10712   */\n      mstore\n        /* \"#utility.yul\":10729:10837   */\n      tag_412\n        /* \"#utility.yul\":10832:10836   */\n      dup2\n        /* \"#utility.yul\":10823:10829   */\n      dup6\n        /* \"#utility.yul\":10729:10837   */\n      tag_316\n      jump\t// in\n    tag_412:\n        /* \"#utility.yul\":10721:10837   */\n      swap1\n      pop\n        /* \"#utility.yul\":10884:10893   */\n      dup2\n        /* \"#utility.yul\":10878:10882   */\n      dup2\n        /* \"#utility.yul\":10874:10894   */\n      sub\n        /* \"#utility.yul\":10869:10871   */\n      0x20\n        /* \"#utility.yul\":10858:10867   */\n      dup4\n        /* \"#utility.yul\":10854:10872   */\n      add\n        /* \"#utility.yul\":10847:10895   */\n      mstore\n        /* \"#utility.yul\":10912:11020   */\n      tag_413\n        /* \"#utility.yul\":11015:11019   */\n      dup2\n        /* \"#utility.yul\":11006:11012   */\n      dup5\n        /* \"#utility.yul\":10912:11020   */\n      tag_344\n      jump\t// in\n    tag_413:\n        /* \"#utility.yul\":10904:11020   */\n      swap1\n      pop\n        /* \"#utility.yul\":10393:11027   */\n      swap4\n      swap3\n      pop\n      pop\n      pop\n      jump\t// out\n        /* \"#utility.yul\":11033:11498   */\n    tag_77:\n        /* \"#utility.yul\":11222:11226   */\n      0x00\n        /* \"#utility.yul\":11260:11262   */\n      0x20\n        /* \"#utility.yul\":11249:11258   */\n      dup3\n        /* \"#utility.yul\":11245:11263   */\n      add\n        /* \"#utility.yul\":11237:11263   */\n      swap1\n      pop\n        /* \"#utility.yul\":11309:11318   */\n      dup2\n        /* \"#utility.yul\":11303:11307   */\n      dup2\n        /* \"#utility.yul\":11299:11319   */\n      sub\n        /* \"#utility.yul\":11295:11296   */\n      0x00\n        /* \"#utility.yul\":11284:11293   */\n      dup4\n        /* \"#utility.yul\":11280:11297   */\n      add\n        /* \"#utility.yul\":11273:11320   */\n      mstore\n        /* \"#utility.yul\":11337:11491   */\n      tag_415\n        /* \"#utility.yul\":11486:11490   */\n      dup2\n        /* \"#utility.yul\":11477:11483   */\n      dup5\n        /* \"#utility.yul\":11337:11491   */\n      tag_330\n      jump\t// in\n    tag_415:\n        /* \"#utility.yul\":11329:11491   */\n      swap1\n      pop\n        /* \"#utility.yul\":11033:11498   */\n      swap3\n      swap2\n      pop\n      pop\n      jump\t// out\n        /* \"#utility.yul\":11504:11754   */\n    tag_37:\n        /* \"#utility.yul\":11611:11615   */\n      0x00\n        /* \"#utility.yul\":11649:11651   */\n      0x20\n        /* \"#utility.yul\":11638:11647   */\n      dup3\n        /* \"#utility.yul\":11634:11652   */\n      add\n        /* \"#utility.yul\":11626:11652   */\n      swap1\n      pop\n        /* \"#utility.yul\":11662:11747   */\n      tag_417\n        /* \"#utility.yul\":11744:11745   */\n      0x00\n        /* \"#utility.yul\":11733:11742   */\n      dup4\n        /* \"#utility.yul\":11729:11746   */\n      add\n        /* \"#utility.yul\":11720:11726   */\n      dup5\n        /* \"#utility.yul\":11662:11747   */\n      tag_358\n      jump\t// in\n    tag_417:\n        /* \"#utility.yul\":11504:11754   */\n      swap3\n      swap2\n      pop\n      pop\n      jump\t// out\n        /* \"#utility.yul\":11760:12032   */\n    tag_72:\n        /* \"#utility.yul\":11878:11882   */\n      0x00\n        /* \"#utility.yul\":11916:11918   */\n      0x20\n        /* \"#utility.yul\":11905:11914   */\n      dup3\n        /* \"#utility.yul\":11901:11919   */\n      add\n        /* \"#utility.yul\":11893:11919   */\n      swap1\n      pop\n        /* \"#utility.yul\":11929:12025   */\n      tag_419\n        /* \"#utility.yul\":12022:12023   */\n      0x00\n        /* \"#utility.yul\":12011:12020   */\n      dup4\n        /* \"#utility.yul\":12007:12024   */\n      add\n        /* \"#utility.yul\":11998:12004   */\n      dup5\n        /* \"#utility.yul\":11929:12025   */\n      tag_362\n      jump\t// in\n    tag_419:\n        /* \"#utility.yul\":11760:12032   */\n      swap3\n      swap2\n      pop\n      pop\n      jump\t// out\n        /* \"#utility.yul\":12038:12457   */\n    tag_228:\n        /* \"#utility.yul\":12204:12208   */\n      0x00\n        /* \"#utility.yul\":12242:12244   */\n      0x20\n        /* \"#utility.yul\":12231:12240   */\n      dup3\n        /* \"#utility.yul\":12227:12245   */\n      add\n        /* \"#utility.yul\":12219:12245   */\n      swap1\n      pop\n        /* \"#utility.yul\":12291:12300   */\n      dup2\n        /* \"#utility.yul\":12285:12289   */\n      dup2\n        /* \"#utility.yul\":12281:12301   */\n      sub\n        /* \"#utility.yul\":12277:12278   */\n      0x00\n        /* \"#utility.yul\":12266:12275   */\n      dup4\n        /* \"#utility.yul\":12262:12279   */\n      add\n        /* \"#utility.yul\":12255:12302   */\n      mstore\n        /* \"#utility.yul\":12319:12450   */\n      tag_421\n        /* \"#utility.yul\":12445:12449   */\n      dup2\n        /* \"#utility.yul\":12319:12450   */\n      tag_370\n      jump\t// in\n    tag_421:\n        /* \"#utility.yul\":12311:12450   */\n      swap1\n      pop\n        /* \"#utility.yul\":12038:12457   */\n      swap2\n      swap1\n      pop\n      jump\t// out\n        /* \"#utility.yul\":12463:12882   */\n    tag_163:\n        /* \"#utility.yul\":12629:12633   */\n      0x00\n        /* \"#utility.yul\":12667:12669   */\n      0x20\n        /* \"#utility.yul\":12656:12665   */\n      dup3\n        /* \"#utility.yul\":12652:12670   */\n      add\n        /* \"#utility.yul\":12644:12670   */\n      swap1\n      pop\n        /* \"#utility.yul\":12716:12725   */\n      dup2\n        /* \"#utility.yul\":12710:12714   */\n      dup2\n        /* \"#utility.yul\":12706:12726   */\n      sub\n        /* \"#utility.yul\":12702:12703   */\n      0x00\n        /* \"#utility.yul\":12691:12700   */\n      dup4\n        /* \"#utility.yul\":12687:12704   */\n      add\n        /* \"#utility.yul\":12680:12727   */\n      mstore\n        /* \"#utility.yul\":12744:12875   */\n      tag_423\n        /* \"#utility.yul\":12870:12874   */\n      dup2\n        /* \"#utility.yul\":12744:12875   */\n      tag_376\n      jump\t// in\n    tag_423:\n        /* \"#utility.yul\":12736:12875   */\n      swap1\n      pop\n        /* \"#utility.yul\":12463:12882   */\n      swap2\n      swap1\n      pop\n      jump\t// out\n        /* \"#utility.yul\":12888:13110   */\n    tag_27:\n        /* \"#utility.yul\":12981:12985   */\n      0x00\n        /* \"#utility.yul\":13019:13021   */\n      0x20\n        /* \"#utility.yul\":13008:13017   */\n      dup3\n        /* \"#utility.yul\":13004:13022   */\n      add\n        /* \"#utility.yul\":12996:13022   */\n      swap1\n      pop\n        /* \"#utility.yul\":13032:13103   */\n      tag_425\n        /* \"#utility.yul\":13100:13101   */\n      0x00\n        /* \"#utility.yul\":13089:13098   */\n      dup4\n        /* \"#utility.yul\":13085:13102   */\n      add\n        /* \"#utility.yul\":13076:13082   */\n      dup5\n        /* \"#utility.yul\":13032:13103   */\n      tag_390\n      jump\t// in\n    tag_425:\n        /* \"#utility.yul\":12888:13110   */\n      swap3\n      swap2\n      pop\n      pop\n      jump\t// out\n        /* \"#utility.yul\":13116:13448   */\n    tag_85:\n        /* \"#utility.yul\":13237:13241   */\n      0x00\n        /* \"#utility.yul\":13275:13277   */\n      0x40\n        /* \"#utility.yul\":13264:13273   */\n      dup3\n        /* \"#utility.yul\":13260:13278   */\n      add\n        /* \"#utility.yul\":13252:13278   */\n      swap1\n      pop\n        /* \"#utility.yul\":13288:13359   */\n      tag_427\n        /* \"#utility.yul\":13356:13357   */\n      0x00\n        /* \"#utility.yul\":13345:13354   */\n      dup4\n        /* \"#utility.yul\":13341:13358   */\n      add\n        /* \"#utility.yul\":13332:13338   */\n      dup6\n        /* \"#utility.yul\":13288:13359   */\n      tag_390\n      jump\t// in\n    tag_427:\n        /* \"#utility.yul\":13369:13441   */\n      tag_428\n        /* \"#utility.yul\":13437:13439   */\n      0x20\n        /* \"#utility.yul\":13426:13435   */\n      dup4\n        /* \"#utility.yul\":13422:13440   */\n      add\n        /* \"#utility.yul\":13413:13419   */\n      dup5\n        /* \"#utility.yul\":13369:13441   */\n      tag_308\n      jump\t// in\n    tag_428:\n        /* \"#utility.yul\":13116:13448   */\n      swap4\n      swap3\n      pop\n      pop\n      pop\n      jump\t// out\n        /* \"#utility.yul\":13454:14118   */\n    tag_68:\n        /* \"#utility.yul\":13659:13663   */\n      0x00\n        /* \"#utility.yul\":13697:13700   */\n      0xa0\n        /* \"#utility.yul\":13686:13695   */\n      dup3\n        /* \"#utility.yul\":13682:13701   */\n      add\n        /* \"#utility.yul\":13674:13701   */\n      swap1\n      pop\n        /* \"#utility.yul\":13711:13782   */\n      tag_430\n        /* \"#utility.yul\":13779:13780   */\n      0x00\n        /* \"#utility.yul\":13768:13777   */\n      dup4\n        /* \"#utility.yul\":13764:13781   */\n      add\n        /* \"#utility.yul\":13755:13761   */\n      dup9\n        /* \"#utility.yul\":13711:13782   */\n      tag_390\n      jump\t// in\n    tag_430:\n        /* \"#utility.yul\":13792:13864   */\n      tag_431\n        /* \"#utility.yul\":13860:13862   */\n      0x20\n        /* \"#utility.yul\":13849:13858   */\n      dup4\n        /* \"#utility.yul\":13845:13863   */\n      add\n        /* \"#utility.yul\":13836:13842   */\n      dup8\n        /* \"#utility.yul\":13792:13864   */\n      tag_390\n      jump\t// in\n    tag_431:\n        /* \"#utility.yul\":13874:13946   */\n      tag_432\n        /* \"#utility.yul\":13942:13944   */\n      0x40\n        /* \"#utility.yul\":13931:13940   */\n      dup4\n        /* \"#utility.yul\":13927:13945   */\n      add\n        /* \"#utility.yul\":13918:13924   */\n      dup7\n        /* \"#utility.yul\":13874:13946   */\n      tag_390\n      jump\t// in\n    tag_432:\n        /* \"#utility.yul\":13956:14028   */\n      tag_433\n        /* \"#utility.yul\":14024:14026   */\n      0x60\n        /* \"#utility.yul\":14013:14022   */\n      dup4\n        /* \"#utility.yul\":14009:14027   */\n      add\n        /* \"#utility.yul\":14000:14006   */\n      dup6\n        /* \"#utility.yul\":13956:14028   */\n      tag_390\n      jump\t// in\n    tag_433:\n        /* \"#utility.yul\":14038:14111   */\n      tag_434\n        /* \"#utility.yul\":14106:14109   */\n      0x80\n        /* \"#utility.yul\":14095:14104   */\n      dup4\n        /* \"#utility.yul\":14091:14110   */\n      add\n        /* \"#utility.yul\":14082:14088   */\n      dup5\n        /* \"#utility.yul\":14038:14111   */\n      tag_308\n      jump\t// in\n    tag_434:\n        /* \"#utility.yul\":13454:14118   */\n      swap7\n      swap6\n      pop\n      pop\n      pop\n      pop\n      pop\n      pop\n      jump\t// out\n        /* \"#utility.yul\":14205:14337   */\n    tag_323:\n        /* \"#utility.yul\":14272:14276   */\n      0x00\n        /* \"#utility.yul\":14295:14298   */\n      dup2\n        /* \"#utility.yul\":14287:14298   */\n      swap1\n      pop\n        /* \"#utility.yul\":14325:14329   */\n      0x20\n        /* \"#utility.yul\":14320:14323   */\n      dup3\n        /* \"#utility.yul\":14316:14330   */\n      add\n        /* \"#utility.yul\":14308:14330   */\n      swap1\n      pop\n        /* \"#utility.yul\":14205:14337   */\n      swap2\n      swap1\n      pop\n      jump\t// out\n        /* \"#utility.yul\":14343:14498   */\n    tag_337:\n        /* \"#utility.yul\":14433:14437   */\n      0x00\n        /* \"#utility.yul\":14456:14459   */\n      dup2\n        /* \"#utility.yul\":14448:14459   */\n      swap1\n      pop\n        /* \"#utility.yul\":14486:14490   */\n      0x20\n        /* \"#utility.yul\":14481:14484   */\n      dup3\n        /* \"#utility.yul\":14477:14491   */\n      add\n        /* \"#utility.yul\":14469:14491   */\n      swap1\n      pop\n        /* \"#utility.yul\":14343:14498   */\n      swap2\n      swap1\n      pop\n      jump\t// out\n        /* \"#utility.yul\":14504:14636   */\n    tag_351:\n        /* \"#utility.yul\":14571:14575   */\n      0x00\n        /* \"#utility.yul\":14594:14597   */\n      dup2\n        /* \"#utility.yul\":14586:14597   */\n      swap1\n      pop\n        /* \"#utility.yul\":14624:14628   */\n      0x20\n        /* \"#utility.yul\":14619:14622   */\n      dup3\n        /* \"#utility.yul\":14615:14629   */\n      add\n        /* \"#utility.yul\":14607:14629   */\n      swap1\n      pop\n        /* \"#utility.yul\":14504:14636   */\n      swap2\n      swap1\n      pop\n      jump\t// out\n        /* \"#utility.yul\":14642:14756   */\n    tag_319:\n        /* \"#utility.yul\":14709:14715   */\n      0x00\n        /* \"#utility.yul\":14743:14748   */\n      dup2\n        /* \"#utility.yul\":14737:14749   */\n      mload\n        /* \"#utility.yul\":14727:14749   */\n      swap1\n      pop\n        /* \"#utility.yul\":14642:14756   */\n      swap2\n      swap1\n      pop\n      jump\t// out\n        /* \"#utility.yul\":14762:14899   */\n    tag_333:\n        /* \"#utility.yul\":14852:14858   */\n      0x00\n        /* \"#utility.yul\":14886:14891   */\n      dup2\n        /* \"#utility.yul\":14880:14892   */\n      mload\n        /* \"#utility.yul\":14870:14892   */\n      swap1\n      pop\n        /* \"#utility.yul\":14762:14899   */\n      swap2\n      swap1\n      pop\n      jump\t// out\n        /* \"#utility.yul\":14905:15019   */\n    tag_347:\n        /* \"#utility.yul\":14972:14978   */\n      0x00\n        /* \"#utility.yul\":15006:15011   */\n      dup2\n        /* \"#utility.yul\":15000:15012   */\n      mload\n        /* \"#utility.yul\":14990:15012   */\n      swap1\n      pop\n        /* \"#utility.yul\":14905:15019   */\n      swap2\n      swap1\n      pop\n      jump\t// out\n        /* \"#utility.yul\":15025:15138   */\n    tag_329:\n        /* \"#utility.yul\":15095:15099   */\n      0x00\n        /* \"#utility.yul\":15127:15131   */\n      0x20\n        /* \"#utility.yul\":15122:15125   */\n      dup3\n        /* \"#utility.yul\":15118:15132   */\n      add\n        /* \"#utility.yul\":15110:15132   */\n      swap1\n      pop\n        /* \"#utility.yul\":15025:15138   */\n      swap2\n      swap1\n      pop\n      jump\t// out\n        /* \"#utility.yul\":15144:15280   */\n    tag_343:\n        /* \"#utility.yul\":15237:15241   */\n      0x00\n        /* \"#utility.yul\":15269:15273   */\n      0x20\n        /* \"#utility.yul\":15264:15267   */\n      dup3\n        /* \"#utility.yul\":15260:15274   */\n      add\n        /* \"#utility.yul\":15252:15274   */\n      swap1\n      pop\n        /* \"#utility.yul\":15144:15280   */\n      swap2\n      swap1\n      pop\n      jump\t// out\n        /* \"#utility.yul\":15286:15399   */\n    tag_357:\n        /* \"#utility.yul\":15356:15360   */\n      0x00\n        /* \"#utility.yul\":15388:15392   */\n      0x20\n        /* \"#utility.yul\":15383:15386   */\n      dup3\n        /* \"#utility.yul\":15379:15393   */\n      add\n        /* \"#utility.yul\":15371:15393   */\n      swap1\n      pop\n        /* \"#utility.yul\":15286:15399   */\n      swap2\n      swap1\n      pop\n      jump\t// out\n        /* \"#utility.yul\":15405:15589   */\n    tag_321:\n        /* \"#utility.yul\":15504:15515   */\n      0x00\n        /* \"#utility.yul\":15538:15544   */\n      dup3\n        /* \"#utility.yul\":15533:15536   */\n      dup3\n        /* \"#utility.yul\":15526:15545   */\n      mstore\n        /* \"#utility.yul\":15578:15582   */\n      0x20\n        /* \"#utility.yul\":15573:15576   */\n      dup3\n        /* \"#utility.yul\":15569:15583   */\n      add\n        /* \"#utility.yul\":15554:15583   */\n      swap1\n      pop\n        /* \"#utility.yul\":15405:15589   */\n      swap3\n      swap2\n      pop\n      pop\n      jump\t// out\n        /* \"#utility.yul\":15595:15802   */\n    tag_335:\n        /* \"#utility.yul\":15717:15728   */\n      0x00\n        /* \"#utility.yul\":15751:15757   */\n      dup3\n        /* \"#utility.yul\":15746:15749   */\n      dup3\n        /* \"#utility.yul\":15739:15758   */\n      mstore\n        /* \"#utility.yul\":15791:15795   */\n      0x20\n        /* \"#utility.yul\":15786:15789   */\n      dup3\n        /* \"#utility.yul\":15782:15796   */\n      add\n        /* \"#utility.yul\":15767:15796   */\n      swap1\n      pop\n        /* \"#utility.yul\":15595:15802   */\n      swap3\n      swap2\n      pop\n      pop\n      jump\t// out\n        /* \"#utility.yul\":15808:15992   */\n    tag_349:\n        /* \"#utility.yul\":15907:15918   */\n      0x00\n        /* \"#utility.yul\":15941:15947   */\n      dup3\n        /* \"#utility.yul\":15936:15939   */\n      dup3\n        /* \"#utility.yul\":15929:15948   */\n      mstore\n        /* \"#utility.yul\":15981:15985   */\n      0x20\n        /* \"#utility.yul\":15976:15979   */\n      dup3\n        /* \"#utility.yul\":15972:15986   */\n      add\n        /* \"#utility.yul\":15957:15986   */\n      swap1\n      pop\n        /* \"#utility.yul\":15808:15992   */\n      swap3\n      swap2\n      pop\n      pop\n      jump\t// out\n        /* \"#utility.yul\":15998:16167   */\n    tag_373:\n        /* \"#utility.yul\":16082:16093   */\n      0x00\n        /* \"#utility.yul\":16116:16122   */\n      dup3\n        /* \"#utility.yul\":16111:16114   */\n      dup3\n        /* \"#utility.yul\":16104:16123   */\n      mstore\n        /* \"#utility.yul\":16156:16160   */\n      0x20\n        /* \"#utility.yul\":16151:16154   */\n      dup3\n        /* \"#utility.yul\":16147:16161   */\n      add\n        /* \"#utility.yul\":16132:16161   */\n      swap1\n      pop\n        /* \"#utility.yul\":15998:16167   */\n      swap3\n      swap2\n      pop\n      pop\n      jump\t// out\n        /* \"#utility.yul\":16173:16478   */\n    tag_175:\n        /* \"#utility.yul\":16213:16216   */\n      0x00\n        /* \"#utility.yul\":16232:16252   */\n      tag_451\n        /* \"#utility.yul\":16250:16251   */\n      dup3\n        /* \"#utility.yul\":16232:16252   */\n      tag_389\n      jump\t// in\n    tag_451:\n        /* \"#utility.yul\":16227:16252   */\n      swap2\n      pop\n        /* \"#utility.yul\":16266:16286   */\n      tag_452\n        /* \"#utility.yul\":16284:16285   */\n      dup4\n        /* \"#utility.yul\":16266:16286   */\n      tag_389\n      jump\t// in\n    tag_452:\n        /* \"#utility.yul\":16261:16286   */\n      swap3\n      pop\n        /* \"#utility.yul\":16420:16421   */\n      dup3\n        /* \"#utility.yul\":16352:16418   */\n      0xffffffffffffffffffffffffffffffffffffffffffffffffffffffffffffffff\n        /* \"#utility.yul\":16348:16422   */\n      sub\n        /* \"#utility.yul\":16345:16346   */\n      dup3\n        /* \"#utility.yul\":16342:16423   */\n      gt\n        /* \"#utility.yul\":16339:16446   */\n      iszero\n      tag_453\n      jumpi\n        /* \"#utility.yul\":16426:16444   */\n      tag_454\n      tag_455\n      jump\t// in\n    tag_454:\n        /* \"#utility.yul\":16339:16446   */\n    tag_453:\n        /* \"#utility.yul\":16470:16471   */\n      dup3\n        /* \"#utility.yul\":16467:16468   */\n      dup3\n        /* \"#utility.yul\":16463:16472   */\n      add\n        /* \"#utility.yul\":16456:16472   */\n      swap1\n      pop\n        /* \"#utility.yul\":16173:16478   */\n      swap3\n      swap2\n      pop\n      pop\n      jump\t// out\n        /* \"#utility.yul\":16484:16675   */\n    tag_203:\n        /* \"#utility.yul\":16524:16528   */\n      0x00\n        /* \"#utility.yul\":16544:16564   */\n      tag_457\n        /* \"#utility.yul\":16562:16563   */\n      dup3\n        /* \"#utility.yul\":16544:16564   */\n      tag_389\n      jump\t// in\n    tag_457:\n        /* \"#utility.yul\":16539:16564   */\n      swap2\n      pop\n        /* \"#utility.yul\":16578:16598   */\n      tag_458\n        /* \"#utility.yul\":16596:16597   */\n      dup4\n        /* \"#utility.yul\":16578:16598   */\n      tag_389\n      jump\t// in\n    tag_458:\n        /* \"#utility.yul\":16573:16598   */\n      swap3\n      pop\n        /* \"#utility.yul\":16617:16618   */\n      dup3\n        /* \"#utility.yul\":16614:16615   */\n      dup3\n        /* \"#utility.yul\":16611:16619   */\n      lt\n        /* \"#utility.yul\":16608:16642   */\n      iszero\n      tag_459\n      jumpi\n        /* \"#utility.yul\":16622:16640   */\n      tag_460\n      tag_455\n      jump\t// in\n    tag_460:\n        /* \"#utility.yul\":16608:16642   */\n    tag_459:\n        /* \"#utility.yul\":16667:16668   */\n      dup3\n        /* \"#utility.yul\":16664:16665   */\n      dup3\n        /* \"#utility.yul\":16660:16669   */\n      sub\n        /* \"#utility.yul\":16652:16669   */\n      swap1\n      pop\n        /* \"#utility.yul\":16484:16675   */\n      swap3\n      swap2\n      pop\n      pop\n      jump\t// out\n        /* \"#utility.yul\":16681:16777   */\n    tag_307:\n        /* \"#utility.yul\":16718:16725   */\n      0x00\n        /* \"#utility.yul\":16747:16771   */\n      tag_462\n        /* \"#utility.yul\":16765:16770   */\n      dup3\n        /* \"#utility.yul\":16747:16771   */\n      tag_463\n      jump\t// in\n    tag_462:\n        /* \"#utility.yul\":16736:16771   */\n      swap1\n      pop\n        /* \"#utility.yul\":16681:16777   */\n      swap2\n      swap1\n      pop\n      jump\t// out\n        /* \"#utility.yul\":16783:16909   */\n    tag_463:\n        /* \"#utility.yul\":16820:16827   */\n      0x00\n        /* \"#utility.yul\":16860:16902   */\n      0xffffffffffffffffffffffffffffffffffffffff\n        /* \"#utility.yul\":16853:16858   */\n      dup3\n        /* \"#utility.yul\":16849:16903   */\n      and\n        /* \"#utility.yul\":16838:16903   */\n      swap1\n      pop\n        /* \"#utility.yul\":16783:16909   */\n      swap2\n      swap1\n      pop\n      jump\t// out\n        /* \"#utility.yul\":16915:16992   */\n    tag_389:\n        /* \"#utility.yul\":16952:16959   */\n      0x00\n        /* \"#utility.yul\":16981:16986   */\n      dup2\n        /* \"#utility.yul\":16970:16986   */\n      swap1\n      pop\n        /* \"#utility.yul\":16915:16992   */\n      swap2\n      swap1\n      pop\n      jump\t// out\n        /* \"#utility.yul\":16998:17138   */\n    tag_361:\n        /* \"#utility.yul\":17062:17071   */\n      0x00\n        /* \"#utility.yul\":17095:17132   */\n      tag_467\n        /* \"#utility.yul\":17126:17131   */\n      dup3\n        /* \"#utility.yul\":17095:17132   */\n      tag_468\n      jump\t// in\n    tag_467:\n        /* \"#utility.yul\":17082:17132   */\n      swap1\n      pop\n        /* \"#utility.yul\":16998:17138   */\n      swap2\n      swap1\n      pop\n      jump\t// out\n        /* \"#utility.yul\":17144:17295   */\n    tag_365:\n        /* \"#utility.yul\":17219:17228   */\n      0x00\n        /* \"#utility.yul\":17252:17289   */\n      tag_470\n        /* \"#utility.yul\":17283:17288   */\n      dup3\n        /* \"#utility.yul\":17252:17289   */\n      tag_468\n      jump\t// in\n    tag_470:\n        /* \"#utility.yul\":17239:17289   */\n      swap1\n      pop\n        /* \"#utility.yul\":17144:17295   */\n      swap2\n      swap1\n      pop\n      jump\t// out\n        /* \"#utility.yul\":17301:17422   */\n    tag_369:\n        /* \"#utility.yul\":17359:17368   */\n      0x00\n        /* \"#utility.yul\":17392:17416   */\n      tag_472\n        /* \"#utility.yul\":17410:17415   */\n      dup3\n        /* \"#utility.yul\":17392:17416   */\n      tag_389\n      jump\t// in\n    tag_472:\n        /* \"#utility.yul\":17379:17416   */\n      swap1\n      pop\n        /* \"#utility.yul\":17301:17422   */\n      swap2\n      swap1\n      pop\n      jump\t// out\n        /* \"#utility.yul\":17428:17554   */\n    tag_468:\n        /* \"#utility.yul\":17478:17487   */\n      0x00\n        /* \"#utility.yul\":17511:17548   */\n      tag_474\n        /* \"#utility.yul\":17542:17547   */\n      dup3\n        /* \"#utility.yul\":17511:17548   */\n      tag_475\n      jump\t// in\n    tag_474:\n        /* \"#utility.yul\":17498:17548   */\n      swap1\n      pop\n        /* \"#utility.yul\":17428:17554   */\n      swap2\n      swap1\n      pop\n      jump\t// out\n        /* \"#utility.yul\":17560:17673   */\n    tag_475:\n        /* \"#utility.yul\":17610:17619   */\n      0x00\n        /* \"#utility.yul\":17643:17667   */\n      tag_477\n        /* \"#utility.yul\":17661:17666   */\n      dup3\n        /* \"#utility.yul\":17643:17667   */\n      tag_463\n      jump\t// in\n    tag_477:\n        /* \"#utility.yul\":17630:17667   */\n      swap1\n      pop\n        /* \"#utility.yul\":17560:17673   */\n      swap2\n      swap1\n      pop\n      jump\t// out\n        /* \"#utility.yul\":17679:17912   */\n    tag_115:\n        /* \"#utility.yul\":17718:17721   */\n      0x00\n        /* \"#utility.yul\":17741:17765   */\n      tag_479\n        /* \"#utility.yul\":17759:17764   */\n      dup3\n        /* \"#utility.yul\":17741:17765   */\n      tag_389\n      jump\t// in\n    tag_479:\n        /* \"#utility.yul\":17732:17765   */\n      swap2\n      pop\n        /* \"#utility.yul\":17787:17853   */\n      0xffffffffffffffffffffffffffffffffffffffffffffffffffffffffffffffff\n        /* \"#utility.yul\":17780:17785   */\n      dup3\n        /* \"#utility.yul\":17777:17854   */\n      eq\n        /* \"#utility.yul\":17774:17877   */\n      iszero\n      tag_480\n      jumpi\n        /* \"#utility.yul\":17857:17875   */\n      tag_481\n      tag_455\n      jump\t// in\n    tag_481:\n        /* \"#utility.yul\":17774:17877   */\n    tag_480:\n        /* \"#utility.yul\":17904:17905   */\n      0x01\n        /* \"#utility.yul\":17897:17902   */\n      dup3\n        /* \"#utility.yul\":17893:17906   */\n      add\n        /* \"#utility.yul\":17886:17906   */\n      swap1\n      pop\n        /* \"#utility.yul\":17679:17912   */\n      swap2\n      swap1\n      pop\n      jump\t// out\n        /* \"#utility.yul\":17918:18018   */\n    tag_315:\n        /* \"#utility.yul\":17957:17964   */\n      0x00\n        /* \"#utility.yul\":17986:18012   */\n      tag_483\n        /* \"#utility.yul\":18006:18011   */\n      dup3\n        /* \"#utility.yul\":17986:18012   */\n      tag_484\n      jump\t// in\n    tag_483:\n        /* \"#utility.yul\":17975:18012   */\n      swap1\n      pop\n        /* \"#utility.yul\":17918:18018   */\n      swap2\n      swap1\n      pop\n      jump\t// out\n        /* \"#utility.yul\":18024:18118   */\n    tag_484:\n        /* \"#utility.yul\":18063:18070   */\n      0x00\n        /* \"#utility.yul\":18092:18112   */\n      tag_486\n        /* \"#utility.yul\":18106:18111   */\n      dup3\n        /* \"#utility.yul\":18092:18112   */\n      tag_487\n      jump\t// in\n    tag_486:\n        /* \"#utility.yul\":18081:18112   */\n      swap1\n      pop\n        /* \"#utility.yul\":18024:18118   */\n      swap2\n      swap1\n      pop\n      jump\t// out\n        /* \"#utility.yul\":18124:18203   */\n    tag_397:\n        /* \"#utility.yul\":18163:18170   */\n      0x00\n        /* \"#utility.yul\":18192:18197   */\n      dup2\n        /* \"#utility.yul\":18181:18197   */\n      swap1\n      pop\n        /* \"#utility.yul\":18124:18203   */\n      swap2\n      swap1\n      pop\n      jump\t// out\n        /* \"#utility.yul\":18209:18385   */\n    tag_238:\n        /* \"#utility.yul\":18241:18242   */\n      0x00\n        /* \"#utility.yul\":18258:18278   */\n      tag_490\n        /* \"#utility.yul\":18276:18277   */\n      dup3\n        /* \"#utility.yul\":18258:18278   */\n      tag_389\n      jump\t// in\n    tag_490:\n        /* \"#utility.yul\":18253:18278   */\n      swap2\n      pop\n        /* \"#utility.yul\":18292:18312   */\n      tag_491\n        /* \"#utility.yul\":18310:18311   */\n      dup4\n        /* \"#utility.yul\":18292:18312   */\n      tag_389\n      jump\t// in\n    tag_491:\n        /* \"#utility.yul\":18287:18312   */\n      swap3\n      pop\n        /* \"#utility.yul\":18331:18332   */\n      dup3\n        /* \"#utility.yul\":18321:18356   */\n      tag_492\n      jumpi\n        /* \"#utility.yul\":18336:18354   */\n      tag_493\n      tag_494\n      jump\t// in\n    tag_493:\n        /* \"#utility.yul\":18321:18356   */\n    tag_492:\n        /* \"#utility.yul\":18377:18378   */\n      dup3\n        /* \"#utility.yul\":18374:18375   */\n      dup3\n        /* \"#utility.yul\":18370:18379   */\n      mod\n        /* \"#utility.yul\":18365:18379   */\n      swap1\n      pop\n        /* \"#utility.yul\":18209:18385   */\n      swap3\n      swap2\n      pop\n      pop\n      jump\t// out\n        /* \"#utility.yul\":18391:18571   */\n    tag_455:\n        /* \"#utility.yul\":18439:18516   */\n      0x4e487b7100000000000000000000000000000000000000000000000000000000\n        /* \"#utility.yul\":18436:18437   */\n      0x00\n        /* \"#utility.yul\":18429:18517   */\n      mstore\n        /* \"#utility.yul\":18536:18540   */\n      0x11\n        /* \"#utility.yul\":18533:18534   */\n      0x04\n        /* \"#utility.yul\":18526:18541   */\n      mstore\n        /* \"#utility.yul\":18560:18564   */\n      0x24\n        /* \"#utility.yul\":18557:18558   */\n      0x00\n        /* \"#utility.yul\":18550:18565   */\n      revert\n        /* \"#utility.yul\":18577:18757   */\n    tag_494:\n        /* \"#utility.yul\":18625:18702   */\n      0x4e487b7100000000000000000000000000000000000000000000000000000000\n        /* \"#utility.yul\":18622:18623   */\n      0x00\n        /* \"#utility.yul\":18615:18703   */\n      mstore\n        /* \"#utility.yul\":18722:18726   */\n      0x12\n        /* \"#utility.yul\":18719:18720   */\n      0x04\n        /* \"#utility.yul\":18712:18727   */\n      mstore\n        /* \"#utility.yul\":18746:18750   */\n      0x24\n        /* \"#utility.yul\":18743:18744   */\n      0x00\n        /* \"#utility.yul\":18736:18751   */\n      revert\n        /* \"#utility.yul\":18763:18943   */\n    tag_151:\n        /* \"#utility.yul\":18811:18888   */\n      0x4e487b7100000000000000000000000000000000000000000000000000000000\n        /* \"#utility.yul\":18808:18809   */\n      0x00\n        /* \"#utility.yul\":18801:18889   */\n      mstore\n        /* \"#utility.yul\":18908:18912   */\n      0x32\n        /* \"#utility.yul\":18905:18906   */\n      0x04\n        /* \"#utility.yul\":18898:18913   */\n      mstore\n        /* \"#utility.yul\":18932:18936   */\n      0x24\n        /* \"#utility.yul\":18929:18930   */\n      0x00\n        /* \"#utility.yul\":18922:18937   */\n      revert\n        /* \"#utility.yul\":18949:19129   */\n    tag_130:\n        /* \"#utility.yul\":18997:19074   */\n      0x4e487b7100000000000000000000000000000000000000000000000000000000\n        /* \"#utility.yul\":18994:18995   */\n      0x00\n        /* \"#utility.yul\":18987:19075   */\n      mstore\n        /* \"#utility.yul\":19094:19098   */\n      0x41\n        /* \"#utility.yul\":19091:19092   */\n      0x04\n        /* \"#utility.yul\":19084:19099   */\n      mstore\n        /* \"#utility.yul\":19118:19122   */\n      0x24\n        /* \"#utility.yul\":19115:19116   */\n      0x00\n        /* \"#utility.yul\":19108:19123   */\n      revert\n        /* \"#utility.yul\":19258:19375   */\n    tag_274:\n        /* \"#utility.yul\":19367:19368   */\n      0x00\n        /* \"#utility.yul\":19364:19365   */\n      dup1\n        /* \"#utility.yul\":19357:19369   */\n      revert\n        /* \"#utility.yul\":19381:19475   */\n    tag_487:\n        /* \"#utility.yul\":19414:19422   */\n      0x00\n        /* \"#utility.yul\":19462:19467   */\n      dup2\n        /* \"#utility.yul\":19458:19460   */\n      0x60\n        /* \"#utility.yul\":19454:19468   */\n      shl\n        /* \"#utility.yul\":19433:19468   */\n      swap1\n      pop\n        /* \"#utility.yul\":19381:19475   */\n      swap2\n      swap1\n      pop\n      jump\t// out\n        /* \"#utility.yul\":19481:19706   */\n    tag_375:\n        /* \"#utility.yul\":19621:19655   */\n      0x4f776e61626c653a206e6577206f776e657220697320746865207a65726f2061\n        /* \"#utility.yul\":19617:19618   */\n      0x00\n        /* \"#utility.yul\":19609:19615   */\n      dup3\n        /* \"#utility.yul\":19605:19619   */\n      add\n        /* \"#utility.yul\":19598:19656   */\n      mstore\n        /* \"#utility.yul\":19690:19698   */\n      0x6464726573730000000000000000000000000000000000000000000000000000\n        /* \"#utility.yul\":19685:19687   */\n      0x20\n        /* \"#utility.yul\":19677:19683   */\n      dup3\n        /* \"#utility.yul\":19673:19688   */\n      add\n        /* \"#utility.yul\":19666:19699   */\n      mstore\n        /* \"#utility.yul\":19481:19706   */\n      pop\n      jump\t// out\n        /* \"#utility.yul\":19712:19894   */\n    tag_380:\n        /* \"#utility.yul\":19852:19886   */\n      0x4f776e61626c653a2063616c6c6572206973206e6f7420746865206f776e6572\n        /* \"#utility.yul\":19848:19849   */\n      0x00\n        /* \"#utility.yul\":19840:19846   */\n      dup3\n        /* \"#utility.yul\":19836:19850   */\n      add\n        /* \"#utility.yul\":19829:19887   */\n      mstore\n        /* \"#utility.yul\":19712:19894   */\n      pop\n      jump\t// out\n        /* \"#utility.yul\":19900:20022   */\n    tag_260:\n        /* \"#utility.yul\":19973:19997   */\n      tag_506\n        /* \"#utility.yul\":19991:19996   */\n      dup2\n        /* \"#utility.yul\":19973:19997   */\n      tag_307\n      jump\t// in\n    tag_506:\n        /* \"#utility.yul\":19966:19971   */\n      dup2\n        /* \"#utility.yul\":19963:19998   */\n      eq\n        /* \"#utility.yul\":19953:20016   */\n      tag_507\n      jumpi\n        /* \"#utility.yul\":20012:20013   */\n      0x00\n        /* \"#utility.yul\":20009:20010   */\n      dup1\n        /* \"#utility.yul\":20002:20014   */\n      revert\n        /* \"#utility.yul\":19953:20016   */\n    tag_507:\n        /* \"#utility.yul\":19900:20022   */\n      pop\n      jump\t// out\n        /* \"#utility.yul\":20028:20150   */\n    tag_267:\n        /* \"#utility.yul\":20101:20125   */\n      tag_509\n        /* \"#utility.yul\":20119:20124   */\n      dup2\n        /* \"#utility.yul\":20101:20125   */\n      tag_389\n      jump\t// in\n    tag_509:\n        /* \"#utility.yul\":20094:20099   */\n      dup2\n        /* \"#utility.yul\":20091:20126   */\n      eq\n        /* \"#utility.yul\":20081:20144   */\n      tag_510\n      jumpi\n        /* \"#utility.yul\":20140:20141   */\n      0x00\n        /* \"#utility.yul\":20137:20138   */\n      dup1\n        /* \"#utility.yul\":20130:20142   */\n      revert\n        /* \"#utility.yul\":20081:20144   */\n    tag_510:\n        /* \"#utility.yul\":20028:20150   */\n      pop\n      jump\t// out\n\n    auxdata: 0xa264697066735822122042efd2431fdadcfac25b76d1c4ae7973339d0b7a83bb889ff81fa9fdd099a8b564736f6c63430008070033\n}\n",
				"bytecode": {
					"linkReferences": {},
					"object": "6080604052670de0b6b3a76400006003553480156200001d57600080fd5b506040516200220a3803806200220a8339818101604052810190620000439190620001d0565b6200006362000057620000ed60201b60201c565b620000f560201b60201c565b81600460006101000a81548173ffffffffffffffffffffffffffffffffffffffff021916908373ffffffffffffffffffffffffffffffffffffffff16021790555080600560006101000a81548173ffffffffffffffffffffffffffffffffffffffff021916908373ffffffffffffffffffffffffffffffffffffffff16021790555050506200026a565b600033905090565b60008060009054906101000a900473ffffffffffffffffffffffffffffffffffffffff169050816000806101000a81548173ffffffffffffffffffffffffffffffffffffffff021916908373ffffffffffffffffffffffffffffffffffffffff1602179055508173ffffffffffffffffffffffffffffffffffffffff168173ffffffffffffffffffffffffffffffffffffffff167f8be0079c531659141344cd1fd0a4f28419497f9722a3daafe3b4186f6b6457e060405160405180910390a35050565b600081519050620001ca8162000250565b92915050565b60008060408385031215620001ea57620001e96200024b565b5b6000620001fa85828601620001b9565b92505060206200020d85828601620001b9565b9150509250929050565b600062000224826200022b565b9050919050565b600073ffffffffffffffffffffffffffffffffffffffff82169050919050565b600080fd5b6200025b8162000217565b81146200026757600080fd5b50565b611f90806200027a6000396000f3fe608060405234801561001057600080fd5b50600436106101165760003560e01c80638da5cb5b116100a2578063bc15cdf011610071578063bc15cdf0146102b2578063f2fde38b146102e2578063f737d21d146102fe578063f80fb76d1461032f578063f9cee0bd1461034b57610116565b80638da5cb5b146102125780639f10a99014610230578063ac128f4f14610260578063aeb183501461029457610116565b80633b98bc65116100e95780633b98bc6514610193578063454f7b8f146101b25780636fbb5a86146101d0578063715018a6146101ec5780637ad3def2146101f657610116565b8063119b22b31461011b578063158977de1461013957806317be85c3146101575780633013ce2914610175575b600080fd5b610123610369565b6040516101309190611acb565b60405180910390f35b61014161036f565b60405161014e9190611acb565b60405180910390f35b61015f6105ae565b60405161016c9190611acb565b60405180910390f35b61017d610655565b60405161018a9190611a55565b60405180910390f35b61019b61067b565b6040516101a99291906119fc565b60405180910390f35b6101ba6109d8565b6040516101c79190611acb565b60405180910390f35b6101ea60048036038101906101e5919061165a565b6109de565b005b6101f4610cdb565b005b610210600480360381019061020b91906115a6565b610d63565b005b61021a610e23565b604051610227919061198f565b60405180910390f35b61024a600480360381019061024591906115a6565b610e4c565b6040516102579190611acb565b60405180910390f35b61027a60048036038101906102759190611600565b610f00565b60405161028b959493929190611b0f565b60405180910390f35b61029c610f56565b6040516102a99190611a70565b60405180910390f35b6102cc60048036038101906102c7919061165a565b610f7c565b6040516102d99190611a33565b60405180910390f35b6102fc60048036038101906102f791906115a6565b611108565b005b61031860048036038101906103139190611600565b611200565b604051610326929190611ae6565b60405180910390f35b61034960048036038101906103449190611600565b61137c565b005b610353611402565b6040516103609190611acb565b60405180910390f35b60015481565b600080600560009054906101000a900473ffffffffffffffffffffffffffffffffffffffff1673ffffffffffffffffffffffffffffffffffffffff166318160ddd6040518163ffffffff1660e01b815260040160206040518083038186803b1580156103da57600080fd5b505afa1580156103ee573d6000803e3d6000fd5b505050506040513d601f19601f82011682018060405250810190610412919061162d565b90506000600190505b8181116105a9576000600560009054906101000a900473ffffffffffffffffffffffffffffffffffffffff1673ffffffffffffffffffffffffffffffffffffffff16636352211e836040518263ffffffff1660e01b815260040161047f9190611acb565b60206040518083038186803b15801561049757600080fd5b505afa1580156104ab573d6000803e3d6000fd5b505050506040513d601f19601f820116820180604052508101906104cf91906115d3565b9050600560009054906101000a900473ffffffffffffffffffffffffffffffffffffffff1673ffffffffffffffffffffffffffffffffffffffff16632f745c598260006040518363ffffffff1660e01b815260040161052f9291906119aa565b60206040518083038186803b15801561054757600080fd5b505afa15801561055b573d6000803e3d6000fd5b505050506040513d601f19601f8201168201806040525081019061057f919061162d565b82141561059557838061059190611d3e565b9450505b5080806105a190611d3e565b91505061041b565b505090565b6000600560009054906101000a900473ffffffffffffffffffffffffffffffffffffffff1673ffffffffffffffffffffffffffffffffffffffff166318160ddd6040518163ffffffff1660e01b815260040160206040518083038186803b15801561061857600080fd5b505afa15801561062c573d6000803e3d6000fd5b505050506040513d601f19601f82011682018060405250810190610650919061162d565b905090565b600460009054906101000a900473ffffffffffffffffffffffffffffffffffffffff1681565b6060806000600560009054906101000a900473ffffffffffffffffffffffffffffffffffffffff1673ffffffffffffffffffffffffffffffffffffffff166318160ddd6040518163ffffffff1660e01b815260040160206040518083038186803b1580156106e857600080fd5b505afa1580156106fc573d6000803e3d6000fd5b505050506040513d601f19601f82011682018060405250810190610720919061162d565b9050600061072c61036f565b90508067ffffffffffffffff81111561074857610747611e73565b5b6040519080825280602002602001820160405280156107765781602001602082028036833780820191505090505b5093508067ffffffffffffffff81111561079357610792611e73565b5b6040519080825280602002602001820160405280156107c15781602001602082028036833780820191505090505b509250600080600190505b8381116109d0576000600560009054906101000a900473ffffffffffffffffffffffffffffffffffffffff1673ffffffffffffffffffffffffffffffffffffffff16636352211e836040518263ffffffff1660e01b81526004016108309190611acb565b60206040518083038186803b15801561084857600080fd5b505afa15801561085c573d6000803e3d6000fd5b505050506040513d601f19601f8201168201806040525081019061088091906115d3565b9050600560009054906101000a900473ffffffffffffffffffffffffffffffffffffffff1673ffffffffffffffffffffffffffffffffffffffff16632f745c598260006040518363ffffffff1660e01b81526004016108e09291906119aa565b60206040518083038186803b1580156108f857600080fd5b505afa15801561090c573d6000803e3d6000fd5b505050506040513d601f19601f82011682018060405250810190610930919061162d565b8214156109bc578087848151811061094b5761094a611e44565b5b602002602001019073ffffffffffffffffffffffffffffffffffffffff16908173ffffffffffffffffffffffffffffffffffffffff168152505061098e81610e4c565b8684815181106109a1576109a0611e44565b5b60200260200101818152505082806109b890611d3e565b9350505b5080806109c890611d3e565b9150506107cc565b505050509091565b60025481565b6109e6611408565b73ffffffffffffffffffffffffffffffffffffffff16610a04610e23565b73ffffffffffffffffffffffffffffffffffffffff1614610a5a576040517f08c379a0000000000000000000000000000000000000000000000000000000008152600401610a5190611aab565b60405180910390fd5b6000600560009054906101000a900473ffffffffffffffffffffffffffffffffffffffff1673ffffffffffffffffffffffffffffffffffffffff16636352211e846040518263ffffffff1660e01b8152600401610ab79190611acb565b60206040518083038186803b158015610acf57600080fd5b505afa158015610ae3573d6000803e3d6000fd5b505050506040513d601f19601f82011682018060405250810190610b0791906115d3565b90506040518060a00160405280600560009054906101000a900473ffffffffffffffffffffffffffffffffffffffff1673ffffffffffffffffffffffffffffffffffffffff166318160ddd6040518163ffffffff1660e01b815260040160206040518083038186803b158015610b7c57600080fd5b505afa158015610b90573d6000803e3d6000fd5b505050506040513d601f19601f82011682018060405250810190610bb4919061162d565b81526020018481526020018381526020014281526020018273ffffffffffffffffffffffffffffffffffffffff168152506006600060015481526020019081526020016000206000820151816000015560208201518160010155604082015181600201556060820151816003015560808201518160040160006101000a81548173ffffffffffffffffffffffffffffffffffffffff021916908373ffffffffffffffffffffffffffffffffffffffff1602179055509050508160026000828254610c7e9190611c1e565b9250508190555060016000815480929190610c9890611d3e565b91905055507f2e798dd4337e515c79b64c40e1a93baa1aefbd9180ac7905e02508edd7971e508183604051610cce9291906119d3565b60405180910390a1505050565b610ce3611408565b73ffffffffffffffffffffffffffffffffffffffff16610d01610e23565b73ffffffffffffffffffffffffffffffffffffffff1614610d57576040517f08c379a0000000000000000000000000000000000000000000000000000000008152600401610d4e90611aab565b60405180910390fd5b610d616000611410565b565b610d6b611408565b73ffffffffffffffffffffffffffffffffffffffff16610d89610e23565b73ffffffffffffffffffffffffffffffffffffffff1614610ddf576040517f08c379a0000000000000000000000000000000000000000000000000000000008152600401610dd690611aab565b60405180910390fd5b80600460006101000a81548173ffffffffffffffffffffffffffffffffffffffff021916908373ffffffffffffffffffffffffffffffffffffffff16021790555050565b60008060009054906101000a900473ffffffffffffffffffffffffffffffffffffffff16905090565b6000600560009054906101000a900473ffffffffffffffffffffffffffffffffffffffff1673ffffffffffffffffffffffffffffffffffffffff166370a08231836040518263ffffffff1660e01b8152600401610ea9919061198f565b60206040518083038186803b158015610ec157600080fd5b505afa158015610ed5573d6000803e3d6000fd5b505050506040513d601f19601f82011682018060405250810190610ef9919061162d565b9050919050565b60066020528060005260406000206000915090508060000154908060010154908060020154908060030154908060040160009054906101000a900473ffffffffffffffffffffffffffffffffffffffff16905085565b600560009054906101000a900473ffffffffffffffffffffffffffffffffffffffff1681565b60606001548210610f985760018054610f959190611c74565b91505b600060018484610fa89190611c74565b610fb29190611c1e565b905060008167ffffffffffffffff811115610fd057610fcf611e73565b5b60405190808252806020026020018201604052801561100957816020015b610ff661150d565b815260200190600190039081610fee5790505b50925060008590505b8481116110ff576006600082886110299190611c1e565b81526020019081526020016000206040518060a0016040529081600082015481526020016001820154815260200160028201548152602001600382015481526020016004820160009054906101000a900473ffffffffffffffffffffffffffffffffffffffff1673ffffffffffffffffffffffffffffffffffffffff1673ffffffffffffffffffffffffffffffffffffffff16815250508483815181106110d3576110d2611e44565b5b602002602001018190525081806110e990611d3e565b92505080806110f790611d3e565b915050611012565b50505092915050565b611110611408565b73ffffffffffffffffffffffffffffffffffffffff1661112e610e23565b73ffffffffffffffffffffffffffffffffffffffff1614611184576040517f08c379a000000000000000000000000000000000000000000000000000000000815260040161117b90611aab565b60405180910390fd5b600073ffffffffffffffffffffffffffffffffffffffff168173ffffffffffffffffffffffffffffffffffffffff1614156111f4576040517f08c379a00000000000000000000000000000000000000000000000000000000081526004016111eb90611a8b565b60405180910390fd5b6111fd81611410565b50565b6000806000600560009054906101000a900473ffffffffffffffffffffffffffffffffffffffff1673ffffffffffffffffffffffffffffffffffffffff166318160ddd6040518163ffffffff1660e01b815260040160206040518083038186803b15801561126d57600080fd5b505afa158015611281573d6000803e3d6000fd5b505050506040513d601f19601f820116820180604052508101906112a5919061162d565b90506001816112b3866114d4565b6112bd9190611db5565b6112c79190611c1e565b9250600560009054906101000a900473ffffffffffffffffffffffffffffffffffffffff1673ffffffffffffffffffffffffffffffffffffffff16636352211e846040518263ffffffff1660e01b81526004016113249190611acb565b60206040518083038186803b15801561133c57600080fd5b505afa158015611350573d6000803e3d6000fd5b505050506040513d601f19601f8201168201806040525081019061137491906115d3565b915050915091565b611384611408565b73ffffffffffffffffffffffffffffffffffffffff166113a2610e23565b73ffffffffffffffffffffffffffffffffffffffff16146113f8576040517f08c379a00000000000000000000000000000000000000000000000000000000081526004016113ef90611aab565b60405180910390fd5b8060038190555050565b60035481565b600033905090565b60008060009054906101000a900473ffffffffffffffffffffffffffffffffffffffff169050816000806101000a81548173ffffffffffffffffffffffffffffffffffffffff021916908373ffffffffffffffffffffffffffffffffffffffff1602179055508173ffffffffffffffffffffffffffffffffffffffff168173ffffffffffffffffffffffffffffffffffffffff167f8be0079c531659141344cd1fd0a4f28419497f9722a3daafe3b4186f6b6457e060405160405180910390a35050565b600081425a336040516020016114ed9493929190611941565b6040516020818303038152906040528051906020012060001c9050919050565b6040518060a0016040528060008152602001600081526020016000815260200160008152602001600073ffffffffffffffffffffffffffffffffffffffff1681525090565b60008135905061156181611f2c565b92915050565b60008151905061157681611f2c565b92915050565b60008135905061158b81611f43565b92915050565b6000815190506115a081611f43565b92915050565b6000602082840312156115bc576115bb611ea2565b5b60006115ca84828501611552565b91505092915050565b6000602082840312156115e9576115e8611ea2565b5b60006115f784828501611567565b91505092915050565b60006020828403121561161657611615611ea2565b5b60006116248482850161157c565b91505092915050565b60006020828403121561164357611642611ea2565b5b600061165184828501611591565b91505092915050565b6000806040838503121561167157611670611ea2565b5b600061167f8582860161157c565b92505060206116908582860161157c565b9150509250929050565b60006116a683836116e2565b60208301905092915050565b60006116be83836118a4565b60a08301905092915050565b60006116d6838361190c565b60208301905092915050565b6116eb81611ca8565b82525050565b6116fa81611ca8565b82525050565b61171161170c82611ca8565b611d87565b82525050565b600061172282611b92565b61172c8185611bda565b935061173783611b62565b8060005b8381101561176857815161174f888261169a565b975061175a83611bb3565b92505060018101905061173b565b5085935050505092915050565b600061178082611b9d565b61178a8185611beb565b935061179583611b72565b8060005b838110156117c65781516117ad88826116b2565b97506117b883611bc0565b925050600181019050611799565b5085935050505092915050565b60006117de82611ba8565b6117e88185611bfc565b93506117f383611b82565b8060005b8381101561182457815161180b88826116ca565b975061181683611bcd565b9250506001810190506117f7565b5085935050505092915050565b61183a81611ce4565b82525050565b61184981611cf6565b82525050565b61185881611d08565b82525050565b600061186b602683611c0d565b915061187682611eb4565b604082019050919050565b600061188e602083611c0d565b915061189982611f03565b602082019050919050565b60a0820160008201516118ba600085018261190c565b5060208201516118cd602085018261190c565b5060408201516118e0604085018261190c565b5060608201516118f3606085018261190c565b50608082015161190660808501826116e2565b50505050565b61191581611cda565b82525050565b61192481611cda565b82525050565b61193b61193682611cda565b611dab565b82525050565b600061194d828761192a565b60208201915061195d828661192a565b60208201915061196d828561192a565b60208201915061197d8284611700565b60148201915081905095945050505050565b60006020820190506119a460008301846116f1565b92915050565b60006040820190506119bf60008301856116f1565b6119cc602083018461184f565b9392505050565b60006040820190506119e860008301856116f1565b6119f5602083018461191b565b9392505050565b60006040820190508181036000830152611a168185611717565b90508181036020830152611a2a81846117d3565b90509392505050565b60006020820190508181036000830152611a4d8184611775565b905092915050565b6000602082019050611a6a6000830184611831565b92915050565b6000602082019050611a856000830184611840565b92915050565b60006020820190508181036000830152611aa48161185e565b9050919050565b60006020820190508181036000830152611ac481611881565b9050919050565b6000602082019050611ae0600083018461191b565b92915050565b6000604082019050611afb600083018561191b565b611b0860208301846116f1565b9392505050565b600060a082019050611b24600083018861191b565b611b31602083018761191b565b611b3e604083018661191b565b611b4b606083018561191b565b611b5860808301846116f1565b9695505050505050565b6000819050602082019050919050565b6000819050602082019050919050565b6000819050602082019050919050565b600081519050919050565b600081519050919050565b600081519050919050565b6000602082019050919050565b6000602082019050919050565b6000602082019050919050565b600082825260208201905092915050565b600082825260208201905092915050565b600082825260208201905092915050565b600082825260208201905092915050565b6000611c2982611cda565b9150611c3483611cda565b9250827fffffffffffffffffffffffffffffffffffffffffffffffffffffffffffffffff03821115611c6957611c68611de6565b5b828201905092915050565b6000611c7f82611cda565b9150611c8a83611cda565b925082821015611c9d57611c9c611de6565b5b828203905092915050565b6000611cb382611cba565b9050919050565b600073ffffffffffffffffffffffffffffffffffffffff82169050919050565b6000819050919050565b6000611cef82611d1a565b9050919050565b6000611d0182611d1a565b9050919050565b6000611d1382611cda565b9050919050565b6000611d2582611d2c565b9050919050565b6000611d3782611cba565b9050919050565b6000611d4982611cda565b91507fffffffffffffffffffffffffffffffffffffffffffffffffffffffffffffffff821415611d7c57611d7b611de6565b5b600182019050919050565b6000611d9282611d99565b9050919050565b6000611da482611ea7565b9050919050565b6000819050919050565b6000611dc082611cda565b9150611dcb83611cda565b925082611ddb57611dda611e15565b5b828206905092915050565b7f4e487b7100000000000000000000000000000000000000000000000000000000600052601160045260246000fd5b7f4e487b7100000000000000000000000000000000000000000000000000000000600052601260045260246000fd5b7f4e487b7100000000000000000000000000000000000000000000000000000000600052603260045260246000fd5b7f4e487b7100000000000000000000000000000000000000000000000000000000600052604160045260246000fd5b600080fd5b60008160601b9050919050565b7f4f776e61626c653a206e6577206f776e657220697320746865207a65726f206160008201527f6464726573730000000000000000000000000000000000000000000000000000602082015250565b7f4f776e61626c653a2063616c6c6572206973206e6f7420746865206f776e6572600082015250565b611f3581611ca8565b8114611f4057600080fd5b50565b611f4c81611cda565b8114611f5757600080fd5b5056fea264697066735822122042efd2431fdadcfac25b76d1c4ae7973339d0b7a83bb889ff81fa9fdd099a8b564736f6c63430008070033",
					"opcodes": "PUSH1 0x80 PUSH1 0x40 MSTORE PUSH8 0xDE0B6B3A7640000 PUSH1 0x3 SSTORE CALLVALUE DUP1 ISZERO PUSH3 0x1D JUMPI PUSH1 0x0 DUP1 REVERT JUMPDEST POP PUSH1 0x40 MLOAD PUSH3 0x220A CODESIZE SUB DUP1 PUSH3 0x220A DUP4 CODECOPY DUP2 DUP2 ADD PUSH1 0x40 MSTORE DUP2 ADD SWAP1 PUSH3 0x43 SWAP2 SWAP1 PUSH3 0x1D0 JUMP JUMPDEST PUSH3 0x63 PUSH3 0x57 PUSH3 0xED PUSH1 0x20 SHL PUSH1 0x20 SHR JUMP JUMPDEST PUSH3 0xF5 PUSH1 0x20 SHL PUSH1 0x20 SHR JUMP JUMPDEST DUP2 PUSH1 0x4 PUSH1 0x0 PUSH2 0x100 EXP DUP2 SLOAD DUP2 PUSH20 0xFFFFFFFFFFFFFFFFFFFFFFFFFFFFFFFFFFFFFFFF MUL NOT AND SWAP1 DUP4 PUSH20 0xFFFFFFFFFFFFFFFFFFFFFFFFFFFFFFFFFFFFFFFF AND MUL OR SWAP1 SSTORE POP DUP1 PUSH1 0x5 PUSH1 0x0 PUSH2 0x100 EXP DUP2 SLOAD DUP2 PUSH20 0xFFFFFFFFFFFFFFFFFFFFFFFFFFFFFFFFFFFFFFFF MUL NOT AND SWAP1 DUP4 PUSH20 0xFFFFFFFFFFFFFFFFFFFFFFFFFFFFFFFFFFFFFFFF AND MUL OR SWAP1 SSTORE POP POP POP PUSH3 0x26A JUMP JUMPDEST PUSH1 0x0 CALLER SWAP1 POP SWAP1 JUMP JUMPDEST PUSH1 0x0 DUP1 PUSH1 0x0 SWAP1 SLOAD SWAP1 PUSH2 0x100 EXP SWAP1 DIV PUSH20 0xFFFFFFFFFFFFFFFFFFFFFFFFFFFFFFFFFFFFFFFF AND SWAP1 POP DUP2 PUSH1 0x0 DUP1 PUSH2 0x100 EXP DUP2 SLOAD DUP2 PUSH20 0xFFFFFFFFFFFFFFFFFFFFFFFFFFFFFFFFFFFFFFFF MUL NOT AND SWAP1 DUP4 PUSH20 0xFFFFFFFFFFFFFFFFFFFFFFFFFFFFFFFFFFFFFFFF AND MUL OR SWAP1 SSTORE POP DUP2 PUSH20 0xFFFFFFFFFFFFFFFFFFFFFFFFFFFFFFFFFFFFFFFF AND DUP2 PUSH20 0xFFFFFFFFFFFFFFFFFFFFFFFFFFFFFFFFFFFFFFFF AND PUSH32 0x8BE0079C531659141344CD1FD0A4F28419497F9722A3DAAFE3B4186F6B6457E0 PUSH1 0x40 MLOAD PUSH1 0x40 MLOAD DUP1 SWAP2 SUB SWAP1 LOG3 POP POP JUMP JUMPDEST PUSH1 0x0 DUP2 MLOAD SWAP1 POP PUSH3 0x1CA DUP2 PUSH3 0x250 JUMP JUMPDEST SWAP3 SWAP2 POP POP JUMP JUMPDEST PUSH1 0x0 DUP1 PUSH1 0x40 DUP4 DUP6 SUB SLT ISZERO PUSH3 0x1EA JUMPI PUSH3 0x1E9 PUSH3 0x24B JUMP JUMPDEST JUMPDEST PUSH1 0x0 PUSH3 0x1FA DUP6 DUP3 DUP7 ADD PUSH3 0x1B9 JUMP JUMPDEST SWAP3 POP POP PUSH1 0x20 PUSH3 0x20D DUP6 DUP3 DUP7 ADD PUSH3 0x1B9 JUMP JUMPDEST SWAP2 POP POP SWAP3 POP SWAP3 SWAP1 POP JUMP JUMPDEST PUSH1 0x0 PUSH3 0x224 DUP3 PUSH3 0x22B JUMP JUMPDEST SWAP1 POP SWAP2 SWAP1 POP JUMP JUMPDEST PUSH1 0x0 PUSH20 0xFFFFFFFFFFFFFFFFFFFFFFFFFFFFFFFFFFFFFFFF DUP3 AND SWAP1 POP SWAP2 SWAP1 POP JUMP JUMPDEST PUSH1 0x0 DUP1 REVERT JUMPDEST PUSH3 0x25B DUP2 PUSH3 0x217 JUMP JUMPDEST DUP2 EQ PUSH3 0x267 JUMPI PUSH1 0x0 DUP1 REVERT JUMPDEST POP JUMP JUMPDEST PUSH2 0x1F90 DUP1 PUSH3 0x27A PUSH1 0x0 CODECOPY PUSH1 0x0 RETURN INVALID PUSH1 0x80 PUSH1 0x40 MSTORE CALLVALUE DUP1 ISZERO PUSH2 0x10 JUMPI PUSH1 0x0 DUP1 REVERT JUMPDEST POP PUSH1 0x4 CALLDATASIZE LT PUSH2 0x116 JUMPI PUSH1 0x0 CALLDATALOAD PUSH1 0xE0 SHR DUP1 PUSH4 0x8DA5CB5B GT PUSH2 0xA2 JUMPI DUP1 PUSH4 0xBC15CDF0 GT PUSH2 0x71 JUMPI DUP1 PUSH4 0xBC15CDF0 EQ PUSH2 0x2B2 JUMPI DUP1 PUSH4 0xF2FDE38B EQ PUSH2 0x2E2 JUMPI DUP1 PUSH4 0xF737D21D EQ PUSH2 0x2FE JUMPI DUP1 PUSH4 0xF80FB76D EQ PUSH2 0x32F JUMPI DUP1 PUSH4 0xF9CEE0BD EQ PUSH2 0x34B JUMPI PUSH2 0x116 JUMP JUMPDEST DUP1 PUSH4 0x8DA5CB5B EQ PUSH2 0x212 JUMPI DUP1 PUSH4 0x9F10A990 EQ PUSH2 0x230 JUMPI DUP1 PUSH4 0xAC128F4F EQ PUSH2 0x260 JUMPI DUP1 PUSH4 0xAEB18350 EQ PUSH2 0x294 JUMPI PUSH2 0x116 JUMP JUMPDEST DUP1 PUSH4 0x3B98BC65 GT PUSH2 0xE9 JUMPI DUP1 PUSH4 0x3B98BC65 EQ PUSH2 0x193 JUMPI DUP1 PUSH4 0x454F7B8F EQ PUSH2 0x1B2 JUMPI DUP1 PUSH4 0x6FBB5A86 EQ PUSH2 0x1D0 JUMPI DUP1 PUSH4 0x715018A6 EQ PUSH2 0x1EC JUMPI DUP1 PUSH4 0x7AD3DEF2 EQ PUSH2 0x1F6 JUMPI PUSH2 0x116 JUMP JUMPDEST DUP1 PUSH4 0x119B22B3 EQ PUSH2 0x11B JUMPI DUP1 PUSH4 0x158977DE EQ PUSH2 0x139 JUMPI DUP1 PUSH4 0x17BE85C3 EQ PUSH2 0x157 JUMPI DUP1 PUSH4 0x3013CE29 EQ PUSH2 0x175 JUMPI JUMPDEST PUSH1 0x0 DUP1 REVERT JUMPDEST PUSH2 0x123 PUSH2 0x369 JUMP JUMPDEST PUSH1 0x40 MLOAD PUSH2 0x130 SWAP2 SWAP1 PUSH2 0x1ACB JUMP JUMPDEST PUSH1 0x40 MLOAD DUP1 SWAP2 SUB SWAP1 RETURN JUMPDEST PUSH2 0x141 PUSH2 0x36F JUMP JUMPDEST PUSH1 0x40 MLOAD PUSH2 0x14E SWAP2 SWAP1 PUSH2 0x1ACB JUMP JUMPDEST PUSH1 0x40 MLOAD DUP1 SWAP2 SUB SWAP1 RETURN JUMPDEST PUSH2 0x15F PUSH2 0x5AE JUMP JUMPDEST PUSH1 0x40 MLOAD PUSH2 0x16C SWAP2 SWAP1 PUSH2 0x1ACB JUMP JUMPDEST PUSH1 0x40 MLOAD DUP1 SWAP2 SUB SWAP1 RETURN JUMPDEST PUSH2 0x17D PUSH2 0x655 JUMP JUMPDEST PUSH1 0x40 MLOAD PUSH2 0x18A SWAP2 SWAP1 PUSH2 0x1A55 JUMP JUMPDEST PUSH1 0x40 MLOAD DUP1 SWAP2 SUB SWAP1 RETURN JUMPDEST PUSH2 0x19B PUSH2 0x67B JUMP JUMPDEST PUSH1 0x40 MLOAD PUSH2 0x1A9 SWAP3 SWAP2 SWAP1 PUSH2 0x19FC JUMP JUMPDEST PUSH1 0x40 MLOAD DUP1 SWAP2 SUB SWAP1 RETURN JUMPDEST PUSH2 0x1BA PUSH2 0x9D8 JUMP JUMPDEST PUSH1 0x40 MLOAD PUSH2 0x1C7 SWAP2 SWAP1 PUSH2 0x1ACB JUMP JUMPDEST PUSH1 0x40 MLOAD DUP1 SWAP2 SUB SWAP1 RETURN JUMPDEST PUSH2 0x1EA PUSH1 0x4 DUP1 CALLDATASIZE SUB DUP2 ADD SWAP1 PUSH2 0x1E5 SWAP2 SWAP1 PUSH2 0x165A JUMP JUMPDEST PUSH2 0x9DE JUMP JUMPDEST STOP JUMPDEST PUSH2 0x1F4 PUSH2 0xCDB JUMP JUMPDEST STOP JUMPDEST PUSH2 0x210 PUSH1 0x4 DUP1 CALLDATASIZE SUB DUP2 ADD SWAP1 PUSH2 0x20B SWAP2 SWAP1 PUSH2 0x15A6 JUMP JUMPDEST PUSH2 0xD63 JUMP JUMPDEST STOP JUMPDEST PUSH2 0x21A PUSH2 0xE23 JUMP JUMPDEST PUSH1 0x40 MLOAD PUSH2 0x227 SWAP2 SWAP1 PUSH2 0x198F JUMP JUMPDEST PUSH1 0x40 MLOAD DUP1 SWAP2 SUB SWAP1 RETURN JUMPDEST PUSH2 0x24A PUSH1 0x4 DUP1 CALLDATASIZE SUB DUP2 ADD SWAP1 PUSH2 0x245 SWAP2 SWAP1 PUSH2 0x15A6 JUMP JUMPDEST PUSH2 0xE4C JUMP JUMPDEST PUSH1 0x40 MLOAD PUSH2 0x257 SWAP2 SWAP1 PUSH2 0x1ACB JUMP JUMPDEST PUSH1 0x40 MLOAD DUP1 SWAP2 SUB SWAP1 RETURN JUMPDEST PUSH2 0x27A PUSH1 0x4 DUP1 CALLDATASIZE SUB DUP2 ADD SWAP1 PUSH2 0x275 SWAP2 SWAP1 PUSH2 0x1600 JUMP JUMPDEST PUSH2 0xF00 JUMP JUMPDEST PUSH1 0x40 MLOAD PUSH2 0x28B SWAP6 SWAP5 SWAP4 SWAP3 SWAP2 SWAP1 PUSH2 0x1B0F JUMP JUMPDEST PUSH1 0x40 MLOAD DUP1 SWAP2 SUB SWAP1 RETURN JUMPDEST PUSH2 0x29C PUSH2 0xF56 JUMP JUMPDEST PUSH1 0x40 MLOAD PUSH2 0x2A9 SWAP2 SWAP1 PUSH2 0x1A70 JUMP JUMPDEST PUSH1 0x40 MLOAD DUP1 SWAP2 SUB SWAP1 RETURN JUMPDEST PUSH2 0x2CC PUSH1 0x4 DUP1 CALLDATASIZE SUB DUP2 ADD SWAP1 PUSH2 0x2C7 SWAP2 SWAP1 PUSH2 0x165A JUMP JUMPDEST PUSH2 0xF7C JUMP JUMPDEST PUSH1 0x40 MLOAD PUSH2 0x2D9 SWAP2 SWAP1 PUSH2 0x1A33 JUMP JUMPDEST PUSH1 0x40 MLOAD DUP1 SWAP2 SUB SWAP1 RETURN JUMPDEST PUSH2 0x2FC PUSH1 0x4 DUP1 CALLDATASIZE SUB DUP2 ADD SWAP1 PUSH2 0x2F7 SWAP2 SWAP1 PUSH2 0x15A6 JUMP JUMPDEST PUSH2 0x1108 JUMP JUMPDEST STOP JUMPDEST PUSH2 0x318 PUSH1 0x4 DUP1 CALLDATASIZE SUB DUP2 ADD SWAP1 PUSH2 0x313 SWAP2 SWAP1 PUSH2 0x1600 JUMP JUMPDEST PUSH2 0x1200 JUMP JUMPDEST PUSH1 0x40 MLOAD PUSH2 0x326 SWAP3 SWAP2 SWAP1 PUSH2 0x1AE6 JUMP JUMPDEST PUSH1 0x40 MLOAD DUP1 SWAP2 SUB SWAP1 RETURN JUMPDEST PUSH2 0x349 PUSH1 0x4 DUP1 CALLDATASIZE SUB DUP2 ADD SWAP1 PUSH2 0x344 SWAP2 SWAP1 PUSH2 0x1600 JUMP JUMPDEST PUSH2 0x137C JUMP JUMPDEST STOP JUMPDEST PUSH2 0x353 PUSH2 0x1402 JUMP JUMPDEST PUSH1 0x40 MLOAD PUSH2 0x360 SWAP2 SWAP1 PUSH2 0x1ACB JUMP JUMPDEST PUSH1 0x40 MLOAD DUP1 SWAP2 SUB SWAP1 RETURN JUMPDEST PUSH1 0x1 SLOAD DUP2 JUMP JUMPDEST PUSH1 0x0 DUP1 PUSH1 0x5 PUSH1 0x0 SWAP1 SLOAD SWAP1 PUSH2 0x100 EXP SWAP1 DIV PUSH20 0xFFFFFFFFFFFFFFFFFFFFFFFFFFFFFFFFFFFFFFFF AND PUSH20 0xFFFFFFFFFFFFFFFFFFFFFFFFFFFFFFFFFFFFFFFF AND PUSH4 0x18160DDD PUSH1 0x40 MLOAD DUP2 PUSH4 0xFFFFFFFF AND PUSH1 0xE0 SHL DUP2 MSTORE PUSH1 0x4 ADD PUSH1 0x20 PUSH1 0x40 MLOAD DUP1 DUP4 SUB DUP2 DUP7 DUP1 EXTCODESIZE ISZERO DUP1 ISZERO PUSH2 0x3DA JUMPI PUSH1 0x0 DUP1 REVERT JUMPDEST POP GAS STATICCALL ISZERO DUP1 ISZERO PUSH2 0x3EE JUMPI RETURNDATASIZE PUSH1 0x0 DUP1 RETURNDATACOPY RETURNDATASIZE PUSH1 0x0 REVERT JUMPDEST POP POP POP POP PUSH1 0x40 MLOAD RETURNDATASIZE PUSH1 0x1F NOT PUSH1 0x1F DUP3 ADD AND DUP3 ADD DUP1 PUSH1 0x40 MSTORE POP DUP2 ADD SWAP1 PUSH2 0x412 SWAP2 SWAP1 PUSH2 0x162D JUMP JUMPDEST SWAP1 POP PUSH1 0x0 PUSH1 0x1 SWAP1 POP JUMPDEST DUP2 DUP2 GT PUSH2 0x5A9 JUMPI PUSH1 0x0 PUSH1 0x5 PUSH1 0x0 SWAP1 SLOAD SWAP1 PUSH2 0x100 EXP SWAP1 DIV PUSH20 0xFFFFFFFFFFFFFFFFFFFFFFFFFFFFFFFFFFFFFFFF AND PUSH20 0xFFFFFFFFFFFFFFFFFFFFFFFFFFFFFFFFFFFFFFFF AND PUSH4 0x6352211E DUP4 PUSH1 0x40 MLOAD DUP3 PUSH4 0xFFFFFFFF AND PUSH1 0xE0 SHL DUP2 MSTORE PUSH1 0x4 ADD PUSH2 0x47F SWAP2 SWAP1 PUSH2 0x1ACB JUMP JUMPDEST PUSH1 0x20 PUSH1 0x40 MLOAD DUP1 DUP4 SUB DUP2 DUP7 DUP1 EXTCODESIZE ISZERO DUP1 ISZERO PUSH2 0x497 JUMPI PUSH1 0x0 DUP1 REVERT JUMPDEST POP GAS STATICCALL ISZERO DUP1 ISZERO PUSH2 0x4AB JUMPI RETURNDATASIZE PUSH1 0x0 DUP1 RETURNDATACOPY RETURNDATASIZE PUSH1 0x0 REVERT JUMPDEST POP POP POP POP PUSH1 0x40 MLOAD RETURNDATASIZE PUSH1 0x1F NOT PUSH1 0x1F DUP3 ADD AND DUP3 ADD DUP1 PUSH1 0x40 MSTORE POP DUP2 ADD SWAP1 PUSH2 0x4CF SWAP2 SWAP1 PUSH2 0x15D3 JUMP JUMPDEST SWAP1 POP PUSH1 0x5 PUSH1 0x0 SWAP1 SLOAD SWAP1 PUSH2 0x100 EXP SWAP1 DIV PUSH20 0xFFFFFFFFFFFFFFFFFFFFFFFFFFFFFFFFFFFFFFFF AND PUSH20 0xFFFFFFFFFFFFFFFFFFFFFFFFFFFFFFFFFFFFFFFF AND PUSH4 0x2F745C59 DUP3 PUSH1 0x0 PUSH1 0x40 MLOAD DUP4 PUSH4 0xFFFFFFFF AND PUSH1 0xE0 SHL DUP2 MSTORE PUSH1 0x4 ADD PUSH2 0x52F SWAP3 SWAP2 SWAP1 PUSH2 0x19AA JUMP JUMPDEST PUSH1 0x20 PUSH1 0x40 MLOAD DUP1 DUP4 SUB DUP2 DUP7 DUP1 EXTCODESIZE ISZERO DUP1 ISZERO PUSH2 0x547 JUMPI PUSH1 0x0 DUP1 REVERT JUMPDEST POP GAS STATICCALL ISZERO DUP1 ISZERO PUSH2 0x55B JUMPI RETURNDATASIZE PUSH1 0x0 DUP1 RETURNDATACOPY RETURNDATASIZE PUSH1 0x0 REVERT JUMPDEST POP POP POP POP PUSH1 0x40 MLOAD RETURNDATASIZE PUSH1 0x1F NOT PUSH1 0x1F DUP3 ADD AND DUP3 ADD DUP1 PUSH1 0x40 MSTORE POP DUP2 ADD SWAP1 PUSH2 0x57F SWAP2 SWAP1 PUSH2 0x162D JUMP JUMPDEST DUP3 EQ ISZERO PUSH2 0x595 JUMPI DUP4 DUP1 PUSH2 0x591 SWAP1 PUSH2 0x1D3E JUMP JUMPDEST SWAP5 POP POP JUMPDEST POP DUP1 DUP1 PUSH2 0x5A1 SWAP1 PUSH2 0x1D3E JUMP JUMPDEST SWAP2 POP POP PUSH2 0x41B JUMP JUMPDEST POP POP SWAP1 JUMP JUMPDEST PUSH1 0x0 PUSH1 0x5 PUSH1 0x0 SWAP1 SLOAD SWAP1 PUSH2 0x100 EXP SWAP1 DIV PUSH20 0xFFFFFFFFFFFFFFFFFFFFFFFFFFFFFFFFFFFFFFFF AND PUSH20 0xFFFFFFFFFFFFFFFFFFFFFFFFFFFFFFFFFFFFFFFF AND PUSH4 0x18160DDD PUSH1 0x40 MLOAD DUP2 PUSH4 0xFFFFFFFF AND PUSH1 0xE0 SHL DUP2 MSTORE PUSH1 0x4 ADD PUSH1 0x20 PUSH1 0x40 MLOAD DUP1 DUP4 SUB DUP2 DUP7 DUP1 EXTCODESIZE ISZERO DUP1 ISZERO PUSH2 0x618 JUMPI PUSH1 0x0 DUP1 REVERT JUMPDEST POP GAS STATICCALL ISZERO DUP1 ISZERO PUSH2 0x62C JUMPI RETURNDATASIZE PUSH1 0x0 DUP1 RETURNDATACOPY RETURNDATASIZE PUSH1 0x0 REVERT JUMPDEST POP POP POP POP PUSH1 0x40 MLOAD RETURNDATASIZE PUSH1 0x1F NOT PUSH1 0x1F DUP3 ADD AND DUP3 ADD DUP1 PUSH1 0x40 MSTORE POP DUP2 ADD SWAP1 PUSH2 0x650 SWAP2 SWAP1 PUSH2 0x162D JUMP JUMPDEST SWAP1 POP SWAP1 JUMP JUMPDEST PUSH1 0x4 PUSH1 0x0 SWAP1 SLOAD SWAP1 PUSH2 0x100 EXP SWAP1 DIV PUSH20 0xFFFFFFFFFFFFFFFFFFFFFFFFFFFFFFFFFFFFFFFF AND DUP2 JUMP JUMPDEST PUSH1 0x60 DUP1 PUSH1 0x0 PUSH1 0x5 PUSH1 0x0 SWAP1 SLOAD SWAP1 PUSH2 0x100 EXP SWAP1 DIV PUSH20 0xFFFFFFFFFFFFFFFFFFFFFFFFFFFFFFFFFFFFFFFF AND PUSH20 0xFFFFFFFFFFFFFFFFFFFFFFFFFFFFFFFFFFFFFFFF AND PUSH4 0x18160DDD PUSH1 0x40 MLOAD DUP2 PUSH4 0xFFFFFFFF AND PUSH1 0xE0 SHL DUP2 MSTORE PUSH1 0x4 ADD PUSH1 0x20 PUSH1 0x40 MLOAD DUP1 DUP4 SUB DUP2 DUP7 DUP1 EXTCODESIZE ISZERO DUP1 ISZERO PUSH2 0x6E8 JUMPI PUSH1 0x0 DUP1 REVERT JUMPDEST POP GAS STATICCALL ISZERO DUP1 ISZERO PUSH2 0x6FC JUMPI RETURNDATASIZE PUSH1 0x0 DUP1 RETURNDATACOPY RETURNDATASIZE PUSH1 0x0 REVERT JUMPDEST POP POP POP POP PUSH1 0x40 MLOAD RETURNDATASIZE PUSH1 0x1F NOT PUSH1 0x1F DUP3 ADD AND DUP3 ADD DUP1 PUSH1 0x40 MSTORE POP DUP2 ADD SWAP1 PUSH2 0x720 SWAP2 SWAP1 PUSH2 0x162D JUMP JUMPDEST SWAP1 POP PUSH1 0x0 PUSH2 0x72C PUSH2 0x36F JUMP JUMPDEST SWAP1 POP DUP1 PUSH8 0xFFFFFFFFFFFFFFFF DUP2 GT ISZERO PUSH2 0x748 JUMPI PUSH2 0x747 PUSH2 0x1E73 JUMP JUMPDEST JUMPDEST PUSH1 0x40 MLOAD SWAP1 DUP1 DUP3 MSTORE DUP1 PUSH1 0x20 MUL PUSH1 0x20 ADD DUP3 ADD PUSH1 0x40 MSTORE DUP1 ISZERO PUSH2 0x776 JUMPI DUP2 PUSH1 0x20 ADD PUSH1 0x20 DUP3 MUL DUP1 CALLDATASIZE DUP4 CALLDATACOPY DUP1 DUP3 ADD SWAP2 POP POP SWAP1 POP JUMPDEST POP SWAP4 POP DUP1 PUSH8 0xFFFFFFFFFFFFFFFF DUP2 GT ISZERO PUSH2 0x793 JUMPI PUSH2 0x792 PUSH2 0x1E73 JUMP JUMPDEST JUMPDEST PUSH1 0x40 MLOAD SWAP1 DUP1 DUP3 MSTORE DUP1 PUSH1 0x20 MUL PUSH1 0x20 ADD DUP3 ADD PUSH1 0x40 MSTORE DUP1 ISZERO PUSH2 0x7C1 JUMPI DUP2 PUSH1 0x20 ADD PUSH1 0x20 DUP3 MUL DUP1 CALLDATASIZE DUP4 CALLDATACOPY DUP1 DUP3 ADD SWAP2 POP POP SWAP1 POP JUMPDEST POP SWAP3 POP PUSH1 0x0 DUP1 PUSH1 0x1 SWAP1 POP JUMPDEST DUP4 DUP2 GT PUSH2 0x9D0 JUMPI PUSH1 0x0 PUSH1 0x5 PUSH1 0x0 SWAP1 SLOAD SWAP1 PUSH2 0x100 EXP SWAP1 DIV PUSH20 0xFFFFFFFFFFFFFFFFFFFFFFFFFFFFFFFFFFFFFFFF AND PUSH20 0xFFFFFFFFFFFFFFFFFFFFFFFFFFFFFFFFFFFFFFFF AND PUSH4 0x6352211E DUP4 PUSH1 0x40 MLOAD DUP3 PUSH4 0xFFFFFFFF AND PUSH1 0xE0 SHL DUP2 MSTORE PUSH1 0x4 ADD PUSH2 0x830 SWAP2 SWAP1 PUSH2 0x1ACB JUMP JUMPDEST PUSH1 0x20 PUSH1 0x40 MLOAD DUP1 DUP4 SUB DUP2 DUP7 DUP1 EXTCODESIZE ISZERO DUP1 ISZERO PUSH2 0x848 JUMPI PUSH1 0x0 DUP1 REVERT JUMPDEST POP GAS STATICCALL ISZERO DUP1 ISZERO PUSH2 0x85C JUMPI RETURNDATASIZE PUSH1 0x0 DUP1 RETURNDATACOPY RETURNDATASIZE PUSH1 0x0 REVERT JUMPDEST POP POP POP POP PUSH1 0x40 MLOAD RETURNDATASIZE PUSH1 0x1F NOT PUSH1 0x1F DUP3 ADD AND DUP3 ADD DUP1 PUSH1 0x40 MSTORE POP DUP2 ADD SWAP1 PUSH2 0x880 SWAP2 SWAP1 PUSH2 0x15D3 JUMP JUMPDEST SWAP1 POP PUSH1 0x5 PUSH1 0x0 SWAP1 SLOAD SWAP1 PUSH2 0x100 EXP SWAP1 DIV PUSH20 0xFFFFFFFFFFFFFFFFFFFFFFFFFFFFFFFFFFFFFFFF AND PUSH20 0xFFFFFFFFFFFFFFFFFFFFFFFFFFFFFFFFFFFFFFFF AND PUSH4 0x2F745C59 DUP3 PUSH1 0x0 PUSH1 0x40 MLOAD DUP4 PUSH4 0xFFFFFFFF AND PUSH1 0xE0 SHL DUP2 MSTORE PUSH1 0x4 ADD PUSH2 0x8E0 SWAP3 SWAP2 SWAP1 PUSH2 0x19AA JUMP JUMPDEST PUSH1 0x20 PUSH1 0x40 MLOAD DUP1 DUP4 SUB DUP2 DUP7 DUP1 EXTCODESIZE ISZERO DUP1 ISZERO PUSH2 0x8F8 JUMPI PUSH1 0x0 DUP1 REVERT JUMPDEST POP GAS STATICCALL ISZERO DUP1 ISZERO PUSH2 0x90C JUMPI RETURNDATASIZE PUSH1 0x0 DUP1 RETURNDATACOPY RETURNDATASIZE PUSH1 0x0 REVERT JUMPDEST POP POP POP POP PUSH1 0x40 MLOAD RETURNDATASIZE PUSH1 0x1F NOT PUSH1 0x1F DUP3 ADD AND DUP3 ADD DUP1 PUSH1 0x40 MSTORE POP DUP2 ADD SWAP1 PUSH2 0x930 SWAP2 SWAP1 PUSH2 0x162D JUMP JUMPDEST DUP3 EQ ISZERO PUSH2 0x9BC JUMPI DUP1 DUP8 DUP5 DUP2 MLOAD DUP2 LT PUSH2 0x94B JUMPI PUSH2 0x94A PUSH2 0x1E44 JUMP JUMPDEST JUMPDEST PUSH1 0x20 MUL PUSH1 0x20 ADD ADD SWAP1 PUSH20 0xFFFFFFFFFFFFFFFFFFFFFFFFFFFFFFFFFFFFFFFF AND SWAP1 DUP2 PUSH20 0xFFFFFFFFFFFFFFFFFFFFFFFFFFFFFFFFFFFFFFFF AND DUP2 MSTORE POP POP PUSH2 0x98E DUP2 PUSH2 0xE4C JUMP JUMPDEST DUP7 DUP5 DUP2 MLOAD DUP2 LT PUSH2 0x9A1 JUMPI PUSH2 0x9A0 PUSH2 0x1E44 JUMP JUMPDEST JUMPDEST PUSH1 0x20 MUL PUSH1 0x20 ADD ADD DUP2 DUP2 MSTORE POP POP DUP3 DUP1 PUSH2 0x9B8 SWAP1 PUSH2 0x1D3E JUMP JUMPDEST SWAP4 POP POP JUMPDEST POP DUP1 DUP1 PUSH2 0x9C8 SWAP1 PUSH2 0x1D3E JUMP JUMPDEST SWAP2 POP POP PUSH2 0x7CC JUMP JUMPDEST POP POP POP POP SWAP1 SWAP2 JUMP JUMPDEST PUSH1 0x2 SLOAD DUP2 JUMP JUMPDEST PUSH2 0x9E6 PUSH2 0x1408 JUMP JUMPDEST PUSH20 0xFFFFFFFFFFFFFFFFFFFFFFFFFFFFFFFFFFFFFFFF AND PUSH2 0xA04 PUSH2 0xE23 JUMP JUMPDEST PUSH20 0xFFFFFFFFFFFFFFFFFFFFFFFFFFFFFFFFFFFFFFFF AND EQ PUSH2 0xA5A JUMPI PUSH1 0x40 MLOAD PUSH32 0x8C379A000000000000000000000000000000000000000000000000000000000 DUP2 MSTORE PUSH1 0x4 ADD PUSH2 0xA51 SWAP1 PUSH2 0x1AAB JUMP JUMPDEST PUSH1 0x40 MLOAD DUP1 SWAP2 SUB SWAP1 REVERT JUMPDEST PUSH1 0x0 PUSH1 0x5 PUSH1 0x0 SWAP1 SLOAD SWAP1 PUSH2 0x100 EXP SWAP1 DIV PUSH20 0xFFFFFFFFFFFFFFFFFFFFFFFFFFFFFFFFFFFFFFFF AND PUSH20 0xFFFFFFFFFFFFFFFFFFFFFFFFFFFFFFFFFFFFFFFF AND PUSH4 0x6352211E DUP5 PUSH1 0x40 MLOAD DUP3 PUSH4 0xFFFFFFFF AND PUSH1 0xE0 SHL DUP2 MSTORE PUSH1 0x4 ADD PUSH2 0xAB7 SWAP2 SWAP1 PUSH2 0x1ACB JUMP JUMPDEST PUSH1 0x20 PUSH1 0x40 MLOAD DUP1 DUP4 SUB DUP2 DUP7 DUP1 EXTCODESIZE ISZERO DUP1 ISZERO PUSH2 0xACF JUMPI PUSH1 0x0 DUP1 REVERT JUMPDEST POP GAS STATICCALL ISZERO DUP1 ISZERO PUSH2 0xAE3 JUMPI RETURNDATASIZE PUSH1 0x0 DUP1 RETURNDATACOPY RETURNDATASIZE PUSH1 0x0 REVERT JUMPDEST POP POP POP POP PUSH1 0x40 MLOAD RETURNDATASIZE PUSH1 0x1F NOT PUSH1 0x1F DUP3 ADD AND DUP3 ADD DUP1 PUSH1 0x40 MSTORE POP DUP2 ADD SWAP1 PUSH2 0xB07 SWAP2 SWAP1 PUSH2 0x15D3 JUMP JUMPDEST SWAP1 POP PUSH1 0x40 MLOAD DUP1 PUSH1 0xA0 ADD PUSH1 0x40 MSTORE DUP1 PUSH1 0x5 PUSH1 0x0 SWAP1 SLOAD SWAP1 PUSH2 0x100 EXP SWAP1 DIV PUSH20 0xFFFFFFFFFFFFFFFFFFFFFFFFFFFFFFFFFFFFFFFF AND PUSH20 0xFFFFFFFFFFFFFFFFFFFFFFFFFFFFFFFFFFFFFFFF AND PUSH4 0x18160DDD PUSH1 0x40 MLOAD DUP2 PUSH4 0xFFFFFFFF AND PUSH1 0xE0 SHL DUP2 MSTORE PUSH1 0x4 ADD PUSH1 0x20 PUSH1 0x40 MLOAD DUP1 DUP4 SUB DUP2 DUP7 DUP1 EXTCODESIZE ISZERO DUP1 ISZERO PUSH2 0xB7C JUMPI PUSH1 0x0 DUP1 REVERT JUMPDEST POP GAS STATICCALL ISZERO DUP1 ISZERO PUSH2 0xB90 JUMPI RETURNDATASIZE PUSH1 0x0 DUP1 RETURNDATACOPY RETURNDATASIZE PUSH1 0x0 REVERT JUMPDEST POP POP POP POP PUSH1 0x40 MLOAD RETURNDATASIZE PUSH1 0x1F NOT PUSH1 0x1F DUP3 ADD AND DUP3 ADD DUP1 PUSH1 0x40 MSTORE POP DUP2 ADD SWAP1 PUSH2 0xBB4 SWAP2 SWAP1 PUSH2 0x162D JUMP JUMPDEST DUP2 MSTORE PUSH1 0x20 ADD DUP5 DUP2 MSTORE PUSH1 0x20 ADD DUP4 DUP2 MSTORE PUSH1 0x20 ADD TIMESTAMP DUP2 MSTORE PUSH1 0x20 ADD DUP3 PUSH20 0xFFFFFFFFFFFFFFFFFFFFFFFFFFFFFFFFFFFFFFFF AND DUP2 MSTORE POP PUSH1 0x6 PUSH1 0x0 PUSH1 0x1 SLOAD DUP2 MSTORE PUSH1 0x20 ADD SWAP1 DUP2 MSTORE PUSH1 0x20 ADD PUSH1 0x0 KECCAK256 PUSH1 0x0 DUP3 ADD MLOAD DUP2 PUSH1 0x0 ADD SSTORE PUSH1 0x20 DUP3 ADD MLOAD DUP2 PUSH1 0x1 ADD SSTORE PUSH1 0x40 DUP3 ADD MLOAD DUP2 PUSH1 0x2 ADD SSTORE PUSH1 0x60 DUP3 ADD MLOAD DUP2 PUSH1 0x3 ADD SSTORE PUSH1 0x80 DUP3 ADD MLOAD DUP2 PUSH1 0x4 ADD PUSH1 0x0 PUSH2 0x100 EXP DUP2 SLOAD DUP2 PUSH20 0xFFFFFFFFFFFFFFFFFFFFFFFFFFFFFFFFFFFFFFFF MUL NOT AND SWAP1 DUP4 PUSH20 0xFFFFFFFFFFFFFFFFFFFFFFFFFFFFFFFFFFFFFFFF AND MUL OR SWAP1 SSTORE POP SWAP1 POP POP DUP2 PUSH1 0x2 PUSH1 0x0 DUP3 DUP3 SLOAD PUSH2 0xC7E SWAP2 SWAP1 PUSH2 0x1C1E JUMP JUMPDEST SWAP3 POP POP DUP2 SWAP1 SSTORE POP PUSH1 0x1 PUSH1 0x0 DUP2 SLOAD DUP1 SWAP3 SWAP2 SWAP1 PUSH2 0xC98 SWAP1 PUSH2 0x1D3E JUMP JUMPDEST SWAP2 SWAP1 POP SSTORE POP PUSH32 0x2E798DD4337E515C79B64C40E1A93BAA1AEFBD9180AC7905E02508EDD7971E50 DUP2 DUP4 PUSH1 0x40 MLOAD PUSH2 0xCCE SWAP3 SWAP2 SWAP1 PUSH2 0x19D3 JUMP JUMPDEST PUSH1 0x40 MLOAD DUP1 SWAP2 SUB SWAP1 LOG1 POP POP POP JUMP JUMPDEST PUSH2 0xCE3 PUSH2 0x1408 JUMP JUMPDEST PUSH20 0xFFFFFFFFFFFFFFFFFFFFFFFFFFFFFFFFFFFFFFFF AND PUSH2 0xD01 PUSH2 0xE23 JUMP JUMPDEST PUSH20 0xFFFFFFFFFFFFFFFFFFFFFFFFFFFFFFFFFFFFFFFF AND EQ PUSH2 0xD57 JUMPI PUSH1 0x40 MLOAD PUSH32 0x8C379A000000000000000000000000000000000000000000000000000000000 DUP2 MSTORE PUSH1 0x4 ADD PUSH2 0xD4E SWAP1 PUSH2 0x1AAB JUMP JUMPDEST PUSH1 0x40 MLOAD DUP1 SWAP2 SUB SWAP1 REVERT JUMPDEST PUSH2 0xD61 PUSH1 0x0 PUSH2 0x1410 JUMP JUMPDEST JUMP JUMPDEST PUSH2 0xD6B PUSH2 0x1408 JUMP JUMPDEST PUSH20 0xFFFFFFFFFFFFFFFFFFFFFFFFFFFFFFFFFFFFFFFF AND PUSH2 0xD89 PUSH2 0xE23 JUMP JUMPDEST PUSH20 0xFFFFFFFFFFFFFFFFFFFFFFFFFFFFFFFFFFFFFFFF AND EQ PUSH2 0xDDF JUMPI PUSH1 0x40 MLOAD PUSH32 0x8C379A000000000000000000000000000000000000000000000000000000000 DUP2 MSTORE PUSH1 0x4 ADD PUSH2 0xDD6 SWAP1 PUSH2 0x1AAB JUMP JUMPDEST PUSH1 0x40 MLOAD DUP1 SWAP2 SUB SWAP1 REVERT JUMPDEST DUP1 PUSH1 0x4 PUSH1 0x0 PUSH2 0x100 EXP DUP2 SLOAD DUP2 PUSH20 0xFFFFFFFFFFFFFFFFFFFFFFFFFFFFFFFFFFFFFFFF MUL NOT AND SWAP1 DUP4 PUSH20 0xFFFFFFFFFFFFFFFFFFFFFFFFFFFFFFFFFFFFFFFF AND MUL OR SWAP1 SSTORE POP POP JUMP JUMPDEST PUSH1 0x0 DUP1 PUSH1 0x0 SWAP1 SLOAD SWAP1 PUSH2 0x100 EXP SWAP1 DIV PUSH20 0xFFFFFFFFFFFFFFFFFFFFFFFFFFFFFFFFFFFFFFFF AND SWAP1 POP SWAP1 JUMP JUMPDEST PUSH1 0x0 PUSH1 0x5 PUSH1 0x0 SWAP1 SLOAD SWAP1 PUSH2 0x100 EXP SWAP1 DIV PUSH20 0xFFFFFFFFFFFFFFFFFFFFFFFFFFFFFFFFFFFFFFFF AND PUSH20 0xFFFFFFFFFFFFFFFFFFFFFFFFFFFFFFFFFFFFFFFF AND PUSH4 0x70A08231 DUP4 PUSH1 0x40 MLOAD DUP3 PUSH4 0xFFFFFFFF AND PUSH1 0xE0 SHL DUP2 MSTORE PUSH1 0x4 ADD PUSH2 0xEA9 SWAP2 SWAP1 PUSH2 0x198F JUMP JUMPDEST PUSH1 0x20 PUSH1 0x40 MLOAD DUP1 DUP4 SUB DUP2 DUP7 DUP1 EXTCODESIZE ISZERO DUP1 ISZERO PUSH2 0xEC1 JUMPI PUSH1 0x0 DUP1 REVERT JUMPDEST POP GAS STATICCALL ISZERO DUP1 ISZERO PUSH2 0xED5 JUMPI RETURNDATASIZE PUSH1 0x0 DUP1 RETURNDATACOPY RETURNDATASIZE PUSH1 0x0 REVERT JUMPDEST POP POP POP POP PUSH1 0x40 MLOAD RETURNDATASIZE PUSH1 0x1F NOT PUSH1 0x1F DUP3 ADD AND DUP3 ADD DUP1 PUSH1 0x40 MSTORE POP DUP2 ADD SWAP1 PUSH2 0xEF9 SWAP2 SWAP1 PUSH2 0x162D JUMP JUMPDEST SWAP1 POP SWAP2 SWAP1 POP JUMP JUMPDEST PUSH1 0x6 PUSH1 0x20 MSTORE DUP1 PUSH1 0x0 MSTORE PUSH1 0x40 PUSH1 0x0 KECCAK256 PUSH1 0x0 SWAP2 POP SWAP1 POP DUP1 PUSH1 0x0 ADD SLOAD SWAP1 DUP1 PUSH1 0x1 ADD SLOAD SWAP1 DUP1 PUSH1 0x2 ADD SLOAD SWAP1 DUP1 PUSH1 0x3 ADD SLOAD SWAP1 DUP1 PUSH1 0x4 ADD PUSH1 0x0 SWAP1 SLOAD SWAP1 PUSH2 0x100 EXP SWAP1 DIV PUSH20 0xFFFFFFFFFFFFFFFFFFFFFFFFFFFFFFFFFFFFFFFF AND SWAP1 POP DUP6 JUMP JUMPDEST PUSH1 0x5 PUSH1 0x0 SWAP1 SLOAD SWAP1 PUSH2 0x100 EXP SWAP1 DIV PUSH20 0xFFFFFFFFFFFFFFFFFFFFFFFFFFFFFFFFFFFFFFFF AND DUP2 JUMP JUMPDEST PUSH1 0x60 PUSH1 0x1 SLOAD DUP3 LT PUSH2 0xF98 JUMPI PUSH1 0x1 DUP1 SLOAD PUSH2 0xF95 SWAP2 SWAP1 PUSH2 0x1C74 JUMP JUMPDEST SWAP2 POP JUMPDEST PUSH1 0x0 PUSH1 0x1 DUP5 DUP5 PUSH2 0xFA8 SWAP2 SWAP1 PUSH2 0x1C74 JUMP JUMPDEST PUSH2 0xFB2 SWAP2 SWAP1 PUSH2 0x1C1E JUMP JUMPDEST SWAP1 POP PUSH1 0x0 DUP2 PUSH8 0xFFFFFFFFFFFFFFFF DUP2 GT ISZERO PUSH2 0xFD0 JUMPI PUSH2 0xFCF PUSH2 0x1E73 JUMP JUMPDEST JUMPDEST PUSH1 0x40 MLOAD SWAP1 DUP1 DUP3 MSTORE DUP1 PUSH1 0x20 MUL PUSH1 0x20 ADD DUP3 ADD PUSH1 0x40 MSTORE DUP1 ISZERO PUSH2 0x1009 JUMPI DUP2 PUSH1 0x20 ADD JUMPDEST PUSH2 0xFF6 PUSH2 0x150D JUMP JUMPDEST DUP2 MSTORE PUSH1 0x20 ADD SWAP1 PUSH1 0x1 SWAP1 SUB SWAP1 DUP2 PUSH2 0xFEE JUMPI SWAP1 POP JUMPDEST POP SWAP3 POP PUSH1 0x0 DUP6 SWAP1 POP JUMPDEST DUP5 DUP2 GT PUSH2 0x10FF JUMPI PUSH1 0x6 PUSH1 0x0 DUP3 DUP9 PUSH2 0x1029 SWAP2 SWAP1 PUSH2 0x1C1E JUMP JUMPDEST DUP2 MSTORE PUSH1 0x20 ADD SWAP1 DUP2 MSTORE PUSH1 0x20 ADD PUSH1 0x0 KECCAK256 PUSH1 0x40 MLOAD DUP1 PUSH1 0xA0 ADD PUSH1 0x40 MSTORE SWAP1 DUP2 PUSH1 0x0 DUP3 ADD SLOAD DUP2 MSTORE PUSH1 0x20 ADD PUSH1 0x1 DUP3 ADD SLOAD DUP2 MSTORE PUSH1 0x20 ADD PUSH1 0x2 DUP3 ADD SLOAD DUP2 MSTORE PUSH1 0x20 ADD PUSH1 0x3 DUP3 ADD SLOAD DUP2 MSTORE PUSH1 0x20 ADD PUSH1 0x4 DUP3 ADD PUSH1 0x0 SWAP1 SLOAD SWAP1 PUSH2 0x100 EXP SWAP1 DIV PUSH20 0xFFFFFFFFFFFFFFFFFFFFFFFFFFFFFFFFFFFFFFFF AND PUSH20 0xFFFFFFFFFFFFFFFFFFFFFFFFFFFFFFFFFFFFFFFF AND PUSH20 0xFFFFFFFFFFFFFFFFFFFFFFFFFFFFFFFFFFFFFFFF AND DUP2 MSTORE POP POP DUP5 DUP4 DUP2 MLOAD DUP2 LT PUSH2 0x10D3 JUMPI PUSH2 0x10D2 PUSH2 0x1E44 JUMP JUMPDEST JUMPDEST PUSH1 0x20 MUL PUSH1 0x20 ADD ADD DUP2 SWAP1 MSTORE POP DUP2 DUP1 PUSH2 0x10E9 SWAP1 PUSH2 0x1D3E JUMP JUMPDEST SWAP3 POP POP DUP1 DUP1 PUSH2 0x10F7 SWAP1 PUSH2 0x1D3E JUMP JUMPDEST SWAP2 POP POP PUSH2 0x1012 JUMP JUMPDEST POP POP POP SWAP3 SWAP2 POP POP JUMP JUMPDEST PUSH2 0x1110 PUSH2 0x1408 JUMP JUMPDEST PUSH20 0xFFFFFFFFFFFFFFFFFFFFFFFFFFFFFFFFFFFFFFFF AND PUSH2 0x112E PUSH2 0xE23 JUMP JUMPDEST PUSH20 0xFFFFFFFFFFFFFFFFFFFFFFFFFFFFFFFFFFFFFFFF AND EQ PUSH2 0x1184 JUMPI PUSH1 0x40 MLOAD PUSH32 0x8C379A000000000000000000000000000000000000000000000000000000000 DUP2 MSTORE PUSH1 0x4 ADD PUSH2 0x117B SWAP1 PUSH2 0x1AAB JUMP JUMPDEST PUSH1 0x40 MLOAD DUP1 SWAP2 SUB SWAP1 REVERT JUMPDEST PUSH1 0x0 PUSH20 0xFFFFFFFFFFFFFFFFFFFFFFFFFFFFFFFFFFFFFFFF AND DUP2 PUSH20 0xFFFFFFFFFFFFFFFFFFFFFFFFFFFFFFFFFFFFFFFF AND EQ ISZERO PUSH2 0x11F4 JUMPI PUSH1 0x40 MLOAD PUSH32 0x8C379A000000000000000000000000000000000000000000000000000000000 DUP2 MSTORE PUSH1 0x4 ADD PUSH2 0x11EB SWAP1 PUSH2 0x1A8B JUMP JUMPDEST PUSH1 0x40 MLOAD DUP1 SWAP2 SUB SWAP1 REVERT JUMPDEST PUSH2 0x11FD DUP2 PUSH2 0x1410 JUMP JUMPDEST POP JUMP JUMPDEST PUSH1 0x0 DUP1 PUSH1 0x0 PUSH1 0x5 PUSH1 0x0 SWAP1 SLOAD SWAP1 PUSH2 0x100 EXP SWAP1 DIV PUSH20 0xFFFFFFFFFFFFFFFFFFFFFFFFFFFFFFFFFFFFFFFF AND PUSH20 0xFFFFFFFFFFFFFFFFFFFFFFFFFFFFFFFFFFFFFFFF AND PUSH4 0x18160DDD PUSH1 0x40 MLOAD DUP2 PUSH4 0xFFFFFFFF AND PUSH1 0xE0 SHL DUP2 MSTORE PUSH1 0x4 ADD PUSH1 0x20 PUSH1 0x40 MLOAD DUP1 DUP4 SUB DUP2 DUP7 DUP1 EXTCODESIZE ISZERO DUP1 ISZERO PUSH2 0x126D JUMPI PUSH1 0x0 DUP1 REVERT JUMPDEST POP GAS STATICCALL ISZERO DUP1 ISZERO PUSH2 0x1281 JUMPI RETURNDATASIZE PUSH1 0x0 DUP1 RETURNDATACOPY RETURNDATASIZE PUSH1 0x0 REVERT JUMPDEST POP POP POP POP PUSH1 0x40 MLOAD RETURNDATASIZE PUSH1 0x1F NOT PUSH1 0x1F DUP3 ADD AND DUP3 ADD DUP1 PUSH1 0x40 MSTORE POP DUP2 ADD SWAP1 PUSH2 0x12A5 SWAP2 SWAP1 PUSH2 0x162D JUMP JUMPDEST SWAP1 POP PUSH1 0x1 DUP2 PUSH2 0x12B3 DUP7 PUSH2 0x14D4 JUMP JUMPDEST PUSH2 0x12BD SWAP2 SWAP1 PUSH2 0x1DB5 JUMP JUMPDEST PUSH2 0x12C7 SWAP2 SWAP1 PUSH2 0x1C1E JUMP JUMPDEST SWAP3 POP PUSH1 0x5 PUSH1 0x0 SWAP1 SLOAD SWAP1 PUSH2 0x100 EXP SWAP1 DIV PUSH20 0xFFFFFFFFFFFFFFFFFFFFFFFFFFFFFFFFFFFFFFFF AND PUSH20 0xFFFFFFFFFFFFFFFFFFFFFFFFFFFFFFFFFFFFFFFF AND PUSH4 0x6352211E DUP5 PUSH1 0x40 MLOAD DUP3 PUSH4 0xFFFFFFFF AND PUSH1 0xE0 SHL DUP2 MSTORE PUSH1 0x4 ADD PUSH2 0x1324 SWAP2 SWAP1 PUSH2 0x1ACB JUMP JUMPDEST PUSH1 0x20 PUSH1 0x40 MLOAD DUP1 DUP4 SUB DUP2 DUP7 DUP1 EXTCODESIZE ISZERO DUP1 ISZERO PUSH2 0x133C JUMPI PUSH1 0x0 DUP1 REVERT JUMPDEST POP GAS STATICCALL ISZERO DUP1 ISZERO PUSH2 0x1350 JUMPI RETURNDATASIZE PUSH1 0x0 DUP1 RETURNDATACOPY RETURNDATASIZE PUSH1 0x0 REVERT JUMPDEST POP POP POP POP PUSH1 0x40 MLOAD RETURNDATASIZE PUSH1 0x1F NOT PUSH1 0x1F DUP3 ADD AND DUP3 ADD DUP1 PUSH1 0x40 MSTORE POP DUP2 ADD SWAP1 PUSH2 0x1374 SWAP2 SWAP1 PUSH2 0x15D3 JUMP JUMPDEST SWAP2 POP POP SWAP2 POP SWAP2 JUMP JUMPDEST PUSH2 0x1384 PUSH2 0x1408 JUMP JUMPDEST PUSH20 0xFFFFFFFFFFFFFFFFFFFFFFFFFFFFFFFFFFFFFFFF AND PUSH2 0x13A2 PUSH2 0xE23 JUMP JUMPDEST PUSH20 0xFFFFFFFFFFFFFFFFFFFFFFFFFFFFFFFFFFFFFFFF AND EQ PUSH2 0x13F8 JUMPI PUSH1 0x40 MLOAD PUSH32 0x8C379A000000000000000000000000000000000000000000000000000000000 DUP2 MSTORE PUSH1 0x4 ADD PUSH2 0x13EF SWAP1 PUSH2 0x1AAB JUMP JUMPDEST PUSH1 0x40 MLOAD DUP1 SWAP2 SUB SWAP1 REVERT JUMPDEST DUP1 PUSH1 0x3 DUP2 SWAP1 SSTORE POP POP JUMP JUMPDEST PUSH1 0x3 SLOAD DUP2 JUMP JUMPDEST PUSH1 0x0 CALLER SWAP1 POP SWAP1 JUMP JUMPDEST PUSH1 0x0 DUP1 PUSH1 0x0 SWAP1 SLOAD SWAP1 PUSH2 0x100 EXP SWAP1 DIV PUSH20 0xFFFFFFFFFFFFFFFFFFFFFFFFFFFFFFFFFFFFFFFF AND SWAP1 POP DUP2 PUSH1 0x0 DUP1 PUSH2 0x100 EXP DUP2 SLOAD DUP2 PUSH20 0xFFFFFFFFFFFFFFFFFFFFFFFFFFFFFFFFFFFFFFFF MUL NOT AND SWAP1 DUP4 PUSH20 0xFFFFFFFFFFFFFFFFFFFFFFFFFFFFFFFFFFFFFFFF AND MUL OR SWAP1 SSTORE POP DUP2 PUSH20 0xFFFFFFFFFFFFFFFFFFFFFFFFFFFFFFFFFFFFFFFF AND DUP2 PUSH20 0xFFFFFFFFFFFFFFFFFFFFFFFFFFFFFFFFFFFFFFFF AND PUSH32 0x8BE0079C531659141344CD1FD0A4F28419497F9722A3DAAFE3B4186F6B6457E0 PUSH1 0x40 MLOAD PUSH1 0x40 MLOAD DUP1 SWAP2 SUB SWAP1 LOG3 POP POP JUMP JUMPDEST PUSH1 0x0 DUP2 TIMESTAMP GAS CALLER PUSH1 0x40 MLOAD PUSH1 0x20 ADD PUSH2 0x14ED SWAP5 SWAP4 SWAP3 SWAP2 SWAP1 PUSH2 0x1941 JUMP JUMPDEST PUSH1 0x40 MLOAD PUSH1 0x20 DUP2 DUP4 SUB SUB DUP2 MSTORE SWAP1 PUSH1 0x40 MSTORE DUP1 MLOAD SWAP1 PUSH1 0x20 ADD KECCAK256 PUSH1 0x0 SHR SWAP1 POP SWAP2 SWAP1 POP JUMP JUMPDEST PUSH1 0x40 MLOAD DUP1 PUSH1 0xA0 ADD PUSH1 0x40 MSTORE DUP1 PUSH1 0x0 DUP2 MSTORE PUSH1 0x20 ADD PUSH1 0x0 DUP2 MSTORE PUSH1 0x20 ADD PUSH1 0x0 DUP2 MSTORE PUSH1 0x20 ADD PUSH1 0x0 DUP2 MSTORE PUSH1 0x20 ADD PUSH1 0x0 PUSH20 0xFFFFFFFFFFFFFFFFFFFFFFFFFFFFFFFFFFFFFFFF AND DUP2 MSTORE POP SWAP1 JUMP JUMPDEST PUSH1 0x0 DUP2 CALLDATALOAD SWAP1 POP PUSH2 0x1561 DUP2 PUSH2 0x1F2C JUMP JUMPDEST SWAP3 SWAP2 POP POP JUMP JUMPDEST PUSH1 0x0 DUP2 MLOAD SWAP1 POP PUSH2 0x1576 DUP2 PUSH2 0x1F2C JUMP JUMPDEST SWAP3 SWAP2 POP POP JUMP JUMPDEST PUSH1 0x0 DUP2 CALLDATALOAD SWAP1 POP PUSH2 0x158B DUP2 PUSH2 0x1F43 JUMP JUMPDEST SWAP3 SWAP2 POP POP JUMP JUMPDEST PUSH1 0x0 DUP2 MLOAD SWAP1 POP PUSH2 0x15A0 DUP2 PUSH2 0x1F43 JUMP JUMPDEST SWAP3 SWAP2 POP POP JUMP JUMPDEST PUSH1 0x0 PUSH1 0x20 DUP3 DUP5 SUB SLT ISZERO PUSH2 0x15BC JUMPI PUSH2 0x15BB PUSH2 0x1EA2 JUMP JUMPDEST JUMPDEST PUSH1 0x0 PUSH2 0x15CA DUP5 DUP3 DUP6 ADD PUSH2 0x1552 JUMP JUMPDEST SWAP2 POP POP SWAP3 SWAP2 POP POP JUMP JUMPDEST PUSH1 0x0 PUSH1 0x20 DUP3 DUP5 SUB SLT ISZERO PUSH2 0x15E9 JUMPI PUSH2 0x15E8 PUSH2 0x1EA2 JUMP JUMPDEST JUMPDEST PUSH1 0x0 PUSH2 0x15F7 DUP5 DUP3 DUP6 ADD PUSH2 0x1567 JUMP JUMPDEST SWAP2 POP POP SWAP3 SWAP2 POP POP JUMP JUMPDEST PUSH1 0x0 PUSH1 0x20 DUP3 DUP5 SUB SLT ISZERO PUSH2 0x1616 JUMPI PUSH2 0x1615 PUSH2 0x1EA2 JUMP JUMPDEST JUMPDEST PUSH1 0x0 PUSH2 0x1624 DUP5 DUP3 DUP6 ADD PUSH2 0x157C JUMP JUMPDEST SWAP2 POP POP SWAP3 SWAP2 POP POP JUMP JUMPDEST PUSH1 0x0 PUSH1 0x20 DUP3 DUP5 SUB SLT ISZERO PUSH2 0x1643 JUMPI PUSH2 0x1642 PUSH2 0x1EA2 JUMP JUMPDEST JUMPDEST PUSH1 0x0 PUSH2 0x1651 DUP5 DUP3 DUP6 ADD PUSH2 0x1591 JUMP JUMPDEST SWAP2 POP POP SWAP3 SWAP2 POP POP JUMP JUMPDEST PUSH1 0x0 DUP1 PUSH1 0x40 DUP4 DUP6 SUB SLT ISZERO PUSH2 0x1671 JUMPI PUSH2 0x1670 PUSH2 0x1EA2 JUMP JUMPDEST JUMPDEST PUSH1 0x0 PUSH2 0x167F DUP6 DUP3 DUP7 ADD PUSH2 0x157C JUMP JUMPDEST SWAP3 POP POP PUSH1 0x20 PUSH2 0x1690 DUP6 DUP3 DUP7 ADD PUSH2 0x157C JUMP JUMPDEST SWAP2 POP POP SWAP3 POP SWAP3 SWAP1 POP JUMP JUMPDEST PUSH1 0x0 PUSH2 0x16A6 DUP4 DUP4 PUSH2 0x16E2 JUMP JUMPDEST PUSH1 0x20 DUP4 ADD SWAP1 POP SWAP3 SWAP2 POP POP JUMP JUMPDEST PUSH1 0x0 PUSH2 0x16BE DUP4 DUP4 PUSH2 0x18A4 JUMP JUMPDEST PUSH1 0xA0 DUP4 ADD SWAP1 POP SWAP3 SWAP2 POP POP JUMP JUMPDEST PUSH1 0x0 PUSH2 0x16D6 DUP4 DUP4 PUSH2 0x190C JUMP JUMPDEST PUSH1 0x20 DUP4 ADD SWAP1 POP SWAP3 SWAP2 POP POP JUMP JUMPDEST PUSH2 0x16EB DUP2 PUSH2 0x1CA8 JUMP JUMPDEST DUP3 MSTORE POP POP JUMP JUMPDEST PUSH2 0x16FA DUP2 PUSH2 0x1CA8 JUMP JUMPDEST DUP3 MSTORE POP POP JUMP JUMPDEST PUSH2 0x1711 PUSH2 0x170C DUP3 PUSH2 0x1CA8 JUMP JUMPDEST PUSH2 0x1D87 JUMP JUMPDEST DUP3 MSTORE POP POP JUMP JUMPDEST PUSH1 0x0 PUSH2 0x1722 DUP3 PUSH2 0x1B92 JUMP JUMPDEST PUSH2 0x172C DUP2 DUP6 PUSH2 0x1BDA JUMP JUMPDEST SWAP4 POP PUSH2 0x1737 DUP4 PUSH2 0x1B62 JUMP JUMPDEST DUP1 PUSH1 0x0 JUMPDEST DUP4 DUP2 LT ISZERO PUSH2 0x1768 JUMPI DUP2 MLOAD PUSH2 0x174F DUP9 DUP3 PUSH2 0x169A JUMP JUMPDEST SWAP8 POP PUSH2 0x175A DUP4 PUSH2 0x1BB3 JUMP JUMPDEST SWAP3 POP POP PUSH1 0x1 DUP2 ADD SWAP1 POP PUSH2 0x173B JUMP JUMPDEST POP DUP6 SWAP4 POP POP POP POP SWAP3 SWAP2 POP POP JUMP JUMPDEST PUSH1 0x0 PUSH2 0x1780 DUP3 PUSH2 0x1B9D JUMP JUMPDEST PUSH2 0x178A DUP2 DUP6 PUSH2 0x1BEB JUMP JUMPDEST SWAP4 POP PUSH2 0x1795 DUP4 PUSH2 0x1B72 JUMP JUMPDEST DUP1 PUSH1 0x0 JUMPDEST DUP4 DUP2 LT ISZERO PUSH2 0x17C6 JUMPI DUP2 MLOAD PUSH2 0x17AD DUP9 DUP3 PUSH2 0x16B2 JUMP JUMPDEST SWAP8 POP PUSH2 0x17B8 DUP4 PUSH2 0x1BC0 JUMP JUMPDEST SWAP3 POP POP PUSH1 0x1 DUP2 ADD SWAP1 POP PUSH2 0x1799 JUMP JUMPDEST POP DUP6 SWAP4 POP POP POP POP SWAP3 SWAP2 POP POP JUMP JUMPDEST PUSH1 0x0 PUSH2 0x17DE DUP3 PUSH2 0x1BA8 JUMP JUMPDEST PUSH2 0x17E8 DUP2 DUP6 PUSH2 0x1BFC JUMP JUMPDEST SWAP4 POP PUSH2 0x17F3 DUP4 PUSH2 0x1B82 JUMP JUMPDEST DUP1 PUSH1 0x0 JUMPDEST DUP4 DUP2 LT ISZERO PUSH2 0x1824 JUMPI DUP2 MLOAD PUSH2 0x180B DUP9 DUP3 PUSH2 0x16CA JUMP JUMPDEST SWAP8 POP PUSH2 0x1816 DUP4 PUSH2 0x1BCD JUMP JUMPDEST SWAP3 POP POP PUSH1 0x1 DUP2 ADD SWAP1 POP PUSH2 0x17F7 JUMP JUMPDEST POP DUP6 SWAP4 POP POP POP POP SWAP3 SWAP2 POP POP JUMP JUMPDEST PUSH2 0x183A DUP2 PUSH2 0x1CE4 JUMP JUMPDEST DUP3 MSTORE POP POP JUMP JUMPDEST PUSH2 0x1849 DUP2 PUSH2 0x1CF6 JUMP JUMPDEST DUP3 MSTORE POP POP JUMP JUMPDEST PUSH2 0x1858 DUP2 PUSH2 0x1D08 JUMP JUMPDEST DUP3 MSTORE POP POP JUMP JUMPDEST PUSH1 0x0 PUSH2 0x186B PUSH1 0x26 DUP4 PUSH2 0x1C0D JUMP JUMPDEST SWAP2 POP PUSH2 0x1876 DUP3 PUSH2 0x1EB4 JUMP JUMPDEST PUSH1 0x40 DUP3 ADD SWAP1 POP SWAP2 SWAP1 POP JUMP JUMPDEST PUSH1 0x0 PUSH2 0x188E PUSH1 0x20 DUP4 PUSH2 0x1C0D JUMP JUMPDEST SWAP2 POP PUSH2 0x1899 DUP3 PUSH2 0x1F03 JUMP JUMPDEST PUSH1 0x20 DUP3 ADD SWAP1 POP SWAP2 SWAP1 POP JUMP JUMPDEST PUSH1 0xA0 DUP3 ADD PUSH1 0x0 DUP3 ADD MLOAD PUSH2 0x18BA PUSH1 0x0 DUP6 ADD DUP3 PUSH2 0x190C JUMP JUMPDEST POP PUSH1 0x20 DUP3 ADD MLOAD PUSH2 0x18CD PUSH1 0x20 DUP6 ADD DUP3 PUSH2 0x190C JUMP JUMPDEST POP PUSH1 0x40 DUP3 ADD MLOAD PUSH2 0x18E0 PUSH1 0x40 DUP6 ADD DUP3 PUSH2 0x190C JUMP JUMPDEST POP PUSH1 0x60 DUP3 ADD MLOAD PUSH2 0x18F3 PUSH1 0x60 DUP6 ADD DUP3 PUSH2 0x190C JUMP JUMPDEST POP PUSH1 0x80 DUP3 ADD MLOAD PUSH2 0x1906 PUSH1 0x80 DUP6 ADD DUP3 PUSH2 0x16E2 JUMP JUMPDEST POP POP POP POP JUMP JUMPDEST PUSH2 0x1915 DUP2 PUSH2 0x1CDA JUMP JUMPDEST DUP3 MSTORE POP POP JUMP JUMPDEST PUSH2 0x1924 DUP2 PUSH2 0x1CDA JUMP JUMPDEST DUP3 MSTORE POP POP JUMP JUMPDEST PUSH2 0x193B PUSH2 0x1936 DUP3 PUSH2 0x1CDA JUMP JUMPDEST PUSH2 0x1DAB JUMP JUMPDEST DUP3 MSTORE POP POP JUMP JUMPDEST PUSH1 0x0 PUSH2 0x194D DUP3 DUP8 PUSH2 0x192A JUMP JUMPDEST PUSH1 0x20 DUP3 ADD SWAP2 POP PUSH2 0x195D DUP3 DUP7 PUSH2 0x192A JUMP JUMPDEST PUSH1 0x20 DUP3 ADD SWAP2 POP PUSH2 0x196D DUP3 DUP6 PUSH2 0x192A JUMP JUMPDEST PUSH1 0x20 DUP3 ADD SWAP2 POP PUSH2 0x197D DUP3 DUP5 PUSH2 0x1700 JUMP JUMPDEST PUSH1 0x14 DUP3 ADD SWAP2 POP DUP2 SWAP1 POP SWAP6 SWAP5 POP POP POP POP POP JUMP JUMPDEST PUSH1 0x0 PUSH1 0x20 DUP3 ADD SWAP1 POP PUSH2 0x19A4 PUSH1 0x0 DUP4 ADD DUP5 PUSH2 0x16F1 JUMP JUMPDEST SWAP3 SWAP2 POP POP JUMP JUMPDEST PUSH1 0x0 PUSH1 0x40 DUP3 ADD SWAP1 POP PUSH2 0x19BF PUSH1 0x0 DUP4 ADD DUP6 PUSH2 0x16F1 JUMP JUMPDEST PUSH2 0x19CC PUSH1 0x20 DUP4 ADD DUP5 PUSH2 0x184F JUMP JUMPDEST SWAP4 SWAP3 POP POP POP JUMP JUMPDEST PUSH1 0x0 PUSH1 0x40 DUP3 ADD SWAP1 POP PUSH2 0x19E8 PUSH1 0x0 DUP4 ADD DUP6 PUSH2 0x16F1 JUMP JUMPDEST PUSH2 0x19F5 PUSH1 0x20 DUP4 ADD DUP5 PUSH2 0x191B JUMP JUMPDEST SWAP4 SWAP3 POP POP POP JUMP JUMPDEST PUSH1 0x0 PUSH1 0x40 DUP3 ADD SWAP1 POP DUP2 DUP2 SUB PUSH1 0x0 DUP4 ADD MSTORE PUSH2 0x1A16 DUP2 DUP6 PUSH2 0x1717 JUMP JUMPDEST SWAP1 POP DUP2 DUP2 SUB PUSH1 0x20 DUP4 ADD MSTORE PUSH2 0x1A2A DUP2 DUP5 PUSH2 0x17D3 JUMP JUMPDEST SWAP1 POP SWAP4 SWAP3 POP POP POP JUMP JUMPDEST PUSH1 0x0 PUSH1 0x20 DUP3 ADD SWAP1 POP DUP2 DUP2 SUB PUSH1 0x0 DUP4 ADD MSTORE PUSH2 0x1A4D DUP2 DUP5 PUSH2 0x1775 JUMP JUMPDEST SWAP1 POP SWAP3 SWAP2 POP POP JUMP JUMPDEST PUSH1 0x0 PUSH1 0x20 DUP3 ADD SWAP1 POP PUSH2 0x1A6A PUSH1 0x0 DUP4 ADD DUP5 PUSH2 0x1831 JUMP JUMPDEST SWAP3 SWAP2 POP POP JUMP JUMPDEST PUSH1 0x0 PUSH1 0x20 DUP3 ADD SWAP1 POP PUSH2 0x1A85 PUSH1 0x0 DUP4 ADD DUP5 PUSH2 0x1840 JUMP JUMPDEST SWAP3 SWAP2 POP POP JUMP JUMPDEST PUSH1 0x0 PUSH1 0x20 DUP3 ADD SWAP1 POP DUP2 DUP2 SUB PUSH1 0x0 DUP4 ADD MSTORE PUSH2 0x1AA4 DUP2 PUSH2 0x185E JUMP JUMPDEST SWAP1 POP SWAP2 SWAP1 POP JUMP JUMPDEST PUSH1 0x0 PUSH1 0x20 DUP3 ADD SWAP1 POP DUP2 DUP2 SUB PUSH1 0x0 DUP4 ADD MSTORE PUSH2 0x1AC4 DUP2 PUSH2 0x1881 JUMP JUMPDEST SWAP1 POP SWAP2 SWAP1 POP JUMP JUMPDEST PUSH1 0x0 PUSH1 0x20 DUP3 ADD SWAP1 POP PUSH2 0x1AE0 PUSH1 0x0 DUP4 ADD DUP5 PUSH2 0x191B JUMP JUMPDEST SWAP3 SWAP2 POP POP JUMP JUMPDEST PUSH1 0x0 PUSH1 0x40 DUP3 ADD SWAP1 POP PUSH2 0x1AFB PUSH1 0x0 DUP4 ADD DUP6 PUSH2 0x191B JUMP JUMPDEST PUSH2 0x1B08 PUSH1 0x20 DUP4 ADD DUP5 PUSH2 0x16F1 JUMP JUMPDEST SWAP4 SWAP3 POP POP POP JUMP JUMPDEST PUSH1 0x0 PUSH1 0xA0 DUP3 ADD SWAP1 POP PUSH2 0x1B24 PUSH1 0x0 DUP4 ADD DUP9 PUSH2 0x191B JUMP JUMPDEST PUSH2 0x1B31 PUSH1 0x20 DUP4 ADD DUP8 PUSH2 0x191B JUMP JUMPDEST PUSH2 0x1B3E PUSH1 0x40 DUP4 ADD DUP7 PUSH2 0x191B JUMP JUMPDEST PUSH2 0x1B4B PUSH1 0x60 DUP4 ADD DUP6 PUSH2 0x191B JUMP JUMPDEST PUSH2 0x1B58 PUSH1 0x80 DUP4 ADD DUP5 PUSH2 0x16F1 JUMP JUMPDEST SWAP7 SWAP6 POP POP POP POP POP POP JUMP JUMPDEST PUSH1 0x0 DUP2 SWAP1 POP PUSH1 0x20 DUP3 ADD SWAP1 POP SWAP2 SWAP1 POP JUMP JUMPDEST PUSH1 0x0 DUP2 SWAP1 POP PUSH1 0x20 DUP3 ADD SWAP1 POP SWAP2 SWAP1 POP JUMP JUMPDEST PUSH1 0x0 DUP2 SWAP1 POP PUSH1 0x20 DUP3 ADD SWAP1 POP SWAP2 SWAP1 POP JUMP JUMPDEST PUSH1 0x0 DUP2 MLOAD SWAP1 POP SWAP2 SWAP1 POP JUMP JUMPDEST PUSH1 0x0 DUP2 MLOAD SWAP1 POP SWAP2 SWAP1 POP JUMP JUMPDEST PUSH1 0x0 DUP2 MLOAD SWAP1 POP SWAP2 SWAP1 POP JUMP JUMPDEST PUSH1 0x0 PUSH1 0x20 DUP3 ADD SWAP1 POP SWAP2 SWAP1 POP JUMP JUMPDEST PUSH1 0x0 PUSH1 0x20 DUP3 ADD SWAP1 POP SWAP2 SWAP1 POP JUMP JUMPDEST PUSH1 0x0 PUSH1 0x20 DUP3 ADD SWAP1 POP SWAP2 SWAP1 POP JUMP JUMPDEST PUSH1 0x0 DUP3 DUP3 MSTORE PUSH1 0x20 DUP3 ADD SWAP1 POP SWAP3 SWAP2 POP POP JUMP JUMPDEST PUSH1 0x0 DUP3 DUP3 MSTORE PUSH1 0x20 DUP3 ADD SWAP1 POP SWAP3 SWAP2 POP POP JUMP JUMPDEST PUSH1 0x0 DUP3 DUP3 MSTORE PUSH1 0x20 DUP3 ADD SWAP1 POP SWAP3 SWAP2 POP POP JUMP JUMPDEST PUSH1 0x0 DUP3 DUP3 MSTORE PUSH1 0x20 DUP3 ADD SWAP1 POP SWAP3 SWAP2 POP POP JUMP JUMPDEST PUSH1 0x0 PUSH2 0x1C29 DUP3 PUSH2 0x1CDA JUMP JUMPDEST SWAP2 POP PUSH2 0x1C34 DUP4 PUSH2 0x1CDA JUMP JUMPDEST SWAP3 POP DUP3 PUSH32 0xFFFFFFFFFFFFFFFFFFFFFFFFFFFFFFFFFFFFFFFFFFFFFFFFFFFFFFFFFFFFFFFF SUB DUP3 GT ISZERO PUSH2 0x1C69 JUMPI PUSH2 0x1C68 PUSH2 0x1DE6 JUMP JUMPDEST JUMPDEST DUP3 DUP3 ADD SWAP1 POP SWAP3 SWAP2 POP POP JUMP JUMPDEST PUSH1 0x0 PUSH2 0x1C7F DUP3 PUSH2 0x1CDA JUMP JUMPDEST SWAP2 POP PUSH2 0x1C8A DUP4 PUSH2 0x1CDA JUMP JUMPDEST SWAP3 POP DUP3 DUP3 LT ISZERO PUSH2 0x1C9D JUMPI PUSH2 0x1C9C PUSH2 0x1DE6 JUMP JUMPDEST JUMPDEST DUP3 DUP3 SUB SWAP1 POP SWAP3 SWAP2 POP POP JUMP JUMPDEST PUSH1 0x0 PUSH2 0x1CB3 DUP3 PUSH2 0x1CBA JUMP JUMPDEST SWAP1 POP SWAP2 SWAP1 POP JUMP JUMPDEST PUSH1 0x0 PUSH20 0xFFFFFFFFFFFFFFFFFFFFFFFFFFFFFFFFFFFFFFFF DUP3 AND SWAP1 POP SWAP2 SWAP1 POP JUMP JUMPDEST PUSH1 0x0 DUP2 SWAP1 POP SWAP2 SWAP1 POP JUMP JUMPDEST PUSH1 0x0 PUSH2 0x1CEF DUP3 PUSH2 0x1D1A JUMP JUMPDEST SWAP1 POP SWAP2 SWAP1 POP JUMP JUMPDEST PUSH1 0x0 PUSH2 0x1D01 DUP3 PUSH2 0x1D1A JUMP JUMPDEST SWAP1 POP SWAP2 SWAP1 POP JUMP JUMPDEST PUSH1 0x0 PUSH2 0x1D13 DUP3 PUSH2 0x1CDA JUMP JUMPDEST SWAP1 POP SWAP2 SWAP1 POP JUMP JUMPDEST PUSH1 0x0 PUSH2 0x1D25 DUP3 PUSH2 0x1D2C JUMP JUMPDEST SWAP1 POP SWAP2 SWAP1 POP JUMP JUMPDEST PUSH1 0x0 PUSH2 0x1D37 DUP3 PUSH2 0x1CBA JUMP JUMPDEST SWAP1 POP SWAP2 SWAP1 POP JUMP JUMPDEST PUSH1 0x0 PUSH2 0x1D49 DUP3 PUSH2 0x1CDA JUMP JUMPDEST SWAP2 POP PUSH32 0xFFFFFFFFFFFFFFFFFFFFFFFFFFFFFFFFFFFFFFFFFFFFFFFFFFFFFFFFFFFFFFFF DUP3 EQ ISZERO PUSH2 0x1D7C JUMPI PUSH2 0x1D7B PUSH2 0x1DE6 JUMP JUMPDEST JUMPDEST PUSH1 0x1 DUP3 ADD SWAP1 POP SWAP2 SWAP1 POP JUMP JUMPDEST PUSH1 0x0 PUSH2 0x1D92 DUP3 PUSH2 0x1D99 JUMP JUMPDEST SWAP1 POP SWAP2 SWAP1 POP JUMP JUMPDEST PUSH1 0x0 PUSH2 0x1DA4 DUP3 PUSH2 0x1EA7 JUMP JUMPDEST SWAP1 POP SWAP2 SWAP1 POP JUMP JUMPDEST PUSH1 0x0 DUP2 SWAP1 POP SWAP2 SWAP1 POP JUMP JUMPDEST PUSH1 0x0 PUSH2 0x1DC0 DUP3 PUSH2 0x1CDA JUMP JUMPDEST SWAP2 POP PUSH2 0x1DCB DUP4 PUSH2 0x1CDA JUMP JUMPDEST SWAP3 POP DUP3 PUSH2 0x1DDB JUMPI PUSH2 0x1DDA PUSH2 0x1E15 JUMP JUMPDEST JUMPDEST DUP3 DUP3 MOD SWAP1 POP SWAP3 SWAP2 POP POP JUMP JUMPDEST PUSH32 0x4E487B7100000000000000000000000000000000000000000000000000000000 PUSH1 0x0 MSTORE PUSH1 0x11 PUSH1 0x4 MSTORE PUSH1 0x24 PUSH1 0x0 REVERT JUMPDEST PUSH32 0x4E487B7100000000000000000000000000000000000000000000000000000000 PUSH1 0x0 MSTORE PUSH1 0x12 PUSH1 0x4 MSTORE PUSH1 0x24 PUSH1 0x0 REVERT JUMPDEST PUSH32 0x4E487B7100000000000000000000000000000000000000000000000000000000 PUSH1 0x0 MSTORE PUSH1 0x32 PUSH1 0x4 MSTORE PUSH1 0x24 PUSH1 0x0 REVERT JUMPDEST PUSH32 0x4E487B7100000000000000000000000000000000000000000000000000000000 PUSH1 0x0 MSTORE PUSH1 0x41 PUSH1 0x4 MSTORE PUSH1 0x24 PUSH1 0x0 REVERT JUMPDEST PUSH1 0x0 DUP1 REVERT JUMPDEST PUSH1 0x0 DUP2 PUSH1 0x60 SHL SWAP1 POP SWAP2 SWAP1 POP JUMP JUMPDEST PUSH32 0x4F776E61626C653A206E6577206F776E657220697320746865207A65726F2061 PUSH1 0x0 DUP3 ADD MSTORE PUSH32 0x6464726573730000000000000000000000000000000000000000000000000000 PUSH1 0x20 DUP3 ADD MSTORE POP JUMP JUMPDEST PUSH32 0x4F776E61626C653A2063616C6C6572206973206E6F7420746865206F776E6572 PUSH1 0x0 DUP3 ADD MSTORE POP JUMP JUMPDEST PUSH2 0x1F35 DUP2 PUSH2 0x1CA8 JUMP JUMPDEST DUP2 EQ PUSH2 0x1F40 JUMPI PUSH1 0x0 DUP1 REVERT JUMPDEST POP JUMP JUMPDEST PUSH2 0x1F4C DUP2 PUSH2 0x1CDA JUMP JUMPDEST DUP2 EQ PUSH2 0x1F57 JUMPI PUSH1 0x0 DUP1 REVERT JUMPDEST POP JUMP INVALID LOG2 PUSH5 0x6970667358 0x22 SLT KECCAK256 TIMESTAMP 0xEF 0xD2 NUMBER 0x1F 0xDA 0xDC STATICCALL 0xC2 JUMPDEST PUSH23 0xD1C4AE7973339D0B7A83BB889FF81FA9FDD099A8B56473 PUSH16 0x6C634300080700330000000000000000 "
				},
				"gasEstimates": {
					"creation": {
						"codeDepositCost": "1616000",
						"executionCost": "infinite",
						"totalCost": "infinite"
					},
					"external": {
						"acesNFT()": "2689",
						"currentJackpot()": "2539",
						"getEntries()": "infinite",
						"getUniqueAddresses()": "infinite",
						"getUniqueUsers()": "infinite",
						"owner()": "2545",
						"paymentToken()": "2690",
						"pickWinner(uint256)": "infinite",
						"renounceOwnership()": "30463",
						"resultLog(uint256,uint256)": "infinite",
						"roundNum()": "2453",
						"roundResults(uint256)": "infinite",
						"totalPayout()": "2474",
						"transferOwnership(address)": "30767",
						"updateJackpot(uint256)": "24848",
						"updateToken(address)": "27073",
						"updateWinner(uint256,uint256)": "infinite",
						"userEntries(address)": "infinite"
					},
					"internal": {
						"random(uint256)": "infinite"
					}
				},
				"methodIdentifiers": {
					"acesNFT()": "aeb18350",
					"currentJackpot()": "f9cee0bd",
					"getEntries()": "17be85c3",
					"getUniqueAddresses()": "3b98bc65",
					"getUniqueUsers()": "158977de",
					"owner()": "8da5cb5b",
					"paymentToken()": "3013ce29",
					"pickWinner(uint256)": "f737d21d",
					"renounceOwnership()": "715018a6",
					"resultLog(uint256,uint256)": "bc15cdf0",
					"roundNum()": "119b22b3",
					"roundResults(uint256)": "ac128f4f",
					"totalPayout()": "454f7b8f",
					"transferOwnership(address)": "f2fde38b",
					"updateJackpot(uint256)": "f80fb76d",
					"updateToken(address)": "7ad3def2",
					"updateWinner(uint256,uint256)": "6fbb5a86",
					"userEntries(address)": "9f10a990"
				}
			},
			"storageLayout": {
				"storage": [
					{
						"astId": 444,
						"contract": "NFTlotto.sol:ACELotto",
						"label": "_owner",
						"offset": 0,
						"slot": "0",
						"type": "t_address"
					},
					{
						"astId": 35,
						"contract": "NFTlotto.sol:ACELotto",
						"label": "roundNum",
						"offset": 0,
						"slot": "1",
						"type": "t_uint256"
					},
					{
						"astId": 37,
						"contract": "NFTlotto.sol:ACELotto",
						"label": "totalPayout",
						"offset": 0,
						"slot": "2",
						"type": "t_uint256"
					},
					{
						"astId": 40,
						"contract": "NFTlotto.sol:ACELotto",
						"label": "currentJackpot",
						"offset": 0,
						"slot": "3",
						"type": "t_uint256"
					},
					{
						"astId": 43,
						"contract": "NFTlotto.sol:ACELotto",
						"label": "paymentToken",
						"offset": 0,
						"slot": "4",
						"type": "t_contract(IERC20)619"
					},
					{
						"astId": 46,
						"contract": "NFTlotto.sol:ACELotto",
						"label": "acesNFT",
						"offset": 0,
						"slot": "5",
						"type": "t_contract(IERC721Enumerable)766"
					},
					{
						"astId": 62,
						"contract": "NFTlotto.sol:ACELotto",
						"label": "roundResults",
						"offset": 0,
						"slot": "6",
						"type": "t_mapping(t_uint256,t_struct(Results)57_storage)"
					}
				],
				"types": {
					"t_address": {
						"encoding": "inplace",
						"label": "address",
						"numberOfBytes": "20"
					},
					"t_contract(IERC20)619": {
						"encoding": "inplace",
						"label": "contract IERC20",
						"numberOfBytes": "20"
					},
					"t_contract(IERC721Enumerable)766": {
						"encoding": "inplace",
						"label": "contract IERC721Enumerable",
						"numberOfBytes": "20"
					},
					"t_mapping(t_uint256,t_struct(Results)57_storage)": {
						"encoding": "mapping",
						"key": "t_uint256",
						"label": "mapping(uint256 => struct ACELotto.Results)",
						"numberOfBytes": "32",
						"value": "t_struct(Results)57_storage"
					},
					"t_struct(Results)57_storage": {
						"encoding": "inplace",
						"label": "struct ACELotto.Results",
						"members": [
							{
								"astId": 48,
								"contract": "NFTlotto.sol:ACELotto",
								"label": "totalEntries",
								"offset": 0,
								"slot": "0",
								"type": "t_uint256"
							},
							{
								"astId": 50,
								"contract": "NFTlotto.sol:ACELotto",
								"label": "winningNumber",
								"offset": 0,
								"slot": "1",
								"type": "t_uint256"
							},
							{
								"astId": 52,
								"contract": "NFTlotto.sol:ACELotto",
								"label": "payout",
								"offset": 0,
								"slot": "2",
								"type": "t_uint256"
							},
							{
								"astId": 54,
								"contract": "NFTlotto.sol:ACELotto",
								"label": "endTime",
								"offset": 0,
								"slot": "3",
								"type": "t_uint256"
							},
							{
								"astId": 56,
								"contract": "NFTlotto.sol:ACELotto",
								"label": "winningAddress",
								"offset": 0,
								"slot": "4",
								"type": "t_address"
							}
						],
						"numberOfBytes": "160"
					},
					"t_uint256": {
						"encoding": "inplace",
						"label": "uint256",
						"numberOfBytes": "32"
					}
				}
			},
			"userdoc": {
				"kind": "user",
				"methods": {},
				"version": 1
			}
		}
	}
}