{
	"lotto.sol": {
		"ACELotto": {
			"abi": [
				{
					"inputs": [],
					"stateMutability": "nonpayable",
					"type": "constructor"
				},
				{
					"anonymous": false,
					"inputs": [
						{
							"indexed": false,
							"internalType": "address",
							"name": "winner",
							"type": "address"
						},
						{
							"indexed": false,
							"internalType": "uint256",
							"name": "amount",
							"type": "uint256"
						}
					],
					"name": "LotteryWon",
					"type": "event"
				},
				{
					"anonymous": false,
					"inputs": [
						{
							"indexed": true,
							"internalType": "address",
							"name": "previousOwner",
							"type": "address"
						},
						{
							"indexed": true,
							"internalType": "address",
							"name": "newOwner",
							"type": "address"
						}
					],
					"name": "OwnershipTransferred",
					"type": "event"
				},
				{
					"inputs": [],
					"name": "BUSD",
					"outputs": [
						{
							"internalType": "contract IERC20",
							"name": "",
							"type": "address"
						}
					],
					"stateMutability": "view",
					"type": "function"
				},
				{
					"inputs": [],
					"name": "acesToken",
					"outputs": [
						{
							"internalType": "address",
							"name": "",
							"type": "address"
						}
					],
					"stateMutability": "view",
					"type": "function"
				},
				{
					"inputs": [],
					"name": "currentJackpot",
					"outputs": [
						{
							"internalType": "uint256",
							"name": "",
							"type": "uint256"
						}
					],
					"stateMutability": "view",
					"type": "function"
				},
				{
					"inputs": [
						{
							"internalType": "address",
							"name": "",
							"type": "address"
						},
						{
							"internalType": "uint256",
							"name": "",
							"type": "uint256"
						}
					],
					"name": "entriesIndex",
					"outputs": [
						{
							"internalType": "uint256",
							"name": "",
							"type": "uint256"
						}
					],
					"stateMutability": "view",
					"type": "function"
				},
				{
					"inputs": [],
					"name": "getUniqueAddresses",
					"outputs": [
						{
							"internalType": "address[]",
							"name": "addresses",
							"type": "address[]"
						},
						{
							"internalType": "uint256[]",
							"name": "entries",
							"type": "uint256[]"
						}
					],
					"stateMutability": "view",
					"type": "function"
				},
				{
					"inputs": [],
					"name": "getUniqueUsers",
					"outputs": [
						{
							"internalType": "uint256",
							"name": "counter",
							"type": "uint256"
						}
					],
					"stateMutability": "view",
					"type": "function"
				},
				{
					"inputs": [
						{
							"internalType": "address",
							"name": "account",
							"type": "address"
						}
					],
					"name": "isActiveAccount",
					"outputs": [
						{
							"internalType": "bool",
							"name": "",
							"type": "bool"
						}
					],
					"stateMutability": "view",
					"type": "function"
				},
				{
					"inputs": [],
					"name": "owner",
					"outputs": [
						{
							"internalType": "address",
							"name": "",
							"type": "address"
						}
					],
					"stateMutability": "view",
					"type": "function"
				},
				{
					"inputs": [
						{
							"internalType": "uint256",
							"name": "seed",
							"type": "uint256"
						}
					],
					"name": "pickWinner",
					"outputs": [
						{
							"internalType": "uint256",
							"name": "winnerNum",
							"type": "uint256"
						},
						{
							"internalType": "address",
							"name": "winnerAddress",
							"type": "address"
						}
					],
					"stateMutability": "view",
					"type": "function"
				},
				{
					"inputs": [
						{
							"internalType": "address",
							"name": "account",
							"type": "address"
						}
					],
					"name": "removeAccount",
					"outputs": [],
					"stateMutability": "nonpayable",
					"type": "function"
				},
				{
					"inputs": [
						{
							"internalType": "address",
							"name": "account",
							"type": "address"
						},
						{
							"internalType": "uint256",
							"name": "amount",
							"type": "uint256"
						}
					],
					"name": "removeEntryFromWallet",
					"outputs": [],
					"stateMutability": "nonpayable",
					"type": "function"
				},
				{
					"inputs": [],
					"name": "renounceOwnership",
					"outputs": [],
					"stateMutability": "nonpayable",
					"type": "function"
				},
				{
					"inputs": [
						{
							"internalType": "uint256",
							"name": "startIndex",
							"type": "uint256"
						},
						{
							"internalType": "uint256",
							"name": "endIndex",
							"type": "uint256"
						}
					],
					"name": "resultLog",
					"outputs": [
						{
							"components": [
								{
									"internalType": "uint256",
									"name": "totalEntries",
									"type": "uint256"
								},
								{
									"internalType": "uint256",
									"name": "winningNumber",
									"type": "uint256"
								},
								{
									"internalType": "uint256",
									"name": "payout",
									"type": "uint256"
								},
								{
									"internalType": "uint256",
									"name": "endTime",
									"type": "uint256"
								},
								{
									"internalType": "address",
									"name": "winningAddress",
									"type": "address"
								}
							],
							"internalType": "struct ACELotto.Results[]",
							"name": "log",
							"type": "tuple[]"
						}
					],
					"stateMutability": "view",
					"type": "function"
				},
				{
					"inputs": [],
					"name": "roundEntries",
					"outputs": [
						{
							"internalType": "uint256",
							"name": "",
							"type": "uint256"
						}
					],
					"stateMutability": "view",
					"type": "function"
				},
				{
					"inputs": [
						{
							"internalType": "uint256",
							"name": "",
							"type": "uint256"
						}
					],
					"name": "roundEntry",
					"outputs": [
						{
							"internalType": "address",
							"name": "",
							"type": "address"
						}
					],
					"stateMutability": "view",
					"type": "function"
				},
				{
					"inputs": [],
					"name": "roundNum",
					"outputs": [
						{
							"internalType": "uint256",
							"name": "",
							"type": "uint256"
						}
					],
					"stateMutability": "view",
					"type": "function"
				},
				{
					"inputs": [
						{
							"internalType": "uint256",
							"name": "",
							"type": "uint256"
						}
					],
					"name": "roundResults",
					"outputs": [
						{
							"internalType": "uint256",
							"name": "totalEntries",
							"type": "uint256"
						},
						{
							"internalType": "uint256",
							"name": "winningNumber",
							"type": "uint256"
						},
						{
							"internalType": "uint256",
							"name": "payout",
							"type": "uint256"
						},
						{
							"internalType": "uint256",
							"name": "endTime",
							"type": "uint256"
						},
						{
							"internalType": "address",
							"name": "winningAddress",
							"type": "address"
						}
					],
					"stateMutability": "view",
					"type": "function"
				},
				{
					"inputs": [],
					"name": "totalPayout",
					"outputs": [
						{
							"internalType": "uint256",
							"name": "",
							"type": "uint256"
						}
					],
					"stateMutability": "view",
					"type": "function"
				},
				{
					"inputs": [
						{
							"internalType": "address",
							"name": "newOwner",
							"type": "address"
						}
					],
					"name": "transferOwnership",
					"outputs": [],
					"stateMutability": "nonpayable",
					"type": "function"
				},
				{
					"inputs": [],
					"name": "treasuryWallet",
					"outputs": [
						{
							"internalType": "address",
							"name": "",
							"type": "address"
						}
					],
					"stateMutability": "view",
					"type": "function"
				},
				{
					"inputs": [
						{
							"internalType": "address",
							"name": "account",
							"type": "address"
						},
						{
							"internalType": "uint256",
							"name": "amount",
							"type": "uint256"
						}
					],
					"name": "updateAccount",
					"outputs": [],
					"stateMutability": "nonpayable",
					"type": "function"
				},
				{
					"inputs": [
						{
							"internalType": "uint256",
							"name": "winnerNum",
							"type": "uint256"
						},
						{
							"internalType": "uint256",
							"name": "payout",
							"type": "uint256"
						}
					],
					"name": "updateWinner",
					"outputs": [],
					"stateMutability": "nonpayable",
					"type": "function"
				},
				{
					"inputs": [
						{
							"internalType": "address",
							"name": "account",
							"type": "address"
						}
					],
					"name": "userEntries",
					"outputs": [
						{
							"internalType": "uint256",
							"name": "",
							"type": "uint256"
						}
					],
					"stateMutability": "view",
					"type": "function"
				}
			],
			"devdoc": {
				"kind": "dev",
				"methods": {
					"owner()": {
						"details": "Returns the address of the current owner."
					},
					"renounceOwnership()": {
						"details": "Leaves the contract without owner. It will not be possible to call `onlyOwner` functions anymore. Can only be called by the current owner. NOTE: Renouncing ownership will leave the contract without an owner, thereby removing any functionality that is only available to the owner."
					},
					"transferOwnership(address)": {
						"details": "Transfers ownership of the contract to a new account (`newOwner`). Can only be called by the current owner."
					}
				},
				"version": 1
			},
			"evm": {
				"assembly": "    /* \"lotto.sol\":595:5683  contract ACELotto is Ownable {   \r... */\n  mstore(0x40, 0x80)\n    /* \"lotto.sol\":765:807  0xe9e7CEA3DedcA5984780Bafc599bD69ADd087D56 */\n  0xe9e7cea3dedca5984780bafc599bd69add087d56\n    /* \"lotto.sol\":737:808  IERC20 public BUSD = IERC20(0xe9e7CEA3DedcA5984780Bafc599bD69ADd087D56) */\n  0x04\n  exp(0x0100, 0x00)\n  dup2\n  sload\n  dup2\n  0xffffffffffffffffffffffffffffffffffffffff\n  mul\n  not\n  and\n  swap1\n  dup4\n  0xffffffffffffffffffffffffffffffffffffffff\n  and\n  mul\n  or\n  swap1\n  sstore\n  pop\n    /* \"lotto.sol\":844:886  0x5B38Da6a701c568545dCfcB03FcB875f56beddC4 */\n  0x5b38da6a701c568545dcfcb03fcb875f56beddc4\n    /* \"lotto.sol\":817:886  address public acesToken = 0x5B38Da6a701c568545dCfcB03FcB875f56beddC4 */\n  0x05\n  exp(0x0100, 0x00)\n  dup2\n  sload\n  dup2\n  0xffffffffffffffffffffffffffffffffffffffff\n  mul\n  not\n  and\n  swap1\n  dup4\n  0xffffffffffffffffffffffffffffffffffffffff\n  and\n  mul\n  or\n  swap1\n  sstore\n  pop\n    /* \"lotto.sol\":925:967  0x0eD2Fd07B8BE10E2b8737e39AD33663DC711C31B */\n  0x0ed2fd07b8be10e2b8737e39ad33663dc711c31b\n    /* \"lotto.sol\":893:967  address public treasuryWallet = 0x0eD2Fd07B8BE10E2b8737e39AD33663DC711C31B */\n  0x06\n  exp(0x0100, 0x00)\n  dup2\n  sload\n  dup2\n  0xffffffffffffffffffffffffffffffffffffffff\n  mul\n  not\n  and\n  swap1\n  dup4\n  0xffffffffffffffffffffffffffffffffffffffff\n  and\n  mul\n  or\n  swap1\n  sstore\n  pop\n    /* \"lotto.sol\":1379:1394  constructor(){} */\n  callvalue\n  dup1\n  iszero\n  tag_1\n  jumpi\n  0x00\n  dup1\n  revert\ntag_1:\n  pop\n    /* \"https://github.com/OpenZeppelin/openzeppelin-contracts/blob/master/contracts/access/Ownable.sol\":921:953  _transferOwnership(_msgSender()) */\n  tag_5\n    /* \"https://github.com/OpenZeppelin/openzeppelin-contracts/blob/master/contracts/access/Ownable.sol\":940:952  _msgSender() */\n  tag_6\n    /* \"https://github.com/OpenZeppelin/openzeppelin-contracts/blob/master/contracts/access/Ownable.sol\":940:950  _msgSender */\n  shl(0x20, tag_7)\n    /* \"https://github.com/OpenZeppelin/openzeppelin-contracts/blob/master/contracts/access/Ownable.sol\":940:952  _msgSender() */\n  0x20\n  shr\n  jump\t// in\ntag_6:\n    /* \"https://github.com/OpenZeppelin/openzeppelin-contracts/blob/master/contracts/access/Ownable.sol\":921:939  _transferOwnership */\n  shl(0x20, tag_8)\n    /* \"https://github.com/OpenZeppelin/openzeppelin-contracts/blob/master/contracts/access/Ownable.sol\":921:953  _transferOwnership(_msgSender()) */\n  0x20\n  shr\n  jump\t// in\ntag_5:\n    /* \"lotto.sol\":595:5683  contract ACELotto is Ownable {   \r... */\n  jump(tag_10)\n    /* \"https://github.com/OpenZeppelin/openzeppelin-contracts/blob/master/contracts/utils/Context.sol\":640:736  function _msgSender() internal view virtual returns (address) {... */\ntag_7:\n    /* \"https://github.com/OpenZeppelin/openzeppelin-contracts/blob/master/contracts/utils/Context.sol\":693:700  address */\n  0x00\n    /* \"https://github.com/OpenZeppelin/openzeppelin-contracts/blob/master/contracts/utils/Context.sol\":719:729  msg.sender */\n  caller\n    /* \"https://github.com/OpenZeppelin/openzeppelin-contracts/blob/master/contracts/utils/Context.sol\":712:729  return msg.sender */\n  swap1\n  pop\n    /* \"https://github.com/OpenZeppelin/openzeppelin-contracts/blob/master/contracts/utils/Context.sol\":640:736  function _msgSender() internal view virtual returns (address) {... */\n  swap1\n  jump\t// out\n    /* \"https://github.com/OpenZeppelin/openzeppelin-contracts/blob/master/contracts/access/Ownable.sol\":2270:2457  function _transferOwnership(address newOwner) internal virtual {... */\ntag_8:\n    /* \"https://github.com/OpenZeppelin/openzeppelin-contracts/blob/master/contracts/access/Ownable.sol\":2343:2359  address oldOwner */\n  0x00\n    /* \"https://github.com/OpenZeppelin/openzeppelin-contracts/blob/master/contracts/access/Ownable.sol\":2362:2368  _owner */\n  dup1\n  0x00\n  swap1\n  sload\n  swap1\n  0x0100\n  exp\n  swap1\n  div\n  0xffffffffffffffffffffffffffffffffffffffff\n  and\n    /* \"https://github.com/OpenZeppelin/openzeppelin-contracts/blob/master/contracts/access/Ownable.sol\":2343:2368  address oldOwner = _owner */\n  swap1\n  pop\n    /* \"https://github.com/OpenZeppelin/openzeppelin-contracts/blob/master/contracts/access/Ownable.sol\":2387:2395  newOwner */\n  dup2\n    /* \"https://github.com/OpenZeppelin/openzeppelin-contracts/blob/master/contracts/access/Ownable.sol\":2378:2384  _owner */\n  0x00\n  dup1\n    /* \"https://github.com/OpenZeppelin/openzeppelin-contracts/blob/master/contracts/access/Ownable.sol\":2378:2395  _owner = newOwner */\n  0x0100\n  exp\n  dup2\n  sload\n  dup2\n  0xffffffffffffffffffffffffffffffffffffffff\n  mul\n  not\n  and\n  swap1\n  dup4\n  0xffffffffffffffffffffffffffffffffffffffff\n  and\n  mul\n  or\n  swap1\n  sstore\n  pop\n    /* \"https://github.com/OpenZeppelin/openzeppelin-contracts/blob/master/contracts/access/Ownable.sol\":2441:2449  newOwner */\n  dup2\n    /* \"https://github.com/OpenZeppelin/openzeppelin-contracts/blob/master/contracts/access/Ownable.sol\":2410:2450  OwnershipTransferred(oldOwner, newOwner) */\n  0xffffffffffffffffffffffffffffffffffffffff\n  and\n    /* \"https://github.com/OpenZeppelin/openzeppelin-contracts/blob/master/contracts/access/Ownable.sol\":2431:2439  oldOwner */\n  dup2\n    /* \"https://github.com/OpenZeppelin/openzeppelin-contracts/blob/master/contracts/access/Ownable.sol\":2410:2450  OwnershipTransferred(oldOwner, newOwner) */\n  0xffffffffffffffffffffffffffffffffffffffff\n  and\n  0x8be0079c531659141344cd1fd0a4f28419497f9722a3daafe3b4186f6b6457e0\n  mload(0x40)\n  mload(0x40)\n  dup1\n  swap2\n  sub\n  swap1\n  log3\n    /* \"https://github.com/OpenZeppelin/openzeppelin-contracts/blob/master/contracts/access/Ownable.sol\":2333:2457  {... */\n  pop\n    /* \"https://github.com/OpenZeppelin/openzeppelin-contracts/blob/master/contracts/access/Ownable.sol\":2270:2457  function _transferOwnership(address newOwner) internal virtual {... */\n  pop\n  jump\t// out\n    /* \"lotto.sol\":595:5683  contract ACELotto is Ownable {   \r... */\ntag_10:\n  dataSize(sub_0)\n  dup1\n  dataOffset(sub_0)\n  0x00\n  codecopy\n  0x00\n  return\nstop\n\nsub_0: assembly {\n        /* \"lotto.sol\":595:5683  contract ACELotto is Ownable {   \r... */\n      mstore(0x40, 0x80)\n      callvalue\n      dup1\n      iszero\n      tag_1\n      jumpi\n      0x00\n      dup1\n      revert\n    tag_1:\n      pop\n      jumpi(tag_2, lt(calldatasize, 0x04))\n      shr(0xe0, calldataload(0x00))\n      dup1\n      0x76636d20\n      gt\n      tag_26\n      jumpi\n      dup1\n      0xb657dd65\n      gt\n      tag_27\n      jumpi\n      dup1\n      0xb657dd65\n      eq\n      tag_20\n      jumpi\n      dup1\n      0xbc15cdf0\n      eq\n      tag_21\n      jumpi\n      dup1\n      0xc4740a95\n      eq\n      tag_22\n      jumpi\n      dup1\n      0xf2fde38b\n      eq\n      tag_23\n      jumpi\n      dup1\n      0xf737d21d\n      eq\n      tag_24\n      jumpi\n      dup1\n      0xf9cee0bd\n      eq\n      tag_25\n      jumpi\n      jump(tag_2)\n    tag_27:\n      dup1\n      0x76636d20\n      eq\n      tag_14\n      jumpi\n      dup1\n      0x8da5cb5b\n      eq\n      tag_15\n      jumpi\n      dup1\n      0x9b3e4552\n      eq\n      tag_16\n      jumpi\n      dup1\n      0x9f10a990\n      eq\n      tag_17\n      jumpi\n      dup1\n      0xa59460dc\n      eq\n      tag_18\n      jumpi\n      dup1\n      0xac128f4f\n      eq\n      tag_19\n      jumpi\n      jump(tag_2)\n    tag_26:\n      dup1\n      0x454f7b8f\n      gt\n      tag_28\n      jumpi\n      dup1\n      0x454f7b8f\n      eq\n      tag_8\n      jumpi\n      dup1\n      0x4626402b\n      eq\n      tag_9\n      jumpi\n      dup1\n      0x484f4ea9\n      eq\n      tag_10\n      jumpi\n      dup1\n      0x5bedc390\n      eq\n      tag_11\n      jumpi\n      dup1\n      0x6fbb5a86\n      eq\n      tag_12\n      jumpi\n      dup1\n      0x715018a6\n      eq\n      tag_13\n      jumpi\n      jump(tag_2)\n    tag_28:\n      dup1\n      0x0d988270\n      eq\n      tag_3\n      jumpi\n      dup1\n      0x119b22b3\n      eq\n      tag_4\n      jumpi\n      dup1\n      0x158977de\n      eq\n      tag_5\n      jumpi\n      dup1\n      0x3b98bc65\n      eq\n      tag_6\n      jumpi\n      dup1\n      0x443b80a1\n      eq\n      tag_7\n      jumpi\n    tag_2:\n      0x00\n      dup1\n      revert\n        /* \"lotto.sol\":1264:1313  mapping(address => uint256[]) public entriesIndex */\n    tag_3:\n      tag_29\n      0x04\n      dup1\n      calldatasize\n      sub\n      dup2\n      add\n      swap1\n      tag_30\n      swap2\n      swap1\n      tag_31\n      jump\t// in\n    tag_30:\n      tag_32\n      jump\t// in\n    tag_29:\n      mload(0x40)\n      tag_33\n      swap2\n      swap1\n      tag_34\n      jump\t// in\n    tag_33:\n      mload(0x40)\n      dup1\n      swap2\n      sub\n      swap1\n      return\n        /* \"lotto.sol\":668:691  uint256 public roundNum */\n    tag_4:\n      tag_35\n      tag_36\n      jump\t// in\n    tag_35:\n      mload(0x40)\n      tag_37\n      swap2\n      swap1\n      tag_34\n      jump\t// in\n    tag_37:\n      mload(0x40)\n      dup1\n      swap2\n      sub\n      swap1\n      return\n        /* \"lotto.sol\":4364:4644  function getUniqueUsers() public view returns (uint256 counter) {\r... */\n    tag_5:\n      tag_38\n      tag_39\n      jump\t// in\n    tag_38:\n      mload(0x40)\n      tag_40\n      swap2\n      swap1\n      tag_34\n      jump\t// in\n    tag_40:\n      mload(0x40)\n      dup1\n      swap2\n      sub\n      swap1\n      return\n        /* \"lotto.sol\":4652:5255  function getUniqueAddresses() public view returns (address [] memory addresses, uint256 [] memory entries) {\r... */\n    tag_6:\n      tag_41\n      tag_42\n      jump\t// in\n    tag_41:\n      mload(0x40)\n      tag_43\n      swap3\n      swap2\n      swap1\n      tag_44\n      jump\t// in\n    tag_43:\n      mload(0x40)\n      dup1\n      swap2\n      sub\n      swap1\n      return\n        /* \"lotto.sol\":1539:1822  function updateAccount(address account, uint256 amount) external restricted{\r... */\n    tag_7:\n      tag_45\n      0x04\n      dup1\n      calldatasize\n      sub\n      dup2\n      add\n      swap1\n      tag_46\n      swap2\n      swap1\n      tag_31\n      jump\t// in\n    tag_46:\n      tag_47\n      jump\t// in\n    tag_45:\n      stop\n        /* \"lotto.sol\":698:724  uint256 public totalPayout */\n    tag_8:\n      tag_48\n      tag_49\n      jump\t// in\n    tag_48:\n      mload(0x40)\n      tag_50\n      swap2\n      swap1\n      tag_34\n      jump\t// in\n    tag_50:\n      mload(0x40)\n      dup1\n      swap2\n      sub\n      swap1\n      return\n        /* \"lotto.sol\":893:967  address public treasuryWallet = 0x0eD2Fd07B8BE10E2b8737e39AD33663DC711C31B */\n    tag_9:\n      tag_51\n      tag_52\n      jump\t// in\n    tag_51:\n      mload(0x40)\n      tag_53\n      swap2\n      swap1\n      tag_54\n      jump\t// in\n    tag_53:\n      mload(0x40)\n      dup1\n      swap2\n      sub\n      swap1\n      return\n        /* \"lotto.sol\":737:808  IERC20 public BUSD = IERC20(0xe9e7CEA3DedcA5984780Bafc599bD69ADd087D56) */\n    tag_10:\n      tag_55\n      tag_56\n      jump\t// in\n    tag_55:\n      mload(0x40)\n      tag_57\n      swap2\n      swap1\n      tag_58\n      jump\t// in\n    tag_57:\n      mload(0x40)\n      dup1\n      swap2\n      sub\n      swap1\n      return\n        /* \"lotto.sol\":2615:2784  function isActiveAccount(address account) external view returns(bool){\r... */\n    tag_11:\n      tag_59\n      0x04\n      dup1\n      calldatasize\n      sub\n      dup2\n      add\n      swap1\n      tag_60\n      swap2\n      swap1\n      tag_61\n      jump\t// in\n    tag_60:\n      tag_62\n      jump\t// in\n    tag_59:\n      mload(0x40)\n      tag_63\n      swap2\n      swap1\n      tag_64\n      jump\t// in\n    tag_63:\n      mload(0x40)\n      dup1\n      swap2\n      sub\n      swap1\n      return\n        /* \"lotto.sol\":3004:3508  function updateWinner(uint256 winnerNum, uint256 payout) external onlyOwner {      \r... */\n    tag_12:\n      tag_65\n      0x04\n      dup1\n      calldatasize\n      sub\n      dup2\n      add\n      swap1\n      tag_66\n      swap2\n      swap1\n      tag_67\n      jump\t// in\n    tag_66:\n      tag_68\n      jump\t// in\n    tag_65:\n      stop\n        /* \"https://github.com/OpenZeppelin/openzeppelin-contracts/blob/master/contracts/access/Ownable.sol\":1668:1769  function renounceOwnership() public virtual onlyOwner {... */\n    tag_13:\n      tag_69\n      tag_70\n      jump\t// in\n    tag_69:\n      stop\n        /* \"lotto.sol\":634:661  uint256 public roundEntries */\n    tag_14:\n      tag_71\n      tag_72\n      jump\t// in\n    tag_71:\n      mload(0x40)\n      tag_73\n      swap2\n      swap1\n      tag_34\n      jump\t// in\n    tag_73:\n      mload(0x40)\n      dup1\n      swap2\n      sub\n      swap1\n      return\n        /* \"https://github.com/OpenZeppelin/openzeppelin-contracts/blob/master/contracts/access/Ownable.sol\":1036:1121  function owner() public view virtual returns (address) {... */\n    tag_15:\n      tag_74\n      tag_75\n      jump\t// in\n    tag_74:\n      mload(0x40)\n      tag_76\n      swap2\n      swap1\n      tag_54\n      jump\t// in\n    tag_76:\n      mload(0x40)\n      dup1\n      swap2\n      sub\n      swap1\n      return\n        /* \"lotto.sol\":817:886  address public acesToken = 0x5B38Da6a701c568545dCfcB03FcB875f56beddC4 */\n    tag_16:\n      tag_77\n      tag_78\n      jump\t// in\n    tag_77:\n      mload(0x40)\n      tag_79\n      swap2\n      swap1\n      tag_54\n      jump\t// in\n    tag_79:\n      mload(0x40)\n      dup1\n      swap2\n      sub\n      swap1\n      return\n        /* \"lotto.sol\":3636:3758  function userEntries(address account) public view returns (uint256) {\r... */\n    tag_17:\n      tag_80\n      0x04\n      dup1\n      calldatasize\n      sub\n      dup2\n      add\n      swap1\n      tag_81\n      swap2\n      swap1\n      tag_61\n      jump\t// in\n    tag_81:\n      tag_82\n      jump\t// in\n    tag_80:\n      mload(0x40)\n      tag_83\n      swap2\n      swap1\n      tag_34\n      jump\t// in\n    tag_83:\n      mload(0x40)\n      dup1\n      swap2\n      sub\n      swap1\n      return\n        /* \"lotto.sol\":1830:2419  function removeEntryFromWallet(address account, uint256 amount) public restricted {\r... */\n    tag_18:\n      tag_84\n      0x04\n      dup1\n      calldatasize\n      sub\n      dup2\n      add\n      swap1\n      tag_85\n      swap2\n      swap1\n      tag_31\n      jump\t// in\n    tag_85:\n      tag_86\n      jump\t// in\n    tag_84:\n      stop\n        /* \"lotto.sol\":1158:1205  mapping(uint256 => Results) public roundResults */\n    tag_19:\n      tag_87\n      0x04\n      dup1\n      calldatasize\n      sub\n      dup2\n      add\n      swap1\n      tag_88\n      swap2\n      swap1\n      tag_89\n      jump\t// in\n    tag_88:\n      tag_90\n      jump\t// in\n    tag_87:\n      mload(0x40)\n      tag_91\n      swap6\n      swap5\n      swap4\n      swap3\n      swap2\n      swap1\n      tag_92\n      jump\t// in\n    tag_91:\n      mload(0x40)\n      dup1\n      swap2\n      sub\n      swap1\n      return\n        /* \"lotto.sol\":1212:1257  mapping(uint256 => address) public roundEntry */\n    tag_20:\n      tag_93\n      0x04\n      dup1\n      calldatasize\n      sub\n      dup2\n      add\n      swap1\n      tag_94\n      swap2\n      swap1\n      tag_89\n      jump\t// in\n    tag_94:\n      tag_95\n      jump\t// in\n    tag_93:\n      mload(0x40)\n      tag_96\n      swap2\n      swap1\n      tag_54\n      jump\t// in\n    tag_96:\n      mload(0x40)\n      dup1\n      swap2\n      sub\n      swap1\n      return\n        /* \"lotto.sol\":3766:4356  function resultLog(uint256 startIndex, uint256 endIndex) external view returns(Results [] memory log){\r... */\n    tag_21:\n      tag_97\n      0x04\n      dup1\n      calldatasize\n      sub\n      dup2\n      add\n      swap1\n      tag_98\n      swap2\n      swap1\n      tag_67\n      jump\t// in\n    tag_98:\n      tag_99\n      jump\t// in\n    tag_97:\n      mload(0x40)\n      tag_100\n      swap2\n      swap1\n      tag_101\n      jump\t// in\n    tag_100:\n      mload(0x40)\n      dup1\n      swap2\n      sub\n      swap1\n      return\n        /* \"lotto.sol\":2427:2607  function removeAccount(address account) external restricted{\r... */\n    tag_22:\n      tag_102\n      0x04\n      dup1\n      calldatasize\n      sub\n      dup2\n      add\n      swap1\n      tag_103\n      swap2\n      swap1\n      tag_61\n      jump\t// in\n    tag_103:\n      tag_104\n      jump\t// in\n    tag_102:\n      stop\n        /* \"https://github.com/OpenZeppelin/openzeppelin-contracts/blob/master/contracts/access/Ownable.sol\":1918:2116  function transferOwnership(address newOwner) public virtual onlyOwner {... */\n    tag_23:\n      tag_105\n      0x04\n      dup1\n      calldatasize\n      sub\n      dup2\n      add\n      swap1\n      tag_106\n      swap2\n      swap1\n      tag_61\n      jump\t// in\n    tag_106:\n      tag_107\n      jump\t// in\n    tag_105:\n      stop\n        /* \"lotto.sol\":2792:2996  function pickWinner(uint256 seed) external view returns(uint256 winnerNum, address winnerAddress) {\r... */\n    tag_24:\n      tag_108\n      0x04\n      dup1\n      calldatasize\n      sub\n      dup2\n      add\n      swap1\n      tag_109\n      swap2\n      swap1\n      tag_89\n      jump\t// in\n    tag_109:\n      tag_110\n      jump\t// in\n    tag_108:\n      mload(0x40)\n      tag_111\n      swap3\n      swap2\n      swap1\n      tag_112\n      jump\t// in\n    tag_111:\n      mload(0x40)\n      dup1\n      swap2\n      sub\n      swap1\n      return\n        /* \"lotto.sol\":3516:3628  function currentJackpot() public view returns (uint256) {\r... */\n    tag_25:\n      tag_113\n      tag_114\n      jump\t// in\n    tag_113:\n      mload(0x40)\n      tag_115\n      swap2\n      swap1\n      tag_34\n      jump\t// in\n    tag_115:\n      mload(0x40)\n      dup1\n      swap2\n      sub\n      swap1\n      return\n        /* \"lotto.sol\":1264:1313  mapping(address => uint256[]) public entriesIndex */\n    tag_32:\n      mstore(0x20, 0x09)\n      dup2\n      0x00\n      mstore\n      keccak256(0x00, 0x40)\n      dup2\n      dup2\n      sload\n      dup2\n      lt\n      tag_116\n      jumpi\n      0x00\n      dup1\n      revert\n    tag_116:\n      swap1\n      0x00\n      mstore\n      keccak256(0x00, 0x20)\n      add\n      0x00\n      swap2\n      pop\n      swap2\n      pop\n      pop\n      sload\n      dup2\n      jump\t// out\n        /* \"lotto.sol\":668:691  uint256 public roundNum */\n    tag_36:\n      sload(0x02)\n      dup2\n      jump\t// out\n        /* \"lotto.sol\":4364:4644  function getUniqueUsers() public view returns (uint256 counter) {\r... */\n    tag_39:\n        /* \"lotto.sol\":4411:4426  uint256 counter */\n      0x00\n        /* \"lotto.sol\":4461:4470  uint256 i */\n      dup1\n        /* \"lotto.sol\":4457:4637  for(uint256 i; i < roundEntries; i++){\r... */\n    tag_119:\n        /* \"lotto.sol\":4476:4488  roundEntries */\n      sload(0x01)\n        /* \"lotto.sol\":4472:4473  i */\n      dup2\n        /* \"lotto.sol\":4472:4488  i < roundEntries */\n      lt\n        /* \"lotto.sol\":4457:4637  for(uint256 i; i < roundEntries; i++){\r... */\n      iszero\n      tag_120\n      jumpi\n        /* \"lotto.sol\":4509:4521  address user */\n      0x00\n        /* \"lotto.sol\":4524:4534  roundEntry */\n      0x08\n        /* \"lotto.sol\":4524:4537  roundEntry[i] */\n      0x00\n        /* \"lotto.sol\":4535:4536  i */\n      dup4\n        /* \"lotto.sol\":4524:4537  roundEntry[i] */\n      dup2\n      mstore\n      0x20\n      add\n      swap1\n      dup2\n      mstore\n      0x20\n      add\n      0x00\n      keccak256\n      0x00\n      swap1\n      sload\n      swap1\n      0x0100\n      exp\n      swap1\n      div\n      0xffffffffffffffffffffffffffffffffffffffff\n      and\n        /* \"lotto.sol\":4509:4537  address user = roundEntry[i] */\n      swap1\n      pop\n        /* \"lotto.sol\":4560:4572  entriesIndex */\n      0x09\n        /* \"lotto.sol\":4560:4578  entriesIndex[user] */\n      0x00\n        /* \"lotto.sol\":4573:4577  user */\n      dup3\n        /* \"lotto.sol\":4560:4578  entriesIndex[user] */\n      0xffffffffffffffffffffffffffffffffffffffff\n      and\n      0xffffffffffffffffffffffffffffffffffffffff\n      and\n      dup2\n      mstore\n      0x20\n      add\n      swap1\n      dup2\n      mstore\n      0x20\n      add\n      0x00\n      keccak256\n        /* \"lotto.sol\":4579:4580  0 */\n      0x00\n        /* \"lotto.sol\":4560:4581  entriesIndex[user][0] */\n      dup2\n      sload\n      dup2\n      lt\n      tag_122\n      jumpi\n      tag_123\n      tag_124\n      jump\t// in\n    tag_123:\n    tag_122:\n      swap1\n      0x00\n      mstore\n      keccak256(0x00, 0x20)\n      add\n      sload\n        /* \"lotto.sol\":4555:4556  i */\n      dup3\n        /* \"lotto.sol\":4555:4581  i == entriesIndex[user][0] */\n      eq\n        /* \"lotto.sol\":4552:4626  if(i == entriesIndex[user][0]){\r... */\n      iszero\n      tag_126\n      jumpi\n        /* \"lotto.sol\":4601:4610  counter++ */\n      dup3\n      dup1\n      tag_127\n      swap1\n      tag_128\n      jump\t// in\n    tag_127:\n      swap4\n      pop\n      pop\n        /* \"lotto.sol\":4552:4626  if(i == entriesIndex[user][0]){\r... */\n    tag_126:\n        /* \"lotto.sol\":4494:4637  {\r... */\n      pop\n        /* \"lotto.sol\":4490:4493  i++ */\n      dup1\n      dup1\n      tag_129\n      swap1\n      tag_128\n      jump\t// in\n    tag_129:\n      swap2\n      pop\n      pop\n        /* \"lotto.sol\":4457:4637  for(uint256 i; i < roundEntries; i++){\r... */\n      jump(tag_119)\n    tag_120:\n      pop\n        /* \"lotto.sol\":4364:4644  function getUniqueUsers() public view returns (uint256 counter) {\r... */\n      swap1\n      jump\t// out\n        /* \"lotto.sol\":4652:5255  function getUniqueAddresses() public view returns (address [] memory addresses, uint256 [] memory entries) {\r... */\n    tag_42:\n        /* \"lotto.sol\":4703:4730  address [] memory addresses */\n      0x60\n        /* \"lotto.sol\":4732:4757  uint256 [] memory entries */\n      dup1\n        /* \"lotto.sol\":4770:4789  uint256 arrayLength */\n      0x00\n        /* \"lotto.sol\":4792:4808  getUniqueUsers() */\n      tag_131\n        /* \"lotto.sol\":4792:4806  getUniqueUsers */\n      tag_39\n        /* \"lotto.sol\":4792:4808  getUniqueUsers() */\n      jump\t// in\n    tag_131:\n        /* \"lotto.sol\":4770:4808  uint256 arrayLength = getUniqueUsers() */\n      swap1\n      pop\n        /* \"lotto.sol\":4845:4856  arrayLength */\n      dup1\n        /* \"lotto.sol\":4831:4857  new address[](arrayLength) */\n      0xffffffffffffffff\n      dup2\n      gt\n      iszero\n      tag_132\n      jumpi\n      tag_133\n      tag_134\n      jump\t// in\n    tag_133:\n    tag_132:\n      mload(0x40)\n      swap1\n      dup1\n      dup3\n      mstore\n      dup1\n      0x20\n      mul\n      0x20\n      add\n      dup3\n      add\n      0x40\n      mstore\n      dup1\n      iszero\n      tag_135\n      jumpi\n      dup2\n      0x20\n      add\n      0x20\n      dup3\n      mul\n      dup1\n      calldatasize\n      dup4\n      calldatacopy\n      dup1\n      dup3\n      add\n      swap2\n      pop\n      pop\n      swap1\n      pop\n    tag_135:\n      pop\n        /* \"lotto.sol\":4819:4857  addresses = new address[](arrayLength) */\n      swap3\n      pop\n        /* \"lotto.sol\":4892:4903  arrayLength */\n      dup1\n        /* \"lotto.sol\":4878:4904  new uint256[](arrayLength) */\n      0xffffffffffffffff\n      dup2\n      gt\n      iszero\n      tag_136\n      jumpi\n      tag_137\n      tag_134\n      jump\t// in\n    tag_137:\n    tag_136:\n      mload(0x40)\n      swap1\n      dup1\n      dup3\n      mstore\n      dup1\n      0x20\n      mul\n      0x20\n      add\n      dup3\n      add\n      0x40\n      mstore\n      dup1\n      iszero\n      tag_138\n      jumpi\n      dup2\n      0x20\n      add\n      0x20\n      dup3\n      mul\n      dup1\n      calldatasize\n      dup4\n      calldatacopy\n      dup1\n      dup3\n      add\n      swap2\n      pop\n      pop\n      swap1\n      pop\n    tag_138:\n      pop\n        /* \"lotto.sol\":4868:4904  entries = new uint256[](arrayLength) */\n      swap2\n      pop\n        /* \"lotto.sol\":4915:4935  uint256 currentIndex */\n      0x00\n        /* \"lotto.sol\":4950:4959  uint256 i */\n      dup1\n        /* \"lotto.sol\":4946:5248  for(uint256 i; i < roundEntries; i++){\r... */\n    tag_139:\n        /* \"lotto.sol\":4965:4977  roundEntries */\n      sload(0x01)\n        /* \"lotto.sol\":4961:4962  i */\n      dup2\n        /* \"lotto.sol\":4961:4977  i < roundEntries */\n      lt\n        /* \"lotto.sol\":4946:5248  for(uint256 i; i < roundEntries; i++){\r... */\n      iszero\n      tag_140\n      jumpi\n        /* \"lotto.sol\":4998:5010  address user */\n      0x00\n        /* \"lotto.sol\":5013:5023  roundEntry */\n      0x08\n        /* \"lotto.sol\":5013:5026  roundEntry[i] */\n      0x00\n        /* \"lotto.sol\":5024:5025  i */\n      dup4\n        /* \"lotto.sol\":5013:5026  roundEntry[i] */\n      dup2\n      mstore\n      0x20\n      add\n      swap1\n      dup2\n      mstore\n      0x20\n      add\n      0x00\n      keccak256\n      0x00\n      swap1\n      sload\n      swap1\n      0x0100\n      exp\n      swap1\n      div\n      0xffffffffffffffffffffffffffffffffffffffff\n      and\n        /* \"lotto.sol\":4998:5026  address user = roundEntry[i] */\n      swap1\n      pop\n        /* \"lotto.sol\":5049:5061  entriesIndex */\n      0x09\n        /* \"lotto.sol\":5049:5067  entriesIndex[user] */\n      0x00\n        /* \"lotto.sol\":5062:5066  user */\n      dup3\n        /* \"lotto.sol\":5049:5067  entriesIndex[user] */\n      0xffffffffffffffffffffffffffffffffffffffff\n      and\n      0xffffffffffffffffffffffffffffffffffffffff\n      and\n      dup2\n      mstore\n      0x20\n      add\n      swap1\n      dup2\n      mstore\n      0x20\n      add\n      0x00\n      keccak256\n        /* \"lotto.sol\":5068:5069  0 */\n      0x00\n        /* \"lotto.sol\":5049:5070  entriesIndex[user][0] */\n      dup2\n      sload\n      dup2\n      lt\n      tag_142\n      jumpi\n      tag_143\n      tag_124\n      jump\t// in\n    tag_143:\n    tag_142:\n      swap1\n      0x00\n      mstore\n      keccak256(0x00, 0x20)\n      add\n      sload\n        /* \"lotto.sol\":5044:5045  i */\n      dup3\n        /* \"lotto.sol\":5044:5070  i == entriesIndex[user][0] */\n      eq\n        /* \"lotto.sol\":5041:5237  if(i == entriesIndex[user][0]){\r... */\n      iszero\n      tag_145\n      jumpi\n        /* \"lotto.sol\":5116:5120  user */\n      dup1\n        /* \"lotto.sol\":5090:5099  addresses */\n      dup7\n        /* \"lotto.sol\":5100:5112  currentIndex */\n      dup5\n        /* \"lotto.sol\":5090:5113  addresses[currentIndex] */\n      dup2\n      mload\n      dup2\n      lt\n      tag_146\n      jumpi\n      tag_147\n      tag_124\n      jump\t// in\n    tag_147:\n    tag_146:\n      0x20\n      mul\n      0x20\n      add\n      add\n        /* \"lotto.sol\":5090:5120  addresses[currentIndex] = user */\n      swap1\n      0xffffffffffffffffffffffffffffffffffffffff\n      and\n      swap1\n      dup2\n      0xffffffffffffffffffffffffffffffffffffffff\n      and\n      dup2\n      mstore\n      pop\n      pop\n        /* \"lotto.sol\":5163:5175  entriesIndex */\n      0x09\n        /* \"lotto.sol\":5163:5181  entriesIndex[user] */\n      0x00\n        /* \"lotto.sol\":5176:5180  user */\n      dup3\n        /* \"lotto.sol\":5163:5181  entriesIndex[user] */\n      0xffffffffffffffffffffffffffffffffffffffff\n      and\n      0xffffffffffffffffffffffffffffffffffffffff\n      and\n      dup2\n      mstore\n      0x20\n      add\n      swap1\n      dup2\n      mstore\n      0x20\n      add\n      0x00\n      keccak256\n        /* \"lotto.sol\":5163:5188  entriesIndex[user].length */\n      dup1\n      sload\n      swap1\n      pop\n        /* \"lotto.sol\":5139:5146  entries */\n      dup6\n        /* \"lotto.sol\":5147:5159  currentIndex */\n      dup5\n        /* \"lotto.sol\":5139:5160  entries[currentIndex] */\n      dup2\n      mload\n      dup2\n      lt\n      tag_148\n      jumpi\n      tag_149\n      tag_124\n      jump\t// in\n    tag_149:\n    tag_148:\n      0x20\n      mul\n      0x20\n      add\n      add\n        /* \"lotto.sol\":5139:5188  entries[currentIndex] = entriesIndex[user].length */\n      dup2\n      dup2\n      mstore\n      pop\n      pop\n        /* \"lotto.sol\":5207:5221  currentIndex++ */\n      dup3\n      dup1\n      tag_150\n      swap1\n      tag_128\n      jump\t// in\n    tag_150:\n      swap4\n      pop\n      pop\n        /* \"lotto.sol\":5041:5237  if(i == entriesIndex[user][0]){\r... */\n    tag_145:\n        /* \"lotto.sol\":4983:5248  {\r... */\n      pop\n        /* \"lotto.sol\":4979:4982  i++ */\n      dup1\n      dup1\n      tag_151\n      swap1\n      tag_128\n      jump\t// in\n    tag_151:\n      swap2\n      pop\n      pop\n        /* \"lotto.sol\":4946:5248  for(uint256 i; i < roundEntries; i++){\r... */\n      jump(tag_139)\n    tag_140:\n      pop\n        /* \"lotto.sol\":4759:5255  {\r... */\n      pop\n      pop\n        /* \"lotto.sol\":4652:5255  function getUniqueAddresses() public view returns (address [] memory addresses, uint256 [] memory entries) {\r... */\n      swap1\n      swap2\n      jump\t// out\n        /* \"lotto.sol\":1539:1822  function updateAccount(address account, uint256 amount) external restricted{\r... */\n    tag_47:\n        /* \"lotto.sol\":1454:1466  _msgSender() */\n      tag_153\n        /* \"lotto.sol\":1454:1464  _msgSender */\n      tag_154\n        /* \"lotto.sol\":1454:1466  _msgSender() */\n      jump\t// in\n    tag_153:\n        /* \"lotto.sol\":1443:1466  owner() == _msgSender() */\n      0xffffffffffffffffffffffffffffffffffffffff\n      and\n        /* \"lotto.sol\":1443:1450  owner() */\n      tag_155\n        /* \"lotto.sol\":1443:1448  owner */\n      tag_75\n        /* \"lotto.sol\":1443:1450  owner() */\n      jump\t// in\n    tag_155:\n        /* \"lotto.sol\":1443:1466  owner() == _msgSender() */\n      0xffffffffffffffffffffffffffffffffffffffff\n      and\n      eq\n        /* \"lotto.sol\":1443:1495  owner() == _msgSender() || acesToken == _msgSender() */\n      dup1\n      tag_156\n      jumpi\n      pop\n        /* \"lotto.sol\":1483:1495  _msgSender() */\n      tag_157\n        /* \"lotto.sol\":1483:1493  _msgSender */\n      tag_154\n        /* \"lotto.sol\":1483:1495  _msgSender() */\n      jump\t// in\n    tag_157:\n        /* \"lotto.sol\":1470:1495  acesToken == _msgSender() */\n      0xffffffffffffffffffffffffffffffffffffffff\n      and\n        /* \"lotto.sol\":1470:1479  acesToken */\n      0x05\n      0x00\n      swap1\n      sload\n      swap1\n      0x0100\n      exp\n      swap1\n      div\n      0xffffffffffffffffffffffffffffffffffffffff\n      and\n        /* \"lotto.sol\":1470:1495  acesToken == _msgSender() */\n      0xffffffffffffffffffffffffffffffffffffffff\n      and\n      eq\n        /* \"lotto.sol\":1443:1495  owner() == _msgSender() || acesToken == _msgSender() */\n    tag_156:\n        /* \"lotto.sol\":1435:1511  require(owner() == _msgSender() || acesToken == _msgSender(), \"Not allowed\") */\n      tag_158\n      jumpi\n      mload(0x40)\n      0x08c379a000000000000000000000000000000000000000000000000000000000\n      dup2\n      mstore\n      0x04\n      add\n      tag_159\n      swap1\n      tag_160\n      jump\t// in\n    tag_159:\n      mload(0x40)\n      dup1\n      swap2\n      sub\n      swap1\n      revert\n    tag_158:\n        /* \"lotto.sol\":1629:1638  uint256 i */\n      0x00\n        /* \"lotto.sol\":1625:1780  for(uint256 i; i < amount; i++){\r... */\n    tag_162:\n        /* \"lotto.sol\":1644:1650  amount */\n      dup2\n        /* \"lotto.sol\":1640:1641  i */\n      dup2\n        /* \"lotto.sol\":1640:1650  i < amount */\n      lt\n        /* \"lotto.sol\":1625:1780  for(uint256 i; i < amount; i++){\r... */\n      iszero\n      tag_163\n      jumpi\n        /* \"lotto.sol\":1702:1709  account */\n      dup3\n        /* \"lotto.sol\":1671:1681  roundEntry */\n      0x08\n        /* \"lotto.sol\":1671:1699  roundEntry[roundEntries + i] */\n      0x00\n        /* \"lotto.sol\":1697:1698  i */\n      dup4\n        /* \"lotto.sol\":1682:1694  roundEntries */\n      sload(0x01)\n        /* \"lotto.sol\":1682:1698  roundEntries + i */\n      tag_165\n      swap2\n      swap1\n      tag_166\n      jump\t// in\n    tag_165:\n        /* \"lotto.sol\":1671:1699  roundEntry[roundEntries + i] */\n      dup2\n      mstore\n      0x20\n      add\n      swap1\n      dup2\n      mstore\n      0x20\n      add\n      0x00\n      keccak256\n      0x00\n        /* \"lotto.sol\":1671:1709  roundEntry[roundEntries + i] = account */\n      0x0100\n      exp\n      dup2\n      sload\n      dup2\n      0xffffffffffffffffffffffffffffffffffffffff\n      mul\n      not\n      and\n      swap1\n      dup4\n      0xffffffffffffffffffffffffffffffffffffffff\n      and\n      mul\n      or\n      swap1\n      sstore\n      pop\n        /* \"lotto.sol\":1724:1736  entriesIndex */\n      0x09\n        /* \"lotto.sol\":1724:1745  entriesIndex[account] */\n      0x00\n        /* \"lotto.sol\":1737:1744  account */\n      dup5\n        /* \"lotto.sol\":1724:1745  entriesIndex[account] */\n      0xffffffffffffffffffffffffffffffffffffffff\n      and\n      0xffffffffffffffffffffffffffffffffffffffff\n      and\n      dup2\n      mstore\n      0x20\n      add\n      swap1\n      dup2\n      mstore\n      0x20\n      add\n      0x00\n      keccak256\n        /* \"lotto.sol\":1766:1767  i */\n      dup2\n        /* \"lotto.sol\":1751:1763  roundEntries */\n      sload(0x01)\n        /* \"lotto.sol\":1751:1767  roundEntries + i */\n      tag_167\n      swap2\n      swap1\n      tag_166\n      jump\t// in\n    tag_167:\n        /* \"lotto.sol\":1724:1768  entriesIndex[account].push(roundEntries + i) */\n      swap1\n      dup1\n      0x01\n      dup2\n      sload\n      add\n      dup1\n      dup3\n      sstore\n      dup1\n      swap2\n      pop\n      pop\n      0x01\n      swap1\n      sub\n      swap1\n      0x00\n      mstore\n      keccak256(0x00, 0x20)\n      add\n      0x00\n      swap1\n      swap2\n      swap1\n      swap2\n      swap1\n      swap2\n      pop\n      sstore\n        /* \"lotto.sol\":1652:1655  i++ */\n      dup1\n      dup1\n      tag_169\n      swap1\n      tag_128\n      jump\t// in\n    tag_169:\n      swap2\n      pop\n      pop\n        /* \"lotto.sol\":1625:1780  for(uint256 i; i < amount; i++){\r... */\n      jump(tag_162)\n    tag_163:\n      pop\n        /* \"lotto.sol\":1808:1814  amount */\n      dup1\n        /* \"lotto.sol\":1792:1804  roundEntries */\n      0x01\n      0x00\n        /* \"lotto.sol\":1792:1814  roundEntries += amount */\n      dup3\n      dup3\n      sload\n      tag_170\n      swap2\n      swap1\n      tag_166\n      jump\t// in\n    tag_170:\n      swap3\n      pop\n      pop\n      dup2\n      swap1\n      sstore\n      pop\n        /* \"lotto.sol\":1539:1822  function updateAccount(address account, uint256 amount) external restricted{\r... */\n      pop\n      pop\n      jump\t// out\n        /* \"lotto.sol\":698:724  uint256 public totalPayout */\n    tag_49:\n      sload(0x03)\n      dup2\n      jump\t// out\n        /* \"lotto.sol\":893:967  address public treasuryWallet = 0x0eD2Fd07B8BE10E2b8737e39AD33663DC711C31B */\n    tag_52:\n      0x06\n      0x00\n      swap1\n      sload\n      swap1\n      0x0100\n      exp\n      swap1\n      div\n      0xffffffffffffffffffffffffffffffffffffffff\n      and\n      dup2\n      jump\t// out\n        /* \"lotto.sol\":737:808  IERC20 public BUSD = IERC20(0xe9e7CEA3DedcA5984780Bafc599bD69ADd087D56) */\n    tag_56:\n      0x04\n      0x00\n      swap1\n      sload\n      swap1\n      0x0100\n      exp\n      swap1\n      div\n      0xffffffffffffffffffffffffffffffffffffffff\n      and\n      dup2\n      jump\t// out\n        /* \"lotto.sol\":2615:2784  function isActiveAccount(address account) external view returns(bool){\r... */\n    tag_62:\n        /* \"lotto.sol\":2679:2683  bool */\n      0x00\n        /* \"lotto.sol\":2695:2717  uint256 currentEntries */\n      dup1\n        /* \"lotto.sol\":2720:2740  userEntries(account) */\n      tag_172\n        /* \"lotto.sol\":2732:2739  account */\n      dup4\n        /* \"lotto.sol\":2720:2731  userEntries */\n      tag_82\n        /* \"lotto.sol\":2720:2740  userEntries(account) */\n      jump\t// in\n    tag_172:\n        /* \"lotto.sol\":2695:2740  uint256 currentEntries = userEntries(account) */\n      swap1\n      pop\n        /* \"lotto.sol\":2775:2776  0 */\n      0x00\n        /* \"lotto.sol\":2758:2772  currentEntries */\n      dup2\n        /* \"lotto.sol\":2758:2776  currentEntries > 0 */\n      gt\n        /* \"lotto.sol\":2751:2776  return currentEntries > 0 */\n      swap2\n      pop\n      pop\n        /* \"lotto.sol\":2615:2784  function isActiveAccount(address account) external view returns(bool){\r... */\n      swap2\n      swap1\n      pop\n      jump\t// out\n        /* \"lotto.sol\":3004:3508  function updateWinner(uint256 winnerNum, uint256 payout) external onlyOwner {      \r... */\n    tag_68:\n        /* \"https://github.com/OpenZeppelin/openzeppelin-contracts/blob/master/contracts/access/Ownable.sol\":1259:1271  _msgSender() */\n      tag_174\n        /* \"https://github.com/OpenZeppelin/openzeppelin-contracts/blob/master/contracts/access/Ownable.sol\":1259:1269  _msgSender */\n      tag_154\n        /* \"https://github.com/OpenZeppelin/openzeppelin-contracts/blob/master/contracts/access/Ownable.sol\":1259:1271  _msgSender() */\n      jump\t// in\n    tag_174:\n        /* \"https://github.com/OpenZeppelin/openzeppelin-contracts/blob/master/contracts/access/Ownable.sol\":1248:1271  owner() == _msgSender() */\n      0xffffffffffffffffffffffffffffffffffffffff\n      and\n        /* \"https://github.com/OpenZeppelin/openzeppelin-contracts/blob/master/contracts/access/Ownable.sol\":1248:1255  owner() */\n      tag_175\n        /* \"https://github.com/OpenZeppelin/openzeppelin-contracts/blob/master/contracts/access/Ownable.sol\":1248:1253  owner */\n      tag_75\n        /* \"https://github.com/OpenZeppelin/openzeppelin-contracts/blob/master/contracts/access/Ownable.sol\":1248:1255  owner() */\n      jump\t// in\n    tag_175:\n        /* \"https://github.com/OpenZeppelin/openzeppelin-contracts/blob/master/contracts/access/Ownable.sol\":1248:1271  owner() == _msgSender() */\n      0xffffffffffffffffffffffffffffffffffffffff\n      and\n      eq\n        /* \"https://github.com/OpenZeppelin/openzeppelin-contracts/blob/master/contracts/access/Ownable.sol\":1240:1308  require(owner() == _msgSender(), \"Ownable: caller is not the owner\") */\n      tag_176\n      jumpi\n      mload(0x40)\n      0x08c379a000000000000000000000000000000000000000000000000000000000\n      dup2\n      mstore\n      0x04\n      add\n      tag_177\n      swap1\n      tag_178\n      jump\t// in\n    tag_177:\n      mload(0x40)\n      dup1\n      swap2\n      sub\n      swap1\n      revert\n    tag_176:\n        /* \"lotto.sol\":3097:3118  address winnerAddress */\n      0x00\n        /* \"lotto.sol\":3121:3131  roundEntry */\n      0x08\n        /* \"lotto.sol\":3121:3142  roundEntry[winnerNum] */\n      0x00\n        /* \"lotto.sol\":3132:3141  winnerNum */\n      dup5\n        /* \"lotto.sol\":3121:3142  roundEntry[winnerNum] */\n      dup2\n      mstore\n      0x20\n      add\n      swap1\n      dup2\n      mstore\n      0x20\n      add\n      0x00\n      keccak256\n      0x00\n      swap1\n      sload\n      swap1\n      0x0100\n      exp\n      swap1\n      div\n      0xffffffffffffffffffffffffffffffffffffffff\n      and\n        /* \"lotto.sol\":3097:3142  address winnerAddress = roundEntry[winnerNum] */\n      swap1\n      pop\n        /* \"lotto.sol\":3180:3394  Results ({\r... */\n      mload(0x40)\n      dup1\n      0xa0\n      add\n      0x40\n      mstore\n      dup1\n        /* \"lotto.sol\":3218:3230  roundEntries */\n      sload(0x01)\n        /* \"lotto.sol\":3180:3394  Results ({\r... */\n      dup2\n      mstore\n      0x20\n      add\n        /* \"lotto.sol\":3260:3269  winnerNum */\n      dup5\n        /* \"lotto.sol\":3180:3394  Results ({\r... */\n      dup2\n      mstore\n      0x20\n      add\n        /* \"lotto.sol\":3292:3298  payout */\n      dup4\n        /* \"lotto.sol\":3180:3394  Results ({\r... */\n      dup2\n      mstore\n      0x20\n      add\n        /* \"lotto.sol\":3322:3337  block.timestamp */\n      timestamp\n        /* \"lotto.sol\":3180:3394  Results ({\r... */\n      dup2\n      mstore\n      0x20\n      add\n        /* \"lotto.sol\":3368:3381  winnerAddress */\n      dup3\n        /* \"lotto.sol\":3180:3394  Results ({\r... */\n      0xffffffffffffffffffffffffffffffffffffffff\n      and\n      dup2\n      mstore\n      pop\n        /* \"lotto.sol\":3155:3167  roundResults */\n      0x07\n        /* \"lotto.sol\":3155:3177  roundResults[roundNum] */\n      0x00\n        /* \"lotto.sol\":3168:3176  roundNum */\n      sload(0x02)\n        /* \"lotto.sol\":3155:3177  roundResults[roundNum] */\n      dup2\n      mstore\n      0x20\n      add\n      swap1\n      dup2\n      mstore\n      0x20\n      add\n      0x00\n      keccak256\n        /* \"lotto.sol\":3155:3394  roundResults[roundNum] = Results ({\r... */\n      0x00\n      dup3\n      add\n      mload\n      dup2\n      0x00\n      add\n      sstore\n      0x20\n      dup3\n      add\n      mload\n      dup2\n      0x01\n      add\n      sstore\n      0x40\n      dup3\n      add\n      mload\n      dup2\n      0x02\n      add\n      sstore\n      0x60\n      dup3\n      add\n      mload\n      dup2\n      0x03\n      add\n      sstore\n      0x80\n      dup3\n      add\n      mload\n      dup2\n      0x04\n      add\n      exp(0x0100, 0x00)\n      dup2\n      sload\n      dup2\n      0xffffffffffffffffffffffffffffffffffffffff\n      mul\n      not\n      and\n      swap1\n      dup4\n      0xffffffffffffffffffffffffffffffffffffffff\n      and\n      mul\n      or\n      swap1\n      sstore\n      pop\n      swap1\n      pop\n      pop\n        /* \"lotto.sol\":3422:3428  payout */\n      dup2\n        /* \"lotto.sol\":3407:3418  totalPayout */\n      0x03\n      0x00\n        /* \"lotto.sol\":3407:3428  totalPayout += payout */\n      dup3\n      dup3\n      sload\n      tag_180\n      swap2\n      swap1\n      tag_166\n      jump\t// in\n    tag_180:\n      swap3\n      pop\n      pop\n      dup2\n      swap1\n      sstore\n      pop\n        /* \"lotto.sol\":3439:3447  roundNum */\n      0x02\n      0x00\n        /* \"lotto.sol\":3439:3449  roundNum++ */\n      dup2\n      sload\n      dup1\n      swap3\n      swap2\n      swap1\n      tag_181\n      swap1\n      tag_128\n      jump\t// in\n    tag_181:\n      swap2\n      swap1\n      pop\n      sstore\n      pop\n        /* \"lotto.sol\":3467:3500  LotteryWon(winnerAddress, payout) */\n      0x2e798dd4337e515c79b64c40e1a93baa1aefbd9180ac7905e02508edd7971e50\n        /* \"lotto.sol\":3478:3491  winnerAddress */\n      dup2\n        /* \"lotto.sol\":3493:3499  payout */\n      dup4\n        /* \"lotto.sol\":3467:3500  LotteryWon(winnerAddress, payout) */\n      mload(0x40)\n      tag_182\n      swap3\n      swap2\n      swap1\n      tag_183\n      jump\t// in\n    tag_182:\n      mload(0x40)\n      dup1\n      swap2\n      sub\n      swap1\n      log1\n        /* \"lotto.sol\":3080:3508  {      \r... */\n      pop\n        /* \"lotto.sol\":3004:3508  function updateWinner(uint256 winnerNum, uint256 payout) external onlyOwner {      \r... */\n      pop\n      pop\n      jump\t// out\n        /* \"https://github.com/OpenZeppelin/openzeppelin-contracts/blob/master/contracts/access/Ownable.sol\":1668:1769  function renounceOwnership() public virtual onlyOwner {... */\n    tag_70:\n        /* \"https://github.com/OpenZeppelin/openzeppelin-contracts/blob/master/contracts/access/Ownable.sol\":1259:1271  _msgSender() */\n      tag_185\n        /* \"https://github.com/OpenZeppelin/openzeppelin-contracts/blob/master/contracts/access/Ownable.sol\":1259:1269  _msgSender */\n      tag_154\n        /* \"https://github.com/OpenZeppelin/openzeppelin-contracts/blob/master/contracts/access/Ownable.sol\":1259:1271  _msgSender() */\n      jump\t// in\n    tag_185:\n        /* \"https://github.com/OpenZeppelin/openzeppelin-contracts/blob/master/contracts/access/Ownable.sol\":1248:1271  owner() == _msgSender() */\n      0xffffffffffffffffffffffffffffffffffffffff\n      and\n        /* \"https://github.com/OpenZeppelin/openzeppelin-contracts/blob/master/contracts/access/Ownable.sol\":1248:1255  owner() */\n      tag_186\n        /* \"https://github.com/OpenZeppelin/openzeppelin-contracts/blob/master/contracts/access/Ownable.sol\":1248:1253  owner */\n      tag_75\n        /* \"https://github.com/OpenZeppelin/openzeppelin-contracts/blob/master/contracts/access/Ownable.sol\":1248:1255  owner() */\n      jump\t// in\n    tag_186:\n        /* \"https://github.com/OpenZeppelin/openzeppelin-contracts/blob/master/contracts/access/Ownable.sol\":1248:1271  owner() == _msgSender() */\n      0xffffffffffffffffffffffffffffffffffffffff\n      and\n      eq\n        /* \"https://github.com/OpenZeppelin/openzeppelin-contracts/blob/master/contracts/access/Ownable.sol\":1240:1308  require(owner() == _msgSender(), \"Ownable: caller is not the owner\") */\n      tag_187\n      jumpi\n      mload(0x40)\n      0x08c379a000000000000000000000000000000000000000000000000000000000\n      dup2\n      mstore\n      0x04\n      add\n      tag_188\n      swap1\n      tag_178\n      jump\t// in\n    tag_188:\n      mload(0x40)\n      dup1\n      swap2\n      sub\n      swap1\n      revert\n    tag_187:\n        /* \"https://github.com/OpenZeppelin/openzeppelin-contracts/blob/master/contracts/access/Ownable.sol\":1732:1762  _transferOwnership(address(0)) */\n      tag_190\n        /* \"https://github.com/OpenZeppelin/openzeppelin-contracts/blob/master/contracts/access/Ownable.sol\":1759:1760  0 */\n      0x00\n        /* \"https://github.com/OpenZeppelin/openzeppelin-contracts/blob/master/contracts/access/Ownable.sol\":1732:1750  _transferOwnership */\n      tag_191\n        /* \"https://github.com/OpenZeppelin/openzeppelin-contracts/blob/master/contracts/access/Ownable.sol\":1732:1762  _transferOwnership(address(0)) */\n      jump\t// in\n    tag_190:\n        /* \"https://github.com/OpenZeppelin/openzeppelin-contracts/blob/master/contracts/access/Ownable.sol\":1668:1769  function renounceOwnership() public virtual onlyOwner {... */\n      jump\t// out\n        /* \"lotto.sol\":634:661  uint256 public roundEntries */\n    tag_72:\n      sload(0x01)\n      dup2\n      jump\t// out\n        /* \"https://github.com/OpenZeppelin/openzeppelin-contracts/blob/master/contracts/access/Ownable.sol\":1036:1121  function owner() public view virtual returns (address) {... */\n    tag_75:\n        /* \"https://github.com/OpenZeppelin/openzeppelin-contracts/blob/master/contracts/access/Ownable.sol\":1082:1089  address */\n      0x00\n        /* \"https://github.com/OpenZeppelin/openzeppelin-contracts/blob/master/contracts/access/Ownable.sol\":1108:1114  _owner */\n      dup1\n      0x00\n      swap1\n      sload\n      swap1\n      0x0100\n      exp\n      swap1\n      div\n      0xffffffffffffffffffffffffffffffffffffffff\n      and\n        /* \"https://github.com/OpenZeppelin/openzeppelin-contracts/blob/master/contracts/access/Ownable.sol\":1101:1114  return _owner */\n      swap1\n      pop\n        /* \"https://github.com/OpenZeppelin/openzeppelin-contracts/blob/master/contracts/access/Ownable.sol\":1036:1121  function owner() public view virtual returns (address) {... */\n      swap1\n      jump\t// out\n        /* \"lotto.sol\":817:886  address public acesToken = 0x5B38Da6a701c568545dCfcB03FcB875f56beddC4 */\n    tag_78:\n      0x05\n      0x00\n      swap1\n      sload\n      swap1\n      0x0100\n      exp\n      swap1\n      div\n      0xffffffffffffffffffffffffffffffffffffffff\n      and\n      dup2\n      jump\t// out\n        /* \"lotto.sol\":3636:3758  function userEntries(address account) public view returns (uint256) {\r... */\n    tag_82:\n        /* \"lotto.sol\":3695:3702  uint256 */\n      0x00\n        /* \"lotto.sol\":3722:3734  entriesIndex */\n      0x09\n        /* \"lotto.sol\":3722:3743  entriesIndex[account] */\n      0x00\n        /* \"lotto.sol\":3735:3742  account */\n      dup4\n        /* \"lotto.sol\":3722:3743  entriesIndex[account] */\n      0xffffffffffffffffffffffffffffffffffffffff\n      and\n      0xffffffffffffffffffffffffffffffffffffffff\n      and\n      dup2\n      mstore\n      0x20\n      add\n      swap1\n      dup2\n      mstore\n      0x20\n      add\n      0x00\n      keccak256\n        /* \"lotto.sol\":3722:3750  entriesIndex[account].length */\n      dup1\n      sload\n      swap1\n      pop\n        /* \"lotto.sol\":3715:3750  return entriesIndex[account].length */\n      swap1\n      pop\n        /* \"lotto.sol\":3636:3758  function userEntries(address account) public view returns (uint256) {\r... */\n      swap2\n      swap1\n      pop\n      jump\t// out\n        /* \"lotto.sol\":1830:2419  function removeEntryFromWallet(address account, uint256 amount) public restricted {\r... */\n    tag_86:\n        /* \"lotto.sol\":1454:1466  _msgSender() */\n      tag_195\n        /* \"lotto.sol\":1454:1464  _msgSender */\n      tag_154\n        /* \"lotto.sol\":1454:1466  _msgSender() */\n      jump\t// in\n    tag_195:\n        /* \"lotto.sol\":1443:1466  owner() == _msgSender() */\n      0xffffffffffffffffffffffffffffffffffffffff\n      and\n        /* \"lotto.sol\":1443:1450  owner() */\n      tag_196\n        /* \"lotto.sol\":1443:1448  owner */\n      tag_75\n        /* \"lotto.sol\":1443:1450  owner() */\n      jump\t// in\n    tag_196:\n        /* \"lotto.sol\":1443:1466  owner() == _msgSender() */\n      0xffffffffffffffffffffffffffffffffffffffff\n      and\n      eq\n        /* \"lotto.sol\":1443:1495  owner() == _msgSender() || acesToken == _msgSender() */\n      dup1\n      tag_197\n      jumpi\n      pop\n        /* \"lotto.sol\":1483:1495  _msgSender() */\n      tag_198\n        /* \"lotto.sol\":1483:1493  _msgSender */\n      tag_154\n        /* \"lotto.sol\":1483:1495  _msgSender() */\n      jump\t// in\n    tag_198:\n        /* \"lotto.sol\":1470:1495  acesToken == _msgSender() */\n      0xffffffffffffffffffffffffffffffffffffffff\n      and\n        /* \"lotto.sol\":1470:1479  acesToken */\n      0x05\n      0x00\n      swap1\n      sload\n      swap1\n      0x0100\n      exp\n      swap1\n      div\n      0xffffffffffffffffffffffffffffffffffffffff\n      and\n        /* \"lotto.sol\":1470:1495  acesToken == _msgSender() */\n      0xffffffffffffffffffffffffffffffffffffffff\n      and\n      eq\n        /* \"lotto.sol\":1443:1495  owner() == _msgSender() || acesToken == _msgSender() */\n    tag_197:\n        /* \"lotto.sol\":1435:1511  require(owner() == _msgSender() || acesToken == _msgSender(), \"Not allowed\") */\n      tag_199\n      jumpi\n      mload(0x40)\n      0x08c379a000000000000000000000000000000000000000000000000000000000\n      dup2\n      mstore\n      0x04\n      add\n      tag_200\n      swap1\n      tag_160\n      jump\t// in\n    tag_200:\n      mload(0x40)\n      dup1\n      swap2\n      sub\n      swap1\n      revert\n    tag_199:\n        /* \"lotto.sol\":1923:1945  uint256 currentEntries */\n      0x00\n        /* \"lotto.sol\":1948:1968  userEntries(account) */\n      tag_202\n        /* \"lotto.sol\":1960:1967  account */\n      dup4\n        /* \"lotto.sol\":1948:1959  userEntries */\n      tag_82\n        /* \"lotto.sol\":1948:1968  userEntries(account) */\n      jump\t// in\n    tag_202:\n        /* \"lotto.sol\":1923:1968  uint256 currentEntries = userEntries(account) */\n      swap1\n      pop\n        /* \"lotto.sol\":2000:2001  0 */\n      0x00\n        /* \"lotto.sol\":1982:1996  currentEntries */\n      dup2\n        /* \"lotto.sol\":1982:2001  currentEntries == 0 */\n      eq\n        /* \"lotto.sol\":1979:2118  if(currentEntries == 0){\r... */\n      iszero\n      tag_203\n      jumpi\n        /* \"lotto.sol\":2017:2024  return; */\n      pop\n      jump(tag_201)\n        /* \"lotto.sol\":1979:2118  if(currentEntries == 0){\r... */\n    tag_203:\n        /* \"lotto.sol\":2053:2067  currentEntries */\n      dup1\n        /* \"lotto.sol\":2044:2050  amount */\n      dup3\n        /* \"lotto.sol\":2044:2067  amount > currentEntries */\n      gt\n        /* \"lotto.sol\":2041:2118  if(amount > currentEntries){\r... */\n      iszero\n      tag_205\n      jumpi\n        /* \"lotto.sol\":2092:2106  currentEntries */\n      dup1\n        /* \"lotto.sol\":2083:2106  amount = currentEntries */\n      swap2\n      pop\n        /* \"lotto.sol\":2041:2118  if(amount > currentEntries){\r... */\n    tag_205:\n        /* \"lotto.sol\":2134:2143  uint256 i */\n      0x00\n        /* \"lotto.sol\":2146:2147  1 */\n      0x01\n        /* \"lotto.sol\":2134:2147  uint256 i = 1 */\n      swap1\n      pop\n        /* \"lotto.sol\":2130:2377  for(uint256 i = 1; i <= amount; i++){\r... */\n    tag_206:\n        /* \"lotto.sol\":2154:2160  amount */\n      dup3\n        /* \"lotto.sol\":2149:2150  i */\n      dup2\n        /* \"lotto.sol\":2149:2160  i <= amount */\n      gt\n        /* \"lotto.sol\":2130:2377  for(uint256 i = 1; i <= amount; i++){\r... */\n      tag_207\n      jumpi\n        /* \"lotto.sol\":2181:2198  uint256 lastIndex */\n      0x00\n        /* \"lotto.sol\":2201:2213  entriesIndex */\n      0x09\n        /* \"lotto.sol\":2201:2222  entriesIndex[account] */\n      0x00\n        /* \"lotto.sol\":2214:2221  account */\n      dup7\n        /* \"lotto.sol\":2201:2222  entriesIndex[account] */\n      0xffffffffffffffffffffffffffffffffffffffff\n      and\n      0xffffffffffffffffffffffffffffffffffffffff\n      and\n      dup2\n      mstore\n      0x20\n      add\n      swap1\n      dup2\n      mstore\n      0x20\n      add\n      0x00\n      keccak256\n        /* \"lotto.sol\":2254:2255  1 */\n      0x01\n        /* \"lotto.sol\":2223:2235  entriesIndex */\n      0x09\n        /* \"lotto.sol\":2223:2244  entriesIndex[account] */\n      0x00\n        /* \"lotto.sol\":2236:2243  account */\n      dup9\n        /* \"lotto.sol\":2223:2244  entriesIndex[account] */\n      0xffffffffffffffffffffffffffffffffffffffff\n      and\n      0xffffffffffffffffffffffffffffffffffffffff\n      and\n      dup2\n      mstore\n      0x20\n      add\n      swap1\n      dup2\n      mstore\n      0x20\n      add\n      0x00\n      keccak256\n        /* \"lotto.sol\":2223:2251  entriesIndex[account].length */\n      dup1\n      sload\n      swap1\n      pop\n        /* \"lotto.sol\":2223:2255  entriesIndex[account].length - 1 */\n      tag_209\n      swap2\n      swap1\n      tag_210\n      jump\t// in\n    tag_209:\n        /* \"lotto.sol\":2201:2256  entriesIndex[account][entriesIndex[account].length - 1] */\n      dup2\n      sload\n      dup2\n      lt\n      tag_211\n      jumpi\n      tag_212\n      tag_124\n      jump\t// in\n    tag_212:\n    tag_211:\n      swap1\n      0x00\n      mstore\n      keccak256(0x00, 0x20)\n      add\n      sload\n        /* \"lotto.sol\":2181:2256  uint256 lastIndex = entriesIndex[account][entriesIndex[account].length - 1] */\n      swap1\n      pop\n        /* \"lotto.sol\":2295:2305  roundEntry */\n      0x08\n        /* \"lotto.sol\":2295:2323  roundEntry[roundEntries - i] */\n      0x00\n        /* \"lotto.sol\":2321:2322  i */\n      dup4\n        /* \"lotto.sol\":2306:2318  roundEntries */\n      sload(0x01)\n        /* \"lotto.sol\":2306:2322  roundEntries - i */\n      tag_214\n      swap2\n      swap1\n      tag_210\n      jump\t// in\n    tag_214:\n        /* \"lotto.sol\":2295:2323  roundEntry[roundEntries - i] */\n      dup2\n      mstore\n      0x20\n      add\n      swap1\n      dup2\n      mstore\n      0x20\n      add\n      0x00\n      keccak256\n      0x00\n      swap1\n      sload\n      swap1\n      0x0100\n      exp\n      swap1\n      div\n      0xffffffffffffffffffffffffffffffffffffffff\n      and\n        /* \"lotto.sol\":2271:2281  roundEntry */\n      0x08\n        /* \"lotto.sol\":2271:2292  roundEntry[lastIndex] */\n      0x00\n        /* \"lotto.sol\":2282:2291  lastIndex */\n      dup4\n        /* \"lotto.sol\":2271:2292  roundEntry[lastIndex] */\n      dup2\n      mstore\n      0x20\n      add\n      swap1\n      dup2\n      mstore\n      0x20\n      add\n      0x00\n      keccak256\n      0x00\n        /* \"lotto.sol\":2271:2323  roundEntry[lastIndex] = roundEntry[roundEntries - i] */\n      0x0100\n      exp\n      dup2\n      sload\n      dup2\n      0xffffffffffffffffffffffffffffffffffffffff\n      mul\n      not\n      and\n      swap1\n      dup4\n      0xffffffffffffffffffffffffffffffffffffffff\n      and\n      mul\n      or\n      swap1\n      sstore\n      pop\n        /* \"lotto.sol\":2338:2350  entriesIndex */\n      0x09\n        /* \"lotto.sol\":2338:2359  entriesIndex[account] */\n      0x00\n        /* \"lotto.sol\":2351:2358  account */\n      dup7\n        /* \"lotto.sol\":2338:2359  entriesIndex[account] */\n      0xffffffffffffffffffffffffffffffffffffffff\n      and\n      0xffffffffffffffffffffffffffffffffffffffff\n      and\n      dup2\n      mstore\n      0x20\n      add\n      swap1\n      dup2\n      mstore\n      0x20\n      add\n      0x00\n      keccak256\n        /* \"lotto.sol\":2338:2365  entriesIndex[account].pop() */\n      dup1\n      sload\n      dup1\n      tag_215\n      jumpi\n      tag_216\n      tag_217\n      jump\t// in\n    tag_216:\n    tag_215:\n      0x01\n      swap1\n      sub\n      dup2\n      dup2\n      swap1\n      0x00\n      mstore\n      keccak256(0x00, 0x20)\n      add\n      0x00\n      swap1\n      sstore\n      swap1\n      sstore\n        /* \"lotto.sol\":2166:2377  {\r... */\n      pop\n        /* \"lotto.sol\":2162:2165  i++ */\n      dup1\n      dup1\n      tag_219\n      swap1\n      tag_128\n      jump\t// in\n    tag_219:\n      swap2\n      pop\n      pop\n        /* \"lotto.sol\":2130:2377  for(uint256 i = 1; i <= amount; i++){\r... */\n      jump(tag_206)\n    tag_207:\n      pop\n        /* \"lotto.sol\":2405:2411  amount */\n      dup2\n        /* \"lotto.sol\":2389:2401  roundEntries */\n      0x01\n      0x00\n        /* \"lotto.sol\":2389:2411  roundEntries -= amount */\n      dup3\n      dup3\n      sload\n      tag_220\n      swap2\n      swap1\n      tag_210\n      jump\t// in\n    tag_220:\n      swap3\n      pop\n      pop\n      dup2\n      swap1\n      sstore\n      pop\n        /* \"lotto.sol\":1912:2419  {\r... */\n      pop\n        /* \"lotto.sol\":1522:1523  _ */\n    tag_201:\n        /* \"lotto.sol\":1830:2419  function removeEntryFromWallet(address account, uint256 amount) public restricted {\r... */\n      pop\n      pop\n      jump\t// out\n        /* \"lotto.sol\":1158:1205  mapping(uint256 => Results) public roundResults */\n    tag_90:\n      mstore(0x20, 0x07)\n      dup1\n      0x00\n      mstore\n      keccak256(0x00, 0x40)\n      0x00\n      swap2\n      pop\n      swap1\n      pop\n      dup1\n      0x00\n      add\n      sload\n      swap1\n      dup1\n      0x01\n      add\n      sload\n      swap1\n      dup1\n      0x02\n      add\n      sload\n      swap1\n      dup1\n      0x03\n      add\n      sload\n      swap1\n      dup1\n      0x04\n      add\n      0x00\n      swap1\n      sload\n      swap1\n      0x0100\n      exp\n      swap1\n      div\n      0xffffffffffffffffffffffffffffffffffffffff\n      and\n      swap1\n      pop\n      dup6\n      jump\t// out\n        /* \"lotto.sol\":1212:1257  mapping(uint256 => address) public roundEntry */\n    tag_95:\n      mstore(0x20, 0x08)\n      dup1\n      0x00\n      mstore\n      keccak256(0x00, 0x40)\n      0x00\n      swap2\n      pop\n      sload\n      swap1\n      0x0100\n      exp\n      swap1\n      div\n      0xffffffffffffffffffffffffffffffffffffffff\n      and\n      dup2\n      jump\t// out\n        /* \"lotto.sol\":3766:4356  function resultLog(uint256 startIndex, uint256 endIndex) external view returns(Results [] memory log){\r... */\n    tag_99:\n        /* \"lotto.sol\":3845:3866  Results [] memory log */\n      0x60\n        /* \"lotto.sol\":3893:3894  0 */\n      0x00\n        /* \"lotto.sol\":3881:3889  roundNum */\n      sload(0x02)\n        /* \"lotto.sol\":3881:3894  roundNum == 0 */\n      eq\n        /* \"lotto.sol\":3878:3951  if(roundNum == 0){\r... */\n      iszero\n      tag_222\n      jumpi\n        /* \"lotto.sol\":3937:3938  0 */\n      0x00\n        /* \"lotto.sol\":3923:3939  new Results[](0) */\n      0xffffffffffffffff\n      dup2\n      gt\n      iszero\n      tag_223\n      jumpi\n      tag_224\n      tag_134\n      jump\t// in\n    tag_224:\n    tag_223:\n      mload(0x40)\n      swap1\n      dup1\n      dup3\n      mstore\n      dup1\n      0x20\n      mul\n      0x20\n      add\n      dup3\n      add\n      0x40\n      mstore\n      dup1\n      iszero\n      tag_225\n      jumpi\n      dup2\n      0x20\n      add\n    tag_226:\n      tag_227\n      tag_228\n      jump\t// in\n    tag_227:\n      dup2\n      mstore\n      0x20\n      add\n      swap1\n      0x01\n      swap1\n      sub\n      swap1\n      dup2\n      tag_226\n      jumpi\n      swap1\n      pop\n    tag_225:\n      pop\n        /* \"lotto.sol\":3917:3939  log = new Results[](0) */\n      swap1\n      pop\n        /* \"lotto.sol\":3910:3939  return log = new Results[](0) */\n      jump(tag_221)\n        /* \"lotto.sol\":3878:3951  if(roundNum == 0){\r... */\n    tag_222:\n        /* \"lotto.sol\":3987:3995  roundNum */\n      sload(0x02)\n        /* \"lotto.sol\":3975:3983  endIndex */\n      dup3\n        /* \"lotto.sol\":3975:3995  endIndex >= roundNum */\n      lt\n        /* \"lotto.sol\":3971:4047  if (endIndex >= roundNum) {\r... */\n      tag_229\n      jumpi\n        /* \"lotto.sol\":4034:4035  1 */\n      0x01\n        /* \"lotto.sol\":4023:4031  roundNum */\n      sload(0x02)\n        /* \"lotto.sol\":4023:4035  roundNum - 1 */\n      tag_230\n      swap2\n      swap1\n      tag_210\n      jump\t// in\n    tag_230:\n        /* \"lotto.sol\":4012:4035  endIndex = roundNum - 1 */\n      swap2\n      pop\n        /* \"lotto.sol\":3971:4047  if (endIndex >= roundNum) {\r... */\n    tag_229:\n        /* \"lotto.sol\":4059:4078  uint256 arrayLength */\n      0x00\n        /* \"lotto.sol\":4105:4106  1 */\n      0x01\n        /* \"lotto.sol\":4092:4102  startIndex */\n      dup5\n        /* \"lotto.sol\":4081:4089  endIndex */\n      dup5\n        /* \"lotto.sol\":4081:4102  endIndex - startIndex */\n      tag_231\n      swap2\n      swap1\n      tag_210\n      jump\t// in\n    tag_231:\n        /* \"lotto.sol\":4081:4106  endIndex - startIndex + 1 */\n      tag_232\n      swap2\n      swap1\n      tag_166\n      jump\t// in\n    tag_232:\n        /* \"lotto.sol\":4059:4106  uint256 arrayLength = endIndex - startIndex + 1 */\n      swap1\n      pop\n        /* \"lotto.sol\":4117:4137  uint256 currentIndex */\n      0x00\n        /* \"lotto.sol\":4168:4179  arrayLength */\n      dup2\n        /* \"lotto.sol\":4154:4180  new Results[](arrayLength) */\n      0xffffffffffffffff\n      dup2\n      gt\n      iszero\n      tag_233\n      jumpi\n      tag_234\n      tag_134\n      jump\t// in\n    tag_234:\n    tag_233:\n      mload(0x40)\n      swap1\n      dup1\n      dup3\n      mstore\n      dup1\n      0x20\n      mul\n      0x20\n      add\n      dup3\n      add\n      0x40\n      mstore\n      dup1\n      iszero\n      tag_235\n      jumpi\n      dup2\n      0x20\n      add\n    tag_236:\n      tag_237\n      tag_228\n      jump\t// in\n    tag_237:\n      dup2\n      mstore\n      0x20\n      add\n      swap1\n      0x01\n      swap1\n      sub\n      swap1\n      dup2\n      tag_236\n      jumpi\n      swap1\n      pop\n    tag_235:\n      pop\n        /* \"lotto.sol\":4148:4180  log = new Results[](arrayLength) */\n      swap3\n      pop\n        /* \"lotto.sol\":4201:4210  uint256 i */\n      0x00\n        /* \"lotto.sol\":4213:4223  startIndex */\n      dup6\n        /* \"lotto.sol\":4201:4223  uint256 i = startIndex */\n      swap1\n      pop\n        /* \"lotto.sol\":4196:4349  for (uint256 i = startIndex; i <= endIndex; i++) {\r... */\n    tag_238:\n        /* \"lotto.sol\":4230:4238  endIndex */\n      dup5\n        /* \"lotto.sol\":4225:4226  i */\n      dup2\n        /* \"lotto.sol\":4225:4238  i <= endIndex */\n      gt\n        /* \"lotto.sol\":4196:4349  for (uint256 i = startIndex; i <= endIndex; i++) {\r... */\n      tag_239\n      jumpi\n        /* \"lotto.sol\":4280:4292  roundResults */\n      0x07\n        /* \"lotto.sol\":4280:4308  roundResults[startIndex + i] */\n      0x00\n        /* \"lotto.sol\":4306:4307  i */\n      dup3\n        /* \"lotto.sol\":4293:4303  startIndex */\n      dup9\n        /* \"lotto.sol\":4293:4307  startIndex + i */\n      tag_241\n      swap2\n      swap1\n      tag_166\n      jump\t// in\n    tag_241:\n        /* \"lotto.sol\":4280:4308  roundResults[startIndex + i] */\n      dup2\n      mstore\n      0x20\n      add\n      swap1\n      dup2\n      mstore\n      0x20\n      add\n      0x00\n      keccak256\n        /* \"lotto.sol\":4260:4308  log[currentIndex] = roundResults[startIndex + i] */\n      mload(0x40)\n      dup1\n      0xa0\n      add\n      0x40\n      mstore\n      swap1\n      dup2\n      0x00\n      dup3\n      add\n      sload\n      dup2\n      mstore\n      0x20\n      add\n      0x01\n      dup3\n      add\n      sload\n      dup2\n      mstore\n      0x20\n      add\n      0x02\n      dup3\n      add\n      sload\n      dup2\n      mstore\n      0x20\n      add\n      0x03\n      dup3\n      add\n      sload\n      dup2\n      mstore\n      0x20\n      add\n      0x04\n      dup3\n      add\n      0x00\n      swap1\n      sload\n      swap1\n      0x0100\n      exp\n      swap1\n      div\n      0xffffffffffffffffffffffffffffffffffffffff\n      and\n      0xffffffffffffffffffffffffffffffffffffffff\n      and\n      0xffffffffffffffffffffffffffffffffffffffff\n      and\n      dup2\n      mstore\n      pop\n      pop\n        /* \"lotto.sol\":4260:4263  log */\n      dup5\n        /* \"lotto.sol\":4264:4276  currentIndex */\n      dup4\n        /* \"lotto.sol\":4260:4277  log[currentIndex] */\n      dup2\n      mload\n      dup2\n      lt\n      tag_242\n      jumpi\n      tag_243\n      tag_124\n      jump\t// in\n    tag_243:\n    tag_242:\n      0x20\n      mul\n      0x20\n      add\n      add\n        /* \"lotto.sol\":4260:4308  log[currentIndex] = roundResults[startIndex + i] */\n      dup2\n      swap1\n      mstore\n      pop\n        /* \"lotto.sol\":4323:4337  currentIndex++ */\n      dup2\n      dup1\n      tag_244\n      swap1\n      tag_128\n      jump\t// in\n    tag_244:\n      swap3\n      pop\n      pop\n        /* \"lotto.sol\":4240:4243  i++ */\n      dup1\n      dup1\n      tag_245\n      swap1\n      tag_128\n      jump\t// in\n    tag_245:\n      swap2\n      pop\n      pop\n        /* \"lotto.sol\":4196:4349  for (uint256 i = startIndex; i <= endIndex; i++) {\r... */\n      jump(tag_238)\n    tag_239:\n      pop\n        /* \"lotto.sol\":3867:4356  {\r... */\n      pop\n      pop\n        /* \"lotto.sol\":3766:4356  function resultLog(uint256 startIndex, uint256 endIndex) external view returns(Results [] memory log){\r... */\n    tag_221:\n      swap3\n      swap2\n      pop\n      pop\n      jump\t// out\n        /* \"lotto.sol\":2427:2607  function removeAccount(address account) external restricted{\r... */\n    tag_104:\n        /* \"lotto.sol\":1454:1466  _msgSender() */\n      tag_247\n        /* \"lotto.sol\":1454:1464  _msgSender */\n      tag_154\n        /* \"lotto.sol\":1454:1466  _msgSender() */\n      jump\t// in\n    tag_247:\n        /* \"lotto.sol\":1443:1466  owner() == _msgSender() */\n      0xffffffffffffffffffffffffffffffffffffffff\n      and\n        /* \"lotto.sol\":1443:1450  owner() */\n      tag_248\n        /* \"lotto.sol\":1443:1448  owner */\n      tag_75\n        /* \"lotto.sol\":1443:1450  owner() */\n      jump\t// in\n    tag_248:\n        /* \"lotto.sol\":1443:1466  owner() == _msgSender() */\n      0xffffffffffffffffffffffffffffffffffffffff\n      and\n      eq\n        /* \"lotto.sol\":1443:1495  owner() == _msgSender() || acesToken == _msgSender() */\n      dup1\n      tag_249\n      jumpi\n      pop\n        /* \"lotto.sol\":1483:1495  _msgSender() */\n      tag_250\n        /* \"lotto.sol\":1483:1493  _msgSender */\n      tag_154\n        /* \"lotto.sol\":1483:1495  _msgSender() */\n      jump\t// in\n    tag_250:\n        /* \"lotto.sol\":1470:1495  acesToken == _msgSender() */\n      0xffffffffffffffffffffffffffffffffffffffff\n      and\n        /* \"lotto.sol\":1470:1479  acesToken */\n      0x05\n      0x00\n      swap1\n      sload\n      swap1\n      0x0100\n      exp\n      swap1\n      div\n      0xffffffffffffffffffffffffffffffffffffffff\n      and\n        /* \"lotto.sol\":1470:1495  acesToken == _msgSender() */\n      0xffffffffffffffffffffffffffffffffffffffff\n      and\n      eq\n        /* \"lotto.sol\":1443:1495  owner() == _msgSender() || acesToken == _msgSender() */\n    tag_249:\n        /* \"lotto.sol\":1435:1511  require(owner() == _msgSender() || acesToken == _msgSender(), \"Not allowed\") */\n      tag_251\n      jumpi\n      mload(0x40)\n      0x08c379a000000000000000000000000000000000000000000000000000000000\n      dup2\n      mstore\n      0x04\n      add\n      tag_252\n      swap1\n      tag_160\n      jump\t// in\n    tag_252:\n      mload(0x40)\n      dup1\n      swap2\n      sub\n      swap1\n      revert\n    tag_251:\n        /* \"lotto.sol\":2497:2519  uint256 currentEntries */\n      0x00\n        /* \"lotto.sol\":2522:2542  userEntries(account) */\n      tag_254\n        /* \"lotto.sol\":2534:2541  account */\n      dup3\n        /* \"lotto.sol\":2522:2533  userEntries */\n      tag_82\n        /* \"lotto.sol\":2522:2542  userEntries(account) */\n      jump\t// in\n    tag_254:\n        /* \"lotto.sol\":2497:2542  uint256 currentEntries = userEntries(account) */\n      swap1\n      pop\n        /* \"lotto.sol\":2553:2599  removeEntryFromWallet(account, currentEntries) */\n      tag_255\n        /* \"lotto.sol\":2575:2582  account */\n      dup3\n        /* \"lotto.sol\":2584:2598  currentEntries */\n      dup3\n        /* \"lotto.sol\":2553:2574  removeEntryFromWallet */\n      tag_86\n        /* \"lotto.sol\":2553:2599  removeEntryFromWallet(account, currentEntries) */\n      jump\t// in\n    tag_255:\n        /* \"lotto.sol\":2486:2607  {\r... */\n      pop\n        /* \"lotto.sol\":2427:2607  function removeAccount(address account) external restricted{\r... */\n      pop\n      jump\t// out\n        /* \"https://github.com/OpenZeppelin/openzeppelin-contracts/blob/master/contracts/access/Ownable.sol\":1918:2116  function transferOwnership(address newOwner) public virtual onlyOwner {... */\n    tag_107:\n        /* \"https://github.com/OpenZeppelin/openzeppelin-contracts/blob/master/contracts/access/Ownable.sol\":1259:1271  _msgSender() */\n      tag_257\n        /* \"https://github.com/OpenZeppelin/openzeppelin-contracts/blob/master/contracts/access/Ownable.sol\":1259:1269  _msgSender */\n      tag_154\n        /* \"https://github.com/OpenZeppelin/openzeppelin-contracts/blob/master/contracts/access/Ownable.sol\":1259:1271  _msgSender() */\n      jump\t// in\n    tag_257:\n        /* \"https://github.com/OpenZeppelin/openzeppelin-contracts/blob/master/contracts/access/Ownable.sol\":1248:1271  owner() == _msgSender() */\n      0xffffffffffffffffffffffffffffffffffffffff\n      and\n        /* \"https://github.com/OpenZeppelin/openzeppelin-contracts/blob/master/contracts/access/Ownable.sol\":1248:1255  owner() */\n      tag_258\n        /* \"https://github.com/OpenZeppelin/openzeppelin-contracts/blob/master/contracts/access/Ownable.sol\":1248:1253  owner */\n      tag_75\n        /* \"https://github.com/OpenZeppelin/openzeppelin-contracts/blob/master/contracts/access/Ownable.sol\":1248:1255  owner() */\n      jump\t// in\n    tag_258:\n        /* \"https://github.com/OpenZeppelin/openzeppelin-contracts/blob/master/contracts/access/Ownable.sol\":1248:1271  owner() == _msgSender() */\n      0xffffffffffffffffffffffffffffffffffffffff\n      and\n      eq\n        /* \"https://github.com/OpenZeppelin/openzeppelin-contracts/blob/master/contracts/access/Ownable.sol\":1240:1308  require(owner() == _msgSender(), \"Ownable: caller is not the owner\") */\n      tag_259\n      jumpi\n      mload(0x40)\n      0x08c379a000000000000000000000000000000000000000000000000000000000\n      dup2\n      mstore\n      0x04\n      add\n      tag_260\n      swap1\n      tag_178\n      jump\t// in\n    tag_260:\n      mload(0x40)\n      dup1\n      swap2\n      sub\n      swap1\n      revert\n    tag_259:\n        /* \"https://github.com/OpenZeppelin/openzeppelin-contracts/blob/master/contracts/access/Ownable.sol\":2026:2027  0 */\n      0x00\n        /* \"https://github.com/OpenZeppelin/openzeppelin-contracts/blob/master/contracts/access/Ownable.sol\":2006:2028  newOwner != address(0) */\n      0xffffffffffffffffffffffffffffffffffffffff\n      and\n        /* \"https://github.com/OpenZeppelin/openzeppelin-contracts/blob/master/contracts/access/Ownable.sol\":2006:2014  newOwner */\n      dup2\n        /* \"https://github.com/OpenZeppelin/openzeppelin-contracts/blob/master/contracts/access/Ownable.sol\":2006:2028  newOwner != address(0) */\n      0xffffffffffffffffffffffffffffffffffffffff\n      and\n      eq\n      iszero\n        /* \"https://github.com/OpenZeppelin/openzeppelin-contracts/blob/master/contracts/access/Ownable.sol\":1998:2071  require(newOwner != address(0), \"Ownable: new owner is the zero address\") */\n      tag_262\n      jumpi\n      mload(0x40)\n      0x08c379a000000000000000000000000000000000000000000000000000000000\n      dup2\n      mstore\n      0x04\n      add\n      tag_263\n      swap1\n      tag_264\n      jump\t// in\n    tag_263:\n      mload(0x40)\n      dup1\n      swap2\n      sub\n      swap1\n      revert\n    tag_262:\n        /* \"https://github.com/OpenZeppelin/openzeppelin-contracts/blob/master/contracts/access/Ownable.sol\":2081:2109  _transferOwnership(newOwner) */\n      tag_265\n        /* \"https://github.com/OpenZeppelin/openzeppelin-contracts/blob/master/contracts/access/Ownable.sol\":2100:2108  newOwner */\n      dup2\n        /* \"https://github.com/OpenZeppelin/openzeppelin-contracts/blob/master/contracts/access/Ownable.sol\":2081:2099  _transferOwnership */\n      tag_191\n        /* \"https://github.com/OpenZeppelin/openzeppelin-contracts/blob/master/contracts/access/Ownable.sol\":2081:2109  _transferOwnership(newOwner) */\n      jump\t// in\n    tag_265:\n        /* \"https://github.com/OpenZeppelin/openzeppelin-contracts/blob/master/contracts/access/Ownable.sol\":1918:2116  function transferOwnership(address newOwner) public virtual onlyOwner {... */\n      pop\n      jump\t// out\n        /* \"lotto.sol\":2792:2996  function pickWinner(uint256 seed) external view returns(uint256 winnerNum, address winnerAddress) {\r... */\n    tag_110:\n        /* \"lotto.sol\":2848:2865  uint256 winnerNum */\n      0x00\n        /* \"lotto.sol\":2867:2888  address winnerAddress */\n      dup1\n        /* \"lotto.sol\":2928:2940  roundEntries */\n      sload(0x01)\n        /* \"lotto.sol\":2913:2925  random(seed) */\n      tag_267\n        /* \"lotto.sol\":2920:2924  seed */\n      dup5\n        /* \"lotto.sol\":2913:2919  random */\n      tag_268\n        /* \"lotto.sol\":2913:2925  random(seed) */\n      jump\t// in\n    tag_267:\n        /* \"lotto.sol\":2913:2940  random(seed) % roundEntries */\n      tag_269\n      swap2\n      swap1\n      tag_270\n      jump\t// in\n    tag_269:\n        /* \"lotto.sol\":2901:2940  winnerNum = random(seed) % roundEntries */\n      swap2\n      pop\n        /* \"lotto.sol\":2967:2977  roundEntry */\n      0x08\n        /* \"lotto.sol\":2967:2988  roundEntry[winnerNum] */\n      0x00\n        /* \"lotto.sol\":2978:2987  winnerNum */\n      dup4\n        /* \"lotto.sol\":2967:2988  roundEntry[winnerNum] */\n      dup2\n      mstore\n      0x20\n      add\n      swap1\n      dup2\n      mstore\n      0x20\n      add\n      0x00\n      keccak256\n      0x00\n      swap1\n      sload\n      swap1\n      0x0100\n      exp\n      swap1\n      div\n      0xffffffffffffffffffffffffffffffffffffffff\n      and\n        /* \"lotto.sol\":2951:2988  winnerAddress = roundEntry[winnerNum] */\n      swap1\n      pop\n        /* \"lotto.sol\":2792:2996  function pickWinner(uint256 seed) external view returns(uint256 winnerNum, address winnerAddress) {\r... */\n      swap2\n      pop\n      swap2\n      jump\t// out\n        /* \"lotto.sol\":3516:3628  function currentJackpot() public view returns (uint256) {\r... */\n    tag_114:\n        /* \"lotto.sol\":3563:3570  uint256 */\n      0x00\n        /* \"lotto.sol\":3590:3594  BUSD */\n      0x04\n      0x00\n      swap1\n      sload\n      swap1\n      0x0100\n      exp\n      swap1\n      div\n      0xffffffffffffffffffffffffffffffffffffffff\n      and\n        /* \"lotto.sol\":3590:3604  BUSD.balanceOf */\n      0xffffffffffffffffffffffffffffffffffffffff\n      and\n      0x70a08231\n        /* \"lotto.sol\":3605:3619  treasuryWallet */\n      0x06\n      0x00\n      swap1\n      sload\n      swap1\n      0x0100\n      exp\n      swap1\n      div\n      0xffffffffffffffffffffffffffffffffffffffff\n      and\n        /* \"lotto.sol\":3590:3620  BUSD.balanceOf(treasuryWallet) */\n      mload(0x40)\n      dup3\n      0xffffffff\n      and\n      0xe0\n      shl\n      dup2\n      mstore\n      0x04\n      add\n      tag_272\n      swap2\n      swap1\n      tag_54\n      jump\t// in\n    tag_272:\n      0x20\n      mload(0x40)\n      dup1\n      dup4\n      sub\n      dup2\n      dup7\n      dup1\n      extcodesize\n      iszero\n      dup1\n      iszero\n      tag_273\n      jumpi\n      0x00\n      dup1\n      revert\n    tag_273:\n      pop\n      gas\n      staticcall\n      iszero\n      dup1\n      iszero\n      tag_275\n      jumpi\n      returndatasize\n      0x00\n      dup1\n      returndatacopy\n      revert(0x00, returndatasize)\n    tag_275:\n      pop\n      pop\n      pop\n      pop\n      mload(0x40)\n      returndatasize\n      not(0x1f)\n      0x1f\n      dup3\n      add\n      and\n      dup3\n      add\n      dup1\n      0x40\n      mstore\n      pop\n      dup2\n      add\n      swap1\n      tag_276\n      swap2\n      swap1\n      tag_277\n      jump\t// in\n    tag_276:\n        /* \"lotto.sol\":3583:3620  return BUSD.balanceOf(treasuryWallet) */\n      swap1\n      pop\n        /* \"lotto.sol\":3516:3628  function currentJackpot() public view returns (uint256) {\r... */\n      swap1\n      jump\t// out\n        /* \"https://github.com/OpenZeppelin/openzeppelin-contracts/blob/master/contracts/utils/Context.sol\":640:736  function _msgSender() internal view virtual returns (address) {... */\n    tag_154:\n        /* \"https://github.com/OpenZeppelin/openzeppelin-contracts/blob/master/contracts/utils/Context.sol\":693:700  address */\n      0x00\n        /* \"https://github.com/OpenZeppelin/openzeppelin-contracts/blob/master/contracts/utils/Context.sol\":719:729  msg.sender */\n      caller\n        /* \"https://github.com/OpenZeppelin/openzeppelin-contracts/blob/master/contracts/utils/Context.sol\":712:729  return msg.sender */\n      swap1\n      pop\n        /* \"https://github.com/OpenZeppelin/openzeppelin-contracts/blob/master/contracts/utils/Context.sol\":640:736  function _msgSender() internal view virtual returns (address) {... */\n      swap1\n      jump\t// out\n        /* \"https://github.com/OpenZeppelin/openzeppelin-contracts/blob/master/contracts/access/Ownable.sol\":2270:2457  function _transferOwnership(address newOwner) internal virtual {... */\n    tag_191:\n        /* \"https://github.com/OpenZeppelin/openzeppelin-contracts/blob/master/contracts/access/Ownable.sol\":2343:2359  address oldOwner */\n      0x00\n        /* \"https://github.com/OpenZeppelin/openzeppelin-contracts/blob/master/contracts/access/Ownable.sol\":2362:2368  _owner */\n      dup1\n      0x00\n      swap1\n      sload\n      swap1\n      0x0100\n      exp\n      swap1\n      div\n      0xffffffffffffffffffffffffffffffffffffffff\n      and\n        /* \"https://github.com/OpenZeppelin/openzeppelin-contracts/blob/master/contracts/access/Ownable.sol\":2343:2368  address oldOwner = _owner */\n      swap1\n      pop\n        /* \"https://github.com/OpenZeppelin/openzeppelin-contracts/blob/master/contracts/access/Ownable.sol\":2387:2395  newOwner */\n      dup2\n        /* \"https://github.com/OpenZeppelin/openzeppelin-contracts/blob/master/contracts/access/Ownable.sol\":2378:2384  _owner */\n      0x00\n      dup1\n        /* \"https://github.com/OpenZeppelin/openzeppelin-contracts/blob/master/contracts/access/Ownable.sol\":2378:2395  _owner = newOwner */\n      0x0100\n      exp\n      dup2\n      sload\n      dup2\n      0xffffffffffffffffffffffffffffffffffffffff\n      mul\n      not\n      and\n      swap1\n      dup4\n      0xffffffffffffffffffffffffffffffffffffffff\n      and\n      mul\n      or\n      swap1\n      sstore\n      pop\n        /* \"https://github.com/OpenZeppelin/openzeppelin-contracts/blob/master/contracts/access/Ownable.sol\":2441:2449  newOwner */\n      dup2\n        /* \"https://github.com/OpenZeppelin/openzeppelin-contracts/blob/master/contracts/access/Ownable.sol\":2410:2450  OwnershipTransferred(oldOwner, newOwner) */\n      0xffffffffffffffffffffffffffffffffffffffff\n      and\n        /* \"https://github.com/OpenZeppelin/openzeppelin-contracts/blob/master/contracts/access/Ownable.sol\":2431:2439  oldOwner */\n      dup2\n        /* \"https://github.com/OpenZeppelin/openzeppelin-contracts/blob/master/contracts/access/Ownable.sol\":2410:2450  OwnershipTransferred(oldOwner, newOwner) */\n      0xffffffffffffffffffffffffffffffffffffffff\n      and\n      0x8be0079c531659141344cd1fd0a4f28419497f9722a3daafe3b4186f6b6457e0\n      mload(0x40)\n      mload(0x40)\n      dup1\n      swap2\n      sub\n      swap1\n      log3\n        /* \"https://github.com/OpenZeppelin/openzeppelin-contracts/blob/master/contracts/access/Ownable.sol\":2333:2457  {... */\n      pop\n        /* \"https://github.com/OpenZeppelin/openzeppelin-contracts/blob/master/contracts/access/Ownable.sol\":2270:2457  function _transferOwnership(address newOwner) internal virtual {... */\n      pop\n      jump\t// out\n        /* \"lotto.sol\":5263:5680  function random(uint256 seed) internal view returns (uint256) {\r... */\n    tag_268:\n        /* \"lotto.sol\":5316:5323  uint256 */\n      0x00\n        /* \"lotto.sol\":5457:5461  seed */\n      dup2\n        /* \"lotto.sol\":5488:5503  block.timestamp */\n      timestamp\n        /* \"lotto.sol\":5530:5539  gasleft() */\n      gas\n        /* \"lotto.sol\":5566:5576  msg.sender */\n      caller\n        /* \"lotto.sol\":5603:5615  roundEntries */\n      sload(0x01)\n        /* \"lotto.sol\":5414:5638  abi.encodePacked(\r... */\n      add(0x20, mload(0x40))\n      tag_281\n      swap6\n      swap5\n      swap4\n      swap3\n      swap2\n      swap1\n      tag_282\n      jump\t// in\n    tag_281:\n      mload(0x40)\n      0x20\n      dup2\n      dup4\n      sub\n      sub\n      dup2\n      mstore\n      swap1\n      0x40\n      mstore\n        /* \"lotto.sol\":5382:5657  keccak256(\r... */\n      dup1\n      mload\n      swap1\n      0x20\n      add\n      keccak256\n        /* \"lotto.sol\":5356:5672  uint256(\r... */\n      0x00\n      shr\n        /* \"lotto.sol\":5336:5672  return\r... */\n      swap1\n      pop\n        /* \"lotto.sol\":5263:5680  function random(uint256 seed) internal view returns (uint256) {\r... */\n      swap2\n      swap1\n      pop\n      jump\t// out\n    tag_228:\n      mload(0x40)\n      dup1\n      0xa0\n      add\n      0x40\n      mstore\n      dup1\n      0x00\n      dup2\n      mstore\n      0x20\n      add\n      0x00\n      dup2\n      mstore\n      0x20\n      add\n      0x00\n      dup2\n      mstore\n      0x20\n      add\n      0x00\n      dup2\n      mstore\n      0x20\n      add\n      and(0xffffffffffffffffffffffffffffffffffffffff, 0x00)\n      dup2\n      mstore\n      pop\n      swap1\n      jump\t// out\n        /* \"#utility.yul\":7:146   */\n    tag_284:\n        /* \"#utility.yul\":53:58   */\n      0x00\n        /* \"#utility.yul\":91:97   */\n      dup2\n        /* \"#utility.yul\":78:98   */\n      calldataload\n        /* \"#utility.yul\":69:98   */\n      swap1\n      pop\n        /* \"#utility.yul\":107:140   */\n      tag_286\n        /* \"#utility.yul\":134:139   */\n      dup2\n        /* \"#utility.yul\":107:140   */\n      tag_287\n      jump\t// in\n    tag_286:\n        /* \"#utility.yul\":7:146   */\n      swap3\n      swap2\n      pop\n      pop\n      jump\t// out\n        /* \"#utility.yul\":152:291   */\n    tag_288:\n        /* \"#utility.yul\":198:203   */\n      0x00\n        /* \"#utility.yul\":236:242   */\n      dup2\n        /* \"#utility.yul\":223:243   */\n      calldataload\n        /* \"#utility.yul\":214:243   */\n      swap1\n      pop\n        /* \"#utility.yul\":252:285   */\n      tag_290\n        /* \"#utility.yul\":279:284   */\n      dup2\n        /* \"#utility.yul\":252:285   */\n      tag_291\n      jump\t// in\n    tag_290:\n        /* \"#utility.yul\":152:291   */\n      swap3\n      swap2\n      pop\n      pop\n      jump\t// out\n        /* \"#utility.yul\":297:440   */\n    tag_292:\n        /* \"#utility.yul\":354:359   */\n      0x00\n        /* \"#utility.yul\":385:391   */\n      dup2\n        /* \"#utility.yul\":379:392   */\n      mload\n        /* \"#utility.yul\":370:392   */\n      swap1\n      pop\n        /* \"#utility.yul\":401:434   */\n      tag_294\n        /* \"#utility.yul\":428:433   */\n      dup2\n        /* \"#utility.yul\":401:434   */\n      tag_291\n      jump\t// in\n    tag_294:\n        /* \"#utility.yul\":297:440   */\n      swap3\n      swap2\n      pop\n      pop\n      jump\t// out\n        /* \"#utility.yul\":446:775   */\n    tag_61:\n        /* \"#utility.yul\":505:511   */\n      0x00\n        /* \"#utility.yul\":554:556   */\n      0x20\n        /* \"#utility.yul\":542:551   */\n      dup3\n        /* \"#utility.yul\":533:540   */\n      dup5\n        /* \"#utility.yul\":529:552   */\n      sub\n        /* \"#utility.yul\":525:557   */\n      slt\n        /* \"#utility.yul\":522:641   */\n      iszero\n      tag_296\n      jumpi\n        /* \"#utility.yul\":560:639   */\n      tag_297\n      tag_298\n      jump\t// in\n    tag_297:\n        /* \"#utility.yul\":522:641   */\n    tag_296:\n        /* \"#utility.yul\":680:681   */\n      0x00\n        /* \"#utility.yul\":705:758   */\n      tag_299\n        /* \"#utility.yul\":750:757   */\n      dup5\n        /* \"#utility.yul\":741:747   */\n      dup3\n        /* \"#utility.yul\":730:739   */\n      dup6\n        /* \"#utility.yul\":726:748   */\n      add\n        /* \"#utility.yul\":705:758   */\n      tag_284\n      jump\t// in\n    tag_299:\n        /* \"#utility.yul\":695:758   */\n      swap2\n      pop\n        /* \"#utility.yul\":651:768   */\n      pop\n        /* \"#utility.yul\":446:775   */\n      swap3\n      swap2\n      pop\n      pop\n      jump\t// out\n        /* \"#utility.yul\":781:1255   */\n    tag_31:\n        /* \"#utility.yul\":849:855   */\n      0x00\n        /* \"#utility.yul\":857:863   */\n      dup1\n        /* \"#utility.yul\":906:908   */\n      0x40\n        /* \"#utility.yul\":894:903   */\n      dup4\n        /* \"#utility.yul\":885:892   */\n      dup6\n        /* \"#utility.yul\":881:904   */\n      sub\n        /* \"#utility.yul\":877:909   */\n      slt\n        /* \"#utility.yul\":874:993   */\n      iszero\n      tag_301\n      jumpi\n        /* \"#utility.yul\":912:991   */\n      tag_302\n      tag_298\n      jump\t// in\n    tag_302:\n        /* \"#utility.yul\":874:993   */\n    tag_301:\n        /* \"#utility.yul\":1032:1033   */\n      0x00\n        /* \"#utility.yul\":1057:1110   */\n      tag_303\n        /* \"#utility.yul\":1102:1109   */\n      dup6\n        /* \"#utility.yul\":1093:1099   */\n      dup3\n        /* \"#utility.yul\":1082:1091   */\n      dup7\n        /* \"#utility.yul\":1078:1100   */\n      add\n        /* \"#utility.yul\":1057:1110   */\n      tag_284\n      jump\t// in\n    tag_303:\n        /* \"#utility.yul\":1047:1110   */\n      swap3\n      pop\n        /* \"#utility.yul\":1003:1120   */\n      pop\n        /* \"#utility.yul\":1159:1161   */\n      0x20\n        /* \"#utility.yul\":1185:1238   */\n      tag_304\n        /* \"#utility.yul\":1230:1237   */\n      dup6\n        /* \"#utility.yul\":1221:1227   */\n      dup3\n        /* \"#utility.yul\":1210:1219   */\n      dup7\n        /* \"#utility.yul\":1206:1228   */\n      add\n        /* \"#utility.yul\":1185:1238   */\n      tag_288\n      jump\t// in\n    tag_304:\n        /* \"#utility.yul\":1175:1238   */\n      swap2\n      pop\n        /* \"#utility.yul\":1130:1248   */\n      pop\n        /* \"#utility.yul\":781:1255   */\n      swap3\n      pop\n      swap3\n      swap1\n      pop\n      jump\t// out\n        /* \"#utility.yul\":1261:1590   */\n    tag_89:\n        /* \"#utility.yul\":1320:1326   */\n      0x00\n        /* \"#utility.yul\":1369:1371   */\n      0x20\n        /* \"#utility.yul\":1357:1366   */\n      dup3\n        /* \"#utility.yul\":1348:1355   */\n      dup5\n        /* \"#utility.yul\":1344:1367   */\n      sub\n        /* \"#utility.yul\":1340:1372   */\n      slt\n        /* \"#utility.yul\":1337:1456   */\n      iszero\n      tag_306\n      jumpi\n        /* \"#utility.yul\":1375:1454   */\n      tag_307\n      tag_298\n      jump\t// in\n    tag_307:\n        /* \"#utility.yul\":1337:1456   */\n    tag_306:\n        /* \"#utility.yul\":1495:1496   */\n      0x00\n        /* \"#utility.yul\":1520:1573   */\n      tag_308\n        /* \"#utility.yul\":1565:1572   */\n      dup5\n        /* \"#utility.yul\":1556:1562   */\n      dup3\n        /* \"#utility.yul\":1545:1554   */\n      dup6\n        /* \"#utility.yul\":1541:1563   */\n      add\n        /* \"#utility.yul\":1520:1573   */\n      tag_288\n      jump\t// in\n    tag_308:\n        /* \"#utility.yul\":1510:1573   */\n      swap2\n      pop\n        /* \"#utility.yul\":1466:1583   */\n      pop\n        /* \"#utility.yul\":1261:1590   */\n      swap3\n      swap2\n      pop\n      pop\n      jump\t// out\n        /* \"#utility.yul\":1596:1947   */\n    tag_277:\n        /* \"#utility.yul\":1666:1672   */\n      0x00\n        /* \"#utility.yul\":1715:1717   */\n      0x20\n        /* \"#utility.yul\":1703:1712   */\n      dup3\n        /* \"#utility.yul\":1694:1701   */\n      dup5\n        /* \"#utility.yul\":1690:1713   */\n      sub\n        /* \"#utility.yul\":1686:1718   */\n      slt\n        /* \"#utility.yul\":1683:1802   */\n      iszero\n      tag_310\n      jumpi\n        /* \"#utility.yul\":1721:1800   */\n      tag_311\n      tag_298\n      jump\t// in\n    tag_311:\n        /* \"#utility.yul\":1683:1802   */\n    tag_310:\n        /* \"#utility.yul\":1841:1842   */\n      0x00\n        /* \"#utility.yul\":1866:1930   */\n      tag_312\n        /* \"#utility.yul\":1922:1929   */\n      dup5\n        /* \"#utility.yul\":1913:1919   */\n      dup3\n        /* \"#utility.yul\":1902:1911   */\n      dup6\n        /* \"#utility.yul\":1898:1920   */\n      add\n        /* \"#utility.yul\":1866:1930   */\n      tag_292\n      jump\t// in\n    tag_312:\n        /* \"#utility.yul\":1856:1930   */\n      swap2\n      pop\n        /* \"#utility.yul\":1812:1940   */\n      pop\n        /* \"#utility.yul\":1596:1947   */\n      swap3\n      swap2\n      pop\n      pop\n      jump\t// out\n        /* \"#utility.yul\":1953:2427   */\n    tag_67:\n        /* \"#utility.yul\":2021:2027   */\n      0x00\n        /* \"#utility.yul\":2029:2035   */\n      dup1\n        /* \"#utility.yul\":2078:2080   */\n      0x40\n        /* \"#utility.yul\":2066:2075   */\n      dup4\n        /* \"#utility.yul\":2057:2064   */\n      dup6\n        /* \"#utility.yul\":2053:2076   */\n      sub\n        /* \"#utility.yul\":2049:2081   */\n      slt\n        /* \"#utility.yul\":2046:2165   */\n      iszero\n      tag_314\n      jumpi\n        /* \"#utility.yul\":2084:2163   */\n      tag_315\n      tag_298\n      jump\t// in\n    tag_315:\n        /* \"#utility.yul\":2046:2165   */\n    tag_314:\n        /* \"#utility.yul\":2204:2205   */\n      0x00\n        /* \"#utility.yul\":2229:2282   */\n      tag_316\n        /* \"#utility.yul\":2274:2281   */\n      dup6\n        /* \"#utility.yul\":2265:2271   */\n      dup3\n        /* \"#utility.yul\":2254:2263   */\n      dup7\n        /* \"#utility.yul\":2250:2272   */\n      add\n        /* \"#utility.yul\":2229:2282   */\n      tag_288\n      jump\t// in\n    tag_316:\n        /* \"#utility.yul\":2219:2282   */\n      swap3\n      pop\n        /* \"#utility.yul\":2175:2292   */\n      pop\n        /* \"#utility.yul\":2331:2333   */\n      0x20\n        /* \"#utility.yul\":2357:2410   */\n      tag_317\n        /* \"#utility.yul\":2402:2409   */\n      dup6\n        /* \"#utility.yul\":2393:2399   */\n      dup3\n        /* \"#utility.yul\":2382:2391   */\n      dup7\n        /* \"#utility.yul\":2378:2400   */\n      add\n        /* \"#utility.yul\":2357:2410   */\n      tag_288\n      jump\t// in\n    tag_317:\n        /* \"#utility.yul\":2347:2410   */\n      swap2\n      pop\n        /* \"#utility.yul\":2302:2420   */\n      pop\n        /* \"#utility.yul\":1953:2427   */\n      swap3\n      pop\n      swap3\n      swap1\n      pop\n      jump\t// out\n        /* \"#utility.yul\":2433:2612   */\n    tag_318:\n        /* \"#utility.yul\":2502:2512   */\n      0x00\n        /* \"#utility.yul\":2523:2569   */\n      tag_320\n        /* \"#utility.yul\":2565:2568   */\n      dup4\n        /* \"#utility.yul\":2557:2563   */\n      dup4\n        /* \"#utility.yul\":2523:2569   */\n      tag_321\n      jump\t// in\n    tag_320:\n        /* \"#utility.yul\":2601:2605   */\n      0x20\n        /* \"#utility.yul\":2596:2599   */\n      dup4\n        /* \"#utility.yul\":2592:2606   */\n      add\n        /* \"#utility.yul\":2578:2606   */\n      swap1\n      pop\n        /* \"#utility.yul\":2433:2612   */\n      swap3\n      swap2\n      pop\n      pop\n      jump\t// out\n        /* \"#utility.yul\":2618:2893   */\n    tag_322:\n        /* \"#utility.yul\":2735:2745   */\n      0x00\n        /* \"#utility.yul\":2756:2850   */\n      tag_324\n        /* \"#utility.yul\":2846:2849   */\n      dup4\n        /* \"#utility.yul\":2838:2844   */\n      dup4\n        /* \"#utility.yul\":2756:2850   */\n      tag_325\n      jump\t// in\n    tag_324:\n        /* \"#utility.yul\":2882:2886   */\n      0xa0\n        /* \"#utility.yul\":2877:2880   */\n      dup4\n        /* \"#utility.yul\":2873:2887   */\n      add\n        /* \"#utility.yul\":2859:2887   */\n      swap1\n      pop\n        /* \"#utility.yul\":2618:2893   */\n      swap3\n      swap2\n      pop\n      pop\n      jump\t// out\n        /* \"#utility.yul\":2899:3078   */\n    tag_326:\n        /* \"#utility.yul\":2968:2978   */\n      0x00\n        /* \"#utility.yul\":2989:3035   */\n      tag_328\n        /* \"#utility.yul\":3031:3034   */\n      dup4\n        /* \"#utility.yul\":3023:3029   */\n      dup4\n        /* \"#utility.yul\":2989:3035   */\n      tag_329\n      jump\t// in\n    tag_328:\n        /* \"#utility.yul\":3067:3071   */\n      0x20\n        /* \"#utility.yul\":3062:3065   */\n      dup4\n        /* \"#utility.yul\":3058:3072   */\n      add\n        /* \"#utility.yul\":3044:3072   */\n      swap1\n      pop\n        /* \"#utility.yul\":2899:3078   */\n      swap3\n      swap2\n      pop\n      pop\n      jump\t// out\n        /* \"#utility.yul\":3084:3192   */\n    tag_321:\n        /* \"#utility.yul\":3161:3185   */\n      tag_331\n        /* \"#utility.yul\":3179:3184   */\n      dup2\n        /* \"#utility.yul\":3161:3185   */\n      tag_332\n      jump\t// in\n    tag_331:\n        /* \"#utility.yul\":3156:3159   */\n      dup3\n        /* \"#utility.yul\":3149:3186   */\n      mstore\n        /* \"#utility.yul\":3084:3192   */\n      pop\n      pop\n      jump\t// out\n        /* \"#utility.yul\":3198:3316   */\n    tag_333:\n        /* \"#utility.yul\":3285:3309   */\n      tag_335\n        /* \"#utility.yul\":3303:3308   */\n      dup2\n        /* \"#utility.yul\":3285:3309   */\n      tag_332\n      jump\t// in\n    tag_335:\n        /* \"#utility.yul\":3280:3283   */\n      dup3\n        /* \"#utility.yul\":3273:3310   */\n      mstore\n        /* \"#utility.yul\":3198:3316   */\n      pop\n      pop\n      jump\t// out\n        /* \"#utility.yul\":3322:3479   */\n    tag_336:\n        /* \"#utility.yul\":3427:3472   */\n      tag_338\n        /* \"#utility.yul\":3447:3471   */\n      tag_339\n        /* \"#utility.yul\":3465:3470   */\n      dup3\n        /* \"#utility.yul\":3447:3471   */\n      tag_332\n      jump\t// in\n    tag_339:\n        /* \"#utility.yul\":3427:3472   */\n      tag_340\n      jump\t// in\n    tag_338:\n        /* \"#utility.yul\":3422:3425   */\n      dup3\n        /* \"#utility.yul\":3415:3473   */\n      mstore\n        /* \"#utility.yul\":3322:3479   */\n      pop\n      pop\n      jump\t// out\n        /* \"#utility.yul\":3515:4247   */\n    tag_341:\n        /* \"#utility.yul\":3634:3637   */\n      0x00\n        /* \"#utility.yul\":3663:3717   */\n      tag_343\n        /* \"#utility.yul\":3711:3716   */\n      dup3\n        /* \"#utility.yul\":3663:3717   */\n      tag_344\n      jump\t// in\n    tag_343:\n        /* \"#utility.yul\":3733:3819   */\n      tag_345\n        /* \"#utility.yul\":3812:3818   */\n      dup2\n        /* \"#utility.yul\":3807:3810   */\n      dup6\n        /* \"#utility.yul\":3733:3819   */\n      tag_346\n      jump\t// in\n    tag_345:\n        /* \"#utility.yul\":3726:3819   */\n      swap4\n      pop\n        /* \"#utility.yul\":3843:3899   */\n      tag_347\n        /* \"#utility.yul\":3893:3898   */\n      dup4\n        /* \"#utility.yul\":3843:3899   */\n      tag_348\n      jump\t// in\n    tag_347:\n        /* \"#utility.yul\":3922:3929   */\n      dup1\n        /* \"#utility.yul\":3953:3954   */\n      0x00\n        /* \"#utility.yul\":3938:4222   */\n    tag_349:\n        /* \"#utility.yul\":3963:3969   */\n      dup4\n        /* \"#utility.yul\":3960:3961   */\n      dup2\n        /* \"#utility.yul\":3957:3970   */\n      lt\n        /* \"#utility.yul\":3938:4222   */\n      iszero\n      tag_351\n      jumpi\n        /* \"#utility.yul\":4039:4045   */\n      dup2\n        /* \"#utility.yul\":4033:4046   */\n      mload\n        /* \"#utility.yul\":4066:4129   */\n      tag_352\n        /* \"#utility.yul\":4125:4128   */\n      dup9\n        /* \"#utility.yul\":4110:4123   */\n      dup3\n        /* \"#utility.yul\":4066:4129   */\n      tag_318\n      jump\t// in\n    tag_352:\n        /* \"#utility.yul\":4059:4129   */\n      swap8\n      pop\n        /* \"#utility.yul\":4152:4212   */\n      tag_353\n        /* \"#utility.yul\":4205:4211   */\n      dup4\n        /* \"#utility.yul\":4152:4212   */\n      tag_354\n      jump\t// in\n    tag_353:\n        /* \"#utility.yul\":4142:4212   */\n      swap3\n      pop\n        /* \"#utility.yul\":3998:4222   */\n      pop\n        /* \"#utility.yul\":3985:3986   */\n      0x01\n        /* \"#utility.yul\":3982:3983   */\n      dup2\n        /* \"#utility.yul\":3978:3987   */\n      add\n        /* \"#utility.yul\":3973:3987   */\n      swap1\n      pop\n        /* \"#utility.yul\":3938:4222   */\n      jump(tag_349)\n    tag_351:\n        /* \"#utility.yul\":3942:3956   */\n      pop\n        /* \"#utility.yul\":4238:4241   */\n      dup6\n        /* \"#utility.yul\":4231:4241   */\n      swap4\n      pop\n        /* \"#utility.yul\":3639:4247   */\n      pop\n      pop\n      pop\n        /* \"#utility.yul\":3515:4247   */\n      swap3\n      swap2\n      pop\n      pop\n      jump\t// out\n        /* \"#utility.yul\":4315:5239   */\n    tag_355:\n        /* \"#utility.yul\":4482:4485   */\n      0x00\n        /* \"#utility.yul\":4511:4589   */\n      tag_357\n        /* \"#utility.yul\":4583:4588   */\n      dup3\n        /* \"#utility.yul\":4511:4589   */\n      tag_358\n      jump\t// in\n    tag_357:\n        /* \"#utility.yul\":4605:4715   */\n      tag_359\n        /* \"#utility.yul\":4708:4714   */\n      dup2\n        /* \"#utility.yul\":4703:4706   */\n      dup6\n        /* \"#utility.yul\":4605:4715   */\n      tag_360\n      jump\t// in\n    tag_359:\n        /* \"#utility.yul\":4598:4715   */\n      swap4\n      pop\n        /* \"#utility.yul\":4739:4819   */\n      tag_361\n        /* \"#utility.yul\":4813:4818   */\n      dup4\n        /* \"#utility.yul\":4739:4819   */\n      tag_362\n      jump\t// in\n    tag_361:\n        /* \"#utility.yul\":4842:4849   */\n      dup1\n        /* \"#utility.yul\":4873:4874   */\n      0x00\n        /* \"#utility.yul\":4858:5214   */\n    tag_363:\n        /* \"#utility.yul\":4883:4889   */\n      dup4\n        /* \"#utility.yul\":4880:4881   */\n      dup2\n        /* \"#utility.yul\":4877:4890   */\n      lt\n        /* \"#utility.yul\":4858:5214   */\n      iszero\n      tag_365\n      jumpi\n        /* \"#utility.yul\":4959:4965   */\n      dup2\n        /* \"#utility.yul\":4953:4966   */\n      mload\n        /* \"#utility.yul\":4986:5097   */\n      tag_366\n        /* \"#utility.yul\":5093:5096   */\n      dup9\n        /* \"#utility.yul\":5078:5091   */\n      dup3\n        /* \"#utility.yul\":4986:5097   */\n      tag_322\n      jump\t// in\n    tag_366:\n        /* \"#utility.yul\":4979:5097   */\n      swap8\n      pop\n        /* \"#utility.yul\":5120:5204   */\n      tag_367\n        /* \"#utility.yul\":5197:5203   */\n      dup4\n        /* \"#utility.yul\":5120:5204   */\n      tag_368\n      jump\t// in\n    tag_367:\n        /* \"#utility.yul\":5110:5204   */\n      swap3\n      pop\n        /* \"#utility.yul\":4918:5214   */\n      pop\n        /* \"#utility.yul\":4905:4906   */\n      0x01\n        /* \"#utility.yul\":4902:4903   */\n      dup2\n        /* \"#utility.yul\":4898:4907   */\n      add\n        /* \"#utility.yul\":4893:4907   */\n      swap1\n      pop\n        /* \"#utility.yul\":4858:5214   */\n      jump(tag_363)\n    tag_365:\n        /* \"#utility.yul\":4862:4876   */\n      pop\n        /* \"#utility.yul\":5230:5233   */\n      dup6\n        /* \"#utility.yul\":5223:5233   */\n      swap4\n      pop\n        /* \"#utility.yul\":4487:5239   */\n      pop\n      pop\n      pop\n        /* \"#utility.yul\":4315:5239   */\n      swap3\n      swap2\n      pop\n      pop\n      jump\t// out\n        /* \"#utility.yul\":5275:6007   */\n    tag_369:\n        /* \"#utility.yul\":5394:5397   */\n      0x00\n        /* \"#utility.yul\":5423:5477   */\n      tag_371\n        /* \"#utility.yul\":5471:5476   */\n      dup3\n        /* \"#utility.yul\":5423:5477   */\n      tag_372\n      jump\t// in\n    tag_371:\n        /* \"#utility.yul\":5493:5579   */\n      tag_373\n        /* \"#utility.yul\":5572:5578   */\n      dup2\n        /* \"#utility.yul\":5567:5570   */\n      dup6\n        /* \"#utility.yul\":5493:5579   */\n      tag_374\n      jump\t// in\n    tag_373:\n        /* \"#utility.yul\":5486:5579   */\n      swap4\n      pop\n        /* \"#utility.yul\":5603:5659   */\n      tag_375\n        /* \"#utility.yul\":5653:5658   */\n      dup4\n        /* \"#utility.yul\":5603:5659   */\n      tag_376\n      jump\t// in\n    tag_375:\n        /* \"#utility.yul\":5682:5689   */\n      dup1\n        /* \"#utility.yul\":5713:5714   */\n      0x00\n        /* \"#utility.yul\":5698:5982   */\n    tag_377:\n        /* \"#utility.yul\":5723:5729   */\n      dup4\n        /* \"#utility.yul\":5720:5721   */\n      dup2\n        /* \"#utility.yul\":5717:5730   */\n      lt\n        /* \"#utility.yul\":5698:5982   */\n      iszero\n      tag_379\n      jumpi\n        /* \"#utility.yul\":5799:5805   */\n      dup2\n        /* \"#utility.yul\":5793:5806   */\n      mload\n        /* \"#utility.yul\":5826:5889   */\n      tag_380\n        /* \"#utility.yul\":5885:5888   */\n      dup9\n        /* \"#utility.yul\":5870:5883   */\n      dup3\n        /* \"#utility.yul\":5826:5889   */\n      tag_326\n      jump\t// in\n    tag_380:\n        /* \"#utility.yul\":5819:5889   */\n      swap8\n      pop\n        /* \"#utility.yul\":5912:5972   */\n      tag_381\n        /* \"#utility.yul\":5965:5971   */\n      dup4\n        /* \"#utility.yul\":5912:5972   */\n      tag_382\n      jump\t// in\n    tag_381:\n        /* \"#utility.yul\":5902:5972   */\n      swap3\n      pop\n        /* \"#utility.yul\":5758:5982   */\n      pop\n        /* \"#utility.yul\":5745:5746   */\n      0x01\n        /* \"#utility.yul\":5742:5743   */\n      dup2\n        /* \"#utility.yul\":5738:5747   */\n      add\n        /* \"#utility.yul\":5733:5747   */\n      swap1\n      pop\n        /* \"#utility.yul\":5698:5982   */\n      jump(tag_377)\n    tag_379:\n        /* \"#utility.yul\":5702:5716   */\n      pop\n        /* \"#utility.yul\":5998:6001   */\n      dup6\n        /* \"#utility.yul\":5991:6001   */\n      swap4\n      pop\n        /* \"#utility.yul\":5399:6007   */\n      pop\n      pop\n      pop\n        /* \"#utility.yul\":5275:6007   */\n      swap3\n      swap2\n      pop\n      pop\n      jump\t// out\n        /* \"#utility.yul\":6013:6122   */\n    tag_383:\n        /* \"#utility.yul\":6094:6115   */\n      tag_385\n        /* \"#utility.yul\":6109:6114   */\n      dup2\n        /* \"#utility.yul\":6094:6115   */\n      tag_386\n      jump\t// in\n    tag_385:\n        /* \"#utility.yul\":6089:6092   */\n      dup3\n        /* \"#utility.yul\":6082:6116   */\n      mstore\n        /* \"#utility.yul\":6013:6122   */\n      pop\n      pop\n      jump\t// out\n        /* \"#utility.yul\":6128:6287   */\n    tag_387:\n        /* \"#utility.yul\":6229:6280   */\n      tag_389\n        /* \"#utility.yul\":6274:6279   */\n      dup2\n        /* \"#utility.yul\":6229:6280   */\n      tag_390\n      jump\t// in\n    tag_389:\n        /* \"#utility.yul\":6224:6227   */\n      dup3\n        /* \"#utility.yul\":6217:6281   */\n      mstore\n        /* \"#utility.yul\":6128:6287   */\n      pop\n      pop\n      jump\t// out\n        /* \"#utility.yul\":6293:6659   */\n    tag_391:\n        /* \"#utility.yul\":6435:6438   */\n      0x00\n        /* \"#utility.yul\":6456:6523   */\n      tag_393\n        /* \"#utility.yul\":6520:6522   */\n      0x26\n        /* \"#utility.yul\":6515:6518   */\n      dup4\n        /* \"#utility.yul\":6456:6523   */\n      tag_394\n      jump\t// in\n    tag_393:\n        /* \"#utility.yul\":6449:6523   */\n      swap2\n      pop\n        /* \"#utility.yul\":6532:6625   */\n      tag_395\n        /* \"#utility.yul\":6621:6624   */\n      dup3\n        /* \"#utility.yul\":6532:6625   */\n      tag_396\n      jump\t// in\n    tag_395:\n        /* \"#utility.yul\":6650:6652   */\n      0x40\n        /* \"#utility.yul\":6645:6648   */\n      dup3\n        /* \"#utility.yul\":6641:6653   */\n      add\n        /* \"#utility.yul\":6634:6653   */\n      swap1\n      pop\n        /* \"#utility.yul\":6293:6659   */\n      swap2\n      swap1\n      pop\n      jump\t// out\n        /* \"#utility.yul\":6665:7031   */\n    tag_397:\n        /* \"#utility.yul\":6807:6810   */\n      0x00\n        /* \"#utility.yul\":6828:6895   */\n      tag_399\n        /* \"#utility.yul\":6892:6894   */\n      0x0b\n        /* \"#utility.yul\":6887:6890   */\n      dup4\n        /* \"#utility.yul\":6828:6895   */\n      tag_394\n      jump\t// in\n    tag_399:\n        /* \"#utility.yul\":6821:6895   */\n      swap2\n      pop\n        /* \"#utility.yul\":6904:6997   */\n      tag_400\n        /* \"#utility.yul\":6993:6996   */\n      dup3\n        /* \"#utility.yul\":6904:6997   */\n      tag_401\n      jump\t// in\n    tag_400:\n        /* \"#utility.yul\":7022:7024   */\n      0x20\n        /* \"#utility.yul\":7017:7020   */\n      dup3\n        /* \"#utility.yul\":7013:7025   */\n      add\n        /* \"#utility.yul\":7006:7025   */\n      swap1\n      pop\n        /* \"#utility.yul\":6665:7031   */\n      swap2\n      swap1\n      pop\n      jump\t// out\n        /* \"#utility.yul\":7037:7403   */\n    tag_402:\n        /* \"#utility.yul\":7179:7182   */\n      0x00\n        /* \"#utility.yul\":7200:7267   */\n      tag_404\n        /* \"#utility.yul\":7264:7266   */\n      0x20\n        /* \"#utility.yul\":7259:7262   */\n      dup4\n        /* \"#utility.yul\":7200:7267   */\n      tag_394\n      jump\t// in\n    tag_404:\n        /* \"#utility.yul\":7193:7267   */\n      swap2\n      pop\n        /* \"#utility.yul\":7276:7369   */\n      tag_405\n        /* \"#utility.yul\":7365:7368   */\n      dup3\n        /* \"#utility.yul\":7276:7369   */\n      tag_406\n      jump\t// in\n    tag_405:\n        /* \"#utility.yul\":7394:7396   */\n      0x20\n        /* \"#utility.yul\":7389:7392   */\n      dup3\n        /* \"#utility.yul\":7385:7397   */\n      add\n        /* \"#utility.yul\":7378:7397   */\n      swap1\n      pop\n        /* \"#utility.yul\":7037:7403   */\n      swap2\n      swap1\n      pop\n      jump\t// out\n        /* \"#utility.yul\":7467:8516   */\n    tag_325:\n        /* \"#utility.yul\":7602:7606   */\n      0xa0\n        /* \"#utility.yul\":7597:7600   */\n      dup3\n        /* \"#utility.yul\":7593:7607   */\n      add\n        /* \"#utility.yul\":7697:7701   */\n      0x00\n        /* \"#utility.yul\":7690:7695   */\n      dup3\n        /* \"#utility.yul\":7686:7702   */\n      add\n        /* \"#utility.yul\":7680:7703   */\n      mload\n        /* \"#utility.yul\":7716:7779   */\n      tag_408\n        /* \"#utility.yul\":7773:7777   */\n      0x00\n        /* \"#utility.yul\":7768:7771   */\n      dup6\n        /* \"#utility.yul\":7764:7778   */\n      add\n        /* \"#utility.yul\":7750:7762   */\n      dup3\n        /* \"#utility.yul\":7716:7779   */\n      tag_329\n      jump\t// in\n    tag_408:\n        /* \"#utility.yul\":7617:7789   */\n      pop\n        /* \"#utility.yul\":7880:7884   */\n      0x20\n        /* \"#utility.yul\":7873:7878   */\n      dup3\n        /* \"#utility.yul\":7869:7885   */\n      add\n        /* \"#utility.yul\":7863:7886   */\n      mload\n        /* \"#utility.yul\":7899:7962   */\n      tag_409\n        /* \"#utility.yul\":7956:7960   */\n      0x20\n        /* \"#utility.yul\":7951:7954   */\n      dup6\n        /* \"#utility.yul\":7947:7961   */\n      add\n        /* \"#utility.yul\":7933:7945   */\n      dup3\n        /* \"#utility.yul\":7899:7962   */\n      tag_329\n      jump\t// in\n    tag_409:\n        /* \"#utility.yul\":7799:7972   */\n      pop\n        /* \"#utility.yul\":8056:8060   */\n      0x40\n        /* \"#utility.yul\":8049:8054   */\n      dup3\n        /* \"#utility.yul\":8045:8061   */\n      add\n        /* \"#utility.yul\":8039:8062   */\n      mload\n        /* \"#utility.yul\":8075:8138   */\n      tag_410\n        /* \"#utility.yul\":8132:8136   */\n      0x40\n        /* \"#utility.yul\":8127:8130   */\n      dup6\n        /* \"#utility.yul\":8123:8137   */\n      add\n        /* \"#utility.yul\":8109:8121   */\n      dup3\n        /* \"#utility.yul\":8075:8138   */\n      tag_329\n      jump\t// in\n    tag_410:\n        /* \"#utility.yul\":7982:8148   */\n      pop\n        /* \"#utility.yul\":8233:8237   */\n      0x60\n        /* \"#utility.yul\":8226:8231   */\n      dup3\n        /* \"#utility.yul\":8222:8238   */\n      add\n        /* \"#utility.yul\":8216:8239   */\n      mload\n        /* \"#utility.yul\":8252:8315   */\n      tag_411\n        /* \"#utility.yul\":8309:8313   */\n      0x60\n        /* \"#utility.yul\":8304:8307   */\n      dup6\n        /* \"#utility.yul\":8300:8314   */\n      add\n        /* \"#utility.yul\":8286:8298   */\n      dup3\n        /* \"#utility.yul\":8252:8315   */\n      tag_329\n      jump\t// in\n    tag_411:\n        /* \"#utility.yul\":8158:8325   */\n      pop\n        /* \"#utility.yul\":8417:8421   */\n      0x80\n        /* \"#utility.yul\":8410:8415   */\n      dup3\n        /* \"#utility.yul\":8406:8422   */\n      add\n        /* \"#utility.yul\":8400:8423   */\n      mload\n        /* \"#utility.yul\":8436:8499   */\n      tag_412\n        /* \"#utility.yul\":8493:8497   */\n      0x80\n        /* \"#utility.yul\":8488:8491   */\n      dup6\n        /* \"#utility.yul\":8484:8498   */\n      add\n        /* \"#utility.yul\":8470:8482   */\n      dup3\n        /* \"#utility.yul\":8436:8499   */\n      tag_321\n      jump\t// in\n    tag_412:\n        /* \"#utility.yul\":8335:8509   */\n      pop\n        /* \"#utility.yul\":7571:8516   */\n      pop\n        /* \"#utility.yul\":7467:8516   */\n      pop\n      pop\n      jump\t// out\n        /* \"#utility.yul\":8522:8630   */\n    tag_329:\n        /* \"#utility.yul\":8599:8623   */\n      tag_414\n        /* \"#utility.yul\":8617:8622   */\n      dup2\n        /* \"#utility.yul\":8599:8623   */\n      tag_415\n      jump\t// in\n    tag_414:\n        /* \"#utility.yul\":8594:8597   */\n      dup3\n        /* \"#utility.yul\":8587:8624   */\n      mstore\n        /* \"#utility.yul\":8522:8630   */\n      pop\n      pop\n      jump\t// out\n        /* \"#utility.yul\":8636:8754   */\n    tag_416:\n        /* \"#utility.yul\":8723:8747   */\n      tag_418\n        /* \"#utility.yul\":8741:8746   */\n      dup2\n        /* \"#utility.yul\":8723:8747   */\n      tag_415\n      jump\t// in\n    tag_418:\n        /* \"#utility.yul\":8718:8721   */\n      dup3\n        /* \"#utility.yul\":8711:8748   */\n      mstore\n        /* \"#utility.yul\":8636:8754   */\n      pop\n      pop\n      jump\t// out\n        /* \"#utility.yul\":8760:8917   */\n    tag_419:\n        /* \"#utility.yul\":8865:8910   */\n      tag_421\n        /* \"#utility.yul\":8885:8909   */\n      tag_422\n        /* \"#utility.yul\":8903:8908   */\n      dup3\n        /* \"#utility.yul\":8885:8909   */\n      tag_415\n      jump\t// in\n    tag_422:\n        /* \"#utility.yul\":8865:8910   */\n      tag_423\n      jump\t// in\n    tag_421:\n        /* \"#utility.yul\":8860:8863   */\n      dup3\n        /* \"#utility.yul\":8853:8911   */\n      mstore\n        /* \"#utility.yul\":8760:8917   */\n      pop\n      pop\n      jump\t// out\n        /* \"#utility.yul\":8923:9743   */\n    tag_282:\n        /* \"#utility.yul\":9147:9150   */\n      0x00\n        /* \"#utility.yul\":9162:9237   */\n      tag_425\n        /* \"#utility.yul\":9233:9236   */\n      dup3\n        /* \"#utility.yul\":9224:9230   */\n      dup9\n        /* \"#utility.yul\":9162:9237   */\n      tag_419\n      jump\t// in\n    tag_425:\n        /* \"#utility.yul\":9262:9264   */\n      0x20\n        /* \"#utility.yul\":9257:9260   */\n      dup3\n        /* \"#utility.yul\":9253:9265   */\n      add\n        /* \"#utility.yul\":9246:9265   */\n      swap2\n      pop\n        /* \"#utility.yul\":9275:9350   */\n      tag_426\n        /* \"#utility.yul\":9346:9349   */\n      dup3\n        /* \"#utility.yul\":9337:9343   */\n      dup8\n        /* \"#utility.yul\":9275:9350   */\n      tag_419\n      jump\t// in\n    tag_426:\n        /* \"#utility.yul\":9375:9377   */\n      0x20\n        /* \"#utility.yul\":9370:9373   */\n      dup3\n        /* \"#utility.yul\":9366:9378   */\n      add\n        /* \"#utility.yul\":9359:9378   */\n      swap2\n      pop\n        /* \"#utility.yul\":9388:9463   */\n      tag_427\n        /* \"#utility.yul\":9459:9462   */\n      dup3\n        /* \"#utility.yul\":9450:9456   */\n      dup7\n        /* \"#utility.yul\":9388:9463   */\n      tag_419\n      jump\t// in\n    tag_427:\n        /* \"#utility.yul\":9488:9490   */\n      0x20\n        /* \"#utility.yul\":9483:9486   */\n      dup3\n        /* \"#utility.yul\":9479:9491   */\n      add\n        /* \"#utility.yul\":9472:9491   */\n      swap2\n      pop\n        /* \"#utility.yul\":9501:9576   */\n      tag_428\n        /* \"#utility.yul\":9572:9575   */\n      dup3\n        /* \"#utility.yul\":9563:9569   */\n      dup6\n        /* \"#utility.yul\":9501:9576   */\n      tag_336\n      jump\t// in\n    tag_428:\n        /* \"#utility.yul\":9601:9603   */\n      0x14\n        /* \"#utility.yul\":9596:9599   */\n      dup3\n        /* \"#utility.yul\":9592:9604   */\n      add\n        /* \"#utility.yul\":9585:9604   */\n      swap2\n      pop\n        /* \"#utility.yul\":9614:9689   */\n      tag_429\n        /* \"#utility.yul\":9685:9688   */\n      dup3\n        /* \"#utility.yul\":9676:9682   */\n      dup5\n        /* \"#utility.yul\":9614:9689   */\n      tag_419\n      jump\t// in\n    tag_429:\n        /* \"#utility.yul\":9714:9716   */\n      0x20\n        /* \"#utility.yul\":9709:9712   */\n      dup3\n        /* \"#utility.yul\":9705:9717   */\n      add\n        /* \"#utility.yul\":9698:9717   */\n      swap2\n      pop\n        /* \"#utility.yul\":9734:9737   */\n      dup2\n        /* \"#utility.yul\":9727:9737   */\n      swap1\n      pop\n        /* \"#utility.yul\":8923:9743   */\n      swap7\n      swap6\n      pop\n      pop\n      pop\n      pop\n      pop\n      pop\n      jump\t// out\n        /* \"#utility.yul\":9749:9971   */\n    tag_54:\n        /* \"#utility.yul\":9842:9846   */\n      0x00\n        /* \"#utility.yul\":9880:9882   */\n      0x20\n        /* \"#utility.yul\":9869:9878   */\n      dup3\n        /* \"#utility.yul\":9865:9883   */\n      add\n        /* \"#utility.yul\":9857:9883   */\n      swap1\n      pop\n        /* \"#utility.yul\":9893:9964   */\n      tag_431\n        /* \"#utility.yul\":9961:9962   */\n      0x00\n        /* \"#utility.yul\":9950:9959   */\n      dup4\n        /* \"#utility.yul\":9946:9963   */\n      add\n        /* \"#utility.yul\":9937:9943   */\n      dup5\n        /* \"#utility.yul\":9893:9964   */\n      tag_333\n      jump\t// in\n    tag_431:\n        /* \"#utility.yul\":9749:9971   */\n      swap3\n      swap2\n      pop\n      pop\n      jump\t// out\n        /* \"#utility.yul\":9977:10309   */\n    tag_183:\n        /* \"#utility.yul\":10098:10102   */\n      0x00\n        /* \"#utility.yul\":10136:10138   */\n      0x40\n        /* \"#utility.yul\":10125:10134   */\n      dup3\n        /* \"#utility.yul\":10121:10139   */\n      add\n        /* \"#utility.yul\":10113:10139   */\n      swap1\n      pop\n        /* \"#utility.yul\":10149:10220   */\n      tag_433\n        /* \"#utility.yul\":10217:10218   */\n      0x00\n        /* \"#utility.yul\":10206:10215   */\n      dup4\n        /* \"#utility.yul\":10202:10219   */\n      add\n        /* \"#utility.yul\":10193:10199   */\n      dup6\n        /* \"#utility.yul\":10149:10220   */\n      tag_333\n      jump\t// in\n    tag_433:\n        /* \"#utility.yul\":10230:10302   */\n      tag_434\n        /* \"#utility.yul\":10298:10300   */\n      0x20\n        /* \"#utility.yul\":10287:10296   */\n      dup4\n        /* \"#utility.yul\":10283:10301   */\n      add\n        /* \"#utility.yul\":10274:10280   */\n      dup5\n        /* \"#utility.yul\":10230:10302   */\n      tag_416\n      jump\t// in\n    tag_434:\n        /* \"#utility.yul\":9977:10309   */\n      swap4\n      swap3\n      pop\n      pop\n      pop\n      jump\t// out\n        /* \"#utility.yul\":10315:10949   */\n    tag_44:\n        /* \"#utility.yul\":10536:10540   */\n      0x00\n        /* \"#utility.yul\":10574:10576   */\n      0x40\n        /* \"#utility.yul\":10563:10572   */\n      dup3\n        /* \"#utility.yul\":10559:10577   */\n      add\n        /* \"#utility.yul\":10551:10577   */\n      swap1\n      pop\n        /* \"#utility.yul\":10623:10632   */\n      dup2\n        /* \"#utility.yul\":10617:10621   */\n      dup2\n        /* \"#utility.yul\":10613:10633   */\n      sub\n        /* \"#utility.yul\":10609:10610   */\n      0x00\n        /* \"#utility.yul\":10598:10607   */\n      dup4\n        /* \"#utility.yul\":10594:10611   */\n      add\n        /* \"#utility.yul\":10587:10634   */\n      mstore\n        /* \"#utility.yul\":10651:10759   */\n      tag_436\n        /* \"#utility.yul\":10754:10758   */\n      dup2\n        /* \"#utility.yul\":10745:10751   */\n      dup6\n        /* \"#utility.yul\":10651:10759   */\n      tag_341\n      jump\t// in\n    tag_436:\n        /* \"#utility.yul\":10643:10759   */\n      swap1\n      pop\n        /* \"#utility.yul\":10806:10815   */\n      dup2\n        /* \"#utility.yul\":10800:10804   */\n      dup2\n        /* \"#utility.yul\":10796:10816   */\n      sub\n        /* \"#utility.yul\":10791:10793   */\n      0x20\n        /* \"#utility.yul\":10780:10789   */\n      dup4\n        /* \"#utility.yul\":10776:10794   */\n      add\n        /* \"#utility.yul\":10769:10817   */\n      mstore\n        /* \"#utility.yul\":10834:10942   */\n      tag_437\n        /* \"#utility.yul\":10937:10941   */\n      dup2\n        /* \"#utility.yul\":10928:10934   */\n      dup5\n        /* \"#utility.yul\":10834:10942   */\n      tag_369\n      jump\t// in\n    tag_437:\n        /* \"#utility.yul\":10826:10942   */\n      swap1\n      pop\n        /* \"#utility.yul\":10315:10949   */\n      swap4\n      swap3\n      pop\n      pop\n      pop\n      jump\t// out\n        /* \"#utility.yul\":10955:11424   */\n    tag_101:\n        /* \"#utility.yul\":11146:11150   */\n      0x00\n        /* \"#utility.yul\":11184:11186   */\n      0x20\n        /* \"#utility.yul\":11173:11182   */\n      dup3\n        /* \"#utility.yul\":11169:11187   */\n      add\n        /* \"#utility.yul\":11161:11187   */\n      swap1\n      pop\n        /* \"#utility.yul\":11233:11242   */\n      dup2\n        /* \"#utility.yul\":11227:11231   */\n      dup2\n        /* \"#utility.yul\":11223:11243   */\n      sub\n        /* \"#utility.yul\":11219:11220   */\n      0x00\n        /* \"#utility.yul\":11208:11217   */\n      dup4\n        /* \"#utility.yul\":11204:11221   */\n      add\n        /* \"#utility.yul\":11197:11244   */\n      mstore\n        /* \"#utility.yul\":11261:11417   */\n      tag_439\n        /* \"#utility.yul\":11412:11416   */\n      dup2\n        /* \"#utility.yul\":11403:11409   */\n      dup5\n        /* \"#utility.yul\":11261:11417   */\n      tag_355\n      jump\t// in\n    tag_439:\n        /* \"#utility.yul\":11253:11417   */\n      swap1\n      pop\n        /* \"#utility.yul\":10955:11424   */\n      swap3\n      swap2\n      pop\n      pop\n      jump\t// out\n        /* \"#utility.yul\":11430:11640   */\n    tag_64:\n        /* \"#utility.yul\":11517:11521   */\n      0x00\n        /* \"#utility.yul\":11555:11557   */\n      0x20\n        /* \"#utility.yul\":11544:11553   */\n      dup3\n        /* \"#utility.yul\":11540:11558   */\n      add\n        /* \"#utility.yul\":11532:11558   */\n      swap1\n      pop\n        /* \"#utility.yul\":11568:11633   */\n      tag_441\n        /* \"#utility.yul\":11630:11631   */\n      0x00\n        /* \"#utility.yul\":11619:11628   */\n      dup4\n        /* \"#utility.yul\":11615:11632   */\n      add\n        /* \"#utility.yul\":11606:11612   */\n      dup5\n        /* \"#utility.yul\":11568:11633   */\n      tag_383\n      jump\t// in\n    tag_441:\n        /* \"#utility.yul\":11430:11640   */\n      swap3\n      swap2\n      pop\n      pop\n      jump\t// out\n        /* \"#utility.yul\":11646:11896   */\n    tag_58:\n        /* \"#utility.yul\":11753:11757   */\n      0x00\n        /* \"#utility.yul\":11791:11793   */\n      0x20\n        /* \"#utility.yul\":11780:11789   */\n      dup3\n        /* \"#utility.yul\":11776:11794   */\n      add\n        /* \"#utility.yul\":11768:11794   */\n      swap1\n      pop\n        /* \"#utility.yul\":11804:11889   */\n      tag_443\n        /* \"#utility.yul\":11886:11887   */\n      0x00\n        /* \"#utility.yul\":11875:11884   */\n      dup4\n        /* \"#utility.yul\":11871:11888   */\n      add\n        /* \"#utility.yul\":11862:11868   */\n      dup5\n        /* \"#utility.yul\":11804:11889   */\n      tag_387\n      jump\t// in\n    tag_443:\n        /* \"#utility.yul\":11646:11896   */\n      swap3\n      swap2\n      pop\n      pop\n      jump\t// out\n        /* \"#utility.yul\":11902:12321   */\n    tag_264:\n        /* \"#utility.yul\":12068:12072   */\n      0x00\n        /* \"#utility.yul\":12106:12108   */\n      0x20\n        /* \"#utility.yul\":12095:12104   */\n      dup3\n        /* \"#utility.yul\":12091:12109   */\n      add\n        /* \"#utility.yul\":12083:12109   */\n      swap1\n      pop\n        /* \"#utility.yul\":12155:12164   */\n      dup2\n        /* \"#utility.yul\":12149:12153   */\n      dup2\n        /* \"#utility.yul\":12145:12165   */\n      sub\n        /* \"#utility.yul\":12141:12142   */\n      0x00\n        /* \"#utility.yul\":12130:12139   */\n      dup4\n        /* \"#utility.yul\":12126:12143   */\n      add\n        /* \"#utility.yul\":12119:12166   */\n      mstore\n        /* \"#utility.yul\":12183:12314   */\n      tag_445\n        /* \"#utility.yul\":12309:12313   */\n      dup2\n        /* \"#utility.yul\":12183:12314   */\n      tag_391\n      jump\t// in\n    tag_445:\n        /* \"#utility.yul\":12175:12314   */\n      swap1\n      pop\n        /* \"#utility.yul\":11902:12321   */\n      swap2\n      swap1\n      pop\n      jump\t// out\n        /* \"#utility.yul\":12327:12746   */\n    tag_160:\n        /* \"#utility.yul\":12493:12497   */\n      0x00\n        /* \"#utility.yul\":12531:12533   */\n      0x20\n        /* \"#utility.yul\":12520:12529   */\n      dup3\n        /* \"#utility.yul\":12516:12534   */\n      add\n        /* \"#utility.yul\":12508:12534   */\n      swap1\n      pop\n        /* \"#utility.yul\":12580:12589   */\n      dup2\n        /* \"#utility.yul\":12574:12578   */\n      dup2\n        /* \"#utility.yul\":12570:12590   */\n      sub\n        /* \"#utility.yul\":12566:12567   */\n      0x00\n        /* \"#utility.yul\":12555:12564   */\n      dup4\n        /* \"#utility.yul\":12551:12568   */\n      add\n        /* \"#utility.yul\":12544:12591   */\n      mstore\n        /* \"#utility.yul\":12608:12739   */\n      tag_447\n        /* \"#utility.yul\":12734:12738   */\n      dup2\n        /* \"#utility.yul\":12608:12739   */\n      tag_397\n      jump\t// in\n    tag_447:\n        /* \"#utility.yul\":12600:12739   */\n      swap1\n      pop\n        /* \"#utility.yul\":12327:12746   */\n      swap2\n      swap1\n      pop\n      jump\t// out\n        /* \"#utility.yul\":12752:13171   */\n    tag_178:\n        /* \"#utility.yul\":12918:12922   */\n      0x00\n        /* \"#utility.yul\":12956:12958   */\n      0x20\n        /* \"#utility.yul\":12945:12954   */\n      dup3\n        /* \"#utility.yul\":12941:12959   */\n      add\n        /* \"#utility.yul\":12933:12959   */\n      swap1\n      pop\n        /* \"#utility.yul\":13005:13014   */\n      dup2\n        /* \"#utility.yul\":12999:13003   */\n      dup2\n        /* \"#utility.yul\":12995:13015   */\n      sub\n        /* \"#utility.yul\":12991:12992   */\n      0x00\n        /* \"#utility.yul\":12980:12989   */\n      dup4\n        /* \"#utility.yul\":12976:12993   */\n      add\n        /* \"#utility.yul\":12969:13016   */\n      mstore\n        /* \"#utility.yul\":13033:13164   */\n      tag_449\n        /* \"#utility.yul\":13159:13163   */\n      dup2\n        /* \"#utility.yul\":13033:13164   */\n      tag_402\n      jump\t// in\n    tag_449:\n        /* \"#utility.yul\":13025:13164   */\n      swap1\n      pop\n        /* \"#utility.yul\":12752:13171   */\n      swap2\n      swap1\n      pop\n      jump\t// out\n        /* \"#utility.yul\":13177:13399   */\n    tag_34:\n        /* \"#utility.yul\":13270:13274   */\n      0x00\n        /* \"#utility.yul\":13308:13310   */\n      0x20\n        /* \"#utility.yul\":13297:13306   */\n      dup3\n        /* \"#utility.yul\":13293:13311   */\n      add\n        /* \"#utility.yul\":13285:13311   */\n      swap1\n      pop\n        /* \"#utility.yul\":13321:13392   */\n      tag_451\n        /* \"#utility.yul\":13389:13390   */\n      0x00\n        /* \"#utility.yul\":13378:13387   */\n      dup4\n        /* \"#utility.yul\":13374:13391   */\n      add\n        /* \"#utility.yul\":13365:13371   */\n      dup5\n        /* \"#utility.yul\":13321:13392   */\n      tag_416\n      jump\t// in\n    tag_451:\n        /* \"#utility.yul\":13177:13399   */\n      swap3\n      swap2\n      pop\n      pop\n      jump\t// out\n        /* \"#utility.yul\":13405:13737   */\n    tag_112:\n        /* \"#utility.yul\":13526:13530   */\n      0x00\n        /* \"#utility.yul\":13564:13566   */\n      0x40\n        /* \"#utility.yul\":13553:13562   */\n      dup3\n        /* \"#utility.yul\":13549:13567   */\n      add\n        /* \"#utility.yul\":13541:13567   */\n      swap1\n      pop\n        /* \"#utility.yul\":13577:13648   */\n      tag_453\n        /* \"#utility.yul\":13645:13646   */\n      0x00\n        /* \"#utility.yul\":13634:13643   */\n      dup4\n        /* \"#utility.yul\":13630:13647   */\n      add\n        /* \"#utility.yul\":13621:13627   */\n      dup6\n        /* \"#utility.yul\":13577:13648   */\n      tag_416\n      jump\t// in\n    tag_453:\n        /* \"#utility.yul\":13658:13730   */\n      tag_454\n        /* \"#utility.yul\":13726:13728   */\n      0x20\n        /* \"#utility.yul\":13715:13724   */\n      dup4\n        /* \"#utility.yul\":13711:13729   */\n      add\n        /* \"#utility.yul\":13702:13708   */\n      dup5\n        /* \"#utility.yul\":13658:13730   */\n      tag_333\n      jump\t// in\n    tag_454:\n        /* \"#utility.yul\":13405:13737   */\n      swap4\n      swap3\n      pop\n      pop\n      pop\n      jump\t// out\n        /* \"#utility.yul\":13743:14407   */\n    tag_92:\n        /* \"#utility.yul\":13948:13952   */\n      0x00\n        /* \"#utility.yul\":13986:13989   */\n      0xa0\n        /* \"#utility.yul\":13975:13984   */\n      dup3\n        /* \"#utility.yul\":13971:13990   */\n      add\n        /* \"#utility.yul\":13963:13990   */\n      swap1\n      pop\n        /* \"#utility.yul\":14000:14071   */\n      tag_456\n        /* \"#utility.yul\":14068:14069   */\n      0x00\n        /* \"#utility.yul\":14057:14066   */\n      dup4\n        /* \"#utility.yul\":14053:14070   */\n      add\n        /* \"#utility.yul\":14044:14050   */\n      dup9\n        /* \"#utility.yul\":14000:14071   */\n      tag_416\n      jump\t// in\n    tag_456:\n        /* \"#utility.yul\":14081:14153   */\n      tag_457\n        /* \"#utility.yul\":14149:14151   */\n      0x20\n        /* \"#utility.yul\":14138:14147   */\n      dup4\n        /* \"#utility.yul\":14134:14152   */\n      add\n        /* \"#utility.yul\":14125:14131   */\n      dup8\n        /* \"#utility.yul\":14081:14153   */\n      tag_416\n      jump\t// in\n    tag_457:\n        /* \"#utility.yul\":14163:14235   */\n      tag_458\n        /* \"#utility.yul\":14231:14233   */\n      0x40\n        /* \"#utility.yul\":14220:14229   */\n      dup4\n        /* \"#utility.yul\":14216:14234   */\n      add\n        /* \"#utility.yul\":14207:14213   */\n      dup7\n        /* \"#utility.yul\":14163:14235   */\n      tag_416\n      jump\t// in\n    tag_458:\n        /* \"#utility.yul\":14245:14317   */\n      tag_459\n        /* \"#utility.yul\":14313:14315   */\n      0x60\n        /* \"#utility.yul\":14302:14311   */\n      dup4\n        /* \"#utility.yul\":14298:14316   */\n      add\n        /* \"#utility.yul\":14289:14295   */\n      dup6\n        /* \"#utility.yul\":14245:14317   */\n      tag_416\n      jump\t// in\n    tag_459:\n        /* \"#utility.yul\":14327:14400   */\n      tag_460\n        /* \"#utility.yul\":14395:14398   */\n      0x80\n        /* \"#utility.yul\":14384:14393   */\n      dup4\n        /* \"#utility.yul\":14380:14399   */\n      add\n        /* \"#utility.yul\":14371:14377   */\n      dup5\n        /* \"#utility.yul\":14327:14400   */\n      tag_333\n      jump\t// in\n    tag_460:\n        /* \"#utility.yul\":13743:14407   */\n      swap7\n      swap6\n      pop\n      pop\n      pop\n      pop\n      pop\n      pop\n      jump\t// out\n        /* \"#utility.yul\":14494:14626   */\n    tag_348:\n        /* \"#utility.yul\":14561:14565   */\n      0x00\n        /* \"#utility.yul\":14584:14587   */\n      dup2\n        /* \"#utility.yul\":14576:14587   */\n      swap1\n      pop\n        /* \"#utility.yul\":14614:14618   */\n      0x20\n        /* \"#utility.yul\":14609:14612   */\n      dup3\n        /* \"#utility.yul\":14605:14619   */\n      add\n        /* \"#utility.yul\":14597:14619   */\n      swap1\n      pop\n        /* \"#utility.yul\":14494:14626   */\n      swap2\n      swap1\n      pop\n      jump\t// out\n        /* \"#utility.yul\":14632:14788   */\n    tag_362:\n        /* \"#utility.yul\":14723:14727   */\n      0x00\n        /* \"#utility.yul\":14746:14749   */\n      dup2\n        /* \"#utility.yul\":14738:14749   */\n      swap1\n      pop\n        /* \"#utility.yul\":14776:14780   */\n      0x20\n        /* \"#utility.yul\":14771:14774   */\n      dup3\n        /* \"#utility.yul\":14767:14781   */\n      add\n        /* \"#utility.yul\":14759:14781   */\n      swap1\n      pop\n        /* \"#utility.yul\":14632:14788   */\n      swap2\n      swap1\n      pop\n      jump\t// out\n        /* \"#utility.yul\":14794:14926   */\n    tag_376:\n        /* \"#utility.yul\":14861:14865   */\n      0x00\n        /* \"#utility.yul\":14884:14887   */\n      dup2\n        /* \"#utility.yul\":14876:14887   */\n      swap1\n      pop\n        /* \"#utility.yul\":14914:14918   */\n      0x20\n        /* \"#utility.yul\":14909:14912   */\n      dup3\n        /* \"#utility.yul\":14905:14919   */\n      add\n        /* \"#utility.yul\":14897:14919   */\n      swap1\n      pop\n        /* \"#utility.yul\":14794:14926   */\n      swap2\n      swap1\n      pop\n      jump\t// out\n        /* \"#utility.yul\":14932:15046   */\n    tag_344:\n        /* \"#utility.yul\":14999:15005   */\n      0x00\n        /* \"#utility.yul\":15033:15038   */\n      dup2\n        /* \"#utility.yul\":15027:15039   */\n      mload\n        /* \"#utility.yul\":15017:15039   */\n      swap1\n      pop\n        /* \"#utility.yul\":14932:15046   */\n      swap2\n      swap1\n      pop\n      jump\t// out\n        /* \"#utility.yul\":15052:15190   */\n    tag_358:\n        /* \"#utility.yul\":15143:15149   */\n      0x00\n        /* \"#utility.yul\":15177:15182   */\n      dup2\n        /* \"#utility.yul\":15171:15183   */\n      mload\n        /* \"#utility.yul\":15161:15183   */\n      swap1\n      pop\n        /* \"#utility.yul\":15052:15190   */\n      swap2\n      swap1\n      pop\n      jump\t// out\n        /* \"#utility.yul\":15196:15310   */\n    tag_372:\n        /* \"#utility.yul\":15263:15269   */\n      0x00\n        /* \"#utility.yul\":15297:15302   */\n      dup2\n        /* \"#utility.yul\":15291:15303   */\n      mload\n        /* \"#utility.yul\":15281:15303   */\n      swap1\n      pop\n        /* \"#utility.yul\":15196:15310   */\n      swap2\n      swap1\n      pop\n      jump\t// out\n        /* \"#utility.yul\":15316:15429   */\n    tag_354:\n        /* \"#utility.yul\":15386:15390   */\n      0x00\n        /* \"#utility.yul\":15418:15422   */\n      0x20\n        /* \"#utility.yul\":15413:15416   */\n      dup3\n        /* \"#utility.yul\":15409:15423   */\n      add\n        /* \"#utility.yul\":15401:15423   */\n      swap1\n      pop\n        /* \"#utility.yul\":15316:15429   */\n      swap2\n      swap1\n      pop\n      jump\t// out\n        /* \"#utility.yul\":15435:15572   */\n    tag_368:\n        /* \"#utility.yul\":15529:15533   */\n      0x00\n        /* \"#utility.yul\":15561:15565   */\n      0x20\n        /* \"#utility.yul\":15556:15559   */\n      dup3\n        /* \"#utility.yul\":15552:15566   */\n      add\n        /* \"#utility.yul\":15544:15566   */\n      swap1\n      pop\n        /* \"#utility.yul\":15435:15572   */\n      swap2\n      swap1\n      pop\n      jump\t// out\n        /* \"#utility.yul\":15578:15691   */\n    tag_382:\n        /* \"#utility.yul\":15648:15652   */\n      0x00\n        /* \"#utility.yul\":15680:15684   */\n      0x20\n        /* \"#utility.yul\":15675:15678   */\n      dup3\n        /* \"#utility.yul\":15671:15685   */\n      add\n        /* \"#utility.yul\":15663:15685   */\n      swap1\n      pop\n        /* \"#utility.yul\":15578:15691   */\n      swap2\n      swap1\n      pop\n      jump\t// out\n        /* \"#utility.yul\":15697:15881   */\n    tag_346:\n        /* \"#utility.yul\":15796:15807   */\n      0x00\n        /* \"#utility.yul\":15830:15836   */\n      dup3\n        /* \"#utility.yul\":15825:15828   */\n      dup3\n        /* \"#utility.yul\":15818:15837   */\n      mstore\n        /* \"#utility.yul\":15870:15874   */\n      0x20\n        /* \"#utility.yul\":15865:15868   */\n      dup3\n        /* \"#utility.yul\":15861:15875   */\n      add\n        /* \"#utility.yul\":15846:15875   */\n      swap1\n      pop\n        /* \"#utility.yul\":15697:15881   */\n      swap3\n      swap2\n      pop\n      pop\n      jump\t// out\n        /* \"#utility.yul\":15887:16095   */\n    tag_360:\n        /* \"#utility.yul\":16010:16021   */\n      0x00\n        /* \"#utility.yul\":16044:16050   */\n      dup3\n        /* \"#utility.yul\":16039:16042   */\n      dup3\n        /* \"#utility.yul\":16032:16051   */\n      mstore\n        /* \"#utility.yul\":16084:16088   */\n      0x20\n        /* \"#utility.yul\":16079:16082   */\n      dup3\n        /* \"#utility.yul\":16075:16089   */\n      add\n        /* \"#utility.yul\":16060:16089   */\n      swap1\n      pop\n        /* \"#utility.yul\":15887:16095   */\n      swap3\n      swap2\n      pop\n      pop\n      jump\t// out\n        /* \"#utility.yul\":16101:16285   */\n    tag_374:\n        /* \"#utility.yul\":16200:16211   */\n      0x00\n        /* \"#utility.yul\":16234:16240   */\n      dup3\n        /* \"#utility.yul\":16229:16232   */\n      dup3\n        /* \"#utility.yul\":16222:16241   */\n      mstore\n        /* \"#utility.yul\":16274:16278   */\n      0x20\n        /* \"#utility.yul\":16269:16272   */\n      dup3\n        /* \"#utility.yul\":16265:16279   */\n      add\n        /* \"#utility.yul\":16250:16279   */\n      swap1\n      pop\n        /* \"#utility.yul\":16101:16285   */\n      swap3\n      swap2\n      pop\n      pop\n      jump\t// out\n        /* \"#utility.yul\":16291:16460   */\n    tag_394:\n        /* \"#utility.yul\":16375:16386   */\n      0x00\n        /* \"#utility.yul\":16409:16415   */\n      dup3\n        /* \"#utility.yul\":16404:16407   */\n      dup3\n        /* \"#utility.yul\":16397:16416   */\n      mstore\n        /* \"#utility.yul\":16449:16453   */\n      0x20\n        /* \"#utility.yul\":16444:16447   */\n      dup3\n        /* \"#utility.yul\":16440:16454   */\n      add\n        /* \"#utility.yul\":16425:16454   */\n      swap1\n      pop\n        /* \"#utility.yul\":16291:16460   */\n      swap3\n      swap2\n      pop\n      pop\n      jump\t// out\n        /* \"#utility.yul\":16466:16771   */\n    tag_166:\n        /* \"#utility.yul\":16506:16509   */\n      0x00\n        /* \"#utility.yul\":16525:16545   */\n      tag_477\n        /* \"#utility.yul\":16543:16544   */\n      dup3\n        /* \"#utility.yul\":16525:16545   */\n      tag_415\n      jump\t// in\n    tag_477:\n        /* \"#utility.yul\":16520:16545   */\n      swap2\n      pop\n        /* \"#utility.yul\":16559:16579   */\n      tag_478\n        /* \"#utility.yul\":16577:16578   */\n      dup4\n        /* \"#utility.yul\":16559:16579   */\n      tag_415\n      jump\t// in\n    tag_478:\n        /* \"#utility.yul\":16554:16579   */\n      swap3\n      pop\n        /* \"#utility.yul\":16713:16714   */\n      dup3\n        /* \"#utility.yul\":16645:16711   */\n      0xffffffffffffffffffffffffffffffffffffffffffffffffffffffffffffffff\n        /* \"#utility.yul\":16641:16715   */\n      sub\n        /* \"#utility.yul\":16638:16639   */\n      dup3\n        /* \"#utility.yul\":16635:16716   */\n      gt\n        /* \"#utility.yul\":16632:16739   */\n      iszero\n      tag_479\n      jumpi\n        /* \"#utility.yul\":16719:16737   */\n      tag_480\n      tag_481\n      jump\t// in\n    tag_480:\n        /* \"#utility.yul\":16632:16739   */\n    tag_479:\n        /* \"#utility.yul\":16763:16764   */\n      dup3\n        /* \"#utility.yul\":16760:16761   */\n      dup3\n        /* \"#utility.yul\":16756:16765   */\n      add\n        /* \"#utility.yul\":16749:16765   */\n      swap1\n      pop\n        /* \"#utility.yul\":16466:16771   */\n      swap3\n      swap2\n      pop\n      pop\n      jump\t// out\n        /* \"#utility.yul\":16777:16968   */\n    tag_210:\n        /* \"#utility.yul\":16817:16821   */\n      0x00\n        /* \"#utility.yul\":16837:16857   */\n      tag_483\n        /* \"#utility.yul\":16855:16856   */\n      dup3\n        /* \"#utility.yul\":16837:16857   */\n      tag_415\n      jump\t// in\n    tag_483:\n        /* \"#utility.yul\":16832:16857   */\n      swap2\n      pop\n        /* \"#utility.yul\":16871:16891   */\n      tag_484\n        /* \"#utility.yul\":16889:16890   */\n      dup4\n        /* \"#utility.yul\":16871:16891   */\n      tag_415\n      jump\t// in\n    tag_484:\n        /* \"#utility.yul\":16866:16891   */\n      swap3\n      pop\n        /* \"#utility.yul\":16910:16911   */\n      dup3\n        /* \"#utility.yul\":16907:16908   */\n      dup3\n        /* \"#utility.yul\":16904:16912   */\n      lt\n        /* \"#utility.yul\":16901:16935   */\n      iszero\n      tag_485\n      jumpi\n        /* \"#utility.yul\":16915:16933   */\n      tag_486\n      tag_481\n      jump\t// in\n    tag_486:\n        /* \"#utility.yul\":16901:16935   */\n    tag_485:\n        /* \"#utility.yul\":16960:16961   */\n      dup3\n        /* \"#utility.yul\":16957:16958   */\n      dup3\n        /* \"#utility.yul\":16953:16962   */\n      sub\n        /* \"#utility.yul\":16945:16962   */\n      swap1\n      pop\n        /* \"#utility.yul\":16777:16968   */\n      swap3\n      swap2\n      pop\n      pop\n      jump\t// out\n        /* \"#utility.yul\":16974:17070   */\n    tag_332:\n        /* \"#utility.yul\":17011:17018   */\n      0x00\n        /* \"#utility.yul\":17040:17064   */\n      tag_488\n        /* \"#utility.yul\":17058:17063   */\n      dup3\n        /* \"#utility.yul\":17040:17064   */\n      tag_489\n      jump\t// in\n    tag_488:\n        /* \"#utility.yul\":17029:17064   */\n      swap1\n      pop\n        /* \"#utility.yul\":16974:17070   */\n      swap2\n      swap1\n      pop\n      jump\t// out\n        /* \"#utility.yul\":17076:17166   */\n    tag_386:\n        /* \"#utility.yul\":17110:17117   */\n      0x00\n        /* \"#utility.yul\":17153:17158   */\n      dup2\n        /* \"#utility.yul\":17146:17159   */\n      iszero\n        /* \"#utility.yul\":17139:17160   */\n      iszero\n        /* \"#utility.yul\":17128:17160   */\n      swap1\n      pop\n        /* \"#utility.yul\":17076:17166   */\n      swap2\n      swap1\n      pop\n      jump\t// out\n        /* \"#utility.yul\":17172:17298   */\n    tag_489:\n        /* \"#utility.yul\":17209:17216   */\n      0x00\n        /* \"#utility.yul\":17249:17291   */\n      0xffffffffffffffffffffffffffffffffffffffff\n        /* \"#utility.yul\":17242:17247   */\n      dup3\n        /* \"#utility.yul\":17238:17292   */\n      and\n        /* \"#utility.yul\":17227:17292   */\n      swap1\n      pop\n        /* \"#utility.yul\":17172:17298   */\n      swap2\n      swap1\n      pop\n      jump\t// out\n        /* \"#utility.yul\":17304:17381   */\n    tag_415:\n        /* \"#utility.yul\":17341:17348   */\n      0x00\n        /* \"#utility.yul\":17370:17375   */\n      dup2\n        /* \"#utility.yul\":17359:17375   */\n      swap1\n      pop\n        /* \"#utility.yul\":17304:17381   */\n      swap2\n      swap1\n      pop\n      jump\t// out\n        /* \"#utility.yul\":17387:17527   */\n    tag_390:\n        /* \"#utility.yul\":17451:17460   */\n      0x00\n        /* \"#utility.yul\":17484:17521   */\n      tag_494\n        /* \"#utility.yul\":17515:17520   */\n      dup3\n        /* \"#utility.yul\":17484:17521   */\n      tag_495\n      jump\t// in\n    tag_494:\n        /* \"#utility.yul\":17471:17521   */\n      swap1\n      pop\n        /* \"#utility.yul\":17387:17527   */\n      swap2\n      swap1\n      pop\n      jump\t// out\n        /* \"#utility.yul\":17533:17659   */\n    tag_495:\n        /* \"#utility.yul\":17583:17592   */\n      0x00\n        /* \"#utility.yul\":17616:17653   */\n      tag_497\n        /* \"#utility.yul\":17647:17652   */\n      dup3\n        /* \"#utility.yul\":17616:17653   */\n      tag_498\n      jump\t// in\n    tag_497:\n        /* \"#utility.yul\":17603:17653   */\n      swap1\n      pop\n        /* \"#utility.yul\":17533:17659   */\n      swap2\n      swap1\n      pop\n      jump\t// out\n        /* \"#utility.yul\":17665:17778   */\n    tag_498:\n        /* \"#utility.yul\":17715:17724   */\n      0x00\n        /* \"#utility.yul\":17748:17772   */\n      tag_500\n        /* \"#utility.yul\":17766:17771   */\n      dup3\n        /* \"#utility.yul\":17748:17772   */\n      tag_489\n      jump\t// in\n    tag_500:\n        /* \"#utility.yul\":17735:17772   */\n      swap1\n      pop\n        /* \"#utility.yul\":17665:17778   */\n      swap2\n      swap1\n      pop\n      jump\t// out\n        /* \"#utility.yul\":17784:18017   */\n    tag_128:\n        /* \"#utility.yul\":17823:17826   */\n      0x00\n        /* \"#utility.yul\":17846:17870   */\n      tag_502\n        /* \"#utility.yul\":17864:17869   */\n      dup3\n        /* \"#utility.yul\":17846:17870   */\n      tag_415\n      jump\t// in\n    tag_502:\n        /* \"#utility.yul\":17837:17870   */\n      swap2\n      pop\n        /* \"#utility.yul\":17892:17958   */\n      0xffffffffffffffffffffffffffffffffffffffffffffffffffffffffffffffff\n        /* \"#utility.yul\":17885:17890   */\n      dup3\n        /* \"#utility.yul\":17882:17959   */\n      eq\n        /* \"#utility.yul\":17879:17982   */\n      iszero\n      tag_503\n      jumpi\n        /* \"#utility.yul\":17962:17980   */\n      tag_504\n      tag_481\n      jump\t// in\n    tag_504:\n        /* \"#utility.yul\":17879:17982   */\n    tag_503:\n        /* \"#utility.yul\":18009:18010   */\n      0x01\n        /* \"#utility.yul\":18002:18007   */\n      dup3\n        /* \"#utility.yul\":17998:18011   */\n      add\n        /* \"#utility.yul\":17991:18011   */\n      swap1\n      pop\n        /* \"#utility.yul\":17784:18017   */\n      swap2\n      swap1\n      pop\n      jump\t// out\n        /* \"#utility.yul\":18023:18123   */\n    tag_340:\n        /* \"#utility.yul\":18062:18069   */\n      0x00\n        /* \"#utility.yul\":18091:18117   */\n      tag_506\n        /* \"#utility.yul\":18111:18116   */\n      dup3\n        /* \"#utility.yul\":18091:18117   */\n      tag_507\n      jump\t// in\n    tag_506:\n        /* \"#utility.yul\":18080:18117   */\n      swap1\n      pop\n        /* \"#utility.yul\":18023:18123   */\n      swap2\n      swap1\n      pop\n      jump\t// out\n        /* \"#utility.yul\":18129:18223   */\n    tag_507:\n        /* \"#utility.yul\":18168:18175   */\n      0x00\n        /* \"#utility.yul\":18197:18217   */\n      tag_509\n        /* \"#utility.yul\":18211:18216   */\n      dup3\n        /* \"#utility.yul\":18197:18217   */\n      tag_510\n      jump\t// in\n    tag_509:\n        /* \"#utility.yul\":18186:18217   */\n      swap1\n      pop\n        /* \"#utility.yul\":18129:18223   */\n      swap2\n      swap1\n      pop\n      jump\t// out\n        /* \"#utility.yul\":18229:18308   */\n    tag_423:\n        /* \"#utility.yul\":18268:18275   */\n      0x00\n        /* \"#utility.yul\":18297:18302   */\n      dup2\n        /* \"#utility.yul\":18286:18302   */\n      swap1\n      pop\n        /* \"#utility.yul\":18229:18308   */\n      swap2\n      swap1\n      pop\n      jump\t// out\n        /* \"#utility.yul\":18314:18490   */\n    tag_270:\n        /* \"#utility.yul\":18346:18347   */\n      0x00\n        /* \"#utility.yul\":18363:18383   */\n      tag_513\n        /* \"#utility.yul\":18381:18382   */\n      dup3\n        /* \"#utility.yul\":18363:18383   */\n      tag_415\n      jump\t// in\n    tag_513:\n        /* \"#utility.yul\":18358:18383   */\n      swap2\n      pop\n        /* \"#utility.yul\":18397:18417   */\n      tag_514\n        /* \"#utility.yul\":18415:18416   */\n      dup4\n        /* \"#utility.yul\":18397:18417   */\n      tag_415\n      jump\t// in\n    tag_514:\n        /* \"#utility.yul\":18392:18417   */\n      swap3\n      pop\n        /* \"#utility.yul\":18436:18437   */\n      dup3\n        /* \"#utility.yul\":18426:18461   */\n      tag_515\n      jumpi\n        /* \"#utility.yul\":18441:18459   */\n      tag_516\n      tag_517\n      jump\t// in\n    tag_516:\n        /* \"#utility.yul\":18426:18461   */\n    tag_515:\n        /* \"#utility.yul\":18482:18483   */\n      dup3\n        /* \"#utility.yul\":18479:18480   */\n      dup3\n        /* \"#utility.yul\":18475:18484   */\n      mod\n        /* \"#utility.yul\":18470:18484   */\n      swap1\n      pop\n        /* \"#utility.yul\":18314:18490   */\n      swap3\n      swap2\n      pop\n      pop\n      jump\t// out\n        /* \"#utility.yul\":18496:18676   */\n    tag_481:\n        /* \"#utility.yul\":18544:18621   */\n      0x4e487b7100000000000000000000000000000000000000000000000000000000\n        /* \"#utility.yul\":18541:18542   */\n      0x00\n        /* \"#utility.yul\":18534:18622   */\n      mstore\n        /* \"#utility.yul\":18641:18645   */\n      0x11\n        /* \"#utility.yul\":18638:18639   */\n      0x04\n        /* \"#utility.yul\":18631:18646   */\n      mstore\n        /* \"#utility.yul\":18665:18669   */\n      0x24\n        /* \"#utility.yul\":18662:18663   */\n      0x00\n        /* \"#utility.yul\":18655:18670   */\n      revert\n        /* \"#utility.yul\":18682:18862   */\n    tag_517:\n        /* \"#utility.yul\":18730:18807   */\n      0x4e487b7100000000000000000000000000000000000000000000000000000000\n        /* \"#utility.yul\":18727:18728   */\n      0x00\n        /* \"#utility.yul\":18720:18808   */\n      mstore\n        /* \"#utility.yul\":18827:18831   */\n      0x12\n        /* \"#utility.yul\":18824:18825   */\n      0x04\n        /* \"#utility.yul\":18817:18832   */\n      mstore\n        /* \"#utility.yul\":18851:18855   */\n      0x24\n        /* \"#utility.yul\":18848:18849   */\n      0x00\n        /* \"#utility.yul\":18841:18856   */\n      revert\n        /* \"#utility.yul\":18868:19048   */\n    tag_217:\n        /* \"#utility.yul\":18916:18993   */\n      0x4e487b7100000000000000000000000000000000000000000000000000000000\n        /* \"#utility.yul\":18913:18914   */\n      0x00\n        /* \"#utility.yul\":18906:18994   */\n      mstore\n        /* \"#utility.yul\":19013:19017   */\n      0x31\n        /* \"#utility.yul\":19010:19011   */\n      0x04\n        /* \"#utility.yul\":19003:19018   */\n      mstore\n        /* \"#utility.yul\":19037:19041   */\n      0x24\n        /* \"#utility.yul\":19034:19035   */\n      0x00\n        /* \"#utility.yul\":19027:19042   */\n      revert\n        /* \"#utility.yul\":19054:19234   */\n    tag_124:\n        /* \"#utility.yul\":19102:19179   */\n      0x4e487b7100000000000000000000000000000000000000000000000000000000\n        /* \"#utility.yul\":19099:19100   */\n      0x00\n        /* \"#utility.yul\":19092:19180   */\n      mstore\n        /* \"#utility.yul\":19199:19203   */\n      0x32\n        /* \"#utility.yul\":19196:19197   */\n      0x04\n        /* \"#utility.yul\":19189:19204   */\n      mstore\n        /* \"#utility.yul\":19223:19227   */\n      0x24\n        /* \"#utility.yul\":19220:19221   */\n      0x00\n        /* \"#utility.yul\":19213:19228   */\n      revert\n        /* \"#utility.yul\":19240:19420   */\n    tag_134:\n        /* \"#utility.yul\":19288:19365   */\n      0x4e487b7100000000000000000000000000000000000000000000000000000000\n        /* \"#utility.yul\":19285:19286   */\n      0x00\n        /* \"#utility.yul\":19278:19366   */\n      mstore\n        /* \"#utility.yul\":19385:19389   */\n      0x41\n        /* \"#utility.yul\":19382:19383   */\n      0x04\n        /* \"#utility.yul\":19375:19390   */\n      mstore\n        /* \"#utility.yul\":19409:19413   */\n      0x24\n        /* \"#utility.yul\":19406:19407   */\n      0x00\n        /* \"#utility.yul\":19399:19414   */\n      revert\n        /* \"#utility.yul\":19549:19666   */\n    tag_298:\n        /* \"#utility.yul\":19658:19659   */\n      0x00\n        /* \"#utility.yul\":19655:19656   */\n      dup1\n        /* \"#utility.yul\":19648:19660   */\n      revert\n        /* \"#utility.yul\":19672:19766   */\n    tag_510:\n        /* \"#utility.yul\":19705:19713   */\n      0x00\n        /* \"#utility.yul\":19753:19758   */\n      dup2\n        /* \"#utility.yul\":19749:19751   */\n      0x60\n        /* \"#utility.yul\":19745:19759   */\n      shl\n        /* \"#utility.yul\":19724:19759   */\n      swap1\n      pop\n        /* \"#utility.yul\":19672:19766   */\n      swap2\n      swap1\n      pop\n      jump\t// out\n        /* \"#utility.yul\":19772:19997   */\n    tag_396:\n        /* \"#utility.yul\":19912:19946   */\n      0x4f776e61626c653a206e6577206f776e657220697320746865207a65726f2061\n        /* \"#utility.yul\":19908:19909   */\n      0x00\n        /* \"#utility.yul\":19900:19906   */\n      dup3\n        /* \"#utility.yul\":19896:19910   */\n      add\n        /* \"#utility.yul\":19889:19947   */\n      mstore\n        /* \"#utility.yul\":19981:19989   */\n      0x6464726573730000000000000000000000000000000000000000000000000000\n        /* \"#utility.yul\":19976:19978   */\n      0x20\n        /* \"#utility.yul\":19968:19974   */\n      dup3\n        /* \"#utility.yul\":19964:19979   */\n      add\n        /* \"#utility.yul\":19957:19990   */\n      mstore\n        /* \"#utility.yul\":19772:19997   */\n      pop\n      jump\t// out\n        /* \"#utility.yul\":20003:20164   */\n    tag_401:\n        /* \"#utility.yul\":20143:20156   */\n      0x4e6f7420616c6c6f776564000000000000000000000000000000000000000000\n        /* \"#utility.yul\":20139:20140   */\n      0x00\n        /* \"#utility.yul\":20131:20137   */\n      dup3\n        /* \"#utility.yul\":20127:20141   */\n      add\n        /* \"#utility.yul\":20120:20157   */\n      mstore\n        /* \"#utility.yul\":20003:20164   */\n      pop\n      jump\t// out\n        /* \"#utility.yul\":20170:20352   */\n    tag_406:\n        /* \"#utility.yul\":20310:20344   */\n      0x4f776e61626c653a2063616c6c6572206973206e6f7420746865206f776e6572\n        /* \"#utility.yul\":20306:20307   */\n      0x00\n        /* \"#utility.yul\":20298:20304   */\n      dup3\n        /* \"#utility.yul\":20294:20308   */\n      add\n        /* \"#utility.yul\":20287:20345   */\n      mstore\n        /* \"#utility.yul\":20170:20352   */\n      pop\n      jump\t// out\n        /* \"#utility.yul\":20358:20480   */\n    tag_287:\n        /* \"#utility.yul\":20431:20455   */\n      tag_531\n        /* \"#utility.yul\":20449:20454   */\n      dup2\n        /* \"#utility.yul\":20431:20455   */\n      tag_332\n      jump\t// in\n    tag_531:\n        /* \"#utility.yul\":20424:20429   */\n      dup2\n        /* \"#utility.yul\":20421:20456   */\n      eq\n        /* \"#utility.yul\":20411:20474   */\n      tag_532\n      jumpi\n        /* \"#utility.yul\":20470:20471   */\n      0x00\n        /* \"#utility.yul\":20467:20468   */\n      dup1\n        /* \"#utility.yul\":20460:20472   */\n      revert\n        /* \"#utility.yul\":20411:20474   */\n    tag_532:\n        /* \"#utility.yul\":20358:20480   */\n      pop\n      jump\t// out\n        /* \"#utility.yul\":20486:20608   */\n    tag_291:\n        /* \"#utility.yul\":20559:20583   */\n      tag_534\n        /* \"#utility.yul\":20577:20582   */\n      dup2\n        /* \"#utility.yul\":20559:20583   */\n      tag_415\n      jump\t// in\n    tag_534:\n        /* \"#utility.yul\":20552:20557   */\n      dup2\n        /* \"#utility.yul\":20549:20584   */\n      eq\n        /* \"#utility.yul\":20539:20602   */\n      tag_535\n      jumpi\n        /* \"#utility.yul\":20598:20599   */\n      0x00\n        /* \"#utility.yul\":20595:20596   */\n      dup1\n        /* \"#utility.yul\":20588:20600   */\n      revert\n        /* \"#utility.yul\":20539:20602   */\n    tag_535:\n        /* \"#utility.yul\":20486:20608   */\n      pop\n      jump\t// out\n\n    auxdata: 0xa26469706673582212206dbc420273faf520f02153fd4a01f1d8ce29a0c4b67d0a3655e373e54d302ca664736f6c63430008070033\n}\n",
				"bytecode": {
					"linkReferences": {},
					"object": "608060405273e9e7cea3dedca5984780bafc599bd69add087d56600460006101000a81548173ffffffffffffffffffffffffffffffffffffffff021916908373ffffffffffffffffffffffffffffffffffffffff160217905550735b38da6a701c568545dcfcb03fcb875f56beddc4600560006101000a81548173ffffffffffffffffffffffffffffffffffffffff021916908373ffffffffffffffffffffffffffffffffffffffff160217905550730ed2fd07b8be10e2b8737e39ad33663dc711c31b600660006101000a81548173ffffffffffffffffffffffffffffffffffffffff021916908373ffffffffffffffffffffffffffffffffffffffff16021790555034801561010f57600080fd5b5061012c61012161013160201b60201c565b61013960201b60201c565b6101fd565b600033905090565b60008060009054906101000a900473ffffffffffffffffffffffffffffffffffffffff169050816000806101000a81548173ffffffffffffffffffffffffffffffffffffffff021916908373ffffffffffffffffffffffffffffffffffffffff1602179055508173ffffffffffffffffffffffffffffffffffffffff168173ffffffffffffffffffffffffffffffffffffffff167f8be0079c531659141344cd1fd0a4f28419497f9722a3daafe3b4186f6b6457e060405160405180910390a35050565b612168806200020d6000396000f3fe608060405234801561001057600080fd5b506004361061014d5760003560e01c806376636d20116100c3578063b657dd651161007c578063b657dd6514610383578063bc15cdf0146103b3578063c4740a95146103e3578063f2fde38b146103ff578063f737d21d1461041b578063f9cee0bd1461044c5761014d565b806376636d20146102a95780638da5cb5b146102c75780639b3e4552146102e55780639f10a99014610303578063a59460dc14610333578063ac128f4f1461034f5761014d565b8063454f7b8f11610115578063454f7b8f146101f95780634626402b14610217578063484f4ea9146102355780635bedc390146102535780636fbb5a8614610283578063715018a61461029f5761014d565b80630d98827014610152578063119b22b314610182578063158977de146101a05780633b98bc65146101be578063443b80a1146101dd575b600080fd5b61016c6004803603810190610167919061173c565b61046a565b6040516101799190611c63565b60405180910390f35b61018a61049b565b6040516101979190611c63565b60405180910390f35b6101a86104a1565b6040516101b59190611c63565b60405180910390f35b6101c6610572565b6040516101d4929190611b74565b60405180910390f35b6101f760048036038101906101f2919061173c565b61079b565b005b610201610984565b60405161020e9190611c63565b60405180910390f35b61021f61098a565b60405161022c9190611b30565b60405180910390f35b61023d6109b0565b60405161024a9190611be8565b60405180910390f35b61026d6004803603810190610268919061170f565b6109d6565b60405161027a9190611bcd565b60405180910390f35b61029d600480360381019061029891906117d6565b6109f0565b005b6102a7610bd9565b005b6102b1610c61565b6040516102be9190611c63565b60405180910390f35b6102cf610c67565b6040516102dc9190611b30565b60405180910390f35b6102ed610c90565b6040516102fa9190611b30565b60405180910390f35b61031d6004803603810190610318919061170f565b610cb6565b60405161032a9190611c63565b60405180910390f35b61034d6004803603810190610348919061173c565b610d02565b005b6103696004803603810190610364919061177c565b610fec565b60405161037a959493929190611ca7565b60405180910390f35b61039d6004803603810190610398919061177c565b611042565b6040516103aa9190611b30565b60405180910390f35b6103cd60048036038101906103c891906117d6565b611075565b6040516103da9190611bab565b60405180910390f35b6103fd60048036038101906103f8919061170f565b61126a565b005b6104196004803603810190610414919061170f565b611360565b005b6104356004803603810190610430919061177c565b611458565b604051610443929190611c7e565b60405180910390f35b6104546114ae565b6040516104619190611c63565b60405180910390f35b6009602052816000526040600020818154811061048657600080fd5b90600052602060002001600091509150505481565b60025481565b6000805b60015481101561056e5760006008600083815260200190815260200160002060009054906101000a900473ffffffffffffffffffffffffffffffffffffffff169050600960008273ffffffffffffffffffffffffffffffffffffffff1673ffffffffffffffffffffffffffffffffffffffff16815260200190815260200160002060008154811061053957610538611ff3565b5b906000526020600020015482141561055a57828061055690611ebe565b9350505b50808061056690611ebe565b9150506104a5565b5090565b606080600061057f6104a1565b90508067ffffffffffffffff81111561059b5761059a612022565b5b6040519080825280602002602001820160405280156105c95781602001602082028036833780820191505090505b5092508067ffffffffffffffff8111156105e6576105e5612022565b5b6040519080825280602002602001820160405280156106145781602001602082028036833780820191505090505b5091506000805b6001548110156107945760006008600083815260200190815260200160002060009054906101000a900473ffffffffffffffffffffffffffffffffffffffff169050600960008273ffffffffffffffffffffffffffffffffffffffff1673ffffffffffffffffffffffffffffffffffffffff1681526020019081526020016000206000815481106106af576106ae611ff3565b5b906000526020600020015482141561078057808684815181106106d5576106d4611ff3565b5b602002602001019073ffffffffffffffffffffffffffffffffffffffff16908173ffffffffffffffffffffffffffffffffffffffff1681525050600960008273ffffffffffffffffffffffffffffffffffffffff1673ffffffffffffffffffffffffffffffffffffffff1681526020019081526020016000208054905085848151811061076557610764611ff3565b5b602002602001018181525050828061077c90611ebe565b9350505b50808061078c90611ebe565b91505061061b565b5050509091565b6107a3611582565b73ffffffffffffffffffffffffffffffffffffffff166107c1610c67565b73ffffffffffffffffffffffffffffffffffffffff16148061083757506107e6611582565b73ffffffffffffffffffffffffffffffffffffffff16600560009054906101000a900473ffffffffffffffffffffffffffffffffffffffff1673ffffffffffffffffffffffffffffffffffffffff16145b610876576040517f08c379a000000000000000000000000000000000000000000000000000000000815260040161086d90611c23565b60405180910390fd5b60005b81811015610966578260086000836001546108949190611db6565b815260200190815260200160002060006101000a81548173ffffffffffffffffffffffffffffffffffffffff021916908373ffffffffffffffffffffffffffffffffffffffff160217905550600960008473ffffffffffffffffffffffffffffffffffffffff1673ffffffffffffffffffffffffffffffffffffffff1681526020019081526020016000208160015461092d9190611db6565b9080600181540180825580915050600190039060005260206000200160009091909190915055808061095e90611ebe565b915050610879565b5080600160008282546109799190611db6565b925050819055505050565b60035481565b600660009054906101000a900473ffffffffffffffffffffffffffffffffffffffff1681565b600460009054906101000a900473ffffffffffffffffffffffffffffffffffffffff1681565b6000806109e283610cb6565b905060008111915050919050565b6109f8611582565b73ffffffffffffffffffffffffffffffffffffffff16610a16610c67565b73ffffffffffffffffffffffffffffffffffffffff1614610a6c576040517f08c379a0000000000000000000000000000000000000000000000000000000008152600401610a6390611c43565b60405180910390fd5b60006008600084815260200190815260200160002060009054906101000a900473ffffffffffffffffffffffffffffffffffffffff1690506040518060a0016040528060015481526020018481526020018381526020014281526020018273ffffffffffffffffffffffffffffffffffffffff168152506007600060025481526020019081526020016000206000820151816000015560208201518160010155604082015181600201556060820151816003015560808201518160040160006101000a81548173ffffffffffffffffffffffffffffffffffffffff021916908373ffffffffffffffffffffffffffffffffffffffff1602179055509050508160036000828254610b7c9190611db6565b9250508190555060026000815480929190610b9690611ebe565b91905055507f2e798dd4337e515c79b64c40e1a93baa1aefbd9180ac7905e02508edd7971e508183604051610bcc929190611b4b565b60405180910390a1505050565b610be1611582565b73ffffffffffffffffffffffffffffffffffffffff16610bff610c67565b73ffffffffffffffffffffffffffffffffffffffff1614610c55576040517f08c379a0000000000000000000000000000000000000000000000000000000008152600401610c4c90611c43565b60405180910390fd5b610c5f600061158a565b565b60015481565b60008060009054906101000a900473ffffffffffffffffffffffffffffffffffffffff16905090565b600560009054906101000a900473ffffffffffffffffffffffffffffffffffffffff1681565b6000600960008373ffffffffffffffffffffffffffffffffffffffff1673ffffffffffffffffffffffffffffffffffffffff168152602001908152602001600020805490509050919050565b610d0a611582565b73ffffffffffffffffffffffffffffffffffffffff16610d28610c67565b73ffffffffffffffffffffffffffffffffffffffff161480610d9e5750610d4d611582565b73ffffffffffffffffffffffffffffffffffffffff16600560009054906101000a900473ffffffffffffffffffffffffffffffffffffffff1673ffffffffffffffffffffffffffffffffffffffff16145b610ddd576040517f08c379a0000000000000000000000000000000000000000000000000000000008152600401610dd490611c23565b60405180910390fd5b6000610de883610cb6565b90506000811415610df95750610fe8565b80821115610e05578091505b6000600190505b828111610fcc576000600960008673ffffffffffffffffffffffffffffffffffffffff1673ffffffffffffffffffffffffffffffffffffffff1681526020019081526020016000206001600960008873ffffffffffffffffffffffffffffffffffffffff1673ffffffffffffffffffffffffffffffffffffffff16815260200190815260200160002080549050610ea39190611e0c565b81548110610eb457610eb3611ff3565b5b906000526020600020015490506008600083600154610ed39190611e0c565b815260200190815260200160002060009054906101000a900473ffffffffffffffffffffffffffffffffffffffff166008600083815260200190815260200160002060006101000a81548173ffffffffffffffffffffffffffffffffffffffff021916908373ffffffffffffffffffffffffffffffffffffffff160217905550600960008673ffffffffffffffffffffffffffffffffffffffff1673ffffffffffffffffffffffffffffffffffffffff168152602001908152602001600020805480610fa257610fa1611fc4565b5b60019003818190600052602060002001600090559055508080610fc490611ebe565b915050610e0c565b508160016000828254610fdf9190611e0c565b92505081905550505b5050565b60076020528060005260406000206000915090508060000154908060010154908060020154908060030154908060040160009054906101000a900473ffffffffffffffffffffffffffffffffffffffff16905085565b60086020528060005260406000206000915054906101000a900473ffffffffffffffffffffffffffffffffffffffff1681565b6060600060025414156110de57600067ffffffffffffffff81111561109d5761109c612022565b5b6040519080825280602002602001820160405280156110d657816020015b6110c361168b565b8152602001906001900390816110bb5790505b509050611264565b60025482106110f95760016002546110f69190611e0c565b91505b6000600184846111099190611e0c565b6111139190611db6565b905060008167ffffffffffffffff81111561113157611130612022565b5b60405190808252806020026020018201604052801561116a57816020015b61115761168b565b81526020019060019003908161114f5790505b50925060008590505b8481116112605760076000828861118a9190611db6565b81526020019081526020016000206040518060a0016040529081600082015481526020016001820154815260200160028201548152602001600382015481526020016004820160009054906101000a900473ffffffffffffffffffffffffffffffffffffffff1673ffffffffffffffffffffffffffffffffffffffff1673ffffffffffffffffffffffffffffffffffffffff168152505084838151811061123457611233611ff3565b5b6020026020010181905250818061124a90611ebe565b925050808061125890611ebe565b915050611173565b5050505b92915050565b611272611582565b73ffffffffffffffffffffffffffffffffffffffff16611290610c67565b73ffffffffffffffffffffffffffffffffffffffff16148061130657506112b5611582565b73ffffffffffffffffffffffffffffffffffffffff16600560009054906101000a900473ffffffffffffffffffffffffffffffffffffffff1673ffffffffffffffffffffffffffffffffffffffff16145b611345576040517f08c379a000000000000000000000000000000000000000000000000000000000815260040161133c90611c23565b60405180910390fd5b600061135082610cb6565b905061135c8282610d02565b5050565b611368611582565b73ffffffffffffffffffffffffffffffffffffffff16611386610c67565b73ffffffffffffffffffffffffffffffffffffffff16146113dc576040517f08c379a00000000000000000000000000000000000000000000000000000000081526004016113d390611c43565b60405180910390fd5b600073ffffffffffffffffffffffffffffffffffffffff168173ffffffffffffffffffffffffffffffffffffffff16141561144c576040517f08c379a000000000000000000000000000000000000000000000000000000000815260040161144390611c03565b60405180910390fd5b6114558161158a565b50565b6000806001546114678461164e565b6114719190611f35565b91506008600083815260200190815260200160002060009054906101000a900473ffffffffffffffffffffffffffffffffffffffff169050915091565b6000600460009054906101000a900473ffffffffffffffffffffffffffffffffffffffff1673ffffffffffffffffffffffffffffffffffffffff166370a08231600660009054906101000a900473ffffffffffffffffffffffffffffffffffffffff166040518263ffffffff1660e01b815260040161152d9190611b30565b60206040518083038186803b15801561154557600080fd5b505afa158015611559573d6000803e3d6000fd5b505050506040513d601f19601f8201168201806040525081019061157d91906117a9565b905090565b600033905090565b60008060009054906101000a900473ffffffffffffffffffffffffffffffffffffffff169050816000806101000a81548173ffffffffffffffffffffffffffffffffffffffff021916908373ffffffffffffffffffffffffffffffffffffffff1602179055508173ffffffffffffffffffffffffffffffffffffffff168173ffffffffffffffffffffffffffffffffffffffff167f8be0079c531659141344cd1fd0a4f28419497f9722a3daafe3b4186f6b6457e060405160405180910390a35050565b600081425a3360015460405160200161166b959493929190611ad1565b6040516020818303038152906040528051906020012060001c9050919050565b6040518060a0016040528060008152602001600081526020016000815260200160008152602001600073ffffffffffffffffffffffffffffffffffffffff1681525090565b6000813590506116df81612104565b92915050565b6000813590506116f48161211b565b92915050565b6000815190506117098161211b565b92915050565b60006020828403121561172557611724612051565b5b6000611733848285016116d0565b91505092915050565b6000806040838503121561175357611752612051565b5b6000611761858286016116d0565b9250506020611772858286016116e5565b9150509250929050565b60006020828403121561179257611791612051565b5b60006117a0848285016116e5565b91505092915050565b6000602082840312156117bf576117be612051565b5b60006117cd848285016116fa565b91505092915050565b600080604083850312156117ed576117ec612051565b5b60006117fb858286016116e5565b925050602061180c858286016116e5565b9150509250929050565b6000611822838361185e565b60208301905092915050565b600061183a8383611a34565b60a08301905092915050565b60006118528383611a9c565b60208301905092915050565b61186781611e40565b82525050565b61187681611e40565b82525050565b61188d61188882611e40565b611f07565b82525050565b600061189e82611d2a565b6118a88185611d72565b93506118b383611cfa565b8060005b838110156118e45781516118cb8882611816565b97506118d683611d4b565b9250506001810190506118b7565b5085935050505092915050565b60006118fc82611d35565b6119068185611d83565b935061191183611d0a565b8060005b83811015611942578151611929888261182e565b975061193483611d58565b925050600181019050611915565b5085935050505092915050565b600061195a82611d40565b6119648185611d94565b935061196f83611d1a565b8060005b838110156119a05781516119878882611846565b975061199283611d65565b925050600181019050611973565b5085935050505092915050565b6119b681611e52565b82525050565b6119c581611e88565b82525050565b60006119d8602683611da5565b91506119e382612063565b604082019050919050565b60006119fb600b83611da5565b9150611a06826120b2565b602082019050919050565b6000611a1e602083611da5565b9150611a29826120db565b602082019050919050565b60a082016000820151611a4a6000850182611a9c565b506020820151611a5d6020850182611a9c565b506040820151611a706040850182611a9c565b506060820151611a836060850182611a9c565b506080820151611a96608085018261185e565b50505050565b611aa581611e7e565b82525050565b611ab481611e7e565b82525050565b611acb611ac682611e7e565b611f2b565b82525050565b6000611add8288611aba565b602082019150611aed8287611aba565b602082019150611afd8286611aba565b602082019150611b0d828561187c565b601482019150611b1d8284611aba565b6020820191508190509695505050505050565b6000602082019050611b45600083018461186d565b92915050565b6000604082019050611b60600083018561186d565b611b6d6020830184611aab565b9392505050565b60006040820190508181036000830152611b8e8185611893565b90508181036020830152611ba2818461194f565b90509392505050565b60006020820190508181036000830152611bc581846118f1565b905092915050565b6000602082019050611be260008301846119ad565b92915050565b6000602082019050611bfd60008301846119bc565b92915050565b60006020820190508181036000830152611c1c816119cb565b9050919050565b60006020820190508181036000830152611c3c816119ee565b9050919050565b60006020820190508181036000830152611c5c81611a11565b9050919050565b6000602082019050611c786000830184611aab565b92915050565b6000604082019050611c936000830185611aab565b611ca0602083018461186d565b9392505050565b600060a082019050611cbc6000830188611aab565b611cc96020830187611aab565b611cd66040830186611aab565b611ce36060830185611aab565b611cf0608083018461186d565b9695505050505050565b6000819050602082019050919050565b6000819050602082019050919050565b6000819050602082019050919050565b600081519050919050565b600081519050919050565b600081519050919050565b6000602082019050919050565b6000602082019050919050565b6000602082019050919050565b600082825260208201905092915050565b600082825260208201905092915050565b600082825260208201905092915050565b600082825260208201905092915050565b6000611dc182611e7e565b9150611dcc83611e7e565b9250827fffffffffffffffffffffffffffffffffffffffffffffffffffffffffffffffff03821115611e0157611e00611f66565b5b828201905092915050565b6000611e1782611e7e565b9150611e2283611e7e565b925082821015611e3557611e34611f66565b5b828203905092915050565b6000611e4b82611e5e565b9050919050565b60008115159050919050565b600073ffffffffffffffffffffffffffffffffffffffff82169050919050565b6000819050919050565b6000611e9382611e9a565b9050919050565b6000611ea582611eac565b9050919050565b6000611eb782611e5e565b9050919050565b6000611ec982611e7e565b91507fffffffffffffffffffffffffffffffffffffffffffffffffffffffffffffffff821415611efc57611efb611f66565b5b600182019050919050565b6000611f1282611f19565b9050919050565b6000611f2482612056565b9050919050565b6000819050919050565b6000611f4082611e7e565b9150611f4b83611e7e565b925082611f5b57611f5a611f95565b5b828206905092915050565b7f4e487b7100000000000000000000000000000000000000000000000000000000600052601160045260246000fd5b7f4e487b7100000000000000000000000000000000000000000000000000000000600052601260045260246000fd5b7f4e487b7100000000000000000000000000000000000000000000000000000000600052603160045260246000fd5b7f4e487b7100000000000000000000000000000000000000000000000000000000600052603260045260246000fd5b7f4e487b7100000000000000000000000000000000000000000000000000000000600052604160045260246000fd5b600080fd5b60008160601b9050919050565b7f4f776e61626c653a206e6577206f776e657220697320746865207a65726f206160008201527f6464726573730000000000000000000000000000000000000000000000000000602082015250565b7f4e6f7420616c6c6f776564000000000000000000000000000000000000000000600082015250565b7f4f776e61626c653a2063616c6c6572206973206e6f7420746865206f776e6572600082015250565b61210d81611e40565b811461211857600080fd5b50565b61212481611e7e565b811461212f57600080fd5b5056fea26469706673582212206dbc420273faf520f02153fd4a01f1d8ce29a0c4b67d0a3655e373e54d302ca664736f6c63430008070033",
					"opcodes": "PUSH1 0x80 PUSH1 0x40 MSTORE PUSH20 0xE9E7CEA3DEDCA5984780BAFC599BD69ADD087D56 PUSH1 0x4 PUSH1 0x0 PUSH2 0x100 EXP DUP2 SLOAD DUP2 PUSH20 0xFFFFFFFFFFFFFFFFFFFFFFFFFFFFFFFFFFFFFFFF MUL NOT AND SWAP1 DUP4 PUSH20 0xFFFFFFFFFFFFFFFFFFFFFFFFFFFFFFFFFFFFFFFF AND MUL OR SWAP1 SSTORE POP PUSH20 0x5B38DA6A701C568545DCFCB03FCB875F56BEDDC4 PUSH1 0x5 PUSH1 0x0 PUSH2 0x100 EXP DUP2 SLOAD DUP2 PUSH20 0xFFFFFFFFFFFFFFFFFFFFFFFFFFFFFFFFFFFFFFFF MUL NOT AND SWAP1 DUP4 PUSH20 0xFFFFFFFFFFFFFFFFFFFFFFFFFFFFFFFFFFFFFFFF AND MUL OR SWAP1 SSTORE POP PUSH20 0xED2FD07B8BE10E2B8737E39AD33663DC711C31B PUSH1 0x6 PUSH1 0x0 PUSH2 0x100 EXP DUP2 SLOAD DUP2 PUSH20 0xFFFFFFFFFFFFFFFFFFFFFFFFFFFFFFFFFFFFFFFF MUL NOT AND SWAP1 DUP4 PUSH20 0xFFFFFFFFFFFFFFFFFFFFFFFFFFFFFFFFFFFFFFFF AND MUL OR SWAP1 SSTORE POP CALLVALUE DUP1 ISZERO PUSH2 0x10F JUMPI PUSH1 0x0 DUP1 REVERT JUMPDEST POP PUSH2 0x12C PUSH2 0x121 PUSH2 0x131 PUSH1 0x20 SHL PUSH1 0x20 SHR JUMP JUMPDEST PUSH2 0x139 PUSH1 0x20 SHL PUSH1 0x20 SHR JUMP JUMPDEST PUSH2 0x1FD JUMP JUMPDEST PUSH1 0x0 CALLER SWAP1 POP SWAP1 JUMP JUMPDEST PUSH1 0x0 DUP1 PUSH1 0x0 SWAP1 SLOAD SWAP1 PUSH2 0x100 EXP SWAP1 DIV PUSH20 0xFFFFFFFFFFFFFFFFFFFFFFFFFFFFFFFFFFFFFFFF AND SWAP1 POP DUP2 PUSH1 0x0 DUP1 PUSH2 0x100 EXP DUP2 SLOAD DUP2 PUSH20 0xFFFFFFFFFFFFFFFFFFFFFFFFFFFFFFFFFFFFFFFF MUL NOT AND SWAP1 DUP4 PUSH20 0xFFFFFFFFFFFFFFFFFFFFFFFFFFFFFFFFFFFFFFFF AND MUL OR SWAP1 SSTORE POP DUP2 PUSH20 0xFFFFFFFFFFFFFFFFFFFFFFFFFFFFFFFFFFFFFFFF AND DUP2 PUSH20 0xFFFFFFFFFFFFFFFFFFFFFFFFFFFFFFFFFFFFFFFF AND PUSH32 0x8BE0079C531659141344CD1FD0A4F28419497F9722A3DAAFE3B4186F6B6457E0 PUSH1 0x40 MLOAD PUSH1 0x40 MLOAD DUP1 SWAP2 SUB SWAP1 LOG3 POP POP JUMP JUMPDEST PUSH2 0x2168 DUP1 PUSH3 0x20D PUSH1 0x0 CODECOPY PUSH1 0x0 RETURN INVALID PUSH1 0x80 PUSH1 0x40 MSTORE CALLVALUE DUP1 ISZERO PUSH2 0x10 JUMPI PUSH1 0x0 DUP1 REVERT JUMPDEST POP PUSH1 0x4 CALLDATASIZE LT PUSH2 0x14D JUMPI PUSH1 0x0 CALLDATALOAD PUSH1 0xE0 SHR DUP1 PUSH4 0x76636D20 GT PUSH2 0xC3 JUMPI DUP1 PUSH4 0xB657DD65 GT PUSH2 0x7C JUMPI DUP1 PUSH4 0xB657DD65 EQ PUSH2 0x383 JUMPI DUP1 PUSH4 0xBC15CDF0 EQ PUSH2 0x3B3 JUMPI DUP1 PUSH4 0xC4740A95 EQ PUSH2 0x3E3 JUMPI DUP1 PUSH4 0xF2FDE38B EQ PUSH2 0x3FF JUMPI DUP1 PUSH4 0xF737D21D EQ PUSH2 0x41B JUMPI DUP1 PUSH4 0xF9CEE0BD EQ PUSH2 0x44C JUMPI PUSH2 0x14D JUMP JUMPDEST DUP1 PUSH4 0x76636D20 EQ PUSH2 0x2A9 JUMPI DUP1 PUSH4 0x8DA5CB5B EQ PUSH2 0x2C7 JUMPI DUP1 PUSH4 0x9B3E4552 EQ PUSH2 0x2E5 JUMPI DUP1 PUSH4 0x9F10A990 EQ PUSH2 0x303 JUMPI DUP1 PUSH4 0xA59460DC EQ PUSH2 0x333 JUMPI DUP1 PUSH4 0xAC128F4F EQ PUSH2 0x34F JUMPI PUSH2 0x14D JUMP JUMPDEST DUP1 PUSH4 0x454F7B8F GT PUSH2 0x115 JUMPI DUP1 PUSH4 0x454F7B8F EQ PUSH2 0x1F9 JUMPI DUP1 PUSH4 0x4626402B EQ PUSH2 0x217 JUMPI DUP1 PUSH4 0x484F4EA9 EQ PUSH2 0x235 JUMPI DUP1 PUSH4 0x5BEDC390 EQ PUSH2 0x253 JUMPI DUP1 PUSH4 0x6FBB5A86 EQ PUSH2 0x283 JUMPI DUP1 PUSH4 0x715018A6 EQ PUSH2 0x29F JUMPI PUSH2 0x14D JUMP JUMPDEST DUP1 PUSH4 0xD988270 EQ PUSH2 0x152 JUMPI DUP1 PUSH4 0x119B22B3 EQ PUSH2 0x182 JUMPI DUP1 PUSH4 0x158977DE EQ PUSH2 0x1A0 JUMPI DUP1 PUSH4 0x3B98BC65 EQ PUSH2 0x1BE JUMPI DUP1 PUSH4 0x443B80A1 EQ PUSH2 0x1DD JUMPI JUMPDEST PUSH1 0x0 DUP1 REVERT JUMPDEST PUSH2 0x16C PUSH1 0x4 DUP1 CALLDATASIZE SUB DUP2 ADD SWAP1 PUSH2 0x167 SWAP2 SWAP1 PUSH2 0x173C JUMP JUMPDEST PUSH2 0x46A JUMP JUMPDEST PUSH1 0x40 MLOAD PUSH2 0x179 SWAP2 SWAP1 PUSH2 0x1C63 JUMP JUMPDEST PUSH1 0x40 MLOAD DUP1 SWAP2 SUB SWAP1 RETURN JUMPDEST PUSH2 0x18A PUSH2 0x49B JUMP JUMPDEST PUSH1 0x40 MLOAD PUSH2 0x197 SWAP2 SWAP1 PUSH2 0x1C63 JUMP JUMPDEST PUSH1 0x40 MLOAD DUP1 SWAP2 SUB SWAP1 RETURN JUMPDEST PUSH2 0x1A8 PUSH2 0x4A1 JUMP JUMPDEST PUSH1 0x40 MLOAD PUSH2 0x1B5 SWAP2 SWAP1 PUSH2 0x1C63 JUMP JUMPDEST PUSH1 0x40 MLOAD DUP1 SWAP2 SUB SWAP1 RETURN JUMPDEST PUSH2 0x1C6 PUSH2 0x572 JUMP JUMPDEST PUSH1 0x40 MLOAD PUSH2 0x1D4 SWAP3 SWAP2 SWAP1 PUSH2 0x1B74 JUMP JUMPDEST PUSH1 0x40 MLOAD DUP1 SWAP2 SUB SWAP1 RETURN JUMPDEST PUSH2 0x1F7 PUSH1 0x4 DUP1 CALLDATASIZE SUB DUP2 ADD SWAP1 PUSH2 0x1F2 SWAP2 SWAP1 PUSH2 0x173C JUMP JUMPDEST PUSH2 0x79B JUMP JUMPDEST STOP JUMPDEST PUSH2 0x201 PUSH2 0x984 JUMP JUMPDEST PUSH1 0x40 MLOAD PUSH2 0x20E SWAP2 SWAP1 PUSH2 0x1C63 JUMP JUMPDEST PUSH1 0x40 MLOAD DUP1 SWAP2 SUB SWAP1 RETURN JUMPDEST PUSH2 0x21F PUSH2 0x98A JUMP JUMPDEST PUSH1 0x40 MLOAD PUSH2 0x22C SWAP2 SWAP1 PUSH2 0x1B30 JUMP JUMPDEST PUSH1 0x40 MLOAD DUP1 SWAP2 SUB SWAP1 RETURN JUMPDEST PUSH2 0x23D PUSH2 0x9B0 JUMP JUMPDEST PUSH1 0x40 MLOAD PUSH2 0x24A SWAP2 SWAP1 PUSH2 0x1BE8 JUMP JUMPDEST PUSH1 0x40 MLOAD DUP1 SWAP2 SUB SWAP1 RETURN JUMPDEST PUSH2 0x26D PUSH1 0x4 DUP1 CALLDATASIZE SUB DUP2 ADD SWAP1 PUSH2 0x268 SWAP2 SWAP1 PUSH2 0x170F JUMP JUMPDEST PUSH2 0x9D6 JUMP JUMPDEST PUSH1 0x40 MLOAD PUSH2 0x27A SWAP2 SWAP1 PUSH2 0x1BCD JUMP JUMPDEST PUSH1 0x40 MLOAD DUP1 SWAP2 SUB SWAP1 RETURN JUMPDEST PUSH2 0x29D PUSH1 0x4 DUP1 CALLDATASIZE SUB DUP2 ADD SWAP1 PUSH2 0x298 SWAP2 SWAP1 PUSH2 0x17D6 JUMP JUMPDEST PUSH2 0x9F0 JUMP JUMPDEST STOP JUMPDEST PUSH2 0x2A7 PUSH2 0xBD9 JUMP JUMPDEST STOP JUMPDEST PUSH2 0x2B1 PUSH2 0xC61 JUMP JUMPDEST PUSH1 0x40 MLOAD PUSH2 0x2BE SWAP2 SWAP1 PUSH2 0x1C63 JUMP JUMPDEST PUSH1 0x40 MLOAD DUP1 SWAP2 SUB SWAP1 RETURN JUMPDEST PUSH2 0x2CF PUSH2 0xC67 JUMP JUMPDEST PUSH1 0x40 MLOAD PUSH2 0x2DC SWAP2 SWAP1 PUSH2 0x1B30 JUMP JUMPDEST PUSH1 0x40 MLOAD DUP1 SWAP2 SUB SWAP1 RETURN JUMPDEST PUSH2 0x2ED PUSH2 0xC90 JUMP JUMPDEST PUSH1 0x40 MLOAD PUSH2 0x2FA SWAP2 SWAP1 PUSH2 0x1B30 JUMP JUMPDEST PUSH1 0x40 MLOAD DUP1 SWAP2 SUB SWAP1 RETURN JUMPDEST PUSH2 0x31D PUSH1 0x4 DUP1 CALLDATASIZE SUB DUP2 ADD SWAP1 PUSH2 0x318 SWAP2 SWAP1 PUSH2 0x170F JUMP JUMPDEST PUSH2 0xCB6 JUMP JUMPDEST PUSH1 0x40 MLOAD PUSH2 0x32A SWAP2 SWAP1 PUSH2 0x1C63 JUMP JUMPDEST PUSH1 0x40 MLOAD DUP1 SWAP2 SUB SWAP1 RETURN JUMPDEST PUSH2 0x34D PUSH1 0x4 DUP1 CALLDATASIZE SUB DUP2 ADD SWAP1 PUSH2 0x348 SWAP2 SWAP1 PUSH2 0x173C JUMP JUMPDEST PUSH2 0xD02 JUMP JUMPDEST STOP JUMPDEST PUSH2 0x369 PUSH1 0x4 DUP1 CALLDATASIZE SUB DUP2 ADD SWAP1 PUSH2 0x364 SWAP2 SWAP1 PUSH2 0x177C JUMP JUMPDEST PUSH2 0xFEC JUMP JUMPDEST PUSH1 0x40 MLOAD PUSH2 0x37A SWAP6 SWAP5 SWAP4 SWAP3 SWAP2 SWAP1 PUSH2 0x1CA7 JUMP JUMPDEST PUSH1 0x40 MLOAD DUP1 SWAP2 SUB SWAP1 RETURN JUMPDEST PUSH2 0x39D PUSH1 0x4 DUP1 CALLDATASIZE SUB DUP2 ADD SWAP1 PUSH2 0x398 SWAP2 SWAP1 PUSH2 0x177C JUMP JUMPDEST PUSH2 0x1042 JUMP JUMPDEST PUSH1 0x40 MLOAD PUSH2 0x3AA SWAP2 SWAP1 PUSH2 0x1B30 JUMP JUMPDEST PUSH1 0x40 MLOAD DUP1 SWAP2 SUB SWAP1 RETURN JUMPDEST PUSH2 0x3CD PUSH1 0x4 DUP1 CALLDATASIZE SUB DUP2 ADD SWAP1 PUSH2 0x3C8 SWAP2 SWAP1 PUSH2 0x17D6 JUMP JUMPDEST PUSH2 0x1075 JUMP JUMPDEST PUSH1 0x40 MLOAD PUSH2 0x3DA SWAP2 SWAP1 PUSH2 0x1BAB JUMP JUMPDEST PUSH1 0x40 MLOAD DUP1 SWAP2 SUB SWAP1 RETURN JUMPDEST PUSH2 0x3FD PUSH1 0x4 DUP1 CALLDATASIZE SUB DUP2 ADD SWAP1 PUSH2 0x3F8 SWAP2 SWAP1 PUSH2 0x170F JUMP JUMPDEST PUSH2 0x126A JUMP JUMPDEST STOP JUMPDEST PUSH2 0x419 PUSH1 0x4 DUP1 CALLDATASIZE SUB DUP2 ADD SWAP1 PUSH2 0x414 SWAP2 SWAP1 PUSH2 0x170F JUMP JUMPDEST PUSH2 0x1360 JUMP JUMPDEST STOP JUMPDEST PUSH2 0x435 PUSH1 0x4 DUP1 CALLDATASIZE SUB DUP2 ADD SWAP1 PUSH2 0x430 SWAP2 SWAP1 PUSH2 0x177C JUMP JUMPDEST PUSH2 0x1458 JUMP JUMPDEST PUSH1 0x40 MLOAD PUSH2 0x443 SWAP3 SWAP2 SWAP1 PUSH2 0x1C7E JUMP JUMPDEST PUSH1 0x40 MLOAD DUP1 SWAP2 SUB SWAP1 RETURN JUMPDEST PUSH2 0x454 PUSH2 0x14AE JUMP JUMPDEST PUSH1 0x40 MLOAD PUSH2 0x461 SWAP2 SWAP1 PUSH2 0x1C63 JUMP JUMPDEST PUSH1 0x40 MLOAD DUP1 SWAP2 SUB SWAP1 RETURN JUMPDEST PUSH1 0x9 PUSH1 0x20 MSTORE DUP2 PUSH1 0x0 MSTORE PUSH1 0x40 PUSH1 0x0 KECCAK256 DUP2 DUP2 SLOAD DUP2 LT PUSH2 0x486 JUMPI PUSH1 0x0 DUP1 REVERT JUMPDEST SWAP1 PUSH1 0x0 MSTORE PUSH1 0x20 PUSH1 0x0 KECCAK256 ADD PUSH1 0x0 SWAP2 POP SWAP2 POP POP SLOAD DUP2 JUMP JUMPDEST PUSH1 0x2 SLOAD DUP2 JUMP JUMPDEST PUSH1 0x0 DUP1 JUMPDEST PUSH1 0x1 SLOAD DUP2 LT ISZERO PUSH2 0x56E JUMPI PUSH1 0x0 PUSH1 0x8 PUSH1 0x0 DUP4 DUP2 MSTORE PUSH1 0x20 ADD SWAP1 DUP2 MSTORE PUSH1 0x20 ADD PUSH1 0x0 KECCAK256 PUSH1 0x0 SWAP1 SLOAD SWAP1 PUSH2 0x100 EXP SWAP1 DIV PUSH20 0xFFFFFFFFFFFFFFFFFFFFFFFFFFFFFFFFFFFFFFFF AND SWAP1 POP PUSH1 0x9 PUSH1 0x0 DUP3 PUSH20 0xFFFFFFFFFFFFFFFFFFFFFFFFFFFFFFFFFFFFFFFF AND PUSH20 0xFFFFFFFFFFFFFFFFFFFFFFFFFFFFFFFFFFFFFFFF AND DUP2 MSTORE PUSH1 0x20 ADD SWAP1 DUP2 MSTORE PUSH1 0x20 ADD PUSH1 0x0 KECCAK256 PUSH1 0x0 DUP2 SLOAD DUP2 LT PUSH2 0x539 JUMPI PUSH2 0x538 PUSH2 0x1FF3 JUMP JUMPDEST JUMPDEST SWAP1 PUSH1 0x0 MSTORE PUSH1 0x20 PUSH1 0x0 KECCAK256 ADD SLOAD DUP3 EQ ISZERO PUSH2 0x55A JUMPI DUP3 DUP1 PUSH2 0x556 SWAP1 PUSH2 0x1EBE JUMP JUMPDEST SWAP4 POP POP JUMPDEST POP DUP1 DUP1 PUSH2 0x566 SWAP1 PUSH2 0x1EBE JUMP JUMPDEST SWAP2 POP POP PUSH2 0x4A5 JUMP JUMPDEST POP SWAP1 JUMP JUMPDEST PUSH1 0x60 DUP1 PUSH1 0x0 PUSH2 0x57F PUSH2 0x4A1 JUMP JUMPDEST SWAP1 POP DUP1 PUSH8 0xFFFFFFFFFFFFFFFF DUP2 GT ISZERO PUSH2 0x59B JUMPI PUSH2 0x59A PUSH2 0x2022 JUMP JUMPDEST JUMPDEST PUSH1 0x40 MLOAD SWAP1 DUP1 DUP3 MSTORE DUP1 PUSH1 0x20 MUL PUSH1 0x20 ADD DUP3 ADD PUSH1 0x40 MSTORE DUP1 ISZERO PUSH2 0x5C9 JUMPI DUP2 PUSH1 0x20 ADD PUSH1 0x20 DUP3 MUL DUP1 CALLDATASIZE DUP4 CALLDATACOPY DUP1 DUP3 ADD SWAP2 POP POP SWAP1 POP JUMPDEST POP SWAP3 POP DUP1 PUSH8 0xFFFFFFFFFFFFFFFF DUP2 GT ISZERO PUSH2 0x5E6 JUMPI PUSH2 0x5E5 PUSH2 0x2022 JUMP JUMPDEST JUMPDEST PUSH1 0x40 MLOAD SWAP1 DUP1 DUP3 MSTORE DUP1 PUSH1 0x20 MUL PUSH1 0x20 ADD DUP3 ADD PUSH1 0x40 MSTORE DUP1 ISZERO PUSH2 0x614 JUMPI DUP2 PUSH1 0x20 ADD PUSH1 0x20 DUP3 MUL DUP1 CALLDATASIZE DUP4 CALLDATACOPY DUP1 DUP3 ADD SWAP2 POP POP SWAP1 POP JUMPDEST POP SWAP2 POP PUSH1 0x0 DUP1 JUMPDEST PUSH1 0x1 SLOAD DUP2 LT ISZERO PUSH2 0x794 JUMPI PUSH1 0x0 PUSH1 0x8 PUSH1 0x0 DUP4 DUP2 MSTORE PUSH1 0x20 ADD SWAP1 DUP2 MSTORE PUSH1 0x20 ADD PUSH1 0x0 KECCAK256 PUSH1 0x0 SWAP1 SLOAD SWAP1 PUSH2 0x100 EXP SWAP1 DIV PUSH20 0xFFFFFFFFFFFFFFFFFFFFFFFFFFFFFFFFFFFFFFFF AND SWAP1 POP PUSH1 0x9 PUSH1 0x0 DUP3 PUSH20 0xFFFFFFFFFFFFFFFFFFFFFFFFFFFFFFFFFFFFFFFF AND PUSH20 0xFFFFFFFFFFFFFFFFFFFFFFFFFFFFFFFFFFFFFFFF AND DUP2 MSTORE PUSH1 0x20 ADD SWAP1 DUP2 MSTORE PUSH1 0x20 ADD PUSH1 0x0 KECCAK256 PUSH1 0x0 DUP2 SLOAD DUP2 LT PUSH2 0x6AF JUMPI PUSH2 0x6AE PUSH2 0x1FF3 JUMP JUMPDEST JUMPDEST SWAP1 PUSH1 0x0 MSTORE PUSH1 0x20 PUSH1 0x0 KECCAK256 ADD SLOAD DUP3 EQ ISZERO PUSH2 0x780 JUMPI DUP1 DUP7 DUP5 DUP2 MLOAD DUP2 LT PUSH2 0x6D5 JUMPI PUSH2 0x6D4 PUSH2 0x1FF3 JUMP JUMPDEST JUMPDEST PUSH1 0x20 MUL PUSH1 0x20 ADD ADD SWAP1 PUSH20 0xFFFFFFFFFFFFFFFFFFFFFFFFFFFFFFFFFFFFFFFF AND SWAP1 DUP2 PUSH20 0xFFFFFFFFFFFFFFFFFFFFFFFFFFFFFFFFFFFFFFFF AND DUP2 MSTORE POP POP PUSH1 0x9 PUSH1 0x0 DUP3 PUSH20 0xFFFFFFFFFFFFFFFFFFFFFFFFFFFFFFFFFFFFFFFF AND PUSH20 0xFFFFFFFFFFFFFFFFFFFFFFFFFFFFFFFFFFFFFFFF AND DUP2 MSTORE PUSH1 0x20 ADD SWAP1 DUP2 MSTORE PUSH1 0x20 ADD PUSH1 0x0 KECCAK256 DUP1 SLOAD SWAP1 POP DUP6 DUP5 DUP2 MLOAD DUP2 LT PUSH2 0x765 JUMPI PUSH2 0x764 PUSH2 0x1FF3 JUMP JUMPDEST JUMPDEST PUSH1 0x20 MUL PUSH1 0x20 ADD ADD DUP2 DUP2 MSTORE POP POP DUP3 DUP1 PUSH2 0x77C SWAP1 PUSH2 0x1EBE JUMP JUMPDEST SWAP4 POP POP JUMPDEST POP DUP1 DUP1 PUSH2 0x78C SWAP1 PUSH2 0x1EBE JUMP JUMPDEST SWAP2 POP POP PUSH2 0x61B JUMP JUMPDEST POP POP POP SWAP1 SWAP2 JUMP JUMPDEST PUSH2 0x7A3 PUSH2 0x1582 JUMP JUMPDEST PUSH20 0xFFFFFFFFFFFFFFFFFFFFFFFFFFFFFFFFFFFFFFFF AND PUSH2 0x7C1 PUSH2 0xC67 JUMP JUMPDEST PUSH20 0xFFFFFFFFFFFFFFFFFFFFFFFFFFFFFFFFFFFFFFFF AND EQ DUP1 PUSH2 0x837 JUMPI POP PUSH2 0x7E6 PUSH2 0x1582 JUMP JUMPDEST PUSH20 0xFFFFFFFFFFFFFFFFFFFFFFFFFFFFFFFFFFFFFFFF AND PUSH1 0x5 PUSH1 0x0 SWAP1 SLOAD SWAP1 PUSH2 0x100 EXP SWAP1 DIV PUSH20 0xFFFFFFFFFFFFFFFFFFFFFFFFFFFFFFFFFFFFFFFF AND PUSH20 0xFFFFFFFFFFFFFFFFFFFFFFFFFFFFFFFFFFFFFFFF AND EQ JUMPDEST PUSH2 0x876 JUMPI PUSH1 0x40 MLOAD PUSH32 0x8C379A000000000000000000000000000000000000000000000000000000000 DUP2 MSTORE PUSH1 0x4 ADD PUSH2 0x86D SWAP1 PUSH2 0x1C23 JUMP JUMPDEST PUSH1 0x40 MLOAD DUP1 SWAP2 SUB SWAP1 REVERT JUMPDEST PUSH1 0x0 JUMPDEST DUP2 DUP2 LT ISZERO PUSH2 0x966 JUMPI DUP3 PUSH1 0x8 PUSH1 0x0 DUP4 PUSH1 0x1 SLOAD PUSH2 0x894 SWAP2 SWAP1 PUSH2 0x1DB6 JUMP JUMPDEST DUP2 MSTORE PUSH1 0x20 ADD SWAP1 DUP2 MSTORE PUSH1 0x20 ADD PUSH1 0x0 KECCAK256 PUSH1 0x0 PUSH2 0x100 EXP DUP2 SLOAD DUP2 PUSH20 0xFFFFFFFFFFFFFFFFFFFFFFFFFFFFFFFFFFFFFFFF MUL NOT AND SWAP1 DUP4 PUSH20 0xFFFFFFFFFFFFFFFFFFFFFFFFFFFFFFFFFFFFFFFF AND MUL OR SWAP1 SSTORE POP PUSH1 0x9 PUSH1 0x0 DUP5 PUSH20 0xFFFFFFFFFFFFFFFFFFFFFFFFFFFFFFFFFFFFFFFF AND PUSH20 0xFFFFFFFFFFFFFFFFFFFFFFFFFFFFFFFFFFFFFFFF AND DUP2 MSTORE PUSH1 0x20 ADD SWAP1 DUP2 MSTORE PUSH1 0x20 ADD PUSH1 0x0 KECCAK256 DUP2 PUSH1 0x1 SLOAD PUSH2 0x92D SWAP2 SWAP1 PUSH2 0x1DB6 JUMP JUMPDEST SWAP1 DUP1 PUSH1 0x1 DUP2 SLOAD ADD DUP1 DUP3 SSTORE DUP1 SWAP2 POP POP PUSH1 0x1 SWAP1 SUB SWAP1 PUSH1 0x0 MSTORE PUSH1 0x20 PUSH1 0x0 KECCAK256 ADD PUSH1 0x0 SWAP1 SWAP2 SWAP1 SWAP2 SWAP1 SWAP2 POP SSTORE DUP1 DUP1 PUSH2 0x95E SWAP1 PUSH2 0x1EBE JUMP JUMPDEST SWAP2 POP POP PUSH2 0x879 JUMP JUMPDEST POP DUP1 PUSH1 0x1 PUSH1 0x0 DUP3 DUP3 SLOAD PUSH2 0x979 SWAP2 SWAP1 PUSH2 0x1DB6 JUMP JUMPDEST SWAP3 POP POP DUP2 SWAP1 SSTORE POP POP POP JUMP JUMPDEST PUSH1 0x3 SLOAD DUP2 JUMP JUMPDEST PUSH1 0x6 PUSH1 0x0 SWAP1 SLOAD SWAP1 PUSH2 0x100 EXP SWAP1 DIV PUSH20 0xFFFFFFFFFFFFFFFFFFFFFFFFFFFFFFFFFFFFFFFF AND DUP2 JUMP JUMPDEST PUSH1 0x4 PUSH1 0x0 SWAP1 SLOAD SWAP1 PUSH2 0x100 EXP SWAP1 DIV PUSH20 0xFFFFFFFFFFFFFFFFFFFFFFFFFFFFFFFFFFFFFFFF AND DUP2 JUMP JUMPDEST PUSH1 0x0 DUP1 PUSH2 0x9E2 DUP4 PUSH2 0xCB6 JUMP JUMPDEST SWAP1 POP PUSH1 0x0 DUP2 GT SWAP2 POP POP SWAP2 SWAP1 POP JUMP JUMPDEST PUSH2 0x9F8 PUSH2 0x1582 JUMP JUMPDEST PUSH20 0xFFFFFFFFFFFFFFFFFFFFFFFFFFFFFFFFFFFFFFFF AND PUSH2 0xA16 PUSH2 0xC67 JUMP JUMPDEST PUSH20 0xFFFFFFFFFFFFFFFFFFFFFFFFFFFFFFFFFFFFFFFF AND EQ PUSH2 0xA6C JUMPI PUSH1 0x40 MLOAD PUSH32 0x8C379A000000000000000000000000000000000000000000000000000000000 DUP2 MSTORE PUSH1 0x4 ADD PUSH2 0xA63 SWAP1 PUSH2 0x1C43 JUMP JUMPDEST PUSH1 0x40 MLOAD DUP1 SWAP2 SUB SWAP1 REVERT JUMPDEST PUSH1 0x0 PUSH1 0x8 PUSH1 0x0 DUP5 DUP2 MSTORE PUSH1 0x20 ADD SWAP1 DUP2 MSTORE PUSH1 0x20 ADD PUSH1 0x0 KECCAK256 PUSH1 0x0 SWAP1 SLOAD SWAP1 PUSH2 0x100 EXP SWAP1 DIV PUSH20 0xFFFFFFFFFFFFFFFFFFFFFFFFFFFFFFFFFFFFFFFF AND SWAP1 POP PUSH1 0x40 MLOAD DUP1 PUSH1 0xA0 ADD PUSH1 0x40 MSTORE DUP1 PUSH1 0x1 SLOAD DUP2 MSTORE PUSH1 0x20 ADD DUP5 DUP2 MSTORE PUSH1 0x20 ADD DUP4 DUP2 MSTORE PUSH1 0x20 ADD TIMESTAMP DUP2 MSTORE PUSH1 0x20 ADD DUP3 PUSH20 0xFFFFFFFFFFFFFFFFFFFFFFFFFFFFFFFFFFFFFFFF AND DUP2 MSTORE POP PUSH1 0x7 PUSH1 0x0 PUSH1 0x2 SLOAD DUP2 MSTORE PUSH1 0x20 ADD SWAP1 DUP2 MSTORE PUSH1 0x20 ADD PUSH1 0x0 KECCAK256 PUSH1 0x0 DUP3 ADD MLOAD DUP2 PUSH1 0x0 ADD SSTORE PUSH1 0x20 DUP3 ADD MLOAD DUP2 PUSH1 0x1 ADD SSTORE PUSH1 0x40 DUP3 ADD MLOAD DUP2 PUSH1 0x2 ADD SSTORE PUSH1 0x60 DUP3 ADD MLOAD DUP2 PUSH1 0x3 ADD SSTORE PUSH1 0x80 DUP3 ADD MLOAD DUP2 PUSH1 0x4 ADD PUSH1 0x0 PUSH2 0x100 EXP DUP2 SLOAD DUP2 PUSH20 0xFFFFFFFFFFFFFFFFFFFFFFFFFFFFFFFFFFFFFFFF MUL NOT AND SWAP1 DUP4 PUSH20 0xFFFFFFFFFFFFFFFFFFFFFFFFFFFFFFFFFFFFFFFF AND MUL OR SWAP1 SSTORE POP SWAP1 POP POP DUP2 PUSH1 0x3 PUSH1 0x0 DUP3 DUP3 SLOAD PUSH2 0xB7C SWAP2 SWAP1 PUSH2 0x1DB6 JUMP JUMPDEST SWAP3 POP POP DUP2 SWAP1 SSTORE POP PUSH1 0x2 PUSH1 0x0 DUP2 SLOAD DUP1 SWAP3 SWAP2 SWAP1 PUSH2 0xB96 SWAP1 PUSH2 0x1EBE JUMP JUMPDEST SWAP2 SWAP1 POP SSTORE POP PUSH32 0x2E798DD4337E515C79B64C40E1A93BAA1AEFBD9180AC7905E02508EDD7971E50 DUP2 DUP4 PUSH1 0x40 MLOAD PUSH2 0xBCC SWAP3 SWAP2 SWAP1 PUSH2 0x1B4B JUMP JUMPDEST PUSH1 0x40 MLOAD DUP1 SWAP2 SUB SWAP1 LOG1 POP POP POP JUMP JUMPDEST PUSH2 0xBE1 PUSH2 0x1582 JUMP JUMPDEST PUSH20 0xFFFFFFFFFFFFFFFFFFFFFFFFFFFFFFFFFFFFFFFF AND PUSH2 0xBFF PUSH2 0xC67 JUMP JUMPDEST PUSH20 0xFFFFFFFFFFFFFFFFFFFFFFFFFFFFFFFFFFFFFFFF AND EQ PUSH2 0xC55 JUMPI PUSH1 0x40 MLOAD PUSH32 0x8C379A000000000000000000000000000000000000000000000000000000000 DUP2 MSTORE PUSH1 0x4 ADD PUSH2 0xC4C SWAP1 PUSH2 0x1C43 JUMP JUMPDEST PUSH1 0x40 MLOAD DUP1 SWAP2 SUB SWAP1 REVERT JUMPDEST PUSH2 0xC5F PUSH1 0x0 PUSH2 0x158A JUMP JUMPDEST JUMP JUMPDEST PUSH1 0x1 SLOAD DUP2 JUMP JUMPDEST PUSH1 0x0 DUP1 PUSH1 0x0 SWAP1 SLOAD SWAP1 PUSH2 0x100 EXP SWAP1 DIV PUSH20 0xFFFFFFFFFFFFFFFFFFFFFFFFFFFFFFFFFFFFFFFF AND SWAP1 POP SWAP1 JUMP JUMPDEST PUSH1 0x5 PUSH1 0x0 SWAP1 SLOAD SWAP1 PUSH2 0x100 EXP SWAP1 DIV PUSH20 0xFFFFFFFFFFFFFFFFFFFFFFFFFFFFFFFFFFFFFFFF AND DUP2 JUMP JUMPDEST PUSH1 0x0 PUSH1 0x9 PUSH1 0x0 DUP4 PUSH20 0xFFFFFFFFFFFFFFFFFFFFFFFFFFFFFFFFFFFFFFFF AND PUSH20 0xFFFFFFFFFFFFFFFFFFFFFFFFFFFFFFFFFFFFFFFF AND DUP2 MSTORE PUSH1 0x20 ADD SWAP1 DUP2 MSTORE PUSH1 0x20 ADD PUSH1 0x0 KECCAK256 DUP1 SLOAD SWAP1 POP SWAP1 POP SWAP2 SWAP1 POP JUMP JUMPDEST PUSH2 0xD0A PUSH2 0x1582 JUMP JUMPDEST PUSH20 0xFFFFFFFFFFFFFFFFFFFFFFFFFFFFFFFFFFFFFFFF AND PUSH2 0xD28 PUSH2 0xC67 JUMP JUMPDEST PUSH20 0xFFFFFFFFFFFFFFFFFFFFFFFFFFFFFFFFFFFFFFFF AND EQ DUP1 PUSH2 0xD9E JUMPI POP PUSH2 0xD4D PUSH2 0x1582 JUMP JUMPDEST PUSH20 0xFFFFFFFFFFFFFFFFFFFFFFFFFFFFFFFFFFFFFFFF AND PUSH1 0x5 PUSH1 0x0 SWAP1 SLOAD SWAP1 PUSH2 0x100 EXP SWAP1 DIV PUSH20 0xFFFFFFFFFFFFFFFFFFFFFFFFFFFFFFFFFFFFFFFF AND PUSH20 0xFFFFFFFFFFFFFFFFFFFFFFFFFFFFFFFFFFFFFFFF AND EQ JUMPDEST PUSH2 0xDDD JUMPI PUSH1 0x40 MLOAD PUSH32 0x8C379A000000000000000000000000000000000000000000000000000000000 DUP2 MSTORE PUSH1 0x4 ADD PUSH2 0xDD4 SWAP1 PUSH2 0x1C23 JUMP JUMPDEST PUSH1 0x40 MLOAD DUP1 SWAP2 SUB SWAP1 REVERT JUMPDEST PUSH1 0x0 PUSH2 0xDE8 DUP4 PUSH2 0xCB6 JUMP JUMPDEST SWAP1 POP PUSH1 0x0 DUP2 EQ ISZERO PUSH2 0xDF9 JUMPI POP PUSH2 0xFE8 JUMP JUMPDEST DUP1 DUP3 GT ISZERO PUSH2 0xE05 JUMPI DUP1 SWAP2 POP JUMPDEST PUSH1 0x0 PUSH1 0x1 SWAP1 POP JUMPDEST DUP3 DUP2 GT PUSH2 0xFCC JUMPI PUSH1 0x0 PUSH1 0x9 PUSH1 0x0 DUP7 PUSH20 0xFFFFFFFFFFFFFFFFFFFFFFFFFFFFFFFFFFFFFFFF AND PUSH20 0xFFFFFFFFFFFFFFFFFFFFFFFFFFFFFFFFFFFFFFFF AND DUP2 MSTORE PUSH1 0x20 ADD SWAP1 DUP2 MSTORE PUSH1 0x20 ADD PUSH1 0x0 KECCAK256 PUSH1 0x1 PUSH1 0x9 PUSH1 0x0 DUP9 PUSH20 0xFFFFFFFFFFFFFFFFFFFFFFFFFFFFFFFFFFFFFFFF AND PUSH20 0xFFFFFFFFFFFFFFFFFFFFFFFFFFFFFFFFFFFFFFFF AND DUP2 MSTORE PUSH1 0x20 ADD SWAP1 DUP2 MSTORE PUSH1 0x20 ADD PUSH1 0x0 KECCAK256 DUP1 SLOAD SWAP1 POP PUSH2 0xEA3 SWAP2 SWAP1 PUSH2 0x1E0C JUMP JUMPDEST DUP2 SLOAD DUP2 LT PUSH2 0xEB4 JUMPI PUSH2 0xEB3 PUSH2 0x1FF3 JUMP JUMPDEST JUMPDEST SWAP1 PUSH1 0x0 MSTORE PUSH1 0x20 PUSH1 0x0 KECCAK256 ADD SLOAD SWAP1 POP PUSH1 0x8 PUSH1 0x0 DUP4 PUSH1 0x1 SLOAD PUSH2 0xED3 SWAP2 SWAP1 PUSH2 0x1E0C JUMP JUMPDEST DUP2 MSTORE PUSH1 0x20 ADD SWAP1 DUP2 MSTORE PUSH1 0x20 ADD PUSH1 0x0 KECCAK256 PUSH1 0x0 SWAP1 SLOAD SWAP1 PUSH2 0x100 EXP SWAP1 DIV PUSH20 0xFFFFFFFFFFFFFFFFFFFFFFFFFFFFFFFFFFFFFFFF AND PUSH1 0x8 PUSH1 0x0 DUP4 DUP2 MSTORE PUSH1 0x20 ADD SWAP1 DUP2 MSTORE PUSH1 0x20 ADD PUSH1 0x0 KECCAK256 PUSH1 0x0 PUSH2 0x100 EXP DUP2 SLOAD DUP2 PUSH20 0xFFFFFFFFFFFFFFFFFFFFFFFFFFFFFFFFFFFFFFFF MUL NOT AND SWAP1 DUP4 PUSH20 0xFFFFFFFFFFFFFFFFFFFFFFFFFFFFFFFFFFFFFFFF AND MUL OR SWAP1 SSTORE POP PUSH1 0x9 PUSH1 0x0 DUP7 PUSH20 0xFFFFFFFFFFFFFFFFFFFFFFFFFFFFFFFFFFFFFFFF AND PUSH20 0xFFFFFFFFFFFFFFFFFFFFFFFFFFFFFFFFFFFFFFFF AND DUP2 MSTORE PUSH1 0x20 ADD SWAP1 DUP2 MSTORE PUSH1 0x20 ADD PUSH1 0x0 KECCAK256 DUP1 SLOAD DUP1 PUSH2 0xFA2 JUMPI PUSH2 0xFA1 PUSH2 0x1FC4 JUMP JUMPDEST JUMPDEST PUSH1 0x1 SWAP1 SUB DUP2 DUP2 SWAP1 PUSH1 0x0 MSTORE PUSH1 0x20 PUSH1 0x0 KECCAK256 ADD PUSH1 0x0 SWAP1 SSTORE SWAP1 SSTORE POP DUP1 DUP1 PUSH2 0xFC4 SWAP1 PUSH2 0x1EBE JUMP JUMPDEST SWAP2 POP POP PUSH2 0xE0C JUMP JUMPDEST POP DUP2 PUSH1 0x1 PUSH1 0x0 DUP3 DUP3 SLOAD PUSH2 0xFDF SWAP2 SWAP1 PUSH2 0x1E0C JUMP JUMPDEST SWAP3 POP POP DUP2 SWAP1 SSTORE POP POP JUMPDEST POP POP JUMP JUMPDEST PUSH1 0x7 PUSH1 0x20 MSTORE DUP1 PUSH1 0x0 MSTORE PUSH1 0x40 PUSH1 0x0 KECCAK256 PUSH1 0x0 SWAP2 POP SWAP1 POP DUP1 PUSH1 0x0 ADD SLOAD SWAP1 DUP1 PUSH1 0x1 ADD SLOAD SWAP1 DUP1 PUSH1 0x2 ADD SLOAD SWAP1 DUP1 PUSH1 0x3 ADD SLOAD SWAP1 DUP1 PUSH1 0x4 ADD PUSH1 0x0 SWAP1 SLOAD SWAP1 PUSH2 0x100 EXP SWAP1 DIV PUSH20 0xFFFFFFFFFFFFFFFFFFFFFFFFFFFFFFFFFFFFFFFF AND SWAP1 POP DUP6 JUMP JUMPDEST PUSH1 0x8 PUSH1 0x20 MSTORE DUP1 PUSH1 0x0 MSTORE PUSH1 0x40 PUSH1 0x0 KECCAK256 PUSH1 0x0 SWAP2 POP SLOAD SWAP1 PUSH2 0x100 EXP SWAP1 DIV PUSH20 0xFFFFFFFFFFFFFFFFFFFFFFFFFFFFFFFFFFFFFFFF AND DUP2 JUMP JUMPDEST PUSH1 0x60 PUSH1 0x0 PUSH1 0x2 SLOAD EQ ISZERO PUSH2 0x10DE JUMPI PUSH1 0x0 PUSH8 0xFFFFFFFFFFFFFFFF DUP2 GT ISZERO PUSH2 0x109D JUMPI PUSH2 0x109C PUSH2 0x2022 JUMP JUMPDEST JUMPDEST PUSH1 0x40 MLOAD SWAP1 DUP1 DUP3 MSTORE DUP1 PUSH1 0x20 MUL PUSH1 0x20 ADD DUP3 ADD PUSH1 0x40 MSTORE DUP1 ISZERO PUSH2 0x10D6 JUMPI DUP2 PUSH1 0x20 ADD JUMPDEST PUSH2 0x10C3 PUSH2 0x168B JUMP JUMPDEST DUP2 MSTORE PUSH1 0x20 ADD SWAP1 PUSH1 0x1 SWAP1 SUB SWAP1 DUP2 PUSH2 0x10BB JUMPI SWAP1 POP JUMPDEST POP SWAP1 POP PUSH2 0x1264 JUMP JUMPDEST PUSH1 0x2 SLOAD DUP3 LT PUSH2 0x10F9 JUMPI PUSH1 0x1 PUSH1 0x2 SLOAD PUSH2 0x10F6 SWAP2 SWAP1 PUSH2 0x1E0C JUMP JUMPDEST SWAP2 POP JUMPDEST PUSH1 0x0 PUSH1 0x1 DUP5 DUP5 PUSH2 0x1109 SWAP2 SWAP1 PUSH2 0x1E0C JUMP JUMPDEST PUSH2 0x1113 SWAP2 SWAP1 PUSH2 0x1DB6 JUMP JUMPDEST SWAP1 POP PUSH1 0x0 DUP2 PUSH8 0xFFFFFFFFFFFFFFFF DUP2 GT ISZERO PUSH2 0x1131 JUMPI PUSH2 0x1130 PUSH2 0x2022 JUMP JUMPDEST JUMPDEST PUSH1 0x40 MLOAD SWAP1 DUP1 DUP3 MSTORE DUP1 PUSH1 0x20 MUL PUSH1 0x20 ADD DUP3 ADD PUSH1 0x40 MSTORE DUP1 ISZERO PUSH2 0x116A JUMPI DUP2 PUSH1 0x20 ADD JUMPDEST PUSH2 0x1157 PUSH2 0x168B JUMP JUMPDEST DUP2 MSTORE PUSH1 0x20 ADD SWAP1 PUSH1 0x1 SWAP1 SUB SWAP1 DUP2 PUSH2 0x114F JUMPI SWAP1 POP JUMPDEST POP SWAP3 POP PUSH1 0x0 DUP6 SWAP1 POP JUMPDEST DUP5 DUP2 GT PUSH2 0x1260 JUMPI PUSH1 0x7 PUSH1 0x0 DUP3 DUP9 PUSH2 0x118A SWAP2 SWAP1 PUSH2 0x1DB6 JUMP JUMPDEST DUP2 MSTORE PUSH1 0x20 ADD SWAP1 DUP2 MSTORE PUSH1 0x20 ADD PUSH1 0x0 KECCAK256 PUSH1 0x40 MLOAD DUP1 PUSH1 0xA0 ADD PUSH1 0x40 MSTORE SWAP1 DUP2 PUSH1 0x0 DUP3 ADD SLOAD DUP2 MSTORE PUSH1 0x20 ADD PUSH1 0x1 DUP3 ADD SLOAD DUP2 MSTORE PUSH1 0x20 ADD PUSH1 0x2 DUP3 ADD SLOAD DUP2 MSTORE PUSH1 0x20 ADD PUSH1 0x3 DUP3 ADD SLOAD DUP2 MSTORE PUSH1 0x20 ADD PUSH1 0x4 DUP3 ADD PUSH1 0x0 SWAP1 SLOAD SWAP1 PUSH2 0x100 EXP SWAP1 DIV PUSH20 0xFFFFFFFFFFFFFFFFFFFFFFFFFFFFFFFFFFFFFFFF AND PUSH20 0xFFFFFFFFFFFFFFFFFFFFFFFFFFFFFFFFFFFFFFFF AND PUSH20 0xFFFFFFFFFFFFFFFFFFFFFFFFFFFFFFFFFFFFFFFF AND DUP2 MSTORE POP POP DUP5 DUP4 DUP2 MLOAD DUP2 LT PUSH2 0x1234 JUMPI PUSH2 0x1233 PUSH2 0x1FF3 JUMP JUMPDEST JUMPDEST PUSH1 0x20 MUL PUSH1 0x20 ADD ADD DUP2 SWAP1 MSTORE POP DUP2 DUP1 PUSH2 0x124A SWAP1 PUSH2 0x1EBE JUMP JUMPDEST SWAP3 POP POP DUP1 DUP1 PUSH2 0x1258 SWAP1 PUSH2 0x1EBE JUMP JUMPDEST SWAP2 POP POP PUSH2 0x1173 JUMP JUMPDEST POP POP POP JUMPDEST SWAP3 SWAP2 POP POP JUMP JUMPDEST PUSH2 0x1272 PUSH2 0x1582 JUMP JUMPDEST PUSH20 0xFFFFFFFFFFFFFFFFFFFFFFFFFFFFFFFFFFFFFFFF AND PUSH2 0x1290 PUSH2 0xC67 JUMP JUMPDEST PUSH20 0xFFFFFFFFFFFFFFFFFFFFFFFFFFFFFFFFFFFFFFFF AND EQ DUP1 PUSH2 0x1306 JUMPI POP PUSH2 0x12B5 PUSH2 0x1582 JUMP JUMPDEST PUSH20 0xFFFFFFFFFFFFFFFFFFFFFFFFFFFFFFFFFFFFFFFF AND PUSH1 0x5 PUSH1 0x0 SWAP1 SLOAD SWAP1 PUSH2 0x100 EXP SWAP1 DIV PUSH20 0xFFFFFFFFFFFFFFFFFFFFFFFFFFFFFFFFFFFFFFFF AND PUSH20 0xFFFFFFFFFFFFFFFFFFFFFFFFFFFFFFFFFFFFFFFF AND EQ JUMPDEST PUSH2 0x1345 JUMPI PUSH1 0x40 MLOAD PUSH32 0x8C379A000000000000000000000000000000000000000000000000000000000 DUP2 MSTORE PUSH1 0x4 ADD PUSH2 0x133C SWAP1 PUSH2 0x1C23 JUMP JUMPDEST PUSH1 0x40 MLOAD DUP1 SWAP2 SUB SWAP1 REVERT JUMPDEST PUSH1 0x0 PUSH2 0x1350 DUP3 PUSH2 0xCB6 JUMP JUMPDEST SWAP1 POP PUSH2 0x135C DUP3 DUP3 PUSH2 0xD02 JUMP JUMPDEST POP POP JUMP JUMPDEST PUSH2 0x1368 PUSH2 0x1582 JUMP JUMPDEST PUSH20 0xFFFFFFFFFFFFFFFFFFFFFFFFFFFFFFFFFFFFFFFF AND PUSH2 0x1386 PUSH2 0xC67 JUMP JUMPDEST PUSH20 0xFFFFFFFFFFFFFFFFFFFFFFFFFFFFFFFFFFFFFFFF AND EQ PUSH2 0x13DC JUMPI PUSH1 0x40 MLOAD PUSH32 0x8C379A000000000000000000000000000000000000000000000000000000000 DUP2 MSTORE PUSH1 0x4 ADD PUSH2 0x13D3 SWAP1 PUSH2 0x1C43 JUMP JUMPDEST PUSH1 0x40 MLOAD DUP1 SWAP2 SUB SWAP1 REVERT JUMPDEST PUSH1 0x0 PUSH20 0xFFFFFFFFFFFFFFFFFFFFFFFFFFFFFFFFFFFFFFFF AND DUP2 PUSH20 0xFFFFFFFFFFFFFFFFFFFFFFFFFFFFFFFFFFFFFFFF AND EQ ISZERO PUSH2 0x144C JUMPI PUSH1 0x40 MLOAD PUSH32 0x8C379A000000000000000000000000000000000000000000000000000000000 DUP2 MSTORE PUSH1 0x4 ADD PUSH2 0x1443 SWAP1 PUSH2 0x1C03 JUMP JUMPDEST PUSH1 0x40 MLOAD DUP1 SWAP2 SUB SWAP1 REVERT JUMPDEST PUSH2 0x1455 DUP2 PUSH2 0x158A JUMP JUMPDEST POP JUMP JUMPDEST PUSH1 0x0 DUP1 PUSH1 0x1 SLOAD PUSH2 0x1467 DUP5 PUSH2 0x164E JUMP JUMPDEST PUSH2 0x1471 SWAP2 SWAP1 PUSH2 0x1F35 JUMP JUMPDEST SWAP2 POP PUSH1 0x8 PUSH1 0x0 DUP4 DUP2 MSTORE PUSH1 0x20 ADD SWAP1 DUP2 MSTORE PUSH1 0x20 ADD PUSH1 0x0 KECCAK256 PUSH1 0x0 SWAP1 SLOAD SWAP1 PUSH2 0x100 EXP SWAP1 DIV PUSH20 0xFFFFFFFFFFFFFFFFFFFFFFFFFFFFFFFFFFFFFFFF AND SWAP1 POP SWAP2 POP SWAP2 JUMP JUMPDEST PUSH1 0x0 PUSH1 0x4 PUSH1 0x0 SWAP1 SLOAD SWAP1 PUSH2 0x100 EXP SWAP1 DIV PUSH20 0xFFFFFFFFFFFFFFFFFFFFFFFFFFFFFFFFFFFFFFFF AND PUSH20 0xFFFFFFFFFFFFFFFFFFFFFFFFFFFFFFFFFFFFFFFF AND PUSH4 0x70A08231 PUSH1 0x6 PUSH1 0x0 SWAP1 SLOAD SWAP1 PUSH2 0x100 EXP SWAP1 DIV PUSH20 0xFFFFFFFFFFFFFFFFFFFFFFFFFFFFFFFFFFFFFFFF AND PUSH1 0x40 MLOAD DUP3 PUSH4 0xFFFFFFFF AND PUSH1 0xE0 SHL DUP2 MSTORE PUSH1 0x4 ADD PUSH2 0x152D SWAP2 SWAP1 PUSH2 0x1B30 JUMP JUMPDEST PUSH1 0x20 PUSH1 0x40 MLOAD DUP1 DUP4 SUB DUP2 DUP7 DUP1 EXTCODESIZE ISZERO DUP1 ISZERO PUSH2 0x1545 JUMPI PUSH1 0x0 DUP1 REVERT JUMPDEST POP GAS STATICCALL ISZERO DUP1 ISZERO PUSH2 0x1559 JUMPI RETURNDATASIZE PUSH1 0x0 DUP1 RETURNDATACOPY RETURNDATASIZE PUSH1 0x0 REVERT JUMPDEST POP POP POP POP PUSH1 0x40 MLOAD RETURNDATASIZE PUSH1 0x1F NOT PUSH1 0x1F DUP3 ADD AND DUP3 ADD DUP1 PUSH1 0x40 MSTORE POP DUP2 ADD SWAP1 PUSH2 0x157D SWAP2 SWAP1 PUSH2 0x17A9 JUMP JUMPDEST SWAP1 POP SWAP1 JUMP JUMPDEST PUSH1 0x0 CALLER SWAP1 POP SWAP1 JUMP JUMPDEST PUSH1 0x0 DUP1 PUSH1 0x0 SWAP1 SLOAD SWAP1 PUSH2 0x100 EXP SWAP1 DIV PUSH20 0xFFFFFFFFFFFFFFFFFFFFFFFFFFFFFFFFFFFFFFFF AND SWAP1 POP DUP2 PUSH1 0x0 DUP1 PUSH2 0x100 EXP DUP2 SLOAD DUP2 PUSH20 0xFFFFFFFFFFFFFFFFFFFFFFFFFFFFFFFFFFFFFFFF MUL NOT AND SWAP1 DUP4 PUSH20 0xFFFFFFFFFFFFFFFFFFFFFFFFFFFFFFFFFFFFFFFF AND MUL OR SWAP1 SSTORE POP DUP2 PUSH20 0xFFFFFFFFFFFFFFFFFFFFFFFFFFFFFFFFFFFFFFFF AND DUP2 PUSH20 0xFFFFFFFFFFFFFFFFFFFFFFFFFFFFFFFFFFFFFFFF AND PUSH32 0x8BE0079C531659141344CD1FD0A4F28419497F9722A3DAAFE3B4186F6B6457E0 PUSH1 0x40 MLOAD PUSH1 0x40 MLOAD DUP1 SWAP2 SUB SWAP1 LOG3 POP POP JUMP JUMPDEST PUSH1 0x0 DUP2 TIMESTAMP GAS CALLER PUSH1 0x1 SLOAD PUSH1 0x40 MLOAD PUSH1 0x20 ADD PUSH2 0x166B SWAP6 SWAP5 SWAP4 SWAP3 SWAP2 SWAP1 PUSH2 0x1AD1 JUMP JUMPDEST PUSH1 0x40 MLOAD PUSH1 0x20 DUP2 DUP4 SUB SUB DUP2 MSTORE SWAP1 PUSH1 0x40 MSTORE DUP1 MLOAD SWAP1 PUSH1 0x20 ADD KECCAK256 PUSH1 0x0 SHR SWAP1 POP SWAP2 SWAP1 POP JUMP JUMPDEST PUSH1 0x40 MLOAD DUP1 PUSH1 0xA0 ADD PUSH1 0x40 MSTORE DUP1 PUSH1 0x0 DUP2 MSTORE PUSH1 0x20 ADD PUSH1 0x0 DUP2 MSTORE PUSH1 0x20 ADD PUSH1 0x0 DUP2 MSTORE PUSH1 0x20 ADD PUSH1 0x0 DUP2 MSTORE PUSH1 0x20 ADD PUSH1 0x0 PUSH20 0xFFFFFFFFFFFFFFFFFFFFFFFFFFFFFFFFFFFFFFFF AND DUP2 MSTORE POP SWAP1 JUMP JUMPDEST PUSH1 0x0 DUP2 CALLDATALOAD SWAP1 POP PUSH2 0x16DF DUP2 PUSH2 0x2104 JUMP JUMPDEST SWAP3 SWAP2 POP POP JUMP JUMPDEST PUSH1 0x0 DUP2 CALLDATALOAD SWAP1 POP PUSH2 0x16F4 DUP2 PUSH2 0x211B JUMP JUMPDEST SWAP3 SWAP2 POP POP JUMP JUMPDEST PUSH1 0x0 DUP2 MLOAD SWAP1 POP PUSH2 0x1709 DUP2 PUSH2 0x211B JUMP JUMPDEST SWAP3 SWAP2 POP POP JUMP JUMPDEST PUSH1 0x0 PUSH1 0x20 DUP3 DUP5 SUB SLT ISZERO PUSH2 0x1725 JUMPI PUSH2 0x1724 PUSH2 0x2051 JUMP JUMPDEST JUMPDEST PUSH1 0x0 PUSH2 0x1733 DUP5 DUP3 DUP6 ADD PUSH2 0x16D0 JUMP JUMPDEST SWAP2 POP POP SWAP3 SWAP2 POP POP JUMP JUMPDEST PUSH1 0x0 DUP1 PUSH1 0x40 DUP4 DUP6 SUB SLT ISZERO PUSH2 0x1753 JUMPI PUSH2 0x1752 PUSH2 0x2051 JUMP JUMPDEST JUMPDEST PUSH1 0x0 PUSH2 0x1761 DUP6 DUP3 DUP7 ADD PUSH2 0x16D0 JUMP JUMPDEST SWAP3 POP POP PUSH1 0x20 PUSH2 0x1772 DUP6 DUP3 DUP7 ADD PUSH2 0x16E5 JUMP JUMPDEST SWAP2 POP POP SWAP3 POP SWAP3 SWAP1 POP JUMP JUMPDEST PUSH1 0x0 PUSH1 0x20 DUP3 DUP5 SUB SLT ISZERO PUSH2 0x1792 JUMPI PUSH2 0x1791 PUSH2 0x2051 JUMP JUMPDEST JUMPDEST PUSH1 0x0 PUSH2 0x17A0 DUP5 DUP3 DUP6 ADD PUSH2 0x16E5 JUMP JUMPDEST SWAP2 POP POP SWAP3 SWAP2 POP POP JUMP JUMPDEST PUSH1 0x0 PUSH1 0x20 DUP3 DUP5 SUB SLT ISZERO PUSH2 0x17BF JUMPI PUSH2 0x17BE PUSH2 0x2051 JUMP JUMPDEST JUMPDEST PUSH1 0x0 PUSH2 0x17CD DUP5 DUP3 DUP6 ADD PUSH2 0x16FA JUMP JUMPDEST SWAP2 POP POP SWAP3 SWAP2 POP POP JUMP JUMPDEST PUSH1 0x0 DUP1 PUSH1 0x40 DUP4 DUP6 SUB SLT ISZERO PUSH2 0x17ED JUMPI PUSH2 0x17EC PUSH2 0x2051 JUMP JUMPDEST JUMPDEST PUSH1 0x0 PUSH2 0x17FB DUP6 DUP3 DUP7 ADD PUSH2 0x16E5 JUMP JUMPDEST SWAP3 POP POP PUSH1 0x20 PUSH2 0x180C DUP6 DUP3 DUP7 ADD PUSH2 0x16E5 JUMP JUMPDEST SWAP2 POP POP SWAP3 POP SWAP3 SWAP1 POP JUMP JUMPDEST PUSH1 0x0 PUSH2 0x1822 DUP4 DUP4 PUSH2 0x185E JUMP JUMPDEST PUSH1 0x20 DUP4 ADD SWAP1 POP SWAP3 SWAP2 POP POP JUMP JUMPDEST PUSH1 0x0 PUSH2 0x183A DUP4 DUP4 PUSH2 0x1A34 JUMP JUMPDEST PUSH1 0xA0 DUP4 ADD SWAP1 POP SWAP3 SWAP2 POP POP JUMP JUMPDEST PUSH1 0x0 PUSH2 0x1852 DUP4 DUP4 PUSH2 0x1A9C JUMP JUMPDEST PUSH1 0x20 DUP4 ADD SWAP1 POP SWAP3 SWAP2 POP POP JUMP JUMPDEST PUSH2 0x1867 DUP2 PUSH2 0x1E40 JUMP JUMPDEST DUP3 MSTORE POP POP JUMP JUMPDEST PUSH2 0x1876 DUP2 PUSH2 0x1E40 JUMP JUMPDEST DUP3 MSTORE POP POP JUMP JUMPDEST PUSH2 0x188D PUSH2 0x1888 DUP3 PUSH2 0x1E40 JUMP JUMPDEST PUSH2 0x1F07 JUMP JUMPDEST DUP3 MSTORE POP POP JUMP JUMPDEST PUSH1 0x0 PUSH2 0x189E DUP3 PUSH2 0x1D2A JUMP JUMPDEST PUSH2 0x18A8 DUP2 DUP6 PUSH2 0x1D72 JUMP JUMPDEST SWAP4 POP PUSH2 0x18B3 DUP4 PUSH2 0x1CFA JUMP JUMPDEST DUP1 PUSH1 0x0 JUMPDEST DUP4 DUP2 LT ISZERO PUSH2 0x18E4 JUMPI DUP2 MLOAD PUSH2 0x18CB DUP9 DUP3 PUSH2 0x1816 JUMP JUMPDEST SWAP8 POP PUSH2 0x18D6 DUP4 PUSH2 0x1D4B JUMP JUMPDEST SWAP3 POP POP PUSH1 0x1 DUP2 ADD SWAP1 POP PUSH2 0x18B7 JUMP JUMPDEST POP DUP6 SWAP4 POP POP POP POP SWAP3 SWAP2 POP POP JUMP JUMPDEST PUSH1 0x0 PUSH2 0x18FC DUP3 PUSH2 0x1D35 JUMP JUMPDEST PUSH2 0x1906 DUP2 DUP6 PUSH2 0x1D83 JUMP JUMPDEST SWAP4 POP PUSH2 0x1911 DUP4 PUSH2 0x1D0A JUMP JUMPDEST DUP1 PUSH1 0x0 JUMPDEST DUP4 DUP2 LT ISZERO PUSH2 0x1942 JUMPI DUP2 MLOAD PUSH2 0x1929 DUP9 DUP3 PUSH2 0x182E JUMP JUMPDEST SWAP8 POP PUSH2 0x1934 DUP4 PUSH2 0x1D58 JUMP JUMPDEST SWAP3 POP POP PUSH1 0x1 DUP2 ADD SWAP1 POP PUSH2 0x1915 JUMP JUMPDEST POP DUP6 SWAP4 POP POP POP POP SWAP3 SWAP2 POP POP JUMP JUMPDEST PUSH1 0x0 PUSH2 0x195A DUP3 PUSH2 0x1D40 JUMP JUMPDEST PUSH2 0x1964 DUP2 DUP6 PUSH2 0x1D94 JUMP JUMPDEST SWAP4 POP PUSH2 0x196F DUP4 PUSH2 0x1D1A JUMP JUMPDEST DUP1 PUSH1 0x0 JUMPDEST DUP4 DUP2 LT ISZERO PUSH2 0x19A0 JUMPI DUP2 MLOAD PUSH2 0x1987 DUP9 DUP3 PUSH2 0x1846 JUMP JUMPDEST SWAP8 POP PUSH2 0x1992 DUP4 PUSH2 0x1D65 JUMP JUMPDEST SWAP3 POP POP PUSH1 0x1 DUP2 ADD SWAP1 POP PUSH2 0x1973 JUMP JUMPDEST POP DUP6 SWAP4 POP POP POP POP SWAP3 SWAP2 POP POP JUMP JUMPDEST PUSH2 0x19B6 DUP2 PUSH2 0x1E52 JUMP JUMPDEST DUP3 MSTORE POP POP JUMP JUMPDEST PUSH2 0x19C5 DUP2 PUSH2 0x1E88 JUMP JUMPDEST DUP3 MSTORE POP POP JUMP JUMPDEST PUSH1 0x0 PUSH2 0x19D8 PUSH1 0x26 DUP4 PUSH2 0x1DA5 JUMP JUMPDEST SWAP2 POP PUSH2 0x19E3 DUP3 PUSH2 0x2063 JUMP JUMPDEST PUSH1 0x40 DUP3 ADD SWAP1 POP SWAP2 SWAP1 POP JUMP JUMPDEST PUSH1 0x0 PUSH2 0x19FB PUSH1 0xB DUP4 PUSH2 0x1DA5 JUMP JUMPDEST SWAP2 POP PUSH2 0x1A06 DUP3 PUSH2 0x20B2 JUMP JUMPDEST PUSH1 0x20 DUP3 ADD SWAP1 POP SWAP2 SWAP1 POP JUMP JUMPDEST PUSH1 0x0 PUSH2 0x1A1E PUSH1 0x20 DUP4 PUSH2 0x1DA5 JUMP JUMPDEST SWAP2 POP PUSH2 0x1A29 DUP3 PUSH2 0x20DB JUMP JUMPDEST PUSH1 0x20 DUP3 ADD SWAP1 POP SWAP2 SWAP1 POP JUMP JUMPDEST PUSH1 0xA0 DUP3 ADD PUSH1 0x0 DUP3 ADD MLOAD PUSH2 0x1A4A PUSH1 0x0 DUP6 ADD DUP3 PUSH2 0x1A9C JUMP JUMPDEST POP PUSH1 0x20 DUP3 ADD MLOAD PUSH2 0x1A5D PUSH1 0x20 DUP6 ADD DUP3 PUSH2 0x1A9C JUMP JUMPDEST POP PUSH1 0x40 DUP3 ADD MLOAD PUSH2 0x1A70 PUSH1 0x40 DUP6 ADD DUP3 PUSH2 0x1A9C JUMP JUMPDEST POP PUSH1 0x60 DUP3 ADD MLOAD PUSH2 0x1A83 PUSH1 0x60 DUP6 ADD DUP3 PUSH2 0x1A9C JUMP JUMPDEST POP PUSH1 0x80 DUP3 ADD MLOAD PUSH2 0x1A96 PUSH1 0x80 DUP6 ADD DUP3 PUSH2 0x185E JUMP JUMPDEST POP POP POP POP JUMP JUMPDEST PUSH2 0x1AA5 DUP2 PUSH2 0x1E7E JUMP JUMPDEST DUP3 MSTORE POP POP JUMP JUMPDEST PUSH2 0x1AB4 DUP2 PUSH2 0x1E7E JUMP JUMPDEST DUP3 MSTORE POP POP JUMP JUMPDEST PUSH2 0x1ACB PUSH2 0x1AC6 DUP3 PUSH2 0x1E7E JUMP JUMPDEST PUSH2 0x1F2B JUMP JUMPDEST DUP3 MSTORE POP POP JUMP JUMPDEST PUSH1 0x0 PUSH2 0x1ADD DUP3 DUP9 PUSH2 0x1ABA JUMP JUMPDEST PUSH1 0x20 DUP3 ADD SWAP2 POP PUSH2 0x1AED DUP3 DUP8 PUSH2 0x1ABA JUMP JUMPDEST PUSH1 0x20 DUP3 ADD SWAP2 POP PUSH2 0x1AFD DUP3 DUP7 PUSH2 0x1ABA JUMP JUMPDEST PUSH1 0x20 DUP3 ADD SWAP2 POP PUSH2 0x1B0D DUP3 DUP6 PUSH2 0x187C JUMP JUMPDEST PUSH1 0x14 DUP3 ADD SWAP2 POP PUSH2 0x1B1D DUP3 DUP5 PUSH2 0x1ABA JUMP JUMPDEST PUSH1 0x20 DUP3 ADD SWAP2 POP DUP2 SWAP1 POP SWAP7 SWAP6 POP POP POP POP POP POP JUMP JUMPDEST PUSH1 0x0 PUSH1 0x20 DUP3 ADD SWAP1 POP PUSH2 0x1B45 PUSH1 0x0 DUP4 ADD DUP5 PUSH2 0x186D JUMP JUMPDEST SWAP3 SWAP2 POP POP JUMP JUMPDEST PUSH1 0x0 PUSH1 0x40 DUP3 ADD SWAP1 POP PUSH2 0x1B60 PUSH1 0x0 DUP4 ADD DUP6 PUSH2 0x186D JUMP JUMPDEST PUSH2 0x1B6D PUSH1 0x20 DUP4 ADD DUP5 PUSH2 0x1AAB JUMP JUMPDEST SWAP4 SWAP3 POP POP POP JUMP JUMPDEST PUSH1 0x0 PUSH1 0x40 DUP3 ADD SWAP1 POP DUP2 DUP2 SUB PUSH1 0x0 DUP4 ADD MSTORE PUSH2 0x1B8E DUP2 DUP6 PUSH2 0x1893 JUMP JUMPDEST SWAP1 POP DUP2 DUP2 SUB PUSH1 0x20 DUP4 ADD MSTORE PUSH2 0x1BA2 DUP2 DUP5 PUSH2 0x194F JUMP JUMPDEST SWAP1 POP SWAP4 SWAP3 POP POP POP JUMP JUMPDEST PUSH1 0x0 PUSH1 0x20 DUP3 ADD SWAP1 POP DUP2 DUP2 SUB PUSH1 0x0 DUP4 ADD MSTORE PUSH2 0x1BC5 DUP2 DUP5 PUSH2 0x18F1 JUMP JUMPDEST SWAP1 POP SWAP3 SWAP2 POP POP JUMP JUMPDEST PUSH1 0x0 PUSH1 0x20 DUP3 ADD SWAP1 POP PUSH2 0x1BE2 PUSH1 0x0 DUP4 ADD DUP5 PUSH2 0x19AD JUMP JUMPDEST SWAP3 SWAP2 POP POP JUMP JUMPDEST PUSH1 0x0 PUSH1 0x20 DUP3 ADD SWAP1 POP PUSH2 0x1BFD PUSH1 0x0 DUP4 ADD DUP5 PUSH2 0x19BC JUMP JUMPDEST SWAP3 SWAP2 POP POP JUMP JUMPDEST PUSH1 0x0 PUSH1 0x20 DUP3 ADD SWAP1 POP DUP2 DUP2 SUB PUSH1 0x0 DUP4 ADD MSTORE PUSH2 0x1C1C DUP2 PUSH2 0x19CB JUMP JUMPDEST SWAP1 POP SWAP2 SWAP1 POP JUMP JUMPDEST PUSH1 0x0 PUSH1 0x20 DUP3 ADD SWAP1 POP DUP2 DUP2 SUB PUSH1 0x0 DUP4 ADD MSTORE PUSH2 0x1C3C DUP2 PUSH2 0x19EE JUMP JUMPDEST SWAP1 POP SWAP2 SWAP1 POP JUMP JUMPDEST PUSH1 0x0 PUSH1 0x20 DUP3 ADD SWAP1 POP DUP2 DUP2 SUB PUSH1 0x0 DUP4 ADD MSTORE PUSH2 0x1C5C DUP2 PUSH2 0x1A11 JUMP JUMPDEST SWAP1 POP SWAP2 SWAP1 POP JUMP JUMPDEST PUSH1 0x0 PUSH1 0x20 DUP3 ADD SWAP1 POP PUSH2 0x1C78 PUSH1 0x0 DUP4 ADD DUP5 PUSH2 0x1AAB JUMP JUMPDEST SWAP3 SWAP2 POP POP JUMP JUMPDEST PUSH1 0x0 PUSH1 0x40 DUP3 ADD SWAP1 POP PUSH2 0x1C93 PUSH1 0x0 DUP4 ADD DUP6 PUSH2 0x1AAB JUMP JUMPDEST PUSH2 0x1CA0 PUSH1 0x20 DUP4 ADD DUP5 PUSH2 0x186D JUMP JUMPDEST SWAP4 SWAP3 POP POP POP JUMP JUMPDEST PUSH1 0x0 PUSH1 0xA0 DUP3 ADD SWAP1 POP PUSH2 0x1CBC PUSH1 0x0 DUP4 ADD DUP9 PUSH2 0x1AAB JUMP JUMPDEST PUSH2 0x1CC9 PUSH1 0x20 DUP4 ADD DUP8 PUSH2 0x1AAB JUMP JUMPDEST PUSH2 0x1CD6 PUSH1 0x40 DUP4 ADD DUP7 PUSH2 0x1AAB JUMP JUMPDEST PUSH2 0x1CE3 PUSH1 0x60 DUP4 ADD DUP6 PUSH2 0x1AAB JUMP JUMPDEST PUSH2 0x1CF0 PUSH1 0x80 DUP4 ADD DUP5 PUSH2 0x186D JUMP JUMPDEST SWAP7 SWAP6 POP POP POP POP POP POP JUMP JUMPDEST PUSH1 0x0 DUP2 SWAP1 POP PUSH1 0x20 DUP3 ADD SWAP1 POP SWAP2 SWAP1 POP JUMP JUMPDEST PUSH1 0x0 DUP2 SWAP1 POP PUSH1 0x20 DUP3 ADD SWAP1 POP SWAP2 SWAP1 POP JUMP JUMPDEST PUSH1 0x0 DUP2 SWAP1 POP PUSH1 0x20 DUP3 ADD SWAP1 POP SWAP2 SWAP1 POP JUMP JUMPDEST PUSH1 0x0 DUP2 MLOAD SWAP1 POP SWAP2 SWAP1 POP JUMP JUMPDEST PUSH1 0x0 DUP2 MLOAD SWAP1 POP SWAP2 SWAP1 POP JUMP JUMPDEST PUSH1 0x0 DUP2 MLOAD SWAP1 POP SWAP2 SWAP1 POP JUMP JUMPDEST PUSH1 0x0 PUSH1 0x20 DUP3 ADD SWAP1 POP SWAP2 SWAP1 POP JUMP JUMPDEST PUSH1 0x0 PUSH1 0x20 DUP3 ADD SWAP1 POP SWAP2 SWAP1 POP JUMP JUMPDEST PUSH1 0x0 PUSH1 0x20 DUP3 ADD SWAP1 POP SWAP2 SWAP1 POP JUMP JUMPDEST PUSH1 0x0 DUP3 DUP3 MSTORE PUSH1 0x20 DUP3 ADD SWAP1 POP SWAP3 SWAP2 POP POP JUMP JUMPDEST PUSH1 0x0 DUP3 DUP3 MSTORE PUSH1 0x20 DUP3 ADD SWAP1 POP SWAP3 SWAP2 POP POP JUMP JUMPDEST PUSH1 0x0 DUP3 DUP3 MSTORE PUSH1 0x20 DUP3 ADD SWAP1 POP SWAP3 SWAP2 POP POP JUMP JUMPDEST PUSH1 0x0 DUP3 DUP3 MSTORE PUSH1 0x20 DUP3 ADD SWAP1 POP SWAP3 SWAP2 POP POP JUMP JUMPDEST PUSH1 0x0 PUSH2 0x1DC1 DUP3 PUSH2 0x1E7E JUMP JUMPDEST SWAP2 POP PUSH2 0x1DCC DUP4 PUSH2 0x1E7E JUMP JUMPDEST SWAP3 POP DUP3 PUSH32 0xFFFFFFFFFFFFFFFFFFFFFFFFFFFFFFFFFFFFFFFFFFFFFFFFFFFFFFFFFFFFFFFF SUB DUP3 GT ISZERO PUSH2 0x1E01 JUMPI PUSH2 0x1E00 PUSH2 0x1F66 JUMP JUMPDEST JUMPDEST DUP3 DUP3 ADD SWAP1 POP SWAP3 SWAP2 POP POP JUMP JUMPDEST PUSH1 0x0 PUSH2 0x1E17 DUP3 PUSH2 0x1E7E JUMP JUMPDEST SWAP2 POP PUSH2 0x1E22 DUP4 PUSH2 0x1E7E JUMP JUMPDEST SWAP3 POP DUP3 DUP3 LT ISZERO PUSH2 0x1E35 JUMPI PUSH2 0x1E34 PUSH2 0x1F66 JUMP JUMPDEST JUMPDEST DUP3 DUP3 SUB SWAP1 POP SWAP3 SWAP2 POP POP JUMP JUMPDEST PUSH1 0x0 PUSH2 0x1E4B DUP3 PUSH2 0x1E5E JUMP JUMPDEST SWAP1 POP SWAP2 SWAP1 POP JUMP JUMPDEST PUSH1 0x0 DUP2 ISZERO ISZERO SWAP1 POP SWAP2 SWAP1 POP JUMP JUMPDEST PUSH1 0x0 PUSH20 0xFFFFFFFFFFFFFFFFFFFFFFFFFFFFFFFFFFFFFFFF DUP3 AND SWAP1 POP SWAP2 SWAP1 POP JUMP JUMPDEST PUSH1 0x0 DUP2 SWAP1 POP SWAP2 SWAP1 POP JUMP JUMPDEST PUSH1 0x0 PUSH2 0x1E93 DUP3 PUSH2 0x1E9A JUMP JUMPDEST SWAP1 POP SWAP2 SWAP1 POP JUMP JUMPDEST PUSH1 0x0 PUSH2 0x1EA5 DUP3 PUSH2 0x1EAC JUMP JUMPDEST SWAP1 POP SWAP2 SWAP1 POP JUMP JUMPDEST PUSH1 0x0 PUSH2 0x1EB7 DUP3 PUSH2 0x1E5E JUMP JUMPDEST SWAP1 POP SWAP2 SWAP1 POP JUMP JUMPDEST PUSH1 0x0 PUSH2 0x1EC9 DUP3 PUSH2 0x1E7E JUMP JUMPDEST SWAP2 POP PUSH32 0xFFFFFFFFFFFFFFFFFFFFFFFFFFFFFFFFFFFFFFFFFFFFFFFFFFFFFFFFFFFFFFFF DUP3 EQ ISZERO PUSH2 0x1EFC JUMPI PUSH2 0x1EFB PUSH2 0x1F66 JUMP JUMPDEST JUMPDEST PUSH1 0x1 DUP3 ADD SWAP1 POP SWAP2 SWAP1 POP JUMP JUMPDEST PUSH1 0x0 PUSH2 0x1F12 DUP3 PUSH2 0x1F19 JUMP JUMPDEST SWAP1 POP SWAP2 SWAP1 POP JUMP JUMPDEST PUSH1 0x0 PUSH2 0x1F24 DUP3 PUSH2 0x2056 JUMP JUMPDEST SWAP1 POP SWAP2 SWAP1 POP JUMP JUMPDEST PUSH1 0x0 DUP2 SWAP1 POP SWAP2 SWAP1 POP JUMP JUMPDEST PUSH1 0x0 PUSH2 0x1F40 DUP3 PUSH2 0x1E7E JUMP JUMPDEST SWAP2 POP PUSH2 0x1F4B DUP4 PUSH2 0x1E7E JUMP JUMPDEST SWAP3 POP DUP3 PUSH2 0x1F5B JUMPI PUSH2 0x1F5A PUSH2 0x1F95 JUMP JUMPDEST JUMPDEST DUP3 DUP3 MOD SWAP1 POP SWAP3 SWAP2 POP POP JUMP JUMPDEST PUSH32 0x4E487B7100000000000000000000000000000000000000000000000000000000 PUSH1 0x0 MSTORE PUSH1 0x11 PUSH1 0x4 MSTORE PUSH1 0x24 PUSH1 0x0 REVERT JUMPDEST PUSH32 0x4E487B7100000000000000000000000000000000000000000000000000000000 PUSH1 0x0 MSTORE PUSH1 0x12 PUSH1 0x4 MSTORE PUSH1 0x24 PUSH1 0x0 REVERT JUMPDEST PUSH32 0x4E487B7100000000000000000000000000000000000000000000000000000000 PUSH1 0x0 MSTORE PUSH1 0x31 PUSH1 0x4 MSTORE PUSH1 0x24 PUSH1 0x0 REVERT JUMPDEST PUSH32 0x4E487B7100000000000000000000000000000000000000000000000000000000 PUSH1 0x0 MSTORE PUSH1 0x32 PUSH1 0x4 MSTORE PUSH1 0x24 PUSH1 0x0 REVERT JUMPDEST PUSH32 0x4E487B7100000000000000000000000000000000000000000000000000000000 PUSH1 0x0 MSTORE PUSH1 0x41 PUSH1 0x4 MSTORE PUSH1 0x24 PUSH1 0x0 REVERT JUMPDEST PUSH1 0x0 DUP1 REVERT JUMPDEST PUSH1 0x0 DUP2 PUSH1 0x60 SHL SWAP1 POP SWAP2 SWAP1 POP JUMP JUMPDEST PUSH32 0x4F776E61626C653A206E6577206F776E657220697320746865207A65726F2061 PUSH1 0x0 DUP3 ADD MSTORE PUSH32 0x6464726573730000000000000000000000000000000000000000000000000000 PUSH1 0x20 DUP3 ADD MSTORE POP JUMP JUMPDEST PUSH32 0x4E6F7420616C6C6F776564000000000000000000000000000000000000000000 PUSH1 0x0 DUP3 ADD MSTORE POP JUMP JUMPDEST PUSH32 0x4F776E61626C653A2063616C6C6572206973206E6F7420746865206F776E6572 PUSH1 0x0 DUP3 ADD MSTORE POP JUMP JUMPDEST PUSH2 0x210D DUP2 PUSH2 0x1E40 JUMP JUMPDEST DUP2 EQ PUSH2 0x2118 JUMPI PUSH1 0x0 DUP1 REVERT JUMPDEST POP JUMP JUMPDEST PUSH2 0x2124 DUP2 PUSH2 0x1E7E JUMP JUMPDEST DUP2 EQ PUSH2 0x212F JUMPI PUSH1 0x0 DUP1 REVERT JUMPDEST POP JUMP INVALID LOG2 PUSH5 0x6970667358 0x22 SLT KECCAK256 PUSH14 0xBC420273FAF520F02153FD4A01F1 0xD8 0xCE 0x29 LOG0 0xC4 0xB6 PUSH30 0xA3655E373E54D302CA664736F6C63430008070033000000000000000000 "
				},
				"gasEstimates": {
					"creation": {
						"codeDepositCost": "1710400",
						"executionCost": "infinite",
						"totalCost": "infinite"
					},
					"external": {
						"BUSD()": "2667",
						"acesToken()": "2581",
						"currentJackpot()": "infinite",
						"entriesIndex(address,uint256)": "infinite",
						"getUniqueAddresses()": "infinite",
						"getUniqueUsers()": "infinite",
						"isActiveAccount(address)": "3006",
						"owner()": "2567",
						"pickWinner(uint256)": "infinite",
						"removeAccount(address)": "infinite",
						"removeEntryFromWallet(address,uint256)": "infinite",
						"renounceOwnership()": "30507",
						"resultLog(uint256,uint256)": "infinite",
						"roundEntries()": "2452",
						"roundEntry(uint256)": "2861",
						"roundNum()": "2475",
						"roundResults(uint256)": "infinite",
						"totalPayout()": "2452",
						"transferOwnership(address)": "30811",
						"treasuryWallet()": "2559",
						"updateAccount(address,uint256)": "infinite",
						"updateWinner(uint256,uint256)": "infinite",
						"userEntries(address)": "2938"
					},
					"internal": {
						"random(uint256)": "infinite"
					}
				},
				"methodIdentifiers": {
					"BUSD()": "484f4ea9",
					"acesToken()": "9b3e4552",
					"currentJackpot()": "f9cee0bd",
					"entriesIndex(address,uint256)": "0d988270",
					"getUniqueAddresses()": "3b98bc65",
					"getUniqueUsers()": "158977de",
					"isActiveAccount(address)": "5bedc390",
					"owner()": "8da5cb5b",
					"pickWinner(uint256)": "f737d21d",
					"removeAccount(address)": "c4740a95",
					"removeEntryFromWallet(address,uint256)": "a59460dc",
					"renounceOwnership()": "715018a6",
					"resultLog(uint256,uint256)": "bc15cdf0",
					"roundEntries()": "76636d20",
					"roundEntry(uint256)": "b657dd65",
					"roundNum()": "119b22b3",
					"roundResults(uint256)": "ac128f4f",
					"totalPayout()": "454f7b8f",
					"transferOwnership(address)": "f2fde38b",
					"treasuryWallet()": "4626402b",
					"updateAccount(address,uint256)": "443b80a1",
					"updateWinner(uint256,uint256)": "6fbb5a86",
					"userEntries(address)": "9f10a990"
				}
			},
			"storageLayout": {
				"storage": [
					{
						"astId": 7,
						"contract": "lotto.sol:ACELotto",
						"label": "_owner",
						"offset": 0,
						"slot": "0",
						"type": "t_address"
					},
					{
						"astId": 239,
						"contract": "lotto.sol:ACELotto",
						"label": "roundEntries",
						"offset": 0,
						"slot": "1",
						"type": "t_uint256"
					},
					{
						"astId": 241,
						"contract": "lotto.sol:ACELotto",
						"label": "roundNum",
						"offset": 0,
						"slot": "2",
						"type": "t_uint256"
					},
					{
						"astId": 243,
						"contract": "lotto.sol:ACELotto",
						"label": "totalPayout",
						"offset": 0,
						"slot": "3",
						"type": "t_uint256"
					},
					{
						"astId": 249,
						"contract": "lotto.sol:ACELotto",
						"label": "BUSD",
						"offset": 0,
						"slot": "4",
						"type": "t_contract(IERC20)182"
					},
					{
						"astId": 252,
						"contract": "lotto.sol:ACELotto",
						"label": "acesToken",
						"offset": 0,
						"slot": "5",
						"type": "t_address"
					},
					{
						"astId": 255,
						"contract": "lotto.sol:ACELotto",
						"label": "treasuryWallet",
						"offset": 0,
						"slot": "6",
						"type": "t_address"
					},
					{
						"astId": 271,
						"contract": "lotto.sol:ACELotto",
						"label": "roundResults",
						"offset": 0,
						"slot": "7",
						"type": "t_mapping(t_uint256,t_struct(Results)266_storage)"
					},
					{
						"astId": 275,
						"contract": "lotto.sol:ACELotto",
						"label": "roundEntry",
						"offset": 0,
						"slot": "8",
						"type": "t_mapping(t_uint256,t_address)"
					},
					{
						"astId": 280,
						"contract": "lotto.sol:ACELotto",
						"label": "entriesIndex",
						"offset": 0,
						"slot": "9",
						"type": "t_mapping(t_address,t_array(t_uint256)dyn_storage)"
					}
				],
				"types": {
					"t_address": {
						"encoding": "inplace",
						"label": "address",
						"numberOfBytes": "20"
					},
					"t_array(t_uint256)dyn_storage": {
						"base": "t_uint256",
						"encoding": "dynamic_array",
						"label": "uint256[]",
						"numberOfBytes": "32"
					},
					"t_contract(IERC20)182": {
						"encoding": "inplace",
						"label": "contract IERC20",
						"numberOfBytes": "20"
					},
					"t_mapping(t_address,t_array(t_uint256)dyn_storage)": {
						"encoding": "mapping",
						"key": "t_address",
						"label": "mapping(address => uint256[])",
						"numberOfBytes": "32",
						"value": "t_array(t_uint256)dyn_storage"
					},
					"t_mapping(t_uint256,t_address)": {
						"encoding": "mapping",
						"key": "t_uint256",
						"label": "mapping(uint256 => address)",
						"numberOfBytes": "32",
						"value": "t_address"
					},
					"t_mapping(t_uint256,t_struct(Results)266_storage)": {
						"encoding": "mapping",
						"key": "t_uint256",
						"label": "mapping(uint256 => struct ACELotto.Results)",
						"numberOfBytes": "32",
						"value": "t_struct(Results)266_storage"
					},
					"t_struct(Results)266_storage": {
						"encoding": "inplace",
						"label": "struct ACELotto.Results",
						"members": [
							{
								"astId": 257,
								"contract": "lotto.sol:ACELotto",
								"label": "totalEntries",
								"offset": 0,
								"slot": "0",
								"type": "t_uint256"
							},
							{
								"astId": 259,
								"contract": "lotto.sol:ACELotto",
								"label": "winningNumber",
								"offset": 0,
								"slot": "1",
								"type": "t_uint256"
							},
							{
								"astId": 261,
								"contract": "lotto.sol:ACELotto",
								"label": "payout",
								"offset": 0,
								"slot": "2",
								"type": "t_uint256"
							},
							{
								"astId": 263,
								"contract": "lotto.sol:ACELotto",
								"label": "endTime",
								"offset": 0,
								"slot": "3",
								"type": "t_uint256"
							},
							{
								"astId": 265,
								"contract": "lotto.sol:ACELotto",
								"label": "winningAddress",
								"offset": 0,
								"slot": "4",
								"type": "t_address"
							}
						],
						"numberOfBytes": "160"
					},
					"t_uint256": {
						"encoding": "inplace",
						"label": "uint256",
						"numberOfBytes": "32"
					}
				}
			},
			"userdoc": {
				"kind": "user",
				"methods": {},
				"version": 1
			}
		}
	}
}