{
	"staking.sol": {
		"AcesStaking": {
			"abi": [
				{
					"inputs": [
						{
							"internalType": "address",
							"name": "_token",
							"type": "address"
						}
					],
					"stateMutability": "nonpayable",
					"type": "constructor"
				},
				{
					"anonymous": false,
					"inputs": [
						{
							"indexed": false,
							"internalType": "address",
							"name": "user",
							"type": "address"
						},
						{
							"indexed": false,
							"internalType": "uint256",
							"name": "class",
							"type": "uint256"
						},
						{
							"indexed": false,
							"internalType": "uint256",
							"name": "amount",
							"type": "uint256"
						}
					],
					"name": "Claim",
					"type": "event"
				},
				{
					"anonymous": false,
					"inputs": [
						{
							"indexed": false,
							"internalType": "address",
							"name": "user",
							"type": "address"
						},
						{
							"indexed": false,
							"internalType": "uint256",
							"name": "class",
							"type": "uint256"
						},
						{
							"indexed": false,
							"internalType": "uint256",
							"name": "amount",
							"type": "uint256"
						}
					],
					"name": "Compound",
					"type": "event"
				},
				{
					"anonymous": false,
					"inputs": [
						{
							"indexed": false,
							"internalType": "address",
							"name": "user",
							"type": "address"
						},
						{
							"indexed": false,
							"internalType": "uint256",
							"name": "class",
							"type": "uint256"
						},
						{
							"indexed": false,
							"internalType": "uint256",
							"name": "amount",
							"type": "uint256"
						}
					],
					"name": "Deposit",
					"type": "event"
				},
				{
					"anonymous": false,
					"inputs": [
						{
							"indexed": true,
							"internalType": "address",
							"name": "previousOwner",
							"type": "address"
						},
						{
							"indexed": true,
							"internalType": "address",
							"name": "newOwner",
							"type": "address"
						}
					],
					"name": "OwnershipTransferred",
					"type": "event"
				},
				{
					"anonymous": false,
					"inputs": [
						{
							"indexed": false,
							"internalType": "address",
							"name": "account",
							"type": "address"
						}
					],
					"name": "Paused",
					"type": "event"
				},
				{
					"anonymous": false,
					"inputs": [
						{
							"indexed": false,
							"internalType": "address",
							"name": "account",
							"type": "address"
						}
					],
					"name": "Unpaused",
					"type": "event"
				},
				{
					"anonymous": false,
					"inputs": [
						{
							"indexed": false,
							"internalType": "address",
							"name": "user",
							"type": "address"
						},
						{
							"indexed": false,
							"internalType": "uint256",
							"name": "class",
							"type": "uint256"
						},
						{
							"indexed": false,
							"internalType": "uint256",
							"name": "amount",
							"type": "uint256"
						}
					],
					"name": "Withdraw",
					"type": "event"
				},
				{
					"inputs": [],
					"name": "acceptedToken",
					"outputs": [
						{
							"internalType": "contract IERC20",
							"name": "",
							"type": "address"
						}
					],
					"stateMutability": "view",
					"type": "function"
				},
				{
					"inputs": [
						{
							"internalType": "address",
							"name": "_user",
							"type": "address"
						},
						{
							"internalType": "uint256",
							"name": "_level",
							"type": "uint256"
						}
					],
					"name": "calculateRewards",
					"outputs": [
						{
							"internalType": "uint256",
							"name": "",
							"type": "uint256"
						}
					],
					"stateMutability": "view",
					"type": "function"
				},
				{
					"inputs": [
						{
							"internalType": "uint256",
							"name": "_newFee",
							"type": "uint256"
						}
					],
					"name": "changeEarlyWithdrawFee",
					"outputs": [],
					"stateMutability": "nonpayable",
					"type": "function"
				},
				{
					"inputs": [
						{
							"internalType": "uint256",
							"name": "level",
							"type": "uint256"
						},
						{
							"internalType": "uint256",
							"name": "_APY",
							"type": "uint256"
						},
						{
							"internalType": "uint256",
							"name": "_lockTime",
							"type": "uint256"
						}
					],
					"name": "changeLevelValues",
					"outputs": [],
					"stateMutability": "nonpayable",
					"type": "function"
				},
				{
					"inputs": [
						{
							"internalType": "uint256",
							"name": "_level",
							"type": "uint256"
						}
					],
					"name": "claim",
					"outputs": [],
					"stateMutability": "nonpayable",
					"type": "function"
				},
				{
					"inputs": [
						{
							"internalType": "uint256",
							"name": "_level",
							"type": "uint256"
						}
					],
					"name": "compound",
					"outputs": [],
					"stateMutability": "nonpayable",
					"type": "function"
				},
				{
					"inputs": [
						{
							"internalType": "uint256",
							"name": "_amount",
							"type": "uint256"
						},
						{
							"internalType": "uint256",
							"name": "_level",
							"type": "uint256"
						}
					],
					"name": "deposit",
					"outputs": [],
					"stateMutability": "nonpayable",
					"type": "function"
				},
				{
					"inputs": [],
					"name": "getLevelsInfo",
					"outputs": [
						{
							"components": [
								{
									"internalType": "uint256",
									"name": "APY",
									"type": "uint256"
								},
								{
									"internalType": "uint256",
									"name": "lockPeriod",
									"type": "uint256"
								}
							],
							"internalType": "struct AcesStaking.Level",
							"name": "level0",
							"type": "tuple"
						},
						{
							"components": [
								{
									"internalType": "uint256",
									"name": "APY",
									"type": "uint256"
								},
								{
									"internalType": "uint256",
									"name": "lockPeriod",
									"type": "uint256"
								}
							],
							"internalType": "struct AcesStaking.Level",
							"name": "level1",
							"type": "tuple"
						},
						{
							"components": [
								{
									"internalType": "uint256",
									"name": "APY",
									"type": "uint256"
								},
								{
									"internalType": "uint256",
									"name": "lockPeriod",
									"type": "uint256"
								}
							],
							"internalType": "struct AcesStaking.Level",
							"name": "level2",
							"type": "tuple"
						},
						{
							"components": [
								{
									"internalType": "uint256",
									"name": "APY",
									"type": "uint256"
								},
								{
									"internalType": "uint256",
									"name": "lockPeriod",
									"type": "uint256"
								}
							],
							"internalType": "struct AcesStaking.Level",
							"name": "level3",
							"type": "tuple"
						}
					],
					"stateMutability": "view",
					"type": "function"
				},
				{
					"inputs": [
						{
							"internalType": "address",
							"name": "_user",
							"type": "address"
						}
					],
					"name": "getUserInfo",
					"outputs": [
						{
							"components": [
								{
									"internalType": "uint256",
									"name": "balance",
									"type": "uint256"
								},
								{
									"internalType": "uint256",
									"name": "claimed",
									"type": "uint256"
								},
								{
									"internalType": "uint256",
									"name": "started",
									"type": "uint256"
								},
								{
									"internalType": "uint256",
									"name": "lastClaim",
									"type": "uint256"
								},
								{
									"internalType": "uint256",
									"name": "unlockTime",
									"type": "uint256"
								}
							],
							"internalType": "struct AcesStaking.User",
							"name": "level0",
							"type": "tuple"
						},
						{
							"components": [
								{
									"internalType": "uint256",
									"name": "balance",
									"type": "uint256"
								},
								{
									"internalType": "uint256",
									"name": "claimed",
									"type": "uint256"
								},
								{
									"internalType": "uint256",
									"name": "started",
									"type": "uint256"
								},
								{
									"internalType": "uint256",
									"name": "lastClaim",
									"type": "uint256"
								},
								{
									"internalType": "uint256",
									"name": "unlockTime",
									"type": "uint256"
								}
							],
							"internalType": "struct AcesStaking.User",
							"name": "level1",
							"type": "tuple"
						},
						{
							"components": [
								{
									"internalType": "uint256",
									"name": "balance",
									"type": "uint256"
								},
								{
									"internalType": "uint256",
									"name": "claimed",
									"type": "uint256"
								},
								{
									"internalType": "uint256",
									"name": "started",
									"type": "uint256"
								},
								{
									"internalType": "uint256",
									"name": "lastClaim",
									"type": "uint256"
								},
								{
									"internalType": "uint256",
									"name": "unlockTime",
									"type": "uint256"
								}
							],
							"internalType": "struct AcesStaking.User",
							"name": "level2",
							"type": "tuple"
						},
						{
							"components": [
								{
									"internalType": "uint256",
									"name": "balance",
									"type": "uint256"
								},
								{
									"internalType": "uint256",
									"name": "claimed",
									"type": "uint256"
								},
								{
									"internalType": "uint256",
									"name": "started",
									"type": "uint256"
								},
								{
									"internalType": "uint256",
									"name": "lastClaim",
									"type": "uint256"
								},
								{
									"internalType": "uint256",
									"name": "unlockTime",
									"type": "uint256"
								}
							],
							"internalType": "struct AcesStaking.User",
							"name": "level3",
							"type": "tuple"
						},
						{
							"internalType": "uint256",
							"name": "level0Rewards",
							"type": "uint256"
						},
						{
							"internalType": "uint256",
							"name": "level1Rewards",
							"type": "uint256"
						},
						{
							"internalType": "uint256",
							"name": "level2Rewards",
							"type": "uint256"
						},
						{
							"internalType": "uint256",
							"name": "level3Rewards",
							"type": "uint256"
						}
					],
					"stateMutability": "view",
					"type": "function"
				},
				{
					"inputs": [
						{
							"internalType": "uint256",
							"name": "",
							"type": "uint256"
						}
					],
					"name": "levelInfo",
					"outputs": [
						{
							"internalType": "uint256",
							"name": "APY",
							"type": "uint256"
						},
						{
							"internalType": "uint256",
							"name": "lockPeriod",
							"type": "uint256"
						}
					],
					"stateMutability": "view",
					"type": "function"
				},
				{
					"inputs": [],
					"name": "owner",
					"outputs": [
						{
							"internalType": "address",
							"name": "",
							"type": "address"
						}
					],
					"stateMutability": "view",
					"type": "function"
				},
				{
					"inputs": [],
					"name": "pause",
					"outputs": [],
					"stateMutability": "nonpayable",
					"type": "function"
				},
				{
					"inputs": [],
					"name": "paused",
					"outputs": [
						{
							"internalType": "bool",
							"name": "",
							"type": "bool"
						}
					],
					"stateMutability": "view",
					"type": "function"
				},
				{
					"inputs": [],
					"name": "renounceOwnership",
					"outputs": [],
					"stateMutability": "nonpayable",
					"type": "function"
				},
				{
					"inputs": [
						{
							"internalType": "address",
							"name": "newOwner",
							"type": "address"
						}
					],
					"name": "transferOwnership",
					"outputs": [],
					"stateMutability": "nonpayable",
					"type": "function"
				},
				{
					"inputs": [],
					"name": "unpause",
					"outputs": [],
					"stateMutability": "nonpayable",
					"type": "function"
				},
				{
					"inputs": [
						{
							"internalType": "address",
							"name": "",
							"type": "address"
						},
						{
							"internalType": "uint256",
							"name": "",
							"type": "uint256"
						}
					],
					"name": "userLevelDeposit",
					"outputs": [
						{
							"internalType": "uint256",
							"name": "balance",
							"type": "uint256"
						},
						{
							"internalType": "uint256",
							"name": "claimed",
							"type": "uint256"
						},
						{
							"internalType": "uint256",
							"name": "started",
							"type": "uint256"
						},
						{
							"internalType": "uint256",
							"name": "lastClaim",
							"type": "uint256"
						},
						{
							"internalType": "uint256",
							"name": "unlockTime",
							"type": "uint256"
						}
					],
					"stateMutability": "view",
					"type": "function"
				},
				{
					"inputs": [
						{
							"internalType": "uint256",
							"name": "_amount",
							"type": "uint256"
						},
						{
							"internalType": "uint256",
							"name": "_level",
							"type": "uint256"
						}
					],
					"name": "withdraw",
					"outputs": [],
					"stateMutability": "nonpayable",
					"type": "function"
				},
				{
					"inputs": [],
					"name": "withdrawTokens",
					"outputs": [],
					"stateMutability": "nonpayable",
					"type": "function"
				}
			],
			"devdoc": {
				"kind": "dev",
				"methods": {
					"owner()": {
						"details": "Returns the address of the current owner."
					},
					"paused()": {
						"details": "Returns true if the contract is paused, and false otherwise."
					},
					"renounceOwnership()": {
						"details": "Leaves the contract without owner. It will not be possible to call `onlyOwner` functions anymore. Can only be called by the current owner. NOTE: Renouncing ownership will leave the contract without an owner, thereby removing any functionality that is only available to the owner."
					},
					"transferOwnership(address)": {
						"details": "Transfers ownership of the contract to a new account (`newOwner`). Can only be called by the current owner."
					}
				},
				"version": 1
			},
			"evm": {
				"assembly": "    /* \"staking.sol\":224:6160  contract AcesStaking is Ownable, Pausable {... */\n  mstore(0x40, 0x80)\n    /* \"staking.sol\":378:380  10 */\n  0x0a\n    /* \"staking.sol\":351:380  uint256 earlyWithdrawFee = 10 */\n  0x02\n  sstore\n    /* \"staking.sol\":1143:1699  constructor(address _token ) {... */\n  callvalue\n  dup1\n  iszero\n  tag_1\n  jumpi\n  0x00\n  dup1\n  revert\ntag_1:\n  pop\n  mload(0x40)\n  sub(codesize, bytecodeSize)\n  dup1\n  bytecodeSize\n  dup4\n  codecopy\n  dup2\n  dup2\n  add\n  0x40\n  mstore\n  dup2\n  add\n  swap1\n  tag_2\n  swap2\n  swap1\n  tag_3\n  jump\t// in\ntag_2:\n    /* \"@openzeppelin/contracts/access/Ownable.sol\":921:953  _transferOwnership(_msgSender()) */\n  tag_8\n    /* \"@openzeppelin/contracts/access/Ownable.sol\":940:952  _msgSender() */\n  tag_9\n    /* \"@openzeppelin/contracts/access/Ownable.sol\":940:950  _msgSender */\n  shl(0x20, tag_10)\n    /* \"@openzeppelin/contracts/access/Ownable.sol\":940:952  _msgSender() */\n  0x20\n  shr\n  jump\t// in\ntag_9:\n    /* \"@openzeppelin/contracts/access/Ownable.sol\":921:939  _transferOwnership */\n  shl(0x20, tag_11)\n    /* \"@openzeppelin/contracts/access/Ownable.sol\":921:953  _transferOwnership(_msgSender()) */\n  0x20\n  shr\n  jump\t// in\ntag_8:\n    /* \"@openzeppelin/contracts/security/Pausable.sol\":991:996  false */\n  0x00\n    /* \"@openzeppelin/contracts/security/Pausable.sol\":981:988  _paused */\n  dup1\n  0x14\n    /* \"@openzeppelin/contracts/security/Pausable.sol\":981:996  _paused = false */\n  0x0100\n  exp\n  dup2\n  sload\n  dup2\n  0xff\n  mul\n  not\n  and\n  swap1\n  dup4\n  iszero\n  iszero\n  mul\n  or\n  swap1\n  sstore\n  pop\n    /* \"staking.sol\":1205:1211  _token */\n  dup1\n    /* \"staking.sol\":1182:1195  acceptedToken */\n  0x01\n  0x00\n    /* \"staking.sol\":1182:1212  acceptedToken = IERC20(_token) */\n  0x0100\n  exp\n  dup2\n  sload\n  dup2\n  0xffffffffffffffffffffffffffffffffffffffff\n  mul\n  not\n  and\n  swap1\n  dup4\n  0xffffffffffffffffffffffffffffffffffffffff\n  and\n  mul\n  or\n  swap1\n  sstore\n  pop\n    /* \"staking.sol\":1283:1288  36500 */\n  0x8e94\n    /* \"staking.sol\":1264:1273  levelInfo */\n  0x04\n    /* \"staking.sol\":1264:1276  levelInfo[0] */\n  0x00\n    /* \"staking.sol\":1274:1275  0 */\n  dup1\n    /* \"staking.sol\":1264:1276  levelInfo[0] */\n  dup2\n  mstore\n  0x20\n  add\n  swap1\n  dup2\n  mstore\n  0x20\n  add\n  0x00\n  keccak256\n    /* \"staking.sol\":1264:1280  levelInfo[0].APY */\n  0x00\n  add\n    /* \"staking.sol\":1264:1288  levelInfo[0].APY = 36500 */\n  dup2\n  swap1\n  sstore\n  pop\n    /* \"staking.sol\":1324:1331  30 days */\n  0x278d00\n    /* \"staking.sol\":1298:1307  levelInfo */\n  0x04\n    /* \"staking.sol\":1298:1310  levelInfo[0] */\n  0x00\n    /* \"staking.sol\":1308:1309  0 */\n  dup1\n    /* \"staking.sol\":1298:1310  levelInfo[0] */\n  dup2\n  mstore\n  0x20\n  add\n  swap1\n  dup2\n  mstore\n  0x20\n  add\n  0x00\n  keccak256\n    /* \"staking.sol\":1298:1321  levelInfo[0].lockPeriod */\n  0x01\n  add\n    /* \"staking.sol\":1298:1331  levelInfo[0].lockPeriod = 30 days */\n  dup2\n  swap1\n  sstore\n  pop\n    /* \"staking.sol\":1403:1408  45625 */\n  0xb239\n    /* \"staking.sol\":1384:1393  levelInfo */\n  0x04\n    /* \"staking.sol\":1384:1396  levelInfo[1] */\n  0x00\n    /* \"staking.sol\":1394:1395  1 */\n  0x01\n    /* \"staking.sol\":1384:1396  levelInfo[1] */\n  dup2\n  mstore\n  0x20\n  add\n  swap1\n  dup2\n  mstore\n  0x20\n  add\n  0x00\n  keccak256\n    /* \"staking.sol\":1384:1400  levelInfo[1].APY */\n  0x00\n  add\n    /* \"staking.sol\":1384:1408  levelInfo[1].APY = 45625 */\n  dup2\n  swap1\n  sstore\n  pop\n    /* \"staking.sol\":1444:1451  90 days */\n  0x76a700\n    /* \"staking.sol\":1418:1427  levelInfo */\n  0x04\n    /* \"staking.sol\":1418:1430  levelInfo[1] */\n  0x00\n    /* \"staking.sol\":1428:1429  1 */\n  0x01\n    /* \"staking.sol\":1418:1430  levelInfo[1] */\n  dup2\n  mstore\n  0x20\n  add\n  swap1\n  dup2\n  mstore\n  0x20\n  add\n  0x00\n  keccak256\n    /* \"staking.sol\":1418:1441  levelInfo[1].lockPeriod */\n  0x01\n  add\n    /* \"staking.sol\":1418:1451  levelInfo[1].lockPeriod = 90 days */\n  dup2\n  swap1\n  sstore\n  pop\n    /* \"staking.sol\":1523:1528  54750 */\n  0xd5de\n    /* \"staking.sol\":1504:1513  levelInfo */\n  0x04\n    /* \"staking.sol\":1504:1516  levelInfo[2] */\n  0x00\n    /* \"staking.sol\":1514:1515  2 */\n  0x02\n    /* \"staking.sol\":1504:1516  levelInfo[2] */\n  dup2\n  mstore\n  0x20\n  add\n  swap1\n  dup2\n  mstore\n  0x20\n  add\n  0x00\n  keccak256\n    /* \"staking.sol\":1504:1520  levelInfo[2].APY */\n  0x00\n  add\n    /* \"staking.sol\":1504:1528  levelInfo[2].APY = 54750 */\n  dup2\n  swap1\n  sstore\n  pop\n    /* \"staking.sol\":1564:1572  180 days */\n  0xed4e00\n    /* \"staking.sol\":1538:1547  levelInfo */\n  0x04\n    /* \"staking.sol\":1538:1550  levelInfo[2] */\n  0x00\n    /* \"staking.sol\":1548:1549  2 */\n  0x02\n    /* \"staking.sol\":1538:1550  levelInfo[2] */\n  dup2\n  mstore\n  0x20\n  add\n  swap1\n  dup2\n  mstore\n  0x20\n  add\n  0x00\n  keccak256\n    /* \"staking.sol\":1538:1561  levelInfo[2].lockPeriod */\n  0x01\n  add\n    /* \"staking.sol\":1538:1572  levelInfo[2].lockPeriod = 180 days */\n  dup2\n  swap1\n  sstore\n  pop\n    /* \"staking.sol\":1643:1648  73000 */\n  0x011d28\n    /* \"staking.sol\":1624:1633  levelInfo */\n  0x04\n    /* \"staking.sol\":1624:1636  levelInfo[3] */\n  0x00\n    /* \"staking.sol\":1634:1635  3 */\n  0x03\n    /* \"staking.sol\":1624:1636  levelInfo[3] */\n  dup2\n  mstore\n  0x20\n  add\n  swap1\n  dup2\n  mstore\n  0x20\n  add\n  0x00\n  keccak256\n    /* \"staking.sol\":1624:1640  levelInfo[3].APY */\n  0x00\n  add\n    /* \"staking.sol\":1624:1648  levelInfo[3].APY = 73000 */\n  dup2\n  swap1\n  sstore\n  pop\n    /* \"staking.sol\":1684:1692  365 days */\n  0x01e13380\n    /* \"staking.sol\":1658:1667  levelInfo */\n  0x04\n    /* \"staking.sol\":1658:1670  levelInfo[3] */\n  0x00\n    /* \"staking.sol\":1668:1669  3 */\n  0x03\n    /* \"staking.sol\":1658:1670  levelInfo[3] */\n  dup2\n  mstore\n  0x20\n  add\n  swap1\n  dup2\n  mstore\n  0x20\n  add\n  0x00\n  keccak256\n    /* \"staking.sol\":1658:1681  levelInfo[3].lockPeriod */\n  0x01\n  add\n    /* \"staking.sol\":1658:1692  levelInfo[3].lockPeriod = 365 days */\n  dup2\n  swap1\n  sstore\n  pop\n    /* \"staking.sol\":1143:1699  constructor(address _token ) {... */\n  pop\n    /* \"staking.sol\":224:6160  contract AcesStaking is Ownable, Pausable {... */\n  jump(tag_14)\n    /* \"@openzeppelin/contracts/utils/Context.sol\":640:736  function _msgSender() internal view virtual returns (address) {... */\ntag_10:\n    /* \"@openzeppelin/contracts/utils/Context.sol\":693:700  address */\n  0x00\n    /* \"@openzeppelin/contracts/utils/Context.sol\":719:729  msg.sender */\n  caller\n    /* \"@openzeppelin/contracts/utils/Context.sol\":712:729  return msg.sender */\n  swap1\n  pop\n    /* \"@openzeppelin/contracts/utils/Context.sol\":640:736  function _msgSender() internal view virtual returns (address) {... */\n  swap1\n  jump\t// out\n    /* \"@openzeppelin/contracts/access/Ownable.sol\":2270:2457  function _transferOwnership(address newOwner) internal virtual {... */\ntag_11:\n    /* \"@openzeppelin/contracts/access/Ownable.sol\":2343:2359  address oldOwner */\n  0x00\n    /* \"@openzeppelin/contracts/access/Ownable.sol\":2362:2368  _owner */\n  dup1\n  0x00\n  swap1\n  sload\n  swap1\n  0x0100\n  exp\n  swap1\n  div\n  0xffffffffffffffffffffffffffffffffffffffff\n  and\n    /* \"@openzeppelin/contracts/access/Ownable.sol\":2343:2368  address oldOwner = _owner */\n  swap1\n  pop\n    /* \"@openzeppelin/contracts/access/Ownable.sol\":2387:2395  newOwner */\n  dup2\n    /* \"@openzeppelin/contracts/access/Ownable.sol\":2378:2384  _owner */\n  0x00\n  dup1\n    /* \"@openzeppelin/contracts/access/Ownable.sol\":2378:2395  _owner = newOwner */\n  0x0100\n  exp\n  dup2\n  sload\n  dup2\n  0xffffffffffffffffffffffffffffffffffffffff\n  mul\n  not\n  and\n  swap1\n  dup4\n  0xffffffffffffffffffffffffffffffffffffffff\n  and\n  mul\n  or\n  swap1\n  sstore\n  pop\n    /* \"@openzeppelin/contracts/access/Ownable.sol\":2441:2449  newOwner */\n  dup2\n    /* \"@openzeppelin/contracts/access/Ownable.sol\":2410:2450  OwnershipTransferred(oldOwner, newOwner) */\n  0xffffffffffffffffffffffffffffffffffffffff\n  and\n    /* \"@openzeppelin/contracts/access/Ownable.sol\":2431:2439  oldOwner */\n  dup2\n    /* \"@openzeppelin/contracts/access/Ownable.sol\":2410:2450  OwnershipTransferred(oldOwner, newOwner) */\n  0xffffffffffffffffffffffffffffffffffffffff\n  and\n  0x8be0079c531659141344cd1fd0a4f28419497f9722a3daafe3b4186f6b6457e0\n  mload(0x40)\n  mload(0x40)\n  dup1\n  swap2\n  sub\n  swap1\n  log3\n    /* \"@openzeppelin/contracts/access/Ownable.sol\":2333:2457  {... */\n  pop\n    /* \"@openzeppelin/contracts/access/Ownable.sol\":2270:2457  function _transferOwnership(address newOwner) internal virtual {... */\n  pop\n  jump\t// out\n    /* \"#utility.yul\":7:150   */\ntag_18:\n    /* \"#utility.yul\":64:69   */\n  0x00\n    /* \"#utility.yul\":95:101   */\n  dup2\n    /* \"#utility.yul\":89:102   */\n  mload\n    /* \"#utility.yul\":80:102   */\n  swap1\n  pop\n    /* \"#utility.yul\":111:144   */\n  tag_20\n    /* \"#utility.yul\":138:143   */\n  dup2\n    /* \"#utility.yul\":111:144   */\n  tag_21\n  jump\t// in\ntag_20:\n    /* \"#utility.yul\":7:150   */\n  swap3\n  swap2\n  pop\n  pop\n  jump\t// out\n    /* \"#utility.yul\":156:507   */\ntag_3:\n    /* \"#utility.yul\":226:232   */\n  0x00\n    /* \"#utility.yul\":275:277   */\n  0x20\n    /* \"#utility.yul\":263:272   */\n  dup3\n    /* \"#utility.yul\":254:261   */\n  dup5\n    /* \"#utility.yul\":250:273   */\n  sub\n    /* \"#utility.yul\":246:278   */\n  slt\n    /* \"#utility.yul\":243:362   */\n  iszero\n  tag_23\n  jumpi\n    /* \"#utility.yul\":281:360   */\n  tag_24\n  tag_25\n  jump\t// in\ntag_24:\n    /* \"#utility.yul\":243:362   */\ntag_23:\n    /* \"#utility.yul\":401:402   */\n  0x00\n    /* \"#utility.yul\":426:490   */\n  tag_26\n    /* \"#utility.yul\":482:489   */\n  dup5\n    /* \"#utility.yul\":473:479   */\n  dup3\n    /* \"#utility.yul\":462:471   */\n  dup6\n    /* \"#utility.yul\":458:480   */\n  add\n    /* \"#utility.yul\":426:490   */\n  tag_18\n  jump\t// in\ntag_26:\n    /* \"#utility.yul\":416:490   */\n  swap2\n  pop\n    /* \"#utility.yul\":372:500   */\n  pop\n    /* \"#utility.yul\":156:507   */\n  swap3\n  swap2\n  pop\n  pop\n  jump\t// out\n    /* \"#utility.yul\":594:690   */\ntag_29:\n    /* \"#utility.yul\":631:638   */\n  0x00\n    /* \"#utility.yul\":660:684   */\n  tag_31\n    /* \"#utility.yul\":678:683   */\n  dup3\n    /* \"#utility.yul\":660:684   */\n  tag_32\n  jump\t// in\ntag_31:\n    /* \"#utility.yul\":649:684   */\n  swap1\n  pop\n    /* \"#utility.yul\":594:690   */\n  swap2\n  swap1\n  pop\n  jump\t// out\n    /* \"#utility.yul\":696:822   */\ntag_32:\n    /* \"#utility.yul\":733:740   */\n  0x00\n    /* \"#utility.yul\":773:815   */\n  0xffffffffffffffffffffffffffffffffffffffff\n    /* \"#utility.yul\":766:771   */\n  dup3\n    /* \"#utility.yul\":762:816   */\n  and\n    /* \"#utility.yul\":751:816   */\n  swap1\n  pop\n    /* \"#utility.yul\":696:822   */\n  swap2\n  swap1\n  pop\n  jump\t// out\n    /* \"#utility.yul\":951:1068   */\ntag_25:\n    /* \"#utility.yul\":1060:1061   */\n  0x00\n    /* \"#utility.yul\":1057:1058   */\n  dup1\n    /* \"#utility.yul\":1050:1062   */\n  revert\n    /* \"#utility.yul\":1074:1196   */\ntag_21:\n    /* \"#utility.yul\":1147:1171   */\n  tag_38\n    /* \"#utility.yul\":1165:1170   */\n  dup2\n    /* \"#utility.yul\":1147:1171   */\n  tag_29\n  jump\t// in\ntag_38:\n    /* \"#utility.yul\":1140:1145   */\n  dup2\n    /* \"#utility.yul\":1137:1172   */\n  eq\n    /* \"#utility.yul\":1127:1190   */\n  tag_39\n  jumpi\n    /* \"#utility.yul\":1186:1187   */\n  0x00\n    /* \"#utility.yul\":1183:1184   */\n  dup1\n    /* \"#utility.yul\":1176:1188   */\n  revert\n    /* \"#utility.yul\":1127:1190   */\ntag_39:\n    /* \"#utility.yul\":1074:1196   */\n  pop\n  jump\t// out\n    /* \"staking.sol\":224:6160  contract AcesStaking is Ownable, Pausable {... */\ntag_14:\n  dataSize(sub_0)\n  dup1\n  dataOffset(sub_0)\n  0x00\n  codecopy\n  0x00\n  return\nstop\n\nsub_0: assembly {\n        /* \"staking.sol\":224:6160  contract AcesStaking is Ownable, Pausable {... */\n      mstore(0x40, 0x80)\n      callvalue\n      dup1\n      iszero\n      tag_1\n      jumpi\n      0x00\n      dup1\n      revert\n    tag_1:\n      pop\n      jumpi(tag_2, lt(calldatasize, 0x04))\n      shr(0xe0, calldataload(0x00))\n      dup1\n      0x8456cb59\n      gt\n      tag_22\n      jumpi\n      dup1\n      0xbeb8314c\n      gt\n      tag_23\n      jumpi\n      dup1\n      0xbeb8314c\n      eq\n      tag_17\n      jumpi\n      dup1\n      0xe2bbb158\n      eq\n      tag_18\n      jumpi\n      dup1\n      0xe788cee5\n      eq\n      tag_19\n      jumpi\n      dup1\n      0xedf501ad\n      eq\n      tag_20\n      jumpi\n      dup1\n      0xf2fde38b\n      eq\n      tag_21\n      jumpi\n      jump(tag_2)\n    tag_23:\n      dup1\n      0x8456cb59\n      eq\n      tag_12\n      jumpi\n      dup1\n      0x8d8f2adb\n      eq\n      tag_13\n      jumpi\n      dup1\n      0x8da5cb5b\n      eq\n      tag_14\n      jumpi\n      dup1\n      0xaa5f7e26\n      eq\n      tag_15\n      jumpi\n      dup1\n      0xaff3b697\n      eq\n      tag_16\n      jumpi\n      jump(tag_2)\n    tag_22:\n      dup1\n      0x441a3e70\n      gt\n      tag_24\n      jumpi\n      dup1\n      0x441a3e70\n      eq\n      tag_7\n      jumpi\n      dup1\n      0x451c3d80\n      eq\n      tag_8\n      jumpi\n      dup1\n      0x5c975abb\n      eq\n      tag_9\n      jumpi\n      dup1\n      0x6386c1c7\n      eq\n      tag_10\n      jumpi\n      dup1\n      0x715018a6\n      eq\n      tag_11\n      jumpi\n      jump(tag_2)\n    tag_24:\n      dup1\n      0x259ee752\n      eq\n      tag_3\n      jumpi\n      dup1\n      0x32e96203\n      eq\n      tag_4\n      jumpi\n      dup1\n      0x379607f5\n      eq\n      tag_5\n      jumpi\n      dup1\n      0x3f4ba83a\n      eq\n      tag_6\n      jumpi\n    tag_2:\n      0x00\n      dup1\n      revert\n        /* \"staking.sol\":708:776  mapping(address => mapping(uint256 => User)) public userLevelDeposit */\n    tag_3:\n      tag_25\n      0x04\n      dup1\n      calldatasize\n      sub\n      dup2\n      add\n      swap1\n      tag_26\n      swap2\n      swap1\n      tag_27\n      jump\t// in\n    tag_26:\n      tag_28\n      jump\t// in\n    tag_25:\n      mload(0x40)\n      tag_29\n      swap6\n      swap5\n      swap4\n      swap3\n      swap2\n      swap1\n      tag_30\n      jump\t// in\n    tag_29:\n      mload(0x40)\n      dup1\n      swap2\n      sub\n      swap1\n      return\n        /* \"staking.sol\":5712:5899  function changeLevelValues(uint256 level, uint256 _APY, uint256 _lockTime) external onlyOwner {... */\n    tag_4:\n      tag_31\n      0x04\n      dup1\n      calldatasize\n      sub\n      dup2\n      add\n      swap1\n      tag_32\n      swap2\n      swap1\n      tag_33\n      jump\t// in\n    tag_32:\n      tag_34\n      jump\t// in\n    tag_31:\n      stop\n        /* \"staking.sol\":3388:3874  function claim (uint256 _level) external{... */\n    tag_5:\n      tag_35\n      0x04\n      dup1\n      calldatasize\n      sub\n      dup2\n      add\n      swap1\n      tag_36\n      swap2\n      swap1\n      tag_37\n      jump\t// in\n    tag_36:\n      tag_38\n      jump\t// in\n    tag_35:\n      stop\n        /* \"staking.sol\":1820:1884  function unpause () public onlyOwner {... */\n    tag_6:\n      tag_39\n      tag_40\n      jump\t// in\n    tag_39:\n      stop\n        /* \"staking.sol\":2602:3382  function withdraw (uint256 _amount, uint256 _level) public  {... */\n    tag_7:\n      tag_41\n      0x04\n      dup1\n      calldatasize\n      sub\n      dup2\n      add\n      swap1\n      tag_42\n      swap2\n      swap1\n      tag_43\n      jump\t// in\n    tag_42:\n      tag_44\n      jump\t// in\n    tag_41:\n      stop\n        /* \"staking.sol\":317:344  IERC20 public acceptedToken */\n    tag_8:\n      tag_45\n      tag_46\n      jump\t// in\n    tag_45:\n      mload(0x40)\n      tag_47\n      swap2\n      swap1\n      tag_48\n      jump\t// in\n    tag_47:\n      mload(0x40)\n      dup1\n      swap2\n      sub\n      swap1\n      return\n        /* \"@openzeppelin/contracts/security/Pausable.sol\":1098:1182  function paused() public view virtual returns (bool) {... */\n    tag_9:\n      tag_49\n      tag_50\n      jump\t// in\n    tag_49:\n      mload(0x40)\n      tag_51\n      swap2\n      swap1\n      tag_52\n      jump\t// in\n    tag_51:\n      mload(0x40)\n      dup1\n      swap2\n      sub\n      swap1\n      return\n        /* \"staking.sol\":4799:5429  function getUserInfo(address _user) external view returns(User memory level0,  User memory level1, User memory level2, User memory level3, uint256 level0Rewards, uint256 level1Rewards, uint256 level2Rewards, uint256 level3Rewards){... */\n    tag_10:\n      tag_53\n      0x04\n      dup1\n      calldatasize\n      sub\n      dup2\n      add\n      swap1\n      tag_54\n      swap2\n      swap1\n      tag_55\n      jump\t// in\n    tag_54:\n      tag_56\n      jump\t// in\n    tag_53:\n      mload(0x40)\n      tag_57\n      swap9\n      swap8\n      swap7\n      swap6\n      swap5\n      swap4\n      swap3\n      swap2\n      swap1\n      tag_58\n      jump\t// in\n    tag_57:\n      mload(0x40)\n      dup1\n      swap2\n      sub\n      swap1\n      return\n        /* \"@openzeppelin/contracts/access/Ownable.sol\":1668:1769  function renounceOwnership() public virtual onlyOwner {... */\n    tag_11:\n      tag_59\n      tag_60\n      jump\t// in\n    tag_59:\n      stop\n        /* \"staking.sol\":1750:1810  function pause () public onlyOwner {... */\n    tag_12:\n      tag_61\n      tag_62\n      jump\t// in\n    tag_61:\n      stop\n        /* \"staking.sol\":6022:6158  function withdrawTokens() external onlyOwner {... */\n    tag_13:\n      tag_63\n      tag_64\n      jump\t// in\n    tag_63:\n      stop\n        /* \"@openzeppelin/contracts/access/Ownable.sol\":1036:1121  function owner() public view virtual returns (address) {... */\n    tag_14:\n      tag_65\n      tag_66\n      jump\t// in\n    tag_65:\n      mload(0x40)\n      tag_67\n      swap2\n      swap1\n      tag_68\n      jump\t// in\n    tag_67:\n      mload(0x40)\n      dup1\n      swap2\n      sub\n      swap1\n      return\n        /* \"staking.sol\":3880:4318  function compound (uint256 _level) external{... */\n    tag_15:\n      tag_69\n      0x04\n      dup1\n      calldatasize\n      sub\n      dup2\n      add\n      swap1\n      tag_70\n      swap2\n      swap1\n      tag_37\n      jump\t// in\n    tag_70:\n      tag_71\n      jump\t// in\n    tag_69:\n      stop\n        /* \"staking.sol\":5905:6016  function changeEarlyWithdrawFee(uint256 _newFee) external onlyOwner {... */\n    tag_16:\n      tag_72\n      0x04\n      dup1\n      calldatasize\n      sub\n      dup2\n      add\n      swap1\n      tag_73\n      swap2\n      swap1\n      tag_37\n      jump\t// in\n    tag_73:\n      tag_74\n      jump\t// in\n    tag_72:\n      stop\n        /* \"staking.sol\":4324:4789  function calculateRewards (address _user, uint256 _level) public view returns (uint256){... */\n    tag_17:\n      tag_75\n      0x04\n      dup1\n      calldatasize\n      sub\n      dup2\n      add\n      swap1\n      tag_76\n      swap2\n      swap1\n      tag_27\n      jump\t// in\n    tag_76:\n      tag_77\n      jump\t// in\n    tag_75:\n      mload(0x40)\n      tag_78\n      swap2\n      swap1\n      tag_79\n      jump\t// in\n    tag_78:\n      mload(0x40)\n      dup1\n      swap2\n      sub\n      swap1\n      return\n        /* \"staking.sol\":1891:2596  function deposit (uint256 _amount, uint256 _level) public whenNotPaused {... */\n    tag_18:\n      tag_80\n      0x04\n      dup1\n      calldatasize\n      sub\n      dup2\n      add\n      swap1\n      tag_81\n      swap2\n      swap1\n      tag_43\n      jump\t// in\n    tag_81:\n      tag_82\n      jump\t// in\n    tag_80:\n      stop\n        /* \"staking.sol\":5435:5706  function getLevelsInfo() external view returns(Level memory level0, Level memory level1, Level memory level2, Level memory level3){... */\n    tag_19:\n      tag_83\n      tag_84\n      jump\t// in\n    tag_83:\n      mload(0x40)\n      tag_85\n      swap5\n      swap4\n      swap3\n      swap2\n      swap1\n      tag_86\n      jump\t// in\n    tag_85:\n      mload(0x40)\n      dup1\n      swap2\n      sub\n      swap1\n      return\n        /* \"staking.sol\":782:824  mapping(uint256 => Level) public levelInfo */\n    tag_20:\n      tag_87\n      0x04\n      dup1\n      calldatasize\n      sub\n      dup2\n      add\n      swap1\n      tag_88\n      swap2\n      swap1\n      tag_37\n      jump\t// in\n    tag_88:\n      tag_89\n      jump\t// in\n    tag_87:\n      mload(0x40)\n      tag_90\n      swap3\n      swap2\n      swap1\n      tag_91\n      jump\t// in\n    tag_90:\n      mload(0x40)\n      dup1\n      swap2\n      sub\n      swap1\n      return\n        /* \"@openzeppelin/contracts/access/Ownable.sol\":1918:2116  function transferOwnership(address newOwner) public virtual onlyOwner {... */\n    tag_21:\n      tag_92\n      0x04\n      dup1\n      calldatasize\n      sub\n      dup2\n      add\n      swap1\n      tag_93\n      swap2\n      swap1\n      tag_55\n      jump\t// in\n    tag_93:\n      tag_94\n      jump\t// in\n    tag_92:\n      stop\n        /* \"staking.sol\":708:776  mapping(address => mapping(uint256 => User)) public userLevelDeposit */\n    tag_28:\n      mstore(0x20, 0x03)\n      dup2\n      0x00\n      mstore\n      mstore(0x20, keccak256(0x00, 0x40))\n      dup1\n      0x00\n      mstore\n      keccak256(0x00, 0x40)\n      0x00\n      swap2\n      pop\n      swap2\n      pop\n      pop\n      dup1\n      0x00\n      add\n      sload\n      swap1\n      dup1\n      0x01\n      add\n      sload\n      swap1\n      dup1\n      0x02\n      add\n      sload\n      swap1\n      dup1\n      0x03\n      add\n      sload\n      swap1\n      dup1\n      0x04\n      add\n      sload\n      swap1\n      pop\n      dup6\n      jump\t// out\n        /* \"staking.sol\":5712:5899  function changeLevelValues(uint256 level, uint256 _APY, uint256 _lockTime) external onlyOwner {... */\n    tag_34:\n        /* \"@openzeppelin/contracts/access/Ownable.sol\":1259:1271  _msgSender() */\n      tag_96\n        /* \"@openzeppelin/contracts/access/Ownable.sol\":1259:1269  _msgSender */\n      tag_97\n        /* \"@openzeppelin/contracts/access/Ownable.sol\":1259:1271  _msgSender() */\n      jump\t// in\n    tag_96:\n        /* \"@openzeppelin/contracts/access/Ownable.sol\":1248:1271  owner() == _msgSender() */\n      0xffffffffffffffffffffffffffffffffffffffff\n      and\n        /* \"@openzeppelin/contracts/access/Ownable.sol\":1248:1255  owner() */\n      tag_98\n        /* \"@openzeppelin/contracts/access/Ownable.sol\":1248:1253  owner */\n      tag_66\n        /* \"@openzeppelin/contracts/access/Ownable.sol\":1248:1255  owner() */\n      jump\t// in\n    tag_98:\n        /* \"@openzeppelin/contracts/access/Ownable.sol\":1248:1271  owner() == _msgSender() */\n      0xffffffffffffffffffffffffffffffffffffffff\n      and\n      eq\n        /* \"@openzeppelin/contracts/access/Ownable.sol\":1240:1308  require(owner() == _msgSender(), \"Ownable: caller is not the owner\") */\n      tag_99\n      jumpi\n      mload(0x40)\n      0x08c379a000000000000000000000000000000000000000000000000000000000\n      dup2\n      mstore\n      0x04\n      add\n      tag_100\n      swap1\n      tag_101\n      jump\t// in\n    tag_100:\n      mload(0x40)\n      dup1\n      swap2\n      sub\n      swap1\n      revert\n    tag_99:\n        /* \"staking.sol\":5839:5843  _APY */\n      dup2\n        /* \"staking.sol\":5816:5825  levelInfo */\n      0x04\n        /* \"staking.sol\":5816:5832  levelInfo[level] */\n      0x00\n        /* \"staking.sol\":5826:5831  level */\n      dup6\n        /* \"staking.sol\":5816:5832  levelInfo[level] */\n      dup2\n      mstore\n      0x20\n      add\n      swap1\n      dup2\n      mstore\n      0x20\n      add\n      0x00\n      keccak256\n        /* \"staking.sol\":5816:5836  levelInfo[level].APY */\n      0x00\n      add\n        /* \"staking.sol\":5816:5843  levelInfo[level].APY = _APY */\n      dup2\n      swap1\n      sstore\n      pop\n        /* \"staking.sol\":5883:5892  _lockTime */\n      dup1\n        /* \"staking.sol\":5853:5862  levelInfo */\n      0x04\n        /* \"staking.sol\":5853:5869  levelInfo[level] */\n      0x00\n        /* \"staking.sol\":5863:5868  level */\n      dup6\n        /* \"staking.sol\":5853:5869  levelInfo[level] */\n      dup2\n      mstore\n      0x20\n      add\n      swap1\n      dup2\n      mstore\n      0x20\n      add\n      0x00\n      keccak256\n        /* \"staking.sol\":5853:5880  levelInfo[level].lockPeriod */\n      0x01\n      add\n        /* \"staking.sol\":5853:5892  levelInfo[level].lockPeriod = _lockTime */\n      dup2\n      swap1\n      sstore\n      pop\n        /* \"staking.sol\":5712:5899  function changeLevelValues(uint256 level, uint256 _APY, uint256 _lockTime) external onlyOwner {... */\n      pop\n      pop\n      pop\n      jump\t// out\n        /* \"staking.sol\":3388:3874  function claim (uint256 _level) external{... */\n    tag_38:\n        /* \"staking.sol\":3438:3456  address _msgSender */\n      0x00\n        /* \"staking.sol\":3459:3469  msg.sender */\n      caller\n        /* \"staking.sol\":3438:3469  address _msgSender = msg.sender */\n      swap1\n      pop\n        /* \"staking.sol\":3534:3535  0 */\n      0x00\n        /* \"staking.sol\":3487:3503  userLevelDeposit */\n      0x03\n        /* \"staking.sol\":3487:3515  userLevelDeposit[_msgSender] */\n      0x00\n        /* \"staking.sol\":3504:3514  _msgSender */\n      dup4\n        /* \"staking.sol\":3487:3515  userLevelDeposit[_msgSender] */\n      0xffffffffffffffffffffffffffffffffffffffff\n      and\n      0xffffffffffffffffffffffffffffffffffffffff\n      and\n      dup2\n      mstore\n      0x20\n      add\n      swap1\n      dup2\n      mstore\n      0x20\n      add\n      0x00\n      keccak256\n        /* \"staking.sol\":3487:3523  userLevelDeposit[_msgSender][_level] */\n      0x00\n        /* \"staking.sol\":3516:3522  _level */\n      dup5\n        /* \"staking.sol\":3487:3523  userLevelDeposit[_msgSender][_level] */\n      dup2\n      mstore\n      0x20\n      add\n      swap1\n      dup2\n      mstore\n      0x20\n      add\n      0x00\n      keccak256\n        /* \"staking.sol\":3487:3531  userLevelDeposit[_msgSender][_level].balance */\n      0x00\n      add\n      sload\n        /* \"staking.sol\":3487:3535  userLevelDeposit[_msgSender][_level].balance > 0 */\n      gt\n        /* \"staking.sol\":3479:3557  require(userLevelDeposit[_msgSender][_level].balance > 0, \"No active deposit\") */\n      tag_104\n      jumpi\n      mload(0x40)\n      0x08c379a000000000000000000000000000000000000000000000000000000000\n      dup2\n      mstore\n      0x04\n      add\n      tag_105\n      swap1\n      tag_106\n      jump\t// in\n    tag_105:\n      mload(0x40)\n      dup1\n      swap2\n      sub\n      swap1\n      revert\n    tag_104:\n        /* \"staking.sol\":3568:3583  uint256 rewards */\n      0x00\n        /* \"staking.sol\":3586:3622  calculateRewards(_msgSender, _level) */\n      tag_107\n        /* \"staking.sol\":3603:3613  _msgSender */\n      dup3\n        /* \"staking.sol\":3615:3621  _level */\n      dup5\n        /* \"staking.sol\":3586:3602  calculateRewards */\n      tag_77\n        /* \"staking.sol\":3586:3622  calculateRewards(_msgSender, _level) */\n      jump\t// in\n    tag_107:\n        /* \"staking.sol\":3568:3622  uint256 rewards = calculateRewards(_msgSender, _level) */\n      swap1\n      pop\n        /* \"staking.sol\":3682:3697  block.timestamp */\n      timestamp\n        /* \"staking.sol\":3633:3649  userLevelDeposit */\n      0x03\n        /* \"staking.sol\":3633:3661  userLevelDeposit[_msgSender] */\n      0x00\n        /* \"staking.sol\":3650:3660  _msgSender */\n      dup5\n        /* \"staking.sol\":3633:3661  userLevelDeposit[_msgSender] */\n      0xffffffffffffffffffffffffffffffffffffffff\n      and\n      0xffffffffffffffffffffffffffffffffffffffff\n      and\n      dup2\n      mstore\n      0x20\n      add\n      swap1\n      dup2\n      mstore\n      0x20\n      add\n      0x00\n      keccak256\n        /* \"staking.sol\":3633:3669  userLevelDeposit[_msgSender][_level] */\n      0x00\n        /* \"staking.sol\":3662:3668  _level */\n      dup6\n        /* \"staking.sol\":3633:3669  userLevelDeposit[_msgSender][_level] */\n      dup2\n      mstore\n      0x20\n      add\n      swap1\n      dup2\n      mstore\n      0x20\n      add\n      0x00\n      keccak256\n        /* \"staking.sol\":3633:3679  userLevelDeposit[_msgSender][_level].lastClaim */\n      0x03\n      add\n        /* \"staking.sol\":3633:3697  userLevelDeposit[_msgSender][_level].lastClaim = block.timestamp */\n      dup2\n      swap1\n      sstore\n      pop\n        /* \"staking.sol\":3755:3762  rewards */\n      dup1\n        /* \"staking.sol\":3707:3723  userLevelDeposit */\n      0x03\n        /* \"staking.sol\":3707:3735  userLevelDeposit[_msgSender] */\n      0x00\n        /* \"staking.sol\":3724:3734  _msgSender */\n      dup5\n        /* \"staking.sol\":3707:3735  userLevelDeposit[_msgSender] */\n      0xffffffffffffffffffffffffffffffffffffffff\n      and\n      0xffffffffffffffffffffffffffffffffffffffff\n      and\n      dup2\n      mstore\n      0x20\n      add\n      swap1\n      dup2\n      mstore\n      0x20\n      add\n      0x00\n      keccak256\n        /* \"staking.sol\":3707:3743  userLevelDeposit[_msgSender][_level] */\n      0x00\n        /* \"staking.sol\":3736:3742  _level */\n      dup6\n        /* \"staking.sol\":3707:3743  userLevelDeposit[_msgSender][_level] */\n      dup2\n      mstore\n      0x20\n      add\n      swap1\n      dup2\n      mstore\n      0x20\n      add\n      0x00\n      keccak256\n        /* \"staking.sol\":3707:3751  userLevelDeposit[_msgSender][_level].claimed */\n      0x01\n      add\n      0x00\n        /* \"staking.sol\":3707:3762  userLevelDeposit[_msgSender][_level].claimed += rewards */\n      dup3\n      dup3\n      sload\n      tag_108\n      swap2\n      swap1\n      tag_109\n      jump\t// in\n    tag_108:\n      swap3\n      pop\n      pop\n      dup2\n      swap1\n      sstore\n      pop\n        /* \"staking.sol\":3773:3786  acceptedToken */\n      0x01\n      0x00\n      swap1\n      sload\n      swap1\n      0x0100\n      exp\n      swap1\n      div\n      0xffffffffffffffffffffffffffffffffffffffff\n      and\n        /* \"staking.sol\":3773:3795  acceptedToken.transfer */\n      0xffffffffffffffffffffffffffffffffffffffff\n      and\n      0xa9059cbb\n        /* \"staking.sol\":3796:3806  _msgSender */\n      dup4\n        /* \"staking.sol\":3808:3815  rewards */\n      dup4\n        /* \"staking.sol\":3773:3816  acceptedToken.transfer(_msgSender, rewards) */\n      mload(0x40)\n      dup4\n      0xffffffff\n      and\n      0xe0\n      shl\n      dup2\n      mstore\n      0x04\n      add\n      tag_110\n      swap3\n      swap2\n      swap1\n      tag_111\n      jump\t// in\n    tag_110:\n      0x20\n      mload(0x40)\n      dup1\n      dup4\n      sub\n      dup2\n      0x00\n      dup8\n      dup1\n      extcodesize\n      iszero\n      dup1\n      iszero\n      tag_112\n      jumpi\n      0x00\n      dup1\n      revert\n    tag_112:\n      pop\n      gas\n      call\n      iszero\n      dup1\n      iszero\n      tag_114\n      jumpi\n      returndatasize\n      0x00\n      dup1\n      returndatacopy\n      revert(0x00, returndatasize)\n    tag_114:\n      pop\n      pop\n      pop\n      pop\n      mload(0x40)\n      returndatasize\n      not(0x1f)\n      0x1f\n      dup3\n      add\n      and\n      dup3\n      add\n      dup1\n      0x40\n      mstore\n      pop\n      dup2\n      add\n      swap1\n      tag_115\n      swap2\n      swap1\n      tag_116\n      jump\t// in\n    tag_115:\n      pop\n        /* \"staking.sol\":3832:3867  Claim (_msgSender, _level, rewards) */\n      0x34fcbac0073d7c3d388e51312faf357774904998eeb8fca628b9e6f65ee1cbf7\n        /* \"staking.sol\":3839:3849  _msgSender */\n      dup3\n        /* \"staking.sol\":3851:3857  _level */\n      dup5\n        /* \"staking.sol\":3859:3866  rewards */\n      dup4\n        /* \"staking.sol\":3832:3867  Claim (_msgSender, _level, rewards) */\n      mload(0x40)\n      tag_117\n      swap4\n      swap3\n      swap2\n      swap1\n      tag_118\n      jump\t// in\n    tag_117:\n      mload(0x40)\n      dup1\n      swap2\n      sub\n      swap1\n      log1\n        /* \"staking.sol\":3428:3874  {... */\n      pop\n      pop\n        /* \"staking.sol\":3388:3874  function claim (uint256 _level) external{... */\n      pop\n      jump\t// out\n        /* \"staking.sol\":1820:1884  function unpause () public onlyOwner {... */\n    tag_40:\n        /* \"@openzeppelin/contracts/access/Ownable.sol\":1259:1271  _msgSender() */\n      tag_120\n        /* \"@openzeppelin/contracts/access/Ownable.sol\":1259:1269  _msgSender */\n      tag_97\n        /* \"@openzeppelin/contracts/access/Ownable.sol\":1259:1271  _msgSender() */\n      jump\t// in\n    tag_120:\n        /* \"@openzeppelin/contracts/access/Ownable.sol\":1248:1271  owner() == _msgSender() */\n      0xffffffffffffffffffffffffffffffffffffffff\n      and\n        /* \"@openzeppelin/contracts/access/Ownable.sol\":1248:1255  owner() */\n      tag_121\n        /* \"@openzeppelin/contracts/access/Ownable.sol\":1248:1253  owner */\n      tag_66\n        /* \"@openzeppelin/contracts/access/Ownable.sol\":1248:1255  owner() */\n      jump\t// in\n    tag_121:\n        /* \"@openzeppelin/contracts/access/Ownable.sol\":1248:1271  owner() == _msgSender() */\n      0xffffffffffffffffffffffffffffffffffffffff\n      and\n      eq\n        /* \"@openzeppelin/contracts/access/Ownable.sol\":1240:1308  require(owner() == _msgSender(), \"Ownable: caller is not the owner\") */\n      tag_122\n      jumpi\n      mload(0x40)\n      0x08c379a000000000000000000000000000000000000000000000000000000000\n      dup2\n      mstore\n      0x04\n      add\n      tag_123\n      swap1\n      tag_101\n      jump\t// in\n    tag_123:\n      mload(0x40)\n      dup1\n      swap2\n      sub\n      swap1\n      revert\n    tag_122:\n        /* \"staking.sol\":1867:1877  _unpause() */\n      tag_125\n        /* \"staking.sol\":1867:1875  _unpause */\n      tag_126\n        /* \"staking.sol\":1867:1877  _unpause() */\n      jump\t// in\n    tag_125:\n        /* \"staking.sol\":1820:1884  function unpause () public onlyOwner {... */\n      jump\t// out\n        /* \"staking.sol\":2602:3382  function withdraw (uint256 _amount, uint256 _level) public  {... */\n    tag_44:\n        /* \"staking.sol\":2672:2690  address _msgSender */\n      0x00\n        /* \"staking.sol\":2693:2703  msg.sender */\n      caller\n        /* \"staking.sol\":2672:2703  address _msgSender = msg.sender */\n      swap1\n      pop\n        /* \"staking.sol\":2769:2776  _amount */\n      dup3\n        /* \"staking.sol\":2721:2737  userLevelDeposit */\n      0x03\n        /* \"staking.sol\":2721:2749  userLevelDeposit[_msgSender] */\n      0x00\n        /* \"staking.sol\":2738:2748  _msgSender */\n      dup4\n        /* \"staking.sol\":2721:2749  userLevelDeposit[_msgSender] */\n      0xffffffffffffffffffffffffffffffffffffffff\n      and\n      0xffffffffffffffffffffffffffffffffffffffff\n      and\n      dup2\n      mstore\n      0x20\n      add\n      swap1\n      dup2\n      mstore\n      0x20\n      add\n      0x00\n      keccak256\n        /* \"staking.sol\":2721:2757  userLevelDeposit[_msgSender][_level] */\n      0x00\n        /* \"staking.sol\":2750:2756  _level */\n      dup5\n        /* \"staking.sol\":2721:2757  userLevelDeposit[_msgSender][_level] */\n      dup2\n      mstore\n      0x20\n      add\n      swap1\n      dup2\n      mstore\n      0x20\n      add\n      0x00\n      keccak256\n        /* \"staking.sol\":2721:2765  userLevelDeposit[_msgSender][_level].balance */\n      0x00\n      add\n      sload\n        /* \"staking.sol\":2721:2776  userLevelDeposit[_msgSender][_level].balance >= _amount */\n      lt\n      iszero\n        /* \"staking.sol\":2713:2799  require(userLevelDeposit[_msgSender][_level].balance >= _amount, \"Not enough deposit\") */\n      tag_128\n      jumpi\n      mload(0x40)\n      0x08c379a000000000000000000000000000000000000000000000000000000000\n      dup2\n      mstore\n      0x04\n      add\n      tag_129\n      swap1\n      tag_130\n      jump\t// in\n    tag_129:\n      mload(0x40)\n      dup1\n      swap2\n      sub\n      swap1\n      revert\n    tag_128:\n        /* \"staking.sol\":2810:2825  uint256 rewards */\n      0x00\n        /* \"staking.sol\":2828:2864  calculateRewards(_msgSender, _level) */\n      tag_131\n        /* \"staking.sol\":2845:2855  _msgSender */\n      dup3\n        /* \"staking.sol\":2857:2863  _level */\n      dup5\n        /* \"staking.sol\":2828:2844  calculateRewards */\n      tag_77\n        /* \"staking.sol\":2828:2864  calculateRewards(_msgSender, _level) */\n      jump\t// in\n    tag_131:\n        /* \"staking.sol\":2810:2864  uint256 rewards = calculateRewards(_msgSender, _level) */\n      swap1\n      pop\n        /* \"staking.sol\":2874:2896  uint256 withdrawAmount */\n      0x00\n        /* \"staking.sol\":2909:2916  rewards */\n      dup2\n        /* \"staking.sol\":2899:2906  _amount */\n      dup6\n        /* \"staking.sol\":2899:2916  _amount + rewards */\n      tag_132\n      swap2\n      swap1\n      tag_109\n      jump\t// in\n    tag_132:\n        /* \"staking.sol\":2874:2916  uint256 withdrawAmount = _amount + rewards */\n      swap1\n      pop\n        /* \"staking.sol\":2927:2946  uint256 withdrawFee */\n      0x00\n        /* \"staking.sol\":3009:3024  block.timestamp */\n      timestamp\n        /* \"staking.sol\":2959:2975  userLevelDeposit */\n      0x03\n        /* \"staking.sol\":2959:2987  userLevelDeposit[_msgSender] */\n      0x00\n        /* \"staking.sol\":2976:2986  _msgSender */\n      dup7\n        /* \"staking.sol\":2959:2987  userLevelDeposit[_msgSender] */\n      0xffffffffffffffffffffffffffffffffffffffff\n      and\n      0xffffffffffffffffffffffffffffffffffffffff\n      and\n      dup2\n      mstore\n      0x20\n      add\n      swap1\n      dup2\n      mstore\n      0x20\n      add\n      0x00\n      keccak256\n        /* \"staking.sol\":2959:2995  userLevelDeposit[_msgSender][_level] */\n      0x00\n        /* \"staking.sol\":2988:2994  _level */\n      dup8\n        /* \"staking.sol\":2959:2995  userLevelDeposit[_msgSender][_level] */\n      dup2\n      mstore\n      0x20\n      add\n      swap1\n      dup2\n      mstore\n      0x20\n      add\n      0x00\n      keccak256\n        /* \"staking.sol\":2959:3006  userLevelDeposit[_msgSender][_level].unlockTime */\n      0x04\n      add\n      sload\n        /* \"staking.sol\":2959:3024  userLevelDeposit[_msgSender][_level].unlockTime > block.timestamp */\n      gt\n        /* \"staking.sol\":2956:3105  if(userLevelDeposit[_msgSender][_level].unlockTime > block.timestamp){... */\n      iszero\n      tag_133\n      jumpi\n        /* \"staking.sol\":3091:3094  100 */\n      0x64\n        /* \"staking.sol\":3071:3087  earlyWithdrawFee */\n      sload(0x02)\n        /* \"staking.sol\":3054:3068  withdrawAmount */\n      dup4\n        /* \"staking.sol\":3054:3087  withdrawAmount * earlyWithdrawFee */\n      tag_134\n      swap2\n      swap1\n      tag_135\n      jump\t// in\n    tag_134:\n        /* \"staking.sol\":3053:3094  (withdrawAmount * earlyWithdrawFee) / 100 */\n      tag_136\n      swap2\n      swap1\n      tag_137\n      jump\t// in\n    tag_136:\n        /* \"staking.sol\":3039:3094  withdrawFee = (withdrawAmount * earlyWithdrawFee) / 100 */\n      swap1\n      pop\n        /* \"staking.sol\":2956:3105  if(userLevelDeposit[_msgSender][_level].unlockTime > block.timestamp){... */\n    tag_133:\n        /* \"staking.sol\":3164:3179  block.timestamp */\n      timestamp\n        /* \"staking.sol\":3115:3131  userLevelDeposit */\n      0x03\n        /* \"staking.sol\":3115:3143  userLevelDeposit[_msgSender] */\n      0x00\n        /* \"staking.sol\":3132:3142  _msgSender */\n      dup7\n        /* \"staking.sol\":3115:3143  userLevelDeposit[_msgSender] */\n      0xffffffffffffffffffffffffffffffffffffffff\n      and\n      0xffffffffffffffffffffffffffffffffffffffff\n      and\n      dup2\n      mstore\n      0x20\n      add\n      swap1\n      dup2\n      mstore\n      0x20\n      add\n      0x00\n      keccak256\n        /* \"staking.sol\":3115:3151  userLevelDeposit[_msgSender][_level] */\n      0x00\n        /* \"staking.sol\":3144:3150  _level */\n      dup8\n        /* \"staking.sol\":3115:3151  userLevelDeposit[_msgSender][_level] */\n      dup2\n      mstore\n      0x20\n      add\n      swap1\n      dup2\n      mstore\n      0x20\n      add\n      0x00\n      keccak256\n        /* \"staking.sol\":3115:3161  userLevelDeposit[_msgSender][_level].lastClaim */\n      0x03\n      add\n        /* \"staking.sol\":3115:3179  userLevelDeposit[_msgSender][_level].lastClaim = block.timestamp */\n      dup2\n      swap1\n      sstore\n      pop\n        /* \"staking.sol\":3245:3252  _amount */\n      dup6\n        /* \"staking.sol\":3197:3213  userLevelDeposit */\n      0x03\n        /* \"staking.sol\":3197:3225  userLevelDeposit[_msgSender] */\n      0x00\n        /* \"staking.sol\":3214:3224  _msgSender */\n      dup7\n        /* \"staking.sol\":3197:3225  userLevelDeposit[_msgSender] */\n      0xffffffffffffffffffffffffffffffffffffffff\n      and\n      0xffffffffffffffffffffffffffffffffffffffff\n      and\n      dup2\n      mstore\n      0x20\n      add\n      swap1\n      dup2\n      mstore\n      0x20\n      add\n      0x00\n      keccak256\n        /* \"staking.sol\":3197:3233  userLevelDeposit[_msgSender][_level] */\n      0x00\n        /* \"staking.sol\":3226:3232  _level */\n      dup8\n        /* \"staking.sol\":3197:3233  userLevelDeposit[_msgSender][_level] */\n      dup2\n      mstore\n      0x20\n      add\n      swap1\n      dup2\n      mstore\n      0x20\n      add\n      0x00\n      keccak256\n        /* \"staking.sol\":3197:3241  userLevelDeposit[_msgSender][_level].balance */\n      0x00\n      add\n      0x00\n        /* \"staking.sol\":3197:3252  userLevelDeposit[_msgSender][_level].balance -= _amount */\n      dup3\n      dup3\n      sload\n      tag_138\n      swap2\n      swap1\n      tag_139\n      jump\t// in\n    tag_138:\n      swap3\n      pop\n      pop\n      dup2\n      swap1\n      sstore\n      pop\n        /* \"staking.sol\":3263:3276  acceptedToken */\n      0x01\n      0x00\n      swap1\n      sload\n      swap1\n      0x0100\n      exp\n      swap1\n      div\n      0xffffffffffffffffffffffffffffffffffffffff\n      and\n        /* \"staking.sol\":3263:3285  acceptedToken.transfer */\n      0xffffffffffffffffffffffffffffffffffffffff\n      and\n      0xa9059cbb\n        /* \"staking.sol\":3286:3296  _msgSender */\n      dup6\n        /* \"staking.sol\":3315:3326  withdrawFee */\n      dup4\n        /* \"staking.sol\":3298:3312  withdrawAmount */\n      dup6\n        /* \"staking.sol\":3298:3326  withdrawAmount - withdrawFee */\n      tag_140\n      swap2\n      swap1\n      tag_139\n      jump\t// in\n    tag_140:\n        /* \"staking.sol\":3263:3327  acceptedToken.transfer(_msgSender, withdrawAmount - withdrawFee) */\n      mload(0x40)\n      dup4\n      0xffffffff\n      and\n      0xe0\n      shl\n      dup2\n      mstore\n      0x04\n      add\n      tag_141\n      swap3\n      swap2\n      swap1\n      tag_111\n      jump\t// in\n    tag_141:\n      0x20\n      mload(0x40)\n      dup1\n      dup4\n      sub\n      dup2\n      0x00\n      dup8\n      dup1\n      extcodesize\n      iszero\n      dup1\n      iszero\n      tag_142\n      jumpi\n      0x00\n      dup1\n      revert\n    tag_142:\n      pop\n      gas\n      call\n      iszero\n      dup1\n      iszero\n      tag_144\n      jumpi\n      returndatasize\n      0x00\n      dup1\n      returndatacopy\n      revert(0x00, returndatasize)\n    tag_144:\n      pop\n      pop\n      pop\n      pop\n      mload(0x40)\n      returndatasize\n      not(0x1f)\n      0x1f\n      dup3\n      add\n      and\n      dup3\n      add\n      dup1\n      0x40\n      mstore\n      pop\n      dup2\n      add\n      swap1\n      tag_145\n      swap2\n      swap1\n      tag_116\n      jump\t// in\n    tag_145:\n      pop\n        /* \"staking.sol\":3343:3375  Withdraw(_msgSender, 0, _amount) */\n      0xf279e6a1f5e320cca91135676d9cb6e44ca8a08c0b88342bcdb1144f6511b568\n        /* \"staking.sol\":3352:3362  _msgSender */\n      dup5\n        /* \"staking.sol\":3364:3365  0 */\n      0x00\n        /* \"staking.sol\":3367:3374  _amount */\n      dup9\n        /* \"staking.sol\":3343:3375  Withdraw(_msgSender, 0, _amount) */\n      mload(0x40)\n      tag_146\n      swap4\n      swap3\n      swap2\n      swap1\n      tag_147\n      jump\t// in\n    tag_146:\n      mload(0x40)\n      dup1\n      swap2\n      sub\n      swap1\n      log1\n        /* \"staking.sol\":2662:3382  {... */\n      pop\n      pop\n      pop\n      pop\n        /* \"staking.sol\":2602:3382  function withdraw (uint256 _amount, uint256 _level) public  {... */\n      pop\n      pop\n      jump\t// out\n        /* \"staking.sol\":317:344  IERC20 public acceptedToken */\n    tag_46:\n      0x01\n      0x00\n      swap1\n      sload\n      swap1\n      0x0100\n      exp\n      swap1\n      div\n      0xffffffffffffffffffffffffffffffffffffffff\n      and\n      dup2\n      jump\t// out\n        /* \"@openzeppelin/contracts/security/Pausable.sol\":1098:1182  function paused() public view virtual returns (bool) {... */\n    tag_50:\n        /* \"@openzeppelin/contracts/security/Pausable.sol\":1145:1149  bool */\n      0x00\n        /* \"@openzeppelin/contracts/security/Pausable.sol\":1168:1175  _paused */\n      dup1\n      0x14\n      swap1\n      sload\n      swap1\n      0x0100\n      exp\n      swap1\n      div\n      0xff\n      and\n        /* \"@openzeppelin/contracts/security/Pausable.sol\":1161:1175  return _paused */\n      swap1\n      pop\n        /* \"@openzeppelin/contracts/security/Pausable.sol\":1098:1182  function paused() public view virtual returns (bool) {... */\n      swap1\n      jump\t// out\n        /* \"staking.sol\":4799:5429  function getUserInfo(address _user) external view returns(User memory level0,  User memory level1, User memory level2, User memory level3, uint256 level0Rewards, uint256 level1Rewards, uint256 level2Rewards, uint256 level3Rewards){... */\n    tag_56:\n        /* \"staking.sol\":4857:4875  User memory level0 */\n      tag_149\n      tag_150\n      jump\t// in\n    tag_149:\n        /* \"staking.sol\":4878:4896  User memory level1 */\n      tag_151\n      tag_150\n      jump\t// in\n    tag_151:\n        /* \"staking.sol\":4898:4916  User memory level2 */\n      tag_152\n      tag_150\n      jump\t// in\n    tag_152:\n        /* \"staking.sol\":4918:4936  User memory level3 */\n      tag_153\n      tag_150\n      jump\t// in\n    tag_153:\n        /* \"staking.sol\":4938:4959  uint256 level0Rewards */\n      0x00\n        /* \"staking.sol\":4961:4982  uint256 level1Rewards */\n      dup1\n        /* \"staking.sol\":4984:5005  uint256 level2Rewards */\n      0x00\n        /* \"staking.sol\":5007:5028  uint256 level3Rewards */\n      dup1\n        /* \"staking.sol\":5048:5064  userLevelDeposit */\n      0x03\n        /* \"staking.sol\":5048:5071  userLevelDeposit[_user] */\n      0x00\n        /* \"staking.sol\":5065:5070  _user */\n      dup11\n        /* \"staking.sol\":5048:5071  userLevelDeposit[_user] */\n      0xffffffffffffffffffffffffffffffffffffffff\n      and\n      0xffffffffffffffffffffffffffffffffffffffff\n      and\n      dup2\n      mstore\n      0x20\n      add\n      swap1\n      dup2\n      mstore\n      0x20\n      add\n      0x00\n      keccak256\n        /* \"staking.sol\":5048:5074  userLevelDeposit[_user][0] */\n      0x00\n        /* \"staking.sol\":5072:5073  0 */\n      dup1\n        /* \"staking.sol\":5048:5074  userLevelDeposit[_user][0] */\n      dup2\n      mstore\n      0x20\n      add\n      swap1\n      dup2\n      mstore\n      0x20\n      add\n      0x00\n      keccak256\n        /* \"staking.sol\":5039:5074  level0 = userLevelDeposit[_user][0] */\n      mload(0x40)\n      dup1\n      0xa0\n      add\n      0x40\n      mstore\n      swap1\n      dup2\n      0x00\n      dup3\n      add\n      sload\n      dup2\n      mstore\n      0x20\n      add\n      0x01\n      dup3\n      add\n      sload\n      dup2\n      mstore\n      0x20\n      add\n      0x02\n      dup3\n      add\n      sload\n      dup2\n      mstore\n      0x20\n      add\n      0x03\n      dup3\n      add\n      sload\n      dup2\n      mstore\n      0x20\n      add\n      0x04\n      dup3\n      add\n      sload\n      dup2\n      mstore\n      pop\n      pop\n      swap8\n      pop\n        /* \"staking.sol\":5093:5109  userLevelDeposit */\n      0x03\n        /* \"staking.sol\":5093:5116  userLevelDeposit[_user] */\n      0x00\n        /* \"staking.sol\":5110:5115  _user */\n      dup11\n        /* \"staking.sol\":5093:5116  userLevelDeposit[_user] */\n      0xffffffffffffffffffffffffffffffffffffffff\n      and\n      0xffffffffffffffffffffffffffffffffffffffff\n      and\n      dup2\n      mstore\n      0x20\n      add\n      swap1\n      dup2\n      mstore\n      0x20\n      add\n      0x00\n      keccak256\n        /* \"staking.sol\":5093:5119  userLevelDeposit[_user][1] */\n      0x00\n        /* \"staking.sol\":5117:5118  1 */\n      0x01\n        /* \"staking.sol\":5093:5119  userLevelDeposit[_user][1] */\n      dup2\n      mstore\n      0x20\n      add\n      swap1\n      dup2\n      mstore\n      0x20\n      add\n      0x00\n      keccak256\n        /* \"staking.sol\":5084:5119  level1 = userLevelDeposit[_user][1] */\n      mload(0x40)\n      dup1\n      0xa0\n      add\n      0x40\n      mstore\n      swap1\n      dup2\n      0x00\n      dup3\n      add\n      sload\n      dup2\n      mstore\n      0x20\n      add\n      0x01\n      dup3\n      add\n      sload\n      dup2\n      mstore\n      0x20\n      add\n      0x02\n      dup3\n      add\n      sload\n      dup2\n      mstore\n      0x20\n      add\n      0x03\n      dup3\n      add\n      sload\n      dup2\n      mstore\n      0x20\n      add\n      0x04\n      dup3\n      add\n      sload\n      dup2\n      mstore\n      pop\n      pop\n      swap7\n      pop\n        /* \"staking.sol\":5138:5154  userLevelDeposit */\n      0x03\n        /* \"staking.sol\":5138:5161  userLevelDeposit[_user] */\n      0x00\n        /* \"staking.sol\":5155:5160  _user */\n      dup11\n        /* \"staking.sol\":5138:5161  userLevelDeposit[_user] */\n      0xffffffffffffffffffffffffffffffffffffffff\n      and\n      0xffffffffffffffffffffffffffffffffffffffff\n      and\n      dup2\n      mstore\n      0x20\n      add\n      swap1\n      dup2\n      mstore\n      0x20\n      add\n      0x00\n      keccak256\n        /* \"staking.sol\":5138:5164  userLevelDeposit[_user][2] */\n      0x00\n        /* \"staking.sol\":5162:5163  2 */\n      0x02\n        /* \"staking.sol\":5138:5164  userLevelDeposit[_user][2] */\n      dup2\n      mstore\n      0x20\n      add\n      swap1\n      dup2\n      mstore\n      0x20\n      add\n      0x00\n      keccak256\n        /* \"staking.sol\":5129:5164  level2 = userLevelDeposit[_user][2] */\n      mload(0x40)\n      dup1\n      0xa0\n      add\n      0x40\n      mstore\n      swap1\n      dup2\n      0x00\n      dup3\n      add\n      sload\n      dup2\n      mstore\n      0x20\n      add\n      0x01\n      dup3\n      add\n      sload\n      dup2\n      mstore\n      0x20\n      add\n      0x02\n      dup3\n      add\n      sload\n      dup2\n      mstore\n      0x20\n      add\n      0x03\n      dup3\n      add\n      sload\n      dup2\n      mstore\n      0x20\n      add\n      0x04\n      dup3\n      add\n      sload\n      dup2\n      mstore\n      pop\n      pop\n      swap6\n      pop\n        /* \"staking.sol\":5185:5201  userLevelDeposit */\n      0x03\n        /* \"staking.sol\":5185:5208  userLevelDeposit[_user] */\n      0x00\n        /* \"staking.sol\":5202:5207  _user */\n      dup11\n        /* \"staking.sol\":5185:5208  userLevelDeposit[_user] */\n      0xffffffffffffffffffffffffffffffffffffffff\n      and\n      0xffffffffffffffffffffffffffffffffffffffff\n      and\n      dup2\n      mstore\n      0x20\n      add\n      swap1\n      dup2\n      mstore\n      0x20\n      add\n      0x00\n      keccak256\n        /* \"staking.sol\":5185:5211  userLevelDeposit[_user][3] */\n      0x00\n        /* \"staking.sol\":5209:5210  3 */\n      0x03\n        /* \"staking.sol\":5185:5211  userLevelDeposit[_user][3] */\n      dup2\n      mstore\n      0x20\n      add\n      swap1\n      dup2\n      mstore\n      0x20\n      add\n      0x00\n      keccak256\n        /* \"staking.sol\":5176:5211  level3 = userLevelDeposit[_user][3] */\n      mload(0x40)\n      dup1\n      0xa0\n      add\n      0x40\n      mstore\n      swap1\n      dup2\n      0x00\n      dup3\n      add\n      sload\n      dup2\n      mstore\n      0x20\n      add\n      0x01\n      dup3\n      add\n      sload\n      dup2\n      mstore\n      0x20\n      add\n      0x02\n      dup3\n      add\n      sload\n      dup2\n      mstore\n      0x20\n      add\n      0x03\n      dup3\n      add\n      sload\n      dup2\n      mstore\n      0x20\n      add\n      0x04\n      dup3\n      add\n      sload\n      dup2\n      mstore\n      pop\n      pop\n      swap5\n      pop\n        /* \"staking.sol\":5240:5266  calculateRewards(_user, 0) */\n      tag_155\n        /* \"staking.sol\":5257:5262  _user */\n      dup10\n        /* \"staking.sol\":5264:5265  0 */\n      0x00\n        /* \"staking.sol\":5240:5256  calculateRewards */\n      tag_77\n        /* \"staking.sol\":5240:5266  calculateRewards(_user, 0) */\n      jump\t// in\n    tag_155:\n        /* \"staking.sol\":5224:5266  level0Rewards = calculateRewards(_user, 0) */\n      swap4\n      pop\n        /* \"staking.sol\":5292:5318  calculateRewards(_user, 1) */\n      tag_156\n        /* \"staking.sol\":5309:5314  _user */\n      dup10\n        /* \"staking.sol\":5316:5317  1 */\n      0x01\n        /* \"staking.sol\":5292:5308  calculateRewards */\n      tag_77\n        /* \"staking.sol\":5292:5318  calculateRewards(_user, 1) */\n      jump\t// in\n    tag_156:\n        /* \"staking.sol\":5276:5318  level1Rewards = calculateRewards(_user, 1) */\n      swap3\n      pop\n        /* \"staking.sol\":5344:5370  calculateRewards(_user, 2) */\n      tag_157\n        /* \"staking.sol\":5361:5366  _user */\n      dup10\n        /* \"staking.sol\":5368:5369  2 */\n      0x02\n        /* \"staking.sol\":5344:5360  calculateRewards */\n      tag_77\n        /* \"staking.sol\":5344:5370  calculateRewards(_user, 2) */\n      jump\t// in\n    tag_157:\n        /* \"staking.sol\":5328:5370  level2Rewards = calculateRewards(_user, 2) */\n      swap2\n      pop\n        /* \"staking.sol\":5396:5422  calculateRewards(_user, 3) */\n      tag_158\n        /* \"staking.sol\":5413:5418  _user */\n      dup10\n        /* \"staking.sol\":5420:5421  3 */\n      0x03\n        /* \"staking.sol\":5396:5412  calculateRewards */\n      tag_77\n        /* \"staking.sol\":5396:5422  calculateRewards(_user, 3) */\n      jump\t// in\n    tag_158:\n        /* \"staking.sol\":5380:5422  level3Rewards = calculateRewards(_user, 3) */\n      swap1\n      pop\n        /* \"staking.sol\":4799:5429  function getUserInfo(address _user) external view returns(User memory level0,  User memory level1, User memory level2, User memory level3, uint256 level0Rewards, uint256 level1Rewards, uint256 level2Rewards, uint256 level3Rewards){... */\n      swap2\n      swap4\n      swap6\n      swap8\n      pop\n      swap2\n      swap4\n      swap6\n      swap8\n      jump\t// out\n        /* \"@openzeppelin/contracts/access/Ownable.sol\":1668:1769  function renounceOwnership() public virtual onlyOwner {... */\n    tag_60:\n        /* \"@openzeppelin/contracts/access/Ownable.sol\":1259:1271  _msgSender() */\n      tag_160\n        /* \"@openzeppelin/contracts/access/Ownable.sol\":1259:1269  _msgSender */\n      tag_97\n        /* \"@openzeppelin/contracts/access/Ownable.sol\":1259:1271  _msgSender() */\n      jump\t// in\n    tag_160:\n        /* \"@openzeppelin/contracts/access/Ownable.sol\":1248:1271  owner() == _msgSender() */\n      0xffffffffffffffffffffffffffffffffffffffff\n      and\n        /* \"@openzeppelin/contracts/access/Ownable.sol\":1248:1255  owner() */\n      tag_161\n        /* \"@openzeppelin/contracts/access/Ownable.sol\":1248:1253  owner */\n      tag_66\n        /* \"@openzeppelin/contracts/access/Ownable.sol\":1248:1255  owner() */\n      jump\t// in\n    tag_161:\n        /* \"@openzeppelin/contracts/access/Ownable.sol\":1248:1271  owner() == _msgSender() */\n      0xffffffffffffffffffffffffffffffffffffffff\n      and\n      eq\n        /* \"@openzeppelin/contracts/access/Ownable.sol\":1240:1308  require(owner() == _msgSender(), \"Ownable: caller is not the owner\") */\n      tag_162\n      jumpi\n      mload(0x40)\n      0x08c379a000000000000000000000000000000000000000000000000000000000\n      dup2\n      mstore\n      0x04\n      add\n      tag_163\n      swap1\n      tag_101\n      jump\t// in\n    tag_163:\n      mload(0x40)\n      dup1\n      swap2\n      sub\n      swap1\n      revert\n    tag_162:\n        /* \"@openzeppelin/contracts/access/Ownable.sol\":1732:1762  _transferOwnership(address(0)) */\n      tag_165\n        /* \"@openzeppelin/contracts/access/Ownable.sol\":1759:1760  0 */\n      0x00\n        /* \"@openzeppelin/contracts/access/Ownable.sol\":1732:1750  _transferOwnership */\n      tag_166\n        /* \"@openzeppelin/contracts/access/Ownable.sol\":1732:1762  _transferOwnership(address(0)) */\n      jump\t// in\n    tag_165:\n        /* \"@openzeppelin/contracts/access/Ownable.sol\":1668:1769  function renounceOwnership() public virtual onlyOwner {... */\n      jump\t// out\n        /* \"staking.sol\":1750:1810  function pause () public onlyOwner {... */\n    tag_62:\n        /* \"@openzeppelin/contracts/access/Ownable.sol\":1259:1271  _msgSender() */\n      tag_168\n        /* \"@openzeppelin/contracts/access/Ownable.sol\":1259:1269  _msgSender */\n      tag_97\n        /* \"@openzeppelin/contracts/access/Ownable.sol\":1259:1271  _msgSender() */\n      jump\t// in\n    tag_168:\n        /* \"@openzeppelin/contracts/access/Ownable.sol\":1248:1271  owner() == _msgSender() */\n      0xffffffffffffffffffffffffffffffffffffffff\n      and\n        /* \"@openzeppelin/contracts/access/Ownable.sol\":1248:1255  owner() */\n      tag_169\n        /* \"@openzeppelin/contracts/access/Ownable.sol\":1248:1253  owner */\n      tag_66\n        /* \"@openzeppelin/contracts/access/Ownable.sol\":1248:1255  owner() */\n      jump\t// in\n    tag_169:\n        /* \"@openzeppelin/contracts/access/Ownable.sol\":1248:1271  owner() == _msgSender() */\n      0xffffffffffffffffffffffffffffffffffffffff\n      and\n      eq\n        /* \"@openzeppelin/contracts/access/Ownable.sol\":1240:1308  require(owner() == _msgSender(), \"Ownable: caller is not the owner\") */\n      tag_170\n      jumpi\n      mload(0x40)\n      0x08c379a000000000000000000000000000000000000000000000000000000000\n      dup2\n      mstore\n      0x04\n      add\n      tag_171\n      swap1\n      tag_101\n      jump\t// in\n    tag_171:\n      mload(0x40)\n      dup1\n      swap2\n      sub\n      swap1\n      revert\n    tag_170:\n        /* \"staking.sol\":1795:1803  _pause() */\n      tag_173\n        /* \"staking.sol\":1795:1801  _pause */\n      tag_174\n        /* \"staking.sol\":1795:1803  _pause() */\n      jump\t// in\n    tag_173:\n        /* \"staking.sol\":1750:1810  function pause () public onlyOwner {... */\n      jump\t// out\n        /* \"staking.sol\":6022:6158  function withdrawTokens() external onlyOwner {... */\n    tag_64:\n        /* \"@openzeppelin/contracts/access/Ownable.sol\":1259:1271  _msgSender() */\n      tag_176\n        /* \"@openzeppelin/contracts/access/Ownable.sol\":1259:1269  _msgSender */\n      tag_97\n        /* \"@openzeppelin/contracts/access/Ownable.sol\":1259:1271  _msgSender() */\n      jump\t// in\n    tag_176:\n        /* \"@openzeppelin/contracts/access/Ownable.sol\":1248:1271  owner() == _msgSender() */\n      0xffffffffffffffffffffffffffffffffffffffff\n      and\n        /* \"@openzeppelin/contracts/access/Ownable.sol\":1248:1255  owner() */\n      tag_177\n        /* \"@openzeppelin/contracts/access/Ownable.sol\":1248:1253  owner */\n      tag_66\n        /* \"@openzeppelin/contracts/access/Ownable.sol\":1248:1255  owner() */\n      jump\t// in\n    tag_177:\n        /* \"@openzeppelin/contracts/access/Ownable.sol\":1248:1271  owner() == _msgSender() */\n      0xffffffffffffffffffffffffffffffffffffffff\n      and\n      eq\n        /* \"@openzeppelin/contracts/access/Ownable.sol\":1240:1308  require(owner() == _msgSender(), \"Ownable: caller is not the owner\") */\n      tag_178\n      jumpi\n      mload(0x40)\n      0x08c379a000000000000000000000000000000000000000000000000000000000\n      dup2\n      mstore\n      0x04\n      add\n      tag_179\n      swap1\n      tag_101\n      jump\t// in\n    tag_179:\n      mload(0x40)\n      dup1\n      swap2\n      sub\n      swap1\n      revert\n    tag_178:\n        /* \"staking.sol\":6077:6090  acceptedToken */\n      0x01\n      0x00\n      swap1\n      sload\n      swap1\n      0x0100\n      exp\n      swap1\n      div\n      0xffffffffffffffffffffffffffffffffffffffff\n      and\n        /* \"staking.sol\":6077:6099  acceptedToken.transfer */\n      0xffffffffffffffffffffffffffffffffffffffff\n      and\n      0xa9059cbb\n        /* \"staking.sol\":6100:6110  msg.sender */\n      caller\n        /* \"staking.sol\":6112:6125  acceptedToken */\n      0x01\n      0x00\n      swap1\n      sload\n      swap1\n      0x0100\n      exp\n      swap1\n      div\n      0xffffffffffffffffffffffffffffffffffffffff\n      and\n        /* \"staking.sol\":6112:6135  acceptedToken.balanceOf */\n      0xffffffffffffffffffffffffffffffffffffffff\n      and\n      0x70a08231\n        /* \"staking.sol\":6144:6148  this */\n      address\n        /* \"staking.sol\":6112:6150  acceptedToken.balanceOf(address(this)) */\n      mload(0x40)\n      dup3\n      0xffffffff\n      and\n      0xe0\n      shl\n      dup2\n      mstore\n      0x04\n      add\n      tag_181\n      swap2\n      swap1\n      tag_68\n      jump\t// in\n    tag_181:\n      0x20\n      mload(0x40)\n      dup1\n      dup4\n      sub\n      dup2\n      dup7\n      dup1\n      extcodesize\n      iszero\n      dup1\n      iszero\n      tag_182\n      jumpi\n      0x00\n      dup1\n      revert\n    tag_182:\n      pop\n      gas\n      staticcall\n      iszero\n      dup1\n      iszero\n      tag_184\n      jumpi\n      returndatasize\n      0x00\n      dup1\n      returndatacopy\n      revert(0x00, returndatasize)\n    tag_184:\n      pop\n      pop\n      pop\n      pop\n      mload(0x40)\n      returndatasize\n      not(0x1f)\n      0x1f\n      dup3\n      add\n      and\n      dup3\n      add\n      dup1\n      0x40\n      mstore\n      pop\n      dup2\n      add\n      swap1\n      tag_185\n      swap2\n      swap1\n      tag_186\n      jump\t// in\n    tag_185:\n        /* \"staking.sol\":6077:6151  acceptedToken.transfer(msg.sender, acceptedToken.balanceOf(address(this))) */\n      mload(0x40)\n      dup4\n      0xffffffff\n      and\n      0xe0\n      shl\n      dup2\n      mstore\n      0x04\n      add\n      tag_187\n      swap3\n      swap2\n      swap1\n      tag_111\n      jump\t// in\n    tag_187:\n      0x20\n      mload(0x40)\n      dup1\n      dup4\n      sub\n      dup2\n      0x00\n      dup8\n      dup1\n      extcodesize\n      iszero\n      dup1\n      iszero\n      tag_188\n      jumpi\n      0x00\n      dup1\n      revert\n    tag_188:\n      pop\n      gas\n      call\n      iszero\n      dup1\n      iszero\n      tag_190\n      jumpi\n      returndatasize\n      0x00\n      dup1\n      returndatacopy\n      revert(0x00, returndatasize)\n    tag_190:\n      pop\n      pop\n      pop\n      pop\n      mload(0x40)\n      returndatasize\n      not(0x1f)\n      0x1f\n      dup3\n      add\n      and\n      dup3\n      add\n      dup1\n      0x40\n      mstore\n      pop\n      dup2\n      add\n      swap1\n      tag_191\n      swap2\n      swap1\n      tag_116\n      jump\t// in\n    tag_191:\n      pop\n        /* \"staking.sol\":6022:6158  function withdrawTokens() external onlyOwner {... */\n      jump\t// out\n        /* \"@openzeppelin/contracts/access/Ownable.sol\":1036:1121  function owner() public view virtual returns (address) {... */\n    tag_66:\n        /* \"@openzeppelin/contracts/access/Ownable.sol\":1082:1089  address */\n      0x00\n        /* \"@openzeppelin/contracts/access/Ownable.sol\":1108:1114  _owner */\n      dup1\n      0x00\n      swap1\n      sload\n      swap1\n      0x0100\n      exp\n      swap1\n      div\n      0xffffffffffffffffffffffffffffffffffffffff\n      and\n        /* \"@openzeppelin/contracts/access/Ownable.sol\":1101:1114  return _owner */\n      swap1\n      pop\n        /* \"@openzeppelin/contracts/access/Ownable.sol\":1036:1121  function owner() public view virtual returns (address) {... */\n      swap1\n      jump\t// out\n        /* \"staking.sol\":3880:4318  function compound (uint256 _level) external{... */\n    tag_71:\n        /* \"staking.sol\":3933:3951  address _msgSender */\n      0x00\n        /* \"staking.sol\":3954:3964  msg.sender */\n      caller\n        /* \"staking.sol\":3933:3964  address _msgSender = msg.sender */\n      swap1\n      pop\n        /* \"staking.sol\":4029:4030  0 */\n      0x00\n        /* \"staking.sol\":3982:3998  userLevelDeposit */\n      0x03\n        /* \"staking.sol\":3982:4010  userLevelDeposit[_msgSender] */\n      0x00\n        /* \"staking.sol\":3999:4009  _msgSender */\n      dup4\n        /* \"staking.sol\":3982:4010  userLevelDeposit[_msgSender] */\n      0xffffffffffffffffffffffffffffffffffffffff\n      and\n      0xffffffffffffffffffffffffffffffffffffffff\n      and\n      dup2\n      mstore\n      0x20\n      add\n      swap1\n      dup2\n      mstore\n      0x20\n      add\n      0x00\n      keccak256\n        /* \"staking.sol\":3982:4018  userLevelDeposit[_msgSender][_level] */\n      0x00\n        /* \"staking.sol\":4011:4017  _level */\n      dup5\n        /* \"staking.sol\":3982:4018  userLevelDeposit[_msgSender][_level] */\n      dup2\n      mstore\n      0x20\n      add\n      swap1\n      dup2\n      mstore\n      0x20\n      add\n      0x00\n      keccak256\n        /* \"staking.sol\":3982:4026  userLevelDeposit[_msgSender][_level].balance */\n      0x00\n      add\n      sload\n        /* \"staking.sol\":3982:4030  userLevelDeposit[_msgSender][_level].balance > 0 */\n      gt\n        /* \"staking.sol\":3974:4052  require(userLevelDeposit[_msgSender][_level].balance > 0, \"No active deposit\") */\n      tag_194\n      jumpi\n      mload(0x40)\n      0x08c379a000000000000000000000000000000000000000000000000000000000\n      dup2\n      mstore\n      0x04\n      add\n      tag_195\n      swap1\n      tag_106\n      jump\t// in\n    tag_195:\n      mload(0x40)\n      dup1\n      swap2\n      sub\n      swap1\n      revert\n    tag_194:\n        /* \"staking.sol\":4063:4078  uint256 rewards */\n      0x00\n        /* \"staking.sol\":4081:4117  calculateRewards(_msgSender, _level) */\n      tag_196\n        /* \"staking.sol\":4098:4108  _msgSender */\n      dup3\n        /* \"staking.sol\":4110:4116  _level */\n      dup5\n        /* \"staking.sol\":4081:4097  calculateRewards */\n      tag_77\n        /* \"staking.sol\":4081:4117  calculateRewards(_msgSender, _level) */\n      jump\t// in\n    tag_196:\n        /* \"staking.sol\":4063:4117  uint256 rewards = calculateRewards(_msgSender, _level) */\n      swap1\n      pop\n        /* \"staking.sol\":4176:4183  rewards */\n      dup1\n        /* \"staking.sol\":4128:4144  userLevelDeposit */\n      0x03\n        /* \"staking.sol\":4128:4156  userLevelDeposit[_msgSender] */\n      0x00\n        /* \"staking.sol\":4145:4155  _msgSender */\n      dup5\n        /* \"staking.sol\":4128:4156  userLevelDeposit[_msgSender] */\n      0xffffffffffffffffffffffffffffffffffffffff\n      and\n      0xffffffffffffffffffffffffffffffffffffffff\n      and\n      dup2\n      mstore\n      0x20\n      add\n      swap1\n      dup2\n      mstore\n      0x20\n      add\n      0x00\n      keccak256\n        /* \"staking.sol\":4128:4164  userLevelDeposit[_msgSender][_level] */\n      0x00\n        /* \"staking.sol\":4157:4163  _level */\n      dup6\n        /* \"staking.sol\":4128:4164  userLevelDeposit[_msgSender][_level] */\n      dup2\n      mstore\n      0x20\n      add\n      swap1\n      dup2\n      mstore\n      0x20\n      add\n      0x00\n      keccak256\n        /* \"staking.sol\":4128:4172  userLevelDeposit[_msgSender][_level].balance */\n      0x00\n      add\n      0x00\n        /* \"staking.sol\":4128:4183  userLevelDeposit[_msgSender][_level].balance += rewards */\n      dup3\n      dup3\n      sload\n      tag_197\n      swap2\n      swap1\n      tag_109\n      jump\t// in\n    tag_197:\n      swap3\n      pop\n      pop\n      dup2\n      swap1\n      sstore\n      pop\n        /* \"staking.sol\":4242:4257  block.timestamp */\n      timestamp\n        /* \"staking.sol\":4193:4209  userLevelDeposit */\n      0x03\n        /* \"staking.sol\":4193:4221  userLevelDeposit[_msgSender] */\n      0x00\n        /* \"staking.sol\":4210:4220  _msgSender */\n      dup5\n        /* \"staking.sol\":4193:4221  userLevelDeposit[_msgSender] */\n      0xffffffffffffffffffffffffffffffffffffffff\n      and\n      0xffffffffffffffffffffffffffffffffffffffff\n      and\n      dup2\n      mstore\n      0x20\n      add\n      swap1\n      dup2\n      mstore\n      0x20\n      add\n      0x00\n      keccak256\n        /* \"staking.sol\":4193:4229  userLevelDeposit[_msgSender][_level] */\n      0x00\n        /* \"staking.sol\":4222:4228  _level */\n      dup6\n        /* \"staking.sol\":4193:4229  userLevelDeposit[_msgSender][_level] */\n      dup2\n      mstore\n      0x20\n      add\n      swap1\n      dup2\n      mstore\n      0x20\n      add\n      0x00\n      keccak256\n        /* \"staking.sol\":4193:4239  userLevelDeposit[_msgSender][_level].lastClaim */\n      0x03\n      add\n        /* \"staking.sol\":4193:4257  userLevelDeposit[_msgSender][_level].lastClaim = block.timestamp */\n      dup2\n      swap1\n      sstore\n      pop\n        /* \"staking.sol\":4273:4311  Compound (_msgSender, _level, rewards) */\n      0x0e311a2c6dbfb0153ec3a8a5bdca09070b3e5f60768fdc10a20453f38d186873\n        /* \"staking.sol\":4283:4293  _msgSender */\n      dup3\n        /* \"staking.sol\":4295:4301  _level */\n      dup5\n        /* \"staking.sol\":4303:4310  rewards */\n      dup4\n        /* \"staking.sol\":4273:4311  Compound (_msgSender, _level, rewards) */\n      mload(0x40)\n      tag_198\n      swap4\n      swap3\n      swap2\n      swap1\n      tag_118\n      jump\t// in\n    tag_198:\n      mload(0x40)\n      dup1\n      swap2\n      sub\n      swap1\n      log1\n        /* \"staking.sol\":3923:4318  {... */\n      pop\n      pop\n        /* \"staking.sol\":3880:4318  function compound (uint256 _level) external{... */\n      pop\n      jump\t// out\n        /* \"staking.sol\":5905:6016  function changeEarlyWithdrawFee(uint256 _newFee) external onlyOwner {... */\n    tag_74:\n        /* \"@openzeppelin/contracts/access/Ownable.sol\":1259:1271  _msgSender() */\n      tag_200\n        /* \"@openzeppelin/contracts/access/Ownable.sol\":1259:1269  _msgSender */\n      tag_97\n        /* \"@openzeppelin/contracts/access/Ownable.sol\":1259:1271  _msgSender() */\n      jump\t// in\n    tag_200:\n        /* \"@openzeppelin/contracts/access/Ownable.sol\":1248:1271  owner() == _msgSender() */\n      0xffffffffffffffffffffffffffffffffffffffff\n      and\n        /* \"@openzeppelin/contracts/access/Ownable.sol\":1248:1255  owner() */\n      tag_201\n        /* \"@openzeppelin/contracts/access/Ownable.sol\":1248:1253  owner */\n      tag_66\n        /* \"@openzeppelin/contracts/access/Ownable.sol\":1248:1255  owner() */\n      jump\t// in\n    tag_201:\n        /* \"@openzeppelin/contracts/access/Ownable.sol\":1248:1271  owner() == _msgSender() */\n      0xffffffffffffffffffffffffffffffffffffffff\n      and\n      eq\n        /* \"@openzeppelin/contracts/access/Ownable.sol\":1240:1308  require(owner() == _msgSender(), \"Ownable: caller is not the owner\") */\n      tag_202\n      jumpi\n      mload(0x40)\n      0x08c379a000000000000000000000000000000000000000000000000000000000\n      dup2\n      mstore\n      0x04\n      add\n      tag_203\n      swap1\n      tag_101\n      jump\t// in\n    tag_203:\n      mload(0x40)\n      dup1\n      swap2\n      sub\n      swap1\n      revert\n    tag_202:\n        /* \"staking.sol\":6002:6009  _newFee */\n      dup1\n        /* \"staking.sol\":5983:5999  earlyWithdrawFee */\n      0x02\n        /* \"staking.sol\":5983:6009  earlyWithdrawFee = _newFee */\n      dup2\n      swap1\n      sstore\n      pop\n        /* \"staking.sol\":5905:6016  function changeEarlyWithdrawFee(uint256 _newFee) external onlyOwner {... */\n      pop\n      jump\t// out\n        /* \"staking.sol\":4324:4789  function calculateRewards (address _user, uint256 _level) public view returns (uint256){... */\n    tag_77:\n        /* \"staking.sol\":4403:4410  uint256 */\n      0x00\n        /* \"staking.sol\":4421:4439  uint256 timeStaked */\n      dup1\n        /* \"staking.sol\":4460:4476  userLevelDeposit */\n      0x03\n        /* \"staking.sol\":4460:4483  userLevelDeposit[_user] */\n      0x00\n        /* \"staking.sol\":4477:4482  _user */\n      dup6\n        /* \"staking.sol\":4460:4483  userLevelDeposit[_user] */\n      0xffffffffffffffffffffffffffffffffffffffff\n      and\n      0xffffffffffffffffffffffffffffffffffffffff\n      and\n      dup2\n      mstore\n      0x20\n      add\n      swap1\n      dup2\n      mstore\n      0x20\n      add\n      0x00\n      keccak256\n        /* \"staking.sol\":4460:4491  userLevelDeposit[_user][_level] */\n      0x00\n        /* \"staking.sol\":4484:4490  _level */\n      dup5\n        /* \"staking.sol\":4460:4491  userLevelDeposit[_user][_level] */\n      dup2\n      mstore\n      0x20\n      add\n      swap1\n      dup2\n      mstore\n      0x20\n      add\n      0x00\n      keccak256\n        /* \"staking.sol\":4460:4501  userLevelDeposit[_user][_level].lastClaim */\n      0x03\n      add\n      sload\n        /* \"staking.sol\":4442:4457  block.timestamp */\n      timestamp\n        /* \"staking.sol\":4442:4501  block.timestamp - userLevelDeposit[_user][_level].lastClaim */\n      tag_206\n      swap2\n      swap1\n      tag_139\n      jump\t// in\n    tag_206:\n        /* \"staking.sol\":4421:4501  uint256 timeStaked = block.timestamp - userLevelDeposit[_user][_level].lastClaim */\n      swap1\n      pop\n        /* \"staking.sol\":4511:4526  uint256 balance */\n      0x00\n        /* \"staking.sol\":4529:4545  userLevelDeposit */\n      0x03\n        /* \"staking.sol\":4529:4552  userLevelDeposit[_user] */\n      0x00\n        /* \"staking.sol\":4546:4551  _user */\n      dup7\n        /* \"staking.sol\":4529:4552  userLevelDeposit[_user] */\n      0xffffffffffffffffffffffffffffffffffffffff\n      and\n      0xffffffffffffffffffffffffffffffffffffffff\n      and\n      dup2\n      mstore\n      0x20\n      add\n      swap1\n      dup2\n      mstore\n      0x20\n      add\n      0x00\n      keccak256\n        /* \"staking.sol\":4529:4560  userLevelDeposit[_user][_level] */\n      0x00\n        /* \"staking.sol\":4553:4559  _level */\n      dup6\n        /* \"staking.sol\":4529:4560  userLevelDeposit[_user][_level] */\n      dup2\n      mstore\n      0x20\n      add\n      swap1\n      dup2\n      mstore\n      0x20\n      add\n      0x00\n      keccak256\n        /* \"staking.sol\":4529:4568  userLevelDeposit[_user][_level].balance */\n      0x00\n      add\n      sload\n        /* \"staking.sol\":4511:4568  uint256 balance = userLevelDeposit[_user][_level].balance */\n      swap1\n      pop\n        /* \"staking.sol\":4579:4590  uint256 APY */\n      0x00\n        /* \"staking.sol\":4593:4602  levelInfo */\n      0x04\n        /* \"staking.sol\":4593:4610  levelInfo[_level] */\n      0x00\n        /* \"staking.sol\":4603:4609  _level */\n      dup7\n        /* \"staking.sol\":4593:4610  levelInfo[_level] */\n      dup2\n      mstore\n      0x20\n      add\n      swap1\n      dup2\n      mstore\n      0x20\n      add\n      0x00\n      keccak256\n        /* \"staking.sol\":4593:4614  levelInfo[_level].APY */\n      0x00\n      add\n      sload\n        /* \"staking.sol\":4579:4614  uint256 APY = levelInfo[_level].APY */\n      swap1\n      pop\n        /* \"staking.sol\":4625:4649  uint256 rewardsPerSecond */\n      0x00\n        /* \"staking.sol\":4680:4688  365 days */\n      0x01e13380\n        /* \"staking.sol\":4671:4676  10000 */\n      0x2710\n        /* \"staking.sol\":4664:4667  APY */\n      dup4\n        /* \"staking.sol\":4654:4661  balance */\n      dup6\n        /* \"staking.sol\":4654:4667  balance * APY */\n      tag_207\n      swap2\n      swap1\n      tag_135\n      jump\t// in\n    tag_207:\n        /* \"staking.sol\":4653:4676  (balance * APY) / 10000 */\n      tag_208\n      swap2\n      swap1\n      tag_137\n      jump\t// in\n    tag_208:\n        /* \"staking.sol\":4652:4688  ((balance * APY) / 10000) / 365 days */\n      tag_209\n      swap2\n      swap1\n      tag_137\n      jump\t// in\n    tag_209:\n        /* \"staking.sol\":4625:4688  uint256 rewardsPerSecond = ((balance * APY) / 10000) / 365 days */\n      swap1\n      pop\n        /* \"staking.sol\":4698:4719  uint256 rewardsEarned */\n      0x00\n        /* \"staking.sol\":4735:4751  rewardsPerSecond */\n      dup2\n        /* \"staking.sol\":4722:4732  timeStaked */\n      dup6\n        /* \"staking.sol\":4722:4751  timeStaked * rewardsPerSecond */\n      tag_210\n      swap2\n      swap1\n      tag_135\n      jump\t// in\n    tag_210:\n        /* \"staking.sol\":4698:4751  uint256 rewardsEarned = timeStaked * rewardsPerSecond */\n      swap1\n      pop\n        /* \"staking.sol\":4769:4782  rewardsEarned */\n      dup1\n        /* \"staking.sol\":4762:4782  return rewardsEarned */\n      swap6\n      pop\n      pop\n      pop\n      pop\n      pop\n      pop\n        /* \"staking.sol\":4324:4789  function calculateRewards (address _user, uint256 _level) public view returns (uint256){... */\n      swap3\n      swap2\n      pop\n      pop\n      jump\t// out\n        /* \"staking.sol\":1891:2596  function deposit (uint256 _amount, uint256 _level) public whenNotPaused {... */\n    tag_82:\n        /* \"@openzeppelin/contracts/security/Pausable.sol\":1412:1420  paused() */\n      tag_212\n        /* \"@openzeppelin/contracts/security/Pausable.sol\":1412:1418  paused */\n      tag_50\n        /* \"@openzeppelin/contracts/security/Pausable.sol\":1412:1420  paused() */\n      jump\t// in\n    tag_212:\n        /* \"@openzeppelin/contracts/security/Pausable.sol\":1411:1420  !paused() */\n      iszero\n        /* \"@openzeppelin/contracts/security/Pausable.sol\":1403:1441  require(!paused(), \"Pausable: paused\") */\n      tag_213\n      jumpi\n      mload(0x40)\n      0x08c379a000000000000000000000000000000000000000000000000000000000\n      dup2\n      mstore\n      0x04\n      add\n      tag_214\n      swap1\n      tag_215\n      jump\t// in\n    tag_214:\n      mload(0x40)\n      dup1\n      swap2\n      sub\n      swap1\n      revert\n    tag_213:\n        /* \"staking.sol\":1973:1991  address _msgSender */\n      0x00\n        /* \"staking.sol\":1994:2004  msg.sender */\n      caller\n        /* \"staking.sol\":1973:2004  address _msgSender = msg.sender */\n      swap1\n      pop\n        /* \"staking.sol\":2022:2035  acceptedToken */\n      0x01\n      0x00\n      swap1\n      sload\n      swap1\n      0x0100\n      exp\n      swap1\n      div\n      0xffffffffffffffffffffffffffffffffffffffff\n      and\n        /* \"staking.sol\":2022:2048  acceptedToken.transferFrom */\n      0xffffffffffffffffffffffffffffffffffffffff\n      and\n      0x23b872dd\n        /* \"staking.sol\":2049:2059  _msgSender */\n      dup3\n        /* \"staking.sol\":2069:2073  this */\n      address\n        /* \"staking.sol\":2076:2083  _amount */\n      dup7\n        /* \"staking.sol\":2022:2084  acceptedToken.transferFrom(_msgSender, address(this), _amount) */\n      mload(0x40)\n      dup5\n      0xffffffff\n      and\n      0xe0\n      shl\n      dup2\n      mstore\n      0x04\n      add\n      tag_217\n      swap4\n      swap3\n      swap2\n      swap1\n      tag_218\n      jump\t// in\n    tag_217:\n      0x20\n      mload(0x40)\n      dup1\n      dup4\n      sub\n      dup2\n      0x00\n      dup8\n      dup1\n      extcodesize\n      iszero\n      dup1\n      iszero\n      tag_219\n      jumpi\n      0x00\n      dup1\n      revert\n    tag_219:\n      pop\n      gas\n      call\n      iszero\n      dup1\n      iszero\n      tag_221\n      jumpi\n      returndatasize\n      0x00\n      dup1\n      returndatacopy\n      revert(0x00, returndatasize)\n    tag_221:\n      pop\n      pop\n      pop\n      pop\n      mload(0x40)\n      returndatasize\n      not(0x1f)\n      0x1f\n      dup3\n      add\n      and\n      dup3\n      add\n      dup1\n      0x40\n      mstore\n      pop\n      dup2\n      add\n      swap1\n      tag_222\n      swap2\n      swap1\n      tag_116\n      jump\t// in\n    tag_222:\n      pop\n        /* \"staking.sol\":2145:2146  0 */\n      0x00\n        /* \"staking.sol\":2098:2114  userLevelDeposit */\n      0x03\n        /* \"staking.sol\":2098:2126  userLevelDeposit[_msgSender] */\n      0x00\n        /* \"staking.sol\":2115:2125  _msgSender */\n      dup4\n        /* \"staking.sol\":2098:2126  userLevelDeposit[_msgSender] */\n      0xffffffffffffffffffffffffffffffffffffffff\n      and\n      0xffffffffffffffffffffffffffffffffffffffff\n      and\n      dup2\n      mstore\n      0x20\n      add\n      swap1\n      dup2\n      mstore\n      0x20\n      add\n      0x00\n      keccak256\n        /* \"staking.sol\":2098:2134  userLevelDeposit[_msgSender][_level] */\n      0x00\n        /* \"staking.sol\":2127:2133  _level */\n      dup5\n        /* \"staking.sol\":2098:2134  userLevelDeposit[_msgSender][_level] */\n      dup2\n      mstore\n      0x20\n      add\n      swap1\n      dup2\n      mstore\n      0x20\n      add\n      0x00\n      keccak256\n        /* \"staking.sol\":2098:2142  userLevelDeposit[_msgSender][_level].balance */\n      0x00\n      add\n      sload\n        /* \"staking.sol\":2098:2146  userLevelDeposit[_msgSender][_level].balance > 0 */\n      gt\n        /* \"staking.sol\":2095:2219  if(userLevelDeposit[_msgSender][_level].balance > 0){... */\n      iszero\n      tag_223\n      jumpi\n        /* \"staking.sol\":2172:2208  calculateRewards(_msgSender, _level) */\n      tag_224\n        /* \"staking.sol\":2189:2199  _msgSender */\n      dup2\n        /* \"staking.sol\":2201:2207  _level */\n      dup4\n        /* \"staking.sol\":2172:2188  calculateRewards */\n      tag_77\n        /* \"staking.sol\":2172:2208  calculateRewards(_msgSender, _level) */\n      jump\t// in\n    tag_224:\n        /* \"staking.sol\":2161:2208  _amount += calculateRewards(_msgSender, _level) */\n      dup4\n      tag_225\n      swap2\n      swap1\n      tag_109\n      jump\t// in\n    tag_225:\n      swap3\n      pop\n        /* \"staking.sol\":2095:2219  if(userLevelDeposit[_msgSender][_level].balance > 0){... */\n    tag_223:\n        /* \"staking.sol\":2277:2284  _amount */\n      dup3\n        /* \"staking.sol\":2229:2245  userLevelDeposit */\n      0x03\n        /* \"staking.sol\":2229:2257  userLevelDeposit[_msgSender] */\n      0x00\n        /* \"staking.sol\":2246:2256  _msgSender */\n      dup4\n        /* \"staking.sol\":2229:2257  userLevelDeposit[_msgSender] */\n      0xffffffffffffffffffffffffffffffffffffffff\n      and\n      0xffffffffffffffffffffffffffffffffffffffff\n      and\n      dup2\n      mstore\n      0x20\n      add\n      swap1\n      dup2\n      mstore\n      0x20\n      add\n      0x00\n      keccak256\n        /* \"staking.sol\":2229:2265  userLevelDeposit[_msgSender][_level] */\n      0x00\n        /* \"staking.sol\":2258:2264  _level */\n      dup5\n        /* \"staking.sol\":2229:2265  userLevelDeposit[_msgSender][_level] */\n      dup2\n      mstore\n      0x20\n      add\n      swap1\n      dup2\n      mstore\n      0x20\n      add\n      0x00\n      keccak256\n        /* \"staking.sol\":2229:2273  userLevelDeposit[_msgSender][_level].balance */\n      0x00\n      add\n      0x00\n        /* \"staking.sol\":2229:2284  userLevelDeposit[_msgSender][_level].balance += _amount */\n      dup3\n      dup3\n      sload\n      tag_226\n      swap2\n      swap1\n      tag_109\n      jump\t// in\n    tag_226:\n      swap3\n      pop\n      pop\n      dup2\n      swap1\n      sstore\n      pop\n        /* \"staking.sol\":2341:2356  block.timestamp */\n      timestamp\n        /* \"staking.sol\":2294:2310  userLevelDeposit */\n      0x03\n        /* \"staking.sol\":2294:2322  userLevelDeposit[_msgSender] */\n      0x00\n        /* \"staking.sol\":2311:2321  _msgSender */\n      dup4\n        /* \"staking.sol\":2294:2322  userLevelDeposit[_msgSender] */\n      0xffffffffffffffffffffffffffffffffffffffff\n      and\n      0xffffffffffffffffffffffffffffffffffffffff\n      and\n      dup2\n      mstore\n      0x20\n      add\n      swap1\n      dup2\n      mstore\n      0x20\n      add\n      0x00\n      keccak256\n        /* \"staking.sol\":2294:2330  userLevelDeposit[_msgSender][_level] */\n      0x00\n        /* \"staking.sol\":2323:2329  _level */\n      dup5\n        /* \"staking.sol\":2294:2330  userLevelDeposit[_msgSender][_level] */\n      dup2\n      mstore\n      0x20\n      add\n      swap1\n      dup2\n      mstore\n      0x20\n      add\n      0x00\n      keccak256\n        /* \"staking.sol\":2294:2338  userLevelDeposit[_msgSender][_level].started */\n      0x02\n      add\n        /* \"staking.sol\":2294:2356  userLevelDeposit[_msgSender][_level].started = block.timestamp */\n      dup2\n      swap1\n      sstore\n      pop\n        /* \"staking.sol\":2415:2430  block.timestamp */\n      timestamp\n        /* \"staking.sol\":2366:2382  userLevelDeposit */\n      0x03\n        /* \"staking.sol\":2366:2394  userLevelDeposit[_msgSender] */\n      0x00\n        /* \"staking.sol\":2383:2393  _msgSender */\n      dup4\n        /* \"staking.sol\":2366:2394  userLevelDeposit[_msgSender] */\n      0xffffffffffffffffffffffffffffffffffffffff\n      and\n      0xffffffffffffffffffffffffffffffffffffffff\n      and\n      dup2\n      mstore\n      0x20\n      add\n      swap1\n      dup2\n      mstore\n      0x20\n      add\n      0x00\n      keccak256\n        /* \"staking.sol\":2366:2402  userLevelDeposit[_msgSender][_level] */\n      0x00\n        /* \"staking.sol\":2395:2401  _level */\n      dup5\n        /* \"staking.sol\":2366:2402  userLevelDeposit[_msgSender][_level] */\n      dup2\n      mstore\n      0x20\n      add\n      swap1\n      dup2\n      mstore\n      0x20\n      add\n      0x00\n      keccak256\n        /* \"staking.sol\":2366:2412  userLevelDeposit[_msgSender][_level].lastClaim */\n      0x03\n      add\n        /* \"staking.sol\":2366:2430  userLevelDeposit[_msgSender][_level].lastClaim = block.timestamp */\n      dup2\n      swap1\n      sstore\n      pop\n        /* \"staking.sol\":2508:2517  levelInfo */\n      0x04\n        /* \"staking.sol\":2508:2525  levelInfo[_level] */\n      0x00\n        /* \"staking.sol\":2518:2524  _level */\n      dup4\n        /* \"staking.sol\":2508:2525  levelInfo[_level] */\n      dup2\n      mstore\n      0x20\n      add\n      swap1\n      dup2\n      mstore\n      0x20\n      add\n      0x00\n      keccak256\n        /* \"staking.sol\":2508:2536  levelInfo[_level].lockPeriod */\n      0x01\n      add\n      sload\n        /* \"staking.sol\":2490:2505  block.timestamp */\n      timestamp\n        /* \"staking.sol\":2490:2536  block.timestamp + levelInfo[_level].lockPeriod */\n      tag_227\n      swap2\n      swap1\n      tag_109\n      jump\t// in\n    tag_227:\n        /* \"staking.sol\":2440:2456  userLevelDeposit */\n      0x03\n        /* \"staking.sol\":2440:2468  userLevelDeposit[_msgSender] */\n      0x00\n        /* \"staking.sol\":2457:2467  _msgSender */\n      dup4\n        /* \"staking.sol\":2440:2468  userLevelDeposit[_msgSender] */\n      0xffffffffffffffffffffffffffffffffffffffff\n      and\n      0xffffffffffffffffffffffffffffffffffffffff\n      and\n      dup2\n      mstore\n      0x20\n      add\n      swap1\n      dup2\n      mstore\n      0x20\n      add\n      0x00\n      keccak256\n        /* \"staking.sol\":2440:2476  userLevelDeposit[_msgSender][_level] */\n      0x00\n        /* \"staking.sol\":2469:2475  _level */\n      dup5\n        /* \"staking.sol\":2440:2476  userLevelDeposit[_msgSender][_level] */\n      dup2\n      mstore\n      0x20\n      add\n      swap1\n      dup2\n      mstore\n      0x20\n      add\n      0x00\n      keccak256\n        /* \"staking.sol\":2440:2487  userLevelDeposit[_msgSender][_level].unlockTime */\n      0x04\n      add\n        /* \"staking.sol\":2440:2536  userLevelDeposit[_msgSender][_level].unlockTime = block.timestamp + levelInfo[_level].lockPeriod */\n      dup2\n      swap1\n      sstore\n      pop\n        /* \"staking.sol\":2552:2589  Deposit (_msgSender, _level, _amount) */\n      0x90890809c654f11d6e72a28fa60149770a0d11ec6c92319d6ceb2bb0a4ea1a15\n        /* \"staking.sol\":2561:2571  _msgSender */\n      dup2\n        /* \"staking.sol\":2573:2579  _level */\n      dup4\n        /* \"staking.sol\":2581:2588  _amount */\n      dup6\n        /* \"staking.sol\":2552:2589  Deposit (_msgSender, _level, _amount) */\n      mload(0x40)\n      tag_228\n      swap4\n      swap3\n      swap2\n      swap1\n      tag_118\n      jump\t// in\n    tag_228:\n      mload(0x40)\n      dup1\n      swap2\n      sub\n      swap1\n      log1\n        /* \"staking.sol\":1963:2596  {... */\n      pop\n        /* \"staking.sol\":1891:2596  function deposit (uint256 _amount, uint256 _level) public whenNotPaused {... */\n      pop\n      pop\n      jump\t// out\n        /* \"staking.sol\":5435:5706  function getLevelsInfo() external view returns(Level memory level0, Level memory level1, Level memory level2, Level memory level3){... */\n    tag_84:\n        /* \"staking.sol\":5482:5501  Level memory level0 */\n      tag_229\n      tag_230\n      jump\t// in\n    tag_229:\n        /* \"staking.sol\":5503:5522  Level memory level1 */\n      tag_231\n      tag_230\n      jump\t// in\n    tag_231:\n        /* \"staking.sol\":5524:5543  Level memory level2 */\n      tag_232\n      tag_230\n      jump\t// in\n    tag_232:\n        /* \"staking.sol\":5545:5564  Level memory level3 */\n      tag_233\n      tag_230\n      jump\t// in\n    tag_233:\n        /* \"staking.sol\":5584:5593  levelInfo */\n      0x04\n        /* \"staking.sol\":5584:5596  levelInfo[0] */\n      0x00\n        /* \"staking.sol\":5594:5595  0 */\n      dup1\n        /* \"staking.sol\":5584:5596  levelInfo[0] */\n      dup2\n      mstore\n      0x20\n      add\n      swap1\n      dup2\n      mstore\n      0x20\n      add\n      0x00\n      keccak256\n        /* \"staking.sol\":5575:5596  level0 = levelInfo[0] */\n      mload(0x40)\n      dup1\n      0x40\n      add\n      0x40\n      mstore\n      swap1\n      dup2\n      0x00\n      dup3\n      add\n      sload\n      dup2\n      mstore\n      0x20\n      add\n      0x01\n      dup3\n      add\n      sload\n      dup2\n      mstore\n      pop\n      pop\n      swap4\n      pop\n        /* \"staking.sol\":5615:5624  levelInfo */\n      0x04\n        /* \"staking.sol\":5615:5627  levelInfo[1] */\n      0x00\n        /* \"staking.sol\":5625:5626  1 */\n      0x01\n        /* \"staking.sol\":5615:5627  levelInfo[1] */\n      dup2\n      mstore\n      0x20\n      add\n      swap1\n      dup2\n      mstore\n      0x20\n      add\n      0x00\n      keccak256\n        /* \"staking.sol\":5606:5627  level1 = levelInfo[1] */\n      mload(0x40)\n      dup1\n      0x40\n      add\n      0x40\n      mstore\n      swap1\n      dup2\n      0x00\n      dup3\n      add\n      sload\n      dup2\n      mstore\n      0x20\n      add\n      0x01\n      dup3\n      add\n      sload\n      dup2\n      mstore\n      pop\n      pop\n      swap3\n      pop\n        /* \"staking.sol\":5646:5655  levelInfo */\n      0x04\n        /* \"staking.sol\":5646:5658  levelInfo[2] */\n      0x00\n        /* \"staking.sol\":5656:5657  2 */\n      0x02\n        /* \"staking.sol\":5646:5658  levelInfo[2] */\n      dup2\n      mstore\n      0x20\n      add\n      swap1\n      dup2\n      mstore\n      0x20\n      add\n      0x00\n      keccak256\n        /* \"staking.sol\":5637:5658  level2 = levelInfo[2] */\n      mload(0x40)\n      dup1\n      0x40\n      add\n      0x40\n      mstore\n      swap1\n      dup2\n      0x00\n      dup3\n      add\n      sload\n      dup2\n      mstore\n      0x20\n      add\n      0x01\n      dup3\n      add\n      sload\n      dup2\n      mstore\n      pop\n      pop\n      swap2\n      pop\n        /* \"staking.sol\":5682:5691  levelInfo */\n      0x04\n        /* \"staking.sol\":5682:5694  levelInfo[3] */\n      0x00\n        /* \"staking.sol\":5692:5693  3 */\n      0x03\n        /* \"staking.sol\":5682:5694  levelInfo[3] */\n      dup2\n      mstore\n      0x20\n      add\n      swap1\n      dup2\n      mstore\n      0x20\n      add\n      0x00\n      keccak256\n        /* \"staking.sol\":5673:5694  level3 = levelInfo[3] */\n      mload(0x40)\n      dup1\n      0x40\n      add\n      0x40\n      mstore\n      swap1\n      dup2\n      0x00\n      dup3\n      add\n      sload\n      dup2\n      mstore\n      0x20\n      add\n      0x01\n      dup3\n      add\n      sload\n      dup2\n      mstore\n      pop\n      pop\n      swap1\n      pop\n        /* \"staking.sol\":5435:5706  function getLevelsInfo() external view returns(Level memory level0, Level memory level1, Level memory level2, Level memory level3){... */\n      swap1\n      swap2\n      swap3\n      swap4\n      jump\t// out\n        /* \"staking.sol\":782:824  mapping(uint256 => Level) public levelInfo */\n    tag_89:\n      mstore(0x20, 0x04)\n      dup1\n      0x00\n      mstore\n      keccak256(0x00, 0x40)\n      0x00\n      swap2\n      pop\n      swap1\n      pop\n      dup1\n      0x00\n      add\n      sload\n      swap1\n      dup1\n      0x01\n      add\n      sload\n      swap1\n      pop\n      dup3\n      jump\t// out\n        /* \"@openzeppelin/contracts/access/Ownable.sol\":1918:2116  function transferOwnership(address newOwner) public virtual onlyOwner {... */\n    tag_94:\n        /* \"@openzeppelin/contracts/access/Ownable.sol\":1259:1271  _msgSender() */\n      tag_236\n        /* \"@openzeppelin/contracts/access/Ownable.sol\":1259:1269  _msgSender */\n      tag_97\n        /* \"@openzeppelin/contracts/access/Ownable.sol\":1259:1271  _msgSender() */\n      jump\t// in\n    tag_236:\n        /* \"@openzeppelin/contracts/access/Ownable.sol\":1248:1271  owner() == _msgSender() */\n      0xffffffffffffffffffffffffffffffffffffffff\n      and\n        /* \"@openzeppelin/contracts/access/Ownable.sol\":1248:1255  owner() */\n      tag_237\n        /* \"@openzeppelin/contracts/access/Ownable.sol\":1248:1253  owner */\n      tag_66\n        /* \"@openzeppelin/contracts/access/Ownable.sol\":1248:1255  owner() */\n      jump\t// in\n    tag_237:\n        /* \"@openzeppelin/contracts/access/Ownable.sol\":1248:1271  owner() == _msgSender() */\n      0xffffffffffffffffffffffffffffffffffffffff\n      and\n      eq\n        /* \"@openzeppelin/contracts/access/Ownable.sol\":1240:1308  require(owner() == _msgSender(), \"Ownable: caller is not the owner\") */\n      tag_238\n      jumpi\n      mload(0x40)\n      0x08c379a000000000000000000000000000000000000000000000000000000000\n      dup2\n      mstore\n      0x04\n      add\n      tag_239\n      swap1\n      tag_101\n      jump\t// in\n    tag_239:\n      mload(0x40)\n      dup1\n      swap2\n      sub\n      swap1\n      revert\n    tag_238:\n        /* \"@openzeppelin/contracts/access/Ownable.sol\":2026:2027  0 */\n      0x00\n        /* \"@openzeppelin/contracts/access/Ownable.sol\":2006:2028  newOwner != address(0) */\n      0xffffffffffffffffffffffffffffffffffffffff\n      and\n        /* \"@openzeppelin/contracts/access/Ownable.sol\":2006:2014  newOwner */\n      dup2\n        /* \"@openzeppelin/contracts/access/Ownable.sol\":2006:2028  newOwner != address(0) */\n      0xffffffffffffffffffffffffffffffffffffffff\n      and\n      eq\n      iszero\n        /* \"@openzeppelin/contracts/access/Ownable.sol\":1998:2071  require(newOwner != address(0), \"Ownable: new owner is the zero address\") */\n      tag_241\n      jumpi\n      mload(0x40)\n      0x08c379a000000000000000000000000000000000000000000000000000000000\n      dup2\n      mstore\n      0x04\n      add\n      tag_242\n      swap1\n      tag_243\n      jump\t// in\n    tag_242:\n      mload(0x40)\n      dup1\n      swap2\n      sub\n      swap1\n      revert\n    tag_241:\n        /* \"@openzeppelin/contracts/access/Ownable.sol\":2081:2109  _transferOwnership(newOwner) */\n      tag_244\n        /* \"@openzeppelin/contracts/access/Ownable.sol\":2100:2108  newOwner */\n      dup2\n        /* \"@openzeppelin/contracts/access/Ownable.sol\":2081:2099  _transferOwnership */\n      tag_166\n        /* \"@openzeppelin/contracts/access/Ownable.sol\":2081:2109  _transferOwnership(newOwner) */\n      jump\t// in\n    tag_244:\n        /* \"@openzeppelin/contracts/access/Ownable.sol\":1918:2116  function transferOwnership(address newOwner) public virtual onlyOwner {... */\n      pop\n      jump\t// out\n        /* \"@openzeppelin/contracts/utils/Context.sol\":640:736  function _msgSender() internal view virtual returns (address) {... */\n    tag_97:\n        /* \"@openzeppelin/contracts/utils/Context.sol\":693:700  address */\n      0x00\n        /* \"@openzeppelin/contracts/utils/Context.sol\":719:729  msg.sender */\n      caller\n        /* \"@openzeppelin/contracts/utils/Context.sol\":712:729  return msg.sender */\n      swap1\n      pop\n        /* \"@openzeppelin/contracts/utils/Context.sol\":640:736  function _msgSender() internal view virtual returns (address) {... */\n      swap1\n      jump\t// out\n        /* \"@openzeppelin/contracts/security/Pausable.sol\":2110:2227  function _unpause() internal virtual whenPaused {... */\n    tag_126:\n        /* \"@openzeppelin/contracts/security/Pausable.sol\":1677:1685  paused() */\n      tag_247\n        /* \"@openzeppelin/contracts/security/Pausable.sol\":1677:1683  paused */\n      tag_50\n        /* \"@openzeppelin/contracts/security/Pausable.sol\":1677:1685  paused() */\n      jump\t// in\n    tag_247:\n        /* \"@openzeppelin/contracts/security/Pausable.sol\":1669:1710  require(paused(), \"Pausable: not paused\") */\n      tag_248\n      jumpi\n      mload(0x40)\n      0x08c379a000000000000000000000000000000000000000000000000000000000\n      dup2\n      mstore\n      0x04\n      add\n      tag_249\n      swap1\n      tag_250\n      jump\t// in\n    tag_249:\n      mload(0x40)\n      dup1\n      swap2\n      sub\n      swap1\n      revert\n    tag_248:\n        /* \"@openzeppelin/contracts/security/Pausable.sol\":2178:2183  false */\n      0x00\n        /* \"@openzeppelin/contracts/security/Pausable.sol\":2168:2175  _paused */\n      dup1\n      0x14\n        /* \"@openzeppelin/contracts/security/Pausable.sol\":2168:2183  _paused = false */\n      0x0100\n      exp\n      dup2\n      sload\n      dup2\n      0xff\n      mul\n      not\n      and\n      swap1\n      dup4\n      iszero\n      iszero\n      mul\n      or\n      swap1\n      sstore\n      pop\n        /* \"@openzeppelin/contracts/security/Pausable.sol\":2198:2220  Unpaused(_msgSender()) */\n      0x5db9ee0a495bf2e6ff9c91a7834c1ba4fdd244a5e8aa4e537bd38aeae4b073aa\n        /* \"@openzeppelin/contracts/security/Pausable.sol\":2207:2219  _msgSender() */\n      tag_252\n        /* \"@openzeppelin/contracts/security/Pausable.sol\":2207:2217  _msgSender */\n      tag_97\n        /* \"@openzeppelin/contracts/security/Pausable.sol\":2207:2219  _msgSender() */\n      jump\t// in\n    tag_252:\n        /* \"@openzeppelin/contracts/security/Pausable.sol\":2198:2220  Unpaused(_msgSender()) */\n      mload(0x40)\n      tag_253\n      swap2\n      swap1\n      tag_68\n      jump\t// in\n    tag_253:\n      mload(0x40)\n      dup1\n      swap2\n      sub\n      swap1\n      log1\n        /* \"@openzeppelin/contracts/security/Pausable.sol\":2110:2227  function _unpause() internal virtual whenPaused {... */\n      jump\t// out\n        /* \"@openzeppelin/contracts/access/Ownable.sol\":2270:2457  function _transferOwnership(address newOwner) internal virtual {... */\n    tag_166:\n        /* \"@openzeppelin/contracts/access/Ownable.sol\":2343:2359  address oldOwner */\n      0x00\n        /* \"@openzeppelin/contracts/access/Ownable.sol\":2362:2368  _owner */\n      dup1\n      0x00\n      swap1\n      sload\n      swap1\n      0x0100\n      exp\n      swap1\n      div\n      0xffffffffffffffffffffffffffffffffffffffff\n      and\n        /* \"@openzeppelin/contracts/access/Ownable.sol\":2343:2368  address oldOwner = _owner */\n      swap1\n      pop\n        /* \"@openzeppelin/contracts/access/Ownable.sol\":2387:2395  newOwner */\n      dup2\n        /* \"@openzeppelin/contracts/access/Ownable.sol\":2378:2384  _owner */\n      0x00\n      dup1\n        /* \"@openzeppelin/contracts/access/Ownable.sol\":2378:2395  _owner = newOwner */\n      0x0100\n      exp\n      dup2\n      sload\n      dup2\n      0xffffffffffffffffffffffffffffffffffffffff\n      mul\n      not\n      and\n      swap1\n      dup4\n      0xffffffffffffffffffffffffffffffffffffffff\n      and\n      mul\n      or\n      swap1\n      sstore\n      pop\n        /* \"@openzeppelin/contracts/access/Ownable.sol\":2441:2449  newOwner */\n      dup2\n        /* \"@openzeppelin/contracts/access/Ownable.sol\":2410:2450  OwnershipTransferred(oldOwner, newOwner) */\n      0xffffffffffffffffffffffffffffffffffffffff\n      and\n        /* \"@openzeppelin/contracts/access/Ownable.sol\":2431:2439  oldOwner */\n      dup2\n        /* \"@openzeppelin/contracts/access/Ownable.sol\":2410:2450  OwnershipTransferred(oldOwner, newOwner) */\n      0xffffffffffffffffffffffffffffffffffffffff\n      and\n      0x8be0079c531659141344cd1fd0a4f28419497f9722a3daafe3b4186f6b6457e0\n      mload(0x40)\n      mload(0x40)\n      dup1\n      swap2\n      sub\n      swap1\n      log3\n        /* \"@openzeppelin/contracts/access/Ownable.sol\":2333:2457  {... */\n      pop\n        /* \"@openzeppelin/contracts/access/Ownable.sol\":2270:2457  function _transferOwnership(address newOwner) internal virtual {... */\n      pop\n      jump\t// out\n        /* \"@openzeppelin/contracts/security/Pausable.sol\":1863:1978  function _pause() internal virtual whenNotPaused {... */\n    tag_174:\n        /* \"@openzeppelin/contracts/security/Pausable.sol\":1412:1420  paused() */\n      tag_256\n        /* \"@openzeppelin/contracts/security/Pausable.sol\":1412:1418  paused */\n      tag_50\n        /* \"@openzeppelin/contracts/security/Pausable.sol\":1412:1420  paused() */\n      jump\t// in\n    tag_256:\n        /* \"@openzeppelin/contracts/security/Pausable.sol\":1411:1420  !paused() */\n      iszero\n        /* \"@openzeppelin/contracts/security/Pausable.sol\":1403:1441  require(!paused(), \"Pausable: paused\") */\n      tag_257\n      jumpi\n      mload(0x40)\n      0x08c379a000000000000000000000000000000000000000000000000000000000\n      dup2\n      mstore\n      0x04\n      add\n      tag_258\n      swap1\n      tag_215\n      jump\t// in\n    tag_258:\n      mload(0x40)\n      dup1\n      swap2\n      sub\n      swap1\n      revert\n    tag_257:\n        /* \"@openzeppelin/contracts/security/Pausable.sol\":1932:1936  true */\n      0x01\n        /* \"@openzeppelin/contracts/security/Pausable.sol\":1922:1929  _paused */\n      0x00\n      0x14\n        /* \"@openzeppelin/contracts/security/Pausable.sol\":1922:1936  _paused = true */\n      0x0100\n      exp\n      dup2\n      sload\n      dup2\n      0xff\n      mul\n      not\n      and\n      swap1\n      dup4\n      iszero\n      iszero\n      mul\n      or\n      swap1\n      sstore\n      pop\n        /* \"@openzeppelin/contracts/security/Pausable.sol\":1951:1971  Paused(_msgSender()) */\n      0x62e78cea01bee320cd4e420270b5ea74000d11b0c9f74754ebdbfc544b05a258\n        /* \"@openzeppelin/contracts/security/Pausable.sol\":1958:1970  _msgSender() */\n      tag_260\n        /* \"@openzeppelin/contracts/security/Pausable.sol\":1958:1968  _msgSender */\n      tag_97\n        /* \"@openzeppelin/contracts/security/Pausable.sol\":1958:1970  _msgSender() */\n      jump\t// in\n    tag_260:\n        /* \"@openzeppelin/contracts/security/Pausable.sol\":1951:1971  Paused(_msgSender()) */\n      mload(0x40)\n      tag_261\n      swap2\n      swap1\n      tag_68\n      jump\t// in\n    tag_261:\n      mload(0x40)\n      dup1\n      swap2\n      sub\n      swap1\n      log1\n        /* \"@openzeppelin/contracts/security/Pausable.sol\":1863:1978  function _pause() internal virtual whenNotPaused {... */\n      jump\t// out\n    tag_150:\n      mload(0x40)\n      dup1\n      0xa0\n      add\n      0x40\n      mstore\n      dup1\n      0x00\n      dup2\n      mstore\n      0x20\n      add\n      0x00\n      dup2\n      mstore\n      0x20\n      add\n      0x00\n      dup2\n      mstore\n      0x20\n      add\n      0x00\n      dup2\n      mstore\n      0x20\n      add\n      0x00\n      dup2\n      mstore\n      pop\n      swap1\n      jump\t// out\n    tag_230:\n      mload(0x40)\n      dup1\n      0x40\n      add\n      0x40\n      mstore\n      dup1\n      0x00\n      dup2\n      mstore\n      0x20\n      add\n      0x00\n      dup2\n      mstore\n      pop\n      swap1\n      jump\t// out\n        /* \"#utility.yul\":7:146   */\n    tag_263:\n        /* \"#utility.yul\":53:58   */\n      0x00\n        /* \"#utility.yul\":91:97   */\n      dup2\n        /* \"#utility.yul\":78:98   */\n      calldataload\n        /* \"#utility.yul\":69:98   */\n      swap1\n      pop\n        /* \"#utility.yul\":107:140   */\n      tag_265\n        /* \"#utility.yul\":134:139   */\n      dup2\n        /* \"#utility.yul\":107:140   */\n      tag_266\n      jump\t// in\n    tag_265:\n        /* \"#utility.yul\":7:146   */\n      swap3\n      swap2\n      pop\n      pop\n      jump\t// out\n        /* \"#utility.yul\":152:289   */\n    tag_267:\n        /* \"#utility.yul\":206:211   */\n      0x00\n        /* \"#utility.yul\":237:243   */\n      dup2\n        /* \"#utility.yul\":231:244   */\n      mload\n        /* \"#utility.yul\":222:244   */\n      swap1\n      pop\n        /* \"#utility.yul\":253:283   */\n      tag_269\n        /* \"#utility.yul\":277:282   */\n      dup2\n        /* \"#utility.yul\":253:283   */\n      tag_270\n      jump\t// in\n    tag_269:\n        /* \"#utility.yul\":152:289   */\n      swap3\n      swap2\n      pop\n      pop\n      jump\t// out\n        /* \"#utility.yul\":295:434   */\n    tag_271:\n        /* \"#utility.yul\":341:346   */\n      0x00\n        /* \"#utility.yul\":379:385   */\n      dup2\n        /* \"#utility.yul\":366:386   */\n      calldataload\n        /* \"#utility.yul\":357:386   */\n      swap1\n      pop\n        /* \"#utility.yul\":395:428   */\n      tag_273\n        /* \"#utility.yul\":422:427   */\n      dup2\n        /* \"#utility.yul\":395:428   */\n      tag_274\n      jump\t// in\n    tag_273:\n        /* \"#utility.yul\":295:434   */\n      swap3\n      swap2\n      pop\n      pop\n      jump\t// out\n        /* \"#utility.yul\":440:583   */\n    tag_275:\n        /* \"#utility.yul\":497:502   */\n      0x00\n        /* \"#utility.yul\":528:534   */\n      dup2\n        /* \"#utility.yul\":522:535   */\n      mload\n        /* \"#utility.yul\":513:535   */\n      swap1\n      pop\n        /* \"#utility.yul\":544:577   */\n      tag_277\n        /* \"#utility.yul\":571:576   */\n      dup2\n        /* \"#utility.yul\":544:577   */\n      tag_274\n      jump\t// in\n    tag_277:\n        /* \"#utility.yul\":440:583   */\n      swap3\n      swap2\n      pop\n      pop\n      jump\t// out\n        /* \"#utility.yul\":589:918   */\n    tag_55:\n        /* \"#utility.yul\":648:654   */\n      0x00\n        /* \"#utility.yul\":697:699   */\n      0x20\n        /* \"#utility.yul\":685:694   */\n      dup3\n        /* \"#utility.yul\":676:683   */\n      dup5\n        /* \"#utility.yul\":672:695   */\n      sub\n        /* \"#utility.yul\":668:700   */\n      slt\n        /* \"#utility.yul\":665:784   */\n      iszero\n      tag_279\n      jumpi\n        /* \"#utility.yul\":703:782   */\n      tag_280\n      tag_281\n      jump\t// in\n    tag_280:\n        /* \"#utility.yul\":665:784   */\n    tag_279:\n        /* \"#utility.yul\":823:824   */\n      0x00\n        /* \"#utility.yul\":848:901   */\n      tag_282\n        /* \"#utility.yul\":893:900   */\n      dup5\n        /* \"#utility.yul\":884:890   */\n      dup3\n        /* \"#utility.yul\":873:882   */\n      dup6\n        /* \"#utility.yul\":869:891   */\n      add\n        /* \"#utility.yul\":848:901   */\n      tag_263\n      jump\t// in\n    tag_282:\n        /* \"#utility.yul\":838:901   */\n      swap2\n      pop\n        /* \"#utility.yul\":794:911   */\n      pop\n        /* \"#utility.yul\":589:918   */\n      swap3\n      swap2\n      pop\n      pop\n      jump\t// out\n        /* \"#utility.yul\":924:1398   */\n    tag_27:\n        /* \"#utility.yul\":992:998   */\n      0x00\n        /* \"#utility.yul\":1000:1006   */\n      dup1\n        /* \"#utility.yul\":1049:1051   */\n      0x40\n        /* \"#utility.yul\":1037:1046   */\n      dup4\n        /* \"#utility.yul\":1028:1035   */\n      dup6\n        /* \"#utility.yul\":1024:1047   */\n      sub\n        /* \"#utility.yul\":1020:1052   */\n      slt\n        /* \"#utility.yul\":1017:1136   */\n      iszero\n      tag_284\n      jumpi\n        /* \"#utility.yul\":1055:1134   */\n      tag_285\n      tag_281\n      jump\t// in\n    tag_285:\n        /* \"#utility.yul\":1017:1136   */\n    tag_284:\n        /* \"#utility.yul\":1175:1176   */\n      0x00\n        /* \"#utility.yul\":1200:1253   */\n      tag_286\n        /* \"#utility.yul\":1245:1252   */\n      dup6\n        /* \"#utility.yul\":1236:1242   */\n      dup3\n        /* \"#utility.yul\":1225:1234   */\n      dup7\n        /* \"#utility.yul\":1221:1243   */\n      add\n        /* \"#utility.yul\":1200:1253   */\n      tag_263\n      jump\t// in\n    tag_286:\n        /* \"#utility.yul\":1190:1253   */\n      swap3\n      pop\n        /* \"#utility.yul\":1146:1263   */\n      pop\n        /* \"#utility.yul\":1302:1304   */\n      0x20\n        /* \"#utility.yul\":1328:1381   */\n      tag_287\n        /* \"#utility.yul\":1373:1380   */\n      dup6\n        /* \"#utility.yul\":1364:1370   */\n      dup3\n        /* \"#utility.yul\":1353:1362   */\n      dup7\n        /* \"#utility.yul\":1349:1371   */\n      add\n        /* \"#utility.yul\":1328:1381   */\n      tag_271\n      jump\t// in\n    tag_287:\n        /* \"#utility.yul\":1318:1381   */\n      swap2\n      pop\n        /* \"#utility.yul\":1273:1391   */\n      pop\n        /* \"#utility.yul\":924:1398   */\n      swap3\n      pop\n      swap3\n      swap1\n      pop\n      jump\t// out\n        /* \"#utility.yul\":1404:1749   */\n    tag_116:\n        /* \"#utility.yul\":1471:1477   */\n      0x00\n        /* \"#utility.yul\":1520:1522   */\n      0x20\n        /* \"#utility.yul\":1508:1517   */\n      dup3\n        /* \"#utility.yul\":1499:1506   */\n      dup5\n        /* \"#utility.yul\":1495:1518   */\n      sub\n        /* \"#utility.yul\":1491:1523   */\n      slt\n        /* \"#utility.yul\":1488:1607   */\n      iszero\n      tag_289\n      jumpi\n        /* \"#utility.yul\":1526:1605   */\n      tag_290\n      tag_281\n      jump\t// in\n    tag_290:\n        /* \"#utility.yul\":1488:1607   */\n    tag_289:\n        /* \"#utility.yul\":1646:1647   */\n      0x00\n        /* \"#utility.yul\":1671:1732   */\n      tag_291\n        /* \"#utility.yul\":1724:1731   */\n      dup5\n        /* \"#utility.yul\":1715:1721   */\n      dup3\n        /* \"#utility.yul\":1704:1713   */\n      dup6\n        /* \"#utility.yul\":1700:1722   */\n      add\n        /* \"#utility.yul\":1671:1732   */\n      tag_267\n      jump\t// in\n    tag_291:\n        /* \"#utility.yul\":1661:1732   */\n      swap2\n      pop\n        /* \"#utility.yul\":1617:1742   */\n      pop\n        /* \"#utility.yul\":1404:1749   */\n      swap3\n      swap2\n      pop\n      pop\n      jump\t// out\n        /* \"#utility.yul\":1755:2084   */\n    tag_37:\n        /* \"#utility.yul\":1814:1820   */\n      0x00\n        /* \"#utility.yul\":1863:1865   */\n      0x20\n        /* \"#utility.yul\":1851:1860   */\n      dup3\n        /* \"#utility.yul\":1842:1849   */\n      dup5\n        /* \"#utility.yul\":1838:1861   */\n      sub\n        /* \"#utility.yul\":1834:1866   */\n      slt\n        /* \"#utility.yul\":1831:1950   */\n      iszero\n      tag_293\n      jumpi\n        /* \"#utility.yul\":1869:1948   */\n      tag_294\n      tag_281\n      jump\t// in\n    tag_294:\n        /* \"#utility.yul\":1831:1950   */\n    tag_293:\n        /* \"#utility.yul\":1989:1990   */\n      0x00\n        /* \"#utility.yul\":2014:2067   */\n      tag_295\n        /* \"#utility.yul\":2059:2066   */\n      dup5\n        /* \"#utility.yul\":2050:2056   */\n      dup3\n        /* \"#utility.yul\":2039:2048   */\n      dup6\n        /* \"#utility.yul\":2035:2057   */\n      add\n        /* \"#utility.yul\":2014:2067   */\n      tag_271\n      jump\t// in\n    tag_295:\n        /* \"#utility.yul\":2004:2067   */\n      swap2\n      pop\n        /* \"#utility.yul\":1960:2077   */\n      pop\n        /* \"#utility.yul\":1755:2084   */\n      swap3\n      swap2\n      pop\n      pop\n      jump\t// out\n        /* \"#utility.yul\":2090:2441   */\n    tag_186:\n        /* \"#utility.yul\":2160:2166   */\n      0x00\n        /* \"#utility.yul\":2209:2211   */\n      0x20\n        /* \"#utility.yul\":2197:2206   */\n      dup3\n        /* \"#utility.yul\":2188:2195   */\n      dup5\n        /* \"#utility.yul\":2184:2207   */\n      sub\n        /* \"#utility.yul\":2180:2212   */\n      slt\n        /* \"#utility.yul\":2177:2296   */\n      iszero\n      tag_297\n      jumpi\n        /* \"#utility.yul\":2215:2294   */\n      tag_298\n      tag_281\n      jump\t// in\n    tag_298:\n        /* \"#utility.yul\":2177:2296   */\n    tag_297:\n        /* \"#utility.yul\":2335:2336   */\n      0x00\n        /* \"#utility.yul\":2360:2424   */\n      tag_299\n        /* \"#utility.yul\":2416:2423   */\n      dup5\n        /* \"#utility.yul\":2407:2413   */\n      dup3\n        /* \"#utility.yul\":2396:2405   */\n      dup6\n        /* \"#utility.yul\":2392:2414   */\n      add\n        /* \"#utility.yul\":2360:2424   */\n      tag_275\n      jump\t// in\n    tag_299:\n        /* \"#utility.yul\":2350:2424   */\n      swap2\n      pop\n        /* \"#utility.yul\":2306:2434   */\n      pop\n        /* \"#utility.yul\":2090:2441   */\n      swap3\n      swap2\n      pop\n      pop\n      jump\t// out\n        /* \"#utility.yul\":2447:2921   */\n    tag_43:\n        /* \"#utility.yul\":2515:2521   */\n      0x00\n        /* \"#utility.yul\":2523:2529   */\n      dup1\n        /* \"#utility.yul\":2572:2574   */\n      0x40\n        /* \"#utility.yul\":2560:2569   */\n      dup4\n        /* \"#utility.yul\":2551:2558   */\n      dup6\n        /* \"#utility.yul\":2547:2570   */\n      sub\n        /* \"#utility.yul\":2543:2575   */\n      slt\n        /* \"#utility.yul\":2540:2659   */\n      iszero\n      tag_301\n      jumpi\n        /* \"#utility.yul\":2578:2657   */\n      tag_302\n      tag_281\n      jump\t// in\n    tag_302:\n        /* \"#utility.yul\":2540:2659   */\n    tag_301:\n        /* \"#utility.yul\":2698:2699   */\n      0x00\n        /* \"#utility.yul\":2723:2776   */\n      tag_303\n        /* \"#utility.yul\":2768:2775   */\n      dup6\n        /* \"#utility.yul\":2759:2765   */\n      dup3\n        /* \"#utility.yul\":2748:2757   */\n      dup7\n        /* \"#utility.yul\":2744:2766   */\n      add\n        /* \"#utility.yul\":2723:2776   */\n      tag_271\n      jump\t// in\n    tag_303:\n        /* \"#utility.yul\":2713:2776   */\n      swap3\n      pop\n        /* \"#utility.yul\":2669:2786   */\n      pop\n        /* \"#utility.yul\":2825:2827   */\n      0x20\n        /* \"#utility.yul\":2851:2904   */\n      tag_304\n        /* \"#utility.yul\":2896:2903   */\n      dup6\n        /* \"#utility.yul\":2887:2893   */\n      dup3\n        /* \"#utility.yul\":2876:2885   */\n      dup7\n        /* \"#utility.yul\":2872:2894   */\n      add\n        /* \"#utility.yul\":2851:2904   */\n      tag_271\n      jump\t// in\n    tag_304:\n        /* \"#utility.yul\":2841:2904   */\n      swap2\n      pop\n        /* \"#utility.yul\":2796:2914   */\n      pop\n        /* \"#utility.yul\":2447:2921   */\n      swap3\n      pop\n      swap3\n      swap1\n      pop\n      jump\t// out\n        /* \"#utility.yul\":2927:3546   */\n    tag_33:\n        /* \"#utility.yul\":3004:3010   */\n      0x00\n        /* \"#utility.yul\":3012:3018   */\n      dup1\n        /* \"#utility.yul\":3020:3026   */\n      0x00\n        /* \"#utility.yul\":3069:3071   */\n      0x60\n        /* \"#utility.yul\":3057:3066   */\n      dup5\n        /* \"#utility.yul\":3048:3055   */\n      dup7\n        /* \"#utility.yul\":3044:3067   */\n      sub\n        /* \"#utility.yul\":3040:3072   */\n      slt\n        /* \"#utility.yul\":3037:3156   */\n      iszero\n      tag_306\n      jumpi\n        /* \"#utility.yul\":3075:3154   */\n      tag_307\n      tag_281\n      jump\t// in\n    tag_307:\n        /* \"#utility.yul\":3037:3156   */\n    tag_306:\n        /* \"#utility.yul\":3195:3196   */\n      0x00\n        /* \"#utility.yul\":3220:3273   */\n      tag_308\n        /* \"#utility.yul\":3265:3272   */\n      dup7\n        /* \"#utility.yul\":3256:3262   */\n      dup3\n        /* \"#utility.yul\":3245:3254   */\n      dup8\n        /* \"#utility.yul\":3241:3263   */\n      add\n        /* \"#utility.yul\":3220:3273   */\n      tag_271\n      jump\t// in\n    tag_308:\n        /* \"#utility.yul\":3210:3273   */\n      swap4\n      pop\n        /* \"#utility.yul\":3166:3283   */\n      pop\n        /* \"#utility.yul\":3322:3324   */\n      0x20\n        /* \"#utility.yul\":3348:3401   */\n      tag_309\n        /* \"#utility.yul\":3393:3400   */\n      dup7\n        /* \"#utility.yul\":3384:3390   */\n      dup3\n        /* \"#utility.yul\":3373:3382   */\n      dup8\n        /* \"#utility.yul\":3369:3391   */\n      add\n        /* \"#utility.yul\":3348:3401   */\n      tag_271\n      jump\t// in\n    tag_309:\n        /* \"#utility.yul\":3338:3401   */\n      swap3\n      pop\n        /* \"#utility.yul\":3293:3411   */\n      pop\n        /* \"#utility.yul\":3450:3452   */\n      0x40\n        /* \"#utility.yul\":3476:3529   */\n      tag_310\n        /* \"#utility.yul\":3521:3528   */\n      dup7\n        /* \"#utility.yul\":3512:3518   */\n      dup3\n        /* \"#utility.yul\":3501:3510   */\n      dup8\n        /* \"#utility.yul\":3497:3519   */\n      add\n        /* \"#utility.yul\":3476:3529   */\n      tag_271\n      jump\t// in\n    tag_310:\n        /* \"#utility.yul\":3466:3529   */\n      swap2\n      pop\n        /* \"#utility.yul\":3421:3539   */\n      pop\n        /* \"#utility.yul\":2927:3546   */\n      swap3\n      pop\n      swap3\n      pop\n      swap3\n      jump\t// out\n        /* \"#utility.yul\":3552:3670   */\n    tag_311:\n        /* \"#utility.yul\":3639:3663   */\n      tag_313\n        /* \"#utility.yul\":3657:3662   */\n      dup2\n        /* \"#utility.yul\":3639:3663   */\n      tag_314\n      jump\t// in\n    tag_313:\n        /* \"#utility.yul\":3634:3637   */\n      dup3\n        /* \"#utility.yul\":3627:3664   */\n      mstore\n        /* \"#utility.yul\":3552:3670   */\n      pop\n      pop\n      jump\t// out\n        /* \"#utility.yul\":3676:3785   */\n    tag_315:\n        /* \"#utility.yul\":3757:3778   */\n      tag_317\n        /* \"#utility.yul\":3772:3777   */\n      dup2\n        /* \"#utility.yul\":3757:3778   */\n      tag_318\n      jump\t// in\n    tag_317:\n        /* \"#utility.yul\":3752:3755   */\n      dup3\n        /* \"#utility.yul\":3745:3779   */\n      mstore\n        /* \"#utility.yul\":3676:3785   */\n      pop\n      pop\n      jump\t// out\n        /* \"#utility.yul\":3791:3950   */\n    tag_319:\n        /* \"#utility.yul\":3892:3943   */\n      tag_321\n        /* \"#utility.yul\":3937:3942   */\n      dup2\n        /* \"#utility.yul\":3892:3943   */\n      tag_322\n      jump\t// in\n    tag_321:\n        /* \"#utility.yul\":3887:3890   */\n      dup3\n        /* \"#utility.yul\":3880:3944   */\n      mstore\n        /* \"#utility.yul\":3791:3950   */\n      pop\n      pop\n      jump\t// out\n        /* \"#utility.yul\":3956:4103   */\n    tag_323:\n        /* \"#utility.yul\":4051:4096   */\n      tag_325\n        /* \"#utility.yul\":4090:4095   */\n      dup2\n        /* \"#utility.yul\":4051:4096   */\n      tag_326\n      jump\t// in\n    tag_325:\n        /* \"#utility.yul\":4046:4049   */\n      dup3\n        /* \"#utility.yul\":4039:4097   */\n      mstore\n        /* \"#utility.yul\":3956:4103   */\n      pop\n      pop\n      jump\t// out\n        /* \"#utility.yul\":4109:4475   */\n    tag_327:\n        /* \"#utility.yul\":4251:4254   */\n      0x00\n        /* \"#utility.yul\":4272:4339   */\n      tag_329\n        /* \"#utility.yul\":4336:4338   */\n      0x14\n        /* \"#utility.yul\":4331:4334   */\n      dup4\n        /* \"#utility.yul\":4272:4339   */\n      tag_330\n      jump\t// in\n    tag_329:\n        /* \"#utility.yul\":4265:4339   */\n      swap2\n      pop\n        /* \"#utility.yul\":4348:4441   */\n      tag_331\n        /* \"#utility.yul\":4437:4440   */\n      dup3\n        /* \"#utility.yul\":4348:4441   */\n      tag_332\n      jump\t// in\n    tag_331:\n        /* \"#utility.yul\":4466:4468   */\n      0x20\n        /* \"#utility.yul\":4461:4464   */\n      dup3\n        /* \"#utility.yul\":4457:4469   */\n      add\n        /* \"#utility.yul\":4450:4469   */\n      swap1\n      pop\n        /* \"#utility.yul\":4109:4475   */\n      swap2\n      swap1\n      pop\n      jump\t// out\n        /* \"#utility.yul\":4481:4847   */\n    tag_333:\n        /* \"#utility.yul\":4623:4626   */\n      0x00\n        /* \"#utility.yul\":4644:4711   */\n      tag_335\n        /* \"#utility.yul\":4708:4710   */\n      0x26\n        /* \"#utility.yul\":4703:4706   */\n      dup4\n        /* \"#utility.yul\":4644:4711   */\n      tag_330\n      jump\t// in\n    tag_335:\n        /* \"#utility.yul\":4637:4711   */\n      swap2\n      pop\n        /* \"#utility.yul\":4720:4813   */\n      tag_336\n        /* \"#utility.yul\":4809:4812   */\n      dup3\n        /* \"#utility.yul\":4720:4813   */\n      tag_337\n      jump\t// in\n    tag_336:\n        /* \"#utility.yul\":4838:4840   */\n      0x40\n        /* \"#utility.yul\":4833:4836   */\n      dup3\n        /* \"#utility.yul\":4829:4841   */\n      add\n        /* \"#utility.yul\":4822:4841   */\n      swap1\n      pop\n        /* \"#utility.yul\":4481:4847   */\n      swap2\n      swap1\n      pop\n      jump\t// out\n        /* \"#utility.yul\":4853:5219   */\n    tag_338:\n        /* \"#utility.yul\":4995:4998   */\n      0x00\n        /* \"#utility.yul\":5016:5083   */\n      tag_340\n        /* \"#utility.yul\":5080:5082   */\n      0x10\n        /* \"#utility.yul\":5075:5078   */\n      dup4\n        /* \"#utility.yul\":5016:5083   */\n      tag_330\n      jump\t// in\n    tag_340:\n        /* \"#utility.yul\":5009:5083   */\n      swap2\n      pop\n        /* \"#utility.yul\":5092:5185   */\n      tag_341\n        /* \"#utility.yul\":5181:5184   */\n      dup3\n        /* \"#utility.yul\":5092:5185   */\n      tag_342\n      jump\t// in\n    tag_341:\n        /* \"#utility.yul\":5210:5212   */\n      0x20\n        /* \"#utility.yul\":5205:5208   */\n      dup3\n        /* \"#utility.yul\":5201:5213   */\n      add\n        /* \"#utility.yul\":5194:5213   */\n      swap1\n      pop\n        /* \"#utility.yul\":4853:5219   */\n      swap2\n      swap1\n      pop\n      jump\t// out\n        /* \"#utility.yul\":5225:5591   */\n    tag_343:\n        /* \"#utility.yul\":5367:5370   */\n      0x00\n        /* \"#utility.yul\":5388:5455   */\n      tag_345\n        /* \"#utility.yul\":5452:5454   */\n      0x20\n        /* \"#utility.yul\":5447:5450   */\n      dup4\n        /* \"#utility.yul\":5388:5455   */\n      tag_330\n      jump\t// in\n    tag_345:\n        /* \"#utility.yul\":5381:5455   */\n      swap2\n      pop\n        /* \"#utility.yul\":5464:5557   */\n      tag_346\n        /* \"#utility.yul\":5553:5556   */\n      dup3\n        /* \"#utility.yul\":5464:5557   */\n      tag_347\n      jump\t// in\n    tag_346:\n        /* \"#utility.yul\":5582:5584   */\n      0x20\n        /* \"#utility.yul\":5577:5580   */\n      dup3\n        /* \"#utility.yul\":5573:5585   */\n      add\n        /* \"#utility.yul\":5566:5585   */\n      swap1\n      pop\n        /* \"#utility.yul\":5225:5591   */\n      swap2\n      swap1\n      pop\n      jump\t// out\n        /* \"#utility.yul\":5597:5963   */\n    tag_348:\n        /* \"#utility.yul\":5739:5742   */\n      0x00\n        /* \"#utility.yul\":5760:5827   */\n      tag_350\n        /* \"#utility.yul\":5824:5826   */\n      0x11\n        /* \"#utility.yul\":5819:5822   */\n      dup4\n        /* \"#utility.yul\":5760:5827   */\n      tag_330\n      jump\t// in\n    tag_350:\n        /* \"#utility.yul\":5753:5827   */\n      swap2\n      pop\n        /* \"#utility.yul\":5836:5929   */\n      tag_351\n        /* \"#utility.yul\":5925:5928   */\n      dup3\n        /* \"#utility.yul\":5836:5929   */\n      tag_352\n      jump\t// in\n    tag_351:\n        /* \"#utility.yul\":5954:5956   */\n      0x20\n        /* \"#utility.yul\":5949:5952   */\n      dup3\n        /* \"#utility.yul\":5945:5957   */\n      add\n        /* \"#utility.yul\":5938:5957   */\n      swap1\n      pop\n        /* \"#utility.yul\":5597:5963   */\n      swap2\n      swap1\n      pop\n      jump\t// out\n        /* \"#utility.yul\":5969:6335   */\n    tag_353:\n        /* \"#utility.yul\":6111:6114   */\n      0x00\n        /* \"#utility.yul\":6132:6199   */\n      tag_355\n        /* \"#utility.yul\":6196:6198   */\n      0x12\n        /* \"#utility.yul\":6191:6194   */\n      dup4\n        /* \"#utility.yul\":6132:6199   */\n      tag_330\n      jump\t// in\n    tag_355:\n        /* \"#utility.yul\":6125:6199   */\n      swap2\n      pop\n        /* \"#utility.yul\":6208:6301   */\n      tag_356\n        /* \"#utility.yul\":6297:6300   */\n      dup3\n        /* \"#utility.yul\":6208:6301   */\n      tag_357\n      jump\t// in\n    tag_356:\n        /* \"#utility.yul\":6326:6328   */\n      0x20\n        /* \"#utility.yul\":6321:6324   */\n      dup3\n        /* \"#utility.yul\":6317:6329   */\n      add\n        /* \"#utility.yul\":6310:6329   */\n      swap1\n      pop\n        /* \"#utility.yul\":5969:6335   */\n      swap2\n      swap1\n      pop\n      jump\t// out\n        /* \"#utility.yul\":6401:6907   */\n    tag_358:\n        /* \"#utility.yul\":6542:6546   */\n      0x40\n        /* \"#utility.yul\":6537:6540   */\n      dup3\n        /* \"#utility.yul\":6533:6547   */\n      add\n        /* \"#utility.yul\":6628:6632   */\n      0x00\n        /* \"#utility.yul\":6621:6626   */\n      dup3\n        /* \"#utility.yul\":6617:6633   */\n      add\n        /* \"#utility.yul\":6611:6634   */\n      mload\n        /* \"#utility.yul\":6647:6710   */\n      tag_360\n        /* \"#utility.yul\":6704:6708   */\n      0x00\n        /* \"#utility.yul\":6699:6702   */\n      dup6\n        /* \"#utility.yul\":6695:6709   */\n      add\n        /* \"#utility.yul\":6681:6693   */\n      dup3\n        /* \"#utility.yul\":6647:6710   */\n      tag_361\n      jump\t// in\n    tag_360:\n        /* \"#utility.yul\":6557:6720   */\n      pop\n        /* \"#utility.yul\":6808:6812   */\n      0x20\n        /* \"#utility.yul\":6801:6806   */\n      dup3\n        /* \"#utility.yul\":6797:6813   */\n      add\n        /* \"#utility.yul\":6791:6814   */\n      mload\n        /* \"#utility.yul\":6827:6890   */\n      tag_362\n        /* \"#utility.yul\":6884:6888   */\n      0x20\n        /* \"#utility.yul\":6879:6882   */\n      dup6\n        /* \"#utility.yul\":6875:6889   */\n      add\n        /* \"#utility.yul\":6861:6873   */\n      dup3\n        /* \"#utility.yul\":6827:6890   */\n      tag_361\n      jump\t// in\n    tag_362:\n        /* \"#utility.yul\":6730:6900   */\n      pop\n        /* \"#utility.yul\":6511:6907   */\n      pop\n        /* \"#utility.yul\":6401:6907   */\n      pop\n      pop\n      jump\t// out\n        /* \"#utility.yul\":6971:8012   */\n    tag_363:\n        /* \"#utility.yul\":7110:7114   */\n      0xa0\n        /* \"#utility.yul\":7105:7108   */\n      dup3\n        /* \"#utility.yul\":7101:7115   */\n      add\n        /* \"#utility.yul\":7200:7204   */\n      0x00\n        /* \"#utility.yul\":7193:7198   */\n      dup3\n        /* \"#utility.yul\":7189:7205   */\n      add\n        /* \"#utility.yul\":7183:7206   */\n      mload\n        /* \"#utility.yul\":7219:7282   */\n      tag_365\n        /* \"#utility.yul\":7276:7280   */\n      0x00\n        /* \"#utility.yul\":7271:7274   */\n      dup6\n        /* \"#utility.yul\":7267:7281   */\n      add\n        /* \"#utility.yul\":7253:7265   */\n      dup3\n        /* \"#utility.yul\":7219:7282   */\n      tag_361\n      jump\t// in\n    tag_365:\n        /* \"#utility.yul\":7125:7292   */\n      pop\n        /* \"#utility.yul\":7377:7381   */\n      0x20\n        /* \"#utility.yul\":7370:7375   */\n      dup3\n        /* \"#utility.yul\":7366:7382   */\n      add\n        /* \"#utility.yul\":7360:7383   */\n      mload\n        /* \"#utility.yul\":7396:7459   */\n      tag_366\n        /* \"#utility.yul\":7453:7457   */\n      0x20\n        /* \"#utility.yul\":7448:7451   */\n      dup6\n        /* \"#utility.yul\":7444:7458   */\n      add\n        /* \"#utility.yul\":7430:7442   */\n      dup3\n        /* \"#utility.yul\":7396:7459   */\n      tag_361\n      jump\t// in\n    tag_366:\n        /* \"#utility.yul\":7302:7469   */\n      pop\n        /* \"#utility.yul\":7554:7558   */\n      0x40\n        /* \"#utility.yul\":7547:7552   */\n      dup3\n        /* \"#utility.yul\":7543:7559   */\n      add\n        /* \"#utility.yul\":7537:7560   */\n      mload\n        /* \"#utility.yul\":7573:7636   */\n      tag_367\n        /* \"#utility.yul\":7630:7634   */\n      0x40\n        /* \"#utility.yul\":7625:7628   */\n      dup6\n        /* \"#utility.yul\":7621:7635   */\n      add\n        /* \"#utility.yul\":7607:7619   */\n      dup3\n        /* \"#utility.yul\":7573:7636   */\n      tag_361\n      jump\t// in\n    tag_367:\n        /* \"#utility.yul\":7479:7646   */\n      pop\n        /* \"#utility.yul\":7733:7737   */\n      0x60\n        /* \"#utility.yul\":7726:7731   */\n      dup3\n        /* \"#utility.yul\":7722:7738   */\n      add\n        /* \"#utility.yul\":7716:7739   */\n      mload\n        /* \"#utility.yul\":7752:7815   */\n      tag_368\n        /* \"#utility.yul\":7809:7813   */\n      0x60\n        /* \"#utility.yul\":7804:7807   */\n      dup6\n        /* \"#utility.yul\":7800:7814   */\n      add\n        /* \"#utility.yul\":7786:7798   */\n      dup3\n        /* \"#utility.yul\":7752:7815   */\n      tag_361\n      jump\t// in\n    tag_368:\n        /* \"#utility.yul\":7656:7825   */\n      pop\n        /* \"#utility.yul\":7913:7917   */\n      0x80\n        /* \"#utility.yul\":7906:7911   */\n      dup3\n        /* \"#utility.yul\":7902:7918   */\n      add\n        /* \"#utility.yul\":7896:7919   */\n      mload\n        /* \"#utility.yul\":7932:7995   */\n      tag_369\n        /* \"#utility.yul\":7989:7993   */\n      0x80\n        /* \"#utility.yul\":7984:7987   */\n      dup6\n        /* \"#utility.yul\":7980:7994   */\n      add\n        /* \"#utility.yul\":7966:7978   */\n      dup3\n        /* \"#utility.yul\":7932:7995   */\n      tag_361\n      jump\t// in\n    tag_369:\n        /* \"#utility.yul\":7835:8005   */\n      pop\n        /* \"#utility.yul\":7079:8012   */\n      pop\n        /* \"#utility.yul\":6971:8012   */\n      pop\n      pop\n      jump\t// out\n        /* \"#utility.yul\":8018:8126   */\n    tag_361:\n        /* \"#utility.yul\":8095:8119   */\n      tag_371\n        /* \"#utility.yul\":8113:8118   */\n      dup2\n        /* \"#utility.yul\":8095:8119   */\n      tag_372\n      jump\t// in\n    tag_371:\n        /* \"#utility.yul\":8090:8093   */\n      dup3\n        /* \"#utility.yul\":8083:8120   */\n      mstore\n        /* \"#utility.yul\":8018:8126   */\n      pop\n      pop\n      jump\t// out\n        /* \"#utility.yul\":8132:8250   */\n    tag_373:\n        /* \"#utility.yul\":8219:8243   */\n      tag_375\n        /* \"#utility.yul\":8237:8242   */\n      dup2\n        /* \"#utility.yul\":8219:8243   */\n      tag_372\n      jump\t// in\n    tag_375:\n        /* \"#utility.yul\":8214:8217   */\n      dup3\n        /* \"#utility.yul\":8207:8244   */\n      mstore\n        /* \"#utility.yul\":8132:8250   */\n      pop\n      pop\n      jump\t// out\n        /* \"#utility.yul\":8256:8478   */\n    tag_68:\n        /* \"#utility.yul\":8349:8353   */\n      0x00\n        /* \"#utility.yul\":8387:8389   */\n      0x20\n        /* \"#utility.yul\":8376:8385   */\n      dup3\n        /* \"#utility.yul\":8372:8390   */\n      add\n        /* \"#utility.yul\":8364:8390   */\n      swap1\n      pop\n        /* \"#utility.yul\":8400:8471   */\n      tag_377\n        /* \"#utility.yul\":8468:8469   */\n      0x00\n        /* \"#utility.yul\":8457:8466   */\n      dup4\n        /* \"#utility.yul\":8453:8470   */\n      add\n        /* \"#utility.yul\":8444:8450   */\n      dup5\n        /* \"#utility.yul\":8400:8471   */\n      tag_311\n      jump\t// in\n    tag_377:\n        /* \"#utility.yul\":8256:8478   */\n      swap3\n      swap2\n      pop\n      pop\n      jump\t// out\n        /* \"#utility.yul\":8484:8926   */\n    tag_218:\n        /* \"#utility.yul\":8633:8637   */\n      0x00\n        /* \"#utility.yul\":8671:8673   */\n      0x60\n        /* \"#utility.yul\":8660:8669   */\n      dup3\n        /* \"#utility.yul\":8656:8674   */\n      add\n        /* \"#utility.yul\":8648:8674   */\n      swap1\n      pop\n        /* \"#utility.yul\":8684:8755   */\n      tag_379\n        /* \"#utility.yul\":8752:8753   */\n      0x00\n        /* \"#utility.yul\":8741:8750   */\n      dup4\n        /* \"#utility.yul\":8737:8754   */\n      add\n        /* \"#utility.yul\":8728:8734   */\n      dup7\n        /* \"#utility.yul\":8684:8755   */\n      tag_311\n      jump\t// in\n    tag_379:\n        /* \"#utility.yul\":8765:8837   */\n      tag_380\n        /* \"#utility.yul\":8833:8835   */\n      0x20\n        /* \"#utility.yul\":8822:8831   */\n      dup4\n        /* \"#utility.yul\":8818:8836   */\n      add\n        /* \"#utility.yul\":8809:8815   */\n      dup6\n        /* \"#utility.yul\":8765:8837   */\n      tag_311\n      jump\t// in\n    tag_380:\n        /* \"#utility.yul\":8847:8919   */\n      tag_381\n        /* \"#utility.yul\":8915:8917   */\n      0x40\n        /* \"#utility.yul\":8904:8913   */\n      dup4\n        /* \"#utility.yul\":8900:8918   */\n      add\n        /* \"#utility.yul\":8891:8897   */\n      dup5\n        /* \"#utility.yul\":8847:8919   */\n      tag_373\n      jump\t// in\n    tag_381:\n        /* \"#utility.yul\":8484:8926   */\n      swap5\n      swap4\n      pop\n      pop\n      pop\n      pop\n      jump\t// out\n        /* \"#utility.yul\":8932:9390   */\n    tag_147:\n        /* \"#utility.yul\":9089:9093   */\n      0x00\n        /* \"#utility.yul\":9127:9129   */\n      0x60\n        /* \"#utility.yul\":9116:9125   */\n      dup3\n        /* \"#utility.yul\":9112:9130   */\n      add\n        /* \"#utility.yul\":9104:9130   */\n      swap1\n      pop\n        /* \"#utility.yul\":9140:9211   */\n      tag_383\n        /* \"#utility.yul\":9208:9209   */\n      0x00\n        /* \"#utility.yul\":9197:9206   */\n      dup4\n        /* \"#utility.yul\":9193:9210   */\n      add\n        /* \"#utility.yul\":9184:9190   */\n      dup7\n        /* \"#utility.yul\":9140:9211   */\n      tag_311\n      jump\t// in\n    tag_383:\n        /* \"#utility.yul\":9221:9301   */\n      tag_384\n        /* \"#utility.yul\":9297:9299   */\n      0x20\n        /* \"#utility.yul\":9286:9295   */\n      dup4\n        /* \"#utility.yul\":9282:9300   */\n      add\n        /* \"#utility.yul\":9273:9279   */\n      dup6\n        /* \"#utility.yul\":9221:9301   */\n      tag_323\n      jump\t// in\n    tag_384:\n        /* \"#utility.yul\":9311:9383   */\n      tag_385\n        /* \"#utility.yul\":9379:9381   */\n      0x40\n        /* \"#utility.yul\":9368:9377   */\n      dup4\n        /* \"#utility.yul\":9364:9382   */\n      add\n        /* \"#utility.yul\":9355:9361   */\n      dup5\n        /* \"#utility.yul\":9311:9383   */\n      tag_373\n      jump\t// in\n    tag_385:\n        /* \"#utility.yul\":8932:9390   */\n      swap5\n      swap4\n      pop\n      pop\n      pop\n      pop\n      jump\t// out\n        /* \"#utility.yul\":9396:9728   */\n    tag_111:\n        /* \"#utility.yul\":9517:9521   */\n      0x00\n        /* \"#utility.yul\":9555:9557   */\n      0x40\n        /* \"#utility.yul\":9544:9553   */\n      dup3\n        /* \"#utility.yul\":9540:9558   */\n      add\n        /* \"#utility.yul\":9532:9558   */\n      swap1\n      pop\n        /* \"#utility.yul\":9568:9639   */\n      tag_387\n        /* \"#utility.yul\":9636:9637   */\n      0x00\n        /* \"#utility.yul\":9625:9634   */\n      dup4\n        /* \"#utility.yul\":9621:9638   */\n      add\n        /* \"#utility.yul\":9612:9618   */\n      dup6\n        /* \"#utility.yul\":9568:9639   */\n      tag_311\n      jump\t// in\n    tag_387:\n        /* \"#utility.yul\":9649:9721   */\n      tag_388\n        /* \"#utility.yul\":9717:9719   */\n      0x20\n        /* \"#utility.yul\":9706:9715   */\n      dup4\n        /* \"#utility.yul\":9702:9720   */\n      add\n        /* \"#utility.yul\":9693:9699   */\n      dup5\n        /* \"#utility.yul\":9649:9721   */\n      tag_373\n      jump\t// in\n    tag_388:\n        /* \"#utility.yul\":9396:9728   */\n      swap4\n      swap3\n      pop\n      pop\n      pop\n      jump\t// out\n        /* \"#utility.yul\":9734:10176   */\n    tag_118:\n        /* \"#utility.yul\":9883:9887   */\n      0x00\n        /* \"#utility.yul\":9921:9923   */\n      0x60\n        /* \"#utility.yul\":9910:9919   */\n      dup3\n        /* \"#utility.yul\":9906:9924   */\n      add\n        /* \"#utility.yul\":9898:9924   */\n      swap1\n      pop\n        /* \"#utility.yul\":9934:10005   */\n      tag_390\n        /* \"#utility.yul\":10002:10003   */\n      0x00\n        /* \"#utility.yul\":9991:10000   */\n      dup4\n        /* \"#utility.yul\":9987:10004   */\n      add\n        /* \"#utility.yul\":9978:9984   */\n      dup7\n        /* \"#utility.yul\":9934:10005   */\n      tag_311\n      jump\t// in\n    tag_390:\n        /* \"#utility.yul\":10015:10087   */\n      tag_391\n        /* \"#utility.yul\":10083:10085   */\n      0x20\n        /* \"#utility.yul\":10072:10081   */\n      dup4\n        /* \"#utility.yul\":10068:10086   */\n      add\n        /* \"#utility.yul\":10059:10065   */\n      dup6\n        /* \"#utility.yul\":10015:10087   */\n      tag_373\n      jump\t// in\n    tag_391:\n        /* \"#utility.yul\":10097:10169   */\n      tag_392\n        /* \"#utility.yul\":10165:10167   */\n      0x40\n        /* \"#utility.yul\":10154:10163   */\n      dup4\n        /* \"#utility.yul\":10150:10168   */\n      add\n        /* \"#utility.yul\":10141:10147   */\n      dup5\n        /* \"#utility.yul\":10097:10169   */\n      tag_373\n      jump\t// in\n    tag_392:\n        /* \"#utility.yul\":9734:10176   */\n      swap5\n      swap4\n      pop\n      pop\n      pop\n      pop\n      jump\t// out\n        /* \"#utility.yul\":10182:10392   */\n    tag_52:\n        /* \"#utility.yul\":10269:10273   */\n      0x00\n        /* \"#utility.yul\":10307:10309   */\n      0x20\n        /* \"#utility.yul\":10296:10305   */\n      dup3\n        /* \"#utility.yul\":10292:10310   */\n      add\n        /* \"#utility.yul\":10284:10310   */\n      swap1\n      pop\n        /* \"#utility.yul\":10320:10385   */\n      tag_394\n        /* \"#utility.yul\":10382:10383   */\n      0x00\n        /* \"#utility.yul\":10371:10380   */\n      dup4\n        /* \"#utility.yul\":10367:10384   */\n      add\n        /* \"#utility.yul\":10358:10364   */\n      dup5\n        /* \"#utility.yul\":10320:10385   */\n      tag_315\n      jump\t// in\n    tag_394:\n        /* \"#utility.yul\":10182:10392   */\n      swap3\n      swap2\n      pop\n      pop\n      jump\t// out\n        /* \"#utility.yul\":10398:10648   */\n    tag_48:\n        /* \"#utility.yul\":10505:10509   */\n      0x00\n        /* \"#utility.yul\":10543:10545   */\n      0x20\n        /* \"#utility.yul\":10532:10541   */\n      dup3\n        /* \"#utility.yul\":10528:10546   */\n      add\n        /* \"#utility.yul\":10520:10546   */\n      swap1\n      pop\n        /* \"#utility.yul\":10556:10641   */\n      tag_396\n        /* \"#utility.yul\":10638:10639   */\n      0x00\n        /* \"#utility.yul\":10627:10636   */\n      dup4\n        /* \"#utility.yul\":10623:10640   */\n      add\n        /* \"#utility.yul\":10614:10620   */\n      dup5\n        /* \"#utility.yul\":10556:10641   */\n      tag_319\n      jump\t// in\n    tag_396:\n        /* \"#utility.yul\":10398:10648   */\n      swap3\n      swap2\n      pop\n      pop\n      jump\t// out\n        /* \"#utility.yul\":10654:11073   */\n    tag_250:\n        /* \"#utility.yul\":10820:10824   */\n      0x00\n        /* \"#utility.yul\":10858:10860   */\n      0x20\n        /* \"#utility.yul\":10847:10856   */\n      dup3\n        /* \"#utility.yul\":10843:10861   */\n      add\n        /* \"#utility.yul\":10835:10861   */\n      swap1\n      pop\n        /* \"#utility.yul\":10907:10916   */\n      dup2\n        /* \"#utility.yul\":10901:10905   */\n      dup2\n        /* \"#utility.yul\":10897:10917   */\n      sub\n        /* \"#utility.yul\":10893:10894   */\n      0x00\n        /* \"#utility.yul\":10882:10891   */\n      dup4\n        /* \"#utility.yul\":10878:10895   */\n      add\n        /* \"#utility.yul\":10871:10918   */\n      mstore\n        /* \"#utility.yul\":10935:11066   */\n      tag_398\n        /* \"#utility.yul\":11061:11065   */\n      dup2\n        /* \"#utility.yul\":10935:11066   */\n      tag_327\n      jump\t// in\n    tag_398:\n        /* \"#utility.yul\":10927:11066   */\n      swap1\n      pop\n        /* \"#utility.yul\":10654:11073   */\n      swap2\n      swap1\n      pop\n      jump\t// out\n        /* \"#utility.yul\":11079:11498   */\n    tag_243:\n        /* \"#utility.yul\":11245:11249   */\n      0x00\n        /* \"#utility.yul\":11283:11285   */\n      0x20\n        /* \"#utility.yul\":11272:11281   */\n      dup3\n        /* \"#utility.yul\":11268:11286   */\n      add\n        /* \"#utility.yul\":11260:11286   */\n      swap1\n      pop\n        /* \"#utility.yul\":11332:11341   */\n      dup2\n        /* \"#utility.yul\":11326:11330   */\n      dup2\n        /* \"#utility.yul\":11322:11342   */\n      sub\n        /* \"#utility.yul\":11318:11319   */\n      0x00\n        /* \"#utility.yul\":11307:11316   */\n      dup4\n        /* \"#utility.yul\":11303:11320   */\n      add\n        /* \"#utility.yul\":11296:11343   */\n      mstore\n        /* \"#utility.yul\":11360:11491   */\n      tag_400\n        /* \"#utility.yul\":11486:11490   */\n      dup2\n        /* \"#utility.yul\":11360:11491   */\n      tag_333\n      jump\t// in\n    tag_400:\n        /* \"#utility.yul\":11352:11491   */\n      swap1\n      pop\n        /* \"#utility.yul\":11079:11498   */\n      swap2\n      swap1\n      pop\n      jump\t// out\n        /* \"#utility.yul\":11504:11923   */\n    tag_215:\n        /* \"#utility.yul\":11670:11674   */\n      0x00\n        /* \"#utility.yul\":11708:11710   */\n      0x20\n        /* \"#utility.yul\":11697:11706   */\n      dup3\n        /* \"#utility.yul\":11693:11711   */\n      add\n        /* \"#utility.yul\":11685:11711   */\n      swap1\n      pop\n        /* \"#utility.yul\":11757:11766   */\n      dup2\n        /* \"#utility.yul\":11751:11755   */\n      dup2\n        /* \"#utility.yul\":11747:11767   */\n      sub\n        /* \"#utility.yul\":11743:11744   */\n      0x00\n        /* \"#utility.yul\":11732:11741   */\n      dup4\n        /* \"#utility.yul\":11728:11745   */\n      add\n        /* \"#utility.yul\":11721:11768   */\n      mstore\n        /* \"#utility.yul\":11785:11916   */\n      tag_402\n        /* \"#utility.yul\":11911:11915   */\n      dup2\n        /* \"#utility.yul\":11785:11916   */\n      tag_338\n      jump\t// in\n    tag_402:\n        /* \"#utility.yul\":11777:11916   */\n      swap1\n      pop\n        /* \"#utility.yul\":11504:11923   */\n      swap2\n      swap1\n      pop\n      jump\t// out\n        /* \"#utility.yul\":11929:12348   */\n    tag_101:\n        /* \"#utility.yul\":12095:12099   */\n      0x00\n        /* \"#utility.yul\":12133:12135   */\n      0x20\n        /* \"#utility.yul\":12122:12131   */\n      dup3\n        /* \"#utility.yul\":12118:12136   */\n      add\n        /* \"#utility.yul\":12110:12136   */\n      swap1\n      pop\n        /* \"#utility.yul\":12182:12191   */\n      dup2\n        /* \"#utility.yul\":12176:12180   */\n      dup2\n        /* \"#utility.yul\":12172:12192   */\n      sub\n        /* \"#utility.yul\":12168:12169   */\n      0x00\n        /* \"#utility.yul\":12157:12166   */\n      dup4\n        /* \"#utility.yul\":12153:12170   */\n      add\n        /* \"#utility.yul\":12146:12193   */\n      mstore\n        /* \"#utility.yul\":12210:12341   */\n      tag_404\n        /* \"#utility.yul\":12336:12340   */\n      dup2\n        /* \"#utility.yul\":12210:12341   */\n      tag_343\n      jump\t// in\n    tag_404:\n        /* \"#utility.yul\":12202:12341   */\n      swap1\n      pop\n        /* \"#utility.yul\":11929:12348   */\n      swap2\n      swap1\n      pop\n      jump\t// out\n        /* \"#utility.yul\":12354:12773   */\n    tag_106:\n        /* \"#utility.yul\":12520:12524   */\n      0x00\n        /* \"#utility.yul\":12558:12560   */\n      0x20\n        /* \"#utility.yul\":12547:12556   */\n      dup3\n        /* \"#utility.yul\":12543:12561   */\n      add\n        /* \"#utility.yul\":12535:12561   */\n      swap1\n      pop\n        /* \"#utility.yul\":12607:12616   */\n      dup2\n        /* \"#utility.yul\":12601:12605   */\n      dup2\n        /* \"#utility.yul\":12597:12617   */\n      sub\n        /* \"#utility.yul\":12593:12594   */\n      0x00\n        /* \"#utility.yul\":12582:12591   */\n      dup4\n        /* \"#utility.yul\":12578:12595   */\n      add\n        /* \"#utility.yul\":12571:12618   */\n      mstore\n        /* \"#utility.yul\":12635:12766   */\n      tag_406\n        /* \"#utility.yul\":12761:12765   */\n      dup2\n        /* \"#utility.yul\":12635:12766   */\n      tag_348\n      jump\t// in\n    tag_406:\n        /* \"#utility.yul\":12627:12766   */\n      swap1\n      pop\n        /* \"#utility.yul\":12354:12773   */\n      swap2\n      swap1\n      pop\n      jump\t// out\n        /* \"#utility.yul\":12779:13198   */\n    tag_130:\n        /* \"#utility.yul\":12945:12949   */\n      0x00\n        /* \"#utility.yul\":12983:12985   */\n      0x20\n        /* \"#utility.yul\":12972:12981   */\n      dup3\n        /* \"#utility.yul\":12968:12986   */\n      add\n        /* \"#utility.yul\":12960:12986   */\n      swap1\n      pop\n        /* \"#utility.yul\":13032:13041   */\n      dup2\n        /* \"#utility.yul\":13026:13030   */\n      dup2\n        /* \"#utility.yul\":13022:13042   */\n      sub\n        /* \"#utility.yul\":13018:13019   */\n      0x00\n        /* \"#utility.yul\":13007:13016   */\n      dup4\n        /* \"#utility.yul\":13003:13020   */\n      add\n        /* \"#utility.yul\":12996:13043   */\n      mstore\n        /* \"#utility.yul\":13060:13191   */\n      tag_408\n        /* \"#utility.yul\":13186:13190   */\n      dup2\n        /* \"#utility.yul\":13060:13191   */\n      tag_353\n      jump\t// in\n    tag_408:\n        /* \"#utility.yul\":13052:13191   */\n      swap1\n      pop\n        /* \"#utility.yul\":12779:13198   */\n      swap2\n      swap1\n      pop\n      jump\t// out\n        /* \"#utility.yul\":13204:14111   */\n    tag_86:\n        /* \"#utility.yul\":13557:13561   */\n      0x00\n        /* \"#utility.yul\":13595:13598   */\n      0x0100\n        /* \"#utility.yul\":13584:13593   */\n      dup3\n        /* \"#utility.yul\":13580:13599   */\n      add\n        /* \"#utility.yul\":13572:13599   */\n      swap1\n      pop\n        /* \"#utility.yul\":13609:13724   */\n      tag_410\n        /* \"#utility.yul\":13721:13722   */\n      0x00\n        /* \"#utility.yul\":13710:13719   */\n      dup4\n        /* \"#utility.yul\":13706:13723   */\n      add\n        /* \"#utility.yul\":13697:13703   */\n      dup8\n        /* \"#utility.yul\":13609:13724   */\n      tag_358\n      jump\t// in\n    tag_410:\n        /* \"#utility.yul\":13734:13850   */\n      tag_411\n        /* \"#utility.yul\":13846:13848   */\n      0x40\n        /* \"#utility.yul\":13835:13844   */\n      dup4\n        /* \"#utility.yul\":13831:13849   */\n      add\n        /* \"#utility.yul\":13822:13828   */\n      dup7\n        /* \"#utility.yul\":13734:13850   */\n      tag_358\n      jump\t// in\n    tag_411:\n        /* \"#utility.yul\":13860:13977   */\n      tag_412\n        /* \"#utility.yul\":13972:13975   */\n      0x80\n        /* \"#utility.yul\":13961:13970   */\n      dup4\n        /* \"#utility.yul\":13957:13976   */\n      add\n        /* \"#utility.yul\":13948:13954   */\n      dup6\n        /* \"#utility.yul\":13860:13977   */\n      tag_358\n      jump\t// in\n    tag_412:\n        /* \"#utility.yul\":13987:14104   */\n      tag_413\n        /* \"#utility.yul\":14099:14102   */\n      0xc0\n        /* \"#utility.yul\":14088:14097   */\n      dup4\n        /* \"#utility.yul\":14084:14103   */\n      add\n        /* \"#utility.yul\":14075:14081   */\n      dup5\n        /* \"#utility.yul\":13987:14104   */\n      tag_358\n      jump\t// in\n    tag_413:\n        /* \"#utility.yul\":13204:14111   */\n      swap6\n      swap5\n      pop\n      pop\n      pop\n      pop\n      pop\n      jump\t// out\n        /* \"#utility.yul\":14117:15453   */\n    tag_58:\n        /* \"#utility.yul\":14574:14578   */\n      0x00\n        /* \"#utility.yul\":14612:14615   */\n      0x0300\n        /* \"#utility.yul\":14601:14610   */\n      dup3\n        /* \"#utility.yul\":14597:14616   */\n      add\n        /* \"#utility.yul\":14589:14616   */\n      swap1\n      pop\n        /* \"#utility.yul\":14626:14739   */\n      tag_415\n        /* \"#utility.yul\":14736:14737   */\n      0x00\n        /* \"#utility.yul\":14725:14734   */\n      dup4\n        /* \"#utility.yul\":14721:14738   */\n      add\n        /* \"#utility.yul\":14712:14718   */\n      dup12\n        /* \"#utility.yul\":14626:14739   */\n      tag_363\n      jump\t// in\n    tag_415:\n        /* \"#utility.yul\":14749:14864   */\n      tag_416\n        /* \"#utility.yul\":14859:14862   */\n      0xa0\n        /* \"#utility.yul\":14848:14857   */\n      dup4\n        /* \"#utility.yul\":14844:14863   */\n      add\n        /* \"#utility.yul\":14835:14841   */\n      dup11\n        /* \"#utility.yul\":14749:14864   */\n      tag_363\n      jump\t// in\n    tag_416:\n        /* \"#utility.yul\":14874:14989   */\n      tag_417\n        /* \"#utility.yul\":14984:14987   */\n      0x0140\n        /* \"#utility.yul\":14973:14982   */\n      dup4\n        /* \"#utility.yul\":14969:14988   */\n      add\n        /* \"#utility.yul\":14960:14966   */\n      dup10\n        /* \"#utility.yul\":14874:14989   */\n      tag_363\n      jump\t// in\n    tag_417:\n        /* \"#utility.yul\":14999:15114   */\n      tag_418\n        /* \"#utility.yul\":15109:15112   */\n      0x01e0\n        /* \"#utility.yul\":15098:15107   */\n      dup4\n        /* \"#utility.yul\":15094:15113   */\n      add\n        /* \"#utility.yul\":15085:15091   */\n      dup9\n        /* \"#utility.yul\":14999:15114   */\n      tag_363\n      jump\t// in\n    tag_418:\n        /* \"#utility.yul\":15124:15197   */\n      tag_419\n        /* \"#utility.yul\":15192:15195   */\n      0x0280\n        /* \"#utility.yul\":15181:15190   */\n      dup4\n        /* \"#utility.yul\":15177:15196   */\n      add\n        /* \"#utility.yul\":15168:15174   */\n      dup8\n        /* \"#utility.yul\":15124:15197   */\n      tag_373\n      jump\t// in\n    tag_419:\n        /* \"#utility.yul\":15207:15280   */\n      tag_420\n        /* \"#utility.yul\":15275:15278   */\n      0x02a0\n        /* \"#utility.yul\":15264:15273   */\n      dup4\n        /* \"#utility.yul\":15260:15279   */\n      add\n        /* \"#utility.yul\":15251:15257   */\n      dup7\n        /* \"#utility.yul\":15207:15280   */\n      tag_373\n      jump\t// in\n    tag_420:\n        /* \"#utility.yul\":15290:15363   */\n      tag_421\n        /* \"#utility.yul\":15358:15361   */\n      0x02c0\n        /* \"#utility.yul\":15347:15356   */\n      dup4\n        /* \"#utility.yul\":15343:15362   */\n      add\n        /* \"#utility.yul\":15334:15340   */\n      dup6\n        /* \"#utility.yul\":15290:15363   */\n      tag_373\n      jump\t// in\n    tag_421:\n        /* \"#utility.yul\":15373:15446   */\n      tag_422\n        /* \"#utility.yul\":15441:15444   */\n      0x02e0\n        /* \"#utility.yul\":15430:15439   */\n      dup4\n        /* \"#utility.yul\":15426:15445   */\n      add\n        /* \"#utility.yul\":15417:15423   */\n      dup5\n        /* \"#utility.yul\":15373:15446   */\n      tag_373\n      jump\t// in\n    tag_422:\n        /* \"#utility.yul\":14117:15453   */\n      swap10\n      swap9\n      pop\n      pop\n      pop\n      pop\n      pop\n      pop\n      pop\n      pop\n      pop\n      jump\t// out\n        /* \"#utility.yul\":15459:15681   */\n    tag_79:\n        /* \"#utility.yul\":15552:15556   */\n      0x00\n        /* \"#utility.yul\":15590:15592   */\n      0x20\n        /* \"#utility.yul\":15579:15588   */\n      dup3\n        /* \"#utility.yul\":15575:15593   */\n      add\n        /* \"#utility.yul\":15567:15593   */\n      swap1\n      pop\n        /* \"#utility.yul\":15603:15674   */\n      tag_424\n        /* \"#utility.yul\":15671:15672   */\n      0x00\n        /* \"#utility.yul\":15660:15669   */\n      dup4\n        /* \"#utility.yul\":15656:15673   */\n      add\n        /* \"#utility.yul\":15647:15653   */\n      dup5\n        /* \"#utility.yul\":15603:15674   */\n      tag_373\n      jump\t// in\n    tag_424:\n        /* \"#utility.yul\":15459:15681   */\n      swap3\n      swap2\n      pop\n      pop\n      jump\t// out\n        /* \"#utility.yul\":15687:16019   */\n    tag_91:\n        /* \"#utility.yul\":15808:15812   */\n      0x00\n        /* \"#utility.yul\":15846:15848   */\n      0x40\n        /* \"#utility.yul\":15835:15844   */\n      dup3\n        /* \"#utility.yul\":15831:15849   */\n      add\n        /* \"#utility.yul\":15823:15849   */\n      swap1\n      pop\n        /* \"#utility.yul\":15859:15930   */\n      tag_426\n        /* \"#utility.yul\":15927:15928   */\n      0x00\n        /* \"#utility.yul\":15916:15925   */\n      dup4\n        /* \"#utility.yul\":15912:15929   */\n      add\n        /* \"#utility.yul\":15903:15909   */\n      dup6\n        /* \"#utility.yul\":15859:15930   */\n      tag_373\n      jump\t// in\n    tag_426:\n        /* \"#utility.yul\":15940:16012   */\n      tag_427\n        /* \"#utility.yul\":16008:16010   */\n      0x20\n        /* \"#utility.yul\":15997:16006   */\n      dup4\n        /* \"#utility.yul\":15993:16011   */\n      add\n        /* \"#utility.yul\":15984:15990   */\n      dup5\n        /* \"#utility.yul\":15940:16012   */\n      tag_373\n      jump\t// in\n    tag_427:\n        /* \"#utility.yul\":15687:16019   */\n      swap4\n      swap3\n      pop\n      pop\n      pop\n      jump\t// out\n        /* \"#utility.yul\":16025:16689   */\n    tag_30:\n        /* \"#utility.yul\":16230:16234   */\n      0x00\n        /* \"#utility.yul\":16268:16271   */\n      0xa0\n        /* \"#utility.yul\":16257:16266   */\n      dup3\n        /* \"#utility.yul\":16253:16272   */\n      add\n        /* \"#utility.yul\":16245:16272   */\n      swap1\n      pop\n        /* \"#utility.yul\":16282:16353   */\n      tag_429\n        /* \"#utility.yul\":16350:16351   */\n      0x00\n        /* \"#utility.yul\":16339:16348   */\n      dup4\n        /* \"#utility.yul\":16335:16352   */\n      add\n        /* \"#utility.yul\":16326:16332   */\n      dup9\n        /* \"#utility.yul\":16282:16353   */\n      tag_373\n      jump\t// in\n    tag_429:\n        /* \"#utility.yul\":16363:16435   */\n      tag_430\n        /* \"#utility.yul\":16431:16433   */\n      0x20\n        /* \"#utility.yul\":16420:16429   */\n      dup4\n        /* \"#utility.yul\":16416:16434   */\n      add\n        /* \"#utility.yul\":16407:16413   */\n      dup8\n        /* \"#utility.yul\":16363:16435   */\n      tag_373\n      jump\t// in\n    tag_430:\n        /* \"#utility.yul\":16445:16517   */\n      tag_431\n        /* \"#utility.yul\":16513:16515   */\n      0x40\n        /* \"#utility.yul\":16502:16511   */\n      dup4\n        /* \"#utility.yul\":16498:16516   */\n      add\n        /* \"#utility.yul\":16489:16495   */\n      dup7\n        /* \"#utility.yul\":16445:16517   */\n      tag_373\n      jump\t// in\n    tag_431:\n        /* \"#utility.yul\":16527:16599   */\n      tag_432\n        /* \"#utility.yul\":16595:16597   */\n      0x60\n        /* \"#utility.yul\":16584:16593   */\n      dup4\n        /* \"#utility.yul\":16580:16598   */\n      add\n        /* \"#utility.yul\":16571:16577   */\n      dup6\n        /* \"#utility.yul\":16527:16599   */\n      tag_373\n      jump\t// in\n    tag_432:\n        /* \"#utility.yul\":16609:16682   */\n      tag_433\n        /* \"#utility.yul\":16677:16680   */\n      0x80\n        /* \"#utility.yul\":16666:16675   */\n      dup4\n        /* \"#utility.yul\":16662:16681   */\n      add\n        /* \"#utility.yul\":16653:16659   */\n      dup5\n        /* \"#utility.yul\":16609:16682   */\n      tag_373\n      jump\t// in\n    tag_433:\n        /* \"#utility.yul\":16025:16689   */\n      swap7\n      swap6\n      pop\n      pop\n      pop\n      pop\n      pop\n      pop\n      jump\t// out\n        /* \"#utility.yul\":16776:16945   */\n    tag_330:\n        /* \"#utility.yul\":16860:16871   */\n      0x00\n        /* \"#utility.yul\":16894:16900   */\n      dup3\n        /* \"#utility.yul\":16889:16892   */\n      dup3\n        /* \"#utility.yul\":16882:16901   */\n      mstore\n        /* \"#utility.yul\":16934:16938   */\n      0x20\n        /* \"#utility.yul\":16929:16932   */\n      dup3\n        /* \"#utility.yul\":16925:16939   */\n      add\n        /* \"#utility.yul\":16910:16939   */\n      swap1\n      pop\n        /* \"#utility.yul\":16776:16945   */\n      swap3\n      swap2\n      pop\n      pop\n      jump\t// out\n        /* \"#utility.yul\":16951:17256   */\n    tag_109:\n        /* \"#utility.yul\":16991:16994   */\n      0x00\n        /* \"#utility.yul\":17010:17030   */\n      tag_438\n        /* \"#utility.yul\":17028:17029   */\n      dup3\n        /* \"#utility.yul\":17010:17030   */\n      tag_372\n      jump\t// in\n    tag_438:\n        /* \"#utility.yul\":17005:17030   */\n      swap2\n      pop\n        /* \"#utility.yul\":17044:17064   */\n      tag_439\n        /* \"#utility.yul\":17062:17063   */\n      dup4\n        /* \"#utility.yul\":17044:17064   */\n      tag_372\n      jump\t// in\n    tag_439:\n        /* \"#utility.yul\":17039:17064   */\n      swap3\n      pop\n        /* \"#utility.yul\":17198:17199   */\n      dup3\n        /* \"#utility.yul\":17130:17196   */\n      0xffffffffffffffffffffffffffffffffffffffffffffffffffffffffffffffff\n        /* \"#utility.yul\":17126:17200   */\n      sub\n        /* \"#utility.yul\":17123:17124   */\n      dup3\n        /* \"#utility.yul\":17120:17201   */\n      gt\n        /* \"#utility.yul\":17117:17224   */\n      iszero\n      tag_440\n      jumpi\n        /* \"#utility.yul\":17204:17222   */\n      tag_441\n      tag_442\n      jump\t// in\n    tag_441:\n        /* \"#utility.yul\":17117:17224   */\n    tag_440:\n        /* \"#utility.yul\":17248:17249   */\n      dup3\n        /* \"#utility.yul\":17245:17246   */\n      dup3\n        /* \"#utility.yul\":17241:17250   */\n      add\n        /* \"#utility.yul\":17234:17250   */\n      swap1\n      pop\n        /* \"#utility.yul\":16951:17256   */\n      swap3\n      swap2\n      pop\n      pop\n      jump\t// out\n        /* \"#utility.yul\":17262:17447   */\n    tag_137:\n        /* \"#utility.yul\":17302:17303   */\n      0x00\n        /* \"#utility.yul\":17319:17339   */\n      tag_444\n        /* \"#utility.yul\":17337:17338   */\n      dup3\n        /* \"#utility.yul\":17319:17339   */\n      tag_372\n      jump\t// in\n    tag_444:\n        /* \"#utility.yul\":17314:17339   */\n      swap2\n      pop\n        /* \"#utility.yul\":17353:17373   */\n      tag_445\n        /* \"#utility.yul\":17371:17372   */\n      dup4\n        /* \"#utility.yul\":17353:17373   */\n      tag_372\n      jump\t// in\n    tag_445:\n        /* \"#utility.yul\":17348:17373   */\n      swap3\n      pop\n        /* \"#utility.yul\":17392:17393   */\n      dup3\n        /* \"#utility.yul\":17382:17417   */\n      tag_446\n      jumpi\n        /* \"#utility.yul\":17397:17415   */\n      tag_447\n      tag_448\n      jump\t// in\n    tag_447:\n        /* \"#utility.yul\":17382:17417   */\n    tag_446:\n        /* \"#utility.yul\":17439:17440   */\n      dup3\n        /* \"#utility.yul\":17436:17437   */\n      dup3\n        /* \"#utility.yul\":17432:17441   */\n      div\n        /* \"#utility.yul\":17427:17441   */\n      swap1\n      pop\n        /* \"#utility.yul\":17262:17447   */\n      swap3\n      swap2\n      pop\n      pop\n      jump\t// out\n        /* \"#utility.yul\":17453:17801   */\n    tag_135:\n        /* \"#utility.yul\":17493:17500   */\n      0x00\n        /* \"#utility.yul\":17516:17536   */\n      tag_450\n        /* \"#utility.yul\":17534:17535   */\n      dup3\n        /* \"#utility.yul\":17516:17536   */\n      tag_372\n      jump\t// in\n    tag_450:\n        /* \"#utility.yul\":17511:17536   */\n      swap2\n      pop\n        /* \"#utility.yul\":17550:17570   */\n      tag_451\n        /* \"#utility.yul\":17568:17569   */\n      dup4\n        /* \"#utility.yul\":17550:17570   */\n      tag_372\n      jump\t// in\n    tag_451:\n        /* \"#utility.yul\":17545:17570   */\n      swap3\n      pop\n        /* \"#utility.yul\":17738:17739   */\n      dup2\n        /* \"#utility.yul\":17670:17736   */\n      0xffffffffffffffffffffffffffffffffffffffffffffffffffffffffffffffff\n        /* \"#utility.yul\":17666:17740   */\n      div\n        /* \"#utility.yul\":17663:17664   */\n      dup4\n        /* \"#utility.yul\":17660:17741   */\n      gt\n        /* \"#utility.yul\":17655:17656   */\n      dup3\n        /* \"#utility.yul\":17648:17657   */\n      iszero\n        /* \"#utility.yul\":17641:17658   */\n      iszero\n        /* \"#utility.yul\":17637:17742   */\n      and\n        /* \"#utility.yul\":17634:17765   */\n      iszero\n      tag_452\n      jumpi\n        /* \"#utility.yul\":17745:17763   */\n      tag_453\n      tag_442\n      jump\t// in\n    tag_453:\n        /* \"#utility.yul\":17634:17765   */\n    tag_452:\n        /* \"#utility.yul\":17793:17794   */\n      dup3\n        /* \"#utility.yul\":17790:17791   */\n      dup3\n        /* \"#utility.yul\":17786:17795   */\n      mul\n        /* \"#utility.yul\":17775:17795   */\n      swap1\n      pop\n        /* \"#utility.yul\":17453:17801   */\n      swap3\n      swap2\n      pop\n      pop\n      jump\t// out\n        /* \"#utility.yul\":17807:17998   */\n    tag_139:\n        /* \"#utility.yul\":17847:17851   */\n      0x00\n        /* \"#utility.yul\":17867:17887   */\n      tag_455\n        /* \"#utility.yul\":17885:17886   */\n      dup3\n        /* \"#utility.yul\":17867:17887   */\n      tag_372\n      jump\t// in\n    tag_455:\n        /* \"#utility.yul\":17862:17887   */\n      swap2\n      pop\n        /* \"#utility.yul\":17901:17921   */\n      tag_456\n        /* \"#utility.yul\":17919:17920   */\n      dup4\n        /* \"#utility.yul\":17901:17921   */\n      tag_372\n      jump\t// in\n    tag_456:\n        /* \"#utility.yul\":17896:17921   */\n      swap3\n      pop\n        /* \"#utility.yul\":17940:17941   */\n      dup3\n        /* \"#utility.yul\":17937:17938   */\n      dup3\n        /* \"#utility.yul\":17934:17942   */\n      lt\n        /* \"#utility.yul\":17931:17965   */\n      iszero\n      tag_457\n      jumpi\n        /* \"#utility.yul\":17945:17963   */\n      tag_458\n      tag_442\n      jump\t// in\n    tag_458:\n        /* \"#utility.yul\":17931:17965   */\n    tag_457:\n        /* \"#utility.yul\":17990:17991   */\n      dup3\n        /* \"#utility.yul\":17987:17988   */\n      dup3\n        /* \"#utility.yul\":17983:17992   */\n      sub\n        /* \"#utility.yul\":17975:17992   */\n      swap1\n      pop\n        /* \"#utility.yul\":17807:17998   */\n      swap3\n      swap2\n      pop\n      pop\n      jump\t// out\n        /* \"#utility.yul\":18004:18100   */\n    tag_314:\n        /* \"#utility.yul\":18041:18048   */\n      0x00\n        /* \"#utility.yul\":18070:18094   */\n      tag_460\n        /* \"#utility.yul\":18088:18093   */\n      dup3\n        /* \"#utility.yul\":18070:18094   */\n      tag_461\n      jump\t// in\n    tag_460:\n        /* \"#utility.yul\":18059:18094   */\n      swap1\n      pop\n        /* \"#utility.yul\":18004:18100   */\n      swap2\n      swap1\n      pop\n      jump\t// out\n        /* \"#utility.yul\":18106:18196   */\n    tag_318:\n        /* \"#utility.yul\":18140:18147   */\n      0x00\n        /* \"#utility.yul\":18183:18188   */\n      dup2\n        /* \"#utility.yul\":18176:18189   */\n      iszero\n        /* \"#utility.yul\":18169:18190   */\n      iszero\n        /* \"#utility.yul\":18158:18190   */\n      swap1\n      pop\n        /* \"#utility.yul\":18106:18196   */\n      swap2\n      swap1\n      pop\n      jump\t// out\n        /* \"#utility.yul\":18202:18328   */\n    tag_461:\n        /* \"#utility.yul\":18239:18246   */\n      0x00\n        /* \"#utility.yul\":18279:18321   */\n      0xffffffffffffffffffffffffffffffffffffffff\n        /* \"#utility.yul\":18272:18277   */\n      dup3\n        /* \"#utility.yul\":18268:18322   */\n      and\n        /* \"#utility.yul\":18257:18322   */\n      swap1\n      pop\n        /* \"#utility.yul\":18202:18328   */\n      swap2\n      swap1\n      pop\n      jump\t// out\n        /* \"#utility.yul\":18334:18411   */\n    tag_372:\n        /* \"#utility.yul\":18371:18378   */\n      0x00\n        /* \"#utility.yul\":18400:18405   */\n      dup2\n        /* \"#utility.yul\":18389:18405   */\n      swap1\n      pop\n        /* \"#utility.yul\":18334:18411   */\n      swap2\n      swap1\n      pop\n      jump\t// out\n        /* \"#utility.yul\":18417:18557   */\n    tag_322:\n        /* \"#utility.yul\":18481:18490   */\n      0x00\n        /* \"#utility.yul\":18514:18551   */\n      tag_466\n        /* \"#utility.yul\":18545:18550   */\n      dup3\n        /* \"#utility.yul\":18514:18551   */\n      tag_467\n      jump\t// in\n    tag_466:\n        /* \"#utility.yul\":18501:18551   */\n      swap1\n      pop\n        /* \"#utility.yul\":18417:18557   */\n      swap2\n      swap1\n      pop\n      jump\t// out\n        /* \"#utility.yul\":18563:18684   */\n    tag_326:\n        /* \"#utility.yul\":18621:18630   */\n      0x00\n        /* \"#utility.yul\":18654:18678   */\n      tag_469\n        /* \"#utility.yul\":18672:18677   */\n      dup3\n        /* \"#utility.yul\":18654:18678   */\n      tag_372\n      jump\t// in\n    tag_469:\n        /* \"#utility.yul\":18641:18678   */\n      swap1\n      pop\n        /* \"#utility.yul\":18563:18684   */\n      swap2\n      swap1\n      pop\n      jump\t// out\n        /* \"#utility.yul\":18690:18816   */\n    tag_467:\n        /* \"#utility.yul\":18740:18749   */\n      0x00\n        /* \"#utility.yul\":18773:18810   */\n      tag_471\n        /* \"#utility.yul\":18804:18809   */\n      dup3\n        /* \"#utility.yul\":18773:18810   */\n      tag_472\n      jump\t// in\n    tag_471:\n        /* \"#utility.yul\":18760:18810   */\n      swap1\n      pop\n        /* \"#utility.yul\":18690:18816   */\n      swap2\n      swap1\n      pop\n      jump\t// out\n        /* \"#utility.yul\":18822:18935   */\n    tag_472:\n        /* \"#utility.yul\":18872:18881   */\n      0x00\n        /* \"#utility.yul\":18905:18929   */\n      tag_474\n        /* \"#utility.yul\":18923:18928   */\n      dup3\n        /* \"#utility.yul\":18905:18929   */\n      tag_461\n      jump\t// in\n    tag_474:\n        /* \"#utility.yul\":18892:18929   */\n      swap1\n      pop\n        /* \"#utility.yul\":18822:18935   */\n      swap2\n      swap1\n      pop\n      jump\t// out\n        /* \"#utility.yul\":18941:19121   */\n    tag_442:\n        /* \"#utility.yul\":18989:19066   */\n      0x4e487b7100000000000000000000000000000000000000000000000000000000\n        /* \"#utility.yul\":18986:18987   */\n      0x00\n        /* \"#utility.yul\":18979:19067   */\n      mstore\n        /* \"#utility.yul\":19086:19090   */\n      0x11\n        /* \"#utility.yul\":19083:19084   */\n      0x04\n        /* \"#utility.yul\":19076:19091   */\n      mstore\n        /* \"#utility.yul\":19110:19114   */\n      0x24\n        /* \"#utility.yul\":19107:19108   */\n      0x00\n        /* \"#utility.yul\":19100:19115   */\n      revert\n        /* \"#utility.yul\":19127:19307   */\n    tag_448:\n        /* \"#utility.yul\":19175:19252   */\n      0x4e487b7100000000000000000000000000000000000000000000000000000000\n        /* \"#utility.yul\":19172:19173   */\n      0x00\n        /* \"#utility.yul\":19165:19253   */\n      mstore\n        /* \"#utility.yul\":19272:19276   */\n      0x12\n        /* \"#utility.yul\":19269:19270   */\n      0x04\n        /* \"#utility.yul\":19262:19277   */\n      mstore\n        /* \"#utility.yul\":19296:19300   */\n      0x24\n        /* \"#utility.yul\":19293:19294   */\n      0x00\n        /* \"#utility.yul\":19286:19301   */\n      revert\n        /* \"#utility.yul\":19436:19553   */\n    tag_281:\n        /* \"#utility.yul\":19545:19546   */\n      0x00\n        /* \"#utility.yul\":19542:19543   */\n      dup1\n        /* \"#utility.yul\":19535:19547   */\n      revert\n        /* \"#utility.yul\":19559:19729   */\n    tag_332:\n        /* \"#utility.yul\":19699:19721   */\n      0x5061757361626c653a206e6f7420706175736564000000000000000000000000\n        /* \"#utility.yul\":19695:19696   */\n      0x00\n        /* \"#utility.yul\":19687:19693   */\n      dup3\n        /* \"#utility.yul\":19683:19697   */\n      add\n        /* \"#utility.yul\":19676:19722   */\n      mstore\n        /* \"#utility.yul\":19559:19729   */\n      pop\n      jump\t// out\n        /* \"#utility.yul\":19735:19960   */\n    tag_337:\n        /* \"#utility.yul\":19875:19909   */\n      0x4f776e61626c653a206e6577206f776e657220697320746865207a65726f2061\n        /* \"#utility.yul\":19871:19872   */\n      0x00\n        /* \"#utility.yul\":19863:19869   */\n      dup3\n        /* \"#utility.yul\":19859:19873   */\n      add\n        /* \"#utility.yul\":19852:19910   */\n      mstore\n        /* \"#utility.yul\":19944:19952   */\n      0x6464726573730000000000000000000000000000000000000000000000000000\n        /* \"#utility.yul\":19939:19941   */\n      0x20\n        /* \"#utility.yul\":19931:19937   */\n      dup3\n        /* \"#utility.yul\":19927:19942   */\n      add\n        /* \"#utility.yul\":19920:19953   */\n      mstore\n        /* \"#utility.yul\":19735:19960   */\n      pop\n      jump\t// out\n        /* \"#utility.yul\":19966:20132   */\n    tag_342:\n        /* \"#utility.yul\":20106:20124   */\n      0x5061757361626c653a2070617573656400000000000000000000000000000000\n        /* \"#utility.yul\":20102:20103   */\n      0x00\n        /* \"#utility.yul\":20094:20100   */\n      dup3\n        /* \"#utility.yul\":20090:20104   */\n      add\n        /* \"#utility.yul\":20083:20125   */\n      mstore\n        /* \"#utility.yul\":19966:20132   */\n      pop\n      jump\t// out\n        /* \"#utility.yul\":20138:20320   */\n    tag_347:\n        /* \"#utility.yul\":20278:20312   */\n      0x4f776e61626c653a2063616c6c6572206973206e6f7420746865206f776e6572\n        /* \"#utility.yul\":20274:20275   */\n      0x00\n        /* \"#utility.yul\":20266:20272   */\n      dup3\n        /* \"#utility.yul\":20262:20276   */\n      add\n        /* \"#utility.yul\":20255:20313   */\n      mstore\n        /* \"#utility.yul\":20138:20320   */\n      pop\n      jump\t// out\n        /* \"#utility.yul\":20326:20493   */\n    tag_352:\n        /* \"#utility.yul\":20466:20485   */\n      0x4e6f20616374697665206465706f736974000000000000000000000000000000\n        /* \"#utility.yul\":20462:20463   */\n      0x00\n        /* \"#utility.yul\":20454:20460   */\n      dup3\n        /* \"#utility.yul\":20450:20464   */\n      add\n        /* \"#utility.yul\":20443:20486   */\n      mstore\n        /* \"#utility.yul\":20326:20493   */\n      pop\n      jump\t// out\n        /* \"#utility.yul\":20499:20667   */\n    tag_357:\n        /* \"#utility.yul\":20639:20659   */\n      0x4e6f7420656e6f756768206465706f7369740000000000000000000000000000\n        /* \"#utility.yul\":20635:20636   */\n      0x00\n        /* \"#utility.yul\":20627:20633   */\n      dup3\n        /* \"#utility.yul\":20623:20637   */\n      add\n        /* \"#utility.yul\":20616:20660   */\n      mstore\n        /* \"#utility.yul\":20499:20667   */\n      pop\n      jump\t// out\n        /* \"#utility.yul\":20673:20795   */\n    tag_266:\n        /* \"#utility.yul\":20746:20770   */\n      tag_487\n        /* \"#utility.yul\":20764:20769   */\n      dup2\n        /* \"#utility.yul\":20746:20770   */\n      tag_314\n      jump\t// in\n    tag_487:\n        /* \"#utility.yul\":20739:20744   */\n      dup2\n        /* \"#utility.yul\":20736:20771   */\n      eq\n        /* \"#utility.yul\":20726:20789   */\n      tag_488\n      jumpi\n        /* \"#utility.yul\":20785:20786   */\n      0x00\n        /* \"#utility.yul\":20782:20783   */\n      dup1\n        /* \"#utility.yul\":20775:20787   */\n      revert\n        /* \"#utility.yul\":20726:20789   */\n    tag_488:\n        /* \"#utility.yul\":20673:20795   */\n      pop\n      jump\t// out\n        /* \"#utility.yul\":20801:20917   */\n    tag_270:\n        /* \"#utility.yul\":20871:20892   */\n      tag_490\n        /* \"#utility.yul\":20886:20891   */\n      dup2\n        /* \"#utility.yul\":20871:20892   */\n      tag_318\n      jump\t// in\n    tag_490:\n        /* \"#utility.yul\":20864:20869   */\n      dup2\n        /* \"#utility.yul\":20861:20893   */\n      eq\n        /* \"#utility.yul\":20851:20911   */\n      tag_491\n      jumpi\n        /* \"#utility.yul\":20907:20908   */\n      0x00\n        /* \"#utility.yul\":20904:20905   */\n      dup1\n        /* \"#utility.yul\":20897:20909   */\n      revert\n        /* \"#utility.yul\":20851:20911   */\n    tag_491:\n        /* \"#utility.yul\":20801:20917   */\n      pop\n      jump\t// out\n        /* \"#utility.yul\":20923:21045   */\n    tag_274:\n        /* \"#utility.yul\":20996:21020   */\n      tag_493\n        /* \"#utility.yul\":21014:21019   */\n      dup2\n        /* \"#utility.yul\":20996:21020   */\n      tag_372\n      jump\t// in\n    tag_493:\n        /* \"#utility.yul\":20989:20994   */\n      dup2\n        /* \"#utility.yul\":20986:21021   */\n      eq\n        /* \"#utility.yul\":20976:21039   */\n      tag_494\n      jumpi\n        /* \"#utility.yul\":21035:21036   */\n      0x00\n        /* \"#utility.yul\":21032:21033   */\n      dup1\n        /* \"#utility.yul\":21025:21037   */\n      revert\n        /* \"#utility.yul\":20976:21039   */\n    tag_494:\n        /* \"#utility.yul\":20923:21045   */\n      pop\n      jump\t// out\n\n    auxdata: 0xa26469706673582212209b01fc02aaa151f6772eb00ed5ceb65715883f2ccf3e725a6e4e5bd957305f7a64736f6c63430008070033\n}\n",
				"bytecode": {
					"linkReferences": {},
					"object": "6080604052600a6002553480156200001657600080fd5b50604051620028d5380380620028d583398181016040528101906200003c919062000295565b6200005c62000050620001b260201b60201c565b620001ba60201b60201c565b60008060146101000a81548160ff02191690831515021790555080600160006101000a81548173ffffffffffffffffffffffffffffffffffffffff021916908373ffffffffffffffffffffffffffffffffffffffff160217905550618e94600460008081526020019081526020016000206000018190555062278d00600460008081526020019081526020016000206001018190555061b2396004600060018152602001908152602001600020600001819055506276a70060046000600181526020019081526020016000206001018190555061d5de60046000600281526020019081526020016000206000018190555062ed4e0060046000600281526020019081526020016000206001018190555062011d286004600060038152602001908152602001600020600001819055506301e13380600460006003815260200190815260200160002060010181905550506200031a565b600033905090565b60008060009054906101000a900473ffffffffffffffffffffffffffffffffffffffff169050816000806101000a81548173ffffffffffffffffffffffffffffffffffffffff021916908373ffffffffffffffffffffffffffffffffffffffff1602179055508173ffffffffffffffffffffffffffffffffffffffff168173ffffffffffffffffffffffffffffffffffffffff167f8be0079c531659141344cd1fd0a4f28419497f9722a3daafe3b4186f6b6457e060405160405180910390a35050565b6000815190506200028f8162000300565b92915050565b600060208284031215620002ae57620002ad620002fb565b5b6000620002be848285016200027e565b91505092915050565b6000620002d482620002db565b9050919050565b600073ffffffffffffffffffffffffffffffffffffffff82169050919050565b600080fd5b6200030b81620002c7565b81146200031757600080fd5b50565b6125ab806200032a6000396000f3fe608060405234801561001057600080fd5b50600436106101215760003560e01c80638456cb59116100ad578063beb8314c11610071578063beb8314c1461029f578063e2bbb158146102cf578063e788cee5146102eb578063edf501ad1461030c578063f2fde38b1461033d57610121565b80638456cb59146102355780638d8f2adb1461023f5780638da5cb5b14610249578063aa5f7e2614610267578063aff3b6971461028357610121565b8063441a3e70116100f4578063441a3e701461019c578063451c3d80146101b85780635c975abb146101d65780636386c1c7146101f4578063715018a61461022b57610121565b8063259ee7521461012657806332e962031461015a578063379607f5146101765780633f4ba83a14610192575b600080fd5b610140600480360381019061013b9190611b9e565b610359565b6040516101519594939291906121a8565b60405180910390f35b610174600480360381019061016f9190611ca5565b61039c565b005b610190600480360381019061018b9190611c0b565b610453565b005b61019a6106ae565b005b6101b660048036038101906101b19190611c65565b610734565b005b6101c0610a28565b6040516101cd9190611fbf565b60405180910390f35b6101de610a4e565b6040516101eb9190611fa4565b60405180910390f35b61020e60048036038101906102099190611b71565b610a64565b6040516102229897969594939291906120e0565b60405180910390f35b610233610d08565b005b61023d610d90565b005b610247610e16565b005b610251610fee565b60405161025e9190611ebb565b60405180910390f35b610281600480360381019061027c9190611c0b565b611017565b005b61029d60048036038101906102989190611c0b565b6111c2565b005b6102b960048036038101906102b49190611b9e565b611248565b6040516102c69190612164565b60405180910390f35b6102e960048036038101906102e49190611c65565b611369565b005b6102f36116af565b604051610303949392919061209a565b60405180910390f35b61032660048036038101906103219190611c0b565b6117a8565b60405161033492919061217f565b60405180910390f35b61035760048036038101906103529190611b71565b6117cc565b005b6003602052816000526040600020602052806000526040600020600091509150508060000154908060010154908060020154908060030154908060040154905085565b6103a46118c4565b73ffffffffffffffffffffffffffffffffffffffff166103c2610fee565b73ffffffffffffffffffffffffffffffffffffffff1614610418576040517f08c379a000000000000000000000000000000000000000000000000000000000815260040161040f9061203a565b60405180910390fd5b816004600085815260200190815260200160002060000181905550806004600085815260200190815260200160002060010181905550505050565b60003390506000600360008373ffffffffffffffffffffffffffffffffffffffff1673ffffffffffffffffffffffffffffffffffffffff168152602001908152602001600020600084815260200190815260200160002060000154116104ee576040517f08c379a00000000000000000000000000000000000000000000000000000000081526004016104e59061205a565b60405180910390fd5b60006104fa8284611248565b905042600360008473ffffffffffffffffffffffffffffffffffffffff1673ffffffffffffffffffffffffffffffffffffffff16815260200190815260200160002060008581526020019081526020016000206003018190555080600360008473ffffffffffffffffffffffffffffffffffffffff1673ffffffffffffffffffffffffffffffffffffffff168152602001908152602001600020600085815260200190815260200160002060010160008282546105b7919061220c565b92505081905550600160009054906101000a900473ffffffffffffffffffffffffffffffffffffffff1673ffffffffffffffffffffffffffffffffffffffff1663a9059cbb83836040518363ffffffff1660e01b815260040161061b929190611f44565b602060405180830381600087803b15801561063557600080fd5b505af1158015610649573d6000803e3d6000fd5b505050506040513d601f19601f8201168201806040525081019061066d9190611bde565b507f34fcbac0073d7c3d388e51312faf357774904998eeb8fca628b9e6f65ee1cbf78284836040516106a193929190611f6d565b60405180910390a1505050565b6106b66118c4565b73ffffffffffffffffffffffffffffffffffffffff166106d4610fee565b73ffffffffffffffffffffffffffffffffffffffff161461072a576040517f08c379a00000000000000000000000000000000000000000000000000000000081526004016107219061203a565b60405180910390fd5b6107326118cc565b565b600033905082600360008373ffffffffffffffffffffffffffffffffffffffff1673ffffffffffffffffffffffffffffffffffffffff16815260200190815260200160002060008481526020019081526020016000206000015410156107cf576040517f08c379a00000000000000000000000000000000000000000000000000000000081526004016107c69061207a565b60405180910390fd5b60006107db8284611248565b9050600081856107eb919061220c565b9050600042600360008673ffffffffffffffffffffffffffffffffffffffff1673ffffffffffffffffffffffffffffffffffffffff16815260200190815260200160002060008781526020019081526020016000206004015411156108675760646002548361085a9190612293565b6108649190612262565b90505b42600360008673ffffffffffffffffffffffffffffffffffffffff1673ffffffffffffffffffffffffffffffffffffffff16815260200190815260200160002060008781526020019081526020016000206003018190555085600360008673ffffffffffffffffffffffffffffffffffffffff1673ffffffffffffffffffffffffffffffffffffffff1681526020019081526020016000206000878152602001908152602001600020600001600082825461092291906122ed565b92505081905550600160009054906101000a900473ffffffffffffffffffffffffffffffffffffffff1673ffffffffffffffffffffffffffffffffffffffff1663a9059cbb85838561097491906122ed565b6040518363ffffffff1660e01b8152600401610991929190611f44565b602060405180830381600087803b1580156109ab57600080fd5b505af11580156109bf573d6000803e3d6000fd5b505050506040513d601f19601f820116820180604052508101906109e39190611bde565b507ff279e6a1f5e320cca91135676d9cb6e44ca8a08c0b88342bcdb1144f6511b56884600088604051610a1893929190611f0d565b60405180910390a1505050505050565b600160009054906101000a900473ffffffffffffffffffffffffffffffffffffffff1681565b60008060149054906101000a900460ff16905090565b610a6c611ad4565b610a74611ad4565b610a7c611ad4565b610a84611ad4565b600080600080600360008a73ffffffffffffffffffffffffffffffffffffffff1673ffffffffffffffffffffffffffffffffffffffff16815260200190815260200160002060008081526020019081526020016000206040518060a0016040529081600082015481526020016001820154815260200160028201548152602001600382015481526020016004820154815250509750600360008a73ffffffffffffffffffffffffffffffffffffffff1673ffffffffffffffffffffffffffffffffffffffff1681526020019081526020016000206000600181526020019081526020016000206040518060a0016040529081600082015481526020016001820154815260200160028201548152602001600382015481526020016004820154815250509650600360008a73ffffffffffffffffffffffffffffffffffffffff1673ffffffffffffffffffffffffffffffffffffffff1681526020019081526020016000206000600281526020019081526020016000206040518060a0016040529081600082015481526020016001820154815260200160028201548152602001600382015481526020016004820154815250509550600360008a73ffffffffffffffffffffffffffffffffffffffff1673ffffffffffffffffffffffffffffffffffffffff1681526020019081526020016000206000600381526020019081526020016000206040518060a0016040529081600082015481526020016001820154815260200160028201548152602001600382015481526020016004820154815250509450610cd4896000611248565b9350610ce1896001611248565b9250610cee896002611248565b9150610cfb896003611248565b9050919395975091939597565b610d106118c4565b73ffffffffffffffffffffffffffffffffffffffff16610d2e610fee565b73ffffffffffffffffffffffffffffffffffffffff1614610d84576040517f08c379a0000000000000000000000000000000000000000000000000000000008152600401610d7b9061203a565b60405180910390fd5b610d8e600061196d565b565b610d986118c4565b73ffffffffffffffffffffffffffffffffffffffff16610db6610fee565b73ffffffffffffffffffffffffffffffffffffffff1614610e0c576040517f08c379a0000000000000000000000000000000000000000000000000000000008152600401610e039061203a565b60405180910390fd5b610e14611a31565b565b610e1e6118c4565b73ffffffffffffffffffffffffffffffffffffffff16610e3c610fee565b73ffffffffffffffffffffffffffffffffffffffff1614610e92576040517f08c379a0000000000000000000000000000000000000000000000000000000008152600401610e899061203a565b60405180910390fd5b600160009054906101000a900473ffffffffffffffffffffffffffffffffffffffff1673ffffffffffffffffffffffffffffffffffffffff1663a9059cbb33600160009054906101000a900473ffffffffffffffffffffffffffffffffffffffff1673ffffffffffffffffffffffffffffffffffffffff166370a08231306040518263ffffffff1660e01b8152600401610f2c9190611ebb565b60206040518083038186803b158015610f4457600080fd5b505afa158015610f58573d6000803e3d6000fd5b505050506040513d601f19601f82011682018060405250810190610f7c9190611c38565b6040518363ffffffff1660e01b8152600401610f99929190611f44565b602060405180830381600087803b158015610fb357600080fd5b505af1158015610fc7573d6000803e3d6000fd5b505050506040513d601f19601f82011682018060405250810190610feb9190611bde565b50565b60008060009054906101000a900473ffffffffffffffffffffffffffffffffffffffff16905090565b60003390506000600360008373ffffffffffffffffffffffffffffffffffffffff1673ffffffffffffffffffffffffffffffffffffffff168152602001908152602001600020600084815260200190815260200160002060000154116110b2576040517f08c379a00000000000000000000000000000000000000000000000000000000081526004016110a99061205a565b60405180910390fd5b60006110be8284611248565b905080600360008473ffffffffffffffffffffffffffffffffffffffff1673ffffffffffffffffffffffffffffffffffffffff16815260200190815260200160002060008581526020019081526020016000206000016000828254611123919061220c565b9250508190555042600360008473ffffffffffffffffffffffffffffffffffffffff1673ffffffffffffffffffffffffffffffffffffffff1681526020019081526020016000206000858152602001908152602001600020600301819055507f0e311a2c6dbfb0153ec3a8a5bdca09070b3e5f60768fdc10a20453f38d1868738284836040516111b593929190611f6d565b60405180910390a1505050565b6111ca6118c4565b73ffffffffffffffffffffffffffffffffffffffff166111e8610fee565b73ffffffffffffffffffffffffffffffffffffffff161461123e576040517f08c379a00000000000000000000000000000000000000000000000000000000081526004016112359061203a565b60405180910390fd5b8060028190555050565b600080600360008573ffffffffffffffffffffffffffffffffffffffff1673ffffffffffffffffffffffffffffffffffffffff168152602001908152602001600020600084815260200190815260200160002060030154426112aa91906122ed565b90506000600360008673ffffffffffffffffffffffffffffffffffffffff1673ffffffffffffffffffffffffffffffffffffffff168152602001908152602001600020600085815260200190815260200160002060000154905060006004600086815260200190815260200160002060000154905060006301e1338061271083856113359190612293565b61133f9190612262565b6113499190612262565b9050600081856113599190612293565b9050809550505050505092915050565b611371610a4e565b156113b1576040517f08c379a00000000000000000000000000000000000000000000000000000000081526004016113a89061201a565b60405180910390fd5b6000339050600160009054906101000a900473ffffffffffffffffffffffffffffffffffffffff1673ffffffffffffffffffffffffffffffffffffffff166323b872dd8230866040518463ffffffff1660e01b815260040161141593929190611ed6565b602060405180830381600087803b15801561142f57600080fd5b505af1158015611443573d6000803e3d6000fd5b505050506040513d601f19601f820116820180604052508101906114679190611bde565b506000600360008373ffffffffffffffffffffffffffffffffffffffff1673ffffffffffffffffffffffffffffffffffffffff16815260200190815260200160002060008481526020019081526020016000206000015411156114dc576114ce8183611248565b836114d9919061220c565b92505b82600360008373ffffffffffffffffffffffffffffffffffffffff1673ffffffffffffffffffffffffffffffffffffffff1681526020019081526020016000206000848152602001908152602001600020600001600082825461153f919061220c565b9250508190555042600360008373ffffffffffffffffffffffffffffffffffffffff1673ffffffffffffffffffffffffffffffffffffffff16815260200190815260200160002060008481526020019081526020016000206002018190555042600360008373ffffffffffffffffffffffffffffffffffffffff1673ffffffffffffffffffffffffffffffffffffffff168152602001908152602001600020600084815260200190815260200160002060030181905550600460008381526020019081526020016000206001015442611618919061220c565b600360008373ffffffffffffffffffffffffffffffffffffffff1673ffffffffffffffffffffffffffffffffffffffff1681526020019081526020016000206000848152602001908152602001600020600401819055507f90890809c654f11d6e72a28fa60149770a0d11ec6c92319d6ceb2bb0a4ea1a158183856040516116a293929190611f6d565b60405180910390a1505050565b6116b7611b03565b6116bf611b03565b6116c7611b03565b6116cf611b03565b6004600080815260200190815260200160002060405180604001604052908160008201548152602001600182015481525050935060046000600181526020019081526020016000206040518060400160405290816000820154815260200160018201548152505092506004600060028152602001908152602001600020604051806040016040529081600082015481526020016001820154815250509150600460006003815260200190815260200160002060405180604001604052908160008201548152602001600182015481525050905090919293565b60046020528060005260406000206000915090508060000154908060010154905082565b6117d46118c4565b73ffffffffffffffffffffffffffffffffffffffff166117f2610fee565b73ffffffffffffffffffffffffffffffffffffffff1614611848576040517f08c379a000000000000000000000000000000000000000000000000000000000815260040161183f9061203a565b60405180910390fd5b600073ffffffffffffffffffffffffffffffffffffffff168173ffffffffffffffffffffffffffffffffffffffff1614156118b8576040517f08c379a00000000000000000000000000000000000000000000000000000000081526004016118af90611ffa565b60405180910390fd5b6118c18161196d565b50565b600033905090565b6118d4610a4e565b611913576040517f08c379a000000000000000000000000000000000000000000000000000000000815260040161190a90611fda565b60405180910390fd5b60008060146101000a81548160ff0219169083151502179055507f5db9ee0a495bf2e6ff9c91a7834c1ba4fdd244a5e8aa4e537bd38aeae4b073aa6119566118c4565b6040516119639190611ebb565b60405180910390a1565b60008060009054906101000a900473ffffffffffffffffffffffffffffffffffffffff169050816000806101000a81548173ffffffffffffffffffffffffffffffffffffffff021916908373ffffffffffffffffffffffffffffffffffffffff1602179055508173ffffffffffffffffffffffffffffffffffffffff168173ffffffffffffffffffffffffffffffffffffffff167f8be0079c531659141344cd1fd0a4f28419497f9722a3daafe3b4186f6b6457e060405160405180910390a35050565b611a39610a4e565b15611a79576040517f08c379a0000000000000000000000000000000000000000000000000000000008152600401611a709061201a565b60405180910390fd5b6001600060146101000a81548160ff0219169083151502179055507f62e78cea01bee320cd4e420270b5ea74000d11b0c9f74754ebdbfc544b05a258611abd6118c4565b604051611aca9190611ebb565b60405180910390a1565b6040518060a0016040528060008152602001600081526020016000815260200160008152602001600081525090565b604051806040016040528060008152602001600081525090565b600081359050611b2c81612530565b92915050565b600081519050611b4181612547565b92915050565b600081359050611b568161255e565b92915050565b600081519050611b6b8161255e565b92915050565b600060208284031215611b8757611b8661240f565b5b6000611b9584828501611b1d565b91505092915050565b60008060408385031215611bb557611bb461240f565b5b6000611bc385828601611b1d565b9250506020611bd485828601611b47565b9150509250929050565b600060208284031215611bf457611bf361240f565b5b6000611c0284828501611b32565b91505092915050565b600060208284031215611c2157611c2061240f565b5b6000611c2f84828501611b47565b91505092915050565b600060208284031215611c4e57611c4d61240f565b5b6000611c5c84828501611b5c565b91505092915050565b60008060408385031215611c7c57611c7b61240f565b5b6000611c8a85828601611b47565b9250506020611c9b85828601611b47565b9150509250929050565b600080600060608486031215611cbe57611cbd61240f565b5b6000611ccc86828701611b47565b9350506020611cdd86828701611b47565b9250506040611cee86828701611b47565b9150509250925092565b611d0181612321565b82525050565b611d1081612333565b82525050565b611d1f81612369565b82525050565b611d2e8161237b565b82525050565b6000611d416014836121fb565b9150611d4c82612414565b602082019050919050565b6000611d646026836121fb565b9150611d6f8261243d565b604082019050919050565b6000611d876010836121fb565b9150611d928261248c565b602082019050919050565b6000611daa6020836121fb565b9150611db5826124b5565b602082019050919050565b6000611dcd6011836121fb565b9150611dd8826124de565b602082019050919050565b6000611df06012836121fb565b9150611dfb82612507565b602082019050919050565b604082016000820151611e1c6000850182611e9d565b506020820151611e2f6020850182611e9d565b50505050565b60a082016000820151611e4b6000850182611e9d565b506020820151611e5e6020850182611e9d565b506040820151611e716040850182611e9d565b506060820151611e846060850182611e9d565b506080820151611e976080850182611e9d565b50505050565b611ea68161235f565b82525050565b611eb58161235f565b82525050565b6000602082019050611ed06000830184611cf8565b92915050565b6000606082019050611eeb6000830186611cf8565b611ef86020830185611cf8565b611f056040830184611eac565b949350505050565b6000606082019050611f226000830186611cf8565b611f2f6020830185611d25565b611f3c6040830184611eac565b949350505050565b6000604082019050611f596000830185611cf8565b611f666020830184611eac565b9392505050565b6000606082019050611f826000830186611cf8565b611f8f6020830185611eac565b611f9c6040830184611eac565b949350505050565b6000602082019050611fb96000830184611d07565b92915050565b6000602082019050611fd46000830184611d16565b92915050565b60006020820190508181036000830152611ff381611d34565b9050919050565b6000602082019050818103600083015261201381611d57565b9050919050565b6000602082019050818103600083015261203381611d7a565b9050919050565b6000602082019050818103600083015261205381611d9d565b9050919050565b6000602082019050818103600083015261207381611dc0565b9050919050565b6000602082019050818103600083015261209381611de3565b9050919050565b6000610100820190506120b06000830187611e06565b6120bd6040830186611e06565b6120ca6080830185611e06565b6120d760c0830184611e06565b95945050505050565b6000610300820190506120f6600083018b611e35565b61210360a083018a611e35565b612111610140830189611e35565b61211f6101e0830188611e35565b61212d610280830187611eac565b61213b6102a0830186611eac565b6121496102c0830185611eac565b6121576102e0830184611eac565b9998505050505050505050565b60006020820190506121796000830184611eac565b92915050565b60006040820190506121946000830185611eac565b6121a16020830184611eac565b9392505050565b600060a0820190506121bd6000830188611eac565b6121ca6020830187611eac565b6121d76040830186611eac565b6121e46060830185611eac565b6121f16080830184611eac565b9695505050505050565b600082825260208201905092915050565b60006122178261235f565b91506122228361235f565b9250827fffffffffffffffffffffffffffffffffffffffffffffffffffffffffffffffff03821115612257576122566123b1565b5b828201905092915050565b600061226d8261235f565b91506122788361235f565b925082612288576122876123e0565b5b828204905092915050565b600061229e8261235f565b91506122a98361235f565b9250817fffffffffffffffffffffffffffffffffffffffffffffffffffffffffffffffff04831182151516156122e2576122e16123b1565b5b828202905092915050565b60006122f88261235f565b91506123038361235f565b925082821015612316576123156123b1565b5b828203905092915050565b600061232c8261233f565b9050919050565b60008115159050919050565b600073ffffffffffffffffffffffffffffffffffffffff82169050919050565b6000819050919050565b60006123748261238d565b9050919050565b60006123868261235f565b9050919050565b60006123988261239f565b9050919050565b60006123aa8261233f565b9050919050565b7f4e487b7100000000000000000000000000000000000000000000000000000000600052601160045260246000fd5b7f4e487b7100000000000000000000000000000000000000000000000000000000600052601260045260246000fd5b600080fd5b7f5061757361626c653a206e6f7420706175736564000000000000000000000000600082015250565b7f4f776e61626c653a206e6577206f776e657220697320746865207a65726f206160008201527f6464726573730000000000000000000000000000000000000000000000000000602082015250565b7f5061757361626c653a2070617573656400000000000000000000000000000000600082015250565b7f4f776e61626c653a2063616c6c6572206973206e6f7420746865206f776e6572600082015250565b7f4e6f20616374697665206465706f736974000000000000000000000000000000600082015250565b7f4e6f7420656e6f756768206465706f7369740000000000000000000000000000600082015250565b61253981612321565b811461254457600080fd5b50565b61255081612333565b811461255b57600080fd5b50565b6125678161235f565b811461257257600080fd5b5056fea26469706673582212209b01fc02aaa151f6772eb00ed5ceb65715883f2ccf3e725a6e4e5bd957305f7a64736f6c63430008070033",
					"opcodes": "PUSH1 0x80 PUSH1 0x40 MSTORE PUSH1 0xA PUSH1 0x2 SSTORE CALLVALUE DUP1 ISZERO PUSH3 0x16 JUMPI PUSH1 0x0 DUP1 REVERT JUMPDEST POP PUSH1 0x40 MLOAD PUSH3 0x28D5 CODESIZE SUB DUP1 PUSH3 0x28D5 DUP4 CODECOPY DUP2 DUP2 ADD PUSH1 0x40 MSTORE DUP2 ADD SWAP1 PUSH3 0x3C SWAP2 SWAP1 PUSH3 0x295 JUMP JUMPDEST PUSH3 0x5C PUSH3 0x50 PUSH3 0x1B2 PUSH1 0x20 SHL PUSH1 0x20 SHR JUMP JUMPDEST PUSH3 0x1BA PUSH1 0x20 SHL PUSH1 0x20 SHR JUMP JUMPDEST PUSH1 0x0 DUP1 PUSH1 0x14 PUSH2 0x100 EXP DUP2 SLOAD DUP2 PUSH1 0xFF MUL NOT AND SWAP1 DUP4 ISZERO ISZERO MUL OR SWAP1 SSTORE POP DUP1 PUSH1 0x1 PUSH1 0x0 PUSH2 0x100 EXP DUP2 SLOAD DUP2 PUSH20 0xFFFFFFFFFFFFFFFFFFFFFFFFFFFFFFFFFFFFFFFF MUL NOT AND SWAP1 DUP4 PUSH20 0xFFFFFFFFFFFFFFFFFFFFFFFFFFFFFFFFFFFFFFFF AND MUL OR SWAP1 SSTORE POP PUSH2 0x8E94 PUSH1 0x4 PUSH1 0x0 DUP1 DUP2 MSTORE PUSH1 0x20 ADD SWAP1 DUP2 MSTORE PUSH1 0x20 ADD PUSH1 0x0 KECCAK256 PUSH1 0x0 ADD DUP2 SWAP1 SSTORE POP PUSH3 0x278D00 PUSH1 0x4 PUSH1 0x0 DUP1 DUP2 MSTORE PUSH1 0x20 ADD SWAP1 DUP2 MSTORE PUSH1 0x20 ADD PUSH1 0x0 KECCAK256 PUSH1 0x1 ADD DUP2 SWAP1 SSTORE POP PUSH2 0xB239 PUSH1 0x4 PUSH1 0x0 PUSH1 0x1 DUP2 MSTORE PUSH1 0x20 ADD SWAP1 DUP2 MSTORE PUSH1 0x20 ADD PUSH1 0x0 KECCAK256 PUSH1 0x0 ADD DUP2 SWAP1 SSTORE POP PUSH3 0x76A700 PUSH1 0x4 PUSH1 0x0 PUSH1 0x1 DUP2 MSTORE PUSH1 0x20 ADD SWAP1 DUP2 MSTORE PUSH1 0x20 ADD PUSH1 0x0 KECCAK256 PUSH1 0x1 ADD DUP2 SWAP1 SSTORE POP PUSH2 0xD5DE PUSH1 0x4 PUSH1 0x0 PUSH1 0x2 DUP2 MSTORE PUSH1 0x20 ADD SWAP1 DUP2 MSTORE PUSH1 0x20 ADD PUSH1 0x0 KECCAK256 PUSH1 0x0 ADD DUP2 SWAP1 SSTORE POP PUSH3 0xED4E00 PUSH1 0x4 PUSH1 0x0 PUSH1 0x2 DUP2 MSTORE PUSH1 0x20 ADD SWAP1 DUP2 MSTORE PUSH1 0x20 ADD PUSH1 0x0 KECCAK256 PUSH1 0x1 ADD DUP2 SWAP1 SSTORE POP PUSH3 0x11D28 PUSH1 0x4 PUSH1 0x0 PUSH1 0x3 DUP2 MSTORE PUSH1 0x20 ADD SWAP1 DUP2 MSTORE PUSH1 0x20 ADD PUSH1 0x0 KECCAK256 PUSH1 0x0 ADD DUP2 SWAP1 SSTORE POP PUSH4 0x1E13380 PUSH1 0x4 PUSH1 0x0 PUSH1 0x3 DUP2 MSTORE PUSH1 0x20 ADD SWAP1 DUP2 MSTORE PUSH1 0x20 ADD PUSH1 0x0 KECCAK256 PUSH1 0x1 ADD DUP2 SWAP1 SSTORE POP POP PUSH3 0x31A JUMP JUMPDEST PUSH1 0x0 CALLER SWAP1 POP SWAP1 JUMP JUMPDEST PUSH1 0x0 DUP1 PUSH1 0x0 SWAP1 SLOAD SWAP1 PUSH2 0x100 EXP SWAP1 DIV PUSH20 0xFFFFFFFFFFFFFFFFFFFFFFFFFFFFFFFFFFFFFFFF AND SWAP1 POP DUP2 PUSH1 0x0 DUP1 PUSH2 0x100 EXP DUP2 SLOAD DUP2 PUSH20 0xFFFFFFFFFFFFFFFFFFFFFFFFFFFFFFFFFFFFFFFF MUL NOT AND SWAP1 DUP4 PUSH20 0xFFFFFFFFFFFFFFFFFFFFFFFFFFFFFFFFFFFFFFFF AND MUL OR SWAP1 SSTORE POP DUP2 PUSH20 0xFFFFFFFFFFFFFFFFFFFFFFFFFFFFFFFFFFFFFFFF AND DUP2 PUSH20 0xFFFFFFFFFFFFFFFFFFFFFFFFFFFFFFFFFFFFFFFF AND PUSH32 0x8BE0079C531659141344CD1FD0A4F28419497F9722A3DAAFE3B4186F6B6457E0 PUSH1 0x40 MLOAD PUSH1 0x40 MLOAD DUP1 SWAP2 SUB SWAP1 LOG3 POP POP JUMP JUMPDEST PUSH1 0x0 DUP2 MLOAD SWAP1 POP PUSH3 0x28F DUP2 PUSH3 0x300 JUMP JUMPDEST SWAP3 SWAP2 POP POP JUMP JUMPDEST PUSH1 0x0 PUSH1 0x20 DUP3 DUP5 SUB SLT ISZERO PUSH3 0x2AE JUMPI PUSH3 0x2AD PUSH3 0x2FB JUMP JUMPDEST JUMPDEST PUSH1 0x0 PUSH3 0x2BE DUP5 DUP3 DUP6 ADD PUSH3 0x27E JUMP JUMPDEST SWAP2 POP POP SWAP3 SWAP2 POP POP JUMP JUMPDEST PUSH1 0x0 PUSH3 0x2D4 DUP3 PUSH3 0x2DB JUMP JUMPDEST SWAP1 POP SWAP2 SWAP1 POP JUMP JUMPDEST PUSH1 0x0 PUSH20 0xFFFFFFFFFFFFFFFFFFFFFFFFFFFFFFFFFFFFFFFF DUP3 AND SWAP1 POP SWAP2 SWAP1 POP JUMP JUMPDEST PUSH1 0x0 DUP1 REVERT JUMPDEST PUSH3 0x30B DUP2 PUSH3 0x2C7 JUMP JUMPDEST DUP2 EQ PUSH3 0x317 JUMPI PUSH1 0x0 DUP1 REVERT JUMPDEST POP JUMP JUMPDEST PUSH2 0x25AB DUP1 PUSH3 0x32A PUSH1 0x0 CODECOPY PUSH1 0x0 RETURN INVALID PUSH1 0x80 PUSH1 0x40 MSTORE CALLVALUE DUP1 ISZERO PUSH2 0x10 JUMPI PUSH1 0x0 DUP1 REVERT JUMPDEST POP PUSH1 0x4 CALLDATASIZE LT PUSH2 0x121 JUMPI PUSH1 0x0 CALLDATALOAD PUSH1 0xE0 SHR DUP1 PUSH4 0x8456CB59 GT PUSH2 0xAD JUMPI DUP1 PUSH4 0xBEB8314C GT PUSH2 0x71 JUMPI DUP1 PUSH4 0xBEB8314C EQ PUSH2 0x29F JUMPI DUP1 PUSH4 0xE2BBB158 EQ PUSH2 0x2CF JUMPI DUP1 PUSH4 0xE788CEE5 EQ PUSH2 0x2EB JUMPI DUP1 PUSH4 0xEDF501AD EQ PUSH2 0x30C JUMPI DUP1 PUSH4 0xF2FDE38B EQ PUSH2 0x33D JUMPI PUSH2 0x121 JUMP JUMPDEST DUP1 PUSH4 0x8456CB59 EQ PUSH2 0x235 JUMPI DUP1 PUSH4 0x8D8F2ADB EQ PUSH2 0x23F JUMPI DUP1 PUSH4 0x8DA5CB5B EQ PUSH2 0x249 JUMPI DUP1 PUSH4 0xAA5F7E26 EQ PUSH2 0x267 JUMPI DUP1 PUSH4 0xAFF3B697 EQ PUSH2 0x283 JUMPI PUSH2 0x121 JUMP JUMPDEST DUP1 PUSH4 0x441A3E70 GT PUSH2 0xF4 JUMPI DUP1 PUSH4 0x441A3E70 EQ PUSH2 0x19C JUMPI DUP1 PUSH4 0x451C3D80 EQ PUSH2 0x1B8 JUMPI DUP1 PUSH4 0x5C975ABB EQ PUSH2 0x1D6 JUMPI DUP1 PUSH4 0x6386C1C7 EQ PUSH2 0x1F4 JUMPI DUP1 PUSH4 0x715018A6 EQ PUSH2 0x22B JUMPI PUSH2 0x121 JUMP JUMPDEST DUP1 PUSH4 0x259EE752 EQ PUSH2 0x126 JUMPI DUP1 PUSH4 0x32E96203 EQ PUSH2 0x15A JUMPI DUP1 PUSH4 0x379607F5 EQ PUSH2 0x176 JUMPI DUP1 PUSH4 0x3F4BA83A EQ PUSH2 0x192 JUMPI JUMPDEST PUSH1 0x0 DUP1 REVERT JUMPDEST PUSH2 0x140 PUSH1 0x4 DUP1 CALLDATASIZE SUB DUP2 ADD SWAP1 PUSH2 0x13B SWAP2 SWAP1 PUSH2 0x1B9E JUMP JUMPDEST PUSH2 0x359 JUMP JUMPDEST PUSH1 0x40 MLOAD PUSH2 0x151 SWAP6 SWAP5 SWAP4 SWAP3 SWAP2 SWAP1 PUSH2 0x21A8 JUMP JUMPDEST PUSH1 0x40 MLOAD DUP1 SWAP2 SUB SWAP1 RETURN JUMPDEST PUSH2 0x174 PUSH1 0x4 DUP1 CALLDATASIZE SUB DUP2 ADD SWAP1 PUSH2 0x16F SWAP2 SWAP1 PUSH2 0x1CA5 JUMP JUMPDEST PUSH2 0x39C JUMP JUMPDEST STOP JUMPDEST PUSH2 0x190 PUSH1 0x4 DUP1 CALLDATASIZE SUB DUP2 ADD SWAP1 PUSH2 0x18B SWAP2 SWAP1 PUSH2 0x1C0B JUMP JUMPDEST PUSH2 0x453 JUMP JUMPDEST STOP JUMPDEST PUSH2 0x19A PUSH2 0x6AE JUMP JUMPDEST STOP JUMPDEST PUSH2 0x1B6 PUSH1 0x4 DUP1 CALLDATASIZE SUB DUP2 ADD SWAP1 PUSH2 0x1B1 SWAP2 SWAP1 PUSH2 0x1C65 JUMP JUMPDEST PUSH2 0x734 JUMP JUMPDEST STOP JUMPDEST PUSH2 0x1C0 PUSH2 0xA28 JUMP JUMPDEST PUSH1 0x40 MLOAD PUSH2 0x1CD SWAP2 SWAP1 PUSH2 0x1FBF JUMP JUMPDEST PUSH1 0x40 MLOAD DUP1 SWAP2 SUB SWAP1 RETURN JUMPDEST PUSH2 0x1DE PUSH2 0xA4E JUMP JUMPDEST PUSH1 0x40 MLOAD PUSH2 0x1EB SWAP2 SWAP1 PUSH2 0x1FA4 JUMP JUMPDEST PUSH1 0x40 MLOAD DUP1 SWAP2 SUB SWAP1 RETURN JUMPDEST PUSH2 0x20E PUSH1 0x4 DUP1 CALLDATASIZE SUB DUP2 ADD SWAP1 PUSH2 0x209 SWAP2 SWAP1 PUSH2 0x1B71 JUMP JUMPDEST PUSH2 0xA64 JUMP JUMPDEST PUSH1 0x40 MLOAD PUSH2 0x222 SWAP9 SWAP8 SWAP7 SWAP6 SWAP5 SWAP4 SWAP3 SWAP2 SWAP1 PUSH2 0x20E0 JUMP JUMPDEST PUSH1 0x40 MLOAD DUP1 SWAP2 SUB SWAP1 RETURN JUMPDEST PUSH2 0x233 PUSH2 0xD08 JUMP JUMPDEST STOP JUMPDEST PUSH2 0x23D PUSH2 0xD90 JUMP JUMPDEST STOP JUMPDEST PUSH2 0x247 PUSH2 0xE16 JUMP JUMPDEST STOP JUMPDEST PUSH2 0x251 PUSH2 0xFEE JUMP JUMPDEST PUSH1 0x40 MLOAD PUSH2 0x25E SWAP2 SWAP1 PUSH2 0x1EBB JUMP JUMPDEST PUSH1 0x40 MLOAD DUP1 SWAP2 SUB SWAP1 RETURN JUMPDEST PUSH2 0x281 PUSH1 0x4 DUP1 CALLDATASIZE SUB DUP2 ADD SWAP1 PUSH2 0x27C SWAP2 SWAP1 PUSH2 0x1C0B JUMP JUMPDEST PUSH2 0x1017 JUMP JUMPDEST STOP JUMPDEST PUSH2 0x29D PUSH1 0x4 DUP1 CALLDATASIZE SUB DUP2 ADD SWAP1 PUSH2 0x298 SWAP2 SWAP1 PUSH2 0x1C0B JUMP JUMPDEST PUSH2 0x11C2 JUMP JUMPDEST STOP JUMPDEST PUSH2 0x2B9 PUSH1 0x4 DUP1 CALLDATASIZE SUB DUP2 ADD SWAP1 PUSH2 0x2B4 SWAP2 SWAP1 PUSH2 0x1B9E JUMP JUMPDEST PUSH2 0x1248 JUMP JUMPDEST PUSH1 0x40 MLOAD PUSH2 0x2C6 SWAP2 SWAP1 PUSH2 0x2164 JUMP JUMPDEST PUSH1 0x40 MLOAD DUP1 SWAP2 SUB SWAP1 RETURN JUMPDEST PUSH2 0x2E9 PUSH1 0x4 DUP1 CALLDATASIZE SUB DUP2 ADD SWAP1 PUSH2 0x2E4 SWAP2 SWAP1 PUSH2 0x1C65 JUMP JUMPDEST PUSH2 0x1369 JUMP JUMPDEST STOP JUMPDEST PUSH2 0x2F3 PUSH2 0x16AF JUMP JUMPDEST PUSH1 0x40 MLOAD PUSH2 0x303 SWAP5 SWAP4 SWAP3 SWAP2 SWAP1 PUSH2 0x209A JUMP JUMPDEST PUSH1 0x40 MLOAD DUP1 SWAP2 SUB SWAP1 RETURN JUMPDEST PUSH2 0x326 PUSH1 0x4 DUP1 CALLDATASIZE SUB DUP2 ADD SWAP1 PUSH2 0x321 SWAP2 SWAP1 PUSH2 0x1C0B JUMP JUMPDEST PUSH2 0x17A8 JUMP JUMPDEST PUSH1 0x40 MLOAD PUSH2 0x334 SWAP3 SWAP2 SWAP1 PUSH2 0x217F JUMP JUMPDEST PUSH1 0x40 MLOAD DUP1 SWAP2 SUB SWAP1 RETURN JUMPDEST PUSH2 0x357 PUSH1 0x4 DUP1 CALLDATASIZE SUB DUP2 ADD SWAP1 PUSH2 0x352 SWAP2 SWAP1 PUSH2 0x1B71 JUMP JUMPDEST PUSH2 0x17CC JUMP JUMPDEST STOP JUMPDEST PUSH1 0x3 PUSH1 0x20 MSTORE DUP2 PUSH1 0x0 MSTORE PUSH1 0x40 PUSH1 0x0 KECCAK256 PUSH1 0x20 MSTORE DUP1 PUSH1 0x0 MSTORE PUSH1 0x40 PUSH1 0x0 KECCAK256 PUSH1 0x0 SWAP2 POP SWAP2 POP POP DUP1 PUSH1 0x0 ADD SLOAD SWAP1 DUP1 PUSH1 0x1 ADD SLOAD SWAP1 DUP1 PUSH1 0x2 ADD SLOAD SWAP1 DUP1 PUSH1 0x3 ADD SLOAD SWAP1 DUP1 PUSH1 0x4 ADD SLOAD SWAP1 POP DUP6 JUMP JUMPDEST PUSH2 0x3A4 PUSH2 0x18C4 JUMP JUMPDEST PUSH20 0xFFFFFFFFFFFFFFFFFFFFFFFFFFFFFFFFFFFFFFFF AND PUSH2 0x3C2 PUSH2 0xFEE JUMP JUMPDEST PUSH20 0xFFFFFFFFFFFFFFFFFFFFFFFFFFFFFFFFFFFFFFFF AND EQ PUSH2 0x418 JUMPI PUSH1 0x40 MLOAD PUSH32 0x8C379A000000000000000000000000000000000000000000000000000000000 DUP2 MSTORE PUSH1 0x4 ADD PUSH2 0x40F SWAP1 PUSH2 0x203A JUMP JUMPDEST PUSH1 0x40 MLOAD DUP1 SWAP2 SUB SWAP1 REVERT JUMPDEST DUP2 PUSH1 0x4 PUSH1 0x0 DUP6 DUP2 MSTORE PUSH1 0x20 ADD SWAP1 DUP2 MSTORE PUSH1 0x20 ADD PUSH1 0x0 KECCAK256 PUSH1 0x0 ADD DUP2 SWAP1 SSTORE POP DUP1 PUSH1 0x4 PUSH1 0x0 DUP6 DUP2 MSTORE PUSH1 0x20 ADD SWAP1 DUP2 MSTORE PUSH1 0x20 ADD PUSH1 0x0 KECCAK256 PUSH1 0x1 ADD DUP2 SWAP1 SSTORE POP POP POP POP JUMP JUMPDEST PUSH1 0x0 CALLER SWAP1 POP PUSH1 0x0 PUSH1 0x3 PUSH1 0x0 DUP4 PUSH20 0xFFFFFFFFFFFFFFFFFFFFFFFFFFFFFFFFFFFFFFFF AND PUSH20 0xFFFFFFFFFFFFFFFFFFFFFFFFFFFFFFFFFFFFFFFF AND DUP2 MSTORE PUSH1 0x20 ADD SWAP1 DUP2 MSTORE PUSH1 0x20 ADD PUSH1 0x0 KECCAK256 PUSH1 0x0 DUP5 DUP2 MSTORE PUSH1 0x20 ADD SWAP1 DUP2 MSTORE PUSH1 0x20 ADD PUSH1 0x0 KECCAK256 PUSH1 0x0 ADD SLOAD GT PUSH2 0x4EE JUMPI PUSH1 0x40 MLOAD PUSH32 0x8C379A000000000000000000000000000000000000000000000000000000000 DUP2 MSTORE PUSH1 0x4 ADD PUSH2 0x4E5 SWAP1 PUSH2 0x205A JUMP JUMPDEST PUSH1 0x40 MLOAD DUP1 SWAP2 SUB SWAP1 REVERT JUMPDEST PUSH1 0x0 PUSH2 0x4FA DUP3 DUP5 PUSH2 0x1248 JUMP JUMPDEST SWAP1 POP TIMESTAMP PUSH1 0x3 PUSH1 0x0 DUP5 PUSH20 0xFFFFFFFFFFFFFFFFFFFFFFFFFFFFFFFFFFFFFFFF AND PUSH20 0xFFFFFFFFFFFFFFFFFFFFFFFFFFFFFFFFFFFFFFFF AND DUP2 MSTORE PUSH1 0x20 ADD SWAP1 DUP2 MSTORE PUSH1 0x20 ADD PUSH1 0x0 KECCAK256 PUSH1 0x0 DUP6 DUP2 MSTORE PUSH1 0x20 ADD SWAP1 DUP2 MSTORE PUSH1 0x20 ADD PUSH1 0x0 KECCAK256 PUSH1 0x3 ADD DUP2 SWAP1 SSTORE POP DUP1 PUSH1 0x3 PUSH1 0x0 DUP5 PUSH20 0xFFFFFFFFFFFFFFFFFFFFFFFFFFFFFFFFFFFFFFFF AND PUSH20 0xFFFFFFFFFFFFFFFFFFFFFFFFFFFFFFFFFFFFFFFF AND DUP2 MSTORE PUSH1 0x20 ADD SWAP1 DUP2 MSTORE PUSH1 0x20 ADD PUSH1 0x0 KECCAK256 PUSH1 0x0 DUP6 DUP2 MSTORE PUSH1 0x20 ADD SWAP1 DUP2 MSTORE PUSH1 0x20 ADD PUSH1 0x0 KECCAK256 PUSH1 0x1 ADD PUSH1 0x0 DUP3 DUP3 SLOAD PUSH2 0x5B7 SWAP2 SWAP1 PUSH2 0x220C JUMP JUMPDEST SWAP3 POP POP DUP2 SWAP1 SSTORE POP PUSH1 0x1 PUSH1 0x0 SWAP1 SLOAD SWAP1 PUSH2 0x100 EXP SWAP1 DIV PUSH20 0xFFFFFFFFFFFFFFFFFFFFFFFFFFFFFFFFFFFFFFFF AND PUSH20 0xFFFFFFFFFFFFFFFFFFFFFFFFFFFFFFFFFFFFFFFF AND PUSH4 0xA9059CBB DUP4 DUP4 PUSH1 0x40 MLOAD DUP4 PUSH4 0xFFFFFFFF AND PUSH1 0xE0 SHL DUP2 MSTORE PUSH1 0x4 ADD PUSH2 0x61B SWAP3 SWAP2 SWAP1 PUSH2 0x1F44 JUMP JUMPDEST PUSH1 0x20 PUSH1 0x40 MLOAD DUP1 DUP4 SUB DUP2 PUSH1 0x0 DUP8 DUP1 EXTCODESIZE ISZERO DUP1 ISZERO PUSH2 0x635 JUMPI PUSH1 0x0 DUP1 REVERT JUMPDEST POP GAS CALL ISZERO DUP1 ISZERO PUSH2 0x649 JUMPI RETURNDATASIZE PUSH1 0x0 DUP1 RETURNDATACOPY RETURNDATASIZE PUSH1 0x0 REVERT JUMPDEST POP POP POP POP PUSH1 0x40 MLOAD RETURNDATASIZE PUSH1 0x1F NOT PUSH1 0x1F DUP3 ADD AND DUP3 ADD DUP1 PUSH1 0x40 MSTORE POP DUP2 ADD SWAP1 PUSH2 0x66D SWAP2 SWAP1 PUSH2 0x1BDE JUMP JUMPDEST POP PUSH32 0x34FCBAC0073D7C3D388E51312FAF357774904998EEB8FCA628B9E6F65EE1CBF7 DUP3 DUP5 DUP4 PUSH1 0x40 MLOAD PUSH2 0x6A1 SWAP4 SWAP3 SWAP2 SWAP1 PUSH2 0x1F6D JUMP JUMPDEST PUSH1 0x40 MLOAD DUP1 SWAP2 SUB SWAP1 LOG1 POP POP POP JUMP JUMPDEST PUSH2 0x6B6 PUSH2 0x18C4 JUMP JUMPDEST PUSH20 0xFFFFFFFFFFFFFFFFFFFFFFFFFFFFFFFFFFFFFFFF AND PUSH2 0x6D4 PUSH2 0xFEE JUMP JUMPDEST PUSH20 0xFFFFFFFFFFFFFFFFFFFFFFFFFFFFFFFFFFFFFFFF AND EQ PUSH2 0x72A JUMPI PUSH1 0x40 MLOAD PUSH32 0x8C379A000000000000000000000000000000000000000000000000000000000 DUP2 MSTORE PUSH1 0x4 ADD PUSH2 0x721 SWAP1 PUSH2 0x203A JUMP JUMPDEST PUSH1 0x40 MLOAD DUP1 SWAP2 SUB SWAP1 REVERT JUMPDEST PUSH2 0x732 PUSH2 0x18CC JUMP JUMPDEST JUMP JUMPDEST PUSH1 0x0 CALLER SWAP1 POP DUP3 PUSH1 0x3 PUSH1 0x0 DUP4 PUSH20 0xFFFFFFFFFFFFFFFFFFFFFFFFFFFFFFFFFFFFFFFF AND PUSH20 0xFFFFFFFFFFFFFFFFFFFFFFFFFFFFFFFFFFFFFFFF AND DUP2 MSTORE PUSH1 0x20 ADD SWAP1 DUP2 MSTORE PUSH1 0x20 ADD PUSH1 0x0 KECCAK256 PUSH1 0x0 DUP5 DUP2 MSTORE PUSH1 0x20 ADD SWAP1 DUP2 MSTORE PUSH1 0x20 ADD PUSH1 0x0 KECCAK256 PUSH1 0x0 ADD SLOAD LT ISZERO PUSH2 0x7CF JUMPI PUSH1 0x40 MLOAD PUSH32 0x8C379A000000000000000000000000000000000000000000000000000000000 DUP2 MSTORE PUSH1 0x4 ADD PUSH2 0x7C6 SWAP1 PUSH2 0x207A JUMP JUMPDEST PUSH1 0x40 MLOAD DUP1 SWAP2 SUB SWAP1 REVERT JUMPDEST PUSH1 0x0 PUSH2 0x7DB DUP3 DUP5 PUSH2 0x1248 JUMP JUMPDEST SWAP1 POP PUSH1 0x0 DUP2 DUP6 PUSH2 0x7EB SWAP2 SWAP1 PUSH2 0x220C JUMP JUMPDEST SWAP1 POP PUSH1 0x0 TIMESTAMP PUSH1 0x3 PUSH1 0x0 DUP7 PUSH20 0xFFFFFFFFFFFFFFFFFFFFFFFFFFFFFFFFFFFFFFFF AND PUSH20 0xFFFFFFFFFFFFFFFFFFFFFFFFFFFFFFFFFFFFFFFF AND DUP2 MSTORE PUSH1 0x20 ADD SWAP1 DUP2 MSTORE PUSH1 0x20 ADD PUSH1 0x0 KECCAK256 PUSH1 0x0 DUP8 DUP2 MSTORE PUSH1 0x20 ADD SWAP1 DUP2 MSTORE PUSH1 0x20 ADD PUSH1 0x0 KECCAK256 PUSH1 0x4 ADD SLOAD GT ISZERO PUSH2 0x867 JUMPI PUSH1 0x64 PUSH1 0x2 SLOAD DUP4 PUSH2 0x85A SWAP2 SWAP1 PUSH2 0x2293 JUMP JUMPDEST PUSH2 0x864 SWAP2 SWAP1 PUSH2 0x2262 JUMP JUMPDEST SWAP1 POP JUMPDEST TIMESTAMP PUSH1 0x3 PUSH1 0x0 DUP7 PUSH20 0xFFFFFFFFFFFFFFFFFFFFFFFFFFFFFFFFFFFFFFFF AND PUSH20 0xFFFFFFFFFFFFFFFFFFFFFFFFFFFFFFFFFFFFFFFF AND DUP2 MSTORE PUSH1 0x20 ADD SWAP1 DUP2 MSTORE PUSH1 0x20 ADD PUSH1 0x0 KECCAK256 PUSH1 0x0 DUP8 DUP2 MSTORE PUSH1 0x20 ADD SWAP1 DUP2 MSTORE PUSH1 0x20 ADD PUSH1 0x0 KECCAK256 PUSH1 0x3 ADD DUP2 SWAP1 SSTORE POP DUP6 PUSH1 0x3 PUSH1 0x0 DUP7 PUSH20 0xFFFFFFFFFFFFFFFFFFFFFFFFFFFFFFFFFFFFFFFF AND PUSH20 0xFFFFFFFFFFFFFFFFFFFFFFFFFFFFFFFFFFFFFFFF AND DUP2 MSTORE PUSH1 0x20 ADD SWAP1 DUP2 MSTORE PUSH1 0x20 ADD PUSH1 0x0 KECCAK256 PUSH1 0x0 DUP8 DUP2 MSTORE PUSH1 0x20 ADD SWAP1 DUP2 MSTORE PUSH1 0x20 ADD PUSH1 0x0 KECCAK256 PUSH1 0x0 ADD PUSH1 0x0 DUP3 DUP3 SLOAD PUSH2 0x922 SWAP2 SWAP1 PUSH2 0x22ED JUMP JUMPDEST SWAP3 POP POP DUP2 SWAP1 SSTORE POP PUSH1 0x1 PUSH1 0x0 SWAP1 SLOAD SWAP1 PUSH2 0x100 EXP SWAP1 DIV PUSH20 0xFFFFFFFFFFFFFFFFFFFFFFFFFFFFFFFFFFFFFFFF AND PUSH20 0xFFFFFFFFFFFFFFFFFFFFFFFFFFFFFFFFFFFFFFFF AND PUSH4 0xA9059CBB DUP6 DUP4 DUP6 PUSH2 0x974 SWAP2 SWAP1 PUSH2 0x22ED JUMP JUMPDEST PUSH1 0x40 MLOAD DUP4 PUSH4 0xFFFFFFFF AND PUSH1 0xE0 SHL DUP2 MSTORE PUSH1 0x4 ADD PUSH2 0x991 SWAP3 SWAP2 SWAP1 PUSH2 0x1F44 JUMP JUMPDEST PUSH1 0x20 PUSH1 0x40 MLOAD DUP1 DUP4 SUB DUP2 PUSH1 0x0 DUP8 DUP1 EXTCODESIZE ISZERO DUP1 ISZERO PUSH2 0x9AB JUMPI PUSH1 0x0 DUP1 REVERT JUMPDEST POP GAS CALL ISZERO DUP1 ISZERO PUSH2 0x9BF JUMPI RETURNDATASIZE PUSH1 0x0 DUP1 RETURNDATACOPY RETURNDATASIZE PUSH1 0x0 REVERT JUMPDEST POP POP POP POP PUSH1 0x40 MLOAD RETURNDATASIZE PUSH1 0x1F NOT PUSH1 0x1F DUP3 ADD AND DUP3 ADD DUP1 PUSH1 0x40 MSTORE POP DUP2 ADD SWAP1 PUSH2 0x9E3 SWAP2 SWAP1 PUSH2 0x1BDE JUMP JUMPDEST POP PUSH32 0xF279E6A1F5E320CCA91135676D9CB6E44CA8A08C0B88342BCDB1144F6511B568 DUP5 PUSH1 0x0 DUP9 PUSH1 0x40 MLOAD PUSH2 0xA18 SWAP4 SWAP3 SWAP2 SWAP1 PUSH2 0x1F0D JUMP JUMPDEST PUSH1 0x40 MLOAD DUP1 SWAP2 SUB SWAP1 LOG1 POP POP POP POP POP POP JUMP JUMPDEST PUSH1 0x1 PUSH1 0x0 SWAP1 SLOAD SWAP1 PUSH2 0x100 EXP SWAP1 DIV PUSH20 0xFFFFFFFFFFFFFFFFFFFFFFFFFFFFFFFFFFFFFFFF AND DUP2 JUMP JUMPDEST PUSH1 0x0 DUP1 PUSH1 0x14 SWAP1 SLOAD SWAP1 PUSH2 0x100 EXP SWAP1 DIV PUSH1 0xFF AND SWAP1 POP SWAP1 JUMP JUMPDEST PUSH2 0xA6C PUSH2 0x1AD4 JUMP JUMPDEST PUSH2 0xA74 PUSH2 0x1AD4 JUMP JUMPDEST PUSH2 0xA7C PUSH2 0x1AD4 JUMP JUMPDEST PUSH2 0xA84 PUSH2 0x1AD4 JUMP JUMPDEST PUSH1 0x0 DUP1 PUSH1 0x0 DUP1 PUSH1 0x3 PUSH1 0x0 DUP11 PUSH20 0xFFFFFFFFFFFFFFFFFFFFFFFFFFFFFFFFFFFFFFFF AND PUSH20 0xFFFFFFFFFFFFFFFFFFFFFFFFFFFFFFFFFFFFFFFF AND DUP2 MSTORE PUSH1 0x20 ADD SWAP1 DUP2 MSTORE PUSH1 0x20 ADD PUSH1 0x0 KECCAK256 PUSH1 0x0 DUP1 DUP2 MSTORE PUSH1 0x20 ADD SWAP1 DUP2 MSTORE PUSH1 0x20 ADD PUSH1 0x0 KECCAK256 PUSH1 0x40 MLOAD DUP1 PUSH1 0xA0 ADD PUSH1 0x40 MSTORE SWAP1 DUP2 PUSH1 0x0 DUP3 ADD SLOAD DUP2 MSTORE PUSH1 0x20 ADD PUSH1 0x1 DUP3 ADD SLOAD DUP2 MSTORE PUSH1 0x20 ADD PUSH1 0x2 DUP3 ADD SLOAD DUP2 MSTORE PUSH1 0x20 ADD PUSH1 0x3 DUP3 ADD SLOAD DUP2 MSTORE PUSH1 0x20 ADD PUSH1 0x4 DUP3 ADD SLOAD DUP2 MSTORE POP POP SWAP8 POP PUSH1 0x3 PUSH1 0x0 DUP11 PUSH20 0xFFFFFFFFFFFFFFFFFFFFFFFFFFFFFFFFFFFFFFFF AND PUSH20 0xFFFFFFFFFFFFFFFFFFFFFFFFFFFFFFFFFFFFFFFF AND DUP2 MSTORE PUSH1 0x20 ADD SWAP1 DUP2 MSTORE PUSH1 0x20 ADD PUSH1 0x0 KECCAK256 PUSH1 0x0 PUSH1 0x1 DUP2 MSTORE PUSH1 0x20 ADD SWAP1 DUP2 MSTORE PUSH1 0x20 ADD PUSH1 0x0 KECCAK256 PUSH1 0x40 MLOAD DUP1 PUSH1 0xA0 ADD PUSH1 0x40 MSTORE SWAP1 DUP2 PUSH1 0x0 DUP3 ADD SLOAD DUP2 MSTORE PUSH1 0x20 ADD PUSH1 0x1 DUP3 ADD SLOAD DUP2 MSTORE PUSH1 0x20 ADD PUSH1 0x2 DUP3 ADD SLOAD DUP2 MSTORE PUSH1 0x20 ADD PUSH1 0x3 DUP3 ADD SLOAD DUP2 MSTORE PUSH1 0x20 ADD PUSH1 0x4 DUP3 ADD SLOAD DUP2 MSTORE POP POP SWAP7 POP PUSH1 0x3 PUSH1 0x0 DUP11 PUSH20 0xFFFFFFFFFFFFFFFFFFFFFFFFFFFFFFFFFFFFFFFF AND PUSH20 0xFFFFFFFFFFFFFFFFFFFFFFFFFFFFFFFFFFFFFFFF AND DUP2 MSTORE PUSH1 0x20 ADD SWAP1 DUP2 MSTORE PUSH1 0x20 ADD PUSH1 0x0 KECCAK256 PUSH1 0x0 PUSH1 0x2 DUP2 MSTORE PUSH1 0x20 ADD SWAP1 DUP2 MSTORE PUSH1 0x20 ADD PUSH1 0x0 KECCAK256 PUSH1 0x40 MLOAD DUP1 PUSH1 0xA0 ADD PUSH1 0x40 MSTORE SWAP1 DUP2 PUSH1 0x0 DUP3 ADD SLOAD DUP2 MSTORE PUSH1 0x20 ADD PUSH1 0x1 DUP3 ADD SLOAD DUP2 MSTORE PUSH1 0x20 ADD PUSH1 0x2 DUP3 ADD SLOAD DUP2 MSTORE PUSH1 0x20 ADD PUSH1 0x3 DUP3 ADD SLOAD DUP2 MSTORE PUSH1 0x20 ADD PUSH1 0x4 DUP3 ADD SLOAD DUP2 MSTORE POP POP SWAP6 POP PUSH1 0x3 PUSH1 0x0 DUP11 PUSH20 0xFFFFFFFFFFFFFFFFFFFFFFFFFFFFFFFFFFFFFFFF AND PUSH20 0xFFFFFFFFFFFFFFFFFFFFFFFFFFFFFFFFFFFFFFFF AND DUP2 MSTORE PUSH1 0x20 ADD SWAP1 DUP2 MSTORE PUSH1 0x20 ADD PUSH1 0x0 KECCAK256 PUSH1 0x0 PUSH1 0x3 DUP2 MSTORE PUSH1 0x20 ADD SWAP1 DUP2 MSTORE PUSH1 0x20 ADD PUSH1 0x0 KECCAK256 PUSH1 0x40 MLOAD DUP1 PUSH1 0xA0 ADD PUSH1 0x40 MSTORE SWAP1 DUP2 PUSH1 0x0 DUP3 ADD SLOAD DUP2 MSTORE PUSH1 0x20 ADD PUSH1 0x1 DUP3 ADD SLOAD DUP2 MSTORE PUSH1 0x20 ADD PUSH1 0x2 DUP3 ADD SLOAD DUP2 MSTORE PUSH1 0x20 ADD PUSH1 0x3 DUP3 ADD SLOAD DUP2 MSTORE PUSH1 0x20 ADD PUSH1 0x4 DUP3 ADD SLOAD DUP2 MSTORE POP POP SWAP5 POP PUSH2 0xCD4 DUP10 PUSH1 0x0 PUSH2 0x1248 JUMP JUMPDEST SWAP4 POP PUSH2 0xCE1 DUP10 PUSH1 0x1 PUSH2 0x1248 JUMP JUMPDEST SWAP3 POP PUSH2 0xCEE DUP10 PUSH1 0x2 PUSH2 0x1248 JUMP JUMPDEST SWAP2 POP PUSH2 0xCFB DUP10 PUSH1 0x3 PUSH2 0x1248 JUMP JUMPDEST SWAP1 POP SWAP2 SWAP4 SWAP6 SWAP8 POP SWAP2 SWAP4 SWAP6 SWAP8 JUMP JUMPDEST PUSH2 0xD10 PUSH2 0x18C4 JUMP JUMPDEST PUSH20 0xFFFFFFFFFFFFFFFFFFFFFFFFFFFFFFFFFFFFFFFF AND PUSH2 0xD2E PUSH2 0xFEE JUMP JUMPDEST PUSH20 0xFFFFFFFFFFFFFFFFFFFFFFFFFFFFFFFFFFFFFFFF AND EQ PUSH2 0xD84 JUMPI PUSH1 0x40 MLOAD PUSH32 0x8C379A000000000000000000000000000000000000000000000000000000000 DUP2 MSTORE PUSH1 0x4 ADD PUSH2 0xD7B SWAP1 PUSH2 0x203A JUMP JUMPDEST PUSH1 0x40 MLOAD DUP1 SWAP2 SUB SWAP1 REVERT JUMPDEST PUSH2 0xD8E PUSH1 0x0 PUSH2 0x196D JUMP JUMPDEST JUMP JUMPDEST PUSH2 0xD98 PUSH2 0x18C4 JUMP JUMPDEST PUSH20 0xFFFFFFFFFFFFFFFFFFFFFFFFFFFFFFFFFFFFFFFF AND PUSH2 0xDB6 PUSH2 0xFEE JUMP JUMPDEST PUSH20 0xFFFFFFFFFFFFFFFFFFFFFFFFFFFFFFFFFFFFFFFF AND EQ PUSH2 0xE0C JUMPI PUSH1 0x40 MLOAD PUSH32 0x8C379A000000000000000000000000000000000000000000000000000000000 DUP2 MSTORE PUSH1 0x4 ADD PUSH2 0xE03 SWAP1 PUSH2 0x203A JUMP JUMPDEST PUSH1 0x40 MLOAD DUP1 SWAP2 SUB SWAP1 REVERT JUMPDEST PUSH2 0xE14 PUSH2 0x1A31 JUMP JUMPDEST JUMP JUMPDEST PUSH2 0xE1E PUSH2 0x18C4 JUMP JUMPDEST PUSH20 0xFFFFFFFFFFFFFFFFFFFFFFFFFFFFFFFFFFFFFFFF AND PUSH2 0xE3C PUSH2 0xFEE JUMP JUMPDEST PUSH20 0xFFFFFFFFFFFFFFFFFFFFFFFFFFFFFFFFFFFFFFFF AND EQ PUSH2 0xE92 JUMPI PUSH1 0x40 MLOAD PUSH32 0x8C379A000000000000000000000000000000000000000000000000000000000 DUP2 MSTORE PUSH1 0x4 ADD PUSH2 0xE89 SWAP1 PUSH2 0x203A JUMP JUMPDEST PUSH1 0x40 MLOAD DUP1 SWAP2 SUB SWAP1 REVERT JUMPDEST PUSH1 0x1 PUSH1 0x0 SWAP1 SLOAD SWAP1 PUSH2 0x100 EXP SWAP1 DIV PUSH20 0xFFFFFFFFFFFFFFFFFFFFFFFFFFFFFFFFFFFFFFFF AND PUSH20 0xFFFFFFFFFFFFFFFFFFFFFFFFFFFFFFFFFFFFFFFF AND PUSH4 0xA9059CBB CALLER PUSH1 0x1 PUSH1 0x0 SWAP1 SLOAD SWAP1 PUSH2 0x100 EXP SWAP1 DIV PUSH20 0xFFFFFFFFFFFFFFFFFFFFFFFFFFFFFFFFFFFFFFFF AND PUSH20 0xFFFFFFFFFFFFFFFFFFFFFFFFFFFFFFFFFFFFFFFF AND PUSH4 0x70A08231 ADDRESS PUSH1 0x40 MLOAD DUP3 PUSH4 0xFFFFFFFF AND PUSH1 0xE0 SHL DUP2 MSTORE PUSH1 0x4 ADD PUSH2 0xF2C SWAP2 SWAP1 PUSH2 0x1EBB JUMP JUMPDEST PUSH1 0x20 PUSH1 0x40 MLOAD DUP1 DUP4 SUB DUP2 DUP7 DUP1 EXTCODESIZE ISZERO DUP1 ISZERO PUSH2 0xF44 JUMPI PUSH1 0x0 DUP1 REVERT JUMPDEST POP GAS STATICCALL ISZERO DUP1 ISZERO PUSH2 0xF58 JUMPI RETURNDATASIZE PUSH1 0x0 DUP1 RETURNDATACOPY RETURNDATASIZE PUSH1 0x0 REVERT JUMPDEST POP POP POP POP PUSH1 0x40 MLOAD RETURNDATASIZE PUSH1 0x1F NOT PUSH1 0x1F DUP3 ADD AND DUP3 ADD DUP1 PUSH1 0x40 MSTORE POP DUP2 ADD SWAP1 PUSH2 0xF7C SWAP2 SWAP1 PUSH2 0x1C38 JUMP JUMPDEST PUSH1 0x40 MLOAD DUP4 PUSH4 0xFFFFFFFF AND PUSH1 0xE0 SHL DUP2 MSTORE PUSH1 0x4 ADD PUSH2 0xF99 SWAP3 SWAP2 SWAP1 PUSH2 0x1F44 JUMP JUMPDEST PUSH1 0x20 PUSH1 0x40 MLOAD DUP1 DUP4 SUB DUP2 PUSH1 0x0 DUP8 DUP1 EXTCODESIZE ISZERO DUP1 ISZERO PUSH2 0xFB3 JUMPI PUSH1 0x0 DUP1 REVERT JUMPDEST POP GAS CALL ISZERO DUP1 ISZERO PUSH2 0xFC7 JUMPI RETURNDATASIZE PUSH1 0x0 DUP1 RETURNDATACOPY RETURNDATASIZE PUSH1 0x0 REVERT JUMPDEST POP POP POP POP PUSH1 0x40 MLOAD RETURNDATASIZE PUSH1 0x1F NOT PUSH1 0x1F DUP3 ADD AND DUP3 ADD DUP1 PUSH1 0x40 MSTORE POP DUP2 ADD SWAP1 PUSH2 0xFEB SWAP2 SWAP1 PUSH2 0x1BDE JUMP JUMPDEST POP JUMP JUMPDEST PUSH1 0x0 DUP1 PUSH1 0x0 SWAP1 SLOAD SWAP1 PUSH2 0x100 EXP SWAP1 DIV PUSH20 0xFFFFFFFFFFFFFFFFFFFFFFFFFFFFFFFFFFFFFFFF AND SWAP1 POP SWAP1 JUMP JUMPDEST PUSH1 0x0 CALLER SWAP1 POP PUSH1 0x0 PUSH1 0x3 PUSH1 0x0 DUP4 PUSH20 0xFFFFFFFFFFFFFFFFFFFFFFFFFFFFFFFFFFFFFFFF AND PUSH20 0xFFFFFFFFFFFFFFFFFFFFFFFFFFFFFFFFFFFFFFFF AND DUP2 MSTORE PUSH1 0x20 ADD SWAP1 DUP2 MSTORE PUSH1 0x20 ADD PUSH1 0x0 KECCAK256 PUSH1 0x0 DUP5 DUP2 MSTORE PUSH1 0x20 ADD SWAP1 DUP2 MSTORE PUSH1 0x20 ADD PUSH1 0x0 KECCAK256 PUSH1 0x0 ADD SLOAD GT PUSH2 0x10B2 JUMPI PUSH1 0x40 MLOAD PUSH32 0x8C379A000000000000000000000000000000000000000000000000000000000 DUP2 MSTORE PUSH1 0x4 ADD PUSH2 0x10A9 SWAP1 PUSH2 0x205A JUMP JUMPDEST PUSH1 0x40 MLOAD DUP1 SWAP2 SUB SWAP1 REVERT JUMPDEST PUSH1 0x0 PUSH2 0x10BE DUP3 DUP5 PUSH2 0x1248 JUMP JUMPDEST SWAP1 POP DUP1 PUSH1 0x3 PUSH1 0x0 DUP5 PUSH20 0xFFFFFFFFFFFFFFFFFFFFFFFFFFFFFFFFFFFFFFFF AND PUSH20 0xFFFFFFFFFFFFFFFFFFFFFFFFFFFFFFFFFFFFFFFF AND DUP2 MSTORE PUSH1 0x20 ADD SWAP1 DUP2 MSTORE PUSH1 0x20 ADD PUSH1 0x0 KECCAK256 PUSH1 0x0 DUP6 DUP2 MSTORE PUSH1 0x20 ADD SWAP1 DUP2 MSTORE PUSH1 0x20 ADD PUSH1 0x0 KECCAK256 PUSH1 0x0 ADD PUSH1 0x0 DUP3 DUP3 SLOAD PUSH2 0x1123 SWAP2 SWAP1 PUSH2 0x220C JUMP JUMPDEST SWAP3 POP POP DUP2 SWAP1 SSTORE POP TIMESTAMP PUSH1 0x3 PUSH1 0x0 DUP5 PUSH20 0xFFFFFFFFFFFFFFFFFFFFFFFFFFFFFFFFFFFFFFFF AND PUSH20 0xFFFFFFFFFFFFFFFFFFFFFFFFFFFFFFFFFFFFFFFF AND DUP2 MSTORE PUSH1 0x20 ADD SWAP1 DUP2 MSTORE PUSH1 0x20 ADD PUSH1 0x0 KECCAK256 PUSH1 0x0 DUP6 DUP2 MSTORE PUSH1 0x20 ADD SWAP1 DUP2 MSTORE PUSH1 0x20 ADD PUSH1 0x0 KECCAK256 PUSH1 0x3 ADD DUP2 SWAP1 SSTORE POP PUSH32 0xE311A2C6DBFB0153EC3A8A5BDCA09070B3E5F60768FDC10A20453F38D186873 DUP3 DUP5 DUP4 PUSH1 0x40 MLOAD PUSH2 0x11B5 SWAP4 SWAP3 SWAP2 SWAP1 PUSH2 0x1F6D JUMP JUMPDEST PUSH1 0x40 MLOAD DUP1 SWAP2 SUB SWAP1 LOG1 POP POP POP JUMP JUMPDEST PUSH2 0x11CA PUSH2 0x18C4 JUMP JUMPDEST PUSH20 0xFFFFFFFFFFFFFFFFFFFFFFFFFFFFFFFFFFFFFFFF AND PUSH2 0x11E8 PUSH2 0xFEE JUMP JUMPDEST PUSH20 0xFFFFFFFFFFFFFFFFFFFFFFFFFFFFFFFFFFFFFFFF AND EQ PUSH2 0x123E JUMPI PUSH1 0x40 MLOAD PUSH32 0x8C379A000000000000000000000000000000000000000000000000000000000 DUP2 MSTORE PUSH1 0x4 ADD PUSH2 0x1235 SWAP1 PUSH2 0x203A JUMP JUMPDEST PUSH1 0x40 MLOAD DUP1 SWAP2 SUB SWAP1 REVERT JUMPDEST DUP1 PUSH1 0x2 DUP2 SWAP1 SSTORE POP POP JUMP JUMPDEST PUSH1 0x0 DUP1 PUSH1 0x3 PUSH1 0x0 DUP6 PUSH20 0xFFFFFFFFFFFFFFFFFFFFFFFFFFFFFFFFFFFFFFFF AND PUSH20 0xFFFFFFFFFFFFFFFFFFFFFFFFFFFFFFFFFFFFFFFF AND DUP2 MSTORE PUSH1 0x20 ADD SWAP1 DUP2 MSTORE PUSH1 0x20 ADD PUSH1 0x0 KECCAK256 PUSH1 0x0 DUP5 DUP2 MSTORE PUSH1 0x20 ADD SWAP1 DUP2 MSTORE PUSH1 0x20 ADD PUSH1 0x0 KECCAK256 PUSH1 0x3 ADD SLOAD TIMESTAMP PUSH2 0x12AA SWAP2 SWAP1 PUSH2 0x22ED JUMP JUMPDEST SWAP1 POP PUSH1 0x0 PUSH1 0x3 PUSH1 0x0 DUP7 PUSH20 0xFFFFFFFFFFFFFFFFFFFFFFFFFFFFFFFFFFFFFFFF AND PUSH20 0xFFFFFFFFFFFFFFFFFFFFFFFFFFFFFFFFFFFFFFFF AND DUP2 MSTORE PUSH1 0x20 ADD SWAP1 DUP2 MSTORE PUSH1 0x20 ADD PUSH1 0x0 KECCAK256 PUSH1 0x0 DUP6 DUP2 MSTORE PUSH1 0x20 ADD SWAP1 DUP2 MSTORE PUSH1 0x20 ADD PUSH1 0x0 KECCAK256 PUSH1 0x0 ADD SLOAD SWAP1 POP PUSH1 0x0 PUSH1 0x4 PUSH1 0x0 DUP7 DUP2 MSTORE PUSH1 0x20 ADD SWAP1 DUP2 MSTORE PUSH1 0x20 ADD PUSH1 0x0 KECCAK256 PUSH1 0x0 ADD SLOAD SWAP1 POP PUSH1 0x0 PUSH4 0x1E13380 PUSH2 0x2710 DUP4 DUP6 PUSH2 0x1335 SWAP2 SWAP1 PUSH2 0x2293 JUMP JUMPDEST PUSH2 0x133F SWAP2 SWAP1 PUSH2 0x2262 JUMP JUMPDEST PUSH2 0x1349 SWAP2 SWAP1 PUSH2 0x2262 JUMP JUMPDEST SWAP1 POP PUSH1 0x0 DUP2 DUP6 PUSH2 0x1359 SWAP2 SWAP1 PUSH2 0x2293 JUMP JUMPDEST SWAP1 POP DUP1 SWAP6 POP POP POP POP POP POP SWAP3 SWAP2 POP POP JUMP JUMPDEST PUSH2 0x1371 PUSH2 0xA4E JUMP JUMPDEST ISZERO PUSH2 0x13B1 JUMPI PUSH1 0x40 MLOAD PUSH32 0x8C379A000000000000000000000000000000000000000000000000000000000 DUP2 MSTORE PUSH1 0x4 ADD PUSH2 0x13A8 SWAP1 PUSH2 0x201A JUMP JUMPDEST PUSH1 0x40 MLOAD DUP1 SWAP2 SUB SWAP1 REVERT JUMPDEST PUSH1 0x0 CALLER SWAP1 POP PUSH1 0x1 PUSH1 0x0 SWAP1 SLOAD SWAP1 PUSH2 0x100 EXP SWAP1 DIV PUSH20 0xFFFFFFFFFFFFFFFFFFFFFFFFFFFFFFFFFFFFFFFF AND PUSH20 0xFFFFFFFFFFFFFFFFFFFFFFFFFFFFFFFFFFFFFFFF AND PUSH4 0x23B872DD DUP3 ADDRESS DUP7 PUSH1 0x40 MLOAD DUP5 PUSH4 0xFFFFFFFF AND PUSH1 0xE0 SHL DUP2 MSTORE PUSH1 0x4 ADD PUSH2 0x1415 SWAP4 SWAP3 SWAP2 SWAP1 PUSH2 0x1ED6 JUMP JUMPDEST PUSH1 0x20 PUSH1 0x40 MLOAD DUP1 DUP4 SUB DUP2 PUSH1 0x0 DUP8 DUP1 EXTCODESIZE ISZERO DUP1 ISZERO PUSH2 0x142F JUMPI PUSH1 0x0 DUP1 REVERT JUMPDEST POP GAS CALL ISZERO DUP1 ISZERO PUSH2 0x1443 JUMPI RETURNDATASIZE PUSH1 0x0 DUP1 RETURNDATACOPY RETURNDATASIZE PUSH1 0x0 REVERT JUMPDEST POP POP POP POP PUSH1 0x40 MLOAD RETURNDATASIZE PUSH1 0x1F NOT PUSH1 0x1F DUP3 ADD AND DUP3 ADD DUP1 PUSH1 0x40 MSTORE POP DUP2 ADD SWAP1 PUSH2 0x1467 SWAP2 SWAP1 PUSH2 0x1BDE JUMP JUMPDEST POP PUSH1 0x0 PUSH1 0x3 PUSH1 0x0 DUP4 PUSH20 0xFFFFFFFFFFFFFFFFFFFFFFFFFFFFFFFFFFFFFFFF AND PUSH20 0xFFFFFFFFFFFFFFFFFFFFFFFFFFFFFFFFFFFFFFFF AND DUP2 MSTORE PUSH1 0x20 ADD SWAP1 DUP2 MSTORE PUSH1 0x20 ADD PUSH1 0x0 KECCAK256 PUSH1 0x0 DUP5 DUP2 MSTORE PUSH1 0x20 ADD SWAP1 DUP2 MSTORE PUSH1 0x20 ADD PUSH1 0x0 KECCAK256 PUSH1 0x0 ADD SLOAD GT ISZERO PUSH2 0x14DC JUMPI PUSH2 0x14CE DUP2 DUP4 PUSH2 0x1248 JUMP JUMPDEST DUP4 PUSH2 0x14D9 SWAP2 SWAP1 PUSH2 0x220C JUMP JUMPDEST SWAP3 POP JUMPDEST DUP3 PUSH1 0x3 PUSH1 0x0 DUP4 PUSH20 0xFFFFFFFFFFFFFFFFFFFFFFFFFFFFFFFFFFFFFFFF AND PUSH20 0xFFFFFFFFFFFFFFFFFFFFFFFFFFFFFFFFFFFFFFFF AND DUP2 MSTORE PUSH1 0x20 ADD SWAP1 DUP2 MSTORE PUSH1 0x20 ADD PUSH1 0x0 KECCAK256 PUSH1 0x0 DUP5 DUP2 MSTORE PUSH1 0x20 ADD SWAP1 DUP2 MSTORE PUSH1 0x20 ADD PUSH1 0x0 KECCAK256 PUSH1 0x0 ADD PUSH1 0x0 DUP3 DUP3 SLOAD PUSH2 0x153F SWAP2 SWAP1 PUSH2 0x220C JUMP JUMPDEST SWAP3 POP POP DUP2 SWAP1 SSTORE POP TIMESTAMP PUSH1 0x3 PUSH1 0x0 DUP4 PUSH20 0xFFFFFFFFFFFFFFFFFFFFFFFFFFFFFFFFFFFFFFFF AND PUSH20 0xFFFFFFFFFFFFFFFFFFFFFFFFFFFFFFFFFFFFFFFF AND DUP2 MSTORE PUSH1 0x20 ADD SWAP1 DUP2 MSTORE PUSH1 0x20 ADD PUSH1 0x0 KECCAK256 PUSH1 0x0 DUP5 DUP2 MSTORE PUSH1 0x20 ADD SWAP1 DUP2 MSTORE PUSH1 0x20 ADD PUSH1 0x0 KECCAK256 PUSH1 0x2 ADD DUP2 SWAP1 SSTORE POP TIMESTAMP PUSH1 0x3 PUSH1 0x0 DUP4 PUSH20 0xFFFFFFFFFFFFFFFFFFFFFFFFFFFFFFFFFFFFFFFF AND PUSH20 0xFFFFFFFFFFFFFFFFFFFFFFFFFFFFFFFFFFFFFFFF AND DUP2 MSTORE PUSH1 0x20 ADD SWAP1 DUP2 MSTORE PUSH1 0x20 ADD PUSH1 0x0 KECCAK256 PUSH1 0x0 DUP5 DUP2 MSTORE PUSH1 0x20 ADD SWAP1 DUP2 MSTORE PUSH1 0x20 ADD PUSH1 0x0 KECCAK256 PUSH1 0x3 ADD DUP2 SWAP1 SSTORE POP PUSH1 0x4 PUSH1 0x0 DUP4 DUP2 MSTORE PUSH1 0x20 ADD SWAP1 DUP2 MSTORE PUSH1 0x20 ADD PUSH1 0x0 KECCAK256 PUSH1 0x1 ADD SLOAD TIMESTAMP PUSH2 0x1618 SWAP2 SWAP1 PUSH2 0x220C JUMP JUMPDEST PUSH1 0x3 PUSH1 0x0 DUP4 PUSH20 0xFFFFFFFFFFFFFFFFFFFFFFFFFFFFFFFFFFFFFFFF AND PUSH20 0xFFFFFFFFFFFFFFFFFFFFFFFFFFFFFFFFFFFFFFFF AND DUP2 MSTORE PUSH1 0x20 ADD SWAP1 DUP2 MSTORE PUSH1 0x20 ADD PUSH1 0x0 KECCAK256 PUSH1 0x0 DUP5 DUP2 MSTORE PUSH1 0x20 ADD SWAP1 DUP2 MSTORE PUSH1 0x20 ADD PUSH1 0x0 KECCAK256 PUSH1 0x4 ADD DUP2 SWAP1 SSTORE POP PUSH32 0x90890809C654F11D6E72A28FA60149770A0D11EC6C92319D6CEB2BB0A4EA1A15 DUP2 DUP4 DUP6 PUSH1 0x40 MLOAD PUSH2 0x16A2 SWAP4 SWAP3 SWAP2 SWAP1 PUSH2 0x1F6D JUMP JUMPDEST PUSH1 0x40 MLOAD DUP1 SWAP2 SUB SWAP1 LOG1 POP POP POP JUMP JUMPDEST PUSH2 0x16B7 PUSH2 0x1B03 JUMP JUMPDEST PUSH2 0x16BF PUSH2 0x1B03 JUMP JUMPDEST PUSH2 0x16C7 PUSH2 0x1B03 JUMP JUMPDEST PUSH2 0x16CF PUSH2 0x1B03 JUMP JUMPDEST PUSH1 0x4 PUSH1 0x0 DUP1 DUP2 MSTORE PUSH1 0x20 ADD SWAP1 DUP2 MSTORE PUSH1 0x20 ADD PUSH1 0x0 KECCAK256 PUSH1 0x40 MLOAD DUP1 PUSH1 0x40 ADD PUSH1 0x40 MSTORE SWAP1 DUP2 PUSH1 0x0 DUP3 ADD SLOAD DUP2 MSTORE PUSH1 0x20 ADD PUSH1 0x1 DUP3 ADD SLOAD DUP2 MSTORE POP POP SWAP4 POP PUSH1 0x4 PUSH1 0x0 PUSH1 0x1 DUP2 MSTORE PUSH1 0x20 ADD SWAP1 DUP2 MSTORE PUSH1 0x20 ADD PUSH1 0x0 KECCAK256 PUSH1 0x40 MLOAD DUP1 PUSH1 0x40 ADD PUSH1 0x40 MSTORE SWAP1 DUP2 PUSH1 0x0 DUP3 ADD SLOAD DUP2 MSTORE PUSH1 0x20 ADD PUSH1 0x1 DUP3 ADD SLOAD DUP2 MSTORE POP POP SWAP3 POP PUSH1 0x4 PUSH1 0x0 PUSH1 0x2 DUP2 MSTORE PUSH1 0x20 ADD SWAP1 DUP2 MSTORE PUSH1 0x20 ADD PUSH1 0x0 KECCAK256 PUSH1 0x40 MLOAD DUP1 PUSH1 0x40 ADD PUSH1 0x40 MSTORE SWAP1 DUP2 PUSH1 0x0 DUP3 ADD SLOAD DUP2 MSTORE PUSH1 0x20 ADD PUSH1 0x1 DUP3 ADD SLOAD DUP2 MSTORE POP POP SWAP2 POP PUSH1 0x4 PUSH1 0x0 PUSH1 0x3 DUP2 MSTORE PUSH1 0x20 ADD SWAP1 DUP2 MSTORE PUSH1 0x20 ADD PUSH1 0x0 KECCAK256 PUSH1 0x40 MLOAD DUP1 PUSH1 0x40 ADD PUSH1 0x40 MSTORE SWAP1 DUP2 PUSH1 0x0 DUP3 ADD SLOAD DUP2 MSTORE PUSH1 0x20 ADD PUSH1 0x1 DUP3 ADD SLOAD DUP2 MSTORE POP POP SWAP1 POP SWAP1 SWAP2 SWAP3 SWAP4 JUMP JUMPDEST PUSH1 0x4 PUSH1 0x20 MSTORE DUP1 PUSH1 0x0 MSTORE PUSH1 0x40 PUSH1 0x0 KECCAK256 PUSH1 0x0 SWAP2 POP SWAP1 POP DUP1 PUSH1 0x0 ADD SLOAD SWAP1 DUP1 PUSH1 0x1 ADD SLOAD SWAP1 POP DUP3 JUMP JUMPDEST PUSH2 0x17D4 PUSH2 0x18C4 JUMP JUMPDEST PUSH20 0xFFFFFFFFFFFFFFFFFFFFFFFFFFFFFFFFFFFFFFFF AND PUSH2 0x17F2 PUSH2 0xFEE JUMP JUMPDEST PUSH20 0xFFFFFFFFFFFFFFFFFFFFFFFFFFFFFFFFFFFFFFFF AND EQ PUSH2 0x1848 JUMPI PUSH1 0x40 MLOAD PUSH32 0x8C379A000000000000000000000000000000000000000000000000000000000 DUP2 MSTORE PUSH1 0x4 ADD PUSH2 0x183F SWAP1 PUSH2 0x203A JUMP JUMPDEST PUSH1 0x40 MLOAD DUP1 SWAP2 SUB SWAP1 REVERT JUMPDEST PUSH1 0x0 PUSH20 0xFFFFFFFFFFFFFFFFFFFFFFFFFFFFFFFFFFFFFFFF AND DUP2 PUSH20 0xFFFFFFFFFFFFFFFFFFFFFFFFFFFFFFFFFFFFFFFF AND EQ ISZERO PUSH2 0x18B8 JUMPI PUSH1 0x40 MLOAD PUSH32 0x8C379A000000000000000000000000000000000000000000000000000000000 DUP2 MSTORE PUSH1 0x4 ADD PUSH2 0x18AF SWAP1 PUSH2 0x1FFA JUMP JUMPDEST PUSH1 0x40 MLOAD DUP1 SWAP2 SUB SWAP1 REVERT JUMPDEST PUSH2 0x18C1 DUP2 PUSH2 0x196D JUMP JUMPDEST POP JUMP JUMPDEST PUSH1 0x0 CALLER SWAP1 POP SWAP1 JUMP JUMPDEST PUSH2 0x18D4 PUSH2 0xA4E JUMP JUMPDEST PUSH2 0x1913 JUMPI PUSH1 0x40 MLOAD PUSH32 0x8C379A000000000000000000000000000000000000000000000000000000000 DUP2 MSTORE PUSH1 0x4 ADD PUSH2 0x190A SWAP1 PUSH2 0x1FDA JUMP JUMPDEST PUSH1 0x40 MLOAD DUP1 SWAP2 SUB SWAP1 REVERT JUMPDEST PUSH1 0x0 DUP1 PUSH1 0x14 PUSH2 0x100 EXP DUP2 SLOAD DUP2 PUSH1 0xFF MUL NOT AND SWAP1 DUP4 ISZERO ISZERO MUL OR SWAP1 SSTORE POP PUSH32 0x5DB9EE0A495BF2E6FF9C91A7834C1BA4FDD244A5E8AA4E537BD38AEAE4B073AA PUSH2 0x1956 PUSH2 0x18C4 JUMP JUMPDEST PUSH1 0x40 MLOAD PUSH2 0x1963 SWAP2 SWAP1 PUSH2 0x1EBB JUMP JUMPDEST PUSH1 0x40 MLOAD DUP1 SWAP2 SUB SWAP1 LOG1 JUMP JUMPDEST PUSH1 0x0 DUP1 PUSH1 0x0 SWAP1 SLOAD SWAP1 PUSH2 0x100 EXP SWAP1 DIV PUSH20 0xFFFFFFFFFFFFFFFFFFFFFFFFFFFFFFFFFFFFFFFF AND SWAP1 POP DUP2 PUSH1 0x0 DUP1 PUSH2 0x100 EXP DUP2 SLOAD DUP2 PUSH20 0xFFFFFFFFFFFFFFFFFFFFFFFFFFFFFFFFFFFFFFFF MUL NOT AND SWAP1 DUP4 PUSH20 0xFFFFFFFFFFFFFFFFFFFFFFFFFFFFFFFFFFFFFFFF AND MUL OR SWAP1 SSTORE POP DUP2 PUSH20 0xFFFFFFFFFFFFFFFFFFFFFFFFFFFFFFFFFFFFFFFF AND DUP2 PUSH20 0xFFFFFFFFFFFFFFFFFFFFFFFFFFFFFFFFFFFFFFFF AND PUSH32 0x8BE0079C531659141344CD1FD0A4F28419497F9722A3DAAFE3B4186F6B6457E0 PUSH1 0x40 MLOAD PUSH1 0x40 MLOAD DUP1 SWAP2 SUB SWAP1 LOG3 POP POP JUMP JUMPDEST PUSH2 0x1A39 PUSH2 0xA4E JUMP JUMPDEST ISZERO PUSH2 0x1A79 JUMPI PUSH1 0x40 MLOAD PUSH32 0x8C379A000000000000000000000000000000000000000000000000000000000 DUP2 MSTORE PUSH1 0x4 ADD PUSH2 0x1A70 SWAP1 PUSH2 0x201A JUMP JUMPDEST PUSH1 0x40 MLOAD DUP1 SWAP2 SUB SWAP1 REVERT JUMPDEST PUSH1 0x1 PUSH1 0x0 PUSH1 0x14 PUSH2 0x100 EXP DUP2 SLOAD DUP2 PUSH1 0xFF MUL NOT AND SWAP1 DUP4 ISZERO ISZERO MUL OR SWAP1 SSTORE POP PUSH32 0x62E78CEA01BEE320CD4E420270B5EA74000D11B0C9F74754EBDBFC544B05A258 PUSH2 0x1ABD PUSH2 0x18C4 JUMP JUMPDEST PUSH1 0x40 MLOAD PUSH2 0x1ACA SWAP2 SWAP1 PUSH2 0x1EBB JUMP JUMPDEST PUSH1 0x40 MLOAD DUP1 SWAP2 SUB SWAP1 LOG1 JUMP JUMPDEST PUSH1 0x40 MLOAD DUP1 PUSH1 0xA0 ADD PUSH1 0x40 MSTORE DUP1 PUSH1 0x0 DUP2 MSTORE PUSH1 0x20 ADD PUSH1 0x0 DUP2 MSTORE PUSH1 0x20 ADD PUSH1 0x0 DUP2 MSTORE PUSH1 0x20 ADD PUSH1 0x0 DUP2 MSTORE PUSH1 0x20 ADD PUSH1 0x0 DUP2 MSTORE POP SWAP1 JUMP JUMPDEST PUSH1 0x40 MLOAD DUP1 PUSH1 0x40 ADD PUSH1 0x40 MSTORE DUP1 PUSH1 0x0 DUP2 MSTORE PUSH1 0x20 ADD PUSH1 0x0 DUP2 MSTORE POP SWAP1 JUMP JUMPDEST PUSH1 0x0 DUP2 CALLDATALOAD SWAP1 POP PUSH2 0x1B2C DUP2 PUSH2 0x2530 JUMP JUMPDEST SWAP3 SWAP2 POP POP JUMP JUMPDEST PUSH1 0x0 DUP2 MLOAD SWAP1 POP PUSH2 0x1B41 DUP2 PUSH2 0x2547 JUMP JUMPDEST SWAP3 SWAP2 POP POP JUMP JUMPDEST PUSH1 0x0 DUP2 CALLDATALOAD SWAP1 POP PUSH2 0x1B56 DUP2 PUSH2 0x255E JUMP JUMPDEST SWAP3 SWAP2 POP POP JUMP JUMPDEST PUSH1 0x0 DUP2 MLOAD SWAP1 POP PUSH2 0x1B6B DUP2 PUSH2 0x255E JUMP JUMPDEST SWAP3 SWAP2 POP POP JUMP JUMPDEST PUSH1 0x0 PUSH1 0x20 DUP3 DUP5 SUB SLT ISZERO PUSH2 0x1B87 JUMPI PUSH2 0x1B86 PUSH2 0x240F JUMP JUMPDEST JUMPDEST PUSH1 0x0 PUSH2 0x1B95 DUP5 DUP3 DUP6 ADD PUSH2 0x1B1D JUMP JUMPDEST SWAP2 POP POP SWAP3 SWAP2 POP POP JUMP JUMPDEST PUSH1 0x0 DUP1 PUSH1 0x40 DUP4 DUP6 SUB SLT ISZERO PUSH2 0x1BB5 JUMPI PUSH2 0x1BB4 PUSH2 0x240F JUMP JUMPDEST JUMPDEST PUSH1 0x0 PUSH2 0x1BC3 DUP6 DUP3 DUP7 ADD PUSH2 0x1B1D JUMP JUMPDEST SWAP3 POP POP PUSH1 0x20 PUSH2 0x1BD4 DUP6 DUP3 DUP7 ADD PUSH2 0x1B47 JUMP JUMPDEST SWAP2 POP POP SWAP3 POP SWAP3 SWAP1 POP JUMP JUMPDEST PUSH1 0x0 PUSH1 0x20 DUP3 DUP5 SUB SLT ISZERO PUSH2 0x1BF4 JUMPI PUSH2 0x1BF3 PUSH2 0x240F JUMP JUMPDEST JUMPDEST PUSH1 0x0 PUSH2 0x1C02 DUP5 DUP3 DUP6 ADD PUSH2 0x1B32 JUMP JUMPDEST SWAP2 POP POP SWAP3 SWAP2 POP POP JUMP JUMPDEST PUSH1 0x0 PUSH1 0x20 DUP3 DUP5 SUB SLT ISZERO PUSH2 0x1C21 JUMPI PUSH2 0x1C20 PUSH2 0x240F JUMP JUMPDEST JUMPDEST PUSH1 0x0 PUSH2 0x1C2F DUP5 DUP3 DUP6 ADD PUSH2 0x1B47 JUMP JUMPDEST SWAP2 POP POP SWAP3 SWAP2 POP POP JUMP JUMPDEST PUSH1 0x0 PUSH1 0x20 DUP3 DUP5 SUB SLT ISZERO PUSH2 0x1C4E JUMPI PUSH2 0x1C4D PUSH2 0x240F JUMP JUMPDEST JUMPDEST PUSH1 0x0 PUSH2 0x1C5C DUP5 DUP3 DUP6 ADD PUSH2 0x1B5C JUMP JUMPDEST SWAP2 POP POP SWAP3 SWAP2 POP POP JUMP JUMPDEST PUSH1 0x0 DUP1 PUSH1 0x40 DUP4 DUP6 SUB SLT ISZERO PUSH2 0x1C7C JUMPI PUSH2 0x1C7B PUSH2 0x240F JUMP JUMPDEST JUMPDEST PUSH1 0x0 PUSH2 0x1C8A DUP6 DUP3 DUP7 ADD PUSH2 0x1B47 JUMP JUMPDEST SWAP3 POP POP PUSH1 0x20 PUSH2 0x1C9B DUP6 DUP3 DUP7 ADD PUSH2 0x1B47 JUMP JUMPDEST SWAP2 POP POP SWAP3 POP SWAP3 SWAP1 POP JUMP JUMPDEST PUSH1 0x0 DUP1 PUSH1 0x0 PUSH1 0x60 DUP5 DUP7 SUB SLT ISZERO PUSH2 0x1CBE JUMPI PUSH2 0x1CBD PUSH2 0x240F JUMP JUMPDEST JUMPDEST PUSH1 0x0 PUSH2 0x1CCC DUP7 DUP3 DUP8 ADD PUSH2 0x1B47 JUMP JUMPDEST SWAP4 POP POP PUSH1 0x20 PUSH2 0x1CDD DUP7 DUP3 DUP8 ADD PUSH2 0x1B47 JUMP JUMPDEST SWAP3 POP POP PUSH1 0x40 PUSH2 0x1CEE DUP7 DUP3 DUP8 ADD PUSH2 0x1B47 JUMP JUMPDEST SWAP2 POP POP SWAP3 POP SWAP3 POP SWAP3 JUMP JUMPDEST PUSH2 0x1D01 DUP2 PUSH2 0x2321 JUMP JUMPDEST DUP3 MSTORE POP POP JUMP JUMPDEST PUSH2 0x1D10 DUP2 PUSH2 0x2333 JUMP JUMPDEST DUP3 MSTORE POP POP JUMP JUMPDEST PUSH2 0x1D1F DUP2 PUSH2 0x2369 JUMP JUMPDEST DUP3 MSTORE POP POP JUMP JUMPDEST PUSH2 0x1D2E DUP2 PUSH2 0x237B JUMP JUMPDEST DUP3 MSTORE POP POP JUMP JUMPDEST PUSH1 0x0 PUSH2 0x1D41 PUSH1 0x14 DUP4 PUSH2 0x21FB JUMP JUMPDEST SWAP2 POP PUSH2 0x1D4C DUP3 PUSH2 0x2414 JUMP JUMPDEST PUSH1 0x20 DUP3 ADD SWAP1 POP SWAP2 SWAP1 POP JUMP JUMPDEST PUSH1 0x0 PUSH2 0x1D64 PUSH1 0x26 DUP4 PUSH2 0x21FB JUMP JUMPDEST SWAP2 POP PUSH2 0x1D6F DUP3 PUSH2 0x243D JUMP JUMPDEST PUSH1 0x40 DUP3 ADD SWAP1 POP SWAP2 SWAP1 POP JUMP JUMPDEST PUSH1 0x0 PUSH2 0x1D87 PUSH1 0x10 DUP4 PUSH2 0x21FB JUMP JUMPDEST SWAP2 POP PUSH2 0x1D92 DUP3 PUSH2 0x248C JUMP JUMPDEST PUSH1 0x20 DUP3 ADD SWAP1 POP SWAP2 SWAP1 POP JUMP JUMPDEST PUSH1 0x0 PUSH2 0x1DAA PUSH1 0x20 DUP4 PUSH2 0x21FB JUMP JUMPDEST SWAP2 POP PUSH2 0x1DB5 DUP3 PUSH2 0x24B5 JUMP JUMPDEST PUSH1 0x20 DUP3 ADD SWAP1 POP SWAP2 SWAP1 POP JUMP JUMPDEST PUSH1 0x0 PUSH2 0x1DCD PUSH1 0x11 DUP4 PUSH2 0x21FB JUMP JUMPDEST SWAP2 POP PUSH2 0x1DD8 DUP3 PUSH2 0x24DE JUMP JUMPDEST PUSH1 0x20 DUP3 ADD SWAP1 POP SWAP2 SWAP1 POP JUMP JUMPDEST PUSH1 0x0 PUSH2 0x1DF0 PUSH1 0x12 DUP4 PUSH2 0x21FB JUMP JUMPDEST SWAP2 POP PUSH2 0x1DFB DUP3 PUSH2 0x2507 JUMP JUMPDEST PUSH1 0x20 DUP3 ADD SWAP1 POP SWAP2 SWAP1 POP JUMP JUMPDEST PUSH1 0x40 DUP3 ADD PUSH1 0x0 DUP3 ADD MLOAD PUSH2 0x1E1C PUSH1 0x0 DUP6 ADD DUP3 PUSH2 0x1E9D JUMP JUMPDEST POP PUSH1 0x20 DUP3 ADD MLOAD PUSH2 0x1E2F PUSH1 0x20 DUP6 ADD DUP3 PUSH2 0x1E9D JUMP JUMPDEST POP POP POP POP JUMP JUMPDEST PUSH1 0xA0 DUP3 ADD PUSH1 0x0 DUP3 ADD MLOAD PUSH2 0x1E4B PUSH1 0x0 DUP6 ADD DUP3 PUSH2 0x1E9D JUMP JUMPDEST POP PUSH1 0x20 DUP3 ADD MLOAD PUSH2 0x1E5E PUSH1 0x20 DUP6 ADD DUP3 PUSH2 0x1E9D JUMP JUMPDEST POP PUSH1 0x40 DUP3 ADD MLOAD PUSH2 0x1E71 PUSH1 0x40 DUP6 ADD DUP3 PUSH2 0x1E9D JUMP JUMPDEST POP PUSH1 0x60 DUP3 ADD MLOAD PUSH2 0x1E84 PUSH1 0x60 DUP6 ADD DUP3 PUSH2 0x1E9D JUMP JUMPDEST POP PUSH1 0x80 DUP3 ADD MLOAD PUSH2 0x1E97 PUSH1 0x80 DUP6 ADD DUP3 PUSH2 0x1E9D JUMP JUMPDEST POP POP POP POP JUMP JUMPDEST PUSH2 0x1EA6 DUP2 PUSH2 0x235F JUMP JUMPDEST DUP3 MSTORE POP POP JUMP JUMPDEST PUSH2 0x1EB5 DUP2 PUSH2 0x235F JUMP JUMPDEST DUP3 MSTORE POP POP JUMP JUMPDEST PUSH1 0x0 PUSH1 0x20 DUP3 ADD SWAP1 POP PUSH2 0x1ED0 PUSH1 0x0 DUP4 ADD DUP5 PUSH2 0x1CF8 JUMP JUMPDEST SWAP3 SWAP2 POP POP JUMP JUMPDEST PUSH1 0x0 PUSH1 0x60 DUP3 ADD SWAP1 POP PUSH2 0x1EEB PUSH1 0x0 DUP4 ADD DUP7 PUSH2 0x1CF8 JUMP JUMPDEST PUSH2 0x1EF8 PUSH1 0x20 DUP4 ADD DUP6 PUSH2 0x1CF8 JUMP JUMPDEST PUSH2 0x1F05 PUSH1 0x40 DUP4 ADD DUP5 PUSH2 0x1EAC JUMP JUMPDEST SWAP5 SWAP4 POP POP POP POP JUMP JUMPDEST PUSH1 0x0 PUSH1 0x60 DUP3 ADD SWAP1 POP PUSH2 0x1F22 PUSH1 0x0 DUP4 ADD DUP7 PUSH2 0x1CF8 JUMP JUMPDEST PUSH2 0x1F2F PUSH1 0x20 DUP4 ADD DUP6 PUSH2 0x1D25 JUMP JUMPDEST PUSH2 0x1F3C PUSH1 0x40 DUP4 ADD DUP5 PUSH2 0x1EAC JUMP JUMPDEST SWAP5 SWAP4 POP POP POP POP JUMP JUMPDEST PUSH1 0x0 PUSH1 0x40 DUP3 ADD SWAP1 POP PUSH2 0x1F59 PUSH1 0x0 DUP4 ADD DUP6 PUSH2 0x1CF8 JUMP JUMPDEST PUSH2 0x1F66 PUSH1 0x20 DUP4 ADD DUP5 PUSH2 0x1EAC JUMP JUMPDEST SWAP4 SWAP3 POP POP POP JUMP JUMPDEST PUSH1 0x0 PUSH1 0x60 DUP3 ADD SWAP1 POP PUSH2 0x1F82 PUSH1 0x0 DUP4 ADD DUP7 PUSH2 0x1CF8 JUMP JUMPDEST PUSH2 0x1F8F PUSH1 0x20 DUP4 ADD DUP6 PUSH2 0x1EAC JUMP JUMPDEST PUSH2 0x1F9C PUSH1 0x40 DUP4 ADD DUP5 PUSH2 0x1EAC JUMP JUMPDEST SWAP5 SWAP4 POP POP POP POP JUMP JUMPDEST PUSH1 0x0 PUSH1 0x20 DUP3 ADD SWAP1 POP PUSH2 0x1FB9 PUSH1 0x0 DUP4 ADD DUP5 PUSH2 0x1D07 JUMP JUMPDEST SWAP3 SWAP2 POP POP JUMP JUMPDEST PUSH1 0x0 PUSH1 0x20 DUP3 ADD SWAP1 POP PUSH2 0x1FD4 PUSH1 0x0 DUP4 ADD DUP5 PUSH2 0x1D16 JUMP JUMPDEST SWAP3 SWAP2 POP POP JUMP JUMPDEST PUSH1 0x0 PUSH1 0x20 DUP3 ADD SWAP1 POP DUP2 DUP2 SUB PUSH1 0x0 DUP4 ADD MSTORE PUSH2 0x1FF3 DUP2 PUSH2 0x1D34 JUMP JUMPDEST SWAP1 POP SWAP2 SWAP1 POP JUMP JUMPDEST PUSH1 0x0 PUSH1 0x20 DUP3 ADD SWAP1 POP DUP2 DUP2 SUB PUSH1 0x0 DUP4 ADD MSTORE PUSH2 0x2013 DUP2 PUSH2 0x1D57 JUMP JUMPDEST SWAP1 POP SWAP2 SWAP1 POP JUMP JUMPDEST PUSH1 0x0 PUSH1 0x20 DUP3 ADD SWAP1 POP DUP2 DUP2 SUB PUSH1 0x0 DUP4 ADD MSTORE PUSH2 0x2033 DUP2 PUSH2 0x1D7A JUMP JUMPDEST SWAP1 POP SWAP2 SWAP1 POP JUMP JUMPDEST PUSH1 0x0 PUSH1 0x20 DUP3 ADD SWAP1 POP DUP2 DUP2 SUB PUSH1 0x0 DUP4 ADD MSTORE PUSH2 0x2053 DUP2 PUSH2 0x1D9D JUMP JUMPDEST SWAP1 POP SWAP2 SWAP1 POP JUMP JUMPDEST PUSH1 0x0 PUSH1 0x20 DUP3 ADD SWAP1 POP DUP2 DUP2 SUB PUSH1 0x0 DUP4 ADD MSTORE PUSH2 0x2073 DUP2 PUSH2 0x1DC0 JUMP JUMPDEST SWAP1 POP SWAP2 SWAP1 POP JUMP JUMPDEST PUSH1 0x0 PUSH1 0x20 DUP3 ADD SWAP1 POP DUP2 DUP2 SUB PUSH1 0x0 DUP4 ADD MSTORE PUSH2 0x2093 DUP2 PUSH2 0x1DE3 JUMP JUMPDEST SWAP1 POP SWAP2 SWAP1 POP JUMP JUMPDEST PUSH1 0x0 PUSH2 0x100 DUP3 ADD SWAP1 POP PUSH2 0x20B0 PUSH1 0x0 DUP4 ADD DUP8 PUSH2 0x1E06 JUMP JUMPDEST PUSH2 0x20BD PUSH1 0x40 DUP4 ADD DUP7 PUSH2 0x1E06 JUMP JUMPDEST PUSH2 0x20CA PUSH1 0x80 DUP4 ADD DUP6 PUSH2 0x1E06 JUMP JUMPDEST PUSH2 0x20D7 PUSH1 0xC0 DUP4 ADD DUP5 PUSH2 0x1E06 JUMP JUMPDEST SWAP6 SWAP5 POP POP POP POP POP JUMP JUMPDEST PUSH1 0x0 PUSH2 0x300 DUP3 ADD SWAP1 POP PUSH2 0x20F6 PUSH1 0x0 DUP4 ADD DUP12 PUSH2 0x1E35 JUMP JUMPDEST PUSH2 0x2103 PUSH1 0xA0 DUP4 ADD DUP11 PUSH2 0x1E35 JUMP JUMPDEST PUSH2 0x2111 PUSH2 0x140 DUP4 ADD DUP10 PUSH2 0x1E35 JUMP JUMPDEST PUSH2 0x211F PUSH2 0x1E0 DUP4 ADD DUP9 PUSH2 0x1E35 JUMP JUMPDEST PUSH2 0x212D PUSH2 0x280 DUP4 ADD DUP8 PUSH2 0x1EAC JUMP JUMPDEST PUSH2 0x213B PUSH2 0x2A0 DUP4 ADD DUP7 PUSH2 0x1EAC JUMP JUMPDEST PUSH2 0x2149 PUSH2 0x2C0 DUP4 ADD DUP6 PUSH2 0x1EAC JUMP JUMPDEST PUSH2 0x2157 PUSH2 0x2E0 DUP4 ADD DUP5 PUSH2 0x1EAC JUMP JUMPDEST SWAP10 SWAP9 POP POP POP POP POP POP POP POP POP JUMP JUMPDEST PUSH1 0x0 PUSH1 0x20 DUP3 ADD SWAP1 POP PUSH2 0x2179 PUSH1 0x0 DUP4 ADD DUP5 PUSH2 0x1EAC JUMP JUMPDEST SWAP3 SWAP2 POP POP JUMP JUMPDEST PUSH1 0x0 PUSH1 0x40 DUP3 ADD SWAP1 POP PUSH2 0x2194 PUSH1 0x0 DUP4 ADD DUP6 PUSH2 0x1EAC JUMP JUMPDEST PUSH2 0x21A1 PUSH1 0x20 DUP4 ADD DUP5 PUSH2 0x1EAC JUMP JUMPDEST SWAP4 SWAP3 POP POP POP JUMP JUMPDEST PUSH1 0x0 PUSH1 0xA0 DUP3 ADD SWAP1 POP PUSH2 0x21BD PUSH1 0x0 DUP4 ADD DUP9 PUSH2 0x1EAC JUMP JUMPDEST PUSH2 0x21CA PUSH1 0x20 DUP4 ADD DUP8 PUSH2 0x1EAC JUMP JUMPDEST PUSH2 0x21D7 PUSH1 0x40 DUP4 ADD DUP7 PUSH2 0x1EAC JUMP JUMPDEST PUSH2 0x21E4 PUSH1 0x60 DUP4 ADD DUP6 PUSH2 0x1EAC JUMP JUMPDEST PUSH2 0x21F1 PUSH1 0x80 DUP4 ADD DUP5 PUSH2 0x1EAC JUMP JUMPDEST SWAP7 SWAP6 POP POP POP POP POP POP JUMP JUMPDEST PUSH1 0x0 DUP3 DUP3 MSTORE PUSH1 0x20 DUP3 ADD SWAP1 POP SWAP3 SWAP2 POP POP JUMP JUMPDEST PUSH1 0x0 PUSH2 0x2217 DUP3 PUSH2 0x235F JUMP JUMPDEST SWAP2 POP PUSH2 0x2222 DUP4 PUSH2 0x235F JUMP JUMPDEST SWAP3 POP DUP3 PUSH32 0xFFFFFFFFFFFFFFFFFFFFFFFFFFFFFFFFFFFFFFFFFFFFFFFFFFFFFFFFFFFFFFFF SUB DUP3 GT ISZERO PUSH2 0x2257 JUMPI PUSH2 0x2256 PUSH2 0x23B1 JUMP JUMPDEST JUMPDEST DUP3 DUP3 ADD SWAP1 POP SWAP3 SWAP2 POP POP JUMP JUMPDEST PUSH1 0x0 PUSH2 0x226D DUP3 PUSH2 0x235F JUMP JUMPDEST SWAP2 POP PUSH2 0x2278 DUP4 PUSH2 0x235F JUMP JUMPDEST SWAP3 POP DUP3 PUSH2 0x2288 JUMPI PUSH2 0x2287 PUSH2 0x23E0 JUMP JUMPDEST JUMPDEST DUP3 DUP3 DIV SWAP1 POP SWAP3 SWAP2 POP POP JUMP JUMPDEST PUSH1 0x0 PUSH2 0x229E DUP3 PUSH2 0x235F JUMP JUMPDEST SWAP2 POP PUSH2 0x22A9 DUP4 PUSH2 0x235F JUMP JUMPDEST SWAP3 POP DUP2 PUSH32 0xFFFFFFFFFFFFFFFFFFFFFFFFFFFFFFFFFFFFFFFFFFFFFFFFFFFFFFFFFFFFFFFF DIV DUP4 GT DUP3 ISZERO ISZERO AND ISZERO PUSH2 0x22E2 JUMPI PUSH2 0x22E1 PUSH2 0x23B1 JUMP JUMPDEST JUMPDEST DUP3 DUP3 MUL SWAP1 POP SWAP3 SWAP2 POP POP JUMP JUMPDEST PUSH1 0x0 PUSH2 0x22F8 DUP3 PUSH2 0x235F JUMP JUMPDEST SWAP2 POP PUSH2 0x2303 DUP4 PUSH2 0x235F JUMP JUMPDEST SWAP3 POP DUP3 DUP3 LT ISZERO PUSH2 0x2316 JUMPI PUSH2 0x2315 PUSH2 0x23B1 JUMP JUMPDEST JUMPDEST DUP3 DUP3 SUB SWAP1 POP SWAP3 SWAP2 POP POP JUMP JUMPDEST PUSH1 0x0 PUSH2 0x232C DUP3 PUSH2 0x233F JUMP JUMPDEST SWAP1 POP SWAP2 SWAP1 POP JUMP JUMPDEST PUSH1 0x0 DUP2 ISZERO ISZERO SWAP1 POP SWAP2 SWAP1 POP JUMP JUMPDEST PUSH1 0x0 PUSH20 0xFFFFFFFFFFFFFFFFFFFFFFFFFFFFFFFFFFFFFFFF DUP3 AND SWAP1 POP SWAP2 SWAP1 POP JUMP JUMPDEST PUSH1 0x0 DUP2 SWAP1 POP SWAP2 SWAP1 POP JUMP JUMPDEST PUSH1 0x0 PUSH2 0x2374 DUP3 PUSH2 0x238D JUMP JUMPDEST SWAP1 POP SWAP2 SWAP1 POP JUMP JUMPDEST PUSH1 0x0 PUSH2 0x2386 DUP3 PUSH2 0x235F JUMP JUMPDEST SWAP1 POP SWAP2 SWAP1 POP JUMP JUMPDEST PUSH1 0x0 PUSH2 0x2398 DUP3 PUSH2 0x239F JUMP JUMPDEST SWAP1 POP SWAP2 SWAP1 POP JUMP JUMPDEST PUSH1 0x0 PUSH2 0x23AA DUP3 PUSH2 0x233F JUMP JUMPDEST SWAP1 POP SWAP2 SWAP1 POP JUMP JUMPDEST PUSH32 0x4E487B7100000000000000000000000000000000000000000000000000000000 PUSH1 0x0 MSTORE PUSH1 0x11 PUSH1 0x4 MSTORE PUSH1 0x24 PUSH1 0x0 REVERT JUMPDEST PUSH32 0x4E487B7100000000000000000000000000000000000000000000000000000000 PUSH1 0x0 MSTORE PUSH1 0x12 PUSH1 0x4 MSTORE PUSH1 0x24 PUSH1 0x0 REVERT JUMPDEST PUSH1 0x0 DUP1 REVERT JUMPDEST PUSH32 0x5061757361626C653A206E6F7420706175736564000000000000000000000000 PUSH1 0x0 DUP3 ADD MSTORE POP JUMP JUMPDEST PUSH32 0x4F776E61626C653A206E6577206F776E657220697320746865207A65726F2061 PUSH1 0x0 DUP3 ADD MSTORE PUSH32 0x6464726573730000000000000000000000000000000000000000000000000000 PUSH1 0x20 DUP3 ADD MSTORE POP JUMP JUMPDEST PUSH32 0x5061757361626C653A2070617573656400000000000000000000000000000000 PUSH1 0x0 DUP3 ADD MSTORE POP JUMP JUMPDEST PUSH32 0x4F776E61626C653A2063616C6C6572206973206E6F7420746865206F776E6572 PUSH1 0x0 DUP3 ADD MSTORE POP JUMP JUMPDEST PUSH32 0x4E6F20616374697665206465706F736974000000000000000000000000000000 PUSH1 0x0 DUP3 ADD MSTORE POP JUMP JUMPDEST PUSH32 0x4E6F7420656E6F756768206465706F7369740000000000000000000000000000 PUSH1 0x0 DUP3 ADD MSTORE POP JUMP JUMPDEST PUSH2 0x2539 DUP2 PUSH2 0x2321 JUMP JUMPDEST DUP2 EQ PUSH2 0x2544 JUMPI PUSH1 0x0 DUP1 REVERT JUMPDEST POP JUMP JUMPDEST PUSH2 0x2550 DUP2 PUSH2 0x2333 JUMP JUMPDEST DUP2 EQ PUSH2 0x255B JUMPI PUSH1 0x0 DUP1 REVERT JUMPDEST POP JUMP JUMPDEST PUSH2 0x2567 DUP2 PUSH2 0x235F JUMP JUMPDEST DUP2 EQ PUSH2 0x2572 JUMPI PUSH1 0x0 DUP1 REVERT JUMPDEST POP JUMP INVALID LOG2 PUSH5 0x6970667358 0x22 SLT KECCAK256 SWAP12 ADD 0xFC MUL 0xAA LOG1 MLOAD 0xF6 PUSH24 0x2EB00ED5CEB65715883F2CCF3E725A6E4E5BD957305F7A64 PUSH20 0x6F6C634300080700330000000000000000000000 "
				},
				"gasEstimates": {
					"creation": {
						"codeDepositCost": "1928600",
						"executionCost": "infinite",
						"totalCost": "infinite"
					},
					"external": {
						"acceptedToken()": "2645",
						"calculateRewards(address,uint256)": "infinite",
						"changeEarlyWithdrawFee(uint256)": "24871",
						"changeLevelValues(uint256,uint256,uint256)": "infinite",
						"claim(uint256)": "infinite",
						"compound(uint256)": "infinite",
						"deposit(uint256,uint256)": "infinite",
						"getLevelsInfo()": "infinite",
						"getUserInfo(address)": "infinite",
						"levelInfo(uint256)": "infinite",
						"owner()": "2589",
						"pause()": "infinite",
						"paused()": "2596",
						"renounceOwnership()": "30485",
						"transferOwnership(address)": "30833",
						"unpause()": "infinite",
						"userLevelDeposit(address,uint256)": "infinite",
						"withdraw(uint256,uint256)": "infinite",
						"withdrawTokens()": "infinite"
					}
				},
				"methodIdentifiers": {
					"acceptedToken()": "451c3d80",
					"calculateRewards(address,uint256)": "beb8314c",
					"changeEarlyWithdrawFee(uint256)": "aff3b697",
					"changeLevelValues(uint256,uint256,uint256)": "32e96203",
					"claim(uint256)": "379607f5",
					"compound(uint256)": "aa5f7e26",
					"deposit(uint256,uint256)": "e2bbb158",
					"getLevelsInfo()": "e788cee5",
					"getUserInfo(address)": "6386c1c7",
					"levelInfo(uint256)": "edf501ad",
					"owner()": "8da5cb5b",
					"pause()": "8456cb59",
					"paused()": "5c975abb",
					"renounceOwnership()": "715018a6",
					"transferOwnership(address)": "f2fde38b",
					"unpause()": "3f4ba83a",
					"userLevelDeposit(address,uint256)": "259ee752",
					"withdraw(uint256,uint256)": "441a3e70",
					"withdrawTokens()": "8d8f2adb"
				}
			},
			"storageLayout": {
				"storage": [
					{
						"astId": 7,
						"contract": "staking.sol:AcesStaking",
						"label": "_owner",
						"offset": 0,
						"slot": "0",
						"type": "t_address"
					},
					{
						"astId": 122,
						"contract": "staking.sol:AcesStaking",
						"label": "_paused",
						"offset": 20,
						"slot": "0",
						"type": "t_bool"
					},
					{
						"astId": 308,
						"contract": "staking.sol:AcesStaking",
						"label": "acceptedToken",
						"offset": 0,
						"slot": "1",
						"type": "t_contract(IERC20)274"
					},
					{
						"astId": 311,
						"contract": "staking.sol:AcesStaking",
						"label": "earlyWithdrawFee",
						"offset": 0,
						"slot": "2",
						"type": "t_uint256"
					},
					{
						"astId": 334,
						"contract": "staking.sol:AcesStaking",
						"label": "userLevelDeposit",
						"offset": 0,
						"slot": "3",
						"type": "t_mapping(t_address,t_mapping(t_uint256,t_struct(User)322_storage))"
					},
					{
						"astId": 339,
						"contract": "staking.sol:AcesStaking",
						"label": "levelInfo",
						"offset": 0,
						"slot": "4",
						"type": "t_mapping(t_uint256,t_struct(Level)327_storage)"
					}
				],
				"types": {
					"t_address": {
						"encoding": "inplace",
						"label": "address",
						"numberOfBytes": "20"
					},
					"t_bool": {
						"encoding": "inplace",
						"label": "bool",
						"numberOfBytes": "1"
					},
					"t_contract(IERC20)274": {
						"encoding": "inplace",
						"label": "contract IERC20",
						"numberOfBytes": "20"
					},
					"t_mapping(t_address,t_mapping(t_uint256,t_struct(User)322_storage))": {
						"encoding": "mapping",
						"key": "t_address",
						"label": "mapping(address => mapping(uint256 => struct AcesStaking.User))",
						"numberOfBytes": "32",
						"value": "t_mapping(t_uint256,t_struct(User)322_storage)"
					},
					"t_mapping(t_uint256,t_struct(Level)327_storage)": {
						"encoding": "mapping",
						"key": "t_uint256",
						"label": "mapping(uint256 => struct AcesStaking.Level)",
						"numberOfBytes": "32",
						"value": "t_struct(Level)327_storage"
					},
					"t_mapping(t_uint256,t_struct(User)322_storage)": {
						"encoding": "mapping",
						"key": "t_uint256",
						"label": "mapping(uint256 => struct AcesStaking.User)",
						"numberOfBytes": "32",
						"value": "t_struct(User)322_storage"
					},
					"t_struct(Level)327_storage": {
						"encoding": "inplace",
						"label": "struct AcesStaking.Level",
						"members": [
							{
								"astId": 324,
								"contract": "staking.sol:AcesStaking",
								"label": "APY",
								"offset": 0,
								"slot": "0",
								"type": "t_uint256"
							},
							{
								"astId": 326,
								"contract": "staking.sol:AcesStaking",
								"label": "lockPeriod",
								"offset": 0,
								"slot": "1",
								"type": "t_uint256"
							}
						],
						"numberOfBytes": "64"
					},
					"t_struct(User)322_storage": {
						"encoding": "inplace",
						"label": "struct AcesStaking.User",
						"members": [
							{
								"astId": 313,
								"contract": "staking.sol:AcesStaking",
								"label": "balance",
								"offset": 0,
								"slot": "0",
								"type": "t_uint256"
							},
							{
								"astId": 315,
								"contract": "staking.sol:AcesStaking",
								"label": "claimed",
								"offset": 0,
								"slot": "1",
								"type": "t_uint256"
							},
							{
								"astId": 317,
								"contract": "staking.sol:AcesStaking",
								"label": "started",
								"offset": 0,
								"slot": "2",
								"type": "t_uint256"
							},
							{
								"astId": 319,
								"contract": "staking.sol:AcesStaking",
								"label": "lastClaim",
								"offset": 0,
								"slot": "3",
								"type": "t_uint256"
							},
							{
								"astId": 321,
								"contract": "staking.sol:AcesStaking",
								"label": "unlockTime",
								"offset": 0,
								"slot": "4",
								"type": "t_uint256"
							}
						],
						"numberOfBytes": "160"
					},
					"t_uint256": {
						"encoding": "inplace",
						"label": "uint256",
						"numberOfBytes": "32"
					}
				}
			},
			"userdoc": {
				"kind": "user",
				"methods": {},
				"version": 1
			}
		}
	}
}