{
	"lotto.sol": {
		"ACELotto": {
			"abi": [
				{
					"inputs": [
						{
							"internalType": "address",
							"name": "_aces",
							"type": "address"
						}
					],
					"stateMutability": "nonpayable",
					"type": "constructor"
				},
				{
					"anonymous": false,
					"inputs": [
						{
							"indexed": false,
							"internalType": "address",
							"name": "winner",
							"type": "address"
						},
						{
							"indexed": false,
							"internalType": "uint256",
							"name": "amount",
							"type": "uint256"
						}
					],
					"name": "LotteryWon",
					"type": "event"
				},
				{
					"inputs": [],
					"name": "acesToken",
					"outputs": [
						{
							"internalType": "contract IERC20",
							"name": "",
							"type": "address"
						}
					],
					"stateMutability": "view",
					"type": "function"
				},
				{
					"inputs": [],
					"name": "currentJackpot",
					"outputs": [
						{
							"internalType": "uint256",
							"name": "",
							"type": "uint256"
						}
					],
					"stateMutability": "view",
					"type": "function"
				},
				{
					"inputs": [
						{
							"internalType": "address",
							"name": "",
							"type": "address"
						},
						{
							"internalType": "uint256",
							"name": "",
							"type": "uint256"
						}
					],
					"name": "entriesIndex",
					"outputs": [
						{
							"internalType": "uint256",
							"name": "",
							"type": "uint256"
						}
					],
					"stateMutability": "view",
					"type": "function"
				},
				{
					"inputs": [
						{
							"internalType": "uint256",
							"name": "",
							"type": "uint256"
						},
						{
							"internalType": "address",
							"name": "",
							"type": "address"
						}
					],
					"name": "entriesPerRound",
					"outputs": [
						{
							"internalType": "uint256",
							"name": "",
							"type": "uint256"
						}
					],
					"stateMutability": "view",
					"type": "function"
				},
				{
					"inputs": [
						{
							"internalType": "address",
							"name": "account",
							"type": "address"
						}
					],
					"name": "isActiveAccount",
					"outputs": [
						{
							"internalType": "bool",
							"name": "",
							"type": "bool"
						}
					],
					"stateMutability": "view",
					"type": "function"
				},
				{
					"inputs": [
						{
							"internalType": "address",
							"name": "account",
							"type": "address"
						}
					],
					"name": "removeAccount",
					"outputs": [],
					"stateMutability": "nonpayable",
					"type": "function"
				},
				{
					"inputs": [
						{
							"internalType": "address",
							"name": "account",
							"type": "address"
						},
						{
							"internalType": "uint256",
							"name": "amount",
							"type": "uint256"
						}
					],
					"name": "removeEntryFromWallet",
					"outputs": [],
					"stateMutability": "nonpayable",
					"type": "function"
				},
				{
					"inputs": [],
					"name": "roundEntries",
					"outputs": [
						{
							"internalType": "uint256",
							"name": "",
							"type": "uint256"
						}
					],
					"stateMutability": "view",
					"type": "function"
				},
				{
					"inputs": [
						{
							"internalType": "uint256",
							"name": "",
							"type": "uint256"
						}
					],
					"name": "roundEntry",
					"outputs": [
						{
							"internalType": "address",
							"name": "",
							"type": "address"
						}
					],
					"stateMutability": "view",
					"type": "function"
				},
				{
					"inputs": [],
					"name": "roundNum",
					"outputs": [
						{
							"internalType": "uint256",
							"name": "",
							"type": "uint256"
						}
					],
					"stateMutability": "view",
					"type": "function"
				},
				{
					"inputs": [
						{
							"internalType": "uint256",
							"name": "",
							"type": "uint256"
						}
					],
					"name": "roundResults",
					"outputs": [
						{
							"internalType": "uint256",
							"name": "totalEntries",
							"type": "uint256"
						},
						{
							"internalType": "uint256",
							"name": "winningNumber",
							"type": "uint256"
						},
						{
							"internalType": "uint256",
							"name": "payout",
							"type": "uint256"
						},
						{
							"internalType": "uint256",
							"name": "endTime",
							"type": "uint256"
						},
						{
							"internalType": "address",
							"name": "winningAddress",
							"type": "address"
						}
					],
					"stateMutability": "view",
					"type": "function"
				},
				{
					"inputs": [],
					"name": "totalPayout",
					"outputs": [
						{
							"internalType": "uint256",
							"name": "",
							"type": "uint256"
						}
					],
					"stateMutability": "view",
					"type": "function"
				},
				{
					"inputs": [
						{
							"internalType": "address",
							"name": "account",
							"type": "address"
						},
						{
							"internalType": "uint256",
							"name": "amount",
							"type": "uint256"
						}
					],
					"name": "updateAccount",
					"outputs": [],
					"stateMutability": "nonpayable",
					"type": "function"
				}
			],
			"devdoc": {
				"kind": "dev",
				"methods": {},
				"version": 1
			},
			"evm": {
				"assembly": "    /* \"lotto.sol\":595:2733  contract ACELotto {   \r... */\n  mstore(0x40, 0x80)\n    /* \"lotto.sol\":1274:1344  constructor(address _aces){\r... */\n  callvalue\n  dup1\n  iszero\n  tag_1\n  jumpi\n  0x00\n  dup1\n  revert\ntag_1:\n  pop\n  mload(0x40)\n  sub(codesize, bytecodeSize)\n  dup1\n  bytecodeSize\n  dup4\n  codecopy\n  dup2\n  dup2\n  add\n  0x40\n  mstore\n  dup2\n  add\n  swap1\n  tag_2\n  swap2\n  swap1\n  tag_3\n  jump\t// in\ntag_2:\n    /* \"lotto.sol\":1330:1335  _aces */\n  dup1\n    /* \"lotto.sol\":1311:1320  acesToken */\n  0x04\n  0x00\n    /* \"lotto.sol\":1311:1336  acesToken = IERC20(_aces) */\n  0x0100\n  exp\n  dup2\n  sload\n  dup2\n  0xffffffffffffffffffffffffffffffffffffffff\n  mul\n  not\n  and\n  swap1\n  dup4\n  0xffffffffffffffffffffffffffffffffffffffff\n  and\n  mul\n  or\n  swap1\n  sstore\n  pop\n    /* \"lotto.sol\":1274:1344  constructor(address _aces){\r... */\n  pop\n    /* \"lotto.sol\":595:2733  contract ACELotto {   \r... */\n  jump(tag_6)\n    /* \"#utility.yul\":7:150   */\ntag_8:\n    /* \"#utility.yul\":64:69   */\n  0x00\n    /* \"#utility.yul\":95:101   */\n  dup2\n    /* \"#utility.yul\":89:102   */\n  mload\n    /* \"#utility.yul\":80:102   */\n  swap1\n  pop\n    /* \"#utility.yul\":111:144   */\n  tag_10\n    /* \"#utility.yul\":138:143   */\n  dup2\n    /* \"#utility.yul\":111:144   */\n  tag_11\n  jump\t// in\ntag_10:\n    /* \"#utility.yul\":7:150   */\n  swap3\n  swap2\n  pop\n  pop\n  jump\t// out\n    /* \"#utility.yul\":156:507   */\ntag_3:\n    /* \"#utility.yul\":226:232   */\n  0x00\n    /* \"#utility.yul\":275:277   */\n  0x20\n    /* \"#utility.yul\":263:272   */\n  dup3\n    /* \"#utility.yul\":254:261   */\n  dup5\n    /* \"#utility.yul\":250:273   */\n  sub\n    /* \"#utility.yul\":246:278   */\n  slt\n    /* \"#utility.yul\":243:362   */\n  iszero\n  tag_13\n  jumpi\n    /* \"#utility.yul\":281:360   */\n  tag_14\n  tag_15\n  jump\t// in\ntag_14:\n    /* \"#utility.yul\":243:362   */\ntag_13:\n    /* \"#utility.yul\":401:402   */\n  0x00\n    /* \"#utility.yul\":426:490   */\n  tag_16\n    /* \"#utility.yul\":482:489   */\n  dup5\n    /* \"#utility.yul\":473:479   */\n  dup3\n    /* \"#utility.yul\":462:471   */\n  dup6\n    /* \"#utility.yul\":458:480   */\n  add\n    /* \"#utility.yul\":426:490   */\n  tag_8\n  jump\t// in\ntag_16:\n    /* \"#utility.yul\":416:490   */\n  swap2\n  pop\n    /* \"#utility.yul\":372:500   */\n  pop\n    /* \"#utility.yul\":156:507   */\n  swap3\n  swap2\n  pop\n  pop\n  jump\t// out\n    /* \"#utility.yul\":594:690   */\ntag_19:\n    /* \"#utility.yul\":631:638   */\n  0x00\n    /* \"#utility.yul\":660:684   */\n  tag_21\n    /* \"#utility.yul\":678:683   */\n  dup3\n    /* \"#utility.yul\":660:684   */\n  tag_22\n  jump\t// in\ntag_21:\n    /* \"#utility.yul\":649:684   */\n  swap1\n  pop\n    /* \"#utility.yul\":594:690   */\n  swap2\n  swap1\n  pop\n  jump\t// out\n    /* \"#utility.yul\":696:822   */\ntag_22:\n    /* \"#utility.yul\":733:740   */\n  0x00\n    /* \"#utility.yul\":773:815   */\n  0xffffffffffffffffffffffffffffffffffffffff\n    /* \"#utility.yul\":766:771   */\n  dup3\n    /* \"#utility.yul\":762:816   */\n  and\n    /* \"#utility.yul\":751:816   */\n  swap1\n  pop\n    /* \"#utility.yul\":696:822   */\n  swap2\n  swap1\n  pop\n  jump\t// out\n    /* \"#utility.yul\":951:1068   */\ntag_15:\n    /* \"#utility.yul\":1060:1061   */\n  0x00\n    /* \"#utility.yul\":1057:1058   */\n  dup1\n    /* \"#utility.yul\":1050:1062   */\n  revert\n    /* \"#utility.yul\":1074:1196   */\ntag_11:\n    /* \"#utility.yul\":1147:1171   */\n  tag_28\n    /* \"#utility.yul\":1165:1170   */\n  dup2\n    /* \"#utility.yul\":1147:1171   */\n  tag_19\n  jump\t// in\ntag_28:\n    /* \"#utility.yul\":1140:1145   */\n  dup2\n    /* \"#utility.yul\":1137:1172   */\n  eq\n    /* \"#utility.yul\":1127:1190   */\n  tag_29\n  jumpi\n    /* \"#utility.yul\":1186:1187   */\n  0x00\n    /* \"#utility.yul\":1183:1184   */\n  dup1\n    /* \"#utility.yul\":1176:1188   */\n  revert\n    /* \"#utility.yul\":1127:1190   */\ntag_29:\n    /* \"#utility.yul\":1074:1196   */\n  pop\n  jump\t// out\n    /* \"lotto.sol\":595:2733  contract ACELotto {   \r... */\ntag_6:\n  dataSize(sub_0)\n  dup1\n  dataOffset(sub_0)\n  0x00\n  codecopy\n  0x00\n  return\nstop\n\nsub_0: assembly {\n        /* \"lotto.sol\":595:2733  contract ACELotto {   \r... */\n      mstore(0x40, 0x80)\n      callvalue\n      dup1\n      iszero\n      tag_1\n      jumpi\n      0x00\n      dup1\n      revert\n    tag_1:\n      pop\n      jumpi(tag_2, lt(calldatasize, 0x04))\n      shr(0xe0, calldataload(0x00))\n      dup1\n      0x76636d20\n      gt\n      tag_16\n      jumpi\n      dup1\n      0xac128f4f\n      gt\n      tag_17\n      jumpi\n      dup1\n      0xac128f4f\n      eq\n      tag_12\n      jumpi\n      dup1\n      0xb657dd65\n      eq\n      tag_13\n      jumpi\n      dup1\n      0xc4740a95\n      eq\n      tag_14\n      jumpi\n      dup1\n      0xf9cee0bd\n      eq\n      tag_15\n      jumpi\n      jump(tag_2)\n    tag_17:\n      dup1\n      0x76636d20\n      eq\n      tag_9\n      jumpi\n      dup1\n      0x9b3e4552\n      eq\n      tag_10\n      jumpi\n      dup1\n      0xa59460dc\n      eq\n      tag_11\n      jumpi\n      jump(tag_2)\n    tag_16:\n      dup1\n      0x0d988270\n      eq\n      tag_3\n      jumpi\n      dup1\n      0x119b22b3\n      eq\n      tag_4\n      jumpi\n      dup1\n      0x443b80a1\n      eq\n      tag_5\n      jumpi\n      dup1\n      0x454f7b8f\n      eq\n      tag_6\n      jumpi\n      dup1\n      0x578e3f88\n      eq\n      tag_7\n      jumpi\n      dup1\n      0x5bedc390\n      eq\n      tag_8\n      jumpi\n    tag_2:\n      0x00\n      dup1\n      revert\n        /* \"lotto.sol\":1159:1208  mapping(address => uint256[]) public entriesIndex */\n    tag_3:\n      tag_18\n      0x04\n      dup1\n      calldatasize\n      sub\n      dup2\n      add\n      swap1\n      tag_19\n      swap2\n      swap1\n      tag_20\n      jump\t// in\n    tag_19:\n      tag_21\n      jump\t// in\n    tag_18:\n      mload(0x40)\n      tag_22\n      swap2\n      swap1\n      tag_23\n      jump\t// in\n    tag_22:\n      mload(0x40)\n      dup1\n      swap2\n      sub\n      swap1\n      return\n        /* \"lotto.sol\":693:716  uint256 public roundNum */\n    tag_4:\n      tag_24\n      tag_25\n      jump\t// in\n    tag_24:\n      mload(0x40)\n      tag_26\n      swap2\n      swap1\n      tag_23\n      jump\t// in\n    tag_26:\n      mload(0x40)\n      dup1\n      swap2\n      sub\n      swap1\n      return\n        /* \"lotto.sol\":1352:1687  function updateAccount(address account, uint256 amount) external{\r... */\n    tag_5:\n      tag_27\n      0x04\n      dup1\n      calldatasize\n      sub\n      dup2\n      add\n      swap1\n      tag_28\n      swap2\n      swap1\n      tag_20\n      jump\t// in\n    tag_28:\n      tag_29\n      jump\t// in\n    tag_27:\n      stop\n        /* \"lotto.sol\":723:749  uint256 public totalPayout */\n    tag_6:\n      tag_30\n      tag_31\n      jump\t// in\n    tag_30:\n      mload(0x40)\n      tag_32\n      swap2\n      swap1\n      tag_23\n      jump\t// in\n    tag_32:\n      mload(0x40)\n      dup1\n      swap2\n      sub\n      swap1\n      return\n        /* \"lotto.sol\":1082:1152  mapping(uint256 => mapping(address => uint256)) public entriesPerRound */\n    tag_7:\n      tag_33\n      0x04\n      dup1\n      calldatasize\n      sub\n      dup2\n      add\n      swap1\n      tag_34\n      swap2\n      swap1\n      tag_35\n      jump\t// in\n    tag_34:\n      tag_36\n      jump\t// in\n    tag_33:\n      mload(0x40)\n      tag_37\n      swap2\n      swap1\n      tag_23\n      jump\t// in\n    tag_37:\n      mload(0x40)\n      dup1\n      swap2\n      sub\n      swap1\n      return\n        /* \"lotto.sol\":2547:2730  function isActiveAccount(address account) external view returns(bool){\r... */\n    tag_8:\n      tag_38\n      0x04\n      dup1\n      calldatasize\n      sub\n      dup2\n      add\n      swap1\n      tag_39\n      swap2\n      swap1\n      tag_40\n      jump\t// in\n    tag_39:\n      tag_41\n      jump\t// in\n    tag_38:\n      mload(0x40)\n      tag_42\n      swap2\n      swap1\n      tag_43\n      jump\t// in\n    tag_42:\n      mload(0x40)\n      dup1\n      swap2\n      sub\n      swap1\n      return\n        /* \"lotto.sol\":659:686  uint256 public roundEntries */\n    tag_9:\n      tag_44\n      tag_45\n      jump\t// in\n    tag_44:\n      mload(0x40)\n      tag_46\n      swap2\n      swap1\n      tag_23\n      jump\t// in\n    tag_46:\n      mload(0x40)\n      dup1\n      swap2\n      sub\n      swap1\n      return\n        /* \"lotto.sol\":762:785  IERC20 public acesToken */\n    tag_10:\n      tag_47\n      tag_48\n      jump\t// in\n    tag_47:\n      mload(0x40)\n      tag_49\n      swap2\n      swap1\n      tag_50\n      jump\t// in\n    tag_49:\n      mload(0x40)\n      dup1\n      swap2\n      sub\n      swap1\n      return\n        /* \"lotto.sol\":1695:2348  function removeEntryFromWallet(address account, uint256 amount) public {\r... */\n    tag_11:\n      tag_51\n      0x04\n      dup1\n      calldatasize\n      sub\n      dup2\n      add\n      swap1\n      tag_52\n      swap2\n      swap1\n      tag_20\n      jump\t// in\n    tag_52:\n      tag_53\n      jump\t// in\n    tag_51:\n      stop\n        /* \"lotto.sol\":976:1023  mapping(uint256 => Results) public roundResults */\n    tag_12:\n      tag_54\n      0x04\n      dup1\n      calldatasize\n      sub\n      dup2\n      add\n      swap1\n      tag_55\n      swap2\n      swap1\n      tag_56\n      jump\t// in\n    tag_55:\n      tag_57\n      jump\t// in\n    tag_54:\n      mload(0x40)\n      tag_58\n      swap6\n      swap5\n      swap4\n      swap3\n      swap2\n      swap1\n      tag_59\n      jump\t// in\n    tag_58:\n      mload(0x40)\n      dup1\n      swap2\n      sub\n      swap1\n      return\n        /* \"lotto.sol\":1030:1075  mapping(uint256 => address) public roundEntry */\n    tag_13:\n      tag_60\n      0x04\n      dup1\n      calldatasize\n      sub\n      dup2\n      add\n      swap1\n      tag_61\n      swap2\n      swap1\n      tag_56\n      jump\t// in\n    tag_61:\n      tag_62\n      jump\t// in\n    tag_60:\n      mload(0x40)\n      tag_63\n      swap2\n      swap1\n      tag_64\n      jump\t// in\n    tag_63:\n      mload(0x40)\n      dup1\n      swap2\n      sub\n      swap1\n      return\n        /* \"lotto.sol\":2356:2539  function removeAccount(address account) external{\r... */\n    tag_14:\n      tag_65\n      0x04\n      dup1\n      calldatasize\n      sub\n      dup2\n      add\n      swap1\n      tag_66\n      swap2\n      swap1\n      tag_40\n      jump\t// in\n    tag_66:\n      tag_67\n      jump\t// in\n    tag_65:\n      stop\n        /* \"lotto.sol\":623:652  uint256 public currentJackpot */\n    tag_15:\n      tag_68\n      tag_69\n      jump\t// in\n    tag_68:\n      mload(0x40)\n      tag_70\n      swap2\n      swap1\n      tag_23\n      jump\t// in\n    tag_70:\n      mload(0x40)\n      dup1\n      swap2\n      sub\n      swap1\n      return\n        /* \"lotto.sol\":1159:1208  mapping(address => uint256[]) public entriesIndex */\n    tag_21:\n      mstore(0x20, 0x08)\n      dup2\n      0x00\n      mstore\n      keccak256(0x00, 0x40)\n      dup2\n      dup2\n      sload\n      dup2\n      lt\n      tag_71\n      jumpi\n      0x00\n      dup1\n      revert\n    tag_71:\n      swap1\n      0x00\n      mstore\n      keccak256(0x00, 0x20)\n      add\n      0x00\n      swap2\n      pop\n      swap2\n      pop\n      pop\n      sload\n      dup2\n      jump\t// out\n        /* \"lotto.sol\":693:716  uint256 public roundNum */\n    tag_25:\n      sload(0x02)\n      dup2\n      jump\t// out\n        /* \"lotto.sol\":1352:1687  function updateAccount(address account, uint256 amount) external{\r... */\n    tag_29:\n        /* \"lotto.sol\":1431:1440  uint256 i */\n      0x00\n        /* \"lotto.sol\":1427:1582  for(uint256 i; i < amount; i++){\r... */\n    tag_74:\n        /* \"lotto.sol\":1446:1452  amount */\n      dup2\n        /* \"lotto.sol\":1442:1443  i */\n      dup2\n        /* \"lotto.sol\":1442:1452  i < amount */\n      lt\n        /* \"lotto.sol\":1427:1582  for(uint256 i; i < amount; i++){\r... */\n      iszero\n      tag_75\n      jumpi\n        /* \"lotto.sol\":1504:1511  account */\n      dup3\n        /* \"lotto.sol\":1473:1483  roundEntry */\n      0x06\n        /* \"lotto.sol\":1473:1501  roundEntry[roundEntries + i] */\n      0x00\n        /* \"lotto.sol\":1499:1500  i */\n      dup4\n        /* \"lotto.sol\":1484:1496  roundEntries */\n      sload(0x01)\n        /* \"lotto.sol\":1484:1500  roundEntries + i */\n      tag_77\n      swap2\n      swap1\n      tag_78\n      jump\t// in\n    tag_77:\n        /* \"lotto.sol\":1473:1501  roundEntry[roundEntries + i] */\n      dup2\n      mstore\n      0x20\n      add\n      swap1\n      dup2\n      mstore\n      0x20\n      add\n      0x00\n      keccak256\n      0x00\n        /* \"lotto.sol\":1473:1511  roundEntry[roundEntries + i] = account */\n      0x0100\n      exp\n      dup2\n      sload\n      dup2\n      0xffffffffffffffffffffffffffffffffffffffff\n      mul\n      not\n      and\n      swap1\n      dup4\n      0xffffffffffffffffffffffffffffffffffffffff\n      and\n      mul\n      or\n      swap1\n      sstore\n      pop\n        /* \"lotto.sol\":1526:1538  entriesIndex */\n      0x08\n        /* \"lotto.sol\":1526:1547  entriesIndex[account] */\n      0x00\n        /* \"lotto.sol\":1539:1546  account */\n      dup5\n        /* \"lotto.sol\":1526:1547  entriesIndex[account] */\n      0xffffffffffffffffffffffffffffffffffffffff\n      and\n      0xffffffffffffffffffffffffffffffffffffffff\n      and\n      dup2\n      mstore\n      0x20\n      add\n      swap1\n      dup2\n      mstore\n      0x20\n      add\n      0x00\n      keccak256\n        /* \"lotto.sol\":1568:1569  i */\n      dup2\n        /* \"lotto.sol\":1553:1565  roundEntries */\n      sload(0x01)\n        /* \"lotto.sol\":1553:1569  roundEntries + i */\n      tag_79\n      swap2\n      swap1\n      tag_78\n      jump\t// in\n    tag_79:\n        /* \"lotto.sol\":1526:1570  entriesIndex[account].push(roundEntries + i) */\n      swap1\n      dup1\n      0x01\n      dup2\n      sload\n      add\n      dup1\n      dup3\n      sstore\n      dup1\n      swap2\n      pop\n      pop\n      0x01\n      swap1\n      sub\n      swap1\n      0x00\n      mstore\n      keccak256(0x00, 0x20)\n      add\n      0x00\n      swap1\n      swap2\n      swap1\n      swap2\n      swap1\n      swap2\n      pop\n      sstore\n        /* \"lotto.sol\":1454:1457  i++ */\n      dup1\n      dup1\n      tag_81\n      swap1\n      tag_82\n      jump\t// in\n    tag_81:\n      swap2\n      pop\n      pop\n        /* \"lotto.sol\":1427:1582  for(uint256 i; i < amount; i++){\r... */\n      jump(tag_74)\n    tag_75:\n      pop\n        /* \"lotto.sol\":1640:1646  amount */\n      dup1\n        /* \"lotto.sol\":1602:1617  entriesPerRound */\n      0x07\n        /* \"lotto.sol\":1602:1627  entriesPerRound[roundNum] */\n      0x00\n        /* \"lotto.sol\":1618:1626  roundNum */\n      sload(0x02)\n        /* \"lotto.sol\":1602:1627  entriesPerRound[roundNum] */\n      dup2\n      mstore\n      0x20\n      add\n      swap1\n      dup2\n      mstore\n      0x20\n      add\n      0x00\n      keccak256\n        /* \"lotto.sol\":1602:1636  entriesPerRound[roundNum][account] */\n      0x00\n        /* \"lotto.sol\":1628:1635  account */\n      dup5\n        /* \"lotto.sol\":1602:1636  entriesPerRound[roundNum][account] */\n      0xffffffffffffffffffffffffffffffffffffffff\n      and\n      0xffffffffffffffffffffffffffffffffffffffff\n      and\n      dup2\n      mstore\n      0x20\n      add\n      swap1\n      dup2\n      mstore\n      0x20\n      add\n      0x00\n      keccak256\n      0x00\n        /* \"lotto.sol\":1602:1646  entriesPerRound[roundNum][account] += amount */\n      dup3\n      dup3\n      sload\n      tag_83\n      swap2\n      swap1\n      tag_78\n      jump\t// in\n    tag_83:\n      swap3\n      pop\n      pop\n      dup2\n      swap1\n      sstore\n      pop\n        /* \"lotto.sol\":1673:1679  amount */\n      dup1\n        /* \"lotto.sol\":1657:1669  roundEntries */\n      0x01\n      0x00\n        /* \"lotto.sol\":1657:1679  roundEntries += amount */\n      dup3\n      dup3\n      sload\n      tag_84\n      swap2\n      swap1\n      tag_78\n      jump\t// in\n    tag_84:\n      swap3\n      pop\n      pop\n      dup2\n      swap1\n      sstore\n      pop\n        /* \"lotto.sol\":1352:1687  function updateAccount(address account, uint256 amount) external{\r... */\n      pop\n      pop\n      jump\t// out\n        /* \"lotto.sol\":723:749  uint256 public totalPayout */\n    tag_31:\n      sload(0x03)\n      dup2\n      jump\t// out\n        /* \"lotto.sol\":1082:1152  mapping(uint256 => mapping(address => uint256)) public entriesPerRound */\n    tag_36:\n      mstore(0x20, 0x07)\n      dup2\n      0x00\n      mstore\n      mstore(0x20, keccak256(0x00, 0x40))\n      dup1\n      0x00\n      mstore\n      keccak256(0x00, 0x40)\n      0x00\n      swap2\n      pop\n      swap2\n      pop\n      pop\n      sload\n      dup2\n      jump\t// out\n        /* \"lotto.sol\":2547:2730  function isActiveAccount(address account) external view returns(bool){\r... */\n    tag_41:\n        /* \"lotto.sol\":2611:2615  bool */\n      0x00\n        /* \"lotto.sol\":2627:2649  uint256 currentEntries */\n      dup1\n        /* \"lotto.sol\":2652:2667  entriesPerRound */\n      0x07\n        /* \"lotto.sol\":2652:2677  entriesPerRound[roundNum] */\n      0x00\n        /* \"lotto.sol\":2668:2676  roundNum */\n      sload(0x02)\n        /* \"lotto.sol\":2652:2677  entriesPerRound[roundNum] */\n      dup2\n      mstore\n      0x20\n      add\n      swap1\n      dup2\n      mstore\n      0x20\n      add\n      0x00\n      keccak256\n        /* \"lotto.sol\":2652:2686  entriesPerRound[roundNum][account] */\n      0x00\n        /* \"lotto.sol\":2678:2685  account */\n      dup5\n        /* \"lotto.sol\":2652:2686  entriesPerRound[roundNum][account] */\n      0xffffffffffffffffffffffffffffffffffffffff\n      and\n      0xffffffffffffffffffffffffffffffffffffffff\n      and\n      dup2\n      mstore\n      0x20\n      add\n      swap1\n      dup2\n      mstore\n      0x20\n      add\n      0x00\n      keccak256\n      sload\n        /* \"lotto.sol\":2627:2686  uint256 currentEntries = entriesPerRound[roundNum][account] */\n      swap1\n      pop\n        /* \"lotto.sol\":2721:2722  0 */\n      0x00\n        /* \"lotto.sol\":2704:2718  currentEntries */\n      dup2\n        /* \"lotto.sol\":2704:2722  currentEntries > 0 */\n      gt\n        /* \"lotto.sol\":2697:2722  return currentEntries > 0 */\n      swap2\n      pop\n      pop\n        /* \"lotto.sol\":2547:2730  function isActiveAccount(address account) external view returns(bool){\r... */\n      swap2\n      swap1\n      pop\n      jump\t// out\n        /* \"lotto.sol\":659:686  uint256 public roundEntries */\n    tag_45:\n      sload(0x01)\n      dup2\n      jump\t// out\n        /* \"lotto.sol\":762:785  IERC20 public acesToken */\n    tag_48:\n      0x04\n      0x00\n      swap1\n      sload\n      swap1\n      0x0100\n      exp\n      swap1\n      div\n      0xffffffffffffffffffffffffffffffffffffffff\n      and\n      dup2\n      jump\t// out\n        /* \"lotto.sol\":1695:2348  function removeEntryFromWallet(address account, uint256 amount) public {\r... */\n    tag_53:\n        /* \"lotto.sol\":1777:1799  uint256 currentEntries */\n      0x00\n        /* \"lotto.sol\":1802:1817  entriesPerRound */\n      0x07\n        /* \"lotto.sol\":1802:1827  entriesPerRound[roundNum] */\n      0x00\n        /* \"lotto.sol\":1818:1826  roundNum */\n      sload(0x02)\n        /* \"lotto.sol\":1802:1827  entriesPerRound[roundNum] */\n      dup2\n      mstore\n      0x20\n      add\n      swap1\n      dup2\n      mstore\n      0x20\n      add\n      0x00\n      keccak256\n        /* \"lotto.sol\":1802:1836  entriesPerRound[roundNum][account] */\n      0x00\n        /* \"lotto.sol\":1828:1835  account */\n      dup5\n        /* \"lotto.sol\":1802:1836  entriesPerRound[roundNum][account] */\n      0xffffffffffffffffffffffffffffffffffffffff\n      and\n      0xffffffffffffffffffffffffffffffffffffffff\n      and\n      dup2\n      mstore\n      0x20\n      add\n      swap1\n      dup2\n      mstore\n      0x20\n      add\n      0x00\n      keccak256\n      sload\n        /* \"lotto.sol\":1777:1836  uint256 currentEntries = entriesPerRound[roundNum][account] */\n      swap1\n      pop\n        /* \"lotto.sol\":1868:1869  0 */\n      0x00\n        /* \"lotto.sol\":1850:1864  currentEntries */\n      dup2\n        /* \"lotto.sol\":1850:1869  currentEntries == 0 */\n      eq\n        /* \"lotto.sol\":1847:1986  if(currentEntries == 0){\r... */\n      iszero\n      tag_87\n      jumpi\n        /* \"lotto.sol\":1885:1892  return; */\n      pop\n      jump(tag_86)\n        /* \"lotto.sol\":1847:1986  if(currentEntries == 0){\r... */\n    tag_87:\n        /* \"lotto.sol\":1921:1935  currentEntries */\n      dup1\n        /* \"lotto.sol\":1912:1918  amount */\n      dup3\n        /* \"lotto.sol\":1912:1935  amount > currentEntries */\n      gt\n        /* \"lotto.sol\":1909:1986  if(amount > currentEntries){\r... */\n      iszero\n      tag_89\n      jumpi\n        /* \"lotto.sol\":1960:1974  currentEntries */\n      dup1\n        /* \"lotto.sol\":1951:1974  amount = currentEntries */\n      swap2\n      pop\n        /* \"lotto.sol\":1909:1986  if(amount > currentEntries){\r... */\n    tag_89:\n        /* \"lotto.sol\":2002:2011  uint256 i */\n      0x00\n        /* \"lotto.sol\":2014:2015  1 */\n      0x01\n        /* \"lotto.sol\":2002:2015  uint256 i = 1 */\n      swap1\n      pop\n        /* \"lotto.sol\":1998:2243  for(uint256 i = 1; i <= amount; i++){\r... */\n    tag_90:\n        /* \"lotto.sol\":2022:2028  amount */\n      dup3\n        /* \"lotto.sol\":2017:2018  i */\n      dup2\n        /* \"lotto.sol\":2017:2028  i <= amount */\n      gt\n        /* \"lotto.sol\":1998:2243  for(uint256 i = 1; i <= amount; i++){\r... */\n      tag_91\n      jumpi\n        /* \"lotto.sol\":2049:2066  uint256 lastIndex */\n      0x00\n        /* \"lotto.sol\":2069:2081  entriesIndex */\n      0x08\n        /* \"lotto.sol\":2069:2090  entriesIndex[account] */\n      0x00\n        /* \"lotto.sol\":2082:2089  account */\n      dup7\n        /* \"lotto.sol\":2069:2090  entriesIndex[account] */\n      0xffffffffffffffffffffffffffffffffffffffff\n      and\n      0xffffffffffffffffffffffffffffffffffffffff\n      and\n      dup2\n      mstore\n      0x20\n      add\n      swap1\n      dup2\n      mstore\n      0x20\n      add\n      0x00\n      keccak256\n        /* \"lotto.sol\":2122:2123  1 */\n      0x01\n        /* \"lotto.sol\":2091:2103  entriesIndex */\n      0x08\n        /* \"lotto.sol\":2091:2112  entriesIndex[account] */\n      0x00\n        /* \"lotto.sol\":2104:2111  account */\n      dup9\n        /* \"lotto.sol\":2091:2112  entriesIndex[account] */\n      0xffffffffffffffffffffffffffffffffffffffff\n      and\n      0xffffffffffffffffffffffffffffffffffffffff\n      and\n      dup2\n      mstore\n      0x20\n      add\n      swap1\n      dup2\n      mstore\n      0x20\n      add\n      0x00\n      keccak256\n        /* \"lotto.sol\":2091:2119  entriesIndex[account].length */\n      dup1\n      sload\n      swap1\n      pop\n        /* \"lotto.sol\":2091:2123  entriesIndex[account].length - 1 */\n      tag_93\n      swap2\n      swap1\n      tag_94\n      jump\t// in\n    tag_93:\n        /* \"lotto.sol\":2069:2124  entriesIndex[account][entriesIndex[account].length - 1] */\n      dup2\n      sload\n      dup2\n      lt\n      tag_95\n      jumpi\n      tag_96\n      tag_97\n      jump\t// in\n    tag_96:\n    tag_95:\n      swap1\n      0x00\n      mstore\n      keccak256(0x00, 0x20)\n      add\n      sload\n        /* \"lotto.sol\":2049:2124  uint256 lastIndex = entriesIndex[account][entriesIndex[account].length - 1] */\n      swap1\n      pop\n        /* \"lotto.sol\":2163:2173  roundEntry */\n      0x06\n        /* \"lotto.sol\":2163:2191  roundEntry[roundEntries - i] */\n      0x00\n        /* \"lotto.sol\":2189:2190  i */\n      dup4\n        /* \"lotto.sol\":2174:2186  roundEntries */\n      sload(0x01)\n        /* \"lotto.sol\":2174:2190  roundEntries - i */\n      tag_99\n      swap2\n      swap1\n      tag_94\n      jump\t// in\n    tag_99:\n        /* \"lotto.sol\":2163:2191  roundEntry[roundEntries - i] */\n      dup2\n      mstore\n      0x20\n      add\n      swap1\n      dup2\n      mstore\n      0x20\n      add\n      0x00\n      keccak256\n      0x00\n      swap1\n      sload\n      swap1\n      0x0100\n      exp\n      swap1\n      div\n      0xffffffffffffffffffffffffffffffffffffffff\n      and\n        /* \"lotto.sol\":2139:2149  roundEntry */\n      0x06\n        /* \"lotto.sol\":2139:2160  roundEntry[lastIndex] */\n      0x00\n        /* \"lotto.sol\":2150:2159  lastIndex */\n      dup4\n        /* \"lotto.sol\":2139:2160  roundEntry[lastIndex] */\n      dup2\n      mstore\n      0x20\n      add\n      swap1\n      dup2\n      mstore\n      0x20\n      add\n      0x00\n      keccak256\n      0x00\n        /* \"lotto.sol\":2139:2191  roundEntry[lastIndex] = roundEntry[roundEntries - i] */\n      0x0100\n      exp\n      dup2\n      sload\n      dup2\n      0xffffffffffffffffffffffffffffffffffffffff\n      mul\n      not\n      and\n      swap1\n      dup4\n      0xffffffffffffffffffffffffffffffffffffffff\n      and\n      mul\n      or\n      swap1\n      sstore\n      pop\n        /* \"lotto.sol\":2206:2218  entriesIndex */\n      0x08\n        /* \"lotto.sol\":2206:2227  entriesIndex[account] */\n      0x00\n        /* \"lotto.sol\":2219:2226  account */\n      dup7\n        /* \"lotto.sol\":2206:2227  entriesIndex[account] */\n      0xffffffffffffffffffffffffffffffffffffffff\n      and\n      0xffffffffffffffffffffffffffffffffffffffff\n      and\n      dup2\n      mstore\n      0x20\n      add\n      swap1\n      dup2\n      mstore\n      0x20\n      add\n      0x00\n      keccak256\n        /* \"lotto.sol\":2206:2231  entriesIndex[account].pop */\n      pop\n        /* \"lotto.sol\":2034:2243  {\r... */\n      pop\n        /* \"lotto.sol\":2030:2033  i++ */\n      dup1\n      dup1\n      tag_100\n      swap1\n      tag_82\n      jump\t// in\n    tag_100:\n      swap2\n      pop\n      pop\n        /* \"lotto.sol\":1998:2243  for(uint256 i = 1; i <= amount; i++){\r... */\n      jump(tag_90)\n    tag_91:\n      pop\n        /* \"lotto.sol\":2301:2307  amount */\n      dup2\n        /* \"lotto.sol\":2263:2278  entriesPerRound */\n      0x07\n        /* \"lotto.sol\":2263:2288  entriesPerRound[roundNum] */\n      0x00\n        /* \"lotto.sol\":2279:2287  roundNum */\n      sload(0x02)\n        /* \"lotto.sol\":2263:2288  entriesPerRound[roundNum] */\n      dup2\n      mstore\n      0x20\n      add\n      swap1\n      dup2\n      mstore\n      0x20\n      add\n      0x00\n      keccak256\n        /* \"lotto.sol\":2263:2297  entriesPerRound[roundNum][account] */\n      0x00\n        /* \"lotto.sol\":2289:2296  account */\n      dup6\n        /* \"lotto.sol\":2263:2297  entriesPerRound[roundNum][account] */\n      0xffffffffffffffffffffffffffffffffffffffff\n      and\n      0xffffffffffffffffffffffffffffffffffffffff\n      and\n      dup2\n      mstore\n      0x20\n      add\n      swap1\n      dup2\n      mstore\n      0x20\n      add\n      0x00\n      keccak256\n      0x00\n        /* \"lotto.sol\":2263:2307  entriesPerRound[roundNum][account] -= amount */\n      dup3\n      dup3\n      sload\n      tag_101\n      swap2\n      swap1\n      tag_94\n      jump\t// in\n    tag_101:\n      swap3\n      pop\n      pop\n      dup2\n      swap1\n      sstore\n      pop\n        /* \"lotto.sol\":2334:2340  amount */\n      dup2\n        /* \"lotto.sol\":2318:2330  roundEntries */\n      0x01\n      0x00\n        /* \"lotto.sol\":2318:2340  roundEntries -= amount */\n      dup3\n      dup3\n      sload\n      tag_102\n      swap2\n      swap1\n      tag_94\n      jump\t// in\n    tag_102:\n      swap3\n      pop\n      pop\n      dup2\n      swap1\n      sstore\n      pop\n        /* \"lotto.sol\":1766:2348  {\r... */\n      pop\n        /* \"lotto.sol\":1695:2348  function removeEntryFromWallet(address account, uint256 amount) public {\r... */\n    tag_86:\n      pop\n      pop\n      jump\t// out\n        /* \"lotto.sol\":976:1023  mapping(uint256 => Results) public roundResults */\n    tag_57:\n      mstore(0x20, 0x05)\n      dup1\n      0x00\n      mstore\n      keccak256(0x00, 0x40)\n      0x00\n      swap2\n      pop\n      swap1\n      pop\n      dup1\n      0x00\n      add\n      sload\n      swap1\n      dup1\n      0x01\n      add\n      sload\n      swap1\n      dup1\n      0x02\n      add\n      sload\n      swap1\n      dup1\n      0x03\n      add\n      sload\n      swap1\n      dup1\n      0x04\n      add\n      0x00\n      swap1\n      sload\n      swap1\n      0x0100\n      exp\n      swap1\n      div\n      0xffffffffffffffffffffffffffffffffffffffff\n      and\n      swap1\n      pop\n      dup6\n      jump\t// out\n        /* \"lotto.sol\":1030:1075  mapping(uint256 => address) public roundEntry */\n    tag_62:\n      mstore(0x20, 0x06)\n      dup1\n      0x00\n      mstore\n      keccak256(0x00, 0x40)\n      0x00\n      swap2\n      pop\n      sload\n      swap1\n      0x0100\n      exp\n      swap1\n      div\n      0xffffffffffffffffffffffffffffffffffffffff\n      and\n      dup2\n      jump\t// out\n        /* \"lotto.sol\":2356:2539  function removeAccount(address account) external{\r... */\n    tag_67:\n        /* \"lotto.sol\":2415:2437  uint256 currentEntries */\n      0x00\n        /* \"lotto.sol\":2440:2455  entriesPerRound */\n      0x07\n        /* \"lotto.sol\":2440:2465  entriesPerRound[roundNum] */\n      0x00\n        /* \"lotto.sol\":2456:2464  roundNum */\n      sload(0x02)\n        /* \"lotto.sol\":2440:2465  entriesPerRound[roundNum] */\n      dup2\n      mstore\n      0x20\n      add\n      swap1\n      dup2\n      mstore\n      0x20\n      add\n      0x00\n      keccak256\n        /* \"lotto.sol\":2440:2474  entriesPerRound[roundNum][account] */\n      0x00\n        /* \"lotto.sol\":2466:2473  account */\n      dup4\n        /* \"lotto.sol\":2440:2474  entriesPerRound[roundNum][account] */\n      0xffffffffffffffffffffffffffffffffffffffff\n      and\n      0xffffffffffffffffffffffffffffffffffffffff\n      and\n      dup2\n      mstore\n      0x20\n      add\n      swap1\n      dup2\n      mstore\n      0x20\n      add\n      0x00\n      keccak256\n      sload\n        /* \"lotto.sol\":2415:2474  uint256 currentEntries = entriesPerRound[roundNum][account] */\n      swap1\n      pop\n        /* \"lotto.sol\":2485:2531  removeEntryFromWallet(account, currentEntries) */\n      tag_104\n        /* \"lotto.sol\":2507:2514  account */\n      dup3\n        /* \"lotto.sol\":2516:2530  currentEntries */\n      dup3\n        /* \"lotto.sol\":2485:2506  removeEntryFromWallet */\n      tag_53\n        /* \"lotto.sol\":2485:2531  removeEntryFromWallet(account, currentEntries) */\n      jump\t// in\n    tag_104:\n        /* \"lotto.sol\":2404:2539  {\r... */\n      pop\n        /* \"lotto.sol\":2356:2539  function removeAccount(address account) external{\r... */\n      pop\n      jump\t// out\n        /* \"lotto.sol\":623:652  uint256 public currentJackpot */\n    tag_69:\n      sload(0x00)\n      dup2\n      jump\t// out\n        /* \"#utility.yul\":7:146   */\n    tag_106:\n        /* \"#utility.yul\":53:58   */\n      0x00\n        /* \"#utility.yul\":91:97   */\n      dup2\n        /* \"#utility.yul\":78:98   */\n      calldataload\n        /* \"#utility.yul\":69:98   */\n      swap1\n      pop\n        /* \"#utility.yul\":107:140   */\n      tag_108\n        /* \"#utility.yul\":134:139   */\n      dup2\n        /* \"#utility.yul\":107:140   */\n      tag_109\n      jump\t// in\n    tag_108:\n        /* \"#utility.yul\":7:146   */\n      swap3\n      swap2\n      pop\n      pop\n      jump\t// out\n        /* \"#utility.yul\":152:291   */\n    tag_110:\n        /* \"#utility.yul\":198:203   */\n      0x00\n        /* \"#utility.yul\":236:242   */\n      dup2\n        /* \"#utility.yul\":223:243   */\n      calldataload\n        /* \"#utility.yul\":214:243   */\n      swap1\n      pop\n        /* \"#utility.yul\":252:285   */\n      tag_112\n        /* \"#utility.yul\":279:284   */\n      dup2\n        /* \"#utility.yul\":252:285   */\n      tag_113\n      jump\t// in\n    tag_112:\n        /* \"#utility.yul\":152:291   */\n      swap3\n      swap2\n      pop\n      pop\n      jump\t// out\n        /* \"#utility.yul\":297:626   */\n    tag_40:\n        /* \"#utility.yul\":356:362   */\n      0x00\n        /* \"#utility.yul\":405:407   */\n      0x20\n        /* \"#utility.yul\":393:402   */\n      dup3\n        /* \"#utility.yul\":384:391   */\n      dup5\n        /* \"#utility.yul\":380:403   */\n      sub\n        /* \"#utility.yul\":376:408   */\n      slt\n        /* \"#utility.yul\":373:492   */\n      iszero\n      tag_115\n      jumpi\n        /* \"#utility.yul\":411:490   */\n      tag_116\n      tag_117\n      jump\t// in\n    tag_116:\n        /* \"#utility.yul\":373:492   */\n    tag_115:\n        /* \"#utility.yul\":531:532   */\n      0x00\n        /* \"#utility.yul\":556:609   */\n      tag_118\n        /* \"#utility.yul\":601:608   */\n      dup5\n        /* \"#utility.yul\":592:598   */\n      dup3\n        /* \"#utility.yul\":581:590   */\n      dup6\n        /* \"#utility.yul\":577:599   */\n      add\n        /* \"#utility.yul\":556:609   */\n      tag_106\n      jump\t// in\n    tag_118:\n        /* \"#utility.yul\":546:609   */\n      swap2\n      pop\n        /* \"#utility.yul\":502:619   */\n      pop\n        /* \"#utility.yul\":297:626   */\n      swap3\n      swap2\n      pop\n      pop\n      jump\t// out\n        /* \"#utility.yul\":632:1106   */\n    tag_20:\n        /* \"#utility.yul\":700:706   */\n      0x00\n        /* \"#utility.yul\":708:714   */\n      dup1\n        /* \"#utility.yul\":757:759   */\n      0x40\n        /* \"#utility.yul\":745:754   */\n      dup4\n        /* \"#utility.yul\":736:743   */\n      dup6\n        /* \"#utility.yul\":732:755   */\n      sub\n        /* \"#utility.yul\":728:760   */\n      slt\n        /* \"#utility.yul\":725:844   */\n      iszero\n      tag_120\n      jumpi\n        /* \"#utility.yul\":763:842   */\n      tag_121\n      tag_117\n      jump\t// in\n    tag_121:\n        /* \"#utility.yul\":725:844   */\n    tag_120:\n        /* \"#utility.yul\":883:884   */\n      0x00\n        /* \"#utility.yul\":908:961   */\n      tag_122\n        /* \"#utility.yul\":953:960   */\n      dup6\n        /* \"#utility.yul\":944:950   */\n      dup3\n        /* \"#utility.yul\":933:942   */\n      dup7\n        /* \"#utility.yul\":929:951   */\n      add\n        /* \"#utility.yul\":908:961   */\n      tag_106\n      jump\t// in\n    tag_122:\n        /* \"#utility.yul\":898:961   */\n      swap3\n      pop\n        /* \"#utility.yul\":854:971   */\n      pop\n        /* \"#utility.yul\":1010:1012   */\n      0x20\n        /* \"#utility.yul\":1036:1089   */\n      tag_123\n        /* \"#utility.yul\":1081:1088   */\n      dup6\n        /* \"#utility.yul\":1072:1078   */\n      dup3\n        /* \"#utility.yul\":1061:1070   */\n      dup7\n        /* \"#utility.yul\":1057:1079   */\n      add\n        /* \"#utility.yul\":1036:1089   */\n      tag_110\n      jump\t// in\n    tag_123:\n        /* \"#utility.yul\":1026:1089   */\n      swap2\n      pop\n        /* \"#utility.yul\":981:1099   */\n      pop\n        /* \"#utility.yul\":632:1106   */\n      swap3\n      pop\n      swap3\n      swap1\n      pop\n      jump\t// out\n        /* \"#utility.yul\":1112:1441   */\n    tag_56:\n        /* \"#utility.yul\":1171:1177   */\n      0x00\n        /* \"#utility.yul\":1220:1222   */\n      0x20\n        /* \"#utility.yul\":1208:1217   */\n      dup3\n        /* \"#utility.yul\":1199:1206   */\n      dup5\n        /* \"#utility.yul\":1195:1218   */\n      sub\n        /* \"#utility.yul\":1191:1223   */\n      slt\n        /* \"#utility.yul\":1188:1307   */\n      iszero\n      tag_125\n      jumpi\n        /* \"#utility.yul\":1226:1305   */\n      tag_126\n      tag_117\n      jump\t// in\n    tag_126:\n        /* \"#utility.yul\":1188:1307   */\n    tag_125:\n        /* \"#utility.yul\":1346:1347   */\n      0x00\n        /* \"#utility.yul\":1371:1424   */\n      tag_127\n        /* \"#utility.yul\":1416:1423   */\n      dup5\n        /* \"#utility.yul\":1407:1413   */\n      dup3\n        /* \"#utility.yul\":1396:1405   */\n      dup6\n        /* \"#utility.yul\":1392:1414   */\n      add\n        /* \"#utility.yul\":1371:1424   */\n      tag_110\n      jump\t// in\n    tag_127:\n        /* \"#utility.yul\":1361:1424   */\n      swap2\n      pop\n        /* \"#utility.yul\":1317:1434   */\n      pop\n        /* \"#utility.yul\":1112:1441   */\n      swap3\n      swap2\n      pop\n      pop\n      jump\t// out\n        /* \"#utility.yul\":1447:1921   */\n    tag_35:\n        /* \"#utility.yul\":1515:1521   */\n      0x00\n        /* \"#utility.yul\":1523:1529   */\n      dup1\n        /* \"#utility.yul\":1572:1574   */\n      0x40\n        /* \"#utility.yul\":1560:1569   */\n      dup4\n        /* \"#utility.yul\":1551:1558   */\n      dup6\n        /* \"#utility.yul\":1547:1570   */\n      sub\n        /* \"#utility.yul\":1543:1575   */\n      slt\n        /* \"#utility.yul\":1540:1659   */\n      iszero\n      tag_129\n      jumpi\n        /* \"#utility.yul\":1578:1657   */\n      tag_130\n      tag_117\n      jump\t// in\n    tag_130:\n        /* \"#utility.yul\":1540:1659   */\n    tag_129:\n        /* \"#utility.yul\":1698:1699   */\n      0x00\n        /* \"#utility.yul\":1723:1776   */\n      tag_131\n        /* \"#utility.yul\":1768:1775   */\n      dup6\n        /* \"#utility.yul\":1759:1765   */\n      dup3\n        /* \"#utility.yul\":1748:1757   */\n      dup7\n        /* \"#utility.yul\":1744:1766   */\n      add\n        /* \"#utility.yul\":1723:1776   */\n      tag_110\n      jump\t// in\n    tag_131:\n        /* \"#utility.yul\":1713:1776   */\n      swap3\n      pop\n        /* \"#utility.yul\":1669:1786   */\n      pop\n        /* \"#utility.yul\":1825:1827   */\n      0x20\n        /* \"#utility.yul\":1851:1904   */\n      tag_132\n        /* \"#utility.yul\":1896:1903   */\n      dup6\n        /* \"#utility.yul\":1887:1893   */\n      dup3\n        /* \"#utility.yul\":1876:1885   */\n      dup7\n        /* \"#utility.yul\":1872:1894   */\n      add\n        /* \"#utility.yul\":1851:1904   */\n      tag_106\n      jump\t// in\n    tag_132:\n        /* \"#utility.yul\":1841:1904   */\n      swap2\n      pop\n        /* \"#utility.yul\":1796:1914   */\n      pop\n        /* \"#utility.yul\":1447:1921   */\n      swap3\n      pop\n      swap3\n      swap1\n      pop\n      jump\t// out\n        /* \"#utility.yul\":1927:2045   */\n    tag_133:\n        /* \"#utility.yul\":2014:2038   */\n      tag_135\n        /* \"#utility.yul\":2032:2037   */\n      dup2\n        /* \"#utility.yul\":2014:2038   */\n      tag_136\n      jump\t// in\n    tag_135:\n        /* \"#utility.yul\":2009:2012   */\n      dup3\n        /* \"#utility.yul\":2002:2039   */\n      mstore\n        /* \"#utility.yul\":1927:2045   */\n      pop\n      pop\n      jump\t// out\n        /* \"#utility.yul\":2051:2160   */\n    tag_137:\n        /* \"#utility.yul\":2132:2153   */\n      tag_139\n        /* \"#utility.yul\":2147:2152   */\n      dup2\n        /* \"#utility.yul\":2132:2153   */\n      tag_140\n      jump\t// in\n    tag_139:\n        /* \"#utility.yul\":2127:2130   */\n      dup3\n        /* \"#utility.yul\":2120:2154   */\n      mstore\n        /* \"#utility.yul\":2051:2160   */\n      pop\n      pop\n      jump\t// out\n        /* \"#utility.yul\":2166:2325   */\n    tag_141:\n        /* \"#utility.yul\":2267:2318   */\n      tag_143\n        /* \"#utility.yul\":2312:2317   */\n      dup2\n        /* \"#utility.yul\":2267:2318   */\n      tag_144\n      jump\t// in\n    tag_143:\n        /* \"#utility.yul\":2262:2265   */\n      dup3\n        /* \"#utility.yul\":2255:2319   */\n      mstore\n        /* \"#utility.yul\":2166:2325   */\n      pop\n      pop\n      jump\t// out\n        /* \"#utility.yul\":2331:2449   */\n    tag_145:\n        /* \"#utility.yul\":2418:2442   */\n      tag_147\n        /* \"#utility.yul\":2436:2441   */\n      dup2\n        /* \"#utility.yul\":2418:2442   */\n      tag_148\n      jump\t// in\n    tag_147:\n        /* \"#utility.yul\":2413:2416   */\n      dup3\n        /* \"#utility.yul\":2406:2443   */\n      mstore\n        /* \"#utility.yul\":2331:2449   */\n      pop\n      pop\n      jump\t// out\n        /* \"#utility.yul\":2455:2677   */\n    tag_64:\n        /* \"#utility.yul\":2548:2552   */\n      0x00\n        /* \"#utility.yul\":2586:2588   */\n      0x20\n        /* \"#utility.yul\":2575:2584   */\n      dup3\n        /* \"#utility.yul\":2571:2589   */\n      add\n        /* \"#utility.yul\":2563:2589   */\n      swap1\n      pop\n        /* \"#utility.yul\":2599:2670   */\n      tag_150\n        /* \"#utility.yul\":2667:2668   */\n      0x00\n        /* \"#utility.yul\":2656:2665   */\n      dup4\n        /* \"#utility.yul\":2652:2669   */\n      add\n        /* \"#utility.yul\":2643:2649   */\n      dup5\n        /* \"#utility.yul\":2599:2670   */\n      tag_133\n      jump\t// in\n    tag_150:\n        /* \"#utility.yul\":2455:2677   */\n      swap3\n      swap2\n      pop\n      pop\n      jump\t// out\n        /* \"#utility.yul\":2683:2893   */\n    tag_43:\n        /* \"#utility.yul\":2770:2774   */\n      0x00\n        /* \"#utility.yul\":2808:2810   */\n      0x20\n        /* \"#utility.yul\":2797:2806   */\n      dup3\n        /* \"#utility.yul\":2793:2811   */\n      add\n        /* \"#utility.yul\":2785:2811   */\n      swap1\n      pop\n        /* \"#utility.yul\":2821:2886   */\n      tag_152\n        /* \"#utility.yul\":2883:2884   */\n      0x00\n        /* \"#utility.yul\":2872:2881   */\n      dup4\n        /* \"#utility.yul\":2868:2885   */\n      add\n        /* \"#utility.yul\":2859:2865   */\n      dup5\n        /* \"#utility.yul\":2821:2886   */\n      tag_137\n      jump\t// in\n    tag_152:\n        /* \"#utility.yul\":2683:2893   */\n      swap3\n      swap2\n      pop\n      pop\n      jump\t// out\n        /* \"#utility.yul\":2899:3149   */\n    tag_50:\n        /* \"#utility.yul\":3006:3010   */\n      0x00\n        /* \"#utility.yul\":3044:3046   */\n      0x20\n        /* \"#utility.yul\":3033:3042   */\n      dup3\n        /* \"#utility.yul\":3029:3047   */\n      add\n        /* \"#utility.yul\":3021:3047   */\n      swap1\n      pop\n        /* \"#utility.yul\":3057:3142   */\n      tag_154\n        /* \"#utility.yul\":3139:3140   */\n      0x00\n        /* \"#utility.yul\":3128:3137   */\n      dup4\n        /* \"#utility.yul\":3124:3141   */\n      add\n        /* \"#utility.yul\":3115:3121   */\n      dup5\n        /* \"#utility.yul\":3057:3142   */\n      tag_141\n      jump\t// in\n    tag_154:\n        /* \"#utility.yul\":2899:3149   */\n      swap3\n      swap2\n      pop\n      pop\n      jump\t// out\n        /* \"#utility.yul\":3155:3377   */\n    tag_23:\n        /* \"#utility.yul\":3248:3252   */\n      0x00\n        /* \"#utility.yul\":3286:3288   */\n      0x20\n        /* \"#utility.yul\":3275:3284   */\n      dup3\n        /* \"#utility.yul\":3271:3289   */\n      add\n        /* \"#utility.yul\":3263:3289   */\n      swap1\n      pop\n        /* \"#utility.yul\":3299:3370   */\n      tag_156\n        /* \"#utility.yul\":3367:3368   */\n      0x00\n        /* \"#utility.yul\":3356:3365   */\n      dup4\n        /* \"#utility.yul\":3352:3369   */\n      add\n        /* \"#utility.yul\":3343:3349   */\n      dup5\n        /* \"#utility.yul\":3299:3370   */\n      tag_145\n      jump\t// in\n    tag_156:\n        /* \"#utility.yul\":3155:3377   */\n      swap3\n      swap2\n      pop\n      pop\n      jump\t// out\n        /* \"#utility.yul\":3383:4047   */\n    tag_59:\n        /* \"#utility.yul\":3588:3592   */\n      0x00\n        /* \"#utility.yul\":3626:3629   */\n      0xa0\n        /* \"#utility.yul\":3615:3624   */\n      dup3\n        /* \"#utility.yul\":3611:3630   */\n      add\n        /* \"#utility.yul\":3603:3630   */\n      swap1\n      pop\n        /* \"#utility.yul\":3640:3711   */\n      tag_158\n        /* \"#utility.yul\":3708:3709   */\n      0x00\n        /* \"#utility.yul\":3697:3706   */\n      dup4\n        /* \"#utility.yul\":3693:3710   */\n      add\n        /* \"#utility.yul\":3684:3690   */\n      dup9\n        /* \"#utility.yul\":3640:3711   */\n      tag_145\n      jump\t// in\n    tag_158:\n        /* \"#utility.yul\":3721:3793   */\n      tag_159\n        /* \"#utility.yul\":3789:3791   */\n      0x20\n        /* \"#utility.yul\":3778:3787   */\n      dup4\n        /* \"#utility.yul\":3774:3792   */\n      add\n        /* \"#utility.yul\":3765:3771   */\n      dup8\n        /* \"#utility.yul\":3721:3793   */\n      tag_145\n      jump\t// in\n    tag_159:\n        /* \"#utility.yul\":3803:3875   */\n      tag_160\n        /* \"#utility.yul\":3871:3873   */\n      0x40\n        /* \"#utility.yul\":3860:3869   */\n      dup4\n        /* \"#utility.yul\":3856:3874   */\n      add\n        /* \"#utility.yul\":3847:3853   */\n      dup7\n        /* \"#utility.yul\":3803:3875   */\n      tag_145\n      jump\t// in\n    tag_160:\n        /* \"#utility.yul\":3885:3957   */\n      tag_161\n        /* \"#utility.yul\":3953:3955   */\n      0x60\n        /* \"#utility.yul\":3942:3951   */\n      dup4\n        /* \"#utility.yul\":3938:3956   */\n      add\n        /* \"#utility.yul\":3929:3935   */\n      dup6\n        /* \"#utility.yul\":3885:3957   */\n      tag_145\n      jump\t// in\n    tag_161:\n        /* \"#utility.yul\":3967:4040   */\n      tag_162\n        /* \"#utility.yul\":4035:4038   */\n      0x80\n        /* \"#utility.yul\":4024:4033   */\n      dup4\n        /* \"#utility.yul\":4020:4039   */\n      add\n        /* \"#utility.yul\":4011:4017   */\n      dup5\n        /* \"#utility.yul\":3967:4040   */\n      tag_133\n      jump\t// in\n    tag_162:\n        /* \"#utility.yul\":3383:4047   */\n      swap7\n      swap6\n      pop\n      pop\n      pop\n      pop\n      pop\n      pop\n      jump\t// out\n        /* \"#utility.yul\":4134:4439   */\n    tag_78:\n        /* \"#utility.yul\":4174:4177   */\n      0x00\n        /* \"#utility.yul\":4193:4213   */\n      tag_166\n        /* \"#utility.yul\":4211:4212   */\n      dup3\n        /* \"#utility.yul\":4193:4213   */\n      tag_148\n      jump\t// in\n    tag_166:\n        /* \"#utility.yul\":4188:4213   */\n      swap2\n      pop\n        /* \"#utility.yul\":4227:4247   */\n      tag_167\n        /* \"#utility.yul\":4245:4246   */\n      dup4\n        /* \"#utility.yul\":4227:4247   */\n      tag_148\n      jump\t// in\n    tag_167:\n        /* \"#utility.yul\":4222:4247   */\n      swap3\n      pop\n        /* \"#utility.yul\":4381:4382   */\n      dup3\n        /* \"#utility.yul\":4313:4379   */\n      0xffffffffffffffffffffffffffffffffffffffffffffffffffffffffffffffff\n        /* \"#utility.yul\":4309:4383   */\n      sub\n        /* \"#utility.yul\":4306:4307   */\n      dup3\n        /* \"#utility.yul\":4303:4384   */\n      gt\n        /* \"#utility.yul\":4300:4407   */\n      iszero\n      tag_168\n      jumpi\n        /* \"#utility.yul\":4387:4405   */\n      tag_169\n      tag_170\n      jump\t// in\n    tag_169:\n        /* \"#utility.yul\":4300:4407   */\n    tag_168:\n        /* \"#utility.yul\":4431:4432   */\n      dup3\n        /* \"#utility.yul\":4428:4429   */\n      dup3\n        /* \"#utility.yul\":4424:4433   */\n      add\n        /* \"#utility.yul\":4417:4433   */\n      swap1\n      pop\n        /* \"#utility.yul\":4134:4439   */\n      swap3\n      swap2\n      pop\n      pop\n      jump\t// out\n        /* \"#utility.yul\":4445:4636   */\n    tag_94:\n        /* \"#utility.yul\":4485:4489   */\n      0x00\n        /* \"#utility.yul\":4505:4525   */\n      tag_172\n        /* \"#utility.yul\":4523:4524   */\n      dup3\n        /* \"#utility.yul\":4505:4525   */\n      tag_148\n      jump\t// in\n    tag_172:\n        /* \"#utility.yul\":4500:4525   */\n      swap2\n      pop\n        /* \"#utility.yul\":4539:4559   */\n      tag_173\n        /* \"#utility.yul\":4557:4558   */\n      dup4\n        /* \"#utility.yul\":4539:4559   */\n      tag_148\n      jump\t// in\n    tag_173:\n        /* \"#utility.yul\":4534:4559   */\n      swap3\n      pop\n        /* \"#utility.yul\":4578:4579   */\n      dup3\n        /* \"#utility.yul\":4575:4576   */\n      dup3\n        /* \"#utility.yul\":4572:4580   */\n      lt\n        /* \"#utility.yul\":4569:4603   */\n      iszero\n      tag_174\n      jumpi\n        /* \"#utility.yul\":4583:4601   */\n      tag_175\n      tag_170\n      jump\t// in\n    tag_175:\n        /* \"#utility.yul\":4569:4603   */\n    tag_174:\n        /* \"#utility.yul\":4628:4629   */\n      dup3\n        /* \"#utility.yul\":4625:4626   */\n      dup3\n        /* \"#utility.yul\":4621:4630   */\n      sub\n        /* \"#utility.yul\":4613:4630   */\n      swap1\n      pop\n        /* \"#utility.yul\":4445:4636   */\n      swap3\n      swap2\n      pop\n      pop\n      jump\t// out\n        /* \"#utility.yul\":4642:4738   */\n    tag_136:\n        /* \"#utility.yul\":4679:4686   */\n      0x00\n        /* \"#utility.yul\":4708:4732   */\n      tag_177\n        /* \"#utility.yul\":4726:4731   */\n      dup3\n        /* \"#utility.yul\":4708:4732   */\n      tag_178\n      jump\t// in\n    tag_177:\n        /* \"#utility.yul\":4697:4732   */\n      swap1\n      pop\n        /* \"#utility.yul\":4642:4738   */\n      swap2\n      swap1\n      pop\n      jump\t// out\n        /* \"#utility.yul\":4744:4834   */\n    tag_140:\n        /* \"#utility.yul\":4778:4785   */\n      0x00\n        /* \"#utility.yul\":4821:4826   */\n      dup2\n        /* \"#utility.yul\":4814:4827   */\n      iszero\n        /* \"#utility.yul\":4807:4828   */\n      iszero\n        /* \"#utility.yul\":4796:4828   */\n      swap1\n      pop\n        /* \"#utility.yul\":4744:4834   */\n      swap2\n      swap1\n      pop\n      jump\t// out\n        /* \"#utility.yul\":4840:4966   */\n    tag_178:\n        /* \"#utility.yul\":4877:4884   */\n      0x00\n        /* \"#utility.yul\":4917:4959   */\n      0xffffffffffffffffffffffffffffffffffffffff\n        /* \"#utility.yul\":4910:4915   */\n      dup3\n        /* \"#utility.yul\":4906:4960   */\n      and\n        /* \"#utility.yul\":4895:4960   */\n      swap1\n      pop\n        /* \"#utility.yul\":4840:4966   */\n      swap2\n      swap1\n      pop\n      jump\t// out\n        /* \"#utility.yul\":4972:5049   */\n    tag_148:\n        /* \"#utility.yul\":5009:5016   */\n      0x00\n        /* \"#utility.yul\":5038:5043   */\n      dup2\n        /* \"#utility.yul\":5027:5043   */\n      swap1\n      pop\n        /* \"#utility.yul\":4972:5049   */\n      swap2\n      swap1\n      pop\n      jump\t// out\n        /* \"#utility.yul\":5055:5195   */\n    tag_144:\n        /* \"#utility.yul\":5119:5128   */\n      0x00\n        /* \"#utility.yul\":5152:5189   */\n      tag_183\n        /* \"#utility.yul\":5183:5188   */\n      dup3\n        /* \"#utility.yul\":5152:5189   */\n      tag_184\n      jump\t// in\n    tag_183:\n        /* \"#utility.yul\":5139:5189   */\n      swap1\n      pop\n        /* \"#utility.yul\":5055:5195   */\n      swap2\n      swap1\n      pop\n      jump\t// out\n        /* \"#utility.yul\":5201:5327   */\n    tag_184:\n        /* \"#utility.yul\":5251:5260   */\n      0x00\n        /* \"#utility.yul\":5284:5321   */\n      tag_186\n        /* \"#utility.yul\":5315:5320   */\n      dup3\n        /* \"#utility.yul\":5284:5321   */\n      tag_187\n      jump\t// in\n    tag_186:\n        /* \"#utility.yul\":5271:5321   */\n      swap1\n      pop\n        /* \"#utility.yul\":5201:5327   */\n      swap2\n      swap1\n      pop\n      jump\t// out\n        /* \"#utility.yul\":5333:5446   */\n    tag_187:\n        /* \"#utility.yul\":5383:5392   */\n      0x00\n        /* \"#utility.yul\":5416:5440   */\n      tag_189\n        /* \"#utility.yul\":5434:5439   */\n      dup3\n        /* \"#utility.yul\":5416:5440   */\n      tag_178\n      jump\t// in\n    tag_189:\n        /* \"#utility.yul\":5403:5440   */\n      swap1\n      pop\n        /* \"#utility.yul\":5333:5446   */\n      swap2\n      swap1\n      pop\n      jump\t// out\n        /* \"#utility.yul\":5452:5685   */\n    tag_82:\n        /* \"#utility.yul\":5491:5494   */\n      0x00\n        /* \"#utility.yul\":5514:5538   */\n      tag_191\n        /* \"#utility.yul\":5532:5537   */\n      dup3\n        /* \"#utility.yul\":5514:5538   */\n      tag_148\n      jump\t// in\n    tag_191:\n        /* \"#utility.yul\":5505:5538   */\n      swap2\n      pop\n        /* \"#utility.yul\":5560:5626   */\n      0xffffffffffffffffffffffffffffffffffffffffffffffffffffffffffffffff\n        /* \"#utility.yul\":5553:5558   */\n      dup3\n        /* \"#utility.yul\":5550:5627   */\n      eq\n        /* \"#utility.yul\":5547:5650   */\n      iszero\n      tag_192\n      jumpi\n        /* \"#utility.yul\":5630:5648   */\n      tag_193\n      tag_170\n      jump\t// in\n    tag_193:\n        /* \"#utility.yul\":5547:5650   */\n    tag_192:\n        /* \"#utility.yul\":5677:5678   */\n      0x01\n        /* \"#utility.yul\":5670:5675   */\n      dup3\n        /* \"#utility.yul\":5666:5679   */\n      add\n        /* \"#utility.yul\":5659:5679   */\n      swap1\n      pop\n        /* \"#utility.yul\":5452:5685   */\n      swap2\n      swap1\n      pop\n      jump\t// out\n        /* \"#utility.yul\":5691:5871   */\n    tag_170:\n        /* \"#utility.yul\":5739:5816   */\n      0x4e487b7100000000000000000000000000000000000000000000000000000000\n        /* \"#utility.yul\":5736:5737   */\n      0x00\n        /* \"#utility.yul\":5729:5817   */\n      mstore\n        /* \"#utility.yul\":5836:5840   */\n      0x11\n        /* \"#utility.yul\":5833:5834   */\n      0x04\n        /* \"#utility.yul\":5826:5841   */\n      mstore\n        /* \"#utility.yul\":5860:5864   */\n      0x24\n        /* \"#utility.yul\":5857:5858   */\n      0x00\n        /* \"#utility.yul\":5850:5865   */\n      revert\n        /* \"#utility.yul\":5877:6057   */\n    tag_97:\n        /* \"#utility.yul\":5925:6002   */\n      0x4e487b7100000000000000000000000000000000000000000000000000000000\n        /* \"#utility.yul\":5922:5923   */\n      0x00\n        /* \"#utility.yul\":5915:6003   */\n      mstore\n        /* \"#utility.yul\":6022:6026   */\n      0x32\n        /* \"#utility.yul\":6019:6020   */\n      0x04\n        /* \"#utility.yul\":6012:6027   */\n      mstore\n        /* \"#utility.yul\":6046:6050   */\n      0x24\n        /* \"#utility.yul\":6043:6044   */\n      0x00\n        /* \"#utility.yul\":6036:6051   */\n      revert\n        /* \"#utility.yul\":6186:6303   */\n    tag_117:\n        /* \"#utility.yul\":6295:6296   */\n      0x00\n        /* \"#utility.yul\":6292:6293   */\n      dup1\n        /* \"#utility.yul\":6285:6297   */\n      revert\n        /* \"#utility.yul\":6309:6431   */\n    tag_109:\n        /* \"#utility.yul\":6382:6406   */\n      tag_200\n        /* \"#utility.yul\":6400:6405   */\n      dup2\n        /* \"#utility.yul\":6382:6406   */\n      tag_136\n      jump\t// in\n    tag_200:\n        /* \"#utility.yul\":6375:6380   */\n      dup2\n        /* \"#utility.yul\":6372:6407   */\n      eq\n        /* \"#utility.yul\":6362:6425   */\n      tag_201\n      jumpi\n        /* \"#utility.yul\":6421:6422   */\n      0x00\n        /* \"#utility.yul\":6418:6419   */\n      dup1\n        /* \"#utility.yul\":6411:6423   */\n      revert\n        /* \"#utility.yul\":6362:6425   */\n    tag_201:\n        /* \"#utility.yul\":6309:6431   */\n      pop\n      jump\t// out\n        /* \"#utility.yul\":6437:6559   */\n    tag_113:\n        /* \"#utility.yul\":6510:6534   */\n      tag_203\n        /* \"#utility.yul\":6528:6533   */\n      dup2\n        /* \"#utility.yul\":6510:6534   */\n      tag_148\n      jump\t// in\n    tag_203:\n        /* \"#utility.yul\":6503:6508   */\n      dup2\n        /* \"#utility.yul\":6500:6535   */\n      eq\n        /* \"#utility.yul\":6490:6553   */\n      tag_204\n      jumpi\n        /* \"#utility.yul\":6549:6550   */\n      0x00\n        /* \"#utility.yul\":6546:6547   */\n      dup1\n        /* \"#utility.yul\":6539:6551   */\n      revert\n        /* \"#utility.yul\":6490:6553   */\n    tag_204:\n        /* \"#utility.yul\":6437:6559   */\n      pop\n      jump\t// out\n\n    auxdata: 0xa26469706673582212201c85cbcb38de6a51e3f161187eb2ee1ee1997dd3c1943d21fc1dfb24c713582f64736f6c63430008070033\n}\n",
				"bytecode": {
					"linkReferences": {},
					"object": "608060405234801561001057600080fd5b50604051610ddb380380610ddb8339818101604052810190610032919061008e565b80600460006101000a81548173ffffffffffffffffffffffffffffffffffffffff021916908373ffffffffffffffffffffffffffffffffffffffff16021790555050610109565b600081519050610088816100f2565b92915050565b6000602082840312156100a4576100a36100ed565b5b60006100b284828501610079565b91505092915050565b60006100c6826100cd565b9050919050565b600073ffffffffffffffffffffffffffffffffffffffff82169050919050565b600080fd5b6100fb816100bb565b811461010657600080fd5b50565b610cc3806101186000396000f3fe608060405234801561001057600080fd5b50600436106100cf5760003560e01c806376636d201161008c578063ac128f4f11610066578063ac128f4f14610214578063b657dd6514610248578063c4740a9514610278578063f9cee0bd14610294576100cf565b806376636d20146101bc5780639b3e4552146101da578063a59460dc146101f8576100cf565b80630d988270146100d4578063119b22b314610104578063443b80a114610122578063454f7b8f1461013e578063578e3f881461015c5780635bedc3901461018c575b600080fd5b6100ee60048036038101906100e99190610903565b6102b2565b6040516100fb9190610a3d565b60405180910390f35b61010c6102e3565b6040516101199190610a3d565b60405180910390f35b61013c60048036038101906101379190610903565b6102e9565b005b610146610460565b6040516101539190610a3d565b60405180910390f35b61017660048036038101906101719190610970565b610466565b6040516101839190610a3d565b60405180910390f35b6101a660048036038101906101a191906108d6565b61048b565b6040516101b39190610a07565b60405180910390f35b6101c46104ef565b6040516101d19190610a3d565b60405180910390f35b6101e26104f5565b6040516101ef9190610a22565b60405180910390f35b610212600480360381019061020d9190610903565b61051b565b005b61022e60048036038101906102299190610943565b6107b8565b60405161023f959493929190610a58565b60405180910390f35b610262600480360381019061025d9190610943565b61080e565b60405161026f91906109ec565b60405180910390f35b610292600480360381019061028d91906108d6565b610841565b005b61029c6108a6565b6040516102a99190610a3d565b60405180910390f35b600860205281600052604060002081815481106102ce57600080fd5b90600052602060002001600091509150505481565b60025481565b60005b818110156103d9578260066000836001546103079190610aab565b815260200190815260200160002060006101000a81548173ffffffffffffffffffffffffffffffffffffffff021916908373ffffffffffffffffffffffffffffffffffffffff160217905550600860008473ffffffffffffffffffffffffffffffffffffffff1673ffffffffffffffffffffffffffffffffffffffff168152602001908152602001600020816001546103a09190610aab565b908060018154018082558091505060019003906000526020600020016000909190919091505580806103d190610bb3565b9150506102ec565b508060076000600254815260200190815260200160002060008473ffffffffffffffffffffffffffffffffffffffff1673ffffffffffffffffffffffffffffffffffffffff168152602001908152602001600020600082825461043c9190610aab565b9250508190555080600160008282546104559190610aab565b925050819055505050565b60035481565b6007602052816000526040600020602052806000526040600020600091509150505481565b60008060076000600254815260200190815260200160002060008473ffffffffffffffffffffffffffffffffffffffff1673ffffffffffffffffffffffffffffffffffffffff16815260200190815260200160002054905060008111915050919050565b60015481565b600460009054906101000a900473ffffffffffffffffffffffffffffffffffffffff1681565b600060076000600254815260200190815260200160002060008473ffffffffffffffffffffffffffffffffffffffff1673ffffffffffffffffffffffffffffffffffffffff168152602001908152602001600020549050600081141561058157506107b4565b8082111561058d578091505b6000600190505b82811161072f576000600860008673ffffffffffffffffffffffffffffffffffffffff1673ffffffffffffffffffffffffffffffffffffffff1681526020019081526020016000206001600860008873ffffffffffffffffffffffffffffffffffffffff1673ffffffffffffffffffffffffffffffffffffffff1681526020019081526020016000208054905061062b9190610b01565b8154811061063c5761063b610c2b565b5b90600052602060002001549050600660008360015461065b9190610b01565b815260200190815260200160002060009054906101000a900473ffffffffffffffffffffffffffffffffffffffff166006600083815260200190815260200160002060006101000a81548173ffffffffffffffffffffffffffffffffffffffff021916908373ffffffffffffffffffffffffffffffffffffffff160217905550600860008673ffffffffffffffffffffffffffffffffffffffff1673ffffffffffffffffffffffffffffffffffffffff1681526020019081526020016000205050808061072790610bb3565b915050610594565b508160076000600254815260200190815260200160002060008573ffffffffffffffffffffffffffffffffffffffff1673ffffffffffffffffffffffffffffffffffffffff16815260200190815260200160002060008282546107929190610b01565b9250508190555081600160008282546107ab9190610b01565b92505081905550505b5050565b60056020528060005260406000206000915090508060000154908060010154908060020154908060030154908060040160009054906101000a900473ffffffffffffffffffffffffffffffffffffffff16905085565b60066020528060005260406000206000915054906101000a900473ffffffffffffffffffffffffffffffffffffffff1681565b600060076000600254815260200190815260200160002060008373ffffffffffffffffffffffffffffffffffffffff1673ffffffffffffffffffffffffffffffffffffffff1681526020019081526020016000205490506108a2828261051b565b5050565b60005481565b6000813590506108bb81610c5f565b92915050565b6000813590506108d081610c76565b92915050565b6000602082840312156108ec576108eb610c5a565b5b60006108fa848285016108ac565b91505092915050565b6000806040838503121561091a57610919610c5a565b5b6000610928858286016108ac565b9250506020610939858286016108c1565b9150509250929050565b60006020828403121561095957610958610c5a565b5b6000610967848285016108c1565b91505092915050565b6000806040838503121561098757610986610c5a565b5b6000610995858286016108c1565b92505060206109a6858286016108ac565b9150509250929050565b6109b981610b35565b82525050565b6109c881610b47565b82525050565b6109d781610b7d565b82525050565b6109e681610b73565b82525050565b6000602082019050610a0160008301846109b0565b92915050565b6000602082019050610a1c60008301846109bf565b92915050565b6000602082019050610a3760008301846109ce565b92915050565b6000602082019050610a5260008301846109dd565b92915050565b600060a082019050610a6d60008301886109dd565b610a7a60208301876109dd565b610a8760408301866109dd565b610a9460608301856109dd565b610aa160808301846109b0565b9695505050505050565b6000610ab682610b73565b9150610ac183610b73565b9250827fffffffffffffffffffffffffffffffffffffffffffffffffffffffffffffffff03821115610af657610af5610bfc565b5b828201905092915050565b6000610b0c82610b73565b9150610b1783610b73565b925082821015610b2a57610b29610bfc565b5b828203905092915050565b6000610b4082610b53565b9050919050565b60008115159050919050565b600073ffffffffffffffffffffffffffffffffffffffff82169050919050565b6000819050919050565b6000610b8882610b8f565b9050919050565b6000610b9a82610ba1565b9050919050565b6000610bac82610b53565b9050919050565b6000610bbe82610b73565b91507fffffffffffffffffffffffffffffffffffffffffffffffffffffffffffffffff821415610bf157610bf0610bfc565b5b600182019050919050565b7f4e487b7100000000000000000000000000000000000000000000000000000000600052601160045260246000fd5b7f4e487b7100000000000000000000000000000000000000000000000000000000600052603260045260246000fd5b600080fd5b610c6881610b35565b8114610c7357600080fd5b50565b610c7f81610b73565b8114610c8a57600080fd5b5056fea26469706673582212201c85cbcb38de6a51e3f161187eb2ee1ee1997dd3c1943d21fc1dfb24c713582f64736f6c63430008070033",
					"opcodes": "PUSH1 0x80 PUSH1 0x40 MSTORE CALLVALUE DUP1 ISZERO PUSH2 0x10 JUMPI PUSH1 0x0 DUP1 REVERT JUMPDEST POP PUSH1 0x40 MLOAD PUSH2 0xDDB CODESIZE SUB DUP1 PUSH2 0xDDB DUP4 CODECOPY DUP2 DUP2 ADD PUSH1 0x40 MSTORE DUP2 ADD SWAP1 PUSH2 0x32 SWAP2 SWAP1 PUSH2 0x8E JUMP JUMPDEST DUP1 PUSH1 0x4 PUSH1 0x0 PUSH2 0x100 EXP DUP2 SLOAD DUP2 PUSH20 0xFFFFFFFFFFFFFFFFFFFFFFFFFFFFFFFFFFFFFFFF MUL NOT AND SWAP1 DUP4 PUSH20 0xFFFFFFFFFFFFFFFFFFFFFFFFFFFFFFFFFFFFFFFF AND MUL OR SWAP1 SSTORE POP POP PUSH2 0x109 JUMP JUMPDEST PUSH1 0x0 DUP2 MLOAD SWAP1 POP PUSH2 0x88 DUP2 PUSH2 0xF2 JUMP JUMPDEST SWAP3 SWAP2 POP POP JUMP JUMPDEST PUSH1 0x0 PUSH1 0x20 DUP3 DUP5 SUB SLT ISZERO PUSH2 0xA4 JUMPI PUSH2 0xA3 PUSH2 0xED JUMP JUMPDEST JUMPDEST PUSH1 0x0 PUSH2 0xB2 DUP5 DUP3 DUP6 ADD PUSH2 0x79 JUMP JUMPDEST SWAP2 POP POP SWAP3 SWAP2 POP POP JUMP JUMPDEST PUSH1 0x0 PUSH2 0xC6 DUP3 PUSH2 0xCD JUMP JUMPDEST SWAP1 POP SWAP2 SWAP1 POP JUMP JUMPDEST PUSH1 0x0 PUSH20 0xFFFFFFFFFFFFFFFFFFFFFFFFFFFFFFFFFFFFFFFF DUP3 AND SWAP1 POP SWAP2 SWAP1 POP JUMP JUMPDEST PUSH1 0x0 DUP1 REVERT JUMPDEST PUSH2 0xFB DUP2 PUSH2 0xBB JUMP JUMPDEST DUP2 EQ PUSH2 0x106 JUMPI PUSH1 0x0 DUP1 REVERT JUMPDEST POP JUMP JUMPDEST PUSH2 0xCC3 DUP1 PUSH2 0x118 PUSH1 0x0 CODECOPY PUSH1 0x0 RETURN INVALID PUSH1 0x80 PUSH1 0x40 MSTORE CALLVALUE DUP1 ISZERO PUSH2 0x10 JUMPI PUSH1 0x0 DUP1 REVERT JUMPDEST POP PUSH1 0x4 CALLDATASIZE LT PUSH2 0xCF JUMPI PUSH1 0x0 CALLDATALOAD PUSH1 0xE0 SHR DUP1 PUSH4 0x76636D20 GT PUSH2 0x8C JUMPI DUP1 PUSH4 0xAC128F4F GT PUSH2 0x66 JUMPI DUP1 PUSH4 0xAC128F4F EQ PUSH2 0x214 JUMPI DUP1 PUSH4 0xB657DD65 EQ PUSH2 0x248 JUMPI DUP1 PUSH4 0xC4740A95 EQ PUSH2 0x278 JUMPI DUP1 PUSH4 0xF9CEE0BD EQ PUSH2 0x294 JUMPI PUSH2 0xCF JUMP JUMPDEST DUP1 PUSH4 0x76636D20 EQ PUSH2 0x1BC JUMPI DUP1 PUSH4 0x9B3E4552 EQ PUSH2 0x1DA JUMPI DUP1 PUSH4 0xA59460DC EQ PUSH2 0x1F8 JUMPI PUSH2 0xCF JUMP JUMPDEST DUP1 PUSH4 0xD988270 EQ PUSH2 0xD4 JUMPI DUP1 PUSH4 0x119B22B3 EQ PUSH2 0x104 JUMPI DUP1 PUSH4 0x443B80A1 EQ PUSH2 0x122 JUMPI DUP1 PUSH4 0x454F7B8F EQ PUSH2 0x13E JUMPI DUP1 PUSH4 0x578E3F88 EQ PUSH2 0x15C JUMPI DUP1 PUSH4 0x5BEDC390 EQ PUSH2 0x18C JUMPI JUMPDEST PUSH1 0x0 DUP1 REVERT JUMPDEST PUSH2 0xEE PUSH1 0x4 DUP1 CALLDATASIZE SUB DUP2 ADD SWAP1 PUSH2 0xE9 SWAP2 SWAP1 PUSH2 0x903 JUMP JUMPDEST PUSH2 0x2B2 JUMP JUMPDEST PUSH1 0x40 MLOAD PUSH2 0xFB SWAP2 SWAP1 PUSH2 0xA3D JUMP JUMPDEST PUSH1 0x40 MLOAD DUP1 SWAP2 SUB SWAP1 RETURN JUMPDEST PUSH2 0x10C PUSH2 0x2E3 JUMP JUMPDEST PUSH1 0x40 MLOAD PUSH2 0x119 SWAP2 SWAP1 PUSH2 0xA3D JUMP JUMPDEST PUSH1 0x40 MLOAD DUP1 SWAP2 SUB SWAP1 RETURN JUMPDEST PUSH2 0x13C PUSH1 0x4 DUP1 CALLDATASIZE SUB DUP2 ADD SWAP1 PUSH2 0x137 SWAP2 SWAP1 PUSH2 0x903 JUMP JUMPDEST PUSH2 0x2E9 JUMP JUMPDEST STOP JUMPDEST PUSH2 0x146 PUSH2 0x460 JUMP JUMPDEST PUSH1 0x40 MLOAD PUSH2 0x153 SWAP2 SWAP1 PUSH2 0xA3D JUMP JUMPDEST PUSH1 0x40 MLOAD DUP1 SWAP2 SUB SWAP1 RETURN JUMPDEST PUSH2 0x176 PUSH1 0x4 DUP1 CALLDATASIZE SUB DUP2 ADD SWAP1 PUSH2 0x171 SWAP2 SWAP1 PUSH2 0x970 JUMP JUMPDEST PUSH2 0x466 JUMP JUMPDEST PUSH1 0x40 MLOAD PUSH2 0x183 SWAP2 SWAP1 PUSH2 0xA3D JUMP JUMPDEST PUSH1 0x40 MLOAD DUP1 SWAP2 SUB SWAP1 RETURN JUMPDEST PUSH2 0x1A6 PUSH1 0x4 DUP1 CALLDATASIZE SUB DUP2 ADD SWAP1 PUSH2 0x1A1 SWAP2 SWAP1 PUSH2 0x8D6 JUMP JUMPDEST PUSH2 0x48B JUMP JUMPDEST PUSH1 0x40 MLOAD PUSH2 0x1B3 SWAP2 SWAP1 PUSH2 0xA07 JUMP JUMPDEST PUSH1 0x40 MLOAD DUP1 SWAP2 SUB SWAP1 RETURN JUMPDEST PUSH2 0x1C4 PUSH2 0x4EF JUMP JUMPDEST PUSH1 0x40 MLOAD PUSH2 0x1D1 SWAP2 SWAP1 PUSH2 0xA3D JUMP JUMPDEST PUSH1 0x40 MLOAD DUP1 SWAP2 SUB SWAP1 RETURN JUMPDEST PUSH2 0x1E2 PUSH2 0x4F5 JUMP JUMPDEST PUSH1 0x40 MLOAD PUSH2 0x1EF SWAP2 SWAP1 PUSH2 0xA22 JUMP JUMPDEST PUSH1 0x40 MLOAD DUP1 SWAP2 SUB SWAP1 RETURN JUMPDEST PUSH2 0x212 PUSH1 0x4 DUP1 CALLDATASIZE SUB DUP2 ADD SWAP1 PUSH2 0x20D SWAP2 SWAP1 PUSH2 0x903 JUMP JUMPDEST PUSH2 0x51B JUMP JUMPDEST STOP JUMPDEST PUSH2 0x22E PUSH1 0x4 DUP1 CALLDATASIZE SUB DUP2 ADD SWAP1 PUSH2 0x229 SWAP2 SWAP1 PUSH2 0x943 JUMP JUMPDEST PUSH2 0x7B8 JUMP JUMPDEST PUSH1 0x40 MLOAD PUSH2 0x23F SWAP6 SWAP5 SWAP4 SWAP3 SWAP2 SWAP1 PUSH2 0xA58 JUMP JUMPDEST PUSH1 0x40 MLOAD DUP1 SWAP2 SUB SWAP1 RETURN JUMPDEST PUSH2 0x262 PUSH1 0x4 DUP1 CALLDATASIZE SUB DUP2 ADD SWAP1 PUSH2 0x25D SWAP2 SWAP1 PUSH2 0x943 JUMP JUMPDEST PUSH2 0x80E JUMP JUMPDEST PUSH1 0x40 MLOAD PUSH2 0x26F SWAP2 SWAP1 PUSH2 0x9EC JUMP JUMPDEST PUSH1 0x40 MLOAD DUP1 SWAP2 SUB SWAP1 RETURN JUMPDEST PUSH2 0x292 PUSH1 0x4 DUP1 CALLDATASIZE SUB DUP2 ADD SWAP1 PUSH2 0x28D SWAP2 SWAP1 PUSH2 0x8D6 JUMP JUMPDEST PUSH2 0x841 JUMP JUMPDEST STOP JUMPDEST PUSH2 0x29C PUSH2 0x8A6 JUMP JUMPDEST PUSH1 0x40 MLOAD PUSH2 0x2A9 SWAP2 SWAP1 PUSH2 0xA3D JUMP JUMPDEST PUSH1 0x40 MLOAD DUP1 SWAP2 SUB SWAP1 RETURN JUMPDEST PUSH1 0x8 PUSH1 0x20 MSTORE DUP2 PUSH1 0x0 MSTORE PUSH1 0x40 PUSH1 0x0 KECCAK256 DUP2 DUP2 SLOAD DUP2 LT PUSH2 0x2CE JUMPI PUSH1 0x0 DUP1 REVERT JUMPDEST SWAP1 PUSH1 0x0 MSTORE PUSH1 0x20 PUSH1 0x0 KECCAK256 ADD PUSH1 0x0 SWAP2 POP SWAP2 POP POP SLOAD DUP2 JUMP JUMPDEST PUSH1 0x2 SLOAD DUP2 JUMP JUMPDEST PUSH1 0x0 JUMPDEST DUP2 DUP2 LT ISZERO PUSH2 0x3D9 JUMPI DUP3 PUSH1 0x6 PUSH1 0x0 DUP4 PUSH1 0x1 SLOAD PUSH2 0x307 SWAP2 SWAP1 PUSH2 0xAAB JUMP JUMPDEST DUP2 MSTORE PUSH1 0x20 ADD SWAP1 DUP2 MSTORE PUSH1 0x20 ADD PUSH1 0x0 KECCAK256 PUSH1 0x0 PUSH2 0x100 EXP DUP2 SLOAD DUP2 PUSH20 0xFFFFFFFFFFFFFFFFFFFFFFFFFFFFFFFFFFFFFFFF MUL NOT AND SWAP1 DUP4 PUSH20 0xFFFFFFFFFFFFFFFFFFFFFFFFFFFFFFFFFFFFFFFF AND MUL OR SWAP1 SSTORE POP PUSH1 0x8 PUSH1 0x0 DUP5 PUSH20 0xFFFFFFFFFFFFFFFFFFFFFFFFFFFFFFFFFFFFFFFF AND PUSH20 0xFFFFFFFFFFFFFFFFFFFFFFFFFFFFFFFFFFFFFFFF AND DUP2 MSTORE PUSH1 0x20 ADD SWAP1 DUP2 MSTORE PUSH1 0x20 ADD PUSH1 0x0 KECCAK256 DUP2 PUSH1 0x1 SLOAD PUSH2 0x3A0 SWAP2 SWAP1 PUSH2 0xAAB JUMP JUMPDEST SWAP1 DUP1 PUSH1 0x1 DUP2 SLOAD ADD DUP1 DUP3 SSTORE DUP1 SWAP2 POP POP PUSH1 0x1 SWAP1 SUB SWAP1 PUSH1 0x0 MSTORE PUSH1 0x20 PUSH1 0x0 KECCAK256 ADD PUSH1 0x0 SWAP1 SWAP2 SWAP1 SWAP2 SWAP1 SWAP2 POP SSTORE DUP1 DUP1 PUSH2 0x3D1 SWAP1 PUSH2 0xBB3 JUMP JUMPDEST SWAP2 POP POP PUSH2 0x2EC JUMP JUMPDEST POP DUP1 PUSH1 0x7 PUSH1 0x0 PUSH1 0x2 SLOAD DUP2 MSTORE PUSH1 0x20 ADD SWAP1 DUP2 MSTORE PUSH1 0x20 ADD PUSH1 0x0 KECCAK256 PUSH1 0x0 DUP5 PUSH20 0xFFFFFFFFFFFFFFFFFFFFFFFFFFFFFFFFFFFFFFFF AND PUSH20 0xFFFFFFFFFFFFFFFFFFFFFFFFFFFFFFFFFFFFFFFF AND DUP2 MSTORE PUSH1 0x20 ADD SWAP1 DUP2 MSTORE PUSH1 0x20 ADD PUSH1 0x0 KECCAK256 PUSH1 0x0 DUP3 DUP3 SLOAD PUSH2 0x43C SWAP2 SWAP1 PUSH2 0xAAB JUMP JUMPDEST SWAP3 POP POP DUP2 SWAP1 SSTORE POP DUP1 PUSH1 0x1 PUSH1 0x0 DUP3 DUP3 SLOAD PUSH2 0x455 SWAP2 SWAP1 PUSH2 0xAAB JUMP JUMPDEST SWAP3 POP POP DUP2 SWAP1 SSTORE POP POP POP JUMP JUMPDEST PUSH1 0x3 SLOAD DUP2 JUMP JUMPDEST PUSH1 0x7 PUSH1 0x20 MSTORE DUP2 PUSH1 0x0 MSTORE PUSH1 0x40 PUSH1 0x0 KECCAK256 PUSH1 0x20 MSTORE DUP1 PUSH1 0x0 MSTORE PUSH1 0x40 PUSH1 0x0 KECCAK256 PUSH1 0x0 SWAP2 POP SWAP2 POP POP SLOAD DUP2 JUMP JUMPDEST PUSH1 0x0 DUP1 PUSH1 0x7 PUSH1 0x0 PUSH1 0x2 SLOAD DUP2 MSTORE PUSH1 0x20 ADD SWAP1 DUP2 MSTORE PUSH1 0x20 ADD PUSH1 0x0 KECCAK256 PUSH1 0x0 DUP5 PUSH20 0xFFFFFFFFFFFFFFFFFFFFFFFFFFFFFFFFFFFFFFFF AND PUSH20 0xFFFFFFFFFFFFFFFFFFFFFFFFFFFFFFFFFFFFFFFF AND DUP2 MSTORE PUSH1 0x20 ADD SWAP1 DUP2 MSTORE PUSH1 0x20 ADD PUSH1 0x0 KECCAK256 SLOAD SWAP1 POP PUSH1 0x0 DUP2 GT SWAP2 POP POP SWAP2 SWAP1 POP JUMP JUMPDEST PUSH1 0x1 SLOAD DUP2 JUMP JUMPDEST PUSH1 0x4 PUSH1 0x0 SWAP1 SLOAD SWAP1 PUSH2 0x100 EXP SWAP1 DIV PUSH20 0xFFFFFFFFFFFFFFFFFFFFFFFFFFFFFFFFFFFFFFFF AND DUP2 JUMP JUMPDEST PUSH1 0x0 PUSH1 0x7 PUSH1 0x0 PUSH1 0x2 SLOAD DUP2 MSTORE PUSH1 0x20 ADD SWAP1 DUP2 MSTORE PUSH1 0x20 ADD PUSH1 0x0 KECCAK256 PUSH1 0x0 DUP5 PUSH20 0xFFFFFFFFFFFFFFFFFFFFFFFFFFFFFFFFFFFFFFFF AND PUSH20 0xFFFFFFFFFFFFFFFFFFFFFFFFFFFFFFFFFFFFFFFF AND DUP2 MSTORE PUSH1 0x20 ADD SWAP1 DUP2 MSTORE PUSH1 0x20 ADD PUSH1 0x0 KECCAK256 SLOAD SWAP1 POP PUSH1 0x0 DUP2 EQ ISZERO PUSH2 0x581 JUMPI POP PUSH2 0x7B4 JUMP JUMPDEST DUP1 DUP3 GT ISZERO PUSH2 0x58D JUMPI DUP1 SWAP2 POP JUMPDEST PUSH1 0x0 PUSH1 0x1 SWAP1 POP JUMPDEST DUP3 DUP2 GT PUSH2 0x72F JUMPI PUSH1 0x0 PUSH1 0x8 PUSH1 0x0 DUP7 PUSH20 0xFFFFFFFFFFFFFFFFFFFFFFFFFFFFFFFFFFFFFFFF AND PUSH20 0xFFFFFFFFFFFFFFFFFFFFFFFFFFFFFFFFFFFFFFFF AND DUP2 MSTORE PUSH1 0x20 ADD SWAP1 DUP2 MSTORE PUSH1 0x20 ADD PUSH1 0x0 KECCAK256 PUSH1 0x1 PUSH1 0x8 PUSH1 0x0 DUP9 PUSH20 0xFFFFFFFFFFFFFFFFFFFFFFFFFFFFFFFFFFFFFFFF AND PUSH20 0xFFFFFFFFFFFFFFFFFFFFFFFFFFFFFFFFFFFFFFFF AND DUP2 MSTORE PUSH1 0x20 ADD SWAP1 DUP2 MSTORE PUSH1 0x20 ADD PUSH1 0x0 KECCAK256 DUP1 SLOAD SWAP1 POP PUSH2 0x62B SWAP2 SWAP1 PUSH2 0xB01 JUMP JUMPDEST DUP2 SLOAD DUP2 LT PUSH2 0x63C JUMPI PUSH2 0x63B PUSH2 0xC2B JUMP JUMPDEST JUMPDEST SWAP1 PUSH1 0x0 MSTORE PUSH1 0x20 PUSH1 0x0 KECCAK256 ADD SLOAD SWAP1 POP PUSH1 0x6 PUSH1 0x0 DUP4 PUSH1 0x1 SLOAD PUSH2 0x65B SWAP2 SWAP1 PUSH2 0xB01 JUMP JUMPDEST DUP2 MSTORE PUSH1 0x20 ADD SWAP1 DUP2 MSTORE PUSH1 0x20 ADD PUSH1 0x0 KECCAK256 PUSH1 0x0 SWAP1 SLOAD SWAP1 PUSH2 0x100 EXP SWAP1 DIV PUSH20 0xFFFFFFFFFFFFFFFFFFFFFFFFFFFFFFFFFFFFFFFF AND PUSH1 0x6 PUSH1 0x0 DUP4 DUP2 MSTORE PUSH1 0x20 ADD SWAP1 DUP2 MSTORE PUSH1 0x20 ADD PUSH1 0x0 KECCAK256 PUSH1 0x0 PUSH2 0x100 EXP DUP2 SLOAD DUP2 PUSH20 0xFFFFFFFFFFFFFFFFFFFFFFFFFFFFFFFFFFFFFFFF MUL NOT AND SWAP1 DUP4 PUSH20 0xFFFFFFFFFFFFFFFFFFFFFFFFFFFFFFFFFFFFFFFF AND MUL OR SWAP1 SSTORE POP PUSH1 0x8 PUSH1 0x0 DUP7 PUSH20 0xFFFFFFFFFFFFFFFFFFFFFFFFFFFFFFFFFFFFFFFF AND PUSH20 0xFFFFFFFFFFFFFFFFFFFFFFFFFFFFFFFFFFFFFFFF AND DUP2 MSTORE PUSH1 0x20 ADD SWAP1 DUP2 MSTORE PUSH1 0x20 ADD PUSH1 0x0 KECCAK256 POP POP DUP1 DUP1 PUSH2 0x727 SWAP1 PUSH2 0xBB3 JUMP JUMPDEST SWAP2 POP POP PUSH2 0x594 JUMP JUMPDEST POP DUP2 PUSH1 0x7 PUSH1 0x0 PUSH1 0x2 SLOAD DUP2 MSTORE PUSH1 0x20 ADD SWAP1 DUP2 MSTORE PUSH1 0x20 ADD PUSH1 0x0 KECCAK256 PUSH1 0x0 DUP6 PUSH20 0xFFFFFFFFFFFFFFFFFFFFFFFFFFFFFFFFFFFFFFFF AND PUSH20 0xFFFFFFFFFFFFFFFFFFFFFFFFFFFFFFFFFFFFFFFF AND DUP2 MSTORE PUSH1 0x20 ADD SWAP1 DUP2 MSTORE PUSH1 0x20 ADD PUSH1 0x0 KECCAK256 PUSH1 0x0 DUP3 DUP3 SLOAD PUSH2 0x792 SWAP2 SWAP1 PUSH2 0xB01 JUMP JUMPDEST SWAP3 POP POP DUP2 SWAP1 SSTORE POP DUP2 PUSH1 0x1 PUSH1 0x0 DUP3 DUP3 SLOAD PUSH2 0x7AB SWAP2 SWAP1 PUSH2 0xB01 JUMP JUMPDEST SWAP3 POP POP DUP2 SWAP1 SSTORE POP POP JUMPDEST POP POP JUMP JUMPDEST PUSH1 0x5 PUSH1 0x20 MSTORE DUP1 PUSH1 0x0 MSTORE PUSH1 0x40 PUSH1 0x0 KECCAK256 PUSH1 0x0 SWAP2 POP SWAP1 POP DUP1 PUSH1 0x0 ADD SLOAD SWAP1 DUP1 PUSH1 0x1 ADD SLOAD SWAP1 DUP1 PUSH1 0x2 ADD SLOAD SWAP1 DUP1 PUSH1 0x3 ADD SLOAD SWAP1 DUP1 PUSH1 0x4 ADD PUSH1 0x0 SWAP1 SLOAD SWAP1 PUSH2 0x100 EXP SWAP1 DIV PUSH20 0xFFFFFFFFFFFFFFFFFFFFFFFFFFFFFFFFFFFFFFFF AND SWAP1 POP DUP6 JUMP JUMPDEST PUSH1 0x6 PUSH1 0x20 MSTORE DUP1 PUSH1 0x0 MSTORE PUSH1 0x40 PUSH1 0x0 KECCAK256 PUSH1 0x0 SWAP2 POP SLOAD SWAP1 PUSH2 0x100 EXP SWAP1 DIV PUSH20 0xFFFFFFFFFFFFFFFFFFFFFFFFFFFFFFFFFFFFFFFF AND DUP2 JUMP JUMPDEST PUSH1 0x0 PUSH1 0x7 PUSH1 0x0 PUSH1 0x2 SLOAD DUP2 MSTORE PUSH1 0x20 ADD SWAP1 DUP2 MSTORE PUSH1 0x20 ADD PUSH1 0x0 KECCAK256 PUSH1 0x0 DUP4 PUSH20 0xFFFFFFFFFFFFFFFFFFFFFFFFFFFFFFFFFFFFFFFF AND PUSH20 0xFFFFFFFFFFFFFFFFFFFFFFFFFFFFFFFFFFFFFFFF AND DUP2 MSTORE PUSH1 0x20 ADD SWAP1 DUP2 MSTORE PUSH1 0x20 ADD PUSH1 0x0 KECCAK256 SLOAD SWAP1 POP PUSH2 0x8A2 DUP3 DUP3 PUSH2 0x51B JUMP JUMPDEST POP POP JUMP JUMPDEST PUSH1 0x0 SLOAD DUP2 JUMP JUMPDEST PUSH1 0x0 DUP2 CALLDATALOAD SWAP1 POP PUSH2 0x8BB DUP2 PUSH2 0xC5F JUMP JUMPDEST SWAP3 SWAP2 POP POP JUMP JUMPDEST PUSH1 0x0 DUP2 CALLDATALOAD SWAP1 POP PUSH2 0x8D0 DUP2 PUSH2 0xC76 JUMP JUMPDEST SWAP3 SWAP2 POP POP JUMP JUMPDEST PUSH1 0x0 PUSH1 0x20 DUP3 DUP5 SUB SLT ISZERO PUSH2 0x8EC JUMPI PUSH2 0x8EB PUSH2 0xC5A JUMP JUMPDEST JUMPDEST PUSH1 0x0 PUSH2 0x8FA DUP5 DUP3 DUP6 ADD PUSH2 0x8AC JUMP JUMPDEST SWAP2 POP POP SWAP3 SWAP2 POP POP JUMP JUMPDEST PUSH1 0x0 DUP1 PUSH1 0x40 DUP4 DUP6 SUB SLT ISZERO PUSH2 0x91A JUMPI PUSH2 0x919 PUSH2 0xC5A JUMP JUMPDEST JUMPDEST PUSH1 0x0 PUSH2 0x928 DUP6 DUP3 DUP7 ADD PUSH2 0x8AC JUMP JUMPDEST SWAP3 POP POP PUSH1 0x20 PUSH2 0x939 DUP6 DUP3 DUP7 ADD PUSH2 0x8C1 JUMP JUMPDEST SWAP2 POP POP SWAP3 POP SWAP3 SWAP1 POP JUMP JUMPDEST PUSH1 0x0 PUSH1 0x20 DUP3 DUP5 SUB SLT ISZERO PUSH2 0x959 JUMPI PUSH2 0x958 PUSH2 0xC5A JUMP JUMPDEST JUMPDEST PUSH1 0x0 PUSH2 0x967 DUP5 DUP3 DUP6 ADD PUSH2 0x8C1 JUMP JUMPDEST SWAP2 POP POP SWAP3 SWAP2 POP POP JUMP JUMPDEST PUSH1 0x0 DUP1 PUSH1 0x40 DUP4 DUP6 SUB SLT ISZERO PUSH2 0x987 JUMPI PUSH2 0x986 PUSH2 0xC5A JUMP JUMPDEST JUMPDEST PUSH1 0x0 PUSH2 0x995 DUP6 DUP3 DUP7 ADD PUSH2 0x8C1 JUMP JUMPDEST SWAP3 POP POP PUSH1 0x20 PUSH2 0x9A6 DUP6 DUP3 DUP7 ADD PUSH2 0x8AC JUMP JUMPDEST SWAP2 POP POP SWAP3 POP SWAP3 SWAP1 POP JUMP JUMPDEST PUSH2 0x9B9 DUP2 PUSH2 0xB35 JUMP JUMPDEST DUP3 MSTORE POP POP JUMP JUMPDEST PUSH2 0x9C8 DUP2 PUSH2 0xB47 JUMP JUMPDEST DUP3 MSTORE POP POP JUMP JUMPDEST PUSH2 0x9D7 DUP2 PUSH2 0xB7D JUMP JUMPDEST DUP3 MSTORE POP POP JUMP JUMPDEST PUSH2 0x9E6 DUP2 PUSH2 0xB73 JUMP JUMPDEST DUP3 MSTORE POP POP JUMP JUMPDEST PUSH1 0x0 PUSH1 0x20 DUP3 ADD SWAP1 POP PUSH2 0xA01 PUSH1 0x0 DUP4 ADD DUP5 PUSH2 0x9B0 JUMP JUMPDEST SWAP3 SWAP2 POP POP JUMP JUMPDEST PUSH1 0x0 PUSH1 0x20 DUP3 ADD SWAP1 POP PUSH2 0xA1C PUSH1 0x0 DUP4 ADD DUP5 PUSH2 0x9BF JUMP JUMPDEST SWAP3 SWAP2 POP POP JUMP JUMPDEST PUSH1 0x0 PUSH1 0x20 DUP3 ADD SWAP1 POP PUSH2 0xA37 PUSH1 0x0 DUP4 ADD DUP5 PUSH2 0x9CE JUMP JUMPDEST SWAP3 SWAP2 POP POP JUMP JUMPDEST PUSH1 0x0 PUSH1 0x20 DUP3 ADD SWAP1 POP PUSH2 0xA52 PUSH1 0x0 DUP4 ADD DUP5 PUSH2 0x9DD JUMP JUMPDEST SWAP3 SWAP2 POP POP JUMP JUMPDEST PUSH1 0x0 PUSH1 0xA0 DUP3 ADD SWAP1 POP PUSH2 0xA6D PUSH1 0x0 DUP4 ADD DUP9 PUSH2 0x9DD JUMP JUMPDEST PUSH2 0xA7A PUSH1 0x20 DUP4 ADD DUP8 PUSH2 0x9DD JUMP JUMPDEST PUSH2 0xA87 PUSH1 0x40 DUP4 ADD DUP7 PUSH2 0x9DD JUMP JUMPDEST PUSH2 0xA94 PUSH1 0x60 DUP4 ADD DUP6 PUSH2 0x9DD JUMP JUMPDEST PUSH2 0xAA1 PUSH1 0x80 DUP4 ADD DUP5 PUSH2 0x9B0 JUMP JUMPDEST SWAP7 SWAP6 POP POP POP POP POP POP JUMP JUMPDEST PUSH1 0x0 PUSH2 0xAB6 DUP3 PUSH2 0xB73 JUMP JUMPDEST SWAP2 POP PUSH2 0xAC1 DUP4 PUSH2 0xB73 JUMP JUMPDEST SWAP3 POP DUP3 PUSH32 0xFFFFFFFFFFFFFFFFFFFFFFFFFFFFFFFFFFFFFFFFFFFFFFFFFFFFFFFFFFFFFFFF SUB DUP3 GT ISZERO PUSH2 0xAF6 JUMPI PUSH2 0xAF5 PUSH2 0xBFC JUMP JUMPDEST JUMPDEST DUP3 DUP3 ADD SWAP1 POP SWAP3 SWAP2 POP POP JUMP JUMPDEST PUSH1 0x0 PUSH2 0xB0C DUP3 PUSH2 0xB73 JUMP JUMPDEST SWAP2 POP PUSH2 0xB17 DUP4 PUSH2 0xB73 JUMP JUMPDEST SWAP3 POP DUP3 DUP3 LT ISZERO PUSH2 0xB2A JUMPI PUSH2 0xB29 PUSH2 0xBFC JUMP JUMPDEST JUMPDEST DUP3 DUP3 SUB SWAP1 POP SWAP3 SWAP2 POP POP JUMP JUMPDEST PUSH1 0x0 PUSH2 0xB40 DUP3 PUSH2 0xB53 JUMP JUMPDEST SWAP1 POP SWAP2 SWAP1 POP JUMP JUMPDEST PUSH1 0x0 DUP2 ISZERO ISZERO SWAP1 POP SWAP2 SWAP1 POP JUMP JUMPDEST PUSH1 0x0 PUSH20 0xFFFFFFFFFFFFFFFFFFFFFFFFFFFFFFFFFFFFFFFF DUP3 AND SWAP1 POP SWAP2 SWAP1 POP JUMP JUMPDEST PUSH1 0x0 DUP2 SWAP1 POP SWAP2 SWAP1 POP JUMP JUMPDEST PUSH1 0x0 PUSH2 0xB88 DUP3 PUSH2 0xB8F JUMP JUMPDEST SWAP1 POP SWAP2 SWAP1 POP JUMP JUMPDEST PUSH1 0x0 PUSH2 0xB9A DUP3 PUSH2 0xBA1 JUMP JUMPDEST SWAP1 POP SWAP2 SWAP1 POP JUMP JUMPDEST PUSH1 0x0 PUSH2 0xBAC DUP3 PUSH2 0xB53 JUMP JUMPDEST SWAP1 POP SWAP2 SWAP1 POP JUMP JUMPDEST PUSH1 0x0 PUSH2 0xBBE DUP3 PUSH2 0xB73 JUMP JUMPDEST SWAP2 POP PUSH32 0xFFFFFFFFFFFFFFFFFFFFFFFFFFFFFFFFFFFFFFFFFFFFFFFFFFFFFFFFFFFFFFFF DUP3 EQ ISZERO PUSH2 0xBF1 JUMPI PUSH2 0xBF0 PUSH2 0xBFC JUMP JUMPDEST JUMPDEST PUSH1 0x1 DUP3 ADD SWAP1 POP SWAP2 SWAP1 POP JUMP JUMPDEST PUSH32 0x4E487B7100000000000000000000000000000000000000000000000000000000 PUSH1 0x0 MSTORE PUSH1 0x11 PUSH1 0x4 MSTORE PUSH1 0x24 PUSH1 0x0 REVERT JUMPDEST PUSH32 0x4E487B7100000000000000000000000000000000000000000000000000000000 PUSH1 0x0 MSTORE PUSH1 0x32 PUSH1 0x4 MSTORE PUSH1 0x24 PUSH1 0x0 REVERT JUMPDEST PUSH1 0x0 DUP1 REVERT JUMPDEST PUSH2 0xC68 DUP2 PUSH2 0xB35 JUMP JUMPDEST DUP2 EQ PUSH2 0xC73 JUMPI PUSH1 0x0 DUP1 REVERT JUMPDEST POP JUMP JUMPDEST PUSH2 0xC7F DUP2 PUSH2 0xB73 JUMP JUMPDEST DUP2 EQ PUSH2 0xC8A JUMPI PUSH1 0x0 DUP1 REVERT JUMPDEST POP JUMP INVALID LOG2 PUSH5 0x6970667358 0x22 SLT KECCAK256 SHR DUP6 0xCB 0xCB CODESIZE 0xDE PUSH11 0x51E3F161187EB2EE1EE199 PUSH30 0xD3C1943D21FC1DFB24C713582F64736F6C63430008070033000000000000 "
				},
				"gasEstimates": {
					"creation": {
						"codeDepositCost": "653400",
						"executionCost": "infinite",
						"totalCost": "infinite"
					},
					"external": {
						"acesToken()": "2645",
						"currentJackpot()": "2517",
						"entriesIndex(address,uint256)": "infinite",
						"entriesPerRound(uint256,address)": "infinite",
						"isActiveAccount(address)": "5155",
						"removeAccount(address)": "infinite",
						"removeEntryFromWallet(address,uint256)": "infinite",
						"roundEntries()": "2452",
						"roundEntry(uint256)": "2883",
						"roundNum()": "2452",
						"roundResults(uint256)": "infinite",
						"totalPayout()": "2496",
						"updateAccount(address,uint256)": "infinite"
					}
				},
				"methodIdentifiers": {
					"acesToken()": "9b3e4552",
					"currentJackpot()": "f9cee0bd",
					"entriesIndex(address,uint256)": "0d988270",
					"entriesPerRound(uint256,address)": "578e3f88",
					"isActiveAccount(address)": "5bedc390",
					"removeAccount(address)": "c4740a95",
					"removeEntryFromWallet(address,uint256)": "a59460dc",
					"roundEntries()": "76636d20",
					"roundEntry(uint256)": "b657dd65",
					"roundNum()": "119b22b3",
					"roundResults(uint256)": "ac128f4f",
					"totalPayout()": "454f7b8f",
					"updateAccount(address,uint256)": "443b80a1"
				}
			},
			"storageLayout": {
				"storage": [
					{
						"astId": 237,
						"contract": "lotto.sol:ACELotto",
						"label": "currentJackpot",
						"offset": 0,
						"slot": "0",
						"type": "t_uint256"
					},
					{
						"astId": 239,
						"contract": "lotto.sol:ACELotto",
						"label": "roundEntries",
						"offset": 0,
						"slot": "1",
						"type": "t_uint256"
					},
					{
						"astId": 241,
						"contract": "lotto.sol:ACELotto",
						"label": "roundNum",
						"offset": 0,
						"slot": "2",
						"type": "t_uint256"
					},
					{
						"astId": 243,
						"contract": "lotto.sol:ACELotto",
						"label": "totalPayout",
						"offset": 0,
						"slot": "3",
						"type": "t_uint256"
					},
					{
						"astId": 246,
						"contract": "lotto.sol:ACELotto",
						"label": "acesToken",
						"offset": 0,
						"slot": "4",
						"type": "t_contract(IERC20)182"
					},
					{
						"astId": 262,
						"contract": "lotto.sol:ACELotto",
						"label": "roundResults",
						"offset": 0,
						"slot": "5",
						"type": "t_mapping(t_uint256,t_struct(Results)257_storage)"
					},
					{
						"astId": 266,
						"contract": "lotto.sol:ACELotto",
						"label": "roundEntry",
						"offset": 0,
						"slot": "6",
						"type": "t_mapping(t_uint256,t_address)"
					},
					{
						"astId": 272,
						"contract": "lotto.sol:ACELotto",
						"label": "entriesPerRound",
						"offset": 0,
						"slot": "7",
						"type": "t_mapping(t_uint256,t_mapping(t_address,t_uint256))"
					},
					{
						"astId": 277,
						"contract": "lotto.sol:ACELotto",
						"label": "entriesIndex",
						"offset": 0,
						"slot": "8",
						"type": "t_mapping(t_address,t_array(t_uint256)dyn_storage)"
					}
				],
				"types": {
					"t_address": {
						"encoding": "inplace",
						"label": "address",
						"numberOfBytes": "20"
					},
					"t_array(t_uint256)dyn_storage": {
						"base": "t_uint256",
						"encoding": "dynamic_array",
						"label": "uint256[]",
						"numberOfBytes": "32"
					},
					"t_contract(IERC20)182": {
						"encoding": "inplace",
						"label": "contract IERC20",
						"numberOfBytes": "20"
					},
					"t_mapping(t_address,t_array(t_uint256)dyn_storage)": {
						"encoding": "mapping",
						"key": "t_address",
						"label": "mapping(address => uint256[])",
						"numberOfBytes": "32",
						"value": "t_array(t_uint256)dyn_storage"
					},
					"t_mapping(t_address,t_uint256)": {
						"encoding": "mapping",
						"key": "t_address",
						"label": "mapping(address => uint256)",
						"numberOfBytes": "32",
						"value": "t_uint256"
					},
					"t_mapping(t_uint256,t_address)": {
						"encoding": "mapping",
						"key": "t_uint256",
						"label": "mapping(uint256 => address)",
						"numberOfBytes": "32",
						"value": "t_address"
					},
					"t_mapping(t_uint256,t_mapping(t_address,t_uint256))": {
						"encoding": "mapping",
						"key": "t_uint256",
						"label": "mapping(uint256 => mapping(address => uint256))",
						"numberOfBytes": "32",
						"value": "t_mapping(t_address,t_uint256)"
					},
					"t_mapping(t_uint256,t_struct(Results)257_storage)": {
						"encoding": "mapping",
						"key": "t_uint256",
						"label": "mapping(uint256 => struct ACELotto.Results)",
						"numberOfBytes": "32",
						"value": "t_struct(Results)257_storage"
					},
					"t_struct(Results)257_storage": {
						"encoding": "inplace",
						"label": "struct ACELotto.Results",
						"members": [
							{
								"astId": 248,
								"contract": "lotto.sol:ACELotto",
								"label": "totalEntries",
								"offset": 0,
								"slot": "0",
								"type": "t_uint256"
							},
							{
								"astId": 250,
								"contract": "lotto.sol:ACELotto",
								"label": "winningNumber",
								"offset": 0,
								"slot": "1",
								"type": "t_uint256"
							},
							{
								"astId": 252,
								"contract": "lotto.sol:ACELotto",
								"label": "payout",
								"offset": 0,
								"slot": "2",
								"type": "t_uint256"
							},
							{
								"astId": 254,
								"contract": "lotto.sol:ACELotto",
								"label": "endTime",
								"offset": 0,
								"slot": "3",
								"type": "t_uint256"
							},
							{
								"astId": 256,
								"contract": "lotto.sol:ACELotto",
								"label": "winningAddress",
								"offset": 0,
								"slot": "4",
								"type": "t_address"
							}
						],
						"numberOfBytes": "160"
					},
					"t_uint256": {
						"encoding": "inplace",
						"label": "uint256",
						"numberOfBytes": "32"
					}
				}
			},
			"userdoc": {
				"kind": "user",
				"methods": {},
				"version": 1
			}
		}
	}
}