{
	"staking.sol": {
		"AcesStaking": {
			"abi": [
				{
					"inputs": [
						{
							"internalType": "address",
							"name": "_token",
							"type": "address"
						}
					],
					"stateMutability": "nonpayable",
					"type": "constructor"
				},
				{
					"anonymous": false,
					"inputs": [
						{
							"indexed": false,
							"internalType": "address",
							"name": "user",
							"type": "address"
						},
						{
							"indexed": false,
							"internalType": "uint256",
							"name": "class",
							"type": "uint256"
						},
						{
							"indexed": false,
							"internalType": "uint256",
							"name": "amount",
							"type": "uint256"
						}
					],
					"name": "Claim",
					"type": "event"
				},
				{
					"anonymous": false,
					"inputs": [
						{
							"indexed": false,
							"internalType": "address",
							"name": "user",
							"type": "address"
						},
						{
							"indexed": false,
							"internalType": "uint256",
							"name": "class",
							"type": "uint256"
						},
						{
							"indexed": false,
							"internalType": "uint256",
							"name": "amount",
							"type": "uint256"
						}
					],
					"name": "Compound",
					"type": "event"
				},
				{
					"anonymous": false,
					"inputs": [
						{
							"indexed": false,
							"internalType": "address",
							"name": "user",
							"type": "address"
						},
						{
							"indexed": false,
							"internalType": "uint256",
							"name": "class",
							"type": "uint256"
						},
						{
							"indexed": false,
							"internalType": "uint256",
							"name": "amount",
							"type": "uint256"
						}
					],
					"name": "Deposit",
					"type": "event"
				},
				{
					"anonymous": false,
					"inputs": [
						{
							"indexed": true,
							"internalType": "address",
							"name": "previousOwner",
							"type": "address"
						},
						{
							"indexed": true,
							"internalType": "address",
							"name": "newOwner",
							"type": "address"
						}
					],
					"name": "OwnershipTransferred",
					"type": "event"
				},
				{
					"anonymous": false,
					"inputs": [
						{
							"indexed": false,
							"internalType": "address",
							"name": "account",
							"type": "address"
						}
					],
					"name": "Paused",
					"type": "event"
				},
				{
					"anonymous": false,
					"inputs": [
						{
							"indexed": false,
							"internalType": "address",
							"name": "account",
							"type": "address"
						}
					],
					"name": "Unpaused",
					"type": "event"
				},
				{
					"anonymous": false,
					"inputs": [
						{
							"indexed": false,
							"internalType": "address",
							"name": "user",
							"type": "address"
						},
						{
							"indexed": false,
							"internalType": "uint256",
							"name": "class",
							"type": "uint256"
						},
						{
							"indexed": false,
							"internalType": "uint256",
							"name": "amount",
							"type": "uint256"
						}
					],
					"name": "Withdraw",
					"type": "event"
				},
				{
					"inputs": [],
					"name": "acceptedToken",
					"outputs": [
						{
							"internalType": "contract IERC20",
							"name": "",
							"type": "address"
						}
					],
					"stateMutability": "view",
					"type": "function"
				},
				{
					"inputs": [
						{
							"internalType": "address",
							"name": "_user",
							"type": "address"
						},
						{
							"internalType": "uint256",
							"name": "_level",
							"type": "uint256"
						}
					],
					"name": "calculateRewards",
					"outputs": [
						{
							"internalType": "uint256",
							"name": "",
							"type": "uint256"
						}
					],
					"stateMutability": "view",
					"type": "function"
				},
				{
					"inputs": [
						{
							"internalType": "uint256",
							"name": "_level",
							"type": "uint256"
						}
					],
					"name": "claim",
					"outputs": [],
					"stateMutability": "nonpayable",
					"type": "function"
				},
				{
					"inputs": [
						{
							"internalType": "uint256",
							"name": "_level",
							"type": "uint256"
						}
					],
					"name": "compound",
					"outputs": [],
					"stateMutability": "nonpayable",
					"type": "function"
				},
				{
					"inputs": [
						{
							"internalType": "uint256",
							"name": "_amount",
							"type": "uint256"
						},
						{
							"internalType": "uint256",
							"name": "_level",
							"type": "uint256"
						}
					],
					"name": "deposit",
					"outputs": [],
					"stateMutability": "nonpayable",
					"type": "function"
				},
				{
					"inputs": [],
					"name": "getLevelsInfo",
					"outputs": [
						{
							"components": [
								{
									"internalType": "uint256",
									"name": "APY",
									"type": "uint256"
								},
								{
									"internalType": "uint256",
									"name": "lockPeriod",
									"type": "uint256"
								}
							],
							"internalType": "struct AcesStaking.Level",
							"name": "level0",
							"type": "tuple"
						},
						{
							"components": [
								{
									"internalType": "uint256",
									"name": "APY",
									"type": "uint256"
								},
								{
									"internalType": "uint256",
									"name": "lockPeriod",
									"type": "uint256"
								}
							],
							"internalType": "struct AcesStaking.Level",
							"name": "level1",
							"type": "tuple"
						},
						{
							"components": [
								{
									"internalType": "uint256",
									"name": "APY",
									"type": "uint256"
								},
								{
									"internalType": "uint256",
									"name": "lockPeriod",
									"type": "uint256"
								}
							],
							"internalType": "struct AcesStaking.Level",
							"name": "level2",
							"type": "tuple"
						}
					],
					"stateMutability": "view",
					"type": "function"
				},
				{
					"inputs": [
						{
							"internalType": "address",
							"name": "_user",
							"type": "address"
						}
					],
					"name": "getUserInfo",
					"outputs": [
						{
							"components": [
								{
									"internalType": "uint256",
									"name": "balance",
									"type": "uint256"
								},
								{
									"internalType": "uint256",
									"name": "started",
									"type": "uint256"
								},
								{
									"internalType": "uint256",
									"name": "unlockTime",
									"type": "uint256"
								}
							],
							"internalType": "struct AcesStaking.User",
							"name": "level0",
							"type": "tuple"
						},
						{
							"components": [
								{
									"internalType": "uint256",
									"name": "balance",
									"type": "uint256"
								},
								{
									"internalType": "uint256",
									"name": "started",
									"type": "uint256"
								},
								{
									"internalType": "uint256",
									"name": "unlockTime",
									"type": "uint256"
								}
							],
							"internalType": "struct AcesStaking.User",
							"name": "level1",
							"type": "tuple"
						},
						{
							"components": [
								{
									"internalType": "uint256",
									"name": "balance",
									"type": "uint256"
								},
								{
									"internalType": "uint256",
									"name": "started",
									"type": "uint256"
								},
								{
									"internalType": "uint256",
									"name": "unlockTime",
									"type": "uint256"
								}
							],
							"internalType": "struct AcesStaking.User",
							"name": "level2",
							"type": "tuple"
						}
					],
					"stateMutability": "view",
					"type": "function"
				},
				{
					"inputs": [
						{
							"internalType": "uint256",
							"name": "",
							"type": "uint256"
						}
					],
					"name": "levelInfo",
					"outputs": [
						{
							"internalType": "uint256",
							"name": "APY",
							"type": "uint256"
						},
						{
							"internalType": "uint256",
							"name": "lockPeriod",
							"type": "uint256"
						}
					],
					"stateMutability": "view",
					"type": "function"
				},
				{
					"inputs": [],
					"name": "owner",
					"outputs": [
						{
							"internalType": "address",
							"name": "",
							"type": "address"
						}
					],
					"stateMutability": "view",
					"type": "function"
				},
				{
					"inputs": [],
					"name": "pause",
					"outputs": [],
					"stateMutability": "nonpayable",
					"type": "function"
				},
				{
					"inputs": [],
					"name": "paused",
					"outputs": [
						{
							"internalType": "bool",
							"name": "",
							"type": "bool"
						}
					],
					"stateMutability": "view",
					"type": "function"
				},
				{
					"inputs": [],
					"name": "renounceOwnership",
					"outputs": [],
					"stateMutability": "nonpayable",
					"type": "function"
				},
				{
					"inputs": [
						{
							"internalType": "address",
							"name": "newOwner",
							"type": "address"
						}
					],
					"name": "transferOwnership",
					"outputs": [],
					"stateMutability": "nonpayable",
					"type": "function"
				},
				{
					"inputs": [],
					"name": "unpause",
					"outputs": [],
					"stateMutability": "nonpayable",
					"type": "function"
				},
				{
					"inputs": [
						{
							"internalType": "address",
							"name": "",
							"type": "address"
						},
						{
							"internalType": "uint256",
							"name": "",
							"type": "uint256"
						}
					],
					"name": "userLevelDeposit",
					"outputs": [
						{
							"internalType": "uint256",
							"name": "balance",
							"type": "uint256"
						},
						{
							"internalType": "uint256",
							"name": "started",
							"type": "uint256"
						},
						{
							"internalType": "uint256",
							"name": "unlockTime",
							"type": "uint256"
						}
					],
					"stateMutability": "view",
					"type": "function"
				},
				{
					"inputs": [
						{
							"internalType": "uint256",
							"name": "_amount",
							"type": "uint256"
						},
						{
							"internalType": "uint256",
							"name": "_level",
							"type": "uint256"
						}
					],
					"name": "withdraw",
					"outputs": [],
					"stateMutability": "nonpayable",
					"type": "function"
				}
			],
			"devdoc": {
				"kind": "dev",
				"methods": {
					"owner()": {
						"details": "Returns the address of the current owner."
					},
					"paused()": {
						"details": "Returns true if the contract is paused, and false otherwise."
					},
					"renounceOwnership()": {
						"details": "Leaves the contract without owner. It will not be possible to call `onlyOwner` functions anymore. Can only be called by the current owner. NOTE: Renouncing ownership will leave the contract without an owner, thereby removing any functionality that is only available to the owner."
					},
					"transferOwnership(address)": {
						"details": "Transfers ownership of the contract to a new account (`newOwner`). Can only be called by the current owner."
					}
				},
				"version": 1
			},
			"evm": {
				"assembly": "    /* \"staking.sol\":224:4236  contract AcesStaking is Ownable, Pausable {... */\n  mstore(0x40, 0x80)\n    /* \"staking.sol\":1055:1131  constructor(address _token ) {... */\n  callvalue\n  dup1\n  iszero\n  tag_1\n  jumpi\n  0x00\n  dup1\n  revert\ntag_1:\n  pop\n  mload(0x40)\n  sub(codesize, bytecodeSize)\n  dup1\n  bytecodeSize\n  dup4\n  codecopy\n  dup2\n  add\n  0x40\n  dup2\n  swap1\n  mstore\n  tag_2\n  swap2\n  tag_3\n  jump\t// in\ntag_2:\n    /* \"@openzeppelin/contracts/access/Ownable.sol\":921:953  _transferOwnership(_msgSender()) */\n  tag_8\n    /* \"@openzeppelin/contracts/utils/Context.sol\":719:729  msg.sender */\n  caller\n    /* \"@openzeppelin/contracts/access/Ownable.sol\":921:939  _transferOwnership */\n  tag_11\n    /* \"@openzeppelin/contracts/access/Ownable.sol\":921:953  _transferOwnership(_msgSender()) */\n  jump\t// in\ntag_8:\n    /* \"@openzeppelin/contracts/security/Pausable.sol\":991:996  false */\n  0x00\n    /* \"@openzeppelin/contracts/security/Pausable.sol\":981:996  _paused = false */\n  dup1\n  sload\n  not(shl(0xa0, 0xff))\n  and\n  swap1\n  sstore\n  0x01\n    /* \"staking.sol\":1094:1124  acceptedToken = IERC20(_token) */\n  dup1\n  sload\n  not(sub(shl(0xa0, 0x01), 0x01))\n  and\n  sub(shl(0xa0, 0x01), 0x01)\n  swap3\n  swap1\n  swap3\n  and\n  swap2\n  swap1\n  swap2\n  or\n  swap1\n  sstore\n    /* \"staking.sol\":224:4236  contract AcesStaking is Ownable, Pausable {... */\n  jump(tag_17)\n    /* \"@openzeppelin/contracts/access/Ownable.sol\":2270:2457  function _transferOwnership(address newOwner) internal virtual {... */\ntag_11:\n    /* \"@openzeppelin/contracts/access/Ownable.sol\":2343:2359  address oldOwner */\n  0x00\n    /* \"@openzeppelin/contracts/access/Ownable.sol\":2362:2368  _owner */\n  dup1\n  sload\n  sub(shl(0xa0, 0x01), 0x01)\n    /* \"@openzeppelin/contracts/access/Ownable.sol\":2378:2395  _owner = newOwner */\n  dup4\n  dup2\n  and\n  not(sub(shl(0xa0, 0x01), 0x01))\n  dup4\n  and\n  dup2\n  or\n  dup5\n  sstore\n    /* \"@openzeppelin/contracts/access/Ownable.sol\":2410:2450  OwnershipTransferred(oldOwner, newOwner) */\n  mload(0x40)\n    /* \"@openzeppelin/contracts/access/Ownable.sol\":2362:2368  _owner */\n  swap2\n  swap1\n  swap3\n  and\n  swap3\n  dup4\n  swap2\n    /* \"@openzeppelin/contracts/access/Ownable.sol\":2410:2450  OwnershipTransferred(oldOwner, newOwner) */\n  0x8be0079c531659141344cd1fd0a4f28419497f9722a3daafe3b4186f6b6457e0\n  swap2\n    /* \"@openzeppelin/contracts/access/Ownable.sol\":2343:2359  address oldOwner */\n  swap1\n    /* \"@openzeppelin/contracts/access/Ownable.sol\":2410:2450  OwnershipTransferred(oldOwner, newOwner) */\n  log3\n    /* \"@openzeppelin/contracts/access/Ownable.sol\":2333:2457  {... */\n  pop\n    /* \"@openzeppelin/contracts/access/Ownable.sol\":2270:2457  function _transferOwnership(address newOwner) internal virtual {... */\n  pop\n  jump\t// out\n    /* \"#utility.yul\":14:304   */\ntag_3:\n    /* \"#utility.yul\":84:90   */\n  0x00\n    /* \"#utility.yul\":137:139   */\n  0x20\n    /* \"#utility.yul\":125:134   */\n  dup3\n    /* \"#utility.yul\":116:123   */\n  dup5\n    /* \"#utility.yul\":112:135   */\n  sub\n    /* \"#utility.yul\":108:140   */\n  slt\n    /* \"#utility.yul\":105:157   */\n  iszero\n  tag_19\n  jumpi\n    /* \"#utility.yul\":153:154   */\n  0x00\n    /* \"#utility.yul\":150:151   */\n  dup1\n    /* \"#utility.yul\":143:155   */\n  revert\n    /* \"#utility.yul\":105:157   */\ntag_19:\n    /* \"#utility.yul\":179:195   */\n  dup2\n  mload\n  sub(shl(0xa0, 0x01), 0x01)\n    /* \"#utility.yul\":224:255   */\n  dup2\n  and\n    /* \"#utility.yul\":214:256   */\n  dup2\n  eq\n    /* \"#utility.yul\":204:274   */\n  tag_20\n  jumpi\n    /* \"#utility.yul\":270:271   */\n  0x00\n    /* \"#utility.yul\":267:268   */\n  dup1\n    /* \"#utility.yul\":260:272   */\n  revert\n    /* \"#utility.yul\":204:274   */\ntag_20:\n    /* \"#utility.yul\":293:298   */\n  swap4\n    /* \"#utility.yul\":14:304   */\n  swap3\n  pop\n  pop\n  pop\n  jump\t// out\ntag_17:\n    /* \"staking.sol\":224:4236  contract AcesStaking is Ownable, Pausable {... */\n  dataSize(sub_0)\n  dup1\n  dataOffset(sub_0)\n  0x00\n  codecopy\n  0x00\n  return\nstop\n\nsub_0: assembly {\n        /* \"staking.sol\":224:4236  contract AcesStaking is Ownable, Pausable {... */\n      mstore(0x40, 0x80)\n      callvalue\n      dup1\n      iszero\n      tag_1\n      jumpi\n      0x00\n      dup1\n      revert\n    tag_1:\n      pop\n      jumpi(tag_2, lt(calldatasize, 0x04))\n      shr(0xe0, calldataload(0x00))\n      dup1\n      0x8456cb59\n      gt\n      tag_19\n      jumpi\n      dup1\n      0xe2bbb158\n      gt\n      tag_20\n      jumpi\n      dup1\n      0xe2bbb158\n      eq\n      tag_15\n      jumpi\n      dup1\n      0xe788cee5\n      eq\n      tag_16\n      jumpi\n      dup1\n      0xedf501ad\n      eq\n      tag_17\n      jumpi\n      dup1\n      0xf2fde38b\n      eq\n      tag_18\n      jumpi\n      0x00\n      dup1\n      revert\n    tag_20:\n      dup1\n      0x8456cb59\n      eq\n      tag_11\n      jumpi\n      dup1\n      0x8da5cb5b\n      eq\n      tag_12\n      jumpi\n      dup1\n      0xaa5f7e26\n      eq\n      tag_13\n      jumpi\n      dup1\n      0xbeb8314c\n      eq\n      tag_14\n      jumpi\n      0x00\n      dup1\n      revert\n    tag_19:\n      dup1\n      0x451c3d80\n      gt\n      tag_21\n      jumpi\n      dup1\n      0x451c3d80\n      eq\n      tag_7\n      jumpi\n      dup1\n      0x5c975abb\n      eq\n      tag_8\n      jumpi\n      dup1\n      0x6386c1c7\n      eq\n      tag_9\n      jumpi\n      dup1\n      0x715018a6\n      eq\n      tag_10\n      jumpi\n      0x00\n      dup1\n      revert\n    tag_21:\n      dup1\n      0x259ee752\n      eq\n      tag_3\n      jumpi\n      dup1\n      0x379607f5\n      eq\n      tag_4\n      jumpi\n      dup1\n      0x3f4ba83a\n      eq\n      tag_5\n      jumpi\n      dup1\n      0x441a3e70\n      eq\n      tag_6\n      jumpi\n    tag_2:\n      0x00\n      dup1\n      revert\n        /* \"staking.sol\":620:688  mapping(address => mapping(uint256 => User)) public userLevelDeposit */\n    tag_3:\n      tag_22\n      tag_23\n      calldatasize\n      0x04\n      tag_24\n      jump\t// in\n    tag_23:\n      0x02\n      0x20\n      dup2\n      dup2\n      mstore\n      0x00\n      swap4\n      dup5\n      mstore\n      0x40\n      dup1\n      dup6\n      keccak256\n      swap1\n      swap2\n      mstore\n      swap2\n      dup4\n      mstore\n      swap2\n      keccak256\n      dup1\n      sload\n      0x01\n      dup3\n      add\n      sload\n      swap2\n      swap1\n      swap3\n      add\n      sload\n      dup4\n      jump\n    tag_22:\n      0x40\n      dup1\n      mload\n        /* \"#utility.yul\":7862:7887   */\n      swap4\n      dup5\n      mstore\n        /* \"#utility.yul\":7918:7920   */\n      0x20\n        /* \"#utility.yul\":7903:7921   */\n      dup5\n      add\n        /* \"#utility.yul\":7896:7930   */\n      swap3\n      swap1\n      swap3\n      mstore\n        /* \"#utility.yul\":7946:7964   */\n      swap1\n      dup3\n      add\n        /* \"#utility.yul\":7939:7973   */\n      mstore\n        /* \"#utility.yul\":7850:7852   */\n      0x60\n        /* \"#utility.yul\":7835:7853   */\n      add\n        /* \"staking.sol\":620:688  mapping(address => mapping(uint256 => User)) public userLevelDeposit */\n    tag_26:\n      mload(0x40)\n      dup1\n      swap2\n      sub\n      swap1\n      return\n        /* \"staking.sol\":2401:2821  function claim (uint256 _level) external{... */\n    tag_4:\n      tag_28\n      tag_29\n      calldatasize\n      0x04\n      tag_30\n      jump\t// in\n    tag_29:\n      tag_31\n      jump\t// in\n    tag_28:\n      stop\n        /* \"staking.sol\":1252:1316  function unpause () public onlyOwner {... */\n    tag_5:\n      tag_28\n      tag_33\n      jump\t// in\n        /* \"staking.sol\":1827:2395  function withdraw (uint256 _amount, uint256 _level) public  {... */\n    tag_6:\n      tag_28\n      tag_35\n      calldatasize\n      0x04\n      tag_36\n      jump\t// in\n    tag_35:\n      tag_37\n      jump\t// in\n        /* \"staking.sol\":317:344  IERC20 public acceptedToken */\n    tag_7:\n      sload(0x01)\n      tag_38\n      swap1\n      sub(shl(0xa0, 0x01), 0x01)\n      and\n      dup2\n      jump\n    tag_38:\n      mload(0x40)\n      sub(shl(0xa0, 0x01), 0x01)\n        /* \"#utility.yul\":1883:1915   */\n      swap1\n      swap2\n      and\n        /* \"#utility.yul\":1865:1916   */\n      dup2\n      mstore\n        /* \"#utility.yul\":1853:1855   */\n      0x20\n        /* \"#utility.yul\":1838:1856   */\n      add\n        /* \"staking.sol\":317:344  IERC20 public acceptedToken */\n      tag_26\n        /* \"#utility.yul\":1719:1922   */\n      jump\n        /* \"@openzeppelin/contracts/security/Pausable.sol\":1098:1182  function paused() public view virtual returns (bool) {... */\n    tag_8:\n        /* \"@openzeppelin/contracts/security/Pausable.sol\":1145:1149  bool */\n      0x00\n        /* \"@openzeppelin/contracts/security/Pausable.sol\":1168:1175  _paused */\n      sload\n      shl(0xa0, 0x01)\n      swap1\n      div\n      0xff\n      and\n        /* \"@openzeppelin/contracts/security/Pausable.sol\":1098:1182  function paused() public view virtual returns (bool) {... */\n      mload(0x40)\n        /* \"#utility.yul\":3459:3473   */\n      swap1\n      iszero\n        /* \"#utility.yul\":3452:3474   */\n      iszero\n        /* \"#utility.yul\":3434:3475   */\n      dup2\n      mstore\n        /* \"#utility.yul\":3422:3424   */\n      0x20\n        /* \"#utility.yul\":3407:3425   */\n      add\n        /* \"@openzeppelin/contracts/security/Pausable.sol\":1098:1182  function paused() public view virtual returns (bool) {... */\n      tag_26\n        /* \"#utility.yul\":3294:3481   */\n      jump\n        /* \"staking.sol\":3743:4014  function getUserInfo(address _user) external view returns(User memory level0, User memory level1, User memory level2){... */\n    tag_9:\n      tag_46\n      tag_47\n      calldatasize\n      0x04\n      tag_48\n      jump\t// in\n    tag_47:\n      tag_49\n      jump\t// in\n    tag_46:\n      mload(0x40)\n      tag_26\n      swap4\n      swap3\n      swap2\n      swap1\n      tag_51\n      jump\t// in\n        /* \"@openzeppelin/contracts/access/Ownable.sol\":1668:1769  function renounceOwnership() public virtual onlyOwner {... */\n    tag_10:\n      tag_28\n      tag_53\n      jump\t// in\n        /* \"staking.sol\":1182:1242  function pause () public onlyOwner {... */\n    tag_11:\n      tag_28\n      tag_55\n      jump\t// in\n        /* \"@openzeppelin/contracts/access/Ownable.sol\":1036:1121  function owner() public view virtual returns (address) {... */\n    tag_12:\n        /* \"@openzeppelin/contracts/access/Ownable.sol\":1082:1089  address */\n      0x00\n        /* \"@openzeppelin/contracts/access/Ownable.sol\":1108:1114  _owner */\n      sload\n      sub(shl(0xa0, 0x01), 0x01)\n      and\n        /* \"@openzeppelin/contracts/access/Ownable.sol\":1036:1121  function owner() public view virtual returns (address) {... */\n      jump(tag_38)\n        /* \"staking.sol\":2827:3264  function compound (uint256 _level) external{... */\n    tag_13:\n      tag_28\n      tag_61\n      calldatasize\n      0x04\n      tag_30\n      jump\t// in\n    tag_61:\n      tag_62\n      jump\t// in\n        /* \"staking.sol\":3270:3733  function calculateRewards (address _user, uint256 _level) public view returns (uint256){... */\n    tag_14:\n      tag_63\n      tag_64\n      calldatasize\n      0x04\n      tag_24\n      jump\t// in\n    tag_64:\n      tag_65\n      jump\t// in\n    tag_63:\n      mload(0x40)\n        /* \"#utility.yul\":7371:7396   */\n      swap1\n      dup2\n      mstore\n        /* \"#utility.yul\":7359:7361   */\n      0x20\n        /* \"#utility.yul\":7344:7362   */\n      add\n        /* \"staking.sol\":3270:3733  function calculateRewards (address _user, uint256 _level) public view returns (uint256){... */\n      tag_26\n        /* \"#utility.yul\":7225:7402   */\n      jump\n        /* \"staking.sol\":1323:1821  function deposit (uint256 _amount, uint256 _level) public whenNotPaused {... */\n    tag_15:\n      tag_28\n      tag_69\n      calldatasize\n      0x04\n      tag_36\n      jump\t// in\n    tag_69:\n      tag_70\n      jump\t// in\n        /* \"staking.sol\":4020:4234  function getLevelsInfo() external view returns(Level memory level0, Level memory level1, Level memory level2){... */\n    tag_16:\n      0x40\n      dup1\n      mload\n      dup1\n      dup3\n      add\n      dup3\n      mstore\n      0x00\n      dup1\n      dup3\n      mstore\n      0x20\n      swap2\n      dup3\n      add\n      dup2\n      swap1\n      mstore\n      dup3\n      mload\n      dup1\n      dup5\n      add\n      dup5\n      mstore\n      dup2\n      dup2\n      mstore\n      dup3\n      add\n      dup2\n      swap1\n      mstore\n      dup3\n      mload\n      dup1\n      dup5\n      add\n      dup5\n      mstore\n      dup2\n      dup2\n      mstore\n      dup3\n      add\n      dup2\n      swap1\n      mstore\n        /* \"staking.sol\":4139:4160  level0 = levelInfo[0] */\n      dup3\n      mload\n      dup1\n      dup5\n      add\n      dup5\n      mstore\n        /* \"staking.sol\":4148:4160  levelInfo[0] */\n      0x3617319a054d772f909f7c479a2cebe5066e836a939412e32403c99029b92eff\n        /* \"staking.sol\":4139:4160  level0 = levelInfo[0] */\n      sload\n      dup2\n      mstore\n      sload(0x3617319a054d772f909f7c479a2cebe5066e836a939412e32403c99029b92f00)\n      dup2\n      dup5\n      add\n      mstore\n        /* \"staking.sol\":4170:4191  level1 = levelInfo[1] */\n      dup4\n      mload\n      dup1\n      dup6\n      add\n      dup6\n      mstore\n        /* \"staking.sol\":4179:4191  levelInfo[1] */\n      0xa15bc60c955c405d20d9149c709e2460f1c2d9a497496a7f46004d1772c3054c\n        /* \"staking.sol\":4170:4191  level1 = levelInfo[1] */\n      sload\n      dup2\n      mstore\n      sload(0xa15bc60c955c405d20d9149c709e2460f1c2d9a497496a7f46004d1772c3054d)\n      dup2\n      dup6\n      add\n      mstore\n        /* \"staking.sol\":4220:4221  2 */\n      0x02\n        /* \"staking.sol\":4210:4222  levelInfo[2] */\n      swap1\n      swap3\n      mstore\n        /* \"staking.sol\":4148:4157  levelInfo */\n      0x03\n        /* \"staking.sol\":4210:4222  levelInfo[2] */\n      dup4\n      mstore\n        /* \"staking.sol\":4201:4222  level2 = levelInfo[2] */\n      dup4\n      mload\n      dup1\n      dup6\n      add\n      dup6\n      mstore\n        /* \"staking.sol\":4210:4222  levelInfo[2] */\n      0xc3a24b0501bd2c13a7e57f2db4369ec4c223447539fc0724a9d55ac4a06ebd4d\n        /* \"staking.sol\":4201:4222  level2 = levelInfo[2] */\n      sload\n      dup2\n      mstore\n      sload(0xc3a24b0501bd2c13a7e57f2db4369ec4c223447539fc0724a9d55ac4a06ebd4e)\n      swap4\n      dup2\n      add\n      swap4\n      swap1\n      swap4\n      mstore\n        /* \"staking.sol\":4020:4234  function getLevelsInfo() external view returns(Level memory level0, Level memory level1, Level memory level2){... */\n      swap3\n      mload\n      tag_26\n      swap4\n        /* \"staking.sol\":4139:4160  level0 = levelInfo[0] */\n      swap3\n        /* \"staking.sol\":4201:4222  level2 = levelInfo[2] */\n      swap1\n        /* \"staking.sol\":4020:4234  function getLevelsInfo() external view returns(Level memory level0, Level memory level1, Level memory level2){... */\n      tag_74\n      jump\t// in\n        /* \"staking.sol\":694:736  mapping(uint256 => Level) public levelInfo */\n    tag_17:\n      tag_75\n      tag_76\n      calldatasize\n      0x04\n      tag_30\n      jump\t// in\n    tag_76:\n      mstore(0x20, 0x03)\n      0x00\n      swap1\n      dup2\n      mstore\n      0x40\n      swap1\n      keccak256\n      dup1\n      sload\n      0x01\n      swap1\n      swap2\n      add\n      sload\n      dup3\n      jump\n    tag_75:\n      0x40\n      dup1\n      mload\n        /* \"#utility.yul\":7581:7606   */\n      swap3\n      dup4\n      mstore\n        /* \"#utility.yul\":7637:7639   */\n      0x20\n        /* \"#utility.yul\":7622:7640   */\n      dup4\n      add\n        /* \"#utility.yul\":7615:7649   */\n      swap2\n      swap1\n      swap2\n      mstore\n        /* \"#utility.yul\":7554:7572   */\n      add\n        /* \"staking.sol\":694:736  mapping(uint256 => Level) public levelInfo */\n      tag_26\n        /* \"#utility.yul\":7407:7655   */\n      jump\n        /* \"@openzeppelin/contracts/access/Ownable.sol\":1918:2116  function transferOwnership(address newOwner) public virtual onlyOwner {... */\n    tag_18:\n      tag_28\n      tag_81\n      calldatasize\n      0x04\n      tag_48\n      jump\t// in\n    tag_81:\n      tag_82\n      jump\t// in\n        /* \"staking.sol\":2401:2821  function claim (uint256 _level) external{... */\n    tag_31:\n        /* \"staking.sol\":2472:2482  msg.sender */\n      caller\n        /* \"staking.sol\":2451:2469  address _msgSender */\n      0x00\n        /* \"staking.sol\":2500:2528  userLevelDeposit[_msgSender] */\n      dup2\n      dup2\n      mstore\n        /* \"staking.sol\":2500:2516  userLevelDeposit */\n      0x02\n        /* \"staking.sol\":2500:2528  userLevelDeposit[_msgSender] */\n      0x20\n      swap1\n      dup2\n      mstore\n      0x40\n      dup1\n      dup4\n      keccak256\n        /* \"staking.sol\":2500:2536  userLevelDeposit[_msgSender][_level] */\n      dup6\n      dup5\n      mstore\n      swap1\n      swap2\n      mstore\n      swap1\n      keccak256\n        /* \"staking.sol\":2500:2544  userLevelDeposit[_msgSender][_level].balance */\n      sload\n        /* \"staking.sol\":2492:2570  require(userLevelDeposit[_msgSender][_level].balance > 0, \"No active deposit\") */\n      tag_84\n      jumpi\n      mload(0x40)\n      shl(0xe5, 0x461bcd)\n      dup2\n      mstore\n        /* \"#utility.yul\":5725:5727   */\n      0x20\n        /* \"staking.sol\":2492:2570  require(userLevelDeposit[_msgSender][_level].balance > 0, \"No active deposit\") */\n      0x04\n      dup3\n      add\n        /* \"#utility.yul\":5707:5728   */\n      mstore\n        /* \"#utility.yul\":5764:5766   */\n      0x11\n        /* \"#utility.yul\":5744:5762   */\n      0x24\n      dup3\n      add\n        /* \"#utility.yul\":5737:5767   */\n      mstore\n      shl(0x7a, 0x139bc81858dd1a5d994819195c1bdcda5d)\n        /* \"#utility.yul\":5783:5801   */\n      0x44\n      dup3\n      add\n        /* \"#utility.yul\":5776:5823   */\n      mstore\n        /* \"#utility.yul\":5840:5858   */\n      0x64\n      add\n        /* \"staking.sol\":2492:2570  require(userLevelDeposit[_msgSender][_level].balance > 0, \"No active deposit\") */\n    tag_85:\n      mload(0x40)\n      dup1\n      swap2\n      sub\n      swap1\n      revert\n    tag_84:\n        /* \"staking.sol\":2581:2596  uint256 rewards */\n      0x00\n        /* \"staking.sol\":2599:2635  calculateRewards(_msgSender, _level) */\n      tag_87\n        /* \"staking.sol\":2616:2626  _msgSender */\n      dup3\n        /* \"staking.sol\":2628:2634  _level */\n      dup5\n        /* \"staking.sol\":2599:2615  calculateRewards */\n      tag_65\n        /* \"staking.sol\":2599:2635  calculateRewards(_msgSender, _level) */\n      jump\t// in\n    tag_87:\n      sub(shl(0xa0, 0x01), 0x01)\n        /* \"staking.sol\":2646:2674  userLevelDeposit[_msgSender] */\n      dup4\n      and\n      0x00\n      swap1\n      dup2\n      mstore\n        /* \"staking.sol\":2646:2662  userLevelDeposit */\n      0x02\n        /* \"staking.sol\":2646:2674  userLevelDeposit[_msgSender] */\n      0x20\n      swap1\n      dup2\n      mstore\n      0x40\n      dup1\n      dup4\n      keccak256\n        /* \"staking.sol\":2646:2682  userLevelDeposit[_msgSender][_level] */\n      dup8\n      dup5\n      mstore\n      swap1\n      swap2\n      mstore\n      dup2\n      keccak256\n        /* \"staking.sol\":2646:2690  userLevelDeposit[_msgSender][_level].started */\n      0x01\n      add\n        /* \"staking.sol\":2646:2709  userLevelDeposit[_msgSender][_level].started += block.timestamp */\n      dup1\n      sload\n        /* \"staking.sol\":2581:2635  uint256 rewards = calculateRewards(_msgSender, _level) */\n      swap3\n      swap4\n      pop\n        /* \"staking.sol\":2694:2709  block.timestamp */\n      timestamp\n      swap3\n        /* \"staking.sol\":2646:2690  userLevelDeposit[_msgSender][_level].started */\n      swap1\n      swap2\n        /* \"staking.sol\":2646:2674  userLevelDeposit[_msgSender] */\n      swap1\n        /* \"staking.sol\":2646:2709  userLevelDeposit[_msgSender][_level].started += block.timestamp */\n      tag_88\n      swap1\n        /* \"staking.sol\":2694:2709  block.timestamp */\n      dup5\n      swap1\n        /* \"staking.sol\":2646:2709  userLevelDeposit[_msgSender][_level].started += block.timestamp */\n      tag_89\n      jump\t// in\n    tag_88:\n      swap1\n      swap2\n      sstore\n      pop\n      pop\n        /* \"staking.sol\":2720:2733  acceptedToken */\n      sload(0x01)\n        /* \"staking.sol\":2720:2763  acceptedToken.transfer(_msgSender, rewards) */\n      mload(0x40)\n      shl(0xe0, 0xa9059cbb)\n      dup2\n      mstore\n      sub(shl(0xa0, 0x01), 0x01)\n        /* \"#utility.yul\":2857:2889   */\n      dup5\n      dup2\n      and\n        /* \"staking.sol\":2720:2763  acceptedToken.transfer(_msgSender, rewards) */\n      0x04\n      dup4\n      add\n        /* \"#utility.yul\":2839:2890   */\n      mstore\n        /* \"#utility.yul\":2906:2924   */\n      0x24\n      dup3\n      add\n        /* \"#utility.yul\":2899:2933   */\n      dup5\n      swap1\n      mstore\n        /* \"staking.sol\":2720:2733  acceptedToken */\n      swap1\n      swap2\n      and\n      swap1\n        /* \"staking.sol\":2720:2742  acceptedToken.transfer */\n      0xa9059cbb\n      swap1\n        /* \"#utility.yul\":2812:2830   */\n      0x44\n      add\n        /* \"staking.sol\":2720:2763  acceptedToken.transfer(_msgSender, rewards) */\n      0x20\n      mload(0x40)\n      dup1\n      dup4\n      sub\n      dup2\n      0x00\n      dup8\n      dup1\n      extcodesize\n      iszero\n      dup1\n      iszero\n      tag_92\n      jumpi\n      0x00\n      dup1\n      revert\n    tag_92:\n      pop\n      gas\n      call\n      iszero\n      dup1\n      iszero\n      tag_94\n      jumpi\n      returndatasize\n      0x00\n      dup1\n      returndatacopy\n      revert(0x00, returndatasize)\n    tag_94:\n      pop\n      pop\n      pop\n      pop\n      mload(0x40)\n      returndatasize\n      not(0x1f)\n      0x1f\n      dup3\n      add\n      and\n      dup3\n      add\n      dup1\n      0x40\n      mstore\n      pop\n      dup2\n      add\n      swap1\n      tag_95\n      swap2\n      swap1\n      tag_96\n      jump\t// in\n    tag_95:\n      pop\n        /* \"staking.sol\":2779:2814  Claim (_msgSender, _level, rewards) */\n      0x34fcbac0073d7c3d388e51312faf357774904998eeb8fca628b9e6f65ee1cbf7\n        /* \"staking.sol\":2786:2796  _msgSender */\n      dup3\n        /* \"staking.sol\":2798:2804  _level */\n      dup5\n        /* \"staking.sol\":2806:2813  rewards */\n      dup4\n        /* \"staking.sol\":2779:2814  Claim (_msgSender, _level, rewards) */\n      mload(0x40)\n      tag_97\n      swap4\n      swap3\n      swap2\n      swap1\n      tag_126\n      jump\t// in\n    tag_97:\n      mload(0x40)\n      dup1\n      swap2\n      sub\n      swap1\n      log1\n        /* \"staking.sol\":2441:2821  {... */\n      pop\n      pop\n        /* \"staking.sol\":2401:2821  function claim (uint256 _level) external{... */\n      pop\n      jump\t// out\n        /* \"staking.sol\":1252:1316  function unpause () public onlyOwner {... */\n    tag_33:\n        /* \"@openzeppelin/contracts/access/Ownable.sol\":1082:1089  address */\n      0x00\n        /* \"@openzeppelin/contracts/access/Ownable.sol\":1108:1114  _owner */\n      sload\n      sub(shl(0xa0, 0x01), 0x01)\n      and\n        /* \"@openzeppelin/contracts/utils/Context.sol\":719:729  msg.sender */\n      caller\n        /* \"@openzeppelin/contracts/access/Ownable.sol\":1248:1271  owner() == _msgSender() */\n      eq\n        /* \"@openzeppelin/contracts/access/Ownable.sol\":1240:1308  require(owner() == _msgSender(), \"Ownable: caller is not the owner\") */\n      tag_103\n      jumpi\n      mload(0x40)\n      shl(0xe5, 0x461bcd)\n      dup2\n      mstore\n      0x04\n      add\n      tag_85\n      swap1\n      tag_105\n      jump\t// in\n    tag_103:\n        /* \"staking.sol\":1299:1309  _unpause() */\n      tag_107\n        /* \"staking.sol\":1299:1307  _unpause */\n      tag_108\n        /* \"staking.sol\":1299:1309  _unpause() */\n      jump\t// in\n    tag_107:\n        /* \"staking.sol\":1252:1316  function unpause () public onlyOwner {... */\n      jump\t// out\n        /* \"staking.sol\":1827:2395  function withdraw (uint256 _amount, uint256 _level) public  {... */\n    tag_37:\n        /* \"staking.sol\":1918:1928  msg.sender */\n      caller\n        /* \"staking.sol\":1897:1915  address _msgSender */\n      0x00\n        /* \"staking.sol\":1946:1974  userLevelDeposit[_msgSender] */\n      dup2\n      dup2\n      mstore\n        /* \"staking.sol\":1946:1962  userLevelDeposit */\n      0x02\n        /* \"staking.sol\":1946:1974  userLevelDeposit[_msgSender] */\n      0x20\n      swap1\n      dup2\n      mstore\n      0x40\n      dup1\n      dup4\n      keccak256\n        /* \"staking.sol\":1946:1982  userLevelDeposit[_msgSender][_level] */\n      dup6\n      dup5\n      mstore\n      swap1\n      swap2\n      mstore\n      swap1\n      keccak256\n        /* \"staking.sol\":1946:1990  userLevelDeposit[_msgSender][_level].balance */\n      sload\n        /* \"staking.sol\":1946:2001  userLevelDeposit[_msgSender][_level].balance >= _amount */\n      dup4\n      gt\n      iszero\n        /* \"staking.sol\":1938:2024  require(userLevelDeposit[_msgSender][_level].balance >= _amount, \"Not enough deposit\") */\n      tag_110\n      jumpi\n      mload(0x40)\n      shl(0xe5, 0x461bcd)\n      dup2\n      mstore\n        /* \"#utility.yul\":6071:6073   */\n      0x20\n        /* \"staking.sol\":1938:2024  require(userLevelDeposit[_msgSender][_level].balance >= _amount, \"Not enough deposit\") */\n      0x04\n      dup3\n      add\n        /* \"#utility.yul\":6053:6074   */\n      mstore\n        /* \"#utility.yul\":6110:6112   */\n      0x12\n        /* \"#utility.yul\":6090:6108   */\n      0x24\n      dup3\n      add\n        /* \"#utility.yul\":6083:6113   */\n      mstore\n      shl(0x72, 0x139bdd08195b9bdd59da0819195c1bdcda5d)\n        /* \"#utility.yul\":6129:6147   */\n      0x44\n      dup3\n      add\n        /* \"#utility.yul\":6122:6170   */\n      mstore\n        /* \"#utility.yul\":6187:6205   */\n      0x64\n      add\n        /* \"staking.sol\":1938:2024  require(userLevelDeposit[_msgSender][_level].balance >= _amount, \"Not enough deposit\") */\n      tag_85\n        /* \"#utility.yul\":5869:6211   */\n      jump\n        /* \"staking.sol\":1938:2024  require(userLevelDeposit[_msgSender][_level].balance >= _amount, \"Not enough deposit\") */\n    tag_110:\n      sub(shl(0xa0, 0x01), 0x01)\n        /* \"staking.sol\":2042:2070  userLevelDeposit[_msgSender] */\n      dup2\n      and\n      0x00\n      swap1\n      dup2\n      mstore\n        /* \"staking.sol\":2042:2058  userLevelDeposit */\n      0x02\n        /* \"staking.sol\":2042:2070  userLevelDeposit[_msgSender] */\n      0x20\n      dup2\n      dup2\n      mstore\n      0x40\n      dup1\n      dup5\n      keccak256\n        /* \"staking.sol\":2042:2078  userLevelDeposit[_msgSender][_level] */\n      dup7\n      dup6\n      mstore\n      swap1\n      swap2\n      mstore\n      swap1\n      swap2\n      keccak256\n        /* \"staking.sol\":2042:2089  userLevelDeposit[_msgSender][_level].unlockTime */\n      add\n      sload\n        /* \"staking.sol\":2093:2108  block.timestamp */\n      timestamp\n      lt\n        /* \"staking.sol\":2042:2108  userLevelDeposit[_msgSender][_level].unlockTime <= block.timestamp */\n      iszero\n        /* \"staking.sol\":2034:2137  require(userLevelDeposit[_msgSender][_level].unlockTime <= block.timestamp, \"Deposit not unlocked yet\") */\n      tag_113\n      jumpi\n      mload(0x40)\n      shl(0xe5, 0x461bcd)\n      dup2\n      mstore\n        /* \"#utility.yul\":4666:4668   */\n      0x20\n        /* \"staking.sol\":2034:2137  require(userLevelDeposit[_msgSender][_level].unlockTime <= block.timestamp, \"Deposit not unlocked yet\") */\n      0x04\n      dup3\n      add\n        /* \"#utility.yul\":4648:4669   */\n      mstore\n        /* \"#utility.yul\":4705:4707   */\n      0x18\n        /* \"#utility.yul\":4685:4703   */\n      0x24\n      dup3\n      add\n        /* \"#utility.yul\":4678:4708   */\n      mstore\n        /* \"#utility.yul\":4744:4770   */\n      0x4465706f736974206e6f7420756e6c6f636b6564207965740000000000000000\n        /* \"#utility.yul\":4724:4742   */\n      0x44\n      dup3\n      add\n        /* \"#utility.yul\":4717:4771   */\n      mstore\n        /* \"#utility.yul\":4788:4806   */\n      0x64\n      add\n        /* \"staking.sol\":2034:2137  require(userLevelDeposit[_msgSender][_level].unlockTime <= block.timestamp, \"Deposit not unlocked yet\") */\n      tag_85\n        /* \"#utility.yul\":4464:4812   */\n      jump\n        /* \"staking.sol\":2034:2137  require(userLevelDeposit[_msgSender][_level].unlockTime <= block.timestamp, \"Deposit not unlocked yet\") */\n    tag_113:\n        /* \"staking.sol\":2148:2163  uint256 rewards */\n      0x00\n        /* \"staking.sol\":2166:2202  calculateRewards(_msgSender, _level) */\n      tag_116\n        /* \"staking.sol\":2183:2193  _msgSender */\n      dup3\n        /* \"staking.sol\":2195:2201  _level */\n      dup5\n        /* \"staking.sol\":2166:2182  calculateRewards */\n      tag_65\n        /* \"staking.sol\":2166:2202  calculateRewards(_msgSender, _level) */\n      jump\t// in\n    tag_116:\n      sub(shl(0xa0, 0x01), 0x01)\n        /* \"staking.sol\":2221:2249  userLevelDeposit[_msgSender] */\n      dup4\n      and\n      0x00\n      swap1\n      dup2\n      mstore\n        /* \"staking.sol\":2221:2237  userLevelDeposit */\n      0x02\n        /* \"staking.sol\":2221:2249  userLevelDeposit[_msgSender] */\n      0x20\n      swap1\n      dup2\n      mstore\n      0x40\n      dup1\n      dup4\n      keccak256\n        /* \"staking.sol\":2221:2257  userLevelDeposit[_msgSender][_level] */\n      dup8\n      dup5\n      mstore\n      swap1\n      swap2\n      mstore\n      dup2\n      keccak256\n        /* \"staking.sol\":2221:2276  userLevelDeposit[_msgSender][_level].balance -= _amount */\n      dup1\n      sload\n        /* \"staking.sol\":2148:2202  uint256 rewards = calculateRewards(_msgSender, _level) */\n      swap3\n      swap4\n      pop\n        /* \"staking.sol\":2269:2276  _amount */\n      dup7\n      swap3\n        /* \"staking.sol\":2221:2257  userLevelDeposit[_msgSender][_level] */\n      swap1\n      swap2\n        /* \"staking.sol\":2221:2249  userLevelDeposit[_msgSender] */\n      swap1\n        /* \"staking.sol\":2221:2276  userLevelDeposit[_msgSender][_level].balance -= _amount */\n      tag_117\n      swap1\n        /* \"staking.sol\":2269:2276  _amount */\n      dup5\n      swap1\n        /* \"staking.sol\":2221:2276  userLevelDeposit[_msgSender][_level].balance -= _amount */\n      tag_118\n      jump\t// in\n    tag_117:\n      swap1\n      swap2\n      sstore\n      pop\n      pop\n        /* \"staking.sol\":2287:2300  acceptedToken */\n      and(sub(shl(0xa0, 0x01), 0x01), sload(0x01))\n        /* \"staking.sol\":2287:2309  acceptedToken.transfer */\n      0xa9059cbb\n        /* \"staking.sol\":2310:2320  _msgSender */\n      dup4\n        /* \"staking.sol\":2322:2339  _amount + rewards */\n      tag_119\n        /* \"staking.sol\":2332:2339  rewards */\n      dup5\n        /* \"staking.sol\":2322:2329  _amount */\n      dup9\n        /* \"staking.sol\":2322:2339  _amount + rewards */\n      tag_89\n      jump\t// in\n    tag_119:\n        /* \"staking.sol\":2287:2340  acceptedToken.transfer(_msgSender, _amount + rewards) */\n      mload(0x40)\n      not(sub(shl(0xe0, 0x01), 0x01))\n      0xe0\n      dup6\n      swap1\n      shl\n      and\n      dup2\n      mstore\n      sub(shl(0xa0, 0x01), 0x01)\n        /* \"#utility.yul\":2857:2889   */\n      swap1\n      swap3\n      and\n        /* \"staking.sol\":2287:2340  acceptedToken.transfer(_msgSender, _amount + rewards) */\n      0x04\n      dup4\n      add\n        /* \"#utility.yul\":2839:2890   */\n      mstore\n        /* \"#utility.yul\":2906:2924   */\n      0x24\n      dup3\n      add\n        /* \"#utility.yul\":2899:2933   */\n      mstore\n        /* \"#utility.yul\":2812:2830   */\n      0x44\n      add\n        /* \"staking.sol\":2287:2340  acceptedToken.transfer(_msgSender, _amount + rewards) */\n      0x20\n      mload(0x40)\n      dup1\n      dup4\n      sub\n      dup2\n      0x00\n      dup8\n      dup1\n      extcodesize\n      iszero\n      dup1\n      iszero\n      tag_121\n      jumpi\n      0x00\n      dup1\n      revert\n    tag_121:\n      pop\n      gas\n      call\n      iszero\n      dup1\n      iszero\n      tag_123\n      jumpi\n      returndatasize\n      0x00\n      dup1\n      returndatacopy\n      revert(0x00, returndatasize)\n    tag_123:\n      pop\n      pop\n      pop\n      pop\n      mload(0x40)\n      returndatasize\n      not(0x1f)\n      0x1f\n      dup3\n      add\n      and\n      dup3\n      add\n      dup1\n      0x40\n      mstore\n      pop\n      dup2\n      add\n      swap1\n      tag_124\n      swap2\n      swap1\n      tag_96\n      jump\t// in\n    tag_124:\n      pop\n        /* \"staking.sol\":2356:2388  Withdraw(_msgSender, 0, _amount) */\n      0xf279e6a1f5e320cca91135676d9cb6e44ca8a08c0b88342bcdb1144f6511b568\n        /* \"staking.sol\":2365:2375  _msgSender */\n      dup3\n        /* \"staking.sol\":2377:2378  0 */\n      0x00\n        /* \"staking.sol\":2380:2387  _amount */\n      dup7\n        /* \"staking.sol\":2356:2388  Withdraw(_msgSender, 0, _amount) */\n      mload(0x40)\n      tag_125\n      swap4\n      swap3\n      swap2\n      swap1\n      tag_126\n      jump\t// in\n    tag_125:\n      mload(0x40)\n      dup1\n      swap2\n      sub\n      swap1\n      log1\n        /* \"staking.sol\":1887:2395  {... */\n      pop\n      pop\n        /* \"staking.sol\":1827:2395  function withdraw (uint256 _amount, uint256 _level) public  {... */\n      pop\n      pop\n      jump\t// out\n        /* \"staking.sol\":3743:4014  function getUserInfo(address _user) external view returns(User memory level0, User memory level1, User memory level2){... */\n    tag_49:\n        /* \"staking.sol\":3801:3819  User memory level0 */\n      tag_128\n      mload(0x40)\n      dup1\n      0x60\n      add\n      0x40\n      mstore\n      dup1\n      0x00\n      dup2\n      mstore\n      0x20\n      add\n      0x00\n      dup2\n      mstore\n      0x20\n      add\n      0x00\n      dup2\n      mstore\n      pop\n      swap1\n      jump\n    tag_128:\n        /* \"staking.sol\":3821:3839  User memory level1 */\n      tag_130\n      mload(0x40)\n      dup1\n      0x60\n      add\n      0x40\n      mstore\n      dup1\n      0x00\n      dup2\n      mstore\n      0x20\n      add\n      0x00\n      dup2\n      mstore\n      0x20\n      add\n      0x00\n      dup2\n      mstore\n      pop\n      swap1\n      jump\n    tag_130:\n        /* \"staking.sol\":3841:3859  User memory level2 */\n      tag_131\n      mload(0x40)\n      dup1\n      0x60\n      add\n      0x40\n      mstore\n      dup1\n      0x00\n      dup2\n      mstore\n      0x20\n      add\n      0x00\n      dup2\n      mstore\n      0x20\n      add\n      0x00\n      dup2\n      mstore\n      pop\n      swap1\n      jump\n    tag_131:\n      pop\n      pop\n      pop\n      sub(shl(0xa0, 0x01), 0x01)\n        /* \"staking.sol\":3879:3902  userLevelDeposit[_user] */\n      and\n      0x00\n      swap1\n      dup2\n      mstore\n        /* \"staking.sol\":3879:3895  userLevelDeposit */\n      0x02\n        /* \"staking.sol\":3879:3902  userLevelDeposit[_user] */\n      0x20\n      dup2\n      dup2\n      mstore\n      0x40\n      dup1\n      dup5\n      keccak256\n        /* \"staking.sol\":3879:3905  userLevelDeposit[_user][0] */\n      dup5\n      dup1\n      mstore\n      dup1\n      dup4\n      mstore\n      dup2\n      dup6\n      keccak256\n        /* \"staking.sol\":3870:3905  level0 = userLevelDeposit[_user][0] */\n      dup3\n      mload\n      0x60\n      dup1\n      dup3\n      add\n      dup6\n      mstore\n      dup3\n      sload\n      dup3\n      mstore\n      0x01\n      dup1\n      dup5\n      add\n      sload\n      dup4\n      dup9\n      add\n      mstore\n      swap3\n      dup8\n      add\n      sload\n      dup3\n      dup7\n      add\n      mstore\n        /* \"staking.sol\":3924:3950  userLevelDeposit[_user][1] */\n      dup3\n      dup9\n      mstore\n      dup4\n      dup7\n      mstore\n      dup5\n      dup9\n      keccak256\n        /* \"staking.sol\":3915:3950  level1 = userLevelDeposit[_user][1] */\n      dup6\n      mload\n      dup1\n      dup4\n      add\n      dup8\n      mstore\n      dup2\n      sload\n      dup2\n      mstore\n      dup2\n      dup6\n      add\n      sload\n      dup2\n      dup10\n      add\n      mstore\n      swap1\n      dup9\n      add\n      sload\n      dup2\n      dup8\n      add\n      mstore\n        /* \"staking.sol\":3969:3995  userLevelDeposit[_user][2] */\n      dup8\n      dup10\n      mstore\n      swap4\n      dup7\n      mstore\n      swap7\n      dup5\n      swap1\n      keccak256\n        /* \"staking.sol\":3960:3995  level2 = userLevelDeposit[_user][2] */\n      dup5\n      mload\n      swap8\n      dup9\n      add\n      dup6\n      mstore\n      dup1\n      sload\n      dup9\n      mstore\n      swap2\n      dup3\n      add\n      sload\n      swap5\n      dup8\n      add\n      swap5\n      swap1\n      swap5\n      mstore\n      swap1\n      swap4\n      add\n      sload\n      swap1\n      dup5\n      add\n      mstore\n        /* \"staking.sol\":3870:3905  level0 = userLevelDeposit[_user][0] */\n      swap3\n        /* \"staking.sol\":3915:3950  level1 = userLevelDeposit[_user][1] */\n      swap1\n      swap2\n        /* \"staking.sol\":3960:3995  level2 = userLevelDeposit[_user][2] */\n      swap1\n        /* \"staking.sol\":3743:4014  function getUserInfo(address _user) external view returns(User memory level0, User memory level1, User memory level2){... */\n      jump\t// out\n        /* \"@openzeppelin/contracts/access/Ownable.sol\":1668:1769  function renounceOwnership() public virtual onlyOwner {... */\n    tag_53:\n        /* \"@openzeppelin/contracts/access/Ownable.sol\":1082:1089  address */\n      0x00\n        /* \"@openzeppelin/contracts/access/Ownable.sol\":1108:1114  _owner */\n      sload\n      sub(shl(0xa0, 0x01), 0x01)\n      and\n        /* \"@openzeppelin/contracts/utils/Context.sol\":719:729  msg.sender */\n      caller\n        /* \"@openzeppelin/contracts/access/Ownable.sol\":1248:1271  owner() == _msgSender() */\n      eq\n        /* \"@openzeppelin/contracts/access/Ownable.sol\":1240:1308  require(owner() == _msgSender(), \"Ownable: caller is not the owner\") */\n      tag_136\n      jumpi\n      mload(0x40)\n      shl(0xe5, 0x461bcd)\n      dup2\n      mstore\n      0x04\n      add\n      tag_85\n      swap1\n      tag_105\n      jump\t// in\n    tag_136:\n        /* \"@openzeppelin/contracts/access/Ownable.sol\":1732:1762  _transferOwnership(address(0)) */\n      tag_107\n        /* \"@openzeppelin/contracts/access/Ownable.sol\":1759:1760  0 */\n      0x00\n        /* \"@openzeppelin/contracts/access/Ownable.sol\":1732:1750  _transferOwnership */\n      tag_140\n        /* \"@openzeppelin/contracts/access/Ownable.sol\":1732:1762  _transferOwnership(address(0)) */\n      jump\t// in\n        /* \"staking.sol\":1182:1242  function pause () public onlyOwner {... */\n    tag_55:\n        /* \"@openzeppelin/contracts/access/Ownable.sol\":1082:1089  address */\n      0x00\n        /* \"@openzeppelin/contracts/access/Ownable.sol\":1108:1114  _owner */\n      sload\n      sub(shl(0xa0, 0x01), 0x01)\n      and\n        /* \"@openzeppelin/contracts/utils/Context.sol\":719:729  msg.sender */\n      caller\n        /* \"@openzeppelin/contracts/access/Ownable.sol\":1248:1271  owner() == _msgSender() */\n      eq\n        /* \"@openzeppelin/contracts/access/Ownable.sol\":1240:1308  require(owner() == _msgSender(), \"Ownable: caller is not the owner\") */\n      tag_144\n      jumpi\n      mload(0x40)\n      shl(0xe5, 0x461bcd)\n      dup2\n      mstore\n      0x04\n      add\n      tag_85\n      swap1\n      tag_105\n      jump\t// in\n    tag_144:\n        /* \"staking.sol\":1227:1235  _pause() */\n      tag_107\n        /* \"staking.sol\":1227:1233  _pause */\n      tag_148\n        /* \"staking.sol\":1227:1235  _pause() */\n      jump\t// in\n        /* \"staking.sol\":2827:3264  function compound (uint256 _level) external{... */\n    tag_62:\n        /* \"staking.sol\":2901:2911  msg.sender */\n      caller\n        /* \"staking.sol\":2880:2898  address _msgSender */\n      0x00\n        /* \"staking.sol\":2929:2957  userLevelDeposit[_msgSender] */\n      dup2\n      dup2\n      mstore\n        /* \"staking.sol\":2929:2945  userLevelDeposit */\n      0x02\n        /* \"staking.sol\":2929:2957  userLevelDeposit[_msgSender] */\n      0x20\n      swap1\n      dup2\n      mstore\n      0x40\n      dup1\n      dup4\n      keccak256\n        /* \"staking.sol\":2929:2965  userLevelDeposit[_msgSender][_level] */\n      dup6\n      dup5\n      mstore\n      swap1\n      swap2\n      mstore\n      swap1\n      keccak256\n        /* \"staking.sol\":2929:2973  userLevelDeposit[_msgSender][_level].balance */\n      sload\n        /* \"staking.sol\":2921:2999  require(userLevelDeposit[_msgSender][_level].balance > 0, \"No active deposit\") */\n      tag_151\n      jumpi\n      mload(0x40)\n      shl(0xe5, 0x461bcd)\n      dup2\n      mstore\n        /* \"#utility.yul\":5725:5727   */\n      0x20\n        /* \"staking.sol\":2921:2999  require(userLevelDeposit[_msgSender][_level].balance > 0, \"No active deposit\") */\n      0x04\n      dup3\n      add\n        /* \"#utility.yul\":5707:5728   */\n      mstore\n        /* \"#utility.yul\":5764:5766   */\n      0x11\n        /* \"#utility.yul\":5744:5762   */\n      0x24\n      dup3\n      add\n        /* \"#utility.yul\":5737:5767   */\n      mstore\n      shl(0x7a, 0x139bc81858dd1a5d994819195c1bdcda5d)\n        /* \"#utility.yul\":5783:5801   */\n      0x44\n      dup3\n      add\n        /* \"#utility.yul\":5776:5823   */\n      mstore\n        /* \"#utility.yul\":5840:5858   */\n      0x64\n      add\n        /* \"staking.sol\":2921:2999  require(userLevelDeposit[_msgSender][_level].balance > 0, \"No active deposit\") */\n      tag_85\n        /* \"#utility.yul\":5523:5864   */\n      jump\n        /* \"staking.sol\":2921:2999  require(userLevelDeposit[_msgSender][_level].balance > 0, \"No active deposit\") */\n    tag_151:\n        /* \"staking.sol\":3010:3025  uint256 rewards */\n      0x00\n        /* \"staking.sol\":3028:3064  calculateRewards(_msgSender, _level) */\n      tag_153\n        /* \"staking.sol\":3045:3055  _msgSender */\n      dup3\n        /* \"staking.sol\":3057:3063  _level */\n      dup5\n        /* \"staking.sol\":3028:3044  calculateRewards */\n      tag_65\n        /* \"staking.sol\":3028:3064  calculateRewards(_msgSender, _level) */\n      jump\t// in\n    tag_153:\n      sub(shl(0xa0, 0x01), 0x01)\n        /* \"staking.sol\":3075:3103  userLevelDeposit[_msgSender] */\n      dup4\n      and\n      0x00\n      swap1\n      dup2\n      mstore\n        /* \"staking.sol\":3075:3091  userLevelDeposit */\n      0x02\n        /* \"staking.sol\":3075:3103  userLevelDeposit[_msgSender] */\n      0x20\n      swap1\n      dup2\n      mstore\n      0x40\n      dup1\n      dup4\n      keccak256\n        /* \"staking.sol\":3075:3111  userLevelDeposit[_msgSender][_level] */\n      dup8\n      dup5\n      mstore\n      swap1\n      swap2\n      mstore\n      dup2\n      keccak256\n        /* \"staking.sol\":3075:3130  userLevelDeposit[_msgSender][_level].balance += rewards */\n      dup1\n      sload\n        /* \"staking.sol\":3010:3064  uint256 rewards = calculateRewards(_msgSender, _level) */\n      swap3\n      swap4\n      pop\n      dup4\n      swap3\n        /* \"staking.sol\":3075:3111  userLevelDeposit[_msgSender][_level] */\n      swap1\n      swap2\n        /* \"staking.sol\":3075:3103  userLevelDeposit[_msgSender] */\n      swap1\n        /* \"staking.sol\":3075:3130  userLevelDeposit[_msgSender][_level].balance += rewards */\n      tag_154\n      swap1\n        /* \"staking.sol\":3010:3064  uint256 rewards = calculateRewards(_msgSender, _level) */\n      dup5\n      swap1\n        /* \"staking.sol\":3075:3130  userLevelDeposit[_msgSender][_level].balance += rewards */\n      tag_89\n      jump\t// in\n    tag_154:\n      swap1\n      swap2\n      sstore\n      pop\n      pop\n      sub(shl(0xa0, 0x01), 0x01)\n        /* \"staking.sol\":3140:3168  userLevelDeposit[_msgSender] */\n      dup3\n      and\n      0x00\n      swap1\n      dup2\n      mstore\n        /* \"staking.sol\":3140:3156  userLevelDeposit */\n      0x02\n        /* \"staking.sol\":3140:3168  userLevelDeposit[_msgSender] */\n      0x20\n      swap1\n      dup2\n      mstore\n      0x40\n      dup1\n      dup4\n      keccak256\n        /* \"staking.sol\":3140:3176  userLevelDeposit[_msgSender][_level] */\n      dup7\n      dup5\n      mstore\n      swap1\n      swap2\n      mstore\n      dup2\n      keccak256\n        /* \"staking.sol\":3140:3184  userLevelDeposit[_msgSender][_level].started */\n      0x01\n      add\n        /* \"staking.sol\":3140:3203  userLevelDeposit[_msgSender][_level].started += block.timestamp */\n      dup1\n      sload\n        /* \"staking.sol\":3188:3203  block.timestamp */\n      timestamp\n      swap3\n        /* \"staking.sol\":3140:3168  userLevelDeposit[_msgSender] */\n      swap1\n        /* \"staking.sol\":3140:3203  userLevelDeposit[_msgSender][_level].started += block.timestamp */\n      tag_155\n      swap1\n        /* \"staking.sol\":3188:3203  block.timestamp */\n      dup5\n      swap1\n        /* \"staking.sol\":3140:3203  userLevelDeposit[_msgSender][_level].started += block.timestamp */\n      tag_89\n      jump\t// in\n    tag_155:\n      swap1\n      swap2\n      sstore\n      pop\n      pop\n        /* \"staking.sol\":3219:3257  Compound (_msgSender, _level, rewards) */\n      mload(0x40)\n      0x0e311a2c6dbfb0153ec3a8a5bdca09070b3e5f60768fdc10a20453f38d186873\n      swap1\n      tag_97\n      swap1\n        /* \"staking.sol\":3229:3239  _msgSender */\n      dup5\n      swap1\n        /* \"staking.sol\":3241:3247  _level */\n      dup7\n      swap1\n        /* \"staking.sol\":3249:3256  rewards */\n      dup6\n      swap1\n        /* \"staking.sol\":3219:3257  Compound (_msgSender, _level, rewards) */\n      tag_126\n      jump\t// in\n        /* \"staking.sol\":3270:3733  function calculateRewards (address _user, uint256 _level) public view returns (uint256){... */\n    tag_65:\n      sub(shl(0xa0, 0x01), 0x01)\n        /* \"staking.sol\":3406:3429  userLevelDeposit[_user] */\n      dup3\n      and\n        /* \"staking.sol\":3349:3356  uint256 */\n      0x00\n        /* \"staking.sol\":3406:3429  userLevelDeposit[_user] */\n      swap1\n      dup2\n      mstore\n        /* \"staking.sol\":3406:3422  userLevelDeposit */\n      0x02\n        /* \"staking.sol\":3406:3429  userLevelDeposit[_user] */\n      0x20\n      swap1\n      dup2\n      mstore\n      0x40\n      dup1\n      dup4\n      keccak256\n        /* \"staking.sol\":3406:3437  userLevelDeposit[_user][_level] */\n      dup5\n      dup5\n      mstore\n      swap1\n      swap2\n      mstore\n      dup2\n      keccak256\n        /* \"staking.sol\":3406:3445  userLevelDeposit[_user][_level].started */\n      0x01\n      add\n      sload\n        /* \"staking.sol\":3349:3356  uint256 */\n      dup2\n      swap1\n        /* \"staking.sol\":3388:3445  block.timestamp - userLevelDeposit[_user][_level].started */\n      tag_158\n      swap1\n        /* \"staking.sol\":3388:3403  block.timestamp */\n      timestamp\n        /* \"staking.sol\":3388:3445  block.timestamp - userLevelDeposit[_user][_level].started */\n      tag_118\n      jump\t// in\n    tag_158:\n      sub(shl(0xa0, 0x01), 0x01)\n        /* \"staking.sol\":3473:3496  userLevelDeposit[_user] */\n      dup6\n      and\n        /* \"staking.sol\":3455:3470  uint256 balance */\n      0x00\n        /* \"staking.sol\":3473:3496  userLevelDeposit[_user] */\n      swap1\n      dup2\n      mstore\n        /* \"staking.sol\":3473:3489  userLevelDeposit */\n      0x02\n        /* \"staking.sol\":3473:3496  userLevelDeposit[_user] */\n      0x20\n      swap1\n      dup2\n      mstore\n      0x40\n      dup1\n      dup4\n      keccak256\n        /* \"staking.sol\":3473:3504  userLevelDeposit[_user][_level] */\n      dup8\n      dup5\n      mstore\n      dup3\n      mstore\n      dup1\n      dup4\n      keccak256\n        /* \"staking.sol\":3473:3512  userLevelDeposit[_user][_level].balance */\n      sload\n        /* \"staking.sol\":3537:3546  levelInfo */\n      0x03\n        /* \"staking.sol\":3537:3554  levelInfo[_level] */\n      swap1\n      swap3\n      mstore\n      dup3\n      keccak256\n        /* \"staking.sol\":3537:3558  levelInfo[_level].APY */\n      sload\n        /* \"staking.sol\":3367:3445  uint256 timeStaked = block.timestamp - userLevelDeposit[_user][_level].started */\n      swap3\n      swap4\n      pop\n        /* \"staking.sol\":3473:3512  userLevelDeposit[_user][_level].balance */\n      swap2\n        /* \"staking.sol\":3537:3558  levelInfo[_level].APY */\n      swap1\n        /* \"staking.sol\":3624:3632  365 days */\n      0x01e13380\n        /* \"staking.sol\":3615:3620  10000 */\n      0x2710\n        /* \"staking.sol\":3598:3611  balance * APY */\n      tag_159\n        /* \"staking.sol\":3537:3558  levelInfo[_level].APY */\n      dup5\n        /* \"staking.sol\":3473:3512  userLevelDeposit[_user][_level].balance */\n      dup7\n        /* \"staking.sol\":3598:3611  balance * APY */\n      tag_160\n      jump\t// in\n    tag_159:\n        /* \"staking.sol\":3597:3620  (balance * APY) / 10000 */\n      tag_161\n      swap2\n      swap1\n      tag_162\n      jump\t// in\n    tag_161:\n        /* \"staking.sol\":3596:3632  ((balance * APY) / 10000) / 365 days */\n      tag_163\n      swap2\n      swap1\n      tag_162\n      jump\t// in\n    tag_163:\n        /* \"staking.sol\":3569:3632  uint256 rewardsPerSecond = ((balance * APY) / 10000) / 365 days */\n      swap1\n      pop\n        /* \"staking.sol\":3642:3663  uint256 rewardsEarned */\n      0x00\n        /* \"staking.sol\":3666:3695  timeStaked * rewardsPerSecond */\n      tag_164\n        /* \"staking.sol\":3569:3632  uint256 rewardsPerSecond = ((balance * APY) / 10000) / 365 days */\n      dup3\n        /* \"staking.sol\":3666:3676  timeStaked */\n      dup7\n        /* \"staking.sol\":3666:3695  timeStaked * rewardsPerSecond */\n      tag_160\n      jump\t// in\n    tag_164:\n        /* \"staking.sol\":3642:3695  uint256 rewardsEarned = timeStaked * rewardsPerSecond */\n      swap9\n        /* \"staking.sol\":3270:3733  function calculateRewards (address _user, uint256 _level) public view returns (uint256){... */\n      swap8\n      pop\n      pop\n      pop\n      pop\n      pop\n      pop\n      pop\n      pop\n      jump\t// out\n        /* \"staking.sol\":1323:1821  function deposit (uint256 _amount, uint256 _level) public whenNotPaused {... */\n    tag_70:\n        /* \"@openzeppelin/contracts/security/Pausable.sol\":1145:1149  bool */\n      0x00\n        /* \"@openzeppelin/contracts/security/Pausable.sol\":1168:1175  _paused */\n      sload\n      shl(0xa0, 0x01)\n      swap1\n      div\n      0xff\n      and\n        /* \"@openzeppelin/contracts/security/Pausable.sol\":1411:1420  !paused() */\n      iszero\n        /* \"@openzeppelin/contracts/security/Pausable.sol\":1403:1441  require(!paused(), \"Pausable: paused\") */\n      tag_167\n      jumpi\n      mload(0x40)\n      shl(0xe5, 0x461bcd)\n      dup2\n      mstore\n        /* \"#utility.yul\":5019:5021   */\n      0x20\n        /* \"@openzeppelin/contracts/security/Pausable.sol\":1403:1441  require(!paused(), \"Pausable: paused\") */\n      0x04\n      dup3\n      add\n        /* \"#utility.yul\":5001:5022   */\n      mstore\n        /* \"#utility.yul\":5058:5060   */\n      0x10\n        /* \"#utility.yul\":5038:5056   */\n      0x24\n      dup3\n      add\n        /* \"#utility.yul\":5031:5061   */\n      mstore\n      shl(0x82, 0x14185d5cd8589b194e881c185d5cd959)\n        /* \"#utility.yul\":5077:5095   */\n      0x44\n      dup3\n      add\n        /* \"#utility.yul\":5070:5116   */\n      mstore\n        /* \"#utility.yul\":5133:5151   */\n      0x64\n      add\n        /* \"@openzeppelin/contracts/security/Pausable.sol\":1403:1441  require(!paused(), \"Pausable: paused\") */\n      tag_85\n        /* \"#utility.yul\":4817:5157   */\n      jump\n        /* \"@openzeppelin/contracts/security/Pausable.sol\":1403:1441  require(!paused(), \"Pausable: paused\") */\n    tag_167:\n        /* \"staking.sol\":1454:1467  acceptedToken */\n      sload(0x01)\n        /* \"staking.sol\":1454:1516  acceptedToken.transferFrom(_msgSender, address(this), _amount) */\n      mload(0x40)\n      shl(0xe0, 0x23b872dd)\n      dup2\n      mstore\n        /* \"staking.sol\":1426:1436  msg.sender */\n      caller\n        /* \"staking.sol\":1454:1516  acceptedToken.transferFrom(_msgSender, address(this), _amount) */\n      0x04\n      dup3\n      add\n        /* \"#utility.yul\":2167:2201   */\n      dup2\n      swap1\n      mstore\n        /* \"staking.sol\":1501:1505  this */\n      address\n        /* \"#utility.yul\":2217:2235   */\n      0x24\n      dup4\n      add\n        /* \"#utility.yul\":2210:2253   */\n      mstore\n        /* \"#utility.yul\":2269:2287   */\n      0x44\n      dup3\n      add\n        /* \"#utility.yul\":2262:2296   */\n      dup6\n      swap1\n      mstore\n        /* \"staking.sol\":1426:1436  msg.sender */\n      swap2\n      sub(shl(0xa0, 0x01), 0x01)\n        /* \"staking.sol\":1454:1467  acceptedToken */\n      and\n      swap1\n        /* \"staking.sol\":1454:1480  acceptedToken.transferFrom */\n      0x23b872dd\n      swap1\n        /* \"#utility.yul\":2102:2120   */\n      0x64\n      add\n        /* \"staking.sol\":1454:1516  acceptedToken.transferFrom(_msgSender, address(this), _amount) */\n      0x20\n      mload(0x40)\n      dup1\n      dup4\n      sub\n      dup2\n      0x00\n      dup8\n      dup1\n      extcodesize\n      iszero\n      dup1\n      iszero\n      tag_173\n      jumpi\n      0x00\n      dup1\n      revert\n    tag_173:\n      pop\n      gas\n      call\n      iszero\n      dup1\n      iszero\n      tag_175\n      jumpi\n      returndatasize\n      0x00\n      dup1\n      returndatacopy\n      revert(0x00, returndatasize)\n    tag_175:\n      pop\n      pop\n      pop\n      pop\n      mload(0x40)\n      returndatasize\n      not(0x1f)\n      0x1f\n      dup3\n      add\n      and\n      dup3\n      add\n      dup1\n      0x40\n      mstore\n      pop\n      dup2\n      add\n      swap1\n      tag_176\n      swap2\n      swap1\n      tag_96\n      jump\t// in\n    tag_176:\n      pop\n      sub(shl(0xa0, 0x01), 0x01)\n        /* \"staking.sol\":1527:1555  userLevelDeposit[_msgSender] */\n      dup2\n      and\n      0x00\n      swap1\n      dup2\n      mstore\n        /* \"staking.sol\":1527:1543  userLevelDeposit */\n      0x02\n        /* \"staking.sol\":1527:1555  userLevelDeposit[_msgSender] */\n      0x20\n      swap1\n      dup2\n      mstore\n      0x40\n      dup1\n      dup4\n      keccak256\n        /* \"staking.sol\":1527:1563  userLevelDeposit[_msgSender][_level] */\n      dup6\n      dup5\n      mstore\n      swap1\n      swap2\n      mstore\n      dup2\n      keccak256\n        /* \"staking.sol\":1527:1582  userLevelDeposit[_msgSender][_level].balance += _amount */\n      dup1\n      sload\n        /* \"staking.sol\":1575:1582  _amount */\n      dup6\n      swap3\n        /* \"staking.sol\":1527:1555  userLevelDeposit[_msgSender] */\n      swap1\n        /* \"staking.sol\":1527:1582  userLevelDeposit[_msgSender][_level].balance += _amount */\n      tag_177\n      swap1\n        /* \"staking.sol\":1575:1582  _amount */\n      dup5\n      swap1\n        /* \"staking.sol\":1527:1582  userLevelDeposit[_msgSender][_level].balance += _amount */\n      tag_89\n      jump\t// in\n    tag_177:\n      swap1\n      swap2\n      sstore\n      pop\n      pop\n      sub(shl(0xa0, 0x01), 0x01)\n        /* \"staking.sol\":1592:1620  userLevelDeposit[_msgSender] */\n      dup2\n      and\n      0x00\n      swap1\n      dup2\n      mstore\n        /* \"staking.sol\":1592:1608  userLevelDeposit */\n      0x02\n        /* \"staking.sol\":1592:1620  userLevelDeposit[_msgSender] */\n      0x20\n      swap1\n      dup2\n      mstore\n      0x40\n      dup1\n      dup4\n      keccak256\n        /* \"staking.sol\":1592:1628  userLevelDeposit[_msgSender][_level] */\n      dup6\n      dup5\n      mstore\n      swap1\n      swap2\n      mstore\n      dup2\n      keccak256\n        /* \"staking.sol\":1592:1636  userLevelDeposit[_msgSender][_level].started */\n      0x01\n      add\n        /* \"staking.sol\":1592:1655  userLevelDeposit[_msgSender][_level].started += block.timestamp */\n      dup1\n      sload\n        /* \"staking.sol\":1640:1655  block.timestamp */\n      timestamp\n      swap3\n        /* \"staking.sol\":1592:1620  userLevelDeposit[_msgSender] */\n      swap1\n        /* \"staking.sol\":1592:1655  userLevelDeposit[_msgSender][_level].started += block.timestamp */\n      tag_178\n      swap1\n        /* \"staking.sol\":1640:1655  block.timestamp */\n      dup5\n      swap1\n        /* \"staking.sol\":1592:1655  userLevelDeposit[_msgSender][_level].started += block.timestamp */\n      tag_89\n      jump\t// in\n    tag_178:\n      swap1\n      swap2\n      sstore\n      pop\n      pop\n        /* \"staking.sol\":1733:1750  levelInfo[_level] */\n      0x00\n      dup3\n      dup2\n      mstore\n        /* \"staking.sol\":1733:1742  levelInfo */\n      0x03\n        /* \"staking.sol\":1733:1750  levelInfo[_level] */\n      0x20\n      mstore\n      0x40\n      swap1\n      keccak256\n        /* \"staking.sol\":1733:1761  levelInfo[_level].lockPeriod */\n      0x01\n      add\n      sload\n        /* \"staking.sol\":1715:1761  block.timestamp + levelInfo[_level].lockPeriod */\n      tag_179\n      swap1\n        /* \"staking.sol\":1715:1730  block.timestamp */\n      timestamp\n        /* \"staking.sol\":1715:1761  block.timestamp + levelInfo[_level].lockPeriod */\n      tag_89\n      jump\t// in\n    tag_179:\n      sub(shl(0xa0, 0x01), 0x01)\n        /* \"staking.sol\":1665:1693  userLevelDeposit[_msgSender] */\n      dup3\n      and\n      0x00\n      swap1\n      dup2\n      mstore\n        /* \"staking.sol\":1665:1681  userLevelDeposit */\n      0x02\n        /* \"staking.sol\":1665:1693  userLevelDeposit[_msgSender] */\n      0x20\n      dup2\n      dup2\n      mstore\n      0x40\n      dup1\n      dup5\n      keccak256\n        /* \"staking.sol\":1665:1701  userLevelDeposit[_msgSender][_level] */\n      dup8\n      dup6\n      mstore\n      swap1\n      swap2\n      mstore\n      swap2\n      dup3\n      swap1\n      keccak256\n        /* \"staking.sol\":1665:1712  userLevelDeposit[_msgSender][_level].unlockTime */\n      add\n        /* \"staking.sol\":1665:1761  userLevelDeposit[_msgSender][_level].unlockTime = block.timestamp + levelInfo[_level].lockPeriod */\n      swap2\n      swap1\n      swap2\n      sstore\n        /* \"staking.sol\":1777:1814  Deposit (_msgSender, _level, _amount) */\n      mload\n      0x90890809c654f11d6e72a28fa60149770a0d11ec6c92319d6ceb2bb0a4ea1a15\n      swap1\n      tag_97\n      swap1\n        /* \"staking.sol\":1682:1692  _msgSender */\n      dup4\n      swap1\n        /* \"staking.sol\":1694:1700  _level */\n      dup6\n      swap1\n        /* \"staking.sol\":1806:1813  _amount */\n      dup8\n      swap1\n        /* \"staking.sol\":1777:1814  Deposit (_msgSender, _level, _amount) */\n      tag_126\n      jump\t// in\n        /* \"@openzeppelin/contracts/access/Ownable.sol\":1918:2116  function transferOwnership(address newOwner) public virtual onlyOwner {... */\n    tag_82:\n        /* \"@openzeppelin/contracts/access/Ownable.sol\":1082:1089  address */\n      0x00\n        /* \"@openzeppelin/contracts/access/Ownable.sol\":1108:1114  _owner */\n      sload\n      sub(shl(0xa0, 0x01), 0x01)\n      and\n        /* \"@openzeppelin/contracts/utils/Context.sol\":719:729  msg.sender */\n      caller\n        /* \"@openzeppelin/contracts/access/Ownable.sol\":1248:1271  owner() == _msgSender() */\n      eq\n        /* \"@openzeppelin/contracts/access/Ownable.sol\":1240:1308  require(owner() == _msgSender(), \"Ownable: caller is not the owner\") */\n      tag_189\n      jumpi\n      mload(0x40)\n      shl(0xe5, 0x461bcd)\n      dup2\n      mstore\n      0x04\n      add\n      tag_85\n      swap1\n      tag_105\n      jump\t// in\n    tag_189:\n      sub(shl(0xa0, 0x01), 0x01)\n        /* \"@openzeppelin/contracts/access/Ownable.sol\":2006:2028  newOwner != address(0) */\n      dup2\n      and\n        /* \"@openzeppelin/contracts/access/Ownable.sol\":1998:2071  require(newOwner != address(0), \"Ownable: new owner is the zero address\") */\n      tag_192\n      jumpi\n      mload(0x40)\n      shl(0xe5, 0x461bcd)\n      dup2\n      mstore\n        /* \"#utility.yul\":4259:4261   */\n      0x20\n        /* \"@openzeppelin/contracts/access/Ownable.sol\":1998:2071  require(newOwner != address(0), \"Ownable: new owner is the zero address\") */\n      0x04\n      dup3\n      add\n        /* \"#utility.yul\":4241:4262   */\n      mstore\n        /* \"#utility.yul\":4298:4300   */\n      0x26\n        /* \"#utility.yul\":4278:4296   */\n      0x24\n      dup3\n      add\n        /* \"#utility.yul\":4271:4301   */\n      mstore\n        /* \"#utility.yul\":4337:4371   */\n      0x4f776e61626c653a206e6577206f776e657220697320746865207a65726f2061\n        /* \"#utility.yul\":4317:4335   */\n      0x44\n      dup3\n      add\n        /* \"#utility.yul\":4310:4372   */\n      mstore\n      shl(0xd0, 0x646472657373)\n        /* \"#utility.yul\":4388:4406   */\n      0x64\n      dup3\n      add\n        /* \"#utility.yul\":4381:4417   */\n      mstore\n        /* \"#utility.yul\":4434:4453   */\n      0x84\n      add\n        /* \"@openzeppelin/contracts/access/Ownable.sol\":1998:2071  require(newOwner != address(0), \"Ownable: new owner is the zero address\") */\n      tag_85\n        /* \"#utility.yul\":4057:4459   */\n      jump\n        /* \"@openzeppelin/contracts/access/Ownable.sol\":1998:2071  require(newOwner != address(0), \"Ownable: new owner is the zero address\") */\n    tag_192:\n        /* \"@openzeppelin/contracts/access/Ownable.sol\":2081:2109  _transferOwnership(newOwner) */\n      tag_195\n        /* \"@openzeppelin/contracts/access/Ownable.sol\":2100:2108  newOwner */\n      dup2\n        /* \"@openzeppelin/contracts/access/Ownable.sol\":2081:2099  _transferOwnership */\n      tag_140\n        /* \"@openzeppelin/contracts/access/Ownable.sol\":2081:2109  _transferOwnership(newOwner) */\n      jump\t// in\n    tag_195:\n        /* \"@openzeppelin/contracts/access/Ownable.sol\":1918:2116  function transferOwnership(address newOwner) public virtual onlyOwner {... */\n      pop\n      jump\t// out\n        /* \"@openzeppelin/contracts/security/Pausable.sol\":2110:2227  function _unpause() internal virtual whenPaused {... */\n    tag_108:\n        /* \"@openzeppelin/contracts/security/Pausable.sol\":1145:1149  bool */\n      0x00\n        /* \"@openzeppelin/contracts/security/Pausable.sol\":1168:1175  _paused */\n      sload\n      shl(0xa0, 0x01)\n      swap1\n      div\n      0xff\n      and\n        /* \"@openzeppelin/contracts/security/Pausable.sol\":1669:1710  require(paused(), \"Pausable: not paused\") */\n      tag_199\n      jumpi\n      mload(0x40)\n      shl(0xe5, 0x461bcd)\n      dup2\n      mstore\n        /* \"#utility.yul\":3910:3912   */\n      0x20\n        /* \"@openzeppelin/contracts/security/Pausable.sol\":1669:1710  require(paused(), \"Pausable: not paused\") */\n      0x04\n      dup3\n      add\n        /* \"#utility.yul\":3892:3913   */\n      mstore\n        /* \"#utility.yul\":3949:3951   */\n      0x14\n        /* \"#utility.yul\":3929:3947   */\n      0x24\n      dup3\n      add\n        /* \"#utility.yul\":3922:3952   */\n      mstore\n      shl(0x62, 0x14185d5cd8589b194e881b9bdd081c185d5cd959)\n        /* \"#utility.yul\":3968:3986   */\n      0x44\n      dup3\n      add\n        /* \"#utility.yul\":3961:4011   */\n      mstore\n        /* \"#utility.yul\":4028:4046   */\n      0x64\n      add\n        /* \"@openzeppelin/contracts/security/Pausable.sol\":1669:1710  require(paused(), \"Pausable: not paused\") */\n      tag_85\n        /* \"#utility.yul\":3708:4052   */\n      jump\n        /* \"@openzeppelin/contracts/security/Pausable.sol\":1669:1710  require(paused(), \"Pausable: not paused\") */\n    tag_199:\n        /* \"@openzeppelin/contracts/security/Pausable.sol\":2178:2183  false */\n      0x00\n        /* \"@openzeppelin/contracts/security/Pausable.sol\":2168:2183  _paused = false */\n      dup1\n      sload\n      not(shl(0xa0, 0xff))\n      and\n      swap1\n      sstore\n        /* \"@openzeppelin/contracts/security/Pausable.sol\":2198:2220  Unpaused(_msgSender()) */\n      0x5db9ee0a495bf2e6ff9c91a7834c1ba4fdd244a5e8aa4e537bd38aeae4b073aa\n        /* \"@openzeppelin/contracts/utils/Context.sol\":719:729  msg.sender */\n      caller\n        /* \"@openzeppelin/contracts/security/Pausable.sol\":2207:2219  _msgSender() */\n    tag_203:\n        /* \"@openzeppelin/contracts/security/Pausable.sol\":2198:2220  Unpaused(_msgSender()) */\n      mload(0x40)\n      sub(shl(0xa0, 0x01), 0x01)\n        /* \"#utility.yul\":1883:1915   */\n      swap1\n      swap2\n      and\n        /* \"#utility.yul\":1865:1916   */\n      dup2\n      mstore\n        /* \"#utility.yul\":1853:1855   */\n      0x20\n        /* \"#utility.yul\":1838:1856   */\n      add\n        /* \"@openzeppelin/contracts/security/Pausable.sol\":2198:2220  Unpaused(_msgSender()) */\n      mload(0x40)\n      dup1\n      swap2\n      sub\n      swap1\n      log1\n        /* \"@openzeppelin/contracts/security/Pausable.sol\":2110:2227  function _unpause() internal virtual whenPaused {... */\n      jump\t// out\n        /* \"@openzeppelin/contracts/access/Ownable.sol\":2270:2457  function _transferOwnership(address newOwner) internal virtual {... */\n    tag_140:\n        /* \"@openzeppelin/contracts/access/Ownable.sol\":2343:2359  address oldOwner */\n      0x00\n        /* \"@openzeppelin/contracts/access/Ownable.sol\":2362:2368  _owner */\n      dup1\n      sload\n      sub(shl(0xa0, 0x01), 0x01)\n        /* \"@openzeppelin/contracts/access/Ownable.sol\":2378:2395  _owner = newOwner */\n      dup4\n      dup2\n      and\n      not(sub(shl(0xa0, 0x01), 0x01))\n      dup4\n      and\n      dup2\n      or\n      dup5\n      sstore\n        /* \"@openzeppelin/contracts/access/Ownable.sol\":2410:2450  OwnershipTransferred(oldOwner, newOwner) */\n      mload(0x40)\n        /* \"@openzeppelin/contracts/access/Ownable.sol\":2362:2368  _owner */\n      swap2\n      swap1\n      swap3\n      and\n      swap3\n      dup4\n      swap2\n        /* \"@openzeppelin/contracts/access/Ownable.sol\":2410:2450  OwnershipTransferred(oldOwner, newOwner) */\n      0x8be0079c531659141344cd1fd0a4f28419497f9722a3daafe3b4186f6b6457e0\n      swap2\n        /* \"@openzeppelin/contracts/access/Ownable.sol\":2343:2359  address oldOwner */\n      swap1\n        /* \"@openzeppelin/contracts/access/Ownable.sol\":2410:2450  OwnershipTransferred(oldOwner, newOwner) */\n      log3\n        /* \"@openzeppelin/contracts/access/Ownable.sol\":2333:2457  {... */\n      pop\n        /* \"@openzeppelin/contracts/access/Ownable.sol\":2270:2457  function _transferOwnership(address newOwner) internal virtual {... */\n      pop\n      jump\t// out\n        /* \"@openzeppelin/contracts/security/Pausable.sol\":1863:1978  function _pause() internal virtual whenNotPaused {... */\n    tag_148:\n        /* \"@openzeppelin/contracts/security/Pausable.sol\":1145:1149  bool */\n      0x00\n        /* \"@openzeppelin/contracts/security/Pausable.sol\":1168:1175  _paused */\n      sload\n      shl(0xa0, 0x01)\n      swap1\n      div\n      0xff\n      and\n        /* \"@openzeppelin/contracts/security/Pausable.sol\":1411:1420  !paused() */\n      iszero\n        /* \"@openzeppelin/contracts/security/Pausable.sol\":1403:1441  require(!paused(), \"Pausable: paused\") */\n      tag_208\n      jumpi\n      mload(0x40)\n      shl(0xe5, 0x461bcd)\n      dup2\n      mstore\n        /* \"#utility.yul\":5019:5021   */\n      0x20\n        /* \"@openzeppelin/contracts/security/Pausable.sol\":1403:1441  require(!paused(), \"Pausable: paused\") */\n      0x04\n      dup3\n      add\n        /* \"#utility.yul\":5001:5022   */\n      mstore\n        /* \"#utility.yul\":5058:5060   */\n      0x10\n        /* \"#utility.yul\":5038:5056   */\n      0x24\n      dup3\n      add\n        /* \"#utility.yul\":5031:5061   */\n      mstore\n      shl(0x82, 0x14185d5cd8589b194e881c185d5cd959)\n        /* \"#utility.yul\":5077:5095   */\n      0x44\n      dup3\n      add\n        /* \"#utility.yul\":5070:5116   */\n      mstore\n        /* \"#utility.yul\":5133:5151   */\n      0x64\n      add\n        /* \"@openzeppelin/contracts/security/Pausable.sol\":1403:1441  require(!paused(), \"Pausable: paused\") */\n      tag_85\n        /* \"#utility.yul\":4817:5157   */\n      jump\n        /* \"@openzeppelin/contracts/security/Pausable.sol\":1403:1441  require(!paused(), \"Pausable: paused\") */\n    tag_208:\n        /* \"@openzeppelin/contracts/security/Pausable.sol\":1922:1929  _paused */\n      0x00\n        /* \"@openzeppelin/contracts/security/Pausable.sol\":1922:1936  _paused = true */\n      dup1\n      sload\n      not(shl(0xa0, 0xff))\n      and\n      shl(0xa0, 0x01)\n      or\n      swap1\n      sstore\n        /* \"@openzeppelin/contracts/security/Pausable.sol\":1951:1971  Paused(_msgSender()) */\n      0x62e78cea01bee320cd4e420270b5ea74000d11b0c9f74754ebdbfc544b05a258\n        /* \"@openzeppelin/contracts/security/Pausable.sol\":1958:1970  _msgSender() */\n      tag_203\n        /* \"@openzeppelin/contracts/utils/Context.sol\":719:729  msg.sender */\n      caller\n      swap1\n        /* \"@openzeppelin/contracts/utils/Context.sol\":640:736  function _msgSender() internal view virtual returns (address) {... */\n      jump\n        /* \"#utility.yul\":14:187   */\n    tag_214:\n        /* \"#utility.yul\":82:102   */\n      dup1\n      calldataload\n      sub(shl(0xa0, 0x01), 0x01)\n        /* \"#utility.yul\":131:162   */\n      dup2\n      and\n        /* \"#utility.yul\":121:163   */\n      dup2\n      eq\n        /* \"#utility.yul\":111:181   */\n      tag_216\n      jumpi\n        /* \"#utility.yul\":177:178   */\n      0x00\n        /* \"#utility.yul\":174:175   */\n      dup1\n        /* \"#utility.yul\":167:179   */\n      revert\n        /* \"#utility.yul\":111:181   */\n    tag_216:\n        /* \"#utility.yul\":14:187   */\n      swap2\n      swap1\n      pop\n      jump\t// out\n        /* \"#utility.yul\":192:378   */\n    tag_48:\n        /* \"#utility.yul\":251:257   */\n      0x00\n        /* \"#utility.yul\":304:306   */\n      0x20\n        /* \"#utility.yul\":292:301   */\n      dup3\n        /* \"#utility.yul\":283:290   */\n      dup5\n        /* \"#utility.yul\":279:302   */\n      sub\n        /* \"#utility.yul\":275:307   */\n      slt\n        /* \"#utility.yul\":272:324   */\n      iszero\n      tag_218\n      jumpi\n        /* \"#utility.yul\":320:321   */\n      0x00\n        /* \"#utility.yul\":317:318   */\n      dup1\n        /* \"#utility.yul\":310:322   */\n      revert\n        /* \"#utility.yul\":272:324   */\n    tag_218:\n        /* \"#utility.yul\":343:372   */\n      tag_219\n        /* \"#utility.yul\":362:371   */\n      dup3\n        /* \"#utility.yul\":343:372   */\n      tag_214\n      jump\t// in\n    tag_219:\n        /* \"#utility.yul\":333:372   */\n      swap4\n        /* \"#utility.yul\":192:378   */\n      swap3\n      pop\n      pop\n      pop\n      jump\t// out\n        /* \"#utility.yul\":383:637   */\n    tag_24:\n        /* \"#utility.yul\":451:457   */\n      0x00\n        /* \"#utility.yul\":459:465   */\n      dup1\n        /* \"#utility.yul\":512:514   */\n      0x40\n        /* \"#utility.yul\":500:509   */\n      dup4\n        /* \"#utility.yul\":491:498   */\n      dup6\n        /* \"#utility.yul\":487:510   */\n      sub\n        /* \"#utility.yul\":483:515   */\n      slt\n        /* \"#utility.yul\":480:532   */\n      iszero\n      tag_221\n      jumpi\n        /* \"#utility.yul\":528:529   */\n      0x00\n        /* \"#utility.yul\":525:526   */\n      dup1\n        /* \"#utility.yul\":518:530   */\n      revert\n        /* \"#utility.yul\":480:532   */\n    tag_221:\n        /* \"#utility.yul\":551:580   */\n      tag_222\n        /* \"#utility.yul\":570:579   */\n      dup4\n        /* \"#utility.yul\":551:580   */\n      tag_214\n      jump\t// in\n    tag_222:\n        /* \"#utility.yul\":541:580   */\n      swap5\n        /* \"#utility.yul\":627:629   */\n      0x20\n        /* \"#utility.yul\":612:630   */\n      swap4\n      swap1\n      swap4\n      add\n        /* \"#utility.yul\":599:631   */\n      calldataload\n      swap4\n      pop\n      pop\n      pop\n        /* \"#utility.yul\":383:637   */\n      jump\t// out\n        /* \"#utility.yul\":642:919   */\n    tag_96:\n        /* \"#utility.yul\":709:715   */\n      0x00\n        /* \"#utility.yul\":762:764   */\n      0x20\n        /* \"#utility.yul\":750:759   */\n      dup3\n        /* \"#utility.yul\":741:748   */\n      dup5\n        /* \"#utility.yul\":737:760   */\n      sub\n        /* \"#utility.yul\":733:765   */\n      slt\n        /* \"#utility.yul\":730:782   */\n      iszero\n      tag_224\n      jumpi\n        /* \"#utility.yul\":778:779   */\n      0x00\n        /* \"#utility.yul\":775:776   */\n      dup1\n        /* \"#utility.yul\":768:780   */\n      revert\n        /* \"#utility.yul\":730:782   */\n    tag_224:\n        /* \"#utility.yul\":810:819   */\n      dup2\n        /* \"#utility.yul\":804:820   */\n      mload\n        /* \"#utility.yul\":863:868   */\n      dup1\n        /* \"#utility.yul\":856:869   */\n      iszero\n        /* \"#utility.yul\":849:870   */\n      iszero\n        /* \"#utility.yul\":842:847   */\n      dup2\n        /* \"#utility.yul\":839:871   */\n      eq\n        /* \"#utility.yul\":829:889   */\n      tag_219\n      jumpi\n        /* \"#utility.yul\":885:886   */\n      0x00\n        /* \"#utility.yul\":882:883   */\n      dup1\n        /* \"#utility.yul\":875:887   */\n      revert\n        /* \"#utility.yul\":924:1104   */\n    tag_30:\n        /* \"#utility.yul\":983:989   */\n      0x00\n        /* \"#utility.yul\":1036:1038   */\n      0x20\n        /* \"#utility.yul\":1024:1033   */\n      dup3\n        /* \"#utility.yul\":1015:1022   */\n      dup5\n        /* \"#utility.yul\":1011:1034   */\n      sub\n        /* \"#utility.yul\":1007:1039   */\n      slt\n        /* \"#utility.yul\":1004:1056   */\n      iszero\n      tag_227\n      jumpi\n        /* \"#utility.yul\":1052:1053   */\n      0x00\n        /* \"#utility.yul\":1049:1050   */\n      dup1\n        /* \"#utility.yul\":1042:1054   */\n      revert\n        /* \"#utility.yul\":1004:1056   */\n    tag_227:\n      pop\n        /* \"#utility.yul\":1075:1098   */\n      calldataload\n      swap2\n        /* \"#utility.yul\":924:1104   */\n      swap1\n      pop\n      jump\t// out\n        /* \"#utility.yul\":1109:1357   */\n    tag_36:\n        /* \"#utility.yul\":1177:1183   */\n      0x00\n        /* \"#utility.yul\":1185:1191   */\n      dup1\n        /* \"#utility.yul\":1238:1240   */\n      0x40\n        /* \"#utility.yul\":1226:1235   */\n      dup4\n        /* \"#utility.yul\":1217:1224   */\n      dup6\n        /* \"#utility.yul\":1213:1236   */\n      sub\n        /* \"#utility.yul\":1209:1241   */\n      slt\n        /* \"#utility.yul\":1206:1258   */\n      iszero\n      tag_229\n      jumpi\n        /* \"#utility.yul\":1254:1255   */\n      0x00\n        /* \"#utility.yul\":1251:1252   */\n      dup1\n        /* \"#utility.yul\":1244:1256   */\n      revert\n        /* \"#utility.yul\":1206:1258   */\n    tag_229:\n      pop\n      pop\n        /* \"#utility.yul\":1277:1300   */\n      dup1\n      calldataload\n      swap3\n        /* \"#utility.yul\":1347:1349   */\n      0x20\n        /* \"#utility.yul\":1332:1350   */\n      swap1\n      swap2\n      add\n        /* \"#utility.yul\":1319:1351   */\n      calldataload\n      swap2\n      pop\n        /* \"#utility.yul\":1109:1357   */\n      jump\t// out\n        /* \"#utility.yul\":2307:2660   */\n    tag_126:\n      sub(shl(0xa0, 0x01), 0x01)\n        /* \"#utility.yul\":2535:2567   */\n      swap4\n      swap1\n      swap4\n      and\n        /* \"#utility.yul\":2517:2568   */\n      dup4\n      mstore\n        /* \"#utility.yul\":2599:2601   */\n      0x20\n        /* \"#utility.yul\":2584:2602   */\n      dup4\n      add\n        /* \"#utility.yul\":2577:2611   */\n      swap2\n      swap1\n      swap2\n      mstore\n        /* \"#utility.yul\":2642:2644   */\n      0x40\n        /* \"#utility.yul\":2627:2645   */\n      dup3\n      add\n        /* \"#utility.yul\":2620:2654   */\n      mstore\n        /* \"#utility.yul\":2505:2507   */\n      0x60\n        /* \"#utility.yul\":2490:2508   */\n      add\n      swap1\n        /* \"#utility.yul\":2307:2660   */\n      jump\t// out\n        /* \"#utility.yul\":5162:5518   */\n    tag_105:\n        /* \"#utility.yul\":5364:5366   */\n      0x20\n        /* \"#utility.yul\":5346:5367   */\n      dup1\n      dup3\n      mstore\n        /* \"#utility.yul\":5383:5401   */\n      dup2\n      dup2\n      add\n        /* \"#utility.yul\":5376:5406   */\n      mstore\n        /* \"#utility.yul\":5442:5476   */\n      0x4f776e61626c653a2063616c6c6572206973206e6f7420746865206f776e6572\n        /* \"#utility.yul\":5437:5439   */\n      0x40\n        /* \"#utility.yul\":5422:5440   */\n      dup3\n      add\n        /* \"#utility.yul\":5415:5477   */\n      mstore\n        /* \"#utility.yul\":5509:5511   */\n      0x60\n        /* \"#utility.yul\":5494:5512   */\n      add\n      swap1\n        /* \"#utility.yul\":5162:5518   */\n      jump\t// out\n        /* \"#utility.yul\":6216:6720   */\n    tag_74:\n        /* \"#utility.yul\":1433:1445   */\n      dup4\n      mload\n        /* \"#utility.yul\":1421:1446   */\n      dup2\n      mstore\n        /* \"#utility.yul\":1495:1499   */\n      0x20\n        /* \"#utility.yul\":1484:1500   */\n      dup1\n      dup6\n      add\n        /* \"#utility.yul\":1478:1501   */\n      mload\n        /* \"#utility.yul\":1462:1476   */\n      dup2\n      dup4\n      add\n        /* \"#utility.yul\":1455:1502   */\n      mstore\n        /* \"#utility.yul\":1433:1445   */\n      dup4\n      mload\n        /* \"#utility.yul\":6649:6651   */\n      0x40\n        /* \"#utility.yul\":6634:6652   */\n      dup4\n      add\n        /* \"#utility.yul\":1421:1446   */\n      mstore\n        /* \"#utility.yul\":1484:1500   */\n      dup4\n      dup2\n      add\n        /* \"#utility.yul\":1478:1501   */\n      mload\n        /* \"#utility.yul\":1462:1476   */\n      0x60\n      dup4\n      add\n        /* \"#utility.yul\":1455:1502   */\n      mstore\n        /* \"#utility.yul\":1433:1445   */\n      dup3\n      mload\n        /* \"#utility.yul\":6709:6712   */\n      0x80\n        /* \"#utility.yul\":6694:6713   */\n      dup4\n      add\n        /* \"#utility.yul\":1421:1446   */\n      mstore\n        /* \"#utility.yul\":1484:1500   */\n      dup3\n      add\n        /* \"#utility.yul\":1478:1501   */\n      mload\n        /* \"#utility.yul\":1462:1476   */\n      0xa0\n      dup3\n      add\n        /* \"#utility.yul\":1455:1502   */\n      mstore\n        /* \"#utility.yul\":6538:6541   */\n      0xc0\n        /* \"#utility.yul\":6523:6542   */\n      dup2\n      add\n        /* \"#utility.yul\":6662:6714   */\n    tag_251:\n        /* \"#utility.yul\":6216:6720   */\n      swap5\n      swap4\n      pop\n      pop\n      pop\n      pop\n      jump\t// out\n        /* \"#utility.yul\":6725:7220   */\n    tag_51:\n        /* \"#utility.yul\":1583:1595   */\n      dup4\n      mload\n        /* \"#utility.yul\":1571:1596   */\n      dup2\n      mstore\n        /* \"#utility.yul\":1645:1649   */\n      0x20\n        /* \"#utility.yul\":1634:1650   */\n      dup1\n      dup6\n      add\n        /* \"#utility.yul\":1628:1651   */\n      mload\n        /* \"#utility.yul\":1612:1626   */\n      dup2\n      dup4\n      add\n        /* \"#utility.yul\":1605:1652   */\n      mstore\n        /* \"#utility.yul\":1701:1705   */\n      0x40\n        /* \"#utility.yul\":1690:1706   */\n      dup1\n      dup7\n      add\n        /* \"#utility.yul\":1684:1707   */\n      mload\n        /* \"#utility.yul\":1668:1682   */\n      dup2\n      dup5\n      add\n        /* \"#utility.yul\":1661:1708   */\n      mstore\n        /* \"#utility.yul\":1583:1595   */\n      dup5\n      mload\n        /* \"#utility.yul\":7150:7152   */\n      0x60\n        /* \"#utility.yul\":7135:7153   */\n      dup5\n      add\n        /* \"#utility.yul\":1571:1596   */\n      mstore\n        /* \"#utility.yul\":1634:1650   */\n      dup5\n      dup3\n      add\n        /* \"#utility.yul\":1628:1651   */\n      mload\n        /* \"#utility.yul\":1612:1626   */\n      0x80\n      dup5\n      add\n        /* \"#utility.yul\":1605:1652   */\n      mstore\n        /* \"#utility.yul\":1690:1706   */\n      dup5\n      dup2\n      add\n        /* \"#utility.yul\":1684:1707   */\n      mload\n        /* \"#utility.yul\":1668:1682   */\n      0xa0\n      dup5\n      add\n        /* \"#utility.yul\":1661:1708   */\n      mstore\n        /* \"#utility.yul\":1583:1595   */\n      dup4\n      mload\n        /* \"#utility.yul\":7209:7212   */\n      0xc0\n        /* \"#utility.yul\":7194:7213   */\n      dup5\n      add\n        /* \"#utility.yul\":1571:1596   */\n      mstore\n        /* \"#utility.yul\":1634:1650   */\n      swap1\n      dup4\n      add\n        /* \"#utility.yul\":1628:1651   */\n      mload\n        /* \"#utility.yul\":1612:1626   */\n      0xe0\n      dup4\n      add\n        /* \"#utility.yul\":1605:1652   */\n      mstore\n        /* \"#utility.yul\":1690:1706   */\n      dup3\n      add\n        /* \"#utility.yul\":1684:1707   */\n      mload\n        /* \"#utility.yul\":1668:1682   */\n      0x0100\n      dup3\n      add\n        /* \"#utility.yul\":1661:1708   */\n      mstore\n        /* \"#utility.yul\":7041:7044   */\n      0x0120\n        /* \"#utility.yul\":7026:7045   */\n      dup2\n      add\n        /* \"#utility.yul\":7163:7214   */\n      tag_251\n        /* \"#utility.yul\":1513:1714   */\n      jump\n        /* \"#utility.yul\":7984:8112   */\n    tag_89:\n        /* \"#utility.yul\":8024:8027   */\n      0x00\n        /* \"#utility.yul\":8055:8056   */\n      dup3\n        /* \"#utility.yul\":8051:8057   */\n      not\n        /* \"#utility.yul\":8048:8049   */\n      dup3\n        /* \"#utility.yul\":8045:8058   */\n      gt\n        /* \"#utility.yul\":8042:8081   */\n      iszero\n      tag_261\n      jumpi\n        /* \"#utility.yul\":8061:8079   */\n      tag_261\n      tag_262\n      jump\t// in\n    tag_261:\n      pop\n        /* \"#utility.yul\":8097:8106   */\n      add\n      swap1\n        /* \"#utility.yul\":7984:8112   */\n      jump\t// out\n        /* \"#utility.yul\":8117:8334   */\n    tag_162:\n        /* \"#utility.yul\":8157:8158   */\n      0x00\n        /* \"#utility.yul\":8183:8184   */\n      dup3\n        /* \"#utility.yul\":8173:8305   */\n      tag_264\n      jumpi\n        /* \"#utility.yul\":8227:8237   */\n      0x4e487b71\n        /* \"#utility.yul\":8222:8225   */\n      0xe0\n        /* \"#utility.yul\":8218:8238   */\n      shl\n        /* \"#utility.yul\":8215:8216   */\n      0x00\n        /* \"#utility.yul\":8208:8239   */\n      mstore\n        /* \"#utility.yul\":8262:8266   */\n      0x12\n        /* \"#utility.yul\":8259:8260   */\n      0x04\n        /* \"#utility.yul\":8252:8267   */\n      mstore\n        /* \"#utility.yul\":8290:8294   */\n      0x24\n        /* \"#utility.yul\":8287:8288   */\n      0x00\n        /* \"#utility.yul\":8280:8295   */\n      revert\n        /* \"#utility.yul\":8173:8305   */\n    tag_264:\n      pop\n        /* \"#utility.yul\":8319:8328   */\n      div\n      swap1\n        /* \"#utility.yul\":8117:8334   */\n      jump\t// out\n        /* \"#utility.yul\":8339:8507   */\n    tag_160:\n        /* \"#utility.yul\":8379:8386   */\n      0x00\n        /* \"#utility.yul\":8445:8446   */\n      dup2\n        /* \"#utility.yul\":8441:8442   */\n      0x00\n        /* \"#utility.yul\":8437:8443   */\n      not\n        /* \"#utility.yul\":8433:8447   */\n      div\n        /* \"#utility.yul\":8430:8431   */\n      dup4\n        /* \"#utility.yul\":8427:8448   */\n      gt\n        /* \"#utility.yul\":8422:8423   */\n      dup3\n        /* \"#utility.yul\":8415:8424   */\n      iszero\n        /* \"#utility.yul\":8408:8425   */\n      iszero\n        /* \"#utility.yul\":8404:8449   */\n      and\n        /* \"#utility.yul\":8401:8472   */\n      iszero\n      tag_267\n      jumpi\n        /* \"#utility.yul\":8452:8470   */\n      tag_267\n      tag_262\n      jump\t// in\n    tag_267:\n      pop\n        /* \"#utility.yul\":8492:8501   */\n      mul\n      swap1\n        /* \"#utility.yul\":8339:8507   */\n      jump\t// out\n        /* \"#utility.yul\":8512:8637   */\n    tag_118:\n        /* \"#utility.yul\":8552:8556   */\n      0x00\n        /* \"#utility.yul\":8580:8581   */\n      dup3\n        /* \"#utility.yul\":8577:8578   */\n      dup3\n        /* \"#utility.yul\":8574:8582   */\n      lt\n        /* \"#utility.yul\":8571:8605   */\n      iszero\n      tag_270\n      jumpi\n        /* \"#utility.yul\":8585:8603   */\n      tag_270\n      tag_262\n      jump\t// in\n    tag_270:\n      pop\n        /* \"#utility.yul\":8622:8631   */\n      sub\n      swap1\n        /* \"#utility.yul\":8512:8637   */\n      jump\t// out\n        /* \"#utility.yul\":8642:8769   */\n    tag_262:\n        /* \"#utility.yul\":8703:8713   */\n      0x4e487b71\n        /* \"#utility.yul\":8698:8701   */\n      0xe0\n        /* \"#utility.yul\":8694:8714   */\n      shl\n        /* \"#utility.yul\":8691:8692   */\n      0x00\n        /* \"#utility.yul\":8684:8715   */\n      mstore\n        /* \"#utility.yul\":8734:8738   */\n      0x11\n        /* \"#utility.yul\":8731:8732   */\n      0x04\n        /* \"#utility.yul\":8724:8739   */\n      mstore\n        /* \"#utility.yul\":8758:8762   */\n      0x24\n        /* \"#utility.yul\":8755:8756   */\n      0x00\n        /* \"#utility.yul\":8748:8763   */\n      revert\n\n    auxdata: 0xa2646970667358221220f2320fe7659cac3229adc6302c908fb7a9f4f3fec5a13ba4fecea2e87428565264736f6c63430008070033\n}\n",
				"bytecode": {
					"linkReferences": {},
					"object": "608060405234801561001057600080fd5b506040516111df3803806111df83398101604081905261002f916100ba565b6100383361006a565b6000805460ff60a01b19169055600180546001600160a01b0319166001600160a01b03929092169190911790556100ea565b600080546001600160a01b038381166001600160a01b0319831681178455604051919092169283917f8be0079c531659141344cd1fd0a4f28419497f9722a3daafe3b4186f6b6457e09190a35050565b6000602082840312156100cc57600080fd5b81516001600160a01b03811681146100e357600080fd5b9392505050565b6110e6806100f96000396000f3fe608060405234801561001057600080fd5b50600436106101005760003560e01c80638456cb5911610097578063e2bbb15811610066578063e2bbb1581461024a578063e788cee51461025d578063edf501ad1461039d578063f2fde38b146103d957600080fd5b80638456cb59146101fd5780638da5cb5b14610205578063aa5f7e2614610216578063beb8314c1461022957600080fd5b8063451c3d80116100d3578063451c3d801461018b5780635c975abb146101b65780636386c1c7146101d3578063715018a6146101f557600080fd5b8063259ee75214610105578063379607f51461015b5780633f4ba83a14610170578063441a3e7014610178575b600080fd5b61013b610113366004610ebf565b6002602081815260009384526040808520909152918352912080546001820154919092015483565b604080519384526020840192909252908201526060015b60405180910390f35b61016e610169366004610f0b565b6103ec565b005b61016e61055f565b61016e610186366004610f24565b610593565b60015461019e906001600160a01b031681565b6040516001600160a01b039091168152602001610152565b600054600160a01b900460ff166040519015158152602001610152565b6101e66101e1366004610e9d565b61078d565b60405161015293929190610fd6565b61016e610890565b61016e6108c4565b6000546001600160a01b031661019e565b61016e610224366004610f0b565b6108f6565b61023c610237366004610ebf565b610a09565b604051908152602001610152565b61016e610258366004610f24565b610aad565b60408051808201825260008082526020918201819052825180840184528181528201819052825180840184528181528201819052825180840184527f3617319a054d772f909f7c479a2cebe5066e836a939412e32403c99029b92eff5481527f3617319a054d772f909f7c479a2cebe5066e836a939412e32403c99029b92f005481840152835180850185527fa15bc60c955c405d20d9149c709e2460f1c2d9a497496a7f46004d1772c3054c5481527fa15bc60c955c405d20d9149c709e2460f1c2d9a497496a7f46004d1772c3054d5481850152600290925260038352835180850185527fc3a24b0501bd2c13a7e57f2db4369ec4c223447539fc0724a9d55ac4a06ebd4d5481527fc3a24b0501bd2c13a7e57f2db4369ec4c223447539fc0724a9d55ac4a06ebd4e54938101939093529251610152939290610f9c565b6103c46103ab366004610f0b565b6003602052600090815260409020805460019091015482565b60408051928352602083019190915201610152565b61016e6103e7366004610e9d565b610c71565b33600081815260026020908152604080832085845290915290205461044c5760405162461bcd60e51b8152602060048201526011602482015270139bc81858dd1a5d994819195c1bdcda5d607a1b60448201526064015b60405180910390fd5b60006104588284610a09565b6001600160a01b038316600090815260026020908152604080832087845290915281206001018054929350429290919061049390849061102a565b909155505060015460405163a9059cbb60e01b81526001600160a01b038481166004830152602482018490529091169063a9059cbb90604401602060405180830381600087803b1580156104e657600080fd5b505af11580156104fa573d6000803e3d6000fd5b505050506040513d601f19601f8201168201806040525081019061051e9190610ee9565b507f34fcbac0073d7c3d388e51312faf357774904998eeb8fca628b9e6f65ee1cbf782848360405161055293929190610f46565b60405180910390a1505050565b6000546001600160a01b031633146105895760405162461bcd60e51b815260040161044390610f67565b610591610d0c565b565b3360008181526002602090815260408083208584529091529020548311156105f25760405162461bcd60e51b8152602060048201526012602482015271139bdd08195b9bdd59da0819195c1bdcda5d60721b6044820152606401610443565b6001600160a01b038116600090815260026020818152604080842086855290915290912001544210156106675760405162461bcd60e51b815260206004820152601860248201527f4465706f736974206e6f7420756e6c6f636b65642079657400000000000000006044820152606401610443565b60006106738284610a09565b6001600160a01b03831660009081526002602090815260408083208784529091528120805492935086929091906106ab908490611083565b90915550506001546001600160a01b031663a9059cbb836106cc848861102a565b6040516001600160e01b031960e085901b1681526001600160a01b0390921660048301526024820152604401602060405180830381600087803b15801561071257600080fd5b505af1158015610726573d6000803e3d6000fd5b505050506040513d601f19601f8201168201806040525081019061074a9190610ee9565b507ff279e6a1f5e320cca91135676d9cb6e44ca8a08c0b88342bcdb1144f6511b5688260008660405161077f93929190610f46565b60405180910390a150505050565b6107b160405180606001604052806000815260200160008152602001600081525090565b6107d560405180606001604052806000815260200160008152602001600081525090565b6107f960405180606001604052806000815260200160008152602001600081525090565b5050506001600160a01b03166000908152600260208181526040808420848052808352818520825160608082018552825482526001808401548388015292870154828601528288528386528488208551808301875281548152818501548189015290880154818701528789529386529684902084519788018552805488529182015494870194909452909301549084015292909190565b6000546001600160a01b031633146108ba5760405162461bcd60e51b815260040161044390610f67565b6105916000610da9565b6000546001600160a01b031633146108ee5760405162461bcd60e51b815260040161044390610f67565b610591610df9565b3360008181526002602090815260408083208584529091529020546109515760405162461bcd60e51b8152602060048201526011602482015270139bc81858dd1a5d994819195c1bdcda5d607a1b6044820152606401610443565b600061095d8284610a09565b6001600160a01b038316600090815260026020908152604080832087845290915281208054929350839290919061099590849061102a565b90915550506001600160a01b0382166000908152600260209081526040808320868452909152812060010180544292906109d090849061102a565b90915550506040517f0e311a2c6dbfb0153ec3a8a5bdca09070b3e5f60768fdc10a20453f38d1868739061055290849086908590610f46565b6001600160a01b03821660009081526002602090815260408083208484529091528120600101548190610a3c9042611083565b6001600160a01b0385166000908152600260209081526040808320878452825280832054600390925282205492935091906301e13380612710610a7f8486611064565b610a899190611042565b610a939190611042565b90506000610aa18286611064565b98975050505050505050565b600054600160a01b900460ff1615610afa5760405162461bcd60e51b815260206004820152601060248201526f14185d5cd8589b194e881c185d5cd95960821b6044820152606401610443565b6001546040516323b872dd60e01b8152336004820181905230602483015260448201859052916001600160a01b0316906323b872dd90606401602060405180830381600087803b158015610b4d57600080fd5b505af1158015610b61573d6000803e3d6000fd5b505050506040513d601f19601f82011682018060405250810190610b859190610ee9565b506001600160a01b038116600090815260026020908152604080832085845290915281208054859290610bb990849061102a565b90915550506001600160a01b038116600090815260026020908152604080832085845290915281206001018054429290610bf490849061102a565b9091555050600082815260036020526040902060010154610c15904261102a565b6001600160a01b0382166000908152600260208181526040808420878552909152918290200191909155517f90890809c654f11d6e72a28fa60149770a0d11ec6c92319d6ceb2bb0a4ea1a159061055290839085908790610f46565b6000546001600160a01b03163314610c9b5760405162461bcd60e51b815260040161044390610f67565b6001600160a01b038116610d005760405162461bcd60e51b815260206004820152602660248201527f4f776e61626c653a206e6577206f776e657220697320746865207a65726f206160448201526564647265737360d01b6064820152608401610443565b610d0981610da9565b50565b600054600160a01b900460ff16610d5c5760405162461bcd60e51b815260206004820152601460248201527314185d5cd8589b194e881b9bdd081c185d5cd95960621b6044820152606401610443565b6000805460ff60a01b191690557f5db9ee0a495bf2e6ff9c91a7834c1ba4fdd244a5e8aa4e537bd38aeae4b073aa335b6040516001600160a01b03909116815260200160405180910390a1565b600080546001600160a01b038381166001600160a01b0319831681178455604051919092169283917f8be0079c531659141344cd1fd0a4f28419497f9722a3daafe3b4186f6b6457e09190a35050565b600054600160a01b900460ff1615610e465760405162461bcd60e51b815260206004820152601060248201526f14185d5cd8589b194e881c185d5cd95960821b6044820152606401610443565b6000805460ff60a01b1916600160a01b1790557f62e78cea01bee320cd4e420270b5ea74000d11b0c9f74754ebdbfc544b05a258610d8c3390565b80356001600160a01b0381168114610e9857600080fd5b919050565b600060208284031215610eaf57600080fd5b610eb882610e81565b9392505050565b60008060408385031215610ed257600080fd5b610edb83610e81565b946020939093013593505050565b600060208284031215610efb57600080fd5b81518015158114610eb857600080fd5b600060208284031215610f1d57600080fd5b5035919050565b60008060408385031215610f3757600080fd5b50508035926020909101359150565b6001600160a01b039390931683526020830191909152604082015260600190565b6020808252818101527f4f776e61626c653a2063616c6c6572206973206e6f7420746865206f776e6572604082015260600190565b8351815260208085015181830152835160408301528381015160608301528251608083015282015160a082015260c081015b949350505050565b835181526020808501518183015260408086015181840152845160608401528482015160808401528481015160a0840152835160c08401529083015160e08301528201516101008201526101208101610fce565b6000821982111561103d5761103d61109a565b500190565b60008261105f57634e487b7160e01b600052601260045260246000fd5b500490565b600081600019048311821515161561107e5761107e61109a565b500290565b6000828210156110955761109561109a565b500390565b634e487b7160e01b600052601160045260246000fdfea2646970667358221220f2320fe7659cac3229adc6302c908fb7a9f4f3fec5a13ba4fecea2e87428565264736f6c63430008070033",
					"opcodes": "PUSH1 0x80 PUSH1 0x40 MSTORE CALLVALUE DUP1 ISZERO PUSH2 0x10 JUMPI PUSH1 0x0 DUP1 REVERT JUMPDEST POP PUSH1 0x40 MLOAD PUSH2 0x11DF CODESIZE SUB DUP1 PUSH2 0x11DF DUP4 CODECOPY DUP2 ADD PUSH1 0x40 DUP2 SWAP1 MSTORE PUSH2 0x2F SWAP2 PUSH2 0xBA JUMP JUMPDEST PUSH2 0x38 CALLER PUSH2 0x6A JUMP JUMPDEST PUSH1 0x0 DUP1 SLOAD PUSH1 0xFF PUSH1 0xA0 SHL NOT AND SWAP1 SSTORE PUSH1 0x1 DUP1 SLOAD PUSH1 0x1 PUSH1 0x1 PUSH1 0xA0 SHL SUB NOT AND PUSH1 0x1 PUSH1 0x1 PUSH1 0xA0 SHL SUB SWAP3 SWAP1 SWAP3 AND SWAP2 SWAP1 SWAP2 OR SWAP1 SSTORE PUSH2 0xEA JUMP JUMPDEST PUSH1 0x0 DUP1 SLOAD PUSH1 0x1 PUSH1 0x1 PUSH1 0xA0 SHL SUB DUP4 DUP2 AND PUSH1 0x1 PUSH1 0x1 PUSH1 0xA0 SHL SUB NOT DUP4 AND DUP2 OR DUP5 SSTORE PUSH1 0x40 MLOAD SWAP2 SWAP1 SWAP3 AND SWAP3 DUP4 SWAP2 PUSH32 0x8BE0079C531659141344CD1FD0A4F28419497F9722A3DAAFE3B4186F6B6457E0 SWAP2 SWAP1 LOG3 POP POP JUMP JUMPDEST PUSH1 0x0 PUSH1 0x20 DUP3 DUP5 SUB SLT ISZERO PUSH2 0xCC JUMPI PUSH1 0x0 DUP1 REVERT JUMPDEST DUP2 MLOAD PUSH1 0x1 PUSH1 0x1 PUSH1 0xA0 SHL SUB DUP2 AND DUP2 EQ PUSH2 0xE3 JUMPI PUSH1 0x0 DUP1 REVERT JUMPDEST SWAP4 SWAP3 POP POP POP JUMP JUMPDEST PUSH2 0x10E6 DUP1 PUSH2 0xF9 PUSH1 0x0 CODECOPY PUSH1 0x0 RETURN INVALID PUSH1 0x80 PUSH1 0x40 MSTORE CALLVALUE DUP1 ISZERO PUSH2 0x10 JUMPI PUSH1 0x0 DUP1 REVERT JUMPDEST POP PUSH1 0x4 CALLDATASIZE LT PUSH2 0x100 JUMPI PUSH1 0x0 CALLDATALOAD PUSH1 0xE0 SHR DUP1 PUSH4 0x8456CB59 GT PUSH2 0x97 JUMPI DUP1 PUSH4 0xE2BBB158 GT PUSH2 0x66 JUMPI DUP1 PUSH4 0xE2BBB158 EQ PUSH2 0x24A JUMPI DUP1 PUSH4 0xE788CEE5 EQ PUSH2 0x25D JUMPI DUP1 PUSH4 0xEDF501AD EQ PUSH2 0x39D JUMPI DUP1 PUSH4 0xF2FDE38B EQ PUSH2 0x3D9 JUMPI PUSH1 0x0 DUP1 REVERT JUMPDEST DUP1 PUSH4 0x8456CB59 EQ PUSH2 0x1FD JUMPI DUP1 PUSH4 0x8DA5CB5B EQ PUSH2 0x205 JUMPI DUP1 PUSH4 0xAA5F7E26 EQ PUSH2 0x216 JUMPI DUP1 PUSH4 0xBEB8314C EQ PUSH2 0x229 JUMPI PUSH1 0x0 DUP1 REVERT JUMPDEST DUP1 PUSH4 0x451C3D80 GT PUSH2 0xD3 JUMPI DUP1 PUSH4 0x451C3D80 EQ PUSH2 0x18B JUMPI DUP1 PUSH4 0x5C975ABB EQ PUSH2 0x1B6 JUMPI DUP1 PUSH4 0x6386C1C7 EQ PUSH2 0x1D3 JUMPI DUP1 PUSH4 0x715018A6 EQ PUSH2 0x1F5 JUMPI PUSH1 0x0 DUP1 REVERT JUMPDEST DUP1 PUSH4 0x259EE752 EQ PUSH2 0x105 JUMPI DUP1 PUSH4 0x379607F5 EQ PUSH2 0x15B JUMPI DUP1 PUSH4 0x3F4BA83A EQ PUSH2 0x170 JUMPI DUP1 PUSH4 0x441A3E70 EQ PUSH2 0x178 JUMPI JUMPDEST PUSH1 0x0 DUP1 REVERT JUMPDEST PUSH2 0x13B PUSH2 0x113 CALLDATASIZE PUSH1 0x4 PUSH2 0xEBF JUMP JUMPDEST PUSH1 0x2 PUSH1 0x20 DUP2 DUP2 MSTORE PUSH1 0x0 SWAP4 DUP5 MSTORE PUSH1 0x40 DUP1 DUP6 KECCAK256 SWAP1 SWAP2 MSTORE SWAP2 DUP4 MSTORE SWAP2 KECCAK256 DUP1 SLOAD PUSH1 0x1 DUP3 ADD SLOAD SWAP2 SWAP1 SWAP3 ADD SLOAD DUP4 JUMP JUMPDEST PUSH1 0x40 DUP1 MLOAD SWAP4 DUP5 MSTORE PUSH1 0x20 DUP5 ADD SWAP3 SWAP1 SWAP3 MSTORE SWAP1 DUP3 ADD MSTORE PUSH1 0x60 ADD JUMPDEST PUSH1 0x40 MLOAD DUP1 SWAP2 SUB SWAP1 RETURN JUMPDEST PUSH2 0x16E PUSH2 0x169 CALLDATASIZE PUSH1 0x4 PUSH2 0xF0B JUMP JUMPDEST PUSH2 0x3EC JUMP JUMPDEST STOP JUMPDEST PUSH2 0x16E PUSH2 0x55F JUMP JUMPDEST PUSH2 0x16E PUSH2 0x186 CALLDATASIZE PUSH1 0x4 PUSH2 0xF24 JUMP JUMPDEST PUSH2 0x593 JUMP JUMPDEST PUSH1 0x1 SLOAD PUSH2 0x19E SWAP1 PUSH1 0x1 PUSH1 0x1 PUSH1 0xA0 SHL SUB AND DUP2 JUMP JUMPDEST PUSH1 0x40 MLOAD PUSH1 0x1 PUSH1 0x1 PUSH1 0xA0 SHL SUB SWAP1 SWAP2 AND DUP2 MSTORE PUSH1 0x20 ADD PUSH2 0x152 JUMP JUMPDEST PUSH1 0x0 SLOAD PUSH1 0x1 PUSH1 0xA0 SHL SWAP1 DIV PUSH1 0xFF AND PUSH1 0x40 MLOAD SWAP1 ISZERO ISZERO DUP2 MSTORE PUSH1 0x20 ADD PUSH2 0x152 JUMP JUMPDEST PUSH2 0x1E6 PUSH2 0x1E1 CALLDATASIZE PUSH1 0x4 PUSH2 0xE9D JUMP JUMPDEST PUSH2 0x78D JUMP JUMPDEST PUSH1 0x40 MLOAD PUSH2 0x152 SWAP4 SWAP3 SWAP2 SWAP1 PUSH2 0xFD6 JUMP JUMPDEST PUSH2 0x16E PUSH2 0x890 JUMP JUMPDEST PUSH2 0x16E PUSH2 0x8C4 JUMP JUMPDEST PUSH1 0x0 SLOAD PUSH1 0x1 PUSH1 0x1 PUSH1 0xA0 SHL SUB AND PUSH2 0x19E JUMP JUMPDEST PUSH2 0x16E PUSH2 0x224 CALLDATASIZE PUSH1 0x4 PUSH2 0xF0B JUMP JUMPDEST PUSH2 0x8F6 JUMP JUMPDEST PUSH2 0x23C PUSH2 0x237 CALLDATASIZE PUSH1 0x4 PUSH2 0xEBF JUMP JUMPDEST PUSH2 0xA09 JUMP JUMPDEST PUSH1 0x40 MLOAD SWAP1 DUP2 MSTORE PUSH1 0x20 ADD PUSH2 0x152 JUMP JUMPDEST PUSH2 0x16E PUSH2 0x258 CALLDATASIZE PUSH1 0x4 PUSH2 0xF24 JUMP JUMPDEST PUSH2 0xAAD JUMP JUMPDEST PUSH1 0x40 DUP1 MLOAD DUP1 DUP3 ADD DUP3 MSTORE PUSH1 0x0 DUP1 DUP3 MSTORE PUSH1 0x20 SWAP2 DUP3 ADD DUP2 SWAP1 MSTORE DUP3 MLOAD DUP1 DUP5 ADD DUP5 MSTORE DUP2 DUP2 MSTORE DUP3 ADD DUP2 SWAP1 MSTORE DUP3 MLOAD DUP1 DUP5 ADD DUP5 MSTORE DUP2 DUP2 MSTORE DUP3 ADD DUP2 SWAP1 MSTORE DUP3 MLOAD DUP1 DUP5 ADD DUP5 MSTORE PUSH32 0x3617319A054D772F909F7C479A2CEBE5066E836A939412E32403C99029B92EFF SLOAD DUP2 MSTORE PUSH32 0x3617319A054D772F909F7C479A2CEBE5066E836A939412E32403C99029B92F00 SLOAD DUP2 DUP5 ADD MSTORE DUP4 MLOAD DUP1 DUP6 ADD DUP6 MSTORE PUSH32 0xA15BC60C955C405D20D9149C709E2460F1C2D9A497496A7F46004D1772C3054C SLOAD DUP2 MSTORE PUSH32 0xA15BC60C955C405D20D9149C709E2460F1C2D9A497496A7F46004D1772C3054D SLOAD DUP2 DUP6 ADD MSTORE PUSH1 0x2 SWAP1 SWAP3 MSTORE PUSH1 0x3 DUP4 MSTORE DUP4 MLOAD DUP1 DUP6 ADD DUP6 MSTORE PUSH32 0xC3A24B0501BD2C13A7E57F2DB4369EC4C223447539FC0724A9D55AC4A06EBD4D SLOAD DUP2 MSTORE PUSH32 0xC3A24B0501BD2C13A7E57F2DB4369EC4C223447539FC0724A9D55AC4A06EBD4E SLOAD SWAP4 DUP2 ADD SWAP4 SWAP1 SWAP4 MSTORE SWAP3 MLOAD PUSH2 0x152 SWAP4 SWAP3 SWAP1 PUSH2 0xF9C JUMP JUMPDEST PUSH2 0x3C4 PUSH2 0x3AB CALLDATASIZE PUSH1 0x4 PUSH2 0xF0B JUMP JUMPDEST PUSH1 0x3 PUSH1 0x20 MSTORE PUSH1 0x0 SWAP1 DUP2 MSTORE PUSH1 0x40 SWAP1 KECCAK256 DUP1 SLOAD PUSH1 0x1 SWAP1 SWAP2 ADD SLOAD DUP3 JUMP JUMPDEST PUSH1 0x40 DUP1 MLOAD SWAP3 DUP4 MSTORE PUSH1 0x20 DUP4 ADD SWAP2 SWAP1 SWAP2 MSTORE ADD PUSH2 0x152 JUMP JUMPDEST PUSH2 0x16E PUSH2 0x3E7 CALLDATASIZE PUSH1 0x4 PUSH2 0xE9D JUMP JUMPDEST PUSH2 0xC71 JUMP JUMPDEST CALLER PUSH1 0x0 DUP2 DUP2 MSTORE PUSH1 0x2 PUSH1 0x20 SWAP1 DUP2 MSTORE PUSH1 0x40 DUP1 DUP4 KECCAK256 DUP6 DUP5 MSTORE SWAP1 SWAP2 MSTORE SWAP1 KECCAK256 SLOAD PUSH2 0x44C JUMPI PUSH1 0x40 MLOAD PUSH3 0x461BCD PUSH1 0xE5 SHL DUP2 MSTORE PUSH1 0x20 PUSH1 0x4 DUP3 ADD MSTORE PUSH1 0x11 PUSH1 0x24 DUP3 ADD MSTORE PUSH17 0x139BC81858DD1A5D994819195C1BDCDA5D PUSH1 0x7A SHL PUSH1 0x44 DUP3 ADD MSTORE PUSH1 0x64 ADD JUMPDEST PUSH1 0x40 MLOAD DUP1 SWAP2 SUB SWAP1 REVERT JUMPDEST PUSH1 0x0 PUSH2 0x458 DUP3 DUP5 PUSH2 0xA09 JUMP JUMPDEST PUSH1 0x1 PUSH1 0x1 PUSH1 0xA0 SHL SUB DUP4 AND PUSH1 0x0 SWAP1 DUP2 MSTORE PUSH1 0x2 PUSH1 0x20 SWAP1 DUP2 MSTORE PUSH1 0x40 DUP1 DUP4 KECCAK256 DUP8 DUP5 MSTORE SWAP1 SWAP2 MSTORE DUP2 KECCAK256 PUSH1 0x1 ADD DUP1 SLOAD SWAP3 SWAP4 POP TIMESTAMP SWAP3 SWAP1 SWAP2 SWAP1 PUSH2 0x493 SWAP1 DUP5 SWAP1 PUSH2 0x102A JUMP JUMPDEST SWAP1 SWAP2 SSTORE POP POP PUSH1 0x1 SLOAD PUSH1 0x40 MLOAD PUSH4 0xA9059CBB PUSH1 0xE0 SHL DUP2 MSTORE PUSH1 0x1 PUSH1 0x1 PUSH1 0xA0 SHL SUB DUP5 DUP2 AND PUSH1 0x4 DUP4 ADD MSTORE PUSH1 0x24 DUP3 ADD DUP5 SWAP1 MSTORE SWAP1 SWAP2 AND SWAP1 PUSH4 0xA9059CBB SWAP1 PUSH1 0x44 ADD PUSH1 0x20 PUSH1 0x40 MLOAD DUP1 DUP4 SUB DUP2 PUSH1 0x0 DUP8 DUP1 EXTCODESIZE ISZERO DUP1 ISZERO PUSH2 0x4E6 JUMPI PUSH1 0x0 DUP1 REVERT JUMPDEST POP GAS CALL ISZERO DUP1 ISZERO PUSH2 0x4FA JUMPI RETURNDATASIZE PUSH1 0x0 DUP1 RETURNDATACOPY RETURNDATASIZE PUSH1 0x0 REVERT JUMPDEST POP POP POP POP PUSH1 0x40 MLOAD RETURNDATASIZE PUSH1 0x1F NOT PUSH1 0x1F DUP3 ADD AND DUP3 ADD DUP1 PUSH1 0x40 MSTORE POP DUP2 ADD SWAP1 PUSH2 0x51E SWAP2 SWAP1 PUSH2 0xEE9 JUMP JUMPDEST POP PUSH32 0x34FCBAC0073D7C3D388E51312FAF357774904998EEB8FCA628B9E6F65EE1CBF7 DUP3 DUP5 DUP4 PUSH1 0x40 MLOAD PUSH2 0x552 SWAP4 SWAP3 SWAP2 SWAP1 PUSH2 0xF46 JUMP JUMPDEST PUSH1 0x40 MLOAD DUP1 SWAP2 SUB SWAP1 LOG1 POP POP POP JUMP JUMPDEST PUSH1 0x0 SLOAD PUSH1 0x1 PUSH1 0x1 PUSH1 0xA0 SHL SUB AND CALLER EQ PUSH2 0x589 JUMPI PUSH1 0x40 MLOAD PUSH3 0x461BCD PUSH1 0xE5 SHL DUP2 MSTORE PUSH1 0x4 ADD PUSH2 0x443 SWAP1 PUSH2 0xF67 JUMP JUMPDEST PUSH2 0x591 PUSH2 0xD0C JUMP JUMPDEST JUMP JUMPDEST CALLER PUSH1 0x0 DUP2 DUP2 MSTORE PUSH1 0x2 PUSH1 0x20 SWAP1 DUP2 MSTORE PUSH1 0x40 DUP1 DUP4 KECCAK256 DUP6 DUP5 MSTORE SWAP1 SWAP2 MSTORE SWAP1 KECCAK256 SLOAD DUP4 GT ISZERO PUSH2 0x5F2 JUMPI PUSH1 0x40 MLOAD PUSH3 0x461BCD PUSH1 0xE5 SHL DUP2 MSTORE PUSH1 0x20 PUSH1 0x4 DUP3 ADD MSTORE PUSH1 0x12 PUSH1 0x24 DUP3 ADD MSTORE PUSH18 0x139BDD08195B9BDD59DA0819195C1BDCDA5D PUSH1 0x72 SHL PUSH1 0x44 DUP3 ADD MSTORE PUSH1 0x64 ADD PUSH2 0x443 JUMP JUMPDEST PUSH1 0x1 PUSH1 0x1 PUSH1 0xA0 SHL SUB DUP2 AND PUSH1 0x0 SWAP1 DUP2 MSTORE PUSH1 0x2 PUSH1 0x20 DUP2 DUP2 MSTORE PUSH1 0x40 DUP1 DUP5 KECCAK256 DUP7 DUP6 MSTORE SWAP1 SWAP2 MSTORE SWAP1 SWAP2 KECCAK256 ADD SLOAD TIMESTAMP LT ISZERO PUSH2 0x667 JUMPI PUSH1 0x40 MLOAD PUSH3 0x461BCD PUSH1 0xE5 SHL DUP2 MSTORE PUSH1 0x20 PUSH1 0x4 DUP3 ADD MSTORE PUSH1 0x18 PUSH1 0x24 DUP3 ADD MSTORE PUSH32 0x4465706F736974206E6F7420756E6C6F636B6564207965740000000000000000 PUSH1 0x44 DUP3 ADD MSTORE PUSH1 0x64 ADD PUSH2 0x443 JUMP JUMPDEST PUSH1 0x0 PUSH2 0x673 DUP3 DUP5 PUSH2 0xA09 JUMP JUMPDEST PUSH1 0x1 PUSH1 0x1 PUSH1 0xA0 SHL SUB DUP4 AND PUSH1 0x0 SWAP1 DUP2 MSTORE PUSH1 0x2 PUSH1 0x20 SWAP1 DUP2 MSTORE PUSH1 0x40 DUP1 DUP4 KECCAK256 DUP8 DUP5 MSTORE SWAP1 SWAP2 MSTORE DUP2 KECCAK256 DUP1 SLOAD SWAP3 SWAP4 POP DUP7 SWAP3 SWAP1 SWAP2 SWAP1 PUSH2 0x6AB SWAP1 DUP5 SWAP1 PUSH2 0x1083 JUMP JUMPDEST SWAP1 SWAP2 SSTORE POP POP PUSH1 0x1 SLOAD PUSH1 0x1 PUSH1 0x1 PUSH1 0xA0 SHL SUB AND PUSH4 0xA9059CBB DUP4 PUSH2 0x6CC DUP5 DUP9 PUSH2 0x102A JUMP JUMPDEST PUSH1 0x40 MLOAD PUSH1 0x1 PUSH1 0x1 PUSH1 0xE0 SHL SUB NOT PUSH1 0xE0 DUP6 SWAP1 SHL AND DUP2 MSTORE PUSH1 0x1 PUSH1 0x1 PUSH1 0xA0 SHL SUB SWAP1 SWAP3 AND PUSH1 0x4 DUP4 ADD MSTORE PUSH1 0x24 DUP3 ADD MSTORE PUSH1 0x44 ADD PUSH1 0x20 PUSH1 0x40 MLOAD DUP1 DUP4 SUB DUP2 PUSH1 0x0 DUP8 DUP1 EXTCODESIZE ISZERO DUP1 ISZERO PUSH2 0x712 JUMPI PUSH1 0x0 DUP1 REVERT JUMPDEST POP GAS CALL ISZERO DUP1 ISZERO PUSH2 0x726 JUMPI RETURNDATASIZE PUSH1 0x0 DUP1 RETURNDATACOPY RETURNDATASIZE PUSH1 0x0 REVERT JUMPDEST POP POP POP POP PUSH1 0x40 MLOAD RETURNDATASIZE PUSH1 0x1F NOT PUSH1 0x1F DUP3 ADD AND DUP3 ADD DUP1 PUSH1 0x40 MSTORE POP DUP2 ADD SWAP1 PUSH2 0x74A SWAP2 SWAP1 PUSH2 0xEE9 JUMP JUMPDEST POP PUSH32 0xF279E6A1F5E320CCA91135676D9CB6E44CA8A08C0B88342BCDB1144F6511B568 DUP3 PUSH1 0x0 DUP7 PUSH1 0x40 MLOAD PUSH2 0x77F SWAP4 SWAP3 SWAP2 SWAP1 PUSH2 0xF46 JUMP JUMPDEST PUSH1 0x40 MLOAD DUP1 SWAP2 SUB SWAP1 LOG1 POP POP POP POP JUMP JUMPDEST PUSH2 0x7B1 PUSH1 0x40 MLOAD DUP1 PUSH1 0x60 ADD PUSH1 0x40 MSTORE DUP1 PUSH1 0x0 DUP2 MSTORE PUSH1 0x20 ADD PUSH1 0x0 DUP2 MSTORE PUSH1 0x20 ADD PUSH1 0x0 DUP2 MSTORE POP SWAP1 JUMP JUMPDEST PUSH2 0x7D5 PUSH1 0x40 MLOAD DUP1 PUSH1 0x60 ADD PUSH1 0x40 MSTORE DUP1 PUSH1 0x0 DUP2 MSTORE PUSH1 0x20 ADD PUSH1 0x0 DUP2 MSTORE PUSH1 0x20 ADD PUSH1 0x0 DUP2 MSTORE POP SWAP1 JUMP JUMPDEST PUSH2 0x7F9 PUSH1 0x40 MLOAD DUP1 PUSH1 0x60 ADD PUSH1 0x40 MSTORE DUP1 PUSH1 0x0 DUP2 MSTORE PUSH1 0x20 ADD PUSH1 0x0 DUP2 MSTORE PUSH1 0x20 ADD PUSH1 0x0 DUP2 MSTORE POP SWAP1 JUMP JUMPDEST POP POP POP PUSH1 0x1 PUSH1 0x1 PUSH1 0xA0 SHL SUB AND PUSH1 0x0 SWAP1 DUP2 MSTORE PUSH1 0x2 PUSH1 0x20 DUP2 DUP2 MSTORE PUSH1 0x40 DUP1 DUP5 KECCAK256 DUP5 DUP1 MSTORE DUP1 DUP4 MSTORE DUP2 DUP6 KECCAK256 DUP3 MLOAD PUSH1 0x60 DUP1 DUP3 ADD DUP6 MSTORE DUP3 SLOAD DUP3 MSTORE PUSH1 0x1 DUP1 DUP5 ADD SLOAD DUP4 DUP9 ADD MSTORE SWAP3 DUP8 ADD SLOAD DUP3 DUP7 ADD MSTORE DUP3 DUP9 MSTORE DUP4 DUP7 MSTORE DUP5 DUP9 KECCAK256 DUP6 MLOAD DUP1 DUP4 ADD DUP8 MSTORE DUP2 SLOAD DUP2 MSTORE DUP2 DUP6 ADD SLOAD DUP2 DUP10 ADD MSTORE SWAP1 DUP9 ADD SLOAD DUP2 DUP8 ADD MSTORE DUP8 DUP10 MSTORE SWAP4 DUP7 MSTORE SWAP7 DUP5 SWAP1 KECCAK256 DUP5 MLOAD SWAP8 DUP9 ADD DUP6 MSTORE DUP1 SLOAD DUP9 MSTORE SWAP2 DUP3 ADD SLOAD SWAP5 DUP8 ADD SWAP5 SWAP1 SWAP5 MSTORE SWAP1 SWAP4 ADD SLOAD SWAP1 DUP5 ADD MSTORE SWAP3 SWAP1 SWAP2 SWAP1 JUMP JUMPDEST PUSH1 0x0 SLOAD PUSH1 0x1 PUSH1 0x1 PUSH1 0xA0 SHL SUB AND CALLER EQ PUSH2 0x8BA JUMPI PUSH1 0x40 MLOAD PUSH3 0x461BCD PUSH1 0xE5 SHL DUP2 MSTORE PUSH1 0x4 ADD PUSH2 0x443 SWAP1 PUSH2 0xF67 JUMP JUMPDEST PUSH2 0x591 PUSH1 0x0 PUSH2 0xDA9 JUMP JUMPDEST PUSH1 0x0 SLOAD PUSH1 0x1 PUSH1 0x1 PUSH1 0xA0 SHL SUB AND CALLER EQ PUSH2 0x8EE JUMPI PUSH1 0x40 MLOAD PUSH3 0x461BCD PUSH1 0xE5 SHL DUP2 MSTORE PUSH1 0x4 ADD PUSH2 0x443 SWAP1 PUSH2 0xF67 JUMP JUMPDEST PUSH2 0x591 PUSH2 0xDF9 JUMP JUMPDEST CALLER PUSH1 0x0 DUP2 DUP2 MSTORE PUSH1 0x2 PUSH1 0x20 SWAP1 DUP2 MSTORE PUSH1 0x40 DUP1 DUP4 KECCAK256 DUP6 DUP5 MSTORE SWAP1 SWAP2 MSTORE SWAP1 KECCAK256 SLOAD PUSH2 0x951 JUMPI PUSH1 0x40 MLOAD PUSH3 0x461BCD PUSH1 0xE5 SHL DUP2 MSTORE PUSH1 0x20 PUSH1 0x4 DUP3 ADD MSTORE PUSH1 0x11 PUSH1 0x24 DUP3 ADD MSTORE PUSH17 0x139BC81858DD1A5D994819195C1BDCDA5D PUSH1 0x7A SHL PUSH1 0x44 DUP3 ADD MSTORE PUSH1 0x64 ADD PUSH2 0x443 JUMP JUMPDEST PUSH1 0x0 PUSH2 0x95D DUP3 DUP5 PUSH2 0xA09 JUMP JUMPDEST PUSH1 0x1 PUSH1 0x1 PUSH1 0xA0 SHL SUB DUP4 AND PUSH1 0x0 SWAP1 DUP2 MSTORE PUSH1 0x2 PUSH1 0x20 SWAP1 DUP2 MSTORE PUSH1 0x40 DUP1 DUP4 KECCAK256 DUP8 DUP5 MSTORE SWAP1 SWAP2 MSTORE DUP2 KECCAK256 DUP1 SLOAD SWAP3 SWAP4 POP DUP4 SWAP3 SWAP1 SWAP2 SWAP1 PUSH2 0x995 SWAP1 DUP5 SWAP1 PUSH2 0x102A JUMP JUMPDEST SWAP1 SWAP2 SSTORE POP POP PUSH1 0x1 PUSH1 0x1 PUSH1 0xA0 SHL SUB DUP3 AND PUSH1 0x0 SWAP1 DUP2 MSTORE PUSH1 0x2 PUSH1 0x20 SWAP1 DUP2 MSTORE PUSH1 0x40 DUP1 DUP4 KECCAK256 DUP7 DUP5 MSTORE SWAP1 SWAP2 MSTORE DUP2 KECCAK256 PUSH1 0x1 ADD DUP1 SLOAD TIMESTAMP SWAP3 SWAP1 PUSH2 0x9D0 SWAP1 DUP5 SWAP1 PUSH2 0x102A JUMP JUMPDEST SWAP1 SWAP2 SSTORE POP POP PUSH1 0x40 MLOAD PUSH32 0xE311A2C6DBFB0153EC3A8A5BDCA09070B3E5F60768FDC10A20453F38D186873 SWAP1 PUSH2 0x552 SWAP1 DUP5 SWAP1 DUP7 SWAP1 DUP6 SWAP1 PUSH2 0xF46 JUMP JUMPDEST PUSH1 0x1 PUSH1 0x1 PUSH1 0xA0 SHL SUB DUP3 AND PUSH1 0x0 SWAP1 DUP2 MSTORE PUSH1 0x2 PUSH1 0x20 SWAP1 DUP2 MSTORE PUSH1 0x40 DUP1 DUP4 KECCAK256 DUP5 DUP5 MSTORE SWAP1 SWAP2 MSTORE DUP2 KECCAK256 PUSH1 0x1 ADD SLOAD DUP2 SWAP1 PUSH2 0xA3C SWAP1 TIMESTAMP PUSH2 0x1083 JUMP JUMPDEST PUSH1 0x1 PUSH1 0x1 PUSH1 0xA0 SHL SUB DUP6 AND PUSH1 0x0 SWAP1 DUP2 MSTORE PUSH1 0x2 PUSH1 0x20 SWAP1 DUP2 MSTORE PUSH1 0x40 DUP1 DUP4 KECCAK256 DUP8 DUP5 MSTORE DUP3 MSTORE DUP1 DUP4 KECCAK256 SLOAD PUSH1 0x3 SWAP1 SWAP3 MSTORE DUP3 KECCAK256 SLOAD SWAP3 SWAP4 POP SWAP2 SWAP1 PUSH4 0x1E13380 PUSH2 0x2710 PUSH2 0xA7F DUP5 DUP7 PUSH2 0x1064 JUMP JUMPDEST PUSH2 0xA89 SWAP2 SWAP1 PUSH2 0x1042 JUMP JUMPDEST PUSH2 0xA93 SWAP2 SWAP1 PUSH2 0x1042 JUMP JUMPDEST SWAP1 POP PUSH1 0x0 PUSH2 0xAA1 DUP3 DUP7 PUSH2 0x1064 JUMP JUMPDEST SWAP9 SWAP8 POP POP POP POP POP POP POP POP JUMP JUMPDEST PUSH1 0x0 SLOAD PUSH1 0x1 PUSH1 0xA0 SHL SWAP1 DIV PUSH1 0xFF AND ISZERO PUSH2 0xAFA JUMPI PUSH1 0x40 MLOAD PUSH3 0x461BCD PUSH1 0xE5 SHL DUP2 MSTORE PUSH1 0x20 PUSH1 0x4 DUP3 ADD MSTORE PUSH1 0x10 PUSH1 0x24 DUP3 ADD MSTORE PUSH16 0x14185D5CD8589B194E881C185D5CD959 PUSH1 0x82 SHL PUSH1 0x44 DUP3 ADD MSTORE PUSH1 0x64 ADD PUSH2 0x443 JUMP JUMPDEST PUSH1 0x1 SLOAD PUSH1 0x40 MLOAD PUSH4 0x23B872DD PUSH1 0xE0 SHL DUP2 MSTORE CALLER PUSH1 0x4 DUP3 ADD DUP2 SWAP1 MSTORE ADDRESS PUSH1 0x24 DUP4 ADD MSTORE PUSH1 0x44 DUP3 ADD DUP6 SWAP1 MSTORE SWAP2 PUSH1 0x1 PUSH1 0x1 PUSH1 0xA0 SHL SUB AND SWAP1 PUSH4 0x23B872DD SWAP1 PUSH1 0x64 ADD PUSH1 0x20 PUSH1 0x40 MLOAD DUP1 DUP4 SUB DUP2 PUSH1 0x0 DUP8 DUP1 EXTCODESIZE ISZERO DUP1 ISZERO PUSH2 0xB4D JUMPI PUSH1 0x0 DUP1 REVERT JUMPDEST POP GAS CALL ISZERO DUP1 ISZERO PUSH2 0xB61 JUMPI RETURNDATASIZE PUSH1 0x0 DUP1 RETURNDATACOPY RETURNDATASIZE PUSH1 0x0 REVERT JUMPDEST POP POP POP POP PUSH1 0x40 MLOAD RETURNDATASIZE PUSH1 0x1F NOT PUSH1 0x1F DUP3 ADD AND DUP3 ADD DUP1 PUSH1 0x40 MSTORE POP DUP2 ADD SWAP1 PUSH2 0xB85 SWAP2 SWAP1 PUSH2 0xEE9 JUMP JUMPDEST POP PUSH1 0x1 PUSH1 0x1 PUSH1 0xA0 SHL SUB DUP2 AND PUSH1 0x0 SWAP1 DUP2 MSTORE PUSH1 0x2 PUSH1 0x20 SWAP1 DUP2 MSTORE PUSH1 0x40 DUP1 DUP4 KECCAK256 DUP6 DUP5 MSTORE SWAP1 SWAP2 MSTORE DUP2 KECCAK256 DUP1 SLOAD DUP6 SWAP3 SWAP1 PUSH2 0xBB9 SWAP1 DUP5 SWAP1 PUSH2 0x102A JUMP JUMPDEST SWAP1 SWAP2 SSTORE POP POP PUSH1 0x1 PUSH1 0x1 PUSH1 0xA0 SHL SUB DUP2 AND PUSH1 0x0 SWAP1 DUP2 MSTORE PUSH1 0x2 PUSH1 0x20 SWAP1 DUP2 MSTORE PUSH1 0x40 DUP1 DUP4 KECCAK256 DUP6 DUP5 MSTORE SWAP1 SWAP2 MSTORE DUP2 KECCAK256 PUSH1 0x1 ADD DUP1 SLOAD TIMESTAMP SWAP3 SWAP1 PUSH2 0xBF4 SWAP1 DUP5 SWAP1 PUSH2 0x102A JUMP JUMPDEST SWAP1 SWAP2 SSTORE POP POP PUSH1 0x0 DUP3 DUP2 MSTORE PUSH1 0x3 PUSH1 0x20 MSTORE PUSH1 0x40 SWAP1 KECCAK256 PUSH1 0x1 ADD SLOAD PUSH2 0xC15 SWAP1 TIMESTAMP PUSH2 0x102A JUMP JUMPDEST PUSH1 0x1 PUSH1 0x1 PUSH1 0xA0 SHL SUB DUP3 AND PUSH1 0x0 SWAP1 DUP2 MSTORE PUSH1 0x2 PUSH1 0x20 DUP2 DUP2 MSTORE PUSH1 0x40 DUP1 DUP5 KECCAK256 DUP8 DUP6 MSTORE SWAP1 SWAP2 MSTORE SWAP2 DUP3 SWAP1 KECCAK256 ADD SWAP2 SWAP1 SWAP2 SSTORE MLOAD PUSH32 0x90890809C654F11D6E72A28FA60149770A0D11EC6C92319D6CEB2BB0A4EA1A15 SWAP1 PUSH2 0x552 SWAP1 DUP4 SWAP1 DUP6 SWAP1 DUP8 SWAP1 PUSH2 0xF46 JUMP JUMPDEST PUSH1 0x0 SLOAD PUSH1 0x1 PUSH1 0x1 PUSH1 0xA0 SHL SUB AND CALLER EQ PUSH2 0xC9B JUMPI PUSH1 0x40 MLOAD PUSH3 0x461BCD PUSH1 0xE5 SHL DUP2 MSTORE PUSH1 0x4 ADD PUSH2 0x443 SWAP1 PUSH2 0xF67 JUMP JUMPDEST PUSH1 0x1 PUSH1 0x1 PUSH1 0xA0 SHL SUB DUP2 AND PUSH2 0xD00 JUMPI PUSH1 0x40 MLOAD PUSH3 0x461BCD PUSH1 0xE5 SHL DUP2 MSTORE PUSH1 0x20 PUSH1 0x4 DUP3 ADD MSTORE PUSH1 0x26 PUSH1 0x24 DUP3 ADD MSTORE PUSH32 0x4F776E61626C653A206E6577206F776E657220697320746865207A65726F2061 PUSH1 0x44 DUP3 ADD MSTORE PUSH6 0x646472657373 PUSH1 0xD0 SHL PUSH1 0x64 DUP3 ADD MSTORE PUSH1 0x84 ADD PUSH2 0x443 JUMP JUMPDEST PUSH2 0xD09 DUP2 PUSH2 0xDA9 JUMP JUMPDEST POP JUMP JUMPDEST PUSH1 0x0 SLOAD PUSH1 0x1 PUSH1 0xA0 SHL SWAP1 DIV PUSH1 0xFF AND PUSH2 0xD5C JUMPI PUSH1 0x40 MLOAD PUSH3 0x461BCD PUSH1 0xE5 SHL DUP2 MSTORE PUSH1 0x20 PUSH1 0x4 DUP3 ADD MSTORE PUSH1 0x14 PUSH1 0x24 DUP3 ADD MSTORE PUSH20 0x14185D5CD8589B194E881B9BDD081C185D5CD959 PUSH1 0x62 SHL PUSH1 0x44 DUP3 ADD MSTORE PUSH1 0x64 ADD PUSH2 0x443 JUMP JUMPDEST PUSH1 0x0 DUP1 SLOAD PUSH1 0xFF PUSH1 0xA0 SHL NOT AND SWAP1 SSTORE PUSH32 0x5DB9EE0A495BF2E6FF9C91A7834C1BA4FDD244A5E8AA4E537BD38AEAE4B073AA CALLER JUMPDEST PUSH1 0x40 MLOAD PUSH1 0x1 PUSH1 0x1 PUSH1 0xA0 SHL SUB SWAP1 SWAP2 AND DUP2 MSTORE PUSH1 0x20 ADD PUSH1 0x40 MLOAD DUP1 SWAP2 SUB SWAP1 LOG1 JUMP JUMPDEST PUSH1 0x0 DUP1 SLOAD PUSH1 0x1 PUSH1 0x1 PUSH1 0xA0 SHL SUB DUP4 DUP2 AND PUSH1 0x1 PUSH1 0x1 PUSH1 0xA0 SHL SUB NOT DUP4 AND DUP2 OR DUP5 SSTORE PUSH1 0x40 MLOAD SWAP2 SWAP1 SWAP3 AND SWAP3 DUP4 SWAP2 PUSH32 0x8BE0079C531659141344CD1FD0A4F28419497F9722A3DAAFE3B4186F6B6457E0 SWAP2 SWAP1 LOG3 POP POP JUMP JUMPDEST PUSH1 0x0 SLOAD PUSH1 0x1 PUSH1 0xA0 SHL SWAP1 DIV PUSH1 0xFF AND ISZERO PUSH2 0xE46 JUMPI PUSH1 0x40 MLOAD PUSH3 0x461BCD PUSH1 0xE5 SHL DUP2 MSTORE PUSH1 0x20 PUSH1 0x4 DUP3 ADD MSTORE PUSH1 0x10 PUSH1 0x24 DUP3 ADD MSTORE PUSH16 0x14185D5CD8589B194E881C185D5CD959 PUSH1 0x82 SHL PUSH1 0x44 DUP3 ADD MSTORE PUSH1 0x64 ADD PUSH2 0x443 JUMP JUMPDEST PUSH1 0x0 DUP1 SLOAD PUSH1 0xFF PUSH1 0xA0 SHL NOT AND PUSH1 0x1 PUSH1 0xA0 SHL OR SWAP1 SSTORE PUSH32 0x62E78CEA01BEE320CD4E420270B5EA74000D11B0C9F74754EBDBFC544B05A258 PUSH2 0xD8C CALLER SWAP1 JUMP JUMPDEST DUP1 CALLDATALOAD PUSH1 0x1 PUSH1 0x1 PUSH1 0xA0 SHL SUB DUP2 AND DUP2 EQ PUSH2 0xE98 JUMPI PUSH1 0x0 DUP1 REVERT JUMPDEST SWAP2 SWAP1 POP JUMP JUMPDEST PUSH1 0x0 PUSH1 0x20 DUP3 DUP5 SUB SLT ISZERO PUSH2 0xEAF JUMPI PUSH1 0x0 DUP1 REVERT JUMPDEST PUSH2 0xEB8 DUP3 PUSH2 0xE81 JUMP JUMPDEST SWAP4 SWAP3 POP POP POP JUMP JUMPDEST PUSH1 0x0 DUP1 PUSH1 0x40 DUP4 DUP6 SUB SLT ISZERO PUSH2 0xED2 JUMPI PUSH1 0x0 DUP1 REVERT JUMPDEST PUSH2 0xEDB DUP4 PUSH2 0xE81 JUMP JUMPDEST SWAP5 PUSH1 0x20 SWAP4 SWAP1 SWAP4 ADD CALLDATALOAD SWAP4 POP POP POP JUMP JUMPDEST PUSH1 0x0 PUSH1 0x20 DUP3 DUP5 SUB SLT ISZERO PUSH2 0xEFB JUMPI PUSH1 0x0 DUP1 REVERT JUMPDEST DUP2 MLOAD DUP1 ISZERO ISZERO DUP2 EQ PUSH2 0xEB8 JUMPI PUSH1 0x0 DUP1 REVERT JUMPDEST PUSH1 0x0 PUSH1 0x20 DUP3 DUP5 SUB SLT ISZERO PUSH2 0xF1D JUMPI PUSH1 0x0 DUP1 REVERT JUMPDEST POP CALLDATALOAD SWAP2 SWAP1 POP JUMP JUMPDEST PUSH1 0x0 DUP1 PUSH1 0x40 DUP4 DUP6 SUB SLT ISZERO PUSH2 0xF37 JUMPI PUSH1 0x0 DUP1 REVERT JUMPDEST POP POP DUP1 CALLDATALOAD SWAP3 PUSH1 0x20 SWAP1 SWAP2 ADD CALLDATALOAD SWAP2 POP JUMP JUMPDEST PUSH1 0x1 PUSH1 0x1 PUSH1 0xA0 SHL SUB SWAP4 SWAP1 SWAP4 AND DUP4 MSTORE PUSH1 0x20 DUP4 ADD SWAP2 SWAP1 SWAP2 MSTORE PUSH1 0x40 DUP3 ADD MSTORE PUSH1 0x60 ADD SWAP1 JUMP JUMPDEST PUSH1 0x20 DUP1 DUP3 MSTORE DUP2 DUP2 ADD MSTORE PUSH32 0x4F776E61626C653A2063616C6C6572206973206E6F7420746865206F776E6572 PUSH1 0x40 DUP3 ADD MSTORE PUSH1 0x60 ADD SWAP1 JUMP JUMPDEST DUP4 MLOAD DUP2 MSTORE PUSH1 0x20 DUP1 DUP6 ADD MLOAD DUP2 DUP4 ADD MSTORE DUP4 MLOAD PUSH1 0x40 DUP4 ADD MSTORE DUP4 DUP2 ADD MLOAD PUSH1 0x60 DUP4 ADD MSTORE DUP3 MLOAD PUSH1 0x80 DUP4 ADD MSTORE DUP3 ADD MLOAD PUSH1 0xA0 DUP3 ADD MSTORE PUSH1 0xC0 DUP2 ADD JUMPDEST SWAP5 SWAP4 POP POP POP POP JUMP JUMPDEST DUP4 MLOAD DUP2 MSTORE PUSH1 0x20 DUP1 DUP6 ADD MLOAD DUP2 DUP4 ADD MSTORE PUSH1 0x40 DUP1 DUP7 ADD MLOAD DUP2 DUP5 ADD MSTORE DUP5 MLOAD PUSH1 0x60 DUP5 ADD MSTORE DUP5 DUP3 ADD MLOAD PUSH1 0x80 DUP5 ADD MSTORE DUP5 DUP2 ADD MLOAD PUSH1 0xA0 DUP5 ADD MSTORE DUP4 MLOAD PUSH1 0xC0 DUP5 ADD MSTORE SWAP1 DUP4 ADD MLOAD PUSH1 0xE0 DUP4 ADD MSTORE DUP3 ADD MLOAD PUSH2 0x100 DUP3 ADD MSTORE PUSH2 0x120 DUP2 ADD PUSH2 0xFCE JUMP JUMPDEST PUSH1 0x0 DUP3 NOT DUP3 GT ISZERO PUSH2 0x103D JUMPI PUSH2 0x103D PUSH2 0x109A JUMP JUMPDEST POP ADD SWAP1 JUMP JUMPDEST PUSH1 0x0 DUP3 PUSH2 0x105F JUMPI PUSH4 0x4E487B71 PUSH1 0xE0 SHL PUSH1 0x0 MSTORE PUSH1 0x12 PUSH1 0x4 MSTORE PUSH1 0x24 PUSH1 0x0 REVERT JUMPDEST POP DIV SWAP1 JUMP JUMPDEST PUSH1 0x0 DUP2 PUSH1 0x0 NOT DIV DUP4 GT DUP3 ISZERO ISZERO AND ISZERO PUSH2 0x107E JUMPI PUSH2 0x107E PUSH2 0x109A JUMP JUMPDEST POP MUL SWAP1 JUMP JUMPDEST PUSH1 0x0 DUP3 DUP3 LT ISZERO PUSH2 0x1095 JUMPI PUSH2 0x1095 PUSH2 0x109A JUMP JUMPDEST POP SUB SWAP1 JUMP JUMPDEST PUSH4 0x4E487B71 PUSH1 0xE0 SHL PUSH1 0x0 MSTORE PUSH1 0x11 PUSH1 0x4 MSTORE PUSH1 0x24 PUSH1 0x0 REVERT INVALID LOG2 PUSH5 0x6970667358 0x22 SLT KECCAK256 CALLCODE ORIGIN 0xF 0xE7 PUSH6 0x9CAC3229ADC6 ADDRESS 0x2C SWAP1 DUP16 0xB7 0xA9 DELEGATECALL RETURN INVALID 0xC5 LOG1 EXTCODESIZE LOG4 INVALID 0xCE LOG2 0xE8 PUSH21 0x28565264736F6C6343000807003300000000000000 "
				},
				"gasEstimates": {
					"creation": {
						"codeDepositCost": "865200",
						"executionCost": "infinite",
						"totalCost": "infinite"
					},
					"external": {
						"acceptedToken()": "2360",
						"calculateRewards(address,uint256)": "infinite",
						"claim(uint256)": "infinite",
						"compound(uint256)": "infinite",
						"deposit(uint256,uint256)": "infinite",
						"getLevelsInfo()": "13334",
						"getUserInfo(address)": "20430",
						"levelInfo(uint256)": "4643",
						"owner()": "2376",
						"pause()": "29802",
						"paused()": "2354",
						"renounceOwnership()": "28203",
						"transferOwnership(address)": "28397",
						"unpause()": "29818",
						"userLevelDeposit(address,uint256)": "6891",
						"withdraw(uint256,uint256)": "infinite"
					}
				},
				"methodIdentifiers": {
					"acceptedToken()": "451c3d80",
					"calculateRewards(address,uint256)": "beb8314c",
					"claim(uint256)": "379607f5",
					"compound(uint256)": "aa5f7e26",
					"deposit(uint256,uint256)": "e2bbb158",
					"getLevelsInfo()": "e788cee5",
					"getUserInfo(address)": "6386c1c7",
					"levelInfo(uint256)": "edf501ad",
					"owner()": "8da5cb5b",
					"pause()": "8456cb59",
					"paused()": "5c975abb",
					"renounceOwnership()": "715018a6",
					"transferOwnership(address)": "f2fde38b",
					"unpause()": "3f4ba83a",
					"userLevelDeposit(address,uint256)": "259ee752",
					"withdraw(uint256,uint256)": "441a3e70"
				}
			},
			"storageLayout": {
				"storage": [
					{
						"astId": 7,
						"contract": "staking.sol:AcesStaking",
						"label": "_owner",
						"offset": 0,
						"slot": "0",
						"type": "t_address"
					},
					{
						"astId": 122,
						"contract": "staking.sol:AcesStaking",
						"label": "_paused",
						"offset": 20,
						"slot": "0",
						"type": "t_bool"
					},
					{
						"astId": 308,
						"contract": "staking.sol:AcesStaking",
						"label": "acceptedToken",
						"offset": 0,
						"slot": "1",
						"type": "t_contract(IERC20)274"
					},
					{
						"astId": 327,
						"contract": "staking.sol:AcesStaking",
						"label": "userLevelDeposit",
						"offset": 0,
						"slot": "2",
						"type": "t_mapping(t_address,t_mapping(t_uint256,t_struct(User)315_storage))"
					},
					{
						"astId": 332,
						"contract": "staking.sol:AcesStaking",
						"label": "levelInfo",
						"offset": 0,
						"slot": "3",
						"type": "t_mapping(t_uint256,t_struct(Level)320_storage)"
					}
				],
				"types": {
					"t_address": {
						"encoding": "inplace",
						"label": "address",
						"numberOfBytes": "20"
					},
					"t_bool": {
						"encoding": "inplace",
						"label": "bool",
						"numberOfBytes": "1"
					},
					"t_contract(IERC20)274": {
						"encoding": "inplace",
						"label": "contract IERC20",
						"numberOfBytes": "20"
					},
					"t_mapping(t_address,t_mapping(t_uint256,t_struct(User)315_storage))": {
						"encoding": "mapping",
						"key": "t_address",
						"label": "mapping(address => mapping(uint256 => struct AcesStaking.User))",
						"numberOfBytes": "32",
						"value": "t_mapping(t_uint256,t_struct(User)315_storage)"
					},
					"t_mapping(t_uint256,t_struct(Level)320_storage)": {
						"encoding": "mapping",
						"key": "t_uint256",
						"label": "mapping(uint256 => struct AcesStaking.Level)",
						"numberOfBytes": "32",
						"value": "t_struct(Level)320_storage"
					},
					"t_mapping(t_uint256,t_struct(User)315_storage)": {
						"encoding": "mapping",
						"key": "t_uint256",
						"label": "mapping(uint256 => struct AcesStaking.User)",
						"numberOfBytes": "32",
						"value": "t_struct(User)315_storage"
					},
					"t_struct(Level)320_storage": {
						"encoding": "inplace",
						"label": "struct AcesStaking.Level",
						"members": [
							{
								"astId": 317,
								"contract": "staking.sol:AcesStaking",
								"label": "APY",
								"offset": 0,
								"slot": "0",
								"type": "t_uint256"
							},
							{
								"astId": 319,
								"contract": "staking.sol:AcesStaking",
								"label": "lockPeriod",
								"offset": 0,
								"slot": "1",
								"type": "t_uint256"
							}
						],
						"numberOfBytes": "64"
					},
					"t_struct(User)315_storage": {
						"encoding": "inplace",
						"label": "struct AcesStaking.User",
						"members": [
							{
								"astId": 310,
								"contract": "staking.sol:AcesStaking",
								"label": "balance",
								"offset": 0,
								"slot": "0",
								"type": "t_uint256"
							},
							{
								"astId": 312,
								"contract": "staking.sol:AcesStaking",
								"label": "started",
								"offset": 0,
								"slot": "1",
								"type": "t_uint256"
							},
							{
								"astId": 314,
								"contract": "staking.sol:AcesStaking",
								"label": "unlockTime",
								"offset": 0,
								"slot": "2",
								"type": "t_uint256"
							}
						],
						"numberOfBytes": "96"
					},
					"t_uint256": {
						"encoding": "inplace",
						"label": "uint256",
						"numberOfBytes": "32"
					}
				}
			},
			"userdoc": {
				"kind": "user",
				"methods": {},
				"version": 1
			}
		}
	}
}