{
	"lotto.sol": {
		"ACELotto": {
			"abi": [
				{
					"inputs": [
						{
							"internalType": "address",
							"name": "_aces",
							"type": "address"
						},
						{
							"internalType": "address",
							"name": "_swap",
							"type": "address"
						}
					],
					"stateMutability": "nonpayable",
					"type": "constructor"
				},
				{
					"anonymous": false,
					"inputs": [
						{
							"indexed": false,
							"internalType": "address",
							"name": "winner",
							"type": "address"
						},
						{
							"indexed": false,
							"internalType": "uint256",
							"name": "amount",
							"type": "uint256"
						}
					],
					"name": "LotteryWon",
					"type": "event"
				},
				{
					"inputs": [],
					"name": "acesSwap",
					"outputs": [
						{
							"internalType": "address",
							"name": "",
							"type": "address"
						}
					],
					"stateMutability": "view",
					"type": "function"
				},
				{
					"inputs": [],
					"name": "acesToken",
					"outputs": [
						{
							"internalType": "contract IERC20",
							"name": "",
							"type": "address"
						}
					],
					"stateMutability": "view",
					"type": "function"
				},
				{
					"inputs": [],
					"name": "currentJackpot",
					"outputs": [
						{
							"internalType": "uint256",
							"name": "",
							"type": "uint256"
						}
					],
					"stateMutability": "view",
					"type": "function"
				},
				{
					"inputs": [],
					"name": "enterLotto",
					"outputs": [],
					"stateMutability": "nonpayable",
					"type": "function"
				},
				{
					"inputs": [
						{
							"internalType": "uint256",
							"name": "",
							"type": "uint256"
						},
						{
							"internalType": "address",
							"name": "",
							"type": "address"
						}
					],
					"name": "entriesPerRound",
					"outputs": [
						{
							"internalType": "uint256",
							"name": "",
							"type": "uint256"
						}
					],
					"stateMutability": "view",
					"type": "function"
				},
				{
					"inputs": [
						{
							"internalType": "address",
							"name": "",
							"type": "address"
						}
					],
					"name": "lastBalanceRecorded",
					"outputs": [
						{
							"internalType": "uint256",
							"name": "",
							"type": "uint256"
						}
					],
					"stateMutability": "view",
					"type": "function"
				},
				{
					"inputs": [
						{
							"internalType": "address",
							"name": "",
							"type": "address"
						}
					],
					"name": "lastRoundEntered",
					"outputs": [
						{
							"internalType": "uint256",
							"name": "",
							"type": "uint256"
						}
					],
					"stateMutability": "view",
					"type": "function"
				},
				{
					"inputs": [],
					"name": "roundDuration",
					"outputs": [
						{
							"internalType": "uint256",
							"name": "",
							"type": "uint256"
						}
					],
					"stateMutability": "view",
					"type": "function"
				},
				{
					"inputs": [],
					"name": "roundEntries",
					"outputs": [
						{
							"internalType": "uint256",
							"name": "",
							"type": "uint256"
						}
					],
					"stateMutability": "view",
					"type": "function"
				},
				{
					"inputs": [
						{
							"internalType": "uint256",
							"name": "",
							"type": "uint256"
						}
					],
					"name": "roundEntry",
					"outputs": [
						{
							"internalType": "address",
							"name": "",
							"type": "address"
						}
					],
					"stateMutability": "view",
					"type": "function"
				},
				{
					"inputs": [],
					"name": "roundNum",
					"outputs": [
						{
							"internalType": "uint256",
							"name": "",
							"type": "uint256"
						}
					],
					"stateMutability": "view",
					"type": "function"
				},
				{
					"inputs": [
						{
							"internalType": "uint256",
							"name": "",
							"type": "uint256"
						}
					],
					"name": "roundResults",
					"outputs": [
						{
							"internalType": "uint256",
							"name": "totalEntries",
							"type": "uint256"
						},
						{
							"internalType": "uint256",
							"name": "winningNumber",
							"type": "uint256"
						},
						{
							"internalType": "uint256",
							"name": "payout",
							"type": "uint256"
						},
						{
							"internalType": "uint256",
							"name": "endTime",
							"type": "uint256"
						},
						{
							"internalType": "address",
							"name": "winningAddress",
							"type": "address"
						}
					],
					"stateMutability": "view",
					"type": "function"
				},
				{
					"inputs": [],
					"name": "startTime",
					"outputs": [
						{
							"internalType": "uint256",
							"name": "",
							"type": "uint256"
						}
					],
					"stateMutability": "view",
					"type": "function"
				},
				{
					"inputs": [
						{
							"internalType": "address",
							"name": "_user",
							"type": "address"
						},
						{
							"internalType": "uint256",
							"name": "_entries",
							"type": "uint256"
						}
					],
					"name": "swapAddEntry",
					"outputs": [],
					"stateMutability": "nonpayable",
					"type": "function"
				},
				{
					"inputs": [],
					"name": "ticketPrice",
					"outputs": [
						{
							"internalType": "uint256",
							"name": "",
							"type": "uint256"
						}
					],
					"stateMutability": "view",
					"type": "function"
				},
				{
					"inputs": [],
					"name": "totalPayout",
					"outputs": [
						{
							"internalType": "uint256",
							"name": "",
							"type": "uint256"
						}
					],
					"stateMutability": "view",
					"type": "function"
				}
			],
			"devdoc": {
				"kind": "dev",
				"methods": {},
				"version": 1
			},
			"evm": {
				"assembly": "    /* \"lotto.sol\":173:1949  contract ACELotto {\r... */\n  mstore(0x40, 0x80)\n    /* \"lotto.sol\":365:377  250000 ether */\n  0x34f086f3b33b68400000\n    /* \"lotto.sol\":336:377  uint256 public ticketPrice = 250000 ether */\n  0x04\n  sstore\n    /* \"lotto.sol\":415:419  3600 */\n  0x0e10\n    /* \"lotto.sol\":384:419  uint256 public roundDuration = 3600 */\n  0x05\n  sstore\n    /* \"lotto.sol\":1064:1176  constructor(address _aces, address _swap){\r... */\n  callvalue\n  dup1\n  iszero\n  tag_1\n  jumpi\n  0x00\n  dup1\n  revert\ntag_1:\n  pop\n  mload(0x40)\n  sub(codesize, bytecodeSize)\n  dup1\n  bytecodeSize\n  dup4\n  codecopy\n  dup2\n  dup2\n  add\n  0x40\n  mstore\n  dup2\n  add\n  swap1\n  tag_2\n  swap2\n  swap1\n  tag_3\n  jump\t// in\ntag_2:\n    /* \"lotto.sol\":1135:1140  _aces */\n  dup2\n    /* \"lotto.sol\":1116:1125  acesToken */\n  0x07\n  0x00\n    /* \"lotto.sol\":1116:1141  acesToken = IERC20(_aces) */\n  0x0100\n  exp\n  dup2\n  sload\n  dup2\n  0xffffffffffffffffffffffffffffffffffffffff\n  mul\n  not\n  and\n  swap1\n  dup4\n  0xffffffffffffffffffffffffffffffffffffffff\n  and\n  mul\n  or\n  swap1\n  sstore\n  pop\n    /* \"lotto.sol\":1163:1168  _swap */\n  dup1\n    /* \"lotto.sol\":1152:1160  acesSwap */\n  0x08\n  0x00\n    /* \"lotto.sol\":1152:1168  acesSwap = _swap */\n  0x0100\n  exp\n  dup2\n  sload\n  dup2\n  0xffffffffffffffffffffffffffffffffffffffff\n  mul\n  not\n  and\n  swap1\n  dup4\n  0xffffffffffffffffffffffffffffffffffffffff\n  and\n  mul\n  or\n  swap1\n  sstore\n  pop\n    /* \"lotto.sol\":1064:1176  constructor(address _aces, address _swap){\r... */\n  pop\n  pop\n    /* \"lotto.sol\":173:1949  contract ACELotto {\r... */\n  jump(tag_6)\n    /* \"#utility.yul\":7:150   */\ntag_8:\n    /* \"#utility.yul\":64:69   */\n  0x00\n    /* \"#utility.yul\":95:101   */\n  dup2\n    /* \"#utility.yul\":89:102   */\n  mload\n    /* \"#utility.yul\":80:102   */\n  swap1\n  pop\n    /* \"#utility.yul\":111:144   */\n  tag_10\n    /* \"#utility.yul\":138:143   */\n  dup2\n    /* \"#utility.yul\":111:144   */\n  tag_11\n  jump\t// in\ntag_10:\n    /* \"#utility.yul\":7:150   */\n  swap3\n  swap2\n  pop\n  pop\n  jump\t// out\n    /* \"#utility.yul\":156:663   */\ntag_3:\n    /* \"#utility.yul\":235:241   */\n  0x00\n    /* \"#utility.yul\":243:249   */\n  dup1\n    /* \"#utility.yul\":292:294   */\n  0x40\n    /* \"#utility.yul\":280:289   */\n  dup4\n    /* \"#utility.yul\":271:278   */\n  dup6\n    /* \"#utility.yul\":267:290   */\n  sub\n    /* \"#utility.yul\":263:295   */\n  slt\n    /* \"#utility.yul\":260:379   */\n  iszero\n  tag_13\n  jumpi\n    /* \"#utility.yul\":298:377   */\n  tag_14\n  tag_15\n  jump\t// in\ntag_14:\n    /* \"#utility.yul\":260:379   */\ntag_13:\n    /* \"#utility.yul\":418:419   */\n  0x00\n    /* \"#utility.yul\":443:507   */\n  tag_16\n    /* \"#utility.yul\":499:506   */\n  dup6\n    /* \"#utility.yul\":490:496   */\n  dup3\n    /* \"#utility.yul\":479:488   */\n  dup7\n    /* \"#utility.yul\":475:497   */\n  add\n    /* \"#utility.yul\":443:507   */\n  tag_8\n  jump\t// in\ntag_16:\n    /* \"#utility.yul\":433:507   */\n  swap3\n  pop\n    /* \"#utility.yul\":389:517   */\n  pop\n    /* \"#utility.yul\":556:558   */\n  0x20\n    /* \"#utility.yul\":582:646   */\n  tag_17\n    /* \"#utility.yul\":638:645   */\n  dup6\n    /* \"#utility.yul\":629:635   */\n  dup3\n    /* \"#utility.yul\":618:627   */\n  dup7\n    /* \"#utility.yul\":614:636   */\n  add\n    /* \"#utility.yul\":582:646   */\n  tag_8\n  jump\t// in\ntag_17:\n    /* \"#utility.yul\":572:646   */\n  swap2\n  pop\n    /* \"#utility.yul\":527:656   */\n  pop\n    /* \"#utility.yul\":156:663   */\n  swap3\n  pop\n  swap3\n  swap1\n  pop\n  jump\t// out\n    /* \"#utility.yul\":750:846   */\ntag_20:\n    /* \"#utility.yul\":787:794   */\n  0x00\n    /* \"#utility.yul\":816:840   */\n  tag_22\n    /* \"#utility.yul\":834:839   */\n  dup3\n    /* \"#utility.yul\":816:840   */\n  tag_23\n  jump\t// in\ntag_22:\n    /* \"#utility.yul\":805:840   */\n  swap1\n  pop\n    /* \"#utility.yul\":750:846   */\n  swap2\n  swap1\n  pop\n  jump\t// out\n    /* \"#utility.yul\":852:978   */\ntag_23:\n    /* \"#utility.yul\":889:896   */\n  0x00\n    /* \"#utility.yul\":929:971   */\n  0xffffffffffffffffffffffffffffffffffffffff\n    /* \"#utility.yul\":922:927   */\n  dup3\n    /* \"#utility.yul\":918:972   */\n  and\n    /* \"#utility.yul\":907:972   */\n  swap1\n  pop\n    /* \"#utility.yul\":852:978   */\n  swap2\n  swap1\n  pop\n  jump\t// out\n    /* \"#utility.yul\":1107:1224   */\ntag_15:\n    /* \"#utility.yul\":1216:1217   */\n  0x00\n    /* \"#utility.yul\":1213:1214   */\n  dup1\n    /* \"#utility.yul\":1206:1218   */\n  revert\n    /* \"#utility.yul\":1230:1352   */\ntag_11:\n    /* \"#utility.yul\":1303:1327   */\n  tag_29\n    /* \"#utility.yul\":1321:1326   */\n  dup2\n    /* \"#utility.yul\":1303:1327   */\n  tag_20\n  jump\t// in\ntag_29:\n    /* \"#utility.yul\":1296:1301   */\n  dup2\n    /* \"#utility.yul\":1293:1328   */\n  eq\n    /* \"#utility.yul\":1283:1346   */\n  tag_30\n  jumpi\n    /* \"#utility.yul\":1342:1343   */\n  0x00\n    /* \"#utility.yul\":1339:1340   */\n  dup1\n    /* \"#utility.yul\":1332:1344   */\n  revert\n    /* \"#utility.yul\":1283:1346   */\ntag_30:\n    /* \"#utility.yul\":1230:1352   */\n  pop\n  jump\t// out\n    /* \"lotto.sol\":173:1949  contract ACELotto {\r... */\ntag_6:\n  dataSize(sub_0)\n  dup1\n  dataOffset(sub_0)\n  0x00\n  codecopy\n  0x00\n  return\nstop\n\nsub_0: assembly {\n        /* \"lotto.sol\":173:1949  contract ACELotto {\r... */\n      mstore(0x40, 0x80)\n      callvalue\n      dup1\n      iszero\n      tag_1\n      jumpi\n      0x00\n      dup1\n      revert\n    tag_1:\n      pop\n      jumpi(tag_2, lt(calldatasize, 0x04))\n      shr(0xe0, calldataload(0x00))\n      dup1\n      0x87e537db\n      gt\n      tag_19\n      jumpi\n      dup1\n      0xb657dd65\n      gt\n      tag_20\n      jumpi\n      dup1\n      0xb657dd65\n      eq\n      tag_15\n      jumpi\n      dup1\n      0xcbd9f3e2\n      eq\n      tag_16\n      jumpi\n      dup1\n      0xf7cb789a\n      eq\n      tag_17\n      jumpi\n      dup1\n      0xf9cee0bd\n      eq\n      tag_18\n      jumpi\n      jump(tag_2)\n    tag_20:\n      dup1\n      0x87e537db\n      eq\n      tag_11\n      jumpi\n      dup1\n      0x90b841ec\n      eq\n      tag_12\n      jumpi\n      dup1\n      0x9b3e4552\n      eq\n      tag_13\n      jumpi\n      dup1\n      0xac128f4f\n      eq\n      tag_14\n      jumpi\n      jump(tag_2)\n    tag_19:\n      dup1\n      0x454f7b8f\n      gt\n      tag_21\n      jumpi\n      dup1\n      0x454f7b8f\n      eq\n      tag_7\n      jumpi\n      dup1\n      0x578e3f88\n      eq\n      tag_8\n      jumpi\n      dup1\n      0x76636d20\n      eq\n      tag_9\n      jumpi\n      dup1\n      0x78e97925\n      eq\n      tag_10\n      jumpi\n      jump(tag_2)\n    tag_21:\n      dup1\n      0x0630d448\n      eq\n      tag_3\n      jumpi\n      dup1\n      0x119b22b3\n      eq\n      tag_4\n      jumpi\n      dup1\n      0x1209b1f6\n      eq\n      tag_5\n      jumpi\n      dup1\n      0x2f42a526\n      eq\n      tag_6\n      jumpi\n    tag_2:\n      0x00\n      dup1\n      revert\n        /* \"lotto.sol\":886:937  mapping(address => uint256) public lastRoundEntered */\n    tag_3:\n      tag_22\n      0x04\n      dup1\n      calldatasize\n      sub\n      dup2\n      add\n      swap1\n      tag_23\n      swap2\n      swap1\n      tag_24\n      jump\t// in\n    tag_23:\n      tag_25\n      jump\t// in\n    tag_22:\n      mload(0x40)\n      tag_26\n      swap2\n      swap1\n      tag_27\n      jump\t// in\n    tag_26:\n      mload(0x40)\n      dup1\n      swap2\n      sub\n      swap1\n      return\n        /* \"lotto.sol\":273:296  uint256 public roundNum */\n    tag_4:\n      tag_28\n      tag_29\n      jump\t// in\n    tag_28:\n      mload(0x40)\n      tag_30\n      swap2\n      swap1\n      tag_27\n      jump\t// in\n    tag_30:\n      mload(0x40)\n      dup1\n      swap2\n      sub\n      swap1\n      return\n        /* \"lotto.sol\":336:377  uint256 public ticketPrice = 250000 ether */\n    tag_5:\n      tag_31\n      tag_32\n      jump\t// in\n    tag_31:\n      mload(0x40)\n      tag_33\n      swap2\n      swap1\n      tag_27\n      jump\t// in\n    tag_33:\n      mload(0x40)\n      dup1\n      swap2\n      sub\n      swap1\n      return\n        /* \"lotto.sol\":1713:1865  function swapAddEntry(address _user, uint256 _entries) external {\r... */\n    tag_6:\n      tag_34\n      0x04\n      dup1\n      calldatasize\n      sub\n      dup2\n      add\n      swap1\n      tag_35\n      swap2\n      swap1\n      tag_36\n      jump\t// in\n    tag_35:\n      tag_37\n      jump\t// in\n    tag_34:\n      stop\n        /* \"lotto.sol\":303:329  uint256 public totalPayout */\n    tag_7:\n      tag_38\n      tag_39\n      jump\t// in\n    tag_38:\n      mload(0x40)\n      tag_40\n      swap2\n      swap1\n      tag_27\n      jump\t// in\n    tag_40:\n      mload(0x40)\n      dup1\n      swap2\n      sub\n      swap1\n      return\n        /* \"lotto.sol\":809:879  mapping(uint256 => mapping(address => uint256)) public entriesPerRound */\n    tag_8:\n      tag_41\n      0x04\n      dup1\n      calldatasize\n      sub\n      dup2\n      add\n      swap1\n      tag_42\n      swap2\n      swap1\n      tag_43\n      jump\t// in\n    tag_42:\n      tag_44\n      jump\t// in\n    tag_41:\n      mload(0x40)\n      tag_45\n      swap2\n      swap1\n      tag_27\n      jump\t// in\n    tag_45:\n      mload(0x40)\n      dup1\n      swap2\n      sub\n      swap1\n      return\n        /* \"lotto.sol\":239:266  uint256 public roundEntries */\n    tag_9:\n      tag_46\n      tag_47\n      jump\t// in\n    tag_46:\n      mload(0x40)\n      tag_48\n      swap2\n      swap1\n      tag_27\n      jump\t// in\n    tag_48:\n      mload(0x40)\n      dup1\n      swap2\n      sub\n      swap1\n      return\n        /* \"lotto.sol\":426:450  uint256 public startTime */\n    tag_10:\n      tag_49\n      tag_50\n      jump\t// in\n    tag_49:\n      mload(0x40)\n      tag_51\n      swap2\n      swap1\n      tag_27\n      jump\t// in\n    tag_51:\n      mload(0x40)\n      dup1\n      swap2\n      sub\n      swap1\n      return\n        /* \"lotto.sol\":489:512  address public acesSwap */\n    tag_11:\n      tag_52\n      tag_53\n      jump\t// in\n    tag_52:\n      mload(0x40)\n      tag_54\n      swap2\n      swap1\n      tag_55\n      jump\t// in\n    tag_54:\n      mload(0x40)\n      dup1\n      swap2\n      sub\n      swap1\n      return\n        /* \"lotto.sol\":1184:1705  function enterLotto() external {\r... */\n    tag_12:\n      tag_56\n      tag_57\n      jump\t// in\n    tag_56:\n      stop\n        /* \"lotto.sol\":459:482  IERC20 public acesToken */\n    tag_13:\n      tag_58\n      tag_59\n      jump\t// in\n    tag_58:\n      mload(0x40)\n      tag_60\n      swap2\n      swap1\n      tag_61\n      jump\t// in\n    tag_60:\n      mload(0x40)\n      dup1\n      swap2\n      sub\n      swap1\n      return\n        /* \"lotto.sol\":703:750  mapping(uint256 => Results) public roundResults */\n    tag_14:\n      tag_62\n      0x04\n      dup1\n      calldatasize\n      sub\n      dup2\n      add\n      swap1\n      tag_63\n      swap2\n      swap1\n      tag_64\n      jump\t// in\n    tag_63:\n      tag_65\n      jump\t// in\n    tag_62:\n      mload(0x40)\n      tag_66\n      swap6\n      swap5\n      swap4\n      swap3\n      swap2\n      swap1\n      tag_67\n      jump\t// in\n    tag_66:\n      mload(0x40)\n      dup1\n      swap2\n      sub\n      swap1\n      return\n        /* \"lotto.sol\":757:802  mapping(uint256 => address) public roundEntry */\n    tag_15:\n      tag_68\n      0x04\n      dup1\n      calldatasize\n      sub\n      dup2\n      add\n      swap1\n      tag_69\n      swap2\n      swap1\n      tag_64\n      jump\t// in\n    tag_69:\n      tag_70\n      jump\t// in\n    tag_68:\n      mload(0x40)\n      tag_71\n      swap2\n      swap1\n      tag_55\n      jump\t// in\n    tag_71:\n      mload(0x40)\n      dup1\n      swap2\n      sub\n      swap1\n      return\n        /* \"lotto.sol\":944:998  mapping(address => uint256) public lastBalanceRecorded */\n    tag_16:\n      tag_72\n      0x04\n      dup1\n      calldatasize\n      sub\n      dup2\n      add\n      swap1\n      tag_73\n      swap2\n      swap1\n      tag_24\n      jump\t// in\n    tag_73:\n      tag_74\n      jump\t// in\n    tag_72:\n      mload(0x40)\n      tag_75\n      swap2\n      swap1\n      tag_27\n      jump\t// in\n    tag_75:\n      mload(0x40)\n      dup1\n      swap2\n      sub\n      swap1\n      return\n        /* \"lotto.sol\":384:419  uint256 public roundDuration = 3600 */\n    tag_17:\n      tag_76\n      tag_77\n      jump\t// in\n    tag_76:\n      mload(0x40)\n      tag_78\n      swap2\n      swap1\n      tag_27\n      jump\t// in\n    tag_78:\n      mload(0x40)\n      dup1\n      swap2\n      sub\n      swap1\n      return\n        /* \"lotto.sol\":203:232  uint256 public currentJackpot */\n    tag_18:\n      tag_79\n      tag_80\n      jump\t// in\n    tag_79:\n      mload(0x40)\n      tag_81\n      swap2\n      swap1\n      tag_27\n      jump\t// in\n    tag_81:\n      mload(0x40)\n      dup1\n      swap2\n      sub\n      swap1\n      return\n        /* \"lotto.sol\":886:937  mapping(address => uint256) public lastRoundEntered */\n    tag_25:\n      mstore(0x20, 0x0c)\n      dup1\n      0x00\n      mstore\n      keccak256(0x00, 0x40)\n      0x00\n      swap2\n      pop\n      swap1\n      pop\n      sload\n      dup2\n      jump\t// out\n        /* \"lotto.sol\":273:296  uint256 public roundNum */\n    tag_29:\n      sload(0x02)\n      dup2\n      jump\t// out\n        /* \"lotto.sol\":336:377  uint256 public ticketPrice = 250000 ether */\n    tag_32:\n      sload(0x04)\n      dup2\n      jump\t// out\n        /* \"lotto.sol\":1713:1865  function swapAddEntry(address _user, uint256 _entries) external {\r... */\n    tag_37:\n        /* \"lotto.sol\":1810:1818  acesSwap */\n      0x08\n      0x00\n      swap1\n      sload\n      swap1\n      0x0100\n      exp\n      swap1\n      div\n      0xffffffffffffffffffffffffffffffffffffffff\n      and\n        /* \"lotto.sol\":1796:1818  msg.sender == acesSwap */\n      0xffffffffffffffffffffffffffffffffffffffff\n      and\n        /* \"lotto.sol\":1796:1806  msg.sender */\n      caller\n        /* \"lotto.sol\":1796:1818  msg.sender == acesSwap */\n      0xffffffffffffffffffffffffffffffffffffffff\n      and\n      eq\n        /* \"lotto.sol\":1788:1855  require(msg.sender == acesSwap, \"Only swap can call this function\") */\n      tag_83\n      jumpi\n      mload(0x40)\n      0x08c379a000000000000000000000000000000000000000000000000000000000\n      dup2\n      mstore\n      0x04\n      add\n      tag_84\n      swap1\n      tag_85\n      jump\t// in\n    tag_84:\n      mload(0x40)\n      dup1\n      swap2\n      sub\n      swap1\n      revert\n    tag_83:\n        /* \"lotto.sol\":1713:1865  function swapAddEntry(address _user, uint256 _entries) external {\r... */\n      pop\n      pop\n      jump\t// out\n        /* \"lotto.sol\":303:329  uint256 public totalPayout */\n    tag_39:\n      sload(0x03)\n      dup2\n      jump\t// out\n        /* \"lotto.sol\":809:879  mapping(uint256 => mapping(address => uint256)) public entriesPerRound */\n    tag_44:\n      mstore(0x20, 0x0b)\n      dup2\n      0x00\n      mstore\n      mstore(0x20, keccak256(0x00, 0x40))\n      dup1\n      0x00\n      mstore\n      keccak256(0x00, 0x40)\n      0x00\n      swap2\n      pop\n      swap2\n      pop\n      pop\n      sload\n      dup2\n      jump\t// out\n        /* \"lotto.sol\":239:266  uint256 public roundEntries */\n    tag_47:\n      sload(0x01)\n      dup2\n      jump\t// out\n        /* \"lotto.sol\":426:450  uint256 public startTime */\n    tag_50:\n      sload(0x06)\n      dup2\n      jump\t// out\n        /* \"lotto.sol\":489:512  address public acesSwap */\n    tag_53:\n      0x08\n      0x00\n      swap1\n      sload\n      swap1\n      0x0100\n      exp\n      swap1\n      div\n      0xffffffffffffffffffffffffffffffffffffffff\n      and\n      dup2\n      jump\t// out\n        /* \"lotto.sol\":1184:1705  function enterLotto() external {\r... */\n    tag_57:\n        /* \"lotto.sol\":1226:1241  address _sender */\n      0x00\n        /* \"lotto.sol\":1244:1254  msg.sender */\n      caller\n        /* \"lotto.sol\":1226:1254  address _sender = msg.sender */\n      swap1\n      pop\n        /* \"lotto.sol\":1265:1284  uint256 userBalance */\n      0x00\n        /* \"lotto.sol\":1287:1296  acesToken */\n      0x07\n      0x00\n      swap1\n      sload\n      swap1\n      0x0100\n      exp\n      swap1\n      div\n      0xffffffffffffffffffffffffffffffffffffffff\n      and\n        /* \"lotto.sol\":1287:1306  acesToken.balanceOf */\n      0xffffffffffffffffffffffffffffffffffffffff\n      and\n      0x70a08231\n        /* \"lotto.sol\":1307:1314  _sender */\n      dup4\n        /* \"lotto.sol\":1287:1315  acesToken.balanceOf(_sender) */\n      mload(0x40)\n      dup3\n      0xffffffff\n      and\n      0xe0\n      shl\n      dup2\n      mstore\n      0x04\n      add\n      tag_87\n      swap2\n      swap1\n      tag_55\n      jump\t// in\n    tag_87:\n      0x20\n      mload(0x40)\n      dup1\n      dup4\n      sub\n      dup2\n      dup7\n      dup1\n      extcodesize\n      iszero\n      dup1\n      iszero\n      tag_88\n      jumpi\n      0x00\n      dup1\n      revert\n    tag_88:\n      pop\n      gas\n      staticcall\n      iszero\n      dup1\n      iszero\n      tag_90\n      jumpi\n      returndatasize\n      0x00\n      dup1\n      returndatacopy\n      revert(0x00, returndatasize)\n    tag_90:\n      pop\n      pop\n      pop\n      pop\n      mload(0x40)\n      returndatasize\n      not(0x1f)\n      0x1f\n      dup3\n      add\n      and\n      dup3\n      add\n      dup1\n      0x40\n      mstore\n      pop\n      dup2\n      add\n      swap1\n      tag_91\n      swap2\n      swap1\n      tag_92\n      jump\t// in\n    tag_91:\n        /* \"lotto.sol\":1265:1315  uint256 userBalance = acesToken.balanceOf(_sender) */\n      swap1\n      pop\n        /* \"lotto.sol\":1326:1341  uint256 entries */\n      0x00\n        /* \"lotto.sol\":1391:1402  ticketPrice */\n      sload(0x04)\n        /* \"lotto.sol\":1359:1378  lastBalanceRecorded */\n      0x0d\n        /* \"lotto.sol\":1359:1387  lastBalanceRecorded[_sender] */\n      0x00\n        /* \"lotto.sol\":1379:1386  _sender */\n      dup6\n        /* \"lotto.sol\":1359:1387  lastBalanceRecorded[_sender] */\n      0xffffffffffffffffffffffffffffffffffffffff\n      and\n      0xffffffffffffffffffffffffffffffffffffffff\n      and\n      dup2\n      mstore\n      0x20\n      add\n      swap1\n      dup2\n      mstore\n      0x20\n      add\n      0x00\n      keccak256\n      sload\n        /* \"lotto.sol\":1345:1356  userBalance */\n      dup4\n        /* \"lotto.sol\":1345:1387  userBalance - lastBalanceRecorded[_sender] */\n      tag_93\n      swap2\n      swap1\n      tag_94\n      jump\t// in\n    tag_93:\n        /* \"lotto.sol\":1344:1402  (userBalance - lastBalanceRecorded[_sender]) % ticketPrice */\n      tag_95\n      swap2\n      swap1\n      tag_96\n      jump\t// in\n    tag_95:\n        /* \"lotto.sol\":1326:1402  uint256 entries = (userBalance - lastBalanceRecorded[_sender]) % ticketPrice */\n      swap1\n      pop\n        /* \"lotto.sol\":1431:1432  0 */\n      0x00\n        /* \"lotto.sol\":1421:1428  entries */\n      dup2\n        /* \"lotto.sol\":1421:1432  entries > 0 */\n      gt\n        /* \"lotto.sol\":1413:1462  require(entries > 0, \"Not enough $ACES to enter\") */\n      tag_97\n      jumpi\n      mload(0x40)\n      0x08c379a000000000000000000000000000000000000000000000000000000000\n      dup2\n      mstore\n      0x04\n      add\n      tag_98\n      swap1\n      tag_99\n      jump\t// in\n    tag_98:\n      mload(0x40)\n      dup1\n      swap2\n      sub\n      swap1\n      revert\n    tag_97:\n        /* \"lotto.sol\":1502:1509  _sender */\n      dup3\n        /* \"lotto.sol\":1475:1485  roundEntry */\n      0x0a\n        /* \"lotto.sol\":1475:1499  roundEntry[roundEntries] */\n      0x00\n        /* \"lotto.sol\":1486:1498  roundEntries */\n      sload(0x01)\n        /* \"lotto.sol\":1475:1499  roundEntry[roundEntries] */\n      dup2\n      mstore\n      0x20\n      add\n      swap1\n      dup2\n      mstore\n      0x20\n      add\n      0x00\n      keccak256\n      0x00\n        /* \"lotto.sol\":1475:1509  roundEntry[roundEntries] = _sender */\n      0x0100\n      exp\n      dup2\n      sload\n      dup2\n      0xffffffffffffffffffffffffffffffffffffffff\n      mul\n      not\n      and\n      swap1\n      dup4\n      0xffffffffffffffffffffffffffffffffffffffff\n      and\n      mul\n      or\n      swap1\n      sstore\n      pop\n        /* \"lotto.sol\":1520:1535  entriesPerRound */\n      0x0b\n        /* \"lotto.sol\":1520:1545  entriesPerRound[roundNum] */\n      0x00\n        /* \"lotto.sol\":1536:1544  roundNum */\n      sload(0x02)\n        /* \"lotto.sol\":1520:1545  entriesPerRound[roundNum] */\n      dup2\n      mstore\n      0x20\n      add\n      swap1\n      dup2\n      mstore\n      0x20\n      add\n      0x00\n      keccak256\n        /* \"lotto.sol\":1520:1554  entriesPerRound[roundNum][_sender] */\n      0x00\n        /* \"lotto.sol\":1546:1553  _sender */\n      dup5\n        /* \"lotto.sol\":1520:1554  entriesPerRound[roundNum][_sender] */\n      0xffffffffffffffffffffffffffffffffffffffff\n      and\n      0xffffffffffffffffffffffffffffffffffffffff\n      and\n      dup2\n      mstore\n      0x20\n      add\n      swap1\n      dup2\n      mstore\n      0x20\n      add\n      0x00\n      keccak256\n      0x00\n        /* \"lotto.sol\":1520:1556  entriesPerRound[roundNum][_sender]++ */\n      dup2\n      sload\n      dup1\n      swap3\n      swap2\n      swap1\n      tag_100\n      swap1\n      tag_101\n      jump\t// in\n    tag_100:\n      swap2\n      swap1\n      pop\n      sstore\n      pop\n        /* \"lotto.sol\":1595:1603  roundNum */\n      sload(0x02)\n        /* \"lotto.sol\":1567:1583  lastRoundEntered */\n      0x0c\n        /* \"lotto.sol\":1567:1592  lastRoundEntered[_sender] */\n      0x00\n        /* \"lotto.sol\":1584:1591  _sender */\n      dup6\n        /* \"lotto.sol\":1567:1592  lastRoundEntered[_sender] */\n      0xffffffffffffffffffffffffffffffffffffffff\n      and\n      0xffffffffffffffffffffffffffffffffffffffff\n      and\n      dup2\n      mstore\n      0x20\n      add\n      swap1\n      dup2\n      mstore\n      0x20\n      add\n      0x00\n      keccak256\n        /* \"lotto.sol\":1567:1603  lastRoundEntered[_sender] = roundNum */\n      dup2\n      swap1\n      sstore\n      pop\n        /* \"lotto.sol\":1652:1663  userBalance */\n      dup2\n        /* \"lotto.sol\":1621:1640  lastBalanceRecorded */\n      0x0d\n        /* \"lotto.sol\":1621:1649  lastBalanceRecorded[_sender] */\n      0x00\n        /* \"lotto.sol\":1641:1648  _sender */\n      dup6\n        /* \"lotto.sol\":1621:1649  lastBalanceRecorded[_sender] */\n      0xffffffffffffffffffffffffffffffffffffffff\n      and\n      0xffffffffffffffffffffffffffffffffffffffff\n      and\n      dup2\n      mstore\n      0x20\n      add\n      swap1\n      dup2\n      mstore\n      0x20\n      add\n      0x00\n      keccak256\n        /* \"lotto.sol\":1621:1663  lastBalanceRecorded[_sender] = userBalance */\n      dup2\n      swap1\n      sstore\n      pop\n        /* \"lotto.sol\":1690:1697  entries */\n      dup1\n        /* \"lotto.sol\":1674:1686  roundEntries */\n      0x01\n      0x00\n        /* \"lotto.sol\":1674:1697  roundEntries += entries */\n      dup3\n      dup3\n      sload\n      tag_102\n      swap2\n      swap1\n      tag_103\n      jump\t// in\n    tag_102:\n      swap3\n      pop\n      pop\n      dup2\n      swap1\n      sstore\n      pop\n        /* \"lotto.sol\":1215:1705  {\r... */\n      pop\n      pop\n      pop\n        /* \"lotto.sol\":1184:1705  function enterLotto() external {\r... */\n      jump\t// out\n        /* \"lotto.sol\":459:482  IERC20 public acesToken */\n    tag_59:\n      0x07\n      0x00\n      swap1\n      sload\n      swap1\n      0x0100\n      exp\n      swap1\n      div\n      0xffffffffffffffffffffffffffffffffffffffff\n      and\n      dup2\n      jump\t// out\n        /* \"lotto.sol\":703:750  mapping(uint256 => Results) public roundResults */\n    tag_65:\n      mstore(0x20, 0x09)\n      dup1\n      0x00\n      mstore\n      keccak256(0x00, 0x40)\n      0x00\n      swap2\n      pop\n      swap1\n      pop\n      dup1\n      0x00\n      add\n      sload\n      swap1\n      dup1\n      0x01\n      add\n      sload\n      swap1\n      dup1\n      0x02\n      add\n      sload\n      swap1\n      dup1\n      0x03\n      add\n      sload\n      swap1\n      dup1\n      0x04\n      add\n      0x00\n      swap1\n      sload\n      swap1\n      0x0100\n      exp\n      swap1\n      div\n      0xffffffffffffffffffffffffffffffffffffffff\n      and\n      swap1\n      pop\n      dup6\n      jump\t// out\n        /* \"lotto.sol\":757:802  mapping(uint256 => address) public roundEntry */\n    tag_70:\n      mstore(0x20, 0x0a)\n      dup1\n      0x00\n      mstore\n      keccak256(0x00, 0x40)\n      0x00\n      swap2\n      pop\n      sload\n      swap1\n      0x0100\n      exp\n      swap1\n      div\n      0xffffffffffffffffffffffffffffffffffffffff\n      and\n      dup2\n      jump\t// out\n        /* \"lotto.sol\":944:998  mapping(address => uint256) public lastBalanceRecorded */\n    tag_74:\n      mstore(0x20, 0x0d)\n      dup1\n      0x00\n      mstore\n      keccak256(0x00, 0x40)\n      0x00\n      swap2\n      pop\n      swap1\n      pop\n      sload\n      dup2\n      jump\t// out\n        /* \"lotto.sol\":384:419  uint256 public roundDuration = 3600 */\n    tag_77:\n      sload(0x05)\n      dup2\n      jump\t// out\n        /* \"lotto.sol\":203:232  uint256 public currentJackpot */\n    tag_80:\n      sload(0x00)\n      dup2\n      jump\t// out\n        /* \"#utility.yul\":7:146   */\n    tag_105:\n        /* \"#utility.yul\":53:58   */\n      0x00\n        /* \"#utility.yul\":91:97   */\n      dup2\n        /* \"#utility.yul\":78:98   */\n      calldataload\n        /* \"#utility.yul\":69:98   */\n      swap1\n      pop\n        /* \"#utility.yul\":107:140   */\n      tag_107\n        /* \"#utility.yul\":134:139   */\n      dup2\n        /* \"#utility.yul\":107:140   */\n      tag_108\n      jump\t// in\n    tag_107:\n        /* \"#utility.yul\":7:146   */\n      swap3\n      swap2\n      pop\n      pop\n      jump\t// out\n        /* \"#utility.yul\":152:291   */\n    tag_109:\n        /* \"#utility.yul\":198:203   */\n      0x00\n        /* \"#utility.yul\":236:242   */\n      dup2\n        /* \"#utility.yul\":223:243   */\n      calldataload\n        /* \"#utility.yul\":214:243   */\n      swap1\n      pop\n        /* \"#utility.yul\":252:285   */\n      tag_111\n        /* \"#utility.yul\":279:284   */\n      dup2\n        /* \"#utility.yul\":252:285   */\n      tag_112\n      jump\t// in\n    tag_111:\n        /* \"#utility.yul\":152:291   */\n      swap3\n      swap2\n      pop\n      pop\n      jump\t// out\n        /* \"#utility.yul\":297:440   */\n    tag_113:\n        /* \"#utility.yul\":354:359   */\n      0x00\n        /* \"#utility.yul\":385:391   */\n      dup2\n        /* \"#utility.yul\":379:392   */\n      mload\n        /* \"#utility.yul\":370:392   */\n      swap1\n      pop\n        /* \"#utility.yul\":401:434   */\n      tag_115\n        /* \"#utility.yul\":428:433   */\n      dup2\n        /* \"#utility.yul\":401:434   */\n      tag_112\n      jump\t// in\n    tag_115:\n        /* \"#utility.yul\":297:440   */\n      swap3\n      swap2\n      pop\n      pop\n      jump\t// out\n        /* \"#utility.yul\":446:775   */\n    tag_24:\n        /* \"#utility.yul\":505:511   */\n      0x00\n        /* \"#utility.yul\":554:556   */\n      0x20\n        /* \"#utility.yul\":542:551   */\n      dup3\n        /* \"#utility.yul\":533:540   */\n      dup5\n        /* \"#utility.yul\":529:552   */\n      sub\n        /* \"#utility.yul\":525:557   */\n      slt\n        /* \"#utility.yul\":522:641   */\n      iszero\n      tag_117\n      jumpi\n        /* \"#utility.yul\":560:639   */\n      tag_118\n      tag_119\n      jump\t// in\n    tag_118:\n        /* \"#utility.yul\":522:641   */\n    tag_117:\n        /* \"#utility.yul\":680:681   */\n      0x00\n        /* \"#utility.yul\":705:758   */\n      tag_120\n        /* \"#utility.yul\":750:757   */\n      dup5\n        /* \"#utility.yul\":741:747   */\n      dup3\n        /* \"#utility.yul\":730:739   */\n      dup6\n        /* \"#utility.yul\":726:748   */\n      add\n        /* \"#utility.yul\":705:758   */\n      tag_105\n      jump\t// in\n    tag_120:\n        /* \"#utility.yul\":695:758   */\n      swap2\n      pop\n        /* \"#utility.yul\":651:768   */\n      pop\n        /* \"#utility.yul\":446:775   */\n      swap3\n      swap2\n      pop\n      pop\n      jump\t// out\n        /* \"#utility.yul\":781:1255   */\n    tag_36:\n        /* \"#utility.yul\":849:855   */\n      0x00\n        /* \"#utility.yul\":857:863   */\n      dup1\n        /* \"#utility.yul\":906:908   */\n      0x40\n        /* \"#utility.yul\":894:903   */\n      dup4\n        /* \"#utility.yul\":885:892   */\n      dup6\n        /* \"#utility.yul\":881:904   */\n      sub\n        /* \"#utility.yul\":877:909   */\n      slt\n        /* \"#utility.yul\":874:993   */\n      iszero\n      tag_122\n      jumpi\n        /* \"#utility.yul\":912:991   */\n      tag_123\n      tag_119\n      jump\t// in\n    tag_123:\n        /* \"#utility.yul\":874:993   */\n    tag_122:\n        /* \"#utility.yul\":1032:1033   */\n      0x00\n        /* \"#utility.yul\":1057:1110   */\n      tag_124\n        /* \"#utility.yul\":1102:1109   */\n      dup6\n        /* \"#utility.yul\":1093:1099   */\n      dup3\n        /* \"#utility.yul\":1082:1091   */\n      dup7\n        /* \"#utility.yul\":1078:1100   */\n      add\n        /* \"#utility.yul\":1057:1110   */\n      tag_105\n      jump\t// in\n    tag_124:\n        /* \"#utility.yul\":1047:1110   */\n      swap3\n      pop\n        /* \"#utility.yul\":1003:1120   */\n      pop\n        /* \"#utility.yul\":1159:1161   */\n      0x20\n        /* \"#utility.yul\":1185:1238   */\n      tag_125\n        /* \"#utility.yul\":1230:1237   */\n      dup6\n        /* \"#utility.yul\":1221:1227   */\n      dup3\n        /* \"#utility.yul\":1210:1219   */\n      dup7\n        /* \"#utility.yul\":1206:1228   */\n      add\n        /* \"#utility.yul\":1185:1238   */\n      tag_109\n      jump\t// in\n    tag_125:\n        /* \"#utility.yul\":1175:1238   */\n      swap2\n      pop\n        /* \"#utility.yul\":1130:1248   */\n      pop\n        /* \"#utility.yul\":781:1255   */\n      swap3\n      pop\n      swap3\n      swap1\n      pop\n      jump\t// out\n        /* \"#utility.yul\":1261:1590   */\n    tag_64:\n        /* \"#utility.yul\":1320:1326   */\n      0x00\n        /* \"#utility.yul\":1369:1371   */\n      0x20\n        /* \"#utility.yul\":1357:1366   */\n      dup3\n        /* \"#utility.yul\":1348:1355   */\n      dup5\n        /* \"#utility.yul\":1344:1367   */\n      sub\n        /* \"#utility.yul\":1340:1372   */\n      slt\n        /* \"#utility.yul\":1337:1456   */\n      iszero\n      tag_127\n      jumpi\n        /* \"#utility.yul\":1375:1454   */\n      tag_128\n      tag_119\n      jump\t// in\n    tag_128:\n        /* \"#utility.yul\":1337:1456   */\n    tag_127:\n        /* \"#utility.yul\":1495:1496   */\n      0x00\n        /* \"#utility.yul\":1520:1573   */\n      tag_129\n        /* \"#utility.yul\":1565:1572   */\n      dup5\n        /* \"#utility.yul\":1556:1562   */\n      dup3\n        /* \"#utility.yul\":1545:1554   */\n      dup6\n        /* \"#utility.yul\":1541:1563   */\n      add\n        /* \"#utility.yul\":1520:1573   */\n      tag_109\n      jump\t// in\n    tag_129:\n        /* \"#utility.yul\":1510:1573   */\n      swap2\n      pop\n        /* \"#utility.yul\":1466:1583   */\n      pop\n        /* \"#utility.yul\":1261:1590   */\n      swap3\n      swap2\n      pop\n      pop\n      jump\t// out\n        /* \"#utility.yul\":1596:1947   */\n    tag_92:\n        /* \"#utility.yul\":1666:1672   */\n      0x00\n        /* \"#utility.yul\":1715:1717   */\n      0x20\n        /* \"#utility.yul\":1703:1712   */\n      dup3\n        /* \"#utility.yul\":1694:1701   */\n      dup5\n        /* \"#utility.yul\":1690:1713   */\n      sub\n        /* \"#utility.yul\":1686:1718   */\n      slt\n        /* \"#utility.yul\":1683:1802   */\n      iszero\n      tag_131\n      jumpi\n        /* \"#utility.yul\":1721:1800   */\n      tag_132\n      tag_119\n      jump\t// in\n    tag_132:\n        /* \"#utility.yul\":1683:1802   */\n    tag_131:\n        /* \"#utility.yul\":1841:1842   */\n      0x00\n        /* \"#utility.yul\":1866:1930   */\n      tag_133\n        /* \"#utility.yul\":1922:1929   */\n      dup5\n        /* \"#utility.yul\":1913:1919   */\n      dup3\n        /* \"#utility.yul\":1902:1911   */\n      dup6\n        /* \"#utility.yul\":1898:1920   */\n      add\n        /* \"#utility.yul\":1866:1930   */\n      tag_113\n      jump\t// in\n    tag_133:\n        /* \"#utility.yul\":1856:1930   */\n      swap2\n      pop\n        /* \"#utility.yul\":1812:1940   */\n      pop\n        /* \"#utility.yul\":1596:1947   */\n      swap3\n      swap2\n      pop\n      pop\n      jump\t// out\n        /* \"#utility.yul\":1953:2427   */\n    tag_43:\n        /* \"#utility.yul\":2021:2027   */\n      0x00\n        /* \"#utility.yul\":2029:2035   */\n      dup1\n        /* \"#utility.yul\":2078:2080   */\n      0x40\n        /* \"#utility.yul\":2066:2075   */\n      dup4\n        /* \"#utility.yul\":2057:2064   */\n      dup6\n        /* \"#utility.yul\":2053:2076   */\n      sub\n        /* \"#utility.yul\":2049:2081   */\n      slt\n        /* \"#utility.yul\":2046:2165   */\n      iszero\n      tag_135\n      jumpi\n        /* \"#utility.yul\":2084:2163   */\n      tag_136\n      tag_119\n      jump\t// in\n    tag_136:\n        /* \"#utility.yul\":2046:2165   */\n    tag_135:\n        /* \"#utility.yul\":2204:2205   */\n      0x00\n        /* \"#utility.yul\":2229:2282   */\n      tag_137\n        /* \"#utility.yul\":2274:2281   */\n      dup6\n        /* \"#utility.yul\":2265:2271   */\n      dup3\n        /* \"#utility.yul\":2254:2263   */\n      dup7\n        /* \"#utility.yul\":2250:2272   */\n      add\n        /* \"#utility.yul\":2229:2282   */\n      tag_109\n      jump\t// in\n    tag_137:\n        /* \"#utility.yul\":2219:2282   */\n      swap3\n      pop\n        /* \"#utility.yul\":2175:2292   */\n      pop\n        /* \"#utility.yul\":2331:2333   */\n      0x20\n        /* \"#utility.yul\":2357:2410   */\n      tag_138\n        /* \"#utility.yul\":2402:2409   */\n      dup6\n        /* \"#utility.yul\":2393:2399   */\n      dup3\n        /* \"#utility.yul\":2382:2391   */\n      dup7\n        /* \"#utility.yul\":2378:2400   */\n      add\n        /* \"#utility.yul\":2357:2410   */\n      tag_105\n      jump\t// in\n    tag_138:\n        /* \"#utility.yul\":2347:2410   */\n      swap2\n      pop\n        /* \"#utility.yul\":2302:2420   */\n      pop\n        /* \"#utility.yul\":1953:2427   */\n      swap3\n      pop\n      swap3\n      swap1\n      pop\n      jump\t// out\n        /* \"#utility.yul\":2433:2551   */\n    tag_139:\n        /* \"#utility.yul\":2520:2544   */\n      tag_141\n        /* \"#utility.yul\":2538:2543   */\n      dup2\n        /* \"#utility.yul\":2520:2544   */\n      tag_142\n      jump\t// in\n    tag_141:\n        /* \"#utility.yul\":2515:2518   */\n      dup3\n        /* \"#utility.yul\":2508:2545   */\n      mstore\n        /* \"#utility.yul\":2433:2551   */\n      pop\n      pop\n      jump\t// out\n        /* \"#utility.yul\":2557:2714   */\n    tag_143:\n        /* \"#utility.yul\":2657:2707   */\n      tag_145\n        /* \"#utility.yul\":2701:2706   */\n      dup2\n        /* \"#utility.yul\":2657:2707   */\n      tag_146\n      jump\t// in\n    tag_145:\n        /* \"#utility.yul\":2652:2655   */\n      dup3\n        /* \"#utility.yul\":2645:2708   */\n      mstore\n        /* \"#utility.yul\":2557:2714   */\n      pop\n      pop\n      jump\t// out\n        /* \"#utility.yul\":2720:3086   */\n    tag_147:\n        /* \"#utility.yul\":2862:2865   */\n      0x00\n        /* \"#utility.yul\":2883:2950   */\n      tag_149\n        /* \"#utility.yul\":2947:2949   */\n      0x19\n        /* \"#utility.yul\":2942:2945   */\n      dup4\n        /* \"#utility.yul\":2883:2950   */\n      tag_150\n      jump\t// in\n    tag_149:\n        /* \"#utility.yul\":2876:2950   */\n      swap2\n      pop\n        /* \"#utility.yul\":2959:3052   */\n      tag_151\n        /* \"#utility.yul\":3048:3051   */\n      dup3\n        /* \"#utility.yul\":2959:3052   */\n      tag_152\n      jump\t// in\n    tag_151:\n        /* \"#utility.yul\":3077:3079   */\n      0x20\n        /* \"#utility.yul\":3072:3075   */\n      dup3\n        /* \"#utility.yul\":3068:3080   */\n      add\n        /* \"#utility.yul\":3061:3080   */\n      swap1\n      pop\n        /* \"#utility.yul\":2720:3086   */\n      swap2\n      swap1\n      pop\n      jump\t// out\n        /* \"#utility.yul\":3092:3458   */\n    tag_153:\n        /* \"#utility.yul\":3234:3237   */\n      0x00\n        /* \"#utility.yul\":3255:3322   */\n      tag_155\n        /* \"#utility.yul\":3319:3321   */\n      0x20\n        /* \"#utility.yul\":3314:3317   */\n      dup4\n        /* \"#utility.yul\":3255:3322   */\n      tag_150\n      jump\t// in\n    tag_155:\n        /* \"#utility.yul\":3248:3322   */\n      swap2\n      pop\n        /* \"#utility.yul\":3331:3424   */\n      tag_156\n        /* \"#utility.yul\":3420:3423   */\n      dup3\n        /* \"#utility.yul\":3331:3424   */\n      tag_157\n      jump\t// in\n    tag_156:\n        /* \"#utility.yul\":3449:3451   */\n      0x20\n        /* \"#utility.yul\":3444:3447   */\n      dup3\n        /* \"#utility.yul\":3440:3452   */\n      add\n        /* \"#utility.yul\":3433:3452   */\n      swap1\n      pop\n        /* \"#utility.yul\":3092:3458   */\n      swap2\n      swap1\n      pop\n      jump\t// out\n        /* \"#utility.yul\":3464:3582   */\n    tag_158:\n        /* \"#utility.yul\":3551:3575   */\n      tag_160\n        /* \"#utility.yul\":3569:3574   */\n      dup2\n        /* \"#utility.yul\":3551:3575   */\n      tag_161\n      jump\t// in\n    tag_160:\n        /* \"#utility.yul\":3546:3549   */\n      dup3\n        /* \"#utility.yul\":3539:3576   */\n      mstore\n        /* \"#utility.yul\":3464:3582   */\n      pop\n      pop\n      jump\t// out\n        /* \"#utility.yul\":3588:3810   */\n    tag_55:\n        /* \"#utility.yul\":3681:3685   */\n      0x00\n        /* \"#utility.yul\":3719:3721   */\n      0x20\n        /* \"#utility.yul\":3708:3717   */\n      dup3\n        /* \"#utility.yul\":3704:3722   */\n      add\n        /* \"#utility.yul\":3696:3722   */\n      swap1\n      pop\n        /* \"#utility.yul\":3732:3803   */\n      tag_163\n        /* \"#utility.yul\":3800:3801   */\n      0x00\n        /* \"#utility.yul\":3789:3798   */\n      dup4\n        /* \"#utility.yul\":3785:3802   */\n      add\n        /* \"#utility.yul\":3776:3782   */\n      dup5\n        /* \"#utility.yul\":3732:3803   */\n      tag_139\n      jump\t// in\n    tag_163:\n        /* \"#utility.yul\":3588:3810   */\n      swap3\n      swap2\n      pop\n      pop\n      jump\t// out\n        /* \"#utility.yul\":3816:4064   */\n    tag_61:\n        /* \"#utility.yul\":3922:3926   */\n      0x00\n        /* \"#utility.yul\":3960:3962   */\n      0x20\n        /* \"#utility.yul\":3949:3958   */\n      dup3\n        /* \"#utility.yul\":3945:3963   */\n      add\n        /* \"#utility.yul\":3937:3963   */\n      swap1\n      pop\n        /* \"#utility.yul\":3973:4057   */\n      tag_165\n        /* \"#utility.yul\":4054:4055   */\n      0x00\n        /* \"#utility.yul\":4043:4052   */\n      dup4\n        /* \"#utility.yul\":4039:4056   */\n      add\n        /* \"#utility.yul\":4030:4036   */\n      dup5\n        /* \"#utility.yul\":3973:4057   */\n      tag_143\n      jump\t// in\n    tag_165:\n        /* \"#utility.yul\":3816:4064   */\n      swap3\n      swap2\n      pop\n      pop\n      jump\t// out\n        /* \"#utility.yul\":4070:4489   */\n    tag_99:\n        /* \"#utility.yul\":4236:4240   */\n      0x00\n        /* \"#utility.yul\":4274:4276   */\n      0x20\n        /* \"#utility.yul\":4263:4272   */\n      dup3\n        /* \"#utility.yul\":4259:4277   */\n      add\n        /* \"#utility.yul\":4251:4277   */\n      swap1\n      pop\n        /* \"#utility.yul\":4323:4332   */\n      dup2\n        /* \"#utility.yul\":4317:4321   */\n      dup2\n        /* \"#utility.yul\":4313:4333   */\n      sub\n        /* \"#utility.yul\":4309:4310   */\n      0x00\n        /* \"#utility.yul\":4298:4307   */\n      dup4\n        /* \"#utility.yul\":4294:4311   */\n      add\n        /* \"#utility.yul\":4287:4334   */\n      mstore\n        /* \"#utility.yul\":4351:4482   */\n      tag_167\n        /* \"#utility.yul\":4477:4481   */\n      dup2\n        /* \"#utility.yul\":4351:4482   */\n      tag_147\n      jump\t// in\n    tag_167:\n        /* \"#utility.yul\":4343:4482   */\n      swap1\n      pop\n        /* \"#utility.yul\":4070:4489   */\n      swap2\n      swap1\n      pop\n      jump\t// out\n        /* \"#utility.yul\":4495:4914   */\n    tag_85:\n        /* \"#utility.yul\":4661:4665   */\n      0x00\n        /* \"#utility.yul\":4699:4701   */\n      0x20\n        /* \"#utility.yul\":4688:4697   */\n      dup3\n        /* \"#utility.yul\":4684:4702   */\n      add\n        /* \"#utility.yul\":4676:4702   */\n      swap1\n      pop\n        /* \"#utility.yul\":4748:4757   */\n      dup2\n        /* \"#utility.yul\":4742:4746   */\n      dup2\n        /* \"#utility.yul\":4738:4758   */\n      sub\n        /* \"#utility.yul\":4734:4735   */\n      0x00\n        /* \"#utility.yul\":4723:4732   */\n      dup4\n        /* \"#utility.yul\":4719:4736   */\n      add\n        /* \"#utility.yul\":4712:4759   */\n      mstore\n        /* \"#utility.yul\":4776:4907   */\n      tag_169\n        /* \"#utility.yul\":4902:4906   */\n      dup2\n        /* \"#utility.yul\":4776:4907   */\n      tag_153\n      jump\t// in\n    tag_169:\n        /* \"#utility.yul\":4768:4907   */\n      swap1\n      pop\n        /* \"#utility.yul\":4495:4914   */\n      swap2\n      swap1\n      pop\n      jump\t// out\n        /* \"#utility.yul\":4920:5142   */\n    tag_27:\n        /* \"#utility.yul\":5013:5017   */\n      0x00\n        /* \"#utility.yul\":5051:5053   */\n      0x20\n        /* \"#utility.yul\":5040:5049   */\n      dup3\n        /* \"#utility.yul\":5036:5054   */\n      add\n        /* \"#utility.yul\":5028:5054   */\n      swap1\n      pop\n        /* \"#utility.yul\":5064:5135   */\n      tag_171\n        /* \"#utility.yul\":5132:5133   */\n      0x00\n        /* \"#utility.yul\":5121:5130   */\n      dup4\n        /* \"#utility.yul\":5117:5134   */\n      add\n        /* \"#utility.yul\":5108:5114   */\n      dup5\n        /* \"#utility.yul\":5064:5135   */\n      tag_158\n      jump\t// in\n    tag_171:\n        /* \"#utility.yul\":4920:5142   */\n      swap3\n      swap2\n      pop\n      pop\n      jump\t// out\n        /* \"#utility.yul\":5148:5812   */\n    tag_67:\n        /* \"#utility.yul\":5353:5357   */\n      0x00\n        /* \"#utility.yul\":5391:5394   */\n      0xa0\n        /* \"#utility.yul\":5380:5389   */\n      dup3\n        /* \"#utility.yul\":5376:5395   */\n      add\n        /* \"#utility.yul\":5368:5395   */\n      swap1\n      pop\n        /* \"#utility.yul\":5405:5476   */\n      tag_173\n        /* \"#utility.yul\":5473:5474   */\n      0x00\n        /* \"#utility.yul\":5462:5471   */\n      dup4\n        /* \"#utility.yul\":5458:5475   */\n      add\n        /* \"#utility.yul\":5449:5455   */\n      dup9\n        /* \"#utility.yul\":5405:5476   */\n      tag_158\n      jump\t// in\n    tag_173:\n        /* \"#utility.yul\":5486:5558   */\n      tag_174\n        /* \"#utility.yul\":5554:5556   */\n      0x20\n        /* \"#utility.yul\":5543:5552   */\n      dup4\n        /* \"#utility.yul\":5539:5557   */\n      add\n        /* \"#utility.yul\":5530:5536   */\n      dup8\n        /* \"#utility.yul\":5486:5558   */\n      tag_158\n      jump\t// in\n    tag_174:\n        /* \"#utility.yul\":5568:5640   */\n      tag_175\n        /* \"#utility.yul\":5636:5638   */\n      0x40\n        /* \"#utility.yul\":5625:5634   */\n      dup4\n        /* \"#utility.yul\":5621:5639   */\n      add\n        /* \"#utility.yul\":5612:5618   */\n      dup7\n        /* \"#utility.yul\":5568:5640   */\n      tag_158\n      jump\t// in\n    tag_175:\n        /* \"#utility.yul\":5650:5722   */\n      tag_176\n        /* \"#utility.yul\":5718:5720   */\n      0x60\n        /* \"#utility.yul\":5707:5716   */\n      dup4\n        /* \"#utility.yul\":5703:5721   */\n      add\n        /* \"#utility.yul\":5694:5700   */\n      dup6\n        /* \"#utility.yul\":5650:5722   */\n      tag_158\n      jump\t// in\n    tag_176:\n        /* \"#utility.yul\":5732:5805   */\n      tag_177\n        /* \"#utility.yul\":5800:5803   */\n      0x80\n        /* \"#utility.yul\":5789:5798   */\n      dup4\n        /* \"#utility.yul\":5785:5804   */\n      add\n        /* \"#utility.yul\":5776:5782   */\n      dup5\n        /* \"#utility.yul\":5732:5805   */\n      tag_139\n      jump\t// in\n    tag_177:\n        /* \"#utility.yul\":5148:5812   */\n      swap7\n      swap6\n      pop\n      pop\n      pop\n      pop\n      pop\n      pop\n      jump\t// out\n        /* \"#utility.yul\":5899:6068   */\n    tag_150:\n        /* \"#utility.yul\":5983:5994   */\n      0x00\n        /* \"#utility.yul\":6017:6023   */\n      dup3\n        /* \"#utility.yul\":6012:6015   */\n      dup3\n        /* \"#utility.yul\":6005:6024   */\n      mstore\n        /* \"#utility.yul\":6057:6061   */\n      0x20\n        /* \"#utility.yul\":6052:6055   */\n      dup3\n        /* \"#utility.yul\":6048:6062   */\n      add\n        /* \"#utility.yul\":6033:6062   */\n      swap1\n      pop\n        /* \"#utility.yul\":5899:6068   */\n      swap3\n      swap2\n      pop\n      pop\n      jump\t// out\n        /* \"#utility.yul\":6074:6379   */\n    tag_103:\n        /* \"#utility.yul\":6114:6117   */\n      0x00\n        /* \"#utility.yul\":6133:6153   */\n      tag_182\n        /* \"#utility.yul\":6151:6152   */\n      dup3\n        /* \"#utility.yul\":6133:6153   */\n      tag_161\n      jump\t// in\n    tag_182:\n        /* \"#utility.yul\":6128:6153   */\n      swap2\n      pop\n        /* \"#utility.yul\":6167:6187   */\n      tag_183\n        /* \"#utility.yul\":6185:6186   */\n      dup4\n        /* \"#utility.yul\":6167:6187   */\n      tag_161\n      jump\t// in\n    tag_183:\n        /* \"#utility.yul\":6162:6187   */\n      swap3\n      pop\n        /* \"#utility.yul\":6321:6322   */\n      dup3\n        /* \"#utility.yul\":6253:6319   */\n      0xffffffffffffffffffffffffffffffffffffffffffffffffffffffffffffffff\n        /* \"#utility.yul\":6249:6323   */\n      sub\n        /* \"#utility.yul\":6246:6247   */\n      dup3\n        /* \"#utility.yul\":6243:6324   */\n      gt\n        /* \"#utility.yul\":6240:6347   */\n      iszero\n      tag_184\n      jumpi\n        /* \"#utility.yul\":6327:6345   */\n      tag_185\n      tag_186\n      jump\t// in\n    tag_185:\n        /* \"#utility.yul\":6240:6347   */\n    tag_184:\n        /* \"#utility.yul\":6371:6372   */\n      dup3\n        /* \"#utility.yul\":6368:6369   */\n      dup3\n        /* \"#utility.yul\":6364:6373   */\n      add\n        /* \"#utility.yul\":6357:6373   */\n      swap1\n      pop\n        /* \"#utility.yul\":6074:6379   */\n      swap3\n      swap2\n      pop\n      pop\n      jump\t// out\n        /* \"#utility.yul\":6385:6576   */\n    tag_94:\n        /* \"#utility.yul\":6425:6429   */\n      0x00\n        /* \"#utility.yul\":6445:6465   */\n      tag_188\n        /* \"#utility.yul\":6463:6464   */\n      dup3\n        /* \"#utility.yul\":6445:6465   */\n      tag_161\n      jump\t// in\n    tag_188:\n        /* \"#utility.yul\":6440:6465   */\n      swap2\n      pop\n        /* \"#utility.yul\":6479:6499   */\n      tag_189\n        /* \"#utility.yul\":6497:6498   */\n      dup4\n        /* \"#utility.yul\":6479:6499   */\n      tag_161\n      jump\t// in\n    tag_189:\n        /* \"#utility.yul\":6474:6499   */\n      swap3\n      pop\n        /* \"#utility.yul\":6518:6519   */\n      dup3\n        /* \"#utility.yul\":6515:6516   */\n      dup3\n        /* \"#utility.yul\":6512:6520   */\n      lt\n        /* \"#utility.yul\":6509:6543   */\n      iszero\n      tag_190\n      jumpi\n        /* \"#utility.yul\":6523:6541   */\n      tag_191\n      tag_186\n      jump\t// in\n    tag_191:\n        /* \"#utility.yul\":6509:6543   */\n    tag_190:\n        /* \"#utility.yul\":6568:6569   */\n      dup3\n        /* \"#utility.yul\":6565:6566   */\n      dup3\n        /* \"#utility.yul\":6561:6570   */\n      sub\n        /* \"#utility.yul\":6553:6570   */\n      swap1\n      pop\n        /* \"#utility.yul\":6385:6576   */\n      swap3\n      swap2\n      pop\n      pop\n      jump\t// out\n        /* \"#utility.yul\":6582:6678   */\n    tag_142:\n        /* \"#utility.yul\":6619:6626   */\n      0x00\n        /* \"#utility.yul\":6648:6672   */\n      tag_193\n        /* \"#utility.yul\":6666:6671   */\n      dup3\n        /* \"#utility.yul\":6648:6672   */\n      tag_194\n      jump\t// in\n    tag_193:\n        /* \"#utility.yul\":6637:6672   */\n      swap1\n      pop\n        /* \"#utility.yul\":6582:6678   */\n      swap2\n      swap1\n      pop\n      jump\t// out\n        /* \"#utility.yul\":6684:6810   */\n    tag_194:\n        /* \"#utility.yul\":6721:6728   */\n      0x00\n        /* \"#utility.yul\":6761:6803   */\n      0xffffffffffffffffffffffffffffffffffffffff\n        /* \"#utility.yul\":6754:6759   */\n      dup3\n        /* \"#utility.yul\":6750:6804   */\n      and\n        /* \"#utility.yul\":6739:6804   */\n      swap1\n      pop\n        /* \"#utility.yul\":6684:6810   */\n      swap2\n      swap1\n      pop\n      jump\t// out\n        /* \"#utility.yul\":6816:6893   */\n    tag_161:\n        /* \"#utility.yul\":6853:6860   */\n      0x00\n        /* \"#utility.yul\":6882:6887   */\n      dup2\n        /* \"#utility.yul\":6871:6887   */\n      swap1\n      pop\n        /* \"#utility.yul\":6816:6893   */\n      swap2\n      swap1\n      pop\n      jump\t// out\n        /* \"#utility.yul\":6899:7038   */\n    tag_146:\n        /* \"#utility.yul\":6962:6971   */\n      0x00\n        /* \"#utility.yul\":6995:7032   */\n      tag_198\n        /* \"#utility.yul\":7026:7031   */\n      dup3\n        /* \"#utility.yul\":6995:7032   */\n      tag_199\n      jump\t// in\n    tag_198:\n        /* \"#utility.yul\":6982:7032   */\n      swap1\n      pop\n        /* \"#utility.yul\":6899:7038   */\n      swap2\n      swap1\n      pop\n      jump\t// out\n        /* \"#utility.yul\":7044:7170   */\n    tag_199:\n        /* \"#utility.yul\":7094:7103   */\n      0x00\n        /* \"#utility.yul\":7127:7164   */\n      tag_201\n        /* \"#utility.yul\":7158:7163   */\n      dup3\n        /* \"#utility.yul\":7127:7164   */\n      tag_202\n      jump\t// in\n    tag_201:\n        /* \"#utility.yul\":7114:7164   */\n      swap1\n      pop\n        /* \"#utility.yul\":7044:7170   */\n      swap2\n      swap1\n      pop\n      jump\t// out\n        /* \"#utility.yul\":7176:7289   */\n    tag_202:\n        /* \"#utility.yul\":7226:7235   */\n      0x00\n        /* \"#utility.yul\":7259:7283   */\n      tag_204\n        /* \"#utility.yul\":7277:7282   */\n      dup3\n        /* \"#utility.yul\":7259:7283   */\n      tag_194\n      jump\t// in\n    tag_204:\n        /* \"#utility.yul\":7246:7283   */\n      swap1\n      pop\n        /* \"#utility.yul\":7176:7289   */\n      swap2\n      swap1\n      pop\n      jump\t// out\n        /* \"#utility.yul\":7295:7528   */\n    tag_101:\n        /* \"#utility.yul\":7334:7337   */\n      0x00\n        /* \"#utility.yul\":7357:7381   */\n      tag_206\n        /* \"#utility.yul\":7375:7380   */\n      dup3\n        /* \"#utility.yul\":7357:7381   */\n      tag_161\n      jump\t// in\n    tag_206:\n        /* \"#utility.yul\":7348:7381   */\n      swap2\n      pop\n        /* \"#utility.yul\":7403:7469   */\n      0xffffffffffffffffffffffffffffffffffffffffffffffffffffffffffffffff\n        /* \"#utility.yul\":7396:7401   */\n      dup3\n        /* \"#utility.yul\":7393:7470   */\n      eq\n        /* \"#utility.yul\":7390:7493   */\n      iszero\n      tag_207\n      jumpi\n        /* \"#utility.yul\":7473:7491   */\n      tag_208\n      tag_186\n      jump\t// in\n    tag_208:\n        /* \"#utility.yul\":7390:7493   */\n    tag_207:\n        /* \"#utility.yul\":7520:7521   */\n      0x01\n        /* \"#utility.yul\":7513:7518   */\n      dup3\n        /* \"#utility.yul\":7509:7522   */\n      add\n        /* \"#utility.yul\":7502:7522   */\n      swap1\n      pop\n        /* \"#utility.yul\":7295:7528   */\n      swap2\n      swap1\n      pop\n      jump\t// out\n        /* \"#utility.yul\":7534:7710   */\n    tag_96:\n        /* \"#utility.yul\":7566:7567   */\n      0x00\n        /* \"#utility.yul\":7583:7603   */\n      tag_210\n        /* \"#utility.yul\":7601:7602   */\n      dup3\n        /* \"#utility.yul\":7583:7603   */\n      tag_161\n      jump\t// in\n    tag_210:\n        /* \"#utility.yul\":7578:7603   */\n      swap2\n      pop\n        /* \"#utility.yul\":7617:7637   */\n      tag_211\n        /* \"#utility.yul\":7635:7636   */\n      dup4\n        /* \"#utility.yul\":7617:7637   */\n      tag_161\n      jump\t// in\n    tag_211:\n        /* \"#utility.yul\":7612:7637   */\n      swap3\n      pop\n        /* \"#utility.yul\":7656:7657   */\n      dup3\n        /* \"#utility.yul\":7646:7681   */\n      tag_212\n      jumpi\n        /* \"#utility.yul\":7661:7679   */\n      tag_213\n      tag_214\n      jump\t// in\n    tag_213:\n        /* \"#utility.yul\":7646:7681   */\n    tag_212:\n        /* \"#utility.yul\":7702:7703   */\n      dup3\n        /* \"#utility.yul\":7699:7700   */\n      dup3\n        /* \"#utility.yul\":7695:7704   */\n      mod\n        /* \"#utility.yul\":7690:7704   */\n      swap1\n      pop\n        /* \"#utility.yul\":7534:7710   */\n      swap3\n      swap2\n      pop\n      pop\n      jump\t// out\n        /* \"#utility.yul\":7716:7896   */\n    tag_186:\n        /* \"#utility.yul\":7764:7841   */\n      0x4e487b7100000000000000000000000000000000000000000000000000000000\n        /* \"#utility.yul\":7761:7762   */\n      0x00\n        /* \"#utility.yul\":7754:7842   */\n      mstore\n        /* \"#utility.yul\":7861:7865   */\n      0x11\n        /* \"#utility.yul\":7858:7859   */\n      0x04\n        /* \"#utility.yul\":7851:7866   */\n      mstore\n        /* \"#utility.yul\":7885:7889   */\n      0x24\n        /* \"#utility.yul\":7882:7883   */\n      0x00\n        /* \"#utility.yul\":7875:7890   */\n      revert\n        /* \"#utility.yul\":7902:8082   */\n    tag_214:\n        /* \"#utility.yul\":7950:8027   */\n      0x4e487b7100000000000000000000000000000000000000000000000000000000\n        /* \"#utility.yul\":7947:7948   */\n      0x00\n        /* \"#utility.yul\":7940:8028   */\n      mstore\n        /* \"#utility.yul\":8047:8051   */\n      0x12\n        /* \"#utility.yul\":8044:8045   */\n      0x04\n        /* \"#utility.yul\":8037:8052   */\n      mstore\n        /* \"#utility.yul\":8071:8075   */\n      0x24\n        /* \"#utility.yul\":8068:8069   */\n      0x00\n        /* \"#utility.yul\":8061:8076   */\n      revert\n        /* \"#utility.yul\":8211:8328   */\n    tag_119:\n        /* \"#utility.yul\":8320:8321   */\n      0x00\n        /* \"#utility.yul\":8317:8318   */\n      dup1\n        /* \"#utility.yul\":8310:8322   */\n      revert\n        /* \"#utility.yul\":8334:8509   */\n    tag_152:\n        /* \"#utility.yul\":8474:8501   */\n      0x4e6f7420656e6f75676820244143455320746f20656e74657200000000000000\n        /* \"#utility.yul\":8470:8471   */\n      0x00\n        /* \"#utility.yul\":8462:8468   */\n      dup3\n        /* \"#utility.yul\":8458:8472   */\n      add\n        /* \"#utility.yul\":8451:8502   */\n      mstore\n        /* \"#utility.yul\":8334:8509   */\n      pop\n      jump\t// out\n        /* \"#utility.yul\":8515:8697   */\n    tag_157:\n        /* \"#utility.yul\":8655:8689   */\n      0x4f6e6c7920737761702063616e2063616c6c20746869732066756e6374696f6e\n        /* \"#utility.yul\":8651:8652   */\n      0x00\n        /* \"#utility.yul\":8643:8649   */\n      dup3\n        /* \"#utility.yul\":8639:8653   */\n      add\n        /* \"#utility.yul\":8632:8690   */\n      mstore\n        /* \"#utility.yul\":8515:8697   */\n      pop\n      jump\t// out\n        /* \"#utility.yul\":8703:8825   */\n    tag_108:\n        /* \"#utility.yul\":8776:8800   */\n      tag_223\n        /* \"#utility.yul\":8794:8799   */\n      dup2\n        /* \"#utility.yul\":8776:8800   */\n      tag_142\n      jump\t// in\n    tag_223:\n        /* \"#utility.yul\":8769:8774   */\n      dup2\n        /* \"#utility.yul\":8766:8801   */\n      eq\n        /* \"#utility.yul\":8756:8819   */\n      tag_224\n      jumpi\n        /* \"#utility.yul\":8815:8816   */\n      0x00\n        /* \"#utility.yul\":8812:8813   */\n      dup1\n        /* \"#utility.yul\":8805:8817   */\n      revert\n        /* \"#utility.yul\":8756:8819   */\n    tag_224:\n        /* \"#utility.yul\":8703:8825   */\n      pop\n      jump\t// out\n        /* \"#utility.yul\":8831:8953   */\n    tag_112:\n        /* \"#utility.yul\":8904:8928   */\n      tag_226\n        /* \"#utility.yul\":8922:8927   */\n      dup2\n        /* \"#utility.yul\":8904:8928   */\n      tag_161\n      jump\t// in\n    tag_226:\n        /* \"#utility.yul\":8897:8902   */\n      dup2\n        /* \"#utility.yul\":8894:8929   */\n      eq\n        /* \"#utility.yul\":8884:8947   */\n      tag_227\n      jumpi\n        /* \"#utility.yul\":8943:8944   */\n      0x00\n        /* \"#utility.yul\":8940:8941   */\n      dup1\n        /* \"#utility.yul\":8933:8945   */\n      revert\n        /* \"#utility.yul\":8884:8947   */\n    tag_227:\n        /* \"#utility.yul\":8831:8953   */\n      pop\n      jump\t// out\n\n    auxdata: 0xa2646970667358221220b6c6f0b69b667ecf045fcfae2562a0cffa7a83ca6ddc9f61041c10496472ed8e64736f6c63430008070033\n}\n",
				"bytecode": {
					"linkReferences": {},
					"object": "60806040526934f086f3b33b68400000600455610e1060055534801561002457600080fd5b5060405162000e8d38038062000e8d833981810160405281019061004891906100e6565b81600760006101000a81548173ffffffffffffffffffffffffffffffffffffffff021916908373ffffffffffffffffffffffffffffffffffffffff16021790555080600860006101000a81548173ffffffffffffffffffffffffffffffffffffffff021916908373ffffffffffffffffffffffffffffffffffffffff1602179055505050610174565b6000815190506100e08161015d565b92915050565b600080604083850312156100fd576100fc610158565b5b600061010b858286016100d1565b925050602061011c858286016100d1565b9150509250929050565b600061013182610138565b9050919050565b600073ffffffffffffffffffffffffffffffffffffffff82169050919050565b600080fd5b61016681610126565b811461017157600080fd5b50565b610d0980620001846000396000f3fe608060405234801561001057600080fd5b50600436106101005760003560e01c806387e537db11610097578063b657dd6511610066578063b657dd6514610291578063cbd9f3e2146102c1578063f7cb789a146102f1578063f9cee0bd1461030f57610100565b806387e537db1461021757806390b841ec146102355780639b3e45521461023f578063ac128f4f1461025d57610100565b8063454f7b8f116100d3578063454f7b8f1461018d578063578e3f88146101ab57806376636d20146101db57806378e97925146101f957610100565b80630630d44814610105578063119b22b3146101355780631209b1f6146101535780632f42a52614610171575b600080fd5b61011f600480360381019061011a919061080b565b61032d565b60405161012c91906109fb565b60405180910390f35b61013d610345565b60405161014a91906109fb565b60405180910390f35b61015b61034b565b60405161016891906109fb565b60405180910390f35b61018b60048036038101906101869190610838565b610351565b005b6101956103e5565b6040516101a291906109fb565b60405180910390f35b6101c560048036038101906101c091906108d2565b6103eb565b6040516101d291906109fb565b60405180910390f35b6101e3610410565b6040516101f091906109fb565b60405180910390f35b610201610416565b60405161020e91906109fb565b60405180910390f35b61021f61041c565b60405161022c9190610985565b60405180910390f35b61023d610442565b005b6102476106f9565b60405161025491906109a0565b60405180910390f35b61027760048036038101906102729190610878565b61071f565b604051610288959493929190610a16565b60405180910390f35b6102ab60048036038101906102a69190610878565b610775565b6040516102b89190610985565b60405180910390f35b6102db60048036038101906102d6919061080b565b6107a8565b6040516102e891906109fb565b60405180910390f35b6102f96107c0565b60405161030691906109fb565b60405180910390f35b6103176107c6565b60405161032491906109fb565b60405180910390f35b600c6020528060005260406000206000915090505481565b60025481565b60045481565b600860009054906101000a900473ffffffffffffffffffffffffffffffffffffffff1673ffffffffffffffffffffffffffffffffffffffff163373ffffffffffffffffffffffffffffffffffffffff16146103e1576040517f08c379a00000000000000000000000000000000000000000000000000000000081526004016103d8906109db565b60405180910390fd5b5050565b60035481565b600b602052816000526040600020602052806000526040600020600091509150505481565b60015481565b60065481565b600860009054906101000a900473ffffffffffffffffffffffffffffffffffffffff1681565b60003390506000600760009054906101000a900473ffffffffffffffffffffffffffffffffffffffff1673ffffffffffffffffffffffffffffffffffffffff166370a08231836040518263ffffffff1660e01b81526004016104a49190610985565b60206040518083038186803b1580156104bc57600080fd5b505afa1580156104d0573d6000803e3d6000fd5b505050506040513d601f19601f820116820180604052508101906104f491906108a5565b90506000600454600d60008573ffffffffffffffffffffffffffffffffffffffff1673ffffffffffffffffffffffffffffffffffffffff16815260200190815260200160002054836105469190610ad0565b6105509190610bbf565b905060008111610595576040517f08c379a000000000000000000000000000000000000000000000000000000000815260040161058c906109bb565b60405180910390fd5b82600a6000600154815260200190815260200160002060006101000a81548173ffffffffffffffffffffffffffffffffffffffff021916908373ffffffffffffffffffffffffffffffffffffffff160217905550600b6000600254815260200190815260200160002060008473ffffffffffffffffffffffffffffffffffffffff1673ffffffffffffffffffffffffffffffffffffffff168152602001908152602001600020600081548092919061064c90610b76565b9190505550600254600c60008573ffffffffffffffffffffffffffffffffffffffff1673ffffffffffffffffffffffffffffffffffffffff1681526020019081526020016000208190555081600d60008573ffffffffffffffffffffffffffffffffffffffff1673ffffffffffffffffffffffffffffffffffffffff1681526020019081526020016000208190555080600160008282546106ed9190610a7a565b92505081905550505050565b600760009054906101000a900473ffffffffffffffffffffffffffffffffffffffff1681565b60096020528060005260406000206000915090508060000154908060010154908060020154908060030154908060040160009054906101000a900473ffffffffffffffffffffffffffffffffffffffff16905085565b600a6020528060005260406000206000915054906101000a900473ffffffffffffffffffffffffffffffffffffffff1681565b600d6020528060005260406000206000915090505481565b60055481565b60005481565b6000813590506107db81610ca5565b92915050565b6000813590506107f081610cbc565b92915050565b60008151905061080581610cbc565b92915050565b60006020828403121561082157610820610c4e565b5b600061082f848285016107cc565b91505092915050565b6000806040838503121561084f5761084e610c4e565b5b600061085d858286016107cc565b925050602061086e858286016107e1565b9150509250929050565b60006020828403121561088e5761088d610c4e565b5b600061089c848285016107e1565b91505092915050565b6000602082840312156108bb576108ba610c4e565b5b60006108c9848285016107f6565b91505092915050565b600080604083850312156108e9576108e8610c4e565b5b60006108f7858286016107e1565b9250506020610908858286016107cc565b9150509250929050565b61091b81610b04565b82525050565b61092a81610b40565b82525050565b600061093d601983610a69565b915061094882610c53565b602082019050919050565b6000610960602083610a69565b915061096b82610c7c565b602082019050919050565b61097f81610b36565b82525050565b600060208201905061099a6000830184610912565b92915050565b60006020820190506109b56000830184610921565b92915050565b600060208201905081810360008301526109d481610930565b9050919050565b600060208201905081810360008301526109f481610953565b9050919050565b6000602082019050610a106000830184610976565b92915050565b600060a082019050610a2b6000830188610976565b610a386020830187610976565b610a456040830186610976565b610a526060830185610976565b610a5f6080830184610912565b9695505050505050565b600082825260208201905092915050565b6000610a8582610b36565b9150610a9083610b36565b9250827fffffffffffffffffffffffffffffffffffffffffffffffffffffffffffffffff03821115610ac557610ac4610bf0565b5b828201905092915050565b6000610adb82610b36565b9150610ae683610b36565b925082821015610af957610af8610bf0565b5b828203905092915050565b6000610b0f82610b16565b9050919050565b600073ffffffffffffffffffffffffffffffffffffffff82169050919050565b6000819050919050565b6000610b4b82610b52565b9050919050565b6000610b5d82610b64565b9050919050565b6000610b6f82610b16565b9050919050565b6000610b8182610b36565b91507fffffffffffffffffffffffffffffffffffffffffffffffffffffffffffffffff821415610bb457610bb3610bf0565b5b600182019050919050565b6000610bca82610b36565b9150610bd583610b36565b925082610be557610be4610c1f565b5b828206905092915050565b7f4e487b7100000000000000000000000000000000000000000000000000000000600052601160045260246000fd5b7f4e487b7100000000000000000000000000000000000000000000000000000000600052601260045260246000fd5b600080fd5b7f4e6f7420656e6f75676820244143455320746f20656e74657200000000000000600082015250565b7f4f6e6c7920737761702063616e2063616c6c20746869732066756e6374696f6e600082015250565b610cae81610b04565b8114610cb957600080fd5b50565b610cc581610b36565b8114610cd057600080fd5b5056fea2646970667358221220b6c6f0b69b667ecf045fcfae2562a0cffa7a83ca6ddc9f61041c10496472ed8e64736f6c63430008070033",
					"opcodes": "PUSH1 0x80 PUSH1 0x40 MSTORE PUSH10 0x34F086F3B33B68400000 PUSH1 0x4 SSTORE PUSH2 0xE10 PUSH1 0x5 SSTORE CALLVALUE DUP1 ISZERO PUSH2 0x24 JUMPI PUSH1 0x0 DUP1 REVERT JUMPDEST POP PUSH1 0x40 MLOAD PUSH3 0xE8D CODESIZE SUB DUP1 PUSH3 0xE8D DUP4 CODECOPY DUP2 DUP2 ADD PUSH1 0x40 MSTORE DUP2 ADD SWAP1 PUSH2 0x48 SWAP2 SWAP1 PUSH2 0xE6 JUMP JUMPDEST DUP2 PUSH1 0x7 PUSH1 0x0 PUSH2 0x100 EXP DUP2 SLOAD DUP2 PUSH20 0xFFFFFFFFFFFFFFFFFFFFFFFFFFFFFFFFFFFFFFFF MUL NOT AND SWAP1 DUP4 PUSH20 0xFFFFFFFFFFFFFFFFFFFFFFFFFFFFFFFFFFFFFFFF AND MUL OR SWAP1 SSTORE POP DUP1 PUSH1 0x8 PUSH1 0x0 PUSH2 0x100 EXP DUP2 SLOAD DUP2 PUSH20 0xFFFFFFFFFFFFFFFFFFFFFFFFFFFFFFFFFFFFFFFF MUL NOT AND SWAP1 DUP4 PUSH20 0xFFFFFFFFFFFFFFFFFFFFFFFFFFFFFFFFFFFFFFFF AND MUL OR SWAP1 SSTORE POP POP POP PUSH2 0x174 JUMP JUMPDEST PUSH1 0x0 DUP2 MLOAD SWAP1 POP PUSH2 0xE0 DUP2 PUSH2 0x15D JUMP JUMPDEST SWAP3 SWAP2 POP POP JUMP JUMPDEST PUSH1 0x0 DUP1 PUSH1 0x40 DUP4 DUP6 SUB SLT ISZERO PUSH2 0xFD JUMPI PUSH2 0xFC PUSH2 0x158 JUMP JUMPDEST JUMPDEST PUSH1 0x0 PUSH2 0x10B DUP6 DUP3 DUP7 ADD PUSH2 0xD1 JUMP JUMPDEST SWAP3 POP POP PUSH1 0x20 PUSH2 0x11C DUP6 DUP3 DUP7 ADD PUSH2 0xD1 JUMP JUMPDEST SWAP2 POP POP SWAP3 POP SWAP3 SWAP1 POP JUMP JUMPDEST PUSH1 0x0 PUSH2 0x131 DUP3 PUSH2 0x138 JUMP JUMPDEST SWAP1 POP SWAP2 SWAP1 POP JUMP JUMPDEST PUSH1 0x0 PUSH20 0xFFFFFFFFFFFFFFFFFFFFFFFFFFFFFFFFFFFFFFFF DUP3 AND SWAP1 POP SWAP2 SWAP1 POP JUMP JUMPDEST PUSH1 0x0 DUP1 REVERT JUMPDEST PUSH2 0x166 DUP2 PUSH2 0x126 JUMP JUMPDEST DUP2 EQ PUSH2 0x171 JUMPI PUSH1 0x0 DUP1 REVERT JUMPDEST POP JUMP JUMPDEST PUSH2 0xD09 DUP1 PUSH3 0x184 PUSH1 0x0 CODECOPY PUSH1 0x0 RETURN INVALID PUSH1 0x80 PUSH1 0x40 MSTORE CALLVALUE DUP1 ISZERO PUSH2 0x10 JUMPI PUSH1 0x0 DUP1 REVERT JUMPDEST POP PUSH1 0x4 CALLDATASIZE LT PUSH2 0x100 JUMPI PUSH1 0x0 CALLDATALOAD PUSH1 0xE0 SHR DUP1 PUSH4 0x87E537DB GT PUSH2 0x97 JUMPI DUP1 PUSH4 0xB657DD65 GT PUSH2 0x66 JUMPI DUP1 PUSH4 0xB657DD65 EQ PUSH2 0x291 JUMPI DUP1 PUSH4 0xCBD9F3E2 EQ PUSH2 0x2C1 JUMPI DUP1 PUSH4 0xF7CB789A EQ PUSH2 0x2F1 JUMPI DUP1 PUSH4 0xF9CEE0BD EQ PUSH2 0x30F JUMPI PUSH2 0x100 JUMP JUMPDEST DUP1 PUSH4 0x87E537DB EQ PUSH2 0x217 JUMPI DUP1 PUSH4 0x90B841EC EQ PUSH2 0x235 JUMPI DUP1 PUSH4 0x9B3E4552 EQ PUSH2 0x23F JUMPI DUP1 PUSH4 0xAC128F4F EQ PUSH2 0x25D JUMPI PUSH2 0x100 JUMP JUMPDEST DUP1 PUSH4 0x454F7B8F GT PUSH2 0xD3 JUMPI DUP1 PUSH4 0x454F7B8F EQ PUSH2 0x18D JUMPI DUP1 PUSH4 0x578E3F88 EQ PUSH2 0x1AB JUMPI DUP1 PUSH4 0x76636D20 EQ PUSH2 0x1DB JUMPI DUP1 PUSH4 0x78E97925 EQ PUSH2 0x1F9 JUMPI PUSH2 0x100 JUMP JUMPDEST DUP1 PUSH4 0x630D448 EQ PUSH2 0x105 JUMPI DUP1 PUSH4 0x119B22B3 EQ PUSH2 0x135 JUMPI DUP1 PUSH4 0x1209B1F6 EQ PUSH2 0x153 JUMPI DUP1 PUSH4 0x2F42A526 EQ PUSH2 0x171 JUMPI JUMPDEST PUSH1 0x0 DUP1 REVERT JUMPDEST PUSH2 0x11F PUSH1 0x4 DUP1 CALLDATASIZE SUB DUP2 ADD SWAP1 PUSH2 0x11A SWAP2 SWAP1 PUSH2 0x80B JUMP JUMPDEST PUSH2 0x32D JUMP JUMPDEST PUSH1 0x40 MLOAD PUSH2 0x12C SWAP2 SWAP1 PUSH2 0x9FB JUMP JUMPDEST PUSH1 0x40 MLOAD DUP1 SWAP2 SUB SWAP1 RETURN JUMPDEST PUSH2 0x13D PUSH2 0x345 JUMP JUMPDEST PUSH1 0x40 MLOAD PUSH2 0x14A SWAP2 SWAP1 PUSH2 0x9FB JUMP JUMPDEST PUSH1 0x40 MLOAD DUP1 SWAP2 SUB SWAP1 RETURN JUMPDEST PUSH2 0x15B PUSH2 0x34B JUMP JUMPDEST PUSH1 0x40 MLOAD PUSH2 0x168 SWAP2 SWAP1 PUSH2 0x9FB JUMP JUMPDEST PUSH1 0x40 MLOAD DUP1 SWAP2 SUB SWAP1 RETURN JUMPDEST PUSH2 0x18B PUSH1 0x4 DUP1 CALLDATASIZE SUB DUP2 ADD SWAP1 PUSH2 0x186 SWAP2 SWAP1 PUSH2 0x838 JUMP JUMPDEST PUSH2 0x351 JUMP JUMPDEST STOP JUMPDEST PUSH2 0x195 PUSH2 0x3E5 JUMP JUMPDEST PUSH1 0x40 MLOAD PUSH2 0x1A2 SWAP2 SWAP1 PUSH2 0x9FB JUMP JUMPDEST PUSH1 0x40 MLOAD DUP1 SWAP2 SUB SWAP1 RETURN JUMPDEST PUSH2 0x1C5 PUSH1 0x4 DUP1 CALLDATASIZE SUB DUP2 ADD SWAP1 PUSH2 0x1C0 SWAP2 SWAP1 PUSH2 0x8D2 JUMP JUMPDEST PUSH2 0x3EB JUMP JUMPDEST PUSH1 0x40 MLOAD PUSH2 0x1D2 SWAP2 SWAP1 PUSH2 0x9FB JUMP JUMPDEST PUSH1 0x40 MLOAD DUP1 SWAP2 SUB SWAP1 RETURN JUMPDEST PUSH2 0x1E3 PUSH2 0x410 JUMP JUMPDEST PUSH1 0x40 MLOAD PUSH2 0x1F0 SWAP2 SWAP1 PUSH2 0x9FB JUMP JUMPDEST PUSH1 0x40 MLOAD DUP1 SWAP2 SUB SWAP1 RETURN JUMPDEST PUSH2 0x201 PUSH2 0x416 JUMP JUMPDEST PUSH1 0x40 MLOAD PUSH2 0x20E SWAP2 SWAP1 PUSH2 0x9FB JUMP JUMPDEST PUSH1 0x40 MLOAD DUP1 SWAP2 SUB SWAP1 RETURN JUMPDEST PUSH2 0x21F PUSH2 0x41C JUMP JUMPDEST PUSH1 0x40 MLOAD PUSH2 0x22C SWAP2 SWAP1 PUSH2 0x985 JUMP JUMPDEST PUSH1 0x40 MLOAD DUP1 SWAP2 SUB SWAP1 RETURN JUMPDEST PUSH2 0x23D PUSH2 0x442 JUMP JUMPDEST STOP JUMPDEST PUSH2 0x247 PUSH2 0x6F9 JUMP JUMPDEST PUSH1 0x40 MLOAD PUSH2 0x254 SWAP2 SWAP1 PUSH2 0x9A0 JUMP JUMPDEST PUSH1 0x40 MLOAD DUP1 SWAP2 SUB SWAP1 RETURN JUMPDEST PUSH2 0x277 PUSH1 0x4 DUP1 CALLDATASIZE SUB DUP2 ADD SWAP1 PUSH2 0x272 SWAP2 SWAP1 PUSH2 0x878 JUMP JUMPDEST PUSH2 0x71F JUMP JUMPDEST PUSH1 0x40 MLOAD PUSH2 0x288 SWAP6 SWAP5 SWAP4 SWAP3 SWAP2 SWAP1 PUSH2 0xA16 JUMP JUMPDEST PUSH1 0x40 MLOAD DUP1 SWAP2 SUB SWAP1 RETURN JUMPDEST PUSH2 0x2AB PUSH1 0x4 DUP1 CALLDATASIZE SUB DUP2 ADD SWAP1 PUSH2 0x2A6 SWAP2 SWAP1 PUSH2 0x878 JUMP JUMPDEST PUSH2 0x775 JUMP JUMPDEST PUSH1 0x40 MLOAD PUSH2 0x2B8 SWAP2 SWAP1 PUSH2 0x985 JUMP JUMPDEST PUSH1 0x40 MLOAD DUP1 SWAP2 SUB SWAP1 RETURN JUMPDEST PUSH2 0x2DB PUSH1 0x4 DUP1 CALLDATASIZE SUB DUP2 ADD SWAP1 PUSH2 0x2D6 SWAP2 SWAP1 PUSH2 0x80B JUMP JUMPDEST PUSH2 0x7A8 JUMP JUMPDEST PUSH1 0x40 MLOAD PUSH2 0x2E8 SWAP2 SWAP1 PUSH2 0x9FB JUMP JUMPDEST PUSH1 0x40 MLOAD DUP1 SWAP2 SUB SWAP1 RETURN JUMPDEST PUSH2 0x2F9 PUSH2 0x7C0 JUMP JUMPDEST PUSH1 0x40 MLOAD PUSH2 0x306 SWAP2 SWAP1 PUSH2 0x9FB JUMP JUMPDEST PUSH1 0x40 MLOAD DUP1 SWAP2 SUB SWAP1 RETURN JUMPDEST PUSH2 0x317 PUSH2 0x7C6 JUMP JUMPDEST PUSH1 0x40 MLOAD PUSH2 0x324 SWAP2 SWAP1 PUSH2 0x9FB JUMP JUMPDEST PUSH1 0x40 MLOAD DUP1 SWAP2 SUB SWAP1 RETURN JUMPDEST PUSH1 0xC PUSH1 0x20 MSTORE DUP1 PUSH1 0x0 MSTORE PUSH1 0x40 PUSH1 0x0 KECCAK256 PUSH1 0x0 SWAP2 POP SWAP1 POP SLOAD DUP2 JUMP JUMPDEST PUSH1 0x2 SLOAD DUP2 JUMP JUMPDEST PUSH1 0x4 SLOAD DUP2 JUMP JUMPDEST PUSH1 0x8 PUSH1 0x0 SWAP1 SLOAD SWAP1 PUSH2 0x100 EXP SWAP1 DIV PUSH20 0xFFFFFFFFFFFFFFFFFFFFFFFFFFFFFFFFFFFFFFFF AND PUSH20 0xFFFFFFFFFFFFFFFFFFFFFFFFFFFFFFFFFFFFFFFF AND CALLER PUSH20 0xFFFFFFFFFFFFFFFFFFFFFFFFFFFFFFFFFFFFFFFF AND EQ PUSH2 0x3E1 JUMPI PUSH1 0x40 MLOAD PUSH32 0x8C379A000000000000000000000000000000000000000000000000000000000 DUP2 MSTORE PUSH1 0x4 ADD PUSH2 0x3D8 SWAP1 PUSH2 0x9DB JUMP JUMPDEST PUSH1 0x40 MLOAD DUP1 SWAP2 SUB SWAP1 REVERT JUMPDEST POP POP JUMP JUMPDEST PUSH1 0x3 SLOAD DUP2 JUMP JUMPDEST PUSH1 0xB PUSH1 0x20 MSTORE DUP2 PUSH1 0x0 MSTORE PUSH1 0x40 PUSH1 0x0 KECCAK256 PUSH1 0x20 MSTORE DUP1 PUSH1 0x0 MSTORE PUSH1 0x40 PUSH1 0x0 KECCAK256 PUSH1 0x0 SWAP2 POP SWAP2 POP POP SLOAD DUP2 JUMP JUMPDEST PUSH1 0x1 SLOAD DUP2 JUMP JUMPDEST PUSH1 0x6 SLOAD DUP2 JUMP JUMPDEST PUSH1 0x8 PUSH1 0x0 SWAP1 SLOAD SWAP1 PUSH2 0x100 EXP SWAP1 DIV PUSH20 0xFFFFFFFFFFFFFFFFFFFFFFFFFFFFFFFFFFFFFFFF AND DUP2 JUMP JUMPDEST PUSH1 0x0 CALLER SWAP1 POP PUSH1 0x0 PUSH1 0x7 PUSH1 0x0 SWAP1 SLOAD SWAP1 PUSH2 0x100 EXP SWAP1 DIV PUSH20 0xFFFFFFFFFFFFFFFFFFFFFFFFFFFFFFFFFFFFFFFF AND PUSH20 0xFFFFFFFFFFFFFFFFFFFFFFFFFFFFFFFFFFFFFFFF AND PUSH4 0x70A08231 DUP4 PUSH1 0x40 MLOAD DUP3 PUSH4 0xFFFFFFFF AND PUSH1 0xE0 SHL DUP2 MSTORE PUSH1 0x4 ADD PUSH2 0x4A4 SWAP2 SWAP1 PUSH2 0x985 JUMP JUMPDEST PUSH1 0x20 PUSH1 0x40 MLOAD DUP1 DUP4 SUB DUP2 DUP7 DUP1 EXTCODESIZE ISZERO DUP1 ISZERO PUSH2 0x4BC JUMPI PUSH1 0x0 DUP1 REVERT JUMPDEST POP GAS STATICCALL ISZERO DUP1 ISZERO PUSH2 0x4D0 JUMPI RETURNDATASIZE PUSH1 0x0 DUP1 RETURNDATACOPY RETURNDATASIZE PUSH1 0x0 REVERT JUMPDEST POP POP POP POP PUSH1 0x40 MLOAD RETURNDATASIZE PUSH1 0x1F NOT PUSH1 0x1F DUP3 ADD AND DUP3 ADD DUP1 PUSH1 0x40 MSTORE POP DUP2 ADD SWAP1 PUSH2 0x4F4 SWAP2 SWAP1 PUSH2 0x8A5 JUMP JUMPDEST SWAP1 POP PUSH1 0x0 PUSH1 0x4 SLOAD PUSH1 0xD PUSH1 0x0 DUP6 PUSH20 0xFFFFFFFFFFFFFFFFFFFFFFFFFFFFFFFFFFFFFFFF AND PUSH20 0xFFFFFFFFFFFFFFFFFFFFFFFFFFFFFFFFFFFFFFFF AND DUP2 MSTORE PUSH1 0x20 ADD SWAP1 DUP2 MSTORE PUSH1 0x20 ADD PUSH1 0x0 KECCAK256 SLOAD DUP4 PUSH2 0x546 SWAP2 SWAP1 PUSH2 0xAD0 JUMP JUMPDEST PUSH2 0x550 SWAP2 SWAP1 PUSH2 0xBBF JUMP JUMPDEST SWAP1 POP PUSH1 0x0 DUP2 GT PUSH2 0x595 JUMPI PUSH1 0x40 MLOAD PUSH32 0x8C379A000000000000000000000000000000000000000000000000000000000 DUP2 MSTORE PUSH1 0x4 ADD PUSH2 0x58C SWAP1 PUSH2 0x9BB JUMP JUMPDEST PUSH1 0x40 MLOAD DUP1 SWAP2 SUB SWAP1 REVERT JUMPDEST DUP3 PUSH1 0xA PUSH1 0x0 PUSH1 0x1 SLOAD DUP2 MSTORE PUSH1 0x20 ADD SWAP1 DUP2 MSTORE PUSH1 0x20 ADD PUSH1 0x0 KECCAK256 PUSH1 0x0 PUSH2 0x100 EXP DUP2 SLOAD DUP2 PUSH20 0xFFFFFFFFFFFFFFFFFFFFFFFFFFFFFFFFFFFFFFFF MUL NOT AND SWAP1 DUP4 PUSH20 0xFFFFFFFFFFFFFFFFFFFFFFFFFFFFFFFFFFFFFFFF AND MUL OR SWAP1 SSTORE POP PUSH1 0xB PUSH1 0x0 PUSH1 0x2 SLOAD DUP2 MSTORE PUSH1 0x20 ADD SWAP1 DUP2 MSTORE PUSH1 0x20 ADD PUSH1 0x0 KECCAK256 PUSH1 0x0 DUP5 PUSH20 0xFFFFFFFFFFFFFFFFFFFFFFFFFFFFFFFFFFFFFFFF AND PUSH20 0xFFFFFFFFFFFFFFFFFFFFFFFFFFFFFFFFFFFFFFFF AND DUP2 MSTORE PUSH1 0x20 ADD SWAP1 DUP2 MSTORE PUSH1 0x20 ADD PUSH1 0x0 KECCAK256 PUSH1 0x0 DUP2 SLOAD DUP1 SWAP3 SWAP2 SWAP1 PUSH2 0x64C SWAP1 PUSH2 0xB76 JUMP JUMPDEST SWAP2 SWAP1 POP SSTORE POP PUSH1 0x2 SLOAD PUSH1 0xC PUSH1 0x0 DUP6 PUSH20 0xFFFFFFFFFFFFFFFFFFFFFFFFFFFFFFFFFFFFFFFF AND PUSH20 0xFFFFFFFFFFFFFFFFFFFFFFFFFFFFFFFFFFFFFFFF AND DUP2 MSTORE PUSH1 0x20 ADD SWAP1 DUP2 MSTORE PUSH1 0x20 ADD PUSH1 0x0 KECCAK256 DUP2 SWAP1 SSTORE POP DUP2 PUSH1 0xD PUSH1 0x0 DUP6 PUSH20 0xFFFFFFFFFFFFFFFFFFFFFFFFFFFFFFFFFFFFFFFF AND PUSH20 0xFFFFFFFFFFFFFFFFFFFFFFFFFFFFFFFFFFFFFFFF AND DUP2 MSTORE PUSH1 0x20 ADD SWAP1 DUP2 MSTORE PUSH1 0x20 ADD PUSH1 0x0 KECCAK256 DUP2 SWAP1 SSTORE POP DUP1 PUSH1 0x1 PUSH1 0x0 DUP3 DUP3 SLOAD PUSH2 0x6ED SWAP2 SWAP1 PUSH2 0xA7A JUMP JUMPDEST SWAP3 POP POP DUP2 SWAP1 SSTORE POP POP POP POP JUMP JUMPDEST PUSH1 0x7 PUSH1 0x0 SWAP1 SLOAD SWAP1 PUSH2 0x100 EXP SWAP1 DIV PUSH20 0xFFFFFFFFFFFFFFFFFFFFFFFFFFFFFFFFFFFFFFFF AND DUP2 JUMP JUMPDEST PUSH1 0x9 PUSH1 0x20 MSTORE DUP1 PUSH1 0x0 MSTORE PUSH1 0x40 PUSH1 0x0 KECCAK256 PUSH1 0x0 SWAP2 POP SWAP1 POP DUP1 PUSH1 0x0 ADD SLOAD SWAP1 DUP1 PUSH1 0x1 ADD SLOAD SWAP1 DUP1 PUSH1 0x2 ADD SLOAD SWAP1 DUP1 PUSH1 0x3 ADD SLOAD SWAP1 DUP1 PUSH1 0x4 ADD PUSH1 0x0 SWAP1 SLOAD SWAP1 PUSH2 0x100 EXP SWAP1 DIV PUSH20 0xFFFFFFFFFFFFFFFFFFFFFFFFFFFFFFFFFFFFFFFF AND SWAP1 POP DUP6 JUMP JUMPDEST PUSH1 0xA PUSH1 0x20 MSTORE DUP1 PUSH1 0x0 MSTORE PUSH1 0x40 PUSH1 0x0 KECCAK256 PUSH1 0x0 SWAP2 POP SLOAD SWAP1 PUSH2 0x100 EXP SWAP1 DIV PUSH20 0xFFFFFFFFFFFFFFFFFFFFFFFFFFFFFFFFFFFFFFFF AND DUP2 JUMP JUMPDEST PUSH1 0xD PUSH1 0x20 MSTORE DUP1 PUSH1 0x0 MSTORE PUSH1 0x40 PUSH1 0x0 KECCAK256 PUSH1 0x0 SWAP2 POP SWAP1 POP SLOAD DUP2 JUMP JUMPDEST PUSH1 0x5 SLOAD DUP2 JUMP JUMPDEST PUSH1 0x0 SLOAD DUP2 JUMP JUMPDEST PUSH1 0x0 DUP2 CALLDATALOAD SWAP1 POP PUSH2 0x7DB DUP2 PUSH2 0xCA5 JUMP JUMPDEST SWAP3 SWAP2 POP POP JUMP JUMPDEST PUSH1 0x0 DUP2 CALLDATALOAD SWAP1 POP PUSH2 0x7F0 DUP2 PUSH2 0xCBC JUMP JUMPDEST SWAP3 SWAP2 POP POP JUMP JUMPDEST PUSH1 0x0 DUP2 MLOAD SWAP1 POP PUSH2 0x805 DUP2 PUSH2 0xCBC JUMP JUMPDEST SWAP3 SWAP2 POP POP JUMP JUMPDEST PUSH1 0x0 PUSH1 0x20 DUP3 DUP5 SUB SLT ISZERO PUSH2 0x821 JUMPI PUSH2 0x820 PUSH2 0xC4E JUMP JUMPDEST JUMPDEST PUSH1 0x0 PUSH2 0x82F DUP5 DUP3 DUP6 ADD PUSH2 0x7CC JUMP JUMPDEST SWAP2 POP POP SWAP3 SWAP2 POP POP JUMP JUMPDEST PUSH1 0x0 DUP1 PUSH1 0x40 DUP4 DUP6 SUB SLT ISZERO PUSH2 0x84F JUMPI PUSH2 0x84E PUSH2 0xC4E JUMP JUMPDEST JUMPDEST PUSH1 0x0 PUSH2 0x85D DUP6 DUP3 DUP7 ADD PUSH2 0x7CC JUMP JUMPDEST SWAP3 POP POP PUSH1 0x20 PUSH2 0x86E DUP6 DUP3 DUP7 ADD PUSH2 0x7E1 JUMP JUMPDEST SWAP2 POP POP SWAP3 POP SWAP3 SWAP1 POP JUMP JUMPDEST PUSH1 0x0 PUSH1 0x20 DUP3 DUP5 SUB SLT ISZERO PUSH2 0x88E JUMPI PUSH2 0x88D PUSH2 0xC4E JUMP JUMPDEST JUMPDEST PUSH1 0x0 PUSH2 0x89C DUP5 DUP3 DUP6 ADD PUSH2 0x7E1 JUMP JUMPDEST SWAP2 POP POP SWAP3 SWAP2 POP POP JUMP JUMPDEST PUSH1 0x0 PUSH1 0x20 DUP3 DUP5 SUB SLT ISZERO PUSH2 0x8BB JUMPI PUSH2 0x8BA PUSH2 0xC4E JUMP JUMPDEST JUMPDEST PUSH1 0x0 PUSH2 0x8C9 DUP5 DUP3 DUP6 ADD PUSH2 0x7F6 JUMP JUMPDEST SWAP2 POP POP SWAP3 SWAP2 POP POP JUMP JUMPDEST PUSH1 0x0 DUP1 PUSH1 0x40 DUP4 DUP6 SUB SLT ISZERO PUSH2 0x8E9 JUMPI PUSH2 0x8E8 PUSH2 0xC4E JUMP JUMPDEST JUMPDEST PUSH1 0x0 PUSH2 0x8F7 DUP6 DUP3 DUP7 ADD PUSH2 0x7E1 JUMP JUMPDEST SWAP3 POP POP PUSH1 0x20 PUSH2 0x908 DUP6 DUP3 DUP7 ADD PUSH2 0x7CC JUMP JUMPDEST SWAP2 POP POP SWAP3 POP SWAP3 SWAP1 POP JUMP JUMPDEST PUSH2 0x91B DUP2 PUSH2 0xB04 JUMP JUMPDEST DUP3 MSTORE POP POP JUMP JUMPDEST PUSH2 0x92A DUP2 PUSH2 0xB40 JUMP JUMPDEST DUP3 MSTORE POP POP JUMP JUMPDEST PUSH1 0x0 PUSH2 0x93D PUSH1 0x19 DUP4 PUSH2 0xA69 JUMP JUMPDEST SWAP2 POP PUSH2 0x948 DUP3 PUSH2 0xC53 JUMP JUMPDEST PUSH1 0x20 DUP3 ADD SWAP1 POP SWAP2 SWAP1 POP JUMP JUMPDEST PUSH1 0x0 PUSH2 0x960 PUSH1 0x20 DUP4 PUSH2 0xA69 JUMP JUMPDEST SWAP2 POP PUSH2 0x96B DUP3 PUSH2 0xC7C JUMP JUMPDEST PUSH1 0x20 DUP3 ADD SWAP1 POP SWAP2 SWAP1 POP JUMP JUMPDEST PUSH2 0x97F DUP2 PUSH2 0xB36 JUMP JUMPDEST DUP3 MSTORE POP POP JUMP JUMPDEST PUSH1 0x0 PUSH1 0x20 DUP3 ADD SWAP1 POP PUSH2 0x99A PUSH1 0x0 DUP4 ADD DUP5 PUSH2 0x912 JUMP JUMPDEST SWAP3 SWAP2 POP POP JUMP JUMPDEST PUSH1 0x0 PUSH1 0x20 DUP3 ADD SWAP1 POP PUSH2 0x9B5 PUSH1 0x0 DUP4 ADD DUP5 PUSH2 0x921 JUMP JUMPDEST SWAP3 SWAP2 POP POP JUMP JUMPDEST PUSH1 0x0 PUSH1 0x20 DUP3 ADD SWAP1 POP DUP2 DUP2 SUB PUSH1 0x0 DUP4 ADD MSTORE PUSH2 0x9D4 DUP2 PUSH2 0x930 JUMP JUMPDEST SWAP1 POP SWAP2 SWAP1 POP JUMP JUMPDEST PUSH1 0x0 PUSH1 0x20 DUP3 ADD SWAP1 POP DUP2 DUP2 SUB PUSH1 0x0 DUP4 ADD MSTORE PUSH2 0x9F4 DUP2 PUSH2 0x953 JUMP JUMPDEST SWAP1 POP SWAP2 SWAP1 POP JUMP JUMPDEST PUSH1 0x0 PUSH1 0x20 DUP3 ADD SWAP1 POP PUSH2 0xA10 PUSH1 0x0 DUP4 ADD DUP5 PUSH2 0x976 JUMP JUMPDEST SWAP3 SWAP2 POP POP JUMP JUMPDEST PUSH1 0x0 PUSH1 0xA0 DUP3 ADD SWAP1 POP PUSH2 0xA2B PUSH1 0x0 DUP4 ADD DUP9 PUSH2 0x976 JUMP JUMPDEST PUSH2 0xA38 PUSH1 0x20 DUP4 ADD DUP8 PUSH2 0x976 JUMP JUMPDEST PUSH2 0xA45 PUSH1 0x40 DUP4 ADD DUP7 PUSH2 0x976 JUMP JUMPDEST PUSH2 0xA52 PUSH1 0x60 DUP4 ADD DUP6 PUSH2 0x976 JUMP JUMPDEST PUSH2 0xA5F PUSH1 0x80 DUP4 ADD DUP5 PUSH2 0x912 JUMP JUMPDEST SWAP7 SWAP6 POP POP POP POP POP POP JUMP JUMPDEST PUSH1 0x0 DUP3 DUP3 MSTORE PUSH1 0x20 DUP3 ADD SWAP1 POP SWAP3 SWAP2 POP POP JUMP JUMPDEST PUSH1 0x0 PUSH2 0xA85 DUP3 PUSH2 0xB36 JUMP JUMPDEST SWAP2 POP PUSH2 0xA90 DUP4 PUSH2 0xB36 JUMP JUMPDEST SWAP3 POP DUP3 PUSH32 0xFFFFFFFFFFFFFFFFFFFFFFFFFFFFFFFFFFFFFFFFFFFFFFFFFFFFFFFFFFFFFFFF SUB DUP3 GT ISZERO PUSH2 0xAC5 JUMPI PUSH2 0xAC4 PUSH2 0xBF0 JUMP JUMPDEST JUMPDEST DUP3 DUP3 ADD SWAP1 POP SWAP3 SWAP2 POP POP JUMP JUMPDEST PUSH1 0x0 PUSH2 0xADB DUP3 PUSH2 0xB36 JUMP JUMPDEST SWAP2 POP PUSH2 0xAE6 DUP4 PUSH2 0xB36 JUMP JUMPDEST SWAP3 POP DUP3 DUP3 LT ISZERO PUSH2 0xAF9 JUMPI PUSH2 0xAF8 PUSH2 0xBF0 JUMP JUMPDEST JUMPDEST DUP3 DUP3 SUB SWAP1 POP SWAP3 SWAP2 POP POP JUMP JUMPDEST PUSH1 0x0 PUSH2 0xB0F DUP3 PUSH2 0xB16 JUMP JUMPDEST SWAP1 POP SWAP2 SWAP1 POP JUMP JUMPDEST PUSH1 0x0 PUSH20 0xFFFFFFFFFFFFFFFFFFFFFFFFFFFFFFFFFFFFFFFF DUP3 AND SWAP1 POP SWAP2 SWAP1 POP JUMP JUMPDEST PUSH1 0x0 DUP2 SWAP1 POP SWAP2 SWAP1 POP JUMP JUMPDEST PUSH1 0x0 PUSH2 0xB4B DUP3 PUSH2 0xB52 JUMP JUMPDEST SWAP1 POP SWAP2 SWAP1 POP JUMP JUMPDEST PUSH1 0x0 PUSH2 0xB5D DUP3 PUSH2 0xB64 JUMP JUMPDEST SWAP1 POP SWAP2 SWAP1 POP JUMP JUMPDEST PUSH1 0x0 PUSH2 0xB6F DUP3 PUSH2 0xB16 JUMP JUMPDEST SWAP1 POP SWAP2 SWAP1 POP JUMP JUMPDEST PUSH1 0x0 PUSH2 0xB81 DUP3 PUSH2 0xB36 JUMP JUMPDEST SWAP2 POP PUSH32 0xFFFFFFFFFFFFFFFFFFFFFFFFFFFFFFFFFFFFFFFFFFFFFFFFFFFFFFFFFFFFFFFF DUP3 EQ ISZERO PUSH2 0xBB4 JUMPI PUSH2 0xBB3 PUSH2 0xBF0 JUMP JUMPDEST JUMPDEST PUSH1 0x1 DUP3 ADD SWAP1 POP SWAP2 SWAP1 POP JUMP JUMPDEST PUSH1 0x0 PUSH2 0xBCA DUP3 PUSH2 0xB36 JUMP JUMPDEST SWAP2 POP PUSH2 0xBD5 DUP4 PUSH2 0xB36 JUMP JUMPDEST SWAP3 POP DUP3 PUSH2 0xBE5 JUMPI PUSH2 0xBE4 PUSH2 0xC1F JUMP JUMPDEST JUMPDEST DUP3 DUP3 MOD SWAP1 POP SWAP3 SWAP2 POP POP JUMP JUMPDEST PUSH32 0x4E487B7100000000000000000000000000000000000000000000000000000000 PUSH1 0x0 MSTORE PUSH1 0x11 PUSH1 0x4 MSTORE PUSH1 0x24 PUSH1 0x0 REVERT JUMPDEST PUSH32 0x4E487B7100000000000000000000000000000000000000000000000000000000 PUSH1 0x0 MSTORE PUSH1 0x12 PUSH1 0x4 MSTORE PUSH1 0x24 PUSH1 0x0 REVERT JUMPDEST PUSH1 0x0 DUP1 REVERT JUMPDEST PUSH32 0x4E6F7420656E6F75676820244143455320746F20656E74657200000000000000 PUSH1 0x0 DUP3 ADD MSTORE POP JUMP JUMPDEST PUSH32 0x4F6E6C7920737761702063616E2063616C6C20746869732066756E6374696F6E PUSH1 0x0 DUP3 ADD MSTORE POP JUMP JUMPDEST PUSH2 0xCAE DUP2 PUSH2 0xB04 JUMP JUMPDEST DUP2 EQ PUSH2 0xCB9 JUMPI PUSH1 0x0 DUP1 REVERT JUMPDEST POP JUMP JUMPDEST PUSH2 0xCC5 DUP2 PUSH2 0xB36 JUMP JUMPDEST DUP2 EQ PUSH2 0xCD0 JUMPI PUSH1 0x0 DUP1 REVERT JUMPDEST POP JUMP INVALID LOG2 PUSH5 0x6970667358 0x22 SLT KECCAK256 0xB6 0xC6 CREATE 0xB6 SWAP12 PUSH7 0x7ECF045FCFAE25 PUSH3 0xA0CFFA PUSH27 0x83CA6DDC9F61041C10496472ED8E64736F6C634300080700330000 "
				},
				"gasEstimates": {
					"creation": {
						"codeDepositCost": "667400",
						"executionCost": "infinite",
						"totalCost": "infinite"
					},
					"external": {
						"acesSwap()": "2537",
						"acesToken()": "2667",
						"currentJackpot()": "2517",
						"enterLotto()": "infinite",
						"entriesPerRound(uint256,address)": "infinite",
						"lastBalanceRecorded(address)": "2858",
						"lastRoundEntered(address)": "2838",
						"roundDuration()": "2495",
						"roundEntries()": "2496",
						"roundEntry(uint256)": "2861",
						"roundNum()": "2475",
						"roundResults(uint256)": "infinite",
						"startTime()": "2518",
						"swapAddEntry(address,uint256)": "3173",
						"ticketPrice()": "2497",
						"totalPayout()": "2452"
					},
					"internal": {
						"addEntry(address,uint256)": "infinite"
					}
				},
				"methodIdentifiers": {
					"acesSwap()": "87e537db",
					"acesToken()": "9b3e4552",
					"currentJackpot()": "f9cee0bd",
					"enterLotto()": "90b841ec",
					"entriesPerRound(uint256,address)": "578e3f88",
					"lastBalanceRecorded(address)": "cbd9f3e2",
					"lastRoundEntered(address)": "0630d448",
					"roundDuration()": "f7cb789a",
					"roundEntries()": "76636d20",
					"roundEntry(uint256)": "b657dd65",
					"roundNum()": "119b22b3",
					"roundResults(uint256)": "ac128f4f",
					"startTime()": "78e97925",
					"swapAddEntry(address,uint256)": "2f42a526",
					"ticketPrice()": "1209b1f6",
					"totalPayout()": "454f7b8f"
				}
			},
			"storageLayout": {
				"storage": [
					{
						"astId": 82,
						"contract": "lotto.sol:ACELotto",
						"label": "currentJackpot",
						"offset": 0,
						"slot": "0",
						"type": "t_uint256"
					},
					{
						"astId": 84,
						"contract": "lotto.sol:ACELotto",
						"label": "roundEntries",
						"offset": 0,
						"slot": "1",
						"type": "t_uint256"
					},
					{
						"astId": 86,
						"contract": "lotto.sol:ACELotto",
						"label": "roundNum",
						"offset": 0,
						"slot": "2",
						"type": "t_uint256"
					},
					{
						"astId": 88,
						"contract": "lotto.sol:ACELotto",
						"label": "totalPayout",
						"offset": 0,
						"slot": "3",
						"type": "t_uint256"
					},
					{
						"astId": 91,
						"contract": "lotto.sol:ACELotto",
						"label": "ticketPrice",
						"offset": 0,
						"slot": "4",
						"type": "t_uint256"
					},
					{
						"astId": 94,
						"contract": "lotto.sol:ACELotto",
						"label": "roundDuration",
						"offset": 0,
						"slot": "5",
						"type": "t_uint256"
					},
					{
						"astId": 96,
						"contract": "lotto.sol:ACELotto",
						"label": "startTime",
						"offset": 0,
						"slot": "6",
						"type": "t_uint256"
					},
					{
						"astId": 99,
						"contract": "lotto.sol:ACELotto",
						"label": "acesToken",
						"offset": 0,
						"slot": "7",
						"type": "t_contract(IERC20)77"
					},
					{
						"astId": 101,
						"contract": "lotto.sol:ACELotto",
						"label": "acesSwap",
						"offset": 0,
						"slot": "8",
						"type": "t_address"
					},
					{
						"astId": 117,
						"contract": "lotto.sol:ACELotto",
						"label": "roundResults",
						"offset": 0,
						"slot": "9",
						"type": "t_mapping(t_uint256,t_struct(Results)112_storage)"
					},
					{
						"astId": 121,
						"contract": "lotto.sol:ACELotto",
						"label": "roundEntry",
						"offset": 0,
						"slot": "10",
						"type": "t_mapping(t_uint256,t_address)"
					},
					{
						"astId": 127,
						"contract": "lotto.sol:ACELotto",
						"label": "entriesPerRound",
						"offset": 0,
						"slot": "11",
						"type": "t_mapping(t_uint256,t_mapping(t_address,t_uint256))"
					},
					{
						"astId": 131,
						"contract": "lotto.sol:ACELotto",
						"label": "lastRoundEntered",
						"offset": 0,
						"slot": "12",
						"type": "t_mapping(t_address,t_uint256)"
					},
					{
						"astId": 135,
						"contract": "lotto.sol:ACELotto",
						"label": "lastBalanceRecorded",
						"offset": 0,
						"slot": "13",
						"type": "t_mapping(t_address,t_uint256)"
					}
				],
				"types": {
					"t_address": {
						"encoding": "inplace",
						"label": "address",
						"numberOfBytes": "20"
					},
					"t_contract(IERC20)77": {
						"encoding": "inplace",
						"label": "contract IERC20",
						"numberOfBytes": "20"
					},
					"t_mapping(t_address,t_uint256)": {
						"encoding": "mapping",
						"key": "t_address",
						"label": "mapping(address => uint256)",
						"numberOfBytes": "32",
						"value": "t_uint256"
					},
					"t_mapping(t_uint256,t_address)": {
						"encoding": "mapping",
						"key": "t_uint256",
						"label": "mapping(uint256 => address)",
						"numberOfBytes": "32",
						"value": "t_address"
					},
					"t_mapping(t_uint256,t_mapping(t_address,t_uint256))": {
						"encoding": "mapping",
						"key": "t_uint256",
						"label": "mapping(uint256 => mapping(address => uint256))",
						"numberOfBytes": "32",
						"value": "t_mapping(t_address,t_uint256)"
					},
					"t_mapping(t_uint256,t_struct(Results)112_storage)": {
						"encoding": "mapping",
						"key": "t_uint256",
						"label": "mapping(uint256 => struct ACELotto.Results)",
						"numberOfBytes": "32",
						"value": "t_struct(Results)112_storage"
					},
					"t_struct(Results)112_storage": {
						"encoding": "inplace",
						"label": "struct ACELotto.Results",
						"members": [
							{
								"astId": 103,
								"contract": "lotto.sol:ACELotto",
								"label": "totalEntries",
								"offset": 0,
								"slot": "0",
								"type": "t_uint256"
							},
							{
								"astId": 105,
								"contract": "lotto.sol:ACELotto",
								"label": "winningNumber",
								"offset": 0,
								"slot": "1",
								"type": "t_uint256"
							},
							{
								"astId": 107,
								"contract": "lotto.sol:ACELotto",
								"label": "payout",
								"offset": 0,
								"slot": "2",
								"type": "t_uint256"
							},
							{
								"astId": 109,
								"contract": "lotto.sol:ACELotto",
								"label": "endTime",
								"offset": 0,
								"slot": "3",
								"type": "t_uint256"
							},
							{
								"astId": 111,
								"contract": "lotto.sol:ACELotto",
								"label": "winningAddress",
								"offset": 0,
								"slot": "4",
								"type": "t_address"
							}
						],
						"numberOfBytes": "160"
					},
					"t_uint256": {
						"encoding": "inplace",
						"label": "uint256",
						"numberOfBytes": "32"
					}
				}
			},
			"userdoc": {
				"kind": "user",
				"methods": {},
				"version": 1
			}
		}
	}
}