{
	"lotto.sol": {
		"ACELotto": {
			"abi": [
				{
					"inputs": [
						{
							"internalType": "address",
							"name": "_aces",
							"type": "address"
						}
					],
					"stateMutability": "nonpayable",
					"type": "constructor"
				},
				{
					"anonymous": false,
					"inputs": [
						{
							"indexed": false,
							"internalType": "address",
							"name": "winner",
							"type": "address"
						},
						{
							"indexed": false,
							"internalType": "uint256",
							"name": "amount",
							"type": "uint256"
						}
					],
					"name": "LotteryWon",
					"type": "event"
				},
				{
					"anonymous": false,
					"inputs": [
						{
							"indexed": true,
							"internalType": "address",
							"name": "previousOwner",
							"type": "address"
						},
						{
							"indexed": true,
							"internalType": "address",
							"name": "newOwner",
							"type": "address"
						}
					],
					"name": "OwnershipTransferred",
					"type": "event"
				},
				{
					"inputs": [],
					"name": "acesToken",
					"outputs": [
						{
							"internalType": "contract IERC20",
							"name": "",
							"type": "address"
						}
					],
					"stateMutability": "view",
					"type": "function"
				},
				{
					"inputs": [],
					"name": "currentJackpot",
					"outputs": [
						{
							"internalType": "uint256",
							"name": "",
							"type": "uint256"
						}
					],
					"stateMutability": "view",
					"type": "function"
				},
				{
					"inputs": [
						{
							"internalType": "address",
							"name": "",
							"type": "address"
						},
						{
							"internalType": "uint256",
							"name": "",
							"type": "uint256"
						}
					],
					"name": "entriesIndex",
					"outputs": [
						{
							"internalType": "uint256",
							"name": "",
							"type": "uint256"
						}
					],
					"stateMutability": "view",
					"type": "function"
				},
				{
					"inputs": [],
					"name": "getUniqueAddresses",
					"outputs": [
						{
							"internalType": "address[]",
							"name": "addresses",
							"type": "address[]"
						},
						{
							"internalType": "uint256[]",
							"name": "entries",
							"type": "uint256[]"
						}
					],
					"stateMutability": "view",
					"type": "function"
				},
				{
					"inputs": [],
					"name": "getUniqueUsers",
					"outputs": [
						{
							"internalType": "uint256",
							"name": "counter",
							"type": "uint256"
						}
					],
					"stateMutability": "view",
					"type": "function"
				},
				{
					"inputs": [
						{
							"internalType": "address",
							"name": "account",
							"type": "address"
						}
					],
					"name": "isActiveAccount",
					"outputs": [
						{
							"internalType": "bool",
							"name": "",
							"type": "bool"
						}
					],
					"stateMutability": "view",
					"type": "function"
				},
				{
					"inputs": [],
					"name": "owner",
					"outputs": [
						{
							"internalType": "address",
							"name": "",
							"type": "address"
						}
					],
					"stateMutability": "view",
					"type": "function"
				},
				{
					"inputs": [],
					"name": "pickWinner",
					"outputs": [],
					"stateMutability": "nonpayable",
					"type": "function"
				},
				{
					"inputs": [
						{
							"internalType": "address",
							"name": "account",
							"type": "address"
						}
					],
					"name": "removeAccount",
					"outputs": [],
					"stateMutability": "nonpayable",
					"type": "function"
				},
				{
					"inputs": [
						{
							"internalType": "address",
							"name": "account",
							"type": "address"
						},
						{
							"internalType": "uint256",
							"name": "amount",
							"type": "uint256"
						}
					],
					"name": "removeEntryFromWallet",
					"outputs": [],
					"stateMutability": "nonpayable",
					"type": "function"
				},
				{
					"inputs": [],
					"name": "renounceOwnership",
					"outputs": [],
					"stateMutability": "nonpayable",
					"type": "function"
				},
				{
					"inputs": [
						{
							"internalType": "uint256",
							"name": "startIndex",
							"type": "uint256"
						},
						{
							"internalType": "uint256",
							"name": "endIndex",
							"type": "uint256"
						}
					],
					"name": "resultLog",
					"outputs": [
						{
							"components": [
								{
									"internalType": "uint256",
									"name": "totalEntries",
									"type": "uint256"
								},
								{
									"internalType": "uint256",
									"name": "winningNumber",
									"type": "uint256"
								},
								{
									"internalType": "uint256",
									"name": "payout",
									"type": "uint256"
								},
								{
									"internalType": "uint256",
									"name": "endTime",
									"type": "uint256"
								},
								{
									"internalType": "address",
									"name": "winningAddress",
									"type": "address"
								}
							],
							"internalType": "struct ACELotto.Results[]",
							"name": "log",
							"type": "tuple[]"
						}
					],
					"stateMutability": "view",
					"type": "function"
				},
				{
					"inputs": [],
					"name": "roundEntries",
					"outputs": [
						{
							"internalType": "uint256",
							"name": "",
							"type": "uint256"
						}
					],
					"stateMutability": "view",
					"type": "function"
				},
				{
					"inputs": [
						{
							"internalType": "uint256",
							"name": "",
							"type": "uint256"
						}
					],
					"name": "roundEntry",
					"outputs": [
						{
							"internalType": "address",
							"name": "",
							"type": "address"
						}
					],
					"stateMutability": "view",
					"type": "function"
				},
				{
					"inputs": [],
					"name": "roundNum",
					"outputs": [
						{
							"internalType": "uint256",
							"name": "",
							"type": "uint256"
						}
					],
					"stateMutability": "view",
					"type": "function"
				},
				{
					"inputs": [
						{
							"internalType": "uint256",
							"name": "",
							"type": "uint256"
						}
					],
					"name": "roundResults",
					"outputs": [
						{
							"internalType": "uint256",
							"name": "totalEntries",
							"type": "uint256"
						},
						{
							"internalType": "uint256",
							"name": "winningNumber",
							"type": "uint256"
						},
						{
							"internalType": "uint256",
							"name": "payout",
							"type": "uint256"
						},
						{
							"internalType": "uint256",
							"name": "endTime",
							"type": "uint256"
						},
						{
							"internalType": "address",
							"name": "winningAddress",
							"type": "address"
						}
					],
					"stateMutability": "view",
					"type": "function"
				},
				{
					"inputs": [],
					"name": "totalPayout",
					"outputs": [
						{
							"internalType": "uint256",
							"name": "",
							"type": "uint256"
						}
					],
					"stateMutability": "view",
					"type": "function"
				},
				{
					"inputs": [
						{
							"internalType": "address",
							"name": "newOwner",
							"type": "address"
						}
					],
					"name": "transferOwnership",
					"outputs": [],
					"stateMutability": "nonpayable",
					"type": "function"
				},
				{
					"inputs": [
						{
							"internalType": "address",
							"name": "account",
							"type": "address"
						},
						{
							"internalType": "uint256",
							"name": "amount",
							"type": "uint256"
						}
					],
					"name": "updateAccount",
					"outputs": [],
					"stateMutability": "nonpayable",
					"type": "function"
				},
				{
					"inputs": [
						{
							"internalType": "address",
							"name": "account",
							"type": "address"
						}
					],
					"name": "userEntries",
					"outputs": [
						{
							"internalType": "uint256",
							"name": "",
							"type": "uint256"
						}
					],
					"stateMutability": "view",
					"type": "function"
				}
			],
			"devdoc": {
				"kind": "dev",
				"methods": {
					"owner()": {
						"details": "Returns the address of the current owner."
					},
					"renounceOwnership()": {
						"details": "Leaves the contract without owner. It will not be possible to call `onlyOwner` functions anymore. Can only be called by the current owner. NOTE: Renouncing ownership will leave the contract without an owner, thereby removing any functionality that is only available to the owner."
					},
					"transferOwnership(address)": {
						"details": "Transfers ownership of the contract to a new account (`newOwner`). Can only be called by the current owner."
					}
				},
				"version": 1
			},
			"evm": {
				"assembly": "    /* \"lotto.sol\":595:5198  contract ACELotto is Ownable {   \r... */\n  mstore(0x40, 0x80)\n    /* \"lotto.sol\":1172:1242  constructor(address _aces){\r... */\n  callvalue\n  dup1\n  iszero\n  tag_1\n  jumpi\n  0x00\n  dup1\n  revert\ntag_1:\n  pop\n  mload(0x40)\n  sub(codesize, bytecodeSize)\n  dup1\n  bytecodeSize\n  dup4\n  codecopy\n  dup2\n  dup2\n  add\n  0x40\n  mstore\n  dup2\n  add\n  swap1\n  tag_2\n  swap2\n  swap1\n  tag_3\n  jump\t// in\ntag_2:\n    /* \"https://github.com/OpenZeppelin/openzeppelin-contracts/blob/master/contracts/access/Ownable.sol\":921:953  _transferOwnership(_msgSender()) */\n  tag_7\n    /* \"https://github.com/OpenZeppelin/openzeppelin-contracts/blob/master/contracts/access/Ownable.sol\":940:952  _msgSender() */\n  tag_8\n    /* \"https://github.com/OpenZeppelin/openzeppelin-contracts/blob/master/contracts/access/Ownable.sol\":940:950  _msgSender */\n  shl(0x20, tag_9)\n    /* \"https://github.com/OpenZeppelin/openzeppelin-contracts/blob/master/contracts/access/Ownable.sol\":940:952  _msgSender() */\n  0x20\n  shr\n  jump\t// in\ntag_8:\n    /* \"https://github.com/OpenZeppelin/openzeppelin-contracts/blob/master/contracts/access/Ownable.sol\":921:939  _transferOwnership */\n  shl(0x20, tag_10)\n    /* \"https://github.com/OpenZeppelin/openzeppelin-contracts/blob/master/contracts/access/Ownable.sol\":921:953  _transferOwnership(_msgSender()) */\n  0x20\n  shr\n  jump\t// in\ntag_7:\n    /* \"lotto.sol\":1228:1233  _aces */\n  dup1\n    /* \"lotto.sol\":1209:1218  acesToken */\n  0x04\n  0x00\n    /* \"lotto.sol\":1209:1234  acesToken = IERC20(_aces) */\n  0x0100\n  exp\n  dup2\n  sload\n  dup2\n  0xffffffffffffffffffffffffffffffffffffffff\n  mul\n  not\n  and\n  swap1\n  dup4\n  0xffffffffffffffffffffffffffffffffffffffff\n  and\n  mul\n  or\n  swap1\n  sstore\n  pop\n    /* \"lotto.sol\":1172:1242  constructor(address _aces){\r... */\n  pop\n    /* \"lotto.sol\":595:5198  contract ACELotto is Ownable {   \r... */\n  jump(tag_12)\n    /* \"https://github.com/OpenZeppelin/openzeppelin-contracts/blob/master/contracts/utils/Context.sol\":640:736  function _msgSender() internal view virtual returns (address) {... */\ntag_9:\n    /* \"https://github.com/OpenZeppelin/openzeppelin-contracts/blob/master/contracts/utils/Context.sol\":693:700  address */\n  0x00\n    /* \"https://github.com/OpenZeppelin/openzeppelin-contracts/blob/master/contracts/utils/Context.sol\":719:729  msg.sender */\n  caller\n    /* \"https://github.com/OpenZeppelin/openzeppelin-contracts/blob/master/contracts/utils/Context.sol\":712:729  return msg.sender */\n  swap1\n  pop\n    /* \"https://github.com/OpenZeppelin/openzeppelin-contracts/blob/master/contracts/utils/Context.sol\":640:736  function _msgSender() internal view virtual returns (address) {... */\n  swap1\n  jump\t// out\n    /* \"https://github.com/OpenZeppelin/openzeppelin-contracts/blob/master/contracts/access/Ownable.sol\":2270:2457  function _transferOwnership(address newOwner) internal virtual {... */\ntag_10:\n    /* \"https://github.com/OpenZeppelin/openzeppelin-contracts/blob/master/contracts/access/Ownable.sol\":2343:2359  address oldOwner */\n  0x00\n    /* \"https://github.com/OpenZeppelin/openzeppelin-contracts/blob/master/contracts/access/Ownable.sol\":2362:2368  _owner */\n  dup1\n  0x00\n  swap1\n  sload\n  swap1\n  0x0100\n  exp\n  swap1\n  div\n  0xffffffffffffffffffffffffffffffffffffffff\n  and\n    /* \"https://github.com/OpenZeppelin/openzeppelin-contracts/blob/master/contracts/access/Ownable.sol\":2343:2368  address oldOwner = _owner */\n  swap1\n  pop\n    /* \"https://github.com/OpenZeppelin/openzeppelin-contracts/blob/master/contracts/access/Ownable.sol\":2387:2395  newOwner */\n  dup2\n    /* \"https://github.com/OpenZeppelin/openzeppelin-contracts/blob/master/contracts/access/Ownable.sol\":2378:2384  _owner */\n  0x00\n  dup1\n    /* \"https://github.com/OpenZeppelin/openzeppelin-contracts/blob/master/contracts/access/Ownable.sol\":2378:2395  _owner = newOwner */\n  0x0100\n  exp\n  dup2\n  sload\n  dup2\n  0xffffffffffffffffffffffffffffffffffffffff\n  mul\n  not\n  and\n  swap1\n  dup4\n  0xffffffffffffffffffffffffffffffffffffffff\n  and\n  mul\n  or\n  swap1\n  sstore\n  pop\n    /* \"https://github.com/OpenZeppelin/openzeppelin-contracts/blob/master/contracts/access/Ownable.sol\":2441:2449  newOwner */\n  dup2\n    /* \"https://github.com/OpenZeppelin/openzeppelin-contracts/blob/master/contracts/access/Ownable.sol\":2410:2450  OwnershipTransferred(oldOwner, newOwner) */\n  0xffffffffffffffffffffffffffffffffffffffff\n  and\n    /* \"https://github.com/OpenZeppelin/openzeppelin-contracts/blob/master/contracts/access/Ownable.sol\":2431:2439  oldOwner */\n  dup2\n    /* \"https://github.com/OpenZeppelin/openzeppelin-contracts/blob/master/contracts/access/Ownable.sol\":2410:2450  OwnershipTransferred(oldOwner, newOwner) */\n  0xffffffffffffffffffffffffffffffffffffffff\n  and\n  0x8be0079c531659141344cd1fd0a4f28419497f9722a3daafe3b4186f6b6457e0\n  mload(0x40)\n  mload(0x40)\n  dup1\n  swap2\n  sub\n  swap1\n  log3\n    /* \"https://github.com/OpenZeppelin/openzeppelin-contracts/blob/master/contracts/access/Ownable.sol\":2333:2457  {... */\n  pop\n    /* \"https://github.com/OpenZeppelin/openzeppelin-contracts/blob/master/contracts/access/Ownable.sol\":2270:2457  function _transferOwnership(address newOwner) internal virtual {... */\n  pop\n  jump\t// out\n    /* \"#utility.yul\":7:150   */\ntag_16:\n    /* \"#utility.yul\":64:69   */\n  0x00\n    /* \"#utility.yul\":95:101   */\n  dup2\n    /* \"#utility.yul\":89:102   */\n  mload\n    /* \"#utility.yul\":80:102   */\n  swap1\n  pop\n    /* \"#utility.yul\":111:144   */\n  tag_18\n    /* \"#utility.yul\":138:143   */\n  dup2\n    /* \"#utility.yul\":111:144   */\n  tag_19\n  jump\t// in\ntag_18:\n    /* \"#utility.yul\":7:150   */\n  swap3\n  swap2\n  pop\n  pop\n  jump\t// out\n    /* \"#utility.yul\":156:507   */\ntag_3:\n    /* \"#utility.yul\":226:232   */\n  0x00\n    /* \"#utility.yul\":275:277   */\n  0x20\n    /* \"#utility.yul\":263:272   */\n  dup3\n    /* \"#utility.yul\":254:261   */\n  dup5\n    /* \"#utility.yul\":250:273   */\n  sub\n    /* \"#utility.yul\":246:278   */\n  slt\n    /* \"#utility.yul\":243:362   */\n  iszero\n  tag_21\n  jumpi\n    /* \"#utility.yul\":281:360   */\n  tag_22\n  tag_23\n  jump\t// in\ntag_22:\n    /* \"#utility.yul\":243:362   */\ntag_21:\n    /* \"#utility.yul\":401:402   */\n  0x00\n    /* \"#utility.yul\":426:490   */\n  tag_24\n    /* \"#utility.yul\":482:489   */\n  dup5\n    /* \"#utility.yul\":473:479   */\n  dup3\n    /* \"#utility.yul\":462:471   */\n  dup6\n    /* \"#utility.yul\":458:480   */\n  add\n    /* \"#utility.yul\":426:490   */\n  tag_16\n  jump\t// in\ntag_24:\n    /* \"#utility.yul\":416:490   */\n  swap2\n  pop\n    /* \"#utility.yul\":372:500   */\n  pop\n    /* \"#utility.yul\":156:507   */\n  swap3\n  swap2\n  pop\n  pop\n  jump\t// out\n    /* \"#utility.yul\":594:690   */\ntag_27:\n    /* \"#utility.yul\":631:638   */\n  0x00\n    /* \"#utility.yul\":660:684   */\n  tag_29\n    /* \"#utility.yul\":678:683   */\n  dup3\n    /* \"#utility.yul\":660:684   */\n  tag_30\n  jump\t// in\ntag_29:\n    /* \"#utility.yul\":649:684   */\n  swap1\n  pop\n    /* \"#utility.yul\":594:690   */\n  swap2\n  swap1\n  pop\n  jump\t// out\n    /* \"#utility.yul\":696:822   */\ntag_30:\n    /* \"#utility.yul\":733:740   */\n  0x00\n    /* \"#utility.yul\":773:815   */\n  0xffffffffffffffffffffffffffffffffffffffff\n    /* \"#utility.yul\":766:771   */\n  dup3\n    /* \"#utility.yul\":762:816   */\n  and\n    /* \"#utility.yul\":751:816   */\n  swap1\n  pop\n    /* \"#utility.yul\":696:822   */\n  swap2\n  swap1\n  pop\n  jump\t// out\n    /* \"#utility.yul\":951:1068   */\ntag_23:\n    /* \"#utility.yul\":1060:1061   */\n  0x00\n    /* \"#utility.yul\":1057:1058   */\n  dup1\n    /* \"#utility.yul\":1050:1062   */\n  revert\n    /* \"#utility.yul\":1074:1196   */\ntag_19:\n    /* \"#utility.yul\":1147:1171   */\n  tag_36\n    /* \"#utility.yul\":1165:1170   */\n  dup2\n    /* \"#utility.yul\":1147:1171   */\n  tag_27\n  jump\t// in\ntag_36:\n    /* \"#utility.yul\":1140:1145   */\n  dup2\n    /* \"#utility.yul\":1137:1172   */\n  eq\n    /* \"#utility.yul\":1127:1190   */\n  tag_37\n  jumpi\n    /* \"#utility.yul\":1186:1187   */\n  0x00\n    /* \"#utility.yul\":1183:1184   */\n  dup1\n    /* \"#utility.yul\":1176:1188   */\n  revert\n    /* \"#utility.yul\":1127:1190   */\ntag_37:\n    /* \"#utility.yul\":1074:1196   */\n  pop\n  jump\t// out\n    /* \"lotto.sol\":595:5198  contract ACELotto is Ownable {   \r... */\ntag_12:\n  dataSize(sub_0)\n  dup1\n  dataOffset(sub_0)\n  0x00\n  codecopy\n  0x00\n  return\nstop\n\nsub_0: assembly {\n        /* \"lotto.sol\":595:5198  contract ACELotto is Ownable {   \r... */\n      mstore(0x40, 0x80)\n      callvalue\n      dup1\n      iszero\n      tag_1\n      jumpi\n      0x00\n      dup1\n      revert\n    tag_1:\n      pop\n      jumpi(tag_2, lt(calldatasize, 0x04))\n      shr(0xe0, calldataload(0x00))\n      dup1\n      0x8da5cb5b\n      gt\n      tag_23\n      jumpi\n      dup1\n      0xb657dd65\n      gt\n      tag_24\n      jumpi\n      dup1\n      0xb657dd65\n      eq\n      tag_18\n      jumpi\n      dup1\n      0xbc15cdf0\n      eq\n      tag_19\n      jumpi\n      dup1\n      0xc4740a95\n      eq\n      tag_20\n      jumpi\n      dup1\n      0xf2fde38b\n      eq\n      tag_21\n      jumpi\n      dup1\n      0xf9cee0bd\n      eq\n      tag_22\n      jumpi\n      jump(tag_2)\n    tag_24:\n      dup1\n      0x8da5cb5b\n      eq\n      tag_13\n      jumpi\n      dup1\n      0x9b3e4552\n      eq\n      tag_14\n      jumpi\n      dup1\n      0x9f10a990\n      eq\n      tag_15\n      jumpi\n      dup1\n      0xa59460dc\n      eq\n      tag_16\n      jumpi\n      dup1\n      0xac128f4f\n      eq\n      tag_17\n      jumpi\n      jump(tag_2)\n    tag_23:\n      dup1\n      0x454f7b8f\n      gt\n      tag_25\n      jumpi\n      dup1\n      0x454f7b8f\n      eq\n      tag_8\n      jumpi\n      dup1\n      0x5bedc390\n      eq\n      tag_9\n      jumpi\n      dup1\n      0x5d495aea\n      eq\n      tag_10\n      jumpi\n      dup1\n      0x715018a6\n      eq\n      tag_11\n      jumpi\n      dup1\n      0x76636d20\n      eq\n      tag_12\n      jumpi\n      jump(tag_2)\n    tag_25:\n      dup1\n      0x0d988270\n      eq\n      tag_3\n      jumpi\n      dup1\n      0x119b22b3\n      eq\n      tag_4\n      jumpi\n      dup1\n      0x158977de\n      eq\n      tag_5\n      jumpi\n      dup1\n      0x3b98bc65\n      eq\n      tag_6\n      jumpi\n      dup1\n      0x443b80a1\n      eq\n      tag_7\n      jumpi\n    tag_2:\n      0x00\n      dup1\n      revert\n        /* \"lotto.sol\":1057:1106  mapping(address => uint256[]) public entriesIndex */\n    tag_3:\n      tag_26\n      0x04\n      dup1\n      calldatasize\n      sub\n      dup2\n      add\n      swap1\n      tag_27\n      swap2\n      swap1\n      tag_28\n      jump\t// in\n    tag_27:\n      tag_29\n      jump\t// in\n    tag_26:\n      mload(0x40)\n      tag_30\n      swap2\n      swap1\n      tag_31\n      jump\t// in\n    tag_30:\n      mload(0x40)\n      dup1\n      swap2\n      sub\n      swap1\n      return\n        /* \"lotto.sol\":668:691  uint256 public roundNum */\n    tag_4:\n      tag_32\n      tag_33\n      jump\t// in\n    tag_32:\n      mload(0x40)\n      tag_34\n      swap2\n      swap1\n      tag_31\n      jump\t// in\n    tag_34:\n      mload(0x40)\n      dup1\n      swap2\n      sub\n      swap1\n      return\n        /* \"lotto.sol\":3923:4203  function getUniqueUsers() public view returns (uint256 counter) {\r... */\n    tag_5:\n      tag_35\n      tag_36\n      jump\t// in\n    tag_35:\n      mload(0x40)\n      tag_37\n      swap2\n      swap1\n      tag_31\n      jump\t// in\n    tag_37:\n      mload(0x40)\n      dup1\n      swap2\n      sub\n      swap1\n      return\n        /* \"lotto.sol\":4211:4814  function getUniqueAddresses() public view returns (address [] memory addresses, uint256 [] memory entries) {\r... */\n    tag_6:\n      tag_38\n      tag_39\n      jump\t// in\n    tag_38:\n      mload(0x40)\n      tag_40\n      swap3\n      swap2\n      swap1\n      tag_41\n      jump\t// in\n    tag_40:\n      mload(0x40)\n      dup1\n      swap2\n      sub\n      swap1\n      return\n        /* \"lotto.sol\":1250:1522  function updateAccount(address account, uint256 amount) external{\r... */\n    tag_7:\n      tag_42\n      0x04\n      dup1\n      calldatasize\n      sub\n      dup2\n      add\n      swap1\n      tag_43\n      swap2\n      swap1\n      tag_28\n      jump\t// in\n    tag_43:\n      tag_44\n      jump\t// in\n    tag_42:\n      stop\n        /* \"lotto.sol\":698:724  uint256 public totalPayout */\n    tag_8:\n      tag_45\n      tag_46\n      jump\t// in\n    tag_45:\n      mload(0x40)\n      tag_47\n      swap2\n      swap1\n      tag_31\n      jump\t// in\n    tag_47:\n      mload(0x40)\n      dup1\n      swap2\n      sub\n      swap1\n      return\n        /* \"lotto.sol\":2293:2462  function isActiveAccount(address account) external view returns(bool){\r... */\n    tag_9:\n      tag_48\n      0x04\n      dup1\n      calldatasize\n      sub\n      dup2\n      add\n      swap1\n      tag_49\n      swap2\n      swap1\n      tag_50\n      jump\t// in\n    tag_49:\n      tag_51\n      jump\t// in\n    tag_48:\n      mload(0x40)\n      tag_52\n      swap2\n      swap1\n      tag_53\n      jump\t// in\n    tag_52:\n      mload(0x40)\n      dup1\n      swap2\n      sub\n      swap1\n      return\n        /* \"lotto.sol\":2470:3156  function pickWinner() external onlyOwner {\r... */\n    tag_10:\n      tag_54\n      tag_55\n      jump\t// in\n    tag_54:\n      stop\n        /* \"https://github.com/OpenZeppelin/openzeppelin-contracts/blob/master/contracts/access/Ownable.sol\":1668:1769  function renounceOwnership() public virtual onlyOwner {... */\n    tag_11:\n      tag_56\n      tag_57\n      jump\t// in\n    tag_56:\n      stop\n        /* \"lotto.sol\":634:661  uint256 public roundEntries */\n    tag_12:\n      tag_58\n      tag_59\n      jump\t// in\n    tag_58:\n      mload(0x40)\n      tag_60\n      swap2\n      swap1\n      tag_31\n      jump\t// in\n    tag_60:\n      mload(0x40)\n      dup1\n      swap2\n      sub\n      swap1\n      return\n        /* \"https://github.com/OpenZeppelin/openzeppelin-contracts/blob/master/contracts/access/Ownable.sol\":1036:1121  function owner() public view virtual returns (address) {... */\n    tag_13:\n      tag_61\n      tag_62\n      jump\t// in\n    tag_61:\n      mload(0x40)\n      tag_63\n      swap2\n      swap1\n      tag_64\n      jump\t// in\n    tag_63:\n      mload(0x40)\n      dup1\n      swap2\n      sub\n      swap1\n      return\n        /* \"lotto.sol\":737:760  IERC20 public acesToken */\n    tag_14:\n      tag_65\n      tag_66\n      jump\t// in\n    tag_65:\n      mload(0x40)\n      tag_67\n      swap2\n      swap1\n      tag_68\n      jump\t// in\n    tag_67:\n      mload(0x40)\n      dup1\n      swap2\n      sub\n      swap1\n      return\n        /* \"lotto.sol\":3288:3410  function userEntries(address account) public view returns (uint256) {\r... */\n    tag_15:\n      tag_69\n      0x04\n      dup1\n      calldatasize\n      sub\n      dup2\n      add\n      swap1\n      tag_70\n      swap2\n      swap1\n      tag_50\n      jump\t// in\n    tag_70:\n      tag_71\n      jump\t// in\n    tag_69:\n      mload(0x40)\n      tag_72\n      swap2\n      swap1\n      tag_31\n      jump\t// in\n    tag_72:\n      mload(0x40)\n      dup1\n      swap2\n      sub\n      swap1\n      return\n        /* \"lotto.sol\":1530:2108  function removeEntryFromWallet(address account, uint256 amount) public {\r... */\n    tag_16:\n      tag_73\n      0x04\n      dup1\n      calldatasize\n      sub\n      dup2\n      add\n      swap1\n      tag_74\n      swap2\n      swap1\n      tag_28\n      jump\t// in\n    tag_74:\n      tag_75\n      jump\t// in\n    tag_73:\n      stop\n        /* \"lotto.sol\":951:998  mapping(uint256 => Results) public roundResults */\n    tag_17:\n      tag_76\n      0x04\n      dup1\n      calldatasize\n      sub\n      dup2\n      add\n      swap1\n      tag_77\n      swap2\n      swap1\n      tag_78\n      jump\t// in\n    tag_77:\n      tag_79\n      jump\t// in\n    tag_76:\n      mload(0x40)\n      tag_80\n      swap6\n      swap5\n      swap4\n      swap3\n      swap2\n      swap1\n      tag_81\n      jump\t// in\n    tag_80:\n      mload(0x40)\n      dup1\n      swap2\n      sub\n      swap1\n      return\n        /* \"lotto.sol\":1005:1050  mapping(uint256 => address) public roundEntry */\n    tag_18:\n      tag_82\n      0x04\n      dup1\n      calldatasize\n      sub\n      dup2\n      add\n      swap1\n      tag_83\n      swap2\n      swap1\n      tag_78\n      jump\t// in\n    tag_83:\n      tag_84\n      jump\t// in\n    tag_82:\n      mload(0x40)\n      tag_85\n      swap2\n      swap1\n      tag_64\n      jump\t// in\n    tag_85:\n      mload(0x40)\n      dup1\n      swap2\n      sub\n      swap1\n      return\n        /* \"lotto.sol\":3418:3915  function resultLog(uint256 startIndex, uint256 endIndex) external view returns(Results [] memory log){\r... */\n    tag_19:\n      tag_86\n      0x04\n      dup1\n      calldatasize\n      sub\n      dup2\n      add\n      swap1\n      tag_87\n      swap2\n      swap1\n      tag_88\n      jump\t// in\n    tag_87:\n      tag_89\n      jump\t// in\n    tag_86:\n      mload(0x40)\n      tag_90\n      swap2\n      swap1\n      tag_91\n      jump\t// in\n    tag_90:\n      mload(0x40)\n      dup1\n      swap2\n      sub\n      swap1\n      return\n        /* \"lotto.sol\":2116:2285  function removeAccount(address account) external{\r... */\n    tag_20:\n      tag_92\n      0x04\n      dup1\n      calldatasize\n      sub\n      dup2\n      add\n      swap1\n      tag_93\n      swap2\n      swap1\n      tag_50\n      jump\t// in\n    tag_93:\n      tag_94\n      jump\t// in\n    tag_92:\n      stop\n        /* \"https://github.com/OpenZeppelin/openzeppelin-contracts/blob/master/contracts/access/Ownable.sol\":1918:2116  function transferOwnership(address newOwner) public virtual onlyOwner {... */\n    tag_21:\n      tag_95\n      0x04\n      dup1\n      calldatasize\n      sub\n      dup2\n      add\n      swap1\n      tag_96\n      swap2\n      swap1\n      tag_50\n      jump\t// in\n    tag_96:\n      tag_97\n      jump\t// in\n    tag_95:\n      stop\n        /* \"lotto.sol\":3164:3280  function currentJackpot() public view returns (uint256) {\r... */\n    tag_22:\n      tag_98\n      tag_99\n      jump\t// in\n    tag_98:\n      mload(0x40)\n      tag_100\n      swap2\n      swap1\n      tag_31\n      jump\t// in\n    tag_100:\n      mload(0x40)\n      dup1\n      swap2\n      sub\n      swap1\n      return\n        /* \"lotto.sol\":1057:1106  mapping(address => uint256[]) public entriesIndex */\n    tag_29:\n      mstore(0x20, 0x07)\n      dup2\n      0x00\n      mstore\n      keccak256(0x00, 0x40)\n      dup2\n      dup2\n      sload\n      dup2\n      lt\n      tag_101\n      jumpi\n      0x00\n      dup1\n      revert\n    tag_101:\n      swap1\n      0x00\n      mstore\n      keccak256(0x00, 0x20)\n      add\n      0x00\n      swap2\n      pop\n      swap2\n      pop\n      pop\n      sload\n      dup2\n      jump\t// out\n        /* \"lotto.sol\":668:691  uint256 public roundNum */\n    tag_33:\n      sload(0x02)\n      dup2\n      jump\t// out\n        /* \"lotto.sol\":3923:4203  function getUniqueUsers() public view returns (uint256 counter) {\r... */\n    tag_36:\n        /* \"lotto.sol\":3970:3985  uint256 counter */\n      0x00\n        /* \"lotto.sol\":4020:4029  uint256 i */\n      dup1\n        /* \"lotto.sol\":4016:4196  for(uint256 i; i < roundEntries; i++){\r... */\n    tag_104:\n        /* \"lotto.sol\":4035:4047  roundEntries */\n      sload(0x01)\n        /* \"lotto.sol\":4031:4032  i */\n      dup2\n        /* \"lotto.sol\":4031:4047  i < roundEntries */\n      lt\n        /* \"lotto.sol\":4016:4196  for(uint256 i; i < roundEntries; i++){\r... */\n      iszero\n      tag_105\n      jumpi\n        /* \"lotto.sol\":4068:4080  address user */\n      0x00\n        /* \"lotto.sol\":4083:4093  roundEntry */\n      0x06\n        /* \"lotto.sol\":4083:4096  roundEntry[i] */\n      0x00\n        /* \"lotto.sol\":4094:4095  i */\n      dup4\n        /* \"lotto.sol\":4083:4096  roundEntry[i] */\n      dup2\n      mstore\n      0x20\n      add\n      swap1\n      dup2\n      mstore\n      0x20\n      add\n      0x00\n      keccak256\n      0x00\n      swap1\n      sload\n      swap1\n      0x0100\n      exp\n      swap1\n      div\n      0xffffffffffffffffffffffffffffffffffffffff\n      and\n        /* \"lotto.sol\":4068:4096  address user = roundEntry[i] */\n      swap1\n      pop\n        /* \"lotto.sol\":4119:4131  entriesIndex */\n      0x07\n        /* \"lotto.sol\":4119:4137  entriesIndex[user] */\n      0x00\n        /* \"lotto.sol\":4132:4136  user */\n      dup3\n        /* \"lotto.sol\":4119:4137  entriesIndex[user] */\n      0xffffffffffffffffffffffffffffffffffffffff\n      and\n      0xffffffffffffffffffffffffffffffffffffffff\n      and\n      dup2\n      mstore\n      0x20\n      add\n      swap1\n      dup2\n      mstore\n      0x20\n      add\n      0x00\n      keccak256\n        /* \"lotto.sol\":4138:4139  0 */\n      0x00\n        /* \"lotto.sol\":4119:4140  entriesIndex[user][0] */\n      dup2\n      sload\n      dup2\n      lt\n      tag_107\n      jumpi\n      tag_108\n      tag_109\n      jump\t// in\n    tag_108:\n    tag_107:\n      swap1\n      0x00\n      mstore\n      keccak256(0x00, 0x20)\n      add\n      sload\n        /* \"lotto.sol\":4114:4115  i */\n      dup3\n        /* \"lotto.sol\":4114:4140  i == entriesIndex[user][0] */\n      eq\n        /* \"lotto.sol\":4111:4185  if(i == entriesIndex[user][0]){\r... */\n      iszero\n      tag_111\n      jumpi\n        /* \"lotto.sol\":4160:4169  counter++ */\n      dup3\n      dup1\n      tag_112\n      swap1\n      tag_113\n      jump\t// in\n    tag_112:\n      swap4\n      pop\n      pop\n        /* \"lotto.sol\":4111:4185  if(i == entriesIndex[user][0]){\r... */\n    tag_111:\n        /* \"lotto.sol\":4053:4196  {\r... */\n      pop\n        /* \"lotto.sol\":4049:4052  i++ */\n      dup1\n      dup1\n      tag_114\n      swap1\n      tag_113\n      jump\t// in\n    tag_114:\n      swap2\n      pop\n      pop\n        /* \"lotto.sol\":4016:4196  for(uint256 i; i < roundEntries; i++){\r... */\n      jump(tag_104)\n    tag_105:\n      pop\n        /* \"lotto.sol\":3923:4203  function getUniqueUsers() public view returns (uint256 counter) {\r... */\n      swap1\n      jump\t// out\n        /* \"lotto.sol\":4211:4814  function getUniqueAddresses() public view returns (address [] memory addresses, uint256 [] memory entries) {\r... */\n    tag_39:\n        /* \"lotto.sol\":4262:4289  address [] memory addresses */\n      0x60\n        /* \"lotto.sol\":4291:4316  uint256 [] memory entries */\n      dup1\n        /* \"lotto.sol\":4329:4348  uint256 arrayLength */\n      0x00\n        /* \"lotto.sol\":4351:4367  getUniqueUsers() */\n      tag_116\n        /* \"lotto.sol\":4351:4365  getUniqueUsers */\n      tag_36\n        /* \"lotto.sol\":4351:4367  getUniqueUsers() */\n      jump\t// in\n    tag_116:\n        /* \"lotto.sol\":4329:4367  uint256 arrayLength = getUniqueUsers() */\n      swap1\n      pop\n        /* \"lotto.sol\":4404:4415  arrayLength */\n      dup1\n        /* \"lotto.sol\":4390:4416  new address[](arrayLength) */\n      0xffffffffffffffff\n      dup2\n      gt\n      iszero\n      tag_117\n      jumpi\n      tag_118\n      tag_119\n      jump\t// in\n    tag_118:\n    tag_117:\n      mload(0x40)\n      swap1\n      dup1\n      dup3\n      mstore\n      dup1\n      0x20\n      mul\n      0x20\n      add\n      dup3\n      add\n      0x40\n      mstore\n      dup1\n      iszero\n      tag_120\n      jumpi\n      dup2\n      0x20\n      add\n      0x20\n      dup3\n      mul\n      dup1\n      calldatasize\n      dup4\n      calldatacopy\n      dup1\n      dup3\n      add\n      swap2\n      pop\n      pop\n      swap1\n      pop\n    tag_120:\n      pop\n        /* \"lotto.sol\":4378:4416  addresses = new address[](arrayLength) */\n      swap3\n      pop\n        /* \"lotto.sol\":4451:4462  arrayLength */\n      dup1\n        /* \"lotto.sol\":4437:4463  new uint256[](arrayLength) */\n      0xffffffffffffffff\n      dup2\n      gt\n      iszero\n      tag_121\n      jumpi\n      tag_122\n      tag_119\n      jump\t// in\n    tag_122:\n    tag_121:\n      mload(0x40)\n      swap1\n      dup1\n      dup3\n      mstore\n      dup1\n      0x20\n      mul\n      0x20\n      add\n      dup3\n      add\n      0x40\n      mstore\n      dup1\n      iszero\n      tag_123\n      jumpi\n      dup2\n      0x20\n      add\n      0x20\n      dup3\n      mul\n      dup1\n      calldatasize\n      dup4\n      calldatacopy\n      dup1\n      dup3\n      add\n      swap2\n      pop\n      pop\n      swap1\n      pop\n    tag_123:\n      pop\n        /* \"lotto.sol\":4427:4463  entries = new uint256[](arrayLength) */\n      swap2\n      pop\n        /* \"lotto.sol\":4474:4494  uint256 currentIndex */\n      0x00\n        /* \"lotto.sol\":4509:4518  uint256 i */\n      dup1\n        /* \"lotto.sol\":4505:4807  for(uint256 i; i < roundEntries; i++){\r... */\n    tag_124:\n        /* \"lotto.sol\":4524:4536  roundEntries */\n      sload(0x01)\n        /* \"lotto.sol\":4520:4521  i */\n      dup2\n        /* \"lotto.sol\":4520:4536  i < roundEntries */\n      lt\n        /* \"lotto.sol\":4505:4807  for(uint256 i; i < roundEntries; i++){\r... */\n      iszero\n      tag_125\n      jumpi\n        /* \"lotto.sol\":4557:4569  address user */\n      0x00\n        /* \"lotto.sol\":4572:4582  roundEntry */\n      0x06\n        /* \"lotto.sol\":4572:4585  roundEntry[i] */\n      0x00\n        /* \"lotto.sol\":4583:4584  i */\n      dup4\n        /* \"lotto.sol\":4572:4585  roundEntry[i] */\n      dup2\n      mstore\n      0x20\n      add\n      swap1\n      dup2\n      mstore\n      0x20\n      add\n      0x00\n      keccak256\n      0x00\n      swap1\n      sload\n      swap1\n      0x0100\n      exp\n      swap1\n      div\n      0xffffffffffffffffffffffffffffffffffffffff\n      and\n        /* \"lotto.sol\":4557:4585  address user = roundEntry[i] */\n      swap1\n      pop\n        /* \"lotto.sol\":4608:4620  entriesIndex */\n      0x07\n        /* \"lotto.sol\":4608:4626  entriesIndex[user] */\n      0x00\n        /* \"lotto.sol\":4621:4625  user */\n      dup3\n        /* \"lotto.sol\":4608:4626  entriesIndex[user] */\n      0xffffffffffffffffffffffffffffffffffffffff\n      and\n      0xffffffffffffffffffffffffffffffffffffffff\n      and\n      dup2\n      mstore\n      0x20\n      add\n      swap1\n      dup2\n      mstore\n      0x20\n      add\n      0x00\n      keccak256\n        /* \"lotto.sol\":4627:4628  0 */\n      0x00\n        /* \"lotto.sol\":4608:4629  entriesIndex[user][0] */\n      dup2\n      sload\n      dup2\n      lt\n      tag_127\n      jumpi\n      tag_128\n      tag_109\n      jump\t// in\n    tag_128:\n    tag_127:\n      swap1\n      0x00\n      mstore\n      keccak256(0x00, 0x20)\n      add\n      sload\n        /* \"lotto.sol\":4603:4604  i */\n      dup3\n        /* \"lotto.sol\":4603:4629  i == entriesIndex[user][0] */\n      eq\n        /* \"lotto.sol\":4600:4796  if(i == entriesIndex[user][0]){\r... */\n      iszero\n      tag_130\n      jumpi\n        /* \"lotto.sol\":4675:4679  user */\n      dup1\n        /* \"lotto.sol\":4649:4658  addresses */\n      dup7\n        /* \"lotto.sol\":4659:4671  currentIndex */\n      dup5\n        /* \"lotto.sol\":4649:4672  addresses[currentIndex] */\n      dup2\n      mload\n      dup2\n      lt\n      tag_131\n      jumpi\n      tag_132\n      tag_109\n      jump\t// in\n    tag_132:\n    tag_131:\n      0x20\n      mul\n      0x20\n      add\n      add\n        /* \"lotto.sol\":4649:4679  addresses[currentIndex] = user */\n      swap1\n      0xffffffffffffffffffffffffffffffffffffffff\n      and\n      swap1\n      dup2\n      0xffffffffffffffffffffffffffffffffffffffff\n      and\n      dup2\n      mstore\n      pop\n      pop\n        /* \"lotto.sol\":4722:4734  entriesIndex */\n      0x07\n        /* \"lotto.sol\":4722:4740  entriesIndex[user] */\n      0x00\n        /* \"lotto.sol\":4735:4739  user */\n      dup3\n        /* \"lotto.sol\":4722:4740  entriesIndex[user] */\n      0xffffffffffffffffffffffffffffffffffffffff\n      and\n      0xffffffffffffffffffffffffffffffffffffffff\n      and\n      dup2\n      mstore\n      0x20\n      add\n      swap1\n      dup2\n      mstore\n      0x20\n      add\n      0x00\n      keccak256\n        /* \"lotto.sol\":4722:4747  entriesIndex[user].length */\n      dup1\n      sload\n      swap1\n      pop\n        /* \"lotto.sol\":4698:4705  entries */\n      dup6\n        /* \"lotto.sol\":4706:4718  currentIndex */\n      dup5\n        /* \"lotto.sol\":4698:4719  entries[currentIndex] */\n      dup2\n      mload\n      dup2\n      lt\n      tag_133\n      jumpi\n      tag_134\n      tag_109\n      jump\t// in\n    tag_134:\n    tag_133:\n      0x20\n      mul\n      0x20\n      add\n      add\n        /* \"lotto.sol\":4698:4747  entries[currentIndex] = entriesIndex[user].length */\n      dup2\n      dup2\n      mstore\n      pop\n      pop\n        /* \"lotto.sol\":4766:4780  currentIndex++ */\n      dup3\n      dup1\n      tag_135\n      swap1\n      tag_113\n      jump\t// in\n    tag_135:\n      swap4\n      pop\n      pop\n        /* \"lotto.sol\":4600:4796  if(i == entriesIndex[user][0]){\r... */\n    tag_130:\n        /* \"lotto.sol\":4542:4807  {\r... */\n      pop\n        /* \"lotto.sol\":4538:4541  i++ */\n      dup1\n      dup1\n      tag_136\n      swap1\n      tag_113\n      jump\t// in\n    tag_136:\n      swap2\n      pop\n      pop\n        /* \"lotto.sol\":4505:4807  for(uint256 i; i < roundEntries; i++){\r... */\n      jump(tag_124)\n    tag_125:\n      pop\n        /* \"lotto.sol\":4318:4814  {\r... */\n      pop\n      pop\n        /* \"lotto.sol\":4211:4814  function getUniqueAddresses() public view returns (address [] memory addresses, uint256 [] memory entries) {\r... */\n      swap1\n      swap2\n      jump\t// out\n        /* \"lotto.sol\":1250:1522  function updateAccount(address account, uint256 amount) external{\r... */\n    tag_44:\n        /* \"lotto.sol\":1329:1338  uint256 i */\n      0x00\n        /* \"lotto.sol\":1325:1480  for(uint256 i; i < amount; i++){\r... */\n    tag_138:\n        /* \"lotto.sol\":1344:1350  amount */\n      dup2\n        /* \"lotto.sol\":1340:1341  i */\n      dup2\n        /* \"lotto.sol\":1340:1350  i < amount */\n      lt\n        /* \"lotto.sol\":1325:1480  for(uint256 i; i < amount; i++){\r... */\n      iszero\n      tag_139\n      jumpi\n        /* \"lotto.sol\":1402:1409  account */\n      dup3\n        /* \"lotto.sol\":1371:1381  roundEntry */\n      0x06\n        /* \"lotto.sol\":1371:1399  roundEntry[roundEntries + i] */\n      0x00\n        /* \"lotto.sol\":1397:1398  i */\n      dup4\n        /* \"lotto.sol\":1382:1394  roundEntries */\n      sload(0x01)\n        /* \"lotto.sol\":1382:1398  roundEntries + i */\n      tag_141\n      swap2\n      swap1\n      tag_142\n      jump\t// in\n    tag_141:\n        /* \"lotto.sol\":1371:1399  roundEntry[roundEntries + i] */\n      dup2\n      mstore\n      0x20\n      add\n      swap1\n      dup2\n      mstore\n      0x20\n      add\n      0x00\n      keccak256\n      0x00\n        /* \"lotto.sol\":1371:1409  roundEntry[roundEntries + i] = account */\n      0x0100\n      exp\n      dup2\n      sload\n      dup2\n      0xffffffffffffffffffffffffffffffffffffffff\n      mul\n      not\n      and\n      swap1\n      dup4\n      0xffffffffffffffffffffffffffffffffffffffff\n      and\n      mul\n      or\n      swap1\n      sstore\n      pop\n        /* \"lotto.sol\":1424:1436  entriesIndex */\n      0x07\n        /* \"lotto.sol\":1424:1445  entriesIndex[account] */\n      0x00\n        /* \"lotto.sol\":1437:1444  account */\n      dup5\n        /* \"lotto.sol\":1424:1445  entriesIndex[account] */\n      0xffffffffffffffffffffffffffffffffffffffff\n      and\n      0xffffffffffffffffffffffffffffffffffffffff\n      and\n      dup2\n      mstore\n      0x20\n      add\n      swap1\n      dup2\n      mstore\n      0x20\n      add\n      0x00\n      keccak256\n        /* \"lotto.sol\":1466:1467  i */\n      dup2\n        /* \"lotto.sol\":1451:1463  roundEntries */\n      sload(0x01)\n        /* \"lotto.sol\":1451:1467  roundEntries + i */\n      tag_143\n      swap2\n      swap1\n      tag_142\n      jump\t// in\n    tag_143:\n        /* \"lotto.sol\":1424:1468  entriesIndex[account].push(roundEntries + i) */\n      swap1\n      dup1\n      0x01\n      dup2\n      sload\n      add\n      dup1\n      dup3\n      sstore\n      dup1\n      swap2\n      pop\n      pop\n      0x01\n      swap1\n      sub\n      swap1\n      0x00\n      mstore\n      keccak256(0x00, 0x20)\n      add\n      0x00\n      swap1\n      swap2\n      swap1\n      swap2\n      swap1\n      swap2\n      pop\n      sstore\n        /* \"lotto.sol\":1352:1355  i++ */\n      dup1\n      dup1\n      tag_145\n      swap1\n      tag_113\n      jump\t// in\n    tag_145:\n      swap2\n      pop\n      pop\n        /* \"lotto.sol\":1325:1480  for(uint256 i; i < amount; i++){\r... */\n      jump(tag_138)\n    tag_139:\n      pop\n        /* \"lotto.sol\":1508:1514  amount */\n      dup1\n        /* \"lotto.sol\":1492:1504  roundEntries */\n      0x01\n      0x00\n        /* \"lotto.sol\":1492:1514  roundEntries += amount */\n      dup3\n      dup3\n      sload\n      tag_146\n      swap2\n      swap1\n      tag_142\n      jump\t// in\n    tag_146:\n      swap3\n      pop\n      pop\n      dup2\n      swap1\n      sstore\n      pop\n        /* \"lotto.sol\":1250:1522  function updateAccount(address account, uint256 amount) external{\r... */\n      pop\n      pop\n      jump\t// out\n        /* \"lotto.sol\":698:724  uint256 public totalPayout */\n    tag_46:\n      sload(0x03)\n      dup2\n      jump\t// out\n        /* \"lotto.sol\":2293:2462  function isActiveAccount(address account) external view returns(bool){\r... */\n    tag_51:\n        /* \"lotto.sol\":2357:2361  bool */\n      0x00\n        /* \"lotto.sol\":2373:2395  uint256 currentEntries */\n      dup1\n        /* \"lotto.sol\":2398:2418  userEntries(account) */\n      tag_148\n        /* \"lotto.sol\":2410:2417  account */\n      dup4\n        /* \"lotto.sol\":2398:2409  userEntries */\n      tag_71\n        /* \"lotto.sol\":2398:2418  userEntries(account) */\n      jump\t// in\n    tag_148:\n        /* \"lotto.sol\":2373:2418  uint256 currentEntries = userEntries(account) */\n      swap1\n      pop\n        /* \"lotto.sol\":2453:2454  0 */\n      0x00\n        /* \"lotto.sol\":2436:2450  currentEntries */\n      dup2\n        /* \"lotto.sol\":2436:2454  currentEntries > 0 */\n      gt\n        /* \"lotto.sol\":2429:2454  return currentEntries > 0 */\n      swap2\n      pop\n      pop\n        /* \"lotto.sol\":2293:2462  function isActiveAccount(address account) external view returns(bool){\r... */\n      swap2\n      swap1\n      pop\n      jump\t// out\n        /* \"lotto.sol\":2470:3156  function pickWinner() external onlyOwner {\r... */\n    tag_55:\n        /* \"https://github.com/OpenZeppelin/openzeppelin-contracts/blob/master/contracts/access/Ownable.sol\":1259:1271  _msgSender() */\n      tag_150\n        /* \"https://github.com/OpenZeppelin/openzeppelin-contracts/blob/master/contracts/access/Ownable.sol\":1259:1269  _msgSender */\n      tag_151\n        /* \"https://github.com/OpenZeppelin/openzeppelin-contracts/blob/master/contracts/access/Ownable.sol\":1259:1271  _msgSender() */\n      jump\t// in\n    tag_150:\n        /* \"https://github.com/OpenZeppelin/openzeppelin-contracts/blob/master/contracts/access/Ownable.sol\":1248:1271  owner() == _msgSender() */\n      0xffffffffffffffffffffffffffffffffffffffff\n      and\n        /* \"https://github.com/OpenZeppelin/openzeppelin-contracts/blob/master/contracts/access/Ownable.sol\":1248:1255  owner() */\n      tag_152\n        /* \"https://github.com/OpenZeppelin/openzeppelin-contracts/blob/master/contracts/access/Ownable.sol\":1248:1253  owner */\n      tag_62\n        /* \"https://github.com/OpenZeppelin/openzeppelin-contracts/blob/master/contracts/access/Ownable.sol\":1248:1255  owner() */\n      jump\t// in\n    tag_152:\n        /* \"https://github.com/OpenZeppelin/openzeppelin-contracts/blob/master/contracts/access/Ownable.sol\":1248:1271  owner() == _msgSender() */\n      0xffffffffffffffffffffffffffffffffffffffff\n      and\n      eq\n        /* \"https://github.com/OpenZeppelin/openzeppelin-contracts/blob/master/contracts/access/Ownable.sol\":1240:1308  require(owner() == _msgSender(), \"Ownable: caller is not the owner\") */\n      tag_153\n      jumpi\n      mload(0x40)\n      0x08c379a000000000000000000000000000000000000000000000000000000000\n      dup2\n      mstore\n      0x04\n      add\n      tag_154\n      swap1\n      tag_155\n      jump\t// in\n    tag_154:\n      mload(0x40)\n      dup1\n      swap2\n      sub\n      swap1\n      revert\n    tag_153:\n        /* \"lotto.sol\":2522:2536  uint256 payout */\n      0x00\n        /* \"lotto.sol\":2539:2555  currentJackpot() */\n      tag_157\n        /* \"lotto.sol\":2539:2553  currentJackpot */\n      tag_99\n        /* \"lotto.sol\":2539:2555  currentJackpot() */\n      jump\t// in\n    tag_157:\n        /* \"lotto.sol\":2522:2555  uint256 payout = currentJackpot() */\n      swap1\n      pop\n        /* \"lotto.sol\":2584:2597  75000 * 10**9 */\n      0x44364c5bb000\n        /* \"lotto.sol\":2574:2580  payout */\n      dup2\n        /* \"lotto.sol\":2574:2597  payout >= 75000 * 10**9 */\n      lt\n      iszero\n        /* \"lotto.sol\":2566:2626  require(payout >= 75000 * 10**9, \"Not enough funds to draw\") */\n      tag_158\n      jumpi\n      mload(0x40)\n      0x08c379a000000000000000000000000000000000000000000000000000000000\n      dup2\n      mstore\n      0x04\n      add\n      tag_159\n      swap1\n      tag_160\n      jump\t// in\n    tag_159:\n      mload(0x40)\n      dup1\n      swap2\n      sub\n      swap1\n      revert\n    tag_158:\n        /* \"lotto.sol\":2637:2654  uint256 winnerNum */\n      0x00\n        /* \"lotto.sol\":2668:2680  roundEntries */\n      sload(0x01)\n        /* \"lotto.sol\":2657:2665  random() */\n      tag_161\n        /* \"lotto.sol\":2657:2663  random */\n      tag_162\n        /* \"lotto.sol\":2657:2665  random() */\n      jump\t// in\n    tag_161:\n        /* \"lotto.sol\":2657:2680  random() % roundEntries */\n      tag_163\n      swap2\n      swap1\n      tag_164\n      jump\t// in\n    tag_163:\n        /* \"lotto.sol\":2637:2680  uint256 winnerNum = random() % roundEntries */\n      swap1\n      pop\n        /* \"lotto.sol\":2691:2712  address winnerAddress */\n      0x00\n        /* \"lotto.sol\":2715:2725  roundEntry */\n      0x06\n        /* \"lotto.sol\":2715:2736  roundEntry[winnerNum] */\n      0x00\n        /* \"lotto.sol\":2726:2735  winnerNum */\n      dup4\n        /* \"lotto.sol\":2715:2736  roundEntry[winnerNum] */\n      dup2\n      mstore\n      0x20\n      add\n      swap1\n      dup2\n      mstore\n      0x20\n      add\n      0x00\n      keccak256\n      0x00\n      swap1\n      sload\n      swap1\n      0x0100\n      exp\n      swap1\n      div\n      0xffffffffffffffffffffffffffffffffffffffff\n      and\n        /* \"lotto.sol\":2691:2736  address winnerAddress = roundEntry[winnerNum] */\n      swap1\n      pop\n        /* \"lotto.sol\":2774:2988  Results ({\r... */\n      mload(0x40)\n      dup1\n      0xa0\n      add\n      0x40\n      mstore\n      dup1\n        /* \"lotto.sol\":2812:2824  roundEntries */\n      sload(0x01)\n        /* \"lotto.sol\":2774:2988  Results ({\r... */\n      dup2\n      mstore\n      0x20\n      add\n        /* \"lotto.sol\":2854:2863  winnerNum */\n      dup4\n        /* \"lotto.sol\":2774:2988  Results ({\r... */\n      dup2\n      mstore\n      0x20\n      add\n        /* \"lotto.sol\":2886:2892  payout */\n      dup5\n        /* \"lotto.sol\":2774:2988  Results ({\r... */\n      dup2\n      mstore\n      0x20\n      add\n        /* \"lotto.sol\":2916:2931  block.timestamp */\n      timestamp\n        /* \"lotto.sol\":2774:2988  Results ({\r... */\n      dup2\n      mstore\n      0x20\n      add\n        /* \"lotto.sol\":2962:2975  winnerAddress */\n      dup3\n        /* \"lotto.sol\":2774:2988  Results ({\r... */\n      0xffffffffffffffffffffffffffffffffffffffff\n      and\n      dup2\n      mstore\n      pop\n        /* \"lotto.sol\":2749:2761  roundResults */\n      0x05\n        /* \"lotto.sol\":2749:2771  roundResults[roundNum] */\n      0x00\n        /* \"lotto.sol\":2762:2770  roundNum */\n      sload(0x02)\n        /* \"lotto.sol\":2749:2771  roundResults[roundNum] */\n      dup2\n      mstore\n      0x20\n      add\n      swap1\n      dup2\n      mstore\n      0x20\n      add\n      0x00\n      keccak256\n        /* \"lotto.sol\":2749:2988  roundResults[roundNum] = Results ({\r... */\n      0x00\n      dup3\n      add\n      mload\n      dup2\n      0x00\n      add\n      sstore\n      0x20\n      dup3\n      add\n      mload\n      dup2\n      0x01\n      add\n      sstore\n      0x40\n      dup3\n      add\n      mload\n      dup2\n      0x02\n      add\n      sstore\n      0x60\n      dup3\n      add\n      mload\n      dup2\n      0x03\n      add\n      sstore\n      0x80\n      dup3\n      add\n      mload\n      dup2\n      0x04\n      add\n      exp(0x0100, 0x00)\n      dup2\n      sload\n      dup2\n      0xffffffffffffffffffffffffffffffffffffffff\n      mul\n      not\n      and\n      swap1\n      dup4\n      0xffffffffffffffffffffffffffffffffffffffff\n      and\n      mul\n      or\n      swap1\n      sstore\n      pop\n      swap1\n      pop\n      pop\n        /* \"lotto.sol\":3016:3022  payout */\n      dup3\n        /* \"lotto.sol\":3001:3012  totalPayout */\n      0x03\n      0x00\n        /* \"lotto.sol\":3001:3022  totalPayout += payout */\n      dup3\n      dup3\n      sload\n      tag_165\n      swap2\n      swap1\n      tag_142\n      jump\t// in\n    tag_165:\n      swap3\n      pop\n      pop\n      dup2\n      swap1\n      sstore\n      pop\n        /* \"lotto.sol\":3033:3041  roundNum */\n      0x02\n      0x00\n        /* \"lotto.sol\":3033:3043  roundNum++ */\n      dup2\n      sload\n      dup1\n      swap3\n      swap2\n      swap1\n      tag_166\n      swap1\n      tag_113\n      jump\t// in\n    tag_166:\n      swap2\n      swap1\n      pop\n      sstore\n      pop\n        /* \"lotto.sol\":3056:3065  acesToken */\n      0x04\n      0x00\n      swap1\n      sload\n      swap1\n      0x0100\n      exp\n      swap1\n      div\n      0xffffffffffffffffffffffffffffffffffffffff\n      and\n        /* \"lotto.sol\":3056:3074  acesToken.transfer */\n      0xffffffffffffffffffffffffffffffffffffffff\n      and\n      0xa9059cbb\n        /* \"lotto.sol\":3075:3088  winnerAddress */\n      dup3\n        /* \"lotto.sol\":3090:3096  payout */\n      dup6\n        /* \"lotto.sol\":3056:3097  acesToken.transfer(winnerAddress, payout) */\n      mload(0x40)\n      dup4\n      0xffffffff\n      and\n      0xe0\n      shl\n      dup2\n      mstore\n      0x04\n      add\n      tag_167\n      swap3\n      swap2\n      swap1\n      tag_168\n      jump\t// in\n    tag_167:\n      0x20\n      mload(0x40)\n      dup1\n      dup4\n      sub\n      dup2\n      0x00\n      dup8\n      dup1\n      extcodesize\n      iszero\n      dup1\n      iszero\n      tag_169\n      jumpi\n      0x00\n      dup1\n      revert\n    tag_169:\n      pop\n      gas\n      call\n      iszero\n      dup1\n      iszero\n      tag_171\n      jumpi\n      returndatasize\n      0x00\n      dup1\n      returndatacopy\n      revert(0x00, returndatasize)\n    tag_171:\n      pop\n      pop\n      pop\n      pop\n      mload(0x40)\n      returndatasize\n      not(0x1f)\n      0x1f\n      dup3\n      add\n      and\n      dup3\n      add\n      dup1\n      0x40\n      mstore\n      pop\n      dup2\n      add\n      swap1\n      tag_172\n      swap2\n      swap1\n      tag_173\n      jump\t// in\n    tag_172:\n      pop\n        /* \"lotto.sol\":3115:3148  LotteryWon(winnerAddress, payout) */\n      0x2e798dd4337e515c79b64c40e1a93baa1aefbd9180ac7905e02508edd7971e50\n        /* \"lotto.sol\":3126:3139  winnerAddress */\n      dup2\n        /* \"lotto.sol\":3141:3147  payout */\n      dup5\n        /* \"lotto.sol\":3115:3148  LotteryWon(winnerAddress, payout) */\n      mload(0x40)\n      tag_174\n      swap3\n      swap2\n      swap1\n      tag_168\n      jump\t// in\n    tag_174:\n      mload(0x40)\n      dup1\n      swap2\n      sub\n      swap1\n      log1\n        /* \"lotto.sol\":2511:3156  {\r... */\n      pop\n      pop\n      pop\n        /* \"lotto.sol\":2470:3156  function pickWinner() external onlyOwner {\r... */\n      jump\t// out\n        /* \"https://github.com/OpenZeppelin/openzeppelin-contracts/blob/master/contracts/access/Ownable.sol\":1668:1769  function renounceOwnership() public virtual onlyOwner {... */\n    tag_57:\n        /* \"https://github.com/OpenZeppelin/openzeppelin-contracts/blob/master/contracts/access/Ownable.sol\":1259:1271  _msgSender() */\n      tag_176\n        /* \"https://github.com/OpenZeppelin/openzeppelin-contracts/blob/master/contracts/access/Ownable.sol\":1259:1269  _msgSender */\n      tag_151\n        /* \"https://github.com/OpenZeppelin/openzeppelin-contracts/blob/master/contracts/access/Ownable.sol\":1259:1271  _msgSender() */\n      jump\t// in\n    tag_176:\n        /* \"https://github.com/OpenZeppelin/openzeppelin-contracts/blob/master/contracts/access/Ownable.sol\":1248:1271  owner() == _msgSender() */\n      0xffffffffffffffffffffffffffffffffffffffff\n      and\n        /* \"https://github.com/OpenZeppelin/openzeppelin-contracts/blob/master/contracts/access/Ownable.sol\":1248:1255  owner() */\n      tag_177\n        /* \"https://github.com/OpenZeppelin/openzeppelin-contracts/blob/master/contracts/access/Ownable.sol\":1248:1253  owner */\n      tag_62\n        /* \"https://github.com/OpenZeppelin/openzeppelin-contracts/blob/master/contracts/access/Ownable.sol\":1248:1255  owner() */\n      jump\t// in\n    tag_177:\n        /* \"https://github.com/OpenZeppelin/openzeppelin-contracts/blob/master/contracts/access/Ownable.sol\":1248:1271  owner() == _msgSender() */\n      0xffffffffffffffffffffffffffffffffffffffff\n      and\n      eq\n        /* \"https://github.com/OpenZeppelin/openzeppelin-contracts/blob/master/contracts/access/Ownable.sol\":1240:1308  require(owner() == _msgSender(), \"Ownable: caller is not the owner\") */\n      tag_178\n      jumpi\n      mload(0x40)\n      0x08c379a000000000000000000000000000000000000000000000000000000000\n      dup2\n      mstore\n      0x04\n      add\n      tag_179\n      swap1\n      tag_155\n      jump\t// in\n    tag_179:\n      mload(0x40)\n      dup1\n      swap2\n      sub\n      swap1\n      revert\n    tag_178:\n        /* \"https://github.com/OpenZeppelin/openzeppelin-contracts/blob/master/contracts/access/Ownable.sol\":1732:1762  _transferOwnership(address(0)) */\n      tag_181\n        /* \"https://github.com/OpenZeppelin/openzeppelin-contracts/blob/master/contracts/access/Ownable.sol\":1759:1760  0 */\n      0x00\n        /* \"https://github.com/OpenZeppelin/openzeppelin-contracts/blob/master/contracts/access/Ownable.sol\":1732:1750  _transferOwnership */\n      tag_182\n        /* \"https://github.com/OpenZeppelin/openzeppelin-contracts/blob/master/contracts/access/Ownable.sol\":1732:1762  _transferOwnership(address(0)) */\n      jump\t// in\n    tag_181:\n        /* \"https://github.com/OpenZeppelin/openzeppelin-contracts/blob/master/contracts/access/Ownable.sol\":1668:1769  function renounceOwnership() public virtual onlyOwner {... */\n      jump\t// out\n        /* \"lotto.sol\":634:661  uint256 public roundEntries */\n    tag_59:\n      sload(0x01)\n      dup2\n      jump\t// out\n        /* \"https://github.com/OpenZeppelin/openzeppelin-contracts/blob/master/contracts/access/Ownable.sol\":1036:1121  function owner() public view virtual returns (address) {... */\n    tag_62:\n        /* \"https://github.com/OpenZeppelin/openzeppelin-contracts/blob/master/contracts/access/Ownable.sol\":1082:1089  address */\n      0x00\n        /* \"https://github.com/OpenZeppelin/openzeppelin-contracts/blob/master/contracts/access/Ownable.sol\":1108:1114  _owner */\n      dup1\n      0x00\n      swap1\n      sload\n      swap1\n      0x0100\n      exp\n      swap1\n      div\n      0xffffffffffffffffffffffffffffffffffffffff\n      and\n        /* \"https://github.com/OpenZeppelin/openzeppelin-contracts/blob/master/contracts/access/Ownable.sol\":1101:1114  return _owner */\n      swap1\n      pop\n        /* \"https://github.com/OpenZeppelin/openzeppelin-contracts/blob/master/contracts/access/Ownable.sol\":1036:1121  function owner() public view virtual returns (address) {... */\n      swap1\n      jump\t// out\n        /* \"lotto.sol\":737:760  IERC20 public acesToken */\n    tag_66:\n      0x04\n      0x00\n      swap1\n      sload\n      swap1\n      0x0100\n      exp\n      swap1\n      div\n      0xffffffffffffffffffffffffffffffffffffffff\n      and\n      dup2\n      jump\t// out\n        /* \"lotto.sol\":3288:3410  function userEntries(address account) public view returns (uint256) {\r... */\n    tag_71:\n        /* \"lotto.sol\":3347:3354  uint256 */\n      0x00\n        /* \"lotto.sol\":3374:3386  entriesIndex */\n      0x07\n        /* \"lotto.sol\":3374:3395  entriesIndex[account] */\n      0x00\n        /* \"lotto.sol\":3387:3394  account */\n      dup4\n        /* \"lotto.sol\":3374:3395  entriesIndex[account] */\n      0xffffffffffffffffffffffffffffffffffffffff\n      and\n      0xffffffffffffffffffffffffffffffffffffffff\n      and\n      dup2\n      mstore\n      0x20\n      add\n      swap1\n      dup2\n      mstore\n      0x20\n      add\n      0x00\n      keccak256\n        /* \"lotto.sol\":3374:3402  entriesIndex[account].length */\n      dup1\n      sload\n      swap1\n      pop\n        /* \"lotto.sol\":3367:3402  return entriesIndex[account].length */\n      swap1\n      pop\n        /* \"lotto.sol\":3288:3410  function userEntries(address account) public view returns (uint256) {\r... */\n      swap2\n      swap1\n      pop\n      jump\t// out\n        /* \"lotto.sol\":1530:2108  function removeEntryFromWallet(address account, uint256 amount) public {\r... */\n    tag_75:\n        /* \"lotto.sol\":1612:1634  uint256 currentEntries */\n      0x00\n        /* \"lotto.sol\":1637:1657  userEntries(account) */\n      tag_186\n        /* \"lotto.sol\":1649:1656  account */\n      dup4\n        /* \"lotto.sol\":1637:1648  userEntries */\n      tag_71\n        /* \"lotto.sol\":1637:1657  userEntries(account) */\n      jump\t// in\n    tag_186:\n        /* \"lotto.sol\":1612:1657  uint256 currentEntries = userEntries(account) */\n      swap1\n      pop\n        /* \"lotto.sol\":1689:1690  0 */\n      0x00\n        /* \"lotto.sol\":1671:1685  currentEntries */\n      dup2\n        /* \"lotto.sol\":1671:1690  currentEntries == 0 */\n      eq\n        /* \"lotto.sol\":1668:1807  if(currentEntries == 0){\r... */\n      iszero\n      tag_187\n      jumpi\n        /* \"lotto.sol\":1706:1713  return; */\n      pop\n      jump(tag_185)\n        /* \"lotto.sol\":1668:1807  if(currentEntries == 0){\r... */\n    tag_187:\n        /* \"lotto.sol\":1742:1756  currentEntries */\n      dup1\n        /* \"lotto.sol\":1733:1739  amount */\n      dup3\n        /* \"lotto.sol\":1733:1756  amount > currentEntries */\n      gt\n        /* \"lotto.sol\":1730:1807  if(amount > currentEntries){\r... */\n      iszero\n      tag_189\n      jumpi\n        /* \"lotto.sol\":1781:1795  currentEntries */\n      dup1\n        /* \"lotto.sol\":1772:1795  amount = currentEntries */\n      swap2\n      pop\n        /* \"lotto.sol\":1730:1807  if(amount > currentEntries){\r... */\n    tag_189:\n        /* \"lotto.sol\":1823:1832  uint256 i */\n      0x00\n        /* \"lotto.sol\":1835:1836  1 */\n      0x01\n        /* \"lotto.sol\":1823:1836  uint256 i = 1 */\n      swap1\n      pop\n        /* \"lotto.sol\":1819:2066  for(uint256 i = 1; i <= amount; i++){\r... */\n    tag_190:\n        /* \"lotto.sol\":1843:1849  amount */\n      dup3\n        /* \"lotto.sol\":1838:1839  i */\n      dup2\n        /* \"lotto.sol\":1838:1849  i <= amount */\n      gt\n        /* \"lotto.sol\":1819:2066  for(uint256 i = 1; i <= amount; i++){\r... */\n      tag_191\n      jumpi\n        /* \"lotto.sol\":1870:1887  uint256 lastIndex */\n      0x00\n        /* \"lotto.sol\":1890:1902  entriesIndex */\n      0x07\n        /* \"lotto.sol\":1890:1911  entriesIndex[account] */\n      0x00\n        /* \"lotto.sol\":1903:1910  account */\n      dup7\n        /* \"lotto.sol\":1890:1911  entriesIndex[account] */\n      0xffffffffffffffffffffffffffffffffffffffff\n      and\n      0xffffffffffffffffffffffffffffffffffffffff\n      and\n      dup2\n      mstore\n      0x20\n      add\n      swap1\n      dup2\n      mstore\n      0x20\n      add\n      0x00\n      keccak256\n        /* \"lotto.sol\":1943:1944  1 */\n      0x01\n        /* \"lotto.sol\":1912:1924  entriesIndex */\n      0x07\n        /* \"lotto.sol\":1912:1933  entriesIndex[account] */\n      0x00\n        /* \"lotto.sol\":1925:1932  account */\n      dup9\n        /* \"lotto.sol\":1912:1933  entriesIndex[account] */\n      0xffffffffffffffffffffffffffffffffffffffff\n      and\n      0xffffffffffffffffffffffffffffffffffffffff\n      and\n      dup2\n      mstore\n      0x20\n      add\n      swap1\n      dup2\n      mstore\n      0x20\n      add\n      0x00\n      keccak256\n        /* \"lotto.sol\":1912:1940  entriesIndex[account].length */\n      dup1\n      sload\n      swap1\n      pop\n        /* \"lotto.sol\":1912:1944  entriesIndex[account].length - 1 */\n      tag_193\n      swap2\n      swap1\n      tag_194\n      jump\t// in\n    tag_193:\n        /* \"lotto.sol\":1890:1945  entriesIndex[account][entriesIndex[account].length - 1] */\n      dup2\n      sload\n      dup2\n      lt\n      tag_195\n      jumpi\n      tag_196\n      tag_109\n      jump\t// in\n    tag_196:\n    tag_195:\n      swap1\n      0x00\n      mstore\n      keccak256(0x00, 0x20)\n      add\n      sload\n        /* \"lotto.sol\":1870:1945  uint256 lastIndex = entriesIndex[account][entriesIndex[account].length - 1] */\n      swap1\n      pop\n        /* \"lotto.sol\":1984:1994  roundEntry */\n      0x06\n        /* \"lotto.sol\":1984:2012  roundEntry[roundEntries - i] */\n      0x00\n        /* \"lotto.sol\":2010:2011  i */\n      dup4\n        /* \"lotto.sol\":1995:2007  roundEntries */\n      sload(0x01)\n        /* \"lotto.sol\":1995:2011  roundEntries - i */\n      tag_198\n      swap2\n      swap1\n      tag_194\n      jump\t// in\n    tag_198:\n        /* \"lotto.sol\":1984:2012  roundEntry[roundEntries - i] */\n      dup2\n      mstore\n      0x20\n      add\n      swap1\n      dup2\n      mstore\n      0x20\n      add\n      0x00\n      keccak256\n      0x00\n      swap1\n      sload\n      swap1\n      0x0100\n      exp\n      swap1\n      div\n      0xffffffffffffffffffffffffffffffffffffffff\n      and\n        /* \"lotto.sol\":1960:1970  roundEntry */\n      0x06\n        /* \"lotto.sol\":1960:1981  roundEntry[lastIndex] */\n      0x00\n        /* \"lotto.sol\":1971:1980  lastIndex */\n      dup4\n        /* \"lotto.sol\":1960:1981  roundEntry[lastIndex] */\n      dup2\n      mstore\n      0x20\n      add\n      swap1\n      dup2\n      mstore\n      0x20\n      add\n      0x00\n      keccak256\n      0x00\n        /* \"lotto.sol\":1960:2012  roundEntry[lastIndex] = roundEntry[roundEntries - i] */\n      0x0100\n      exp\n      dup2\n      sload\n      dup2\n      0xffffffffffffffffffffffffffffffffffffffff\n      mul\n      not\n      and\n      swap1\n      dup4\n      0xffffffffffffffffffffffffffffffffffffffff\n      and\n      mul\n      or\n      swap1\n      sstore\n      pop\n        /* \"lotto.sol\":2027:2039  entriesIndex */\n      0x07\n        /* \"lotto.sol\":2027:2048  entriesIndex[account] */\n      0x00\n        /* \"lotto.sol\":2040:2047  account */\n      dup7\n        /* \"lotto.sol\":2027:2048  entriesIndex[account] */\n      0xffffffffffffffffffffffffffffffffffffffff\n      and\n      0xffffffffffffffffffffffffffffffffffffffff\n      and\n      dup2\n      mstore\n      0x20\n      add\n      swap1\n      dup2\n      mstore\n      0x20\n      add\n      0x00\n      keccak256\n        /* \"lotto.sol\":2027:2054  entriesIndex[account].pop() */\n      dup1\n      sload\n      dup1\n      tag_199\n      jumpi\n      tag_200\n      tag_201\n      jump\t// in\n    tag_200:\n    tag_199:\n      0x01\n      swap1\n      sub\n      dup2\n      dup2\n      swap1\n      0x00\n      mstore\n      keccak256(0x00, 0x20)\n      add\n      0x00\n      swap1\n      sstore\n      swap1\n      sstore\n        /* \"lotto.sol\":1855:2066  {\r... */\n      pop\n        /* \"lotto.sol\":1851:1854  i++ */\n      dup1\n      dup1\n      tag_203\n      swap1\n      tag_113\n      jump\t// in\n    tag_203:\n      swap2\n      pop\n      pop\n        /* \"lotto.sol\":1819:2066  for(uint256 i = 1; i <= amount; i++){\r... */\n      jump(tag_190)\n    tag_191:\n      pop\n        /* \"lotto.sol\":2094:2100  amount */\n      dup2\n        /* \"lotto.sol\":2078:2090  roundEntries */\n      0x01\n      0x00\n        /* \"lotto.sol\":2078:2100  roundEntries -= amount */\n      dup3\n      dup3\n      sload\n      tag_204\n      swap2\n      swap1\n      tag_194\n      jump\t// in\n    tag_204:\n      swap3\n      pop\n      pop\n      dup2\n      swap1\n      sstore\n      pop\n        /* \"lotto.sol\":1601:2108  {\r... */\n      pop\n        /* \"lotto.sol\":1530:2108  function removeEntryFromWallet(address account, uint256 amount) public {\r... */\n    tag_185:\n      pop\n      pop\n      jump\t// out\n        /* \"lotto.sol\":951:998  mapping(uint256 => Results) public roundResults */\n    tag_79:\n      mstore(0x20, 0x05)\n      dup1\n      0x00\n      mstore\n      keccak256(0x00, 0x40)\n      0x00\n      swap2\n      pop\n      swap1\n      pop\n      dup1\n      0x00\n      add\n      sload\n      swap1\n      dup1\n      0x01\n      add\n      sload\n      swap1\n      dup1\n      0x02\n      add\n      sload\n      swap1\n      dup1\n      0x03\n      add\n      sload\n      swap1\n      dup1\n      0x04\n      add\n      0x00\n      swap1\n      sload\n      swap1\n      0x0100\n      exp\n      swap1\n      div\n      0xffffffffffffffffffffffffffffffffffffffff\n      and\n      swap1\n      pop\n      dup6\n      jump\t// out\n        /* \"lotto.sol\":1005:1050  mapping(uint256 => address) public roundEntry */\n    tag_84:\n      mstore(0x20, 0x06)\n      dup1\n      0x00\n      mstore\n      keccak256(0x00, 0x40)\n      0x00\n      swap2\n      pop\n      sload\n      swap1\n      0x0100\n      exp\n      swap1\n      div\n      0xffffffffffffffffffffffffffffffffffffffff\n      and\n      dup2\n      jump\t// out\n        /* \"lotto.sol\":3418:3915  function resultLog(uint256 startIndex, uint256 endIndex) external view returns(Results [] memory log){\r... */\n    tag_89:\n        /* \"lotto.sol\":3497:3518  Results [] memory log */\n      0x60\n        /* \"lotto.sol\":3546:3554  roundNum */\n      sload(0x02)\n        /* \"lotto.sol\":3534:3542  endIndex */\n      dup3\n        /* \"lotto.sol\":3534:3554  endIndex >= roundNum */\n      lt\n        /* \"lotto.sol\":3530:3606  if (endIndex >= roundNum) {\r... */\n      tag_206\n      jumpi\n        /* \"lotto.sol\":3593:3594  1 */\n      0x01\n        /* \"lotto.sol\":3582:3590  roundNum */\n      sload(0x02)\n        /* \"lotto.sol\":3582:3594  roundNum - 1 */\n      tag_207\n      swap2\n      swap1\n      tag_194\n      jump\t// in\n    tag_207:\n        /* \"lotto.sol\":3571:3594  endIndex = roundNum - 1 */\n      swap2\n      pop\n        /* \"lotto.sol\":3530:3606  if (endIndex >= roundNum) {\r... */\n    tag_206:\n        /* \"lotto.sol\":3618:3637  uint256 arrayLength */\n      0x00\n        /* \"lotto.sol\":3664:3665  1 */\n      0x01\n        /* \"lotto.sol\":3651:3661  startIndex */\n      dup5\n        /* \"lotto.sol\":3640:3648  endIndex */\n      dup5\n        /* \"lotto.sol\":3640:3661  endIndex - startIndex */\n      tag_208\n      swap2\n      swap1\n      tag_194\n      jump\t// in\n    tag_208:\n        /* \"lotto.sol\":3640:3665  endIndex - startIndex + 1 */\n      tag_209\n      swap2\n      swap1\n      tag_142\n      jump\t// in\n    tag_209:\n        /* \"lotto.sol\":3618:3665  uint256 arrayLength = endIndex - startIndex + 1 */\n      swap1\n      pop\n        /* \"lotto.sol\":3676:3696  uint256 currentIndex */\n      0x00\n        /* \"lotto.sol\":3727:3738  arrayLength */\n      dup2\n        /* \"lotto.sol\":3713:3739  new Results[](arrayLength) */\n      0xffffffffffffffff\n      dup2\n      gt\n      iszero\n      tag_210\n      jumpi\n      tag_211\n      tag_119\n      jump\t// in\n    tag_211:\n    tag_210:\n      mload(0x40)\n      swap1\n      dup1\n      dup3\n      mstore\n      dup1\n      0x20\n      mul\n      0x20\n      add\n      dup3\n      add\n      0x40\n      mstore\n      dup1\n      iszero\n      tag_212\n      jumpi\n      dup2\n      0x20\n      add\n    tag_213:\n      tag_214\n      tag_215\n      jump\t// in\n    tag_214:\n      dup2\n      mstore\n      0x20\n      add\n      swap1\n      0x01\n      swap1\n      sub\n      swap1\n      dup2\n      tag_213\n      jumpi\n      swap1\n      pop\n    tag_212:\n      pop\n        /* \"lotto.sol\":3707:3739  log = new Results[](arrayLength) */\n      swap3\n      pop\n        /* \"lotto.sol\":3760:3769  uint256 i */\n      0x00\n        /* \"lotto.sol\":3772:3782  startIndex */\n      dup6\n        /* \"lotto.sol\":3760:3782  uint256 i = startIndex */\n      swap1\n      pop\n        /* \"lotto.sol\":3755:3908  for (uint256 i = startIndex; i <= endIndex; i++) {\r... */\n    tag_216:\n        /* \"lotto.sol\":3789:3797  endIndex */\n      dup5\n        /* \"lotto.sol\":3784:3785  i */\n      dup2\n        /* \"lotto.sol\":3784:3797  i <= endIndex */\n      gt\n        /* \"lotto.sol\":3755:3908  for (uint256 i = startIndex; i <= endIndex; i++) {\r... */\n      tag_217\n      jumpi\n        /* \"lotto.sol\":3839:3851  roundResults */\n      0x05\n        /* \"lotto.sol\":3839:3867  roundResults[startIndex + i] */\n      0x00\n        /* \"lotto.sol\":3865:3866  i */\n      dup3\n        /* \"lotto.sol\":3852:3862  startIndex */\n      dup9\n        /* \"lotto.sol\":3852:3866  startIndex + i */\n      tag_219\n      swap2\n      swap1\n      tag_142\n      jump\t// in\n    tag_219:\n        /* \"lotto.sol\":3839:3867  roundResults[startIndex + i] */\n      dup2\n      mstore\n      0x20\n      add\n      swap1\n      dup2\n      mstore\n      0x20\n      add\n      0x00\n      keccak256\n        /* \"lotto.sol\":3819:3867  log[currentIndex] = roundResults[startIndex + i] */\n      mload(0x40)\n      dup1\n      0xa0\n      add\n      0x40\n      mstore\n      swap1\n      dup2\n      0x00\n      dup3\n      add\n      sload\n      dup2\n      mstore\n      0x20\n      add\n      0x01\n      dup3\n      add\n      sload\n      dup2\n      mstore\n      0x20\n      add\n      0x02\n      dup3\n      add\n      sload\n      dup2\n      mstore\n      0x20\n      add\n      0x03\n      dup3\n      add\n      sload\n      dup2\n      mstore\n      0x20\n      add\n      0x04\n      dup3\n      add\n      0x00\n      swap1\n      sload\n      swap1\n      0x0100\n      exp\n      swap1\n      div\n      0xffffffffffffffffffffffffffffffffffffffff\n      and\n      0xffffffffffffffffffffffffffffffffffffffff\n      and\n      0xffffffffffffffffffffffffffffffffffffffff\n      and\n      dup2\n      mstore\n      pop\n      pop\n        /* \"lotto.sol\":3819:3822  log */\n      dup5\n        /* \"lotto.sol\":3823:3835  currentIndex */\n      dup4\n        /* \"lotto.sol\":3819:3836  log[currentIndex] */\n      dup2\n      mload\n      dup2\n      lt\n      tag_220\n      jumpi\n      tag_221\n      tag_109\n      jump\t// in\n    tag_221:\n    tag_220:\n      0x20\n      mul\n      0x20\n      add\n      add\n        /* \"lotto.sol\":3819:3867  log[currentIndex] = roundResults[startIndex + i] */\n      dup2\n      swap1\n      mstore\n      pop\n        /* \"lotto.sol\":3882:3896  currentIndex++ */\n      dup2\n      dup1\n      tag_222\n      swap1\n      tag_113\n      jump\t// in\n    tag_222:\n      swap3\n      pop\n      pop\n        /* \"lotto.sol\":3799:3802  i++ */\n      dup1\n      dup1\n      tag_223\n      swap1\n      tag_113\n      jump\t// in\n    tag_223:\n      swap2\n      pop\n      pop\n        /* \"lotto.sol\":3755:3908  for (uint256 i = startIndex; i <= endIndex; i++) {\r... */\n      jump(tag_216)\n    tag_217:\n      pop\n        /* \"lotto.sol\":3519:3915  {\r... */\n      pop\n      pop\n        /* \"lotto.sol\":3418:3915  function resultLog(uint256 startIndex, uint256 endIndex) external view returns(Results [] memory log){\r... */\n      swap3\n      swap2\n      pop\n      pop\n      jump\t// out\n        /* \"lotto.sol\":2116:2285  function removeAccount(address account) external{\r... */\n    tag_94:\n        /* \"lotto.sol\":2175:2197  uint256 currentEntries */\n      0x00\n        /* \"lotto.sol\":2200:2220  userEntries(account) */\n      tag_225\n        /* \"lotto.sol\":2212:2219  account */\n      dup3\n        /* \"lotto.sol\":2200:2211  userEntries */\n      tag_71\n        /* \"lotto.sol\":2200:2220  userEntries(account) */\n      jump\t// in\n    tag_225:\n        /* \"lotto.sol\":2175:2220  uint256 currentEntries = userEntries(account) */\n      swap1\n      pop\n        /* \"lotto.sol\":2231:2277  removeEntryFromWallet(account, currentEntries) */\n      tag_226\n        /* \"lotto.sol\":2253:2260  account */\n      dup3\n        /* \"lotto.sol\":2262:2276  currentEntries */\n      dup3\n        /* \"lotto.sol\":2231:2252  removeEntryFromWallet */\n      tag_75\n        /* \"lotto.sol\":2231:2277  removeEntryFromWallet(account, currentEntries) */\n      jump\t// in\n    tag_226:\n        /* \"lotto.sol\":2164:2285  {\r... */\n      pop\n        /* \"lotto.sol\":2116:2285  function removeAccount(address account) external{\r... */\n      pop\n      jump\t// out\n        /* \"https://github.com/OpenZeppelin/openzeppelin-contracts/blob/master/contracts/access/Ownable.sol\":1918:2116  function transferOwnership(address newOwner) public virtual onlyOwner {... */\n    tag_97:\n        /* \"https://github.com/OpenZeppelin/openzeppelin-contracts/blob/master/contracts/access/Ownable.sol\":1259:1271  _msgSender() */\n      tag_228\n        /* \"https://github.com/OpenZeppelin/openzeppelin-contracts/blob/master/contracts/access/Ownable.sol\":1259:1269  _msgSender */\n      tag_151\n        /* \"https://github.com/OpenZeppelin/openzeppelin-contracts/blob/master/contracts/access/Ownable.sol\":1259:1271  _msgSender() */\n      jump\t// in\n    tag_228:\n        /* \"https://github.com/OpenZeppelin/openzeppelin-contracts/blob/master/contracts/access/Ownable.sol\":1248:1271  owner() == _msgSender() */\n      0xffffffffffffffffffffffffffffffffffffffff\n      and\n        /* \"https://github.com/OpenZeppelin/openzeppelin-contracts/blob/master/contracts/access/Ownable.sol\":1248:1255  owner() */\n      tag_229\n        /* \"https://github.com/OpenZeppelin/openzeppelin-contracts/blob/master/contracts/access/Ownable.sol\":1248:1253  owner */\n      tag_62\n        /* \"https://github.com/OpenZeppelin/openzeppelin-contracts/blob/master/contracts/access/Ownable.sol\":1248:1255  owner() */\n      jump\t// in\n    tag_229:\n        /* \"https://github.com/OpenZeppelin/openzeppelin-contracts/blob/master/contracts/access/Ownable.sol\":1248:1271  owner() == _msgSender() */\n      0xffffffffffffffffffffffffffffffffffffffff\n      and\n      eq\n        /* \"https://github.com/OpenZeppelin/openzeppelin-contracts/blob/master/contracts/access/Ownable.sol\":1240:1308  require(owner() == _msgSender(), \"Ownable: caller is not the owner\") */\n      tag_230\n      jumpi\n      mload(0x40)\n      0x08c379a000000000000000000000000000000000000000000000000000000000\n      dup2\n      mstore\n      0x04\n      add\n      tag_231\n      swap1\n      tag_155\n      jump\t// in\n    tag_231:\n      mload(0x40)\n      dup1\n      swap2\n      sub\n      swap1\n      revert\n    tag_230:\n        /* \"https://github.com/OpenZeppelin/openzeppelin-contracts/blob/master/contracts/access/Ownable.sol\":2026:2027  0 */\n      0x00\n        /* \"https://github.com/OpenZeppelin/openzeppelin-contracts/blob/master/contracts/access/Ownable.sol\":2006:2028  newOwner != address(0) */\n      0xffffffffffffffffffffffffffffffffffffffff\n      and\n        /* \"https://github.com/OpenZeppelin/openzeppelin-contracts/blob/master/contracts/access/Ownable.sol\":2006:2014  newOwner */\n      dup2\n        /* \"https://github.com/OpenZeppelin/openzeppelin-contracts/blob/master/contracts/access/Ownable.sol\":2006:2028  newOwner != address(0) */\n      0xffffffffffffffffffffffffffffffffffffffff\n      and\n      eq\n      iszero\n        /* \"https://github.com/OpenZeppelin/openzeppelin-contracts/blob/master/contracts/access/Ownable.sol\":1998:2071  require(newOwner != address(0), \"Ownable: new owner is the zero address\") */\n      tag_233\n      jumpi\n      mload(0x40)\n      0x08c379a000000000000000000000000000000000000000000000000000000000\n      dup2\n      mstore\n      0x04\n      add\n      tag_234\n      swap1\n      tag_235\n      jump\t// in\n    tag_234:\n      mload(0x40)\n      dup1\n      swap2\n      sub\n      swap1\n      revert\n    tag_233:\n        /* \"https://github.com/OpenZeppelin/openzeppelin-contracts/blob/master/contracts/access/Ownable.sol\":2081:2109  _transferOwnership(newOwner) */\n      tag_236\n        /* \"https://github.com/OpenZeppelin/openzeppelin-contracts/blob/master/contracts/access/Ownable.sol\":2100:2108  newOwner */\n      dup2\n        /* \"https://github.com/OpenZeppelin/openzeppelin-contracts/blob/master/contracts/access/Ownable.sol\":2081:2099  _transferOwnership */\n      tag_182\n        /* \"https://github.com/OpenZeppelin/openzeppelin-contracts/blob/master/contracts/access/Ownable.sol\":2081:2109  _transferOwnership(newOwner) */\n      jump\t// in\n    tag_236:\n        /* \"https://github.com/OpenZeppelin/openzeppelin-contracts/blob/master/contracts/access/Ownable.sol\":1918:2116  function transferOwnership(address newOwner) public virtual onlyOwner {... */\n      pop\n      jump\t// out\n        /* \"lotto.sol\":3164:3280  function currentJackpot() public view returns (uint256) {\r... */\n    tag_99:\n        /* \"lotto.sol\":3211:3218  uint256 */\n      0x00\n        /* \"lotto.sol\":3238:3247  acesToken */\n      0x04\n      0x00\n      swap1\n      sload\n      swap1\n      0x0100\n      exp\n      swap1\n      div\n      0xffffffffffffffffffffffffffffffffffffffff\n      and\n        /* \"lotto.sol\":3238:3257  acesToken.balanceOf */\n      0xffffffffffffffffffffffffffffffffffffffff\n      and\n      0x70a08231\n        /* \"lotto.sol\":3266:3270  this */\n      address\n        /* \"lotto.sol\":3238:3272  acesToken.balanceOf(address(this)) */\n      mload(0x40)\n      dup3\n      0xffffffff\n      and\n      0xe0\n      shl\n      dup2\n      mstore\n      0x04\n      add\n      tag_238\n      swap2\n      swap1\n      tag_64\n      jump\t// in\n    tag_238:\n      0x20\n      mload(0x40)\n      dup1\n      dup4\n      sub\n      dup2\n      dup7\n      dup1\n      extcodesize\n      iszero\n      dup1\n      iszero\n      tag_239\n      jumpi\n      0x00\n      dup1\n      revert\n    tag_239:\n      pop\n      gas\n      staticcall\n      iszero\n      dup1\n      iszero\n      tag_241\n      jumpi\n      returndatasize\n      0x00\n      dup1\n      returndatacopy\n      revert(0x00, returndatasize)\n    tag_241:\n      pop\n      pop\n      pop\n      pop\n      mload(0x40)\n      returndatasize\n      not(0x1f)\n      0x1f\n      dup3\n      add\n      and\n      dup3\n      add\n      dup1\n      0x40\n      mstore\n      pop\n      dup2\n      add\n      swap1\n      tag_242\n      swap2\n      swap1\n      tag_243\n      jump\t// in\n    tag_242:\n        /* \"lotto.sol\":3231:3272  return acesToken.balanceOf(address(this)) */\n      swap1\n      pop\n        /* \"lotto.sol\":3164:3280  function currentJackpot() public view returns (uint256) {\r... */\n      swap1\n      jump\t// out\n        /* \"https://github.com/OpenZeppelin/openzeppelin-contracts/blob/master/contracts/utils/Context.sol\":640:736  function _msgSender() internal view virtual returns (address) {... */\n    tag_151:\n        /* \"https://github.com/OpenZeppelin/openzeppelin-contracts/blob/master/contracts/utils/Context.sol\":693:700  address */\n      0x00\n        /* \"https://github.com/OpenZeppelin/openzeppelin-contracts/blob/master/contracts/utils/Context.sol\":719:729  msg.sender */\n      caller\n        /* \"https://github.com/OpenZeppelin/openzeppelin-contracts/blob/master/contracts/utils/Context.sol\":712:729  return msg.sender */\n      swap1\n      pop\n        /* \"https://github.com/OpenZeppelin/openzeppelin-contracts/blob/master/contracts/utils/Context.sol\":640:736  function _msgSender() internal view virtual returns (address) {... */\n      swap1\n      jump\t// out\n        /* \"lotto.sol\":4822:5195  function random() internal view returns (uint256) {\r... */\n    tag_162:\n        /* \"lotto.sol\":4863:4870  uint256 */\n      0x00\n        /* \"lotto.sol\":5004:5019  block.timestamp */\n      timestamp\n        /* \"lotto.sol\":5046:5055  gasleft() */\n      gas\n        /* \"lotto.sol\":5082:5092  msg.sender */\n      caller\n        /* \"lotto.sol\":5119:5130  totalPayout */\n      sload(0x03)\n        /* \"lotto.sol\":4961:5153  abi.encodePacked(\r... */\n      add(0x20, mload(0x40))\n      tag_246\n      swap5\n      swap4\n      swap3\n      swap2\n      swap1\n      tag_247\n      jump\t// in\n    tag_246:\n      mload(0x40)\n      0x20\n      dup2\n      dup4\n      sub\n      sub\n      dup2\n      mstore\n      swap1\n      0x40\n      mstore\n        /* \"lotto.sol\":4929:5172  keccak256(\r... */\n      dup1\n      mload\n      swap1\n      0x20\n      add\n      keccak256\n        /* \"lotto.sol\":4903:5187  uint256(\r... */\n      0x00\n      shr\n        /* \"lotto.sol\":4883:5187  return\r... */\n      swap1\n      pop\n        /* \"lotto.sol\":4822:5195  function random() internal view returns (uint256) {\r... */\n      swap1\n      jump\t// out\n        /* \"https://github.com/OpenZeppelin/openzeppelin-contracts/blob/master/contracts/access/Ownable.sol\":2270:2457  function _transferOwnership(address newOwner) internal virtual {... */\n    tag_182:\n        /* \"https://github.com/OpenZeppelin/openzeppelin-contracts/blob/master/contracts/access/Ownable.sol\":2343:2359  address oldOwner */\n      0x00\n        /* \"https://github.com/OpenZeppelin/openzeppelin-contracts/blob/master/contracts/access/Ownable.sol\":2362:2368  _owner */\n      dup1\n      0x00\n      swap1\n      sload\n      swap1\n      0x0100\n      exp\n      swap1\n      div\n      0xffffffffffffffffffffffffffffffffffffffff\n      and\n        /* \"https://github.com/OpenZeppelin/openzeppelin-contracts/blob/master/contracts/access/Ownable.sol\":2343:2368  address oldOwner = _owner */\n      swap1\n      pop\n        /* \"https://github.com/OpenZeppelin/openzeppelin-contracts/blob/master/contracts/access/Ownable.sol\":2387:2395  newOwner */\n      dup2\n        /* \"https://github.com/OpenZeppelin/openzeppelin-contracts/blob/master/contracts/access/Ownable.sol\":2378:2384  _owner */\n      0x00\n      dup1\n        /* \"https://github.com/OpenZeppelin/openzeppelin-contracts/blob/master/contracts/access/Ownable.sol\":2378:2395  _owner = newOwner */\n      0x0100\n      exp\n      dup2\n      sload\n      dup2\n      0xffffffffffffffffffffffffffffffffffffffff\n      mul\n      not\n      and\n      swap1\n      dup4\n      0xffffffffffffffffffffffffffffffffffffffff\n      and\n      mul\n      or\n      swap1\n      sstore\n      pop\n        /* \"https://github.com/OpenZeppelin/openzeppelin-contracts/blob/master/contracts/access/Ownable.sol\":2441:2449  newOwner */\n      dup2\n        /* \"https://github.com/OpenZeppelin/openzeppelin-contracts/blob/master/contracts/access/Ownable.sol\":2410:2450  OwnershipTransferred(oldOwner, newOwner) */\n      0xffffffffffffffffffffffffffffffffffffffff\n      and\n        /* \"https://github.com/OpenZeppelin/openzeppelin-contracts/blob/master/contracts/access/Ownable.sol\":2431:2439  oldOwner */\n      dup2\n        /* \"https://github.com/OpenZeppelin/openzeppelin-contracts/blob/master/contracts/access/Ownable.sol\":2410:2450  OwnershipTransferred(oldOwner, newOwner) */\n      0xffffffffffffffffffffffffffffffffffffffff\n      and\n      0x8be0079c531659141344cd1fd0a4f28419497f9722a3daafe3b4186f6b6457e0\n      mload(0x40)\n      mload(0x40)\n      dup1\n      swap2\n      sub\n      swap1\n      log3\n        /* \"https://github.com/OpenZeppelin/openzeppelin-contracts/blob/master/contracts/access/Ownable.sol\":2333:2457  {... */\n      pop\n        /* \"https://github.com/OpenZeppelin/openzeppelin-contracts/blob/master/contracts/access/Ownable.sol\":2270:2457  function _transferOwnership(address newOwner) internal virtual {... */\n      pop\n      jump\t// out\n    tag_215:\n      mload(0x40)\n      dup1\n      0xa0\n      add\n      0x40\n      mstore\n      dup1\n      0x00\n      dup2\n      mstore\n      0x20\n      add\n      0x00\n      dup2\n      mstore\n      0x20\n      add\n      0x00\n      dup2\n      mstore\n      0x20\n      add\n      0x00\n      dup2\n      mstore\n      0x20\n      add\n      and(0xffffffffffffffffffffffffffffffffffffffff, 0x00)\n      dup2\n      mstore\n      pop\n      swap1\n      jump\t// out\n        /* \"#utility.yul\":7:146   */\n    tag_250:\n        /* \"#utility.yul\":53:58   */\n      0x00\n        /* \"#utility.yul\":91:97   */\n      dup2\n        /* \"#utility.yul\":78:98   */\n      calldataload\n        /* \"#utility.yul\":69:98   */\n      swap1\n      pop\n        /* \"#utility.yul\":107:140   */\n      tag_252\n        /* \"#utility.yul\":134:139   */\n      dup2\n        /* \"#utility.yul\":107:140   */\n      tag_253\n      jump\t// in\n    tag_252:\n        /* \"#utility.yul\":7:146   */\n      swap3\n      swap2\n      pop\n      pop\n      jump\t// out\n        /* \"#utility.yul\":152:289   */\n    tag_254:\n        /* \"#utility.yul\":206:211   */\n      0x00\n        /* \"#utility.yul\":237:243   */\n      dup2\n        /* \"#utility.yul\":231:244   */\n      mload\n        /* \"#utility.yul\":222:244   */\n      swap1\n      pop\n        /* \"#utility.yul\":253:283   */\n      tag_256\n        /* \"#utility.yul\":277:282   */\n      dup2\n        /* \"#utility.yul\":253:283   */\n      tag_257\n      jump\t// in\n    tag_256:\n        /* \"#utility.yul\":152:289   */\n      swap3\n      swap2\n      pop\n      pop\n      jump\t// out\n        /* \"#utility.yul\":295:434   */\n    tag_258:\n        /* \"#utility.yul\":341:346   */\n      0x00\n        /* \"#utility.yul\":379:385   */\n      dup2\n        /* \"#utility.yul\":366:386   */\n      calldataload\n        /* \"#utility.yul\":357:386   */\n      swap1\n      pop\n        /* \"#utility.yul\":395:428   */\n      tag_260\n        /* \"#utility.yul\":422:427   */\n      dup2\n        /* \"#utility.yul\":395:428   */\n      tag_261\n      jump\t// in\n    tag_260:\n        /* \"#utility.yul\":295:434   */\n      swap3\n      swap2\n      pop\n      pop\n      jump\t// out\n        /* \"#utility.yul\":440:583   */\n    tag_262:\n        /* \"#utility.yul\":497:502   */\n      0x00\n        /* \"#utility.yul\":528:534   */\n      dup2\n        /* \"#utility.yul\":522:535   */\n      mload\n        /* \"#utility.yul\":513:535   */\n      swap1\n      pop\n        /* \"#utility.yul\":544:577   */\n      tag_264\n        /* \"#utility.yul\":571:576   */\n      dup2\n        /* \"#utility.yul\":544:577   */\n      tag_261\n      jump\t// in\n    tag_264:\n        /* \"#utility.yul\":440:583   */\n      swap3\n      swap2\n      pop\n      pop\n      jump\t// out\n        /* \"#utility.yul\":589:918   */\n    tag_50:\n        /* \"#utility.yul\":648:654   */\n      0x00\n        /* \"#utility.yul\":697:699   */\n      0x20\n        /* \"#utility.yul\":685:694   */\n      dup3\n        /* \"#utility.yul\":676:683   */\n      dup5\n        /* \"#utility.yul\":672:695   */\n      sub\n        /* \"#utility.yul\":668:700   */\n      slt\n        /* \"#utility.yul\":665:784   */\n      iszero\n      tag_266\n      jumpi\n        /* \"#utility.yul\":703:782   */\n      tag_267\n      tag_268\n      jump\t// in\n    tag_267:\n        /* \"#utility.yul\":665:784   */\n    tag_266:\n        /* \"#utility.yul\":823:824   */\n      0x00\n        /* \"#utility.yul\":848:901   */\n      tag_269\n        /* \"#utility.yul\":893:900   */\n      dup5\n        /* \"#utility.yul\":884:890   */\n      dup3\n        /* \"#utility.yul\":873:882   */\n      dup6\n        /* \"#utility.yul\":869:891   */\n      add\n        /* \"#utility.yul\":848:901   */\n      tag_250\n      jump\t// in\n    tag_269:\n        /* \"#utility.yul\":838:901   */\n      swap2\n      pop\n        /* \"#utility.yul\":794:911   */\n      pop\n        /* \"#utility.yul\":589:918   */\n      swap3\n      swap2\n      pop\n      pop\n      jump\t// out\n        /* \"#utility.yul\":924:1398   */\n    tag_28:\n        /* \"#utility.yul\":992:998   */\n      0x00\n        /* \"#utility.yul\":1000:1006   */\n      dup1\n        /* \"#utility.yul\":1049:1051   */\n      0x40\n        /* \"#utility.yul\":1037:1046   */\n      dup4\n        /* \"#utility.yul\":1028:1035   */\n      dup6\n        /* \"#utility.yul\":1024:1047   */\n      sub\n        /* \"#utility.yul\":1020:1052   */\n      slt\n        /* \"#utility.yul\":1017:1136   */\n      iszero\n      tag_271\n      jumpi\n        /* \"#utility.yul\":1055:1134   */\n      tag_272\n      tag_268\n      jump\t// in\n    tag_272:\n        /* \"#utility.yul\":1017:1136   */\n    tag_271:\n        /* \"#utility.yul\":1175:1176   */\n      0x00\n        /* \"#utility.yul\":1200:1253   */\n      tag_273\n        /* \"#utility.yul\":1245:1252   */\n      dup6\n        /* \"#utility.yul\":1236:1242   */\n      dup3\n        /* \"#utility.yul\":1225:1234   */\n      dup7\n        /* \"#utility.yul\":1221:1243   */\n      add\n        /* \"#utility.yul\":1200:1253   */\n      tag_250\n      jump\t// in\n    tag_273:\n        /* \"#utility.yul\":1190:1253   */\n      swap3\n      pop\n        /* \"#utility.yul\":1146:1263   */\n      pop\n        /* \"#utility.yul\":1302:1304   */\n      0x20\n        /* \"#utility.yul\":1328:1381   */\n      tag_274\n        /* \"#utility.yul\":1373:1380   */\n      dup6\n        /* \"#utility.yul\":1364:1370   */\n      dup3\n        /* \"#utility.yul\":1353:1362   */\n      dup7\n        /* \"#utility.yul\":1349:1371   */\n      add\n        /* \"#utility.yul\":1328:1381   */\n      tag_258\n      jump\t// in\n    tag_274:\n        /* \"#utility.yul\":1318:1381   */\n      swap2\n      pop\n        /* \"#utility.yul\":1273:1391   */\n      pop\n        /* \"#utility.yul\":924:1398   */\n      swap3\n      pop\n      swap3\n      swap1\n      pop\n      jump\t// out\n        /* \"#utility.yul\":1404:1749   */\n    tag_173:\n        /* \"#utility.yul\":1471:1477   */\n      0x00\n        /* \"#utility.yul\":1520:1522   */\n      0x20\n        /* \"#utility.yul\":1508:1517   */\n      dup3\n        /* \"#utility.yul\":1499:1506   */\n      dup5\n        /* \"#utility.yul\":1495:1518   */\n      sub\n        /* \"#utility.yul\":1491:1523   */\n      slt\n        /* \"#utility.yul\":1488:1607   */\n      iszero\n      tag_276\n      jumpi\n        /* \"#utility.yul\":1526:1605   */\n      tag_277\n      tag_268\n      jump\t// in\n    tag_277:\n        /* \"#utility.yul\":1488:1607   */\n    tag_276:\n        /* \"#utility.yul\":1646:1647   */\n      0x00\n        /* \"#utility.yul\":1671:1732   */\n      tag_278\n        /* \"#utility.yul\":1724:1731   */\n      dup5\n        /* \"#utility.yul\":1715:1721   */\n      dup3\n        /* \"#utility.yul\":1704:1713   */\n      dup6\n        /* \"#utility.yul\":1700:1722   */\n      add\n        /* \"#utility.yul\":1671:1732   */\n      tag_254\n      jump\t// in\n    tag_278:\n        /* \"#utility.yul\":1661:1732   */\n      swap2\n      pop\n        /* \"#utility.yul\":1617:1742   */\n      pop\n        /* \"#utility.yul\":1404:1749   */\n      swap3\n      swap2\n      pop\n      pop\n      jump\t// out\n        /* \"#utility.yul\":1755:2084   */\n    tag_78:\n        /* \"#utility.yul\":1814:1820   */\n      0x00\n        /* \"#utility.yul\":1863:1865   */\n      0x20\n        /* \"#utility.yul\":1851:1860   */\n      dup3\n        /* \"#utility.yul\":1842:1849   */\n      dup5\n        /* \"#utility.yul\":1838:1861   */\n      sub\n        /* \"#utility.yul\":1834:1866   */\n      slt\n        /* \"#utility.yul\":1831:1950   */\n      iszero\n      tag_280\n      jumpi\n        /* \"#utility.yul\":1869:1948   */\n      tag_281\n      tag_268\n      jump\t// in\n    tag_281:\n        /* \"#utility.yul\":1831:1950   */\n    tag_280:\n        /* \"#utility.yul\":1989:1990   */\n      0x00\n        /* \"#utility.yul\":2014:2067   */\n      tag_282\n        /* \"#utility.yul\":2059:2066   */\n      dup5\n        /* \"#utility.yul\":2050:2056   */\n      dup3\n        /* \"#utility.yul\":2039:2048   */\n      dup6\n        /* \"#utility.yul\":2035:2057   */\n      add\n        /* \"#utility.yul\":2014:2067   */\n      tag_258\n      jump\t// in\n    tag_282:\n        /* \"#utility.yul\":2004:2067   */\n      swap2\n      pop\n        /* \"#utility.yul\":1960:2077   */\n      pop\n        /* \"#utility.yul\":1755:2084   */\n      swap3\n      swap2\n      pop\n      pop\n      jump\t// out\n        /* \"#utility.yul\":2090:2441   */\n    tag_243:\n        /* \"#utility.yul\":2160:2166   */\n      0x00\n        /* \"#utility.yul\":2209:2211   */\n      0x20\n        /* \"#utility.yul\":2197:2206   */\n      dup3\n        /* \"#utility.yul\":2188:2195   */\n      dup5\n        /* \"#utility.yul\":2184:2207   */\n      sub\n        /* \"#utility.yul\":2180:2212   */\n      slt\n        /* \"#utility.yul\":2177:2296   */\n      iszero\n      tag_284\n      jumpi\n        /* \"#utility.yul\":2215:2294   */\n      tag_285\n      tag_268\n      jump\t// in\n    tag_285:\n        /* \"#utility.yul\":2177:2296   */\n    tag_284:\n        /* \"#utility.yul\":2335:2336   */\n      0x00\n        /* \"#utility.yul\":2360:2424   */\n      tag_286\n        /* \"#utility.yul\":2416:2423   */\n      dup5\n        /* \"#utility.yul\":2407:2413   */\n      dup3\n        /* \"#utility.yul\":2396:2405   */\n      dup6\n        /* \"#utility.yul\":2392:2414   */\n      add\n        /* \"#utility.yul\":2360:2424   */\n      tag_262\n      jump\t// in\n    tag_286:\n        /* \"#utility.yul\":2350:2424   */\n      swap2\n      pop\n        /* \"#utility.yul\":2306:2434   */\n      pop\n        /* \"#utility.yul\":2090:2441   */\n      swap3\n      swap2\n      pop\n      pop\n      jump\t// out\n        /* \"#utility.yul\":2447:2921   */\n    tag_88:\n        /* \"#utility.yul\":2515:2521   */\n      0x00\n        /* \"#utility.yul\":2523:2529   */\n      dup1\n        /* \"#utility.yul\":2572:2574   */\n      0x40\n        /* \"#utility.yul\":2560:2569   */\n      dup4\n        /* \"#utility.yul\":2551:2558   */\n      dup6\n        /* \"#utility.yul\":2547:2570   */\n      sub\n        /* \"#utility.yul\":2543:2575   */\n      slt\n        /* \"#utility.yul\":2540:2659   */\n      iszero\n      tag_288\n      jumpi\n        /* \"#utility.yul\":2578:2657   */\n      tag_289\n      tag_268\n      jump\t// in\n    tag_289:\n        /* \"#utility.yul\":2540:2659   */\n    tag_288:\n        /* \"#utility.yul\":2698:2699   */\n      0x00\n        /* \"#utility.yul\":2723:2776   */\n      tag_290\n        /* \"#utility.yul\":2768:2775   */\n      dup6\n        /* \"#utility.yul\":2759:2765   */\n      dup3\n        /* \"#utility.yul\":2748:2757   */\n      dup7\n        /* \"#utility.yul\":2744:2766   */\n      add\n        /* \"#utility.yul\":2723:2776   */\n      tag_258\n      jump\t// in\n    tag_290:\n        /* \"#utility.yul\":2713:2776   */\n      swap3\n      pop\n        /* \"#utility.yul\":2669:2786   */\n      pop\n        /* \"#utility.yul\":2825:2827   */\n      0x20\n        /* \"#utility.yul\":2851:2904   */\n      tag_291\n        /* \"#utility.yul\":2896:2903   */\n      dup6\n        /* \"#utility.yul\":2887:2893   */\n      dup3\n        /* \"#utility.yul\":2876:2885   */\n      dup7\n        /* \"#utility.yul\":2872:2894   */\n      add\n        /* \"#utility.yul\":2851:2904   */\n      tag_258\n      jump\t// in\n    tag_291:\n        /* \"#utility.yul\":2841:2904   */\n      swap2\n      pop\n        /* \"#utility.yul\":2796:2914   */\n      pop\n        /* \"#utility.yul\":2447:2921   */\n      swap3\n      pop\n      swap3\n      swap1\n      pop\n      jump\t// out\n        /* \"#utility.yul\":2927:3106   */\n    tag_292:\n        /* \"#utility.yul\":2996:3006   */\n      0x00\n        /* \"#utility.yul\":3017:3063   */\n      tag_294\n        /* \"#utility.yul\":3059:3062   */\n      dup4\n        /* \"#utility.yul\":3051:3057   */\n      dup4\n        /* \"#utility.yul\":3017:3063   */\n      tag_295\n      jump\t// in\n    tag_294:\n        /* \"#utility.yul\":3095:3099   */\n      0x20\n        /* \"#utility.yul\":3090:3093   */\n      dup4\n        /* \"#utility.yul\":3086:3100   */\n      add\n        /* \"#utility.yul\":3072:3100   */\n      swap1\n      pop\n        /* \"#utility.yul\":2927:3106   */\n      swap3\n      swap2\n      pop\n      pop\n      jump\t// out\n        /* \"#utility.yul\":3112:3387   */\n    tag_296:\n        /* \"#utility.yul\":3229:3239   */\n      0x00\n        /* \"#utility.yul\":3250:3344   */\n      tag_298\n        /* \"#utility.yul\":3340:3343   */\n      dup4\n        /* \"#utility.yul\":3332:3338   */\n      dup4\n        /* \"#utility.yul\":3250:3344   */\n      tag_299\n      jump\t// in\n    tag_298:\n        /* \"#utility.yul\":3376:3380   */\n      0xa0\n        /* \"#utility.yul\":3371:3374   */\n      dup4\n        /* \"#utility.yul\":3367:3381   */\n      add\n        /* \"#utility.yul\":3353:3381   */\n      swap1\n      pop\n        /* \"#utility.yul\":3112:3387   */\n      swap3\n      swap2\n      pop\n      pop\n      jump\t// out\n        /* \"#utility.yul\":3393:3572   */\n    tag_300:\n        /* \"#utility.yul\":3462:3472   */\n      0x00\n        /* \"#utility.yul\":3483:3529   */\n      tag_302\n        /* \"#utility.yul\":3525:3528   */\n      dup4\n        /* \"#utility.yul\":3517:3523   */\n      dup4\n        /* \"#utility.yul\":3483:3529   */\n      tag_303\n      jump\t// in\n    tag_302:\n        /* \"#utility.yul\":3561:3565   */\n      0x20\n        /* \"#utility.yul\":3556:3559   */\n      dup4\n        /* \"#utility.yul\":3552:3566   */\n      add\n        /* \"#utility.yul\":3538:3566   */\n      swap1\n      pop\n        /* \"#utility.yul\":3393:3572   */\n      swap3\n      swap2\n      pop\n      pop\n      jump\t// out\n        /* \"#utility.yul\":3578:3686   */\n    tag_295:\n        /* \"#utility.yul\":3655:3679   */\n      tag_305\n        /* \"#utility.yul\":3673:3678   */\n      dup2\n        /* \"#utility.yul\":3655:3679   */\n      tag_306\n      jump\t// in\n    tag_305:\n        /* \"#utility.yul\":3650:3653   */\n      dup3\n        /* \"#utility.yul\":3643:3680   */\n      mstore\n        /* \"#utility.yul\":3578:3686   */\n      pop\n      pop\n      jump\t// out\n        /* \"#utility.yul\":3692:3810   */\n    tag_307:\n        /* \"#utility.yul\":3779:3803   */\n      tag_309\n        /* \"#utility.yul\":3797:3802   */\n      dup2\n        /* \"#utility.yul\":3779:3803   */\n      tag_306\n      jump\t// in\n    tag_309:\n        /* \"#utility.yul\":3774:3777   */\n      dup3\n        /* \"#utility.yul\":3767:3804   */\n      mstore\n        /* \"#utility.yul\":3692:3810   */\n      pop\n      pop\n      jump\t// out\n        /* \"#utility.yul\":3816:3973   */\n    tag_310:\n        /* \"#utility.yul\":3921:3966   */\n      tag_312\n        /* \"#utility.yul\":3941:3965   */\n      tag_313\n        /* \"#utility.yul\":3959:3964   */\n      dup3\n        /* \"#utility.yul\":3941:3965   */\n      tag_306\n      jump\t// in\n    tag_313:\n        /* \"#utility.yul\":3921:3966   */\n      tag_314\n      jump\t// in\n    tag_312:\n        /* \"#utility.yul\":3916:3919   */\n      dup3\n        /* \"#utility.yul\":3909:3967   */\n      mstore\n        /* \"#utility.yul\":3816:3973   */\n      pop\n      pop\n      jump\t// out\n        /* \"#utility.yul\":4009:4741   */\n    tag_315:\n        /* \"#utility.yul\":4128:4131   */\n      0x00\n        /* \"#utility.yul\":4157:4211   */\n      tag_317\n        /* \"#utility.yul\":4205:4210   */\n      dup3\n        /* \"#utility.yul\":4157:4211   */\n      tag_318\n      jump\t// in\n    tag_317:\n        /* \"#utility.yul\":4227:4313   */\n      tag_319\n        /* \"#utility.yul\":4306:4312   */\n      dup2\n        /* \"#utility.yul\":4301:4304   */\n      dup6\n        /* \"#utility.yul\":4227:4313   */\n      tag_320\n      jump\t// in\n    tag_319:\n        /* \"#utility.yul\":4220:4313   */\n      swap4\n      pop\n        /* \"#utility.yul\":4337:4393   */\n      tag_321\n        /* \"#utility.yul\":4387:4392   */\n      dup4\n        /* \"#utility.yul\":4337:4393   */\n      tag_322\n      jump\t// in\n    tag_321:\n        /* \"#utility.yul\":4416:4423   */\n      dup1\n        /* \"#utility.yul\":4447:4448   */\n      0x00\n        /* \"#utility.yul\":4432:4716   */\n    tag_323:\n        /* \"#utility.yul\":4457:4463   */\n      dup4\n        /* \"#utility.yul\":4454:4455   */\n      dup2\n        /* \"#utility.yul\":4451:4464   */\n      lt\n        /* \"#utility.yul\":4432:4716   */\n      iszero\n      tag_325\n      jumpi\n        /* \"#utility.yul\":4533:4539   */\n      dup2\n        /* \"#utility.yul\":4527:4540   */\n      mload\n        /* \"#utility.yul\":4560:4623   */\n      tag_326\n        /* \"#utility.yul\":4619:4622   */\n      dup9\n        /* \"#utility.yul\":4604:4617   */\n      dup3\n        /* \"#utility.yul\":4560:4623   */\n      tag_292\n      jump\t// in\n    tag_326:\n        /* \"#utility.yul\":4553:4623   */\n      swap8\n      pop\n        /* \"#utility.yul\":4646:4706   */\n      tag_327\n        /* \"#utility.yul\":4699:4705   */\n      dup4\n        /* \"#utility.yul\":4646:4706   */\n      tag_328\n      jump\t// in\n    tag_327:\n        /* \"#utility.yul\":4636:4706   */\n      swap3\n      pop\n        /* \"#utility.yul\":4492:4716   */\n      pop\n        /* \"#utility.yul\":4479:4480   */\n      0x01\n        /* \"#utility.yul\":4476:4477   */\n      dup2\n        /* \"#utility.yul\":4472:4481   */\n      add\n        /* \"#utility.yul\":4467:4481   */\n      swap1\n      pop\n        /* \"#utility.yul\":4432:4716   */\n      jump(tag_323)\n    tag_325:\n        /* \"#utility.yul\":4436:4450   */\n      pop\n        /* \"#utility.yul\":4732:4735   */\n      dup6\n        /* \"#utility.yul\":4725:4735   */\n      swap4\n      pop\n        /* \"#utility.yul\":4133:4741   */\n      pop\n      pop\n      pop\n        /* \"#utility.yul\":4009:4741   */\n      swap3\n      swap2\n      pop\n      pop\n      jump\t// out\n        /* \"#utility.yul\":4809:5733   */\n    tag_329:\n        /* \"#utility.yul\":4976:4979   */\n      0x00\n        /* \"#utility.yul\":5005:5083   */\n      tag_331\n        /* \"#utility.yul\":5077:5082   */\n      dup3\n        /* \"#utility.yul\":5005:5083   */\n      tag_332\n      jump\t// in\n    tag_331:\n        /* \"#utility.yul\":5099:5209   */\n      tag_333\n        /* \"#utility.yul\":5202:5208   */\n      dup2\n        /* \"#utility.yul\":5197:5200   */\n      dup6\n        /* \"#utility.yul\":5099:5209   */\n      tag_334\n      jump\t// in\n    tag_333:\n        /* \"#utility.yul\":5092:5209   */\n      swap4\n      pop\n        /* \"#utility.yul\":5233:5313   */\n      tag_335\n        /* \"#utility.yul\":5307:5312   */\n      dup4\n        /* \"#utility.yul\":5233:5313   */\n      tag_336\n      jump\t// in\n    tag_335:\n        /* \"#utility.yul\":5336:5343   */\n      dup1\n        /* \"#utility.yul\":5367:5368   */\n      0x00\n        /* \"#utility.yul\":5352:5708   */\n    tag_337:\n        /* \"#utility.yul\":5377:5383   */\n      dup4\n        /* \"#utility.yul\":5374:5375   */\n      dup2\n        /* \"#utility.yul\":5371:5384   */\n      lt\n        /* \"#utility.yul\":5352:5708   */\n      iszero\n      tag_339\n      jumpi\n        /* \"#utility.yul\":5453:5459   */\n      dup2\n        /* \"#utility.yul\":5447:5460   */\n      mload\n        /* \"#utility.yul\":5480:5591   */\n      tag_340\n        /* \"#utility.yul\":5587:5590   */\n      dup9\n        /* \"#utility.yul\":5572:5585   */\n      dup3\n        /* \"#utility.yul\":5480:5591   */\n      tag_296\n      jump\t// in\n    tag_340:\n        /* \"#utility.yul\":5473:5591   */\n      swap8\n      pop\n        /* \"#utility.yul\":5614:5698   */\n      tag_341\n        /* \"#utility.yul\":5691:5697   */\n      dup4\n        /* \"#utility.yul\":5614:5698   */\n      tag_342\n      jump\t// in\n    tag_341:\n        /* \"#utility.yul\":5604:5698   */\n      swap3\n      pop\n        /* \"#utility.yul\":5412:5708   */\n      pop\n        /* \"#utility.yul\":5399:5400   */\n      0x01\n        /* \"#utility.yul\":5396:5397   */\n      dup2\n        /* \"#utility.yul\":5392:5401   */\n      add\n        /* \"#utility.yul\":5387:5401   */\n      swap1\n      pop\n        /* \"#utility.yul\":5352:5708   */\n      jump(tag_337)\n    tag_339:\n        /* \"#utility.yul\":5356:5370   */\n      pop\n        /* \"#utility.yul\":5724:5727   */\n      dup6\n        /* \"#utility.yul\":5717:5727   */\n      swap4\n      pop\n        /* \"#utility.yul\":4981:5733   */\n      pop\n      pop\n      pop\n        /* \"#utility.yul\":4809:5733   */\n      swap3\n      swap2\n      pop\n      pop\n      jump\t// out\n        /* \"#utility.yul\":5769:6501   */\n    tag_343:\n        /* \"#utility.yul\":5888:5891   */\n      0x00\n        /* \"#utility.yul\":5917:5971   */\n      tag_345\n        /* \"#utility.yul\":5965:5970   */\n      dup3\n        /* \"#utility.yul\":5917:5971   */\n      tag_346\n      jump\t// in\n    tag_345:\n        /* \"#utility.yul\":5987:6073   */\n      tag_347\n        /* \"#utility.yul\":6066:6072   */\n      dup2\n        /* \"#utility.yul\":6061:6064   */\n      dup6\n        /* \"#utility.yul\":5987:6073   */\n      tag_348\n      jump\t// in\n    tag_347:\n        /* \"#utility.yul\":5980:6073   */\n      swap4\n      pop\n        /* \"#utility.yul\":6097:6153   */\n      tag_349\n        /* \"#utility.yul\":6147:6152   */\n      dup4\n        /* \"#utility.yul\":6097:6153   */\n      tag_350\n      jump\t// in\n    tag_349:\n        /* \"#utility.yul\":6176:6183   */\n      dup1\n        /* \"#utility.yul\":6207:6208   */\n      0x00\n        /* \"#utility.yul\":6192:6476   */\n    tag_351:\n        /* \"#utility.yul\":6217:6223   */\n      dup4\n        /* \"#utility.yul\":6214:6215   */\n      dup2\n        /* \"#utility.yul\":6211:6224   */\n      lt\n        /* \"#utility.yul\":6192:6476   */\n      iszero\n      tag_353\n      jumpi\n        /* \"#utility.yul\":6293:6299   */\n      dup2\n        /* \"#utility.yul\":6287:6300   */\n      mload\n        /* \"#utility.yul\":6320:6383   */\n      tag_354\n        /* \"#utility.yul\":6379:6382   */\n      dup9\n        /* \"#utility.yul\":6364:6377   */\n      dup3\n        /* \"#utility.yul\":6320:6383   */\n      tag_300\n      jump\t// in\n    tag_354:\n        /* \"#utility.yul\":6313:6383   */\n      swap8\n      pop\n        /* \"#utility.yul\":6406:6466   */\n      tag_355\n        /* \"#utility.yul\":6459:6465   */\n      dup4\n        /* \"#utility.yul\":6406:6466   */\n      tag_356\n      jump\t// in\n    tag_355:\n        /* \"#utility.yul\":6396:6466   */\n      swap3\n      pop\n        /* \"#utility.yul\":6252:6476   */\n      pop\n        /* \"#utility.yul\":6239:6240   */\n      0x01\n        /* \"#utility.yul\":6236:6237   */\n      dup2\n        /* \"#utility.yul\":6232:6241   */\n      add\n        /* \"#utility.yul\":6227:6241   */\n      swap1\n      pop\n        /* \"#utility.yul\":6192:6476   */\n      jump(tag_351)\n    tag_353:\n        /* \"#utility.yul\":6196:6210   */\n      pop\n        /* \"#utility.yul\":6492:6495   */\n      dup6\n        /* \"#utility.yul\":6485:6495   */\n      swap4\n      pop\n        /* \"#utility.yul\":5893:6501   */\n      pop\n      pop\n      pop\n        /* \"#utility.yul\":5769:6501   */\n      swap3\n      swap2\n      pop\n      pop\n      jump\t// out\n        /* \"#utility.yul\":6507:6616   */\n    tag_357:\n        /* \"#utility.yul\":6588:6609   */\n      tag_359\n        /* \"#utility.yul\":6603:6608   */\n      dup2\n        /* \"#utility.yul\":6588:6609   */\n      tag_360\n      jump\t// in\n    tag_359:\n        /* \"#utility.yul\":6583:6586   */\n      dup3\n        /* \"#utility.yul\":6576:6610   */\n      mstore\n        /* \"#utility.yul\":6507:6616   */\n      pop\n      pop\n      jump\t// out\n        /* \"#utility.yul\":6622:6781   */\n    tag_361:\n        /* \"#utility.yul\":6723:6774   */\n      tag_363\n        /* \"#utility.yul\":6768:6773   */\n      dup2\n        /* \"#utility.yul\":6723:6774   */\n      tag_364\n      jump\t// in\n    tag_363:\n        /* \"#utility.yul\":6718:6721   */\n      dup3\n        /* \"#utility.yul\":6711:6775   */\n      mstore\n        /* \"#utility.yul\":6622:6781   */\n      pop\n      pop\n      jump\t// out\n        /* \"#utility.yul\":6787:7153   */\n    tag_365:\n        /* \"#utility.yul\":6929:6932   */\n      0x00\n        /* \"#utility.yul\":6950:7017   */\n      tag_367\n        /* \"#utility.yul\":7014:7016   */\n      0x26\n        /* \"#utility.yul\":7009:7012   */\n      dup4\n        /* \"#utility.yul\":6950:7017   */\n      tag_368\n      jump\t// in\n    tag_367:\n        /* \"#utility.yul\":6943:7017   */\n      swap2\n      pop\n        /* \"#utility.yul\":7026:7119   */\n      tag_369\n        /* \"#utility.yul\":7115:7118   */\n      dup3\n        /* \"#utility.yul\":7026:7119   */\n      tag_370\n      jump\t// in\n    tag_369:\n        /* \"#utility.yul\":7144:7146   */\n      0x40\n        /* \"#utility.yul\":7139:7142   */\n      dup3\n        /* \"#utility.yul\":7135:7147   */\n      add\n        /* \"#utility.yul\":7128:7147   */\n      swap1\n      pop\n        /* \"#utility.yul\":6787:7153   */\n      swap2\n      swap1\n      pop\n      jump\t// out\n        /* \"#utility.yul\":7159:7525   */\n    tag_371:\n        /* \"#utility.yul\":7301:7304   */\n      0x00\n        /* \"#utility.yul\":7322:7389   */\n      tag_373\n        /* \"#utility.yul\":7386:7388   */\n      0x18\n        /* \"#utility.yul\":7381:7384   */\n      dup4\n        /* \"#utility.yul\":7322:7389   */\n      tag_368\n      jump\t// in\n    tag_373:\n        /* \"#utility.yul\":7315:7389   */\n      swap2\n      pop\n        /* \"#utility.yul\":7398:7491   */\n      tag_374\n        /* \"#utility.yul\":7487:7490   */\n      dup3\n        /* \"#utility.yul\":7398:7491   */\n      tag_375\n      jump\t// in\n    tag_374:\n        /* \"#utility.yul\":7516:7518   */\n      0x20\n        /* \"#utility.yul\":7511:7514   */\n      dup3\n        /* \"#utility.yul\":7507:7519   */\n      add\n        /* \"#utility.yul\":7500:7519   */\n      swap1\n      pop\n        /* \"#utility.yul\":7159:7525   */\n      swap2\n      swap1\n      pop\n      jump\t// out\n        /* \"#utility.yul\":7531:7897   */\n    tag_376:\n        /* \"#utility.yul\":7673:7676   */\n      0x00\n        /* \"#utility.yul\":7694:7761   */\n      tag_378\n        /* \"#utility.yul\":7758:7760   */\n      0x20\n        /* \"#utility.yul\":7753:7756   */\n      dup4\n        /* \"#utility.yul\":7694:7761   */\n      tag_368\n      jump\t// in\n    tag_378:\n        /* \"#utility.yul\":7687:7761   */\n      swap2\n      pop\n        /* \"#utility.yul\":7770:7863   */\n      tag_379\n        /* \"#utility.yul\":7859:7862   */\n      dup3\n        /* \"#utility.yul\":7770:7863   */\n      tag_380\n      jump\t// in\n    tag_379:\n        /* \"#utility.yul\":7888:7890   */\n      0x20\n        /* \"#utility.yul\":7883:7886   */\n      dup3\n        /* \"#utility.yul\":7879:7891   */\n      add\n        /* \"#utility.yul\":7872:7891   */\n      swap1\n      pop\n        /* \"#utility.yul\":7531:7897   */\n      swap2\n      swap1\n      pop\n      jump\t// out\n        /* \"#utility.yul\":7961:9010   */\n    tag_299:\n        /* \"#utility.yul\":8096:8100   */\n      0xa0\n        /* \"#utility.yul\":8091:8094   */\n      dup3\n        /* \"#utility.yul\":8087:8101   */\n      add\n        /* \"#utility.yul\":8191:8195   */\n      0x00\n        /* \"#utility.yul\":8184:8189   */\n      dup3\n        /* \"#utility.yul\":8180:8196   */\n      add\n        /* \"#utility.yul\":8174:8197   */\n      mload\n        /* \"#utility.yul\":8210:8273   */\n      tag_382\n        /* \"#utility.yul\":8267:8271   */\n      0x00\n        /* \"#utility.yul\":8262:8265   */\n      dup6\n        /* \"#utility.yul\":8258:8272   */\n      add\n        /* \"#utility.yul\":8244:8256   */\n      dup3\n        /* \"#utility.yul\":8210:8273   */\n      tag_303\n      jump\t// in\n    tag_382:\n        /* \"#utility.yul\":8111:8283   */\n      pop\n        /* \"#utility.yul\":8374:8378   */\n      0x20\n        /* \"#utility.yul\":8367:8372   */\n      dup3\n        /* \"#utility.yul\":8363:8379   */\n      add\n        /* \"#utility.yul\":8357:8380   */\n      mload\n        /* \"#utility.yul\":8393:8456   */\n      tag_383\n        /* \"#utility.yul\":8450:8454   */\n      0x20\n        /* \"#utility.yul\":8445:8448   */\n      dup6\n        /* \"#utility.yul\":8441:8455   */\n      add\n        /* \"#utility.yul\":8427:8439   */\n      dup3\n        /* \"#utility.yul\":8393:8456   */\n      tag_303\n      jump\t// in\n    tag_383:\n        /* \"#utility.yul\":8293:8466   */\n      pop\n        /* \"#utility.yul\":8550:8554   */\n      0x40\n        /* \"#utility.yul\":8543:8548   */\n      dup3\n        /* \"#utility.yul\":8539:8555   */\n      add\n        /* \"#utility.yul\":8533:8556   */\n      mload\n        /* \"#utility.yul\":8569:8632   */\n      tag_384\n        /* \"#utility.yul\":8626:8630   */\n      0x40\n        /* \"#utility.yul\":8621:8624   */\n      dup6\n        /* \"#utility.yul\":8617:8631   */\n      add\n        /* \"#utility.yul\":8603:8615   */\n      dup3\n        /* \"#utility.yul\":8569:8632   */\n      tag_303\n      jump\t// in\n    tag_384:\n        /* \"#utility.yul\":8476:8642   */\n      pop\n        /* \"#utility.yul\":8727:8731   */\n      0x60\n        /* \"#utility.yul\":8720:8725   */\n      dup3\n        /* \"#utility.yul\":8716:8732   */\n      add\n        /* \"#utility.yul\":8710:8733   */\n      mload\n        /* \"#utility.yul\":8746:8809   */\n      tag_385\n        /* \"#utility.yul\":8803:8807   */\n      0x60\n        /* \"#utility.yul\":8798:8801   */\n      dup6\n        /* \"#utility.yul\":8794:8808   */\n      add\n        /* \"#utility.yul\":8780:8792   */\n      dup3\n        /* \"#utility.yul\":8746:8809   */\n      tag_303\n      jump\t// in\n    tag_385:\n        /* \"#utility.yul\":8652:8819   */\n      pop\n        /* \"#utility.yul\":8911:8915   */\n      0x80\n        /* \"#utility.yul\":8904:8909   */\n      dup3\n        /* \"#utility.yul\":8900:8916   */\n      add\n        /* \"#utility.yul\":8894:8917   */\n      mload\n        /* \"#utility.yul\":8930:8993   */\n      tag_386\n        /* \"#utility.yul\":8987:8991   */\n      0x80\n        /* \"#utility.yul\":8982:8985   */\n      dup6\n        /* \"#utility.yul\":8978:8992   */\n      add\n        /* \"#utility.yul\":8964:8976   */\n      dup3\n        /* \"#utility.yul\":8930:8993   */\n      tag_295\n      jump\t// in\n    tag_386:\n        /* \"#utility.yul\":8829:9003   */\n      pop\n        /* \"#utility.yul\":8065:9010   */\n      pop\n        /* \"#utility.yul\":7961:9010   */\n      pop\n      pop\n      jump\t// out\n        /* \"#utility.yul\":9016:9124   */\n    tag_303:\n        /* \"#utility.yul\":9093:9117   */\n      tag_388\n        /* \"#utility.yul\":9111:9116   */\n      dup2\n        /* \"#utility.yul\":9093:9117   */\n      tag_389\n      jump\t// in\n    tag_388:\n        /* \"#utility.yul\":9088:9091   */\n      dup3\n        /* \"#utility.yul\":9081:9118   */\n      mstore\n        /* \"#utility.yul\":9016:9124   */\n      pop\n      pop\n      jump\t// out\n        /* \"#utility.yul\":9130:9248   */\n    tag_390:\n        /* \"#utility.yul\":9217:9241   */\n      tag_392\n        /* \"#utility.yul\":9235:9240   */\n      dup2\n        /* \"#utility.yul\":9217:9241   */\n      tag_389\n      jump\t// in\n    tag_392:\n        /* \"#utility.yul\":9212:9215   */\n      dup3\n        /* \"#utility.yul\":9205:9242   */\n      mstore\n        /* \"#utility.yul\":9130:9248   */\n      pop\n      pop\n      jump\t// out\n        /* \"#utility.yul\":9254:9411   */\n    tag_393:\n        /* \"#utility.yul\":9359:9404   */\n      tag_395\n        /* \"#utility.yul\":9379:9403   */\n      tag_396\n        /* \"#utility.yul\":9397:9402   */\n      dup3\n        /* \"#utility.yul\":9379:9403   */\n      tag_389\n      jump\t// in\n    tag_396:\n        /* \"#utility.yul\":9359:9404   */\n      tag_397\n      jump\t// in\n    tag_395:\n        /* \"#utility.yul\":9354:9357   */\n      dup3\n        /* \"#utility.yul\":9347:9405   */\n      mstore\n        /* \"#utility.yul\":9254:9411   */\n      pop\n      pop\n      jump\t// out\n        /* \"#utility.yul\":9417:10096   */\n    tag_247:\n        /* \"#utility.yul\":9613:9616   */\n      0x00\n        /* \"#utility.yul\":9628:9703   */\n      tag_399\n        /* \"#utility.yul\":9699:9702   */\n      dup3\n        /* \"#utility.yul\":9690:9696   */\n      dup8\n        /* \"#utility.yul\":9628:9703   */\n      tag_393\n      jump\t// in\n    tag_399:\n        /* \"#utility.yul\":9728:9730   */\n      0x20\n        /* \"#utility.yul\":9723:9726   */\n      dup3\n        /* \"#utility.yul\":9719:9731   */\n      add\n        /* \"#utility.yul\":9712:9731   */\n      swap2\n      pop\n        /* \"#utility.yul\":9741:9816   */\n      tag_400\n        /* \"#utility.yul\":9812:9815   */\n      dup3\n        /* \"#utility.yul\":9803:9809   */\n      dup7\n        /* \"#utility.yul\":9741:9816   */\n      tag_393\n      jump\t// in\n    tag_400:\n        /* \"#utility.yul\":9841:9843   */\n      0x20\n        /* \"#utility.yul\":9836:9839   */\n      dup3\n        /* \"#utility.yul\":9832:9844   */\n      add\n        /* \"#utility.yul\":9825:9844   */\n      swap2\n      pop\n        /* \"#utility.yul\":9854:9929   */\n      tag_401\n        /* \"#utility.yul\":9925:9928   */\n      dup3\n        /* \"#utility.yul\":9916:9922   */\n      dup6\n        /* \"#utility.yul\":9854:9929   */\n      tag_310\n      jump\t// in\n    tag_401:\n        /* \"#utility.yul\":9954:9956   */\n      0x14\n        /* \"#utility.yul\":9949:9952   */\n      dup3\n        /* \"#utility.yul\":9945:9957   */\n      add\n        /* \"#utility.yul\":9938:9957   */\n      swap2\n      pop\n        /* \"#utility.yul\":9967:10042   */\n      tag_402\n        /* \"#utility.yul\":10038:10041   */\n      dup3\n        /* \"#utility.yul\":10029:10035   */\n      dup5\n        /* \"#utility.yul\":9967:10042   */\n      tag_393\n      jump\t// in\n    tag_402:\n        /* \"#utility.yul\":10067:10069   */\n      0x20\n        /* \"#utility.yul\":10062:10065   */\n      dup3\n        /* \"#utility.yul\":10058:10070   */\n      add\n        /* \"#utility.yul\":10051:10070   */\n      swap2\n      pop\n        /* \"#utility.yul\":10087:10090   */\n      dup2\n        /* \"#utility.yul\":10080:10090   */\n      swap1\n      pop\n        /* \"#utility.yul\":9417:10096   */\n      swap6\n      swap5\n      pop\n      pop\n      pop\n      pop\n      pop\n      jump\t// out\n        /* \"#utility.yul\":10102:10324   */\n    tag_64:\n        /* \"#utility.yul\":10195:10199   */\n      0x00\n        /* \"#utility.yul\":10233:10235   */\n      0x20\n        /* \"#utility.yul\":10222:10231   */\n      dup3\n        /* \"#utility.yul\":10218:10236   */\n      add\n        /* \"#utility.yul\":10210:10236   */\n      swap1\n      pop\n        /* \"#utility.yul\":10246:10317   */\n      tag_404\n        /* \"#utility.yul\":10314:10315   */\n      0x00\n        /* \"#utility.yul\":10303:10312   */\n      dup4\n        /* \"#utility.yul\":10299:10316   */\n      add\n        /* \"#utility.yul\":10290:10296   */\n      dup5\n        /* \"#utility.yul\":10246:10317   */\n      tag_307\n      jump\t// in\n    tag_404:\n        /* \"#utility.yul\":10102:10324   */\n      swap3\n      swap2\n      pop\n      pop\n      jump\t// out\n        /* \"#utility.yul\":10330:10662   */\n    tag_168:\n        /* \"#utility.yul\":10451:10455   */\n      0x00\n        /* \"#utility.yul\":10489:10491   */\n      0x40\n        /* \"#utility.yul\":10478:10487   */\n      dup3\n        /* \"#utility.yul\":10474:10492   */\n      add\n        /* \"#utility.yul\":10466:10492   */\n      swap1\n      pop\n        /* \"#utility.yul\":10502:10573   */\n      tag_406\n        /* \"#utility.yul\":10570:10571   */\n      0x00\n        /* \"#utility.yul\":10559:10568   */\n      dup4\n        /* \"#utility.yul\":10555:10572   */\n      add\n        /* \"#utility.yul\":10546:10552   */\n      dup6\n        /* \"#utility.yul\":10502:10573   */\n      tag_307\n      jump\t// in\n    tag_406:\n        /* \"#utility.yul\":10583:10655   */\n      tag_407\n        /* \"#utility.yul\":10651:10653   */\n      0x20\n        /* \"#utility.yul\":10640:10649   */\n      dup4\n        /* \"#utility.yul\":10636:10654   */\n      add\n        /* \"#utility.yul\":10627:10633   */\n      dup5\n        /* \"#utility.yul\":10583:10655   */\n      tag_390\n      jump\t// in\n    tag_407:\n        /* \"#utility.yul\":10330:10662   */\n      swap4\n      swap3\n      pop\n      pop\n      pop\n      jump\t// out\n        /* \"#utility.yul\":10668:11302   */\n    tag_41:\n        /* \"#utility.yul\":10889:10893   */\n      0x00\n        /* \"#utility.yul\":10927:10929   */\n      0x40\n        /* \"#utility.yul\":10916:10925   */\n      dup3\n        /* \"#utility.yul\":10912:10930   */\n      add\n        /* \"#utility.yul\":10904:10930   */\n      swap1\n      pop\n        /* \"#utility.yul\":10976:10985   */\n      dup2\n        /* \"#utility.yul\":10970:10974   */\n      dup2\n        /* \"#utility.yul\":10966:10986   */\n      sub\n        /* \"#utility.yul\":10962:10963   */\n      0x00\n        /* \"#utility.yul\":10951:10960   */\n      dup4\n        /* \"#utility.yul\":10947:10964   */\n      add\n        /* \"#utility.yul\":10940:10987   */\n      mstore\n        /* \"#utility.yul\":11004:11112   */\n      tag_409\n        /* \"#utility.yul\":11107:11111   */\n      dup2\n        /* \"#utility.yul\":11098:11104   */\n      dup6\n        /* \"#utility.yul\":11004:11112   */\n      tag_315\n      jump\t// in\n    tag_409:\n        /* \"#utility.yul\":10996:11112   */\n      swap1\n      pop\n        /* \"#utility.yul\":11159:11168   */\n      dup2\n        /* \"#utility.yul\":11153:11157   */\n      dup2\n        /* \"#utility.yul\":11149:11169   */\n      sub\n        /* \"#utility.yul\":11144:11146   */\n      0x20\n        /* \"#utility.yul\":11133:11142   */\n      dup4\n        /* \"#utility.yul\":11129:11147   */\n      add\n        /* \"#utility.yul\":11122:11170   */\n      mstore\n        /* \"#utility.yul\":11187:11295   */\n      tag_410\n        /* \"#utility.yul\":11290:11294   */\n      dup2\n        /* \"#utility.yul\":11281:11287   */\n      dup5\n        /* \"#utility.yul\":11187:11295   */\n      tag_343\n      jump\t// in\n    tag_410:\n        /* \"#utility.yul\":11179:11295   */\n      swap1\n      pop\n        /* \"#utility.yul\":10668:11302   */\n      swap4\n      swap3\n      pop\n      pop\n      pop\n      jump\t// out\n        /* \"#utility.yul\":11308:11777   */\n    tag_91:\n        /* \"#utility.yul\":11499:11503   */\n      0x00\n        /* \"#utility.yul\":11537:11539   */\n      0x20\n        /* \"#utility.yul\":11526:11535   */\n      dup3\n        /* \"#utility.yul\":11522:11540   */\n      add\n        /* \"#utility.yul\":11514:11540   */\n      swap1\n      pop\n        /* \"#utility.yul\":11586:11595   */\n      dup2\n        /* \"#utility.yul\":11580:11584   */\n      dup2\n        /* \"#utility.yul\":11576:11596   */\n      sub\n        /* \"#utility.yul\":11572:11573   */\n      0x00\n        /* \"#utility.yul\":11561:11570   */\n      dup4\n        /* \"#utility.yul\":11557:11574   */\n      add\n        /* \"#utility.yul\":11550:11597   */\n      mstore\n        /* \"#utility.yul\":11614:11770   */\n      tag_412\n        /* \"#utility.yul\":11765:11769   */\n      dup2\n        /* \"#utility.yul\":11756:11762   */\n      dup5\n        /* \"#utility.yul\":11614:11770   */\n      tag_329\n      jump\t// in\n    tag_412:\n        /* \"#utility.yul\":11606:11770   */\n      swap1\n      pop\n        /* \"#utility.yul\":11308:11777   */\n      swap3\n      swap2\n      pop\n      pop\n      jump\t// out\n        /* \"#utility.yul\":11783:11993   */\n    tag_53:\n        /* \"#utility.yul\":11870:11874   */\n      0x00\n        /* \"#utility.yul\":11908:11910   */\n      0x20\n        /* \"#utility.yul\":11897:11906   */\n      dup3\n        /* \"#utility.yul\":11893:11911   */\n      add\n        /* \"#utility.yul\":11885:11911   */\n      swap1\n      pop\n        /* \"#utility.yul\":11921:11986   */\n      tag_414\n        /* \"#utility.yul\":11983:11984   */\n      0x00\n        /* \"#utility.yul\":11972:11981   */\n      dup4\n        /* \"#utility.yul\":11968:11985   */\n      add\n        /* \"#utility.yul\":11959:11965   */\n      dup5\n        /* \"#utility.yul\":11921:11986   */\n      tag_357\n      jump\t// in\n    tag_414:\n        /* \"#utility.yul\":11783:11993   */\n      swap3\n      swap2\n      pop\n      pop\n      jump\t// out\n        /* \"#utility.yul\":11999:12249   */\n    tag_68:\n        /* \"#utility.yul\":12106:12110   */\n      0x00\n        /* \"#utility.yul\":12144:12146   */\n      0x20\n        /* \"#utility.yul\":12133:12142   */\n      dup3\n        /* \"#utility.yul\":12129:12147   */\n      add\n        /* \"#utility.yul\":12121:12147   */\n      swap1\n      pop\n        /* \"#utility.yul\":12157:12242   */\n      tag_416\n        /* \"#utility.yul\":12239:12240   */\n      0x00\n        /* \"#utility.yul\":12228:12237   */\n      dup4\n        /* \"#utility.yul\":12224:12241   */\n      add\n        /* \"#utility.yul\":12215:12221   */\n      dup5\n        /* \"#utility.yul\":12157:12242   */\n      tag_361\n      jump\t// in\n    tag_416:\n        /* \"#utility.yul\":11999:12249   */\n      swap3\n      swap2\n      pop\n      pop\n      jump\t// out\n        /* \"#utility.yul\":12255:12674   */\n    tag_235:\n        /* \"#utility.yul\":12421:12425   */\n      0x00\n        /* \"#utility.yul\":12459:12461   */\n      0x20\n        /* \"#utility.yul\":12448:12457   */\n      dup3\n        /* \"#utility.yul\":12444:12462   */\n      add\n        /* \"#utility.yul\":12436:12462   */\n      swap1\n      pop\n        /* \"#utility.yul\":12508:12517   */\n      dup2\n        /* \"#utility.yul\":12502:12506   */\n      dup2\n        /* \"#utility.yul\":12498:12518   */\n      sub\n        /* \"#utility.yul\":12494:12495   */\n      0x00\n        /* \"#utility.yul\":12483:12492   */\n      dup4\n        /* \"#utility.yul\":12479:12496   */\n      add\n        /* \"#utility.yul\":12472:12519   */\n      mstore\n        /* \"#utility.yul\":12536:12667   */\n      tag_418\n        /* \"#utility.yul\":12662:12666   */\n      dup2\n        /* \"#utility.yul\":12536:12667   */\n      tag_365\n      jump\t// in\n    tag_418:\n        /* \"#utility.yul\":12528:12667   */\n      swap1\n      pop\n        /* \"#utility.yul\":12255:12674   */\n      swap2\n      swap1\n      pop\n      jump\t// out\n        /* \"#utility.yul\":12680:13099   */\n    tag_160:\n        /* \"#utility.yul\":12846:12850   */\n      0x00\n        /* \"#utility.yul\":12884:12886   */\n      0x20\n        /* \"#utility.yul\":12873:12882   */\n      dup3\n        /* \"#utility.yul\":12869:12887   */\n      add\n        /* \"#utility.yul\":12861:12887   */\n      swap1\n      pop\n        /* \"#utility.yul\":12933:12942   */\n      dup2\n        /* \"#utility.yul\":12927:12931   */\n      dup2\n        /* \"#utility.yul\":12923:12943   */\n      sub\n        /* \"#utility.yul\":12919:12920   */\n      0x00\n        /* \"#utility.yul\":12908:12917   */\n      dup4\n        /* \"#utility.yul\":12904:12921   */\n      add\n        /* \"#utility.yul\":12897:12944   */\n      mstore\n        /* \"#utility.yul\":12961:13092   */\n      tag_420\n        /* \"#utility.yul\":13087:13091   */\n      dup2\n        /* \"#utility.yul\":12961:13092   */\n      tag_371\n      jump\t// in\n    tag_420:\n        /* \"#utility.yul\":12953:13092   */\n      swap1\n      pop\n        /* \"#utility.yul\":12680:13099   */\n      swap2\n      swap1\n      pop\n      jump\t// out\n        /* \"#utility.yul\":13105:13524   */\n    tag_155:\n        /* \"#utility.yul\":13271:13275   */\n      0x00\n        /* \"#utility.yul\":13309:13311   */\n      0x20\n        /* \"#utility.yul\":13298:13307   */\n      dup3\n        /* \"#utility.yul\":13294:13312   */\n      add\n        /* \"#utility.yul\":13286:13312   */\n      swap1\n      pop\n        /* \"#utility.yul\":13358:13367   */\n      dup2\n        /* \"#utility.yul\":13352:13356   */\n      dup2\n        /* \"#utility.yul\":13348:13368   */\n      sub\n        /* \"#utility.yul\":13344:13345   */\n      0x00\n        /* \"#utility.yul\":13333:13342   */\n      dup4\n        /* \"#utility.yul\":13329:13346   */\n      add\n        /* \"#utility.yul\":13322:13369   */\n      mstore\n        /* \"#utility.yul\":13386:13517   */\n      tag_422\n        /* \"#utility.yul\":13512:13516   */\n      dup2\n        /* \"#utility.yul\":13386:13517   */\n      tag_376\n      jump\t// in\n    tag_422:\n        /* \"#utility.yul\":13378:13517   */\n      swap1\n      pop\n        /* \"#utility.yul\":13105:13524   */\n      swap2\n      swap1\n      pop\n      jump\t// out\n        /* \"#utility.yul\":13530:13752   */\n    tag_31:\n        /* \"#utility.yul\":13623:13627   */\n      0x00\n        /* \"#utility.yul\":13661:13663   */\n      0x20\n        /* \"#utility.yul\":13650:13659   */\n      dup3\n        /* \"#utility.yul\":13646:13664   */\n      add\n        /* \"#utility.yul\":13638:13664   */\n      swap1\n      pop\n        /* \"#utility.yul\":13674:13745   */\n      tag_424\n        /* \"#utility.yul\":13742:13743   */\n      0x00\n        /* \"#utility.yul\":13731:13740   */\n      dup4\n        /* \"#utility.yul\":13727:13744   */\n      add\n        /* \"#utility.yul\":13718:13724   */\n      dup5\n        /* \"#utility.yul\":13674:13745   */\n      tag_390\n      jump\t// in\n    tag_424:\n        /* \"#utility.yul\":13530:13752   */\n      swap3\n      swap2\n      pop\n      pop\n      jump\t// out\n        /* \"#utility.yul\":13758:14422   */\n    tag_81:\n        /* \"#utility.yul\":13963:13967   */\n      0x00\n        /* \"#utility.yul\":14001:14004   */\n      0xa0\n        /* \"#utility.yul\":13990:13999   */\n      dup3\n        /* \"#utility.yul\":13986:14005   */\n      add\n        /* \"#utility.yul\":13978:14005   */\n      swap1\n      pop\n        /* \"#utility.yul\":14015:14086   */\n      tag_426\n        /* \"#utility.yul\":14083:14084   */\n      0x00\n        /* \"#utility.yul\":14072:14081   */\n      dup4\n        /* \"#utility.yul\":14068:14085   */\n      add\n        /* \"#utility.yul\":14059:14065   */\n      dup9\n        /* \"#utility.yul\":14015:14086   */\n      tag_390\n      jump\t// in\n    tag_426:\n        /* \"#utility.yul\":14096:14168   */\n      tag_427\n        /* \"#utility.yul\":14164:14166   */\n      0x20\n        /* \"#utility.yul\":14153:14162   */\n      dup4\n        /* \"#utility.yul\":14149:14167   */\n      add\n        /* \"#utility.yul\":14140:14146   */\n      dup8\n        /* \"#utility.yul\":14096:14168   */\n      tag_390\n      jump\t// in\n    tag_427:\n        /* \"#utility.yul\":14178:14250   */\n      tag_428\n        /* \"#utility.yul\":14246:14248   */\n      0x40\n        /* \"#utility.yul\":14235:14244   */\n      dup4\n        /* \"#utility.yul\":14231:14249   */\n      add\n        /* \"#utility.yul\":14222:14228   */\n      dup7\n        /* \"#utility.yul\":14178:14250   */\n      tag_390\n      jump\t// in\n    tag_428:\n        /* \"#utility.yul\":14260:14332   */\n      tag_429\n        /* \"#utility.yul\":14328:14330   */\n      0x60\n        /* \"#utility.yul\":14317:14326   */\n      dup4\n        /* \"#utility.yul\":14313:14331   */\n      add\n        /* \"#utility.yul\":14304:14310   */\n      dup6\n        /* \"#utility.yul\":14260:14332   */\n      tag_390\n      jump\t// in\n    tag_429:\n        /* \"#utility.yul\":14342:14415   */\n      tag_430\n        /* \"#utility.yul\":14410:14413   */\n      0x80\n        /* \"#utility.yul\":14399:14408   */\n      dup4\n        /* \"#utility.yul\":14395:14414   */\n      add\n        /* \"#utility.yul\":14386:14392   */\n      dup5\n        /* \"#utility.yul\":14342:14415   */\n      tag_307\n      jump\t// in\n    tag_430:\n        /* \"#utility.yul\":13758:14422   */\n      swap7\n      swap6\n      pop\n      pop\n      pop\n      pop\n      pop\n      pop\n      jump\t// out\n        /* \"#utility.yul\":14509:14641   */\n    tag_322:\n        /* \"#utility.yul\":14576:14580   */\n      0x00\n        /* \"#utility.yul\":14599:14602   */\n      dup2\n        /* \"#utility.yul\":14591:14602   */\n      swap1\n      pop\n        /* \"#utility.yul\":14629:14633   */\n      0x20\n        /* \"#utility.yul\":14624:14627   */\n      dup3\n        /* \"#utility.yul\":14620:14634   */\n      add\n        /* \"#utility.yul\":14612:14634   */\n      swap1\n      pop\n        /* \"#utility.yul\":14509:14641   */\n      swap2\n      swap1\n      pop\n      jump\t// out\n        /* \"#utility.yul\":14647:14803   */\n    tag_336:\n        /* \"#utility.yul\":14738:14742   */\n      0x00\n        /* \"#utility.yul\":14761:14764   */\n      dup2\n        /* \"#utility.yul\":14753:14764   */\n      swap1\n      pop\n        /* \"#utility.yul\":14791:14795   */\n      0x20\n        /* \"#utility.yul\":14786:14789   */\n      dup3\n        /* \"#utility.yul\":14782:14796   */\n      add\n        /* \"#utility.yul\":14774:14796   */\n      swap1\n      pop\n        /* \"#utility.yul\":14647:14803   */\n      swap2\n      swap1\n      pop\n      jump\t// out\n        /* \"#utility.yul\":14809:14941   */\n    tag_350:\n        /* \"#utility.yul\":14876:14880   */\n      0x00\n        /* \"#utility.yul\":14899:14902   */\n      dup2\n        /* \"#utility.yul\":14891:14902   */\n      swap1\n      pop\n        /* \"#utility.yul\":14929:14933   */\n      0x20\n        /* \"#utility.yul\":14924:14927   */\n      dup3\n        /* \"#utility.yul\":14920:14934   */\n      add\n        /* \"#utility.yul\":14912:14934   */\n      swap1\n      pop\n        /* \"#utility.yul\":14809:14941   */\n      swap2\n      swap1\n      pop\n      jump\t// out\n        /* \"#utility.yul\":14947:15061   */\n    tag_318:\n        /* \"#utility.yul\":15014:15020   */\n      0x00\n        /* \"#utility.yul\":15048:15053   */\n      dup2\n        /* \"#utility.yul\":15042:15054   */\n      mload\n        /* \"#utility.yul\":15032:15054   */\n      swap1\n      pop\n        /* \"#utility.yul\":14947:15061   */\n      swap2\n      swap1\n      pop\n      jump\t// out\n        /* \"#utility.yul\":15067:15205   */\n    tag_332:\n        /* \"#utility.yul\":15158:15164   */\n      0x00\n        /* \"#utility.yul\":15192:15197   */\n      dup2\n        /* \"#utility.yul\":15186:15198   */\n      mload\n        /* \"#utility.yul\":15176:15198   */\n      swap1\n      pop\n        /* \"#utility.yul\":15067:15205   */\n      swap2\n      swap1\n      pop\n      jump\t// out\n        /* \"#utility.yul\":15211:15325   */\n    tag_346:\n        /* \"#utility.yul\":15278:15284   */\n      0x00\n        /* \"#utility.yul\":15312:15317   */\n      dup2\n        /* \"#utility.yul\":15306:15318   */\n      mload\n        /* \"#utility.yul\":15296:15318   */\n      swap1\n      pop\n        /* \"#utility.yul\":15211:15325   */\n      swap2\n      swap1\n      pop\n      jump\t// out\n        /* \"#utility.yul\":15331:15444   */\n    tag_328:\n        /* \"#utility.yul\":15401:15405   */\n      0x00\n        /* \"#utility.yul\":15433:15437   */\n      0x20\n        /* \"#utility.yul\":15428:15431   */\n      dup3\n        /* \"#utility.yul\":15424:15438   */\n      add\n        /* \"#utility.yul\":15416:15438   */\n      swap1\n      pop\n        /* \"#utility.yul\":15331:15444   */\n      swap2\n      swap1\n      pop\n      jump\t// out\n        /* \"#utility.yul\":15450:15587   */\n    tag_342:\n        /* \"#utility.yul\":15544:15548   */\n      0x00\n        /* \"#utility.yul\":15576:15580   */\n      0x20\n        /* \"#utility.yul\":15571:15574   */\n      dup3\n        /* \"#utility.yul\":15567:15581   */\n      add\n        /* \"#utility.yul\":15559:15581   */\n      swap1\n      pop\n        /* \"#utility.yul\":15450:15587   */\n      swap2\n      swap1\n      pop\n      jump\t// out\n        /* \"#utility.yul\":15593:15706   */\n    tag_356:\n        /* \"#utility.yul\":15663:15667   */\n      0x00\n        /* \"#utility.yul\":15695:15699   */\n      0x20\n        /* \"#utility.yul\":15690:15693   */\n      dup3\n        /* \"#utility.yul\":15686:15700   */\n      add\n        /* \"#utility.yul\":15678:15700   */\n      swap1\n      pop\n        /* \"#utility.yul\":15593:15706   */\n      swap2\n      swap1\n      pop\n      jump\t// out\n        /* \"#utility.yul\":15712:15896   */\n    tag_320:\n        /* \"#utility.yul\":15811:15822   */\n      0x00\n        /* \"#utility.yul\":15845:15851   */\n      dup3\n        /* \"#utility.yul\":15840:15843   */\n      dup3\n        /* \"#utility.yul\":15833:15852   */\n      mstore\n        /* \"#utility.yul\":15885:15889   */\n      0x20\n        /* \"#utility.yul\":15880:15883   */\n      dup3\n        /* \"#utility.yul\":15876:15890   */\n      add\n        /* \"#utility.yul\":15861:15890   */\n      swap1\n      pop\n        /* \"#utility.yul\":15712:15896   */\n      swap3\n      swap2\n      pop\n      pop\n      jump\t// out\n        /* \"#utility.yul\":15902:16110   */\n    tag_334:\n        /* \"#utility.yul\":16025:16036   */\n      0x00\n        /* \"#utility.yul\":16059:16065   */\n      dup3\n        /* \"#utility.yul\":16054:16057   */\n      dup3\n        /* \"#utility.yul\":16047:16066   */\n      mstore\n        /* \"#utility.yul\":16099:16103   */\n      0x20\n        /* \"#utility.yul\":16094:16097   */\n      dup3\n        /* \"#utility.yul\":16090:16104   */\n      add\n        /* \"#utility.yul\":16075:16104   */\n      swap1\n      pop\n        /* \"#utility.yul\":15902:16110   */\n      swap3\n      swap2\n      pop\n      pop\n      jump\t// out\n        /* \"#utility.yul\":16116:16300   */\n    tag_348:\n        /* \"#utility.yul\":16215:16226   */\n      0x00\n        /* \"#utility.yul\":16249:16255   */\n      dup3\n        /* \"#utility.yul\":16244:16247   */\n      dup3\n        /* \"#utility.yul\":16237:16256   */\n      mstore\n        /* \"#utility.yul\":16289:16293   */\n      0x20\n        /* \"#utility.yul\":16284:16287   */\n      dup3\n        /* \"#utility.yul\":16280:16294   */\n      add\n        /* \"#utility.yul\":16265:16294   */\n      swap1\n      pop\n        /* \"#utility.yul\":16116:16300   */\n      swap3\n      swap2\n      pop\n      pop\n      jump\t// out\n        /* \"#utility.yul\":16306:16475   */\n    tag_368:\n        /* \"#utility.yul\":16390:16401   */\n      0x00\n        /* \"#utility.yul\":16424:16430   */\n      dup3\n        /* \"#utility.yul\":16419:16422   */\n      dup3\n        /* \"#utility.yul\":16412:16431   */\n      mstore\n        /* \"#utility.yul\":16464:16468   */\n      0x20\n        /* \"#utility.yul\":16459:16462   */\n      dup3\n        /* \"#utility.yul\":16455:16469   */\n      add\n        /* \"#utility.yul\":16440:16469   */\n      swap1\n      pop\n        /* \"#utility.yul\":16306:16475   */\n      swap3\n      swap2\n      pop\n      pop\n      jump\t// out\n        /* \"#utility.yul\":16481:16786   */\n    tag_142:\n        /* \"#utility.yul\":16521:16524   */\n      0x00\n        /* \"#utility.yul\":16540:16560   */\n      tag_447\n        /* \"#utility.yul\":16558:16559   */\n      dup3\n        /* \"#utility.yul\":16540:16560   */\n      tag_389\n      jump\t// in\n    tag_447:\n        /* \"#utility.yul\":16535:16560   */\n      swap2\n      pop\n        /* \"#utility.yul\":16574:16594   */\n      tag_448\n        /* \"#utility.yul\":16592:16593   */\n      dup4\n        /* \"#utility.yul\":16574:16594   */\n      tag_389\n      jump\t// in\n    tag_448:\n        /* \"#utility.yul\":16569:16594   */\n      swap3\n      pop\n        /* \"#utility.yul\":16728:16729   */\n      dup3\n        /* \"#utility.yul\":16660:16726   */\n      0xffffffffffffffffffffffffffffffffffffffffffffffffffffffffffffffff\n        /* \"#utility.yul\":16656:16730   */\n      sub\n        /* \"#utility.yul\":16653:16654   */\n      dup3\n        /* \"#utility.yul\":16650:16731   */\n      gt\n        /* \"#utility.yul\":16647:16754   */\n      iszero\n      tag_449\n      jumpi\n        /* \"#utility.yul\":16734:16752   */\n      tag_450\n      tag_451\n      jump\t// in\n    tag_450:\n        /* \"#utility.yul\":16647:16754   */\n    tag_449:\n        /* \"#utility.yul\":16778:16779   */\n      dup3\n        /* \"#utility.yul\":16775:16776   */\n      dup3\n        /* \"#utility.yul\":16771:16780   */\n      add\n        /* \"#utility.yul\":16764:16780   */\n      swap1\n      pop\n        /* \"#utility.yul\":16481:16786   */\n      swap3\n      swap2\n      pop\n      pop\n      jump\t// out\n        /* \"#utility.yul\":16792:16983   */\n    tag_194:\n        /* \"#utility.yul\":16832:16836   */\n      0x00\n        /* \"#utility.yul\":16852:16872   */\n      tag_453\n        /* \"#utility.yul\":16870:16871   */\n      dup3\n        /* \"#utility.yul\":16852:16872   */\n      tag_389\n      jump\t// in\n    tag_453:\n        /* \"#utility.yul\":16847:16872   */\n      swap2\n      pop\n        /* \"#utility.yul\":16886:16906   */\n      tag_454\n        /* \"#utility.yul\":16904:16905   */\n      dup4\n        /* \"#utility.yul\":16886:16906   */\n      tag_389\n      jump\t// in\n    tag_454:\n        /* \"#utility.yul\":16881:16906   */\n      swap3\n      pop\n        /* \"#utility.yul\":16925:16926   */\n      dup3\n        /* \"#utility.yul\":16922:16923   */\n      dup3\n        /* \"#utility.yul\":16919:16927   */\n      lt\n        /* \"#utility.yul\":16916:16950   */\n      iszero\n      tag_455\n      jumpi\n        /* \"#utility.yul\":16930:16948   */\n      tag_456\n      tag_451\n      jump\t// in\n    tag_456:\n        /* \"#utility.yul\":16916:16950   */\n    tag_455:\n        /* \"#utility.yul\":16975:16976   */\n      dup3\n        /* \"#utility.yul\":16972:16973   */\n      dup3\n        /* \"#utility.yul\":16968:16977   */\n      sub\n        /* \"#utility.yul\":16960:16977   */\n      swap1\n      pop\n        /* \"#utility.yul\":16792:16983   */\n      swap3\n      swap2\n      pop\n      pop\n      jump\t// out\n        /* \"#utility.yul\":16989:17085   */\n    tag_306:\n        /* \"#utility.yul\":17026:17033   */\n      0x00\n        /* \"#utility.yul\":17055:17079   */\n      tag_458\n        /* \"#utility.yul\":17073:17078   */\n      dup3\n        /* \"#utility.yul\":17055:17079   */\n      tag_459\n      jump\t// in\n    tag_458:\n        /* \"#utility.yul\":17044:17079   */\n      swap1\n      pop\n        /* \"#utility.yul\":16989:17085   */\n      swap2\n      swap1\n      pop\n      jump\t// out\n        /* \"#utility.yul\":17091:17181   */\n    tag_360:\n        /* \"#utility.yul\":17125:17132   */\n      0x00\n        /* \"#utility.yul\":17168:17173   */\n      dup2\n        /* \"#utility.yul\":17161:17174   */\n      iszero\n        /* \"#utility.yul\":17154:17175   */\n      iszero\n        /* \"#utility.yul\":17143:17175   */\n      swap1\n      pop\n        /* \"#utility.yul\":17091:17181   */\n      swap2\n      swap1\n      pop\n      jump\t// out\n        /* \"#utility.yul\":17187:17313   */\n    tag_459:\n        /* \"#utility.yul\":17224:17231   */\n      0x00\n        /* \"#utility.yul\":17264:17306   */\n      0xffffffffffffffffffffffffffffffffffffffff\n        /* \"#utility.yul\":17257:17262   */\n      dup3\n        /* \"#utility.yul\":17253:17307   */\n      and\n        /* \"#utility.yul\":17242:17307   */\n      swap1\n      pop\n        /* \"#utility.yul\":17187:17313   */\n      swap2\n      swap1\n      pop\n      jump\t// out\n        /* \"#utility.yul\":17319:17396   */\n    tag_389:\n        /* \"#utility.yul\":17356:17363   */\n      0x00\n        /* \"#utility.yul\":17385:17390   */\n      dup2\n        /* \"#utility.yul\":17374:17390   */\n      swap1\n      pop\n        /* \"#utility.yul\":17319:17396   */\n      swap2\n      swap1\n      pop\n      jump\t// out\n        /* \"#utility.yul\":17402:17542   */\n    tag_364:\n        /* \"#utility.yul\":17466:17475   */\n      0x00\n        /* \"#utility.yul\":17499:17536   */\n      tag_464\n        /* \"#utility.yul\":17530:17535   */\n      dup3\n        /* \"#utility.yul\":17499:17536   */\n      tag_465\n      jump\t// in\n    tag_464:\n        /* \"#utility.yul\":17486:17536   */\n      swap1\n      pop\n        /* \"#utility.yul\":17402:17542   */\n      swap2\n      swap1\n      pop\n      jump\t// out\n        /* \"#utility.yul\":17548:17674   */\n    tag_465:\n        /* \"#utility.yul\":17598:17607   */\n      0x00\n        /* \"#utility.yul\":17631:17668   */\n      tag_467\n        /* \"#utility.yul\":17662:17667   */\n      dup3\n        /* \"#utility.yul\":17631:17668   */\n      tag_468\n      jump\t// in\n    tag_467:\n        /* \"#utility.yul\":17618:17668   */\n      swap1\n      pop\n        /* \"#utility.yul\":17548:17674   */\n      swap2\n      swap1\n      pop\n      jump\t// out\n        /* \"#utility.yul\":17680:17793   */\n    tag_468:\n        /* \"#utility.yul\":17730:17739   */\n      0x00\n        /* \"#utility.yul\":17763:17787   */\n      tag_470\n        /* \"#utility.yul\":17781:17786   */\n      dup3\n        /* \"#utility.yul\":17763:17787   */\n      tag_459\n      jump\t// in\n    tag_470:\n        /* \"#utility.yul\":17750:17787   */\n      swap1\n      pop\n        /* \"#utility.yul\":17680:17793   */\n      swap2\n      swap1\n      pop\n      jump\t// out\n        /* \"#utility.yul\":17799:18032   */\n    tag_113:\n        /* \"#utility.yul\":17838:17841   */\n      0x00\n        /* \"#utility.yul\":17861:17885   */\n      tag_472\n        /* \"#utility.yul\":17879:17884   */\n      dup3\n        /* \"#utility.yul\":17861:17885   */\n      tag_389\n      jump\t// in\n    tag_472:\n        /* \"#utility.yul\":17852:17885   */\n      swap2\n      pop\n        /* \"#utility.yul\":17907:17973   */\n      0xffffffffffffffffffffffffffffffffffffffffffffffffffffffffffffffff\n        /* \"#utility.yul\":17900:17905   */\n      dup3\n        /* \"#utility.yul\":17897:17974   */\n      eq\n        /* \"#utility.yul\":17894:17997   */\n      iszero\n      tag_473\n      jumpi\n        /* \"#utility.yul\":17977:17995   */\n      tag_474\n      tag_451\n      jump\t// in\n    tag_474:\n        /* \"#utility.yul\":17894:17997   */\n    tag_473:\n        /* \"#utility.yul\":18024:18025   */\n      0x01\n        /* \"#utility.yul\":18017:18022   */\n      dup3\n        /* \"#utility.yul\":18013:18026   */\n      add\n        /* \"#utility.yul\":18006:18026   */\n      swap1\n      pop\n        /* \"#utility.yul\":17799:18032   */\n      swap2\n      swap1\n      pop\n      jump\t// out\n        /* \"#utility.yul\":18038:18138   */\n    tag_314:\n        /* \"#utility.yul\":18077:18084   */\n      0x00\n        /* \"#utility.yul\":18106:18132   */\n      tag_476\n        /* \"#utility.yul\":18126:18131   */\n      dup3\n        /* \"#utility.yul\":18106:18132   */\n      tag_477\n      jump\t// in\n    tag_476:\n        /* \"#utility.yul\":18095:18132   */\n      swap1\n      pop\n        /* \"#utility.yul\":18038:18138   */\n      swap2\n      swap1\n      pop\n      jump\t// out\n        /* \"#utility.yul\":18144:18238   */\n    tag_477:\n        /* \"#utility.yul\":18183:18190   */\n      0x00\n        /* \"#utility.yul\":18212:18232   */\n      tag_479\n        /* \"#utility.yul\":18226:18231   */\n      dup3\n        /* \"#utility.yul\":18212:18232   */\n      tag_480\n      jump\t// in\n    tag_479:\n        /* \"#utility.yul\":18201:18232   */\n      swap1\n      pop\n        /* \"#utility.yul\":18144:18238   */\n      swap2\n      swap1\n      pop\n      jump\t// out\n        /* \"#utility.yul\":18244:18323   */\n    tag_397:\n        /* \"#utility.yul\":18283:18290   */\n      0x00\n        /* \"#utility.yul\":18312:18317   */\n      dup2\n        /* \"#utility.yul\":18301:18317   */\n      swap1\n      pop\n        /* \"#utility.yul\":18244:18323   */\n      swap2\n      swap1\n      pop\n      jump\t// out\n        /* \"#utility.yul\":18329:18505   */\n    tag_164:\n        /* \"#utility.yul\":18361:18362   */\n      0x00\n        /* \"#utility.yul\":18378:18398   */\n      tag_483\n        /* \"#utility.yul\":18396:18397   */\n      dup3\n        /* \"#utility.yul\":18378:18398   */\n      tag_389\n      jump\t// in\n    tag_483:\n        /* \"#utility.yul\":18373:18398   */\n      swap2\n      pop\n        /* \"#utility.yul\":18412:18432   */\n      tag_484\n        /* \"#utility.yul\":18430:18431   */\n      dup4\n        /* \"#utility.yul\":18412:18432   */\n      tag_389\n      jump\t// in\n    tag_484:\n        /* \"#utility.yul\":18407:18432   */\n      swap3\n      pop\n        /* \"#utility.yul\":18451:18452   */\n      dup3\n        /* \"#utility.yul\":18441:18476   */\n      tag_485\n      jumpi\n        /* \"#utility.yul\":18456:18474   */\n      tag_486\n      tag_487\n      jump\t// in\n    tag_486:\n        /* \"#utility.yul\":18441:18476   */\n    tag_485:\n        /* \"#utility.yul\":18497:18498   */\n      dup3\n        /* \"#utility.yul\":18494:18495   */\n      dup3\n        /* \"#utility.yul\":18490:18499   */\n      mod\n        /* \"#utility.yul\":18485:18499   */\n      swap1\n      pop\n        /* \"#utility.yul\":18329:18505   */\n      swap3\n      swap2\n      pop\n      pop\n      jump\t// out\n        /* \"#utility.yul\":18511:18691   */\n    tag_451:\n        /* \"#utility.yul\":18559:18636   */\n      0x4e487b7100000000000000000000000000000000000000000000000000000000\n        /* \"#utility.yul\":18556:18557   */\n      0x00\n        /* \"#utility.yul\":18549:18637   */\n      mstore\n        /* \"#utility.yul\":18656:18660   */\n      0x11\n        /* \"#utility.yul\":18653:18654   */\n      0x04\n        /* \"#utility.yul\":18646:18661   */\n      mstore\n        /* \"#utility.yul\":18680:18684   */\n      0x24\n        /* \"#utility.yul\":18677:18678   */\n      0x00\n        /* \"#utility.yul\":18670:18685   */\n      revert\n        /* \"#utility.yul\":18697:18877   */\n    tag_487:\n        /* \"#utility.yul\":18745:18822   */\n      0x4e487b7100000000000000000000000000000000000000000000000000000000\n        /* \"#utility.yul\":18742:18743   */\n      0x00\n        /* \"#utility.yul\":18735:18823   */\n      mstore\n        /* \"#utility.yul\":18842:18846   */\n      0x12\n        /* \"#utility.yul\":18839:18840   */\n      0x04\n        /* \"#utility.yul\":18832:18847   */\n      mstore\n        /* \"#utility.yul\":18866:18870   */\n      0x24\n        /* \"#utility.yul\":18863:18864   */\n      0x00\n        /* \"#utility.yul\":18856:18871   */\n      revert\n        /* \"#utility.yul\":18883:19063   */\n    tag_201:\n        /* \"#utility.yul\":18931:19008   */\n      0x4e487b7100000000000000000000000000000000000000000000000000000000\n        /* \"#utility.yul\":18928:18929   */\n      0x00\n        /* \"#utility.yul\":18921:19009   */\n      mstore\n        /* \"#utility.yul\":19028:19032   */\n      0x31\n        /* \"#utility.yul\":19025:19026   */\n      0x04\n        /* \"#utility.yul\":19018:19033   */\n      mstore\n        /* \"#utility.yul\":19052:19056   */\n      0x24\n        /* \"#utility.yul\":19049:19050   */\n      0x00\n        /* \"#utility.yul\":19042:19057   */\n      revert\n        /* \"#utility.yul\":19069:19249   */\n    tag_109:\n        /* \"#utility.yul\":19117:19194   */\n      0x4e487b7100000000000000000000000000000000000000000000000000000000\n        /* \"#utility.yul\":19114:19115   */\n      0x00\n        /* \"#utility.yul\":19107:19195   */\n      mstore\n        /* \"#utility.yul\":19214:19218   */\n      0x32\n        /* \"#utility.yul\":19211:19212   */\n      0x04\n        /* \"#utility.yul\":19204:19219   */\n      mstore\n        /* \"#utility.yul\":19238:19242   */\n      0x24\n        /* \"#utility.yul\":19235:19236   */\n      0x00\n        /* \"#utility.yul\":19228:19243   */\n      revert\n        /* \"#utility.yul\":19255:19435   */\n    tag_119:\n        /* \"#utility.yul\":19303:19380   */\n      0x4e487b7100000000000000000000000000000000000000000000000000000000\n        /* \"#utility.yul\":19300:19301   */\n      0x00\n        /* \"#utility.yul\":19293:19381   */\n      mstore\n        /* \"#utility.yul\":19400:19404   */\n      0x41\n        /* \"#utility.yul\":19397:19398   */\n      0x04\n        /* \"#utility.yul\":19390:19405   */\n      mstore\n        /* \"#utility.yul\":19424:19428   */\n      0x24\n        /* \"#utility.yul\":19421:19422   */\n      0x00\n        /* \"#utility.yul\":19414:19429   */\n      revert\n        /* \"#utility.yul\":19564:19681   */\n    tag_268:\n        /* \"#utility.yul\":19673:19674   */\n      0x00\n        /* \"#utility.yul\":19670:19671   */\n      dup1\n        /* \"#utility.yul\":19663:19675   */\n      revert\n        /* \"#utility.yul\":19687:19781   */\n    tag_480:\n        /* \"#utility.yul\":19720:19728   */\n      0x00\n        /* \"#utility.yul\":19768:19773   */\n      dup2\n        /* \"#utility.yul\":19764:19766   */\n      0x60\n        /* \"#utility.yul\":19760:19774   */\n      shl\n        /* \"#utility.yul\":19739:19774   */\n      swap1\n      pop\n        /* \"#utility.yul\":19687:19781   */\n      swap2\n      swap1\n      pop\n      jump\t// out\n        /* \"#utility.yul\":19787:20012   */\n    tag_370:\n        /* \"#utility.yul\":19927:19961   */\n      0x4f776e61626c653a206e6577206f776e657220697320746865207a65726f2061\n        /* \"#utility.yul\":19923:19924   */\n      0x00\n        /* \"#utility.yul\":19915:19921   */\n      dup3\n        /* \"#utility.yul\":19911:19925   */\n      add\n        /* \"#utility.yul\":19904:19962   */\n      mstore\n        /* \"#utility.yul\":19996:20004   */\n      0x6464726573730000000000000000000000000000000000000000000000000000\n        /* \"#utility.yul\":19991:19993   */\n      0x20\n        /* \"#utility.yul\":19983:19989   */\n      dup3\n        /* \"#utility.yul\":19979:19994   */\n      add\n        /* \"#utility.yul\":19972:20005   */\n      mstore\n        /* \"#utility.yul\":19787:20012   */\n      pop\n      jump\t// out\n        /* \"#utility.yul\":20018:20192   */\n    tag_375:\n        /* \"#utility.yul\":20158:20184   */\n      0x4e6f7420656e6f7567682066756e647320746f20647261770000000000000000\n        /* \"#utility.yul\":20154:20155   */\n      0x00\n        /* \"#utility.yul\":20146:20152   */\n      dup3\n        /* \"#utility.yul\":20142:20156   */\n      add\n        /* \"#utility.yul\":20135:20185   */\n      mstore\n        /* \"#utility.yul\":20018:20192   */\n      pop\n      jump\t// out\n        /* \"#utility.yul\":20198:20380   */\n    tag_380:\n        /* \"#utility.yul\":20338:20372   */\n      0x4f776e61626c653a2063616c6c6572206973206e6f7420746865206f776e6572\n        /* \"#utility.yul\":20334:20335   */\n      0x00\n        /* \"#utility.yul\":20326:20332   */\n      dup3\n        /* \"#utility.yul\":20322:20336   */\n      add\n        /* \"#utility.yul\":20315:20373   */\n      mstore\n        /* \"#utility.yul\":20198:20380   */\n      pop\n      jump\t// out\n        /* \"#utility.yul\":20386:20508   */\n    tag_253:\n        /* \"#utility.yul\":20459:20483   */\n      tag_501\n        /* \"#utility.yul\":20477:20482   */\n      dup2\n        /* \"#utility.yul\":20459:20483   */\n      tag_306\n      jump\t// in\n    tag_501:\n        /* \"#utility.yul\":20452:20457   */\n      dup2\n        /* \"#utility.yul\":20449:20484   */\n      eq\n        /* \"#utility.yul\":20439:20502   */\n      tag_502\n      jumpi\n        /* \"#utility.yul\":20498:20499   */\n      0x00\n        /* \"#utility.yul\":20495:20496   */\n      dup1\n        /* \"#utility.yul\":20488:20500   */\n      revert\n        /* \"#utility.yul\":20439:20502   */\n    tag_502:\n        /* \"#utility.yul\":20386:20508   */\n      pop\n      jump\t// out\n        /* \"#utility.yul\":20514:20630   */\n    tag_257:\n        /* \"#utility.yul\":20584:20605   */\n      tag_504\n        /* \"#utility.yul\":20599:20604   */\n      dup2\n        /* \"#utility.yul\":20584:20605   */\n      tag_360\n      jump\t// in\n    tag_504:\n        /* \"#utility.yul\":20577:20582   */\n      dup2\n        /* \"#utility.yul\":20574:20606   */\n      eq\n        /* \"#utility.yul\":20564:20624   */\n      tag_505\n      jumpi\n        /* \"#utility.yul\":20620:20621   */\n      0x00\n        /* \"#utility.yul\":20617:20618   */\n      dup1\n        /* \"#utility.yul\":20610:20622   */\n      revert\n        /* \"#utility.yul\":20564:20624   */\n    tag_505:\n        /* \"#utility.yul\":20514:20630   */\n      pop\n      jump\t// out\n        /* \"#utility.yul\":20636:20758   */\n    tag_261:\n        /* \"#utility.yul\":20709:20733   */\n      tag_507\n        /* \"#utility.yul\":20727:20732   */\n      dup2\n        /* \"#utility.yul\":20709:20733   */\n      tag_389\n      jump\t// in\n    tag_507:\n        /* \"#utility.yul\":20702:20707   */\n      dup2\n        /* \"#utility.yul\":20699:20734   */\n      eq\n        /* \"#utility.yul\":20689:20752   */\n      tag_508\n      jumpi\n        /* \"#utility.yul\":20748:20749   */\n      0x00\n        /* \"#utility.yul\":20745:20746   */\n      dup1\n        /* \"#utility.yul\":20738:20750   */\n      revert\n        /* \"#utility.yul\":20689:20752   */\n    tag_508:\n        /* \"#utility.yul\":20636:20758   */\n      pop\n      jump\t// out\n\n    auxdata: 0xa2646970667358221220e644cd283359e41d9c73b2a7b53a1adc4e55526dac2ec433698954f5295df11164736f6c63430008070033\n}\n",
				"bytecode": {
					"linkReferences": {},
					"object": "60806040523480156200001157600080fd5b506040516200205b3803806200205b833981810160405281019062000037919062000182565b620000576200004b6200009f60201b60201c565b620000a760201b60201c565b80600460006101000a81548173ffffffffffffffffffffffffffffffffffffffff021916908373ffffffffffffffffffffffffffffffffffffffff1602179055505062000207565b600033905090565b60008060009054906101000a900473ffffffffffffffffffffffffffffffffffffffff169050816000806101000a81548173ffffffffffffffffffffffffffffffffffffffff021916908373ffffffffffffffffffffffffffffffffffffffff1602179055508173ffffffffffffffffffffffffffffffffffffffff168173ffffffffffffffffffffffffffffffffffffffff167f8be0079c531659141344cd1fd0a4f28419497f9722a3daafe3b4186f6b6457e060405160405180910390a35050565b6000815190506200017c81620001ed565b92915050565b6000602082840312156200019b576200019a620001e8565b5b6000620001ab848285016200016b565b91505092915050565b6000620001c182620001c8565b9050919050565b600073ffffffffffffffffffffffffffffffffffffffff82169050919050565b600080fd5b620001f881620001b4565b81146200020457600080fd5b50565b611e4480620002176000396000f3fe608060405234801561001057600080fd5b506004361061012c5760003560e01c80638da5cb5b116100ad578063b657dd6511610071578063b657dd6514610314578063bc15cdf014610344578063c4740a9514610374578063f2fde38b14610390578063f9cee0bd146103ac5761012c565b80638da5cb5b146102585780639b3e4552146102765780639f10a99014610294578063a59460dc146102c4578063ac128f4f146102e05761012c565b8063454f7b8f116100f4578063454f7b8f146101d85780635bedc390146101f65780635d495aea14610226578063715018a61461023057806376636d201461023a5761012c565b80630d98827014610131578063119b22b314610161578063158977de1461017f5780633b98bc651461019d578063443b80a1146101bc575b600080fd5b61014b6004803603810190610146919061140e565b6103ca565b6040516101589190611951565b60405180910390f35b6101696103fb565b6040516101769190611951565b60405180910390f35b610187610401565b6040516101949190611951565b60405180910390f35b6101a56104d2565b6040516101b3929190611862565b60405180910390f35b6101d660048036038101906101d1919061140e565b6106fb565b005b6101e0610809565b6040516101ed9190611951565b60405180910390f35b610210600480360381019061020b91906113e1565b61080f565b60405161021d91906118bb565b60405180910390f35b61022e610829565b005b610238610b30565b005b610242610bb8565b60405161024f9190611951565b60405180910390f35b610260610bbe565b60405161026d919061181e565b60405180910390f35b61027e610be7565b60405161028b91906118d6565b60405180910390f35b6102ae60048036038101906102a991906113e1565b610c0d565b6040516102bb9190611951565b60405180910390f35b6102de60048036038101906102d9919061140e565b610c59565b005b6102fa60048036038101906102f5919061147b565b610e68565b60405161030b95949392919061196c565b60405180910390f35b61032e6004803603810190610329919061147b565b610ebe565b60405161033b919061181e565b60405180910390f35b61035e600480360381019061035991906114d5565b610ef1565b60405161036b9190611899565b60405180910390f35b61038e600480360381019061038991906113e1565b61107e565b005b6103aa60048036038101906103a591906113e1565b611099565b005b6103b4611191565b6040516103c19190611951565b60405180910390f35b600760205281600052604060002081815481106103e657600080fd5b90600052602060002001600091509150505481565b60025481565b6000805b6001548110156104ce5760006006600083815260200190815260200160002060009054906101000a900473ffffffffffffffffffffffffffffffffffffffff169050600760008273ffffffffffffffffffffffffffffffffffffffff1673ffffffffffffffffffffffffffffffffffffffff16815260200190815260200160002060008154811061049957610498611cb8565b5b90600052602060002001548214156104ba5782806104b690611b83565b9350505b5080806104c690611b83565b915050610405565b5090565b60608060006104df610401565b90508067ffffffffffffffff8111156104fb576104fa611ce7565b5b6040519080825280602002602001820160405280156105295781602001602082028036833780820191505090505b5092508067ffffffffffffffff81111561054657610545611ce7565b5b6040519080825280602002602001820160405280156105745781602001602082028036833780820191505090505b5091506000805b6001548110156106f45760006006600083815260200190815260200160002060009054906101000a900473ffffffffffffffffffffffffffffffffffffffff169050600760008273ffffffffffffffffffffffffffffffffffffffff1673ffffffffffffffffffffffffffffffffffffffff16815260200190815260200160002060008154811061060f5761060e611cb8565b5b90600052602060002001548214156106e0578086848151811061063557610634611cb8565b5b602002602001019073ffffffffffffffffffffffffffffffffffffffff16908173ffffffffffffffffffffffffffffffffffffffff1681525050600760008273ffffffffffffffffffffffffffffffffffffffff1673ffffffffffffffffffffffffffffffffffffffff168152602001908152602001600020805490508584815181106106c5576106c4611cb8565b5b60200260200101818152505082806106dc90611b83565b9350505b5080806106ec90611b83565b91505061057b565b5050509091565b60005b818110156107eb578260066000836001546107199190611a7b565b815260200190815260200160002060006101000a81548173ffffffffffffffffffffffffffffffffffffffff021916908373ffffffffffffffffffffffffffffffffffffffff160217905550600760008473ffffffffffffffffffffffffffffffffffffffff1673ffffffffffffffffffffffffffffffffffffffff168152602001908152602001600020816001546107b29190611a7b565b908060018154018082558091505060019003906000526020600020016000909190919091505580806107e390611b83565b9150506106fe565b5080600160008282546107fe9190611a7b565b925050819055505050565b60035481565b60008061081b83610c0d565b905060008111915050919050565b610831611243565b73ffffffffffffffffffffffffffffffffffffffff1661084f610bbe565b73ffffffffffffffffffffffffffffffffffffffff16146108a5576040517f08c379a000000000000000000000000000000000000000000000000000000000815260040161089c90611931565b60405180910390fd5b60006108af611191565b90506544364c5bb0008110156108fa576040517f08c379a00000000000000000000000000000000000000000000000000000000081526004016108f190611911565b60405180910390fd5b600060015461090761124b565b6109119190611bfa565b905060006006600083815260200190815260200160002060009054906101000a900473ffffffffffffffffffffffffffffffffffffffff1690506040518060a0016040528060015481526020018381526020018481526020014281526020018273ffffffffffffffffffffffffffffffffffffffff168152506005600060025481526020019081526020016000206000820151816000015560208201518160010155604082015181600201556060820151816003015560808201518160040160006101000a81548173ffffffffffffffffffffffffffffffffffffffff021916908373ffffffffffffffffffffffffffffffffffffffff1602179055509050508260036000828254610a239190611a7b565b9250508190555060026000815480929190610a3d90611b83565b9190505550600460009054906101000a900473ffffffffffffffffffffffffffffffffffffffff1673ffffffffffffffffffffffffffffffffffffffff1663a9059cbb82856040518363ffffffff1660e01b8152600401610a9f929190611839565b602060405180830381600087803b158015610ab957600080fd5b505af1158015610acd573d6000803e3d6000fd5b505050506040513d601f19601f82011682018060405250810190610af1919061144e565b507f2e798dd4337e515c79b64c40e1a93baa1aefbd9180ac7905e02508edd7971e508184604051610b23929190611839565b60405180910390a1505050565b610b38611243565b73ffffffffffffffffffffffffffffffffffffffff16610b56610bbe565b73ffffffffffffffffffffffffffffffffffffffff1614610bac576040517f08c379a0000000000000000000000000000000000000000000000000000000008152600401610ba390611931565b60405180910390fd5b610bb66000611284565b565b60015481565b60008060009054906101000a900473ffffffffffffffffffffffffffffffffffffffff16905090565b600460009054906101000a900473ffffffffffffffffffffffffffffffffffffffff1681565b6000600760008373ffffffffffffffffffffffffffffffffffffffff1673ffffffffffffffffffffffffffffffffffffffff168152602001908152602001600020805490509050919050565b6000610c6483610c0d565b90506000811415610c755750610e64565b80821115610c81578091505b6000600190505b828111610e48576000600760008673ffffffffffffffffffffffffffffffffffffffff1673ffffffffffffffffffffffffffffffffffffffff1681526020019081526020016000206001600760008873ffffffffffffffffffffffffffffffffffffffff1673ffffffffffffffffffffffffffffffffffffffff16815260200190815260200160002080549050610d1f9190611ad1565b81548110610d3057610d2f611cb8565b5b906000526020600020015490506006600083600154610d4f9190611ad1565b815260200190815260200160002060009054906101000a900473ffffffffffffffffffffffffffffffffffffffff166006600083815260200190815260200160002060006101000a81548173ffffffffffffffffffffffffffffffffffffffff021916908373ffffffffffffffffffffffffffffffffffffffff160217905550600760008673ffffffffffffffffffffffffffffffffffffffff1673ffffffffffffffffffffffffffffffffffffffff168152602001908152602001600020805480610e1e57610e1d611c89565b5b60019003818190600052602060002001600090559055508080610e4090611b83565b915050610c88565b508160016000828254610e5b9190611ad1565b92505081905550505b5050565b60056020528060005260406000206000915090508060000154908060010154908060020154908060030154908060040160009054906101000a900473ffffffffffffffffffffffffffffffffffffffff16905085565b60066020528060005260406000206000915054906101000a900473ffffffffffffffffffffffffffffffffffffffff1681565b60606002548210610f0e576001600254610f0b9190611ad1565b91505b600060018484610f1e9190611ad1565b610f289190611a7b565b905060008167ffffffffffffffff811115610f4657610f45611ce7565b5b604051908082528060200260200182016040528015610f7f57816020015b610f6c611348565b815260200190600190039081610f645790505b50925060008590505b84811161107557600560008288610f9f9190611a7b565b81526020019081526020016000206040518060a0016040529081600082015481526020016001820154815260200160028201548152602001600382015481526020016004820160009054906101000a900473ffffffffffffffffffffffffffffffffffffffff1673ffffffffffffffffffffffffffffffffffffffff1673ffffffffffffffffffffffffffffffffffffffff168152505084838151811061104957611048611cb8565b5b6020026020010181905250818061105f90611b83565b925050808061106d90611b83565b915050610f88565b50505092915050565b600061108982610c0d565b90506110958282610c59565b5050565b6110a1611243565b73ffffffffffffffffffffffffffffffffffffffff166110bf610bbe565b73ffffffffffffffffffffffffffffffffffffffff1614611115576040517f08c379a000000000000000000000000000000000000000000000000000000000815260040161110c90611931565b60405180910390fd5b600073ffffffffffffffffffffffffffffffffffffffff168173ffffffffffffffffffffffffffffffffffffffff161415611185576040517f08c379a000000000000000000000000000000000000000000000000000000000815260040161117c906118f1565b60405180910390fd5b61118e81611284565b50565b6000600460009054906101000a900473ffffffffffffffffffffffffffffffffffffffff1673ffffffffffffffffffffffffffffffffffffffff166370a08231306040518263ffffffff1660e01b81526004016111ee919061181e565b60206040518083038186803b15801561120657600080fd5b505afa15801561121a573d6000803e3d6000fd5b505050506040513d601f19601f8201168201806040525081019061123e91906114a8565b905090565b600033905090565b6000425a3360035460405160200161126694939291906117d0565b6040516020818303038152906040528051906020012060001c905090565b60008060009054906101000a900473ffffffffffffffffffffffffffffffffffffffff169050816000806101000a81548173ffffffffffffffffffffffffffffffffffffffff021916908373ffffffffffffffffffffffffffffffffffffffff1602179055508173ffffffffffffffffffffffffffffffffffffffff168173ffffffffffffffffffffffffffffffffffffffff167f8be0079c531659141344cd1fd0a4f28419497f9722a3daafe3b4186f6b6457e060405160405180910390a35050565b6040518060a0016040528060008152602001600081526020016000815260200160008152602001600073ffffffffffffffffffffffffffffffffffffffff1681525090565b60008135905061139c81611dc9565b92915050565b6000815190506113b181611de0565b92915050565b6000813590506113c681611df7565b92915050565b6000815190506113db81611df7565b92915050565b6000602082840312156113f7576113f6611d16565b5b60006114058482850161138d565b91505092915050565b6000806040838503121561142557611424611d16565b5b60006114338582860161138d565b9250506020611444858286016113b7565b9150509250929050565b60006020828403121561146457611463611d16565b5b6000611472848285016113a2565b91505092915050565b60006020828403121561149157611490611d16565b5b600061149f848285016113b7565b91505092915050565b6000602082840312156114be576114bd611d16565b5b60006114cc848285016113cc565b91505092915050565b600080604083850312156114ec576114eb611d16565b5b60006114fa858286016113b7565b925050602061150b858286016113b7565b9150509250929050565b6000611521838361155d565b60208301905092915050565b60006115398383611733565b60a08301905092915050565b6000611551838361179b565b60208301905092915050565b61156681611b05565b82525050565b61157581611b05565b82525050565b61158c61158782611b05565b611bcc565b82525050565b600061159d826119ef565b6115a78185611a37565b93506115b2836119bf565b8060005b838110156115e35781516115ca8882611515565b97506115d583611a10565b9250506001810190506115b6565b5085935050505092915050565b60006115fb826119fa565b6116058185611a48565b9350611610836119cf565b8060005b83811015611641578151611628888261152d565b975061163383611a1d565b925050600181019050611614565b5085935050505092915050565b600061165982611a05565b6116638185611a59565b935061166e836119df565b8060005b8381101561169f5781516116868882611545565b975061169183611a2a565b925050600181019050611672565b5085935050505092915050565b6116b581611b17565b82525050565b6116c481611b4d565b82525050565b60006116d7602683611a6a565b91506116e282611d28565b604082019050919050565b60006116fa601883611a6a565b915061170582611d77565b602082019050919050565b600061171d602083611a6a565b915061172882611da0565b602082019050919050565b60a082016000820151611749600085018261179b565b50602082015161175c602085018261179b565b50604082015161176f604085018261179b565b506060820151611782606085018261179b565b506080820151611795608085018261155d565b50505050565b6117a481611b43565b82525050565b6117b381611b43565b82525050565b6117ca6117c582611b43565b611bf0565b82525050565b60006117dc82876117b9565b6020820191506117ec82866117b9565b6020820191506117fc828561157b565b60148201915061180c82846117b9565b60208201915081905095945050505050565b6000602082019050611833600083018461156c565b92915050565b600060408201905061184e600083018561156c565b61185b60208301846117aa565b9392505050565b6000604082019050818103600083015261187c8185611592565b90508181036020830152611890818461164e565b90509392505050565b600060208201905081810360008301526118b381846115f0565b905092915050565b60006020820190506118d060008301846116ac565b92915050565b60006020820190506118eb60008301846116bb565b92915050565b6000602082019050818103600083015261190a816116ca565b9050919050565b6000602082019050818103600083015261192a816116ed565b9050919050565b6000602082019050818103600083015261194a81611710565b9050919050565b600060208201905061196660008301846117aa565b92915050565b600060a08201905061198160008301886117aa565b61198e60208301876117aa565b61199b60408301866117aa565b6119a860608301856117aa565b6119b5608083018461156c565b9695505050505050565b6000819050602082019050919050565b6000819050602082019050919050565b6000819050602082019050919050565b600081519050919050565b600081519050919050565b600081519050919050565b6000602082019050919050565b6000602082019050919050565b6000602082019050919050565b600082825260208201905092915050565b600082825260208201905092915050565b600082825260208201905092915050565b600082825260208201905092915050565b6000611a8682611b43565b9150611a9183611b43565b9250827fffffffffffffffffffffffffffffffffffffffffffffffffffffffffffffffff03821115611ac657611ac5611c2b565b5b828201905092915050565b6000611adc82611b43565b9150611ae783611b43565b925082821015611afa57611af9611c2b565b5b828203905092915050565b6000611b1082611b23565b9050919050565b60008115159050919050565b600073ffffffffffffffffffffffffffffffffffffffff82169050919050565b6000819050919050565b6000611b5882611b5f565b9050919050565b6000611b6a82611b71565b9050919050565b6000611b7c82611b23565b9050919050565b6000611b8e82611b43565b91507fffffffffffffffffffffffffffffffffffffffffffffffffffffffffffffffff821415611bc157611bc0611c2b565b5b600182019050919050565b6000611bd782611bde565b9050919050565b6000611be982611d1b565b9050919050565b6000819050919050565b6000611c0582611b43565b9150611c1083611b43565b925082611c2057611c1f611c5a565b5b828206905092915050565b7f4e487b7100000000000000000000000000000000000000000000000000000000600052601160045260246000fd5b7f4e487b7100000000000000000000000000000000000000000000000000000000600052601260045260246000fd5b7f4e487b7100000000000000000000000000000000000000000000000000000000600052603160045260246000fd5b7f4e487b7100000000000000000000000000000000000000000000000000000000600052603260045260246000fd5b7f4e487b7100000000000000000000000000000000000000000000000000000000600052604160045260246000fd5b600080fd5b60008160601b9050919050565b7f4f776e61626c653a206e6577206f776e657220697320746865207a65726f206160008201527f6464726573730000000000000000000000000000000000000000000000000000602082015250565b7f4e6f7420656e6f7567682066756e647320746f20647261770000000000000000600082015250565b7f4f776e61626c653a2063616c6c6572206973206e6f7420746865206f776e6572600082015250565b611dd281611b05565b8114611ddd57600080fd5b50565b611de981611b17565b8114611df457600080fd5b50565b611e0081611b43565b8114611e0b57600080fd5b5056fea2646970667358221220e644cd283359e41d9c73b2a7b53a1adc4e55526dac2ec433698954f5295df11164736f6c63430008070033",
					"opcodes": "PUSH1 0x80 PUSH1 0x40 MSTORE CALLVALUE DUP1 ISZERO PUSH3 0x11 JUMPI PUSH1 0x0 DUP1 REVERT JUMPDEST POP PUSH1 0x40 MLOAD PUSH3 0x205B CODESIZE SUB DUP1 PUSH3 0x205B DUP4 CODECOPY DUP2 DUP2 ADD PUSH1 0x40 MSTORE DUP2 ADD SWAP1 PUSH3 0x37 SWAP2 SWAP1 PUSH3 0x182 JUMP JUMPDEST PUSH3 0x57 PUSH3 0x4B PUSH3 0x9F PUSH1 0x20 SHL PUSH1 0x20 SHR JUMP JUMPDEST PUSH3 0xA7 PUSH1 0x20 SHL PUSH1 0x20 SHR JUMP JUMPDEST DUP1 PUSH1 0x4 PUSH1 0x0 PUSH2 0x100 EXP DUP2 SLOAD DUP2 PUSH20 0xFFFFFFFFFFFFFFFFFFFFFFFFFFFFFFFFFFFFFFFF MUL NOT AND SWAP1 DUP4 PUSH20 0xFFFFFFFFFFFFFFFFFFFFFFFFFFFFFFFFFFFFFFFF AND MUL OR SWAP1 SSTORE POP POP PUSH3 0x207 JUMP JUMPDEST PUSH1 0x0 CALLER SWAP1 POP SWAP1 JUMP JUMPDEST PUSH1 0x0 DUP1 PUSH1 0x0 SWAP1 SLOAD SWAP1 PUSH2 0x100 EXP SWAP1 DIV PUSH20 0xFFFFFFFFFFFFFFFFFFFFFFFFFFFFFFFFFFFFFFFF AND SWAP1 POP DUP2 PUSH1 0x0 DUP1 PUSH2 0x100 EXP DUP2 SLOAD DUP2 PUSH20 0xFFFFFFFFFFFFFFFFFFFFFFFFFFFFFFFFFFFFFFFF MUL NOT AND SWAP1 DUP4 PUSH20 0xFFFFFFFFFFFFFFFFFFFFFFFFFFFFFFFFFFFFFFFF AND MUL OR SWAP1 SSTORE POP DUP2 PUSH20 0xFFFFFFFFFFFFFFFFFFFFFFFFFFFFFFFFFFFFFFFF AND DUP2 PUSH20 0xFFFFFFFFFFFFFFFFFFFFFFFFFFFFFFFFFFFFFFFF AND PUSH32 0x8BE0079C531659141344CD1FD0A4F28419497F9722A3DAAFE3B4186F6B6457E0 PUSH1 0x40 MLOAD PUSH1 0x40 MLOAD DUP1 SWAP2 SUB SWAP1 LOG3 POP POP JUMP JUMPDEST PUSH1 0x0 DUP2 MLOAD SWAP1 POP PUSH3 0x17C DUP2 PUSH3 0x1ED JUMP JUMPDEST SWAP3 SWAP2 POP POP JUMP JUMPDEST PUSH1 0x0 PUSH1 0x20 DUP3 DUP5 SUB SLT ISZERO PUSH3 0x19B JUMPI PUSH3 0x19A PUSH3 0x1E8 JUMP JUMPDEST JUMPDEST PUSH1 0x0 PUSH3 0x1AB DUP5 DUP3 DUP6 ADD PUSH3 0x16B JUMP JUMPDEST SWAP2 POP POP SWAP3 SWAP2 POP POP JUMP JUMPDEST PUSH1 0x0 PUSH3 0x1C1 DUP3 PUSH3 0x1C8 JUMP JUMPDEST SWAP1 POP SWAP2 SWAP1 POP JUMP JUMPDEST PUSH1 0x0 PUSH20 0xFFFFFFFFFFFFFFFFFFFFFFFFFFFFFFFFFFFFFFFF DUP3 AND SWAP1 POP SWAP2 SWAP1 POP JUMP JUMPDEST PUSH1 0x0 DUP1 REVERT JUMPDEST PUSH3 0x1F8 DUP2 PUSH3 0x1B4 JUMP JUMPDEST DUP2 EQ PUSH3 0x204 JUMPI PUSH1 0x0 DUP1 REVERT JUMPDEST POP JUMP JUMPDEST PUSH2 0x1E44 DUP1 PUSH3 0x217 PUSH1 0x0 CODECOPY PUSH1 0x0 RETURN INVALID PUSH1 0x80 PUSH1 0x40 MSTORE CALLVALUE DUP1 ISZERO PUSH2 0x10 JUMPI PUSH1 0x0 DUP1 REVERT JUMPDEST POP PUSH1 0x4 CALLDATASIZE LT PUSH2 0x12C JUMPI PUSH1 0x0 CALLDATALOAD PUSH1 0xE0 SHR DUP1 PUSH4 0x8DA5CB5B GT PUSH2 0xAD JUMPI DUP1 PUSH4 0xB657DD65 GT PUSH2 0x71 JUMPI DUP1 PUSH4 0xB657DD65 EQ PUSH2 0x314 JUMPI DUP1 PUSH4 0xBC15CDF0 EQ PUSH2 0x344 JUMPI DUP1 PUSH4 0xC4740A95 EQ PUSH2 0x374 JUMPI DUP1 PUSH4 0xF2FDE38B EQ PUSH2 0x390 JUMPI DUP1 PUSH4 0xF9CEE0BD EQ PUSH2 0x3AC JUMPI PUSH2 0x12C JUMP JUMPDEST DUP1 PUSH4 0x8DA5CB5B EQ PUSH2 0x258 JUMPI DUP1 PUSH4 0x9B3E4552 EQ PUSH2 0x276 JUMPI DUP1 PUSH4 0x9F10A990 EQ PUSH2 0x294 JUMPI DUP1 PUSH4 0xA59460DC EQ PUSH2 0x2C4 JUMPI DUP1 PUSH4 0xAC128F4F EQ PUSH2 0x2E0 JUMPI PUSH2 0x12C JUMP JUMPDEST DUP1 PUSH4 0x454F7B8F GT PUSH2 0xF4 JUMPI DUP1 PUSH4 0x454F7B8F EQ PUSH2 0x1D8 JUMPI DUP1 PUSH4 0x5BEDC390 EQ PUSH2 0x1F6 JUMPI DUP1 PUSH4 0x5D495AEA EQ PUSH2 0x226 JUMPI DUP1 PUSH4 0x715018A6 EQ PUSH2 0x230 JUMPI DUP1 PUSH4 0x76636D20 EQ PUSH2 0x23A JUMPI PUSH2 0x12C JUMP JUMPDEST DUP1 PUSH4 0xD988270 EQ PUSH2 0x131 JUMPI DUP1 PUSH4 0x119B22B3 EQ PUSH2 0x161 JUMPI DUP1 PUSH4 0x158977DE EQ PUSH2 0x17F JUMPI DUP1 PUSH4 0x3B98BC65 EQ PUSH2 0x19D JUMPI DUP1 PUSH4 0x443B80A1 EQ PUSH2 0x1BC JUMPI JUMPDEST PUSH1 0x0 DUP1 REVERT JUMPDEST PUSH2 0x14B PUSH1 0x4 DUP1 CALLDATASIZE SUB DUP2 ADD SWAP1 PUSH2 0x146 SWAP2 SWAP1 PUSH2 0x140E JUMP JUMPDEST PUSH2 0x3CA JUMP JUMPDEST PUSH1 0x40 MLOAD PUSH2 0x158 SWAP2 SWAP1 PUSH2 0x1951 JUMP JUMPDEST PUSH1 0x40 MLOAD DUP1 SWAP2 SUB SWAP1 RETURN JUMPDEST PUSH2 0x169 PUSH2 0x3FB JUMP JUMPDEST PUSH1 0x40 MLOAD PUSH2 0x176 SWAP2 SWAP1 PUSH2 0x1951 JUMP JUMPDEST PUSH1 0x40 MLOAD DUP1 SWAP2 SUB SWAP1 RETURN JUMPDEST PUSH2 0x187 PUSH2 0x401 JUMP JUMPDEST PUSH1 0x40 MLOAD PUSH2 0x194 SWAP2 SWAP1 PUSH2 0x1951 JUMP JUMPDEST PUSH1 0x40 MLOAD DUP1 SWAP2 SUB SWAP1 RETURN JUMPDEST PUSH2 0x1A5 PUSH2 0x4D2 JUMP JUMPDEST PUSH1 0x40 MLOAD PUSH2 0x1B3 SWAP3 SWAP2 SWAP1 PUSH2 0x1862 JUMP JUMPDEST PUSH1 0x40 MLOAD DUP1 SWAP2 SUB SWAP1 RETURN JUMPDEST PUSH2 0x1D6 PUSH1 0x4 DUP1 CALLDATASIZE SUB DUP2 ADD SWAP1 PUSH2 0x1D1 SWAP2 SWAP1 PUSH2 0x140E JUMP JUMPDEST PUSH2 0x6FB JUMP JUMPDEST STOP JUMPDEST PUSH2 0x1E0 PUSH2 0x809 JUMP JUMPDEST PUSH1 0x40 MLOAD PUSH2 0x1ED SWAP2 SWAP1 PUSH2 0x1951 JUMP JUMPDEST PUSH1 0x40 MLOAD DUP1 SWAP2 SUB SWAP1 RETURN JUMPDEST PUSH2 0x210 PUSH1 0x4 DUP1 CALLDATASIZE SUB DUP2 ADD SWAP1 PUSH2 0x20B SWAP2 SWAP1 PUSH2 0x13E1 JUMP JUMPDEST PUSH2 0x80F JUMP JUMPDEST PUSH1 0x40 MLOAD PUSH2 0x21D SWAP2 SWAP1 PUSH2 0x18BB JUMP JUMPDEST PUSH1 0x40 MLOAD DUP1 SWAP2 SUB SWAP1 RETURN JUMPDEST PUSH2 0x22E PUSH2 0x829 JUMP JUMPDEST STOP JUMPDEST PUSH2 0x238 PUSH2 0xB30 JUMP JUMPDEST STOP JUMPDEST PUSH2 0x242 PUSH2 0xBB8 JUMP JUMPDEST PUSH1 0x40 MLOAD PUSH2 0x24F SWAP2 SWAP1 PUSH2 0x1951 JUMP JUMPDEST PUSH1 0x40 MLOAD DUP1 SWAP2 SUB SWAP1 RETURN JUMPDEST PUSH2 0x260 PUSH2 0xBBE JUMP JUMPDEST PUSH1 0x40 MLOAD PUSH2 0x26D SWAP2 SWAP1 PUSH2 0x181E JUMP JUMPDEST PUSH1 0x40 MLOAD DUP1 SWAP2 SUB SWAP1 RETURN JUMPDEST PUSH2 0x27E PUSH2 0xBE7 JUMP JUMPDEST PUSH1 0x40 MLOAD PUSH2 0x28B SWAP2 SWAP1 PUSH2 0x18D6 JUMP JUMPDEST PUSH1 0x40 MLOAD DUP1 SWAP2 SUB SWAP1 RETURN JUMPDEST PUSH2 0x2AE PUSH1 0x4 DUP1 CALLDATASIZE SUB DUP2 ADD SWAP1 PUSH2 0x2A9 SWAP2 SWAP1 PUSH2 0x13E1 JUMP JUMPDEST PUSH2 0xC0D JUMP JUMPDEST PUSH1 0x40 MLOAD PUSH2 0x2BB SWAP2 SWAP1 PUSH2 0x1951 JUMP JUMPDEST PUSH1 0x40 MLOAD DUP1 SWAP2 SUB SWAP1 RETURN JUMPDEST PUSH2 0x2DE PUSH1 0x4 DUP1 CALLDATASIZE SUB DUP2 ADD SWAP1 PUSH2 0x2D9 SWAP2 SWAP1 PUSH2 0x140E JUMP JUMPDEST PUSH2 0xC59 JUMP JUMPDEST STOP JUMPDEST PUSH2 0x2FA PUSH1 0x4 DUP1 CALLDATASIZE SUB DUP2 ADD SWAP1 PUSH2 0x2F5 SWAP2 SWAP1 PUSH2 0x147B JUMP JUMPDEST PUSH2 0xE68 JUMP JUMPDEST PUSH1 0x40 MLOAD PUSH2 0x30B SWAP6 SWAP5 SWAP4 SWAP3 SWAP2 SWAP1 PUSH2 0x196C JUMP JUMPDEST PUSH1 0x40 MLOAD DUP1 SWAP2 SUB SWAP1 RETURN JUMPDEST PUSH2 0x32E PUSH1 0x4 DUP1 CALLDATASIZE SUB DUP2 ADD SWAP1 PUSH2 0x329 SWAP2 SWAP1 PUSH2 0x147B JUMP JUMPDEST PUSH2 0xEBE JUMP JUMPDEST PUSH1 0x40 MLOAD PUSH2 0x33B SWAP2 SWAP1 PUSH2 0x181E JUMP JUMPDEST PUSH1 0x40 MLOAD DUP1 SWAP2 SUB SWAP1 RETURN JUMPDEST PUSH2 0x35E PUSH1 0x4 DUP1 CALLDATASIZE SUB DUP2 ADD SWAP1 PUSH2 0x359 SWAP2 SWAP1 PUSH2 0x14D5 JUMP JUMPDEST PUSH2 0xEF1 JUMP JUMPDEST PUSH1 0x40 MLOAD PUSH2 0x36B SWAP2 SWAP1 PUSH2 0x1899 JUMP JUMPDEST PUSH1 0x40 MLOAD DUP1 SWAP2 SUB SWAP1 RETURN JUMPDEST PUSH2 0x38E PUSH1 0x4 DUP1 CALLDATASIZE SUB DUP2 ADD SWAP1 PUSH2 0x389 SWAP2 SWAP1 PUSH2 0x13E1 JUMP JUMPDEST PUSH2 0x107E JUMP JUMPDEST STOP JUMPDEST PUSH2 0x3AA PUSH1 0x4 DUP1 CALLDATASIZE SUB DUP2 ADD SWAP1 PUSH2 0x3A5 SWAP2 SWAP1 PUSH2 0x13E1 JUMP JUMPDEST PUSH2 0x1099 JUMP JUMPDEST STOP JUMPDEST PUSH2 0x3B4 PUSH2 0x1191 JUMP JUMPDEST PUSH1 0x40 MLOAD PUSH2 0x3C1 SWAP2 SWAP1 PUSH2 0x1951 JUMP JUMPDEST PUSH1 0x40 MLOAD DUP1 SWAP2 SUB SWAP1 RETURN JUMPDEST PUSH1 0x7 PUSH1 0x20 MSTORE DUP2 PUSH1 0x0 MSTORE PUSH1 0x40 PUSH1 0x0 KECCAK256 DUP2 DUP2 SLOAD DUP2 LT PUSH2 0x3E6 JUMPI PUSH1 0x0 DUP1 REVERT JUMPDEST SWAP1 PUSH1 0x0 MSTORE PUSH1 0x20 PUSH1 0x0 KECCAK256 ADD PUSH1 0x0 SWAP2 POP SWAP2 POP POP SLOAD DUP2 JUMP JUMPDEST PUSH1 0x2 SLOAD DUP2 JUMP JUMPDEST PUSH1 0x0 DUP1 JUMPDEST PUSH1 0x1 SLOAD DUP2 LT ISZERO PUSH2 0x4CE JUMPI PUSH1 0x0 PUSH1 0x6 PUSH1 0x0 DUP4 DUP2 MSTORE PUSH1 0x20 ADD SWAP1 DUP2 MSTORE PUSH1 0x20 ADD PUSH1 0x0 KECCAK256 PUSH1 0x0 SWAP1 SLOAD SWAP1 PUSH2 0x100 EXP SWAP1 DIV PUSH20 0xFFFFFFFFFFFFFFFFFFFFFFFFFFFFFFFFFFFFFFFF AND SWAP1 POP PUSH1 0x7 PUSH1 0x0 DUP3 PUSH20 0xFFFFFFFFFFFFFFFFFFFFFFFFFFFFFFFFFFFFFFFF AND PUSH20 0xFFFFFFFFFFFFFFFFFFFFFFFFFFFFFFFFFFFFFFFF AND DUP2 MSTORE PUSH1 0x20 ADD SWAP1 DUP2 MSTORE PUSH1 0x20 ADD PUSH1 0x0 KECCAK256 PUSH1 0x0 DUP2 SLOAD DUP2 LT PUSH2 0x499 JUMPI PUSH2 0x498 PUSH2 0x1CB8 JUMP JUMPDEST JUMPDEST SWAP1 PUSH1 0x0 MSTORE PUSH1 0x20 PUSH1 0x0 KECCAK256 ADD SLOAD DUP3 EQ ISZERO PUSH2 0x4BA JUMPI DUP3 DUP1 PUSH2 0x4B6 SWAP1 PUSH2 0x1B83 JUMP JUMPDEST SWAP4 POP POP JUMPDEST POP DUP1 DUP1 PUSH2 0x4C6 SWAP1 PUSH2 0x1B83 JUMP JUMPDEST SWAP2 POP POP PUSH2 0x405 JUMP JUMPDEST POP SWAP1 JUMP JUMPDEST PUSH1 0x60 DUP1 PUSH1 0x0 PUSH2 0x4DF PUSH2 0x401 JUMP JUMPDEST SWAP1 POP DUP1 PUSH8 0xFFFFFFFFFFFFFFFF DUP2 GT ISZERO PUSH2 0x4FB JUMPI PUSH2 0x4FA PUSH2 0x1CE7 JUMP JUMPDEST JUMPDEST PUSH1 0x40 MLOAD SWAP1 DUP1 DUP3 MSTORE DUP1 PUSH1 0x20 MUL PUSH1 0x20 ADD DUP3 ADD PUSH1 0x40 MSTORE DUP1 ISZERO PUSH2 0x529 JUMPI DUP2 PUSH1 0x20 ADD PUSH1 0x20 DUP3 MUL DUP1 CALLDATASIZE DUP4 CALLDATACOPY DUP1 DUP3 ADD SWAP2 POP POP SWAP1 POP JUMPDEST POP SWAP3 POP DUP1 PUSH8 0xFFFFFFFFFFFFFFFF DUP2 GT ISZERO PUSH2 0x546 JUMPI PUSH2 0x545 PUSH2 0x1CE7 JUMP JUMPDEST JUMPDEST PUSH1 0x40 MLOAD SWAP1 DUP1 DUP3 MSTORE DUP1 PUSH1 0x20 MUL PUSH1 0x20 ADD DUP3 ADD PUSH1 0x40 MSTORE DUP1 ISZERO PUSH2 0x574 JUMPI DUP2 PUSH1 0x20 ADD PUSH1 0x20 DUP3 MUL DUP1 CALLDATASIZE DUP4 CALLDATACOPY DUP1 DUP3 ADD SWAP2 POP POP SWAP1 POP JUMPDEST POP SWAP2 POP PUSH1 0x0 DUP1 JUMPDEST PUSH1 0x1 SLOAD DUP2 LT ISZERO PUSH2 0x6F4 JUMPI PUSH1 0x0 PUSH1 0x6 PUSH1 0x0 DUP4 DUP2 MSTORE PUSH1 0x20 ADD SWAP1 DUP2 MSTORE PUSH1 0x20 ADD PUSH1 0x0 KECCAK256 PUSH1 0x0 SWAP1 SLOAD SWAP1 PUSH2 0x100 EXP SWAP1 DIV PUSH20 0xFFFFFFFFFFFFFFFFFFFFFFFFFFFFFFFFFFFFFFFF AND SWAP1 POP PUSH1 0x7 PUSH1 0x0 DUP3 PUSH20 0xFFFFFFFFFFFFFFFFFFFFFFFFFFFFFFFFFFFFFFFF AND PUSH20 0xFFFFFFFFFFFFFFFFFFFFFFFFFFFFFFFFFFFFFFFF AND DUP2 MSTORE PUSH1 0x20 ADD SWAP1 DUP2 MSTORE PUSH1 0x20 ADD PUSH1 0x0 KECCAK256 PUSH1 0x0 DUP2 SLOAD DUP2 LT PUSH2 0x60F JUMPI PUSH2 0x60E PUSH2 0x1CB8 JUMP JUMPDEST JUMPDEST SWAP1 PUSH1 0x0 MSTORE PUSH1 0x20 PUSH1 0x0 KECCAK256 ADD SLOAD DUP3 EQ ISZERO PUSH2 0x6E0 JUMPI DUP1 DUP7 DUP5 DUP2 MLOAD DUP2 LT PUSH2 0x635 JUMPI PUSH2 0x634 PUSH2 0x1CB8 JUMP JUMPDEST JUMPDEST PUSH1 0x20 MUL PUSH1 0x20 ADD ADD SWAP1 PUSH20 0xFFFFFFFFFFFFFFFFFFFFFFFFFFFFFFFFFFFFFFFF AND SWAP1 DUP2 PUSH20 0xFFFFFFFFFFFFFFFFFFFFFFFFFFFFFFFFFFFFFFFF AND DUP2 MSTORE POP POP PUSH1 0x7 PUSH1 0x0 DUP3 PUSH20 0xFFFFFFFFFFFFFFFFFFFFFFFFFFFFFFFFFFFFFFFF AND PUSH20 0xFFFFFFFFFFFFFFFFFFFFFFFFFFFFFFFFFFFFFFFF AND DUP2 MSTORE PUSH1 0x20 ADD SWAP1 DUP2 MSTORE PUSH1 0x20 ADD PUSH1 0x0 KECCAK256 DUP1 SLOAD SWAP1 POP DUP6 DUP5 DUP2 MLOAD DUP2 LT PUSH2 0x6C5 JUMPI PUSH2 0x6C4 PUSH2 0x1CB8 JUMP JUMPDEST JUMPDEST PUSH1 0x20 MUL PUSH1 0x20 ADD ADD DUP2 DUP2 MSTORE POP POP DUP3 DUP1 PUSH2 0x6DC SWAP1 PUSH2 0x1B83 JUMP JUMPDEST SWAP4 POP POP JUMPDEST POP DUP1 DUP1 PUSH2 0x6EC SWAP1 PUSH2 0x1B83 JUMP JUMPDEST SWAP2 POP POP PUSH2 0x57B JUMP JUMPDEST POP POP POP SWAP1 SWAP2 JUMP JUMPDEST PUSH1 0x0 JUMPDEST DUP2 DUP2 LT ISZERO PUSH2 0x7EB JUMPI DUP3 PUSH1 0x6 PUSH1 0x0 DUP4 PUSH1 0x1 SLOAD PUSH2 0x719 SWAP2 SWAP1 PUSH2 0x1A7B JUMP JUMPDEST DUP2 MSTORE PUSH1 0x20 ADD SWAP1 DUP2 MSTORE PUSH1 0x20 ADD PUSH1 0x0 KECCAK256 PUSH1 0x0 PUSH2 0x100 EXP DUP2 SLOAD DUP2 PUSH20 0xFFFFFFFFFFFFFFFFFFFFFFFFFFFFFFFFFFFFFFFF MUL NOT AND SWAP1 DUP4 PUSH20 0xFFFFFFFFFFFFFFFFFFFFFFFFFFFFFFFFFFFFFFFF AND MUL OR SWAP1 SSTORE POP PUSH1 0x7 PUSH1 0x0 DUP5 PUSH20 0xFFFFFFFFFFFFFFFFFFFFFFFFFFFFFFFFFFFFFFFF AND PUSH20 0xFFFFFFFFFFFFFFFFFFFFFFFFFFFFFFFFFFFFFFFF AND DUP2 MSTORE PUSH1 0x20 ADD SWAP1 DUP2 MSTORE PUSH1 0x20 ADD PUSH1 0x0 KECCAK256 DUP2 PUSH1 0x1 SLOAD PUSH2 0x7B2 SWAP2 SWAP1 PUSH2 0x1A7B JUMP JUMPDEST SWAP1 DUP1 PUSH1 0x1 DUP2 SLOAD ADD DUP1 DUP3 SSTORE DUP1 SWAP2 POP POP PUSH1 0x1 SWAP1 SUB SWAP1 PUSH1 0x0 MSTORE PUSH1 0x20 PUSH1 0x0 KECCAK256 ADD PUSH1 0x0 SWAP1 SWAP2 SWAP1 SWAP2 SWAP1 SWAP2 POP SSTORE DUP1 DUP1 PUSH2 0x7E3 SWAP1 PUSH2 0x1B83 JUMP JUMPDEST SWAP2 POP POP PUSH2 0x6FE JUMP JUMPDEST POP DUP1 PUSH1 0x1 PUSH1 0x0 DUP3 DUP3 SLOAD PUSH2 0x7FE SWAP2 SWAP1 PUSH2 0x1A7B JUMP JUMPDEST SWAP3 POP POP DUP2 SWAP1 SSTORE POP POP POP JUMP JUMPDEST PUSH1 0x3 SLOAD DUP2 JUMP JUMPDEST PUSH1 0x0 DUP1 PUSH2 0x81B DUP4 PUSH2 0xC0D JUMP JUMPDEST SWAP1 POP PUSH1 0x0 DUP2 GT SWAP2 POP POP SWAP2 SWAP1 POP JUMP JUMPDEST PUSH2 0x831 PUSH2 0x1243 JUMP JUMPDEST PUSH20 0xFFFFFFFFFFFFFFFFFFFFFFFFFFFFFFFFFFFFFFFF AND PUSH2 0x84F PUSH2 0xBBE JUMP JUMPDEST PUSH20 0xFFFFFFFFFFFFFFFFFFFFFFFFFFFFFFFFFFFFFFFF AND EQ PUSH2 0x8A5 JUMPI PUSH1 0x40 MLOAD PUSH32 0x8C379A000000000000000000000000000000000000000000000000000000000 DUP2 MSTORE PUSH1 0x4 ADD PUSH2 0x89C SWAP1 PUSH2 0x1931 JUMP JUMPDEST PUSH1 0x40 MLOAD DUP1 SWAP2 SUB SWAP1 REVERT JUMPDEST PUSH1 0x0 PUSH2 0x8AF PUSH2 0x1191 JUMP JUMPDEST SWAP1 POP PUSH6 0x44364C5BB000 DUP2 LT ISZERO PUSH2 0x8FA JUMPI PUSH1 0x40 MLOAD PUSH32 0x8C379A000000000000000000000000000000000000000000000000000000000 DUP2 MSTORE PUSH1 0x4 ADD PUSH2 0x8F1 SWAP1 PUSH2 0x1911 JUMP JUMPDEST PUSH1 0x40 MLOAD DUP1 SWAP2 SUB SWAP1 REVERT JUMPDEST PUSH1 0x0 PUSH1 0x1 SLOAD PUSH2 0x907 PUSH2 0x124B JUMP JUMPDEST PUSH2 0x911 SWAP2 SWAP1 PUSH2 0x1BFA JUMP JUMPDEST SWAP1 POP PUSH1 0x0 PUSH1 0x6 PUSH1 0x0 DUP4 DUP2 MSTORE PUSH1 0x20 ADD SWAP1 DUP2 MSTORE PUSH1 0x20 ADD PUSH1 0x0 KECCAK256 PUSH1 0x0 SWAP1 SLOAD SWAP1 PUSH2 0x100 EXP SWAP1 DIV PUSH20 0xFFFFFFFFFFFFFFFFFFFFFFFFFFFFFFFFFFFFFFFF AND SWAP1 POP PUSH1 0x40 MLOAD DUP1 PUSH1 0xA0 ADD PUSH1 0x40 MSTORE DUP1 PUSH1 0x1 SLOAD DUP2 MSTORE PUSH1 0x20 ADD DUP4 DUP2 MSTORE PUSH1 0x20 ADD DUP5 DUP2 MSTORE PUSH1 0x20 ADD TIMESTAMP DUP2 MSTORE PUSH1 0x20 ADD DUP3 PUSH20 0xFFFFFFFFFFFFFFFFFFFFFFFFFFFFFFFFFFFFFFFF AND DUP2 MSTORE POP PUSH1 0x5 PUSH1 0x0 PUSH1 0x2 SLOAD DUP2 MSTORE PUSH1 0x20 ADD SWAP1 DUP2 MSTORE PUSH1 0x20 ADD PUSH1 0x0 KECCAK256 PUSH1 0x0 DUP3 ADD MLOAD DUP2 PUSH1 0x0 ADD SSTORE PUSH1 0x20 DUP3 ADD MLOAD DUP2 PUSH1 0x1 ADD SSTORE PUSH1 0x40 DUP3 ADD MLOAD DUP2 PUSH1 0x2 ADD SSTORE PUSH1 0x60 DUP3 ADD MLOAD DUP2 PUSH1 0x3 ADD SSTORE PUSH1 0x80 DUP3 ADD MLOAD DUP2 PUSH1 0x4 ADD PUSH1 0x0 PUSH2 0x100 EXP DUP2 SLOAD DUP2 PUSH20 0xFFFFFFFFFFFFFFFFFFFFFFFFFFFFFFFFFFFFFFFF MUL NOT AND SWAP1 DUP4 PUSH20 0xFFFFFFFFFFFFFFFFFFFFFFFFFFFFFFFFFFFFFFFF AND MUL OR SWAP1 SSTORE POP SWAP1 POP POP DUP3 PUSH1 0x3 PUSH1 0x0 DUP3 DUP3 SLOAD PUSH2 0xA23 SWAP2 SWAP1 PUSH2 0x1A7B JUMP JUMPDEST SWAP3 POP POP DUP2 SWAP1 SSTORE POP PUSH1 0x2 PUSH1 0x0 DUP2 SLOAD DUP1 SWAP3 SWAP2 SWAP1 PUSH2 0xA3D SWAP1 PUSH2 0x1B83 JUMP JUMPDEST SWAP2 SWAP1 POP SSTORE POP PUSH1 0x4 PUSH1 0x0 SWAP1 SLOAD SWAP1 PUSH2 0x100 EXP SWAP1 DIV PUSH20 0xFFFFFFFFFFFFFFFFFFFFFFFFFFFFFFFFFFFFFFFF AND PUSH20 0xFFFFFFFFFFFFFFFFFFFFFFFFFFFFFFFFFFFFFFFF AND PUSH4 0xA9059CBB DUP3 DUP6 PUSH1 0x40 MLOAD DUP4 PUSH4 0xFFFFFFFF AND PUSH1 0xE0 SHL DUP2 MSTORE PUSH1 0x4 ADD PUSH2 0xA9F SWAP3 SWAP2 SWAP1 PUSH2 0x1839 JUMP JUMPDEST PUSH1 0x20 PUSH1 0x40 MLOAD DUP1 DUP4 SUB DUP2 PUSH1 0x0 DUP8 DUP1 EXTCODESIZE ISZERO DUP1 ISZERO PUSH2 0xAB9 JUMPI PUSH1 0x0 DUP1 REVERT JUMPDEST POP GAS CALL ISZERO DUP1 ISZERO PUSH2 0xACD JUMPI RETURNDATASIZE PUSH1 0x0 DUP1 RETURNDATACOPY RETURNDATASIZE PUSH1 0x0 REVERT JUMPDEST POP POP POP POP PUSH1 0x40 MLOAD RETURNDATASIZE PUSH1 0x1F NOT PUSH1 0x1F DUP3 ADD AND DUP3 ADD DUP1 PUSH1 0x40 MSTORE POP DUP2 ADD SWAP1 PUSH2 0xAF1 SWAP2 SWAP1 PUSH2 0x144E JUMP JUMPDEST POP PUSH32 0x2E798DD4337E515C79B64C40E1A93BAA1AEFBD9180AC7905E02508EDD7971E50 DUP2 DUP5 PUSH1 0x40 MLOAD PUSH2 0xB23 SWAP3 SWAP2 SWAP1 PUSH2 0x1839 JUMP JUMPDEST PUSH1 0x40 MLOAD DUP1 SWAP2 SUB SWAP1 LOG1 POP POP POP JUMP JUMPDEST PUSH2 0xB38 PUSH2 0x1243 JUMP JUMPDEST PUSH20 0xFFFFFFFFFFFFFFFFFFFFFFFFFFFFFFFFFFFFFFFF AND PUSH2 0xB56 PUSH2 0xBBE JUMP JUMPDEST PUSH20 0xFFFFFFFFFFFFFFFFFFFFFFFFFFFFFFFFFFFFFFFF AND EQ PUSH2 0xBAC JUMPI PUSH1 0x40 MLOAD PUSH32 0x8C379A000000000000000000000000000000000000000000000000000000000 DUP2 MSTORE PUSH1 0x4 ADD PUSH2 0xBA3 SWAP1 PUSH2 0x1931 JUMP JUMPDEST PUSH1 0x40 MLOAD DUP1 SWAP2 SUB SWAP1 REVERT JUMPDEST PUSH2 0xBB6 PUSH1 0x0 PUSH2 0x1284 JUMP JUMPDEST JUMP JUMPDEST PUSH1 0x1 SLOAD DUP2 JUMP JUMPDEST PUSH1 0x0 DUP1 PUSH1 0x0 SWAP1 SLOAD SWAP1 PUSH2 0x100 EXP SWAP1 DIV PUSH20 0xFFFFFFFFFFFFFFFFFFFFFFFFFFFFFFFFFFFFFFFF AND SWAP1 POP SWAP1 JUMP JUMPDEST PUSH1 0x4 PUSH1 0x0 SWAP1 SLOAD SWAP1 PUSH2 0x100 EXP SWAP1 DIV PUSH20 0xFFFFFFFFFFFFFFFFFFFFFFFFFFFFFFFFFFFFFFFF AND DUP2 JUMP JUMPDEST PUSH1 0x0 PUSH1 0x7 PUSH1 0x0 DUP4 PUSH20 0xFFFFFFFFFFFFFFFFFFFFFFFFFFFFFFFFFFFFFFFF AND PUSH20 0xFFFFFFFFFFFFFFFFFFFFFFFFFFFFFFFFFFFFFFFF AND DUP2 MSTORE PUSH1 0x20 ADD SWAP1 DUP2 MSTORE PUSH1 0x20 ADD PUSH1 0x0 KECCAK256 DUP1 SLOAD SWAP1 POP SWAP1 POP SWAP2 SWAP1 POP JUMP JUMPDEST PUSH1 0x0 PUSH2 0xC64 DUP4 PUSH2 0xC0D JUMP JUMPDEST SWAP1 POP PUSH1 0x0 DUP2 EQ ISZERO PUSH2 0xC75 JUMPI POP PUSH2 0xE64 JUMP JUMPDEST DUP1 DUP3 GT ISZERO PUSH2 0xC81 JUMPI DUP1 SWAP2 POP JUMPDEST PUSH1 0x0 PUSH1 0x1 SWAP1 POP JUMPDEST DUP3 DUP2 GT PUSH2 0xE48 JUMPI PUSH1 0x0 PUSH1 0x7 PUSH1 0x0 DUP7 PUSH20 0xFFFFFFFFFFFFFFFFFFFFFFFFFFFFFFFFFFFFFFFF AND PUSH20 0xFFFFFFFFFFFFFFFFFFFFFFFFFFFFFFFFFFFFFFFF AND DUP2 MSTORE PUSH1 0x20 ADD SWAP1 DUP2 MSTORE PUSH1 0x20 ADD PUSH1 0x0 KECCAK256 PUSH1 0x1 PUSH1 0x7 PUSH1 0x0 DUP9 PUSH20 0xFFFFFFFFFFFFFFFFFFFFFFFFFFFFFFFFFFFFFFFF AND PUSH20 0xFFFFFFFFFFFFFFFFFFFFFFFFFFFFFFFFFFFFFFFF AND DUP2 MSTORE PUSH1 0x20 ADD SWAP1 DUP2 MSTORE PUSH1 0x20 ADD PUSH1 0x0 KECCAK256 DUP1 SLOAD SWAP1 POP PUSH2 0xD1F SWAP2 SWAP1 PUSH2 0x1AD1 JUMP JUMPDEST DUP2 SLOAD DUP2 LT PUSH2 0xD30 JUMPI PUSH2 0xD2F PUSH2 0x1CB8 JUMP JUMPDEST JUMPDEST SWAP1 PUSH1 0x0 MSTORE PUSH1 0x20 PUSH1 0x0 KECCAK256 ADD SLOAD SWAP1 POP PUSH1 0x6 PUSH1 0x0 DUP4 PUSH1 0x1 SLOAD PUSH2 0xD4F SWAP2 SWAP1 PUSH2 0x1AD1 JUMP JUMPDEST DUP2 MSTORE PUSH1 0x20 ADD SWAP1 DUP2 MSTORE PUSH1 0x20 ADD PUSH1 0x0 KECCAK256 PUSH1 0x0 SWAP1 SLOAD SWAP1 PUSH2 0x100 EXP SWAP1 DIV PUSH20 0xFFFFFFFFFFFFFFFFFFFFFFFFFFFFFFFFFFFFFFFF AND PUSH1 0x6 PUSH1 0x0 DUP4 DUP2 MSTORE PUSH1 0x20 ADD SWAP1 DUP2 MSTORE PUSH1 0x20 ADD PUSH1 0x0 KECCAK256 PUSH1 0x0 PUSH2 0x100 EXP DUP2 SLOAD DUP2 PUSH20 0xFFFFFFFFFFFFFFFFFFFFFFFFFFFFFFFFFFFFFFFF MUL NOT AND SWAP1 DUP4 PUSH20 0xFFFFFFFFFFFFFFFFFFFFFFFFFFFFFFFFFFFFFFFF AND MUL OR SWAP1 SSTORE POP PUSH1 0x7 PUSH1 0x0 DUP7 PUSH20 0xFFFFFFFFFFFFFFFFFFFFFFFFFFFFFFFFFFFFFFFF AND PUSH20 0xFFFFFFFFFFFFFFFFFFFFFFFFFFFFFFFFFFFFFFFF AND DUP2 MSTORE PUSH1 0x20 ADD SWAP1 DUP2 MSTORE PUSH1 0x20 ADD PUSH1 0x0 KECCAK256 DUP1 SLOAD DUP1 PUSH2 0xE1E JUMPI PUSH2 0xE1D PUSH2 0x1C89 JUMP JUMPDEST JUMPDEST PUSH1 0x1 SWAP1 SUB DUP2 DUP2 SWAP1 PUSH1 0x0 MSTORE PUSH1 0x20 PUSH1 0x0 KECCAK256 ADD PUSH1 0x0 SWAP1 SSTORE SWAP1 SSTORE POP DUP1 DUP1 PUSH2 0xE40 SWAP1 PUSH2 0x1B83 JUMP JUMPDEST SWAP2 POP POP PUSH2 0xC88 JUMP JUMPDEST POP DUP2 PUSH1 0x1 PUSH1 0x0 DUP3 DUP3 SLOAD PUSH2 0xE5B SWAP2 SWAP1 PUSH2 0x1AD1 JUMP JUMPDEST SWAP3 POP POP DUP2 SWAP1 SSTORE POP POP JUMPDEST POP POP JUMP JUMPDEST PUSH1 0x5 PUSH1 0x20 MSTORE DUP1 PUSH1 0x0 MSTORE PUSH1 0x40 PUSH1 0x0 KECCAK256 PUSH1 0x0 SWAP2 POP SWAP1 POP DUP1 PUSH1 0x0 ADD SLOAD SWAP1 DUP1 PUSH1 0x1 ADD SLOAD SWAP1 DUP1 PUSH1 0x2 ADD SLOAD SWAP1 DUP1 PUSH1 0x3 ADD SLOAD SWAP1 DUP1 PUSH1 0x4 ADD PUSH1 0x0 SWAP1 SLOAD SWAP1 PUSH2 0x100 EXP SWAP1 DIV PUSH20 0xFFFFFFFFFFFFFFFFFFFFFFFFFFFFFFFFFFFFFFFF AND SWAP1 POP DUP6 JUMP JUMPDEST PUSH1 0x6 PUSH1 0x20 MSTORE DUP1 PUSH1 0x0 MSTORE PUSH1 0x40 PUSH1 0x0 KECCAK256 PUSH1 0x0 SWAP2 POP SLOAD SWAP1 PUSH2 0x100 EXP SWAP1 DIV PUSH20 0xFFFFFFFFFFFFFFFFFFFFFFFFFFFFFFFFFFFFFFFF AND DUP2 JUMP JUMPDEST PUSH1 0x60 PUSH1 0x2 SLOAD DUP3 LT PUSH2 0xF0E JUMPI PUSH1 0x1 PUSH1 0x2 SLOAD PUSH2 0xF0B SWAP2 SWAP1 PUSH2 0x1AD1 JUMP JUMPDEST SWAP2 POP JUMPDEST PUSH1 0x0 PUSH1 0x1 DUP5 DUP5 PUSH2 0xF1E SWAP2 SWAP1 PUSH2 0x1AD1 JUMP JUMPDEST PUSH2 0xF28 SWAP2 SWAP1 PUSH2 0x1A7B JUMP JUMPDEST SWAP1 POP PUSH1 0x0 DUP2 PUSH8 0xFFFFFFFFFFFFFFFF DUP2 GT ISZERO PUSH2 0xF46 JUMPI PUSH2 0xF45 PUSH2 0x1CE7 JUMP JUMPDEST JUMPDEST PUSH1 0x40 MLOAD SWAP1 DUP1 DUP3 MSTORE DUP1 PUSH1 0x20 MUL PUSH1 0x20 ADD DUP3 ADD PUSH1 0x40 MSTORE DUP1 ISZERO PUSH2 0xF7F JUMPI DUP2 PUSH1 0x20 ADD JUMPDEST PUSH2 0xF6C PUSH2 0x1348 JUMP JUMPDEST DUP2 MSTORE PUSH1 0x20 ADD SWAP1 PUSH1 0x1 SWAP1 SUB SWAP1 DUP2 PUSH2 0xF64 JUMPI SWAP1 POP JUMPDEST POP SWAP3 POP PUSH1 0x0 DUP6 SWAP1 POP JUMPDEST DUP5 DUP2 GT PUSH2 0x1075 JUMPI PUSH1 0x5 PUSH1 0x0 DUP3 DUP9 PUSH2 0xF9F SWAP2 SWAP1 PUSH2 0x1A7B JUMP JUMPDEST DUP2 MSTORE PUSH1 0x20 ADD SWAP1 DUP2 MSTORE PUSH1 0x20 ADD PUSH1 0x0 KECCAK256 PUSH1 0x40 MLOAD DUP1 PUSH1 0xA0 ADD PUSH1 0x40 MSTORE SWAP1 DUP2 PUSH1 0x0 DUP3 ADD SLOAD DUP2 MSTORE PUSH1 0x20 ADD PUSH1 0x1 DUP3 ADD SLOAD DUP2 MSTORE PUSH1 0x20 ADD PUSH1 0x2 DUP3 ADD SLOAD DUP2 MSTORE PUSH1 0x20 ADD PUSH1 0x3 DUP3 ADD SLOAD DUP2 MSTORE PUSH1 0x20 ADD PUSH1 0x4 DUP3 ADD PUSH1 0x0 SWAP1 SLOAD SWAP1 PUSH2 0x100 EXP SWAP1 DIV PUSH20 0xFFFFFFFFFFFFFFFFFFFFFFFFFFFFFFFFFFFFFFFF AND PUSH20 0xFFFFFFFFFFFFFFFFFFFFFFFFFFFFFFFFFFFFFFFF AND PUSH20 0xFFFFFFFFFFFFFFFFFFFFFFFFFFFFFFFFFFFFFFFF AND DUP2 MSTORE POP POP DUP5 DUP4 DUP2 MLOAD DUP2 LT PUSH2 0x1049 JUMPI PUSH2 0x1048 PUSH2 0x1CB8 JUMP JUMPDEST JUMPDEST PUSH1 0x20 MUL PUSH1 0x20 ADD ADD DUP2 SWAP1 MSTORE POP DUP2 DUP1 PUSH2 0x105F SWAP1 PUSH2 0x1B83 JUMP JUMPDEST SWAP3 POP POP DUP1 DUP1 PUSH2 0x106D SWAP1 PUSH2 0x1B83 JUMP JUMPDEST SWAP2 POP POP PUSH2 0xF88 JUMP JUMPDEST POP POP POP SWAP3 SWAP2 POP POP JUMP JUMPDEST PUSH1 0x0 PUSH2 0x1089 DUP3 PUSH2 0xC0D JUMP JUMPDEST SWAP1 POP PUSH2 0x1095 DUP3 DUP3 PUSH2 0xC59 JUMP JUMPDEST POP POP JUMP JUMPDEST PUSH2 0x10A1 PUSH2 0x1243 JUMP JUMPDEST PUSH20 0xFFFFFFFFFFFFFFFFFFFFFFFFFFFFFFFFFFFFFFFF AND PUSH2 0x10BF PUSH2 0xBBE JUMP JUMPDEST PUSH20 0xFFFFFFFFFFFFFFFFFFFFFFFFFFFFFFFFFFFFFFFF AND EQ PUSH2 0x1115 JUMPI PUSH1 0x40 MLOAD PUSH32 0x8C379A000000000000000000000000000000000000000000000000000000000 DUP2 MSTORE PUSH1 0x4 ADD PUSH2 0x110C SWAP1 PUSH2 0x1931 JUMP JUMPDEST PUSH1 0x40 MLOAD DUP1 SWAP2 SUB SWAP1 REVERT JUMPDEST PUSH1 0x0 PUSH20 0xFFFFFFFFFFFFFFFFFFFFFFFFFFFFFFFFFFFFFFFF AND DUP2 PUSH20 0xFFFFFFFFFFFFFFFFFFFFFFFFFFFFFFFFFFFFFFFF AND EQ ISZERO PUSH2 0x1185 JUMPI PUSH1 0x40 MLOAD PUSH32 0x8C379A000000000000000000000000000000000000000000000000000000000 DUP2 MSTORE PUSH1 0x4 ADD PUSH2 0x117C SWAP1 PUSH2 0x18F1 JUMP JUMPDEST PUSH1 0x40 MLOAD DUP1 SWAP2 SUB SWAP1 REVERT JUMPDEST PUSH2 0x118E DUP2 PUSH2 0x1284 JUMP JUMPDEST POP JUMP JUMPDEST PUSH1 0x0 PUSH1 0x4 PUSH1 0x0 SWAP1 SLOAD SWAP1 PUSH2 0x100 EXP SWAP1 DIV PUSH20 0xFFFFFFFFFFFFFFFFFFFFFFFFFFFFFFFFFFFFFFFF AND PUSH20 0xFFFFFFFFFFFFFFFFFFFFFFFFFFFFFFFFFFFFFFFF AND PUSH4 0x70A08231 ADDRESS PUSH1 0x40 MLOAD DUP3 PUSH4 0xFFFFFFFF AND PUSH1 0xE0 SHL DUP2 MSTORE PUSH1 0x4 ADD PUSH2 0x11EE SWAP2 SWAP1 PUSH2 0x181E JUMP JUMPDEST PUSH1 0x20 PUSH1 0x40 MLOAD DUP1 DUP4 SUB DUP2 DUP7 DUP1 EXTCODESIZE ISZERO DUP1 ISZERO PUSH2 0x1206 JUMPI PUSH1 0x0 DUP1 REVERT JUMPDEST POP GAS STATICCALL ISZERO DUP1 ISZERO PUSH2 0x121A JUMPI RETURNDATASIZE PUSH1 0x0 DUP1 RETURNDATACOPY RETURNDATASIZE PUSH1 0x0 REVERT JUMPDEST POP POP POP POP PUSH1 0x40 MLOAD RETURNDATASIZE PUSH1 0x1F NOT PUSH1 0x1F DUP3 ADD AND DUP3 ADD DUP1 PUSH1 0x40 MSTORE POP DUP2 ADD SWAP1 PUSH2 0x123E SWAP2 SWAP1 PUSH2 0x14A8 JUMP JUMPDEST SWAP1 POP SWAP1 JUMP JUMPDEST PUSH1 0x0 CALLER SWAP1 POP SWAP1 JUMP JUMPDEST PUSH1 0x0 TIMESTAMP GAS CALLER PUSH1 0x3 SLOAD PUSH1 0x40 MLOAD PUSH1 0x20 ADD PUSH2 0x1266 SWAP5 SWAP4 SWAP3 SWAP2 SWAP1 PUSH2 0x17D0 JUMP JUMPDEST PUSH1 0x40 MLOAD PUSH1 0x20 DUP2 DUP4 SUB SUB DUP2 MSTORE SWAP1 PUSH1 0x40 MSTORE DUP1 MLOAD SWAP1 PUSH1 0x20 ADD KECCAK256 PUSH1 0x0 SHR SWAP1 POP SWAP1 JUMP JUMPDEST PUSH1 0x0 DUP1 PUSH1 0x0 SWAP1 SLOAD SWAP1 PUSH2 0x100 EXP SWAP1 DIV PUSH20 0xFFFFFFFFFFFFFFFFFFFFFFFFFFFFFFFFFFFFFFFF AND SWAP1 POP DUP2 PUSH1 0x0 DUP1 PUSH2 0x100 EXP DUP2 SLOAD DUP2 PUSH20 0xFFFFFFFFFFFFFFFFFFFFFFFFFFFFFFFFFFFFFFFF MUL NOT AND SWAP1 DUP4 PUSH20 0xFFFFFFFFFFFFFFFFFFFFFFFFFFFFFFFFFFFFFFFF AND MUL OR SWAP1 SSTORE POP DUP2 PUSH20 0xFFFFFFFFFFFFFFFFFFFFFFFFFFFFFFFFFFFFFFFF AND DUP2 PUSH20 0xFFFFFFFFFFFFFFFFFFFFFFFFFFFFFFFFFFFFFFFF AND PUSH32 0x8BE0079C531659141344CD1FD0A4F28419497F9722A3DAAFE3B4186F6B6457E0 PUSH1 0x40 MLOAD PUSH1 0x40 MLOAD DUP1 SWAP2 SUB SWAP1 LOG3 POP POP JUMP JUMPDEST PUSH1 0x40 MLOAD DUP1 PUSH1 0xA0 ADD PUSH1 0x40 MSTORE DUP1 PUSH1 0x0 DUP2 MSTORE PUSH1 0x20 ADD PUSH1 0x0 DUP2 MSTORE PUSH1 0x20 ADD PUSH1 0x0 DUP2 MSTORE PUSH1 0x20 ADD PUSH1 0x0 DUP2 MSTORE PUSH1 0x20 ADD PUSH1 0x0 PUSH20 0xFFFFFFFFFFFFFFFFFFFFFFFFFFFFFFFFFFFFFFFF AND DUP2 MSTORE POP SWAP1 JUMP JUMPDEST PUSH1 0x0 DUP2 CALLDATALOAD SWAP1 POP PUSH2 0x139C DUP2 PUSH2 0x1DC9 JUMP JUMPDEST SWAP3 SWAP2 POP POP JUMP JUMPDEST PUSH1 0x0 DUP2 MLOAD SWAP1 POP PUSH2 0x13B1 DUP2 PUSH2 0x1DE0 JUMP JUMPDEST SWAP3 SWAP2 POP POP JUMP JUMPDEST PUSH1 0x0 DUP2 CALLDATALOAD SWAP1 POP PUSH2 0x13C6 DUP2 PUSH2 0x1DF7 JUMP JUMPDEST SWAP3 SWAP2 POP POP JUMP JUMPDEST PUSH1 0x0 DUP2 MLOAD SWAP1 POP PUSH2 0x13DB DUP2 PUSH2 0x1DF7 JUMP JUMPDEST SWAP3 SWAP2 POP POP JUMP JUMPDEST PUSH1 0x0 PUSH1 0x20 DUP3 DUP5 SUB SLT ISZERO PUSH2 0x13F7 JUMPI PUSH2 0x13F6 PUSH2 0x1D16 JUMP JUMPDEST JUMPDEST PUSH1 0x0 PUSH2 0x1405 DUP5 DUP3 DUP6 ADD PUSH2 0x138D JUMP JUMPDEST SWAP2 POP POP SWAP3 SWAP2 POP POP JUMP JUMPDEST PUSH1 0x0 DUP1 PUSH1 0x40 DUP4 DUP6 SUB SLT ISZERO PUSH2 0x1425 JUMPI PUSH2 0x1424 PUSH2 0x1D16 JUMP JUMPDEST JUMPDEST PUSH1 0x0 PUSH2 0x1433 DUP6 DUP3 DUP7 ADD PUSH2 0x138D JUMP JUMPDEST SWAP3 POP POP PUSH1 0x20 PUSH2 0x1444 DUP6 DUP3 DUP7 ADD PUSH2 0x13B7 JUMP JUMPDEST SWAP2 POP POP SWAP3 POP SWAP3 SWAP1 POP JUMP JUMPDEST PUSH1 0x0 PUSH1 0x20 DUP3 DUP5 SUB SLT ISZERO PUSH2 0x1464 JUMPI PUSH2 0x1463 PUSH2 0x1D16 JUMP JUMPDEST JUMPDEST PUSH1 0x0 PUSH2 0x1472 DUP5 DUP3 DUP6 ADD PUSH2 0x13A2 JUMP JUMPDEST SWAP2 POP POP SWAP3 SWAP2 POP POP JUMP JUMPDEST PUSH1 0x0 PUSH1 0x20 DUP3 DUP5 SUB SLT ISZERO PUSH2 0x1491 JUMPI PUSH2 0x1490 PUSH2 0x1D16 JUMP JUMPDEST JUMPDEST PUSH1 0x0 PUSH2 0x149F DUP5 DUP3 DUP6 ADD PUSH2 0x13B7 JUMP JUMPDEST SWAP2 POP POP SWAP3 SWAP2 POP POP JUMP JUMPDEST PUSH1 0x0 PUSH1 0x20 DUP3 DUP5 SUB SLT ISZERO PUSH2 0x14BE JUMPI PUSH2 0x14BD PUSH2 0x1D16 JUMP JUMPDEST JUMPDEST PUSH1 0x0 PUSH2 0x14CC DUP5 DUP3 DUP6 ADD PUSH2 0x13CC JUMP JUMPDEST SWAP2 POP POP SWAP3 SWAP2 POP POP JUMP JUMPDEST PUSH1 0x0 DUP1 PUSH1 0x40 DUP4 DUP6 SUB SLT ISZERO PUSH2 0x14EC JUMPI PUSH2 0x14EB PUSH2 0x1D16 JUMP JUMPDEST JUMPDEST PUSH1 0x0 PUSH2 0x14FA DUP6 DUP3 DUP7 ADD PUSH2 0x13B7 JUMP JUMPDEST SWAP3 POP POP PUSH1 0x20 PUSH2 0x150B DUP6 DUP3 DUP7 ADD PUSH2 0x13B7 JUMP JUMPDEST SWAP2 POP POP SWAP3 POP SWAP3 SWAP1 POP JUMP JUMPDEST PUSH1 0x0 PUSH2 0x1521 DUP4 DUP4 PUSH2 0x155D JUMP JUMPDEST PUSH1 0x20 DUP4 ADD SWAP1 POP SWAP3 SWAP2 POP POP JUMP JUMPDEST PUSH1 0x0 PUSH2 0x1539 DUP4 DUP4 PUSH2 0x1733 JUMP JUMPDEST PUSH1 0xA0 DUP4 ADD SWAP1 POP SWAP3 SWAP2 POP POP JUMP JUMPDEST PUSH1 0x0 PUSH2 0x1551 DUP4 DUP4 PUSH2 0x179B JUMP JUMPDEST PUSH1 0x20 DUP4 ADD SWAP1 POP SWAP3 SWAP2 POP POP JUMP JUMPDEST PUSH2 0x1566 DUP2 PUSH2 0x1B05 JUMP JUMPDEST DUP3 MSTORE POP POP JUMP JUMPDEST PUSH2 0x1575 DUP2 PUSH2 0x1B05 JUMP JUMPDEST DUP3 MSTORE POP POP JUMP JUMPDEST PUSH2 0x158C PUSH2 0x1587 DUP3 PUSH2 0x1B05 JUMP JUMPDEST PUSH2 0x1BCC JUMP JUMPDEST DUP3 MSTORE POP POP JUMP JUMPDEST PUSH1 0x0 PUSH2 0x159D DUP3 PUSH2 0x19EF JUMP JUMPDEST PUSH2 0x15A7 DUP2 DUP6 PUSH2 0x1A37 JUMP JUMPDEST SWAP4 POP PUSH2 0x15B2 DUP4 PUSH2 0x19BF JUMP JUMPDEST DUP1 PUSH1 0x0 JUMPDEST DUP4 DUP2 LT ISZERO PUSH2 0x15E3 JUMPI DUP2 MLOAD PUSH2 0x15CA DUP9 DUP3 PUSH2 0x1515 JUMP JUMPDEST SWAP8 POP PUSH2 0x15D5 DUP4 PUSH2 0x1A10 JUMP JUMPDEST SWAP3 POP POP PUSH1 0x1 DUP2 ADD SWAP1 POP PUSH2 0x15B6 JUMP JUMPDEST POP DUP6 SWAP4 POP POP POP POP SWAP3 SWAP2 POP POP JUMP JUMPDEST PUSH1 0x0 PUSH2 0x15FB DUP3 PUSH2 0x19FA JUMP JUMPDEST PUSH2 0x1605 DUP2 DUP6 PUSH2 0x1A48 JUMP JUMPDEST SWAP4 POP PUSH2 0x1610 DUP4 PUSH2 0x19CF JUMP JUMPDEST DUP1 PUSH1 0x0 JUMPDEST DUP4 DUP2 LT ISZERO PUSH2 0x1641 JUMPI DUP2 MLOAD PUSH2 0x1628 DUP9 DUP3 PUSH2 0x152D JUMP JUMPDEST SWAP8 POP PUSH2 0x1633 DUP4 PUSH2 0x1A1D JUMP JUMPDEST SWAP3 POP POP PUSH1 0x1 DUP2 ADD SWAP1 POP PUSH2 0x1614 JUMP JUMPDEST POP DUP6 SWAP4 POP POP POP POP SWAP3 SWAP2 POP POP JUMP JUMPDEST PUSH1 0x0 PUSH2 0x1659 DUP3 PUSH2 0x1A05 JUMP JUMPDEST PUSH2 0x1663 DUP2 DUP6 PUSH2 0x1A59 JUMP JUMPDEST SWAP4 POP PUSH2 0x166E DUP4 PUSH2 0x19DF JUMP JUMPDEST DUP1 PUSH1 0x0 JUMPDEST DUP4 DUP2 LT ISZERO PUSH2 0x169F JUMPI DUP2 MLOAD PUSH2 0x1686 DUP9 DUP3 PUSH2 0x1545 JUMP JUMPDEST SWAP8 POP PUSH2 0x1691 DUP4 PUSH2 0x1A2A JUMP JUMPDEST SWAP3 POP POP PUSH1 0x1 DUP2 ADD SWAP1 POP PUSH2 0x1672 JUMP JUMPDEST POP DUP6 SWAP4 POP POP POP POP SWAP3 SWAP2 POP POP JUMP JUMPDEST PUSH2 0x16B5 DUP2 PUSH2 0x1B17 JUMP JUMPDEST DUP3 MSTORE POP POP JUMP JUMPDEST PUSH2 0x16C4 DUP2 PUSH2 0x1B4D JUMP JUMPDEST DUP3 MSTORE POP POP JUMP JUMPDEST PUSH1 0x0 PUSH2 0x16D7 PUSH1 0x26 DUP4 PUSH2 0x1A6A JUMP JUMPDEST SWAP2 POP PUSH2 0x16E2 DUP3 PUSH2 0x1D28 JUMP JUMPDEST PUSH1 0x40 DUP3 ADD SWAP1 POP SWAP2 SWAP1 POP JUMP JUMPDEST PUSH1 0x0 PUSH2 0x16FA PUSH1 0x18 DUP4 PUSH2 0x1A6A JUMP JUMPDEST SWAP2 POP PUSH2 0x1705 DUP3 PUSH2 0x1D77 JUMP JUMPDEST PUSH1 0x20 DUP3 ADD SWAP1 POP SWAP2 SWAP1 POP JUMP JUMPDEST PUSH1 0x0 PUSH2 0x171D PUSH1 0x20 DUP4 PUSH2 0x1A6A JUMP JUMPDEST SWAP2 POP PUSH2 0x1728 DUP3 PUSH2 0x1DA0 JUMP JUMPDEST PUSH1 0x20 DUP3 ADD SWAP1 POP SWAP2 SWAP1 POP JUMP JUMPDEST PUSH1 0xA0 DUP3 ADD PUSH1 0x0 DUP3 ADD MLOAD PUSH2 0x1749 PUSH1 0x0 DUP6 ADD DUP3 PUSH2 0x179B JUMP JUMPDEST POP PUSH1 0x20 DUP3 ADD MLOAD PUSH2 0x175C PUSH1 0x20 DUP6 ADD DUP3 PUSH2 0x179B JUMP JUMPDEST POP PUSH1 0x40 DUP3 ADD MLOAD PUSH2 0x176F PUSH1 0x40 DUP6 ADD DUP3 PUSH2 0x179B JUMP JUMPDEST POP PUSH1 0x60 DUP3 ADD MLOAD PUSH2 0x1782 PUSH1 0x60 DUP6 ADD DUP3 PUSH2 0x179B JUMP JUMPDEST POP PUSH1 0x80 DUP3 ADD MLOAD PUSH2 0x1795 PUSH1 0x80 DUP6 ADD DUP3 PUSH2 0x155D JUMP JUMPDEST POP POP POP POP JUMP JUMPDEST PUSH2 0x17A4 DUP2 PUSH2 0x1B43 JUMP JUMPDEST DUP3 MSTORE POP POP JUMP JUMPDEST PUSH2 0x17B3 DUP2 PUSH2 0x1B43 JUMP JUMPDEST DUP3 MSTORE POP POP JUMP JUMPDEST PUSH2 0x17CA PUSH2 0x17C5 DUP3 PUSH2 0x1B43 JUMP JUMPDEST PUSH2 0x1BF0 JUMP JUMPDEST DUP3 MSTORE POP POP JUMP JUMPDEST PUSH1 0x0 PUSH2 0x17DC DUP3 DUP8 PUSH2 0x17B9 JUMP JUMPDEST PUSH1 0x20 DUP3 ADD SWAP2 POP PUSH2 0x17EC DUP3 DUP7 PUSH2 0x17B9 JUMP JUMPDEST PUSH1 0x20 DUP3 ADD SWAP2 POP PUSH2 0x17FC DUP3 DUP6 PUSH2 0x157B JUMP JUMPDEST PUSH1 0x14 DUP3 ADD SWAP2 POP PUSH2 0x180C DUP3 DUP5 PUSH2 0x17B9 JUMP JUMPDEST PUSH1 0x20 DUP3 ADD SWAP2 POP DUP2 SWAP1 POP SWAP6 SWAP5 POP POP POP POP POP JUMP JUMPDEST PUSH1 0x0 PUSH1 0x20 DUP3 ADD SWAP1 POP PUSH2 0x1833 PUSH1 0x0 DUP4 ADD DUP5 PUSH2 0x156C JUMP JUMPDEST SWAP3 SWAP2 POP POP JUMP JUMPDEST PUSH1 0x0 PUSH1 0x40 DUP3 ADD SWAP1 POP PUSH2 0x184E PUSH1 0x0 DUP4 ADD DUP6 PUSH2 0x156C JUMP JUMPDEST PUSH2 0x185B PUSH1 0x20 DUP4 ADD DUP5 PUSH2 0x17AA JUMP JUMPDEST SWAP4 SWAP3 POP POP POP JUMP JUMPDEST PUSH1 0x0 PUSH1 0x40 DUP3 ADD SWAP1 POP DUP2 DUP2 SUB PUSH1 0x0 DUP4 ADD MSTORE PUSH2 0x187C DUP2 DUP6 PUSH2 0x1592 JUMP JUMPDEST SWAP1 POP DUP2 DUP2 SUB PUSH1 0x20 DUP4 ADD MSTORE PUSH2 0x1890 DUP2 DUP5 PUSH2 0x164E JUMP JUMPDEST SWAP1 POP SWAP4 SWAP3 POP POP POP JUMP JUMPDEST PUSH1 0x0 PUSH1 0x20 DUP3 ADD SWAP1 POP DUP2 DUP2 SUB PUSH1 0x0 DUP4 ADD MSTORE PUSH2 0x18B3 DUP2 DUP5 PUSH2 0x15F0 JUMP JUMPDEST SWAP1 POP SWAP3 SWAP2 POP POP JUMP JUMPDEST PUSH1 0x0 PUSH1 0x20 DUP3 ADD SWAP1 POP PUSH2 0x18D0 PUSH1 0x0 DUP4 ADD DUP5 PUSH2 0x16AC JUMP JUMPDEST SWAP3 SWAP2 POP POP JUMP JUMPDEST PUSH1 0x0 PUSH1 0x20 DUP3 ADD SWAP1 POP PUSH2 0x18EB PUSH1 0x0 DUP4 ADD DUP5 PUSH2 0x16BB JUMP JUMPDEST SWAP3 SWAP2 POP POP JUMP JUMPDEST PUSH1 0x0 PUSH1 0x20 DUP3 ADD SWAP1 POP DUP2 DUP2 SUB PUSH1 0x0 DUP4 ADD MSTORE PUSH2 0x190A DUP2 PUSH2 0x16CA JUMP JUMPDEST SWAP1 POP SWAP2 SWAP1 POP JUMP JUMPDEST PUSH1 0x0 PUSH1 0x20 DUP3 ADD SWAP1 POP DUP2 DUP2 SUB PUSH1 0x0 DUP4 ADD MSTORE PUSH2 0x192A DUP2 PUSH2 0x16ED JUMP JUMPDEST SWAP1 POP SWAP2 SWAP1 POP JUMP JUMPDEST PUSH1 0x0 PUSH1 0x20 DUP3 ADD SWAP1 POP DUP2 DUP2 SUB PUSH1 0x0 DUP4 ADD MSTORE PUSH2 0x194A DUP2 PUSH2 0x1710 JUMP JUMPDEST SWAP1 POP SWAP2 SWAP1 POP JUMP JUMPDEST PUSH1 0x0 PUSH1 0x20 DUP3 ADD SWAP1 POP PUSH2 0x1966 PUSH1 0x0 DUP4 ADD DUP5 PUSH2 0x17AA JUMP JUMPDEST SWAP3 SWAP2 POP POP JUMP JUMPDEST PUSH1 0x0 PUSH1 0xA0 DUP3 ADD SWAP1 POP PUSH2 0x1981 PUSH1 0x0 DUP4 ADD DUP9 PUSH2 0x17AA JUMP JUMPDEST PUSH2 0x198E PUSH1 0x20 DUP4 ADD DUP8 PUSH2 0x17AA JUMP JUMPDEST PUSH2 0x199B PUSH1 0x40 DUP4 ADD DUP7 PUSH2 0x17AA JUMP JUMPDEST PUSH2 0x19A8 PUSH1 0x60 DUP4 ADD DUP6 PUSH2 0x17AA JUMP JUMPDEST PUSH2 0x19B5 PUSH1 0x80 DUP4 ADD DUP5 PUSH2 0x156C JUMP JUMPDEST SWAP7 SWAP6 POP POP POP POP POP POP JUMP JUMPDEST PUSH1 0x0 DUP2 SWAP1 POP PUSH1 0x20 DUP3 ADD SWAP1 POP SWAP2 SWAP1 POP JUMP JUMPDEST PUSH1 0x0 DUP2 SWAP1 POP PUSH1 0x20 DUP3 ADD SWAP1 POP SWAP2 SWAP1 POP JUMP JUMPDEST PUSH1 0x0 DUP2 SWAP1 POP PUSH1 0x20 DUP3 ADD SWAP1 POP SWAP2 SWAP1 POP JUMP JUMPDEST PUSH1 0x0 DUP2 MLOAD SWAP1 POP SWAP2 SWAP1 POP JUMP JUMPDEST PUSH1 0x0 DUP2 MLOAD SWAP1 POP SWAP2 SWAP1 POP JUMP JUMPDEST PUSH1 0x0 DUP2 MLOAD SWAP1 POP SWAP2 SWAP1 POP JUMP JUMPDEST PUSH1 0x0 PUSH1 0x20 DUP3 ADD SWAP1 POP SWAP2 SWAP1 POP JUMP JUMPDEST PUSH1 0x0 PUSH1 0x20 DUP3 ADD SWAP1 POP SWAP2 SWAP1 POP JUMP JUMPDEST PUSH1 0x0 PUSH1 0x20 DUP3 ADD SWAP1 POP SWAP2 SWAP1 POP JUMP JUMPDEST PUSH1 0x0 DUP3 DUP3 MSTORE PUSH1 0x20 DUP3 ADD SWAP1 POP SWAP3 SWAP2 POP POP JUMP JUMPDEST PUSH1 0x0 DUP3 DUP3 MSTORE PUSH1 0x20 DUP3 ADD SWAP1 POP SWAP3 SWAP2 POP POP JUMP JUMPDEST PUSH1 0x0 DUP3 DUP3 MSTORE PUSH1 0x20 DUP3 ADD SWAP1 POP SWAP3 SWAP2 POP POP JUMP JUMPDEST PUSH1 0x0 DUP3 DUP3 MSTORE PUSH1 0x20 DUP3 ADD SWAP1 POP SWAP3 SWAP2 POP POP JUMP JUMPDEST PUSH1 0x0 PUSH2 0x1A86 DUP3 PUSH2 0x1B43 JUMP JUMPDEST SWAP2 POP PUSH2 0x1A91 DUP4 PUSH2 0x1B43 JUMP JUMPDEST SWAP3 POP DUP3 PUSH32 0xFFFFFFFFFFFFFFFFFFFFFFFFFFFFFFFFFFFFFFFFFFFFFFFFFFFFFFFFFFFFFFFF SUB DUP3 GT ISZERO PUSH2 0x1AC6 JUMPI PUSH2 0x1AC5 PUSH2 0x1C2B JUMP JUMPDEST JUMPDEST DUP3 DUP3 ADD SWAP1 POP SWAP3 SWAP2 POP POP JUMP JUMPDEST PUSH1 0x0 PUSH2 0x1ADC DUP3 PUSH2 0x1B43 JUMP JUMPDEST SWAP2 POP PUSH2 0x1AE7 DUP4 PUSH2 0x1B43 JUMP JUMPDEST SWAP3 POP DUP3 DUP3 LT ISZERO PUSH2 0x1AFA JUMPI PUSH2 0x1AF9 PUSH2 0x1C2B JUMP JUMPDEST JUMPDEST DUP3 DUP3 SUB SWAP1 POP SWAP3 SWAP2 POP POP JUMP JUMPDEST PUSH1 0x0 PUSH2 0x1B10 DUP3 PUSH2 0x1B23 JUMP JUMPDEST SWAP1 POP SWAP2 SWAP1 POP JUMP JUMPDEST PUSH1 0x0 DUP2 ISZERO ISZERO SWAP1 POP SWAP2 SWAP1 POP JUMP JUMPDEST PUSH1 0x0 PUSH20 0xFFFFFFFFFFFFFFFFFFFFFFFFFFFFFFFFFFFFFFFF DUP3 AND SWAP1 POP SWAP2 SWAP1 POP JUMP JUMPDEST PUSH1 0x0 DUP2 SWAP1 POP SWAP2 SWAP1 POP JUMP JUMPDEST PUSH1 0x0 PUSH2 0x1B58 DUP3 PUSH2 0x1B5F JUMP JUMPDEST SWAP1 POP SWAP2 SWAP1 POP JUMP JUMPDEST PUSH1 0x0 PUSH2 0x1B6A DUP3 PUSH2 0x1B71 JUMP JUMPDEST SWAP1 POP SWAP2 SWAP1 POP JUMP JUMPDEST PUSH1 0x0 PUSH2 0x1B7C DUP3 PUSH2 0x1B23 JUMP JUMPDEST SWAP1 POP SWAP2 SWAP1 POP JUMP JUMPDEST PUSH1 0x0 PUSH2 0x1B8E DUP3 PUSH2 0x1B43 JUMP JUMPDEST SWAP2 POP PUSH32 0xFFFFFFFFFFFFFFFFFFFFFFFFFFFFFFFFFFFFFFFFFFFFFFFFFFFFFFFFFFFFFFFF DUP3 EQ ISZERO PUSH2 0x1BC1 JUMPI PUSH2 0x1BC0 PUSH2 0x1C2B JUMP JUMPDEST JUMPDEST PUSH1 0x1 DUP3 ADD SWAP1 POP SWAP2 SWAP1 POP JUMP JUMPDEST PUSH1 0x0 PUSH2 0x1BD7 DUP3 PUSH2 0x1BDE JUMP JUMPDEST SWAP1 POP SWAP2 SWAP1 POP JUMP JUMPDEST PUSH1 0x0 PUSH2 0x1BE9 DUP3 PUSH2 0x1D1B JUMP JUMPDEST SWAP1 POP SWAP2 SWAP1 POP JUMP JUMPDEST PUSH1 0x0 DUP2 SWAP1 POP SWAP2 SWAP1 POP JUMP JUMPDEST PUSH1 0x0 PUSH2 0x1C05 DUP3 PUSH2 0x1B43 JUMP JUMPDEST SWAP2 POP PUSH2 0x1C10 DUP4 PUSH2 0x1B43 JUMP JUMPDEST SWAP3 POP DUP3 PUSH2 0x1C20 JUMPI PUSH2 0x1C1F PUSH2 0x1C5A JUMP JUMPDEST JUMPDEST DUP3 DUP3 MOD SWAP1 POP SWAP3 SWAP2 POP POP JUMP JUMPDEST PUSH32 0x4E487B7100000000000000000000000000000000000000000000000000000000 PUSH1 0x0 MSTORE PUSH1 0x11 PUSH1 0x4 MSTORE PUSH1 0x24 PUSH1 0x0 REVERT JUMPDEST PUSH32 0x4E487B7100000000000000000000000000000000000000000000000000000000 PUSH1 0x0 MSTORE PUSH1 0x12 PUSH1 0x4 MSTORE PUSH1 0x24 PUSH1 0x0 REVERT JUMPDEST PUSH32 0x4E487B7100000000000000000000000000000000000000000000000000000000 PUSH1 0x0 MSTORE PUSH1 0x31 PUSH1 0x4 MSTORE PUSH1 0x24 PUSH1 0x0 REVERT JUMPDEST PUSH32 0x4E487B7100000000000000000000000000000000000000000000000000000000 PUSH1 0x0 MSTORE PUSH1 0x32 PUSH1 0x4 MSTORE PUSH1 0x24 PUSH1 0x0 REVERT JUMPDEST PUSH32 0x4E487B7100000000000000000000000000000000000000000000000000000000 PUSH1 0x0 MSTORE PUSH1 0x41 PUSH1 0x4 MSTORE PUSH1 0x24 PUSH1 0x0 REVERT JUMPDEST PUSH1 0x0 DUP1 REVERT JUMPDEST PUSH1 0x0 DUP2 PUSH1 0x60 SHL SWAP1 POP SWAP2 SWAP1 POP JUMP JUMPDEST PUSH32 0x4F776E61626C653A206E6577206F776E657220697320746865207A65726F2061 PUSH1 0x0 DUP3 ADD MSTORE PUSH32 0x6464726573730000000000000000000000000000000000000000000000000000 PUSH1 0x20 DUP3 ADD MSTORE POP JUMP JUMPDEST PUSH32 0x4E6F7420656E6F7567682066756E647320746F20647261770000000000000000 PUSH1 0x0 DUP3 ADD MSTORE POP JUMP JUMPDEST PUSH32 0x4F776E61626C653A2063616C6C6572206973206E6F7420746865206F776E6572 PUSH1 0x0 DUP3 ADD MSTORE POP JUMP JUMPDEST PUSH2 0x1DD2 DUP2 PUSH2 0x1B05 JUMP JUMPDEST DUP2 EQ PUSH2 0x1DDD JUMPI PUSH1 0x0 DUP1 REVERT JUMPDEST POP JUMP JUMPDEST PUSH2 0x1DE9 DUP2 PUSH2 0x1B17 JUMP JUMPDEST DUP2 EQ PUSH2 0x1DF4 JUMPI PUSH1 0x0 DUP1 REVERT JUMPDEST POP JUMP JUMPDEST PUSH2 0x1E00 DUP2 PUSH2 0x1B43 JUMP JUMPDEST DUP2 EQ PUSH2 0x1E0B JUMPI PUSH1 0x0 DUP1 REVERT JUMPDEST POP JUMP INVALID LOG2 PUSH5 0x6970667358 0x22 SLT KECCAK256 0xE6 DIFFICULTY 0xCD 0x28 CALLER MSIZE 0xE4 SAR SWAP13 PUSH20 0xB2A7B53A1ADC4E55526DAC2EC433698954F5295D CALL GT PUSH5 0x736F6C6343 STOP ADDMOD SMOD STOP CALLER "
				},
				"gasEstimates": {
					"creation": {
						"codeDepositCost": "1549600",
						"executionCost": "infinite",
						"totalCost": "infinite"
					},
					"external": {
						"acesToken()": "2645",
						"currentJackpot()": "infinite",
						"entriesIndex(address,uint256)": "infinite",
						"getUniqueAddresses()": "infinite",
						"getUniqueUsers()": "infinite",
						"isActiveAccount(address)": "2962",
						"owner()": "2545",
						"pickWinner()": "infinite",
						"removeAccount(address)": "infinite",
						"removeEntryFromWallet(address,uint256)": "infinite",
						"renounceOwnership()": "30463",
						"resultLog(uint256,uint256)": "infinite",
						"roundEntries()": "2540",
						"roundEntry(uint256)": "2861",
						"roundNum()": "2475",
						"roundResults(uint256)": "infinite",
						"totalPayout()": "2452",
						"transferOwnership(address)": "30811",
						"updateAccount(address,uint256)": "infinite",
						"userEntries(address)": "2916"
					},
					"internal": {
						"random()": "infinite"
					}
				},
				"methodIdentifiers": {
					"acesToken()": "9b3e4552",
					"currentJackpot()": "f9cee0bd",
					"entriesIndex(address,uint256)": "0d988270",
					"getUniqueAddresses()": "3b98bc65",
					"getUniqueUsers()": "158977de",
					"isActiveAccount(address)": "5bedc390",
					"owner()": "8da5cb5b",
					"pickWinner()": "5d495aea",
					"removeAccount(address)": "c4740a95",
					"removeEntryFromWallet(address,uint256)": "a59460dc",
					"renounceOwnership()": "715018a6",
					"resultLog(uint256,uint256)": "bc15cdf0",
					"roundEntries()": "76636d20",
					"roundEntry(uint256)": "b657dd65",
					"roundNum()": "119b22b3",
					"roundResults(uint256)": "ac128f4f",
					"totalPayout()": "454f7b8f",
					"transferOwnership(address)": "f2fde38b",
					"updateAccount(address,uint256)": "443b80a1",
					"userEntries(address)": "9f10a990"
				}
			},
			"storageLayout": {
				"storage": [
					{
						"astId": 7,
						"contract": "lotto.sol:ACELotto",
						"label": "_owner",
						"offset": 0,
						"slot": "0",
						"type": "t_address"
					},
					{
						"astId": 239,
						"contract": "lotto.sol:ACELotto",
						"label": "roundEntries",
						"offset": 0,
						"slot": "1",
						"type": "t_uint256"
					},
					{
						"astId": 241,
						"contract": "lotto.sol:ACELotto",
						"label": "roundNum",
						"offset": 0,
						"slot": "2",
						"type": "t_uint256"
					},
					{
						"astId": 243,
						"contract": "lotto.sol:ACELotto",
						"label": "totalPayout",
						"offset": 0,
						"slot": "3",
						"type": "t_uint256"
					},
					{
						"astId": 246,
						"contract": "lotto.sol:ACELotto",
						"label": "acesToken",
						"offset": 0,
						"slot": "4",
						"type": "t_contract(IERC20)182"
					},
					{
						"astId": 262,
						"contract": "lotto.sol:ACELotto",
						"label": "roundResults",
						"offset": 0,
						"slot": "5",
						"type": "t_mapping(t_uint256,t_struct(Results)257_storage)"
					},
					{
						"astId": 266,
						"contract": "lotto.sol:ACELotto",
						"label": "roundEntry",
						"offset": 0,
						"slot": "6",
						"type": "t_mapping(t_uint256,t_address)"
					},
					{
						"astId": 271,
						"contract": "lotto.sol:ACELotto",
						"label": "entriesIndex",
						"offset": 0,
						"slot": "7",
						"type": "t_mapping(t_address,t_array(t_uint256)dyn_storage)"
					}
				],
				"types": {
					"t_address": {
						"encoding": "inplace",
						"label": "address",
						"numberOfBytes": "20"
					},
					"t_array(t_uint256)dyn_storage": {
						"base": "t_uint256",
						"encoding": "dynamic_array",
						"label": "uint256[]",
						"numberOfBytes": "32"
					},
					"t_contract(IERC20)182": {
						"encoding": "inplace",
						"label": "contract IERC20",
						"numberOfBytes": "20"
					},
					"t_mapping(t_address,t_array(t_uint256)dyn_storage)": {
						"encoding": "mapping",
						"key": "t_address",
						"label": "mapping(address => uint256[])",
						"numberOfBytes": "32",
						"value": "t_array(t_uint256)dyn_storage"
					},
					"t_mapping(t_uint256,t_address)": {
						"encoding": "mapping",
						"key": "t_uint256",
						"label": "mapping(uint256 => address)",
						"numberOfBytes": "32",
						"value": "t_address"
					},
					"t_mapping(t_uint256,t_struct(Results)257_storage)": {
						"encoding": "mapping",
						"key": "t_uint256",
						"label": "mapping(uint256 => struct ACELotto.Results)",
						"numberOfBytes": "32",
						"value": "t_struct(Results)257_storage"
					},
					"t_struct(Results)257_storage": {
						"encoding": "inplace",
						"label": "struct ACELotto.Results",
						"members": [
							{
								"astId": 248,
								"contract": "lotto.sol:ACELotto",
								"label": "totalEntries",
								"offset": 0,
								"slot": "0",
								"type": "t_uint256"
							},
							{
								"astId": 250,
								"contract": "lotto.sol:ACELotto",
								"label": "winningNumber",
								"offset": 0,
								"slot": "1",
								"type": "t_uint256"
							},
							{
								"astId": 252,
								"contract": "lotto.sol:ACELotto",
								"label": "payout",
								"offset": 0,
								"slot": "2",
								"type": "t_uint256"
							},
							{
								"astId": 254,
								"contract": "lotto.sol:ACELotto",
								"label": "endTime",
								"offset": 0,
								"slot": "3",
								"type": "t_uint256"
							},
							{
								"astId": 256,
								"contract": "lotto.sol:ACELotto",
								"label": "winningAddress",
								"offset": 0,
								"slot": "4",
								"type": "t_address"
							}
						],
						"numberOfBytes": "160"
					},
					"t_uint256": {
						"encoding": "inplace",
						"label": "uint256",
						"numberOfBytes": "32"
					}
				}
			},
			"userdoc": {
				"kind": "user",
				"methods": {},
				"version": 1
			}
		}
	}
}