{
	"staking.sol": {
		"AcesStaking": {
			"abi": [
				{
					"inputs": [
						{
							"internalType": "address",
							"name": "_token",
							"type": "address"
						}
					],
					"stateMutability": "nonpayable",
					"type": "constructor"
				},
				{
					"anonymous": false,
					"inputs": [
						{
							"indexed": false,
							"internalType": "address",
							"name": "user",
							"type": "address"
						},
						{
							"indexed": false,
							"internalType": "uint256",
							"name": "class",
							"type": "uint256"
						},
						{
							"indexed": false,
							"internalType": "uint256",
							"name": "amount",
							"type": "uint256"
						}
					],
					"name": "Claim",
					"type": "event"
				},
				{
					"anonymous": false,
					"inputs": [
						{
							"indexed": false,
							"internalType": "address",
							"name": "user",
							"type": "address"
						},
						{
							"indexed": false,
							"internalType": "uint256",
							"name": "class",
							"type": "uint256"
						},
						{
							"indexed": false,
							"internalType": "uint256",
							"name": "amount",
							"type": "uint256"
						}
					],
					"name": "Compound",
					"type": "event"
				},
				{
					"anonymous": false,
					"inputs": [
						{
							"indexed": false,
							"internalType": "address",
							"name": "user",
							"type": "address"
						},
						{
							"indexed": false,
							"internalType": "uint256",
							"name": "class",
							"type": "uint256"
						},
						{
							"indexed": false,
							"internalType": "uint256",
							"name": "amount",
							"type": "uint256"
						}
					],
					"name": "Deposit",
					"type": "event"
				},
				{
					"anonymous": false,
					"inputs": [
						{
							"indexed": true,
							"internalType": "address",
							"name": "previousOwner",
							"type": "address"
						},
						{
							"indexed": true,
							"internalType": "address",
							"name": "newOwner",
							"type": "address"
						}
					],
					"name": "OwnershipTransferred",
					"type": "event"
				},
				{
					"anonymous": false,
					"inputs": [
						{
							"indexed": false,
							"internalType": "address",
							"name": "account",
							"type": "address"
						}
					],
					"name": "Paused",
					"type": "event"
				},
				{
					"anonymous": false,
					"inputs": [
						{
							"indexed": false,
							"internalType": "address",
							"name": "account",
							"type": "address"
						}
					],
					"name": "Unpaused",
					"type": "event"
				},
				{
					"anonymous": false,
					"inputs": [
						{
							"indexed": false,
							"internalType": "address",
							"name": "user",
							"type": "address"
						},
						{
							"indexed": false,
							"internalType": "uint256",
							"name": "class",
							"type": "uint256"
						},
						{
							"indexed": false,
							"internalType": "uint256",
							"name": "amount",
							"type": "uint256"
						}
					],
					"name": "Withdraw",
					"type": "event"
				},
				{
					"inputs": [],
					"name": "acceptedToken",
					"outputs": [
						{
							"internalType": "contract IERC20",
							"name": "",
							"type": "address"
						}
					],
					"stateMutability": "view",
					"type": "function"
				},
				{
					"inputs": [
						{
							"internalType": "address",
							"name": "_user",
							"type": "address"
						},
						{
							"internalType": "uint256",
							"name": "_level",
							"type": "uint256"
						}
					],
					"name": "calculateRewards",
					"outputs": [
						{
							"internalType": "uint256",
							"name": "",
							"type": "uint256"
						}
					],
					"stateMutability": "view",
					"type": "function"
				},
				{
					"inputs": [
						{
							"internalType": "uint256",
							"name": "level",
							"type": "uint256"
						},
						{
							"internalType": "uint256",
							"name": "_APY",
							"type": "uint256"
						},
						{
							"internalType": "uint256",
							"name": "_lockTime",
							"type": "uint256"
						}
					],
					"name": "changeLevelValues",
					"outputs": [],
					"stateMutability": "nonpayable",
					"type": "function"
				},
				{
					"inputs": [
						{
							"internalType": "uint256",
							"name": "_level",
							"type": "uint256"
						}
					],
					"name": "claim",
					"outputs": [],
					"stateMutability": "nonpayable",
					"type": "function"
				},
				{
					"inputs": [
						{
							"internalType": "uint256",
							"name": "_level",
							"type": "uint256"
						}
					],
					"name": "compound",
					"outputs": [],
					"stateMutability": "nonpayable",
					"type": "function"
				},
				{
					"inputs": [
						{
							"internalType": "uint256",
							"name": "_amount",
							"type": "uint256"
						},
						{
							"internalType": "uint256",
							"name": "_level",
							"type": "uint256"
						}
					],
					"name": "deposit",
					"outputs": [],
					"stateMutability": "nonpayable",
					"type": "function"
				},
				{
					"inputs": [],
					"name": "getLevelsInfo",
					"outputs": [
						{
							"components": [
								{
									"internalType": "uint256",
									"name": "APY",
									"type": "uint256"
								},
								{
									"internalType": "uint256",
									"name": "lockPeriod",
									"type": "uint256"
								}
							],
							"internalType": "struct AcesStaking.Level",
							"name": "level0",
							"type": "tuple"
						},
						{
							"components": [
								{
									"internalType": "uint256",
									"name": "APY",
									"type": "uint256"
								},
								{
									"internalType": "uint256",
									"name": "lockPeriod",
									"type": "uint256"
								}
							],
							"internalType": "struct AcesStaking.Level",
							"name": "level1",
							"type": "tuple"
						},
						{
							"components": [
								{
									"internalType": "uint256",
									"name": "APY",
									"type": "uint256"
								},
								{
									"internalType": "uint256",
									"name": "lockPeriod",
									"type": "uint256"
								}
							],
							"internalType": "struct AcesStaking.Level",
							"name": "level2",
							"type": "tuple"
						}
					],
					"stateMutability": "view",
					"type": "function"
				},
				{
					"inputs": [
						{
							"internalType": "address",
							"name": "_user",
							"type": "address"
						}
					],
					"name": "getUserInfo",
					"outputs": [
						{
							"components": [
								{
									"internalType": "uint256",
									"name": "balance",
									"type": "uint256"
								},
								{
									"internalType": "uint256",
									"name": "claimed",
									"type": "uint256"
								},
								{
									"internalType": "uint256",
									"name": "started",
									"type": "uint256"
								},
								{
									"internalType": "uint256",
									"name": "lastClaim",
									"type": "uint256"
								},
								{
									"internalType": "uint256",
									"name": "unlockTime",
									"type": "uint256"
								}
							],
							"internalType": "struct AcesStaking.User",
							"name": "level0",
							"type": "tuple"
						},
						{
							"components": [
								{
									"internalType": "uint256",
									"name": "balance",
									"type": "uint256"
								},
								{
									"internalType": "uint256",
									"name": "claimed",
									"type": "uint256"
								},
								{
									"internalType": "uint256",
									"name": "started",
									"type": "uint256"
								},
								{
									"internalType": "uint256",
									"name": "lastClaim",
									"type": "uint256"
								},
								{
									"internalType": "uint256",
									"name": "unlockTime",
									"type": "uint256"
								}
							],
							"internalType": "struct AcesStaking.User",
							"name": "level1",
							"type": "tuple"
						},
						{
							"components": [
								{
									"internalType": "uint256",
									"name": "balance",
									"type": "uint256"
								},
								{
									"internalType": "uint256",
									"name": "claimed",
									"type": "uint256"
								},
								{
									"internalType": "uint256",
									"name": "started",
									"type": "uint256"
								},
								{
									"internalType": "uint256",
									"name": "lastClaim",
									"type": "uint256"
								},
								{
									"internalType": "uint256",
									"name": "unlockTime",
									"type": "uint256"
								}
							],
							"internalType": "struct AcesStaking.User",
							"name": "level2",
							"type": "tuple"
						},
						{
							"internalType": "uint256",
							"name": "level0Rewards",
							"type": "uint256"
						},
						{
							"internalType": "uint256",
							"name": "level1Rewards",
							"type": "uint256"
						},
						{
							"internalType": "uint256",
							"name": "level2Rewards",
							"type": "uint256"
						}
					],
					"stateMutability": "view",
					"type": "function"
				},
				{
					"inputs": [
						{
							"internalType": "uint256",
							"name": "",
							"type": "uint256"
						}
					],
					"name": "levelInfo",
					"outputs": [
						{
							"internalType": "uint256",
							"name": "APY",
							"type": "uint256"
						},
						{
							"internalType": "uint256",
							"name": "lockPeriod",
							"type": "uint256"
						}
					],
					"stateMutability": "view",
					"type": "function"
				},
				{
					"inputs": [],
					"name": "owner",
					"outputs": [
						{
							"internalType": "address",
							"name": "",
							"type": "address"
						}
					],
					"stateMutability": "view",
					"type": "function"
				},
				{
					"inputs": [],
					"name": "pause",
					"outputs": [],
					"stateMutability": "nonpayable",
					"type": "function"
				},
				{
					"inputs": [],
					"name": "paused",
					"outputs": [
						{
							"internalType": "bool",
							"name": "",
							"type": "bool"
						}
					],
					"stateMutability": "view",
					"type": "function"
				},
				{
					"inputs": [],
					"name": "renounceOwnership",
					"outputs": [],
					"stateMutability": "nonpayable",
					"type": "function"
				},
				{
					"inputs": [
						{
							"internalType": "address",
							"name": "newOwner",
							"type": "address"
						}
					],
					"name": "transferOwnership",
					"outputs": [],
					"stateMutability": "nonpayable",
					"type": "function"
				},
				{
					"inputs": [],
					"name": "unpause",
					"outputs": [],
					"stateMutability": "nonpayable",
					"type": "function"
				},
				{
					"inputs": [
						{
							"internalType": "address",
							"name": "",
							"type": "address"
						},
						{
							"internalType": "uint256",
							"name": "",
							"type": "uint256"
						}
					],
					"name": "userLevelDeposit",
					"outputs": [
						{
							"internalType": "uint256",
							"name": "balance",
							"type": "uint256"
						},
						{
							"internalType": "uint256",
							"name": "claimed",
							"type": "uint256"
						},
						{
							"internalType": "uint256",
							"name": "started",
							"type": "uint256"
						},
						{
							"internalType": "uint256",
							"name": "lastClaim",
							"type": "uint256"
						},
						{
							"internalType": "uint256",
							"name": "unlockTime",
							"type": "uint256"
						}
					],
					"stateMutability": "view",
					"type": "function"
				},
				{
					"inputs": [
						{
							"internalType": "uint256",
							"name": "_amount",
							"type": "uint256"
						},
						{
							"internalType": "uint256",
							"name": "_level",
							"type": "uint256"
						}
					],
					"name": "withdraw",
					"outputs": [],
					"stateMutability": "nonpayable",
					"type": "function"
				},
				{
					"inputs": [],
					"name": "withdrawTokens",
					"outputs": [],
					"stateMutability": "nonpayable",
					"type": "function"
				}
			],
			"devdoc": {
				"kind": "dev",
				"methods": {
					"owner()": {
						"details": "Returns the address of the current owner."
					},
					"paused()": {
						"details": "Returns true if the contract is paused, and false otherwise."
					},
					"renounceOwnership()": {
						"details": "Leaves the contract without owner. It will not be possible to call `onlyOwner` functions anymore. Can only be called by the current owner. NOTE: Renouncing ownership will leave the contract without an owner, thereby removing any functionality that is only available to the owner."
					},
					"transferOwnership(address)": {
						"details": "Transfers ownership of the contract to a new account (`newOwner`). Can only be called by the current owner."
					}
				},
				"version": 1
			},
			"evm": {
				"assembly": "    /* \"staking.sol\":224:5191  contract AcesStaking is Ownable, Pausable {... */\n  mstore(0x40, 0x80)\n    /* \"staking.sol\":1107:1183  constructor(address _token ) {... */\n  callvalue\n  dup1\n  iszero\n  tag_1\n  jumpi\n  0x00\n  dup1\n  revert\ntag_1:\n  pop\n  mload(0x40)\n  sub(codesize, bytecodeSize)\n  dup1\n  bytecodeSize\n  dup4\n  codecopy\n  dup2\n  dup2\n  add\n  0x40\n  mstore\n  dup2\n  add\n  swap1\n  tag_2\n  swap2\n  swap1\n  tag_3\n  jump\t// in\ntag_2:\n    /* \"@openzeppelin/contracts/access/Ownable.sol\":921:953  _transferOwnership(_msgSender()) */\n  tag_8\n    /* \"@openzeppelin/contracts/access/Ownable.sol\":940:952  _msgSender() */\n  tag_9\n    /* \"@openzeppelin/contracts/access/Ownable.sol\":940:950  _msgSender */\n  shl(0x20, tag_10)\n    /* \"@openzeppelin/contracts/access/Ownable.sol\":940:952  _msgSender() */\n  0x20\n  shr\n  jump\t// in\ntag_9:\n    /* \"@openzeppelin/contracts/access/Ownable.sol\":921:939  _transferOwnership */\n  shl(0x20, tag_11)\n    /* \"@openzeppelin/contracts/access/Ownable.sol\":921:953  _transferOwnership(_msgSender()) */\n  0x20\n  shr\n  jump\t// in\ntag_8:\n    /* \"@openzeppelin/contracts/security/Pausable.sol\":991:996  false */\n  0x00\n    /* \"@openzeppelin/contracts/security/Pausable.sol\":981:988  _paused */\n  dup1\n  0x14\n    /* \"@openzeppelin/contracts/security/Pausable.sol\":981:996  _paused = false */\n  0x0100\n  exp\n  dup2\n  sload\n  dup2\n  0xff\n  mul\n  not\n  and\n  swap1\n  dup4\n  iszero\n  iszero\n  mul\n  or\n  swap1\n  sstore\n  pop\n    /* \"staking.sol\":1169:1175  _token */\n  dup1\n    /* \"staking.sol\":1146:1159  acceptedToken */\n  0x01\n  0x00\n    /* \"staking.sol\":1146:1176  acceptedToken = IERC20(_token) */\n  0x0100\n  exp\n  dup2\n  sload\n  dup2\n  0xffffffffffffffffffffffffffffffffffffffff\n  mul\n  not\n  and\n  swap1\n  dup4\n  0xffffffffffffffffffffffffffffffffffffffff\n  and\n  mul\n  or\n  swap1\n  sstore\n  pop\n    /* \"staking.sol\":1107:1183  constructor(address _token ) {... */\n  pop\n    /* \"staking.sol\":224:5191  contract AcesStaking is Ownable, Pausable {... */\n  jump(tag_14)\n    /* \"@openzeppelin/contracts/utils/Context.sol\":640:736  function _msgSender() internal view virtual returns (address) {... */\ntag_10:\n    /* \"@openzeppelin/contracts/utils/Context.sol\":693:700  address */\n  0x00\n    /* \"@openzeppelin/contracts/utils/Context.sol\":719:729  msg.sender */\n  caller\n    /* \"@openzeppelin/contracts/utils/Context.sol\":712:729  return msg.sender */\n  swap1\n  pop\n    /* \"@openzeppelin/contracts/utils/Context.sol\":640:736  function _msgSender() internal view virtual returns (address) {... */\n  swap1\n  jump\t// out\n    /* \"@openzeppelin/contracts/access/Ownable.sol\":2270:2457  function _transferOwnership(address newOwner) internal virtual {... */\ntag_11:\n    /* \"@openzeppelin/contracts/access/Ownable.sol\":2343:2359  address oldOwner */\n  0x00\n    /* \"@openzeppelin/contracts/access/Ownable.sol\":2362:2368  _owner */\n  dup1\n  0x00\n  swap1\n  sload\n  swap1\n  0x0100\n  exp\n  swap1\n  div\n  0xffffffffffffffffffffffffffffffffffffffff\n  and\n    /* \"@openzeppelin/contracts/access/Ownable.sol\":2343:2368  address oldOwner = _owner */\n  swap1\n  pop\n    /* \"@openzeppelin/contracts/access/Ownable.sol\":2387:2395  newOwner */\n  dup2\n    /* \"@openzeppelin/contracts/access/Ownable.sol\":2378:2384  _owner */\n  0x00\n  dup1\n    /* \"@openzeppelin/contracts/access/Ownable.sol\":2378:2395  _owner = newOwner */\n  0x0100\n  exp\n  dup2\n  sload\n  dup2\n  0xffffffffffffffffffffffffffffffffffffffff\n  mul\n  not\n  and\n  swap1\n  dup4\n  0xffffffffffffffffffffffffffffffffffffffff\n  and\n  mul\n  or\n  swap1\n  sstore\n  pop\n    /* \"@openzeppelin/contracts/access/Ownable.sol\":2441:2449  newOwner */\n  dup2\n    /* \"@openzeppelin/contracts/access/Ownable.sol\":2410:2450  OwnershipTransferred(oldOwner, newOwner) */\n  0xffffffffffffffffffffffffffffffffffffffff\n  and\n    /* \"@openzeppelin/contracts/access/Ownable.sol\":2431:2439  oldOwner */\n  dup2\n    /* \"@openzeppelin/contracts/access/Ownable.sol\":2410:2450  OwnershipTransferred(oldOwner, newOwner) */\n  0xffffffffffffffffffffffffffffffffffffffff\n  and\n  0x8be0079c531659141344cd1fd0a4f28419497f9722a3daafe3b4186f6b6457e0\n  mload(0x40)\n  mload(0x40)\n  dup1\n  swap2\n  sub\n  swap1\n  log3\n    /* \"@openzeppelin/contracts/access/Ownable.sol\":2333:2457  {... */\n  pop\n    /* \"@openzeppelin/contracts/access/Ownable.sol\":2270:2457  function _transferOwnership(address newOwner) internal virtual {... */\n  pop\n  jump\t// out\n    /* \"#utility.yul\":7:150   */\ntag_18:\n    /* \"#utility.yul\":64:69   */\n  0x00\n    /* \"#utility.yul\":95:101   */\n  dup2\n    /* \"#utility.yul\":89:102   */\n  mload\n    /* \"#utility.yul\":80:102   */\n  swap1\n  pop\n    /* \"#utility.yul\":111:144   */\n  tag_20\n    /* \"#utility.yul\":138:143   */\n  dup2\n    /* \"#utility.yul\":111:144   */\n  tag_21\n  jump\t// in\ntag_20:\n    /* \"#utility.yul\":7:150   */\n  swap3\n  swap2\n  pop\n  pop\n  jump\t// out\n    /* \"#utility.yul\":156:507   */\ntag_3:\n    /* \"#utility.yul\":226:232   */\n  0x00\n    /* \"#utility.yul\":275:277   */\n  0x20\n    /* \"#utility.yul\":263:272   */\n  dup3\n    /* \"#utility.yul\":254:261   */\n  dup5\n    /* \"#utility.yul\":250:273   */\n  sub\n    /* \"#utility.yul\":246:278   */\n  slt\n    /* \"#utility.yul\":243:362   */\n  iszero\n  tag_23\n  jumpi\n    /* \"#utility.yul\":281:360   */\n  tag_24\n  tag_25\n  jump\t// in\ntag_24:\n    /* \"#utility.yul\":243:362   */\ntag_23:\n    /* \"#utility.yul\":401:402   */\n  0x00\n    /* \"#utility.yul\":426:490   */\n  tag_26\n    /* \"#utility.yul\":482:489   */\n  dup5\n    /* \"#utility.yul\":473:479   */\n  dup3\n    /* \"#utility.yul\":462:471   */\n  dup6\n    /* \"#utility.yul\":458:480   */\n  add\n    /* \"#utility.yul\":426:490   */\n  tag_18\n  jump\t// in\ntag_26:\n    /* \"#utility.yul\":416:490   */\n  swap2\n  pop\n    /* \"#utility.yul\":372:500   */\n  pop\n    /* \"#utility.yul\":156:507   */\n  swap3\n  swap2\n  pop\n  pop\n  jump\t// out\n    /* \"#utility.yul\":594:690   */\ntag_29:\n    /* \"#utility.yul\":631:638   */\n  0x00\n    /* \"#utility.yul\":660:684   */\n  tag_31\n    /* \"#utility.yul\":678:683   */\n  dup3\n    /* \"#utility.yul\":660:684   */\n  tag_32\n  jump\t// in\ntag_31:\n    /* \"#utility.yul\":649:684   */\n  swap1\n  pop\n    /* \"#utility.yul\":594:690   */\n  swap2\n  swap1\n  pop\n  jump\t// out\n    /* \"#utility.yul\":696:822   */\ntag_32:\n    /* \"#utility.yul\":733:740   */\n  0x00\n    /* \"#utility.yul\":773:815   */\n  0xffffffffffffffffffffffffffffffffffffffff\n    /* \"#utility.yul\":766:771   */\n  dup3\n    /* \"#utility.yul\":762:816   */\n  and\n    /* \"#utility.yul\":751:816   */\n  swap1\n  pop\n    /* \"#utility.yul\":696:822   */\n  swap2\n  swap1\n  pop\n  jump\t// out\n    /* \"#utility.yul\":951:1068   */\ntag_25:\n    /* \"#utility.yul\":1060:1061   */\n  0x00\n    /* \"#utility.yul\":1057:1058   */\n  dup1\n    /* \"#utility.yul\":1050:1062   */\n  revert\n    /* \"#utility.yul\":1074:1196   */\ntag_21:\n    /* \"#utility.yul\":1147:1171   */\n  tag_38\n    /* \"#utility.yul\":1165:1170   */\n  dup2\n    /* \"#utility.yul\":1147:1171   */\n  tag_29\n  jump\t// in\ntag_38:\n    /* \"#utility.yul\":1140:1145   */\n  dup2\n    /* \"#utility.yul\":1137:1172   */\n  eq\n    /* \"#utility.yul\":1127:1190   */\n  tag_39\n  jumpi\n    /* \"#utility.yul\":1186:1187   */\n  0x00\n    /* \"#utility.yul\":1183:1184   */\n  dup1\n    /* \"#utility.yul\":1176:1188   */\n  revert\n    /* \"#utility.yul\":1127:1190   */\ntag_39:\n    /* \"#utility.yul\":1074:1196   */\n  pop\n  jump\t// out\n    /* \"staking.sol\":224:5191  contract AcesStaking is Ownable, Pausable {... */\ntag_14:\n  dataSize(sub_0)\n  dup1\n  dataOffset(sub_0)\n  0x00\n  codecopy\n  0x00\n  return\nstop\n\nsub_0: assembly {\n        /* \"staking.sol\":224:5191  contract AcesStaking is Ownable, Pausable {... */\n      mstore(0x40, 0x80)\n      callvalue\n      dup1\n      iszero\n      tag_1\n      jumpi\n      0x00\n      dup1\n      revert\n    tag_1:\n      pop\n      jumpi(tag_2, lt(calldatasize, 0x04))\n      shr(0xe0, calldataload(0x00))\n      dup1\n      0x8456cb59\n      gt\n      tag_21\n      jumpi\n      dup1\n      0xbeb8314c\n      gt\n      tag_22\n      jumpi\n      dup1\n      0xbeb8314c\n      eq\n      tag_16\n      jumpi\n      dup1\n      0xe2bbb158\n      eq\n      tag_17\n      jumpi\n      dup1\n      0xe788cee5\n      eq\n      tag_18\n      jumpi\n      dup1\n      0xedf501ad\n      eq\n      tag_19\n      jumpi\n      dup1\n      0xf2fde38b\n      eq\n      tag_20\n      jumpi\n      jump(tag_2)\n    tag_22:\n      dup1\n      0x8456cb59\n      eq\n      tag_12\n      jumpi\n      dup1\n      0x8d8f2adb\n      eq\n      tag_13\n      jumpi\n      dup1\n      0x8da5cb5b\n      eq\n      tag_14\n      jumpi\n      dup1\n      0xaa5f7e26\n      eq\n      tag_15\n      jumpi\n      jump(tag_2)\n    tag_21:\n      dup1\n      0x441a3e70\n      gt\n      tag_23\n      jumpi\n      dup1\n      0x441a3e70\n      eq\n      tag_7\n      jumpi\n      dup1\n      0x451c3d80\n      eq\n      tag_8\n      jumpi\n      dup1\n      0x5c975abb\n      eq\n      tag_9\n      jumpi\n      dup1\n      0x6386c1c7\n      eq\n      tag_10\n      jumpi\n      dup1\n      0x715018a6\n      eq\n      tag_11\n      jumpi\n      jump(tag_2)\n    tag_23:\n      dup1\n      0x259ee752\n      eq\n      tag_3\n      jumpi\n      dup1\n      0x32e96203\n      eq\n      tag_4\n      jumpi\n      dup1\n      0x379607f5\n      eq\n      tag_5\n      jumpi\n      dup1\n      0x3f4ba83a\n      eq\n      tag_6\n      jumpi\n    tag_2:\n      0x00\n      dup1\n      revert\n        /* \"staking.sol\":672:740  mapping(address => mapping(uint256 => User)) public userLevelDeposit */\n    tag_3:\n      tag_24\n      0x04\n      dup1\n      calldatasize\n      sub\n      dup2\n      add\n      swap1\n      tag_25\n      swap2\n      swap1\n      tag_26\n      jump\t// in\n    tag_25:\n      tag_27\n      jump\t// in\n    tag_24:\n      mload(0x40)\n      tag_28\n      swap6\n      swap5\n      swap4\n      swap3\n      swap2\n      swap1\n      tag_29\n      jump\t// in\n    tag_28:\n      mload(0x40)\n      dup1\n      swap2\n      sub\n      swap1\n      return\n        /* \"staking.sol\":4860:5047  function changeLevelValues(uint256 level, uint256 _APY, uint256 _lockTime) external onlyOwner {... */\n    tag_4:\n      tag_30\n      0x04\n      dup1\n      calldatasize\n      sub\n      dup2\n      add\n      swap1\n      tag_31\n      swap2\n      swap1\n      tag_32\n      jump\t// in\n    tag_31:\n      tag_33\n      jump\t// in\n    tag_30:\n      stop\n        /* \"staking.sol\":2734:3220  function claim (uint256 _level) external{... */\n    tag_5:\n      tag_34\n      0x04\n      dup1\n      calldatasize\n      sub\n      dup2\n      add\n      swap1\n      tag_35\n      swap2\n      swap1\n      tag_36\n      jump\t// in\n    tag_35:\n      tag_37\n      jump\t// in\n    tag_34:\n      stop\n        /* \"staking.sol\":1304:1368  function unpause () public onlyOwner {... */\n    tag_6:\n      tag_38\n      tag_39\n      jump\t// in\n    tag_38:\n      stop\n        /* \"staking.sol\":2086:2728  function withdraw (uint256 _amount, uint256 _level) public  {... */\n    tag_7:\n      tag_40\n      0x04\n      dup1\n      calldatasize\n      sub\n      dup2\n      add\n      swap1\n      tag_41\n      swap2\n      swap1\n      tag_42\n      jump\t// in\n    tag_41:\n      tag_43\n      jump\t// in\n    tag_40:\n      stop\n        /* \"staking.sol\":317:344  IERC20 public acceptedToken */\n    tag_8:\n      tag_44\n      tag_45\n      jump\t// in\n    tag_44:\n      mload(0x40)\n      tag_46\n      swap2\n      swap1\n      tag_47\n      jump\t// in\n    tag_46:\n      mload(0x40)\n      dup1\n      swap2\n      sub\n      swap1\n      return\n        /* \"@openzeppelin/contracts/security/Pausable.sol\":1098:1182  function paused() public view virtual returns (bool) {... */\n    tag_9:\n      tag_48\n      tag_49\n      jump\t// in\n    tag_48:\n      mload(0x40)\n      tag_50\n      swap2\n      swap1\n      tag_51\n      jump\t// in\n    tag_50:\n      mload(0x40)\n      dup1\n      swap2\n      sub\n      swap1\n      return\n        /* \"staking.sol\":4145:4634  function getUserInfo(address _user) external view returns(User memory level0,  User memory level1, User memory level2, uint256 level0Rewards, uint256 level1Rewards,  uint256 level2Rewards){... */\n    tag_10:\n      tag_52\n      0x04\n      dup1\n      calldatasize\n      sub\n      dup2\n      add\n      swap1\n      tag_53\n      swap2\n      swap1\n      tag_54\n      jump\t// in\n    tag_53:\n      tag_55\n      jump\t// in\n    tag_52:\n      mload(0x40)\n      tag_56\n      swap7\n      swap6\n      swap5\n      swap4\n      swap3\n      swap2\n      swap1\n      tag_57\n      jump\t// in\n    tag_56:\n      mload(0x40)\n      dup1\n      swap2\n      sub\n      swap1\n      return\n        /* \"@openzeppelin/contracts/access/Ownable.sol\":1668:1769  function renounceOwnership() public virtual onlyOwner {... */\n    tag_11:\n      tag_58\n      tag_59\n      jump\t// in\n    tag_58:\n      stop\n        /* \"staking.sol\":1234:1294  function pause () public onlyOwner {... */\n    tag_12:\n      tag_60\n      tag_61\n      jump\t// in\n    tag_60:\n      stop\n        /* \"staking.sol\":5053:5189  function withdrawTokens() external onlyOwner {... */\n    tag_13:\n      tag_62\n      tag_63\n      jump\t// in\n    tag_62:\n      stop\n        /* \"@openzeppelin/contracts/access/Ownable.sol\":1036:1121  function owner() public view virtual returns (address) {... */\n    tag_14:\n      tag_64\n      tag_65\n      jump\t// in\n    tag_64:\n      mload(0x40)\n      tag_66\n      swap2\n      swap1\n      tag_67\n      jump\t// in\n    tag_66:\n      mload(0x40)\n      dup1\n      swap2\n      sub\n      swap1\n      return\n        /* \"staking.sol\":3226:3664  function compound (uint256 _level) external{... */\n    tag_15:\n      tag_68\n      0x04\n      dup1\n      calldatasize\n      sub\n      dup2\n      add\n      swap1\n      tag_69\n      swap2\n      swap1\n      tag_36\n      jump\t// in\n    tag_69:\n      tag_70\n      jump\t// in\n    tag_68:\n      stop\n        /* \"staking.sol\":3670:4135  function calculateRewards (address _user, uint256 _level) public view returns (uint256){... */\n    tag_16:\n      tag_71\n      0x04\n      dup1\n      calldatasize\n      sub\n      dup2\n      add\n      swap1\n      tag_72\n      swap2\n      swap1\n      tag_26\n      jump\t// in\n    tag_72:\n      tag_73\n      jump\t// in\n    tag_71:\n      mload(0x40)\n      tag_74\n      swap2\n      swap1\n      tag_75\n      jump\t// in\n    tag_74:\n      mload(0x40)\n      dup1\n      swap2\n      sub\n      swap1\n      return\n        /* \"staking.sol\":1375:2080  function deposit (uint256 _amount, uint256 _level) public whenNotPaused {... */\n    tag_17:\n      tag_76\n      0x04\n      dup1\n      calldatasize\n      sub\n      dup2\n      add\n      swap1\n      tag_77\n      swap2\n      swap1\n      tag_42\n      jump\t// in\n    tag_77:\n      tag_78\n      jump\t// in\n    tag_76:\n      stop\n        /* \"staking.sol\":4640:4854  function getLevelsInfo() external view returns(Level memory level0, Level memory level1, Level memory level2){... */\n    tag_18:\n      tag_79\n      tag_80\n      jump\t// in\n    tag_79:\n      mload(0x40)\n      tag_81\n      swap4\n      swap3\n      swap2\n      swap1\n      tag_82\n      jump\t// in\n    tag_81:\n      mload(0x40)\n      dup1\n      swap2\n      sub\n      swap1\n      return\n        /* \"staking.sol\":746:788  mapping(uint256 => Level) public levelInfo */\n    tag_19:\n      tag_83\n      0x04\n      dup1\n      calldatasize\n      sub\n      dup2\n      add\n      swap1\n      tag_84\n      swap2\n      swap1\n      tag_36\n      jump\t// in\n    tag_84:\n      tag_85\n      jump\t// in\n    tag_83:\n      mload(0x40)\n      tag_86\n      swap3\n      swap2\n      swap1\n      tag_87\n      jump\t// in\n    tag_86:\n      mload(0x40)\n      dup1\n      swap2\n      sub\n      swap1\n      return\n        /* \"@openzeppelin/contracts/access/Ownable.sol\":1918:2116  function transferOwnership(address newOwner) public virtual onlyOwner {... */\n    tag_20:\n      tag_88\n      0x04\n      dup1\n      calldatasize\n      sub\n      dup2\n      add\n      swap1\n      tag_89\n      swap2\n      swap1\n      tag_54\n      jump\t// in\n    tag_89:\n      tag_90\n      jump\t// in\n    tag_88:\n      stop\n        /* \"staking.sol\":672:740  mapping(address => mapping(uint256 => User)) public userLevelDeposit */\n    tag_27:\n      mstore(0x20, 0x02)\n      dup2\n      0x00\n      mstore\n      mstore(0x20, keccak256(0x00, 0x40))\n      dup1\n      0x00\n      mstore\n      keccak256(0x00, 0x40)\n      0x00\n      swap2\n      pop\n      swap2\n      pop\n      pop\n      dup1\n      0x00\n      add\n      sload\n      swap1\n      dup1\n      0x01\n      add\n      sload\n      swap1\n      dup1\n      0x02\n      add\n      sload\n      swap1\n      dup1\n      0x03\n      add\n      sload\n      swap1\n      dup1\n      0x04\n      add\n      sload\n      swap1\n      pop\n      dup6\n      jump\t// out\n        /* \"staking.sol\":4860:5047  function changeLevelValues(uint256 level, uint256 _APY, uint256 _lockTime) external onlyOwner {... */\n    tag_33:\n        /* \"@openzeppelin/contracts/access/Ownable.sol\":1259:1271  _msgSender() */\n      tag_92\n        /* \"@openzeppelin/contracts/access/Ownable.sol\":1259:1269  _msgSender */\n      tag_93\n        /* \"@openzeppelin/contracts/access/Ownable.sol\":1259:1271  _msgSender() */\n      jump\t// in\n    tag_92:\n        /* \"@openzeppelin/contracts/access/Ownable.sol\":1248:1271  owner() == _msgSender() */\n      0xffffffffffffffffffffffffffffffffffffffff\n      and\n        /* \"@openzeppelin/contracts/access/Ownable.sol\":1248:1255  owner() */\n      tag_94\n        /* \"@openzeppelin/contracts/access/Ownable.sol\":1248:1253  owner */\n      tag_65\n        /* \"@openzeppelin/contracts/access/Ownable.sol\":1248:1255  owner() */\n      jump\t// in\n    tag_94:\n        /* \"@openzeppelin/contracts/access/Ownable.sol\":1248:1271  owner() == _msgSender() */\n      0xffffffffffffffffffffffffffffffffffffffff\n      and\n      eq\n        /* \"@openzeppelin/contracts/access/Ownable.sol\":1240:1308  require(owner() == _msgSender(), \"Ownable: caller is not the owner\") */\n      tag_95\n      jumpi\n      mload(0x40)\n      0x08c379a000000000000000000000000000000000000000000000000000000000\n      dup2\n      mstore\n      0x04\n      add\n      tag_96\n      swap1\n      tag_97\n      jump\t// in\n    tag_96:\n      mload(0x40)\n      dup1\n      swap2\n      sub\n      swap1\n      revert\n    tag_95:\n        /* \"staking.sol\":4987:4991  _APY */\n      dup2\n        /* \"staking.sol\":4964:4973  levelInfo */\n      0x03\n        /* \"staking.sol\":4964:4980  levelInfo[level] */\n      0x00\n        /* \"staking.sol\":4974:4979  level */\n      dup6\n        /* \"staking.sol\":4964:4980  levelInfo[level] */\n      dup2\n      mstore\n      0x20\n      add\n      swap1\n      dup2\n      mstore\n      0x20\n      add\n      0x00\n      keccak256\n        /* \"staking.sol\":4964:4984  levelInfo[level].APY */\n      0x00\n      add\n        /* \"staking.sol\":4964:4991  levelInfo[level].APY = _APY */\n      dup2\n      swap1\n      sstore\n      pop\n        /* \"staking.sol\":5031:5040  _lockTime */\n      dup1\n        /* \"staking.sol\":5001:5010  levelInfo */\n      0x03\n        /* \"staking.sol\":5001:5017  levelInfo[level] */\n      0x00\n        /* \"staking.sol\":5011:5016  level */\n      dup6\n        /* \"staking.sol\":5001:5017  levelInfo[level] */\n      dup2\n      mstore\n      0x20\n      add\n      swap1\n      dup2\n      mstore\n      0x20\n      add\n      0x00\n      keccak256\n        /* \"staking.sol\":5001:5028  levelInfo[level].lockPeriod */\n      0x01\n      add\n        /* \"staking.sol\":5001:5040  levelInfo[level].lockPeriod = _lockTime */\n      dup2\n      swap1\n      sstore\n      pop\n        /* \"staking.sol\":4860:5047  function changeLevelValues(uint256 level, uint256 _APY, uint256 _lockTime) external onlyOwner {... */\n      pop\n      pop\n      pop\n      jump\t// out\n        /* \"staking.sol\":2734:3220  function claim (uint256 _level) external{... */\n    tag_37:\n        /* \"staking.sol\":2784:2802  address _msgSender */\n      0x00\n        /* \"staking.sol\":2805:2815  msg.sender */\n      caller\n        /* \"staking.sol\":2784:2815  address _msgSender = msg.sender */\n      swap1\n      pop\n        /* \"staking.sol\":2880:2881  0 */\n      0x00\n        /* \"staking.sol\":2833:2849  userLevelDeposit */\n      0x02\n        /* \"staking.sol\":2833:2861  userLevelDeposit[_msgSender] */\n      0x00\n        /* \"staking.sol\":2850:2860  _msgSender */\n      dup4\n        /* \"staking.sol\":2833:2861  userLevelDeposit[_msgSender] */\n      0xffffffffffffffffffffffffffffffffffffffff\n      and\n      0xffffffffffffffffffffffffffffffffffffffff\n      and\n      dup2\n      mstore\n      0x20\n      add\n      swap1\n      dup2\n      mstore\n      0x20\n      add\n      0x00\n      keccak256\n        /* \"staking.sol\":2833:2869  userLevelDeposit[_msgSender][_level] */\n      0x00\n        /* \"staking.sol\":2862:2868  _level */\n      dup5\n        /* \"staking.sol\":2833:2869  userLevelDeposit[_msgSender][_level] */\n      dup2\n      mstore\n      0x20\n      add\n      swap1\n      dup2\n      mstore\n      0x20\n      add\n      0x00\n      keccak256\n        /* \"staking.sol\":2833:2877  userLevelDeposit[_msgSender][_level].balance */\n      0x00\n      add\n      sload\n        /* \"staking.sol\":2833:2881  userLevelDeposit[_msgSender][_level].balance > 0 */\n      gt\n        /* \"staking.sol\":2825:2903  require(userLevelDeposit[_msgSender][_level].balance > 0, \"No active deposit\") */\n      tag_100\n      jumpi\n      mload(0x40)\n      0x08c379a000000000000000000000000000000000000000000000000000000000\n      dup2\n      mstore\n      0x04\n      add\n      tag_101\n      swap1\n      tag_102\n      jump\t// in\n    tag_101:\n      mload(0x40)\n      dup1\n      swap2\n      sub\n      swap1\n      revert\n    tag_100:\n        /* \"staking.sol\":2914:2929  uint256 rewards */\n      0x00\n        /* \"staking.sol\":2932:2968  calculateRewards(_msgSender, _level) */\n      tag_103\n        /* \"staking.sol\":2949:2959  _msgSender */\n      dup3\n        /* \"staking.sol\":2961:2967  _level */\n      dup5\n        /* \"staking.sol\":2932:2948  calculateRewards */\n      tag_73\n        /* \"staking.sol\":2932:2968  calculateRewards(_msgSender, _level) */\n      jump\t// in\n    tag_103:\n        /* \"staking.sol\":2914:2968  uint256 rewards = calculateRewards(_msgSender, _level) */\n      swap1\n      pop\n        /* \"staking.sol\":3028:3043  block.timestamp */\n      timestamp\n        /* \"staking.sol\":2979:2995  userLevelDeposit */\n      0x02\n        /* \"staking.sol\":2979:3007  userLevelDeposit[_msgSender] */\n      0x00\n        /* \"staking.sol\":2996:3006  _msgSender */\n      dup5\n        /* \"staking.sol\":2979:3007  userLevelDeposit[_msgSender] */\n      0xffffffffffffffffffffffffffffffffffffffff\n      and\n      0xffffffffffffffffffffffffffffffffffffffff\n      and\n      dup2\n      mstore\n      0x20\n      add\n      swap1\n      dup2\n      mstore\n      0x20\n      add\n      0x00\n      keccak256\n        /* \"staking.sol\":2979:3015  userLevelDeposit[_msgSender][_level] */\n      0x00\n        /* \"staking.sol\":3008:3014  _level */\n      dup6\n        /* \"staking.sol\":2979:3015  userLevelDeposit[_msgSender][_level] */\n      dup2\n      mstore\n      0x20\n      add\n      swap1\n      dup2\n      mstore\n      0x20\n      add\n      0x00\n      keccak256\n        /* \"staking.sol\":2979:3025  userLevelDeposit[_msgSender][_level].lastClaim */\n      0x03\n      add\n        /* \"staking.sol\":2979:3043  userLevelDeposit[_msgSender][_level].lastClaim = block.timestamp */\n      dup2\n      swap1\n      sstore\n      pop\n        /* \"staking.sol\":3101:3108  rewards */\n      dup1\n        /* \"staking.sol\":3053:3069  userLevelDeposit */\n      0x02\n        /* \"staking.sol\":3053:3081  userLevelDeposit[_msgSender] */\n      0x00\n        /* \"staking.sol\":3070:3080  _msgSender */\n      dup5\n        /* \"staking.sol\":3053:3081  userLevelDeposit[_msgSender] */\n      0xffffffffffffffffffffffffffffffffffffffff\n      and\n      0xffffffffffffffffffffffffffffffffffffffff\n      and\n      dup2\n      mstore\n      0x20\n      add\n      swap1\n      dup2\n      mstore\n      0x20\n      add\n      0x00\n      keccak256\n        /* \"staking.sol\":3053:3089  userLevelDeposit[_msgSender][_level] */\n      0x00\n        /* \"staking.sol\":3082:3088  _level */\n      dup6\n        /* \"staking.sol\":3053:3089  userLevelDeposit[_msgSender][_level] */\n      dup2\n      mstore\n      0x20\n      add\n      swap1\n      dup2\n      mstore\n      0x20\n      add\n      0x00\n      keccak256\n        /* \"staking.sol\":3053:3097  userLevelDeposit[_msgSender][_level].claimed */\n      0x01\n      add\n      0x00\n        /* \"staking.sol\":3053:3108  userLevelDeposit[_msgSender][_level].claimed += rewards */\n      dup3\n      dup3\n      sload\n      tag_104\n      swap2\n      swap1\n      tag_105\n      jump\t// in\n    tag_104:\n      swap3\n      pop\n      pop\n      dup2\n      swap1\n      sstore\n      pop\n        /* \"staking.sol\":3119:3132  acceptedToken */\n      0x01\n      0x00\n      swap1\n      sload\n      swap1\n      0x0100\n      exp\n      swap1\n      div\n      0xffffffffffffffffffffffffffffffffffffffff\n      and\n        /* \"staking.sol\":3119:3141  acceptedToken.transfer */\n      0xffffffffffffffffffffffffffffffffffffffff\n      and\n      0xa9059cbb\n        /* \"staking.sol\":3142:3152  _msgSender */\n      dup4\n        /* \"staking.sol\":3154:3161  rewards */\n      dup4\n        /* \"staking.sol\":3119:3162  acceptedToken.transfer(_msgSender, rewards) */\n      mload(0x40)\n      dup4\n      0xffffffff\n      and\n      0xe0\n      shl\n      dup2\n      mstore\n      0x04\n      add\n      tag_106\n      swap3\n      swap2\n      swap1\n      tag_107\n      jump\t// in\n    tag_106:\n      0x20\n      mload(0x40)\n      dup1\n      dup4\n      sub\n      dup2\n      0x00\n      dup8\n      dup1\n      extcodesize\n      iszero\n      dup1\n      iszero\n      tag_108\n      jumpi\n      0x00\n      dup1\n      revert\n    tag_108:\n      pop\n      gas\n      call\n      iszero\n      dup1\n      iszero\n      tag_110\n      jumpi\n      returndatasize\n      0x00\n      dup1\n      returndatacopy\n      revert(0x00, returndatasize)\n    tag_110:\n      pop\n      pop\n      pop\n      pop\n      mload(0x40)\n      returndatasize\n      not(0x1f)\n      0x1f\n      dup3\n      add\n      and\n      dup3\n      add\n      dup1\n      0x40\n      mstore\n      pop\n      dup2\n      add\n      swap1\n      tag_111\n      swap2\n      swap1\n      tag_112\n      jump\t// in\n    tag_111:\n      pop\n        /* \"staking.sol\":3178:3213  Claim (_msgSender, _level, rewards) */\n      0x34fcbac0073d7c3d388e51312faf357774904998eeb8fca628b9e6f65ee1cbf7\n        /* \"staking.sol\":3185:3195  _msgSender */\n      dup3\n        /* \"staking.sol\":3197:3203  _level */\n      dup5\n        /* \"staking.sol\":3205:3212  rewards */\n      dup4\n        /* \"staking.sol\":3178:3213  Claim (_msgSender, _level, rewards) */\n      mload(0x40)\n      tag_113\n      swap4\n      swap3\n      swap2\n      swap1\n      tag_114\n      jump\t// in\n    tag_113:\n      mload(0x40)\n      dup1\n      swap2\n      sub\n      swap1\n      log1\n        /* \"staking.sol\":2774:3220  {... */\n      pop\n      pop\n        /* \"staking.sol\":2734:3220  function claim (uint256 _level) external{... */\n      pop\n      jump\t// out\n        /* \"staking.sol\":1304:1368  function unpause () public onlyOwner {... */\n    tag_39:\n        /* \"@openzeppelin/contracts/access/Ownable.sol\":1259:1271  _msgSender() */\n      tag_116\n        /* \"@openzeppelin/contracts/access/Ownable.sol\":1259:1269  _msgSender */\n      tag_93\n        /* \"@openzeppelin/contracts/access/Ownable.sol\":1259:1271  _msgSender() */\n      jump\t// in\n    tag_116:\n        /* \"@openzeppelin/contracts/access/Ownable.sol\":1248:1271  owner() == _msgSender() */\n      0xffffffffffffffffffffffffffffffffffffffff\n      and\n        /* \"@openzeppelin/contracts/access/Ownable.sol\":1248:1255  owner() */\n      tag_117\n        /* \"@openzeppelin/contracts/access/Ownable.sol\":1248:1253  owner */\n      tag_65\n        /* \"@openzeppelin/contracts/access/Ownable.sol\":1248:1255  owner() */\n      jump\t// in\n    tag_117:\n        /* \"@openzeppelin/contracts/access/Ownable.sol\":1248:1271  owner() == _msgSender() */\n      0xffffffffffffffffffffffffffffffffffffffff\n      and\n      eq\n        /* \"@openzeppelin/contracts/access/Ownable.sol\":1240:1308  require(owner() == _msgSender(), \"Ownable: caller is not the owner\") */\n      tag_118\n      jumpi\n      mload(0x40)\n      0x08c379a000000000000000000000000000000000000000000000000000000000\n      dup2\n      mstore\n      0x04\n      add\n      tag_119\n      swap1\n      tag_97\n      jump\t// in\n    tag_119:\n      mload(0x40)\n      dup1\n      swap2\n      sub\n      swap1\n      revert\n    tag_118:\n        /* \"staking.sol\":1351:1361  _unpause() */\n      tag_121\n        /* \"staking.sol\":1351:1359  _unpause */\n      tag_122\n        /* \"staking.sol\":1351:1361  _unpause() */\n      jump\t// in\n    tag_121:\n        /* \"staking.sol\":1304:1368  function unpause () public onlyOwner {... */\n      jump\t// out\n        /* \"staking.sol\":2086:2728  function withdraw (uint256 _amount, uint256 _level) public  {... */\n    tag_43:\n        /* \"staking.sol\":2156:2174  address _msgSender */\n      0x00\n        /* \"staking.sol\":2177:2187  msg.sender */\n      caller\n        /* \"staking.sol\":2156:2187  address _msgSender = msg.sender */\n      swap1\n      pop\n        /* \"staking.sol\":2253:2260  _amount */\n      dup3\n        /* \"staking.sol\":2205:2221  userLevelDeposit */\n      0x02\n        /* \"staking.sol\":2205:2233  userLevelDeposit[_msgSender] */\n      0x00\n        /* \"staking.sol\":2222:2232  _msgSender */\n      dup4\n        /* \"staking.sol\":2205:2233  userLevelDeposit[_msgSender] */\n      0xffffffffffffffffffffffffffffffffffffffff\n      and\n      0xffffffffffffffffffffffffffffffffffffffff\n      and\n      dup2\n      mstore\n      0x20\n      add\n      swap1\n      dup2\n      mstore\n      0x20\n      add\n      0x00\n      keccak256\n        /* \"staking.sol\":2205:2241  userLevelDeposit[_msgSender][_level] */\n      0x00\n        /* \"staking.sol\":2234:2240  _level */\n      dup5\n        /* \"staking.sol\":2205:2241  userLevelDeposit[_msgSender][_level] */\n      dup2\n      mstore\n      0x20\n      add\n      swap1\n      dup2\n      mstore\n      0x20\n      add\n      0x00\n      keccak256\n        /* \"staking.sol\":2205:2249  userLevelDeposit[_msgSender][_level].balance */\n      0x00\n      add\n      sload\n        /* \"staking.sol\":2205:2260  userLevelDeposit[_msgSender][_level].balance >= _amount */\n      lt\n      iszero\n        /* \"staking.sol\":2197:2283  require(userLevelDeposit[_msgSender][_level].balance >= _amount, \"Not enough deposit\") */\n      tag_124\n      jumpi\n      mload(0x40)\n      0x08c379a000000000000000000000000000000000000000000000000000000000\n      dup2\n      mstore\n      0x04\n      add\n      tag_125\n      swap1\n      tag_126\n      jump\t// in\n    tag_125:\n      mload(0x40)\n      dup1\n      swap2\n      sub\n      swap1\n      revert\n    tag_124:\n        /* \"staking.sol\":2352:2367  block.timestamp */\n      timestamp\n        /* \"staking.sol\":2301:2317  userLevelDeposit */\n      0x02\n        /* \"staking.sol\":2301:2329  userLevelDeposit[_msgSender] */\n      0x00\n        /* \"staking.sol\":2318:2328  _msgSender */\n      dup4\n        /* \"staking.sol\":2301:2329  userLevelDeposit[_msgSender] */\n      0xffffffffffffffffffffffffffffffffffffffff\n      and\n      0xffffffffffffffffffffffffffffffffffffffff\n      and\n      dup2\n      mstore\n      0x20\n      add\n      swap1\n      dup2\n      mstore\n      0x20\n      add\n      0x00\n      keccak256\n        /* \"staking.sol\":2301:2337  userLevelDeposit[_msgSender][_level] */\n      0x00\n        /* \"staking.sol\":2330:2336  _level */\n      dup5\n        /* \"staking.sol\":2301:2337  userLevelDeposit[_msgSender][_level] */\n      dup2\n      mstore\n      0x20\n      add\n      swap1\n      dup2\n      mstore\n      0x20\n      add\n      0x00\n      keccak256\n        /* \"staking.sol\":2301:2348  userLevelDeposit[_msgSender][_level].unlockTime */\n      0x04\n      add\n      sload\n        /* \"staking.sol\":2301:2367  userLevelDeposit[_msgSender][_level].unlockTime <= block.timestamp */\n      gt\n      iszero\n        /* \"staking.sol\":2293:2396  require(userLevelDeposit[_msgSender][_level].unlockTime <= block.timestamp, \"Deposit not unlocked yet\") */\n      tag_127\n      jumpi\n      mload(0x40)\n      0x08c379a000000000000000000000000000000000000000000000000000000000\n      dup2\n      mstore\n      0x04\n      add\n      tag_128\n      swap1\n      tag_129\n      jump\t// in\n    tag_128:\n      mload(0x40)\n      dup1\n      swap2\n      sub\n      swap1\n      revert\n    tag_127:\n        /* \"staking.sol\":2407:2422  uint256 rewards */\n      0x00\n        /* \"staking.sol\":2425:2461  calculateRewards(_msgSender, _level) */\n      tag_130\n        /* \"staking.sol\":2442:2452  _msgSender */\n      dup3\n        /* \"staking.sol\":2454:2460  _level */\n      dup5\n        /* \"staking.sol\":2425:2441  calculateRewards */\n      tag_73\n        /* \"staking.sol\":2425:2461  calculateRewards(_msgSender, _level) */\n      jump\t// in\n    tag_130:\n        /* \"staking.sol\":2407:2461  uint256 rewards = calculateRewards(_msgSender, _level) */\n      swap1\n      pop\n        /* \"staking.sol\":2521:2536  block.timestamp */\n      timestamp\n        /* \"staking.sol\":2472:2488  userLevelDeposit */\n      0x02\n        /* \"staking.sol\":2472:2500  userLevelDeposit[_msgSender] */\n      0x00\n        /* \"staking.sol\":2489:2499  _msgSender */\n      dup5\n        /* \"staking.sol\":2472:2500  userLevelDeposit[_msgSender] */\n      0xffffffffffffffffffffffffffffffffffffffff\n      and\n      0xffffffffffffffffffffffffffffffffffffffff\n      and\n      dup2\n      mstore\n      0x20\n      add\n      swap1\n      dup2\n      mstore\n      0x20\n      add\n      0x00\n      keccak256\n        /* \"staking.sol\":2472:2508  userLevelDeposit[_msgSender][_level] */\n      0x00\n        /* \"staking.sol\":2501:2507  _level */\n      dup6\n        /* \"staking.sol\":2472:2508  userLevelDeposit[_msgSender][_level] */\n      dup2\n      mstore\n      0x20\n      add\n      swap1\n      dup2\n      mstore\n      0x20\n      add\n      0x00\n      keccak256\n        /* \"staking.sol\":2472:2518  userLevelDeposit[_msgSender][_level].lastClaim */\n      0x03\n      add\n        /* \"staking.sol\":2472:2536  userLevelDeposit[_msgSender][_level].lastClaim = block.timestamp */\n      dup2\n      swap1\n      sstore\n      pop\n        /* \"staking.sol\":2602:2609  _amount */\n      dup4\n        /* \"staking.sol\":2554:2570  userLevelDeposit */\n      0x02\n        /* \"staking.sol\":2554:2582  userLevelDeposit[_msgSender] */\n      0x00\n        /* \"staking.sol\":2571:2581  _msgSender */\n      dup5\n        /* \"staking.sol\":2554:2582  userLevelDeposit[_msgSender] */\n      0xffffffffffffffffffffffffffffffffffffffff\n      and\n      0xffffffffffffffffffffffffffffffffffffffff\n      and\n      dup2\n      mstore\n      0x20\n      add\n      swap1\n      dup2\n      mstore\n      0x20\n      add\n      0x00\n      keccak256\n        /* \"staking.sol\":2554:2590  userLevelDeposit[_msgSender][_level] */\n      0x00\n        /* \"staking.sol\":2583:2589  _level */\n      dup6\n        /* \"staking.sol\":2554:2590  userLevelDeposit[_msgSender][_level] */\n      dup2\n      mstore\n      0x20\n      add\n      swap1\n      dup2\n      mstore\n      0x20\n      add\n      0x00\n      keccak256\n        /* \"staking.sol\":2554:2598  userLevelDeposit[_msgSender][_level].balance */\n      0x00\n      add\n      0x00\n        /* \"staking.sol\":2554:2609  userLevelDeposit[_msgSender][_level].balance -= _amount */\n      dup3\n      dup3\n      sload\n      tag_131\n      swap2\n      swap1\n      tag_132\n      jump\t// in\n    tag_131:\n      swap3\n      pop\n      pop\n      dup2\n      swap1\n      sstore\n      pop\n        /* \"staking.sol\":2620:2633  acceptedToken */\n      0x01\n      0x00\n      swap1\n      sload\n      swap1\n      0x0100\n      exp\n      swap1\n      div\n      0xffffffffffffffffffffffffffffffffffffffff\n      and\n        /* \"staking.sol\":2620:2642  acceptedToken.transfer */\n      0xffffffffffffffffffffffffffffffffffffffff\n      and\n      0xa9059cbb\n        /* \"staking.sol\":2643:2653  _msgSender */\n      dup4\n        /* \"staking.sol\":2665:2672  rewards */\n      dup4\n        /* \"staking.sol\":2655:2662  _amount */\n      dup8\n        /* \"staking.sol\":2655:2672  _amount + rewards */\n      tag_133\n      swap2\n      swap1\n      tag_105\n      jump\t// in\n    tag_133:\n        /* \"staking.sol\":2620:2673  acceptedToken.transfer(_msgSender, _amount + rewards) */\n      mload(0x40)\n      dup4\n      0xffffffff\n      and\n      0xe0\n      shl\n      dup2\n      mstore\n      0x04\n      add\n      tag_134\n      swap3\n      swap2\n      swap1\n      tag_107\n      jump\t// in\n    tag_134:\n      0x20\n      mload(0x40)\n      dup1\n      dup4\n      sub\n      dup2\n      0x00\n      dup8\n      dup1\n      extcodesize\n      iszero\n      dup1\n      iszero\n      tag_135\n      jumpi\n      0x00\n      dup1\n      revert\n    tag_135:\n      pop\n      gas\n      call\n      iszero\n      dup1\n      iszero\n      tag_137\n      jumpi\n      returndatasize\n      0x00\n      dup1\n      returndatacopy\n      revert(0x00, returndatasize)\n    tag_137:\n      pop\n      pop\n      pop\n      pop\n      mload(0x40)\n      returndatasize\n      not(0x1f)\n      0x1f\n      dup3\n      add\n      and\n      dup3\n      add\n      dup1\n      0x40\n      mstore\n      pop\n      dup2\n      add\n      swap1\n      tag_138\n      swap2\n      swap1\n      tag_112\n      jump\t// in\n    tag_138:\n      pop\n        /* \"staking.sol\":2689:2721  Withdraw(_msgSender, 0, _amount) */\n      0xf279e6a1f5e320cca91135676d9cb6e44ca8a08c0b88342bcdb1144f6511b568\n        /* \"staking.sol\":2698:2708  _msgSender */\n      dup3\n        /* \"staking.sol\":2710:2711  0 */\n      0x00\n        /* \"staking.sol\":2713:2720  _amount */\n      dup7\n        /* \"staking.sol\":2689:2721  Withdraw(_msgSender, 0, _amount) */\n      mload(0x40)\n      tag_139\n      swap4\n      swap3\n      swap2\n      swap1\n      tag_140\n      jump\t// in\n    tag_139:\n      mload(0x40)\n      dup1\n      swap2\n      sub\n      swap1\n      log1\n        /* \"staking.sol\":2146:2728  {... */\n      pop\n      pop\n        /* \"staking.sol\":2086:2728  function withdraw (uint256 _amount, uint256 _level) public  {... */\n      pop\n      pop\n      jump\t// out\n        /* \"staking.sol\":317:344  IERC20 public acceptedToken */\n    tag_45:\n      0x01\n      0x00\n      swap1\n      sload\n      swap1\n      0x0100\n      exp\n      swap1\n      div\n      0xffffffffffffffffffffffffffffffffffffffff\n      and\n      dup2\n      jump\t// out\n        /* \"@openzeppelin/contracts/security/Pausable.sol\":1098:1182  function paused() public view virtual returns (bool) {... */\n    tag_49:\n        /* \"@openzeppelin/contracts/security/Pausable.sol\":1145:1149  bool */\n      0x00\n        /* \"@openzeppelin/contracts/security/Pausable.sol\":1168:1175  _paused */\n      dup1\n      0x14\n      swap1\n      sload\n      swap1\n      0x0100\n      exp\n      swap1\n      div\n      0xff\n      and\n        /* \"@openzeppelin/contracts/security/Pausable.sol\":1161:1175  return _paused */\n      swap1\n      pop\n        /* \"@openzeppelin/contracts/security/Pausable.sol\":1098:1182  function paused() public view virtual returns (bool) {... */\n      swap1\n      jump\t// out\n        /* \"staking.sol\":4145:4634  function getUserInfo(address _user) external view returns(User memory level0,  User memory level1, User memory level2, uint256 level0Rewards, uint256 level1Rewards,  uint256 level2Rewards){... */\n    tag_55:\n        /* \"staking.sol\":4203:4221  User memory level0 */\n      tag_142\n      tag_143\n      jump\t// in\n    tag_142:\n        /* \"staking.sol\":4224:4242  User memory level1 */\n      tag_144\n      tag_143\n      jump\t// in\n    tag_144:\n        /* \"staking.sol\":4244:4262  User memory level2 */\n      tag_145\n      tag_143\n      jump\t// in\n    tag_145:\n        /* \"staking.sol\":4264:4285  uint256 level0Rewards */\n      0x00\n        /* \"staking.sol\":4287:4308  uint256 level1Rewards */\n      dup1\n        /* \"staking.sol\":4311:4332  uint256 level2Rewards */\n      0x00\n        /* \"staking.sol\":4352:4368  userLevelDeposit */\n      0x02\n        /* \"staking.sol\":4352:4375  userLevelDeposit[_user] */\n      0x00\n        /* \"staking.sol\":4369:4374  _user */\n      dup9\n        /* \"staking.sol\":4352:4375  userLevelDeposit[_user] */\n      0xffffffffffffffffffffffffffffffffffffffff\n      and\n      0xffffffffffffffffffffffffffffffffffffffff\n      and\n      dup2\n      mstore\n      0x20\n      add\n      swap1\n      dup2\n      mstore\n      0x20\n      add\n      0x00\n      keccak256\n        /* \"staking.sol\":4352:4378  userLevelDeposit[_user][0] */\n      0x00\n        /* \"staking.sol\":4376:4377  0 */\n      dup1\n        /* \"staking.sol\":4352:4378  userLevelDeposit[_user][0] */\n      dup2\n      mstore\n      0x20\n      add\n      swap1\n      dup2\n      mstore\n      0x20\n      add\n      0x00\n      keccak256\n        /* \"staking.sol\":4343:4378  level0 = userLevelDeposit[_user][0] */\n      mload(0x40)\n      dup1\n      0xa0\n      add\n      0x40\n      mstore\n      swap1\n      dup2\n      0x00\n      dup3\n      add\n      sload\n      dup2\n      mstore\n      0x20\n      add\n      0x01\n      dup3\n      add\n      sload\n      dup2\n      mstore\n      0x20\n      add\n      0x02\n      dup3\n      add\n      sload\n      dup2\n      mstore\n      0x20\n      add\n      0x03\n      dup3\n      add\n      sload\n      dup2\n      mstore\n      0x20\n      add\n      0x04\n      dup3\n      add\n      sload\n      dup2\n      mstore\n      pop\n      pop\n      swap6\n      pop\n        /* \"staking.sol\":4397:4413  userLevelDeposit */\n      0x02\n        /* \"staking.sol\":4397:4420  userLevelDeposit[_user] */\n      0x00\n        /* \"staking.sol\":4414:4419  _user */\n      dup9\n        /* \"staking.sol\":4397:4420  userLevelDeposit[_user] */\n      0xffffffffffffffffffffffffffffffffffffffff\n      and\n      0xffffffffffffffffffffffffffffffffffffffff\n      and\n      dup2\n      mstore\n      0x20\n      add\n      swap1\n      dup2\n      mstore\n      0x20\n      add\n      0x00\n      keccak256\n        /* \"staking.sol\":4397:4423  userLevelDeposit[_user][1] */\n      0x00\n        /* \"staking.sol\":4421:4422  1 */\n      0x01\n        /* \"staking.sol\":4397:4423  userLevelDeposit[_user][1] */\n      dup2\n      mstore\n      0x20\n      add\n      swap1\n      dup2\n      mstore\n      0x20\n      add\n      0x00\n      keccak256\n        /* \"staking.sol\":4388:4423  level1 = userLevelDeposit[_user][1] */\n      mload(0x40)\n      dup1\n      0xa0\n      add\n      0x40\n      mstore\n      swap1\n      dup2\n      0x00\n      dup3\n      add\n      sload\n      dup2\n      mstore\n      0x20\n      add\n      0x01\n      dup3\n      add\n      sload\n      dup2\n      mstore\n      0x20\n      add\n      0x02\n      dup3\n      add\n      sload\n      dup2\n      mstore\n      0x20\n      add\n      0x03\n      dup3\n      add\n      sload\n      dup2\n      mstore\n      0x20\n      add\n      0x04\n      dup3\n      add\n      sload\n      dup2\n      mstore\n      pop\n      pop\n      swap5\n      pop\n        /* \"staking.sol\":4442:4458  userLevelDeposit */\n      0x02\n        /* \"staking.sol\":4442:4465  userLevelDeposit[_user] */\n      0x00\n        /* \"staking.sol\":4459:4464  _user */\n      dup9\n        /* \"staking.sol\":4442:4465  userLevelDeposit[_user] */\n      0xffffffffffffffffffffffffffffffffffffffff\n      and\n      0xffffffffffffffffffffffffffffffffffffffff\n      and\n      dup2\n      mstore\n      0x20\n      add\n      swap1\n      dup2\n      mstore\n      0x20\n      add\n      0x00\n      keccak256\n        /* \"staking.sol\":4442:4468  userLevelDeposit[_user][2] */\n      0x00\n        /* \"staking.sol\":4466:4467  2 */\n      0x02\n        /* \"staking.sol\":4442:4468  userLevelDeposit[_user][2] */\n      dup2\n      mstore\n      0x20\n      add\n      swap1\n      dup2\n      mstore\n      0x20\n      add\n      0x00\n      keccak256\n        /* \"staking.sol\":4433:4468  level2 = userLevelDeposit[_user][2] */\n      mload(0x40)\n      dup1\n      0xa0\n      add\n      0x40\n      mstore\n      swap1\n      dup2\n      0x00\n      dup3\n      add\n      sload\n      dup2\n      mstore\n      0x20\n      add\n      0x01\n      dup3\n      add\n      sload\n      dup2\n      mstore\n      0x20\n      add\n      0x02\n      dup3\n      add\n      sload\n      dup2\n      mstore\n      0x20\n      add\n      0x03\n      dup3\n      add\n      sload\n      dup2\n      mstore\n      0x20\n      add\n      0x04\n      dup3\n      add\n      sload\n      dup2\n      mstore\n      pop\n      pop\n      swap4\n      pop\n        /* \"staking.sol\":4497:4523  calculateRewards(_user, 0) */\n      tag_147\n        /* \"staking.sol\":4514:4519  _user */\n      dup8\n        /* \"staking.sol\":4521:4522  0 */\n      0x00\n        /* \"staking.sol\":4497:4513  calculateRewards */\n      tag_73\n        /* \"staking.sol\":4497:4523  calculateRewards(_user, 0) */\n      jump\t// in\n    tag_147:\n        /* \"staking.sol\":4481:4523  level0Rewards = calculateRewards(_user, 0) */\n      swap3\n      pop\n        /* \"staking.sol\":4549:4575  calculateRewards(_user, 1) */\n      tag_148\n        /* \"staking.sol\":4566:4571  _user */\n      dup8\n        /* \"staking.sol\":4573:4574  1 */\n      0x01\n        /* \"staking.sol\":4549:4565  calculateRewards */\n      tag_73\n        /* \"staking.sol\":4549:4575  calculateRewards(_user, 1) */\n      jump\t// in\n    tag_148:\n        /* \"staking.sol\":4533:4575  level1Rewards = calculateRewards(_user, 1) */\n      swap2\n      pop\n        /* \"staking.sol\":4601:4627  calculateRewards(_user, 2) */\n      tag_149\n        /* \"staking.sol\":4618:4623  _user */\n      dup8\n        /* \"staking.sol\":4625:4626  2 */\n      0x02\n        /* \"staking.sol\":4601:4617  calculateRewards */\n      tag_73\n        /* \"staking.sol\":4601:4627  calculateRewards(_user, 2) */\n      jump\t// in\n    tag_149:\n        /* \"staking.sol\":4585:4627  level2Rewards = calculateRewards(_user, 2) */\n      swap1\n      pop\n        /* \"staking.sol\":4145:4634  function getUserInfo(address _user) external view returns(User memory level0,  User memory level1, User memory level2, uint256 level0Rewards, uint256 level1Rewards,  uint256 level2Rewards){... */\n      swap2\n      swap4\n      swap6\n      pop\n      swap2\n      swap4\n      swap6\n      jump\t// out\n        /* \"@openzeppelin/contracts/access/Ownable.sol\":1668:1769  function renounceOwnership() public virtual onlyOwner {... */\n    tag_59:\n        /* \"@openzeppelin/contracts/access/Ownable.sol\":1259:1271  _msgSender() */\n      tag_151\n        /* \"@openzeppelin/contracts/access/Ownable.sol\":1259:1269  _msgSender */\n      tag_93\n        /* \"@openzeppelin/contracts/access/Ownable.sol\":1259:1271  _msgSender() */\n      jump\t// in\n    tag_151:\n        /* \"@openzeppelin/contracts/access/Ownable.sol\":1248:1271  owner() == _msgSender() */\n      0xffffffffffffffffffffffffffffffffffffffff\n      and\n        /* \"@openzeppelin/contracts/access/Ownable.sol\":1248:1255  owner() */\n      tag_152\n        /* \"@openzeppelin/contracts/access/Ownable.sol\":1248:1253  owner */\n      tag_65\n        /* \"@openzeppelin/contracts/access/Ownable.sol\":1248:1255  owner() */\n      jump\t// in\n    tag_152:\n        /* \"@openzeppelin/contracts/access/Ownable.sol\":1248:1271  owner() == _msgSender() */\n      0xffffffffffffffffffffffffffffffffffffffff\n      and\n      eq\n        /* \"@openzeppelin/contracts/access/Ownable.sol\":1240:1308  require(owner() == _msgSender(), \"Ownable: caller is not the owner\") */\n      tag_153\n      jumpi\n      mload(0x40)\n      0x08c379a000000000000000000000000000000000000000000000000000000000\n      dup2\n      mstore\n      0x04\n      add\n      tag_154\n      swap1\n      tag_97\n      jump\t// in\n    tag_154:\n      mload(0x40)\n      dup1\n      swap2\n      sub\n      swap1\n      revert\n    tag_153:\n        /* \"@openzeppelin/contracts/access/Ownable.sol\":1732:1762  _transferOwnership(address(0)) */\n      tag_156\n        /* \"@openzeppelin/contracts/access/Ownable.sol\":1759:1760  0 */\n      0x00\n        /* \"@openzeppelin/contracts/access/Ownable.sol\":1732:1750  _transferOwnership */\n      tag_157\n        /* \"@openzeppelin/contracts/access/Ownable.sol\":1732:1762  _transferOwnership(address(0)) */\n      jump\t// in\n    tag_156:\n        /* \"@openzeppelin/contracts/access/Ownable.sol\":1668:1769  function renounceOwnership() public virtual onlyOwner {... */\n      jump\t// out\n        /* \"staking.sol\":1234:1294  function pause () public onlyOwner {... */\n    tag_61:\n        /* \"@openzeppelin/contracts/access/Ownable.sol\":1259:1271  _msgSender() */\n      tag_159\n        /* \"@openzeppelin/contracts/access/Ownable.sol\":1259:1269  _msgSender */\n      tag_93\n        /* \"@openzeppelin/contracts/access/Ownable.sol\":1259:1271  _msgSender() */\n      jump\t// in\n    tag_159:\n        /* \"@openzeppelin/contracts/access/Ownable.sol\":1248:1271  owner() == _msgSender() */\n      0xffffffffffffffffffffffffffffffffffffffff\n      and\n        /* \"@openzeppelin/contracts/access/Ownable.sol\":1248:1255  owner() */\n      tag_160\n        /* \"@openzeppelin/contracts/access/Ownable.sol\":1248:1253  owner */\n      tag_65\n        /* \"@openzeppelin/contracts/access/Ownable.sol\":1248:1255  owner() */\n      jump\t// in\n    tag_160:\n        /* \"@openzeppelin/contracts/access/Ownable.sol\":1248:1271  owner() == _msgSender() */\n      0xffffffffffffffffffffffffffffffffffffffff\n      and\n      eq\n        /* \"@openzeppelin/contracts/access/Ownable.sol\":1240:1308  require(owner() == _msgSender(), \"Ownable: caller is not the owner\") */\n      tag_161\n      jumpi\n      mload(0x40)\n      0x08c379a000000000000000000000000000000000000000000000000000000000\n      dup2\n      mstore\n      0x04\n      add\n      tag_162\n      swap1\n      tag_97\n      jump\t// in\n    tag_162:\n      mload(0x40)\n      dup1\n      swap2\n      sub\n      swap1\n      revert\n    tag_161:\n        /* \"staking.sol\":1279:1287  _pause() */\n      tag_164\n        /* \"staking.sol\":1279:1285  _pause */\n      tag_165\n        /* \"staking.sol\":1279:1287  _pause() */\n      jump\t// in\n    tag_164:\n        /* \"staking.sol\":1234:1294  function pause () public onlyOwner {... */\n      jump\t// out\n        /* \"staking.sol\":5053:5189  function withdrawTokens() external onlyOwner {... */\n    tag_63:\n        /* \"@openzeppelin/contracts/access/Ownable.sol\":1259:1271  _msgSender() */\n      tag_167\n        /* \"@openzeppelin/contracts/access/Ownable.sol\":1259:1269  _msgSender */\n      tag_93\n        /* \"@openzeppelin/contracts/access/Ownable.sol\":1259:1271  _msgSender() */\n      jump\t// in\n    tag_167:\n        /* \"@openzeppelin/contracts/access/Ownable.sol\":1248:1271  owner() == _msgSender() */\n      0xffffffffffffffffffffffffffffffffffffffff\n      and\n        /* \"@openzeppelin/contracts/access/Ownable.sol\":1248:1255  owner() */\n      tag_168\n        /* \"@openzeppelin/contracts/access/Ownable.sol\":1248:1253  owner */\n      tag_65\n        /* \"@openzeppelin/contracts/access/Ownable.sol\":1248:1255  owner() */\n      jump\t// in\n    tag_168:\n        /* \"@openzeppelin/contracts/access/Ownable.sol\":1248:1271  owner() == _msgSender() */\n      0xffffffffffffffffffffffffffffffffffffffff\n      and\n      eq\n        /* \"@openzeppelin/contracts/access/Ownable.sol\":1240:1308  require(owner() == _msgSender(), \"Ownable: caller is not the owner\") */\n      tag_169\n      jumpi\n      mload(0x40)\n      0x08c379a000000000000000000000000000000000000000000000000000000000\n      dup2\n      mstore\n      0x04\n      add\n      tag_170\n      swap1\n      tag_97\n      jump\t// in\n    tag_170:\n      mload(0x40)\n      dup1\n      swap2\n      sub\n      swap1\n      revert\n    tag_169:\n        /* \"staking.sol\":5108:5121  acceptedToken */\n      0x01\n      0x00\n      swap1\n      sload\n      swap1\n      0x0100\n      exp\n      swap1\n      div\n      0xffffffffffffffffffffffffffffffffffffffff\n      and\n        /* \"staking.sol\":5108:5130  acceptedToken.transfer */\n      0xffffffffffffffffffffffffffffffffffffffff\n      and\n      0xa9059cbb\n        /* \"staking.sol\":5131:5141  msg.sender */\n      caller\n        /* \"staking.sol\":5143:5156  acceptedToken */\n      0x01\n      0x00\n      swap1\n      sload\n      swap1\n      0x0100\n      exp\n      swap1\n      div\n      0xffffffffffffffffffffffffffffffffffffffff\n      and\n        /* \"staking.sol\":5143:5166  acceptedToken.balanceOf */\n      0xffffffffffffffffffffffffffffffffffffffff\n      and\n      0x70a08231\n        /* \"staking.sol\":5175:5179  this */\n      address\n        /* \"staking.sol\":5143:5181  acceptedToken.balanceOf(address(this)) */\n      mload(0x40)\n      dup3\n      0xffffffff\n      and\n      0xe0\n      shl\n      dup2\n      mstore\n      0x04\n      add\n      tag_172\n      swap2\n      swap1\n      tag_67\n      jump\t// in\n    tag_172:\n      0x20\n      mload(0x40)\n      dup1\n      dup4\n      sub\n      dup2\n      dup7\n      dup1\n      extcodesize\n      iszero\n      dup1\n      iszero\n      tag_173\n      jumpi\n      0x00\n      dup1\n      revert\n    tag_173:\n      pop\n      gas\n      staticcall\n      iszero\n      dup1\n      iszero\n      tag_175\n      jumpi\n      returndatasize\n      0x00\n      dup1\n      returndatacopy\n      revert(0x00, returndatasize)\n    tag_175:\n      pop\n      pop\n      pop\n      pop\n      mload(0x40)\n      returndatasize\n      not(0x1f)\n      0x1f\n      dup3\n      add\n      and\n      dup3\n      add\n      dup1\n      0x40\n      mstore\n      pop\n      dup2\n      add\n      swap1\n      tag_176\n      swap2\n      swap1\n      tag_177\n      jump\t// in\n    tag_176:\n        /* \"staking.sol\":5108:5182  acceptedToken.transfer(msg.sender, acceptedToken.balanceOf(address(this))) */\n      mload(0x40)\n      dup4\n      0xffffffff\n      and\n      0xe0\n      shl\n      dup2\n      mstore\n      0x04\n      add\n      tag_178\n      swap3\n      swap2\n      swap1\n      tag_107\n      jump\t// in\n    tag_178:\n      0x20\n      mload(0x40)\n      dup1\n      dup4\n      sub\n      dup2\n      0x00\n      dup8\n      dup1\n      extcodesize\n      iszero\n      dup1\n      iszero\n      tag_179\n      jumpi\n      0x00\n      dup1\n      revert\n    tag_179:\n      pop\n      gas\n      call\n      iszero\n      dup1\n      iszero\n      tag_181\n      jumpi\n      returndatasize\n      0x00\n      dup1\n      returndatacopy\n      revert(0x00, returndatasize)\n    tag_181:\n      pop\n      pop\n      pop\n      pop\n      mload(0x40)\n      returndatasize\n      not(0x1f)\n      0x1f\n      dup3\n      add\n      and\n      dup3\n      add\n      dup1\n      0x40\n      mstore\n      pop\n      dup2\n      add\n      swap1\n      tag_182\n      swap2\n      swap1\n      tag_112\n      jump\t// in\n    tag_182:\n      pop\n        /* \"staking.sol\":5053:5189  function withdrawTokens() external onlyOwner {... */\n      jump\t// out\n        /* \"@openzeppelin/contracts/access/Ownable.sol\":1036:1121  function owner() public view virtual returns (address) {... */\n    tag_65:\n        /* \"@openzeppelin/contracts/access/Ownable.sol\":1082:1089  address */\n      0x00\n        /* \"@openzeppelin/contracts/access/Ownable.sol\":1108:1114  _owner */\n      dup1\n      0x00\n      swap1\n      sload\n      swap1\n      0x0100\n      exp\n      swap1\n      div\n      0xffffffffffffffffffffffffffffffffffffffff\n      and\n        /* \"@openzeppelin/contracts/access/Ownable.sol\":1101:1114  return _owner */\n      swap1\n      pop\n        /* \"@openzeppelin/contracts/access/Ownable.sol\":1036:1121  function owner() public view virtual returns (address) {... */\n      swap1\n      jump\t// out\n        /* \"staking.sol\":3226:3664  function compound (uint256 _level) external{... */\n    tag_70:\n        /* \"staking.sol\":3279:3297  address _msgSender */\n      0x00\n        /* \"staking.sol\":3300:3310  msg.sender */\n      caller\n        /* \"staking.sol\":3279:3310  address _msgSender = msg.sender */\n      swap1\n      pop\n        /* \"staking.sol\":3375:3376  0 */\n      0x00\n        /* \"staking.sol\":3328:3344  userLevelDeposit */\n      0x02\n        /* \"staking.sol\":3328:3356  userLevelDeposit[_msgSender] */\n      0x00\n        /* \"staking.sol\":3345:3355  _msgSender */\n      dup4\n        /* \"staking.sol\":3328:3356  userLevelDeposit[_msgSender] */\n      0xffffffffffffffffffffffffffffffffffffffff\n      and\n      0xffffffffffffffffffffffffffffffffffffffff\n      and\n      dup2\n      mstore\n      0x20\n      add\n      swap1\n      dup2\n      mstore\n      0x20\n      add\n      0x00\n      keccak256\n        /* \"staking.sol\":3328:3364  userLevelDeposit[_msgSender][_level] */\n      0x00\n        /* \"staking.sol\":3357:3363  _level */\n      dup5\n        /* \"staking.sol\":3328:3364  userLevelDeposit[_msgSender][_level] */\n      dup2\n      mstore\n      0x20\n      add\n      swap1\n      dup2\n      mstore\n      0x20\n      add\n      0x00\n      keccak256\n        /* \"staking.sol\":3328:3372  userLevelDeposit[_msgSender][_level].balance */\n      0x00\n      add\n      sload\n        /* \"staking.sol\":3328:3376  userLevelDeposit[_msgSender][_level].balance > 0 */\n      gt\n        /* \"staking.sol\":3320:3398  require(userLevelDeposit[_msgSender][_level].balance > 0, \"No active deposit\") */\n      tag_185\n      jumpi\n      mload(0x40)\n      0x08c379a000000000000000000000000000000000000000000000000000000000\n      dup2\n      mstore\n      0x04\n      add\n      tag_186\n      swap1\n      tag_102\n      jump\t// in\n    tag_186:\n      mload(0x40)\n      dup1\n      swap2\n      sub\n      swap1\n      revert\n    tag_185:\n        /* \"staking.sol\":3409:3424  uint256 rewards */\n      0x00\n        /* \"staking.sol\":3427:3463  calculateRewards(_msgSender, _level) */\n      tag_187\n        /* \"staking.sol\":3444:3454  _msgSender */\n      dup3\n        /* \"staking.sol\":3456:3462  _level */\n      dup5\n        /* \"staking.sol\":3427:3443  calculateRewards */\n      tag_73\n        /* \"staking.sol\":3427:3463  calculateRewards(_msgSender, _level) */\n      jump\t// in\n    tag_187:\n        /* \"staking.sol\":3409:3463  uint256 rewards = calculateRewards(_msgSender, _level) */\n      swap1\n      pop\n        /* \"staking.sol\":3522:3529  rewards */\n      dup1\n        /* \"staking.sol\":3474:3490  userLevelDeposit */\n      0x02\n        /* \"staking.sol\":3474:3502  userLevelDeposit[_msgSender] */\n      0x00\n        /* \"staking.sol\":3491:3501  _msgSender */\n      dup5\n        /* \"staking.sol\":3474:3502  userLevelDeposit[_msgSender] */\n      0xffffffffffffffffffffffffffffffffffffffff\n      and\n      0xffffffffffffffffffffffffffffffffffffffff\n      and\n      dup2\n      mstore\n      0x20\n      add\n      swap1\n      dup2\n      mstore\n      0x20\n      add\n      0x00\n      keccak256\n        /* \"staking.sol\":3474:3510  userLevelDeposit[_msgSender][_level] */\n      0x00\n        /* \"staking.sol\":3503:3509  _level */\n      dup6\n        /* \"staking.sol\":3474:3510  userLevelDeposit[_msgSender][_level] */\n      dup2\n      mstore\n      0x20\n      add\n      swap1\n      dup2\n      mstore\n      0x20\n      add\n      0x00\n      keccak256\n        /* \"staking.sol\":3474:3518  userLevelDeposit[_msgSender][_level].balance */\n      0x00\n      add\n      0x00\n        /* \"staking.sol\":3474:3529  userLevelDeposit[_msgSender][_level].balance += rewards */\n      dup3\n      dup3\n      sload\n      tag_188\n      swap2\n      swap1\n      tag_105\n      jump\t// in\n    tag_188:\n      swap3\n      pop\n      pop\n      dup2\n      swap1\n      sstore\n      pop\n        /* \"staking.sol\":3588:3603  block.timestamp */\n      timestamp\n        /* \"staking.sol\":3539:3555  userLevelDeposit */\n      0x02\n        /* \"staking.sol\":3539:3567  userLevelDeposit[_msgSender] */\n      0x00\n        /* \"staking.sol\":3556:3566  _msgSender */\n      dup5\n        /* \"staking.sol\":3539:3567  userLevelDeposit[_msgSender] */\n      0xffffffffffffffffffffffffffffffffffffffff\n      and\n      0xffffffffffffffffffffffffffffffffffffffff\n      and\n      dup2\n      mstore\n      0x20\n      add\n      swap1\n      dup2\n      mstore\n      0x20\n      add\n      0x00\n      keccak256\n        /* \"staking.sol\":3539:3575  userLevelDeposit[_msgSender][_level] */\n      0x00\n        /* \"staking.sol\":3568:3574  _level */\n      dup6\n        /* \"staking.sol\":3539:3575  userLevelDeposit[_msgSender][_level] */\n      dup2\n      mstore\n      0x20\n      add\n      swap1\n      dup2\n      mstore\n      0x20\n      add\n      0x00\n      keccak256\n        /* \"staking.sol\":3539:3585  userLevelDeposit[_msgSender][_level].lastClaim */\n      0x03\n      add\n        /* \"staking.sol\":3539:3603  userLevelDeposit[_msgSender][_level].lastClaim = block.timestamp */\n      dup2\n      swap1\n      sstore\n      pop\n        /* \"staking.sol\":3619:3657  Compound (_msgSender, _level, rewards) */\n      0x0e311a2c6dbfb0153ec3a8a5bdca09070b3e5f60768fdc10a20453f38d186873\n        /* \"staking.sol\":3629:3639  _msgSender */\n      dup3\n        /* \"staking.sol\":3641:3647  _level */\n      dup5\n        /* \"staking.sol\":3649:3656  rewards */\n      dup4\n        /* \"staking.sol\":3619:3657  Compound (_msgSender, _level, rewards) */\n      mload(0x40)\n      tag_189\n      swap4\n      swap3\n      swap2\n      swap1\n      tag_114\n      jump\t// in\n    tag_189:\n      mload(0x40)\n      dup1\n      swap2\n      sub\n      swap1\n      log1\n        /* \"staking.sol\":3269:3664  {... */\n      pop\n      pop\n        /* \"staking.sol\":3226:3664  function compound (uint256 _level) external{... */\n      pop\n      jump\t// out\n        /* \"staking.sol\":3670:4135  function calculateRewards (address _user, uint256 _level) public view returns (uint256){... */\n    tag_73:\n        /* \"staking.sol\":3749:3756  uint256 */\n      0x00\n        /* \"staking.sol\":3767:3785  uint256 timeStaked */\n      dup1\n        /* \"staking.sol\":3806:3822  userLevelDeposit */\n      0x02\n        /* \"staking.sol\":3806:3829  userLevelDeposit[_user] */\n      0x00\n        /* \"staking.sol\":3823:3828  _user */\n      dup6\n        /* \"staking.sol\":3806:3829  userLevelDeposit[_user] */\n      0xffffffffffffffffffffffffffffffffffffffff\n      and\n      0xffffffffffffffffffffffffffffffffffffffff\n      and\n      dup2\n      mstore\n      0x20\n      add\n      swap1\n      dup2\n      mstore\n      0x20\n      add\n      0x00\n      keccak256\n        /* \"staking.sol\":3806:3837  userLevelDeposit[_user][_level] */\n      0x00\n        /* \"staking.sol\":3830:3836  _level */\n      dup5\n        /* \"staking.sol\":3806:3837  userLevelDeposit[_user][_level] */\n      dup2\n      mstore\n      0x20\n      add\n      swap1\n      dup2\n      mstore\n      0x20\n      add\n      0x00\n      keccak256\n        /* \"staking.sol\":3806:3847  userLevelDeposit[_user][_level].lastClaim */\n      0x03\n      add\n      sload\n        /* \"staking.sol\":3788:3803  block.timestamp */\n      timestamp\n        /* \"staking.sol\":3788:3847  block.timestamp - userLevelDeposit[_user][_level].lastClaim */\n      tag_191\n      swap2\n      swap1\n      tag_132\n      jump\t// in\n    tag_191:\n        /* \"staking.sol\":3767:3847  uint256 timeStaked = block.timestamp - userLevelDeposit[_user][_level].lastClaim */\n      swap1\n      pop\n        /* \"staking.sol\":3857:3872  uint256 balance */\n      0x00\n        /* \"staking.sol\":3875:3891  userLevelDeposit */\n      0x02\n        /* \"staking.sol\":3875:3898  userLevelDeposit[_user] */\n      0x00\n        /* \"staking.sol\":3892:3897  _user */\n      dup7\n        /* \"staking.sol\":3875:3898  userLevelDeposit[_user] */\n      0xffffffffffffffffffffffffffffffffffffffff\n      and\n      0xffffffffffffffffffffffffffffffffffffffff\n      and\n      dup2\n      mstore\n      0x20\n      add\n      swap1\n      dup2\n      mstore\n      0x20\n      add\n      0x00\n      keccak256\n        /* \"staking.sol\":3875:3906  userLevelDeposit[_user][_level] */\n      0x00\n        /* \"staking.sol\":3899:3905  _level */\n      dup6\n        /* \"staking.sol\":3875:3906  userLevelDeposit[_user][_level] */\n      dup2\n      mstore\n      0x20\n      add\n      swap1\n      dup2\n      mstore\n      0x20\n      add\n      0x00\n      keccak256\n        /* \"staking.sol\":3875:3914  userLevelDeposit[_user][_level].balance */\n      0x00\n      add\n      sload\n        /* \"staking.sol\":3857:3914  uint256 balance = userLevelDeposit[_user][_level].balance */\n      swap1\n      pop\n        /* \"staking.sol\":3925:3936  uint256 APY */\n      0x00\n        /* \"staking.sol\":3939:3948  levelInfo */\n      0x03\n        /* \"staking.sol\":3939:3956  levelInfo[_level] */\n      0x00\n        /* \"staking.sol\":3949:3955  _level */\n      dup7\n        /* \"staking.sol\":3939:3956  levelInfo[_level] */\n      dup2\n      mstore\n      0x20\n      add\n      swap1\n      dup2\n      mstore\n      0x20\n      add\n      0x00\n      keccak256\n        /* \"staking.sol\":3939:3960  levelInfo[_level].APY */\n      0x00\n      add\n      sload\n        /* \"staking.sol\":3925:3960  uint256 APY = levelInfo[_level].APY */\n      swap1\n      pop\n        /* \"staking.sol\":3971:3995  uint256 rewardsPerSecond */\n      0x00\n        /* \"staking.sol\":4026:4034  365 days */\n      0x01e13380\n        /* \"staking.sol\":4017:4022  10000 */\n      0x2710\n        /* \"staking.sol\":4010:4013  APY */\n      dup4\n        /* \"staking.sol\":4000:4007  balance */\n      dup6\n        /* \"staking.sol\":4000:4013  balance * APY */\n      tag_192\n      swap2\n      swap1\n      tag_193\n      jump\t// in\n    tag_192:\n        /* \"staking.sol\":3999:4022  (balance * APY) / 10000 */\n      tag_194\n      swap2\n      swap1\n      tag_195\n      jump\t// in\n    tag_194:\n        /* \"staking.sol\":3998:4034  ((balance * APY) / 10000) / 365 days */\n      tag_196\n      swap2\n      swap1\n      tag_195\n      jump\t// in\n    tag_196:\n        /* \"staking.sol\":3971:4034  uint256 rewardsPerSecond = ((balance * APY) / 10000) / 365 days */\n      swap1\n      pop\n        /* \"staking.sol\":4044:4065  uint256 rewardsEarned */\n      0x00\n        /* \"staking.sol\":4081:4097  rewardsPerSecond */\n      dup2\n        /* \"staking.sol\":4068:4078  timeStaked */\n      dup6\n        /* \"staking.sol\":4068:4097  timeStaked * rewardsPerSecond */\n      tag_197\n      swap2\n      swap1\n      tag_193\n      jump\t// in\n    tag_197:\n        /* \"staking.sol\":4044:4097  uint256 rewardsEarned = timeStaked * rewardsPerSecond */\n      swap1\n      pop\n        /* \"staking.sol\":4115:4128  rewardsEarned */\n      dup1\n        /* \"staking.sol\":4108:4128  return rewardsEarned */\n      swap6\n      pop\n      pop\n      pop\n      pop\n      pop\n      pop\n        /* \"staking.sol\":3670:4135  function calculateRewards (address _user, uint256 _level) public view returns (uint256){... */\n      swap3\n      swap2\n      pop\n      pop\n      jump\t// out\n        /* \"staking.sol\":1375:2080  function deposit (uint256 _amount, uint256 _level) public whenNotPaused {... */\n    tag_78:\n        /* \"@openzeppelin/contracts/security/Pausable.sol\":1412:1420  paused() */\n      tag_199\n        /* \"@openzeppelin/contracts/security/Pausable.sol\":1412:1418  paused */\n      tag_49\n        /* \"@openzeppelin/contracts/security/Pausable.sol\":1412:1420  paused() */\n      jump\t// in\n    tag_199:\n        /* \"@openzeppelin/contracts/security/Pausable.sol\":1411:1420  !paused() */\n      iszero\n        /* \"@openzeppelin/contracts/security/Pausable.sol\":1403:1441  require(!paused(), \"Pausable: paused\") */\n      tag_200\n      jumpi\n      mload(0x40)\n      0x08c379a000000000000000000000000000000000000000000000000000000000\n      dup2\n      mstore\n      0x04\n      add\n      tag_201\n      swap1\n      tag_202\n      jump\t// in\n    tag_201:\n      mload(0x40)\n      dup1\n      swap2\n      sub\n      swap1\n      revert\n    tag_200:\n        /* \"staking.sol\":1457:1475  address _msgSender */\n      0x00\n        /* \"staking.sol\":1478:1488  msg.sender */\n      caller\n        /* \"staking.sol\":1457:1488  address _msgSender = msg.sender */\n      swap1\n      pop\n        /* \"staking.sol\":1506:1519  acceptedToken */\n      0x01\n      0x00\n      swap1\n      sload\n      swap1\n      0x0100\n      exp\n      swap1\n      div\n      0xffffffffffffffffffffffffffffffffffffffff\n      and\n        /* \"staking.sol\":1506:1532  acceptedToken.transferFrom */\n      0xffffffffffffffffffffffffffffffffffffffff\n      and\n      0x23b872dd\n        /* \"staking.sol\":1533:1543  _msgSender */\n      dup3\n        /* \"staking.sol\":1553:1557  this */\n      address\n        /* \"staking.sol\":1560:1567  _amount */\n      dup7\n        /* \"staking.sol\":1506:1568  acceptedToken.transferFrom(_msgSender, address(this), _amount) */\n      mload(0x40)\n      dup5\n      0xffffffff\n      and\n      0xe0\n      shl\n      dup2\n      mstore\n      0x04\n      add\n      tag_204\n      swap4\n      swap3\n      swap2\n      swap1\n      tag_205\n      jump\t// in\n    tag_204:\n      0x20\n      mload(0x40)\n      dup1\n      dup4\n      sub\n      dup2\n      0x00\n      dup8\n      dup1\n      extcodesize\n      iszero\n      dup1\n      iszero\n      tag_206\n      jumpi\n      0x00\n      dup1\n      revert\n    tag_206:\n      pop\n      gas\n      call\n      iszero\n      dup1\n      iszero\n      tag_208\n      jumpi\n      returndatasize\n      0x00\n      dup1\n      returndatacopy\n      revert(0x00, returndatasize)\n    tag_208:\n      pop\n      pop\n      pop\n      pop\n      mload(0x40)\n      returndatasize\n      not(0x1f)\n      0x1f\n      dup3\n      add\n      and\n      dup3\n      add\n      dup1\n      0x40\n      mstore\n      pop\n      dup2\n      add\n      swap1\n      tag_209\n      swap2\n      swap1\n      tag_112\n      jump\t// in\n    tag_209:\n      pop\n        /* \"staking.sol\":1629:1630  0 */\n      0x00\n        /* \"staking.sol\":1582:1598  userLevelDeposit */\n      0x02\n        /* \"staking.sol\":1582:1610  userLevelDeposit[_msgSender] */\n      0x00\n        /* \"staking.sol\":1599:1609  _msgSender */\n      dup4\n        /* \"staking.sol\":1582:1610  userLevelDeposit[_msgSender] */\n      0xffffffffffffffffffffffffffffffffffffffff\n      and\n      0xffffffffffffffffffffffffffffffffffffffff\n      and\n      dup2\n      mstore\n      0x20\n      add\n      swap1\n      dup2\n      mstore\n      0x20\n      add\n      0x00\n      keccak256\n        /* \"staking.sol\":1582:1618  userLevelDeposit[_msgSender][_level] */\n      0x00\n        /* \"staking.sol\":1611:1617  _level */\n      dup5\n        /* \"staking.sol\":1582:1618  userLevelDeposit[_msgSender][_level] */\n      dup2\n      mstore\n      0x20\n      add\n      swap1\n      dup2\n      mstore\n      0x20\n      add\n      0x00\n      keccak256\n        /* \"staking.sol\":1582:1626  userLevelDeposit[_msgSender][_level].balance */\n      0x00\n      add\n      sload\n        /* \"staking.sol\":1582:1630  userLevelDeposit[_msgSender][_level].balance > 0 */\n      gt\n        /* \"staking.sol\":1579:1703  if(userLevelDeposit[_msgSender][_level].balance > 0){... */\n      iszero\n      tag_210\n      jumpi\n        /* \"staking.sol\":1656:1692  calculateRewards(_msgSender, _level) */\n      tag_211\n        /* \"staking.sol\":1673:1683  _msgSender */\n      dup2\n        /* \"staking.sol\":1685:1691  _level */\n      dup4\n        /* \"staking.sol\":1656:1672  calculateRewards */\n      tag_73\n        /* \"staking.sol\":1656:1692  calculateRewards(_msgSender, _level) */\n      jump\t// in\n    tag_211:\n        /* \"staking.sol\":1645:1692  _amount += calculateRewards(_msgSender, _level) */\n      dup4\n      tag_212\n      swap2\n      swap1\n      tag_105\n      jump\t// in\n    tag_212:\n      swap3\n      pop\n        /* \"staking.sol\":1579:1703  if(userLevelDeposit[_msgSender][_level].balance > 0){... */\n    tag_210:\n        /* \"staking.sol\":1761:1768  _amount */\n      dup3\n        /* \"staking.sol\":1713:1729  userLevelDeposit */\n      0x02\n        /* \"staking.sol\":1713:1741  userLevelDeposit[_msgSender] */\n      0x00\n        /* \"staking.sol\":1730:1740  _msgSender */\n      dup4\n        /* \"staking.sol\":1713:1741  userLevelDeposit[_msgSender] */\n      0xffffffffffffffffffffffffffffffffffffffff\n      and\n      0xffffffffffffffffffffffffffffffffffffffff\n      and\n      dup2\n      mstore\n      0x20\n      add\n      swap1\n      dup2\n      mstore\n      0x20\n      add\n      0x00\n      keccak256\n        /* \"staking.sol\":1713:1749  userLevelDeposit[_msgSender][_level] */\n      0x00\n        /* \"staking.sol\":1742:1748  _level */\n      dup5\n        /* \"staking.sol\":1713:1749  userLevelDeposit[_msgSender][_level] */\n      dup2\n      mstore\n      0x20\n      add\n      swap1\n      dup2\n      mstore\n      0x20\n      add\n      0x00\n      keccak256\n        /* \"staking.sol\":1713:1757  userLevelDeposit[_msgSender][_level].balance */\n      0x00\n      add\n      0x00\n        /* \"staking.sol\":1713:1768  userLevelDeposit[_msgSender][_level].balance += _amount */\n      dup3\n      dup3\n      sload\n      tag_213\n      swap2\n      swap1\n      tag_105\n      jump\t// in\n    tag_213:\n      swap3\n      pop\n      pop\n      dup2\n      swap1\n      sstore\n      pop\n        /* \"staking.sol\":1825:1840  block.timestamp */\n      timestamp\n        /* \"staking.sol\":1778:1794  userLevelDeposit */\n      0x02\n        /* \"staking.sol\":1778:1806  userLevelDeposit[_msgSender] */\n      0x00\n        /* \"staking.sol\":1795:1805  _msgSender */\n      dup4\n        /* \"staking.sol\":1778:1806  userLevelDeposit[_msgSender] */\n      0xffffffffffffffffffffffffffffffffffffffff\n      and\n      0xffffffffffffffffffffffffffffffffffffffff\n      and\n      dup2\n      mstore\n      0x20\n      add\n      swap1\n      dup2\n      mstore\n      0x20\n      add\n      0x00\n      keccak256\n        /* \"staking.sol\":1778:1814  userLevelDeposit[_msgSender][_level] */\n      0x00\n        /* \"staking.sol\":1807:1813  _level */\n      dup5\n        /* \"staking.sol\":1778:1814  userLevelDeposit[_msgSender][_level] */\n      dup2\n      mstore\n      0x20\n      add\n      swap1\n      dup2\n      mstore\n      0x20\n      add\n      0x00\n      keccak256\n        /* \"staking.sol\":1778:1822  userLevelDeposit[_msgSender][_level].started */\n      0x02\n      add\n        /* \"staking.sol\":1778:1840  userLevelDeposit[_msgSender][_level].started = block.timestamp */\n      dup2\n      swap1\n      sstore\n      pop\n        /* \"staking.sol\":1899:1914  block.timestamp */\n      timestamp\n        /* \"staking.sol\":1850:1866  userLevelDeposit */\n      0x02\n        /* \"staking.sol\":1850:1878  userLevelDeposit[_msgSender] */\n      0x00\n        /* \"staking.sol\":1867:1877  _msgSender */\n      dup4\n        /* \"staking.sol\":1850:1878  userLevelDeposit[_msgSender] */\n      0xffffffffffffffffffffffffffffffffffffffff\n      and\n      0xffffffffffffffffffffffffffffffffffffffff\n      and\n      dup2\n      mstore\n      0x20\n      add\n      swap1\n      dup2\n      mstore\n      0x20\n      add\n      0x00\n      keccak256\n        /* \"staking.sol\":1850:1886  userLevelDeposit[_msgSender][_level] */\n      0x00\n        /* \"staking.sol\":1879:1885  _level */\n      dup5\n        /* \"staking.sol\":1850:1886  userLevelDeposit[_msgSender][_level] */\n      dup2\n      mstore\n      0x20\n      add\n      swap1\n      dup2\n      mstore\n      0x20\n      add\n      0x00\n      keccak256\n        /* \"staking.sol\":1850:1896  userLevelDeposit[_msgSender][_level].lastClaim */\n      0x03\n      add\n        /* \"staking.sol\":1850:1914  userLevelDeposit[_msgSender][_level].lastClaim = block.timestamp */\n      dup2\n      swap1\n      sstore\n      pop\n        /* \"staking.sol\":1992:2001  levelInfo */\n      0x03\n        /* \"staking.sol\":1992:2009  levelInfo[_level] */\n      0x00\n        /* \"staking.sol\":2002:2008  _level */\n      dup4\n        /* \"staking.sol\":1992:2009  levelInfo[_level] */\n      dup2\n      mstore\n      0x20\n      add\n      swap1\n      dup2\n      mstore\n      0x20\n      add\n      0x00\n      keccak256\n        /* \"staking.sol\":1992:2020  levelInfo[_level].lockPeriod */\n      0x01\n      add\n      sload\n        /* \"staking.sol\":1974:1989  block.timestamp */\n      timestamp\n        /* \"staking.sol\":1974:2020  block.timestamp + levelInfo[_level].lockPeriod */\n      tag_214\n      swap2\n      swap1\n      tag_105\n      jump\t// in\n    tag_214:\n        /* \"staking.sol\":1924:1940  userLevelDeposit */\n      0x02\n        /* \"staking.sol\":1924:1952  userLevelDeposit[_msgSender] */\n      0x00\n        /* \"staking.sol\":1941:1951  _msgSender */\n      dup4\n        /* \"staking.sol\":1924:1952  userLevelDeposit[_msgSender] */\n      0xffffffffffffffffffffffffffffffffffffffff\n      and\n      0xffffffffffffffffffffffffffffffffffffffff\n      and\n      dup2\n      mstore\n      0x20\n      add\n      swap1\n      dup2\n      mstore\n      0x20\n      add\n      0x00\n      keccak256\n        /* \"staking.sol\":1924:1960  userLevelDeposit[_msgSender][_level] */\n      0x00\n        /* \"staking.sol\":1953:1959  _level */\n      dup5\n        /* \"staking.sol\":1924:1960  userLevelDeposit[_msgSender][_level] */\n      dup2\n      mstore\n      0x20\n      add\n      swap1\n      dup2\n      mstore\n      0x20\n      add\n      0x00\n      keccak256\n        /* \"staking.sol\":1924:1971  userLevelDeposit[_msgSender][_level].unlockTime */\n      0x04\n      add\n        /* \"staking.sol\":1924:2020  userLevelDeposit[_msgSender][_level].unlockTime = block.timestamp + levelInfo[_level].lockPeriod */\n      dup2\n      swap1\n      sstore\n      pop\n        /* \"staking.sol\":2036:2073  Deposit (_msgSender, _level, _amount) */\n      0x90890809c654f11d6e72a28fa60149770a0d11ec6c92319d6ceb2bb0a4ea1a15\n        /* \"staking.sol\":2045:2055  _msgSender */\n      dup2\n        /* \"staking.sol\":2057:2063  _level */\n      dup4\n        /* \"staking.sol\":2065:2072  _amount */\n      dup6\n        /* \"staking.sol\":2036:2073  Deposit (_msgSender, _level, _amount) */\n      mload(0x40)\n      tag_215\n      swap4\n      swap3\n      swap2\n      swap1\n      tag_114\n      jump\t// in\n    tag_215:\n      mload(0x40)\n      dup1\n      swap2\n      sub\n      swap1\n      log1\n        /* \"staking.sol\":1447:2080  {... */\n      pop\n        /* \"staking.sol\":1375:2080  function deposit (uint256 _amount, uint256 _level) public whenNotPaused {... */\n      pop\n      pop\n      jump\t// out\n        /* \"staking.sol\":4640:4854  function getLevelsInfo() external view returns(Level memory level0, Level memory level1, Level memory level2){... */\n    tag_80:\n        /* \"staking.sol\":4687:4706  Level memory level0 */\n      tag_216\n      tag_217\n      jump\t// in\n    tag_216:\n        /* \"staking.sol\":4708:4727  Level memory level1 */\n      tag_218\n      tag_217\n      jump\t// in\n    tag_218:\n        /* \"staking.sol\":4729:4748  Level memory level2 */\n      tag_219\n      tag_217\n      jump\t// in\n    tag_219:\n        /* \"staking.sol\":4768:4777  levelInfo */\n      0x03\n        /* \"staking.sol\":4768:4780  levelInfo[0] */\n      0x00\n        /* \"staking.sol\":4778:4779  0 */\n      dup1\n        /* \"staking.sol\":4768:4780  levelInfo[0] */\n      dup2\n      mstore\n      0x20\n      add\n      swap1\n      dup2\n      mstore\n      0x20\n      add\n      0x00\n      keccak256\n        /* \"staking.sol\":4759:4780  level0 = levelInfo[0] */\n      mload(0x40)\n      dup1\n      0x40\n      add\n      0x40\n      mstore\n      swap1\n      dup2\n      0x00\n      dup3\n      add\n      sload\n      dup2\n      mstore\n      0x20\n      add\n      0x01\n      dup3\n      add\n      sload\n      dup2\n      mstore\n      pop\n      pop\n      swap3\n      pop\n        /* \"staking.sol\":4799:4808  levelInfo */\n      0x03\n        /* \"staking.sol\":4799:4811  levelInfo[1] */\n      0x00\n        /* \"staking.sol\":4809:4810  1 */\n      0x01\n        /* \"staking.sol\":4799:4811  levelInfo[1] */\n      dup2\n      mstore\n      0x20\n      add\n      swap1\n      dup2\n      mstore\n      0x20\n      add\n      0x00\n      keccak256\n        /* \"staking.sol\":4790:4811  level1 = levelInfo[1] */\n      mload(0x40)\n      dup1\n      0x40\n      add\n      0x40\n      mstore\n      swap1\n      dup2\n      0x00\n      dup3\n      add\n      sload\n      dup2\n      mstore\n      0x20\n      add\n      0x01\n      dup3\n      add\n      sload\n      dup2\n      mstore\n      pop\n      pop\n      swap2\n      pop\n        /* \"staking.sol\":4830:4839  levelInfo */\n      0x03\n        /* \"staking.sol\":4830:4842  levelInfo[2] */\n      0x00\n        /* \"staking.sol\":4840:4841  2 */\n      0x02\n        /* \"staking.sol\":4830:4842  levelInfo[2] */\n      dup2\n      mstore\n      0x20\n      add\n      swap1\n      dup2\n      mstore\n      0x20\n      add\n      0x00\n      keccak256\n        /* \"staking.sol\":4821:4842  level2 = levelInfo[2] */\n      mload(0x40)\n      dup1\n      0x40\n      add\n      0x40\n      mstore\n      swap1\n      dup2\n      0x00\n      dup3\n      add\n      sload\n      dup2\n      mstore\n      0x20\n      add\n      0x01\n      dup3\n      add\n      sload\n      dup2\n      mstore\n      pop\n      pop\n      swap1\n      pop\n        /* \"staking.sol\":4640:4854  function getLevelsInfo() external view returns(Level memory level0, Level memory level1, Level memory level2){... */\n      swap1\n      swap2\n      swap3\n      jump\t// out\n        /* \"staking.sol\":746:788  mapping(uint256 => Level) public levelInfo */\n    tag_85:\n      mstore(0x20, 0x03)\n      dup1\n      0x00\n      mstore\n      keccak256(0x00, 0x40)\n      0x00\n      swap2\n      pop\n      swap1\n      pop\n      dup1\n      0x00\n      add\n      sload\n      swap1\n      dup1\n      0x01\n      add\n      sload\n      swap1\n      pop\n      dup3\n      jump\t// out\n        /* \"@openzeppelin/contracts/access/Ownable.sol\":1918:2116  function transferOwnership(address newOwner) public virtual onlyOwner {... */\n    tag_90:\n        /* \"@openzeppelin/contracts/access/Ownable.sol\":1259:1271  _msgSender() */\n      tag_222\n        /* \"@openzeppelin/contracts/access/Ownable.sol\":1259:1269  _msgSender */\n      tag_93\n        /* \"@openzeppelin/contracts/access/Ownable.sol\":1259:1271  _msgSender() */\n      jump\t// in\n    tag_222:\n        /* \"@openzeppelin/contracts/access/Ownable.sol\":1248:1271  owner() == _msgSender() */\n      0xffffffffffffffffffffffffffffffffffffffff\n      and\n        /* \"@openzeppelin/contracts/access/Ownable.sol\":1248:1255  owner() */\n      tag_223\n        /* \"@openzeppelin/contracts/access/Ownable.sol\":1248:1253  owner */\n      tag_65\n        /* \"@openzeppelin/contracts/access/Ownable.sol\":1248:1255  owner() */\n      jump\t// in\n    tag_223:\n        /* \"@openzeppelin/contracts/access/Ownable.sol\":1248:1271  owner() == _msgSender() */\n      0xffffffffffffffffffffffffffffffffffffffff\n      and\n      eq\n        /* \"@openzeppelin/contracts/access/Ownable.sol\":1240:1308  require(owner() == _msgSender(), \"Ownable: caller is not the owner\") */\n      tag_224\n      jumpi\n      mload(0x40)\n      0x08c379a000000000000000000000000000000000000000000000000000000000\n      dup2\n      mstore\n      0x04\n      add\n      tag_225\n      swap1\n      tag_97\n      jump\t// in\n    tag_225:\n      mload(0x40)\n      dup1\n      swap2\n      sub\n      swap1\n      revert\n    tag_224:\n        /* \"@openzeppelin/contracts/access/Ownable.sol\":2026:2027  0 */\n      0x00\n        /* \"@openzeppelin/contracts/access/Ownable.sol\":2006:2028  newOwner != address(0) */\n      0xffffffffffffffffffffffffffffffffffffffff\n      and\n        /* \"@openzeppelin/contracts/access/Ownable.sol\":2006:2014  newOwner */\n      dup2\n        /* \"@openzeppelin/contracts/access/Ownable.sol\":2006:2028  newOwner != address(0) */\n      0xffffffffffffffffffffffffffffffffffffffff\n      and\n      eq\n      iszero\n        /* \"@openzeppelin/contracts/access/Ownable.sol\":1998:2071  require(newOwner != address(0), \"Ownable: new owner is the zero address\") */\n      tag_227\n      jumpi\n      mload(0x40)\n      0x08c379a000000000000000000000000000000000000000000000000000000000\n      dup2\n      mstore\n      0x04\n      add\n      tag_228\n      swap1\n      tag_229\n      jump\t// in\n    tag_228:\n      mload(0x40)\n      dup1\n      swap2\n      sub\n      swap1\n      revert\n    tag_227:\n        /* \"@openzeppelin/contracts/access/Ownable.sol\":2081:2109  _transferOwnership(newOwner) */\n      tag_230\n        /* \"@openzeppelin/contracts/access/Ownable.sol\":2100:2108  newOwner */\n      dup2\n        /* \"@openzeppelin/contracts/access/Ownable.sol\":2081:2099  _transferOwnership */\n      tag_157\n        /* \"@openzeppelin/contracts/access/Ownable.sol\":2081:2109  _transferOwnership(newOwner) */\n      jump\t// in\n    tag_230:\n        /* \"@openzeppelin/contracts/access/Ownable.sol\":1918:2116  function transferOwnership(address newOwner) public virtual onlyOwner {... */\n      pop\n      jump\t// out\n        /* \"@openzeppelin/contracts/utils/Context.sol\":640:736  function _msgSender() internal view virtual returns (address) {... */\n    tag_93:\n        /* \"@openzeppelin/contracts/utils/Context.sol\":693:700  address */\n      0x00\n        /* \"@openzeppelin/contracts/utils/Context.sol\":719:729  msg.sender */\n      caller\n        /* \"@openzeppelin/contracts/utils/Context.sol\":712:729  return msg.sender */\n      swap1\n      pop\n        /* \"@openzeppelin/contracts/utils/Context.sol\":640:736  function _msgSender() internal view virtual returns (address) {... */\n      swap1\n      jump\t// out\n        /* \"@openzeppelin/contracts/security/Pausable.sol\":2110:2227  function _unpause() internal virtual whenPaused {... */\n    tag_122:\n        /* \"@openzeppelin/contracts/security/Pausable.sol\":1677:1685  paused() */\n      tag_233\n        /* \"@openzeppelin/contracts/security/Pausable.sol\":1677:1683  paused */\n      tag_49\n        /* \"@openzeppelin/contracts/security/Pausable.sol\":1677:1685  paused() */\n      jump\t// in\n    tag_233:\n        /* \"@openzeppelin/contracts/security/Pausable.sol\":1669:1710  require(paused(), \"Pausable: not paused\") */\n      tag_234\n      jumpi\n      mload(0x40)\n      0x08c379a000000000000000000000000000000000000000000000000000000000\n      dup2\n      mstore\n      0x04\n      add\n      tag_235\n      swap1\n      tag_236\n      jump\t// in\n    tag_235:\n      mload(0x40)\n      dup1\n      swap2\n      sub\n      swap1\n      revert\n    tag_234:\n        /* \"@openzeppelin/contracts/security/Pausable.sol\":2178:2183  false */\n      0x00\n        /* \"@openzeppelin/contracts/security/Pausable.sol\":2168:2175  _paused */\n      dup1\n      0x14\n        /* \"@openzeppelin/contracts/security/Pausable.sol\":2168:2183  _paused = false */\n      0x0100\n      exp\n      dup2\n      sload\n      dup2\n      0xff\n      mul\n      not\n      and\n      swap1\n      dup4\n      iszero\n      iszero\n      mul\n      or\n      swap1\n      sstore\n      pop\n        /* \"@openzeppelin/contracts/security/Pausable.sol\":2198:2220  Unpaused(_msgSender()) */\n      0x5db9ee0a495bf2e6ff9c91a7834c1ba4fdd244a5e8aa4e537bd38aeae4b073aa\n        /* \"@openzeppelin/contracts/security/Pausable.sol\":2207:2219  _msgSender() */\n      tag_238\n        /* \"@openzeppelin/contracts/security/Pausable.sol\":2207:2217  _msgSender */\n      tag_93\n        /* \"@openzeppelin/contracts/security/Pausable.sol\":2207:2219  _msgSender() */\n      jump\t// in\n    tag_238:\n        /* \"@openzeppelin/contracts/security/Pausable.sol\":2198:2220  Unpaused(_msgSender()) */\n      mload(0x40)\n      tag_239\n      swap2\n      swap1\n      tag_67\n      jump\t// in\n    tag_239:\n      mload(0x40)\n      dup1\n      swap2\n      sub\n      swap1\n      log1\n        /* \"@openzeppelin/contracts/security/Pausable.sol\":2110:2227  function _unpause() internal virtual whenPaused {... */\n      jump\t// out\n        /* \"@openzeppelin/contracts/access/Ownable.sol\":2270:2457  function _transferOwnership(address newOwner) internal virtual {... */\n    tag_157:\n        /* \"@openzeppelin/contracts/access/Ownable.sol\":2343:2359  address oldOwner */\n      0x00\n        /* \"@openzeppelin/contracts/access/Ownable.sol\":2362:2368  _owner */\n      dup1\n      0x00\n      swap1\n      sload\n      swap1\n      0x0100\n      exp\n      swap1\n      div\n      0xffffffffffffffffffffffffffffffffffffffff\n      and\n        /* \"@openzeppelin/contracts/access/Ownable.sol\":2343:2368  address oldOwner = _owner */\n      swap1\n      pop\n        /* \"@openzeppelin/contracts/access/Ownable.sol\":2387:2395  newOwner */\n      dup2\n        /* \"@openzeppelin/contracts/access/Ownable.sol\":2378:2384  _owner */\n      0x00\n      dup1\n        /* \"@openzeppelin/contracts/access/Ownable.sol\":2378:2395  _owner = newOwner */\n      0x0100\n      exp\n      dup2\n      sload\n      dup2\n      0xffffffffffffffffffffffffffffffffffffffff\n      mul\n      not\n      and\n      swap1\n      dup4\n      0xffffffffffffffffffffffffffffffffffffffff\n      and\n      mul\n      or\n      swap1\n      sstore\n      pop\n        /* \"@openzeppelin/contracts/access/Ownable.sol\":2441:2449  newOwner */\n      dup2\n        /* \"@openzeppelin/contracts/access/Ownable.sol\":2410:2450  OwnershipTransferred(oldOwner, newOwner) */\n      0xffffffffffffffffffffffffffffffffffffffff\n      and\n        /* \"@openzeppelin/contracts/access/Ownable.sol\":2431:2439  oldOwner */\n      dup2\n        /* \"@openzeppelin/contracts/access/Ownable.sol\":2410:2450  OwnershipTransferred(oldOwner, newOwner) */\n      0xffffffffffffffffffffffffffffffffffffffff\n      and\n      0x8be0079c531659141344cd1fd0a4f28419497f9722a3daafe3b4186f6b6457e0\n      mload(0x40)\n      mload(0x40)\n      dup1\n      swap2\n      sub\n      swap1\n      log3\n        /* \"@openzeppelin/contracts/access/Ownable.sol\":2333:2457  {... */\n      pop\n        /* \"@openzeppelin/contracts/access/Ownable.sol\":2270:2457  function _transferOwnership(address newOwner) internal virtual {... */\n      pop\n      jump\t// out\n        /* \"@openzeppelin/contracts/security/Pausable.sol\":1863:1978  function _pause() internal virtual whenNotPaused {... */\n    tag_165:\n        /* \"@openzeppelin/contracts/security/Pausable.sol\":1412:1420  paused() */\n      tag_242\n        /* \"@openzeppelin/contracts/security/Pausable.sol\":1412:1418  paused */\n      tag_49\n        /* \"@openzeppelin/contracts/security/Pausable.sol\":1412:1420  paused() */\n      jump\t// in\n    tag_242:\n        /* \"@openzeppelin/contracts/security/Pausable.sol\":1411:1420  !paused() */\n      iszero\n        /* \"@openzeppelin/contracts/security/Pausable.sol\":1403:1441  require(!paused(), \"Pausable: paused\") */\n      tag_243\n      jumpi\n      mload(0x40)\n      0x08c379a000000000000000000000000000000000000000000000000000000000\n      dup2\n      mstore\n      0x04\n      add\n      tag_244\n      swap1\n      tag_202\n      jump\t// in\n    tag_244:\n      mload(0x40)\n      dup1\n      swap2\n      sub\n      swap1\n      revert\n    tag_243:\n        /* \"@openzeppelin/contracts/security/Pausable.sol\":1932:1936  true */\n      0x01\n        /* \"@openzeppelin/contracts/security/Pausable.sol\":1922:1929  _paused */\n      0x00\n      0x14\n        /* \"@openzeppelin/contracts/security/Pausable.sol\":1922:1936  _paused = true */\n      0x0100\n      exp\n      dup2\n      sload\n      dup2\n      0xff\n      mul\n      not\n      and\n      swap1\n      dup4\n      iszero\n      iszero\n      mul\n      or\n      swap1\n      sstore\n      pop\n        /* \"@openzeppelin/contracts/security/Pausable.sol\":1951:1971  Paused(_msgSender()) */\n      0x62e78cea01bee320cd4e420270b5ea74000d11b0c9f74754ebdbfc544b05a258\n        /* \"@openzeppelin/contracts/security/Pausable.sol\":1958:1970  _msgSender() */\n      tag_246\n        /* \"@openzeppelin/contracts/security/Pausable.sol\":1958:1968  _msgSender */\n      tag_93\n        /* \"@openzeppelin/contracts/security/Pausable.sol\":1958:1970  _msgSender() */\n      jump\t// in\n    tag_246:\n        /* \"@openzeppelin/contracts/security/Pausable.sol\":1951:1971  Paused(_msgSender()) */\n      mload(0x40)\n      tag_247\n      swap2\n      swap1\n      tag_67\n      jump\t// in\n    tag_247:\n      mload(0x40)\n      dup1\n      swap2\n      sub\n      swap1\n      log1\n        /* \"@openzeppelin/contracts/security/Pausable.sol\":1863:1978  function _pause() internal virtual whenNotPaused {... */\n      jump\t// out\n    tag_143:\n      mload(0x40)\n      dup1\n      0xa0\n      add\n      0x40\n      mstore\n      dup1\n      0x00\n      dup2\n      mstore\n      0x20\n      add\n      0x00\n      dup2\n      mstore\n      0x20\n      add\n      0x00\n      dup2\n      mstore\n      0x20\n      add\n      0x00\n      dup2\n      mstore\n      0x20\n      add\n      0x00\n      dup2\n      mstore\n      pop\n      swap1\n      jump\t// out\n    tag_217:\n      mload(0x40)\n      dup1\n      0x40\n      add\n      0x40\n      mstore\n      dup1\n      0x00\n      dup2\n      mstore\n      0x20\n      add\n      0x00\n      dup2\n      mstore\n      pop\n      swap1\n      jump\t// out\n        /* \"#utility.yul\":7:146   */\n    tag_249:\n        /* \"#utility.yul\":53:58   */\n      0x00\n        /* \"#utility.yul\":91:97   */\n      dup2\n        /* \"#utility.yul\":78:98   */\n      calldataload\n        /* \"#utility.yul\":69:98   */\n      swap1\n      pop\n        /* \"#utility.yul\":107:140   */\n      tag_251\n        /* \"#utility.yul\":134:139   */\n      dup2\n        /* \"#utility.yul\":107:140   */\n      tag_252\n      jump\t// in\n    tag_251:\n        /* \"#utility.yul\":7:146   */\n      swap3\n      swap2\n      pop\n      pop\n      jump\t// out\n        /* \"#utility.yul\":152:289   */\n    tag_253:\n        /* \"#utility.yul\":206:211   */\n      0x00\n        /* \"#utility.yul\":237:243   */\n      dup2\n        /* \"#utility.yul\":231:244   */\n      mload\n        /* \"#utility.yul\":222:244   */\n      swap1\n      pop\n        /* \"#utility.yul\":253:283   */\n      tag_255\n        /* \"#utility.yul\":277:282   */\n      dup2\n        /* \"#utility.yul\":253:283   */\n      tag_256\n      jump\t// in\n    tag_255:\n        /* \"#utility.yul\":152:289   */\n      swap3\n      swap2\n      pop\n      pop\n      jump\t// out\n        /* \"#utility.yul\":295:434   */\n    tag_257:\n        /* \"#utility.yul\":341:346   */\n      0x00\n        /* \"#utility.yul\":379:385   */\n      dup2\n        /* \"#utility.yul\":366:386   */\n      calldataload\n        /* \"#utility.yul\":357:386   */\n      swap1\n      pop\n        /* \"#utility.yul\":395:428   */\n      tag_259\n        /* \"#utility.yul\":422:427   */\n      dup2\n        /* \"#utility.yul\":395:428   */\n      tag_260\n      jump\t// in\n    tag_259:\n        /* \"#utility.yul\":295:434   */\n      swap3\n      swap2\n      pop\n      pop\n      jump\t// out\n        /* \"#utility.yul\":440:583   */\n    tag_261:\n        /* \"#utility.yul\":497:502   */\n      0x00\n        /* \"#utility.yul\":528:534   */\n      dup2\n        /* \"#utility.yul\":522:535   */\n      mload\n        /* \"#utility.yul\":513:535   */\n      swap1\n      pop\n        /* \"#utility.yul\":544:577   */\n      tag_263\n        /* \"#utility.yul\":571:576   */\n      dup2\n        /* \"#utility.yul\":544:577   */\n      tag_260\n      jump\t// in\n    tag_263:\n        /* \"#utility.yul\":440:583   */\n      swap3\n      swap2\n      pop\n      pop\n      jump\t// out\n        /* \"#utility.yul\":589:918   */\n    tag_54:\n        /* \"#utility.yul\":648:654   */\n      0x00\n        /* \"#utility.yul\":697:699   */\n      0x20\n        /* \"#utility.yul\":685:694   */\n      dup3\n        /* \"#utility.yul\":676:683   */\n      dup5\n        /* \"#utility.yul\":672:695   */\n      sub\n        /* \"#utility.yul\":668:700   */\n      slt\n        /* \"#utility.yul\":665:784   */\n      iszero\n      tag_265\n      jumpi\n        /* \"#utility.yul\":703:782   */\n      tag_266\n      tag_267\n      jump\t// in\n    tag_266:\n        /* \"#utility.yul\":665:784   */\n    tag_265:\n        /* \"#utility.yul\":823:824   */\n      0x00\n        /* \"#utility.yul\":848:901   */\n      tag_268\n        /* \"#utility.yul\":893:900   */\n      dup5\n        /* \"#utility.yul\":884:890   */\n      dup3\n        /* \"#utility.yul\":873:882   */\n      dup6\n        /* \"#utility.yul\":869:891   */\n      add\n        /* \"#utility.yul\":848:901   */\n      tag_249\n      jump\t// in\n    tag_268:\n        /* \"#utility.yul\":838:901   */\n      swap2\n      pop\n        /* \"#utility.yul\":794:911   */\n      pop\n        /* \"#utility.yul\":589:918   */\n      swap3\n      swap2\n      pop\n      pop\n      jump\t// out\n        /* \"#utility.yul\":924:1398   */\n    tag_26:\n        /* \"#utility.yul\":992:998   */\n      0x00\n        /* \"#utility.yul\":1000:1006   */\n      dup1\n        /* \"#utility.yul\":1049:1051   */\n      0x40\n        /* \"#utility.yul\":1037:1046   */\n      dup4\n        /* \"#utility.yul\":1028:1035   */\n      dup6\n        /* \"#utility.yul\":1024:1047   */\n      sub\n        /* \"#utility.yul\":1020:1052   */\n      slt\n        /* \"#utility.yul\":1017:1136   */\n      iszero\n      tag_270\n      jumpi\n        /* \"#utility.yul\":1055:1134   */\n      tag_271\n      tag_267\n      jump\t// in\n    tag_271:\n        /* \"#utility.yul\":1017:1136   */\n    tag_270:\n        /* \"#utility.yul\":1175:1176   */\n      0x00\n        /* \"#utility.yul\":1200:1253   */\n      tag_272\n        /* \"#utility.yul\":1245:1252   */\n      dup6\n        /* \"#utility.yul\":1236:1242   */\n      dup3\n        /* \"#utility.yul\":1225:1234   */\n      dup7\n        /* \"#utility.yul\":1221:1243   */\n      add\n        /* \"#utility.yul\":1200:1253   */\n      tag_249\n      jump\t// in\n    tag_272:\n        /* \"#utility.yul\":1190:1253   */\n      swap3\n      pop\n        /* \"#utility.yul\":1146:1263   */\n      pop\n        /* \"#utility.yul\":1302:1304   */\n      0x20\n        /* \"#utility.yul\":1328:1381   */\n      tag_273\n        /* \"#utility.yul\":1373:1380   */\n      dup6\n        /* \"#utility.yul\":1364:1370   */\n      dup3\n        /* \"#utility.yul\":1353:1362   */\n      dup7\n        /* \"#utility.yul\":1349:1371   */\n      add\n        /* \"#utility.yul\":1328:1381   */\n      tag_257\n      jump\t// in\n    tag_273:\n        /* \"#utility.yul\":1318:1381   */\n      swap2\n      pop\n        /* \"#utility.yul\":1273:1391   */\n      pop\n        /* \"#utility.yul\":924:1398   */\n      swap3\n      pop\n      swap3\n      swap1\n      pop\n      jump\t// out\n        /* \"#utility.yul\":1404:1749   */\n    tag_112:\n        /* \"#utility.yul\":1471:1477   */\n      0x00\n        /* \"#utility.yul\":1520:1522   */\n      0x20\n        /* \"#utility.yul\":1508:1517   */\n      dup3\n        /* \"#utility.yul\":1499:1506   */\n      dup5\n        /* \"#utility.yul\":1495:1518   */\n      sub\n        /* \"#utility.yul\":1491:1523   */\n      slt\n        /* \"#utility.yul\":1488:1607   */\n      iszero\n      tag_275\n      jumpi\n        /* \"#utility.yul\":1526:1605   */\n      tag_276\n      tag_267\n      jump\t// in\n    tag_276:\n        /* \"#utility.yul\":1488:1607   */\n    tag_275:\n        /* \"#utility.yul\":1646:1647   */\n      0x00\n        /* \"#utility.yul\":1671:1732   */\n      tag_277\n        /* \"#utility.yul\":1724:1731   */\n      dup5\n        /* \"#utility.yul\":1715:1721   */\n      dup3\n        /* \"#utility.yul\":1704:1713   */\n      dup6\n        /* \"#utility.yul\":1700:1722   */\n      add\n        /* \"#utility.yul\":1671:1732   */\n      tag_253\n      jump\t// in\n    tag_277:\n        /* \"#utility.yul\":1661:1732   */\n      swap2\n      pop\n        /* \"#utility.yul\":1617:1742   */\n      pop\n        /* \"#utility.yul\":1404:1749   */\n      swap3\n      swap2\n      pop\n      pop\n      jump\t// out\n        /* \"#utility.yul\":1755:2084   */\n    tag_36:\n        /* \"#utility.yul\":1814:1820   */\n      0x00\n        /* \"#utility.yul\":1863:1865   */\n      0x20\n        /* \"#utility.yul\":1851:1860   */\n      dup3\n        /* \"#utility.yul\":1842:1849   */\n      dup5\n        /* \"#utility.yul\":1838:1861   */\n      sub\n        /* \"#utility.yul\":1834:1866   */\n      slt\n        /* \"#utility.yul\":1831:1950   */\n      iszero\n      tag_279\n      jumpi\n        /* \"#utility.yul\":1869:1948   */\n      tag_280\n      tag_267\n      jump\t// in\n    tag_280:\n        /* \"#utility.yul\":1831:1950   */\n    tag_279:\n        /* \"#utility.yul\":1989:1990   */\n      0x00\n        /* \"#utility.yul\":2014:2067   */\n      tag_281\n        /* \"#utility.yul\":2059:2066   */\n      dup5\n        /* \"#utility.yul\":2050:2056   */\n      dup3\n        /* \"#utility.yul\":2039:2048   */\n      dup6\n        /* \"#utility.yul\":2035:2057   */\n      add\n        /* \"#utility.yul\":2014:2067   */\n      tag_257\n      jump\t// in\n    tag_281:\n        /* \"#utility.yul\":2004:2067   */\n      swap2\n      pop\n        /* \"#utility.yul\":1960:2077   */\n      pop\n        /* \"#utility.yul\":1755:2084   */\n      swap3\n      swap2\n      pop\n      pop\n      jump\t// out\n        /* \"#utility.yul\":2090:2441   */\n    tag_177:\n        /* \"#utility.yul\":2160:2166   */\n      0x00\n        /* \"#utility.yul\":2209:2211   */\n      0x20\n        /* \"#utility.yul\":2197:2206   */\n      dup3\n        /* \"#utility.yul\":2188:2195   */\n      dup5\n        /* \"#utility.yul\":2184:2207   */\n      sub\n        /* \"#utility.yul\":2180:2212   */\n      slt\n        /* \"#utility.yul\":2177:2296   */\n      iszero\n      tag_283\n      jumpi\n        /* \"#utility.yul\":2215:2294   */\n      tag_284\n      tag_267\n      jump\t// in\n    tag_284:\n        /* \"#utility.yul\":2177:2296   */\n    tag_283:\n        /* \"#utility.yul\":2335:2336   */\n      0x00\n        /* \"#utility.yul\":2360:2424   */\n      tag_285\n        /* \"#utility.yul\":2416:2423   */\n      dup5\n        /* \"#utility.yul\":2407:2413   */\n      dup3\n        /* \"#utility.yul\":2396:2405   */\n      dup6\n        /* \"#utility.yul\":2392:2414   */\n      add\n        /* \"#utility.yul\":2360:2424   */\n      tag_261\n      jump\t// in\n    tag_285:\n        /* \"#utility.yul\":2350:2424   */\n      swap2\n      pop\n        /* \"#utility.yul\":2306:2434   */\n      pop\n        /* \"#utility.yul\":2090:2441   */\n      swap3\n      swap2\n      pop\n      pop\n      jump\t// out\n        /* \"#utility.yul\":2447:2921   */\n    tag_42:\n        /* \"#utility.yul\":2515:2521   */\n      0x00\n        /* \"#utility.yul\":2523:2529   */\n      dup1\n        /* \"#utility.yul\":2572:2574   */\n      0x40\n        /* \"#utility.yul\":2560:2569   */\n      dup4\n        /* \"#utility.yul\":2551:2558   */\n      dup6\n        /* \"#utility.yul\":2547:2570   */\n      sub\n        /* \"#utility.yul\":2543:2575   */\n      slt\n        /* \"#utility.yul\":2540:2659   */\n      iszero\n      tag_287\n      jumpi\n        /* \"#utility.yul\":2578:2657   */\n      tag_288\n      tag_267\n      jump\t// in\n    tag_288:\n        /* \"#utility.yul\":2540:2659   */\n    tag_287:\n        /* \"#utility.yul\":2698:2699   */\n      0x00\n        /* \"#utility.yul\":2723:2776   */\n      tag_289\n        /* \"#utility.yul\":2768:2775   */\n      dup6\n        /* \"#utility.yul\":2759:2765   */\n      dup3\n        /* \"#utility.yul\":2748:2757   */\n      dup7\n        /* \"#utility.yul\":2744:2766   */\n      add\n        /* \"#utility.yul\":2723:2776   */\n      tag_257\n      jump\t// in\n    tag_289:\n        /* \"#utility.yul\":2713:2776   */\n      swap3\n      pop\n        /* \"#utility.yul\":2669:2786   */\n      pop\n        /* \"#utility.yul\":2825:2827   */\n      0x20\n        /* \"#utility.yul\":2851:2904   */\n      tag_290\n        /* \"#utility.yul\":2896:2903   */\n      dup6\n        /* \"#utility.yul\":2887:2893   */\n      dup3\n        /* \"#utility.yul\":2876:2885   */\n      dup7\n        /* \"#utility.yul\":2872:2894   */\n      add\n        /* \"#utility.yul\":2851:2904   */\n      tag_257\n      jump\t// in\n    tag_290:\n        /* \"#utility.yul\":2841:2904   */\n      swap2\n      pop\n        /* \"#utility.yul\":2796:2914   */\n      pop\n        /* \"#utility.yul\":2447:2921   */\n      swap3\n      pop\n      swap3\n      swap1\n      pop\n      jump\t// out\n        /* \"#utility.yul\":2927:3546   */\n    tag_32:\n        /* \"#utility.yul\":3004:3010   */\n      0x00\n        /* \"#utility.yul\":3012:3018   */\n      dup1\n        /* \"#utility.yul\":3020:3026   */\n      0x00\n        /* \"#utility.yul\":3069:3071   */\n      0x60\n        /* \"#utility.yul\":3057:3066   */\n      dup5\n        /* \"#utility.yul\":3048:3055   */\n      dup7\n        /* \"#utility.yul\":3044:3067   */\n      sub\n        /* \"#utility.yul\":3040:3072   */\n      slt\n        /* \"#utility.yul\":3037:3156   */\n      iszero\n      tag_292\n      jumpi\n        /* \"#utility.yul\":3075:3154   */\n      tag_293\n      tag_267\n      jump\t// in\n    tag_293:\n        /* \"#utility.yul\":3037:3156   */\n    tag_292:\n        /* \"#utility.yul\":3195:3196   */\n      0x00\n        /* \"#utility.yul\":3220:3273   */\n      tag_294\n        /* \"#utility.yul\":3265:3272   */\n      dup7\n        /* \"#utility.yul\":3256:3262   */\n      dup3\n        /* \"#utility.yul\":3245:3254   */\n      dup8\n        /* \"#utility.yul\":3241:3263   */\n      add\n        /* \"#utility.yul\":3220:3273   */\n      tag_257\n      jump\t// in\n    tag_294:\n        /* \"#utility.yul\":3210:3273   */\n      swap4\n      pop\n        /* \"#utility.yul\":3166:3283   */\n      pop\n        /* \"#utility.yul\":3322:3324   */\n      0x20\n        /* \"#utility.yul\":3348:3401   */\n      tag_295\n        /* \"#utility.yul\":3393:3400   */\n      dup7\n        /* \"#utility.yul\":3384:3390   */\n      dup3\n        /* \"#utility.yul\":3373:3382   */\n      dup8\n        /* \"#utility.yul\":3369:3391   */\n      add\n        /* \"#utility.yul\":3348:3401   */\n      tag_257\n      jump\t// in\n    tag_295:\n        /* \"#utility.yul\":3338:3401   */\n      swap3\n      pop\n        /* \"#utility.yul\":3293:3411   */\n      pop\n        /* \"#utility.yul\":3450:3452   */\n      0x40\n        /* \"#utility.yul\":3476:3529   */\n      tag_296\n        /* \"#utility.yul\":3521:3528   */\n      dup7\n        /* \"#utility.yul\":3512:3518   */\n      dup3\n        /* \"#utility.yul\":3501:3510   */\n      dup8\n        /* \"#utility.yul\":3497:3519   */\n      add\n        /* \"#utility.yul\":3476:3529   */\n      tag_257\n      jump\t// in\n    tag_296:\n        /* \"#utility.yul\":3466:3529   */\n      swap2\n      pop\n        /* \"#utility.yul\":3421:3539   */\n      pop\n        /* \"#utility.yul\":2927:3546   */\n      swap3\n      pop\n      swap3\n      pop\n      swap3\n      jump\t// out\n        /* \"#utility.yul\":3552:3670   */\n    tag_297:\n        /* \"#utility.yul\":3639:3663   */\n      tag_299\n        /* \"#utility.yul\":3657:3662   */\n      dup2\n        /* \"#utility.yul\":3639:3663   */\n      tag_300\n      jump\t// in\n    tag_299:\n        /* \"#utility.yul\":3634:3637   */\n      dup3\n        /* \"#utility.yul\":3627:3664   */\n      mstore\n        /* \"#utility.yul\":3552:3670   */\n      pop\n      pop\n      jump\t// out\n        /* \"#utility.yul\":3676:3785   */\n    tag_301:\n        /* \"#utility.yul\":3757:3778   */\n      tag_303\n        /* \"#utility.yul\":3772:3777   */\n      dup2\n        /* \"#utility.yul\":3757:3778   */\n      tag_304\n      jump\t// in\n    tag_303:\n        /* \"#utility.yul\":3752:3755   */\n      dup3\n        /* \"#utility.yul\":3745:3779   */\n      mstore\n        /* \"#utility.yul\":3676:3785   */\n      pop\n      pop\n      jump\t// out\n        /* \"#utility.yul\":3791:3950   */\n    tag_305:\n        /* \"#utility.yul\":3892:3943   */\n      tag_307\n        /* \"#utility.yul\":3937:3942   */\n      dup2\n        /* \"#utility.yul\":3892:3943   */\n      tag_308\n      jump\t// in\n    tag_307:\n        /* \"#utility.yul\":3887:3890   */\n      dup3\n        /* \"#utility.yul\":3880:3944   */\n      mstore\n        /* \"#utility.yul\":3791:3950   */\n      pop\n      pop\n      jump\t// out\n        /* \"#utility.yul\":3956:4103   */\n    tag_309:\n        /* \"#utility.yul\":4051:4096   */\n      tag_311\n        /* \"#utility.yul\":4090:4095   */\n      dup2\n        /* \"#utility.yul\":4051:4096   */\n      tag_312\n      jump\t// in\n    tag_311:\n        /* \"#utility.yul\":4046:4049   */\n      dup3\n        /* \"#utility.yul\":4039:4097   */\n      mstore\n        /* \"#utility.yul\":3956:4103   */\n      pop\n      pop\n      jump\t// out\n        /* \"#utility.yul\":4109:4475   */\n    tag_313:\n        /* \"#utility.yul\":4251:4254   */\n      0x00\n        /* \"#utility.yul\":4272:4339   */\n      tag_315\n        /* \"#utility.yul\":4336:4338   */\n      0x14\n        /* \"#utility.yul\":4331:4334   */\n      dup4\n        /* \"#utility.yul\":4272:4339   */\n      tag_316\n      jump\t// in\n    tag_315:\n        /* \"#utility.yul\":4265:4339   */\n      swap2\n      pop\n        /* \"#utility.yul\":4348:4441   */\n      tag_317\n        /* \"#utility.yul\":4437:4440   */\n      dup3\n        /* \"#utility.yul\":4348:4441   */\n      tag_318\n      jump\t// in\n    tag_317:\n        /* \"#utility.yul\":4466:4468   */\n      0x20\n        /* \"#utility.yul\":4461:4464   */\n      dup3\n        /* \"#utility.yul\":4457:4469   */\n      add\n        /* \"#utility.yul\":4450:4469   */\n      swap1\n      pop\n        /* \"#utility.yul\":4109:4475   */\n      swap2\n      swap1\n      pop\n      jump\t// out\n        /* \"#utility.yul\":4481:4847   */\n    tag_319:\n        /* \"#utility.yul\":4623:4626   */\n      0x00\n        /* \"#utility.yul\":4644:4711   */\n      tag_321\n        /* \"#utility.yul\":4708:4710   */\n      0x26\n        /* \"#utility.yul\":4703:4706   */\n      dup4\n        /* \"#utility.yul\":4644:4711   */\n      tag_316\n      jump\t// in\n    tag_321:\n        /* \"#utility.yul\":4637:4711   */\n      swap2\n      pop\n        /* \"#utility.yul\":4720:4813   */\n      tag_322\n        /* \"#utility.yul\":4809:4812   */\n      dup3\n        /* \"#utility.yul\":4720:4813   */\n      tag_323\n      jump\t// in\n    tag_322:\n        /* \"#utility.yul\":4838:4840   */\n      0x40\n        /* \"#utility.yul\":4833:4836   */\n      dup3\n        /* \"#utility.yul\":4829:4841   */\n      add\n        /* \"#utility.yul\":4822:4841   */\n      swap1\n      pop\n        /* \"#utility.yul\":4481:4847   */\n      swap2\n      swap1\n      pop\n      jump\t// out\n        /* \"#utility.yul\":4853:5219   */\n    tag_324:\n        /* \"#utility.yul\":4995:4998   */\n      0x00\n        /* \"#utility.yul\":5016:5083   */\n      tag_326\n        /* \"#utility.yul\":5080:5082   */\n      0x18\n        /* \"#utility.yul\":5075:5078   */\n      dup4\n        /* \"#utility.yul\":5016:5083   */\n      tag_316\n      jump\t// in\n    tag_326:\n        /* \"#utility.yul\":5009:5083   */\n      swap2\n      pop\n        /* \"#utility.yul\":5092:5185   */\n      tag_327\n        /* \"#utility.yul\":5181:5184   */\n      dup3\n        /* \"#utility.yul\":5092:5185   */\n      tag_328\n      jump\t// in\n    tag_327:\n        /* \"#utility.yul\":5210:5212   */\n      0x20\n        /* \"#utility.yul\":5205:5208   */\n      dup3\n        /* \"#utility.yul\":5201:5213   */\n      add\n        /* \"#utility.yul\":5194:5213   */\n      swap1\n      pop\n        /* \"#utility.yul\":4853:5219   */\n      swap2\n      swap1\n      pop\n      jump\t// out\n        /* \"#utility.yul\":5225:5591   */\n    tag_329:\n        /* \"#utility.yul\":5367:5370   */\n      0x00\n        /* \"#utility.yul\":5388:5455   */\n      tag_331\n        /* \"#utility.yul\":5452:5454   */\n      0x10\n        /* \"#utility.yul\":5447:5450   */\n      dup4\n        /* \"#utility.yul\":5388:5455   */\n      tag_316\n      jump\t// in\n    tag_331:\n        /* \"#utility.yul\":5381:5455   */\n      swap2\n      pop\n        /* \"#utility.yul\":5464:5557   */\n      tag_332\n        /* \"#utility.yul\":5553:5556   */\n      dup3\n        /* \"#utility.yul\":5464:5557   */\n      tag_333\n      jump\t// in\n    tag_332:\n        /* \"#utility.yul\":5582:5584   */\n      0x20\n        /* \"#utility.yul\":5577:5580   */\n      dup3\n        /* \"#utility.yul\":5573:5585   */\n      add\n        /* \"#utility.yul\":5566:5585   */\n      swap1\n      pop\n        /* \"#utility.yul\":5225:5591   */\n      swap2\n      swap1\n      pop\n      jump\t// out\n        /* \"#utility.yul\":5597:5963   */\n    tag_334:\n        /* \"#utility.yul\":5739:5742   */\n      0x00\n        /* \"#utility.yul\":5760:5827   */\n      tag_336\n        /* \"#utility.yul\":5824:5826   */\n      0x20\n        /* \"#utility.yul\":5819:5822   */\n      dup4\n        /* \"#utility.yul\":5760:5827   */\n      tag_316\n      jump\t// in\n    tag_336:\n        /* \"#utility.yul\":5753:5827   */\n      swap2\n      pop\n        /* \"#utility.yul\":5836:5929   */\n      tag_337\n        /* \"#utility.yul\":5925:5928   */\n      dup3\n        /* \"#utility.yul\":5836:5929   */\n      tag_338\n      jump\t// in\n    tag_337:\n        /* \"#utility.yul\":5954:5956   */\n      0x20\n        /* \"#utility.yul\":5949:5952   */\n      dup3\n        /* \"#utility.yul\":5945:5957   */\n      add\n        /* \"#utility.yul\":5938:5957   */\n      swap1\n      pop\n        /* \"#utility.yul\":5597:5963   */\n      swap2\n      swap1\n      pop\n      jump\t// out\n        /* \"#utility.yul\":5969:6335   */\n    tag_339:\n        /* \"#utility.yul\":6111:6114   */\n      0x00\n        /* \"#utility.yul\":6132:6199   */\n      tag_341\n        /* \"#utility.yul\":6196:6198   */\n      0x11\n        /* \"#utility.yul\":6191:6194   */\n      dup4\n        /* \"#utility.yul\":6132:6199   */\n      tag_316\n      jump\t// in\n    tag_341:\n        /* \"#utility.yul\":6125:6199   */\n      swap2\n      pop\n        /* \"#utility.yul\":6208:6301   */\n      tag_342\n        /* \"#utility.yul\":6297:6300   */\n      dup3\n        /* \"#utility.yul\":6208:6301   */\n      tag_343\n      jump\t// in\n    tag_342:\n        /* \"#utility.yul\":6326:6328   */\n      0x20\n        /* \"#utility.yul\":6321:6324   */\n      dup3\n        /* \"#utility.yul\":6317:6329   */\n      add\n        /* \"#utility.yul\":6310:6329   */\n      swap1\n      pop\n        /* \"#utility.yul\":5969:6335   */\n      swap2\n      swap1\n      pop\n      jump\t// out\n        /* \"#utility.yul\":6341:6707   */\n    tag_344:\n        /* \"#utility.yul\":6483:6486   */\n      0x00\n        /* \"#utility.yul\":6504:6571   */\n      tag_346\n        /* \"#utility.yul\":6568:6570   */\n      0x12\n        /* \"#utility.yul\":6563:6566   */\n      dup4\n        /* \"#utility.yul\":6504:6571   */\n      tag_316\n      jump\t// in\n    tag_346:\n        /* \"#utility.yul\":6497:6571   */\n      swap2\n      pop\n        /* \"#utility.yul\":6580:6673   */\n      tag_347\n        /* \"#utility.yul\":6669:6672   */\n      dup3\n        /* \"#utility.yul\":6580:6673   */\n      tag_348\n      jump\t// in\n    tag_347:\n        /* \"#utility.yul\":6698:6700   */\n      0x20\n        /* \"#utility.yul\":6693:6696   */\n      dup3\n        /* \"#utility.yul\":6689:6701   */\n      add\n        /* \"#utility.yul\":6682:6701   */\n      swap1\n      pop\n        /* \"#utility.yul\":6341:6707   */\n      swap2\n      swap1\n      pop\n      jump\t// out\n        /* \"#utility.yul\":6773:7279   */\n    tag_349:\n        /* \"#utility.yul\":6914:6918   */\n      0x40\n        /* \"#utility.yul\":6909:6912   */\n      dup3\n        /* \"#utility.yul\":6905:6919   */\n      add\n        /* \"#utility.yul\":7000:7004   */\n      0x00\n        /* \"#utility.yul\":6993:6998   */\n      dup3\n        /* \"#utility.yul\":6989:7005   */\n      add\n        /* \"#utility.yul\":6983:7006   */\n      mload\n        /* \"#utility.yul\":7019:7082   */\n      tag_351\n        /* \"#utility.yul\":7076:7080   */\n      0x00\n        /* \"#utility.yul\":7071:7074   */\n      dup6\n        /* \"#utility.yul\":7067:7081   */\n      add\n        /* \"#utility.yul\":7053:7065   */\n      dup3\n        /* \"#utility.yul\":7019:7082   */\n      tag_352\n      jump\t// in\n    tag_351:\n        /* \"#utility.yul\":6929:7092   */\n      pop\n        /* \"#utility.yul\":7180:7184   */\n      0x20\n        /* \"#utility.yul\":7173:7178   */\n      dup3\n        /* \"#utility.yul\":7169:7185   */\n      add\n        /* \"#utility.yul\":7163:7186   */\n      mload\n        /* \"#utility.yul\":7199:7262   */\n      tag_353\n        /* \"#utility.yul\":7256:7260   */\n      0x20\n        /* \"#utility.yul\":7251:7254   */\n      dup6\n        /* \"#utility.yul\":7247:7261   */\n      add\n        /* \"#utility.yul\":7233:7245   */\n      dup3\n        /* \"#utility.yul\":7199:7262   */\n      tag_352\n      jump\t// in\n    tag_353:\n        /* \"#utility.yul\":7102:7272   */\n      pop\n        /* \"#utility.yul\":6883:7279   */\n      pop\n        /* \"#utility.yul\":6773:7279   */\n      pop\n      pop\n      jump\t// out\n        /* \"#utility.yul\":7343:8384   */\n    tag_354:\n        /* \"#utility.yul\":7482:7486   */\n      0xa0\n        /* \"#utility.yul\":7477:7480   */\n      dup3\n        /* \"#utility.yul\":7473:7487   */\n      add\n        /* \"#utility.yul\":7572:7576   */\n      0x00\n        /* \"#utility.yul\":7565:7570   */\n      dup3\n        /* \"#utility.yul\":7561:7577   */\n      add\n        /* \"#utility.yul\":7555:7578   */\n      mload\n        /* \"#utility.yul\":7591:7654   */\n      tag_356\n        /* \"#utility.yul\":7648:7652   */\n      0x00\n        /* \"#utility.yul\":7643:7646   */\n      dup6\n        /* \"#utility.yul\":7639:7653   */\n      add\n        /* \"#utility.yul\":7625:7637   */\n      dup3\n        /* \"#utility.yul\":7591:7654   */\n      tag_352\n      jump\t// in\n    tag_356:\n        /* \"#utility.yul\":7497:7664   */\n      pop\n        /* \"#utility.yul\":7749:7753   */\n      0x20\n        /* \"#utility.yul\":7742:7747   */\n      dup3\n        /* \"#utility.yul\":7738:7754   */\n      add\n        /* \"#utility.yul\":7732:7755   */\n      mload\n        /* \"#utility.yul\":7768:7831   */\n      tag_357\n        /* \"#utility.yul\":7825:7829   */\n      0x20\n        /* \"#utility.yul\":7820:7823   */\n      dup6\n        /* \"#utility.yul\":7816:7830   */\n      add\n        /* \"#utility.yul\":7802:7814   */\n      dup3\n        /* \"#utility.yul\":7768:7831   */\n      tag_352\n      jump\t// in\n    tag_357:\n        /* \"#utility.yul\":7674:7841   */\n      pop\n        /* \"#utility.yul\":7926:7930   */\n      0x40\n        /* \"#utility.yul\":7919:7924   */\n      dup3\n        /* \"#utility.yul\":7915:7931   */\n      add\n        /* \"#utility.yul\":7909:7932   */\n      mload\n        /* \"#utility.yul\":7945:8008   */\n      tag_358\n        /* \"#utility.yul\":8002:8006   */\n      0x40\n        /* \"#utility.yul\":7997:8000   */\n      dup6\n        /* \"#utility.yul\":7993:8007   */\n      add\n        /* \"#utility.yul\":7979:7991   */\n      dup3\n        /* \"#utility.yul\":7945:8008   */\n      tag_352\n      jump\t// in\n    tag_358:\n        /* \"#utility.yul\":7851:8018   */\n      pop\n        /* \"#utility.yul\":8105:8109   */\n      0x60\n        /* \"#utility.yul\":8098:8103   */\n      dup3\n        /* \"#utility.yul\":8094:8110   */\n      add\n        /* \"#utility.yul\":8088:8111   */\n      mload\n        /* \"#utility.yul\":8124:8187   */\n      tag_359\n        /* \"#utility.yul\":8181:8185   */\n      0x60\n        /* \"#utility.yul\":8176:8179   */\n      dup6\n        /* \"#utility.yul\":8172:8186   */\n      add\n        /* \"#utility.yul\":8158:8170   */\n      dup3\n        /* \"#utility.yul\":8124:8187   */\n      tag_352\n      jump\t// in\n    tag_359:\n        /* \"#utility.yul\":8028:8197   */\n      pop\n        /* \"#utility.yul\":8285:8289   */\n      0x80\n        /* \"#utility.yul\":8278:8283   */\n      dup3\n        /* \"#utility.yul\":8274:8290   */\n      add\n        /* \"#utility.yul\":8268:8291   */\n      mload\n        /* \"#utility.yul\":8304:8367   */\n      tag_360\n        /* \"#utility.yul\":8361:8365   */\n      0x80\n        /* \"#utility.yul\":8356:8359   */\n      dup6\n        /* \"#utility.yul\":8352:8366   */\n      add\n        /* \"#utility.yul\":8338:8350   */\n      dup3\n        /* \"#utility.yul\":8304:8367   */\n      tag_352\n      jump\t// in\n    tag_360:\n        /* \"#utility.yul\":8207:8377   */\n      pop\n        /* \"#utility.yul\":7451:8384   */\n      pop\n        /* \"#utility.yul\":7343:8384   */\n      pop\n      pop\n      jump\t// out\n        /* \"#utility.yul\":8390:8498   */\n    tag_352:\n        /* \"#utility.yul\":8467:8491   */\n      tag_362\n        /* \"#utility.yul\":8485:8490   */\n      dup2\n        /* \"#utility.yul\":8467:8491   */\n      tag_363\n      jump\t// in\n    tag_362:\n        /* \"#utility.yul\":8462:8465   */\n      dup3\n        /* \"#utility.yul\":8455:8492   */\n      mstore\n        /* \"#utility.yul\":8390:8498   */\n      pop\n      pop\n      jump\t// out\n        /* \"#utility.yul\":8504:8622   */\n    tag_364:\n        /* \"#utility.yul\":8591:8615   */\n      tag_366\n        /* \"#utility.yul\":8609:8614   */\n      dup2\n        /* \"#utility.yul\":8591:8615   */\n      tag_363\n      jump\t// in\n    tag_366:\n        /* \"#utility.yul\":8586:8589   */\n      dup3\n        /* \"#utility.yul\":8579:8616   */\n      mstore\n        /* \"#utility.yul\":8504:8622   */\n      pop\n      pop\n      jump\t// out\n        /* \"#utility.yul\":8628:8850   */\n    tag_67:\n        /* \"#utility.yul\":8721:8725   */\n      0x00\n        /* \"#utility.yul\":8759:8761   */\n      0x20\n        /* \"#utility.yul\":8748:8757   */\n      dup3\n        /* \"#utility.yul\":8744:8762   */\n      add\n        /* \"#utility.yul\":8736:8762   */\n      swap1\n      pop\n        /* \"#utility.yul\":8772:8843   */\n      tag_368\n        /* \"#utility.yul\":8840:8841   */\n      0x00\n        /* \"#utility.yul\":8829:8838   */\n      dup4\n        /* \"#utility.yul\":8825:8842   */\n      add\n        /* \"#utility.yul\":8816:8822   */\n      dup5\n        /* \"#utility.yul\":8772:8843   */\n      tag_297\n      jump\t// in\n    tag_368:\n        /* \"#utility.yul\":8628:8850   */\n      swap3\n      swap2\n      pop\n      pop\n      jump\t// out\n        /* \"#utility.yul\":8856:9298   */\n    tag_205:\n        /* \"#utility.yul\":9005:9009   */\n      0x00\n        /* \"#utility.yul\":9043:9045   */\n      0x60\n        /* \"#utility.yul\":9032:9041   */\n      dup3\n        /* \"#utility.yul\":9028:9046   */\n      add\n        /* \"#utility.yul\":9020:9046   */\n      swap1\n      pop\n        /* \"#utility.yul\":9056:9127   */\n      tag_370\n        /* \"#utility.yul\":9124:9125   */\n      0x00\n        /* \"#utility.yul\":9113:9122   */\n      dup4\n        /* \"#utility.yul\":9109:9126   */\n      add\n        /* \"#utility.yul\":9100:9106   */\n      dup7\n        /* \"#utility.yul\":9056:9127   */\n      tag_297\n      jump\t// in\n    tag_370:\n        /* \"#utility.yul\":9137:9209   */\n      tag_371\n        /* \"#utility.yul\":9205:9207   */\n      0x20\n        /* \"#utility.yul\":9194:9203   */\n      dup4\n        /* \"#utility.yul\":9190:9208   */\n      add\n        /* \"#utility.yul\":9181:9187   */\n      dup6\n        /* \"#utility.yul\":9137:9209   */\n      tag_297\n      jump\t// in\n    tag_371:\n        /* \"#utility.yul\":9219:9291   */\n      tag_372\n        /* \"#utility.yul\":9287:9289   */\n      0x40\n        /* \"#utility.yul\":9276:9285   */\n      dup4\n        /* \"#utility.yul\":9272:9290   */\n      add\n        /* \"#utility.yul\":9263:9269   */\n      dup5\n        /* \"#utility.yul\":9219:9291   */\n      tag_364\n      jump\t// in\n    tag_372:\n        /* \"#utility.yul\":8856:9298   */\n      swap5\n      swap4\n      pop\n      pop\n      pop\n      pop\n      jump\t// out\n        /* \"#utility.yul\":9304:9762   */\n    tag_140:\n        /* \"#utility.yul\":9461:9465   */\n      0x00\n        /* \"#utility.yul\":9499:9501   */\n      0x60\n        /* \"#utility.yul\":9488:9497   */\n      dup3\n        /* \"#utility.yul\":9484:9502   */\n      add\n        /* \"#utility.yul\":9476:9502   */\n      swap1\n      pop\n        /* \"#utility.yul\":9512:9583   */\n      tag_374\n        /* \"#utility.yul\":9580:9581   */\n      0x00\n        /* \"#utility.yul\":9569:9578   */\n      dup4\n        /* \"#utility.yul\":9565:9582   */\n      add\n        /* \"#utility.yul\":9556:9562   */\n      dup7\n        /* \"#utility.yul\":9512:9583   */\n      tag_297\n      jump\t// in\n    tag_374:\n        /* \"#utility.yul\":9593:9673   */\n      tag_375\n        /* \"#utility.yul\":9669:9671   */\n      0x20\n        /* \"#utility.yul\":9658:9667   */\n      dup4\n        /* \"#utility.yul\":9654:9672   */\n      add\n        /* \"#utility.yul\":9645:9651   */\n      dup6\n        /* \"#utility.yul\":9593:9673   */\n      tag_309\n      jump\t// in\n    tag_375:\n        /* \"#utility.yul\":9683:9755   */\n      tag_376\n        /* \"#utility.yul\":9751:9753   */\n      0x40\n        /* \"#utility.yul\":9740:9749   */\n      dup4\n        /* \"#utility.yul\":9736:9754   */\n      add\n        /* \"#utility.yul\":9727:9733   */\n      dup5\n        /* \"#utility.yul\":9683:9755   */\n      tag_364\n      jump\t// in\n    tag_376:\n        /* \"#utility.yul\":9304:9762   */\n      swap5\n      swap4\n      pop\n      pop\n      pop\n      pop\n      jump\t// out\n        /* \"#utility.yul\":9768:10100   */\n    tag_107:\n        /* \"#utility.yul\":9889:9893   */\n      0x00\n        /* \"#utility.yul\":9927:9929   */\n      0x40\n        /* \"#utility.yul\":9916:9925   */\n      dup3\n        /* \"#utility.yul\":9912:9930   */\n      add\n        /* \"#utility.yul\":9904:9930   */\n      swap1\n      pop\n        /* \"#utility.yul\":9940:10011   */\n      tag_378\n        /* \"#utility.yul\":10008:10009   */\n      0x00\n        /* \"#utility.yul\":9997:10006   */\n      dup4\n        /* \"#utility.yul\":9993:10010   */\n      add\n        /* \"#utility.yul\":9984:9990   */\n      dup6\n        /* \"#utility.yul\":9940:10011   */\n      tag_297\n      jump\t// in\n    tag_378:\n        /* \"#utility.yul\":10021:10093   */\n      tag_379\n        /* \"#utility.yul\":10089:10091   */\n      0x20\n        /* \"#utility.yul\":10078:10087   */\n      dup4\n        /* \"#utility.yul\":10074:10092   */\n      add\n        /* \"#utility.yul\":10065:10071   */\n      dup5\n        /* \"#utility.yul\":10021:10093   */\n      tag_364\n      jump\t// in\n    tag_379:\n        /* \"#utility.yul\":9768:10100   */\n      swap4\n      swap3\n      pop\n      pop\n      pop\n      jump\t// out\n        /* \"#utility.yul\":10106:10548   */\n    tag_114:\n        /* \"#utility.yul\":10255:10259   */\n      0x00\n        /* \"#utility.yul\":10293:10295   */\n      0x60\n        /* \"#utility.yul\":10282:10291   */\n      dup3\n        /* \"#utility.yul\":10278:10296   */\n      add\n        /* \"#utility.yul\":10270:10296   */\n      swap1\n      pop\n        /* \"#utility.yul\":10306:10377   */\n      tag_381\n        /* \"#utility.yul\":10374:10375   */\n      0x00\n        /* \"#utility.yul\":10363:10372   */\n      dup4\n        /* \"#utility.yul\":10359:10376   */\n      add\n        /* \"#utility.yul\":10350:10356   */\n      dup7\n        /* \"#utility.yul\":10306:10377   */\n      tag_297\n      jump\t// in\n    tag_381:\n        /* \"#utility.yul\":10387:10459   */\n      tag_382\n        /* \"#utility.yul\":10455:10457   */\n      0x20\n        /* \"#utility.yul\":10444:10453   */\n      dup4\n        /* \"#utility.yul\":10440:10458   */\n      add\n        /* \"#utility.yul\":10431:10437   */\n      dup6\n        /* \"#utility.yul\":10387:10459   */\n      tag_364\n      jump\t// in\n    tag_382:\n        /* \"#utility.yul\":10469:10541   */\n      tag_383\n        /* \"#utility.yul\":10537:10539   */\n      0x40\n        /* \"#utility.yul\":10526:10535   */\n      dup4\n        /* \"#utility.yul\":10522:10540   */\n      add\n        /* \"#utility.yul\":10513:10519   */\n      dup5\n        /* \"#utility.yul\":10469:10541   */\n      tag_364\n      jump\t// in\n    tag_383:\n        /* \"#utility.yul\":10106:10548   */\n      swap5\n      swap4\n      pop\n      pop\n      pop\n      pop\n      jump\t// out\n        /* \"#utility.yul\":10554:10764   */\n    tag_51:\n        /* \"#utility.yul\":10641:10645   */\n      0x00\n        /* \"#utility.yul\":10679:10681   */\n      0x20\n        /* \"#utility.yul\":10668:10677   */\n      dup3\n        /* \"#utility.yul\":10664:10682   */\n      add\n        /* \"#utility.yul\":10656:10682   */\n      swap1\n      pop\n        /* \"#utility.yul\":10692:10757   */\n      tag_385\n        /* \"#utility.yul\":10754:10755   */\n      0x00\n        /* \"#utility.yul\":10743:10752   */\n      dup4\n        /* \"#utility.yul\":10739:10756   */\n      add\n        /* \"#utility.yul\":10730:10736   */\n      dup5\n        /* \"#utility.yul\":10692:10757   */\n      tag_301\n      jump\t// in\n    tag_385:\n        /* \"#utility.yul\":10554:10764   */\n      swap3\n      swap2\n      pop\n      pop\n      jump\t// out\n        /* \"#utility.yul\":10770:11020   */\n    tag_47:\n        /* \"#utility.yul\":10877:10881   */\n      0x00\n        /* \"#utility.yul\":10915:10917   */\n      0x20\n        /* \"#utility.yul\":10904:10913   */\n      dup3\n        /* \"#utility.yul\":10900:10918   */\n      add\n        /* \"#utility.yul\":10892:10918   */\n      swap1\n      pop\n        /* \"#utility.yul\":10928:11013   */\n      tag_387\n        /* \"#utility.yul\":11010:11011   */\n      0x00\n        /* \"#utility.yul\":10999:11008   */\n      dup4\n        /* \"#utility.yul\":10995:11012   */\n      add\n        /* \"#utility.yul\":10986:10992   */\n      dup5\n        /* \"#utility.yul\":10928:11013   */\n      tag_305\n      jump\t// in\n    tag_387:\n        /* \"#utility.yul\":10770:11020   */\n      swap3\n      swap2\n      pop\n      pop\n      jump\t// out\n        /* \"#utility.yul\":11026:11445   */\n    tag_236:\n        /* \"#utility.yul\":11192:11196   */\n      0x00\n        /* \"#utility.yul\":11230:11232   */\n      0x20\n        /* \"#utility.yul\":11219:11228   */\n      dup3\n        /* \"#utility.yul\":11215:11233   */\n      add\n        /* \"#utility.yul\":11207:11233   */\n      swap1\n      pop\n        /* \"#utility.yul\":11279:11288   */\n      dup2\n        /* \"#utility.yul\":11273:11277   */\n      dup2\n        /* \"#utility.yul\":11269:11289   */\n      sub\n        /* \"#utility.yul\":11265:11266   */\n      0x00\n        /* \"#utility.yul\":11254:11263   */\n      dup4\n        /* \"#utility.yul\":11250:11267   */\n      add\n        /* \"#utility.yul\":11243:11290   */\n      mstore\n        /* \"#utility.yul\":11307:11438   */\n      tag_389\n        /* \"#utility.yul\":11433:11437   */\n      dup2\n        /* \"#utility.yul\":11307:11438   */\n      tag_313\n      jump\t// in\n    tag_389:\n        /* \"#utility.yul\":11299:11438   */\n      swap1\n      pop\n        /* \"#utility.yul\":11026:11445   */\n      swap2\n      swap1\n      pop\n      jump\t// out\n        /* \"#utility.yul\":11451:11870   */\n    tag_229:\n        /* \"#utility.yul\":11617:11621   */\n      0x00\n        /* \"#utility.yul\":11655:11657   */\n      0x20\n        /* \"#utility.yul\":11644:11653   */\n      dup3\n        /* \"#utility.yul\":11640:11658   */\n      add\n        /* \"#utility.yul\":11632:11658   */\n      swap1\n      pop\n        /* \"#utility.yul\":11704:11713   */\n      dup2\n        /* \"#utility.yul\":11698:11702   */\n      dup2\n        /* \"#utility.yul\":11694:11714   */\n      sub\n        /* \"#utility.yul\":11690:11691   */\n      0x00\n        /* \"#utility.yul\":11679:11688   */\n      dup4\n        /* \"#utility.yul\":11675:11692   */\n      add\n        /* \"#utility.yul\":11668:11715   */\n      mstore\n        /* \"#utility.yul\":11732:11863   */\n      tag_391\n        /* \"#utility.yul\":11858:11862   */\n      dup2\n        /* \"#utility.yul\":11732:11863   */\n      tag_319\n      jump\t// in\n    tag_391:\n        /* \"#utility.yul\":11724:11863   */\n      swap1\n      pop\n        /* \"#utility.yul\":11451:11870   */\n      swap2\n      swap1\n      pop\n      jump\t// out\n        /* \"#utility.yul\":11876:12295   */\n    tag_129:\n        /* \"#utility.yul\":12042:12046   */\n      0x00\n        /* \"#utility.yul\":12080:12082   */\n      0x20\n        /* \"#utility.yul\":12069:12078   */\n      dup3\n        /* \"#utility.yul\":12065:12083   */\n      add\n        /* \"#utility.yul\":12057:12083   */\n      swap1\n      pop\n        /* \"#utility.yul\":12129:12138   */\n      dup2\n        /* \"#utility.yul\":12123:12127   */\n      dup2\n        /* \"#utility.yul\":12119:12139   */\n      sub\n        /* \"#utility.yul\":12115:12116   */\n      0x00\n        /* \"#utility.yul\":12104:12113   */\n      dup4\n        /* \"#utility.yul\":12100:12117   */\n      add\n        /* \"#utility.yul\":12093:12140   */\n      mstore\n        /* \"#utility.yul\":12157:12288   */\n      tag_393\n        /* \"#utility.yul\":12283:12287   */\n      dup2\n        /* \"#utility.yul\":12157:12288   */\n      tag_324\n      jump\t// in\n    tag_393:\n        /* \"#utility.yul\":12149:12288   */\n      swap1\n      pop\n        /* \"#utility.yul\":11876:12295   */\n      swap2\n      swap1\n      pop\n      jump\t// out\n        /* \"#utility.yul\":12301:12720   */\n    tag_202:\n        /* \"#utility.yul\":12467:12471   */\n      0x00\n        /* \"#utility.yul\":12505:12507   */\n      0x20\n        /* \"#utility.yul\":12494:12503   */\n      dup3\n        /* \"#utility.yul\":12490:12508   */\n      add\n        /* \"#utility.yul\":12482:12508   */\n      swap1\n      pop\n        /* \"#utility.yul\":12554:12563   */\n      dup2\n        /* \"#utility.yul\":12548:12552   */\n      dup2\n        /* \"#utility.yul\":12544:12564   */\n      sub\n        /* \"#utility.yul\":12540:12541   */\n      0x00\n        /* \"#utility.yul\":12529:12538   */\n      dup4\n        /* \"#utility.yul\":12525:12542   */\n      add\n        /* \"#utility.yul\":12518:12565   */\n      mstore\n        /* \"#utility.yul\":12582:12713   */\n      tag_395\n        /* \"#utility.yul\":12708:12712   */\n      dup2\n        /* \"#utility.yul\":12582:12713   */\n      tag_329\n      jump\t// in\n    tag_395:\n        /* \"#utility.yul\":12574:12713   */\n      swap1\n      pop\n        /* \"#utility.yul\":12301:12720   */\n      swap2\n      swap1\n      pop\n      jump\t// out\n        /* \"#utility.yul\":12726:13145   */\n    tag_97:\n        /* \"#utility.yul\":12892:12896   */\n      0x00\n        /* \"#utility.yul\":12930:12932   */\n      0x20\n        /* \"#utility.yul\":12919:12928   */\n      dup3\n        /* \"#utility.yul\":12915:12933   */\n      add\n        /* \"#utility.yul\":12907:12933   */\n      swap1\n      pop\n        /* \"#utility.yul\":12979:12988   */\n      dup2\n        /* \"#utility.yul\":12973:12977   */\n      dup2\n        /* \"#utility.yul\":12969:12989   */\n      sub\n        /* \"#utility.yul\":12965:12966   */\n      0x00\n        /* \"#utility.yul\":12954:12963   */\n      dup4\n        /* \"#utility.yul\":12950:12967   */\n      add\n        /* \"#utility.yul\":12943:12990   */\n      mstore\n        /* \"#utility.yul\":13007:13138   */\n      tag_397\n        /* \"#utility.yul\":13133:13137   */\n      dup2\n        /* \"#utility.yul\":13007:13138   */\n      tag_334\n      jump\t// in\n    tag_397:\n        /* \"#utility.yul\":12999:13138   */\n      swap1\n      pop\n        /* \"#utility.yul\":12726:13145   */\n      swap2\n      swap1\n      pop\n      jump\t// out\n        /* \"#utility.yul\":13151:13570   */\n    tag_102:\n        /* \"#utility.yul\":13317:13321   */\n      0x00\n        /* \"#utility.yul\":13355:13357   */\n      0x20\n        /* \"#utility.yul\":13344:13353   */\n      dup3\n        /* \"#utility.yul\":13340:13358   */\n      add\n        /* \"#utility.yul\":13332:13358   */\n      swap1\n      pop\n        /* \"#utility.yul\":13404:13413   */\n      dup2\n        /* \"#utility.yul\":13398:13402   */\n      dup2\n        /* \"#utility.yul\":13394:13414   */\n      sub\n        /* \"#utility.yul\":13390:13391   */\n      0x00\n        /* \"#utility.yul\":13379:13388   */\n      dup4\n        /* \"#utility.yul\":13375:13392   */\n      add\n        /* \"#utility.yul\":13368:13415   */\n      mstore\n        /* \"#utility.yul\":13432:13563   */\n      tag_399\n        /* \"#utility.yul\":13558:13562   */\n      dup2\n        /* \"#utility.yul\":13432:13563   */\n      tag_339\n      jump\t// in\n    tag_399:\n        /* \"#utility.yul\":13424:13563   */\n      swap1\n      pop\n        /* \"#utility.yul\":13151:13570   */\n      swap2\n      swap1\n      pop\n      jump\t// out\n        /* \"#utility.yul\":13576:13995   */\n    tag_126:\n        /* \"#utility.yul\":13742:13746   */\n      0x00\n        /* \"#utility.yul\":13780:13782   */\n      0x20\n        /* \"#utility.yul\":13769:13778   */\n      dup3\n        /* \"#utility.yul\":13765:13783   */\n      add\n        /* \"#utility.yul\":13757:13783   */\n      swap1\n      pop\n        /* \"#utility.yul\":13829:13838   */\n      dup2\n        /* \"#utility.yul\":13823:13827   */\n      dup2\n        /* \"#utility.yul\":13819:13839   */\n      sub\n        /* \"#utility.yul\":13815:13816   */\n      0x00\n        /* \"#utility.yul\":13804:13813   */\n      dup4\n        /* \"#utility.yul\":13800:13817   */\n      add\n        /* \"#utility.yul\":13793:13840   */\n      mstore\n        /* \"#utility.yul\":13857:13988   */\n      tag_401\n        /* \"#utility.yul\":13983:13987   */\n      dup2\n        /* \"#utility.yul\":13857:13988   */\n      tag_344\n      jump\t// in\n    tag_401:\n        /* \"#utility.yul\":13849:13988   */\n      swap1\n      pop\n        /* \"#utility.yul\":13576:13995   */\n      swap2\n      swap1\n      pop\n      jump\t// out\n        /* \"#utility.yul\":14001:14709   */\n    tag_82:\n        /* \"#utility.yul\":14282:14286   */\n      0x00\n        /* \"#utility.yul\":14320:14323   */\n      0xc0\n        /* \"#utility.yul\":14309:14318   */\n      dup3\n        /* \"#utility.yul\":14305:14324   */\n      add\n        /* \"#utility.yul\":14297:14324   */\n      swap1\n      pop\n        /* \"#utility.yul\":14334:14449   */\n      tag_403\n        /* \"#utility.yul\":14446:14447   */\n      0x00\n        /* \"#utility.yul\":14435:14444   */\n      dup4\n        /* \"#utility.yul\":14431:14448   */\n      add\n        /* \"#utility.yul\":14422:14428   */\n      dup7\n        /* \"#utility.yul\":14334:14449   */\n      tag_349\n      jump\t// in\n    tag_403:\n        /* \"#utility.yul\":14459:14575   */\n      tag_404\n        /* \"#utility.yul\":14571:14573   */\n      0x40\n        /* \"#utility.yul\":14560:14569   */\n      dup4\n        /* \"#utility.yul\":14556:14574   */\n      add\n        /* \"#utility.yul\":14547:14553   */\n      dup6\n        /* \"#utility.yul\":14459:14575   */\n      tag_349\n      jump\t// in\n    tag_404:\n        /* \"#utility.yul\":14585:14702   */\n      tag_405\n        /* \"#utility.yul\":14697:14700   */\n      0x80\n        /* \"#utility.yul\":14686:14695   */\n      dup4\n        /* \"#utility.yul\":14682:14701   */\n      add\n        /* \"#utility.yul\":14673:14679   */\n      dup5\n        /* \"#utility.yul\":14585:14702   */\n      tag_349\n      jump\t// in\n    tag_405:\n        /* \"#utility.yul\":14001:14709   */\n      swap5\n      swap4\n      pop\n      pop\n      pop\n      pop\n      jump\t// out\n        /* \"#utility.yul\":14715:15745   */\n    tag_57:\n        /* \"#utility.yul\":15074:15078   */\n      0x00\n        /* \"#utility.yul\":15112:15115   */\n      0x0240\n        /* \"#utility.yul\":15101:15110   */\n      dup3\n        /* \"#utility.yul\":15097:15116   */\n      add\n        /* \"#utility.yul\":15089:15116   */\n      swap1\n      pop\n        /* \"#utility.yul\":15126:15239   */\n      tag_407\n        /* \"#utility.yul\":15236:15237   */\n      0x00\n        /* \"#utility.yul\":15225:15234   */\n      dup4\n        /* \"#utility.yul\":15221:15238   */\n      add\n        /* \"#utility.yul\":15212:15218   */\n      dup10\n        /* \"#utility.yul\":15126:15239   */\n      tag_354\n      jump\t// in\n    tag_407:\n        /* \"#utility.yul\":15249:15364   */\n      tag_408\n        /* \"#utility.yul\":15359:15362   */\n      0xa0\n        /* \"#utility.yul\":15348:15357   */\n      dup4\n        /* \"#utility.yul\":15344:15363   */\n      add\n        /* \"#utility.yul\":15335:15341   */\n      dup9\n        /* \"#utility.yul\":15249:15364   */\n      tag_354\n      jump\t// in\n    tag_408:\n        /* \"#utility.yul\":15374:15489   */\n      tag_409\n        /* \"#utility.yul\":15484:15487   */\n      0x0140\n        /* \"#utility.yul\":15473:15482   */\n      dup4\n        /* \"#utility.yul\":15469:15488   */\n      add\n        /* \"#utility.yul\":15460:15466   */\n      dup8\n        /* \"#utility.yul\":15374:15489   */\n      tag_354\n      jump\t// in\n    tag_409:\n        /* \"#utility.yul\":15499:15572   */\n      tag_410\n        /* \"#utility.yul\":15567:15570   */\n      0x01e0\n        /* \"#utility.yul\":15556:15565   */\n      dup4\n        /* \"#utility.yul\":15552:15571   */\n      add\n        /* \"#utility.yul\":15543:15549   */\n      dup7\n        /* \"#utility.yul\":15499:15572   */\n      tag_364\n      jump\t// in\n    tag_410:\n        /* \"#utility.yul\":15582:15655   */\n      tag_411\n        /* \"#utility.yul\":15650:15653   */\n      0x0200\n        /* \"#utility.yul\":15639:15648   */\n      dup4\n        /* \"#utility.yul\":15635:15654   */\n      add\n        /* \"#utility.yul\":15626:15632   */\n      dup6\n        /* \"#utility.yul\":15582:15655   */\n      tag_364\n      jump\t// in\n    tag_411:\n        /* \"#utility.yul\":15665:15738   */\n      tag_412\n        /* \"#utility.yul\":15733:15736   */\n      0x0220\n        /* \"#utility.yul\":15722:15731   */\n      dup4\n        /* \"#utility.yul\":15718:15737   */\n      add\n        /* \"#utility.yul\":15709:15715   */\n      dup5\n        /* \"#utility.yul\":15665:15738   */\n      tag_364\n      jump\t// in\n    tag_412:\n        /* \"#utility.yul\":14715:15745   */\n      swap8\n      swap7\n      pop\n      pop\n      pop\n      pop\n      pop\n      pop\n      pop\n      jump\t// out\n        /* \"#utility.yul\":15751:15973   */\n    tag_75:\n        /* \"#utility.yul\":15844:15848   */\n      0x00\n        /* \"#utility.yul\":15882:15884   */\n      0x20\n        /* \"#utility.yul\":15871:15880   */\n      dup3\n        /* \"#utility.yul\":15867:15885   */\n      add\n        /* \"#utility.yul\":15859:15885   */\n      swap1\n      pop\n        /* \"#utility.yul\":15895:15966   */\n      tag_414\n        /* \"#utility.yul\":15963:15964   */\n      0x00\n        /* \"#utility.yul\":15952:15961   */\n      dup4\n        /* \"#utility.yul\":15948:15965   */\n      add\n        /* \"#utility.yul\":15939:15945   */\n      dup5\n        /* \"#utility.yul\":15895:15966   */\n      tag_364\n      jump\t// in\n    tag_414:\n        /* \"#utility.yul\":15751:15973   */\n      swap3\n      swap2\n      pop\n      pop\n      jump\t// out\n        /* \"#utility.yul\":15979:16311   */\n    tag_87:\n        /* \"#utility.yul\":16100:16104   */\n      0x00\n        /* \"#utility.yul\":16138:16140   */\n      0x40\n        /* \"#utility.yul\":16127:16136   */\n      dup3\n        /* \"#utility.yul\":16123:16141   */\n      add\n        /* \"#utility.yul\":16115:16141   */\n      swap1\n      pop\n        /* \"#utility.yul\":16151:16222   */\n      tag_416\n        /* \"#utility.yul\":16219:16220   */\n      0x00\n        /* \"#utility.yul\":16208:16217   */\n      dup4\n        /* \"#utility.yul\":16204:16221   */\n      add\n        /* \"#utility.yul\":16195:16201   */\n      dup6\n        /* \"#utility.yul\":16151:16222   */\n      tag_364\n      jump\t// in\n    tag_416:\n        /* \"#utility.yul\":16232:16304   */\n      tag_417\n        /* \"#utility.yul\":16300:16302   */\n      0x20\n        /* \"#utility.yul\":16289:16298   */\n      dup4\n        /* \"#utility.yul\":16285:16303   */\n      add\n        /* \"#utility.yul\":16276:16282   */\n      dup5\n        /* \"#utility.yul\":16232:16304   */\n      tag_364\n      jump\t// in\n    tag_417:\n        /* \"#utility.yul\":15979:16311   */\n      swap4\n      swap3\n      pop\n      pop\n      pop\n      jump\t// out\n        /* \"#utility.yul\":16317:16981   */\n    tag_29:\n        /* \"#utility.yul\":16522:16526   */\n      0x00\n        /* \"#utility.yul\":16560:16563   */\n      0xa0\n        /* \"#utility.yul\":16549:16558   */\n      dup3\n        /* \"#utility.yul\":16545:16564   */\n      add\n        /* \"#utility.yul\":16537:16564   */\n      swap1\n      pop\n        /* \"#utility.yul\":16574:16645   */\n      tag_419\n        /* \"#utility.yul\":16642:16643   */\n      0x00\n        /* \"#utility.yul\":16631:16640   */\n      dup4\n        /* \"#utility.yul\":16627:16644   */\n      add\n        /* \"#utility.yul\":16618:16624   */\n      dup9\n        /* \"#utility.yul\":16574:16645   */\n      tag_364\n      jump\t// in\n    tag_419:\n        /* \"#utility.yul\":16655:16727   */\n      tag_420\n        /* \"#utility.yul\":16723:16725   */\n      0x20\n        /* \"#utility.yul\":16712:16721   */\n      dup4\n        /* \"#utility.yul\":16708:16726   */\n      add\n        /* \"#utility.yul\":16699:16705   */\n      dup8\n        /* \"#utility.yul\":16655:16727   */\n      tag_364\n      jump\t// in\n    tag_420:\n        /* \"#utility.yul\":16737:16809   */\n      tag_421\n        /* \"#utility.yul\":16805:16807   */\n      0x40\n        /* \"#utility.yul\":16794:16803   */\n      dup4\n        /* \"#utility.yul\":16790:16808   */\n      add\n        /* \"#utility.yul\":16781:16787   */\n      dup7\n        /* \"#utility.yul\":16737:16809   */\n      tag_364\n      jump\t// in\n    tag_421:\n        /* \"#utility.yul\":16819:16891   */\n      tag_422\n        /* \"#utility.yul\":16887:16889   */\n      0x60\n        /* \"#utility.yul\":16876:16885   */\n      dup4\n        /* \"#utility.yul\":16872:16890   */\n      add\n        /* \"#utility.yul\":16863:16869   */\n      dup6\n        /* \"#utility.yul\":16819:16891   */\n      tag_364\n      jump\t// in\n    tag_422:\n        /* \"#utility.yul\":16901:16974   */\n      tag_423\n        /* \"#utility.yul\":16969:16972   */\n      0x80\n        /* \"#utility.yul\":16958:16967   */\n      dup4\n        /* \"#utility.yul\":16954:16973   */\n      add\n        /* \"#utility.yul\":16945:16951   */\n      dup5\n        /* \"#utility.yul\":16901:16974   */\n      tag_364\n      jump\t// in\n    tag_423:\n        /* \"#utility.yul\":16317:16981   */\n      swap7\n      swap6\n      pop\n      pop\n      pop\n      pop\n      pop\n      pop\n      jump\t// out\n        /* \"#utility.yul\":17068:17237   */\n    tag_316:\n        /* \"#utility.yul\":17152:17163   */\n      0x00\n        /* \"#utility.yul\":17186:17192   */\n      dup3\n        /* \"#utility.yul\":17181:17184   */\n      dup3\n        /* \"#utility.yul\":17174:17193   */\n      mstore\n        /* \"#utility.yul\":17226:17230   */\n      0x20\n        /* \"#utility.yul\":17221:17224   */\n      dup3\n        /* \"#utility.yul\":17217:17231   */\n      add\n        /* \"#utility.yul\":17202:17231   */\n      swap1\n      pop\n        /* \"#utility.yul\":17068:17237   */\n      swap3\n      swap2\n      pop\n      pop\n      jump\t// out\n        /* \"#utility.yul\":17243:17548   */\n    tag_105:\n        /* \"#utility.yul\":17283:17286   */\n      0x00\n        /* \"#utility.yul\":17302:17322   */\n      tag_428\n        /* \"#utility.yul\":17320:17321   */\n      dup3\n        /* \"#utility.yul\":17302:17322   */\n      tag_363\n      jump\t// in\n    tag_428:\n        /* \"#utility.yul\":17297:17322   */\n      swap2\n      pop\n        /* \"#utility.yul\":17336:17356   */\n      tag_429\n        /* \"#utility.yul\":17354:17355   */\n      dup4\n        /* \"#utility.yul\":17336:17356   */\n      tag_363\n      jump\t// in\n    tag_429:\n        /* \"#utility.yul\":17331:17356   */\n      swap3\n      pop\n        /* \"#utility.yul\":17490:17491   */\n      dup3\n        /* \"#utility.yul\":17422:17488   */\n      0xffffffffffffffffffffffffffffffffffffffffffffffffffffffffffffffff\n        /* \"#utility.yul\":17418:17492   */\n      sub\n        /* \"#utility.yul\":17415:17416   */\n      dup3\n        /* \"#utility.yul\":17412:17493   */\n      gt\n        /* \"#utility.yul\":17409:17516   */\n      iszero\n      tag_430\n      jumpi\n        /* \"#utility.yul\":17496:17514   */\n      tag_431\n      tag_432\n      jump\t// in\n    tag_431:\n        /* \"#utility.yul\":17409:17516   */\n    tag_430:\n        /* \"#utility.yul\":17540:17541   */\n      dup3\n        /* \"#utility.yul\":17537:17538   */\n      dup3\n        /* \"#utility.yul\":17533:17542   */\n      add\n        /* \"#utility.yul\":17526:17542   */\n      swap1\n      pop\n        /* \"#utility.yul\":17243:17548   */\n      swap3\n      swap2\n      pop\n      pop\n      jump\t// out\n        /* \"#utility.yul\":17554:17739   */\n    tag_195:\n        /* \"#utility.yul\":17594:17595   */\n      0x00\n        /* \"#utility.yul\":17611:17631   */\n      tag_434\n        /* \"#utility.yul\":17629:17630   */\n      dup3\n        /* \"#utility.yul\":17611:17631   */\n      tag_363\n      jump\t// in\n    tag_434:\n        /* \"#utility.yul\":17606:17631   */\n      swap2\n      pop\n        /* \"#utility.yul\":17645:17665   */\n      tag_435\n        /* \"#utility.yul\":17663:17664   */\n      dup4\n        /* \"#utility.yul\":17645:17665   */\n      tag_363\n      jump\t// in\n    tag_435:\n        /* \"#utility.yul\":17640:17665   */\n      swap3\n      pop\n        /* \"#utility.yul\":17684:17685   */\n      dup3\n        /* \"#utility.yul\":17674:17709   */\n      tag_436\n      jumpi\n        /* \"#utility.yul\":17689:17707   */\n      tag_437\n      tag_438\n      jump\t// in\n    tag_437:\n        /* \"#utility.yul\":17674:17709   */\n    tag_436:\n        /* \"#utility.yul\":17731:17732   */\n      dup3\n        /* \"#utility.yul\":17728:17729   */\n      dup3\n        /* \"#utility.yul\":17724:17733   */\n      div\n        /* \"#utility.yul\":17719:17733   */\n      swap1\n      pop\n        /* \"#utility.yul\":17554:17739   */\n      swap3\n      swap2\n      pop\n      pop\n      jump\t// out\n        /* \"#utility.yul\":17745:18093   */\n    tag_193:\n        /* \"#utility.yul\":17785:17792   */\n      0x00\n        /* \"#utility.yul\":17808:17828   */\n      tag_440\n        /* \"#utility.yul\":17826:17827   */\n      dup3\n        /* \"#utility.yul\":17808:17828   */\n      tag_363\n      jump\t// in\n    tag_440:\n        /* \"#utility.yul\":17803:17828   */\n      swap2\n      pop\n        /* \"#utility.yul\":17842:17862   */\n      tag_441\n        /* \"#utility.yul\":17860:17861   */\n      dup4\n        /* \"#utility.yul\":17842:17862   */\n      tag_363\n      jump\t// in\n    tag_441:\n        /* \"#utility.yul\":17837:17862   */\n      swap3\n      pop\n        /* \"#utility.yul\":18030:18031   */\n      dup2\n        /* \"#utility.yul\":17962:18028   */\n      0xffffffffffffffffffffffffffffffffffffffffffffffffffffffffffffffff\n        /* \"#utility.yul\":17958:18032   */\n      div\n        /* \"#utility.yul\":17955:17956   */\n      dup4\n        /* \"#utility.yul\":17952:18033   */\n      gt\n        /* \"#utility.yul\":17947:17948   */\n      dup3\n        /* \"#utility.yul\":17940:17949   */\n      iszero\n        /* \"#utility.yul\":17933:17950   */\n      iszero\n        /* \"#utility.yul\":17929:18034   */\n      and\n        /* \"#utility.yul\":17926:18057   */\n      iszero\n      tag_442\n      jumpi\n        /* \"#utility.yul\":18037:18055   */\n      tag_443\n      tag_432\n      jump\t// in\n    tag_443:\n        /* \"#utility.yul\":17926:18057   */\n    tag_442:\n        /* \"#utility.yul\":18085:18086   */\n      dup3\n        /* \"#utility.yul\":18082:18083   */\n      dup3\n        /* \"#utility.yul\":18078:18087   */\n      mul\n        /* \"#utility.yul\":18067:18087   */\n      swap1\n      pop\n        /* \"#utility.yul\":17745:18093   */\n      swap3\n      swap2\n      pop\n      pop\n      jump\t// out\n        /* \"#utility.yul\":18099:18290   */\n    tag_132:\n        /* \"#utility.yul\":18139:18143   */\n      0x00\n        /* \"#utility.yul\":18159:18179   */\n      tag_445\n        /* \"#utility.yul\":18177:18178   */\n      dup3\n        /* \"#utility.yul\":18159:18179   */\n      tag_363\n      jump\t// in\n    tag_445:\n        /* \"#utility.yul\":18154:18179   */\n      swap2\n      pop\n        /* \"#utility.yul\":18193:18213   */\n      tag_446\n        /* \"#utility.yul\":18211:18212   */\n      dup4\n        /* \"#utility.yul\":18193:18213   */\n      tag_363\n      jump\t// in\n    tag_446:\n        /* \"#utility.yul\":18188:18213   */\n      swap3\n      pop\n        /* \"#utility.yul\":18232:18233   */\n      dup3\n        /* \"#utility.yul\":18229:18230   */\n      dup3\n        /* \"#utility.yul\":18226:18234   */\n      lt\n        /* \"#utility.yul\":18223:18257   */\n      iszero\n      tag_447\n      jumpi\n        /* \"#utility.yul\":18237:18255   */\n      tag_448\n      tag_432\n      jump\t// in\n    tag_448:\n        /* \"#utility.yul\":18223:18257   */\n    tag_447:\n        /* \"#utility.yul\":18282:18283   */\n      dup3\n        /* \"#utility.yul\":18279:18280   */\n      dup3\n        /* \"#utility.yul\":18275:18284   */\n      sub\n        /* \"#utility.yul\":18267:18284   */\n      swap1\n      pop\n        /* \"#utility.yul\":18099:18290   */\n      swap3\n      swap2\n      pop\n      pop\n      jump\t// out\n        /* \"#utility.yul\":18296:18392   */\n    tag_300:\n        /* \"#utility.yul\":18333:18340   */\n      0x00\n        /* \"#utility.yul\":18362:18386   */\n      tag_450\n        /* \"#utility.yul\":18380:18385   */\n      dup3\n        /* \"#utility.yul\":18362:18386   */\n      tag_451\n      jump\t// in\n    tag_450:\n        /* \"#utility.yul\":18351:18386   */\n      swap1\n      pop\n        /* \"#utility.yul\":18296:18392   */\n      swap2\n      swap1\n      pop\n      jump\t// out\n        /* \"#utility.yul\":18398:18488   */\n    tag_304:\n        /* \"#utility.yul\":18432:18439   */\n      0x00\n        /* \"#utility.yul\":18475:18480   */\n      dup2\n        /* \"#utility.yul\":18468:18481   */\n      iszero\n        /* \"#utility.yul\":18461:18482   */\n      iszero\n        /* \"#utility.yul\":18450:18482   */\n      swap1\n      pop\n        /* \"#utility.yul\":18398:18488   */\n      swap2\n      swap1\n      pop\n      jump\t// out\n        /* \"#utility.yul\":18494:18620   */\n    tag_451:\n        /* \"#utility.yul\":18531:18538   */\n      0x00\n        /* \"#utility.yul\":18571:18613   */\n      0xffffffffffffffffffffffffffffffffffffffff\n        /* \"#utility.yul\":18564:18569   */\n      dup3\n        /* \"#utility.yul\":18560:18614   */\n      and\n        /* \"#utility.yul\":18549:18614   */\n      swap1\n      pop\n        /* \"#utility.yul\":18494:18620   */\n      swap2\n      swap1\n      pop\n      jump\t// out\n        /* \"#utility.yul\":18626:18703   */\n    tag_363:\n        /* \"#utility.yul\":18663:18670   */\n      0x00\n        /* \"#utility.yul\":18692:18697   */\n      dup2\n        /* \"#utility.yul\":18681:18697   */\n      swap1\n      pop\n        /* \"#utility.yul\":18626:18703   */\n      swap2\n      swap1\n      pop\n      jump\t// out\n        /* \"#utility.yul\":18709:18849   */\n    tag_308:\n        /* \"#utility.yul\":18773:18782   */\n      0x00\n        /* \"#utility.yul\":18806:18843   */\n      tag_456\n        /* \"#utility.yul\":18837:18842   */\n      dup3\n        /* \"#utility.yul\":18806:18843   */\n      tag_457\n      jump\t// in\n    tag_456:\n        /* \"#utility.yul\":18793:18843   */\n      swap1\n      pop\n        /* \"#utility.yul\":18709:18849   */\n      swap2\n      swap1\n      pop\n      jump\t// out\n        /* \"#utility.yul\":18855:18976   */\n    tag_312:\n        /* \"#utility.yul\":18913:18922   */\n      0x00\n        /* \"#utility.yul\":18946:18970   */\n      tag_459\n        /* \"#utility.yul\":18964:18969   */\n      dup3\n        /* \"#utility.yul\":18946:18970   */\n      tag_363\n      jump\t// in\n    tag_459:\n        /* \"#utility.yul\":18933:18970   */\n      swap1\n      pop\n        /* \"#utility.yul\":18855:18976   */\n      swap2\n      swap1\n      pop\n      jump\t// out\n        /* \"#utility.yul\":18982:19108   */\n    tag_457:\n        /* \"#utility.yul\":19032:19041   */\n      0x00\n        /* \"#utility.yul\":19065:19102   */\n      tag_461\n        /* \"#utility.yul\":19096:19101   */\n      dup3\n        /* \"#utility.yul\":19065:19102   */\n      tag_462\n      jump\t// in\n    tag_461:\n        /* \"#utility.yul\":19052:19102   */\n      swap1\n      pop\n        /* \"#utility.yul\":18982:19108   */\n      swap2\n      swap1\n      pop\n      jump\t// out\n        /* \"#utility.yul\":19114:19227   */\n    tag_462:\n        /* \"#utility.yul\":19164:19173   */\n      0x00\n        /* \"#utility.yul\":19197:19221   */\n      tag_464\n        /* \"#utility.yul\":19215:19220   */\n      dup3\n        /* \"#utility.yul\":19197:19221   */\n      tag_451\n      jump\t// in\n    tag_464:\n        /* \"#utility.yul\":19184:19221   */\n      swap1\n      pop\n        /* \"#utility.yul\":19114:19227   */\n      swap2\n      swap1\n      pop\n      jump\t// out\n        /* \"#utility.yul\":19233:19413   */\n    tag_432:\n        /* \"#utility.yul\":19281:19358   */\n      0x4e487b7100000000000000000000000000000000000000000000000000000000\n        /* \"#utility.yul\":19278:19279   */\n      0x00\n        /* \"#utility.yul\":19271:19359   */\n      mstore\n        /* \"#utility.yul\":19378:19382   */\n      0x11\n        /* \"#utility.yul\":19375:19376   */\n      0x04\n        /* \"#utility.yul\":19368:19383   */\n      mstore\n        /* \"#utility.yul\":19402:19406   */\n      0x24\n        /* \"#utility.yul\":19399:19400   */\n      0x00\n        /* \"#utility.yul\":19392:19407   */\n      revert\n        /* \"#utility.yul\":19419:19599   */\n    tag_438:\n        /* \"#utility.yul\":19467:19544   */\n      0x4e487b7100000000000000000000000000000000000000000000000000000000\n        /* \"#utility.yul\":19464:19465   */\n      0x00\n        /* \"#utility.yul\":19457:19545   */\n      mstore\n        /* \"#utility.yul\":19564:19568   */\n      0x12\n        /* \"#utility.yul\":19561:19562   */\n      0x04\n        /* \"#utility.yul\":19554:19569   */\n      mstore\n        /* \"#utility.yul\":19588:19592   */\n      0x24\n        /* \"#utility.yul\":19585:19586   */\n      0x00\n        /* \"#utility.yul\":19578:19593   */\n      revert\n        /* \"#utility.yul\":19728:19845   */\n    tag_267:\n        /* \"#utility.yul\":19837:19838   */\n      0x00\n        /* \"#utility.yul\":19834:19835   */\n      dup1\n        /* \"#utility.yul\":19827:19839   */\n      revert\n        /* \"#utility.yul\":19851:20021   */\n    tag_318:\n        /* \"#utility.yul\":19991:20013   */\n      0x5061757361626c653a206e6f7420706175736564000000000000000000000000\n        /* \"#utility.yul\":19987:19988   */\n      0x00\n        /* \"#utility.yul\":19979:19985   */\n      dup3\n        /* \"#utility.yul\":19975:19989   */\n      add\n        /* \"#utility.yul\":19968:20014   */\n      mstore\n        /* \"#utility.yul\":19851:20021   */\n      pop\n      jump\t// out\n        /* \"#utility.yul\":20027:20252   */\n    tag_323:\n        /* \"#utility.yul\":20167:20201   */\n      0x4f776e61626c653a206e6577206f776e657220697320746865207a65726f2061\n        /* \"#utility.yul\":20163:20164   */\n      0x00\n        /* \"#utility.yul\":20155:20161   */\n      dup3\n        /* \"#utility.yul\":20151:20165   */\n      add\n        /* \"#utility.yul\":20144:20202   */\n      mstore\n        /* \"#utility.yul\":20236:20244   */\n      0x6464726573730000000000000000000000000000000000000000000000000000\n        /* \"#utility.yul\":20231:20233   */\n      0x20\n        /* \"#utility.yul\":20223:20229   */\n      dup3\n        /* \"#utility.yul\":20219:20234   */\n      add\n        /* \"#utility.yul\":20212:20245   */\n      mstore\n        /* \"#utility.yul\":20027:20252   */\n      pop\n      jump\t// out\n        /* \"#utility.yul\":20258:20432   */\n    tag_328:\n        /* \"#utility.yul\":20398:20424   */\n      0x4465706f736974206e6f7420756e6c6f636b6564207965740000000000000000\n        /* \"#utility.yul\":20394:20395   */\n      0x00\n        /* \"#utility.yul\":20386:20392   */\n      dup3\n        /* \"#utility.yul\":20382:20396   */\n      add\n        /* \"#utility.yul\":20375:20425   */\n      mstore\n        /* \"#utility.yul\":20258:20432   */\n      pop\n      jump\t// out\n        /* \"#utility.yul\":20438:20604   */\n    tag_333:\n        /* \"#utility.yul\":20578:20596   */\n      0x5061757361626c653a2070617573656400000000000000000000000000000000\n        /* \"#utility.yul\":20574:20575   */\n      0x00\n        /* \"#utility.yul\":20566:20572   */\n      dup3\n        /* \"#utility.yul\":20562:20576   */\n      add\n        /* \"#utility.yul\":20555:20597   */\n      mstore\n        /* \"#utility.yul\":20438:20604   */\n      pop\n      jump\t// out\n        /* \"#utility.yul\":20610:20792   */\n    tag_338:\n        /* \"#utility.yul\":20750:20784   */\n      0x4f776e61626c653a2063616c6c6572206973206e6f7420746865206f776e6572\n        /* \"#utility.yul\":20746:20747   */\n      0x00\n        /* \"#utility.yul\":20738:20744   */\n      dup3\n        /* \"#utility.yul\":20734:20748   */\n      add\n        /* \"#utility.yul\":20727:20785   */\n      mstore\n        /* \"#utility.yul\":20610:20792   */\n      pop\n      jump\t// out\n        /* \"#utility.yul\":20798:20965   */\n    tag_343:\n        /* \"#utility.yul\":20938:20957   */\n      0x4e6f20616374697665206465706f736974000000000000000000000000000000\n        /* \"#utility.yul\":20934:20935   */\n      0x00\n        /* \"#utility.yul\":20926:20932   */\n      dup3\n        /* \"#utility.yul\":20922:20936   */\n      add\n        /* \"#utility.yul\":20915:20958   */\n      mstore\n        /* \"#utility.yul\":20798:20965   */\n      pop\n      jump\t// out\n        /* \"#utility.yul\":20971:21139   */\n    tag_348:\n        /* \"#utility.yul\":21111:21131   */\n      0x4e6f7420656e6f756768206465706f7369740000000000000000000000000000\n        /* \"#utility.yul\":21107:21108   */\n      0x00\n        /* \"#utility.yul\":21099:21105   */\n      dup3\n        /* \"#utility.yul\":21095:21109   */\n      add\n        /* \"#utility.yul\":21088:21132   */\n      mstore\n        /* \"#utility.yul\":20971:21139   */\n      pop\n      jump\t// out\n        /* \"#utility.yul\":21145:21267   */\n    tag_252:\n        /* \"#utility.yul\":21218:21242   */\n      tag_478\n        /* \"#utility.yul\":21236:21241   */\n      dup2\n        /* \"#utility.yul\":21218:21242   */\n      tag_300\n      jump\t// in\n    tag_478:\n        /* \"#utility.yul\":21211:21216   */\n      dup2\n        /* \"#utility.yul\":21208:21243   */\n      eq\n        /* \"#utility.yul\":21198:21261   */\n      tag_479\n      jumpi\n        /* \"#utility.yul\":21257:21258   */\n      0x00\n        /* \"#utility.yul\":21254:21255   */\n      dup1\n        /* \"#utility.yul\":21247:21259   */\n      revert\n        /* \"#utility.yul\":21198:21261   */\n    tag_479:\n        /* \"#utility.yul\":21145:21267   */\n      pop\n      jump\t// out\n        /* \"#utility.yul\":21273:21389   */\n    tag_256:\n        /* \"#utility.yul\":21343:21364   */\n      tag_481\n        /* \"#utility.yul\":21358:21363   */\n      dup2\n        /* \"#utility.yul\":21343:21364   */\n      tag_304\n      jump\t// in\n    tag_481:\n        /* \"#utility.yul\":21336:21341   */\n      dup2\n        /* \"#utility.yul\":21333:21365   */\n      eq\n        /* \"#utility.yul\":21323:21383   */\n      tag_482\n      jumpi\n        /* \"#utility.yul\":21379:21380   */\n      0x00\n        /* \"#utility.yul\":21376:21377   */\n      dup1\n        /* \"#utility.yul\":21369:21381   */\n      revert\n        /* \"#utility.yul\":21323:21383   */\n    tag_482:\n        /* \"#utility.yul\":21273:21389   */\n      pop\n      jump\t// out\n        /* \"#utility.yul\":21395:21517   */\n    tag_260:\n        /* \"#utility.yul\":21468:21492   */\n      tag_484\n        /* \"#utility.yul\":21486:21491   */\n      dup2\n        /* \"#utility.yul\":21468:21492   */\n      tag_363\n      jump\t// in\n    tag_484:\n        /* \"#utility.yul\":21461:21466   */\n      dup2\n        /* \"#utility.yul\":21458:21493   */\n      eq\n        /* \"#utility.yul\":21448:21511   */\n      tag_485\n      jumpi\n        /* \"#utility.yul\":21507:21508   */\n      0x00\n        /* \"#utility.yul\":21504:21505   */\n      dup1\n        /* \"#utility.yul\":21497:21509   */\n      revert\n        /* \"#utility.yul\":21448:21511   */\n    tag_485:\n        /* \"#utility.yul\":21395:21517   */\n      pop\n      jump\t// out\n\n    auxdata: 0xa264697066735822122020378e839f3b1e62400867a6df69027944bfdb14caf04bede32d44fea9a43ab764736f6c63430008070033\n}\n",
				"bytecode": {
					"linkReferences": {},
					"object": "60806040523480156200001157600080fd5b506040516200268f3803806200268f83398181016040528101906200003791906200019c565b620000576200004b620000b960201b60201c565b620000c160201b60201c565b60008060146101000a81548160ff02191690831515021790555080600160006101000a81548173ffffffffffffffffffffffffffffffffffffffff021916908373ffffffffffffffffffffffffffffffffffffffff1602179055505062000221565b600033905090565b60008060009054906101000a900473ffffffffffffffffffffffffffffffffffffffff169050816000806101000a81548173ffffffffffffffffffffffffffffffffffffffff021916908373ffffffffffffffffffffffffffffffffffffffff1602179055508173ffffffffffffffffffffffffffffffffffffffff168173ffffffffffffffffffffffffffffffffffffffff167f8be0079c531659141344cd1fd0a4f28419497f9722a3daafe3b4186f6b6457e060405160405180910390a35050565b600081519050620001968162000207565b92915050565b600060208284031215620001b557620001b462000202565b5b6000620001c58482850162000185565b91505092915050565b6000620001db82620001e2565b9050919050565b600073ffffffffffffffffffffffffffffffffffffffff82169050919050565b600080fd5b6200021281620001ce565b81146200021e57600080fd5b50565b61245e80620002316000396000f3fe608060405234801561001057600080fd5b50600436106101165760003560e01c80638456cb59116100a2578063beb8314c11610071578063beb8314c14610276578063e2bbb158146102a6578063e788cee5146102c2578063edf501ad146102e2578063f2fde38b1461031357610116565b80638456cb59146102285780638d8f2adb146102325780638da5cb5b1461023c578063aa5f7e261461025a57610116565b8063441a3e70116100e9578063441a3e7014610191578063451c3d80146101ad5780635c975abb146101cb5780636386c1c7146101e9578063715018a61461021e57610116565b8063259ee7521461011b57806332e962031461014f578063379607f51461016b5780633f4ba83a14610187575b600080fd5b61013560048036038101906101309190611a12565b61032f565b604051610146959493929190612032565b60405180910390f35b61016960048036038101906101649190611b19565b610372565b005b61018560048036038101906101809190611a7f565b610429565b005b61018f610684565b005b6101ab60048036038101906101a69190611ad9565b61070a565b005b6101b5610a08565b6040516101c29190611e56565b60405180910390f35b6101d3610a2e565b6040516101e09190611e3b565b60405180910390f35b61020360048036038101906101fe91906119e5565b610a44565b60405161021596959493929190611f88565b60405180910390f35b610226610c40565b005b610230610cc8565b005b61023a610d4e565b005b610244610f26565b6040516102519190611d52565b60405180910390f35b610274600480360381019061026f9190611a7f565b610f4f565b005b610290600480360381019061028b9190611a12565b6110fa565b60405161029d9190611fee565b60405180910390f35b6102c060048036038101906102bb9190611ad9565b61121b565b005b6102ca611561565b6040516102d993929190611f51565b60405180910390f35b6102fc60048036038101906102f79190611a7f565b61161c565b60405161030a929190612009565b60405180910390f35b61032d600480360381019061032891906119e5565b611640565b005b6002602052816000526040600020602052806000526040600020600091509150508060000154908060010154908060020154908060030154908060040154905085565b61037a611738565b73ffffffffffffffffffffffffffffffffffffffff16610398610f26565b73ffffffffffffffffffffffffffffffffffffffff16146103ee576040517f08c379a00000000000000000000000000000000000000000000000000000000081526004016103e590611ef1565b60405180910390fd5b816003600085815260200190815260200160002060000181905550806003600085815260200190815260200160002060010181905550505050565b60003390506000600260008373ffffffffffffffffffffffffffffffffffffffff1673ffffffffffffffffffffffffffffffffffffffff168152602001908152602001600020600084815260200190815260200160002060000154116104c4576040517f08c379a00000000000000000000000000000000000000000000000000000000081526004016104bb90611f11565b60405180910390fd5b60006104d082846110fa565b905042600260008473ffffffffffffffffffffffffffffffffffffffff1673ffffffffffffffffffffffffffffffffffffffff16815260200190815260200160002060008581526020019081526020016000206003018190555080600260008473ffffffffffffffffffffffffffffffffffffffff1673ffffffffffffffffffffffffffffffffffffffff1681526020019081526020016000206000858152602001908152602001600020600101600082825461058d9190612096565b92505081905550600160009054906101000a900473ffffffffffffffffffffffffffffffffffffffff1673ffffffffffffffffffffffffffffffffffffffff1663a9059cbb83836040518363ffffffff1660e01b81526004016105f1929190611ddb565b602060405180830381600087803b15801561060b57600080fd5b505af115801561061f573d6000803e3d6000fd5b505050506040513d601f19601f820116820180604052508101906106439190611a52565b507f34fcbac0073d7c3d388e51312faf357774904998eeb8fca628b9e6f65ee1cbf782848360405161067793929190611e04565b60405180910390a1505050565b61068c611738565b73ffffffffffffffffffffffffffffffffffffffff166106aa610f26565b73ffffffffffffffffffffffffffffffffffffffff1614610700576040517f08c379a00000000000000000000000000000000000000000000000000000000081526004016106f790611ef1565b60405180910390fd5b610708611740565b565b600033905082600260008373ffffffffffffffffffffffffffffffffffffffff1673ffffffffffffffffffffffffffffffffffffffff16815260200190815260200160002060008481526020019081526020016000206000015410156107a5576040517f08c379a000000000000000000000000000000000000000000000000000000000815260040161079c90611f31565b60405180910390fd5b42600260008373ffffffffffffffffffffffffffffffffffffffff1673ffffffffffffffffffffffffffffffffffffffff168152602001908152602001600020600084815260200190815260200160002060040154111561083b576040517f08c379a000000000000000000000000000000000000000000000000000000000815260040161083290611eb1565b60405180910390fd5b600061084782846110fa565b905042600260008473ffffffffffffffffffffffffffffffffffffffff1673ffffffffffffffffffffffffffffffffffffffff16815260200190815260200160002060008581526020019081526020016000206003018190555083600260008473ffffffffffffffffffffffffffffffffffffffff1673ffffffffffffffffffffffffffffffffffffffff168152602001908152602001600020600085815260200190815260200160002060000160008282546109049190612177565b92505081905550600160009054906101000a900473ffffffffffffffffffffffffffffffffffffffff1673ffffffffffffffffffffffffffffffffffffffff1663a9059cbb8383876109569190612096565b6040518363ffffffff1660e01b8152600401610973929190611ddb565b602060405180830381600087803b15801561098d57600080fd5b505af11580156109a1573d6000803e3d6000fd5b505050506040513d601f19601f820116820180604052508101906109c59190611a52565b507ff279e6a1f5e320cca91135676d9cb6e44ca8a08c0b88342bcdb1144f6511b568826000866040516109fa93929190611da4565b60405180910390a150505050565b600160009054906101000a900473ffffffffffffffffffffffffffffffffffffffff1681565b60008060149054906101000a900460ff16905090565b610a4c611948565b610a54611948565b610a5c611948565b6000806000600260008873ffffffffffffffffffffffffffffffffffffffff1673ffffffffffffffffffffffffffffffffffffffff16815260200190815260200160002060008081526020019081526020016000206040518060a0016040529081600082015481526020016001820154815260200160028201548152602001600382015481526020016004820154815250509550600260008873ffffffffffffffffffffffffffffffffffffffff1673ffffffffffffffffffffffffffffffffffffffff1681526020019081526020016000206000600181526020019081526020016000206040518060a0016040529081600082015481526020016001820154815260200160028201548152602001600382015481526020016004820154815250509450600260008873ffffffffffffffffffffffffffffffffffffffff1673ffffffffffffffffffffffffffffffffffffffff1681526020019081526020016000206000600281526020019081526020016000206040518060a0016040529081600082015481526020016001820154815260200160028201548152602001600382015481526020016004820154815250509350610c1b8760006110fa565b9250610c288760016110fa565b9150610c358760026110fa565b905091939550919395565b610c48611738565b73ffffffffffffffffffffffffffffffffffffffff16610c66610f26565b73ffffffffffffffffffffffffffffffffffffffff1614610cbc576040517f08c379a0000000000000000000000000000000000000000000000000000000008152600401610cb390611ef1565b60405180910390fd5b610cc660006117e1565b565b610cd0611738565b73ffffffffffffffffffffffffffffffffffffffff16610cee610f26565b73ffffffffffffffffffffffffffffffffffffffff1614610d44576040517f08c379a0000000000000000000000000000000000000000000000000000000008152600401610d3b90611ef1565b60405180910390fd5b610d4c6118a5565b565b610d56611738565b73ffffffffffffffffffffffffffffffffffffffff16610d74610f26565b73ffffffffffffffffffffffffffffffffffffffff1614610dca576040517f08c379a0000000000000000000000000000000000000000000000000000000008152600401610dc190611ef1565b60405180910390fd5b600160009054906101000a900473ffffffffffffffffffffffffffffffffffffffff1673ffffffffffffffffffffffffffffffffffffffff1663a9059cbb33600160009054906101000a900473ffffffffffffffffffffffffffffffffffffffff1673ffffffffffffffffffffffffffffffffffffffff166370a08231306040518263ffffffff1660e01b8152600401610e649190611d52565b60206040518083038186803b158015610e7c57600080fd5b505afa158015610e90573d6000803e3d6000fd5b505050506040513d601f19601f82011682018060405250810190610eb49190611aac565b6040518363ffffffff1660e01b8152600401610ed1929190611ddb565b602060405180830381600087803b158015610eeb57600080fd5b505af1158015610eff573d6000803e3d6000fd5b505050506040513d601f19601f82011682018060405250810190610f239190611a52565b50565b60008060009054906101000a900473ffffffffffffffffffffffffffffffffffffffff16905090565b60003390506000600260008373ffffffffffffffffffffffffffffffffffffffff1673ffffffffffffffffffffffffffffffffffffffff16815260200190815260200160002060008481526020019081526020016000206000015411610fea576040517f08c379a0000000000000000000000000000000000000000000000000000000008152600401610fe190611f11565b60405180910390fd5b6000610ff682846110fa565b905080600260008473ffffffffffffffffffffffffffffffffffffffff1673ffffffffffffffffffffffffffffffffffffffff1681526020019081526020016000206000858152602001908152602001600020600001600082825461105b9190612096565b9250508190555042600260008473ffffffffffffffffffffffffffffffffffffffff1673ffffffffffffffffffffffffffffffffffffffff1681526020019081526020016000206000858152602001908152602001600020600301819055507f0e311a2c6dbfb0153ec3a8a5bdca09070b3e5f60768fdc10a20453f38d1868738284836040516110ed93929190611e04565b60405180910390a1505050565b600080600260008573ffffffffffffffffffffffffffffffffffffffff1673ffffffffffffffffffffffffffffffffffffffff1681526020019081526020016000206000848152602001908152602001600020600301544261115c9190612177565b90506000600260008673ffffffffffffffffffffffffffffffffffffffff1673ffffffffffffffffffffffffffffffffffffffff168152602001908152602001600020600085815260200190815260200160002060000154905060006003600086815260200190815260200160002060000154905060006301e1338061271083856111e7919061211d565b6111f191906120ec565b6111fb91906120ec565b90506000818561120b919061211d565b9050809550505050505092915050565b611223610a2e565b15611263576040517f08c379a000000000000000000000000000000000000000000000000000000000815260040161125a90611ed1565b60405180910390fd5b6000339050600160009054906101000a900473ffffffffffffffffffffffffffffffffffffffff1673ffffffffffffffffffffffffffffffffffffffff166323b872dd8230866040518463ffffffff1660e01b81526004016112c793929190611d6d565b602060405180830381600087803b1580156112e157600080fd5b505af11580156112f5573d6000803e3d6000fd5b505050506040513d601f19601f820116820180604052508101906113199190611a52565b506000600260008373ffffffffffffffffffffffffffffffffffffffff1673ffffffffffffffffffffffffffffffffffffffff168152602001908152602001600020600084815260200190815260200160002060000154111561138e5761138081836110fa565b8361138b9190612096565b92505b82600260008373ffffffffffffffffffffffffffffffffffffffff1673ffffffffffffffffffffffffffffffffffffffff168152602001908152602001600020600084815260200190815260200160002060000160008282546113f19190612096565b9250508190555042600260008373ffffffffffffffffffffffffffffffffffffffff1673ffffffffffffffffffffffffffffffffffffffff16815260200190815260200160002060008481526020019081526020016000206002018190555042600260008373ffffffffffffffffffffffffffffffffffffffff1673ffffffffffffffffffffffffffffffffffffffff1681526020019081526020016000206000848152602001908152602001600020600301819055506003600083815260200190815260200160002060010154426114ca9190612096565b600260008373ffffffffffffffffffffffffffffffffffffffff1673ffffffffffffffffffffffffffffffffffffffff1681526020019081526020016000206000848152602001908152602001600020600401819055507f90890809c654f11d6e72a28fa60149770a0d11ec6c92319d6ceb2bb0a4ea1a1581838560405161155493929190611e04565b60405180910390a1505050565b611569611977565b611571611977565b611579611977565b6003600080815260200190815260200160002060405180604001604052908160008201548152602001600182015481525050925060036000600181526020019081526020016000206040518060400160405290816000820154815260200160018201548152505091506003600060028152602001908152602001600020604051806040016040529081600082015481526020016001820154815250509050909192565b60036020528060005260406000206000915090508060000154908060010154905082565b611648611738565b73ffffffffffffffffffffffffffffffffffffffff16611666610f26565b73ffffffffffffffffffffffffffffffffffffffff16146116bc576040517f08c379a00000000000000000000000000000000000000000000000000000000081526004016116b390611ef1565b60405180910390fd5b600073ffffffffffffffffffffffffffffffffffffffff168173ffffffffffffffffffffffffffffffffffffffff16141561172c576040517f08c379a000000000000000000000000000000000000000000000000000000000815260040161172390611e91565b60405180910390fd5b611735816117e1565b50565b600033905090565b611748610a2e565b611787576040517f08c379a000000000000000000000000000000000000000000000000000000000815260040161177e90611e71565b60405180910390fd5b60008060146101000a81548160ff0219169083151502179055507f5db9ee0a495bf2e6ff9c91a7834c1ba4fdd244a5e8aa4e537bd38aeae4b073aa6117ca611738565b6040516117d79190611d52565b60405180910390a1565b60008060009054906101000a900473ffffffffffffffffffffffffffffffffffffffff169050816000806101000a81548173ffffffffffffffffffffffffffffffffffffffff021916908373ffffffffffffffffffffffffffffffffffffffff1602179055508173ffffffffffffffffffffffffffffffffffffffff168173ffffffffffffffffffffffffffffffffffffffff167f8be0079c531659141344cd1fd0a4f28419497f9722a3daafe3b4186f6b6457e060405160405180910390a35050565b6118ad610a2e565b156118ed576040517f08c379a00000000000000000000000000000000000000000000000000000000081526004016118e490611ed1565b60405180910390fd5b6001600060146101000a81548160ff0219169083151502179055507f62e78cea01bee320cd4e420270b5ea74000d11b0c9f74754ebdbfc544b05a258611931611738565b60405161193e9190611d52565b60405180910390a1565b6040518060a0016040528060008152602001600081526020016000815260200160008152602001600081525090565b604051806040016040528060008152602001600081525090565b6000813590506119a0816123e3565b92915050565b6000815190506119b5816123fa565b92915050565b6000813590506119ca81612411565b92915050565b6000815190506119df81612411565b92915050565b6000602082840312156119fb576119fa612299565b5b6000611a0984828501611991565b91505092915050565b60008060408385031215611a2957611a28612299565b5b6000611a3785828601611991565b9250506020611a48858286016119bb565b9150509250929050565b600060208284031215611a6857611a67612299565b5b6000611a76848285016119a6565b91505092915050565b600060208284031215611a9557611a94612299565b5b6000611aa3848285016119bb565b91505092915050565b600060208284031215611ac257611ac1612299565b5b6000611ad0848285016119d0565b91505092915050565b60008060408385031215611af057611aef612299565b5b6000611afe858286016119bb565b9250506020611b0f858286016119bb565b9150509250929050565b600080600060608486031215611b3257611b31612299565b5b6000611b40868287016119bb565b9350506020611b51868287016119bb565b9250506040611b62868287016119bb565b9150509250925092565b611b75816121ab565b82525050565b611b84816121bd565b82525050565b611b93816121f3565b82525050565b611ba281612205565b82525050565b6000611bb5601483612085565b9150611bc08261229e565b602082019050919050565b6000611bd8602683612085565b9150611be3826122c7565b604082019050919050565b6000611bfb601883612085565b9150611c0682612316565b602082019050919050565b6000611c1e601083612085565b9150611c298261233f565b602082019050919050565b6000611c41602083612085565b9150611c4c82612368565b602082019050919050565b6000611c64601183612085565b9150611c6f82612391565b602082019050919050565b6000611c87601283612085565b9150611c92826123ba565b602082019050919050565b604082016000820151611cb36000850182611d34565b506020820151611cc66020850182611d34565b50505050565b60a082016000820151611ce26000850182611d34565b506020820151611cf56020850182611d34565b506040820151611d086040850182611d34565b506060820151611d1b6060850182611d34565b506080820151611d2e6080850182611d34565b50505050565b611d3d816121e9565b82525050565b611d4c816121e9565b82525050565b6000602082019050611d676000830184611b6c565b92915050565b6000606082019050611d826000830186611b6c565b611d8f6020830185611b6c565b611d9c6040830184611d43565b949350505050565b6000606082019050611db96000830186611b6c565b611dc66020830185611b99565b611dd36040830184611d43565b949350505050565b6000604082019050611df06000830185611b6c565b611dfd6020830184611d43565b9392505050565b6000606082019050611e196000830186611b6c565b611e266020830185611d43565b611e336040830184611d43565b949350505050565b6000602082019050611e506000830184611b7b565b92915050565b6000602082019050611e6b6000830184611b8a565b92915050565b60006020820190508181036000830152611e8a81611ba8565b9050919050565b60006020820190508181036000830152611eaa81611bcb565b9050919050565b60006020820190508181036000830152611eca81611bee565b9050919050565b60006020820190508181036000830152611eea81611c11565b9050919050565b60006020820190508181036000830152611f0a81611c34565b9050919050565b60006020820190508181036000830152611f2a81611c57565b9050919050565b60006020820190508181036000830152611f4a81611c7a565b9050919050565b600060c082019050611f666000830186611c9d565b611f736040830185611c9d565b611f806080830184611c9d565b949350505050565b600061024082019050611f9e6000830189611ccc565b611fab60a0830188611ccc565b611fb9610140830187611ccc565b611fc76101e0830186611d43565b611fd5610200830185611d43565b611fe3610220830184611d43565b979650505050505050565b60006020820190506120036000830184611d43565b92915050565b600060408201905061201e6000830185611d43565b61202b6020830184611d43565b9392505050565b600060a0820190506120476000830188611d43565b6120546020830187611d43565b6120616040830186611d43565b61206e6060830185611d43565b61207b6080830184611d43565b9695505050505050565b600082825260208201905092915050565b60006120a1826121e9565b91506120ac836121e9565b9250827fffffffffffffffffffffffffffffffffffffffffffffffffffffffffffffffff038211156120e1576120e061223b565b5b828201905092915050565b60006120f7826121e9565b9150612102836121e9565b9250826121125761211161226a565b5b828204905092915050565b6000612128826121e9565b9150612133836121e9565b9250817fffffffffffffffffffffffffffffffffffffffffffffffffffffffffffffffff048311821515161561216c5761216b61223b565b5b828202905092915050565b6000612182826121e9565b915061218d836121e9565b9250828210156121a05761219f61223b565b5b828203905092915050565b60006121b6826121c9565b9050919050565b60008115159050919050565b600073ffffffffffffffffffffffffffffffffffffffff82169050919050565b6000819050919050565b60006121fe82612217565b9050919050565b6000612210826121e9565b9050919050565b600061222282612229565b9050919050565b6000612234826121c9565b9050919050565b7f4e487b7100000000000000000000000000000000000000000000000000000000600052601160045260246000fd5b7f4e487b7100000000000000000000000000000000000000000000000000000000600052601260045260246000fd5b600080fd5b7f5061757361626c653a206e6f7420706175736564000000000000000000000000600082015250565b7f4f776e61626c653a206e6577206f776e657220697320746865207a65726f206160008201527f6464726573730000000000000000000000000000000000000000000000000000602082015250565b7f4465706f736974206e6f7420756e6c6f636b6564207965740000000000000000600082015250565b7f5061757361626c653a2070617573656400000000000000000000000000000000600082015250565b7f4f776e61626c653a2063616c6c6572206973206e6f7420746865206f776e6572600082015250565b7f4e6f20616374697665206465706f736974000000000000000000000000000000600082015250565b7f4e6f7420656e6f756768206465706f7369740000000000000000000000000000600082015250565b6123ec816121ab565b81146123f757600080fd5b50565b612403816121bd565b811461240e57600080fd5b50565b61241a816121e9565b811461242557600080fd5b5056fea264697066735822122020378e839f3b1e62400867a6df69027944bfdb14caf04bede32d44fea9a43ab764736f6c63430008070033",
					"opcodes": "PUSH1 0x80 PUSH1 0x40 MSTORE CALLVALUE DUP1 ISZERO PUSH3 0x11 JUMPI PUSH1 0x0 DUP1 REVERT JUMPDEST POP PUSH1 0x40 MLOAD PUSH3 0x268F CODESIZE SUB DUP1 PUSH3 0x268F DUP4 CODECOPY DUP2 DUP2 ADD PUSH1 0x40 MSTORE DUP2 ADD SWAP1 PUSH3 0x37 SWAP2 SWAP1 PUSH3 0x19C JUMP JUMPDEST PUSH3 0x57 PUSH3 0x4B PUSH3 0xB9 PUSH1 0x20 SHL PUSH1 0x20 SHR JUMP JUMPDEST PUSH3 0xC1 PUSH1 0x20 SHL PUSH1 0x20 SHR JUMP JUMPDEST PUSH1 0x0 DUP1 PUSH1 0x14 PUSH2 0x100 EXP DUP2 SLOAD DUP2 PUSH1 0xFF MUL NOT AND SWAP1 DUP4 ISZERO ISZERO MUL OR SWAP1 SSTORE POP DUP1 PUSH1 0x1 PUSH1 0x0 PUSH2 0x100 EXP DUP2 SLOAD DUP2 PUSH20 0xFFFFFFFFFFFFFFFFFFFFFFFFFFFFFFFFFFFFFFFF MUL NOT AND SWAP1 DUP4 PUSH20 0xFFFFFFFFFFFFFFFFFFFFFFFFFFFFFFFFFFFFFFFF AND MUL OR SWAP1 SSTORE POP POP PUSH3 0x221 JUMP JUMPDEST PUSH1 0x0 CALLER SWAP1 POP SWAP1 JUMP JUMPDEST PUSH1 0x0 DUP1 PUSH1 0x0 SWAP1 SLOAD SWAP1 PUSH2 0x100 EXP SWAP1 DIV PUSH20 0xFFFFFFFFFFFFFFFFFFFFFFFFFFFFFFFFFFFFFFFF AND SWAP1 POP DUP2 PUSH1 0x0 DUP1 PUSH2 0x100 EXP DUP2 SLOAD DUP2 PUSH20 0xFFFFFFFFFFFFFFFFFFFFFFFFFFFFFFFFFFFFFFFF MUL NOT AND SWAP1 DUP4 PUSH20 0xFFFFFFFFFFFFFFFFFFFFFFFFFFFFFFFFFFFFFFFF AND MUL OR SWAP1 SSTORE POP DUP2 PUSH20 0xFFFFFFFFFFFFFFFFFFFFFFFFFFFFFFFFFFFFFFFF AND DUP2 PUSH20 0xFFFFFFFFFFFFFFFFFFFFFFFFFFFFFFFFFFFFFFFF AND PUSH32 0x8BE0079C531659141344CD1FD0A4F28419497F9722A3DAAFE3B4186F6B6457E0 PUSH1 0x40 MLOAD PUSH1 0x40 MLOAD DUP1 SWAP2 SUB SWAP1 LOG3 POP POP JUMP JUMPDEST PUSH1 0x0 DUP2 MLOAD SWAP1 POP PUSH3 0x196 DUP2 PUSH3 0x207 JUMP JUMPDEST SWAP3 SWAP2 POP POP JUMP JUMPDEST PUSH1 0x0 PUSH1 0x20 DUP3 DUP5 SUB SLT ISZERO PUSH3 0x1B5 JUMPI PUSH3 0x1B4 PUSH3 0x202 JUMP JUMPDEST JUMPDEST PUSH1 0x0 PUSH3 0x1C5 DUP5 DUP3 DUP6 ADD PUSH3 0x185 JUMP JUMPDEST SWAP2 POP POP SWAP3 SWAP2 POP POP JUMP JUMPDEST PUSH1 0x0 PUSH3 0x1DB DUP3 PUSH3 0x1E2 JUMP JUMPDEST SWAP1 POP SWAP2 SWAP1 POP JUMP JUMPDEST PUSH1 0x0 PUSH20 0xFFFFFFFFFFFFFFFFFFFFFFFFFFFFFFFFFFFFFFFF DUP3 AND SWAP1 POP SWAP2 SWAP1 POP JUMP JUMPDEST PUSH1 0x0 DUP1 REVERT JUMPDEST PUSH3 0x212 DUP2 PUSH3 0x1CE JUMP JUMPDEST DUP2 EQ PUSH3 0x21E JUMPI PUSH1 0x0 DUP1 REVERT JUMPDEST POP JUMP JUMPDEST PUSH2 0x245E DUP1 PUSH3 0x231 PUSH1 0x0 CODECOPY PUSH1 0x0 RETURN INVALID PUSH1 0x80 PUSH1 0x40 MSTORE CALLVALUE DUP1 ISZERO PUSH2 0x10 JUMPI PUSH1 0x0 DUP1 REVERT JUMPDEST POP PUSH1 0x4 CALLDATASIZE LT PUSH2 0x116 JUMPI PUSH1 0x0 CALLDATALOAD PUSH1 0xE0 SHR DUP1 PUSH4 0x8456CB59 GT PUSH2 0xA2 JUMPI DUP1 PUSH4 0xBEB8314C GT PUSH2 0x71 JUMPI DUP1 PUSH4 0xBEB8314C EQ PUSH2 0x276 JUMPI DUP1 PUSH4 0xE2BBB158 EQ PUSH2 0x2A6 JUMPI DUP1 PUSH4 0xE788CEE5 EQ PUSH2 0x2C2 JUMPI DUP1 PUSH4 0xEDF501AD EQ PUSH2 0x2E2 JUMPI DUP1 PUSH4 0xF2FDE38B EQ PUSH2 0x313 JUMPI PUSH2 0x116 JUMP JUMPDEST DUP1 PUSH4 0x8456CB59 EQ PUSH2 0x228 JUMPI DUP1 PUSH4 0x8D8F2ADB EQ PUSH2 0x232 JUMPI DUP1 PUSH4 0x8DA5CB5B EQ PUSH2 0x23C JUMPI DUP1 PUSH4 0xAA5F7E26 EQ PUSH2 0x25A JUMPI PUSH2 0x116 JUMP JUMPDEST DUP1 PUSH4 0x441A3E70 GT PUSH2 0xE9 JUMPI DUP1 PUSH4 0x441A3E70 EQ PUSH2 0x191 JUMPI DUP1 PUSH4 0x451C3D80 EQ PUSH2 0x1AD JUMPI DUP1 PUSH4 0x5C975ABB EQ PUSH2 0x1CB JUMPI DUP1 PUSH4 0x6386C1C7 EQ PUSH2 0x1E9 JUMPI DUP1 PUSH4 0x715018A6 EQ PUSH2 0x21E JUMPI PUSH2 0x116 JUMP JUMPDEST DUP1 PUSH4 0x259EE752 EQ PUSH2 0x11B JUMPI DUP1 PUSH4 0x32E96203 EQ PUSH2 0x14F JUMPI DUP1 PUSH4 0x379607F5 EQ PUSH2 0x16B JUMPI DUP1 PUSH4 0x3F4BA83A EQ PUSH2 0x187 JUMPI JUMPDEST PUSH1 0x0 DUP1 REVERT JUMPDEST PUSH2 0x135 PUSH1 0x4 DUP1 CALLDATASIZE SUB DUP2 ADD SWAP1 PUSH2 0x130 SWAP2 SWAP1 PUSH2 0x1A12 JUMP JUMPDEST PUSH2 0x32F JUMP JUMPDEST PUSH1 0x40 MLOAD PUSH2 0x146 SWAP6 SWAP5 SWAP4 SWAP3 SWAP2 SWAP1 PUSH2 0x2032 JUMP JUMPDEST PUSH1 0x40 MLOAD DUP1 SWAP2 SUB SWAP1 RETURN JUMPDEST PUSH2 0x169 PUSH1 0x4 DUP1 CALLDATASIZE SUB DUP2 ADD SWAP1 PUSH2 0x164 SWAP2 SWAP1 PUSH2 0x1B19 JUMP JUMPDEST PUSH2 0x372 JUMP JUMPDEST STOP JUMPDEST PUSH2 0x185 PUSH1 0x4 DUP1 CALLDATASIZE SUB DUP2 ADD SWAP1 PUSH2 0x180 SWAP2 SWAP1 PUSH2 0x1A7F JUMP JUMPDEST PUSH2 0x429 JUMP JUMPDEST STOP JUMPDEST PUSH2 0x18F PUSH2 0x684 JUMP JUMPDEST STOP JUMPDEST PUSH2 0x1AB PUSH1 0x4 DUP1 CALLDATASIZE SUB DUP2 ADD SWAP1 PUSH2 0x1A6 SWAP2 SWAP1 PUSH2 0x1AD9 JUMP JUMPDEST PUSH2 0x70A JUMP JUMPDEST STOP JUMPDEST PUSH2 0x1B5 PUSH2 0xA08 JUMP JUMPDEST PUSH1 0x40 MLOAD PUSH2 0x1C2 SWAP2 SWAP1 PUSH2 0x1E56 JUMP JUMPDEST PUSH1 0x40 MLOAD DUP1 SWAP2 SUB SWAP1 RETURN JUMPDEST PUSH2 0x1D3 PUSH2 0xA2E JUMP JUMPDEST PUSH1 0x40 MLOAD PUSH2 0x1E0 SWAP2 SWAP1 PUSH2 0x1E3B JUMP JUMPDEST PUSH1 0x40 MLOAD DUP1 SWAP2 SUB SWAP1 RETURN JUMPDEST PUSH2 0x203 PUSH1 0x4 DUP1 CALLDATASIZE SUB DUP2 ADD SWAP1 PUSH2 0x1FE SWAP2 SWAP1 PUSH2 0x19E5 JUMP JUMPDEST PUSH2 0xA44 JUMP JUMPDEST PUSH1 0x40 MLOAD PUSH2 0x215 SWAP7 SWAP6 SWAP5 SWAP4 SWAP3 SWAP2 SWAP1 PUSH2 0x1F88 JUMP JUMPDEST PUSH1 0x40 MLOAD DUP1 SWAP2 SUB SWAP1 RETURN JUMPDEST PUSH2 0x226 PUSH2 0xC40 JUMP JUMPDEST STOP JUMPDEST PUSH2 0x230 PUSH2 0xCC8 JUMP JUMPDEST STOP JUMPDEST PUSH2 0x23A PUSH2 0xD4E JUMP JUMPDEST STOP JUMPDEST PUSH2 0x244 PUSH2 0xF26 JUMP JUMPDEST PUSH1 0x40 MLOAD PUSH2 0x251 SWAP2 SWAP1 PUSH2 0x1D52 JUMP JUMPDEST PUSH1 0x40 MLOAD DUP1 SWAP2 SUB SWAP1 RETURN JUMPDEST PUSH2 0x274 PUSH1 0x4 DUP1 CALLDATASIZE SUB DUP2 ADD SWAP1 PUSH2 0x26F SWAP2 SWAP1 PUSH2 0x1A7F JUMP JUMPDEST PUSH2 0xF4F JUMP JUMPDEST STOP JUMPDEST PUSH2 0x290 PUSH1 0x4 DUP1 CALLDATASIZE SUB DUP2 ADD SWAP1 PUSH2 0x28B SWAP2 SWAP1 PUSH2 0x1A12 JUMP JUMPDEST PUSH2 0x10FA JUMP JUMPDEST PUSH1 0x40 MLOAD PUSH2 0x29D SWAP2 SWAP1 PUSH2 0x1FEE JUMP JUMPDEST PUSH1 0x40 MLOAD DUP1 SWAP2 SUB SWAP1 RETURN JUMPDEST PUSH2 0x2C0 PUSH1 0x4 DUP1 CALLDATASIZE SUB DUP2 ADD SWAP1 PUSH2 0x2BB SWAP2 SWAP1 PUSH2 0x1AD9 JUMP JUMPDEST PUSH2 0x121B JUMP JUMPDEST STOP JUMPDEST PUSH2 0x2CA PUSH2 0x1561 JUMP JUMPDEST PUSH1 0x40 MLOAD PUSH2 0x2D9 SWAP4 SWAP3 SWAP2 SWAP1 PUSH2 0x1F51 JUMP JUMPDEST PUSH1 0x40 MLOAD DUP1 SWAP2 SUB SWAP1 RETURN JUMPDEST PUSH2 0x2FC PUSH1 0x4 DUP1 CALLDATASIZE SUB DUP2 ADD SWAP1 PUSH2 0x2F7 SWAP2 SWAP1 PUSH2 0x1A7F JUMP JUMPDEST PUSH2 0x161C JUMP JUMPDEST PUSH1 0x40 MLOAD PUSH2 0x30A SWAP3 SWAP2 SWAP1 PUSH2 0x2009 JUMP JUMPDEST PUSH1 0x40 MLOAD DUP1 SWAP2 SUB SWAP1 RETURN JUMPDEST PUSH2 0x32D PUSH1 0x4 DUP1 CALLDATASIZE SUB DUP2 ADD SWAP1 PUSH2 0x328 SWAP2 SWAP1 PUSH2 0x19E5 JUMP JUMPDEST PUSH2 0x1640 JUMP JUMPDEST STOP JUMPDEST PUSH1 0x2 PUSH1 0x20 MSTORE DUP2 PUSH1 0x0 MSTORE PUSH1 0x40 PUSH1 0x0 KECCAK256 PUSH1 0x20 MSTORE DUP1 PUSH1 0x0 MSTORE PUSH1 0x40 PUSH1 0x0 KECCAK256 PUSH1 0x0 SWAP2 POP SWAP2 POP POP DUP1 PUSH1 0x0 ADD SLOAD SWAP1 DUP1 PUSH1 0x1 ADD SLOAD SWAP1 DUP1 PUSH1 0x2 ADD SLOAD SWAP1 DUP1 PUSH1 0x3 ADD SLOAD SWAP1 DUP1 PUSH1 0x4 ADD SLOAD SWAP1 POP DUP6 JUMP JUMPDEST PUSH2 0x37A PUSH2 0x1738 JUMP JUMPDEST PUSH20 0xFFFFFFFFFFFFFFFFFFFFFFFFFFFFFFFFFFFFFFFF AND PUSH2 0x398 PUSH2 0xF26 JUMP JUMPDEST PUSH20 0xFFFFFFFFFFFFFFFFFFFFFFFFFFFFFFFFFFFFFFFF AND EQ PUSH2 0x3EE JUMPI PUSH1 0x40 MLOAD PUSH32 0x8C379A000000000000000000000000000000000000000000000000000000000 DUP2 MSTORE PUSH1 0x4 ADD PUSH2 0x3E5 SWAP1 PUSH2 0x1EF1 JUMP JUMPDEST PUSH1 0x40 MLOAD DUP1 SWAP2 SUB SWAP1 REVERT JUMPDEST DUP2 PUSH1 0x3 PUSH1 0x0 DUP6 DUP2 MSTORE PUSH1 0x20 ADD SWAP1 DUP2 MSTORE PUSH1 0x20 ADD PUSH1 0x0 KECCAK256 PUSH1 0x0 ADD DUP2 SWAP1 SSTORE POP DUP1 PUSH1 0x3 PUSH1 0x0 DUP6 DUP2 MSTORE PUSH1 0x20 ADD SWAP1 DUP2 MSTORE PUSH1 0x20 ADD PUSH1 0x0 KECCAK256 PUSH1 0x1 ADD DUP2 SWAP1 SSTORE POP POP POP POP JUMP JUMPDEST PUSH1 0x0 CALLER SWAP1 POP PUSH1 0x0 PUSH1 0x2 PUSH1 0x0 DUP4 PUSH20 0xFFFFFFFFFFFFFFFFFFFFFFFFFFFFFFFFFFFFFFFF AND PUSH20 0xFFFFFFFFFFFFFFFFFFFFFFFFFFFFFFFFFFFFFFFF AND DUP2 MSTORE PUSH1 0x20 ADD SWAP1 DUP2 MSTORE PUSH1 0x20 ADD PUSH1 0x0 KECCAK256 PUSH1 0x0 DUP5 DUP2 MSTORE PUSH1 0x20 ADD SWAP1 DUP2 MSTORE PUSH1 0x20 ADD PUSH1 0x0 KECCAK256 PUSH1 0x0 ADD SLOAD GT PUSH2 0x4C4 JUMPI PUSH1 0x40 MLOAD PUSH32 0x8C379A000000000000000000000000000000000000000000000000000000000 DUP2 MSTORE PUSH1 0x4 ADD PUSH2 0x4BB SWAP1 PUSH2 0x1F11 JUMP JUMPDEST PUSH1 0x40 MLOAD DUP1 SWAP2 SUB SWAP1 REVERT JUMPDEST PUSH1 0x0 PUSH2 0x4D0 DUP3 DUP5 PUSH2 0x10FA JUMP JUMPDEST SWAP1 POP TIMESTAMP PUSH1 0x2 PUSH1 0x0 DUP5 PUSH20 0xFFFFFFFFFFFFFFFFFFFFFFFFFFFFFFFFFFFFFFFF AND PUSH20 0xFFFFFFFFFFFFFFFFFFFFFFFFFFFFFFFFFFFFFFFF AND DUP2 MSTORE PUSH1 0x20 ADD SWAP1 DUP2 MSTORE PUSH1 0x20 ADD PUSH1 0x0 KECCAK256 PUSH1 0x0 DUP6 DUP2 MSTORE PUSH1 0x20 ADD SWAP1 DUP2 MSTORE PUSH1 0x20 ADD PUSH1 0x0 KECCAK256 PUSH1 0x3 ADD DUP2 SWAP1 SSTORE POP DUP1 PUSH1 0x2 PUSH1 0x0 DUP5 PUSH20 0xFFFFFFFFFFFFFFFFFFFFFFFFFFFFFFFFFFFFFFFF AND PUSH20 0xFFFFFFFFFFFFFFFFFFFFFFFFFFFFFFFFFFFFFFFF AND DUP2 MSTORE PUSH1 0x20 ADD SWAP1 DUP2 MSTORE PUSH1 0x20 ADD PUSH1 0x0 KECCAK256 PUSH1 0x0 DUP6 DUP2 MSTORE PUSH1 0x20 ADD SWAP1 DUP2 MSTORE PUSH1 0x20 ADD PUSH1 0x0 KECCAK256 PUSH1 0x1 ADD PUSH1 0x0 DUP3 DUP3 SLOAD PUSH2 0x58D SWAP2 SWAP1 PUSH2 0x2096 JUMP JUMPDEST SWAP3 POP POP DUP2 SWAP1 SSTORE POP PUSH1 0x1 PUSH1 0x0 SWAP1 SLOAD SWAP1 PUSH2 0x100 EXP SWAP1 DIV PUSH20 0xFFFFFFFFFFFFFFFFFFFFFFFFFFFFFFFFFFFFFFFF AND PUSH20 0xFFFFFFFFFFFFFFFFFFFFFFFFFFFFFFFFFFFFFFFF AND PUSH4 0xA9059CBB DUP4 DUP4 PUSH1 0x40 MLOAD DUP4 PUSH4 0xFFFFFFFF AND PUSH1 0xE0 SHL DUP2 MSTORE PUSH1 0x4 ADD PUSH2 0x5F1 SWAP3 SWAP2 SWAP1 PUSH2 0x1DDB JUMP JUMPDEST PUSH1 0x20 PUSH1 0x40 MLOAD DUP1 DUP4 SUB DUP2 PUSH1 0x0 DUP8 DUP1 EXTCODESIZE ISZERO DUP1 ISZERO PUSH2 0x60B JUMPI PUSH1 0x0 DUP1 REVERT JUMPDEST POP GAS CALL ISZERO DUP1 ISZERO PUSH2 0x61F JUMPI RETURNDATASIZE PUSH1 0x0 DUP1 RETURNDATACOPY RETURNDATASIZE PUSH1 0x0 REVERT JUMPDEST POP POP POP POP PUSH1 0x40 MLOAD RETURNDATASIZE PUSH1 0x1F NOT PUSH1 0x1F DUP3 ADD AND DUP3 ADD DUP1 PUSH1 0x40 MSTORE POP DUP2 ADD SWAP1 PUSH2 0x643 SWAP2 SWAP1 PUSH2 0x1A52 JUMP JUMPDEST POP PUSH32 0x34FCBAC0073D7C3D388E51312FAF357774904998EEB8FCA628B9E6F65EE1CBF7 DUP3 DUP5 DUP4 PUSH1 0x40 MLOAD PUSH2 0x677 SWAP4 SWAP3 SWAP2 SWAP1 PUSH2 0x1E04 JUMP JUMPDEST PUSH1 0x40 MLOAD DUP1 SWAP2 SUB SWAP1 LOG1 POP POP POP JUMP JUMPDEST PUSH2 0x68C PUSH2 0x1738 JUMP JUMPDEST PUSH20 0xFFFFFFFFFFFFFFFFFFFFFFFFFFFFFFFFFFFFFFFF AND PUSH2 0x6AA PUSH2 0xF26 JUMP JUMPDEST PUSH20 0xFFFFFFFFFFFFFFFFFFFFFFFFFFFFFFFFFFFFFFFF AND EQ PUSH2 0x700 JUMPI PUSH1 0x40 MLOAD PUSH32 0x8C379A000000000000000000000000000000000000000000000000000000000 DUP2 MSTORE PUSH1 0x4 ADD PUSH2 0x6F7 SWAP1 PUSH2 0x1EF1 JUMP JUMPDEST PUSH1 0x40 MLOAD DUP1 SWAP2 SUB SWAP1 REVERT JUMPDEST PUSH2 0x708 PUSH2 0x1740 JUMP JUMPDEST JUMP JUMPDEST PUSH1 0x0 CALLER SWAP1 POP DUP3 PUSH1 0x2 PUSH1 0x0 DUP4 PUSH20 0xFFFFFFFFFFFFFFFFFFFFFFFFFFFFFFFFFFFFFFFF AND PUSH20 0xFFFFFFFFFFFFFFFFFFFFFFFFFFFFFFFFFFFFFFFF AND DUP2 MSTORE PUSH1 0x20 ADD SWAP1 DUP2 MSTORE PUSH1 0x20 ADD PUSH1 0x0 KECCAK256 PUSH1 0x0 DUP5 DUP2 MSTORE PUSH1 0x20 ADD SWAP1 DUP2 MSTORE PUSH1 0x20 ADD PUSH1 0x0 KECCAK256 PUSH1 0x0 ADD SLOAD LT ISZERO PUSH2 0x7A5 JUMPI PUSH1 0x40 MLOAD PUSH32 0x8C379A000000000000000000000000000000000000000000000000000000000 DUP2 MSTORE PUSH1 0x4 ADD PUSH2 0x79C SWAP1 PUSH2 0x1F31 JUMP JUMPDEST PUSH1 0x40 MLOAD DUP1 SWAP2 SUB SWAP1 REVERT JUMPDEST TIMESTAMP PUSH1 0x2 PUSH1 0x0 DUP4 PUSH20 0xFFFFFFFFFFFFFFFFFFFFFFFFFFFFFFFFFFFFFFFF AND PUSH20 0xFFFFFFFFFFFFFFFFFFFFFFFFFFFFFFFFFFFFFFFF AND DUP2 MSTORE PUSH1 0x20 ADD SWAP1 DUP2 MSTORE PUSH1 0x20 ADD PUSH1 0x0 KECCAK256 PUSH1 0x0 DUP5 DUP2 MSTORE PUSH1 0x20 ADD SWAP1 DUP2 MSTORE PUSH1 0x20 ADD PUSH1 0x0 KECCAK256 PUSH1 0x4 ADD SLOAD GT ISZERO PUSH2 0x83B JUMPI PUSH1 0x40 MLOAD PUSH32 0x8C379A000000000000000000000000000000000000000000000000000000000 DUP2 MSTORE PUSH1 0x4 ADD PUSH2 0x832 SWAP1 PUSH2 0x1EB1 JUMP JUMPDEST PUSH1 0x40 MLOAD DUP1 SWAP2 SUB SWAP1 REVERT JUMPDEST PUSH1 0x0 PUSH2 0x847 DUP3 DUP5 PUSH2 0x10FA JUMP JUMPDEST SWAP1 POP TIMESTAMP PUSH1 0x2 PUSH1 0x0 DUP5 PUSH20 0xFFFFFFFFFFFFFFFFFFFFFFFFFFFFFFFFFFFFFFFF AND PUSH20 0xFFFFFFFFFFFFFFFFFFFFFFFFFFFFFFFFFFFFFFFF AND DUP2 MSTORE PUSH1 0x20 ADD SWAP1 DUP2 MSTORE PUSH1 0x20 ADD PUSH1 0x0 KECCAK256 PUSH1 0x0 DUP6 DUP2 MSTORE PUSH1 0x20 ADD SWAP1 DUP2 MSTORE PUSH1 0x20 ADD PUSH1 0x0 KECCAK256 PUSH1 0x3 ADD DUP2 SWAP1 SSTORE POP DUP4 PUSH1 0x2 PUSH1 0x0 DUP5 PUSH20 0xFFFFFFFFFFFFFFFFFFFFFFFFFFFFFFFFFFFFFFFF AND PUSH20 0xFFFFFFFFFFFFFFFFFFFFFFFFFFFFFFFFFFFFFFFF AND DUP2 MSTORE PUSH1 0x20 ADD SWAP1 DUP2 MSTORE PUSH1 0x20 ADD PUSH1 0x0 KECCAK256 PUSH1 0x0 DUP6 DUP2 MSTORE PUSH1 0x20 ADD SWAP1 DUP2 MSTORE PUSH1 0x20 ADD PUSH1 0x0 KECCAK256 PUSH1 0x0 ADD PUSH1 0x0 DUP3 DUP3 SLOAD PUSH2 0x904 SWAP2 SWAP1 PUSH2 0x2177 JUMP JUMPDEST SWAP3 POP POP DUP2 SWAP1 SSTORE POP PUSH1 0x1 PUSH1 0x0 SWAP1 SLOAD SWAP1 PUSH2 0x100 EXP SWAP1 DIV PUSH20 0xFFFFFFFFFFFFFFFFFFFFFFFFFFFFFFFFFFFFFFFF AND PUSH20 0xFFFFFFFFFFFFFFFFFFFFFFFFFFFFFFFFFFFFFFFF AND PUSH4 0xA9059CBB DUP4 DUP4 DUP8 PUSH2 0x956 SWAP2 SWAP1 PUSH2 0x2096 JUMP JUMPDEST PUSH1 0x40 MLOAD DUP4 PUSH4 0xFFFFFFFF AND PUSH1 0xE0 SHL DUP2 MSTORE PUSH1 0x4 ADD PUSH2 0x973 SWAP3 SWAP2 SWAP1 PUSH2 0x1DDB JUMP JUMPDEST PUSH1 0x20 PUSH1 0x40 MLOAD DUP1 DUP4 SUB DUP2 PUSH1 0x0 DUP8 DUP1 EXTCODESIZE ISZERO DUP1 ISZERO PUSH2 0x98D JUMPI PUSH1 0x0 DUP1 REVERT JUMPDEST POP GAS CALL ISZERO DUP1 ISZERO PUSH2 0x9A1 JUMPI RETURNDATASIZE PUSH1 0x0 DUP1 RETURNDATACOPY RETURNDATASIZE PUSH1 0x0 REVERT JUMPDEST POP POP POP POP PUSH1 0x40 MLOAD RETURNDATASIZE PUSH1 0x1F NOT PUSH1 0x1F DUP3 ADD AND DUP3 ADD DUP1 PUSH1 0x40 MSTORE POP DUP2 ADD SWAP1 PUSH2 0x9C5 SWAP2 SWAP1 PUSH2 0x1A52 JUMP JUMPDEST POP PUSH32 0xF279E6A1F5E320CCA91135676D9CB6E44CA8A08C0B88342BCDB1144F6511B568 DUP3 PUSH1 0x0 DUP7 PUSH1 0x40 MLOAD PUSH2 0x9FA SWAP4 SWAP3 SWAP2 SWAP1 PUSH2 0x1DA4 JUMP JUMPDEST PUSH1 0x40 MLOAD DUP1 SWAP2 SUB SWAP1 LOG1 POP POP POP POP JUMP JUMPDEST PUSH1 0x1 PUSH1 0x0 SWAP1 SLOAD SWAP1 PUSH2 0x100 EXP SWAP1 DIV PUSH20 0xFFFFFFFFFFFFFFFFFFFFFFFFFFFFFFFFFFFFFFFF AND DUP2 JUMP JUMPDEST PUSH1 0x0 DUP1 PUSH1 0x14 SWAP1 SLOAD SWAP1 PUSH2 0x100 EXP SWAP1 DIV PUSH1 0xFF AND SWAP1 POP SWAP1 JUMP JUMPDEST PUSH2 0xA4C PUSH2 0x1948 JUMP JUMPDEST PUSH2 0xA54 PUSH2 0x1948 JUMP JUMPDEST PUSH2 0xA5C PUSH2 0x1948 JUMP JUMPDEST PUSH1 0x0 DUP1 PUSH1 0x0 PUSH1 0x2 PUSH1 0x0 DUP9 PUSH20 0xFFFFFFFFFFFFFFFFFFFFFFFFFFFFFFFFFFFFFFFF AND PUSH20 0xFFFFFFFFFFFFFFFFFFFFFFFFFFFFFFFFFFFFFFFF AND DUP2 MSTORE PUSH1 0x20 ADD SWAP1 DUP2 MSTORE PUSH1 0x20 ADD PUSH1 0x0 KECCAK256 PUSH1 0x0 DUP1 DUP2 MSTORE PUSH1 0x20 ADD SWAP1 DUP2 MSTORE PUSH1 0x20 ADD PUSH1 0x0 KECCAK256 PUSH1 0x40 MLOAD DUP1 PUSH1 0xA0 ADD PUSH1 0x40 MSTORE SWAP1 DUP2 PUSH1 0x0 DUP3 ADD SLOAD DUP2 MSTORE PUSH1 0x20 ADD PUSH1 0x1 DUP3 ADD SLOAD DUP2 MSTORE PUSH1 0x20 ADD PUSH1 0x2 DUP3 ADD SLOAD DUP2 MSTORE PUSH1 0x20 ADD PUSH1 0x3 DUP3 ADD SLOAD DUP2 MSTORE PUSH1 0x20 ADD PUSH1 0x4 DUP3 ADD SLOAD DUP2 MSTORE POP POP SWAP6 POP PUSH1 0x2 PUSH1 0x0 DUP9 PUSH20 0xFFFFFFFFFFFFFFFFFFFFFFFFFFFFFFFFFFFFFFFF AND PUSH20 0xFFFFFFFFFFFFFFFFFFFFFFFFFFFFFFFFFFFFFFFF AND DUP2 MSTORE PUSH1 0x20 ADD SWAP1 DUP2 MSTORE PUSH1 0x20 ADD PUSH1 0x0 KECCAK256 PUSH1 0x0 PUSH1 0x1 DUP2 MSTORE PUSH1 0x20 ADD SWAP1 DUP2 MSTORE PUSH1 0x20 ADD PUSH1 0x0 KECCAK256 PUSH1 0x40 MLOAD DUP1 PUSH1 0xA0 ADD PUSH1 0x40 MSTORE SWAP1 DUP2 PUSH1 0x0 DUP3 ADD SLOAD DUP2 MSTORE PUSH1 0x20 ADD PUSH1 0x1 DUP3 ADD SLOAD DUP2 MSTORE PUSH1 0x20 ADD PUSH1 0x2 DUP3 ADD SLOAD DUP2 MSTORE PUSH1 0x20 ADD PUSH1 0x3 DUP3 ADD SLOAD DUP2 MSTORE PUSH1 0x20 ADD PUSH1 0x4 DUP3 ADD SLOAD DUP2 MSTORE POP POP SWAP5 POP PUSH1 0x2 PUSH1 0x0 DUP9 PUSH20 0xFFFFFFFFFFFFFFFFFFFFFFFFFFFFFFFFFFFFFFFF AND PUSH20 0xFFFFFFFFFFFFFFFFFFFFFFFFFFFFFFFFFFFFFFFF AND DUP2 MSTORE PUSH1 0x20 ADD SWAP1 DUP2 MSTORE PUSH1 0x20 ADD PUSH1 0x0 KECCAK256 PUSH1 0x0 PUSH1 0x2 DUP2 MSTORE PUSH1 0x20 ADD SWAP1 DUP2 MSTORE PUSH1 0x20 ADD PUSH1 0x0 KECCAK256 PUSH1 0x40 MLOAD DUP1 PUSH1 0xA0 ADD PUSH1 0x40 MSTORE SWAP1 DUP2 PUSH1 0x0 DUP3 ADD SLOAD DUP2 MSTORE PUSH1 0x20 ADD PUSH1 0x1 DUP3 ADD SLOAD DUP2 MSTORE PUSH1 0x20 ADD PUSH1 0x2 DUP3 ADD SLOAD DUP2 MSTORE PUSH1 0x20 ADD PUSH1 0x3 DUP3 ADD SLOAD DUP2 MSTORE PUSH1 0x20 ADD PUSH1 0x4 DUP3 ADD SLOAD DUP2 MSTORE POP POP SWAP4 POP PUSH2 0xC1B DUP8 PUSH1 0x0 PUSH2 0x10FA JUMP JUMPDEST SWAP3 POP PUSH2 0xC28 DUP8 PUSH1 0x1 PUSH2 0x10FA JUMP JUMPDEST SWAP2 POP PUSH2 0xC35 DUP8 PUSH1 0x2 PUSH2 0x10FA JUMP JUMPDEST SWAP1 POP SWAP2 SWAP4 SWAP6 POP SWAP2 SWAP4 SWAP6 JUMP JUMPDEST PUSH2 0xC48 PUSH2 0x1738 JUMP JUMPDEST PUSH20 0xFFFFFFFFFFFFFFFFFFFFFFFFFFFFFFFFFFFFFFFF AND PUSH2 0xC66 PUSH2 0xF26 JUMP JUMPDEST PUSH20 0xFFFFFFFFFFFFFFFFFFFFFFFFFFFFFFFFFFFFFFFF AND EQ PUSH2 0xCBC JUMPI PUSH1 0x40 MLOAD PUSH32 0x8C379A000000000000000000000000000000000000000000000000000000000 DUP2 MSTORE PUSH1 0x4 ADD PUSH2 0xCB3 SWAP1 PUSH2 0x1EF1 JUMP JUMPDEST PUSH1 0x40 MLOAD DUP1 SWAP2 SUB SWAP1 REVERT JUMPDEST PUSH2 0xCC6 PUSH1 0x0 PUSH2 0x17E1 JUMP JUMPDEST JUMP JUMPDEST PUSH2 0xCD0 PUSH2 0x1738 JUMP JUMPDEST PUSH20 0xFFFFFFFFFFFFFFFFFFFFFFFFFFFFFFFFFFFFFFFF AND PUSH2 0xCEE PUSH2 0xF26 JUMP JUMPDEST PUSH20 0xFFFFFFFFFFFFFFFFFFFFFFFFFFFFFFFFFFFFFFFF AND EQ PUSH2 0xD44 JUMPI PUSH1 0x40 MLOAD PUSH32 0x8C379A000000000000000000000000000000000000000000000000000000000 DUP2 MSTORE PUSH1 0x4 ADD PUSH2 0xD3B SWAP1 PUSH2 0x1EF1 JUMP JUMPDEST PUSH1 0x40 MLOAD DUP1 SWAP2 SUB SWAP1 REVERT JUMPDEST PUSH2 0xD4C PUSH2 0x18A5 JUMP JUMPDEST JUMP JUMPDEST PUSH2 0xD56 PUSH2 0x1738 JUMP JUMPDEST PUSH20 0xFFFFFFFFFFFFFFFFFFFFFFFFFFFFFFFFFFFFFFFF AND PUSH2 0xD74 PUSH2 0xF26 JUMP JUMPDEST PUSH20 0xFFFFFFFFFFFFFFFFFFFFFFFFFFFFFFFFFFFFFFFF AND EQ PUSH2 0xDCA JUMPI PUSH1 0x40 MLOAD PUSH32 0x8C379A000000000000000000000000000000000000000000000000000000000 DUP2 MSTORE PUSH1 0x4 ADD PUSH2 0xDC1 SWAP1 PUSH2 0x1EF1 JUMP JUMPDEST PUSH1 0x40 MLOAD DUP1 SWAP2 SUB SWAP1 REVERT JUMPDEST PUSH1 0x1 PUSH1 0x0 SWAP1 SLOAD SWAP1 PUSH2 0x100 EXP SWAP1 DIV PUSH20 0xFFFFFFFFFFFFFFFFFFFFFFFFFFFFFFFFFFFFFFFF AND PUSH20 0xFFFFFFFFFFFFFFFFFFFFFFFFFFFFFFFFFFFFFFFF AND PUSH4 0xA9059CBB CALLER PUSH1 0x1 PUSH1 0x0 SWAP1 SLOAD SWAP1 PUSH2 0x100 EXP SWAP1 DIV PUSH20 0xFFFFFFFFFFFFFFFFFFFFFFFFFFFFFFFFFFFFFFFF AND PUSH20 0xFFFFFFFFFFFFFFFFFFFFFFFFFFFFFFFFFFFFFFFF AND PUSH4 0x70A08231 ADDRESS PUSH1 0x40 MLOAD DUP3 PUSH4 0xFFFFFFFF AND PUSH1 0xE0 SHL DUP2 MSTORE PUSH1 0x4 ADD PUSH2 0xE64 SWAP2 SWAP1 PUSH2 0x1D52 JUMP JUMPDEST PUSH1 0x20 PUSH1 0x40 MLOAD DUP1 DUP4 SUB DUP2 DUP7 DUP1 EXTCODESIZE ISZERO DUP1 ISZERO PUSH2 0xE7C JUMPI PUSH1 0x0 DUP1 REVERT JUMPDEST POP GAS STATICCALL ISZERO DUP1 ISZERO PUSH2 0xE90 JUMPI RETURNDATASIZE PUSH1 0x0 DUP1 RETURNDATACOPY RETURNDATASIZE PUSH1 0x0 REVERT JUMPDEST POP POP POP POP PUSH1 0x40 MLOAD RETURNDATASIZE PUSH1 0x1F NOT PUSH1 0x1F DUP3 ADD AND DUP3 ADD DUP1 PUSH1 0x40 MSTORE POP DUP2 ADD SWAP1 PUSH2 0xEB4 SWAP2 SWAP1 PUSH2 0x1AAC JUMP JUMPDEST PUSH1 0x40 MLOAD DUP4 PUSH4 0xFFFFFFFF AND PUSH1 0xE0 SHL DUP2 MSTORE PUSH1 0x4 ADD PUSH2 0xED1 SWAP3 SWAP2 SWAP1 PUSH2 0x1DDB JUMP JUMPDEST PUSH1 0x20 PUSH1 0x40 MLOAD DUP1 DUP4 SUB DUP2 PUSH1 0x0 DUP8 DUP1 EXTCODESIZE ISZERO DUP1 ISZERO PUSH2 0xEEB JUMPI PUSH1 0x0 DUP1 REVERT JUMPDEST POP GAS CALL ISZERO DUP1 ISZERO PUSH2 0xEFF JUMPI RETURNDATASIZE PUSH1 0x0 DUP1 RETURNDATACOPY RETURNDATASIZE PUSH1 0x0 REVERT JUMPDEST POP POP POP POP PUSH1 0x40 MLOAD RETURNDATASIZE PUSH1 0x1F NOT PUSH1 0x1F DUP3 ADD AND DUP3 ADD DUP1 PUSH1 0x40 MSTORE POP DUP2 ADD SWAP1 PUSH2 0xF23 SWAP2 SWAP1 PUSH2 0x1A52 JUMP JUMPDEST POP JUMP JUMPDEST PUSH1 0x0 DUP1 PUSH1 0x0 SWAP1 SLOAD SWAP1 PUSH2 0x100 EXP SWAP1 DIV PUSH20 0xFFFFFFFFFFFFFFFFFFFFFFFFFFFFFFFFFFFFFFFF AND SWAP1 POP SWAP1 JUMP JUMPDEST PUSH1 0x0 CALLER SWAP1 POP PUSH1 0x0 PUSH1 0x2 PUSH1 0x0 DUP4 PUSH20 0xFFFFFFFFFFFFFFFFFFFFFFFFFFFFFFFFFFFFFFFF AND PUSH20 0xFFFFFFFFFFFFFFFFFFFFFFFFFFFFFFFFFFFFFFFF AND DUP2 MSTORE PUSH1 0x20 ADD SWAP1 DUP2 MSTORE PUSH1 0x20 ADD PUSH1 0x0 KECCAK256 PUSH1 0x0 DUP5 DUP2 MSTORE PUSH1 0x20 ADD SWAP1 DUP2 MSTORE PUSH1 0x20 ADD PUSH1 0x0 KECCAK256 PUSH1 0x0 ADD SLOAD GT PUSH2 0xFEA JUMPI PUSH1 0x40 MLOAD PUSH32 0x8C379A000000000000000000000000000000000000000000000000000000000 DUP2 MSTORE PUSH1 0x4 ADD PUSH2 0xFE1 SWAP1 PUSH2 0x1F11 JUMP JUMPDEST PUSH1 0x40 MLOAD DUP1 SWAP2 SUB SWAP1 REVERT JUMPDEST PUSH1 0x0 PUSH2 0xFF6 DUP3 DUP5 PUSH2 0x10FA JUMP JUMPDEST SWAP1 POP DUP1 PUSH1 0x2 PUSH1 0x0 DUP5 PUSH20 0xFFFFFFFFFFFFFFFFFFFFFFFFFFFFFFFFFFFFFFFF AND PUSH20 0xFFFFFFFFFFFFFFFFFFFFFFFFFFFFFFFFFFFFFFFF AND DUP2 MSTORE PUSH1 0x20 ADD SWAP1 DUP2 MSTORE PUSH1 0x20 ADD PUSH1 0x0 KECCAK256 PUSH1 0x0 DUP6 DUP2 MSTORE PUSH1 0x20 ADD SWAP1 DUP2 MSTORE PUSH1 0x20 ADD PUSH1 0x0 KECCAK256 PUSH1 0x0 ADD PUSH1 0x0 DUP3 DUP3 SLOAD PUSH2 0x105B SWAP2 SWAP1 PUSH2 0x2096 JUMP JUMPDEST SWAP3 POP POP DUP2 SWAP1 SSTORE POP TIMESTAMP PUSH1 0x2 PUSH1 0x0 DUP5 PUSH20 0xFFFFFFFFFFFFFFFFFFFFFFFFFFFFFFFFFFFFFFFF AND PUSH20 0xFFFFFFFFFFFFFFFFFFFFFFFFFFFFFFFFFFFFFFFF AND DUP2 MSTORE PUSH1 0x20 ADD SWAP1 DUP2 MSTORE PUSH1 0x20 ADD PUSH1 0x0 KECCAK256 PUSH1 0x0 DUP6 DUP2 MSTORE PUSH1 0x20 ADD SWAP1 DUP2 MSTORE PUSH1 0x20 ADD PUSH1 0x0 KECCAK256 PUSH1 0x3 ADD DUP2 SWAP1 SSTORE POP PUSH32 0xE311A2C6DBFB0153EC3A8A5BDCA09070B3E5F60768FDC10A20453F38D186873 DUP3 DUP5 DUP4 PUSH1 0x40 MLOAD PUSH2 0x10ED SWAP4 SWAP3 SWAP2 SWAP1 PUSH2 0x1E04 JUMP JUMPDEST PUSH1 0x40 MLOAD DUP1 SWAP2 SUB SWAP1 LOG1 POP POP POP JUMP JUMPDEST PUSH1 0x0 DUP1 PUSH1 0x2 PUSH1 0x0 DUP6 PUSH20 0xFFFFFFFFFFFFFFFFFFFFFFFFFFFFFFFFFFFFFFFF AND PUSH20 0xFFFFFFFFFFFFFFFFFFFFFFFFFFFFFFFFFFFFFFFF AND DUP2 MSTORE PUSH1 0x20 ADD SWAP1 DUP2 MSTORE PUSH1 0x20 ADD PUSH1 0x0 KECCAK256 PUSH1 0x0 DUP5 DUP2 MSTORE PUSH1 0x20 ADD SWAP1 DUP2 MSTORE PUSH1 0x20 ADD PUSH1 0x0 KECCAK256 PUSH1 0x3 ADD SLOAD TIMESTAMP PUSH2 0x115C SWAP2 SWAP1 PUSH2 0x2177 JUMP JUMPDEST SWAP1 POP PUSH1 0x0 PUSH1 0x2 PUSH1 0x0 DUP7 PUSH20 0xFFFFFFFFFFFFFFFFFFFFFFFFFFFFFFFFFFFFFFFF AND PUSH20 0xFFFFFFFFFFFFFFFFFFFFFFFFFFFFFFFFFFFFFFFF AND DUP2 MSTORE PUSH1 0x20 ADD SWAP1 DUP2 MSTORE PUSH1 0x20 ADD PUSH1 0x0 KECCAK256 PUSH1 0x0 DUP6 DUP2 MSTORE PUSH1 0x20 ADD SWAP1 DUP2 MSTORE PUSH1 0x20 ADD PUSH1 0x0 KECCAK256 PUSH1 0x0 ADD SLOAD SWAP1 POP PUSH1 0x0 PUSH1 0x3 PUSH1 0x0 DUP7 DUP2 MSTORE PUSH1 0x20 ADD SWAP1 DUP2 MSTORE PUSH1 0x20 ADD PUSH1 0x0 KECCAK256 PUSH1 0x0 ADD SLOAD SWAP1 POP PUSH1 0x0 PUSH4 0x1E13380 PUSH2 0x2710 DUP4 DUP6 PUSH2 0x11E7 SWAP2 SWAP1 PUSH2 0x211D JUMP JUMPDEST PUSH2 0x11F1 SWAP2 SWAP1 PUSH2 0x20EC JUMP JUMPDEST PUSH2 0x11FB SWAP2 SWAP1 PUSH2 0x20EC JUMP JUMPDEST SWAP1 POP PUSH1 0x0 DUP2 DUP6 PUSH2 0x120B SWAP2 SWAP1 PUSH2 0x211D JUMP JUMPDEST SWAP1 POP DUP1 SWAP6 POP POP POP POP POP POP SWAP3 SWAP2 POP POP JUMP JUMPDEST PUSH2 0x1223 PUSH2 0xA2E JUMP JUMPDEST ISZERO PUSH2 0x1263 JUMPI PUSH1 0x40 MLOAD PUSH32 0x8C379A000000000000000000000000000000000000000000000000000000000 DUP2 MSTORE PUSH1 0x4 ADD PUSH2 0x125A SWAP1 PUSH2 0x1ED1 JUMP JUMPDEST PUSH1 0x40 MLOAD DUP1 SWAP2 SUB SWAP1 REVERT JUMPDEST PUSH1 0x0 CALLER SWAP1 POP PUSH1 0x1 PUSH1 0x0 SWAP1 SLOAD SWAP1 PUSH2 0x100 EXP SWAP1 DIV PUSH20 0xFFFFFFFFFFFFFFFFFFFFFFFFFFFFFFFFFFFFFFFF AND PUSH20 0xFFFFFFFFFFFFFFFFFFFFFFFFFFFFFFFFFFFFFFFF AND PUSH4 0x23B872DD DUP3 ADDRESS DUP7 PUSH1 0x40 MLOAD DUP5 PUSH4 0xFFFFFFFF AND PUSH1 0xE0 SHL DUP2 MSTORE PUSH1 0x4 ADD PUSH2 0x12C7 SWAP4 SWAP3 SWAP2 SWAP1 PUSH2 0x1D6D JUMP JUMPDEST PUSH1 0x20 PUSH1 0x40 MLOAD DUP1 DUP4 SUB DUP2 PUSH1 0x0 DUP8 DUP1 EXTCODESIZE ISZERO DUP1 ISZERO PUSH2 0x12E1 JUMPI PUSH1 0x0 DUP1 REVERT JUMPDEST POP GAS CALL ISZERO DUP1 ISZERO PUSH2 0x12F5 JUMPI RETURNDATASIZE PUSH1 0x0 DUP1 RETURNDATACOPY RETURNDATASIZE PUSH1 0x0 REVERT JUMPDEST POP POP POP POP PUSH1 0x40 MLOAD RETURNDATASIZE PUSH1 0x1F NOT PUSH1 0x1F DUP3 ADD AND DUP3 ADD DUP1 PUSH1 0x40 MSTORE POP DUP2 ADD SWAP1 PUSH2 0x1319 SWAP2 SWAP1 PUSH2 0x1A52 JUMP JUMPDEST POP PUSH1 0x0 PUSH1 0x2 PUSH1 0x0 DUP4 PUSH20 0xFFFFFFFFFFFFFFFFFFFFFFFFFFFFFFFFFFFFFFFF AND PUSH20 0xFFFFFFFFFFFFFFFFFFFFFFFFFFFFFFFFFFFFFFFF AND DUP2 MSTORE PUSH1 0x20 ADD SWAP1 DUP2 MSTORE PUSH1 0x20 ADD PUSH1 0x0 KECCAK256 PUSH1 0x0 DUP5 DUP2 MSTORE PUSH1 0x20 ADD SWAP1 DUP2 MSTORE PUSH1 0x20 ADD PUSH1 0x0 KECCAK256 PUSH1 0x0 ADD SLOAD GT ISZERO PUSH2 0x138E JUMPI PUSH2 0x1380 DUP2 DUP4 PUSH2 0x10FA JUMP JUMPDEST DUP4 PUSH2 0x138B SWAP2 SWAP1 PUSH2 0x2096 JUMP JUMPDEST SWAP3 POP JUMPDEST DUP3 PUSH1 0x2 PUSH1 0x0 DUP4 PUSH20 0xFFFFFFFFFFFFFFFFFFFFFFFFFFFFFFFFFFFFFFFF AND PUSH20 0xFFFFFFFFFFFFFFFFFFFFFFFFFFFFFFFFFFFFFFFF AND DUP2 MSTORE PUSH1 0x20 ADD SWAP1 DUP2 MSTORE PUSH1 0x20 ADD PUSH1 0x0 KECCAK256 PUSH1 0x0 DUP5 DUP2 MSTORE PUSH1 0x20 ADD SWAP1 DUP2 MSTORE PUSH1 0x20 ADD PUSH1 0x0 KECCAK256 PUSH1 0x0 ADD PUSH1 0x0 DUP3 DUP3 SLOAD PUSH2 0x13F1 SWAP2 SWAP1 PUSH2 0x2096 JUMP JUMPDEST SWAP3 POP POP DUP2 SWAP1 SSTORE POP TIMESTAMP PUSH1 0x2 PUSH1 0x0 DUP4 PUSH20 0xFFFFFFFFFFFFFFFFFFFFFFFFFFFFFFFFFFFFFFFF AND PUSH20 0xFFFFFFFFFFFFFFFFFFFFFFFFFFFFFFFFFFFFFFFF AND DUP2 MSTORE PUSH1 0x20 ADD SWAP1 DUP2 MSTORE PUSH1 0x20 ADD PUSH1 0x0 KECCAK256 PUSH1 0x0 DUP5 DUP2 MSTORE PUSH1 0x20 ADD SWAP1 DUP2 MSTORE PUSH1 0x20 ADD PUSH1 0x0 KECCAK256 PUSH1 0x2 ADD DUP2 SWAP1 SSTORE POP TIMESTAMP PUSH1 0x2 PUSH1 0x0 DUP4 PUSH20 0xFFFFFFFFFFFFFFFFFFFFFFFFFFFFFFFFFFFFFFFF AND PUSH20 0xFFFFFFFFFFFFFFFFFFFFFFFFFFFFFFFFFFFFFFFF AND DUP2 MSTORE PUSH1 0x20 ADD SWAP1 DUP2 MSTORE PUSH1 0x20 ADD PUSH1 0x0 KECCAK256 PUSH1 0x0 DUP5 DUP2 MSTORE PUSH1 0x20 ADD SWAP1 DUP2 MSTORE PUSH1 0x20 ADD PUSH1 0x0 KECCAK256 PUSH1 0x3 ADD DUP2 SWAP1 SSTORE POP PUSH1 0x3 PUSH1 0x0 DUP4 DUP2 MSTORE PUSH1 0x20 ADD SWAP1 DUP2 MSTORE PUSH1 0x20 ADD PUSH1 0x0 KECCAK256 PUSH1 0x1 ADD SLOAD TIMESTAMP PUSH2 0x14CA SWAP2 SWAP1 PUSH2 0x2096 JUMP JUMPDEST PUSH1 0x2 PUSH1 0x0 DUP4 PUSH20 0xFFFFFFFFFFFFFFFFFFFFFFFFFFFFFFFFFFFFFFFF AND PUSH20 0xFFFFFFFFFFFFFFFFFFFFFFFFFFFFFFFFFFFFFFFF AND DUP2 MSTORE PUSH1 0x20 ADD SWAP1 DUP2 MSTORE PUSH1 0x20 ADD PUSH1 0x0 KECCAK256 PUSH1 0x0 DUP5 DUP2 MSTORE PUSH1 0x20 ADD SWAP1 DUP2 MSTORE PUSH1 0x20 ADD PUSH1 0x0 KECCAK256 PUSH1 0x4 ADD DUP2 SWAP1 SSTORE POP PUSH32 0x90890809C654F11D6E72A28FA60149770A0D11EC6C92319D6CEB2BB0A4EA1A15 DUP2 DUP4 DUP6 PUSH1 0x40 MLOAD PUSH2 0x1554 SWAP4 SWAP3 SWAP2 SWAP1 PUSH2 0x1E04 JUMP JUMPDEST PUSH1 0x40 MLOAD DUP1 SWAP2 SUB SWAP1 LOG1 POP POP POP JUMP JUMPDEST PUSH2 0x1569 PUSH2 0x1977 JUMP JUMPDEST PUSH2 0x1571 PUSH2 0x1977 JUMP JUMPDEST PUSH2 0x1579 PUSH2 0x1977 JUMP JUMPDEST PUSH1 0x3 PUSH1 0x0 DUP1 DUP2 MSTORE PUSH1 0x20 ADD SWAP1 DUP2 MSTORE PUSH1 0x20 ADD PUSH1 0x0 KECCAK256 PUSH1 0x40 MLOAD DUP1 PUSH1 0x40 ADD PUSH1 0x40 MSTORE SWAP1 DUP2 PUSH1 0x0 DUP3 ADD SLOAD DUP2 MSTORE PUSH1 0x20 ADD PUSH1 0x1 DUP3 ADD SLOAD DUP2 MSTORE POP POP SWAP3 POP PUSH1 0x3 PUSH1 0x0 PUSH1 0x1 DUP2 MSTORE PUSH1 0x20 ADD SWAP1 DUP2 MSTORE PUSH1 0x20 ADD PUSH1 0x0 KECCAK256 PUSH1 0x40 MLOAD DUP1 PUSH1 0x40 ADD PUSH1 0x40 MSTORE SWAP1 DUP2 PUSH1 0x0 DUP3 ADD SLOAD DUP2 MSTORE PUSH1 0x20 ADD PUSH1 0x1 DUP3 ADD SLOAD DUP2 MSTORE POP POP SWAP2 POP PUSH1 0x3 PUSH1 0x0 PUSH1 0x2 DUP2 MSTORE PUSH1 0x20 ADD SWAP1 DUP2 MSTORE PUSH1 0x20 ADD PUSH1 0x0 KECCAK256 PUSH1 0x40 MLOAD DUP1 PUSH1 0x40 ADD PUSH1 0x40 MSTORE SWAP1 DUP2 PUSH1 0x0 DUP3 ADD SLOAD DUP2 MSTORE PUSH1 0x20 ADD PUSH1 0x1 DUP3 ADD SLOAD DUP2 MSTORE POP POP SWAP1 POP SWAP1 SWAP2 SWAP3 JUMP JUMPDEST PUSH1 0x3 PUSH1 0x20 MSTORE DUP1 PUSH1 0x0 MSTORE PUSH1 0x40 PUSH1 0x0 KECCAK256 PUSH1 0x0 SWAP2 POP SWAP1 POP DUP1 PUSH1 0x0 ADD SLOAD SWAP1 DUP1 PUSH1 0x1 ADD SLOAD SWAP1 POP DUP3 JUMP JUMPDEST PUSH2 0x1648 PUSH2 0x1738 JUMP JUMPDEST PUSH20 0xFFFFFFFFFFFFFFFFFFFFFFFFFFFFFFFFFFFFFFFF AND PUSH2 0x1666 PUSH2 0xF26 JUMP JUMPDEST PUSH20 0xFFFFFFFFFFFFFFFFFFFFFFFFFFFFFFFFFFFFFFFF AND EQ PUSH2 0x16BC JUMPI PUSH1 0x40 MLOAD PUSH32 0x8C379A000000000000000000000000000000000000000000000000000000000 DUP2 MSTORE PUSH1 0x4 ADD PUSH2 0x16B3 SWAP1 PUSH2 0x1EF1 JUMP JUMPDEST PUSH1 0x40 MLOAD DUP1 SWAP2 SUB SWAP1 REVERT JUMPDEST PUSH1 0x0 PUSH20 0xFFFFFFFFFFFFFFFFFFFFFFFFFFFFFFFFFFFFFFFF AND DUP2 PUSH20 0xFFFFFFFFFFFFFFFFFFFFFFFFFFFFFFFFFFFFFFFF AND EQ ISZERO PUSH2 0x172C JUMPI PUSH1 0x40 MLOAD PUSH32 0x8C379A000000000000000000000000000000000000000000000000000000000 DUP2 MSTORE PUSH1 0x4 ADD PUSH2 0x1723 SWAP1 PUSH2 0x1E91 JUMP JUMPDEST PUSH1 0x40 MLOAD DUP1 SWAP2 SUB SWAP1 REVERT JUMPDEST PUSH2 0x1735 DUP2 PUSH2 0x17E1 JUMP JUMPDEST POP JUMP JUMPDEST PUSH1 0x0 CALLER SWAP1 POP SWAP1 JUMP JUMPDEST PUSH2 0x1748 PUSH2 0xA2E JUMP JUMPDEST PUSH2 0x1787 JUMPI PUSH1 0x40 MLOAD PUSH32 0x8C379A000000000000000000000000000000000000000000000000000000000 DUP2 MSTORE PUSH1 0x4 ADD PUSH2 0x177E SWAP1 PUSH2 0x1E71 JUMP JUMPDEST PUSH1 0x40 MLOAD DUP1 SWAP2 SUB SWAP1 REVERT JUMPDEST PUSH1 0x0 DUP1 PUSH1 0x14 PUSH2 0x100 EXP DUP2 SLOAD DUP2 PUSH1 0xFF MUL NOT AND SWAP1 DUP4 ISZERO ISZERO MUL OR SWAP1 SSTORE POP PUSH32 0x5DB9EE0A495BF2E6FF9C91A7834C1BA4FDD244A5E8AA4E537BD38AEAE4B073AA PUSH2 0x17CA PUSH2 0x1738 JUMP JUMPDEST PUSH1 0x40 MLOAD PUSH2 0x17D7 SWAP2 SWAP1 PUSH2 0x1D52 JUMP JUMPDEST PUSH1 0x40 MLOAD DUP1 SWAP2 SUB SWAP1 LOG1 JUMP JUMPDEST PUSH1 0x0 DUP1 PUSH1 0x0 SWAP1 SLOAD SWAP1 PUSH2 0x100 EXP SWAP1 DIV PUSH20 0xFFFFFFFFFFFFFFFFFFFFFFFFFFFFFFFFFFFFFFFF AND SWAP1 POP DUP2 PUSH1 0x0 DUP1 PUSH2 0x100 EXP DUP2 SLOAD DUP2 PUSH20 0xFFFFFFFFFFFFFFFFFFFFFFFFFFFFFFFFFFFFFFFF MUL NOT AND SWAP1 DUP4 PUSH20 0xFFFFFFFFFFFFFFFFFFFFFFFFFFFFFFFFFFFFFFFF AND MUL OR SWAP1 SSTORE POP DUP2 PUSH20 0xFFFFFFFFFFFFFFFFFFFFFFFFFFFFFFFFFFFFFFFF AND DUP2 PUSH20 0xFFFFFFFFFFFFFFFFFFFFFFFFFFFFFFFFFFFFFFFF AND PUSH32 0x8BE0079C531659141344CD1FD0A4F28419497F9722A3DAAFE3B4186F6B6457E0 PUSH1 0x40 MLOAD PUSH1 0x40 MLOAD DUP1 SWAP2 SUB SWAP1 LOG3 POP POP JUMP JUMPDEST PUSH2 0x18AD PUSH2 0xA2E JUMP JUMPDEST ISZERO PUSH2 0x18ED JUMPI PUSH1 0x40 MLOAD PUSH32 0x8C379A000000000000000000000000000000000000000000000000000000000 DUP2 MSTORE PUSH1 0x4 ADD PUSH2 0x18E4 SWAP1 PUSH2 0x1ED1 JUMP JUMPDEST PUSH1 0x40 MLOAD DUP1 SWAP2 SUB SWAP1 REVERT JUMPDEST PUSH1 0x1 PUSH1 0x0 PUSH1 0x14 PUSH2 0x100 EXP DUP2 SLOAD DUP2 PUSH1 0xFF MUL NOT AND SWAP1 DUP4 ISZERO ISZERO MUL OR SWAP1 SSTORE POP PUSH32 0x62E78CEA01BEE320CD4E420270B5EA74000D11B0C9F74754EBDBFC544B05A258 PUSH2 0x1931 PUSH2 0x1738 JUMP JUMPDEST PUSH1 0x40 MLOAD PUSH2 0x193E SWAP2 SWAP1 PUSH2 0x1D52 JUMP JUMPDEST PUSH1 0x40 MLOAD DUP1 SWAP2 SUB SWAP1 LOG1 JUMP JUMPDEST PUSH1 0x40 MLOAD DUP1 PUSH1 0xA0 ADD PUSH1 0x40 MSTORE DUP1 PUSH1 0x0 DUP2 MSTORE PUSH1 0x20 ADD PUSH1 0x0 DUP2 MSTORE PUSH1 0x20 ADD PUSH1 0x0 DUP2 MSTORE PUSH1 0x20 ADD PUSH1 0x0 DUP2 MSTORE PUSH1 0x20 ADD PUSH1 0x0 DUP2 MSTORE POP SWAP1 JUMP JUMPDEST PUSH1 0x40 MLOAD DUP1 PUSH1 0x40 ADD PUSH1 0x40 MSTORE DUP1 PUSH1 0x0 DUP2 MSTORE PUSH1 0x20 ADD PUSH1 0x0 DUP2 MSTORE POP SWAP1 JUMP JUMPDEST PUSH1 0x0 DUP2 CALLDATALOAD SWAP1 POP PUSH2 0x19A0 DUP2 PUSH2 0x23E3 JUMP JUMPDEST SWAP3 SWAP2 POP POP JUMP JUMPDEST PUSH1 0x0 DUP2 MLOAD SWAP1 POP PUSH2 0x19B5 DUP2 PUSH2 0x23FA JUMP JUMPDEST SWAP3 SWAP2 POP POP JUMP JUMPDEST PUSH1 0x0 DUP2 CALLDATALOAD SWAP1 POP PUSH2 0x19CA DUP2 PUSH2 0x2411 JUMP JUMPDEST SWAP3 SWAP2 POP POP JUMP JUMPDEST PUSH1 0x0 DUP2 MLOAD SWAP1 POP PUSH2 0x19DF DUP2 PUSH2 0x2411 JUMP JUMPDEST SWAP3 SWAP2 POP POP JUMP JUMPDEST PUSH1 0x0 PUSH1 0x20 DUP3 DUP5 SUB SLT ISZERO PUSH2 0x19FB JUMPI PUSH2 0x19FA PUSH2 0x2299 JUMP JUMPDEST JUMPDEST PUSH1 0x0 PUSH2 0x1A09 DUP5 DUP3 DUP6 ADD PUSH2 0x1991 JUMP JUMPDEST SWAP2 POP POP SWAP3 SWAP2 POP POP JUMP JUMPDEST PUSH1 0x0 DUP1 PUSH1 0x40 DUP4 DUP6 SUB SLT ISZERO PUSH2 0x1A29 JUMPI PUSH2 0x1A28 PUSH2 0x2299 JUMP JUMPDEST JUMPDEST PUSH1 0x0 PUSH2 0x1A37 DUP6 DUP3 DUP7 ADD PUSH2 0x1991 JUMP JUMPDEST SWAP3 POP POP PUSH1 0x20 PUSH2 0x1A48 DUP6 DUP3 DUP7 ADD PUSH2 0x19BB JUMP JUMPDEST SWAP2 POP POP SWAP3 POP SWAP3 SWAP1 POP JUMP JUMPDEST PUSH1 0x0 PUSH1 0x20 DUP3 DUP5 SUB SLT ISZERO PUSH2 0x1A68 JUMPI PUSH2 0x1A67 PUSH2 0x2299 JUMP JUMPDEST JUMPDEST PUSH1 0x0 PUSH2 0x1A76 DUP5 DUP3 DUP6 ADD PUSH2 0x19A6 JUMP JUMPDEST SWAP2 POP POP SWAP3 SWAP2 POP POP JUMP JUMPDEST PUSH1 0x0 PUSH1 0x20 DUP3 DUP5 SUB SLT ISZERO PUSH2 0x1A95 JUMPI PUSH2 0x1A94 PUSH2 0x2299 JUMP JUMPDEST JUMPDEST PUSH1 0x0 PUSH2 0x1AA3 DUP5 DUP3 DUP6 ADD PUSH2 0x19BB JUMP JUMPDEST SWAP2 POP POP SWAP3 SWAP2 POP POP JUMP JUMPDEST PUSH1 0x0 PUSH1 0x20 DUP3 DUP5 SUB SLT ISZERO PUSH2 0x1AC2 JUMPI PUSH2 0x1AC1 PUSH2 0x2299 JUMP JUMPDEST JUMPDEST PUSH1 0x0 PUSH2 0x1AD0 DUP5 DUP3 DUP6 ADD PUSH2 0x19D0 JUMP JUMPDEST SWAP2 POP POP SWAP3 SWAP2 POP POP JUMP JUMPDEST PUSH1 0x0 DUP1 PUSH1 0x40 DUP4 DUP6 SUB SLT ISZERO PUSH2 0x1AF0 JUMPI PUSH2 0x1AEF PUSH2 0x2299 JUMP JUMPDEST JUMPDEST PUSH1 0x0 PUSH2 0x1AFE DUP6 DUP3 DUP7 ADD PUSH2 0x19BB JUMP JUMPDEST SWAP3 POP POP PUSH1 0x20 PUSH2 0x1B0F DUP6 DUP3 DUP7 ADD PUSH2 0x19BB JUMP JUMPDEST SWAP2 POP POP SWAP3 POP SWAP3 SWAP1 POP JUMP JUMPDEST PUSH1 0x0 DUP1 PUSH1 0x0 PUSH1 0x60 DUP5 DUP7 SUB SLT ISZERO PUSH2 0x1B32 JUMPI PUSH2 0x1B31 PUSH2 0x2299 JUMP JUMPDEST JUMPDEST PUSH1 0x0 PUSH2 0x1B40 DUP7 DUP3 DUP8 ADD PUSH2 0x19BB JUMP JUMPDEST SWAP4 POP POP PUSH1 0x20 PUSH2 0x1B51 DUP7 DUP3 DUP8 ADD PUSH2 0x19BB JUMP JUMPDEST SWAP3 POP POP PUSH1 0x40 PUSH2 0x1B62 DUP7 DUP3 DUP8 ADD PUSH2 0x19BB JUMP JUMPDEST SWAP2 POP POP SWAP3 POP SWAP3 POP SWAP3 JUMP JUMPDEST PUSH2 0x1B75 DUP2 PUSH2 0x21AB JUMP JUMPDEST DUP3 MSTORE POP POP JUMP JUMPDEST PUSH2 0x1B84 DUP2 PUSH2 0x21BD JUMP JUMPDEST DUP3 MSTORE POP POP JUMP JUMPDEST PUSH2 0x1B93 DUP2 PUSH2 0x21F3 JUMP JUMPDEST DUP3 MSTORE POP POP JUMP JUMPDEST PUSH2 0x1BA2 DUP2 PUSH2 0x2205 JUMP JUMPDEST DUP3 MSTORE POP POP JUMP JUMPDEST PUSH1 0x0 PUSH2 0x1BB5 PUSH1 0x14 DUP4 PUSH2 0x2085 JUMP JUMPDEST SWAP2 POP PUSH2 0x1BC0 DUP3 PUSH2 0x229E JUMP JUMPDEST PUSH1 0x20 DUP3 ADD SWAP1 POP SWAP2 SWAP1 POP JUMP JUMPDEST PUSH1 0x0 PUSH2 0x1BD8 PUSH1 0x26 DUP4 PUSH2 0x2085 JUMP JUMPDEST SWAP2 POP PUSH2 0x1BE3 DUP3 PUSH2 0x22C7 JUMP JUMPDEST PUSH1 0x40 DUP3 ADD SWAP1 POP SWAP2 SWAP1 POP JUMP JUMPDEST PUSH1 0x0 PUSH2 0x1BFB PUSH1 0x18 DUP4 PUSH2 0x2085 JUMP JUMPDEST SWAP2 POP PUSH2 0x1C06 DUP3 PUSH2 0x2316 JUMP JUMPDEST PUSH1 0x20 DUP3 ADD SWAP1 POP SWAP2 SWAP1 POP JUMP JUMPDEST PUSH1 0x0 PUSH2 0x1C1E PUSH1 0x10 DUP4 PUSH2 0x2085 JUMP JUMPDEST SWAP2 POP PUSH2 0x1C29 DUP3 PUSH2 0x233F JUMP JUMPDEST PUSH1 0x20 DUP3 ADD SWAP1 POP SWAP2 SWAP1 POP JUMP JUMPDEST PUSH1 0x0 PUSH2 0x1C41 PUSH1 0x20 DUP4 PUSH2 0x2085 JUMP JUMPDEST SWAP2 POP PUSH2 0x1C4C DUP3 PUSH2 0x2368 JUMP JUMPDEST PUSH1 0x20 DUP3 ADD SWAP1 POP SWAP2 SWAP1 POP JUMP JUMPDEST PUSH1 0x0 PUSH2 0x1C64 PUSH1 0x11 DUP4 PUSH2 0x2085 JUMP JUMPDEST SWAP2 POP PUSH2 0x1C6F DUP3 PUSH2 0x2391 JUMP JUMPDEST PUSH1 0x20 DUP3 ADD SWAP1 POP SWAP2 SWAP1 POP JUMP JUMPDEST PUSH1 0x0 PUSH2 0x1C87 PUSH1 0x12 DUP4 PUSH2 0x2085 JUMP JUMPDEST SWAP2 POP PUSH2 0x1C92 DUP3 PUSH2 0x23BA JUMP JUMPDEST PUSH1 0x20 DUP3 ADD SWAP1 POP SWAP2 SWAP1 POP JUMP JUMPDEST PUSH1 0x40 DUP3 ADD PUSH1 0x0 DUP3 ADD MLOAD PUSH2 0x1CB3 PUSH1 0x0 DUP6 ADD DUP3 PUSH2 0x1D34 JUMP JUMPDEST POP PUSH1 0x20 DUP3 ADD MLOAD PUSH2 0x1CC6 PUSH1 0x20 DUP6 ADD DUP3 PUSH2 0x1D34 JUMP JUMPDEST POP POP POP POP JUMP JUMPDEST PUSH1 0xA0 DUP3 ADD PUSH1 0x0 DUP3 ADD MLOAD PUSH2 0x1CE2 PUSH1 0x0 DUP6 ADD DUP3 PUSH2 0x1D34 JUMP JUMPDEST POP PUSH1 0x20 DUP3 ADD MLOAD PUSH2 0x1CF5 PUSH1 0x20 DUP6 ADD DUP3 PUSH2 0x1D34 JUMP JUMPDEST POP PUSH1 0x40 DUP3 ADD MLOAD PUSH2 0x1D08 PUSH1 0x40 DUP6 ADD DUP3 PUSH2 0x1D34 JUMP JUMPDEST POP PUSH1 0x60 DUP3 ADD MLOAD PUSH2 0x1D1B PUSH1 0x60 DUP6 ADD DUP3 PUSH2 0x1D34 JUMP JUMPDEST POP PUSH1 0x80 DUP3 ADD MLOAD PUSH2 0x1D2E PUSH1 0x80 DUP6 ADD DUP3 PUSH2 0x1D34 JUMP JUMPDEST POP POP POP POP JUMP JUMPDEST PUSH2 0x1D3D DUP2 PUSH2 0x21E9 JUMP JUMPDEST DUP3 MSTORE POP POP JUMP JUMPDEST PUSH2 0x1D4C DUP2 PUSH2 0x21E9 JUMP JUMPDEST DUP3 MSTORE POP POP JUMP JUMPDEST PUSH1 0x0 PUSH1 0x20 DUP3 ADD SWAP1 POP PUSH2 0x1D67 PUSH1 0x0 DUP4 ADD DUP5 PUSH2 0x1B6C JUMP JUMPDEST SWAP3 SWAP2 POP POP JUMP JUMPDEST PUSH1 0x0 PUSH1 0x60 DUP3 ADD SWAP1 POP PUSH2 0x1D82 PUSH1 0x0 DUP4 ADD DUP7 PUSH2 0x1B6C JUMP JUMPDEST PUSH2 0x1D8F PUSH1 0x20 DUP4 ADD DUP6 PUSH2 0x1B6C JUMP JUMPDEST PUSH2 0x1D9C PUSH1 0x40 DUP4 ADD DUP5 PUSH2 0x1D43 JUMP JUMPDEST SWAP5 SWAP4 POP POP POP POP JUMP JUMPDEST PUSH1 0x0 PUSH1 0x60 DUP3 ADD SWAP1 POP PUSH2 0x1DB9 PUSH1 0x0 DUP4 ADD DUP7 PUSH2 0x1B6C JUMP JUMPDEST PUSH2 0x1DC6 PUSH1 0x20 DUP4 ADD DUP6 PUSH2 0x1B99 JUMP JUMPDEST PUSH2 0x1DD3 PUSH1 0x40 DUP4 ADD DUP5 PUSH2 0x1D43 JUMP JUMPDEST SWAP5 SWAP4 POP POP POP POP JUMP JUMPDEST PUSH1 0x0 PUSH1 0x40 DUP3 ADD SWAP1 POP PUSH2 0x1DF0 PUSH1 0x0 DUP4 ADD DUP6 PUSH2 0x1B6C JUMP JUMPDEST PUSH2 0x1DFD PUSH1 0x20 DUP4 ADD DUP5 PUSH2 0x1D43 JUMP JUMPDEST SWAP4 SWAP3 POP POP POP JUMP JUMPDEST PUSH1 0x0 PUSH1 0x60 DUP3 ADD SWAP1 POP PUSH2 0x1E19 PUSH1 0x0 DUP4 ADD DUP7 PUSH2 0x1B6C JUMP JUMPDEST PUSH2 0x1E26 PUSH1 0x20 DUP4 ADD DUP6 PUSH2 0x1D43 JUMP JUMPDEST PUSH2 0x1E33 PUSH1 0x40 DUP4 ADD DUP5 PUSH2 0x1D43 JUMP JUMPDEST SWAP5 SWAP4 POP POP POP POP JUMP JUMPDEST PUSH1 0x0 PUSH1 0x20 DUP3 ADD SWAP1 POP PUSH2 0x1E50 PUSH1 0x0 DUP4 ADD DUP5 PUSH2 0x1B7B JUMP JUMPDEST SWAP3 SWAP2 POP POP JUMP JUMPDEST PUSH1 0x0 PUSH1 0x20 DUP3 ADD SWAP1 POP PUSH2 0x1E6B PUSH1 0x0 DUP4 ADD DUP5 PUSH2 0x1B8A JUMP JUMPDEST SWAP3 SWAP2 POP POP JUMP JUMPDEST PUSH1 0x0 PUSH1 0x20 DUP3 ADD SWAP1 POP DUP2 DUP2 SUB PUSH1 0x0 DUP4 ADD MSTORE PUSH2 0x1E8A DUP2 PUSH2 0x1BA8 JUMP JUMPDEST SWAP1 POP SWAP2 SWAP1 POP JUMP JUMPDEST PUSH1 0x0 PUSH1 0x20 DUP3 ADD SWAP1 POP DUP2 DUP2 SUB PUSH1 0x0 DUP4 ADD MSTORE PUSH2 0x1EAA DUP2 PUSH2 0x1BCB JUMP JUMPDEST SWAP1 POP SWAP2 SWAP1 POP JUMP JUMPDEST PUSH1 0x0 PUSH1 0x20 DUP3 ADD SWAP1 POP DUP2 DUP2 SUB PUSH1 0x0 DUP4 ADD MSTORE PUSH2 0x1ECA DUP2 PUSH2 0x1BEE JUMP JUMPDEST SWAP1 POP SWAP2 SWAP1 POP JUMP JUMPDEST PUSH1 0x0 PUSH1 0x20 DUP3 ADD SWAP1 POP DUP2 DUP2 SUB PUSH1 0x0 DUP4 ADD MSTORE PUSH2 0x1EEA DUP2 PUSH2 0x1C11 JUMP JUMPDEST SWAP1 POP SWAP2 SWAP1 POP JUMP JUMPDEST PUSH1 0x0 PUSH1 0x20 DUP3 ADD SWAP1 POP DUP2 DUP2 SUB PUSH1 0x0 DUP4 ADD MSTORE PUSH2 0x1F0A DUP2 PUSH2 0x1C34 JUMP JUMPDEST SWAP1 POP SWAP2 SWAP1 POP JUMP JUMPDEST PUSH1 0x0 PUSH1 0x20 DUP3 ADD SWAP1 POP DUP2 DUP2 SUB PUSH1 0x0 DUP4 ADD MSTORE PUSH2 0x1F2A DUP2 PUSH2 0x1C57 JUMP JUMPDEST SWAP1 POP SWAP2 SWAP1 POP JUMP JUMPDEST PUSH1 0x0 PUSH1 0x20 DUP3 ADD SWAP1 POP DUP2 DUP2 SUB PUSH1 0x0 DUP4 ADD MSTORE PUSH2 0x1F4A DUP2 PUSH2 0x1C7A JUMP JUMPDEST SWAP1 POP SWAP2 SWAP1 POP JUMP JUMPDEST PUSH1 0x0 PUSH1 0xC0 DUP3 ADD SWAP1 POP PUSH2 0x1F66 PUSH1 0x0 DUP4 ADD DUP7 PUSH2 0x1C9D JUMP JUMPDEST PUSH2 0x1F73 PUSH1 0x40 DUP4 ADD DUP6 PUSH2 0x1C9D JUMP JUMPDEST PUSH2 0x1F80 PUSH1 0x80 DUP4 ADD DUP5 PUSH2 0x1C9D JUMP JUMPDEST SWAP5 SWAP4 POP POP POP POP JUMP JUMPDEST PUSH1 0x0 PUSH2 0x240 DUP3 ADD SWAP1 POP PUSH2 0x1F9E PUSH1 0x0 DUP4 ADD DUP10 PUSH2 0x1CCC JUMP JUMPDEST PUSH2 0x1FAB PUSH1 0xA0 DUP4 ADD DUP9 PUSH2 0x1CCC JUMP JUMPDEST PUSH2 0x1FB9 PUSH2 0x140 DUP4 ADD DUP8 PUSH2 0x1CCC JUMP JUMPDEST PUSH2 0x1FC7 PUSH2 0x1E0 DUP4 ADD DUP7 PUSH2 0x1D43 JUMP JUMPDEST PUSH2 0x1FD5 PUSH2 0x200 DUP4 ADD DUP6 PUSH2 0x1D43 JUMP JUMPDEST PUSH2 0x1FE3 PUSH2 0x220 DUP4 ADD DUP5 PUSH2 0x1D43 JUMP JUMPDEST SWAP8 SWAP7 POP POP POP POP POP POP POP JUMP JUMPDEST PUSH1 0x0 PUSH1 0x20 DUP3 ADD SWAP1 POP PUSH2 0x2003 PUSH1 0x0 DUP4 ADD DUP5 PUSH2 0x1D43 JUMP JUMPDEST SWAP3 SWAP2 POP POP JUMP JUMPDEST PUSH1 0x0 PUSH1 0x40 DUP3 ADD SWAP1 POP PUSH2 0x201E PUSH1 0x0 DUP4 ADD DUP6 PUSH2 0x1D43 JUMP JUMPDEST PUSH2 0x202B PUSH1 0x20 DUP4 ADD DUP5 PUSH2 0x1D43 JUMP JUMPDEST SWAP4 SWAP3 POP POP POP JUMP JUMPDEST PUSH1 0x0 PUSH1 0xA0 DUP3 ADD SWAP1 POP PUSH2 0x2047 PUSH1 0x0 DUP4 ADD DUP9 PUSH2 0x1D43 JUMP JUMPDEST PUSH2 0x2054 PUSH1 0x20 DUP4 ADD DUP8 PUSH2 0x1D43 JUMP JUMPDEST PUSH2 0x2061 PUSH1 0x40 DUP4 ADD DUP7 PUSH2 0x1D43 JUMP JUMPDEST PUSH2 0x206E PUSH1 0x60 DUP4 ADD DUP6 PUSH2 0x1D43 JUMP JUMPDEST PUSH2 0x207B PUSH1 0x80 DUP4 ADD DUP5 PUSH2 0x1D43 JUMP JUMPDEST SWAP7 SWAP6 POP POP POP POP POP POP JUMP JUMPDEST PUSH1 0x0 DUP3 DUP3 MSTORE PUSH1 0x20 DUP3 ADD SWAP1 POP SWAP3 SWAP2 POP POP JUMP JUMPDEST PUSH1 0x0 PUSH2 0x20A1 DUP3 PUSH2 0x21E9 JUMP JUMPDEST SWAP2 POP PUSH2 0x20AC DUP4 PUSH2 0x21E9 JUMP JUMPDEST SWAP3 POP DUP3 PUSH32 0xFFFFFFFFFFFFFFFFFFFFFFFFFFFFFFFFFFFFFFFFFFFFFFFFFFFFFFFFFFFFFFFF SUB DUP3 GT ISZERO PUSH2 0x20E1 JUMPI PUSH2 0x20E0 PUSH2 0x223B JUMP JUMPDEST JUMPDEST DUP3 DUP3 ADD SWAP1 POP SWAP3 SWAP2 POP POP JUMP JUMPDEST PUSH1 0x0 PUSH2 0x20F7 DUP3 PUSH2 0x21E9 JUMP JUMPDEST SWAP2 POP PUSH2 0x2102 DUP4 PUSH2 0x21E9 JUMP JUMPDEST SWAP3 POP DUP3 PUSH2 0x2112 JUMPI PUSH2 0x2111 PUSH2 0x226A JUMP JUMPDEST JUMPDEST DUP3 DUP3 DIV SWAP1 POP SWAP3 SWAP2 POP POP JUMP JUMPDEST PUSH1 0x0 PUSH2 0x2128 DUP3 PUSH2 0x21E9 JUMP JUMPDEST SWAP2 POP PUSH2 0x2133 DUP4 PUSH2 0x21E9 JUMP JUMPDEST SWAP3 POP DUP2 PUSH32 0xFFFFFFFFFFFFFFFFFFFFFFFFFFFFFFFFFFFFFFFFFFFFFFFFFFFFFFFFFFFFFFFF DIV DUP4 GT DUP3 ISZERO ISZERO AND ISZERO PUSH2 0x216C JUMPI PUSH2 0x216B PUSH2 0x223B JUMP JUMPDEST JUMPDEST DUP3 DUP3 MUL SWAP1 POP SWAP3 SWAP2 POP POP JUMP JUMPDEST PUSH1 0x0 PUSH2 0x2182 DUP3 PUSH2 0x21E9 JUMP JUMPDEST SWAP2 POP PUSH2 0x218D DUP4 PUSH2 0x21E9 JUMP JUMPDEST SWAP3 POP DUP3 DUP3 LT ISZERO PUSH2 0x21A0 JUMPI PUSH2 0x219F PUSH2 0x223B JUMP JUMPDEST JUMPDEST DUP3 DUP3 SUB SWAP1 POP SWAP3 SWAP2 POP POP JUMP JUMPDEST PUSH1 0x0 PUSH2 0x21B6 DUP3 PUSH2 0x21C9 JUMP JUMPDEST SWAP1 POP SWAP2 SWAP1 POP JUMP JUMPDEST PUSH1 0x0 DUP2 ISZERO ISZERO SWAP1 POP SWAP2 SWAP1 POP JUMP JUMPDEST PUSH1 0x0 PUSH20 0xFFFFFFFFFFFFFFFFFFFFFFFFFFFFFFFFFFFFFFFF DUP3 AND SWAP1 POP SWAP2 SWAP1 POP JUMP JUMPDEST PUSH1 0x0 DUP2 SWAP1 POP SWAP2 SWAP1 POP JUMP JUMPDEST PUSH1 0x0 PUSH2 0x21FE DUP3 PUSH2 0x2217 JUMP JUMPDEST SWAP1 POP SWAP2 SWAP1 POP JUMP JUMPDEST PUSH1 0x0 PUSH2 0x2210 DUP3 PUSH2 0x21E9 JUMP JUMPDEST SWAP1 POP SWAP2 SWAP1 POP JUMP JUMPDEST PUSH1 0x0 PUSH2 0x2222 DUP3 PUSH2 0x2229 JUMP JUMPDEST SWAP1 POP SWAP2 SWAP1 POP JUMP JUMPDEST PUSH1 0x0 PUSH2 0x2234 DUP3 PUSH2 0x21C9 JUMP JUMPDEST SWAP1 POP SWAP2 SWAP1 POP JUMP JUMPDEST PUSH32 0x4E487B7100000000000000000000000000000000000000000000000000000000 PUSH1 0x0 MSTORE PUSH1 0x11 PUSH1 0x4 MSTORE PUSH1 0x24 PUSH1 0x0 REVERT JUMPDEST PUSH32 0x4E487B7100000000000000000000000000000000000000000000000000000000 PUSH1 0x0 MSTORE PUSH1 0x12 PUSH1 0x4 MSTORE PUSH1 0x24 PUSH1 0x0 REVERT JUMPDEST PUSH1 0x0 DUP1 REVERT JUMPDEST PUSH32 0x5061757361626C653A206E6F7420706175736564000000000000000000000000 PUSH1 0x0 DUP3 ADD MSTORE POP JUMP JUMPDEST PUSH32 0x4F776E61626C653A206E6577206F776E657220697320746865207A65726F2061 PUSH1 0x0 DUP3 ADD MSTORE PUSH32 0x6464726573730000000000000000000000000000000000000000000000000000 PUSH1 0x20 DUP3 ADD MSTORE POP JUMP JUMPDEST PUSH32 0x4465706F736974206E6F7420756E6C6F636B6564207965740000000000000000 PUSH1 0x0 DUP3 ADD MSTORE POP JUMP JUMPDEST PUSH32 0x5061757361626C653A2070617573656400000000000000000000000000000000 PUSH1 0x0 DUP3 ADD MSTORE POP JUMP JUMPDEST PUSH32 0x4F776E61626C653A2063616C6C6572206973206E6F7420746865206F776E6572 PUSH1 0x0 DUP3 ADD MSTORE POP JUMP JUMPDEST PUSH32 0x4E6F20616374697665206465706F736974000000000000000000000000000000 PUSH1 0x0 DUP3 ADD MSTORE POP JUMP JUMPDEST PUSH32 0x4E6F7420656E6F756768206465706F7369740000000000000000000000000000 PUSH1 0x0 DUP3 ADD MSTORE POP JUMP JUMPDEST PUSH2 0x23EC DUP2 PUSH2 0x21AB JUMP JUMPDEST DUP2 EQ PUSH2 0x23F7 JUMPI PUSH1 0x0 DUP1 REVERT JUMPDEST POP JUMP JUMPDEST PUSH2 0x2403 DUP2 PUSH2 0x21BD JUMP JUMPDEST DUP2 EQ PUSH2 0x240E JUMPI PUSH1 0x0 DUP1 REVERT JUMPDEST POP JUMP JUMPDEST PUSH2 0x241A DUP2 PUSH2 0x21E9 JUMP JUMPDEST DUP2 EQ PUSH2 0x2425 JUMPI PUSH1 0x0 DUP1 REVERT JUMPDEST POP JUMP INVALID LOG2 PUSH5 0x6970667358 0x22 SLT KECCAK256 KECCAK256 CALLDATACOPY DUP15 DUP4 SWAP16 EXTCODESIZE 0x1E PUSH3 0x400867 0xA6 0xDF PUSH10 0x27944BFDB14CAF04BED 0xE3 0x2D DIFFICULTY INVALID 0xA9 LOG4 GASPRICE 0xB7 PUSH5 0x736F6C6343 STOP ADDMOD SMOD STOP CALLER "
				},
				"gasEstimates": {
					"creation": {
						"codeDepositCost": "1862000",
						"executionCost": "infinite",
						"totalCost": "infinite"
					},
					"external": {
						"acceptedToken()": "2645",
						"calculateRewards(address,uint256)": "infinite",
						"changeLevelValues(uint256,uint256,uint256)": "infinite",
						"claim(uint256)": "infinite",
						"compound(uint256)": "infinite",
						"deposit(uint256,uint256)": "infinite",
						"getLevelsInfo()": "infinite",
						"getUserInfo(address)": "infinite",
						"levelInfo(uint256)": "infinite",
						"owner()": "2589",
						"pause()": "infinite",
						"paused()": "2596",
						"renounceOwnership()": "30485",
						"transferOwnership(address)": "30833",
						"unpause()": "infinite",
						"userLevelDeposit(address,uint256)": "infinite",
						"withdraw(uint256,uint256)": "infinite",
						"withdrawTokens()": "infinite"
					}
				},
				"methodIdentifiers": {
					"acceptedToken()": "451c3d80",
					"calculateRewards(address,uint256)": "beb8314c",
					"changeLevelValues(uint256,uint256,uint256)": "32e96203",
					"claim(uint256)": "379607f5",
					"compound(uint256)": "aa5f7e26",
					"deposit(uint256,uint256)": "e2bbb158",
					"getLevelsInfo()": "e788cee5",
					"getUserInfo(address)": "6386c1c7",
					"levelInfo(uint256)": "edf501ad",
					"owner()": "8da5cb5b",
					"pause()": "8456cb59",
					"paused()": "5c975abb",
					"renounceOwnership()": "715018a6",
					"transferOwnership(address)": "f2fde38b",
					"unpause()": "3f4ba83a",
					"userLevelDeposit(address,uint256)": "259ee752",
					"withdraw(uint256,uint256)": "441a3e70",
					"withdrawTokens()": "8d8f2adb"
				}
			},
			"storageLayout": {
				"storage": [
					{
						"astId": 7,
						"contract": "staking.sol:AcesStaking",
						"label": "_owner",
						"offset": 0,
						"slot": "0",
						"type": "t_address"
					},
					{
						"astId": 122,
						"contract": "staking.sol:AcesStaking",
						"label": "_paused",
						"offset": 20,
						"slot": "0",
						"type": "t_bool"
					},
					{
						"astId": 308,
						"contract": "staking.sol:AcesStaking",
						"label": "acceptedToken",
						"offset": 0,
						"slot": "1",
						"type": "t_contract(IERC20)274"
					},
					{
						"astId": 331,
						"contract": "staking.sol:AcesStaking",
						"label": "userLevelDeposit",
						"offset": 0,
						"slot": "2",
						"type": "t_mapping(t_address,t_mapping(t_uint256,t_struct(User)319_storage))"
					},
					{
						"astId": 336,
						"contract": "staking.sol:AcesStaking",
						"label": "levelInfo",
						"offset": 0,
						"slot": "3",
						"type": "t_mapping(t_uint256,t_struct(Level)324_storage)"
					}
				],
				"types": {
					"t_address": {
						"encoding": "inplace",
						"label": "address",
						"numberOfBytes": "20"
					},
					"t_bool": {
						"encoding": "inplace",
						"label": "bool",
						"numberOfBytes": "1"
					},
					"t_contract(IERC20)274": {
						"encoding": "inplace",
						"label": "contract IERC20",
						"numberOfBytes": "20"
					},
					"t_mapping(t_address,t_mapping(t_uint256,t_struct(User)319_storage))": {
						"encoding": "mapping",
						"key": "t_address",
						"label": "mapping(address => mapping(uint256 => struct AcesStaking.User))",
						"numberOfBytes": "32",
						"value": "t_mapping(t_uint256,t_struct(User)319_storage)"
					},
					"t_mapping(t_uint256,t_struct(Level)324_storage)": {
						"encoding": "mapping",
						"key": "t_uint256",
						"label": "mapping(uint256 => struct AcesStaking.Level)",
						"numberOfBytes": "32",
						"value": "t_struct(Level)324_storage"
					},
					"t_mapping(t_uint256,t_struct(User)319_storage)": {
						"encoding": "mapping",
						"key": "t_uint256",
						"label": "mapping(uint256 => struct AcesStaking.User)",
						"numberOfBytes": "32",
						"value": "t_struct(User)319_storage"
					},
					"t_struct(Level)324_storage": {
						"encoding": "inplace",
						"label": "struct AcesStaking.Level",
						"members": [
							{
								"astId": 321,
								"contract": "staking.sol:AcesStaking",
								"label": "APY",
								"offset": 0,
								"slot": "0",
								"type": "t_uint256"
							},
							{
								"astId": 323,
								"contract": "staking.sol:AcesStaking",
								"label": "lockPeriod",
								"offset": 0,
								"slot": "1",
								"type": "t_uint256"
							}
						],
						"numberOfBytes": "64"
					},
					"t_struct(User)319_storage": {
						"encoding": "inplace",
						"label": "struct AcesStaking.User",
						"members": [
							{
								"astId": 310,
								"contract": "staking.sol:AcesStaking",
								"label": "balance",
								"offset": 0,
								"slot": "0",
								"type": "t_uint256"
							},
							{
								"astId": 312,
								"contract": "staking.sol:AcesStaking",
								"label": "claimed",
								"offset": 0,
								"slot": "1",
								"type": "t_uint256"
							},
							{
								"astId": 314,
								"contract": "staking.sol:AcesStaking",
								"label": "started",
								"offset": 0,
								"slot": "2",
								"type": "t_uint256"
							},
							{
								"astId": 316,
								"contract": "staking.sol:AcesStaking",
								"label": "lastClaim",
								"offset": 0,
								"slot": "3",
								"type": "t_uint256"
							},
							{
								"astId": 318,
								"contract": "staking.sol:AcesStaking",
								"label": "unlockTime",
								"offset": 0,
								"slot": "4",
								"type": "t_uint256"
							}
						],
						"numberOfBytes": "160"
					},
					"t_uint256": {
						"encoding": "inplace",
						"label": "uint256",
						"numberOfBytes": "32"
					}
				}
			},
			"userdoc": {
				"kind": "user",
				"methods": {},
				"version": 1
			}
		}
	}
}