{
	"lotto.sol": {
		"ACELotto": {
			"abi": [
				{
					"inputs": [
						{
							"internalType": "address",
							"name": "_aces",
							"type": "address"
						}
					],
					"stateMutability": "nonpayable",
					"type": "constructor"
				},
				{
					"anonymous": false,
					"inputs": [
						{
							"indexed": false,
							"internalType": "address",
							"name": "winner",
							"type": "address"
						},
						{
							"indexed": false,
							"internalType": "uint256",
							"name": "amount",
							"type": "uint256"
						}
					],
					"name": "LotteryWon",
					"type": "event"
				},
				{
					"inputs": [],
					"name": "acesToken",
					"outputs": [
						{
							"internalType": "contract IERC20",
							"name": "",
							"type": "address"
						}
					],
					"stateMutability": "view",
					"type": "function"
				},
				{
					"inputs": [],
					"name": "currentJackpot",
					"outputs": [
						{
							"internalType": "uint256",
							"name": "",
							"type": "uint256"
						}
					],
					"stateMutability": "view",
					"type": "function"
				},
				{
					"inputs": [
						{
							"internalType": "address",
							"name": "",
							"type": "address"
						},
						{
							"internalType": "uint256",
							"name": "",
							"type": "uint256"
						}
					],
					"name": "entriesIndex",
					"outputs": [
						{
							"internalType": "uint256",
							"name": "",
							"type": "uint256"
						}
					],
					"stateMutability": "view",
					"type": "function"
				},
				{
					"inputs": [
						{
							"internalType": "uint256",
							"name": "",
							"type": "uint256"
						},
						{
							"internalType": "address",
							"name": "",
							"type": "address"
						}
					],
					"name": "entriesPerRound",
					"outputs": [
						{
							"internalType": "uint256",
							"name": "",
							"type": "uint256"
						}
					],
					"stateMutability": "view",
					"type": "function"
				},
				{
					"inputs": [
						{
							"internalType": "address",
							"name": "account",
							"type": "address"
						}
					],
					"name": "isActiveAccount",
					"outputs": [
						{
							"internalType": "bool",
							"name": "",
							"type": "bool"
						}
					],
					"stateMutability": "view",
					"type": "function"
				},
				{
					"inputs": [
						{
							"internalType": "address",
							"name": "account",
							"type": "address"
						}
					],
					"name": "removeAccount",
					"outputs": [],
					"stateMutability": "nonpayable",
					"type": "function"
				},
				{
					"inputs": [
						{
							"internalType": "address",
							"name": "account",
							"type": "address"
						},
						{
							"internalType": "uint256",
							"name": "amount",
							"type": "uint256"
						}
					],
					"name": "removeEntryFromWallet",
					"outputs": [],
					"stateMutability": "nonpayable",
					"type": "function"
				},
				{
					"inputs": [],
					"name": "roundEntries",
					"outputs": [
						{
							"internalType": "uint256",
							"name": "",
							"type": "uint256"
						}
					],
					"stateMutability": "view",
					"type": "function"
				},
				{
					"inputs": [
						{
							"internalType": "uint256",
							"name": "",
							"type": "uint256"
						}
					],
					"name": "roundEntry",
					"outputs": [
						{
							"internalType": "address",
							"name": "",
							"type": "address"
						}
					],
					"stateMutability": "view",
					"type": "function"
				},
				{
					"inputs": [],
					"name": "roundNum",
					"outputs": [
						{
							"internalType": "uint256",
							"name": "",
							"type": "uint256"
						}
					],
					"stateMutability": "view",
					"type": "function"
				},
				{
					"inputs": [
						{
							"internalType": "uint256",
							"name": "",
							"type": "uint256"
						}
					],
					"name": "roundResults",
					"outputs": [
						{
							"internalType": "uint256",
							"name": "totalEntries",
							"type": "uint256"
						},
						{
							"internalType": "uint256",
							"name": "winningNumber",
							"type": "uint256"
						},
						{
							"internalType": "uint256",
							"name": "payout",
							"type": "uint256"
						},
						{
							"internalType": "uint256",
							"name": "endTime",
							"type": "uint256"
						},
						{
							"internalType": "address",
							"name": "winningAddress",
							"type": "address"
						}
					],
					"stateMutability": "view",
					"type": "function"
				},
				{
					"inputs": [],
					"name": "totalPayout",
					"outputs": [
						{
							"internalType": "uint256",
							"name": "",
							"type": "uint256"
						}
					],
					"stateMutability": "view",
					"type": "function"
				},
				{
					"inputs": [
						{
							"internalType": "address",
							"name": "account",
							"type": "address"
						},
						{
							"internalType": "uint256",
							"name": "amount",
							"type": "uint256"
						}
					],
					"name": "updateAccount",
					"outputs": [],
					"stateMutability": "nonpayable",
					"type": "function"
				}
			],
			"devdoc": {
				"kind": "dev",
				"methods": {},
				"version": 1
			},
			"evm": {
				"assembly": "    /* \"lotto.sol\":488:1963  contract ACELotto {   \r... */\n  mstore(0x40, 0x80)\n    /* \"lotto.sol\":1167:1237  constructor(address _aces){\r... */\n  callvalue\n  dup1\n  iszero\n  tag_1\n  jumpi\n  0x00\n  dup1\n  revert\ntag_1:\n  pop\n  mload(0x40)\n  sub(codesize, bytecodeSize)\n  dup1\n  bytecodeSize\n  dup4\n  codecopy\n  dup2\n  dup2\n  add\n  0x40\n  mstore\n  dup2\n  add\n  swap1\n  tag_2\n  swap2\n  swap1\n  tag_3\n  jump\t// in\ntag_2:\n    /* \"lotto.sol\":1223:1228  _aces */\n  dup1\n    /* \"lotto.sol\":1204:1213  acesToken */\n  0x04\n  0x00\n    /* \"lotto.sol\":1204:1229  acesToken = IERC20(_aces) */\n  0x0100\n  exp\n  dup2\n  sload\n  dup2\n  0xffffffffffffffffffffffffffffffffffffffff\n  mul\n  not\n  and\n  swap1\n  dup4\n  0xffffffffffffffffffffffffffffffffffffffff\n  and\n  mul\n  or\n  swap1\n  sstore\n  pop\n    /* \"lotto.sol\":1167:1237  constructor(address _aces){\r... */\n  pop\n    /* \"lotto.sol\":488:1963  contract ACELotto {   \r... */\n  jump(tag_6)\n    /* \"#utility.yul\":7:150   */\ntag_8:\n    /* \"#utility.yul\":64:69   */\n  0x00\n    /* \"#utility.yul\":95:101   */\n  dup2\n    /* \"#utility.yul\":89:102   */\n  mload\n    /* \"#utility.yul\":80:102   */\n  swap1\n  pop\n    /* \"#utility.yul\":111:144   */\n  tag_10\n    /* \"#utility.yul\":138:143   */\n  dup2\n    /* \"#utility.yul\":111:144   */\n  tag_11\n  jump\t// in\ntag_10:\n    /* \"#utility.yul\":7:150   */\n  swap3\n  swap2\n  pop\n  pop\n  jump\t// out\n    /* \"#utility.yul\":156:507   */\ntag_3:\n    /* \"#utility.yul\":226:232   */\n  0x00\n    /* \"#utility.yul\":275:277   */\n  0x20\n    /* \"#utility.yul\":263:272   */\n  dup3\n    /* \"#utility.yul\":254:261   */\n  dup5\n    /* \"#utility.yul\":250:273   */\n  sub\n    /* \"#utility.yul\":246:278   */\n  slt\n    /* \"#utility.yul\":243:362   */\n  iszero\n  tag_13\n  jumpi\n    /* \"#utility.yul\":281:360   */\n  tag_14\n  tag_15\n  jump\t// in\ntag_14:\n    /* \"#utility.yul\":243:362   */\ntag_13:\n    /* \"#utility.yul\":401:402   */\n  0x00\n    /* \"#utility.yul\":426:490   */\n  tag_16\n    /* \"#utility.yul\":482:489   */\n  dup5\n    /* \"#utility.yul\":473:479   */\n  dup3\n    /* \"#utility.yul\":462:471   */\n  dup6\n    /* \"#utility.yul\":458:480   */\n  add\n    /* \"#utility.yul\":426:490   */\n  tag_8\n  jump\t// in\ntag_16:\n    /* \"#utility.yul\":416:490   */\n  swap2\n  pop\n    /* \"#utility.yul\":372:500   */\n  pop\n    /* \"#utility.yul\":156:507   */\n  swap3\n  swap2\n  pop\n  pop\n  jump\t// out\n    /* \"#utility.yul\":594:690   */\ntag_19:\n    /* \"#utility.yul\":631:638   */\n  0x00\n    /* \"#utility.yul\":660:684   */\n  tag_21\n    /* \"#utility.yul\":678:683   */\n  dup3\n    /* \"#utility.yul\":660:684   */\n  tag_22\n  jump\t// in\ntag_21:\n    /* \"#utility.yul\":649:684   */\n  swap1\n  pop\n    /* \"#utility.yul\":594:690   */\n  swap2\n  swap1\n  pop\n  jump\t// out\n    /* \"#utility.yul\":696:822   */\ntag_22:\n    /* \"#utility.yul\":733:740   */\n  0x00\n    /* \"#utility.yul\":773:815   */\n  0xffffffffffffffffffffffffffffffffffffffff\n    /* \"#utility.yul\":766:771   */\n  dup3\n    /* \"#utility.yul\":762:816   */\n  and\n    /* \"#utility.yul\":751:816   */\n  swap1\n  pop\n    /* \"#utility.yul\":696:822   */\n  swap2\n  swap1\n  pop\n  jump\t// out\n    /* \"#utility.yul\":951:1068   */\ntag_15:\n    /* \"#utility.yul\":1060:1061   */\n  0x00\n    /* \"#utility.yul\":1057:1058   */\n  dup1\n    /* \"#utility.yul\":1050:1062   */\n  revert\n    /* \"#utility.yul\":1074:1196   */\ntag_11:\n    /* \"#utility.yul\":1147:1171   */\n  tag_28\n    /* \"#utility.yul\":1165:1170   */\n  dup2\n    /* \"#utility.yul\":1147:1171   */\n  tag_19\n  jump\t// in\ntag_28:\n    /* \"#utility.yul\":1140:1145   */\n  dup2\n    /* \"#utility.yul\":1137:1172   */\n  eq\n    /* \"#utility.yul\":1127:1190   */\n  tag_29\n  jumpi\n    /* \"#utility.yul\":1186:1187   */\n  0x00\n    /* \"#utility.yul\":1183:1184   */\n  dup1\n    /* \"#utility.yul\":1176:1188   */\n  revert\n    /* \"#utility.yul\":1127:1190   */\ntag_29:\n    /* \"#utility.yul\":1074:1196   */\n  pop\n  jump\t// out\n    /* \"lotto.sol\":488:1963  contract ACELotto {   \r... */\ntag_6:\n  dataSize(sub_0)\n  dup1\n  dataOffset(sub_0)\n  0x00\n  codecopy\n  0x00\n  return\nstop\n\nsub_0: assembly {\n        /* \"lotto.sol\":488:1963  contract ACELotto {   \r... */\n      mstore(0x40, 0x80)\n      callvalue\n      dup1\n      iszero\n      tag_1\n      jumpi\n      0x00\n      dup1\n      revert\n    tag_1:\n      pop\n      jumpi(tag_2, lt(calldatasize, 0x04))\n      shr(0xe0, calldataload(0x00))\n      dup1\n      0x76636d20\n      gt\n      tag_16\n      jumpi\n      dup1\n      0xac128f4f\n      gt\n      tag_17\n      jumpi\n      dup1\n      0xac128f4f\n      eq\n      tag_12\n      jumpi\n      dup1\n      0xb657dd65\n      eq\n      tag_13\n      jumpi\n      dup1\n      0xc4740a95\n      eq\n      tag_14\n      jumpi\n      dup1\n      0xf9cee0bd\n      eq\n      tag_15\n      jumpi\n      jump(tag_2)\n    tag_17:\n      dup1\n      0x76636d20\n      eq\n      tag_9\n      jumpi\n      dup1\n      0x9b3e4552\n      eq\n      tag_10\n      jumpi\n      dup1\n      0xa59460dc\n      eq\n      tag_11\n      jumpi\n      jump(tag_2)\n    tag_16:\n      dup1\n      0x0d988270\n      eq\n      tag_3\n      jumpi\n      dup1\n      0x119b22b3\n      eq\n      tag_4\n      jumpi\n      dup1\n      0x443b80a1\n      eq\n      tag_5\n      jumpi\n      dup1\n      0x454f7b8f\n      eq\n      tag_6\n      jumpi\n      dup1\n      0x578e3f88\n      eq\n      tag_7\n      jumpi\n      dup1\n      0x5bedc390\n      eq\n      tag_8\n      jumpi\n    tag_2:\n      0x00\n      dup1\n      revert\n        /* \"lotto.sol\":1052:1101  mapping(address => uint256[]) public entriesIndex */\n    tag_3:\n      tag_18\n      0x04\n      dup1\n      calldatasize\n      sub\n      dup2\n      add\n      swap1\n      tag_19\n      swap2\n      swap1\n      tag_20\n      jump\t// in\n    tag_19:\n      tag_21\n      jump\t// in\n    tag_18:\n      mload(0x40)\n      tag_22\n      swap2\n      swap1\n      tag_23\n      jump\t// in\n    tag_22:\n      mload(0x40)\n      dup1\n      swap2\n      sub\n      swap1\n      return\n        /* \"lotto.sol\":586:609  uint256 public roundNum */\n    tag_4:\n      tag_24\n      tag_25\n      jump\t// in\n    tag_24:\n      mload(0x40)\n      tag_26\n      swap2\n      swap1\n      tag_23\n      jump\t// in\n    tag_26:\n      mload(0x40)\n      dup1\n      swap2\n      sub\n      swap1\n      return\n        /* \"lotto.sol\":1245:1580  function updateAccount(address account, uint256 amount) external{\r... */\n    tag_5:\n      tag_27\n      0x04\n      dup1\n      calldatasize\n      sub\n      dup2\n      add\n      swap1\n      tag_28\n      swap2\n      swap1\n      tag_20\n      jump\t// in\n    tag_28:\n      tag_29\n      jump\t// in\n    tag_27:\n      stop\n        /* \"lotto.sol\":616:642  uint256 public totalPayout */\n    tag_6:\n      tag_30\n      tag_31\n      jump\t// in\n    tag_30:\n      mload(0x40)\n      tag_32\n      swap2\n      swap1\n      tag_23\n      jump\t// in\n    tag_32:\n      mload(0x40)\n      dup1\n      swap2\n      sub\n      swap1\n      return\n        /* \"lotto.sol\":975:1045  mapping(uint256 => mapping(address => uint256)) public entriesPerRound */\n    tag_7:\n      tag_33\n      0x04\n      dup1\n      calldatasize\n      sub\n      dup2\n      add\n      swap1\n      tag_34\n      swap2\n      swap1\n      tag_35\n      jump\t// in\n    tag_34:\n      tag_36\n      jump\t// in\n    tag_33:\n      mload(0x40)\n      tag_37\n      swap2\n      swap1\n      tag_23\n      jump\t// in\n    tag_37:\n      mload(0x40)\n      dup1\n      swap2\n      sub\n      swap1\n      return\n        /* \"lotto.sol\":1791:1960  function isActiveAccount(address account) external view returns(bool){\r... */\n    tag_8:\n      tag_38\n      0x04\n      dup1\n      calldatasize\n      sub\n      dup2\n      add\n      swap1\n      tag_39\n      swap2\n      swap1\n      tag_40\n      jump\t// in\n    tag_39:\n      tag_41\n      jump\t// in\n    tag_38:\n      mload(0x40)\n      tag_42\n      swap2\n      swap1\n      tag_43\n      jump\t// in\n    tag_42:\n      mload(0x40)\n      dup1\n      swap2\n      sub\n      swap1\n      return\n        /* \"lotto.sol\":552:579  uint256 public roundEntries */\n    tag_9:\n      tag_44\n      tag_45\n      jump\t// in\n    tag_44:\n      mload(0x40)\n      tag_46\n      swap2\n      swap1\n      tag_23\n      jump\t// in\n    tag_46:\n      mload(0x40)\n      dup1\n      swap2\n      sub\n      swap1\n      return\n        /* \"lotto.sol\":655:678  IERC20 public acesToken */\n    tag_10:\n      tag_47\n      tag_48\n      jump\t// in\n    tag_47:\n      mload(0x40)\n      tag_49\n      swap2\n      swap1\n      tag_50\n      jump\t// in\n    tag_49:\n      mload(0x40)\n      dup1\n      swap2\n      sub\n      swap1\n      return\n        /* \"lotto.sol\":1588:1670  function removeEntryFromWallet(address account, uint256 amount) external{\r... */\n    tag_11:\n      tag_51\n      0x04\n      dup1\n      calldatasize\n      sub\n      dup2\n      add\n      swap1\n      tag_52\n      swap2\n      swap1\n      tag_20\n      jump\t// in\n    tag_52:\n      tag_53\n      jump\t// in\n    tag_51:\n      stop\n        /* \"lotto.sol\":869:916  mapping(uint256 => Results) public roundResults */\n    tag_12:\n      tag_54\n      0x04\n      dup1\n      calldatasize\n      sub\n      dup2\n      add\n      swap1\n      tag_55\n      swap2\n      swap1\n      tag_56\n      jump\t// in\n    tag_55:\n      tag_57\n      jump\t// in\n    tag_54:\n      mload(0x40)\n      tag_58\n      swap6\n      swap5\n      swap4\n      swap3\n      swap2\n      swap1\n      tag_59\n      jump\t// in\n    tag_58:\n      mload(0x40)\n      dup1\n      swap2\n      sub\n      swap1\n      return\n        /* \"lotto.sol\":923:968  mapping(uint256 => address) public roundEntry */\n    tag_13:\n      tag_60\n      0x04\n      dup1\n      calldatasize\n      sub\n      dup2\n      add\n      swap1\n      tag_61\n      swap2\n      swap1\n      tag_56\n      jump\t// in\n    tag_61:\n      tag_62\n      jump\t// in\n    tag_60:\n      mload(0x40)\n      tag_63\n      swap2\n      swap1\n      tag_64\n      jump\t// in\n    tag_63:\n      mload(0x40)\n      dup1\n      swap2\n      sub\n      swap1\n      return\n        /* \"lotto.sol\":1678:1783  function removeAccount(address account) external{\r... */\n    tag_14:\n      tag_65\n      0x04\n      dup1\n      calldatasize\n      sub\n      dup2\n      add\n      swap1\n      tag_66\n      swap2\n      swap1\n      tag_40\n      jump\t// in\n    tag_66:\n      tag_67\n      jump\t// in\n    tag_65:\n      stop\n        /* \"lotto.sol\":516:545  uint256 public currentJackpot */\n    tag_15:\n      tag_68\n      tag_69\n      jump\t// in\n    tag_68:\n      mload(0x40)\n      tag_70\n      swap2\n      swap1\n      tag_23\n      jump\t// in\n    tag_70:\n      mload(0x40)\n      dup1\n      swap2\n      sub\n      swap1\n      return\n        /* \"lotto.sol\":1052:1101  mapping(address => uint256[]) public entriesIndex */\n    tag_21:\n      mstore(0x20, 0x08)\n      dup2\n      0x00\n      mstore\n      keccak256(0x00, 0x40)\n      dup2\n      dup2\n      sload\n      dup2\n      lt\n      tag_71\n      jumpi\n      0x00\n      dup1\n      revert\n    tag_71:\n      swap1\n      0x00\n      mstore\n      keccak256(0x00, 0x20)\n      add\n      0x00\n      swap2\n      pop\n      swap2\n      pop\n      pop\n      sload\n      dup2\n      jump\t// out\n        /* \"lotto.sol\":586:609  uint256 public roundNum */\n    tag_25:\n      sload(0x02)\n      dup2\n      jump\t// out\n        /* \"lotto.sol\":1245:1580  function updateAccount(address account, uint256 amount) external{\r... */\n    tag_29:\n        /* \"lotto.sol\":1324:1333  uint256 i */\n      0x00\n        /* \"lotto.sol\":1320:1475  for(uint256 i; i < amount; i++){\r... */\n    tag_74:\n        /* \"lotto.sol\":1339:1345  amount */\n      dup2\n        /* \"lotto.sol\":1335:1336  i */\n      dup2\n        /* \"lotto.sol\":1335:1345  i < amount */\n      lt\n        /* \"lotto.sol\":1320:1475  for(uint256 i; i < amount; i++){\r... */\n      iszero\n      tag_75\n      jumpi\n        /* \"lotto.sol\":1397:1404  account */\n      dup3\n        /* \"lotto.sol\":1366:1376  roundEntry */\n      0x06\n        /* \"lotto.sol\":1366:1394  roundEntry[roundEntries + i] */\n      0x00\n        /* \"lotto.sol\":1392:1393  i */\n      dup4\n        /* \"lotto.sol\":1377:1389  roundEntries */\n      sload(0x01)\n        /* \"lotto.sol\":1377:1393  roundEntries + i */\n      tag_77\n      swap2\n      swap1\n      tag_78\n      jump\t// in\n    tag_77:\n        /* \"lotto.sol\":1366:1394  roundEntry[roundEntries + i] */\n      dup2\n      mstore\n      0x20\n      add\n      swap1\n      dup2\n      mstore\n      0x20\n      add\n      0x00\n      keccak256\n      0x00\n        /* \"lotto.sol\":1366:1404  roundEntry[roundEntries + i] = account */\n      0x0100\n      exp\n      dup2\n      sload\n      dup2\n      0xffffffffffffffffffffffffffffffffffffffff\n      mul\n      not\n      and\n      swap1\n      dup4\n      0xffffffffffffffffffffffffffffffffffffffff\n      and\n      mul\n      or\n      swap1\n      sstore\n      pop\n        /* \"lotto.sol\":1419:1431  entriesIndex */\n      0x08\n        /* \"lotto.sol\":1419:1440  entriesIndex[account] */\n      0x00\n        /* \"lotto.sol\":1432:1439  account */\n      dup5\n        /* \"lotto.sol\":1419:1440  entriesIndex[account] */\n      0xffffffffffffffffffffffffffffffffffffffff\n      and\n      0xffffffffffffffffffffffffffffffffffffffff\n      and\n      dup2\n      mstore\n      0x20\n      add\n      swap1\n      dup2\n      mstore\n      0x20\n      add\n      0x00\n      keccak256\n        /* \"lotto.sol\":1461:1462  i */\n      dup2\n        /* \"lotto.sol\":1446:1458  roundEntries */\n      sload(0x01)\n        /* \"lotto.sol\":1446:1462  roundEntries + i */\n      tag_79\n      swap2\n      swap1\n      tag_78\n      jump\t// in\n    tag_79:\n        /* \"lotto.sol\":1419:1463  entriesIndex[account].push(roundEntries + i) */\n      swap1\n      dup1\n      0x01\n      dup2\n      sload\n      add\n      dup1\n      dup3\n      sstore\n      dup1\n      swap2\n      pop\n      pop\n      0x01\n      swap1\n      sub\n      swap1\n      0x00\n      mstore\n      keccak256(0x00, 0x20)\n      add\n      0x00\n      swap1\n      swap2\n      swap1\n      swap2\n      swap1\n      swap2\n      pop\n      sstore\n        /* \"lotto.sol\":1347:1350  i++ */\n      dup1\n      dup1\n      tag_81\n      swap1\n      tag_82\n      jump\t// in\n    tag_81:\n      swap2\n      pop\n      pop\n        /* \"lotto.sol\":1320:1475  for(uint256 i; i < amount; i++){\r... */\n      jump(tag_74)\n    tag_75:\n      pop\n        /* \"lotto.sol\":1533:1539  amount */\n      dup1\n        /* \"lotto.sol\":1495:1510  entriesPerRound */\n      0x07\n        /* \"lotto.sol\":1495:1520  entriesPerRound[roundNum] */\n      0x00\n        /* \"lotto.sol\":1511:1519  roundNum */\n      sload(0x02)\n        /* \"lotto.sol\":1495:1520  entriesPerRound[roundNum] */\n      dup2\n      mstore\n      0x20\n      add\n      swap1\n      dup2\n      mstore\n      0x20\n      add\n      0x00\n      keccak256\n        /* \"lotto.sol\":1495:1529  entriesPerRound[roundNum][account] */\n      0x00\n        /* \"lotto.sol\":1521:1528  account */\n      dup5\n        /* \"lotto.sol\":1495:1529  entriesPerRound[roundNum][account] */\n      0xffffffffffffffffffffffffffffffffffffffff\n      and\n      0xffffffffffffffffffffffffffffffffffffffff\n      and\n      dup2\n      mstore\n      0x20\n      add\n      swap1\n      dup2\n      mstore\n      0x20\n      add\n      0x00\n      keccak256\n      0x00\n        /* \"lotto.sol\":1495:1539  entriesPerRound[roundNum][account] += amount */\n      dup3\n      dup3\n      sload\n      tag_83\n      swap2\n      swap1\n      tag_78\n      jump\t// in\n    tag_83:\n      swap3\n      pop\n      pop\n      dup2\n      swap1\n      sstore\n      pop\n        /* \"lotto.sol\":1566:1572  amount */\n      dup1\n        /* \"lotto.sol\":1550:1562  roundEntries */\n      0x01\n      0x00\n        /* \"lotto.sol\":1550:1572  roundEntries += amount */\n      dup3\n      dup3\n      sload\n      tag_84\n      swap2\n      swap1\n      tag_78\n      jump\t// in\n    tag_84:\n      swap3\n      pop\n      pop\n      dup2\n      swap1\n      sstore\n      pop\n        /* \"lotto.sol\":1245:1580  function updateAccount(address account, uint256 amount) external{\r... */\n      pop\n      pop\n      jump\t// out\n        /* \"lotto.sol\":616:642  uint256 public totalPayout */\n    tag_31:\n      sload(0x03)\n      dup2\n      jump\t// out\n        /* \"lotto.sol\":975:1045  mapping(uint256 => mapping(address => uint256)) public entriesPerRound */\n    tag_36:\n      mstore(0x20, 0x07)\n      dup2\n      0x00\n      mstore\n      mstore(0x20, keccak256(0x00, 0x40))\n      dup1\n      0x00\n      mstore\n      keccak256(0x00, 0x40)\n      0x00\n      swap2\n      pop\n      swap2\n      pop\n      pop\n      sload\n      dup2\n      jump\t// out\n        /* \"lotto.sol\":1791:1960  function isActiveAccount(address account) external view returns(bool){\r... */\n    tag_41:\n        /* \"lotto.sol\":1855:1859  bool */\n      0x00\n        /* \"lotto.sol\":1871:1886  uint256 entries */\n      dup1\n        /* \"lotto.sol\":1889:1904  entriesPerRound */\n      0x07\n        /* \"lotto.sol\":1889:1914  entriesPerRound[roundNum] */\n      0x00\n        /* \"lotto.sol\":1905:1913  roundNum */\n      sload(0x02)\n        /* \"lotto.sol\":1889:1914  entriesPerRound[roundNum] */\n      dup2\n      mstore\n      0x20\n      add\n      swap1\n      dup2\n      mstore\n      0x20\n      add\n      0x00\n      keccak256\n        /* \"lotto.sol\":1889:1923  entriesPerRound[roundNum][account] */\n      0x00\n        /* \"lotto.sol\":1915:1922  account */\n      dup5\n        /* \"lotto.sol\":1889:1923  entriesPerRound[roundNum][account] */\n      0xffffffffffffffffffffffffffffffffffffffff\n      and\n      0xffffffffffffffffffffffffffffffffffffffff\n      and\n      dup2\n      mstore\n      0x20\n      add\n      swap1\n      dup2\n      mstore\n      0x20\n      add\n      0x00\n      keccak256\n      sload\n        /* \"lotto.sol\":1871:1923  uint256 entries = entriesPerRound[roundNum][account] */\n      swap1\n      pop\n        /* \"lotto.sol\":1951:1952  0 */\n      0x00\n        /* \"lotto.sol\":1941:1948  entries */\n      dup2\n        /* \"lotto.sol\":1941:1952  entries > 0 */\n      gt\n        /* \"lotto.sol\":1934:1952  return entries > 0 */\n      swap2\n      pop\n      pop\n        /* \"lotto.sol\":1791:1960  function isActiveAccount(address account) external view returns(bool){\r... */\n      swap2\n      swap1\n      pop\n      jump\t// out\n        /* \"lotto.sol\":552:579  uint256 public roundEntries */\n    tag_45:\n      sload(0x01)\n      dup2\n      jump\t// out\n        /* \"lotto.sol\":655:678  IERC20 public acesToken */\n    tag_48:\n      0x04\n      0x00\n      swap1\n      sload\n      swap1\n      0x0100\n      exp\n      swap1\n      div\n      0xffffffffffffffffffffffffffffffffffffffff\n      and\n      dup2\n      jump\t// out\n        /* \"lotto.sol\":1588:1670  function removeEntryFromWallet(address account, uint256 amount) external{\r... */\n    tag_53:\n      pop\n      pop\n      jump\t// out\n        /* \"lotto.sol\":869:916  mapping(uint256 => Results) public roundResults */\n    tag_57:\n      mstore(0x20, 0x05)\n      dup1\n      0x00\n      mstore\n      keccak256(0x00, 0x40)\n      0x00\n      swap2\n      pop\n      swap1\n      pop\n      dup1\n      0x00\n      add\n      sload\n      swap1\n      dup1\n      0x01\n      add\n      sload\n      swap1\n      dup1\n      0x02\n      add\n      sload\n      swap1\n      dup1\n      0x03\n      add\n      sload\n      swap1\n      dup1\n      0x04\n      add\n      0x00\n      swap1\n      sload\n      swap1\n      0x0100\n      exp\n      swap1\n      div\n      0xffffffffffffffffffffffffffffffffffffffff\n      and\n      swap1\n      pop\n      dup6\n      jump\t// out\n        /* \"lotto.sol\":923:968  mapping(uint256 => address) public roundEntry */\n    tag_62:\n      mstore(0x20, 0x06)\n      dup1\n      0x00\n      mstore\n      keccak256(0x00, 0x40)\n      0x00\n      swap2\n      pop\n      sload\n      swap1\n      0x0100\n      exp\n      swap1\n      div\n      0xffffffffffffffffffffffffffffffffffffffff\n      and\n      dup2\n      jump\t// out\n        /* \"lotto.sol\":1678:1783  function removeAccount(address account) external{\r... */\n    tag_67:\n        /* \"lotto.sol\":1774:1775  0 */\n      0x00\n        /* \"lotto.sol\":1737:1752  entriesPerRound */\n      0x07\n        /* \"lotto.sol\":1737:1762  entriesPerRound[roundNum] */\n      0x00\n        /* \"lotto.sol\":1753:1761  roundNum */\n      sload(0x02)\n        /* \"lotto.sol\":1737:1762  entriesPerRound[roundNum] */\n      dup2\n      mstore\n      0x20\n      add\n      swap1\n      dup2\n      mstore\n      0x20\n      add\n      0x00\n      keccak256\n        /* \"lotto.sol\":1737:1771  entriesPerRound[roundNum][account] */\n      0x00\n        /* \"lotto.sol\":1763:1770  account */\n      dup4\n        /* \"lotto.sol\":1737:1771  entriesPerRound[roundNum][account] */\n      0xffffffffffffffffffffffffffffffffffffffff\n      and\n      0xffffffffffffffffffffffffffffffffffffffff\n      and\n      dup2\n      mstore\n      0x20\n      add\n      swap1\n      dup2\n      mstore\n      0x20\n      add\n      0x00\n      keccak256\n        /* \"lotto.sol\":1737:1775  entriesPerRound[roundNum][account] = 0 */\n      dup2\n      swap1\n      sstore\n      pop\n        /* \"lotto.sol\":1678:1783  function removeAccount(address account) external{\r... */\n      pop\n      jump\t// out\n        /* \"lotto.sol\":516:545  uint256 public currentJackpot */\n    tag_69:\n      sload(0x00)\n      dup2\n      jump\t// out\n        /* \"#utility.yul\":7:146   */\n    tag_89:\n        /* \"#utility.yul\":53:58   */\n      0x00\n        /* \"#utility.yul\":91:97   */\n      dup2\n        /* \"#utility.yul\":78:98   */\n      calldataload\n        /* \"#utility.yul\":69:98   */\n      swap1\n      pop\n        /* \"#utility.yul\":107:140   */\n      tag_91\n        /* \"#utility.yul\":134:139   */\n      dup2\n        /* \"#utility.yul\":107:140   */\n      tag_92\n      jump\t// in\n    tag_91:\n        /* \"#utility.yul\":7:146   */\n      swap3\n      swap2\n      pop\n      pop\n      jump\t// out\n        /* \"#utility.yul\":152:291   */\n    tag_93:\n        /* \"#utility.yul\":198:203   */\n      0x00\n        /* \"#utility.yul\":236:242   */\n      dup2\n        /* \"#utility.yul\":223:243   */\n      calldataload\n        /* \"#utility.yul\":214:243   */\n      swap1\n      pop\n        /* \"#utility.yul\":252:285   */\n      tag_95\n        /* \"#utility.yul\":279:284   */\n      dup2\n        /* \"#utility.yul\":252:285   */\n      tag_96\n      jump\t// in\n    tag_95:\n        /* \"#utility.yul\":152:291   */\n      swap3\n      swap2\n      pop\n      pop\n      jump\t// out\n        /* \"#utility.yul\":297:626   */\n    tag_40:\n        /* \"#utility.yul\":356:362   */\n      0x00\n        /* \"#utility.yul\":405:407   */\n      0x20\n        /* \"#utility.yul\":393:402   */\n      dup3\n        /* \"#utility.yul\":384:391   */\n      dup5\n        /* \"#utility.yul\":380:403   */\n      sub\n        /* \"#utility.yul\":376:408   */\n      slt\n        /* \"#utility.yul\":373:492   */\n      iszero\n      tag_98\n      jumpi\n        /* \"#utility.yul\":411:490   */\n      tag_99\n      tag_100\n      jump\t// in\n    tag_99:\n        /* \"#utility.yul\":373:492   */\n    tag_98:\n        /* \"#utility.yul\":531:532   */\n      0x00\n        /* \"#utility.yul\":556:609   */\n      tag_101\n        /* \"#utility.yul\":601:608   */\n      dup5\n        /* \"#utility.yul\":592:598   */\n      dup3\n        /* \"#utility.yul\":581:590   */\n      dup6\n        /* \"#utility.yul\":577:599   */\n      add\n        /* \"#utility.yul\":556:609   */\n      tag_89\n      jump\t// in\n    tag_101:\n        /* \"#utility.yul\":546:609   */\n      swap2\n      pop\n        /* \"#utility.yul\":502:619   */\n      pop\n        /* \"#utility.yul\":297:626   */\n      swap3\n      swap2\n      pop\n      pop\n      jump\t// out\n        /* \"#utility.yul\":632:1106   */\n    tag_20:\n        /* \"#utility.yul\":700:706   */\n      0x00\n        /* \"#utility.yul\":708:714   */\n      dup1\n        /* \"#utility.yul\":757:759   */\n      0x40\n        /* \"#utility.yul\":745:754   */\n      dup4\n        /* \"#utility.yul\":736:743   */\n      dup6\n        /* \"#utility.yul\":732:755   */\n      sub\n        /* \"#utility.yul\":728:760   */\n      slt\n        /* \"#utility.yul\":725:844   */\n      iszero\n      tag_103\n      jumpi\n        /* \"#utility.yul\":763:842   */\n      tag_104\n      tag_100\n      jump\t// in\n    tag_104:\n        /* \"#utility.yul\":725:844   */\n    tag_103:\n        /* \"#utility.yul\":883:884   */\n      0x00\n        /* \"#utility.yul\":908:961   */\n      tag_105\n        /* \"#utility.yul\":953:960   */\n      dup6\n        /* \"#utility.yul\":944:950   */\n      dup3\n        /* \"#utility.yul\":933:942   */\n      dup7\n        /* \"#utility.yul\":929:951   */\n      add\n        /* \"#utility.yul\":908:961   */\n      tag_89\n      jump\t// in\n    tag_105:\n        /* \"#utility.yul\":898:961   */\n      swap3\n      pop\n        /* \"#utility.yul\":854:971   */\n      pop\n        /* \"#utility.yul\":1010:1012   */\n      0x20\n        /* \"#utility.yul\":1036:1089   */\n      tag_106\n        /* \"#utility.yul\":1081:1088   */\n      dup6\n        /* \"#utility.yul\":1072:1078   */\n      dup3\n        /* \"#utility.yul\":1061:1070   */\n      dup7\n        /* \"#utility.yul\":1057:1079   */\n      add\n        /* \"#utility.yul\":1036:1089   */\n      tag_93\n      jump\t// in\n    tag_106:\n        /* \"#utility.yul\":1026:1089   */\n      swap2\n      pop\n        /* \"#utility.yul\":981:1099   */\n      pop\n        /* \"#utility.yul\":632:1106   */\n      swap3\n      pop\n      swap3\n      swap1\n      pop\n      jump\t// out\n        /* \"#utility.yul\":1112:1441   */\n    tag_56:\n        /* \"#utility.yul\":1171:1177   */\n      0x00\n        /* \"#utility.yul\":1220:1222   */\n      0x20\n        /* \"#utility.yul\":1208:1217   */\n      dup3\n        /* \"#utility.yul\":1199:1206   */\n      dup5\n        /* \"#utility.yul\":1195:1218   */\n      sub\n        /* \"#utility.yul\":1191:1223   */\n      slt\n        /* \"#utility.yul\":1188:1307   */\n      iszero\n      tag_108\n      jumpi\n        /* \"#utility.yul\":1226:1305   */\n      tag_109\n      tag_100\n      jump\t// in\n    tag_109:\n        /* \"#utility.yul\":1188:1307   */\n    tag_108:\n        /* \"#utility.yul\":1346:1347   */\n      0x00\n        /* \"#utility.yul\":1371:1424   */\n      tag_110\n        /* \"#utility.yul\":1416:1423   */\n      dup5\n        /* \"#utility.yul\":1407:1413   */\n      dup3\n        /* \"#utility.yul\":1396:1405   */\n      dup6\n        /* \"#utility.yul\":1392:1414   */\n      add\n        /* \"#utility.yul\":1371:1424   */\n      tag_93\n      jump\t// in\n    tag_110:\n        /* \"#utility.yul\":1361:1424   */\n      swap2\n      pop\n        /* \"#utility.yul\":1317:1434   */\n      pop\n        /* \"#utility.yul\":1112:1441   */\n      swap3\n      swap2\n      pop\n      pop\n      jump\t// out\n        /* \"#utility.yul\":1447:1921   */\n    tag_35:\n        /* \"#utility.yul\":1515:1521   */\n      0x00\n        /* \"#utility.yul\":1523:1529   */\n      dup1\n        /* \"#utility.yul\":1572:1574   */\n      0x40\n        /* \"#utility.yul\":1560:1569   */\n      dup4\n        /* \"#utility.yul\":1551:1558   */\n      dup6\n        /* \"#utility.yul\":1547:1570   */\n      sub\n        /* \"#utility.yul\":1543:1575   */\n      slt\n        /* \"#utility.yul\":1540:1659   */\n      iszero\n      tag_112\n      jumpi\n        /* \"#utility.yul\":1578:1657   */\n      tag_113\n      tag_100\n      jump\t// in\n    tag_113:\n        /* \"#utility.yul\":1540:1659   */\n    tag_112:\n        /* \"#utility.yul\":1698:1699   */\n      0x00\n        /* \"#utility.yul\":1723:1776   */\n      tag_114\n        /* \"#utility.yul\":1768:1775   */\n      dup6\n        /* \"#utility.yul\":1759:1765   */\n      dup3\n        /* \"#utility.yul\":1748:1757   */\n      dup7\n        /* \"#utility.yul\":1744:1766   */\n      add\n        /* \"#utility.yul\":1723:1776   */\n      tag_93\n      jump\t// in\n    tag_114:\n        /* \"#utility.yul\":1713:1776   */\n      swap3\n      pop\n        /* \"#utility.yul\":1669:1786   */\n      pop\n        /* \"#utility.yul\":1825:1827   */\n      0x20\n        /* \"#utility.yul\":1851:1904   */\n      tag_115\n        /* \"#utility.yul\":1896:1903   */\n      dup6\n        /* \"#utility.yul\":1887:1893   */\n      dup3\n        /* \"#utility.yul\":1876:1885   */\n      dup7\n        /* \"#utility.yul\":1872:1894   */\n      add\n        /* \"#utility.yul\":1851:1904   */\n      tag_89\n      jump\t// in\n    tag_115:\n        /* \"#utility.yul\":1841:1904   */\n      swap2\n      pop\n        /* \"#utility.yul\":1796:1914   */\n      pop\n        /* \"#utility.yul\":1447:1921   */\n      swap3\n      pop\n      swap3\n      swap1\n      pop\n      jump\t// out\n        /* \"#utility.yul\":1927:2045   */\n    tag_116:\n        /* \"#utility.yul\":2014:2038   */\n      tag_118\n        /* \"#utility.yul\":2032:2037   */\n      dup2\n        /* \"#utility.yul\":2014:2038   */\n      tag_119\n      jump\t// in\n    tag_118:\n        /* \"#utility.yul\":2009:2012   */\n      dup3\n        /* \"#utility.yul\":2002:2039   */\n      mstore\n        /* \"#utility.yul\":1927:2045   */\n      pop\n      pop\n      jump\t// out\n        /* \"#utility.yul\":2051:2160   */\n    tag_120:\n        /* \"#utility.yul\":2132:2153   */\n      tag_122\n        /* \"#utility.yul\":2147:2152   */\n      dup2\n        /* \"#utility.yul\":2132:2153   */\n      tag_123\n      jump\t// in\n    tag_122:\n        /* \"#utility.yul\":2127:2130   */\n      dup3\n        /* \"#utility.yul\":2120:2154   */\n      mstore\n        /* \"#utility.yul\":2051:2160   */\n      pop\n      pop\n      jump\t// out\n        /* \"#utility.yul\":2166:2323   */\n    tag_124:\n        /* \"#utility.yul\":2266:2316   */\n      tag_126\n        /* \"#utility.yul\":2310:2315   */\n      dup2\n        /* \"#utility.yul\":2266:2316   */\n      tag_127\n      jump\t// in\n    tag_126:\n        /* \"#utility.yul\":2261:2264   */\n      dup3\n        /* \"#utility.yul\":2254:2317   */\n      mstore\n        /* \"#utility.yul\":2166:2323   */\n      pop\n      pop\n      jump\t// out\n        /* \"#utility.yul\":2329:2447   */\n    tag_128:\n        /* \"#utility.yul\":2416:2440   */\n      tag_130\n        /* \"#utility.yul\":2434:2439   */\n      dup2\n        /* \"#utility.yul\":2416:2440   */\n      tag_131\n      jump\t// in\n    tag_130:\n        /* \"#utility.yul\":2411:2414   */\n      dup3\n        /* \"#utility.yul\":2404:2441   */\n      mstore\n        /* \"#utility.yul\":2329:2447   */\n      pop\n      pop\n      jump\t// out\n        /* \"#utility.yul\":2453:2675   */\n    tag_64:\n        /* \"#utility.yul\":2546:2550   */\n      0x00\n        /* \"#utility.yul\":2584:2586   */\n      0x20\n        /* \"#utility.yul\":2573:2582   */\n      dup3\n        /* \"#utility.yul\":2569:2587   */\n      add\n        /* \"#utility.yul\":2561:2587   */\n      swap1\n      pop\n        /* \"#utility.yul\":2597:2668   */\n      tag_133\n        /* \"#utility.yul\":2665:2666   */\n      0x00\n        /* \"#utility.yul\":2654:2663   */\n      dup4\n        /* \"#utility.yul\":2650:2667   */\n      add\n        /* \"#utility.yul\":2641:2647   */\n      dup5\n        /* \"#utility.yul\":2597:2668   */\n      tag_116\n      jump\t// in\n    tag_133:\n        /* \"#utility.yul\":2453:2675   */\n      swap3\n      swap2\n      pop\n      pop\n      jump\t// out\n        /* \"#utility.yul\":2681:2891   */\n    tag_43:\n        /* \"#utility.yul\":2768:2772   */\n      0x00\n        /* \"#utility.yul\":2806:2808   */\n      0x20\n        /* \"#utility.yul\":2795:2804   */\n      dup3\n        /* \"#utility.yul\":2791:2809   */\n      add\n        /* \"#utility.yul\":2783:2809   */\n      swap1\n      pop\n        /* \"#utility.yul\":2819:2884   */\n      tag_135\n        /* \"#utility.yul\":2881:2882   */\n      0x00\n        /* \"#utility.yul\":2870:2879   */\n      dup4\n        /* \"#utility.yul\":2866:2883   */\n      add\n        /* \"#utility.yul\":2857:2863   */\n      dup5\n        /* \"#utility.yul\":2819:2884   */\n      tag_120\n      jump\t// in\n    tag_135:\n        /* \"#utility.yul\":2681:2891   */\n      swap3\n      swap2\n      pop\n      pop\n      jump\t// out\n        /* \"#utility.yul\":2897:3145   */\n    tag_50:\n        /* \"#utility.yul\":3003:3007   */\n      0x00\n        /* \"#utility.yul\":3041:3043   */\n      0x20\n        /* \"#utility.yul\":3030:3039   */\n      dup3\n        /* \"#utility.yul\":3026:3044   */\n      add\n        /* \"#utility.yul\":3018:3044   */\n      swap1\n      pop\n        /* \"#utility.yul\":3054:3138   */\n      tag_137\n        /* \"#utility.yul\":3135:3136   */\n      0x00\n        /* \"#utility.yul\":3124:3133   */\n      dup4\n        /* \"#utility.yul\":3120:3137   */\n      add\n        /* \"#utility.yul\":3111:3117   */\n      dup5\n        /* \"#utility.yul\":3054:3138   */\n      tag_124\n      jump\t// in\n    tag_137:\n        /* \"#utility.yul\":2897:3145   */\n      swap3\n      swap2\n      pop\n      pop\n      jump\t// out\n        /* \"#utility.yul\":3151:3373   */\n    tag_23:\n        /* \"#utility.yul\":3244:3248   */\n      0x00\n        /* \"#utility.yul\":3282:3284   */\n      0x20\n        /* \"#utility.yul\":3271:3280   */\n      dup3\n        /* \"#utility.yul\":3267:3285   */\n      add\n        /* \"#utility.yul\":3259:3285   */\n      swap1\n      pop\n        /* \"#utility.yul\":3295:3366   */\n      tag_139\n        /* \"#utility.yul\":3363:3364   */\n      0x00\n        /* \"#utility.yul\":3352:3361   */\n      dup4\n        /* \"#utility.yul\":3348:3365   */\n      add\n        /* \"#utility.yul\":3339:3345   */\n      dup5\n        /* \"#utility.yul\":3295:3366   */\n      tag_128\n      jump\t// in\n    tag_139:\n        /* \"#utility.yul\":3151:3373   */\n      swap3\n      swap2\n      pop\n      pop\n      jump\t// out\n        /* \"#utility.yul\":3379:4043   */\n    tag_59:\n        /* \"#utility.yul\":3584:3588   */\n      0x00\n        /* \"#utility.yul\":3622:3625   */\n      0xa0\n        /* \"#utility.yul\":3611:3620   */\n      dup3\n        /* \"#utility.yul\":3607:3626   */\n      add\n        /* \"#utility.yul\":3599:3626   */\n      swap1\n      pop\n        /* \"#utility.yul\":3636:3707   */\n      tag_141\n        /* \"#utility.yul\":3704:3705   */\n      0x00\n        /* \"#utility.yul\":3693:3702   */\n      dup4\n        /* \"#utility.yul\":3689:3706   */\n      add\n        /* \"#utility.yul\":3680:3686   */\n      dup9\n        /* \"#utility.yul\":3636:3707   */\n      tag_128\n      jump\t// in\n    tag_141:\n        /* \"#utility.yul\":3717:3789   */\n      tag_142\n        /* \"#utility.yul\":3785:3787   */\n      0x20\n        /* \"#utility.yul\":3774:3783   */\n      dup4\n        /* \"#utility.yul\":3770:3788   */\n      add\n        /* \"#utility.yul\":3761:3767   */\n      dup8\n        /* \"#utility.yul\":3717:3789   */\n      tag_128\n      jump\t// in\n    tag_142:\n        /* \"#utility.yul\":3799:3871   */\n      tag_143\n        /* \"#utility.yul\":3867:3869   */\n      0x40\n        /* \"#utility.yul\":3856:3865   */\n      dup4\n        /* \"#utility.yul\":3852:3870   */\n      add\n        /* \"#utility.yul\":3843:3849   */\n      dup7\n        /* \"#utility.yul\":3799:3871   */\n      tag_128\n      jump\t// in\n    tag_143:\n        /* \"#utility.yul\":3881:3953   */\n      tag_144\n        /* \"#utility.yul\":3949:3951   */\n      0x60\n        /* \"#utility.yul\":3938:3947   */\n      dup4\n        /* \"#utility.yul\":3934:3952   */\n      add\n        /* \"#utility.yul\":3925:3931   */\n      dup6\n        /* \"#utility.yul\":3881:3953   */\n      tag_128\n      jump\t// in\n    tag_144:\n        /* \"#utility.yul\":3963:4036   */\n      tag_145\n        /* \"#utility.yul\":4031:4034   */\n      0x80\n        /* \"#utility.yul\":4020:4029   */\n      dup4\n        /* \"#utility.yul\":4016:4035   */\n      add\n        /* \"#utility.yul\":4007:4013   */\n      dup5\n        /* \"#utility.yul\":3963:4036   */\n      tag_116\n      jump\t// in\n    tag_145:\n        /* \"#utility.yul\":3379:4043   */\n      swap7\n      swap6\n      pop\n      pop\n      pop\n      pop\n      pop\n      pop\n      jump\t// out\n        /* \"#utility.yul\":4130:4435   */\n    tag_78:\n        /* \"#utility.yul\":4170:4173   */\n      0x00\n        /* \"#utility.yul\":4189:4209   */\n      tag_149\n        /* \"#utility.yul\":4207:4208   */\n      dup3\n        /* \"#utility.yul\":4189:4209   */\n      tag_131\n      jump\t// in\n    tag_149:\n        /* \"#utility.yul\":4184:4209   */\n      swap2\n      pop\n        /* \"#utility.yul\":4223:4243   */\n      tag_150\n        /* \"#utility.yul\":4241:4242   */\n      dup4\n        /* \"#utility.yul\":4223:4243   */\n      tag_131\n      jump\t// in\n    tag_150:\n        /* \"#utility.yul\":4218:4243   */\n      swap3\n      pop\n        /* \"#utility.yul\":4377:4378   */\n      dup3\n        /* \"#utility.yul\":4309:4375   */\n      0xffffffffffffffffffffffffffffffffffffffffffffffffffffffffffffffff\n        /* \"#utility.yul\":4305:4379   */\n      sub\n        /* \"#utility.yul\":4302:4303   */\n      dup3\n        /* \"#utility.yul\":4299:4380   */\n      gt\n        /* \"#utility.yul\":4296:4403   */\n      iszero\n      tag_151\n      jumpi\n        /* \"#utility.yul\":4383:4401   */\n      tag_152\n      tag_153\n      jump\t// in\n    tag_152:\n        /* \"#utility.yul\":4296:4403   */\n    tag_151:\n        /* \"#utility.yul\":4427:4428   */\n      dup3\n        /* \"#utility.yul\":4424:4425   */\n      dup3\n        /* \"#utility.yul\":4420:4429   */\n      add\n        /* \"#utility.yul\":4413:4429   */\n      swap1\n      pop\n        /* \"#utility.yul\":4130:4435   */\n      swap3\n      swap2\n      pop\n      pop\n      jump\t// out\n        /* \"#utility.yul\":4441:4537   */\n    tag_119:\n        /* \"#utility.yul\":4478:4485   */\n      0x00\n        /* \"#utility.yul\":4507:4531   */\n      tag_155\n        /* \"#utility.yul\":4525:4530   */\n      dup3\n        /* \"#utility.yul\":4507:4531   */\n      tag_156\n      jump\t// in\n    tag_155:\n        /* \"#utility.yul\":4496:4531   */\n      swap1\n      pop\n        /* \"#utility.yul\":4441:4537   */\n      swap2\n      swap1\n      pop\n      jump\t// out\n        /* \"#utility.yul\":4543:4633   */\n    tag_123:\n        /* \"#utility.yul\":4577:4584   */\n      0x00\n        /* \"#utility.yul\":4620:4625   */\n      dup2\n        /* \"#utility.yul\":4613:4626   */\n      iszero\n        /* \"#utility.yul\":4606:4627   */\n      iszero\n        /* \"#utility.yul\":4595:4627   */\n      swap1\n      pop\n        /* \"#utility.yul\":4543:4633   */\n      swap2\n      swap1\n      pop\n      jump\t// out\n        /* \"#utility.yul\":4639:4765   */\n    tag_156:\n        /* \"#utility.yul\":4676:4683   */\n      0x00\n        /* \"#utility.yul\":4716:4758   */\n      0xffffffffffffffffffffffffffffffffffffffff\n        /* \"#utility.yul\":4709:4714   */\n      dup3\n        /* \"#utility.yul\":4705:4759   */\n      and\n        /* \"#utility.yul\":4694:4759   */\n      swap1\n      pop\n        /* \"#utility.yul\":4639:4765   */\n      swap2\n      swap1\n      pop\n      jump\t// out\n        /* \"#utility.yul\":4771:4848   */\n    tag_131:\n        /* \"#utility.yul\":4808:4815   */\n      0x00\n        /* \"#utility.yul\":4837:4842   */\n      dup2\n        /* \"#utility.yul\":4826:4842   */\n      swap1\n      pop\n        /* \"#utility.yul\":4771:4848   */\n      swap2\n      swap1\n      pop\n      jump\t// out\n        /* \"#utility.yul\":4854:4993   */\n    tag_127:\n        /* \"#utility.yul\":4917:4926   */\n      0x00\n        /* \"#utility.yul\":4950:4987   */\n      tag_161\n        /* \"#utility.yul\":4981:4986   */\n      dup3\n        /* \"#utility.yul\":4950:4987   */\n      tag_162\n      jump\t// in\n    tag_161:\n        /* \"#utility.yul\":4937:4987   */\n      swap1\n      pop\n        /* \"#utility.yul\":4854:4993   */\n      swap2\n      swap1\n      pop\n      jump\t// out\n        /* \"#utility.yul\":4999:5125   */\n    tag_162:\n        /* \"#utility.yul\":5049:5058   */\n      0x00\n        /* \"#utility.yul\":5082:5119   */\n      tag_164\n        /* \"#utility.yul\":5113:5118   */\n      dup3\n        /* \"#utility.yul\":5082:5119   */\n      tag_165\n      jump\t// in\n    tag_164:\n        /* \"#utility.yul\":5069:5119   */\n      swap1\n      pop\n        /* \"#utility.yul\":4999:5125   */\n      swap2\n      swap1\n      pop\n      jump\t// out\n        /* \"#utility.yul\":5131:5244   */\n    tag_165:\n        /* \"#utility.yul\":5181:5190   */\n      0x00\n        /* \"#utility.yul\":5214:5238   */\n      tag_167\n        /* \"#utility.yul\":5232:5237   */\n      dup3\n        /* \"#utility.yul\":5214:5238   */\n      tag_156\n      jump\t// in\n    tag_167:\n        /* \"#utility.yul\":5201:5238   */\n      swap1\n      pop\n        /* \"#utility.yul\":5131:5244   */\n      swap2\n      swap1\n      pop\n      jump\t// out\n        /* \"#utility.yul\":5250:5483   */\n    tag_82:\n        /* \"#utility.yul\":5289:5292   */\n      0x00\n        /* \"#utility.yul\":5312:5336   */\n      tag_169\n        /* \"#utility.yul\":5330:5335   */\n      dup3\n        /* \"#utility.yul\":5312:5336   */\n      tag_131\n      jump\t// in\n    tag_169:\n        /* \"#utility.yul\":5303:5336   */\n      swap2\n      pop\n        /* \"#utility.yul\":5358:5424   */\n      0xffffffffffffffffffffffffffffffffffffffffffffffffffffffffffffffff\n        /* \"#utility.yul\":5351:5356   */\n      dup3\n        /* \"#utility.yul\":5348:5425   */\n      eq\n        /* \"#utility.yul\":5345:5448   */\n      iszero\n      tag_170\n      jumpi\n        /* \"#utility.yul\":5428:5446   */\n      tag_171\n      tag_153\n      jump\t// in\n    tag_171:\n        /* \"#utility.yul\":5345:5448   */\n    tag_170:\n        /* \"#utility.yul\":5475:5476   */\n      0x01\n        /* \"#utility.yul\":5468:5473   */\n      dup3\n        /* \"#utility.yul\":5464:5477   */\n      add\n        /* \"#utility.yul\":5457:5477   */\n      swap1\n      pop\n        /* \"#utility.yul\":5250:5483   */\n      swap2\n      swap1\n      pop\n      jump\t// out\n        /* \"#utility.yul\":5489:5669   */\n    tag_153:\n        /* \"#utility.yul\":5537:5614   */\n      0x4e487b7100000000000000000000000000000000000000000000000000000000\n        /* \"#utility.yul\":5534:5535   */\n      0x00\n        /* \"#utility.yul\":5527:5615   */\n      mstore\n        /* \"#utility.yul\":5634:5638   */\n      0x11\n        /* \"#utility.yul\":5631:5632   */\n      0x04\n        /* \"#utility.yul\":5624:5639   */\n      mstore\n        /* \"#utility.yul\":5658:5662   */\n      0x24\n        /* \"#utility.yul\":5655:5656   */\n      0x00\n        /* \"#utility.yul\":5648:5663   */\n      revert\n        /* \"#utility.yul\":5798:5915   */\n    tag_100:\n        /* \"#utility.yul\":5907:5908   */\n      0x00\n        /* \"#utility.yul\":5904:5905   */\n      dup1\n        /* \"#utility.yul\":5897:5909   */\n      revert\n        /* \"#utility.yul\":5921:6043   */\n    tag_92:\n        /* \"#utility.yul\":5994:6018   */\n      tag_177\n        /* \"#utility.yul\":6012:6017   */\n      dup2\n        /* \"#utility.yul\":5994:6018   */\n      tag_119\n      jump\t// in\n    tag_177:\n        /* \"#utility.yul\":5987:5992   */\n      dup2\n        /* \"#utility.yul\":5984:6019   */\n      eq\n        /* \"#utility.yul\":5974:6037   */\n      tag_178\n      jumpi\n        /* \"#utility.yul\":6033:6034   */\n      0x00\n        /* \"#utility.yul\":6030:6031   */\n      dup1\n        /* \"#utility.yul\":6023:6035   */\n      revert\n        /* \"#utility.yul\":5974:6037   */\n    tag_178:\n        /* \"#utility.yul\":5921:6043   */\n      pop\n      jump\t// out\n        /* \"#utility.yul\":6049:6171   */\n    tag_96:\n        /* \"#utility.yul\":6122:6146   */\n      tag_180\n        /* \"#utility.yul\":6140:6145   */\n      dup2\n        /* \"#utility.yul\":6122:6146   */\n      tag_131\n      jump\t// in\n    tag_180:\n        /* \"#utility.yul\":6115:6120   */\n      dup2\n        /* \"#utility.yul\":6112:6147   */\n      eq\n        /* \"#utility.yul\":6102:6165   */\n      tag_181\n      jumpi\n        /* \"#utility.yul\":6161:6162   */\n      0x00\n        /* \"#utility.yul\":6158:6159   */\n      dup1\n        /* \"#utility.yul\":6151:6163   */\n      revert\n        /* \"#utility.yul\":6102:6165   */\n    tag_181:\n        /* \"#utility.yul\":6049:6171   */\n      pop\n      jump\t// out\n\n    auxdata: 0xa2646970667358221220ff1d18bd6df6b3d782b97f526f093fd608084d55a2dbc5bb3904d1ca22e62a5564736f6c63430008070033\n}\n",
				"bytecode": {
					"linkReferences": {},
					"object": "608060405234801561001057600080fd5b50604051610ad5380380610ad58339818101604052810190610032919061008e565b80600460006101000a81548173ffffffffffffffffffffffffffffffffffffffff021916908373ffffffffffffffffffffffffffffffffffffffff16021790555050610109565b600081519050610088816100f2565b92915050565b6000602082840312156100a4576100a36100ed565b5b60006100b284828501610079565b91505092915050565b60006100c6826100cd565b9050919050565b600073ffffffffffffffffffffffffffffffffffffffff82169050919050565b600080fd5b6100fb816100bb565b811461010657600080fd5b50565b6109bd806101186000396000f3fe608060405234801561001057600080fd5b50600436106100cf5760003560e01c806376636d201161008c578063ac128f4f11610066578063ac128f4f14610214578063b657dd6514610248578063c4740a9514610278578063f9cee0bd14610294576100cf565b806376636d20146101bc5780639b3e4552146101da578063a59460dc146101f8576100cf565b80630d988270146100d4578063119b22b314610104578063443b80a114610122578063454f7b8f1461013e578063578e3f881461015c5780635bedc3901461018c575b600080fd5b6100ee60048036038101906100e99190610660565b6102b2565b6040516100fb919061079a565b60405180910390f35b61010c6102e3565b604051610119919061079a565b60405180910390f35b61013c60048036038101906101379190610660565b6102e9565b005b610146610460565b604051610153919061079a565b60405180910390f35b610176600480360381019061017191906106cd565b610466565b604051610183919061079a565b60405180910390f35b6101a660048036038101906101a19190610633565b61048b565b6040516101b39190610764565b60405180910390f35b6101c46104ef565b6040516101d1919061079a565b60405180910390f35b6101e26104f5565b6040516101ef919061077f565b60405180910390f35b610212600480360381019061020d9190610660565b61051b565b005b61022e600480360381019061022991906106a0565b61051f565b60405161023f9594939291906107b5565b60405180910390f35b610262600480360381019061025d91906106a0565b610575565b60405161026f9190610749565b60405180910390f35b610292600480360381019061028d9190610633565b6105a8565b005b61029c610603565b6040516102a9919061079a565b60405180910390f35b600860205281600052604060002081815481106102ce57600080fd5b90600052602060002001600091509150505481565b60025481565b60005b818110156103d9578260066000836001546103079190610808565b815260200190815260200160002060006101000a81548173ffffffffffffffffffffffffffffffffffffffff021916908373ffffffffffffffffffffffffffffffffffffffff160217905550600860008473ffffffffffffffffffffffffffffffffffffffff1673ffffffffffffffffffffffffffffffffffffffff168152602001908152602001600020816001546103a09190610808565b908060018154018082558091505060019003906000526020600020016000909190919091505580806103d1906108dc565b9150506102ec565b508060076000600254815260200190815260200160002060008473ffffffffffffffffffffffffffffffffffffffff1673ffffffffffffffffffffffffffffffffffffffff168152602001908152602001600020600082825461043c9190610808565b9250508190555080600160008282546104559190610808565b925050819055505050565b60035481565b6007602052816000526040600020602052806000526040600020600091509150505481565b60008060076000600254815260200190815260200160002060008473ffffffffffffffffffffffffffffffffffffffff1673ffffffffffffffffffffffffffffffffffffffff16815260200190815260200160002054905060008111915050919050565b60015481565b600460009054906101000a900473ffffffffffffffffffffffffffffffffffffffff1681565b5050565b60056020528060005260406000206000915090508060000154908060010154908060020154908060030154908060040160009054906101000a900473ffffffffffffffffffffffffffffffffffffffff16905085565b60066020528060005260406000206000915054906101000a900473ffffffffffffffffffffffffffffffffffffffff1681565b600060076000600254815260200190815260200160002060008373ffffffffffffffffffffffffffffffffffffffff1673ffffffffffffffffffffffffffffffffffffffff1681526020019081526020016000208190555050565b60005481565b60008135905061061881610959565b92915050565b60008135905061062d81610970565b92915050565b60006020828403121561064957610648610954565b5b600061065784828501610609565b91505092915050565b6000806040838503121561067757610676610954565b5b600061068585828601610609565b92505060206106968582860161061e565b9150509250929050565b6000602082840312156106b6576106b5610954565b5b60006106c48482850161061e565b91505092915050565b600080604083850312156106e4576106e3610954565b5b60006106f28582860161061e565b925050602061070385828601610609565b9150509250929050565b6107168161085e565b82525050565b61072581610870565b82525050565b610734816108a6565b82525050565b6107438161089c565b82525050565b600060208201905061075e600083018461070d565b92915050565b6000602082019050610779600083018461071c565b92915050565b6000602082019050610794600083018461072b565b92915050565b60006020820190506107af600083018461073a565b92915050565b600060a0820190506107ca600083018861073a565b6107d7602083018761073a565b6107e4604083018661073a565b6107f1606083018561073a565b6107fe608083018461070d565b9695505050505050565b60006108138261089c565b915061081e8361089c565b9250827fffffffffffffffffffffffffffffffffffffffffffffffffffffffffffffffff0382111561085357610852610925565b5b828201905092915050565b60006108698261087c565b9050919050565b60008115159050919050565b600073ffffffffffffffffffffffffffffffffffffffff82169050919050565b6000819050919050565b60006108b1826108b8565b9050919050565b60006108c3826108ca565b9050919050565b60006108d58261087c565b9050919050565b60006108e78261089c565b91507fffffffffffffffffffffffffffffffffffffffffffffffffffffffffffffffff82141561091a57610919610925565b5b600182019050919050565b7f4e487b7100000000000000000000000000000000000000000000000000000000600052601160045260246000fd5b600080fd5b6109628161085e565b811461096d57600080fd5b50565b6109798161089c565b811461098457600080fd5b5056fea2646970667358221220ff1d18bd6df6b3d782b97f526f093fd608084d55a2dbc5bb3904d1ca22e62a5564736f6c63430008070033",
					"opcodes": "PUSH1 0x80 PUSH1 0x40 MSTORE CALLVALUE DUP1 ISZERO PUSH2 0x10 JUMPI PUSH1 0x0 DUP1 REVERT JUMPDEST POP PUSH1 0x40 MLOAD PUSH2 0xAD5 CODESIZE SUB DUP1 PUSH2 0xAD5 DUP4 CODECOPY DUP2 DUP2 ADD PUSH1 0x40 MSTORE DUP2 ADD SWAP1 PUSH2 0x32 SWAP2 SWAP1 PUSH2 0x8E JUMP JUMPDEST DUP1 PUSH1 0x4 PUSH1 0x0 PUSH2 0x100 EXP DUP2 SLOAD DUP2 PUSH20 0xFFFFFFFFFFFFFFFFFFFFFFFFFFFFFFFFFFFFFFFF MUL NOT AND SWAP1 DUP4 PUSH20 0xFFFFFFFFFFFFFFFFFFFFFFFFFFFFFFFFFFFFFFFF AND MUL OR SWAP1 SSTORE POP POP PUSH2 0x109 JUMP JUMPDEST PUSH1 0x0 DUP2 MLOAD SWAP1 POP PUSH2 0x88 DUP2 PUSH2 0xF2 JUMP JUMPDEST SWAP3 SWAP2 POP POP JUMP JUMPDEST PUSH1 0x0 PUSH1 0x20 DUP3 DUP5 SUB SLT ISZERO PUSH2 0xA4 JUMPI PUSH2 0xA3 PUSH2 0xED JUMP JUMPDEST JUMPDEST PUSH1 0x0 PUSH2 0xB2 DUP5 DUP3 DUP6 ADD PUSH2 0x79 JUMP JUMPDEST SWAP2 POP POP SWAP3 SWAP2 POP POP JUMP JUMPDEST PUSH1 0x0 PUSH2 0xC6 DUP3 PUSH2 0xCD JUMP JUMPDEST SWAP1 POP SWAP2 SWAP1 POP JUMP JUMPDEST PUSH1 0x0 PUSH20 0xFFFFFFFFFFFFFFFFFFFFFFFFFFFFFFFFFFFFFFFF DUP3 AND SWAP1 POP SWAP2 SWAP1 POP JUMP JUMPDEST PUSH1 0x0 DUP1 REVERT JUMPDEST PUSH2 0xFB DUP2 PUSH2 0xBB JUMP JUMPDEST DUP2 EQ PUSH2 0x106 JUMPI PUSH1 0x0 DUP1 REVERT JUMPDEST POP JUMP JUMPDEST PUSH2 0x9BD DUP1 PUSH2 0x118 PUSH1 0x0 CODECOPY PUSH1 0x0 RETURN INVALID PUSH1 0x80 PUSH1 0x40 MSTORE CALLVALUE DUP1 ISZERO PUSH2 0x10 JUMPI PUSH1 0x0 DUP1 REVERT JUMPDEST POP PUSH1 0x4 CALLDATASIZE LT PUSH2 0xCF JUMPI PUSH1 0x0 CALLDATALOAD PUSH1 0xE0 SHR DUP1 PUSH4 0x76636D20 GT PUSH2 0x8C JUMPI DUP1 PUSH4 0xAC128F4F GT PUSH2 0x66 JUMPI DUP1 PUSH4 0xAC128F4F EQ PUSH2 0x214 JUMPI DUP1 PUSH4 0xB657DD65 EQ PUSH2 0x248 JUMPI DUP1 PUSH4 0xC4740A95 EQ PUSH2 0x278 JUMPI DUP1 PUSH4 0xF9CEE0BD EQ PUSH2 0x294 JUMPI PUSH2 0xCF JUMP JUMPDEST DUP1 PUSH4 0x76636D20 EQ PUSH2 0x1BC JUMPI DUP1 PUSH4 0x9B3E4552 EQ PUSH2 0x1DA JUMPI DUP1 PUSH4 0xA59460DC EQ PUSH2 0x1F8 JUMPI PUSH2 0xCF JUMP JUMPDEST DUP1 PUSH4 0xD988270 EQ PUSH2 0xD4 JUMPI DUP1 PUSH4 0x119B22B3 EQ PUSH2 0x104 JUMPI DUP1 PUSH4 0x443B80A1 EQ PUSH2 0x122 JUMPI DUP1 PUSH4 0x454F7B8F EQ PUSH2 0x13E JUMPI DUP1 PUSH4 0x578E3F88 EQ PUSH2 0x15C JUMPI DUP1 PUSH4 0x5BEDC390 EQ PUSH2 0x18C JUMPI JUMPDEST PUSH1 0x0 DUP1 REVERT JUMPDEST PUSH2 0xEE PUSH1 0x4 DUP1 CALLDATASIZE SUB DUP2 ADD SWAP1 PUSH2 0xE9 SWAP2 SWAP1 PUSH2 0x660 JUMP JUMPDEST PUSH2 0x2B2 JUMP JUMPDEST PUSH1 0x40 MLOAD PUSH2 0xFB SWAP2 SWAP1 PUSH2 0x79A JUMP JUMPDEST PUSH1 0x40 MLOAD DUP1 SWAP2 SUB SWAP1 RETURN JUMPDEST PUSH2 0x10C PUSH2 0x2E3 JUMP JUMPDEST PUSH1 0x40 MLOAD PUSH2 0x119 SWAP2 SWAP1 PUSH2 0x79A JUMP JUMPDEST PUSH1 0x40 MLOAD DUP1 SWAP2 SUB SWAP1 RETURN JUMPDEST PUSH2 0x13C PUSH1 0x4 DUP1 CALLDATASIZE SUB DUP2 ADD SWAP1 PUSH2 0x137 SWAP2 SWAP1 PUSH2 0x660 JUMP JUMPDEST PUSH2 0x2E9 JUMP JUMPDEST STOP JUMPDEST PUSH2 0x146 PUSH2 0x460 JUMP JUMPDEST PUSH1 0x40 MLOAD PUSH2 0x153 SWAP2 SWAP1 PUSH2 0x79A JUMP JUMPDEST PUSH1 0x40 MLOAD DUP1 SWAP2 SUB SWAP1 RETURN JUMPDEST PUSH2 0x176 PUSH1 0x4 DUP1 CALLDATASIZE SUB DUP2 ADD SWAP1 PUSH2 0x171 SWAP2 SWAP1 PUSH2 0x6CD JUMP JUMPDEST PUSH2 0x466 JUMP JUMPDEST PUSH1 0x40 MLOAD PUSH2 0x183 SWAP2 SWAP1 PUSH2 0x79A JUMP JUMPDEST PUSH1 0x40 MLOAD DUP1 SWAP2 SUB SWAP1 RETURN JUMPDEST PUSH2 0x1A6 PUSH1 0x4 DUP1 CALLDATASIZE SUB DUP2 ADD SWAP1 PUSH2 0x1A1 SWAP2 SWAP1 PUSH2 0x633 JUMP JUMPDEST PUSH2 0x48B JUMP JUMPDEST PUSH1 0x40 MLOAD PUSH2 0x1B3 SWAP2 SWAP1 PUSH2 0x764 JUMP JUMPDEST PUSH1 0x40 MLOAD DUP1 SWAP2 SUB SWAP1 RETURN JUMPDEST PUSH2 0x1C4 PUSH2 0x4EF JUMP JUMPDEST PUSH1 0x40 MLOAD PUSH2 0x1D1 SWAP2 SWAP1 PUSH2 0x79A JUMP JUMPDEST PUSH1 0x40 MLOAD DUP1 SWAP2 SUB SWAP1 RETURN JUMPDEST PUSH2 0x1E2 PUSH2 0x4F5 JUMP JUMPDEST PUSH1 0x40 MLOAD PUSH2 0x1EF SWAP2 SWAP1 PUSH2 0x77F JUMP JUMPDEST PUSH1 0x40 MLOAD DUP1 SWAP2 SUB SWAP1 RETURN JUMPDEST PUSH2 0x212 PUSH1 0x4 DUP1 CALLDATASIZE SUB DUP2 ADD SWAP1 PUSH2 0x20D SWAP2 SWAP1 PUSH2 0x660 JUMP JUMPDEST PUSH2 0x51B JUMP JUMPDEST STOP JUMPDEST PUSH2 0x22E PUSH1 0x4 DUP1 CALLDATASIZE SUB DUP2 ADD SWAP1 PUSH2 0x229 SWAP2 SWAP1 PUSH2 0x6A0 JUMP JUMPDEST PUSH2 0x51F JUMP JUMPDEST PUSH1 0x40 MLOAD PUSH2 0x23F SWAP6 SWAP5 SWAP4 SWAP3 SWAP2 SWAP1 PUSH2 0x7B5 JUMP JUMPDEST PUSH1 0x40 MLOAD DUP1 SWAP2 SUB SWAP1 RETURN JUMPDEST PUSH2 0x262 PUSH1 0x4 DUP1 CALLDATASIZE SUB DUP2 ADD SWAP1 PUSH2 0x25D SWAP2 SWAP1 PUSH2 0x6A0 JUMP JUMPDEST PUSH2 0x575 JUMP JUMPDEST PUSH1 0x40 MLOAD PUSH2 0x26F SWAP2 SWAP1 PUSH2 0x749 JUMP JUMPDEST PUSH1 0x40 MLOAD DUP1 SWAP2 SUB SWAP1 RETURN JUMPDEST PUSH2 0x292 PUSH1 0x4 DUP1 CALLDATASIZE SUB DUP2 ADD SWAP1 PUSH2 0x28D SWAP2 SWAP1 PUSH2 0x633 JUMP JUMPDEST PUSH2 0x5A8 JUMP JUMPDEST STOP JUMPDEST PUSH2 0x29C PUSH2 0x603 JUMP JUMPDEST PUSH1 0x40 MLOAD PUSH2 0x2A9 SWAP2 SWAP1 PUSH2 0x79A JUMP JUMPDEST PUSH1 0x40 MLOAD DUP1 SWAP2 SUB SWAP1 RETURN JUMPDEST PUSH1 0x8 PUSH1 0x20 MSTORE DUP2 PUSH1 0x0 MSTORE PUSH1 0x40 PUSH1 0x0 KECCAK256 DUP2 DUP2 SLOAD DUP2 LT PUSH2 0x2CE JUMPI PUSH1 0x0 DUP1 REVERT JUMPDEST SWAP1 PUSH1 0x0 MSTORE PUSH1 0x20 PUSH1 0x0 KECCAK256 ADD PUSH1 0x0 SWAP2 POP SWAP2 POP POP SLOAD DUP2 JUMP JUMPDEST PUSH1 0x2 SLOAD DUP2 JUMP JUMPDEST PUSH1 0x0 JUMPDEST DUP2 DUP2 LT ISZERO PUSH2 0x3D9 JUMPI DUP3 PUSH1 0x6 PUSH1 0x0 DUP4 PUSH1 0x1 SLOAD PUSH2 0x307 SWAP2 SWAP1 PUSH2 0x808 JUMP JUMPDEST DUP2 MSTORE PUSH1 0x20 ADD SWAP1 DUP2 MSTORE PUSH1 0x20 ADD PUSH1 0x0 KECCAK256 PUSH1 0x0 PUSH2 0x100 EXP DUP2 SLOAD DUP2 PUSH20 0xFFFFFFFFFFFFFFFFFFFFFFFFFFFFFFFFFFFFFFFF MUL NOT AND SWAP1 DUP4 PUSH20 0xFFFFFFFFFFFFFFFFFFFFFFFFFFFFFFFFFFFFFFFF AND MUL OR SWAP1 SSTORE POP PUSH1 0x8 PUSH1 0x0 DUP5 PUSH20 0xFFFFFFFFFFFFFFFFFFFFFFFFFFFFFFFFFFFFFFFF AND PUSH20 0xFFFFFFFFFFFFFFFFFFFFFFFFFFFFFFFFFFFFFFFF AND DUP2 MSTORE PUSH1 0x20 ADD SWAP1 DUP2 MSTORE PUSH1 0x20 ADD PUSH1 0x0 KECCAK256 DUP2 PUSH1 0x1 SLOAD PUSH2 0x3A0 SWAP2 SWAP1 PUSH2 0x808 JUMP JUMPDEST SWAP1 DUP1 PUSH1 0x1 DUP2 SLOAD ADD DUP1 DUP3 SSTORE DUP1 SWAP2 POP POP PUSH1 0x1 SWAP1 SUB SWAP1 PUSH1 0x0 MSTORE PUSH1 0x20 PUSH1 0x0 KECCAK256 ADD PUSH1 0x0 SWAP1 SWAP2 SWAP1 SWAP2 SWAP1 SWAP2 POP SSTORE DUP1 DUP1 PUSH2 0x3D1 SWAP1 PUSH2 0x8DC JUMP JUMPDEST SWAP2 POP POP PUSH2 0x2EC JUMP JUMPDEST POP DUP1 PUSH1 0x7 PUSH1 0x0 PUSH1 0x2 SLOAD DUP2 MSTORE PUSH1 0x20 ADD SWAP1 DUP2 MSTORE PUSH1 0x20 ADD PUSH1 0x0 KECCAK256 PUSH1 0x0 DUP5 PUSH20 0xFFFFFFFFFFFFFFFFFFFFFFFFFFFFFFFFFFFFFFFF AND PUSH20 0xFFFFFFFFFFFFFFFFFFFFFFFFFFFFFFFFFFFFFFFF AND DUP2 MSTORE PUSH1 0x20 ADD SWAP1 DUP2 MSTORE PUSH1 0x20 ADD PUSH1 0x0 KECCAK256 PUSH1 0x0 DUP3 DUP3 SLOAD PUSH2 0x43C SWAP2 SWAP1 PUSH2 0x808 JUMP JUMPDEST SWAP3 POP POP DUP2 SWAP1 SSTORE POP DUP1 PUSH1 0x1 PUSH1 0x0 DUP3 DUP3 SLOAD PUSH2 0x455 SWAP2 SWAP1 PUSH2 0x808 JUMP JUMPDEST SWAP3 POP POP DUP2 SWAP1 SSTORE POP POP POP JUMP JUMPDEST PUSH1 0x3 SLOAD DUP2 JUMP JUMPDEST PUSH1 0x7 PUSH1 0x20 MSTORE DUP2 PUSH1 0x0 MSTORE PUSH1 0x40 PUSH1 0x0 KECCAK256 PUSH1 0x20 MSTORE DUP1 PUSH1 0x0 MSTORE PUSH1 0x40 PUSH1 0x0 KECCAK256 PUSH1 0x0 SWAP2 POP SWAP2 POP POP SLOAD DUP2 JUMP JUMPDEST PUSH1 0x0 DUP1 PUSH1 0x7 PUSH1 0x0 PUSH1 0x2 SLOAD DUP2 MSTORE PUSH1 0x20 ADD SWAP1 DUP2 MSTORE PUSH1 0x20 ADD PUSH1 0x0 KECCAK256 PUSH1 0x0 DUP5 PUSH20 0xFFFFFFFFFFFFFFFFFFFFFFFFFFFFFFFFFFFFFFFF AND PUSH20 0xFFFFFFFFFFFFFFFFFFFFFFFFFFFFFFFFFFFFFFFF AND DUP2 MSTORE PUSH1 0x20 ADD SWAP1 DUP2 MSTORE PUSH1 0x20 ADD PUSH1 0x0 KECCAK256 SLOAD SWAP1 POP PUSH1 0x0 DUP2 GT SWAP2 POP POP SWAP2 SWAP1 POP JUMP JUMPDEST PUSH1 0x1 SLOAD DUP2 JUMP JUMPDEST PUSH1 0x4 PUSH1 0x0 SWAP1 SLOAD SWAP1 PUSH2 0x100 EXP SWAP1 DIV PUSH20 0xFFFFFFFFFFFFFFFFFFFFFFFFFFFFFFFFFFFFFFFF AND DUP2 JUMP JUMPDEST POP POP JUMP JUMPDEST PUSH1 0x5 PUSH1 0x20 MSTORE DUP1 PUSH1 0x0 MSTORE PUSH1 0x40 PUSH1 0x0 KECCAK256 PUSH1 0x0 SWAP2 POP SWAP1 POP DUP1 PUSH1 0x0 ADD SLOAD SWAP1 DUP1 PUSH1 0x1 ADD SLOAD SWAP1 DUP1 PUSH1 0x2 ADD SLOAD SWAP1 DUP1 PUSH1 0x3 ADD SLOAD SWAP1 DUP1 PUSH1 0x4 ADD PUSH1 0x0 SWAP1 SLOAD SWAP1 PUSH2 0x100 EXP SWAP1 DIV PUSH20 0xFFFFFFFFFFFFFFFFFFFFFFFFFFFFFFFFFFFFFFFF AND SWAP1 POP DUP6 JUMP JUMPDEST PUSH1 0x6 PUSH1 0x20 MSTORE DUP1 PUSH1 0x0 MSTORE PUSH1 0x40 PUSH1 0x0 KECCAK256 PUSH1 0x0 SWAP2 POP SLOAD SWAP1 PUSH2 0x100 EXP SWAP1 DIV PUSH20 0xFFFFFFFFFFFFFFFFFFFFFFFFFFFFFFFFFFFFFFFF AND DUP2 JUMP JUMPDEST PUSH1 0x0 PUSH1 0x7 PUSH1 0x0 PUSH1 0x2 SLOAD DUP2 MSTORE PUSH1 0x20 ADD SWAP1 DUP2 MSTORE PUSH1 0x20 ADD PUSH1 0x0 KECCAK256 PUSH1 0x0 DUP4 PUSH20 0xFFFFFFFFFFFFFFFFFFFFFFFFFFFFFFFFFFFFFFFF AND PUSH20 0xFFFFFFFFFFFFFFFFFFFFFFFFFFFFFFFFFFFFFFFF AND DUP2 MSTORE PUSH1 0x20 ADD SWAP1 DUP2 MSTORE PUSH1 0x20 ADD PUSH1 0x0 KECCAK256 DUP2 SWAP1 SSTORE POP POP JUMP JUMPDEST PUSH1 0x0 SLOAD DUP2 JUMP JUMPDEST PUSH1 0x0 DUP2 CALLDATALOAD SWAP1 POP PUSH2 0x618 DUP2 PUSH2 0x959 JUMP JUMPDEST SWAP3 SWAP2 POP POP JUMP JUMPDEST PUSH1 0x0 DUP2 CALLDATALOAD SWAP1 POP PUSH2 0x62D DUP2 PUSH2 0x970 JUMP JUMPDEST SWAP3 SWAP2 POP POP JUMP JUMPDEST PUSH1 0x0 PUSH1 0x20 DUP3 DUP5 SUB SLT ISZERO PUSH2 0x649 JUMPI PUSH2 0x648 PUSH2 0x954 JUMP JUMPDEST JUMPDEST PUSH1 0x0 PUSH2 0x657 DUP5 DUP3 DUP6 ADD PUSH2 0x609 JUMP JUMPDEST SWAP2 POP POP SWAP3 SWAP2 POP POP JUMP JUMPDEST PUSH1 0x0 DUP1 PUSH1 0x40 DUP4 DUP6 SUB SLT ISZERO PUSH2 0x677 JUMPI PUSH2 0x676 PUSH2 0x954 JUMP JUMPDEST JUMPDEST PUSH1 0x0 PUSH2 0x685 DUP6 DUP3 DUP7 ADD PUSH2 0x609 JUMP JUMPDEST SWAP3 POP POP PUSH1 0x20 PUSH2 0x696 DUP6 DUP3 DUP7 ADD PUSH2 0x61E JUMP JUMPDEST SWAP2 POP POP SWAP3 POP SWAP3 SWAP1 POP JUMP JUMPDEST PUSH1 0x0 PUSH1 0x20 DUP3 DUP5 SUB SLT ISZERO PUSH2 0x6B6 JUMPI PUSH2 0x6B5 PUSH2 0x954 JUMP JUMPDEST JUMPDEST PUSH1 0x0 PUSH2 0x6C4 DUP5 DUP3 DUP6 ADD PUSH2 0x61E JUMP JUMPDEST SWAP2 POP POP SWAP3 SWAP2 POP POP JUMP JUMPDEST PUSH1 0x0 DUP1 PUSH1 0x40 DUP4 DUP6 SUB SLT ISZERO PUSH2 0x6E4 JUMPI PUSH2 0x6E3 PUSH2 0x954 JUMP JUMPDEST JUMPDEST PUSH1 0x0 PUSH2 0x6F2 DUP6 DUP3 DUP7 ADD PUSH2 0x61E JUMP JUMPDEST SWAP3 POP POP PUSH1 0x20 PUSH2 0x703 DUP6 DUP3 DUP7 ADD PUSH2 0x609 JUMP JUMPDEST SWAP2 POP POP SWAP3 POP SWAP3 SWAP1 POP JUMP JUMPDEST PUSH2 0x716 DUP2 PUSH2 0x85E JUMP JUMPDEST DUP3 MSTORE POP POP JUMP JUMPDEST PUSH2 0x725 DUP2 PUSH2 0x870 JUMP JUMPDEST DUP3 MSTORE POP POP JUMP JUMPDEST PUSH2 0x734 DUP2 PUSH2 0x8A6 JUMP JUMPDEST DUP3 MSTORE POP POP JUMP JUMPDEST PUSH2 0x743 DUP2 PUSH2 0x89C JUMP JUMPDEST DUP3 MSTORE POP POP JUMP JUMPDEST PUSH1 0x0 PUSH1 0x20 DUP3 ADD SWAP1 POP PUSH2 0x75E PUSH1 0x0 DUP4 ADD DUP5 PUSH2 0x70D JUMP JUMPDEST SWAP3 SWAP2 POP POP JUMP JUMPDEST PUSH1 0x0 PUSH1 0x20 DUP3 ADD SWAP1 POP PUSH2 0x779 PUSH1 0x0 DUP4 ADD DUP5 PUSH2 0x71C JUMP JUMPDEST SWAP3 SWAP2 POP POP JUMP JUMPDEST PUSH1 0x0 PUSH1 0x20 DUP3 ADD SWAP1 POP PUSH2 0x794 PUSH1 0x0 DUP4 ADD DUP5 PUSH2 0x72B JUMP JUMPDEST SWAP3 SWAP2 POP POP JUMP JUMPDEST PUSH1 0x0 PUSH1 0x20 DUP3 ADD SWAP1 POP PUSH2 0x7AF PUSH1 0x0 DUP4 ADD DUP5 PUSH2 0x73A JUMP JUMPDEST SWAP3 SWAP2 POP POP JUMP JUMPDEST PUSH1 0x0 PUSH1 0xA0 DUP3 ADD SWAP1 POP PUSH2 0x7CA PUSH1 0x0 DUP4 ADD DUP9 PUSH2 0x73A JUMP JUMPDEST PUSH2 0x7D7 PUSH1 0x20 DUP4 ADD DUP8 PUSH2 0x73A JUMP JUMPDEST PUSH2 0x7E4 PUSH1 0x40 DUP4 ADD DUP7 PUSH2 0x73A JUMP JUMPDEST PUSH2 0x7F1 PUSH1 0x60 DUP4 ADD DUP6 PUSH2 0x73A JUMP JUMPDEST PUSH2 0x7FE PUSH1 0x80 DUP4 ADD DUP5 PUSH2 0x70D JUMP JUMPDEST SWAP7 SWAP6 POP POP POP POP POP POP JUMP JUMPDEST PUSH1 0x0 PUSH2 0x813 DUP3 PUSH2 0x89C JUMP JUMPDEST SWAP2 POP PUSH2 0x81E DUP4 PUSH2 0x89C JUMP JUMPDEST SWAP3 POP DUP3 PUSH32 0xFFFFFFFFFFFFFFFFFFFFFFFFFFFFFFFFFFFFFFFFFFFFFFFFFFFFFFFFFFFFFFFF SUB DUP3 GT ISZERO PUSH2 0x853 JUMPI PUSH2 0x852 PUSH2 0x925 JUMP JUMPDEST JUMPDEST DUP3 DUP3 ADD SWAP1 POP SWAP3 SWAP2 POP POP JUMP JUMPDEST PUSH1 0x0 PUSH2 0x869 DUP3 PUSH2 0x87C JUMP JUMPDEST SWAP1 POP SWAP2 SWAP1 POP JUMP JUMPDEST PUSH1 0x0 DUP2 ISZERO ISZERO SWAP1 POP SWAP2 SWAP1 POP JUMP JUMPDEST PUSH1 0x0 PUSH20 0xFFFFFFFFFFFFFFFFFFFFFFFFFFFFFFFFFFFFFFFF DUP3 AND SWAP1 POP SWAP2 SWAP1 POP JUMP JUMPDEST PUSH1 0x0 DUP2 SWAP1 POP SWAP2 SWAP1 POP JUMP JUMPDEST PUSH1 0x0 PUSH2 0x8B1 DUP3 PUSH2 0x8B8 JUMP JUMPDEST SWAP1 POP SWAP2 SWAP1 POP JUMP JUMPDEST PUSH1 0x0 PUSH2 0x8C3 DUP3 PUSH2 0x8CA JUMP JUMPDEST SWAP1 POP SWAP2 SWAP1 POP JUMP JUMPDEST PUSH1 0x0 PUSH2 0x8D5 DUP3 PUSH2 0x87C JUMP JUMPDEST SWAP1 POP SWAP2 SWAP1 POP JUMP JUMPDEST PUSH1 0x0 PUSH2 0x8E7 DUP3 PUSH2 0x89C JUMP JUMPDEST SWAP2 POP PUSH32 0xFFFFFFFFFFFFFFFFFFFFFFFFFFFFFFFFFFFFFFFFFFFFFFFFFFFFFFFFFFFFFFFF DUP3 EQ ISZERO PUSH2 0x91A JUMPI PUSH2 0x919 PUSH2 0x925 JUMP JUMPDEST JUMPDEST PUSH1 0x1 DUP3 ADD SWAP1 POP SWAP2 SWAP1 POP JUMP JUMPDEST PUSH32 0x4E487B7100000000000000000000000000000000000000000000000000000000 PUSH1 0x0 MSTORE PUSH1 0x11 PUSH1 0x4 MSTORE PUSH1 0x24 PUSH1 0x0 REVERT JUMPDEST PUSH1 0x0 DUP1 REVERT JUMPDEST PUSH2 0x962 DUP2 PUSH2 0x85E JUMP JUMPDEST DUP2 EQ PUSH2 0x96D JUMPI PUSH1 0x0 DUP1 REVERT JUMPDEST POP JUMP JUMPDEST PUSH2 0x979 DUP2 PUSH2 0x89C JUMP JUMPDEST DUP2 EQ PUSH2 0x984 JUMPI PUSH1 0x0 DUP1 REVERT JUMPDEST POP JUMP INVALID LOG2 PUSH5 0x6970667358 0x22 SLT KECCAK256 SELFDESTRUCT SAR XOR 0xBD PUSH14 0xF6B3D782B97F526F093FD608084D SSTORE LOG2 0xDB 0xC5 0xBB CODECOPY DIV 0xD1 0xCA 0x22 0xE6 0x2A SSTORE PUSH5 0x736F6C6343 STOP ADDMOD SMOD STOP CALLER "
				},
				"gasEstimates": {
					"creation": {
						"codeDepositCost": "498600",
						"executionCost": "infinite",
						"totalCost": "infinite"
					},
					"external": {
						"acesToken()": "2645",
						"currentJackpot()": "2517",
						"entriesIndex(address,uint256)": "infinite",
						"entriesPerRound(uint256,address)": "infinite",
						"isActiveAccount(address)": "5155",
						"removeAccount(address)": "7803",
						"removeEntryFromWallet(address,uint256)": "695",
						"roundEntries()": "2452",
						"roundEntry(uint256)": "2883",
						"roundNum()": "2452",
						"roundResults(uint256)": "infinite",
						"totalPayout()": "2496",
						"updateAccount(address,uint256)": "infinite"
					}
				},
				"methodIdentifiers": {
					"acesToken()": "9b3e4552",
					"currentJackpot()": "f9cee0bd",
					"entriesIndex(address,uint256)": "0d988270",
					"entriesPerRound(uint256,address)": "578e3f88",
					"isActiveAccount(address)": "5bedc390",
					"removeAccount(address)": "c4740a95",
					"removeEntryFromWallet(address,uint256)": "a59460dc",
					"roundEntries()": "76636d20",
					"roundEntry(uint256)": "b657dd65",
					"roundNum()": "119b22b3",
					"roundResults(uint256)": "ac128f4f",
					"totalPayout()": "454f7b8f",
					"updateAccount(address,uint256)": "443b80a1"
				}
			},
			"storageLayout": {
				"storage": [
					{
						"astId": 109,
						"contract": "lotto.sol:ACELotto",
						"label": "currentJackpot",
						"offset": 0,
						"slot": "0",
						"type": "t_uint256"
					},
					{
						"astId": 111,
						"contract": "lotto.sol:ACELotto",
						"label": "roundEntries",
						"offset": 0,
						"slot": "1",
						"type": "t_uint256"
					},
					{
						"astId": 113,
						"contract": "lotto.sol:ACELotto",
						"label": "roundNum",
						"offset": 0,
						"slot": "2",
						"type": "t_uint256"
					},
					{
						"astId": 115,
						"contract": "lotto.sol:ACELotto",
						"label": "totalPayout",
						"offset": 0,
						"slot": "3",
						"type": "t_uint256"
					},
					{
						"astId": 118,
						"contract": "lotto.sol:ACELotto",
						"label": "acesToken",
						"offset": 0,
						"slot": "4",
						"type": "t_contract(IERC20)77"
					},
					{
						"astId": 134,
						"contract": "lotto.sol:ACELotto",
						"label": "roundResults",
						"offset": 0,
						"slot": "5",
						"type": "t_mapping(t_uint256,t_struct(Results)129_storage)"
					},
					{
						"astId": 138,
						"contract": "lotto.sol:ACELotto",
						"label": "roundEntry",
						"offset": 0,
						"slot": "6",
						"type": "t_mapping(t_uint256,t_address)"
					},
					{
						"astId": 144,
						"contract": "lotto.sol:ACELotto",
						"label": "entriesPerRound",
						"offset": 0,
						"slot": "7",
						"type": "t_mapping(t_uint256,t_mapping(t_address,t_uint256))"
					},
					{
						"astId": 149,
						"contract": "lotto.sol:ACELotto",
						"label": "entriesIndex",
						"offset": 0,
						"slot": "8",
						"type": "t_mapping(t_address,t_array(t_uint256)dyn_storage)"
					}
				],
				"types": {
					"t_address": {
						"encoding": "inplace",
						"label": "address",
						"numberOfBytes": "20"
					},
					"t_array(t_uint256)dyn_storage": {
						"base": "t_uint256",
						"encoding": "dynamic_array",
						"label": "uint256[]",
						"numberOfBytes": "32"
					},
					"t_contract(IERC20)77": {
						"encoding": "inplace",
						"label": "contract IERC20",
						"numberOfBytes": "20"
					},
					"t_mapping(t_address,t_array(t_uint256)dyn_storage)": {
						"encoding": "mapping",
						"key": "t_address",
						"label": "mapping(address => uint256[])",
						"numberOfBytes": "32",
						"value": "t_array(t_uint256)dyn_storage"
					},
					"t_mapping(t_address,t_uint256)": {
						"encoding": "mapping",
						"key": "t_address",
						"label": "mapping(address => uint256)",
						"numberOfBytes": "32",
						"value": "t_uint256"
					},
					"t_mapping(t_uint256,t_address)": {
						"encoding": "mapping",
						"key": "t_uint256",
						"label": "mapping(uint256 => address)",
						"numberOfBytes": "32",
						"value": "t_address"
					},
					"t_mapping(t_uint256,t_mapping(t_address,t_uint256))": {
						"encoding": "mapping",
						"key": "t_uint256",
						"label": "mapping(uint256 => mapping(address => uint256))",
						"numberOfBytes": "32",
						"value": "t_mapping(t_address,t_uint256)"
					},
					"t_mapping(t_uint256,t_struct(Results)129_storage)": {
						"encoding": "mapping",
						"key": "t_uint256",
						"label": "mapping(uint256 => struct ACELotto.Results)",
						"numberOfBytes": "32",
						"value": "t_struct(Results)129_storage"
					},
					"t_struct(Results)129_storage": {
						"encoding": "inplace",
						"label": "struct ACELotto.Results",
						"members": [
							{
								"astId": 120,
								"contract": "lotto.sol:ACELotto",
								"label": "totalEntries",
								"offset": 0,
								"slot": "0",
								"type": "t_uint256"
							},
							{
								"astId": 122,
								"contract": "lotto.sol:ACELotto",
								"label": "winningNumber",
								"offset": 0,
								"slot": "1",
								"type": "t_uint256"
							},
							{
								"astId": 124,
								"contract": "lotto.sol:ACELotto",
								"label": "payout",
								"offset": 0,
								"slot": "2",
								"type": "t_uint256"
							},
							{
								"astId": 126,
								"contract": "lotto.sol:ACELotto",
								"label": "endTime",
								"offset": 0,
								"slot": "3",
								"type": "t_uint256"
							},
							{
								"astId": 128,
								"contract": "lotto.sol:ACELotto",
								"label": "winningAddress",
								"offset": 0,
								"slot": "4",
								"type": "t_address"
							}
						],
						"numberOfBytes": "160"
					},
					"t_uint256": {
						"encoding": "inplace",
						"label": "uint256",
						"numberOfBytes": "32"
					}
				}
			},
			"userdoc": {
				"kind": "user",
				"methods": {},
				"version": 1
			}
		}
	}
}