{
	"lotto.sol": {
		"ACELotto": {
			"abi": [
				{
					"inputs": [
						{
							"internalType": "address",
							"name": "_aces",
							"type": "address"
						}
					],
					"stateMutability": "nonpayable",
					"type": "constructor"
				},
				{
					"anonymous": false,
					"inputs": [
						{
							"indexed": false,
							"internalType": "address",
							"name": "winner",
							"type": "address"
						},
						{
							"indexed": false,
							"internalType": "uint256",
							"name": "amount",
							"type": "uint256"
						}
					],
					"name": "LotteryWon",
					"type": "event"
				},
				{
					"anonymous": false,
					"inputs": [
						{
							"indexed": true,
							"internalType": "address",
							"name": "previousOwner",
							"type": "address"
						},
						{
							"indexed": true,
							"internalType": "address",
							"name": "newOwner",
							"type": "address"
						}
					],
					"name": "OwnershipTransferred",
					"type": "event"
				},
				{
					"inputs": [],
					"name": "acesToken",
					"outputs": [
						{
							"internalType": "contract IERC20",
							"name": "",
							"type": "address"
						}
					],
					"stateMutability": "view",
					"type": "function"
				},
				{
					"inputs": [],
					"name": "currentJackpot",
					"outputs": [
						{
							"internalType": "uint256",
							"name": "",
							"type": "uint256"
						}
					],
					"stateMutability": "view",
					"type": "function"
				},
				{
					"inputs": [
						{
							"internalType": "address",
							"name": "",
							"type": "address"
						},
						{
							"internalType": "uint256",
							"name": "",
							"type": "uint256"
						}
					],
					"name": "entriesIndex",
					"outputs": [
						{
							"internalType": "uint256",
							"name": "",
							"type": "uint256"
						}
					],
					"stateMutability": "view",
					"type": "function"
				},
				{
					"inputs": [],
					"name": "getUniqueAddresses",
					"outputs": [
						{
							"internalType": "uint256",
							"name": "counter",
							"type": "uint256"
						}
					],
					"stateMutability": "view",
					"type": "function"
				},
				{
					"inputs": [
						{
							"internalType": "address",
							"name": "account",
							"type": "address"
						}
					],
					"name": "isActiveAccount",
					"outputs": [
						{
							"internalType": "bool",
							"name": "",
							"type": "bool"
						}
					],
					"stateMutability": "view",
					"type": "function"
				},
				{
					"inputs": [],
					"name": "owner",
					"outputs": [
						{
							"internalType": "address",
							"name": "",
							"type": "address"
						}
					],
					"stateMutability": "view",
					"type": "function"
				},
				{
					"inputs": [],
					"name": "pickWinner",
					"outputs": [],
					"stateMutability": "nonpayable",
					"type": "function"
				},
				{
					"inputs": [
						{
							"internalType": "address",
							"name": "account",
							"type": "address"
						}
					],
					"name": "removeAccount",
					"outputs": [],
					"stateMutability": "nonpayable",
					"type": "function"
				},
				{
					"inputs": [
						{
							"internalType": "address",
							"name": "account",
							"type": "address"
						},
						{
							"internalType": "uint256",
							"name": "amount",
							"type": "uint256"
						}
					],
					"name": "removeEntryFromWallet",
					"outputs": [],
					"stateMutability": "nonpayable",
					"type": "function"
				},
				{
					"inputs": [],
					"name": "renounceOwnership",
					"outputs": [],
					"stateMutability": "nonpayable",
					"type": "function"
				},
				{
					"inputs": [
						{
							"internalType": "uint256",
							"name": "startIndex",
							"type": "uint256"
						},
						{
							"internalType": "uint256",
							"name": "endIndex",
							"type": "uint256"
						}
					],
					"name": "resultLog",
					"outputs": [
						{
							"components": [
								{
									"internalType": "uint256",
									"name": "totalEntries",
									"type": "uint256"
								},
								{
									"internalType": "uint256",
									"name": "winningNumber",
									"type": "uint256"
								},
								{
									"internalType": "uint256",
									"name": "payout",
									"type": "uint256"
								},
								{
									"internalType": "uint256",
									"name": "endTime",
									"type": "uint256"
								},
								{
									"internalType": "address",
									"name": "winningAddress",
									"type": "address"
								}
							],
							"internalType": "struct ACELotto.Results[]",
							"name": "log",
							"type": "tuple[]"
						}
					],
					"stateMutability": "view",
					"type": "function"
				},
				{
					"inputs": [],
					"name": "roundEntries",
					"outputs": [
						{
							"internalType": "uint256",
							"name": "",
							"type": "uint256"
						}
					],
					"stateMutability": "view",
					"type": "function"
				},
				{
					"inputs": [
						{
							"internalType": "uint256",
							"name": "",
							"type": "uint256"
						}
					],
					"name": "roundEntry",
					"outputs": [
						{
							"internalType": "address",
							"name": "",
							"type": "address"
						}
					],
					"stateMutability": "view",
					"type": "function"
				},
				{
					"inputs": [],
					"name": "roundNum",
					"outputs": [
						{
							"internalType": "uint256",
							"name": "",
							"type": "uint256"
						}
					],
					"stateMutability": "view",
					"type": "function"
				},
				{
					"inputs": [
						{
							"internalType": "uint256",
							"name": "",
							"type": "uint256"
						}
					],
					"name": "roundResults",
					"outputs": [
						{
							"internalType": "uint256",
							"name": "totalEntries",
							"type": "uint256"
						},
						{
							"internalType": "uint256",
							"name": "winningNumber",
							"type": "uint256"
						},
						{
							"internalType": "uint256",
							"name": "payout",
							"type": "uint256"
						},
						{
							"internalType": "uint256",
							"name": "endTime",
							"type": "uint256"
						},
						{
							"internalType": "address",
							"name": "winningAddress",
							"type": "address"
						}
					],
					"stateMutability": "view",
					"type": "function"
				},
				{
					"inputs": [],
					"name": "totalPayout",
					"outputs": [
						{
							"internalType": "uint256",
							"name": "",
							"type": "uint256"
						}
					],
					"stateMutability": "view",
					"type": "function"
				},
				{
					"inputs": [
						{
							"internalType": "address",
							"name": "newOwner",
							"type": "address"
						}
					],
					"name": "transferOwnership",
					"outputs": [],
					"stateMutability": "nonpayable",
					"type": "function"
				},
				{
					"inputs": [
						{
							"internalType": "address",
							"name": "account",
							"type": "address"
						},
						{
							"internalType": "uint256",
							"name": "amount",
							"type": "uint256"
						}
					],
					"name": "updateAccount",
					"outputs": [],
					"stateMutability": "nonpayable",
					"type": "function"
				},
				{
					"inputs": [
						{
							"internalType": "address",
							"name": "account",
							"type": "address"
						}
					],
					"name": "userEntries",
					"outputs": [
						{
							"internalType": "uint256",
							"name": "",
							"type": "uint256"
						}
					],
					"stateMutability": "view",
					"type": "function"
				}
			],
			"devdoc": {
				"kind": "dev",
				"methods": {
					"owner()": {
						"details": "Returns the address of the current owner."
					},
					"renounceOwnership()": {
						"details": "Leaves the contract without owner. It will not be possible to call `onlyOwner` functions anymore. Can only be called by the current owner. NOTE: Renouncing ownership will leave the contract without an owner, thereby removing any functionality that is only available to the owner."
					},
					"transferOwnership(address)": {
						"details": "Transfers ownership of the contract to a new account (`newOwner`). Can only be called by the current owner."
					}
				},
				"version": 1
			},
			"evm": {
				"assembly": "    /* \"lotto.sol\":595:4592  contract ACELotto is Ownable {   \r... */\n  mstore(0x40, 0x80)\n    /* \"lotto.sol\":1172:1242  constructor(address _aces){\r... */\n  callvalue\n  dup1\n  iszero\n  tag_1\n  jumpi\n  0x00\n  dup1\n  revert\ntag_1:\n  pop\n  mload(0x40)\n  sub(codesize, bytecodeSize)\n  dup1\n  bytecodeSize\n  dup4\n  codecopy\n  dup2\n  dup2\n  add\n  0x40\n  mstore\n  dup2\n  add\n  swap1\n  tag_2\n  swap2\n  swap1\n  tag_3\n  jump\t// in\ntag_2:\n    /* \"https://github.com/OpenZeppelin/openzeppelin-contracts/blob/master/contracts/access/Ownable.sol\":921:953  _transferOwnership(_msgSender()) */\n  tag_7\n    /* \"https://github.com/OpenZeppelin/openzeppelin-contracts/blob/master/contracts/access/Ownable.sol\":940:952  _msgSender() */\n  tag_8\n    /* \"https://github.com/OpenZeppelin/openzeppelin-contracts/blob/master/contracts/access/Ownable.sol\":940:950  _msgSender */\n  shl(0x20, tag_9)\n    /* \"https://github.com/OpenZeppelin/openzeppelin-contracts/blob/master/contracts/access/Ownable.sol\":940:952  _msgSender() */\n  0x20\n  shr\n  jump\t// in\ntag_8:\n    /* \"https://github.com/OpenZeppelin/openzeppelin-contracts/blob/master/contracts/access/Ownable.sol\":921:939  _transferOwnership */\n  shl(0x20, tag_10)\n    /* \"https://github.com/OpenZeppelin/openzeppelin-contracts/blob/master/contracts/access/Ownable.sol\":921:953  _transferOwnership(_msgSender()) */\n  0x20\n  shr\n  jump\t// in\ntag_7:\n    /* \"lotto.sol\":1228:1233  _aces */\n  dup1\n    /* \"lotto.sol\":1209:1218  acesToken */\n  0x04\n  0x00\n    /* \"lotto.sol\":1209:1234  acesToken = IERC20(_aces) */\n  0x0100\n  exp\n  dup2\n  sload\n  dup2\n  0xffffffffffffffffffffffffffffffffffffffff\n  mul\n  not\n  and\n  swap1\n  dup4\n  0xffffffffffffffffffffffffffffffffffffffff\n  and\n  mul\n  or\n  swap1\n  sstore\n  pop\n    /* \"lotto.sol\":1172:1242  constructor(address _aces){\r... */\n  pop\n    /* \"lotto.sol\":595:4592  contract ACELotto is Ownable {   \r... */\n  jump(tag_12)\n    /* \"https://github.com/OpenZeppelin/openzeppelin-contracts/blob/master/contracts/utils/Context.sol\":640:736  function _msgSender() internal view virtual returns (address) {... */\ntag_9:\n    /* \"https://github.com/OpenZeppelin/openzeppelin-contracts/blob/master/contracts/utils/Context.sol\":693:700  address */\n  0x00\n    /* \"https://github.com/OpenZeppelin/openzeppelin-contracts/blob/master/contracts/utils/Context.sol\":719:729  msg.sender */\n  caller\n    /* \"https://github.com/OpenZeppelin/openzeppelin-contracts/blob/master/contracts/utils/Context.sol\":712:729  return msg.sender */\n  swap1\n  pop\n    /* \"https://github.com/OpenZeppelin/openzeppelin-contracts/blob/master/contracts/utils/Context.sol\":640:736  function _msgSender() internal view virtual returns (address) {... */\n  swap1\n  jump\t// out\n    /* \"https://github.com/OpenZeppelin/openzeppelin-contracts/blob/master/contracts/access/Ownable.sol\":2270:2457  function _transferOwnership(address newOwner) internal virtual {... */\ntag_10:\n    /* \"https://github.com/OpenZeppelin/openzeppelin-contracts/blob/master/contracts/access/Ownable.sol\":2343:2359  address oldOwner */\n  0x00\n    /* \"https://github.com/OpenZeppelin/openzeppelin-contracts/blob/master/contracts/access/Ownable.sol\":2362:2368  _owner */\n  dup1\n  0x00\n  swap1\n  sload\n  swap1\n  0x0100\n  exp\n  swap1\n  div\n  0xffffffffffffffffffffffffffffffffffffffff\n  and\n    /* \"https://github.com/OpenZeppelin/openzeppelin-contracts/blob/master/contracts/access/Ownable.sol\":2343:2368  address oldOwner = _owner */\n  swap1\n  pop\n    /* \"https://github.com/OpenZeppelin/openzeppelin-contracts/blob/master/contracts/access/Ownable.sol\":2387:2395  newOwner */\n  dup2\n    /* \"https://github.com/OpenZeppelin/openzeppelin-contracts/blob/master/contracts/access/Ownable.sol\":2378:2384  _owner */\n  0x00\n  dup1\n    /* \"https://github.com/OpenZeppelin/openzeppelin-contracts/blob/master/contracts/access/Ownable.sol\":2378:2395  _owner = newOwner */\n  0x0100\n  exp\n  dup2\n  sload\n  dup2\n  0xffffffffffffffffffffffffffffffffffffffff\n  mul\n  not\n  and\n  swap1\n  dup4\n  0xffffffffffffffffffffffffffffffffffffffff\n  and\n  mul\n  or\n  swap1\n  sstore\n  pop\n    /* \"https://github.com/OpenZeppelin/openzeppelin-contracts/blob/master/contracts/access/Ownable.sol\":2441:2449  newOwner */\n  dup2\n    /* \"https://github.com/OpenZeppelin/openzeppelin-contracts/blob/master/contracts/access/Ownable.sol\":2410:2450  OwnershipTransferred(oldOwner, newOwner) */\n  0xffffffffffffffffffffffffffffffffffffffff\n  and\n    /* \"https://github.com/OpenZeppelin/openzeppelin-contracts/blob/master/contracts/access/Ownable.sol\":2431:2439  oldOwner */\n  dup2\n    /* \"https://github.com/OpenZeppelin/openzeppelin-contracts/blob/master/contracts/access/Ownable.sol\":2410:2450  OwnershipTransferred(oldOwner, newOwner) */\n  0xffffffffffffffffffffffffffffffffffffffff\n  and\n  0x8be0079c531659141344cd1fd0a4f28419497f9722a3daafe3b4186f6b6457e0\n  mload(0x40)\n  mload(0x40)\n  dup1\n  swap2\n  sub\n  swap1\n  log3\n    /* \"https://github.com/OpenZeppelin/openzeppelin-contracts/blob/master/contracts/access/Ownable.sol\":2333:2457  {... */\n  pop\n    /* \"https://github.com/OpenZeppelin/openzeppelin-contracts/blob/master/contracts/access/Ownable.sol\":2270:2457  function _transferOwnership(address newOwner) internal virtual {... */\n  pop\n  jump\t// out\n    /* \"#utility.yul\":7:150   */\ntag_16:\n    /* \"#utility.yul\":64:69   */\n  0x00\n    /* \"#utility.yul\":95:101   */\n  dup2\n    /* \"#utility.yul\":89:102   */\n  mload\n    /* \"#utility.yul\":80:102   */\n  swap1\n  pop\n    /* \"#utility.yul\":111:144   */\n  tag_18\n    /* \"#utility.yul\":138:143   */\n  dup2\n    /* \"#utility.yul\":111:144   */\n  tag_19\n  jump\t// in\ntag_18:\n    /* \"#utility.yul\":7:150   */\n  swap3\n  swap2\n  pop\n  pop\n  jump\t// out\n    /* \"#utility.yul\":156:507   */\ntag_3:\n    /* \"#utility.yul\":226:232   */\n  0x00\n    /* \"#utility.yul\":275:277   */\n  0x20\n    /* \"#utility.yul\":263:272   */\n  dup3\n    /* \"#utility.yul\":254:261   */\n  dup5\n    /* \"#utility.yul\":250:273   */\n  sub\n    /* \"#utility.yul\":246:278   */\n  slt\n    /* \"#utility.yul\":243:362   */\n  iszero\n  tag_21\n  jumpi\n    /* \"#utility.yul\":281:360   */\n  tag_22\n  tag_23\n  jump\t// in\ntag_22:\n    /* \"#utility.yul\":243:362   */\ntag_21:\n    /* \"#utility.yul\":401:402   */\n  0x00\n    /* \"#utility.yul\":426:490   */\n  tag_24\n    /* \"#utility.yul\":482:489   */\n  dup5\n    /* \"#utility.yul\":473:479   */\n  dup3\n    /* \"#utility.yul\":462:471   */\n  dup6\n    /* \"#utility.yul\":458:480   */\n  add\n    /* \"#utility.yul\":426:490   */\n  tag_16\n  jump\t// in\ntag_24:\n    /* \"#utility.yul\":416:490   */\n  swap2\n  pop\n    /* \"#utility.yul\":372:500   */\n  pop\n    /* \"#utility.yul\":156:507   */\n  swap3\n  swap2\n  pop\n  pop\n  jump\t// out\n    /* \"#utility.yul\":594:690   */\ntag_27:\n    /* \"#utility.yul\":631:638   */\n  0x00\n    /* \"#utility.yul\":660:684   */\n  tag_29\n    /* \"#utility.yul\":678:683   */\n  dup3\n    /* \"#utility.yul\":660:684   */\n  tag_30\n  jump\t// in\ntag_29:\n    /* \"#utility.yul\":649:684   */\n  swap1\n  pop\n    /* \"#utility.yul\":594:690   */\n  swap2\n  swap1\n  pop\n  jump\t// out\n    /* \"#utility.yul\":696:822   */\ntag_30:\n    /* \"#utility.yul\":733:740   */\n  0x00\n    /* \"#utility.yul\":773:815   */\n  0xffffffffffffffffffffffffffffffffffffffff\n    /* \"#utility.yul\":766:771   */\n  dup3\n    /* \"#utility.yul\":762:816   */\n  and\n    /* \"#utility.yul\":751:816   */\n  swap1\n  pop\n    /* \"#utility.yul\":696:822   */\n  swap2\n  swap1\n  pop\n  jump\t// out\n    /* \"#utility.yul\":951:1068   */\ntag_23:\n    /* \"#utility.yul\":1060:1061   */\n  0x00\n    /* \"#utility.yul\":1057:1058   */\n  dup1\n    /* \"#utility.yul\":1050:1062   */\n  revert\n    /* \"#utility.yul\":1074:1196   */\ntag_19:\n    /* \"#utility.yul\":1147:1171   */\n  tag_36\n    /* \"#utility.yul\":1165:1170   */\n  dup2\n    /* \"#utility.yul\":1147:1171   */\n  tag_27\n  jump\t// in\ntag_36:\n    /* \"#utility.yul\":1140:1145   */\n  dup2\n    /* \"#utility.yul\":1137:1172   */\n  eq\n    /* \"#utility.yul\":1127:1190   */\n  tag_37\n  jumpi\n    /* \"#utility.yul\":1186:1187   */\n  0x00\n    /* \"#utility.yul\":1183:1184   */\n  dup1\n    /* \"#utility.yul\":1176:1188   */\n  revert\n    /* \"#utility.yul\":1127:1190   */\ntag_37:\n    /* \"#utility.yul\":1074:1196   */\n  pop\n  jump\t// out\n    /* \"lotto.sol\":595:4592  contract ACELotto is Ownable {   \r... */\ntag_12:\n  dataSize(sub_0)\n  dup1\n  dataOffset(sub_0)\n  0x00\n  codecopy\n  0x00\n  return\nstop\n\nsub_0: assembly {\n        /* \"lotto.sol\":595:4592  contract ACELotto is Ownable {   \r... */\n      mstore(0x40, 0x80)\n      callvalue\n      dup1\n      iszero\n      tag_1\n      jumpi\n      0x00\n      dup1\n      revert\n    tag_1:\n      pop\n      jumpi(tag_2, lt(calldatasize, 0x04))\n      shr(0xe0, calldataload(0x00))\n      dup1\n      0x8da5cb5b\n      gt\n      tag_22\n      jumpi\n      dup1\n      0xb657dd65\n      gt\n      tag_23\n      jumpi\n      dup1\n      0xb657dd65\n      eq\n      tag_17\n      jumpi\n      dup1\n      0xbc15cdf0\n      eq\n      tag_18\n      jumpi\n      dup1\n      0xc4740a95\n      eq\n      tag_19\n      jumpi\n      dup1\n      0xf2fde38b\n      eq\n      tag_20\n      jumpi\n      dup1\n      0xf9cee0bd\n      eq\n      tag_21\n      jumpi\n      jump(tag_2)\n    tag_23:\n      dup1\n      0x8da5cb5b\n      eq\n      tag_12\n      jumpi\n      dup1\n      0x9b3e4552\n      eq\n      tag_13\n      jumpi\n      dup1\n      0x9f10a990\n      eq\n      tag_14\n      jumpi\n      dup1\n      0xa59460dc\n      eq\n      tag_15\n      jumpi\n      dup1\n      0xac128f4f\n      eq\n      tag_16\n      jumpi\n      jump(tag_2)\n    tag_22:\n      dup1\n      0x454f7b8f\n      gt\n      tag_24\n      jumpi\n      dup1\n      0x454f7b8f\n      eq\n      tag_7\n      jumpi\n      dup1\n      0x5bedc390\n      eq\n      tag_8\n      jumpi\n      dup1\n      0x5d495aea\n      eq\n      tag_9\n      jumpi\n      dup1\n      0x715018a6\n      eq\n      tag_10\n      jumpi\n      dup1\n      0x76636d20\n      eq\n      tag_11\n      jumpi\n      jump(tag_2)\n    tag_24:\n      dup1\n      0x0d988270\n      eq\n      tag_3\n      jumpi\n      dup1\n      0x119b22b3\n      eq\n      tag_4\n      jumpi\n      dup1\n      0x3b98bc65\n      eq\n      tag_5\n      jumpi\n      dup1\n      0x443b80a1\n      eq\n      tag_6\n      jumpi\n    tag_2:\n      0x00\n      dup1\n      revert\n        /* \"lotto.sol\":1057:1106  mapping(address => uint256[]) public entriesIndex */\n    tag_3:\n      tag_25\n      0x04\n      dup1\n      calldatasize\n      sub\n      dup2\n      add\n      swap1\n      tag_26\n      swap2\n      swap1\n      tag_27\n      jump\t// in\n    tag_26:\n      tag_28\n      jump\t// in\n    tag_25:\n      mload(0x40)\n      tag_29\n      swap2\n      swap1\n      tag_30\n      jump\t// in\n    tag_29:\n      mload(0x40)\n      dup1\n      swap2\n      sub\n      swap1\n      return\n        /* \"lotto.sol\":668:691  uint256 public roundNum */\n    tag_4:\n      tag_31\n      tag_32\n      jump\t// in\n    tag_31:\n      mload(0x40)\n      tag_33\n      swap2\n      swap1\n      tag_30\n      jump\t// in\n    tag_33:\n      mload(0x40)\n      dup1\n      swap2\n      sub\n      swap1\n      return\n        /* \"lotto.sol\":3924:4208  function getUniqueAddresses() public view returns (uint256 counter) {\r... */\n    tag_5:\n      tag_34\n      tag_35\n      jump\t// in\n    tag_34:\n      mload(0x40)\n      tag_36\n      swap2\n      swap1\n      tag_30\n      jump\t// in\n    tag_36:\n      mload(0x40)\n      dup1\n      swap2\n      sub\n      swap1\n      return\n        /* \"lotto.sol\":1250:1522  function updateAccount(address account, uint256 amount) external{\r... */\n    tag_6:\n      tag_37\n      0x04\n      dup1\n      calldatasize\n      sub\n      dup2\n      add\n      swap1\n      tag_38\n      swap2\n      swap1\n      tag_27\n      jump\t// in\n    tag_38:\n      tag_39\n      jump\t// in\n    tag_37:\n      stop\n        /* \"lotto.sol\":698:724  uint256 public totalPayout */\n    tag_7:\n      tag_40\n      tag_41\n      jump\t// in\n    tag_40:\n      mload(0x40)\n      tag_42\n      swap2\n      swap1\n      tag_30\n      jump\t// in\n    tag_42:\n      mload(0x40)\n      dup1\n      swap2\n      sub\n      swap1\n      return\n        /* \"lotto.sol\":2291:2460  function isActiveAccount(address account) external view returns(bool){\r... */\n    tag_8:\n      tag_43\n      0x04\n      dup1\n      calldatasize\n      sub\n      dup2\n      add\n      swap1\n      tag_44\n      swap2\n      swap1\n      tag_45\n      jump\t// in\n    tag_44:\n      tag_46\n      jump\t// in\n    tag_43:\n      mload(0x40)\n      tag_47\n      swap2\n      swap1\n      tag_48\n      jump\t// in\n    tag_47:\n      mload(0x40)\n      dup1\n      swap2\n      sub\n      swap1\n      return\n        /* \"lotto.sol\":2468:3157  function pickWinner() external onlyOwner {\r... */\n    tag_9:\n      tag_49\n      tag_50\n      jump\t// in\n    tag_49:\n      stop\n        /* \"https://github.com/OpenZeppelin/openzeppelin-contracts/blob/master/contracts/access/Ownable.sol\":1668:1769  function renounceOwnership() public virtual onlyOwner {... */\n    tag_10:\n      tag_51\n      tag_52\n      jump\t// in\n    tag_51:\n      stop\n        /* \"lotto.sol\":634:661  uint256 public roundEntries */\n    tag_11:\n      tag_53\n      tag_54\n      jump\t// in\n    tag_53:\n      mload(0x40)\n      tag_55\n      swap2\n      swap1\n      tag_30\n      jump\t// in\n    tag_55:\n      mload(0x40)\n      dup1\n      swap2\n      sub\n      swap1\n      return\n        /* \"https://github.com/OpenZeppelin/openzeppelin-contracts/blob/master/contracts/access/Ownable.sol\":1036:1121  function owner() public view virtual returns (address) {... */\n    tag_12:\n      tag_56\n      tag_57\n      jump\t// in\n    tag_56:\n      mload(0x40)\n      tag_58\n      swap2\n      swap1\n      tag_59\n      jump\t// in\n    tag_58:\n      mload(0x40)\n      dup1\n      swap2\n      sub\n      swap1\n      return\n        /* \"lotto.sol\":737:760  IERC20 public acesToken */\n    tag_13:\n      tag_60\n      tag_61\n      jump\t// in\n    tag_60:\n      mload(0x40)\n      tag_62\n      swap2\n      swap1\n      tag_63\n      jump\t// in\n    tag_62:\n      mload(0x40)\n      dup1\n      swap2\n      sub\n      swap1\n      return\n        /* \"lotto.sol\":3289:3411  function userEntries(address account) public view returns (uint256) {\r... */\n    tag_14:\n      tag_64\n      0x04\n      dup1\n      calldatasize\n      sub\n      dup2\n      add\n      swap1\n      tag_65\n      swap2\n      swap1\n      tag_45\n      jump\t// in\n    tag_65:\n      tag_66\n      jump\t// in\n    tag_64:\n      mload(0x40)\n      tag_67\n      swap2\n      swap1\n      tag_30\n      jump\t// in\n    tag_67:\n      mload(0x40)\n      dup1\n      swap2\n      sub\n      swap1\n      return\n        /* \"lotto.sol\":1530:2106  function removeEntryFromWallet(address account, uint256 amount) public {\r... */\n    tag_15:\n      tag_68\n      0x04\n      dup1\n      calldatasize\n      sub\n      dup2\n      add\n      swap1\n      tag_69\n      swap2\n      swap1\n      tag_27\n      jump\t// in\n    tag_69:\n      tag_70\n      jump\t// in\n    tag_68:\n      stop\n        /* \"lotto.sol\":951:998  mapping(uint256 => Results) public roundResults */\n    tag_16:\n      tag_71\n      0x04\n      dup1\n      calldatasize\n      sub\n      dup2\n      add\n      swap1\n      tag_72\n      swap2\n      swap1\n      tag_73\n      jump\t// in\n    tag_72:\n      tag_74\n      jump\t// in\n    tag_71:\n      mload(0x40)\n      tag_75\n      swap6\n      swap5\n      swap4\n      swap3\n      swap2\n      swap1\n      tag_76\n      jump\t// in\n    tag_75:\n      mload(0x40)\n      dup1\n      swap2\n      sub\n      swap1\n      return\n        /* \"lotto.sol\":1005:1050  mapping(uint256 => address) public roundEntry */\n    tag_17:\n      tag_77\n      0x04\n      dup1\n      calldatasize\n      sub\n      dup2\n      add\n      swap1\n      tag_78\n      swap2\n      swap1\n      tag_73\n      jump\t// in\n    tag_78:\n      tag_79\n      jump\t// in\n    tag_77:\n      mload(0x40)\n      tag_80\n      swap2\n      swap1\n      tag_59\n      jump\t// in\n    tag_80:\n      mload(0x40)\n      dup1\n      swap2\n      sub\n      swap1\n      return\n        /* \"lotto.sol\":3419:3916  function resultLog(uint256 startIndex, uint256 endIndex) external view returns(Results [] memory log){\r... */\n    tag_18:\n      tag_81\n      0x04\n      dup1\n      calldatasize\n      sub\n      dup2\n      add\n      swap1\n      tag_82\n      swap2\n      swap1\n      tag_83\n      jump\t// in\n    tag_82:\n      tag_84\n      jump\t// in\n    tag_81:\n      mload(0x40)\n      tag_85\n      swap2\n      swap1\n      tag_86\n      jump\t// in\n    tag_85:\n      mload(0x40)\n      dup1\n      swap2\n      sub\n      swap1\n      return\n        /* \"lotto.sol\":2114:2283  function removeAccount(address account) external{\r... */\n    tag_19:\n      tag_87\n      0x04\n      dup1\n      calldatasize\n      sub\n      dup2\n      add\n      swap1\n      tag_88\n      swap2\n      swap1\n      tag_45\n      jump\t// in\n    tag_88:\n      tag_89\n      jump\t// in\n    tag_87:\n      stop\n        /* \"https://github.com/OpenZeppelin/openzeppelin-contracts/blob/master/contracts/access/Ownable.sol\":1918:2116  function transferOwnership(address newOwner) public virtual onlyOwner {... */\n    tag_20:\n      tag_90\n      0x04\n      dup1\n      calldatasize\n      sub\n      dup2\n      add\n      swap1\n      tag_91\n      swap2\n      swap1\n      tag_45\n      jump\t// in\n    tag_91:\n      tag_92\n      jump\t// in\n    tag_90:\n      stop\n        /* \"lotto.sol\":3165:3281  function currentJackpot() public view returns (uint256) {\r... */\n    tag_21:\n      tag_93\n      tag_94\n      jump\t// in\n    tag_93:\n      mload(0x40)\n      tag_95\n      swap2\n      swap1\n      tag_30\n      jump\t// in\n    tag_95:\n      mload(0x40)\n      dup1\n      swap2\n      sub\n      swap1\n      return\n        /* \"lotto.sol\":1057:1106  mapping(address => uint256[]) public entriesIndex */\n    tag_28:\n      mstore(0x20, 0x07)\n      dup2\n      0x00\n      mstore\n      keccak256(0x00, 0x40)\n      dup2\n      dup2\n      sload\n      dup2\n      lt\n      tag_96\n      jumpi\n      0x00\n      dup1\n      revert\n    tag_96:\n      swap1\n      0x00\n      mstore\n      keccak256(0x00, 0x20)\n      add\n      0x00\n      swap2\n      pop\n      swap2\n      pop\n      pop\n      sload\n      dup2\n      jump\t// out\n        /* \"lotto.sol\":668:691  uint256 public roundNum */\n    tag_32:\n      sload(0x02)\n      dup2\n      jump\t// out\n        /* \"lotto.sol\":3924:4208  function getUniqueAddresses() public view returns (uint256 counter) {\r... */\n    tag_35:\n        /* \"lotto.sol\":3975:3990  uint256 counter */\n      0x00\n        /* \"lotto.sol\":4025:4034  uint256 i */\n      dup1\n        /* \"lotto.sol\":4021:4201  for(uint256 i; i < roundEntries; i++){\r... */\n    tag_99:\n        /* \"lotto.sol\":4040:4052  roundEntries */\n      sload(0x01)\n        /* \"lotto.sol\":4036:4037  i */\n      dup2\n        /* \"lotto.sol\":4036:4052  i < roundEntries */\n      lt\n        /* \"lotto.sol\":4021:4201  for(uint256 i; i < roundEntries; i++){\r... */\n      iszero\n      tag_100\n      jumpi\n        /* \"lotto.sol\":4073:4085  address user */\n      0x00\n        /* \"lotto.sol\":4088:4098  roundEntry */\n      0x06\n        /* \"lotto.sol\":4088:4101  roundEntry[i] */\n      0x00\n        /* \"lotto.sol\":4099:4100  i */\n      dup4\n        /* \"lotto.sol\":4088:4101  roundEntry[i] */\n      dup2\n      mstore\n      0x20\n      add\n      swap1\n      dup2\n      mstore\n      0x20\n      add\n      0x00\n      keccak256\n      0x00\n      swap1\n      sload\n      swap1\n      0x0100\n      exp\n      swap1\n      div\n      0xffffffffffffffffffffffffffffffffffffffff\n      and\n        /* \"lotto.sol\":4073:4101  address user = roundEntry[i] */\n      swap1\n      pop\n        /* \"lotto.sol\":4124:4136  entriesIndex */\n      0x07\n        /* \"lotto.sol\":4124:4142  entriesIndex[user] */\n      0x00\n        /* \"lotto.sol\":4137:4141  user */\n      dup3\n        /* \"lotto.sol\":4124:4142  entriesIndex[user] */\n      0xffffffffffffffffffffffffffffffffffffffff\n      and\n      0xffffffffffffffffffffffffffffffffffffffff\n      and\n      dup2\n      mstore\n      0x20\n      add\n      swap1\n      dup2\n      mstore\n      0x20\n      add\n      0x00\n      keccak256\n        /* \"lotto.sol\":4143:4144  0 */\n      0x00\n        /* \"lotto.sol\":4124:4145  entriesIndex[user][0] */\n      dup2\n      sload\n      dup2\n      lt\n      tag_102\n      jumpi\n      tag_103\n      tag_104\n      jump\t// in\n    tag_103:\n    tag_102:\n      swap1\n      0x00\n      mstore\n      keccak256(0x00, 0x20)\n      add\n      sload\n        /* \"lotto.sol\":4119:4120  i */\n      dup3\n        /* \"lotto.sol\":4119:4145  i == entriesIndex[user][0] */\n      eq\n        /* \"lotto.sol\":4116:4190  if(i == entriesIndex[user][0]){\r... */\n      iszero\n      tag_106\n      jumpi\n        /* \"lotto.sol\":4165:4174  counter++ */\n      dup3\n      dup1\n      tag_107\n      swap1\n      tag_108\n      jump\t// in\n    tag_107:\n      swap4\n      pop\n      pop\n        /* \"lotto.sol\":4116:4190  if(i == entriesIndex[user][0]){\r... */\n    tag_106:\n        /* \"lotto.sol\":4058:4201  {\r... */\n      pop\n        /* \"lotto.sol\":4054:4057  i++ */\n      dup1\n      dup1\n      tag_109\n      swap1\n      tag_108\n      jump\t// in\n    tag_109:\n      swap2\n      pop\n      pop\n        /* \"lotto.sol\":4021:4201  for(uint256 i; i < roundEntries; i++){\r... */\n      jump(tag_99)\n    tag_100:\n      pop\n        /* \"lotto.sol\":3924:4208  function getUniqueAddresses() public view returns (uint256 counter) {\r... */\n      swap1\n      jump\t// out\n        /* \"lotto.sol\":1250:1522  function updateAccount(address account, uint256 amount) external{\r... */\n    tag_39:\n        /* \"lotto.sol\":1329:1338  uint256 i */\n      0x00\n        /* \"lotto.sol\":1325:1480  for(uint256 i; i < amount; i++){\r... */\n    tag_111:\n        /* \"lotto.sol\":1344:1350  amount */\n      dup2\n        /* \"lotto.sol\":1340:1341  i */\n      dup2\n        /* \"lotto.sol\":1340:1350  i < amount */\n      lt\n        /* \"lotto.sol\":1325:1480  for(uint256 i; i < amount; i++){\r... */\n      iszero\n      tag_112\n      jumpi\n        /* \"lotto.sol\":1402:1409  account */\n      dup3\n        /* \"lotto.sol\":1371:1381  roundEntry */\n      0x06\n        /* \"lotto.sol\":1371:1399  roundEntry[roundEntries + i] */\n      0x00\n        /* \"lotto.sol\":1397:1398  i */\n      dup4\n        /* \"lotto.sol\":1382:1394  roundEntries */\n      sload(0x01)\n        /* \"lotto.sol\":1382:1398  roundEntries + i */\n      tag_114\n      swap2\n      swap1\n      tag_115\n      jump\t// in\n    tag_114:\n        /* \"lotto.sol\":1371:1399  roundEntry[roundEntries + i] */\n      dup2\n      mstore\n      0x20\n      add\n      swap1\n      dup2\n      mstore\n      0x20\n      add\n      0x00\n      keccak256\n      0x00\n        /* \"lotto.sol\":1371:1409  roundEntry[roundEntries + i] = account */\n      0x0100\n      exp\n      dup2\n      sload\n      dup2\n      0xffffffffffffffffffffffffffffffffffffffff\n      mul\n      not\n      and\n      swap1\n      dup4\n      0xffffffffffffffffffffffffffffffffffffffff\n      and\n      mul\n      or\n      swap1\n      sstore\n      pop\n        /* \"lotto.sol\":1424:1436  entriesIndex */\n      0x07\n        /* \"lotto.sol\":1424:1445  entriesIndex[account] */\n      0x00\n        /* \"lotto.sol\":1437:1444  account */\n      dup5\n        /* \"lotto.sol\":1424:1445  entriesIndex[account] */\n      0xffffffffffffffffffffffffffffffffffffffff\n      and\n      0xffffffffffffffffffffffffffffffffffffffff\n      and\n      dup2\n      mstore\n      0x20\n      add\n      swap1\n      dup2\n      mstore\n      0x20\n      add\n      0x00\n      keccak256\n        /* \"lotto.sol\":1466:1467  i */\n      dup2\n        /* \"lotto.sol\":1451:1463  roundEntries */\n      sload(0x01)\n        /* \"lotto.sol\":1451:1467  roundEntries + i */\n      tag_116\n      swap2\n      swap1\n      tag_115\n      jump\t// in\n    tag_116:\n        /* \"lotto.sol\":1424:1468  entriesIndex[account].push(roundEntries + i) */\n      swap1\n      dup1\n      0x01\n      dup2\n      sload\n      add\n      dup1\n      dup3\n      sstore\n      dup1\n      swap2\n      pop\n      pop\n      0x01\n      swap1\n      sub\n      swap1\n      0x00\n      mstore\n      keccak256(0x00, 0x20)\n      add\n      0x00\n      swap1\n      swap2\n      swap1\n      swap2\n      swap1\n      swap2\n      pop\n      sstore\n        /* \"lotto.sol\":1352:1355  i++ */\n      dup1\n      dup1\n      tag_118\n      swap1\n      tag_108\n      jump\t// in\n    tag_118:\n      swap2\n      pop\n      pop\n        /* \"lotto.sol\":1325:1480  for(uint256 i; i < amount; i++){\r... */\n      jump(tag_111)\n    tag_112:\n      pop\n        /* \"lotto.sol\":1508:1514  amount */\n      dup1\n        /* \"lotto.sol\":1492:1504  roundEntries */\n      0x01\n      0x00\n        /* \"lotto.sol\":1492:1514  roundEntries += amount */\n      dup3\n      dup3\n      sload\n      tag_119\n      swap2\n      swap1\n      tag_115\n      jump\t// in\n    tag_119:\n      swap3\n      pop\n      pop\n      dup2\n      swap1\n      sstore\n      pop\n        /* \"lotto.sol\":1250:1522  function updateAccount(address account, uint256 amount) external{\r... */\n      pop\n      pop\n      jump\t// out\n        /* \"lotto.sol\":698:724  uint256 public totalPayout */\n    tag_41:\n      sload(0x03)\n      dup2\n      jump\t// out\n        /* \"lotto.sol\":2291:2460  function isActiveAccount(address account) external view returns(bool){\r... */\n    tag_46:\n        /* \"lotto.sol\":2355:2359  bool */\n      0x00\n        /* \"lotto.sol\":2371:2393  uint256 currentEntries */\n      dup1\n        /* \"lotto.sol\":2396:2416  userEntries(account) */\n      tag_121\n        /* \"lotto.sol\":2408:2415  account */\n      dup4\n        /* \"lotto.sol\":2396:2407  userEntries */\n      tag_66\n        /* \"lotto.sol\":2396:2416  userEntries(account) */\n      jump\t// in\n    tag_121:\n        /* \"lotto.sol\":2371:2416  uint256 currentEntries = userEntries(account) */\n      swap1\n      pop\n        /* \"lotto.sol\":2451:2452  0 */\n      0x00\n        /* \"lotto.sol\":2434:2448  currentEntries */\n      dup2\n        /* \"lotto.sol\":2434:2452  currentEntries > 0 */\n      gt\n        /* \"lotto.sol\":2427:2452  return currentEntries > 0 */\n      swap2\n      pop\n      pop\n        /* \"lotto.sol\":2291:2460  function isActiveAccount(address account) external view returns(bool){\r... */\n      swap2\n      swap1\n      pop\n      jump\t// out\n        /* \"lotto.sol\":2468:3157  function pickWinner() external onlyOwner {\r... */\n    tag_50:\n        /* \"https://github.com/OpenZeppelin/openzeppelin-contracts/blob/master/contracts/access/Ownable.sol\":1259:1271  _msgSender() */\n      tag_123\n        /* \"https://github.com/OpenZeppelin/openzeppelin-contracts/blob/master/contracts/access/Ownable.sol\":1259:1269  _msgSender */\n      tag_124\n        /* \"https://github.com/OpenZeppelin/openzeppelin-contracts/blob/master/contracts/access/Ownable.sol\":1259:1271  _msgSender() */\n      jump\t// in\n    tag_123:\n        /* \"https://github.com/OpenZeppelin/openzeppelin-contracts/blob/master/contracts/access/Ownable.sol\":1248:1271  owner() == _msgSender() */\n      0xffffffffffffffffffffffffffffffffffffffff\n      and\n        /* \"https://github.com/OpenZeppelin/openzeppelin-contracts/blob/master/contracts/access/Ownable.sol\":1248:1255  owner() */\n      tag_125\n        /* \"https://github.com/OpenZeppelin/openzeppelin-contracts/blob/master/contracts/access/Ownable.sol\":1248:1253  owner */\n      tag_57\n        /* \"https://github.com/OpenZeppelin/openzeppelin-contracts/blob/master/contracts/access/Ownable.sol\":1248:1255  owner() */\n      jump\t// in\n    tag_125:\n        /* \"https://github.com/OpenZeppelin/openzeppelin-contracts/blob/master/contracts/access/Ownable.sol\":1248:1271  owner() == _msgSender() */\n      0xffffffffffffffffffffffffffffffffffffffff\n      and\n      eq\n        /* \"https://github.com/OpenZeppelin/openzeppelin-contracts/blob/master/contracts/access/Ownable.sol\":1240:1308  require(owner() == _msgSender(), \"Ownable: caller is not the owner\") */\n      tag_126\n      jumpi\n      mload(0x40)\n      0x08c379a000000000000000000000000000000000000000000000000000000000\n      dup2\n      mstore\n      0x04\n      add\n      tag_127\n      swap1\n      tag_128\n      jump\t// in\n    tag_127:\n      mload(0x40)\n      dup1\n      swap2\n      sub\n      swap1\n      revert\n    tag_126:\n        /* \"lotto.sol\":2520:2534  uint256 payout */\n      0x00\n        /* \"lotto.sol\":2537:2553  currentJackpot() */\n      tag_130\n        /* \"lotto.sol\":2537:2551  currentJackpot */\n      tag_94\n        /* \"lotto.sol\":2537:2553  currentJackpot() */\n      jump\t// in\n    tag_130:\n        /* \"lotto.sol\":2520:2553  uint256 payout = currentJackpot() */\n      swap1\n      pop\n        /* \"lotto.sol\":2582:2595  75000 * 10**9 */\n      0x44364c5bb000\n        /* \"lotto.sol\":2572:2578  payout */\n      dup2\n        /* \"lotto.sol\":2572:2595  payout >= 75000 * 10**9 */\n      lt\n      iszero\n        /* \"lotto.sol\":2564:2624  require(payout >= 75000 * 10**9, \"Not enough funds to draw\") */\n      tag_131\n      jumpi\n      mload(0x40)\n      0x08c379a000000000000000000000000000000000000000000000000000000000\n      dup2\n      mstore\n      0x04\n      add\n      tag_132\n      swap1\n      tag_133\n      jump\t// in\n    tag_132:\n      mload(0x40)\n      dup1\n      swap2\n      sub\n      swap1\n      revert\n    tag_131:\n        /* \"lotto.sol\":2635:2652  uint256 winnerNum */\n      0x00\n        /* \"lotto.sol\":2666:2678  roundEntries */\n      sload(0x01)\n        /* \"lotto.sol\":2655:2663  random() */\n      tag_134\n        /* \"lotto.sol\":2655:2661  random */\n      tag_135\n        /* \"lotto.sol\":2655:2663  random() */\n      jump\t// in\n    tag_134:\n        /* \"lotto.sol\":2655:2678  random() % roundEntries */\n      tag_136\n      swap2\n      swap1\n      tag_137\n      jump\t// in\n    tag_136:\n        /* \"lotto.sol\":2635:2678  uint256 winnerNum = random() % roundEntries */\n      swap1\n      pop\n        /* \"lotto.sol\":2689:2710  address winnerAddress */\n      0x00\n        /* \"lotto.sol\":2713:2723  roundEntry */\n      0x06\n        /* \"lotto.sol\":2713:2734  roundEntry[winnerNum] */\n      0x00\n        /* \"lotto.sol\":2724:2733  winnerNum */\n      dup4\n        /* \"lotto.sol\":2713:2734  roundEntry[winnerNum] */\n      dup2\n      mstore\n      0x20\n      add\n      swap1\n      dup2\n      mstore\n      0x20\n      add\n      0x00\n      keccak256\n      0x00\n      swap1\n      sload\n      swap1\n      0x0100\n      exp\n      swap1\n      div\n      0xffffffffffffffffffffffffffffffffffffffff\n      and\n        /* \"lotto.sol\":2689:2734  address winnerAddress = roundEntry[winnerNum] */\n      swap1\n      pop\n        /* \"lotto.sol\":2772:2986  Results ({\r... */\n      mload(0x40)\n      dup1\n      0xa0\n      add\n      0x40\n      mstore\n      dup1\n        /* \"lotto.sol\":2810:2822  roundEntries */\n      sload(0x01)\n        /* \"lotto.sol\":2772:2986  Results ({\r... */\n      dup2\n      mstore\n      0x20\n      add\n        /* \"lotto.sol\":2852:2861  winnerNum */\n      dup4\n        /* \"lotto.sol\":2772:2986  Results ({\r... */\n      dup2\n      mstore\n      0x20\n      add\n        /* \"lotto.sol\":2884:2890  payout */\n      dup5\n        /* \"lotto.sol\":2772:2986  Results ({\r... */\n      dup2\n      mstore\n      0x20\n      add\n        /* \"lotto.sol\":2914:2929  block.timestamp */\n      timestamp\n        /* \"lotto.sol\":2772:2986  Results ({\r... */\n      dup2\n      mstore\n      0x20\n      add\n        /* \"lotto.sol\":2960:2973  winnerAddress */\n      dup3\n        /* \"lotto.sol\":2772:2986  Results ({\r... */\n      0xffffffffffffffffffffffffffffffffffffffff\n      and\n      dup2\n      mstore\n      pop\n        /* \"lotto.sol\":2747:2759  roundResults */\n      0x05\n        /* \"lotto.sol\":2747:2769  roundResults[roundNum] */\n      0x00\n        /* \"lotto.sol\":2760:2768  roundNum */\n      sload(0x02)\n        /* \"lotto.sol\":2747:2769  roundResults[roundNum] */\n      dup2\n      mstore\n      0x20\n      add\n      swap1\n      dup2\n      mstore\n      0x20\n      add\n      0x00\n      keccak256\n        /* \"lotto.sol\":2747:2986  roundResults[roundNum] = Results ({\r... */\n      0x00\n      dup3\n      add\n      mload\n      dup2\n      0x00\n      add\n      sstore\n      0x20\n      dup3\n      add\n      mload\n      dup2\n      0x01\n      add\n      sstore\n      0x40\n      dup3\n      add\n      mload\n      dup2\n      0x02\n      add\n      sstore\n      0x60\n      dup3\n      add\n      mload\n      dup2\n      0x03\n      add\n      sstore\n      0x80\n      dup3\n      add\n      mload\n      dup2\n      0x04\n      add\n      exp(0x0100, 0x00)\n      dup2\n      sload\n      dup2\n      0xffffffffffffffffffffffffffffffffffffffff\n      mul\n      not\n      and\n      swap1\n      dup4\n      0xffffffffffffffffffffffffffffffffffffffff\n      and\n      mul\n      or\n      swap1\n      sstore\n      pop\n      swap1\n      pop\n      pop\n        /* \"lotto.sol\":3014:3020  payout */\n      dup3\n        /* \"lotto.sol\":2999:3010  totalPayout */\n      0x03\n      0x00\n        /* \"lotto.sol\":2999:3020  totalPayout += payout */\n      dup3\n      dup3\n      sload\n      tag_138\n      swap2\n      swap1\n      tag_115\n      jump\t// in\n    tag_138:\n      swap3\n      pop\n      pop\n      dup2\n      swap1\n      sstore\n      pop\n        /* \"lotto.sol\":3031:3039  roundNum */\n      0x02\n      0x00\n        /* \"lotto.sol\":3031:3041  roundNum++ */\n      dup2\n      sload\n      dup1\n      swap3\n      swap2\n      swap1\n      tag_139\n      swap1\n      tag_108\n      jump\t// in\n    tag_139:\n      swap2\n      swap1\n      pop\n      sstore\n      pop\n        /* \"lotto.sol\":3054:3063  acesToken */\n      0x04\n      0x00\n      swap1\n      sload\n      swap1\n      0x0100\n      exp\n      swap1\n      div\n      0xffffffffffffffffffffffffffffffffffffffff\n      and\n        /* \"lotto.sol\":3054:3072  acesToken.transfer */\n      0xffffffffffffffffffffffffffffffffffffffff\n      and\n      0xa9059cbb\n        /* \"lotto.sol\":3073:3086  winnerAddress */\n      dup3\n        /* \"lotto.sol\":3088:3097  winnerNum */\n      dup5\n        /* \"lotto.sol\":3054:3098  acesToken.transfer(winnerAddress, winnerNum) */\n      mload(0x40)\n      dup4\n      0xffffffff\n      and\n      0xe0\n      shl\n      dup2\n      mstore\n      0x04\n      add\n      tag_140\n      swap3\n      swap2\n      swap1\n      tag_141\n      jump\t// in\n    tag_140:\n      0x20\n      mload(0x40)\n      dup1\n      dup4\n      sub\n      dup2\n      0x00\n      dup8\n      dup1\n      extcodesize\n      iszero\n      dup1\n      iszero\n      tag_142\n      jumpi\n      0x00\n      dup1\n      revert\n    tag_142:\n      pop\n      gas\n      call\n      iszero\n      dup1\n      iszero\n      tag_144\n      jumpi\n      returndatasize\n      0x00\n      dup1\n      returndatacopy\n      revert(0x00, returndatasize)\n    tag_144:\n      pop\n      pop\n      pop\n      pop\n      mload(0x40)\n      returndatasize\n      not(0x1f)\n      0x1f\n      dup3\n      add\n      and\n      dup3\n      add\n      dup1\n      0x40\n      mstore\n      pop\n      dup2\n      add\n      swap1\n      tag_145\n      swap2\n      swap1\n      tag_146\n      jump\t// in\n    tag_145:\n      pop\n        /* \"lotto.sol\":3116:3149  LotteryWon(winnerAddress, payout) */\n      0x2e798dd4337e515c79b64c40e1a93baa1aefbd9180ac7905e02508edd7971e50\n        /* \"lotto.sol\":3127:3140  winnerAddress */\n      dup2\n        /* \"lotto.sol\":3142:3148  payout */\n      dup5\n        /* \"lotto.sol\":3116:3149  LotteryWon(winnerAddress, payout) */\n      mload(0x40)\n      tag_147\n      swap3\n      swap2\n      swap1\n      tag_141\n      jump\t// in\n    tag_147:\n      mload(0x40)\n      dup1\n      swap2\n      sub\n      swap1\n      log1\n        /* \"lotto.sol\":2509:3157  {\r... */\n      pop\n      pop\n      pop\n        /* \"lotto.sol\":2468:3157  function pickWinner() external onlyOwner {\r... */\n      jump\t// out\n        /* \"https://github.com/OpenZeppelin/openzeppelin-contracts/blob/master/contracts/access/Ownable.sol\":1668:1769  function renounceOwnership() public virtual onlyOwner {... */\n    tag_52:\n        /* \"https://github.com/OpenZeppelin/openzeppelin-contracts/blob/master/contracts/access/Ownable.sol\":1259:1271  _msgSender() */\n      tag_149\n        /* \"https://github.com/OpenZeppelin/openzeppelin-contracts/blob/master/contracts/access/Ownable.sol\":1259:1269  _msgSender */\n      tag_124\n        /* \"https://github.com/OpenZeppelin/openzeppelin-contracts/blob/master/contracts/access/Ownable.sol\":1259:1271  _msgSender() */\n      jump\t// in\n    tag_149:\n        /* \"https://github.com/OpenZeppelin/openzeppelin-contracts/blob/master/contracts/access/Ownable.sol\":1248:1271  owner() == _msgSender() */\n      0xffffffffffffffffffffffffffffffffffffffff\n      and\n        /* \"https://github.com/OpenZeppelin/openzeppelin-contracts/blob/master/contracts/access/Ownable.sol\":1248:1255  owner() */\n      tag_150\n        /* \"https://github.com/OpenZeppelin/openzeppelin-contracts/blob/master/contracts/access/Ownable.sol\":1248:1253  owner */\n      tag_57\n        /* \"https://github.com/OpenZeppelin/openzeppelin-contracts/blob/master/contracts/access/Ownable.sol\":1248:1255  owner() */\n      jump\t// in\n    tag_150:\n        /* \"https://github.com/OpenZeppelin/openzeppelin-contracts/blob/master/contracts/access/Ownable.sol\":1248:1271  owner() == _msgSender() */\n      0xffffffffffffffffffffffffffffffffffffffff\n      and\n      eq\n        /* \"https://github.com/OpenZeppelin/openzeppelin-contracts/blob/master/contracts/access/Ownable.sol\":1240:1308  require(owner() == _msgSender(), \"Ownable: caller is not the owner\") */\n      tag_151\n      jumpi\n      mload(0x40)\n      0x08c379a000000000000000000000000000000000000000000000000000000000\n      dup2\n      mstore\n      0x04\n      add\n      tag_152\n      swap1\n      tag_128\n      jump\t// in\n    tag_152:\n      mload(0x40)\n      dup1\n      swap2\n      sub\n      swap1\n      revert\n    tag_151:\n        /* \"https://github.com/OpenZeppelin/openzeppelin-contracts/blob/master/contracts/access/Ownable.sol\":1732:1762  _transferOwnership(address(0)) */\n      tag_154\n        /* \"https://github.com/OpenZeppelin/openzeppelin-contracts/blob/master/contracts/access/Ownable.sol\":1759:1760  0 */\n      0x00\n        /* \"https://github.com/OpenZeppelin/openzeppelin-contracts/blob/master/contracts/access/Ownable.sol\":1732:1750  _transferOwnership */\n      tag_155\n        /* \"https://github.com/OpenZeppelin/openzeppelin-contracts/blob/master/contracts/access/Ownable.sol\":1732:1762  _transferOwnership(address(0)) */\n      jump\t// in\n    tag_154:\n        /* \"https://github.com/OpenZeppelin/openzeppelin-contracts/blob/master/contracts/access/Ownable.sol\":1668:1769  function renounceOwnership() public virtual onlyOwner {... */\n      jump\t// out\n        /* \"lotto.sol\":634:661  uint256 public roundEntries */\n    tag_54:\n      sload(0x01)\n      dup2\n      jump\t// out\n        /* \"https://github.com/OpenZeppelin/openzeppelin-contracts/blob/master/contracts/access/Ownable.sol\":1036:1121  function owner() public view virtual returns (address) {... */\n    tag_57:\n        /* \"https://github.com/OpenZeppelin/openzeppelin-contracts/blob/master/contracts/access/Ownable.sol\":1082:1089  address */\n      0x00\n        /* \"https://github.com/OpenZeppelin/openzeppelin-contracts/blob/master/contracts/access/Ownable.sol\":1108:1114  _owner */\n      dup1\n      0x00\n      swap1\n      sload\n      swap1\n      0x0100\n      exp\n      swap1\n      div\n      0xffffffffffffffffffffffffffffffffffffffff\n      and\n        /* \"https://github.com/OpenZeppelin/openzeppelin-contracts/blob/master/contracts/access/Ownable.sol\":1101:1114  return _owner */\n      swap1\n      pop\n        /* \"https://github.com/OpenZeppelin/openzeppelin-contracts/blob/master/contracts/access/Ownable.sol\":1036:1121  function owner() public view virtual returns (address) {... */\n      swap1\n      jump\t// out\n        /* \"lotto.sol\":737:760  IERC20 public acesToken */\n    tag_61:\n      0x04\n      0x00\n      swap1\n      sload\n      swap1\n      0x0100\n      exp\n      swap1\n      div\n      0xffffffffffffffffffffffffffffffffffffffff\n      and\n      dup2\n      jump\t// out\n        /* \"lotto.sol\":3289:3411  function userEntries(address account) public view returns (uint256) {\r... */\n    tag_66:\n        /* \"lotto.sol\":3348:3355  uint256 */\n      0x00\n        /* \"lotto.sol\":3375:3387  entriesIndex */\n      0x07\n        /* \"lotto.sol\":3375:3396  entriesIndex[account] */\n      0x00\n        /* \"lotto.sol\":3388:3395  account */\n      dup4\n        /* \"lotto.sol\":3375:3396  entriesIndex[account] */\n      0xffffffffffffffffffffffffffffffffffffffff\n      and\n      0xffffffffffffffffffffffffffffffffffffffff\n      and\n      dup2\n      mstore\n      0x20\n      add\n      swap1\n      dup2\n      mstore\n      0x20\n      add\n      0x00\n      keccak256\n        /* \"lotto.sol\":3375:3403  entriesIndex[account].length */\n      dup1\n      sload\n      swap1\n      pop\n        /* \"lotto.sol\":3368:3403  return entriesIndex[account].length */\n      swap1\n      pop\n        /* \"lotto.sol\":3289:3411  function userEntries(address account) public view returns (uint256) {\r... */\n      swap2\n      swap1\n      pop\n      jump\t// out\n        /* \"lotto.sol\":1530:2106  function removeEntryFromWallet(address account, uint256 amount) public {\r... */\n    tag_70:\n        /* \"lotto.sol\":1612:1634  uint256 currentEntries */\n      0x00\n        /* \"lotto.sol\":1637:1657  userEntries(account) */\n      tag_159\n        /* \"lotto.sol\":1649:1656  account */\n      dup4\n        /* \"lotto.sol\":1637:1648  userEntries */\n      tag_66\n        /* \"lotto.sol\":1637:1657  userEntries(account) */\n      jump\t// in\n    tag_159:\n        /* \"lotto.sol\":1612:1657  uint256 currentEntries = userEntries(account) */\n      swap1\n      pop\n        /* \"lotto.sol\":1689:1690  0 */\n      0x00\n        /* \"lotto.sol\":1671:1685  currentEntries */\n      dup2\n        /* \"lotto.sol\":1671:1690  currentEntries == 0 */\n      eq\n        /* \"lotto.sol\":1668:1807  if(currentEntries == 0){\r... */\n      iszero\n      tag_160\n      jumpi\n        /* \"lotto.sol\":1706:1713  return; */\n      pop\n      jump(tag_158)\n        /* \"lotto.sol\":1668:1807  if(currentEntries == 0){\r... */\n    tag_160:\n        /* \"lotto.sol\":1742:1756  currentEntries */\n      dup1\n        /* \"lotto.sol\":1733:1739  amount */\n      dup3\n        /* \"lotto.sol\":1733:1756  amount > currentEntries */\n      gt\n        /* \"lotto.sol\":1730:1807  if(amount > currentEntries){\r... */\n      iszero\n      tag_162\n      jumpi\n        /* \"lotto.sol\":1781:1795  currentEntries */\n      dup1\n        /* \"lotto.sol\":1772:1795  amount = currentEntries */\n      swap2\n      pop\n        /* \"lotto.sol\":1730:1807  if(amount > currentEntries){\r... */\n    tag_162:\n        /* \"lotto.sol\":1823:1832  uint256 i */\n      0x00\n        /* \"lotto.sol\":1835:1836  1 */\n      0x01\n        /* \"lotto.sol\":1823:1836  uint256 i = 1 */\n      swap1\n      pop\n        /* \"lotto.sol\":1819:2064  for(uint256 i = 1; i <= amount; i++){\r... */\n    tag_163:\n        /* \"lotto.sol\":1843:1849  amount */\n      dup3\n        /* \"lotto.sol\":1838:1839  i */\n      dup2\n        /* \"lotto.sol\":1838:1849  i <= amount */\n      gt\n        /* \"lotto.sol\":1819:2064  for(uint256 i = 1; i <= amount; i++){\r... */\n      tag_164\n      jumpi\n        /* \"lotto.sol\":1870:1887  uint256 lastIndex */\n      0x00\n        /* \"lotto.sol\":1890:1902  entriesIndex */\n      0x07\n        /* \"lotto.sol\":1890:1911  entriesIndex[account] */\n      0x00\n        /* \"lotto.sol\":1903:1910  account */\n      dup7\n        /* \"lotto.sol\":1890:1911  entriesIndex[account] */\n      0xffffffffffffffffffffffffffffffffffffffff\n      and\n      0xffffffffffffffffffffffffffffffffffffffff\n      and\n      dup2\n      mstore\n      0x20\n      add\n      swap1\n      dup2\n      mstore\n      0x20\n      add\n      0x00\n      keccak256\n        /* \"lotto.sol\":1943:1944  1 */\n      0x01\n        /* \"lotto.sol\":1912:1924  entriesIndex */\n      0x07\n        /* \"lotto.sol\":1912:1933  entriesIndex[account] */\n      0x00\n        /* \"lotto.sol\":1925:1932  account */\n      dup9\n        /* \"lotto.sol\":1912:1933  entriesIndex[account] */\n      0xffffffffffffffffffffffffffffffffffffffff\n      and\n      0xffffffffffffffffffffffffffffffffffffffff\n      and\n      dup2\n      mstore\n      0x20\n      add\n      swap1\n      dup2\n      mstore\n      0x20\n      add\n      0x00\n      keccak256\n        /* \"lotto.sol\":1912:1940  entriesIndex[account].length */\n      dup1\n      sload\n      swap1\n      pop\n        /* \"lotto.sol\":1912:1944  entriesIndex[account].length - 1 */\n      tag_166\n      swap2\n      swap1\n      tag_167\n      jump\t// in\n    tag_166:\n        /* \"lotto.sol\":1890:1945  entriesIndex[account][entriesIndex[account].length - 1] */\n      dup2\n      sload\n      dup2\n      lt\n      tag_168\n      jumpi\n      tag_169\n      tag_104\n      jump\t// in\n    tag_169:\n    tag_168:\n      swap1\n      0x00\n      mstore\n      keccak256(0x00, 0x20)\n      add\n      sload\n        /* \"lotto.sol\":1870:1945  uint256 lastIndex = entriesIndex[account][entriesIndex[account].length - 1] */\n      swap1\n      pop\n        /* \"lotto.sol\":1984:1994  roundEntry */\n      0x06\n        /* \"lotto.sol\":1984:2012  roundEntry[roundEntries - i] */\n      0x00\n        /* \"lotto.sol\":2010:2011  i */\n      dup4\n        /* \"lotto.sol\":1995:2007  roundEntries */\n      sload(0x01)\n        /* \"lotto.sol\":1995:2011  roundEntries - i */\n      tag_171\n      swap2\n      swap1\n      tag_167\n      jump\t// in\n    tag_171:\n        /* \"lotto.sol\":1984:2012  roundEntry[roundEntries - i] */\n      dup2\n      mstore\n      0x20\n      add\n      swap1\n      dup2\n      mstore\n      0x20\n      add\n      0x00\n      keccak256\n      0x00\n      swap1\n      sload\n      swap1\n      0x0100\n      exp\n      swap1\n      div\n      0xffffffffffffffffffffffffffffffffffffffff\n      and\n        /* \"lotto.sol\":1960:1970  roundEntry */\n      0x06\n        /* \"lotto.sol\":1960:1981  roundEntry[lastIndex] */\n      0x00\n        /* \"lotto.sol\":1971:1980  lastIndex */\n      dup4\n        /* \"lotto.sol\":1960:1981  roundEntry[lastIndex] */\n      dup2\n      mstore\n      0x20\n      add\n      swap1\n      dup2\n      mstore\n      0x20\n      add\n      0x00\n      keccak256\n      0x00\n        /* \"lotto.sol\":1960:2012  roundEntry[lastIndex] = roundEntry[roundEntries - i] */\n      0x0100\n      exp\n      dup2\n      sload\n      dup2\n      0xffffffffffffffffffffffffffffffffffffffff\n      mul\n      not\n      and\n      swap1\n      dup4\n      0xffffffffffffffffffffffffffffffffffffffff\n      and\n      mul\n      or\n      swap1\n      sstore\n      pop\n        /* \"lotto.sol\":2027:2039  entriesIndex */\n      0x07\n        /* \"lotto.sol\":2027:2048  entriesIndex[account] */\n      0x00\n        /* \"lotto.sol\":2040:2047  account */\n      dup7\n        /* \"lotto.sol\":2027:2048  entriesIndex[account] */\n      0xffffffffffffffffffffffffffffffffffffffff\n      and\n      0xffffffffffffffffffffffffffffffffffffffff\n      and\n      dup2\n      mstore\n      0x20\n      add\n      swap1\n      dup2\n      mstore\n      0x20\n      add\n      0x00\n      keccak256\n        /* \"lotto.sol\":2027:2052  entriesIndex[account].pop */\n      pop\n        /* \"lotto.sol\":1855:2064  {\r... */\n      pop\n        /* \"lotto.sol\":1851:1854  i++ */\n      dup1\n      dup1\n      tag_172\n      swap1\n      tag_108\n      jump\t// in\n    tag_172:\n      swap2\n      pop\n      pop\n        /* \"lotto.sol\":1819:2064  for(uint256 i = 1; i <= amount; i++){\r... */\n      jump(tag_163)\n    tag_164:\n      pop\n        /* \"lotto.sol\":2092:2098  amount */\n      dup2\n        /* \"lotto.sol\":2076:2088  roundEntries */\n      0x01\n      0x00\n        /* \"lotto.sol\":2076:2098  roundEntries -= amount */\n      dup3\n      dup3\n      sload\n      tag_173\n      swap2\n      swap1\n      tag_167\n      jump\t// in\n    tag_173:\n      swap3\n      pop\n      pop\n      dup2\n      swap1\n      sstore\n      pop\n        /* \"lotto.sol\":1601:2106  {\r... */\n      pop\n        /* \"lotto.sol\":1530:2106  function removeEntryFromWallet(address account, uint256 amount) public {\r... */\n    tag_158:\n      pop\n      pop\n      jump\t// out\n        /* \"lotto.sol\":951:998  mapping(uint256 => Results) public roundResults */\n    tag_74:\n      mstore(0x20, 0x05)\n      dup1\n      0x00\n      mstore\n      keccak256(0x00, 0x40)\n      0x00\n      swap2\n      pop\n      swap1\n      pop\n      dup1\n      0x00\n      add\n      sload\n      swap1\n      dup1\n      0x01\n      add\n      sload\n      swap1\n      dup1\n      0x02\n      add\n      sload\n      swap1\n      dup1\n      0x03\n      add\n      sload\n      swap1\n      dup1\n      0x04\n      add\n      0x00\n      swap1\n      sload\n      swap1\n      0x0100\n      exp\n      swap1\n      div\n      0xffffffffffffffffffffffffffffffffffffffff\n      and\n      swap1\n      pop\n      dup6\n      jump\t// out\n        /* \"lotto.sol\":1005:1050  mapping(uint256 => address) public roundEntry */\n    tag_79:\n      mstore(0x20, 0x06)\n      dup1\n      0x00\n      mstore\n      keccak256(0x00, 0x40)\n      0x00\n      swap2\n      pop\n      sload\n      swap1\n      0x0100\n      exp\n      swap1\n      div\n      0xffffffffffffffffffffffffffffffffffffffff\n      and\n      dup2\n      jump\t// out\n        /* \"lotto.sol\":3419:3916  function resultLog(uint256 startIndex, uint256 endIndex) external view returns(Results [] memory log){\r... */\n    tag_84:\n        /* \"lotto.sol\":3498:3519  Results [] memory log */\n      0x60\n        /* \"lotto.sol\":3547:3555  roundNum */\n      sload(0x02)\n        /* \"lotto.sol\":3535:3543  endIndex */\n      dup3\n        /* \"lotto.sol\":3535:3555  endIndex >= roundNum */\n      lt\n        /* \"lotto.sol\":3531:3607  if (endIndex >= roundNum) {\r... */\n      tag_175\n      jumpi\n        /* \"lotto.sol\":3594:3595  1 */\n      0x01\n        /* \"lotto.sol\":3583:3591  roundNum */\n      sload(0x02)\n        /* \"lotto.sol\":3583:3595  roundNum - 1 */\n      tag_176\n      swap2\n      swap1\n      tag_167\n      jump\t// in\n    tag_176:\n        /* \"lotto.sol\":3572:3595  endIndex = roundNum - 1 */\n      swap2\n      pop\n        /* \"lotto.sol\":3531:3607  if (endIndex >= roundNum) {\r... */\n    tag_175:\n        /* \"lotto.sol\":3619:3638  uint256 arrayLength */\n      0x00\n        /* \"lotto.sol\":3665:3666  1 */\n      0x01\n        /* \"lotto.sol\":3652:3662  startIndex */\n      dup5\n        /* \"lotto.sol\":3641:3649  endIndex */\n      dup5\n        /* \"lotto.sol\":3641:3662  endIndex - startIndex */\n      tag_177\n      swap2\n      swap1\n      tag_167\n      jump\t// in\n    tag_177:\n        /* \"lotto.sol\":3641:3666  endIndex - startIndex + 1 */\n      tag_178\n      swap2\n      swap1\n      tag_115\n      jump\t// in\n    tag_178:\n        /* \"lotto.sol\":3619:3666  uint256 arrayLength = endIndex - startIndex + 1 */\n      swap1\n      pop\n        /* \"lotto.sol\":3677:3697  uint256 currentIndex */\n      0x00\n        /* \"lotto.sol\":3728:3739  arrayLength */\n      dup2\n        /* \"lotto.sol\":3714:3740  new Results[](arrayLength) */\n      0xffffffffffffffff\n      dup2\n      gt\n      iszero\n      tag_179\n      jumpi\n      tag_180\n      tag_181\n      jump\t// in\n    tag_180:\n    tag_179:\n      mload(0x40)\n      swap1\n      dup1\n      dup3\n      mstore\n      dup1\n      0x20\n      mul\n      0x20\n      add\n      dup3\n      add\n      0x40\n      mstore\n      dup1\n      iszero\n      tag_182\n      jumpi\n      dup2\n      0x20\n      add\n    tag_183:\n      tag_184\n      tag_185\n      jump\t// in\n    tag_184:\n      dup2\n      mstore\n      0x20\n      add\n      swap1\n      0x01\n      swap1\n      sub\n      swap1\n      dup2\n      tag_183\n      jumpi\n      swap1\n      pop\n    tag_182:\n      pop\n        /* \"lotto.sol\":3708:3740  log = new Results[](arrayLength) */\n      swap3\n      pop\n        /* \"lotto.sol\":3761:3770  uint256 i */\n      0x00\n        /* \"lotto.sol\":3773:3783  startIndex */\n      dup6\n        /* \"lotto.sol\":3761:3783  uint256 i = startIndex */\n      swap1\n      pop\n        /* \"lotto.sol\":3756:3909  for (uint256 i = startIndex; i <= endIndex; i++) {\r... */\n    tag_186:\n        /* \"lotto.sol\":3790:3798  endIndex */\n      dup5\n        /* \"lotto.sol\":3785:3786  i */\n      dup2\n        /* \"lotto.sol\":3785:3798  i <= endIndex */\n      gt\n        /* \"lotto.sol\":3756:3909  for (uint256 i = startIndex; i <= endIndex; i++) {\r... */\n      tag_187\n      jumpi\n        /* \"lotto.sol\":3840:3852  roundResults */\n      0x05\n        /* \"lotto.sol\":3840:3868  roundResults[startIndex + i] */\n      0x00\n        /* \"lotto.sol\":3866:3867  i */\n      dup3\n        /* \"lotto.sol\":3853:3863  startIndex */\n      dup9\n        /* \"lotto.sol\":3853:3867  startIndex + i */\n      tag_189\n      swap2\n      swap1\n      tag_115\n      jump\t// in\n    tag_189:\n        /* \"lotto.sol\":3840:3868  roundResults[startIndex + i] */\n      dup2\n      mstore\n      0x20\n      add\n      swap1\n      dup2\n      mstore\n      0x20\n      add\n      0x00\n      keccak256\n        /* \"lotto.sol\":3820:3868  log[currentIndex] = roundResults[startIndex + i] */\n      mload(0x40)\n      dup1\n      0xa0\n      add\n      0x40\n      mstore\n      swap1\n      dup2\n      0x00\n      dup3\n      add\n      sload\n      dup2\n      mstore\n      0x20\n      add\n      0x01\n      dup3\n      add\n      sload\n      dup2\n      mstore\n      0x20\n      add\n      0x02\n      dup3\n      add\n      sload\n      dup2\n      mstore\n      0x20\n      add\n      0x03\n      dup3\n      add\n      sload\n      dup2\n      mstore\n      0x20\n      add\n      0x04\n      dup3\n      add\n      0x00\n      swap1\n      sload\n      swap1\n      0x0100\n      exp\n      swap1\n      div\n      0xffffffffffffffffffffffffffffffffffffffff\n      and\n      0xffffffffffffffffffffffffffffffffffffffff\n      and\n      0xffffffffffffffffffffffffffffffffffffffff\n      and\n      dup2\n      mstore\n      pop\n      pop\n        /* \"lotto.sol\":3820:3823  log */\n      dup5\n        /* \"lotto.sol\":3824:3836  currentIndex */\n      dup4\n        /* \"lotto.sol\":3820:3837  log[currentIndex] */\n      dup2\n      mload\n      dup2\n      lt\n      tag_190\n      jumpi\n      tag_191\n      tag_104\n      jump\t// in\n    tag_191:\n    tag_190:\n      0x20\n      mul\n      0x20\n      add\n      add\n        /* \"lotto.sol\":3820:3868  log[currentIndex] = roundResults[startIndex + i] */\n      dup2\n      swap1\n      mstore\n      pop\n        /* \"lotto.sol\":3883:3897  currentIndex++ */\n      dup2\n      dup1\n      tag_192\n      swap1\n      tag_108\n      jump\t// in\n    tag_192:\n      swap3\n      pop\n      pop\n        /* \"lotto.sol\":3800:3803  i++ */\n      dup1\n      dup1\n      tag_193\n      swap1\n      tag_108\n      jump\t// in\n    tag_193:\n      swap2\n      pop\n      pop\n        /* \"lotto.sol\":3756:3909  for (uint256 i = startIndex; i <= endIndex; i++) {\r... */\n      jump(tag_186)\n    tag_187:\n      pop\n        /* \"lotto.sol\":3520:3916  {\r... */\n      pop\n      pop\n        /* \"lotto.sol\":3419:3916  function resultLog(uint256 startIndex, uint256 endIndex) external view returns(Results [] memory log){\r... */\n      swap3\n      swap2\n      pop\n      pop\n      jump\t// out\n        /* \"lotto.sol\":2114:2283  function removeAccount(address account) external{\r... */\n    tag_89:\n        /* \"lotto.sol\":2173:2195  uint256 currentEntries */\n      0x00\n        /* \"lotto.sol\":2198:2218  userEntries(account) */\n      tag_195\n        /* \"lotto.sol\":2210:2217  account */\n      dup3\n        /* \"lotto.sol\":2198:2209  userEntries */\n      tag_66\n        /* \"lotto.sol\":2198:2218  userEntries(account) */\n      jump\t// in\n    tag_195:\n        /* \"lotto.sol\":2173:2218  uint256 currentEntries = userEntries(account) */\n      swap1\n      pop\n        /* \"lotto.sol\":2229:2275  removeEntryFromWallet(account, currentEntries) */\n      tag_196\n        /* \"lotto.sol\":2251:2258  account */\n      dup3\n        /* \"lotto.sol\":2260:2274  currentEntries */\n      dup3\n        /* \"lotto.sol\":2229:2250  removeEntryFromWallet */\n      tag_70\n        /* \"lotto.sol\":2229:2275  removeEntryFromWallet(account, currentEntries) */\n      jump\t// in\n    tag_196:\n        /* \"lotto.sol\":2162:2283  {\r... */\n      pop\n        /* \"lotto.sol\":2114:2283  function removeAccount(address account) external{\r... */\n      pop\n      jump\t// out\n        /* \"https://github.com/OpenZeppelin/openzeppelin-contracts/blob/master/contracts/access/Ownable.sol\":1918:2116  function transferOwnership(address newOwner) public virtual onlyOwner {... */\n    tag_92:\n        /* \"https://github.com/OpenZeppelin/openzeppelin-contracts/blob/master/contracts/access/Ownable.sol\":1259:1271  _msgSender() */\n      tag_198\n        /* \"https://github.com/OpenZeppelin/openzeppelin-contracts/blob/master/contracts/access/Ownable.sol\":1259:1269  _msgSender */\n      tag_124\n        /* \"https://github.com/OpenZeppelin/openzeppelin-contracts/blob/master/contracts/access/Ownable.sol\":1259:1271  _msgSender() */\n      jump\t// in\n    tag_198:\n        /* \"https://github.com/OpenZeppelin/openzeppelin-contracts/blob/master/contracts/access/Ownable.sol\":1248:1271  owner() == _msgSender() */\n      0xffffffffffffffffffffffffffffffffffffffff\n      and\n        /* \"https://github.com/OpenZeppelin/openzeppelin-contracts/blob/master/contracts/access/Ownable.sol\":1248:1255  owner() */\n      tag_199\n        /* \"https://github.com/OpenZeppelin/openzeppelin-contracts/blob/master/contracts/access/Ownable.sol\":1248:1253  owner */\n      tag_57\n        /* \"https://github.com/OpenZeppelin/openzeppelin-contracts/blob/master/contracts/access/Ownable.sol\":1248:1255  owner() */\n      jump\t// in\n    tag_199:\n        /* \"https://github.com/OpenZeppelin/openzeppelin-contracts/blob/master/contracts/access/Ownable.sol\":1248:1271  owner() == _msgSender() */\n      0xffffffffffffffffffffffffffffffffffffffff\n      and\n      eq\n        /* \"https://github.com/OpenZeppelin/openzeppelin-contracts/blob/master/contracts/access/Ownable.sol\":1240:1308  require(owner() == _msgSender(), \"Ownable: caller is not the owner\") */\n      tag_200\n      jumpi\n      mload(0x40)\n      0x08c379a000000000000000000000000000000000000000000000000000000000\n      dup2\n      mstore\n      0x04\n      add\n      tag_201\n      swap1\n      tag_128\n      jump\t// in\n    tag_201:\n      mload(0x40)\n      dup1\n      swap2\n      sub\n      swap1\n      revert\n    tag_200:\n        /* \"https://github.com/OpenZeppelin/openzeppelin-contracts/blob/master/contracts/access/Ownable.sol\":2026:2027  0 */\n      0x00\n        /* \"https://github.com/OpenZeppelin/openzeppelin-contracts/blob/master/contracts/access/Ownable.sol\":2006:2028  newOwner != address(0) */\n      0xffffffffffffffffffffffffffffffffffffffff\n      and\n        /* \"https://github.com/OpenZeppelin/openzeppelin-contracts/blob/master/contracts/access/Ownable.sol\":2006:2014  newOwner */\n      dup2\n        /* \"https://github.com/OpenZeppelin/openzeppelin-contracts/blob/master/contracts/access/Ownable.sol\":2006:2028  newOwner != address(0) */\n      0xffffffffffffffffffffffffffffffffffffffff\n      and\n      eq\n      iszero\n        /* \"https://github.com/OpenZeppelin/openzeppelin-contracts/blob/master/contracts/access/Ownable.sol\":1998:2071  require(newOwner != address(0), \"Ownable: new owner is the zero address\") */\n      tag_203\n      jumpi\n      mload(0x40)\n      0x08c379a000000000000000000000000000000000000000000000000000000000\n      dup2\n      mstore\n      0x04\n      add\n      tag_204\n      swap1\n      tag_205\n      jump\t// in\n    tag_204:\n      mload(0x40)\n      dup1\n      swap2\n      sub\n      swap1\n      revert\n    tag_203:\n        /* \"https://github.com/OpenZeppelin/openzeppelin-contracts/blob/master/contracts/access/Ownable.sol\":2081:2109  _transferOwnership(newOwner) */\n      tag_206\n        /* \"https://github.com/OpenZeppelin/openzeppelin-contracts/blob/master/contracts/access/Ownable.sol\":2100:2108  newOwner */\n      dup2\n        /* \"https://github.com/OpenZeppelin/openzeppelin-contracts/blob/master/contracts/access/Ownable.sol\":2081:2099  _transferOwnership */\n      tag_155\n        /* \"https://github.com/OpenZeppelin/openzeppelin-contracts/blob/master/contracts/access/Ownable.sol\":2081:2109  _transferOwnership(newOwner) */\n      jump\t// in\n    tag_206:\n        /* \"https://github.com/OpenZeppelin/openzeppelin-contracts/blob/master/contracts/access/Ownable.sol\":1918:2116  function transferOwnership(address newOwner) public virtual onlyOwner {... */\n      pop\n      jump\t// out\n        /* \"lotto.sol\":3165:3281  function currentJackpot() public view returns (uint256) {\r... */\n    tag_94:\n        /* \"lotto.sol\":3212:3219  uint256 */\n      0x00\n        /* \"lotto.sol\":3239:3248  acesToken */\n      0x04\n      0x00\n      swap1\n      sload\n      swap1\n      0x0100\n      exp\n      swap1\n      div\n      0xffffffffffffffffffffffffffffffffffffffff\n      and\n        /* \"lotto.sol\":3239:3258  acesToken.balanceOf */\n      0xffffffffffffffffffffffffffffffffffffffff\n      and\n      0x70a08231\n        /* \"lotto.sol\":3267:3271  this */\n      address\n        /* \"lotto.sol\":3239:3273  acesToken.balanceOf(address(this)) */\n      mload(0x40)\n      dup3\n      0xffffffff\n      and\n      0xe0\n      shl\n      dup2\n      mstore\n      0x04\n      add\n      tag_208\n      swap2\n      swap1\n      tag_59\n      jump\t// in\n    tag_208:\n      0x20\n      mload(0x40)\n      dup1\n      dup4\n      sub\n      dup2\n      dup7\n      dup1\n      extcodesize\n      iszero\n      dup1\n      iszero\n      tag_209\n      jumpi\n      0x00\n      dup1\n      revert\n    tag_209:\n      pop\n      gas\n      staticcall\n      iszero\n      dup1\n      iszero\n      tag_211\n      jumpi\n      returndatasize\n      0x00\n      dup1\n      returndatacopy\n      revert(0x00, returndatasize)\n    tag_211:\n      pop\n      pop\n      pop\n      pop\n      mload(0x40)\n      returndatasize\n      not(0x1f)\n      0x1f\n      dup3\n      add\n      and\n      dup3\n      add\n      dup1\n      0x40\n      mstore\n      pop\n      dup2\n      add\n      swap1\n      tag_212\n      swap2\n      swap1\n      tag_213\n      jump\t// in\n    tag_212:\n        /* \"lotto.sol\":3232:3273  return acesToken.balanceOf(address(this)) */\n      swap1\n      pop\n        /* \"lotto.sol\":3165:3281  function currentJackpot() public view returns (uint256) {\r... */\n      swap1\n      jump\t// out\n        /* \"https://github.com/OpenZeppelin/openzeppelin-contracts/blob/master/contracts/utils/Context.sol\":640:736  function _msgSender() internal view virtual returns (address) {... */\n    tag_124:\n        /* \"https://github.com/OpenZeppelin/openzeppelin-contracts/blob/master/contracts/utils/Context.sol\":693:700  address */\n      0x00\n        /* \"https://github.com/OpenZeppelin/openzeppelin-contracts/blob/master/contracts/utils/Context.sol\":719:729  msg.sender */\n      caller\n        /* \"https://github.com/OpenZeppelin/openzeppelin-contracts/blob/master/contracts/utils/Context.sol\":712:729  return msg.sender */\n      swap1\n      pop\n        /* \"https://github.com/OpenZeppelin/openzeppelin-contracts/blob/master/contracts/utils/Context.sol\":640:736  function _msgSender() internal view virtual returns (address) {... */\n      swap1\n      jump\t// out\n        /* \"lotto.sol\":4216:4589  function random() internal view returns (uint256) {\r... */\n    tag_135:\n        /* \"lotto.sol\":4257:4264  uint256 */\n      0x00\n        /* \"lotto.sol\":4398:4413  block.timestamp */\n      timestamp\n        /* \"lotto.sol\":4440:4449  gasleft() */\n      gas\n        /* \"lotto.sol\":4476:4486  msg.sender */\n      caller\n        /* \"lotto.sol\":4513:4524  totalPayout */\n      sload(0x03)\n        /* \"lotto.sol\":4355:4547  abi.encodePacked(\r... */\n      add(0x20, mload(0x40))\n      tag_216\n      swap5\n      swap4\n      swap3\n      swap2\n      swap1\n      tag_217\n      jump\t// in\n    tag_216:\n      mload(0x40)\n      0x20\n      dup2\n      dup4\n      sub\n      sub\n      dup2\n      mstore\n      swap1\n      0x40\n      mstore\n        /* \"lotto.sol\":4323:4566  keccak256(\r... */\n      dup1\n      mload\n      swap1\n      0x20\n      add\n      keccak256\n        /* \"lotto.sol\":4297:4581  uint256(\r... */\n      0x00\n      shr\n        /* \"lotto.sol\":4277:4581  return\r... */\n      swap1\n      pop\n        /* \"lotto.sol\":4216:4589  function random() internal view returns (uint256) {\r... */\n      swap1\n      jump\t// out\n        /* \"https://github.com/OpenZeppelin/openzeppelin-contracts/blob/master/contracts/access/Ownable.sol\":2270:2457  function _transferOwnership(address newOwner) internal virtual {... */\n    tag_155:\n        /* \"https://github.com/OpenZeppelin/openzeppelin-contracts/blob/master/contracts/access/Ownable.sol\":2343:2359  address oldOwner */\n      0x00\n        /* \"https://github.com/OpenZeppelin/openzeppelin-contracts/blob/master/contracts/access/Ownable.sol\":2362:2368  _owner */\n      dup1\n      0x00\n      swap1\n      sload\n      swap1\n      0x0100\n      exp\n      swap1\n      div\n      0xffffffffffffffffffffffffffffffffffffffff\n      and\n        /* \"https://github.com/OpenZeppelin/openzeppelin-contracts/blob/master/contracts/access/Ownable.sol\":2343:2368  address oldOwner = _owner */\n      swap1\n      pop\n        /* \"https://github.com/OpenZeppelin/openzeppelin-contracts/blob/master/contracts/access/Ownable.sol\":2387:2395  newOwner */\n      dup2\n        /* \"https://github.com/OpenZeppelin/openzeppelin-contracts/blob/master/contracts/access/Ownable.sol\":2378:2384  _owner */\n      0x00\n      dup1\n        /* \"https://github.com/OpenZeppelin/openzeppelin-contracts/blob/master/contracts/access/Ownable.sol\":2378:2395  _owner = newOwner */\n      0x0100\n      exp\n      dup2\n      sload\n      dup2\n      0xffffffffffffffffffffffffffffffffffffffff\n      mul\n      not\n      and\n      swap1\n      dup4\n      0xffffffffffffffffffffffffffffffffffffffff\n      and\n      mul\n      or\n      swap1\n      sstore\n      pop\n        /* \"https://github.com/OpenZeppelin/openzeppelin-contracts/blob/master/contracts/access/Ownable.sol\":2441:2449  newOwner */\n      dup2\n        /* \"https://github.com/OpenZeppelin/openzeppelin-contracts/blob/master/contracts/access/Ownable.sol\":2410:2450  OwnershipTransferred(oldOwner, newOwner) */\n      0xffffffffffffffffffffffffffffffffffffffff\n      and\n        /* \"https://github.com/OpenZeppelin/openzeppelin-contracts/blob/master/contracts/access/Ownable.sol\":2431:2439  oldOwner */\n      dup2\n        /* \"https://github.com/OpenZeppelin/openzeppelin-contracts/blob/master/contracts/access/Ownable.sol\":2410:2450  OwnershipTransferred(oldOwner, newOwner) */\n      0xffffffffffffffffffffffffffffffffffffffff\n      and\n      0x8be0079c531659141344cd1fd0a4f28419497f9722a3daafe3b4186f6b6457e0\n      mload(0x40)\n      mload(0x40)\n      dup1\n      swap2\n      sub\n      swap1\n      log3\n        /* \"https://github.com/OpenZeppelin/openzeppelin-contracts/blob/master/contracts/access/Ownable.sol\":2333:2457  {... */\n      pop\n        /* \"https://github.com/OpenZeppelin/openzeppelin-contracts/blob/master/contracts/access/Ownable.sol\":2270:2457  function _transferOwnership(address newOwner) internal virtual {... */\n      pop\n      jump\t// out\n    tag_185:\n      mload(0x40)\n      dup1\n      0xa0\n      add\n      0x40\n      mstore\n      dup1\n      0x00\n      dup2\n      mstore\n      0x20\n      add\n      0x00\n      dup2\n      mstore\n      0x20\n      add\n      0x00\n      dup2\n      mstore\n      0x20\n      add\n      0x00\n      dup2\n      mstore\n      0x20\n      add\n      and(0xffffffffffffffffffffffffffffffffffffffff, 0x00)\n      dup2\n      mstore\n      pop\n      swap1\n      jump\t// out\n        /* \"#utility.yul\":7:146   */\n    tag_220:\n        /* \"#utility.yul\":53:58   */\n      0x00\n        /* \"#utility.yul\":91:97   */\n      dup2\n        /* \"#utility.yul\":78:98   */\n      calldataload\n        /* \"#utility.yul\":69:98   */\n      swap1\n      pop\n        /* \"#utility.yul\":107:140   */\n      tag_222\n        /* \"#utility.yul\":134:139   */\n      dup2\n        /* \"#utility.yul\":107:140   */\n      tag_223\n      jump\t// in\n    tag_222:\n        /* \"#utility.yul\":7:146   */\n      swap3\n      swap2\n      pop\n      pop\n      jump\t// out\n        /* \"#utility.yul\":152:289   */\n    tag_224:\n        /* \"#utility.yul\":206:211   */\n      0x00\n        /* \"#utility.yul\":237:243   */\n      dup2\n        /* \"#utility.yul\":231:244   */\n      mload\n        /* \"#utility.yul\":222:244   */\n      swap1\n      pop\n        /* \"#utility.yul\":253:283   */\n      tag_226\n        /* \"#utility.yul\":277:282   */\n      dup2\n        /* \"#utility.yul\":253:283   */\n      tag_227\n      jump\t// in\n    tag_226:\n        /* \"#utility.yul\":152:289   */\n      swap3\n      swap2\n      pop\n      pop\n      jump\t// out\n        /* \"#utility.yul\":295:434   */\n    tag_228:\n        /* \"#utility.yul\":341:346   */\n      0x00\n        /* \"#utility.yul\":379:385   */\n      dup2\n        /* \"#utility.yul\":366:386   */\n      calldataload\n        /* \"#utility.yul\":357:386   */\n      swap1\n      pop\n        /* \"#utility.yul\":395:428   */\n      tag_230\n        /* \"#utility.yul\":422:427   */\n      dup2\n        /* \"#utility.yul\":395:428   */\n      tag_231\n      jump\t// in\n    tag_230:\n        /* \"#utility.yul\":295:434   */\n      swap3\n      swap2\n      pop\n      pop\n      jump\t// out\n        /* \"#utility.yul\":440:583   */\n    tag_232:\n        /* \"#utility.yul\":497:502   */\n      0x00\n        /* \"#utility.yul\":528:534   */\n      dup2\n        /* \"#utility.yul\":522:535   */\n      mload\n        /* \"#utility.yul\":513:535   */\n      swap1\n      pop\n        /* \"#utility.yul\":544:577   */\n      tag_234\n        /* \"#utility.yul\":571:576   */\n      dup2\n        /* \"#utility.yul\":544:577   */\n      tag_231\n      jump\t// in\n    tag_234:\n        /* \"#utility.yul\":440:583   */\n      swap3\n      swap2\n      pop\n      pop\n      jump\t// out\n        /* \"#utility.yul\":589:918   */\n    tag_45:\n        /* \"#utility.yul\":648:654   */\n      0x00\n        /* \"#utility.yul\":697:699   */\n      0x20\n        /* \"#utility.yul\":685:694   */\n      dup3\n        /* \"#utility.yul\":676:683   */\n      dup5\n        /* \"#utility.yul\":672:695   */\n      sub\n        /* \"#utility.yul\":668:700   */\n      slt\n        /* \"#utility.yul\":665:784   */\n      iszero\n      tag_236\n      jumpi\n        /* \"#utility.yul\":703:782   */\n      tag_237\n      tag_238\n      jump\t// in\n    tag_237:\n        /* \"#utility.yul\":665:784   */\n    tag_236:\n        /* \"#utility.yul\":823:824   */\n      0x00\n        /* \"#utility.yul\":848:901   */\n      tag_239\n        /* \"#utility.yul\":893:900   */\n      dup5\n        /* \"#utility.yul\":884:890   */\n      dup3\n        /* \"#utility.yul\":873:882   */\n      dup6\n        /* \"#utility.yul\":869:891   */\n      add\n        /* \"#utility.yul\":848:901   */\n      tag_220\n      jump\t// in\n    tag_239:\n        /* \"#utility.yul\":838:901   */\n      swap2\n      pop\n        /* \"#utility.yul\":794:911   */\n      pop\n        /* \"#utility.yul\":589:918   */\n      swap3\n      swap2\n      pop\n      pop\n      jump\t// out\n        /* \"#utility.yul\":924:1398   */\n    tag_27:\n        /* \"#utility.yul\":992:998   */\n      0x00\n        /* \"#utility.yul\":1000:1006   */\n      dup1\n        /* \"#utility.yul\":1049:1051   */\n      0x40\n        /* \"#utility.yul\":1037:1046   */\n      dup4\n        /* \"#utility.yul\":1028:1035   */\n      dup6\n        /* \"#utility.yul\":1024:1047   */\n      sub\n        /* \"#utility.yul\":1020:1052   */\n      slt\n        /* \"#utility.yul\":1017:1136   */\n      iszero\n      tag_241\n      jumpi\n        /* \"#utility.yul\":1055:1134   */\n      tag_242\n      tag_238\n      jump\t// in\n    tag_242:\n        /* \"#utility.yul\":1017:1136   */\n    tag_241:\n        /* \"#utility.yul\":1175:1176   */\n      0x00\n        /* \"#utility.yul\":1200:1253   */\n      tag_243\n        /* \"#utility.yul\":1245:1252   */\n      dup6\n        /* \"#utility.yul\":1236:1242   */\n      dup3\n        /* \"#utility.yul\":1225:1234   */\n      dup7\n        /* \"#utility.yul\":1221:1243   */\n      add\n        /* \"#utility.yul\":1200:1253   */\n      tag_220\n      jump\t// in\n    tag_243:\n        /* \"#utility.yul\":1190:1253   */\n      swap3\n      pop\n        /* \"#utility.yul\":1146:1263   */\n      pop\n        /* \"#utility.yul\":1302:1304   */\n      0x20\n        /* \"#utility.yul\":1328:1381   */\n      tag_244\n        /* \"#utility.yul\":1373:1380   */\n      dup6\n        /* \"#utility.yul\":1364:1370   */\n      dup3\n        /* \"#utility.yul\":1353:1362   */\n      dup7\n        /* \"#utility.yul\":1349:1371   */\n      add\n        /* \"#utility.yul\":1328:1381   */\n      tag_228\n      jump\t// in\n    tag_244:\n        /* \"#utility.yul\":1318:1381   */\n      swap2\n      pop\n        /* \"#utility.yul\":1273:1391   */\n      pop\n        /* \"#utility.yul\":924:1398   */\n      swap3\n      pop\n      swap3\n      swap1\n      pop\n      jump\t// out\n        /* \"#utility.yul\":1404:1749   */\n    tag_146:\n        /* \"#utility.yul\":1471:1477   */\n      0x00\n        /* \"#utility.yul\":1520:1522   */\n      0x20\n        /* \"#utility.yul\":1508:1517   */\n      dup3\n        /* \"#utility.yul\":1499:1506   */\n      dup5\n        /* \"#utility.yul\":1495:1518   */\n      sub\n        /* \"#utility.yul\":1491:1523   */\n      slt\n        /* \"#utility.yul\":1488:1607   */\n      iszero\n      tag_246\n      jumpi\n        /* \"#utility.yul\":1526:1605   */\n      tag_247\n      tag_238\n      jump\t// in\n    tag_247:\n        /* \"#utility.yul\":1488:1607   */\n    tag_246:\n        /* \"#utility.yul\":1646:1647   */\n      0x00\n        /* \"#utility.yul\":1671:1732   */\n      tag_248\n        /* \"#utility.yul\":1724:1731   */\n      dup5\n        /* \"#utility.yul\":1715:1721   */\n      dup3\n        /* \"#utility.yul\":1704:1713   */\n      dup6\n        /* \"#utility.yul\":1700:1722   */\n      add\n        /* \"#utility.yul\":1671:1732   */\n      tag_224\n      jump\t// in\n    tag_248:\n        /* \"#utility.yul\":1661:1732   */\n      swap2\n      pop\n        /* \"#utility.yul\":1617:1742   */\n      pop\n        /* \"#utility.yul\":1404:1749   */\n      swap3\n      swap2\n      pop\n      pop\n      jump\t// out\n        /* \"#utility.yul\":1755:2084   */\n    tag_73:\n        /* \"#utility.yul\":1814:1820   */\n      0x00\n        /* \"#utility.yul\":1863:1865   */\n      0x20\n        /* \"#utility.yul\":1851:1860   */\n      dup3\n        /* \"#utility.yul\":1842:1849   */\n      dup5\n        /* \"#utility.yul\":1838:1861   */\n      sub\n        /* \"#utility.yul\":1834:1866   */\n      slt\n        /* \"#utility.yul\":1831:1950   */\n      iszero\n      tag_250\n      jumpi\n        /* \"#utility.yul\":1869:1948   */\n      tag_251\n      tag_238\n      jump\t// in\n    tag_251:\n        /* \"#utility.yul\":1831:1950   */\n    tag_250:\n        /* \"#utility.yul\":1989:1990   */\n      0x00\n        /* \"#utility.yul\":2014:2067   */\n      tag_252\n        /* \"#utility.yul\":2059:2066   */\n      dup5\n        /* \"#utility.yul\":2050:2056   */\n      dup3\n        /* \"#utility.yul\":2039:2048   */\n      dup6\n        /* \"#utility.yul\":2035:2057   */\n      add\n        /* \"#utility.yul\":2014:2067   */\n      tag_228\n      jump\t// in\n    tag_252:\n        /* \"#utility.yul\":2004:2067   */\n      swap2\n      pop\n        /* \"#utility.yul\":1960:2077   */\n      pop\n        /* \"#utility.yul\":1755:2084   */\n      swap3\n      swap2\n      pop\n      pop\n      jump\t// out\n        /* \"#utility.yul\":2090:2441   */\n    tag_213:\n        /* \"#utility.yul\":2160:2166   */\n      0x00\n        /* \"#utility.yul\":2209:2211   */\n      0x20\n        /* \"#utility.yul\":2197:2206   */\n      dup3\n        /* \"#utility.yul\":2188:2195   */\n      dup5\n        /* \"#utility.yul\":2184:2207   */\n      sub\n        /* \"#utility.yul\":2180:2212   */\n      slt\n        /* \"#utility.yul\":2177:2296   */\n      iszero\n      tag_254\n      jumpi\n        /* \"#utility.yul\":2215:2294   */\n      tag_255\n      tag_238\n      jump\t// in\n    tag_255:\n        /* \"#utility.yul\":2177:2296   */\n    tag_254:\n        /* \"#utility.yul\":2335:2336   */\n      0x00\n        /* \"#utility.yul\":2360:2424   */\n      tag_256\n        /* \"#utility.yul\":2416:2423   */\n      dup5\n        /* \"#utility.yul\":2407:2413   */\n      dup3\n        /* \"#utility.yul\":2396:2405   */\n      dup6\n        /* \"#utility.yul\":2392:2414   */\n      add\n        /* \"#utility.yul\":2360:2424   */\n      tag_232\n      jump\t// in\n    tag_256:\n        /* \"#utility.yul\":2350:2424   */\n      swap2\n      pop\n        /* \"#utility.yul\":2306:2434   */\n      pop\n        /* \"#utility.yul\":2090:2441   */\n      swap3\n      swap2\n      pop\n      pop\n      jump\t// out\n        /* \"#utility.yul\":2447:2921   */\n    tag_83:\n        /* \"#utility.yul\":2515:2521   */\n      0x00\n        /* \"#utility.yul\":2523:2529   */\n      dup1\n        /* \"#utility.yul\":2572:2574   */\n      0x40\n        /* \"#utility.yul\":2560:2569   */\n      dup4\n        /* \"#utility.yul\":2551:2558   */\n      dup6\n        /* \"#utility.yul\":2547:2570   */\n      sub\n        /* \"#utility.yul\":2543:2575   */\n      slt\n        /* \"#utility.yul\":2540:2659   */\n      iszero\n      tag_258\n      jumpi\n        /* \"#utility.yul\":2578:2657   */\n      tag_259\n      tag_238\n      jump\t// in\n    tag_259:\n        /* \"#utility.yul\":2540:2659   */\n    tag_258:\n        /* \"#utility.yul\":2698:2699   */\n      0x00\n        /* \"#utility.yul\":2723:2776   */\n      tag_260\n        /* \"#utility.yul\":2768:2775   */\n      dup6\n        /* \"#utility.yul\":2759:2765   */\n      dup3\n        /* \"#utility.yul\":2748:2757   */\n      dup7\n        /* \"#utility.yul\":2744:2766   */\n      add\n        /* \"#utility.yul\":2723:2776   */\n      tag_228\n      jump\t// in\n    tag_260:\n        /* \"#utility.yul\":2713:2776   */\n      swap3\n      pop\n        /* \"#utility.yul\":2669:2786   */\n      pop\n        /* \"#utility.yul\":2825:2827   */\n      0x20\n        /* \"#utility.yul\":2851:2904   */\n      tag_261\n        /* \"#utility.yul\":2896:2903   */\n      dup6\n        /* \"#utility.yul\":2887:2893   */\n      dup3\n        /* \"#utility.yul\":2876:2885   */\n      dup7\n        /* \"#utility.yul\":2872:2894   */\n      add\n        /* \"#utility.yul\":2851:2904   */\n      tag_228\n      jump\t// in\n    tag_261:\n        /* \"#utility.yul\":2841:2904   */\n      swap2\n      pop\n        /* \"#utility.yul\":2796:2914   */\n      pop\n        /* \"#utility.yul\":2447:2921   */\n      swap3\n      pop\n      swap3\n      swap1\n      pop\n      jump\t// out\n        /* \"#utility.yul\":2927:3202   */\n    tag_262:\n        /* \"#utility.yul\":3044:3054   */\n      0x00\n        /* \"#utility.yul\":3065:3159   */\n      tag_264\n        /* \"#utility.yul\":3155:3158   */\n      dup4\n        /* \"#utility.yul\":3147:3153   */\n      dup4\n        /* \"#utility.yul\":3065:3159   */\n      tag_265\n      jump\t// in\n    tag_264:\n        /* \"#utility.yul\":3191:3195   */\n      0xa0\n        /* \"#utility.yul\":3186:3189   */\n      dup4\n        /* \"#utility.yul\":3182:3196   */\n      add\n        /* \"#utility.yul\":3168:3196   */\n      swap1\n      pop\n        /* \"#utility.yul\":2927:3202   */\n      swap3\n      swap2\n      pop\n      pop\n      jump\t// out\n        /* \"#utility.yul\":3208:3316   */\n    tag_266:\n        /* \"#utility.yul\":3285:3309   */\n      tag_268\n        /* \"#utility.yul\":3303:3308   */\n      dup2\n        /* \"#utility.yul\":3285:3309   */\n      tag_269\n      jump\t// in\n    tag_268:\n        /* \"#utility.yul\":3280:3283   */\n      dup3\n        /* \"#utility.yul\":3273:3310   */\n      mstore\n        /* \"#utility.yul\":3208:3316   */\n      pop\n      pop\n      jump\t// out\n        /* \"#utility.yul\":3322:3440   */\n    tag_270:\n        /* \"#utility.yul\":3409:3433   */\n      tag_272\n        /* \"#utility.yul\":3427:3432   */\n      dup2\n        /* \"#utility.yul\":3409:3433   */\n      tag_269\n      jump\t// in\n    tag_272:\n        /* \"#utility.yul\":3404:3407   */\n      dup3\n        /* \"#utility.yul\":3397:3434   */\n      mstore\n        /* \"#utility.yul\":3322:3440   */\n      pop\n      pop\n      jump\t// out\n        /* \"#utility.yul\":3446:3603   */\n    tag_273:\n        /* \"#utility.yul\":3551:3596   */\n      tag_275\n        /* \"#utility.yul\":3571:3595   */\n      tag_276\n        /* \"#utility.yul\":3589:3594   */\n      dup3\n        /* \"#utility.yul\":3571:3595   */\n      tag_269\n      jump\t// in\n    tag_276:\n        /* \"#utility.yul\":3551:3596   */\n      tag_277\n      jump\t// in\n    tag_275:\n        /* \"#utility.yul\":3546:3549   */\n      dup3\n        /* \"#utility.yul\":3539:3597   */\n      mstore\n        /* \"#utility.yul\":3446:3603   */\n      pop\n      pop\n      jump\t// out\n        /* \"#utility.yul\":3671:4595   */\n    tag_278:\n        /* \"#utility.yul\":3838:3841   */\n      0x00\n        /* \"#utility.yul\":3867:3945   */\n      tag_280\n        /* \"#utility.yul\":3939:3944   */\n      dup3\n        /* \"#utility.yul\":3867:3945   */\n      tag_281\n      jump\t// in\n    tag_280:\n        /* \"#utility.yul\":3961:4071   */\n      tag_282\n        /* \"#utility.yul\":4064:4070   */\n      dup2\n        /* \"#utility.yul\":4059:4062   */\n      dup6\n        /* \"#utility.yul\":3961:4071   */\n      tag_283\n      jump\t// in\n    tag_282:\n        /* \"#utility.yul\":3954:4071   */\n      swap4\n      pop\n        /* \"#utility.yul\":4095:4175   */\n      tag_284\n        /* \"#utility.yul\":4169:4174   */\n      dup4\n        /* \"#utility.yul\":4095:4175   */\n      tag_285\n      jump\t// in\n    tag_284:\n        /* \"#utility.yul\":4198:4205   */\n      dup1\n        /* \"#utility.yul\":4229:4230   */\n      0x00\n        /* \"#utility.yul\":4214:4570   */\n    tag_286:\n        /* \"#utility.yul\":4239:4245   */\n      dup4\n        /* \"#utility.yul\":4236:4237   */\n      dup2\n        /* \"#utility.yul\":4233:4246   */\n      lt\n        /* \"#utility.yul\":4214:4570   */\n      iszero\n      tag_288\n      jumpi\n        /* \"#utility.yul\":4315:4321   */\n      dup2\n        /* \"#utility.yul\":4309:4322   */\n      mload\n        /* \"#utility.yul\":4342:4453   */\n      tag_289\n        /* \"#utility.yul\":4449:4452   */\n      dup9\n        /* \"#utility.yul\":4434:4447   */\n      dup3\n        /* \"#utility.yul\":4342:4453   */\n      tag_262\n      jump\t// in\n    tag_289:\n        /* \"#utility.yul\":4335:4453   */\n      swap8\n      pop\n        /* \"#utility.yul\":4476:4560   */\n      tag_290\n        /* \"#utility.yul\":4553:4559   */\n      dup4\n        /* \"#utility.yul\":4476:4560   */\n      tag_291\n      jump\t// in\n    tag_290:\n        /* \"#utility.yul\":4466:4560   */\n      swap3\n      pop\n        /* \"#utility.yul\":4274:4570   */\n      pop\n        /* \"#utility.yul\":4261:4262   */\n      0x01\n        /* \"#utility.yul\":4258:4259   */\n      dup2\n        /* \"#utility.yul\":4254:4263   */\n      add\n        /* \"#utility.yul\":4249:4263   */\n      swap1\n      pop\n        /* \"#utility.yul\":4214:4570   */\n      jump(tag_286)\n    tag_288:\n        /* \"#utility.yul\":4218:4232   */\n      pop\n        /* \"#utility.yul\":4586:4589   */\n      dup6\n        /* \"#utility.yul\":4579:4589   */\n      swap4\n      pop\n        /* \"#utility.yul\":3843:4595   */\n      pop\n      pop\n      pop\n        /* \"#utility.yul\":3671:4595   */\n      swap3\n      swap2\n      pop\n      pop\n      jump\t// out\n        /* \"#utility.yul\":4601:4710   */\n    tag_292:\n        /* \"#utility.yul\":4682:4703   */\n      tag_294\n        /* \"#utility.yul\":4697:4702   */\n      dup2\n        /* \"#utility.yul\":4682:4703   */\n      tag_295\n      jump\t// in\n    tag_294:\n        /* \"#utility.yul\":4677:4680   */\n      dup3\n        /* \"#utility.yul\":4670:4704   */\n      mstore\n        /* \"#utility.yul\":4601:4710   */\n      pop\n      pop\n      jump\t// out\n        /* \"#utility.yul\":4716:4875   */\n    tag_296:\n        /* \"#utility.yul\":4817:4868   */\n      tag_298\n        /* \"#utility.yul\":4862:4867   */\n      dup2\n        /* \"#utility.yul\":4817:4868   */\n      tag_299\n      jump\t// in\n    tag_298:\n        /* \"#utility.yul\":4812:4815   */\n      dup3\n        /* \"#utility.yul\":4805:4869   */\n      mstore\n        /* \"#utility.yul\":4716:4875   */\n      pop\n      pop\n      jump\t// out\n        /* \"#utility.yul\":4881:5247   */\n    tag_300:\n        /* \"#utility.yul\":5023:5026   */\n      0x00\n        /* \"#utility.yul\":5044:5111   */\n      tag_302\n        /* \"#utility.yul\":5108:5110   */\n      0x26\n        /* \"#utility.yul\":5103:5106   */\n      dup4\n        /* \"#utility.yul\":5044:5111   */\n      tag_303\n      jump\t// in\n    tag_302:\n        /* \"#utility.yul\":5037:5111   */\n      swap2\n      pop\n        /* \"#utility.yul\":5120:5213   */\n      tag_304\n        /* \"#utility.yul\":5209:5212   */\n      dup3\n        /* \"#utility.yul\":5120:5213   */\n      tag_305\n      jump\t// in\n    tag_304:\n        /* \"#utility.yul\":5238:5240   */\n      0x40\n        /* \"#utility.yul\":5233:5236   */\n      dup3\n        /* \"#utility.yul\":5229:5241   */\n      add\n        /* \"#utility.yul\":5222:5241   */\n      swap1\n      pop\n        /* \"#utility.yul\":4881:5247   */\n      swap2\n      swap1\n      pop\n      jump\t// out\n        /* \"#utility.yul\":5253:5619   */\n    tag_306:\n        /* \"#utility.yul\":5395:5398   */\n      0x00\n        /* \"#utility.yul\":5416:5483   */\n      tag_308\n        /* \"#utility.yul\":5480:5482   */\n      0x18\n        /* \"#utility.yul\":5475:5478   */\n      dup4\n        /* \"#utility.yul\":5416:5483   */\n      tag_303\n      jump\t// in\n    tag_308:\n        /* \"#utility.yul\":5409:5483   */\n      swap2\n      pop\n        /* \"#utility.yul\":5492:5585   */\n      tag_309\n        /* \"#utility.yul\":5581:5584   */\n      dup3\n        /* \"#utility.yul\":5492:5585   */\n      tag_310\n      jump\t// in\n    tag_309:\n        /* \"#utility.yul\":5610:5612   */\n      0x20\n        /* \"#utility.yul\":5605:5608   */\n      dup3\n        /* \"#utility.yul\":5601:5613   */\n      add\n        /* \"#utility.yul\":5594:5613   */\n      swap1\n      pop\n        /* \"#utility.yul\":5253:5619   */\n      swap2\n      swap1\n      pop\n      jump\t// out\n        /* \"#utility.yul\":5625:5991   */\n    tag_311:\n        /* \"#utility.yul\":5767:5770   */\n      0x00\n        /* \"#utility.yul\":5788:5855   */\n      tag_313\n        /* \"#utility.yul\":5852:5854   */\n      0x20\n        /* \"#utility.yul\":5847:5850   */\n      dup4\n        /* \"#utility.yul\":5788:5855   */\n      tag_303\n      jump\t// in\n    tag_313:\n        /* \"#utility.yul\":5781:5855   */\n      swap2\n      pop\n        /* \"#utility.yul\":5864:5957   */\n      tag_314\n        /* \"#utility.yul\":5953:5956   */\n      dup3\n        /* \"#utility.yul\":5864:5957   */\n      tag_315\n      jump\t// in\n    tag_314:\n        /* \"#utility.yul\":5982:5984   */\n      0x20\n        /* \"#utility.yul\":5977:5980   */\n      dup3\n        /* \"#utility.yul\":5973:5985   */\n      add\n        /* \"#utility.yul\":5966:5985   */\n      swap1\n      pop\n        /* \"#utility.yul\":5625:5991   */\n      swap2\n      swap1\n      pop\n      jump\t// out\n        /* \"#utility.yul\":6055:7104   */\n    tag_265:\n        /* \"#utility.yul\":6190:6194   */\n      0xa0\n        /* \"#utility.yul\":6185:6188   */\n      dup3\n        /* \"#utility.yul\":6181:6195   */\n      add\n        /* \"#utility.yul\":6285:6289   */\n      0x00\n        /* \"#utility.yul\":6278:6283   */\n      dup3\n        /* \"#utility.yul\":6274:6290   */\n      add\n        /* \"#utility.yul\":6268:6291   */\n      mload\n        /* \"#utility.yul\":6304:6367   */\n      tag_317\n        /* \"#utility.yul\":6361:6365   */\n      0x00\n        /* \"#utility.yul\":6356:6359   */\n      dup6\n        /* \"#utility.yul\":6352:6366   */\n      add\n        /* \"#utility.yul\":6338:6350   */\n      dup3\n        /* \"#utility.yul\":6304:6367   */\n      tag_318\n      jump\t// in\n    tag_317:\n        /* \"#utility.yul\":6205:6377   */\n      pop\n        /* \"#utility.yul\":6468:6472   */\n      0x20\n        /* \"#utility.yul\":6461:6466   */\n      dup3\n        /* \"#utility.yul\":6457:6473   */\n      add\n        /* \"#utility.yul\":6451:6474   */\n      mload\n        /* \"#utility.yul\":6487:6550   */\n      tag_319\n        /* \"#utility.yul\":6544:6548   */\n      0x20\n        /* \"#utility.yul\":6539:6542   */\n      dup6\n        /* \"#utility.yul\":6535:6549   */\n      add\n        /* \"#utility.yul\":6521:6533   */\n      dup3\n        /* \"#utility.yul\":6487:6550   */\n      tag_318\n      jump\t// in\n    tag_319:\n        /* \"#utility.yul\":6387:6560   */\n      pop\n        /* \"#utility.yul\":6644:6648   */\n      0x40\n        /* \"#utility.yul\":6637:6642   */\n      dup3\n        /* \"#utility.yul\":6633:6649   */\n      add\n        /* \"#utility.yul\":6627:6650   */\n      mload\n        /* \"#utility.yul\":6663:6726   */\n      tag_320\n        /* \"#utility.yul\":6720:6724   */\n      0x40\n        /* \"#utility.yul\":6715:6718   */\n      dup6\n        /* \"#utility.yul\":6711:6725   */\n      add\n        /* \"#utility.yul\":6697:6709   */\n      dup3\n        /* \"#utility.yul\":6663:6726   */\n      tag_318\n      jump\t// in\n    tag_320:\n        /* \"#utility.yul\":6570:6736   */\n      pop\n        /* \"#utility.yul\":6821:6825   */\n      0x60\n        /* \"#utility.yul\":6814:6819   */\n      dup3\n        /* \"#utility.yul\":6810:6826   */\n      add\n        /* \"#utility.yul\":6804:6827   */\n      mload\n        /* \"#utility.yul\":6840:6903   */\n      tag_321\n        /* \"#utility.yul\":6897:6901   */\n      0x60\n        /* \"#utility.yul\":6892:6895   */\n      dup6\n        /* \"#utility.yul\":6888:6902   */\n      add\n        /* \"#utility.yul\":6874:6886   */\n      dup3\n        /* \"#utility.yul\":6840:6903   */\n      tag_318\n      jump\t// in\n    tag_321:\n        /* \"#utility.yul\":6746:6913   */\n      pop\n        /* \"#utility.yul\":7005:7009   */\n      0x80\n        /* \"#utility.yul\":6998:7003   */\n      dup3\n        /* \"#utility.yul\":6994:7010   */\n      add\n        /* \"#utility.yul\":6988:7011   */\n      mload\n        /* \"#utility.yul\":7024:7087   */\n      tag_322\n        /* \"#utility.yul\":7081:7085   */\n      0x80\n        /* \"#utility.yul\":7076:7079   */\n      dup6\n        /* \"#utility.yul\":7072:7086   */\n      add\n        /* \"#utility.yul\":7058:7070   */\n      dup3\n        /* \"#utility.yul\":7024:7087   */\n      tag_266\n      jump\t// in\n    tag_322:\n        /* \"#utility.yul\":6923:7097   */\n      pop\n        /* \"#utility.yul\":6159:7104   */\n      pop\n        /* \"#utility.yul\":6055:7104   */\n      pop\n      pop\n      jump\t// out\n        /* \"#utility.yul\":7110:7218   */\n    tag_318:\n        /* \"#utility.yul\":7187:7211   */\n      tag_324\n        /* \"#utility.yul\":7205:7210   */\n      dup2\n        /* \"#utility.yul\":7187:7211   */\n      tag_325\n      jump\t// in\n    tag_324:\n        /* \"#utility.yul\":7182:7185   */\n      dup3\n        /* \"#utility.yul\":7175:7212   */\n      mstore\n        /* \"#utility.yul\":7110:7218   */\n      pop\n      pop\n      jump\t// out\n        /* \"#utility.yul\":7224:7342   */\n    tag_326:\n        /* \"#utility.yul\":7311:7335   */\n      tag_328\n        /* \"#utility.yul\":7329:7334   */\n      dup2\n        /* \"#utility.yul\":7311:7335   */\n      tag_325\n      jump\t// in\n    tag_328:\n        /* \"#utility.yul\":7306:7309   */\n      dup3\n        /* \"#utility.yul\":7299:7336   */\n      mstore\n        /* \"#utility.yul\":7224:7342   */\n      pop\n      pop\n      jump\t// out\n        /* \"#utility.yul\":7348:7505   */\n    tag_329:\n        /* \"#utility.yul\":7453:7498   */\n      tag_331\n        /* \"#utility.yul\":7473:7497   */\n      tag_332\n        /* \"#utility.yul\":7491:7496   */\n      dup3\n        /* \"#utility.yul\":7473:7497   */\n      tag_325\n      jump\t// in\n    tag_332:\n        /* \"#utility.yul\":7453:7498   */\n      tag_333\n      jump\t// in\n    tag_331:\n        /* \"#utility.yul\":7448:7451   */\n      dup3\n        /* \"#utility.yul\":7441:7499   */\n      mstore\n        /* \"#utility.yul\":7348:7505   */\n      pop\n      pop\n      jump\t// out\n        /* \"#utility.yul\":7511:8190   */\n    tag_217:\n        /* \"#utility.yul\":7707:7710   */\n      0x00\n        /* \"#utility.yul\":7722:7797   */\n      tag_335\n        /* \"#utility.yul\":7793:7796   */\n      dup3\n        /* \"#utility.yul\":7784:7790   */\n      dup8\n        /* \"#utility.yul\":7722:7797   */\n      tag_329\n      jump\t// in\n    tag_335:\n        /* \"#utility.yul\":7822:7824   */\n      0x20\n        /* \"#utility.yul\":7817:7820   */\n      dup3\n        /* \"#utility.yul\":7813:7825   */\n      add\n        /* \"#utility.yul\":7806:7825   */\n      swap2\n      pop\n        /* \"#utility.yul\":7835:7910   */\n      tag_336\n        /* \"#utility.yul\":7906:7909   */\n      dup3\n        /* \"#utility.yul\":7897:7903   */\n      dup7\n        /* \"#utility.yul\":7835:7910   */\n      tag_329\n      jump\t// in\n    tag_336:\n        /* \"#utility.yul\":7935:7937   */\n      0x20\n        /* \"#utility.yul\":7930:7933   */\n      dup3\n        /* \"#utility.yul\":7926:7938   */\n      add\n        /* \"#utility.yul\":7919:7938   */\n      swap2\n      pop\n        /* \"#utility.yul\":7948:8023   */\n      tag_337\n        /* \"#utility.yul\":8019:8022   */\n      dup3\n        /* \"#utility.yul\":8010:8016   */\n      dup6\n        /* \"#utility.yul\":7948:8023   */\n      tag_273\n      jump\t// in\n    tag_337:\n        /* \"#utility.yul\":8048:8050   */\n      0x14\n        /* \"#utility.yul\":8043:8046   */\n      dup3\n        /* \"#utility.yul\":8039:8051   */\n      add\n        /* \"#utility.yul\":8032:8051   */\n      swap2\n      pop\n        /* \"#utility.yul\":8061:8136   */\n      tag_338\n        /* \"#utility.yul\":8132:8135   */\n      dup3\n        /* \"#utility.yul\":8123:8129   */\n      dup5\n        /* \"#utility.yul\":8061:8136   */\n      tag_329\n      jump\t// in\n    tag_338:\n        /* \"#utility.yul\":8161:8163   */\n      0x20\n        /* \"#utility.yul\":8156:8159   */\n      dup3\n        /* \"#utility.yul\":8152:8164   */\n      add\n        /* \"#utility.yul\":8145:8164   */\n      swap2\n      pop\n        /* \"#utility.yul\":8181:8184   */\n      dup2\n        /* \"#utility.yul\":8174:8184   */\n      swap1\n      pop\n        /* \"#utility.yul\":7511:8190   */\n      swap6\n      swap5\n      pop\n      pop\n      pop\n      pop\n      pop\n      jump\t// out\n        /* \"#utility.yul\":8196:8418   */\n    tag_59:\n        /* \"#utility.yul\":8289:8293   */\n      0x00\n        /* \"#utility.yul\":8327:8329   */\n      0x20\n        /* \"#utility.yul\":8316:8325   */\n      dup3\n        /* \"#utility.yul\":8312:8330   */\n      add\n        /* \"#utility.yul\":8304:8330   */\n      swap1\n      pop\n        /* \"#utility.yul\":8340:8411   */\n      tag_340\n        /* \"#utility.yul\":8408:8409   */\n      0x00\n        /* \"#utility.yul\":8397:8406   */\n      dup4\n        /* \"#utility.yul\":8393:8410   */\n      add\n        /* \"#utility.yul\":8384:8390   */\n      dup5\n        /* \"#utility.yul\":8340:8411   */\n      tag_270\n      jump\t// in\n    tag_340:\n        /* \"#utility.yul\":8196:8418   */\n      swap3\n      swap2\n      pop\n      pop\n      jump\t// out\n        /* \"#utility.yul\":8424:8756   */\n    tag_141:\n        /* \"#utility.yul\":8545:8549   */\n      0x00\n        /* \"#utility.yul\":8583:8585   */\n      0x40\n        /* \"#utility.yul\":8572:8581   */\n      dup3\n        /* \"#utility.yul\":8568:8586   */\n      add\n        /* \"#utility.yul\":8560:8586   */\n      swap1\n      pop\n        /* \"#utility.yul\":8596:8667   */\n      tag_342\n        /* \"#utility.yul\":8664:8665   */\n      0x00\n        /* \"#utility.yul\":8653:8662   */\n      dup4\n        /* \"#utility.yul\":8649:8666   */\n      add\n        /* \"#utility.yul\":8640:8646   */\n      dup6\n        /* \"#utility.yul\":8596:8667   */\n      tag_270\n      jump\t// in\n    tag_342:\n        /* \"#utility.yul\":8677:8749   */\n      tag_343\n        /* \"#utility.yul\":8745:8747   */\n      0x20\n        /* \"#utility.yul\":8734:8743   */\n      dup4\n        /* \"#utility.yul\":8730:8748   */\n      add\n        /* \"#utility.yul\":8721:8727   */\n      dup5\n        /* \"#utility.yul\":8677:8749   */\n      tag_326\n      jump\t// in\n    tag_343:\n        /* \"#utility.yul\":8424:8756   */\n      swap4\n      swap3\n      pop\n      pop\n      pop\n      jump\t// out\n        /* \"#utility.yul\":8762:9231   */\n    tag_86:\n        /* \"#utility.yul\":8953:8957   */\n      0x00\n        /* \"#utility.yul\":8991:8993   */\n      0x20\n        /* \"#utility.yul\":8980:8989   */\n      dup3\n        /* \"#utility.yul\":8976:8994   */\n      add\n        /* \"#utility.yul\":8968:8994   */\n      swap1\n      pop\n        /* \"#utility.yul\":9040:9049   */\n      dup2\n        /* \"#utility.yul\":9034:9038   */\n      dup2\n        /* \"#utility.yul\":9030:9050   */\n      sub\n        /* \"#utility.yul\":9026:9027   */\n      0x00\n        /* \"#utility.yul\":9015:9024   */\n      dup4\n        /* \"#utility.yul\":9011:9028   */\n      add\n        /* \"#utility.yul\":9004:9051   */\n      mstore\n        /* \"#utility.yul\":9068:9224   */\n      tag_345\n        /* \"#utility.yul\":9219:9223   */\n      dup2\n        /* \"#utility.yul\":9210:9216   */\n      dup5\n        /* \"#utility.yul\":9068:9224   */\n      tag_278\n      jump\t// in\n    tag_345:\n        /* \"#utility.yul\":9060:9224   */\n      swap1\n      pop\n        /* \"#utility.yul\":8762:9231   */\n      swap3\n      swap2\n      pop\n      pop\n      jump\t// out\n        /* \"#utility.yul\":9237:9447   */\n    tag_48:\n        /* \"#utility.yul\":9324:9328   */\n      0x00\n        /* \"#utility.yul\":9362:9364   */\n      0x20\n        /* \"#utility.yul\":9351:9360   */\n      dup3\n        /* \"#utility.yul\":9347:9365   */\n      add\n        /* \"#utility.yul\":9339:9365   */\n      swap1\n      pop\n        /* \"#utility.yul\":9375:9440   */\n      tag_347\n        /* \"#utility.yul\":9437:9438   */\n      0x00\n        /* \"#utility.yul\":9426:9435   */\n      dup4\n        /* \"#utility.yul\":9422:9439   */\n      add\n        /* \"#utility.yul\":9413:9419   */\n      dup5\n        /* \"#utility.yul\":9375:9440   */\n      tag_292\n      jump\t// in\n    tag_347:\n        /* \"#utility.yul\":9237:9447   */\n      swap3\n      swap2\n      pop\n      pop\n      jump\t// out\n        /* \"#utility.yul\":9453:9703   */\n    tag_63:\n        /* \"#utility.yul\":9560:9564   */\n      0x00\n        /* \"#utility.yul\":9598:9600   */\n      0x20\n        /* \"#utility.yul\":9587:9596   */\n      dup3\n        /* \"#utility.yul\":9583:9601   */\n      add\n        /* \"#utility.yul\":9575:9601   */\n      swap1\n      pop\n        /* \"#utility.yul\":9611:9696   */\n      tag_349\n        /* \"#utility.yul\":9693:9694   */\n      0x00\n        /* \"#utility.yul\":9682:9691   */\n      dup4\n        /* \"#utility.yul\":9678:9695   */\n      add\n        /* \"#utility.yul\":9669:9675   */\n      dup5\n        /* \"#utility.yul\":9611:9696   */\n      tag_296\n      jump\t// in\n    tag_349:\n        /* \"#utility.yul\":9453:9703   */\n      swap3\n      swap2\n      pop\n      pop\n      jump\t// out\n        /* \"#utility.yul\":9709:10128   */\n    tag_205:\n        /* \"#utility.yul\":9875:9879   */\n      0x00\n        /* \"#utility.yul\":9913:9915   */\n      0x20\n        /* \"#utility.yul\":9902:9911   */\n      dup3\n        /* \"#utility.yul\":9898:9916   */\n      add\n        /* \"#utility.yul\":9890:9916   */\n      swap1\n      pop\n        /* \"#utility.yul\":9962:9971   */\n      dup2\n        /* \"#utility.yul\":9956:9960   */\n      dup2\n        /* \"#utility.yul\":9952:9972   */\n      sub\n        /* \"#utility.yul\":9948:9949   */\n      0x00\n        /* \"#utility.yul\":9937:9946   */\n      dup4\n        /* \"#utility.yul\":9933:9950   */\n      add\n        /* \"#utility.yul\":9926:9973   */\n      mstore\n        /* \"#utility.yul\":9990:10121   */\n      tag_351\n        /* \"#utility.yul\":10116:10120   */\n      dup2\n        /* \"#utility.yul\":9990:10121   */\n      tag_300\n      jump\t// in\n    tag_351:\n        /* \"#utility.yul\":9982:10121   */\n      swap1\n      pop\n        /* \"#utility.yul\":9709:10128   */\n      swap2\n      swap1\n      pop\n      jump\t// out\n        /* \"#utility.yul\":10134:10553   */\n    tag_133:\n        /* \"#utility.yul\":10300:10304   */\n      0x00\n        /* \"#utility.yul\":10338:10340   */\n      0x20\n        /* \"#utility.yul\":10327:10336   */\n      dup3\n        /* \"#utility.yul\":10323:10341   */\n      add\n        /* \"#utility.yul\":10315:10341   */\n      swap1\n      pop\n        /* \"#utility.yul\":10387:10396   */\n      dup2\n        /* \"#utility.yul\":10381:10385   */\n      dup2\n        /* \"#utility.yul\":10377:10397   */\n      sub\n        /* \"#utility.yul\":10373:10374   */\n      0x00\n        /* \"#utility.yul\":10362:10371   */\n      dup4\n        /* \"#utility.yul\":10358:10375   */\n      add\n        /* \"#utility.yul\":10351:10398   */\n      mstore\n        /* \"#utility.yul\":10415:10546   */\n      tag_353\n        /* \"#utility.yul\":10541:10545   */\n      dup2\n        /* \"#utility.yul\":10415:10546   */\n      tag_306\n      jump\t// in\n    tag_353:\n        /* \"#utility.yul\":10407:10546   */\n      swap1\n      pop\n        /* \"#utility.yul\":10134:10553   */\n      swap2\n      swap1\n      pop\n      jump\t// out\n        /* \"#utility.yul\":10559:10978   */\n    tag_128:\n        /* \"#utility.yul\":10725:10729   */\n      0x00\n        /* \"#utility.yul\":10763:10765   */\n      0x20\n        /* \"#utility.yul\":10752:10761   */\n      dup3\n        /* \"#utility.yul\":10748:10766   */\n      add\n        /* \"#utility.yul\":10740:10766   */\n      swap1\n      pop\n        /* \"#utility.yul\":10812:10821   */\n      dup2\n        /* \"#utility.yul\":10806:10810   */\n      dup2\n        /* \"#utility.yul\":10802:10822   */\n      sub\n        /* \"#utility.yul\":10798:10799   */\n      0x00\n        /* \"#utility.yul\":10787:10796   */\n      dup4\n        /* \"#utility.yul\":10783:10800   */\n      add\n        /* \"#utility.yul\":10776:10823   */\n      mstore\n        /* \"#utility.yul\":10840:10971   */\n      tag_355\n        /* \"#utility.yul\":10966:10970   */\n      dup2\n        /* \"#utility.yul\":10840:10971   */\n      tag_311\n      jump\t// in\n    tag_355:\n        /* \"#utility.yul\":10832:10971   */\n      swap1\n      pop\n        /* \"#utility.yul\":10559:10978   */\n      swap2\n      swap1\n      pop\n      jump\t// out\n        /* \"#utility.yul\":10984:11206   */\n    tag_30:\n        /* \"#utility.yul\":11077:11081   */\n      0x00\n        /* \"#utility.yul\":11115:11117   */\n      0x20\n        /* \"#utility.yul\":11104:11113   */\n      dup3\n        /* \"#utility.yul\":11100:11118   */\n      add\n        /* \"#utility.yul\":11092:11118   */\n      swap1\n      pop\n        /* \"#utility.yul\":11128:11199   */\n      tag_357\n        /* \"#utility.yul\":11196:11197   */\n      0x00\n        /* \"#utility.yul\":11185:11194   */\n      dup4\n        /* \"#utility.yul\":11181:11198   */\n      add\n        /* \"#utility.yul\":11172:11178   */\n      dup5\n        /* \"#utility.yul\":11128:11199   */\n      tag_326\n      jump\t// in\n    tag_357:\n        /* \"#utility.yul\":10984:11206   */\n      swap3\n      swap2\n      pop\n      pop\n      jump\t// out\n        /* \"#utility.yul\":11212:11876   */\n    tag_76:\n        /* \"#utility.yul\":11417:11421   */\n      0x00\n        /* \"#utility.yul\":11455:11458   */\n      0xa0\n        /* \"#utility.yul\":11444:11453   */\n      dup3\n        /* \"#utility.yul\":11440:11459   */\n      add\n        /* \"#utility.yul\":11432:11459   */\n      swap1\n      pop\n        /* \"#utility.yul\":11469:11540   */\n      tag_359\n        /* \"#utility.yul\":11537:11538   */\n      0x00\n        /* \"#utility.yul\":11526:11535   */\n      dup4\n        /* \"#utility.yul\":11522:11539   */\n      add\n        /* \"#utility.yul\":11513:11519   */\n      dup9\n        /* \"#utility.yul\":11469:11540   */\n      tag_326\n      jump\t// in\n    tag_359:\n        /* \"#utility.yul\":11550:11622   */\n      tag_360\n        /* \"#utility.yul\":11618:11620   */\n      0x20\n        /* \"#utility.yul\":11607:11616   */\n      dup4\n        /* \"#utility.yul\":11603:11621   */\n      add\n        /* \"#utility.yul\":11594:11600   */\n      dup8\n        /* \"#utility.yul\":11550:11622   */\n      tag_326\n      jump\t// in\n    tag_360:\n        /* \"#utility.yul\":11632:11704   */\n      tag_361\n        /* \"#utility.yul\":11700:11702   */\n      0x40\n        /* \"#utility.yul\":11689:11698   */\n      dup4\n        /* \"#utility.yul\":11685:11703   */\n      add\n        /* \"#utility.yul\":11676:11682   */\n      dup7\n        /* \"#utility.yul\":11632:11704   */\n      tag_326\n      jump\t// in\n    tag_361:\n        /* \"#utility.yul\":11714:11786   */\n      tag_362\n        /* \"#utility.yul\":11782:11784   */\n      0x60\n        /* \"#utility.yul\":11771:11780   */\n      dup4\n        /* \"#utility.yul\":11767:11785   */\n      add\n        /* \"#utility.yul\":11758:11764   */\n      dup6\n        /* \"#utility.yul\":11714:11786   */\n      tag_326\n      jump\t// in\n    tag_362:\n        /* \"#utility.yul\":11796:11869   */\n      tag_363\n        /* \"#utility.yul\":11864:11867   */\n      0x80\n        /* \"#utility.yul\":11853:11862   */\n      dup4\n        /* \"#utility.yul\":11849:11868   */\n      add\n        /* \"#utility.yul\":11840:11846   */\n      dup5\n        /* \"#utility.yul\":11796:11869   */\n      tag_270\n      jump\t// in\n    tag_363:\n        /* \"#utility.yul\":11212:11876   */\n      swap7\n      swap6\n      pop\n      pop\n      pop\n      pop\n      pop\n      pop\n      jump\t// out\n        /* \"#utility.yul\":11963:12119   */\n    tag_285:\n        /* \"#utility.yul\":12054:12058   */\n      0x00\n        /* \"#utility.yul\":12077:12080   */\n      dup2\n        /* \"#utility.yul\":12069:12080   */\n      swap1\n      pop\n        /* \"#utility.yul\":12107:12111   */\n      0x20\n        /* \"#utility.yul\":12102:12105   */\n      dup3\n        /* \"#utility.yul\":12098:12112   */\n      add\n        /* \"#utility.yul\":12090:12112   */\n      swap1\n      pop\n        /* \"#utility.yul\":11963:12119   */\n      swap2\n      swap1\n      pop\n      jump\t// out\n        /* \"#utility.yul\":12125:12263   */\n    tag_281:\n        /* \"#utility.yul\":12216:12222   */\n      0x00\n        /* \"#utility.yul\":12250:12255   */\n      dup2\n        /* \"#utility.yul\":12244:12256   */\n      mload\n        /* \"#utility.yul\":12234:12256   */\n      swap1\n      pop\n        /* \"#utility.yul\":12125:12263   */\n      swap2\n      swap1\n      pop\n      jump\t// out\n        /* \"#utility.yul\":12269:12406   */\n    tag_291:\n        /* \"#utility.yul\":12363:12367   */\n      0x00\n        /* \"#utility.yul\":12395:12399   */\n      0x20\n        /* \"#utility.yul\":12390:12393   */\n      dup3\n        /* \"#utility.yul\":12386:12400   */\n      add\n        /* \"#utility.yul\":12378:12400   */\n      swap1\n      pop\n        /* \"#utility.yul\":12269:12406   */\n      swap2\n      swap1\n      pop\n      jump\t// out\n        /* \"#utility.yul\":12412:12620   */\n    tag_283:\n        /* \"#utility.yul\":12535:12546   */\n      0x00\n        /* \"#utility.yul\":12569:12575   */\n      dup3\n        /* \"#utility.yul\":12564:12567   */\n      dup3\n        /* \"#utility.yul\":12557:12576   */\n      mstore\n        /* \"#utility.yul\":12609:12613   */\n      0x20\n        /* \"#utility.yul\":12604:12607   */\n      dup3\n        /* \"#utility.yul\":12600:12614   */\n      add\n        /* \"#utility.yul\":12585:12614   */\n      swap1\n      pop\n        /* \"#utility.yul\":12412:12620   */\n      swap3\n      swap2\n      pop\n      pop\n      jump\t// out\n        /* \"#utility.yul\":12626:12795   */\n    tag_303:\n        /* \"#utility.yul\":12710:12721   */\n      0x00\n        /* \"#utility.yul\":12744:12750   */\n      dup3\n        /* \"#utility.yul\":12739:12742   */\n      dup3\n        /* \"#utility.yul\":12732:12751   */\n      mstore\n        /* \"#utility.yul\":12784:12788   */\n      0x20\n        /* \"#utility.yul\":12779:12782   */\n      dup3\n        /* \"#utility.yul\":12775:12789   */\n      add\n        /* \"#utility.yul\":12760:12789   */\n      swap1\n      pop\n        /* \"#utility.yul\":12626:12795   */\n      swap3\n      swap2\n      pop\n      pop\n      jump\t// out\n        /* \"#utility.yul\":12801:13106   */\n    tag_115:\n        /* \"#utility.yul\":12841:12844   */\n      0x00\n        /* \"#utility.yul\":12860:12880   */\n      tag_372\n        /* \"#utility.yul\":12878:12879   */\n      dup3\n        /* \"#utility.yul\":12860:12880   */\n      tag_325\n      jump\t// in\n    tag_372:\n        /* \"#utility.yul\":12855:12880   */\n      swap2\n      pop\n        /* \"#utility.yul\":12894:12914   */\n      tag_373\n        /* \"#utility.yul\":12912:12913   */\n      dup4\n        /* \"#utility.yul\":12894:12914   */\n      tag_325\n      jump\t// in\n    tag_373:\n        /* \"#utility.yul\":12889:12914   */\n      swap3\n      pop\n        /* \"#utility.yul\":13048:13049   */\n      dup3\n        /* \"#utility.yul\":12980:13046   */\n      0xffffffffffffffffffffffffffffffffffffffffffffffffffffffffffffffff\n        /* \"#utility.yul\":12976:13050   */\n      sub\n        /* \"#utility.yul\":12973:12974   */\n      dup3\n        /* \"#utility.yul\":12970:13051   */\n      gt\n        /* \"#utility.yul\":12967:13074   */\n      iszero\n      tag_374\n      jumpi\n        /* \"#utility.yul\":13054:13072   */\n      tag_375\n      tag_376\n      jump\t// in\n    tag_375:\n        /* \"#utility.yul\":12967:13074   */\n    tag_374:\n        /* \"#utility.yul\":13098:13099   */\n      dup3\n        /* \"#utility.yul\":13095:13096   */\n      dup3\n        /* \"#utility.yul\":13091:13100   */\n      add\n        /* \"#utility.yul\":13084:13100   */\n      swap1\n      pop\n        /* \"#utility.yul\":12801:13106   */\n      swap3\n      swap2\n      pop\n      pop\n      jump\t// out\n        /* \"#utility.yul\":13112:13303   */\n    tag_167:\n        /* \"#utility.yul\":13152:13156   */\n      0x00\n        /* \"#utility.yul\":13172:13192   */\n      tag_378\n        /* \"#utility.yul\":13190:13191   */\n      dup3\n        /* \"#utility.yul\":13172:13192   */\n      tag_325\n      jump\t// in\n    tag_378:\n        /* \"#utility.yul\":13167:13192   */\n      swap2\n      pop\n        /* \"#utility.yul\":13206:13226   */\n      tag_379\n        /* \"#utility.yul\":13224:13225   */\n      dup4\n        /* \"#utility.yul\":13206:13226   */\n      tag_325\n      jump\t// in\n    tag_379:\n        /* \"#utility.yul\":13201:13226   */\n      swap3\n      pop\n        /* \"#utility.yul\":13245:13246   */\n      dup3\n        /* \"#utility.yul\":13242:13243   */\n      dup3\n        /* \"#utility.yul\":13239:13247   */\n      lt\n        /* \"#utility.yul\":13236:13270   */\n      iszero\n      tag_380\n      jumpi\n        /* \"#utility.yul\":13250:13268   */\n      tag_381\n      tag_376\n      jump\t// in\n    tag_381:\n        /* \"#utility.yul\":13236:13270   */\n    tag_380:\n        /* \"#utility.yul\":13295:13296   */\n      dup3\n        /* \"#utility.yul\":13292:13293   */\n      dup3\n        /* \"#utility.yul\":13288:13297   */\n      sub\n        /* \"#utility.yul\":13280:13297   */\n      swap1\n      pop\n        /* \"#utility.yul\":13112:13303   */\n      swap3\n      swap2\n      pop\n      pop\n      jump\t// out\n        /* \"#utility.yul\":13309:13405   */\n    tag_269:\n        /* \"#utility.yul\":13346:13353   */\n      0x00\n        /* \"#utility.yul\":13375:13399   */\n      tag_383\n        /* \"#utility.yul\":13393:13398   */\n      dup3\n        /* \"#utility.yul\":13375:13399   */\n      tag_384\n      jump\t// in\n    tag_383:\n        /* \"#utility.yul\":13364:13399   */\n      swap1\n      pop\n        /* \"#utility.yul\":13309:13405   */\n      swap2\n      swap1\n      pop\n      jump\t// out\n        /* \"#utility.yul\":13411:13501   */\n    tag_295:\n        /* \"#utility.yul\":13445:13452   */\n      0x00\n        /* \"#utility.yul\":13488:13493   */\n      dup2\n        /* \"#utility.yul\":13481:13494   */\n      iszero\n        /* \"#utility.yul\":13474:13495   */\n      iszero\n        /* \"#utility.yul\":13463:13495   */\n      swap1\n      pop\n        /* \"#utility.yul\":13411:13501   */\n      swap2\n      swap1\n      pop\n      jump\t// out\n        /* \"#utility.yul\":13507:13633   */\n    tag_384:\n        /* \"#utility.yul\":13544:13551   */\n      0x00\n        /* \"#utility.yul\":13584:13626   */\n      0xffffffffffffffffffffffffffffffffffffffff\n        /* \"#utility.yul\":13577:13582   */\n      dup3\n        /* \"#utility.yul\":13573:13627   */\n      and\n        /* \"#utility.yul\":13562:13627   */\n      swap1\n      pop\n        /* \"#utility.yul\":13507:13633   */\n      swap2\n      swap1\n      pop\n      jump\t// out\n        /* \"#utility.yul\":13639:13716   */\n    tag_325:\n        /* \"#utility.yul\":13676:13683   */\n      0x00\n        /* \"#utility.yul\":13705:13710   */\n      dup2\n        /* \"#utility.yul\":13694:13710   */\n      swap1\n      pop\n        /* \"#utility.yul\":13639:13716   */\n      swap2\n      swap1\n      pop\n      jump\t// out\n        /* \"#utility.yul\":13722:13862   */\n    tag_299:\n        /* \"#utility.yul\":13786:13795   */\n      0x00\n        /* \"#utility.yul\":13819:13856   */\n      tag_389\n        /* \"#utility.yul\":13850:13855   */\n      dup3\n        /* \"#utility.yul\":13819:13856   */\n      tag_390\n      jump\t// in\n    tag_389:\n        /* \"#utility.yul\":13806:13856   */\n      swap1\n      pop\n        /* \"#utility.yul\":13722:13862   */\n      swap2\n      swap1\n      pop\n      jump\t// out\n        /* \"#utility.yul\":13868:13994   */\n    tag_390:\n        /* \"#utility.yul\":13918:13927   */\n      0x00\n        /* \"#utility.yul\":13951:13988   */\n      tag_392\n        /* \"#utility.yul\":13982:13987   */\n      dup3\n        /* \"#utility.yul\":13951:13988   */\n      tag_393\n      jump\t// in\n    tag_392:\n        /* \"#utility.yul\":13938:13988   */\n      swap1\n      pop\n        /* \"#utility.yul\":13868:13994   */\n      swap2\n      swap1\n      pop\n      jump\t// out\n        /* \"#utility.yul\":14000:14113   */\n    tag_393:\n        /* \"#utility.yul\":14050:14059   */\n      0x00\n        /* \"#utility.yul\":14083:14107   */\n      tag_395\n        /* \"#utility.yul\":14101:14106   */\n      dup3\n        /* \"#utility.yul\":14083:14107   */\n      tag_384\n      jump\t// in\n    tag_395:\n        /* \"#utility.yul\":14070:14107   */\n      swap1\n      pop\n        /* \"#utility.yul\":14000:14113   */\n      swap2\n      swap1\n      pop\n      jump\t// out\n        /* \"#utility.yul\":14119:14352   */\n    tag_108:\n        /* \"#utility.yul\":14158:14161   */\n      0x00\n        /* \"#utility.yul\":14181:14205   */\n      tag_397\n        /* \"#utility.yul\":14199:14204   */\n      dup3\n        /* \"#utility.yul\":14181:14205   */\n      tag_325\n      jump\t// in\n    tag_397:\n        /* \"#utility.yul\":14172:14205   */\n      swap2\n      pop\n        /* \"#utility.yul\":14227:14293   */\n      0xffffffffffffffffffffffffffffffffffffffffffffffffffffffffffffffff\n        /* \"#utility.yul\":14220:14225   */\n      dup3\n        /* \"#utility.yul\":14217:14294   */\n      eq\n        /* \"#utility.yul\":14214:14317   */\n      iszero\n      tag_398\n      jumpi\n        /* \"#utility.yul\":14297:14315   */\n      tag_399\n      tag_376\n      jump\t// in\n    tag_399:\n        /* \"#utility.yul\":14214:14317   */\n    tag_398:\n        /* \"#utility.yul\":14344:14345   */\n      0x01\n        /* \"#utility.yul\":14337:14342   */\n      dup3\n        /* \"#utility.yul\":14333:14346   */\n      add\n        /* \"#utility.yul\":14326:14346   */\n      swap1\n      pop\n        /* \"#utility.yul\":14119:14352   */\n      swap2\n      swap1\n      pop\n      jump\t// out\n        /* \"#utility.yul\":14358:14458   */\n    tag_277:\n        /* \"#utility.yul\":14397:14404   */\n      0x00\n        /* \"#utility.yul\":14426:14452   */\n      tag_401\n        /* \"#utility.yul\":14446:14451   */\n      dup3\n        /* \"#utility.yul\":14426:14452   */\n      tag_402\n      jump\t// in\n    tag_401:\n        /* \"#utility.yul\":14415:14452   */\n      swap1\n      pop\n        /* \"#utility.yul\":14358:14458   */\n      swap2\n      swap1\n      pop\n      jump\t// out\n        /* \"#utility.yul\":14464:14558   */\n    tag_402:\n        /* \"#utility.yul\":14503:14510   */\n      0x00\n        /* \"#utility.yul\":14532:14552   */\n      tag_404\n        /* \"#utility.yul\":14546:14551   */\n      dup3\n        /* \"#utility.yul\":14532:14552   */\n      tag_405\n      jump\t// in\n    tag_404:\n        /* \"#utility.yul\":14521:14552   */\n      swap1\n      pop\n        /* \"#utility.yul\":14464:14558   */\n      swap2\n      swap1\n      pop\n      jump\t// out\n        /* \"#utility.yul\":14564:14643   */\n    tag_333:\n        /* \"#utility.yul\":14603:14610   */\n      0x00\n        /* \"#utility.yul\":14632:14637   */\n      dup2\n        /* \"#utility.yul\":14621:14637   */\n      swap1\n      pop\n        /* \"#utility.yul\":14564:14643   */\n      swap2\n      swap1\n      pop\n      jump\t// out\n        /* \"#utility.yul\":14649:14825   */\n    tag_137:\n        /* \"#utility.yul\":14681:14682   */\n      0x00\n        /* \"#utility.yul\":14698:14718   */\n      tag_408\n        /* \"#utility.yul\":14716:14717   */\n      dup3\n        /* \"#utility.yul\":14698:14718   */\n      tag_325\n      jump\t// in\n    tag_408:\n        /* \"#utility.yul\":14693:14718   */\n      swap2\n      pop\n        /* \"#utility.yul\":14732:14752   */\n      tag_409\n        /* \"#utility.yul\":14750:14751   */\n      dup4\n        /* \"#utility.yul\":14732:14752   */\n      tag_325\n      jump\t// in\n    tag_409:\n        /* \"#utility.yul\":14727:14752   */\n      swap3\n      pop\n        /* \"#utility.yul\":14771:14772   */\n      dup3\n        /* \"#utility.yul\":14761:14796   */\n      tag_410\n      jumpi\n        /* \"#utility.yul\":14776:14794   */\n      tag_411\n      tag_412\n      jump\t// in\n    tag_411:\n        /* \"#utility.yul\":14761:14796   */\n    tag_410:\n        /* \"#utility.yul\":14817:14818   */\n      dup3\n        /* \"#utility.yul\":14814:14815   */\n      dup3\n        /* \"#utility.yul\":14810:14819   */\n      mod\n        /* \"#utility.yul\":14805:14819   */\n      swap1\n      pop\n        /* \"#utility.yul\":14649:14825   */\n      swap3\n      swap2\n      pop\n      pop\n      jump\t// out\n        /* \"#utility.yul\":14831:15011   */\n    tag_376:\n        /* \"#utility.yul\":14879:14956   */\n      0x4e487b7100000000000000000000000000000000000000000000000000000000\n        /* \"#utility.yul\":14876:14877   */\n      0x00\n        /* \"#utility.yul\":14869:14957   */\n      mstore\n        /* \"#utility.yul\":14976:14980   */\n      0x11\n        /* \"#utility.yul\":14973:14974   */\n      0x04\n        /* \"#utility.yul\":14966:14981   */\n      mstore\n        /* \"#utility.yul\":15000:15004   */\n      0x24\n        /* \"#utility.yul\":14997:14998   */\n      0x00\n        /* \"#utility.yul\":14990:15005   */\n      revert\n        /* \"#utility.yul\":15017:15197   */\n    tag_412:\n        /* \"#utility.yul\":15065:15142   */\n      0x4e487b7100000000000000000000000000000000000000000000000000000000\n        /* \"#utility.yul\":15062:15063   */\n      0x00\n        /* \"#utility.yul\":15055:15143   */\n      mstore\n        /* \"#utility.yul\":15162:15166   */\n      0x12\n        /* \"#utility.yul\":15159:15160   */\n      0x04\n        /* \"#utility.yul\":15152:15167   */\n      mstore\n        /* \"#utility.yul\":15186:15190   */\n      0x24\n        /* \"#utility.yul\":15183:15184   */\n      0x00\n        /* \"#utility.yul\":15176:15191   */\n      revert\n        /* \"#utility.yul\":15203:15383   */\n    tag_104:\n        /* \"#utility.yul\":15251:15328   */\n      0x4e487b7100000000000000000000000000000000000000000000000000000000\n        /* \"#utility.yul\":15248:15249   */\n      0x00\n        /* \"#utility.yul\":15241:15329   */\n      mstore\n        /* \"#utility.yul\":15348:15352   */\n      0x32\n        /* \"#utility.yul\":15345:15346   */\n      0x04\n        /* \"#utility.yul\":15338:15353   */\n      mstore\n        /* \"#utility.yul\":15372:15376   */\n      0x24\n        /* \"#utility.yul\":15369:15370   */\n      0x00\n        /* \"#utility.yul\":15362:15377   */\n      revert\n        /* \"#utility.yul\":15389:15569   */\n    tag_181:\n        /* \"#utility.yul\":15437:15514   */\n      0x4e487b7100000000000000000000000000000000000000000000000000000000\n        /* \"#utility.yul\":15434:15435   */\n      0x00\n        /* \"#utility.yul\":15427:15515   */\n      mstore\n        /* \"#utility.yul\":15534:15538   */\n      0x41\n        /* \"#utility.yul\":15531:15532   */\n      0x04\n        /* \"#utility.yul\":15524:15539   */\n      mstore\n        /* \"#utility.yul\":15558:15562   */\n      0x24\n        /* \"#utility.yul\":15555:15556   */\n      0x00\n        /* \"#utility.yul\":15548:15563   */\n      revert\n        /* \"#utility.yul\":15698:15815   */\n    tag_238:\n        /* \"#utility.yul\":15807:15808   */\n      0x00\n        /* \"#utility.yul\":15804:15805   */\n      dup1\n        /* \"#utility.yul\":15797:15809   */\n      revert\n        /* \"#utility.yul\":15821:15915   */\n    tag_405:\n        /* \"#utility.yul\":15854:15862   */\n      0x00\n        /* \"#utility.yul\":15902:15907   */\n      dup2\n        /* \"#utility.yul\":15898:15900   */\n      0x60\n        /* \"#utility.yul\":15894:15908   */\n      shl\n        /* \"#utility.yul\":15873:15908   */\n      swap1\n      pop\n        /* \"#utility.yul\":15821:15915   */\n      swap2\n      swap1\n      pop\n      jump\t// out\n        /* \"#utility.yul\":15921:16146   */\n    tag_305:\n        /* \"#utility.yul\":16061:16095   */\n      0x4f776e61626c653a206e6577206f776e657220697320746865207a65726f2061\n        /* \"#utility.yul\":16057:16058   */\n      0x00\n        /* \"#utility.yul\":16049:16055   */\n      dup3\n        /* \"#utility.yul\":16045:16059   */\n      add\n        /* \"#utility.yul\":16038:16096   */\n      mstore\n        /* \"#utility.yul\":16130:16138   */\n      0x6464726573730000000000000000000000000000000000000000000000000000\n        /* \"#utility.yul\":16125:16127   */\n      0x20\n        /* \"#utility.yul\":16117:16123   */\n      dup3\n        /* \"#utility.yul\":16113:16128   */\n      add\n        /* \"#utility.yul\":16106:16139   */\n      mstore\n        /* \"#utility.yul\":15921:16146   */\n      pop\n      jump\t// out\n        /* \"#utility.yul\":16152:16326   */\n    tag_310:\n        /* \"#utility.yul\":16292:16318   */\n      0x4e6f7420656e6f7567682066756e647320746f20647261770000000000000000\n        /* \"#utility.yul\":16288:16289   */\n      0x00\n        /* \"#utility.yul\":16280:16286   */\n      dup3\n        /* \"#utility.yul\":16276:16290   */\n      add\n        /* \"#utility.yul\":16269:16319   */\n      mstore\n        /* \"#utility.yul\":16152:16326   */\n      pop\n      jump\t// out\n        /* \"#utility.yul\":16332:16514   */\n    tag_315:\n        /* \"#utility.yul\":16472:16506   */\n      0x4f776e61626c653a2063616c6c6572206973206e6f7420746865206f776e6572\n        /* \"#utility.yul\":16468:16469   */\n      0x00\n        /* \"#utility.yul\":16460:16466   */\n      dup3\n        /* \"#utility.yul\":16456:16470   */\n      add\n        /* \"#utility.yul\":16449:16507   */\n      mstore\n        /* \"#utility.yul\":16332:16514   */\n      pop\n      jump\t// out\n        /* \"#utility.yul\":16520:16642   */\n    tag_223:\n        /* \"#utility.yul\":16593:16617   */\n      tag_425\n        /* \"#utility.yul\":16611:16616   */\n      dup2\n        /* \"#utility.yul\":16593:16617   */\n      tag_269\n      jump\t// in\n    tag_425:\n        /* \"#utility.yul\":16586:16591   */\n      dup2\n        /* \"#utility.yul\":16583:16618   */\n      eq\n        /* \"#utility.yul\":16573:16636   */\n      tag_426\n      jumpi\n        /* \"#utility.yul\":16632:16633   */\n      0x00\n        /* \"#utility.yul\":16629:16630   */\n      dup1\n        /* \"#utility.yul\":16622:16634   */\n      revert\n        /* \"#utility.yul\":16573:16636   */\n    tag_426:\n        /* \"#utility.yul\":16520:16642   */\n      pop\n      jump\t// out\n        /* \"#utility.yul\":16648:16764   */\n    tag_227:\n        /* \"#utility.yul\":16718:16739   */\n      tag_428\n        /* \"#utility.yul\":16733:16738   */\n      dup2\n        /* \"#utility.yul\":16718:16739   */\n      tag_295\n      jump\t// in\n    tag_428:\n        /* \"#utility.yul\":16711:16716   */\n      dup2\n        /* \"#utility.yul\":16708:16740   */\n      eq\n        /* \"#utility.yul\":16698:16758   */\n      tag_429\n      jumpi\n        /* \"#utility.yul\":16754:16755   */\n      0x00\n        /* \"#utility.yul\":16751:16752   */\n      dup1\n        /* \"#utility.yul\":16744:16756   */\n      revert\n        /* \"#utility.yul\":16698:16758   */\n    tag_429:\n        /* \"#utility.yul\":16648:16764   */\n      pop\n      jump\t// out\n        /* \"#utility.yul\":16770:16892   */\n    tag_231:\n        /* \"#utility.yul\":16843:16867   */\n      tag_431\n        /* \"#utility.yul\":16861:16866   */\n      dup2\n        /* \"#utility.yul\":16843:16867   */\n      tag_325\n      jump\t// in\n    tag_431:\n        /* \"#utility.yul\":16836:16841   */\n      dup2\n        /* \"#utility.yul\":16833:16868   */\n      eq\n        /* \"#utility.yul\":16823:16886   */\n      tag_432\n      jumpi\n        /* \"#utility.yul\":16882:16883   */\n      0x00\n        /* \"#utility.yul\":16879:16880   */\n      dup1\n        /* \"#utility.yul\":16872:16884   */\n      revert\n        /* \"#utility.yul\":16823:16886   */\n    tag_432:\n        /* \"#utility.yul\":16770:16892   */\n      pop\n      jump\t// out\n\n    auxdata: 0xa26469706673582212206b7d8dc420716748e052fe51d13378e9a3de5b7343b3ad12d868e05726692ab364736f6c63430008070033\n}\n",
				"bytecode": {
					"linkReferences": {},
					"object": "60806040523480156200001157600080fd5b5060405162001c1f38038062001c1f833981810160405281019062000037919062000182565b620000576200004b6200009f60201b60201c565b620000a760201b60201c565b80600460006101000a81548173ffffffffffffffffffffffffffffffffffffffff021916908373ffffffffffffffffffffffffffffffffffffffff1602179055505062000207565b600033905090565b60008060009054906101000a900473ffffffffffffffffffffffffffffffffffffffff169050816000806101000a81548173ffffffffffffffffffffffffffffffffffffffff021916908373ffffffffffffffffffffffffffffffffffffffff1602179055508173ffffffffffffffffffffffffffffffffffffffff168173ffffffffffffffffffffffffffffffffffffffff167f8be0079c531659141344cd1fd0a4f28419497f9722a3daafe3b4186f6b6457e060405160405180910390a35050565b6000815190506200017c81620001ed565b92915050565b6000602082840312156200019b576200019a620001e8565b5b6000620001ab848285016200016b565b91505092915050565b6000620001c182620001c8565b9050919050565b600073ffffffffffffffffffffffffffffffffffffffff82169050919050565b600080fd5b620001f881620001b4565b81146200020457600080fd5b50565b611a0880620002176000396000f3fe608060405234801561001057600080fd5b50600436106101215760003560e01c80638da5cb5b116100ad578063b657dd6511610071578063b657dd65146102ea578063bc15cdf01461031a578063c4740a951461034a578063f2fde38b14610366578063f9cee0bd1461038257610121565b80638da5cb5b1461022e5780639b3e45521461024c5780639f10a9901461026a578063a59460dc1461029a578063ac128f4f146102b657610121565b8063454f7b8f116100f4578063454f7b8f146101ae5780635bedc390146101cc5780635d495aea146101fc578063715018a61461020657806376636d201461021057610121565b80630d98827014610126578063119b22b3146101565780633b98bc6514610174578063443b80a114610192575b600080fd5b610140600480360381019061013b9190611196565b6103a0565b60405161014d91906115b6565b60405180910390f35b61015e6103d1565b60405161016b91906115b6565b60405180910390f35b61017c6103d7565b60405161018991906115b6565b60405180910390f35b6101ac60048036038101906101a79190611196565b6104a8565b005b6101b66105b6565b6040516101c391906115b6565b60405180910390f35b6101e660048036038101906101e19190611169565b6105bc565b6040516101f39190611520565b60405180910390f35b6102046105d6565b005b61020e6108dd565b005b610218610965565b60405161022591906115b6565b60405180910390f35b61023661096b565b60405161024391906114ba565b60405180910390f35b610254610994565b604051610261919061153b565b60405180910390f35b610284600480360381019061027f9190611169565b6109ba565b60405161029191906115b6565b60405180910390f35b6102b460048036038101906102af9190611196565b610a06565b005b6102d060048036038101906102cb9190611203565b610bf0565b6040516102e19594939291906115d1565b60405180910390f35b61030460048036038101906102ff9190611203565b610c46565b60405161031191906114ba565b60405180910390f35b610334600480360381019061032f919061125d565b610c79565b60405161034191906114fe565b60405180910390f35b610364600480360381019061035f9190611169565b610e06565b005b610380600480360381019061037b9190611169565b610e21565b005b61038a610f19565b60405161039791906115b6565b60405180910390f35b600760205281600052604060002081815481106103bc57600080fd5b90600052602060002001600091509150505481565b60025481565b6000805b6001548110156104a45760006006600083815260200190815260200160002060009054906101000a900473ffffffffffffffffffffffffffffffffffffffff169050600760008273ffffffffffffffffffffffffffffffffffffffff1673ffffffffffffffffffffffffffffffffffffffff16815260200190815260200160002060008154811061046f5761046e61187c565b5b906000526020600020015482141561049057828061048c90611776565b9350505b50808061049c90611776565b9150506103db565b5090565b60005b81811015610598578260066000836001546104c6919061166e565b815260200190815260200160002060006101000a81548173ffffffffffffffffffffffffffffffffffffffff021916908373ffffffffffffffffffffffffffffffffffffffff160217905550600760008473ffffffffffffffffffffffffffffffffffffffff1673ffffffffffffffffffffffffffffffffffffffff1681526020019081526020016000208160015461055f919061166e565b9080600181540180825580915050600190039060005260206000200160009091909190915055808061059090611776565b9150506104ab565b5080600160008282546105ab919061166e565b925050819055505050565b60035481565b6000806105c8836109ba565b905060008111915050919050565b6105de610fcb565b73ffffffffffffffffffffffffffffffffffffffff166105fc61096b565b73ffffffffffffffffffffffffffffffffffffffff1614610652576040517f08c379a000000000000000000000000000000000000000000000000000000000815260040161064990611596565b60405180910390fd5b600061065c610f19565b90506544364c5bb0008110156106a7576040517f08c379a000000000000000000000000000000000000000000000000000000000815260040161069e90611576565b60405180910390fd5b60006001546106b4610fd3565b6106be91906117ed565b905060006006600083815260200190815260200160002060009054906101000a900473ffffffffffffffffffffffffffffffffffffffff1690506040518060a0016040528060015481526020018381526020018481526020014281526020018273ffffffffffffffffffffffffffffffffffffffff168152506005600060025481526020019081526020016000206000820151816000015560208201518160010155604082015181600201556060820151816003015560808201518160040160006101000a81548173ffffffffffffffffffffffffffffffffffffffff021916908373ffffffffffffffffffffffffffffffffffffffff16021790555090505082600360008282546107d0919061166e565b92505081905550600260008154809291906107ea90611776565b9190505550600460009054906101000a900473ffffffffffffffffffffffffffffffffffffffff1673ffffffffffffffffffffffffffffffffffffffff1663a9059cbb82846040518363ffffffff1660e01b815260040161084c9291906114d5565b602060405180830381600087803b15801561086657600080fd5b505af115801561087a573d6000803e3d6000fd5b505050506040513d601f19601f8201168201806040525081019061089e91906111d6565b507f2e798dd4337e515c79b64c40e1a93baa1aefbd9180ac7905e02508edd7971e5081846040516108d09291906114d5565b60405180910390a1505050565b6108e5610fcb565b73ffffffffffffffffffffffffffffffffffffffff1661090361096b565b73ffffffffffffffffffffffffffffffffffffffff1614610959576040517f08c379a000000000000000000000000000000000000000000000000000000000815260040161095090611596565b60405180910390fd5b610963600061100c565b565b60015481565b60008060009054906101000a900473ffffffffffffffffffffffffffffffffffffffff16905090565b600460009054906101000a900473ffffffffffffffffffffffffffffffffffffffff1681565b6000600760008373ffffffffffffffffffffffffffffffffffffffff1673ffffffffffffffffffffffffffffffffffffffff168152602001908152602001600020805490509050919050565b6000610a11836109ba565b90506000811415610a225750610bec565b80821115610a2e578091505b6000600190505b828111610bd0576000600760008673ffffffffffffffffffffffffffffffffffffffff1673ffffffffffffffffffffffffffffffffffffffff1681526020019081526020016000206001600760008873ffffffffffffffffffffffffffffffffffffffff1673ffffffffffffffffffffffffffffffffffffffff16815260200190815260200160002080549050610acc91906116c4565b81548110610add57610adc61187c565b5b906000526020600020015490506006600083600154610afc91906116c4565b815260200190815260200160002060009054906101000a900473ffffffffffffffffffffffffffffffffffffffff166006600083815260200190815260200160002060006101000a81548173ffffffffffffffffffffffffffffffffffffffff021916908373ffffffffffffffffffffffffffffffffffffffff160217905550600760008673ffffffffffffffffffffffffffffffffffffffff1673ffffffffffffffffffffffffffffffffffffffff16815260200190815260200160002050508080610bc890611776565b915050610a35565b508160016000828254610be391906116c4565b92505081905550505b5050565b60056020528060005260406000206000915090508060000154908060010154908060020154908060030154908060040160009054906101000a900473ffffffffffffffffffffffffffffffffffffffff16905085565b60066020528060005260406000206000915054906101000a900473ffffffffffffffffffffffffffffffffffffffff1681565b60606002548210610c96576001600254610c9391906116c4565b91505b600060018484610ca691906116c4565b610cb0919061166e565b905060008167ffffffffffffffff811115610cce57610ccd6118ab565b5b604051908082528060200260200182016040528015610d0757816020015b610cf46110d0565b815260200190600190039081610cec5790505b50925060008590505b848111610dfd57600560008288610d27919061166e565b81526020019081526020016000206040518060a0016040529081600082015481526020016001820154815260200160028201548152602001600382015481526020016004820160009054906101000a900473ffffffffffffffffffffffffffffffffffffffff1673ffffffffffffffffffffffffffffffffffffffff1673ffffffffffffffffffffffffffffffffffffffff1681525050848381518110610dd157610dd061187c565b5b60200260200101819052508180610de790611776565b9250508080610df590611776565b915050610d10565b50505092915050565b6000610e11826109ba565b9050610e1d8282610a06565b5050565b610e29610fcb565b73ffffffffffffffffffffffffffffffffffffffff16610e4761096b565b73ffffffffffffffffffffffffffffffffffffffff1614610e9d576040517f08c379a0000000000000000000000000000000000000000000000000000000008152600401610e9490611596565b60405180910390fd5b600073ffffffffffffffffffffffffffffffffffffffff168173ffffffffffffffffffffffffffffffffffffffff161415610f0d576040517f08c379a0000000000000000000000000000000000000000000000000000000008152600401610f0490611556565b60405180910390fd5b610f168161100c565b50565b6000600460009054906101000a900473ffffffffffffffffffffffffffffffffffffffff1673ffffffffffffffffffffffffffffffffffffffff166370a08231306040518263ffffffff1660e01b8152600401610f7691906114ba565b60206040518083038186803b158015610f8e57600080fd5b505afa158015610fa2573d6000803e3d6000fd5b505050506040513d601f19601f82011682018060405250810190610fc69190611230565b905090565b600033905090565b6000425a33600354604051602001610fee949392919061146c565b6040516020818303038152906040528051906020012060001c905090565b60008060009054906101000a900473ffffffffffffffffffffffffffffffffffffffff169050816000806101000a81548173ffffffffffffffffffffffffffffffffffffffff021916908373ffffffffffffffffffffffffffffffffffffffff1602179055508173ffffffffffffffffffffffffffffffffffffffff168173ffffffffffffffffffffffffffffffffffffffff167f8be0079c531659141344cd1fd0a4f28419497f9722a3daafe3b4186f6b6457e060405160405180910390a35050565b6040518060a0016040528060008152602001600081526020016000815260200160008152602001600073ffffffffffffffffffffffffffffffffffffffff1681525090565b6000813590506111248161198d565b92915050565b600081519050611139816119a4565b92915050565b60008135905061114e816119bb565b92915050565b600081519050611163816119bb565b92915050565b60006020828403121561117f5761117e6118da565b5b600061118d84828501611115565b91505092915050565b600080604083850312156111ad576111ac6118da565b5b60006111bb85828601611115565b92505060206111cc8582860161113f565b9150509250929050565b6000602082840312156111ec576111eb6118da565b5b60006111fa8482850161112a565b91505092915050565b600060208284031215611219576112186118da565b5b60006112278482850161113f565b91505092915050565b600060208284031215611246576112456118da565b5b600061125484828501611154565b91505092915050565b60008060408385031215611274576112736118da565b5b60006112828582860161113f565b92505060206112938582860161113f565b9150509250929050565b60006112a983836113cf565b60a08301905092915050565b6112be816116f8565b82525050565b6112cd816116f8565b82525050565b6112e46112df826116f8565b6117bf565b82525050565b60006112f582611634565b6112ff818561164c565b935061130a83611624565b8060005b8381101561133b578151611322888261129d565b975061132d8361163f565b92505060018101905061130e565b5085935050505092915050565b6113518161170a565b82525050565b61136081611740565b82525050565b600061137360268361165d565b915061137e826118ec565b604082019050919050565b600061139660188361165d565b91506113a18261193b565b602082019050919050565b60006113b960208361165d565b91506113c482611964565b602082019050919050565b60a0820160008201516113e56000850182611437565b5060208201516113f86020850182611437565b50604082015161140b6040850182611437565b50606082015161141e6060850182611437565b50608082015161143160808501826112b5565b50505050565b61144081611736565b82525050565b61144f81611736565b82525050565b61146661146182611736565b6117e3565b82525050565b60006114788287611455565b6020820191506114888286611455565b60208201915061149882856112d3565b6014820191506114a88284611455565b60208201915081905095945050505050565b60006020820190506114cf60008301846112c4565b92915050565b60006040820190506114ea60008301856112c4565b6114f76020830184611446565b9392505050565b6000602082019050818103600083015261151881846112ea565b905092915050565b60006020820190506115356000830184611348565b92915050565b60006020820190506115506000830184611357565b92915050565b6000602082019050818103600083015261156f81611366565b9050919050565b6000602082019050818103600083015261158f81611389565b9050919050565b600060208201905081810360008301526115af816113ac565b9050919050565b60006020820190506115cb6000830184611446565b92915050565b600060a0820190506115e66000830188611446565b6115f36020830187611446565b6116006040830186611446565b61160d6060830185611446565b61161a60808301846112c4565b9695505050505050565b6000819050602082019050919050565b600081519050919050565b6000602082019050919050565b600082825260208201905092915050565b600082825260208201905092915050565b600061167982611736565b915061168483611736565b9250827fffffffffffffffffffffffffffffffffffffffffffffffffffffffffffffffff038211156116b9576116b861181e565b5b828201905092915050565b60006116cf82611736565b91506116da83611736565b9250828210156116ed576116ec61181e565b5b828203905092915050565b600061170382611716565b9050919050565b60008115159050919050565b600073ffffffffffffffffffffffffffffffffffffffff82169050919050565b6000819050919050565b600061174b82611752565b9050919050565b600061175d82611764565b9050919050565b600061176f82611716565b9050919050565b600061178182611736565b91507fffffffffffffffffffffffffffffffffffffffffffffffffffffffffffffffff8214156117b4576117b361181e565b5b600182019050919050565b60006117ca826117d1565b9050919050565b60006117dc826118df565b9050919050565b6000819050919050565b60006117f882611736565b915061180383611736565b9250826118135761181261184d565b5b828206905092915050565b7f4e487b7100000000000000000000000000000000000000000000000000000000600052601160045260246000fd5b7f4e487b7100000000000000000000000000000000000000000000000000000000600052601260045260246000fd5b7f4e487b7100000000000000000000000000000000000000000000000000000000600052603260045260246000fd5b7f4e487b7100000000000000000000000000000000000000000000000000000000600052604160045260246000fd5b600080fd5b60008160601b9050919050565b7f4f776e61626c653a206e6577206f776e657220697320746865207a65726f206160008201527f6464726573730000000000000000000000000000000000000000000000000000602082015250565b7f4e6f7420656e6f7567682066756e647320746f20647261770000000000000000600082015250565b7f4f776e61626c653a2063616c6c6572206973206e6f7420746865206f776e6572600082015250565b611996816116f8565b81146119a157600080fd5b50565b6119ad8161170a565b81146119b857600080fd5b50565b6119c481611736565b81146119cf57600080fd5b5056fea26469706673582212206b7d8dc420716748e052fe51d13378e9a3de5b7343b3ad12d868e05726692ab364736f6c63430008070033",
					"opcodes": "PUSH1 0x80 PUSH1 0x40 MSTORE CALLVALUE DUP1 ISZERO PUSH3 0x11 JUMPI PUSH1 0x0 DUP1 REVERT JUMPDEST POP PUSH1 0x40 MLOAD PUSH3 0x1C1F CODESIZE SUB DUP1 PUSH3 0x1C1F DUP4 CODECOPY DUP2 DUP2 ADD PUSH1 0x40 MSTORE DUP2 ADD SWAP1 PUSH3 0x37 SWAP2 SWAP1 PUSH3 0x182 JUMP JUMPDEST PUSH3 0x57 PUSH3 0x4B PUSH3 0x9F PUSH1 0x20 SHL PUSH1 0x20 SHR JUMP JUMPDEST PUSH3 0xA7 PUSH1 0x20 SHL PUSH1 0x20 SHR JUMP JUMPDEST DUP1 PUSH1 0x4 PUSH1 0x0 PUSH2 0x100 EXP DUP2 SLOAD DUP2 PUSH20 0xFFFFFFFFFFFFFFFFFFFFFFFFFFFFFFFFFFFFFFFF MUL NOT AND SWAP1 DUP4 PUSH20 0xFFFFFFFFFFFFFFFFFFFFFFFFFFFFFFFFFFFFFFFF AND MUL OR SWAP1 SSTORE POP POP PUSH3 0x207 JUMP JUMPDEST PUSH1 0x0 CALLER SWAP1 POP SWAP1 JUMP JUMPDEST PUSH1 0x0 DUP1 PUSH1 0x0 SWAP1 SLOAD SWAP1 PUSH2 0x100 EXP SWAP1 DIV PUSH20 0xFFFFFFFFFFFFFFFFFFFFFFFFFFFFFFFFFFFFFFFF AND SWAP1 POP DUP2 PUSH1 0x0 DUP1 PUSH2 0x100 EXP DUP2 SLOAD DUP2 PUSH20 0xFFFFFFFFFFFFFFFFFFFFFFFFFFFFFFFFFFFFFFFF MUL NOT AND SWAP1 DUP4 PUSH20 0xFFFFFFFFFFFFFFFFFFFFFFFFFFFFFFFFFFFFFFFF AND MUL OR SWAP1 SSTORE POP DUP2 PUSH20 0xFFFFFFFFFFFFFFFFFFFFFFFFFFFFFFFFFFFFFFFF AND DUP2 PUSH20 0xFFFFFFFFFFFFFFFFFFFFFFFFFFFFFFFFFFFFFFFF AND PUSH32 0x8BE0079C531659141344CD1FD0A4F28419497F9722A3DAAFE3B4186F6B6457E0 PUSH1 0x40 MLOAD PUSH1 0x40 MLOAD DUP1 SWAP2 SUB SWAP1 LOG3 POP POP JUMP JUMPDEST PUSH1 0x0 DUP2 MLOAD SWAP1 POP PUSH3 0x17C DUP2 PUSH3 0x1ED JUMP JUMPDEST SWAP3 SWAP2 POP POP JUMP JUMPDEST PUSH1 0x0 PUSH1 0x20 DUP3 DUP5 SUB SLT ISZERO PUSH3 0x19B JUMPI PUSH3 0x19A PUSH3 0x1E8 JUMP JUMPDEST JUMPDEST PUSH1 0x0 PUSH3 0x1AB DUP5 DUP3 DUP6 ADD PUSH3 0x16B JUMP JUMPDEST SWAP2 POP POP SWAP3 SWAP2 POP POP JUMP JUMPDEST PUSH1 0x0 PUSH3 0x1C1 DUP3 PUSH3 0x1C8 JUMP JUMPDEST SWAP1 POP SWAP2 SWAP1 POP JUMP JUMPDEST PUSH1 0x0 PUSH20 0xFFFFFFFFFFFFFFFFFFFFFFFFFFFFFFFFFFFFFFFF DUP3 AND SWAP1 POP SWAP2 SWAP1 POP JUMP JUMPDEST PUSH1 0x0 DUP1 REVERT JUMPDEST PUSH3 0x1F8 DUP2 PUSH3 0x1B4 JUMP JUMPDEST DUP2 EQ PUSH3 0x204 JUMPI PUSH1 0x0 DUP1 REVERT JUMPDEST POP JUMP JUMPDEST PUSH2 0x1A08 DUP1 PUSH3 0x217 PUSH1 0x0 CODECOPY PUSH1 0x0 RETURN INVALID PUSH1 0x80 PUSH1 0x40 MSTORE CALLVALUE DUP1 ISZERO PUSH2 0x10 JUMPI PUSH1 0x0 DUP1 REVERT JUMPDEST POP PUSH1 0x4 CALLDATASIZE LT PUSH2 0x121 JUMPI PUSH1 0x0 CALLDATALOAD PUSH1 0xE0 SHR DUP1 PUSH4 0x8DA5CB5B GT PUSH2 0xAD JUMPI DUP1 PUSH4 0xB657DD65 GT PUSH2 0x71 JUMPI DUP1 PUSH4 0xB657DD65 EQ PUSH2 0x2EA JUMPI DUP1 PUSH4 0xBC15CDF0 EQ PUSH2 0x31A JUMPI DUP1 PUSH4 0xC4740A95 EQ PUSH2 0x34A JUMPI DUP1 PUSH4 0xF2FDE38B EQ PUSH2 0x366 JUMPI DUP1 PUSH4 0xF9CEE0BD EQ PUSH2 0x382 JUMPI PUSH2 0x121 JUMP JUMPDEST DUP1 PUSH4 0x8DA5CB5B EQ PUSH2 0x22E JUMPI DUP1 PUSH4 0x9B3E4552 EQ PUSH2 0x24C JUMPI DUP1 PUSH4 0x9F10A990 EQ PUSH2 0x26A JUMPI DUP1 PUSH4 0xA59460DC EQ PUSH2 0x29A JUMPI DUP1 PUSH4 0xAC128F4F EQ PUSH2 0x2B6 JUMPI PUSH2 0x121 JUMP JUMPDEST DUP1 PUSH4 0x454F7B8F GT PUSH2 0xF4 JUMPI DUP1 PUSH4 0x454F7B8F EQ PUSH2 0x1AE JUMPI DUP1 PUSH4 0x5BEDC390 EQ PUSH2 0x1CC JUMPI DUP1 PUSH4 0x5D495AEA EQ PUSH2 0x1FC JUMPI DUP1 PUSH4 0x715018A6 EQ PUSH2 0x206 JUMPI DUP1 PUSH4 0x76636D20 EQ PUSH2 0x210 JUMPI PUSH2 0x121 JUMP JUMPDEST DUP1 PUSH4 0xD988270 EQ PUSH2 0x126 JUMPI DUP1 PUSH4 0x119B22B3 EQ PUSH2 0x156 JUMPI DUP1 PUSH4 0x3B98BC65 EQ PUSH2 0x174 JUMPI DUP1 PUSH4 0x443B80A1 EQ PUSH2 0x192 JUMPI JUMPDEST PUSH1 0x0 DUP1 REVERT JUMPDEST PUSH2 0x140 PUSH1 0x4 DUP1 CALLDATASIZE SUB DUP2 ADD SWAP1 PUSH2 0x13B SWAP2 SWAP1 PUSH2 0x1196 JUMP JUMPDEST PUSH2 0x3A0 JUMP JUMPDEST PUSH1 0x40 MLOAD PUSH2 0x14D SWAP2 SWAP1 PUSH2 0x15B6 JUMP JUMPDEST PUSH1 0x40 MLOAD DUP1 SWAP2 SUB SWAP1 RETURN JUMPDEST PUSH2 0x15E PUSH2 0x3D1 JUMP JUMPDEST PUSH1 0x40 MLOAD PUSH2 0x16B SWAP2 SWAP1 PUSH2 0x15B6 JUMP JUMPDEST PUSH1 0x40 MLOAD DUP1 SWAP2 SUB SWAP1 RETURN JUMPDEST PUSH2 0x17C PUSH2 0x3D7 JUMP JUMPDEST PUSH1 0x40 MLOAD PUSH2 0x189 SWAP2 SWAP1 PUSH2 0x15B6 JUMP JUMPDEST PUSH1 0x40 MLOAD DUP1 SWAP2 SUB SWAP1 RETURN JUMPDEST PUSH2 0x1AC PUSH1 0x4 DUP1 CALLDATASIZE SUB DUP2 ADD SWAP1 PUSH2 0x1A7 SWAP2 SWAP1 PUSH2 0x1196 JUMP JUMPDEST PUSH2 0x4A8 JUMP JUMPDEST STOP JUMPDEST PUSH2 0x1B6 PUSH2 0x5B6 JUMP JUMPDEST PUSH1 0x40 MLOAD PUSH2 0x1C3 SWAP2 SWAP1 PUSH2 0x15B6 JUMP JUMPDEST PUSH1 0x40 MLOAD DUP1 SWAP2 SUB SWAP1 RETURN JUMPDEST PUSH2 0x1E6 PUSH1 0x4 DUP1 CALLDATASIZE SUB DUP2 ADD SWAP1 PUSH2 0x1E1 SWAP2 SWAP1 PUSH2 0x1169 JUMP JUMPDEST PUSH2 0x5BC JUMP JUMPDEST PUSH1 0x40 MLOAD PUSH2 0x1F3 SWAP2 SWAP1 PUSH2 0x1520 JUMP JUMPDEST PUSH1 0x40 MLOAD DUP1 SWAP2 SUB SWAP1 RETURN JUMPDEST PUSH2 0x204 PUSH2 0x5D6 JUMP JUMPDEST STOP JUMPDEST PUSH2 0x20E PUSH2 0x8DD JUMP JUMPDEST STOP JUMPDEST PUSH2 0x218 PUSH2 0x965 JUMP JUMPDEST PUSH1 0x40 MLOAD PUSH2 0x225 SWAP2 SWAP1 PUSH2 0x15B6 JUMP JUMPDEST PUSH1 0x40 MLOAD DUP1 SWAP2 SUB SWAP1 RETURN JUMPDEST PUSH2 0x236 PUSH2 0x96B JUMP JUMPDEST PUSH1 0x40 MLOAD PUSH2 0x243 SWAP2 SWAP1 PUSH2 0x14BA JUMP JUMPDEST PUSH1 0x40 MLOAD DUP1 SWAP2 SUB SWAP1 RETURN JUMPDEST PUSH2 0x254 PUSH2 0x994 JUMP JUMPDEST PUSH1 0x40 MLOAD PUSH2 0x261 SWAP2 SWAP1 PUSH2 0x153B JUMP JUMPDEST PUSH1 0x40 MLOAD DUP1 SWAP2 SUB SWAP1 RETURN JUMPDEST PUSH2 0x284 PUSH1 0x4 DUP1 CALLDATASIZE SUB DUP2 ADD SWAP1 PUSH2 0x27F SWAP2 SWAP1 PUSH2 0x1169 JUMP JUMPDEST PUSH2 0x9BA JUMP JUMPDEST PUSH1 0x40 MLOAD PUSH2 0x291 SWAP2 SWAP1 PUSH2 0x15B6 JUMP JUMPDEST PUSH1 0x40 MLOAD DUP1 SWAP2 SUB SWAP1 RETURN JUMPDEST PUSH2 0x2B4 PUSH1 0x4 DUP1 CALLDATASIZE SUB DUP2 ADD SWAP1 PUSH2 0x2AF SWAP2 SWAP1 PUSH2 0x1196 JUMP JUMPDEST PUSH2 0xA06 JUMP JUMPDEST STOP JUMPDEST PUSH2 0x2D0 PUSH1 0x4 DUP1 CALLDATASIZE SUB DUP2 ADD SWAP1 PUSH2 0x2CB SWAP2 SWAP1 PUSH2 0x1203 JUMP JUMPDEST PUSH2 0xBF0 JUMP JUMPDEST PUSH1 0x40 MLOAD PUSH2 0x2E1 SWAP6 SWAP5 SWAP4 SWAP3 SWAP2 SWAP1 PUSH2 0x15D1 JUMP JUMPDEST PUSH1 0x40 MLOAD DUP1 SWAP2 SUB SWAP1 RETURN JUMPDEST PUSH2 0x304 PUSH1 0x4 DUP1 CALLDATASIZE SUB DUP2 ADD SWAP1 PUSH2 0x2FF SWAP2 SWAP1 PUSH2 0x1203 JUMP JUMPDEST PUSH2 0xC46 JUMP JUMPDEST PUSH1 0x40 MLOAD PUSH2 0x311 SWAP2 SWAP1 PUSH2 0x14BA JUMP JUMPDEST PUSH1 0x40 MLOAD DUP1 SWAP2 SUB SWAP1 RETURN JUMPDEST PUSH2 0x334 PUSH1 0x4 DUP1 CALLDATASIZE SUB DUP2 ADD SWAP1 PUSH2 0x32F SWAP2 SWAP1 PUSH2 0x125D JUMP JUMPDEST PUSH2 0xC79 JUMP JUMPDEST PUSH1 0x40 MLOAD PUSH2 0x341 SWAP2 SWAP1 PUSH2 0x14FE JUMP JUMPDEST PUSH1 0x40 MLOAD DUP1 SWAP2 SUB SWAP1 RETURN JUMPDEST PUSH2 0x364 PUSH1 0x4 DUP1 CALLDATASIZE SUB DUP2 ADD SWAP1 PUSH2 0x35F SWAP2 SWAP1 PUSH2 0x1169 JUMP JUMPDEST PUSH2 0xE06 JUMP JUMPDEST STOP JUMPDEST PUSH2 0x380 PUSH1 0x4 DUP1 CALLDATASIZE SUB DUP2 ADD SWAP1 PUSH2 0x37B SWAP2 SWAP1 PUSH2 0x1169 JUMP JUMPDEST PUSH2 0xE21 JUMP JUMPDEST STOP JUMPDEST PUSH2 0x38A PUSH2 0xF19 JUMP JUMPDEST PUSH1 0x40 MLOAD PUSH2 0x397 SWAP2 SWAP1 PUSH2 0x15B6 JUMP JUMPDEST PUSH1 0x40 MLOAD DUP1 SWAP2 SUB SWAP1 RETURN JUMPDEST PUSH1 0x7 PUSH1 0x20 MSTORE DUP2 PUSH1 0x0 MSTORE PUSH1 0x40 PUSH1 0x0 KECCAK256 DUP2 DUP2 SLOAD DUP2 LT PUSH2 0x3BC JUMPI PUSH1 0x0 DUP1 REVERT JUMPDEST SWAP1 PUSH1 0x0 MSTORE PUSH1 0x20 PUSH1 0x0 KECCAK256 ADD PUSH1 0x0 SWAP2 POP SWAP2 POP POP SLOAD DUP2 JUMP JUMPDEST PUSH1 0x2 SLOAD DUP2 JUMP JUMPDEST PUSH1 0x0 DUP1 JUMPDEST PUSH1 0x1 SLOAD DUP2 LT ISZERO PUSH2 0x4A4 JUMPI PUSH1 0x0 PUSH1 0x6 PUSH1 0x0 DUP4 DUP2 MSTORE PUSH1 0x20 ADD SWAP1 DUP2 MSTORE PUSH1 0x20 ADD PUSH1 0x0 KECCAK256 PUSH1 0x0 SWAP1 SLOAD SWAP1 PUSH2 0x100 EXP SWAP1 DIV PUSH20 0xFFFFFFFFFFFFFFFFFFFFFFFFFFFFFFFFFFFFFFFF AND SWAP1 POP PUSH1 0x7 PUSH1 0x0 DUP3 PUSH20 0xFFFFFFFFFFFFFFFFFFFFFFFFFFFFFFFFFFFFFFFF AND PUSH20 0xFFFFFFFFFFFFFFFFFFFFFFFFFFFFFFFFFFFFFFFF AND DUP2 MSTORE PUSH1 0x20 ADD SWAP1 DUP2 MSTORE PUSH1 0x20 ADD PUSH1 0x0 KECCAK256 PUSH1 0x0 DUP2 SLOAD DUP2 LT PUSH2 0x46F JUMPI PUSH2 0x46E PUSH2 0x187C JUMP JUMPDEST JUMPDEST SWAP1 PUSH1 0x0 MSTORE PUSH1 0x20 PUSH1 0x0 KECCAK256 ADD SLOAD DUP3 EQ ISZERO PUSH2 0x490 JUMPI DUP3 DUP1 PUSH2 0x48C SWAP1 PUSH2 0x1776 JUMP JUMPDEST SWAP4 POP POP JUMPDEST POP DUP1 DUP1 PUSH2 0x49C SWAP1 PUSH2 0x1776 JUMP JUMPDEST SWAP2 POP POP PUSH2 0x3DB JUMP JUMPDEST POP SWAP1 JUMP JUMPDEST PUSH1 0x0 JUMPDEST DUP2 DUP2 LT ISZERO PUSH2 0x598 JUMPI DUP3 PUSH1 0x6 PUSH1 0x0 DUP4 PUSH1 0x1 SLOAD PUSH2 0x4C6 SWAP2 SWAP1 PUSH2 0x166E JUMP JUMPDEST DUP2 MSTORE PUSH1 0x20 ADD SWAP1 DUP2 MSTORE PUSH1 0x20 ADD PUSH1 0x0 KECCAK256 PUSH1 0x0 PUSH2 0x100 EXP DUP2 SLOAD DUP2 PUSH20 0xFFFFFFFFFFFFFFFFFFFFFFFFFFFFFFFFFFFFFFFF MUL NOT AND SWAP1 DUP4 PUSH20 0xFFFFFFFFFFFFFFFFFFFFFFFFFFFFFFFFFFFFFFFF AND MUL OR SWAP1 SSTORE POP PUSH1 0x7 PUSH1 0x0 DUP5 PUSH20 0xFFFFFFFFFFFFFFFFFFFFFFFFFFFFFFFFFFFFFFFF AND PUSH20 0xFFFFFFFFFFFFFFFFFFFFFFFFFFFFFFFFFFFFFFFF AND DUP2 MSTORE PUSH1 0x20 ADD SWAP1 DUP2 MSTORE PUSH1 0x20 ADD PUSH1 0x0 KECCAK256 DUP2 PUSH1 0x1 SLOAD PUSH2 0x55F SWAP2 SWAP1 PUSH2 0x166E JUMP JUMPDEST SWAP1 DUP1 PUSH1 0x1 DUP2 SLOAD ADD DUP1 DUP3 SSTORE DUP1 SWAP2 POP POP PUSH1 0x1 SWAP1 SUB SWAP1 PUSH1 0x0 MSTORE PUSH1 0x20 PUSH1 0x0 KECCAK256 ADD PUSH1 0x0 SWAP1 SWAP2 SWAP1 SWAP2 SWAP1 SWAP2 POP SSTORE DUP1 DUP1 PUSH2 0x590 SWAP1 PUSH2 0x1776 JUMP JUMPDEST SWAP2 POP POP PUSH2 0x4AB JUMP JUMPDEST POP DUP1 PUSH1 0x1 PUSH1 0x0 DUP3 DUP3 SLOAD PUSH2 0x5AB SWAP2 SWAP1 PUSH2 0x166E JUMP JUMPDEST SWAP3 POP POP DUP2 SWAP1 SSTORE POP POP POP JUMP JUMPDEST PUSH1 0x3 SLOAD DUP2 JUMP JUMPDEST PUSH1 0x0 DUP1 PUSH2 0x5C8 DUP4 PUSH2 0x9BA JUMP JUMPDEST SWAP1 POP PUSH1 0x0 DUP2 GT SWAP2 POP POP SWAP2 SWAP1 POP JUMP JUMPDEST PUSH2 0x5DE PUSH2 0xFCB JUMP JUMPDEST PUSH20 0xFFFFFFFFFFFFFFFFFFFFFFFFFFFFFFFFFFFFFFFF AND PUSH2 0x5FC PUSH2 0x96B JUMP JUMPDEST PUSH20 0xFFFFFFFFFFFFFFFFFFFFFFFFFFFFFFFFFFFFFFFF AND EQ PUSH2 0x652 JUMPI PUSH1 0x40 MLOAD PUSH32 0x8C379A000000000000000000000000000000000000000000000000000000000 DUP2 MSTORE PUSH1 0x4 ADD PUSH2 0x649 SWAP1 PUSH2 0x1596 JUMP JUMPDEST PUSH1 0x40 MLOAD DUP1 SWAP2 SUB SWAP1 REVERT JUMPDEST PUSH1 0x0 PUSH2 0x65C PUSH2 0xF19 JUMP JUMPDEST SWAP1 POP PUSH6 0x44364C5BB000 DUP2 LT ISZERO PUSH2 0x6A7 JUMPI PUSH1 0x40 MLOAD PUSH32 0x8C379A000000000000000000000000000000000000000000000000000000000 DUP2 MSTORE PUSH1 0x4 ADD PUSH2 0x69E SWAP1 PUSH2 0x1576 JUMP JUMPDEST PUSH1 0x40 MLOAD DUP1 SWAP2 SUB SWAP1 REVERT JUMPDEST PUSH1 0x0 PUSH1 0x1 SLOAD PUSH2 0x6B4 PUSH2 0xFD3 JUMP JUMPDEST PUSH2 0x6BE SWAP2 SWAP1 PUSH2 0x17ED JUMP JUMPDEST SWAP1 POP PUSH1 0x0 PUSH1 0x6 PUSH1 0x0 DUP4 DUP2 MSTORE PUSH1 0x20 ADD SWAP1 DUP2 MSTORE PUSH1 0x20 ADD PUSH1 0x0 KECCAK256 PUSH1 0x0 SWAP1 SLOAD SWAP1 PUSH2 0x100 EXP SWAP1 DIV PUSH20 0xFFFFFFFFFFFFFFFFFFFFFFFFFFFFFFFFFFFFFFFF AND SWAP1 POP PUSH1 0x40 MLOAD DUP1 PUSH1 0xA0 ADD PUSH1 0x40 MSTORE DUP1 PUSH1 0x1 SLOAD DUP2 MSTORE PUSH1 0x20 ADD DUP4 DUP2 MSTORE PUSH1 0x20 ADD DUP5 DUP2 MSTORE PUSH1 0x20 ADD TIMESTAMP DUP2 MSTORE PUSH1 0x20 ADD DUP3 PUSH20 0xFFFFFFFFFFFFFFFFFFFFFFFFFFFFFFFFFFFFFFFF AND DUP2 MSTORE POP PUSH1 0x5 PUSH1 0x0 PUSH1 0x2 SLOAD DUP2 MSTORE PUSH1 0x20 ADD SWAP1 DUP2 MSTORE PUSH1 0x20 ADD PUSH1 0x0 KECCAK256 PUSH1 0x0 DUP3 ADD MLOAD DUP2 PUSH1 0x0 ADD SSTORE PUSH1 0x20 DUP3 ADD MLOAD DUP2 PUSH1 0x1 ADD SSTORE PUSH1 0x40 DUP3 ADD MLOAD DUP2 PUSH1 0x2 ADD SSTORE PUSH1 0x60 DUP3 ADD MLOAD DUP2 PUSH1 0x3 ADD SSTORE PUSH1 0x80 DUP3 ADD MLOAD DUP2 PUSH1 0x4 ADD PUSH1 0x0 PUSH2 0x100 EXP DUP2 SLOAD DUP2 PUSH20 0xFFFFFFFFFFFFFFFFFFFFFFFFFFFFFFFFFFFFFFFF MUL NOT AND SWAP1 DUP4 PUSH20 0xFFFFFFFFFFFFFFFFFFFFFFFFFFFFFFFFFFFFFFFF AND MUL OR SWAP1 SSTORE POP SWAP1 POP POP DUP3 PUSH1 0x3 PUSH1 0x0 DUP3 DUP3 SLOAD PUSH2 0x7D0 SWAP2 SWAP1 PUSH2 0x166E JUMP JUMPDEST SWAP3 POP POP DUP2 SWAP1 SSTORE POP PUSH1 0x2 PUSH1 0x0 DUP2 SLOAD DUP1 SWAP3 SWAP2 SWAP1 PUSH2 0x7EA SWAP1 PUSH2 0x1776 JUMP JUMPDEST SWAP2 SWAP1 POP SSTORE POP PUSH1 0x4 PUSH1 0x0 SWAP1 SLOAD SWAP1 PUSH2 0x100 EXP SWAP1 DIV PUSH20 0xFFFFFFFFFFFFFFFFFFFFFFFFFFFFFFFFFFFFFFFF AND PUSH20 0xFFFFFFFFFFFFFFFFFFFFFFFFFFFFFFFFFFFFFFFF AND PUSH4 0xA9059CBB DUP3 DUP5 PUSH1 0x40 MLOAD DUP4 PUSH4 0xFFFFFFFF AND PUSH1 0xE0 SHL DUP2 MSTORE PUSH1 0x4 ADD PUSH2 0x84C SWAP3 SWAP2 SWAP1 PUSH2 0x14D5 JUMP JUMPDEST PUSH1 0x20 PUSH1 0x40 MLOAD DUP1 DUP4 SUB DUP2 PUSH1 0x0 DUP8 DUP1 EXTCODESIZE ISZERO DUP1 ISZERO PUSH2 0x866 JUMPI PUSH1 0x0 DUP1 REVERT JUMPDEST POP GAS CALL ISZERO DUP1 ISZERO PUSH2 0x87A JUMPI RETURNDATASIZE PUSH1 0x0 DUP1 RETURNDATACOPY RETURNDATASIZE PUSH1 0x0 REVERT JUMPDEST POP POP POP POP PUSH1 0x40 MLOAD RETURNDATASIZE PUSH1 0x1F NOT PUSH1 0x1F DUP3 ADD AND DUP3 ADD DUP1 PUSH1 0x40 MSTORE POP DUP2 ADD SWAP1 PUSH2 0x89E SWAP2 SWAP1 PUSH2 0x11D6 JUMP JUMPDEST POP PUSH32 0x2E798DD4337E515C79B64C40E1A93BAA1AEFBD9180AC7905E02508EDD7971E50 DUP2 DUP5 PUSH1 0x40 MLOAD PUSH2 0x8D0 SWAP3 SWAP2 SWAP1 PUSH2 0x14D5 JUMP JUMPDEST PUSH1 0x40 MLOAD DUP1 SWAP2 SUB SWAP1 LOG1 POP POP POP JUMP JUMPDEST PUSH2 0x8E5 PUSH2 0xFCB JUMP JUMPDEST PUSH20 0xFFFFFFFFFFFFFFFFFFFFFFFFFFFFFFFFFFFFFFFF AND PUSH2 0x903 PUSH2 0x96B JUMP JUMPDEST PUSH20 0xFFFFFFFFFFFFFFFFFFFFFFFFFFFFFFFFFFFFFFFF AND EQ PUSH2 0x959 JUMPI PUSH1 0x40 MLOAD PUSH32 0x8C379A000000000000000000000000000000000000000000000000000000000 DUP2 MSTORE PUSH1 0x4 ADD PUSH2 0x950 SWAP1 PUSH2 0x1596 JUMP JUMPDEST PUSH1 0x40 MLOAD DUP1 SWAP2 SUB SWAP1 REVERT JUMPDEST PUSH2 0x963 PUSH1 0x0 PUSH2 0x100C JUMP JUMPDEST JUMP JUMPDEST PUSH1 0x1 SLOAD DUP2 JUMP JUMPDEST PUSH1 0x0 DUP1 PUSH1 0x0 SWAP1 SLOAD SWAP1 PUSH2 0x100 EXP SWAP1 DIV PUSH20 0xFFFFFFFFFFFFFFFFFFFFFFFFFFFFFFFFFFFFFFFF AND SWAP1 POP SWAP1 JUMP JUMPDEST PUSH1 0x4 PUSH1 0x0 SWAP1 SLOAD SWAP1 PUSH2 0x100 EXP SWAP1 DIV PUSH20 0xFFFFFFFFFFFFFFFFFFFFFFFFFFFFFFFFFFFFFFFF AND DUP2 JUMP JUMPDEST PUSH1 0x0 PUSH1 0x7 PUSH1 0x0 DUP4 PUSH20 0xFFFFFFFFFFFFFFFFFFFFFFFFFFFFFFFFFFFFFFFF AND PUSH20 0xFFFFFFFFFFFFFFFFFFFFFFFFFFFFFFFFFFFFFFFF AND DUP2 MSTORE PUSH1 0x20 ADD SWAP1 DUP2 MSTORE PUSH1 0x20 ADD PUSH1 0x0 KECCAK256 DUP1 SLOAD SWAP1 POP SWAP1 POP SWAP2 SWAP1 POP JUMP JUMPDEST PUSH1 0x0 PUSH2 0xA11 DUP4 PUSH2 0x9BA JUMP JUMPDEST SWAP1 POP PUSH1 0x0 DUP2 EQ ISZERO PUSH2 0xA22 JUMPI POP PUSH2 0xBEC JUMP JUMPDEST DUP1 DUP3 GT ISZERO PUSH2 0xA2E JUMPI DUP1 SWAP2 POP JUMPDEST PUSH1 0x0 PUSH1 0x1 SWAP1 POP JUMPDEST DUP3 DUP2 GT PUSH2 0xBD0 JUMPI PUSH1 0x0 PUSH1 0x7 PUSH1 0x0 DUP7 PUSH20 0xFFFFFFFFFFFFFFFFFFFFFFFFFFFFFFFFFFFFFFFF AND PUSH20 0xFFFFFFFFFFFFFFFFFFFFFFFFFFFFFFFFFFFFFFFF AND DUP2 MSTORE PUSH1 0x20 ADD SWAP1 DUP2 MSTORE PUSH1 0x20 ADD PUSH1 0x0 KECCAK256 PUSH1 0x1 PUSH1 0x7 PUSH1 0x0 DUP9 PUSH20 0xFFFFFFFFFFFFFFFFFFFFFFFFFFFFFFFFFFFFFFFF AND PUSH20 0xFFFFFFFFFFFFFFFFFFFFFFFFFFFFFFFFFFFFFFFF AND DUP2 MSTORE PUSH1 0x20 ADD SWAP1 DUP2 MSTORE PUSH1 0x20 ADD PUSH1 0x0 KECCAK256 DUP1 SLOAD SWAP1 POP PUSH2 0xACC SWAP2 SWAP1 PUSH2 0x16C4 JUMP JUMPDEST DUP2 SLOAD DUP2 LT PUSH2 0xADD JUMPI PUSH2 0xADC PUSH2 0x187C JUMP JUMPDEST JUMPDEST SWAP1 PUSH1 0x0 MSTORE PUSH1 0x20 PUSH1 0x0 KECCAK256 ADD SLOAD SWAP1 POP PUSH1 0x6 PUSH1 0x0 DUP4 PUSH1 0x1 SLOAD PUSH2 0xAFC SWAP2 SWAP1 PUSH2 0x16C4 JUMP JUMPDEST DUP2 MSTORE PUSH1 0x20 ADD SWAP1 DUP2 MSTORE PUSH1 0x20 ADD PUSH1 0x0 KECCAK256 PUSH1 0x0 SWAP1 SLOAD SWAP1 PUSH2 0x100 EXP SWAP1 DIV PUSH20 0xFFFFFFFFFFFFFFFFFFFFFFFFFFFFFFFFFFFFFFFF AND PUSH1 0x6 PUSH1 0x0 DUP4 DUP2 MSTORE PUSH1 0x20 ADD SWAP1 DUP2 MSTORE PUSH1 0x20 ADD PUSH1 0x0 KECCAK256 PUSH1 0x0 PUSH2 0x100 EXP DUP2 SLOAD DUP2 PUSH20 0xFFFFFFFFFFFFFFFFFFFFFFFFFFFFFFFFFFFFFFFF MUL NOT AND SWAP1 DUP4 PUSH20 0xFFFFFFFFFFFFFFFFFFFFFFFFFFFFFFFFFFFFFFFF AND MUL OR SWAP1 SSTORE POP PUSH1 0x7 PUSH1 0x0 DUP7 PUSH20 0xFFFFFFFFFFFFFFFFFFFFFFFFFFFFFFFFFFFFFFFF AND PUSH20 0xFFFFFFFFFFFFFFFFFFFFFFFFFFFFFFFFFFFFFFFF AND DUP2 MSTORE PUSH1 0x20 ADD SWAP1 DUP2 MSTORE PUSH1 0x20 ADD PUSH1 0x0 KECCAK256 POP POP DUP1 DUP1 PUSH2 0xBC8 SWAP1 PUSH2 0x1776 JUMP JUMPDEST SWAP2 POP POP PUSH2 0xA35 JUMP JUMPDEST POP DUP2 PUSH1 0x1 PUSH1 0x0 DUP3 DUP3 SLOAD PUSH2 0xBE3 SWAP2 SWAP1 PUSH2 0x16C4 JUMP JUMPDEST SWAP3 POP POP DUP2 SWAP1 SSTORE POP POP JUMPDEST POP POP JUMP JUMPDEST PUSH1 0x5 PUSH1 0x20 MSTORE DUP1 PUSH1 0x0 MSTORE PUSH1 0x40 PUSH1 0x0 KECCAK256 PUSH1 0x0 SWAP2 POP SWAP1 POP DUP1 PUSH1 0x0 ADD SLOAD SWAP1 DUP1 PUSH1 0x1 ADD SLOAD SWAP1 DUP1 PUSH1 0x2 ADD SLOAD SWAP1 DUP1 PUSH1 0x3 ADD SLOAD SWAP1 DUP1 PUSH1 0x4 ADD PUSH1 0x0 SWAP1 SLOAD SWAP1 PUSH2 0x100 EXP SWAP1 DIV PUSH20 0xFFFFFFFFFFFFFFFFFFFFFFFFFFFFFFFFFFFFFFFF AND SWAP1 POP DUP6 JUMP JUMPDEST PUSH1 0x6 PUSH1 0x20 MSTORE DUP1 PUSH1 0x0 MSTORE PUSH1 0x40 PUSH1 0x0 KECCAK256 PUSH1 0x0 SWAP2 POP SLOAD SWAP1 PUSH2 0x100 EXP SWAP1 DIV PUSH20 0xFFFFFFFFFFFFFFFFFFFFFFFFFFFFFFFFFFFFFFFF AND DUP2 JUMP JUMPDEST PUSH1 0x60 PUSH1 0x2 SLOAD DUP3 LT PUSH2 0xC96 JUMPI PUSH1 0x1 PUSH1 0x2 SLOAD PUSH2 0xC93 SWAP2 SWAP1 PUSH2 0x16C4 JUMP JUMPDEST SWAP2 POP JUMPDEST PUSH1 0x0 PUSH1 0x1 DUP5 DUP5 PUSH2 0xCA6 SWAP2 SWAP1 PUSH2 0x16C4 JUMP JUMPDEST PUSH2 0xCB0 SWAP2 SWAP1 PUSH2 0x166E JUMP JUMPDEST SWAP1 POP PUSH1 0x0 DUP2 PUSH8 0xFFFFFFFFFFFFFFFF DUP2 GT ISZERO PUSH2 0xCCE JUMPI PUSH2 0xCCD PUSH2 0x18AB JUMP JUMPDEST JUMPDEST PUSH1 0x40 MLOAD SWAP1 DUP1 DUP3 MSTORE DUP1 PUSH1 0x20 MUL PUSH1 0x20 ADD DUP3 ADD PUSH1 0x40 MSTORE DUP1 ISZERO PUSH2 0xD07 JUMPI DUP2 PUSH1 0x20 ADD JUMPDEST PUSH2 0xCF4 PUSH2 0x10D0 JUMP JUMPDEST DUP2 MSTORE PUSH1 0x20 ADD SWAP1 PUSH1 0x1 SWAP1 SUB SWAP1 DUP2 PUSH2 0xCEC JUMPI SWAP1 POP JUMPDEST POP SWAP3 POP PUSH1 0x0 DUP6 SWAP1 POP JUMPDEST DUP5 DUP2 GT PUSH2 0xDFD JUMPI PUSH1 0x5 PUSH1 0x0 DUP3 DUP9 PUSH2 0xD27 SWAP2 SWAP1 PUSH2 0x166E JUMP JUMPDEST DUP2 MSTORE PUSH1 0x20 ADD SWAP1 DUP2 MSTORE PUSH1 0x20 ADD PUSH1 0x0 KECCAK256 PUSH1 0x40 MLOAD DUP1 PUSH1 0xA0 ADD PUSH1 0x40 MSTORE SWAP1 DUP2 PUSH1 0x0 DUP3 ADD SLOAD DUP2 MSTORE PUSH1 0x20 ADD PUSH1 0x1 DUP3 ADD SLOAD DUP2 MSTORE PUSH1 0x20 ADD PUSH1 0x2 DUP3 ADD SLOAD DUP2 MSTORE PUSH1 0x20 ADD PUSH1 0x3 DUP3 ADD SLOAD DUP2 MSTORE PUSH1 0x20 ADD PUSH1 0x4 DUP3 ADD PUSH1 0x0 SWAP1 SLOAD SWAP1 PUSH2 0x100 EXP SWAP1 DIV PUSH20 0xFFFFFFFFFFFFFFFFFFFFFFFFFFFFFFFFFFFFFFFF AND PUSH20 0xFFFFFFFFFFFFFFFFFFFFFFFFFFFFFFFFFFFFFFFF AND PUSH20 0xFFFFFFFFFFFFFFFFFFFFFFFFFFFFFFFFFFFFFFFF AND DUP2 MSTORE POP POP DUP5 DUP4 DUP2 MLOAD DUP2 LT PUSH2 0xDD1 JUMPI PUSH2 0xDD0 PUSH2 0x187C JUMP JUMPDEST JUMPDEST PUSH1 0x20 MUL PUSH1 0x20 ADD ADD DUP2 SWAP1 MSTORE POP DUP2 DUP1 PUSH2 0xDE7 SWAP1 PUSH2 0x1776 JUMP JUMPDEST SWAP3 POP POP DUP1 DUP1 PUSH2 0xDF5 SWAP1 PUSH2 0x1776 JUMP JUMPDEST SWAP2 POP POP PUSH2 0xD10 JUMP JUMPDEST POP POP POP SWAP3 SWAP2 POP POP JUMP JUMPDEST PUSH1 0x0 PUSH2 0xE11 DUP3 PUSH2 0x9BA JUMP JUMPDEST SWAP1 POP PUSH2 0xE1D DUP3 DUP3 PUSH2 0xA06 JUMP JUMPDEST POP POP JUMP JUMPDEST PUSH2 0xE29 PUSH2 0xFCB JUMP JUMPDEST PUSH20 0xFFFFFFFFFFFFFFFFFFFFFFFFFFFFFFFFFFFFFFFF AND PUSH2 0xE47 PUSH2 0x96B JUMP JUMPDEST PUSH20 0xFFFFFFFFFFFFFFFFFFFFFFFFFFFFFFFFFFFFFFFF AND EQ PUSH2 0xE9D JUMPI PUSH1 0x40 MLOAD PUSH32 0x8C379A000000000000000000000000000000000000000000000000000000000 DUP2 MSTORE PUSH1 0x4 ADD PUSH2 0xE94 SWAP1 PUSH2 0x1596 JUMP JUMPDEST PUSH1 0x40 MLOAD DUP1 SWAP2 SUB SWAP1 REVERT JUMPDEST PUSH1 0x0 PUSH20 0xFFFFFFFFFFFFFFFFFFFFFFFFFFFFFFFFFFFFFFFF AND DUP2 PUSH20 0xFFFFFFFFFFFFFFFFFFFFFFFFFFFFFFFFFFFFFFFF AND EQ ISZERO PUSH2 0xF0D JUMPI PUSH1 0x40 MLOAD PUSH32 0x8C379A000000000000000000000000000000000000000000000000000000000 DUP2 MSTORE PUSH1 0x4 ADD PUSH2 0xF04 SWAP1 PUSH2 0x1556 JUMP JUMPDEST PUSH1 0x40 MLOAD DUP1 SWAP2 SUB SWAP1 REVERT JUMPDEST PUSH2 0xF16 DUP2 PUSH2 0x100C JUMP JUMPDEST POP JUMP JUMPDEST PUSH1 0x0 PUSH1 0x4 PUSH1 0x0 SWAP1 SLOAD SWAP1 PUSH2 0x100 EXP SWAP1 DIV PUSH20 0xFFFFFFFFFFFFFFFFFFFFFFFFFFFFFFFFFFFFFFFF AND PUSH20 0xFFFFFFFFFFFFFFFFFFFFFFFFFFFFFFFFFFFFFFFF AND PUSH4 0x70A08231 ADDRESS PUSH1 0x40 MLOAD DUP3 PUSH4 0xFFFFFFFF AND PUSH1 0xE0 SHL DUP2 MSTORE PUSH1 0x4 ADD PUSH2 0xF76 SWAP2 SWAP1 PUSH2 0x14BA JUMP JUMPDEST PUSH1 0x20 PUSH1 0x40 MLOAD DUP1 DUP4 SUB DUP2 DUP7 DUP1 EXTCODESIZE ISZERO DUP1 ISZERO PUSH2 0xF8E JUMPI PUSH1 0x0 DUP1 REVERT JUMPDEST POP GAS STATICCALL ISZERO DUP1 ISZERO PUSH2 0xFA2 JUMPI RETURNDATASIZE PUSH1 0x0 DUP1 RETURNDATACOPY RETURNDATASIZE PUSH1 0x0 REVERT JUMPDEST POP POP POP POP PUSH1 0x40 MLOAD RETURNDATASIZE PUSH1 0x1F NOT PUSH1 0x1F DUP3 ADD AND DUP3 ADD DUP1 PUSH1 0x40 MSTORE POP DUP2 ADD SWAP1 PUSH2 0xFC6 SWAP2 SWAP1 PUSH2 0x1230 JUMP JUMPDEST SWAP1 POP SWAP1 JUMP JUMPDEST PUSH1 0x0 CALLER SWAP1 POP SWAP1 JUMP JUMPDEST PUSH1 0x0 TIMESTAMP GAS CALLER PUSH1 0x3 SLOAD PUSH1 0x40 MLOAD PUSH1 0x20 ADD PUSH2 0xFEE SWAP5 SWAP4 SWAP3 SWAP2 SWAP1 PUSH2 0x146C JUMP JUMPDEST PUSH1 0x40 MLOAD PUSH1 0x20 DUP2 DUP4 SUB SUB DUP2 MSTORE SWAP1 PUSH1 0x40 MSTORE DUP1 MLOAD SWAP1 PUSH1 0x20 ADD KECCAK256 PUSH1 0x0 SHR SWAP1 POP SWAP1 JUMP JUMPDEST PUSH1 0x0 DUP1 PUSH1 0x0 SWAP1 SLOAD SWAP1 PUSH2 0x100 EXP SWAP1 DIV PUSH20 0xFFFFFFFFFFFFFFFFFFFFFFFFFFFFFFFFFFFFFFFF AND SWAP1 POP DUP2 PUSH1 0x0 DUP1 PUSH2 0x100 EXP DUP2 SLOAD DUP2 PUSH20 0xFFFFFFFFFFFFFFFFFFFFFFFFFFFFFFFFFFFFFFFF MUL NOT AND SWAP1 DUP4 PUSH20 0xFFFFFFFFFFFFFFFFFFFFFFFFFFFFFFFFFFFFFFFF AND MUL OR SWAP1 SSTORE POP DUP2 PUSH20 0xFFFFFFFFFFFFFFFFFFFFFFFFFFFFFFFFFFFFFFFF AND DUP2 PUSH20 0xFFFFFFFFFFFFFFFFFFFFFFFFFFFFFFFFFFFFFFFF AND PUSH32 0x8BE0079C531659141344CD1FD0A4F28419497F9722A3DAAFE3B4186F6B6457E0 PUSH1 0x40 MLOAD PUSH1 0x40 MLOAD DUP1 SWAP2 SUB SWAP1 LOG3 POP POP JUMP JUMPDEST PUSH1 0x40 MLOAD DUP1 PUSH1 0xA0 ADD PUSH1 0x40 MSTORE DUP1 PUSH1 0x0 DUP2 MSTORE PUSH1 0x20 ADD PUSH1 0x0 DUP2 MSTORE PUSH1 0x20 ADD PUSH1 0x0 DUP2 MSTORE PUSH1 0x20 ADD PUSH1 0x0 DUP2 MSTORE PUSH1 0x20 ADD PUSH1 0x0 PUSH20 0xFFFFFFFFFFFFFFFFFFFFFFFFFFFFFFFFFFFFFFFF AND DUP2 MSTORE POP SWAP1 JUMP JUMPDEST PUSH1 0x0 DUP2 CALLDATALOAD SWAP1 POP PUSH2 0x1124 DUP2 PUSH2 0x198D JUMP JUMPDEST SWAP3 SWAP2 POP POP JUMP JUMPDEST PUSH1 0x0 DUP2 MLOAD SWAP1 POP PUSH2 0x1139 DUP2 PUSH2 0x19A4 JUMP JUMPDEST SWAP3 SWAP2 POP POP JUMP JUMPDEST PUSH1 0x0 DUP2 CALLDATALOAD SWAP1 POP PUSH2 0x114E DUP2 PUSH2 0x19BB JUMP JUMPDEST SWAP3 SWAP2 POP POP JUMP JUMPDEST PUSH1 0x0 DUP2 MLOAD SWAP1 POP PUSH2 0x1163 DUP2 PUSH2 0x19BB JUMP JUMPDEST SWAP3 SWAP2 POP POP JUMP JUMPDEST PUSH1 0x0 PUSH1 0x20 DUP3 DUP5 SUB SLT ISZERO PUSH2 0x117F JUMPI PUSH2 0x117E PUSH2 0x18DA JUMP JUMPDEST JUMPDEST PUSH1 0x0 PUSH2 0x118D DUP5 DUP3 DUP6 ADD PUSH2 0x1115 JUMP JUMPDEST SWAP2 POP POP SWAP3 SWAP2 POP POP JUMP JUMPDEST PUSH1 0x0 DUP1 PUSH1 0x40 DUP4 DUP6 SUB SLT ISZERO PUSH2 0x11AD JUMPI PUSH2 0x11AC PUSH2 0x18DA JUMP JUMPDEST JUMPDEST PUSH1 0x0 PUSH2 0x11BB DUP6 DUP3 DUP7 ADD PUSH2 0x1115 JUMP JUMPDEST SWAP3 POP POP PUSH1 0x20 PUSH2 0x11CC DUP6 DUP3 DUP7 ADD PUSH2 0x113F JUMP JUMPDEST SWAP2 POP POP SWAP3 POP SWAP3 SWAP1 POP JUMP JUMPDEST PUSH1 0x0 PUSH1 0x20 DUP3 DUP5 SUB SLT ISZERO PUSH2 0x11EC JUMPI PUSH2 0x11EB PUSH2 0x18DA JUMP JUMPDEST JUMPDEST PUSH1 0x0 PUSH2 0x11FA DUP5 DUP3 DUP6 ADD PUSH2 0x112A JUMP JUMPDEST SWAP2 POP POP SWAP3 SWAP2 POP POP JUMP JUMPDEST PUSH1 0x0 PUSH1 0x20 DUP3 DUP5 SUB SLT ISZERO PUSH2 0x1219 JUMPI PUSH2 0x1218 PUSH2 0x18DA JUMP JUMPDEST JUMPDEST PUSH1 0x0 PUSH2 0x1227 DUP5 DUP3 DUP6 ADD PUSH2 0x113F JUMP JUMPDEST SWAP2 POP POP SWAP3 SWAP2 POP POP JUMP JUMPDEST PUSH1 0x0 PUSH1 0x20 DUP3 DUP5 SUB SLT ISZERO PUSH2 0x1246 JUMPI PUSH2 0x1245 PUSH2 0x18DA JUMP JUMPDEST JUMPDEST PUSH1 0x0 PUSH2 0x1254 DUP5 DUP3 DUP6 ADD PUSH2 0x1154 JUMP JUMPDEST SWAP2 POP POP SWAP3 SWAP2 POP POP JUMP JUMPDEST PUSH1 0x0 DUP1 PUSH1 0x40 DUP4 DUP6 SUB SLT ISZERO PUSH2 0x1274 JUMPI PUSH2 0x1273 PUSH2 0x18DA JUMP JUMPDEST JUMPDEST PUSH1 0x0 PUSH2 0x1282 DUP6 DUP3 DUP7 ADD PUSH2 0x113F JUMP JUMPDEST SWAP3 POP POP PUSH1 0x20 PUSH2 0x1293 DUP6 DUP3 DUP7 ADD PUSH2 0x113F JUMP JUMPDEST SWAP2 POP POP SWAP3 POP SWAP3 SWAP1 POP JUMP JUMPDEST PUSH1 0x0 PUSH2 0x12A9 DUP4 DUP4 PUSH2 0x13CF JUMP JUMPDEST PUSH1 0xA0 DUP4 ADD SWAP1 POP SWAP3 SWAP2 POP POP JUMP JUMPDEST PUSH2 0x12BE DUP2 PUSH2 0x16F8 JUMP JUMPDEST DUP3 MSTORE POP POP JUMP JUMPDEST PUSH2 0x12CD DUP2 PUSH2 0x16F8 JUMP JUMPDEST DUP3 MSTORE POP POP JUMP JUMPDEST PUSH2 0x12E4 PUSH2 0x12DF DUP3 PUSH2 0x16F8 JUMP JUMPDEST PUSH2 0x17BF JUMP JUMPDEST DUP3 MSTORE POP POP JUMP JUMPDEST PUSH1 0x0 PUSH2 0x12F5 DUP3 PUSH2 0x1634 JUMP JUMPDEST PUSH2 0x12FF DUP2 DUP6 PUSH2 0x164C JUMP JUMPDEST SWAP4 POP PUSH2 0x130A DUP4 PUSH2 0x1624 JUMP JUMPDEST DUP1 PUSH1 0x0 JUMPDEST DUP4 DUP2 LT ISZERO PUSH2 0x133B JUMPI DUP2 MLOAD PUSH2 0x1322 DUP9 DUP3 PUSH2 0x129D JUMP JUMPDEST SWAP8 POP PUSH2 0x132D DUP4 PUSH2 0x163F JUMP JUMPDEST SWAP3 POP POP PUSH1 0x1 DUP2 ADD SWAP1 POP PUSH2 0x130E JUMP JUMPDEST POP DUP6 SWAP4 POP POP POP POP SWAP3 SWAP2 POP POP JUMP JUMPDEST PUSH2 0x1351 DUP2 PUSH2 0x170A JUMP JUMPDEST DUP3 MSTORE POP POP JUMP JUMPDEST PUSH2 0x1360 DUP2 PUSH2 0x1740 JUMP JUMPDEST DUP3 MSTORE POP POP JUMP JUMPDEST PUSH1 0x0 PUSH2 0x1373 PUSH1 0x26 DUP4 PUSH2 0x165D JUMP JUMPDEST SWAP2 POP PUSH2 0x137E DUP3 PUSH2 0x18EC JUMP JUMPDEST PUSH1 0x40 DUP3 ADD SWAP1 POP SWAP2 SWAP1 POP JUMP JUMPDEST PUSH1 0x0 PUSH2 0x1396 PUSH1 0x18 DUP4 PUSH2 0x165D JUMP JUMPDEST SWAP2 POP PUSH2 0x13A1 DUP3 PUSH2 0x193B JUMP JUMPDEST PUSH1 0x20 DUP3 ADD SWAP1 POP SWAP2 SWAP1 POP JUMP JUMPDEST PUSH1 0x0 PUSH2 0x13B9 PUSH1 0x20 DUP4 PUSH2 0x165D JUMP JUMPDEST SWAP2 POP PUSH2 0x13C4 DUP3 PUSH2 0x1964 JUMP JUMPDEST PUSH1 0x20 DUP3 ADD SWAP1 POP SWAP2 SWAP1 POP JUMP JUMPDEST PUSH1 0xA0 DUP3 ADD PUSH1 0x0 DUP3 ADD MLOAD PUSH2 0x13E5 PUSH1 0x0 DUP6 ADD DUP3 PUSH2 0x1437 JUMP JUMPDEST POP PUSH1 0x20 DUP3 ADD MLOAD PUSH2 0x13F8 PUSH1 0x20 DUP6 ADD DUP3 PUSH2 0x1437 JUMP JUMPDEST POP PUSH1 0x40 DUP3 ADD MLOAD PUSH2 0x140B PUSH1 0x40 DUP6 ADD DUP3 PUSH2 0x1437 JUMP JUMPDEST POP PUSH1 0x60 DUP3 ADD MLOAD PUSH2 0x141E PUSH1 0x60 DUP6 ADD DUP3 PUSH2 0x1437 JUMP JUMPDEST POP PUSH1 0x80 DUP3 ADD MLOAD PUSH2 0x1431 PUSH1 0x80 DUP6 ADD DUP3 PUSH2 0x12B5 JUMP JUMPDEST POP POP POP POP JUMP JUMPDEST PUSH2 0x1440 DUP2 PUSH2 0x1736 JUMP JUMPDEST DUP3 MSTORE POP POP JUMP JUMPDEST PUSH2 0x144F DUP2 PUSH2 0x1736 JUMP JUMPDEST DUP3 MSTORE POP POP JUMP JUMPDEST PUSH2 0x1466 PUSH2 0x1461 DUP3 PUSH2 0x1736 JUMP JUMPDEST PUSH2 0x17E3 JUMP JUMPDEST DUP3 MSTORE POP POP JUMP JUMPDEST PUSH1 0x0 PUSH2 0x1478 DUP3 DUP8 PUSH2 0x1455 JUMP JUMPDEST PUSH1 0x20 DUP3 ADD SWAP2 POP PUSH2 0x1488 DUP3 DUP7 PUSH2 0x1455 JUMP JUMPDEST PUSH1 0x20 DUP3 ADD SWAP2 POP PUSH2 0x1498 DUP3 DUP6 PUSH2 0x12D3 JUMP JUMPDEST PUSH1 0x14 DUP3 ADD SWAP2 POP PUSH2 0x14A8 DUP3 DUP5 PUSH2 0x1455 JUMP JUMPDEST PUSH1 0x20 DUP3 ADD SWAP2 POP DUP2 SWAP1 POP SWAP6 SWAP5 POP POP POP POP POP JUMP JUMPDEST PUSH1 0x0 PUSH1 0x20 DUP3 ADD SWAP1 POP PUSH2 0x14CF PUSH1 0x0 DUP4 ADD DUP5 PUSH2 0x12C4 JUMP JUMPDEST SWAP3 SWAP2 POP POP JUMP JUMPDEST PUSH1 0x0 PUSH1 0x40 DUP3 ADD SWAP1 POP PUSH2 0x14EA PUSH1 0x0 DUP4 ADD DUP6 PUSH2 0x12C4 JUMP JUMPDEST PUSH2 0x14F7 PUSH1 0x20 DUP4 ADD DUP5 PUSH2 0x1446 JUMP JUMPDEST SWAP4 SWAP3 POP POP POP JUMP JUMPDEST PUSH1 0x0 PUSH1 0x20 DUP3 ADD SWAP1 POP DUP2 DUP2 SUB PUSH1 0x0 DUP4 ADD MSTORE PUSH2 0x1518 DUP2 DUP5 PUSH2 0x12EA JUMP JUMPDEST SWAP1 POP SWAP3 SWAP2 POP POP JUMP JUMPDEST PUSH1 0x0 PUSH1 0x20 DUP3 ADD SWAP1 POP PUSH2 0x1535 PUSH1 0x0 DUP4 ADD DUP5 PUSH2 0x1348 JUMP JUMPDEST SWAP3 SWAP2 POP POP JUMP JUMPDEST PUSH1 0x0 PUSH1 0x20 DUP3 ADD SWAP1 POP PUSH2 0x1550 PUSH1 0x0 DUP4 ADD DUP5 PUSH2 0x1357 JUMP JUMPDEST SWAP3 SWAP2 POP POP JUMP JUMPDEST PUSH1 0x0 PUSH1 0x20 DUP3 ADD SWAP1 POP DUP2 DUP2 SUB PUSH1 0x0 DUP4 ADD MSTORE PUSH2 0x156F DUP2 PUSH2 0x1366 JUMP JUMPDEST SWAP1 POP SWAP2 SWAP1 POP JUMP JUMPDEST PUSH1 0x0 PUSH1 0x20 DUP3 ADD SWAP1 POP DUP2 DUP2 SUB PUSH1 0x0 DUP4 ADD MSTORE PUSH2 0x158F DUP2 PUSH2 0x1389 JUMP JUMPDEST SWAP1 POP SWAP2 SWAP1 POP JUMP JUMPDEST PUSH1 0x0 PUSH1 0x20 DUP3 ADD SWAP1 POP DUP2 DUP2 SUB PUSH1 0x0 DUP4 ADD MSTORE PUSH2 0x15AF DUP2 PUSH2 0x13AC JUMP JUMPDEST SWAP1 POP SWAP2 SWAP1 POP JUMP JUMPDEST PUSH1 0x0 PUSH1 0x20 DUP3 ADD SWAP1 POP PUSH2 0x15CB PUSH1 0x0 DUP4 ADD DUP5 PUSH2 0x1446 JUMP JUMPDEST SWAP3 SWAP2 POP POP JUMP JUMPDEST PUSH1 0x0 PUSH1 0xA0 DUP3 ADD SWAP1 POP PUSH2 0x15E6 PUSH1 0x0 DUP4 ADD DUP9 PUSH2 0x1446 JUMP JUMPDEST PUSH2 0x15F3 PUSH1 0x20 DUP4 ADD DUP8 PUSH2 0x1446 JUMP JUMPDEST PUSH2 0x1600 PUSH1 0x40 DUP4 ADD DUP7 PUSH2 0x1446 JUMP JUMPDEST PUSH2 0x160D PUSH1 0x60 DUP4 ADD DUP6 PUSH2 0x1446 JUMP JUMPDEST PUSH2 0x161A PUSH1 0x80 DUP4 ADD DUP5 PUSH2 0x12C4 JUMP JUMPDEST SWAP7 SWAP6 POP POP POP POP POP POP JUMP JUMPDEST PUSH1 0x0 DUP2 SWAP1 POP PUSH1 0x20 DUP3 ADD SWAP1 POP SWAP2 SWAP1 POP JUMP JUMPDEST PUSH1 0x0 DUP2 MLOAD SWAP1 POP SWAP2 SWAP1 POP JUMP JUMPDEST PUSH1 0x0 PUSH1 0x20 DUP3 ADD SWAP1 POP SWAP2 SWAP1 POP JUMP JUMPDEST PUSH1 0x0 DUP3 DUP3 MSTORE PUSH1 0x20 DUP3 ADD SWAP1 POP SWAP3 SWAP2 POP POP JUMP JUMPDEST PUSH1 0x0 DUP3 DUP3 MSTORE PUSH1 0x20 DUP3 ADD SWAP1 POP SWAP3 SWAP2 POP POP JUMP JUMPDEST PUSH1 0x0 PUSH2 0x1679 DUP3 PUSH2 0x1736 JUMP JUMPDEST SWAP2 POP PUSH2 0x1684 DUP4 PUSH2 0x1736 JUMP JUMPDEST SWAP3 POP DUP3 PUSH32 0xFFFFFFFFFFFFFFFFFFFFFFFFFFFFFFFFFFFFFFFFFFFFFFFFFFFFFFFFFFFFFFFF SUB DUP3 GT ISZERO PUSH2 0x16B9 JUMPI PUSH2 0x16B8 PUSH2 0x181E JUMP JUMPDEST JUMPDEST DUP3 DUP3 ADD SWAP1 POP SWAP3 SWAP2 POP POP JUMP JUMPDEST PUSH1 0x0 PUSH2 0x16CF DUP3 PUSH2 0x1736 JUMP JUMPDEST SWAP2 POP PUSH2 0x16DA DUP4 PUSH2 0x1736 JUMP JUMPDEST SWAP3 POP DUP3 DUP3 LT ISZERO PUSH2 0x16ED JUMPI PUSH2 0x16EC PUSH2 0x181E JUMP JUMPDEST JUMPDEST DUP3 DUP3 SUB SWAP1 POP SWAP3 SWAP2 POP POP JUMP JUMPDEST PUSH1 0x0 PUSH2 0x1703 DUP3 PUSH2 0x1716 JUMP JUMPDEST SWAP1 POP SWAP2 SWAP1 POP JUMP JUMPDEST PUSH1 0x0 DUP2 ISZERO ISZERO SWAP1 POP SWAP2 SWAP1 POP JUMP JUMPDEST PUSH1 0x0 PUSH20 0xFFFFFFFFFFFFFFFFFFFFFFFFFFFFFFFFFFFFFFFF DUP3 AND SWAP1 POP SWAP2 SWAP1 POP JUMP JUMPDEST PUSH1 0x0 DUP2 SWAP1 POP SWAP2 SWAP1 POP JUMP JUMPDEST PUSH1 0x0 PUSH2 0x174B DUP3 PUSH2 0x1752 JUMP JUMPDEST SWAP1 POP SWAP2 SWAP1 POP JUMP JUMPDEST PUSH1 0x0 PUSH2 0x175D DUP3 PUSH2 0x1764 JUMP JUMPDEST SWAP1 POP SWAP2 SWAP1 POP JUMP JUMPDEST PUSH1 0x0 PUSH2 0x176F DUP3 PUSH2 0x1716 JUMP JUMPDEST SWAP1 POP SWAP2 SWAP1 POP JUMP JUMPDEST PUSH1 0x0 PUSH2 0x1781 DUP3 PUSH2 0x1736 JUMP JUMPDEST SWAP2 POP PUSH32 0xFFFFFFFFFFFFFFFFFFFFFFFFFFFFFFFFFFFFFFFFFFFFFFFFFFFFFFFFFFFFFFFF DUP3 EQ ISZERO PUSH2 0x17B4 JUMPI PUSH2 0x17B3 PUSH2 0x181E JUMP JUMPDEST JUMPDEST PUSH1 0x1 DUP3 ADD SWAP1 POP SWAP2 SWAP1 POP JUMP JUMPDEST PUSH1 0x0 PUSH2 0x17CA DUP3 PUSH2 0x17D1 JUMP JUMPDEST SWAP1 POP SWAP2 SWAP1 POP JUMP JUMPDEST PUSH1 0x0 PUSH2 0x17DC DUP3 PUSH2 0x18DF JUMP JUMPDEST SWAP1 POP SWAP2 SWAP1 POP JUMP JUMPDEST PUSH1 0x0 DUP2 SWAP1 POP SWAP2 SWAP1 POP JUMP JUMPDEST PUSH1 0x0 PUSH2 0x17F8 DUP3 PUSH2 0x1736 JUMP JUMPDEST SWAP2 POP PUSH2 0x1803 DUP4 PUSH2 0x1736 JUMP JUMPDEST SWAP3 POP DUP3 PUSH2 0x1813 JUMPI PUSH2 0x1812 PUSH2 0x184D JUMP JUMPDEST JUMPDEST DUP3 DUP3 MOD SWAP1 POP SWAP3 SWAP2 POP POP JUMP JUMPDEST PUSH32 0x4E487B7100000000000000000000000000000000000000000000000000000000 PUSH1 0x0 MSTORE PUSH1 0x11 PUSH1 0x4 MSTORE PUSH1 0x24 PUSH1 0x0 REVERT JUMPDEST PUSH32 0x4E487B7100000000000000000000000000000000000000000000000000000000 PUSH1 0x0 MSTORE PUSH1 0x12 PUSH1 0x4 MSTORE PUSH1 0x24 PUSH1 0x0 REVERT JUMPDEST PUSH32 0x4E487B7100000000000000000000000000000000000000000000000000000000 PUSH1 0x0 MSTORE PUSH1 0x32 PUSH1 0x4 MSTORE PUSH1 0x24 PUSH1 0x0 REVERT JUMPDEST PUSH32 0x4E487B7100000000000000000000000000000000000000000000000000000000 PUSH1 0x0 MSTORE PUSH1 0x41 PUSH1 0x4 MSTORE PUSH1 0x24 PUSH1 0x0 REVERT JUMPDEST PUSH1 0x0 DUP1 REVERT JUMPDEST PUSH1 0x0 DUP2 PUSH1 0x60 SHL SWAP1 POP SWAP2 SWAP1 POP JUMP JUMPDEST PUSH32 0x4F776E61626C653A206E6577206F776E657220697320746865207A65726F2061 PUSH1 0x0 DUP3 ADD MSTORE PUSH32 0x6464726573730000000000000000000000000000000000000000000000000000 PUSH1 0x20 DUP3 ADD MSTORE POP JUMP JUMPDEST PUSH32 0x4E6F7420656E6F7567682066756E647320746F20647261770000000000000000 PUSH1 0x0 DUP3 ADD MSTORE POP JUMP JUMPDEST PUSH32 0x4F776E61626C653A2063616C6C6572206973206E6F7420746865206F776E6572 PUSH1 0x0 DUP3 ADD MSTORE POP JUMP JUMPDEST PUSH2 0x1996 DUP2 PUSH2 0x16F8 JUMP JUMPDEST DUP2 EQ PUSH2 0x19A1 JUMPI PUSH1 0x0 DUP1 REVERT JUMPDEST POP JUMP JUMPDEST PUSH2 0x19AD DUP2 PUSH2 0x170A JUMP JUMPDEST DUP2 EQ PUSH2 0x19B8 JUMPI PUSH1 0x0 DUP1 REVERT JUMPDEST POP JUMP JUMPDEST PUSH2 0x19C4 DUP2 PUSH2 0x1736 JUMP JUMPDEST DUP2 EQ PUSH2 0x19CF JUMPI PUSH1 0x0 DUP1 REVERT JUMPDEST POP JUMP INVALID LOG2 PUSH5 0x6970667358 0x22 SLT KECCAK256 PUSH12 0x7D8DC420716748E052FE51D1 CALLER PUSH25 0xE9A3DE5B7343B3AD12D868E05726692AB364736F6C63430008 SMOD STOP CALLER "
				},
				"gasEstimates": {
					"creation": {
						"codeDepositCost": "1332800",
						"executionCost": "infinite",
						"totalCost": "infinite"
					},
					"external": {
						"acesToken()": "2645",
						"currentJackpot()": "infinite",
						"entriesIndex(address,uint256)": "infinite",
						"getUniqueAddresses()": "infinite",
						"isActiveAccount(address)": "2962",
						"owner()": "2545",
						"pickWinner()": "infinite",
						"removeAccount(address)": "infinite",
						"removeEntryFromWallet(address,uint256)": "infinite",
						"renounceOwnership()": "30463",
						"resultLog(uint256,uint256)": "infinite",
						"roundEntries()": "2540",
						"roundEntry(uint256)": "2861",
						"roundNum()": "2475",
						"roundResults(uint256)": "infinite",
						"totalPayout()": "2452",
						"transferOwnership(address)": "30811",
						"updateAccount(address,uint256)": "infinite",
						"userEntries(address)": "2916"
					},
					"internal": {
						"random()": "infinite"
					}
				},
				"methodIdentifiers": {
					"acesToken()": "9b3e4552",
					"currentJackpot()": "f9cee0bd",
					"entriesIndex(address,uint256)": "0d988270",
					"getUniqueAddresses()": "3b98bc65",
					"isActiveAccount(address)": "5bedc390",
					"owner()": "8da5cb5b",
					"pickWinner()": "5d495aea",
					"removeAccount(address)": "c4740a95",
					"removeEntryFromWallet(address,uint256)": "a59460dc",
					"renounceOwnership()": "715018a6",
					"resultLog(uint256,uint256)": "bc15cdf0",
					"roundEntries()": "76636d20",
					"roundEntry(uint256)": "b657dd65",
					"roundNum()": "119b22b3",
					"roundResults(uint256)": "ac128f4f",
					"totalPayout()": "454f7b8f",
					"transferOwnership(address)": "f2fde38b",
					"updateAccount(address,uint256)": "443b80a1",
					"userEntries(address)": "9f10a990"
				}
			},
			"storageLayout": {
				"storage": [
					{
						"astId": 7,
						"contract": "lotto.sol:ACELotto",
						"label": "_owner",
						"offset": 0,
						"slot": "0",
						"type": "t_address"
					},
					{
						"astId": 239,
						"contract": "lotto.sol:ACELotto",
						"label": "roundEntries",
						"offset": 0,
						"slot": "1",
						"type": "t_uint256"
					},
					{
						"astId": 241,
						"contract": "lotto.sol:ACELotto",
						"label": "roundNum",
						"offset": 0,
						"slot": "2",
						"type": "t_uint256"
					},
					{
						"astId": 243,
						"contract": "lotto.sol:ACELotto",
						"label": "totalPayout",
						"offset": 0,
						"slot": "3",
						"type": "t_uint256"
					},
					{
						"astId": 246,
						"contract": "lotto.sol:ACELotto",
						"label": "acesToken",
						"offset": 0,
						"slot": "4",
						"type": "t_contract(IERC20)182"
					},
					{
						"astId": 262,
						"contract": "lotto.sol:ACELotto",
						"label": "roundResults",
						"offset": 0,
						"slot": "5",
						"type": "t_mapping(t_uint256,t_struct(Results)257_storage)"
					},
					{
						"astId": 266,
						"contract": "lotto.sol:ACELotto",
						"label": "roundEntry",
						"offset": 0,
						"slot": "6",
						"type": "t_mapping(t_uint256,t_address)"
					},
					{
						"astId": 271,
						"contract": "lotto.sol:ACELotto",
						"label": "entriesIndex",
						"offset": 0,
						"slot": "7",
						"type": "t_mapping(t_address,t_array(t_uint256)dyn_storage)"
					}
				],
				"types": {
					"t_address": {
						"encoding": "inplace",
						"label": "address",
						"numberOfBytes": "20"
					},
					"t_array(t_uint256)dyn_storage": {
						"base": "t_uint256",
						"encoding": "dynamic_array",
						"label": "uint256[]",
						"numberOfBytes": "32"
					},
					"t_contract(IERC20)182": {
						"encoding": "inplace",
						"label": "contract IERC20",
						"numberOfBytes": "20"
					},
					"t_mapping(t_address,t_array(t_uint256)dyn_storage)": {
						"encoding": "mapping",
						"key": "t_address",
						"label": "mapping(address => uint256[])",
						"numberOfBytes": "32",
						"value": "t_array(t_uint256)dyn_storage"
					},
					"t_mapping(t_uint256,t_address)": {
						"encoding": "mapping",
						"key": "t_uint256",
						"label": "mapping(uint256 => address)",
						"numberOfBytes": "32",
						"value": "t_address"
					},
					"t_mapping(t_uint256,t_struct(Results)257_storage)": {
						"encoding": "mapping",
						"key": "t_uint256",
						"label": "mapping(uint256 => struct ACELotto.Results)",
						"numberOfBytes": "32",
						"value": "t_struct(Results)257_storage"
					},
					"t_struct(Results)257_storage": {
						"encoding": "inplace",
						"label": "struct ACELotto.Results",
						"members": [
							{
								"astId": 248,
								"contract": "lotto.sol:ACELotto",
								"label": "totalEntries",
								"offset": 0,
								"slot": "0",
								"type": "t_uint256"
							},
							{
								"astId": 250,
								"contract": "lotto.sol:ACELotto",
								"label": "winningNumber",
								"offset": 0,
								"slot": "1",
								"type": "t_uint256"
							},
							{
								"astId": 252,
								"contract": "lotto.sol:ACELotto",
								"label": "payout",
								"offset": 0,
								"slot": "2",
								"type": "t_uint256"
							},
							{
								"astId": 254,
								"contract": "lotto.sol:ACELotto",
								"label": "endTime",
								"offset": 0,
								"slot": "3",
								"type": "t_uint256"
							},
							{
								"astId": 256,
								"contract": "lotto.sol:ACELotto",
								"label": "winningAddress",
								"offset": 0,
								"slot": "4",
								"type": "t_address"
							}
						],
						"numberOfBytes": "160"
					},
					"t_uint256": {
						"encoding": "inplace",
						"label": "uint256",
						"numberOfBytes": "32"
					}
				}
			},
			"userdoc": {
				"kind": "user",
				"methods": {},
				"version": 1
			}
		}
	}
}