{
	"NFTlotto.sol": {
		"ACELotto": {
			"abi": [
				{
					"inputs": [
						{
							"internalType": "address",
							"name": "_paymentToken",
							"type": "address"
						},
						{
							"internalType": "address",
							"name": "_NFT",
							"type": "address"
						}
					],
					"stateMutability": "nonpayable",
					"type": "constructor"
				},
				{
					"anonymous": false,
					"inputs": [
						{
							"indexed": false,
							"internalType": "address",
							"name": "winner",
							"type": "address"
						},
						{
							"indexed": false,
							"internalType": "uint256",
							"name": "amount",
							"type": "uint256"
						}
					],
					"name": "LotteryWon",
					"type": "event"
				},
				{
					"anonymous": false,
					"inputs": [
						{
							"indexed": true,
							"internalType": "address",
							"name": "previousOwner",
							"type": "address"
						},
						{
							"indexed": true,
							"internalType": "address",
							"name": "newOwner",
							"type": "address"
						}
					],
					"name": "OwnershipTransferred",
					"type": "event"
				},
				{
					"inputs": [],
					"name": "acesNFT",
					"outputs": [
						{
							"internalType": "contract IERC721Enumerable",
							"name": "",
							"type": "address"
						}
					],
					"stateMutability": "view",
					"type": "function"
				},
				{
					"inputs": [],
					"name": "currentJackpot",
					"outputs": [
						{
							"internalType": "uint256",
							"name": "",
							"type": "uint256"
						}
					],
					"stateMutability": "view",
					"type": "function"
				},
				{
					"inputs": [],
					"name": "getEntries",
					"outputs": [
						{
							"internalType": "uint256",
							"name": "",
							"type": "uint256"
						}
					],
					"stateMutability": "view",
					"type": "function"
				},
				{
					"inputs": [],
					"name": "getUniqueAddresses",
					"outputs": [
						{
							"internalType": "address[]",
							"name": "addresses",
							"type": "address[]"
						},
						{
							"internalType": "uint256[]",
							"name": "entries",
							"type": "uint256[]"
						}
					],
					"stateMutability": "view",
					"type": "function"
				},
				{
					"inputs": [],
					"name": "getUniqueUsers",
					"outputs": [
						{
							"internalType": "uint256",
							"name": "counter",
							"type": "uint256"
						}
					],
					"stateMutability": "view",
					"type": "function"
				},
				{
					"inputs": [],
					"name": "owner",
					"outputs": [
						{
							"internalType": "address",
							"name": "",
							"type": "address"
						}
					],
					"stateMutability": "view",
					"type": "function"
				},
				{
					"inputs": [],
					"name": "paymentToken",
					"outputs": [
						{
							"internalType": "contract IERC20",
							"name": "",
							"type": "address"
						}
					],
					"stateMutability": "view",
					"type": "function"
				},
				{
					"inputs": [
						{
							"internalType": "uint256",
							"name": "seed",
							"type": "uint256"
						}
					],
					"name": "pickWinner",
					"outputs": [
						{
							"internalType": "uint256",
							"name": "winnerNum",
							"type": "uint256"
						},
						{
							"internalType": "address",
							"name": "winnerAddress",
							"type": "address"
						}
					],
					"stateMutability": "view",
					"type": "function"
				},
				{
					"inputs": [],
					"name": "renounceOwnership",
					"outputs": [],
					"stateMutability": "nonpayable",
					"type": "function"
				},
				{
					"inputs": [
						{
							"internalType": "uint256",
							"name": "startIndex",
							"type": "uint256"
						},
						{
							"internalType": "uint256",
							"name": "endIndex",
							"type": "uint256"
						}
					],
					"name": "resultLog",
					"outputs": [
						{
							"components": [
								{
									"internalType": "uint256",
									"name": "totalEntries",
									"type": "uint256"
								},
								{
									"internalType": "uint256",
									"name": "winningNumber",
									"type": "uint256"
								},
								{
									"internalType": "uint256",
									"name": "payout",
									"type": "uint256"
								},
								{
									"internalType": "uint256",
									"name": "endTime",
									"type": "uint256"
								},
								{
									"internalType": "address",
									"name": "winningAddress",
									"type": "address"
								}
							],
							"internalType": "struct ACELotto.Results[]",
							"name": "log",
							"type": "tuple[]"
						}
					],
					"stateMutability": "view",
					"type": "function"
				},
				{
					"inputs": [],
					"name": "roundNum",
					"outputs": [
						{
							"internalType": "uint256",
							"name": "",
							"type": "uint256"
						}
					],
					"stateMutability": "view",
					"type": "function"
				},
				{
					"inputs": [
						{
							"internalType": "uint256",
							"name": "",
							"type": "uint256"
						}
					],
					"name": "roundResults",
					"outputs": [
						{
							"internalType": "uint256",
							"name": "totalEntries",
							"type": "uint256"
						},
						{
							"internalType": "uint256",
							"name": "winningNumber",
							"type": "uint256"
						},
						{
							"internalType": "uint256",
							"name": "payout",
							"type": "uint256"
						},
						{
							"internalType": "uint256",
							"name": "endTime",
							"type": "uint256"
						},
						{
							"internalType": "address",
							"name": "winningAddress",
							"type": "address"
						}
					],
					"stateMutability": "view",
					"type": "function"
				},
				{
					"inputs": [],
					"name": "totalPayout",
					"outputs": [
						{
							"internalType": "uint256",
							"name": "",
							"type": "uint256"
						}
					],
					"stateMutability": "view",
					"type": "function"
				},
				{
					"inputs": [
						{
							"internalType": "address",
							"name": "newOwner",
							"type": "address"
						}
					],
					"name": "transferOwnership",
					"outputs": [],
					"stateMutability": "nonpayable",
					"type": "function"
				},
				{
					"inputs": [
						{
							"internalType": "uint256",
							"name": "_newJackpot",
							"type": "uint256"
						}
					],
					"name": "updateJackpot",
					"outputs": [],
					"stateMutability": "nonpayable",
					"type": "function"
				},
				{
					"inputs": [
						{
							"internalType": "address",
							"name": "_newToken",
							"type": "address"
						}
					],
					"name": "updateToken",
					"outputs": [],
					"stateMutability": "nonpayable",
					"type": "function"
				},
				{
					"inputs": [
						{
							"internalType": "uint256",
							"name": "winnerNum",
							"type": "uint256"
						},
						{
							"internalType": "uint256",
							"name": "payout",
							"type": "uint256"
						}
					],
					"name": "updateWinner",
					"outputs": [],
					"stateMutability": "nonpayable",
					"type": "function"
				},
				{
					"inputs": [
						{
							"internalType": "address",
							"name": "account",
							"type": "address"
						}
					],
					"name": "userEntries",
					"outputs": [
						{
							"internalType": "uint256",
							"name": "",
							"type": "uint256"
						}
					],
					"stateMutability": "view",
					"type": "function"
				}
			],
			"devdoc": {
				"kind": "dev",
				"methods": {
					"owner()": {
						"details": "Returns the address of the current owner."
					},
					"renounceOwnership()": {
						"details": "Leaves the contract without owner. It will not be possible to call `onlyOwner` functions anymore. Can only be called by the current owner. NOTE: Renouncing ownership will leave the contract without an owner, thereby removing any functionality that is only available to the owner."
					},
					"transferOwnership(address)": {
						"details": "Transfers ownership of the contract to a new account (`newOwner`). Can only be called by the current owner."
					}
				},
				"version": 1
			},
			"evm": {
				"assembly": "    /* \"NFTlotto.sol\":729:5595  contract ACELotto is Ownable {   \r... */\n  mstore(0x40, 0x80)\n    /* \"NFTlotto.sol\":868:875  1 ether */\n  0x0de0b6b3a7640000\n    /* \"NFTlotto.sol\":836:875  uint256 public currentJackpot = 1 ether */\n  0x03\n  sstore\n    /* \"NFTlotto.sol\":1257:1404  constructor(address _paymentToken, address _NFT){\r... */\n  callvalue\n  dup1\n  iszero\n  tag_1\n  jumpi\n  0x00\n  dup1\n  revert\ntag_1:\n  pop\n  mload(0x40)\n  sub(codesize, bytecodeSize)\n  dup1\n  bytecodeSize\n  dup4\n  codecopy\n  dup2\n  dup2\n  add\n  0x40\n  mstore\n  dup2\n  add\n  swap1\n  tag_2\n  swap2\n  swap1\n  tag_3\n  jump\t// in\ntag_2:\n    /* \"https://github.com/OpenZeppelin/openzeppelin-contracts/blob/master/contracts/access/Ownable.sol\":921:953  _transferOwnership(_msgSender()) */\n  tag_7\n    /* \"https://github.com/OpenZeppelin/openzeppelin-contracts/blob/master/contracts/access/Ownable.sol\":940:952  _msgSender() */\n  tag_8\n    /* \"https://github.com/OpenZeppelin/openzeppelin-contracts/blob/master/contracts/access/Ownable.sol\":940:950  _msgSender */\n  shl(0x20, tag_9)\n    /* \"https://github.com/OpenZeppelin/openzeppelin-contracts/blob/master/contracts/access/Ownable.sol\":940:952  _msgSender() */\n  0x20\n  shr\n  jump\t// in\ntag_8:\n    /* \"https://github.com/OpenZeppelin/openzeppelin-contracts/blob/master/contracts/access/Ownable.sol\":921:939  _transferOwnership */\n  shl(0x20, tag_10)\n    /* \"https://github.com/OpenZeppelin/openzeppelin-contracts/blob/master/contracts/access/Ownable.sol\":921:953  _transferOwnership(_msgSender()) */\n  0x20\n  shr\n  jump\t// in\ntag_7:\n    /* \"NFTlotto.sol\":1338:1351  _paymentToken */\n  dup2\n    /* \"NFTlotto.sol\":1316:1328  paymentToken */\n  0x04\n  0x00\n    /* \"NFTlotto.sol\":1316:1352  paymentToken = IERC20(_paymentToken) */\n  0x0100\n  exp\n  dup2\n  sload\n  dup2\n  0xffffffffffffffffffffffffffffffffffffffff\n  mul\n  not\n  and\n  swap1\n  dup4\n  0xffffffffffffffffffffffffffffffffffffffff\n  and\n  mul\n  or\n  swap1\n  sstore\n  pop\n    /* \"NFTlotto.sol\":1391:1395  _NFT */\n  dup1\n    /* \"NFTlotto.sol\":1363:1370  acesNFT */\n  0x05\n  0x00\n    /* \"NFTlotto.sol\":1363:1396  acesNFT = IERC721Enumerable(_NFT) */\n  0x0100\n  exp\n  dup2\n  sload\n  dup2\n  0xffffffffffffffffffffffffffffffffffffffff\n  mul\n  not\n  and\n  swap1\n  dup4\n  0xffffffffffffffffffffffffffffffffffffffff\n  and\n  mul\n  or\n  swap1\n  sstore\n  pop\n    /* \"NFTlotto.sol\":1257:1404  constructor(address _paymentToken, address _NFT){\r... */\n  pop\n  pop\n    /* \"NFTlotto.sol\":729:5595  contract ACELotto is Ownable {   \r... */\n  jump(tag_12)\n    /* \"https://github.com/OpenZeppelin/openzeppelin-contracts/blob/master/contracts/utils/Context.sol\":640:736  function _msgSender() internal view virtual returns (address) {... */\ntag_9:\n    /* \"https://github.com/OpenZeppelin/openzeppelin-contracts/blob/master/contracts/utils/Context.sol\":693:700  address */\n  0x00\n    /* \"https://github.com/OpenZeppelin/openzeppelin-contracts/blob/master/contracts/utils/Context.sol\":719:729  msg.sender */\n  caller\n    /* \"https://github.com/OpenZeppelin/openzeppelin-contracts/blob/master/contracts/utils/Context.sol\":712:729  return msg.sender */\n  swap1\n  pop\n    /* \"https://github.com/OpenZeppelin/openzeppelin-contracts/blob/master/contracts/utils/Context.sol\":640:736  function _msgSender() internal view virtual returns (address) {... */\n  swap1\n  jump\t// out\n    /* \"https://github.com/OpenZeppelin/openzeppelin-contracts/blob/master/contracts/access/Ownable.sol\":2270:2457  function _transferOwnership(address newOwner) internal virtual {... */\ntag_10:\n    /* \"https://github.com/OpenZeppelin/openzeppelin-contracts/blob/master/contracts/access/Ownable.sol\":2343:2359  address oldOwner */\n  0x00\n    /* \"https://github.com/OpenZeppelin/openzeppelin-contracts/blob/master/contracts/access/Ownable.sol\":2362:2368  _owner */\n  dup1\n  0x00\n  swap1\n  sload\n  swap1\n  0x0100\n  exp\n  swap1\n  div\n  0xffffffffffffffffffffffffffffffffffffffff\n  and\n    /* \"https://github.com/OpenZeppelin/openzeppelin-contracts/blob/master/contracts/access/Ownable.sol\":2343:2368  address oldOwner = _owner */\n  swap1\n  pop\n    /* \"https://github.com/OpenZeppelin/openzeppelin-contracts/blob/master/contracts/access/Ownable.sol\":2387:2395  newOwner */\n  dup2\n    /* \"https://github.com/OpenZeppelin/openzeppelin-contracts/blob/master/contracts/access/Ownable.sol\":2378:2384  _owner */\n  0x00\n  dup1\n    /* \"https://github.com/OpenZeppelin/openzeppelin-contracts/blob/master/contracts/access/Ownable.sol\":2378:2395  _owner = newOwner */\n  0x0100\n  exp\n  dup2\n  sload\n  dup2\n  0xffffffffffffffffffffffffffffffffffffffff\n  mul\n  not\n  and\n  swap1\n  dup4\n  0xffffffffffffffffffffffffffffffffffffffff\n  and\n  mul\n  or\n  swap1\n  sstore\n  pop\n    /* \"https://github.com/OpenZeppelin/openzeppelin-contracts/blob/master/contracts/access/Ownable.sol\":2441:2449  newOwner */\n  dup2\n    /* \"https://github.com/OpenZeppelin/openzeppelin-contracts/blob/master/contracts/access/Ownable.sol\":2410:2450  OwnershipTransferred(oldOwner, newOwner) */\n  0xffffffffffffffffffffffffffffffffffffffff\n  and\n    /* \"https://github.com/OpenZeppelin/openzeppelin-contracts/blob/master/contracts/access/Ownable.sol\":2431:2439  oldOwner */\n  dup2\n    /* \"https://github.com/OpenZeppelin/openzeppelin-contracts/blob/master/contracts/access/Ownable.sol\":2410:2450  OwnershipTransferred(oldOwner, newOwner) */\n  0xffffffffffffffffffffffffffffffffffffffff\n  and\n  0x8be0079c531659141344cd1fd0a4f28419497f9722a3daafe3b4186f6b6457e0\n  mload(0x40)\n  mload(0x40)\n  dup1\n  swap2\n  sub\n  swap1\n  log3\n    /* \"https://github.com/OpenZeppelin/openzeppelin-contracts/blob/master/contracts/access/Ownable.sol\":2333:2457  {... */\n  pop\n    /* \"https://github.com/OpenZeppelin/openzeppelin-contracts/blob/master/contracts/access/Ownable.sol\":2270:2457  function _transferOwnership(address newOwner) internal virtual {... */\n  pop\n  jump\t// out\n    /* \"#utility.yul\":7:150   */\ntag_16:\n    /* \"#utility.yul\":64:69   */\n  0x00\n    /* \"#utility.yul\":95:101   */\n  dup2\n    /* \"#utility.yul\":89:102   */\n  mload\n    /* \"#utility.yul\":80:102   */\n  swap1\n  pop\n    /* \"#utility.yul\":111:144   */\n  tag_18\n    /* \"#utility.yul\":138:143   */\n  dup2\n    /* \"#utility.yul\":111:144   */\n  tag_19\n  jump\t// in\ntag_18:\n    /* \"#utility.yul\":7:150   */\n  swap3\n  swap2\n  pop\n  pop\n  jump\t// out\n    /* \"#utility.yul\":156:663   */\ntag_3:\n    /* \"#utility.yul\":235:241   */\n  0x00\n    /* \"#utility.yul\":243:249   */\n  dup1\n    /* \"#utility.yul\":292:294   */\n  0x40\n    /* \"#utility.yul\":280:289   */\n  dup4\n    /* \"#utility.yul\":271:278   */\n  dup6\n    /* \"#utility.yul\":267:290   */\n  sub\n    /* \"#utility.yul\":263:295   */\n  slt\n    /* \"#utility.yul\":260:379   */\n  iszero\n  tag_21\n  jumpi\n    /* \"#utility.yul\":298:377   */\n  tag_22\n  tag_23\n  jump\t// in\ntag_22:\n    /* \"#utility.yul\":260:379   */\ntag_21:\n    /* \"#utility.yul\":418:419   */\n  0x00\n    /* \"#utility.yul\":443:507   */\n  tag_24\n    /* \"#utility.yul\":499:506   */\n  dup6\n    /* \"#utility.yul\":490:496   */\n  dup3\n    /* \"#utility.yul\":479:488   */\n  dup7\n    /* \"#utility.yul\":475:497   */\n  add\n    /* \"#utility.yul\":443:507   */\n  tag_16\n  jump\t// in\ntag_24:\n    /* \"#utility.yul\":433:507   */\n  swap3\n  pop\n    /* \"#utility.yul\":389:517   */\n  pop\n    /* \"#utility.yul\":556:558   */\n  0x20\n    /* \"#utility.yul\":582:646   */\n  tag_25\n    /* \"#utility.yul\":638:645   */\n  dup6\n    /* \"#utility.yul\":629:635   */\n  dup3\n    /* \"#utility.yul\":618:627   */\n  dup7\n    /* \"#utility.yul\":614:636   */\n  add\n    /* \"#utility.yul\":582:646   */\n  tag_16\n  jump\t// in\ntag_25:\n    /* \"#utility.yul\":572:646   */\n  swap2\n  pop\n    /* \"#utility.yul\":527:656   */\n  pop\n    /* \"#utility.yul\":156:663   */\n  swap3\n  pop\n  swap3\n  swap1\n  pop\n  jump\t// out\n    /* \"#utility.yul\":750:846   */\ntag_28:\n    /* \"#utility.yul\":787:794   */\n  0x00\n    /* \"#utility.yul\":816:840   */\n  tag_30\n    /* \"#utility.yul\":834:839   */\n  dup3\n    /* \"#utility.yul\":816:840   */\n  tag_31\n  jump\t// in\ntag_30:\n    /* \"#utility.yul\":805:840   */\n  swap1\n  pop\n    /* \"#utility.yul\":750:846   */\n  swap2\n  swap1\n  pop\n  jump\t// out\n    /* \"#utility.yul\":852:978   */\ntag_31:\n    /* \"#utility.yul\":889:896   */\n  0x00\n    /* \"#utility.yul\":929:971   */\n  0xffffffffffffffffffffffffffffffffffffffff\n    /* \"#utility.yul\":922:927   */\n  dup3\n    /* \"#utility.yul\":918:972   */\n  and\n    /* \"#utility.yul\":907:972   */\n  swap1\n  pop\n    /* \"#utility.yul\":852:978   */\n  swap2\n  swap1\n  pop\n  jump\t// out\n    /* \"#utility.yul\":1107:1224   */\ntag_23:\n    /* \"#utility.yul\":1216:1217   */\n  0x00\n    /* \"#utility.yul\":1213:1214   */\n  dup1\n    /* \"#utility.yul\":1206:1218   */\n  revert\n    /* \"#utility.yul\":1230:1352   */\ntag_19:\n    /* \"#utility.yul\":1303:1327   */\n  tag_37\n    /* \"#utility.yul\":1321:1326   */\n  dup2\n    /* \"#utility.yul\":1303:1327   */\n  tag_28\n  jump\t// in\ntag_37:\n    /* \"#utility.yul\":1296:1301   */\n  dup2\n    /* \"#utility.yul\":1293:1328   */\n  eq\n    /* \"#utility.yul\":1283:1346   */\n  tag_38\n  jumpi\n    /* \"#utility.yul\":1342:1343   */\n  0x00\n    /* \"#utility.yul\":1339:1340   */\n  dup1\n    /* \"#utility.yul\":1332:1344   */\n  revert\n    /* \"#utility.yul\":1283:1346   */\ntag_38:\n    /* \"#utility.yul\":1230:1352   */\n  pop\n  jump\t// out\n    /* \"NFTlotto.sol\":729:5595  contract ACELotto is Ownable {   \r... */\ntag_12:\n  dataSize(sub_0)\n  dup1\n  dataOffset(sub_0)\n  0x00\n  codecopy\n  0x00\n  return\nstop\n\nsub_0: assembly {\n        /* \"NFTlotto.sol\":729:5595  contract ACELotto is Ownable {   \r... */\n      mstore(0x40, 0x80)\n      callvalue\n      dup1\n      iszero\n      tag_1\n      jumpi\n      0x00\n      dup1\n      revert\n    tag_1:\n      pop\n      jumpi(tag_2, lt(calldatasize, 0x04))\n      shr(0xe0, calldataload(0x00))\n      dup1\n      0x8da5cb5b\n      gt\n      tag_21\n      jumpi\n      dup1\n      0xbc15cdf0\n      gt\n      tag_22\n      jumpi\n      dup1\n      0xbc15cdf0\n      eq\n      tag_16\n      jumpi\n      dup1\n      0xf2fde38b\n      eq\n      tag_17\n      jumpi\n      dup1\n      0xf737d21d\n      eq\n      tag_18\n      jumpi\n      dup1\n      0xf80fb76d\n      eq\n      tag_19\n      jumpi\n      dup1\n      0xf9cee0bd\n      eq\n      tag_20\n      jumpi\n      jump(tag_2)\n    tag_22:\n      dup1\n      0x8da5cb5b\n      eq\n      tag_12\n      jumpi\n      dup1\n      0x9f10a990\n      eq\n      tag_13\n      jumpi\n      dup1\n      0xac128f4f\n      eq\n      tag_14\n      jumpi\n      dup1\n      0xaeb18350\n      eq\n      tag_15\n      jumpi\n      jump(tag_2)\n    tag_21:\n      dup1\n      0x3b98bc65\n      gt\n      tag_23\n      jumpi\n      dup1\n      0x3b98bc65\n      eq\n      tag_7\n      jumpi\n      dup1\n      0x454f7b8f\n      eq\n      tag_8\n      jumpi\n      dup1\n      0x6fbb5a86\n      eq\n      tag_9\n      jumpi\n      dup1\n      0x715018a6\n      eq\n      tag_10\n      jumpi\n      dup1\n      0x7ad3def2\n      eq\n      tag_11\n      jumpi\n      jump(tag_2)\n    tag_23:\n      dup1\n      0x119b22b3\n      eq\n      tag_3\n      jumpi\n      dup1\n      0x158977de\n      eq\n      tag_4\n      jumpi\n      dup1\n      0x17be85c3\n      eq\n      tag_5\n      jumpi\n      dup1\n      0x3013ce29\n      eq\n      tag_6\n      jumpi\n    tag_2:\n      0x00\n      dup1\n      revert\n        /* \"NFTlotto.sol\":773:796  uint256 public roundNum */\n    tag_3:\n      tag_24\n      tag_25\n      jump\t// in\n    tag_24:\n      mload(0x40)\n      tag_26\n      swap2\n      swap1\n      tag_27\n      jump\t// in\n    tag_26:\n      mload(0x40)\n      dup1\n      swap2\n      sub\n      swap1\n      return\n        /* \"NFTlotto.sol\":4183:4525  function getUniqueUsers() public view returns (uint256 counter) {\r... */\n    tag_4:\n      tag_28\n      tag_29\n      jump\t// in\n    tag_28:\n      mload(0x40)\n      tag_30\n      swap2\n      swap1\n      tag_27\n      jump\t// in\n    tag_30:\n      mload(0x40)\n      dup1\n      swap2\n      sub\n      swap1\n      return\n        /* \"NFTlotto.sol\":4076:4175  function getEntries() public view returns (uint256) {\r... */\n    tag_5:\n      tag_31\n      tag_32\n      jump\t// in\n    tag_31:\n      mload(0x40)\n      tag_33\n      swap2\n      swap1\n      tag_27\n      jump\t// in\n    tag_33:\n      mload(0x40)\n      dup1\n      swap2\n      sub\n      swap1\n      return\n        /* \"NFTlotto.sol\":888:914  IERC20 public paymentToken */\n    tag_6:\n      tag_34\n      tag_35\n      jump\t// in\n    tag_34:\n      mload(0x40)\n      tag_36\n      swap2\n      swap1\n      tag_37\n      jump\t// in\n    tag_36:\n      mload(0x40)\n      dup1\n      swap2\n      sub\n      swap1\n      return\n        /* \"NFTlotto.sol\":4533:5206  function getUniqueAddresses() public view returns (address [] memory addresses, uint256 [] memory entries) {\r... */\n    tag_7:\n      tag_38\n      tag_39\n      jump\t// in\n    tag_38:\n      mload(0x40)\n      tag_40\n      swap3\n      swap2\n      swap1\n      tag_41\n      jump\t// in\n    tag_40:\n      mload(0x40)\n      dup1\n      swap2\n      sub\n      swap1\n      return\n        /* \"NFTlotto.sol\":803:829  uint256 public totalPayout */\n    tag_8:\n      tag_42\n      tag_43\n      jump\t// in\n    tag_42:\n      mload(0x40)\n      tag_44\n      swap2\n      swap1\n      tag_27\n      jump\t// in\n    tag_44:\n      mload(0x40)\n      dup1\n      swap2\n      sub\n      swap1\n      return\n        /* \"NFTlotto.sol\":2822:3340  function updateWinner(uint256 winnerNum, uint256 payout) external onlyOwner {      \r... */\n    tag_9:\n      tag_45\n      0x04\n      dup1\n      calldatasize\n      sub\n      dup2\n      add\n      swap1\n      tag_46\n      swap2\n      swap1\n      tag_47\n      jump\t// in\n    tag_46:\n      tag_48\n      jump\t// in\n    tag_45:\n      stop\n        /* \"https://github.com/OpenZeppelin/openzeppelin-contracts/blob/master/contracts/access/Ownable.sol\":1668:1769  function renounceOwnership() public virtual onlyOwner {... */\n    tag_10:\n      tag_49\n      tag_50\n      jump\t// in\n    tag_49:\n      stop\n        /* \"NFTlotto.sol\":1412:1522  function updateToken(address _newToken) external onlyOwner {\r... */\n    tag_11:\n      tag_51\n      0x04\n      dup1\n      calldatasize\n      sub\n      dup2\n      add\n      swap1\n      tag_52\n      swap2\n      swap1\n      tag_53\n      jump\t// in\n    tag_52:\n      tag_54\n      jump\t// in\n    tag_51:\n      stop\n        /* \"https://github.com/OpenZeppelin/openzeppelin-contracts/blob/master/contracts/access/Ownable.sol\":1036:1121  function owner() public view virtual returns (address) {... */\n    tag_12:\n      tag_55\n      tag_56\n      jump\t// in\n    tag_55:\n      mload(0x40)\n      tag_57\n      swap2\n      swap1\n      tag_58\n      jump\t// in\n    tag_57:\n      mload(0x40)\n      dup1\n      swap2\n      sub\n      swap1\n      return\n        /* \"NFTlotto.sol\":3350:3470  function userEntries(address account) public view returns (uint256) {\r... */\n    tag_13:\n      tag_59\n      0x04\n      dup1\n      calldatasize\n      sub\n      dup2\n      add\n      swap1\n      tag_60\n      swap2\n      swap1\n      tag_53\n      jump\t// in\n    tag_60:\n      tag_61\n      jump\t// in\n    tag_59:\n      mload(0x40)\n      tag_62\n      swap2\n      swap1\n      tag_27\n      jump\t// in\n    tag_62:\n      mload(0x40)\n      dup1\n      swap2\n      sub\n      swap1\n      return\n        /* \"NFTlotto.sol\":1144:1191  mapping(uint256 => Results) public roundResults */\n    tag_14:\n      tag_63\n      0x04\n      dup1\n      calldatasize\n      sub\n      dup2\n      add\n      swap1\n      tag_64\n      swap2\n      swap1\n      tag_65\n      jump\t// in\n    tag_64:\n      tag_66\n      jump\t// in\n    tag_63:\n      mload(0x40)\n      tag_67\n      swap6\n      swap5\n      swap4\n      swap3\n      swap2\n      swap1\n      tag_68\n      jump\t// in\n    tag_67:\n      mload(0x40)\n      dup1\n      swap2\n      sub\n      swap1\n      return\n        /* \"NFTlotto.sol\":921:953  IERC721Enumerable public acesNFT */\n    tag_15:\n      tag_69\n      tag_70\n      jump\t// in\n    tag_69:\n      mload(0x40)\n      tag_71\n      swap2\n      swap1\n      tag_72\n      jump\t// in\n    tag_71:\n      mload(0x40)\n      dup1\n      swap2\n      sub\n      swap1\n      return\n        /* \"NFTlotto.sol\":3478:4068  function resultLog(uint256 startIndex, uint256 endIndex) external view returns(Results [] memory log){\r... */\n    tag_16:\n      tag_73\n      0x04\n      dup1\n      calldatasize\n      sub\n      dup2\n      add\n      swap1\n      tag_74\n      swap2\n      swap1\n      tag_47\n      jump\t// in\n    tag_74:\n      tag_75\n      jump\t// in\n    tag_73:\n      mload(0x40)\n      tag_76\n      swap2\n      swap1\n      tag_77\n      jump\t// in\n    tag_76:\n      mload(0x40)\n      dup1\n      swap2\n      sub\n      swap1\n      return\n        /* \"https://github.com/OpenZeppelin/openzeppelin-contracts/blob/master/contracts/access/Ownable.sol\":1918:2116  function transferOwnership(address newOwner) public virtual onlyOwner {... */\n    tag_17:\n      tag_78\n      0x04\n      dup1\n      calldatasize\n      sub\n      dup2\n      add\n      swap1\n      tag_79\n      swap2\n      swap1\n      tag_53\n      jump\t// in\n    tag_79:\n      tag_80\n      jump\t// in\n    tag_78:\n      stop\n        /* \"NFTlotto.sol\":2544:2814  function pickWinner(uint256 seed) external view returns(uint256 winnerNum, address winnerAddress) {\r... */\n    tag_18:\n      tag_81\n      0x04\n      dup1\n      calldatasize\n      sub\n      dup2\n      add\n      swap1\n      tag_82\n      swap2\n      swap1\n      tag_65\n      jump\t// in\n    tag_82:\n      tag_83\n      jump\t// in\n    tag_81:\n      mload(0x40)\n      tag_84\n      swap3\n      swap2\n      swap1\n      tag_85\n      jump\t// in\n    tag_84:\n      mload(0x40)\n      dup1\n      swap2\n      sub\n      swap1\n      return\n        /* \"NFTlotto.sol\":1530:1640  function updateJackpot(uint256 _newJackpot) external onlyOwner {\r... */\n    tag_19:\n      tag_86\n      0x04\n      dup1\n      calldatasize\n      sub\n      dup2\n      add\n      swap1\n      tag_87\n      swap2\n      swap1\n      tag_65\n      jump\t// in\n    tag_87:\n      tag_88\n      jump\t// in\n    tag_86:\n      stop\n        /* \"NFTlotto.sol\":836:875  uint256 public currentJackpot = 1 ether */\n    tag_20:\n      tag_89\n      tag_90\n      jump\t// in\n    tag_89:\n      mload(0x40)\n      tag_91\n      swap2\n      swap1\n      tag_27\n      jump\t// in\n    tag_91:\n      mload(0x40)\n      dup1\n      swap2\n      sub\n      swap1\n      return\n        /* \"NFTlotto.sol\":773:796  uint256 public roundNum */\n    tag_25:\n      sload(0x01)\n      dup2\n      jump\t// out\n        /* \"NFTlotto.sol\":4183:4525  function getUniqueUsers() public view returns (uint256 counter) {\r... */\n    tag_29:\n        /* \"NFTlotto.sol\":4230:4245  uint256 counter */\n      0x00\n        /* \"NFTlotto.sol\":4258:4278  uint256 roundEntries */\n      dup1\n        /* \"NFTlotto.sol\":4281:4288  acesNFT */\n      0x05\n      0x00\n      swap1\n      sload\n      swap1\n      0x0100\n      exp\n      swap1\n      div\n      0xffffffffffffffffffffffffffffffffffffffff\n      and\n        /* \"NFTlotto.sol\":4281:4300  acesNFT.totalSupply */\n      0xffffffffffffffffffffffffffffffffffffffff\n      and\n      0x18160ddd\n        /* \"NFTlotto.sol\":4281:4302  acesNFT.totalSupply() */\n      mload(0x40)\n      dup2\n      0xffffffff\n      and\n      0xe0\n      shl\n      dup2\n      mstore\n      0x04\n      add\n      0x20\n      mload(0x40)\n      dup1\n      dup4\n      sub\n      dup2\n      dup7\n      dup1\n      extcodesize\n      iszero\n      dup1\n      iszero\n      tag_93\n      jumpi\n      0x00\n      dup1\n      revert\n    tag_93:\n      pop\n      gas\n      staticcall\n      iszero\n      dup1\n      iszero\n      tag_95\n      jumpi\n      returndatasize\n      0x00\n      dup1\n      returndatacopy\n      revert(0x00, returndatasize)\n    tag_95:\n      pop\n      pop\n      pop\n      pop\n      mload(0x40)\n      returndatasize\n      not(0x1f)\n      0x1f\n      dup3\n      add\n      and\n      dup3\n      add\n      dup1\n      0x40\n      mstore\n      pop\n      dup2\n      add\n      swap1\n      tag_96\n      swap2\n      swap1\n      tag_97\n      jump\t// in\n    tag_96:\n        /* \"NFTlotto.sol\":4258:4302  uint256 roundEntries = acesNFT.totalSupply() */\n      swap1\n      pop\n        /* \"NFTlotto.sol\":4319:4328  uint256 i */\n      0x00\n        /* \"NFTlotto.sol\":4329:4330  1 */\n      0x01\n        /* \"NFTlotto.sol\":4319:4330  uint256 i=1 */\n      swap1\n      pop\n        /* \"NFTlotto.sol\":4315:4518  for(uint256 i=1; i <= roundEntries; i++){\r... */\n    tag_98:\n        /* \"NFTlotto.sol\":4337:4349  roundEntries */\n      dup2\n        /* \"NFTlotto.sol\":4332:4333  i */\n      dup2\n        /* \"NFTlotto.sol\":4332:4349  i <= roundEntries */\n      gt\n        /* \"NFTlotto.sol\":4315:4518  for(uint256 i=1; i <= roundEntries; i++){\r... */\n      tag_99\n      jumpi\n        /* \"NFTlotto.sol\":4370:4382  address user */\n      0x00\n        /* \"NFTlotto.sol\":4385:4392  acesNFT */\n      0x05\n      0x00\n      swap1\n      sload\n      swap1\n      0x0100\n      exp\n      swap1\n      div\n      0xffffffffffffffffffffffffffffffffffffffff\n      and\n        /* \"NFTlotto.sol\":4385:4400  acesNFT.ownerOf */\n      0xffffffffffffffffffffffffffffffffffffffff\n      and\n      0x6352211e\n        /* \"NFTlotto.sol\":4401:4402  i */\n      dup4\n        /* \"NFTlotto.sol\":4385:4403  acesNFT.ownerOf(i) */\n      mload(0x40)\n      dup3\n      0xffffffff\n      and\n      0xe0\n      shl\n      dup2\n      mstore\n      0x04\n      add\n      tag_101\n      swap2\n      swap1\n      tag_27\n      jump\t// in\n    tag_101:\n      0x20\n      mload(0x40)\n      dup1\n      dup4\n      sub\n      dup2\n      dup7\n      dup1\n      extcodesize\n      iszero\n      dup1\n      iszero\n      tag_102\n      jumpi\n      0x00\n      dup1\n      revert\n    tag_102:\n      pop\n      gas\n      staticcall\n      iszero\n      dup1\n      iszero\n      tag_104\n      jumpi\n      returndatasize\n      0x00\n      dup1\n      returndatacopy\n      revert(0x00, returndatasize)\n    tag_104:\n      pop\n      pop\n      pop\n      pop\n      mload(0x40)\n      returndatasize\n      not(0x1f)\n      0x1f\n      dup3\n      add\n      and\n      dup3\n      add\n      dup1\n      0x40\n      mstore\n      pop\n      dup2\n      add\n      swap1\n      tag_105\n      swap2\n      swap1\n      tag_106\n      jump\t// in\n    tag_105:\n        /* \"NFTlotto.sol\":4370:4403  address user = acesNFT.ownerOf(i) */\n      swap1\n      pop\n        /* \"NFTlotto.sol\":4426:4433  acesNFT */\n      0x05\n      0x00\n      swap1\n      sload\n      swap1\n      0x0100\n      exp\n      swap1\n      div\n      0xffffffffffffffffffffffffffffffffffffffff\n      and\n        /* \"NFTlotto.sol\":4426:4453  acesNFT.tokenOfOwnerByIndex */\n      0xffffffffffffffffffffffffffffffffffffffff\n      and\n      0x2f745c59\n        /* \"NFTlotto.sol\":4454:4458  user */\n      dup3\n        /* \"NFTlotto.sol\":4460:4461  0 */\n      0x00\n        /* \"NFTlotto.sol\":4426:4462  acesNFT.tokenOfOwnerByIndex(user, 0) */\n      mload(0x40)\n      dup4\n      0xffffffff\n      and\n      0xe0\n      shl\n      dup2\n      mstore\n      0x04\n      add\n      tag_107\n      swap3\n      swap2\n      swap1\n      tag_108\n      jump\t// in\n    tag_107:\n      0x20\n      mload(0x40)\n      dup1\n      dup4\n      sub\n      dup2\n      dup7\n      dup1\n      extcodesize\n      iszero\n      dup1\n      iszero\n      tag_109\n      jumpi\n      0x00\n      dup1\n      revert\n    tag_109:\n      pop\n      gas\n      staticcall\n      iszero\n      dup1\n      iszero\n      tag_111\n      jumpi\n      returndatasize\n      0x00\n      dup1\n      returndatacopy\n      revert(0x00, returndatasize)\n    tag_111:\n      pop\n      pop\n      pop\n      pop\n      mload(0x40)\n      returndatasize\n      not(0x1f)\n      0x1f\n      dup3\n      add\n      and\n      dup3\n      add\n      dup1\n      0x40\n      mstore\n      pop\n      dup2\n      add\n      swap1\n      tag_112\n      swap2\n      swap1\n      tag_97\n      jump\t// in\n    tag_112:\n        /* \"NFTlotto.sol\":4421:4422  i */\n      dup3\n        /* \"NFTlotto.sol\":4421:4462  i == acesNFT.tokenOfOwnerByIndex(user, 0) */\n      eq\n        /* \"NFTlotto.sol\":4418:4507  if(i == acesNFT.tokenOfOwnerByIndex(user, 0)){\r... */\n      iszero\n      tag_113\n      jumpi\n        /* \"NFTlotto.sol\":4482:4491  counter++ */\n      dup4\n      dup1\n      tag_114\n      swap1\n      tag_115\n      jump\t// in\n    tag_114:\n      swap5\n      pop\n      pop\n        /* \"NFTlotto.sol\":4418:4507  if(i == acesNFT.tokenOfOwnerByIndex(user, 0)){\r... */\n    tag_113:\n        /* \"NFTlotto.sol\":4355:4518  {\r... */\n      pop\n        /* \"NFTlotto.sol\":4351:4354  i++ */\n      dup1\n      dup1\n      tag_116\n      swap1\n      tag_115\n      jump\t// in\n    tag_116:\n      swap2\n      pop\n      pop\n        /* \"NFTlotto.sol\":4315:4518  for(uint256 i=1; i <= roundEntries; i++){\r... */\n      jump(tag_98)\n    tag_99:\n      pop\n        /* \"NFTlotto.sol\":4247:4525  {\r... */\n      pop\n        /* \"NFTlotto.sol\":4183:4525  function getUniqueUsers() public view returns (uint256 counter) {\r... */\n      swap1\n      jump\t// out\n        /* \"NFTlotto.sol\":4076:4175  function getEntries() public view returns (uint256) {\r... */\n    tag_32:\n        /* \"NFTlotto.sol\":4119:4126  uint256 */\n      0x00\n        /* \"NFTlotto.sol\":4146:4153  acesNFT */\n      0x05\n      0x00\n      swap1\n      sload\n      swap1\n      0x0100\n      exp\n      swap1\n      div\n      0xffffffffffffffffffffffffffffffffffffffff\n      and\n        /* \"NFTlotto.sol\":4146:4165  acesNFT.totalSupply */\n      0xffffffffffffffffffffffffffffffffffffffff\n      and\n      0x18160ddd\n        /* \"NFTlotto.sol\":4146:4167  acesNFT.totalSupply() */\n      mload(0x40)\n      dup2\n      0xffffffff\n      and\n      0xe0\n      shl\n      dup2\n      mstore\n      0x04\n      add\n      0x20\n      mload(0x40)\n      dup1\n      dup4\n      sub\n      dup2\n      dup7\n      dup1\n      extcodesize\n      iszero\n      dup1\n      iszero\n      tag_118\n      jumpi\n      0x00\n      dup1\n      revert\n    tag_118:\n      pop\n      gas\n      staticcall\n      iszero\n      dup1\n      iszero\n      tag_120\n      jumpi\n      returndatasize\n      0x00\n      dup1\n      returndatacopy\n      revert(0x00, returndatasize)\n    tag_120:\n      pop\n      pop\n      pop\n      pop\n      mload(0x40)\n      returndatasize\n      not(0x1f)\n      0x1f\n      dup3\n      add\n      and\n      dup3\n      add\n      dup1\n      0x40\n      mstore\n      pop\n      dup2\n      add\n      swap1\n      tag_121\n      swap2\n      swap1\n      tag_97\n      jump\t// in\n    tag_121:\n        /* \"NFTlotto.sol\":4139:4167  return acesNFT.totalSupply() */\n      swap1\n      pop\n        /* \"NFTlotto.sol\":4076:4175  function getEntries() public view returns (uint256) {\r... */\n      swap1\n      jump\t// out\n        /* \"NFTlotto.sol\":888:914  IERC20 public paymentToken */\n    tag_35:\n      0x04\n      0x00\n      swap1\n      sload\n      swap1\n      0x0100\n      exp\n      swap1\n      div\n      0xffffffffffffffffffffffffffffffffffffffff\n      and\n      dup2\n      jump\t// out\n        /* \"NFTlotto.sol\":4533:5206  function getUniqueAddresses() public view returns (address [] memory addresses, uint256 [] memory entries) {\r... */\n    tag_39:\n        /* \"NFTlotto.sol\":4584:4611  address [] memory addresses */\n      0x60\n        /* \"NFTlotto.sol\":4613:4638  uint256 [] memory entries */\n      dup1\n        /* \"NFTlotto.sol\":4651:4671  uint256 roundEntries */\n      0x00\n        /* \"NFTlotto.sol\":4674:4681  acesNFT */\n      0x05\n      0x00\n      swap1\n      sload\n      swap1\n      0x0100\n      exp\n      swap1\n      div\n      0xffffffffffffffffffffffffffffffffffffffff\n      and\n        /* \"NFTlotto.sol\":4674:4693  acesNFT.totalSupply */\n      0xffffffffffffffffffffffffffffffffffffffff\n      and\n      0x18160ddd\n        /* \"NFTlotto.sol\":4674:4695  acesNFT.totalSupply() */\n      mload(0x40)\n      dup2\n      0xffffffff\n      and\n      0xe0\n      shl\n      dup2\n      mstore\n      0x04\n      add\n      0x20\n      mload(0x40)\n      dup1\n      dup4\n      sub\n      dup2\n      dup7\n      dup1\n      extcodesize\n      iszero\n      dup1\n      iszero\n      tag_123\n      jumpi\n      0x00\n      dup1\n      revert\n    tag_123:\n      pop\n      gas\n      staticcall\n      iszero\n      dup1\n      iszero\n      tag_125\n      jumpi\n      returndatasize\n      0x00\n      dup1\n      returndatacopy\n      revert(0x00, returndatasize)\n    tag_125:\n      pop\n      pop\n      pop\n      pop\n      mload(0x40)\n      returndatasize\n      not(0x1f)\n      0x1f\n      dup3\n      add\n      and\n      dup3\n      add\n      dup1\n      0x40\n      mstore\n      pop\n      dup2\n      add\n      swap1\n      tag_126\n      swap2\n      swap1\n      tag_97\n      jump\t// in\n    tag_126:\n        /* \"NFTlotto.sol\":4651:4695  uint256 roundEntries = acesNFT.totalSupply() */\n      swap1\n      pop\n        /* \"NFTlotto.sol\":4706:4725  uint256 arrayLength */\n      0x00\n        /* \"NFTlotto.sol\":4728:4744  getUniqueUsers() */\n      tag_127\n        /* \"NFTlotto.sol\":4728:4742  getUniqueUsers */\n      tag_29\n        /* \"NFTlotto.sol\":4728:4744  getUniqueUsers() */\n      jump\t// in\n    tag_127:\n        /* \"NFTlotto.sol\":4706:4744  uint256 arrayLength = getUniqueUsers() */\n      swap1\n      pop\n        /* \"NFTlotto.sol\":4781:4792  arrayLength */\n      dup1\n        /* \"NFTlotto.sol\":4767:4793  new address[](arrayLength) */\n      0xffffffffffffffff\n      dup2\n      gt\n      iszero\n      tag_128\n      jumpi\n      tag_129\n      tag_130\n      jump\t// in\n    tag_129:\n    tag_128:\n      mload(0x40)\n      swap1\n      dup1\n      dup3\n      mstore\n      dup1\n      0x20\n      mul\n      0x20\n      add\n      dup3\n      add\n      0x40\n      mstore\n      dup1\n      iszero\n      tag_131\n      jumpi\n      dup2\n      0x20\n      add\n      0x20\n      dup3\n      mul\n      dup1\n      calldatasize\n      dup4\n      calldatacopy\n      dup1\n      dup3\n      add\n      swap2\n      pop\n      pop\n      swap1\n      pop\n    tag_131:\n      pop\n        /* \"NFTlotto.sol\":4755:4793  addresses = new address[](arrayLength) */\n      swap4\n      pop\n        /* \"NFTlotto.sol\":4828:4839  arrayLength */\n      dup1\n        /* \"NFTlotto.sol\":4814:4840  new uint256[](arrayLength) */\n      0xffffffffffffffff\n      dup2\n      gt\n      iszero\n      tag_132\n      jumpi\n      tag_133\n      tag_130\n      jump\t// in\n    tag_133:\n    tag_132:\n      mload(0x40)\n      swap1\n      dup1\n      dup3\n      mstore\n      dup1\n      0x20\n      mul\n      0x20\n      add\n      dup3\n      add\n      0x40\n      mstore\n      dup1\n      iszero\n      tag_134\n      jumpi\n      dup2\n      0x20\n      add\n      0x20\n      dup3\n      mul\n      dup1\n      calldatasize\n      dup4\n      calldatacopy\n      dup1\n      dup3\n      add\n      swap2\n      pop\n      pop\n      swap1\n      pop\n    tag_134:\n      pop\n        /* \"NFTlotto.sol\":4804:4840  entries = new uint256[](arrayLength) */\n      swap3\n      pop\n        /* \"NFTlotto.sol\":4851:4871  uint256 currentIndex */\n      0x00\n        /* \"NFTlotto.sol\":4886:4895  uint256 i */\n      dup1\n        /* \"NFTlotto.sol\":4896:4897  1 */\n      0x01\n        /* \"NFTlotto.sol\":4886:4897  uint256 i=1 */\n      swap1\n      pop\n        /* \"NFTlotto.sol\":4882:5199  for(uint256 i=1; i <= roundEntries; i++){\r... */\n    tag_135:\n        /* \"NFTlotto.sol\":4904:4916  roundEntries */\n      dup4\n        /* \"NFTlotto.sol\":4899:4900  i */\n      dup2\n        /* \"NFTlotto.sol\":4899:4916  i <= roundEntries */\n      gt\n        /* \"NFTlotto.sol\":4882:5199  for(uint256 i=1; i <= roundEntries; i++){\r... */\n      tag_136\n      jumpi\n        /* \"NFTlotto.sol\":4937:4949  address user */\n      0x00\n        /* \"NFTlotto.sol\":4952:4959  acesNFT */\n      0x05\n      0x00\n      swap1\n      sload\n      swap1\n      0x0100\n      exp\n      swap1\n      div\n      0xffffffffffffffffffffffffffffffffffffffff\n      and\n        /* \"NFTlotto.sol\":4952:4967  acesNFT.ownerOf */\n      0xffffffffffffffffffffffffffffffffffffffff\n      and\n      0x6352211e\n        /* \"NFTlotto.sol\":4968:4969  i */\n      dup4\n        /* \"NFTlotto.sol\":4952:4970  acesNFT.ownerOf(i) */\n      mload(0x40)\n      dup3\n      0xffffffff\n      and\n      0xe0\n      shl\n      dup2\n      mstore\n      0x04\n      add\n      tag_138\n      swap2\n      swap1\n      tag_27\n      jump\t// in\n    tag_138:\n      0x20\n      mload(0x40)\n      dup1\n      dup4\n      sub\n      dup2\n      dup7\n      dup1\n      extcodesize\n      iszero\n      dup1\n      iszero\n      tag_139\n      jumpi\n      0x00\n      dup1\n      revert\n    tag_139:\n      pop\n      gas\n      staticcall\n      iszero\n      dup1\n      iszero\n      tag_141\n      jumpi\n      returndatasize\n      0x00\n      dup1\n      returndatacopy\n      revert(0x00, returndatasize)\n    tag_141:\n      pop\n      pop\n      pop\n      pop\n      mload(0x40)\n      returndatasize\n      not(0x1f)\n      0x1f\n      dup3\n      add\n      and\n      dup3\n      add\n      dup1\n      0x40\n      mstore\n      pop\n      dup2\n      add\n      swap1\n      tag_142\n      swap2\n      swap1\n      tag_106\n      jump\t// in\n    tag_142:\n        /* \"NFTlotto.sol\":4937:4970  address user = acesNFT.ownerOf(i) */\n      swap1\n      pop\n        /* \"NFTlotto.sol\":4993:5000  acesNFT */\n      0x05\n      0x00\n      swap1\n      sload\n      swap1\n      0x0100\n      exp\n      swap1\n      div\n      0xffffffffffffffffffffffffffffffffffffffff\n      and\n        /* \"NFTlotto.sol\":4993:5020  acesNFT.tokenOfOwnerByIndex */\n      0xffffffffffffffffffffffffffffffffffffffff\n      and\n      0x2f745c59\n        /* \"NFTlotto.sol\":5021:5025  user */\n      dup3\n        /* \"NFTlotto.sol\":5027:5028  0 */\n      0x00\n        /* \"NFTlotto.sol\":4993:5029  acesNFT.tokenOfOwnerByIndex(user, 0) */\n      mload(0x40)\n      dup4\n      0xffffffff\n      and\n      0xe0\n      shl\n      dup2\n      mstore\n      0x04\n      add\n      tag_143\n      swap3\n      swap2\n      swap1\n      tag_108\n      jump\t// in\n    tag_143:\n      0x20\n      mload(0x40)\n      dup1\n      dup4\n      sub\n      dup2\n      dup7\n      dup1\n      extcodesize\n      iszero\n      dup1\n      iszero\n      tag_144\n      jumpi\n      0x00\n      dup1\n      revert\n    tag_144:\n      pop\n      gas\n      staticcall\n      iszero\n      dup1\n      iszero\n      tag_146\n      jumpi\n      returndatasize\n      0x00\n      dup1\n      returndatacopy\n      revert(0x00, returndatasize)\n    tag_146:\n      pop\n      pop\n      pop\n      pop\n      mload(0x40)\n      returndatasize\n      not(0x1f)\n      0x1f\n      dup3\n      add\n      and\n      dup3\n      add\n      dup1\n      0x40\n      mstore\n      pop\n      dup2\n      add\n      swap1\n      tag_147\n      swap2\n      swap1\n      tag_97\n      jump\t// in\n    tag_147:\n        /* \"NFTlotto.sol\":4988:4989  i */\n      dup3\n        /* \"NFTlotto.sol\":4988:5029  i == acesNFT.tokenOfOwnerByIndex(user, 0) */\n      eq\n        /* \"NFTlotto.sol\":4985:5188  if(i == acesNFT.tokenOfOwnerByIndex(user, 0)){\r... */\n      iszero\n      tag_148\n      jumpi\n        /* \"NFTlotto.sol\":5075:5079  user */\n      dup1\n        /* \"NFTlotto.sol\":5049:5058  addresses */\n      dup8\n        /* \"NFTlotto.sol\":5059:5071  currentIndex */\n      dup5\n        /* \"NFTlotto.sol\":5049:5072  addresses[currentIndex] */\n      dup2\n      mload\n      dup2\n      lt\n      tag_149\n      jumpi\n      tag_150\n      tag_151\n      jump\t// in\n    tag_150:\n    tag_149:\n      0x20\n      mul\n      0x20\n      add\n      add\n        /* \"NFTlotto.sol\":5049:5079  addresses[currentIndex] = user */\n      swap1\n      0xffffffffffffffffffffffffffffffffffffffff\n      and\n      swap1\n      dup2\n      0xffffffffffffffffffffffffffffffffffffffff\n      and\n      dup2\n      mstore\n      pop\n      pop\n        /* \"NFTlotto.sol\":5122:5139  userEntries(user) */\n      tag_152\n        /* \"NFTlotto.sol\":5134:5138  user */\n      dup2\n        /* \"NFTlotto.sol\":5122:5133  userEntries */\n      tag_61\n        /* \"NFTlotto.sol\":5122:5139  userEntries(user) */\n      jump\t// in\n    tag_152:\n        /* \"NFTlotto.sol\":5098:5105  entries */\n      dup7\n        /* \"NFTlotto.sol\":5106:5118  currentIndex */\n      dup5\n        /* \"NFTlotto.sol\":5098:5119  entries[currentIndex] */\n      dup2\n      mload\n      dup2\n      lt\n      tag_153\n      jumpi\n      tag_154\n      tag_151\n      jump\t// in\n    tag_154:\n    tag_153:\n      0x20\n      mul\n      0x20\n      add\n      add\n        /* \"NFTlotto.sol\":5098:5139  entries[currentIndex] = userEntries(user) */\n      dup2\n      dup2\n      mstore\n      pop\n      pop\n        /* \"NFTlotto.sol\":5158:5172  currentIndex++ */\n      dup3\n      dup1\n      tag_155\n      swap1\n      tag_115\n      jump\t// in\n    tag_155:\n      swap4\n      pop\n      pop\n        /* \"NFTlotto.sol\":4985:5188  if(i == acesNFT.tokenOfOwnerByIndex(user, 0)){\r... */\n    tag_148:\n        /* \"NFTlotto.sol\":4922:5199  {\r... */\n      pop\n        /* \"NFTlotto.sol\":4918:4921  i++ */\n      dup1\n      dup1\n      tag_156\n      swap1\n      tag_115\n      jump\t// in\n    tag_156:\n      swap2\n      pop\n      pop\n        /* \"NFTlotto.sol\":4882:5199  for(uint256 i=1; i <= roundEntries; i++){\r... */\n      jump(tag_135)\n    tag_136:\n      pop\n        /* \"NFTlotto.sol\":4640:5206  {\r... */\n      pop\n      pop\n      pop\n        /* \"NFTlotto.sol\":4533:5206  function getUniqueAddresses() public view returns (address [] memory addresses, uint256 [] memory entries) {\r... */\n      swap1\n      swap2\n      jump\t// out\n        /* \"NFTlotto.sol\":803:829  uint256 public totalPayout */\n    tag_43:\n      sload(0x02)\n      dup2\n      jump\t// out\n        /* \"NFTlotto.sol\":2822:3340  function updateWinner(uint256 winnerNum, uint256 payout) external onlyOwner {      \r... */\n    tag_48:\n        /* \"https://github.com/OpenZeppelin/openzeppelin-contracts/blob/master/contracts/access/Ownable.sol\":1259:1271  _msgSender() */\n      tag_158\n        /* \"https://github.com/OpenZeppelin/openzeppelin-contracts/blob/master/contracts/access/Ownable.sol\":1259:1269  _msgSender */\n      tag_159\n        /* \"https://github.com/OpenZeppelin/openzeppelin-contracts/blob/master/contracts/access/Ownable.sol\":1259:1271  _msgSender() */\n      jump\t// in\n    tag_158:\n        /* \"https://github.com/OpenZeppelin/openzeppelin-contracts/blob/master/contracts/access/Ownable.sol\":1248:1271  owner() == _msgSender() */\n      0xffffffffffffffffffffffffffffffffffffffff\n      and\n        /* \"https://github.com/OpenZeppelin/openzeppelin-contracts/blob/master/contracts/access/Ownable.sol\":1248:1255  owner() */\n      tag_160\n        /* \"https://github.com/OpenZeppelin/openzeppelin-contracts/blob/master/contracts/access/Ownable.sol\":1248:1253  owner */\n      tag_56\n        /* \"https://github.com/OpenZeppelin/openzeppelin-contracts/blob/master/contracts/access/Ownable.sol\":1248:1255  owner() */\n      jump\t// in\n    tag_160:\n        /* \"https://github.com/OpenZeppelin/openzeppelin-contracts/blob/master/contracts/access/Ownable.sol\":1248:1271  owner() == _msgSender() */\n      0xffffffffffffffffffffffffffffffffffffffff\n      and\n      eq\n        /* \"https://github.com/OpenZeppelin/openzeppelin-contracts/blob/master/contracts/access/Ownable.sol\":1240:1308  require(owner() == _msgSender(), \"Ownable: caller is not the owner\") */\n      tag_161\n      jumpi\n      mload(0x40)\n      0x08c379a000000000000000000000000000000000000000000000000000000000\n      dup2\n      mstore\n      0x04\n      add\n      tag_162\n      swap1\n      tag_163\n      jump\t// in\n    tag_162:\n      mload(0x40)\n      dup1\n      swap2\n      sub\n      swap1\n      revert\n    tag_161:\n        /* \"NFTlotto.sol\":2915:2936  address winnerAddress */\n      0x00\n        /* \"NFTlotto.sol\":2939:2946  acesNFT */\n      0x05\n      0x00\n      swap1\n      sload\n      swap1\n      0x0100\n      exp\n      swap1\n      div\n      0xffffffffffffffffffffffffffffffffffffffff\n      and\n        /* \"NFTlotto.sol\":2939:2954  acesNFT.ownerOf */\n      0xffffffffffffffffffffffffffffffffffffffff\n      and\n      0x6352211e\n        /* \"NFTlotto.sol\":2955:2964  winnerNum */\n      dup5\n        /* \"NFTlotto.sol\":2939:2965  acesNFT.ownerOf(winnerNum) */\n      mload(0x40)\n      dup3\n      0xffffffff\n      and\n      0xe0\n      shl\n      dup2\n      mstore\n      0x04\n      add\n      tag_165\n      swap2\n      swap1\n      tag_27\n      jump\t// in\n    tag_165:\n      0x20\n      mload(0x40)\n      dup1\n      dup4\n      sub\n      dup2\n      dup7\n      dup1\n      extcodesize\n      iszero\n      dup1\n      iszero\n      tag_166\n      jumpi\n      0x00\n      dup1\n      revert\n    tag_166:\n      pop\n      gas\n      staticcall\n      iszero\n      dup1\n      iszero\n      tag_168\n      jumpi\n      returndatasize\n      0x00\n      dup1\n      returndatacopy\n      revert(0x00, returndatasize)\n    tag_168:\n      pop\n      pop\n      pop\n      pop\n      mload(0x40)\n      returndatasize\n      not(0x1f)\n      0x1f\n      dup3\n      add\n      and\n      dup3\n      add\n      dup1\n      0x40\n      mstore\n      pop\n      dup2\n      add\n      swap1\n      tag_169\n      swap2\n      swap1\n      tag_106\n      jump\t// in\n    tag_169:\n        /* \"NFTlotto.sol\":2915:2965  address winnerAddress = acesNFT.ownerOf(winnerNum) */\n      swap1\n      pop\n        /* \"NFTlotto.sol\":3003:3226  Results ({\r... */\n      mload(0x40)\n      dup1\n      0xa0\n      add\n      0x40\n      mstore\n      dup1\n        /* \"NFTlotto.sol\":3041:3048  acesNFT */\n      0x05\n      0x00\n      swap1\n      sload\n      swap1\n      0x0100\n      exp\n      swap1\n      div\n      0xffffffffffffffffffffffffffffffffffffffff\n      and\n        /* \"NFTlotto.sol\":3041:3060  acesNFT.totalSupply */\n      0xffffffffffffffffffffffffffffffffffffffff\n      and\n      0x18160ddd\n        /* \"NFTlotto.sol\":3041:3062  acesNFT.totalSupply() */\n      mload(0x40)\n      dup2\n      0xffffffff\n      and\n      0xe0\n      shl\n      dup2\n      mstore\n      0x04\n      add\n      0x20\n      mload(0x40)\n      dup1\n      dup4\n      sub\n      dup2\n      dup7\n      dup1\n      extcodesize\n      iszero\n      dup1\n      iszero\n      tag_170\n      jumpi\n      0x00\n      dup1\n      revert\n    tag_170:\n      pop\n      gas\n      staticcall\n      iszero\n      dup1\n      iszero\n      tag_172\n      jumpi\n      returndatasize\n      0x00\n      dup1\n      returndatacopy\n      revert(0x00, returndatasize)\n    tag_172:\n      pop\n      pop\n      pop\n      pop\n      mload(0x40)\n      returndatasize\n      not(0x1f)\n      0x1f\n      dup3\n      add\n      and\n      dup3\n      add\n      dup1\n      0x40\n      mstore\n      pop\n      dup2\n      add\n      swap1\n      tag_173\n      swap2\n      swap1\n      tag_97\n      jump\t// in\n    tag_173:\n        /* \"NFTlotto.sol\":3003:3226  Results ({\r... */\n      dup2\n      mstore\n      0x20\n      add\n        /* \"NFTlotto.sol\":3092:3101  winnerNum */\n      dup5\n        /* \"NFTlotto.sol\":3003:3226  Results ({\r... */\n      dup2\n      mstore\n      0x20\n      add\n        /* \"NFTlotto.sol\":3124:3130  payout */\n      dup4\n        /* \"NFTlotto.sol\":3003:3226  Results ({\r... */\n      dup2\n      mstore\n      0x20\n      add\n        /* \"NFTlotto.sol\":3154:3169  block.timestamp */\n      timestamp\n        /* \"NFTlotto.sol\":3003:3226  Results ({\r... */\n      dup2\n      mstore\n      0x20\n      add\n        /* \"NFTlotto.sol\":3200:3213  winnerAddress */\n      dup3\n        /* \"NFTlotto.sol\":3003:3226  Results ({\r... */\n      0xffffffffffffffffffffffffffffffffffffffff\n      and\n      dup2\n      mstore\n      pop\n        /* \"NFTlotto.sol\":2978:2990  roundResults */\n      0x06\n        /* \"NFTlotto.sol\":2978:3000  roundResults[roundNum] */\n      0x00\n        /* \"NFTlotto.sol\":2991:2999  roundNum */\n      sload(0x01)\n        /* \"NFTlotto.sol\":2978:3000  roundResults[roundNum] */\n      dup2\n      mstore\n      0x20\n      add\n      swap1\n      dup2\n      mstore\n      0x20\n      add\n      0x00\n      keccak256\n        /* \"NFTlotto.sol\":2978:3226  roundResults[roundNum] = Results ({\r... */\n      0x00\n      dup3\n      add\n      mload\n      dup2\n      0x00\n      add\n      sstore\n      0x20\n      dup3\n      add\n      mload\n      dup2\n      0x01\n      add\n      sstore\n      0x40\n      dup3\n      add\n      mload\n      dup2\n      0x02\n      add\n      sstore\n      0x60\n      dup3\n      add\n      mload\n      dup2\n      0x03\n      add\n      sstore\n      0x80\n      dup3\n      add\n      mload\n      dup2\n      0x04\n      add\n      exp(0x0100, 0x00)\n      dup2\n      sload\n      dup2\n      0xffffffffffffffffffffffffffffffffffffffff\n      mul\n      not\n      and\n      swap1\n      dup4\n      0xffffffffffffffffffffffffffffffffffffffff\n      and\n      mul\n      or\n      swap1\n      sstore\n      pop\n      swap1\n      pop\n      pop\n        /* \"NFTlotto.sol\":3254:3260  payout */\n      dup2\n        /* \"NFTlotto.sol\":3239:3250  totalPayout */\n      0x02\n      0x00\n        /* \"NFTlotto.sol\":3239:3260  totalPayout += payout */\n      dup3\n      dup3\n      sload\n      tag_174\n      swap2\n      swap1\n      tag_175\n      jump\t// in\n    tag_174:\n      swap3\n      pop\n      pop\n      dup2\n      swap1\n      sstore\n      pop\n        /* \"NFTlotto.sol\":3271:3279  roundNum */\n      0x01\n      0x00\n        /* \"NFTlotto.sol\":3271:3281  roundNum++ */\n      dup2\n      sload\n      dup1\n      swap3\n      swap2\n      swap1\n      tag_176\n      swap1\n      tag_115\n      jump\t// in\n    tag_176:\n      swap2\n      swap1\n      pop\n      sstore\n      pop\n        /* \"NFTlotto.sol\":3299:3332  LotteryWon(winnerAddress, payout) */\n      0x2e798dd4337e515c79b64c40e1a93baa1aefbd9180ac7905e02508edd7971e50\n        /* \"NFTlotto.sol\":3310:3323  winnerAddress */\n      dup2\n        /* \"NFTlotto.sol\":3325:3331  payout */\n      dup4\n        /* \"NFTlotto.sol\":3299:3332  LotteryWon(winnerAddress, payout) */\n      mload(0x40)\n      tag_177\n      swap3\n      swap2\n      swap1\n      tag_178\n      jump\t// in\n    tag_177:\n      mload(0x40)\n      dup1\n      swap2\n      sub\n      swap1\n      log1\n        /* \"NFTlotto.sol\":2898:3340  {      \r... */\n      pop\n        /* \"NFTlotto.sol\":2822:3340  function updateWinner(uint256 winnerNum, uint256 payout) external onlyOwner {      \r... */\n      pop\n      pop\n      jump\t// out\n        /* \"https://github.com/OpenZeppelin/openzeppelin-contracts/blob/master/contracts/access/Ownable.sol\":1668:1769  function renounceOwnership() public virtual onlyOwner {... */\n    tag_50:\n        /* \"https://github.com/OpenZeppelin/openzeppelin-contracts/blob/master/contracts/access/Ownable.sol\":1259:1271  _msgSender() */\n      tag_180\n        /* \"https://github.com/OpenZeppelin/openzeppelin-contracts/blob/master/contracts/access/Ownable.sol\":1259:1269  _msgSender */\n      tag_159\n        /* \"https://github.com/OpenZeppelin/openzeppelin-contracts/blob/master/contracts/access/Ownable.sol\":1259:1271  _msgSender() */\n      jump\t// in\n    tag_180:\n        /* \"https://github.com/OpenZeppelin/openzeppelin-contracts/blob/master/contracts/access/Ownable.sol\":1248:1271  owner() == _msgSender() */\n      0xffffffffffffffffffffffffffffffffffffffff\n      and\n        /* \"https://github.com/OpenZeppelin/openzeppelin-contracts/blob/master/contracts/access/Ownable.sol\":1248:1255  owner() */\n      tag_181\n        /* \"https://github.com/OpenZeppelin/openzeppelin-contracts/blob/master/contracts/access/Ownable.sol\":1248:1253  owner */\n      tag_56\n        /* \"https://github.com/OpenZeppelin/openzeppelin-contracts/blob/master/contracts/access/Ownable.sol\":1248:1255  owner() */\n      jump\t// in\n    tag_181:\n        /* \"https://github.com/OpenZeppelin/openzeppelin-contracts/blob/master/contracts/access/Ownable.sol\":1248:1271  owner() == _msgSender() */\n      0xffffffffffffffffffffffffffffffffffffffff\n      and\n      eq\n        /* \"https://github.com/OpenZeppelin/openzeppelin-contracts/blob/master/contracts/access/Ownable.sol\":1240:1308  require(owner() == _msgSender(), \"Ownable: caller is not the owner\") */\n      tag_182\n      jumpi\n      mload(0x40)\n      0x08c379a000000000000000000000000000000000000000000000000000000000\n      dup2\n      mstore\n      0x04\n      add\n      tag_183\n      swap1\n      tag_163\n      jump\t// in\n    tag_183:\n      mload(0x40)\n      dup1\n      swap2\n      sub\n      swap1\n      revert\n    tag_182:\n        /* \"https://github.com/OpenZeppelin/openzeppelin-contracts/blob/master/contracts/access/Ownable.sol\":1732:1762  _transferOwnership(address(0)) */\n      tag_185\n        /* \"https://github.com/OpenZeppelin/openzeppelin-contracts/blob/master/contracts/access/Ownable.sol\":1759:1760  0 */\n      0x00\n        /* \"https://github.com/OpenZeppelin/openzeppelin-contracts/blob/master/contracts/access/Ownable.sol\":1732:1750  _transferOwnership */\n      tag_186\n        /* \"https://github.com/OpenZeppelin/openzeppelin-contracts/blob/master/contracts/access/Ownable.sol\":1732:1762  _transferOwnership(address(0)) */\n      jump\t// in\n    tag_185:\n        /* \"https://github.com/OpenZeppelin/openzeppelin-contracts/blob/master/contracts/access/Ownable.sol\":1668:1769  function renounceOwnership() public virtual onlyOwner {... */\n      jump\t// out\n        /* \"NFTlotto.sol\":1412:1522  function updateToken(address _newToken) external onlyOwner {\r... */\n    tag_54:\n        /* \"https://github.com/OpenZeppelin/openzeppelin-contracts/blob/master/contracts/access/Ownable.sol\":1259:1271  _msgSender() */\n      tag_188\n        /* \"https://github.com/OpenZeppelin/openzeppelin-contracts/blob/master/contracts/access/Ownable.sol\":1259:1269  _msgSender */\n      tag_159\n        /* \"https://github.com/OpenZeppelin/openzeppelin-contracts/blob/master/contracts/access/Ownable.sol\":1259:1271  _msgSender() */\n      jump\t// in\n    tag_188:\n        /* \"https://github.com/OpenZeppelin/openzeppelin-contracts/blob/master/contracts/access/Ownable.sol\":1248:1271  owner() == _msgSender() */\n      0xffffffffffffffffffffffffffffffffffffffff\n      and\n        /* \"https://github.com/OpenZeppelin/openzeppelin-contracts/blob/master/contracts/access/Ownable.sol\":1248:1255  owner() */\n      tag_189\n        /* \"https://github.com/OpenZeppelin/openzeppelin-contracts/blob/master/contracts/access/Ownable.sol\":1248:1253  owner */\n      tag_56\n        /* \"https://github.com/OpenZeppelin/openzeppelin-contracts/blob/master/contracts/access/Ownable.sol\":1248:1255  owner() */\n      jump\t// in\n    tag_189:\n        /* \"https://github.com/OpenZeppelin/openzeppelin-contracts/blob/master/contracts/access/Ownable.sol\":1248:1271  owner() == _msgSender() */\n      0xffffffffffffffffffffffffffffffffffffffff\n      and\n      eq\n        /* \"https://github.com/OpenZeppelin/openzeppelin-contracts/blob/master/contracts/access/Ownable.sol\":1240:1308  require(owner() == _msgSender(), \"Ownable: caller is not the owner\") */\n      tag_190\n      jumpi\n      mload(0x40)\n      0x08c379a000000000000000000000000000000000000000000000000000000000\n      dup2\n      mstore\n      0x04\n      add\n      tag_191\n      swap1\n      tag_163\n      jump\t// in\n    tag_191:\n      mload(0x40)\n      dup1\n      swap2\n      sub\n      swap1\n      revert\n    tag_190:\n        /* \"NFTlotto.sol\":1504:1513  _newToken */\n      dup1\n        /* \"NFTlotto.sol\":1482:1494  paymentToken */\n      0x04\n      0x00\n        /* \"NFTlotto.sol\":1482:1514  paymentToken = IERC20(_newToken) */\n      0x0100\n      exp\n      dup2\n      sload\n      dup2\n      0xffffffffffffffffffffffffffffffffffffffff\n      mul\n      not\n      and\n      swap1\n      dup4\n      0xffffffffffffffffffffffffffffffffffffffff\n      and\n      mul\n      or\n      swap1\n      sstore\n      pop\n        /* \"NFTlotto.sol\":1412:1522  function updateToken(address _newToken) external onlyOwner {\r... */\n      pop\n      jump\t// out\n        /* \"https://github.com/OpenZeppelin/openzeppelin-contracts/blob/master/contracts/access/Ownable.sol\":1036:1121  function owner() public view virtual returns (address) {... */\n    tag_56:\n        /* \"https://github.com/OpenZeppelin/openzeppelin-contracts/blob/master/contracts/access/Ownable.sol\":1082:1089  address */\n      0x00\n        /* \"https://github.com/OpenZeppelin/openzeppelin-contracts/blob/master/contracts/access/Ownable.sol\":1108:1114  _owner */\n      dup1\n      0x00\n      swap1\n      sload\n      swap1\n      0x0100\n      exp\n      swap1\n      div\n      0xffffffffffffffffffffffffffffffffffffffff\n      and\n        /* \"https://github.com/OpenZeppelin/openzeppelin-contracts/blob/master/contracts/access/Ownable.sol\":1101:1114  return _owner */\n      swap1\n      pop\n        /* \"https://github.com/OpenZeppelin/openzeppelin-contracts/blob/master/contracts/access/Ownable.sol\":1036:1121  function owner() public view virtual returns (address) {... */\n      swap1\n      jump\t// out\n        /* \"NFTlotto.sol\":3350:3470  function userEntries(address account) public view returns (uint256) {\r... */\n    tag_61:\n        /* \"NFTlotto.sol\":3409:3416  uint256 */\n      0x00\n        /* \"NFTlotto.sol\":3436:3443  acesNFT */\n      0x05\n      0x00\n      swap1\n      sload\n      swap1\n      0x0100\n      exp\n      swap1\n      div\n      0xffffffffffffffffffffffffffffffffffffffff\n      and\n        /* \"NFTlotto.sol\":3436:3453  acesNFT.balanceOf */\n      0xffffffffffffffffffffffffffffffffffffffff\n      and\n      0x70a08231\n        /* \"NFTlotto.sol\":3454:3461  account */\n      dup4\n        /* \"NFTlotto.sol\":3436:3462  acesNFT.balanceOf(account) */\n      mload(0x40)\n      dup3\n      0xffffffff\n      and\n      0xe0\n      shl\n      dup2\n      mstore\n      0x04\n      add\n      tag_195\n      swap2\n      swap1\n      tag_58\n      jump\t// in\n    tag_195:\n      0x20\n      mload(0x40)\n      dup1\n      dup4\n      sub\n      dup2\n      dup7\n      dup1\n      extcodesize\n      iszero\n      dup1\n      iszero\n      tag_196\n      jumpi\n      0x00\n      dup1\n      revert\n    tag_196:\n      pop\n      gas\n      staticcall\n      iszero\n      dup1\n      iszero\n      tag_198\n      jumpi\n      returndatasize\n      0x00\n      dup1\n      returndatacopy\n      revert(0x00, returndatasize)\n    tag_198:\n      pop\n      pop\n      pop\n      pop\n      mload(0x40)\n      returndatasize\n      not(0x1f)\n      0x1f\n      dup3\n      add\n      and\n      dup3\n      add\n      dup1\n      0x40\n      mstore\n      pop\n      dup2\n      add\n      swap1\n      tag_199\n      swap2\n      swap1\n      tag_97\n      jump\t// in\n    tag_199:\n        /* \"NFTlotto.sol\":3429:3462  return acesNFT.balanceOf(account) */\n      swap1\n      pop\n        /* \"NFTlotto.sol\":3350:3470  function userEntries(address account) public view returns (uint256) {\r... */\n      swap2\n      swap1\n      pop\n      jump\t// out\n        /* \"NFTlotto.sol\":1144:1191  mapping(uint256 => Results) public roundResults */\n    tag_66:\n      mstore(0x20, 0x06)\n      dup1\n      0x00\n      mstore\n      keccak256(0x00, 0x40)\n      0x00\n      swap2\n      pop\n      swap1\n      pop\n      dup1\n      0x00\n      add\n      sload\n      swap1\n      dup1\n      0x01\n      add\n      sload\n      swap1\n      dup1\n      0x02\n      add\n      sload\n      swap1\n      dup1\n      0x03\n      add\n      sload\n      swap1\n      dup1\n      0x04\n      add\n      0x00\n      swap1\n      sload\n      swap1\n      0x0100\n      exp\n      swap1\n      div\n      0xffffffffffffffffffffffffffffffffffffffff\n      and\n      swap1\n      pop\n      dup6\n      jump\t// out\n        /* \"NFTlotto.sol\":921:953  IERC721Enumerable public acesNFT */\n    tag_70:\n      0x05\n      0x00\n      swap1\n      sload\n      swap1\n      0x0100\n      exp\n      swap1\n      div\n      0xffffffffffffffffffffffffffffffffffffffff\n      and\n      dup2\n      jump\t// out\n        /* \"NFTlotto.sol\":3478:4068  function resultLog(uint256 startIndex, uint256 endIndex) external view returns(Results [] memory log){\r... */\n    tag_75:\n        /* \"NFTlotto.sol\":3557:3578  Results [] memory log */\n      0x60\n        /* \"NFTlotto.sol\":3605:3606  0 */\n      0x00\n        /* \"NFTlotto.sol\":3593:3601  roundNum */\n      sload(0x01)\n        /* \"NFTlotto.sol\":3593:3606  roundNum == 0 */\n      eq\n        /* \"NFTlotto.sol\":3590:3663  if(roundNum == 0){\r... */\n      iszero\n      tag_201\n      jumpi\n        /* \"NFTlotto.sol\":3649:3650  0 */\n      0x00\n        /* \"NFTlotto.sol\":3635:3651  new Results[](0) */\n      0xffffffffffffffff\n      dup2\n      gt\n      iszero\n      tag_202\n      jumpi\n      tag_203\n      tag_130\n      jump\t// in\n    tag_203:\n    tag_202:\n      mload(0x40)\n      swap1\n      dup1\n      dup3\n      mstore\n      dup1\n      0x20\n      mul\n      0x20\n      add\n      dup3\n      add\n      0x40\n      mstore\n      dup1\n      iszero\n      tag_204\n      jumpi\n      dup2\n      0x20\n      add\n    tag_205:\n      tag_206\n      tag_207\n      jump\t// in\n    tag_206:\n      dup2\n      mstore\n      0x20\n      add\n      swap1\n      0x01\n      swap1\n      sub\n      swap1\n      dup2\n      tag_205\n      jumpi\n      swap1\n      pop\n    tag_204:\n      pop\n        /* \"NFTlotto.sol\":3629:3651  log = new Results[](0) */\n      swap1\n      pop\n        /* \"NFTlotto.sol\":3622:3651  return log = new Results[](0) */\n      jump(tag_200)\n        /* \"NFTlotto.sol\":3590:3663  if(roundNum == 0){\r... */\n    tag_201:\n        /* \"NFTlotto.sol\":3699:3707  roundNum */\n      sload(0x01)\n        /* \"NFTlotto.sol\":3687:3695  endIndex */\n      dup3\n        /* \"NFTlotto.sol\":3687:3707  endIndex >= roundNum */\n      lt\n        /* \"NFTlotto.sol\":3683:3759  if (endIndex >= roundNum) {\r... */\n      tag_208\n      jumpi\n        /* \"NFTlotto.sol\":3746:3747  1 */\n      0x01\n        /* \"NFTlotto.sol\":3735:3743  roundNum */\n      dup1\n      sload\n        /* \"NFTlotto.sol\":3735:3747  roundNum - 1 */\n      tag_209\n      swap2\n      swap1\n      tag_210\n      jump\t// in\n    tag_209:\n        /* \"NFTlotto.sol\":3724:3747  endIndex = roundNum - 1 */\n      swap2\n      pop\n        /* \"NFTlotto.sol\":3683:3759  if (endIndex >= roundNum) {\r... */\n    tag_208:\n        /* \"NFTlotto.sol\":3771:3790  uint256 arrayLength */\n      0x00\n        /* \"NFTlotto.sol\":3817:3818  1 */\n      0x01\n        /* \"NFTlotto.sol\":3804:3814  startIndex */\n      dup5\n        /* \"NFTlotto.sol\":3793:3801  endIndex */\n      dup5\n        /* \"NFTlotto.sol\":3793:3814  endIndex - startIndex */\n      tag_211\n      swap2\n      swap1\n      tag_210\n      jump\t// in\n    tag_211:\n        /* \"NFTlotto.sol\":3793:3818  endIndex - startIndex + 1 */\n      tag_212\n      swap2\n      swap1\n      tag_175\n      jump\t// in\n    tag_212:\n        /* \"NFTlotto.sol\":3771:3818  uint256 arrayLength = endIndex - startIndex + 1 */\n      swap1\n      pop\n        /* \"NFTlotto.sol\":3829:3849  uint256 currentIndex */\n      0x00\n        /* \"NFTlotto.sol\":3880:3891  arrayLength */\n      dup2\n        /* \"NFTlotto.sol\":3866:3892  new Results[](arrayLength) */\n      0xffffffffffffffff\n      dup2\n      gt\n      iszero\n      tag_213\n      jumpi\n      tag_214\n      tag_130\n      jump\t// in\n    tag_214:\n    tag_213:\n      mload(0x40)\n      swap1\n      dup1\n      dup3\n      mstore\n      dup1\n      0x20\n      mul\n      0x20\n      add\n      dup3\n      add\n      0x40\n      mstore\n      dup1\n      iszero\n      tag_215\n      jumpi\n      dup2\n      0x20\n      add\n    tag_216:\n      tag_217\n      tag_207\n      jump\t// in\n    tag_217:\n      dup2\n      mstore\n      0x20\n      add\n      swap1\n      0x01\n      swap1\n      sub\n      swap1\n      dup2\n      tag_216\n      jumpi\n      swap1\n      pop\n    tag_215:\n      pop\n        /* \"NFTlotto.sol\":3860:3892  log = new Results[](arrayLength) */\n      swap3\n      pop\n        /* \"NFTlotto.sol\":3913:3922  uint256 i */\n      0x00\n        /* \"NFTlotto.sol\":3925:3935  startIndex */\n      dup6\n        /* \"NFTlotto.sol\":3913:3935  uint256 i = startIndex */\n      swap1\n      pop\n        /* \"NFTlotto.sol\":3908:4061  for (uint256 i = startIndex; i <= endIndex; i++) {\r... */\n    tag_218:\n        /* \"NFTlotto.sol\":3942:3950  endIndex */\n      dup5\n        /* \"NFTlotto.sol\":3937:3938  i */\n      dup2\n        /* \"NFTlotto.sol\":3937:3950  i <= endIndex */\n      gt\n        /* \"NFTlotto.sol\":3908:4061  for (uint256 i = startIndex; i <= endIndex; i++) {\r... */\n      tag_219\n      jumpi\n        /* \"NFTlotto.sol\":3992:4004  roundResults */\n      0x06\n        /* \"NFTlotto.sol\":3992:4020  roundResults[startIndex + i] */\n      0x00\n        /* \"NFTlotto.sol\":4018:4019  i */\n      dup3\n        /* \"NFTlotto.sol\":4005:4015  startIndex */\n      dup9\n        /* \"NFTlotto.sol\":4005:4019  startIndex + i */\n      tag_221\n      swap2\n      swap1\n      tag_175\n      jump\t// in\n    tag_221:\n        /* \"NFTlotto.sol\":3992:4020  roundResults[startIndex + i] */\n      dup2\n      mstore\n      0x20\n      add\n      swap1\n      dup2\n      mstore\n      0x20\n      add\n      0x00\n      keccak256\n        /* \"NFTlotto.sol\":3972:4020  log[currentIndex] = roundResults[startIndex + i] */\n      mload(0x40)\n      dup1\n      0xa0\n      add\n      0x40\n      mstore\n      swap1\n      dup2\n      0x00\n      dup3\n      add\n      sload\n      dup2\n      mstore\n      0x20\n      add\n      0x01\n      dup3\n      add\n      sload\n      dup2\n      mstore\n      0x20\n      add\n      0x02\n      dup3\n      add\n      sload\n      dup2\n      mstore\n      0x20\n      add\n      0x03\n      dup3\n      add\n      sload\n      dup2\n      mstore\n      0x20\n      add\n      0x04\n      dup3\n      add\n      0x00\n      swap1\n      sload\n      swap1\n      0x0100\n      exp\n      swap1\n      div\n      0xffffffffffffffffffffffffffffffffffffffff\n      and\n      0xffffffffffffffffffffffffffffffffffffffff\n      and\n      0xffffffffffffffffffffffffffffffffffffffff\n      and\n      dup2\n      mstore\n      pop\n      pop\n        /* \"NFTlotto.sol\":3972:3975  log */\n      dup5\n        /* \"NFTlotto.sol\":3976:3988  currentIndex */\n      dup4\n        /* \"NFTlotto.sol\":3972:3989  log[currentIndex] */\n      dup2\n      mload\n      dup2\n      lt\n      tag_222\n      jumpi\n      tag_223\n      tag_151\n      jump\t// in\n    tag_223:\n    tag_222:\n      0x20\n      mul\n      0x20\n      add\n      add\n        /* \"NFTlotto.sol\":3972:4020  log[currentIndex] = roundResults[startIndex + i] */\n      dup2\n      swap1\n      mstore\n      pop\n        /* \"NFTlotto.sol\":4035:4049  currentIndex++ */\n      dup2\n      dup1\n      tag_224\n      swap1\n      tag_115\n      jump\t// in\n    tag_224:\n      swap3\n      pop\n      pop\n        /* \"NFTlotto.sol\":3952:3955  i++ */\n      dup1\n      dup1\n      tag_225\n      swap1\n      tag_115\n      jump\t// in\n    tag_225:\n      swap2\n      pop\n      pop\n        /* \"NFTlotto.sol\":3908:4061  for (uint256 i = startIndex; i <= endIndex; i++) {\r... */\n      jump(tag_218)\n    tag_219:\n      pop\n        /* \"NFTlotto.sol\":3579:4068  {\r... */\n      pop\n      pop\n        /* \"NFTlotto.sol\":3478:4068  function resultLog(uint256 startIndex, uint256 endIndex) external view returns(Results [] memory log){\r... */\n    tag_200:\n      swap3\n      swap2\n      pop\n      pop\n      jump\t// out\n        /* \"https://github.com/OpenZeppelin/openzeppelin-contracts/blob/master/contracts/access/Ownable.sol\":1918:2116  function transferOwnership(address newOwner) public virtual onlyOwner {... */\n    tag_80:\n        /* \"https://github.com/OpenZeppelin/openzeppelin-contracts/blob/master/contracts/access/Ownable.sol\":1259:1271  _msgSender() */\n      tag_227\n        /* \"https://github.com/OpenZeppelin/openzeppelin-contracts/blob/master/contracts/access/Ownable.sol\":1259:1269  _msgSender */\n      tag_159\n        /* \"https://github.com/OpenZeppelin/openzeppelin-contracts/blob/master/contracts/access/Ownable.sol\":1259:1271  _msgSender() */\n      jump\t// in\n    tag_227:\n        /* \"https://github.com/OpenZeppelin/openzeppelin-contracts/blob/master/contracts/access/Ownable.sol\":1248:1271  owner() == _msgSender() */\n      0xffffffffffffffffffffffffffffffffffffffff\n      and\n        /* \"https://github.com/OpenZeppelin/openzeppelin-contracts/blob/master/contracts/access/Ownable.sol\":1248:1255  owner() */\n      tag_228\n        /* \"https://github.com/OpenZeppelin/openzeppelin-contracts/blob/master/contracts/access/Ownable.sol\":1248:1253  owner */\n      tag_56\n        /* \"https://github.com/OpenZeppelin/openzeppelin-contracts/blob/master/contracts/access/Ownable.sol\":1248:1255  owner() */\n      jump\t// in\n    tag_228:\n        /* \"https://github.com/OpenZeppelin/openzeppelin-contracts/blob/master/contracts/access/Ownable.sol\":1248:1271  owner() == _msgSender() */\n      0xffffffffffffffffffffffffffffffffffffffff\n      and\n      eq\n        /* \"https://github.com/OpenZeppelin/openzeppelin-contracts/blob/master/contracts/access/Ownable.sol\":1240:1308  require(owner() == _msgSender(), \"Ownable: caller is not the owner\") */\n      tag_229\n      jumpi\n      mload(0x40)\n      0x08c379a000000000000000000000000000000000000000000000000000000000\n      dup2\n      mstore\n      0x04\n      add\n      tag_230\n      swap1\n      tag_163\n      jump\t// in\n    tag_230:\n      mload(0x40)\n      dup1\n      swap2\n      sub\n      swap1\n      revert\n    tag_229:\n        /* \"https://github.com/OpenZeppelin/openzeppelin-contracts/blob/master/contracts/access/Ownable.sol\":2026:2027  0 */\n      0x00\n        /* \"https://github.com/OpenZeppelin/openzeppelin-contracts/blob/master/contracts/access/Ownable.sol\":2006:2028  newOwner != address(0) */\n      0xffffffffffffffffffffffffffffffffffffffff\n      and\n        /* \"https://github.com/OpenZeppelin/openzeppelin-contracts/blob/master/contracts/access/Ownable.sol\":2006:2014  newOwner */\n      dup2\n        /* \"https://github.com/OpenZeppelin/openzeppelin-contracts/blob/master/contracts/access/Ownable.sol\":2006:2028  newOwner != address(0) */\n      0xffffffffffffffffffffffffffffffffffffffff\n      and\n      eq\n      iszero\n        /* \"https://github.com/OpenZeppelin/openzeppelin-contracts/blob/master/contracts/access/Ownable.sol\":1998:2071  require(newOwner != address(0), \"Ownable: new owner is the zero address\") */\n      tag_232\n      jumpi\n      mload(0x40)\n      0x08c379a000000000000000000000000000000000000000000000000000000000\n      dup2\n      mstore\n      0x04\n      add\n      tag_233\n      swap1\n      tag_234\n      jump\t// in\n    tag_233:\n      mload(0x40)\n      dup1\n      swap2\n      sub\n      swap1\n      revert\n    tag_232:\n        /* \"https://github.com/OpenZeppelin/openzeppelin-contracts/blob/master/contracts/access/Ownable.sol\":2081:2109  _transferOwnership(newOwner) */\n      tag_235\n        /* \"https://github.com/OpenZeppelin/openzeppelin-contracts/blob/master/contracts/access/Ownable.sol\":2100:2108  newOwner */\n      dup2\n        /* \"https://github.com/OpenZeppelin/openzeppelin-contracts/blob/master/contracts/access/Ownable.sol\":2081:2099  _transferOwnership */\n      tag_186\n        /* \"https://github.com/OpenZeppelin/openzeppelin-contracts/blob/master/contracts/access/Ownable.sol\":2081:2109  _transferOwnership(newOwner) */\n      jump\t// in\n    tag_235:\n        /* \"https://github.com/OpenZeppelin/openzeppelin-contracts/blob/master/contracts/access/Ownable.sol\":1918:2116  function transferOwnership(address newOwner) public virtual onlyOwner {... */\n      pop\n      jump\t// out\n        /* \"NFTlotto.sol\":2544:2814  function pickWinner(uint256 seed) external view returns(uint256 winnerNum, address winnerAddress) {\r... */\n    tag_83:\n        /* \"NFTlotto.sol\":2600:2617  uint256 winnerNum */\n      0x00\n        /* \"NFTlotto.sol\":2619:2640  address winnerAddress */\n      dup1\n        /* \"NFTlotto.sol\":2653:2673  uint256 roundEntries */\n      0x00\n        /* \"NFTlotto.sol\":2676:2683  acesNFT */\n      0x05\n      0x00\n      swap1\n      sload\n      swap1\n      0x0100\n      exp\n      swap1\n      div\n      0xffffffffffffffffffffffffffffffffffffffff\n      and\n        /* \"NFTlotto.sol\":2676:2695  acesNFT.totalSupply */\n      0xffffffffffffffffffffffffffffffffffffffff\n      and\n      0x18160ddd\n        /* \"NFTlotto.sol\":2676:2697  acesNFT.totalSupply() */\n      mload(0x40)\n      dup2\n      0xffffffff\n      and\n      0xe0\n      shl\n      dup2\n      mstore\n      0x04\n      add\n      0x20\n      mload(0x40)\n      dup1\n      dup4\n      sub\n      dup2\n      dup7\n      dup1\n      extcodesize\n      iszero\n      dup1\n      iszero\n      tag_237\n      jumpi\n      0x00\n      dup1\n      revert\n    tag_237:\n      pop\n      gas\n      staticcall\n      iszero\n      dup1\n      iszero\n      tag_239\n      jumpi\n      returndatasize\n      0x00\n      dup1\n      returndatacopy\n      revert(0x00, returndatasize)\n    tag_239:\n      pop\n      pop\n      pop\n      pop\n      mload(0x40)\n      returndatasize\n      not(0x1f)\n      0x1f\n      dup3\n      add\n      and\n      dup3\n      add\n      dup1\n      0x40\n      mstore\n      pop\n      dup2\n      add\n      swap1\n      tag_240\n      swap2\n      swap1\n      tag_97\n      jump\t// in\n    tag_240:\n        /* \"NFTlotto.sol\":2653:2697  uint256 roundEntries = acesNFT.totalSupply() */\n      swap1\n      pop\n        /* \"NFTlotto.sol\":2752:2753  1 */\n      0x01\n        /* \"NFTlotto.sol\":2736:2748  roundEntries */\n      dup2\n        /* \"NFTlotto.sol\":2721:2733  random(seed) */\n      tag_241\n        /* \"NFTlotto.sol\":2728:2732  seed */\n      dup7\n        /* \"NFTlotto.sol\":2721:2727  random */\n      tag_242\n        /* \"NFTlotto.sol\":2721:2733  random(seed) */\n      jump\t// in\n    tag_241:\n        /* \"NFTlotto.sol\":2721:2748  random(seed) % roundEntries */\n      tag_243\n      swap2\n      swap1\n      tag_244\n      jump\t// in\n    tag_243:\n        /* \"NFTlotto.sol\":2720:2753  (random(seed) % roundEntries) + 1 */\n      tag_245\n      swap2\n      swap1\n      tag_175\n      jump\t// in\n    tag_245:\n        /* \"NFTlotto.sol\":2708:2753  winnerNum = (random(seed) % roundEntries) + 1 */\n      swap3\n      pop\n        /* \"NFTlotto.sol\":2780:2787  acesNFT */\n      0x05\n      0x00\n      swap1\n      sload\n      swap1\n      0x0100\n      exp\n      swap1\n      div\n      0xffffffffffffffffffffffffffffffffffffffff\n      and\n        /* \"NFTlotto.sol\":2780:2795  acesNFT.ownerOf */\n      0xffffffffffffffffffffffffffffffffffffffff\n      and\n      0x6352211e\n        /* \"NFTlotto.sol\":2796:2805  winnerNum */\n      dup5\n        /* \"NFTlotto.sol\":2780:2806  acesNFT.ownerOf(winnerNum) */\n      mload(0x40)\n      dup3\n      0xffffffff\n      and\n      0xe0\n      shl\n      dup2\n      mstore\n      0x04\n      add\n      tag_246\n      swap2\n      swap1\n      tag_27\n      jump\t// in\n    tag_246:\n      0x20\n      mload(0x40)\n      dup1\n      dup4\n      sub\n      dup2\n      dup7\n      dup1\n      extcodesize\n      iszero\n      dup1\n      iszero\n      tag_247\n      jumpi\n      0x00\n      dup1\n      revert\n    tag_247:\n      pop\n      gas\n      staticcall\n      iszero\n      dup1\n      iszero\n      tag_249\n      jumpi\n      returndatasize\n      0x00\n      dup1\n      returndatacopy\n      revert(0x00, returndatasize)\n    tag_249:\n      pop\n      pop\n      pop\n      pop\n      mload(0x40)\n      returndatasize\n      not(0x1f)\n      0x1f\n      dup3\n      add\n      and\n      dup3\n      add\n      dup1\n      0x40\n      mstore\n      pop\n      dup2\n      add\n      swap1\n      tag_250\n      swap2\n      swap1\n      tag_106\n      jump\t// in\n    tag_250:\n        /* \"NFTlotto.sol\":2764:2806  winnerAddress = acesNFT.ownerOf(winnerNum) */\n      swap2\n      pop\n        /* \"NFTlotto.sol\":2642:2814  {\r... */\n      pop\n        /* \"NFTlotto.sol\":2544:2814  function pickWinner(uint256 seed) external view returns(uint256 winnerNum, address winnerAddress) {\r... */\n      swap2\n      pop\n      swap2\n      jump\t// out\n        /* \"NFTlotto.sol\":1530:1640  function updateJackpot(uint256 _newJackpot) external onlyOwner {\r... */\n    tag_88:\n        /* \"https://github.com/OpenZeppelin/openzeppelin-contracts/blob/master/contracts/access/Ownable.sol\":1259:1271  _msgSender() */\n      tag_252\n        /* \"https://github.com/OpenZeppelin/openzeppelin-contracts/blob/master/contracts/access/Ownable.sol\":1259:1269  _msgSender */\n      tag_159\n        /* \"https://github.com/OpenZeppelin/openzeppelin-contracts/blob/master/contracts/access/Ownable.sol\":1259:1271  _msgSender() */\n      jump\t// in\n    tag_252:\n        /* \"https://github.com/OpenZeppelin/openzeppelin-contracts/blob/master/contracts/access/Ownable.sol\":1248:1271  owner() == _msgSender() */\n      0xffffffffffffffffffffffffffffffffffffffff\n      and\n        /* \"https://github.com/OpenZeppelin/openzeppelin-contracts/blob/master/contracts/access/Ownable.sol\":1248:1255  owner() */\n      tag_253\n        /* \"https://github.com/OpenZeppelin/openzeppelin-contracts/blob/master/contracts/access/Ownable.sol\":1248:1253  owner */\n      tag_56\n        /* \"https://github.com/OpenZeppelin/openzeppelin-contracts/blob/master/contracts/access/Ownable.sol\":1248:1255  owner() */\n      jump\t// in\n    tag_253:\n        /* \"https://github.com/OpenZeppelin/openzeppelin-contracts/blob/master/contracts/access/Ownable.sol\":1248:1271  owner() == _msgSender() */\n      0xffffffffffffffffffffffffffffffffffffffff\n      and\n      eq\n        /* \"https://github.com/OpenZeppelin/openzeppelin-contracts/blob/master/contracts/access/Ownable.sol\":1240:1308  require(owner() == _msgSender(), \"Ownable: caller is not the owner\") */\n      tag_254\n      jumpi\n      mload(0x40)\n      0x08c379a000000000000000000000000000000000000000000000000000000000\n      dup2\n      mstore\n      0x04\n      add\n      tag_255\n      swap1\n      tag_163\n      jump\t// in\n    tag_255:\n      mload(0x40)\n      dup1\n      swap2\n      sub\n      swap1\n      revert\n    tag_254:\n        /* \"NFTlotto.sol\":1621:1632  _newJackpot */\n      dup1\n        /* \"NFTlotto.sol\":1604:1618  currentJackpot */\n      0x03\n        /* \"NFTlotto.sol\":1604:1632  currentJackpot = _newJackpot */\n      dup2\n      swap1\n      sstore\n      pop\n        /* \"NFTlotto.sol\":1530:1640  function updateJackpot(uint256 _newJackpot) external onlyOwner {\r... */\n      pop\n      jump\t// out\n        /* \"NFTlotto.sol\":836:875  uint256 public currentJackpot = 1 ether */\n    tag_90:\n      sload(0x03)\n      dup2\n      jump\t// out\n        /* \"https://github.com/OpenZeppelin/openzeppelin-contracts/blob/master/contracts/utils/Context.sol\":640:736  function _msgSender() internal view virtual returns (address) {... */\n    tag_159:\n        /* \"https://github.com/OpenZeppelin/openzeppelin-contracts/blob/master/contracts/utils/Context.sol\":693:700  address */\n      0x00\n        /* \"https://github.com/OpenZeppelin/openzeppelin-contracts/blob/master/contracts/utils/Context.sol\":719:729  msg.sender */\n      caller\n        /* \"https://github.com/OpenZeppelin/openzeppelin-contracts/blob/master/contracts/utils/Context.sol\":712:729  return msg.sender */\n      swap1\n      pop\n        /* \"https://github.com/OpenZeppelin/openzeppelin-contracts/blob/master/contracts/utils/Context.sol\":640:736  function _msgSender() internal view virtual returns (address) {... */\n      swap1\n      jump\t// out\n        /* \"https://github.com/OpenZeppelin/openzeppelin-contracts/blob/master/contracts/access/Ownable.sol\":2270:2457  function _transferOwnership(address newOwner) internal virtual {... */\n    tag_186:\n        /* \"https://github.com/OpenZeppelin/openzeppelin-contracts/blob/master/contracts/access/Ownable.sol\":2343:2359  address oldOwner */\n      0x00\n        /* \"https://github.com/OpenZeppelin/openzeppelin-contracts/blob/master/contracts/access/Ownable.sol\":2362:2368  _owner */\n      dup1\n      0x00\n      swap1\n      sload\n      swap1\n      0x0100\n      exp\n      swap1\n      div\n      0xffffffffffffffffffffffffffffffffffffffff\n      and\n        /* \"https://github.com/OpenZeppelin/openzeppelin-contracts/blob/master/contracts/access/Ownable.sol\":2343:2368  address oldOwner = _owner */\n      swap1\n      pop\n        /* \"https://github.com/OpenZeppelin/openzeppelin-contracts/blob/master/contracts/access/Ownable.sol\":2387:2395  newOwner */\n      dup2\n        /* \"https://github.com/OpenZeppelin/openzeppelin-contracts/blob/master/contracts/access/Ownable.sol\":2378:2384  _owner */\n      0x00\n      dup1\n        /* \"https://github.com/OpenZeppelin/openzeppelin-contracts/blob/master/contracts/access/Ownable.sol\":2378:2395  _owner = newOwner */\n      0x0100\n      exp\n      dup2\n      sload\n      dup2\n      0xffffffffffffffffffffffffffffffffffffffff\n      mul\n      not\n      and\n      swap1\n      dup4\n      0xffffffffffffffffffffffffffffffffffffffff\n      and\n      mul\n      or\n      swap1\n      sstore\n      pop\n        /* \"https://github.com/OpenZeppelin/openzeppelin-contracts/blob/master/contracts/access/Ownable.sol\":2441:2449  newOwner */\n      dup2\n        /* \"https://github.com/OpenZeppelin/openzeppelin-contracts/blob/master/contracts/access/Ownable.sol\":2410:2450  OwnershipTransferred(oldOwner, newOwner) */\n      0xffffffffffffffffffffffffffffffffffffffff\n      and\n        /* \"https://github.com/OpenZeppelin/openzeppelin-contracts/blob/master/contracts/access/Ownable.sol\":2431:2439  oldOwner */\n      dup2\n        /* \"https://github.com/OpenZeppelin/openzeppelin-contracts/blob/master/contracts/access/Ownable.sol\":2410:2450  OwnershipTransferred(oldOwner, newOwner) */\n      0xffffffffffffffffffffffffffffffffffffffff\n      and\n      0x8be0079c531659141344cd1fd0a4f28419497f9722a3daafe3b4186f6b6457e0\n      mload(0x40)\n      mload(0x40)\n      dup1\n      swap2\n      sub\n      swap1\n      log3\n        /* \"https://github.com/OpenZeppelin/openzeppelin-contracts/blob/master/contracts/access/Ownable.sol\":2333:2457  {... */\n      pop\n        /* \"https://github.com/OpenZeppelin/openzeppelin-contracts/blob/master/contracts/access/Ownable.sol\":2270:2457  function _transferOwnership(address newOwner) internal virtual {... */\n      pop\n      jump\t// out\n        /* \"NFTlotto.sol\":5214:5592  function random(uint256 seed) internal view returns (uint256) {\r... */\n    tag_242:\n        /* \"NFTlotto.sol\":5267:5274  uint256 */\n      0x00\n        /* \"NFTlotto.sol\":5408:5412  seed */\n      dup2\n        /* \"NFTlotto.sol\":5439:5454  block.timestamp */\n      timestamp\n        /* \"NFTlotto.sol\":5481:5490  gasleft() */\n      gas\n        /* \"NFTlotto.sol\":5517:5527  msg.sender */\n      caller\n        /* \"NFTlotto.sol\":5365:5550  abi.encodePacked(\r... */\n      add(0x20, mload(0x40))\n      tag_260\n      swap5\n      swap4\n      swap3\n      swap2\n      swap1\n      tag_261\n      jump\t// in\n    tag_260:\n      mload(0x40)\n      0x20\n      dup2\n      dup4\n      sub\n      sub\n      dup2\n      mstore\n      swap1\n      0x40\n      mstore\n        /* \"NFTlotto.sol\":5333:5569  keccak256(\r... */\n      dup1\n      mload\n      swap1\n      0x20\n      add\n      keccak256\n        /* \"NFTlotto.sol\":5307:5584  uint256(\r... */\n      0x00\n      shr\n        /* \"NFTlotto.sol\":5287:5584  return\r... */\n      swap1\n      pop\n        /* \"NFTlotto.sol\":5214:5592  function random(uint256 seed) internal view returns (uint256) {\r... */\n      swap2\n      swap1\n      pop\n      jump\t// out\n    tag_207:\n      mload(0x40)\n      dup1\n      0xa0\n      add\n      0x40\n      mstore\n      dup1\n      0x00\n      dup2\n      mstore\n      0x20\n      add\n      0x00\n      dup2\n      mstore\n      0x20\n      add\n      0x00\n      dup2\n      mstore\n      0x20\n      add\n      0x00\n      dup2\n      mstore\n      0x20\n      add\n      and(0xffffffffffffffffffffffffffffffffffffffff, 0x00)\n      dup2\n      mstore\n      pop\n      swap1\n      jump\t// out\n        /* \"#utility.yul\":7:146   */\n    tag_263:\n        /* \"#utility.yul\":53:58   */\n      0x00\n        /* \"#utility.yul\":91:97   */\n      dup2\n        /* \"#utility.yul\":78:98   */\n      calldataload\n        /* \"#utility.yul\":69:98   */\n      swap1\n      pop\n        /* \"#utility.yul\":107:140   */\n      tag_265\n        /* \"#utility.yul\":134:139   */\n      dup2\n        /* \"#utility.yul\":107:140   */\n      tag_266\n      jump\t// in\n    tag_265:\n        /* \"#utility.yul\":7:146   */\n      swap3\n      swap2\n      pop\n      pop\n      jump\t// out\n        /* \"#utility.yul\":152:295   */\n    tag_267:\n        /* \"#utility.yul\":209:214   */\n      0x00\n        /* \"#utility.yul\":240:246   */\n      dup2\n        /* \"#utility.yul\":234:247   */\n      mload\n        /* \"#utility.yul\":225:247   */\n      swap1\n      pop\n        /* \"#utility.yul\":256:289   */\n      tag_269\n        /* \"#utility.yul\":283:288   */\n      dup2\n        /* \"#utility.yul\":256:289   */\n      tag_266\n      jump\t// in\n    tag_269:\n        /* \"#utility.yul\":152:295   */\n      swap3\n      swap2\n      pop\n      pop\n      jump\t// out\n        /* \"#utility.yul\":301:440   */\n    tag_270:\n        /* \"#utility.yul\":347:352   */\n      0x00\n        /* \"#utility.yul\":385:391   */\n      dup2\n        /* \"#utility.yul\":372:392   */\n      calldataload\n        /* \"#utility.yul\":363:392   */\n      swap1\n      pop\n        /* \"#utility.yul\":401:434   */\n      tag_272\n        /* \"#utility.yul\":428:433   */\n      dup2\n        /* \"#utility.yul\":401:434   */\n      tag_273\n      jump\t// in\n    tag_272:\n        /* \"#utility.yul\":301:440   */\n      swap3\n      swap2\n      pop\n      pop\n      jump\t// out\n        /* \"#utility.yul\":446:589   */\n    tag_274:\n        /* \"#utility.yul\":503:508   */\n      0x00\n        /* \"#utility.yul\":534:540   */\n      dup2\n        /* \"#utility.yul\":528:541   */\n      mload\n        /* \"#utility.yul\":519:541   */\n      swap1\n      pop\n        /* \"#utility.yul\":550:583   */\n      tag_276\n        /* \"#utility.yul\":577:582   */\n      dup2\n        /* \"#utility.yul\":550:583   */\n      tag_273\n      jump\t// in\n    tag_276:\n        /* \"#utility.yul\":446:589   */\n      swap3\n      swap2\n      pop\n      pop\n      jump\t// out\n        /* \"#utility.yul\":595:924   */\n    tag_53:\n        /* \"#utility.yul\":654:660   */\n      0x00\n        /* \"#utility.yul\":703:705   */\n      0x20\n        /* \"#utility.yul\":691:700   */\n      dup3\n        /* \"#utility.yul\":682:689   */\n      dup5\n        /* \"#utility.yul\":678:701   */\n      sub\n        /* \"#utility.yul\":674:706   */\n      slt\n        /* \"#utility.yul\":671:790   */\n      iszero\n      tag_278\n      jumpi\n        /* \"#utility.yul\":709:788   */\n      tag_279\n      tag_280\n      jump\t// in\n    tag_279:\n        /* \"#utility.yul\":671:790   */\n    tag_278:\n        /* \"#utility.yul\":829:830   */\n      0x00\n        /* \"#utility.yul\":854:907   */\n      tag_281\n        /* \"#utility.yul\":899:906   */\n      dup5\n        /* \"#utility.yul\":890:896   */\n      dup3\n        /* \"#utility.yul\":879:888   */\n      dup6\n        /* \"#utility.yul\":875:897   */\n      add\n        /* \"#utility.yul\":854:907   */\n      tag_263\n      jump\t// in\n    tag_281:\n        /* \"#utility.yul\":844:907   */\n      swap2\n      pop\n        /* \"#utility.yul\":800:917   */\n      pop\n        /* \"#utility.yul\":595:924   */\n      swap3\n      swap2\n      pop\n      pop\n      jump\t// out\n        /* \"#utility.yul\":930:1281   */\n    tag_106:\n        /* \"#utility.yul\":1000:1006   */\n      0x00\n        /* \"#utility.yul\":1049:1051   */\n      0x20\n        /* \"#utility.yul\":1037:1046   */\n      dup3\n        /* \"#utility.yul\":1028:1035   */\n      dup5\n        /* \"#utility.yul\":1024:1047   */\n      sub\n        /* \"#utility.yul\":1020:1052   */\n      slt\n        /* \"#utility.yul\":1017:1136   */\n      iszero\n      tag_283\n      jumpi\n        /* \"#utility.yul\":1055:1134   */\n      tag_284\n      tag_280\n      jump\t// in\n    tag_284:\n        /* \"#utility.yul\":1017:1136   */\n    tag_283:\n        /* \"#utility.yul\":1175:1176   */\n      0x00\n        /* \"#utility.yul\":1200:1264   */\n      tag_285\n        /* \"#utility.yul\":1256:1263   */\n      dup5\n        /* \"#utility.yul\":1247:1253   */\n      dup3\n        /* \"#utility.yul\":1236:1245   */\n      dup6\n        /* \"#utility.yul\":1232:1254   */\n      add\n        /* \"#utility.yul\":1200:1264   */\n      tag_267\n      jump\t// in\n    tag_285:\n        /* \"#utility.yul\":1190:1264   */\n      swap2\n      pop\n        /* \"#utility.yul\":1146:1274   */\n      pop\n        /* \"#utility.yul\":930:1281   */\n      swap3\n      swap2\n      pop\n      pop\n      jump\t// out\n        /* \"#utility.yul\":1287:1616   */\n    tag_65:\n        /* \"#utility.yul\":1346:1352   */\n      0x00\n        /* \"#utility.yul\":1395:1397   */\n      0x20\n        /* \"#utility.yul\":1383:1392   */\n      dup3\n        /* \"#utility.yul\":1374:1381   */\n      dup5\n        /* \"#utility.yul\":1370:1393   */\n      sub\n        /* \"#utility.yul\":1366:1398   */\n      slt\n        /* \"#utility.yul\":1363:1482   */\n      iszero\n      tag_287\n      jumpi\n        /* \"#utility.yul\":1401:1480   */\n      tag_288\n      tag_280\n      jump\t// in\n    tag_288:\n        /* \"#utility.yul\":1363:1482   */\n    tag_287:\n        /* \"#utility.yul\":1521:1522   */\n      0x00\n        /* \"#utility.yul\":1546:1599   */\n      tag_289\n        /* \"#utility.yul\":1591:1598   */\n      dup5\n        /* \"#utility.yul\":1582:1588   */\n      dup3\n        /* \"#utility.yul\":1571:1580   */\n      dup6\n        /* \"#utility.yul\":1567:1589   */\n      add\n        /* \"#utility.yul\":1546:1599   */\n      tag_270\n      jump\t// in\n    tag_289:\n        /* \"#utility.yul\":1536:1599   */\n      swap2\n      pop\n        /* \"#utility.yul\":1492:1609   */\n      pop\n        /* \"#utility.yul\":1287:1616   */\n      swap3\n      swap2\n      pop\n      pop\n      jump\t// out\n        /* \"#utility.yul\":1622:1973   */\n    tag_97:\n        /* \"#utility.yul\":1692:1698   */\n      0x00\n        /* \"#utility.yul\":1741:1743   */\n      0x20\n        /* \"#utility.yul\":1729:1738   */\n      dup3\n        /* \"#utility.yul\":1720:1727   */\n      dup5\n        /* \"#utility.yul\":1716:1739   */\n      sub\n        /* \"#utility.yul\":1712:1744   */\n      slt\n        /* \"#utility.yul\":1709:1828   */\n      iszero\n      tag_291\n      jumpi\n        /* \"#utility.yul\":1747:1826   */\n      tag_292\n      tag_280\n      jump\t// in\n    tag_292:\n        /* \"#utility.yul\":1709:1828   */\n    tag_291:\n        /* \"#utility.yul\":1867:1868   */\n      0x00\n        /* \"#utility.yul\":1892:1956   */\n      tag_293\n        /* \"#utility.yul\":1948:1955   */\n      dup5\n        /* \"#utility.yul\":1939:1945   */\n      dup3\n        /* \"#utility.yul\":1928:1937   */\n      dup6\n        /* \"#utility.yul\":1924:1946   */\n      add\n        /* \"#utility.yul\":1892:1956   */\n      tag_274\n      jump\t// in\n    tag_293:\n        /* \"#utility.yul\":1882:1956   */\n      swap2\n      pop\n        /* \"#utility.yul\":1838:1966   */\n      pop\n        /* \"#utility.yul\":1622:1973   */\n      swap3\n      swap2\n      pop\n      pop\n      jump\t// out\n        /* \"#utility.yul\":1979:2453   */\n    tag_47:\n        /* \"#utility.yul\":2047:2053   */\n      0x00\n        /* \"#utility.yul\":2055:2061   */\n      dup1\n        /* \"#utility.yul\":2104:2106   */\n      0x40\n        /* \"#utility.yul\":2092:2101   */\n      dup4\n        /* \"#utility.yul\":2083:2090   */\n      dup6\n        /* \"#utility.yul\":2079:2102   */\n      sub\n        /* \"#utility.yul\":2075:2107   */\n      slt\n        /* \"#utility.yul\":2072:2191   */\n      iszero\n      tag_295\n      jumpi\n        /* \"#utility.yul\":2110:2189   */\n      tag_296\n      tag_280\n      jump\t// in\n    tag_296:\n        /* \"#utility.yul\":2072:2191   */\n    tag_295:\n        /* \"#utility.yul\":2230:2231   */\n      0x00\n        /* \"#utility.yul\":2255:2308   */\n      tag_297\n        /* \"#utility.yul\":2300:2307   */\n      dup6\n        /* \"#utility.yul\":2291:2297   */\n      dup3\n        /* \"#utility.yul\":2280:2289   */\n      dup7\n        /* \"#utility.yul\":2276:2298   */\n      add\n        /* \"#utility.yul\":2255:2308   */\n      tag_270\n      jump\t// in\n    tag_297:\n        /* \"#utility.yul\":2245:2308   */\n      swap3\n      pop\n        /* \"#utility.yul\":2201:2318   */\n      pop\n        /* \"#utility.yul\":2357:2359   */\n      0x20\n        /* \"#utility.yul\":2383:2436   */\n      tag_298\n        /* \"#utility.yul\":2428:2435   */\n      dup6\n        /* \"#utility.yul\":2419:2425   */\n      dup3\n        /* \"#utility.yul\":2408:2417   */\n      dup7\n        /* \"#utility.yul\":2404:2426   */\n      add\n        /* \"#utility.yul\":2383:2436   */\n      tag_270\n      jump\t// in\n    tag_298:\n        /* \"#utility.yul\":2373:2436   */\n      swap2\n      pop\n        /* \"#utility.yul\":2328:2446   */\n      pop\n        /* \"#utility.yul\":1979:2453   */\n      swap3\n      pop\n      swap3\n      swap1\n      pop\n      jump\t// out\n        /* \"#utility.yul\":2459:2638   */\n    tag_299:\n        /* \"#utility.yul\":2528:2538   */\n      0x00\n        /* \"#utility.yul\":2549:2595   */\n      tag_301\n        /* \"#utility.yul\":2591:2594   */\n      dup4\n        /* \"#utility.yul\":2583:2589   */\n      dup4\n        /* \"#utility.yul\":2549:2595   */\n      tag_302\n      jump\t// in\n    tag_301:\n        /* \"#utility.yul\":2627:2631   */\n      0x20\n        /* \"#utility.yul\":2622:2625   */\n      dup4\n        /* \"#utility.yul\":2618:2632   */\n      add\n        /* \"#utility.yul\":2604:2632   */\n      swap1\n      pop\n        /* \"#utility.yul\":2459:2638   */\n      swap3\n      swap2\n      pop\n      pop\n      jump\t// out\n        /* \"#utility.yul\":2644:2915   */\n    tag_303:\n        /* \"#utility.yul\":2759:2769   */\n      0x00\n        /* \"#utility.yul\":2780:2872   */\n      tag_305\n        /* \"#utility.yul\":2868:2871   */\n      dup4\n        /* \"#utility.yul\":2860:2866   */\n      dup4\n        /* \"#utility.yul\":2780:2872   */\n      tag_306\n      jump\t// in\n    tag_305:\n        /* \"#utility.yul\":2904:2908   */\n      0xa0\n        /* \"#utility.yul\":2899:2902   */\n      dup4\n        /* \"#utility.yul\":2895:2909   */\n      add\n        /* \"#utility.yul\":2881:2909   */\n      swap1\n      pop\n        /* \"#utility.yul\":2644:2915   */\n      swap3\n      swap2\n      pop\n      pop\n      jump\t// out\n        /* \"#utility.yul\":2921:3100   */\n    tag_307:\n        /* \"#utility.yul\":2990:3000   */\n      0x00\n        /* \"#utility.yul\":3011:3057   */\n      tag_309\n        /* \"#utility.yul\":3053:3056   */\n      dup4\n        /* \"#utility.yul\":3045:3051   */\n      dup4\n        /* \"#utility.yul\":3011:3057   */\n      tag_310\n      jump\t// in\n    tag_309:\n        /* \"#utility.yul\":3089:3093   */\n      0x20\n        /* \"#utility.yul\":3084:3087   */\n      dup4\n        /* \"#utility.yul\":3080:3094   */\n      add\n        /* \"#utility.yul\":3066:3094   */\n      swap1\n      pop\n        /* \"#utility.yul\":2921:3100   */\n      swap3\n      swap2\n      pop\n      pop\n      jump\t// out\n        /* \"#utility.yul\":3106:3214   */\n    tag_302:\n        /* \"#utility.yul\":3183:3207   */\n      tag_312\n        /* \"#utility.yul\":3201:3206   */\n      dup2\n        /* \"#utility.yul\":3183:3207   */\n      tag_313\n      jump\t// in\n    tag_312:\n        /* \"#utility.yul\":3178:3181   */\n      dup3\n        /* \"#utility.yul\":3171:3208   */\n      mstore\n        /* \"#utility.yul\":3106:3214   */\n      pop\n      pop\n      jump\t// out\n        /* \"#utility.yul\":3220:3338   */\n    tag_314:\n        /* \"#utility.yul\":3307:3331   */\n      tag_316\n        /* \"#utility.yul\":3325:3330   */\n      dup2\n        /* \"#utility.yul\":3307:3331   */\n      tag_313\n      jump\t// in\n    tag_316:\n        /* \"#utility.yul\":3302:3305   */\n      dup3\n        /* \"#utility.yul\":3295:3332   */\n      mstore\n        /* \"#utility.yul\":3220:3338   */\n      pop\n      pop\n      jump\t// out\n        /* \"#utility.yul\":3344:3501   */\n    tag_317:\n        /* \"#utility.yul\":3449:3494   */\n      tag_319\n        /* \"#utility.yul\":3469:3493   */\n      tag_320\n        /* \"#utility.yul\":3487:3492   */\n      dup3\n        /* \"#utility.yul\":3469:3493   */\n      tag_313\n      jump\t// in\n    tag_320:\n        /* \"#utility.yul\":3449:3494   */\n      tag_321\n      jump\t// in\n    tag_319:\n        /* \"#utility.yul\":3444:3447   */\n      dup3\n        /* \"#utility.yul\":3437:3495   */\n      mstore\n        /* \"#utility.yul\":3344:3501   */\n      pop\n      pop\n      jump\t// out\n        /* \"#utility.yul\":3537:4269   */\n    tag_322:\n        /* \"#utility.yul\":3656:3659   */\n      0x00\n        /* \"#utility.yul\":3685:3739   */\n      tag_324\n        /* \"#utility.yul\":3733:3738   */\n      dup3\n        /* \"#utility.yul\":3685:3739   */\n      tag_325\n      jump\t// in\n    tag_324:\n        /* \"#utility.yul\":3755:3841   */\n      tag_326\n        /* \"#utility.yul\":3834:3840   */\n      dup2\n        /* \"#utility.yul\":3829:3832   */\n      dup6\n        /* \"#utility.yul\":3755:3841   */\n      tag_327\n      jump\t// in\n    tag_326:\n        /* \"#utility.yul\":3748:3841   */\n      swap4\n      pop\n        /* \"#utility.yul\":3865:3921   */\n      tag_328\n        /* \"#utility.yul\":3915:3920   */\n      dup4\n        /* \"#utility.yul\":3865:3921   */\n      tag_329\n      jump\t// in\n    tag_328:\n        /* \"#utility.yul\":3944:3951   */\n      dup1\n        /* \"#utility.yul\":3975:3976   */\n      0x00\n        /* \"#utility.yul\":3960:4244   */\n    tag_330:\n        /* \"#utility.yul\":3985:3991   */\n      dup4\n        /* \"#utility.yul\":3982:3983   */\n      dup2\n        /* \"#utility.yul\":3979:3992   */\n      lt\n        /* \"#utility.yul\":3960:4244   */\n      iszero\n      tag_332\n      jumpi\n        /* \"#utility.yul\":4061:4067   */\n      dup2\n        /* \"#utility.yul\":4055:4068   */\n      mload\n        /* \"#utility.yul\":4088:4151   */\n      tag_333\n        /* \"#utility.yul\":4147:4150   */\n      dup9\n        /* \"#utility.yul\":4132:4145   */\n      dup3\n        /* \"#utility.yul\":4088:4151   */\n      tag_299\n      jump\t// in\n    tag_333:\n        /* \"#utility.yul\":4081:4151   */\n      swap8\n      pop\n        /* \"#utility.yul\":4174:4234   */\n      tag_334\n        /* \"#utility.yul\":4227:4233   */\n      dup4\n        /* \"#utility.yul\":4174:4234   */\n      tag_335\n      jump\t// in\n    tag_334:\n        /* \"#utility.yul\":4164:4234   */\n      swap3\n      pop\n        /* \"#utility.yul\":4020:4244   */\n      pop\n        /* \"#utility.yul\":4007:4008   */\n      0x01\n        /* \"#utility.yul\":4004:4005   */\n      dup2\n        /* \"#utility.yul\":4000:4009   */\n      add\n        /* \"#utility.yul\":3995:4009   */\n      swap1\n      pop\n        /* \"#utility.yul\":3960:4244   */\n      jump(tag_330)\n    tag_332:\n        /* \"#utility.yul\":3964:3978   */\n      pop\n        /* \"#utility.yul\":4260:4263   */\n      dup6\n        /* \"#utility.yul\":4253:4263   */\n      swap4\n      pop\n        /* \"#utility.yul\":3661:4269   */\n      pop\n      pop\n      pop\n        /* \"#utility.yul\":3537:4269   */\n      swap3\n      swap2\n      pop\n      pop\n      jump\t// out\n        /* \"#utility.yul\":4337:5253   */\n    tag_336:\n        /* \"#utility.yul\":4502:4505   */\n      0x00\n        /* \"#utility.yul\":4531:4608   */\n      tag_338\n        /* \"#utility.yul\":4602:4607   */\n      dup3\n        /* \"#utility.yul\":4531:4608   */\n      tag_339\n      jump\t// in\n    tag_338:\n        /* \"#utility.yul\":4624:4733   */\n      tag_340\n        /* \"#utility.yul\":4726:4732   */\n      dup2\n        /* \"#utility.yul\":4721:4724   */\n      dup6\n        /* \"#utility.yul\":4624:4733   */\n      tag_341\n      jump\t// in\n    tag_340:\n        /* \"#utility.yul\":4617:4733   */\n      swap4\n      pop\n        /* \"#utility.yul\":4757:4836   */\n      tag_342\n        /* \"#utility.yul\":4830:4835   */\n      dup4\n        /* \"#utility.yul\":4757:4836   */\n      tag_343\n      jump\t// in\n    tag_342:\n        /* \"#utility.yul\":4859:4866   */\n      dup1\n        /* \"#utility.yul\":4890:4891   */\n      0x00\n        /* \"#utility.yul\":4875:5228   */\n    tag_344:\n        /* \"#utility.yul\":4900:4906   */\n      dup4\n        /* \"#utility.yul\":4897:4898   */\n      dup2\n        /* \"#utility.yul\":4894:4907   */\n      lt\n        /* \"#utility.yul\":4875:5228   */\n      iszero\n      tag_346\n      jumpi\n        /* \"#utility.yul\":4976:4982   */\n      dup2\n        /* \"#utility.yul\":4970:4983   */\n      mload\n        /* \"#utility.yul\":5003:5112   */\n      tag_347\n        /* \"#utility.yul\":5108:5111   */\n      dup9\n        /* \"#utility.yul\":5093:5106   */\n      dup3\n        /* \"#utility.yul\":5003:5112   */\n      tag_303\n      jump\t// in\n    tag_347:\n        /* \"#utility.yul\":4996:5112   */\n      swap8\n      pop\n        /* \"#utility.yul\":5135:5218   */\n      tag_348\n        /* \"#utility.yul\":5211:5217   */\n      dup4\n        /* \"#utility.yul\":5135:5218   */\n      tag_349\n      jump\t// in\n    tag_348:\n        /* \"#utility.yul\":5125:5218   */\n      swap3\n      pop\n        /* \"#utility.yul\":4935:5228   */\n      pop\n        /* \"#utility.yul\":4922:4923   */\n      0x01\n        /* \"#utility.yul\":4919:4920   */\n      dup2\n        /* \"#utility.yul\":4915:4924   */\n      add\n        /* \"#utility.yul\":4910:4924   */\n      swap1\n      pop\n        /* \"#utility.yul\":4875:5228   */\n      jump(tag_344)\n    tag_346:\n        /* \"#utility.yul\":4879:4893   */\n      pop\n        /* \"#utility.yul\":5244:5247   */\n      dup6\n        /* \"#utility.yul\":5237:5247   */\n      swap4\n      pop\n        /* \"#utility.yul\":4507:5253   */\n      pop\n      pop\n      pop\n        /* \"#utility.yul\":4337:5253   */\n      swap3\n      swap2\n      pop\n      pop\n      jump\t// out\n        /* \"#utility.yul\":5289:6021   */\n    tag_350:\n        /* \"#utility.yul\":5408:5411   */\n      0x00\n        /* \"#utility.yul\":5437:5491   */\n      tag_352\n        /* \"#utility.yul\":5485:5490   */\n      dup3\n        /* \"#utility.yul\":5437:5491   */\n      tag_353\n      jump\t// in\n    tag_352:\n        /* \"#utility.yul\":5507:5593   */\n      tag_354\n        /* \"#utility.yul\":5586:5592   */\n      dup2\n        /* \"#utility.yul\":5581:5584   */\n      dup6\n        /* \"#utility.yul\":5507:5593   */\n      tag_355\n      jump\t// in\n    tag_354:\n        /* \"#utility.yul\":5500:5593   */\n      swap4\n      pop\n        /* \"#utility.yul\":5617:5673   */\n      tag_356\n        /* \"#utility.yul\":5667:5672   */\n      dup4\n        /* \"#utility.yul\":5617:5673   */\n      tag_357\n      jump\t// in\n    tag_356:\n        /* \"#utility.yul\":5696:5703   */\n      dup1\n        /* \"#utility.yul\":5727:5728   */\n      0x00\n        /* \"#utility.yul\":5712:5996   */\n    tag_358:\n        /* \"#utility.yul\":5737:5743   */\n      dup4\n        /* \"#utility.yul\":5734:5735   */\n      dup2\n        /* \"#utility.yul\":5731:5744   */\n      lt\n        /* \"#utility.yul\":5712:5996   */\n      iszero\n      tag_360\n      jumpi\n        /* \"#utility.yul\":5813:5819   */\n      dup2\n        /* \"#utility.yul\":5807:5820   */\n      mload\n        /* \"#utility.yul\":5840:5903   */\n      tag_361\n        /* \"#utility.yul\":5899:5902   */\n      dup9\n        /* \"#utility.yul\":5884:5897   */\n      dup3\n        /* \"#utility.yul\":5840:5903   */\n      tag_307\n      jump\t// in\n    tag_361:\n        /* \"#utility.yul\":5833:5903   */\n      swap8\n      pop\n        /* \"#utility.yul\":5926:5986   */\n      tag_362\n        /* \"#utility.yul\":5979:5985   */\n      dup4\n        /* \"#utility.yul\":5926:5986   */\n      tag_363\n      jump\t// in\n    tag_362:\n        /* \"#utility.yul\":5916:5986   */\n      swap3\n      pop\n        /* \"#utility.yul\":5772:5996   */\n      pop\n        /* \"#utility.yul\":5759:5760   */\n      0x01\n        /* \"#utility.yul\":5756:5757   */\n      dup2\n        /* \"#utility.yul\":5752:5761   */\n      add\n        /* \"#utility.yul\":5747:5761   */\n      swap1\n      pop\n        /* \"#utility.yul\":5712:5996   */\n      jump(tag_358)\n    tag_360:\n        /* \"#utility.yul\":5716:5730   */\n      pop\n        /* \"#utility.yul\":6012:6015   */\n      dup6\n        /* \"#utility.yul\":6005:6015   */\n      swap4\n      pop\n        /* \"#utility.yul\":5413:6021   */\n      pop\n      pop\n      pop\n        /* \"#utility.yul\":5289:6021   */\n      swap3\n      swap2\n      pop\n      pop\n      jump\t// out\n        /* \"#utility.yul\":6027:6186   */\n    tag_364:\n        /* \"#utility.yul\":6128:6179   */\n      tag_366\n        /* \"#utility.yul\":6173:6178   */\n      dup2\n        /* \"#utility.yul\":6128:6179   */\n      tag_367\n      jump\t// in\n    tag_366:\n        /* \"#utility.yul\":6123:6126   */\n      dup3\n        /* \"#utility.yul\":6116:6180   */\n      mstore\n        /* \"#utility.yul\":6027:6186   */\n      pop\n      pop\n      jump\t// out\n        /* \"#utility.yul\":6192:6373   */\n    tag_368:\n        /* \"#utility.yul\":6304:6366   */\n      tag_370\n        /* \"#utility.yul\":6360:6365   */\n      dup2\n        /* \"#utility.yul\":6304:6366   */\n      tag_371\n      jump\t// in\n    tag_370:\n        /* \"#utility.yul\":6299:6302   */\n      dup3\n        /* \"#utility.yul\":6292:6367   */\n      mstore\n        /* \"#utility.yul\":6192:6373   */\n      pop\n      pop\n      jump\t// out\n        /* \"#utility.yul\":6379:6526   */\n    tag_372:\n        /* \"#utility.yul\":6474:6519   */\n      tag_374\n        /* \"#utility.yul\":6513:6518   */\n      dup2\n        /* \"#utility.yul\":6474:6519   */\n      tag_375\n      jump\t// in\n    tag_374:\n        /* \"#utility.yul\":6469:6472   */\n      dup3\n        /* \"#utility.yul\":6462:6520   */\n      mstore\n        /* \"#utility.yul\":6379:6526   */\n      pop\n      pop\n      jump\t// out\n        /* \"#utility.yul\":6532:6898   */\n    tag_376:\n        /* \"#utility.yul\":6674:6677   */\n      0x00\n        /* \"#utility.yul\":6695:6762   */\n      tag_378\n        /* \"#utility.yul\":6759:6761   */\n      0x26\n        /* \"#utility.yul\":6754:6757   */\n      dup4\n        /* \"#utility.yul\":6695:6762   */\n      tag_379\n      jump\t// in\n    tag_378:\n        /* \"#utility.yul\":6688:6762   */\n      swap2\n      pop\n        /* \"#utility.yul\":6771:6864   */\n      tag_380\n        /* \"#utility.yul\":6860:6863   */\n      dup3\n        /* \"#utility.yul\":6771:6864   */\n      tag_381\n      jump\t// in\n    tag_380:\n        /* \"#utility.yul\":6889:6891   */\n      0x40\n        /* \"#utility.yul\":6884:6887   */\n      dup3\n        /* \"#utility.yul\":6880:6892   */\n      add\n        /* \"#utility.yul\":6873:6892   */\n      swap1\n      pop\n        /* \"#utility.yul\":6532:6898   */\n      swap2\n      swap1\n      pop\n      jump\t// out\n        /* \"#utility.yul\":6904:7270   */\n    tag_382:\n        /* \"#utility.yul\":7046:7049   */\n      0x00\n        /* \"#utility.yul\":7067:7134   */\n      tag_384\n        /* \"#utility.yul\":7131:7133   */\n      0x20\n        /* \"#utility.yul\":7126:7129   */\n      dup4\n        /* \"#utility.yul\":7067:7134   */\n      tag_379\n      jump\t// in\n    tag_384:\n        /* \"#utility.yul\":7060:7134   */\n      swap2\n      pop\n        /* \"#utility.yul\":7143:7236   */\n      tag_385\n        /* \"#utility.yul\":7232:7235   */\n      dup3\n        /* \"#utility.yul\":7143:7236   */\n      tag_386\n      jump\t// in\n    tag_385:\n        /* \"#utility.yul\":7261:7263   */\n      0x20\n        /* \"#utility.yul\":7256:7259   */\n      dup3\n        /* \"#utility.yul\":7252:7264   */\n      add\n        /* \"#utility.yul\":7245:7264   */\n      swap1\n      pop\n        /* \"#utility.yul\":6904:7270   */\n      swap2\n      swap1\n      pop\n      jump\t// out\n        /* \"#utility.yul\":7334:8381   */\n    tag_306:\n        /* \"#utility.yul\":7467:7471   */\n      0xa0\n        /* \"#utility.yul\":7462:7465   */\n      dup3\n        /* \"#utility.yul\":7458:7472   */\n      add\n        /* \"#utility.yul\":7562:7566   */\n      0x00\n        /* \"#utility.yul\":7555:7560   */\n      dup3\n        /* \"#utility.yul\":7551:7567   */\n      add\n        /* \"#utility.yul\":7545:7568   */\n      mload\n        /* \"#utility.yul\":7581:7644   */\n      tag_388\n        /* \"#utility.yul\":7638:7642   */\n      0x00\n        /* \"#utility.yul\":7633:7636   */\n      dup6\n        /* \"#utility.yul\":7629:7643   */\n      add\n        /* \"#utility.yul\":7615:7627   */\n      dup3\n        /* \"#utility.yul\":7581:7644   */\n      tag_310\n      jump\t// in\n    tag_388:\n        /* \"#utility.yul\":7482:7654   */\n      pop\n        /* \"#utility.yul\":7745:7749   */\n      0x20\n        /* \"#utility.yul\":7738:7743   */\n      dup3\n        /* \"#utility.yul\":7734:7750   */\n      add\n        /* \"#utility.yul\":7728:7751   */\n      mload\n        /* \"#utility.yul\":7764:7827   */\n      tag_389\n        /* \"#utility.yul\":7821:7825   */\n      0x20\n        /* \"#utility.yul\":7816:7819   */\n      dup6\n        /* \"#utility.yul\":7812:7826   */\n      add\n        /* \"#utility.yul\":7798:7810   */\n      dup3\n        /* \"#utility.yul\":7764:7827   */\n      tag_310\n      jump\t// in\n    tag_389:\n        /* \"#utility.yul\":7664:7837   */\n      pop\n        /* \"#utility.yul\":7921:7925   */\n      0x40\n        /* \"#utility.yul\":7914:7919   */\n      dup3\n        /* \"#utility.yul\":7910:7926   */\n      add\n        /* \"#utility.yul\":7904:7927   */\n      mload\n        /* \"#utility.yul\":7940:8003   */\n      tag_390\n        /* \"#utility.yul\":7997:8001   */\n      0x40\n        /* \"#utility.yul\":7992:7995   */\n      dup6\n        /* \"#utility.yul\":7988:8002   */\n      add\n        /* \"#utility.yul\":7974:7986   */\n      dup3\n        /* \"#utility.yul\":7940:8003   */\n      tag_310\n      jump\t// in\n    tag_390:\n        /* \"#utility.yul\":7847:8013   */\n      pop\n        /* \"#utility.yul\":8098:8102   */\n      0x60\n        /* \"#utility.yul\":8091:8096   */\n      dup3\n        /* \"#utility.yul\":8087:8103   */\n      add\n        /* \"#utility.yul\":8081:8104   */\n      mload\n        /* \"#utility.yul\":8117:8180   */\n      tag_391\n        /* \"#utility.yul\":8174:8178   */\n      0x60\n        /* \"#utility.yul\":8169:8172   */\n      dup6\n        /* \"#utility.yul\":8165:8179   */\n      add\n        /* \"#utility.yul\":8151:8163   */\n      dup3\n        /* \"#utility.yul\":8117:8180   */\n      tag_310\n      jump\t// in\n    tag_391:\n        /* \"#utility.yul\":8023:8190   */\n      pop\n        /* \"#utility.yul\":8282:8286   */\n      0x80\n        /* \"#utility.yul\":8275:8280   */\n      dup3\n        /* \"#utility.yul\":8271:8287   */\n      add\n        /* \"#utility.yul\":8265:8288   */\n      mload\n        /* \"#utility.yul\":8301:8364   */\n      tag_392\n        /* \"#utility.yul\":8358:8362   */\n      0x80\n        /* \"#utility.yul\":8353:8356   */\n      dup6\n        /* \"#utility.yul\":8349:8363   */\n      add\n        /* \"#utility.yul\":8335:8347   */\n      dup3\n        /* \"#utility.yul\":8301:8364   */\n      tag_302\n      jump\t// in\n    tag_392:\n        /* \"#utility.yul\":8200:8374   */\n      pop\n        /* \"#utility.yul\":7436:8381   */\n      pop\n        /* \"#utility.yul\":7334:8381   */\n      pop\n      pop\n      jump\t// out\n        /* \"#utility.yul\":8387:8495   */\n    tag_310:\n        /* \"#utility.yul\":8464:8488   */\n      tag_394\n        /* \"#utility.yul\":8482:8487   */\n      dup2\n        /* \"#utility.yul\":8464:8488   */\n      tag_395\n      jump\t// in\n    tag_394:\n        /* \"#utility.yul\":8459:8462   */\n      dup3\n        /* \"#utility.yul\":8452:8489   */\n      mstore\n        /* \"#utility.yul\":8387:8495   */\n      pop\n      pop\n      jump\t// out\n        /* \"#utility.yul\":8501:8619   */\n    tag_396:\n        /* \"#utility.yul\":8588:8612   */\n      tag_398\n        /* \"#utility.yul\":8606:8611   */\n      dup2\n        /* \"#utility.yul\":8588:8612   */\n      tag_395\n      jump\t// in\n    tag_398:\n        /* \"#utility.yul\":8583:8586   */\n      dup3\n        /* \"#utility.yul\":8576:8613   */\n      mstore\n        /* \"#utility.yul\":8501:8619   */\n      pop\n      pop\n      jump\t// out\n        /* \"#utility.yul\":8625:8782   */\n    tag_399:\n        /* \"#utility.yul\":8730:8775   */\n      tag_401\n        /* \"#utility.yul\":8750:8774   */\n      tag_402\n        /* \"#utility.yul\":8768:8773   */\n      dup3\n        /* \"#utility.yul\":8750:8774   */\n      tag_395\n      jump\t// in\n    tag_402:\n        /* \"#utility.yul\":8730:8775   */\n      tag_403\n      jump\t// in\n    tag_401:\n        /* \"#utility.yul\":8725:8728   */\n      dup3\n        /* \"#utility.yul\":8718:8776   */\n      mstore\n        /* \"#utility.yul\":8625:8782   */\n      pop\n      pop\n      jump\t// out\n        /* \"#utility.yul\":8788:9467   */\n    tag_261:\n        /* \"#utility.yul\":8984:8987   */\n      0x00\n        /* \"#utility.yul\":8999:9074   */\n      tag_405\n        /* \"#utility.yul\":9070:9073   */\n      dup3\n        /* \"#utility.yul\":9061:9067   */\n      dup8\n        /* \"#utility.yul\":8999:9074   */\n      tag_399\n      jump\t// in\n    tag_405:\n        /* \"#utility.yul\":9099:9101   */\n      0x20\n        /* \"#utility.yul\":9094:9097   */\n      dup3\n        /* \"#utility.yul\":9090:9102   */\n      add\n        /* \"#utility.yul\":9083:9102   */\n      swap2\n      pop\n        /* \"#utility.yul\":9112:9187   */\n      tag_406\n        /* \"#utility.yul\":9183:9186   */\n      dup3\n        /* \"#utility.yul\":9174:9180   */\n      dup7\n        /* \"#utility.yul\":9112:9187   */\n      tag_399\n      jump\t// in\n    tag_406:\n        /* \"#utility.yul\":9212:9214   */\n      0x20\n        /* \"#utility.yul\":9207:9210   */\n      dup3\n        /* \"#utility.yul\":9203:9215   */\n      add\n        /* \"#utility.yul\":9196:9215   */\n      swap2\n      pop\n        /* \"#utility.yul\":9225:9300   */\n      tag_407\n        /* \"#utility.yul\":9296:9299   */\n      dup3\n        /* \"#utility.yul\":9287:9293   */\n      dup6\n        /* \"#utility.yul\":9225:9300   */\n      tag_399\n      jump\t// in\n    tag_407:\n        /* \"#utility.yul\":9325:9327   */\n      0x20\n        /* \"#utility.yul\":9320:9323   */\n      dup3\n        /* \"#utility.yul\":9316:9328   */\n      add\n        /* \"#utility.yul\":9309:9328   */\n      swap2\n      pop\n        /* \"#utility.yul\":9338:9413   */\n      tag_408\n        /* \"#utility.yul\":9409:9412   */\n      dup3\n        /* \"#utility.yul\":9400:9406   */\n      dup5\n        /* \"#utility.yul\":9338:9413   */\n      tag_317\n      jump\t// in\n    tag_408:\n        /* \"#utility.yul\":9438:9440   */\n      0x14\n        /* \"#utility.yul\":9433:9436   */\n      dup3\n        /* \"#utility.yul\":9429:9441   */\n      add\n        /* \"#utility.yul\":9422:9441   */\n      swap2\n      pop\n        /* \"#utility.yul\":9458:9461   */\n      dup2\n        /* \"#utility.yul\":9451:9461   */\n      swap1\n      pop\n        /* \"#utility.yul\":8788:9467   */\n      swap6\n      swap5\n      pop\n      pop\n      pop\n      pop\n      pop\n      jump\t// out\n        /* \"#utility.yul\":9473:9695   */\n    tag_58:\n        /* \"#utility.yul\":9566:9570   */\n      0x00\n        /* \"#utility.yul\":9604:9606   */\n      0x20\n        /* \"#utility.yul\":9593:9602   */\n      dup3\n        /* \"#utility.yul\":9589:9607   */\n      add\n        /* \"#utility.yul\":9581:9607   */\n      swap1\n      pop\n        /* \"#utility.yul\":9617:9688   */\n      tag_410\n        /* \"#utility.yul\":9685:9686   */\n      0x00\n        /* \"#utility.yul\":9674:9683   */\n      dup4\n        /* \"#utility.yul\":9670:9687   */\n      add\n        /* \"#utility.yul\":9661:9667   */\n      dup5\n        /* \"#utility.yul\":9617:9688   */\n      tag_314\n      jump\t// in\n    tag_410:\n        /* \"#utility.yul\":9473:9695   */\n      swap3\n      swap2\n      pop\n      pop\n      jump\t// out\n        /* \"#utility.yul\":9701:10049   */\n    tag_108:\n        /* \"#utility.yul\":9830:9834   */\n      0x00\n        /* \"#utility.yul\":9868:9870   */\n      0x40\n        /* \"#utility.yul\":9857:9866   */\n      dup3\n        /* \"#utility.yul\":9853:9871   */\n      add\n        /* \"#utility.yul\":9845:9871   */\n      swap1\n      pop\n        /* \"#utility.yul\":9881:9952   */\n      tag_412\n        /* \"#utility.yul\":9949:9950   */\n      0x00\n        /* \"#utility.yul\":9938:9947   */\n      dup4\n        /* \"#utility.yul\":9934:9951   */\n      add\n        /* \"#utility.yul\":9925:9931   */\n      dup6\n        /* \"#utility.yul\":9881:9952   */\n      tag_314\n      jump\t// in\n    tag_412:\n        /* \"#utility.yul\":9962:10042   */\n      tag_413\n        /* \"#utility.yul\":10038:10040   */\n      0x20\n        /* \"#utility.yul\":10027:10036   */\n      dup4\n        /* \"#utility.yul\":10023:10041   */\n      add\n        /* \"#utility.yul\":10014:10020   */\n      dup5\n        /* \"#utility.yul\":9962:10042   */\n      tag_372\n      jump\t// in\n    tag_413:\n        /* \"#utility.yul\":9701:10049   */\n      swap4\n      swap3\n      pop\n      pop\n      pop\n      jump\t// out\n        /* \"#utility.yul\":10055:10387   */\n    tag_178:\n        /* \"#utility.yul\":10176:10180   */\n      0x00\n        /* \"#utility.yul\":10214:10216   */\n      0x40\n        /* \"#utility.yul\":10203:10212   */\n      dup3\n        /* \"#utility.yul\":10199:10217   */\n      add\n        /* \"#utility.yul\":10191:10217   */\n      swap1\n      pop\n        /* \"#utility.yul\":10227:10298   */\n      tag_415\n        /* \"#utility.yul\":10295:10296   */\n      0x00\n        /* \"#utility.yul\":10284:10293   */\n      dup4\n        /* \"#utility.yul\":10280:10297   */\n      add\n        /* \"#utility.yul\":10271:10277   */\n      dup6\n        /* \"#utility.yul\":10227:10298   */\n      tag_314\n      jump\t// in\n    tag_415:\n        /* \"#utility.yul\":10308:10380   */\n      tag_416\n        /* \"#utility.yul\":10376:10378   */\n      0x20\n        /* \"#utility.yul\":10365:10374   */\n      dup4\n        /* \"#utility.yul\":10361:10379   */\n      add\n        /* \"#utility.yul\":10352:10358   */\n      dup5\n        /* \"#utility.yul\":10308:10380   */\n      tag_396\n      jump\t// in\n    tag_416:\n        /* \"#utility.yul\":10055:10387   */\n      swap4\n      swap3\n      pop\n      pop\n      pop\n      jump\t// out\n        /* \"#utility.yul\":10393:11027   */\n    tag_41:\n        /* \"#utility.yul\":10614:10618   */\n      0x00\n        /* \"#utility.yul\":10652:10654   */\n      0x40\n        /* \"#utility.yul\":10641:10650   */\n      dup3\n        /* \"#utility.yul\":10637:10655   */\n      add\n        /* \"#utility.yul\":10629:10655   */\n      swap1\n      pop\n        /* \"#utility.yul\":10701:10710   */\n      dup2\n        /* \"#utility.yul\":10695:10699   */\n      dup2\n        /* \"#utility.yul\":10691:10711   */\n      sub\n        /* \"#utility.yul\":10687:10688   */\n      0x00\n        /* \"#utility.yul\":10676:10685   */\n      dup4\n        /* \"#utility.yul\":10672:10689   */\n      add\n        /* \"#utility.yul\":10665:10712   */\n      mstore\n        /* \"#utility.yul\":10729:10837   */\n      tag_418\n        /* \"#utility.yul\":10832:10836   */\n      dup2\n        /* \"#utility.yul\":10823:10829   */\n      dup6\n        /* \"#utility.yul\":10729:10837   */\n      tag_322\n      jump\t// in\n    tag_418:\n        /* \"#utility.yul\":10721:10837   */\n      swap1\n      pop\n        /* \"#utility.yul\":10884:10893   */\n      dup2\n        /* \"#utility.yul\":10878:10882   */\n      dup2\n        /* \"#utility.yul\":10874:10894   */\n      sub\n        /* \"#utility.yul\":10869:10871   */\n      0x20\n        /* \"#utility.yul\":10858:10867   */\n      dup4\n        /* \"#utility.yul\":10854:10872   */\n      add\n        /* \"#utility.yul\":10847:10895   */\n      mstore\n        /* \"#utility.yul\":10912:11020   */\n      tag_419\n        /* \"#utility.yul\":11015:11019   */\n      dup2\n        /* \"#utility.yul\":11006:11012   */\n      dup5\n        /* \"#utility.yul\":10912:11020   */\n      tag_350\n      jump\t// in\n    tag_419:\n        /* \"#utility.yul\":10904:11020   */\n      swap1\n      pop\n        /* \"#utility.yul\":10393:11027   */\n      swap4\n      swap3\n      pop\n      pop\n      pop\n      jump\t// out\n        /* \"#utility.yul\":11033:11498   */\n    tag_77:\n        /* \"#utility.yul\":11222:11226   */\n      0x00\n        /* \"#utility.yul\":11260:11262   */\n      0x20\n        /* \"#utility.yul\":11249:11258   */\n      dup3\n        /* \"#utility.yul\":11245:11263   */\n      add\n        /* \"#utility.yul\":11237:11263   */\n      swap1\n      pop\n        /* \"#utility.yul\":11309:11318   */\n      dup2\n        /* \"#utility.yul\":11303:11307   */\n      dup2\n        /* \"#utility.yul\":11299:11319   */\n      sub\n        /* \"#utility.yul\":11295:11296   */\n      0x00\n        /* \"#utility.yul\":11284:11293   */\n      dup4\n        /* \"#utility.yul\":11280:11297   */\n      add\n        /* \"#utility.yul\":11273:11320   */\n      mstore\n        /* \"#utility.yul\":11337:11491   */\n      tag_421\n        /* \"#utility.yul\":11486:11490   */\n      dup2\n        /* \"#utility.yul\":11477:11483   */\n      dup5\n        /* \"#utility.yul\":11337:11491   */\n      tag_336\n      jump\t// in\n    tag_421:\n        /* \"#utility.yul\":11329:11491   */\n      swap1\n      pop\n        /* \"#utility.yul\":11033:11498   */\n      swap3\n      swap2\n      pop\n      pop\n      jump\t// out\n        /* \"#utility.yul\":11504:11754   */\n    tag_37:\n        /* \"#utility.yul\":11611:11615   */\n      0x00\n        /* \"#utility.yul\":11649:11651   */\n      0x20\n        /* \"#utility.yul\":11638:11647   */\n      dup3\n        /* \"#utility.yul\":11634:11652   */\n      add\n        /* \"#utility.yul\":11626:11652   */\n      swap1\n      pop\n        /* \"#utility.yul\":11662:11747   */\n      tag_423\n        /* \"#utility.yul\":11744:11745   */\n      0x00\n        /* \"#utility.yul\":11733:11742   */\n      dup4\n        /* \"#utility.yul\":11729:11746   */\n      add\n        /* \"#utility.yul\":11720:11726   */\n      dup5\n        /* \"#utility.yul\":11662:11747   */\n      tag_364\n      jump\t// in\n    tag_423:\n        /* \"#utility.yul\":11504:11754   */\n      swap3\n      swap2\n      pop\n      pop\n      jump\t// out\n        /* \"#utility.yul\":11760:12032   */\n    tag_72:\n        /* \"#utility.yul\":11878:11882   */\n      0x00\n        /* \"#utility.yul\":11916:11918   */\n      0x20\n        /* \"#utility.yul\":11905:11914   */\n      dup3\n        /* \"#utility.yul\":11901:11919   */\n      add\n        /* \"#utility.yul\":11893:11919   */\n      swap1\n      pop\n        /* \"#utility.yul\":11929:12025   */\n      tag_425\n        /* \"#utility.yul\":12022:12023   */\n      0x00\n        /* \"#utility.yul\":12011:12020   */\n      dup4\n        /* \"#utility.yul\":12007:12024   */\n      add\n        /* \"#utility.yul\":11998:12004   */\n      dup5\n        /* \"#utility.yul\":11929:12025   */\n      tag_368\n      jump\t// in\n    tag_425:\n        /* \"#utility.yul\":11760:12032   */\n      swap3\n      swap2\n      pop\n      pop\n      jump\t// out\n        /* \"#utility.yul\":12038:12457   */\n    tag_234:\n        /* \"#utility.yul\":12204:12208   */\n      0x00\n        /* \"#utility.yul\":12242:12244   */\n      0x20\n        /* \"#utility.yul\":12231:12240   */\n      dup3\n        /* \"#utility.yul\":12227:12245   */\n      add\n        /* \"#utility.yul\":12219:12245   */\n      swap1\n      pop\n        /* \"#utility.yul\":12291:12300   */\n      dup2\n        /* \"#utility.yul\":12285:12289   */\n      dup2\n        /* \"#utility.yul\":12281:12301   */\n      sub\n        /* \"#utility.yul\":12277:12278   */\n      0x00\n        /* \"#utility.yul\":12266:12275   */\n      dup4\n        /* \"#utility.yul\":12262:12279   */\n      add\n        /* \"#utility.yul\":12255:12302   */\n      mstore\n        /* \"#utility.yul\":12319:12450   */\n      tag_427\n        /* \"#utility.yul\":12445:12449   */\n      dup2\n        /* \"#utility.yul\":12319:12450   */\n      tag_376\n      jump\t// in\n    tag_427:\n        /* \"#utility.yul\":12311:12450   */\n      swap1\n      pop\n        /* \"#utility.yul\":12038:12457   */\n      swap2\n      swap1\n      pop\n      jump\t// out\n        /* \"#utility.yul\":12463:12882   */\n    tag_163:\n        /* \"#utility.yul\":12629:12633   */\n      0x00\n        /* \"#utility.yul\":12667:12669   */\n      0x20\n        /* \"#utility.yul\":12656:12665   */\n      dup3\n        /* \"#utility.yul\":12652:12670   */\n      add\n        /* \"#utility.yul\":12644:12670   */\n      swap1\n      pop\n        /* \"#utility.yul\":12716:12725   */\n      dup2\n        /* \"#utility.yul\":12710:12714   */\n      dup2\n        /* \"#utility.yul\":12706:12726   */\n      sub\n        /* \"#utility.yul\":12702:12703   */\n      0x00\n        /* \"#utility.yul\":12691:12700   */\n      dup4\n        /* \"#utility.yul\":12687:12704   */\n      add\n        /* \"#utility.yul\":12680:12727   */\n      mstore\n        /* \"#utility.yul\":12744:12875   */\n      tag_429\n        /* \"#utility.yul\":12870:12874   */\n      dup2\n        /* \"#utility.yul\":12744:12875   */\n      tag_382\n      jump\t// in\n    tag_429:\n        /* \"#utility.yul\":12736:12875   */\n      swap1\n      pop\n        /* \"#utility.yul\":12463:12882   */\n      swap2\n      swap1\n      pop\n      jump\t// out\n        /* \"#utility.yul\":12888:13110   */\n    tag_27:\n        /* \"#utility.yul\":12981:12985   */\n      0x00\n        /* \"#utility.yul\":13019:13021   */\n      0x20\n        /* \"#utility.yul\":13008:13017   */\n      dup3\n        /* \"#utility.yul\":13004:13022   */\n      add\n        /* \"#utility.yul\":12996:13022   */\n      swap1\n      pop\n        /* \"#utility.yul\":13032:13103   */\n      tag_431\n        /* \"#utility.yul\":13100:13101   */\n      0x00\n        /* \"#utility.yul\":13089:13098   */\n      dup4\n        /* \"#utility.yul\":13085:13102   */\n      add\n        /* \"#utility.yul\":13076:13082   */\n      dup5\n        /* \"#utility.yul\":13032:13103   */\n      tag_396\n      jump\t// in\n    tag_431:\n        /* \"#utility.yul\":12888:13110   */\n      swap3\n      swap2\n      pop\n      pop\n      jump\t// out\n        /* \"#utility.yul\":13116:13448   */\n    tag_85:\n        /* \"#utility.yul\":13237:13241   */\n      0x00\n        /* \"#utility.yul\":13275:13277   */\n      0x40\n        /* \"#utility.yul\":13264:13273   */\n      dup3\n        /* \"#utility.yul\":13260:13278   */\n      add\n        /* \"#utility.yul\":13252:13278   */\n      swap1\n      pop\n        /* \"#utility.yul\":13288:13359   */\n      tag_433\n        /* \"#utility.yul\":13356:13357   */\n      0x00\n        /* \"#utility.yul\":13345:13354   */\n      dup4\n        /* \"#utility.yul\":13341:13358   */\n      add\n        /* \"#utility.yul\":13332:13338   */\n      dup6\n        /* \"#utility.yul\":13288:13359   */\n      tag_396\n      jump\t// in\n    tag_433:\n        /* \"#utility.yul\":13369:13441   */\n      tag_434\n        /* \"#utility.yul\":13437:13439   */\n      0x20\n        /* \"#utility.yul\":13426:13435   */\n      dup4\n        /* \"#utility.yul\":13422:13440   */\n      add\n        /* \"#utility.yul\":13413:13419   */\n      dup5\n        /* \"#utility.yul\":13369:13441   */\n      tag_314\n      jump\t// in\n    tag_434:\n        /* \"#utility.yul\":13116:13448   */\n      swap4\n      swap3\n      pop\n      pop\n      pop\n      jump\t// out\n        /* \"#utility.yul\":13454:14118   */\n    tag_68:\n        /* \"#utility.yul\":13659:13663   */\n      0x00\n        /* \"#utility.yul\":13697:13700   */\n      0xa0\n        /* \"#utility.yul\":13686:13695   */\n      dup3\n        /* \"#utility.yul\":13682:13701   */\n      add\n        /* \"#utility.yul\":13674:13701   */\n      swap1\n      pop\n        /* \"#utility.yul\":13711:13782   */\n      tag_436\n        /* \"#utility.yul\":13779:13780   */\n      0x00\n        /* \"#utility.yul\":13768:13777   */\n      dup4\n        /* \"#utility.yul\":13764:13781   */\n      add\n        /* \"#utility.yul\":13755:13761   */\n      dup9\n        /* \"#utility.yul\":13711:13782   */\n      tag_396\n      jump\t// in\n    tag_436:\n        /* \"#utility.yul\":13792:13864   */\n      tag_437\n        /* \"#utility.yul\":13860:13862   */\n      0x20\n        /* \"#utility.yul\":13849:13858   */\n      dup4\n        /* \"#utility.yul\":13845:13863   */\n      add\n        /* \"#utility.yul\":13836:13842   */\n      dup8\n        /* \"#utility.yul\":13792:13864   */\n      tag_396\n      jump\t// in\n    tag_437:\n        /* \"#utility.yul\":13874:13946   */\n      tag_438\n        /* \"#utility.yul\":13942:13944   */\n      0x40\n        /* \"#utility.yul\":13931:13940   */\n      dup4\n        /* \"#utility.yul\":13927:13945   */\n      add\n        /* \"#utility.yul\":13918:13924   */\n      dup7\n        /* \"#utility.yul\":13874:13946   */\n      tag_396\n      jump\t// in\n    tag_438:\n        /* \"#utility.yul\":13956:14028   */\n      tag_439\n        /* \"#utility.yul\":14024:14026   */\n      0x60\n        /* \"#utility.yul\":14013:14022   */\n      dup4\n        /* \"#utility.yul\":14009:14027   */\n      add\n        /* \"#utility.yul\":14000:14006   */\n      dup6\n        /* \"#utility.yul\":13956:14028   */\n      tag_396\n      jump\t// in\n    tag_439:\n        /* \"#utility.yul\":14038:14111   */\n      tag_440\n        /* \"#utility.yul\":14106:14109   */\n      0x80\n        /* \"#utility.yul\":14095:14104   */\n      dup4\n        /* \"#utility.yul\":14091:14110   */\n      add\n        /* \"#utility.yul\":14082:14088   */\n      dup5\n        /* \"#utility.yul\":14038:14111   */\n      tag_314\n      jump\t// in\n    tag_440:\n        /* \"#utility.yul\":13454:14118   */\n      swap7\n      swap6\n      pop\n      pop\n      pop\n      pop\n      pop\n      pop\n      jump\t// out\n        /* \"#utility.yul\":14205:14337   */\n    tag_329:\n        /* \"#utility.yul\":14272:14276   */\n      0x00\n        /* \"#utility.yul\":14295:14298   */\n      dup2\n        /* \"#utility.yul\":14287:14298   */\n      swap1\n      pop\n        /* \"#utility.yul\":14325:14329   */\n      0x20\n        /* \"#utility.yul\":14320:14323   */\n      dup3\n        /* \"#utility.yul\":14316:14330   */\n      add\n        /* \"#utility.yul\":14308:14330   */\n      swap1\n      pop\n        /* \"#utility.yul\":14205:14337   */\n      swap2\n      swap1\n      pop\n      jump\t// out\n        /* \"#utility.yul\":14343:14498   */\n    tag_343:\n        /* \"#utility.yul\":14433:14437   */\n      0x00\n        /* \"#utility.yul\":14456:14459   */\n      dup2\n        /* \"#utility.yul\":14448:14459   */\n      swap1\n      pop\n        /* \"#utility.yul\":14486:14490   */\n      0x20\n        /* \"#utility.yul\":14481:14484   */\n      dup3\n        /* \"#utility.yul\":14477:14491   */\n      add\n        /* \"#utility.yul\":14469:14491   */\n      swap1\n      pop\n        /* \"#utility.yul\":14343:14498   */\n      swap2\n      swap1\n      pop\n      jump\t// out\n        /* \"#utility.yul\":14504:14636   */\n    tag_357:\n        /* \"#utility.yul\":14571:14575   */\n      0x00\n        /* \"#utility.yul\":14594:14597   */\n      dup2\n        /* \"#utility.yul\":14586:14597   */\n      swap1\n      pop\n        /* \"#utility.yul\":14624:14628   */\n      0x20\n        /* \"#utility.yul\":14619:14622   */\n      dup3\n        /* \"#utility.yul\":14615:14629   */\n      add\n        /* \"#utility.yul\":14607:14629   */\n      swap1\n      pop\n        /* \"#utility.yul\":14504:14636   */\n      swap2\n      swap1\n      pop\n      jump\t// out\n        /* \"#utility.yul\":14642:14756   */\n    tag_325:\n        /* \"#utility.yul\":14709:14715   */\n      0x00\n        /* \"#utility.yul\":14743:14748   */\n      dup2\n        /* \"#utility.yul\":14737:14749   */\n      mload\n        /* \"#utility.yul\":14727:14749   */\n      swap1\n      pop\n        /* \"#utility.yul\":14642:14756   */\n      swap2\n      swap1\n      pop\n      jump\t// out\n        /* \"#utility.yul\":14762:14899   */\n    tag_339:\n        /* \"#utility.yul\":14852:14858   */\n      0x00\n        /* \"#utility.yul\":14886:14891   */\n      dup2\n        /* \"#utility.yul\":14880:14892   */\n      mload\n        /* \"#utility.yul\":14870:14892   */\n      swap1\n      pop\n        /* \"#utility.yul\":14762:14899   */\n      swap2\n      swap1\n      pop\n      jump\t// out\n        /* \"#utility.yul\":14905:15019   */\n    tag_353:\n        /* \"#utility.yul\":14972:14978   */\n      0x00\n        /* \"#utility.yul\":15006:15011   */\n      dup2\n        /* \"#utility.yul\":15000:15012   */\n      mload\n        /* \"#utility.yul\":14990:15012   */\n      swap1\n      pop\n        /* \"#utility.yul\":14905:15019   */\n      swap2\n      swap1\n      pop\n      jump\t// out\n        /* \"#utility.yul\":15025:15138   */\n    tag_335:\n        /* \"#utility.yul\":15095:15099   */\n      0x00\n        /* \"#utility.yul\":15127:15131   */\n      0x20\n        /* \"#utility.yul\":15122:15125   */\n      dup3\n        /* \"#utility.yul\":15118:15132   */\n      add\n        /* \"#utility.yul\":15110:15132   */\n      swap1\n      pop\n        /* \"#utility.yul\":15025:15138   */\n      swap2\n      swap1\n      pop\n      jump\t// out\n        /* \"#utility.yul\":15144:15280   */\n    tag_349:\n        /* \"#utility.yul\":15237:15241   */\n      0x00\n        /* \"#utility.yul\":15269:15273   */\n      0x20\n        /* \"#utility.yul\":15264:15267   */\n      dup3\n        /* \"#utility.yul\":15260:15274   */\n      add\n        /* \"#utility.yul\":15252:15274   */\n      swap1\n      pop\n        /* \"#utility.yul\":15144:15280   */\n      swap2\n      swap1\n      pop\n      jump\t// out\n        /* \"#utility.yul\":15286:15399   */\n    tag_363:\n        /* \"#utility.yul\":15356:15360   */\n      0x00\n        /* \"#utility.yul\":15388:15392   */\n      0x20\n        /* \"#utility.yul\":15383:15386   */\n      dup3\n        /* \"#utility.yul\":15379:15393   */\n      add\n        /* \"#utility.yul\":15371:15393   */\n      swap1\n      pop\n        /* \"#utility.yul\":15286:15399   */\n      swap2\n      swap1\n      pop\n      jump\t// out\n        /* \"#utility.yul\":15405:15589   */\n    tag_327:\n        /* \"#utility.yul\":15504:15515   */\n      0x00\n        /* \"#utility.yul\":15538:15544   */\n      dup3\n        /* \"#utility.yul\":15533:15536   */\n      dup3\n        /* \"#utility.yul\":15526:15545   */\n      mstore\n        /* \"#utility.yul\":15578:15582   */\n      0x20\n        /* \"#utility.yul\":15573:15576   */\n      dup3\n        /* \"#utility.yul\":15569:15583   */\n      add\n        /* \"#utility.yul\":15554:15583   */\n      swap1\n      pop\n        /* \"#utility.yul\":15405:15589   */\n      swap3\n      swap2\n      pop\n      pop\n      jump\t// out\n        /* \"#utility.yul\":15595:15802   */\n    tag_341:\n        /* \"#utility.yul\":15717:15728   */\n      0x00\n        /* \"#utility.yul\":15751:15757   */\n      dup3\n        /* \"#utility.yul\":15746:15749   */\n      dup3\n        /* \"#utility.yul\":15739:15758   */\n      mstore\n        /* \"#utility.yul\":15791:15795   */\n      0x20\n        /* \"#utility.yul\":15786:15789   */\n      dup3\n        /* \"#utility.yul\":15782:15796   */\n      add\n        /* \"#utility.yul\":15767:15796   */\n      swap1\n      pop\n        /* \"#utility.yul\":15595:15802   */\n      swap3\n      swap2\n      pop\n      pop\n      jump\t// out\n        /* \"#utility.yul\":15808:15992   */\n    tag_355:\n        /* \"#utility.yul\":15907:15918   */\n      0x00\n        /* \"#utility.yul\":15941:15947   */\n      dup3\n        /* \"#utility.yul\":15936:15939   */\n      dup3\n        /* \"#utility.yul\":15929:15948   */\n      mstore\n        /* \"#utility.yul\":15981:15985   */\n      0x20\n        /* \"#utility.yul\":15976:15979   */\n      dup3\n        /* \"#utility.yul\":15972:15986   */\n      add\n        /* \"#utility.yul\":15957:15986   */\n      swap1\n      pop\n        /* \"#utility.yul\":15808:15992   */\n      swap3\n      swap2\n      pop\n      pop\n      jump\t// out\n        /* \"#utility.yul\":15998:16167   */\n    tag_379:\n        /* \"#utility.yul\":16082:16093   */\n      0x00\n        /* \"#utility.yul\":16116:16122   */\n      dup3\n        /* \"#utility.yul\":16111:16114   */\n      dup3\n        /* \"#utility.yul\":16104:16123   */\n      mstore\n        /* \"#utility.yul\":16156:16160   */\n      0x20\n        /* \"#utility.yul\":16151:16154   */\n      dup3\n        /* \"#utility.yul\":16147:16161   */\n      add\n        /* \"#utility.yul\":16132:16161   */\n      swap1\n      pop\n        /* \"#utility.yul\":15998:16167   */\n      swap3\n      swap2\n      pop\n      pop\n      jump\t// out\n        /* \"#utility.yul\":16173:16478   */\n    tag_175:\n        /* \"#utility.yul\":16213:16216   */\n      0x00\n        /* \"#utility.yul\":16232:16252   */\n      tag_457\n        /* \"#utility.yul\":16250:16251   */\n      dup3\n        /* \"#utility.yul\":16232:16252   */\n      tag_395\n      jump\t// in\n    tag_457:\n        /* \"#utility.yul\":16227:16252   */\n      swap2\n      pop\n        /* \"#utility.yul\":16266:16286   */\n      tag_458\n        /* \"#utility.yul\":16284:16285   */\n      dup4\n        /* \"#utility.yul\":16266:16286   */\n      tag_395\n      jump\t// in\n    tag_458:\n        /* \"#utility.yul\":16261:16286   */\n      swap3\n      pop\n        /* \"#utility.yul\":16420:16421   */\n      dup3\n        /* \"#utility.yul\":16352:16418   */\n      0xffffffffffffffffffffffffffffffffffffffffffffffffffffffffffffffff\n        /* \"#utility.yul\":16348:16422   */\n      sub\n        /* \"#utility.yul\":16345:16346   */\n      dup3\n        /* \"#utility.yul\":16342:16423   */\n      gt\n        /* \"#utility.yul\":16339:16446   */\n      iszero\n      tag_459\n      jumpi\n        /* \"#utility.yul\":16426:16444   */\n      tag_460\n      tag_461\n      jump\t// in\n    tag_460:\n        /* \"#utility.yul\":16339:16446   */\n    tag_459:\n        /* \"#utility.yul\":16470:16471   */\n      dup3\n        /* \"#utility.yul\":16467:16468   */\n      dup3\n        /* \"#utility.yul\":16463:16472   */\n      add\n        /* \"#utility.yul\":16456:16472   */\n      swap1\n      pop\n        /* \"#utility.yul\":16173:16478   */\n      swap3\n      swap2\n      pop\n      pop\n      jump\t// out\n        /* \"#utility.yul\":16484:16675   */\n    tag_210:\n        /* \"#utility.yul\":16524:16528   */\n      0x00\n        /* \"#utility.yul\":16544:16564   */\n      tag_463\n        /* \"#utility.yul\":16562:16563   */\n      dup3\n        /* \"#utility.yul\":16544:16564   */\n      tag_395\n      jump\t// in\n    tag_463:\n        /* \"#utility.yul\":16539:16564   */\n      swap2\n      pop\n        /* \"#utility.yul\":16578:16598   */\n      tag_464\n        /* \"#utility.yul\":16596:16597   */\n      dup4\n        /* \"#utility.yul\":16578:16598   */\n      tag_395\n      jump\t// in\n    tag_464:\n        /* \"#utility.yul\":16573:16598   */\n      swap3\n      pop\n        /* \"#utility.yul\":16617:16618   */\n      dup3\n        /* \"#utility.yul\":16614:16615   */\n      dup3\n        /* \"#utility.yul\":16611:16619   */\n      lt\n        /* \"#utility.yul\":16608:16642   */\n      iszero\n      tag_465\n      jumpi\n        /* \"#utility.yul\":16622:16640   */\n      tag_466\n      tag_461\n      jump\t// in\n    tag_466:\n        /* \"#utility.yul\":16608:16642   */\n    tag_465:\n        /* \"#utility.yul\":16667:16668   */\n      dup3\n        /* \"#utility.yul\":16664:16665   */\n      dup3\n        /* \"#utility.yul\":16660:16669   */\n      sub\n        /* \"#utility.yul\":16652:16669   */\n      swap1\n      pop\n        /* \"#utility.yul\":16484:16675   */\n      swap3\n      swap2\n      pop\n      pop\n      jump\t// out\n        /* \"#utility.yul\":16681:16777   */\n    tag_313:\n        /* \"#utility.yul\":16718:16725   */\n      0x00\n        /* \"#utility.yul\":16747:16771   */\n      tag_468\n        /* \"#utility.yul\":16765:16770   */\n      dup3\n        /* \"#utility.yul\":16747:16771   */\n      tag_469\n      jump\t// in\n    tag_468:\n        /* \"#utility.yul\":16736:16771   */\n      swap1\n      pop\n        /* \"#utility.yul\":16681:16777   */\n      swap2\n      swap1\n      pop\n      jump\t// out\n        /* \"#utility.yul\":16783:16909   */\n    tag_469:\n        /* \"#utility.yul\":16820:16827   */\n      0x00\n        /* \"#utility.yul\":16860:16902   */\n      0xffffffffffffffffffffffffffffffffffffffff\n        /* \"#utility.yul\":16853:16858   */\n      dup3\n        /* \"#utility.yul\":16849:16903   */\n      and\n        /* \"#utility.yul\":16838:16903   */\n      swap1\n      pop\n        /* \"#utility.yul\":16783:16909   */\n      swap2\n      swap1\n      pop\n      jump\t// out\n        /* \"#utility.yul\":16915:16992   */\n    tag_395:\n        /* \"#utility.yul\":16952:16959   */\n      0x00\n        /* \"#utility.yul\":16981:16986   */\n      dup2\n        /* \"#utility.yul\":16970:16986   */\n      swap1\n      pop\n        /* \"#utility.yul\":16915:16992   */\n      swap2\n      swap1\n      pop\n      jump\t// out\n        /* \"#utility.yul\":16998:17138   */\n    tag_367:\n        /* \"#utility.yul\":17062:17071   */\n      0x00\n        /* \"#utility.yul\":17095:17132   */\n      tag_473\n        /* \"#utility.yul\":17126:17131   */\n      dup3\n        /* \"#utility.yul\":17095:17132   */\n      tag_474\n      jump\t// in\n    tag_473:\n        /* \"#utility.yul\":17082:17132   */\n      swap1\n      pop\n        /* \"#utility.yul\":16998:17138   */\n      swap2\n      swap1\n      pop\n      jump\t// out\n        /* \"#utility.yul\":17144:17295   */\n    tag_371:\n        /* \"#utility.yul\":17219:17228   */\n      0x00\n        /* \"#utility.yul\":17252:17289   */\n      tag_476\n        /* \"#utility.yul\":17283:17288   */\n      dup3\n        /* \"#utility.yul\":17252:17289   */\n      tag_474\n      jump\t// in\n    tag_476:\n        /* \"#utility.yul\":17239:17289   */\n      swap1\n      pop\n        /* \"#utility.yul\":17144:17295   */\n      swap2\n      swap1\n      pop\n      jump\t// out\n        /* \"#utility.yul\":17301:17422   */\n    tag_375:\n        /* \"#utility.yul\":17359:17368   */\n      0x00\n        /* \"#utility.yul\":17392:17416   */\n      tag_478\n        /* \"#utility.yul\":17410:17415   */\n      dup3\n        /* \"#utility.yul\":17392:17416   */\n      tag_395\n      jump\t// in\n    tag_478:\n        /* \"#utility.yul\":17379:17416   */\n      swap1\n      pop\n        /* \"#utility.yul\":17301:17422   */\n      swap2\n      swap1\n      pop\n      jump\t// out\n        /* \"#utility.yul\":17428:17554   */\n    tag_474:\n        /* \"#utility.yul\":17478:17487   */\n      0x00\n        /* \"#utility.yul\":17511:17548   */\n      tag_480\n        /* \"#utility.yul\":17542:17547   */\n      dup3\n        /* \"#utility.yul\":17511:17548   */\n      tag_481\n      jump\t// in\n    tag_480:\n        /* \"#utility.yul\":17498:17548   */\n      swap1\n      pop\n        /* \"#utility.yul\":17428:17554   */\n      swap2\n      swap1\n      pop\n      jump\t// out\n        /* \"#utility.yul\":17560:17673   */\n    tag_481:\n        /* \"#utility.yul\":17610:17619   */\n      0x00\n        /* \"#utility.yul\":17643:17667   */\n      tag_483\n        /* \"#utility.yul\":17661:17666   */\n      dup3\n        /* \"#utility.yul\":17643:17667   */\n      tag_469\n      jump\t// in\n    tag_483:\n        /* \"#utility.yul\":17630:17667   */\n      swap1\n      pop\n        /* \"#utility.yul\":17560:17673   */\n      swap2\n      swap1\n      pop\n      jump\t// out\n        /* \"#utility.yul\":17679:17912   */\n    tag_115:\n        /* \"#utility.yul\":17718:17721   */\n      0x00\n        /* \"#utility.yul\":17741:17765   */\n      tag_485\n        /* \"#utility.yul\":17759:17764   */\n      dup3\n        /* \"#utility.yul\":17741:17765   */\n      tag_395\n      jump\t// in\n    tag_485:\n        /* \"#utility.yul\":17732:17765   */\n      swap2\n      pop\n        /* \"#utility.yul\":17787:17853   */\n      0xffffffffffffffffffffffffffffffffffffffffffffffffffffffffffffffff\n        /* \"#utility.yul\":17780:17785   */\n      dup3\n        /* \"#utility.yul\":17777:17854   */\n      eq\n        /* \"#utility.yul\":17774:17877   */\n      iszero\n      tag_486\n      jumpi\n        /* \"#utility.yul\":17857:17875   */\n      tag_487\n      tag_461\n      jump\t// in\n    tag_487:\n        /* \"#utility.yul\":17774:17877   */\n    tag_486:\n        /* \"#utility.yul\":17904:17905   */\n      0x01\n        /* \"#utility.yul\":17897:17902   */\n      dup3\n        /* \"#utility.yul\":17893:17906   */\n      add\n        /* \"#utility.yul\":17886:17906   */\n      swap1\n      pop\n        /* \"#utility.yul\":17679:17912   */\n      swap2\n      swap1\n      pop\n      jump\t// out\n        /* \"#utility.yul\":17918:18018   */\n    tag_321:\n        /* \"#utility.yul\":17957:17964   */\n      0x00\n        /* \"#utility.yul\":17986:18012   */\n      tag_489\n        /* \"#utility.yul\":18006:18011   */\n      dup3\n        /* \"#utility.yul\":17986:18012   */\n      tag_490\n      jump\t// in\n    tag_489:\n        /* \"#utility.yul\":17975:18012   */\n      swap1\n      pop\n        /* \"#utility.yul\":17918:18018   */\n      swap2\n      swap1\n      pop\n      jump\t// out\n        /* \"#utility.yul\":18024:18118   */\n    tag_490:\n        /* \"#utility.yul\":18063:18070   */\n      0x00\n        /* \"#utility.yul\":18092:18112   */\n      tag_492\n        /* \"#utility.yul\":18106:18111   */\n      dup3\n        /* \"#utility.yul\":18092:18112   */\n      tag_493\n      jump\t// in\n    tag_492:\n        /* \"#utility.yul\":18081:18112   */\n      swap1\n      pop\n        /* \"#utility.yul\":18024:18118   */\n      swap2\n      swap1\n      pop\n      jump\t// out\n        /* \"#utility.yul\":18124:18203   */\n    tag_403:\n        /* \"#utility.yul\":18163:18170   */\n      0x00\n        /* \"#utility.yul\":18192:18197   */\n      dup2\n        /* \"#utility.yul\":18181:18197   */\n      swap1\n      pop\n        /* \"#utility.yul\":18124:18203   */\n      swap2\n      swap1\n      pop\n      jump\t// out\n        /* \"#utility.yul\":18209:18385   */\n    tag_244:\n        /* \"#utility.yul\":18241:18242   */\n      0x00\n        /* \"#utility.yul\":18258:18278   */\n      tag_496\n        /* \"#utility.yul\":18276:18277   */\n      dup3\n        /* \"#utility.yul\":18258:18278   */\n      tag_395\n      jump\t// in\n    tag_496:\n        /* \"#utility.yul\":18253:18278   */\n      swap2\n      pop\n        /* \"#utility.yul\":18292:18312   */\n      tag_497\n        /* \"#utility.yul\":18310:18311   */\n      dup4\n        /* \"#utility.yul\":18292:18312   */\n      tag_395\n      jump\t// in\n    tag_497:\n        /* \"#utility.yul\":18287:18312   */\n      swap3\n      pop\n        /* \"#utility.yul\":18331:18332   */\n      dup3\n        /* \"#utility.yul\":18321:18356   */\n      tag_498\n      jumpi\n        /* \"#utility.yul\":18336:18354   */\n      tag_499\n      tag_500\n      jump\t// in\n    tag_499:\n        /* \"#utility.yul\":18321:18356   */\n    tag_498:\n        /* \"#utility.yul\":18377:18378   */\n      dup3\n        /* \"#utility.yul\":18374:18375   */\n      dup3\n        /* \"#utility.yul\":18370:18379   */\n      mod\n        /* \"#utility.yul\":18365:18379   */\n      swap1\n      pop\n        /* \"#utility.yul\":18209:18385   */\n      swap3\n      swap2\n      pop\n      pop\n      jump\t// out\n        /* \"#utility.yul\":18391:18571   */\n    tag_461:\n        /* \"#utility.yul\":18439:18516   */\n      0x4e487b7100000000000000000000000000000000000000000000000000000000\n        /* \"#utility.yul\":18436:18437   */\n      0x00\n        /* \"#utility.yul\":18429:18517   */\n      mstore\n        /* \"#utility.yul\":18536:18540   */\n      0x11\n        /* \"#utility.yul\":18533:18534   */\n      0x04\n        /* \"#utility.yul\":18526:18541   */\n      mstore\n        /* \"#utility.yul\":18560:18564   */\n      0x24\n        /* \"#utility.yul\":18557:18558   */\n      0x00\n        /* \"#utility.yul\":18550:18565   */\n      revert\n        /* \"#utility.yul\":18577:18757   */\n    tag_500:\n        /* \"#utility.yul\":18625:18702   */\n      0x4e487b7100000000000000000000000000000000000000000000000000000000\n        /* \"#utility.yul\":18622:18623   */\n      0x00\n        /* \"#utility.yul\":18615:18703   */\n      mstore\n        /* \"#utility.yul\":18722:18726   */\n      0x12\n        /* \"#utility.yul\":18719:18720   */\n      0x04\n        /* \"#utility.yul\":18712:18727   */\n      mstore\n        /* \"#utility.yul\":18746:18750   */\n      0x24\n        /* \"#utility.yul\":18743:18744   */\n      0x00\n        /* \"#utility.yul\":18736:18751   */\n      revert\n        /* \"#utility.yul\":18763:18943   */\n    tag_151:\n        /* \"#utility.yul\":18811:18888   */\n      0x4e487b7100000000000000000000000000000000000000000000000000000000\n        /* \"#utility.yul\":18808:18809   */\n      0x00\n        /* \"#utility.yul\":18801:18889   */\n      mstore\n        /* \"#utility.yul\":18908:18912   */\n      0x32\n        /* \"#utility.yul\":18905:18906   */\n      0x04\n        /* \"#utility.yul\":18898:18913   */\n      mstore\n        /* \"#utility.yul\":18932:18936   */\n      0x24\n        /* \"#utility.yul\":18929:18930   */\n      0x00\n        /* \"#utility.yul\":18922:18937   */\n      revert\n        /* \"#utility.yul\":18949:19129   */\n    tag_130:\n        /* \"#utility.yul\":18997:19074   */\n      0x4e487b7100000000000000000000000000000000000000000000000000000000\n        /* \"#utility.yul\":18994:18995   */\n      0x00\n        /* \"#utility.yul\":18987:19075   */\n      mstore\n        /* \"#utility.yul\":19094:19098   */\n      0x41\n        /* \"#utility.yul\":19091:19092   */\n      0x04\n        /* \"#utility.yul\":19084:19099   */\n      mstore\n        /* \"#utility.yul\":19118:19122   */\n      0x24\n        /* \"#utility.yul\":19115:19116   */\n      0x00\n        /* \"#utility.yul\":19108:19123   */\n      revert\n        /* \"#utility.yul\":19258:19375   */\n    tag_280:\n        /* \"#utility.yul\":19367:19368   */\n      0x00\n        /* \"#utility.yul\":19364:19365   */\n      dup1\n        /* \"#utility.yul\":19357:19369   */\n      revert\n        /* \"#utility.yul\":19381:19475   */\n    tag_493:\n        /* \"#utility.yul\":19414:19422   */\n      0x00\n        /* \"#utility.yul\":19462:19467   */\n      dup2\n        /* \"#utility.yul\":19458:19460   */\n      0x60\n        /* \"#utility.yul\":19454:19468   */\n      shl\n        /* \"#utility.yul\":19433:19468   */\n      swap1\n      pop\n        /* \"#utility.yul\":19381:19475   */\n      swap2\n      swap1\n      pop\n      jump\t// out\n        /* \"#utility.yul\":19481:19706   */\n    tag_381:\n        /* \"#utility.yul\":19621:19655   */\n      0x4f776e61626c653a206e6577206f776e657220697320746865207a65726f2061\n        /* \"#utility.yul\":19617:19618   */\n      0x00\n        /* \"#utility.yul\":19609:19615   */\n      dup3\n        /* \"#utility.yul\":19605:19619   */\n      add\n        /* \"#utility.yul\":19598:19656   */\n      mstore\n        /* \"#utility.yul\":19690:19698   */\n      0x6464726573730000000000000000000000000000000000000000000000000000\n        /* \"#utility.yul\":19685:19687   */\n      0x20\n        /* \"#utility.yul\":19677:19683   */\n      dup3\n        /* \"#utility.yul\":19673:19688   */\n      add\n        /* \"#utility.yul\":19666:19699   */\n      mstore\n        /* \"#utility.yul\":19481:19706   */\n      pop\n      jump\t// out\n        /* \"#utility.yul\":19712:19894   */\n    tag_386:\n        /* \"#utility.yul\":19852:19886   */\n      0x4f776e61626c653a2063616c6c6572206973206e6f7420746865206f776e6572\n        /* \"#utility.yul\":19848:19849   */\n      0x00\n        /* \"#utility.yul\":19840:19846   */\n      dup3\n        /* \"#utility.yul\":19836:19850   */\n      add\n        /* \"#utility.yul\":19829:19887   */\n      mstore\n        /* \"#utility.yul\":19712:19894   */\n      pop\n      jump\t// out\n        /* \"#utility.yul\":19900:20022   */\n    tag_266:\n        /* \"#utility.yul\":19973:19997   */\n      tag_512\n        /* \"#utility.yul\":19991:19996   */\n      dup2\n        /* \"#utility.yul\":19973:19997   */\n      tag_313\n      jump\t// in\n    tag_512:\n        /* \"#utility.yul\":19966:19971   */\n      dup2\n        /* \"#utility.yul\":19963:19998   */\n      eq\n        /* \"#utility.yul\":19953:20016   */\n      tag_513\n      jumpi\n        /* \"#utility.yul\":20012:20013   */\n      0x00\n        /* \"#utility.yul\":20009:20010   */\n      dup1\n        /* \"#utility.yul\":20002:20014   */\n      revert\n        /* \"#utility.yul\":19953:20016   */\n    tag_513:\n        /* \"#utility.yul\":19900:20022   */\n      pop\n      jump\t// out\n        /* \"#utility.yul\":20028:20150   */\n    tag_273:\n        /* \"#utility.yul\":20101:20125   */\n      tag_515\n        /* \"#utility.yul\":20119:20124   */\n      dup2\n        /* \"#utility.yul\":20101:20125   */\n      tag_395\n      jump\t// in\n    tag_515:\n        /* \"#utility.yul\":20094:20099   */\n      dup2\n        /* \"#utility.yul\":20091:20126   */\n      eq\n        /* \"#utility.yul\":20081:20144   */\n      tag_516\n      jumpi\n        /* \"#utility.yul\":20140:20141   */\n      0x00\n        /* \"#utility.yul\":20137:20138   */\n      dup1\n        /* \"#utility.yul\":20130:20142   */\n      revert\n        /* \"#utility.yul\":20081:20144   */\n    tag_516:\n        /* \"#utility.yul\":20028:20150   */\n      pop\n      jump\t// out\n\n    auxdata: 0xa2646970667358221220bb4a128ed809005d323c294ee7816fd227e60aa84c773056115d79d30cff52dd64736f6c63430008070033\n}\n",
				"bytecode": {
					"linkReferences": {},
					"object": "6080604052670de0b6b3a76400006003553480156200001d57600080fd5b5060405162002272380380620022728339818101604052810190620000439190620001d0565b6200006362000057620000ed60201b60201c565b620000f560201b60201c565b81600460006101000a81548173ffffffffffffffffffffffffffffffffffffffff021916908373ffffffffffffffffffffffffffffffffffffffff16021790555080600560006101000a81548173ffffffffffffffffffffffffffffffffffffffff021916908373ffffffffffffffffffffffffffffffffffffffff16021790555050506200026a565b600033905090565b60008060009054906101000a900473ffffffffffffffffffffffffffffffffffffffff169050816000806101000a81548173ffffffffffffffffffffffffffffffffffffffff021916908373ffffffffffffffffffffffffffffffffffffffff1602179055508173ffffffffffffffffffffffffffffffffffffffff168173ffffffffffffffffffffffffffffffffffffffff167f8be0079c531659141344cd1fd0a4f28419497f9722a3daafe3b4186f6b6457e060405160405180910390a35050565b600081519050620001ca8162000250565b92915050565b60008060408385031215620001ea57620001e96200024b565b5b6000620001fa85828601620001b9565b92505060206200020d85828601620001b9565b9150509250929050565b600062000224826200022b565b9050919050565b600073ffffffffffffffffffffffffffffffffffffffff82169050919050565b600080fd5b6200025b8162000217565b81146200026757600080fd5b50565b611ff8806200027a6000396000f3fe608060405234801561001057600080fd5b50600436106101165760003560e01c80638da5cb5b116100a2578063bc15cdf011610071578063bc15cdf0146102b2578063f2fde38b146102e2578063f737d21d146102fe578063f80fb76d1461032f578063f9cee0bd1461034b57610116565b80638da5cb5b146102125780639f10a99014610230578063ac128f4f14610260578063aeb183501461029457610116565b80633b98bc65116100e95780633b98bc6514610193578063454f7b8f146101b25780636fbb5a86146101d0578063715018a6146101ec5780637ad3def2146101f657610116565b8063119b22b31461011b578063158977de1461013957806317be85c3146101575780633013ce2914610175575b600080fd5b610123610369565b6040516101309190611b33565b60405180910390f35b61014161036f565b60405161014e9190611b33565b60405180910390f35b61015f6105ae565b60405161016c9190611b33565b60405180910390f35b61017d610655565b60405161018a9190611abd565b60405180910390f35b61019b61067b565b6040516101a9929190611a64565b60405180910390f35b6101ba6109d8565b6040516101c79190611b33565b60405180910390f35b6101ea60048036038101906101e591906116c2565b6109de565b005b6101f4610cdb565b005b610210600480360381019061020b919061160e565b610d63565b005b61021a610e23565b60405161022791906119f7565b60405180910390f35b61024a6004803603810190610245919061160e565b610e4c565b6040516102579190611b33565b60405180910390f35b61027a60048036038101906102759190611668565b610f00565b60405161028b959493929190611b77565b60405180910390f35b61029c610f56565b6040516102a99190611ad8565b60405180910390f35b6102cc60048036038101906102c791906116c2565b610f7c565b6040516102d99190611a9b565b60405180910390f35b6102fc60048036038101906102f7919061160e565b611170565b005b61031860048036038101906103139190611668565b611268565b604051610326929190611b4e565b60405180910390f35b61034960048036038101906103449190611668565b6113e4565b005b61035361146a565b6040516103609190611b33565b60405180910390f35b60015481565b600080600560009054906101000a900473ffffffffffffffffffffffffffffffffffffffff1673ffffffffffffffffffffffffffffffffffffffff166318160ddd6040518163ffffffff1660e01b815260040160206040518083038186803b1580156103da57600080fd5b505afa1580156103ee573d6000803e3d6000fd5b505050506040513d601f19601f820116820180604052508101906104129190611695565b90506000600190505b8181116105a9576000600560009054906101000a900473ffffffffffffffffffffffffffffffffffffffff1673ffffffffffffffffffffffffffffffffffffffff16636352211e836040518263ffffffff1660e01b815260040161047f9190611b33565b60206040518083038186803b15801561049757600080fd5b505afa1580156104ab573d6000803e3d6000fd5b505050506040513d601f19601f820116820180604052508101906104cf919061163b565b9050600560009054906101000a900473ffffffffffffffffffffffffffffffffffffffff1673ffffffffffffffffffffffffffffffffffffffff16632f745c598260006040518363ffffffff1660e01b815260040161052f929190611a12565b60206040518083038186803b15801561054757600080fd5b505afa15801561055b573d6000803e3d6000fd5b505050506040513d601f19601f8201168201806040525081019061057f9190611695565b82141561059557838061059190611da6565b9450505b5080806105a190611da6565b91505061041b565b505090565b6000600560009054906101000a900473ffffffffffffffffffffffffffffffffffffffff1673ffffffffffffffffffffffffffffffffffffffff166318160ddd6040518163ffffffff1660e01b815260040160206040518083038186803b15801561061857600080fd5b505afa15801561062c573d6000803e3d6000fd5b505050506040513d601f19601f820116820180604052508101906106509190611695565b905090565b600460009054906101000a900473ffffffffffffffffffffffffffffffffffffffff1681565b6060806000600560009054906101000a900473ffffffffffffffffffffffffffffffffffffffff1673ffffffffffffffffffffffffffffffffffffffff166318160ddd6040518163ffffffff1660e01b815260040160206040518083038186803b1580156106e857600080fd5b505afa1580156106fc573d6000803e3d6000fd5b505050506040513d601f19601f820116820180604052508101906107209190611695565b9050600061072c61036f565b90508067ffffffffffffffff81111561074857610747611edb565b5b6040519080825280602002602001820160405280156107765781602001602082028036833780820191505090505b5093508067ffffffffffffffff81111561079357610792611edb565b5b6040519080825280602002602001820160405280156107c15781602001602082028036833780820191505090505b509250600080600190505b8381116109d0576000600560009054906101000a900473ffffffffffffffffffffffffffffffffffffffff1673ffffffffffffffffffffffffffffffffffffffff16636352211e836040518263ffffffff1660e01b81526004016108309190611b33565b60206040518083038186803b15801561084857600080fd5b505afa15801561085c573d6000803e3d6000fd5b505050506040513d601f19601f82011682018060405250810190610880919061163b565b9050600560009054906101000a900473ffffffffffffffffffffffffffffffffffffffff1673ffffffffffffffffffffffffffffffffffffffff16632f745c598260006040518363ffffffff1660e01b81526004016108e0929190611a12565b60206040518083038186803b1580156108f857600080fd5b505afa15801561090c573d6000803e3d6000fd5b505050506040513d601f19601f820116820180604052508101906109309190611695565b8214156109bc578087848151811061094b5761094a611eac565b5b602002602001019073ffffffffffffffffffffffffffffffffffffffff16908173ffffffffffffffffffffffffffffffffffffffff168152505061098e81610e4c565b8684815181106109a1576109a0611eac565b5b60200260200101818152505082806109b890611da6565b9350505b5080806109c890611da6565b9150506107cc565b505050509091565b60025481565b6109e6611470565b73ffffffffffffffffffffffffffffffffffffffff16610a04610e23565b73ffffffffffffffffffffffffffffffffffffffff1614610a5a576040517f08c379a0000000000000000000000000000000000000000000000000000000008152600401610a5190611b13565b60405180910390fd5b6000600560009054906101000a900473ffffffffffffffffffffffffffffffffffffffff1673ffffffffffffffffffffffffffffffffffffffff16636352211e846040518263ffffffff1660e01b8152600401610ab79190611b33565b60206040518083038186803b158015610acf57600080fd5b505afa158015610ae3573d6000803e3d6000fd5b505050506040513d601f19601f82011682018060405250810190610b07919061163b565b90506040518060a00160405280600560009054906101000a900473ffffffffffffffffffffffffffffffffffffffff1673ffffffffffffffffffffffffffffffffffffffff166318160ddd6040518163ffffffff1660e01b815260040160206040518083038186803b158015610b7c57600080fd5b505afa158015610b90573d6000803e3d6000fd5b505050506040513d601f19601f82011682018060405250810190610bb49190611695565b81526020018481526020018381526020014281526020018273ffffffffffffffffffffffffffffffffffffffff168152506006600060015481526020019081526020016000206000820151816000015560208201518160010155604082015181600201556060820151816003015560808201518160040160006101000a81548173ffffffffffffffffffffffffffffffffffffffff021916908373ffffffffffffffffffffffffffffffffffffffff1602179055509050508160026000828254610c7e9190611c86565b9250508190555060016000815480929190610c9890611da6565b91905055507f2e798dd4337e515c79b64c40e1a93baa1aefbd9180ac7905e02508edd7971e508183604051610cce929190611a3b565b60405180910390a1505050565b610ce3611470565b73ffffffffffffffffffffffffffffffffffffffff16610d01610e23565b73ffffffffffffffffffffffffffffffffffffffff1614610d57576040517f08c379a0000000000000000000000000000000000000000000000000000000008152600401610d4e90611b13565b60405180910390fd5b610d616000611478565b565b610d6b611470565b73ffffffffffffffffffffffffffffffffffffffff16610d89610e23565b73ffffffffffffffffffffffffffffffffffffffff1614610ddf576040517f08c379a0000000000000000000000000000000000000000000000000000000008152600401610dd690611b13565b60405180910390fd5b80600460006101000a81548173ffffffffffffffffffffffffffffffffffffffff021916908373ffffffffffffffffffffffffffffffffffffffff16021790555050565b60008060009054906101000a900473ffffffffffffffffffffffffffffffffffffffff16905090565b6000600560009054906101000a900473ffffffffffffffffffffffffffffffffffffffff1673ffffffffffffffffffffffffffffffffffffffff166370a08231836040518263ffffffff1660e01b8152600401610ea991906119f7565b60206040518083038186803b158015610ec157600080fd5b505afa158015610ed5573d6000803e3d6000fd5b505050506040513d601f19601f82011682018060405250810190610ef99190611695565b9050919050565b60066020528060005260406000206000915090508060000154908060010154908060020154908060030154908060040160009054906101000a900473ffffffffffffffffffffffffffffffffffffffff16905085565b600560009054906101000a900473ffffffffffffffffffffffffffffffffffffffff1681565b606060006001541415610fe557600067ffffffffffffffff811115610fa457610fa3611edb565b5b604051908082528060200260200182016040528015610fdd57816020015b610fca611575565b815260200190600190039081610fc25790505b50905061116a565b6001548210610fff5760018054610ffc9190611cdc565b91505b60006001848461100f9190611cdc565b6110199190611c86565b905060008167ffffffffffffffff81111561103757611036611edb565b5b60405190808252806020026020018201604052801561107057816020015b61105d611575565b8152602001906001900390816110555790505b50925060008590505b848111611166576006600082886110909190611c86565b81526020019081526020016000206040518060a0016040529081600082015481526020016001820154815260200160028201548152602001600382015481526020016004820160009054906101000a900473ffffffffffffffffffffffffffffffffffffffff1673ffffffffffffffffffffffffffffffffffffffff1673ffffffffffffffffffffffffffffffffffffffff168152505084838151811061113a57611139611eac565b5b6020026020010181905250818061115090611da6565b925050808061115e90611da6565b915050611079565b5050505b92915050565b611178611470565b73ffffffffffffffffffffffffffffffffffffffff16611196610e23565b73ffffffffffffffffffffffffffffffffffffffff16146111ec576040517f08c379a00000000000000000000000000000000000000000000000000000000081526004016111e390611b13565b60405180910390fd5b600073ffffffffffffffffffffffffffffffffffffffff168173ffffffffffffffffffffffffffffffffffffffff16141561125c576040517f08c379a000000000000000000000000000000000000000000000000000000000815260040161125390611af3565b60405180910390fd5b61126581611478565b50565b6000806000600560009054906101000a900473ffffffffffffffffffffffffffffffffffffffff1673ffffffffffffffffffffffffffffffffffffffff166318160ddd6040518163ffffffff1660e01b815260040160206040518083038186803b1580156112d557600080fd5b505afa1580156112e9573d6000803e3d6000fd5b505050506040513d601f19601f8201168201806040525081019061130d9190611695565b905060018161131b8661153c565b6113259190611e1d565b61132f9190611c86565b9250600560009054906101000a900473ffffffffffffffffffffffffffffffffffffffff1673ffffffffffffffffffffffffffffffffffffffff16636352211e846040518263ffffffff1660e01b815260040161138c9190611b33565b60206040518083038186803b1580156113a457600080fd5b505afa1580156113b8573d6000803e3d6000fd5b505050506040513d601f19601f820116820180604052508101906113dc919061163b565b915050915091565b6113ec611470565b73ffffffffffffffffffffffffffffffffffffffff1661140a610e23565b73ffffffffffffffffffffffffffffffffffffffff1614611460576040517f08c379a000000000000000000000000000000000000000000000000000000000815260040161145790611b13565b60405180910390fd5b8060038190555050565b60035481565b600033905090565b60008060009054906101000a900473ffffffffffffffffffffffffffffffffffffffff169050816000806101000a81548173ffffffffffffffffffffffffffffffffffffffff021916908373ffffffffffffffffffffffffffffffffffffffff1602179055508173ffffffffffffffffffffffffffffffffffffffff168173ffffffffffffffffffffffffffffffffffffffff167f8be0079c531659141344cd1fd0a4f28419497f9722a3daafe3b4186f6b6457e060405160405180910390a35050565b600081425a3360405160200161155594939291906119a9565b6040516020818303038152906040528051906020012060001c9050919050565b6040518060a0016040528060008152602001600081526020016000815260200160008152602001600073ffffffffffffffffffffffffffffffffffffffff1681525090565b6000813590506115c981611f94565b92915050565b6000815190506115de81611f94565b92915050565b6000813590506115f381611fab565b92915050565b60008151905061160881611fab565b92915050565b60006020828403121561162457611623611f0a565b5b6000611632848285016115ba565b91505092915050565b60006020828403121561165157611650611f0a565b5b600061165f848285016115cf565b91505092915050565b60006020828403121561167e5761167d611f0a565b5b600061168c848285016115e4565b91505092915050565b6000602082840312156116ab576116aa611f0a565b5b60006116b9848285016115f9565b91505092915050565b600080604083850312156116d9576116d8611f0a565b5b60006116e7858286016115e4565b92505060206116f8858286016115e4565b9150509250929050565b600061170e838361174a565b60208301905092915050565b6000611726838361190c565b60a08301905092915050565b600061173e8383611974565b60208301905092915050565b61175381611d10565b82525050565b61176281611d10565b82525050565b61177961177482611d10565b611def565b82525050565b600061178a82611bfa565b6117948185611c42565b935061179f83611bca565b8060005b838110156117d05781516117b78882611702565b97506117c283611c1b565b9250506001810190506117a3565b5085935050505092915050565b60006117e882611c05565b6117f28185611c53565b93506117fd83611bda565b8060005b8381101561182e578151611815888261171a565b975061182083611c28565b925050600181019050611801565b5085935050505092915050565b600061184682611c10565b6118508185611c64565b935061185b83611bea565b8060005b8381101561188c5781516118738882611732565b975061187e83611c35565b92505060018101905061185f565b5085935050505092915050565b6118a281611d4c565b82525050565b6118b181611d5e565b82525050565b6118c081611d70565b82525050565b60006118d3602683611c75565b91506118de82611f1c565b604082019050919050565b60006118f6602083611c75565b915061190182611f6b565b602082019050919050565b60a0820160008201516119226000850182611974565b5060208201516119356020850182611974565b5060408201516119486040850182611974565b50606082015161195b6060850182611974565b50608082015161196e608085018261174a565b50505050565b61197d81611d42565b82525050565b61198c81611d42565b82525050565b6119a361199e82611d42565b611e13565b82525050565b60006119b58287611992565b6020820191506119c58286611992565b6020820191506119d58285611992565b6020820191506119e58284611768565b60148201915081905095945050505050565b6000602082019050611a0c6000830184611759565b92915050565b6000604082019050611a276000830185611759565b611a3460208301846118b7565b9392505050565b6000604082019050611a506000830185611759565b611a5d6020830184611983565b9392505050565b60006040820190508181036000830152611a7e818561177f565b90508181036020830152611a92818461183b565b90509392505050565b60006020820190508181036000830152611ab581846117dd565b905092915050565b6000602082019050611ad26000830184611899565b92915050565b6000602082019050611aed60008301846118a8565b92915050565b60006020820190508181036000830152611b0c816118c6565b9050919050565b60006020820190508181036000830152611b2c816118e9565b9050919050565b6000602082019050611b486000830184611983565b92915050565b6000604082019050611b636000830185611983565b611b706020830184611759565b9392505050565b600060a082019050611b8c6000830188611983565b611b996020830187611983565b611ba66040830186611983565b611bb36060830185611983565b611bc06080830184611759565b9695505050505050565b6000819050602082019050919050565b6000819050602082019050919050565b6000819050602082019050919050565b600081519050919050565b600081519050919050565b600081519050919050565b6000602082019050919050565b6000602082019050919050565b6000602082019050919050565b600082825260208201905092915050565b600082825260208201905092915050565b600082825260208201905092915050565b600082825260208201905092915050565b6000611c9182611d42565b9150611c9c83611d42565b9250827fffffffffffffffffffffffffffffffffffffffffffffffffffffffffffffffff03821115611cd157611cd0611e4e565b5b828201905092915050565b6000611ce782611d42565b9150611cf283611d42565b925082821015611d0557611d04611e4e565b5b828203905092915050565b6000611d1b82611d22565b9050919050565b600073ffffffffffffffffffffffffffffffffffffffff82169050919050565b6000819050919050565b6000611d5782611d82565b9050919050565b6000611d6982611d82565b9050919050565b6000611d7b82611d42565b9050919050565b6000611d8d82611d94565b9050919050565b6000611d9f82611d22565b9050919050565b6000611db182611d42565b91507fffffffffffffffffffffffffffffffffffffffffffffffffffffffffffffffff821415611de457611de3611e4e565b5b600182019050919050565b6000611dfa82611e01565b9050919050565b6000611e0c82611f0f565b9050919050565b6000819050919050565b6000611e2882611d42565b9150611e3383611d42565b925082611e4357611e42611e7d565b5b828206905092915050565b7f4e487b7100000000000000000000000000000000000000000000000000000000600052601160045260246000fd5b7f4e487b7100000000000000000000000000000000000000000000000000000000600052601260045260246000fd5b7f4e487b7100000000000000000000000000000000000000000000000000000000600052603260045260246000fd5b7f4e487b7100000000000000000000000000000000000000000000000000000000600052604160045260246000fd5b600080fd5b60008160601b9050919050565b7f4f776e61626c653a206e6577206f776e657220697320746865207a65726f206160008201527f6464726573730000000000000000000000000000000000000000000000000000602082015250565b7f4f776e61626c653a2063616c6c6572206973206e6f7420746865206f776e6572600082015250565b611f9d81611d10565b8114611fa857600080fd5b50565b611fb481611d42565b8114611fbf57600080fd5b5056fea2646970667358221220bb4a128ed809005d323c294ee7816fd227e60aa84c773056115d79d30cff52dd64736f6c63430008070033",
					"opcodes": "PUSH1 0x80 PUSH1 0x40 MSTORE PUSH8 0xDE0B6B3A7640000 PUSH1 0x3 SSTORE CALLVALUE DUP1 ISZERO PUSH3 0x1D JUMPI PUSH1 0x0 DUP1 REVERT JUMPDEST POP PUSH1 0x40 MLOAD PUSH3 0x2272 CODESIZE SUB DUP1 PUSH3 0x2272 DUP4 CODECOPY DUP2 DUP2 ADD PUSH1 0x40 MSTORE DUP2 ADD SWAP1 PUSH3 0x43 SWAP2 SWAP1 PUSH3 0x1D0 JUMP JUMPDEST PUSH3 0x63 PUSH3 0x57 PUSH3 0xED PUSH1 0x20 SHL PUSH1 0x20 SHR JUMP JUMPDEST PUSH3 0xF5 PUSH1 0x20 SHL PUSH1 0x20 SHR JUMP JUMPDEST DUP2 PUSH1 0x4 PUSH1 0x0 PUSH2 0x100 EXP DUP2 SLOAD DUP2 PUSH20 0xFFFFFFFFFFFFFFFFFFFFFFFFFFFFFFFFFFFFFFFF MUL NOT AND SWAP1 DUP4 PUSH20 0xFFFFFFFFFFFFFFFFFFFFFFFFFFFFFFFFFFFFFFFF AND MUL OR SWAP1 SSTORE POP DUP1 PUSH1 0x5 PUSH1 0x0 PUSH2 0x100 EXP DUP2 SLOAD DUP2 PUSH20 0xFFFFFFFFFFFFFFFFFFFFFFFFFFFFFFFFFFFFFFFF MUL NOT AND SWAP1 DUP4 PUSH20 0xFFFFFFFFFFFFFFFFFFFFFFFFFFFFFFFFFFFFFFFF AND MUL OR SWAP1 SSTORE POP POP POP PUSH3 0x26A JUMP JUMPDEST PUSH1 0x0 CALLER SWAP1 POP SWAP1 JUMP JUMPDEST PUSH1 0x0 DUP1 PUSH1 0x0 SWAP1 SLOAD SWAP1 PUSH2 0x100 EXP SWAP1 DIV PUSH20 0xFFFFFFFFFFFFFFFFFFFFFFFFFFFFFFFFFFFFFFFF AND SWAP1 POP DUP2 PUSH1 0x0 DUP1 PUSH2 0x100 EXP DUP2 SLOAD DUP2 PUSH20 0xFFFFFFFFFFFFFFFFFFFFFFFFFFFFFFFFFFFFFFFF MUL NOT AND SWAP1 DUP4 PUSH20 0xFFFFFFFFFFFFFFFFFFFFFFFFFFFFFFFFFFFFFFFF AND MUL OR SWAP1 SSTORE POP DUP2 PUSH20 0xFFFFFFFFFFFFFFFFFFFFFFFFFFFFFFFFFFFFFFFF AND DUP2 PUSH20 0xFFFFFFFFFFFFFFFFFFFFFFFFFFFFFFFFFFFFFFFF AND PUSH32 0x8BE0079C531659141344CD1FD0A4F28419497F9722A3DAAFE3B4186F6B6457E0 PUSH1 0x40 MLOAD PUSH1 0x40 MLOAD DUP1 SWAP2 SUB SWAP1 LOG3 POP POP JUMP JUMPDEST PUSH1 0x0 DUP2 MLOAD SWAP1 POP PUSH3 0x1CA DUP2 PUSH3 0x250 JUMP JUMPDEST SWAP3 SWAP2 POP POP JUMP JUMPDEST PUSH1 0x0 DUP1 PUSH1 0x40 DUP4 DUP6 SUB SLT ISZERO PUSH3 0x1EA JUMPI PUSH3 0x1E9 PUSH3 0x24B JUMP JUMPDEST JUMPDEST PUSH1 0x0 PUSH3 0x1FA DUP6 DUP3 DUP7 ADD PUSH3 0x1B9 JUMP JUMPDEST SWAP3 POP POP PUSH1 0x20 PUSH3 0x20D DUP6 DUP3 DUP7 ADD PUSH3 0x1B9 JUMP JUMPDEST SWAP2 POP POP SWAP3 POP SWAP3 SWAP1 POP JUMP JUMPDEST PUSH1 0x0 PUSH3 0x224 DUP3 PUSH3 0x22B JUMP JUMPDEST SWAP1 POP SWAP2 SWAP1 POP JUMP JUMPDEST PUSH1 0x0 PUSH20 0xFFFFFFFFFFFFFFFFFFFFFFFFFFFFFFFFFFFFFFFF DUP3 AND SWAP1 POP SWAP2 SWAP1 POP JUMP JUMPDEST PUSH1 0x0 DUP1 REVERT JUMPDEST PUSH3 0x25B DUP2 PUSH3 0x217 JUMP JUMPDEST DUP2 EQ PUSH3 0x267 JUMPI PUSH1 0x0 DUP1 REVERT JUMPDEST POP JUMP JUMPDEST PUSH2 0x1FF8 DUP1 PUSH3 0x27A PUSH1 0x0 CODECOPY PUSH1 0x0 RETURN INVALID PUSH1 0x80 PUSH1 0x40 MSTORE CALLVALUE DUP1 ISZERO PUSH2 0x10 JUMPI PUSH1 0x0 DUP1 REVERT JUMPDEST POP PUSH1 0x4 CALLDATASIZE LT PUSH2 0x116 JUMPI PUSH1 0x0 CALLDATALOAD PUSH1 0xE0 SHR DUP1 PUSH4 0x8DA5CB5B GT PUSH2 0xA2 JUMPI DUP1 PUSH4 0xBC15CDF0 GT PUSH2 0x71 JUMPI DUP1 PUSH4 0xBC15CDF0 EQ PUSH2 0x2B2 JUMPI DUP1 PUSH4 0xF2FDE38B EQ PUSH2 0x2E2 JUMPI DUP1 PUSH4 0xF737D21D EQ PUSH2 0x2FE JUMPI DUP1 PUSH4 0xF80FB76D EQ PUSH2 0x32F JUMPI DUP1 PUSH4 0xF9CEE0BD EQ PUSH2 0x34B JUMPI PUSH2 0x116 JUMP JUMPDEST DUP1 PUSH4 0x8DA5CB5B EQ PUSH2 0x212 JUMPI DUP1 PUSH4 0x9F10A990 EQ PUSH2 0x230 JUMPI DUP1 PUSH4 0xAC128F4F EQ PUSH2 0x260 JUMPI DUP1 PUSH4 0xAEB18350 EQ PUSH2 0x294 JUMPI PUSH2 0x116 JUMP JUMPDEST DUP1 PUSH4 0x3B98BC65 GT PUSH2 0xE9 JUMPI DUP1 PUSH4 0x3B98BC65 EQ PUSH2 0x193 JUMPI DUP1 PUSH4 0x454F7B8F EQ PUSH2 0x1B2 JUMPI DUP1 PUSH4 0x6FBB5A86 EQ PUSH2 0x1D0 JUMPI DUP1 PUSH4 0x715018A6 EQ PUSH2 0x1EC JUMPI DUP1 PUSH4 0x7AD3DEF2 EQ PUSH2 0x1F6 JUMPI PUSH2 0x116 JUMP JUMPDEST DUP1 PUSH4 0x119B22B3 EQ PUSH2 0x11B JUMPI DUP1 PUSH4 0x158977DE EQ PUSH2 0x139 JUMPI DUP1 PUSH4 0x17BE85C3 EQ PUSH2 0x157 JUMPI DUP1 PUSH4 0x3013CE29 EQ PUSH2 0x175 JUMPI JUMPDEST PUSH1 0x0 DUP1 REVERT JUMPDEST PUSH2 0x123 PUSH2 0x369 JUMP JUMPDEST PUSH1 0x40 MLOAD PUSH2 0x130 SWAP2 SWAP1 PUSH2 0x1B33 JUMP JUMPDEST PUSH1 0x40 MLOAD DUP1 SWAP2 SUB SWAP1 RETURN JUMPDEST PUSH2 0x141 PUSH2 0x36F JUMP JUMPDEST PUSH1 0x40 MLOAD PUSH2 0x14E SWAP2 SWAP1 PUSH2 0x1B33 JUMP JUMPDEST PUSH1 0x40 MLOAD DUP1 SWAP2 SUB SWAP1 RETURN JUMPDEST PUSH2 0x15F PUSH2 0x5AE JUMP JUMPDEST PUSH1 0x40 MLOAD PUSH2 0x16C SWAP2 SWAP1 PUSH2 0x1B33 JUMP JUMPDEST PUSH1 0x40 MLOAD DUP1 SWAP2 SUB SWAP1 RETURN JUMPDEST PUSH2 0x17D PUSH2 0x655 JUMP JUMPDEST PUSH1 0x40 MLOAD PUSH2 0x18A SWAP2 SWAP1 PUSH2 0x1ABD JUMP JUMPDEST PUSH1 0x40 MLOAD DUP1 SWAP2 SUB SWAP1 RETURN JUMPDEST PUSH2 0x19B PUSH2 0x67B JUMP JUMPDEST PUSH1 0x40 MLOAD PUSH2 0x1A9 SWAP3 SWAP2 SWAP1 PUSH2 0x1A64 JUMP JUMPDEST PUSH1 0x40 MLOAD DUP1 SWAP2 SUB SWAP1 RETURN JUMPDEST PUSH2 0x1BA PUSH2 0x9D8 JUMP JUMPDEST PUSH1 0x40 MLOAD PUSH2 0x1C7 SWAP2 SWAP1 PUSH2 0x1B33 JUMP JUMPDEST PUSH1 0x40 MLOAD DUP1 SWAP2 SUB SWAP1 RETURN JUMPDEST PUSH2 0x1EA PUSH1 0x4 DUP1 CALLDATASIZE SUB DUP2 ADD SWAP1 PUSH2 0x1E5 SWAP2 SWAP1 PUSH2 0x16C2 JUMP JUMPDEST PUSH2 0x9DE JUMP JUMPDEST STOP JUMPDEST PUSH2 0x1F4 PUSH2 0xCDB JUMP JUMPDEST STOP JUMPDEST PUSH2 0x210 PUSH1 0x4 DUP1 CALLDATASIZE SUB DUP2 ADD SWAP1 PUSH2 0x20B SWAP2 SWAP1 PUSH2 0x160E JUMP JUMPDEST PUSH2 0xD63 JUMP JUMPDEST STOP JUMPDEST PUSH2 0x21A PUSH2 0xE23 JUMP JUMPDEST PUSH1 0x40 MLOAD PUSH2 0x227 SWAP2 SWAP1 PUSH2 0x19F7 JUMP JUMPDEST PUSH1 0x40 MLOAD DUP1 SWAP2 SUB SWAP1 RETURN JUMPDEST PUSH2 0x24A PUSH1 0x4 DUP1 CALLDATASIZE SUB DUP2 ADD SWAP1 PUSH2 0x245 SWAP2 SWAP1 PUSH2 0x160E JUMP JUMPDEST PUSH2 0xE4C JUMP JUMPDEST PUSH1 0x40 MLOAD PUSH2 0x257 SWAP2 SWAP1 PUSH2 0x1B33 JUMP JUMPDEST PUSH1 0x40 MLOAD DUP1 SWAP2 SUB SWAP1 RETURN JUMPDEST PUSH2 0x27A PUSH1 0x4 DUP1 CALLDATASIZE SUB DUP2 ADD SWAP1 PUSH2 0x275 SWAP2 SWAP1 PUSH2 0x1668 JUMP JUMPDEST PUSH2 0xF00 JUMP JUMPDEST PUSH1 0x40 MLOAD PUSH2 0x28B SWAP6 SWAP5 SWAP4 SWAP3 SWAP2 SWAP1 PUSH2 0x1B77 JUMP JUMPDEST PUSH1 0x40 MLOAD DUP1 SWAP2 SUB SWAP1 RETURN JUMPDEST PUSH2 0x29C PUSH2 0xF56 JUMP JUMPDEST PUSH1 0x40 MLOAD PUSH2 0x2A9 SWAP2 SWAP1 PUSH2 0x1AD8 JUMP JUMPDEST PUSH1 0x40 MLOAD DUP1 SWAP2 SUB SWAP1 RETURN JUMPDEST PUSH2 0x2CC PUSH1 0x4 DUP1 CALLDATASIZE SUB DUP2 ADD SWAP1 PUSH2 0x2C7 SWAP2 SWAP1 PUSH2 0x16C2 JUMP JUMPDEST PUSH2 0xF7C JUMP JUMPDEST PUSH1 0x40 MLOAD PUSH2 0x2D9 SWAP2 SWAP1 PUSH2 0x1A9B JUMP JUMPDEST PUSH1 0x40 MLOAD DUP1 SWAP2 SUB SWAP1 RETURN JUMPDEST PUSH2 0x2FC PUSH1 0x4 DUP1 CALLDATASIZE SUB DUP2 ADD SWAP1 PUSH2 0x2F7 SWAP2 SWAP1 PUSH2 0x160E JUMP JUMPDEST PUSH2 0x1170 JUMP JUMPDEST STOP JUMPDEST PUSH2 0x318 PUSH1 0x4 DUP1 CALLDATASIZE SUB DUP2 ADD SWAP1 PUSH2 0x313 SWAP2 SWAP1 PUSH2 0x1668 JUMP JUMPDEST PUSH2 0x1268 JUMP JUMPDEST PUSH1 0x40 MLOAD PUSH2 0x326 SWAP3 SWAP2 SWAP1 PUSH2 0x1B4E JUMP JUMPDEST PUSH1 0x40 MLOAD DUP1 SWAP2 SUB SWAP1 RETURN JUMPDEST PUSH2 0x349 PUSH1 0x4 DUP1 CALLDATASIZE SUB DUP2 ADD SWAP1 PUSH2 0x344 SWAP2 SWAP1 PUSH2 0x1668 JUMP JUMPDEST PUSH2 0x13E4 JUMP JUMPDEST STOP JUMPDEST PUSH2 0x353 PUSH2 0x146A JUMP JUMPDEST PUSH1 0x40 MLOAD PUSH2 0x360 SWAP2 SWAP1 PUSH2 0x1B33 JUMP JUMPDEST PUSH1 0x40 MLOAD DUP1 SWAP2 SUB SWAP1 RETURN JUMPDEST PUSH1 0x1 SLOAD DUP2 JUMP JUMPDEST PUSH1 0x0 DUP1 PUSH1 0x5 PUSH1 0x0 SWAP1 SLOAD SWAP1 PUSH2 0x100 EXP SWAP1 DIV PUSH20 0xFFFFFFFFFFFFFFFFFFFFFFFFFFFFFFFFFFFFFFFF AND PUSH20 0xFFFFFFFFFFFFFFFFFFFFFFFFFFFFFFFFFFFFFFFF AND PUSH4 0x18160DDD PUSH1 0x40 MLOAD DUP2 PUSH4 0xFFFFFFFF AND PUSH1 0xE0 SHL DUP2 MSTORE PUSH1 0x4 ADD PUSH1 0x20 PUSH1 0x40 MLOAD DUP1 DUP4 SUB DUP2 DUP7 DUP1 EXTCODESIZE ISZERO DUP1 ISZERO PUSH2 0x3DA JUMPI PUSH1 0x0 DUP1 REVERT JUMPDEST POP GAS STATICCALL ISZERO DUP1 ISZERO PUSH2 0x3EE JUMPI RETURNDATASIZE PUSH1 0x0 DUP1 RETURNDATACOPY RETURNDATASIZE PUSH1 0x0 REVERT JUMPDEST POP POP POP POP PUSH1 0x40 MLOAD RETURNDATASIZE PUSH1 0x1F NOT PUSH1 0x1F DUP3 ADD AND DUP3 ADD DUP1 PUSH1 0x40 MSTORE POP DUP2 ADD SWAP1 PUSH2 0x412 SWAP2 SWAP1 PUSH2 0x1695 JUMP JUMPDEST SWAP1 POP PUSH1 0x0 PUSH1 0x1 SWAP1 POP JUMPDEST DUP2 DUP2 GT PUSH2 0x5A9 JUMPI PUSH1 0x0 PUSH1 0x5 PUSH1 0x0 SWAP1 SLOAD SWAP1 PUSH2 0x100 EXP SWAP1 DIV PUSH20 0xFFFFFFFFFFFFFFFFFFFFFFFFFFFFFFFFFFFFFFFF AND PUSH20 0xFFFFFFFFFFFFFFFFFFFFFFFFFFFFFFFFFFFFFFFF AND PUSH4 0x6352211E DUP4 PUSH1 0x40 MLOAD DUP3 PUSH4 0xFFFFFFFF AND PUSH1 0xE0 SHL DUP2 MSTORE PUSH1 0x4 ADD PUSH2 0x47F SWAP2 SWAP1 PUSH2 0x1B33 JUMP JUMPDEST PUSH1 0x20 PUSH1 0x40 MLOAD DUP1 DUP4 SUB DUP2 DUP7 DUP1 EXTCODESIZE ISZERO DUP1 ISZERO PUSH2 0x497 JUMPI PUSH1 0x0 DUP1 REVERT JUMPDEST POP GAS STATICCALL ISZERO DUP1 ISZERO PUSH2 0x4AB JUMPI RETURNDATASIZE PUSH1 0x0 DUP1 RETURNDATACOPY RETURNDATASIZE PUSH1 0x0 REVERT JUMPDEST POP POP POP POP PUSH1 0x40 MLOAD RETURNDATASIZE PUSH1 0x1F NOT PUSH1 0x1F DUP3 ADD AND DUP3 ADD DUP1 PUSH1 0x40 MSTORE POP DUP2 ADD SWAP1 PUSH2 0x4CF SWAP2 SWAP1 PUSH2 0x163B JUMP JUMPDEST SWAP1 POP PUSH1 0x5 PUSH1 0x0 SWAP1 SLOAD SWAP1 PUSH2 0x100 EXP SWAP1 DIV PUSH20 0xFFFFFFFFFFFFFFFFFFFFFFFFFFFFFFFFFFFFFFFF AND PUSH20 0xFFFFFFFFFFFFFFFFFFFFFFFFFFFFFFFFFFFFFFFF AND PUSH4 0x2F745C59 DUP3 PUSH1 0x0 PUSH1 0x40 MLOAD DUP4 PUSH4 0xFFFFFFFF AND PUSH1 0xE0 SHL DUP2 MSTORE PUSH1 0x4 ADD PUSH2 0x52F SWAP3 SWAP2 SWAP1 PUSH2 0x1A12 JUMP JUMPDEST PUSH1 0x20 PUSH1 0x40 MLOAD DUP1 DUP4 SUB DUP2 DUP7 DUP1 EXTCODESIZE ISZERO DUP1 ISZERO PUSH2 0x547 JUMPI PUSH1 0x0 DUP1 REVERT JUMPDEST POP GAS STATICCALL ISZERO DUP1 ISZERO PUSH2 0x55B JUMPI RETURNDATASIZE PUSH1 0x0 DUP1 RETURNDATACOPY RETURNDATASIZE PUSH1 0x0 REVERT JUMPDEST POP POP POP POP PUSH1 0x40 MLOAD RETURNDATASIZE PUSH1 0x1F NOT PUSH1 0x1F DUP3 ADD AND DUP3 ADD DUP1 PUSH1 0x40 MSTORE POP DUP2 ADD SWAP1 PUSH2 0x57F SWAP2 SWAP1 PUSH2 0x1695 JUMP JUMPDEST DUP3 EQ ISZERO PUSH2 0x595 JUMPI DUP4 DUP1 PUSH2 0x591 SWAP1 PUSH2 0x1DA6 JUMP JUMPDEST SWAP5 POP POP JUMPDEST POP DUP1 DUP1 PUSH2 0x5A1 SWAP1 PUSH2 0x1DA6 JUMP JUMPDEST SWAP2 POP POP PUSH2 0x41B JUMP JUMPDEST POP POP SWAP1 JUMP JUMPDEST PUSH1 0x0 PUSH1 0x5 PUSH1 0x0 SWAP1 SLOAD SWAP1 PUSH2 0x100 EXP SWAP1 DIV PUSH20 0xFFFFFFFFFFFFFFFFFFFFFFFFFFFFFFFFFFFFFFFF AND PUSH20 0xFFFFFFFFFFFFFFFFFFFFFFFFFFFFFFFFFFFFFFFF AND PUSH4 0x18160DDD PUSH1 0x40 MLOAD DUP2 PUSH4 0xFFFFFFFF AND PUSH1 0xE0 SHL DUP2 MSTORE PUSH1 0x4 ADD PUSH1 0x20 PUSH1 0x40 MLOAD DUP1 DUP4 SUB DUP2 DUP7 DUP1 EXTCODESIZE ISZERO DUP1 ISZERO PUSH2 0x618 JUMPI PUSH1 0x0 DUP1 REVERT JUMPDEST POP GAS STATICCALL ISZERO DUP1 ISZERO PUSH2 0x62C JUMPI RETURNDATASIZE PUSH1 0x0 DUP1 RETURNDATACOPY RETURNDATASIZE PUSH1 0x0 REVERT JUMPDEST POP POP POP POP PUSH1 0x40 MLOAD RETURNDATASIZE PUSH1 0x1F NOT PUSH1 0x1F DUP3 ADD AND DUP3 ADD DUP1 PUSH1 0x40 MSTORE POP DUP2 ADD SWAP1 PUSH2 0x650 SWAP2 SWAP1 PUSH2 0x1695 JUMP JUMPDEST SWAP1 POP SWAP1 JUMP JUMPDEST PUSH1 0x4 PUSH1 0x0 SWAP1 SLOAD SWAP1 PUSH2 0x100 EXP SWAP1 DIV PUSH20 0xFFFFFFFFFFFFFFFFFFFFFFFFFFFFFFFFFFFFFFFF AND DUP2 JUMP JUMPDEST PUSH1 0x60 DUP1 PUSH1 0x0 PUSH1 0x5 PUSH1 0x0 SWAP1 SLOAD SWAP1 PUSH2 0x100 EXP SWAP1 DIV PUSH20 0xFFFFFFFFFFFFFFFFFFFFFFFFFFFFFFFFFFFFFFFF AND PUSH20 0xFFFFFFFFFFFFFFFFFFFFFFFFFFFFFFFFFFFFFFFF AND PUSH4 0x18160DDD PUSH1 0x40 MLOAD DUP2 PUSH4 0xFFFFFFFF AND PUSH1 0xE0 SHL DUP2 MSTORE PUSH1 0x4 ADD PUSH1 0x20 PUSH1 0x40 MLOAD DUP1 DUP4 SUB DUP2 DUP7 DUP1 EXTCODESIZE ISZERO DUP1 ISZERO PUSH2 0x6E8 JUMPI PUSH1 0x0 DUP1 REVERT JUMPDEST POP GAS STATICCALL ISZERO DUP1 ISZERO PUSH2 0x6FC JUMPI RETURNDATASIZE PUSH1 0x0 DUP1 RETURNDATACOPY RETURNDATASIZE PUSH1 0x0 REVERT JUMPDEST POP POP POP POP PUSH1 0x40 MLOAD RETURNDATASIZE PUSH1 0x1F NOT PUSH1 0x1F DUP3 ADD AND DUP3 ADD DUP1 PUSH1 0x40 MSTORE POP DUP2 ADD SWAP1 PUSH2 0x720 SWAP2 SWAP1 PUSH2 0x1695 JUMP JUMPDEST SWAP1 POP PUSH1 0x0 PUSH2 0x72C PUSH2 0x36F JUMP JUMPDEST SWAP1 POP DUP1 PUSH8 0xFFFFFFFFFFFFFFFF DUP2 GT ISZERO PUSH2 0x748 JUMPI PUSH2 0x747 PUSH2 0x1EDB JUMP JUMPDEST JUMPDEST PUSH1 0x40 MLOAD SWAP1 DUP1 DUP3 MSTORE DUP1 PUSH1 0x20 MUL PUSH1 0x20 ADD DUP3 ADD PUSH1 0x40 MSTORE DUP1 ISZERO PUSH2 0x776 JUMPI DUP2 PUSH1 0x20 ADD PUSH1 0x20 DUP3 MUL DUP1 CALLDATASIZE DUP4 CALLDATACOPY DUP1 DUP3 ADD SWAP2 POP POP SWAP1 POP JUMPDEST POP SWAP4 POP DUP1 PUSH8 0xFFFFFFFFFFFFFFFF DUP2 GT ISZERO PUSH2 0x793 JUMPI PUSH2 0x792 PUSH2 0x1EDB JUMP JUMPDEST JUMPDEST PUSH1 0x40 MLOAD SWAP1 DUP1 DUP3 MSTORE DUP1 PUSH1 0x20 MUL PUSH1 0x20 ADD DUP3 ADD PUSH1 0x40 MSTORE DUP1 ISZERO PUSH2 0x7C1 JUMPI DUP2 PUSH1 0x20 ADD PUSH1 0x20 DUP3 MUL DUP1 CALLDATASIZE DUP4 CALLDATACOPY DUP1 DUP3 ADD SWAP2 POP POP SWAP1 POP JUMPDEST POP SWAP3 POP PUSH1 0x0 DUP1 PUSH1 0x1 SWAP1 POP JUMPDEST DUP4 DUP2 GT PUSH2 0x9D0 JUMPI PUSH1 0x0 PUSH1 0x5 PUSH1 0x0 SWAP1 SLOAD SWAP1 PUSH2 0x100 EXP SWAP1 DIV PUSH20 0xFFFFFFFFFFFFFFFFFFFFFFFFFFFFFFFFFFFFFFFF AND PUSH20 0xFFFFFFFFFFFFFFFFFFFFFFFFFFFFFFFFFFFFFFFF AND PUSH4 0x6352211E DUP4 PUSH1 0x40 MLOAD DUP3 PUSH4 0xFFFFFFFF AND PUSH1 0xE0 SHL DUP2 MSTORE PUSH1 0x4 ADD PUSH2 0x830 SWAP2 SWAP1 PUSH2 0x1B33 JUMP JUMPDEST PUSH1 0x20 PUSH1 0x40 MLOAD DUP1 DUP4 SUB DUP2 DUP7 DUP1 EXTCODESIZE ISZERO DUP1 ISZERO PUSH2 0x848 JUMPI PUSH1 0x0 DUP1 REVERT JUMPDEST POP GAS STATICCALL ISZERO DUP1 ISZERO PUSH2 0x85C JUMPI RETURNDATASIZE PUSH1 0x0 DUP1 RETURNDATACOPY RETURNDATASIZE PUSH1 0x0 REVERT JUMPDEST POP POP POP POP PUSH1 0x40 MLOAD RETURNDATASIZE PUSH1 0x1F NOT PUSH1 0x1F DUP3 ADD AND DUP3 ADD DUP1 PUSH1 0x40 MSTORE POP DUP2 ADD SWAP1 PUSH2 0x880 SWAP2 SWAP1 PUSH2 0x163B JUMP JUMPDEST SWAP1 POP PUSH1 0x5 PUSH1 0x0 SWAP1 SLOAD SWAP1 PUSH2 0x100 EXP SWAP1 DIV PUSH20 0xFFFFFFFFFFFFFFFFFFFFFFFFFFFFFFFFFFFFFFFF AND PUSH20 0xFFFFFFFFFFFFFFFFFFFFFFFFFFFFFFFFFFFFFFFF AND PUSH4 0x2F745C59 DUP3 PUSH1 0x0 PUSH1 0x40 MLOAD DUP4 PUSH4 0xFFFFFFFF AND PUSH1 0xE0 SHL DUP2 MSTORE PUSH1 0x4 ADD PUSH2 0x8E0 SWAP3 SWAP2 SWAP1 PUSH2 0x1A12 JUMP JUMPDEST PUSH1 0x20 PUSH1 0x40 MLOAD DUP1 DUP4 SUB DUP2 DUP7 DUP1 EXTCODESIZE ISZERO DUP1 ISZERO PUSH2 0x8F8 JUMPI PUSH1 0x0 DUP1 REVERT JUMPDEST POP GAS STATICCALL ISZERO DUP1 ISZERO PUSH2 0x90C JUMPI RETURNDATASIZE PUSH1 0x0 DUP1 RETURNDATACOPY RETURNDATASIZE PUSH1 0x0 REVERT JUMPDEST POP POP POP POP PUSH1 0x40 MLOAD RETURNDATASIZE PUSH1 0x1F NOT PUSH1 0x1F DUP3 ADD AND DUP3 ADD DUP1 PUSH1 0x40 MSTORE POP DUP2 ADD SWAP1 PUSH2 0x930 SWAP2 SWAP1 PUSH2 0x1695 JUMP JUMPDEST DUP3 EQ ISZERO PUSH2 0x9BC JUMPI DUP1 DUP8 DUP5 DUP2 MLOAD DUP2 LT PUSH2 0x94B JUMPI PUSH2 0x94A PUSH2 0x1EAC JUMP JUMPDEST JUMPDEST PUSH1 0x20 MUL PUSH1 0x20 ADD ADD SWAP1 PUSH20 0xFFFFFFFFFFFFFFFFFFFFFFFFFFFFFFFFFFFFFFFF AND SWAP1 DUP2 PUSH20 0xFFFFFFFFFFFFFFFFFFFFFFFFFFFFFFFFFFFFFFFF AND DUP2 MSTORE POP POP PUSH2 0x98E DUP2 PUSH2 0xE4C JUMP JUMPDEST DUP7 DUP5 DUP2 MLOAD DUP2 LT PUSH2 0x9A1 JUMPI PUSH2 0x9A0 PUSH2 0x1EAC JUMP JUMPDEST JUMPDEST PUSH1 0x20 MUL PUSH1 0x20 ADD ADD DUP2 DUP2 MSTORE POP POP DUP3 DUP1 PUSH2 0x9B8 SWAP1 PUSH2 0x1DA6 JUMP JUMPDEST SWAP4 POP POP JUMPDEST POP DUP1 DUP1 PUSH2 0x9C8 SWAP1 PUSH2 0x1DA6 JUMP JUMPDEST SWAP2 POP POP PUSH2 0x7CC JUMP JUMPDEST POP POP POP POP SWAP1 SWAP2 JUMP JUMPDEST PUSH1 0x2 SLOAD DUP2 JUMP JUMPDEST PUSH2 0x9E6 PUSH2 0x1470 JUMP JUMPDEST PUSH20 0xFFFFFFFFFFFFFFFFFFFFFFFFFFFFFFFFFFFFFFFF AND PUSH2 0xA04 PUSH2 0xE23 JUMP JUMPDEST PUSH20 0xFFFFFFFFFFFFFFFFFFFFFFFFFFFFFFFFFFFFFFFF AND EQ PUSH2 0xA5A JUMPI PUSH1 0x40 MLOAD PUSH32 0x8C379A000000000000000000000000000000000000000000000000000000000 DUP2 MSTORE PUSH1 0x4 ADD PUSH2 0xA51 SWAP1 PUSH2 0x1B13 JUMP JUMPDEST PUSH1 0x40 MLOAD DUP1 SWAP2 SUB SWAP1 REVERT JUMPDEST PUSH1 0x0 PUSH1 0x5 PUSH1 0x0 SWAP1 SLOAD SWAP1 PUSH2 0x100 EXP SWAP1 DIV PUSH20 0xFFFFFFFFFFFFFFFFFFFFFFFFFFFFFFFFFFFFFFFF AND PUSH20 0xFFFFFFFFFFFFFFFFFFFFFFFFFFFFFFFFFFFFFFFF AND PUSH4 0x6352211E DUP5 PUSH1 0x40 MLOAD DUP3 PUSH4 0xFFFFFFFF AND PUSH1 0xE0 SHL DUP2 MSTORE PUSH1 0x4 ADD PUSH2 0xAB7 SWAP2 SWAP1 PUSH2 0x1B33 JUMP JUMPDEST PUSH1 0x20 PUSH1 0x40 MLOAD DUP1 DUP4 SUB DUP2 DUP7 DUP1 EXTCODESIZE ISZERO DUP1 ISZERO PUSH2 0xACF JUMPI PUSH1 0x0 DUP1 REVERT JUMPDEST POP GAS STATICCALL ISZERO DUP1 ISZERO PUSH2 0xAE3 JUMPI RETURNDATASIZE PUSH1 0x0 DUP1 RETURNDATACOPY RETURNDATASIZE PUSH1 0x0 REVERT JUMPDEST POP POP POP POP PUSH1 0x40 MLOAD RETURNDATASIZE PUSH1 0x1F NOT PUSH1 0x1F DUP3 ADD AND DUP3 ADD DUP1 PUSH1 0x40 MSTORE POP DUP2 ADD SWAP1 PUSH2 0xB07 SWAP2 SWAP1 PUSH2 0x163B JUMP JUMPDEST SWAP1 POP PUSH1 0x40 MLOAD DUP1 PUSH1 0xA0 ADD PUSH1 0x40 MSTORE DUP1 PUSH1 0x5 PUSH1 0x0 SWAP1 SLOAD SWAP1 PUSH2 0x100 EXP SWAP1 DIV PUSH20 0xFFFFFFFFFFFFFFFFFFFFFFFFFFFFFFFFFFFFFFFF AND PUSH20 0xFFFFFFFFFFFFFFFFFFFFFFFFFFFFFFFFFFFFFFFF AND PUSH4 0x18160DDD PUSH1 0x40 MLOAD DUP2 PUSH4 0xFFFFFFFF AND PUSH1 0xE0 SHL DUP2 MSTORE PUSH1 0x4 ADD PUSH1 0x20 PUSH1 0x40 MLOAD DUP1 DUP4 SUB DUP2 DUP7 DUP1 EXTCODESIZE ISZERO DUP1 ISZERO PUSH2 0xB7C JUMPI PUSH1 0x0 DUP1 REVERT JUMPDEST POP GAS STATICCALL ISZERO DUP1 ISZERO PUSH2 0xB90 JUMPI RETURNDATASIZE PUSH1 0x0 DUP1 RETURNDATACOPY RETURNDATASIZE PUSH1 0x0 REVERT JUMPDEST POP POP POP POP PUSH1 0x40 MLOAD RETURNDATASIZE PUSH1 0x1F NOT PUSH1 0x1F DUP3 ADD AND DUP3 ADD DUP1 PUSH1 0x40 MSTORE POP DUP2 ADD SWAP1 PUSH2 0xBB4 SWAP2 SWAP1 PUSH2 0x1695 JUMP JUMPDEST DUP2 MSTORE PUSH1 0x20 ADD DUP5 DUP2 MSTORE PUSH1 0x20 ADD DUP4 DUP2 MSTORE PUSH1 0x20 ADD TIMESTAMP DUP2 MSTORE PUSH1 0x20 ADD DUP3 PUSH20 0xFFFFFFFFFFFFFFFFFFFFFFFFFFFFFFFFFFFFFFFF AND DUP2 MSTORE POP PUSH1 0x6 PUSH1 0x0 PUSH1 0x1 SLOAD DUP2 MSTORE PUSH1 0x20 ADD SWAP1 DUP2 MSTORE PUSH1 0x20 ADD PUSH1 0x0 KECCAK256 PUSH1 0x0 DUP3 ADD MLOAD DUP2 PUSH1 0x0 ADD SSTORE PUSH1 0x20 DUP3 ADD MLOAD DUP2 PUSH1 0x1 ADD SSTORE PUSH1 0x40 DUP3 ADD MLOAD DUP2 PUSH1 0x2 ADD SSTORE PUSH1 0x60 DUP3 ADD MLOAD DUP2 PUSH1 0x3 ADD SSTORE PUSH1 0x80 DUP3 ADD MLOAD DUP2 PUSH1 0x4 ADD PUSH1 0x0 PUSH2 0x100 EXP DUP2 SLOAD DUP2 PUSH20 0xFFFFFFFFFFFFFFFFFFFFFFFFFFFFFFFFFFFFFFFF MUL NOT AND SWAP1 DUP4 PUSH20 0xFFFFFFFFFFFFFFFFFFFFFFFFFFFFFFFFFFFFFFFF AND MUL OR SWAP1 SSTORE POP SWAP1 POP POP DUP2 PUSH1 0x2 PUSH1 0x0 DUP3 DUP3 SLOAD PUSH2 0xC7E SWAP2 SWAP1 PUSH2 0x1C86 JUMP JUMPDEST SWAP3 POP POP DUP2 SWAP1 SSTORE POP PUSH1 0x1 PUSH1 0x0 DUP2 SLOAD DUP1 SWAP3 SWAP2 SWAP1 PUSH2 0xC98 SWAP1 PUSH2 0x1DA6 JUMP JUMPDEST SWAP2 SWAP1 POP SSTORE POP PUSH32 0x2E798DD4337E515C79B64C40E1A93BAA1AEFBD9180AC7905E02508EDD7971E50 DUP2 DUP4 PUSH1 0x40 MLOAD PUSH2 0xCCE SWAP3 SWAP2 SWAP1 PUSH2 0x1A3B JUMP JUMPDEST PUSH1 0x40 MLOAD DUP1 SWAP2 SUB SWAP1 LOG1 POP POP POP JUMP JUMPDEST PUSH2 0xCE3 PUSH2 0x1470 JUMP JUMPDEST PUSH20 0xFFFFFFFFFFFFFFFFFFFFFFFFFFFFFFFFFFFFFFFF AND PUSH2 0xD01 PUSH2 0xE23 JUMP JUMPDEST PUSH20 0xFFFFFFFFFFFFFFFFFFFFFFFFFFFFFFFFFFFFFFFF AND EQ PUSH2 0xD57 JUMPI PUSH1 0x40 MLOAD PUSH32 0x8C379A000000000000000000000000000000000000000000000000000000000 DUP2 MSTORE PUSH1 0x4 ADD PUSH2 0xD4E SWAP1 PUSH2 0x1B13 JUMP JUMPDEST PUSH1 0x40 MLOAD DUP1 SWAP2 SUB SWAP1 REVERT JUMPDEST PUSH2 0xD61 PUSH1 0x0 PUSH2 0x1478 JUMP JUMPDEST JUMP JUMPDEST PUSH2 0xD6B PUSH2 0x1470 JUMP JUMPDEST PUSH20 0xFFFFFFFFFFFFFFFFFFFFFFFFFFFFFFFFFFFFFFFF AND PUSH2 0xD89 PUSH2 0xE23 JUMP JUMPDEST PUSH20 0xFFFFFFFFFFFFFFFFFFFFFFFFFFFFFFFFFFFFFFFF AND EQ PUSH2 0xDDF JUMPI PUSH1 0x40 MLOAD PUSH32 0x8C379A000000000000000000000000000000000000000000000000000000000 DUP2 MSTORE PUSH1 0x4 ADD PUSH2 0xDD6 SWAP1 PUSH2 0x1B13 JUMP JUMPDEST PUSH1 0x40 MLOAD DUP1 SWAP2 SUB SWAP1 REVERT JUMPDEST DUP1 PUSH1 0x4 PUSH1 0x0 PUSH2 0x100 EXP DUP2 SLOAD DUP2 PUSH20 0xFFFFFFFFFFFFFFFFFFFFFFFFFFFFFFFFFFFFFFFF MUL NOT AND SWAP1 DUP4 PUSH20 0xFFFFFFFFFFFFFFFFFFFFFFFFFFFFFFFFFFFFFFFF AND MUL OR SWAP1 SSTORE POP POP JUMP JUMPDEST PUSH1 0x0 DUP1 PUSH1 0x0 SWAP1 SLOAD SWAP1 PUSH2 0x100 EXP SWAP1 DIV PUSH20 0xFFFFFFFFFFFFFFFFFFFFFFFFFFFFFFFFFFFFFFFF AND SWAP1 POP SWAP1 JUMP JUMPDEST PUSH1 0x0 PUSH1 0x5 PUSH1 0x0 SWAP1 SLOAD SWAP1 PUSH2 0x100 EXP SWAP1 DIV PUSH20 0xFFFFFFFFFFFFFFFFFFFFFFFFFFFFFFFFFFFFFFFF AND PUSH20 0xFFFFFFFFFFFFFFFFFFFFFFFFFFFFFFFFFFFFFFFF AND PUSH4 0x70A08231 DUP4 PUSH1 0x40 MLOAD DUP3 PUSH4 0xFFFFFFFF AND PUSH1 0xE0 SHL DUP2 MSTORE PUSH1 0x4 ADD PUSH2 0xEA9 SWAP2 SWAP1 PUSH2 0x19F7 JUMP JUMPDEST PUSH1 0x20 PUSH1 0x40 MLOAD DUP1 DUP4 SUB DUP2 DUP7 DUP1 EXTCODESIZE ISZERO DUP1 ISZERO PUSH2 0xEC1 JUMPI PUSH1 0x0 DUP1 REVERT JUMPDEST POP GAS STATICCALL ISZERO DUP1 ISZERO PUSH2 0xED5 JUMPI RETURNDATASIZE PUSH1 0x0 DUP1 RETURNDATACOPY RETURNDATASIZE PUSH1 0x0 REVERT JUMPDEST POP POP POP POP PUSH1 0x40 MLOAD RETURNDATASIZE PUSH1 0x1F NOT PUSH1 0x1F DUP3 ADD AND DUP3 ADD DUP1 PUSH1 0x40 MSTORE POP DUP2 ADD SWAP1 PUSH2 0xEF9 SWAP2 SWAP1 PUSH2 0x1695 JUMP JUMPDEST SWAP1 POP SWAP2 SWAP1 POP JUMP JUMPDEST PUSH1 0x6 PUSH1 0x20 MSTORE DUP1 PUSH1 0x0 MSTORE PUSH1 0x40 PUSH1 0x0 KECCAK256 PUSH1 0x0 SWAP2 POP SWAP1 POP DUP1 PUSH1 0x0 ADD SLOAD SWAP1 DUP1 PUSH1 0x1 ADD SLOAD SWAP1 DUP1 PUSH1 0x2 ADD SLOAD SWAP1 DUP1 PUSH1 0x3 ADD SLOAD SWAP1 DUP1 PUSH1 0x4 ADD PUSH1 0x0 SWAP1 SLOAD SWAP1 PUSH2 0x100 EXP SWAP1 DIV PUSH20 0xFFFFFFFFFFFFFFFFFFFFFFFFFFFFFFFFFFFFFFFF AND SWAP1 POP DUP6 JUMP JUMPDEST PUSH1 0x5 PUSH1 0x0 SWAP1 SLOAD SWAP1 PUSH2 0x100 EXP SWAP1 DIV PUSH20 0xFFFFFFFFFFFFFFFFFFFFFFFFFFFFFFFFFFFFFFFF AND DUP2 JUMP JUMPDEST PUSH1 0x60 PUSH1 0x0 PUSH1 0x1 SLOAD EQ ISZERO PUSH2 0xFE5 JUMPI PUSH1 0x0 PUSH8 0xFFFFFFFFFFFFFFFF DUP2 GT ISZERO PUSH2 0xFA4 JUMPI PUSH2 0xFA3 PUSH2 0x1EDB JUMP JUMPDEST JUMPDEST PUSH1 0x40 MLOAD SWAP1 DUP1 DUP3 MSTORE DUP1 PUSH1 0x20 MUL PUSH1 0x20 ADD DUP3 ADD PUSH1 0x40 MSTORE DUP1 ISZERO PUSH2 0xFDD JUMPI DUP2 PUSH1 0x20 ADD JUMPDEST PUSH2 0xFCA PUSH2 0x1575 JUMP JUMPDEST DUP2 MSTORE PUSH1 0x20 ADD SWAP1 PUSH1 0x1 SWAP1 SUB SWAP1 DUP2 PUSH2 0xFC2 JUMPI SWAP1 POP JUMPDEST POP SWAP1 POP PUSH2 0x116A JUMP JUMPDEST PUSH1 0x1 SLOAD DUP3 LT PUSH2 0xFFF JUMPI PUSH1 0x1 DUP1 SLOAD PUSH2 0xFFC SWAP2 SWAP1 PUSH2 0x1CDC JUMP JUMPDEST SWAP2 POP JUMPDEST PUSH1 0x0 PUSH1 0x1 DUP5 DUP5 PUSH2 0x100F SWAP2 SWAP1 PUSH2 0x1CDC JUMP JUMPDEST PUSH2 0x1019 SWAP2 SWAP1 PUSH2 0x1C86 JUMP JUMPDEST SWAP1 POP PUSH1 0x0 DUP2 PUSH8 0xFFFFFFFFFFFFFFFF DUP2 GT ISZERO PUSH2 0x1037 JUMPI PUSH2 0x1036 PUSH2 0x1EDB JUMP JUMPDEST JUMPDEST PUSH1 0x40 MLOAD SWAP1 DUP1 DUP3 MSTORE DUP1 PUSH1 0x20 MUL PUSH1 0x20 ADD DUP3 ADD PUSH1 0x40 MSTORE DUP1 ISZERO PUSH2 0x1070 JUMPI DUP2 PUSH1 0x20 ADD JUMPDEST PUSH2 0x105D PUSH2 0x1575 JUMP JUMPDEST DUP2 MSTORE PUSH1 0x20 ADD SWAP1 PUSH1 0x1 SWAP1 SUB SWAP1 DUP2 PUSH2 0x1055 JUMPI SWAP1 POP JUMPDEST POP SWAP3 POP PUSH1 0x0 DUP6 SWAP1 POP JUMPDEST DUP5 DUP2 GT PUSH2 0x1166 JUMPI PUSH1 0x6 PUSH1 0x0 DUP3 DUP9 PUSH2 0x1090 SWAP2 SWAP1 PUSH2 0x1C86 JUMP JUMPDEST DUP2 MSTORE PUSH1 0x20 ADD SWAP1 DUP2 MSTORE PUSH1 0x20 ADD PUSH1 0x0 KECCAK256 PUSH1 0x40 MLOAD DUP1 PUSH1 0xA0 ADD PUSH1 0x40 MSTORE SWAP1 DUP2 PUSH1 0x0 DUP3 ADD SLOAD DUP2 MSTORE PUSH1 0x20 ADD PUSH1 0x1 DUP3 ADD SLOAD DUP2 MSTORE PUSH1 0x20 ADD PUSH1 0x2 DUP3 ADD SLOAD DUP2 MSTORE PUSH1 0x20 ADD PUSH1 0x3 DUP3 ADD SLOAD DUP2 MSTORE PUSH1 0x20 ADD PUSH1 0x4 DUP3 ADD PUSH1 0x0 SWAP1 SLOAD SWAP1 PUSH2 0x100 EXP SWAP1 DIV PUSH20 0xFFFFFFFFFFFFFFFFFFFFFFFFFFFFFFFFFFFFFFFF AND PUSH20 0xFFFFFFFFFFFFFFFFFFFFFFFFFFFFFFFFFFFFFFFF AND PUSH20 0xFFFFFFFFFFFFFFFFFFFFFFFFFFFFFFFFFFFFFFFF AND DUP2 MSTORE POP POP DUP5 DUP4 DUP2 MLOAD DUP2 LT PUSH2 0x113A JUMPI PUSH2 0x1139 PUSH2 0x1EAC JUMP JUMPDEST JUMPDEST PUSH1 0x20 MUL PUSH1 0x20 ADD ADD DUP2 SWAP1 MSTORE POP DUP2 DUP1 PUSH2 0x1150 SWAP1 PUSH2 0x1DA6 JUMP JUMPDEST SWAP3 POP POP DUP1 DUP1 PUSH2 0x115E SWAP1 PUSH2 0x1DA6 JUMP JUMPDEST SWAP2 POP POP PUSH2 0x1079 JUMP JUMPDEST POP POP POP JUMPDEST SWAP3 SWAP2 POP POP JUMP JUMPDEST PUSH2 0x1178 PUSH2 0x1470 JUMP JUMPDEST PUSH20 0xFFFFFFFFFFFFFFFFFFFFFFFFFFFFFFFFFFFFFFFF AND PUSH2 0x1196 PUSH2 0xE23 JUMP JUMPDEST PUSH20 0xFFFFFFFFFFFFFFFFFFFFFFFFFFFFFFFFFFFFFFFF AND EQ PUSH2 0x11EC JUMPI PUSH1 0x40 MLOAD PUSH32 0x8C379A000000000000000000000000000000000000000000000000000000000 DUP2 MSTORE PUSH1 0x4 ADD PUSH2 0x11E3 SWAP1 PUSH2 0x1B13 JUMP JUMPDEST PUSH1 0x40 MLOAD DUP1 SWAP2 SUB SWAP1 REVERT JUMPDEST PUSH1 0x0 PUSH20 0xFFFFFFFFFFFFFFFFFFFFFFFFFFFFFFFFFFFFFFFF AND DUP2 PUSH20 0xFFFFFFFFFFFFFFFFFFFFFFFFFFFFFFFFFFFFFFFF AND EQ ISZERO PUSH2 0x125C JUMPI PUSH1 0x40 MLOAD PUSH32 0x8C379A000000000000000000000000000000000000000000000000000000000 DUP2 MSTORE PUSH1 0x4 ADD PUSH2 0x1253 SWAP1 PUSH2 0x1AF3 JUMP JUMPDEST PUSH1 0x40 MLOAD DUP1 SWAP2 SUB SWAP1 REVERT JUMPDEST PUSH2 0x1265 DUP2 PUSH2 0x1478 JUMP JUMPDEST POP JUMP JUMPDEST PUSH1 0x0 DUP1 PUSH1 0x0 PUSH1 0x5 PUSH1 0x0 SWAP1 SLOAD SWAP1 PUSH2 0x100 EXP SWAP1 DIV PUSH20 0xFFFFFFFFFFFFFFFFFFFFFFFFFFFFFFFFFFFFFFFF AND PUSH20 0xFFFFFFFFFFFFFFFFFFFFFFFFFFFFFFFFFFFFFFFF AND PUSH4 0x18160DDD PUSH1 0x40 MLOAD DUP2 PUSH4 0xFFFFFFFF AND PUSH1 0xE0 SHL DUP2 MSTORE PUSH1 0x4 ADD PUSH1 0x20 PUSH1 0x40 MLOAD DUP1 DUP4 SUB DUP2 DUP7 DUP1 EXTCODESIZE ISZERO DUP1 ISZERO PUSH2 0x12D5 JUMPI PUSH1 0x0 DUP1 REVERT JUMPDEST POP GAS STATICCALL ISZERO DUP1 ISZERO PUSH2 0x12E9 JUMPI RETURNDATASIZE PUSH1 0x0 DUP1 RETURNDATACOPY RETURNDATASIZE PUSH1 0x0 REVERT JUMPDEST POP POP POP POP PUSH1 0x40 MLOAD RETURNDATASIZE PUSH1 0x1F NOT PUSH1 0x1F DUP3 ADD AND DUP3 ADD DUP1 PUSH1 0x40 MSTORE POP DUP2 ADD SWAP1 PUSH2 0x130D SWAP2 SWAP1 PUSH2 0x1695 JUMP JUMPDEST SWAP1 POP PUSH1 0x1 DUP2 PUSH2 0x131B DUP7 PUSH2 0x153C JUMP JUMPDEST PUSH2 0x1325 SWAP2 SWAP1 PUSH2 0x1E1D JUMP JUMPDEST PUSH2 0x132F SWAP2 SWAP1 PUSH2 0x1C86 JUMP JUMPDEST SWAP3 POP PUSH1 0x5 PUSH1 0x0 SWAP1 SLOAD SWAP1 PUSH2 0x100 EXP SWAP1 DIV PUSH20 0xFFFFFFFFFFFFFFFFFFFFFFFFFFFFFFFFFFFFFFFF AND PUSH20 0xFFFFFFFFFFFFFFFFFFFFFFFFFFFFFFFFFFFFFFFF AND PUSH4 0x6352211E DUP5 PUSH1 0x40 MLOAD DUP3 PUSH4 0xFFFFFFFF AND PUSH1 0xE0 SHL DUP2 MSTORE PUSH1 0x4 ADD PUSH2 0x138C SWAP2 SWAP1 PUSH2 0x1B33 JUMP JUMPDEST PUSH1 0x20 PUSH1 0x40 MLOAD DUP1 DUP4 SUB DUP2 DUP7 DUP1 EXTCODESIZE ISZERO DUP1 ISZERO PUSH2 0x13A4 JUMPI PUSH1 0x0 DUP1 REVERT JUMPDEST POP GAS STATICCALL ISZERO DUP1 ISZERO PUSH2 0x13B8 JUMPI RETURNDATASIZE PUSH1 0x0 DUP1 RETURNDATACOPY RETURNDATASIZE PUSH1 0x0 REVERT JUMPDEST POP POP POP POP PUSH1 0x40 MLOAD RETURNDATASIZE PUSH1 0x1F NOT PUSH1 0x1F DUP3 ADD AND DUP3 ADD DUP1 PUSH1 0x40 MSTORE POP DUP2 ADD SWAP1 PUSH2 0x13DC SWAP2 SWAP1 PUSH2 0x163B JUMP JUMPDEST SWAP2 POP POP SWAP2 POP SWAP2 JUMP JUMPDEST PUSH2 0x13EC PUSH2 0x1470 JUMP JUMPDEST PUSH20 0xFFFFFFFFFFFFFFFFFFFFFFFFFFFFFFFFFFFFFFFF AND PUSH2 0x140A PUSH2 0xE23 JUMP JUMPDEST PUSH20 0xFFFFFFFFFFFFFFFFFFFFFFFFFFFFFFFFFFFFFFFF AND EQ PUSH2 0x1460 JUMPI PUSH1 0x40 MLOAD PUSH32 0x8C379A000000000000000000000000000000000000000000000000000000000 DUP2 MSTORE PUSH1 0x4 ADD PUSH2 0x1457 SWAP1 PUSH2 0x1B13 JUMP JUMPDEST PUSH1 0x40 MLOAD DUP1 SWAP2 SUB SWAP1 REVERT JUMPDEST DUP1 PUSH1 0x3 DUP2 SWAP1 SSTORE POP POP JUMP JUMPDEST PUSH1 0x3 SLOAD DUP2 JUMP JUMPDEST PUSH1 0x0 CALLER SWAP1 POP SWAP1 JUMP JUMPDEST PUSH1 0x0 DUP1 PUSH1 0x0 SWAP1 SLOAD SWAP1 PUSH2 0x100 EXP SWAP1 DIV PUSH20 0xFFFFFFFFFFFFFFFFFFFFFFFFFFFFFFFFFFFFFFFF AND SWAP1 POP DUP2 PUSH1 0x0 DUP1 PUSH2 0x100 EXP DUP2 SLOAD DUP2 PUSH20 0xFFFFFFFFFFFFFFFFFFFFFFFFFFFFFFFFFFFFFFFF MUL NOT AND SWAP1 DUP4 PUSH20 0xFFFFFFFFFFFFFFFFFFFFFFFFFFFFFFFFFFFFFFFF AND MUL OR SWAP1 SSTORE POP DUP2 PUSH20 0xFFFFFFFFFFFFFFFFFFFFFFFFFFFFFFFFFFFFFFFF AND DUP2 PUSH20 0xFFFFFFFFFFFFFFFFFFFFFFFFFFFFFFFFFFFFFFFF AND PUSH32 0x8BE0079C531659141344CD1FD0A4F28419497F9722A3DAAFE3B4186F6B6457E0 PUSH1 0x40 MLOAD PUSH1 0x40 MLOAD DUP1 SWAP2 SUB SWAP1 LOG3 POP POP JUMP JUMPDEST PUSH1 0x0 DUP2 TIMESTAMP GAS CALLER PUSH1 0x40 MLOAD PUSH1 0x20 ADD PUSH2 0x1555 SWAP5 SWAP4 SWAP3 SWAP2 SWAP1 PUSH2 0x19A9 JUMP JUMPDEST PUSH1 0x40 MLOAD PUSH1 0x20 DUP2 DUP4 SUB SUB DUP2 MSTORE SWAP1 PUSH1 0x40 MSTORE DUP1 MLOAD SWAP1 PUSH1 0x20 ADD KECCAK256 PUSH1 0x0 SHR SWAP1 POP SWAP2 SWAP1 POP JUMP JUMPDEST PUSH1 0x40 MLOAD DUP1 PUSH1 0xA0 ADD PUSH1 0x40 MSTORE DUP1 PUSH1 0x0 DUP2 MSTORE PUSH1 0x20 ADD PUSH1 0x0 DUP2 MSTORE PUSH1 0x20 ADD PUSH1 0x0 DUP2 MSTORE PUSH1 0x20 ADD PUSH1 0x0 DUP2 MSTORE PUSH1 0x20 ADD PUSH1 0x0 PUSH20 0xFFFFFFFFFFFFFFFFFFFFFFFFFFFFFFFFFFFFFFFF AND DUP2 MSTORE POP SWAP1 JUMP JUMPDEST PUSH1 0x0 DUP2 CALLDATALOAD SWAP1 POP PUSH2 0x15C9 DUP2 PUSH2 0x1F94 JUMP JUMPDEST SWAP3 SWAP2 POP POP JUMP JUMPDEST PUSH1 0x0 DUP2 MLOAD SWAP1 POP PUSH2 0x15DE DUP2 PUSH2 0x1F94 JUMP JUMPDEST SWAP3 SWAP2 POP POP JUMP JUMPDEST PUSH1 0x0 DUP2 CALLDATALOAD SWAP1 POP PUSH2 0x15F3 DUP2 PUSH2 0x1FAB JUMP JUMPDEST SWAP3 SWAP2 POP POP JUMP JUMPDEST PUSH1 0x0 DUP2 MLOAD SWAP1 POP PUSH2 0x1608 DUP2 PUSH2 0x1FAB JUMP JUMPDEST SWAP3 SWAP2 POP POP JUMP JUMPDEST PUSH1 0x0 PUSH1 0x20 DUP3 DUP5 SUB SLT ISZERO PUSH2 0x1624 JUMPI PUSH2 0x1623 PUSH2 0x1F0A JUMP JUMPDEST JUMPDEST PUSH1 0x0 PUSH2 0x1632 DUP5 DUP3 DUP6 ADD PUSH2 0x15BA JUMP JUMPDEST SWAP2 POP POP SWAP3 SWAP2 POP POP JUMP JUMPDEST PUSH1 0x0 PUSH1 0x20 DUP3 DUP5 SUB SLT ISZERO PUSH2 0x1651 JUMPI PUSH2 0x1650 PUSH2 0x1F0A JUMP JUMPDEST JUMPDEST PUSH1 0x0 PUSH2 0x165F DUP5 DUP3 DUP6 ADD PUSH2 0x15CF JUMP JUMPDEST SWAP2 POP POP SWAP3 SWAP2 POP POP JUMP JUMPDEST PUSH1 0x0 PUSH1 0x20 DUP3 DUP5 SUB SLT ISZERO PUSH2 0x167E JUMPI PUSH2 0x167D PUSH2 0x1F0A JUMP JUMPDEST JUMPDEST PUSH1 0x0 PUSH2 0x168C DUP5 DUP3 DUP6 ADD PUSH2 0x15E4 JUMP JUMPDEST SWAP2 POP POP SWAP3 SWAP2 POP POP JUMP JUMPDEST PUSH1 0x0 PUSH1 0x20 DUP3 DUP5 SUB SLT ISZERO PUSH2 0x16AB JUMPI PUSH2 0x16AA PUSH2 0x1F0A JUMP JUMPDEST JUMPDEST PUSH1 0x0 PUSH2 0x16B9 DUP5 DUP3 DUP6 ADD PUSH2 0x15F9 JUMP JUMPDEST SWAP2 POP POP SWAP3 SWAP2 POP POP JUMP JUMPDEST PUSH1 0x0 DUP1 PUSH1 0x40 DUP4 DUP6 SUB SLT ISZERO PUSH2 0x16D9 JUMPI PUSH2 0x16D8 PUSH2 0x1F0A JUMP JUMPDEST JUMPDEST PUSH1 0x0 PUSH2 0x16E7 DUP6 DUP3 DUP7 ADD PUSH2 0x15E4 JUMP JUMPDEST SWAP3 POP POP PUSH1 0x20 PUSH2 0x16F8 DUP6 DUP3 DUP7 ADD PUSH2 0x15E4 JUMP JUMPDEST SWAP2 POP POP SWAP3 POP SWAP3 SWAP1 POP JUMP JUMPDEST PUSH1 0x0 PUSH2 0x170E DUP4 DUP4 PUSH2 0x174A JUMP JUMPDEST PUSH1 0x20 DUP4 ADD SWAP1 POP SWAP3 SWAP2 POP POP JUMP JUMPDEST PUSH1 0x0 PUSH2 0x1726 DUP4 DUP4 PUSH2 0x190C JUMP JUMPDEST PUSH1 0xA0 DUP4 ADD SWAP1 POP SWAP3 SWAP2 POP POP JUMP JUMPDEST PUSH1 0x0 PUSH2 0x173E DUP4 DUP4 PUSH2 0x1974 JUMP JUMPDEST PUSH1 0x20 DUP4 ADD SWAP1 POP SWAP3 SWAP2 POP POP JUMP JUMPDEST PUSH2 0x1753 DUP2 PUSH2 0x1D10 JUMP JUMPDEST DUP3 MSTORE POP POP JUMP JUMPDEST PUSH2 0x1762 DUP2 PUSH2 0x1D10 JUMP JUMPDEST DUP3 MSTORE POP POP JUMP JUMPDEST PUSH2 0x1779 PUSH2 0x1774 DUP3 PUSH2 0x1D10 JUMP JUMPDEST PUSH2 0x1DEF JUMP JUMPDEST DUP3 MSTORE POP POP JUMP JUMPDEST PUSH1 0x0 PUSH2 0x178A DUP3 PUSH2 0x1BFA JUMP JUMPDEST PUSH2 0x1794 DUP2 DUP6 PUSH2 0x1C42 JUMP JUMPDEST SWAP4 POP PUSH2 0x179F DUP4 PUSH2 0x1BCA JUMP JUMPDEST DUP1 PUSH1 0x0 JUMPDEST DUP4 DUP2 LT ISZERO PUSH2 0x17D0 JUMPI DUP2 MLOAD PUSH2 0x17B7 DUP9 DUP3 PUSH2 0x1702 JUMP JUMPDEST SWAP8 POP PUSH2 0x17C2 DUP4 PUSH2 0x1C1B JUMP JUMPDEST SWAP3 POP POP PUSH1 0x1 DUP2 ADD SWAP1 POP PUSH2 0x17A3 JUMP JUMPDEST POP DUP6 SWAP4 POP POP POP POP SWAP3 SWAP2 POP POP JUMP JUMPDEST PUSH1 0x0 PUSH2 0x17E8 DUP3 PUSH2 0x1C05 JUMP JUMPDEST PUSH2 0x17F2 DUP2 DUP6 PUSH2 0x1C53 JUMP JUMPDEST SWAP4 POP PUSH2 0x17FD DUP4 PUSH2 0x1BDA JUMP JUMPDEST DUP1 PUSH1 0x0 JUMPDEST DUP4 DUP2 LT ISZERO PUSH2 0x182E JUMPI DUP2 MLOAD PUSH2 0x1815 DUP9 DUP3 PUSH2 0x171A JUMP JUMPDEST SWAP8 POP PUSH2 0x1820 DUP4 PUSH2 0x1C28 JUMP JUMPDEST SWAP3 POP POP PUSH1 0x1 DUP2 ADD SWAP1 POP PUSH2 0x1801 JUMP JUMPDEST POP DUP6 SWAP4 POP POP POP POP SWAP3 SWAP2 POP POP JUMP JUMPDEST PUSH1 0x0 PUSH2 0x1846 DUP3 PUSH2 0x1C10 JUMP JUMPDEST PUSH2 0x1850 DUP2 DUP6 PUSH2 0x1C64 JUMP JUMPDEST SWAP4 POP PUSH2 0x185B DUP4 PUSH2 0x1BEA JUMP JUMPDEST DUP1 PUSH1 0x0 JUMPDEST DUP4 DUP2 LT ISZERO PUSH2 0x188C JUMPI DUP2 MLOAD PUSH2 0x1873 DUP9 DUP3 PUSH2 0x1732 JUMP JUMPDEST SWAP8 POP PUSH2 0x187E DUP4 PUSH2 0x1C35 JUMP JUMPDEST SWAP3 POP POP PUSH1 0x1 DUP2 ADD SWAP1 POP PUSH2 0x185F JUMP JUMPDEST POP DUP6 SWAP4 POP POP POP POP SWAP3 SWAP2 POP POP JUMP JUMPDEST PUSH2 0x18A2 DUP2 PUSH2 0x1D4C JUMP JUMPDEST DUP3 MSTORE POP POP JUMP JUMPDEST PUSH2 0x18B1 DUP2 PUSH2 0x1D5E JUMP JUMPDEST DUP3 MSTORE POP POP JUMP JUMPDEST PUSH2 0x18C0 DUP2 PUSH2 0x1D70 JUMP JUMPDEST DUP3 MSTORE POP POP JUMP JUMPDEST PUSH1 0x0 PUSH2 0x18D3 PUSH1 0x26 DUP4 PUSH2 0x1C75 JUMP JUMPDEST SWAP2 POP PUSH2 0x18DE DUP3 PUSH2 0x1F1C JUMP JUMPDEST PUSH1 0x40 DUP3 ADD SWAP1 POP SWAP2 SWAP1 POP JUMP JUMPDEST PUSH1 0x0 PUSH2 0x18F6 PUSH1 0x20 DUP4 PUSH2 0x1C75 JUMP JUMPDEST SWAP2 POP PUSH2 0x1901 DUP3 PUSH2 0x1F6B JUMP JUMPDEST PUSH1 0x20 DUP3 ADD SWAP1 POP SWAP2 SWAP1 POP JUMP JUMPDEST PUSH1 0xA0 DUP3 ADD PUSH1 0x0 DUP3 ADD MLOAD PUSH2 0x1922 PUSH1 0x0 DUP6 ADD DUP3 PUSH2 0x1974 JUMP JUMPDEST POP PUSH1 0x20 DUP3 ADD MLOAD PUSH2 0x1935 PUSH1 0x20 DUP6 ADD DUP3 PUSH2 0x1974 JUMP JUMPDEST POP PUSH1 0x40 DUP3 ADD MLOAD PUSH2 0x1948 PUSH1 0x40 DUP6 ADD DUP3 PUSH2 0x1974 JUMP JUMPDEST POP PUSH1 0x60 DUP3 ADD MLOAD PUSH2 0x195B PUSH1 0x60 DUP6 ADD DUP3 PUSH2 0x1974 JUMP JUMPDEST POP PUSH1 0x80 DUP3 ADD MLOAD PUSH2 0x196E PUSH1 0x80 DUP6 ADD DUP3 PUSH2 0x174A JUMP JUMPDEST POP POP POP POP JUMP JUMPDEST PUSH2 0x197D DUP2 PUSH2 0x1D42 JUMP JUMPDEST DUP3 MSTORE POP POP JUMP JUMPDEST PUSH2 0x198C DUP2 PUSH2 0x1D42 JUMP JUMPDEST DUP3 MSTORE POP POP JUMP JUMPDEST PUSH2 0x19A3 PUSH2 0x199E DUP3 PUSH2 0x1D42 JUMP JUMPDEST PUSH2 0x1E13 JUMP JUMPDEST DUP3 MSTORE POP POP JUMP JUMPDEST PUSH1 0x0 PUSH2 0x19B5 DUP3 DUP8 PUSH2 0x1992 JUMP JUMPDEST PUSH1 0x20 DUP3 ADD SWAP2 POP PUSH2 0x19C5 DUP3 DUP7 PUSH2 0x1992 JUMP JUMPDEST PUSH1 0x20 DUP3 ADD SWAP2 POP PUSH2 0x19D5 DUP3 DUP6 PUSH2 0x1992 JUMP JUMPDEST PUSH1 0x20 DUP3 ADD SWAP2 POP PUSH2 0x19E5 DUP3 DUP5 PUSH2 0x1768 JUMP JUMPDEST PUSH1 0x14 DUP3 ADD SWAP2 POP DUP2 SWAP1 POP SWAP6 SWAP5 POP POP POP POP POP JUMP JUMPDEST PUSH1 0x0 PUSH1 0x20 DUP3 ADD SWAP1 POP PUSH2 0x1A0C PUSH1 0x0 DUP4 ADD DUP5 PUSH2 0x1759 JUMP JUMPDEST SWAP3 SWAP2 POP POP JUMP JUMPDEST PUSH1 0x0 PUSH1 0x40 DUP3 ADD SWAP1 POP PUSH2 0x1A27 PUSH1 0x0 DUP4 ADD DUP6 PUSH2 0x1759 JUMP JUMPDEST PUSH2 0x1A34 PUSH1 0x20 DUP4 ADD DUP5 PUSH2 0x18B7 JUMP JUMPDEST SWAP4 SWAP3 POP POP POP JUMP JUMPDEST PUSH1 0x0 PUSH1 0x40 DUP3 ADD SWAP1 POP PUSH2 0x1A50 PUSH1 0x0 DUP4 ADD DUP6 PUSH2 0x1759 JUMP JUMPDEST PUSH2 0x1A5D PUSH1 0x20 DUP4 ADD DUP5 PUSH2 0x1983 JUMP JUMPDEST SWAP4 SWAP3 POP POP POP JUMP JUMPDEST PUSH1 0x0 PUSH1 0x40 DUP3 ADD SWAP1 POP DUP2 DUP2 SUB PUSH1 0x0 DUP4 ADD MSTORE PUSH2 0x1A7E DUP2 DUP6 PUSH2 0x177F JUMP JUMPDEST SWAP1 POP DUP2 DUP2 SUB PUSH1 0x20 DUP4 ADD MSTORE PUSH2 0x1A92 DUP2 DUP5 PUSH2 0x183B JUMP JUMPDEST SWAP1 POP SWAP4 SWAP3 POP POP POP JUMP JUMPDEST PUSH1 0x0 PUSH1 0x20 DUP3 ADD SWAP1 POP DUP2 DUP2 SUB PUSH1 0x0 DUP4 ADD MSTORE PUSH2 0x1AB5 DUP2 DUP5 PUSH2 0x17DD JUMP JUMPDEST SWAP1 POP SWAP3 SWAP2 POP POP JUMP JUMPDEST PUSH1 0x0 PUSH1 0x20 DUP3 ADD SWAP1 POP PUSH2 0x1AD2 PUSH1 0x0 DUP4 ADD DUP5 PUSH2 0x1899 JUMP JUMPDEST SWAP3 SWAP2 POP POP JUMP JUMPDEST PUSH1 0x0 PUSH1 0x20 DUP3 ADD SWAP1 POP PUSH2 0x1AED PUSH1 0x0 DUP4 ADD DUP5 PUSH2 0x18A8 JUMP JUMPDEST SWAP3 SWAP2 POP POP JUMP JUMPDEST PUSH1 0x0 PUSH1 0x20 DUP3 ADD SWAP1 POP DUP2 DUP2 SUB PUSH1 0x0 DUP4 ADD MSTORE PUSH2 0x1B0C DUP2 PUSH2 0x18C6 JUMP JUMPDEST SWAP1 POP SWAP2 SWAP1 POP JUMP JUMPDEST PUSH1 0x0 PUSH1 0x20 DUP3 ADD SWAP1 POP DUP2 DUP2 SUB PUSH1 0x0 DUP4 ADD MSTORE PUSH2 0x1B2C DUP2 PUSH2 0x18E9 JUMP JUMPDEST SWAP1 POP SWAP2 SWAP1 POP JUMP JUMPDEST PUSH1 0x0 PUSH1 0x20 DUP3 ADD SWAP1 POP PUSH2 0x1B48 PUSH1 0x0 DUP4 ADD DUP5 PUSH2 0x1983 JUMP JUMPDEST SWAP3 SWAP2 POP POP JUMP JUMPDEST PUSH1 0x0 PUSH1 0x40 DUP3 ADD SWAP1 POP PUSH2 0x1B63 PUSH1 0x0 DUP4 ADD DUP6 PUSH2 0x1983 JUMP JUMPDEST PUSH2 0x1B70 PUSH1 0x20 DUP4 ADD DUP5 PUSH2 0x1759 JUMP JUMPDEST SWAP4 SWAP3 POP POP POP JUMP JUMPDEST PUSH1 0x0 PUSH1 0xA0 DUP3 ADD SWAP1 POP PUSH2 0x1B8C PUSH1 0x0 DUP4 ADD DUP9 PUSH2 0x1983 JUMP JUMPDEST PUSH2 0x1B99 PUSH1 0x20 DUP4 ADD DUP8 PUSH2 0x1983 JUMP JUMPDEST PUSH2 0x1BA6 PUSH1 0x40 DUP4 ADD DUP7 PUSH2 0x1983 JUMP JUMPDEST PUSH2 0x1BB3 PUSH1 0x60 DUP4 ADD DUP6 PUSH2 0x1983 JUMP JUMPDEST PUSH2 0x1BC0 PUSH1 0x80 DUP4 ADD DUP5 PUSH2 0x1759 JUMP JUMPDEST SWAP7 SWAP6 POP POP POP POP POP POP JUMP JUMPDEST PUSH1 0x0 DUP2 SWAP1 POP PUSH1 0x20 DUP3 ADD SWAP1 POP SWAP2 SWAP1 POP JUMP JUMPDEST PUSH1 0x0 DUP2 SWAP1 POP PUSH1 0x20 DUP3 ADD SWAP1 POP SWAP2 SWAP1 POP JUMP JUMPDEST PUSH1 0x0 DUP2 SWAP1 POP PUSH1 0x20 DUP3 ADD SWAP1 POP SWAP2 SWAP1 POP JUMP JUMPDEST PUSH1 0x0 DUP2 MLOAD SWAP1 POP SWAP2 SWAP1 POP JUMP JUMPDEST PUSH1 0x0 DUP2 MLOAD SWAP1 POP SWAP2 SWAP1 POP JUMP JUMPDEST PUSH1 0x0 DUP2 MLOAD SWAP1 POP SWAP2 SWAP1 POP JUMP JUMPDEST PUSH1 0x0 PUSH1 0x20 DUP3 ADD SWAP1 POP SWAP2 SWAP1 POP JUMP JUMPDEST PUSH1 0x0 PUSH1 0x20 DUP3 ADD SWAP1 POP SWAP2 SWAP1 POP JUMP JUMPDEST PUSH1 0x0 PUSH1 0x20 DUP3 ADD SWAP1 POP SWAP2 SWAP1 POP JUMP JUMPDEST PUSH1 0x0 DUP3 DUP3 MSTORE PUSH1 0x20 DUP3 ADD SWAP1 POP SWAP3 SWAP2 POP POP JUMP JUMPDEST PUSH1 0x0 DUP3 DUP3 MSTORE PUSH1 0x20 DUP3 ADD SWAP1 POP SWAP3 SWAP2 POP POP JUMP JUMPDEST PUSH1 0x0 DUP3 DUP3 MSTORE PUSH1 0x20 DUP3 ADD SWAP1 POP SWAP3 SWAP2 POP POP JUMP JUMPDEST PUSH1 0x0 DUP3 DUP3 MSTORE PUSH1 0x20 DUP3 ADD SWAP1 POP SWAP3 SWAP2 POP POP JUMP JUMPDEST PUSH1 0x0 PUSH2 0x1C91 DUP3 PUSH2 0x1D42 JUMP JUMPDEST SWAP2 POP PUSH2 0x1C9C DUP4 PUSH2 0x1D42 JUMP JUMPDEST SWAP3 POP DUP3 PUSH32 0xFFFFFFFFFFFFFFFFFFFFFFFFFFFFFFFFFFFFFFFFFFFFFFFFFFFFFFFFFFFFFFFF SUB DUP3 GT ISZERO PUSH2 0x1CD1 JUMPI PUSH2 0x1CD0 PUSH2 0x1E4E JUMP JUMPDEST JUMPDEST DUP3 DUP3 ADD SWAP1 POP SWAP3 SWAP2 POP POP JUMP JUMPDEST PUSH1 0x0 PUSH2 0x1CE7 DUP3 PUSH2 0x1D42 JUMP JUMPDEST SWAP2 POP PUSH2 0x1CF2 DUP4 PUSH2 0x1D42 JUMP JUMPDEST SWAP3 POP DUP3 DUP3 LT ISZERO PUSH2 0x1D05 JUMPI PUSH2 0x1D04 PUSH2 0x1E4E JUMP JUMPDEST JUMPDEST DUP3 DUP3 SUB SWAP1 POP SWAP3 SWAP2 POP POP JUMP JUMPDEST PUSH1 0x0 PUSH2 0x1D1B DUP3 PUSH2 0x1D22 JUMP JUMPDEST SWAP1 POP SWAP2 SWAP1 POP JUMP JUMPDEST PUSH1 0x0 PUSH20 0xFFFFFFFFFFFFFFFFFFFFFFFFFFFFFFFFFFFFFFFF DUP3 AND SWAP1 POP SWAP2 SWAP1 POP JUMP JUMPDEST PUSH1 0x0 DUP2 SWAP1 POP SWAP2 SWAP1 POP JUMP JUMPDEST PUSH1 0x0 PUSH2 0x1D57 DUP3 PUSH2 0x1D82 JUMP JUMPDEST SWAP1 POP SWAP2 SWAP1 POP JUMP JUMPDEST PUSH1 0x0 PUSH2 0x1D69 DUP3 PUSH2 0x1D82 JUMP JUMPDEST SWAP1 POP SWAP2 SWAP1 POP JUMP JUMPDEST PUSH1 0x0 PUSH2 0x1D7B DUP3 PUSH2 0x1D42 JUMP JUMPDEST SWAP1 POP SWAP2 SWAP1 POP JUMP JUMPDEST PUSH1 0x0 PUSH2 0x1D8D DUP3 PUSH2 0x1D94 JUMP JUMPDEST SWAP1 POP SWAP2 SWAP1 POP JUMP JUMPDEST PUSH1 0x0 PUSH2 0x1D9F DUP3 PUSH2 0x1D22 JUMP JUMPDEST SWAP1 POP SWAP2 SWAP1 POP JUMP JUMPDEST PUSH1 0x0 PUSH2 0x1DB1 DUP3 PUSH2 0x1D42 JUMP JUMPDEST SWAP2 POP PUSH32 0xFFFFFFFFFFFFFFFFFFFFFFFFFFFFFFFFFFFFFFFFFFFFFFFFFFFFFFFFFFFFFFFF DUP3 EQ ISZERO PUSH2 0x1DE4 JUMPI PUSH2 0x1DE3 PUSH2 0x1E4E JUMP JUMPDEST JUMPDEST PUSH1 0x1 DUP3 ADD SWAP1 POP SWAP2 SWAP1 POP JUMP JUMPDEST PUSH1 0x0 PUSH2 0x1DFA DUP3 PUSH2 0x1E01 JUMP JUMPDEST SWAP1 POP SWAP2 SWAP1 POP JUMP JUMPDEST PUSH1 0x0 PUSH2 0x1E0C DUP3 PUSH2 0x1F0F JUMP JUMPDEST SWAP1 POP SWAP2 SWAP1 POP JUMP JUMPDEST PUSH1 0x0 DUP2 SWAP1 POP SWAP2 SWAP1 POP JUMP JUMPDEST PUSH1 0x0 PUSH2 0x1E28 DUP3 PUSH2 0x1D42 JUMP JUMPDEST SWAP2 POP PUSH2 0x1E33 DUP4 PUSH2 0x1D42 JUMP JUMPDEST SWAP3 POP DUP3 PUSH2 0x1E43 JUMPI PUSH2 0x1E42 PUSH2 0x1E7D JUMP JUMPDEST JUMPDEST DUP3 DUP3 MOD SWAP1 POP SWAP3 SWAP2 POP POP JUMP JUMPDEST PUSH32 0x4E487B7100000000000000000000000000000000000000000000000000000000 PUSH1 0x0 MSTORE PUSH1 0x11 PUSH1 0x4 MSTORE PUSH1 0x24 PUSH1 0x0 REVERT JUMPDEST PUSH32 0x4E487B7100000000000000000000000000000000000000000000000000000000 PUSH1 0x0 MSTORE PUSH1 0x12 PUSH1 0x4 MSTORE PUSH1 0x24 PUSH1 0x0 REVERT JUMPDEST PUSH32 0x4E487B7100000000000000000000000000000000000000000000000000000000 PUSH1 0x0 MSTORE PUSH1 0x32 PUSH1 0x4 MSTORE PUSH1 0x24 PUSH1 0x0 REVERT JUMPDEST PUSH32 0x4E487B7100000000000000000000000000000000000000000000000000000000 PUSH1 0x0 MSTORE PUSH1 0x41 PUSH1 0x4 MSTORE PUSH1 0x24 PUSH1 0x0 REVERT JUMPDEST PUSH1 0x0 DUP1 REVERT JUMPDEST PUSH1 0x0 DUP2 PUSH1 0x60 SHL SWAP1 POP SWAP2 SWAP1 POP JUMP JUMPDEST PUSH32 0x4F776E61626C653A206E6577206F776E657220697320746865207A65726F2061 PUSH1 0x0 DUP3 ADD MSTORE PUSH32 0x6464726573730000000000000000000000000000000000000000000000000000 PUSH1 0x20 DUP3 ADD MSTORE POP JUMP JUMPDEST PUSH32 0x4F776E61626C653A2063616C6C6572206973206E6F7420746865206F776E6572 PUSH1 0x0 DUP3 ADD MSTORE POP JUMP JUMPDEST PUSH2 0x1F9D DUP2 PUSH2 0x1D10 JUMP JUMPDEST DUP2 EQ PUSH2 0x1FA8 JUMPI PUSH1 0x0 DUP1 REVERT JUMPDEST POP JUMP JUMPDEST PUSH2 0x1FB4 DUP2 PUSH2 0x1D42 JUMP JUMPDEST DUP2 EQ PUSH2 0x1FBF JUMPI PUSH1 0x0 DUP1 REVERT JUMPDEST POP JUMP INVALID LOG2 PUSH5 0x6970667358 0x22 SLT KECCAK256 0xBB 0x4A SLT DUP15 0xD8 MULMOD STOP 0x5D ORIGIN EXTCODECOPY 0x29 0x4E 0xE7 DUP2 PUSH16 0xD227E60AA84C773056115D79D30CFF52 0xDD PUSH5 0x736F6C6343 STOP ADDMOD SMOD STOP CALLER "
				},
				"gasEstimates": {
					"creation": {
						"codeDepositCost": "1636800",
						"executionCost": "infinite",
						"totalCost": "infinite"
					},
					"external": {
						"acesNFT()": "2689",
						"currentJackpot()": "2539",
						"getEntries()": "infinite",
						"getUniqueAddresses()": "infinite",
						"getUniqueUsers()": "infinite",
						"owner()": "2545",
						"paymentToken()": "2690",
						"pickWinner(uint256)": "infinite",
						"renounceOwnership()": "30463",
						"resultLog(uint256,uint256)": "infinite",
						"roundNum()": "2453",
						"roundResults(uint256)": "infinite",
						"totalPayout()": "2474",
						"transferOwnership(address)": "30767",
						"updateJackpot(uint256)": "24848",
						"updateToken(address)": "27073",
						"updateWinner(uint256,uint256)": "infinite",
						"userEntries(address)": "infinite"
					},
					"internal": {
						"random(uint256)": "infinite"
					}
				},
				"methodIdentifiers": {
					"acesNFT()": "aeb18350",
					"currentJackpot()": "f9cee0bd",
					"getEntries()": "17be85c3",
					"getUniqueAddresses()": "3b98bc65",
					"getUniqueUsers()": "158977de",
					"owner()": "8da5cb5b",
					"paymentToken()": "3013ce29",
					"pickWinner(uint256)": "f737d21d",
					"renounceOwnership()": "715018a6",
					"resultLog(uint256,uint256)": "bc15cdf0",
					"roundNum()": "119b22b3",
					"roundResults(uint256)": "ac128f4f",
					"totalPayout()": "454f7b8f",
					"transferOwnership(address)": "f2fde38b",
					"updateJackpot(uint256)": "f80fb76d",
					"updateToken(address)": "7ad3def2",
					"updateWinner(uint256,uint256)": "6fbb5a86",
					"userEntries(address)": "9f10a990"
				}
			},
			"storageLayout": {
				"storage": [
					{
						"astId": 458,
						"contract": "NFTlotto.sol:ACELotto",
						"label": "_owner",
						"offset": 0,
						"slot": "0",
						"type": "t_address"
					},
					{
						"astId": 35,
						"contract": "NFTlotto.sol:ACELotto",
						"label": "roundNum",
						"offset": 0,
						"slot": "1",
						"type": "t_uint256"
					},
					{
						"astId": 37,
						"contract": "NFTlotto.sol:ACELotto",
						"label": "totalPayout",
						"offset": 0,
						"slot": "2",
						"type": "t_uint256"
					},
					{
						"astId": 40,
						"contract": "NFTlotto.sol:ACELotto",
						"label": "currentJackpot",
						"offset": 0,
						"slot": "3",
						"type": "t_uint256"
					},
					{
						"astId": 43,
						"contract": "NFTlotto.sol:ACELotto",
						"label": "paymentToken",
						"offset": 0,
						"slot": "4",
						"type": "t_contract(IERC20)633"
					},
					{
						"astId": 46,
						"contract": "NFTlotto.sol:ACELotto",
						"label": "acesNFT",
						"offset": 0,
						"slot": "5",
						"type": "t_contract(IERC721Enumerable)780"
					},
					{
						"astId": 62,
						"contract": "NFTlotto.sol:ACELotto",
						"label": "roundResults",
						"offset": 0,
						"slot": "6",
						"type": "t_mapping(t_uint256,t_struct(Results)57_storage)"
					}
				],
				"types": {
					"t_address": {
						"encoding": "inplace",
						"label": "address",
						"numberOfBytes": "20"
					},
					"t_contract(IERC20)633": {
						"encoding": "inplace",
						"label": "contract IERC20",
						"numberOfBytes": "20"
					},
					"t_contract(IERC721Enumerable)780": {
						"encoding": "inplace",
						"label": "contract IERC721Enumerable",
						"numberOfBytes": "20"
					},
					"t_mapping(t_uint256,t_struct(Results)57_storage)": {
						"encoding": "mapping",
						"key": "t_uint256",
						"label": "mapping(uint256 => struct ACELotto.Results)",
						"numberOfBytes": "32",
						"value": "t_struct(Results)57_storage"
					},
					"t_struct(Results)57_storage": {
						"encoding": "inplace",
						"label": "struct ACELotto.Results",
						"members": [
							{
								"astId": 48,
								"contract": "NFTlotto.sol:ACELotto",
								"label": "totalEntries",
								"offset": 0,
								"slot": "0",
								"type": "t_uint256"
							},
							{
								"astId": 50,
								"contract": "NFTlotto.sol:ACELotto",
								"label": "winningNumber",
								"offset": 0,
								"slot": "1",
								"type": "t_uint256"
							},
							{
								"astId": 52,
								"contract": "NFTlotto.sol:ACELotto",
								"label": "payout",
								"offset": 0,
								"slot": "2",
								"type": "t_uint256"
							},
							{
								"astId": 54,
								"contract": "NFTlotto.sol:ACELotto",
								"label": "endTime",
								"offset": 0,
								"slot": "3",
								"type": "t_uint256"
							},
							{
								"astId": 56,
								"contract": "NFTlotto.sol:ACELotto",
								"label": "winningAddress",
								"offset": 0,
								"slot": "4",
								"type": "t_address"
							}
						],
						"numberOfBytes": "160"
					},
					"t_uint256": {
						"encoding": "inplace",
						"label": "uint256",
						"numberOfBytes": "32"
					}
				}
			},
			"userdoc": {
				"kind": "user",
				"methods": {},
				"version": 1
			}
		}
	}
}