{
	"data": {
		"bytecode": {
			"linkReferences": {},
			"object": "608060405234801561001057600080fd5b5060405161111638038061111683398101604081905261002f916100ad565b6100383361005d565b600480546001600160a01b0319166001600160a01b03929092169190911790556100dd565b600080546001600160a01b038381166001600160a01b0319831681178455604051919092169283917f8be0079c531659141344cd1fd0a4f28419497f9722a3daafe3b4186f6b6457e09190a35050565b6000602082840312156100bf57600080fd5b81516001600160a01b03811681146100d657600080fd5b9392505050565b61102a806100ec6000396000f3fe608060405234801561001057600080fd5b506004361061012c5760003560e01c80638da5cb5b116100ad578063b657dd6511610071578063b657dd65146102db578063bc15cdf014610304578063c4740a9514610324578063f2fde38b14610337578063f9cee0bd1461034a57600080fd5b80638da5cb5b146101f05780639b3e4552146102155780639f10a99014610228578063a59460dc14610251578063ac128f4f1461026457600080fd5b8063454f7b8f116100f4578063454f7b8f146101935780635bedc3901461019c5780635d495aea146101d7578063715018a6146101df57806376636d20146101e757600080fd5b80630d98827014610131578063119b22b314610157578063158977de146101605780633b98bc6514610168578063443b80a11461017e575b600080fd5b61014461013f366004610d60565b610352565b6040519081526020015b60405180910390f35b61014460025481565b610144610383565b6101706103ff565b60405161014e929190610e00565b61019161018c366004610d60565b610575565b005b61014460035481565b6101c76101aa366004610d3e565b6001600160a01b0316600090815260076020526040902054151590565b604051901515815260200161014e565b610191610620565b610191610858565b61014460015481565b6000546001600160a01b03165b6040516001600160a01b03909116815260200161014e565b6004546101fd906001600160a01b031681565b610144610236366004610d3e565b6001600160a01b031660009081526007602052604090205490565b61019161025f366004610d60565b61088e565b6102aa610272366004610dac565b60056020526000908152604090208054600182015460028301546003840154600490940154929391929091906001600160a01b031685565b6040805195865260208601949094529284019190915260608301526001600160a01b0316608082015260a00161014e565b6101fd6102e9366004610dac565b6006602052600090815260409020546001600160a01b031681565b610317610312366004610dde565b6109b7565b60405161014e9190610e84565b610191610332366004610d3e565b610b2a565b610191610345366004610d3e565b610b51565b610144610bec565b6007602052816000526040600020818154811061036e57600080fd5b90600052602060002001600091509150505481565b6000805b6001548110156103fb576000818152600660209081526040808320546001600160a01b0316808452600790925282208054919290916103c8576103c8610fc8565b90600052602060002001548214156103e857826103e481610f5f565b9350505b50806103f381610f5f565b915050610387565b5090565b606080600061040c610383565b90508067ffffffffffffffff81111561042757610427610fde565b604051908082528060200260200182016040528015610450578160200160208202803683370190505b5092508067ffffffffffffffff81111561046c5761046c610fde565b604051908082528060200260200182016040528015610495578160200160208202803683370190505b5091506000805b60015481101561056e576000818152600660209081526040808320546001600160a01b0316808452600790925282208054919290916104dd576104dd610fc8565b906000526020600020015482141561055b578086848151811061050257610502610fc8565b6001600160a01b03928316602091820292909201810191909152908216600090815260079091526040902054855186908590811061054257610542610fc8565b60209081029190910101528261055781610f5f565b9350505b508061056681610f5f565b91505061049c565b5050509091565b60005b81811015610604578260066000836001546105939190610f30565b81526020808201929092526040908101600090812080546001600160a01b0319166001600160a01b039586161790559286168352600790915290206001546105dc908390610f30565b81546001810183556000928352602090922090910155806105fc81610f5f565b915050610578565b5080600160008282546106179190610f30565b90915550505050565b6000546001600160a01b031633146106535760405162461bcd60e51b815260040161064a90610efb565b60405180910390fd5b600061065d610bec565b90506544364c5bb0008110156106b55760405162461bcd60e51b815260206004820152601860248201527f4e6f7420656e6f7567682066756e647320746f20647261770000000000000000604482015260640161064a565b60006001546106c2610c72565b6106cc9190610f7a565b600081815260066020908152604080832054815160a0810183526001805482528185018781528285018a815242606085019081526001600160a01b0395861660808601818152600280548c526005909a52978a20955186559251938501939093555195830195909555516003808301919091559251600490910180546001600160a01b031916919092161790558054939450909285929061076e908490610f30565b90915550506002805490600061078383610f5f565b90915550506004805460405163a9059cbb60e01b81526001600160a01b03848116938201939093526024810186905291169063a9059cbb90604401602060405180830381600087803b1580156107d857600080fd5b505af11580156107ec573d6000803e3d6000fd5b505050506040513d601f19601f820116820180604052508101906108109190610d8a565b50604080516001600160a01b0383168152602081018590527f2e798dd4337e515c79b64c40e1a93baa1aefbd9180ac7905e02508edd7971e50910160405180910390a1505050565b6000546001600160a01b031633146108825760405162461bcd60e51b815260040161064a90610efb565b61088c6000610cd2565b565b6001600160a01b038216600090815260076020526040902054806108b157505050565b808211156108bd578091505b60015b82811161099a576001600160a01b038416600090815260076020526040812080546108ed90600190610f48565b815481106108fd576108fd610fc8565b90600052602060002001549050600660008360015461091c9190610f48565b815260208082019290925260409081016000908120548482526006845282822080546001600160a01b0319166001600160a01b03928316179055881681526007909252902080548061097057610970610fb2565b6001900381819060005260206000200160009055905550808061099290610f5f565b9150506108c0565b5081600160008282546109ad9190610f48565b9091555050505050565b606060025482106109d45760016002546109d19190610f48565b91505b60006109e08484610f48565b6109eb906001610f30565b905060008167ffffffffffffffff811115610a0857610a08610fde565b604051908082528060200260200182016040528015610a7457816020015b610a616040518060a001604052806000815260200160008152602001600081526020016000815260200160006001600160a01b031681525090565b815260200190600190039081610a265790505b509250845b848111610b215760056000610a8e8389610f30565b81526020808201929092526040908101600020815160a0810183528154815260018201549381019390935260028101549183019190915260038101546060830152600401546001600160a01b031660808201528451859084908110610af557610af5610fc8565b60200260200101819052508180610b0b90610f5f565b9250508080610b1990610f5f565b915050610a79565b50505092915050565b6001600160a01b038116600090815260076020526040902054610b4d828261088e565b5050565b6000546001600160a01b03163314610b7b5760405162461bcd60e51b815260040161064a90610efb565b6001600160a01b038116610be05760405162461bcd60e51b815260206004820152602660248201527f4f776e61626c653a206e6577206f776e657220697320746865207a65726f206160448201526564647265737360d01b606482015260840161064a565b610be981610cd2565b50565b600480546040516370a0823160e01b815230928101929092526000916001600160a01b03909116906370a082319060240160206040518083038186803b158015610c3557600080fd5b505afa158015610c49573d6000803e3d6000fd5b505050506040513d601f19601f82011682018060405250810190610c6d9190610dc5565b905090565b6000425a600354604051610cb49392913391602001938452602084019290925260601b6bffffffffffffffffffffffff19166040830152605482015260740190565b6040516020818303038152906040528051906020012060001c905090565b600080546001600160a01b038381166001600160a01b0319831681178455604051919092169283917f8be0079c531659141344cd1fd0a4f28419497f9722a3daafe3b4186f6b6457e09190a35050565b80356001600160a01b0381168114610d3957600080fd5b919050565b600060208284031215610d5057600080fd5b610d5982610d22565b9392505050565b60008060408385031215610d7357600080fd5b610d7c83610d22565b946020939093013593505050565b600060208284031215610d9c57600080fd5b81518015158114610d5957600080fd5b600060208284031215610dbe57600080fd5b5035919050565b600060208284031215610dd757600080fd5b5051919050565b60008060408385031215610df157600080fd5b50508035926020909101359150565b604080825283519082018190526000906020906060840190828701845b82811015610e425781516001600160a01b031684529284019290840190600101610e1d565b5050508381038285015284518082528583019183019060005b81811015610e7757835183529284019291840191600101610e5b565b5090979650505050505050565b602080825282518282018190526000919060409081850190868401855b82811015610eee5781518051855286810151878601528581015186860152606080820151908601526080908101516001600160a01b03169085015260a09093019290850190600101610ea1565b5091979650505050505050565b6020808252818101527f4f776e61626c653a2063616c6c6572206973206e6f7420746865206f776e6572604082015260600190565b60008219821115610f4357610f43610f9c565b500190565b600082821015610f5a57610f5a610f9c565b500390565b6000600019821415610f7357610f73610f9c565b5060010190565b600082610f9757634e487b7160e01b600052601260045260246000fd5b500690565b634e487b7160e01b600052601160045260246000fd5b634e487b7160e01b600052603160045260246000fd5b634e487b7160e01b600052603260045260246000fd5b634e487b7160e01b600052604160045260246000fdfea2646970667358221220ef02abb28a4fc7da12e590c0b348fa0b7c6cc83cf09cd77358369826905ff6c464736f6c63430008070033",
			"opcodes": "PUSH1 0x80 PUSH1 0x40 MSTORE CALLVALUE DUP1 ISZERO PUSH2 0x10 JUMPI PUSH1 0x0 DUP1 REVERT JUMPDEST POP PUSH1 0x40 MLOAD PUSH2 0x1116 CODESIZE SUB DUP1 PUSH2 0x1116 DUP4 CODECOPY DUP2 ADD PUSH1 0x40 DUP2 SWAP1 MSTORE PUSH2 0x2F SWAP2 PUSH2 0xAD JUMP JUMPDEST PUSH2 0x38 CALLER PUSH2 0x5D JUMP JUMPDEST PUSH1 0x4 DUP1 SLOAD PUSH1 0x1 PUSH1 0x1 PUSH1 0xA0 SHL SUB NOT AND PUSH1 0x1 PUSH1 0x1 PUSH1 0xA0 SHL SUB SWAP3 SWAP1 SWAP3 AND SWAP2 SWAP1 SWAP2 OR SWAP1 SSTORE PUSH2 0xDD JUMP JUMPDEST PUSH1 0x0 DUP1 SLOAD PUSH1 0x1 PUSH1 0x1 PUSH1 0xA0 SHL SUB DUP4 DUP2 AND PUSH1 0x1 PUSH1 0x1 PUSH1 0xA0 SHL SUB NOT DUP4 AND DUP2 OR DUP5 SSTORE PUSH1 0x40 MLOAD SWAP2 SWAP1 SWAP3 AND SWAP3 DUP4 SWAP2 PUSH32 0x8BE0079C531659141344CD1FD0A4F28419497F9722A3DAAFE3B4186F6B6457E0 SWAP2 SWAP1 LOG3 POP POP JUMP JUMPDEST PUSH1 0x0 PUSH1 0x20 DUP3 DUP5 SUB SLT ISZERO PUSH2 0xBF JUMPI PUSH1 0x0 DUP1 REVERT JUMPDEST DUP2 MLOAD PUSH1 0x1 PUSH1 0x1 PUSH1 0xA0 SHL SUB DUP2 AND DUP2 EQ PUSH2 0xD6 JUMPI PUSH1 0x0 DUP1 REVERT JUMPDEST SWAP4 SWAP3 POP POP POP JUMP JUMPDEST PUSH2 0x102A DUP1 PUSH2 0xEC PUSH1 0x0 CODECOPY PUSH1 0x0 RETURN INVALID PUSH1 0x80 PUSH1 0x40 MSTORE CALLVALUE DUP1 ISZERO PUSH2 0x10 JUMPI PUSH1 0x0 DUP1 REVERT JUMPDEST POP PUSH1 0x4 CALLDATASIZE LT PUSH2 0x12C JUMPI PUSH1 0x0 CALLDATALOAD PUSH1 0xE0 SHR DUP1 PUSH4 0x8DA5CB5B GT PUSH2 0xAD JUMPI DUP1 PUSH4 0xB657DD65 GT PUSH2 0x71 JUMPI DUP1 PUSH4 0xB657DD65 EQ PUSH2 0x2DB JUMPI DUP1 PUSH4 0xBC15CDF0 EQ PUSH2 0x304 JUMPI DUP1 PUSH4 0xC4740A95 EQ PUSH2 0x324 JUMPI DUP1 PUSH4 0xF2FDE38B EQ PUSH2 0x337 JUMPI DUP1 PUSH4 0xF9CEE0BD EQ PUSH2 0x34A JUMPI PUSH1 0x0 DUP1 REVERT JUMPDEST DUP1 PUSH4 0x8DA5CB5B EQ PUSH2 0x1F0 JUMPI DUP1 PUSH4 0x9B3E4552 EQ PUSH2 0x215 JUMPI DUP1 PUSH4 0x9F10A990 EQ PUSH2 0x228 JUMPI DUP1 PUSH4 0xA59460DC EQ PUSH2 0x251 JUMPI DUP1 PUSH4 0xAC128F4F EQ PUSH2 0x264 JUMPI PUSH1 0x0 DUP1 REVERT JUMPDEST DUP1 PUSH4 0x454F7B8F GT PUSH2 0xF4 JUMPI DUP1 PUSH4 0x454F7B8F EQ PUSH2 0x193 JUMPI DUP1 PUSH4 0x5BEDC390 EQ PUSH2 0x19C JUMPI DUP1 PUSH4 0x5D495AEA EQ PUSH2 0x1D7 JUMPI DUP1 PUSH4 0x715018A6 EQ PUSH2 0x1DF JUMPI DUP1 PUSH4 0x76636D20 EQ PUSH2 0x1E7 JUMPI PUSH1 0x0 DUP1 REVERT JUMPDEST DUP1 PUSH4 0xD988270 EQ PUSH2 0x131 JUMPI DUP1 PUSH4 0x119B22B3 EQ PUSH2 0x157 JUMPI DUP1 PUSH4 0x158977DE EQ PUSH2 0x160 JUMPI DUP1 PUSH4 0x3B98BC65 EQ PUSH2 0x168 JUMPI DUP1 PUSH4 0x443B80A1 EQ PUSH2 0x17E JUMPI JUMPDEST PUSH1 0x0 DUP1 REVERT JUMPDEST PUSH2 0x144 PUSH2 0x13F CALLDATASIZE PUSH1 0x4 PUSH2 0xD60 JUMP JUMPDEST PUSH2 0x352 JUMP JUMPDEST PUSH1 0x40 MLOAD SWAP1 DUP2 MSTORE PUSH1 0x20 ADD JUMPDEST PUSH1 0x40 MLOAD DUP1 SWAP2 SUB SWAP1 RETURN JUMPDEST PUSH2 0x144 PUSH1 0x2 SLOAD DUP2 JUMP JUMPDEST PUSH2 0x144 PUSH2 0x383 JUMP JUMPDEST PUSH2 0x170 PUSH2 0x3FF JUMP JUMPDEST PUSH1 0x40 MLOAD PUSH2 0x14E SWAP3 SWAP2 SWAP1 PUSH2 0xE00 JUMP JUMPDEST PUSH2 0x191 PUSH2 0x18C CALLDATASIZE PUSH1 0x4 PUSH2 0xD60 JUMP JUMPDEST PUSH2 0x575 JUMP JUMPDEST STOP JUMPDEST PUSH2 0x144 PUSH1 0x3 SLOAD DUP2 JUMP JUMPDEST PUSH2 0x1C7 PUSH2 0x1AA CALLDATASIZE PUSH1 0x4 PUSH2 0xD3E JUMP JUMPDEST PUSH1 0x1 PUSH1 0x1 PUSH1 0xA0 SHL SUB AND PUSH1 0x0 SWAP1 DUP2 MSTORE PUSH1 0x7 PUSH1 0x20 MSTORE PUSH1 0x40 SWAP1 KECCAK256 SLOAD ISZERO ISZERO SWAP1 JUMP JUMPDEST PUSH1 0x40 MLOAD SWAP1 ISZERO ISZERO DUP2 MSTORE PUSH1 0x20 ADD PUSH2 0x14E JUMP JUMPDEST PUSH2 0x191 PUSH2 0x620 JUMP JUMPDEST PUSH2 0x191 PUSH2 0x858 JUMP JUMPDEST PUSH2 0x144 PUSH1 0x1 SLOAD DUP2 JUMP JUMPDEST PUSH1 0x0 SLOAD PUSH1 0x1 PUSH1 0x1 PUSH1 0xA0 SHL SUB AND JUMPDEST PUSH1 0x40 MLOAD PUSH1 0x1 PUSH1 0x1 PUSH1 0xA0 SHL SUB SWAP1 SWAP2 AND DUP2 MSTORE PUSH1 0x20 ADD PUSH2 0x14E JUMP JUMPDEST PUSH1 0x4 SLOAD PUSH2 0x1FD SWAP1 PUSH1 0x1 PUSH1 0x1 PUSH1 0xA0 SHL SUB AND DUP2 JUMP JUMPDEST PUSH2 0x144 PUSH2 0x236 CALLDATASIZE PUSH1 0x4 PUSH2 0xD3E JUMP JUMPDEST PUSH1 0x1 PUSH1 0x1 PUSH1 0xA0 SHL SUB AND PUSH1 0x0 SWAP1 DUP2 MSTORE PUSH1 0x7 PUSH1 0x20 MSTORE PUSH1 0x40 SWAP1 KECCAK256 SLOAD SWAP1 JUMP JUMPDEST PUSH2 0x191 PUSH2 0x25F CALLDATASIZE PUSH1 0x4 PUSH2 0xD60 JUMP JUMPDEST PUSH2 0x88E JUMP JUMPDEST PUSH2 0x2AA PUSH2 0x272 CALLDATASIZE PUSH1 0x4 PUSH2 0xDAC JUMP JUMPDEST PUSH1 0x5 PUSH1 0x20 MSTORE PUSH1 0x0 SWAP1 DUP2 MSTORE PUSH1 0x40 SWAP1 KECCAK256 DUP1 SLOAD PUSH1 0x1 DUP3 ADD SLOAD PUSH1 0x2 DUP4 ADD SLOAD PUSH1 0x3 DUP5 ADD SLOAD PUSH1 0x4 SWAP1 SWAP5 ADD SLOAD SWAP3 SWAP4 SWAP2 SWAP3 SWAP1 SWAP2 SWAP1 PUSH1 0x1 PUSH1 0x1 PUSH1 0xA0 SHL SUB AND DUP6 JUMP JUMPDEST PUSH1 0x40 DUP1 MLOAD SWAP6 DUP7 MSTORE PUSH1 0x20 DUP7 ADD SWAP5 SWAP1 SWAP5 MSTORE SWAP3 DUP5 ADD SWAP2 SWAP1 SWAP2 MSTORE PUSH1 0x60 DUP4 ADD MSTORE PUSH1 0x1 PUSH1 0x1 PUSH1 0xA0 SHL SUB AND PUSH1 0x80 DUP3 ADD MSTORE PUSH1 0xA0 ADD PUSH2 0x14E JUMP JUMPDEST PUSH2 0x1FD PUSH2 0x2E9 CALLDATASIZE PUSH1 0x4 PUSH2 0xDAC JUMP JUMPDEST PUSH1 0x6 PUSH1 0x20 MSTORE PUSH1 0x0 SWAP1 DUP2 MSTORE PUSH1 0x40 SWAP1 KECCAK256 SLOAD PUSH1 0x1 PUSH1 0x1 PUSH1 0xA0 SHL SUB AND DUP2 JUMP JUMPDEST PUSH2 0x317 PUSH2 0x312 CALLDATASIZE PUSH1 0x4 PUSH2 0xDDE JUMP JUMPDEST PUSH2 0x9B7 JUMP JUMPDEST PUSH1 0x40 MLOAD PUSH2 0x14E SWAP2 SWAP1 PUSH2 0xE84 JUMP JUMPDEST PUSH2 0x191 PUSH2 0x332 CALLDATASIZE PUSH1 0x4 PUSH2 0xD3E JUMP JUMPDEST PUSH2 0xB2A JUMP JUMPDEST PUSH2 0x191 PUSH2 0x345 CALLDATASIZE PUSH1 0x4 PUSH2 0xD3E JUMP JUMPDEST PUSH2 0xB51 JUMP JUMPDEST PUSH2 0x144 PUSH2 0xBEC JUMP JUMPDEST PUSH1 0x7 PUSH1 0x20 MSTORE DUP2 PUSH1 0x0 MSTORE PUSH1 0x40 PUSH1 0x0 KECCAK256 DUP2 DUP2 SLOAD DUP2 LT PUSH2 0x36E JUMPI PUSH1 0x0 DUP1 REVERT JUMPDEST SWAP1 PUSH1 0x0 MSTORE PUSH1 0x20 PUSH1 0x0 KECCAK256 ADD PUSH1 0x0 SWAP2 POP SWAP2 POP POP SLOAD DUP2 JUMP JUMPDEST PUSH1 0x0 DUP1 JUMPDEST PUSH1 0x1 SLOAD DUP2 LT ISZERO PUSH2 0x3FB JUMPI PUSH1 0x0 DUP2 DUP2 MSTORE PUSH1 0x6 PUSH1 0x20 SWAP1 DUP2 MSTORE PUSH1 0x40 DUP1 DUP4 KECCAK256 SLOAD PUSH1 0x1 PUSH1 0x1 PUSH1 0xA0 SHL SUB AND DUP1 DUP5 MSTORE PUSH1 0x7 SWAP1 SWAP3 MSTORE DUP3 KECCAK256 DUP1 SLOAD SWAP2 SWAP3 SWAP1 SWAP2 PUSH2 0x3C8 JUMPI PUSH2 0x3C8 PUSH2 0xFC8 JUMP JUMPDEST SWAP1 PUSH1 0x0 MSTORE PUSH1 0x20 PUSH1 0x0 KECCAK256 ADD SLOAD DUP3 EQ ISZERO PUSH2 0x3E8 JUMPI DUP3 PUSH2 0x3E4 DUP2 PUSH2 0xF5F JUMP JUMPDEST SWAP4 POP POP JUMPDEST POP DUP1 PUSH2 0x3F3 DUP2 PUSH2 0xF5F JUMP JUMPDEST SWAP2 POP POP PUSH2 0x387 JUMP JUMPDEST POP SWAP1 JUMP JUMPDEST PUSH1 0x60 DUP1 PUSH1 0x0 PUSH2 0x40C PUSH2 0x383 JUMP JUMPDEST SWAP1 POP DUP1 PUSH8 0xFFFFFFFFFFFFFFFF DUP2 GT ISZERO PUSH2 0x427 JUMPI PUSH2 0x427 PUSH2 0xFDE JUMP JUMPDEST PUSH1 0x40 MLOAD SWAP1 DUP1 DUP3 MSTORE DUP1 PUSH1 0x20 MUL PUSH1 0x20 ADD DUP3 ADD PUSH1 0x40 MSTORE DUP1 ISZERO PUSH2 0x450 JUMPI DUP2 PUSH1 0x20 ADD PUSH1 0x20 DUP3 MUL DUP1 CALLDATASIZE DUP4 CALLDATACOPY ADD SWAP1 POP JUMPDEST POP SWAP3 POP DUP1 PUSH8 0xFFFFFFFFFFFFFFFF DUP2 GT ISZERO PUSH2 0x46C JUMPI PUSH2 0x46C PUSH2 0xFDE JUMP JUMPDEST PUSH1 0x40 MLOAD SWAP1 DUP1 DUP3 MSTORE DUP1 PUSH1 0x20 MUL PUSH1 0x20 ADD DUP3 ADD PUSH1 0x40 MSTORE DUP1 ISZERO PUSH2 0x495 JUMPI DUP2 PUSH1 0x20 ADD PUSH1 0x20 DUP3 MUL DUP1 CALLDATASIZE DUP4 CALLDATACOPY ADD SWAP1 POP JUMPDEST POP SWAP2 POP PUSH1 0x0 DUP1 JUMPDEST PUSH1 0x1 SLOAD DUP2 LT ISZERO PUSH2 0x56E JUMPI PUSH1 0x0 DUP2 DUP2 MSTORE PUSH1 0x6 PUSH1 0x20 SWAP1 DUP2 MSTORE PUSH1 0x40 DUP1 DUP4 KECCAK256 SLOAD PUSH1 0x1 PUSH1 0x1 PUSH1 0xA0 SHL SUB AND DUP1 DUP5 MSTORE PUSH1 0x7 SWAP1 SWAP3 MSTORE DUP3 KECCAK256 DUP1 SLOAD SWAP2 SWAP3 SWAP1 SWAP2 PUSH2 0x4DD JUMPI PUSH2 0x4DD PUSH2 0xFC8 JUMP JUMPDEST SWAP1 PUSH1 0x0 MSTORE PUSH1 0x20 PUSH1 0x0 KECCAK256 ADD SLOAD DUP3 EQ ISZERO PUSH2 0x55B JUMPI DUP1 DUP7 DUP5 DUP2 MLOAD DUP2 LT PUSH2 0x502 JUMPI PUSH2 0x502 PUSH2 0xFC8 JUMP JUMPDEST PUSH1 0x1 PUSH1 0x1 PUSH1 0xA0 SHL SUB SWAP3 DUP4 AND PUSH1 0x20 SWAP2 DUP3 MUL SWAP3 SWAP1 SWAP3 ADD DUP2 ADD SWAP2 SWAP1 SWAP2 MSTORE SWAP1 DUP3 AND PUSH1 0x0 SWAP1 DUP2 MSTORE PUSH1 0x7 SWAP1 SWAP2 MSTORE PUSH1 0x40 SWAP1 KECCAK256 SLOAD DUP6 MLOAD DUP7 SWAP1 DUP6 SWAP1 DUP2 LT PUSH2 0x542 JUMPI PUSH2 0x542 PUSH2 0xFC8 JUMP JUMPDEST PUSH1 0x20 SWAP1 DUP2 MUL SWAP2 SWAP1 SWAP2 ADD ADD MSTORE DUP3 PUSH2 0x557 DUP2 PUSH2 0xF5F JUMP JUMPDEST SWAP4 POP POP JUMPDEST POP DUP1 PUSH2 0x566 DUP2 PUSH2 0xF5F JUMP JUMPDEST SWAP2 POP POP PUSH2 0x49C JUMP JUMPDEST POP POP POP SWAP1 SWAP2 JUMP JUMPDEST PUSH1 0x0 JUMPDEST DUP2 DUP2 LT ISZERO PUSH2 0x604 JUMPI DUP3 PUSH1 0x6 PUSH1 0x0 DUP4 PUSH1 0x1 SLOAD PUSH2 0x593 SWAP2 SWAP1 PUSH2 0xF30 JUMP JUMPDEST DUP2 MSTORE PUSH1 0x20 DUP1 DUP3 ADD SWAP3 SWAP1 SWAP3 MSTORE PUSH1 0x40 SWAP1 DUP2 ADD PUSH1 0x0 SWAP1 DUP2 KECCAK256 DUP1 SLOAD PUSH1 0x1 PUSH1 0x1 PUSH1 0xA0 SHL SUB NOT AND PUSH1 0x1 PUSH1 0x1 PUSH1 0xA0 SHL SUB SWAP6 DUP7 AND OR SWAP1 SSTORE SWAP3 DUP7 AND DUP4 MSTORE PUSH1 0x7 SWAP1 SWAP2 MSTORE SWAP1 KECCAK256 PUSH1 0x1 SLOAD PUSH2 0x5DC SWAP1 DUP4 SWAP1 PUSH2 0xF30 JUMP JUMPDEST DUP2 SLOAD PUSH1 0x1 DUP2 ADD DUP4 SSTORE PUSH1 0x0 SWAP3 DUP4 MSTORE PUSH1 0x20 SWAP1 SWAP3 KECCAK256 SWAP1 SWAP2 ADD SSTORE DUP1 PUSH2 0x5FC DUP2 PUSH2 0xF5F JUMP JUMPDEST SWAP2 POP POP PUSH2 0x578 JUMP JUMPDEST POP DUP1 PUSH1 0x1 PUSH1 0x0 DUP3 DUP3 SLOAD PUSH2 0x617 SWAP2 SWAP1 PUSH2 0xF30 JUMP JUMPDEST SWAP1 SWAP2 SSTORE POP POP POP POP JUMP JUMPDEST PUSH1 0x0 SLOAD PUSH1 0x1 PUSH1 0x1 PUSH1 0xA0 SHL SUB AND CALLER EQ PUSH2 0x653 JUMPI PUSH1 0x40 MLOAD PUSH3 0x461BCD PUSH1 0xE5 SHL DUP2 MSTORE PUSH1 0x4 ADD PUSH2 0x64A SWAP1 PUSH2 0xEFB JUMP JUMPDEST PUSH1 0x40 MLOAD DUP1 SWAP2 SUB SWAP1 REVERT JUMPDEST PUSH1 0x0 PUSH2 0x65D PUSH2 0xBEC JUMP JUMPDEST SWAP1 POP PUSH6 0x44364C5BB000 DUP2 LT ISZERO PUSH2 0x6B5 JUMPI PUSH1 0x40 MLOAD PUSH3 0x461BCD PUSH1 0xE5 SHL DUP2 MSTORE PUSH1 0x20 PUSH1 0x4 DUP3 ADD MSTORE PUSH1 0x18 PUSH1 0x24 DUP3 ADD MSTORE PUSH32 0x4E6F7420656E6F7567682066756E647320746F20647261770000000000000000 PUSH1 0x44 DUP3 ADD MSTORE PUSH1 0x64 ADD PUSH2 0x64A JUMP JUMPDEST PUSH1 0x0 PUSH1 0x1 SLOAD PUSH2 0x6C2 PUSH2 0xC72 JUMP JUMPDEST PUSH2 0x6CC SWAP2 SWAP1 PUSH2 0xF7A JUMP JUMPDEST PUSH1 0x0 DUP2 DUP2 MSTORE PUSH1 0x6 PUSH1 0x20 SWAP1 DUP2 MSTORE PUSH1 0x40 DUP1 DUP4 KECCAK256 SLOAD DUP2 MLOAD PUSH1 0xA0 DUP2 ADD DUP4 MSTORE PUSH1 0x1 DUP1 SLOAD DUP3 MSTORE DUP2 DUP6 ADD DUP8 DUP2 MSTORE DUP3 DUP6 ADD DUP11 DUP2 MSTORE TIMESTAMP PUSH1 0x60 DUP6 ADD SWAP1 DUP2 MSTORE PUSH1 0x1 PUSH1 0x1 PUSH1 0xA0 SHL SUB SWAP6 DUP7 AND PUSH1 0x80 DUP7 ADD DUP2 DUP2 MSTORE PUSH1 0x2 DUP1 SLOAD DUP13 MSTORE PUSH1 0x5 SWAP1 SWAP11 MSTORE SWAP8 DUP11 KECCAK256 SWAP6 MLOAD DUP7 SSTORE SWAP3 MLOAD SWAP4 DUP6 ADD SWAP4 SWAP1 SWAP4 SSTORE MLOAD SWAP6 DUP4 ADD SWAP6 SWAP1 SWAP6 SSTORE MLOAD PUSH1 0x3 DUP1 DUP4 ADD SWAP2 SWAP1 SWAP2 SSTORE SWAP3 MLOAD PUSH1 0x4 SWAP1 SWAP2 ADD DUP1 SLOAD PUSH1 0x1 PUSH1 0x1 PUSH1 0xA0 SHL SUB NOT AND SWAP2 SWAP1 SWAP3 AND OR SWAP1 SSTORE DUP1 SLOAD SWAP4 SWAP5 POP SWAP1 SWAP3 DUP6 SWAP3 SWAP1 PUSH2 0x76E SWAP1 DUP5 SWAP1 PUSH2 0xF30 JUMP JUMPDEST SWAP1 SWAP2 SSTORE POP POP PUSH1 0x2 DUP1 SLOAD SWAP1 PUSH1 0x0 PUSH2 0x783 DUP4 PUSH2 0xF5F JUMP JUMPDEST SWAP1 SWAP2 SSTORE POP POP PUSH1 0x4 DUP1 SLOAD PUSH1 0x40 MLOAD PUSH4 0xA9059CBB PUSH1 0xE0 SHL DUP2 MSTORE PUSH1 0x1 PUSH1 0x1 PUSH1 0xA0 SHL SUB DUP5 DUP2 AND SWAP4 DUP3 ADD SWAP4 SWAP1 SWAP4 MSTORE PUSH1 0x24 DUP2 ADD DUP7 SWAP1 MSTORE SWAP2 AND SWAP1 PUSH4 0xA9059CBB SWAP1 PUSH1 0x44 ADD PUSH1 0x20 PUSH1 0x40 MLOAD DUP1 DUP4 SUB DUP2 PUSH1 0x0 DUP8 DUP1 EXTCODESIZE ISZERO DUP1 ISZERO PUSH2 0x7D8 JUMPI PUSH1 0x0 DUP1 REVERT JUMPDEST POP GAS CALL ISZERO DUP1 ISZERO PUSH2 0x7EC JUMPI RETURNDATASIZE PUSH1 0x0 DUP1 RETURNDATACOPY RETURNDATASIZE PUSH1 0x0 REVERT JUMPDEST POP POP POP POP PUSH1 0x40 MLOAD RETURNDATASIZE PUSH1 0x1F NOT PUSH1 0x1F DUP3 ADD AND DUP3 ADD DUP1 PUSH1 0x40 MSTORE POP DUP2 ADD SWAP1 PUSH2 0x810 SWAP2 SWAP1 PUSH2 0xD8A JUMP JUMPDEST POP PUSH1 0x40 DUP1 MLOAD PUSH1 0x1 PUSH1 0x1 PUSH1 0xA0 SHL SUB DUP4 AND DUP2 MSTORE PUSH1 0x20 DUP2 ADD DUP6 SWAP1 MSTORE PUSH32 0x2E798DD4337E515C79B64C40E1A93BAA1AEFBD9180AC7905E02508EDD7971E50 SWAP2 ADD PUSH1 0x40 MLOAD DUP1 SWAP2 SUB SWAP1 LOG1 POP POP POP JUMP JUMPDEST PUSH1 0x0 SLOAD PUSH1 0x1 PUSH1 0x1 PUSH1 0xA0 SHL SUB AND CALLER EQ PUSH2 0x882 JUMPI PUSH1 0x40 MLOAD PUSH3 0x461BCD PUSH1 0xE5 SHL DUP2 MSTORE PUSH1 0x4 ADD PUSH2 0x64A SWAP1 PUSH2 0xEFB JUMP JUMPDEST PUSH2 0x88C PUSH1 0x0 PUSH2 0xCD2 JUMP JUMPDEST JUMP JUMPDEST PUSH1 0x1 PUSH1 0x1 PUSH1 0xA0 SHL SUB DUP3 AND PUSH1 0x0 SWAP1 DUP2 MSTORE PUSH1 0x7 PUSH1 0x20 MSTORE PUSH1 0x40 SWAP1 KECCAK256 SLOAD DUP1 PUSH2 0x8B1 JUMPI POP POP POP JUMP JUMPDEST DUP1 DUP3 GT ISZERO PUSH2 0x8BD JUMPI DUP1 SWAP2 POP JUMPDEST PUSH1 0x1 JUMPDEST DUP3 DUP2 GT PUSH2 0x99A JUMPI PUSH1 0x1 PUSH1 0x1 PUSH1 0xA0 SHL SUB DUP5 AND PUSH1 0x0 SWAP1 DUP2 MSTORE PUSH1 0x7 PUSH1 0x20 MSTORE PUSH1 0x40 DUP2 KECCAK256 DUP1 SLOAD PUSH2 0x8ED SWAP1 PUSH1 0x1 SWAP1 PUSH2 0xF48 JUMP JUMPDEST DUP2 SLOAD DUP2 LT PUSH2 0x8FD JUMPI PUSH2 0x8FD PUSH2 0xFC8 JUMP JUMPDEST SWAP1 PUSH1 0x0 MSTORE PUSH1 0x20 PUSH1 0x0 KECCAK256 ADD SLOAD SWAP1 POP PUSH1 0x6 PUSH1 0x0 DUP4 PUSH1 0x1 SLOAD PUSH2 0x91C SWAP2 SWAP1 PUSH2 0xF48 JUMP JUMPDEST DUP2 MSTORE PUSH1 0x20 DUP1 DUP3 ADD SWAP3 SWAP1 SWAP3 MSTORE PUSH1 0x40 SWAP1 DUP2 ADD PUSH1 0x0 SWAP1 DUP2 KECCAK256 SLOAD DUP5 DUP3 MSTORE PUSH1 0x6 DUP5 MSTORE DUP3 DUP3 KECCAK256 DUP1 SLOAD PUSH1 0x1 PUSH1 0x1 PUSH1 0xA0 SHL SUB NOT AND PUSH1 0x1 PUSH1 0x1 PUSH1 0xA0 SHL SUB SWAP3 DUP4 AND OR SWAP1 SSTORE DUP9 AND DUP2 MSTORE PUSH1 0x7 SWAP1 SWAP3 MSTORE SWAP1 KECCAK256 DUP1 SLOAD DUP1 PUSH2 0x970 JUMPI PUSH2 0x970 PUSH2 0xFB2 JUMP JUMPDEST PUSH1 0x1 SWAP1 SUB DUP2 DUP2 SWAP1 PUSH1 0x0 MSTORE PUSH1 0x20 PUSH1 0x0 KECCAK256 ADD PUSH1 0x0 SWAP1 SSTORE SWAP1 SSTORE POP DUP1 DUP1 PUSH2 0x992 SWAP1 PUSH2 0xF5F JUMP JUMPDEST SWAP2 POP POP PUSH2 0x8C0 JUMP JUMPDEST POP DUP2 PUSH1 0x1 PUSH1 0x0 DUP3 DUP3 SLOAD PUSH2 0x9AD SWAP2 SWAP1 PUSH2 0xF48 JUMP JUMPDEST SWAP1 SWAP2 SSTORE POP POP POP POP POP JUMP JUMPDEST PUSH1 0x60 PUSH1 0x2 SLOAD DUP3 LT PUSH2 0x9D4 JUMPI PUSH1 0x1 PUSH1 0x2 SLOAD PUSH2 0x9D1 SWAP2 SWAP1 PUSH2 0xF48 JUMP JUMPDEST SWAP2 POP JUMPDEST PUSH1 0x0 PUSH2 0x9E0 DUP5 DUP5 PUSH2 0xF48 JUMP JUMPDEST PUSH2 0x9EB SWAP1 PUSH1 0x1 PUSH2 0xF30 JUMP JUMPDEST SWAP1 POP PUSH1 0x0 DUP2 PUSH8 0xFFFFFFFFFFFFFFFF DUP2 GT ISZERO PUSH2 0xA08 JUMPI PUSH2 0xA08 PUSH2 0xFDE JUMP JUMPDEST PUSH1 0x40 MLOAD SWAP1 DUP1 DUP3 MSTORE DUP1 PUSH1 0x20 MUL PUSH1 0x20 ADD DUP3 ADD PUSH1 0x40 MSTORE DUP1 ISZERO PUSH2 0xA74 JUMPI DUP2 PUSH1 0x20 ADD JUMPDEST PUSH2 0xA61 PUSH1 0x40 MLOAD DUP1 PUSH1 0xA0 ADD PUSH1 0x40 MSTORE DUP1 PUSH1 0x0 DUP2 MSTORE PUSH1 0x20 ADD PUSH1 0x0 DUP2 MSTORE PUSH1 0x20 ADD PUSH1 0x0 DUP2 MSTORE PUSH1 0x20 ADD PUSH1 0x0 DUP2 MSTORE PUSH1 0x20 ADD PUSH1 0x0 PUSH1 0x1 PUSH1 0x1 PUSH1 0xA0 SHL SUB AND DUP2 MSTORE POP SWAP1 JUMP JUMPDEST DUP2 MSTORE PUSH1 0x20 ADD SWAP1 PUSH1 0x1 SWAP1 SUB SWAP1 DUP2 PUSH2 0xA26 JUMPI SWAP1 POP JUMPDEST POP SWAP3 POP DUP5 JUMPDEST DUP5 DUP2 GT PUSH2 0xB21 JUMPI PUSH1 0x5 PUSH1 0x0 PUSH2 0xA8E DUP4 DUP10 PUSH2 0xF30 JUMP JUMPDEST DUP2 MSTORE PUSH1 0x20 DUP1 DUP3 ADD SWAP3 SWAP1 SWAP3 MSTORE PUSH1 0x40 SWAP1 DUP2 ADD PUSH1 0x0 KECCAK256 DUP2 MLOAD PUSH1 0xA0 DUP2 ADD DUP4 MSTORE DUP2 SLOAD DUP2 MSTORE PUSH1 0x1 DUP3 ADD SLOAD SWAP4 DUP2 ADD SWAP4 SWAP1 SWAP4 MSTORE PUSH1 0x2 DUP2 ADD SLOAD SWAP2 DUP4 ADD SWAP2 SWAP1 SWAP2 MSTORE PUSH1 0x3 DUP2 ADD SLOAD PUSH1 0x60 DUP4 ADD MSTORE PUSH1 0x4 ADD SLOAD PUSH1 0x1 PUSH1 0x1 PUSH1 0xA0 SHL SUB AND PUSH1 0x80 DUP3 ADD MSTORE DUP5 MLOAD DUP6 SWAP1 DUP5 SWAP1 DUP2 LT PUSH2 0xAF5 JUMPI PUSH2 0xAF5 PUSH2 0xFC8 JUMP JUMPDEST PUSH1 0x20 MUL PUSH1 0x20 ADD ADD DUP2 SWAP1 MSTORE POP DUP2 DUP1 PUSH2 0xB0B SWAP1 PUSH2 0xF5F JUMP JUMPDEST SWAP3 POP POP DUP1 DUP1 PUSH2 0xB19 SWAP1 PUSH2 0xF5F JUMP JUMPDEST SWAP2 POP POP PUSH2 0xA79 JUMP JUMPDEST POP POP POP SWAP3 SWAP2 POP POP JUMP JUMPDEST PUSH1 0x1 PUSH1 0x1 PUSH1 0xA0 SHL SUB DUP2 AND PUSH1 0x0 SWAP1 DUP2 MSTORE PUSH1 0x7 PUSH1 0x20 MSTORE PUSH1 0x40 SWAP1 KECCAK256 SLOAD PUSH2 0xB4D DUP3 DUP3 PUSH2 0x88E JUMP JUMPDEST POP POP JUMP JUMPDEST PUSH1 0x0 SLOAD PUSH1 0x1 PUSH1 0x1 PUSH1 0xA0 SHL SUB AND CALLER EQ PUSH2 0xB7B JUMPI PUSH1 0x40 MLOAD PUSH3 0x461BCD PUSH1 0xE5 SHL DUP2 MSTORE PUSH1 0x4 ADD PUSH2 0x64A SWAP1 PUSH2 0xEFB JUMP JUMPDEST PUSH1 0x1 PUSH1 0x1 PUSH1 0xA0 SHL SUB DUP2 AND PUSH2 0xBE0 JUMPI PUSH1 0x40 MLOAD PUSH3 0x461BCD PUSH1 0xE5 SHL DUP2 MSTORE PUSH1 0x20 PUSH1 0x4 DUP3 ADD MSTORE PUSH1 0x26 PUSH1 0x24 DUP3 ADD MSTORE PUSH32 0x4F776E61626C653A206E6577206F776E657220697320746865207A65726F2061 PUSH1 0x44 DUP3 ADD MSTORE PUSH6 0x646472657373 PUSH1 0xD0 SHL PUSH1 0x64 DUP3 ADD MSTORE PUSH1 0x84 ADD PUSH2 0x64A JUMP JUMPDEST PUSH2 0xBE9 DUP2 PUSH2 0xCD2 JUMP JUMPDEST POP JUMP JUMPDEST PUSH1 0x4 DUP1 SLOAD PUSH1 0x40 MLOAD PUSH4 0x70A08231 PUSH1 0xE0 SHL DUP2 MSTORE ADDRESS SWAP3 DUP2 ADD SWAP3 SWAP1 SWAP3 MSTORE PUSH1 0x0 SWAP2 PUSH1 0x1 PUSH1 0x1 PUSH1 0xA0 SHL SUB SWAP1 SWAP2 AND SWAP1 PUSH4 0x70A08231 SWAP1 PUSH1 0x24 ADD PUSH1 0x20 PUSH1 0x40 MLOAD DUP1 DUP4 SUB DUP2 DUP7 DUP1 EXTCODESIZE ISZERO DUP1 ISZERO PUSH2 0xC35 JUMPI PUSH1 0x0 DUP1 REVERT JUMPDEST POP GAS STATICCALL ISZERO DUP1 ISZERO PUSH2 0xC49 JUMPI RETURNDATASIZE PUSH1 0x0 DUP1 RETURNDATACOPY RETURNDATASIZE PUSH1 0x0 REVERT JUMPDEST POP POP POP POP PUSH1 0x40 MLOAD RETURNDATASIZE PUSH1 0x1F NOT PUSH1 0x1F DUP3 ADD AND DUP3 ADD DUP1 PUSH1 0x40 MSTORE POP DUP2 ADD SWAP1 PUSH2 0xC6D SWAP2 SWAP1 PUSH2 0xDC5 JUMP JUMPDEST SWAP1 POP SWAP1 JUMP JUMPDEST PUSH1 0x0 TIMESTAMP GAS PUSH1 0x3 SLOAD PUSH1 0x40 MLOAD PUSH2 0xCB4 SWAP4 SWAP3 SWAP2 CALLER SWAP2 PUSH1 0x20 ADD SWAP4 DUP5 MSTORE PUSH1 0x20 DUP5 ADD SWAP3 SWAP1 SWAP3 MSTORE PUSH1 0x60 SHL PUSH12 0xFFFFFFFFFFFFFFFFFFFFFFFF NOT AND PUSH1 0x40 DUP4 ADD MSTORE PUSH1 0x54 DUP3 ADD MSTORE PUSH1 0x74 ADD SWAP1 JUMP JUMPDEST PUSH1 0x40 MLOAD PUSH1 0x20 DUP2 DUP4 SUB SUB DUP2 MSTORE SWAP1 PUSH1 0x40 MSTORE DUP1 MLOAD SWAP1 PUSH1 0x20 ADD KECCAK256 PUSH1 0x0 SHR SWAP1 POP SWAP1 JUMP JUMPDEST PUSH1 0x0 DUP1 SLOAD PUSH1 0x1 PUSH1 0x1 PUSH1 0xA0 SHL SUB DUP4 DUP2 AND PUSH1 0x1 PUSH1 0x1 PUSH1 0xA0 SHL SUB NOT DUP4 AND DUP2 OR DUP5 SSTORE PUSH1 0x40 MLOAD SWAP2 SWAP1 SWAP3 AND SWAP3 DUP4 SWAP2 PUSH32 0x8BE0079C531659141344CD1FD0A4F28419497F9722A3DAAFE3B4186F6B6457E0 SWAP2 SWAP1 LOG3 POP POP JUMP JUMPDEST DUP1 CALLDATALOAD PUSH1 0x1 PUSH1 0x1 PUSH1 0xA0 SHL SUB DUP2 AND DUP2 EQ PUSH2 0xD39 JUMPI PUSH1 0x0 DUP1 REVERT JUMPDEST SWAP2 SWAP1 POP JUMP JUMPDEST PUSH1 0x0 PUSH1 0x20 DUP3 DUP5 SUB SLT ISZERO PUSH2 0xD50 JUMPI PUSH1 0x0 DUP1 REVERT JUMPDEST PUSH2 0xD59 DUP3 PUSH2 0xD22 JUMP JUMPDEST SWAP4 SWAP3 POP POP POP JUMP JUMPDEST PUSH1 0x0 DUP1 PUSH1 0x40 DUP4 DUP6 SUB SLT ISZERO PUSH2 0xD73 JUMPI PUSH1 0x0 DUP1 REVERT JUMPDEST PUSH2 0xD7C DUP4 PUSH2 0xD22 JUMP JUMPDEST SWAP5 PUSH1 0x20 SWAP4 SWAP1 SWAP4 ADD CALLDATALOAD SWAP4 POP POP POP JUMP JUMPDEST PUSH1 0x0 PUSH1 0x20 DUP3 DUP5 SUB SLT ISZERO PUSH2 0xD9C JUMPI PUSH1 0x0 DUP1 REVERT JUMPDEST DUP2 MLOAD DUP1 ISZERO ISZERO DUP2 EQ PUSH2 0xD59 JUMPI PUSH1 0x0 DUP1 REVERT JUMPDEST PUSH1 0x0 PUSH1 0x20 DUP3 DUP5 SUB SLT ISZERO PUSH2 0xDBE JUMPI PUSH1 0x0 DUP1 REVERT JUMPDEST POP CALLDATALOAD SWAP2 SWAP1 POP JUMP JUMPDEST PUSH1 0x0 PUSH1 0x20 DUP3 DUP5 SUB SLT ISZERO PUSH2 0xDD7 JUMPI PUSH1 0x0 DUP1 REVERT JUMPDEST POP MLOAD SWAP2 SWAP1 POP JUMP JUMPDEST PUSH1 0x0 DUP1 PUSH1 0x40 DUP4 DUP6 SUB SLT ISZERO PUSH2 0xDF1 JUMPI PUSH1 0x0 DUP1 REVERT JUMPDEST POP POP DUP1 CALLDATALOAD SWAP3 PUSH1 0x20 SWAP1 SWAP2 ADD CALLDATALOAD SWAP2 POP JUMP JUMPDEST PUSH1 0x40 DUP1 DUP3 MSTORE DUP4 MLOAD SWAP1 DUP3 ADD DUP2 SWAP1 MSTORE PUSH1 0x0 SWAP1 PUSH1 0x20 SWAP1 PUSH1 0x60 DUP5 ADD SWAP1 DUP3 DUP8 ADD DUP5 JUMPDEST DUP3 DUP2 LT ISZERO PUSH2 0xE42 JUMPI DUP2 MLOAD PUSH1 0x1 PUSH1 0x1 PUSH1 0xA0 SHL SUB AND DUP5 MSTORE SWAP3 DUP5 ADD SWAP3 SWAP1 DUP5 ADD SWAP1 PUSH1 0x1 ADD PUSH2 0xE1D JUMP JUMPDEST POP POP POP DUP4 DUP2 SUB DUP3 DUP6 ADD MSTORE DUP5 MLOAD DUP1 DUP3 MSTORE DUP6 DUP4 ADD SWAP2 DUP4 ADD SWAP1 PUSH1 0x0 JUMPDEST DUP2 DUP2 LT ISZERO PUSH2 0xE77 JUMPI DUP4 MLOAD DUP4 MSTORE SWAP3 DUP5 ADD SWAP3 SWAP2 DUP5 ADD SWAP2 PUSH1 0x1 ADD PUSH2 0xE5B JUMP JUMPDEST POP SWAP1 SWAP8 SWAP7 POP POP POP POP POP POP POP JUMP JUMPDEST PUSH1 0x20 DUP1 DUP3 MSTORE DUP3 MLOAD DUP3 DUP3 ADD DUP2 SWAP1 MSTORE PUSH1 0x0 SWAP2 SWAP1 PUSH1 0x40 SWAP1 DUP2 DUP6 ADD SWAP1 DUP7 DUP5 ADD DUP6 JUMPDEST DUP3 DUP2 LT ISZERO PUSH2 0xEEE JUMPI DUP2 MLOAD DUP1 MLOAD DUP6 MSTORE DUP7 DUP2 ADD MLOAD DUP8 DUP7 ADD MSTORE DUP6 DUP2 ADD MLOAD DUP7 DUP7 ADD MSTORE PUSH1 0x60 DUP1 DUP3 ADD MLOAD SWAP1 DUP7 ADD MSTORE PUSH1 0x80 SWAP1 DUP2 ADD MLOAD PUSH1 0x1 PUSH1 0x1 PUSH1 0xA0 SHL SUB AND SWAP1 DUP6 ADD MSTORE PUSH1 0xA0 SWAP1 SWAP4 ADD SWAP3 SWAP1 DUP6 ADD SWAP1 PUSH1 0x1 ADD PUSH2 0xEA1 JUMP JUMPDEST POP SWAP2 SWAP8 SWAP7 POP POP POP POP POP POP POP JUMP JUMPDEST PUSH1 0x20 DUP1 DUP3 MSTORE DUP2 DUP2 ADD MSTORE PUSH32 0x4F776E61626C653A2063616C6C6572206973206E6F7420746865206F776E6572 PUSH1 0x40 DUP3 ADD MSTORE PUSH1 0x60 ADD SWAP1 JUMP JUMPDEST PUSH1 0x0 DUP3 NOT DUP3 GT ISZERO PUSH2 0xF43 JUMPI PUSH2 0xF43 PUSH2 0xF9C JUMP JUMPDEST POP ADD SWAP1 JUMP JUMPDEST PUSH1 0x0 DUP3 DUP3 LT ISZERO PUSH2 0xF5A JUMPI PUSH2 0xF5A PUSH2 0xF9C JUMP JUMPDEST POP SUB SWAP1 JUMP JUMPDEST PUSH1 0x0 PUSH1 0x0 NOT DUP3 EQ ISZERO PUSH2 0xF73 JUMPI PUSH2 0xF73 PUSH2 0xF9C JUMP JUMPDEST POP PUSH1 0x1 ADD SWAP1 JUMP JUMPDEST PUSH1 0x0 DUP3 PUSH2 0xF97 JUMPI PUSH4 0x4E487B71 PUSH1 0xE0 SHL PUSH1 0x0 MSTORE PUSH1 0x12 PUSH1 0x4 MSTORE PUSH1 0x24 PUSH1 0x0 REVERT JUMPDEST POP MOD SWAP1 JUMP JUMPDEST PUSH4 0x4E487B71 PUSH1 0xE0 SHL PUSH1 0x0 MSTORE PUSH1 0x11 PUSH1 0x4 MSTORE PUSH1 0x24 PUSH1 0x0 REVERT JUMPDEST PUSH4 0x4E487B71 PUSH1 0xE0 SHL PUSH1 0x0 MSTORE PUSH1 0x31 PUSH1 0x4 MSTORE PUSH1 0x24 PUSH1 0x0 REVERT JUMPDEST PUSH4 0x4E487B71 PUSH1 0xE0 SHL PUSH1 0x0 MSTORE PUSH1 0x32 PUSH1 0x4 MSTORE PUSH1 0x24 PUSH1 0x0 REVERT JUMPDEST PUSH4 0x4E487B71 PUSH1 0xE0 SHL PUSH1 0x0 MSTORE PUSH1 0x41 PUSH1 0x4 MSTORE PUSH1 0x24 PUSH1 0x0 REVERT INVALID LOG2 PUSH5 0x6970667358 0x22 SLT KECCAK256 0xEF MUL 0xAB 0xB2 DUP11 0x4F 0xC7 0xDA SLT 0xE5 SWAP1 0xC0 0xB3 BASEFEE STATICCALL SIGNEXTEND PUSH29 0x6CC83CF09CD77358369826905FF6C464736F6C63430008070033000000 "
		},
		"gasEstimates": {
			"creation": {
				"codeDepositCost": "827600",
				"executionCost": "infinite",
				"totalCost": "infinite"
			},
			"external": {
				"acesToken()": "2382",
				"currentJackpot()": "infinite",
				"entriesIndex(address,uint256)": "4757",
				"getUniqueAddresses()": "infinite",
				"getUniqueUsers()": "infinite",
				"isActiveAccount(address)": "2594",
				"owner()": "2343",
				"pickWinner()": "infinite",
				"removeAccount(address)": "infinite",
				"removeEntryFromWallet(address,uint256)": "infinite",
				"renounceOwnership()": "28203",
				"resultLog(uint256,uint256)": "infinite",
				"roundEntries()": "2395",
				"roundEntry(uint256)": "2499",
				"roundNum()": "2330",
				"roundResults(uint256)": "11129",
				"totalPayout()": "2307",
				"transferOwnership(address)": "28397",
				"updateAccount(address,uint256)": "infinite",
				"userEntries(address)": "2593"
			},
			"internal": {
				"random()": "infinite"
			}
		},
		"methodIdentifiers": {
			"acesToken()": "9b3e4552",
			"currentJackpot()": "f9cee0bd",
			"entriesIndex(address,uint256)": "0d988270",
			"getUniqueAddresses()": "3b98bc65",
			"getUniqueUsers()": "158977de",
			"isActiveAccount(address)": "5bedc390",
			"owner()": "8da5cb5b",
			"pickWinner()": "5d495aea",
			"removeAccount(address)": "c4740a95",
			"removeEntryFromWallet(address,uint256)": "a59460dc",
			"renounceOwnership()": "715018a6",
			"resultLog(uint256,uint256)": "bc15cdf0",
			"roundEntries()": "76636d20",
			"roundEntry(uint256)": "b657dd65",
			"roundNum()": "119b22b3",
			"roundResults(uint256)": "ac128f4f",
			"totalPayout()": "454f7b8f",
			"transferOwnership(address)": "f2fde38b",
			"updateAccount(address,uint256)": "443b80a1",
			"userEntries(address)": "9f10a990"
		}
	},
	"abi": [
		{
			"inputs": [
				{
					"internalType": "address",
					"name": "_aces",
					"type": "address"
				}
			],
			"stateMutability": "nonpayable",
			"type": "constructor"
		},
		{
			"anonymous": false,
			"inputs": [
				{
					"indexed": false,
					"internalType": "address",
					"name": "winner",
					"type": "address"
				},
				{
					"indexed": false,
					"internalType": "uint256",
					"name": "amount",
					"type": "uint256"
				}
			],
			"name": "LotteryWon",
			"type": "event"
		},
		{
			"anonymous": false,
			"inputs": [
				{
					"indexed": true,
					"internalType": "address",
					"name": "previousOwner",
					"type": "address"
				},
				{
					"indexed": true,
					"internalType": "address",
					"name": "newOwner",
					"type": "address"
				}
			],
			"name": "OwnershipTransferred",
			"type": "event"
		},
		{
			"inputs": [],
			"name": "acesToken",
			"outputs": [
				{
					"internalType": "contract IERC20",
					"name": "",
					"type": "address"
				}
			],
			"stateMutability": "view",
			"type": "function"
		},
		{
			"inputs": [],
			"name": "currentJackpot",
			"outputs": [
				{
					"internalType": "uint256",
					"name": "",
					"type": "uint256"
				}
			],
			"stateMutability": "view",
			"type": "function"
		},
		{
			"inputs": [
				{
					"internalType": "address",
					"name": "",
					"type": "address"
				},
				{
					"internalType": "uint256",
					"name": "",
					"type": "uint256"
				}
			],
			"name": "entriesIndex",
			"outputs": [
				{
					"internalType": "uint256",
					"name": "",
					"type": "uint256"
				}
			],
			"stateMutability": "view",
			"type": "function"
		},
		{
			"inputs": [],
			"name": "getUniqueAddresses",
			"outputs": [
				{
					"internalType": "address[]",
					"name": "addresses",
					"type": "address[]"
				},
				{
					"internalType": "uint256[]",
					"name": "entries",
					"type": "uint256[]"
				}
			],
			"stateMutability": "view",
			"type": "function"
		},
		{
			"inputs": [],
			"name": "getUniqueUsers",
			"outputs": [
				{
					"internalType": "uint256",
					"name": "counter",
					"type": "uint256"
				}
			],
			"stateMutability": "view",
			"type": "function"
		},
		{
			"inputs": [
				{
					"internalType": "address",
					"name": "account",
					"type": "address"
				}
			],
			"name": "isActiveAccount",
			"outputs": [
				{
					"internalType": "bool",
					"name": "",
					"type": "bool"
				}
			],
			"stateMutability": "view",
			"type": "function"
		},
		{
			"inputs": [],
			"name": "owner",
			"outputs": [
				{
					"internalType": "address",
					"name": "",
					"type": "address"
				}
			],
			"stateMutability": "view",
			"type": "function"
		},
		{
			"inputs": [],
			"name": "pickWinner",
			"outputs": [],
			"stateMutability": "nonpayable",
			"type": "function"
		},
		{
			"inputs": [
				{
					"internalType": "address",
					"name": "account",
					"type": "address"
				}
			],
			"name": "removeAccount",
			"outputs": [],
			"stateMutability": "nonpayable",
			"type": "function"
		},
		{
			"inputs": [
				{
					"internalType": "address",
					"name": "account",
					"type": "address"
				},
				{
					"internalType": "uint256",
					"name": "amount",
					"type": "uint256"
				}
			],
			"name": "removeEntryFromWallet",
			"outputs": [],
			"stateMutability": "nonpayable",
			"type": "function"
		},
		{
			"inputs": [],
			"name": "renounceOwnership",
			"outputs": [],
			"stateMutability": "nonpayable",
			"type": "function"
		},
		{
			"inputs": [
				{
					"internalType": "uint256",
					"name": "startIndex",
					"type": "uint256"
				},
				{
					"internalType": "uint256",
					"name": "endIndex",
					"type": "uint256"
				}
			],
			"name": "resultLog",
			"outputs": [
				{
					"components": [
						{
							"internalType": "uint256",
							"name": "totalEntries",
							"type": "uint256"
						},
						{
							"internalType": "uint256",
							"name": "winningNumber",
							"type": "uint256"
						},
						{
							"internalType": "uint256",
							"name": "payout",
							"type": "uint256"
						},
						{
							"internalType": "uint256",
							"name": "endTime",
							"type": "uint256"
						},
						{
							"internalType": "address",
							"name": "winningAddress",
							"type": "address"
						}
					],
					"internalType": "struct ACELotto.Results[]",
					"name": "log",
					"type": "tuple[]"
				}
			],
			"stateMutability": "view",
			"type": "function"
		},
		{
			"inputs": [],
			"name": "roundEntries",
			"outputs": [
				{
					"internalType": "uint256",
					"name": "",
					"type": "uint256"
				}
			],
			"stateMutability": "view",
			"type": "function"
		},
		{
			"inputs": [
				{
					"internalType": "uint256",
					"name": "",
					"type": "uint256"
				}
			],
			"name": "roundEntry",
			"outputs": [
				{
					"internalType": "address",
					"name": "",
					"type": "address"
				}
			],
			"stateMutability": "view",
			"type": "function"
		},
		{
			"inputs": [],
			"name": "roundNum",
			"outputs": [
				{
					"internalType": "uint256",
					"name": "",
					"type": "uint256"
				}
			],
			"stateMutability": "view",
			"type": "function"
		},
		{
			"inputs": [
				{
					"internalType": "uint256",
					"name": "",
					"type": "uint256"
				}
			],
			"name": "roundResults",
			"outputs": [
				{
					"internalType": "uint256",
					"name": "totalEntries",
					"type": "uint256"
				},
				{
					"internalType": "uint256",
					"name": "winningNumber",
					"type": "uint256"
				},
				{
					"internalType": "uint256",
					"name": "payout",
					"type": "uint256"
				},
				{
					"internalType": "uint256",
					"name": "endTime",
					"type": "uint256"
				},
				{
					"internalType": "address",
					"name": "winningAddress",
					"type": "address"
				}
			],
			"stateMutability": "view",
			"type": "function"
		},
		{
			"inputs": [],
			"name": "totalPayout",
			"outputs": [
				{
					"internalType": "uint256",
					"name": "",
					"type": "uint256"
				}
			],
			"stateMutability": "view",
			"type": "function"
		},
		{
			"inputs": [
				{
					"internalType": "address",
					"name": "newOwner",
					"type": "address"
				}
			],
			"name": "transferOwnership",
			"outputs": [],
			"stateMutability": "nonpayable",
			"type": "function"
		},
		{
			"inputs": [
				{
					"internalType": "address",
					"name": "account",
					"type": "address"
				},
				{
					"internalType": "uint256",
					"name": "amount",
					"type": "uint256"
				}
			],
			"name": "updateAccount",
			"outputs": [],
			"stateMutability": "nonpayable",
			"type": "function"
		},
		{
			"inputs": [
				{
					"internalType": "address",
					"name": "account",
					"type": "address"
				}
			],
			"name": "userEntries",
			"outputs": [
				{
					"internalType": "uint256",
					"name": "",
					"type": "uint256"
				}
			],
			"stateMutability": "view",
			"type": "function"
		}
	]
}